{
	"Documents/GitHub/contract-token-cryptoMonster/main.sol": {
		"CryptoMonster": {
			"abi": [
				{
					"inputs": [
						{
							"internalType": "string",
							"name": "_name",
							"type": "string"
						},
						{
							"internalType": "string",
							"name": "_symbol",
							"type": "string"
						},
						{
							"internalType": "uint256",
							"name": "_totalCryptoMonster",
							"type": "uint256"
						}
					],
					"stateMutability": "nonpayable",
					"type": "constructor"
				},
				{
					"anonymous": false,
					"inputs": [
						{
							"indexed": true,
							"internalType": "address",
							"name": "_from",
							"type": "address"
						},
						{
							"indexed": true,
							"internalType": "address",
							"name": "_to",
							"type": "address"
						},
						{
							"indexed": false,
							"internalType": "uint256",
							"name": "_value",
							"type": "uint256"
						}
					],
					"name": "Transfer",
					"type": "event"
				},
				{
					"inputs": [
						{
							"internalType": "address",
							"name": "",
							"type": "address"
						}
					],
					"name": "balance",
					"outputs": [
						{
							"internalType": "uint256",
							"name": "",
							"type": "uint256"
						}
					],
					"stateMutability": "view",
					"type": "function"
				},
				{
					"inputs": [],
					"name": "totalSupply",
					"outputs": [
						{
							"internalType": "uint256",
							"name": "",
							"type": "uint256"
						}
					],
					"stateMutability": "view",
					"type": "function"
				}
			],
			"devdoc": {
				"kind": "dev",
				"methods": {},
				"version": 1
			},
			"evm": {
				"assembly": "    /* \"Documents/GitHub/contract-token-cryptoMonster/main.sol\":35:763  contract CryptoMonster {\r... */\n  mstore(0x40, 0x80)\n    /* \"Documents/GitHub/contract-token-cryptoMonster/main.sol\":290:568  constructor(string memory _name, string memory _symbol, uint256 _totalCryptoMonster) public {\r... */\n  callvalue\n  dup1\n  iszero\n  tag_1\n  jumpi\n  0x00\n  dup1\n  revert\ntag_1:\n  pop\n  mload(0x40)\n  sub(codesize, bytecodeSize)\n  dup1\n  bytecodeSize\n  dup4\n  codecopy\n  dup2\n  dup2\n  add\n  0x40\n  mstore\n  dup2\n  add\n  swap1\n  tag_2\n  swap2\n  swap1\n  tag_3\n  jump\t// in\ntag_2:\n    /* \"Documents/GitHub/contract-token-cryptoMonster/main.sol\":401:411  msg.sender */\n  caller\n    /* \"Documents/GitHub/contract-token-cryptoMonster/main.sol\":393:398  owner */\n  0x00\n  dup1\n    /* \"Documents/GitHub/contract-token-cryptoMonster/main.sol\":393:411  owner = msg.sender */\n  0x0100\n  exp\n  dup2\n  sload\n  dup2\n  0xffffffffffffffffffffffffffffffffffffffff\n  mul\n  not\n  and\n  swap1\n  dup4\n  0xffffffffffffffffffffffffffffffffffffffff\n  and\n  mul\n  or\n  swap1\n  sstore\n  pop\n    /* \"Documents/GitHub/contract-token-cryptoMonster/main.sol\":429:434  _name */\n  dup3\n    /* \"Documents/GitHub/contract-token-cryptoMonster/main.sol\":422:426  name */\n  0x01\n    /* \"Documents/GitHub/contract-token-cryptoMonster/main.sol\":422:434  name = _name */\n  swap1\n  dup1\n  mload\n  swap1\n  0x20\n  add\n  swap1\n  tag_6\n  swap3\n  swap2\n  swap1\n  tag_7\n  jump\t// in\ntag_6:\n  pop\n    /* \"Documents/GitHub/contract-token-cryptoMonster/main.sol\":454:461  _symbol */\n  dup2\n    /* \"Documents/GitHub/contract-token-cryptoMonster/main.sol\":445:451  symbol */\n  0x02\n    /* \"Documents/GitHub/contract-token-cryptoMonster/main.sol\":445:461  symbol = _symbol */\n  swap1\n  dup1\n  mload\n  swap1\n  0x20\n  add\n  swap1\n  tag_8\n  swap3\n  swap2\n  swap1\n  tag_7\n  jump\t// in\ntag_8:\n  pop\n    /* \"Documents/GitHub/contract-token-cryptoMonster/main.sol\":493:512  _totalCryptoMonster */\n  dup1\n    /* \"Documents/GitHub/contract-token-cryptoMonster/main.sol\":472:490  totalCryptoMonster */\n  0x03\n    /* \"Documents/GitHub/contract-token-cryptoMonster/main.sol\":472:512  totalCryptoMonster = _totalCryptoMonster */\n  dup2\n  swap1\n  sstore\n  pop\n    /* \"Documents/GitHub/contract-token-cryptoMonster/main.sol\":542:560  totalCryptoMonster */\n  sload(0x03)\n    /* \"Documents/GitHub/contract-token-cryptoMonster/main.sol\":525:532  balance */\n  0x04\n    /* \"Documents/GitHub/contract-token-cryptoMonster/main.sol\":525:539  balance[owner] */\n  0x00\n    /* \"Documents/GitHub/contract-token-cryptoMonster/main.sol\":533:538  owner */\n  dup1\n  0x00\n  swap1\n  sload\n  swap1\n  0x0100\n  exp\n  swap1\n  div\n  0xffffffffffffffffffffffffffffffffffffffff\n  and\n    /* \"Documents/GitHub/contract-token-cryptoMonster/main.sol\":525:539  balance[owner] */\n  0xffffffffffffffffffffffffffffffffffffffff\n  and\n  0xffffffffffffffffffffffffffffffffffffffff\n  and\n  dup2\n  mstore\n  0x20\n  add\n  swap1\n  dup2\n  mstore\n  0x20\n  add\n  0x00\n  keccak256\n    /* \"Documents/GitHub/contract-token-cryptoMonster/main.sol\":525:560  balance[owner] = totalCryptoMonster */\n  dup2\n  swap1\n  sstore\n  pop\n    /* \"Documents/GitHub/contract-token-cryptoMonster/main.sol\":290:568  constructor(string memory _name, string memory _symbol, uint256 _totalCryptoMonster) public {\r... */\n  pop\n  pop\n  pop\n    /* \"Documents/GitHub/contract-token-cryptoMonster/main.sol\":35:763  contract CryptoMonster {\r... */\n  jump(tag_9)\ntag_7:\n  dup3\n  dup1\n  sload\n  tag_10\n  swap1\n  tag_11\n  jump\t// in\ntag_10:\n  swap1\n  0x00\n  mstore\n  keccak256(0x00, 0x20)\n  swap1\n  0x1f\n  add\n  0x20\n  swap1\n  div\n  dup2\n  add\n  swap3\n  dup3\n  tag_13\n  jumpi\n  0x00\n  dup6\n  sstore\n  jump(tag_12)\ntag_13:\n  dup3\n  0x1f\n  lt\n  tag_14\n  jumpi\n  dup1\n  mload\n  not(0xff)\n  and\n  dup4\n  dup1\n  add\n  or\n  dup6\n  sstore\n  jump(tag_12)\ntag_14:\n  dup3\n  dup1\n  add\n  0x01\n  add\n  dup6\n  sstore\n  dup3\n  iszero\n  tag_12\n  jumpi\n  swap2\n  dup3\n  add\ntag_15:\n  dup3\n  dup2\n  gt\n  iszero\n  tag_16\n  jumpi\n  dup3\n  mload\n  dup3\n  sstore\n  swap2\n  0x20\n  add\n  swap2\n  swap1\n  0x01\n  add\n  swap1\n  jump(tag_15)\ntag_16:\ntag_12:\n  pop\n  swap1\n  pop\n  tag_17\n  swap2\n  swap1\n  tag_18\n  jump\t// in\ntag_17:\n  pop\n  swap1\n  jump\t// out\ntag_18:\ntag_19:\n  dup1\n  dup3\n  gt\n  iszero\n  tag_20\n  jumpi\n  0x00\n  dup2\n  0x00\n  swap1\n  sstore\n  pop\n  0x01\n  add\n  jump(tag_19)\ntag_20:\n  pop\n  swap1\n  jump\t// out\n    /* \"#utility.yul\":7:428   */\ntag_22:\n    /* \"#utility.yul\":96:101   */\n  0x00\n    /* \"#utility.yul\":121:187   */\n  tag_24\n    /* \"#utility.yul\":137:186   */\n  tag_25\n    /* \"#utility.yul\":179:185   */\n  dup5\n    /* \"#utility.yul\":137:186   */\n  tag_26\n  jump\t// in\ntag_25:\n    /* \"#utility.yul\":121:187   */\n  tag_27\n  jump\t// in\ntag_24:\n    /* \"#utility.yul\":112:187   */\n  swap1\n  pop\n    /* \"#utility.yul\":210:216   */\n  dup3\n    /* \"#utility.yul\":203:208   */\n  dup2\n    /* \"#utility.yul\":196:217   */\n  mstore\n    /* \"#utility.yul\":248:252   */\n  0x20\n    /* \"#utility.yul\":241:246   */\n  dup2\n    /* \"#utility.yul\":237:253   */\n  add\n    /* \"#utility.yul\":286:289   */\n  dup5\n    /* \"#utility.yul\":277:283   */\n  dup5\n    /* \"#utility.yul\":272:275   */\n  dup5\n    /* \"#utility.yul\":268:284   */\n  add\n    /* \"#utility.yul\":265:290   */\n  gt\n    /* \"#utility.yul\":262:374   */\n  iszero\n  tag_28\n  jumpi\n    /* \"#utility.yul\":293:372   */\n  tag_29\n  tag_30\n  jump\t// in\ntag_29:\n    /* \"#utility.yul\":262:374   */\ntag_28:\n    /* \"#utility.yul\":383:422   */\n  tag_31\n    /* \"#utility.yul\":415:421   */\n  dup5\n    /* \"#utility.yul\":410:413   */\n  dup3\n    /* \"#utility.yul\":405:408   */\n  dup6\n    /* \"#utility.yul\":383:422   */\n  tag_32\n  jump\t// in\ntag_31:\n    /* \"#utility.yul\":102:428   */\n  pop\n    /* \"#utility.yul\":7:428   */\n  swap4\n  swap3\n  pop\n  pop\n  pop\n  jump\t// out\n    /* \"#utility.yul\":448:803   */\ntag_33:\n    /* \"#utility.yul\":515:520   */\n  0x00\n    /* \"#utility.yul\":564:567   */\n  dup3\n    /* \"#utility.yul\":557:561   */\n  0x1f\n    /* \"#utility.yul\":549:555   */\n  dup4\n    /* \"#utility.yul\":545:562   */\n  add\n    /* \"#utility.yul\":541:568   */\n  slt\n    /* \"#utility.yul\":531:653   */\n  tag_35\n  jumpi\n    /* \"#utility.yul\":572:651   */\n  tag_36\n  tag_37\n  jump\t// in\ntag_36:\n    /* \"#utility.yul\":531:653   */\ntag_35:\n    /* \"#utility.yul\":682:688   */\n  dup2\n    /* \"#utility.yul\":676:689   */\n  mload\n    /* \"#utility.yul\":707:797   */\n  tag_38\n    /* \"#utility.yul\":793:796   */\n  dup5\n    /* \"#utility.yul\":785:791   */\n  dup3\n    /* \"#utility.yul\":778:782   */\n  0x20\n    /* \"#utility.yul\":770:776   */\n  dup7\n    /* \"#utility.yul\":766:783   */\n  add\n    /* \"#utility.yul\":707:797   */\n  tag_22\n  jump\t// in\ntag_38:\n    /* \"#utility.yul\":698:797   */\n  swap2\n  pop\n    /* \"#utility.yul\":521:803   */\n  pop\n    /* \"#utility.yul\":448:803   */\n  swap3\n  swap2\n  pop\n  pop\n  jump\t// out\n    /* \"#utility.yul\":809:952   */\ntag_39:\n    /* \"#utility.yul\":866:871   */\n  0x00\n    /* \"#utility.yul\":897:903   */\n  dup2\n    /* \"#utility.yul\":891:904   */\n  mload\n    /* \"#utility.yul\":882:904   */\n  swap1\n  pop\n    /* \"#utility.yul\":913:946   */\n  tag_41\n    /* \"#utility.yul\":940:945   */\n  dup2\n    /* \"#utility.yul\":913:946   */\n  tag_42\n  jump\t// in\ntag_41:\n    /* \"#utility.yul\":809:952   */\n  swap3\n  swap2\n  pop\n  pop\n  jump\t// out\n    /* \"#utility.yul\":958:1967   */\ntag_3:\n    /* \"#utility.yul\":1066:1072   */\n  0x00\n    /* \"#utility.yul\":1074:1080   */\n  dup1\n    /* \"#utility.yul\":1082:1088   */\n  0x00\n    /* \"#utility.yul\":1131:1133   */\n  0x60\n    /* \"#utility.yul\":1119:1128   */\n  dup5\n    /* \"#utility.yul\":1110:1117   */\n  dup7\n    /* \"#utility.yul\":1106:1129   */\n  sub\n    /* \"#utility.yul\":1102:1134   */\n  slt\n    /* \"#utility.yul\":1099:1218   */\n  iszero\n  tag_44\n  jumpi\n    /* \"#utility.yul\":1137:1216   */\n  tag_45\n  tag_46\n  jump\t// in\ntag_45:\n    /* \"#utility.yul\":1099:1218   */\ntag_44:\n    /* \"#utility.yul\":1278:1279   */\n  0x00\n    /* \"#utility.yul\":1267:1276   */\n  dup5\n    /* \"#utility.yul\":1263:1280   */\n  add\n    /* \"#utility.yul\":1257:1281   */\n  mload\n    /* \"#utility.yul\":1308:1326   */\n  0xffffffffffffffff\n    /* \"#utility.yul\":1300:1306   */\n  dup2\n    /* \"#utility.yul\":1297:1327   */\n  gt\n    /* \"#utility.yul\":1294:1411   */\n  iszero\n  tag_47\n  jumpi\n    /* \"#utility.yul\":1330:1409   */\n  tag_48\n  tag_49\n  jump\t// in\ntag_48:\n    /* \"#utility.yul\":1294:1411   */\ntag_47:\n    /* \"#utility.yul\":1435:1509   */\n  tag_50\n    /* \"#utility.yul\":1501:1508   */\n  dup7\n    /* \"#utility.yul\":1492:1498   */\n  dup3\n    /* \"#utility.yul\":1481:1490   */\n  dup8\n    /* \"#utility.yul\":1477:1499   */\n  add\n    /* \"#utility.yul\":1435:1509   */\n  tag_33\n  jump\t// in\ntag_50:\n    /* \"#utility.yul\":1425:1509   */\n  swap4\n  pop\n    /* \"#utility.yul\":1228:1519   */\n  pop\n    /* \"#utility.yul\":1579:1581   */\n  0x20\n    /* \"#utility.yul\":1568:1577   */\n  dup5\n    /* \"#utility.yul\":1564:1582   */\n  add\n    /* \"#utility.yul\":1558:1583   */\n  mload\n    /* \"#utility.yul\":1610:1628   */\n  0xffffffffffffffff\n    /* \"#utility.yul\":1602:1608   */\n  dup2\n    /* \"#utility.yul\":1599:1629   */\n  gt\n    /* \"#utility.yul\":1596:1713   */\n  iszero\n  tag_51\n  jumpi\n    /* \"#utility.yul\":1632:1711   */\n  tag_52\n  tag_49\n  jump\t// in\ntag_52:\n    /* \"#utility.yul\":1596:1713   */\ntag_51:\n    /* \"#utility.yul\":1737:1811   */\n  tag_53\n    /* \"#utility.yul\":1803:1810   */\n  dup7\n    /* \"#utility.yul\":1794:1800   */\n  dup3\n    /* \"#utility.yul\":1783:1792   */\n  dup8\n    /* \"#utility.yul\":1779:1801   */\n  add\n    /* \"#utility.yul\":1737:1811   */\n  tag_33\n  jump\t// in\ntag_53:\n    /* \"#utility.yul\":1727:1811   */\n  swap3\n  pop\n    /* \"#utility.yul\":1529:1821   */\n  pop\n    /* \"#utility.yul\":1860:1862   */\n  0x40\n    /* \"#utility.yul\":1886:1950   */\n  tag_54\n    /* \"#utility.yul\":1942:1949   */\n  dup7\n    /* \"#utility.yul\":1933:1939   */\n  dup3\n    /* \"#utility.yul\":1922:1931   */\n  dup8\n    /* \"#utility.yul\":1918:1940   */\n  add\n    /* \"#utility.yul\":1886:1950   */\n  tag_39\n  jump\t// in\ntag_54:\n    /* \"#utility.yul\":1876:1950   */\n  swap2\n  pop\n    /* \"#utility.yul\":1831:1960   */\n  pop\n    /* \"#utility.yul\":958:1967   */\n  swap3\n  pop\n  swap3\n  pop\n  swap3\n  jump\t// out\n    /* \"#utility.yul\":1973:2102   */\ntag_27:\n    /* \"#utility.yul\":2007:2013   */\n  0x00\n    /* \"#utility.yul\":2034:2054   */\n  tag_56\n  tag_57\n  jump\t// in\ntag_56:\n    /* \"#utility.yul\":2024:2054   */\n  swap1\n  pop\n    /* \"#utility.yul\":2063:2096   */\n  tag_58\n    /* \"#utility.yul\":2091:2095   */\n  dup3\n    /* \"#utility.yul\":2083:2089   */\n  dup3\n    /* \"#utility.yul\":2063:2096   */\n  tag_59\n  jump\t// in\ntag_58:\n    /* \"#utility.yul\":1973:2102   */\n  swap2\n  swap1\n  pop\n  jump\t// out\n    /* \"#utility.yul\":2108:2183   */\ntag_57:\n    /* \"#utility.yul\":2141:2147   */\n  0x00\n    /* \"#utility.yul\":2174:2176   */\n  0x40\n    /* \"#utility.yul\":2168:2177   */\n  mload\n    /* \"#utility.yul\":2158:2177   */\n  swap1\n  pop\n    /* \"#utility.yul\":2108:2183   */\n  swap1\n  jump\t// out\n    /* \"#utility.yul\":2189:2497   */\ntag_26:\n    /* \"#utility.yul\":2251:2255   */\n  0x00\n    /* \"#utility.yul\":2341:2359   */\n  0xffffffffffffffff\n    /* \"#utility.yul\":2333:2339   */\n  dup3\n    /* \"#utility.yul\":2330:2360   */\n  gt\n    /* \"#utility.yul\":2327:2383   */\n  iszero\n  tag_62\n  jumpi\n    /* \"#utility.yul\":2363:2381   */\n  tag_63\n  tag_64\n  jump\t// in\ntag_63:\n    /* \"#utility.yul\":2327:2383   */\ntag_62:\n    /* \"#utility.yul\":2401:2430   */\n  tag_65\n    /* \"#utility.yul\":2423:2429   */\n  dup3\n    /* \"#utility.yul\":2401:2430   */\n  tag_66\n  jump\t// in\ntag_65:\n    /* \"#utility.yul\":2393:2430   */\n  swap1\n  pop\n    /* \"#utility.yul\":2485:2489   */\n  0x20\n    /* \"#utility.yul\":2479:2483   */\n  dup2\n    /* \"#utility.yul\":2475:2490   */\n  add\n    /* \"#utility.yul\":2467:2490   */\n  swap1\n  pop\n    /* \"#utility.yul\":2189:2497   */\n  swap2\n  swap1\n  pop\n  jump\t// out\n    /* \"#utility.yul\":2503:2580   */\ntag_67:\n    /* \"#utility.yul\":2540:2547   */\n  0x00\n    /* \"#utility.yul\":2569:2574   */\n  dup2\n    /* \"#utility.yul\":2558:2574   */\n  swap1\n  pop\n    /* \"#utility.yul\":2503:2580   */\n  swap2\n  swap1\n  pop\n  jump\t// out\n    /* \"#utility.yul\":2586:2893   */\ntag_32:\n    /* \"#utility.yul\":2654:2655   */\n  0x00\n    /* \"#utility.yul\":2664:2777   */\ntag_70:\n    /* \"#utility.yul\":2678:2684   */\n  dup4\n    /* \"#utility.yul\":2675:2676   */\n  dup2\n    /* \"#utility.yul\":2672:2685   */\n  lt\n    /* \"#utility.yul\":2664:2777   */\n  iszero\n  tag_72\n  jumpi\n    /* \"#utility.yul\":2763:2764   */\n  dup1\n    /* \"#utility.yul\":2758:2761   */\n  dup3\n    /* \"#utility.yul\":2754:2765   */\n  add\n    /* \"#utility.yul\":2748:2766   */\n  mload\n    /* \"#utility.yul\":2744:2745   */\n  dup2\n    /* \"#utility.yul\":2739:2742   */\n  dup5\n    /* \"#utility.yul\":2735:2746   */\n  add\n    /* \"#utility.yul\":2728:2767   */\n  mstore\n    /* \"#utility.yul\":2700:2702   */\n  0x20\n    /* \"#utility.yul\":2697:2698   */\n  dup2\n    /* \"#utility.yul\":2693:2703   */\n  add\n    /* \"#utility.yul\":2688:2703   */\n  swap1\n  pop\n    /* \"#utility.yul\":2664:2777   */\n  jump(tag_70)\ntag_72:\n    /* \"#utility.yul\":2795:2801   */\n  dup4\n    /* \"#utility.yul\":2792:2793   */\n  dup2\n    /* \"#utility.yul\":2789:2802   */\n  gt\n    /* \"#utility.yul\":2786:2887   */\n  iszero\n  tag_73\n  jumpi\n    /* \"#utility.yul\":2875:2876   */\n  0x00\n    /* \"#utility.yul\":2866:2872   */\n  dup5\n    /* \"#utility.yul\":2861:2864   */\n  dup5\n    /* \"#utility.yul\":2857:2873   */\n  add\n    /* \"#utility.yul\":2850:2877   */\n  mstore\n    /* \"#utility.yul\":2786:2887   */\ntag_73:\n    /* \"#utility.yul\":2635:2893   */\n  pop\n    /* \"#utility.yul\":2586:2893   */\n  pop\n  pop\n  pop\n  jump\t// out\n    /* \"#utility.yul\":2899:3219   */\ntag_11:\n    /* \"#utility.yul\":2943:2949   */\n  0x00\n    /* \"#utility.yul\":2980:2981   */\n  0x02\n    /* \"#utility.yul\":2974:2978   */\n  dup3\n    /* \"#utility.yul\":2970:2982   */\n  div\n    /* \"#utility.yul\":2960:2982   */\n  swap1\n  pop\n    /* \"#utility.yul\":3027:3028   */\n  0x01\n    /* \"#utility.yul\":3021:3025   */\n  dup3\n    /* \"#utility.yul\":3017:3029   */\n  and\n    /* \"#utility.yul\":3048:3066   */\n  dup1\n    /* \"#utility.yul\":3038:3119   */\n  tag_75\n  jumpi\n    /* \"#utility.yul\":3104:3108   */\n  0x7f\n    /* \"#utility.yul\":3096:3102   */\n  dup3\n    /* \"#utility.yul\":3092:3109   */\n  and\n    /* \"#utility.yul\":3082:3109   */\n  swap2\n  pop\n    /* \"#utility.yul\":3038:3119   */\ntag_75:\n    /* \"#utility.yul\":3166:3168   */\n  0x20\n    /* \"#utility.yul\":3158:3164   */\n  dup3\n    /* \"#utility.yul\":3155:3169   */\n  lt\n    /* \"#utility.yul\":3135:3153   */\n  dup2\n    /* \"#utility.yul\":3132:3170   */\n  eq\n    /* \"#utility.yul\":3129:3213   */\n  iszero\n  tag_76\n  jumpi\n    /* \"#utility.yul\":3185:3203   */\n  tag_77\n  tag_78\n  jump\t// in\ntag_77:\n    /* \"#utility.yul\":3129:3213   */\ntag_76:\n    /* \"#utility.yul\":2950:3219   */\n  pop\n    /* \"#utility.yul\":2899:3219   */\n  swap2\n  swap1\n  pop\n  jump\t// out\n    /* \"#utility.yul\":3225:3506   */\ntag_59:\n    /* \"#utility.yul\":3308:3335   */\n  tag_80\n    /* \"#utility.yul\":3330:3334   */\n  dup3\n    /* \"#utility.yul\":3308:3335   */\n  tag_66\n  jump\t// in\ntag_80:\n    /* \"#utility.yul\":3300:3306   */\n  dup2\n    /* \"#utility.yul\":3296:3336   */\n  add\n    /* \"#utility.yul\":3438:3444   */\n  dup2\n    /* \"#utility.yul\":3426:3436   */\n  dup2\n    /* \"#utility.yul\":3423:3445   */\n  lt\n    /* \"#utility.yul\":3402:3420   */\n  0xffffffffffffffff\n    /* \"#utility.yul\":3390:3400   */\n  dup3\n    /* \"#utility.yul\":3387:3421   */\n  gt\n    /* \"#utility.yul\":3384:3446   */\n  or\n    /* \"#utility.yul\":3381:3469   */\n  iszero\n  tag_81\n  jumpi\n    /* \"#utility.yul\":3449:3467   */\n  tag_82\n  tag_64\n  jump\t// in\ntag_82:\n    /* \"#utility.yul\":3381:3469   */\ntag_81:\n    /* \"#utility.yul\":3489:3499   */\n  dup1\n    /* \"#utility.yul\":3485:3487   */\n  0x40\n    /* \"#utility.yul\":3478:3500   */\n  mstore\n    /* \"#utility.yul\":3268:3506   */\n  pop\n    /* \"#utility.yul\":3225:3506   */\n  pop\n  pop\n  jump\t// out\n    /* \"#utility.yul\":3512:3692   */\ntag_78:\n    /* \"#utility.yul\":3560:3637   */\n  0x4e487b7100000000000000000000000000000000000000000000000000000000\n    /* \"#utility.yul\":3557:3558   */\n  0x00\n    /* \"#utility.yul\":3550:3638   */\n  mstore\n    /* \"#utility.yul\":3657:3661   */\n  0x22\n    /* \"#utility.yul\":3654:3655   */\n  0x04\n    /* \"#utility.yul\":3647:3662   */\n  mstore\n    /* \"#utility.yul\":3681:3685   */\n  0x24\n    /* \"#utility.yul\":3678:3679   */\n  0x00\n    /* \"#utility.yul\":3671:3686   */\n  revert\n    /* \"#utility.yul\":3698:3878   */\ntag_64:\n    /* \"#utility.yul\":3746:3823   */\n  0x4e487b7100000000000000000000000000000000000000000000000000000000\n    /* \"#utility.yul\":3743:3744   */\n  0x00\n    /* \"#utility.yul\":3736:3824   */\n  mstore\n    /* \"#utility.yul\":3843:3847   */\n  0x41\n    /* \"#utility.yul\":3840:3841   */\n  0x04\n    /* \"#utility.yul\":3833:3848   */\n  mstore\n    /* \"#utility.yul\":3867:3871   */\n  0x24\n    /* \"#utility.yul\":3864:3865   */\n  0x00\n    /* \"#utility.yul\":3857:3872   */\n  revert\n    /* \"#utility.yul\":3884:4001   */\ntag_37:\n    /* \"#utility.yul\":3993:3994   */\n  0x00\n    /* \"#utility.yul\":3990:3991   */\n  dup1\n    /* \"#utility.yul\":3983:3995   */\n  revert\n    /* \"#utility.yul\":4007:4124   */\ntag_30:\n    /* \"#utility.yul\":4116:4117   */\n  0x00\n    /* \"#utility.yul\":4113:4114   */\n  dup1\n    /* \"#utility.yul\":4106:4118   */\n  revert\n    /* \"#utility.yul\":4130:4247   */\ntag_49:\n    /* \"#utility.yul\":4239:4240   */\n  0x00\n    /* \"#utility.yul\":4236:4237   */\n  dup1\n    /* \"#utility.yul\":4229:4241   */\n  revert\n    /* \"#utility.yul\":4253:4370   */\ntag_46:\n    /* \"#utility.yul\":4362:4363   */\n  0x00\n    /* \"#utility.yul\":4359:4360   */\n  dup1\n    /* \"#utility.yul\":4352:4364   */\n  revert\n    /* \"#utility.yul\":4376:4478   */\ntag_66:\n    /* \"#utility.yul\":4417:4423   */\n  0x00\n    /* \"#utility.yul\":4468:4470   */\n  0x1f\n    /* \"#utility.yul\":4464:4471   */\n  not\n    /* \"#utility.yul\":4459:4461   */\n  0x1f\n    /* \"#utility.yul\":4452:4457   */\n  dup4\n    /* \"#utility.yul\":4448:4462   */\n  add\n    /* \"#utility.yul\":4444:4472   */\n  and\n    /* \"#utility.yul\":4434:4472   */\n  swap1\n  pop\n    /* \"#utility.yul\":4376:4478   */\n  swap2\n  swap1\n  pop\n  jump\t// out\n    /* \"#utility.yul\":4484:4606   */\ntag_42:\n    /* \"#utility.yul\":4557:4581   */\n  tag_91\n    /* \"#utility.yul\":4575:4580   */\n  dup2\n    /* \"#utility.yul\":4557:4581   */\n  tag_67\n  jump\t// in\ntag_91:\n    /* \"#utility.yul\":4550:4555   */\n  dup2\n    /* \"#utility.yul\":4547:4582   */\n  eq\n    /* \"#utility.yul\":4537:4600   */\n  tag_92\n  jumpi\n    /* \"#utility.yul\":4596:4597   */\n  0x00\n    /* \"#utility.yul\":4593:4594   */\n  dup1\n    /* \"#utility.yul\":4586:4598   */\n  revert\n    /* \"#utility.yul\":4537:4600   */\ntag_92:\n    /* \"#utility.yul\":4484:4606   */\n  pop\n  jump\t// out\n    /* \"Documents/GitHub/contract-token-cryptoMonster/main.sol\":35:763  contract CryptoMonster {\r... */\ntag_9:\n  dataSize(sub_0)\n  dup1\n  dataOffset(sub_0)\n  0x00\n  codecopy\n  0x00\n  return\nstop\n\nsub_0: assembly {\n        /* \"Documents/GitHub/contract-token-cryptoMonster/main.sol\":35:763  contract CryptoMonster {\r... */\n      mstore(0x40, 0x80)\n      callvalue\n      dup1\n      iszero\n      tag_1\n      jumpi\n      0x00\n      dup1\n      revert\n    tag_1:\n      pop\n      jumpi(tag_2, lt(calldatasize, 0x04))\n      shr(0xe0, calldataload(0x00))\n      dup1\n      0x18160ddd\n      eq\n      tag_3\n      jumpi\n      dup1\n      0xe3d670d7\n      eq\n      tag_4\n      jumpi\n    tag_2:\n      0x00\n      dup1\n      revert\n        /* \"Documents/GitHub/contract-token-cryptoMonster/main.sol\":659:755  function totalSupply() view public returns(uint256) {\r... */\n    tag_3:\n      tag_5\n      tag_6\n      jump\t// in\n    tag_5:\n      mload(0x40)\n      tag_7\n      swap2\n      swap1\n      tag_8\n      jump\t// in\n    tag_7:\n      mload(0x40)\n      dup1\n      swap2\n      sub\n      swap1\n      return\n        /* \"Documents/GitHub/contract-token-cryptoMonster/main.sol\":238:281  mapping (address => uint256) public balance */\n    tag_4:\n      tag_9\n      0x04\n      dup1\n      calldatasize\n      sub\n      dup2\n      add\n      swap1\n      tag_10\n      swap2\n      swap1\n      tag_11\n      jump\t// in\n    tag_10:\n      tag_12\n      jump\t// in\n    tag_9:\n      mload(0x40)\n      tag_13\n      swap2\n      swap1\n      tag_8\n      jump\t// in\n    tag_13:\n      mload(0x40)\n      dup1\n      swap2\n      sub\n      swap1\n      return\n        /* \"Documents/GitHub/contract-token-cryptoMonster/main.sol\":659:755  function totalSupply() view public returns(uint256) {\r... */\n    tag_6:\n        /* \"Documents/GitHub/contract-token-cryptoMonster/main.sol\":702:709  uint256 */\n      0x00\n        /* \"Documents/GitHub/contract-token-cryptoMonster/main.sol\":729:747  totalCryptoMonster */\n      sload(0x03)\n        /* \"Documents/GitHub/contract-token-cryptoMonster/main.sol\":722:747  return totalCryptoMonster */\n      swap1\n      pop\n        /* \"Documents/GitHub/contract-token-cryptoMonster/main.sol\":659:755  function totalSupply() view public returns(uint256) {\r... */\n      swap1\n      jump\t// out\n        /* \"Documents/GitHub/contract-token-cryptoMonster/main.sol\":238:281  mapping (address => uint256) public balance */\n    tag_12:\n      mstore(0x20, 0x04)\n      dup1\n      0x00\n      mstore\n      keccak256(0x00, 0x40)\n      0x00\n      swap2\n      pop\n      swap1\n      pop\n      sload\n      dup2\n      jump\t// out\n        /* \"#utility.yul\":7:146   */\n    tag_16:\n        /* \"#utility.yul\":53:58   */\n      0x00\n        /* \"#utility.yul\":91:97   */\n      dup2\n        /* \"#utility.yul\":78:98   */\n      calldataload\n        /* \"#utility.yul\":69:98   */\n      swap1\n      pop\n        /* \"#utility.yul\":107:140   */\n      tag_18\n        /* \"#utility.yul\":134:139   */\n      dup2\n        /* \"#utility.yul\":107:140   */\n      tag_19\n      jump\t// in\n    tag_18:\n        /* \"#utility.yul\":7:146   */\n      swap3\n      swap2\n      pop\n      pop\n      jump\t// out\n        /* \"#utility.yul\":152:481   */\n    tag_11:\n        /* \"#utility.yul\":211:217   */\n      0x00\n        /* \"#utility.yul\":260:262   */\n      0x20\n        /* \"#utility.yul\":248:257   */\n      dup3\n        /* \"#utility.yul\":239:246   */\n      dup5\n        /* \"#utility.yul\":235:258   */\n      sub\n        /* \"#utility.yul\":231:263   */\n      slt\n        /* \"#utility.yul\":228:347   */\n      iszero\n      tag_21\n      jumpi\n        /* \"#utility.yul\":266:345   */\n      tag_22\n      tag_23\n      jump\t// in\n    tag_22:\n        /* \"#utility.yul\":228:347   */\n    tag_21:\n        /* \"#utility.yul\":386:387   */\n      0x00\n        /* \"#utility.yul\":411:464   */\n      tag_24\n        /* \"#utility.yul\":456:463   */\n      dup5\n        /* \"#utility.yul\":447:453   */\n      dup3\n        /* \"#utility.yul\":436:445   */\n      dup6\n        /* \"#utility.yul\":432:454   */\n      add\n        /* \"#utility.yul\":411:464   */\n      tag_16\n      jump\t// in\n    tag_24:\n        /* \"#utility.yul\":401:464   */\n      swap2\n      pop\n        /* \"#utility.yul\":357:474   */\n      pop\n        /* \"#utility.yul\":152:481   */\n      swap3\n      swap2\n      pop\n      pop\n      jump\t// out\n        /* \"#utility.yul\":487:605   */\n    tag_25:\n        /* \"#utility.yul\":574:598   */\n      tag_27\n        /* \"#utility.yul\":592:597   */\n      dup2\n        /* \"#utility.yul\":574:598   */\n      tag_28\n      jump\t// in\n    tag_27:\n        /* \"#utility.yul\":569:572   */\n      dup3\n        /* \"#utility.yul\":562:599   */\n      mstore\n        /* \"#utility.yul\":487:605   */\n      pop\n      pop\n      jump\t// out\n        /* \"#utility.yul\":611:833   */\n    tag_8:\n        /* \"#utility.yul\":704:708   */\n      0x00\n        /* \"#utility.yul\":742:744   */\n      0x20\n        /* \"#utility.yul\":731:740   */\n      dup3\n        /* \"#utility.yul\":727:745   */\n      add\n        /* \"#utility.yul\":719:745   */\n      swap1\n      pop\n        /* \"#utility.yul\":755:826   */\n      tag_30\n        /* \"#utility.yul\":823:824   */\n      0x00\n        /* \"#utility.yul\":812:821   */\n      dup4\n        /* \"#utility.yul\":808:825   */\n      add\n        /* \"#utility.yul\":799:805   */\n      dup5\n        /* \"#utility.yul\":755:826   */\n      tag_25\n      jump\t// in\n    tag_30:\n        /* \"#utility.yul\":611:833   */\n      swap3\n      swap2\n      pop\n      pop\n      jump\t// out\n        /* \"#utility.yul\":920:1016   */\n    tag_33:\n        /* \"#utility.yul\":957:964   */\n      0x00\n        /* \"#utility.yul\":986:1010   */\n      tag_35\n        /* \"#utility.yul\":1004:1009   */\n      dup3\n        /* \"#utility.yul\":986:1010   */\n      tag_36\n      jump\t// in\n    tag_35:\n        /* \"#utility.yul\":975:1010   */\n      swap1\n      pop\n        /* \"#utility.yul\":920:1016   */\n      swap2\n      swap1\n      pop\n      jump\t// out\n        /* \"#utility.yul\":1022:1148   */\n    tag_36:\n        /* \"#utility.yul\":1059:1066   */\n      0x00\n        /* \"#utility.yul\":1099:1141   */\n      0xffffffffffffffffffffffffffffffffffffffff\n        /* \"#utility.yul\":1092:1097   */\n      dup3\n        /* \"#utility.yul\":1088:1142   */\n      and\n        /* \"#utility.yul\":1077:1142   */\n      swap1\n      pop\n        /* \"#utility.yul\":1022:1148   */\n      swap2\n      swap1\n      pop\n      jump\t// out\n        /* \"#utility.yul\":1154:1231   */\n    tag_28:\n        /* \"#utility.yul\":1191:1198   */\n      0x00\n        /* \"#utility.yul\":1220:1225   */\n      dup2\n        /* \"#utility.yul\":1209:1225   */\n      swap1\n      pop\n        /* \"#utility.yul\":1154:1231   */\n      swap2\n      swap1\n      pop\n      jump\t// out\n        /* \"#utility.yul\":1360:1477   */\n    tag_23:\n        /* \"#utility.yul\":1469:1470   */\n      0x00\n        /* \"#utility.yul\":1466:1467   */\n      dup1\n        /* \"#utility.yul\":1459:1471   */\n      revert\n        /* \"#utility.yul\":1483:1605   */\n    tag_19:\n        /* \"#utility.yul\":1556:1580   */\n      tag_43\n        /* \"#utility.yul\":1574:1579   */\n      dup2\n        /* \"#utility.yul\":1556:1580   */\n      tag_33\n      jump\t// in\n    tag_43:\n        /* \"#utility.yul\":1549:1554   */\n      dup2\n        /* \"#utility.yul\":1546:1581   */\n      eq\n        /* \"#utility.yul\":1536:1599   */\n      tag_44\n      jumpi\n        /* \"#utility.yul\":1595:1596   */\n      0x00\n        /* \"#utility.yul\":1592:1593   */\n      dup1\n        /* \"#utility.yul\":1585:1597   */\n      revert\n        /* \"#utility.yul\":1536:1599   */\n    tag_44:\n        /* \"#utility.yul\":1483:1605   */\n      pop\n      jump\t// out\n\n    auxdata: 0xa264697066735822122050fd43a8dae1229bec3dd5b752c66486cf28209539aafdc6551f745581ee1d0d64736f6c63430008070033\n}\n",
				"bytecode": {
					"linkReferences": {},
					"object": "608060405234801561001057600080fd5b5060405161060d38038061060d8339818101604052810190610032919061023e565b336000806101000a81548173ffffffffffffffffffffffffffffffffffffffff021916908373ffffffffffffffffffffffffffffffffffffffff1602179055508260019080519060200190610088929190610116565b50816002908051906020019061009f929190610116565b5080600381905550600354600460008060009054906101000a900473ffffffffffffffffffffffffffffffffffffffff1673ffffffffffffffffffffffffffffffffffffffff1673ffffffffffffffffffffffffffffffffffffffff16815260200190815260200160002081905550505050610459565b8280546101229061035c565b90600052602060002090601f016020900481019282610144576000855561018b565b82601f1061015d57805160ff191683800117855561018b565b8280016001018555821561018b579182015b8281111561018a57825182559160200191906001019061016f565b5b509050610198919061019c565b5090565b5b808211156101b557600081600090555060010161019d565b5090565b60006101cc6101c7846102ee565b6102c9565b9050828152602081018484840111156101e8576101e7610422565b5b6101f3848285610329565b509392505050565b600082601f8301126102105761020f61041d565b5b81516102208482602086016101b9565b91505092915050565b60008151905061023881610442565b92915050565b6000806000606084860312156102575761025661042c565b5b600084015167ffffffffffffffff81111561027557610274610427565b5b610281868287016101fb565b935050602084015167ffffffffffffffff8111156102a2576102a1610427565b5b6102ae868287016101fb565b92505060406102bf86828701610229565b9150509250925092565b60006102d36102e4565b90506102df828261038e565b919050565b6000604051905090565b600067ffffffffffffffff821115610309576103086103ee565b5b61031282610431565b9050602081019050919050565b6000819050919050565b60005b8381101561034757808201518184015260208101905061032c565b83811115610356576000848401525b50505050565b6000600282049050600182168061037457607f821691505b60208210811415610388576103876103bf565b5b50919050565b61039782610431565b810181811067ffffffffffffffff821117156103b6576103b56103ee565b5b80604052505050565b7f4e487b7100000000000000000000000000000000000000000000000000000000600052602260045260246000fd5b7f4e487b7100000000000000000000000000000000000000000000000000000000600052604160045260246000fd5b600080fd5b600080fd5b600080fd5b600080fd5b6000601f19601f8301169050919050565b61044b8161031f565b811461045657600080fd5b50565b6101a5806104686000396000f3fe608060405234801561001057600080fd5b50600436106100365760003560e01c806318160ddd1461003b578063e3d670d714610059575b600080fd5b610043610089565b60405161005091906100fc565b60405180910390f35b610073600480360381019061006e91906100c0565b610093565b60405161008091906100fc565b60405180910390f35b6000600354905090565b60046020528060005260406000206000915090505481565b6000813590506100ba81610158565b92915050565b6000602082840312156100d6576100d5610153565b5b60006100e4848285016100ab565b91505092915050565b6100f681610149565b82525050565b600060208201905061011160008301846100ed565b92915050565b600061012282610129565b9050919050565b600073ffffffffffffffffffffffffffffffffffffffff82169050919050565b6000819050919050565b600080fd5b61016181610117565b811461016c57600080fd5b5056fea264697066735822122050fd43a8dae1229bec3dd5b752c66486cf28209539aafdc6551f745581ee1d0d64736f6c63430008070033",
					"opcodes": "PUSH1 0x80 PUSH1 0x40 MSTORE CALLVALUE DUP1 ISZERO PUSH2 0x10 JUMPI PUSH1 0x0 DUP1 REVERT JUMPDEST POP PUSH1 0x40 MLOAD PUSH2 0x60D CODESIZE SUB DUP1 PUSH2 0x60D DUP4 CODECOPY DUP2 DUP2 ADD PUSH1 0x40 MSTORE DUP2 ADD SWAP1 PUSH2 0x32 SWAP2 SWAP1 PUSH2 0x23E JUMP JUMPDEST CALLER PUSH1 0x0 DUP1 PUSH2 0x100 EXP DUP2 SLOAD DUP2 PUSH20 0xFFFFFFFFFFFFFFFFFFFFFFFFFFFFFFFFFFFFFFFF MUL NOT AND SWAP1 DUP4 PUSH20 0xFFFFFFFFFFFFFFFFFFFFFFFFFFFFFFFFFFFFFFFF AND MUL OR SWAP1 SSTORE POP DUP3 PUSH1 0x1 SWAP1 DUP1 MLOAD SWAP1 PUSH1 0x20 ADD SWAP1 PUSH2 0x88 SWAP3 SWAP2 SWAP1 PUSH2 0x116 JUMP JUMPDEST POP DUP2 PUSH1 0x2 SWAP1 DUP1 MLOAD SWAP1 PUSH1 0x20 ADD SWAP1 PUSH2 0x9F SWAP3 SWAP2 SWAP1 PUSH2 0x116 JUMP JUMPDEST POP DUP1 PUSH1 0x3 DUP2 SWAP1 SSTORE POP PUSH1 0x3 SLOAD PUSH1 0x4 PUSH1 0x0 DUP1 PUSH1 0x0 SWAP1 SLOAD SWAP1 PUSH2 0x100 EXP SWAP1 DIV PUSH20 0xFFFFFFFFFFFFFFFFFFFFFFFFFFFFFFFFFFFFFFFF AND PUSH20 0xFFFFFFFFFFFFFFFFFFFFFFFFFFFFFFFFFFFFFFFF AND PUSH20 0xFFFFFFFFFFFFFFFFFFFFFFFFFFFFFFFFFFFFFFFF AND DUP2 MSTORE PUSH1 0x20 ADD SWAP1 DUP2 MSTORE PUSH1 0x20 ADD PUSH1 0x0 KECCAK256 DUP2 SWAP1 SSTORE POP POP POP POP PUSH2 0x459 JUMP JUMPDEST DUP3 DUP1 SLOAD PUSH2 0x122 SWAP1 PUSH2 0x35C JUMP JUMPDEST SWAP1 PUSH1 0x0 MSTORE PUSH1 0x20 PUSH1 0x0 KECCAK256 SWAP1 PUSH1 0x1F ADD PUSH1 0x20 SWAP1 DIV DUP2 ADD SWAP3 DUP3 PUSH2 0x144 JUMPI PUSH1 0x0 DUP6 SSTORE PUSH2 0x18B JUMP JUMPDEST DUP3 PUSH1 0x1F LT PUSH2 0x15D JUMPI DUP1 MLOAD PUSH1 0xFF NOT AND DUP4 DUP1 ADD OR DUP6 SSTORE PUSH2 0x18B JUMP JUMPDEST DUP3 DUP1 ADD PUSH1 0x1 ADD DUP6 SSTORE DUP3 ISZERO PUSH2 0x18B JUMPI SWAP2 DUP3 ADD JUMPDEST DUP3 DUP2 GT ISZERO PUSH2 0x18A JUMPI DUP3 MLOAD DUP3 SSTORE SWAP2 PUSH1 0x20 ADD SWAP2 SWAP1 PUSH1 0x1 ADD SWAP1 PUSH2 0x16F JUMP JUMPDEST JUMPDEST POP SWAP1 POP PUSH2 0x198 SWAP2 SWAP1 PUSH2 0x19C JUMP JUMPDEST POP SWAP1 JUMP JUMPDEST JUMPDEST DUP1 DUP3 GT ISZERO PUSH2 0x1B5 JUMPI PUSH1 0x0 DUP2 PUSH1 0x0 SWAP1 SSTORE POP PUSH1 0x1 ADD PUSH2 0x19D JUMP JUMPDEST POP SWAP1 JUMP JUMPDEST PUSH1 0x0 PUSH2 0x1CC PUSH2 0x1C7 DUP5 PUSH2 0x2EE JUMP JUMPDEST PUSH2 0x2C9 JUMP JUMPDEST SWAP1 POP DUP3 DUP2 MSTORE PUSH1 0x20 DUP2 ADD DUP5 DUP5 DUP5 ADD GT ISZERO PUSH2 0x1E8 JUMPI PUSH2 0x1E7 PUSH2 0x422 JUMP JUMPDEST JUMPDEST PUSH2 0x1F3 DUP5 DUP3 DUP6 PUSH2 0x329 JUMP JUMPDEST POP SWAP4 SWAP3 POP POP POP JUMP JUMPDEST PUSH1 0x0 DUP3 PUSH1 0x1F DUP4 ADD SLT PUSH2 0x210 JUMPI PUSH2 0x20F PUSH2 0x41D JUMP JUMPDEST JUMPDEST DUP2 MLOAD PUSH2 0x220 DUP5 DUP3 PUSH1 0x20 DUP7 ADD PUSH2 0x1B9 JUMP JUMPDEST SWAP2 POP POP SWAP3 SWAP2 POP POP JUMP JUMPDEST PUSH1 0x0 DUP2 MLOAD SWAP1 POP PUSH2 0x238 DUP2 PUSH2 0x442 JUMP JUMPDEST SWAP3 SWAP2 POP POP JUMP JUMPDEST PUSH1 0x0 DUP1 PUSH1 0x0 PUSH1 0x60 DUP5 DUP7 SUB SLT ISZERO PUSH2 0x257 JUMPI PUSH2 0x256 PUSH2 0x42C JUMP JUMPDEST JUMPDEST PUSH1 0x0 DUP5 ADD MLOAD PUSH8 0xFFFFFFFFFFFFFFFF DUP2 GT ISZERO PUSH2 0x275 JUMPI PUSH2 0x274 PUSH2 0x427 JUMP JUMPDEST JUMPDEST PUSH2 0x281 DUP7 DUP3 DUP8 ADD PUSH2 0x1FB JUMP JUMPDEST SWAP4 POP POP PUSH1 0x20 DUP5 ADD MLOAD PUSH8 0xFFFFFFFFFFFFFFFF DUP2 GT ISZERO PUSH2 0x2A2 JUMPI PUSH2 0x2A1 PUSH2 0x427 JUMP JUMPDEST JUMPDEST PUSH2 0x2AE DUP7 DUP3 DUP8 ADD PUSH2 0x1FB JUMP JUMPDEST SWAP3 POP POP PUSH1 0x40 PUSH2 0x2BF DUP7 DUP3 DUP8 ADD PUSH2 0x229 JUMP JUMPDEST SWAP2 POP POP SWAP3 POP SWAP3 POP SWAP3 JUMP JUMPDEST PUSH1 0x0 PUSH2 0x2D3 PUSH2 0x2E4 JUMP JUMPDEST SWAP1 POP PUSH2 0x2DF DUP3 DUP3 PUSH2 0x38E JUMP JUMPDEST SWAP2 SWAP1 POP JUMP JUMPDEST PUSH1 0x0 PUSH1 0x40 MLOAD SWAP1 POP SWAP1 JUMP JUMPDEST PUSH1 0x0 PUSH8 0xFFFFFFFFFFFFFFFF DUP3 GT ISZERO PUSH2 0x309 JUMPI PUSH2 0x308 PUSH2 0x3EE JUMP JUMPDEST JUMPDEST PUSH2 0x312 DUP3 PUSH2 0x431 JUMP JUMPDEST SWAP1 POP PUSH1 0x20 DUP2 ADD SWAP1 POP SWAP2 SWAP1 POP JUMP JUMPDEST PUSH1 0x0 DUP2 SWAP1 POP SWAP2 SWAP1 POP JUMP JUMPDEST PUSH1 0x0 JUMPDEST DUP4 DUP2 LT ISZERO PUSH2 0x347 JUMPI DUP1 DUP3 ADD MLOAD DUP2 DUP5 ADD MSTORE PUSH1 0x20 DUP2 ADD SWAP1 POP PUSH2 0x32C JUMP JUMPDEST DUP4 DUP2 GT ISZERO PUSH2 0x356 JUMPI PUSH1 0x0 DUP5 DUP5 ADD MSTORE JUMPDEST POP POP POP POP JUMP JUMPDEST PUSH1 0x0 PUSH1 0x2 DUP3 DIV SWAP1 POP PUSH1 0x1 DUP3 AND DUP1 PUSH2 0x374 JUMPI PUSH1 0x7F DUP3 AND SWAP2 POP JUMPDEST PUSH1 0x20 DUP3 LT DUP2 EQ ISZERO PUSH2 0x388 JUMPI PUSH2 0x387 PUSH2 0x3BF JUMP JUMPDEST JUMPDEST POP SWAP2 SWAP1 POP JUMP JUMPDEST PUSH2 0x397 DUP3 PUSH2 0x431 JUMP JUMPDEST DUP2 ADD DUP2 DUP2 LT PUSH8 0xFFFFFFFFFFFFFFFF DUP3 GT OR ISZERO PUSH2 0x3B6 JUMPI PUSH2 0x3B5 PUSH2 0x3EE JUMP JUMPDEST JUMPDEST DUP1 PUSH1 0x40 MSTORE POP POP POP JUMP JUMPDEST PUSH32 0x4E487B7100000000000000000000000000000000000000000000000000000000 PUSH1 0x0 MSTORE PUSH1 0x22 PUSH1 0x4 MSTORE PUSH1 0x24 PUSH1 0x0 REVERT JUMPDEST PUSH32 0x4E487B7100000000000000000000000000000000000000000000000000000000 PUSH1 0x0 MSTORE PUSH1 0x41 PUSH1 0x4 MSTORE PUSH1 0x24 PUSH1 0x0 REVERT JUMPDEST PUSH1 0x0 DUP1 REVERT JUMPDEST PUSH1 0x0 DUP1 REVERT JUMPDEST PUSH1 0x0 DUP1 REVERT JUMPDEST PUSH1 0x0 DUP1 REVERT JUMPDEST PUSH1 0x0 PUSH1 0x1F NOT PUSH1 0x1F DUP4 ADD AND SWAP1 POP SWAP2 SWAP1 POP JUMP JUMPDEST PUSH2 0x44B DUP2 PUSH2 0x31F JUMP JUMPDEST DUP2 EQ PUSH2 0x456 JUMPI PUSH1 0x0 DUP1 REVERT JUMPDEST POP JUMP JUMPDEST PUSH2 0x1A5 DUP1 PUSH2 0x468 PUSH1 0x0 CODECOPY PUSH1 0x0 RETURN INVALID PUSH1 0x80 PUSH1 0x40 MSTORE CALLVALUE DUP1 ISZERO PUSH2 0x10 JUMPI PUSH1 0x0 DUP1 REVERT JUMPDEST POP PUSH1 0x4 CALLDATASIZE LT PUSH2 0x36 JUMPI PUSH1 0x0 CALLDATALOAD PUSH1 0xE0 SHR DUP1 PUSH4 0x18160DDD EQ PUSH2 0x3B JUMPI DUP1 PUSH4 0xE3D670D7 EQ PUSH2 0x59 JUMPI JUMPDEST PUSH1 0x0 DUP1 REVERT JUMPDEST PUSH2 0x43 PUSH2 0x89 JUMP JUMPDEST PUSH1 0x40 MLOAD PUSH2 0x50 SWAP2 SWAP1 PUSH2 0xFC JUMP JUMPDEST PUSH1 0x40 MLOAD DUP1 SWAP2 SUB SWAP1 RETURN JUMPDEST PUSH2 0x73 PUSH1 0x4 DUP1 CALLDATASIZE SUB DUP2 ADD SWAP1 PUSH2 0x6E SWAP2 SWAP1 PUSH2 0xC0 JUMP JUMPDEST PUSH2 0x93 JUMP JUMPDEST PUSH1 0x40 MLOAD PUSH2 0x80 SWAP2 SWAP1 PUSH2 0xFC JUMP JUMPDEST PUSH1 0x40 MLOAD DUP1 SWAP2 SUB SWAP1 RETURN JUMPDEST PUSH1 0x0 PUSH1 0x3 SLOAD SWAP1 POP SWAP1 JUMP JUMPDEST PUSH1 0x4 PUSH1 0x20 MSTORE DUP1 PUSH1 0x0 MSTORE PUSH1 0x40 PUSH1 0x0 KECCAK256 PUSH1 0x0 SWAP2 POP SWAP1 POP SLOAD DUP2 JUMP JUMPDEST PUSH1 0x0 DUP2 CALLDATALOAD SWAP1 POP PUSH2 0xBA DUP2 PUSH2 0x158 JUMP JUMPDEST SWAP3 SWAP2 POP POP JUMP JUMPDEST PUSH1 0x0 PUSH1 0x20 DUP3 DUP5 SUB SLT ISZERO PUSH2 0xD6 JUMPI PUSH2 0xD5 PUSH2 0x153 JUMP JUMPDEST JUMPDEST PUSH1 0x0 PUSH2 0xE4 DUP5 DUP3 DUP6 ADD PUSH2 0xAB JUMP JUMPDEST SWAP2 POP POP SWAP3 SWAP2 POP POP JUMP JUMPDEST PUSH2 0xF6 DUP2 PUSH2 0x149 JUMP JUMPDEST DUP3 MSTORE POP POP JUMP JUMPDEST PUSH1 0x0 PUSH1 0x20 DUP3 ADD SWAP1 POP PUSH2 0x111 PUSH1 0x0 DUP4 ADD DUP5 PUSH2 0xED JUMP JUMPDEST SWAP3 SWAP2 POP POP JUMP JUMPDEST PUSH1 0x0 PUSH2 0x122 DUP3 PUSH2 0x129 JUMP JUMPDEST SWAP1 POP SWAP2 SWAP1 POP JUMP JUMPDEST PUSH1 0x0 PUSH20 0xFFFFFFFFFFFFFFFFFFFFFFFFFFFFFFFFFFFFFFFF DUP3 AND SWAP1 POP SWAP2 SWAP1 POP JUMP JUMPDEST PUSH1 0x0 DUP2 SWAP1 POP SWAP2 SWAP1 POP JUMP JUMPDEST PUSH1 0x0 DUP1 REVERT JUMPDEST PUSH2 0x161 DUP2 PUSH2 0x117 JUMP JUMPDEST DUP2 EQ PUSH2 0x16C JUMPI PUSH1 0x0 DUP1 REVERT JUMPDEST POP JUMP INVALID LOG2 PUSH5 0x6970667358 0x22 SLT KECCAK256 POP REVERT NUMBER 0xA8 0xDA 0xE1 0x22 SWAP12 0xEC RETURNDATASIZE 0xD5 0xB7 MSTORE 0xC6 PUSH5 0x86CF282095 CODECOPY 0xAA REVERT 0xC6 SSTORE 0x1F PUSH21 0x5581EE1D0D64736F6C634300080700330000000000 "
				},
				"gasEstimates": {
					"creation": {
						"codeDepositCost": "84200",
						"executionCost": "infinite",
						"totalCost": "infinite"
					},
					"external": {
						"balance(address)": "2814",
						"totalSupply()": "2415"
					}
				},
				"methodIdentifiers": {
					"balance(address)": "e3d670d7",
					"totalSupply()": "18160ddd"
				}
			},
			"storageLayout": {
				"storage": [
					{
						"astId": 3,
						"contract": "Documents/GitHub/contract-token-cryptoMonster/main.sol:CryptoMonster",
						"label": "owner",
						"offset": 0,
						"slot": "0",
						"type": "t_address"
					},
					{
						"astId": 5,
						"contract": "Documents/GitHub/contract-token-cryptoMonster/main.sol:CryptoMonster",
						"label": "name",
						"offset": 0,
						"slot": "1",
						"type": "t_string_storage"
					},
					{
						"astId": 7,
						"contract": "Documents/GitHub/contract-token-cryptoMonster/main.sol:CryptoMonster",
						"label": "symbol",
						"offset": 0,
						"slot": "2",
						"type": "t_string_storage"
					},
					{
						"astId": 9,
						"contract": "Documents/GitHub/contract-token-cryptoMonster/main.sol:CryptoMonster",
						"label": "totalCryptoMonster",
						"offset": 0,
						"slot": "3",
						"type": "t_uint256"
					},
					{
						"astId": 13,
						"contract": "Documents/GitHub/contract-token-cryptoMonster/main.sol:CryptoMonster",
						"label": "balance",
						"offset": 0,
						"slot": "4",
						"type": "t_mapping(t_address,t_uint256)"
					}
				],
				"types": {
					"t_address": {
						"encoding": "inplace",
						"label": "address",
						"numberOfBytes": "20"
					},
					"t_mapping(t_address,t_uint256)": {
						"encoding": "mapping",
						"key": "t_address",
						"label": "mapping(address => uint256)",
						"numberOfBytes": "32",
						"value": "t_uint256"
					},
					"t_string_storage": {
						"encoding": "bytes",
						"label": "string",
						"numberOfBytes": "32"
					},
					"t_uint256": {
						"encoding": "inplace",
						"label": "uint256",
						"numberOfBytes": "32"
					}
				}
			},
			"userdoc": {
				"kind": "user",
				"methods": {},
				"version": 1
			}
		}
	}
}