{
	"GitHub/contract-token-cryptoMonster/backend/shared/helpers/modifireFunc.sol": {
		"modifireFunc": {
			"abi": [
				{
					"inputs": [
						{
							"internalType": "address",
							"name": "",
							"type": "address"
						}
					],
					"name": "structUsers_",
					"outputs": [
						{
							"internalType": "enum structures.Role",
							"name": "role",
							"type": "uint8"
						},
						{
							"internalType": "string",
							"name": "login",
							"type": "string"
						},
						{
							"internalType": "bytes32",
							"name": "password",
							"type": "bytes32"
						},
						{
							"internalType": "uint256",
							"name": "balance_overall",
							"type": "uint256"
						},
						{
							"internalType": "uint256",
							"name": "balance_seed",
							"type": "uint256"
						},
						{
							"internalType": "uint256",
							"name": "balance_private",
							"type": "uint256"
						},
						{
							"internalType": "uint256",
							"name": "balance_public",
							"type": "uint256"
						}
					],
					"stateMutability": "view",
					"type": "function"
				},
				{
					"inputs": [],
					"name": "tokenAmount_",
					"outputs": [
						{
							"internalType": "uint256",
							"name": "",
							"type": "uint256"
						}
					],
					"stateMutability": "view",
					"type": "function"
				},
				{
					"inputs": [],
					"name": "tokenPrice_",
					"outputs": [
						{
							"internalType": "uint256",
							"name": "",
							"type": "uint256"
						}
					],
					"stateMutability": "view",
					"type": "function"
				}
			],
			"devdoc": {
				"kind": "dev",
				"methods": {},
				"version": 1
			},
			"evm": {
				"assembly": "    /* \"GitHub/contract-token-cryptoMonster/backend/shared/helpers/modifireFunc.sol\":107:1779  contract modifireFunc is structures {\r... */\n  mstore(0x40, 0x80)\n    /* \"GitHub/contract-token-cryptoMonster/backend/shared/lib/structures.sol\":1152:1161  750000000 */\n  0x2cb41780\n    /* \"GitHub/contract-token-cryptoMonster/backend/shared/lib/structures.sol\":1123:1161  uint256 public tokenPrice_ = 750000000 */\n  0x02\n  sstore\n    /* \"GitHub/contract-token-cryptoMonster/backend/shared/lib/structures.sol\":1412:1418  100000 */\n  0x0186a0\n    /* \"GitHub/contract-token-cryptoMonster/backend/shared/lib/structures.sol\":1385:1418  uint public tokenAmount_ = 100000 */\n  0x03\n  sstore\n    /* \"GitHub/contract-token-cryptoMonster/backend/shared/helpers/modifireFunc.sol\":107:1779  contract modifireFunc is structures {\r... */\n  callvalue\n  dup1\n  iszero\n  tag_1\n  jumpi\n  0x00\n  dup1\n  revert\ntag_1:\n  pop\n  dataSize(sub_0)\n  dup1\n  dataOffset(sub_0)\n  0x00\n  codecopy\n  0x00\n  return\nstop\n\nsub_0: assembly {\n        /* \"GitHub/contract-token-cryptoMonster/backend/shared/helpers/modifireFunc.sol\":107:1779  contract modifireFunc is structures {\r... */\n      mstore(0x40, 0x80)\n      callvalue\n      dup1\n      iszero\n      tag_1\n      jumpi\n      0x00\n      dup1\n      revert\n    tag_1:\n      pop\n      jumpi(tag_2, lt(calldatasize, 0x04))\n      shr(0xe0, calldataload(0x00))\n      dup1\n      0x0761c8b9\n      eq\n      tag_3\n      jumpi\n      dup1\n      0x948942ad\n      eq\n      tag_4\n      jumpi\n      dup1\n      0xfc837259\n      eq\n      tag_5\n      jumpi\n    tag_2:\n      0x00\n      dup1\n      revert\n        /* \"GitHub/contract-token-cryptoMonster/backend/shared/lib/structures.sol\":1123:1161  uint256 public tokenPrice_ = 750000000 */\n    tag_3:\n      tag_6\n      sload(0x02)\n      dup2\n      jump\n    tag_6:\n      mload(0x40)\n        /* \"#utility.yul\":1646:1671   */\n      swap1\n      dup2\n      mstore\n        /* \"#utility.yul\":1634:1636   */\n      0x20\n        /* \"#utility.yul\":1619:1637   */\n      add\n        /* \"GitHub/contract-token-cryptoMonster/backend/shared/lib/structures.sol\":1123:1161  uint256 public tokenPrice_ = 750000000 */\n    tag_8:\n      mload(0x40)\n      dup1\n      swap2\n      sub\n      swap1\n      return\n        /* \"GitHub/contract-token-cryptoMonster/backend/shared/lib/structures.sol\":1385:1418  uint public tokenAmount_ = 100000 */\n    tag_4:\n      tag_6\n      sload(0x03)\n      dup2\n      jump\n        /* \"GitHub/contract-token-cryptoMonster/backend/shared/lib/structures.sol\":836:887  mapping (address => structUser) public structUsers_ */\n    tag_5:\n      tag_13\n      tag_14\n      calldatasize\n      0x04\n      tag_15\n      jump\t// in\n    tag_14:\n      tag_16\n      jump\t// in\n    tag_13:\n      mload(0x40)\n      tag_8\n      swap8\n      swap7\n      swap6\n      swap5\n      swap4\n      swap3\n      swap2\n      swap1\n      tag_18\n      jump\t// in\n    tag_16:\n      0x00\n      0x20\n      dup2\n      swap1\n      mstore\n      swap1\n      dup2\n      mstore\n      0x40\n      swap1\n      keccak256\n      dup1\n      sload\n      0x01\n      dup3\n      add\n      dup1\n      sload\n      0xff\n      swap1\n      swap3\n      and\n      swap3\n      swap2\n      tag_19\n      swap1\n      tag_20\n      jump\t// in\n    tag_19:\n      dup1\n      0x1f\n      add\n      0x20\n      dup1\n      swap2\n      div\n      mul\n      0x20\n      add\n      mload(0x40)\n      swap1\n      dup2\n      add\n      0x40\n      mstore\n      dup1\n      swap3\n      swap2\n      swap1\n      dup2\n      dup2\n      mstore\n      0x20\n      add\n      dup3\n      dup1\n      sload\n      tag_21\n      swap1\n      tag_20\n      jump\t// in\n    tag_21:\n      dup1\n      iszero\n      tag_22\n      jumpi\n      dup1\n      0x1f\n      lt\n      tag_23\n      jumpi\n      0x0100\n      dup1\n      dup4\n      sload\n      div\n      mul\n      dup4\n      mstore\n      swap2\n      0x20\n      add\n      swap2\n      jump(tag_22)\n    tag_23:\n      dup3\n      add\n      swap2\n      swap1\n      0x00\n      mstore\n      keccak256(0x00, 0x20)\n      swap1\n    tag_24:\n      dup2\n      sload\n      dup2\n      mstore\n      swap1\n      0x01\n      add\n      swap1\n      0x20\n      add\n      dup1\n      dup4\n      gt\n      tag_24\n      jumpi\n      dup3\n      swap1\n      sub\n      0x1f\n      and\n      dup3\n      add\n      swap2\n    tag_22:\n      pop\n      pop\n      pop\n      pop\n      pop\n      swap1\n      dup1\n      0x02\n      add\n      sload\n      swap1\n      dup1\n      0x03\n      add\n      sload\n      swap1\n      dup1\n      0x04\n      add\n      sload\n      swap1\n      dup1\n      0x05\n      add\n      sload\n      swap1\n      dup1\n      0x06\n      add\n      sload\n      swap1\n      pop\n      dup8\n      jump\t// out\n        /* \"#utility.yul\":14:300   */\n    tag_15:\n        /* \"#utility.yul\":73:79   */\n      0x00\n        /* \"#utility.yul\":126:128   */\n      0x20\n        /* \"#utility.yul\":114:123   */\n      dup3\n        /* \"#utility.yul\":105:112   */\n      dup5\n        /* \"#utility.yul\":101:124   */\n      sub\n        /* \"#utility.yul\":97:129   */\n      slt\n        /* \"#utility.yul\":94:146   */\n      iszero\n      tag_27\n      jumpi\n        /* \"#utility.yul\":142:143   */\n      0x00\n        /* \"#utility.yul\":139:140   */\n      dup1\n        /* \"#utility.yul\":132:144   */\n      revert\n        /* \"#utility.yul\":94:146   */\n    tag_27:\n        /* \"#utility.yul\":168:191   */\n      dup2\n      calldataload\n      sub(shl(0xa0, 0x01), 0x01)\n        /* \"#utility.yul\":220:251   */\n      dup2\n      and\n        /* \"#utility.yul\":210:252   */\n      dup2\n      eq\n        /* \"#utility.yul\":200:270   */\n      tag_28\n      jumpi\n        /* \"#utility.yul\":266:267   */\n      0x00\n        /* \"#utility.yul\":263:264   */\n      dup1\n        /* \"#utility.yul\":256:268   */\n      revert\n        /* \"#utility.yul\":200:270   */\n    tag_28:\n        /* \"#utility.yul\":289:294   */\n      swap4\n        /* \"#utility.yul\":14:300   */\n      swap3\n      pop\n      pop\n      pop\n      jump\t// out\n        /* \"#utility.yul\":305:1495   */\n    tag_18:\n        /* \"#utility.yul\":591:595   */\n      0x00\n        /* \"#utility.yul\":631:632   */\n      0x05\n        /* \"#utility.yul\":623:629   */\n      dup10\n        /* \"#utility.yul\":620:633   */\n      lt\n        /* \"#utility.yul\":610:754   */\n      tag_30\n      jumpi\n        /* \"#utility.yul\":676:686   */\n      0x4e487b71\n        /* \"#utility.yul\":671:674   */\n      0xe0\n        /* \"#utility.yul\":667:687   */\n      shl\n        /* \"#utility.yul\":664:665   */\n      0x00\n        /* \"#utility.yul\":657:688   */\n      mstore\n        /* \"#utility.yul\":711:715   */\n      0x21\n        /* \"#utility.yul\":708:709   */\n      0x04\n        /* \"#utility.yul\":701:716   */\n      mstore\n        /* \"#utility.yul\":739:743   */\n      0x24\n        /* \"#utility.yul\":736:737   */\n      0x00\n        /* \"#utility.yul\":729:744   */\n      revert\n        /* \"#utility.yul\":610:754   */\n    tag_30:\n        /* \"#utility.yul\":781:787   */\n      dup9\n        /* \"#utility.yul\":770:779   */\n      dup3\n        /* \"#utility.yul\":763:788   */\n      mstore\n        /* \"#utility.yul\":807:809   */\n      0x20\n        /* \"#utility.yul\":845:848   */\n      0xe0\n        /* \"#utility.yul\":840:842   */\n      dup2\n        /* \"#utility.yul\":829:838   */\n      dup5\n        /* \"#utility.yul\":825:843   */\n      add\n        /* \"#utility.yul\":818:849   */\n      mstore\n        /* \"#utility.yul\":878:884   */\n      dup9\n        /* \"#utility.yul\":872:885   */\n      mload\n        /* \"#utility.yul\":922:928   */\n      dup1\n        /* \"#utility.yul\":916:919   */\n      0xe0\n        /* \"#utility.yul\":905:914   */\n      dup6\n        /* \"#utility.yul\":901:920   */\n      add\n        /* \"#utility.yul\":894:929   */\n      mstore\n        /* \"#utility.yul\":947:948   */\n      0x00\n        /* \"#utility.yul\":957:1098   */\n    tag_31:\n        /* \"#utility.yul\":971:977   */\n      dup2\n        /* \"#utility.yul\":968:969   */\n      dup2\n        /* \"#utility.yul\":965:978   */\n      lt\n        /* \"#utility.yul\":957:1098   */\n      iszero\n      tag_33\n      jumpi\n        /* \"#utility.yul\":1067:1081   */\n      dup11\n      dup2\n      add\n        /* \"#utility.yul\":1063:1086   */\n      dup4\n      add\n        /* \"#utility.yul\":1057:1087   */\n      mload\n        /* \"#utility.yul\":1032:1049   */\n      dup6\n      dup3\n      add\n        /* \"#utility.yul\":1051:1054   */\n      0x0100\n        /* \"#utility.yul\":1028:1055   */\n      add\n        /* \"#utility.yul\":1021:1088   */\n      mstore\n        /* \"#utility.yul\":986:996   */\n      dup3\n      add\n        /* \"#utility.yul\":957:1098   */\n      jump(tag_31)\n    tag_33:\n        /* \"#utility.yul\":1116:1122   */\n      dup2\n        /* \"#utility.yul\":1113:1114   */\n      dup2\n        /* \"#utility.yul\":1110:1123   */\n      gt\n        /* \"#utility.yul\":1107:1199   */\n      iszero\n      tag_34\n      jumpi\n        /* \"#utility.yul\":1187:1188   */\n      0x00\n        /* \"#utility.yul\":1181:1184   */\n      0x0100\n        /* \"#utility.yul\":1172:1178   */\n      dup4\n        /* \"#utility.yul\":1161:1170   */\n      dup8\n        /* \"#utility.yul\":1157:1179   */\n      add\n        /* \"#utility.yul\":1153:1185   */\n      add\n        /* \"#utility.yul\":1146:1189   */\n      mstore\n        /* \"#utility.yul\":1107:1199   */\n    tag_34:\n      pop\n        /* \"#utility.yul\":1302:1304   */\n      0x40\n        /* \"#utility.yul\":1287:1305   */\n      dup5\n      add\n        /* \"#utility.yul\":1280:1314   */\n      swap9\n      swap1\n      swap9\n      mstore\n      pop\n      pop\n        /* \"#utility.yul\":1345:1347   */\n      0x60\n        /* \"#utility.yul\":1330:1348   */\n      dup2\n      add\n        /* \"#utility.yul\":1323:1357   */\n      swap5\n      swap1\n      swap5\n      mstore\n        /* \"#utility.yul\":1388:1391   */\n      0x80\n        /* \"#utility.yul\":1373:1392   */\n      dup5\n      add\n        /* \"#utility.yul\":1366:1401   */\n      swap3\n      swap1\n      swap3\n      mstore\n        /* \"#utility.yul\":1432:1435   */\n      0xa0\n        /* \"#utility.yul\":1417:1436   */\n      dup4\n      add\n        /* \"#utility.yul\":1410:1445   */\n      mstore\n        /* \"#utility.yul\":1476:1479   */\n      0xc0\n        /* \"#utility.yul\":1461:1480   */\n      dup3\n      add\n        /* \"#utility.yul\":1454:1489   */\n      mstore\n        /* \"#utility.yul\":1267:1270   */\n      0x0100\n        /* \"#utility.yul\":1260:1262   */\n      0x1f\n        /* \"#utility.yul\":1239:1254   */\n      swap1\n      swap3\n      add\n      not(0x1f)\n        /* \"#utility.yul\":1235:1264   */\n      and\n        /* \"#utility.yul\":1220:1265   */\n      add\n        /* \"#utility.yul\":1216:1271   */\n      add\n      swap3\n      swap2\n      pop\n      pop\n        /* \"#utility.yul\":305:1495   */\n      jump\t// out\n        /* \"#utility.yul\":1682:2062   */\n    tag_20:\n        /* \"#utility.yul\":1761:1762   */\n      0x01\n        /* \"#utility.yul\":1757:1769   */\n      dup2\n      dup2\n      shr\n      swap1\n        /* \"#utility.yul\":1804:1816   */\n      dup3\n      and\n      dup1\n        /* \"#utility.yul\":1825:1886   */\n      tag_37\n      jumpi\n        /* \"#utility.yul\":1879:1883   */\n      0x7f\n        /* \"#utility.yul\":1871:1877   */\n      dup3\n        /* \"#utility.yul\":1867:1884   */\n      and\n        /* \"#utility.yul\":1857:1884   */\n      swap2\n      pop\n        /* \"#utility.yul\":1825:1886   */\n    tag_37:\n        /* \"#utility.yul\":1932:1934   */\n      0x20\n        /* \"#utility.yul\":1924:1930   */\n      dup3\n        /* \"#utility.yul\":1921:1935   */\n      lt\n        /* \"#utility.yul\":1901:1919   */\n      dup2\n        /* \"#utility.yul\":1898:1936   */\n      eq\n        /* \"#utility.yul\":1895:2056   */\n      iszero\n      tag_38\n      jumpi\n        /* \"#utility.yul\":1978:1988   */\n      0x4e487b71\n        /* \"#utility.yul\":1973:1976   */\n      0xe0\n        /* \"#utility.yul\":1969:1989   */\n      shl\n        /* \"#utility.yul\":1966:1967   */\n      0x00\n        /* \"#utility.yul\":1959:1990   */\n      mstore\n        /* \"#utility.yul\":2013:2017   */\n      0x22\n        /* \"#utility.yul\":2010:2011   */\n      0x04\n        /* \"#utility.yul\":2003:2018   */\n      mstore\n        /* \"#utility.yul\":2041:2045   */\n      0x24\n        /* \"#utility.yul\":2038:2039   */\n      0x00\n        /* \"#utility.yul\":2031:2046   */\n      revert\n        /* \"#utility.yul\":1895:2056   */\n    tag_38:\n      pop\n        /* \"#utility.yul\":1682:2062   */\n      swap2\n      swap1\n      pop\n      jump\t// out\n\n    auxdata: 0xa2646970667358221220ca23a1f39f06c5f42573bc7a872d83584198264e0f12570daf8e9c1430ccceee64736f6c63430008070033\n}\n",
				"bytecode": {
					"linkReferences": {},
					"object": "6080604052632cb41780600255620186a060035534801561001f57600080fd5b506102988061002f6000396000f3fe608060405234801561001057600080fd5b50600436106100415760003560e01c80630761c8b914610046578063948942ad14610062578063fc8372591461006b575b600080fd5b61004f60025481565b6040519081526020015b60405180910390f35b61004f60035481565b61007e610079366004610158565b610091565b6040516100599796959493929190610188565b6000602081905290815260409020805460018201805460ff90921692916100b790610227565b80601f01602080910402602001604051908101604052809291908181526020018280546100e390610227565b80156101305780601f1061010557610100808354040283529160200191610130565b820191906000526020600020905b81548152906001019060200180831161011357829003601f168201915b5050505050908060020154908060030154908060040154908060050154908060060154905087565b60006020828403121561016a57600080fd5b81356001600160a01b038116811461018157600080fd5b9392505050565b6000600589106101a857634e487b7160e01b600052602160045260246000fd5b888252602060e08184015288518060e085015260005b818110156101db578a8101830151858201610100015282016101be565b818111156101ee57600061010083870101525b50604084019890985250506060810194909452608084019290925260a083015260c0820152610100601f909201601f1916010192915050565b600181811c9082168061023b57607f821691505b6020821081141561025c57634e487b7160e01b600052602260045260246000fd5b5091905056fea2646970667358221220ca23a1f39f06c5f42573bc7a872d83584198264e0f12570daf8e9c1430ccceee64736f6c63430008070033",
					"opcodes": "PUSH1 0x80 PUSH1 0x40 MSTORE PUSH4 0x2CB41780 PUSH1 0x2 SSTORE PUSH3 0x186A0 PUSH1 0x3 SSTORE CALLVALUE DUP1 ISZERO PUSH2 0x1F JUMPI PUSH1 0x0 DUP1 REVERT JUMPDEST POP PUSH2 0x298 DUP1 PUSH2 0x2F PUSH1 0x0 CODECOPY PUSH1 0x0 RETURN INVALID PUSH1 0x80 PUSH1 0x40 MSTORE CALLVALUE DUP1 ISZERO PUSH2 0x10 JUMPI PUSH1 0x0 DUP1 REVERT JUMPDEST POP PUSH1 0x4 CALLDATASIZE LT PUSH2 0x41 JUMPI PUSH1 0x0 CALLDATALOAD PUSH1 0xE0 SHR DUP1 PUSH4 0x761C8B9 EQ PUSH2 0x46 JUMPI DUP1 PUSH4 0x948942AD EQ PUSH2 0x62 JUMPI DUP1 PUSH4 0xFC837259 EQ PUSH2 0x6B JUMPI JUMPDEST PUSH1 0x0 DUP1 REVERT JUMPDEST PUSH2 0x4F PUSH1 0x2 SLOAD DUP2 JUMP JUMPDEST PUSH1 0x40 MLOAD SWAP1 DUP2 MSTORE PUSH1 0x20 ADD JUMPDEST PUSH1 0x40 MLOAD DUP1 SWAP2 SUB SWAP1 RETURN JUMPDEST PUSH2 0x4F PUSH1 0x3 SLOAD DUP2 JUMP JUMPDEST PUSH2 0x7E PUSH2 0x79 CALLDATASIZE PUSH1 0x4 PUSH2 0x158 JUMP JUMPDEST PUSH2 0x91 JUMP JUMPDEST PUSH1 0x40 MLOAD PUSH2 0x59 SWAP8 SWAP7 SWAP6 SWAP5 SWAP4 SWAP3 SWAP2 SWAP1 PUSH2 0x188 JUMP JUMPDEST PUSH1 0x0 PUSH1 0x20 DUP2 SWAP1 MSTORE SWAP1 DUP2 MSTORE PUSH1 0x40 SWAP1 KECCAK256 DUP1 SLOAD PUSH1 0x1 DUP3 ADD DUP1 SLOAD PUSH1 0xFF SWAP1 SWAP3 AND SWAP3 SWAP2 PUSH2 0xB7 SWAP1 PUSH2 0x227 JUMP JUMPDEST DUP1 PUSH1 0x1F ADD PUSH1 0x20 DUP1 SWAP2 DIV MUL PUSH1 0x20 ADD PUSH1 0x40 MLOAD SWAP1 DUP2 ADD PUSH1 0x40 MSTORE DUP1 SWAP3 SWAP2 SWAP1 DUP2 DUP2 MSTORE PUSH1 0x20 ADD DUP3 DUP1 SLOAD PUSH2 0xE3 SWAP1 PUSH2 0x227 JUMP JUMPDEST DUP1 ISZERO PUSH2 0x130 JUMPI DUP1 PUSH1 0x1F LT PUSH2 0x105 JUMPI PUSH2 0x100 DUP1 DUP4 SLOAD DIV MUL DUP4 MSTORE SWAP2 PUSH1 0x20 ADD SWAP2 PUSH2 0x130 JUMP JUMPDEST DUP3 ADD SWAP2 SWAP1 PUSH1 0x0 MSTORE PUSH1 0x20 PUSH1 0x0 KECCAK256 SWAP1 JUMPDEST DUP2 SLOAD DUP2 MSTORE SWAP1 PUSH1 0x1 ADD SWAP1 PUSH1 0x20 ADD DUP1 DUP4 GT PUSH2 0x113 JUMPI DUP3 SWAP1 SUB PUSH1 0x1F AND DUP3 ADD SWAP2 JUMPDEST POP POP POP POP POP SWAP1 DUP1 PUSH1 0x2 ADD SLOAD SWAP1 DUP1 PUSH1 0x3 ADD SLOAD SWAP1 DUP1 PUSH1 0x4 ADD SLOAD SWAP1 DUP1 PUSH1 0x5 ADD SLOAD SWAP1 DUP1 PUSH1 0x6 ADD SLOAD SWAP1 POP DUP8 JUMP JUMPDEST PUSH1 0x0 PUSH1 0x20 DUP3 DUP5 SUB SLT ISZERO PUSH2 0x16A JUMPI PUSH1 0x0 DUP1 REVERT JUMPDEST DUP2 CALLDATALOAD PUSH1 0x1 PUSH1 0x1 PUSH1 0xA0 SHL SUB DUP2 AND DUP2 EQ PUSH2 0x181 JUMPI PUSH1 0x0 DUP1 REVERT JUMPDEST SWAP4 SWAP3 POP POP POP JUMP JUMPDEST PUSH1 0x0 PUSH1 0x5 DUP10 LT PUSH2 0x1A8 JUMPI PUSH4 0x4E487B71 PUSH1 0xE0 SHL PUSH1 0x0 MSTORE PUSH1 0x21 PUSH1 0x4 MSTORE PUSH1 0x24 PUSH1 0x0 REVERT JUMPDEST DUP9 DUP3 MSTORE PUSH1 0x20 PUSH1 0xE0 DUP2 DUP5 ADD MSTORE DUP9 MLOAD DUP1 PUSH1 0xE0 DUP6 ADD MSTORE PUSH1 0x0 JUMPDEST DUP2 DUP2 LT ISZERO PUSH2 0x1DB JUMPI DUP11 DUP2 ADD DUP4 ADD MLOAD DUP6 DUP3 ADD PUSH2 0x100 ADD MSTORE DUP3 ADD PUSH2 0x1BE JUMP JUMPDEST DUP2 DUP2 GT ISZERO PUSH2 0x1EE JUMPI PUSH1 0x0 PUSH2 0x100 DUP4 DUP8 ADD ADD MSTORE JUMPDEST POP PUSH1 0x40 DUP5 ADD SWAP9 SWAP1 SWAP9 MSTORE POP POP PUSH1 0x60 DUP2 ADD SWAP5 SWAP1 SWAP5 MSTORE PUSH1 0x80 DUP5 ADD SWAP3 SWAP1 SWAP3 MSTORE PUSH1 0xA0 DUP4 ADD MSTORE PUSH1 0xC0 DUP3 ADD MSTORE PUSH2 0x100 PUSH1 0x1F SWAP1 SWAP3 ADD PUSH1 0x1F NOT AND ADD ADD SWAP3 SWAP2 POP POP JUMP JUMPDEST PUSH1 0x1 DUP2 DUP2 SHR SWAP1 DUP3 AND DUP1 PUSH2 0x23B JUMPI PUSH1 0x7F DUP3 AND SWAP2 POP JUMPDEST PUSH1 0x20 DUP3 LT DUP2 EQ ISZERO PUSH2 0x25C JUMPI PUSH4 0x4E487B71 PUSH1 0xE0 SHL PUSH1 0x0 MSTORE PUSH1 0x22 PUSH1 0x4 MSTORE PUSH1 0x24 PUSH1 0x0 REVERT JUMPDEST POP SWAP2 SWAP1 POP JUMP INVALID LOG2 PUSH5 0x6970667358 0x22 SLT KECCAK256 0xCA 0x23 LOG1 RETURN SWAP16 MOD 0xC5 DELEGATECALL 0x25 PUSH20 0xBC7A872D83584198264E0F12570DAF8E9C1430CC 0xCE 0xEE PUSH5 0x736F6C6343 STOP ADDMOD SMOD STOP CALLER "
				},
				"gasEstimates": {
					"creation": {
						"codeDepositCost": "132800",
						"executionCost": "44389",
						"totalCost": "177189"
					},
					"external": {
						"structUsers_(address)": "infinite",
						"tokenAmount_()": "2284",
						"tokenPrice_()": "2262"
					}
				},
				"methodIdentifiers": {
					"structUsers_(address)": "fc837259",
					"tokenAmount_()": "948942ad",
					"tokenPrice_()": "0761c8b9"
				}
			},
			"storageLayout": {
				"storage": [
					{
						"astId": 249,
						"contract": "GitHub/contract-token-cryptoMonster/backend/shared/helpers/modifireFunc.sol:modifireFunc",
						"label": "structUsers_",
						"offset": 0,
						"slot": "0",
						"type": "t_mapping(t_address,t_struct(structUser)244_storage)"
					},
					{
						"astId": 255,
						"contract": "GitHub/contract-token-cryptoMonster/backend/shared/helpers/modifireFunc.sol:modifireFunc",
						"label": "allowed",
						"offset": 0,
						"slot": "1",
						"type": "t_mapping(t_address,t_mapping(t_address,t_uint256))"
					},
					{
						"astId": 258,
						"contract": "GitHub/contract-token-cryptoMonster/backend/shared/helpers/modifireFunc.sol:modifireFunc",
						"label": "tokenPrice_",
						"offset": 0,
						"slot": "2",
						"type": "t_uint256"
					},
					{
						"astId": 261,
						"contract": "GitHub/contract-token-cryptoMonster/backend/shared/helpers/modifireFunc.sol:modifireFunc",
						"label": "tokenAmount_",
						"offset": 0,
						"slot": "3",
						"type": "t_uint256"
					},
					{
						"astId": 280,
						"contract": "GitHub/contract-token-cryptoMonster/backend/shared/helpers/modifireFunc.sol:modifireFunc",
						"label": "structPhases_",
						"offset": 0,
						"slot": "4",
						"type": "t_mapping(t_address,t_struct(structPhase)275_storage)"
					},
					{
						"astId": 296,
						"contract": "GitHub/contract-token-cryptoMonster/backend/shared/helpers/modifireFunc.sol:modifireFunc",
						"label": "strucApplications_",
						"offset": 0,
						"slot": "5",
						"type": "t_mapping(t_address,t_struct(structApplication)291_storage)"
					},
					{
						"astId": 299,
						"contract": "GitHub/contract-token-cryptoMonster/backend/shared/helpers/modifireFunc.sol:modifireFunc",
						"label": "structApplicationsAmountAdr",
						"offset": 0,
						"slot": "6",
						"type": "t_array(t_address)dyn_storage"
					},
					{
						"astId": 302,
						"contract": "GitHub/contract-token-cryptoMonster/backend/shared/helpers/modifireFunc.sol:modifireFunc",
						"label": "whiteList",
						"offset": 0,
						"slot": "7",
						"type": "t_array(t_address)dyn_storage"
					},
					{
						"astId": 305,
						"contract": "GitHub/contract-token-cryptoMonster/backend/shared/helpers/modifireFunc.sol:modifireFunc",
						"label": "blackList",
						"offset": 0,
						"slot": "8",
						"type": "t_array(t_address)dyn_storage"
					}
				],
				"types": {
					"t_address": {
						"encoding": "inplace",
						"label": "address",
						"numberOfBytes": "20"
					},
					"t_array(t_address)dyn_storage": {
						"base": "t_address",
						"encoding": "dynamic_array",
						"label": "address[]",
						"numberOfBytes": "32"
					},
					"t_bool": {
						"encoding": "inplace",
						"label": "bool",
						"numberOfBytes": "1"
					},
					"t_bytes32": {
						"encoding": "inplace",
						"label": "bytes32",
						"numberOfBytes": "32"
					},
					"t_enum(Role)228": {
						"encoding": "inplace",
						"label": "enum structures.Role",
						"numberOfBytes": "1"
					},
					"t_mapping(t_address,t_mapping(t_address,t_uint256))": {
						"encoding": "mapping",
						"key": "t_address",
						"label": "mapping(address => mapping(address => uint256))",
						"numberOfBytes": "32",
						"value": "t_mapping(t_address,t_uint256)"
					},
					"t_mapping(t_address,t_struct(structApplication)291_storage)": {
						"encoding": "mapping",
						"key": "t_address",
						"label": "mapping(address => struct structures.structApplication)",
						"numberOfBytes": "32",
						"value": "t_struct(structApplication)291_storage"
					},
					"t_mapping(t_address,t_struct(structPhase)275_storage)": {
						"encoding": "mapping",
						"key": "t_address",
						"label": "mapping(address => struct structures.structPhase)",
						"numberOfBytes": "32",
						"value": "t_struct(structPhase)275_storage"
					},
					"t_mapping(t_address,t_struct(structUser)244_storage)": {
						"encoding": "mapping",
						"key": "t_address",
						"label": "mapping(address => struct structures.structUser)",
						"numberOfBytes": "32",
						"value": "t_struct(structUser)244_storage"
					},
					"t_mapping(t_address,t_uint256)": {
						"encoding": "mapping",
						"key": "t_address",
						"label": "mapping(address => uint256)",
						"numberOfBytes": "32",
						"value": "t_uint256"
					},
					"t_string_storage": {
						"encoding": "bytes",
						"label": "string",
						"numberOfBytes": "32"
					},
					"t_struct(structApplication)291_storage": {
						"encoding": "inplace",
						"label": "struct structures.structApplication",
						"members": [
							{
								"astId": 282,
								"contract": "GitHub/contract-token-cryptoMonster/backend/shared/helpers/modifireFunc.sol:modifireFunc",
								"label": "name",
								"offset": 0,
								"slot": "0",
								"type": "t_string_storage"
							},
							{
								"astId": 284,
								"contract": "GitHub/contract-token-cryptoMonster/backend/shared/helpers/modifireFunc.sol:modifireFunc",
								"label": "contactForCommunication",
								"offset": 0,
								"slot": "1",
								"type": "t_string_storage"
							},
							{
								"astId": 286,
								"contract": "GitHub/contract-token-cryptoMonster/backend/shared/helpers/modifireFunc.sol:modifireFunc",
								"label": "userAdr",
								"offset": 0,
								"slot": "2",
								"type": "t_address"
							},
							{
								"astId": 288,
								"contract": "GitHub/contract-token-cryptoMonster/backend/shared/helpers/modifireFunc.sol:modifireFunc",
								"label": "status",
								"offset": 20,
								"slot": "2",
								"type": "t_bool"
							},
							{
								"astId": 290,
								"contract": "GitHub/contract-token-cryptoMonster/backend/shared/helpers/modifireFunc.sol:modifireFunc",
								"label": "exist",
								"offset": 21,
								"slot": "2",
								"type": "t_bool"
							}
						],
						"numberOfBytes": "96"
					},
					"t_struct(structPhase)275_storage": {
						"encoding": "inplace",
						"label": "struct structures.structPhase",
						"members": [
							{
								"astId": 272,
								"contract": "GitHub/contract-token-cryptoMonster/backend/shared/helpers/modifireFunc.sol:modifireFunc",
								"label": "statusPhase",
								"offset": 0,
								"slot": "0",
								"type": "t_bool"
							},
							{
								"astId": 274,
								"contract": "GitHub/contract-token-cryptoMonster/backend/shared/helpers/modifireFunc.sol:modifireFunc",
								"label": "reviewed",
								"offset": 1,
								"slot": "0",
								"type": "t_bool"
							}
						],
						"numberOfBytes": "32"
					},
					"t_struct(structUser)244_storage": {
						"encoding": "inplace",
						"label": "struct structures.structUser",
						"members": [
							{
								"astId": 231,
								"contract": "GitHub/contract-token-cryptoMonster/backend/shared/helpers/modifireFunc.sol:modifireFunc",
								"label": "role",
								"offset": 0,
								"slot": "0",
								"type": "t_enum(Role)228"
							},
							{
								"astId": 233,
								"contract": "GitHub/contract-token-cryptoMonster/backend/shared/helpers/modifireFunc.sol:modifireFunc",
								"label": "login",
								"offset": 0,
								"slot": "1",
								"type": "t_string_storage"
							},
							{
								"astId": 235,
								"contract": "GitHub/contract-token-cryptoMonster/backend/shared/helpers/modifireFunc.sol:modifireFunc",
								"label": "password",
								"offset": 0,
								"slot": "2",
								"type": "t_bytes32"
							},
							{
								"astId": 237,
								"contract": "GitHub/contract-token-cryptoMonster/backend/shared/helpers/modifireFunc.sol:modifireFunc",
								"label": "balance_overall",
								"offset": 0,
								"slot": "3",
								"type": "t_uint256"
							},
							{
								"astId": 239,
								"contract": "GitHub/contract-token-cryptoMonster/backend/shared/helpers/modifireFunc.sol:modifireFunc",
								"label": "balance_seed",
								"offset": 0,
								"slot": "4",
								"type": "t_uint256"
							},
							{
								"astId": 241,
								"contract": "GitHub/contract-token-cryptoMonster/backend/shared/helpers/modifireFunc.sol:modifireFunc",
								"label": "balance_private",
								"offset": 0,
								"slot": "5",
								"type": "t_uint256"
							},
							{
								"astId": 243,
								"contract": "GitHub/contract-token-cryptoMonster/backend/shared/helpers/modifireFunc.sol:modifireFunc",
								"label": "balance_public",
								"offset": 0,
								"slot": "6",
								"type": "t_uint256"
							}
						],
						"numberOfBytes": "224"
					},
					"t_uint256": {
						"encoding": "inplace",
						"label": "uint256",
						"numberOfBytes": "32"
					}
				}
			},
			"userdoc": {
				"kind": "user",
				"methods": {},
				"version": 1
			}
		}
	}
}