{
	"GitHub/contract-token-cryptoMonster/backend/shared/lib/structures.sol": {
		"structures": {
			"abi": [
				{
					"inputs": [],
					"name": "tokenAmount_",
					"outputs": [
						{
							"internalType": "uint256",
							"name": "",
							"type": "uint256"
						}
					],
					"stateMutability": "view",
					"type": "function"
				},
				{
					"inputs": [],
					"name": "tokenPrice_",
					"outputs": [
						{
							"internalType": "uint256",
							"name": "",
							"type": "uint256"
						}
					],
					"stateMutability": "view",
					"type": "function"
				}
			],
			"devdoc": {
				"kind": "dev",
				"methods": {},
				"version": 1
			},
			"evm": {
				"assembly": "    /* \"GitHub/contract-token-cryptoMonster/backend/shared/lib/structures.sol\":72:3438  contract structures {\r... */\n  mstore(0x40, 0x80)\n    /* \"GitHub/contract-token-cryptoMonster/backend/shared/lib/structures.sol\":1145:1154  750000000 */\n  0x2cb41780\n    /* \"GitHub/contract-token-cryptoMonster/backend/shared/lib/structures.sol\":1116:1154  uint256 public tokenPrice_ = 750000000 */\n  0x02\n  sstore\n    /* \"GitHub/contract-token-cryptoMonster/backend/shared/lib/structures.sol\":1405:1411  100000 */\n  0x0186a0\n    /* \"GitHub/contract-token-cryptoMonster/backend/shared/lib/structures.sol\":1378:1411  uint public tokenAmount_ = 100000 */\n  0x03\n  sstore\n    /* \"GitHub/contract-token-cryptoMonster/backend/shared/lib/structures.sol\":72:3438  contract structures {\r... */\n  callvalue\n  dup1\n  iszero\n  tag_1\n  jumpi\n  0x00\n  dup1\n  revert\ntag_1:\n  pop\n  dataSize(sub_0)\n  dup1\n  dataOffset(sub_0)\n  0x00\n  codecopy\n  0x00\n  return\nstop\n\nsub_0: assembly {\n        /* \"GitHub/contract-token-cryptoMonster/backend/shared/lib/structures.sol\":72:3438  contract structures {\r... */\n      mstore(0x40, 0x80)\n      callvalue\n      dup1\n      iszero\n      tag_1\n      jumpi\n      0x00\n      dup1\n      revert\n    tag_1:\n      pop\n      jumpi(tag_2, lt(calldatasize, 0x04))\n      shr(0xe0, calldataload(0x00))\n      dup1\n      0x0761c8b9\n      eq\n      tag_3\n      jumpi\n      dup1\n      0x948942ad\n      eq\n      tag_4\n      jumpi\n    tag_2:\n      0x00\n      dup1\n      revert\n        /* \"GitHub/contract-token-cryptoMonster/backend/shared/lib/structures.sol\":1116:1154  uint256 public tokenPrice_ = 750000000 */\n    tag_3:\n      tag_5\n      tag_6\n      jump\t// in\n    tag_5:\n      mload(0x40)\n      tag_7\n      swap2\n      swap1\n      tag_8\n      jump\t// in\n    tag_7:\n      mload(0x40)\n      dup1\n      swap2\n      sub\n      swap1\n      return\n        /* \"GitHub/contract-token-cryptoMonster/backend/shared/lib/structures.sol\":1378:1411  uint public tokenAmount_ = 100000 */\n    tag_4:\n      tag_9\n      tag_10\n      jump\t// in\n    tag_9:\n      mload(0x40)\n      tag_11\n      swap2\n      swap1\n      tag_8\n      jump\t// in\n    tag_11:\n      mload(0x40)\n      dup1\n      swap2\n      sub\n      swap1\n      return\n        /* \"GitHub/contract-token-cryptoMonster/backend/shared/lib/structures.sol\":1116:1154  uint256 public tokenPrice_ = 750000000 */\n    tag_6:\n      sload(0x02)\n      dup2\n      jump\t// out\n        /* \"GitHub/contract-token-cryptoMonster/backend/shared/lib/structures.sol\":1378:1411  uint public tokenAmount_ = 100000 */\n    tag_10:\n      sload(0x03)\n      dup2\n      jump\t// out\n        /* \"#utility.yul\":7:125   */\n    tag_13:\n        /* \"#utility.yul\":94:118   */\n      tag_15\n        /* \"#utility.yul\":112:117   */\n      dup2\n        /* \"#utility.yul\":94:118   */\n      tag_16\n      jump\t// in\n    tag_15:\n        /* \"#utility.yul\":89:92   */\n      dup3\n        /* \"#utility.yul\":82:119   */\n      mstore\n        /* \"#utility.yul\":7:125   */\n      pop\n      pop\n      jump\t// out\n        /* \"#utility.yul\":131:353   */\n    tag_8:\n        /* \"#utility.yul\":224:228   */\n      0x00\n        /* \"#utility.yul\":262:264   */\n      0x20\n        /* \"#utility.yul\":251:260   */\n      dup3\n        /* \"#utility.yul\":247:265   */\n      add\n        /* \"#utility.yul\":239:265   */\n      swap1\n      pop\n        /* \"#utility.yul\":275:346   */\n      tag_18\n        /* \"#utility.yul\":343:344   */\n      0x00\n        /* \"#utility.yul\":332:341   */\n      dup4\n        /* \"#utility.yul\":328:345   */\n      add\n        /* \"#utility.yul\":319:325   */\n      dup5\n        /* \"#utility.yul\":275:346   */\n      tag_13\n      jump\t// in\n    tag_18:\n        /* \"#utility.yul\":131:353   */\n      swap3\n      swap2\n      pop\n      pop\n      jump\t// out\n        /* \"#utility.yul\":359:436   */\n    tag_16:\n        /* \"#utility.yul\":396:403   */\n      0x00\n        /* \"#utility.yul\":425:430   */\n      dup2\n        /* \"#utility.yul\":414:430   */\n      swap1\n      pop\n        /* \"#utility.yul\":359:436   */\n      swap2\n      swap1\n      pop\n      jump\t// out\n\n    auxdata: 0xa2646970667358221220d3e55478ddebceec50da342fee7f1e385a09d81f329d0b5f5e8a5f5edaedb83564736f6c63430008070033\n}\n",
				"bytecode": {
					"linkReferences": {},
					"object": "6080604052632cb41780600255620186a060035534801561001f57600080fd5b5060dd8061002e6000396000f3fe6080604052348015600f57600080fd5b506004361060325760003560e01c80630761c8b9146037578063948942ad146051575b600080fd5b603d606b565b604051604891906084565b60405180910390f35b60576071565b604051606291906084565b60405180910390f35b60025481565b60035481565b607e81609d565b82525050565b6000602082019050609760008301846077565b92915050565b600081905091905056fea2646970667358221220d3e55478ddebceec50da342fee7f1e385a09d81f329d0b5f5e8a5f5edaedb83564736f6c63430008070033",
					"opcodes": "PUSH1 0x80 PUSH1 0x40 MSTORE PUSH4 0x2CB41780 PUSH1 0x2 SSTORE PUSH3 0x186A0 PUSH1 0x3 SSTORE CALLVALUE DUP1 ISZERO PUSH2 0x1F JUMPI PUSH1 0x0 DUP1 REVERT JUMPDEST POP PUSH1 0xDD DUP1 PUSH2 0x2E PUSH1 0x0 CODECOPY PUSH1 0x0 RETURN INVALID PUSH1 0x80 PUSH1 0x40 MSTORE CALLVALUE DUP1 ISZERO PUSH1 0xF JUMPI PUSH1 0x0 DUP1 REVERT JUMPDEST POP PUSH1 0x4 CALLDATASIZE LT PUSH1 0x32 JUMPI PUSH1 0x0 CALLDATALOAD PUSH1 0xE0 SHR DUP1 PUSH4 0x761C8B9 EQ PUSH1 0x37 JUMPI DUP1 PUSH4 0x948942AD EQ PUSH1 0x51 JUMPI JUMPDEST PUSH1 0x0 DUP1 REVERT JUMPDEST PUSH1 0x3D PUSH1 0x6B JUMP JUMPDEST PUSH1 0x40 MLOAD PUSH1 0x48 SWAP2 SWAP1 PUSH1 0x84 JUMP JUMPDEST PUSH1 0x40 MLOAD DUP1 SWAP2 SUB SWAP1 RETURN JUMPDEST PUSH1 0x57 PUSH1 0x71 JUMP JUMPDEST PUSH1 0x40 MLOAD PUSH1 0x62 SWAP2 SWAP1 PUSH1 0x84 JUMP JUMPDEST PUSH1 0x40 MLOAD DUP1 SWAP2 SUB SWAP1 RETURN JUMPDEST PUSH1 0x2 SLOAD DUP2 JUMP JUMPDEST PUSH1 0x3 SLOAD DUP2 JUMP JUMPDEST PUSH1 0x7E DUP2 PUSH1 0x9D JUMP JUMPDEST DUP3 MSTORE POP POP JUMP JUMPDEST PUSH1 0x0 PUSH1 0x20 DUP3 ADD SWAP1 POP PUSH1 0x97 PUSH1 0x0 DUP4 ADD DUP5 PUSH1 0x77 JUMP JUMPDEST SWAP3 SWAP2 POP POP JUMP JUMPDEST PUSH1 0x0 DUP2 SWAP1 POP SWAP2 SWAP1 POP JUMP INVALID LOG2 PUSH5 0x6970667358 0x22 SLT KECCAK256 0xD3 0xE5 SLOAD PUSH25 0xDDEBCEEC50DA342FEE7F1E385A09D81F329D0B5F5E8A5F5EDA 0xED 0xB8 CALLDATALOAD PUSH5 0x736F6C6343 STOP ADDMOD SMOD STOP CALLER "
				},
				"gasEstimates": {
					"creation": {
						"codeDepositCost": "44200",
						"executionCost": "44305",
						"totalCost": "88505"
					},
					"external": {
						"tokenAmount_()": "2429",
						"tokenPrice_()": "2407"
					}
				},
				"methodIdentifiers": {
					"tokenAmount_()": "948942ad",
					"tokenPrice_()": "0761c8b9"
				}
			},
			"storageLayout": {
				"storage": [
					{
						"astId": 235,
						"contract": "GitHub/contract-token-cryptoMonster/backend/shared/lib/structures.sol:structures",
						"label": "structUsers_",
						"offset": 0,
						"slot": "0",
						"type": "t_mapping(t_address,t_struct(structUser)230_storage)"
					},
					{
						"astId": 241,
						"contract": "GitHub/contract-token-cryptoMonster/backend/shared/lib/structures.sol:structures",
						"label": "allowed",
						"offset": 0,
						"slot": "1",
						"type": "t_mapping(t_address,t_mapping(t_address,t_uint256))"
					},
					{
						"astId": 244,
						"contract": "GitHub/contract-token-cryptoMonster/backend/shared/lib/structures.sol:structures",
						"label": "tokenPrice_",
						"offset": 0,
						"slot": "2",
						"type": "t_uint256"
					},
					{
						"astId": 247,
						"contract": "GitHub/contract-token-cryptoMonster/backend/shared/lib/structures.sol:structures",
						"label": "tokenAmount_",
						"offset": 0,
						"slot": "3",
						"type": "t_uint256"
					},
					{
						"astId": 266,
						"contract": "GitHub/contract-token-cryptoMonster/backend/shared/lib/structures.sol:structures",
						"label": "structPhases_",
						"offset": 0,
						"slot": "4",
						"type": "t_mapping(t_address,t_struct(structPhase)261_storage)"
					},
					{
						"astId": 284,
						"contract": "GitHub/contract-token-cryptoMonster/backend/shared/lib/structures.sol:structures",
						"label": "strucApplications_",
						"offset": 0,
						"slot": "5",
						"type": "t_mapping(t_address,t_struct(structApplication)279_storage)"
					},
					{
						"astId": 287,
						"contract": "GitHub/contract-token-cryptoMonster/backend/shared/lib/structures.sol:structures",
						"label": "structApplicationsAmountAdr",
						"offset": 0,
						"slot": "6",
						"type": "t_array(t_address)dyn_storage"
					},
					{
						"astId": 290,
						"contract": "GitHub/contract-token-cryptoMonster/backend/shared/lib/structures.sol:structures",
						"label": "whiteList",
						"offset": 0,
						"slot": "7",
						"type": "t_array(t_address)dyn_storage"
					},
					{
						"astId": 293,
						"contract": "GitHub/contract-token-cryptoMonster/backend/shared/lib/structures.sol:structures",
						"label": "blackList",
						"offset": 0,
						"slot": "8",
						"type": "t_array(t_address)dyn_storage"
					}
				],
				"types": {
					"t_address": {
						"encoding": "inplace",
						"label": "address",
						"numberOfBytes": "20"
					},
					"t_array(t_address)dyn_storage": {
						"base": "t_address",
						"encoding": "dynamic_array",
						"label": "address[]",
						"numberOfBytes": "32"
					},
					"t_bool": {
						"encoding": "inplace",
						"label": "bool",
						"numberOfBytes": "1"
					},
					"t_bytes32": {
						"encoding": "inplace",
						"label": "bytes32",
						"numberOfBytes": "32"
					},
					"t_enum(Role)214": {
						"encoding": "inplace",
						"label": "enum structures.Role",
						"numberOfBytes": "1"
					},
					"t_mapping(t_address,t_mapping(t_address,t_uint256))": {
						"encoding": "mapping",
						"key": "t_address",
						"label": "mapping(address => mapping(address => uint256))",
						"numberOfBytes": "32",
						"value": "t_mapping(t_address,t_uint256)"
					},
					"t_mapping(t_address,t_struct(structApplication)279_storage)": {
						"encoding": "mapping",
						"key": "t_address",
						"label": "mapping(address => struct structures.structApplication)",
						"numberOfBytes": "32",
						"value": "t_struct(structApplication)279_storage"
					},
					"t_mapping(t_address,t_struct(structPhase)261_storage)": {
						"encoding": "mapping",
						"key": "t_address",
						"label": "mapping(address => struct structures.structPhase)",
						"numberOfBytes": "32",
						"value": "t_struct(structPhase)261_storage"
					},
					"t_mapping(t_address,t_struct(structUser)230_storage)": {
						"encoding": "mapping",
						"key": "t_address",
						"label": "mapping(address => struct structures.structUser)",
						"numberOfBytes": "32",
						"value": "t_struct(structUser)230_storage"
					},
					"t_mapping(t_address,t_uint256)": {
						"encoding": "mapping",
						"key": "t_address",
						"label": "mapping(address => uint256)",
						"numberOfBytes": "32",
						"value": "t_uint256"
					},
					"t_string_storage": {
						"encoding": "bytes",
						"label": "string",
						"numberOfBytes": "32"
					},
					"t_struct(structApplication)279_storage": {
						"encoding": "inplace",
						"label": "struct structures.structApplication",
						"members": [
							{
								"astId": 268,
								"contract": "GitHub/contract-token-cryptoMonster/backend/shared/lib/structures.sol:structures",
								"label": "name",
								"offset": 0,
								"slot": "0",
								"type": "t_string_storage"
							},
							{
								"astId": 270,
								"contract": "GitHub/contract-token-cryptoMonster/backend/shared/lib/structures.sol:structures",
								"label": "contactForCommunication",
								"offset": 0,
								"slot": "1",
								"type": "t_string_storage"
							},
							{
								"astId": 272,
								"contract": "GitHub/contract-token-cryptoMonster/backend/shared/lib/structures.sol:structures",
								"label": "userAdr",
								"offset": 0,
								"slot": "2",
								"type": "t_address"
							},
							{
								"astId": 274,
								"contract": "GitHub/contract-token-cryptoMonster/backend/shared/lib/structures.sol:structures",
								"label": "status",
								"offset": 20,
								"slot": "2",
								"type": "t_bool"
							},
							{
								"astId": 276,
								"contract": "GitHub/contract-token-cryptoMonster/backend/shared/lib/structures.sol:structures",
								"label": "reviewed",
								"offset": 21,
								"slot": "2",
								"type": "t_bool"
							},
							{
								"astId": 278,
								"contract": "GitHub/contract-token-cryptoMonster/backend/shared/lib/structures.sol:structures",
								"label": "exist",
								"offset": 22,
								"slot": "2",
								"type": "t_bool"
							}
						],
						"numberOfBytes": "96"
					},
					"t_struct(structPhase)261_storage": {
						"encoding": "inplace",
						"label": "struct structures.structPhase",
						"members": [
							{
								"astId": 258,
								"contract": "GitHub/contract-token-cryptoMonster/backend/shared/lib/structures.sol:structures",
								"label": "statusPhase",
								"offset": 0,
								"slot": "0",
								"type": "t_bool"
							},
							{
								"astId": 260,
								"contract": "GitHub/contract-token-cryptoMonster/backend/shared/lib/structures.sol:structures",
								"label": "reviewed",
								"offset": 1,
								"slot": "0",
								"type": "t_bool"
							}
						],
						"numberOfBytes": "32"
					},
					"t_struct(structUser)230_storage": {
						"encoding": "inplace",
						"label": "struct structures.structUser",
						"members": [
							{
								"astId": 217,
								"contract": "GitHub/contract-token-cryptoMonster/backend/shared/lib/structures.sol:structures",
								"label": "role",
								"offset": 0,
								"slot": "0",
								"type": "t_enum(Role)214"
							},
							{
								"astId": 219,
								"contract": "GitHub/contract-token-cryptoMonster/backend/shared/lib/structures.sol:structures",
								"label": "login",
								"offset": 0,
								"slot": "1",
								"type": "t_string_storage"
							},
							{
								"astId": 221,
								"contract": "GitHub/contract-token-cryptoMonster/backend/shared/lib/structures.sol:structures",
								"label": "password",
								"offset": 0,
								"slot": "2",
								"type": "t_bytes32"
							},
							{
								"astId": 223,
								"contract": "GitHub/contract-token-cryptoMonster/backend/shared/lib/structures.sol:structures",
								"label": "balance_overall",
								"offset": 0,
								"slot": "3",
								"type": "t_uint256"
							},
							{
								"astId": 225,
								"contract": "GitHub/contract-token-cryptoMonster/backend/shared/lib/structures.sol:structures",
								"label": "balance_seed",
								"offset": 0,
								"slot": "4",
								"type": "t_uint256"
							},
							{
								"astId": 227,
								"contract": "GitHub/contract-token-cryptoMonster/backend/shared/lib/structures.sol:structures",
								"label": "balance_private",
								"offset": 0,
								"slot": "5",
								"type": "t_uint256"
							},
							{
								"astId": 229,
								"contract": "GitHub/contract-token-cryptoMonster/backend/shared/lib/structures.sol:structures",
								"label": "balance_public",
								"offset": 0,
								"slot": "6",
								"type": "t_uint256"
							}
						],
						"numberOfBytes": "224"
					},
					"t_uint256": {
						"encoding": "inplace",
						"label": "uint256",
						"numberOfBytes": "32"
					}
				}
			},
			"userdoc": {
				"kind": "user",
				"methods": {},
				"version": 1
			}
		}
	}
}