{
	"GitHub/contract-token-cryptoMonster/backend/shared/helpers/modifireFunc.sol": {
		"modifireFunc": {
			"abi": [
				{
					"inputs": [
						{
							"internalType": "address",
							"name": "",
							"type": "address"
						}
					],
					"name": "strucApplications_",
					"outputs": [
						{
							"internalType": "string",
							"name": "name",
							"type": "string"
						},
						{
							"internalType": "string",
							"name": "contactForCommunication",
							"type": "string"
						},
						{
							"internalType": "address",
							"name": "userAdr",
							"type": "address"
						},
						{
							"internalType": "bool",
							"name": "status",
							"type": "bool"
						},
						{
							"internalType": "bool",
							"name": "exist",
							"type": "bool"
						}
					],
					"stateMutability": "view",
					"type": "function"
				},
				{
					"inputs": [
						{
							"internalType": "address",
							"name": "",
							"type": "address"
						}
					],
					"name": "structUsers_",
					"outputs": [
						{
							"internalType": "enum structures.Role",
							"name": "role",
							"type": "uint8"
						},
						{
							"internalType": "string",
							"name": "login",
							"type": "string"
						},
						{
							"internalType": "bytes32",
							"name": "password",
							"type": "bytes32"
						},
						{
							"internalType": "uint256",
							"name": "balance_overall",
							"type": "uint256"
						},
						{
							"internalType": "uint256",
							"name": "balance_seed",
							"type": "uint256"
						},
						{
							"internalType": "uint256",
							"name": "balance_private",
							"type": "uint256"
						},
						{
							"internalType": "uint256",
							"name": "balance_public",
							"type": "uint256"
						}
					],
					"stateMutability": "view",
					"type": "function"
				},
				{
					"inputs": [],
					"name": "tokenAmount_",
					"outputs": [
						{
							"internalType": "uint256",
							"name": "",
							"type": "uint256"
						}
					],
					"stateMutability": "view",
					"type": "function"
				},
				{
					"inputs": [],
					"name": "tokenPrice_",
					"outputs": [
						{
							"internalType": "uint256",
							"name": "",
							"type": "uint256"
						}
					],
					"stateMutability": "view",
					"type": "function"
				}
			],
			"devdoc": {
				"kind": "dev",
				"methods": {},
				"version": 1
			},
			"evm": {
				"assembly": "    /* \"GitHub/contract-token-cryptoMonster/backend/shared/helpers/modifireFunc.sol\":107:1779  contract modifireFunc is structures {\r... */\n  mstore(0x40, 0x80)\n    /* \"GitHub/contract-token-cryptoMonster/backend/shared/lib/structures.sol\":1152:1161  750000000 */\n  0x2cb41780\n    /* \"GitHub/contract-token-cryptoMonster/backend/shared/lib/structures.sol\":1123:1161  uint256 public tokenPrice_ = 750000000 */\n  0x02\n  sstore\n    /* \"GitHub/contract-token-cryptoMonster/backend/shared/lib/structures.sol\":1412:1418  100000 */\n  0x0186a0\n    /* \"GitHub/contract-token-cryptoMonster/backend/shared/lib/structures.sol\":1385:1418  uint public tokenAmount_ = 100000 */\n  0x03\n  sstore\n    /* \"GitHub/contract-token-cryptoMonster/backend/shared/helpers/modifireFunc.sol\":107:1779  contract modifireFunc is structures {\r... */\n  callvalue\n  dup1\n  iszero\n  tag_1\n  jumpi\n  0x00\n  dup1\n  revert\ntag_1:\n  pop\n  dataSize(sub_0)\n  dup1\n  dataOffset(sub_0)\n  0x00\n  codecopy\n  0x00\n  return\nstop\n\nsub_0: assembly {\n        /* \"GitHub/contract-token-cryptoMonster/backend/shared/helpers/modifireFunc.sol\":107:1779  contract modifireFunc is structures {\r... */\n      mstore(0x40, 0x80)\n      callvalue\n      dup1\n      iszero\n      tag_1\n      jumpi\n      0x00\n      dup1\n      revert\n    tag_1:\n      pop\n      jumpi(tag_2, lt(calldatasize, 0x04))\n      shr(0xe0, calldataload(0x00))\n      dup1\n      0x0761c8b9\n      eq\n      tag_3\n      jumpi\n      dup1\n      0x23b2265f\n      eq\n      tag_4\n      jumpi\n      dup1\n      0x948942ad\n      eq\n      tag_5\n      jumpi\n      dup1\n      0xfc837259\n      eq\n      tag_6\n      jumpi\n    tag_2:\n      0x00\n      dup1\n      revert\n        /* \"GitHub/contract-token-cryptoMonster/backend/shared/lib/structures.sol\":1123:1161  uint256 public tokenPrice_ = 750000000 */\n    tag_3:\n      tag_7\n      sload(0x02)\n      dup2\n      jump\n    tag_7:\n      mload(0x40)\n        /* \"#utility.yul\":2393:2418   */\n      swap1\n      dup2\n      mstore\n        /* \"#utility.yul\":2381:2383   */\n      0x20\n        /* \"#utility.yul\":2366:2384   */\n      add\n        /* \"GitHub/contract-token-cryptoMonster/backend/shared/lib/structures.sol\":1123:1161  uint256 public tokenPrice_ = 750000000 */\n    tag_9:\n      mload(0x40)\n      dup1\n      swap2\n      sub\n      swap1\n      return\n        /* \"GitHub/contract-token-cryptoMonster/backend/shared/lib/structures.sol\":2802:2866  mapping (address => structApplication) public strucApplications_ */\n    tag_4:\n      tag_11\n      tag_12\n      calldatasize\n      0x04\n      tag_13\n      jump\t// in\n    tag_12:\n      tag_14\n      jump\t// in\n    tag_11:\n      mload(0x40)\n      tag_9\n      swap6\n      swap5\n      swap4\n      swap3\n      swap2\n      swap1\n      tag_16\n      jump\t// in\n        /* \"GitHub/contract-token-cryptoMonster/backend/shared/lib/structures.sol\":1385:1418  uint public tokenAmount_ = 100000 */\n    tag_5:\n      tag_7\n      sload(0x03)\n      dup2\n      jump\n        /* \"GitHub/contract-token-cryptoMonster/backend/shared/lib/structures.sol\":836:887  mapping (address => structUser) public structUsers_ */\n    tag_6:\n      tag_20\n      tag_21\n      calldatasize\n      0x04\n      tag_13\n      jump\t// in\n    tag_21:\n      tag_22\n      jump\t// in\n    tag_20:\n      mload(0x40)\n      tag_9\n      swap8\n      swap7\n      swap6\n      swap5\n      swap4\n      swap3\n      swap2\n      swap1\n      tag_24\n      jump\t// in\n        /* \"GitHub/contract-token-cryptoMonster/backend/shared/lib/structures.sol\":2802:2866  mapping (address => structApplication) public strucApplications_ */\n    tag_14:\n      mstore(0x20, 0x05)\n      0x00\n      swap1\n      dup2\n      mstore\n      0x40\n      swap1\n      keccak256\n      dup1\n      sload\n      dup2\n      swap1\n      tag_25\n      swap1\n      tag_26\n      jump\t// in\n    tag_25:\n      dup1\n      0x1f\n      add\n      0x20\n      dup1\n      swap2\n      div\n      mul\n      0x20\n      add\n      mload(0x40)\n      swap1\n      dup2\n      add\n      0x40\n      mstore\n      dup1\n      swap3\n      swap2\n      swap1\n      dup2\n      dup2\n      mstore\n      0x20\n      add\n      dup3\n      dup1\n      sload\n      tag_27\n      swap1\n      tag_26\n      jump\t// in\n    tag_27:\n      dup1\n      iszero\n      tag_28\n      jumpi\n      dup1\n      0x1f\n      lt\n      tag_29\n      jumpi\n      0x0100\n      dup1\n      dup4\n      sload\n      div\n      mul\n      dup4\n      mstore\n      swap2\n      0x20\n      add\n      swap2\n      jump(tag_28)\n    tag_29:\n      dup3\n      add\n      swap2\n      swap1\n      0x00\n      mstore\n      keccak256(0x00, 0x20)\n      swap1\n    tag_30:\n      dup2\n      sload\n      dup2\n      mstore\n      swap1\n      0x01\n      add\n      swap1\n      0x20\n      add\n      dup1\n      dup4\n      gt\n      tag_30\n      jumpi\n      dup3\n      swap1\n      sub\n      0x1f\n      and\n      dup3\n      add\n      swap2\n    tag_28:\n      pop\n      pop\n      pop\n      pop\n      pop\n      swap1\n      dup1\n      0x01\n      add\n      dup1\n      sload\n      tag_31\n      swap1\n      tag_26\n      jump\t// in\n    tag_31:\n      dup1\n      0x1f\n      add\n      0x20\n      dup1\n      swap2\n      div\n      mul\n      0x20\n      add\n      mload(0x40)\n      swap1\n      dup2\n      add\n      0x40\n      mstore\n      dup1\n      swap3\n      swap2\n      swap1\n      dup2\n      dup2\n      mstore\n      0x20\n      add\n      dup3\n      dup1\n      sload\n      tag_32\n      swap1\n      tag_26\n      jump\t// in\n    tag_32:\n      dup1\n      iszero\n      tag_33\n      jumpi\n      dup1\n      0x1f\n      lt\n      tag_34\n      jumpi\n      0x0100\n      dup1\n      dup4\n      sload\n      div\n      mul\n      dup4\n      mstore\n      swap2\n      0x20\n      add\n      swap2\n      jump(tag_33)\n    tag_34:\n      dup3\n      add\n      swap2\n      swap1\n      0x00\n      mstore\n      keccak256(0x00, 0x20)\n      swap1\n    tag_35:\n      dup2\n      sload\n      dup2\n      mstore\n      swap1\n      0x01\n      add\n      swap1\n      0x20\n      add\n      dup1\n      dup4\n      gt\n      tag_35\n      jumpi\n      dup3\n      swap1\n      sub\n      0x1f\n      and\n      dup3\n      add\n      swap2\n    tag_33:\n      pop\n      pop\n      pop\n      0x02\n      swap1\n      swap4\n      add\n      sload\n      swap2\n      swap3\n      pop\n      pop\n      sub(shl(0xa0, 0x01), 0x01)\n      dup2\n      and\n      swap1\n      0xff\n      shl(0xa0, 0x01)\n      dup3\n      div\n      dup2\n      and\n      swap2\n      shl(0xa8, 0x01)\n      swap1\n      div\n      and\n      dup6\n      jump\t// out\n        /* \"GitHub/contract-token-cryptoMonster/backend/shared/lib/structures.sol\":836:887  mapping (address => structUser) public structUsers_ */\n    tag_22:\n      0x00\n      0x20\n      dup2\n      swap1\n      mstore\n      swap1\n      dup2\n      mstore\n      0x40\n      swap1\n      keccak256\n      dup1\n      sload\n      0x01\n      dup3\n      add\n      dup1\n      sload\n      0xff\n      swap1\n      swap3\n      and\n      swap3\n      swap2\n      tag_36\n      swap1\n      tag_26\n      jump\t// in\n    tag_36:\n      dup1\n      0x1f\n      add\n      0x20\n      dup1\n      swap2\n      div\n      mul\n      0x20\n      add\n      mload(0x40)\n      swap1\n      dup2\n      add\n      0x40\n      mstore\n      dup1\n      swap3\n      swap2\n      swap1\n      dup2\n      dup2\n      mstore\n      0x20\n      add\n      dup3\n      dup1\n      sload\n      tag_37\n      swap1\n      tag_26\n      jump\t// in\n    tag_37:\n      dup1\n      iszero\n      tag_38\n      jumpi\n      dup1\n      0x1f\n      lt\n      tag_39\n      jumpi\n      0x0100\n      dup1\n      dup4\n      sload\n      div\n      mul\n      dup4\n      mstore\n      swap2\n      0x20\n      add\n      swap2\n      jump(tag_38)\n    tag_39:\n      dup3\n      add\n      swap2\n      swap1\n      0x00\n      mstore\n      keccak256(0x00, 0x20)\n      swap1\n    tag_40:\n      dup2\n      sload\n      dup2\n      mstore\n      swap1\n      0x01\n      add\n      swap1\n      0x20\n      add\n      dup1\n      dup4\n      gt\n      tag_40\n      jumpi\n      dup3\n      swap1\n      sub\n      0x1f\n      and\n      dup3\n      add\n      swap2\n    tag_38:\n      pop\n      pop\n      pop\n      pop\n      pop\n      swap1\n      dup1\n      0x02\n      add\n      sload\n      swap1\n      dup1\n      0x03\n      add\n      sload\n      swap1\n      dup1\n      0x04\n      add\n      sload\n      swap1\n      dup1\n      0x05\n      add\n      sload\n      swap1\n      dup1\n      0x06\n      add\n      sload\n      swap1\n      pop\n      dup8\n      jump\t// out\n        /* \"#utility.yul\":14:300   */\n    tag_13:\n        /* \"#utility.yul\":73:79   */\n      0x00\n        /* \"#utility.yul\":126:128   */\n      0x20\n        /* \"#utility.yul\":114:123   */\n      dup3\n        /* \"#utility.yul\":105:112   */\n      dup5\n        /* \"#utility.yul\":101:124   */\n      sub\n        /* \"#utility.yul\":97:129   */\n      slt\n        /* \"#utility.yul\":94:146   */\n      iszero\n      tag_43\n      jumpi\n        /* \"#utility.yul\":142:143   */\n      0x00\n        /* \"#utility.yul\":139:140   */\n      dup1\n        /* \"#utility.yul\":132:144   */\n      revert\n        /* \"#utility.yul\":94:146   */\n    tag_43:\n        /* \"#utility.yul\":168:191   */\n      dup2\n      calldataload\n      sub(shl(0xa0, 0x01), 0x01)\n        /* \"#utility.yul\":220:251   */\n      dup2\n      and\n        /* \"#utility.yul\":210:252   */\n      dup2\n      eq\n        /* \"#utility.yul\":200:270   */\n      tag_44\n      jumpi\n        /* \"#utility.yul\":266:267   */\n      0x00\n        /* \"#utility.yul\":263:264   */\n      dup1\n        /* \"#utility.yul\":256:268   */\n      revert\n        /* \"#utility.yul\":200:270   */\n    tag_44:\n        /* \"#utility.yul\":289:294   */\n      swap4\n        /* \"#utility.yul\":14:300   */\n      swap3\n      pop\n      pop\n      pop\n      jump\t// out\n        /* \"#utility.yul\":305:777   */\n    tag_45:\n        /* \"#utility.yul\":347:350   */\n      0x00\n        /* \"#utility.yul\":385:390   */\n      dup2\n        /* \"#utility.yul\":379:391   */\n      mload\n        /* \"#utility.yul\":412:418   */\n      dup1\n        /* \"#utility.yul\":407:410   */\n      dup5\n        /* \"#utility.yul\":400:419   */\n      mstore\n        /* \"#utility.yul\":437:438   */\n      0x00\n        /* \"#utility.yul\":447:609   */\n    tag_47:\n        /* \"#utility.yul\":461:467   */\n      dup2\n        /* \"#utility.yul\":458:459   */\n      dup2\n        /* \"#utility.yul\":455:468   */\n      lt\n        /* \"#utility.yul\":447:609   */\n      iszero\n      tag_49\n      jumpi\n        /* \"#utility.yul\":523:527   */\n      0x20\n        /* \"#utility.yul\":579:592   */\n      dup2\n      dup6\n      add\n        /* \"#utility.yul\":575:597   */\n      dup2\n      add\n        /* \"#utility.yul\":569:598   */\n      mload\n        /* \"#utility.yul\":551:562   */\n      dup7\n      dup4\n      add\n        /* \"#utility.yul\":547:567   */\n      dup3\n      add\n        /* \"#utility.yul\":540:599   */\n      mstore\n        /* \"#utility.yul\":476:488   */\n      add\n        /* \"#utility.yul\":447:609   */\n      jump(tag_47)\n    tag_49:\n        /* \"#utility.yul\":627:633   */\n      dup2\n        /* \"#utility.yul\":624:625   */\n      dup2\n        /* \"#utility.yul\":621:634   */\n      gt\n        /* \"#utility.yul\":618:705   */\n      iszero\n      tag_50\n      jumpi\n        /* \"#utility.yul\":693:694   */\n      0x00\n        /* \"#utility.yul\":686:690   */\n      0x20\n        /* \"#utility.yul\":677:683   */\n      dup4\n        /* \"#utility.yul\":672:675   */\n      dup8\n        /* \"#utility.yul\":668:684   */\n      add\n        /* \"#utility.yul\":664:691   */\n      add\n        /* \"#utility.yul\":657:695   */\n      mstore\n        /* \"#utility.yul\":618:705   */\n    tag_50:\n      pop\n        /* \"#utility.yul\":759:761   */\n      0x1f\n        /* \"#utility.yul\":738:753   */\n      add\n      not(0x1f)\n        /* \"#utility.yul\":734:763   */\n      and\n        /* \"#utility.yul\":725:764   */\n      swap3\n      swap1\n      swap3\n      add\n        /* \"#utility.yul\":766:770   */\n      0x20\n        /* \"#utility.yul\":721:771   */\n      add\n      swap3\n        /* \"#utility.yul\":305:777   */\n      swap2\n      pop\n      pop\n      jump\t// out\n        /* \"#utility.yul\":782:1592   */\n    tag_24:\n        /* \"#utility.yul\":1068:1072   */\n      0x00\n        /* \"#utility.yul\":1108:1109   */\n      0x05\n        /* \"#utility.yul\":1100:1106   */\n      dup10\n        /* \"#utility.yul\":1097:1110   */\n      lt\n        /* \"#utility.yul\":1087:1231   */\n      tag_52\n      jumpi\n        /* \"#utility.yul\":1153:1163   */\n      0x4e487b71\n        /* \"#utility.yul\":1148:1151   */\n      0xe0\n        /* \"#utility.yul\":1144:1164   */\n      shl\n        /* \"#utility.yul\":1141:1142   */\n      0x00\n        /* \"#utility.yul\":1134:1165   */\n      mstore\n        /* \"#utility.yul\":1188:1192   */\n      0x21\n        /* \"#utility.yul\":1185:1186   */\n      0x04\n        /* \"#utility.yul\":1178:1193   */\n      mstore\n        /* \"#utility.yul\":1216:1220   */\n      0x24\n        /* \"#utility.yul\":1213:1214   */\n      0x00\n        /* \"#utility.yul\":1206:1221   */\n      revert\n        /* \"#utility.yul\":1087:1231   */\n    tag_52:\n        /* \"#utility.yul\":1258:1264   */\n      dup9\n        /* \"#utility.yul\":1247:1256   */\n      dup3\n        /* \"#utility.yul\":1240:1265   */\n      mstore\n        /* \"#utility.yul\":1301:1304   */\n      0xe0\n        /* \"#utility.yul\":1296:1298   */\n      0x20\n        /* \"#utility.yul\":1285:1294   */\n      dup4\n        /* \"#utility.yul\":1281:1299   */\n      add\n        /* \"#utility.yul\":1274:1305   */\n      mstore\n        /* \"#utility.yul\":1322:1368   */\n      tag_53\n        /* \"#utility.yul\":1363:1366   */\n      0xe0\n        /* \"#utility.yul\":1352:1361   */\n      dup4\n        /* \"#utility.yul\":1348:1367   */\n      add\n        /* \"#utility.yul\":1340:1346   */\n      dup10\n        /* \"#utility.yul\":1322:1368   */\n      tag_45\n      jump\t// in\n    tag_53:\n        /* \"#utility.yul\":1399:1401   */\n      0x40\n        /* \"#utility.yul\":1384:1402   */\n      dup4\n      add\n        /* \"#utility.yul\":1377:1411   */\n      swap8\n      swap1\n      swap8\n      mstore\n      pop\n        /* \"#utility.yul\":1442:1444   */\n      0x60\n        /* \"#utility.yul\":1427:1445   */\n      dup2\n      add\n        /* \"#utility.yul\":1420:1454   */\n      swap5\n      swap1\n      swap5\n      mstore\n        /* \"#utility.yul\":1485:1488   */\n      0x80\n        /* \"#utility.yul\":1470:1489   */\n      dup5\n      add\n        /* \"#utility.yul\":1463:1498   */\n      swap3\n      swap1\n      swap3\n      mstore\n        /* \"#utility.yul\":1529:1532   */\n      0xa0\n        /* \"#utility.yul\":1514:1533   */\n      dup4\n      add\n        /* \"#utility.yul\":1507:1542   */\n      mstore\n        /* \"#utility.yul\":1573:1576   */\n      0xc0\n        /* \"#utility.yul\":1558:1577   */\n      swap1\n      swap2\n      add\n        /* \"#utility.yul\":1551:1586   */\n      mstore\n        /* \"#utility.yul\":1314:1368   */\n      swap3\n        /* \"#utility.yul\":782:1592   */\n      swap2\n      pop\n      pop\n      jump\t// out\n        /* \"#utility.yul\":1597:2242   */\n    tag_16:\n        /* \"#utility.yul\":1866:1869   */\n      0xa0\n        /* \"#utility.yul\":1855:1864   */\n      dup2\n        /* \"#utility.yul\":1848:1870   */\n      mstore\n        /* \"#utility.yul\":1829:1833   */\n      0x00\n        /* \"#utility.yul\":1893:1939   */\n      tag_55\n        /* \"#utility.yul\":1934:1937   */\n      0xa0\n        /* \"#utility.yul\":1923:1932   */\n      dup4\n        /* \"#utility.yul\":1919:1938   */\n      add\n        /* \"#utility.yul\":1911:1917   */\n      dup9\n        /* \"#utility.yul\":1893:1939   */\n      tag_45\n      jump\t// in\n    tag_55:\n        /* \"#utility.yul\":1987:1996   */\n      dup3\n        /* \"#utility.yul\":1979:1985   */\n      dup2\n        /* \"#utility.yul\":1975:1997   */\n      sub\n        /* \"#utility.yul\":1970:1972   */\n      0x20\n        /* \"#utility.yul\":1959:1968   */\n      dup5\n        /* \"#utility.yul\":1955:1973   */\n      add\n        /* \"#utility.yul\":1948:1998   */\n      mstore\n        /* \"#utility.yul\":2015:2048   */\n      tag_56\n        /* \"#utility.yul\":2041:2047   */\n      dup2\n        /* \"#utility.yul\":2033:2039   */\n      dup9\n        /* \"#utility.yul\":2015:2048   */\n      tag_45\n      jump\t// in\n    tag_56:\n      sub(shl(0xa0, 0x01), 0x01)\n        /* \"#utility.yul\":2084:2116   */\n      swap7\n      swap1\n      swap7\n      and\n        /* \"#utility.yul\":2079:2081   */\n      0x40\n        /* \"#utility.yul\":2064:2082   */\n      dup5\n      add\n        /* \"#utility.yul\":2057:2117   */\n      mstore\n      pop\n      pop\n        /* \"#utility.yul\":2160:2174   */\n      swap2\n      iszero\n        /* \"#utility.yul\":2153:2175   */\n      iszero\n        /* \"#utility.yul\":2148:2150   */\n      0x60\n        /* \"#utility.yul\":2133:2151   */\n      dup4\n      add\n        /* \"#utility.yul\":2126:2176   */\n      mstore\n        /* \"#utility.yul\":2220:2234   */\n      iszero\n        /* \"#utility.yul\":2213:2235   */\n      iszero\n        /* \"#utility.yul\":2207:2210   */\n      0x80\n        /* \"#utility.yul\":2192:2211   */\n      swap1\n      swap2\n      add\n        /* \"#utility.yul\":2185:2236   */\n      mstore\n        /* \"#utility.yul\":2007:2048   */\n      swap3\n        /* \"#utility.yul\":1597:2242   */\n      swap2\n      pop\n      pop\n      jump\t// out\n        /* \"#utility.yul\":2429:2809   */\n    tag_26:\n        /* \"#utility.yul\":2508:2509   */\n      0x01\n        /* \"#utility.yul\":2504:2516   */\n      dup2\n      dup2\n      shr\n      swap1\n        /* \"#utility.yul\":2551:2563   */\n      dup3\n      and\n      dup1\n        /* \"#utility.yul\":2572:2633   */\n      tag_59\n      jumpi\n        /* \"#utility.yul\":2626:2630   */\n      0x7f\n        /* \"#utility.yul\":2618:2624   */\n      dup3\n        /* \"#utility.yul\":2614:2631   */\n      and\n        /* \"#utility.yul\":2604:2631   */\n      swap2\n      pop\n        /* \"#utility.yul\":2572:2633   */\n    tag_59:\n        /* \"#utility.yul\":2679:2681   */\n      0x20\n        /* \"#utility.yul\":2671:2677   */\n      dup3\n        /* \"#utility.yul\":2668:2682   */\n      lt\n        /* \"#utility.yul\":2648:2666   */\n      dup2\n        /* \"#utility.yul\":2645:2683   */\n      eq\n        /* \"#utility.yul\":2642:2803   */\n      iszero\n      tag_60\n      jumpi\n        /* \"#utility.yul\":2725:2735   */\n      0x4e487b71\n        /* \"#utility.yul\":2720:2723   */\n      0xe0\n        /* \"#utility.yul\":2716:2736   */\n      shl\n        /* \"#utility.yul\":2713:2714   */\n      0x00\n        /* \"#utility.yul\":2706:2737   */\n      mstore\n        /* \"#utility.yul\":2760:2764   */\n      0x22\n        /* \"#utility.yul\":2757:2758   */\n      0x04\n        /* \"#utility.yul\":2750:2765   */\n      mstore\n        /* \"#utility.yul\":2788:2792   */\n      0x24\n        /* \"#utility.yul\":2785:2786   */\n      0x00\n        /* \"#utility.yul\":2778:2793   */\n      revert\n        /* \"#utility.yul\":2642:2803   */\n    tag_60:\n      pop\n        /* \"#utility.yul\":2429:2809   */\n      swap2\n      swap1\n      pop\n      jump\t// out\n\n    auxdata: 0xa26469706673582212209d52cc7b0e2cdf2f5beabe534f2d33afe3d8a657934df836002ed064164014a064736f6c63430008070033\n}\n",
				"bytecode": {
					"linkReferences": {},
					"object": "6080604052632cb41780600255620186a060035534801561001f57600080fd5b506104758061002f6000396000f3fe608060405234801561001057600080fd5b506004361061004c5760003560e01c80630761c8b91461005157806323b2265f1461006d578063948942ad14610091578063fc8372591461009a575b600080fd5b61005a60025481565b6040519081526020015b60405180910390f35b61008061007b3660046102d8565b6100c0565b6040516100649594939291906103b6565b61005a60035481565b6100ad6100a83660046102d8565b610211565b6040516100649796959493929190610355565b6005602052600090815260409020805481906100db90610404565b80601f016020809104026020016040519081016040528092919081815260200182805461010790610404565b80156101545780601f1061012957610100808354040283529160200191610154565b820191906000526020600020905b81548152906001019060200180831161013757829003601f168201915b50505050509080600101805461016990610404565b80601f016020809104026020016040519081016040528092919081815260200182805461019590610404565b80156101e25780601f106101b7576101008083540402835291602001916101e2565b820191906000526020600020905b8154815290600101906020018083116101c557829003601f168201915b505050600290930154919250506001600160a01b0381169060ff600160a01b8204811691600160a81b90041685565b6000602081905290815260409020805460018201805460ff909216929161023790610404565b80601f016020809104026020016040519081016040528092919081815260200182805461026390610404565b80156102b05780601f10610285576101008083540402835291602001916102b0565b820191906000526020600020905b81548152906001019060200180831161029357829003601f168201915b5050505050908060020154908060030154908060040154908060050154908060060154905087565b6000602082840312156102ea57600080fd5b81356001600160a01b038116811461030157600080fd5b9392505050565b6000815180845260005b8181101561032e57602081850181015186830182015201610312565b81811115610340576000602083870101525b50601f01601f19169290920160200192915050565b60006005891061037557634e487b7160e01b600052602160045260246000fd5b88825260e0602083015261038c60e0830189610308565b6040830197909752506060810194909452608084019290925260a083015260c09091015292915050565b60a0815260006103c960a0830188610308565b82810360208401526103db8188610308565b6001600160a01b0396909616604084015250509115156060830152151560809091015292915050565b600181811c9082168061041857607f821691505b6020821081141561043957634e487b7160e01b600052602260045260246000fd5b5091905056fea26469706673582212209d52cc7b0e2cdf2f5beabe534f2d33afe3d8a657934df836002ed064164014a064736f6c63430008070033",
					"opcodes": "PUSH1 0x80 PUSH1 0x40 MSTORE PUSH4 0x2CB41780 PUSH1 0x2 SSTORE PUSH3 0x186A0 PUSH1 0x3 SSTORE CALLVALUE DUP1 ISZERO PUSH2 0x1F JUMPI PUSH1 0x0 DUP1 REVERT JUMPDEST POP PUSH2 0x475 DUP1 PUSH2 0x2F PUSH1 0x0 CODECOPY PUSH1 0x0 RETURN INVALID PUSH1 0x80 PUSH1 0x40 MSTORE CALLVALUE DUP1 ISZERO PUSH2 0x10 JUMPI PUSH1 0x0 DUP1 REVERT JUMPDEST POP PUSH1 0x4 CALLDATASIZE LT PUSH2 0x4C JUMPI PUSH1 0x0 CALLDATALOAD PUSH1 0xE0 SHR DUP1 PUSH4 0x761C8B9 EQ PUSH2 0x51 JUMPI DUP1 PUSH4 0x23B2265F EQ PUSH2 0x6D JUMPI DUP1 PUSH4 0x948942AD EQ PUSH2 0x91 JUMPI DUP1 PUSH4 0xFC837259 EQ PUSH2 0x9A JUMPI JUMPDEST PUSH1 0x0 DUP1 REVERT JUMPDEST PUSH2 0x5A PUSH1 0x2 SLOAD DUP2 JUMP JUMPDEST PUSH1 0x40 MLOAD SWAP1 DUP2 MSTORE PUSH1 0x20 ADD JUMPDEST PUSH1 0x40 MLOAD DUP1 SWAP2 SUB SWAP1 RETURN JUMPDEST PUSH2 0x80 PUSH2 0x7B CALLDATASIZE PUSH1 0x4 PUSH2 0x2D8 JUMP JUMPDEST PUSH2 0xC0 JUMP JUMPDEST PUSH1 0x40 MLOAD PUSH2 0x64 SWAP6 SWAP5 SWAP4 SWAP3 SWAP2 SWAP1 PUSH2 0x3B6 JUMP JUMPDEST PUSH2 0x5A PUSH1 0x3 SLOAD DUP2 JUMP JUMPDEST PUSH2 0xAD PUSH2 0xA8 CALLDATASIZE PUSH1 0x4 PUSH2 0x2D8 JUMP JUMPDEST PUSH2 0x211 JUMP JUMPDEST PUSH1 0x40 MLOAD PUSH2 0x64 SWAP8 SWAP7 SWAP6 SWAP5 SWAP4 SWAP3 SWAP2 SWAP1 PUSH2 0x355 JUMP JUMPDEST PUSH1 0x5 PUSH1 0x20 MSTORE PUSH1 0x0 SWAP1 DUP2 MSTORE PUSH1 0x40 SWAP1 KECCAK256 DUP1 SLOAD DUP2 SWAP1 PUSH2 0xDB SWAP1 PUSH2 0x404 JUMP JUMPDEST DUP1 PUSH1 0x1F ADD PUSH1 0x20 DUP1 SWAP2 DIV MUL PUSH1 0x20 ADD PUSH1 0x40 MLOAD SWAP1 DUP2 ADD PUSH1 0x40 MSTORE DUP1 SWAP3 SWAP2 SWAP1 DUP2 DUP2 MSTORE PUSH1 0x20 ADD DUP3 DUP1 SLOAD PUSH2 0x107 SWAP1 PUSH2 0x404 JUMP JUMPDEST DUP1 ISZERO PUSH2 0x154 JUMPI DUP1 PUSH1 0x1F LT PUSH2 0x129 JUMPI PUSH2 0x100 DUP1 DUP4 SLOAD DIV MUL DUP4 MSTORE SWAP2 PUSH1 0x20 ADD SWAP2 PUSH2 0x154 JUMP JUMPDEST DUP3 ADD SWAP2 SWAP1 PUSH1 0x0 MSTORE PUSH1 0x20 PUSH1 0x0 KECCAK256 SWAP1 JUMPDEST DUP2 SLOAD DUP2 MSTORE SWAP1 PUSH1 0x1 ADD SWAP1 PUSH1 0x20 ADD DUP1 DUP4 GT PUSH2 0x137 JUMPI DUP3 SWAP1 SUB PUSH1 0x1F AND DUP3 ADD SWAP2 JUMPDEST POP POP POP POP POP SWAP1 DUP1 PUSH1 0x1 ADD DUP1 SLOAD PUSH2 0x169 SWAP1 PUSH2 0x404 JUMP JUMPDEST DUP1 PUSH1 0x1F ADD PUSH1 0x20 DUP1 SWAP2 DIV MUL PUSH1 0x20 ADD PUSH1 0x40 MLOAD SWAP1 DUP2 ADD PUSH1 0x40 MSTORE DUP1 SWAP3 SWAP2 SWAP1 DUP2 DUP2 MSTORE PUSH1 0x20 ADD DUP3 DUP1 SLOAD PUSH2 0x195 SWAP1 PUSH2 0x404 JUMP JUMPDEST DUP1 ISZERO PUSH2 0x1E2 JUMPI DUP1 PUSH1 0x1F LT PUSH2 0x1B7 JUMPI PUSH2 0x100 DUP1 DUP4 SLOAD DIV MUL DUP4 MSTORE SWAP2 PUSH1 0x20 ADD SWAP2 PUSH2 0x1E2 JUMP JUMPDEST DUP3 ADD SWAP2 SWAP1 PUSH1 0x0 MSTORE PUSH1 0x20 PUSH1 0x0 KECCAK256 SWAP1 JUMPDEST DUP2 SLOAD DUP2 MSTORE SWAP1 PUSH1 0x1 ADD SWAP1 PUSH1 0x20 ADD DUP1 DUP4 GT PUSH2 0x1C5 JUMPI DUP3 SWAP1 SUB PUSH1 0x1F AND DUP3 ADD SWAP2 JUMPDEST POP POP POP PUSH1 0x2 SWAP1 SWAP4 ADD SLOAD SWAP2 SWAP3 POP POP PUSH1 0x1 PUSH1 0x1 PUSH1 0xA0 SHL SUB DUP2 AND SWAP1 PUSH1 0xFF PUSH1 0x1 PUSH1 0xA0 SHL DUP3 DIV DUP2 AND SWAP2 PUSH1 0x1 PUSH1 0xA8 SHL SWAP1 DIV AND DUP6 JUMP JUMPDEST PUSH1 0x0 PUSH1 0x20 DUP2 SWAP1 MSTORE SWAP1 DUP2 MSTORE PUSH1 0x40 SWAP1 KECCAK256 DUP1 SLOAD PUSH1 0x1 DUP3 ADD DUP1 SLOAD PUSH1 0xFF SWAP1 SWAP3 AND SWAP3 SWAP2 PUSH2 0x237 SWAP1 PUSH2 0x404 JUMP JUMPDEST DUP1 PUSH1 0x1F ADD PUSH1 0x20 DUP1 SWAP2 DIV MUL PUSH1 0x20 ADD PUSH1 0x40 MLOAD SWAP1 DUP2 ADD PUSH1 0x40 MSTORE DUP1 SWAP3 SWAP2 SWAP1 DUP2 DUP2 MSTORE PUSH1 0x20 ADD DUP3 DUP1 SLOAD PUSH2 0x263 SWAP1 PUSH2 0x404 JUMP JUMPDEST DUP1 ISZERO PUSH2 0x2B0 JUMPI DUP1 PUSH1 0x1F LT PUSH2 0x285 JUMPI PUSH2 0x100 DUP1 DUP4 SLOAD DIV MUL DUP4 MSTORE SWAP2 PUSH1 0x20 ADD SWAP2 PUSH2 0x2B0 JUMP JUMPDEST DUP3 ADD SWAP2 SWAP1 PUSH1 0x0 MSTORE PUSH1 0x20 PUSH1 0x0 KECCAK256 SWAP1 JUMPDEST DUP2 SLOAD DUP2 MSTORE SWAP1 PUSH1 0x1 ADD SWAP1 PUSH1 0x20 ADD DUP1 DUP4 GT PUSH2 0x293 JUMPI DUP3 SWAP1 SUB PUSH1 0x1F AND DUP3 ADD SWAP2 JUMPDEST POP POP POP POP POP SWAP1 DUP1 PUSH1 0x2 ADD SLOAD SWAP1 DUP1 PUSH1 0x3 ADD SLOAD SWAP1 DUP1 PUSH1 0x4 ADD SLOAD SWAP1 DUP1 PUSH1 0x5 ADD SLOAD SWAP1 DUP1 PUSH1 0x6 ADD SLOAD SWAP1 POP DUP8 JUMP JUMPDEST PUSH1 0x0 PUSH1 0x20 DUP3 DUP5 SUB SLT ISZERO PUSH2 0x2EA JUMPI PUSH1 0x0 DUP1 REVERT JUMPDEST DUP2 CALLDATALOAD PUSH1 0x1 PUSH1 0x1 PUSH1 0xA0 SHL SUB DUP2 AND DUP2 EQ PUSH2 0x301 JUMPI PUSH1 0x0 DUP1 REVERT JUMPDEST SWAP4 SWAP3 POP POP POP JUMP JUMPDEST PUSH1 0x0 DUP2 MLOAD DUP1 DUP5 MSTORE PUSH1 0x0 JUMPDEST DUP2 DUP2 LT ISZERO PUSH2 0x32E JUMPI PUSH1 0x20 DUP2 DUP6 ADD DUP2 ADD MLOAD DUP7 DUP4 ADD DUP3 ADD MSTORE ADD PUSH2 0x312 JUMP JUMPDEST DUP2 DUP2 GT ISZERO PUSH2 0x340 JUMPI PUSH1 0x0 PUSH1 0x20 DUP4 DUP8 ADD ADD MSTORE JUMPDEST POP PUSH1 0x1F ADD PUSH1 0x1F NOT AND SWAP3 SWAP1 SWAP3 ADD PUSH1 0x20 ADD SWAP3 SWAP2 POP POP JUMP JUMPDEST PUSH1 0x0 PUSH1 0x5 DUP10 LT PUSH2 0x375 JUMPI PUSH4 0x4E487B71 PUSH1 0xE0 SHL PUSH1 0x0 MSTORE PUSH1 0x21 PUSH1 0x4 MSTORE PUSH1 0x24 PUSH1 0x0 REVERT JUMPDEST DUP9 DUP3 MSTORE PUSH1 0xE0 PUSH1 0x20 DUP4 ADD MSTORE PUSH2 0x38C PUSH1 0xE0 DUP4 ADD DUP10 PUSH2 0x308 JUMP JUMPDEST PUSH1 0x40 DUP4 ADD SWAP8 SWAP1 SWAP8 MSTORE POP PUSH1 0x60 DUP2 ADD SWAP5 SWAP1 SWAP5 MSTORE PUSH1 0x80 DUP5 ADD SWAP3 SWAP1 SWAP3 MSTORE PUSH1 0xA0 DUP4 ADD MSTORE PUSH1 0xC0 SWAP1 SWAP2 ADD MSTORE SWAP3 SWAP2 POP POP JUMP JUMPDEST PUSH1 0xA0 DUP2 MSTORE PUSH1 0x0 PUSH2 0x3C9 PUSH1 0xA0 DUP4 ADD DUP9 PUSH2 0x308 JUMP JUMPDEST DUP3 DUP2 SUB PUSH1 0x20 DUP5 ADD MSTORE PUSH2 0x3DB DUP2 DUP9 PUSH2 0x308 JUMP JUMPDEST PUSH1 0x1 PUSH1 0x1 PUSH1 0xA0 SHL SUB SWAP7 SWAP1 SWAP7 AND PUSH1 0x40 DUP5 ADD MSTORE POP POP SWAP2 ISZERO ISZERO PUSH1 0x60 DUP4 ADD MSTORE ISZERO ISZERO PUSH1 0x80 SWAP1 SWAP2 ADD MSTORE SWAP3 SWAP2 POP POP JUMP JUMPDEST PUSH1 0x1 DUP2 DUP2 SHR SWAP1 DUP3 AND DUP1 PUSH2 0x418 JUMPI PUSH1 0x7F DUP3 AND SWAP2 POP JUMPDEST PUSH1 0x20 DUP3 LT DUP2 EQ ISZERO PUSH2 0x439 JUMPI PUSH4 0x4E487B71 PUSH1 0xE0 SHL PUSH1 0x0 MSTORE PUSH1 0x22 PUSH1 0x4 MSTORE PUSH1 0x24 PUSH1 0x0 REVERT JUMPDEST POP SWAP2 SWAP1 POP JUMP INVALID LOG2 PUSH5 0x6970667358 0x22 SLT KECCAK256 SWAP14 MSTORE 0xCC PUSH28 0xE2CDF2F5BEABE534F2D33AFE3D8A657934DF836002ED064164014A0 PUSH5 0x736F6C6343 STOP ADDMOD SMOD STOP CALLER "
				},
				"gasEstimates": {
					"creation": {
						"codeDepositCost": "228200",
						"executionCost": "44481",
						"totalCost": "272681"
					},
					"external": {
						"strucApplications_(address)": "infinite",
						"structUsers_(address)": "infinite",
						"tokenAmount_()": "2306",
						"tokenPrice_()": "2262"
					}
				},
				"methodIdentifiers": {
					"strucApplications_(address)": "23b2265f",
					"structUsers_(address)": "fc837259",
					"tokenAmount_()": "948942ad",
					"tokenPrice_()": "0761c8b9"
				}
			},
			"storageLayout": {
				"storage": [
					{
						"astId": 150,
						"contract": "GitHub/contract-token-cryptoMonster/backend/shared/helpers/modifireFunc.sol:modifireFunc",
						"label": "structUsers_",
						"offset": 0,
						"slot": "0",
						"type": "t_mapping(t_address,t_struct(structUser)145_storage)"
					},
					{
						"astId": 156,
						"contract": "GitHub/contract-token-cryptoMonster/backend/shared/helpers/modifireFunc.sol:modifireFunc",
						"label": "allowed",
						"offset": 0,
						"slot": "1",
						"type": "t_mapping(t_address,t_mapping(t_address,t_uint256))"
					},
					{
						"astId": 159,
						"contract": "GitHub/contract-token-cryptoMonster/backend/shared/helpers/modifireFunc.sol:modifireFunc",
						"label": "tokenPrice_",
						"offset": 0,
						"slot": "2",
						"type": "t_uint256"
					},
					{
						"astId": 162,
						"contract": "GitHub/contract-token-cryptoMonster/backend/shared/helpers/modifireFunc.sol:modifireFunc",
						"label": "tokenAmount_",
						"offset": 0,
						"slot": "3",
						"type": "t_uint256"
					},
					{
						"astId": 181,
						"contract": "GitHub/contract-token-cryptoMonster/backend/shared/helpers/modifireFunc.sol:modifireFunc",
						"label": "structPhases_",
						"offset": 0,
						"slot": "4",
						"type": "t_mapping(t_address,t_struct(structPhase)176_storage)"
					},
					{
						"astId": 197,
						"contract": "GitHub/contract-token-cryptoMonster/backend/shared/helpers/modifireFunc.sol:modifireFunc",
						"label": "strucApplications_",
						"offset": 0,
						"slot": "5",
						"type": "t_mapping(t_address,t_struct(structApplication)192_storage)"
					},
					{
						"astId": 200,
						"contract": "GitHub/contract-token-cryptoMonster/backend/shared/helpers/modifireFunc.sol:modifireFunc",
						"label": "structApplicationsAmountAdr",
						"offset": 0,
						"slot": "6",
						"type": "t_array(t_address)dyn_storage"
					},
					{
						"astId": 203,
						"contract": "GitHub/contract-token-cryptoMonster/backend/shared/helpers/modifireFunc.sol:modifireFunc",
						"label": "whiteList",
						"offset": 0,
						"slot": "7",
						"type": "t_array(t_address)dyn_storage"
					},
					{
						"astId": 206,
						"contract": "GitHub/contract-token-cryptoMonster/backend/shared/helpers/modifireFunc.sol:modifireFunc",
						"label": "blackList",
						"offset": 0,
						"slot": "8",
						"type": "t_array(t_address)dyn_storage"
					}
				],
				"types": {
					"t_address": {
						"encoding": "inplace",
						"label": "address",
						"numberOfBytes": "20"
					},
					"t_array(t_address)dyn_storage": {
						"base": "t_address",
						"encoding": "dynamic_array",
						"label": "address[]",
						"numberOfBytes": "32"
					},
					"t_bool": {
						"encoding": "inplace",
						"label": "bool",
						"numberOfBytes": "1"
					},
					"t_bytes32": {
						"encoding": "inplace",
						"label": "bytes32",
						"numberOfBytes": "32"
					},
					"t_enum(Role)129": {
						"encoding": "inplace",
						"label": "enum structures.Role",
						"numberOfBytes": "1"
					},
					"t_mapping(t_address,t_mapping(t_address,t_uint256))": {
						"encoding": "mapping",
						"key": "t_address",
						"label": "mapping(address => mapping(address => uint256))",
						"numberOfBytes": "32",
						"value": "t_mapping(t_address,t_uint256)"
					},
					"t_mapping(t_address,t_struct(structApplication)192_storage)": {
						"encoding": "mapping",
						"key": "t_address",
						"label": "mapping(address => struct structures.structApplication)",
						"numberOfBytes": "32",
						"value": "t_struct(structApplication)192_storage"
					},
					"t_mapping(t_address,t_struct(structPhase)176_storage)": {
						"encoding": "mapping",
						"key": "t_address",
						"label": "mapping(address => struct structures.structPhase)",
						"numberOfBytes": "32",
						"value": "t_struct(structPhase)176_storage"
					},
					"t_mapping(t_address,t_struct(structUser)145_storage)": {
						"encoding": "mapping",
						"key": "t_address",
						"label": "mapping(address => struct structures.structUser)",
						"numberOfBytes": "32",
						"value": "t_struct(structUser)145_storage"
					},
					"t_mapping(t_address,t_uint256)": {
						"encoding": "mapping",
						"key": "t_address",
						"label": "mapping(address => uint256)",
						"numberOfBytes": "32",
						"value": "t_uint256"
					},
					"t_string_storage": {
						"encoding": "bytes",
						"label": "string",
						"numberOfBytes": "32"
					},
					"t_struct(structApplication)192_storage": {
						"encoding": "inplace",
						"label": "struct structures.structApplication",
						"members": [
							{
								"astId": 183,
								"contract": "GitHub/contract-token-cryptoMonster/backend/shared/helpers/modifireFunc.sol:modifireFunc",
								"label": "name",
								"offset": 0,
								"slot": "0",
								"type": "t_string_storage"
							},
							{
								"astId": 185,
								"contract": "GitHub/contract-token-cryptoMonster/backend/shared/helpers/modifireFunc.sol:modifireFunc",
								"label": "contactForCommunication",
								"offset": 0,
								"slot": "1",
								"type": "t_string_storage"
							},
							{
								"astId": 187,
								"contract": "GitHub/contract-token-cryptoMonster/backend/shared/helpers/modifireFunc.sol:modifireFunc",
								"label": "userAdr",
								"offset": 0,
								"slot": "2",
								"type": "t_address"
							},
							{
								"astId": 189,
								"contract": "GitHub/contract-token-cryptoMonster/backend/shared/helpers/modifireFunc.sol:modifireFunc",
								"label": "status",
								"offset": 20,
								"slot": "2",
								"type": "t_bool"
							},
							{
								"astId": 191,
								"contract": "GitHub/contract-token-cryptoMonster/backend/shared/helpers/modifireFunc.sol:modifireFunc",
								"label": "exist",
								"offset": 21,
								"slot": "2",
								"type": "t_bool"
							}
						],
						"numberOfBytes": "96"
					},
					"t_struct(structPhase)176_storage": {
						"encoding": "inplace",
						"label": "struct structures.structPhase",
						"members": [
							{
								"astId": 173,
								"contract": "GitHub/contract-token-cryptoMonster/backend/shared/helpers/modifireFunc.sol:modifireFunc",
								"label": "statusPhase",
								"offset": 0,
								"slot": "0",
								"type": "t_bool"
							},
							{
								"astId": 175,
								"contract": "GitHub/contract-token-cryptoMonster/backend/shared/helpers/modifireFunc.sol:modifireFunc",
								"label": "reviewed",
								"offset": 1,
								"slot": "0",
								"type": "t_bool"
							}
						],
						"numberOfBytes": "32"
					},
					"t_struct(structUser)145_storage": {
						"encoding": "inplace",
						"label": "struct structures.structUser",
						"members": [
							{
								"astId": 132,
								"contract": "GitHub/contract-token-cryptoMonster/backend/shared/helpers/modifireFunc.sol:modifireFunc",
								"label": "role",
								"offset": 0,
								"slot": "0",
								"type": "t_enum(Role)129"
							},
							{
								"astId": 134,
								"contract": "GitHub/contract-token-cryptoMonster/backend/shared/helpers/modifireFunc.sol:modifireFunc",
								"label": "login",
								"offset": 0,
								"slot": "1",
								"type": "t_string_storage"
							},
							{
								"astId": 136,
								"contract": "GitHub/contract-token-cryptoMonster/backend/shared/helpers/modifireFunc.sol:modifireFunc",
								"label": "password",
								"offset": 0,
								"slot": "2",
								"type": "t_bytes32"
							},
							{
								"astId": 138,
								"contract": "GitHub/contract-token-cryptoMonster/backend/shared/helpers/modifireFunc.sol:modifireFunc",
								"label": "balance_overall",
								"offset": 0,
								"slot": "3",
								"type": "t_uint256"
							},
							{
								"astId": 140,
								"contract": "GitHub/contract-token-cryptoMonster/backend/shared/helpers/modifireFunc.sol:modifireFunc",
								"label": "balance_seed",
								"offset": 0,
								"slot": "4",
								"type": "t_uint256"
							},
							{
								"astId": 142,
								"contract": "GitHub/contract-token-cryptoMonster/backend/shared/helpers/modifireFunc.sol:modifireFunc",
								"label": "balance_private",
								"offset": 0,
								"slot": "5",
								"type": "t_uint256"
							},
							{
								"astId": 144,
								"contract": "GitHub/contract-token-cryptoMonster/backend/shared/helpers/modifireFunc.sol:modifireFunc",
								"label": "balance_public",
								"offset": 0,
								"slot": "6",
								"type": "t_uint256"
							}
						],
						"numberOfBytes": "224"
					},
					"t_uint256": {
						"encoding": "inplace",
						"label": "uint256",
						"numberOfBytes": "32"
					}
				}
			},
			"userdoc": {
				"kind": "user",
				"methods": {},
				"version": 1
			}
		}
	}
}