{
	"Documents/GitHub/contract-token-cryptoMonster/backend/shared/helpers/helpresFunc.sol": {
		"helpresFunc": {
			"abi": [
				{
					"inputs": [
						{
							"internalType": "address",
							"name": "_userAdr",
							"type": "address"
						}
					],
					"name": "getBalancePrivateToken",
					"outputs": [
						{
							"internalType": "uint256",
							"name": "",
							"type": "uint256"
						}
					],
					"stateMutability": "view",
					"type": "function"
				},
				{
					"inputs": [
						{
							"internalType": "address",
							"name": "_userAdr",
							"type": "address"
						}
					],
					"name": "getBalancePublicToken",
					"outputs": [
						{
							"internalType": "uint256",
							"name": "",
							"type": "uint256"
						}
					],
					"stateMutability": "view",
					"type": "function"
				},
				{
					"inputs": [
						{
							"internalType": "address",
							"name": "_userAdr",
							"type": "address"
						}
					],
					"name": "getBalanceSeedToken",
					"outputs": [
						{
							"internalType": "uint256",
							"name": "",
							"type": "uint256"
						}
					],
					"stateMutability": "view",
					"type": "function"
				},
				{
					"inputs": [],
					"name": "get_blackList",
					"outputs": [
						{
							"internalType": "address[]",
							"name": "",
							"type": "address[]"
						}
					],
					"stateMutability": "view",
					"type": "function"
				},
				{
					"inputs": [
						{
							"internalType": "string",
							"name": "_hash",
							"type": "string"
						}
					],
					"name": "get_keccak256",
					"outputs": [
						{
							"internalType": "bytes32",
							"name": "",
							"type": "bytes32"
						}
					],
					"stateMutability": "pure",
					"type": "function"
				},
				{
					"inputs": [],
					"name": "get_whiteList",
					"outputs": [
						{
							"internalType": "address[]",
							"name": "",
							"type": "address[]"
						}
					],
					"stateMutability": "view",
					"type": "function"
				},
				{
					"inputs": [],
					"name": "tokenAmount_",
					"outputs": [
						{
							"internalType": "uint256",
							"name": "",
							"type": "uint256"
						}
					],
					"stateMutability": "view",
					"type": "function"
				},
				{
					"inputs": [],
					"name": "tokenPrice_",
					"outputs": [
						{
							"internalType": "uint256",
							"name": "",
							"type": "uint256"
						}
					],
					"stateMutability": "view",
					"type": "function"
				}
			],
			"devdoc": {
				"kind": "dev",
				"methods": {},
				"version": 1
			},
			"evm": {
				"assembly": "    /* \"Documents/GitHub/contract-token-cryptoMonster/backend/shared/helpers/helpresFunc.sol\":104:1498  contract helpresFunc is modifireFunc {\r... */\n  mstore(0x40, 0x80)\n    /* \"Documents/GitHub/contract-token-cryptoMonster/backend/shared/lib/structures.sol\":1145:1154  750000000 */\n  0x2cb41780\n    /* \"Documents/GitHub/contract-token-cryptoMonster/backend/shared/lib/structures.sol\":1116:1154  uint256 public tokenPrice_ = 750000000 */\n  0x02\n  sstore\n    /* \"Documents/GitHub/contract-token-cryptoMonster/backend/shared/lib/structures.sol\":1376:1382  100000 */\n  0x0186a0\n    /* \"Documents/GitHub/contract-token-cryptoMonster/backend/shared/lib/structures.sol\":1349:1382  uint public tokenAmount_ = 100000 */\n  0x03\n  sstore\n    /* \"Documents/GitHub/contract-token-cryptoMonster/backend/shared/helpers/helpresFunc.sol\":104:1498  contract helpresFunc is modifireFunc {\r... */\n  callvalue\n  dup1\n  iszero\n  tag_1\n  jumpi\n  0x00\n  dup1\n  revert\ntag_1:\n  pop\n  dataSize(sub_0)\n  dup1\n  dataOffset(sub_0)\n  0x00\n  codecopy\n  0x00\n  return\nstop\n\nsub_0: assembly {\n        /* \"Documents/GitHub/contract-token-cryptoMonster/backend/shared/helpers/helpresFunc.sol\":104:1498  contract helpresFunc is modifireFunc {\r... */\n      mstore(0x40, 0x80)\n      callvalue\n      dup1\n      iszero\n      tag_1\n      jumpi\n      0x00\n      dup1\n      revert\n    tag_1:\n      pop\n      jumpi(tag_2, lt(calldatasize, 0x04))\n      shr(0xe0, calldataload(0x00))\n      dup1\n      0x0761c8b9\n      eq\n      tag_3\n      jumpi\n      dup1\n      0x2599d6d0\n      eq\n      tag_4\n      jumpi\n      dup1\n      0x72f0d72b\n      eq\n      tag_5\n      jumpi\n      dup1\n      0x7f89128f\n      eq\n      tag_6\n      jumpi\n      dup1\n      0x8e4f8c6b\n      eq\n      tag_7\n      jumpi\n      dup1\n      0x948942ad\n      eq\n      tag_8\n      jumpi\n      dup1\n      0xb06cdc12\n      eq\n      tag_9\n      jumpi\n      dup1\n      0xc10e3911\n      eq\n      tag_10\n      jumpi\n    tag_2:\n      0x00\n      dup1\n      revert\n        /* \"Documents/GitHub/contract-token-cryptoMonster/backend/shared/lib/structures.sol\":1116:1154  uint256 public tokenPrice_ = 750000000 */\n    tag_3:\n      tag_11\n      sload(0x02)\n      dup2\n      jump\n    tag_11:\n      mload(0x40)\n        /* \"#utility.yul\":2474:2499   */\n      swap1\n      dup2\n      mstore\n        /* \"#utility.yul\":2462:2464   */\n      0x20\n        /* \"#utility.yul\":2447:2465   */\n      add\n        /* \"Documents/GitHub/contract-token-cryptoMonster/backend/shared/lib/structures.sol\":1116:1154  uint256 public tokenPrice_ = 750000000 */\n    tag_13:\n      mload(0x40)\n      dup1\n      swap2\n      sub\n      swap1\n      return\n        /* \"Documents/GitHub/contract-token-cryptoMonster/backend/shared/helpers/helpresFunc.sol\":849:988  function getBalanceSeedToken (address _userAdr) public view returns (uint256) {\r... */\n    tag_4:\n      tag_11\n      tag_16\n      calldatasize\n      0x04\n      tag_17\n      jump\t// in\n    tag_16:\n      sub(shl(0xa0, 0x01), 0x01)\n        /* \"Documents/GitHub/contract-token-cryptoMonster/backend/shared/helpers/helpresFunc.sol\":945:967  structUsers_[_userAdr] */\n      and\n        /* \"Documents/GitHub/contract-token-cryptoMonster/backend/shared/helpers/helpresFunc.sol\":918:925  uint256 */\n      0x00\n        /* \"Documents/GitHub/contract-token-cryptoMonster/backend/shared/helpers/helpresFunc.sol\":945:967  structUsers_[_userAdr] */\n      swap1\n      dup2\n      mstore\n      0x20\n      dup2\n      swap1\n      mstore\n      0x40\n      swap1\n      keccak256\n        /* \"Documents/GitHub/contract-token-cryptoMonster/backend/shared/helpers/helpresFunc.sol\":945:980  structUsers_[_userAdr].balance_seed */\n      0x04\n      add\n      sload\n      swap1\n        /* \"Documents/GitHub/contract-token-cryptoMonster/backend/shared/helpers/helpresFunc.sol\":849:988  function getBalanceSeedToken (address _userAdr) public view returns (uint256) {\r... */\n      jump\n        /* \"Documents/GitHub/contract-token-cryptoMonster/backend/shared/helpers/helpresFunc.sol\":1352:1495  function getBalancePublicToken (address _userAdr) public view returns (uint256) {\r... */\n    tag_5:\n      tag_11\n      tag_21\n      calldatasize\n      0x04\n      tag_17\n      jump\t// in\n    tag_21:\n      sub(shl(0xa0, 0x01), 0x01)\n        /* \"Documents/GitHub/contract-token-cryptoMonster/backend/shared/helpers/helpresFunc.sol\":1450:1472  structUsers_[_userAdr] */\n      and\n        /* \"Documents/GitHub/contract-token-cryptoMonster/backend/shared/helpers/helpresFunc.sol\":1423:1430  uint256 */\n      0x00\n        /* \"Documents/GitHub/contract-token-cryptoMonster/backend/shared/helpers/helpresFunc.sol\":1450:1472  structUsers_[_userAdr] */\n      swap1\n      dup2\n      mstore\n      0x20\n      dup2\n      swap1\n      mstore\n      0x40\n      swap1\n      keccak256\n        /* \"Documents/GitHub/contract-token-cryptoMonster/backend/shared/helpers/helpresFunc.sol\":1450:1487  structUsers_[_userAdr].balance_public */\n      0x06\n      add\n      sload\n      swap1\n        /* \"Documents/GitHub/contract-token-cryptoMonster/backend/shared/helpers/helpresFunc.sol\":1352:1495  function getBalancePublicToken (address _userAdr) public view returns (uint256) {\r... */\n      jump\n        /* \"Documents/GitHub/contract-token-cryptoMonster/backend/shared/helpers/helpresFunc.sol\":632:742  function get_blackList() public onlyOwner view returns (address[] memory) {\r... */\n    tag_6:\n      tag_24\n      tag_25\n      jump\t// in\n    tag_24:\n      mload(0x40)\n      tag_13\n      swap2\n      swap1\n      tag_27\n      jump\t// in\n        /* \"Documents/GitHub/contract-token-cryptoMonster/backend/shared/helpers/helpresFunc.sol\":212:350  function get_keccak256(string memory _hash) public pure returns(bytes32) {\r... */\n    tag_7:\n      tag_11\n      tag_29\n      calldatasize\n      0x04\n      tag_30\n      jump\t// in\n    tag_29:\n      tag_31\n      jump\t// in\n        /* \"Documents/GitHub/contract-token-cryptoMonster/backend/shared/lib/structures.sol\":1349:1382  uint public tokenAmount_ = 100000 */\n    tag_8:\n      tag_11\n      sload(0x03)\n      dup2\n      jump\n        /* \"Documents/GitHub/contract-token-cryptoMonster/backend/shared/helpers/helpresFunc.sol\":1098:1243  function getBalancePrivateToken (address _userAdr) public view returns (uint256) {\r... */\n    tag_9:\n      tag_11\n      tag_38\n      calldatasize\n      0x04\n      tag_17\n      jump\t// in\n    tag_38:\n      sub(shl(0xa0, 0x01), 0x01)\n        /* \"Documents/GitHub/contract-token-cryptoMonster/backend/shared/helpers/helpresFunc.sol\":1197:1219  structUsers_[_userAdr] */\n      and\n        /* \"Documents/GitHub/contract-token-cryptoMonster/backend/shared/helpers/helpresFunc.sol\":1170:1177  uint256 */\n      0x00\n        /* \"Documents/GitHub/contract-token-cryptoMonster/backend/shared/helpers/helpresFunc.sol\":1197:1219  structUsers_[_userAdr] */\n      swap1\n      dup2\n      mstore\n      0x20\n      dup2\n      swap1\n      mstore\n      0x40\n      swap1\n      keccak256\n        /* \"Documents/GitHub/contract-token-cryptoMonster/backend/shared/helpers/helpresFunc.sol\":1197:1235  structUsers_[_userAdr].balance_private */\n      0x05\n      add\n      sload\n      swap1\n        /* \"Documents/GitHub/contract-token-cryptoMonster/backend/shared/helpers/helpresFunc.sol\":1098:1243  function getBalancePrivateToken (address _userAdr) public view returns (uint256) {\r... */\n      jump\n        /* \"Documents/GitHub/contract-token-cryptoMonster/backend/shared/helpers/helpresFunc.sol\":426:554  function get_whiteList() public onlyOwnerAndPrivateProvider view returns (address[] memory) {\r... */\n    tag_10:\n      tag_24\n      tag_42\n      jump\t// in\n        /* \"Documents/GitHub/contract-token-cryptoMonster/backend/shared/helpers/helpresFunc.sol\":632:742  function get_blackList() public onlyOwner view returns (address[] memory) {\r... */\n    tag_25:\n        /* \"Documents/GitHub/contract-token-cryptoMonster/backend/shared/helpers/helpresFunc.sol\":688:704  address[] memory */\n      0x60\n        /* \"Documents/GitHub/contract-token-cryptoMonster/backend/shared/helpers/modifireFunc.sol\":320:337  Role.SYSTEM_OWNER */\n      0x00\n        /* \"Documents/GitHub/contract-token-cryptoMonster/backend/shared/helpers/modifireFunc.sol\":300:310  msg.sender */\n      caller\n        /* \"Documents/GitHub/contract-token-cryptoMonster/backend/shared/helpers/modifireFunc.sol\":287:299  structUsers_ */\n      0x00\n        /* \"Documents/GitHub/contract-token-cryptoMonster/backend/shared/helpers/modifireFunc.sol\":287:311  structUsers_[msg.sender] */\n      swap1\n      dup2\n      mstore\n      0x20\n      dup2\n      swap1\n      mstore\n      0x40\n      swap1\n      keccak256\n        /* \"Documents/GitHub/contract-token-cryptoMonster/backend/shared/helpers/modifireFunc.sol\":287:316  structUsers_[msg.sender].role */\n      sload\n      0xff\n      and\n        /* \"Documents/GitHub/contract-token-cryptoMonster/backend/shared/helpers/modifireFunc.sol\":287:337  structUsers_[msg.sender].role == Role.SYSTEM_OWNER */\n      0x04\n      dup2\n      gt\n      iszero\n      tag_51\n      jumpi\n      tag_51\n      tag_49\n      jump\t// in\n    tag_51:\n      eq\n        /* \"Documents/GitHub/contract-token-cryptoMonster/backend/shared/helpers/modifireFunc.sol\":279:356  require(structUsers_[msg.sender].role == Role.SYSTEM_OWNER, \"Your not admin\") */\n      tag_52\n      jumpi\n      mload(0x40)\n      shl(0xe5, 0x461bcd)\n      dup2\n      mstore\n        /* \"#utility.yul\":3122:3124   */\n      0x20\n        /* \"Documents/GitHub/contract-token-cryptoMonster/backend/shared/helpers/modifireFunc.sol\":279:356  require(structUsers_[msg.sender].role == Role.SYSTEM_OWNER, \"Your not admin\") */\n      0x04\n      dup3\n      add\n        /* \"#utility.yul\":3104:3125   */\n      mstore\n        /* \"#utility.yul\":3161:3163   */\n      0x0e\n        /* \"#utility.yul\":3141:3159   */\n      0x24\n      dup3\n      add\n        /* \"#utility.yul\":3134:3164   */\n      mstore\n      shl(0x91, 0x2cb7bab9103737ba1030b236b4b7)\n        /* \"#utility.yul\":3180:3198   */\n      0x44\n      dup3\n      add\n        /* \"#utility.yul\":3173:3217   */\n      mstore\n        /* \"#utility.yul\":3234:3252   */\n      0x64\n      add\n        /* \"Documents/GitHub/contract-token-cryptoMonster/backend/shared/helpers/modifireFunc.sol\":279:356  require(structUsers_[msg.sender].role == Role.SYSTEM_OWNER, \"Your not admin\") */\n    tag_53:\n      mload(0x40)\n      dup1\n      swap2\n      sub\n      swap1\n      revert\n    tag_52:\n        /* \"Documents/GitHub/contract-token-cryptoMonster/backend/shared/helpers/helpresFunc.sol\":724:733  blackList */\n      0x08\n        /* \"Documents/GitHub/contract-token-cryptoMonster/backend/shared/helpers/helpresFunc.sol\":717:734  return(blackList) */\n      dup1\n      sload\n      dup1\n      0x20\n      mul\n      0x20\n      add\n      mload(0x40)\n      swap1\n      dup2\n      add\n      0x40\n      mstore\n      dup1\n      swap3\n      swap2\n      swap1\n      dup2\n      dup2\n      mstore\n      0x20\n      add\n      dup3\n      dup1\n      sload\n      dup1\n      iszero\n      tag_56\n      jumpi\n      0x20\n      mul\n      dup3\n      add\n      swap2\n      swap1\n      0x00\n      mstore\n      keccak256(0x00, 0x20)\n      swap1\n    tag_57:\n      dup2\n      sload\n      sub(shl(0xa0, 0x01), 0x01)\n      and\n      dup2\n      mstore\n      0x01\n      swap1\n      swap2\n      add\n      swap1\n      0x20\n      add\n      dup1\n      dup4\n      gt\n      tag_57\n      jumpi\n    tag_56:\n      pop\n      pop\n      pop\n      pop\n      pop\n      swap1\n      pop\n        /* \"Documents/GitHub/contract-token-cryptoMonster/backend/shared/helpers/helpresFunc.sol\":632:742  function get_blackList() public onlyOwner view returns (address[] memory) {\r... */\n      swap1\n      jump\t// out\n        /* \"Documents/GitHub/contract-token-cryptoMonster/backend/shared/helpers/helpresFunc.sol\":212:350  function get_keccak256(string memory _hash) public pure returns(bytes32) {\r... */\n    tag_31:\n        /* \"Documents/GitHub/contract-token-cryptoMonster/backend/shared/helpers/helpresFunc.sol\":276:283  bytes32 */\n      0x00\n        /* \"Documents/GitHub/contract-token-cryptoMonster/backend/shared/helpers/helpresFunc.sol\":334:339  _hash */\n      dup2\n        /* \"Documents/GitHub/contract-token-cryptoMonster/backend/shared/helpers/helpresFunc.sol\":317:340  abi.encodePacked(_hash) */\n      add(0x20, mload(0x40))\n      tag_59\n      swap2\n      swap1\n      tag_60\n      jump\t// in\n    tag_59:\n      mload(0x40)\n      0x20\n      dup2\n      dup4\n      sub\n      sub\n      dup2\n      mstore\n      swap1\n      0x40\n      mstore\n        /* \"Documents/GitHub/contract-token-cryptoMonster/backend/shared/helpers/helpresFunc.sol\":307:341  keccak256(abi.encodePacked(_hash)) */\n      dup1\n      mload\n      swap1\n      0x20\n      add\n      keccak256\n        /* \"Documents/GitHub/contract-token-cryptoMonster/backend/shared/helpers/helpresFunc.sol\":300:342  return(keccak256(abi.encodePacked(_hash))) */\n      swap1\n      pop\n        /* \"Documents/GitHub/contract-token-cryptoMonster/backend/shared/helpers/helpresFunc.sol\":212:350  function get_keccak256(string memory _hash) public pure returns(bytes32) {\r... */\n      swap2\n      swap1\n      pop\n      jump\t// out\n        /* \"Documents/GitHub/contract-token-cryptoMonster/backend/shared/helpers/helpresFunc.sol\":426:554  function get_whiteList() public onlyOwnerAndPrivateProvider view returns (address[] memory) {\r... */\n    tag_42:\n        /* \"Documents/GitHub/contract-token-cryptoMonster/backend/shared/helpers/helpresFunc.sol\":500:516  address[] memory */\n      0x60\n        /* \"Documents/GitHub/contract-token-cryptoMonster/backend/shared/helpers/modifireFunc.sol\":859:876  Role.SYSTEM_OWNER */\n      0x00\n        /* \"Documents/GitHub/contract-token-cryptoMonster/backend/shared/helpers/modifireFunc.sol\":839:849  msg.sender */\n      caller\n        /* \"Documents/GitHub/contract-token-cryptoMonster/backend/shared/helpers/modifireFunc.sol\":826:838  structUsers_ */\n      0x00\n        /* \"Documents/GitHub/contract-token-cryptoMonster/backend/shared/helpers/modifireFunc.sol\":826:850  structUsers_[msg.sender] */\n      swap1\n      dup2\n      mstore\n      0x20\n      dup2\n      swap1\n      mstore\n      0x40\n      swap1\n      keccak256\n        /* \"Documents/GitHub/contract-token-cryptoMonster/backend/shared/helpers/modifireFunc.sol\":826:855  structUsers_[msg.sender].role */\n      sload\n      0xff\n      and\n        /* \"Documents/GitHub/contract-token-cryptoMonster/backend/shared/helpers/modifireFunc.sol\":826:876  structUsers_[msg.sender].role == Role.SYSTEM_OWNER */\n      0x04\n      dup2\n      gt\n      iszero\n      tag_66\n      jumpi\n      tag_66\n      tag_49\n      jump\t// in\n    tag_66:\n      eq\n        /* \"Documents/GitHub/contract-token-cryptoMonster/backend/shared/helpers/modifireFunc.sol\":826:932  structUsers_[msg.sender].role == Role.SYSTEM_OWNER || structUsers_[msg.sender].role == Role.SYSTEM_PRIVATE */\n      dup1\n      tag_67\n      jumpi\n      pop\n        /* \"Documents/GitHub/contract-token-cryptoMonster/backend/shared/helpers/modifireFunc.sol\":913:932  Role.SYSTEM_PRIVATE */\n      0x02\n        /* \"Documents/GitHub/contract-token-cryptoMonster/backend/shared/helpers/modifireFunc.sol\":893:903  msg.sender */\n      caller\n        /* \"Documents/GitHub/contract-token-cryptoMonster/backend/shared/helpers/modifireFunc.sol\":880:892  structUsers_ */\n      0x00\n        /* \"Documents/GitHub/contract-token-cryptoMonster/backend/shared/helpers/modifireFunc.sol\":880:904  structUsers_[msg.sender] */\n      swap1\n      dup2\n      mstore\n      0x20\n      dup2\n      swap1\n      mstore\n      0x40\n      swap1\n      keccak256\n        /* \"Documents/GitHub/contract-token-cryptoMonster/backend/shared/helpers/modifireFunc.sol\":880:909  structUsers_[msg.sender].role */\n      sload\n      0xff\n      and\n        /* \"Documents/GitHub/contract-token-cryptoMonster/backend/shared/helpers/modifireFunc.sol\":880:932  structUsers_[msg.sender].role == Role.SYSTEM_PRIVATE */\n      0x04\n      dup2\n      gt\n      iszero\n      tag_71\n      jumpi\n      tag_71\n      tag_49\n      jump\t// in\n    tag_71:\n      eq\n        /* \"Documents/GitHub/contract-token-cryptoMonster/backend/shared/helpers/modifireFunc.sol\":826:932  structUsers_[msg.sender].role == Role.SYSTEM_OWNER || structUsers_[msg.sender].role == Role.SYSTEM_PRIVATE */\n    tag_67:\n        /* \"Documents/GitHub/contract-token-cryptoMonster/backend/shared/helpers/modifireFunc.sol\":818:978  require(structUsers_[msg.sender].role == Role.SYSTEM_OWNER || structUsers_[msg.sender].role == Role.SYSTEM_PRIVATE, \"You are not the owner or private provider\") */\n      tag_72\n      jumpi\n      mload(0x40)\n      shl(0xe5, 0x461bcd)\n      dup2\n      mstore\n        /* \"#utility.yul\":2712:2714   */\n      0x20\n        /* \"Documents/GitHub/contract-token-cryptoMonster/backend/shared/helpers/modifireFunc.sol\":818:978  require(structUsers_[msg.sender].role == Role.SYSTEM_OWNER || structUsers_[msg.sender].role == Role.SYSTEM_PRIVATE, \"You are not the owner or private provider\") */\n      0x04\n      dup3\n      add\n        /* \"#utility.yul\":2694:2715   */\n      mstore\n        /* \"#utility.yul\":2751:2753   */\n      0x29\n        /* \"#utility.yul\":2731:2749   */\n      0x24\n      dup3\n      add\n        /* \"#utility.yul\":2724:2754   */\n      mstore\n        /* \"#utility.yul\":2790:2824   */\n      0x596f7520617265206e6f7420746865206f776e6572206f722070726976617465\n        /* \"#utility.yul\":2770:2788   */\n      0x44\n      dup3\n      add\n        /* \"#utility.yul\":2763:2825   */\n      mstore\n      shl(0xb9, 0x10383937bb34b232b9)\n        /* \"#utility.yul\":2841:2859   */\n      0x64\n      dup3\n      add\n        /* \"#utility.yul\":2834:2873   */\n      mstore\n        /* \"#utility.yul\":2890:2909   */\n      0x84\n      add\n        /* \"Documents/GitHub/contract-token-cryptoMonster/backend/shared/helpers/modifireFunc.sol\":818:978  require(structUsers_[msg.sender].role == Role.SYSTEM_OWNER || structUsers_[msg.sender].role == Role.SYSTEM_PRIVATE, \"You are not the owner or private provider\") */\n      tag_53\n        /* \"#utility.yul\":2510:2915   */\n      jump\n        /* \"Documents/GitHub/contract-token-cryptoMonster/backend/shared/helpers/modifireFunc.sol\":818:978  require(structUsers_[msg.sender].role == Role.SYSTEM_OWNER || structUsers_[msg.sender].role == Role.SYSTEM_PRIVATE, \"You are not the owner or private provider\") */\n    tag_72:\n        /* \"Documents/GitHub/contract-token-cryptoMonster/backend/shared/helpers/helpresFunc.sol\":536:545  whiteList */\n      0x07\n        /* \"Documents/GitHub/contract-token-cryptoMonster/backend/shared/helpers/helpresFunc.sol\":529:546  return(whiteList) */\n      dup1\n      sload\n      dup1\n      0x20\n      mul\n      0x20\n      add\n      mload(0x40)\n      swap1\n      dup2\n      add\n      0x40\n      mstore\n      dup1\n      swap3\n      swap2\n      swap1\n      dup2\n      dup2\n      mstore\n      0x20\n      add\n      dup3\n      dup1\n      sload\n      dup1\n      iszero\n      tag_56\n      jumpi\n      0x20\n      mul\n      dup3\n      add\n      swap2\n      swap1\n      0x00\n      mstore\n      keccak256(0x00, 0x20)\n      swap1\n      dup2\n      sload\n      sub(shl(0xa0, 0x01), 0x01)\n      and\n      dup2\n      mstore\n      0x01\n      swap1\n      swap2\n      add\n      swap1\n      0x20\n      add\n      dup1\n      dup4\n      gt\n      tag_57\n      jumpi\n      pop\n      pop\n      pop\n      pop\n      pop\n      swap1\n      pop\n        /* \"Documents/GitHub/contract-token-cryptoMonster/backend/shared/helpers/helpresFunc.sol\":426:554  function get_whiteList() public onlyOwnerAndPrivateProvider view returns (address[] memory) {\r... */\n      swap1\n      jump\t// out\n        /* \"#utility.yul\":14:300   */\n    tag_17:\n        /* \"#utility.yul\":73:79   */\n      0x00\n        /* \"#utility.yul\":126:128   */\n      0x20\n        /* \"#utility.yul\":114:123   */\n      dup3\n        /* \"#utility.yul\":105:112   */\n      dup5\n        /* \"#utility.yul\":101:124   */\n      sub\n        /* \"#utility.yul\":97:129   */\n      slt\n        /* \"#utility.yul\":94:146   */\n      iszero\n      tag_80\n      jumpi\n        /* \"#utility.yul\":142:143   */\n      0x00\n        /* \"#utility.yul\":139:140   */\n      dup1\n        /* \"#utility.yul\":132:144   */\n      revert\n        /* \"#utility.yul\":94:146   */\n    tag_80:\n        /* \"#utility.yul\":168:191   */\n      dup2\n      calldataload\n      sub(shl(0xa0, 0x01), 0x01)\n        /* \"#utility.yul\":220:251   */\n      dup2\n      and\n        /* \"#utility.yul\":210:252   */\n      dup2\n      eq\n        /* \"#utility.yul\":200:270   */\n      tag_81\n      jumpi\n        /* \"#utility.yul\":266:267   */\n      0x00\n        /* \"#utility.yul\":263:264   */\n      dup1\n        /* \"#utility.yul\":256:268   */\n      revert\n        /* \"#utility.yul\":200:270   */\n    tag_81:\n        /* \"#utility.yul\":289:294   */\n      swap4\n        /* \"#utility.yul\":14:300   */\n      swap3\n      pop\n      pop\n      pop\n      jump\t// out\n        /* \"#utility.yul\":305:1227   */\n    tag_30:\n        /* \"#utility.yul\":374:380   */\n      0x00\n        /* \"#utility.yul\":427:429   */\n      0x20\n        /* \"#utility.yul\":415:424   */\n      dup3\n        /* \"#utility.yul\":406:413   */\n      dup5\n        /* \"#utility.yul\":402:425   */\n      sub\n        /* \"#utility.yul\":398:430   */\n      slt\n        /* \"#utility.yul\":395:447   */\n      iszero\n      tag_83\n      jumpi\n        /* \"#utility.yul\":443:444   */\n      0x00\n        /* \"#utility.yul\":440:441   */\n      dup1\n        /* \"#utility.yul\":433:445   */\n      revert\n        /* \"#utility.yul\":395:447   */\n    tag_83:\n        /* \"#utility.yul\":470:493   */\n      dup2\n      calldataload\n      sub(shl(0x40, 0x01), 0x01)\n        /* \"#utility.yul\":542:556   */\n      dup1\n      dup3\n      gt\n        /* \"#utility.yul\":539:573   */\n      iszero\n      tag_84\n      jumpi\n        /* \"#utility.yul\":569:570   */\n      0x00\n        /* \"#utility.yul\":566:567   */\n      dup1\n        /* \"#utility.yul\":559:571   */\n      revert\n        /* \"#utility.yul\":539:573   */\n    tag_84:\n        /* \"#utility.yul\":607:613   */\n      dup2\n        /* \"#utility.yul\":596:605   */\n      dup5\n        /* \"#utility.yul\":592:614   */\n      add\n        /* \"#utility.yul\":582:614   */\n      swap2\n      pop\n        /* \"#utility.yul\":652:659   */\n      dup5\n        /* \"#utility.yul\":645:649   */\n      0x1f\n        /* \"#utility.yul\":641:643   */\n      dup4\n        /* \"#utility.yul\":637:650   */\n      add\n        /* \"#utility.yul\":633:660   */\n      slt\n        /* \"#utility.yul\":623:678   */\n      tag_85\n      jumpi\n        /* \"#utility.yul\":674:675   */\n      0x00\n        /* \"#utility.yul\":671:672   */\n      dup1\n        /* \"#utility.yul\":664:676   */\n      revert\n        /* \"#utility.yul\":623:678   */\n    tag_85:\n        /* \"#utility.yul\":710:712   */\n      dup2\n        /* \"#utility.yul\":697:713   */\n      calldataload\n        /* \"#utility.yul\":732:734   */\n      dup2\n        /* \"#utility.yul\":728:730   */\n      dup2\n        /* \"#utility.yul\":725:735   */\n      gt\n        /* \"#utility.yul\":722:758   */\n      iszero\n      tag_87\n      jumpi\n        /* \"#utility.yul\":738:756   */\n      tag_87\n      tag_88\n      jump\t// in\n    tag_87:\n        /* \"#utility.yul\":813:815   */\n      0x40\n        /* \"#utility.yul\":807:816   */\n      mload\n        /* \"#utility.yul\":781:783   */\n      0x1f\n        /* \"#utility.yul\":867:880   */\n      dup3\n      add\n      not(0x1f)\n        /* \"#utility.yul\":863:885   */\n      swap1\n      dup2\n      and\n        /* \"#utility.yul\":887:889   */\n      0x3f\n        /* \"#utility.yul\":859:890   */\n      add\n        /* \"#utility.yul\":855:895   */\n      and\n        /* \"#utility.yul\":843:896   */\n      dup2\n      add\n      swap1\n        /* \"#utility.yul\":911:929   */\n      dup4\n      dup3\n      gt\n        /* \"#utility.yul\":931:953   */\n      dup2\n      dup4\n      lt\n        /* \"#utility.yul\":908:954   */\n      or\n        /* \"#utility.yul\":905:977   */\n      iszero\n      tag_90\n      jumpi\n        /* \"#utility.yul\":957:975   */\n      tag_90\n      tag_88\n      jump\t// in\n    tag_90:\n        /* \"#utility.yul\":997:1007   */\n      dup2\n        /* \"#utility.yul\":993:995   */\n      0x40\n        /* \"#utility.yul\":986:1008   */\n      mstore\n        /* \"#utility.yul\":1032:1034   */\n      dup3\n        /* \"#utility.yul\":1024:1030   */\n      dup2\n        /* \"#utility.yul\":1017:1035   */\n      mstore\n        /* \"#utility.yul\":1072:1079   */\n      dup8\n        /* \"#utility.yul\":1067:1069   */\n      0x20\n        /* \"#utility.yul\":1062:1064   */\n      dup5\n        /* \"#utility.yul\":1058:1060   */\n      dup8\n        /* \"#utility.yul\":1054:1065   */\n      add\n        /* \"#utility.yul\":1050:1070   */\n      add\n        /* \"#utility.yul\":1047:1080   */\n      gt\n        /* \"#utility.yul\":1044:1097   */\n      iszero\n      tag_91\n      jumpi\n        /* \"#utility.yul\":1093:1094   */\n      0x00\n        /* \"#utility.yul\":1090:1091   */\n      dup1\n        /* \"#utility.yul\":1083:1095   */\n      revert\n        /* \"#utility.yul\":1044:1097   */\n    tag_91:\n        /* \"#utility.yul\":1149:1151   */\n      dup3\n        /* \"#utility.yul\":1144:1146   */\n      0x20\n        /* \"#utility.yul\":1140:1142   */\n      dup7\n        /* \"#utility.yul\":1136:1147   */\n      add\n        /* \"#utility.yul\":1131:1133   */\n      0x20\n        /* \"#utility.yul\":1123:1129   */\n      dup4\n        /* \"#utility.yul\":1119:1134   */\n      add\n        /* \"#utility.yul\":1106:1152   */\n      calldatacopy\n        /* \"#utility.yul\":1194:1195   */\n      0x00\n        /* \"#utility.yul\":1172:1187   */\n      swap3\n      dup2\n      add\n        /* \"#utility.yul\":1189:1191   */\n      0x20\n        /* \"#utility.yul\":1168:1192   */\n      add\n        /* \"#utility.yul\":1161:1196   */\n      swap3\n      swap1\n      swap3\n      mstore\n      pop\n        /* \"#utility.yul\":1176:1182   */\n      swap6\n        /* \"#utility.yul\":305:1227   */\n      swap5\n      pop\n      pop\n      pop\n      pop\n      pop\n      jump\t// out\n        /* \"#utility.yul\":1232:1660   */\n    tag_60:\n        /* \"#utility.yul\":1363:1366   */\n      0x00\n        /* \"#utility.yul\":1401:1407   */\n      dup3\n        /* \"#utility.yul\":1395:1408   */\n      mload\n        /* \"#utility.yul\":1426:1427   */\n      0x00\n        /* \"#utility.yul\":1436:1565   */\n    tag_93:\n        /* \"#utility.yul\":1450:1456   */\n      dup2\n        /* \"#utility.yul\":1447:1448   */\n      dup2\n        /* \"#utility.yul\":1444:1457   */\n      lt\n        /* \"#utility.yul\":1436:1565   */\n      iszero\n      tag_95\n      jumpi\n        /* \"#utility.yul\":1548:1552   */\n      0x20\n        /* \"#utility.yul\":1532:1546   */\n      dup2\n      dup7\n      add\n        /* \"#utility.yul\":1528:1553   */\n      dup2\n      add\n        /* \"#utility.yul\":1522:1554   */\n      mload\n        /* \"#utility.yul\":1509:1520   */\n      dup6\n      dup4\n      add\n        /* \"#utility.yul\":1502:1555   */\n      mstore\n        /* \"#utility.yul\":1465:1477   */\n      add\n        /* \"#utility.yul\":1436:1565   */\n      jump(tag_93)\n    tag_95:\n        /* \"#utility.yul\":1583:1589   */\n      dup2\n        /* \"#utility.yul\":1580:1581   */\n      dup2\n        /* \"#utility.yul\":1577:1590   */\n      gt\n        /* \"#utility.yul\":1574:1622   */\n      iszero\n      tag_96\n      jumpi\n        /* \"#utility.yul\":1618:1619   */\n      0x00\n        /* \"#utility.yul\":1609:1615   */\n      dup3\n        /* \"#utility.yul\":1604:1607   */\n      dup6\n        /* \"#utility.yul\":1600:1616   */\n      add\n        /* \"#utility.yul\":1593:1620   */\n      mstore\n        /* \"#utility.yul\":1574:1622   */\n    tag_96:\n      pop\n        /* \"#utility.yul\":1638:1654   */\n      swap2\n      swap1\n      swap2\n      add\n      swap3\n        /* \"#utility.yul\":1232:1660   */\n      swap2\n      pop\n      pop\n      jump\t// out\n        /* \"#utility.yul\":1665:2323   */\n    tag_27:\n        /* \"#utility.yul\":1836:1838   */\n      0x20\n        /* \"#utility.yul\":1888:1909   */\n      dup1\n      dup3\n      mstore\n        /* \"#utility.yul\":1958:1971   */\n      dup3\n      mload\n        /* \"#utility.yul\":1861:1879   */\n      dup3\n      dup3\n      add\n        /* \"#utility.yul\":1980:2002   */\n      dup2\n      swap1\n      mstore\n        /* \"#utility.yul\":1807:1811   */\n      0x00\n      swap2\n        /* \"#utility.yul\":1836:1838   */\n      swap1\n        /* \"#utility.yul\":2059:2074   */\n      dup5\n      dup3\n      add\n      swap1\n        /* \"#utility.yul\":2033:2035   */\n      0x40\n        /* \"#utility.yul\":2018:2036   */\n      dup6\n      add\n      swap1\n        /* \"#utility.yul\":1807:1811   */\n      dup5\n        /* \"#utility.yul\":2102:2297   */\n    tag_98:\n        /* \"#utility.yul\":2116:2122   */\n      dup2\n        /* \"#utility.yul\":2113:2114   */\n      dup2\n        /* \"#utility.yul\":2110:2123   */\n      lt\n        /* \"#utility.yul\":2102:2297   */\n      iszero\n      tag_100\n      jumpi\n        /* \"#utility.yul\":2181:2194   */\n      dup4\n      mload\n      sub(shl(0xa0, 0x01), 0x01)\n        /* \"#utility.yul\":2177:2216   */\n      and\n        /* \"#utility.yul\":2165:2217   */\n      dup4\n      mstore\n        /* \"#utility.yul\":2272:2287   */\n      swap3\n      dup5\n      add\n      swap3\n        /* \"#utility.yul\":2237:2249   */\n      swap2\n      dup5\n      add\n      swap2\n        /* \"#utility.yul\":2213:2214   */\n      0x01\n        /* \"#utility.yul\":2131:2140   */\n      add\n        /* \"#utility.yul\":2102:2297   */\n      jump(tag_98)\n    tag_100:\n      pop\n        /* \"#utility.yul\":2314:2317   */\n      swap1\n      swap7\n        /* \"#utility.yul\":1665:2323   */\n      swap6\n      pop\n      pop\n      pop\n      pop\n      pop\n      pop\n      jump\t// out\n        /* \"#utility.yul\":3445:3572   */\n    tag_49:\n        /* \"#utility.yul\":3506:3516   */\n      0x4e487b71\n        /* \"#utility.yul\":3501:3504   */\n      0xe0\n        /* \"#utility.yul\":3497:3517   */\n      shl\n        /* \"#utility.yul\":3494:3495   */\n      0x00\n        /* \"#utility.yul\":3487:3518   */\n      mstore\n        /* \"#utility.yul\":3537:3541   */\n      0x21\n        /* \"#utility.yul\":3534:3535   */\n      0x04\n        /* \"#utility.yul\":3527:3542   */\n      mstore\n        /* \"#utility.yul\":3561:3565   */\n      0x24\n        /* \"#utility.yul\":3558:3559   */\n      0x00\n        /* \"#utility.yul\":3551:3566   */\n      revert\n        /* \"#utility.yul\":3577:3704   */\n    tag_88:\n        /* \"#utility.yul\":3638:3648   */\n      0x4e487b71\n        /* \"#utility.yul\":3633:3636   */\n      0xe0\n        /* \"#utility.yul\":3629:3649   */\n      shl\n        /* \"#utility.yul\":3626:3627   */\n      0x00\n        /* \"#utility.yul\":3619:3650   */\n      mstore\n        /* \"#utility.yul\":3669:3673   */\n      0x41\n        /* \"#utility.yul\":3666:3667   */\n      0x04\n        /* \"#utility.yul\":3659:3674   */\n      mstore\n        /* \"#utility.yul\":3693:3697   */\n      0x24\n        /* \"#utility.yul\":3690:3691   */\n      0x00\n        /* \"#utility.yul\":3683:3698   */\n      revert\n\n    auxdata: 0xa2646970667358221220164c6e5ad9d9898237cc3c473b233a3aac3385bd7161a112b29f23d7ba21cad064736f6c63430008070033\n}\n",
				"bytecode": {
					"linkReferences": {},
					"object": "6080604052632cb41780600255620186a060035534801561001f57600080fd5b5061052e8061002f6000396000f3fe608060405234801561001057600080fd5b50600436106100785760003560e01c80630761c8b91461007d5780632599d6d01461009957806372f0d72b146100c55780637f89128f146100f15780638e4f8c6b14610106578063948942ad14610119578063b06cdc1214610122578063c10e39111461014e575b600080fd5b61008660025481565b6040519081526020015b60405180910390f35b6100866100a7366004610364565b6001600160a01b031660009081526020819052604090206004015490565b6100866100d3366004610364565b6001600160a01b031660009081526020819052604090206006015490565b6100f9610156565b604051610090919061047f565b610086610114366004610394565b610221565b61008660035481565b610086610130366004610364565b6001600160a01b031660009081526020819052604090206005015490565b6100f9610251565b606060003360009081526020819052604090205460ff16600481111561017e5761017e6104cc565b146101c15760405162461bcd60e51b815260206004820152600e60248201526d2cb7bab9103737ba1030b236b4b760911b60448201526064015b60405180910390fd5b600880548060200260200160405190810160405280929190818152602001828054801561021757602002820191906000526020600020905b81546001600160a01b031681526001909101906020018083116101f9575b5050505050905090565b6000816040516020016102349190610444565b604051602081830303815290604052805190602001209050919050565b606060003360009081526020819052604090205460ff166004811115610279576102796104cc565b14806102a8575060023360009081526020819052604090205460ff1660048111156102a6576102a66104cc565b145b6103065760405162461bcd60e51b815260206004820152602960248201527f596f7520617265206e6f7420746865206f776e6572206f72207072697661746560448201526810383937bb34b232b960b91b60648201526084016101b8565b6007805480602002602001604051908101604052809291908181526020018280548015610217576020028201919060005260206000209081546001600160a01b031681526001909101906020018083116101f9575050505050905090565b60006020828403121561037657600080fd5b81356001600160a01b038116811461038d57600080fd5b9392505050565b6000602082840312156103a657600080fd5b81356001600160401b03808211156103bd57600080fd5b818401915084601f8301126103d157600080fd5b8135818111156103e3576103e36104e2565b604051601f8201601f19908116603f0116810190838211818310171561040b5761040b6104e2565b8160405282815287602084870101111561042457600080fd5b826020860160208301376000928101602001929092525095945050505050565b6000825160005b81811015610465576020818601810151858301520161044b565b81811115610474576000828501525b509190910192915050565b6020808252825182820181905260009190848201906040850190845b818110156104c05783516001600160a01b03168352928401929184019160010161049b565b50909695505050505050565b634e487b7160e01b600052602160045260246000fd5b634e487b7160e01b600052604160045260246000fdfea2646970667358221220164c6e5ad9d9898237cc3c473b233a3aac3385bd7161a112b29f23d7ba21cad064736f6c63430008070033",
					"opcodes": "PUSH1 0x80 PUSH1 0x40 MSTORE PUSH4 0x2CB41780 PUSH1 0x2 SSTORE PUSH3 0x186A0 PUSH1 0x3 SSTORE CALLVALUE DUP1 ISZERO PUSH2 0x1F JUMPI PUSH1 0x0 DUP1 REVERT JUMPDEST POP PUSH2 0x52E DUP1 PUSH2 0x2F PUSH1 0x0 CODECOPY PUSH1 0x0 RETURN INVALID PUSH1 0x80 PUSH1 0x40 MSTORE CALLVALUE DUP1 ISZERO PUSH2 0x10 JUMPI PUSH1 0x0 DUP1 REVERT JUMPDEST POP PUSH1 0x4 CALLDATASIZE LT PUSH2 0x78 JUMPI PUSH1 0x0 CALLDATALOAD PUSH1 0xE0 SHR DUP1 PUSH4 0x761C8B9 EQ PUSH2 0x7D JUMPI DUP1 PUSH4 0x2599D6D0 EQ PUSH2 0x99 JUMPI DUP1 PUSH4 0x72F0D72B EQ PUSH2 0xC5 JUMPI DUP1 PUSH4 0x7F89128F EQ PUSH2 0xF1 JUMPI DUP1 PUSH4 0x8E4F8C6B EQ PUSH2 0x106 JUMPI DUP1 PUSH4 0x948942AD EQ PUSH2 0x119 JUMPI DUP1 PUSH4 0xB06CDC12 EQ PUSH2 0x122 JUMPI DUP1 PUSH4 0xC10E3911 EQ PUSH2 0x14E JUMPI JUMPDEST PUSH1 0x0 DUP1 REVERT JUMPDEST PUSH2 0x86 PUSH1 0x2 SLOAD DUP2 JUMP JUMPDEST PUSH1 0x40 MLOAD SWAP1 DUP2 MSTORE PUSH1 0x20 ADD JUMPDEST PUSH1 0x40 MLOAD DUP1 SWAP2 SUB SWAP1 RETURN JUMPDEST PUSH2 0x86 PUSH2 0xA7 CALLDATASIZE PUSH1 0x4 PUSH2 0x364 JUMP JUMPDEST PUSH1 0x1 PUSH1 0x1 PUSH1 0xA0 SHL SUB AND PUSH1 0x0 SWAP1 DUP2 MSTORE PUSH1 0x20 DUP2 SWAP1 MSTORE PUSH1 0x40 SWAP1 KECCAK256 PUSH1 0x4 ADD SLOAD SWAP1 JUMP JUMPDEST PUSH2 0x86 PUSH2 0xD3 CALLDATASIZE PUSH1 0x4 PUSH2 0x364 JUMP JUMPDEST PUSH1 0x1 PUSH1 0x1 PUSH1 0xA0 SHL SUB AND PUSH1 0x0 SWAP1 DUP2 MSTORE PUSH1 0x20 DUP2 SWAP1 MSTORE PUSH1 0x40 SWAP1 KECCAK256 PUSH1 0x6 ADD SLOAD SWAP1 JUMP JUMPDEST PUSH2 0xF9 PUSH2 0x156 JUMP JUMPDEST PUSH1 0x40 MLOAD PUSH2 0x90 SWAP2 SWAP1 PUSH2 0x47F JUMP JUMPDEST PUSH2 0x86 PUSH2 0x114 CALLDATASIZE PUSH1 0x4 PUSH2 0x394 JUMP JUMPDEST PUSH2 0x221 JUMP JUMPDEST PUSH2 0x86 PUSH1 0x3 SLOAD DUP2 JUMP JUMPDEST PUSH2 0x86 PUSH2 0x130 CALLDATASIZE PUSH1 0x4 PUSH2 0x364 JUMP JUMPDEST PUSH1 0x1 PUSH1 0x1 PUSH1 0xA0 SHL SUB AND PUSH1 0x0 SWAP1 DUP2 MSTORE PUSH1 0x20 DUP2 SWAP1 MSTORE PUSH1 0x40 SWAP1 KECCAK256 PUSH1 0x5 ADD SLOAD SWAP1 JUMP JUMPDEST PUSH2 0xF9 PUSH2 0x251 JUMP JUMPDEST PUSH1 0x60 PUSH1 0x0 CALLER PUSH1 0x0 SWAP1 DUP2 MSTORE PUSH1 0x20 DUP2 SWAP1 MSTORE PUSH1 0x40 SWAP1 KECCAK256 SLOAD PUSH1 0xFF AND PUSH1 0x4 DUP2 GT ISZERO PUSH2 0x17E JUMPI PUSH2 0x17E PUSH2 0x4CC JUMP JUMPDEST EQ PUSH2 0x1C1 JUMPI PUSH1 0x40 MLOAD PUSH3 0x461BCD PUSH1 0xE5 SHL DUP2 MSTORE PUSH1 0x20 PUSH1 0x4 DUP3 ADD MSTORE PUSH1 0xE PUSH1 0x24 DUP3 ADD MSTORE PUSH14 0x2CB7BAB9103737BA1030B236B4B7 PUSH1 0x91 SHL PUSH1 0x44 DUP3 ADD MSTORE PUSH1 0x64 ADD JUMPDEST PUSH1 0x40 MLOAD DUP1 SWAP2 SUB SWAP1 REVERT JUMPDEST PUSH1 0x8 DUP1 SLOAD DUP1 PUSH1 0x20 MUL PUSH1 0x20 ADD PUSH1 0x40 MLOAD SWAP1 DUP2 ADD PUSH1 0x40 MSTORE DUP1 SWAP3 SWAP2 SWAP1 DUP2 DUP2 MSTORE PUSH1 0x20 ADD DUP3 DUP1 SLOAD DUP1 ISZERO PUSH2 0x217 JUMPI PUSH1 0x20 MUL DUP3 ADD SWAP2 SWAP1 PUSH1 0x0 MSTORE PUSH1 0x20 PUSH1 0x0 KECCAK256 SWAP1 JUMPDEST DUP2 SLOAD PUSH1 0x1 PUSH1 0x1 PUSH1 0xA0 SHL SUB AND DUP2 MSTORE PUSH1 0x1 SWAP1 SWAP2 ADD SWAP1 PUSH1 0x20 ADD DUP1 DUP4 GT PUSH2 0x1F9 JUMPI JUMPDEST POP POP POP POP POP SWAP1 POP SWAP1 JUMP JUMPDEST PUSH1 0x0 DUP2 PUSH1 0x40 MLOAD PUSH1 0x20 ADD PUSH2 0x234 SWAP2 SWAP1 PUSH2 0x444 JUMP JUMPDEST PUSH1 0x40 MLOAD PUSH1 0x20 DUP2 DUP4 SUB SUB DUP2 MSTORE SWAP1 PUSH1 0x40 MSTORE DUP1 MLOAD SWAP1 PUSH1 0x20 ADD KECCAK256 SWAP1 POP SWAP2 SWAP1 POP JUMP JUMPDEST PUSH1 0x60 PUSH1 0x0 CALLER PUSH1 0x0 SWAP1 DUP2 MSTORE PUSH1 0x20 DUP2 SWAP1 MSTORE PUSH1 0x40 SWAP1 KECCAK256 SLOAD PUSH1 0xFF AND PUSH1 0x4 DUP2 GT ISZERO PUSH2 0x279 JUMPI PUSH2 0x279 PUSH2 0x4CC JUMP JUMPDEST EQ DUP1 PUSH2 0x2A8 JUMPI POP PUSH1 0x2 CALLER PUSH1 0x0 SWAP1 DUP2 MSTORE PUSH1 0x20 DUP2 SWAP1 MSTORE PUSH1 0x40 SWAP1 KECCAK256 SLOAD PUSH1 0xFF AND PUSH1 0x4 DUP2 GT ISZERO PUSH2 0x2A6 JUMPI PUSH2 0x2A6 PUSH2 0x4CC JUMP JUMPDEST EQ JUMPDEST PUSH2 0x306 JUMPI PUSH1 0x40 MLOAD PUSH3 0x461BCD PUSH1 0xE5 SHL DUP2 MSTORE PUSH1 0x20 PUSH1 0x4 DUP3 ADD MSTORE PUSH1 0x29 PUSH1 0x24 DUP3 ADD MSTORE PUSH32 0x596F7520617265206E6F7420746865206F776E6572206F722070726976617465 PUSH1 0x44 DUP3 ADD MSTORE PUSH9 0x10383937BB34B232B9 PUSH1 0xB9 SHL PUSH1 0x64 DUP3 ADD MSTORE PUSH1 0x84 ADD PUSH2 0x1B8 JUMP JUMPDEST PUSH1 0x7 DUP1 SLOAD DUP1 PUSH1 0x20 MUL PUSH1 0x20 ADD PUSH1 0x40 MLOAD SWAP1 DUP2 ADD PUSH1 0x40 MSTORE DUP1 SWAP3 SWAP2 SWAP1 DUP2 DUP2 MSTORE PUSH1 0x20 ADD DUP3 DUP1 SLOAD DUP1 ISZERO PUSH2 0x217 JUMPI PUSH1 0x20 MUL DUP3 ADD SWAP2 SWAP1 PUSH1 0x0 MSTORE PUSH1 0x20 PUSH1 0x0 KECCAK256 SWAP1 DUP2 SLOAD PUSH1 0x1 PUSH1 0x1 PUSH1 0xA0 SHL SUB AND DUP2 MSTORE PUSH1 0x1 SWAP1 SWAP2 ADD SWAP1 PUSH1 0x20 ADD DUP1 DUP4 GT PUSH2 0x1F9 JUMPI POP POP POP POP POP SWAP1 POP SWAP1 JUMP JUMPDEST PUSH1 0x0 PUSH1 0x20 DUP3 DUP5 SUB SLT ISZERO PUSH2 0x376 JUMPI PUSH1 0x0 DUP1 REVERT JUMPDEST DUP2 CALLDATALOAD PUSH1 0x1 PUSH1 0x1 PUSH1 0xA0 SHL SUB DUP2 AND DUP2 EQ PUSH2 0x38D JUMPI PUSH1 0x0 DUP1 REVERT JUMPDEST SWAP4 SWAP3 POP POP POP JUMP JUMPDEST PUSH1 0x0 PUSH1 0x20 DUP3 DUP5 SUB SLT ISZERO PUSH2 0x3A6 JUMPI PUSH1 0x0 DUP1 REVERT JUMPDEST DUP2 CALLDATALOAD PUSH1 0x1 PUSH1 0x1 PUSH1 0x40 SHL SUB DUP1 DUP3 GT ISZERO PUSH2 0x3BD JUMPI PUSH1 0x0 DUP1 REVERT JUMPDEST DUP2 DUP5 ADD SWAP2 POP DUP5 PUSH1 0x1F DUP4 ADD SLT PUSH2 0x3D1 JUMPI PUSH1 0x0 DUP1 REVERT JUMPDEST DUP2 CALLDATALOAD DUP2 DUP2 GT ISZERO PUSH2 0x3E3 JUMPI PUSH2 0x3E3 PUSH2 0x4E2 JUMP JUMPDEST PUSH1 0x40 MLOAD PUSH1 0x1F DUP3 ADD PUSH1 0x1F NOT SWAP1 DUP2 AND PUSH1 0x3F ADD AND DUP2 ADD SWAP1 DUP4 DUP3 GT DUP2 DUP4 LT OR ISZERO PUSH2 0x40B JUMPI PUSH2 0x40B PUSH2 0x4E2 JUMP JUMPDEST DUP2 PUSH1 0x40 MSTORE DUP3 DUP2 MSTORE DUP8 PUSH1 0x20 DUP5 DUP8 ADD ADD GT ISZERO PUSH2 0x424 JUMPI PUSH1 0x0 DUP1 REVERT JUMPDEST DUP3 PUSH1 0x20 DUP7 ADD PUSH1 0x20 DUP4 ADD CALLDATACOPY PUSH1 0x0 SWAP3 DUP2 ADD PUSH1 0x20 ADD SWAP3 SWAP1 SWAP3 MSTORE POP SWAP6 SWAP5 POP POP POP POP POP JUMP JUMPDEST PUSH1 0x0 DUP3 MLOAD PUSH1 0x0 JUMPDEST DUP2 DUP2 LT ISZERO PUSH2 0x465 JUMPI PUSH1 0x20 DUP2 DUP7 ADD DUP2 ADD MLOAD DUP6 DUP4 ADD MSTORE ADD PUSH2 0x44B JUMP JUMPDEST DUP2 DUP2 GT ISZERO PUSH2 0x474 JUMPI PUSH1 0x0 DUP3 DUP6 ADD MSTORE JUMPDEST POP SWAP2 SWAP1 SWAP2 ADD SWAP3 SWAP2 POP POP JUMP JUMPDEST PUSH1 0x20 DUP1 DUP3 MSTORE DUP3 MLOAD DUP3 DUP3 ADD DUP2 SWAP1 MSTORE PUSH1 0x0 SWAP2 SWAP1 DUP5 DUP3 ADD SWAP1 PUSH1 0x40 DUP6 ADD SWAP1 DUP5 JUMPDEST DUP2 DUP2 LT ISZERO PUSH2 0x4C0 JUMPI DUP4 MLOAD PUSH1 0x1 PUSH1 0x1 PUSH1 0xA0 SHL SUB AND DUP4 MSTORE SWAP3 DUP5 ADD SWAP3 SWAP2 DUP5 ADD SWAP2 PUSH1 0x1 ADD PUSH2 0x49B JUMP JUMPDEST POP SWAP1 SWAP7 SWAP6 POP POP POP POP POP POP JUMP JUMPDEST PUSH4 0x4E487B71 PUSH1 0xE0 SHL PUSH1 0x0 MSTORE PUSH1 0x21 PUSH1 0x4 MSTORE PUSH1 0x24 PUSH1 0x0 REVERT JUMPDEST PUSH4 0x4E487B71 PUSH1 0xE0 SHL PUSH1 0x0 MSTORE PUSH1 0x41 PUSH1 0x4 MSTORE PUSH1 0x24 PUSH1 0x0 REVERT INVALID LOG2 PUSH5 0x6970667358 0x22 SLT KECCAK256 AND 0x4C PUSH15 0x5AD9D9898237CC3C473B233A3AAC33 DUP6 0xBD PUSH18 0x61A112B29F23D7BA21CAD064736F6C634300 ADDMOD SMOD STOP CALLER "
				},
				"gasEstimates": {
					"creation": {
						"codeDepositCost": "265200",
						"executionCost": "44518",
						"totalCost": "309718"
					},
					"external": {
						"getBalancePrivateToken(address)": "2610",
						"getBalancePublicToken(address)": "2522",
						"getBalanceSeedToken(address)": "2500",
						"get_blackList()": "infinite",
						"get_keccak256(string)": "infinite",
						"get_whiteList()": "infinite",
						"tokenAmount_()": "2372",
						"tokenPrice_()": "2262"
					}
				},
				"methodIdentifiers": {
					"getBalancePrivateToken(address)": "b06cdc12",
					"getBalancePublicToken(address)": "72f0d72b",
					"getBalanceSeedToken(address)": "2599d6d0",
					"get_blackList()": "7f89128f",
					"get_keccak256(string)": "8e4f8c6b",
					"get_whiteList()": "c10e3911",
					"tokenAmount_()": "948942ad",
					"tokenPrice_()": "0761c8b9"
				}
			},
			"storageLayout": {
				"storage": [
					{
						"astId": 219,
						"contract": "Documents/GitHub/contract-token-cryptoMonster/backend/shared/helpers/helpresFunc.sol:helpresFunc",
						"label": "structUsers_",
						"offset": 0,
						"slot": "0",
						"type": "t_mapping(t_address,t_struct(structUser)214_storage)"
					},
					{
						"astId": 225,
						"contract": "Documents/GitHub/contract-token-cryptoMonster/backend/shared/helpers/helpresFunc.sol:helpresFunc",
						"label": "allowed",
						"offset": 0,
						"slot": "1",
						"type": "t_mapping(t_address,t_mapping(t_address,t_uint256))"
					},
					{
						"astId": 228,
						"contract": "Documents/GitHub/contract-token-cryptoMonster/backend/shared/helpers/helpresFunc.sol:helpresFunc",
						"label": "tokenPrice_",
						"offset": 0,
						"slot": "2",
						"type": "t_uint256"
					},
					{
						"astId": 231,
						"contract": "Documents/GitHub/contract-token-cryptoMonster/backend/shared/helpers/helpresFunc.sol:helpresFunc",
						"label": "tokenAmount_",
						"offset": 0,
						"slot": "3",
						"type": "t_uint256"
					},
					{
						"astId": 250,
						"contract": "Documents/GitHub/contract-token-cryptoMonster/backend/shared/helpers/helpresFunc.sol:helpresFunc",
						"label": "structPhases_",
						"offset": 0,
						"slot": "4",
						"type": "t_mapping(t_address,t_struct(structPhase)245_storage)"
					},
					{
						"astId": 268,
						"contract": "Documents/GitHub/contract-token-cryptoMonster/backend/shared/helpers/helpresFunc.sol:helpresFunc",
						"label": "strucApplications_",
						"offset": 0,
						"slot": "5",
						"type": "t_mapping(t_address,t_struct(structApplication)263_storage)"
					},
					{
						"astId": 271,
						"contract": "Documents/GitHub/contract-token-cryptoMonster/backend/shared/helpers/helpresFunc.sol:helpresFunc",
						"label": "structApplicationsAmountAdr",
						"offset": 0,
						"slot": "6",
						"type": "t_array(t_address)dyn_storage"
					},
					{
						"astId": 274,
						"contract": "Documents/GitHub/contract-token-cryptoMonster/backend/shared/helpers/helpresFunc.sol:helpresFunc",
						"label": "whiteList",
						"offset": 0,
						"slot": "7",
						"type": "t_array(t_address)dyn_storage"
					},
					{
						"astId": 277,
						"contract": "Documents/GitHub/contract-token-cryptoMonster/backend/shared/helpers/helpresFunc.sol:helpresFunc",
						"label": "blackList",
						"offset": 0,
						"slot": "8",
						"type": "t_array(t_address)dyn_storage"
					}
				],
				"types": {
					"t_address": {
						"encoding": "inplace",
						"label": "address",
						"numberOfBytes": "20"
					},
					"t_array(t_address)dyn_storage": {
						"base": "t_address",
						"encoding": "dynamic_array",
						"label": "address[]",
						"numberOfBytes": "32"
					},
					"t_bool": {
						"encoding": "inplace",
						"label": "bool",
						"numberOfBytes": "1"
					},
					"t_bytes32": {
						"encoding": "inplace",
						"label": "bytes32",
						"numberOfBytes": "32"
					},
					"t_enum(Role)198": {
						"encoding": "inplace",
						"label": "enum structures.Role",
						"numberOfBytes": "1"
					},
					"t_mapping(t_address,t_mapping(t_address,t_uint256))": {
						"encoding": "mapping",
						"key": "t_address",
						"label": "mapping(address => mapping(address => uint256))",
						"numberOfBytes": "32",
						"value": "t_mapping(t_address,t_uint256)"
					},
					"t_mapping(t_address,t_struct(structApplication)263_storage)": {
						"encoding": "mapping",
						"key": "t_address",
						"label": "mapping(address => struct structures.structApplication)",
						"numberOfBytes": "32",
						"value": "t_struct(structApplication)263_storage"
					},
					"t_mapping(t_address,t_struct(structPhase)245_storage)": {
						"encoding": "mapping",
						"key": "t_address",
						"label": "mapping(address => struct structures.structPhase)",
						"numberOfBytes": "32",
						"value": "t_struct(structPhase)245_storage"
					},
					"t_mapping(t_address,t_struct(structUser)214_storage)": {
						"encoding": "mapping",
						"key": "t_address",
						"label": "mapping(address => struct structures.structUser)",
						"numberOfBytes": "32",
						"value": "t_struct(structUser)214_storage"
					},
					"t_mapping(t_address,t_uint256)": {
						"encoding": "mapping",
						"key": "t_address",
						"label": "mapping(address => uint256)",
						"numberOfBytes": "32",
						"value": "t_uint256"
					},
					"t_string_storage": {
						"encoding": "bytes",
						"label": "string",
						"numberOfBytes": "32"
					},
					"t_struct(structApplication)263_storage": {
						"encoding": "inplace",
						"label": "struct structures.structApplication",
						"members": [
							{
								"astId": 252,
								"contract": "Documents/GitHub/contract-token-cryptoMonster/backend/shared/helpers/helpresFunc.sol:helpresFunc",
								"label": "name",
								"offset": 0,
								"slot": "0",
								"type": "t_string_storage"
							},
							{
								"astId": 254,
								"contract": "Documents/GitHub/contract-token-cryptoMonster/backend/shared/helpers/helpresFunc.sol:helpresFunc",
								"label": "contactForCommunication",
								"offset": 0,
								"slot": "1",
								"type": "t_string_storage"
							},
							{
								"astId": 256,
								"contract": "Documents/GitHub/contract-token-cryptoMonster/backend/shared/helpers/helpresFunc.sol:helpresFunc",
								"label": "userAdr",
								"offset": 0,
								"slot": "2",
								"type": "t_address"
							},
							{
								"astId": 258,
								"contract": "Documents/GitHub/contract-token-cryptoMonster/backend/shared/helpers/helpresFunc.sol:helpresFunc",
								"label": "status",
								"offset": 20,
								"slot": "2",
								"type": "t_bool"
							},
							{
								"astId": 260,
								"contract": "Documents/GitHub/contract-token-cryptoMonster/backend/shared/helpers/helpresFunc.sol:helpresFunc",
								"label": "reviewed",
								"offset": 21,
								"slot": "2",
								"type": "t_bool"
							},
							{
								"astId": 262,
								"contract": "Documents/GitHub/contract-token-cryptoMonster/backend/shared/helpers/helpresFunc.sol:helpresFunc",
								"label": "exist",
								"offset": 22,
								"slot": "2",
								"type": "t_bool"
							}
						],
						"numberOfBytes": "96"
					},
					"t_struct(structPhase)245_storage": {
						"encoding": "inplace",
						"label": "struct structures.structPhase",
						"members": [
							{
								"astId": 242,
								"contract": "Documents/GitHub/contract-token-cryptoMonster/backend/shared/helpers/helpresFunc.sol:helpresFunc",
								"label": "statusPhase",
								"offset": 0,
								"slot": "0",
								"type": "t_bool"
							},
							{
								"astId": 244,
								"contract": "Documents/GitHub/contract-token-cryptoMonster/backend/shared/helpers/helpresFunc.sol:helpresFunc",
								"label": "reviewed",
								"offset": 1,
								"slot": "0",
								"type": "t_bool"
							}
						],
						"numberOfBytes": "32"
					},
					"t_struct(structUser)214_storage": {
						"encoding": "inplace",
						"label": "struct structures.structUser",
						"members": [
							{
								"astId": 201,
								"contract": "Documents/GitHub/contract-token-cryptoMonster/backend/shared/helpers/helpresFunc.sol:helpresFunc",
								"label": "role",
								"offset": 0,
								"slot": "0",
								"type": "t_enum(Role)198"
							},
							{
								"astId": 203,
								"contract": "Documents/GitHub/contract-token-cryptoMonster/backend/shared/helpers/helpresFunc.sol:helpresFunc",
								"label": "login",
								"offset": 0,
								"slot": "1",
								"type": "t_string_storage"
							},
							{
								"astId": 205,
								"contract": "Documents/GitHub/contract-token-cryptoMonster/backend/shared/helpers/helpresFunc.sol:helpresFunc",
								"label": "password",
								"offset": 0,
								"slot": "2",
								"type": "t_bytes32"
							},
							{
								"astId": 207,
								"contract": "Documents/GitHub/contract-token-cryptoMonster/backend/shared/helpers/helpresFunc.sol:helpresFunc",
								"label": "balance_overall",
								"offset": 0,
								"slot": "3",
								"type": "t_uint256"
							},
							{
								"astId": 209,
								"contract": "Documents/GitHub/contract-token-cryptoMonster/backend/shared/helpers/helpresFunc.sol:helpresFunc",
								"label": "balance_seed",
								"offset": 0,
								"slot": "4",
								"type": "t_uint256"
							},
							{
								"astId": 211,
								"contract": "Documents/GitHub/contract-token-cryptoMonster/backend/shared/helpers/helpresFunc.sol:helpresFunc",
								"label": "balance_private",
								"offset": 0,
								"slot": "5",
								"type": "t_uint256"
							},
							{
								"astId": 213,
								"contract": "Documents/GitHub/contract-token-cryptoMonster/backend/shared/helpers/helpresFunc.sol:helpresFunc",
								"label": "balance_public",
								"offset": 0,
								"slot": "6",
								"type": "t_uint256"
							}
						],
						"numberOfBytes": "224"
					},
					"t_uint256": {
						"encoding": "inplace",
						"label": "uint256",
						"numberOfBytes": "32"
					}
				}
			},
			"userdoc": {
				"kind": "user",
				"methods": {},
				"version": 1
			}
		}
	}
}