{
	"GitHub/contract-token-cryptoMonster/backend/shared/helpers/modifireFunc.sol": {
		"modifireFunc": {
			"abi": [
				{
					"inputs": [
						{
							"internalType": "uint256",
							"name": "",
							"type": "uint256"
						}
					],
					"name": "blackList",
					"outputs": [
						{
							"internalType": "address",
							"name": "",
							"type": "address"
						}
					],
					"stateMutability": "view",
					"type": "function"
				},
				{
					"inputs": [
						{
							"internalType": "address",
							"name": "",
							"type": "address"
						}
					],
					"name": "structUsers_",
					"outputs": [
						{
							"internalType": "enum structures.Role",
							"name": "role",
							"type": "uint8"
						},
						{
							"internalType": "string",
							"name": "login",
							"type": "string"
						},
						{
							"internalType": "bytes32",
							"name": "password",
							"type": "bytes32"
						},
						{
							"internalType": "uint256",
							"name": "balance_overall",
							"type": "uint256"
						},
						{
							"internalType": "uint256",
							"name": "balance_seed",
							"type": "uint256"
						},
						{
							"internalType": "uint256",
							"name": "balance_private",
							"type": "uint256"
						},
						{
							"internalType": "uint256",
							"name": "balance_public",
							"type": "uint256"
						}
					],
					"stateMutability": "view",
					"type": "function"
				},
				{
					"inputs": [],
					"name": "tokenAmount_",
					"outputs": [
						{
							"internalType": "uint256",
							"name": "",
							"type": "uint256"
						}
					],
					"stateMutability": "view",
					"type": "function"
				},
				{
					"inputs": [],
					"name": "tokenPrice_",
					"outputs": [
						{
							"internalType": "uint256",
							"name": "",
							"type": "uint256"
						}
					],
					"stateMutability": "view",
					"type": "function"
				},
				{
					"inputs": [
						{
							"internalType": "uint256",
							"name": "",
							"type": "uint256"
						}
					],
					"name": "whiteList",
					"outputs": [
						{
							"internalType": "address",
							"name": "",
							"type": "address"
						}
					],
					"stateMutability": "view",
					"type": "function"
				}
			],
			"devdoc": {
				"kind": "dev",
				"methods": {},
				"version": 1
			},
			"evm": {
				"assembly": "    /* \"GitHub/contract-token-cryptoMonster/backend/shared/helpers/modifireFunc.sol\":107:1779  contract modifireFunc is structures {\r... */\n  mstore(0x40, 0x80)\n    /* \"GitHub/contract-token-cryptoMonster/backend/shared/lib/structures.sol\":1152:1161  750000000 */\n  0x2cb41780\n    /* \"GitHub/contract-token-cryptoMonster/backend/shared/lib/structures.sol\":1123:1161  uint256 public tokenPrice_ = 750000000 */\n  0x02\n  sstore\n    /* \"GitHub/contract-token-cryptoMonster/backend/shared/lib/structures.sol\":1412:1418  100000 */\n  0x0186a0\n    /* \"GitHub/contract-token-cryptoMonster/backend/shared/lib/structures.sol\":1385:1418  uint public tokenAmount_ = 100000 */\n  0x03\n  sstore\n    /* \"GitHub/contract-token-cryptoMonster/backend/shared/helpers/modifireFunc.sol\":107:1779  contract modifireFunc is structures {\r... */\n  callvalue\n  dup1\n  iszero\n  tag_1\n  jumpi\n  0x00\n  dup1\n  revert\ntag_1:\n  pop\n  dataSize(sub_0)\n  dup1\n  dataOffset(sub_0)\n  0x00\n  codecopy\n  0x00\n  return\nstop\n\nsub_0: assembly {\n        /* \"GitHub/contract-token-cryptoMonster/backend/shared/helpers/modifireFunc.sol\":107:1779  contract modifireFunc is structures {\r... */\n      mstore(0x40, 0x80)\n      callvalue\n      dup1\n      iszero\n      tag_1\n      jumpi\n      0x00\n      dup1\n      revert\n    tag_1:\n      pop\n      jumpi(tag_2, lt(calldatasize, 0x04))\n      shr(0xe0, calldataload(0x00))\n      dup1\n      0x0761c8b9\n      eq\n      tag_3\n      jumpi\n      dup1\n      0x5c475d42\n      eq\n      tag_4\n      jumpi\n      dup1\n      0x709ec8b4\n      eq\n      tag_5\n      jumpi\n      dup1\n      0x948942ad\n      eq\n      tag_6\n      jumpi\n      dup1\n      0xfc837259\n      eq\n      tag_7\n      jumpi\n    tag_2:\n      0x00\n      dup1\n      revert\n        /* \"GitHub/contract-token-cryptoMonster/backend/shared/lib/structures.sol\":1123:1161  uint256 public tokenPrice_ = 750000000 */\n    tag_3:\n      tag_8\n      sload(0x02)\n      dup2\n      jump\n    tag_8:\n      mload(0x40)\n        /* \"#utility.yul\":2039:2064   */\n      swap1\n      dup2\n      mstore\n        /* \"#utility.yul\":2027:2029   */\n      0x20\n        /* \"#utility.yul\":2012:2030   */\n      add\n        /* \"GitHub/contract-token-cryptoMonster/backend/shared/lib/structures.sol\":1123:1161  uint256 public tokenPrice_ = 750000000 */\n    tag_10:\n      mload(0x40)\n      dup1\n      swap2\n      sub\n      swap1\n      return\n        /* \"GitHub/contract-token-cryptoMonster/backend/shared/lib/structures.sol\":3075:3101  address[] public whiteList */\n    tag_4:\n      tag_12\n      tag_13\n      calldatasize\n      0x04\n      tag_14\n      jump\t// in\n    tag_13:\n      tag_15\n      jump\t// in\n    tag_12:\n      mload(0x40)\n      sub(shl(0xa0, 0x01), 0x01)\n        /* \"#utility.yul\":654:686   */\n      swap1\n      swap2\n      and\n        /* \"#utility.yul\":636:687   */\n      dup2\n      mstore\n        /* \"#utility.yul\":624:626   */\n      0x20\n        /* \"#utility.yul\":609:627   */\n      add\n        /* \"GitHub/contract-token-cryptoMonster/backend/shared/lib/structures.sol\":3075:3101  address[] public whiteList */\n      tag_10\n        /* \"#utility.yul\":490:693   */\n      jump\n        /* \"GitHub/contract-token-cryptoMonster/backend/shared/lib/structures.sol\":3244:3270  address[] public blackList */\n    tag_5:\n      tag_12\n      tag_19\n      calldatasize\n      0x04\n      tag_14\n      jump\t// in\n    tag_19:\n      tag_20\n      jump\t// in\n        /* \"GitHub/contract-token-cryptoMonster/backend/shared/lib/structures.sol\":1385:1418  uint public tokenAmount_ = 100000 */\n    tag_6:\n      tag_8\n      sload(0x03)\n      dup2\n      jump\n        /* \"GitHub/contract-token-cryptoMonster/backend/shared/lib/structures.sol\":836:887  mapping (address => structUser) public structUsers_ */\n    tag_7:\n      tag_25\n      tag_26\n      calldatasize\n      0x04\n      tag_27\n      jump\t// in\n    tag_26:\n      tag_28\n      jump\t// in\n    tag_25:\n      mload(0x40)\n      tag_10\n      swap8\n      swap7\n      swap6\n      swap5\n      swap4\n      swap3\n      swap2\n      swap1\n      tag_30\n      jump\t// in\n        /* \"GitHub/contract-token-cryptoMonster/backend/shared/lib/structures.sol\":3075:3101  address[] public whiteList */\n    tag_15:\n      0x07\n      dup2\n      dup2\n      sload\n      dup2\n      lt\n      tag_31\n      jumpi\n      0x00\n      dup1\n      revert\n    tag_31:\n      0x00\n      swap2\n      dup3\n      mstore\n      0x20\n      swap1\n      swap2\n      keccak256\n      add\n      sload\n      sub(shl(0xa0, 0x01), 0x01)\n      and\n      swap1\n      pop\n      dup2\n      jump\t// out\n        /* \"GitHub/contract-token-cryptoMonster/backend/shared/lib/structures.sol\":3244:3270  address[] public blackList */\n    tag_20:\n      0x08\n      dup2\n      dup2\n      sload\n      dup2\n      lt\n      tag_31\n      jumpi\n      0x00\n      dup1\n      revert\n        /* \"GitHub/contract-token-cryptoMonster/backend/shared/lib/structures.sol\":836:887  mapping (address => structUser) public structUsers_ */\n    tag_28:\n      0x00\n      0x20\n      dup2\n      swap1\n      mstore\n      swap1\n      dup2\n      mstore\n      0x40\n      swap1\n      keccak256\n      dup1\n      sload\n      0x01\n      dup3\n      add\n      dup1\n      sload\n      0xff\n      swap1\n      swap3\n      and\n      swap3\n      swap2\n      tag_35\n      swap1\n      tag_36\n      jump\t// in\n    tag_35:\n      dup1\n      0x1f\n      add\n      0x20\n      dup1\n      swap2\n      div\n      mul\n      0x20\n      add\n      mload(0x40)\n      swap1\n      dup2\n      add\n      0x40\n      mstore\n      dup1\n      swap3\n      swap2\n      swap1\n      dup2\n      dup2\n      mstore\n      0x20\n      add\n      dup3\n      dup1\n      sload\n      tag_37\n      swap1\n      tag_36\n      jump\t// in\n    tag_37:\n      dup1\n      iszero\n      tag_38\n      jumpi\n      dup1\n      0x1f\n      lt\n      tag_39\n      jumpi\n      0x0100\n      dup1\n      dup4\n      sload\n      div\n      mul\n      dup4\n      mstore\n      swap2\n      0x20\n      add\n      swap2\n      jump(tag_38)\n    tag_39:\n      dup3\n      add\n      swap2\n      swap1\n      0x00\n      mstore\n      keccak256(0x00, 0x20)\n      swap1\n    tag_40:\n      dup2\n      sload\n      dup2\n      mstore\n      swap1\n      0x01\n      add\n      swap1\n      0x20\n      add\n      dup1\n      dup4\n      gt\n      tag_40\n      jumpi\n      dup3\n      swap1\n      sub\n      0x1f\n      and\n      dup3\n      add\n      swap2\n    tag_38:\n      pop\n      pop\n      pop\n      pop\n      pop\n      swap1\n      dup1\n      0x02\n      add\n      sload\n      swap1\n      dup1\n      0x03\n      add\n      sload\n      swap1\n      dup1\n      0x04\n      add\n      sload\n      swap1\n      dup1\n      0x05\n      add\n      sload\n      swap1\n      dup1\n      0x06\n      add\n      sload\n      swap1\n      pop\n      dup8\n      jump\t// out\n        /* \"#utility.yul\":14:300   */\n    tag_27:\n        /* \"#utility.yul\":73:79   */\n      0x00\n        /* \"#utility.yul\":126:128   */\n      0x20\n        /* \"#utility.yul\":114:123   */\n      dup3\n        /* \"#utility.yul\":105:112   */\n      dup5\n        /* \"#utility.yul\":101:124   */\n      sub\n        /* \"#utility.yul\":97:129   */\n      slt\n        /* \"#utility.yul\":94:146   */\n      iszero\n      tag_43\n      jumpi\n        /* \"#utility.yul\":142:143   */\n      0x00\n        /* \"#utility.yul\":139:140   */\n      dup1\n        /* \"#utility.yul\":132:144   */\n      revert\n        /* \"#utility.yul\":94:146   */\n    tag_43:\n        /* \"#utility.yul\":168:191   */\n      dup2\n      calldataload\n      sub(shl(0xa0, 0x01), 0x01)\n        /* \"#utility.yul\":220:251   */\n      dup2\n      and\n        /* \"#utility.yul\":210:252   */\n      dup2\n      eq\n        /* \"#utility.yul\":200:270   */\n      tag_44\n      jumpi\n        /* \"#utility.yul\":266:267   */\n      0x00\n        /* \"#utility.yul\":263:264   */\n      dup1\n        /* \"#utility.yul\":256:268   */\n      revert\n        /* \"#utility.yul\":200:270   */\n    tag_44:\n        /* \"#utility.yul\":289:294   */\n      swap4\n        /* \"#utility.yul\":14:300   */\n      swap3\n      pop\n      pop\n      pop\n      jump\t// out\n        /* \"#utility.yul\":305:485   */\n    tag_14:\n        /* \"#utility.yul\":364:370   */\n      0x00\n        /* \"#utility.yul\":417:419   */\n      0x20\n        /* \"#utility.yul\":405:414   */\n      dup3\n        /* \"#utility.yul\":396:403   */\n      dup5\n        /* \"#utility.yul\":392:415   */\n      sub\n        /* \"#utility.yul\":388:420   */\n      slt\n        /* \"#utility.yul\":385:437   */\n      iszero\n      tag_46\n      jumpi\n        /* \"#utility.yul\":433:434   */\n      0x00\n        /* \"#utility.yul\":430:431   */\n      dup1\n        /* \"#utility.yul\":423:435   */\n      revert\n        /* \"#utility.yul\":385:437   */\n    tag_46:\n      pop\n        /* \"#utility.yul\":456:479   */\n      calldataload\n      swap2\n        /* \"#utility.yul\":305:485   */\n      swap1\n      pop\n      jump\t// out\n        /* \"#utility.yul\":698:1888   */\n    tag_30:\n        /* \"#utility.yul\":984:988   */\n      0x00\n        /* \"#utility.yul\":1024:1025   */\n      0x05\n        /* \"#utility.yul\":1016:1022   */\n      dup10\n        /* \"#utility.yul\":1013:1026   */\n      lt\n        /* \"#utility.yul\":1003:1147   */\n      tag_49\n      jumpi\n        /* \"#utility.yul\":1069:1079   */\n      0x4e487b71\n        /* \"#utility.yul\":1064:1067   */\n      0xe0\n        /* \"#utility.yul\":1060:1080   */\n      shl\n        /* \"#utility.yul\":1057:1058   */\n      0x00\n        /* \"#utility.yul\":1050:1081   */\n      mstore\n        /* \"#utility.yul\":1104:1108   */\n      0x21\n        /* \"#utility.yul\":1101:1102   */\n      0x04\n        /* \"#utility.yul\":1094:1109   */\n      mstore\n        /* \"#utility.yul\":1132:1136   */\n      0x24\n        /* \"#utility.yul\":1129:1130   */\n      0x00\n        /* \"#utility.yul\":1122:1137   */\n      revert\n        /* \"#utility.yul\":1003:1147   */\n    tag_49:\n        /* \"#utility.yul\":1174:1180   */\n      dup9\n        /* \"#utility.yul\":1163:1172   */\n      dup3\n        /* \"#utility.yul\":1156:1181   */\n      mstore\n        /* \"#utility.yul\":1200:1202   */\n      0x20\n        /* \"#utility.yul\":1238:1241   */\n      0xe0\n        /* \"#utility.yul\":1233:1235   */\n      dup2\n        /* \"#utility.yul\":1222:1231   */\n      dup5\n        /* \"#utility.yul\":1218:1236   */\n      add\n        /* \"#utility.yul\":1211:1242   */\n      mstore\n        /* \"#utility.yul\":1271:1277   */\n      dup9\n        /* \"#utility.yul\":1265:1278   */\n      mload\n        /* \"#utility.yul\":1315:1321   */\n      dup1\n        /* \"#utility.yul\":1309:1312   */\n      0xe0\n        /* \"#utility.yul\":1298:1307   */\n      dup6\n        /* \"#utility.yul\":1294:1313   */\n      add\n        /* \"#utility.yul\":1287:1322   */\n      mstore\n        /* \"#utility.yul\":1340:1341   */\n      0x00\n        /* \"#utility.yul\":1350:1491   */\n    tag_50:\n        /* \"#utility.yul\":1364:1370   */\n      dup2\n        /* \"#utility.yul\":1361:1362   */\n      dup2\n        /* \"#utility.yul\":1358:1371   */\n      lt\n        /* \"#utility.yul\":1350:1491   */\n      iszero\n      tag_52\n      jumpi\n        /* \"#utility.yul\":1460:1474   */\n      dup11\n      dup2\n      add\n        /* \"#utility.yul\":1456:1479   */\n      dup4\n      add\n        /* \"#utility.yul\":1450:1480   */\n      mload\n        /* \"#utility.yul\":1425:1442   */\n      dup6\n      dup3\n      add\n        /* \"#utility.yul\":1444:1447   */\n      0x0100\n        /* \"#utility.yul\":1421:1448   */\n      add\n        /* \"#utility.yul\":1414:1481   */\n      mstore\n        /* \"#utility.yul\":1379:1389   */\n      dup3\n      add\n        /* \"#utility.yul\":1350:1491   */\n      jump(tag_50)\n    tag_52:\n        /* \"#utility.yul\":1509:1515   */\n      dup2\n        /* \"#utility.yul\":1506:1507   */\n      dup2\n        /* \"#utility.yul\":1503:1516   */\n      gt\n        /* \"#utility.yul\":1500:1592   */\n      iszero\n      tag_53\n      jumpi\n        /* \"#utility.yul\":1580:1581   */\n      0x00\n        /* \"#utility.yul\":1574:1577   */\n      0x0100\n        /* \"#utility.yul\":1565:1571   */\n      dup4\n        /* \"#utility.yul\":1554:1563   */\n      dup8\n        /* \"#utility.yul\":1550:1572   */\n      add\n        /* \"#utility.yul\":1546:1578   */\n      add\n        /* \"#utility.yul\":1539:1582   */\n      mstore\n        /* \"#utility.yul\":1500:1592   */\n    tag_53:\n      pop\n        /* \"#utility.yul\":1695:1697   */\n      0x40\n        /* \"#utility.yul\":1680:1698   */\n      dup5\n      add\n        /* \"#utility.yul\":1673:1707   */\n      swap9\n      swap1\n      swap9\n      mstore\n      pop\n      pop\n        /* \"#utility.yul\":1738:1740   */\n      0x60\n        /* \"#utility.yul\":1723:1741   */\n      dup2\n      add\n        /* \"#utility.yul\":1716:1750   */\n      swap5\n      swap1\n      swap5\n      mstore\n        /* \"#utility.yul\":1781:1784   */\n      0x80\n        /* \"#utility.yul\":1766:1785   */\n      dup5\n      add\n        /* \"#utility.yul\":1759:1794   */\n      swap3\n      swap1\n      swap3\n      mstore\n        /* \"#utility.yul\":1825:1828   */\n      0xa0\n        /* \"#utility.yul\":1810:1829   */\n      dup4\n      add\n        /* \"#utility.yul\":1803:1838   */\n      mstore\n        /* \"#utility.yul\":1869:1872   */\n      0xc0\n        /* \"#utility.yul\":1854:1873   */\n      dup3\n      add\n        /* \"#utility.yul\":1847:1882   */\n      mstore\n        /* \"#utility.yul\":1660:1663   */\n      0x0100\n        /* \"#utility.yul\":1653:1655   */\n      0x1f\n        /* \"#utility.yul\":1632:1647   */\n      swap1\n      swap3\n      add\n      not(0x1f)\n        /* \"#utility.yul\":1628:1657   */\n      and\n        /* \"#utility.yul\":1613:1658   */\n      add\n        /* \"#utility.yul\":1609:1664   */\n      add\n      swap3\n      swap2\n      pop\n      pop\n        /* \"#utility.yul\":698:1888   */\n      jump\t// out\n        /* \"#utility.yul\":2075:2455   */\n    tag_36:\n        /* \"#utility.yul\":2154:2155   */\n      0x01\n        /* \"#utility.yul\":2150:2162   */\n      dup2\n      dup2\n      shr\n      swap1\n        /* \"#utility.yul\":2197:2209   */\n      dup3\n      and\n      dup1\n        /* \"#utility.yul\":2218:2279   */\n      tag_56\n      jumpi\n        /* \"#utility.yul\":2272:2276   */\n      0x7f\n        /* \"#utility.yul\":2264:2270   */\n      dup3\n        /* \"#utility.yul\":2260:2277   */\n      and\n        /* \"#utility.yul\":2250:2277   */\n      swap2\n      pop\n        /* \"#utility.yul\":2218:2279   */\n    tag_56:\n        /* \"#utility.yul\":2325:2327   */\n      0x20\n        /* \"#utility.yul\":2317:2323   */\n      dup3\n        /* \"#utility.yul\":2314:2328   */\n      lt\n        /* \"#utility.yul\":2294:2312   */\n      dup2\n        /* \"#utility.yul\":2291:2329   */\n      eq\n        /* \"#utility.yul\":2288:2449   */\n      iszero\n      tag_57\n      jumpi\n        /* \"#utility.yul\":2371:2381   */\n      0x4e487b71\n        /* \"#utility.yul\":2366:2369   */\n      0xe0\n        /* \"#utility.yul\":2362:2382   */\n      shl\n        /* \"#utility.yul\":2359:2360   */\n      0x00\n        /* \"#utility.yul\":2352:2383   */\n      mstore\n        /* \"#utility.yul\":2406:2410   */\n      0x22\n        /* \"#utility.yul\":2403:2404   */\n      0x04\n        /* \"#utility.yul\":2396:2411   */\n      mstore\n        /* \"#utility.yul\":2434:2438   */\n      0x24\n        /* \"#utility.yul\":2431:2432   */\n      0x00\n        /* \"#utility.yul\":2424:2439   */\n      revert\n        /* \"#utility.yul\":2288:2449   */\n    tag_57:\n      pop\n        /* \"#utility.yul\":2075:2455   */\n      swap2\n      swap1\n      pop\n      jump\t// out\n\n    auxdata: 0xa26469706673582212205fe3bce9010edf2b462a0812f205a021eca633b27f5fd74c000e1d75696ad1f664736f6c63430008070033\n}\n",
				"bytecode": {
					"linkReferences": {},
					"object": "6080604052632cb41780600255620186a060035534801561001f57600080fd5b5061033f8061002f6000396000f3fe608060405234801561001057600080fd5b50600436106100575760003560e01c80630761c8b91461005c5780635c475d4214610078578063709ec8b4146100a3578063948942ad146100b6578063fc837259146100bf575b600080fd5b61006560025481565b6040519081526020015b60405180910390f35b61008b610086366004610216565b6100e5565b6040516001600160a01b03909116815260200161006f565b61008b6100b1366004610216565b61010f565b61006560035481565b6100d26100cd3660046101e6565b61011f565b60405161006f979695949392919061022f565b600781815481106100f557600080fd5b6000918252602090912001546001600160a01b0316905081565b600881815481106100f557600080fd5b6000602081905290815260409020805460018201805460ff9092169291610145906102ce565b80601f0160208091040260200160405190810160405280929190818152602001828054610171906102ce565b80156101be5780601f10610193576101008083540402835291602001916101be565b820191906000526020600020905b8154815290600101906020018083116101a157829003601f168201915b5050505050908060020154908060030154908060040154908060050154908060060154905087565b6000602082840312156101f857600080fd5b81356001600160a01b038116811461020f57600080fd5b9392505050565b60006020828403121561022857600080fd5b5035919050565b60006005891061024f57634e487b7160e01b600052602160045260246000fd5b888252602060e08184015288518060e085015260005b81811015610282578a810183015185820161010001528201610265565b8181111561029557600061010083870101525b50604084019890985250506060810194909452608084019290925260a083015260c0820152610100601f909201601f1916010192915050565b600181811c908216806102e257607f821691505b6020821081141561030357634e487b7160e01b600052602260045260246000fd5b5091905056fea26469706673582212205fe3bce9010edf2b462a0812f205a021eca633b27f5fd74c000e1d75696ad1f664736f6c63430008070033",
					"opcodes": "PUSH1 0x80 PUSH1 0x40 MSTORE PUSH4 0x2CB41780 PUSH1 0x2 SSTORE PUSH3 0x186A0 PUSH1 0x3 SSTORE CALLVALUE DUP1 ISZERO PUSH2 0x1F JUMPI PUSH1 0x0 DUP1 REVERT JUMPDEST POP PUSH2 0x33F DUP1 PUSH2 0x2F PUSH1 0x0 CODECOPY PUSH1 0x0 RETURN INVALID PUSH1 0x80 PUSH1 0x40 MSTORE CALLVALUE DUP1 ISZERO PUSH2 0x10 JUMPI PUSH1 0x0 DUP1 REVERT JUMPDEST POP PUSH1 0x4 CALLDATASIZE LT PUSH2 0x57 JUMPI PUSH1 0x0 CALLDATALOAD PUSH1 0xE0 SHR DUP1 PUSH4 0x761C8B9 EQ PUSH2 0x5C JUMPI DUP1 PUSH4 0x5C475D42 EQ PUSH2 0x78 JUMPI DUP1 PUSH4 0x709EC8B4 EQ PUSH2 0xA3 JUMPI DUP1 PUSH4 0x948942AD EQ PUSH2 0xB6 JUMPI DUP1 PUSH4 0xFC837259 EQ PUSH2 0xBF JUMPI JUMPDEST PUSH1 0x0 DUP1 REVERT JUMPDEST PUSH2 0x65 PUSH1 0x2 SLOAD DUP2 JUMP JUMPDEST PUSH1 0x40 MLOAD SWAP1 DUP2 MSTORE PUSH1 0x20 ADD JUMPDEST PUSH1 0x40 MLOAD DUP1 SWAP2 SUB SWAP1 RETURN JUMPDEST PUSH2 0x8B PUSH2 0x86 CALLDATASIZE PUSH1 0x4 PUSH2 0x216 JUMP JUMPDEST PUSH2 0xE5 JUMP JUMPDEST PUSH1 0x40 MLOAD PUSH1 0x1 PUSH1 0x1 PUSH1 0xA0 SHL SUB SWAP1 SWAP2 AND DUP2 MSTORE PUSH1 0x20 ADD PUSH2 0x6F JUMP JUMPDEST PUSH2 0x8B PUSH2 0xB1 CALLDATASIZE PUSH1 0x4 PUSH2 0x216 JUMP JUMPDEST PUSH2 0x10F JUMP JUMPDEST PUSH2 0x65 PUSH1 0x3 SLOAD DUP2 JUMP JUMPDEST PUSH2 0xD2 PUSH2 0xCD CALLDATASIZE PUSH1 0x4 PUSH2 0x1E6 JUMP JUMPDEST PUSH2 0x11F JUMP JUMPDEST PUSH1 0x40 MLOAD PUSH2 0x6F SWAP8 SWAP7 SWAP6 SWAP5 SWAP4 SWAP3 SWAP2 SWAP1 PUSH2 0x22F JUMP JUMPDEST PUSH1 0x7 DUP2 DUP2 SLOAD DUP2 LT PUSH2 0xF5 JUMPI PUSH1 0x0 DUP1 REVERT JUMPDEST PUSH1 0x0 SWAP2 DUP3 MSTORE PUSH1 0x20 SWAP1 SWAP2 KECCAK256 ADD SLOAD PUSH1 0x1 PUSH1 0x1 PUSH1 0xA0 SHL SUB AND SWAP1 POP DUP2 JUMP JUMPDEST PUSH1 0x8 DUP2 DUP2 SLOAD DUP2 LT PUSH2 0xF5 JUMPI PUSH1 0x0 DUP1 REVERT JUMPDEST PUSH1 0x0 PUSH1 0x20 DUP2 SWAP1 MSTORE SWAP1 DUP2 MSTORE PUSH1 0x40 SWAP1 KECCAK256 DUP1 SLOAD PUSH1 0x1 DUP3 ADD DUP1 SLOAD PUSH1 0xFF SWAP1 SWAP3 AND SWAP3 SWAP2 PUSH2 0x145 SWAP1 PUSH2 0x2CE JUMP JUMPDEST DUP1 PUSH1 0x1F ADD PUSH1 0x20 DUP1 SWAP2 DIV MUL PUSH1 0x20 ADD PUSH1 0x40 MLOAD SWAP1 DUP2 ADD PUSH1 0x40 MSTORE DUP1 SWAP3 SWAP2 SWAP1 DUP2 DUP2 MSTORE PUSH1 0x20 ADD DUP3 DUP1 SLOAD PUSH2 0x171 SWAP1 PUSH2 0x2CE JUMP JUMPDEST DUP1 ISZERO PUSH2 0x1BE JUMPI DUP1 PUSH1 0x1F LT PUSH2 0x193 JUMPI PUSH2 0x100 DUP1 DUP4 SLOAD DIV MUL DUP4 MSTORE SWAP2 PUSH1 0x20 ADD SWAP2 PUSH2 0x1BE JUMP JUMPDEST DUP3 ADD SWAP2 SWAP1 PUSH1 0x0 MSTORE PUSH1 0x20 PUSH1 0x0 KECCAK256 SWAP1 JUMPDEST DUP2 SLOAD DUP2 MSTORE SWAP1 PUSH1 0x1 ADD SWAP1 PUSH1 0x20 ADD DUP1 DUP4 GT PUSH2 0x1A1 JUMPI DUP3 SWAP1 SUB PUSH1 0x1F AND DUP3 ADD SWAP2 JUMPDEST POP POP POP POP POP SWAP1 DUP1 PUSH1 0x2 ADD SLOAD SWAP1 DUP1 PUSH1 0x3 ADD SLOAD SWAP1 DUP1 PUSH1 0x4 ADD SLOAD SWAP1 DUP1 PUSH1 0x5 ADD SLOAD SWAP1 DUP1 PUSH1 0x6 ADD SLOAD SWAP1 POP DUP8 JUMP JUMPDEST PUSH1 0x0 PUSH1 0x20 DUP3 DUP5 SUB SLT ISZERO PUSH2 0x1F8 JUMPI PUSH1 0x0 DUP1 REVERT JUMPDEST DUP2 CALLDATALOAD PUSH1 0x1 PUSH1 0x1 PUSH1 0xA0 SHL SUB DUP2 AND DUP2 EQ PUSH2 0x20F JUMPI PUSH1 0x0 DUP1 REVERT JUMPDEST SWAP4 SWAP3 POP POP POP JUMP JUMPDEST PUSH1 0x0 PUSH1 0x20 DUP3 DUP5 SUB SLT ISZERO PUSH2 0x228 JUMPI PUSH1 0x0 DUP1 REVERT JUMPDEST POP CALLDATALOAD SWAP2 SWAP1 POP JUMP JUMPDEST PUSH1 0x0 PUSH1 0x5 DUP10 LT PUSH2 0x24F JUMPI PUSH4 0x4E487B71 PUSH1 0xE0 SHL PUSH1 0x0 MSTORE PUSH1 0x21 PUSH1 0x4 MSTORE PUSH1 0x24 PUSH1 0x0 REVERT JUMPDEST DUP9 DUP3 MSTORE PUSH1 0x20 PUSH1 0xE0 DUP2 DUP5 ADD MSTORE DUP9 MLOAD DUP1 PUSH1 0xE0 DUP6 ADD MSTORE PUSH1 0x0 JUMPDEST DUP2 DUP2 LT ISZERO PUSH2 0x282 JUMPI DUP11 DUP2 ADD DUP4 ADD MLOAD DUP6 DUP3 ADD PUSH2 0x100 ADD MSTORE DUP3 ADD PUSH2 0x265 JUMP JUMPDEST DUP2 DUP2 GT ISZERO PUSH2 0x295 JUMPI PUSH1 0x0 PUSH2 0x100 DUP4 DUP8 ADD ADD MSTORE JUMPDEST POP PUSH1 0x40 DUP5 ADD SWAP9 SWAP1 SWAP9 MSTORE POP POP PUSH1 0x60 DUP2 ADD SWAP5 SWAP1 SWAP5 MSTORE PUSH1 0x80 DUP5 ADD SWAP3 SWAP1 SWAP3 MSTORE PUSH1 0xA0 DUP4 ADD MSTORE PUSH1 0xC0 DUP3 ADD MSTORE PUSH2 0x100 PUSH1 0x1F SWAP1 SWAP3 ADD PUSH1 0x1F NOT AND ADD ADD SWAP3 SWAP2 POP POP JUMP JUMPDEST PUSH1 0x1 DUP2 DUP2 SHR SWAP1 DUP3 AND DUP1 PUSH2 0x2E2 JUMPI PUSH1 0x7F DUP3 AND SWAP2 POP JUMPDEST PUSH1 0x20 DUP3 LT DUP2 EQ ISZERO PUSH2 0x303 JUMPI PUSH4 0x4E487B71 PUSH1 0xE0 SHL PUSH1 0x0 MSTORE PUSH1 0x22 PUSH1 0x4 MSTORE PUSH1 0x24 PUSH1 0x0 REVERT JUMPDEST POP SWAP2 SWAP1 POP JUMP INVALID LOG2 PUSH5 0x6970667358 0x22 SLT KECCAK256 0x5F 0xE3 0xBC 0xE9 ADD 0xE 0xDF 0x2B CHAINID 0x2A ADDMOD SLT CALLCODE SDIV LOG0 0x21 0xEC 0xA6 CALLER 0xB2 PUSH32 0x5FD74C000E1D75696AD1F664736F6C6343000807003300000000000000000000 "
				},
				"gasEstimates": {
					"creation": {
						"codeDepositCost": "166200",
						"executionCost": "44420",
						"totalCost": "210620"
					},
					"external": {
						"blackList(uint256)": "4636",
						"structUsers_(address)": "infinite",
						"tokenAmount_()": "2328",
						"tokenPrice_()": "2262",
						"whiteList(uint256)": "4614"
					}
				},
				"methodIdentifiers": {
					"blackList(uint256)": "709ec8b4",
					"structUsers_(address)": "fc837259",
					"tokenAmount_()": "948942ad",
					"tokenPrice_()": "0761c8b9",
					"whiteList(uint256)": "5c475d42"
				}
			},
			"storageLayout": {
				"storage": [
					{
						"astId": 249,
						"contract": "GitHub/contract-token-cryptoMonster/backend/shared/helpers/modifireFunc.sol:modifireFunc",
						"label": "structUsers_",
						"offset": 0,
						"slot": "0",
						"type": "t_mapping(t_address,t_struct(structUser)244_storage)"
					},
					{
						"astId": 255,
						"contract": "GitHub/contract-token-cryptoMonster/backend/shared/helpers/modifireFunc.sol:modifireFunc",
						"label": "allowed",
						"offset": 0,
						"slot": "1",
						"type": "t_mapping(t_address,t_mapping(t_address,t_uint256))"
					},
					{
						"astId": 258,
						"contract": "GitHub/contract-token-cryptoMonster/backend/shared/helpers/modifireFunc.sol:modifireFunc",
						"label": "tokenPrice_",
						"offset": 0,
						"slot": "2",
						"type": "t_uint256"
					},
					{
						"astId": 261,
						"contract": "GitHub/contract-token-cryptoMonster/backend/shared/helpers/modifireFunc.sol:modifireFunc",
						"label": "tokenAmount_",
						"offset": 0,
						"slot": "3",
						"type": "t_uint256"
					},
					{
						"astId": 280,
						"contract": "GitHub/contract-token-cryptoMonster/backend/shared/helpers/modifireFunc.sol:modifireFunc",
						"label": "structPhases_",
						"offset": 0,
						"slot": "4",
						"type": "t_mapping(t_address,t_struct(structPhase)275_storage)"
					},
					{
						"astId": 296,
						"contract": "GitHub/contract-token-cryptoMonster/backend/shared/helpers/modifireFunc.sol:modifireFunc",
						"label": "strucApplications_",
						"offset": 0,
						"slot": "5",
						"type": "t_mapping(t_address,t_struct(structApplication)291_storage)"
					},
					{
						"astId": 299,
						"contract": "GitHub/contract-token-cryptoMonster/backend/shared/helpers/modifireFunc.sol:modifireFunc",
						"label": "structApplicationsAmountAdr",
						"offset": 0,
						"slot": "6",
						"type": "t_array(t_address)dyn_storage"
					},
					{
						"astId": 302,
						"contract": "GitHub/contract-token-cryptoMonster/backend/shared/helpers/modifireFunc.sol:modifireFunc",
						"label": "whiteList",
						"offset": 0,
						"slot": "7",
						"type": "t_array(t_address)dyn_storage"
					},
					{
						"astId": 305,
						"contract": "GitHub/contract-token-cryptoMonster/backend/shared/helpers/modifireFunc.sol:modifireFunc",
						"label": "blackList",
						"offset": 0,
						"slot": "8",
						"type": "t_array(t_address)dyn_storage"
					}
				],
				"types": {
					"t_address": {
						"encoding": "inplace",
						"label": "address",
						"numberOfBytes": "20"
					},
					"t_array(t_address)dyn_storage": {
						"base": "t_address",
						"encoding": "dynamic_array",
						"label": "address[]",
						"numberOfBytes": "32"
					},
					"t_bool": {
						"encoding": "inplace",
						"label": "bool",
						"numberOfBytes": "1"
					},
					"t_bytes32": {
						"encoding": "inplace",
						"label": "bytes32",
						"numberOfBytes": "32"
					},
					"t_enum(Role)228": {
						"encoding": "inplace",
						"label": "enum structures.Role",
						"numberOfBytes": "1"
					},
					"t_mapping(t_address,t_mapping(t_address,t_uint256))": {
						"encoding": "mapping",
						"key": "t_address",
						"label": "mapping(address => mapping(address => uint256))",
						"numberOfBytes": "32",
						"value": "t_mapping(t_address,t_uint256)"
					},
					"t_mapping(t_address,t_struct(structApplication)291_storage)": {
						"encoding": "mapping",
						"key": "t_address",
						"label": "mapping(address => struct structures.structApplication)",
						"numberOfBytes": "32",
						"value": "t_struct(structApplication)291_storage"
					},
					"t_mapping(t_address,t_struct(structPhase)275_storage)": {
						"encoding": "mapping",
						"key": "t_address",
						"label": "mapping(address => struct structures.structPhase)",
						"numberOfBytes": "32",
						"value": "t_struct(structPhase)275_storage"
					},
					"t_mapping(t_address,t_struct(structUser)244_storage)": {
						"encoding": "mapping",
						"key": "t_address",
						"label": "mapping(address => struct structures.structUser)",
						"numberOfBytes": "32",
						"value": "t_struct(structUser)244_storage"
					},
					"t_mapping(t_address,t_uint256)": {
						"encoding": "mapping",
						"key": "t_address",
						"label": "mapping(address => uint256)",
						"numberOfBytes": "32",
						"value": "t_uint256"
					},
					"t_string_storage": {
						"encoding": "bytes",
						"label": "string",
						"numberOfBytes": "32"
					},
					"t_struct(structApplication)291_storage": {
						"encoding": "inplace",
						"label": "struct structures.structApplication",
						"members": [
							{
								"astId": 282,
								"contract": "GitHub/contract-token-cryptoMonster/backend/shared/helpers/modifireFunc.sol:modifireFunc",
								"label": "name",
								"offset": 0,
								"slot": "0",
								"type": "t_string_storage"
							},
							{
								"astId": 284,
								"contract": "GitHub/contract-token-cryptoMonster/backend/shared/helpers/modifireFunc.sol:modifireFunc",
								"label": "contactForCommunication",
								"offset": 0,
								"slot": "1",
								"type": "t_string_storage"
							},
							{
								"astId": 286,
								"contract": "GitHub/contract-token-cryptoMonster/backend/shared/helpers/modifireFunc.sol:modifireFunc",
								"label": "userAdr",
								"offset": 0,
								"slot": "2",
								"type": "t_address"
							},
							{
								"astId": 288,
								"contract": "GitHub/contract-token-cryptoMonster/backend/shared/helpers/modifireFunc.sol:modifireFunc",
								"label": "status",
								"offset": 20,
								"slot": "2",
								"type": "t_bool"
							},
							{
								"astId": 290,
								"contract": "GitHub/contract-token-cryptoMonster/backend/shared/helpers/modifireFunc.sol:modifireFunc",
								"label": "exist",
								"offset": 21,
								"slot": "2",
								"type": "t_bool"
							}
						],
						"numberOfBytes": "96"
					},
					"t_struct(structPhase)275_storage": {
						"encoding": "inplace",
						"label": "struct structures.structPhase",
						"members": [
							{
								"astId": 272,
								"contract": "GitHub/contract-token-cryptoMonster/backend/shared/helpers/modifireFunc.sol:modifireFunc",
								"label": "statusPhase",
								"offset": 0,
								"slot": "0",
								"type": "t_bool"
							},
							{
								"astId": 274,
								"contract": "GitHub/contract-token-cryptoMonster/backend/shared/helpers/modifireFunc.sol:modifireFunc",
								"label": "reviewed",
								"offset": 1,
								"slot": "0",
								"type": "t_bool"
							}
						],
						"numberOfBytes": "32"
					},
					"t_struct(structUser)244_storage": {
						"encoding": "inplace",
						"label": "struct structures.structUser",
						"members": [
							{
								"astId": 231,
								"contract": "GitHub/contract-token-cryptoMonster/backend/shared/helpers/modifireFunc.sol:modifireFunc",
								"label": "role",
								"offset": 0,
								"slot": "0",
								"type": "t_enum(Role)228"
							},
							{
								"astId": 233,
								"contract": "GitHub/contract-token-cryptoMonster/backend/shared/helpers/modifireFunc.sol:modifireFunc",
								"label": "login",
								"offset": 0,
								"slot": "1",
								"type": "t_string_storage"
							},
							{
								"astId": 235,
								"contract": "GitHub/contract-token-cryptoMonster/backend/shared/helpers/modifireFunc.sol:modifireFunc",
								"label": "password",
								"offset": 0,
								"slot": "2",
								"type": "t_bytes32"
							},
							{
								"astId": 237,
								"contract": "GitHub/contract-token-cryptoMonster/backend/shared/helpers/modifireFunc.sol:modifireFunc",
								"label": "balance_overall",
								"offset": 0,
								"slot": "3",
								"type": "t_uint256"
							},
							{
								"astId": 239,
								"contract": "GitHub/contract-token-cryptoMonster/backend/shared/helpers/modifireFunc.sol:modifireFunc",
								"label": "balance_seed",
								"offset": 0,
								"slot": "4",
								"type": "t_uint256"
							},
							{
								"astId": 241,
								"contract": "GitHub/contract-token-cryptoMonster/backend/shared/helpers/modifireFunc.sol:modifireFunc",
								"label": "balance_private",
								"offset": 0,
								"slot": "5",
								"type": "t_uint256"
							},
							{
								"astId": 243,
								"contract": "GitHub/contract-token-cryptoMonster/backend/shared/helpers/modifireFunc.sol:modifireFunc",
								"label": "balance_public",
								"offset": 0,
								"slot": "6",
								"type": "t_uint256"
							}
						],
						"numberOfBytes": "224"
					},
					"t_uint256": {
						"encoding": "inplace",
						"label": "uint256",
						"numberOfBytes": "32"
					}
				}
			},
			"userdoc": {
				"kind": "user",
				"methods": {},
				"version": 1
			}
		}
	}
}