{
	"Documents/GitHub/contract-token-cryptoMonster/backend/shared/helpers/validateFuncs.sol": {
		"validateFuncs": {
			"abi": [
				{
					"inputs": [],
					"name": "validateOwner",
					"outputs": [
						{
							"internalType": "bool",
							"name": "",
							"type": "bool"
						}
					],
					"stateMutability": "view",
					"type": "function"
				}
			],
			"devdoc": {
				"kind": "dev",
				"methods": {},
				"version": 1
			},
			"evm": {
				"assembly": "    /* \"Documents/GitHub/contract-token-cryptoMonster/backend/shared/helpers/validateFuncs.sol\":235:494  contract validateFuncs is structures {\r... */\n  mstore(0x40, 0x80)\n  callvalue\n  dup1\n  iszero\n  tag_1\n  jumpi\n  0x00\n  dup1\n  revert\ntag_1:\n  pop\n  dataSize(sub_0)\n  dup1\n  dataOffset(sub_0)\n  0x00\n  codecopy\n  0x00\n  return\nstop\n\nsub_0: assembly {\n        /* \"Documents/GitHub/contract-token-cryptoMonster/backend/shared/helpers/validateFuncs.sol\":235:494  contract validateFuncs is structures {\r... */\n      mstore(0x40, 0x80)\n      callvalue\n      dup1\n      iszero\n      tag_1\n      jumpi\n      0x00\n      dup1\n      revert\n    tag_1:\n      pop\n      jumpi(tag_2, lt(calldatasize, 0x04))\n      shr(0xe0, calldataload(0x00))\n      dup1\n      0x403cec1a\n      eq\n      tag_3\n      jumpi\n    tag_2:\n      0x00\n      dup1\n      revert\n        /* \"Documents/GitHub/contract-token-cryptoMonster/backend/shared/helpers/validateFuncs.sol\":279:491  function validateOwner() public view returns (bool) {\r... */\n    tag_3:\n      tag_4\n      tag_5\n      jump\t// in\n    tag_4:\n      mload(0x40)\n      tag_6\n      swap2\n      swap1\n      tag_7\n      jump\t// in\n    tag_6:\n      mload(0x40)\n      dup1\n      swap2\n      sub\n      swap1\n      return\n    tag_5:\n        /* \"Documents/GitHub/contract-token-cryptoMonster/backend/shared/helpers/validateFuncs.sol\":325:329  bool */\n      0x00\n        /* \"Documents/GitHub/contract-token-cryptoMonster/backend/shared/helpers/validateFuncs.sol\":378:395  Role.SYSTEM_OWNER */\n      dup1\n        /* \"Documents/GitHub/contract-token-cryptoMonster/backend/shared/helpers/validateFuncs.sol\":345:395  structUsers_[msg.sender].role == Role.SYSTEM_OWNER */\n      0x04\n      dup2\n      gt\n      iszero\n      tag_9\n      jumpi\n      tag_10\n      tag_11\n      jump\t// in\n    tag_10:\n    tag_9:\n        /* \"Documents/GitHub/contract-token-cryptoMonster/backend/shared/helpers/validateFuncs.sol\":345:357  structUsers_ */\n      0x00\n        /* \"Documents/GitHub/contract-token-cryptoMonster/backend/shared/helpers/validateFuncs.sol\":345:369  structUsers_[msg.sender] */\n      dup1\n        /* \"Documents/GitHub/contract-token-cryptoMonster/backend/shared/helpers/validateFuncs.sol\":358:368  msg.sender */\n      caller\n        /* \"Documents/GitHub/contract-token-cryptoMonster/backend/shared/helpers/validateFuncs.sol\":345:369  structUsers_[msg.sender] */\n      0xffffffffffffffffffffffffffffffffffffffff\n      and\n      0xffffffffffffffffffffffffffffffffffffffff\n      and\n      dup2\n      mstore\n      0x20\n      add\n      swap1\n      dup2\n      mstore\n      0x20\n      add\n      0x00\n      keccak256\n        /* \"Documents/GitHub/contract-token-cryptoMonster/backend/shared/helpers/validateFuncs.sol\":345:374  structUsers_[msg.sender].role */\n      0x00\n      add\n      0x00\n      swap1\n      sload\n      swap1\n      0x0100\n      exp\n      swap1\n      div\n      0xff\n      and\n        /* \"Documents/GitHub/contract-token-cryptoMonster/backend/shared/helpers/validateFuncs.sol\":345:395  structUsers_[msg.sender].role == Role.SYSTEM_OWNER */\n      0x04\n      dup2\n      gt\n      iszero\n      tag_12\n      jumpi\n      tag_13\n      tag_11\n      jump\t// in\n    tag_13:\n    tag_12:\n      eq\n        /* \"Documents/GitHub/contract-token-cryptoMonster/backend/shared/helpers/validateFuncs.sol\":342:484  if(structUsers_[msg.sender].role == Role.SYSTEM_OWNER) {\r... */\n      iszero\n      tag_14\n      jumpi\n        /* \"Documents/GitHub/contract-token-cryptoMonster/backend/shared/helpers/validateFuncs.sol\":420:424  true */\n      0x01\n        /* \"Documents/GitHub/contract-token-cryptoMonster/backend/shared/helpers/validateFuncs.sol\":412:425  return (true) */\n      swap1\n      pop\n      jump(tag_8)\n        /* \"Documents/GitHub/contract-token-cryptoMonster/backend/shared/helpers/validateFuncs.sol\":342:484  if(structUsers_[msg.sender].role == Role.SYSTEM_OWNER) {\r... */\n    tag_14:\n        /* \"Documents/GitHub/contract-token-cryptoMonster/backend/shared/helpers/validateFuncs.sol\":466:471  false */\n      0x00\n        /* \"Documents/GitHub/contract-token-cryptoMonster/backend/shared/helpers/validateFuncs.sol\":458:472  return (false) */\n      swap1\n      pop\n        /* \"Documents/GitHub/contract-token-cryptoMonster/backend/shared/helpers/validateFuncs.sol\":279:491  function validateOwner() public view returns (bool) {\r... */\n    tag_8:\n      swap1\n      jump\t// out\n        /* \"#utility.yul\":7:116   */\n    tag_17:\n        /* \"#utility.yul\":88:109   */\n      tag_19\n        /* \"#utility.yul\":103:108   */\n      dup2\n        /* \"#utility.yul\":88:109   */\n      tag_20\n      jump\t// in\n    tag_19:\n        /* \"#utility.yul\":83:86   */\n      dup3\n        /* \"#utility.yul\":76:110   */\n      mstore\n        /* \"#utility.yul\":7:116   */\n      pop\n      pop\n      jump\t// out\n        /* \"#utility.yul\":122:332   */\n    tag_7:\n        /* \"#utility.yul\":209:213   */\n      0x00\n        /* \"#utility.yul\":247:249   */\n      0x20\n        /* \"#utility.yul\":236:245   */\n      dup3\n        /* \"#utility.yul\":232:250   */\n      add\n        /* \"#utility.yul\":224:250   */\n      swap1\n      pop\n        /* \"#utility.yul\":260:325   */\n      tag_22\n        /* \"#utility.yul\":322:323   */\n      0x00\n        /* \"#utility.yul\":311:320   */\n      dup4\n        /* \"#utility.yul\":307:324   */\n      add\n        /* \"#utility.yul\":298:304   */\n      dup5\n        /* \"#utility.yul\":260:325   */\n      tag_17\n      jump\t// in\n    tag_22:\n        /* \"#utility.yul\":122:332   */\n      swap3\n      swap2\n      pop\n      pop\n      jump\t// out\n        /* \"#utility.yul\":338:428   */\n    tag_20:\n        /* \"#utility.yul\":372:379   */\n      0x00\n        /* \"#utility.yul\":415:420   */\n      dup2\n        /* \"#utility.yul\":408:421   */\n      iszero\n        /* \"#utility.yul\":401:422   */\n      iszero\n        /* \"#utility.yul\":390:422   */\n      swap1\n      pop\n        /* \"#utility.yul\":338:428   */\n      swap2\n      swap1\n      pop\n      jump\t// out\n        /* \"#utility.yul\":434:614   */\n    tag_11:\n        /* \"#utility.yul\":482:559   */\n      0x4e487b7100000000000000000000000000000000000000000000000000000000\n        /* \"#utility.yul\":479:480   */\n      0x00\n        /* \"#utility.yul\":472:560   */\n      mstore\n        /* \"#utility.yul\":579:583   */\n      0x21\n        /* \"#utility.yul\":576:577   */\n      0x04\n        /* \"#utility.yul\":569:584   */\n      mstore\n        /* \"#utility.yul\":603:607   */\n      0x24\n        /* \"#utility.yul\":600:601   */\n      0x00\n        /* \"#utility.yul\":593:608   */\n      revert\n\n    auxdata: 0xa2646970667358221220e53f23c541fa1f231baa81a20a05af64ab3ca295e48547032085e0ee388863cc64736f6c63430008070033\n}\n",
				"bytecode": {
					"linkReferences": {},
					"object": "608060405234801561001057600080fd5b50610176806100206000396000f3fe608060405234801561001057600080fd5b506004361061002b5760003560e01c8063403cec1a14610030575b600080fd5b61003861004e565b60405161004591906100ea565b60405180910390f35b600080600481111561006357610062610111565b5b6000803373ffffffffffffffffffffffffffffffffffffffff1673ffffffffffffffffffffffffffffffffffffffff16815260200190815260200160002060000160009054906101000a900460ff1660048111156100c4576100c3610111565b5b14156100d357600190506100d8565b600090505b90565b6100e481610105565b82525050565b60006020820190506100ff60008301846100db565b92915050565b60008115159050919050565b7f4e487b7100000000000000000000000000000000000000000000000000000000600052602160045260246000fdfea2646970667358221220e53f23c541fa1f231baa81a20a05af64ab3ca295e48547032085e0ee388863cc64736f6c63430008070033",
					"opcodes": "PUSH1 0x80 PUSH1 0x40 MSTORE CALLVALUE DUP1 ISZERO PUSH2 0x10 JUMPI PUSH1 0x0 DUP1 REVERT JUMPDEST POP PUSH2 0x176 DUP1 PUSH2 0x20 PUSH1 0x0 CODECOPY PUSH1 0x0 RETURN INVALID PUSH1 0x80 PUSH1 0x40 MSTORE CALLVALUE DUP1 ISZERO PUSH2 0x10 JUMPI PUSH1 0x0 DUP1 REVERT JUMPDEST POP PUSH1 0x4 CALLDATASIZE LT PUSH2 0x2B JUMPI PUSH1 0x0 CALLDATALOAD PUSH1 0xE0 SHR DUP1 PUSH4 0x403CEC1A EQ PUSH2 0x30 JUMPI JUMPDEST PUSH1 0x0 DUP1 REVERT JUMPDEST PUSH2 0x38 PUSH2 0x4E JUMP JUMPDEST PUSH1 0x40 MLOAD PUSH2 0x45 SWAP2 SWAP1 PUSH2 0xEA JUMP JUMPDEST PUSH1 0x40 MLOAD DUP1 SWAP2 SUB SWAP1 RETURN JUMPDEST PUSH1 0x0 DUP1 PUSH1 0x4 DUP2 GT ISZERO PUSH2 0x63 JUMPI PUSH2 0x62 PUSH2 0x111 JUMP JUMPDEST JUMPDEST PUSH1 0x0 DUP1 CALLER PUSH20 0xFFFFFFFFFFFFFFFFFFFFFFFFFFFFFFFFFFFFFFFF AND PUSH20 0xFFFFFFFFFFFFFFFFFFFFFFFFFFFFFFFFFFFFFFFF AND DUP2 MSTORE PUSH1 0x20 ADD SWAP1 DUP2 MSTORE PUSH1 0x20 ADD PUSH1 0x0 KECCAK256 PUSH1 0x0 ADD PUSH1 0x0 SWAP1 SLOAD SWAP1 PUSH2 0x100 EXP SWAP1 DIV PUSH1 0xFF AND PUSH1 0x4 DUP2 GT ISZERO PUSH2 0xC4 JUMPI PUSH2 0xC3 PUSH2 0x111 JUMP JUMPDEST JUMPDEST EQ ISZERO PUSH2 0xD3 JUMPI PUSH1 0x1 SWAP1 POP PUSH2 0xD8 JUMP JUMPDEST PUSH1 0x0 SWAP1 POP JUMPDEST SWAP1 JUMP JUMPDEST PUSH2 0xE4 DUP2 PUSH2 0x105 JUMP JUMPDEST DUP3 MSTORE POP POP JUMP JUMPDEST PUSH1 0x0 PUSH1 0x20 DUP3 ADD SWAP1 POP PUSH2 0xFF PUSH1 0x0 DUP4 ADD DUP5 PUSH2 0xDB JUMP JUMPDEST SWAP3 SWAP2 POP POP JUMP JUMPDEST PUSH1 0x0 DUP2 ISZERO ISZERO SWAP1 POP SWAP2 SWAP1 POP JUMP JUMPDEST PUSH32 0x4E487B7100000000000000000000000000000000000000000000000000000000 PUSH1 0x0 MSTORE PUSH1 0x21 PUSH1 0x4 MSTORE PUSH1 0x24 PUSH1 0x0 REVERT INVALID LOG2 PUSH5 0x6970667358 0x22 SLT KECCAK256 0xE5 EXTCODEHASH 0x23 0xC5 COINBASE STATICCALL 0x1F 0x23 SHL 0xAA DUP2 LOG2 EXP SDIV 0xAF PUSH5 0xAB3CA295E4 DUP6 SELFBALANCE SUB KECCAK256 DUP6 0xE0 0xEE CODESIZE DUP9 PUSH4 0xCC64736F PUSH13 0x63430008070033000000000000 "
				},
				"gasEstimates": {
					"creation": {
						"codeDepositCost": "74800",
						"executionCost": "123",
						"totalCost": "74923"
					},
					"external": {
						"validateOwner()": "2641"
					}
				},
				"methodIdentifiers": {
					"validateOwner()": "403cec1a"
				}
			},
			"storageLayout": {
				"storage": [
					{
						"astId": 57,
						"contract": "Documents/GitHub/contract-token-cryptoMonster/backend/shared/helpers/validateFuncs.sol:validateFuncs",
						"label": "structUsers_",
						"offset": 0,
						"slot": "0",
						"type": "t_mapping(t_address,t_struct(structUser)52_storage)"
					},
					{
						"astId": 67,
						"contract": "Documents/GitHub/contract-token-cryptoMonster/backend/shared/helpers/validateFuncs.sol:validateFuncs",
						"label": "structPhases_",
						"offset": 0,
						"slot": "1",
						"type": "t_mapping(t_address,t_struct(structPhase)62_storage)"
					},
					{
						"astId": 85,
						"contract": "Documents/GitHub/contract-token-cryptoMonster/backend/shared/helpers/validateFuncs.sol:validateFuncs",
						"label": "strucApplications_",
						"offset": 0,
						"slot": "2",
						"type": "t_mapping(t_address,t_struct(structApplication)80_storage)"
					}
				],
				"types": {
					"t_address": {
						"encoding": "inplace",
						"label": "address",
						"numberOfBytes": "20"
					},
					"t_bool": {
						"encoding": "inplace",
						"label": "bool",
						"numberOfBytes": "1"
					},
					"t_bytes32": {
						"encoding": "inplace",
						"label": "bytes32",
						"numberOfBytes": "32"
					},
					"t_enum(Role)36": {
						"encoding": "inplace",
						"label": "enum structures.Role",
						"numberOfBytes": "1"
					},
					"t_mapping(t_address,t_struct(structApplication)80_storage)": {
						"encoding": "mapping",
						"key": "t_address",
						"label": "mapping(address => struct structures.structApplication)",
						"numberOfBytes": "32",
						"value": "t_struct(structApplication)80_storage"
					},
					"t_mapping(t_address,t_struct(structPhase)62_storage)": {
						"encoding": "mapping",
						"key": "t_address",
						"label": "mapping(address => struct structures.structPhase)",
						"numberOfBytes": "32",
						"value": "t_struct(structPhase)62_storage"
					},
					"t_mapping(t_address,t_struct(structUser)52_storage)": {
						"encoding": "mapping",
						"key": "t_address",
						"label": "mapping(address => struct structures.structUser)",
						"numberOfBytes": "32",
						"value": "t_struct(structUser)52_storage"
					},
					"t_string_storage": {
						"encoding": "bytes",
						"label": "string",
						"numberOfBytes": "32"
					},
					"t_struct(structApplication)80_storage": {
						"encoding": "inplace",
						"label": "struct structures.structApplication",
						"members": [
							{
								"astId": 69,
								"contract": "Documents/GitHub/contract-token-cryptoMonster/backend/shared/helpers/validateFuncs.sol:validateFuncs",
								"label": "name",
								"offset": 0,
								"slot": "0",
								"type": "t_string_storage"
							},
							{
								"astId": 71,
								"contract": "Documents/GitHub/contract-token-cryptoMonster/backend/shared/helpers/validateFuncs.sol:validateFuncs",
								"label": "contactForCommunication",
								"offset": 0,
								"slot": "1",
								"type": "t_string_storage"
							},
							{
								"astId": 73,
								"contract": "Documents/GitHub/contract-token-cryptoMonster/backend/shared/helpers/validateFuncs.sol:validateFuncs",
								"label": "userAdr",
								"offset": 0,
								"slot": "2",
								"type": "t_address"
							},
							{
								"astId": 75,
								"contract": "Documents/GitHub/contract-token-cryptoMonster/backend/shared/helpers/validateFuncs.sol:validateFuncs",
								"label": "status",
								"offset": 20,
								"slot": "2",
								"type": "t_bool"
							},
							{
								"astId": 77,
								"contract": "Documents/GitHub/contract-token-cryptoMonster/backend/shared/helpers/validateFuncs.sol:validateFuncs",
								"label": "reviewed",
								"offset": 21,
								"slot": "2",
								"type": "t_bool"
							},
							{
								"astId": 79,
								"contract": "Documents/GitHub/contract-token-cryptoMonster/backend/shared/helpers/validateFuncs.sol:validateFuncs",
								"label": "exist",
								"offset": 22,
								"slot": "2",
								"type": "t_bool"
							}
						],
						"numberOfBytes": "96"
					},
					"t_struct(structPhase)62_storage": {
						"encoding": "inplace",
						"label": "struct structures.structPhase",
						"members": [
							{
								"astId": 59,
								"contract": "Documents/GitHub/contract-token-cryptoMonster/backend/shared/helpers/validateFuncs.sol:validateFuncs",
								"label": "statusPhase",
								"offset": 0,
								"slot": "0",
								"type": "t_bool"
							},
							{
								"astId": 61,
								"contract": "Documents/GitHub/contract-token-cryptoMonster/backend/shared/helpers/validateFuncs.sol:validateFuncs",
								"label": "reviewed",
								"offset": 1,
								"slot": "0",
								"type": "t_bool"
							}
						],
						"numberOfBytes": "32"
					},
					"t_struct(structUser)52_storage": {
						"encoding": "inplace",
						"label": "struct structures.structUser",
						"members": [
							{
								"astId": 39,
								"contract": "Documents/GitHub/contract-token-cryptoMonster/backend/shared/helpers/validateFuncs.sol:validateFuncs",
								"label": "role",
								"offset": 0,
								"slot": "0",
								"type": "t_enum(Role)36"
							},
							{
								"astId": 41,
								"contract": "Documents/GitHub/contract-token-cryptoMonster/backend/shared/helpers/validateFuncs.sol:validateFuncs",
								"label": "login",
								"offset": 0,
								"slot": "1",
								"type": "t_string_storage"
							},
							{
								"astId": 43,
								"contract": "Documents/GitHub/contract-token-cryptoMonster/backend/shared/helpers/validateFuncs.sol:validateFuncs",
								"label": "password",
								"offset": 0,
								"slot": "2",
								"type": "t_bytes32"
							},
							{
								"astId": 45,
								"contract": "Documents/GitHub/contract-token-cryptoMonster/backend/shared/helpers/validateFuncs.sol:validateFuncs",
								"label": "balance_overall",
								"offset": 0,
								"slot": "3",
								"type": "t_uint256"
							},
							{
								"astId": 47,
								"contract": "Documents/GitHub/contract-token-cryptoMonster/backend/shared/helpers/validateFuncs.sol:validateFuncs",
								"label": "balance_seed",
								"offset": 0,
								"slot": "4",
								"type": "t_uint256"
							},
							{
								"astId": 49,
								"contract": "Documents/GitHub/contract-token-cryptoMonster/backend/shared/helpers/validateFuncs.sol:validateFuncs",
								"label": "balance_private",
								"offset": 0,
								"slot": "5",
								"type": "t_uint256"
							},
							{
								"astId": 51,
								"contract": "Documents/GitHub/contract-token-cryptoMonster/backend/shared/helpers/validateFuncs.sol:validateFuncs",
								"label": "balance_public",
								"offset": 0,
								"slot": "6",
								"type": "t_uint256"
							}
						],
						"numberOfBytes": "224"
					},
					"t_uint256": {
						"encoding": "inplace",
						"label": "uint256",
						"numberOfBytes": "32"
					}
				}
			},
			"userdoc": {
				"kind": "user",
				"methods": {},
				"version": 1
			}
		}
	}
}