{
	"data": {
		"bytecode": {
			"linkReferences": {},
			"object": "6080604052632cb41780600255348015601757600080fd5b50607d806100266000396000f3fe6080604052348015600f57600080fd5b506004361060285760003560e01c80630761c8b914602d575b600080fd5b603560025481565b60405190815260200160405180910390f3fea2646970667358221220fc5b16ea987f62b6d41fe921ab5cd567d1123fb245ac03e311d82fed4c7371a164736f6c63430008070033",
			"opcodes": "PUSH1 0x80 PUSH1 0x40 MSTORE PUSH4 0x2CB41780 PUSH1 0x2 SSTORE CALLVALUE DUP1 ISZERO PUSH1 0x17 JUMPI PUSH1 0x0 DUP1 REVERT JUMPDEST POP PUSH1 0x7D DUP1 PUSH2 0x26 PUSH1 0x0 CODECOPY PUSH1 0x0 RETURN INVALID PUSH1 0x80 PUSH1 0x40 MSTORE CALLVALUE DUP1 ISZERO PUSH1 0xF JUMPI PUSH1 0x0 DUP1 REVERT JUMPDEST POP PUSH1 0x4 CALLDATASIZE LT PUSH1 0x28 JUMPI PUSH1 0x0 CALLDATALOAD PUSH1 0xE0 SHR DUP1 PUSH4 0x761C8B9 EQ PUSH1 0x2D JUMPI JUMPDEST PUSH1 0x0 DUP1 REVERT JUMPDEST PUSH1 0x35 PUSH1 0x2 SLOAD DUP2 JUMP JUMPDEST PUSH1 0x40 MLOAD SWAP1 DUP2 MSTORE PUSH1 0x20 ADD PUSH1 0x40 MLOAD DUP1 SWAP2 SUB SWAP1 RETURN INVALID LOG2 PUSH5 0x6970667358 0x22 SLT KECCAK256 0xFC JUMPDEST AND 0xEA SWAP9 PUSH32 0x62B6D41FE921AB5CD567D1123FB245AC03E311D82FED4C7371A164736F6C6343 STOP ADDMOD SMOD STOP CALLER "
		},
		"gasEstimates": {
			"creation": {
				"codeDepositCost": "25000",
				"executionCost": "22181",
				"totalCost": "47181"
			},
			"external": {
				"tokenPrice_()": "2261"
			}
		},
		"methodIdentifiers": {
			"tokenPrice_()": "0761c8b9"
		}
	},
	"abi": [
		{
			"inputs": [],
			"name": "tokenPrice_",
			"outputs": [
				{
					"internalType": "uint256",
					"name": "",
					"type": "uint256"
				}
			],
			"stateMutability": "view",
			"type": "function"
		}
	]
}