{
	"data": {
		"bytecode": {
			"linkReferences": {},
			"object": "608060405234801561001057600080fd5b50610506806100206000396000f3fe608060405234801561001057600080fd5b50600436106100625760003560e01c80632599d6d01461006757806372f0d72b146100a65780637f89128f146100d25780638e4f8c6b146100e7578063b06cdc12146100fa578063c10e391114610126575b600080fd5b61009361007536600461033c565b6001600160a01b031660009081526020819052604090206004015490565b6040519081526020015b60405180910390f35b6100936100b436600461033c565b6001600160a01b031660009081526020819052604090206006015490565b6100da61012e565b60405161009d9190610457565b6100936100f536600461036c565b6101f9565b61009361010836600461033c565b6001600160a01b031660009081526020819052604090206005015490565b6100da610229565b606060003360009081526020819052604090205460ff166004811115610156576101566104a4565b146101995760405162461bcd60e51b815260206004820152600e60248201526d2cb7bab9103737ba1030b236b4b760911b60448201526064015b60405180910390fd5b60068054806020026020016040519081016040528092919081815260200182805480156101ef57602002820191906000526020600020905b81546001600160a01b031681526001909101906020018083116101d1575b5050505050905090565b60008160405160200161020c919061041c565b604051602081830303815290604052805190602001209050919050565b606060003360009081526020819052604090205460ff166004811115610251576102516104a4565b1480610280575060023360009081526020819052604090205460ff16600481111561027e5761027e6104a4565b145b6102de5760405162461bcd60e51b815260206004820152602960248201527f596f7520617265206e6f7420746865206f776e6572206f72207072697661746560448201526810383937bb34b232b960b91b6064820152608401610190565b60058054806020026020016040519081016040528092919081815260200182805480156101ef576020028201919060005260206000209081546001600160a01b031681526001909101906020018083116101d1575050505050905090565b60006020828403121561034e57600080fd5b81356001600160a01b038116811461036557600080fd5b9392505050565b60006020828403121561037e57600080fd5b81356001600160401b038082111561039557600080fd5b818401915084601f8301126103a957600080fd5b8135818111156103bb576103bb6104ba565b604051601f8201601f19908116603f011681019083821181831017156103e3576103e36104ba565b816040528281528760208487010111156103fc57600080fd5b826020860160208301376000928101602001929092525095945050505050565b6000825160005b8181101561043d5760208186018101518583015201610423565b8181111561044c576000828501525b509190910192915050565b6020808252825182820181905260009190848201906040850190845b818110156104985783516001600160a01b031683529284019291840191600101610473565b50909695505050505050565b634e487b7160e01b600052602160045260246000fd5b634e487b7160e01b600052604160045260246000fdfea2646970667358221220f77946e46a31842c7f8a5850d6c144cf517560853ccc2af95c550eb7966274b864736f6c63430008070033",
			"opcodes": "PUSH1 0x80 PUSH1 0x40 MSTORE CALLVALUE DUP1 ISZERO PUSH2 0x10 JUMPI PUSH1 0x0 DUP1 REVERT JUMPDEST POP PUSH2 0x506 DUP1 PUSH2 0x20 PUSH1 0x0 CODECOPY PUSH1 0x0 RETURN INVALID PUSH1 0x80 PUSH1 0x40 MSTORE CALLVALUE DUP1 ISZERO PUSH2 0x10 JUMPI PUSH1 0x0 DUP1 REVERT JUMPDEST POP PUSH1 0x4 CALLDATASIZE LT PUSH2 0x62 JUMPI PUSH1 0x0 CALLDATALOAD PUSH1 0xE0 SHR DUP1 PUSH4 0x2599D6D0 EQ PUSH2 0x67 JUMPI DUP1 PUSH4 0x72F0D72B EQ PUSH2 0xA6 JUMPI DUP1 PUSH4 0x7F89128F EQ PUSH2 0xD2 JUMPI DUP1 PUSH4 0x8E4F8C6B EQ PUSH2 0xE7 JUMPI DUP1 PUSH4 0xB06CDC12 EQ PUSH2 0xFA JUMPI DUP1 PUSH4 0xC10E3911 EQ PUSH2 0x126 JUMPI JUMPDEST PUSH1 0x0 DUP1 REVERT JUMPDEST PUSH2 0x93 PUSH2 0x75 CALLDATASIZE PUSH1 0x4 PUSH2 0x33C JUMP JUMPDEST PUSH1 0x1 PUSH1 0x1 PUSH1 0xA0 SHL SUB AND PUSH1 0x0 SWAP1 DUP2 MSTORE PUSH1 0x20 DUP2 SWAP1 MSTORE PUSH1 0x40 SWAP1 KECCAK256 PUSH1 0x4 ADD SLOAD SWAP1 JUMP JUMPDEST PUSH1 0x40 MLOAD SWAP1 DUP2 MSTORE PUSH1 0x20 ADD JUMPDEST PUSH1 0x40 MLOAD DUP1 SWAP2 SUB SWAP1 RETURN JUMPDEST PUSH2 0x93 PUSH2 0xB4 CALLDATASIZE PUSH1 0x4 PUSH2 0x33C JUMP JUMPDEST PUSH1 0x1 PUSH1 0x1 PUSH1 0xA0 SHL SUB AND PUSH1 0x0 SWAP1 DUP2 MSTORE PUSH1 0x20 DUP2 SWAP1 MSTORE PUSH1 0x40 SWAP1 KECCAK256 PUSH1 0x6 ADD SLOAD SWAP1 JUMP JUMPDEST PUSH2 0xDA PUSH2 0x12E JUMP JUMPDEST PUSH1 0x40 MLOAD PUSH2 0x9D SWAP2 SWAP1 PUSH2 0x457 JUMP JUMPDEST PUSH2 0x93 PUSH2 0xF5 CALLDATASIZE PUSH1 0x4 PUSH2 0x36C JUMP JUMPDEST PUSH2 0x1F9 JUMP JUMPDEST PUSH2 0x93 PUSH2 0x108 CALLDATASIZE PUSH1 0x4 PUSH2 0x33C JUMP JUMPDEST PUSH1 0x1 PUSH1 0x1 PUSH1 0xA0 SHL SUB AND PUSH1 0x0 SWAP1 DUP2 MSTORE PUSH1 0x20 DUP2 SWAP1 MSTORE PUSH1 0x40 SWAP1 KECCAK256 PUSH1 0x5 ADD SLOAD SWAP1 JUMP JUMPDEST PUSH2 0xDA PUSH2 0x229 JUMP JUMPDEST PUSH1 0x60 PUSH1 0x0 CALLER PUSH1 0x0 SWAP1 DUP2 MSTORE PUSH1 0x20 DUP2 SWAP1 MSTORE PUSH1 0x40 SWAP1 KECCAK256 SLOAD PUSH1 0xFF AND PUSH1 0x4 DUP2 GT ISZERO PUSH2 0x156 JUMPI PUSH2 0x156 PUSH2 0x4A4 JUMP JUMPDEST EQ PUSH2 0x199 JUMPI PUSH1 0x40 MLOAD PUSH3 0x461BCD PUSH1 0xE5 SHL DUP2 MSTORE PUSH1 0x20 PUSH1 0x4 DUP3 ADD MSTORE PUSH1 0xE PUSH1 0x24 DUP3 ADD MSTORE PUSH14 0x2CB7BAB9103737BA1030B236B4B7 PUSH1 0x91 SHL PUSH1 0x44 DUP3 ADD MSTORE PUSH1 0x64 ADD JUMPDEST PUSH1 0x40 MLOAD DUP1 SWAP2 SUB SWAP1 REVERT JUMPDEST PUSH1 0x6 DUP1 SLOAD DUP1 PUSH1 0x20 MUL PUSH1 0x20 ADD PUSH1 0x40 MLOAD SWAP1 DUP2 ADD PUSH1 0x40 MSTORE DUP1 SWAP3 SWAP2 SWAP1 DUP2 DUP2 MSTORE PUSH1 0x20 ADD DUP3 DUP1 SLOAD DUP1 ISZERO PUSH2 0x1EF JUMPI PUSH1 0x20 MUL DUP3 ADD SWAP2 SWAP1 PUSH1 0x0 MSTORE PUSH1 0x20 PUSH1 0x0 KECCAK256 SWAP1 JUMPDEST DUP2 SLOAD PUSH1 0x1 PUSH1 0x1 PUSH1 0xA0 SHL SUB AND DUP2 MSTORE PUSH1 0x1 SWAP1 SWAP2 ADD SWAP1 PUSH1 0x20 ADD DUP1 DUP4 GT PUSH2 0x1D1 JUMPI JUMPDEST POP POP POP POP POP SWAP1 POP SWAP1 JUMP JUMPDEST PUSH1 0x0 DUP2 PUSH1 0x40 MLOAD PUSH1 0x20 ADD PUSH2 0x20C SWAP2 SWAP1 PUSH2 0x41C JUMP JUMPDEST PUSH1 0x40 MLOAD PUSH1 0x20 DUP2 DUP4 SUB SUB DUP2 MSTORE SWAP1 PUSH1 0x40 MSTORE DUP1 MLOAD SWAP1 PUSH1 0x20 ADD KECCAK256 SWAP1 POP SWAP2 SWAP1 POP JUMP JUMPDEST PUSH1 0x60 PUSH1 0x0 CALLER PUSH1 0x0 SWAP1 DUP2 MSTORE PUSH1 0x20 DUP2 SWAP1 MSTORE PUSH1 0x40 SWAP1 KECCAK256 SLOAD PUSH1 0xFF AND PUSH1 0x4 DUP2 GT ISZERO PUSH2 0x251 JUMPI PUSH2 0x251 PUSH2 0x4A4 JUMP JUMPDEST EQ DUP1 PUSH2 0x280 JUMPI POP PUSH1 0x2 CALLER PUSH1 0x0 SWAP1 DUP2 MSTORE PUSH1 0x20 DUP2 SWAP1 MSTORE PUSH1 0x40 SWAP1 KECCAK256 SLOAD PUSH1 0xFF AND PUSH1 0x4 DUP2 GT ISZERO PUSH2 0x27E JUMPI PUSH2 0x27E PUSH2 0x4A4 JUMP JUMPDEST EQ JUMPDEST PUSH2 0x2DE JUMPI PUSH1 0x40 MLOAD PUSH3 0x461BCD PUSH1 0xE5 SHL DUP2 MSTORE PUSH1 0x20 PUSH1 0x4 DUP3 ADD MSTORE PUSH1 0x29 PUSH1 0x24 DUP3 ADD MSTORE PUSH32 0x596F7520617265206E6F7420746865206F776E6572206F722070726976617465 PUSH1 0x44 DUP3 ADD MSTORE PUSH9 0x10383937BB34B232B9 PUSH1 0xB9 SHL PUSH1 0x64 DUP3 ADD MSTORE PUSH1 0x84 ADD PUSH2 0x190 JUMP JUMPDEST PUSH1 0x5 DUP1 SLOAD DUP1 PUSH1 0x20 MUL PUSH1 0x20 ADD PUSH1 0x40 MLOAD SWAP1 DUP2 ADD PUSH1 0x40 MSTORE DUP1 SWAP3 SWAP2 SWAP1 DUP2 DUP2 MSTORE PUSH1 0x20 ADD DUP3 DUP1 SLOAD DUP1 ISZERO PUSH2 0x1EF JUMPI PUSH1 0x20 MUL DUP3 ADD SWAP2 SWAP1 PUSH1 0x0 MSTORE PUSH1 0x20 PUSH1 0x0 KECCAK256 SWAP1 DUP2 SLOAD PUSH1 0x1 PUSH1 0x1 PUSH1 0xA0 SHL SUB AND DUP2 MSTORE PUSH1 0x1 SWAP1 SWAP2 ADD SWAP1 PUSH1 0x20 ADD DUP1 DUP4 GT PUSH2 0x1D1 JUMPI POP POP POP POP POP SWAP1 POP SWAP1 JUMP JUMPDEST PUSH1 0x0 PUSH1 0x20 DUP3 DUP5 SUB SLT ISZERO PUSH2 0x34E JUMPI PUSH1 0x0 DUP1 REVERT JUMPDEST DUP2 CALLDATALOAD PUSH1 0x1 PUSH1 0x1 PUSH1 0xA0 SHL SUB DUP2 AND DUP2 EQ PUSH2 0x365 JUMPI PUSH1 0x0 DUP1 REVERT JUMPDEST SWAP4 SWAP3 POP POP POP JUMP JUMPDEST PUSH1 0x0 PUSH1 0x20 DUP3 DUP5 SUB SLT ISZERO PUSH2 0x37E JUMPI PUSH1 0x0 DUP1 REVERT JUMPDEST DUP2 CALLDATALOAD PUSH1 0x1 PUSH1 0x1 PUSH1 0x40 SHL SUB DUP1 DUP3 GT ISZERO PUSH2 0x395 JUMPI PUSH1 0x0 DUP1 REVERT JUMPDEST DUP2 DUP5 ADD SWAP2 POP DUP5 PUSH1 0x1F DUP4 ADD SLT PUSH2 0x3A9 JUMPI PUSH1 0x0 DUP1 REVERT JUMPDEST DUP2 CALLDATALOAD DUP2 DUP2 GT ISZERO PUSH2 0x3BB JUMPI PUSH2 0x3BB PUSH2 0x4BA JUMP JUMPDEST PUSH1 0x40 MLOAD PUSH1 0x1F DUP3 ADD PUSH1 0x1F NOT SWAP1 DUP2 AND PUSH1 0x3F ADD AND DUP2 ADD SWAP1 DUP4 DUP3 GT DUP2 DUP4 LT OR ISZERO PUSH2 0x3E3 JUMPI PUSH2 0x3E3 PUSH2 0x4BA JUMP JUMPDEST DUP2 PUSH1 0x40 MSTORE DUP3 DUP2 MSTORE DUP8 PUSH1 0x20 DUP5 DUP8 ADD ADD GT ISZERO PUSH2 0x3FC JUMPI PUSH1 0x0 DUP1 REVERT JUMPDEST DUP3 PUSH1 0x20 DUP7 ADD PUSH1 0x20 DUP4 ADD CALLDATACOPY PUSH1 0x0 SWAP3 DUP2 ADD PUSH1 0x20 ADD SWAP3 SWAP1 SWAP3 MSTORE POP SWAP6 SWAP5 POP POP POP POP POP JUMP JUMPDEST PUSH1 0x0 DUP3 MLOAD PUSH1 0x0 JUMPDEST DUP2 DUP2 LT ISZERO PUSH2 0x43D JUMPI PUSH1 0x20 DUP2 DUP7 ADD DUP2 ADD MLOAD DUP6 DUP4 ADD MSTORE ADD PUSH2 0x423 JUMP JUMPDEST DUP2 DUP2 GT ISZERO PUSH2 0x44C JUMPI PUSH1 0x0 DUP3 DUP6 ADD MSTORE JUMPDEST POP SWAP2 SWAP1 SWAP2 ADD SWAP3 SWAP2 POP POP JUMP JUMPDEST PUSH1 0x20 DUP1 DUP3 MSTORE DUP3 MLOAD DUP3 DUP3 ADD DUP2 SWAP1 MSTORE PUSH1 0x0 SWAP2 SWAP1 DUP5 DUP3 ADD SWAP1 PUSH1 0x40 DUP6 ADD SWAP1 DUP5 JUMPDEST DUP2 DUP2 LT ISZERO PUSH2 0x498 JUMPI DUP4 MLOAD PUSH1 0x1 PUSH1 0x1 PUSH1 0xA0 SHL SUB AND DUP4 MSTORE SWAP3 DUP5 ADD SWAP3 SWAP2 DUP5 ADD SWAP2 PUSH1 0x1 ADD PUSH2 0x473 JUMP JUMPDEST POP SWAP1 SWAP7 SWAP6 POP POP POP POP POP POP JUMP JUMPDEST PUSH4 0x4E487B71 PUSH1 0xE0 SHL PUSH1 0x0 MSTORE PUSH1 0x21 PUSH1 0x4 MSTORE PUSH1 0x24 PUSH1 0x0 REVERT JUMPDEST PUSH4 0x4E487B71 PUSH1 0xE0 SHL PUSH1 0x0 MSTORE PUSH1 0x41 PUSH1 0x4 MSTORE PUSH1 0x24 PUSH1 0x0 REVERT INVALID LOG2 PUSH5 0x6970667358 0x22 SLT KECCAK256 0xF7 PUSH26 0x46E46A31842C7F8A5850D6C144CF517560853CCC2AF95C550EB7 SWAP7 PUSH3 0x74B864 PUSH20 0x6F6C634300080700330000000000000000000000 "
		},
		"gasEstimates": {
			"creation": {
				"codeDepositCost": "257200",
				"executionCost": "300",
				"totalCost": "257500"
			},
			"external": {
				"getBalancePrivateToken(address)": "2566",
				"getBalancePublicToken(address)": "2500",
				"getBalanceSeedToken(address)": "2478",
				"get_blackList()": "infinite",
				"get_keccak256(string)": "infinite",
				"get_whiteList()": "infinite"
			}
		},
		"methodIdentifiers": {
			"getBalancePrivateToken(address)": "b06cdc12",
			"getBalancePublicToken(address)": "72f0d72b",
			"getBalanceSeedToken(address)": "2599d6d0",
			"get_blackList()": "7f89128f",
			"get_keccak256(string)": "8e4f8c6b",
			"get_whiteList()": "c10e3911"
		}
	},
	"abi": [
		{
			"inputs": [
				{
					"internalType": "address",
					"name": "_userAdr",
					"type": "address"
				}
			],
			"name": "getBalancePrivateToken",
			"outputs": [
				{
					"internalType": "uint256",
					"name": "",
					"type": "uint256"
				}
			],
			"stateMutability": "view",
			"type": "function"
		},
		{
			"inputs": [
				{
					"internalType": "address",
					"name": "_userAdr",
					"type": "address"
				}
			],
			"name": "getBalancePublicToken",
			"outputs": [
				{
					"internalType": "uint256",
					"name": "",
					"type": "uint256"
				}
			],
			"stateMutability": "view",
			"type": "function"
		},
		{
			"inputs": [
				{
					"internalType": "address",
					"name": "_userAdr",
					"type": "address"
				}
			],
			"name": "getBalanceSeedToken",
			"outputs": [
				{
					"internalType": "uint256",
					"name": "",
					"type": "uint256"
				}
			],
			"stateMutability": "view",
			"type": "function"
		},
		{
			"inputs": [],
			"name": "get_blackList",
			"outputs": [
				{
					"internalType": "address[]",
					"name": "",
					"type": "address[]"
				}
			],
			"stateMutability": "view",
			"type": "function"
		},
		{
			"inputs": [
				{
					"internalType": "string",
					"name": "_hash",
					"type": "string"
				}
			],
			"name": "get_keccak256",
			"outputs": [
				{
					"internalType": "bytes32",
					"name": "",
					"type": "bytes32"
				}
			],
			"stateMutability": "pure",
			"type": "function"
		},
		{
			"inputs": [],
			"name": "get_whiteList",
			"outputs": [
				{
					"internalType": "address[]",
					"name": "",
					"type": "address[]"
				}
			],
			"stateMutability": "view",
			"type": "function"
		}
	]
}