{
	"data": {
		"bytecode": {
			"linkReferences": {},
			"object": "6080604052632cb41780600255620186a0600355600980546001600160a01b03199081167378731d3ca6b7e34ac0f824c42a7cc18a495cabab17909155600a8054821673617f2e2fd72fd9d5503197092ac168c91465e7f2179055600b80549091167317f6ad8ef982297579c203069c1dbffe4348c3721790553480156200008657600080fd5b506040516200475338038062004753833981016040819052620000a99162001118565b6040805160e08101909152806003815260200160405180604001604052806009815260200168496e766573746f723160b81b81525081526020016200011060405180604001604052806004815260200163199a189960e11b81525062000a8060201b60201c565b81526000602080830182905260408084018390526060840183905260809093018290526009546001600160a01b031682528190522081518154829060ff191660018360048111156200016657620001666200120e565b0217905550602082810151805162000185926001850192019062001072565b50604082810151600283015560608301516003808401919091556080840151600484015560a0840151600584015560c09093015160069092019190915560095460078054600181018255600091909152600080516020620047138339815191520180546001600160a01b0319166001600160a01b03909216919091179055805160e08101909152908190815260200160405180604001604052806009815260200168496e766573746f723160b81b815250815260200162000268604051806040016040528060048152602001633134323360e01b81525062000a8060201b60201c565b8152600060208083018290526040808401839052606084018390526080909301829052600a546001600160a01b031682528190522081518154829060ff19166001836004811115620002be57620002be6200120e565b02179055506020828101518051620002dd926001850192019062001072565b50604082810151600283015560608301516003808401919091556080840151600484015560a0840151600584015560c090930151600690920191909155600a5460078054600181018255600091909152600080516020620047138339815191520180546001600160a01b0319166001600160a01b03909216919091179055805160e0810190915290819081526020016040518060400160405280600b81526020016a10995cdd08199c9a595b9960aa1b8152508152602001620003c2604051806040016040528060048152602001630c8ccc4d60e21b81525062000a8060201b60201c565b8152600060208083018290526040808401839052606084018390526080909301829052600b546001600160a01b031682528190522081518154829060ff191660018360048111156200041857620004186200120e565b0217905550602082810151805162000437926001850192019062001072565b506040828101516002830155606083015160038301556080830151600483015560a0830151600583015560c090920151600690910155600b54600780546001810182556000918252600080516020620047138339815191520180546001600160a01b0319166001600160a01b0390931692909217909155600c839055815160e08101909252819081526020016040518060400160405280600581526020016437bbb732b960d91b81525081526020016200051360405180604001604052806004815260200163199a189960e11b81525062000a8060201b60201c565b8152600c54602080830191909152600060408301819052606083018190526080909201829052735b38da6a701c568545dcfcb03fcb875f56beddc482525280517f58f8e73c330daffe64653449eb9a999c1162911d5129dd8193c7233d46ade2d58054909190829060ff191660018360048111156200059657620005966200120e565b02179055506020828101518051620005b5926001850192019062001072565b50604082810151600280840191909155606084015160038401556080840151600484015560a0840151600584015560c09093015160069092019190915560078054600181018255600091909152600080516020620047138339815191520180546001600160a01b031916735b38da6a701c568545dcfcb03fcb875f56beddc4179055805160e0810190915290819081526020016040518060400160405280601081526020016f283934bb30ba3290383937bb34b232b960811b8152508152602001620006a3604051806040016040528060048152602001633134323360e01b81525062000a8060201b60201c565b8152600060208083018290526040830182905260608301829052608090920181905273ab8483f64d9c6d1ecf9b849ae677dd3315835cb28152905280517f1a1017a437881fd8fee8ab135586d886995df9286bd91e5d3c250f79b2327f028054909190829060ff191660018360048111156200072357620007236200120e565b0217905550602082810151805162000742926001850192019062001072565b50604082810151600283015560608301516003830155608083015160048084019190915560a0840151600584015560c090930151600690920191909155600780546001808201909255600080516020620047138339815191520180546001600160a01b03191673ab8483f64d9c6d1ecf9b849ae677dd3315835cb2908117909155600c547fb5c17ce678460fe5376e73818b3d7f6ccf68974fe9e3c68037dceda99f06535c558251808401845260008082526020808301828152939091528581529051600080516020620046f38339815191528054935115156101000261ff00199215159290921661ffff199094169390931717909155825160e08101845291825282518084018452600f81526e283ab13634b190383937bb34b232b960891b818301528282015282518084018452938452630c8ccc4d60e21b908401529190820190620008909062000a80565b81526000602080830182905260408301829052606083018290526080909201819052734b20993bc481177ec7e8f571cecae8a9e22c02db8152905280517fbc67542bfa83c3e43faa1ce49daa83c7bb0610df1c8f6899b8fbb170f5c183ee8054909190829060ff191660018360048111156200091057620009106200120e565b021790555060208281015180516200092f926001850192019062001072565b50604082810151600283015560608301516003830155608083015160048084019190915560a0840151600584015560c0909301516006909201919091556007805460018101909155600080516020620047138339815191520180546001600160a01b031916734b20993bc481177ec7e8f571cecae8a9e22c02db908117909155600c547f54f84ff0e2ba30c1157bc53602130e83ff4c3c5f51616a31cf68834e1f3b498555815180830190925260008083526020838101828152929091529290925251600080516020620047338339815191528054925115156101000261ff00199215159290921661ffff199093169290921717905560095462000a40906001600160a01b0316620927c062000ab2565b50600a5462000a5c906001600160a01b0316620c350062000ab2565b50600b5462000a78906001600160a01b031662061a8062000ab2565b505062001224565b60008160405160200162000a95919062001132565b604051602081830303815290604052805190602001209050919050565b600062000abe62000fe9565b15156001141562000ce2573360009081526020819052604090206003015482111562000ae957600080fd5b336000908152602081815260409091206003015462000b1391849062002df962001026821b17901c565b3360009081526020818152604082206003019290925573ab8483f64d9c6d1ecf9b849ae677dd3315835cb2905260049052600080516020620046f38339815191525460ff1615156001141562000bb8576001600160a01b0383166000908152602081815260409091206005015462000b9691849062002e156200104e821b17901c565b6001600160a01b03841660009081526020819052604090206005015562000c99565b734b20993bc481177ec7e8f571cecae8a9e22c02db6000526004602052600080516020620047338339815191525460ff1615156001141562000c49576001600160a01b0383166000908152602081815260409091206006015462000c2791849062002e156200104e821b17901c565b6001600160a01b03841660009081526020819052604090206006015562000c99565b6001600160a01b0383166000908152602081815260409091206004015462000c7c91849062002e156200104e821b17901c565b6001600160a01b0384166000908152602081905260409020600401555b6040518281526001600160a01b0384169033907fddf252ad1be2c89b69c2b068fc378daa952ba7f163c4a11628f55a4df523b3ef9060200160405180910390a350600162000fe3565b73ab8483f64d9c6d1ecf9b849ae677dd3315835cb26000526004602052600080516020620046f38339815191525460ff1615156001141562000daa573360009081526020819052604090206005015482111562000d3e57600080fd5b336000908152602081815260409091206005015462000d6891849062002df962001026821b17901c565b336000908152602081815260408083206005908101949094556001600160a01b03871683529091209091015462000b9691849062002e156200104e821b17901c565b734b20993bc481177ec7e8f571cecae8a9e22c02db6000526004602052600080516020620047338339815191525460ff1615156001141562000e72573360009081526020819052604090206006015482111562000e0657600080fd5b336000908152602081815260409091206006015462000e3091849062002df962001026821b17901c565b336000908152602081815260408083206006908101949094556001600160a01b03871683529091209091015462000c2791849062002e156200104e821b17901c565b3360009081526020819052604090206004015482111562000e9257600080fd5b60033360009081526020819052604090205460ff16600481111562000ebb5762000ebb6200120e565b1462000f025760405162461bcd60e51b81526020600482015260116024820152702cb7bab9103737ba1034b73b32b9ba37b960791b60448201526064015b60405180910390fd5b60036001600160a01b03841660009081526020819052604090205460ff16600481111562000f345762000f346200120e565b1462000f775760405162461bcd60e51b81526020600482015260116024820152702cb7bab9103737ba1034b73b32b9ba37b960791b604482015260640162000ef9565b336000908152602081815260409091206004015462000fa191849062002df962001026821b17901c565b336000908152602081815260408083206004908101949094556001600160a01b03871683529091209091015462000c7c91849062002e156200104e821b17901c565b92915050565b6000803360009081526020819052604090205460ff1660048111156200101357620010136200120e565b1415620010205750600190565b50600090565b6000828211156200103b576200103b620011e2565b6200104782846200118b565b9392505050565b6000806200105d838562001170565b905083811015620010475762001047620011e2565b8280546200108090620011a5565b90600052602060002090601f016020900481019282620010a45760008555620010ef565b82601f10620010bf57805160ff1916838001178555620010ef565b82800160010185558215620010ef579182015b82811115620010ef578251825591602001919060010190620010d2565b50620010fd92915062001101565b5090565b5b80821115620010fd576000815560010162001102565b6000602082840312156200112b57600080fd5b5051919050565b6000825160005b8181101562001155576020818601810151858301520162001139565b8181111562001165576000828501525b509190910192915050565b60008219821115620011865762001186620011f8565b500190565b600082821015620011a057620011a0620011f8565b500390565b600181811c90821680620011ba57607f821691505b60208210811415620011dc57634e487b7160e01b600052602260045260246000fd5b50919050565b634e487b7160e01b600052600160045260246000fd5b634e487b7160e01b600052601160045260246000fd5b634e487b7160e01b600052602160045260246000fd5b6134bf80620012346000396000f3fe6080604052600436106101ac5760003560e01c806372f0d72b116100ec57806395d89b411161008a578063b06cdc1211610064578063b06cdc121461052e578063c10e391114610574578063d96a094a14610589578063dd62ed3e146105aa57600080fd5b806395d89b41146104a5578063a678b65b146104ee578063a9059cbb1461050e57600080fd5b80637f89128f116100c65780637f89128f1461043a5780638aa7cc0b1461044f5780638e4f8c6b1461046f578063948942ad1461048f57600080fd5b806372f0d72b146103bf578063785963c3146104055780637f4b8df01461042557600080fd5b80631d3eea3511610159578063313ce56711610133578063313ce5671461033657806332cbdd031461035d578063686c4cea1461037d57806370a082311461039f57600080fd5b80631d3eea35146102b057806323b872dd146102d05780632599d6d0146102f057600080fd5b8063095ea7b31161018a578063095ea7b31461024b5780630ecb93c01461027b57806318160ddd1461029b57600080fd5b80630691615d146101b157806306fdde03146101c85780630761c8b914610227575b600080fd5b3480156101bd57600080fd5b506101c66105fd565b005b3480156101d457600080fd5b506102116040518060400160405280600d81526020017f43727970746f4d6f6e737465720000000000000000000000000000000000000081525081565b60405161021e919061322e565b60405180910390f35b34801561023357600080fd5b5061023d60025481565b60405190815260200161021e565b34801561025757600080fd5b5061026b61026636600461305f565b6107b1565b604051901515815260200161021e565b34801561028757600080fd5b506101c6610296366004612fd5565b61082b565b3480156102a757600080fd5b50600c5461023d565b3480156102bc57600080fd5b506101c66102cb366004612fd5565b61092d565b3480156102dc57600080fd5b5061026b6102eb366004613023565b610a9f565b3480156102fc57600080fd5b5061023d61030b366004612fd5565b73ffffffffffffffffffffffffffffffffffffffff1660009081526020819052604090206004015490565b34801561034257600080fd5b5061034b600c81565b60405160ff909116815260200161021e565b34801561036957600080fd5b506101c661037836600461313a565b611267565b34801561038957600080fd5b506103926112f9565b60405161021e91906131b9565b3480156103ab57600080fd5b5061023d6103ba366004612fd5565b6113f5565b3480156103cb57600080fd5b5061023d6103da366004612fd5565b73ffffffffffffffffffffffffffffffffffffffff1660009081526020819052604090206006015490565b34801561041157600080fd5b506101c66104203660046130c6565b611556565b34801561043157600080fd5b506101c6611baf565b34801561044657600080fd5b50610392611dda565b34801561045b57600080fd5b506101c661046a36600461313a565b611ed4565b34801561047b57600080fd5b5061023d61048a366004613089565b611f61565b34801561049b57600080fd5b5061023d60035481565b3480156104b157600080fd5b506102116040518060400160405280600481526020017f434d4f4e0000000000000000000000000000000000000000000000000000000081525081565b3480156104fa57600080fd5b506101c6610509366004612fd5565b611f91565b34801561051a57600080fd5b5061026b61052936600461305f565b61234c565b34801561053a57600080fd5b5061023d610549366004612fd5565b73ffffffffffffffffffffffffffffffffffffffff1660009081526020819052604090206005015490565b34801561058057600080fd5b506103926128f8565b61059c61059736600461313a565b612a46565b60405161021e929190613213565b3480156105b657600080fd5b5061023d6105c5366004612ff0565b73ffffffffffffffffffffffffffffffffffffffff918216600090815260016020908152604080832093909416825291909152205490565b60023360009081526020819052604090205460ff166004811115610623576106236133c8565b1461068f576040517f08c379a000000000000000000000000000000000000000000000000000000000815260206004820152601960248201527f596f7572206e6f7420507269766174652070726f76696465720000000000000060448201526064015b60405180910390fd5b3360009081526004602052604090205460ff161580156106c4575033600090815260046020526040902054610100900460ff16155b61072a576040517f08c379a000000000000000000000000000000000000000000000000000000000815260206004820152601460248201527f506861736520616c7265616479206163746976650000000000000000000000006044820152606401610686565b604080518082018252600180825260208083019182523360009081526004909152929092209051815492517fffffffffffffffffffffffffffffffffffffffffffffffffffffffffffff00009093169015157fffffffffffffffffffffffffffffffffffffffffffffffffffffffffffff00ff161761010092151592909202919091179055565b33600081815260016020908152604080832073ffffffffffffffffffffffffffffffffffffffff8716808552925280832085905551919290917f8c5be1e5ebec7d5bd14f71427d1e84f3dd0314c0f7b2291e5b200ac8c7c3b925906108199086815260200190565b60405180910390a35060015b92915050565b3360009081526020819052604081205460ff16600481111561084f5761084f6133c8565b146108b6576040517f08c379a000000000000000000000000000000000000000000000000000000000815260206004820152600e60248201527f596f7572206e6f742061646d696e0000000000000000000000000000000000006044820152606401610686565b600880546001810182556000919091527ff3f7a9fe364faab93b216da50a3214154f22a0a2b415b23a84c8169e8b636ee30180547fffffffffffffffffffffffff00000000000000000000000000000000000000001673ffffffffffffffffffffffffffffffffffffffff92909216919091179055565b60023360009081526020819052604090205460ff166004811115610953576109536133c8565b146109ba576040517f08c379a000000000000000000000000000000000000000000000000000000000815260206004820152601960248201527f596f7572206e6f7420507269766174652070726f7669646572000000000000006044820152606401610686565b336000908152600560205260409020600201547501000000000000000000000000000000000000000000900460ff1615610a50576040517f08c379a000000000000000000000000000000000000000000000000000000000815260206004820152601c60248201527f52657669657720746865206170706c69636174696f6e206669727374000000006044820152606401610686565b73ffffffffffffffffffffffffffffffffffffffff16600090815260056020526040902060020180547fffffffffffffffffffffff00ffffffffffffffffffffffffffffffffffffffff169055565b60008073ffffffffffffffffffffffffffffffffffffffff851660009081526020819052604090205460ff166004811115610adc57610adc6133c8565b1415610e235773ffffffffffffffffffffffffffffffffffffffff8416600090815260208190526040902060030154821115610b1757600080fd5b73ffffffffffffffffffffffffffffffffffffffff84166000908152600160209081526040808320338452909152902054821115610b5457600080fd5b73ffffffffffffffffffffffffffffffffffffffff8416600090815260208190526040902060030154610b879083612df9565b73ffffffffffffffffffffffffffffffffffffffff8516600090815260208181526040808320600301939093556001815282822033835290522054610bcc9083612df9565b73ffffffffffffffffffffffffffffffffffffffff85166000908152600160208181526040808420338552825283209390935573ab8483f64d9c6d1ecf9b849ae677dd3315835cb290915260049091527f02e472438281ece9fae629c31ebc952b0b512971efb1bacfc7d4441c586cff6c5460ff1615151415610caa5773ffffffffffffffffffffffffffffffffffffffff8316600090815260208190526040902060050154610c7c9083612e15565b73ffffffffffffffffffffffffffffffffffffffff8416600090815260208190526040902060050155610db4565b734b20993bc481177ec7e8f571cecae8a9e22c02db60005260046020527fb9fe4b740977877e3fa94e7f3dbf51ffcc3fb0449ed024e5d3849f3210d562205460ff16151560011415610d575773ffffffffffffffffffffffffffffffffffffffff8316600090815260208190526040902060060154610d299083612e15565b73ffffffffffffffffffffffffffffffffffffffff8416600090815260208190526040902060060155610db4565b73ffffffffffffffffffffffffffffffffffffffff8316600090815260208190526040902060040154610d8a9083612e15565b73ffffffffffffffffffffffffffffffffffffffff84166000908152602081905260409020600401555b8273ffffffffffffffffffffffffffffffffffffffff168473ffffffffffffffffffffffffffffffffffffffff167fddf252ad1be2c89b69c2b068fc378daa952ba7f163c4a11628f55a4df523b3ef84604051610e1391815260200190565b60405180910390a3506001611260565b73ab8483f64d9c6d1ecf9b849ae677dd3315835cb260005260046020527f02e472438281ece9fae629c31ebc952b0b512971efb1bacfc7d4441c586cff6c5460ff16151560011415610fa65773ffffffffffffffffffffffffffffffffffffffff8416600090815260208190526040902060050154821115610ea457600080fd5b73ffffffffffffffffffffffffffffffffffffffff84166000908152600160209081526040808320338452909152902054821115610ee157600080fd5b73ffffffffffffffffffffffffffffffffffffffff8416600090815260208190526040902060050154610f149083612df9565b73ffffffffffffffffffffffffffffffffffffffff8516600090815260208181526040808320600501939093556001815282822033835290522054610f599083612df9565b73ffffffffffffffffffffffffffffffffffffffff80861660009081526001602090815260408083203384528252808320949094559186168152908190522060050154610c7c9083612e15565b734b20993bc481177ec7e8f571cecae8a9e22c02db60005260046020527fb9fe4b740977877e3fa94e7f3dbf51ffcc3fb0449ed024e5d3849f3210d562205460ff161515600114156111295773ffffffffffffffffffffffffffffffffffffffff841660009081526020819052604090206006015482111561102757600080fd5b73ffffffffffffffffffffffffffffffffffffffff8416600090815260016020908152604080832033845290915290205482111561106457600080fd5b73ffffffffffffffffffffffffffffffffffffffff84166000908152602081905260409020600601546110979083612df9565b73ffffffffffffffffffffffffffffffffffffffff85166000908152602081815260408083206006019390935560018152828220338352905220546110dc9083612df9565b73ffffffffffffffffffffffffffffffffffffffff80861660009081526001602090815260408083203384528252808320949094559186168152908190522060060154610d299083612e15565b73ffffffffffffffffffffffffffffffffffffffff841660009081526020819052604090206004015482111561115e57600080fd5b73ffffffffffffffffffffffffffffffffffffffff8416600090815260016020908152604080832033845290915290205482111561119b57600080fd5b73ffffffffffffffffffffffffffffffffffffffff84166000908152602081905260409020600401546111ce9083612df9565b73ffffffffffffffffffffffffffffffffffffffff85166000908152602081815260408083206004019390935560018152828220338352905220546112139083612df9565b73ffffffffffffffffffffffffffffffffffffffff80861660009081526001602090815260408083203384528252808320949094559186168152908190522060040154610d8a9083612e15565b9392505050565b60013360009081526020819052604090205460ff16600481111561128d5761128d6133c8565b146112f4576040517f08c379a000000000000000000000000000000000000000000000000000000000815260206004820152601860248201527f596f7572206e6f74205075626c69632070726f766964657200000000000000006044820152606401610686565b600255565b606060023360009081526020819052604090205460ff166004811115611321576113216133c8565b14611388576040517f08c379a000000000000000000000000000000000000000000000000000000000815260206004820152601960248201527f596f7572206e6f7420507269766174652070726f7669646572000000000000006044820152606401610686565b60068054806020026020016040519081016040528092919081815260200182805480156113eb57602002820191906000526020600020905b815473ffffffffffffffffffffffffffffffffffffffff1681526001909101906020018083116113c0575b5050505050905090565b60006113ff612e34565b151560011415611435575073ffffffffffffffffffffffffffffffffffffffff1660009081526020819052604090206003015490565b73ab8483f64d9c6d1ecf9b849ae677dd3315835cb260005260046020527f02e472438281ece9fae629c31ebc952b0b512971efb1bacfc7d4441c586cff6c5460ff161515600114156114ad575073ffffffffffffffffffffffffffffffffffffffff1660009081526020819052604090206005015490565b734b20993bc481177ec7e8f571cecae8a9e22c02db60005260046020527fb9fe4b740977877e3fa94e7f3dbf51ffcc3fb0449ed024e5d3849f3210d562205460ff16151560011415611525575073ffffffffffffffffffffffffffffffffffffffff1660009081526020819052604090206006015490565b5073ffffffffffffffffffffffffffffffffffffffff1660009081526020819052604090206004015490565b919050565b3360009081526020819052604081205460ff16600481111561157a5761157a6133c8565b1415806115ab575060013360009081526020819052604090205460ff1660048111156115a8576115a86133c8565b14155b806115da575060023360009081526020819052604090205460ff1660048111156115d7576115d76133c8565b14155b80611609575060033360009081526020819052604090205460ff166004811115611606576116066133c8565b14155b611695576040517f08c379a000000000000000000000000000000000000000000000000000000000815260206004820152603260248201527f4170706c69636174696f6e2063616e206f6e6c79206265207375626d6974746560448201527f6420627920726567756c617220757365727300000000000000000000000000006064820152608401610686565b73ab8483f64d9c6d1ecf9b849ae677dd3315835cb2600090815260046020527f02e472438281ece9fae629c31ebc952b0b512971efb1bacfc7d4441c586cff6c5460ff16158015611725575073ab8483f64d9c6d1ecf9b849ae677dd3315835cb260005260046020527f02e472438281ece9fae629c31ebc952b0b512971efb1bacfc7d4441c586cff6c5460ff16155b61178b576040517f08c379a000000000000000000000000000000000000000000000000000000000815260206004820152601760248201527f4170706c69636174696f6e20706861736520656e6465640000000000000000006044820152606401610686565b3373ffffffffffffffffffffffffffffffffffffffff831614611830576040517f08c379a000000000000000000000000000000000000000000000000000000000815260206004820152603760248201527f596f752063616e27742073656e6420616e206170706c69636174696f6e20746f60448201527f20736f6d656f6e6520656c7365277320616464726573730000000000000000006064820152608401610686565b60005b60065481101561190e573373ffffffffffffffffffffffffffffffffffffffff1660068281548110611867576118676133f7565b60009182526020909120015473ffffffffffffffffffffffffffffffffffffffff16141561189457600191505b81156118fc576040517f08c379a000000000000000000000000000000000000000000000000000000000815260206004820152601860248201527f4170706c69636174696f6e20616c72656164792073656e7400000000000000006044820152606401610686565b8061190681613331565b915050611833565b503360009081526005602052604090206002015474010000000000000000000000000000000000000000900460ff16156119ca576040517f08c379a000000000000000000000000000000000000000000000000000000000815260206004820152602a60248201527f596f7572206170706c69636174696f6e2068617320616c72656164792062656560448201527f6e2072656a6563746564000000000000000000000000000000000000000000006064820152608401610686565b6040805160c081018252858152602080820186905273ffffffffffffffffffffffffffffffffffffffff85168284015260016060830181905260006080840181905260a084019190915233815260058252929092208151805192939192611a349284920190612e6d565b506020828101518051611a4d9260018501920190612e6d565b506040820151600290910180546060840151608085015160a0909501511515760100000000000000000000000000000000000000000000027fffffffffffffffffff00ffffffffffffffffffffffffffffffffffffffffffff951515750100000000000000000000000000000000000000000002959095167fffffffffffffffffff0000ffffffffffffffffffffffffffffffffffffffffff91151574010000000000000000000000000000000000000000027fffffffffffffffffffffff00000000000000000000000000000000000000000090931673ffffffffffffffffffffffffffffffffffffffff909516949094179190911716919091179190911790555050600680546001810182556000919091527ff652222313e28459528d920b65115c16c04f3efc82aaedc97be59f3f377c0d3f0180547fffffffffffffffffffffffff000000000000000000000000000000000000000016331790555050565b60023360009081526020819052604090205460ff166004811115611bd557611bd56133c8565b14611c3c576040517f08c379a000000000000000000000000000000000000000000000000000000000815260206004820152601960248201527f596f7572206e6f7420507269766174652070726f7669646572000000000000006044820152606401610686565b3360009081526004602052604090205460ff1615156001148015611c7a57503360009081526004602052604090205460ff6101009091041615156001145b611ce0576040517f08c379a000000000000000000000000000000000000000000000000000000000815260206004820181905260248201527f506861736520686173206e6f7420796574206265656e206163746976617465646044820152606401610686565b604080518082018252600080825260016020808401828152338452600480835286852095518654925115156101009081027fffffffffffffffffffffffffffffffffffffffffffffffffffffffffffff00ff92151583167fffffffffffffffffffffffffffffffffffffffffffffffffffffffffffff000095861617179097558751808901909852848852878401948552734b20993bc481177ec7e8f571cecae8a9e22c02db90955290915293517fb9fe4b740977877e3fa94e7f3dbf51ffcc3fb0449ed024e5d3849f3210d56220805492511515909402901515909216931692909217919091179055633b9aca00600255611388600355565b606060003360009081526020819052604090205460ff166004811115611e0257611e026133c8565b14611e69576040517f08c379a000000000000000000000000000000000000000000000000000000000815260206004820152600e60248201527f596f7572206e6f742061646d696e0000000000000000000000000000000000006044820152606401610686565b60088054806020026020016040519081016040528092919081815260200182805480156113eb5760200282019190600052602060002090815473ffffffffffffffffffffffffffffffffffffffff1681526001909101906020018083116113c0575050505050905090565b60023360009081526020819052604090205460ff166004811115611efa57611efa6133c8565b146112f4576040517f08c379a000000000000000000000000000000000000000000000000000000000815260206004820152601960248201527f596f7572206e6f7420507269766174652070726f7669646572000000000000006044820152606401610686565b600081604051602001611f74919061319d565b604051602081830303815290604052805190602001209050919050565b60023360009081526020819052604090205460ff166004811115611fb757611fb76133c8565b1461201e576040517f08c379a000000000000000000000000000000000000000000000000000000000815260206004820152601960248201527f596f7572206e6f7420507269766174652070726f7669646572000000000000006044820152606401610686565b336000908152600560205260409020600201547501000000000000000000000000000000000000000000900460ff16156120b4576040517f08c379a000000000000000000000000000000000000000000000000000000000815260206004820152601c60248201527f52657669657720746865206170706c69636174696f6e206669727374000000006044820152606401610686565b73ffffffffffffffffffffffffffffffffffffffff811660008181526005602081815260408084206002810180547fffffffffffffffffffffff00ffffffffffffffffffffffffffffffffffffffff1690556006805460018181019092557ff652222313e28459528d920b65115c16c04f3efc82aaedc97be59f3f377c0d3f0180547fffffffffffffffffffffffff000000000000000000000000000000000000000090811689179091556007805492830190557fa66cc928b5edb82af9bd49922954155ab7b0942694bea4ce44661d9a8736c688909101805490911687179055815160e08101909252600482529490935290815282549192908301916121ba906132dd565b80601f01602080910402602001604051908101604052809291908181526020018280546121e6906132dd565b80156122335780601f1061220857610100808354040283529160200191612233565b820191906000526020600020905b81548152906001019060200180831161221657829003601f168201915b5050505050815260200161227b6040518060400160405280600181526020017f3000000000000000000000000000000000000000000000000000000000000000815250611f61565b815260006020808301829052604080840183905260608401839052608090930182905273ffffffffffffffffffffffffffffffffffffffff85168252819052208151815482907fffffffffffffffffffffffffffffffffffffffffffffffffffffffffffffff001660018360048111156122f7576122f76133c8565b021790555060208281015180516123149260018501920190612e6d565b5060408201516002820155606082015160038201556080820151600482015560a0820151600582015560c09091015160069091015550565b6000612356612e34565b1515600114156125bc573360009081526020819052604090206003015482111561237f57600080fd5b3360009081526020819052604090206003015461239c9083612df9565b3360009081526020818152604082206003019290925573ab8483f64d9c6d1ecf9b849ae677dd3315835cb29052600490527f02e472438281ece9fae629c31ebc952b0b512971efb1bacfc7d4441c586cff6c5460ff1615156001141561245d5773ffffffffffffffffffffffffffffffffffffffff831660009081526020819052604090206005015461242f9083612e15565b73ffffffffffffffffffffffffffffffffffffffff8416600090815260208190526040902060050155612567565b734b20993bc481177ec7e8f571cecae8a9e22c02db60005260046020527fb9fe4b740977877e3fa94e7f3dbf51ffcc3fb0449ed024e5d3849f3210d562205460ff1615156001141561250a5773ffffffffffffffffffffffffffffffffffffffff83166000908152602081905260409020600601546124dc9083612e15565b73ffffffffffffffffffffffffffffffffffffffff8416600090815260208190526040902060060155612567565b73ffffffffffffffffffffffffffffffffffffffff831660009081526020819052604090206004015461253d9083612e15565b73ffffffffffffffffffffffffffffffffffffffff84166000908152602081905260409020600401555b60405182815273ffffffffffffffffffffffffffffffffffffffff84169033907fddf252ad1be2c89b69c2b068fc378daa952ba7f163c4a11628f55a4df523b3ef9060200160405180910390a3506001610825565b73ab8483f64d9c6d1ecf9b849ae677dd3315835cb260005260046020527f02e472438281ece9fae629c31ebc952b0b512971efb1bacfc7d4441c586cff6c5460ff16151560011415612684573360009081526020819052604090206005015482111561262757600080fd5b336000908152602081905260409020600501546126449083612df9565b3360009081526020819052604080822060059081019390935573ffffffffffffffffffffffffffffffffffffffff861682529020015461242f9083612e15565b734b20993bc481177ec7e8f571cecae8a9e22c02db60005260046020527fb9fe4b740977877e3fa94e7f3dbf51ffcc3fb0449ed024e5d3849f3210d562205460ff1615156001141561274c57336000908152602081905260409020600601548211156126ef57600080fd5b3360009081526020819052604090206006015461270c9083612df9565b3360009081526020819052604080822060069081019390935573ffffffffffffffffffffffffffffffffffffffff86168252902001546124dc9083612e15565b3360009081526020819052604090206004015482111561276b57600080fd5b60033360009081526020819052604090205460ff166004811115612791576127916133c8565b146127f8576040517f08c379a000000000000000000000000000000000000000000000000000000000815260206004820152601160248201527f596f7572206e6f7420696e766573746f720000000000000000000000000000006044820152606401610686565b600373ffffffffffffffffffffffffffffffffffffffff841660009081526020819052604090205460ff166004811115612834576128346133c8565b1461289b576040517f08c379a000000000000000000000000000000000000000000000000000000000815260206004820152601160248201527f596f7572206e6f7420696e766573746f720000000000000000000000000000006044820152606401610686565b336000908152602081905260409020600401546128b89083612df9565b3360009081526020819052604080822060049081019390935573ffffffffffffffffffffffffffffffffffffffff861682529020015461253d9083612e15565b606060003360009081526020819052604090205460ff166004811115612920576129206133c8565b148061294f575060023360009081526020819052604090205460ff16600481111561294d5761294d6133c8565b145b6129db576040517f08c379a000000000000000000000000000000000000000000000000000000000815260206004820152602960248201527f596f7520617265206e6f7420746865206f776e6572206f72207072697661746560448201527f2070726f766964657200000000000000000000000000000000000000000000006064820152608401610686565b60078054806020026020016040519081016040528092919081815260200182805480156113eb5760200282019190600052602060002090815473ffffffffffffffffffffffffffffffffffffffff1681526001909101906020018083116113c0575050505050905090565b60006060600354831115612ab6576040517f08c379a000000000000000000000000000000000000000000000000000000000815260206004820152600f60248201527f546f6f206d616e7920746f6b656e7300000000000000000000000000000000006044820152606401610686565b600254612ac39084613259565b3414612b2b576040517f08c379a000000000000000000000000000000000000000000000000000000000815260206004820181905260248201527f4e65656420746f2073656e6420657861637420616d6f756e74206f66207765696044820152606401610686565b612b33612e34565b151560011415612bb15733600090815260208190526040902060030154612b5a9084612e15565b3360009081526020818152604091829020600301929092558051808201909152601281527f596f7520626f75676874206120746f6b656e000000000000000000000000000091810191909152600194909350915050565b73ab8483f64d9c6d1ecf9b849ae677dd3315835cb260005260046020527f02e472438281ece9fae629c31ebc952b0b512971efb1bacfc7d4441c586cff6c5460ff16151560011415612d15576000805b600754811015612cd25760078181548110612c1e57612c1e6133f7565b60009182526020909120015473ffffffffffffffffffffffffffffffffffffffff16915033821415612cc05733600090815260208190526040902060050154612c679086612e15565b3360009081526020818152604091829020600501929092558051808201909152601281527f596f7520626f75676874206120746f6b656e0000000000000000000000000000918101919091526001969095509350505050565b80612cca81613331565b915050612c01565b5060006040518060400160405280601b81526020017f55736572206e6f7420666f756e6420696e2077686974656c69737400000000008152509250925050915091565b734b20993bc481177ec7e8f571cecae8a9e22c02db60005260046020527fb9fe4b740977877e3fa94e7f3dbf51ffcc3fb0449ed024e5d3849f3210d562205460ff16151560011415612dd55733600090815260208190526040902060060154612d7e9084612e15565b3360009081526020818152604091829020600601929092558051808201909152601281527f596f7520626f75676874206120746f6b656e000000000000000000000000000091810191909152600194909350915050565b60016040518060600160405280603481526020016134566034913991509150915091565b600082821115612e0b57612e0b61336a565b6112608284613296565b600080612e228385613241565b9050838110156112605761126061336a565b6000803360009081526020819052604090205460ff166004811115612e5b57612e5b6133c8565b1415612e675750600190565b50600090565b828054612e79906132dd565b90600052602060002090601f016020900481019282612e9b5760008555612ee1565b82601f10612eb457805160ff1916838001178555612ee1565b82800160010185558215612ee1579182015b82811115612ee1578251825591602001919060010190612ec6565b50612eed929150612ef1565b5090565b5b80821115612eed5760008155600101612ef2565b803573ffffffffffffffffffffffffffffffffffffffff8116811461155157600080fd5b600082601f830112612f3b57600080fd5b813567ffffffffffffffff80821115612f5657612f56613426565b604051601f83017fffffffffffffffffffffffffffffffffffffffffffffffffffffffffffffffe0908116603f01168101908282118183101715612f9c57612f9c613426565b81604052838152866020858801011115612fb557600080fd5b836020870160208301376000602085830101528094505050505092915050565b600060208284031215612fe757600080fd5b61126082612f06565b6000806040838503121561300357600080fd5b61300c83612f06565b915061301a60208401612f06565b90509250929050565b60008060006060848603121561303857600080fd5b61304184612f06565b925061304f60208501612f06565b9150604084013590509250925092565b6000806040838503121561307257600080fd5b61307b83612f06565b946020939093013593505050565b60006020828403121561309b57600080fd5b813567ffffffffffffffff8111156130b257600080fd5b6130be84828501612f2a565b949350505050565b6000806000606084860312156130db57600080fd5b833567ffffffffffffffff808211156130f357600080fd5b6130ff87838801612f2a565b9450602086013591508082111561311557600080fd5b5061312286828701612f2a565b92505061313160408501612f06565b90509250925092565b60006020828403121561314c57600080fd5b5035919050565b6000815180845261316b8160208601602086016132ad565b601f017fffffffffffffffffffffffffffffffffffffffffffffffffffffffffffffffe0169290920160200192915050565b600082516131af8184602087016132ad565b9190910192915050565b6020808252825182820181905260009190848201906040850190845b8181101561320757835173ffffffffffffffffffffffffffffffffffffffff16835292840192918401916001016131d5565b50909695505050505050565b82151581526040602082015260006130be6040830184613153565b6020815260006112606020830184613153565b6000821982111561325457613254613399565b500190565b6000817fffffffffffffffffffffffffffffffffffffffffffffffffffffffffffffffff048311821515161561329157613291613399565b500290565b6000828210156132a8576132a8613399565b500390565b60005b838110156132c85781810151838201526020016132b0565b838111156132d7576000848401525b50505050565b600181811c908216806132f157607f821691505b6020821081141561332b577f4e487b7100000000000000000000000000000000000000000000000000000000600052602260045260246000fd5b50919050565b60007fffffffffffffffffffffffffffffffffffffffffffffffffffffffffffffffff82141561336357613363613399565b5060010190565b7f4e487b7100000000000000000000000000000000000000000000000000000000600052600160045260246000fd5b7f4e487b7100000000000000000000000000000000000000000000000000000000600052601160045260246000fd5b7f4e487b7100000000000000000000000000000000000000000000000000000000600052602160045260246000fd5b7f4e487b7100000000000000000000000000000000000000000000000000000000600052603260045260246000fd5b7f4e487b7100000000000000000000000000000000000000000000000000000000600052604160045260246000fdfe447572696e672074686520736565642070686173652c206f6e6c7920746865206f776e65722063616e2062757920746f6b656e73a26469706673582212205c779e2d5b30fd4bb660e42574259025fc8d1abd91f600566575df5e5fccb19a64736f6c6343000807003302e472438281ece9fae629c31ebc952b0b512971efb1bacfc7d4441c586cff6ca66cc928b5edb82af9bd49922954155ab7b0942694bea4ce44661d9a8736c688b9fe4b740977877e3fa94e7f3dbf51ffcc3fb0449ed024e5d3849f3210d56220",
			"opcodes": "PUSH1 0x80 PUSH1 0x40 MSTORE PUSH4 0x2CB41780 PUSH1 0x2 SSTORE PUSH3 0x186A0 PUSH1 0x3 SSTORE PUSH1 0x9 DUP1 SLOAD PUSH1 0x1 PUSH1 0x1 PUSH1 0xA0 SHL SUB NOT SWAP1 DUP2 AND PUSH20 0x78731D3CA6B7E34AC0F824C42A7CC18A495CABAB OR SWAP1 SWAP2 SSTORE PUSH1 0xA DUP1 SLOAD DUP3 AND PUSH20 0x617F2E2FD72FD9D5503197092AC168C91465E7F2 OR SWAP1 SSTORE PUSH1 0xB DUP1 SLOAD SWAP1 SWAP2 AND PUSH20 0x17F6AD8EF982297579C203069C1DBFFE4348C372 OR SWAP1 SSTORE CALLVALUE DUP1 ISZERO PUSH3 0x86 JUMPI PUSH1 0x0 DUP1 REVERT JUMPDEST POP PUSH1 0x40 MLOAD PUSH3 0x4753 CODESIZE SUB DUP1 PUSH3 0x4753 DUP4 CODECOPY DUP2 ADD PUSH1 0x40 DUP2 SWAP1 MSTORE PUSH3 0xA9 SWAP2 PUSH3 0x1118 JUMP JUMPDEST PUSH1 0x40 DUP1 MLOAD PUSH1 0xE0 DUP2 ADD SWAP1 SWAP2 MSTORE DUP1 PUSH1 0x3 DUP2 MSTORE PUSH1 0x20 ADD PUSH1 0x40 MLOAD DUP1 PUSH1 0x40 ADD PUSH1 0x40 MSTORE DUP1 PUSH1 0x9 DUP2 MSTORE PUSH1 0x20 ADD PUSH9 0x496E766573746F7231 PUSH1 0xB8 SHL DUP2 MSTORE POP DUP2 MSTORE PUSH1 0x20 ADD PUSH3 0x110 PUSH1 0x40 MLOAD DUP1 PUSH1 0x40 ADD PUSH1 0x40 MSTORE DUP1 PUSH1 0x4 DUP2 MSTORE PUSH1 0x20 ADD PUSH4 0x199A1899 PUSH1 0xE1 SHL DUP2 MSTORE POP PUSH3 0xA80 PUSH1 0x20 SHL PUSH1 0x20 SHR JUMP JUMPDEST DUP2 MSTORE PUSH1 0x0 PUSH1 0x20 DUP1 DUP4 ADD DUP3 SWAP1 MSTORE PUSH1 0x40 DUP1 DUP5 ADD DUP4 SWAP1 MSTORE PUSH1 0x60 DUP5 ADD DUP4 SWAP1 MSTORE PUSH1 0x80 SWAP1 SWAP4 ADD DUP3 SWAP1 MSTORE PUSH1 0x9 SLOAD PUSH1 0x1 PUSH1 0x1 PUSH1 0xA0 SHL SUB AND DUP3 MSTORE DUP2 SWAP1 MSTORE KECCAK256 DUP2 MLOAD DUP2 SLOAD DUP3 SWAP1 PUSH1 0xFF NOT AND PUSH1 0x1 DUP4 PUSH1 0x4 DUP2 GT ISZERO PUSH3 0x166 JUMPI PUSH3 0x166 PUSH3 0x120E JUMP JUMPDEST MUL OR SWAP1 SSTORE POP PUSH1 0x20 DUP3 DUP2 ADD MLOAD DUP1 MLOAD PUSH3 0x185 SWAP3 PUSH1 0x1 DUP6 ADD SWAP3 ADD SWAP1 PUSH3 0x1072 JUMP JUMPDEST POP PUSH1 0x40 DUP3 DUP2 ADD MLOAD PUSH1 0x2 DUP4 ADD SSTORE PUSH1 0x60 DUP4 ADD MLOAD PUSH1 0x3 DUP1 DUP5 ADD SWAP2 SWAP1 SWAP2 SSTORE PUSH1 0x80 DUP5 ADD MLOAD PUSH1 0x4 DUP5 ADD SSTORE PUSH1 0xA0 DUP5 ADD MLOAD PUSH1 0x5 DUP5 ADD SSTORE PUSH1 0xC0 SWAP1 SWAP4 ADD MLOAD PUSH1 0x6 SWAP1 SWAP3 ADD SWAP2 SWAP1 SWAP2 SSTORE PUSH1 0x9 SLOAD PUSH1 0x7 DUP1 SLOAD PUSH1 0x1 DUP2 ADD DUP3 SSTORE PUSH1 0x0 SWAP2 SWAP1 SWAP2 MSTORE PUSH1 0x0 DUP1 MLOAD PUSH1 0x20 PUSH3 0x4713 DUP4 CODECOPY DUP2 MLOAD SWAP2 MSTORE ADD DUP1 SLOAD PUSH1 0x1 PUSH1 0x1 PUSH1 0xA0 SHL SUB NOT AND PUSH1 0x1 PUSH1 0x1 PUSH1 0xA0 SHL SUB SWAP1 SWAP3 AND SWAP2 SWAP1 SWAP2 OR SWAP1 SSTORE DUP1 MLOAD PUSH1 0xE0 DUP2 ADD SWAP1 SWAP2 MSTORE SWAP1 DUP2 SWAP1 DUP2 MSTORE PUSH1 0x20 ADD PUSH1 0x40 MLOAD DUP1 PUSH1 0x40 ADD PUSH1 0x40 MSTORE DUP1 PUSH1 0x9 DUP2 MSTORE PUSH1 0x20 ADD PUSH9 0x496E766573746F7231 PUSH1 0xB8 SHL DUP2 MSTORE POP DUP2 MSTORE PUSH1 0x20 ADD PUSH3 0x268 PUSH1 0x40 MLOAD DUP1 PUSH1 0x40 ADD PUSH1 0x40 MSTORE DUP1 PUSH1 0x4 DUP2 MSTORE PUSH1 0x20 ADD PUSH4 0x31343233 PUSH1 0xE0 SHL DUP2 MSTORE POP PUSH3 0xA80 PUSH1 0x20 SHL PUSH1 0x20 SHR JUMP JUMPDEST DUP2 MSTORE PUSH1 0x0 PUSH1 0x20 DUP1 DUP4 ADD DUP3 SWAP1 MSTORE PUSH1 0x40 DUP1 DUP5 ADD DUP4 SWAP1 MSTORE PUSH1 0x60 DUP5 ADD DUP4 SWAP1 MSTORE PUSH1 0x80 SWAP1 SWAP4 ADD DUP3 SWAP1 MSTORE PUSH1 0xA SLOAD PUSH1 0x1 PUSH1 0x1 PUSH1 0xA0 SHL SUB AND DUP3 MSTORE DUP2 SWAP1 MSTORE KECCAK256 DUP2 MLOAD DUP2 SLOAD DUP3 SWAP1 PUSH1 0xFF NOT AND PUSH1 0x1 DUP4 PUSH1 0x4 DUP2 GT ISZERO PUSH3 0x2BE JUMPI PUSH3 0x2BE PUSH3 0x120E JUMP JUMPDEST MUL OR SWAP1 SSTORE POP PUSH1 0x20 DUP3 DUP2 ADD MLOAD DUP1 MLOAD PUSH3 0x2DD SWAP3 PUSH1 0x1 DUP6 ADD SWAP3 ADD SWAP1 PUSH3 0x1072 JUMP JUMPDEST POP PUSH1 0x40 DUP3 DUP2 ADD MLOAD PUSH1 0x2 DUP4 ADD SSTORE PUSH1 0x60 DUP4 ADD MLOAD PUSH1 0x3 DUP1 DUP5 ADD SWAP2 SWAP1 SWAP2 SSTORE PUSH1 0x80 DUP5 ADD MLOAD PUSH1 0x4 DUP5 ADD SSTORE PUSH1 0xA0 DUP5 ADD MLOAD PUSH1 0x5 DUP5 ADD SSTORE PUSH1 0xC0 SWAP1 SWAP4 ADD MLOAD PUSH1 0x6 SWAP1 SWAP3 ADD SWAP2 SWAP1 SWAP2 SSTORE PUSH1 0xA SLOAD PUSH1 0x7 DUP1 SLOAD PUSH1 0x1 DUP2 ADD DUP3 SSTORE PUSH1 0x0 SWAP2 SWAP1 SWAP2 MSTORE PUSH1 0x0 DUP1 MLOAD PUSH1 0x20 PUSH3 0x4713 DUP4 CODECOPY DUP2 MLOAD SWAP2 MSTORE ADD DUP1 SLOAD PUSH1 0x1 PUSH1 0x1 PUSH1 0xA0 SHL SUB NOT AND PUSH1 0x1 PUSH1 0x1 PUSH1 0xA0 SHL SUB SWAP1 SWAP3 AND SWAP2 SWAP1 SWAP2 OR SWAP1 SSTORE DUP1 MLOAD PUSH1 0xE0 DUP2 ADD SWAP1 SWAP2 MSTORE SWAP1 DUP2 SWAP1 DUP2 MSTORE PUSH1 0x20 ADD PUSH1 0x40 MLOAD DUP1 PUSH1 0x40 ADD PUSH1 0x40 MSTORE DUP1 PUSH1 0xB DUP2 MSTORE PUSH1 0x20 ADD PUSH11 0x10995CDD08199C9A595B99 PUSH1 0xAA SHL DUP2 MSTORE POP DUP2 MSTORE PUSH1 0x20 ADD PUSH3 0x3C2 PUSH1 0x40 MLOAD DUP1 PUSH1 0x40 ADD PUSH1 0x40 MSTORE DUP1 PUSH1 0x4 DUP2 MSTORE PUSH1 0x20 ADD PUSH4 0xC8CCC4D PUSH1 0xE2 SHL DUP2 MSTORE POP PUSH3 0xA80 PUSH1 0x20 SHL PUSH1 0x20 SHR JUMP JUMPDEST DUP2 MSTORE PUSH1 0x0 PUSH1 0x20 DUP1 DUP4 ADD DUP3 SWAP1 MSTORE PUSH1 0x40 DUP1 DUP5 ADD DUP4 SWAP1 MSTORE PUSH1 0x60 DUP5 ADD DUP4 SWAP1 MSTORE PUSH1 0x80 SWAP1 SWAP4 ADD DUP3 SWAP1 MSTORE PUSH1 0xB SLOAD PUSH1 0x1 PUSH1 0x1 PUSH1 0xA0 SHL SUB AND DUP3 MSTORE DUP2 SWAP1 MSTORE KECCAK256 DUP2 MLOAD DUP2 SLOAD DUP3 SWAP1 PUSH1 0xFF NOT AND PUSH1 0x1 DUP4 PUSH1 0x4 DUP2 GT ISZERO PUSH3 0x418 JUMPI PUSH3 0x418 PUSH3 0x120E JUMP JUMPDEST MUL OR SWAP1 SSTORE POP PUSH1 0x20 DUP3 DUP2 ADD MLOAD DUP1 MLOAD PUSH3 0x437 SWAP3 PUSH1 0x1 DUP6 ADD SWAP3 ADD SWAP1 PUSH3 0x1072 JUMP JUMPDEST POP PUSH1 0x40 DUP3 DUP2 ADD MLOAD PUSH1 0x2 DUP4 ADD SSTORE PUSH1 0x60 DUP4 ADD MLOAD PUSH1 0x3 DUP4 ADD SSTORE PUSH1 0x80 DUP4 ADD MLOAD PUSH1 0x4 DUP4 ADD SSTORE PUSH1 0xA0 DUP4 ADD MLOAD PUSH1 0x5 DUP4 ADD SSTORE PUSH1 0xC0 SWAP1 SWAP3 ADD MLOAD PUSH1 0x6 SWAP1 SWAP2 ADD SSTORE PUSH1 0xB SLOAD PUSH1 0x7 DUP1 SLOAD PUSH1 0x1 DUP2 ADD DUP3 SSTORE PUSH1 0x0 SWAP2 DUP3 MSTORE PUSH1 0x0 DUP1 MLOAD PUSH1 0x20 PUSH3 0x4713 DUP4 CODECOPY DUP2 MLOAD SWAP2 MSTORE ADD DUP1 SLOAD PUSH1 0x1 PUSH1 0x1 PUSH1 0xA0 SHL SUB NOT AND PUSH1 0x1 PUSH1 0x1 PUSH1 0xA0 SHL SUB SWAP1 SWAP4 AND SWAP3 SWAP1 SWAP3 OR SWAP1 SWAP2 SSTORE PUSH1 0xC DUP4 SWAP1 SSTORE DUP2 MLOAD PUSH1 0xE0 DUP2 ADD SWAP1 SWAP3 MSTORE DUP2 SWAP1 DUP2 MSTORE PUSH1 0x20 ADD PUSH1 0x40 MLOAD DUP1 PUSH1 0x40 ADD PUSH1 0x40 MSTORE DUP1 PUSH1 0x5 DUP2 MSTORE PUSH1 0x20 ADD PUSH5 0x37BBB732B9 PUSH1 0xD9 SHL DUP2 MSTORE POP DUP2 MSTORE PUSH1 0x20 ADD PUSH3 0x513 PUSH1 0x40 MLOAD DUP1 PUSH1 0x40 ADD PUSH1 0x40 MSTORE DUP1 PUSH1 0x4 DUP2 MSTORE PUSH1 0x20 ADD PUSH4 0x199A1899 PUSH1 0xE1 SHL DUP2 MSTORE POP PUSH3 0xA80 PUSH1 0x20 SHL PUSH1 0x20 SHR JUMP JUMPDEST DUP2 MSTORE PUSH1 0xC SLOAD PUSH1 0x20 DUP1 DUP4 ADD SWAP2 SWAP1 SWAP2 MSTORE PUSH1 0x0 PUSH1 0x40 DUP4 ADD DUP2 SWAP1 MSTORE PUSH1 0x60 DUP4 ADD DUP2 SWAP1 MSTORE PUSH1 0x80 SWAP1 SWAP3 ADD DUP3 SWAP1 MSTORE PUSH20 0x5B38DA6A701C568545DCFCB03FCB875F56BEDDC4 DUP3 MSTORE MSTORE DUP1 MLOAD PUSH32 0x58F8E73C330DAFFE64653449EB9A999C1162911D5129DD8193C7233D46ADE2D5 DUP1 SLOAD SWAP1 SWAP2 SWAP1 DUP3 SWAP1 PUSH1 0xFF NOT AND PUSH1 0x1 DUP4 PUSH1 0x4 DUP2 GT ISZERO PUSH3 0x596 JUMPI PUSH3 0x596 PUSH3 0x120E JUMP JUMPDEST MUL OR SWAP1 SSTORE POP PUSH1 0x20 DUP3 DUP2 ADD MLOAD DUP1 MLOAD PUSH3 0x5B5 SWAP3 PUSH1 0x1 DUP6 ADD SWAP3 ADD SWAP1 PUSH3 0x1072 JUMP JUMPDEST POP PUSH1 0x40 DUP3 DUP2 ADD MLOAD PUSH1 0x2 DUP1 DUP5 ADD SWAP2 SWAP1 SWAP2 SSTORE PUSH1 0x60 DUP5 ADD MLOAD PUSH1 0x3 DUP5 ADD SSTORE PUSH1 0x80 DUP5 ADD MLOAD PUSH1 0x4 DUP5 ADD SSTORE PUSH1 0xA0 DUP5 ADD MLOAD PUSH1 0x5 DUP5 ADD SSTORE PUSH1 0xC0 SWAP1 SWAP4 ADD MLOAD PUSH1 0x6 SWAP1 SWAP3 ADD SWAP2 SWAP1 SWAP2 SSTORE PUSH1 0x7 DUP1 SLOAD PUSH1 0x1 DUP2 ADD DUP3 SSTORE PUSH1 0x0 SWAP2 SWAP1 SWAP2 MSTORE PUSH1 0x0 DUP1 MLOAD PUSH1 0x20 PUSH3 0x4713 DUP4 CODECOPY DUP2 MLOAD SWAP2 MSTORE ADD DUP1 SLOAD PUSH1 0x1 PUSH1 0x1 PUSH1 0xA0 SHL SUB NOT AND PUSH20 0x5B38DA6A701C568545DCFCB03FCB875F56BEDDC4 OR SWAP1 SSTORE DUP1 MLOAD PUSH1 0xE0 DUP2 ADD SWAP1 SWAP2 MSTORE SWAP1 DUP2 SWAP1 DUP2 MSTORE PUSH1 0x20 ADD PUSH1 0x40 MLOAD DUP1 PUSH1 0x40 ADD PUSH1 0x40 MSTORE DUP1 PUSH1 0x10 DUP2 MSTORE PUSH1 0x20 ADD PUSH16 0x283934BB30BA3290383937BB34B232B9 PUSH1 0x81 SHL DUP2 MSTORE POP DUP2 MSTORE PUSH1 0x20 ADD PUSH3 0x6A3 PUSH1 0x40 MLOAD DUP1 PUSH1 0x40 ADD PUSH1 0x40 MSTORE DUP1 PUSH1 0x4 DUP2 MSTORE PUSH1 0x20 ADD PUSH4 0x31343233 PUSH1 0xE0 SHL DUP2 MSTORE POP PUSH3 0xA80 PUSH1 0x20 SHL PUSH1 0x20 SHR JUMP JUMPDEST DUP2 MSTORE PUSH1 0x0 PUSH1 0x20 DUP1 DUP4 ADD DUP3 SWAP1 MSTORE PUSH1 0x40 DUP4 ADD DUP3 SWAP1 MSTORE PUSH1 0x60 DUP4 ADD DUP3 SWAP1 MSTORE PUSH1 0x80 SWAP1 SWAP3 ADD DUP2 SWAP1 MSTORE PUSH20 0xAB8483F64D9C6D1ECF9B849AE677DD3315835CB2 DUP2 MSTORE SWAP1 MSTORE DUP1 MLOAD PUSH32 0x1A1017A437881FD8FEE8AB135586D886995DF9286BD91E5D3C250F79B2327F02 DUP1 SLOAD SWAP1 SWAP2 SWAP1 DUP3 SWAP1 PUSH1 0xFF NOT AND PUSH1 0x1 DUP4 PUSH1 0x4 DUP2 GT ISZERO PUSH3 0x723 JUMPI PUSH3 0x723 PUSH3 0x120E JUMP JUMPDEST MUL OR SWAP1 SSTORE POP PUSH1 0x20 DUP3 DUP2 ADD MLOAD DUP1 MLOAD PUSH3 0x742 SWAP3 PUSH1 0x1 DUP6 ADD SWAP3 ADD SWAP1 PUSH3 0x1072 JUMP JUMPDEST POP PUSH1 0x40 DUP3 DUP2 ADD MLOAD PUSH1 0x2 DUP4 ADD SSTORE PUSH1 0x60 DUP4 ADD MLOAD PUSH1 0x3 DUP4 ADD SSTORE PUSH1 0x80 DUP4 ADD MLOAD PUSH1 0x4 DUP1 DUP5 ADD SWAP2 SWAP1 SWAP2 SSTORE PUSH1 0xA0 DUP5 ADD MLOAD PUSH1 0x5 DUP5 ADD SSTORE PUSH1 0xC0 SWAP1 SWAP4 ADD MLOAD PUSH1 0x6 SWAP1 SWAP3 ADD SWAP2 SWAP1 SWAP2 SSTORE PUSH1 0x7 DUP1 SLOAD PUSH1 0x1 DUP1 DUP3 ADD SWAP1 SWAP3 SSTORE PUSH1 0x0 DUP1 MLOAD PUSH1 0x20 PUSH3 0x4713 DUP4 CODECOPY DUP2 MLOAD SWAP2 MSTORE ADD DUP1 SLOAD PUSH1 0x1 PUSH1 0x1 PUSH1 0xA0 SHL SUB NOT AND PUSH20 0xAB8483F64D9C6D1ECF9B849AE677DD3315835CB2 SWAP1 DUP2 OR SWAP1 SWAP2 SSTORE PUSH1 0xC SLOAD PUSH32 0xB5C17CE678460FE5376E73818B3D7F6CCF68974FE9E3C68037DCEDA99F06535C SSTORE DUP3 MLOAD DUP1 DUP5 ADD DUP5 MSTORE PUSH1 0x0 DUP1 DUP3 MSTORE PUSH1 0x20 DUP1 DUP4 ADD DUP3 DUP2 MSTORE SWAP4 SWAP1 SWAP2 MSTORE DUP6 DUP2 MSTORE SWAP1 MLOAD PUSH1 0x0 DUP1 MLOAD PUSH1 0x20 PUSH3 0x46F3 DUP4 CODECOPY DUP2 MLOAD SWAP2 MSTORE DUP1 SLOAD SWAP4 MLOAD ISZERO ISZERO PUSH2 0x100 MUL PUSH2 0xFF00 NOT SWAP3 ISZERO ISZERO SWAP3 SWAP1 SWAP3 AND PUSH2 0xFFFF NOT SWAP1 SWAP5 AND SWAP4 SWAP1 SWAP4 OR OR SWAP1 SWAP2 SSTORE DUP3 MLOAD PUSH1 0xE0 DUP2 ADD DUP5 MSTORE SWAP2 DUP3 MSTORE DUP3 MLOAD DUP1 DUP5 ADD DUP5 MSTORE PUSH1 0xF DUP2 MSTORE PUSH15 0x283AB13634B190383937BB34B232B9 PUSH1 0x89 SHL DUP2 DUP4 ADD MSTORE DUP3 DUP3 ADD MSTORE DUP3 MLOAD DUP1 DUP5 ADD DUP5 MSTORE SWAP4 DUP5 MSTORE PUSH4 0xC8CCC4D PUSH1 0xE2 SHL SWAP1 DUP5 ADD MSTORE SWAP2 SWAP1 DUP3 ADD SWAP1 PUSH3 0x890 SWAP1 PUSH3 0xA80 JUMP JUMPDEST DUP2 MSTORE PUSH1 0x0 PUSH1 0x20 DUP1 DUP4 ADD DUP3 SWAP1 MSTORE PUSH1 0x40 DUP4 ADD DUP3 SWAP1 MSTORE PUSH1 0x60 DUP4 ADD DUP3 SWAP1 MSTORE PUSH1 0x80 SWAP1 SWAP3 ADD DUP2 SWAP1 MSTORE PUSH20 0x4B20993BC481177EC7E8F571CECAE8A9E22C02DB DUP2 MSTORE SWAP1 MSTORE DUP1 MLOAD PUSH32 0xBC67542BFA83C3E43FAA1CE49DAA83C7BB0610DF1C8F6899B8FBB170F5C183EE DUP1 SLOAD SWAP1 SWAP2 SWAP1 DUP3 SWAP1 PUSH1 0xFF NOT AND PUSH1 0x1 DUP4 PUSH1 0x4 DUP2 GT ISZERO PUSH3 0x910 JUMPI PUSH3 0x910 PUSH3 0x120E JUMP JUMPDEST MUL OR SWAP1 SSTORE POP PUSH1 0x20 DUP3 DUP2 ADD MLOAD DUP1 MLOAD PUSH3 0x92F SWAP3 PUSH1 0x1 DUP6 ADD SWAP3 ADD SWAP1 PUSH3 0x1072 JUMP JUMPDEST POP PUSH1 0x40 DUP3 DUP2 ADD MLOAD PUSH1 0x2 DUP4 ADD SSTORE PUSH1 0x60 DUP4 ADD MLOAD PUSH1 0x3 DUP4 ADD SSTORE PUSH1 0x80 DUP4 ADD MLOAD PUSH1 0x4 DUP1 DUP5 ADD SWAP2 SWAP1 SWAP2 SSTORE PUSH1 0xA0 DUP5 ADD MLOAD PUSH1 0x5 DUP5 ADD SSTORE PUSH1 0xC0 SWAP1 SWAP4 ADD MLOAD PUSH1 0x6 SWAP1 SWAP3 ADD SWAP2 SWAP1 SWAP2 SSTORE PUSH1 0x7 DUP1 SLOAD PUSH1 0x1 DUP2 ADD SWAP1 SWAP2 SSTORE PUSH1 0x0 DUP1 MLOAD PUSH1 0x20 PUSH3 0x4713 DUP4 CODECOPY DUP2 MLOAD SWAP2 MSTORE ADD DUP1 SLOAD PUSH1 0x1 PUSH1 0x1 PUSH1 0xA0 SHL SUB NOT AND PUSH20 0x4B20993BC481177EC7E8F571CECAE8A9E22C02DB SWAP1 DUP2 OR SWAP1 SWAP2 SSTORE PUSH1 0xC SLOAD PUSH32 0x54F84FF0E2BA30C1157BC53602130E83FF4C3C5F51616A31CF68834E1F3B4985 SSTORE DUP2 MLOAD DUP1 DUP4 ADD SWAP1 SWAP3 MSTORE PUSH1 0x0 DUP1 DUP4 MSTORE PUSH1 0x20 DUP4 DUP2 ADD DUP3 DUP2 MSTORE SWAP3 SWAP1 SWAP2 MSTORE SWAP3 SWAP1 SWAP3 MSTORE MLOAD PUSH1 0x0 DUP1 MLOAD PUSH1 0x20 PUSH3 0x4733 DUP4 CODECOPY DUP2 MLOAD SWAP2 MSTORE DUP1 SLOAD SWAP3 MLOAD ISZERO ISZERO PUSH2 0x100 MUL PUSH2 0xFF00 NOT SWAP3 ISZERO ISZERO SWAP3 SWAP1 SWAP3 AND PUSH2 0xFFFF NOT SWAP1 SWAP4 AND SWAP3 SWAP1 SWAP3 OR OR SWAP1 SSTORE PUSH1 0x9 SLOAD PUSH3 0xA40 SWAP1 PUSH1 0x1 PUSH1 0x1 PUSH1 0xA0 SHL SUB AND PUSH3 0x927C0 PUSH3 0xAB2 JUMP JUMPDEST POP PUSH1 0xA SLOAD PUSH3 0xA5C SWAP1 PUSH1 0x1 PUSH1 0x1 PUSH1 0xA0 SHL SUB AND PUSH3 0xC3500 PUSH3 0xAB2 JUMP JUMPDEST POP PUSH1 0xB SLOAD PUSH3 0xA78 SWAP1 PUSH1 0x1 PUSH1 0x1 PUSH1 0xA0 SHL SUB AND PUSH3 0x61A80 PUSH3 0xAB2 JUMP JUMPDEST POP POP PUSH3 0x1224 JUMP JUMPDEST PUSH1 0x0 DUP2 PUSH1 0x40 MLOAD PUSH1 0x20 ADD PUSH3 0xA95 SWAP2 SWAP1 PUSH3 0x1132 JUMP JUMPDEST PUSH1 0x40 MLOAD PUSH1 0x20 DUP2 DUP4 SUB SUB DUP2 MSTORE SWAP1 PUSH1 0x40 MSTORE DUP1 MLOAD SWAP1 PUSH1 0x20 ADD KECCAK256 SWAP1 POP SWAP2 SWAP1 POP JUMP JUMPDEST PUSH1 0x0 PUSH3 0xABE PUSH3 0xFE9 JUMP JUMPDEST ISZERO ISZERO PUSH1 0x1 EQ ISZERO PUSH3 0xCE2 JUMPI CALLER PUSH1 0x0 SWAP1 DUP2 MSTORE PUSH1 0x20 DUP2 SWAP1 MSTORE PUSH1 0x40 SWAP1 KECCAK256 PUSH1 0x3 ADD SLOAD DUP3 GT ISZERO PUSH3 0xAE9 JUMPI PUSH1 0x0 DUP1 REVERT JUMPDEST CALLER PUSH1 0x0 SWAP1 DUP2 MSTORE PUSH1 0x20 DUP2 DUP2 MSTORE PUSH1 0x40 SWAP1 SWAP2 KECCAK256 PUSH1 0x3 ADD SLOAD PUSH3 0xB13 SWAP2 DUP5 SWAP1 PUSH3 0x2DF9 PUSH3 0x1026 DUP3 SHL OR SWAP1 SHR JUMP JUMPDEST CALLER PUSH1 0x0 SWAP1 DUP2 MSTORE PUSH1 0x20 DUP2 DUP2 MSTORE PUSH1 0x40 DUP3 KECCAK256 PUSH1 0x3 ADD SWAP3 SWAP1 SWAP3 SSTORE PUSH20 0xAB8483F64D9C6D1ECF9B849AE677DD3315835CB2 SWAP1 MSTORE PUSH1 0x4 SWAP1 MSTORE PUSH1 0x0 DUP1 MLOAD PUSH1 0x20 PUSH3 0x46F3 DUP4 CODECOPY DUP2 MLOAD SWAP2 MSTORE SLOAD PUSH1 0xFF AND ISZERO ISZERO PUSH1 0x1 EQ ISZERO PUSH3 0xBB8 JUMPI PUSH1 0x1 PUSH1 0x1 PUSH1 0xA0 SHL SUB DUP4 AND PUSH1 0x0 SWAP1 DUP2 MSTORE PUSH1 0x20 DUP2 DUP2 MSTORE PUSH1 0x40 SWAP1 SWAP2 KECCAK256 PUSH1 0x5 ADD SLOAD PUSH3 0xB96 SWAP2 DUP5 SWAP1 PUSH3 0x2E15 PUSH3 0x104E DUP3 SHL OR SWAP1 SHR JUMP JUMPDEST PUSH1 0x1 PUSH1 0x1 PUSH1 0xA0 SHL SUB DUP5 AND PUSH1 0x0 SWAP1 DUP2 MSTORE PUSH1 0x20 DUP2 SWAP1 MSTORE PUSH1 0x40 SWAP1 KECCAK256 PUSH1 0x5 ADD SSTORE PUSH3 0xC99 JUMP JUMPDEST PUSH20 0x4B20993BC481177EC7E8F571CECAE8A9E22C02DB PUSH1 0x0 MSTORE PUSH1 0x4 PUSH1 0x20 MSTORE PUSH1 0x0 DUP1 MLOAD PUSH1 0x20 PUSH3 0x4733 DUP4 CODECOPY DUP2 MLOAD SWAP2 MSTORE SLOAD PUSH1 0xFF AND ISZERO ISZERO PUSH1 0x1 EQ ISZERO PUSH3 0xC49 JUMPI PUSH1 0x1 PUSH1 0x1 PUSH1 0xA0 SHL SUB DUP4 AND PUSH1 0x0 SWAP1 DUP2 MSTORE PUSH1 0x20 DUP2 DUP2 MSTORE PUSH1 0x40 SWAP1 SWAP2 KECCAK256 PUSH1 0x6 ADD SLOAD PUSH3 0xC27 SWAP2 DUP5 SWAP1 PUSH3 0x2E15 PUSH3 0x104E DUP3 SHL OR SWAP1 SHR JUMP JUMPDEST PUSH1 0x1 PUSH1 0x1 PUSH1 0xA0 SHL SUB DUP5 AND PUSH1 0x0 SWAP1 DUP2 MSTORE PUSH1 0x20 DUP2 SWAP1 MSTORE PUSH1 0x40 SWAP1 KECCAK256 PUSH1 0x6 ADD SSTORE PUSH3 0xC99 JUMP JUMPDEST PUSH1 0x1 PUSH1 0x1 PUSH1 0xA0 SHL SUB DUP4 AND PUSH1 0x0 SWAP1 DUP2 MSTORE PUSH1 0x20 DUP2 DUP2 MSTORE PUSH1 0x40 SWAP1 SWAP2 KECCAK256 PUSH1 0x4 ADD SLOAD PUSH3 0xC7C SWAP2 DUP5 SWAP1 PUSH3 0x2E15 PUSH3 0x104E DUP3 SHL OR SWAP1 SHR JUMP JUMPDEST PUSH1 0x1 PUSH1 0x1 PUSH1 0xA0 SHL SUB DUP5 AND PUSH1 0x0 SWAP1 DUP2 MSTORE PUSH1 0x20 DUP2 SWAP1 MSTORE PUSH1 0x40 SWAP1 KECCAK256 PUSH1 0x4 ADD SSTORE JUMPDEST PUSH1 0x40 MLOAD DUP3 DUP2 MSTORE PUSH1 0x1 PUSH1 0x1 PUSH1 0xA0 SHL SUB DUP5 AND SWAP1 CALLER SWAP1 PUSH32 0xDDF252AD1BE2C89B69C2B068FC378DAA952BA7F163C4A11628F55A4DF523B3EF SWAP1 PUSH1 0x20 ADD PUSH1 0x40 MLOAD DUP1 SWAP2 SUB SWAP1 LOG3 POP PUSH1 0x1 PUSH3 0xFE3 JUMP JUMPDEST PUSH20 0xAB8483F64D9C6D1ECF9B849AE677DD3315835CB2 PUSH1 0x0 MSTORE PUSH1 0x4 PUSH1 0x20 MSTORE PUSH1 0x0 DUP1 MLOAD PUSH1 0x20 PUSH3 0x46F3 DUP4 CODECOPY DUP2 MLOAD SWAP2 MSTORE SLOAD PUSH1 0xFF AND ISZERO ISZERO PUSH1 0x1 EQ ISZERO PUSH3 0xDAA JUMPI CALLER PUSH1 0x0 SWAP1 DUP2 MSTORE PUSH1 0x20 DUP2 SWAP1 MSTORE PUSH1 0x40 SWAP1 KECCAK256 PUSH1 0x5 ADD SLOAD DUP3 GT ISZERO PUSH3 0xD3E JUMPI PUSH1 0x0 DUP1 REVERT JUMPDEST CALLER PUSH1 0x0 SWAP1 DUP2 MSTORE PUSH1 0x20 DUP2 DUP2 MSTORE PUSH1 0x40 SWAP1 SWAP2 KECCAK256 PUSH1 0x5 ADD SLOAD PUSH3 0xD68 SWAP2 DUP5 SWAP1 PUSH3 0x2DF9 PUSH3 0x1026 DUP3 SHL OR SWAP1 SHR JUMP JUMPDEST CALLER PUSH1 0x0 SWAP1 DUP2 MSTORE PUSH1 0x20 DUP2 DUP2 MSTORE PUSH1 0x40 DUP1 DUP4 KECCAK256 PUSH1 0x5 SWAP1 DUP2 ADD SWAP5 SWAP1 SWAP5 SSTORE PUSH1 0x1 PUSH1 0x1 PUSH1 0xA0 SHL SUB DUP8 AND DUP4 MSTORE SWAP1 SWAP2 KECCAK256 SWAP1 SWAP2 ADD SLOAD PUSH3 0xB96 SWAP2 DUP5 SWAP1 PUSH3 0x2E15 PUSH3 0x104E DUP3 SHL OR SWAP1 SHR JUMP JUMPDEST PUSH20 0x4B20993BC481177EC7E8F571CECAE8A9E22C02DB PUSH1 0x0 MSTORE PUSH1 0x4 PUSH1 0x20 MSTORE PUSH1 0x0 DUP1 MLOAD PUSH1 0x20 PUSH3 0x4733 DUP4 CODECOPY DUP2 MLOAD SWAP2 MSTORE SLOAD PUSH1 0xFF AND ISZERO ISZERO PUSH1 0x1 EQ ISZERO PUSH3 0xE72 JUMPI CALLER PUSH1 0x0 SWAP1 DUP2 MSTORE PUSH1 0x20 DUP2 SWAP1 MSTORE PUSH1 0x40 SWAP1 KECCAK256 PUSH1 0x6 ADD SLOAD DUP3 GT ISZERO PUSH3 0xE06 JUMPI PUSH1 0x0 DUP1 REVERT JUMPDEST CALLER PUSH1 0x0 SWAP1 DUP2 MSTORE PUSH1 0x20 DUP2 DUP2 MSTORE PUSH1 0x40 SWAP1 SWAP2 KECCAK256 PUSH1 0x6 ADD SLOAD PUSH3 0xE30 SWAP2 DUP5 SWAP1 PUSH3 0x2DF9 PUSH3 0x1026 DUP3 SHL OR SWAP1 SHR JUMP JUMPDEST CALLER PUSH1 0x0 SWAP1 DUP2 MSTORE PUSH1 0x20 DUP2 DUP2 MSTORE PUSH1 0x40 DUP1 DUP4 KECCAK256 PUSH1 0x6 SWAP1 DUP2 ADD SWAP5 SWAP1 SWAP5 SSTORE PUSH1 0x1 PUSH1 0x1 PUSH1 0xA0 SHL SUB DUP8 AND DUP4 MSTORE SWAP1 SWAP2 KECCAK256 SWAP1 SWAP2 ADD SLOAD PUSH3 0xC27 SWAP2 DUP5 SWAP1 PUSH3 0x2E15 PUSH3 0x104E DUP3 SHL OR SWAP1 SHR JUMP JUMPDEST CALLER PUSH1 0x0 SWAP1 DUP2 MSTORE PUSH1 0x20 DUP2 SWAP1 MSTORE PUSH1 0x40 SWAP1 KECCAK256 PUSH1 0x4 ADD SLOAD DUP3 GT ISZERO PUSH3 0xE92 JUMPI PUSH1 0x0 DUP1 REVERT JUMPDEST PUSH1 0x3 CALLER PUSH1 0x0 SWAP1 DUP2 MSTORE PUSH1 0x20 DUP2 SWAP1 MSTORE PUSH1 0x40 SWAP1 KECCAK256 SLOAD PUSH1 0xFF AND PUSH1 0x4 DUP2 GT ISZERO PUSH3 0xEBB JUMPI PUSH3 0xEBB PUSH3 0x120E JUMP JUMPDEST EQ PUSH3 0xF02 JUMPI PUSH1 0x40 MLOAD PUSH3 0x461BCD PUSH1 0xE5 SHL DUP2 MSTORE PUSH1 0x20 PUSH1 0x4 DUP3 ADD MSTORE PUSH1 0x11 PUSH1 0x24 DUP3 ADD MSTORE PUSH17 0x2CB7BAB9103737BA1034B73B32B9BA37B9 PUSH1 0x79 SHL PUSH1 0x44 DUP3 ADD MSTORE PUSH1 0x64 ADD JUMPDEST PUSH1 0x40 MLOAD DUP1 SWAP2 SUB SWAP1 REVERT JUMPDEST PUSH1 0x3 PUSH1 0x1 PUSH1 0x1 PUSH1 0xA0 SHL SUB DUP5 AND PUSH1 0x0 SWAP1 DUP2 MSTORE PUSH1 0x20 DUP2 SWAP1 MSTORE PUSH1 0x40 SWAP1 KECCAK256 SLOAD PUSH1 0xFF AND PUSH1 0x4 DUP2 GT ISZERO PUSH3 0xF34 JUMPI PUSH3 0xF34 PUSH3 0x120E JUMP JUMPDEST EQ PUSH3 0xF77 JUMPI PUSH1 0x40 MLOAD PUSH3 0x461BCD PUSH1 0xE5 SHL DUP2 MSTORE PUSH1 0x20 PUSH1 0x4 DUP3 ADD MSTORE PUSH1 0x11 PUSH1 0x24 DUP3 ADD MSTORE PUSH17 0x2CB7BAB9103737BA1034B73B32B9BA37B9 PUSH1 0x79 SHL PUSH1 0x44 DUP3 ADD MSTORE PUSH1 0x64 ADD PUSH3 0xEF9 JUMP JUMPDEST CALLER PUSH1 0x0 SWAP1 DUP2 MSTORE PUSH1 0x20 DUP2 DUP2 MSTORE PUSH1 0x40 SWAP1 SWAP2 KECCAK256 PUSH1 0x4 ADD SLOAD PUSH3 0xFA1 SWAP2 DUP5 SWAP1 PUSH3 0x2DF9 PUSH3 0x1026 DUP3 SHL OR SWAP1 SHR JUMP JUMPDEST CALLER PUSH1 0x0 SWAP1 DUP2 MSTORE PUSH1 0x20 DUP2 DUP2 MSTORE PUSH1 0x40 DUP1 DUP4 KECCAK256 PUSH1 0x4 SWAP1 DUP2 ADD SWAP5 SWAP1 SWAP5 SSTORE PUSH1 0x1 PUSH1 0x1 PUSH1 0xA0 SHL SUB DUP8 AND DUP4 MSTORE SWAP1 SWAP2 KECCAK256 SWAP1 SWAP2 ADD SLOAD PUSH3 0xC7C SWAP2 DUP5 SWAP1 PUSH3 0x2E15 PUSH3 0x104E DUP3 SHL OR SWAP1 SHR JUMP JUMPDEST SWAP3 SWAP2 POP POP JUMP JUMPDEST PUSH1 0x0 DUP1 CALLER PUSH1 0x0 SWAP1 DUP2 MSTORE PUSH1 0x20 DUP2 SWAP1 MSTORE PUSH1 0x40 SWAP1 KECCAK256 SLOAD PUSH1 0xFF AND PUSH1 0x4 DUP2 GT ISZERO PUSH3 0x1013 JUMPI PUSH3 0x1013 PUSH3 0x120E JUMP JUMPDEST EQ ISZERO PUSH3 0x1020 JUMPI POP PUSH1 0x1 SWAP1 JUMP JUMPDEST POP PUSH1 0x0 SWAP1 JUMP JUMPDEST PUSH1 0x0 DUP3 DUP3 GT ISZERO PUSH3 0x103B JUMPI PUSH3 0x103B PUSH3 0x11E2 JUMP JUMPDEST PUSH3 0x1047 DUP3 DUP5 PUSH3 0x118B JUMP JUMPDEST SWAP4 SWAP3 POP POP POP JUMP JUMPDEST PUSH1 0x0 DUP1 PUSH3 0x105D DUP4 DUP6 PUSH3 0x1170 JUMP JUMPDEST SWAP1 POP DUP4 DUP2 LT ISZERO PUSH3 0x1047 JUMPI PUSH3 0x1047 PUSH3 0x11E2 JUMP JUMPDEST DUP3 DUP1 SLOAD PUSH3 0x1080 SWAP1 PUSH3 0x11A5 JUMP JUMPDEST SWAP1 PUSH1 0x0 MSTORE PUSH1 0x20 PUSH1 0x0 KECCAK256 SWAP1 PUSH1 0x1F ADD PUSH1 0x20 SWAP1 DIV DUP2 ADD SWAP3 DUP3 PUSH3 0x10A4 JUMPI PUSH1 0x0 DUP6 SSTORE PUSH3 0x10EF JUMP JUMPDEST DUP3 PUSH1 0x1F LT PUSH3 0x10BF JUMPI DUP1 MLOAD PUSH1 0xFF NOT AND DUP4 DUP1 ADD OR DUP6 SSTORE PUSH3 0x10EF JUMP JUMPDEST DUP3 DUP1 ADD PUSH1 0x1 ADD DUP6 SSTORE DUP3 ISZERO PUSH3 0x10EF JUMPI SWAP2 DUP3 ADD JUMPDEST DUP3 DUP2 GT ISZERO PUSH3 0x10EF JUMPI DUP3 MLOAD DUP3 SSTORE SWAP2 PUSH1 0x20 ADD SWAP2 SWAP1 PUSH1 0x1 ADD SWAP1 PUSH3 0x10D2 JUMP JUMPDEST POP PUSH3 0x10FD SWAP3 SWAP2 POP PUSH3 0x1101 JUMP JUMPDEST POP SWAP1 JUMP JUMPDEST JUMPDEST DUP1 DUP3 GT ISZERO PUSH3 0x10FD JUMPI PUSH1 0x0 DUP2 SSTORE PUSH1 0x1 ADD PUSH3 0x1102 JUMP JUMPDEST PUSH1 0x0 PUSH1 0x20 DUP3 DUP5 SUB SLT ISZERO PUSH3 0x112B JUMPI PUSH1 0x0 DUP1 REVERT JUMPDEST POP MLOAD SWAP2 SWAP1 POP JUMP JUMPDEST PUSH1 0x0 DUP3 MLOAD PUSH1 0x0 JUMPDEST DUP2 DUP2 LT ISZERO PUSH3 0x1155 JUMPI PUSH1 0x20 DUP2 DUP7 ADD DUP2 ADD MLOAD DUP6 DUP4 ADD MSTORE ADD PUSH3 0x1139 JUMP JUMPDEST DUP2 DUP2 GT ISZERO PUSH3 0x1165 JUMPI PUSH1 0x0 DUP3 DUP6 ADD MSTORE JUMPDEST POP SWAP2 SWAP1 SWAP2 ADD SWAP3 SWAP2 POP POP JUMP JUMPDEST PUSH1 0x0 DUP3 NOT DUP3 GT ISZERO PUSH3 0x1186 JUMPI PUSH3 0x1186 PUSH3 0x11F8 JUMP JUMPDEST POP ADD SWAP1 JUMP JUMPDEST PUSH1 0x0 DUP3 DUP3 LT ISZERO PUSH3 0x11A0 JUMPI PUSH3 0x11A0 PUSH3 0x11F8 JUMP JUMPDEST POP SUB SWAP1 JUMP JUMPDEST PUSH1 0x1 DUP2 DUP2 SHR SWAP1 DUP3 AND DUP1 PUSH3 0x11BA JUMPI PUSH1 0x7F DUP3 AND SWAP2 POP JUMPDEST PUSH1 0x20 DUP3 LT DUP2 EQ ISZERO PUSH3 0x11DC JUMPI PUSH4 0x4E487B71 PUSH1 0xE0 SHL PUSH1 0x0 MSTORE PUSH1 0x22 PUSH1 0x4 MSTORE PUSH1 0x24 PUSH1 0x0 REVERT JUMPDEST POP SWAP2 SWAP1 POP JUMP JUMPDEST PUSH4 0x4E487B71 PUSH1 0xE0 SHL PUSH1 0x0 MSTORE PUSH1 0x1 PUSH1 0x4 MSTORE PUSH1 0x24 PUSH1 0x0 REVERT JUMPDEST PUSH4 0x4E487B71 PUSH1 0xE0 SHL PUSH1 0x0 MSTORE PUSH1 0x11 PUSH1 0x4 MSTORE PUSH1 0x24 PUSH1 0x0 REVERT JUMPDEST PUSH4 0x4E487B71 PUSH1 0xE0 SHL PUSH1 0x0 MSTORE PUSH1 0x21 PUSH1 0x4 MSTORE PUSH1 0x24 PUSH1 0x0 REVERT JUMPDEST PUSH2 0x34BF DUP1 PUSH3 0x1234 PUSH1 0x0 CODECOPY PUSH1 0x0 RETURN INVALID PUSH1 0x80 PUSH1 0x40 MSTORE PUSH1 0x4 CALLDATASIZE LT PUSH2 0x1AC JUMPI PUSH1 0x0 CALLDATALOAD PUSH1 0xE0 SHR DUP1 PUSH4 0x72F0D72B GT PUSH2 0xEC JUMPI DUP1 PUSH4 0x95D89B41 GT PUSH2 0x8A JUMPI DUP1 PUSH4 0xB06CDC12 GT PUSH2 0x64 JUMPI DUP1 PUSH4 0xB06CDC12 EQ PUSH2 0x52E JUMPI DUP1 PUSH4 0xC10E3911 EQ PUSH2 0x574 JUMPI DUP1 PUSH4 0xD96A094A EQ PUSH2 0x589 JUMPI DUP1 PUSH4 0xDD62ED3E EQ PUSH2 0x5AA JUMPI PUSH1 0x0 DUP1 REVERT JUMPDEST DUP1 PUSH4 0x95D89B41 EQ PUSH2 0x4A5 JUMPI DUP1 PUSH4 0xA678B65B EQ PUSH2 0x4EE JUMPI DUP1 PUSH4 0xA9059CBB EQ PUSH2 0x50E JUMPI PUSH1 0x0 DUP1 REVERT JUMPDEST DUP1 PUSH4 0x7F89128F GT PUSH2 0xC6 JUMPI DUP1 PUSH4 0x7F89128F EQ PUSH2 0x43A JUMPI DUP1 PUSH4 0x8AA7CC0B EQ PUSH2 0x44F JUMPI DUP1 PUSH4 0x8E4F8C6B EQ PUSH2 0x46F JUMPI DUP1 PUSH4 0x948942AD EQ PUSH2 0x48F JUMPI PUSH1 0x0 DUP1 REVERT JUMPDEST DUP1 PUSH4 0x72F0D72B EQ PUSH2 0x3BF JUMPI DUP1 PUSH4 0x785963C3 EQ PUSH2 0x405 JUMPI DUP1 PUSH4 0x7F4B8DF0 EQ PUSH2 0x425 JUMPI PUSH1 0x0 DUP1 REVERT JUMPDEST DUP1 PUSH4 0x1D3EEA35 GT PUSH2 0x159 JUMPI DUP1 PUSH4 0x313CE567 GT PUSH2 0x133 JUMPI DUP1 PUSH4 0x313CE567 EQ PUSH2 0x336 JUMPI DUP1 PUSH4 0x32CBDD03 EQ PUSH2 0x35D JUMPI DUP1 PUSH4 0x686C4CEA EQ PUSH2 0x37D JUMPI DUP1 PUSH4 0x70A08231 EQ PUSH2 0x39F JUMPI PUSH1 0x0 DUP1 REVERT JUMPDEST DUP1 PUSH4 0x1D3EEA35 EQ PUSH2 0x2B0 JUMPI DUP1 PUSH4 0x23B872DD EQ PUSH2 0x2D0 JUMPI DUP1 PUSH4 0x2599D6D0 EQ PUSH2 0x2F0 JUMPI PUSH1 0x0 DUP1 REVERT JUMPDEST DUP1 PUSH4 0x95EA7B3 GT PUSH2 0x18A JUMPI DUP1 PUSH4 0x95EA7B3 EQ PUSH2 0x24B JUMPI DUP1 PUSH4 0xECB93C0 EQ PUSH2 0x27B JUMPI DUP1 PUSH4 0x18160DDD EQ PUSH2 0x29B JUMPI PUSH1 0x0 DUP1 REVERT JUMPDEST DUP1 PUSH4 0x691615D EQ PUSH2 0x1B1 JUMPI DUP1 PUSH4 0x6FDDE03 EQ PUSH2 0x1C8 JUMPI DUP1 PUSH4 0x761C8B9 EQ PUSH2 0x227 JUMPI JUMPDEST PUSH1 0x0 DUP1 REVERT JUMPDEST CALLVALUE DUP1 ISZERO PUSH2 0x1BD JUMPI PUSH1 0x0 DUP1 REVERT JUMPDEST POP PUSH2 0x1C6 PUSH2 0x5FD JUMP JUMPDEST STOP JUMPDEST CALLVALUE DUP1 ISZERO PUSH2 0x1D4 JUMPI PUSH1 0x0 DUP1 REVERT JUMPDEST POP PUSH2 0x211 PUSH1 0x40 MLOAD DUP1 PUSH1 0x40 ADD PUSH1 0x40 MSTORE DUP1 PUSH1 0xD DUP2 MSTORE PUSH1 0x20 ADD PUSH32 0x43727970746F4D6F6E7374657200000000000000000000000000000000000000 DUP2 MSTORE POP DUP2 JUMP JUMPDEST PUSH1 0x40 MLOAD PUSH2 0x21E SWAP2 SWAP1 PUSH2 0x322E JUMP JUMPDEST PUSH1 0x40 MLOAD DUP1 SWAP2 SUB SWAP1 RETURN JUMPDEST CALLVALUE DUP1 ISZERO PUSH2 0x233 JUMPI PUSH1 0x0 DUP1 REVERT JUMPDEST POP PUSH2 0x23D PUSH1 0x2 SLOAD DUP2 JUMP JUMPDEST PUSH1 0x40 MLOAD SWAP1 DUP2 MSTORE PUSH1 0x20 ADD PUSH2 0x21E JUMP JUMPDEST CALLVALUE DUP1 ISZERO PUSH2 0x257 JUMPI PUSH1 0x0 DUP1 REVERT JUMPDEST POP PUSH2 0x26B PUSH2 0x266 CALLDATASIZE PUSH1 0x4 PUSH2 0x305F JUMP JUMPDEST PUSH2 0x7B1 JUMP JUMPDEST PUSH1 0x40 MLOAD SWAP1 ISZERO ISZERO DUP2 MSTORE PUSH1 0x20 ADD PUSH2 0x21E JUMP JUMPDEST CALLVALUE DUP1 ISZERO PUSH2 0x287 JUMPI PUSH1 0x0 DUP1 REVERT JUMPDEST POP PUSH2 0x1C6 PUSH2 0x296 CALLDATASIZE PUSH1 0x4 PUSH2 0x2FD5 JUMP JUMPDEST PUSH2 0x82B JUMP JUMPDEST CALLVALUE DUP1 ISZERO PUSH2 0x2A7 JUMPI PUSH1 0x0 DUP1 REVERT JUMPDEST POP PUSH1 0xC SLOAD PUSH2 0x23D JUMP JUMPDEST CALLVALUE DUP1 ISZERO PUSH2 0x2BC JUMPI PUSH1 0x0 DUP1 REVERT JUMPDEST POP PUSH2 0x1C6 PUSH2 0x2CB CALLDATASIZE PUSH1 0x4 PUSH2 0x2FD5 JUMP JUMPDEST PUSH2 0x92D JUMP JUMPDEST CALLVALUE DUP1 ISZERO PUSH2 0x2DC JUMPI PUSH1 0x0 DUP1 REVERT JUMPDEST POP PUSH2 0x26B PUSH2 0x2EB CALLDATASIZE PUSH1 0x4 PUSH2 0x3023 JUMP JUMPDEST PUSH2 0xA9F JUMP JUMPDEST CALLVALUE DUP1 ISZERO PUSH2 0x2FC JUMPI PUSH1 0x0 DUP1 REVERT JUMPDEST POP PUSH2 0x23D PUSH2 0x30B CALLDATASIZE PUSH1 0x4 PUSH2 0x2FD5 JUMP JUMPDEST PUSH20 0xFFFFFFFFFFFFFFFFFFFFFFFFFFFFFFFFFFFFFFFF AND PUSH1 0x0 SWAP1 DUP2 MSTORE PUSH1 0x20 DUP2 SWAP1 MSTORE PUSH1 0x40 SWAP1 KECCAK256 PUSH1 0x4 ADD SLOAD SWAP1 JUMP JUMPDEST CALLVALUE DUP1 ISZERO PUSH2 0x342 JUMPI PUSH1 0x0 DUP1 REVERT JUMPDEST POP PUSH2 0x34B PUSH1 0xC DUP2 JUMP JUMPDEST PUSH1 0x40 MLOAD PUSH1 0xFF SWAP1 SWAP2 AND DUP2 MSTORE PUSH1 0x20 ADD PUSH2 0x21E JUMP JUMPDEST CALLVALUE DUP1 ISZERO PUSH2 0x369 JUMPI PUSH1 0x0 DUP1 REVERT JUMPDEST POP PUSH2 0x1C6 PUSH2 0x378 CALLDATASIZE PUSH1 0x4 PUSH2 0x313A JUMP JUMPDEST PUSH2 0x1267 JUMP JUMPDEST CALLVALUE DUP1 ISZERO PUSH2 0x389 JUMPI PUSH1 0x0 DUP1 REVERT JUMPDEST POP PUSH2 0x392 PUSH2 0x12F9 JUMP JUMPDEST PUSH1 0x40 MLOAD PUSH2 0x21E SWAP2 SWAP1 PUSH2 0x31B9 JUMP JUMPDEST CALLVALUE DUP1 ISZERO PUSH2 0x3AB JUMPI PUSH1 0x0 DUP1 REVERT JUMPDEST POP PUSH2 0x23D PUSH2 0x3BA CALLDATASIZE PUSH1 0x4 PUSH2 0x2FD5 JUMP JUMPDEST PUSH2 0x13F5 JUMP JUMPDEST CALLVALUE DUP1 ISZERO PUSH2 0x3CB JUMPI PUSH1 0x0 DUP1 REVERT JUMPDEST POP PUSH2 0x23D PUSH2 0x3DA CALLDATASIZE PUSH1 0x4 PUSH2 0x2FD5 JUMP JUMPDEST PUSH20 0xFFFFFFFFFFFFFFFFFFFFFFFFFFFFFFFFFFFFFFFF AND PUSH1 0x0 SWAP1 DUP2 MSTORE PUSH1 0x20 DUP2 SWAP1 MSTORE PUSH1 0x40 SWAP1 KECCAK256 PUSH1 0x6 ADD SLOAD SWAP1 JUMP JUMPDEST CALLVALUE DUP1 ISZERO PUSH2 0x411 JUMPI PUSH1 0x0 DUP1 REVERT JUMPDEST POP PUSH2 0x1C6 PUSH2 0x420 CALLDATASIZE PUSH1 0x4 PUSH2 0x30C6 JUMP JUMPDEST PUSH2 0x1556 JUMP JUMPDEST CALLVALUE DUP1 ISZERO PUSH2 0x431 JUMPI PUSH1 0x0 DUP1 REVERT JUMPDEST POP PUSH2 0x1C6 PUSH2 0x1BAF JUMP JUMPDEST CALLVALUE DUP1 ISZERO PUSH2 0x446 JUMPI PUSH1 0x0 DUP1 REVERT JUMPDEST POP PUSH2 0x392 PUSH2 0x1DDA JUMP JUMPDEST CALLVALUE DUP1 ISZERO PUSH2 0x45B JUMPI PUSH1 0x0 DUP1 REVERT JUMPDEST POP PUSH2 0x1C6 PUSH2 0x46A CALLDATASIZE PUSH1 0x4 PUSH2 0x313A JUMP JUMPDEST PUSH2 0x1ED4 JUMP JUMPDEST CALLVALUE DUP1 ISZERO PUSH2 0x47B JUMPI PUSH1 0x0 DUP1 REVERT JUMPDEST POP PUSH2 0x23D PUSH2 0x48A CALLDATASIZE PUSH1 0x4 PUSH2 0x3089 JUMP JUMPDEST PUSH2 0x1F61 JUMP JUMPDEST CALLVALUE DUP1 ISZERO PUSH2 0x49B JUMPI PUSH1 0x0 DUP1 REVERT JUMPDEST POP PUSH2 0x23D PUSH1 0x3 SLOAD DUP2 JUMP JUMPDEST CALLVALUE DUP1 ISZERO PUSH2 0x4B1 JUMPI PUSH1 0x0 DUP1 REVERT JUMPDEST POP PUSH2 0x211 PUSH1 0x40 MLOAD DUP1 PUSH1 0x40 ADD PUSH1 0x40 MSTORE DUP1 PUSH1 0x4 DUP2 MSTORE PUSH1 0x20 ADD PUSH32 0x434D4F4E00000000000000000000000000000000000000000000000000000000 DUP2 MSTORE POP DUP2 JUMP JUMPDEST CALLVALUE DUP1 ISZERO PUSH2 0x4FA JUMPI PUSH1 0x0 DUP1 REVERT JUMPDEST POP PUSH2 0x1C6 PUSH2 0x509 CALLDATASIZE PUSH1 0x4 PUSH2 0x2FD5 JUMP JUMPDEST PUSH2 0x1F91 JUMP JUMPDEST CALLVALUE DUP1 ISZERO PUSH2 0x51A JUMPI PUSH1 0x0 DUP1 REVERT JUMPDEST POP PUSH2 0x26B PUSH2 0x529 CALLDATASIZE PUSH1 0x4 PUSH2 0x305F JUMP JUMPDEST PUSH2 0x234C JUMP JUMPDEST CALLVALUE DUP1 ISZERO PUSH2 0x53A JUMPI PUSH1 0x0 DUP1 REVERT JUMPDEST POP PUSH2 0x23D PUSH2 0x549 CALLDATASIZE PUSH1 0x4 PUSH2 0x2FD5 JUMP JUMPDEST PUSH20 0xFFFFFFFFFFFFFFFFFFFFFFFFFFFFFFFFFFFFFFFF AND PUSH1 0x0 SWAP1 DUP2 MSTORE PUSH1 0x20 DUP2 SWAP1 MSTORE PUSH1 0x40 SWAP1 KECCAK256 PUSH1 0x5 ADD SLOAD SWAP1 JUMP JUMPDEST CALLVALUE DUP1 ISZERO PUSH2 0x580 JUMPI PUSH1 0x0 DUP1 REVERT JUMPDEST POP PUSH2 0x392 PUSH2 0x28F8 JUMP JUMPDEST PUSH2 0x59C PUSH2 0x597 CALLDATASIZE PUSH1 0x4 PUSH2 0x313A JUMP JUMPDEST PUSH2 0x2A46 JUMP JUMPDEST PUSH1 0x40 MLOAD PUSH2 0x21E SWAP3 SWAP2 SWAP1 PUSH2 0x3213 JUMP JUMPDEST CALLVALUE DUP1 ISZERO PUSH2 0x5B6 JUMPI PUSH1 0x0 DUP1 REVERT JUMPDEST POP PUSH2 0x23D PUSH2 0x5C5 CALLDATASIZE PUSH1 0x4 PUSH2 0x2FF0 JUMP JUMPDEST PUSH20 0xFFFFFFFFFFFFFFFFFFFFFFFFFFFFFFFFFFFFFFFF SWAP2 DUP3 AND PUSH1 0x0 SWAP1 DUP2 MSTORE PUSH1 0x1 PUSH1 0x20 SWAP1 DUP2 MSTORE PUSH1 0x40 DUP1 DUP4 KECCAK256 SWAP4 SWAP1 SWAP5 AND DUP3 MSTORE SWAP2 SWAP1 SWAP2 MSTORE KECCAK256 SLOAD SWAP1 JUMP JUMPDEST PUSH1 0x2 CALLER PUSH1 0x0 SWAP1 DUP2 MSTORE PUSH1 0x20 DUP2 SWAP1 MSTORE PUSH1 0x40 SWAP1 KECCAK256 SLOAD PUSH1 0xFF AND PUSH1 0x4 DUP2 GT ISZERO PUSH2 0x623 JUMPI PUSH2 0x623 PUSH2 0x33C8 JUMP JUMPDEST EQ PUSH2 0x68F JUMPI PUSH1 0x40 MLOAD PUSH32 0x8C379A000000000000000000000000000000000000000000000000000000000 DUP2 MSTORE PUSH1 0x20 PUSH1 0x4 DUP3 ADD MSTORE PUSH1 0x19 PUSH1 0x24 DUP3 ADD MSTORE PUSH32 0x596F7572206E6F7420507269766174652070726F766964657200000000000000 PUSH1 0x44 DUP3 ADD MSTORE PUSH1 0x64 ADD JUMPDEST PUSH1 0x40 MLOAD DUP1 SWAP2 SUB SWAP1 REVERT JUMPDEST CALLER PUSH1 0x0 SWAP1 DUP2 MSTORE PUSH1 0x4 PUSH1 0x20 MSTORE PUSH1 0x40 SWAP1 KECCAK256 SLOAD PUSH1 0xFF AND ISZERO DUP1 ISZERO PUSH2 0x6C4 JUMPI POP CALLER PUSH1 0x0 SWAP1 DUP2 MSTORE PUSH1 0x4 PUSH1 0x20 MSTORE PUSH1 0x40 SWAP1 KECCAK256 SLOAD PUSH2 0x100 SWAP1 DIV PUSH1 0xFF AND ISZERO JUMPDEST PUSH2 0x72A JUMPI PUSH1 0x40 MLOAD PUSH32 0x8C379A000000000000000000000000000000000000000000000000000000000 DUP2 MSTORE PUSH1 0x20 PUSH1 0x4 DUP3 ADD MSTORE PUSH1 0x14 PUSH1 0x24 DUP3 ADD MSTORE PUSH32 0x506861736520616C726561647920616374697665000000000000000000000000 PUSH1 0x44 DUP3 ADD MSTORE PUSH1 0x64 ADD PUSH2 0x686 JUMP JUMPDEST PUSH1 0x40 DUP1 MLOAD DUP1 DUP3 ADD DUP3 MSTORE PUSH1 0x1 DUP1 DUP3 MSTORE PUSH1 0x20 DUP1 DUP4 ADD SWAP2 DUP3 MSTORE CALLER PUSH1 0x0 SWAP1 DUP2 MSTORE PUSH1 0x4 SWAP1 SWAP2 MSTORE SWAP3 SWAP1 SWAP3 KECCAK256 SWAP1 MLOAD DUP2 SLOAD SWAP3 MLOAD PUSH32 0xFFFFFFFFFFFFFFFFFFFFFFFFFFFFFFFFFFFFFFFFFFFFFFFFFFFFFFFFFFFF0000 SWAP1 SWAP4 AND SWAP1 ISZERO ISZERO PUSH32 0xFFFFFFFFFFFFFFFFFFFFFFFFFFFFFFFFFFFFFFFFFFFFFFFFFFFFFFFFFFFF00FF AND OR PUSH2 0x100 SWAP3 ISZERO ISZERO SWAP3 SWAP1 SWAP3 MUL SWAP2 SWAP1 SWAP2 OR SWAP1 SSTORE JUMP JUMPDEST CALLER PUSH1 0x0 DUP2 DUP2 MSTORE PUSH1 0x1 PUSH1 0x20 SWAP1 DUP2 MSTORE PUSH1 0x40 DUP1 DUP4 KECCAK256 PUSH20 0xFFFFFFFFFFFFFFFFFFFFFFFFFFFFFFFFFFFFFFFF DUP8 AND DUP1 DUP6 MSTORE SWAP3 MSTORE DUP1 DUP4 KECCAK256 DUP6 SWAP1 SSTORE MLOAD SWAP2 SWAP3 SWAP1 SWAP2 PUSH32 0x8C5BE1E5EBEC7D5BD14F71427D1E84F3DD0314C0F7B2291E5B200AC8C7C3B925 SWAP1 PUSH2 0x819 SWAP1 DUP7 DUP2 MSTORE PUSH1 0x20 ADD SWAP1 JUMP JUMPDEST PUSH1 0x40 MLOAD DUP1 SWAP2 SUB SWAP1 LOG3 POP PUSH1 0x1 JUMPDEST SWAP3 SWAP2 POP POP JUMP JUMPDEST CALLER PUSH1 0x0 SWAP1 DUP2 MSTORE PUSH1 0x20 DUP2 SWAP1 MSTORE PUSH1 0x40 DUP2 KECCAK256 SLOAD PUSH1 0xFF AND PUSH1 0x4 DUP2 GT ISZERO PUSH2 0x84F JUMPI PUSH2 0x84F PUSH2 0x33C8 JUMP JUMPDEST EQ PUSH2 0x8B6 JUMPI PUSH1 0x40 MLOAD PUSH32 0x8C379A000000000000000000000000000000000000000000000000000000000 DUP2 MSTORE PUSH1 0x20 PUSH1 0x4 DUP3 ADD MSTORE PUSH1 0xE PUSH1 0x24 DUP3 ADD MSTORE PUSH32 0x596F7572206E6F742061646D696E000000000000000000000000000000000000 PUSH1 0x44 DUP3 ADD MSTORE PUSH1 0x64 ADD PUSH2 0x686 JUMP JUMPDEST PUSH1 0x8 DUP1 SLOAD PUSH1 0x1 DUP2 ADD DUP3 SSTORE PUSH1 0x0 SWAP2 SWAP1 SWAP2 MSTORE PUSH32 0xF3F7A9FE364FAAB93B216DA50A3214154F22A0A2B415B23A84C8169E8B636EE3 ADD DUP1 SLOAD PUSH32 0xFFFFFFFFFFFFFFFFFFFFFFFF0000000000000000000000000000000000000000 AND PUSH20 0xFFFFFFFFFFFFFFFFFFFFFFFFFFFFFFFFFFFFFFFF SWAP3 SWAP1 SWAP3 AND SWAP2 SWAP1 SWAP2 OR SWAP1 SSTORE JUMP JUMPDEST PUSH1 0x2 CALLER PUSH1 0x0 SWAP1 DUP2 MSTORE PUSH1 0x20 DUP2 SWAP1 MSTORE PUSH1 0x40 SWAP1 KECCAK256 SLOAD PUSH1 0xFF AND PUSH1 0x4 DUP2 GT ISZERO PUSH2 0x953 JUMPI PUSH2 0x953 PUSH2 0x33C8 JUMP JUMPDEST EQ PUSH2 0x9BA JUMPI PUSH1 0x40 MLOAD PUSH32 0x8C379A000000000000000000000000000000000000000000000000000000000 DUP2 MSTORE PUSH1 0x20 PUSH1 0x4 DUP3 ADD MSTORE PUSH1 0x19 PUSH1 0x24 DUP3 ADD MSTORE PUSH32 0x596F7572206E6F7420507269766174652070726F766964657200000000000000 PUSH1 0x44 DUP3 ADD MSTORE PUSH1 0x64 ADD PUSH2 0x686 JUMP JUMPDEST CALLER PUSH1 0x0 SWAP1 DUP2 MSTORE PUSH1 0x5 PUSH1 0x20 MSTORE PUSH1 0x40 SWAP1 KECCAK256 PUSH1 0x2 ADD SLOAD PUSH22 0x1000000000000000000000000000000000000000000 SWAP1 DIV PUSH1 0xFF AND ISZERO PUSH2 0xA50 JUMPI PUSH1 0x40 MLOAD PUSH32 0x8C379A000000000000000000000000000000000000000000000000000000000 DUP2 MSTORE PUSH1 0x20 PUSH1 0x4 DUP3 ADD MSTORE PUSH1 0x1C PUSH1 0x24 DUP3 ADD MSTORE PUSH32 0x52657669657720746865206170706C69636174696F6E20666972737400000000 PUSH1 0x44 DUP3 ADD MSTORE PUSH1 0x64 ADD PUSH2 0x686 JUMP JUMPDEST PUSH20 0xFFFFFFFFFFFFFFFFFFFFFFFFFFFFFFFFFFFFFFFF AND PUSH1 0x0 SWAP1 DUP2 MSTORE PUSH1 0x5 PUSH1 0x20 MSTORE PUSH1 0x40 SWAP1 KECCAK256 PUSH1 0x2 ADD DUP1 SLOAD PUSH32 0xFFFFFFFFFFFFFFFFFFFFFF00FFFFFFFFFFFFFFFFFFFFFFFFFFFFFFFFFFFFFFFF AND SWAP1 SSTORE JUMP JUMPDEST PUSH1 0x0 DUP1 PUSH20 0xFFFFFFFFFFFFFFFFFFFFFFFFFFFFFFFFFFFFFFFF DUP6 AND PUSH1 0x0 SWAP1 DUP2 MSTORE PUSH1 0x20 DUP2 SWAP1 MSTORE PUSH1 0x40 SWAP1 KECCAK256 SLOAD PUSH1 0xFF AND PUSH1 0x4 DUP2 GT ISZERO PUSH2 0xADC JUMPI PUSH2 0xADC PUSH2 0x33C8 JUMP JUMPDEST EQ ISZERO PUSH2 0xE23 JUMPI PUSH20 0xFFFFFFFFFFFFFFFFFFFFFFFFFFFFFFFFFFFFFFFF DUP5 AND PUSH1 0x0 SWAP1 DUP2 MSTORE PUSH1 0x20 DUP2 SWAP1 MSTORE PUSH1 0x40 SWAP1 KECCAK256 PUSH1 0x3 ADD SLOAD DUP3 GT ISZERO PUSH2 0xB17 JUMPI PUSH1 0x0 DUP1 REVERT JUMPDEST PUSH20 0xFFFFFFFFFFFFFFFFFFFFFFFFFFFFFFFFFFFFFFFF DUP5 AND PUSH1 0x0 SWAP1 DUP2 MSTORE PUSH1 0x1 PUSH1 0x20 SWAP1 DUP2 MSTORE PUSH1 0x40 DUP1 DUP4 KECCAK256 CALLER DUP5 MSTORE SWAP1 SWAP2 MSTORE SWAP1 KECCAK256 SLOAD DUP3 GT ISZERO PUSH2 0xB54 JUMPI PUSH1 0x0 DUP1 REVERT JUMPDEST PUSH20 0xFFFFFFFFFFFFFFFFFFFFFFFFFFFFFFFFFFFFFFFF DUP5 AND PUSH1 0x0 SWAP1 DUP2 MSTORE PUSH1 0x20 DUP2 SWAP1 MSTORE PUSH1 0x40 SWAP1 KECCAK256 PUSH1 0x3 ADD SLOAD PUSH2 0xB87 SWAP1 DUP4 PUSH2 0x2DF9 JUMP JUMPDEST PUSH20 0xFFFFFFFFFFFFFFFFFFFFFFFFFFFFFFFFFFFFFFFF DUP6 AND PUSH1 0x0 SWAP1 DUP2 MSTORE PUSH1 0x20 DUP2 DUP2 MSTORE PUSH1 0x40 DUP1 DUP4 KECCAK256 PUSH1 0x3 ADD SWAP4 SWAP1 SWAP4 SSTORE PUSH1 0x1 DUP2 MSTORE DUP3 DUP3 KECCAK256 CALLER DUP4 MSTORE SWAP1 MSTORE KECCAK256 SLOAD PUSH2 0xBCC SWAP1 DUP4 PUSH2 0x2DF9 JUMP JUMPDEST PUSH20 0xFFFFFFFFFFFFFFFFFFFFFFFFFFFFFFFFFFFFFFFF DUP6 AND PUSH1 0x0 SWAP1 DUP2 MSTORE PUSH1 0x1 PUSH1 0x20 DUP2 DUP2 MSTORE PUSH1 0x40 DUP1 DUP5 KECCAK256 CALLER DUP6 MSTORE DUP3 MSTORE DUP4 KECCAK256 SWAP4 SWAP1 SWAP4 SSTORE PUSH20 0xAB8483F64D9C6D1ECF9B849AE677DD3315835CB2 SWAP1 SWAP2 MSTORE PUSH1 0x4 SWAP1 SWAP2 MSTORE PUSH32 0x2E472438281ECE9FAE629C31EBC952B0B512971EFB1BACFC7D4441C586CFF6C SLOAD PUSH1 0xFF AND ISZERO ISZERO EQ ISZERO PUSH2 0xCAA JUMPI PUSH20 0xFFFFFFFFFFFFFFFFFFFFFFFFFFFFFFFFFFFFFFFF DUP4 AND PUSH1 0x0 SWAP1 DUP2 MSTORE PUSH1 0x20 DUP2 SWAP1 MSTORE PUSH1 0x40 SWAP1 KECCAK256 PUSH1 0x5 ADD SLOAD PUSH2 0xC7C SWAP1 DUP4 PUSH2 0x2E15 JUMP JUMPDEST PUSH20 0xFFFFFFFFFFFFFFFFFFFFFFFFFFFFFFFFFFFFFFFF DUP5 AND PUSH1 0x0 SWAP1 DUP2 MSTORE PUSH1 0x20 DUP2 SWAP1 MSTORE PUSH1 0x40 SWAP1 KECCAK256 PUSH1 0x5 ADD SSTORE PUSH2 0xDB4 JUMP JUMPDEST PUSH20 0x4B20993BC481177EC7E8F571CECAE8A9E22C02DB PUSH1 0x0 MSTORE PUSH1 0x4 PUSH1 0x20 MSTORE PUSH32 0xB9FE4B740977877E3FA94E7F3DBF51FFCC3FB0449ED024E5D3849F3210D56220 SLOAD PUSH1 0xFF AND ISZERO ISZERO PUSH1 0x1 EQ ISZERO PUSH2 0xD57 JUMPI PUSH20 0xFFFFFFFFFFFFFFFFFFFFFFFFFFFFFFFFFFFFFFFF DUP4 AND PUSH1 0x0 SWAP1 DUP2 MSTORE PUSH1 0x20 DUP2 SWAP1 MSTORE PUSH1 0x40 SWAP1 KECCAK256 PUSH1 0x6 ADD SLOAD PUSH2 0xD29 SWAP1 DUP4 PUSH2 0x2E15 JUMP JUMPDEST PUSH20 0xFFFFFFFFFFFFFFFFFFFFFFFFFFFFFFFFFFFFFFFF DUP5 AND PUSH1 0x0 SWAP1 DUP2 MSTORE PUSH1 0x20 DUP2 SWAP1 MSTORE PUSH1 0x40 SWAP1 KECCAK256 PUSH1 0x6 ADD SSTORE PUSH2 0xDB4 JUMP JUMPDEST PUSH20 0xFFFFFFFFFFFFFFFFFFFFFFFFFFFFFFFFFFFFFFFF DUP4 AND PUSH1 0x0 SWAP1 DUP2 MSTORE PUSH1 0x20 DUP2 SWAP1 MSTORE PUSH1 0x40 SWAP1 KECCAK256 PUSH1 0x4 ADD SLOAD PUSH2 0xD8A SWAP1 DUP4 PUSH2 0x2E15 JUMP JUMPDEST PUSH20 0xFFFFFFFFFFFFFFFFFFFFFFFFFFFFFFFFFFFFFFFF DUP5 AND PUSH1 0x0 SWAP1 DUP2 MSTORE PUSH1 0x20 DUP2 SWAP1 MSTORE PUSH1 0x40 SWAP1 KECCAK256 PUSH1 0x4 ADD SSTORE JUMPDEST DUP3 PUSH20 0xFFFFFFFFFFFFFFFFFFFFFFFFFFFFFFFFFFFFFFFF AND DUP5 PUSH20 0xFFFFFFFFFFFFFFFFFFFFFFFFFFFFFFFFFFFFFFFF AND PUSH32 0xDDF252AD1BE2C89B69C2B068FC378DAA952BA7F163C4A11628F55A4DF523B3EF DUP5 PUSH1 0x40 MLOAD PUSH2 0xE13 SWAP2 DUP2 MSTORE PUSH1 0x20 ADD SWAP1 JUMP JUMPDEST PUSH1 0x40 MLOAD DUP1 SWAP2 SUB SWAP1 LOG3 POP PUSH1 0x1 PUSH2 0x1260 JUMP JUMPDEST PUSH20 0xAB8483F64D9C6D1ECF9B849AE677DD3315835CB2 PUSH1 0x0 MSTORE PUSH1 0x4 PUSH1 0x20 MSTORE PUSH32 0x2E472438281ECE9FAE629C31EBC952B0B512971EFB1BACFC7D4441C586CFF6C SLOAD PUSH1 0xFF AND ISZERO ISZERO PUSH1 0x1 EQ ISZERO PUSH2 0xFA6 JUMPI PUSH20 0xFFFFFFFFFFFFFFFFFFFFFFFFFFFFFFFFFFFFFFFF DUP5 AND PUSH1 0x0 SWAP1 DUP2 MSTORE PUSH1 0x20 DUP2 SWAP1 MSTORE PUSH1 0x40 SWAP1 KECCAK256 PUSH1 0x5 ADD SLOAD DUP3 GT ISZERO PUSH2 0xEA4 JUMPI PUSH1 0x0 DUP1 REVERT JUMPDEST PUSH20 0xFFFFFFFFFFFFFFFFFFFFFFFFFFFFFFFFFFFFFFFF DUP5 AND PUSH1 0x0 SWAP1 DUP2 MSTORE PUSH1 0x1 PUSH1 0x20 SWAP1 DUP2 MSTORE PUSH1 0x40 DUP1 DUP4 KECCAK256 CALLER DUP5 MSTORE SWAP1 SWAP2 MSTORE SWAP1 KECCAK256 SLOAD DUP3 GT ISZERO PUSH2 0xEE1 JUMPI PUSH1 0x0 DUP1 REVERT JUMPDEST PUSH20 0xFFFFFFFFFFFFFFFFFFFFFFFFFFFFFFFFFFFFFFFF DUP5 AND PUSH1 0x0 SWAP1 DUP2 MSTORE PUSH1 0x20 DUP2 SWAP1 MSTORE PUSH1 0x40 SWAP1 KECCAK256 PUSH1 0x5 ADD SLOAD PUSH2 0xF14 SWAP1 DUP4 PUSH2 0x2DF9 JUMP JUMPDEST PUSH20 0xFFFFFFFFFFFFFFFFFFFFFFFFFFFFFFFFFFFFFFFF DUP6 AND PUSH1 0x0 SWAP1 DUP2 MSTORE PUSH1 0x20 DUP2 DUP2 MSTORE PUSH1 0x40 DUP1 DUP4 KECCAK256 PUSH1 0x5 ADD SWAP4 SWAP1 SWAP4 SSTORE PUSH1 0x1 DUP2 MSTORE DUP3 DUP3 KECCAK256 CALLER DUP4 MSTORE SWAP1 MSTORE KECCAK256 SLOAD PUSH2 0xF59 SWAP1 DUP4 PUSH2 0x2DF9 JUMP JUMPDEST PUSH20 0xFFFFFFFFFFFFFFFFFFFFFFFFFFFFFFFFFFFFFFFF DUP1 DUP7 AND PUSH1 0x0 SWAP1 DUP2 MSTORE PUSH1 0x1 PUSH1 0x20 SWAP1 DUP2 MSTORE PUSH1 0x40 DUP1 DUP4 KECCAK256 CALLER DUP5 MSTORE DUP3 MSTORE DUP1 DUP4 KECCAK256 SWAP5 SWAP1 SWAP5 SSTORE SWAP2 DUP7 AND DUP2 MSTORE SWAP1 DUP2 SWAP1 MSTORE KECCAK256 PUSH1 0x5 ADD SLOAD PUSH2 0xC7C SWAP1 DUP4 PUSH2 0x2E15 JUMP JUMPDEST PUSH20 0x4B20993BC481177EC7E8F571CECAE8A9E22C02DB PUSH1 0x0 MSTORE PUSH1 0x4 PUSH1 0x20 MSTORE PUSH32 0xB9FE4B740977877E3FA94E7F3DBF51FFCC3FB0449ED024E5D3849F3210D56220 SLOAD PUSH1 0xFF AND ISZERO ISZERO PUSH1 0x1 EQ ISZERO PUSH2 0x1129 JUMPI PUSH20 0xFFFFFFFFFFFFFFFFFFFFFFFFFFFFFFFFFFFFFFFF DUP5 AND PUSH1 0x0 SWAP1 DUP2 MSTORE PUSH1 0x20 DUP2 SWAP1 MSTORE PUSH1 0x40 SWAP1 KECCAK256 PUSH1 0x6 ADD SLOAD DUP3 GT ISZERO PUSH2 0x1027 JUMPI PUSH1 0x0 DUP1 REVERT JUMPDEST PUSH20 0xFFFFFFFFFFFFFFFFFFFFFFFFFFFFFFFFFFFFFFFF DUP5 AND PUSH1 0x0 SWAP1 DUP2 MSTORE PUSH1 0x1 PUSH1 0x20 SWAP1 DUP2 MSTORE PUSH1 0x40 DUP1 DUP4 KECCAK256 CALLER DUP5 MSTORE SWAP1 SWAP2 MSTORE SWAP1 KECCAK256 SLOAD DUP3 GT ISZERO PUSH2 0x1064 JUMPI PUSH1 0x0 DUP1 REVERT JUMPDEST PUSH20 0xFFFFFFFFFFFFFFFFFFFFFFFFFFFFFFFFFFFFFFFF DUP5 AND PUSH1 0x0 SWAP1 DUP2 MSTORE PUSH1 0x20 DUP2 SWAP1 MSTORE PUSH1 0x40 SWAP1 KECCAK256 PUSH1 0x6 ADD SLOAD PUSH2 0x1097 SWAP1 DUP4 PUSH2 0x2DF9 JUMP JUMPDEST PUSH20 0xFFFFFFFFFFFFFFFFFFFFFFFFFFFFFFFFFFFFFFFF DUP6 AND PUSH1 0x0 SWAP1 DUP2 MSTORE PUSH1 0x20 DUP2 DUP2 MSTORE PUSH1 0x40 DUP1 DUP4 KECCAK256 PUSH1 0x6 ADD SWAP4 SWAP1 SWAP4 SSTORE PUSH1 0x1 DUP2 MSTORE DUP3 DUP3 KECCAK256 CALLER DUP4 MSTORE SWAP1 MSTORE KECCAK256 SLOAD PUSH2 0x10DC SWAP1 DUP4 PUSH2 0x2DF9 JUMP JUMPDEST PUSH20 0xFFFFFFFFFFFFFFFFFFFFFFFFFFFFFFFFFFFFFFFF DUP1 DUP7 AND PUSH1 0x0 SWAP1 DUP2 MSTORE PUSH1 0x1 PUSH1 0x20 SWAP1 DUP2 MSTORE PUSH1 0x40 DUP1 DUP4 KECCAK256 CALLER DUP5 MSTORE DUP3 MSTORE DUP1 DUP4 KECCAK256 SWAP5 SWAP1 SWAP5 SSTORE SWAP2 DUP7 AND DUP2 MSTORE SWAP1 DUP2 SWAP1 MSTORE KECCAK256 PUSH1 0x6 ADD SLOAD PUSH2 0xD29 SWAP1 DUP4 PUSH2 0x2E15 JUMP JUMPDEST PUSH20 0xFFFFFFFFFFFFFFFFFFFFFFFFFFFFFFFFFFFFFFFF DUP5 AND PUSH1 0x0 SWAP1 DUP2 MSTORE PUSH1 0x20 DUP2 SWAP1 MSTORE PUSH1 0x40 SWAP1 KECCAK256 PUSH1 0x4 ADD SLOAD DUP3 GT ISZERO PUSH2 0x115E JUMPI PUSH1 0x0 DUP1 REVERT JUMPDEST PUSH20 0xFFFFFFFFFFFFFFFFFFFFFFFFFFFFFFFFFFFFFFFF DUP5 AND PUSH1 0x0 SWAP1 DUP2 MSTORE PUSH1 0x1 PUSH1 0x20 SWAP1 DUP2 MSTORE PUSH1 0x40 DUP1 DUP4 KECCAK256 CALLER DUP5 MSTORE SWAP1 SWAP2 MSTORE SWAP1 KECCAK256 SLOAD DUP3 GT ISZERO PUSH2 0x119B JUMPI PUSH1 0x0 DUP1 REVERT JUMPDEST PUSH20 0xFFFFFFFFFFFFFFFFFFFFFFFFFFFFFFFFFFFFFFFF DUP5 AND PUSH1 0x0 SWAP1 DUP2 MSTORE PUSH1 0x20 DUP2 SWAP1 MSTORE PUSH1 0x40 SWAP1 KECCAK256 PUSH1 0x4 ADD SLOAD PUSH2 0x11CE SWAP1 DUP4 PUSH2 0x2DF9 JUMP JUMPDEST PUSH20 0xFFFFFFFFFFFFFFFFFFFFFFFFFFFFFFFFFFFFFFFF DUP6 AND PUSH1 0x0 SWAP1 DUP2 MSTORE PUSH1 0x20 DUP2 DUP2 MSTORE PUSH1 0x40 DUP1 DUP4 KECCAK256 PUSH1 0x4 ADD SWAP4 SWAP1 SWAP4 SSTORE PUSH1 0x1 DUP2 MSTORE DUP3 DUP3 KECCAK256 CALLER DUP4 MSTORE SWAP1 MSTORE KECCAK256 SLOAD PUSH2 0x1213 SWAP1 DUP4 PUSH2 0x2DF9 JUMP JUMPDEST PUSH20 0xFFFFFFFFFFFFFFFFFFFFFFFFFFFFFFFFFFFFFFFF DUP1 DUP7 AND PUSH1 0x0 SWAP1 DUP2 MSTORE PUSH1 0x1 PUSH1 0x20 SWAP1 DUP2 MSTORE PUSH1 0x40 DUP1 DUP4 KECCAK256 CALLER DUP5 MSTORE DUP3 MSTORE DUP1 DUP4 KECCAK256 SWAP5 SWAP1 SWAP5 SSTORE SWAP2 DUP7 AND DUP2 MSTORE SWAP1 DUP2 SWAP1 MSTORE KECCAK256 PUSH1 0x4 ADD SLOAD PUSH2 0xD8A SWAP1 DUP4 PUSH2 0x2E15 JUMP JUMPDEST SWAP4 SWAP3 POP POP POP JUMP JUMPDEST PUSH1 0x1 CALLER PUSH1 0x0 SWAP1 DUP2 MSTORE PUSH1 0x20 DUP2 SWAP1 MSTORE PUSH1 0x40 SWAP1 KECCAK256 SLOAD PUSH1 0xFF AND PUSH1 0x4 DUP2 GT ISZERO PUSH2 0x128D JUMPI PUSH2 0x128D PUSH2 0x33C8 JUMP JUMPDEST EQ PUSH2 0x12F4 JUMPI PUSH1 0x40 MLOAD PUSH32 0x8C379A000000000000000000000000000000000000000000000000000000000 DUP2 MSTORE PUSH1 0x20 PUSH1 0x4 DUP3 ADD MSTORE PUSH1 0x18 PUSH1 0x24 DUP3 ADD MSTORE PUSH32 0x596F7572206E6F74205075626C69632070726F76696465720000000000000000 PUSH1 0x44 DUP3 ADD MSTORE PUSH1 0x64 ADD PUSH2 0x686 JUMP JUMPDEST PUSH1 0x2 SSTORE JUMP JUMPDEST PUSH1 0x60 PUSH1 0x2 CALLER PUSH1 0x0 SWAP1 DUP2 MSTORE PUSH1 0x20 DUP2 SWAP1 MSTORE PUSH1 0x40 SWAP1 KECCAK256 SLOAD PUSH1 0xFF AND PUSH1 0x4 DUP2 GT ISZERO PUSH2 0x1321 JUMPI PUSH2 0x1321 PUSH2 0x33C8 JUMP JUMPDEST EQ PUSH2 0x1388 JUMPI PUSH1 0x40 MLOAD PUSH32 0x8C379A000000000000000000000000000000000000000000000000000000000 DUP2 MSTORE PUSH1 0x20 PUSH1 0x4 DUP3 ADD MSTORE PUSH1 0x19 PUSH1 0x24 DUP3 ADD MSTORE PUSH32 0x596F7572206E6F7420507269766174652070726F766964657200000000000000 PUSH1 0x44 DUP3 ADD MSTORE PUSH1 0x64 ADD PUSH2 0x686 JUMP JUMPDEST PUSH1 0x6 DUP1 SLOAD DUP1 PUSH1 0x20 MUL PUSH1 0x20 ADD PUSH1 0x40 MLOAD SWAP1 DUP2 ADD PUSH1 0x40 MSTORE DUP1 SWAP3 SWAP2 SWAP1 DUP2 DUP2 MSTORE PUSH1 0x20 ADD DUP3 DUP1 SLOAD DUP1 ISZERO PUSH2 0x13EB JUMPI PUSH1 0x20 MUL DUP3 ADD SWAP2 SWAP1 PUSH1 0x0 MSTORE PUSH1 0x20 PUSH1 0x0 KECCAK256 SWAP1 JUMPDEST DUP2 SLOAD PUSH20 0xFFFFFFFFFFFFFFFFFFFFFFFFFFFFFFFFFFFFFFFF AND DUP2 MSTORE PUSH1 0x1 SWAP1 SWAP2 ADD SWAP1 PUSH1 0x20 ADD DUP1 DUP4 GT PUSH2 0x13C0 JUMPI JUMPDEST POP POP POP POP POP SWAP1 POP SWAP1 JUMP JUMPDEST PUSH1 0x0 PUSH2 0x13FF PUSH2 0x2E34 JUMP JUMPDEST ISZERO ISZERO PUSH1 0x1 EQ ISZERO PUSH2 0x1435 JUMPI POP PUSH20 0xFFFFFFFFFFFFFFFFFFFFFFFFFFFFFFFFFFFFFFFF AND PUSH1 0x0 SWAP1 DUP2 MSTORE PUSH1 0x20 DUP2 SWAP1 MSTORE PUSH1 0x40 SWAP1 KECCAK256 PUSH1 0x3 ADD SLOAD SWAP1 JUMP JUMPDEST PUSH20 0xAB8483F64D9C6D1ECF9B849AE677DD3315835CB2 PUSH1 0x0 MSTORE PUSH1 0x4 PUSH1 0x20 MSTORE PUSH32 0x2E472438281ECE9FAE629C31EBC952B0B512971EFB1BACFC7D4441C586CFF6C SLOAD PUSH1 0xFF AND ISZERO ISZERO PUSH1 0x1 EQ ISZERO PUSH2 0x14AD JUMPI POP PUSH20 0xFFFFFFFFFFFFFFFFFFFFFFFFFFFFFFFFFFFFFFFF AND PUSH1 0x0 SWAP1 DUP2 MSTORE PUSH1 0x20 DUP2 SWAP1 MSTORE PUSH1 0x40 SWAP1 KECCAK256 PUSH1 0x5 ADD SLOAD SWAP1 JUMP JUMPDEST PUSH20 0x4B20993BC481177EC7E8F571CECAE8A9E22C02DB PUSH1 0x0 MSTORE PUSH1 0x4 PUSH1 0x20 MSTORE PUSH32 0xB9FE4B740977877E3FA94E7F3DBF51FFCC3FB0449ED024E5D3849F3210D56220 SLOAD PUSH1 0xFF AND ISZERO ISZERO PUSH1 0x1 EQ ISZERO PUSH2 0x1525 JUMPI POP PUSH20 0xFFFFFFFFFFFFFFFFFFFFFFFFFFFFFFFFFFFFFFFF AND PUSH1 0x0 SWAP1 DUP2 MSTORE PUSH1 0x20 DUP2 SWAP1 MSTORE PUSH1 0x40 SWAP1 KECCAK256 PUSH1 0x6 ADD SLOAD SWAP1 JUMP JUMPDEST POP PUSH20 0xFFFFFFFFFFFFFFFFFFFFFFFFFFFFFFFFFFFFFFFF AND PUSH1 0x0 SWAP1 DUP2 MSTORE PUSH1 0x20 DUP2 SWAP1 MSTORE PUSH1 0x40 SWAP1 KECCAK256 PUSH1 0x4 ADD SLOAD SWAP1 JUMP JUMPDEST SWAP2 SWAP1 POP JUMP JUMPDEST CALLER PUSH1 0x0 SWAP1 DUP2 MSTORE PUSH1 0x20 DUP2 SWAP1 MSTORE PUSH1 0x40 DUP2 KECCAK256 SLOAD PUSH1 0xFF AND PUSH1 0x4 DUP2 GT ISZERO PUSH2 0x157A JUMPI PUSH2 0x157A PUSH2 0x33C8 JUMP JUMPDEST EQ ISZERO DUP1 PUSH2 0x15AB JUMPI POP PUSH1 0x1 CALLER PUSH1 0x0 SWAP1 DUP2 MSTORE PUSH1 0x20 DUP2 SWAP1 MSTORE PUSH1 0x40 SWAP1 KECCAK256 SLOAD PUSH1 0xFF AND PUSH1 0x4 DUP2 GT ISZERO PUSH2 0x15A8 JUMPI PUSH2 0x15A8 PUSH2 0x33C8 JUMP JUMPDEST EQ ISZERO JUMPDEST DUP1 PUSH2 0x15DA JUMPI POP PUSH1 0x2 CALLER PUSH1 0x0 SWAP1 DUP2 MSTORE PUSH1 0x20 DUP2 SWAP1 MSTORE PUSH1 0x40 SWAP1 KECCAK256 SLOAD PUSH1 0xFF AND PUSH1 0x4 DUP2 GT ISZERO PUSH2 0x15D7 JUMPI PUSH2 0x15D7 PUSH2 0x33C8 JUMP JUMPDEST EQ ISZERO JUMPDEST DUP1 PUSH2 0x1609 JUMPI POP PUSH1 0x3 CALLER PUSH1 0x0 SWAP1 DUP2 MSTORE PUSH1 0x20 DUP2 SWAP1 MSTORE PUSH1 0x40 SWAP1 KECCAK256 SLOAD PUSH1 0xFF AND PUSH1 0x4 DUP2 GT ISZERO PUSH2 0x1606 JUMPI PUSH2 0x1606 PUSH2 0x33C8 JUMP JUMPDEST EQ ISZERO JUMPDEST PUSH2 0x1695 JUMPI PUSH1 0x40 MLOAD PUSH32 0x8C379A000000000000000000000000000000000000000000000000000000000 DUP2 MSTORE PUSH1 0x20 PUSH1 0x4 DUP3 ADD MSTORE PUSH1 0x32 PUSH1 0x24 DUP3 ADD MSTORE PUSH32 0x4170706C69636174696F6E2063616E206F6E6C79206265207375626D69747465 PUSH1 0x44 DUP3 ADD MSTORE PUSH32 0x6420627920726567756C61722075736572730000000000000000000000000000 PUSH1 0x64 DUP3 ADD MSTORE PUSH1 0x84 ADD PUSH2 0x686 JUMP JUMPDEST PUSH20 0xAB8483F64D9C6D1ECF9B849AE677DD3315835CB2 PUSH1 0x0 SWAP1 DUP2 MSTORE PUSH1 0x4 PUSH1 0x20 MSTORE PUSH32 0x2E472438281ECE9FAE629C31EBC952B0B512971EFB1BACFC7D4441C586CFF6C SLOAD PUSH1 0xFF AND ISZERO DUP1 ISZERO PUSH2 0x1725 JUMPI POP PUSH20 0xAB8483F64D9C6D1ECF9B849AE677DD3315835CB2 PUSH1 0x0 MSTORE PUSH1 0x4 PUSH1 0x20 MSTORE PUSH32 0x2E472438281ECE9FAE629C31EBC952B0B512971EFB1BACFC7D4441C586CFF6C SLOAD PUSH1 0xFF AND ISZERO JUMPDEST PUSH2 0x178B JUMPI PUSH1 0x40 MLOAD PUSH32 0x8C379A000000000000000000000000000000000000000000000000000000000 DUP2 MSTORE PUSH1 0x20 PUSH1 0x4 DUP3 ADD MSTORE PUSH1 0x17 PUSH1 0x24 DUP3 ADD MSTORE PUSH32 0x4170706C69636174696F6E20706861736520656E646564000000000000000000 PUSH1 0x44 DUP3 ADD MSTORE PUSH1 0x64 ADD PUSH2 0x686 JUMP JUMPDEST CALLER PUSH20 0xFFFFFFFFFFFFFFFFFFFFFFFFFFFFFFFFFFFFFFFF DUP4 AND EQ PUSH2 0x1830 JUMPI PUSH1 0x40 MLOAD PUSH32 0x8C379A000000000000000000000000000000000000000000000000000000000 DUP2 MSTORE PUSH1 0x20 PUSH1 0x4 DUP3 ADD MSTORE PUSH1 0x37 PUSH1 0x24 DUP3 ADD MSTORE PUSH32 0x596F752063616E27742073656E6420616E206170706C69636174696F6E20746F PUSH1 0x44 DUP3 ADD MSTORE PUSH32 0x20736F6D656F6E6520656C736527732061646472657373000000000000000000 PUSH1 0x64 DUP3 ADD MSTORE PUSH1 0x84 ADD PUSH2 0x686 JUMP JUMPDEST PUSH1 0x0 JUMPDEST PUSH1 0x6 SLOAD DUP2 LT ISZERO PUSH2 0x190E JUMPI CALLER PUSH20 0xFFFFFFFFFFFFFFFFFFFFFFFFFFFFFFFFFFFFFFFF AND PUSH1 0x6 DUP3 DUP2 SLOAD DUP2 LT PUSH2 0x1867 JUMPI PUSH2 0x1867 PUSH2 0x33F7 JUMP JUMPDEST PUSH1 0x0 SWAP2 DUP3 MSTORE PUSH1 0x20 SWAP1 SWAP2 KECCAK256 ADD SLOAD PUSH20 0xFFFFFFFFFFFFFFFFFFFFFFFFFFFFFFFFFFFFFFFF AND EQ ISZERO PUSH2 0x1894 JUMPI PUSH1 0x1 SWAP2 POP JUMPDEST DUP2 ISZERO PUSH2 0x18FC JUMPI PUSH1 0x40 MLOAD PUSH32 0x8C379A000000000000000000000000000000000000000000000000000000000 DUP2 MSTORE PUSH1 0x20 PUSH1 0x4 DUP3 ADD MSTORE PUSH1 0x18 PUSH1 0x24 DUP3 ADD MSTORE PUSH32 0x4170706C69636174696F6E20616C72656164792073656E740000000000000000 PUSH1 0x44 DUP3 ADD MSTORE PUSH1 0x64 ADD PUSH2 0x686 JUMP JUMPDEST DUP1 PUSH2 0x1906 DUP2 PUSH2 0x3331 JUMP JUMPDEST SWAP2 POP POP PUSH2 0x1833 JUMP JUMPDEST POP CALLER PUSH1 0x0 SWAP1 DUP2 MSTORE PUSH1 0x5 PUSH1 0x20 MSTORE PUSH1 0x40 SWAP1 KECCAK256 PUSH1 0x2 ADD SLOAD PUSH21 0x10000000000000000000000000000000000000000 SWAP1 DIV PUSH1 0xFF AND ISZERO PUSH2 0x19CA JUMPI PUSH1 0x40 MLOAD PUSH32 0x8C379A000000000000000000000000000000000000000000000000000000000 DUP2 MSTORE PUSH1 0x20 PUSH1 0x4 DUP3 ADD MSTORE PUSH1 0x2A PUSH1 0x24 DUP3 ADD MSTORE PUSH32 0x596F7572206170706C69636174696F6E2068617320616C726561647920626565 PUSH1 0x44 DUP3 ADD MSTORE PUSH32 0x6E2072656A656374656400000000000000000000000000000000000000000000 PUSH1 0x64 DUP3 ADD MSTORE PUSH1 0x84 ADD PUSH2 0x686 JUMP JUMPDEST PUSH1 0x40 DUP1 MLOAD PUSH1 0xC0 DUP2 ADD DUP3 MSTORE DUP6 DUP2 MSTORE PUSH1 0x20 DUP1 DUP3 ADD DUP7 SWAP1 MSTORE PUSH20 0xFFFFFFFFFFFFFFFFFFFFFFFFFFFFFFFFFFFFFFFF DUP6 AND DUP3 DUP5 ADD MSTORE PUSH1 0x1 PUSH1 0x60 DUP4 ADD DUP2 SWAP1 MSTORE PUSH1 0x0 PUSH1 0x80 DUP5 ADD DUP2 SWAP1 MSTORE PUSH1 0xA0 DUP5 ADD SWAP2 SWAP1 SWAP2 MSTORE CALLER DUP2 MSTORE PUSH1 0x5 DUP3 MSTORE SWAP3 SWAP1 SWAP3 KECCAK256 DUP2 MLOAD DUP1 MLOAD SWAP3 SWAP4 SWAP2 SWAP3 PUSH2 0x1A34 SWAP3 DUP5 SWAP3 ADD SWAP1 PUSH2 0x2E6D JUMP JUMPDEST POP PUSH1 0x20 DUP3 DUP2 ADD MLOAD DUP1 MLOAD PUSH2 0x1A4D SWAP3 PUSH1 0x1 DUP6 ADD SWAP3 ADD SWAP1 PUSH2 0x2E6D JUMP JUMPDEST POP PUSH1 0x40 DUP3 ADD MLOAD PUSH1 0x2 SWAP1 SWAP2 ADD DUP1 SLOAD PUSH1 0x60 DUP5 ADD MLOAD PUSH1 0x80 DUP6 ADD MLOAD PUSH1 0xA0 SWAP1 SWAP6 ADD MLOAD ISZERO ISZERO PUSH23 0x100000000000000000000000000000000000000000000 MUL PUSH32 0xFFFFFFFFFFFFFFFFFF00FFFFFFFFFFFFFFFFFFFFFFFFFFFFFFFFFFFFFFFFFFFF SWAP6 ISZERO ISZERO PUSH22 0x1000000000000000000000000000000000000000000 MUL SWAP6 SWAP1 SWAP6 AND PUSH32 0xFFFFFFFFFFFFFFFFFF0000FFFFFFFFFFFFFFFFFFFFFFFFFFFFFFFFFFFFFFFFFF SWAP2 ISZERO ISZERO PUSH21 0x10000000000000000000000000000000000000000 MUL PUSH32 0xFFFFFFFFFFFFFFFFFFFFFF000000000000000000000000000000000000000000 SWAP1 SWAP4 AND PUSH20 0xFFFFFFFFFFFFFFFFFFFFFFFFFFFFFFFFFFFFFFFF SWAP1 SWAP6 AND SWAP5 SWAP1 SWAP5 OR SWAP2 SWAP1 SWAP2 OR AND SWAP2 SWAP1 SWAP2 OR SWAP2 SWAP1 SWAP2 OR SWAP1 SSTORE POP POP PUSH1 0x6 DUP1 SLOAD PUSH1 0x1 DUP2 ADD DUP3 SSTORE PUSH1 0x0 SWAP2 SWAP1 SWAP2 MSTORE PUSH32 0xF652222313E28459528D920B65115C16C04F3EFC82AAEDC97BE59F3F377C0D3F ADD DUP1 SLOAD PUSH32 0xFFFFFFFFFFFFFFFFFFFFFFFF0000000000000000000000000000000000000000 AND CALLER OR SWAP1 SSTORE POP POP JUMP JUMPDEST PUSH1 0x2 CALLER PUSH1 0x0 SWAP1 DUP2 MSTORE PUSH1 0x20 DUP2 SWAP1 MSTORE PUSH1 0x40 SWAP1 KECCAK256 SLOAD PUSH1 0xFF AND PUSH1 0x4 DUP2 GT ISZERO PUSH2 0x1BD5 JUMPI PUSH2 0x1BD5 PUSH2 0x33C8 JUMP JUMPDEST EQ PUSH2 0x1C3C JUMPI PUSH1 0x40 MLOAD PUSH32 0x8C379A000000000000000000000000000000000000000000000000000000000 DUP2 MSTORE PUSH1 0x20 PUSH1 0x4 DUP3 ADD MSTORE PUSH1 0x19 PUSH1 0x24 DUP3 ADD MSTORE PUSH32 0x596F7572206E6F7420507269766174652070726F766964657200000000000000 PUSH1 0x44 DUP3 ADD MSTORE PUSH1 0x64 ADD PUSH2 0x686 JUMP JUMPDEST CALLER PUSH1 0x0 SWAP1 DUP2 MSTORE PUSH1 0x4 PUSH1 0x20 MSTORE PUSH1 0x40 SWAP1 KECCAK256 SLOAD PUSH1 0xFF AND ISZERO ISZERO PUSH1 0x1 EQ DUP1 ISZERO PUSH2 0x1C7A JUMPI POP CALLER PUSH1 0x0 SWAP1 DUP2 MSTORE PUSH1 0x4 PUSH1 0x20 MSTORE PUSH1 0x40 SWAP1 KECCAK256 SLOAD PUSH1 0xFF PUSH2 0x100 SWAP1 SWAP2 DIV AND ISZERO ISZERO PUSH1 0x1 EQ JUMPDEST PUSH2 0x1CE0 JUMPI PUSH1 0x40 MLOAD PUSH32 0x8C379A000000000000000000000000000000000000000000000000000000000 DUP2 MSTORE PUSH1 0x20 PUSH1 0x4 DUP3 ADD DUP2 SWAP1 MSTORE PUSH1 0x24 DUP3 ADD MSTORE PUSH32 0x506861736520686173206E6F7420796574206265656E20616374697661746564 PUSH1 0x44 DUP3 ADD MSTORE PUSH1 0x64 ADD PUSH2 0x686 JUMP JUMPDEST PUSH1 0x40 DUP1 MLOAD DUP1 DUP3 ADD DUP3 MSTORE PUSH1 0x0 DUP1 DUP3 MSTORE PUSH1 0x1 PUSH1 0x20 DUP1 DUP5 ADD DUP3 DUP2 MSTORE CALLER DUP5 MSTORE PUSH1 0x4 DUP1 DUP4 MSTORE DUP7 DUP6 KECCAK256 SWAP6 MLOAD DUP7 SLOAD SWAP3 MLOAD ISZERO ISZERO PUSH2 0x100 SWAP1 DUP2 MUL PUSH32 0xFFFFFFFFFFFFFFFFFFFFFFFFFFFFFFFFFFFFFFFFFFFFFFFFFFFFFFFFFFFF00FF SWAP3 ISZERO ISZERO DUP4 AND PUSH32 0xFFFFFFFFFFFFFFFFFFFFFFFFFFFFFFFFFFFFFFFFFFFFFFFFFFFFFFFFFFFF0000 SWAP6 DUP7 AND OR OR SWAP1 SWAP8 SSTORE DUP8 MLOAD DUP1 DUP10 ADD SWAP1 SWAP9 MSTORE DUP5 DUP9 MSTORE DUP8 DUP5 ADD SWAP5 DUP6 MSTORE PUSH20 0x4B20993BC481177EC7E8F571CECAE8A9E22C02DB SWAP1 SWAP6 MSTORE SWAP1 SWAP2 MSTORE SWAP4 MLOAD PUSH32 0xB9FE4B740977877E3FA94E7F3DBF51FFCC3FB0449ED024E5D3849F3210D56220 DUP1 SLOAD SWAP3 MLOAD ISZERO ISZERO SWAP1 SWAP5 MUL SWAP1 ISZERO ISZERO SWAP1 SWAP3 AND SWAP4 AND SWAP3 SWAP1 SWAP3 OR SWAP2 SWAP1 SWAP2 OR SWAP1 SSTORE PUSH4 0x3B9ACA00 PUSH1 0x2 SSTORE PUSH2 0x1388 PUSH1 0x3 SSTORE JUMP JUMPDEST PUSH1 0x60 PUSH1 0x0 CALLER PUSH1 0x0 SWAP1 DUP2 MSTORE PUSH1 0x20 DUP2 SWAP1 MSTORE PUSH1 0x40 SWAP1 KECCAK256 SLOAD PUSH1 0xFF AND PUSH1 0x4 DUP2 GT ISZERO PUSH2 0x1E02 JUMPI PUSH2 0x1E02 PUSH2 0x33C8 JUMP JUMPDEST EQ PUSH2 0x1E69 JUMPI PUSH1 0x40 MLOAD PUSH32 0x8C379A000000000000000000000000000000000000000000000000000000000 DUP2 MSTORE PUSH1 0x20 PUSH1 0x4 DUP3 ADD MSTORE PUSH1 0xE PUSH1 0x24 DUP3 ADD MSTORE PUSH32 0x596F7572206E6F742061646D696E000000000000000000000000000000000000 PUSH1 0x44 DUP3 ADD MSTORE PUSH1 0x64 ADD PUSH2 0x686 JUMP JUMPDEST PUSH1 0x8 DUP1 SLOAD DUP1 PUSH1 0x20 MUL PUSH1 0x20 ADD PUSH1 0x40 MLOAD SWAP1 DUP2 ADD PUSH1 0x40 MSTORE DUP1 SWAP3 SWAP2 SWAP1 DUP2 DUP2 MSTORE PUSH1 0x20 ADD DUP3 DUP1 SLOAD DUP1 ISZERO PUSH2 0x13EB JUMPI PUSH1 0x20 MUL DUP3 ADD SWAP2 SWAP1 PUSH1 0x0 MSTORE PUSH1 0x20 PUSH1 0x0 KECCAK256 SWAP1 DUP2 SLOAD PUSH20 0xFFFFFFFFFFFFFFFFFFFFFFFFFFFFFFFFFFFFFFFF AND DUP2 MSTORE PUSH1 0x1 SWAP1 SWAP2 ADD SWAP1 PUSH1 0x20 ADD DUP1 DUP4 GT PUSH2 0x13C0 JUMPI POP POP POP POP POP SWAP1 POP SWAP1 JUMP JUMPDEST PUSH1 0x2 CALLER PUSH1 0x0 SWAP1 DUP2 MSTORE PUSH1 0x20 DUP2 SWAP1 MSTORE PUSH1 0x40 SWAP1 KECCAK256 SLOAD PUSH1 0xFF AND PUSH1 0x4 DUP2 GT ISZERO PUSH2 0x1EFA JUMPI PUSH2 0x1EFA PUSH2 0x33C8 JUMP JUMPDEST EQ PUSH2 0x12F4 JUMPI PUSH1 0x40 MLOAD PUSH32 0x8C379A000000000000000000000000000000000000000000000000000000000 DUP2 MSTORE PUSH1 0x20 PUSH1 0x4 DUP3 ADD MSTORE PUSH1 0x19 PUSH1 0x24 DUP3 ADD MSTORE PUSH32 0x596F7572206E6F7420507269766174652070726F766964657200000000000000 PUSH1 0x44 DUP3 ADD MSTORE PUSH1 0x64 ADD PUSH2 0x686 JUMP JUMPDEST PUSH1 0x0 DUP2 PUSH1 0x40 MLOAD PUSH1 0x20 ADD PUSH2 0x1F74 SWAP2 SWAP1 PUSH2 0x319D JUMP JUMPDEST PUSH1 0x40 MLOAD PUSH1 0x20 DUP2 DUP4 SUB SUB DUP2 MSTORE SWAP1 PUSH1 0x40 MSTORE DUP1 MLOAD SWAP1 PUSH1 0x20 ADD KECCAK256 SWAP1 POP SWAP2 SWAP1 POP JUMP JUMPDEST PUSH1 0x2 CALLER PUSH1 0x0 SWAP1 DUP2 MSTORE PUSH1 0x20 DUP2 SWAP1 MSTORE PUSH1 0x40 SWAP1 KECCAK256 SLOAD PUSH1 0xFF AND PUSH1 0x4 DUP2 GT ISZERO PUSH2 0x1FB7 JUMPI PUSH2 0x1FB7 PUSH2 0x33C8 JUMP JUMPDEST EQ PUSH2 0x201E JUMPI PUSH1 0x40 MLOAD PUSH32 0x8C379A000000000000000000000000000000000000000000000000000000000 DUP2 MSTORE PUSH1 0x20 PUSH1 0x4 DUP3 ADD MSTORE PUSH1 0x19 PUSH1 0x24 DUP3 ADD MSTORE PUSH32 0x596F7572206E6F7420507269766174652070726F766964657200000000000000 PUSH1 0x44 DUP3 ADD MSTORE PUSH1 0x64 ADD PUSH2 0x686 JUMP JUMPDEST CALLER PUSH1 0x0 SWAP1 DUP2 MSTORE PUSH1 0x5 PUSH1 0x20 MSTORE PUSH1 0x40 SWAP1 KECCAK256 PUSH1 0x2 ADD SLOAD PUSH22 0x1000000000000000000000000000000000000000000 SWAP1 DIV PUSH1 0xFF AND ISZERO PUSH2 0x20B4 JUMPI PUSH1 0x40 MLOAD PUSH32 0x8C379A000000000000000000000000000000000000000000000000000000000 DUP2 MSTORE PUSH1 0x20 PUSH1 0x4 DUP3 ADD MSTORE PUSH1 0x1C PUSH1 0x24 DUP3 ADD MSTORE PUSH32 0x52657669657720746865206170706C69636174696F6E20666972737400000000 PUSH1 0x44 DUP3 ADD MSTORE PUSH1 0x64 ADD PUSH2 0x686 JUMP JUMPDEST PUSH20 0xFFFFFFFFFFFFFFFFFFFFFFFFFFFFFFFFFFFFFFFF DUP2 AND PUSH1 0x0 DUP2 DUP2 MSTORE PUSH1 0x5 PUSH1 0x20 DUP2 DUP2 MSTORE PUSH1 0x40 DUP1 DUP5 KECCAK256 PUSH1 0x2 DUP2 ADD DUP1 SLOAD PUSH32 0xFFFFFFFFFFFFFFFFFFFFFF00FFFFFFFFFFFFFFFFFFFFFFFFFFFFFFFFFFFFFFFF AND SWAP1 SSTORE PUSH1 0x6 DUP1 SLOAD PUSH1 0x1 DUP2 DUP2 ADD SWAP1 SWAP3 SSTORE PUSH32 0xF652222313E28459528D920B65115C16C04F3EFC82AAEDC97BE59F3F377C0D3F ADD DUP1 SLOAD PUSH32 0xFFFFFFFFFFFFFFFFFFFFFFFF0000000000000000000000000000000000000000 SWAP1 DUP2 AND DUP10 OR SWAP1 SWAP2 SSTORE PUSH1 0x7 DUP1 SLOAD SWAP3 DUP4 ADD SWAP1 SSTORE PUSH32 0xA66CC928B5EDB82AF9BD49922954155AB7B0942694BEA4CE44661D9A8736C688 SWAP1 SWAP2 ADD DUP1 SLOAD SWAP1 SWAP2 AND DUP8 OR SWAP1 SSTORE DUP2 MLOAD PUSH1 0xE0 DUP2 ADD SWAP1 SWAP3 MSTORE PUSH1 0x4 DUP3 MSTORE SWAP5 SWAP1 SWAP4 MSTORE SWAP1 DUP2 MSTORE DUP3 SLOAD SWAP2 SWAP3 SWAP1 DUP4 ADD SWAP2 PUSH2 0x21BA SWAP1 PUSH2 0x32DD JUMP JUMPDEST DUP1 PUSH1 0x1F ADD PUSH1 0x20 DUP1 SWAP2 DIV MUL PUSH1 0x20 ADD PUSH1 0x40 MLOAD SWAP1 DUP2 ADD PUSH1 0x40 MSTORE DUP1 SWAP3 SWAP2 SWAP1 DUP2 DUP2 MSTORE PUSH1 0x20 ADD DUP3 DUP1 SLOAD PUSH2 0x21E6 SWAP1 PUSH2 0x32DD JUMP JUMPDEST DUP1 ISZERO PUSH2 0x2233 JUMPI DUP1 PUSH1 0x1F LT PUSH2 0x2208 JUMPI PUSH2 0x100 DUP1 DUP4 SLOAD DIV MUL DUP4 MSTORE SWAP2 PUSH1 0x20 ADD SWAP2 PUSH2 0x2233 JUMP JUMPDEST DUP3 ADD SWAP2 SWAP1 PUSH1 0x0 MSTORE PUSH1 0x20 PUSH1 0x0 KECCAK256 SWAP1 JUMPDEST DUP2 SLOAD DUP2 MSTORE SWAP1 PUSH1 0x1 ADD SWAP1 PUSH1 0x20 ADD DUP1 DUP4 GT PUSH2 0x2216 JUMPI DUP3 SWAP1 SUB PUSH1 0x1F AND DUP3 ADD SWAP2 JUMPDEST POP POP POP POP POP DUP2 MSTORE PUSH1 0x20 ADD PUSH2 0x227B PUSH1 0x40 MLOAD DUP1 PUSH1 0x40 ADD PUSH1 0x40 MSTORE DUP1 PUSH1 0x1 DUP2 MSTORE PUSH1 0x20 ADD PUSH32 0x3000000000000000000000000000000000000000000000000000000000000000 DUP2 MSTORE POP PUSH2 0x1F61 JUMP JUMPDEST DUP2 MSTORE PUSH1 0x0 PUSH1 0x20 DUP1 DUP4 ADD DUP3 SWAP1 MSTORE PUSH1 0x40 DUP1 DUP5 ADD DUP4 SWAP1 MSTORE PUSH1 0x60 DUP5 ADD DUP4 SWAP1 MSTORE PUSH1 0x80 SWAP1 SWAP4 ADD DUP3 SWAP1 MSTORE PUSH20 0xFFFFFFFFFFFFFFFFFFFFFFFFFFFFFFFFFFFFFFFF DUP6 AND DUP3 MSTORE DUP2 SWAP1 MSTORE KECCAK256 DUP2 MLOAD DUP2 SLOAD DUP3 SWAP1 PUSH32 0xFFFFFFFFFFFFFFFFFFFFFFFFFFFFFFFFFFFFFFFFFFFFFFFFFFFFFFFFFFFFFF00 AND PUSH1 0x1 DUP4 PUSH1 0x4 DUP2 GT ISZERO PUSH2 0x22F7 JUMPI PUSH2 0x22F7 PUSH2 0x33C8 JUMP JUMPDEST MUL OR SWAP1 SSTORE POP PUSH1 0x20 DUP3 DUP2 ADD MLOAD DUP1 MLOAD PUSH2 0x2314 SWAP3 PUSH1 0x1 DUP6 ADD SWAP3 ADD SWAP1 PUSH2 0x2E6D JUMP JUMPDEST POP PUSH1 0x40 DUP3 ADD MLOAD PUSH1 0x2 DUP3 ADD SSTORE PUSH1 0x60 DUP3 ADD MLOAD PUSH1 0x3 DUP3 ADD SSTORE PUSH1 0x80 DUP3 ADD MLOAD PUSH1 0x4 DUP3 ADD SSTORE PUSH1 0xA0 DUP3 ADD MLOAD PUSH1 0x5 DUP3 ADD SSTORE PUSH1 0xC0 SWAP1 SWAP2 ADD MLOAD PUSH1 0x6 SWAP1 SWAP2 ADD SSTORE POP JUMP JUMPDEST PUSH1 0x0 PUSH2 0x2356 PUSH2 0x2E34 JUMP JUMPDEST ISZERO ISZERO PUSH1 0x1 EQ ISZERO PUSH2 0x25BC JUMPI CALLER PUSH1 0x0 SWAP1 DUP2 MSTORE PUSH1 0x20 DUP2 SWAP1 MSTORE PUSH1 0x40 SWAP1 KECCAK256 PUSH1 0x3 ADD SLOAD DUP3 GT ISZERO PUSH2 0x237F JUMPI PUSH1 0x0 DUP1 REVERT JUMPDEST CALLER PUSH1 0x0 SWAP1 DUP2 MSTORE PUSH1 0x20 DUP2 SWAP1 MSTORE PUSH1 0x40 SWAP1 KECCAK256 PUSH1 0x3 ADD SLOAD PUSH2 0x239C SWAP1 DUP4 PUSH2 0x2DF9 JUMP JUMPDEST CALLER PUSH1 0x0 SWAP1 DUP2 MSTORE PUSH1 0x20 DUP2 DUP2 MSTORE PUSH1 0x40 DUP3 KECCAK256 PUSH1 0x3 ADD SWAP3 SWAP1 SWAP3 SSTORE PUSH20 0xAB8483F64D9C6D1ECF9B849AE677DD3315835CB2 SWAP1 MSTORE PUSH1 0x4 SWAP1 MSTORE PUSH32 0x2E472438281ECE9FAE629C31EBC952B0B512971EFB1BACFC7D4441C586CFF6C SLOAD PUSH1 0xFF AND ISZERO ISZERO PUSH1 0x1 EQ ISZERO PUSH2 0x245D JUMPI PUSH20 0xFFFFFFFFFFFFFFFFFFFFFFFFFFFFFFFFFFFFFFFF DUP4 AND PUSH1 0x0 SWAP1 DUP2 MSTORE PUSH1 0x20 DUP2 SWAP1 MSTORE PUSH1 0x40 SWAP1 KECCAK256 PUSH1 0x5 ADD SLOAD PUSH2 0x242F SWAP1 DUP4 PUSH2 0x2E15 JUMP JUMPDEST PUSH20 0xFFFFFFFFFFFFFFFFFFFFFFFFFFFFFFFFFFFFFFFF DUP5 AND PUSH1 0x0 SWAP1 DUP2 MSTORE PUSH1 0x20 DUP2 SWAP1 MSTORE PUSH1 0x40 SWAP1 KECCAK256 PUSH1 0x5 ADD SSTORE PUSH2 0x2567 JUMP JUMPDEST PUSH20 0x4B20993BC481177EC7E8F571CECAE8A9E22C02DB PUSH1 0x0 MSTORE PUSH1 0x4 PUSH1 0x20 MSTORE PUSH32 0xB9FE4B740977877E3FA94E7F3DBF51FFCC3FB0449ED024E5D3849F3210D56220 SLOAD PUSH1 0xFF AND ISZERO ISZERO PUSH1 0x1 EQ ISZERO PUSH2 0x250A JUMPI PUSH20 0xFFFFFFFFFFFFFFFFFFFFFFFFFFFFFFFFFFFFFFFF DUP4 AND PUSH1 0x0 SWAP1 DUP2 MSTORE PUSH1 0x20 DUP2 SWAP1 MSTORE PUSH1 0x40 SWAP1 KECCAK256 PUSH1 0x6 ADD SLOAD PUSH2 0x24DC SWAP1 DUP4 PUSH2 0x2E15 JUMP JUMPDEST PUSH20 0xFFFFFFFFFFFFFFFFFFFFFFFFFFFFFFFFFFFFFFFF DUP5 AND PUSH1 0x0 SWAP1 DUP2 MSTORE PUSH1 0x20 DUP2 SWAP1 MSTORE PUSH1 0x40 SWAP1 KECCAK256 PUSH1 0x6 ADD SSTORE PUSH2 0x2567 JUMP JUMPDEST PUSH20 0xFFFFFFFFFFFFFFFFFFFFFFFFFFFFFFFFFFFFFFFF DUP4 AND PUSH1 0x0 SWAP1 DUP2 MSTORE PUSH1 0x20 DUP2 SWAP1 MSTORE PUSH1 0x40 SWAP1 KECCAK256 PUSH1 0x4 ADD SLOAD PUSH2 0x253D SWAP1 DUP4 PUSH2 0x2E15 JUMP JUMPDEST PUSH20 0xFFFFFFFFFFFFFFFFFFFFFFFFFFFFFFFFFFFFFFFF DUP5 AND PUSH1 0x0 SWAP1 DUP2 MSTORE PUSH1 0x20 DUP2 SWAP1 MSTORE PUSH1 0x40 SWAP1 KECCAK256 PUSH1 0x4 ADD SSTORE JUMPDEST PUSH1 0x40 MLOAD DUP3 DUP2 MSTORE PUSH20 0xFFFFFFFFFFFFFFFFFFFFFFFFFFFFFFFFFFFFFFFF DUP5 AND SWAP1 CALLER SWAP1 PUSH32 0xDDF252AD1BE2C89B69C2B068FC378DAA952BA7F163C4A11628F55A4DF523B3EF SWAP1 PUSH1 0x20 ADD PUSH1 0x40 MLOAD DUP1 SWAP2 SUB SWAP1 LOG3 POP PUSH1 0x1 PUSH2 0x825 JUMP JUMPDEST PUSH20 0xAB8483F64D9C6D1ECF9B849AE677DD3315835CB2 PUSH1 0x0 MSTORE PUSH1 0x4 PUSH1 0x20 MSTORE PUSH32 0x2E472438281ECE9FAE629C31EBC952B0B512971EFB1BACFC7D4441C586CFF6C SLOAD PUSH1 0xFF AND ISZERO ISZERO PUSH1 0x1 EQ ISZERO PUSH2 0x2684 JUMPI CALLER PUSH1 0x0 SWAP1 DUP2 MSTORE PUSH1 0x20 DUP2 SWAP1 MSTORE PUSH1 0x40 SWAP1 KECCAK256 PUSH1 0x5 ADD SLOAD DUP3 GT ISZERO PUSH2 0x2627 JUMPI PUSH1 0x0 DUP1 REVERT JUMPDEST CALLER PUSH1 0x0 SWAP1 DUP2 MSTORE PUSH1 0x20 DUP2 SWAP1 MSTORE PUSH1 0x40 SWAP1 KECCAK256 PUSH1 0x5 ADD SLOAD PUSH2 0x2644 SWAP1 DUP4 PUSH2 0x2DF9 JUMP JUMPDEST CALLER PUSH1 0x0 SWAP1 DUP2 MSTORE PUSH1 0x20 DUP2 SWAP1 MSTORE PUSH1 0x40 DUP1 DUP3 KECCAK256 PUSH1 0x5 SWAP1 DUP2 ADD SWAP4 SWAP1 SWAP4 SSTORE PUSH20 0xFFFFFFFFFFFFFFFFFFFFFFFFFFFFFFFFFFFFFFFF DUP7 AND DUP3 MSTORE SWAP1 KECCAK256 ADD SLOAD PUSH2 0x242F SWAP1 DUP4 PUSH2 0x2E15 JUMP JUMPDEST PUSH20 0x4B20993BC481177EC7E8F571CECAE8A9E22C02DB PUSH1 0x0 MSTORE PUSH1 0x4 PUSH1 0x20 MSTORE PUSH32 0xB9FE4B740977877E3FA94E7F3DBF51FFCC3FB0449ED024E5D3849F3210D56220 SLOAD PUSH1 0xFF AND ISZERO ISZERO PUSH1 0x1 EQ ISZERO PUSH2 0x274C JUMPI CALLER PUSH1 0x0 SWAP1 DUP2 MSTORE PUSH1 0x20 DUP2 SWAP1 MSTORE PUSH1 0x40 SWAP1 KECCAK256 PUSH1 0x6 ADD SLOAD DUP3 GT ISZERO PUSH2 0x26EF JUMPI PUSH1 0x0 DUP1 REVERT JUMPDEST CALLER PUSH1 0x0 SWAP1 DUP2 MSTORE PUSH1 0x20 DUP2 SWAP1 MSTORE PUSH1 0x40 SWAP1 KECCAK256 PUSH1 0x6 ADD SLOAD PUSH2 0x270C SWAP1 DUP4 PUSH2 0x2DF9 JUMP JUMPDEST CALLER PUSH1 0x0 SWAP1 DUP2 MSTORE PUSH1 0x20 DUP2 SWAP1 MSTORE PUSH1 0x40 DUP1 DUP3 KECCAK256 PUSH1 0x6 SWAP1 DUP2 ADD SWAP4 SWAP1 SWAP4 SSTORE PUSH20 0xFFFFFFFFFFFFFFFFFFFFFFFFFFFFFFFFFFFFFFFF DUP7 AND DUP3 MSTORE SWAP1 KECCAK256 ADD SLOAD PUSH2 0x24DC SWAP1 DUP4 PUSH2 0x2E15 JUMP JUMPDEST CALLER PUSH1 0x0 SWAP1 DUP2 MSTORE PUSH1 0x20 DUP2 SWAP1 MSTORE PUSH1 0x40 SWAP1 KECCAK256 PUSH1 0x4 ADD SLOAD DUP3 GT ISZERO PUSH2 0x276B JUMPI PUSH1 0x0 DUP1 REVERT JUMPDEST PUSH1 0x3 CALLER PUSH1 0x0 SWAP1 DUP2 MSTORE PUSH1 0x20 DUP2 SWAP1 MSTORE PUSH1 0x40 SWAP1 KECCAK256 SLOAD PUSH1 0xFF AND PUSH1 0x4 DUP2 GT ISZERO PUSH2 0x2791 JUMPI PUSH2 0x2791 PUSH2 0x33C8 JUMP JUMPDEST EQ PUSH2 0x27F8 JUMPI PUSH1 0x40 MLOAD PUSH32 0x8C379A000000000000000000000000000000000000000000000000000000000 DUP2 MSTORE PUSH1 0x20 PUSH1 0x4 DUP3 ADD MSTORE PUSH1 0x11 PUSH1 0x24 DUP3 ADD MSTORE PUSH32 0x596F7572206E6F7420696E766573746F72000000000000000000000000000000 PUSH1 0x44 DUP3 ADD MSTORE PUSH1 0x64 ADD PUSH2 0x686 JUMP JUMPDEST PUSH1 0x3 PUSH20 0xFFFFFFFFFFFFFFFFFFFFFFFFFFFFFFFFFFFFFFFF DUP5 AND PUSH1 0x0 SWAP1 DUP2 MSTORE PUSH1 0x20 DUP2 SWAP1 MSTORE PUSH1 0x40 SWAP1 KECCAK256 SLOAD PUSH1 0xFF AND PUSH1 0x4 DUP2 GT ISZERO PUSH2 0x2834 JUMPI PUSH2 0x2834 PUSH2 0x33C8 JUMP JUMPDEST EQ PUSH2 0x289B JUMPI PUSH1 0x40 MLOAD PUSH32 0x8C379A000000000000000000000000000000000000000000000000000000000 DUP2 MSTORE PUSH1 0x20 PUSH1 0x4 DUP3 ADD MSTORE PUSH1 0x11 PUSH1 0x24 DUP3 ADD MSTORE PUSH32 0x596F7572206E6F7420696E766573746F72000000000000000000000000000000 PUSH1 0x44 DUP3 ADD MSTORE PUSH1 0x64 ADD PUSH2 0x686 JUMP JUMPDEST CALLER PUSH1 0x0 SWAP1 DUP2 MSTORE PUSH1 0x20 DUP2 SWAP1 MSTORE PUSH1 0x40 SWAP1 KECCAK256 PUSH1 0x4 ADD SLOAD PUSH2 0x28B8 SWAP1 DUP4 PUSH2 0x2DF9 JUMP JUMPDEST CALLER PUSH1 0x0 SWAP1 DUP2 MSTORE PUSH1 0x20 DUP2 SWAP1 MSTORE PUSH1 0x40 DUP1 DUP3 KECCAK256 PUSH1 0x4 SWAP1 DUP2 ADD SWAP4 SWAP1 SWAP4 SSTORE PUSH20 0xFFFFFFFFFFFFFFFFFFFFFFFFFFFFFFFFFFFFFFFF DUP7 AND DUP3 MSTORE SWAP1 KECCAK256 ADD SLOAD PUSH2 0x253D SWAP1 DUP4 PUSH2 0x2E15 JUMP JUMPDEST PUSH1 0x60 PUSH1 0x0 CALLER PUSH1 0x0 SWAP1 DUP2 MSTORE PUSH1 0x20 DUP2 SWAP1 MSTORE PUSH1 0x40 SWAP1 KECCAK256 SLOAD PUSH1 0xFF AND PUSH1 0x4 DUP2 GT ISZERO PUSH2 0x2920 JUMPI PUSH2 0x2920 PUSH2 0x33C8 JUMP JUMPDEST EQ DUP1 PUSH2 0x294F JUMPI POP PUSH1 0x2 CALLER PUSH1 0x0 SWAP1 DUP2 MSTORE PUSH1 0x20 DUP2 SWAP1 MSTORE PUSH1 0x40 SWAP1 KECCAK256 SLOAD PUSH1 0xFF AND PUSH1 0x4 DUP2 GT ISZERO PUSH2 0x294D JUMPI PUSH2 0x294D PUSH2 0x33C8 JUMP JUMPDEST EQ JUMPDEST PUSH2 0x29DB JUMPI PUSH1 0x40 MLOAD PUSH32 0x8C379A000000000000000000000000000000000000000000000000000000000 DUP2 MSTORE PUSH1 0x20 PUSH1 0x4 DUP3 ADD MSTORE PUSH1 0x29 PUSH1 0x24 DUP3 ADD MSTORE PUSH32 0x596F7520617265206E6F7420746865206F776E6572206F722070726976617465 PUSH1 0x44 DUP3 ADD MSTORE PUSH32 0x2070726F76696465720000000000000000000000000000000000000000000000 PUSH1 0x64 DUP3 ADD MSTORE PUSH1 0x84 ADD PUSH2 0x686 JUMP JUMPDEST PUSH1 0x7 DUP1 SLOAD DUP1 PUSH1 0x20 MUL PUSH1 0x20 ADD PUSH1 0x40 MLOAD SWAP1 DUP2 ADD PUSH1 0x40 MSTORE DUP1 SWAP3 SWAP2 SWAP1 DUP2 DUP2 MSTORE PUSH1 0x20 ADD DUP3 DUP1 SLOAD DUP1 ISZERO PUSH2 0x13EB JUMPI PUSH1 0x20 MUL DUP3 ADD SWAP2 SWAP1 PUSH1 0x0 MSTORE PUSH1 0x20 PUSH1 0x0 KECCAK256 SWAP1 DUP2 SLOAD PUSH20 0xFFFFFFFFFFFFFFFFFFFFFFFFFFFFFFFFFFFFFFFF AND DUP2 MSTORE PUSH1 0x1 SWAP1 SWAP2 ADD SWAP1 PUSH1 0x20 ADD DUP1 DUP4 GT PUSH2 0x13C0 JUMPI POP POP POP POP POP SWAP1 POP SWAP1 JUMP JUMPDEST PUSH1 0x0 PUSH1 0x60 PUSH1 0x3 SLOAD DUP4 GT ISZERO PUSH2 0x2AB6 JUMPI PUSH1 0x40 MLOAD PUSH32 0x8C379A000000000000000000000000000000000000000000000000000000000 DUP2 MSTORE PUSH1 0x20 PUSH1 0x4 DUP3 ADD MSTORE PUSH1 0xF PUSH1 0x24 DUP3 ADD MSTORE PUSH32 0x546F6F206D616E7920746F6B656E730000000000000000000000000000000000 PUSH1 0x44 DUP3 ADD MSTORE PUSH1 0x64 ADD PUSH2 0x686 JUMP JUMPDEST PUSH1 0x2 SLOAD PUSH2 0x2AC3 SWAP1 DUP5 PUSH2 0x3259 JUMP JUMPDEST CALLVALUE EQ PUSH2 0x2B2B JUMPI PUSH1 0x40 MLOAD PUSH32 0x8C379A000000000000000000000000000000000000000000000000000000000 DUP2 MSTORE PUSH1 0x20 PUSH1 0x4 DUP3 ADD DUP2 SWAP1 MSTORE PUSH1 0x24 DUP3 ADD MSTORE PUSH32 0x4E65656420746F2073656E6420657861637420616D6F756E74206F6620776569 PUSH1 0x44 DUP3 ADD MSTORE PUSH1 0x64 ADD PUSH2 0x686 JUMP JUMPDEST PUSH2 0x2B33 PUSH2 0x2E34 JUMP JUMPDEST ISZERO ISZERO PUSH1 0x1 EQ ISZERO PUSH2 0x2BB1 JUMPI CALLER PUSH1 0x0 SWAP1 DUP2 MSTORE PUSH1 0x20 DUP2 SWAP1 MSTORE PUSH1 0x40 SWAP1 KECCAK256 PUSH1 0x3 ADD SLOAD PUSH2 0x2B5A SWAP1 DUP5 PUSH2 0x2E15 JUMP JUMPDEST CALLER PUSH1 0x0 SWAP1 DUP2 MSTORE PUSH1 0x20 DUP2 DUP2 MSTORE PUSH1 0x40 SWAP2 DUP3 SWAP1 KECCAK256 PUSH1 0x3 ADD SWAP3 SWAP1 SWAP3 SSTORE DUP1 MLOAD DUP1 DUP3 ADD SWAP1 SWAP2 MSTORE PUSH1 0x12 DUP2 MSTORE PUSH32 0x596F7520626F75676874206120746F6B656E0000000000000000000000000000 SWAP2 DUP2 ADD SWAP2 SWAP1 SWAP2 MSTORE PUSH1 0x1 SWAP5 SWAP1 SWAP4 POP SWAP2 POP POP JUMP JUMPDEST PUSH20 0xAB8483F64D9C6D1ECF9B849AE677DD3315835CB2 PUSH1 0x0 MSTORE PUSH1 0x4 PUSH1 0x20 MSTORE PUSH32 0x2E472438281ECE9FAE629C31EBC952B0B512971EFB1BACFC7D4441C586CFF6C SLOAD PUSH1 0xFF AND ISZERO ISZERO PUSH1 0x1 EQ ISZERO PUSH2 0x2D15 JUMPI PUSH1 0x0 DUP1 JUMPDEST PUSH1 0x7 SLOAD DUP2 LT ISZERO PUSH2 0x2CD2 JUMPI PUSH1 0x7 DUP2 DUP2 SLOAD DUP2 LT PUSH2 0x2C1E JUMPI PUSH2 0x2C1E PUSH2 0x33F7 JUMP JUMPDEST PUSH1 0x0 SWAP2 DUP3 MSTORE PUSH1 0x20 SWAP1 SWAP2 KECCAK256 ADD SLOAD PUSH20 0xFFFFFFFFFFFFFFFFFFFFFFFFFFFFFFFFFFFFFFFF AND SWAP2 POP CALLER DUP3 EQ ISZERO PUSH2 0x2CC0 JUMPI CALLER PUSH1 0x0 SWAP1 DUP2 MSTORE PUSH1 0x20 DUP2 SWAP1 MSTORE PUSH1 0x40 SWAP1 KECCAK256 PUSH1 0x5 ADD SLOAD PUSH2 0x2C67 SWAP1 DUP7 PUSH2 0x2E15 JUMP JUMPDEST CALLER PUSH1 0x0 SWAP1 DUP2 MSTORE PUSH1 0x20 DUP2 DUP2 MSTORE PUSH1 0x40 SWAP2 DUP3 SWAP1 KECCAK256 PUSH1 0x5 ADD SWAP3 SWAP1 SWAP3 SSTORE DUP1 MLOAD DUP1 DUP3 ADD SWAP1 SWAP2 MSTORE PUSH1 0x12 DUP2 MSTORE PUSH32 0x596F7520626F75676874206120746F6B656E0000000000000000000000000000 SWAP2 DUP2 ADD SWAP2 SWAP1 SWAP2 MSTORE PUSH1 0x1 SWAP7 SWAP1 SWAP6 POP SWAP4 POP POP POP POP JUMP JUMPDEST DUP1 PUSH2 0x2CCA DUP2 PUSH2 0x3331 JUMP JUMPDEST SWAP2 POP POP PUSH2 0x2C01 JUMP JUMPDEST POP PUSH1 0x0 PUSH1 0x40 MLOAD DUP1 PUSH1 0x40 ADD PUSH1 0x40 MSTORE DUP1 PUSH1 0x1B DUP2 MSTORE PUSH1 0x20 ADD PUSH32 0x55736572206E6F7420666F756E6420696E2077686974656C6973740000000000 DUP2 MSTORE POP SWAP3 POP SWAP3 POP POP SWAP2 POP SWAP2 JUMP JUMPDEST PUSH20 0x4B20993BC481177EC7E8F571CECAE8A9E22C02DB PUSH1 0x0 MSTORE PUSH1 0x4 PUSH1 0x20 MSTORE PUSH32 0xB9FE4B740977877E3FA94E7F3DBF51FFCC3FB0449ED024E5D3849F3210D56220 SLOAD PUSH1 0xFF AND ISZERO ISZERO PUSH1 0x1 EQ ISZERO PUSH2 0x2DD5 JUMPI CALLER PUSH1 0x0 SWAP1 DUP2 MSTORE PUSH1 0x20 DUP2 SWAP1 MSTORE PUSH1 0x40 SWAP1 KECCAK256 PUSH1 0x6 ADD SLOAD PUSH2 0x2D7E SWAP1 DUP5 PUSH2 0x2E15 JUMP JUMPDEST CALLER PUSH1 0x0 SWAP1 DUP2 MSTORE PUSH1 0x20 DUP2 DUP2 MSTORE PUSH1 0x40 SWAP2 DUP3 SWAP1 KECCAK256 PUSH1 0x6 ADD SWAP3 SWAP1 SWAP3 SSTORE DUP1 MLOAD DUP1 DUP3 ADD SWAP1 SWAP2 MSTORE PUSH1 0x12 DUP2 MSTORE PUSH32 0x596F7520626F75676874206120746F6B656E0000000000000000000000000000 SWAP2 DUP2 ADD SWAP2 SWAP1 SWAP2 MSTORE PUSH1 0x1 SWAP5 SWAP1 SWAP4 POP SWAP2 POP POP JUMP JUMPDEST PUSH1 0x1 PUSH1 0x40 MLOAD DUP1 PUSH1 0x60 ADD PUSH1 0x40 MSTORE DUP1 PUSH1 0x34 DUP2 MSTORE PUSH1 0x20 ADD PUSH2 0x3456 PUSH1 0x34 SWAP2 CODECOPY SWAP2 POP SWAP2 POP SWAP2 POP SWAP2 JUMP JUMPDEST PUSH1 0x0 DUP3 DUP3 GT ISZERO PUSH2 0x2E0B JUMPI PUSH2 0x2E0B PUSH2 0x336A JUMP JUMPDEST PUSH2 0x1260 DUP3 DUP5 PUSH2 0x3296 JUMP JUMPDEST PUSH1 0x0 DUP1 PUSH2 0x2E22 DUP4 DUP6 PUSH2 0x3241 JUMP JUMPDEST SWAP1 POP DUP4 DUP2 LT ISZERO PUSH2 0x1260 JUMPI PUSH2 0x1260 PUSH2 0x336A JUMP JUMPDEST PUSH1 0x0 DUP1 CALLER PUSH1 0x0 SWAP1 DUP2 MSTORE PUSH1 0x20 DUP2 SWAP1 MSTORE PUSH1 0x40 SWAP1 KECCAK256 SLOAD PUSH1 0xFF AND PUSH1 0x4 DUP2 GT ISZERO PUSH2 0x2E5B JUMPI PUSH2 0x2E5B PUSH2 0x33C8 JUMP JUMPDEST EQ ISZERO PUSH2 0x2E67 JUMPI POP PUSH1 0x1 SWAP1 JUMP JUMPDEST POP PUSH1 0x0 SWAP1 JUMP JUMPDEST DUP3 DUP1 SLOAD PUSH2 0x2E79 SWAP1 PUSH2 0x32DD JUMP JUMPDEST SWAP1 PUSH1 0x0 MSTORE PUSH1 0x20 PUSH1 0x0 KECCAK256 SWAP1 PUSH1 0x1F ADD PUSH1 0x20 SWAP1 DIV DUP2 ADD SWAP3 DUP3 PUSH2 0x2E9B JUMPI PUSH1 0x0 DUP6 SSTORE PUSH2 0x2EE1 JUMP JUMPDEST DUP3 PUSH1 0x1F LT PUSH2 0x2EB4 JUMPI DUP1 MLOAD PUSH1 0xFF NOT AND DUP4 DUP1 ADD OR DUP6 SSTORE PUSH2 0x2EE1 JUMP JUMPDEST DUP3 DUP1 ADD PUSH1 0x1 ADD DUP6 SSTORE DUP3 ISZERO PUSH2 0x2EE1 JUMPI SWAP2 DUP3 ADD JUMPDEST DUP3 DUP2 GT ISZERO PUSH2 0x2EE1 JUMPI DUP3 MLOAD DUP3 SSTORE SWAP2 PUSH1 0x20 ADD SWAP2 SWAP1 PUSH1 0x1 ADD SWAP1 PUSH2 0x2EC6 JUMP JUMPDEST POP PUSH2 0x2EED SWAP3 SWAP2 POP PUSH2 0x2EF1 JUMP JUMPDEST POP SWAP1 JUMP JUMPDEST JUMPDEST DUP1 DUP3 GT ISZERO PUSH2 0x2EED JUMPI PUSH1 0x0 DUP2 SSTORE PUSH1 0x1 ADD PUSH2 0x2EF2 JUMP JUMPDEST DUP1 CALLDATALOAD PUSH20 0xFFFFFFFFFFFFFFFFFFFFFFFFFFFFFFFFFFFFFFFF DUP2 AND DUP2 EQ PUSH2 0x1551 JUMPI PUSH1 0x0 DUP1 REVERT JUMPDEST PUSH1 0x0 DUP3 PUSH1 0x1F DUP4 ADD SLT PUSH2 0x2F3B JUMPI PUSH1 0x0 DUP1 REVERT JUMPDEST DUP2 CALLDATALOAD PUSH8 0xFFFFFFFFFFFFFFFF DUP1 DUP3 GT ISZERO PUSH2 0x2F56 JUMPI PUSH2 0x2F56 PUSH2 0x3426 JUMP JUMPDEST PUSH1 0x40 MLOAD PUSH1 0x1F DUP4 ADD PUSH32 0xFFFFFFFFFFFFFFFFFFFFFFFFFFFFFFFFFFFFFFFFFFFFFFFFFFFFFFFFFFFFFFE0 SWAP1 DUP2 AND PUSH1 0x3F ADD AND DUP2 ADD SWAP1 DUP3 DUP3 GT DUP2 DUP4 LT OR ISZERO PUSH2 0x2F9C JUMPI PUSH2 0x2F9C PUSH2 0x3426 JUMP JUMPDEST DUP2 PUSH1 0x40 MSTORE DUP4 DUP2 MSTORE DUP7 PUSH1 0x20 DUP6 DUP9 ADD ADD GT ISZERO PUSH2 0x2FB5 JUMPI PUSH1 0x0 DUP1 REVERT JUMPDEST DUP4 PUSH1 0x20 DUP8 ADD PUSH1 0x20 DUP4 ADD CALLDATACOPY PUSH1 0x0 PUSH1 0x20 DUP6 DUP4 ADD ADD MSTORE DUP1 SWAP5 POP POP POP POP POP SWAP3 SWAP2 POP POP JUMP JUMPDEST PUSH1 0x0 PUSH1 0x20 DUP3 DUP5 SUB SLT ISZERO PUSH2 0x2FE7 JUMPI PUSH1 0x0 DUP1 REVERT JUMPDEST PUSH2 0x1260 DUP3 PUSH2 0x2F06 JUMP JUMPDEST PUSH1 0x0 DUP1 PUSH1 0x40 DUP4 DUP6 SUB SLT ISZERO PUSH2 0x3003 JUMPI PUSH1 0x0 DUP1 REVERT JUMPDEST PUSH2 0x300C DUP4 PUSH2 0x2F06 JUMP JUMPDEST SWAP2 POP PUSH2 0x301A PUSH1 0x20 DUP5 ADD PUSH2 0x2F06 JUMP JUMPDEST SWAP1 POP SWAP3 POP SWAP3 SWAP1 POP JUMP JUMPDEST PUSH1 0x0 DUP1 PUSH1 0x0 PUSH1 0x60 DUP5 DUP7 SUB SLT ISZERO PUSH2 0x3038 JUMPI PUSH1 0x0 DUP1 REVERT JUMPDEST PUSH2 0x3041 DUP5 PUSH2 0x2F06 JUMP JUMPDEST SWAP3 POP PUSH2 0x304F PUSH1 0x20 DUP6 ADD PUSH2 0x2F06 JUMP JUMPDEST SWAP2 POP PUSH1 0x40 DUP5 ADD CALLDATALOAD SWAP1 POP SWAP3 POP SWAP3 POP SWAP3 JUMP JUMPDEST PUSH1 0x0 DUP1 PUSH1 0x40 DUP4 DUP6 SUB SLT ISZERO PUSH2 0x3072 JUMPI PUSH1 0x0 DUP1 REVERT JUMPDEST PUSH2 0x307B DUP4 PUSH2 0x2F06 JUMP JUMPDEST SWAP5 PUSH1 0x20 SWAP4 SWAP1 SWAP4 ADD CALLDATALOAD SWAP4 POP POP POP JUMP JUMPDEST PUSH1 0x0 PUSH1 0x20 DUP3 DUP5 SUB SLT ISZERO PUSH2 0x309B JUMPI PUSH1 0x0 DUP1 REVERT JUMPDEST DUP2 CALLDATALOAD PUSH8 0xFFFFFFFFFFFFFFFF DUP2 GT ISZERO PUSH2 0x30B2 JUMPI PUSH1 0x0 DUP1 REVERT JUMPDEST PUSH2 0x30BE DUP5 DUP3 DUP6 ADD PUSH2 0x2F2A JUMP JUMPDEST SWAP5 SWAP4 POP POP POP POP JUMP JUMPDEST PUSH1 0x0 DUP1 PUSH1 0x0 PUSH1 0x60 DUP5 DUP7 SUB SLT ISZERO PUSH2 0x30DB JUMPI PUSH1 0x0 DUP1 REVERT JUMPDEST DUP4 CALLDATALOAD PUSH8 0xFFFFFFFFFFFFFFFF DUP1 DUP3 GT ISZERO PUSH2 0x30F3 JUMPI PUSH1 0x0 DUP1 REVERT JUMPDEST PUSH2 0x30FF DUP8 DUP4 DUP9 ADD PUSH2 0x2F2A JUMP JUMPDEST SWAP5 POP PUSH1 0x20 DUP7 ADD CALLDATALOAD SWAP2 POP DUP1 DUP3 GT ISZERO PUSH2 0x3115 JUMPI PUSH1 0x0 DUP1 REVERT JUMPDEST POP PUSH2 0x3122 DUP7 DUP3 DUP8 ADD PUSH2 0x2F2A JUMP JUMPDEST SWAP3 POP POP PUSH2 0x3131 PUSH1 0x40 DUP6 ADD PUSH2 0x2F06 JUMP JUMPDEST SWAP1 POP SWAP3 POP SWAP3 POP SWAP3 JUMP JUMPDEST PUSH1 0x0 PUSH1 0x20 DUP3 DUP5 SUB SLT ISZERO PUSH2 0x314C JUMPI PUSH1 0x0 DUP1 REVERT JUMPDEST POP CALLDATALOAD SWAP2 SWAP1 POP JUMP JUMPDEST PUSH1 0x0 DUP2 MLOAD DUP1 DUP5 MSTORE PUSH2 0x316B DUP2 PUSH1 0x20 DUP7 ADD PUSH1 0x20 DUP7 ADD PUSH2 0x32AD JUMP JUMPDEST PUSH1 0x1F ADD PUSH32 0xFFFFFFFFFFFFFFFFFFFFFFFFFFFFFFFFFFFFFFFFFFFFFFFFFFFFFFFFFFFFFFE0 AND SWAP3 SWAP1 SWAP3 ADD PUSH1 0x20 ADD SWAP3 SWAP2 POP POP JUMP JUMPDEST PUSH1 0x0 DUP3 MLOAD PUSH2 0x31AF DUP2 DUP5 PUSH1 0x20 DUP8 ADD PUSH2 0x32AD JUMP JUMPDEST SWAP2 SWAP1 SWAP2 ADD SWAP3 SWAP2 POP POP JUMP JUMPDEST PUSH1 0x20 DUP1 DUP3 MSTORE DUP3 MLOAD DUP3 DUP3 ADD DUP2 SWAP1 MSTORE PUSH1 0x0 SWAP2 SWAP1 DUP5 DUP3 ADD SWAP1 PUSH1 0x40 DUP6 ADD SWAP1 DUP5 JUMPDEST DUP2 DUP2 LT ISZERO PUSH2 0x3207 JUMPI DUP4 MLOAD PUSH20 0xFFFFFFFFFFFFFFFFFFFFFFFFFFFFFFFFFFFFFFFF AND DUP4 MSTORE SWAP3 DUP5 ADD SWAP3 SWAP2 DUP5 ADD SWAP2 PUSH1 0x1 ADD PUSH2 0x31D5 JUMP JUMPDEST POP SWAP1 SWAP7 SWAP6 POP POP POP POP POP POP JUMP JUMPDEST DUP3 ISZERO ISZERO DUP2 MSTORE PUSH1 0x40 PUSH1 0x20 DUP3 ADD MSTORE PUSH1 0x0 PUSH2 0x30BE PUSH1 0x40 DUP4 ADD DUP5 PUSH2 0x3153 JUMP JUMPDEST PUSH1 0x20 DUP2 MSTORE PUSH1 0x0 PUSH2 0x1260 PUSH1 0x20 DUP4 ADD DUP5 PUSH2 0x3153 JUMP JUMPDEST PUSH1 0x0 DUP3 NOT DUP3 GT ISZERO PUSH2 0x3254 JUMPI PUSH2 0x3254 PUSH2 0x3399 JUMP JUMPDEST POP ADD SWAP1 JUMP JUMPDEST PUSH1 0x0 DUP2 PUSH32 0xFFFFFFFFFFFFFFFFFFFFFFFFFFFFFFFFFFFFFFFFFFFFFFFFFFFFFFFFFFFFFFFF DIV DUP4 GT DUP3 ISZERO ISZERO AND ISZERO PUSH2 0x3291 JUMPI PUSH2 0x3291 PUSH2 0x3399 JUMP JUMPDEST POP MUL SWAP1 JUMP JUMPDEST PUSH1 0x0 DUP3 DUP3 LT ISZERO PUSH2 0x32A8 JUMPI PUSH2 0x32A8 PUSH2 0x3399 JUMP JUMPDEST POP SUB SWAP1 JUMP JUMPDEST PUSH1 0x0 JUMPDEST DUP4 DUP2 LT ISZERO PUSH2 0x32C8 JUMPI DUP2 DUP2 ADD MLOAD DUP4 DUP3 ADD MSTORE PUSH1 0x20 ADD PUSH2 0x32B0 JUMP JUMPDEST DUP4 DUP2 GT ISZERO PUSH2 0x32D7 JUMPI PUSH1 0x0 DUP5 DUP5 ADD MSTORE JUMPDEST POP POP POP POP JUMP JUMPDEST PUSH1 0x1 DUP2 DUP2 SHR SWAP1 DUP3 AND DUP1 PUSH2 0x32F1 JUMPI PUSH1 0x7F DUP3 AND SWAP2 POP JUMPDEST PUSH1 0x20 DUP3 LT DUP2 EQ ISZERO PUSH2 0x332B JUMPI PUSH32 0x4E487B7100000000000000000000000000000000000000000000000000000000 PUSH1 0x0 MSTORE PUSH1 0x22 PUSH1 0x4 MSTORE PUSH1 0x24 PUSH1 0x0 REVERT JUMPDEST POP SWAP2 SWAP1 POP JUMP JUMPDEST PUSH1 0x0 PUSH32 0xFFFFFFFFFFFFFFFFFFFFFFFFFFFFFFFFFFFFFFFFFFFFFFFFFFFFFFFFFFFFFFFF DUP3 EQ ISZERO PUSH2 0x3363 JUMPI PUSH2 0x3363 PUSH2 0x3399 JUMP JUMPDEST POP PUSH1 0x1 ADD SWAP1 JUMP JUMPDEST PUSH32 0x4E487B7100000000000000000000000000000000000000000000000000000000 PUSH1 0x0 MSTORE PUSH1 0x1 PUSH1 0x4 MSTORE PUSH1 0x24 PUSH1 0x0 REVERT JUMPDEST PUSH32 0x4E487B7100000000000000000000000000000000000000000000000000000000 PUSH1 0x0 MSTORE PUSH1 0x11 PUSH1 0x4 MSTORE PUSH1 0x24 PUSH1 0x0 REVERT JUMPDEST PUSH32 0x4E487B7100000000000000000000000000000000000000000000000000000000 PUSH1 0x0 MSTORE PUSH1 0x21 PUSH1 0x4 MSTORE PUSH1 0x24 PUSH1 0x0 REVERT JUMPDEST PUSH32 0x4E487B7100000000000000000000000000000000000000000000000000000000 PUSH1 0x0 MSTORE PUSH1 0x32 PUSH1 0x4 MSTORE PUSH1 0x24 PUSH1 0x0 REVERT JUMPDEST PUSH32 0x4E487B7100000000000000000000000000000000000000000000000000000000 PUSH1 0x0 MSTORE PUSH1 0x41 PUSH1 0x4 MSTORE PUSH1 0x24 PUSH1 0x0 REVERT INVALID DIFFICULTY PUSH22 0x72696E672074686520736565642070686173652C206F PUSH15 0x6C7920746865206F776E6572206361 PUSH15 0x2062757920746F6B656E73A2646970 PUSH7 0x73582212205C77 SWAP15 0x2D JUMPDEST ADDRESS REVERT 0x4B 0xB6 PUSH1 0xE4 0x25 PUSH21 0x259025FC8D1ABD91F600566575DF5E5FCCB19A6473 PUSH16 0x6C6343000807003302E472438281ECE9 STATICCALL 0xE6 0x29 0xC3 0x1E 0xBC SWAP6 0x2B SIGNEXTEND MLOAD 0x29 PUSH18 0xEFB1BACFC7D4441C586CFF6CA66CC928B5ED 0xB8 0x2A 0xF9 0xBD 0x49 SWAP3 0x29 SLOAD ISZERO GAS 0xB7 0xB0 SWAP5 0x26 SWAP5 0xBE LOG4 0xCE DIFFICULTY PUSH7 0x1D9A8736C688B9 INVALID 0x4B PUSH21 0x977877E3FA94E7F3DBF51FFCC3FB0449ED024E5D3 DUP5 SWAP16 ORIGIN LT 0xD5 PUSH3 0x200000 "
		},
		"gasEstimates": {
			"creation": {
				"codeDepositCost": "2700600",
				"executionCost": "infinite",
				"totalCost": "infinite"
			},
			"external": {
				"acceptApplication(address)": "infinite",
				"addBlackList(address)": "51059",
				"allowance(address,address)": "infinite",
				"application(string,string,address)": "infinite",
				"approve(address,uint256)": "24522",
				"balanceOf(address)": "9255",
				"buy(uint256)": "infinite",
				"changeTokenAmountPricePrivate(uint256)": "24617",
				"changeTokenAmountPricePublic(uint256)": "24617",
				"decimals()": "249",
				"deviationApplication(address)": "29066",
				"endPrivatePhase()": "99878",
				"getApplicationAmountAdr()": "infinite",
				"getBalancePrivateToken(address)": "2566",
				"getBalancePublicToken(address)": "2568",
				"getBalanceSeedToken(address)": "2612",
				"get_blackList()": "infinite",
				"get_keccak256(string)": "infinite",
				"get_whiteList()": "infinite",
				"name()": "infinite",
				"startPrivatePhase()": "31253",
				"symbol()": "infinite",
				"tokenAmount_()": "2406",
				"tokenPrice_()": "2386",
				"totalSupply()": "2382",
				"transfer(address,uint256)": "infinite",
				"transferFrom(address,address,uint256)": "infinite"
			}
		},
		"methodIdentifiers": {
			"acceptApplication(address)": "a678b65b",
			"addBlackList(address)": "0ecb93c0",
			"allowance(address,address)": "dd62ed3e",
			"application(string,string,address)": "785963c3",
			"approve(address,uint256)": "095ea7b3",
			"balanceOf(address)": "70a08231",
			"buy(uint256)": "d96a094a",
			"changeTokenAmountPricePrivate(uint256)": "8aa7cc0b",
			"changeTokenAmountPricePublic(uint256)": "32cbdd03",
			"decimals()": "313ce567",
			"deviationApplication(address)": "1d3eea35",
			"endPrivatePhase()": "7f4b8df0",
			"getApplicationAmountAdr()": "686c4cea",
			"getBalancePrivateToken(address)": "b06cdc12",
			"getBalancePublicToken(address)": "72f0d72b",
			"getBalanceSeedToken(address)": "2599d6d0",
			"get_blackList()": "7f89128f",
			"get_keccak256(string)": "8e4f8c6b",
			"get_whiteList()": "c10e3911",
			"name()": "06fdde03",
			"startPrivatePhase()": "0691615d",
			"symbol()": "95d89b41",
			"tokenAmount_()": "948942ad",
			"tokenPrice_()": "0761c8b9",
			"totalSupply()": "18160ddd",
			"transfer(address,uint256)": "a9059cbb",
			"transferFrom(address,address,uint256)": "23b872dd"
		}
	},
	"abi": [
		{
			"inputs": [
				{
					"internalType": "uint256",
					"name": "total",
					"type": "uint256"
				}
			],
			"stateMutability": "nonpayable",
			"type": "constructor"
		},
		{
			"anonymous": false,
			"inputs": [
				{
					"indexed": true,
					"internalType": "address",
					"name": "_owner",
					"type": "address"
				},
				{
					"indexed": true,
					"internalType": "address",
					"name": "_spender",
					"type": "address"
				},
				{
					"indexed": false,
					"internalType": "uint256",
					"name": "_value",
					"type": "uint256"
				}
			],
			"name": "Approval",
			"type": "event"
		},
		{
			"anonymous": false,
			"inputs": [
				{
					"indexed": true,
					"internalType": "address",
					"name": "_from",
					"type": "address"
				},
				{
					"indexed": true,
					"internalType": "address",
					"name": "_to",
					"type": "address"
				},
				{
					"indexed": false,
					"internalType": "uint256",
					"name": "_value",
					"type": "uint256"
				}
			],
			"name": "Transfer",
			"type": "event"
		},
		{
			"inputs": [
				{
					"internalType": "address",
					"name": "_userAdr",
					"type": "address"
				}
			],
			"name": "acceptApplication",
			"outputs": [],
			"stateMutability": "nonpayable",
			"type": "function"
		},
		{
			"inputs": [
				{
					"internalType": "address",
					"name": "_userAdr",
					"type": "address"
				}
			],
			"name": "addBlackList",
			"outputs": [],
			"stateMutability": "nonpayable",
			"type": "function"
		},
		{
			"inputs": [
				{
					"internalType": "address",
					"name": "_owner",
					"type": "address"
				},
				{
					"internalType": "address",
					"name": "_delegate",
					"type": "address"
				}
			],
			"name": "allowance",
			"outputs": [
				{
					"internalType": "uint256",
					"name": "",
					"type": "uint256"
				}
			],
			"stateMutability": "view",
			"type": "function"
		},
		{
			"inputs": [
				{
					"internalType": "string",
					"name": "_name",
					"type": "string"
				},
				{
					"internalType": "string",
					"name": "_contactForCommunication",
					"type": "string"
				},
				{
					"internalType": "address",
					"name": "_userAdr",
					"type": "address"
				}
			],
			"name": "application",
			"outputs": [],
			"stateMutability": "nonpayable",
			"type": "function"
		},
		{
			"inputs": [
				{
					"internalType": "address",
					"name": "_delegate",
					"type": "address"
				},
				{
					"internalType": "uint256",
					"name": "_numTokens",
					"type": "uint256"
				}
			],
			"name": "approve",
			"outputs": [
				{
					"internalType": "bool",
					"name": "",
					"type": "bool"
				}
			],
			"stateMutability": "nonpayable",
			"type": "function"
		},
		{
			"inputs": [
				{
					"internalType": "address",
					"name": "_tokenOwner",
					"type": "address"
				}
			],
			"name": "balanceOf",
			"outputs": [
				{
					"internalType": "uint256",
					"name": "",
					"type": "uint256"
				}
			],
			"stateMutability": "view",
			"type": "function"
		},
		{
			"inputs": [
				{
					"internalType": "uint256",
					"name": "_amount",
					"type": "uint256"
				}
			],
			"name": "buy",
			"outputs": [
				{
					"internalType": "bool",
					"name": "",
					"type": "bool"
				},
				{
					"internalType": "string",
					"name": "",
					"type": "string"
				}
			],
			"stateMutability": "payable",
			"type": "function"
		},
		{
			"inputs": [
				{
					"internalType": "uint256",
					"name": "_price",
					"type": "uint256"
				}
			],
			"name": "changeTokenAmountPricePrivate",
			"outputs": [],
			"stateMutability": "nonpayable",
			"type": "function"
		},
		{
			"inputs": [
				{
					"internalType": "uint256",
					"name": "_price",
					"type": "uint256"
				}
			],
			"name": "changeTokenAmountPricePublic",
			"outputs": [],
			"stateMutability": "nonpayable",
			"type": "function"
		},
		{
			"inputs": [],
			"name": "decimals",
			"outputs": [
				{
					"internalType": "uint8",
					"name": "",
					"type": "uint8"
				}
			],
			"stateMutability": "view",
			"type": "function"
		},
		{
			"inputs": [
				{
					"internalType": "address",
					"name": "_userAdr",
					"type": "address"
				}
			],
			"name": "deviationApplication",
			"outputs": [],
			"stateMutability": "nonpayable",
			"type": "function"
		},
		{
			"inputs": [],
			"name": "endPrivatePhase",
			"outputs": [],
			"stateMutability": "nonpayable",
			"type": "function"
		},
		{
			"inputs": [],
			"name": "getApplicationAmountAdr",
			"outputs": [
				{
					"internalType": "address[]",
					"name": "",
					"type": "address[]"
				}
			],
			"stateMutability": "view",
			"type": "function"
		},
		{
			"inputs": [
				{
					"internalType": "address",
					"name": "_userAdr",
					"type": "address"
				}
			],
			"name": "getBalancePrivateToken",
			"outputs": [
				{
					"internalType": "uint256",
					"name": "",
					"type": "uint256"
				}
			],
			"stateMutability": "view",
			"type": "function"
		},
		{
			"inputs": [
				{
					"internalType": "address",
					"name": "_userAdr",
					"type": "address"
				}
			],
			"name": "getBalancePublicToken",
			"outputs": [
				{
					"internalType": "uint256",
					"name": "",
					"type": "uint256"
				}
			],
			"stateMutability": "view",
			"type": "function"
		},
		{
			"inputs": [
				{
					"internalType": "address",
					"name": "_userAdr",
					"type": "address"
				}
			],
			"name": "getBalanceSeedToken",
			"outputs": [
				{
					"internalType": "uint256",
					"name": "",
					"type": "uint256"
				}
			],
			"stateMutability": "view",
			"type": "function"
		},
		{
			"inputs": [],
			"name": "get_blackList",
			"outputs": [
				{
					"internalType": "address[]",
					"name": "",
					"type": "address[]"
				}
			],
			"stateMutability": "view",
			"type": "function"
		},
		{
			"inputs": [
				{
					"internalType": "string",
					"name": "_hash",
					"type": "string"
				}
			],
			"name": "get_keccak256",
			"outputs": [
				{
					"internalType": "bytes32",
					"name": "",
					"type": "bytes32"
				}
			],
			"stateMutability": "pure",
			"type": "function"
		},
		{
			"inputs": [],
			"name": "get_whiteList",
			"outputs": [
				{
					"internalType": "address[]",
					"name": "",
					"type": "address[]"
				}
			],
			"stateMutability": "view",
			"type": "function"
		},
		{
			"inputs": [],
			"name": "name",
			"outputs": [
				{
					"internalType": "string",
					"name": "",
					"type": "string"
				}
			],
			"stateMutability": "view",
			"type": "function"
		},
		{
			"inputs": [],
			"name": "startPrivatePhase",
			"outputs": [],
			"stateMutability": "nonpayable",
			"type": "function"
		},
		{
			"inputs": [],
			"name": "symbol",
			"outputs": [
				{
					"internalType": "string",
					"name": "",
					"type": "string"
				}
			],
			"stateMutability": "view",
			"type": "function"
		},
		{
			"inputs": [],
			"name": "tokenAmount_",
			"outputs": [
				{
					"internalType": "uint256",
					"name": "",
					"type": "uint256"
				}
			],
			"stateMutability": "view",
			"type": "function"
		},
		{
			"inputs": [],
			"name": "tokenPrice_",
			"outputs": [
				{
					"internalType": "uint256",
					"name": "",
					"type": "uint256"
				}
			],
			"stateMutability": "view",
			"type": "function"
		},
		{
			"inputs": [],
			"name": "totalSupply",
			"outputs": [
				{
					"internalType": "uint256",
					"name": "",
					"type": "uint256"
				}
			],
			"stateMutability": "view",
			"type": "function"
		},
		{
			"inputs": [
				{
					"internalType": "address",
					"name": "_receiver",
					"type": "address"
				},
				{
					"internalType": "uint256",
					"name": "_numTokens",
					"type": "uint256"
				}
			],
			"name": "transfer",
			"outputs": [
				{
					"internalType": "bool",
					"name": "",
					"type": "bool"
				}
			],
			"stateMutability": "nonpayable",
			"type": "function"
		},
		{
			"inputs": [
				{
					"internalType": "address",
					"name": "_owner",
					"type": "address"
				},
				{
					"internalType": "address",
					"name": "_buyer",
					"type": "address"
				},
				{
					"internalType": "uint256",
					"name": "_numTokens",
					"type": "uint256"
				}
			],
			"name": "transferFrom",
			"outputs": [
				{
					"internalType": "bool",
					"name": "",
					"type": "bool"
				}
			],
			"stateMutability": "nonpayable",
			"type": "function"
		}
	]
}