{
	"Documents/GitHub/contract-token-cryptoMonster/backend/components/PhasePublic.sol": {
		"PhasePublic": {
			"abi": [
				{
					"inputs": [
						{
							"internalType": "uint256",
							"name": "_price",
							"type": "uint256"
						}
					],
					"name": "changeTokenAmountPricePublic",
					"outputs": [],
					"stateMutability": "nonpayable",
					"type": "function"
				},
				{
					"inputs": [
						{
							"internalType": "address",
							"name": "_userAdr",
							"type": "address"
						}
					],
					"name": "getBalancePrivateToken",
					"outputs": [
						{
							"internalType": "uint256",
							"name": "",
							"type": "uint256"
						}
					],
					"stateMutability": "view",
					"type": "function"
				},
				{
					"inputs": [
						{
							"internalType": "address",
							"name": "_userAdr",
							"type": "address"
						}
					],
					"name": "getBalancePublicToken",
					"outputs": [
						{
							"internalType": "uint256",
							"name": "",
							"type": "uint256"
						}
					],
					"stateMutability": "view",
					"type": "function"
				},
				{
					"inputs": [
						{
							"internalType": "address",
							"name": "_userAdr",
							"type": "address"
						}
					],
					"name": "getBalanceSeedToken",
					"outputs": [
						{
							"internalType": "uint256",
							"name": "",
							"type": "uint256"
						}
					],
					"stateMutability": "view",
					"type": "function"
				},
				{
					"inputs": [],
					"name": "get_blackList",
					"outputs": [
						{
							"internalType": "address[]",
							"name": "",
							"type": "address[]"
						}
					],
					"stateMutability": "view",
					"type": "function"
				},
				{
					"inputs": [
						{
							"internalType": "string",
							"name": "_hash",
							"type": "string"
						}
					],
					"name": "get_keccak256",
					"outputs": [
						{
							"internalType": "bytes32",
							"name": "",
							"type": "bytes32"
						}
					],
					"stateMutability": "pure",
					"type": "function"
				},
				{
					"inputs": [],
					"name": "get_whiteList",
					"outputs": [
						{
							"internalType": "address[]",
							"name": "",
							"type": "address[]"
						}
					],
					"stateMutability": "view",
					"type": "function"
				},
				{
					"inputs": [],
					"name": "tokenAmount_",
					"outputs": [
						{
							"internalType": "uint256",
							"name": "",
							"type": "uint256"
						}
					],
					"stateMutability": "view",
					"type": "function"
				},
				{
					"inputs": [],
					"name": "tokenPrice_",
					"outputs": [
						{
							"internalType": "uint256",
							"name": "",
							"type": "uint256"
						}
					],
					"stateMutability": "view",
					"type": "function"
				}
			],
			"devdoc": {
				"kind": "dev",
				"methods": {},
				"version": 1
			},
			"evm": {
				"assembly": "    /* \"Documents/GitHub/contract-token-cryptoMonster/backend/components/PhasePublic.sol\":121:379  contract PhasePublic is validateFuncs {\r... */\n  mstore(0x40, 0x80)\n    /* \"Documents/GitHub/contract-token-cryptoMonster/backend/shared/lib/structures.sol\":1145:1154  750000000 */\n  0x2cb41780\n    /* \"Documents/GitHub/contract-token-cryptoMonster/backend/shared/lib/structures.sol\":1116:1154  uint256 public tokenPrice_ = 750000000 */\n  0x02\n  sstore\n    /* \"Documents/GitHub/contract-token-cryptoMonster/backend/shared/lib/structures.sol\":1405:1411  100000 */\n  0x0186a0\n    /* \"Documents/GitHub/contract-token-cryptoMonster/backend/shared/lib/structures.sol\":1378:1411  uint public tokenAmount_ = 100000 */\n  0x03\n  sstore\n    /* \"Documents/GitHub/contract-token-cryptoMonster/backend/components/PhasePublic.sol\":121:379  contract PhasePublic is validateFuncs {\r... */\n  callvalue\n  dup1\n  iszero\n  tag_1\n  jumpi\n  0x00\n  dup1\n  revert\ntag_1:\n  pop\n  dataSize(sub_0)\n  dup1\n  dataOffset(sub_0)\n  0x00\n  codecopy\n  0x00\n  return\nstop\n\nsub_0: assembly {\n        /* \"Documents/GitHub/contract-token-cryptoMonster/backend/components/PhasePublic.sol\":121:379  contract PhasePublic is validateFuncs {\r... */\n      mstore(0x40, 0x80)\n      callvalue\n      dup1\n      iszero\n      tag_1\n      jumpi\n      0x00\n      dup1\n      revert\n    tag_1:\n      pop\n      jumpi(tag_2, lt(calldatasize, 0x04))\n      shr(0xe0, calldataload(0x00))\n      dup1\n      0x7f89128f\n      gt\n      tag_12\n      jumpi\n      dup1\n      0x7f89128f\n      eq\n      tag_7\n      jumpi\n      dup1\n      0x8e4f8c6b\n      eq\n      tag_8\n      jumpi\n      dup1\n      0x948942ad\n      eq\n      tag_9\n      jumpi\n      dup1\n      0xb06cdc12\n      eq\n      tag_10\n      jumpi\n      dup1\n      0xc10e3911\n      eq\n      tag_11\n      jumpi\n      jump(tag_2)\n    tag_12:\n      dup1\n      0x0761c8b9\n      eq\n      tag_3\n      jumpi\n      dup1\n      0x2599d6d0\n      eq\n      tag_4\n      jumpi\n      dup1\n      0x32cbdd03\n      eq\n      tag_5\n      jumpi\n      dup1\n      0x72f0d72b\n      eq\n      tag_6\n      jumpi\n    tag_2:\n      0x00\n      dup1\n      revert\n        /* \"Documents/GitHub/contract-token-cryptoMonster/backend/shared/lib/structures.sol\":1116:1154  uint256 public tokenPrice_ = 750000000 */\n    tag_3:\n      tag_13\n      tag_14\n      jump\t// in\n    tag_13:\n      mload(0x40)\n      tag_15\n      swap2\n      swap1\n      tag_16\n      jump\t// in\n    tag_15:\n      mload(0x40)\n      dup1\n      swap2\n      sub\n      swap1\n      return\n        /* \"Documents/GitHub/contract-token-cryptoMonster/backend/shared/helpers/helpresFunc.sol\":849:988  function getBalanceSeedToken (address _userAdr) public view returns (uint256) {\r... */\n    tag_4:\n      tag_17\n      0x04\n      dup1\n      calldatasize\n      sub\n      dup2\n      add\n      swap1\n      tag_18\n      swap2\n      swap1\n      tag_19\n      jump\t// in\n    tag_18:\n      tag_20\n      jump\t// in\n    tag_17:\n      mload(0x40)\n      tag_21\n      swap2\n      swap1\n      tag_16\n      jump\t// in\n    tag_21:\n      mload(0x40)\n      dup1\n      swap2\n      sub\n      swap1\n      return\n        /* \"Documents/GitHub/contract-token-cryptoMonster/backend/components/PhasePublic.sol\":257:374  function changeTokenAmountPricePublic (uint _price) public onlyPublicProvider {\r... */\n    tag_5:\n      tag_22\n      0x04\n      dup1\n      calldatasize\n      sub\n      dup2\n      add\n      swap1\n      tag_23\n      swap2\n      swap1\n      tag_24\n      jump\t// in\n    tag_23:\n      tag_25\n      jump\t// in\n    tag_22:\n      stop\n        /* \"Documents/GitHub/contract-token-cryptoMonster/backend/shared/helpers/helpresFunc.sol\":1352:1495  function getBalancePublicToken (address _userAdr) public view returns (uint256) {\r... */\n    tag_6:\n      tag_26\n      0x04\n      dup1\n      calldatasize\n      sub\n      dup2\n      add\n      swap1\n      tag_27\n      swap2\n      swap1\n      tag_19\n      jump\t// in\n    tag_27:\n      tag_28\n      jump\t// in\n    tag_26:\n      mload(0x40)\n      tag_29\n      swap2\n      swap1\n      tag_16\n      jump\t// in\n    tag_29:\n      mload(0x40)\n      dup1\n      swap2\n      sub\n      swap1\n      return\n        /* \"Documents/GitHub/contract-token-cryptoMonster/backend/shared/helpers/helpresFunc.sol\":632:742  function get_blackList() public onlyOwner view returns (address[] memory) {\r... */\n    tag_7:\n      tag_30\n      tag_31\n      jump\t// in\n    tag_30:\n      mload(0x40)\n      tag_32\n      swap2\n      swap1\n      tag_33\n      jump\t// in\n    tag_32:\n      mload(0x40)\n      dup1\n      swap2\n      sub\n      swap1\n      return\n        /* \"Documents/GitHub/contract-token-cryptoMonster/backend/shared/helpers/helpresFunc.sol\":212:350  function get_keccak256(string memory _hash) public pure returns(bytes32) {\r... */\n    tag_8:\n      tag_34\n      0x04\n      dup1\n      calldatasize\n      sub\n      dup2\n      add\n      swap1\n      tag_35\n      swap2\n      swap1\n      tag_36\n      jump\t// in\n    tag_35:\n      tag_37\n      jump\t// in\n    tag_34:\n      mload(0x40)\n      tag_38\n      swap2\n      swap1\n      tag_39\n      jump\t// in\n    tag_38:\n      mload(0x40)\n      dup1\n      swap2\n      sub\n      swap1\n      return\n        /* \"Documents/GitHub/contract-token-cryptoMonster/backend/shared/lib/structures.sol\":1378:1411  uint public tokenAmount_ = 100000 */\n    tag_9:\n      tag_40\n      tag_41\n      jump\t// in\n    tag_40:\n      mload(0x40)\n      tag_42\n      swap2\n      swap1\n      tag_16\n      jump\t// in\n    tag_42:\n      mload(0x40)\n      dup1\n      swap2\n      sub\n      swap1\n      return\n        /* \"Documents/GitHub/contract-token-cryptoMonster/backend/shared/helpers/helpresFunc.sol\":1098:1243  function getBalancePrivateToken (address _userAdr) public view returns (uint256) {\r... */\n    tag_10:\n      tag_43\n      0x04\n      dup1\n      calldatasize\n      sub\n      dup2\n      add\n      swap1\n      tag_44\n      swap2\n      swap1\n      tag_19\n      jump\t// in\n    tag_44:\n      tag_45\n      jump\t// in\n    tag_43:\n      mload(0x40)\n      tag_46\n      swap2\n      swap1\n      tag_16\n      jump\t// in\n    tag_46:\n      mload(0x40)\n      dup1\n      swap2\n      sub\n      swap1\n      return\n        /* \"Documents/GitHub/contract-token-cryptoMonster/backend/shared/helpers/helpresFunc.sol\":426:554  function get_whiteList() public onlyOwnerAndPrivateProvider view returns (address[] memory) {\r... */\n    tag_11:\n      tag_47\n      tag_48\n      jump\t// in\n    tag_47:\n      mload(0x40)\n      tag_49\n      swap2\n      swap1\n      tag_33\n      jump\t// in\n    tag_49:\n      mload(0x40)\n      dup1\n      swap2\n      sub\n      swap1\n      return\n        /* \"Documents/GitHub/contract-token-cryptoMonster/backend/shared/lib/structures.sol\":1116:1154  uint256 public tokenPrice_ = 750000000 */\n    tag_14:\n      sload(0x02)\n      dup2\n      jump\t// out\n        /* \"Documents/GitHub/contract-token-cryptoMonster/backend/shared/helpers/helpresFunc.sol\":849:988  function getBalanceSeedToken (address _userAdr) public view returns (uint256) {\r... */\n    tag_20:\n        /* \"Documents/GitHub/contract-token-cryptoMonster/backend/shared/helpers/helpresFunc.sol\":918:925  uint256 */\n      0x00\n        /* \"Documents/GitHub/contract-token-cryptoMonster/backend/shared/helpers/helpresFunc.sol\":945:957  structUsers_ */\n      dup1\n        /* \"Documents/GitHub/contract-token-cryptoMonster/backend/shared/helpers/helpresFunc.sol\":945:967  structUsers_[_userAdr] */\n      0x00\n        /* \"Documents/GitHub/contract-token-cryptoMonster/backend/shared/helpers/helpresFunc.sol\":958:966  _userAdr */\n      dup4\n        /* \"Documents/GitHub/contract-token-cryptoMonster/backend/shared/helpers/helpresFunc.sol\":945:967  structUsers_[_userAdr] */\n      0xffffffffffffffffffffffffffffffffffffffff\n      and\n      0xffffffffffffffffffffffffffffffffffffffff\n      and\n      dup2\n      mstore\n      0x20\n      add\n      swap1\n      dup2\n      mstore\n      0x20\n      add\n      0x00\n      keccak256\n        /* \"Documents/GitHub/contract-token-cryptoMonster/backend/shared/helpers/helpresFunc.sol\":945:980  structUsers_[_userAdr].balance_seed */\n      0x04\n      add\n      sload\n        /* \"Documents/GitHub/contract-token-cryptoMonster/backend/shared/helpers/helpresFunc.sol\":938:980  return structUsers_[_userAdr].balance_seed */\n      swap1\n      pop\n        /* \"Documents/GitHub/contract-token-cryptoMonster/backend/shared/helpers/helpresFunc.sol\":849:988  function getBalanceSeedToken (address _userAdr) public view returns (uint256) {\r... */\n      swap2\n      swap1\n      pop\n      jump\t// out\n        /* \"Documents/GitHub/contract-token-cryptoMonster/backend/components/PhasePublic.sol\":257:374  function changeTokenAmountPricePublic (uint _price) public onlyPublicProvider {\r... */\n    tag_25:\n        /* \"Documents/GitHub/contract-token-cryptoMonster/backend/shared/helpers/modifireFunc.sol\":826:844  Role.SYSTEM_PUBLIC */\n      0x01\n        /* \"Documents/GitHub/contract-token-cryptoMonster/backend/shared/helpers/modifireFunc.sol\":793:844  structUsers_[msg.sender].role == Role.SYSTEM_PUBLIC */\n      0x04\n      dup2\n      gt\n      iszero\n      tag_52\n      jumpi\n      tag_53\n      tag_54\n      jump\t// in\n    tag_53:\n    tag_52:\n        /* \"Documents/GitHub/contract-token-cryptoMonster/backend/shared/helpers/modifireFunc.sol\":793:805  structUsers_ */\n      0x00\n        /* \"Documents/GitHub/contract-token-cryptoMonster/backend/shared/helpers/modifireFunc.sol\":793:817  structUsers_[msg.sender] */\n      dup1\n        /* \"Documents/GitHub/contract-token-cryptoMonster/backend/shared/helpers/modifireFunc.sol\":806:816  msg.sender */\n      caller\n        /* \"Documents/GitHub/contract-token-cryptoMonster/backend/shared/helpers/modifireFunc.sol\":793:817  structUsers_[msg.sender] */\n      0xffffffffffffffffffffffffffffffffffffffff\n      and\n      0xffffffffffffffffffffffffffffffffffffffff\n      and\n      dup2\n      mstore\n      0x20\n      add\n      swap1\n      dup2\n      mstore\n      0x20\n      add\n      0x00\n      keccak256\n        /* \"Documents/GitHub/contract-token-cryptoMonster/backend/shared/helpers/modifireFunc.sol\":793:822  structUsers_[msg.sender].role */\n      0x00\n      add\n      0x00\n      swap1\n      sload\n      swap1\n      0x0100\n      exp\n      swap1\n      div\n      0xff\n      and\n        /* \"Documents/GitHub/contract-token-cryptoMonster/backend/shared/helpers/modifireFunc.sol\":793:844  structUsers_[msg.sender].role == Role.SYSTEM_PUBLIC */\n      0x04\n      dup2\n      gt\n      iszero\n      tag_55\n      jumpi\n      tag_56\n      tag_54\n      jump\t// in\n    tag_56:\n    tag_55:\n      eq\n        /* \"Documents/GitHub/contract-token-cryptoMonster/backend/shared/helpers/modifireFunc.sol\":785:873  require(structUsers_[msg.sender].role == Role.SYSTEM_PUBLIC, \"Your not Public provider\") */\n      tag_57\n      jumpi\n      mload(0x40)\n      0x08c379a000000000000000000000000000000000000000000000000000000000\n      dup2\n      mstore\n      0x04\n      add\n      tag_58\n      swap1\n      tag_59\n      jump\t// in\n    tag_58:\n      mload(0x40)\n      dup1\n      swap2\n      sub\n      swap1\n      revert\n    tag_57:\n        /* \"Documents/GitHub/contract-token-cryptoMonster/backend/components/PhasePublic.sol\":360:366  _price */\n      dup1\n        /* \"Documents/GitHub/contract-token-cryptoMonster/backend/components/PhasePublic.sol\":346:357  tokenPrice_ */\n      0x02\n        /* \"Documents/GitHub/contract-token-cryptoMonster/backend/components/PhasePublic.sol\":346:366  tokenPrice_ = _price */\n      dup2\n      swap1\n      sstore\n      pop\n        /* \"Documents/GitHub/contract-token-cryptoMonster/backend/components/PhasePublic.sol\":257:374  function changeTokenAmountPricePublic (uint _price) public onlyPublicProvider {\r... */\n      pop\n      jump\t// out\n        /* \"Documents/GitHub/contract-token-cryptoMonster/backend/shared/helpers/helpresFunc.sol\":1352:1495  function getBalancePublicToken (address _userAdr) public view returns (uint256) {\r... */\n    tag_28:\n        /* \"Documents/GitHub/contract-token-cryptoMonster/backend/shared/helpers/helpresFunc.sol\":1423:1430  uint256 */\n      0x00\n        /* \"Documents/GitHub/contract-token-cryptoMonster/backend/shared/helpers/helpresFunc.sol\":1450:1462  structUsers_ */\n      dup1\n        /* \"Documents/GitHub/contract-token-cryptoMonster/backend/shared/helpers/helpresFunc.sol\":1450:1472  structUsers_[_userAdr] */\n      0x00\n        /* \"Documents/GitHub/contract-token-cryptoMonster/backend/shared/helpers/helpresFunc.sol\":1463:1471  _userAdr */\n      dup4\n        /* \"Documents/GitHub/contract-token-cryptoMonster/backend/shared/helpers/helpresFunc.sol\":1450:1472  structUsers_[_userAdr] */\n      0xffffffffffffffffffffffffffffffffffffffff\n      and\n      0xffffffffffffffffffffffffffffffffffffffff\n      and\n      dup2\n      mstore\n      0x20\n      add\n      swap1\n      dup2\n      mstore\n      0x20\n      add\n      0x00\n      keccak256\n        /* \"Documents/GitHub/contract-token-cryptoMonster/backend/shared/helpers/helpresFunc.sol\":1450:1487  structUsers_[_userAdr].balance_public */\n      0x06\n      add\n      sload\n        /* \"Documents/GitHub/contract-token-cryptoMonster/backend/shared/helpers/helpresFunc.sol\":1443:1487  return structUsers_[_userAdr].balance_public */\n      swap1\n      pop\n        /* \"Documents/GitHub/contract-token-cryptoMonster/backend/shared/helpers/helpresFunc.sol\":1352:1495  function getBalancePublicToken (address _userAdr) public view returns (uint256) {\r... */\n      swap2\n      swap1\n      pop\n      jump\t// out\n        /* \"Documents/GitHub/contract-token-cryptoMonster/backend/shared/helpers/helpresFunc.sol\":632:742  function get_blackList() public onlyOwner view returns (address[] memory) {\r... */\n    tag_31:\n        /* \"Documents/GitHub/contract-token-cryptoMonster/backend/shared/helpers/helpresFunc.sol\":688:704  address[] memory */\n      0x60\n        /* \"Documents/GitHub/contract-token-cryptoMonster/backend/shared/helpers/modifireFunc.sol\":320:337  Role.SYSTEM_OWNER */\n      0x00\n        /* \"Documents/GitHub/contract-token-cryptoMonster/backend/shared/helpers/modifireFunc.sol\":287:337  structUsers_[msg.sender].role == Role.SYSTEM_OWNER */\n      0x04\n      dup2\n      gt\n      iszero\n      tag_63\n      jumpi\n      tag_64\n      tag_54\n      jump\t// in\n    tag_64:\n    tag_63:\n        /* \"Documents/GitHub/contract-token-cryptoMonster/backend/shared/helpers/modifireFunc.sol\":287:299  structUsers_ */\n      0x00\n        /* \"Documents/GitHub/contract-token-cryptoMonster/backend/shared/helpers/modifireFunc.sol\":287:311  structUsers_[msg.sender] */\n      dup1\n        /* \"Documents/GitHub/contract-token-cryptoMonster/backend/shared/helpers/modifireFunc.sol\":300:310  msg.sender */\n      caller\n        /* \"Documents/GitHub/contract-token-cryptoMonster/backend/shared/helpers/modifireFunc.sol\":287:311  structUsers_[msg.sender] */\n      0xffffffffffffffffffffffffffffffffffffffff\n      and\n      0xffffffffffffffffffffffffffffffffffffffff\n      and\n      dup2\n      mstore\n      0x20\n      add\n      swap1\n      dup2\n      mstore\n      0x20\n      add\n      0x00\n      keccak256\n        /* \"Documents/GitHub/contract-token-cryptoMonster/backend/shared/helpers/modifireFunc.sol\":287:316  structUsers_[msg.sender].role */\n      0x00\n      add\n      0x00\n      swap1\n      sload\n      swap1\n      0x0100\n      exp\n      swap1\n      div\n      0xff\n      and\n        /* \"Documents/GitHub/contract-token-cryptoMonster/backend/shared/helpers/modifireFunc.sol\":287:337  structUsers_[msg.sender].role == Role.SYSTEM_OWNER */\n      0x04\n      dup2\n      gt\n      iszero\n      tag_65\n      jumpi\n      tag_66\n      tag_54\n      jump\t// in\n    tag_66:\n    tag_65:\n      eq\n        /* \"Documents/GitHub/contract-token-cryptoMonster/backend/shared/helpers/modifireFunc.sol\":279:356  require(structUsers_[msg.sender].role == Role.SYSTEM_OWNER, \"Your not admin\") */\n      tag_67\n      jumpi\n      mload(0x40)\n      0x08c379a000000000000000000000000000000000000000000000000000000000\n      dup2\n      mstore\n      0x04\n      add\n      tag_68\n      swap1\n      tag_69\n      jump\t// in\n    tag_68:\n      mload(0x40)\n      dup1\n      swap2\n      sub\n      swap1\n      revert\n    tag_67:\n        /* \"Documents/GitHub/contract-token-cryptoMonster/backend/shared/helpers/helpresFunc.sol\":724:733  blackList */\n      0x08\n        /* \"Documents/GitHub/contract-token-cryptoMonster/backend/shared/helpers/helpresFunc.sol\":717:734  return(blackList) */\n      dup1\n      sload\n      dup1\n      0x20\n      mul\n      0x20\n      add\n      mload(0x40)\n      swap1\n      dup2\n      add\n      0x40\n      mstore\n      dup1\n      swap3\n      swap2\n      swap1\n      dup2\n      dup2\n      mstore\n      0x20\n      add\n      dup3\n      dup1\n      sload\n      dup1\n      iszero\n      tag_71\n      jumpi\n      0x20\n      mul\n      dup3\n      add\n      swap2\n      swap1\n      0x00\n      mstore\n      keccak256(0x00, 0x20)\n      swap1\n    tag_72:\n      dup2\n      0x00\n      swap1\n      sload\n      swap1\n      0x0100\n      exp\n      swap1\n      div\n      0xffffffffffffffffffffffffffffffffffffffff\n      and\n      0xffffffffffffffffffffffffffffffffffffffff\n      and\n      dup2\n      mstore\n      0x20\n      add\n      swap1\n      0x01\n      add\n      swap1\n      dup1\n      dup4\n      gt\n      tag_72\n      jumpi\n    tag_71:\n      pop\n      pop\n      pop\n      pop\n      pop\n      swap1\n      pop\n        /* \"Documents/GitHub/contract-token-cryptoMonster/backend/shared/helpers/helpresFunc.sol\":632:742  function get_blackList() public onlyOwner view returns (address[] memory) {\r... */\n      swap1\n      jump\t// out\n        /* \"Documents/GitHub/contract-token-cryptoMonster/backend/shared/helpers/helpresFunc.sol\":212:350  function get_keccak256(string memory _hash) public pure returns(bytes32) {\r... */\n    tag_37:\n        /* \"Documents/GitHub/contract-token-cryptoMonster/backend/shared/helpers/helpresFunc.sol\":276:283  bytes32 */\n      0x00\n        /* \"Documents/GitHub/contract-token-cryptoMonster/backend/shared/helpers/helpresFunc.sol\":334:339  _hash */\n      dup2\n        /* \"Documents/GitHub/contract-token-cryptoMonster/backend/shared/helpers/helpresFunc.sol\":317:340  abi.encodePacked(_hash) */\n      add(0x20, mload(0x40))\n      tag_74\n      swap2\n      swap1\n      tag_75\n      jump\t// in\n    tag_74:\n      mload(0x40)\n      0x20\n      dup2\n      dup4\n      sub\n      sub\n      dup2\n      mstore\n      swap1\n      0x40\n      mstore\n        /* \"Documents/GitHub/contract-token-cryptoMonster/backend/shared/helpers/helpresFunc.sol\":307:341  keccak256(abi.encodePacked(_hash)) */\n      dup1\n      mload\n      swap1\n      0x20\n      add\n      keccak256\n        /* \"Documents/GitHub/contract-token-cryptoMonster/backend/shared/helpers/helpresFunc.sol\":300:342  return(keccak256(abi.encodePacked(_hash))) */\n      swap1\n      pop\n        /* \"Documents/GitHub/contract-token-cryptoMonster/backend/shared/helpers/helpresFunc.sol\":212:350  function get_keccak256(string memory _hash) public pure returns(bytes32) {\r... */\n      swap2\n      swap1\n      pop\n      jump\t// out\n        /* \"Documents/GitHub/contract-token-cryptoMonster/backend/shared/lib/structures.sol\":1378:1411  uint public tokenAmount_ = 100000 */\n    tag_41:\n      sload(0x03)\n      dup2\n      jump\t// out\n        /* \"Documents/GitHub/contract-token-cryptoMonster/backend/shared/helpers/helpresFunc.sol\":1098:1243  function getBalancePrivateToken (address _userAdr) public view returns (uint256) {\r... */\n    tag_45:\n        /* \"Documents/GitHub/contract-token-cryptoMonster/backend/shared/helpers/helpresFunc.sol\":1170:1177  uint256 */\n      0x00\n        /* \"Documents/GitHub/contract-token-cryptoMonster/backend/shared/helpers/helpresFunc.sol\":1197:1209  structUsers_ */\n      dup1\n        /* \"Documents/GitHub/contract-token-cryptoMonster/backend/shared/helpers/helpresFunc.sol\":1197:1219  structUsers_[_userAdr] */\n      0x00\n        /* \"Documents/GitHub/contract-token-cryptoMonster/backend/shared/helpers/helpresFunc.sol\":1210:1218  _userAdr */\n      dup4\n        /* \"Documents/GitHub/contract-token-cryptoMonster/backend/shared/helpers/helpresFunc.sol\":1197:1219  structUsers_[_userAdr] */\n      0xffffffffffffffffffffffffffffffffffffffff\n      and\n      0xffffffffffffffffffffffffffffffffffffffff\n      and\n      dup2\n      mstore\n      0x20\n      add\n      swap1\n      dup2\n      mstore\n      0x20\n      add\n      0x00\n      keccak256\n        /* \"Documents/GitHub/contract-token-cryptoMonster/backend/shared/helpers/helpresFunc.sol\":1197:1235  structUsers_[_userAdr].balance_private */\n      0x05\n      add\n      sload\n        /* \"Documents/GitHub/contract-token-cryptoMonster/backend/shared/helpers/helpresFunc.sol\":1190:1235  return structUsers_[_userAdr].balance_private */\n      swap1\n      pop\n        /* \"Documents/GitHub/contract-token-cryptoMonster/backend/shared/helpers/helpresFunc.sol\":1098:1243  function getBalancePrivateToken (address _userAdr) public view returns (uint256) {\r... */\n      swap2\n      swap1\n      pop\n      jump\t// out\n        /* \"Documents/GitHub/contract-token-cryptoMonster/backend/shared/helpers/helpresFunc.sol\":426:554  function get_whiteList() public onlyOwnerAndPrivateProvider view returns (address[] memory) {\r... */\n    tag_48:\n        /* \"Documents/GitHub/contract-token-cryptoMonster/backend/shared/helpers/helpresFunc.sol\":500:516  address[] memory */\n      0x60\n        /* \"Documents/GitHub/contract-token-cryptoMonster/backend/shared/helpers/modifireFunc.sol\":1116:1133  Role.SYSTEM_OWNER */\n      0x00\n        /* \"Documents/GitHub/contract-token-cryptoMonster/backend/shared/helpers/modifireFunc.sol\":1083:1133  structUsers_[msg.sender].role == Role.SYSTEM_OWNER */\n      0x04\n      dup2\n      gt\n      iszero\n      tag_78\n      jumpi\n      tag_79\n      tag_54\n      jump\t// in\n    tag_79:\n    tag_78:\n        /* \"Documents/GitHub/contract-token-cryptoMonster/backend/shared/helpers/modifireFunc.sol\":1083:1095  structUsers_ */\n      0x00\n        /* \"Documents/GitHub/contract-token-cryptoMonster/backend/shared/helpers/modifireFunc.sol\":1083:1107  structUsers_[msg.sender] */\n      dup1\n        /* \"Documents/GitHub/contract-token-cryptoMonster/backend/shared/helpers/modifireFunc.sol\":1096:1106  msg.sender */\n      caller\n        /* \"Documents/GitHub/contract-token-cryptoMonster/backend/shared/helpers/modifireFunc.sol\":1083:1107  structUsers_[msg.sender] */\n      0xffffffffffffffffffffffffffffffffffffffff\n      and\n      0xffffffffffffffffffffffffffffffffffffffff\n      and\n      dup2\n      mstore\n      0x20\n      add\n      swap1\n      dup2\n      mstore\n      0x20\n      add\n      0x00\n      keccak256\n        /* \"Documents/GitHub/contract-token-cryptoMonster/backend/shared/helpers/modifireFunc.sol\":1083:1112  structUsers_[msg.sender].role */\n      0x00\n      add\n      0x00\n      swap1\n      sload\n      swap1\n      0x0100\n      exp\n      swap1\n      div\n      0xff\n      and\n        /* \"Documents/GitHub/contract-token-cryptoMonster/backend/shared/helpers/modifireFunc.sol\":1083:1133  structUsers_[msg.sender].role == Role.SYSTEM_OWNER */\n      0x04\n      dup2\n      gt\n      iszero\n      tag_80\n      jumpi\n      tag_81\n      tag_54\n      jump\t// in\n    tag_81:\n    tag_80:\n      eq\n        /* \"Documents/GitHub/contract-token-cryptoMonster/backend/shared/helpers/modifireFunc.sol\":1083:1189  structUsers_[msg.sender].role == Role.SYSTEM_OWNER || structUsers_[msg.sender].role == Role.SYSTEM_PRIVATE */\n      dup1\n      tag_82\n      jumpi\n      pop\n        /* \"Documents/GitHub/contract-token-cryptoMonster/backend/shared/helpers/modifireFunc.sol\":1170:1189  Role.SYSTEM_PRIVATE */\n      0x02\n        /* \"Documents/GitHub/contract-token-cryptoMonster/backend/shared/helpers/modifireFunc.sol\":1137:1189  structUsers_[msg.sender].role == Role.SYSTEM_PRIVATE */\n      0x04\n      dup2\n      gt\n      iszero\n      tag_83\n      jumpi\n      tag_84\n      tag_54\n      jump\t// in\n    tag_84:\n    tag_83:\n        /* \"Documents/GitHub/contract-token-cryptoMonster/backend/shared/helpers/modifireFunc.sol\":1137:1149  structUsers_ */\n      0x00\n        /* \"Documents/GitHub/contract-token-cryptoMonster/backend/shared/helpers/modifireFunc.sol\":1137:1161  structUsers_[msg.sender] */\n      dup1\n        /* \"Documents/GitHub/contract-token-cryptoMonster/backend/shared/helpers/modifireFunc.sol\":1150:1160  msg.sender */\n      caller\n        /* \"Documents/GitHub/contract-token-cryptoMonster/backend/shared/helpers/modifireFunc.sol\":1137:1161  structUsers_[msg.sender] */\n      0xffffffffffffffffffffffffffffffffffffffff\n      and\n      0xffffffffffffffffffffffffffffffffffffffff\n      and\n      dup2\n      mstore\n      0x20\n      add\n      swap1\n      dup2\n      mstore\n      0x20\n      add\n      0x00\n      keccak256\n        /* \"Documents/GitHub/contract-token-cryptoMonster/backend/shared/helpers/modifireFunc.sol\":1137:1166  structUsers_[msg.sender].role */\n      0x00\n      add\n      0x00\n      swap1\n      sload\n      swap1\n      0x0100\n      exp\n      swap1\n      div\n      0xff\n      and\n        /* \"Documents/GitHub/contract-token-cryptoMonster/backend/shared/helpers/modifireFunc.sol\":1137:1189  structUsers_[msg.sender].role == Role.SYSTEM_PRIVATE */\n      0x04\n      dup2\n      gt\n      iszero\n      tag_85\n      jumpi\n      tag_86\n      tag_54\n      jump\t// in\n    tag_86:\n    tag_85:\n      eq\n        /* \"Documents/GitHub/contract-token-cryptoMonster/backend/shared/helpers/modifireFunc.sol\":1083:1189  structUsers_[msg.sender].role == Role.SYSTEM_OWNER || structUsers_[msg.sender].role == Role.SYSTEM_PRIVATE */\n    tag_82:\n        /* \"Documents/GitHub/contract-token-cryptoMonster/backend/shared/helpers/modifireFunc.sol\":1075:1235  require(structUsers_[msg.sender].role == Role.SYSTEM_OWNER || structUsers_[msg.sender].role == Role.SYSTEM_PRIVATE, \"You are not the owner or private provider\") */\n      tag_87\n      jumpi\n      mload(0x40)\n      0x08c379a000000000000000000000000000000000000000000000000000000000\n      dup2\n      mstore\n      0x04\n      add\n      tag_88\n      swap1\n      tag_89\n      jump\t// in\n    tag_88:\n      mload(0x40)\n      dup1\n      swap2\n      sub\n      swap1\n      revert\n    tag_87:\n        /* \"Documents/GitHub/contract-token-cryptoMonster/backend/shared/helpers/helpresFunc.sol\":536:545  whiteList */\n      0x07\n        /* \"Documents/GitHub/contract-token-cryptoMonster/backend/shared/helpers/helpresFunc.sol\":529:546  return(whiteList) */\n      dup1\n      sload\n      dup1\n      0x20\n      mul\n      0x20\n      add\n      mload(0x40)\n      swap1\n      dup2\n      add\n      0x40\n      mstore\n      dup1\n      swap3\n      swap2\n      swap1\n      dup2\n      dup2\n      mstore\n      0x20\n      add\n      dup3\n      dup1\n      sload\n      dup1\n      iszero\n      tag_91\n      jumpi\n      0x20\n      mul\n      dup3\n      add\n      swap2\n      swap1\n      0x00\n      mstore\n      keccak256(0x00, 0x20)\n      swap1\n    tag_92:\n      dup2\n      0x00\n      swap1\n      sload\n      swap1\n      0x0100\n      exp\n      swap1\n      div\n      0xffffffffffffffffffffffffffffffffffffffff\n      and\n      0xffffffffffffffffffffffffffffffffffffffff\n      and\n      dup2\n      mstore\n      0x20\n      add\n      swap1\n      0x01\n      add\n      swap1\n      dup1\n      dup4\n      gt\n      tag_92\n      jumpi\n    tag_91:\n      pop\n      pop\n      pop\n      pop\n      pop\n      swap1\n      pop\n        /* \"Documents/GitHub/contract-token-cryptoMonster/backend/shared/helpers/helpresFunc.sol\":426:554  function get_whiteList() public onlyOwnerAndPrivateProvider view returns (address[] memory) {\r... */\n      swap1\n      jump\t// out\n        /* \"#utility.yul\":7:419   */\n    tag_94:\n        /* \"#utility.yul\":85:90   */\n      0x00\n        /* \"#utility.yul\":110:176   */\n      tag_96\n        /* \"#utility.yul\":126:175   */\n      tag_97\n        /* \"#utility.yul\":168:174   */\n      dup5\n        /* \"#utility.yul\":126:175   */\n      tag_98\n      jump\t// in\n    tag_97:\n        /* \"#utility.yul\":110:176   */\n      tag_99\n      jump\t// in\n    tag_96:\n        /* \"#utility.yul\":101:176   */\n      swap1\n      pop\n        /* \"#utility.yul\":199:205   */\n      dup3\n        /* \"#utility.yul\":192:197   */\n      dup2\n        /* \"#utility.yul\":185:206   */\n      mstore\n        /* \"#utility.yul\":237:241   */\n      0x20\n        /* \"#utility.yul\":230:235   */\n      dup2\n        /* \"#utility.yul\":226:242   */\n      add\n        /* \"#utility.yul\":275:278   */\n      dup5\n        /* \"#utility.yul\":266:272   */\n      dup5\n        /* \"#utility.yul\":261:264   */\n      dup5\n        /* \"#utility.yul\":257:273   */\n      add\n        /* \"#utility.yul\":254:279   */\n      gt\n        /* \"#utility.yul\":251:363   */\n      iszero\n      tag_100\n      jumpi\n        /* \"#utility.yul\":282:361   */\n      tag_101\n      tag_102\n      jump\t// in\n    tag_101:\n        /* \"#utility.yul\":251:363   */\n    tag_100:\n        /* \"#utility.yul\":372:413   */\n      tag_103\n        /* \"#utility.yul\":406:412   */\n      dup5\n        /* \"#utility.yul\":401:404   */\n      dup3\n        /* \"#utility.yul\":396:399   */\n      dup6\n        /* \"#utility.yul\":372:413   */\n      tag_104\n      jump\t// in\n    tag_103:\n        /* \"#utility.yul\":91:419   */\n      pop\n        /* \"#utility.yul\":7:419   */\n      swap4\n      swap3\n      pop\n      pop\n      pop\n      jump\t// out\n        /* \"#utility.yul\":425:564   */\n    tag_105:\n        /* \"#utility.yul\":471:476   */\n      0x00\n        /* \"#utility.yul\":509:515   */\n      dup2\n        /* \"#utility.yul\":496:516   */\n      calldataload\n        /* \"#utility.yul\":487:516   */\n      swap1\n      pop\n        /* \"#utility.yul\":525:558   */\n      tag_107\n        /* \"#utility.yul\":552:557   */\n      dup2\n        /* \"#utility.yul\":525:558   */\n      tag_108\n      jump\t// in\n    tag_107:\n        /* \"#utility.yul\":425:564   */\n      swap3\n      swap2\n      pop\n      pop\n      jump\t// out\n        /* \"#utility.yul\":584:924   */\n    tag_109:\n        /* \"#utility.yul\":640:645   */\n      0x00\n        /* \"#utility.yul\":689:692   */\n      dup3\n        /* \"#utility.yul\":682:686   */\n      0x1f\n        /* \"#utility.yul\":674:680   */\n      dup4\n        /* \"#utility.yul\":670:687   */\n      add\n        /* \"#utility.yul\":666:693   */\n      slt\n        /* \"#utility.yul\":656:778   */\n      tag_111\n      jumpi\n        /* \"#utility.yul\":697:776   */\n      tag_112\n      tag_113\n      jump\t// in\n    tag_112:\n        /* \"#utility.yul\":656:778   */\n    tag_111:\n        /* \"#utility.yul\":814:820   */\n      dup2\n        /* \"#utility.yul\":801:821   */\n      calldataload\n        /* \"#utility.yul\":839:918   */\n      tag_114\n        /* \"#utility.yul\":914:917   */\n      dup5\n        /* \"#utility.yul\":906:912   */\n      dup3\n        /* \"#utility.yul\":899:903   */\n      0x20\n        /* \"#utility.yul\":891:897   */\n      dup7\n        /* \"#utility.yul\":887:904   */\n      add\n        /* \"#utility.yul\":839:918   */\n      tag_94\n      jump\t// in\n    tag_114:\n        /* \"#utility.yul\":830:918   */\n      swap2\n      pop\n        /* \"#utility.yul\":646:924   */\n      pop\n        /* \"#utility.yul\":584:924   */\n      swap3\n      swap2\n      pop\n      pop\n      jump\t// out\n        /* \"#utility.yul\":930:1069   */\n    tag_115:\n        /* \"#utility.yul\":976:981   */\n      0x00\n        /* \"#utility.yul\":1014:1020   */\n      dup2\n        /* \"#utility.yul\":1001:1021   */\n      calldataload\n        /* \"#utility.yul\":992:1021   */\n      swap1\n      pop\n        /* \"#utility.yul\":1030:1063   */\n      tag_117\n        /* \"#utility.yul\":1057:1062   */\n      dup2\n        /* \"#utility.yul\":1030:1063   */\n      tag_118\n      jump\t// in\n    tag_117:\n        /* \"#utility.yul\":930:1069   */\n      swap3\n      swap2\n      pop\n      pop\n      jump\t// out\n        /* \"#utility.yul\":1075:1404   */\n    tag_19:\n        /* \"#utility.yul\":1134:1140   */\n      0x00\n        /* \"#utility.yul\":1183:1185   */\n      0x20\n        /* \"#utility.yul\":1171:1180   */\n      dup3\n        /* \"#utility.yul\":1162:1169   */\n      dup5\n        /* \"#utility.yul\":1158:1181   */\n      sub\n        /* \"#utility.yul\":1154:1186   */\n      slt\n        /* \"#utility.yul\":1151:1270   */\n      iszero\n      tag_120\n      jumpi\n        /* \"#utility.yul\":1189:1268   */\n      tag_121\n      tag_122\n      jump\t// in\n    tag_121:\n        /* \"#utility.yul\":1151:1270   */\n    tag_120:\n        /* \"#utility.yul\":1309:1310   */\n      0x00\n        /* \"#utility.yul\":1334:1387   */\n      tag_123\n        /* \"#utility.yul\":1379:1386   */\n      dup5\n        /* \"#utility.yul\":1370:1376   */\n      dup3\n        /* \"#utility.yul\":1359:1368   */\n      dup6\n        /* \"#utility.yul\":1355:1377   */\n      add\n        /* \"#utility.yul\":1334:1387   */\n      tag_105\n      jump\t// in\n    tag_123:\n        /* \"#utility.yul\":1324:1387   */\n      swap2\n      pop\n        /* \"#utility.yul\":1280:1397   */\n      pop\n        /* \"#utility.yul\":1075:1404   */\n      swap3\n      swap2\n      pop\n      pop\n      jump\t// out\n        /* \"#utility.yul\":1410:1919   */\n    tag_36:\n        /* \"#utility.yul\":1479:1485   */\n      0x00\n        /* \"#utility.yul\":1528:1530   */\n      0x20\n        /* \"#utility.yul\":1516:1525   */\n      dup3\n        /* \"#utility.yul\":1507:1514   */\n      dup5\n        /* \"#utility.yul\":1503:1526   */\n      sub\n        /* \"#utility.yul\":1499:1531   */\n      slt\n        /* \"#utility.yul\":1496:1615   */\n      iszero\n      tag_125\n      jumpi\n        /* \"#utility.yul\":1534:1613   */\n      tag_126\n      tag_122\n      jump\t// in\n    tag_126:\n        /* \"#utility.yul\":1496:1615   */\n    tag_125:\n        /* \"#utility.yul\":1682:1683   */\n      0x00\n        /* \"#utility.yul\":1671:1680   */\n      dup3\n        /* \"#utility.yul\":1667:1684   */\n      add\n        /* \"#utility.yul\":1654:1685   */\n      calldataload\n        /* \"#utility.yul\":1712:1730   */\n      0xffffffffffffffff\n        /* \"#utility.yul\":1704:1710   */\n      dup2\n        /* \"#utility.yul\":1701:1731   */\n      gt\n        /* \"#utility.yul\":1698:1815   */\n      iszero\n      tag_127\n      jumpi\n        /* \"#utility.yul\":1734:1813   */\n      tag_128\n      tag_129\n      jump\t// in\n    tag_128:\n        /* \"#utility.yul\":1698:1815   */\n    tag_127:\n        /* \"#utility.yul\":1839:1902   */\n      tag_130\n        /* \"#utility.yul\":1894:1901   */\n      dup5\n        /* \"#utility.yul\":1885:1891   */\n      dup3\n        /* \"#utility.yul\":1874:1883   */\n      dup6\n        /* \"#utility.yul\":1870:1892   */\n      add\n        /* \"#utility.yul\":1839:1902   */\n      tag_109\n      jump\t// in\n    tag_130:\n        /* \"#utility.yul\":1829:1902   */\n      swap2\n      pop\n        /* \"#utility.yul\":1625:1912   */\n      pop\n        /* \"#utility.yul\":1410:1919   */\n      swap3\n      swap2\n      pop\n      pop\n      jump\t// out\n        /* \"#utility.yul\":1925:2254   */\n    tag_24:\n        /* \"#utility.yul\":1984:1990   */\n      0x00\n        /* \"#utility.yul\":2033:2035   */\n      0x20\n        /* \"#utility.yul\":2021:2030   */\n      dup3\n        /* \"#utility.yul\":2012:2019   */\n      dup5\n        /* \"#utility.yul\":2008:2031   */\n      sub\n        /* \"#utility.yul\":2004:2036   */\n      slt\n        /* \"#utility.yul\":2001:2120   */\n      iszero\n      tag_132\n      jumpi\n        /* \"#utility.yul\":2039:2118   */\n      tag_133\n      tag_122\n      jump\t// in\n    tag_133:\n        /* \"#utility.yul\":2001:2120   */\n    tag_132:\n        /* \"#utility.yul\":2159:2160   */\n      0x00\n        /* \"#utility.yul\":2184:2237   */\n      tag_134\n        /* \"#utility.yul\":2229:2236   */\n      dup5\n        /* \"#utility.yul\":2220:2226   */\n      dup3\n        /* \"#utility.yul\":2209:2218   */\n      dup6\n        /* \"#utility.yul\":2205:2227   */\n      add\n        /* \"#utility.yul\":2184:2237   */\n      tag_115\n      jump\t// in\n    tag_134:\n        /* \"#utility.yul\":2174:2237   */\n      swap2\n      pop\n        /* \"#utility.yul\":2130:2247   */\n      pop\n        /* \"#utility.yul\":1925:2254   */\n      swap3\n      swap2\n      pop\n      pop\n      jump\t// out\n        /* \"#utility.yul\":2260:2439   */\n    tag_135:\n        /* \"#utility.yul\":2329:2339   */\n      0x00\n        /* \"#utility.yul\":2350:2396   */\n      tag_137\n        /* \"#utility.yul\":2392:2395   */\n      dup4\n        /* \"#utility.yul\":2384:2390   */\n      dup4\n        /* \"#utility.yul\":2350:2396   */\n      tag_138\n      jump\t// in\n    tag_137:\n        /* \"#utility.yul\":2428:2432   */\n      0x20\n        /* \"#utility.yul\":2423:2426   */\n      dup4\n        /* \"#utility.yul\":2419:2433   */\n      add\n        /* \"#utility.yul\":2405:2433   */\n      swap1\n      pop\n        /* \"#utility.yul\":2260:2439   */\n      swap3\n      swap2\n      pop\n      pop\n      jump\t// out\n        /* \"#utility.yul\":2445:2553   */\n    tag_138:\n        /* \"#utility.yul\":2522:2546   */\n      tag_140\n        /* \"#utility.yul\":2540:2545   */\n      dup2\n        /* \"#utility.yul\":2522:2546   */\n      tag_141\n      jump\t// in\n    tag_140:\n        /* \"#utility.yul\":2517:2520   */\n      dup3\n        /* \"#utility.yul\":2510:2547   */\n      mstore\n        /* \"#utility.yul\":2445:2553   */\n      pop\n      pop\n      jump\t// out\n        /* \"#utility.yul\":2589:3321   */\n    tag_142:\n        /* \"#utility.yul\":2708:2711   */\n      0x00\n        /* \"#utility.yul\":2737:2791   */\n      tag_144\n        /* \"#utility.yul\":2785:2790   */\n      dup3\n        /* \"#utility.yul\":2737:2791   */\n      tag_145\n      jump\t// in\n    tag_144:\n        /* \"#utility.yul\":2807:2893   */\n      tag_146\n        /* \"#utility.yul\":2886:2892   */\n      dup2\n        /* \"#utility.yul\":2881:2884   */\n      dup6\n        /* \"#utility.yul\":2807:2893   */\n      tag_147\n      jump\t// in\n    tag_146:\n        /* \"#utility.yul\":2800:2893   */\n      swap4\n      pop\n        /* \"#utility.yul\":2917:2973   */\n      tag_148\n        /* \"#utility.yul\":2967:2972   */\n      dup4\n        /* \"#utility.yul\":2917:2973   */\n      tag_149\n      jump\t// in\n    tag_148:\n        /* \"#utility.yul\":2996:3003   */\n      dup1\n        /* \"#utility.yul\":3027:3028   */\n      0x00\n        /* \"#utility.yul\":3012:3296   */\n    tag_150:\n        /* \"#utility.yul\":3037:3043   */\n      dup4\n        /* \"#utility.yul\":3034:3035   */\n      dup2\n        /* \"#utility.yul\":3031:3044   */\n      lt\n        /* \"#utility.yul\":3012:3296   */\n      iszero\n      tag_152\n      jumpi\n        /* \"#utility.yul\":3113:3119   */\n      dup2\n        /* \"#utility.yul\":3107:3120   */\n      mload\n        /* \"#utility.yul\":3140:3203   */\n      tag_153\n        /* \"#utility.yul\":3199:3202   */\n      dup9\n        /* \"#utility.yul\":3184:3197   */\n      dup3\n        /* \"#utility.yul\":3140:3203   */\n      tag_135\n      jump\t// in\n    tag_153:\n        /* \"#utility.yul\":3133:3203   */\n      swap8\n      pop\n        /* \"#utility.yul\":3226:3286   */\n      tag_154\n        /* \"#utility.yul\":3279:3285   */\n      dup4\n        /* \"#utility.yul\":3226:3286   */\n      tag_155\n      jump\t// in\n    tag_154:\n        /* \"#utility.yul\":3216:3286   */\n      swap3\n      pop\n        /* \"#utility.yul\":3072:3296   */\n      pop\n        /* \"#utility.yul\":3059:3060   */\n      0x01\n        /* \"#utility.yul\":3056:3057   */\n      dup2\n        /* \"#utility.yul\":3052:3061   */\n      add\n        /* \"#utility.yul\":3047:3061   */\n      swap1\n      pop\n        /* \"#utility.yul\":3012:3296   */\n      jump(tag_150)\n    tag_152:\n        /* \"#utility.yul\":3016:3030   */\n      pop\n        /* \"#utility.yul\":3312:3315   */\n      dup6\n        /* \"#utility.yul\":3305:3315   */\n      swap4\n      pop\n        /* \"#utility.yul\":2713:3321   */\n      pop\n      pop\n      pop\n        /* \"#utility.yul\":2589:3321   */\n      swap3\n      swap2\n      pop\n      pop\n      jump\t// out\n        /* \"#utility.yul\":3327:3445   */\n    tag_156:\n        /* \"#utility.yul\":3414:3438   */\n      tag_158\n        /* \"#utility.yul\":3432:3437   */\n      dup2\n        /* \"#utility.yul\":3414:3438   */\n      tag_159\n      jump\t// in\n    tag_158:\n        /* \"#utility.yul\":3409:3412   */\n      dup3\n        /* \"#utility.yul\":3402:3439   */\n      mstore\n        /* \"#utility.yul\":3327:3445   */\n      pop\n      pop\n      jump\t// out\n        /* \"#utility.yul\":3451:3828   */\n    tag_160:\n        /* \"#utility.yul\":3557:3560   */\n      0x00\n        /* \"#utility.yul\":3585:3624   */\n      tag_162\n        /* \"#utility.yul\":3618:3623   */\n      dup3\n        /* \"#utility.yul\":3585:3624   */\n      tag_163\n      jump\t// in\n    tag_162:\n        /* \"#utility.yul\":3640:3729   */\n      tag_164\n        /* \"#utility.yul\":3722:3728   */\n      dup2\n        /* \"#utility.yul\":3717:3720   */\n      dup6\n        /* \"#utility.yul\":3640:3729   */\n      tag_165\n      jump\t// in\n    tag_164:\n        /* \"#utility.yul\":3633:3729   */\n      swap4\n      pop\n        /* \"#utility.yul\":3738:3790   */\n      tag_166\n        /* \"#utility.yul\":3783:3789   */\n      dup2\n        /* \"#utility.yul\":3778:3781   */\n      dup6\n        /* \"#utility.yul\":3771:3775   */\n      0x20\n        /* \"#utility.yul\":3764:3769   */\n      dup7\n        /* \"#utility.yul\":3760:3776   */\n      add\n        /* \"#utility.yul\":3738:3790   */\n      tag_167\n      jump\t// in\n    tag_166:\n        /* \"#utility.yul\":3815:3821   */\n      dup1\n        /* \"#utility.yul\":3810:3813   */\n      dup5\n        /* \"#utility.yul\":3806:3822   */\n      add\n        /* \"#utility.yul\":3799:3822   */\n      swap2\n      pop\n        /* \"#utility.yul\":3561:3828   */\n      pop\n        /* \"#utility.yul\":3451:3828   */\n      swap3\n      swap2\n      pop\n      pop\n      jump\t// out\n        /* \"#utility.yul\":3834:4200   */\n    tag_168:\n        /* \"#utility.yul\":3976:3979   */\n      0x00\n        /* \"#utility.yul\":3997:4064   */\n      tag_170\n        /* \"#utility.yul\":4061:4063   */\n      0x18\n        /* \"#utility.yul\":4056:4059   */\n      dup4\n        /* \"#utility.yul\":3997:4064   */\n      tag_171\n      jump\t// in\n    tag_170:\n        /* \"#utility.yul\":3990:4064   */\n      swap2\n      pop\n        /* \"#utility.yul\":4073:4166   */\n      tag_172\n        /* \"#utility.yul\":4162:4165   */\n      dup3\n        /* \"#utility.yul\":4073:4166   */\n      tag_173\n      jump\t// in\n    tag_172:\n        /* \"#utility.yul\":4191:4193   */\n      0x20\n        /* \"#utility.yul\":4186:4189   */\n      dup3\n        /* \"#utility.yul\":4182:4194   */\n      add\n        /* \"#utility.yul\":4175:4194   */\n      swap1\n      pop\n        /* \"#utility.yul\":3834:4200   */\n      swap2\n      swap1\n      pop\n      jump\t// out\n        /* \"#utility.yul\":4206:4572   */\n    tag_174:\n        /* \"#utility.yul\":4348:4351   */\n      0x00\n        /* \"#utility.yul\":4369:4436   */\n      tag_176\n        /* \"#utility.yul\":4433:4435   */\n      0x29\n        /* \"#utility.yul\":4428:4431   */\n      dup4\n        /* \"#utility.yul\":4369:4436   */\n      tag_171\n      jump\t// in\n    tag_176:\n        /* \"#utility.yul\":4362:4436   */\n      swap2\n      pop\n        /* \"#utility.yul\":4445:4538   */\n      tag_177\n        /* \"#utility.yul\":4534:4537   */\n      dup3\n        /* \"#utility.yul\":4445:4538   */\n      tag_178\n      jump\t// in\n    tag_177:\n        /* \"#utility.yul\":4563:4565   */\n      0x40\n        /* \"#utility.yul\":4558:4561   */\n      dup3\n        /* \"#utility.yul\":4554:4566   */\n      add\n        /* \"#utility.yul\":4547:4566   */\n      swap1\n      pop\n        /* \"#utility.yul\":4206:4572   */\n      swap2\n      swap1\n      pop\n      jump\t// out\n        /* \"#utility.yul\":4578:4944   */\n    tag_179:\n        /* \"#utility.yul\":4720:4723   */\n      0x00\n        /* \"#utility.yul\":4741:4808   */\n      tag_181\n        /* \"#utility.yul\":4805:4807   */\n      0x0e\n        /* \"#utility.yul\":4800:4803   */\n      dup4\n        /* \"#utility.yul\":4741:4808   */\n      tag_171\n      jump\t// in\n    tag_181:\n        /* \"#utility.yul\":4734:4808   */\n      swap2\n      pop\n        /* \"#utility.yul\":4817:4910   */\n      tag_182\n        /* \"#utility.yul\":4906:4909   */\n      dup3\n        /* \"#utility.yul\":4817:4910   */\n      tag_183\n      jump\t// in\n    tag_182:\n        /* \"#utility.yul\":4935:4937   */\n      0x20\n        /* \"#utility.yul\":4930:4933   */\n      dup3\n        /* \"#utility.yul\":4926:4938   */\n      add\n        /* \"#utility.yul\":4919:4938   */\n      swap1\n      pop\n        /* \"#utility.yul\":4578:4944   */\n      swap2\n      swap1\n      pop\n      jump\t// out\n        /* \"#utility.yul\":4950:5068   */\n    tag_184:\n        /* \"#utility.yul\":5037:5061   */\n      tag_186\n        /* \"#utility.yul\":5055:5060   */\n      dup2\n        /* \"#utility.yul\":5037:5061   */\n      tag_187\n      jump\t// in\n    tag_186:\n        /* \"#utility.yul\":5032:5035   */\n      dup3\n        /* \"#utility.yul\":5025:5062   */\n      mstore\n        /* \"#utility.yul\":4950:5068   */\n      pop\n      pop\n      jump\t// out\n        /* \"#utility.yul\":5074:5349   */\n    tag_75:\n        /* \"#utility.yul\":5206:5209   */\n      0x00\n        /* \"#utility.yul\":5228:5323   */\n      tag_189\n        /* \"#utility.yul\":5319:5322   */\n      dup3\n        /* \"#utility.yul\":5310:5316   */\n      dup5\n        /* \"#utility.yul\":5228:5323   */\n      tag_160\n      jump\t// in\n    tag_189:\n        /* \"#utility.yul\":5221:5323   */\n      swap2\n      pop\n        /* \"#utility.yul\":5340:5343   */\n      dup2\n        /* \"#utility.yul\":5333:5343   */\n      swap1\n      pop\n        /* \"#utility.yul\":5074:5349   */\n      swap3\n      swap2\n      pop\n      pop\n      jump\t// out\n        /* \"#utility.yul\":5355:5728   */\n    tag_33:\n        /* \"#utility.yul\":5498:5502   */\n      0x00\n        /* \"#utility.yul\":5536:5538   */\n      0x20\n        /* \"#utility.yul\":5525:5534   */\n      dup3\n        /* \"#utility.yul\":5521:5539   */\n      add\n        /* \"#utility.yul\":5513:5539   */\n      swap1\n      pop\n        /* \"#utility.yul\":5585:5594   */\n      dup2\n        /* \"#utility.yul\":5579:5583   */\n      dup2\n        /* \"#utility.yul\":5575:5595   */\n      sub\n        /* \"#utility.yul\":5571:5572   */\n      0x00\n        /* \"#utility.yul\":5560:5569   */\n      dup4\n        /* \"#utility.yul\":5556:5573   */\n      add\n        /* \"#utility.yul\":5549:5596   */\n      mstore\n        /* \"#utility.yul\":5613:5721   */\n      tag_191\n        /* \"#utility.yul\":5716:5720   */\n      dup2\n        /* \"#utility.yul\":5707:5713   */\n      dup5\n        /* \"#utility.yul\":5613:5721   */\n      tag_142\n      jump\t// in\n    tag_191:\n        /* \"#utility.yul\":5605:5721   */\n      swap1\n      pop\n        /* \"#utility.yul\":5355:5728   */\n      swap3\n      swap2\n      pop\n      pop\n      jump\t// out\n        /* \"#utility.yul\":5734:5956   */\n    tag_39:\n        /* \"#utility.yul\":5827:5831   */\n      0x00\n        /* \"#utility.yul\":5865:5867   */\n      0x20\n        /* \"#utility.yul\":5854:5863   */\n      dup3\n        /* \"#utility.yul\":5850:5868   */\n      add\n        /* \"#utility.yul\":5842:5868   */\n      swap1\n      pop\n        /* \"#utility.yul\":5878:5949   */\n      tag_193\n        /* \"#utility.yul\":5946:5947   */\n      0x00\n        /* \"#utility.yul\":5935:5944   */\n      dup4\n        /* \"#utility.yul\":5931:5948   */\n      add\n        /* \"#utility.yul\":5922:5928   */\n      dup5\n        /* \"#utility.yul\":5878:5949   */\n      tag_156\n      jump\t// in\n    tag_193:\n        /* \"#utility.yul\":5734:5956   */\n      swap3\n      swap2\n      pop\n      pop\n      jump\t// out\n        /* \"#utility.yul\":5962:6381   */\n    tag_59:\n        /* \"#utility.yul\":6128:6132   */\n      0x00\n        /* \"#utility.yul\":6166:6168   */\n      0x20\n        /* \"#utility.yul\":6155:6164   */\n      dup3\n        /* \"#utility.yul\":6151:6169   */\n      add\n        /* \"#utility.yul\":6143:6169   */\n      swap1\n      pop\n        /* \"#utility.yul\":6215:6224   */\n      dup2\n        /* \"#utility.yul\":6209:6213   */\n      dup2\n        /* \"#utility.yul\":6205:6225   */\n      sub\n        /* \"#utility.yul\":6201:6202   */\n      0x00\n        /* \"#utility.yul\":6190:6199   */\n      dup4\n        /* \"#utility.yul\":6186:6203   */\n      add\n        /* \"#utility.yul\":6179:6226   */\n      mstore\n        /* \"#utility.yul\":6243:6374   */\n      tag_195\n        /* \"#utility.yul\":6369:6373   */\n      dup2\n        /* \"#utility.yul\":6243:6374   */\n      tag_168\n      jump\t// in\n    tag_195:\n        /* \"#utility.yul\":6235:6374   */\n      swap1\n      pop\n        /* \"#utility.yul\":5962:6381   */\n      swap2\n      swap1\n      pop\n      jump\t// out\n        /* \"#utility.yul\":6387:6806   */\n    tag_89:\n        /* \"#utility.yul\":6553:6557   */\n      0x00\n        /* \"#utility.yul\":6591:6593   */\n      0x20\n        /* \"#utility.yul\":6580:6589   */\n      dup3\n        /* \"#utility.yul\":6576:6594   */\n      add\n        /* \"#utility.yul\":6568:6594   */\n      swap1\n      pop\n        /* \"#utility.yul\":6640:6649   */\n      dup2\n        /* \"#utility.yul\":6634:6638   */\n      dup2\n        /* \"#utility.yul\":6630:6650   */\n      sub\n        /* \"#utility.yul\":6626:6627   */\n      0x00\n        /* \"#utility.yul\":6615:6624   */\n      dup4\n        /* \"#utility.yul\":6611:6628   */\n      add\n        /* \"#utility.yul\":6604:6651   */\n      mstore\n        /* \"#utility.yul\":6668:6799   */\n      tag_197\n        /* \"#utility.yul\":6794:6798   */\n      dup2\n        /* \"#utility.yul\":6668:6799   */\n      tag_174\n      jump\t// in\n    tag_197:\n        /* \"#utility.yul\":6660:6799   */\n      swap1\n      pop\n        /* \"#utility.yul\":6387:6806   */\n      swap2\n      swap1\n      pop\n      jump\t// out\n        /* \"#utility.yul\":6812:7231   */\n    tag_69:\n        /* \"#utility.yul\":6978:6982   */\n      0x00\n        /* \"#utility.yul\":7016:7018   */\n      0x20\n        /* \"#utility.yul\":7005:7014   */\n      dup3\n        /* \"#utility.yul\":7001:7019   */\n      add\n        /* \"#utility.yul\":6993:7019   */\n      swap1\n      pop\n        /* \"#utility.yul\":7065:7074   */\n      dup2\n        /* \"#utility.yul\":7059:7063   */\n      dup2\n        /* \"#utility.yul\":7055:7075   */\n      sub\n        /* \"#utility.yul\":7051:7052   */\n      0x00\n        /* \"#utility.yul\":7040:7049   */\n      dup4\n        /* \"#utility.yul\":7036:7053   */\n      add\n        /* \"#utility.yul\":7029:7076   */\n      mstore\n        /* \"#utility.yul\":7093:7224   */\n      tag_199\n        /* \"#utility.yul\":7219:7223   */\n      dup2\n        /* \"#utility.yul\":7093:7224   */\n      tag_179\n      jump\t// in\n    tag_199:\n        /* \"#utility.yul\":7085:7224   */\n      swap1\n      pop\n        /* \"#utility.yul\":6812:7231   */\n      swap2\n      swap1\n      pop\n      jump\t// out\n        /* \"#utility.yul\":7237:7459   */\n    tag_16:\n        /* \"#utility.yul\":7330:7334   */\n      0x00\n        /* \"#utility.yul\":7368:7370   */\n      0x20\n        /* \"#utility.yul\":7357:7366   */\n      dup3\n        /* \"#utility.yul\":7353:7371   */\n      add\n        /* \"#utility.yul\":7345:7371   */\n      swap1\n      pop\n        /* \"#utility.yul\":7381:7452   */\n      tag_201\n        /* \"#utility.yul\":7449:7450   */\n      0x00\n        /* \"#utility.yul\":7438:7447   */\n      dup4\n        /* \"#utility.yul\":7434:7451   */\n      add\n        /* \"#utility.yul\":7425:7431   */\n      dup5\n        /* \"#utility.yul\":7381:7452   */\n      tag_184\n      jump\t// in\n    tag_201:\n        /* \"#utility.yul\":7237:7459   */\n      swap3\n      swap2\n      pop\n      pop\n      jump\t// out\n        /* \"#utility.yul\":7465:7594   */\n    tag_99:\n        /* \"#utility.yul\":7499:7505   */\n      0x00\n        /* \"#utility.yul\":7526:7546   */\n      tag_203\n      tag_204\n      jump\t// in\n    tag_203:\n        /* \"#utility.yul\":7516:7546   */\n      swap1\n      pop\n        /* \"#utility.yul\":7555:7588   */\n      tag_205\n        /* \"#utility.yul\":7583:7587   */\n      dup3\n        /* \"#utility.yul\":7575:7581   */\n      dup3\n        /* \"#utility.yul\":7555:7588   */\n      tag_206\n      jump\t// in\n    tag_205:\n        /* \"#utility.yul\":7465:7594   */\n      swap2\n      swap1\n      pop\n      jump\t// out\n        /* \"#utility.yul\":7600:7675   */\n    tag_204:\n        /* \"#utility.yul\":7633:7639   */\n      0x00\n        /* \"#utility.yul\":7666:7668   */\n      0x40\n        /* \"#utility.yul\":7660:7669   */\n      mload\n        /* \"#utility.yul\":7650:7669   */\n      swap1\n      pop\n        /* \"#utility.yul\":7600:7675   */\n      swap1\n      jump\t// out\n        /* \"#utility.yul\":7681:7989   */\n    tag_98:\n        /* \"#utility.yul\":7743:7747   */\n      0x00\n        /* \"#utility.yul\":7833:7851   */\n      0xffffffffffffffff\n        /* \"#utility.yul\":7825:7831   */\n      dup3\n        /* \"#utility.yul\":7822:7852   */\n      gt\n        /* \"#utility.yul\":7819:7875   */\n      iszero\n      tag_209\n      jumpi\n        /* \"#utility.yul\":7855:7873   */\n      tag_210\n      tag_211\n      jump\t// in\n    tag_210:\n        /* \"#utility.yul\":7819:7875   */\n    tag_209:\n        /* \"#utility.yul\":7893:7922   */\n      tag_212\n        /* \"#utility.yul\":7915:7921   */\n      dup3\n        /* \"#utility.yul\":7893:7922   */\n      tag_213\n      jump\t// in\n    tag_212:\n        /* \"#utility.yul\":7885:7922   */\n      swap1\n      pop\n        /* \"#utility.yul\":7977:7981   */\n      0x20\n        /* \"#utility.yul\":7971:7975   */\n      dup2\n        /* \"#utility.yul\":7967:7982   */\n      add\n        /* \"#utility.yul\":7959:7982   */\n      swap1\n      pop\n        /* \"#utility.yul\":7681:7989   */\n      swap2\n      swap1\n      pop\n      jump\t// out\n        /* \"#utility.yul\":7995:8127   */\n    tag_149:\n        /* \"#utility.yul\":8062:8066   */\n      0x00\n        /* \"#utility.yul\":8085:8088   */\n      dup2\n        /* \"#utility.yul\":8077:8088   */\n      swap1\n      pop\n        /* \"#utility.yul\":8115:8119   */\n      0x20\n        /* \"#utility.yul\":8110:8113   */\n      dup3\n        /* \"#utility.yul\":8106:8120   */\n      add\n        /* \"#utility.yul\":8098:8120   */\n      swap1\n      pop\n        /* \"#utility.yul\":7995:8127   */\n      swap2\n      swap1\n      pop\n      jump\t// out\n        /* \"#utility.yul\":8133:8247   */\n    tag_145:\n        /* \"#utility.yul\":8200:8206   */\n      0x00\n        /* \"#utility.yul\":8234:8239   */\n      dup2\n        /* \"#utility.yul\":8228:8240   */\n      mload\n        /* \"#utility.yul\":8218:8240   */\n      swap1\n      pop\n        /* \"#utility.yul\":8133:8247   */\n      swap2\n      swap1\n      pop\n      jump\t// out\n        /* \"#utility.yul\":8253:8352   */\n    tag_163:\n        /* \"#utility.yul\":8305:8311   */\n      0x00\n        /* \"#utility.yul\":8339:8344   */\n      dup2\n        /* \"#utility.yul\":8333:8345   */\n      mload\n        /* \"#utility.yul\":8323:8345   */\n      swap1\n      pop\n        /* \"#utility.yul\":8253:8352   */\n      swap2\n      swap1\n      pop\n      jump\t// out\n        /* \"#utility.yul\":8358:8471   */\n    tag_155:\n        /* \"#utility.yul\":8428:8432   */\n      0x00\n        /* \"#utility.yul\":8460:8464   */\n      0x20\n        /* \"#utility.yul\":8455:8458   */\n      dup3\n        /* \"#utility.yul\":8451:8465   */\n      add\n        /* \"#utility.yul\":8443:8465   */\n      swap1\n      pop\n        /* \"#utility.yul\":8358:8471   */\n      swap2\n      swap1\n      pop\n      jump\t// out\n        /* \"#utility.yul\":8477:8661   */\n    tag_147:\n        /* \"#utility.yul\":8576:8587   */\n      0x00\n        /* \"#utility.yul\":8610:8616   */\n      dup3\n        /* \"#utility.yul\":8605:8608   */\n      dup3\n        /* \"#utility.yul\":8598:8617   */\n      mstore\n        /* \"#utility.yul\":8650:8654   */\n      0x20\n        /* \"#utility.yul\":8645:8648   */\n      dup3\n        /* \"#utility.yul\":8641:8655   */\n      add\n        /* \"#utility.yul\":8626:8655   */\n      swap1\n      pop\n        /* \"#utility.yul\":8477:8661   */\n      swap3\n      swap2\n      pop\n      pop\n      jump\t// out\n        /* \"#utility.yul\":8667:8836   */\n    tag_171:\n        /* \"#utility.yul\":8751:8762   */\n      0x00\n        /* \"#utility.yul\":8785:8791   */\n      dup3\n        /* \"#utility.yul\":8780:8783   */\n      dup3\n        /* \"#utility.yul\":8773:8792   */\n      mstore\n        /* \"#utility.yul\":8825:8829   */\n      0x20\n        /* \"#utility.yul\":8820:8823   */\n      dup3\n        /* \"#utility.yul\":8816:8830   */\n      add\n        /* \"#utility.yul\":8801:8830   */\n      swap1\n      pop\n        /* \"#utility.yul\":8667:8836   */\n      swap3\n      swap2\n      pop\n      pop\n      jump\t// out\n        /* \"#utility.yul\":8842:8990   */\n    tag_165:\n        /* \"#utility.yul\":8944:8955   */\n      0x00\n        /* \"#utility.yul\":8981:8984   */\n      dup2\n        /* \"#utility.yul\":8966:8984   */\n      swap1\n      pop\n        /* \"#utility.yul\":8842:8990   */\n      swap3\n      swap2\n      pop\n      pop\n      jump\t// out\n        /* \"#utility.yul\":8996:9092   */\n    tag_141:\n        /* \"#utility.yul\":9033:9040   */\n      0x00\n        /* \"#utility.yul\":9062:9086   */\n      tag_222\n        /* \"#utility.yul\":9080:9085   */\n      dup3\n        /* \"#utility.yul\":9062:9086   */\n      tag_223\n      jump\t// in\n    tag_222:\n        /* \"#utility.yul\":9051:9086   */\n      swap1\n      pop\n        /* \"#utility.yul\":8996:9092   */\n      swap2\n      swap1\n      pop\n      jump\t// out\n        /* \"#utility.yul\":9098:9175   */\n    tag_159:\n        /* \"#utility.yul\":9135:9142   */\n      0x00\n        /* \"#utility.yul\":9164:9169   */\n      dup2\n        /* \"#utility.yul\":9153:9169   */\n      swap1\n      pop\n        /* \"#utility.yul\":9098:9175   */\n      swap2\n      swap1\n      pop\n      jump\t// out\n        /* \"#utility.yul\":9181:9307   */\n    tag_223:\n        /* \"#utility.yul\":9218:9225   */\n      0x00\n        /* \"#utility.yul\":9258:9300   */\n      0xffffffffffffffffffffffffffffffffffffffff\n        /* \"#utility.yul\":9251:9256   */\n      dup3\n        /* \"#utility.yul\":9247:9301   */\n      and\n        /* \"#utility.yul\":9236:9301   */\n      swap1\n      pop\n        /* \"#utility.yul\":9181:9307   */\n      swap2\n      swap1\n      pop\n      jump\t// out\n        /* \"#utility.yul\":9313:9390   */\n    tag_187:\n        /* \"#utility.yul\":9350:9357   */\n      0x00\n        /* \"#utility.yul\":9379:9384   */\n      dup2\n        /* \"#utility.yul\":9368:9384   */\n      swap1\n      pop\n        /* \"#utility.yul\":9313:9390   */\n      swap2\n      swap1\n      pop\n      jump\t// out\n        /* \"#utility.yul\":9396:9550   */\n    tag_104:\n        /* \"#utility.yul\":9480:9486   */\n      dup3\n        /* \"#utility.yul\":9475:9478   */\n      dup2\n        /* \"#utility.yul\":9470:9473   */\n      dup4\n        /* \"#utility.yul\":9457:9487   */\n      calldatacopy\n        /* \"#utility.yul\":9542:9543   */\n      0x00\n        /* \"#utility.yul\":9533:9539   */\n      dup4\n        /* \"#utility.yul\":9528:9531   */\n      dup4\n        /* \"#utility.yul\":9524:9540   */\n      add\n        /* \"#utility.yul\":9517:9544   */\n      mstore\n        /* \"#utility.yul\":9396:9550   */\n      pop\n      pop\n      pop\n      jump\t// out\n        /* \"#utility.yul\":9556:9863   */\n    tag_167:\n        /* \"#utility.yul\":9624:9625   */\n      0x00\n        /* \"#utility.yul\":9634:9747   */\n    tag_229:\n        /* \"#utility.yul\":9648:9654   */\n      dup4\n        /* \"#utility.yul\":9645:9646   */\n      dup2\n        /* \"#utility.yul\":9642:9655   */\n      lt\n        /* \"#utility.yul\":9634:9747   */\n      iszero\n      tag_231\n      jumpi\n        /* \"#utility.yul\":9733:9734   */\n      dup1\n        /* \"#utility.yul\":9728:9731   */\n      dup3\n        /* \"#utility.yul\":9724:9735   */\n      add\n        /* \"#utility.yul\":9718:9736   */\n      mload\n        /* \"#utility.yul\":9714:9715   */\n      dup2\n        /* \"#utility.yul\":9709:9712   */\n      dup5\n        /* \"#utility.yul\":9705:9716   */\n      add\n        /* \"#utility.yul\":9698:9737   */\n      mstore\n        /* \"#utility.yul\":9670:9672   */\n      0x20\n        /* \"#utility.yul\":9667:9668   */\n      dup2\n        /* \"#utility.yul\":9663:9673   */\n      add\n        /* \"#utility.yul\":9658:9673   */\n      swap1\n      pop\n        /* \"#utility.yul\":9634:9747   */\n      jump(tag_229)\n    tag_231:\n        /* \"#utility.yul\":9765:9771   */\n      dup4\n        /* \"#utility.yul\":9762:9763   */\n      dup2\n        /* \"#utility.yul\":9759:9772   */\n      gt\n        /* \"#utility.yul\":9756:9857   */\n      iszero\n      tag_232\n      jumpi\n        /* \"#utility.yul\":9845:9846   */\n      0x00\n        /* \"#utility.yul\":9836:9842   */\n      dup5\n        /* \"#utility.yul\":9831:9834   */\n      dup5\n        /* \"#utility.yul\":9827:9843   */\n      add\n        /* \"#utility.yul\":9820:9847   */\n      mstore\n        /* \"#utility.yul\":9756:9857   */\n    tag_232:\n        /* \"#utility.yul\":9605:9863   */\n      pop\n        /* \"#utility.yul\":9556:9863   */\n      pop\n      pop\n      pop\n      jump\t// out\n        /* \"#utility.yul\":9869:10150   */\n    tag_206:\n        /* \"#utility.yul\":9952:9979   */\n      tag_234\n        /* \"#utility.yul\":9974:9978   */\n      dup3\n        /* \"#utility.yul\":9952:9979   */\n      tag_213\n      jump\t// in\n    tag_234:\n        /* \"#utility.yul\":9944:9950   */\n      dup2\n        /* \"#utility.yul\":9940:9980   */\n      add\n        /* \"#utility.yul\":10082:10088   */\n      dup2\n        /* \"#utility.yul\":10070:10080   */\n      dup2\n        /* \"#utility.yul\":10067:10089   */\n      lt\n        /* \"#utility.yul\":10046:10064   */\n      0xffffffffffffffff\n        /* \"#utility.yul\":10034:10044   */\n      dup3\n        /* \"#utility.yul\":10031:10065   */\n      gt\n        /* \"#utility.yul\":10028:10090   */\n      or\n        /* \"#utility.yul\":10025:10113   */\n      iszero\n      tag_235\n      jumpi\n        /* \"#utility.yul\":10093:10111   */\n      tag_236\n      tag_211\n      jump\t// in\n    tag_236:\n        /* \"#utility.yul\":10025:10113   */\n    tag_235:\n        /* \"#utility.yul\":10133:10143   */\n      dup1\n        /* \"#utility.yul\":10129:10131   */\n      0x40\n        /* \"#utility.yul\":10122:10144   */\n      mstore\n        /* \"#utility.yul\":9912:10150   */\n      pop\n        /* \"#utility.yul\":9869:10150   */\n      pop\n      pop\n      jump\t// out\n        /* \"#utility.yul\":10156:10336   */\n    tag_54:\n        /* \"#utility.yul\":10204:10281   */\n      0x4e487b7100000000000000000000000000000000000000000000000000000000\n        /* \"#utility.yul\":10201:10202   */\n      0x00\n        /* \"#utility.yul\":10194:10282   */\n      mstore\n        /* \"#utility.yul\":10301:10305   */\n      0x21\n        /* \"#utility.yul\":10298:10299   */\n      0x04\n        /* \"#utility.yul\":10291:10306   */\n      mstore\n        /* \"#utility.yul\":10325:10329   */\n      0x24\n        /* \"#utility.yul\":10322:10323   */\n      0x00\n        /* \"#utility.yul\":10315:10330   */\n      revert\n        /* \"#utility.yul\":10342:10522   */\n    tag_211:\n        /* \"#utility.yul\":10390:10467   */\n      0x4e487b7100000000000000000000000000000000000000000000000000000000\n        /* \"#utility.yul\":10387:10388   */\n      0x00\n        /* \"#utility.yul\":10380:10468   */\n      mstore\n        /* \"#utility.yul\":10487:10491   */\n      0x41\n        /* \"#utility.yul\":10484:10485   */\n      0x04\n        /* \"#utility.yul\":10477:10492   */\n      mstore\n        /* \"#utility.yul\":10511:10515   */\n      0x24\n        /* \"#utility.yul\":10508:10509   */\n      0x00\n        /* \"#utility.yul\":10501:10516   */\n      revert\n        /* \"#utility.yul\":10528:10645   */\n    tag_113:\n        /* \"#utility.yul\":10637:10638   */\n      0x00\n        /* \"#utility.yul\":10634:10635   */\n      dup1\n        /* \"#utility.yul\":10627:10639   */\n      revert\n        /* \"#utility.yul\":10651:10768   */\n    tag_102:\n        /* \"#utility.yul\":10760:10761   */\n      0x00\n        /* \"#utility.yul\":10757:10758   */\n      dup1\n        /* \"#utility.yul\":10750:10762   */\n      revert\n        /* \"#utility.yul\":10774:10891   */\n    tag_129:\n        /* \"#utility.yul\":10883:10884   */\n      0x00\n        /* \"#utility.yul\":10880:10881   */\n      dup1\n        /* \"#utility.yul\":10873:10885   */\n      revert\n        /* \"#utility.yul\":10897:11014   */\n    tag_122:\n        /* \"#utility.yul\":11006:11007   */\n      0x00\n        /* \"#utility.yul\":11003:11004   */\n      dup1\n        /* \"#utility.yul\":10996:11008   */\n      revert\n        /* \"#utility.yul\":11020:11122   */\n    tag_213:\n        /* \"#utility.yul\":11061:11067   */\n      0x00\n        /* \"#utility.yul\":11112:11114   */\n      0x1f\n        /* \"#utility.yul\":11108:11115   */\n      not\n        /* \"#utility.yul\":11103:11105   */\n      0x1f\n        /* \"#utility.yul\":11096:11101   */\n      dup4\n        /* \"#utility.yul\":11092:11106   */\n      add\n        /* \"#utility.yul\":11088:11116   */\n      and\n        /* \"#utility.yul\":11078:11116   */\n      swap1\n      pop\n        /* \"#utility.yul\":11020:11122   */\n      swap2\n      swap1\n      pop\n      jump\t// out\n        /* \"#utility.yul\":11128:11302   */\n    tag_173:\n        /* \"#utility.yul\":11268:11294   */\n      0x596f7572206e6f74205075626c69632070726f76696465720000000000000000\n        /* \"#utility.yul\":11264:11265   */\n      0x00\n        /* \"#utility.yul\":11256:11262   */\n      dup3\n        /* \"#utility.yul\":11252:11266   */\n      add\n        /* \"#utility.yul\":11245:11295   */\n      mstore\n        /* \"#utility.yul\":11128:11302   */\n      pop\n      jump\t// out\n        /* \"#utility.yul\":11308:11536   */\n    tag_178:\n        /* \"#utility.yul\":11448:11482   */\n      0x596f7520617265206e6f7420746865206f776e6572206f722070726976617465\n        /* \"#utility.yul\":11444:11445   */\n      0x00\n        /* \"#utility.yul\":11436:11442   */\n      dup3\n        /* \"#utility.yul\":11432:11446   */\n      add\n        /* \"#utility.yul\":11425:11483   */\n      mstore\n        /* \"#utility.yul\":11517:11528   */\n      0x2070726f76696465720000000000000000000000000000000000000000000000\n        /* \"#utility.yul\":11512:11514   */\n      0x20\n        /* \"#utility.yul\":11504:11510   */\n      dup3\n        /* \"#utility.yul\":11500:11515   */\n      add\n        /* \"#utility.yul\":11493:11529   */\n      mstore\n        /* \"#utility.yul\":11308:11536   */\n      pop\n      jump\t// out\n        /* \"#utility.yul\":11542:11706   */\n    tag_183:\n        /* \"#utility.yul\":11682:11698   */\n      0x596f7572206e6f742061646d696e000000000000000000000000000000000000\n        /* \"#utility.yul\":11678:11679   */\n      0x00\n        /* \"#utility.yul\":11670:11676   */\n      dup3\n        /* \"#utility.yul\":11666:11680   */\n      add\n        /* \"#utility.yul\":11659:11699   */\n      mstore\n        /* \"#utility.yul\":11542:11706   */\n      pop\n      jump\t// out\n        /* \"#utility.yul\":11712:11834   */\n    tag_108:\n        /* \"#utility.yul\":11785:11809   */\n      tag_248\n        /* \"#utility.yul\":11803:11808   */\n      dup2\n        /* \"#utility.yul\":11785:11809   */\n      tag_141\n      jump\t// in\n    tag_248:\n        /* \"#utility.yul\":11778:11783   */\n      dup2\n        /* \"#utility.yul\":11775:11810   */\n      eq\n        /* \"#utility.yul\":11765:11828   */\n      tag_249\n      jumpi\n        /* \"#utility.yul\":11824:11825   */\n      0x00\n        /* \"#utility.yul\":11821:11822   */\n      dup1\n        /* \"#utility.yul\":11814:11826   */\n      revert\n        /* \"#utility.yul\":11765:11828   */\n    tag_249:\n        /* \"#utility.yul\":11712:11834   */\n      pop\n      jump\t// out\n        /* \"#utility.yul\":11840:11962   */\n    tag_118:\n        /* \"#utility.yul\":11913:11937   */\n      tag_251\n        /* \"#utility.yul\":11931:11936   */\n      dup2\n        /* \"#utility.yul\":11913:11937   */\n      tag_187\n      jump\t// in\n    tag_251:\n        /* \"#utility.yul\":11906:11911   */\n      dup2\n        /* \"#utility.yul\":11903:11938   */\n      eq\n        /* \"#utility.yul\":11893:11956   */\n      tag_252\n      jumpi\n        /* \"#utility.yul\":11952:11953   */\n      0x00\n        /* \"#utility.yul\":11949:11950   */\n      dup1\n        /* \"#utility.yul\":11942:11954   */\n      revert\n        /* \"#utility.yul\":11893:11956   */\n    tag_252:\n        /* \"#utility.yul\":11840:11962   */\n      pop\n      jump\t// out\n\n    auxdata: 0xa26469706673582212204df44802d6144d986bff868cf8a43709ed92d31777e1988b323ae264fa51313e64736f6c63430008070033\n}\n",
				"bytecode": {
					"linkReferences": {},
					"object": "6080604052632cb41780600255620186a060035534801561001f57600080fd5b50610d0b8061002f6000396000f3fe608060405234801561001057600080fd5b50600436106100935760003560e01c80637f89128f116100665780637f89128f146101325780638e4f8c6b14610150578063948942ad14610180578063b06cdc121461019e578063c10e3911146101ce57610093565b80630761c8b9146100985780632599d6d0146100b657806332cbdd03146100e657806372f0d72b14610102575b600080fd5b6100a06101ec565b6040516100ad91906109f9565b60405180910390f35b6100d060048036038101906100cb9190610765565b6101f2565b6040516100dd91906109f9565b60405180910390f35b61010060048036038101906100fb91906107db565b61023d565b005b61011c60048036038101906101179190610765565b6102fc565b60405161012991906109f9565b60405180910390f35b61013a610347565b604051610147919061095c565b60405180910390f35b61016a60048036038101906101659190610792565b61048a565b604051610177919061097e565b60405180910390f35b6101886104ba565b60405161019591906109f9565b60405180910390f35b6101b860048036038101906101b39190610765565b6104c0565b6040516101c591906109f9565b60405180910390f35b6101d661050b565b6040516101e3919061095c565b60405180910390f35b60025481565b60008060008373ffffffffffffffffffffffffffffffffffffffff1673ffffffffffffffffffffffffffffffffffffffff168152602001908152602001600020600401549050919050565b6001600481111561025157610250610b83565b5b6000803373ffffffffffffffffffffffffffffffffffffffff1673ffffffffffffffffffffffffffffffffffffffff16815260200190815260200160002060000160009054906101000a900460ff1660048111156102b2576102b1610b83565b5b146102f2576040517f08c379a00000000000000000000000000000000000000000000000000000000081526004016102e990610999565b60405180910390fd5b8060028190555050565b60008060008373ffffffffffffffffffffffffffffffffffffffff1673ffffffffffffffffffffffffffffffffffffffff168152602001908152602001600020600601549050919050565b60606000600481111561035d5761035c610b83565b5b6000803373ffffffffffffffffffffffffffffffffffffffff1673ffffffffffffffffffffffffffffffffffffffff16815260200190815260200160002060000160009054906101000a900460ff1660048111156103be576103bd610b83565b5b146103fe576040517f08c379a00000000000000000000000000000000000000000000000000000000081526004016103f5906109d9565b60405180910390fd5b600880548060200260200160405190810160405280929190818152602001828054801561048057602002820191906000526020600020905b8160009054906101000a900473ffffffffffffffffffffffffffffffffffffffff1673ffffffffffffffffffffffffffffffffffffffff1681526020019060010190808311610436575b5050505050905090565b60008160405160200161049d9190610945565b604051602081830303815290604052805190602001209050919050565b60035481565b60008060008373ffffffffffffffffffffffffffffffffffffffff1673ffffffffffffffffffffffffffffffffffffffff168152602001908152602001600020600501549050919050565b60606000600481111561052157610520610b83565b5b6000803373ffffffffffffffffffffffffffffffffffffffff1673ffffffffffffffffffffffffffffffffffffffff16815260200190815260200160002060000160009054906101000a900460ff16600481111561058257610581610b83565b5b148061060057506002600481111561059d5761059c610b83565b5b6000803373ffffffffffffffffffffffffffffffffffffffff1673ffffffffffffffffffffffffffffffffffffffff16815260200190815260200160002060000160009054906101000a900460ff1660048111156105fe576105fd610b83565b5b145b61063f576040517f08c379a0000000000000000000000000000000000000000000000000000000008152600401610636906109b9565b60405180910390fd5b60078054806020026020016040519081016040528092919081815260200182805480156106c157602002820191906000526020600020905b8160009054906101000a900473ffffffffffffffffffffffffffffffffffffffff1673ffffffffffffffffffffffffffffffffffffffff1681526020019060010190808311610677575b5050505050905090565b60006106de6106d984610a39565b610a14565b9050828152602081018484840111156106fa576106f9610be6565b5b610705848285610b10565b509392505050565b60008135905061071c81610ca7565b92915050565b600082601f83011261073757610736610be1565b5b81356107478482602086016106cb565b91505092915050565b60008135905061075f81610cbe565b92915050565b60006020828403121561077b5761077a610bf0565b5b60006107898482850161070d565b91505092915050565b6000602082840312156107a8576107a7610bf0565b5b600082013567ffffffffffffffff8111156107c6576107c5610beb565b5b6107d284828501610722565b91505092915050565b6000602082840312156107f1576107f0610bf0565b5b60006107ff84828501610750565b91505092915050565b60006108148383610820565b60208301905092915050565b61082981610aca565b82525050565b600061083a82610a7a565b6108448185610a9d565b935061084f83610a6a565b8060005b838110156108805781516108678882610808565b975061087283610a90565b925050600181019050610853565b5085935050505092915050565b61089681610adc565b82525050565b60006108a782610a85565b6108b18185610abf565b93506108c1818560208601610b1f565b80840191505092915050565b60006108da601883610aae565b91506108e582610c06565b602082019050919050565b60006108fd602983610aae565b915061090882610c2f565b604082019050919050565b6000610920600e83610aae565b915061092b82610c7e565b602082019050919050565b61093f81610b06565b82525050565b6000610951828461089c565b915081905092915050565b60006020820190508181036000830152610976818461082f565b905092915050565b6000602082019050610993600083018461088d565b92915050565b600060208201905081810360008301526109b2816108cd565b9050919050565b600060208201905081810360008301526109d2816108f0565b9050919050565b600060208201905081810360008301526109f281610913565b9050919050565b6000602082019050610a0e6000830184610936565b92915050565b6000610a1e610a2f565b9050610a2a8282610b52565b919050565b6000604051905090565b600067ffffffffffffffff821115610a5457610a53610bb2565b5b610a5d82610bf5565b9050602081019050919050565b6000819050602082019050919050565b600081519050919050565b600081519050919050565b6000602082019050919050565b600082825260208201905092915050565b600082825260208201905092915050565b600081905092915050565b6000610ad582610ae6565b9050919050565b6000819050919050565b600073ffffffffffffffffffffffffffffffffffffffff82169050919050565b6000819050919050565b82818337600083830152505050565b60005b83811015610b3d578082015181840152602081019050610b22565b83811115610b4c576000848401525b50505050565b610b5b82610bf5565b810181811067ffffffffffffffff82111715610b7a57610b79610bb2565b5b80604052505050565b7f4e487b7100000000000000000000000000000000000000000000000000000000600052602160045260246000fd5b7f4e487b7100000000000000000000000000000000000000000000000000000000600052604160045260246000fd5b600080fd5b600080fd5b600080fd5b600080fd5b6000601f19601f8301169050919050565b7f596f7572206e6f74205075626c69632070726f76696465720000000000000000600082015250565b7f596f7520617265206e6f7420746865206f776e6572206f72207072697661746560008201527f2070726f76696465720000000000000000000000000000000000000000000000602082015250565b7f596f7572206e6f742061646d696e000000000000000000000000000000000000600082015250565b610cb081610aca565b8114610cbb57600080fd5b50565b610cc781610b06565b8114610cd257600080fd5b5056fea26469706673582212204df44802d6144d986bff868cf8a43709ed92d31777e1988b323ae264fa51313e64736f6c63430008070033",
					"opcodes": "PUSH1 0x80 PUSH1 0x40 MSTORE PUSH4 0x2CB41780 PUSH1 0x2 SSTORE PUSH3 0x186A0 PUSH1 0x3 SSTORE CALLVALUE DUP1 ISZERO PUSH2 0x1F JUMPI PUSH1 0x0 DUP1 REVERT JUMPDEST POP PUSH2 0xD0B DUP1 PUSH2 0x2F PUSH1 0x0 CODECOPY PUSH1 0x0 RETURN INVALID PUSH1 0x80 PUSH1 0x40 MSTORE CALLVALUE DUP1 ISZERO PUSH2 0x10 JUMPI PUSH1 0x0 DUP1 REVERT JUMPDEST POP PUSH1 0x4 CALLDATASIZE LT PUSH2 0x93 JUMPI PUSH1 0x0 CALLDATALOAD PUSH1 0xE0 SHR DUP1 PUSH4 0x7F89128F GT PUSH2 0x66 JUMPI DUP1 PUSH4 0x7F89128F EQ PUSH2 0x132 JUMPI DUP1 PUSH4 0x8E4F8C6B EQ PUSH2 0x150 JUMPI DUP1 PUSH4 0x948942AD EQ PUSH2 0x180 JUMPI DUP1 PUSH4 0xB06CDC12 EQ PUSH2 0x19E JUMPI DUP1 PUSH4 0xC10E3911 EQ PUSH2 0x1CE JUMPI PUSH2 0x93 JUMP JUMPDEST DUP1 PUSH4 0x761C8B9 EQ PUSH2 0x98 JUMPI DUP1 PUSH4 0x2599D6D0 EQ PUSH2 0xB6 JUMPI DUP1 PUSH4 0x32CBDD03 EQ PUSH2 0xE6 JUMPI DUP1 PUSH4 0x72F0D72B EQ PUSH2 0x102 JUMPI JUMPDEST PUSH1 0x0 DUP1 REVERT JUMPDEST PUSH2 0xA0 PUSH2 0x1EC JUMP JUMPDEST PUSH1 0x40 MLOAD PUSH2 0xAD SWAP2 SWAP1 PUSH2 0x9F9 JUMP JUMPDEST PUSH1 0x40 MLOAD DUP1 SWAP2 SUB SWAP1 RETURN JUMPDEST PUSH2 0xD0 PUSH1 0x4 DUP1 CALLDATASIZE SUB DUP2 ADD SWAP1 PUSH2 0xCB SWAP2 SWAP1 PUSH2 0x765 JUMP JUMPDEST PUSH2 0x1F2 JUMP JUMPDEST PUSH1 0x40 MLOAD PUSH2 0xDD SWAP2 SWAP1 PUSH2 0x9F9 JUMP JUMPDEST PUSH1 0x40 MLOAD DUP1 SWAP2 SUB SWAP1 RETURN JUMPDEST PUSH2 0x100 PUSH1 0x4 DUP1 CALLDATASIZE SUB DUP2 ADD SWAP1 PUSH2 0xFB SWAP2 SWAP1 PUSH2 0x7DB JUMP JUMPDEST PUSH2 0x23D JUMP JUMPDEST STOP JUMPDEST PUSH2 0x11C PUSH1 0x4 DUP1 CALLDATASIZE SUB DUP2 ADD SWAP1 PUSH2 0x117 SWAP2 SWAP1 PUSH2 0x765 JUMP JUMPDEST PUSH2 0x2FC JUMP JUMPDEST PUSH1 0x40 MLOAD PUSH2 0x129 SWAP2 SWAP1 PUSH2 0x9F9 JUMP JUMPDEST PUSH1 0x40 MLOAD DUP1 SWAP2 SUB SWAP1 RETURN JUMPDEST PUSH2 0x13A PUSH2 0x347 JUMP JUMPDEST PUSH1 0x40 MLOAD PUSH2 0x147 SWAP2 SWAP1 PUSH2 0x95C JUMP JUMPDEST PUSH1 0x40 MLOAD DUP1 SWAP2 SUB SWAP1 RETURN JUMPDEST PUSH2 0x16A PUSH1 0x4 DUP1 CALLDATASIZE SUB DUP2 ADD SWAP1 PUSH2 0x165 SWAP2 SWAP1 PUSH2 0x792 JUMP JUMPDEST PUSH2 0x48A JUMP JUMPDEST PUSH1 0x40 MLOAD PUSH2 0x177 SWAP2 SWAP1 PUSH2 0x97E JUMP JUMPDEST PUSH1 0x40 MLOAD DUP1 SWAP2 SUB SWAP1 RETURN JUMPDEST PUSH2 0x188 PUSH2 0x4BA JUMP JUMPDEST PUSH1 0x40 MLOAD PUSH2 0x195 SWAP2 SWAP1 PUSH2 0x9F9 JUMP JUMPDEST PUSH1 0x40 MLOAD DUP1 SWAP2 SUB SWAP1 RETURN JUMPDEST PUSH2 0x1B8 PUSH1 0x4 DUP1 CALLDATASIZE SUB DUP2 ADD SWAP1 PUSH2 0x1B3 SWAP2 SWAP1 PUSH2 0x765 JUMP JUMPDEST PUSH2 0x4C0 JUMP JUMPDEST PUSH1 0x40 MLOAD PUSH2 0x1C5 SWAP2 SWAP1 PUSH2 0x9F9 JUMP JUMPDEST PUSH1 0x40 MLOAD DUP1 SWAP2 SUB SWAP1 RETURN JUMPDEST PUSH2 0x1D6 PUSH2 0x50B JUMP JUMPDEST PUSH1 0x40 MLOAD PUSH2 0x1E3 SWAP2 SWAP1 PUSH2 0x95C JUMP JUMPDEST PUSH1 0x40 MLOAD DUP1 SWAP2 SUB SWAP1 RETURN JUMPDEST PUSH1 0x2 SLOAD DUP2 JUMP JUMPDEST PUSH1 0x0 DUP1 PUSH1 0x0 DUP4 PUSH20 0xFFFFFFFFFFFFFFFFFFFFFFFFFFFFFFFFFFFFFFFF AND PUSH20 0xFFFFFFFFFFFFFFFFFFFFFFFFFFFFFFFFFFFFFFFF AND DUP2 MSTORE PUSH1 0x20 ADD SWAP1 DUP2 MSTORE PUSH1 0x20 ADD PUSH1 0x0 KECCAK256 PUSH1 0x4 ADD SLOAD SWAP1 POP SWAP2 SWAP1 POP JUMP JUMPDEST PUSH1 0x1 PUSH1 0x4 DUP2 GT ISZERO PUSH2 0x251 JUMPI PUSH2 0x250 PUSH2 0xB83 JUMP JUMPDEST JUMPDEST PUSH1 0x0 DUP1 CALLER PUSH20 0xFFFFFFFFFFFFFFFFFFFFFFFFFFFFFFFFFFFFFFFF AND PUSH20 0xFFFFFFFFFFFFFFFFFFFFFFFFFFFFFFFFFFFFFFFF AND DUP2 MSTORE PUSH1 0x20 ADD SWAP1 DUP2 MSTORE PUSH1 0x20 ADD PUSH1 0x0 KECCAK256 PUSH1 0x0 ADD PUSH1 0x0 SWAP1 SLOAD SWAP1 PUSH2 0x100 EXP SWAP1 DIV PUSH1 0xFF AND PUSH1 0x4 DUP2 GT ISZERO PUSH2 0x2B2 JUMPI PUSH2 0x2B1 PUSH2 0xB83 JUMP JUMPDEST JUMPDEST EQ PUSH2 0x2F2 JUMPI PUSH1 0x40 MLOAD PUSH32 0x8C379A000000000000000000000000000000000000000000000000000000000 DUP2 MSTORE PUSH1 0x4 ADD PUSH2 0x2E9 SWAP1 PUSH2 0x999 JUMP JUMPDEST PUSH1 0x40 MLOAD DUP1 SWAP2 SUB SWAP1 REVERT JUMPDEST DUP1 PUSH1 0x2 DUP2 SWAP1 SSTORE POP POP JUMP JUMPDEST PUSH1 0x0 DUP1 PUSH1 0x0 DUP4 PUSH20 0xFFFFFFFFFFFFFFFFFFFFFFFFFFFFFFFFFFFFFFFF AND PUSH20 0xFFFFFFFFFFFFFFFFFFFFFFFFFFFFFFFFFFFFFFFF AND DUP2 MSTORE PUSH1 0x20 ADD SWAP1 DUP2 MSTORE PUSH1 0x20 ADD PUSH1 0x0 KECCAK256 PUSH1 0x6 ADD SLOAD SWAP1 POP SWAP2 SWAP1 POP JUMP JUMPDEST PUSH1 0x60 PUSH1 0x0 PUSH1 0x4 DUP2 GT ISZERO PUSH2 0x35D JUMPI PUSH2 0x35C PUSH2 0xB83 JUMP JUMPDEST JUMPDEST PUSH1 0x0 DUP1 CALLER PUSH20 0xFFFFFFFFFFFFFFFFFFFFFFFFFFFFFFFFFFFFFFFF AND PUSH20 0xFFFFFFFFFFFFFFFFFFFFFFFFFFFFFFFFFFFFFFFF AND DUP2 MSTORE PUSH1 0x20 ADD SWAP1 DUP2 MSTORE PUSH1 0x20 ADD PUSH1 0x0 KECCAK256 PUSH1 0x0 ADD PUSH1 0x0 SWAP1 SLOAD SWAP1 PUSH2 0x100 EXP SWAP1 DIV PUSH1 0xFF AND PUSH1 0x4 DUP2 GT ISZERO PUSH2 0x3BE JUMPI PUSH2 0x3BD PUSH2 0xB83 JUMP JUMPDEST JUMPDEST EQ PUSH2 0x3FE JUMPI PUSH1 0x40 MLOAD PUSH32 0x8C379A000000000000000000000000000000000000000000000000000000000 DUP2 MSTORE PUSH1 0x4 ADD PUSH2 0x3F5 SWAP1 PUSH2 0x9D9 JUMP JUMPDEST PUSH1 0x40 MLOAD DUP1 SWAP2 SUB SWAP1 REVERT JUMPDEST PUSH1 0x8 DUP1 SLOAD DUP1 PUSH1 0x20 MUL PUSH1 0x20 ADD PUSH1 0x40 MLOAD SWAP1 DUP2 ADD PUSH1 0x40 MSTORE DUP1 SWAP3 SWAP2 SWAP1 DUP2 DUP2 MSTORE PUSH1 0x20 ADD DUP3 DUP1 SLOAD DUP1 ISZERO PUSH2 0x480 JUMPI PUSH1 0x20 MUL DUP3 ADD SWAP2 SWAP1 PUSH1 0x0 MSTORE PUSH1 0x20 PUSH1 0x0 KECCAK256 SWAP1 JUMPDEST DUP2 PUSH1 0x0 SWAP1 SLOAD SWAP1 PUSH2 0x100 EXP SWAP1 DIV PUSH20 0xFFFFFFFFFFFFFFFFFFFFFFFFFFFFFFFFFFFFFFFF AND PUSH20 0xFFFFFFFFFFFFFFFFFFFFFFFFFFFFFFFFFFFFFFFF AND DUP2 MSTORE PUSH1 0x20 ADD SWAP1 PUSH1 0x1 ADD SWAP1 DUP1 DUP4 GT PUSH2 0x436 JUMPI JUMPDEST POP POP POP POP POP SWAP1 POP SWAP1 JUMP JUMPDEST PUSH1 0x0 DUP2 PUSH1 0x40 MLOAD PUSH1 0x20 ADD PUSH2 0x49D SWAP2 SWAP1 PUSH2 0x945 JUMP JUMPDEST PUSH1 0x40 MLOAD PUSH1 0x20 DUP2 DUP4 SUB SUB DUP2 MSTORE SWAP1 PUSH1 0x40 MSTORE DUP1 MLOAD SWAP1 PUSH1 0x20 ADD KECCAK256 SWAP1 POP SWAP2 SWAP1 POP JUMP JUMPDEST PUSH1 0x3 SLOAD DUP2 JUMP JUMPDEST PUSH1 0x0 DUP1 PUSH1 0x0 DUP4 PUSH20 0xFFFFFFFFFFFFFFFFFFFFFFFFFFFFFFFFFFFFFFFF AND PUSH20 0xFFFFFFFFFFFFFFFFFFFFFFFFFFFFFFFFFFFFFFFF AND DUP2 MSTORE PUSH1 0x20 ADD SWAP1 DUP2 MSTORE PUSH1 0x20 ADD PUSH1 0x0 KECCAK256 PUSH1 0x5 ADD SLOAD SWAP1 POP SWAP2 SWAP1 POP JUMP JUMPDEST PUSH1 0x60 PUSH1 0x0 PUSH1 0x4 DUP2 GT ISZERO PUSH2 0x521 JUMPI PUSH2 0x520 PUSH2 0xB83 JUMP JUMPDEST JUMPDEST PUSH1 0x0 DUP1 CALLER PUSH20 0xFFFFFFFFFFFFFFFFFFFFFFFFFFFFFFFFFFFFFFFF AND PUSH20 0xFFFFFFFFFFFFFFFFFFFFFFFFFFFFFFFFFFFFFFFF AND DUP2 MSTORE PUSH1 0x20 ADD SWAP1 DUP2 MSTORE PUSH1 0x20 ADD PUSH1 0x0 KECCAK256 PUSH1 0x0 ADD PUSH1 0x0 SWAP1 SLOAD SWAP1 PUSH2 0x100 EXP SWAP1 DIV PUSH1 0xFF AND PUSH1 0x4 DUP2 GT ISZERO PUSH2 0x582 JUMPI PUSH2 0x581 PUSH2 0xB83 JUMP JUMPDEST JUMPDEST EQ DUP1 PUSH2 0x600 JUMPI POP PUSH1 0x2 PUSH1 0x4 DUP2 GT ISZERO PUSH2 0x59D JUMPI PUSH2 0x59C PUSH2 0xB83 JUMP JUMPDEST JUMPDEST PUSH1 0x0 DUP1 CALLER PUSH20 0xFFFFFFFFFFFFFFFFFFFFFFFFFFFFFFFFFFFFFFFF AND PUSH20 0xFFFFFFFFFFFFFFFFFFFFFFFFFFFFFFFFFFFFFFFF AND DUP2 MSTORE PUSH1 0x20 ADD SWAP1 DUP2 MSTORE PUSH1 0x20 ADD PUSH1 0x0 KECCAK256 PUSH1 0x0 ADD PUSH1 0x0 SWAP1 SLOAD SWAP1 PUSH2 0x100 EXP SWAP1 DIV PUSH1 0xFF AND PUSH1 0x4 DUP2 GT ISZERO PUSH2 0x5FE JUMPI PUSH2 0x5FD PUSH2 0xB83 JUMP JUMPDEST JUMPDEST EQ JUMPDEST PUSH2 0x63F JUMPI PUSH1 0x40 MLOAD PUSH32 0x8C379A000000000000000000000000000000000000000000000000000000000 DUP2 MSTORE PUSH1 0x4 ADD PUSH2 0x636 SWAP1 PUSH2 0x9B9 JUMP JUMPDEST PUSH1 0x40 MLOAD DUP1 SWAP2 SUB SWAP1 REVERT JUMPDEST PUSH1 0x7 DUP1 SLOAD DUP1 PUSH1 0x20 MUL PUSH1 0x20 ADD PUSH1 0x40 MLOAD SWAP1 DUP2 ADD PUSH1 0x40 MSTORE DUP1 SWAP3 SWAP2 SWAP1 DUP2 DUP2 MSTORE PUSH1 0x20 ADD DUP3 DUP1 SLOAD DUP1 ISZERO PUSH2 0x6C1 JUMPI PUSH1 0x20 MUL DUP3 ADD SWAP2 SWAP1 PUSH1 0x0 MSTORE PUSH1 0x20 PUSH1 0x0 KECCAK256 SWAP1 JUMPDEST DUP2 PUSH1 0x0 SWAP1 SLOAD SWAP1 PUSH2 0x100 EXP SWAP1 DIV PUSH20 0xFFFFFFFFFFFFFFFFFFFFFFFFFFFFFFFFFFFFFFFF AND PUSH20 0xFFFFFFFFFFFFFFFFFFFFFFFFFFFFFFFFFFFFFFFF AND DUP2 MSTORE PUSH1 0x20 ADD SWAP1 PUSH1 0x1 ADD SWAP1 DUP1 DUP4 GT PUSH2 0x677 JUMPI JUMPDEST POP POP POP POP POP SWAP1 POP SWAP1 JUMP JUMPDEST PUSH1 0x0 PUSH2 0x6DE PUSH2 0x6D9 DUP5 PUSH2 0xA39 JUMP JUMPDEST PUSH2 0xA14 JUMP JUMPDEST SWAP1 POP DUP3 DUP2 MSTORE PUSH1 0x20 DUP2 ADD DUP5 DUP5 DUP5 ADD GT ISZERO PUSH2 0x6FA JUMPI PUSH2 0x6F9 PUSH2 0xBE6 JUMP JUMPDEST JUMPDEST PUSH2 0x705 DUP5 DUP3 DUP6 PUSH2 0xB10 JUMP JUMPDEST POP SWAP4 SWAP3 POP POP POP JUMP JUMPDEST PUSH1 0x0 DUP2 CALLDATALOAD SWAP1 POP PUSH2 0x71C DUP2 PUSH2 0xCA7 JUMP JUMPDEST SWAP3 SWAP2 POP POP JUMP JUMPDEST PUSH1 0x0 DUP3 PUSH1 0x1F DUP4 ADD SLT PUSH2 0x737 JUMPI PUSH2 0x736 PUSH2 0xBE1 JUMP JUMPDEST JUMPDEST DUP2 CALLDATALOAD PUSH2 0x747 DUP5 DUP3 PUSH1 0x20 DUP7 ADD PUSH2 0x6CB JUMP JUMPDEST SWAP2 POP POP SWAP3 SWAP2 POP POP JUMP JUMPDEST PUSH1 0x0 DUP2 CALLDATALOAD SWAP1 POP PUSH2 0x75F DUP2 PUSH2 0xCBE JUMP JUMPDEST SWAP3 SWAP2 POP POP JUMP JUMPDEST PUSH1 0x0 PUSH1 0x20 DUP3 DUP5 SUB SLT ISZERO PUSH2 0x77B JUMPI PUSH2 0x77A PUSH2 0xBF0 JUMP JUMPDEST JUMPDEST PUSH1 0x0 PUSH2 0x789 DUP5 DUP3 DUP6 ADD PUSH2 0x70D JUMP JUMPDEST SWAP2 POP POP SWAP3 SWAP2 POP POP JUMP JUMPDEST PUSH1 0x0 PUSH1 0x20 DUP3 DUP5 SUB SLT ISZERO PUSH2 0x7A8 JUMPI PUSH2 0x7A7 PUSH2 0xBF0 JUMP JUMPDEST JUMPDEST PUSH1 0x0 DUP3 ADD CALLDATALOAD PUSH8 0xFFFFFFFFFFFFFFFF DUP2 GT ISZERO PUSH2 0x7C6 JUMPI PUSH2 0x7C5 PUSH2 0xBEB JUMP JUMPDEST JUMPDEST PUSH2 0x7D2 DUP5 DUP3 DUP6 ADD PUSH2 0x722 JUMP JUMPDEST SWAP2 POP POP SWAP3 SWAP2 POP POP JUMP JUMPDEST PUSH1 0x0 PUSH1 0x20 DUP3 DUP5 SUB SLT ISZERO PUSH2 0x7F1 JUMPI PUSH2 0x7F0 PUSH2 0xBF0 JUMP JUMPDEST JUMPDEST PUSH1 0x0 PUSH2 0x7FF DUP5 DUP3 DUP6 ADD PUSH2 0x750 JUMP JUMPDEST SWAP2 POP POP SWAP3 SWAP2 POP POP JUMP JUMPDEST PUSH1 0x0 PUSH2 0x814 DUP4 DUP4 PUSH2 0x820 JUMP JUMPDEST PUSH1 0x20 DUP4 ADD SWAP1 POP SWAP3 SWAP2 POP POP JUMP JUMPDEST PUSH2 0x829 DUP2 PUSH2 0xACA JUMP JUMPDEST DUP3 MSTORE POP POP JUMP JUMPDEST PUSH1 0x0 PUSH2 0x83A DUP3 PUSH2 0xA7A JUMP JUMPDEST PUSH2 0x844 DUP2 DUP6 PUSH2 0xA9D JUMP JUMPDEST SWAP4 POP PUSH2 0x84F DUP4 PUSH2 0xA6A JUMP JUMPDEST DUP1 PUSH1 0x0 JUMPDEST DUP4 DUP2 LT ISZERO PUSH2 0x880 JUMPI DUP2 MLOAD PUSH2 0x867 DUP9 DUP3 PUSH2 0x808 JUMP JUMPDEST SWAP8 POP PUSH2 0x872 DUP4 PUSH2 0xA90 JUMP JUMPDEST SWAP3 POP POP PUSH1 0x1 DUP2 ADD SWAP1 POP PUSH2 0x853 JUMP JUMPDEST POP DUP6 SWAP4 POP POP POP POP SWAP3 SWAP2 POP POP JUMP JUMPDEST PUSH2 0x896 DUP2 PUSH2 0xADC JUMP JUMPDEST DUP3 MSTORE POP POP JUMP JUMPDEST PUSH1 0x0 PUSH2 0x8A7 DUP3 PUSH2 0xA85 JUMP JUMPDEST PUSH2 0x8B1 DUP2 DUP6 PUSH2 0xABF JUMP JUMPDEST SWAP4 POP PUSH2 0x8C1 DUP2 DUP6 PUSH1 0x20 DUP7 ADD PUSH2 0xB1F JUMP JUMPDEST DUP1 DUP5 ADD SWAP2 POP POP SWAP3 SWAP2 POP POP JUMP JUMPDEST PUSH1 0x0 PUSH2 0x8DA PUSH1 0x18 DUP4 PUSH2 0xAAE JUMP JUMPDEST SWAP2 POP PUSH2 0x8E5 DUP3 PUSH2 0xC06 JUMP JUMPDEST PUSH1 0x20 DUP3 ADD SWAP1 POP SWAP2 SWAP1 POP JUMP JUMPDEST PUSH1 0x0 PUSH2 0x8FD PUSH1 0x29 DUP4 PUSH2 0xAAE JUMP JUMPDEST SWAP2 POP PUSH2 0x908 DUP3 PUSH2 0xC2F JUMP JUMPDEST PUSH1 0x40 DUP3 ADD SWAP1 POP SWAP2 SWAP1 POP JUMP JUMPDEST PUSH1 0x0 PUSH2 0x920 PUSH1 0xE DUP4 PUSH2 0xAAE JUMP JUMPDEST SWAP2 POP PUSH2 0x92B DUP3 PUSH2 0xC7E JUMP JUMPDEST PUSH1 0x20 DUP3 ADD SWAP1 POP SWAP2 SWAP1 POP JUMP JUMPDEST PUSH2 0x93F DUP2 PUSH2 0xB06 JUMP JUMPDEST DUP3 MSTORE POP POP JUMP JUMPDEST PUSH1 0x0 PUSH2 0x951 DUP3 DUP5 PUSH2 0x89C JUMP JUMPDEST SWAP2 POP DUP2 SWAP1 POP SWAP3 SWAP2 POP POP JUMP JUMPDEST PUSH1 0x0 PUSH1 0x20 DUP3 ADD SWAP1 POP DUP2 DUP2 SUB PUSH1 0x0 DUP4 ADD MSTORE PUSH2 0x976 DUP2 DUP5 PUSH2 0x82F JUMP JUMPDEST SWAP1 POP SWAP3 SWAP2 POP POP JUMP JUMPDEST PUSH1 0x0 PUSH1 0x20 DUP3 ADD SWAP1 POP PUSH2 0x993 PUSH1 0x0 DUP4 ADD DUP5 PUSH2 0x88D JUMP JUMPDEST SWAP3 SWAP2 POP POP JUMP JUMPDEST PUSH1 0x0 PUSH1 0x20 DUP3 ADD SWAP1 POP DUP2 DUP2 SUB PUSH1 0x0 DUP4 ADD MSTORE PUSH2 0x9B2 DUP2 PUSH2 0x8CD JUMP JUMPDEST SWAP1 POP SWAP2 SWAP1 POP JUMP JUMPDEST PUSH1 0x0 PUSH1 0x20 DUP3 ADD SWAP1 POP DUP2 DUP2 SUB PUSH1 0x0 DUP4 ADD MSTORE PUSH2 0x9D2 DUP2 PUSH2 0x8F0 JUMP JUMPDEST SWAP1 POP SWAP2 SWAP1 POP JUMP JUMPDEST PUSH1 0x0 PUSH1 0x20 DUP3 ADD SWAP1 POP DUP2 DUP2 SUB PUSH1 0x0 DUP4 ADD MSTORE PUSH2 0x9F2 DUP2 PUSH2 0x913 JUMP JUMPDEST SWAP1 POP SWAP2 SWAP1 POP JUMP JUMPDEST PUSH1 0x0 PUSH1 0x20 DUP3 ADD SWAP1 POP PUSH2 0xA0E PUSH1 0x0 DUP4 ADD DUP5 PUSH2 0x936 JUMP JUMPDEST SWAP3 SWAP2 POP POP JUMP JUMPDEST PUSH1 0x0 PUSH2 0xA1E PUSH2 0xA2F JUMP JUMPDEST SWAP1 POP PUSH2 0xA2A DUP3 DUP3 PUSH2 0xB52 JUMP JUMPDEST SWAP2 SWAP1 POP JUMP JUMPDEST PUSH1 0x0 PUSH1 0x40 MLOAD SWAP1 POP SWAP1 JUMP JUMPDEST PUSH1 0x0 PUSH8 0xFFFFFFFFFFFFFFFF DUP3 GT ISZERO PUSH2 0xA54 JUMPI PUSH2 0xA53 PUSH2 0xBB2 JUMP JUMPDEST JUMPDEST PUSH2 0xA5D DUP3 PUSH2 0xBF5 JUMP JUMPDEST SWAP1 POP PUSH1 0x20 DUP2 ADD SWAP1 POP SWAP2 SWAP1 POP JUMP JUMPDEST PUSH1 0x0 DUP2 SWAP1 POP PUSH1 0x20 DUP3 ADD SWAP1 POP SWAP2 SWAP1 POP JUMP JUMPDEST PUSH1 0x0 DUP2 MLOAD SWAP1 POP SWAP2 SWAP1 POP JUMP JUMPDEST PUSH1 0x0 DUP2 MLOAD SWAP1 POP SWAP2 SWAP1 POP JUMP JUMPDEST PUSH1 0x0 PUSH1 0x20 DUP3 ADD SWAP1 POP SWAP2 SWAP1 POP JUMP JUMPDEST PUSH1 0x0 DUP3 DUP3 MSTORE PUSH1 0x20 DUP3 ADD SWAP1 POP SWAP3 SWAP2 POP POP JUMP JUMPDEST PUSH1 0x0 DUP3 DUP3 MSTORE PUSH1 0x20 DUP3 ADD SWAP1 POP SWAP3 SWAP2 POP POP JUMP JUMPDEST PUSH1 0x0 DUP2 SWAP1 POP SWAP3 SWAP2 POP POP JUMP JUMPDEST PUSH1 0x0 PUSH2 0xAD5 DUP3 PUSH2 0xAE6 JUMP JUMPDEST SWAP1 POP SWAP2 SWAP1 POP JUMP JUMPDEST PUSH1 0x0 DUP2 SWAP1 POP SWAP2 SWAP1 POP JUMP JUMPDEST PUSH1 0x0 PUSH20 0xFFFFFFFFFFFFFFFFFFFFFFFFFFFFFFFFFFFFFFFF DUP3 AND SWAP1 POP SWAP2 SWAP1 POP JUMP JUMPDEST PUSH1 0x0 DUP2 SWAP1 POP SWAP2 SWAP1 POP JUMP JUMPDEST DUP3 DUP2 DUP4 CALLDATACOPY PUSH1 0x0 DUP4 DUP4 ADD MSTORE POP POP POP JUMP JUMPDEST PUSH1 0x0 JUMPDEST DUP4 DUP2 LT ISZERO PUSH2 0xB3D JUMPI DUP1 DUP3 ADD MLOAD DUP2 DUP5 ADD MSTORE PUSH1 0x20 DUP2 ADD SWAP1 POP PUSH2 0xB22 JUMP JUMPDEST DUP4 DUP2 GT ISZERO PUSH2 0xB4C JUMPI PUSH1 0x0 DUP5 DUP5 ADD MSTORE JUMPDEST POP POP POP POP JUMP JUMPDEST PUSH2 0xB5B DUP3 PUSH2 0xBF5 JUMP JUMPDEST DUP2 ADD DUP2 DUP2 LT PUSH8 0xFFFFFFFFFFFFFFFF DUP3 GT OR ISZERO PUSH2 0xB7A JUMPI PUSH2 0xB79 PUSH2 0xBB2 JUMP JUMPDEST JUMPDEST DUP1 PUSH1 0x40 MSTORE POP POP POP JUMP JUMPDEST PUSH32 0x4E487B7100000000000000000000000000000000000000000000000000000000 PUSH1 0x0 MSTORE PUSH1 0x21 PUSH1 0x4 MSTORE PUSH1 0x24 PUSH1 0x0 REVERT JUMPDEST PUSH32 0x4E487B7100000000000000000000000000000000000000000000000000000000 PUSH1 0x0 MSTORE PUSH1 0x41 PUSH1 0x4 MSTORE PUSH1 0x24 PUSH1 0x0 REVERT JUMPDEST PUSH1 0x0 DUP1 REVERT JUMPDEST PUSH1 0x0 DUP1 REVERT JUMPDEST PUSH1 0x0 DUP1 REVERT JUMPDEST PUSH1 0x0 DUP1 REVERT JUMPDEST PUSH1 0x0 PUSH1 0x1F NOT PUSH1 0x1F DUP4 ADD AND SWAP1 POP SWAP2 SWAP1 POP JUMP JUMPDEST PUSH32 0x596F7572206E6F74205075626C69632070726F76696465720000000000000000 PUSH1 0x0 DUP3 ADD MSTORE POP JUMP JUMPDEST PUSH32 0x596F7520617265206E6F7420746865206F776E6572206F722070726976617465 PUSH1 0x0 DUP3 ADD MSTORE PUSH32 0x2070726F76696465720000000000000000000000000000000000000000000000 PUSH1 0x20 DUP3 ADD MSTORE POP JUMP JUMPDEST PUSH32 0x596F7572206E6F742061646D696E000000000000000000000000000000000000 PUSH1 0x0 DUP3 ADD MSTORE POP JUMP JUMPDEST PUSH2 0xCB0 DUP2 PUSH2 0xACA JUMP JUMPDEST DUP2 EQ PUSH2 0xCBB JUMPI PUSH1 0x0 DUP1 REVERT JUMPDEST POP JUMP JUMPDEST PUSH2 0xCC7 DUP2 PUSH2 0xB06 JUMP JUMPDEST DUP2 EQ PUSH2 0xCD2 JUMPI PUSH1 0x0 DUP1 REVERT JUMPDEST POP JUMP INVALID LOG2 PUSH5 0x6970667358 0x22 SLT KECCAK256 0x4D DELEGATECALL BASEFEE MUL 0xD6 EQ 0x4D SWAP9 PUSH12 0xFF868CF8A43709ED92D31777 0xE1 SWAP9 DUP12 ORIGIN GASPRICE 0xE2 PUSH5 0xFA51313E64 PUSH20 0x6F6C634300080700330000000000000000000000 "
				},
				"gasEstimates": {
					"creation": {
						"codeDepositCost": "667800",
						"executionCost": "44914",
						"totalCost": "712714"
					},
					"external": {
						"changeTokenAmountPricePublic(uint256)": "24871",
						"getBalancePrivateToken(address)": "2913",
						"getBalancePublicToken(address)": "2914",
						"getBalanceSeedToken(address)": "2870",
						"get_blackList()": "infinite",
						"get_keccak256(string)": "infinite",
						"get_whiteList()": "infinite",
						"tokenAmount_()": "2473",
						"tokenPrice_()": "2430"
					}
				},
				"methodIdentifiers": {
					"changeTokenAmountPricePublic(uint256)": "32cbdd03",
					"getBalancePrivateToken(address)": "b06cdc12",
					"getBalancePublicToken(address)": "72f0d72b",
					"getBalanceSeedToken(address)": "2599d6d0",
					"get_blackList()": "7f89128f",
					"get_keccak256(string)": "8e4f8c6b",
					"get_whiteList()": "c10e3911",
					"tokenAmount_()": "948942ad",
					"tokenPrice_()": "0761c8b9"
				}
			},
			"storageLayout": {
				"storage": [
					{
						"astId": 278,
						"contract": "Documents/GitHub/contract-token-cryptoMonster/backend/components/PhasePublic.sol:PhasePublic",
						"label": "structUsers_",
						"offset": 0,
						"slot": "0",
						"type": "t_mapping(t_address,t_struct(structUser)273_storage)"
					},
					{
						"astId": 284,
						"contract": "Documents/GitHub/contract-token-cryptoMonster/backend/components/PhasePublic.sol:PhasePublic",
						"label": "allowed",
						"offset": 0,
						"slot": "1",
						"type": "t_mapping(t_address,t_mapping(t_address,t_uint256))"
					},
					{
						"astId": 287,
						"contract": "Documents/GitHub/contract-token-cryptoMonster/backend/components/PhasePublic.sol:PhasePublic",
						"label": "tokenPrice_",
						"offset": 0,
						"slot": "2",
						"type": "t_uint256"
					},
					{
						"astId": 290,
						"contract": "Documents/GitHub/contract-token-cryptoMonster/backend/components/PhasePublic.sol:PhasePublic",
						"label": "tokenAmount_",
						"offset": 0,
						"slot": "3",
						"type": "t_uint256"
					},
					{
						"astId": 309,
						"contract": "Documents/GitHub/contract-token-cryptoMonster/backend/components/PhasePublic.sol:PhasePublic",
						"label": "structPhases_",
						"offset": 0,
						"slot": "4",
						"type": "t_mapping(t_address,t_struct(structPhase)304_storage)"
					},
					{
						"astId": 327,
						"contract": "Documents/GitHub/contract-token-cryptoMonster/backend/components/PhasePublic.sol:PhasePublic",
						"label": "strucApplications_",
						"offset": 0,
						"slot": "5",
						"type": "t_mapping(t_address,t_struct(structApplication)322_storage)"
					},
					{
						"astId": 330,
						"contract": "Documents/GitHub/contract-token-cryptoMonster/backend/components/PhasePublic.sol:PhasePublic",
						"label": "structApplicationsAmountAdr",
						"offset": 0,
						"slot": "6",
						"type": "t_array(t_address)dyn_storage"
					},
					{
						"astId": 333,
						"contract": "Documents/GitHub/contract-token-cryptoMonster/backend/components/PhasePublic.sol:PhasePublic",
						"label": "whiteList",
						"offset": 0,
						"slot": "7",
						"type": "t_array(t_address)dyn_storage"
					},
					{
						"astId": 336,
						"contract": "Documents/GitHub/contract-token-cryptoMonster/backend/components/PhasePublic.sol:PhasePublic",
						"label": "blackList",
						"offset": 0,
						"slot": "8",
						"type": "t_array(t_address)dyn_storage"
					}
				],
				"types": {
					"t_address": {
						"encoding": "inplace",
						"label": "address",
						"numberOfBytes": "20"
					},
					"t_array(t_address)dyn_storage": {
						"base": "t_address",
						"encoding": "dynamic_array",
						"label": "address[]",
						"numberOfBytes": "32"
					},
					"t_bool": {
						"encoding": "inplace",
						"label": "bool",
						"numberOfBytes": "1"
					},
					"t_bytes32": {
						"encoding": "inplace",
						"label": "bytes32",
						"numberOfBytes": "32"
					},
					"t_enum(Role)257": {
						"encoding": "inplace",
						"label": "enum structures.Role",
						"numberOfBytes": "1"
					},
					"t_mapping(t_address,t_mapping(t_address,t_uint256))": {
						"encoding": "mapping",
						"key": "t_address",
						"label": "mapping(address => mapping(address => uint256))",
						"numberOfBytes": "32",
						"value": "t_mapping(t_address,t_uint256)"
					},
					"t_mapping(t_address,t_struct(structApplication)322_storage)": {
						"encoding": "mapping",
						"key": "t_address",
						"label": "mapping(address => struct structures.structApplication)",
						"numberOfBytes": "32",
						"value": "t_struct(structApplication)322_storage"
					},
					"t_mapping(t_address,t_struct(structPhase)304_storage)": {
						"encoding": "mapping",
						"key": "t_address",
						"label": "mapping(address => struct structures.structPhase)",
						"numberOfBytes": "32",
						"value": "t_struct(structPhase)304_storage"
					},
					"t_mapping(t_address,t_struct(structUser)273_storage)": {
						"encoding": "mapping",
						"key": "t_address",
						"label": "mapping(address => struct structures.structUser)",
						"numberOfBytes": "32",
						"value": "t_struct(structUser)273_storage"
					},
					"t_mapping(t_address,t_uint256)": {
						"encoding": "mapping",
						"key": "t_address",
						"label": "mapping(address => uint256)",
						"numberOfBytes": "32",
						"value": "t_uint256"
					},
					"t_string_storage": {
						"encoding": "bytes",
						"label": "string",
						"numberOfBytes": "32"
					},
					"t_struct(structApplication)322_storage": {
						"encoding": "inplace",
						"label": "struct structures.structApplication",
						"members": [
							{
								"astId": 311,
								"contract": "Documents/GitHub/contract-token-cryptoMonster/backend/components/PhasePublic.sol:PhasePublic",
								"label": "name",
								"offset": 0,
								"slot": "0",
								"type": "t_string_storage"
							},
							{
								"astId": 313,
								"contract": "Documents/GitHub/contract-token-cryptoMonster/backend/components/PhasePublic.sol:PhasePublic",
								"label": "contactForCommunication",
								"offset": 0,
								"slot": "1",
								"type": "t_string_storage"
							},
							{
								"astId": 315,
								"contract": "Documents/GitHub/contract-token-cryptoMonster/backend/components/PhasePublic.sol:PhasePublic",
								"label": "userAdr",
								"offset": 0,
								"slot": "2",
								"type": "t_address"
							},
							{
								"astId": 317,
								"contract": "Documents/GitHub/contract-token-cryptoMonster/backend/components/PhasePublic.sol:PhasePublic",
								"label": "status",
								"offset": 20,
								"slot": "2",
								"type": "t_bool"
							},
							{
								"astId": 319,
								"contract": "Documents/GitHub/contract-token-cryptoMonster/backend/components/PhasePublic.sol:PhasePublic",
								"label": "reviewed",
								"offset": 21,
								"slot": "2",
								"type": "t_bool"
							},
							{
								"astId": 321,
								"contract": "Documents/GitHub/contract-token-cryptoMonster/backend/components/PhasePublic.sol:PhasePublic",
								"label": "exist",
								"offset": 22,
								"slot": "2",
								"type": "t_bool"
							}
						],
						"numberOfBytes": "96"
					},
					"t_struct(structPhase)304_storage": {
						"encoding": "inplace",
						"label": "struct structures.structPhase",
						"members": [
							{
								"astId": 301,
								"contract": "Documents/GitHub/contract-token-cryptoMonster/backend/components/PhasePublic.sol:PhasePublic",
								"label": "statusPhase",
								"offset": 0,
								"slot": "0",
								"type": "t_bool"
							},
							{
								"astId": 303,
								"contract": "Documents/GitHub/contract-token-cryptoMonster/backend/components/PhasePublic.sol:PhasePublic",
								"label": "reviewed",
								"offset": 1,
								"slot": "0",
								"type": "t_bool"
							}
						],
						"numberOfBytes": "32"
					},
					"t_struct(structUser)273_storage": {
						"encoding": "inplace",
						"label": "struct structures.structUser",
						"members": [
							{
								"astId": 260,
								"contract": "Documents/GitHub/contract-token-cryptoMonster/backend/components/PhasePublic.sol:PhasePublic",
								"label": "role",
								"offset": 0,
								"slot": "0",
								"type": "t_enum(Role)257"
							},
							{
								"astId": 262,
								"contract": "Documents/GitHub/contract-token-cryptoMonster/backend/components/PhasePublic.sol:PhasePublic",
								"label": "login",
								"offset": 0,
								"slot": "1",
								"type": "t_string_storage"
							},
							{
								"astId": 264,
								"contract": "Documents/GitHub/contract-token-cryptoMonster/backend/components/PhasePublic.sol:PhasePublic",
								"label": "password",
								"offset": 0,
								"slot": "2",
								"type": "t_bytes32"
							},
							{
								"astId": 266,
								"contract": "Documents/GitHub/contract-token-cryptoMonster/backend/components/PhasePublic.sol:PhasePublic",
								"label": "balance_overall",
								"offset": 0,
								"slot": "3",
								"type": "t_uint256"
							},
							{
								"astId": 268,
								"contract": "Documents/GitHub/contract-token-cryptoMonster/backend/components/PhasePublic.sol:PhasePublic",
								"label": "balance_seed",
								"offset": 0,
								"slot": "4",
								"type": "t_uint256"
							},
							{
								"astId": 270,
								"contract": "Documents/GitHub/contract-token-cryptoMonster/backend/components/PhasePublic.sol:PhasePublic",
								"label": "balance_private",
								"offset": 0,
								"slot": "5",
								"type": "t_uint256"
							},
							{
								"astId": 272,
								"contract": "Documents/GitHub/contract-token-cryptoMonster/backend/components/PhasePublic.sol:PhasePublic",
								"label": "balance_public",
								"offset": 0,
								"slot": "6",
								"type": "t_uint256"
							}
						],
						"numberOfBytes": "224"
					},
					"t_uint256": {
						"encoding": "inplace",
						"label": "uint256",
						"numberOfBytes": "32"
					}
				}
			},
			"userdoc": {
				"kind": "user",
				"methods": {},
				"version": 1
			}
		}
	}
}