{
	"Documents/GitHub/contract-token-cryptoMonster/backend/components/PhasePrivate.sol": {
		"PhasePrivate": {
			"abi": [
				{
					"inputs": [
						{
							"internalType": "address",
							"name": "_userAdr",
							"type": "address"
						}
					],
					"name": "acceptApplication",
					"outputs": [],
					"stateMutability": "nonpayable",
					"type": "function"
				},
				{
					"inputs": [
						{
							"internalType": "string",
							"name": "_name",
							"type": "string"
						},
						{
							"internalType": "string",
							"name": "_contactForCommunication",
							"type": "string"
						},
						{
							"internalType": "address",
							"name": "_userAdr",
							"type": "address"
						}
					],
					"name": "application",
					"outputs": [],
					"stateMutability": "nonpayable",
					"type": "function"
				},
				{
					"inputs": [
						{
							"internalType": "address",
							"name": "_userAdr",
							"type": "address"
						}
					],
					"name": "deviationApplication",
					"outputs": [],
					"stateMutability": "nonpayable",
					"type": "function"
				},
				{
					"inputs": [],
					"name": "getApplicationAmountAdr",
					"outputs": [
						{
							"internalType": "address[]",
							"name": "",
							"type": "address[]"
						}
					],
					"stateMutability": "view",
					"type": "function"
				},
				{
					"inputs": [],
					"name": "get_blackList",
					"outputs": [
						{
							"internalType": "address[]",
							"name": "",
							"type": "address[]"
						}
					],
					"stateMutability": "view",
					"type": "function"
				},
				{
					"inputs": [
						{
							"internalType": "string",
							"name": "_hash",
							"type": "string"
						}
					],
					"name": "get_keccak256",
					"outputs": [
						{
							"internalType": "bytes32",
							"name": "",
							"type": "bytes32"
						}
					],
					"stateMutability": "pure",
					"type": "function"
				},
				{
					"inputs": [],
					"name": "get_whiteList",
					"outputs": [
						{
							"internalType": "address[]",
							"name": "",
							"type": "address[]"
						}
					],
					"stateMutability": "view",
					"type": "function"
				},
				{
					"inputs": [],
					"name": "startPrivatePhase",
					"outputs": [],
					"stateMutability": "nonpayable",
					"type": "function"
				}
			],
			"devdoc": {
				"kind": "dev",
				"methods": {},
				"version": 1
			},
			"evm": {
				"assembly": "    /* \"Documents/GitHub/contract-token-cryptoMonster/backend/components/PhasePrivate.sol\":158:5147  contract PhasePrivate is validateFuncs {\r... */\n  mstore(0x40, 0x80)\n  callvalue\n  dup1\n  iszero\n  tag_1\n  jumpi\n  0x00\n  dup1\n  revert\ntag_1:\n  pop\n  dataSize(sub_0)\n  dup1\n  dataOffset(sub_0)\n  0x00\n  codecopy\n  0x00\n  return\nstop\n\nsub_0: assembly {\n        /* \"Documents/GitHub/contract-token-cryptoMonster/backend/components/PhasePrivate.sol\":158:5147  contract PhasePrivate is validateFuncs {\r... */\n      mstore(0x40, 0x80)\n      callvalue\n      dup1\n      iszero\n      tag_1\n      jumpi\n      0x00\n      dup1\n      revert\n    tag_1:\n      pop\n      jumpi(tag_2, lt(calldatasize, 0x04))\n      shr(0xe0, calldataload(0x00))\n      dup1\n      0x7f89128f\n      gt\n      tag_11\n      jumpi\n      dup1\n      0x7f89128f\n      eq\n      tag_7\n      jumpi\n      dup1\n      0x8e4f8c6b\n      eq\n      tag_8\n      jumpi\n      dup1\n      0xa678b65b\n      eq\n      tag_9\n      jumpi\n      dup1\n      0xc10e3911\n      eq\n      tag_10\n      jumpi\n      jump(tag_2)\n    tag_11:\n      dup1\n      0x0691615d\n      eq\n      tag_3\n      jumpi\n      dup1\n      0x1d3eea35\n      eq\n      tag_4\n      jumpi\n      dup1\n      0x686c4cea\n      eq\n      tag_5\n      jumpi\n      dup1\n      0x785963c3\n      eq\n      tag_6\n      jumpi\n    tag_2:\n      0x00\n      dup1\n      revert\n        /* \"Documents/GitHub/contract-token-cryptoMonster/backend/components/PhasePrivate.sol\":4927:5144  function startPrivatePhase () public onlyPrivateProvider {\r... */\n    tag_3:\n      tag_12\n      tag_13\n      jump\t// in\n    tag_12:\n      stop\n        /* \"Documents/GitHub/contract-token-cryptoMonster/backend/components/PhasePrivate.sol\":4478:4806  function deviationApplication (address _userAdr) public onlyPrivateProvider {\r... */\n    tag_4:\n      tag_14\n      0x04\n      dup1\n      calldatasize\n      sub\n      dup2\n      add\n      swap1\n      tag_15\n      swap2\n      swap1\n      tag_16\n      jump\t// in\n    tag_15:\n      tag_17\n      jump\t// in\n    tag_14:\n      stop\n        /* \"Documents/GitHub/contract-token-cryptoMonster/backend/components/PhasePrivate.sol\":1866:2111  function getApplicationAmountAdr () public onlyPrivateProvider view returns (address[] memory) {\r... */\n    tag_5:\n      tag_18\n      tag_19\n      jump\t// in\n    tag_18:\n      mload(0x40)\n      tag_20\n      swap2\n      swap1\n      tag_21\n      jump\t// in\n    tag_20:\n      mload(0x40)\n      dup1\n      swap2\n      sub\n      swap1\n      return\n        /* \"Documents/GitHub/contract-token-cryptoMonster/backend/components/PhasePrivate.sol\":297:1752  function application(string memory _name, string memory _contactForCommunication, address _userAdr) public {\r... */\n    tag_6:\n      tag_22\n      0x04\n      dup1\n      calldatasize\n      sub\n      dup2\n      add\n      swap1\n      tag_23\n      swap2\n      swap1\n      tag_24\n      jump\t// in\n    tag_23:\n      tag_25\n      jump\t// in\n    tag_22:\n      stop\n        /* \"Documents/GitHub/contract-token-cryptoMonster/backend/shared/helpers/helpresFunc.sol\":689:799  function get_blackList() public onlyOwner view returns (address[] memory) {\r... */\n    tag_7:\n      tag_26\n      tag_27\n      jump\t// in\n    tag_26:\n      mload(0x40)\n      tag_28\n      swap2\n      swap1\n      tag_21\n      jump\t// in\n    tag_28:\n      mload(0x40)\n      dup1\n      swap2\n      sub\n      swap1\n      return\n        /* \"Documents/GitHub/contract-token-cryptoMonster/backend/shared/helpers/helpresFunc.sol\":212:350  function get_keccak256(string memory _hash) public pure returns(bytes32) {\r... */\n    tag_8:\n      tag_29\n      0x04\n      dup1\n      calldatasize\n      sub\n      dup2\n      add\n      swap1\n      tag_30\n      swap2\n      swap1\n      tag_31\n      jump\t// in\n    tag_30:\n      tag_32\n      jump\t// in\n    tag_29:\n      mload(0x40)\n      tag_33\n      swap2\n      swap1\n      tag_34\n      jump\t// in\n    tag_33:\n      mload(0x40)\n      dup1\n      swap2\n      sub\n      swap1\n      return\n        /* \"Documents/GitHub/contract-token-cryptoMonster/backend/components/PhasePrivate.sol\":3595:4394  function acceptApplication (address _userAdr) public onlyPrivateProvider {\r... */\n    tag_9:\n      tag_35\n      0x04\n      dup1\n      calldatasize\n      sub\n      dup2\n      add\n      swap1\n      tag_36\n      swap2\n      swap1\n      tag_16\n      jump\t// in\n    tag_36:\n      tag_37\n      jump\t// in\n    tag_35:\n      stop\n        /* \"Documents/GitHub/contract-token-cryptoMonster/backend/shared/helpers/helpresFunc.sol\":483:611  function get_whiteList() public onlyOwnerAndPrivateProvider view returns (address[] memory) {\r... */\n    tag_10:\n      tag_38\n      tag_39\n      jump\t// in\n    tag_38:\n      mload(0x40)\n      tag_40\n      swap2\n      swap1\n      tag_21\n      jump\t// in\n    tag_40:\n      mload(0x40)\n      dup1\n      swap2\n      sub\n      swap1\n      return\n        /* \"Documents/GitHub/contract-token-cryptoMonster/backend/components/PhasePrivate.sol\":4927:5144  function startPrivatePhase () public onlyPrivateProvider {\r... */\n    tag_13:\n        /* \"Documents/GitHub/contract-token-cryptoMonster/backend/shared/helpers/modifireFunc.sol\":567:586  Role.SYSTEM_PRIVATE */\n      0x02\n        /* \"Documents/GitHub/contract-token-cryptoMonster/backend/shared/helpers/modifireFunc.sol\":534:586  structUsers_[msg.sender].role == Role.SYSTEM_PRIVATE */\n      0x04\n      dup2\n      gt\n      iszero\n      tag_42\n      jumpi\n      tag_43\n      tag_44\n      jump\t// in\n    tag_43:\n    tag_42:\n        /* \"Documents/GitHub/contract-token-cryptoMonster/backend/shared/helpers/modifireFunc.sol\":534:546  structUsers_ */\n      0x00\n        /* \"Documents/GitHub/contract-token-cryptoMonster/backend/shared/helpers/modifireFunc.sol\":534:558  structUsers_[msg.sender] */\n      dup1\n        /* \"Documents/GitHub/contract-token-cryptoMonster/backend/shared/helpers/modifireFunc.sol\":547:557  msg.sender */\n      caller\n        /* \"Documents/GitHub/contract-token-cryptoMonster/backend/shared/helpers/modifireFunc.sol\":534:558  structUsers_[msg.sender] */\n      0xffffffffffffffffffffffffffffffffffffffff\n      and\n      0xffffffffffffffffffffffffffffffffffffffff\n      and\n      dup2\n      mstore\n      0x20\n      add\n      swap1\n      dup2\n      mstore\n      0x20\n      add\n      0x00\n      keccak256\n        /* \"Documents/GitHub/contract-token-cryptoMonster/backend/shared/helpers/modifireFunc.sol\":534:563  structUsers_[msg.sender].role */\n      0x00\n      add\n      0x00\n      swap1\n      sload\n      swap1\n      0x0100\n      exp\n      swap1\n      div\n      0xff\n      and\n        /* \"Documents/GitHub/contract-token-cryptoMonster/backend/shared/helpers/modifireFunc.sol\":534:586  structUsers_[msg.sender].role == Role.SYSTEM_PRIVATE */\n      0x04\n      dup2\n      gt\n      iszero\n      tag_45\n      jumpi\n      tag_46\n      tag_44\n      jump\t// in\n    tag_46:\n    tag_45:\n      eq\n        /* \"Documents/GitHub/contract-token-cryptoMonster/backend/shared/helpers/modifireFunc.sol\":526:616  require(structUsers_[msg.sender].role == Role.SYSTEM_PRIVATE, \"Your not Private provider\") */\n      tag_47\n      jumpi\n      mload(0x40)\n      0x08c379a000000000000000000000000000000000000000000000000000000000\n      dup2\n      mstore\n      0x04\n      add\n      tag_48\n      swap1\n      tag_49\n      jump\t// in\n    tag_48:\n      mload(0x40)\n      dup1\n      swap2\n      sub\n      swap1\n      revert\n    tag_47:\n        /* \"Documents/GitHub/contract-token-cryptoMonster/backend/components/PhasePrivate.sol\":5044:5049  false */\n      0x00\n        /* \"Documents/GitHub/contract-token-cryptoMonster/backend/components/PhasePrivate.sol\":5003:5049  structPhases_[msg.sender].statusPhase == false */\n      iszero\n      iszero\n        /* \"Documents/GitHub/contract-token-cryptoMonster/backend/components/PhasePrivate.sol\":5003:5016  structPhases_ */\n      0x01\n        /* \"Documents/GitHub/contract-token-cryptoMonster/backend/components/PhasePrivate.sol\":5003:5028  structPhases_[msg.sender] */\n      0x00\n        /* \"Documents/GitHub/contract-token-cryptoMonster/backend/components/PhasePrivate.sol\":5017:5027  msg.sender */\n      caller\n        /* \"Documents/GitHub/contract-token-cryptoMonster/backend/components/PhasePrivate.sol\":5003:5028  structPhases_[msg.sender] */\n      0xffffffffffffffffffffffffffffffffffffffff\n      and\n      0xffffffffffffffffffffffffffffffffffffffff\n      and\n      dup2\n      mstore\n      0x20\n      add\n      swap1\n      dup2\n      mstore\n      0x20\n      add\n      0x00\n      keccak256\n        /* \"Documents/GitHub/contract-token-cryptoMonster/backend/components/PhasePrivate.sol\":5003:5040  structPhases_[msg.sender].statusPhase */\n      0x00\n      add\n      0x00\n      swap1\n      sload\n      swap1\n      0x0100\n      exp\n      swap1\n      div\n      0xff\n      and\n        /* \"Documents/GitHub/contract-token-cryptoMonster/backend/components/PhasePrivate.sol\":5003:5049  structPhases_[msg.sender].statusPhase == false */\n      iszero\n      iszero\n      eq\n        /* \"Documents/GitHub/contract-token-cryptoMonster/backend/components/PhasePrivate.sol\":4995:5074  require(structPhases_[msg.sender].statusPhase == false, \"Phase already active\") */\n      tag_51\n      jumpi\n      mload(0x40)\n      0x08c379a000000000000000000000000000000000000000000000000000000000\n      dup2\n      mstore\n      0x04\n      add\n      tag_52\n      swap1\n      tag_53\n      jump\t// in\n    tag_52:\n      mload(0x40)\n      dup1\n      swap2\n      sub\n      swap1\n      revert\n    tag_51:\n        /* \"Documents/GitHub/contract-token-cryptoMonster/backend/components/PhasePrivate.sol\":5113:5136  structPhase(true, true) */\n      mload(0x40)\n      dup1\n      0x40\n      add\n      0x40\n      mstore\n      dup1\n        /* \"Documents/GitHub/contract-token-cryptoMonster/backend/components/PhasePrivate.sol\":5125:5129  true */\n      0x01\n        /* \"Documents/GitHub/contract-token-cryptoMonster/backend/components/PhasePrivate.sol\":5113:5136  structPhase(true, true) */\n      iszero\n      iszero\n      dup2\n      mstore\n      0x20\n      add\n        /* \"Documents/GitHub/contract-token-cryptoMonster/backend/components/PhasePrivate.sol\":5131:5135  true */\n      0x01\n        /* \"Documents/GitHub/contract-token-cryptoMonster/backend/components/PhasePrivate.sol\":5113:5136  structPhase(true, true) */\n      iszero\n      iszero\n      dup2\n      mstore\n      pop\n        /* \"Documents/GitHub/contract-token-cryptoMonster/backend/components/PhasePrivate.sol\":5085:5098  structPhases_ */\n      0x01\n        /* \"Documents/GitHub/contract-token-cryptoMonster/backend/components/PhasePrivate.sol\":5085:5110  structPhases_[msg.sender] */\n      0x00\n        /* \"Documents/GitHub/contract-token-cryptoMonster/backend/components/PhasePrivate.sol\":5099:5109  msg.sender */\n      caller\n        /* \"Documents/GitHub/contract-token-cryptoMonster/backend/components/PhasePrivate.sol\":5085:5110  structPhases_[msg.sender] */\n      0xffffffffffffffffffffffffffffffffffffffff\n      and\n      0xffffffffffffffffffffffffffffffffffffffff\n      and\n      dup2\n      mstore\n      0x20\n      add\n      swap1\n      dup2\n      mstore\n      0x20\n      add\n      0x00\n      keccak256\n        /* \"Documents/GitHub/contract-token-cryptoMonster/backend/components/PhasePrivate.sol\":5085:5136  structPhases_[msg.sender] = structPhase(true, true) */\n      0x00\n      dup3\n      add\n      mload\n      dup2\n      0x00\n      add\n      exp(0x0100, 0x00)\n      dup2\n      sload\n      dup2\n      0xff\n      mul\n      not\n      and\n      swap1\n      dup4\n      iszero\n      iszero\n      mul\n      or\n      swap1\n      sstore\n      pop\n      0x20\n      dup3\n      add\n      mload\n      dup2\n      0x00\n      add\n      exp(0x0100, 0x01)\n      dup2\n      sload\n      dup2\n      0xff\n      mul\n      not\n      and\n      swap1\n      dup4\n      iszero\n      iszero\n      mul\n      or\n      swap1\n      sstore\n      pop\n      swap1\n      pop\n      pop\n        /* \"Documents/GitHub/contract-token-cryptoMonster/backend/components/PhasePrivate.sol\":4927:5144  function startPrivatePhase () public onlyPrivateProvider {\r... */\n      jump\t// out\n        /* \"Documents/GitHub/contract-token-cryptoMonster/backend/components/PhasePrivate.sol\":4478:4806  function deviationApplication (address _userAdr) public onlyPrivateProvider {\r... */\n    tag_17:\n        /* \"Documents/GitHub/contract-token-cryptoMonster/backend/shared/helpers/modifireFunc.sol\":567:586  Role.SYSTEM_PRIVATE */\n      0x02\n        /* \"Documents/GitHub/contract-token-cryptoMonster/backend/shared/helpers/modifireFunc.sol\":534:586  structUsers_[msg.sender].role == Role.SYSTEM_PRIVATE */\n      0x04\n      dup2\n      gt\n      iszero\n      tag_55\n      jumpi\n      tag_56\n      tag_44\n      jump\t// in\n    tag_56:\n    tag_55:\n        /* \"Documents/GitHub/contract-token-cryptoMonster/backend/shared/helpers/modifireFunc.sol\":534:546  structUsers_ */\n      0x00\n        /* \"Documents/GitHub/contract-token-cryptoMonster/backend/shared/helpers/modifireFunc.sol\":534:558  structUsers_[msg.sender] */\n      dup1\n        /* \"Documents/GitHub/contract-token-cryptoMonster/backend/shared/helpers/modifireFunc.sol\":547:557  msg.sender */\n      caller\n        /* \"Documents/GitHub/contract-token-cryptoMonster/backend/shared/helpers/modifireFunc.sol\":534:558  structUsers_[msg.sender] */\n      0xffffffffffffffffffffffffffffffffffffffff\n      and\n      0xffffffffffffffffffffffffffffffffffffffff\n      and\n      dup2\n      mstore\n      0x20\n      add\n      swap1\n      dup2\n      mstore\n      0x20\n      add\n      0x00\n      keccak256\n        /* \"Documents/GitHub/contract-token-cryptoMonster/backend/shared/helpers/modifireFunc.sol\":534:563  structUsers_[msg.sender].role */\n      0x00\n      add\n      0x00\n      swap1\n      sload\n      swap1\n      0x0100\n      exp\n      swap1\n      div\n      0xff\n      and\n        /* \"Documents/GitHub/contract-token-cryptoMonster/backend/shared/helpers/modifireFunc.sol\":534:586  structUsers_[msg.sender].role == Role.SYSTEM_PRIVATE */\n      0x04\n      dup2\n      gt\n      iszero\n      tag_57\n      jumpi\n      tag_58\n      tag_44\n      jump\t// in\n    tag_58:\n    tag_57:\n      eq\n        /* \"Documents/GitHub/contract-token-cryptoMonster/backend/shared/helpers/modifireFunc.sol\":526:616  require(structUsers_[msg.sender].role == Role.SYSTEM_PRIVATE, \"Your not Private provider\") */\n      tag_59\n      jumpi\n      mload(0x40)\n      0x08c379a000000000000000000000000000000000000000000000000000000000\n      dup2\n      mstore\n      0x04\n      add\n      tag_60\n      swap1\n      tag_49\n      jump\t// in\n    tag_60:\n      mload(0x40)\n      dup1\n      swap2\n      sub\n      swap1\n      revert\n    tag_59:\n        /* \"Documents/GitHub/contract-token-cryptoMonster/backend/components/PhasePrivate.sol\":4616:4621  false */\n      0x00\n        /* \"Documents/GitHub/contract-token-cryptoMonster/backend/components/PhasePrivate.sol\":4573:4621  strucApplications_[msg.sender].reviewed == false */\n      iszero\n      iszero\n        /* \"Documents/GitHub/contract-token-cryptoMonster/backend/components/PhasePrivate.sol\":4573:4591  strucApplications_ */\n      0x02\n        /* \"Documents/GitHub/contract-token-cryptoMonster/backend/components/PhasePrivate.sol\":4573:4603  strucApplications_[msg.sender] */\n      0x00\n        /* \"Documents/GitHub/contract-token-cryptoMonster/backend/components/PhasePrivate.sol\":4592:4602  msg.sender */\n      caller\n        /* \"Documents/GitHub/contract-token-cryptoMonster/backend/components/PhasePrivate.sol\":4573:4603  strucApplications_[msg.sender] */\n      0xffffffffffffffffffffffffffffffffffffffff\n      and\n      0xffffffffffffffffffffffffffffffffffffffff\n      and\n      dup2\n      mstore\n      0x20\n      add\n      swap1\n      dup2\n      mstore\n      0x20\n      add\n      0x00\n      keccak256\n        /* \"Documents/GitHub/contract-token-cryptoMonster/backend/components/PhasePrivate.sol\":4573:4612  strucApplications_[msg.sender].reviewed */\n      0x02\n      add\n      0x15\n      swap1\n      sload\n      swap1\n      0x0100\n      exp\n      swap1\n      div\n      0xff\n      and\n        /* \"Documents/GitHub/contract-token-cryptoMonster/backend/components/PhasePrivate.sol\":4573:4621  strucApplications_[msg.sender].reviewed == false */\n      iszero\n      iszero\n      eq\n        /* \"Documents/GitHub/contract-token-cryptoMonster/backend/components/PhasePrivate.sol\":4565:4654  require(strucApplications_[msg.sender].reviewed == false, \"Review the application first\") */\n      tag_62\n      jumpi\n      mload(0x40)\n      0x08c379a000000000000000000000000000000000000000000000000000000000\n      dup2\n      mstore\n      0x04\n      add\n      tag_63\n      swap1\n      tag_64\n      jump\t// in\n    tag_63:\n      mload(0x40)\n      dup1\n      swap2\n      sub\n      swap1\n      revert\n    tag_62:\n        /* \"Documents/GitHub/contract-token-cryptoMonster/backend/components/PhasePrivate.sol\":4793:4798  false */\n      0x00\n        /* \"Documents/GitHub/contract-token-cryptoMonster/backend/components/PhasePrivate.sol\":4755:4773  strucApplications_ */\n      0x02\n        /* \"Documents/GitHub/contract-token-cryptoMonster/backend/components/PhasePrivate.sol\":4755:4783  strucApplications_[_userAdr] */\n      0x00\n        /* \"Documents/GitHub/contract-token-cryptoMonster/backend/components/PhasePrivate.sol\":4774:4782  _userAdr */\n      dup4\n        /* \"Documents/GitHub/contract-token-cryptoMonster/backend/components/PhasePrivate.sol\":4755:4783  strucApplications_[_userAdr] */\n      0xffffffffffffffffffffffffffffffffffffffff\n      and\n      0xffffffffffffffffffffffffffffffffffffffff\n      and\n      dup2\n      mstore\n      0x20\n      add\n      swap1\n      dup2\n      mstore\n      0x20\n      add\n      0x00\n      keccak256\n        /* \"Documents/GitHub/contract-token-cryptoMonster/backend/components/PhasePrivate.sol\":4755:4790  strucApplications_[_userAdr].status */\n      0x02\n      add\n      0x14\n        /* \"Documents/GitHub/contract-token-cryptoMonster/backend/components/PhasePrivate.sol\":4755:4798  strucApplications_[_userAdr].status = false */\n      0x0100\n      exp\n      dup2\n      sload\n      dup2\n      0xff\n      mul\n      not\n      and\n      swap1\n      dup4\n      iszero\n      iszero\n      mul\n      or\n      swap1\n      sstore\n      pop\n        /* \"Documents/GitHub/contract-token-cryptoMonster/backend/components/PhasePrivate.sol\":4478:4806  function deviationApplication (address _userAdr) public onlyPrivateProvider {\r... */\n      pop\n      jump\t// out\n        /* \"Documents/GitHub/contract-token-cryptoMonster/backend/components/PhasePrivate.sol\":1866:2111  function getApplicationAmountAdr () public onlyPrivateProvider view returns (address[] memory) {\r... */\n    tag_19:\n        /* \"Documents/GitHub/contract-token-cryptoMonster/backend/components/PhasePrivate.sol\":1943:1959  address[] memory */\n      0x60\n        /* \"Documents/GitHub/contract-token-cryptoMonster/backend/shared/helpers/modifireFunc.sol\":567:586  Role.SYSTEM_PRIVATE */\n      0x02\n        /* \"Documents/GitHub/contract-token-cryptoMonster/backend/shared/helpers/modifireFunc.sol\":534:586  structUsers_[msg.sender].role == Role.SYSTEM_PRIVATE */\n      0x04\n      dup2\n      gt\n      iszero\n      tag_66\n      jumpi\n      tag_67\n      tag_44\n      jump\t// in\n    tag_67:\n    tag_66:\n        /* \"Documents/GitHub/contract-token-cryptoMonster/backend/shared/helpers/modifireFunc.sol\":534:546  structUsers_ */\n      0x00\n        /* \"Documents/GitHub/contract-token-cryptoMonster/backend/shared/helpers/modifireFunc.sol\":534:558  structUsers_[msg.sender] */\n      dup1\n        /* \"Documents/GitHub/contract-token-cryptoMonster/backend/shared/helpers/modifireFunc.sol\":547:557  msg.sender */\n      caller\n        /* \"Documents/GitHub/contract-token-cryptoMonster/backend/shared/helpers/modifireFunc.sol\":534:558  structUsers_[msg.sender] */\n      0xffffffffffffffffffffffffffffffffffffffff\n      and\n      0xffffffffffffffffffffffffffffffffffffffff\n      and\n      dup2\n      mstore\n      0x20\n      add\n      swap1\n      dup2\n      mstore\n      0x20\n      add\n      0x00\n      keccak256\n        /* \"Documents/GitHub/contract-token-cryptoMonster/backend/shared/helpers/modifireFunc.sol\":534:563  structUsers_[msg.sender].role */\n      0x00\n      add\n      0x00\n      swap1\n      sload\n      swap1\n      0x0100\n      exp\n      swap1\n      div\n      0xff\n      and\n        /* \"Documents/GitHub/contract-token-cryptoMonster/backend/shared/helpers/modifireFunc.sol\":534:586  structUsers_[msg.sender].role == Role.SYSTEM_PRIVATE */\n      0x04\n      dup2\n      gt\n      iszero\n      tag_68\n      jumpi\n      tag_69\n      tag_44\n      jump\t// in\n    tag_69:\n    tag_68:\n      eq\n        /* \"Documents/GitHub/contract-token-cryptoMonster/backend/shared/helpers/modifireFunc.sol\":526:616  require(structUsers_[msg.sender].role == Role.SYSTEM_PRIVATE, \"Your not Private provider\") */\n      tag_70\n      jumpi\n      mload(0x40)\n      0x08c379a000000000000000000000000000000000000000000000000000000000\n      dup2\n      mstore\n      0x04\n      add\n      tag_71\n      swap1\n      tag_49\n      jump\t// in\n    tag_71:\n      mload(0x40)\n      dup1\n      swap2\n      sub\n      swap1\n      revert\n    tag_70:\n        /* \"Documents/GitHub/contract-token-cryptoMonster/backend/components/PhasePrivate.sol\":1979:2006  structApplicationsAmountAdr */\n      0x03\n        /* \"Documents/GitHub/contract-token-cryptoMonster/backend/components/PhasePrivate.sol\":1972:2006  return structApplicationsAmountAdr */\n      dup1\n      sload\n      dup1\n      0x20\n      mul\n      0x20\n      add\n      mload(0x40)\n      swap1\n      dup2\n      add\n      0x40\n      mstore\n      dup1\n      swap3\n      swap2\n      swap1\n      dup2\n      dup2\n      mstore\n      0x20\n      add\n      dup3\n      dup1\n      sload\n      dup1\n      iszero\n      tag_73\n      jumpi\n      0x20\n      mul\n      dup3\n      add\n      swap2\n      swap1\n      0x00\n      mstore\n      keccak256(0x00, 0x20)\n      swap1\n    tag_74:\n      dup2\n      0x00\n      swap1\n      sload\n      swap1\n      0x0100\n      exp\n      swap1\n      div\n      0xffffffffffffffffffffffffffffffffffffffff\n      and\n      0xffffffffffffffffffffffffffffffffffffffff\n      and\n      dup2\n      mstore\n      0x20\n      add\n      swap1\n      0x01\n      add\n      swap1\n      dup1\n      dup4\n      gt\n      tag_74\n      jumpi\n    tag_73:\n      pop\n      pop\n      pop\n      pop\n      pop\n      swap1\n      pop\n        /* \"Documents/GitHub/contract-token-cryptoMonster/backend/components/PhasePrivate.sol\":1866:2111  function getApplicationAmountAdr () public onlyPrivateProvider view returns (address[] memory) {\r... */\n      swap1\n      jump\t// out\n        /* \"Documents/GitHub/contract-token-cryptoMonster/backend/components/PhasePrivate.sol\":297:1752  function application(string memory _name, string memory _contactForCommunication, address _userAdr) public {\r... */\n    tag_25:\n        /* \"Documents/GitHub/contract-token-cryptoMonster/backend/components/PhasePrivate.sol\":415:430  bool _tempExist */\n      0x00\n        /* \"Documents/GitHub/contract-token-cryptoMonster/backend/components/PhasePrivate.sol\":530:535  false */\n      dup1\n        /* \"Documents/GitHub/contract-token-cryptoMonster/backend/components/PhasePrivate.sol\":457:535  structPhases_[0xAb8483F64d9C6d1EcF9b849Ae677dD3315835cb2].statusPhase == false */\n      iszero\n      iszero\n        /* \"Documents/GitHub/contract-token-cryptoMonster/backend/components/PhasePrivate.sol\":457:470  structPhases_ */\n      0x01\n        /* \"Documents/GitHub/contract-token-cryptoMonster/backend/components/PhasePrivate.sol\":457:514  structPhases_[0xAb8483F64d9C6d1EcF9b849Ae677dD3315835cb2] */\n      0x00\n        /* \"Documents/GitHub/contract-token-cryptoMonster/backend/components/PhasePrivate.sol\":471:513  0xAb8483F64d9C6d1EcF9b849Ae677dD3315835cb2 */\n      0xab8483f64d9c6d1ecf9b849ae677dd3315835cb2\n        /* \"Documents/GitHub/contract-token-cryptoMonster/backend/components/PhasePrivate.sol\":457:514  structPhases_[0xAb8483F64d9C6d1EcF9b849Ae677dD3315835cb2] */\n      0xffffffffffffffffffffffffffffffffffffffff\n      and\n      0xffffffffffffffffffffffffffffffffffffffff\n      and\n      dup2\n      mstore\n      0x20\n      add\n      swap1\n      dup2\n      mstore\n      0x20\n      add\n      0x00\n      keccak256\n        /* \"Documents/GitHub/contract-token-cryptoMonster/backend/components/PhasePrivate.sol\":457:526  structPhases_[0xAb8483F64d9C6d1EcF9b849Ae677dD3315835cb2].statusPhase */\n      0x00\n      add\n      0x00\n      swap1\n      sload\n      swap1\n      0x0100\n      exp\n      swap1\n      div\n      0xff\n      and\n        /* \"Documents/GitHub/contract-token-cryptoMonster/backend/components/PhasePrivate.sol\":457:535  structPhases_[0xAb8483F64d9C6d1EcF9b849Ae677dD3315835cb2].statusPhase == false */\n      iszero\n      iszero\n      eq\n        /* \"Documents/GitHub/contract-token-cryptoMonster/backend/components/PhasePrivate.sol\":457:617  structPhases_[0xAb8483F64d9C6d1EcF9b849Ae677dD3315835cb2].statusPhase == false && structPhases_[0xAb8483F64d9C6d1EcF9b849Ae677dD3315835cb2].statusPhase == false */\n      dup1\n      iszero\n      tag_76\n      jumpi\n      pop\n        /* \"Documents/GitHub/contract-token-cryptoMonster/backend/components/PhasePrivate.sol\":612:617  false */\n      0x00\n        /* \"Documents/GitHub/contract-token-cryptoMonster/backend/components/PhasePrivate.sol\":539:617  structPhases_[0xAb8483F64d9C6d1EcF9b849Ae677dD3315835cb2].statusPhase == false */\n      iszero\n      iszero\n        /* \"Documents/GitHub/contract-token-cryptoMonster/backend/components/PhasePrivate.sol\":539:552  structPhases_ */\n      0x01\n        /* \"Documents/GitHub/contract-token-cryptoMonster/backend/components/PhasePrivate.sol\":539:596  structPhases_[0xAb8483F64d9C6d1EcF9b849Ae677dD3315835cb2] */\n      0x00\n        /* \"Documents/GitHub/contract-token-cryptoMonster/backend/components/PhasePrivate.sol\":553:595  0xAb8483F64d9C6d1EcF9b849Ae677dD3315835cb2 */\n      0xab8483f64d9c6d1ecf9b849ae677dd3315835cb2\n        /* \"Documents/GitHub/contract-token-cryptoMonster/backend/components/PhasePrivate.sol\":539:596  structPhases_[0xAb8483F64d9C6d1EcF9b849Ae677dD3315835cb2] */\n      0xffffffffffffffffffffffffffffffffffffffff\n      and\n      0xffffffffffffffffffffffffffffffffffffffff\n      and\n      dup2\n      mstore\n      0x20\n      add\n      swap1\n      dup2\n      mstore\n      0x20\n      add\n      0x00\n      keccak256\n        /* \"Documents/GitHub/contract-token-cryptoMonster/backend/components/PhasePrivate.sol\":539:608  structPhases_[0xAb8483F64d9C6d1EcF9b849Ae677dD3315835cb2].statusPhase */\n      0x00\n      add\n      0x00\n      swap1\n      sload\n      swap1\n      0x0100\n      exp\n      swap1\n      div\n      0xff\n      and\n        /* \"Documents/GitHub/contract-token-cryptoMonster/backend/components/PhasePrivate.sol\":539:617  structPhases_[0xAb8483F64d9C6d1EcF9b849Ae677dD3315835cb2].statusPhase == false */\n      iszero\n      iszero\n      eq\n        /* \"Documents/GitHub/contract-token-cryptoMonster/backend/components/PhasePrivate.sol\":457:617  structPhases_[0xAb8483F64d9C6d1EcF9b849Ae677dD3315835cb2].statusPhase == false && structPhases_[0xAb8483F64d9C6d1EcF9b849Ae677dD3315835cb2].statusPhase == false */\n    tag_76:\n        /* \"Documents/GitHub/contract-token-cryptoMonster/backend/components/PhasePrivate.sol\":449:645  require(structPhases_[0xAb8483F64d9C6d1EcF9b849Ae677dD3315835cb2].statusPhase == false && structPhases_[0xAb8483F64d9C6d1EcF9b849Ae677dD3315835cb2].statusPhase == false, \"Application phase ended\") */\n      tag_77\n      jumpi\n      mload(0x40)\n      0x08c379a000000000000000000000000000000000000000000000000000000000\n      dup2\n      mstore\n      0x04\n      add\n      tag_78\n      swap1\n      tag_79\n      jump\t// in\n    tag_78:\n      mload(0x40)\n      dup1\n      swap2\n      sub\n      swap1\n      revert\n    tag_77:\n        /* \"Documents/GitHub/contract-token-cryptoMonster/backend/components/PhasePrivate.sol\":783:791  _userAdr */\n      dup2\n        /* \"Documents/GitHub/contract-token-cryptoMonster/backend/components/PhasePrivate.sol\":769:791  msg.sender == _userAdr */\n      0xffffffffffffffffffffffffffffffffffffffff\n      and\n        /* \"Documents/GitHub/contract-token-cryptoMonster/backend/components/PhasePrivate.sol\":769:779  msg.sender */\n      caller\n        /* \"Documents/GitHub/contract-token-cryptoMonster/backend/components/PhasePrivate.sol\":769:791  msg.sender == _userAdr */\n      0xffffffffffffffffffffffffffffffffffffffff\n      and\n      eq\n        /* \"Documents/GitHub/contract-token-cryptoMonster/backend/components/PhasePrivate.sol\":761:851  require(msg.sender == _userAdr, \"You can't send an application to someone else's address\") */\n      tag_80\n      jumpi\n      mload(0x40)\n      0x08c379a000000000000000000000000000000000000000000000000000000000\n      dup2\n      mstore\n      0x04\n      add\n      tag_81\n      swap1\n      tag_82\n      jump\t// in\n    tag_81:\n      mload(0x40)\n      dup1\n      swap2\n      sub\n      swap1\n      revert\n    tag_80:\n        /* \"Documents/GitHub/contract-token-cryptoMonster/backend/components/PhasePrivate.sol\":867:873  uint i */\n      0x00\n        /* \"Documents/GitHub/contract-token-cryptoMonster/backend/components/PhasePrivate.sol\":862:1191  for (uint i = 0; i < structApplicationsAmountAdr.length; i++) {\r... */\n    tag_83:\n        /* \"Documents/GitHub/contract-token-cryptoMonster/backend/components/PhasePrivate.sol\":883:910  structApplicationsAmountAdr */\n      0x03\n        /* \"Documents/GitHub/contract-token-cryptoMonster/backend/components/PhasePrivate.sol\":883:917  structApplicationsAmountAdr.length */\n      dup1\n      sload\n      swap1\n      pop\n        /* \"Documents/GitHub/contract-token-cryptoMonster/backend/components/PhasePrivate.sol\":879:880  i */\n      dup2\n        /* \"Documents/GitHub/contract-token-cryptoMonster/backend/components/PhasePrivate.sol\":879:917  i < structApplicationsAmountAdr.length */\n      lt\n        /* \"Documents/GitHub/contract-token-cryptoMonster/backend/components/PhasePrivate.sol\":862:1191  for (uint i = 0; i < structApplicationsAmountAdr.length; i++) {\r... */\n      iszero\n      tag_84\n      jumpi\n        /* \"Documents/GitHub/contract-token-cryptoMonster/backend/components/PhasePrivate.sol\":977:987  msg.sender */\n      caller\n        /* \"Documents/GitHub/contract-token-cryptoMonster/backend/components/PhasePrivate.sol\":943:987  structApplicationsAmountAdr[i] == msg.sender */\n      0xffffffffffffffffffffffffffffffffffffffff\n      and\n        /* \"Documents/GitHub/contract-token-cryptoMonster/backend/components/PhasePrivate.sol\":943:970  structApplicationsAmountAdr */\n      0x03\n        /* \"Documents/GitHub/contract-token-cryptoMonster/backend/components/PhasePrivate.sol\":971:972  i */\n      dup3\n        /* \"Documents/GitHub/contract-token-cryptoMonster/backend/components/PhasePrivate.sol\":943:973  structApplicationsAmountAdr[i] */\n      dup2\n      sload\n      dup2\n      lt\n      tag_86\n      jumpi\n      tag_87\n      tag_88\n      jump\t// in\n    tag_87:\n    tag_86:\n      swap1\n      0x00\n      mstore\n      keccak256(0x00, 0x20)\n      add\n      0x00\n      swap1\n      sload\n      swap1\n      0x0100\n      exp\n      swap1\n      div\n      0xffffffffffffffffffffffffffffffffffffffff\n      and\n        /* \"Documents/GitHub/contract-token-cryptoMonster/backend/components/PhasePrivate.sol\":943:987  structApplicationsAmountAdr[i] == msg.sender */\n      0xffffffffffffffffffffffffffffffffffffffff\n      and\n      eq\n        /* \"Documents/GitHub/contract-token-cryptoMonster/backend/components/PhasePrivate.sol\":939:1041  if (structApplicationsAmountAdr[i] == msg.sender) {\r... */\n      iszero\n      tag_90\n      jumpi\n        /* \"Documents/GitHub/contract-token-cryptoMonster/backend/components/PhasePrivate.sol\":1021:1025  true */\n      0x01\n        /* \"Documents/GitHub/contract-token-cryptoMonster/backend/components/PhasePrivate.sol\":1008:1025  _tempExist = true */\n      swap2\n      pop\n        /* \"Documents/GitHub/contract-token-cryptoMonster/backend/components/PhasePrivate.sol\":939:1041  if (structApplicationsAmountAdr[i] == msg.sender) {\r... */\n    tag_90:\n        /* \"Documents/GitHub/contract-token-cryptoMonster/backend/components/PhasePrivate.sol\":1077:1082  false */\n      0x00\n        /* \"Documents/GitHub/contract-token-cryptoMonster/backend/components/PhasePrivate.sol\":1063:1082  _tempExist == false */\n      iszero\n      iszero\n        /* \"Documents/GitHub/contract-token-cryptoMonster/backend/components/PhasePrivate.sol\":1063:1073  _tempExist */\n      dup3\n        /* \"Documents/GitHub/contract-token-cryptoMonster/backend/components/PhasePrivate.sol\":1063:1082  _tempExist == false */\n      iszero\n      iszero\n      eq\n        /* \"Documents/GitHub/contract-token-cryptoMonster/backend/components/PhasePrivate.sol\":1055:1111  require(_tempExist == false, \"Application already sent\") */\n      tag_91\n      jumpi\n      mload(0x40)\n      0x08c379a000000000000000000000000000000000000000000000000000000000\n      dup2\n      mstore\n      0x04\n      add\n      tag_92\n      swap1\n      tag_93\n      jump\t// in\n    tag_92:\n      mload(0x40)\n      dup1\n      swap2\n      sub\n      swap1\n      revert\n    tag_91:\n        /* \"Documents/GitHub/contract-token-cryptoMonster/backend/components/PhasePrivate.sol\":919:922  i++ */\n      dup1\n      dup1\n      tag_94\n      swap1\n      tag_95\n      jump\t// in\n    tag_94:\n      swap2\n      pop\n      pop\n        /* \"Documents/GitHub/contract-token-cryptoMonster/backend/components/PhasePrivate.sol\":862:1191  for (uint i = 0; i < structApplicationsAmountAdr.length; i++) {\r... */\n      jump(tag_83)\n    tag_84:\n      pop\n        /* \"Documents/GitHub/contract-token-cryptoMonster/backend/components/PhasePrivate.sol\":1250:1255  false */\n      0x00\n        /* \"Documents/GitHub/contract-token-cryptoMonster/backend/components/PhasePrivate.sol\":1209:1255  strucApplications_[msg.sender].status == false */\n      iszero\n      iszero\n        /* \"Documents/GitHub/contract-token-cryptoMonster/backend/components/PhasePrivate.sol\":1209:1227  strucApplications_ */\n      0x02\n        /* \"Documents/GitHub/contract-token-cryptoMonster/backend/components/PhasePrivate.sol\":1209:1239  strucApplications_[msg.sender] */\n      0x00\n        /* \"Documents/GitHub/contract-token-cryptoMonster/backend/components/PhasePrivate.sol\":1228:1238  msg.sender */\n      caller\n        /* \"Documents/GitHub/contract-token-cryptoMonster/backend/components/PhasePrivate.sol\":1209:1239  strucApplications_[msg.sender] */\n      0xffffffffffffffffffffffffffffffffffffffff\n      and\n      0xffffffffffffffffffffffffffffffffffffffff\n      and\n      dup2\n      mstore\n      0x20\n      add\n      swap1\n      dup2\n      mstore\n      0x20\n      add\n      0x00\n      keccak256\n        /* \"Documents/GitHub/contract-token-cryptoMonster/backend/components/PhasePrivate.sol\":1209:1246  strucApplications_[msg.sender].status */\n      0x02\n      add\n      0x14\n      swap1\n      sload\n      swap1\n      0x0100\n      exp\n      swap1\n      div\n      0xff\n      and\n        /* \"Documents/GitHub/contract-token-cryptoMonster/backend/components/PhasePrivate.sol\":1209:1255  strucApplications_[msg.sender].status == false */\n      iszero\n      iszero\n      eq\n        /* \"Documents/GitHub/contract-token-cryptoMonster/backend/components/PhasePrivate.sol\":1201:1302  require(strucApplications_[msg.sender].status == false, \"Your application has already been rejected\") */\n      tag_96\n      jumpi\n      mload(0x40)\n      0x08c379a000000000000000000000000000000000000000000000000000000000\n      dup2\n      mstore\n      0x04\n      add\n      tag_97\n      swap1\n      tag_98\n      jump\t// in\n    tag_97:\n      mload(0x40)\n      dup1\n      swap2\n      sub\n      swap1\n      revert\n    tag_96:\n        /* \"Documents/GitHub/contract-token-cryptoMonster/backend/components/PhasePrivate.sol\":1419:1498  structApplication(_name, _contactForCommunication, _userAdr, true, false, true) */\n      mload(0x40)\n      dup1\n      0xc0\n      add\n      0x40\n      mstore\n      dup1\n        /* \"Documents/GitHub/contract-token-cryptoMonster/backend/components/PhasePrivate.sol\":1437:1442  _name */\n      dup6\n        /* \"Documents/GitHub/contract-token-cryptoMonster/backend/components/PhasePrivate.sol\":1419:1498  structApplication(_name, _contactForCommunication, _userAdr, true, false, true) */\n      dup2\n      mstore\n      0x20\n      add\n        /* \"Documents/GitHub/contract-token-cryptoMonster/backend/components/PhasePrivate.sol\":1444:1468  _contactForCommunication */\n      dup5\n        /* \"Documents/GitHub/contract-token-cryptoMonster/backend/components/PhasePrivate.sol\":1419:1498  structApplication(_name, _contactForCommunication, _userAdr, true, false, true) */\n      dup2\n      mstore\n      0x20\n      add\n        /* \"Documents/GitHub/contract-token-cryptoMonster/backend/components/PhasePrivate.sol\":1470:1478  _userAdr */\n      dup4\n        /* \"Documents/GitHub/contract-token-cryptoMonster/backend/components/PhasePrivate.sol\":1419:1498  structApplication(_name, _contactForCommunication, _userAdr, true, false, true) */\n      0xffffffffffffffffffffffffffffffffffffffff\n      and\n      dup2\n      mstore\n      0x20\n      add\n        /* \"Documents/GitHub/contract-token-cryptoMonster/backend/components/PhasePrivate.sol\":1480:1484  true */\n      0x01\n        /* \"Documents/GitHub/contract-token-cryptoMonster/backend/components/PhasePrivate.sol\":1419:1498  structApplication(_name, _contactForCommunication, _userAdr, true, false, true) */\n      iszero\n      iszero\n      dup2\n      mstore\n      0x20\n      add\n        /* \"Documents/GitHub/contract-token-cryptoMonster/backend/components/PhasePrivate.sol\":1486:1491  false */\n      0x00\n        /* \"Documents/GitHub/contract-token-cryptoMonster/backend/components/PhasePrivate.sol\":1419:1498  structApplication(_name, _contactForCommunication, _userAdr, true, false, true) */\n      iszero\n      iszero\n      dup2\n      mstore\n      0x20\n      add\n        /* \"Documents/GitHub/contract-token-cryptoMonster/backend/components/PhasePrivate.sol\":1493:1497  true */\n      0x01\n        /* \"Documents/GitHub/contract-token-cryptoMonster/backend/components/PhasePrivate.sol\":1419:1498  structApplication(_name, _contactForCommunication, _userAdr, true, false, true) */\n      iszero\n      iszero\n      dup2\n      mstore\n      pop\n        /* \"Documents/GitHub/contract-token-cryptoMonster/backend/components/PhasePrivate.sol\":1385:1403  strucApplications_ */\n      0x02\n        /* \"Documents/GitHub/contract-token-cryptoMonster/backend/components/PhasePrivate.sol\":1385:1415  strucApplications_[msg.sender] */\n      0x00\n        /* \"Documents/GitHub/contract-token-cryptoMonster/backend/components/PhasePrivate.sol\":1404:1414  msg.sender */\n      caller\n        /* \"Documents/GitHub/contract-token-cryptoMonster/backend/components/PhasePrivate.sol\":1385:1415  strucApplications_[msg.sender] */\n      0xffffffffffffffffffffffffffffffffffffffff\n      and\n      0xffffffffffffffffffffffffffffffffffffffff\n      and\n      dup2\n      mstore\n      0x20\n      add\n      swap1\n      dup2\n      mstore\n      0x20\n      add\n      0x00\n      keccak256\n        /* \"Documents/GitHub/contract-token-cryptoMonster/backend/components/PhasePrivate.sol\":1385:1498  strucApplications_[msg.sender]  = structApplication(_name, _contactForCommunication, _userAdr, true, false, true) */\n      0x00\n      dup3\n      add\n      mload\n      dup2\n      0x00\n      add\n      swap1\n      dup1\n      mload\n      swap1\n      0x20\n      add\n      swap1\n      tag_99\n      swap3\n      swap2\n      swap1\n      tag_100\n      jump\t// in\n    tag_99:\n      pop\n      0x20\n      dup3\n      add\n      mload\n      dup2\n      0x01\n      add\n      swap1\n      dup1\n      mload\n      swap1\n      0x20\n      add\n      swap1\n      tag_101\n      swap3\n      swap2\n      swap1\n      tag_100\n      jump\t// in\n    tag_101:\n      pop\n      0x40\n      dup3\n      add\n      mload\n      dup2\n      0x02\n      add\n      exp(0x0100, 0x00)\n      dup2\n      sload\n      dup2\n      0xffffffffffffffffffffffffffffffffffffffff\n      mul\n      not\n      and\n      swap1\n      dup4\n      0xffffffffffffffffffffffffffffffffffffffff\n      and\n      mul\n      or\n      swap1\n      sstore\n      pop\n      0x60\n      dup3\n      add\n      mload\n      dup2\n      0x02\n      add\n      exp(0x0100, 0x14)\n      dup2\n      sload\n      dup2\n      0xff\n      mul\n      not\n      and\n      swap1\n      dup4\n      iszero\n      iszero\n      mul\n      or\n      swap1\n      sstore\n      pop\n      0x80\n      dup3\n      add\n      mload\n      dup2\n      0x02\n      add\n      exp(0x0100, 0x15)\n      dup2\n      sload\n      dup2\n      0xff\n      mul\n      not\n      and\n      swap1\n      dup4\n      iszero\n      iszero\n      mul\n      or\n      swap1\n      sstore\n      pop\n      0xa0\n      dup3\n      add\n      mload\n      dup2\n      0x02\n      add\n      exp(0x0100, 0x16)\n      dup2\n      sload\n      dup2\n      0xff\n      mul\n      not\n      and\n      swap1\n      dup4\n      iszero\n      iszero\n      mul\n      or\n      swap1\n      sstore\n      pop\n      swap1\n      pop\n      pop\n        /* \"Documents/GitHub/contract-token-cryptoMonster/backend/components/PhasePrivate.sol\":1567:1594  structApplicationsAmountAdr */\n      0x03\n        /* \"Documents/GitHub/contract-token-cryptoMonster/backend/components/PhasePrivate.sol\":1600:1610  msg.sender */\n      caller\n        /* \"Documents/GitHub/contract-token-cryptoMonster/backend/components/PhasePrivate.sol\":1567:1611  structApplicationsAmountAdr.push(msg.sender) */\n      swap1\n      dup1\n      0x01\n      dup2\n      sload\n      add\n      dup1\n      dup3\n      sstore\n      dup1\n      swap2\n      pop\n      pop\n      0x01\n      swap1\n      sub\n      swap1\n      0x00\n      mstore\n      keccak256(0x00, 0x20)\n      add\n      0x00\n      swap1\n      swap2\n      swap1\n      swap2\n      swap1\n      swap2\n      0x0100\n      exp\n      dup2\n      sload\n      dup2\n      0xffffffffffffffffffffffffffffffffffffffff\n      mul\n      not\n      and\n      swap1\n      dup4\n      0xffffffffffffffffffffffffffffffffffffffff\n      and\n      mul\n      or\n      swap1\n      sstore\n      pop\n        /* \"Documents/GitHub/contract-token-cryptoMonster/backend/components/PhasePrivate.sol\":404:1752  {\r... */\n      pop\n        /* \"Documents/GitHub/contract-token-cryptoMonster/backend/components/PhasePrivate.sol\":297:1752  function application(string memory _name, string memory _contactForCommunication, address _userAdr) public {\r... */\n      pop\n      pop\n      pop\n      jump\t// out\n        /* \"Documents/GitHub/contract-token-cryptoMonster/backend/shared/helpers/helpresFunc.sol\":689:799  function get_blackList() public onlyOwner view returns (address[] memory) {\r... */\n    tag_27:\n        /* \"Documents/GitHub/contract-token-cryptoMonster/backend/shared/helpers/helpresFunc.sol\":745:761  address[] memory */\n      0x60\n        /* \"Documents/GitHub/contract-token-cryptoMonster/backend/shared/helpers/modifireFunc.sol\":320:337  Role.SYSTEM_OWNER */\n      0x00\n        /* \"Documents/GitHub/contract-token-cryptoMonster/backend/shared/helpers/modifireFunc.sol\":287:337  structUsers_[msg.sender].role == Role.SYSTEM_OWNER */\n      0x04\n      dup2\n      gt\n      iszero\n      tag_104\n      jumpi\n      tag_105\n      tag_44\n      jump\t// in\n    tag_105:\n    tag_104:\n        /* \"Documents/GitHub/contract-token-cryptoMonster/backend/shared/helpers/modifireFunc.sol\":287:299  structUsers_ */\n      0x00\n        /* \"Documents/GitHub/contract-token-cryptoMonster/backend/shared/helpers/modifireFunc.sol\":287:311  structUsers_[msg.sender] */\n      dup1\n        /* \"Documents/GitHub/contract-token-cryptoMonster/backend/shared/helpers/modifireFunc.sol\":300:310  msg.sender */\n      caller\n        /* \"Documents/GitHub/contract-token-cryptoMonster/backend/shared/helpers/modifireFunc.sol\":287:311  structUsers_[msg.sender] */\n      0xffffffffffffffffffffffffffffffffffffffff\n      and\n      0xffffffffffffffffffffffffffffffffffffffff\n      and\n      dup2\n      mstore\n      0x20\n      add\n      swap1\n      dup2\n      mstore\n      0x20\n      add\n      0x00\n      keccak256\n        /* \"Documents/GitHub/contract-token-cryptoMonster/backend/shared/helpers/modifireFunc.sol\":287:316  structUsers_[msg.sender].role */\n      0x00\n      add\n      0x00\n      swap1\n      sload\n      swap1\n      0x0100\n      exp\n      swap1\n      div\n      0xff\n      and\n        /* \"Documents/GitHub/contract-token-cryptoMonster/backend/shared/helpers/modifireFunc.sol\":287:337  structUsers_[msg.sender].role == Role.SYSTEM_OWNER */\n      0x04\n      dup2\n      gt\n      iszero\n      tag_106\n      jumpi\n      tag_107\n      tag_44\n      jump\t// in\n    tag_107:\n    tag_106:\n      eq\n        /* \"Documents/GitHub/contract-token-cryptoMonster/backend/shared/helpers/modifireFunc.sol\":279:356  require(structUsers_[msg.sender].role == Role.SYSTEM_OWNER, \"Your not admin\") */\n      tag_108\n      jumpi\n      mload(0x40)\n      0x08c379a000000000000000000000000000000000000000000000000000000000\n      dup2\n      mstore\n      0x04\n      add\n      tag_109\n      swap1\n      tag_110\n      jump\t// in\n    tag_109:\n      mload(0x40)\n      dup1\n      swap2\n      sub\n      swap1\n      revert\n    tag_108:\n        /* \"Documents/GitHub/contract-token-cryptoMonster/backend/shared/helpers/helpresFunc.sol\":781:790  blackList */\n      0x05\n        /* \"Documents/GitHub/contract-token-cryptoMonster/backend/shared/helpers/helpresFunc.sol\":774:791  return(blackList) */\n      dup1\n      sload\n      dup1\n      0x20\n      mul\n      0x20\n      add\n      mload(0x40)\n      swap1\n      dup2\n      add\n      0x40\n      mstore\n      dup1\n      swap3\n      swap2\n      swap1\n      dup2\n      dup2\n      mstore\n      0x20\n      add\n      dup3\n      dup1\n      sload\n      dup1\n      iszero\n      tag_112\n      jumpi\n      0x20\n      mul\n      dup3\n      add\n      swap2\n      swap1\n      0x00\n      mstore\n      keccak256(0x00, 0x20)\n      swap1\n    tag_113:\n      dup2\n      0x00\n      swap1\n      sload\n      swap1\n      0x0100\n      exp\n      swap1\n      div\n      0xffffffffffffffffffffffffffffffffffffffff\n      and\n      0xffffffffffffffffffffffffffffffffffffffff\n      and\n      dup2\n      mstore\n      0x20\n      add\n      swap1\n      0x01\n      add\n      swap1\n      dup1\n      dup4\n      gt\n      tag_113\n      jumpi\n    tag_112:\n      pop\n      pop\n      pop\n      pop\n      pop\n      swap1\n      pop\n        /* \"Documents/GitHub/contract-token-cryptoMonster/backend/shared/helpers/helpresFunc.sol\":689:799  function get_blackList() public onlyOwner view returns (address[] memory) {\r... */\n      swap1\n      jump\t// out\n        /* \"Documents/GitHub/contract-token-cryptoMonster/backend/shared/helpers/helpresFunc.sol\":212:350  function get_keccak256(string memory _hash) public pure returns(bytes32) {\r... */\n    tag_32:\n        /* \"Documents/GitHub/contract-token-cryptoMonster/backend/shared/helpers/helpresFunc.sol\":276:283  bytes32 */\n      0x00\n        /* \"Documents/GitHub/contract-token-cryptoMonster/backend/shared/helpers/helpresFunc.sol\":334:339  _hash */\n      dup2\n        /* \"Documents/GitHub/contract-token-cryptoMonster/backend/shared/helpers/helpresFunc.sol\":317:340  abi.encodePacked(_hash) */\n      add(0x20, mload(0x40))\n      tag_115\n      swap2\n      swap1\n      tag_116\n      jump\t// in\n    tag_115:\n      mload(0x40)\n      0x20\n      dup2\n      dup4\n      sub\n      sub\n      dup2\n      mstore\n      swap1\n      0x40\n      mstore\n        /* \"Documents/GitHub/contract-token-cryptoMonster/backend/shared/helpers/helpresFunc.sol\":307:341  keccak256(abi.encodePacked(_hash)) */\n      dup1\n      mload\n      swap1\n      0x20\n      add\n      keccak256\n        /* \"Documents/GitHub/contract-token-cryptoMonster/backend/shared/helpers/helpresFunc.sol\":300:342  return(keccak256(abi.encodePacked(_hash))) */\n      swap1\n      pop\n        /* \"Documents/GitHub/contract-token-cryptoMonster/backend/shared/helpers/helpresFunc.sol\":212:350  function get_keccak256(string memory _hash) public pure returns(bytes32) {\r... */\n      swap2\n      swap1\n      pop\n      jump\t// out\n        /* \"Documents/GitHub/contract-token-cryptoMonster/backend/components/PhasePrivate.sol\":3595:4394  function acceptApplication (address _userAdr) public onlyPrivateProvider {\r... */\n    tag_37:\n        /* \"Documents/GitHub/contract-token-cryptoMonster/backend/shared/helpers/modifireFunc.sol\":567:586  Role.SYSTEM_PRIVATE */\n      0x02\n        /* \"Documents/GitHub/contract-token-cryptoMonster/backend/shared/helpers/modifireFunc.sol\":534:586  structUsers_[msg.sender].role == Role.SYSTEM_PRIVATE */\n      0x04\n      dup2\n      gt\n      iszero\n      tag_118\n      jumpi\n      tag_119\n      tag_44\n      jump\t// in\n    tag_119:\n    tag_118:\n        /* \"Documents/GitHub/contract-token-cryptoMonster/backend/shared/helpers/modifireFunc.sol\":534:546  structUsers_ */\n      0x00\n        /* \"Documents/GitHub/contract-token-cryptoMonster/backend/shared/helpers/modifireFunc.sol\":534:558  structUsers_[msg.sender] */\n      dup1\n        /* \"Documents/GitHub/contract-token-cryptoMonster/backend/shared/helpers/modifireFunc.sol\":547:557  msg.sender */\n      caller\n        /* \"Documents/GitHub/contract-token-cryptoMonster/backend/shared/helpers/modifireFunc.sol\":534:558  structUsers_[msg.sender] */\n      0xffffffffffffffffffffffffffffffffffffffff\n      and\n      0xffffffffffffffffffffffffffffffffffffffff\n      and\n      dup2\n      mstore\n      0x20\n      add\n      swap1\n      dup2\n      mstore\n      0x20\n      add\n      0x00\n      keccak256\n        /* \"Documents/GitHub/contract-token-cryptoMonster/backend/shared/helpers/modifireFunc.sol\":534:563  structUsers_[msg.sender].role */\n      0x00\n      add\n      0x00\n      swap1\n      sload\n      swap1\n      0x0100\n      exp\n      swap1\n      div\n      0xff\n      and\n        /* \"Documents/GitHub/contract-token-cryptoMonster/backend/shared/helpers/modifireFunc.sol\":534:586  structUsers_[msg.sender].role == Role.SYSTEM_PRIVATE */\n      0x04\n      dup2\n      gt\n      iszero\n      tag_120\n      jumpi\n      tag_121\n      tag_44\n      jump\t// in\n    tag_121:\n    tag_120:\n      eq\n        /* \"Documents/GitHub/contract-token-cryptoMonster/backend/shared/helpers/modifireFunc.sol\":526:616  require(structUsers_[msg.sender].role == Role.SYSTEM_PRIVATE, \"Your not Private provider\") */\n      tag_122\n      jumpi\n      mload(0x40)\n      0x08c379a000000000000000000000000000000000000000000000000000000000\n      dup2\n      mstore\n      0x04\n      add\n      tag_123\n      swap1\n      tag_49\n      jump\t// in\n    tag_123:\n      mload(0x40)\n      dup1\n      swap2\n      sub\n      swap1\n      revert\n    tag_122:\n        /* \"Documents/GitHub/contract-token-cryptoMonster/backend/components/PhasePrivate.sol\":3730:3735  false */\n      0x00\n        /* \"Documents/GitHub/contract-token-cryptoMonster/backend/components/PhasePrivate.sol\":3687:3735  strucApplications_[msg.sender].reviewed == false */\n      iszero\n      iszero\n        /* \"Documents/GitHub/contract-token-cryptoMonster/backend/components/PhasePrivate.sol\":3687:3705  strucApplications_ */\n      0x02\n        /* \"Documents/GitHub/contract-token-cryptoMonster/backend/components/PhasePrivate.sol\":3687:3717  strucApplications_[msg.sender] */\n      0x00\n        /* \"Documents/GitHub/contract-token-cryptoMonster/backend/components/PhasePrivate.sol\":3706:3716  msg.sender */\n      caller\n        /* \"Documents/GitHub/contract-token-cryptoMonster/backend/components/PhasePrivate.sol\":3687:3717  strucApplications_[msg.sender] */\n      0xffffffffffffffffffffffffffffffffffffffff\n      and\n      0xffffffffffffffffffffffffffffffffffffffff\n      and\n      dup2\n      mstore\n      0x20\n      add\n      swap1\n      dup2\n      mstore\n      0x20\n      add\n      0x00\n      keccak256\n        /* \"Documents/GitHub/contract-token-cryptoMonster/backend/components/PhasePrivate.sol\":3687:3726  strucApplications_[msg.sender].reviewed */\n      0x02\n      add\n      0x15\n      swap1\n      sload\n      swap1\n      0x0100\n      exp\n      swap1\n      div\n      0xff\n      and\n        /* \"Documents/GitHub/contract-token-cryptoMonster/backend/components/PhasePrivate.sol\":3687:3735  strucApplications_[msg.sender].reviewed == false */\n      iszero\n      iszero\n      eq\n        /* \"Documents/GitHub/contract-token-cryptoMonster/backend/components/PhasePrivate.sol\":3679:3768  require(strucApplications_[msg.sender].reviewed == false, \"Review the application first\") */\n      tag_125\n      jumpi\n      mload(0x40)\n      0x08c379a000000000000000000000000000000000000000000000000000000000\n      dup2\n      mstore\n      0x04\n      add\n      tag_126\n      swap1\n      tag_64\n      jump\t// in\n    tag_126:\n      mload(0x40)\n      dup1\n      swap2\n      sub\n      swap1\n      revert\n    tag_125:\n        /* \"Documents/GitHub/contract-token-cryptoMonster/backend/components/PhasePrivate.sol\":3907:3912  false */\n      0x00\n        /* \"Documents/GitHub/contract-token-cryptoMonster/backend/components/PhasePrivate.sol\":3869:3887  strucApplications_ */\n      0x02\n        /* \"Documents/GitHub/contract-token-cryptoMonster/backend/components/PhasePrivate.sol\":3869:3897  strucApplications_[_userAdr] */\n      0x00\n        /* \"Documents/GitHub/contract-token-cryptoMonster/backend/components/PhasePrivate.sol\":3888:3896  _userAdr */\n      dup4\n        /* \"Documents/GitHub/contract-token-cryptoMonster/backend/components/PhasePrivate.sol\":3869:3897  strucApplications_[_userAdr] */\n      0xffffffffffffffffffffffffffffffffffffffff\n      and\n      0xffffffffffffffffffffffffffffffffffffffff\n      and\n      dup2\n      mstore\n      0x20\n      add\n      swap1\n      dup2\n      mstore\n      0x20\n      add\n      0x00\n      keccak256\n        /* \"Documents/GitHub/contract-token-cryptoMonster/backend/components/PhasePrivate.sol\":3869:3904  strucApplications_[_userAdr].status */\n      0x02\n      add\n      0x14\n        /* \"Documents/GitHub/contract-token-cryptoMonster/backend/components/PhasePrivate.sol\":3869:3912  strucApplications_[_userAdr].status = false */\n      0x0100\n      exp\n      dup2\n      sload\n      dup2\n      0xff\n      mul\n      not\n      and\n      swap1\n      dup4\n      iszero\n      iszero\n      mul\n      or\n      swap1\n      sstore\n      pop\n        /* \"Documents/GitHub/contract-token-cryptoMonster/backend/components/PhasePrivate.sol\":3976:4003  structApplicationsAmountAdr */\n      0x03\n        /* \"Documents/GitHub/contract-token-cryptoMonster/backend/components/PhasePrivate.sol\":4009:4017  _userAdr */\n      dup2\n        /* \"Documents/GitHub/contract-token-cryptoMonster/backend/components/PhasePrivate.sol\":3976:4018  structApplicationsAmountAdr.push(_userAdr) */\n      swap1\n      dup1\n      0x01\n      dup2\n      sload\n      add\n      dup1\n      dup3\n      sstore\n      dup1\n      swap2\n      pop\n      pop\n      0x01\n      swap1\n      sub\n      swap1\n      0x00\n      mstore\n      keccak256(0x00, 0x20)\n      add\n      0x00\n      swap1\n      swap2\n      swap1\n      swap2\n      swap1\n      swap2\n      0x0100\n      exp\n      dup2\n      sload\n      dup2\n      0xffffffffffffffffffffffffffffffffffffffff\n      mul\n      not\n      and\n      swap1\n      dup4\n      0xffffffffffffffffffffffffffffffffffffffff\n      and\n      mul\n      or\n      swap1\n      sstore\n      pop\n        /* \"Documents/GitHub/contract-token-cryptoMonster/backend/components/PhasePrivate.sol\":4156:4165  whiteList */\n      0x04\n        /* \"Documents/GitHub/contract-token-cryptoMonster/backend/components/PhasePrivate.sol\":4171:4179  _userAdr */\n      dup2\n        /* \"Documents/GitHub/contract-token-cryptoMonster/backend/components/PhasePrivate.sol\":4156:4180  whiteList.push(_userAdr) */\n      swap1\n      dup1\n      0x01\n      dup2\n      sload\n      add\n      dup1\n      dup3\n      sstore\n      dup1\n      swap2\n      pop\n      pop\n      0x01\n      swap1\n      sub\n      swap1\n      0x00\n      mstore\n      keccak256(0x00, 0x20)\n      add\n      0x00\n      swap1\n      swap2\n      swap1\n      swap2\n      swap1\n      swap2\n      0x0100\n      exp\n      dup2\n      sload\n      dup2\n      0xffffffffffffffffffffffffffffffffffffffff\n      mul\n      not\n      and\n      swap1\n      dup4\n      0xffffffffffffffffffffffffffffffffffffffff\n      and\n      mul\n      or\n      swap1\n      sstore\n      pop\n        /* \"Documents/GitHub/contract-token-cryptoMonster/backend/components/PhasePrivate.sol\":4298:4386  structUser(Role.USER, strucApplications_[_userAdr].name, get_keccak256(\"0\"), 0, 0, 0, 0) */\n      mload(0x40)\n      dup1\n      0xe0\n      add\n      0x40\n      mstore\n      dup1\n        /* \"Documents/GitHub/contract-token-cryptoMonster/backend/components/PhasePrivate.sol\":4309:4318  Role.USER */\n      0x04\n        /* \"Documents/GitHub/contract-token-cryptoMonster/backend/components/PhasePrivate.sol\":4298:4386  structUser(Role.USER, strucApplications_[_userAdr].name, get_keccak256(\"0\"), 0, 0, 0, 0) */\n      dup1\n      dup2\n      gt\n      iszero\n      tag_129\n      jumpi\n      tag_130\n      tag_44\n      jump\t// in\n    tag_130:\n    tag_129:\n      dup2\n      mstore\n      0x20\n      add\n        /* \"Documents/GitHub/contract-token-cryptoMonster/backend/components/PhasePrivate.sol\":4320:4338  strucApplications_ */\n      0x02\n        /* \"Documents/GitHub/contract-token-cryptoMonster/backend/components/PhasePrivate.sol\":4320:4348  strucApplications_[_userAdr] */\n      0x00\n        /* \"Documents/GitHub/contract-token-cryptoMonster/backend/components/PhasePrivate.sol\":4339:4347  _userAdr */\n      dup5\n        /* \"Documents/GitHub/contract-token-cryptoMonster/backend/components/PhasePrivate.sol\":4320:4348  strucApplications_[_userAdr] */\n      0xffffffffffffffffffffffffffffffffffffffff\n      and\n      0xffffffffffffffffffffffffffffffffffffffff\n      and\n      dup2\n      mstore\n      0x20\n      add\n      swap1\n      dup2\n      mstore\n      0x20\n      add\n      0x00\n      keccak256\n        /* \"Documents/GitHub/contract-token-cryptoMonster/backend/components/PhasePrivate.sol\":4320:4353  strucApplications_[_userAdr].name */\n      0x00\n      add\n        /* \"Documents/GitHub/contract-token-cryptoMonster/backend/components/PhasePrivate.sol\":4298:4386  structUser(Role.USER, strucApplications_[_userAdr].name, get_keccak256(\"0\"), 0, 0, 0, 0) */\n      dup1\n      sload\n      tag_131\n      swap1\n      tag_132\n      jump\t// in\n    tag_131:\n      dup1\n      0x1f\n      add\n      0x20\n      dup1\n      swap2\n      div\n      mul\n      0x20\n      add\n      mload(0x40)\n      swap1\n      dup2\n      add\n      0x40\n      mstore\n      dup1\n      swap3\n      swap2\n      swap1\n      dup2\n      dup2\n      mstore\n      0x20\n      add\n      dup3\n      dup1\n      sload\n      tag_133\n      swap1\n      tag_132\n      jump\t// in\n    tag_133:\n      dup1\n      iszero\n      tag_134\n      jumpi\n      dup1\n      0x1f\n      lt\n      tag_135\n      jumpi\n      0x0100\n      dup1\n      dup4\n      sload\n      div\n      mul\n      dup4\n      mstore\n      swap2\n      0x20\n      add\n      swap2\n      jump(tag_134)\n    tag_135:\n      dup3\n      add\n      swap2\n      swap1\n      0x00\n      mstore\n      keccak256(0x00, 0x20)\n      swap1\n    tag_136:\n      dup2\n      sload\n      dup2\n      mstore\n      swap1\n      0x01\n      add\n      swap1\n      0x20\n      add\n      dup1\n      dup4\n      gt\n      tag_136\n      jumpi\n      dup3\n      swap1\n      sub\n      0x1f\n      and\n      dup3\n      add\n      swap2\n    tag_134:\n      pop\n      pop\n      pop\n      pop\n      pop\n      dup2\n      mstore\n      0x20\n      add\n        /* \"Documents/GitHub/contract-token-cryptoMonster/backend/components/PhasePrivate.sol\":4355:4373  get_keccak256(\"0\") */\n      tag_137\n      mload(0x40)\n      dup1\n      0x40\n      add\n      0x40\n      mstore\n      dup1\n      0x01\n      dup2\n      mstore\n      0x20\n      add\n      0x3000000000000000000000000000000000000000000000000000000000000000\n      dup2\n      mstore\n      pop\n        /* \"Documents/GitHub/contract-token-cryptoMonster/backend/components/PhasePrivate.sol\":4355:4368  get_keccak256 */\n      tag_32\n        /* \"Documents/GitHub/contract-token-cryptoMonster/backend/components/PhasePrivate.sol\":4355:4373  get_keccak256(\"0\") */\n      jump\t// in\n    tag_137:\n        /* \"Documents/GitHub/contract-token-cryptoMonster/backend/components/PhasePrivate.sol\":4298:4386  structUser(Role.USER, strucApplications_[_userAdr].name, get_keccak256(\"0\"), 0, 0, 0, 0) */\n      dup2\n      mstore\n      0x20\n      add\n        /* \"Documents/GitHub/contract-token-cryptoMonster/backend/components/PhasePrivate.sol\":4375:4376  0 */\n      0x00\n        /* \"Documents/GitHub/contract-token-cryptoMonster/backend/components/PhasePrivate.sol\":4298:4386  structUser(Role.USER, strucApplications_[_userAdr].name, get_keccak256(\"0\"), 0, 0, 0, 0) */\n      dup2\n      mstore\n      0x20\n      add\n        /* \"Documents/GitHub/contract-token-cryptoMonster/backend/components/PhasePrivate.sol\":4378:4379  0 */\n      0x00\n        /* \"Documents/GitHub/contract-token-cryptoMonster/backend/components/PhasePrivate.sol\":4298:4386  structUser(Role.USER, strucApplications_[_userAdr].name, get_keccak256(\"0\"), 0, 0, 0, 0) */\n      dup2\n      mstore\n      0x20\n      add\n        /* \"Documents/GitHub/contract-token-cryptoMonster/backend/components/PhasePrivate.sol\":4381:4382  0 */\n      0x00\n        /* \"Documents/GitHub/contract-token-cryptoMonster/backend/components/PhasePrivate.sol\":4298:4386  structUser(Role.USER, strucApplications_[_userAdr].name, get_keccak256(\"0\"), 0, 0, 0, 0) */\n      dup2\n      mstore\n      0x20\n      add\n        /* \"Documents/GitHub/contract-token-cryptoMonster/backend/components/PhasePrivate.sol\":4384:4385  0 */\n      0x00\n        /* \"Documents/GitHub/contract-token-cryptoMonster/backend/components/PhasePrivate.sol\":4298:4386  structUser(Role.USER, strucApplications_[_userAdr].name, get_keccak256(\"0\"), 0, 0, 0, 0) */\n      dup2\n      mstore\n      pop\n        /* \"Documents/GitHub/contract-token-cryptoMonster/backend/components/PhasePrivate.sol\":4273:4285  structUsers_ */\n      0x00\n        /* \"Documents/GitHub/contract-token-cryptoMonster/backend/components/PhasePrivate.sol\":4273:4295  structUsers_[_userAdr] */\n      dup1\n        /* \"Documents/GitHub/contract-token-cryptoMonster/backend/components/PhasePrivate.sol\":4286:4294  _userAdr */\n      dup4\n        /* \"Documents/GitHub/contract-token-cryptoMonster/backend/components/PhasePrivate.sol\":4273:4295  structUsers_[_userAdr] */\n      0xffffffffffffffffffffffffffffffffffffffff\n      and\n      0xffffffffffffffffffffffffffffffffffffffff\n      and\n      dup2\n      mstore\n      0x20\n      add\n      swap1\n      dup2\n      mstore\n      0x20\n      add\n      0x00\n      keccak256\n        /* \"Documents/GitHub/contract-token-cryptoMonster/backend/components/PhasePrivate.sol\":4273:4386  structUsers_[_userAdr] = structUser(Role.USER, strucApplications_[_userAdr].name, get_keccak256(\"0\"), 0, 0, 0, 0) */\n      0x00\n      dup3\n      add\n      mload\n      dup2\n      0x00\n      add\n      exp(0x0100, 0x00)\n      dup2\n      sload\n      dup2\n      0xff\n      mul\n      not\n      and\n      swap1\n      dup4\n      0x04\n      dup2\n      gt\n      iszero\n      tag_138\n      jumpi\n      tag_139\n      tag_44\n      jump\t// in\n    tag_139:\n    tag_138:\n      mul\n      or\n      swap1\n      sstore\n      pop\n      0x20\n      dup3\n      add\n      mload\n      dup2\n      0x01\n      add\n      swap1\n      dup1\n      mload\n      swap1\n      0x20\n      add\n      swap1\n      tag_140\n      swap3\n      swap2\n      swap1\n      tag_100\n      jump\t// in\n    tag_140:\n      pop\n      0x40\n      dup3\n      add\n      mload\n      dup2\n      0x02\n      add\n      sstore\n      0x60\n      dup3\n      add\n      mload\n      dup2\n      0x03\n      add\n      sstore\n      0x80\n      dup3\n      add\n      mload\n      dup2\n      0x04\n      add\n      sstore\n      0xa0\n      dup3\n      add\n      mload\n      dup2\n      0x05\n      add\n      sstore\n      0xc0\n      dup3\n      add\n      mload\n      dup2\n      0x06\n      add\n      sstore\n      swap1\n      pop\n      pop\n        /* \"Documents/GitHub/contract-token-cryptoMonster/backend/components/PhasePrivate.sol\":3595:4394  function acceptApplication (address _userAdr) public onlyPrivateProvider {\r... */\n      pop\n      jump\t// out\n        /* \"Documents/GitHub/contract-token-cryptoMonster/backend/shared/helpers/helpresFunc.sol\":483:611  function get_whiteList() public onlyOwnerAndPrivateProvider view returns (address[] memory) {\r... */\n    tag_39:\n        /* \"Documents/GitHub/contract-token-cryptoMonster/backend/shared/helpers/helpresFunc.sol\":557:573  address[] memory */\n      0x60\n        /* \"Documents/GitHub/contract-token-cryptoMonster/backend/shared/helpers/modifireFunc.sol\":859:876  Role.SYSTEM_OWNER */\n      0x00\n        /* \"Documents/GitHub/contract-token-cryptoMonster/backend/shared/helpers/modifireFunc.sol\":826:876  structUsers_[msg.sender].role == Role.SYSTEM_OWNER */\n      0x04\n      dup2\n      gt\n      iszero\n      tag_142\n      jumpi\n      tag_143\n      tag_44\n      jump\t// in\n    tag_143:\n    tag_142:\n        /* \"Documents/GitHub/contract-token-cryptoMonster/backend/shared/helpers/modifireFunc.sol\":826:838  structUsers_ */\n      0x00\n        /* \"Documents/GitHub/contract-token-cryptoMonster/backend/shared/helpers/modifireFunc.sol\":826:850  structUsers_[msg.sender] */\n      dup1\n        /* \"Documents/GitHub/contract-token-cryptoMonster/backend/shared/helpers/modifireFunc.sol\":839:849  msg.sender */\n      caller\n        /* \"Documents/GitHub/contract-token-cryptoMonster/backend/shared/helpers/modifireFunc.sol\":826:850  structUsers_[msg.sender] */\n      0xffffffffffffffffffffffffffffffffffffffff\n      and\n      0xffffffffffffffffffffffffffffffffffffffff\n      and\n      dup2\n      mstore\n      0x20\n      add\n      swap1\n      dup2\n      mstore\n      0x20\n      add\n      0x00\n      keccak256\n        /* \"Documents/GitHub/contract-token-cryptoMonster/backend/shared/helpers/modifireFunc.sol\":826:855  structUsers_[msg.sender].role */\n      0x00\n      add\n      0x00\n      swap1\n      sload\n      swap1\n      0x0100\n      exp\n      swap1\n      div\n      0xff\n      and\n        /* \"Documents/GitHub/contract-token-cryptoMonster/backend/shared/helpers/modifireFunc.sol\":826:876  structUsers_[msg.sender].role == Role.SYSTEM_OWNER */\n      0x04\n      dup2\n      gt\n      iszero\n      tag_144\n      jumpi\n      tag_145\n      tag_44\n      jump\t// in\n    tag_145:\n    tag_144:\n      eq\n        /* \"Documents/GitHub/contract-token-cryptoMonster/backend/shared/helpers/modifireFunc.sol\":826:932  structUsers_[msg.sender].role == Role.SYSTEM_OWNER || structUsers_[msg.sender].role == Role.SYSTEM_PRIVATE */\n      dup1\n      tag_146\n      jumpi\n      pop\n        /* \"Documents/GitHub/contract-token-cryptoMonster/backend/shared/helpers/modifireFunc.sol\":913:932  Role.SYSTEM_PRIVATE */\n      0x02\n        /* \"Documents/GitHub/contract-token-cryptoMonster/backend/shared/helpers/modifireFunc.sol\":880:932  structUsers_[msg.sender].role == Role.SYSTEM_PRIVATE */\n      0x04\n      dup2\n      gt\n      iszero\n      tag_147\n      jumpi\n      tag_148\n      tag_44\n      jump\t// in\n    tag_148:\n    tag_147:\n        /* \"Documents/GitHub/contract-token-cryptoMonster/backend/shared/helpers/modifireFunc.sol\":880:892  structUsers_ */\n      0x00\n        /* \"Documents/GitHub/contract-token-cryptoMonster/backend/shared/helpers/modifireFunc.sol\":880:904  structUsers_[msg.sender] */\n      dup1\n        /* \"Documents/GitHub/contract-token-cryptoMonster/backend/shared/helpers/modifireFunc.sol\":893:903  msg.sender */\n      caller\n        /* \"Documents/GitHub/contract-token-cryptoMonster/backend/shared/helpers/modifireFunc.sol\":880:904  structUsers_[msg.sender] */\n      0xffffffffffffffffffffffffffffffffffffffff\n      and\n      0xffffffffffffffffffffffffffffffffffffffff\n      and\n      dup2\n      mstore\n      0x20\n      add\n      swap1\n      dup2\n      mstore\n      0x20\n      add\n      0x00\n      keccak256\n        /* \"Documents/GitHub/contract-token-cryptoMonster/backend/shared/helpers/modifireFunc.sol\":880:909  structUsers_[msg.sender].role */\n      0x00\n      add\n      0x00\n      swap1\n      sload\n      swap1\n      0x0100\n      exp\n      swap1\n      div\n      0xff\n      and\n        /* \"Documents/GitHub/contract-token-cryptoMonster/backend/shared/helpers/modifireFunc.sol\":880:932  structUsers_[msg.sender].role == Role.SYSTEM_PRIVATE */\n      0x04\n      dup2\n      gt\n      iszero\n      tag_149\n      jumpi\n      tag_150\n      tag_44\n      jump\t// in\n    tag_150:\n    tag_149:\n      eq\n        /* \"Documents/GitHub/contract-token-cryptoMonster/backend/shared/helpers/modifireFunc.sol\":826:932  structUsers_[msg.sender].role == Role.SYSTEM_OWNER || structUsers_[msg.sender].role == Role.SYSTEM_PRIVATE */\n    tag_146:\n        /* \"Documents/GitHub/contract-token-cryptoMonster/backend/shared/helpers/modifireFunc.sol\":818:978  require(structUsers_[msg.sender].role == Role.SYSTEM_OWNER || structUsers_[msg.sender].role == Role.SYSTEM_PRIVATE, \"You are not the owner or private provider\") */\n      tag_151\n      jumpi\n      mload(0x40)\n      0x08c379a000000000000000000000000000000000000000000000000000000000\n      dup2\n      mstore\n      0x04\n      add\n      tag_152\n      swap1\n      tag_153\n      jump\t// in\n    tag_152:\n      mload(0x40)\n      dup1\n      swap2\n      sub\n      swap1\n      revert\n    tag_151:\n        /* \"Documents/GitHub/contract-token-cryptoMonster/backend/shared/helpers/helpresFunc.sol\":593:602  whiteList */\n      0x04\n        /* \"Documents/GitHub/contract-token-cryptoMonster/backend/shared/helpers/helpresFunc.sol\":586:603  return(whiteList) */\n      dup1\n      sload\n      dup1\n      0x20\n      mul\n      0x20\n      add\n      mload(0x40)\n      swap1\n      dup2\n      add\n      0x40\n      mstore\n      dup1\n      swap3\n      swap2\n      swap1\n      dup2\n      dup2\n      mstore\n      0x20\n      add\n      dup3\n      dup1\n      sload\n      dup1\n      iszero\n      tag_155\n      jumpi\n      0x20\n      mul\n      dup3\n      add\n      swap2\n      swap1\n      0x00\n      mstore\n      keccak256(0x00, 0x20)\n      swap1\n    tag_156:\n      dup2\n      0x00\n      swap1\n      sload\n      swap1\n      0x0100\n      exp\n      swap1\n      div\n      0xffffffffffffffffffffffffffffffffffffffff\n      and\n      0xffffffffffffffffffffffffffffffffffffffff\n      and\n      dup2\n      mstore\n      0x20\n      add\n      swap1\n      0x01\n      add\n      swap1\n      dup1\n      dup4\n      gt\n      tag_156\n      jumpi\n    tag_155:\n      pop\n      pop\n      pop\n      pop\n      pop\n      swap1\n      pop\n        /* \"Documents/GitHub/contract-token-cryptoMonster/backend/shared/helpers/helpresFunc.sol\":483:611  function get_whiteList() public onlyOwnerAndPrivateProvider view returns (address[] memory) {\r... */\n      swap1\n      jump\t// out\n    tag_100:\n      dup3\n      dup1\n      sload\n      tag_157\n      swap1\n      tag_132\n      jump\t// in\n    tag_157:\n      swap1\n      0x00\n      mstore\n      keccak256(0x00, 0x20)\n      swap1\n      0x1f\n      add\n      0x20\n      swap1\n      div\n      dup2\n      add\n      swap3\n      dup3\n      tag_159\n      jumpi\n      0x00\n      dup6\n      sstore\n      jump(tag_158)\n    tag_159:\n      dup3\n      0x1f\n      lt\n      tag_160\n      jumpi\n      dup1\n      mload\n      not(0xff)\n      and\n      dup4\n      dup1\n      add\n      or\n      dup6\n      sstore\n      jump(tag_158)\n    tag_160:\n      dup3\n      dup1\n      add\n      0x01\n      add\n      dup6\n      sstore\n      dup3\n      iszero\n      tag_158\n      jumpi\n      swap2\n      dup3\n      add\n    tag_161:\n      dup3\n      dup2\n      gt\n      iszero\n      tag_162\n      jumpi\n      dup3\n      mload\n      dup3\n      sstore\n      swap2\n      0x20\n      add\n      swap2\n      swap1\n      0x01\n      add\n      swap1\n      jump(tag_161)\n    tag_162:\n    tag_158:\n      pop\n      swap1\n      pop\n      tag_163\n      swap2\n      swap1\n      tag_164\n      jump\t// in\n    tag_163:\n      pop\n      swap1\n      jump\t// out\n    tag_164:\n    tag_165:\n      dup1\n      dup3\n      gt\n      iszero\n      tag_166\n      jumpi\n      0x00\n      dup2\n      0x00\n      swap1\n      sstore\n      pop\n      0x01\n      add\n      jump(tag_165)\n    tag_166:\n      pop\n      swap1\n      jump\t// out\n        /* \"#utility.yul\":7:419   */\n    tag_168:\n        /* \"#utility.yul\":85:90   */\n      0x00\n        /* \"#utility.yul\":110:176   */\n      tag_170\n        /* \"#utility.yul\":126:175   */\n      tag_171\n        /* \"#utility.yul\":168:174   */\n      dup5\n        /* \"#utility.yul\":126:175   */\n      tag_172\n      jump\t// in\n    tag_171:\n        /* \"#utility.yul\":110:176   */\n      tag_173\n      jump\t// in\n    tag_170:\n        /* \"#utility.yul\":101:176   */\n      swap1\n      pop\n        /* \"#utility.yul\":199:205   */\n      dup3\n        /* \"#utility.yul\":192:197   */\n      dup2\n        /* \"#utility.yul\":185:206   */\n      mstore\n        /* \"#utility.yul\":237:241   */\n      0x20\n        /* \"#utility.yul\":230:235   */\n      dup2\n        /* \"#utility.yul\":226:242   */\n      add\n        /* \"#utility.yul\":275:278   */\n      dup5\n        /* \"#utility.yul\":266:272   */\n      dup5\n        /* \"#utility.yul\":261:264   */\n      dup5\n        /* \"#utility.yul\":257:273   */\n      add\n        /* \"#utility.yul\":254:279   */\n      gt\n        /* \"#utility.yul\":251:363   */\n      iszero\n      tag_174\n      jumpi\n        /* \"#utility.yul\":282:361   */\n      tag_175\n      tag_176\n      jump\t// in\n    tag_175:\n        /* \"#utility.yul\":251:363   */\n    tag_174:\n        /* \"#utility.yul\":372:413   */\n      tag_177\n        /* \"#utility.yul\":406:412   */\n      dup5\n        /* \"#utility.yul\":401:404   */\n      dup3\n        /* \"#utility.yul\":396:399   */\n      dup6\n        /* \"#utility.yul\":372:413   */\n      tag_178\n      jump\t// in\n    tag_177:\n        /* \"#utility.yul\":91:419   */\n      pop\n        /* \"#utility.yul\":7:419   */\n      swap4\n      swap3\n      pop\n      pop\n      pop\n      jump\t// out\n        /* \"#utility.yul\":425:564   */\n    tag_179:\n        /* \"#utility.yul\":471:476   */\n      0x00\n        /* \"#utility.yul\":509:515   */\n      dup2\n        /* \"#utility.yul\":496:516   */\n      calldataload\n        /* \"#utility.yul\":487:516   */\n      swap1\n      pop\n        /* \"#utility.yul\":525:558   */\n      tag_181\n        /* \"#utility.yul\":552:557   */\n      dup2\n        /* \"#utility.yul\":525:558   */\n      tag_182\n      jump\t// in\n    tag_181:\n        /* \"#utility.yul\":425:564   */\n      swap3\n      swap2\n      pop\n      pop\n      jump\t// out\n        /* \"#utility.yul\":584:924   */\n    tag_183:\n        /* \"#utility.yul\":640:645   */\n      0x00\n        /* \"#utility.yul\":689:692   */\n      dup3\n        /* \"#utility.yul\":682:686   */\n      0x1f\n        /* \"#utility.yul\":674:680   */\n      dup4\n        /* \"#utility.yul\":670:687   */\n      add\n        /* \"#utility.yul\":666:693   */\n      slt\n        /* \"#utility.yul\":656:778   */\n      tag_185\n      jumpi\n        /* \"#utility.yul\":697:776   */\n      tag_186\n      tag_187\n      jump\t// in\n    tag_186:\n        /* \"#utility.yul\":656:778   */\n    tag_185:\n        /* \"#utility.yul\":814:820   */\n      dup2\n        /* \"#utility.yul\":801:821   */\n      calldataload\n        /* \"#utility.yul\":839:918   */\n      tag_188\n        /* \"#utility.yul\":914:917   */\n      dup5\n        /* \"#utility.yul\":906:912   */\n      dup3\n        /* \"#utility.yul\":899:903   */\n      0x20\n        /* \"#utility.yul\":891:897   */\n      dup7\n        /* \"#utility.yul\":887:904   */\n      add\n        /* \"#utility.yul\":839:918   */\n      tag_168\n      jump\t// in\n    tag_188:\n        /* \"#utility.yul\":830:918   */\n      swap2\n      pop\n        /* \"#utility.yul\":646:924   */\n      pop\n        /* \"#utility.yul\":584:924   */\n      swap3\n      swap2\n      pop\n      pop\n      jump\t// out\n        /* \"#utility.yul\":930:1259   */\n    tag_16:\n        /* \"#utility.yul\":989:995   */\n      0x00\n        /* \"#utility.yul\":1038:1040   */\n      0x20\n        /* \"#utility.yul\":1026:1035   */\n      dup3\n        /* \"#utility.yul\":1017:1024   */\n      dup5\n        /* \"#utility.yul\":1013:1036   */\n      sub\n        /* \"#utility.yul\":1009:1041   */\n      slt\n        /* \"#utility.yul\":1006:1125   */\n      iszero\n      tag_190\n      jumpi\n        /* \"#utility.yul\":1044:1123   */\n      tag_191\n      tag_192\n      jump\t// in\n    tag_191:\n        /* \"#utility.yul\":1006:1125   */\n    tag_190:\n        /* \"#utility.yul\":1164:1165   */\n      0x00\n        /* \"#utility.yul\":1189:1242   */\n      tag_193\n        /* \"#utility.yul\":1234:1241   */\n      dup5\n        /* \"#utility.yul\":1225:1231   */\n      dup3\n        /* \"#utility.yul\":1214:1223   */\n      dup6\n        /* \"#utility.yul\":1210:1232   */\n      add\n        /* \"#utility.yul\":1189:1242   */\n      tag_179\n      jump\t// in\n    tag_193:\n        /* \"#utility.yul\":1179:1242   */\n      swap2\n      pop\n        /* \"#utility.yul\":1135:1252   */\n      pop\n        /* \"#utility.yul\":930:1259   */\n      swap3\n      swap2\n      pop\n      pop\n      jump\t// out\n        /* \"#utility.yul\":1265:1774   */\n    tag_31:\n        /* \"#utility.yul\":1334:1340   */\n      0x00\n        /* \"#utility.yul\":1383:1385   */\n      0x20\n        /* \"#utility.yul\":1371:1380   */\n      dup3\n        /* \"#utility.yul\":1362:1369   */\n      dup5\n        /* \"#utility.yul\":1358:1381   */\n      sub\n        /* \"#utility.yul\":1354:1386   */\n      slt\n        /* \"#utility.yul\":1351:1470   */\n      iszero\n      tag_195\n      jumpi\n        /* \"#utility.yul\":1389:1468   */\n      tag_196\n      tag_192\n      jump\t// in\n    tag_196:\n        /* \"#utility.yul\":1351:1470   */\n    tag_195:\n        /* \"#utility.yul\":1537:1538   */\n      0x00\n        /* \"#utility.yul\":1526:1535   */\n      dup3\n        /* \"#utility.yul\":1522:1539   */\n      add\n        /* \"#utility.yul\":1509:1540   */\n      calldataload\n        /* \"#utility.yul\":1567:1585   */\n      0xffffffffffffffff\n        /* \"#utility.yul\":1559:1565   */\n      dup2\n        /* \"#utility.yul\":1556:1586   */\n      gt\n        /* \"#utility.yul\":1553:1670   */\n      iszero\n      tag_197\n      jumpi\n        /* \"#utility.yul\":1589:1668   */\n      tag_198\n      tag_199\n      jump\t// in\n    tag_198:\n        /* \"#utility.yul\":1553:1670   */\n    tag_197:\n        /* \"#utility.yul\":1694:1757   */\n      tag_200\n        /* \"#utility.yul\":1749:1756   */\n      dup5\n        /* \"#utility.yul\":1740:1746   */\n      dup3\n        /* \"#utility.yul\":1729:1738   */\n      dup6\n        /* \"#utility.yul\":1725:1747   */\n      add\n        /* \"#utility.yul\":1694:1757   */\n      tag_183\n      jump\t// in\n    tag_200:\n        /* \"#utility.yul\":1684:1757   */\n      swap2\n      pop\n        /* \"#utility.yul\":1480:1767   */\n      pop\n        /* \"#utility.yul\":1265:1774   */\n      swap3\n      swap2\n      pop\n      pop\n      jump\t// out\n        /* \"#utility.yul\":1780:2759   */\n    tag_24:\n        /* \"#utility.yul\":1877:1883   */\n      0x00\n        /* \"#utility.yul\":1885:1891   */\n      dup1\n        /* \"#utility.yul\":1893:1899   */\n      0x00\n        /* \"#utility.yul\":1942:1944   */\n      0x60\n        /* \"#utility.yul\":1930:1939   */\n      dup5\n        /* \"#utility.yul\":1921:1928   */\n      dup7\n        /* \"#utility.yul\":1917:1940   */\n      sub\n        /* \"#utility.yul\":1913:1945   */\n      slt\n        /* \"#utility.yul\":1910:2029   */\n      iszero\n      tag_202\n      jumpi\n        /* \"#utility.yul\":1948:2027   */\n      tag_203\n      tag_192\n      jump\t// in\n    tag_203:\n        /* \"#utility.yul\":1910:2029   */\n    tag_202:\n        /* \"#utility.yul\":2096:2097   */\n      0x00\n        /* \"#utility.yul\":2085:2094   */\n      dup5\n        /* \"#utility.yul\":2081:2098   */\n      add\n        /* \"#utility.yul\":2068:2099   */\n      calldataload\n        /* \"#utility.yul\":2126:2144   */\n      0xffffffffffffffff\n        /* \"#utility.yul\":2118:2124   */\n      dup2\n        /* \"#utility.yul\":2115:2145   */\n      gt\n        /* \"#utility.yul\":2112:2229   */\n      iszero\n      tag_204\n      jumpi\n        /* \"#utility.yul\":2148:2227   */\n      tag_205\n      tag_199\n      jump\t// in\n    tag_205:\n        /* \"#utility.yul\":2112:2229   */\n    tag_204:\n        /* \"#utility.yul\":2253:2316   */\n      tag_206\n        /* \"#utility.yul\":2308:2315   */\n      dup7\n        /* \"#utility.yul\":2299:2305   */\n      dup3\n        /* \"#utility.yul\":2288:2297   */\n      dup8\n        /* \"#utility.yul\":2284:2306   */\n      add\n        /* \"#utility.yul\":2253:2316   */\n      tag_183\n      jump\t// in\n    tag_206:\n        /* \"#utility.yul\":2243:2316   */\n      swap4\n      pop\n        /* \"#utility.yul\":2039:2326   */\n      pop\n        /* \"#utility.yul\":2393:2395   */\n      0x20\n        /* \"#utility.yul\":2382:2391   */\n      dup5\n        /* \"#utility.yul\":2378:2396   */\n      add\n        /* \"#utility.yul\":2365:2397   */\n      calldataload\n        /* \"#utility.yul\":2424:2442   */\n      0xffffffffffffffff\n        /* \"#utility.yul\":2416:2422   */\n      dup2\n        /* \"#utility.yul\":2413:2443   */\n      gt\n        /* \"#utility.yul\":2410:2527   */\n      iszero\n      tag_207\n      jumpi\n        /* \"#utility.yul\":2446:2525   */\n      tag_208\n      tag_199\n      jump\t// in\n    tag_208:\n        /* \"#utility.yul\":2410:2527   */\n    tag_207:\n        /* \"#utility.yul\":2551:2614   */\n      tag_209\n        /* \"#utility.yul\":2606:2613   */\n      dup7\n        /* \"#utility.yul\":2597:2603   */\n      dup3\n        /* \"#utility.yul\":2586:2595   */\n      dup8\n        /* \"#utility.yul\":2582:2604   */\n      add\n        /* \"#utility.yul\":2551:2614   */\n      tag_183\n      jump\t// in\n    tag_209:\n        /* \"#utility.yul\":2541:2614   */\n      swap3\n      pop\n        /* \"#utility.yul\":2336:2624   */\n      pop\n        /* \"#utility.yul\":2663:2665   */\n      0x40\n        /* \"#utility.yul\":2689:2742   */\n      tag_210\n        /* \"#utility.yul\":2734:2741   */\n      dup7\n        /* \"#utility.yul\":2725:2731   */\n      dup3\n        /* \"#utility.yul\":2714:2723   */\n      dup8\n        /* \"#utility.yul\":2710:2732   */\n      add\n        /* \"#utility.yul\":2689:2742   */\n      tag_179\n      jump\t// in\n    tag_210:\n        /* \"#utility.yul\":2679:2742   */\n      swap2\n      pop\n        /* \"#utility.yul\":2634:2752   */\n      pop\n        /* \"#utility.yul\":1780:2759   */\n      swap3\n      pop\n      swap3\n      pop\n      swap3\n      jump\t// out\n        /* \"#utility.yul\":2765:2944   */\n    tag_211:\n        /* \"#utility.yul\":2834:2844   */\n      0x00\n        /* \"#utility.yul\":2855:2901   */\n      tag_213\n        /* \"#utility.yul\":2897:2900   */\n      dup4\n        /* \"#utility.yul\":2889:2895   */\n      dup4\n        /* \"#utility.yul\":2855:2901   */\n      tag_214\n      jump\t// in\n    tag_213:\n        /* \"#utility.yul\":2933:2937   */\n      0x20\n        /* \"#utility.yul\":2928:2931   */\n      dup4\n        /* \"#utility.yul\":2924:2938   */\n      add\n        /* \"#utility.yul\":2910:2938   */\n      swap1\n      pop\n        /* \"#utility.yul\":2765:2944   */\n      swap3\n      swap2\n      pop\n      pop\n      jump\t// out\n        /* \"#utility.yul\":2950:3058   */\n    tag_214:\n        /* \"#utility.yul\":3027:3051   */\n      tag_216\n        /* \"#utility.yul\":3045:3050   */\n      dup2\n        /* \"#utility.yul\":3027:3051   */\n      tag_217\n      jump\t// in\n    tag_216:\n        /* \"#utility.yul\":3022:3025   */\n      dup3\n        /* \"#utility.yul\":3015:3052   */\n      mstore\n        /* \"#utility.yul\":2950:3058   */\n      pop\n      pop\n      jump\t// out\n        /* \"#utility.yul\":3094:3826   */\n    tag_218:\n        /* \"#utility.yul\":3213:3216   */\n      0x00\n        /* \"#utility.yul\":3242:3296   */\n      tag_220\n        /* \"#utility.yul\":3290:3295   */\n      dup3\n        /* \"#utility.yul\":3242:3296   */\n      tag_221\n      jump\t// in\n    tag_220:\n        /* \"#utility.yul\":3312:3398   */\n      tag_222\n        /* \"#utility.yul\":3391:3397   */\n      dup2\n        /* \"#utility.yul\":3386:3389   */\n      dup6\n        /* \"#utility.yul\":3312:3398   */\n      tag_223\n      jump\t// in\n    tag_222:\n        /* \"#utility.yul\":3305:3398   */\n      swap4\n      pop\n        /* \"#utility.yul\":3422:3478   */\n      tag_224\n        /* \"#utility.yul\":3472:3477   */\n      dup4\n        /* \"#utility.yul\":3422:3478   */\n      tag_225\n      jump\t// in\n    tag_224:\n        /* \"#utility.yul\":3501:3508   */\n      dup1\n        /* \"#utility.yul\":3532:3533   */\n      0x00\n        /* \"#utility.yul\":3517:3801   */\n    tag_226:\n        /* \"#utility.yul\":3542:3548   */\n      dup4\n        /* \"#utility.yul\":3539:3540   */\n      dup2\n        /* \"#utility.yul\":3536:3549   */\n      lt\n        /* \"#utility.yul\":3517:3801   */\n      iszero\n      tag_228\n      jumpi\n        /* \"#utility.yul\":3618:3624   */\n      dup2\n        /* \"#utility.yul\":3612:3625   */\n      mload\n        /* \"#utility.yul\":3645:3708   */\n      tag_229\n        /* \"#utility.yul\":3704:3707   */\n      dup9\n        /* \"#utility.yul\":3689:3702   */\n      dup3\n        /* \"#utility.yul\":3645:3708   */\n      tag_211\n      jump\t// in\n    tag_229:\n        /* \"#utility.yul\":3638:3708   */\n      swap8\n      pop\n        /* \"#utility.yul\":3731:3791   */\n      tag_230\n        /* \"#utility.yul\":3784:3790   */\n      dup4\n        /* \"#utility.yul\":3731:3791   */\n      tag_231\n      jump\t// in\n    tag_230:\n        /* \"#utility.yul\":3721:3791   */\n      swap3\n      pop\n        /* \"#utility.yul\":3577:3801   */\n      pop\n        /* \"#utility.yul\":3564:3565   */\n      0x01\n        /* \"#utility.yul\":3561:3562   */\n      dup2\n        /* \"#utility.yul\":3557:3566   */\n      add\n        /* \"#utility.yul\":3552:3566   */\n      swap1\n      pop\n        /* \"#utility.yul\":3517:3801   */\n      jump(tag_226)\n    tag_228:\n        /* \"#utility.yul\":3521:3535   */\n      pop\n        /* \"#utility.yul\":3817:3820   */\n      dup6\n        /* \"#utility.yul\":3810:3820   */\n      swap4\n      pop\n        /* \"#utility.yul\":3218:3826   */\n      pop\n      pop\n      pop\n        /* \"#utility.yul\":3094:3826   */\n      swap3\n      swap2\n      pop\n      pop\n      jump\t// out\n        /* \"#utility.yul\":3832:3950   */\n    tag_232:\n        /* \"#utility.yul\":3919:3943   */\n      tag_234\n        /* \"#utility.yul\":3937:3942   */\n      dup2\n        /* \"#utility.yul\":3919:3943   */\n      tag_235\n      jump\t// in\n    tag_234:\n        /* \"#utility.yul\":3914:3917   */\n      dup3\n        /* \"#utility.yul\":3907:3944   */\n      mstore\n        /* \"#utility.yul\":3832:3950   */\n      pop\n      pop\n      jump\t// out\n        /* \"#utility.yul\":3956:4333   */\n    tag_236:\n        /* \"#utility.yul\":4062:4065   */\n      0x00\n        /* \"#utility.yul\":4090:4129   */\n      tag_238\n        /* \"#utility.yul\":4123:4128   */\n      dup3\n        /* \"#utility.yul\":4090:4129   */\n      tag_239\n      jump\t// in\n    tag_238:\n        /* \"#utility.yul\":4145:4234   */\n      tag_240\n        /* \"#utility.yul\":4227:4233   */\n      dup2\n        /* \"#utility.yul\":4222:4225   */\n      dup6\n        /* \"#utility.yul\":4145:4234   */\n      tag_241\n      jump\t// in\n    tag_240:\n        /* \"#utility.yul\":4138:4234   */\n      swap4\n      pop\n        /* \"#utility.yul\":4243:4295   */\n      tag_242\n        /* \"#utility.yul\":4288:4294   */\n      dup2\n        /* \"#utility.yul\":4283:4286   */\n      dup6\n        /* \"#utility.yul\":4276:4280   */\n      0x20\n        /* \"#utility.yul\":4269:4274   */\n      dup7\n        /* \"#utility.yul\":4265:4281   */\n      add\n        /* \"#utility.yul\":4243:4295   */\n      tag_243\n      jump\t// in\n    tag_242:\n        /* \"#utility.yul\":4320:4326   */\n      dup1\n        /* \"#utility.yul\":4315:4318   */\n      dup5\n        /* \"#utility.yul\":4311:4327   */\n      add\n        /* \"#utility.yul\":4304:4327   */\n      swap2\n      pop\n        /* \"#utility.yul\":4066:4333   */\n      pop\n        /* \"#utility.yul\":3956:4333   */\n      swap3\n      swap2\n      pop\n      pop\n      jump\t// out\n        /* \"#utility.yul\":4339:4705   */\n    tag_244:\n        /* \"#utility.yul\":4481:4484   */\n      0x00\n        /* \"#utility.yul\":4502:4569   */\n      tag_246\n        /* \"#utility.yul\":4566:4568   */\n      0x1c\n        /* \"#utility.yul\":4561:4564   */\n      dup4\n        /* \"#utility.yul\":4502:4569   */\n      tag_247\n      jump\t// in\n    tag_246:\n        /* \"#utility.yul\":4495:4569   */\n      swap2\n      pop\n        /* \"#utility.yul\":4578:4671   */\n      tag_248\n        /* \"#utility.yul\":4667:4670   */\n      dup3\n        /* \"#utility.yul\":4578:4671   */\n      tag_249\n      jump\t// in\n    tag_248:\n        /* \"#utility.yul\":4696:4698   */\n      0x20\n        /* \"#utility.yul\":4691:4694   */\n      dup3\n        /* \"#utility.yul\":4687:4699   */\n      add\n        /* \"#utility.yul\":4680:4699   */\n      swap1\n      pop\n        /* \"#utility.yul\":4339:4705   */\n      swap2\n      swap1\n      pop\n      jump\t// out\n        /* \"#utility.yul\":4711:5077   */\n    tag_250:\n        /* \"#utility.yul\":4853:4856   */\n      0x00\n        /* \"#utility.yul\":4874:4941   */\n      tag_252\n        /* \"#utility.yul\":4938:4940   */\n      0x14\n        /* \"#utility.yul\":4933:4936   */\n      dup4\n        /* \"#utility.yul\":4874:4941   */\n      tag_247\n      jump\t// in\n    tag_252:\n        /* \"#utility.yul\":4867:4941   */\n      swap2\n      pop\n        /* \"#utility.yul\":4950:5043   */\n      tag_253\n        /* \"#utility.yul\":5039:5042   */\n      dup3\n        /* \"#utility.yul\":4950:5043   */\n      tag_254\n      jump\t// in\n    tag_253:\n        /* \"#utility.yul\":5068:5070   */\n      0x20\n        /* \"#utility.yul\":5063:5066   */\n      dup3\n        /* \"#utility.yul\":5059:5071   */\n      add\n        /* \"#utility.yul\":5052:5071   */\n      swap1\n      pop\n        /* \"#utility.yul\":4711:5077   */\n      swap2\n      swap1\n      pop\n      jump\t// out\n        /* \"#utility.yul\":5083:5449   */\n    tag_255:\n        /* \"#utility.yul\":5225:5228   */\n      0x00\n        /* \"#utility.yul\":5246:5313   */\n      tag_257\n        /* \"#utility.yul\":5310:5312   */\n      0x18\n        /* \"#utility.yul\":5305:5308   */\n      dup4\n        /* \"#utility.yul\":5246:5313   */\n      tag_247\n      jump\t// in\n    tag_257:\n        /* \"#utility.yul\":5239:5313   */\n      swap2\n      pop\n        /* \"#utility.yul\":5322:5415   */\n      tag_258\n        /* \"#utility.yul\":5411:5414   */\n      dup3\n        /* \"#utility.yul\":5322:5415   */\n      tag_259\n      jump\t// in\n    tag_258:\n        /* \"#utility.yul\":5440:5442   */\n      0x20\n        /* \"#utility.yul\":5435:5438   */\n      dup3\n        /* \"#utility.yul\":5431:5443   */\n      add\n        /* \"#utility.yul\":5424:5443   */\n      swap1\n      pop\n        /* \"#utility.yul\":5083:5449   */\n      swap2\n      swap1\n      pop\n      jump\t// out\n        /* \"#utility.yul\":5455:5821   */\n    tag_260:\n        /* \"#utility.yul\":5597:5600   */\n      0x00\n        /* \"#utility.yul\":5618:5685   */\n      tag_262\n        /* \"#utility.yul\":5682:5684   */\n      0x2a\n        /* \"#utility.yul\":5677:5680   */\n      dup4\n        /* \"#utility.yul\":5618:5685   */\n      tag_247\n      jump\t// in\n    tag_262:\n        /* \"#utility.yul\":5611:5685   */\n      swap2\n      pop\n        /* \"#utility.yul\":5694:5787   */\n      tag_263\n        /* \"#utility.yul\":5783:5786   */\n      dup3\n        /* \"#utility.yul\":5694:5787   */\n      tag_264\n      jump\t// in\n    tag_263:\n        /* \"#utility.yul\":5812:5814   */\n      0x40\n        /* \"#utility.yul\":5807:5810   */\n      dup3\n        /* \"#utility.yul\":5803:5815   */\n      add\n        /* \"#utility.yul\":5796:5815   */\n      swap1\n      pop\n        /* \"#utility.yul\":5455:5821   */\n      swap2\n      swap1\n      pop\n      jump\t// out\n        /* \"#utility.yul\":5827:6193   */\n    tag_265:\n        /* \"#utility.yul\":5969:5972   */\n      0x00\n        /* \"#utility.yul\":5990:6057   */\n      tag_267\n        /* \"#utility.yul\":6054:6056   */\n      0x29\n        /* \"#utility.yul\":6049:6052   */\n      dup4\n        /* \"#utility.yul\":5990:6057   */\n      tag_247\n      jump\t// in\n    tag_267:\n        /* \"#utility.yul\":5983:6057   */\n      swap2\n      pop\n        /* \"#utility.yul\":6066:6159   */\n      tag_268\n        /* \"#utility.yul\":6155:6158   */\n      dup3\n        /* \"#utility.yul\":6066:6159   */\n      tag_269\n      jump\t// in\n    tag_268:\n        /* \"#utility.yul\":6184:6186   */\n      0x40\n        /* \"#utility.yul\":6179:6182   */\n      dup3\n        /* \"#utility.yul\":6175:6187   */\n      add\n        /* \"#utility.yul\":6168:6187   */\n      swap1\n      pop\n        /* \"#utility.yul\":5827:6193   */\n      swap2\n      swap1\n      pop\n      jump\t// out\n        /* \"#utility.yul\":6199:6565   */\n    tag_270:\n        /* \"#utility.yul\":6341:6344   */\n      0x00\n        /* \"#utility.yul\":6362:6429   */\n      tag_272\n        /* \"#utility.yul\":6426:6428   */\n      0x0e\n        /* \"#utility.yul\":6421:6424   */\n      dup4\n        /* \"#utility.yul\":6362:6429   */\n      tag_247\n      jump\t// in\n    tag_272:\n        /* \"#utility.yul\":6355:6429   */\n      swap2\n      pop\n        /* \"#utility.yul\":6438:6531   */\n      tag_273\n        /* \"#utility.yul\":6527:6530   */\n      dup3\n        /* \"#utility.yul\":6438:6531   */\n      tag_274\n      jump\t// in\n    tag_273:\n        /* \"#utility.yul\":6556:6558   */\n      0x20\n        /* \"#utility.yul\":6551:6554   */\n      dup3\n        /* \"#utility.yul\":6547:6559   */\n      add\n        /* \"#utility.yul\":6540:6559   */\n      swap1\n      pop\n        /* \"#utility.yul\":6199:6565   */\n      swap2\n      swap1\n      pop\n      jump\t// out\n        /* \"#utility.yul\":6571:6937   */\n    tag_275:\n        /* \"#utility.yul\":6713:6716   */\n      0x00\n        /* \"#utility.yul\":6734:6801   */\n      tag_277\n        /* \"#utility.yul\":6798:6800   */\n      0x19\n        /* \"#utility.yul\":6793:6796   */\n      dup4\n        /* \"#utility.yul\":6734:6801   */\n      tag_247\n      jump\t// in\n    tag_277:\n        /* \"#utility.yul\":6727:6801   */\n      swap2\n      pop\n        /* \"#utility.yul\":6810:6903   */\n      tag_278\n        /* \"#utility.yul\":6899:6902   */\n      dup3\n        /* \"#utility.yul\":6810:6903   */\n      tag_279\n      jump\t// in\n    tag_278:\n        /* \"#utility.yul\":6928:6930   */\n      0x20\n        /* \"#utility.yul\":6923:6926   */\n      dup3\n        /* \"#utility.yul\":6919:6931   */\n      add\n        /* \"#utility.yul\":6912:6931   */\n      swap1\n      pop\n        /* \"#utility.yul\":6571:6937   */\n      swap2\n      swap1\n      pop\n      jump\t// out\n        /* \"#utility.yul\":6943:7309   */\n    tag_280:\n        /* \"#utility.yul\":7085:7088   */\n      0x00\n        /* \"#utility.yul\":7106:7173   */\n      tag_282\n        /* \"#utility.yul\":7170:7172   */\n      0x17\n        /* \"#utility.yul\":7165:7168   */\n      dup4\n        /* \"#utility.yul\":7106:7173   */\n      tag_247\n      jump\t// in\n    tag_282:\n        /* \"#utility.yul\":7099:7173   */\n      swap2\n      pop\n        /* \"#utility.yul\":7182:7275   */\n      tag_283\n        /* \"#utility.yul\":7271:7274   */\n      dup3\n        /* \"#utility.yul\":7182:7275   */\n      tag_284\n      jump\t// in\n    tag_283:\n        /* \"#utility.yul\":7300:7302   */\n      0x20\n        /* \"#utility.yul\":7295:7298   */\n      dup3\n        /* \"#utility.yul\":7291:7303   */\n      add\n        /* \"#utility.yul\":7284:7303   */\n      swap1\n      pop\n        /* \"#utility.yul\":6943:7309   */\n      swap2\n      swap1\n      pop\n      jump\t// out\n        /* \"#utility.yul\":7315:7681   */\n    tag_285:\n        /* \"#utility.yul\":7457:7460   */\n      0x00\n        /* \"#utility.yul\":7478:7545   */\n      tag_287\n        /* \"#utility.yul\":7542:7544   */\n      0x37\n        /* \"#utility.yul\":7537:7540   */\n      dup4\n        /* \"#utility.yul\":7478:7545   */\n      tag_247\n      jump\t// in\n    tag_287:\n        /* \"#utility.yul\":7471:7545   */\n      swap2\n      pop\n        /* \"#utility.yul\":7554:7647   */\n      tag_288\n        /* \"#utility.yul\":7643:7646   */\n      dup3\n        /* \"#utility.yul\":7554:7647   */\n      tag_289\n      jump\t// in\n    tag_288:\n        /* \"#utility.yul\":7672:7674   */\n      0x40\n        /* \"#utility.yul\":7667:7670   */\n      dup3\n        /* \"#utility.yul\":7663:7675   */\n      add\n        /* \"#utility.yul\":7656:7675   */\n      swap1\n      pop\n        /* \"#utility.yul\":7315:7681   */\n      swap2\n      swap1\n      pop\n      jump\t// out\n        /* \"#utility.yul\":7687:7962   */\n    tag_116:\n        /* \"#utility.yul\":7819:7822   */\n      0x00\n        /* \"#utility.yul\":7841:7936   */\n      tag_291\n        /* \"#utility.yul\":7932:7935   */\n      dup3\n        /* \"#utility.yul\":7923:7929   */\n      dup5\n        /* \"#utility.yul\":7841:7936   */\n      tag_236\n      jump\t// in\n    tag_291:\n        /* \"#utility.yul\":7834:7936   */\n      swap2\n      pop\n        /* \"#utility.yul\":7953:7956   */\n      dup2\n        /* \"#utility.yul\":7946:7956   */\n      swap1\n      pop\n        /* \"#utility.yul\":7687:7962   */\n      swap3\n      swap2\n      pop\n      pop\n      jump\t// out\n        /* \"#utility.yul\":7968:8341   */\n    tag_21:\n        /* \"#utility.yul\":8111:8115   */\n      0x00\n        /* \"#utility.yul\":8149:8151   */\n      0x20\n        /* \"#utility.yul\":8138:8147   */\n      dup3\n        /* \"#utility.yul\":8134:8152   */\n      add\n        /* \"#utility.yul\":8126:8152   */\n      swap1\n      pop\n        /* \"#utility.yul\":8198:8207   */\n      dup2\n        /* \"#utility.yul\":8192:8196   */\n      dup2\n        /* \"#utility.yul\":8188:8208   */\n      sub\n        /* \"#utility.yul\":8184:8185   */\n      0x00\n        /* \"#utility.yul\":8173:8182   */\n      dup4\n        /* \"#utility.yul\":8169:8186   */\n      add\n        /* \"#utility.yul\":8162:8209   */\n      mstore\n        /* \"#utility.yul\":8226:8334   */\n      tag_293\n        /* \"#utility.yul\":8329:8333   */\n      dup2\n        /* \"#utility.yul\":8320:8326   */\n      dup5\n        /* \"#utility.yul\":8226:8334   */\n      tag_218\n      jump\t// in\n    tag_293:\n        /* \"#utility.yul\":8218:8334   */\n      swap1\n      pop\n        /* \"#utility.yul\":7968:8341   */\n      swap3\n      swap2\n      pop\n      pop\n      jump\t// out\n        /* \"#utility.yul\":8347:8569   */\n    tag_34:\n        /* \"#utility.yul\":8440:8444   */\n      0x00\n        /* \"#utility.yul\":8478:8480   */\n      0x20\n        /* \"#utility.yul\":8467:8476   */\n      dup3\n        /* \"#utility.yul\":8463:8481   */\n      add\n        /* \"#utility.yul\":8455:8481   */\n      swap1\n      pop\n        /* \"#utility.yul\":8491:8562   */\n      tag_295\n        /* \"#utility.yul\":8559:8560   */\n      0x00\n        /* \"#utility.yul\":8548:8557   */\n      dup4\n        /* \"#utility.yul\":8544:8561   */\n      add\n        /* \"#utility.yul\":8535:8541   */\n      dup5\n        /* \"#utility.yul\":8491:8562   */\n      tag_232\n      jump\t// in\n    tag_295:\n        /* \"#utility.yul\":8347:8569   */\n      swap3\n      swap2\n      pop\n      pop\n      jump\t// out\n        /* \"#utility.yul\":8575:8994   */\n    tag_64:\n        /* \"#utility.yul\":8741:8745   */\n      0x00\n        /* \"#utility.yul\":8779:8781   */\n      0x20\n        /* \"#utility.yul\":8768:8777   */\n      dup3\n        /* \"#utility.yul\":8764:8782   */\n      add\n        /* \"#utility.yul\":8756:8782   */\n      swap1\n      pop\n        /* \"#utility.yul\":8828:8837   */\n      dup2\n        /* \"#utility.yul\":8822:8826   */\n      dup2\n        /* \"#utility.yul\":8818:8838   */\n      sub\n        /* \"#utility.yul\":8814:8815   */\n      0x00\n        /* \"#utility.yul\":8803:8812   */\n      dup4\n        /* \"#utility.yul\":8799:8816   */\n      add\n        /* \"#utility.yul\":8792:8839   */\n      mstore\n        /* \"#utility.yul\":8856:8987   */\n      tag_297\n        /* \"#utility.yul\":8982:8986   */\n      dup2\n        /* \"#utility.yul\":8856:8987   */\n      tag_244\n      jump\t// in\n    tag_297:\n        /* \"#utility.yul\":8848:8987   */\n      swap1\n      pop\n        /* \"#utility.yul\":8575:8994   */\n      swap2\n      swap1\n      pop\n      jump\t// out\n        /* \"#utility.yul\":9000:9419   */\n    tag_53:\n        /* \"#utility.yul\":9166:9170   */\n      0x00\n        /* \"#utility.yul\":9204:9206   */\n      0x20\n        /* \"#utility.yul\":9193:9202   */\n      dup3\n        /* \"#utility.yul\":9189:9207   */\n      add\n        /* \"#utility.yul\":9181:9207   */\n      swap1\n      pop\n        /* \"#utility.yul\":9253:9262   */\n      dup2\n        /* \"#utility.yul\":9247:9251   */\n      dup2\n        /* \"#utility.yul\":9243:9263   */\n      sub\n        /* \"#utility.yul\":9239:9240   */\n      0x00\n        /* \"#utility.yul\":9228:9237   */\n      dup4\n        /* \"#utility.yul\":9224:9241   */\n      add\n        /* \"#utility.yul\":9217:9264   */\n      mstore\n        /* \"#utility.yul\":9281:9412   */\n      tag_299\n        /* \"#utility.yul\":9407:9411   */\n      dup2\n        /* \"#utility.yul\":9281:9412   */\n      tag_250\n      jump\t// in\n    tag_299:\n        /* \"#utility.yul\":9273:9412   */\n      swap1\n      pop\n        /* \"#utility.yul\":9000:9419   */\n      swap2\n      swap1\n      pop\n      jump\t// out\n        /* \"#utility.yul\":9425:9844   */\n    tag_93:\n        /* \"#utility.yul\":9591:9595   */\n      0x00\n        /* \"#utility.yul\":9629:9631   */\n      0x20\n        /* \"#utility.yul\":9618:9627   */\n      dup3\n        /* \"#utility.yul\":9614:9632   */\n      add\n        /* \"#utility.yul\":9606:9632   */\n      swap1\n      pop\n        /* \"#utility.yul\":9678:9687   */\n      dup2\n        /* \"#utility.yul\":9672:9676   */\n      dup2\n        /* \"#utility.yul\":9668:9688   */\n      sub\n        /* \"#utility.yul\":9664:9665   */\n      0x00\n        /* \"#utility.yul\":9653:9662   */\n      dup4\n        /* \"#utility.yul\":9649:9666   */\n      add\n        /* \"#utility.yul\":9642:9689   */\n      mstore\n        /* \"#utility.yul\":9706:9837   */\n      tag_301\n        /* \"#utility.yul\":9832:9836   */\n      dup2\n        /* \"#utility.yul\":9706:9837   */\n      tag_255\n      jump\t// in\n    tag_301:\n        /* \"#utility.yul\":9698:9837   */\n      swap1\n      pop\n        /* \"#utility.yul\":9425:9844   */\n      swap2\n      swap1\n      pop\n      jump\t// out\n        /* \"#utility.yul\":9850:10269   */\n    tag_98:\n        /* \"#utility.yul\":10016:10020   */\n      0x00\n        /* \"#utility.yul\":10054:10056   */\n      0x20\n        /* \"#utility.yul\":10043:10052   */\n      dup3\n        /* \"#utility.yul\":10039:10057   */\n      add\n        /* \"#utility.yul\":10031:10057   */\n      swap1\n      pop\n        /* \"#utility.yul\":10103:10112   */\n      dup2\n        /* \"#utility.yul\":10097:10101   */\n      dup2\n        /* \"#utility.yul\":10093:10113   */\n      sub\n        /* \"#utility.yul\":10089:10090   */\n      0x00\n        /* \"#utility.yul\":10078:10087   */\n      dup4\n        /* \"#utility.yul\":10074:10091   */\n      add\n        /* \"#utility.yul\":10067:10114   */\n      mstore\n        /* \"#utility.yul\":10131:10262   */\n      tag_303\n        /* \"#utility.yul\":10257:10261   */\n      dup2\n        /* \"#utility.yul\":10131:10262   */\n      tag_260\n      jump\t// in\n    tag_303:\n        /* \"#utility.yul\":10123:10262   */\n      swap1\n      pop\n        /* \"#utility.yul\":9850:10269   */\n      swap2\n      swap1\n      pop\n      jump\t// out\n        /* \"#utility.yul\":10275:10694   */\n    tag_153:\n        /* \"#utility.yul\":10441:10445   */\n      0x00\n        /* \"#utility.yul\":10479:10481   */\n      0x20\n        /* \"#utility.yul\":10468:10477   */\n      dup3\n        /* \"#utility.yul\":10464:10482   */\n      add\n        /* \"#utility.yul\":10456:10482   */\n      swap1\n      pop\n        /* \"#utility.yul\":10528:10537   */\n      dup2\n        /* \"#utility.yul\":10522:10526   */\n      dup2\n        /* \"#utility.yul\":10518:10538   */\n      sub\n        /* \"#utility.yul\":10514:10515   */\n      0x00\n        /* \"#utility.yul\":10503:10512   */\n      dup4\n        /* \"#utility.yul\":10499:10516   */\n      add\n        /* \"#utility.yul\":10492:10539   */\n      mstore\n        /* \"#utility.yul\":10556:10687   */\n      tag_305\n        /* \"#utility.yul\":10682:10686   */\n      dup2\n        /* \"#utility.yul\":10556:10687   */\n      tag_265\n      jump\t// in\n    tag_305:\n        /* \"#utility.yul\":10548:10687   */\n      swap1\n      pop\n        /* \"#utility.yul\":10275:10694   */\n      swap2\n      swap1\n      pop\n      jump\t// out\n        /* \"#utility.yul\":10700:11119   */\n    tag_110:\n        /* \"#utility.yul\":10866:10870   */\n      0x00\n        /* \"#utility.yul\":10904:10906   */\n      0x20\n        /* \"#utility.yul\":10893:10902   */\n      dup3\n        /* \"#utility.yul\":10889:10907   */\n      add\n        /* \"#utility.yul\":10881:10907   */\n      swap1\n      pop\n        /* \"#utility.yul\":10953:10962   */\n      dup2\n        /* \"#utility.yul\":10947:10951   */\n      dup2\n        /* \"#utility.yul\":10943:10963   */\n      sub\n        /* \"#utility.yul\":10939:10940   */\n      0x00\n        /* \"#utility.yul\":10928:10937   */\n      dup4\n        /* \"#utility.yul\":10924:10941   */\n      add\n        /* \"#utility.yul\":10917:10964   */\n      mstore\n        /* \"#utility.yul\":10981:11112   */\n      tag_307\n        /* \"#utility.yul\":11107:11111   */\n      dup2\n        /* \"#utility.yul\":10981:11112   */\n      tag_270\n      jump\t// in\n    tag_307:\n        /* \"#utility.yul\":10973:11112   */\n      swap1\n      pop\n        /* \"#utility.yul\":10700:11119   */\n      swap2\n      swap1\n      pop\n      jump\t// out\n        /* \"#utility.yul\":11125:11544   */\n    tag_49:\n        /* \"#utility.yul\":11291:11295   */\n      0x00\n        /* \"#utility.yul\":11329:11331   */\n      0x20\n        /* \"#utility.yul\":11318:11327   */\n      dup3\n        /* \"#utility.yul\":11314:11332   */\n      add\n        /* \"#utility.yul\":11306:11332   */\n      swap1\n      pop\n        /* \"#utility.yul\":11378:11387   */\n      dup2\n        /* \"#utility.yul\":11372:11376   */\n      dup2\n        /* \"#utility.yul\":11368:11388   */\n      sub\n        /* \"#utility.yul\":11364:11365   */\n      0x00\n        /* \"#utility.yul\":11353:11362   */\n      dup4\n        /* \"#utility.yul\":11349:11366   */\n      add\n        /* \"#utility.yul\":11342:11389   */\n      mstore\n        /* \"#utility.yul\":11406:11537   */\n      tag_309\n        /* \"#utility.yul\":11532:11536   */\n      dup2\n        /* \"#utility.yul\":11406:11537   */\n      tag_275\n      jump\t// in\n    tag_309:\n        /* \"#utility.yul\":11398:11537   */\n      swap1\n      pop\n        /* \"#utility.yul\":11125:11544   */\n      swap2\n      swap1\n      pop\n      jump\t// out\n        /* \"#utility.yul\":11550:11969   */\n    tag_79:\n        /* \"#utility.yul\":11716:11720   */\n      0x00\n        /* \"#utility.yul\":11754:11756   */\n      0x20\n        /* \"#utility.yul\":11743:11752   */\n      dup3\n        /* \"#utility.yul\":11739:11757   */\n      add\n        /* \"#utility.yul\":11731:11757   */\n      swap1\n      pop\n        /* \"#utility.yul\":11803:11812   */\n      dup2\n        /* \"#utility.yul\":11797:11801   */\n      dup2\n        /* \"#utility.yul\":11793:11813   */\n      sub\n        /* \"#utility.yul\":11789:11790   */\n      0x00\n        /* \"#utility.yul\":11778:11787   */\n      dup4\n        /* \"#utility.yul\":11774:11791   */\n      add\n        /* \"#utility.yul\":11767:11814   */\n      mstore\n        /* \"#utility.yul\":11831:11962   */\n      tag_311\n        /* \"#utility.yul\":11957:11961   */\n      dup2\n        /* \"#utility.yul\":11831:11962   */\n      tag_280\n      jump\t// in\n    tag_311:\n        /* \"#utility.yul\":11823:11962   */\n      swap1\n      pop\n        /* \"#utility.yul\":11550:11969   */\n      swap2\n      swap1\n      pop\n      jump\t// out\n        /* \"#utility.yul\":11975:12394   */\n    tag_82:\n        /* \"#utility.yul\":12141:12145   */\n      0x00\n        /* \"#utility.yul\":12179:12181   */\n      0x20\n        /* \"#utility.yul\":12168:12177   */\n      dup3\n        /* \"#utility.yul\":12164:12182   */\n      add\n        /* \"#utility.yul\":12156:12182   */\n      swap1\n      pop\n        /* \"#utility.yul\":12228:12237   */\n      dup2\n        /* \"#utility.yul\":12222:12226   */\n      dup2\n        /* \"#utility.yul\":12218:12238   */\n      sub\n        /* \"#utility.yul\":12214:12215   */\n      0x00\n        /* \"#utility.yul\":12203:12212   */\n      dup4\n        /* \"#utility.yul\":12199:12216   */\n      add\n        /* \"#utility.yul\":12192:12239   */\n      mstore\n        /* \"#utility.yul\":12256:12387   */\n      tag_313\n        /* \"#utility.yul\":12382:12386   */\n      dup2\n        /* \"#utility.yul\":12256:12387   */\n      tag_285\n      jump\t// in\n    tag_313:\n        /* \"#utility.yul\":12248:12387   */\n      swap1\n      pop\n        /* \"#utility.yul\":11975:12394   */\n      swap2\n      swap1\n      pop\n      jump\t// out\n        /* \"#utility.yul\":12400:12529   */\n    tag_173:\n        /* \"#utility.yul\":12434:12440   */\n      0x00\n        /* \"#utility.yul\":12461:12481   */\n      tag_315\n      tag_316\n      jump\t// in\n    tag_315:\n        /* \"#utility.yul\":12451:12481   */\n      swap1\n      pop\n        /* \"#utility.yul\":12490:12523   */\n      tag_317\n        /* \"#utility.yul\":12518:12522   */\n      dup3\n        /* \"#utility.yul\":12510:12516   */\n      dup3\n        /* \"#utility.yul\":12490:12523   */\n      tag_318\n      jump\t// in\n    tag_317:\n        /* \"#utility.yul\":12400:12529   */\n      swap2\n      swap1\n      pop\n      jump\t// out\n        /* \"#utility.yul\":12535:12610   */\n    tag_316:\n        /* \"#utility.yul\":12568:12574   */\n      0x00\n        /* \"#utility.yul\":12601:12603   */\n      0x40\n        /* \"#utility.yul\":12595:12604   */\n      mload\n        /* \"#utility.yul\":12585:12604   */\n      swap1\n      pop\n        /* \"#utility.yul\":12535:12610   */\n      swap1\n      jump\t// out\n        /* \"#utility.yul\":12616:12924   */\n    tag_172:\n        /* \"#utility.yul\":12678:12682   */\n      0x00\n        /* \"#utility.yul\":12768:12786   */\n      0xffffffffffffffff\n        /* \"#utility.yul\":12760:12766   */\n      dup3\n        /* \"#utility.yul\":12757:12787   */\n      gt\n        /* \"#utility.yul\":12754:12810   */\n      iszero\n      tag_321\n      jumpi\n        /* \"#utility.yul\":12790:12808   */\n      tag_322\n      tag_323\n      jump\t// in\n    tag_322:\n        /* \"#utility.yul\":12754:12810   */\n    tag_321:\n        /* \"#utility.yul\":12828:12857   */\n      tag_324\n        /* \"#utility.yul\":12850:12856   */\n      dup3\n        /* \"#utility.yul\":12828:12857   */\n      tag_325\n      jump\t// in\n    tag_324:\n        /* \"#utility.yul\":12820:12857   */\n      swap1\n      pop\n        /* \"#utility.yul\":12912:12916   */\n      0x20\n        /* \"#utility.yul\":12906:12910   */\n      dup2\n        /* \"#utility.yul\":12902:12917   */\n      add\n        /* \"#utility.yul\":12894:12917   */\n      swap1\n      pop\n        /* \"#utility.yul\":12616:12924   */\n      swap2\n      swap1\n      pop\n      jump\t// out\n        /* \"#utility.yul\":12930:13062   */\n    tag_225:\n        /* \"#utility.yul\":12997:13001   */\n      0x00\n        /* \"#utility.yul\":13020:13023   */\n      dup2\n        /* \"#utility.yul\":13012:13023   */\n      swap1\n      pop\n        /* \"#utility.yul\":13050:13054   */\n      0x20\n        /* \"#utility.yul\":13045:13048   */\n      dup3\n        /* \"#utility.yul\":13041:13055   */\n      add\n        /* \"#utility.yul\":13033:13055   */\n      swap1\n      pop\n        /* \"#utility.yul\":12930:13062   */\n      swap2\n      swap1\n      pop\n      jump\t// out\n        /* \"#utility.yul\":13068:13182   */\n    tag_221:\n        /* \"#utility.yul\":13135:13141   */\n      0x00\n        /* \"#utility.yul\":13169:13174   */\n      dup2\n        /* \"#utility.yul\":13163:13175   */\n      mload\n        /* \"#utility.yul\":13153:13175   */\n      swap1\n      pop\n        /* \"#utility.yul\":13068:13182   */\n      swap2\n      swap1\n      pop\n      jump\t// out\n        /* \"#utility.yul\":13188:13287   */\n    tag_239:\n        /* \"#utility.yul\":13240:13246   */\n      0x00\n        /* \"#utility.yul\":13274:13279   */\n      dup2\n        /* \"#utility.yul\":13268:13280   */\n      mload\n        /* \"#utility.yul\":13258:13280   */\n      swap1\n      pop\n        /* \"#utility.yul\":13188:13287   */\n      swap2\n      swap1\n      pop\n      jump\t// out\n        /* \"#utility.yul\":13293:13406   */\n    tag_231:\n        /* \"#utility.yul\":13363:13367   */\n      0x00\n        /* \"#utility.yul\":13395:13399   */\n      0x20\n        /* \"#utility.yul\":13390:13393   */\n      dup3\n        /* \"#utility.yul\":13386:13400   */\n      add\n        /* \"#utility.yul\":13378:13400   */\n      swap1\n      pop\n        /* \"#utility.yul\":13293:13406   */\n      swap2\n      swap1\n      pop\n      jump\t// out\n        /* \"#utility.yul\":13412:13596   */\n    tag_223:\n        /* \"#utility.yul\":13511:13522   */\n      0x00\n        /* \"#utility.yul\":13545:13551   */\n      dup3\n        /* \"#utility.yul\":13540:13543   */\n      dup3\n        /* \"#utility.yul\":13533:13552   */\n      mstore\n        /* \"#utility.yul\":13585:13589   */\n      0x20\n        /* \"#utility.yul\":13580:13583   */\n      dup3\n        /* \"#utility.yul\":13576:13590   */\n      add\n        /* \"#utility.yul\":13561:13590   */\n      swap1\n      pop\n        /* \"#utility.yul\":13412:13596   */\n      swap3\n      swap2\n      pop\n      pop\n      jump\t// out\n        /* \"#utility.yul\":13602:13771   */\n    tag_247:\n        /* \"#utility.yul\":13686:13697   */\n      0x00\n        /* \"#utility.yul\":13720:13726   */\n      dup3\n        /* \"#utility.yul\":13715:13718   */\n      dup3\n        /* \"#utility.yul\":13708:13727   */\n      mstore\n        /* \"#utility.yul\":13760:13764   */\n      0x20\n        /* \"#utility.yul\":13755:13758   */\n      dup3\n        /* \"#utility.yul\":13751:13765   */\n      add\n        /* \"#utility.yul\":13736:13765   */\n      swap1\n      pop\n        /* \"#utility.yul\":13602:13771   */\n      swap3\n      swap2\n      pop\n      pop\n      jump\t// out\n        /* \"#utility.yul\":13777:13925   */\n    tag_241:\n        /* \"#utility.yul\":13879:13890   */\n      0x00\n        /* \"#utility.yul\":13916:13919   */\n      dup2\n        /* \"#utility.yul\":13901:13919   */\n      swap1\n      pop\n        /* \"#utility.yul\":13777:13925   */\n      swap3\n      swap2\n      pop\n      pop\n      jump\t// out\n        /* \"#utility.yul\":13931:14027   */\n    tag_217:\n        /* \"#utility.yul\":13968:13975   */\n      0x00\n        /* \"#utility.yul\":13997:14021   */\n      tag_334\n        /* \"#utility.yul\":14015:14020   */\n      dup3\n        /* \"#utility.yul\":13997:14021   */\n      tag_335\n      jump\t// in\n    tag_334:\n        /* \"#utility.yul\":13986:14021   */\n      swap1\n      pop\n        /* \"#utility.yul\":13931:14027   */\n      swap2\n      swap1\n      pop\n      jump\t// out\n        /* \"#utility.yul\":14033:14110   */\n    tag_235:\n        /* \"#utility.yul\":14070:14077   */\n      0x00\n        /* \"#utility.yul\":14099:14104   */\n      dup2\n        /* \"#utility.yul\":14088:14104   */\n      swap1\n      pop\n        /* \"#utility.yul\":14033:14110   */\n      swap2\n      swap1\n      pop\n      jump\t// out\n        /* \"#utility.yul\":14116:14242   */\n    tag_335:\n        /* \"#utility.yul\":14153:14160   */\n      0x00\n        /* \"#utility.yul\":14193:14235   */\n      0xffffffffffffffffffffffffffffffffffffffff\n        /* \"#utility.yul\":14186:14191   */\n      dup3\n        /* \"#utility.yul\":14182:14236   */\n      and\n        /* \"#utility.yul\":14171:14236   */\n      swap1\n      pop\n        /* \"#utility.yul\":14116:14242   */\n      swap2\n      swap1\n      pop\n      jump\t// out\n        /* \"#utility.yul\":14248:14325   */\n    tag_338:\n        /* \"#utility.yul\":14285:14292   */\n      0x00\n        /* \"#utility.yul\":14314:14319   */\n      dup2\n        /* \"#utility.yul\":14303:14319   */\n      swap1\n      pop\n        /* \"#utility.yul\":14248:14325   */\n      swap2\n      swap1\n      pop\n      jump\t// out\n        /* \"#utility.yul\":14331:14485   */\n    tag_178:\n        /* \"#utility.yul\":14415:14421   */\n      dup3\n        /* \"#utility.yul\":14410:14413   */\n      dup2\n        /* \"#utility.yul\":14405:14408   */\n      dup4\n        /* \"#utility.yul\":14392:14422   */\n      calldatacopy\n        /* \"#utility.yul\":14477:14478   */\n      0x00\n        /* \"#utility.yul\":14468:14474   */\n      dup4\n        /* \"#utility.yul\":14463:14466   */\n      dup4\n        /* \"#utility.yul\":14459:14475   */\n      add\n        /* \"#utility.yul\":14452:14479   */\n      mstore\n        /* \"#utility.yul\":14331:14485   */\n      pop\n      pop\n      pop\n      jump\t// out\n        /* \"#utility.yul\":14491:14798   */\n    tag_243:\n        /* \"#utility.yul\":14559:14560   */\n      0x00\n        /* \"#utility.yul\":14569:14682   */\n    tag_342:\n        /* \"#utility.yul\":14583:14589   */\n      dup4\n        /* \"#utility.yul\":14580:14581   */\n      dup2\n        /* \"#utility.yul\":14577:14590   */\n      lt\n        /* \"#utility.yul\":14569:14682   */\n      iszero\n      tag_344\n      jumpi\n        /* \"#utility.yul\":14668:14669   */\n      dup1\n        /* \"#utility.yul\":14663:14666   */\n      dup3\n        /* \"#utility.yul\":14659:14670   */\n      add\n        /* \"#utility.yul\":14653:14671   */\n      mload\n        /* \"#utility.yul\":14649:14650   */\n      dup2\n        /* \"#utility.yul\":14644:14647   */\n      dup5\n        /* \"#utility.yul\":14640:14651   */\n      add\n        /* \"#utility.yul\":14633:14672   */\n      mstore\n        /* \"#utility.yul\":14605:14607   */\n      0x20\n        /* \"#utility.yul\":14602:14603   */\n      dup2\n        /* \"#utility.yul\":14598:14608   */\n      add\n        /* \"#utility.yul\":14593:14608   */\n      swap1\n      pop\n        /* \"#utility.yul\":14569:14682   */\n      jump(tag_342)\n    tag_344:\n        /* \"#utility.yul\":14700:14706   */\n      dup4\n        /* \"#utility.yul\":14697:14698   */\n      dup2\n        /* \"#utility.yul\":14694:14707   */\n      gt\n        /* \"#utility.yul\":14691:14792   */\n      iszero\n      tag_345\n      jumpi\n        /* \"#utility.yul\":14780:14781   */\n      0x00\n        /* \"#utility.yul\":14771:14777   */\n      dup5\n        /* \"#utility.yul\":14766:14769   */\n      dup5\n        /* \"#utility.yul\":14762:14778   */\n      add\n        /* \"#utility.yul\":14755:14782   */\n      mstore\n        /* \"#utility.yul\":14691:14792   */\n    tag_345:\n        /* \"#utility.yul\":14540:14798   */\n      pop\n        /* \"#utility.yul\":14491:14798   */\n      pop\n      pop\n      pop\n      jump\t// out\n        /* \"#utility.yul\":14804:15124   */\n    tag_132:\n        /* \"#utility.yul\":14848:14854   */\n      0x00\n        /* \"#utility.yul\":14885:14886   */\n      0x02\n        /* \"#utility.yul\":14879:14883   */\n      dup3\n        /* \"#utility.yul\":14875:14887   */\n      div\n        /* \"#utility.yul\":14865:14887   */\n      swap1\n      pop\n        /* \"#utility.yul\":14932:14933   */\n      0x01\n        /* \"#utility.yul\":14926:14930   */\n      dup3\n        /* \"#utility.yul\":14922:14934   */\n      and\n        /* \"#utility.yul\":14953:14971   */\n      dup1\n        /* \"#utility.yul\":14943:15024   */\n      tag_347\n      jumpi\n        /* \"#utility.yul\":15009:15013   */\n      0x7f\n        /* \"#utility.yul\":15001:15007   */\n      dup3\n        /* \"#utility.yul\":14997:15014   */\n      and\n        /* \"#utility.yul\":14987:15014   */\n      swap2\n      pop\n        /* \"#utility.yul\":14943:15024   */\n    tag_347:\n        /* \"#utility.yul\":15071:15073   */\n      0x20\n        /* \"#utility.yul\":15063:15069   */\n      dup3\n        /* \"#utility.yul\":15060:15074   */\n      lt\n        /* \"#utility.yul\":15040:15058   */\n      dup2\n        /* \"#utility.yul\":15037:15075   */\n      eq\n        /* \"#utility.yul\":15034:15118   */\n      iszero\n      tag_348\n      jumpi\n        /* \"#utility.yul\":15090:15108   */\n      tag_349\n      tag_350\n      jump\t// in\n    tag_349:\n        /* \"#utility.yul\":15034:15118   */\n    tag_348:\n        /* \"#utility.yul\":14855:15124   */\n      pop\n        /* \"#utility.yul\":14804:15124   */\n      swap2\n      swap1\n      pop\n      jump\t// out\n        /* \"#utility.yul\":15130:15411   */\n    tag_318:\n        /* \"#utility.yul\":15213:15240   */\n      tag_352\n        /* \"#utility.yul\":15235:15239   */\n      dup3\n        /* \"#utility.yul\":15213:15240   */\n      tag_325\n      jump\t// in\n    tag_352:\n        /* \"#utility.yul\":15205:15211   */\n      dup2\n        /* \"#utility.yul\":15201:15241   */\n      add\n        /* \"#utility.yul\":15343:15349   */\n      dup2\n        /* \"#utility.yul\":15331:15341   */\n      dup2\n        /* \"#utility.yul\":15328:15350   */\n      lt\n        /* \"#utility.yul\":15307:15325   */\n      0xffffffffffffffff\n        /* \"#utility.yul\":15295:15305   */\n      dup3\n        /* \"#utility.yul\":15292:15326   */\n      gt\n        /* \"#utility.yul\":15289:15351   */\n      or\n        /* \"#utility.yul\":15286:15374   */\n      iszero\n      tag_353\n      jumpi\n        /* \"#utility.yul\":15354:15372   */\n      tag_354\n      tag_323\n      jump\t// in\n    tag_354:\n        /* \"#utility.yul\":15286:15374   */\n    tag_353:\n        /* \"#utility.yul\":15394:15404   */\n      dup1\n        /* \"#utility.yul\":15390:15392   */\n      0x40\n        /* \"#utility.yul\":15383:15405   */\n      mstore\n        /* \"#utility.yul\":15173:15411   */\n      pop\n        /* \"#utility.yul\":15130:15411   */\n      pop\n      pop\n      jump\t// out\n        /* \"#utility.yul\":15417:15650   */\n    tag_95:\n        /* \"#utility.yul\":15456:15459   */\n      0x00\n        /* \"#utility.yul\":15479:15503   */\n      tag_356\n        /* \"#utility.yul\":15497:15502   */\n      dup3\n        /* \"#utility.yul\":15479:15503   */\n      tag_338\n      jump\t// in\n    tag_356:\n        /* \"#utility.yul\":15470:15503   */\n      swap2\n      pop\n        /* \"#utility.yul\":15525:15591   */\n      0xffffffffffffffffffffffffffffffffffffffffffffffffffffffffffffffff\n        /* \"#utility.yul\":15518:15523   */\n      dup3\n        /* \"#utility.yul\":15515:15592   */\n      eq\n        /* \"#utility.yul\":15512:15615   */\n      iszero\n      tag_357\n      jumpi\n        /* \"#utility.yul\":15595:15613   */\n      tag_358\n      tag_359\n      jump\t// in\n    tag_358:\n        /* \"#utility.yul\":15512:15615   */\n    tag_357:\n        /* \"#utility.yul\":15642:15643   */\n      0x01\n        /* \"#utility.yul\":15635:15640   */\n      dup3\n        /* \"#utility.yul\":15631:15644   */\n      add\n        /* \"#utility.yul\":15624:15644   */\n      swap1\n      pop\n        /* \"#utility.yul\":15417:15650   */\n      swap2\n      swap1\n      pop\n      jump\t// out\n        /* \"#utility.yul\":15656:15836   */\n    tag_359:\n        /* \"#utility.yul\":15704:15781   */\n      0x4e487b7100000000000000000000000000000000000000000000000000000000\n        /* \"#utility.yul\":15701:15702   */\n      0x00\n        /* \"#utility.yul\":15694:15782   */\n      mstore\n        /* \"#utility.yul\":15801:15805   */\n      0x11\n        /* \"#utility.yul\":15798:15799   */\n      0x04\n        /* \"#utility.yul\":15791:15806   */\n      mstore\n        /* \"#utility.yul\":15825:15829   */\n      0x24\n        /* \"#utility.yul\":15822:15823   */\n      0x00\n        /* \"#utility.yul\":15815:15830   */\n      revert\n        /* \"#utility.yul\":15842:16022   */\n    tag_44:\n        /* \"#utility.yul\":15890:15967   */\n      0x4e487b7100000000000000000000000000000000000000000000000000000000\n        /* \"#utility.yul\":15887:15888   */\n      0x00\n        /* \"#utility.yul\":15880:15968   */\n      mstore\n        /* \"#utility.yul\":15987:15991   */\n      0x21\n        /* \"#utility.yul\":15984:15985   */\n      0x04\n        /* \"#utility.yul\":15977:15992   */\n      mstore\n        /* \"#utility.yul\":16011:16015   */\n      0x24\n        /* \"#utility.yul\":16008:16009   */\n      0x00\n        /* \"#utility.yul\":16001:16016   */\n      revert\n        /* \"#utility.yul\":16028:16208   */\n    tag_350:\n        /* \"#utility.yul\":16076:16153   */\n      0x4e487b7100000000000000000000000000000000000000000000000000000000\n        /* \"#utility.yul\":16073:16074   */\n      0x00\n        /* \"#utility.yul\":16066:16154   */\n      mstore\n        /* \"#utility.yul\":16173:16177   */\n      0x22\n        /* \"#utility.yul\":16170:16171   */\n      0x04\n        /* \"#utility.yul\":16163:16178   */\n      mstore\n        /* \"#utility.yul\":16197:16201   */\n      0x24\n        /* \"#utility.yul\":16194:16195   */\n      0x00\n        /* \"#utility.yul\":16187:16202   */\n      revert\n        /* \"#utility.yul\":16214:16394   */\n    tag_88:\n        /* \"#utility.yul\":16262:16339   */\n      0x4e487b7100000000000000000000000000000000000000000000000000000000\n        /* \"#utility.yul\":16259:16260   */\n      0x00\n        /* \"#utility.yul\":16252:16340   */\n      mstore\n        /* \"#utility.yul\":16359:16363   */\n      0x32\n        /* \"#utility.yul\":16356:16357   */\n      0x04\n        /* \"#utility.yul\":16349:16364   */\n      mstore\n        /* \"#utility.yul\":16383:16387   */\n      0x24\n        /* \"#utility.yul\":16380:16381   */\n      0x00\n        /* \"#utility.yul\":16373:16388   */\n      revert\n        /* \"#utility.yul\":16400:16580   */\n    tag_323:\n        /* \"#utility.yul\":16448:16525   */\n      0x4e487b7100000000000000000000000000000000000000000000000000000000\n        /* \"#utility.yul\":16445:16446   */\n      0x00\n        /* \"#utility.yul\":16438:16526   */\n      mstore\n        /* \"#utility.yul\":16545:16549   */\n      0x41\n        /* \"#utility.yul\":16542:16543   */\n      0x04\n        /* \"#utility.yul\":16535:16550   */\n      mstore\n        /* \"#utility.yul\":16569:16573   */\n      0x24\n        /* \"#utility.yul\":16566:16567   */\n      0x00\n        /* \"#utility.yul\":16559:16574   */\n      revert\n        /* \"#utility.yul\":16586:16703   */\n    tag_187:\n        /* \"#utility.yul\":16695:16696   */\n      0x00\n        /* \"#utility.yul\":16692:16693   */\n      dup1\n        /* \"#utility.yul\":16685:16697   */\n      revert\n        /* \"#utility.yul\":16709:16826   */\n    tag_176:\n        /* \"#utility.yul\":16818:16819   */\n      0x00\n        /* \"#utility.yul\":16815:16816   */\n      dup1\n        /* \"#utility.yul\":16808:16820   */\n      revert\n        /* \"#utility.yul\":16832:16949   */\n    tag_199:\n        /* \"#utility.yul\":16941:16942   */\n      0x00\n        /* \"#utility.yul\":16938:16939   */\n      dup1\n        /* \"#utility.yul\":16931:16943   */\n      revert\n        /* \"#utility.yul\":16955:17072   */\n    tag_192:\n        /* \"#utility.yul\":17064:17065   */\n      0x00\n        /* \"#utility.yul\":17061:17062   */\n      dup1\n        /* \"#utility.yul\":17054:17066   */\n      revert\n        /* \"#utility.yul\":17078:17180   */\n    tag_325:\n        /* \"#utility.yul\":17119:17125   */\n      0x00\n        /* \"#utility.yul\":17170:17172   */\n      0x1f\n        /* \"#utility.yul\":17166:17173   */\n      not\n        /* \"#utility.yul\":17161:17163   */\n      0x1f\n        /* \"#utility.yul\":17154:17159   */\n      dup4\n        /* \"#utility.yul\":17150:17164   */\n      add\n        /* \"#utility.yul\":17146:17174   */\n      and\n        /* \"#utility.yul\":17136:17174   */\n      swap1\n      pop\n        /* \"#utility.yul\":17078:17180   */\n      swap2\n      swap1\n      pop\n      jump\t// out\n        /* \"#utility.yul\":17186:17364   */\n    tag_249:\n        /* \"#utility.yul\":17326:17356   */\n      0x52657669657720746865206170706c69636174696f6e20666972737400000000\n        /* \"#utility.yul\":17322:17323   */\n      0x00\n        /* \"#utility.yul\":17314:17320   */\n      dup3\n        /* \"#utility.yul\":17310:17324   */\n      add\n        /* \"#utility.yul\":17303:17357   */\n      mstore\n        /* \"#utility.yul\":17186:17364   */\n      pop\n      jump\t// out\n        /* \"#utility.yul\":17370:17540   */\n    tag_254:\n        /* \"#utility.yul\":17510:17532   */\n      0x506861736520616c726561647920616374697665000000000000000000000000\n        /* \"#utility.yul\":17506:17507   */\n      0x00\n        /* \"#utility.yul\":17498:17504   */\n      dup3\n        /* \"#utility.yul\":17494:17508   */\n      add\n        /* \"#utility.yul\":17487:17533   */\n      mstore\n        /* \"#utility.yul\":17370:17540   */\n      pop\n      jump\t// out\n        /* \"#utility.yul\":17546:17720   */\n    tag_259:\n        /* \"#utility.yul\":17686:17712   */\n      0x4170706c69636174696f6e20616c72656164792073656e740000000000000000\n        /* \"#utility.yul\":17682:17683   */\n      0x00\n        /* \"#utility.yul\":17674:17680   */\n      dup3\n        /* \"#utility.yul\":17670:17684   */\n      add\n        /* \"#utility.yul\":17663:17713   */\n      mstore\n        /* \"#utility.yul\":17546:17720   */\n      pop\n      jump\t// out\n        /* \"#utility.yul\":17726:17955   */\n    tag_264:\n        /* \"#utility.yul\":17866:17900   */\n      0x596f7572206170706c69636174696f6e2068617320616c726561647920626565\n        /* \"#utility.yul\":17862:17863   */\n      0x00\n        /* \"#utility.yul\":17854:17860   */\n      dup3\n        /* \"#utility.yul\":17850:17864   */\n      add\n        /* \"#utility.yul\":17843:17901   */\n      mstore\n        /* \"#utility.yul\":17935:17947   */\n      0x6e2072656a656374656400000000000000000000000000000000000000000000\n        /* \"#utility.yul\":17930:17932   */\n      0x20\n        /* \"#utility.yul\":17922:17928   */\n      dup3\n        /* \"#utility.yul\":17918:17933   */\n      add\n        /* \"#utility.yul\":17911:17948   */\n      mstore\n        /* \"#utility.yul\":17726:17955   */\n      pop\n      jump\t// out\n        /* \"#utility.yul\":17961:18189   */\n    tag_269:\n        /* \"#utility.yul\":18101:18135   */\n      0x596f7520617265206e6f7420746865206f776e6572206f722070726976617465\n        /* \"#utility.yul\":18097:18098   */\n      0x00\n        /* \"#utility.yul\":18089:18095   */\n      dup3\n        /* \"#utility.yul\":18085:18099   */\n      add\n        /* \"#utility.yul\":18078:18136   */\n      mstore\n        /* \"#utility.yul\":18170:18181   */\n      0x2070726f76696465720000000000000000000000000000000000000000000000\n        /* \"#utility.yul\":18165:18167   */\n      0x20\n        /* \"#utility.yul\":18157:18163   */\n      dup3\n        /* \"#utility.yul\":18153:18168   */\n      add\n        /* \"#utility.yul\":18146:18182   */\n      mstore\n        /* \"#utility.yul\":17961:18189   */\n      pop\n      jump\t// out\n        /* \"#utility.yul\":18195:18359   */\n    tag_274:\n        /* \"#utility.yul\":18335:18351   */\n      0x596f7572206e6f742061646d696e000000000000000000000000000000000000\n        /* \"#utility.yul\":18331:18332   */\n      0x00\n        /* \"#utility.yul\":18323:18329   */\n      dup3\n        /* \"#utility.yul\":18319:18333   */\n      add\n        /* \"#utility.yul\":18312:18352   */\n      mstore\n        /* \"#utility.yul\":18195:18359   */\n      pop\n      jump\t// out\n        /* \"#utility.yul\":18365:18540   */\n    tag_279:\n        /* \"#utility.yul\":18505:18532   */\n      0x596f7572206e6f7420507269766174652070726f766964657200000000000000\n        /* \"#utility.yul\":18501:18502   */\n      0x00\n        /* \"#utility.yul\":18493:18499   */\n      dup3\n        /* \"#utility.yul\":18489:18503   */\n      add\n        /* \"#utility.yul\":18482:18533   */\n      mstore\n        /* \"#utility.yul\":18365:18540   */\n      pop\n      jump\t// out\n        /* \"#utility.yul\":18546:18719   */\n    tag_284:\n        /* \"#utility.yul\":18686:18711   */\n      0x4170706c69636174696f6e20706861736520656e646564000000000000000000\n        /* \"#utility.yul\":18682:18683   */\n      0x00\n        /* \"#utility.yul\":18674:18680   */\n      dup3\n        /* \"#utility.yul\":18670:18684   */\n      add\n        /* \"#utility.yul\":18663:18712   */\n      mstore\n        /* \"#utility.yul\":18546:18719   */\n      pop\n      jump\t// out\n        /* \"#utility.yul\":18725:18967   */\n    tag_289:\n        /* \"#utility.yul\":18865:18899   */\n      0x596f752063616e27742073656e6420616e206170706c69636174696f6e20746f\n        /* \"#utility.yul\":18861:18862   */\n      0x00\n        /* \"#utility.yul\":18853:18859   */\n      dup3\n        /* \"#utility.yul\":18849:18863   */\n      add\n        /* \"#utility.yul\":18842:18900   */\n      mstore\n        /* \"#utility.yul\":18934:18959   */\n      0x20736f6d656f6e6520656c736527732061646472657373000000000000000000\n        /* \"#utility.yul\":18929:18931   */\n      0x20\n        /* \"#utility.yul\":18921:18927   */\n      dup3\n        /* \"#utility.yul\":18917:18932   */\n      add\n        /* \"#utility.yul\":18910:18960   */\n      mstore\n        /* \"#utility.yul\":18725:18967   */\n      pop\n      jump\t// out\n        /* \"#utility.yul\":18973:19095   */\n    tag_182:\n        /* \"#utility.yul\":19046:19070   */\n      tag_380\n        /* \"#utility.yul\":19064:19069   */\n      dup2\n        /* \"#utility.yul\":19046:19070   */\n      tag_217\n      jump\t// in\n    tag_380:\n        /* \"#utility.yul\":19039:19044   */\n      dup2\n        /* \"#utility.yul\":19036:19071   */\n      eq\n        /* \"#utility.yul\":19026:19089   */\n      tag_381\n      jumpi\n        /* \"#utility.yul\":19085:19086   */\n      0x00\n        /* \"#utility.yul\":19082:19083   */\n      dup1\n        /* \"#utility.yul\":19075:19087   */\n      revert\n        /* \"#utility.yul\":19026:19089   */\n    tag_381:\n        /* \"#utility.yul\":18973:19095   */\n      pop\n      jump\t// out\n\n    auxdata: 0xa26469706673582212208dd8554a08da5cb776f9a8945d73d4f73f4cae93c5af7de90e7fc7a9e71567c064736f6c63430008070033\n}\n",
				"bytecode": {
					"linkReferences": {},
					"object": "608060405234801561001057600080fd5b50611da0806100206000396000f3fe608060405234801561001057600080fd5b50600436106100885760003560e01c80637f89128f1161005b5780637f89128f146100ed5780638e4f8c6b1461010b578063a678b65b1461013b578063c10e39111461015757610088565b80630691615d1461008d5780631d3eea3514610097578063686c4cea146100b3578063785963c3146100d1575b600080fd5b610095610175565b005b6100b160048036038101906100ac9190611401565b61035f565b005b6100bb610508565b6040516100c89190611719565b60405180910390f35b6100eb60048036038101906100e69190611477565b61064b565b005b6100f5610b27565b6040516101029190611719565b60405180910390f35b6101256004803603810190610120919061142e565b610c6a565b604051610132919061173b565b60405180910390f35b61015560048036038101906101509190611401565b610c9a565b005b61015f611119565b60405161016c9190611719565b60405180910390f35b6002600481111561018957610188611a8f565b5b6000803373ffffffffffffffffffffffffffffffffffffffff1673ffffffffffffffffffffffffffffffffffffffff16815260200190815260200160002060000160009054906101000a900460ff1660048111156101ea576101e9611a8f565b5b1461022a576040517f08c379a000000000000000000000000000000000000000000000000000000000815260040161022190611816565b60405180910390fd5b60001515600160003373ffffffffffffffffffffffffffffffffffffffff1673ffffffffffffffffffffffffffffffffffffffff16815260200190815260200160002060000160009054906101000a900460ff161515146102c0576040517f08c379a00000000000000000000000000000000000000000000000000000000081526004016102b790611776565b60405180910390fd5b604051806040016040528060011515815260200160011515815250600160003373ffffffffffffffffffffffffffffffffffffffff1673ffffffffffffffffffffffffffffffffffffffff16815260200190815260200160002060008201518160000160006101000a81548160ff02191690831515021790555060208201518160000160016101000a81548160ff021916908315150217905550905050565b6002600481111561037357610372611a8f565b5b6000803373ffffffffffffffffffffffffffffffffffffffff1673ffffffffffffffffffffffffffffffffffffffff16815260200190815260200160002060000160009054906101000a900460ff1660048111156103d4576103d3611a8f565b5b14610414576040517f08c379a000000000000000000000000000000000000000000000000000000000815260040161040b90611816565b60405180910390fd5b60001515600260003373ffffffffffffffffffffffffffffffffffffffff1673ffffffffffffffffffffffffffffffffffffffff16815260200190815260200160002060020160159054906101000a900460ff161515146104aa576040517f08c379a00000000000000000000000000000000000000000000000000000000081526004016104a190611756565b60405180910390fd5b6000600260008373ffffffffffffffffffffffffffffffffffffffff1673ffffffffffffffffffffffffffffffffffffffff16815260200190815260200160002060020160146101000a81548160ff02191690831515021790555050565b60606002600481111561051e5761051d611a8f565b5b6000803373ffffffffffffffffffffffffffffffffffffffff1673ffffffffffffffffffffffffffffffffffffffff16815260200190815260200160002060000160009054906101000a900460ff16600481111561057f5761057e611a8f565b5b146105bf576040517f08c379a00000000000000000000000000000000000000000000000000000000081526004016105b690611816565b60405180910390fd5b600380548060200260200160405190810160405280929190818152602001828054801561064157602002820191906000526020600020905b8160009054906101000a900473ffffffffffffffffffffffffffffffffffffffff1673ffffffffffffffffffffffffffffffffffffffff16815260200190600101908083116105f7575b5050505050905090565b60008015156001600073ab8483f64d9c6d1ecf9b849ae677dd3315835cb273ffffffffffffffffffffffffffffffffffffffff1673ffffffffffffffffffffffffffffffffffffffff16815260200190815260200160002060000160009054906101000a900460ff16151514801561072a5750600015156001600073ab8483f64d9c6d1ecf9b849ae677dd3315835cb273ffffffffffffffffffffffffffffffffffffffff1673ffffffffffffffffffffffffffffffffffffffff16815260200190815260200160002060000160009054906101000a900460ff161515145b610769576040517f08c379a000000000000000000000000000000000000000000000000000000000815260040161076090611836565b60405180910390fd5b8173ffffffffffffffffffffffffffffffffffffffff163373ffffffffffffffffffffffffffffffffffffffff16146107d7576040517f08c379a00000000000000000000000000000000000000000000000000000000081526004016107ce90611856565b60405180910390fd5b60005b6003805490508110156108b8573373ffffffffffffffffffffffffffffffffffffffff166003828154811061081257610811611aed565b5b9060005260206000200160009054906101000a900473ffffffffffffffffffffffffffffffffffffffff1673ffffffffffffffffffffffffffffffffffffffff16141561085e57600191505b60001515821515146108a5576040517f08c379a000000000000000000000000000000000000000000000000000000000815260040161089c90611796565b60405180910390fd5b80806108b090611a17565b9150506107da565b5060001515600260003373ffffffffffffffffffffffffffffffffffffffff1673ffffffffffffffffffffffffffffffffffffffff16815260200190815260200160002060020160149054906101000a900460ff1615151461094f576040517f08c379a0000000000000000000000000000000000000000000000000000000008152600401610946906117b6565b60405180910390fd5b6040518060c001604052808581526020018481526020018373ffffffffffffffffffffffffffffffffffffffff16815260200160011515815260200160001515815260200160011515815250600260003373ffffffffffffffffffffffffffffffffffffffff1673ffffffffffffffffffffffffffffffffffffffff16815260200190815260200160002060008201518160000190805190602001906109f69291906112d9565b506020820151816001019080519060200190610a139291906112d9565b5060408201518160020160006101000a81548173ffffffffffffffffffffffffffffffffffffffff021916908373ffffffffffffffffffffffffffffffffffffffff16021790555060608201518160020160146101000a81548160ff02191690831515021790555060808201518160020160156101000a81548160ff02191690831515021790555060a08201518160020160166101000a81548160ff0219169083151502179055509050506003339080600181540180825580915050600190039060005260206000200160009091909190916101000a81548173ffffffffffffffffffffffffffffffffffffffff021916908373ffffffffffffffffffffffffffffffffffffffff16021790555050505050565b606060006004811115610b3d57610b3c611a8f565b5b6000803373ffffffffffffffffffffffffffffffffffffffff1673ffffffffffffffffffffffffffffffffffffffff16815260200190815260200160002060000160009054906101000a900460ff166004811115610b9e57610b9d611a8f565b5b14610bde576040517f08c379a0000000000000000000000000000000000000000000000000000000008152600401610bd5906117f6565b60405180910390fd5b6005805480602002602001604051908101604052809291908181526020018280548015610c6057602002820191906000526020600020905b8160009054906101000a900473ffffffffffffffffffffffffffffffffffffffff1673ffffffffffffffffffffffffffffffffffffffff1681526020019060010190808311610c16575b5050505050905090565b600081604051602001610c7d9190611702565b604051602081830303815290604052805190602001209050919050565b60026004811115610cae57610cad611a8f565b5b6000803373ffffffffffffffffffffffffffffffffffffffff1673ffffffffffffffffffffffffffffffffffffffff16815260200190815260200160002060000160009054906101000a900460ff166004811115610d0f57610d0e611a8f565b5b14610d4f576040517f08c379a0000000000000000000000000000000000000000000000000000000008152600401610d4690611816565b60405180910390fd5b60001515600260003373ffffffffffffffffffffffffffffffffffffffff1673ffffffffffffffffffffffffffffffffffffffff16815260200190815260200160002060020160159054906101000a900460ff16151514610de5576040517f08c379a0000000000000000000000000000000000000000000000000000000008152600401610ddc90611756565b60405180910390fd5b6000600260008373ffffffffffffffffffffffffffffffffffffffff1673ffffffffffffffffffffffffffffffffffffffff16815260200190815260200160002060020160146101000a81548160ff0219169083151502179055506003819080600181540180825580915050600190039060005260206000200160009091909190916101000a81548173ffffffffffffffffffffffffffffffffffffffff021916908373ffffffffffffffffffffffffffffffffffffffff1602179055506004819080600181540180825580915050600190039060005260206000200160009091909190916101000a81548173ffffffffffffffffffffffffffffffffffffffff021916908373ffffffffffffffffffffffffffffffffffffffff1602179055506040518060e00160405280600480811115610f2457610f23611a8f565b5b8152602001600260008473ffffffffffffffffffffffffffffffffffffffff1673ffffffffffffffffffffffffffffffffffffffff1681526020019081526020016000206000018054610f76906119b4565b80601f0160208091040260200160405190810160405280929190818152602001828054610fa2906119b4565b8015610fef5780601f10610fc457610100808354040283529160200191610fef565b820191906000526020600020905b815481529060010190602001808311610fd257829003601f168201915b505050505081526020016110376040518060400160405280600181526020017f3000000000000000000000000000000000000000000000000000000000000000815250610c6a565b815260200160008152602001600081526020016000815260200160008152506000808373ffffffffffffffffffffffffffffffffffffffff1673ffffffffffffffffffffffffffffffffffffffff16815260200190815260200160002060008201518160000160006101000a81548160ff021916908360048111156110bf576110be611a8f565b5b021790555060208201518160010190805190602001906110e09291906112d9565b5060408201518160020155606082015181600301556080820151816004015560a0820151816005015560c0820151816006015590505050565b60606000600481111561112f5761112e611a8f565b5b6000803373ffffffffffffffffffffffffffffffffffffffff1673ffffffffffffffffffffffffffffffffffffffff16815260200190815260200160002060000160009054906101000a900460ff1660048111156111905761118f611a8f565b5b148061120e5750600260048111156111ab576111aa611a8f565b5b6000803373ffffffffffffffffffffffffffffffffffffffff1673ffffffffffffffffffffffffffffffffffffffff16815260200190815260200160002060000160009054906101000a900460ff16600481111561120c5761120b611a8f565b5b145b61124d576040517f08c379a0000000000000000000000000000000000000000000000000000000008152600401611244906117d6565b60405180910390fd5b60048054806020026020016040519081016040528092919081815260200182805480156112cf57602002820191906000526020600020905b8160009054906101000a900473ffffffffffffffffffffffffffffffffffffffff1673ffffffffffffffffffffffffffffffffffffffff1681526020019060010190808311611285575b5050505050905090565b8280546112e5906119b4565b90600052602060002090601f016020900481019282611307576000855561134e565b82601f1061132057805160ff191683800117855561134e565b8280016001018555821561134e579182015b8281111561134d578251825591602001919060010190611332565b5b50905061135b919061135f565b5090565b5b80821115611378576000816000905550600101611360565b5090565b600061138f61138a8461189b565b611876565b9050828152602081018484840111156113ab576113aa611b50565b5b6113b6848285611972565b509392505050565b6000813590506113cd81611d53565b92915050565b600082601f8301126113e8576113e7611b4b565b5b81356113f884826020860161137c565b91505092915050565b60006020828403121561141757611416611b5a565b5b6000611425848285016113be565b91505092915050565b60006020828403121561144457611443611b5a565b5b600082013567ffffffffffffffff81111561146257611461611b55565b5b61146e848285016113d3565b91505092915050565b6000806000606084860312156114905761148f611b5a565b5b600084013567ffffffffffffffff8111156114ae576114ad611b55565b5b6114ba868287016113d3565b935050602084013567ffffffffffffffff8111156114db576114da611b55565b5b6114e7868287016113d3565b92505060406114f8868287016113be565b9150509250925092565b600061150e838361151a565b60208301905092915050565b6115238161192c565b82525050565b6000611534826118dc565b61153e81856118ff565b9350611549836118cc565b8060005b8381101561157a5781516115618882611502565b975061156c836118f2565b92505060018101905061154d565b5085935050505092915050565b6115908161193e565b82525050565b60006115a1826118e7565b6115ab8185611921565b93506115bb818560208601611981565b80840191505092915050565b60006115d4601c83611910565b91506115df82611b70565b602082019050919050565b60006115f7601483611910565b915061160282611b99565b602082019050919050565b600061161a601883611910565b915061162582611bc2565b602082019050919050565b600061163d602a83611910565b915061164882611beb565b604082019050919050565b6000611660602983611910565b915061166b82611c3a565b604082019050919050565b6000611683600e83611910565b915061168e82611c89565b602082019050919050565b60006116a6601983611910565b91506116b182611cb2565b602082019050919050565b60006116c9601783611910565b91506116d482611cdb565b602082019050919050565b60006116ec603783611910565b91506116f782611d04565b604082019050919050565b600061170e8284611596565b915081905092915050565b600060208201905081810360008301526117338184611529565b905092915050565b60006020820190506117506000830184611587565b92915050565b6000602082019050818103600083015261176f816115c7565b9050919050565b6000602082019050818103600083015261178f816115ea565b9050919050565b600060208201905081810360008301526117af8161160d565b9050919050565b600060208201905081810360008301526117cf81611630565b9050919050565b600060208201905081810360008301526117ef81611653565b9050919050565b6000602082019050818103600083015261180f81611676565b9050919050565b6000602082019050818103600083015261182f81611699565b9050919050565b6000602082019050818103600083015261184f816116bc565b9050919050565b6000602082019050818103600083015261186f816116df565b9050919050565b6000611880611891565b905061188c82826119e6565b919050565b6000604051905090565b600067ffffffffffffffff8211156118b6576118b5611b1c565b5b6118bf82611b5f565b9050602081019050919050565b6000819050602082019050919050565b600081519050919050565b600081519050919050565b6000602082019050919050565b600082825260208201905092915050565b600082825260208201905092915050565b600081905092915050565b600061193782611948565b9050919050565b6000819050919050565b600073ffffffffffffffffffffffffffffffffffffffff82169050919050565b6000819050919050565b82818337600083830152505050565b60005b8381101561199f578082015181840152602081019050611984565b838111156119ae576000848401525b50505050565b600060028204905060018216806119cc57607f821691505b602082108114156119e0576119df611abe565b5b50919050565b6119ef82611b5f565b810181811067ffffffffffffffff82111715611a0e57611a0d611b1c565b5b80604052505050565b6000611a2282611968565b91507fffffffffffffffffffffffffffffffffffffffffffffffffffffffffffffffff821415611a5557611a54611a60565b5b600182019050919050565b7f4e487b7100000000000000000000000000000000000000000000000000000000600052601160045260246000fd5b7f4e487b7100000000000000000000000000000000000000000000000000000000600052602160045260246000fd5b7f4e487b7100000000000000000000000000000000000000000000000000000000600052602260045260246000fd5b7f4e487b7100000000000000000000000000000000000000000000000000000000600052603260045260246000fd5b7f4e487b7100000000000000000000000000000000000000000000000000000000600052604160045260246000fd5b600080fd5b600080fd5b600080fd5b600080fd5b6000601f19601f8301169050919050565b7f52657669657720746865206170706c69636174696f6e20666972737400000000600082015250565b7f506861736520616c726561647920616374697665000000000000000000000000600082015250565b7f4170706c69636174696f6e20616c72656164792073656e740000000000000000600082015250565b7f596f7572206170706c69636174696f6e2068617320616c72656164792062656560008201527f6e2072656a656374656400000000000000000000000000000000000000000000602082015250565b7f596f7520617265206e6f7420746865206f776e6572206f72207072697661746560008201527f2070726f76696465720000000000000000000000000000000000000000000000602082015250565b7f596f7572206e6f742061646d696e000000000000000000000000000000000000600082015250565b7f596f7572206e6f7420507269766174652070726f766964657200000000000000600082015250565b7f4170706c69636174696f6e20706861736520656e646564000000000000000000600082015250565b7f596f752063616e27742073656e6420616e206170706c69636174696f6e20746f60008201527f20736f6d656f6e6520656c736527732061646472657373000000000000000000602082015250565b611d5c8161192c565b8114611d6757600080fd5b5056fea26469706673582212208dd8554a08da5cb776f9a8945d73d4f73f4cae93c5af7de90e7fc7a9e71567c064736f6c63430008070033",
					"opcodes": "PUSH1 0x80 PUSH1 0x40 MSTORE CALLVALUE DUP1 ISZERO PUSH2 0x10 JUMPI PUSH1 0x0 DUP1 REVERT JUMPDEST POP PUSH2 0x1DA0 DUP1 PUSH2 0x20 PUSH1 0x0 CODECOPY PUSH1 0x0 RETURN INVALID PUSH1 0x80 PUSH1 0x40 MSTORE CALLVALUE DUP1 ISZERO PUSH2 0x10 JUMPI PUSH1 0x0 DUP1 REVERT JUMPDEST POP PUSH1 0x4 CALLDATASIZE LT PUSH2 0x88 JUMPI PUSH1 0x0 CALLDATALOAD PUSH1 0xE0 SHR DUP1 PUSH4 0x7F89128F GT PUSH2 0x5B JUMPI DUP1 PUSH4 0x7F89128F EQ PUSH2 0xED JUMPI DUP1 PUSH4 0x8E4F8C6B EQ PUSH2 0x10B JUMPI DUP1 PUSH4 0xA678B65B EQ PUSH2 0x13B JUMPI DUP1 PUSH4 0xC10E3911 EQ PUSH2 0x157 JUMPI PUSH2 0x88 JUMP JUMPDEST DUP1 PUSH4 0x691615D EQ PUSH2 0x8D JUMPI DUP1 PUSH4 0x1D3EEA35 EQ PUSH2 0x97 JUMPI DUP1 PUSH4 0x686C4CEA EQ PUSH2 0xB3 JUMPI DUP1 PUSH4 0x785963C3 EQ PUSH2 0xD1 JUMPI JUMPDEST PUSH1 0x0 DUP1 REVERT JUMPDEST PUSH2 0x95 PUSH2 0x175 JUMP JUMPDEST STOP JUMPDEST PUSH2 0xB1 PUSH1 0x4 DUP1 CALLDATASIZE SUB DUP2 ADD SWAP1 PUSH2 0xAC SWAP2 SWAP1 PUSH2 0x1401 JUMP JUMPDEST PUSH2 0x35F JUMP JUMPDEST STOP JUMPDEST PUSH2 0xBB PUSH2 0x508 JUMP JUMPDEST PUSH1 0x40 MLOAD PUSH2 0xC8 SWAP2 SWAP1 PUSH2 0x1719 JUMP JUMPDEST PUSH1 0x40 MLOAD DUP1 SWAP2 SUB SWAP1 RETURN JUMPDEST PUSH2 0xEB PUSH1 0x4 DUP1 CALLDATASIZE SUB DUP2 ADD SWAP1 PUSH2 0xE6 SWAP2 SWAP1 PUSH2 0x1477 JUMP JUMPDEST PUSH2 0x64B JUMP JUMPDEST STOP JUMPDEST PUSH2 0xF5 PUSH2 0xB27 JUMP JUMPDEST PUSH1 0x40 MLOAD PUSH2 0x102 SWAP2 SWAP1 PUSH2 0x1719 JUMP JUMPDEST PUSH1 0x40 MLOAD DUP1 SWAP2 SUB SWAP1 RETURN JUMPDEST PUSH2 0x125 PUSH1 0x4 DUP1 CALLDATASIZE SUB DUP2 ADD SWAP1 PUSH2 0x120 SWAP2 SWAP1 PUSH2 0x142E JUMP JUMPDEST PUSH2 0xC6A JUMP JUMPDEST PUSH1 0x40 MLOAD PUSH2 0x132 SWAP2 SWAP1 PUSH2 0x173B JUMP JUMPDEST PUSH1 0x40 MLOAD DUP1 SWAP2 SUB SWAP1 RETURN JUMPDEST PUSH2 0x155 PUSH1 0x4 DUP1 CALLDATASIZE SUB DUP2 ADD SWAP1 PUSH2 0x150 SWAP2 SWAP1 PUSH2 0x1401 JUMP JUMPDEST PUSH2 0xC9A JUMP JUMPDEST STOP JUMPDEST PUSH2 0x15F PUSH2 0x1119 JUMP JUMPDEST PUSH1 0x40 MLOAD PUSH2 0x16C SWAP2 SWAP1 PUSH2 0x1719 JUMP JUMPDEST PUSH1 0x40 MLOAD DUP1 SWAP2 SUB SWAP1 RETURN JUMPDEST PUSH1 0x2 PUSH1 0x4 DUP2 GT ISZERO PUSH2 0x189 JUMPI PUSH2 0x188 PUSH2 0x1A8F JUMP JUMPDEST JUMPDEST PUSH1 0x0 DUP1 CALLER PUSH20 0xFFFFFFFFFFFFFFFFFFFFFFFFFFFFFFFFFFFFFFFF AND PUSH20 0xFFFFFFFFFFFFFFFFFFFFFFFFFFFFFFFFFFFFFFFF AND DUP2 MSTORE PUSH1 0x20 ADD SWAP1 DUP2 MSTORE PUSH1 0x20 ADD PUSH1 0x0 KECCAK256 PUSH1 0x0 ADD PUSH1 0x0 SWAP1 SLOAD SWAP1 PUSH2 0x100 EXP SWAP1 DIV PUSH1 0xFF AND PUSH1 0x4 DUP2 GT ISZERO PUSH2 0x1EA JUMPI PUSH2 0x1E9 PUSH2 0x1A8F JUMP JUMPDEST JUMPDEST EQ PUSH2 0x22A JUMPI PUSH1 0x40 MLOAD PUSH32 0x8C379A000000000000000000000000000000000000000000000000000000000 DUP2 MSTORE PUSH1 0x4 ADD PUSH2 0x221 SWAP1 PUSH2 0x1816 JUMP JUMPDEST PUSH1 0x40 MLOAD DUP1 SWAP2 SUB SWAP1 REVERT JUMPDEST PUSH1 0x0 ISZERO ISZERO PUSH1 0x1 PUSH1 0x0 CALLER PUSH20 0xFFFFFFFFFFFFFFFFFFFFFFFFFFFFFFFFFFFFFFFF AND PUSH20 0xFFFFFFFFFFFFFFFFFFFFFFFFFFFFFFFFFFFFFFFF AND DUP2 MSTORE PUSH1 0x20 ADD SWAP1 DUP2 MSTORE PUSH1 0x20 ADD PUSH1 0x0 KECCAK256 PUSH1 0x0 ADD PUSH1 0x0 SWAP1 SLOAD SWAP1 PUSH2 0x100 EXP SWAP1 DIV PUSH1 0xFF AND ISZERO ISZERO EQ PUSH2 0x2C0 JUMPI PUSH1 0x40 MLOAD PUSH32 0x8C379A000000000000000000000000000000000000000000000000000000000 DUP2 MSTORE PUSH1 0x4 ADD PUSH2 0x2B7 SWAP1 PUSH2 0x1776 JUMP JUMPDEST PUSH1 0x40 MLOAD DUP1 SWAP2 SUB SWAP1 REVERT JUMPDEST PUSH1 0x40 MLOAD DUP1 PUSH1 0x40 ADD PUSH1 0x40 MSTORE DUP1 PUSH1 0x1 ISZERO ISZERO DUP2 MSTORE PUSH1 0x20 ADD PUSH1 0x1 ISZERO ISZERO DUP2 MSTORE POP PUSH1 0x1 PUSH1 0x0 CALLER PUSH20 0xFFFFFFFFFFFFFFFFFFFFFFFFFFFFFFFFFFFFFFFF AND PUSH20 0xFFFFFFFFFFFFFFFFFFFFFFFFFFFFFFFFFFFFFFFF AND DUP2 MSTORE PUSH1 0x20 ADD SWAP1 DUP2 MSTORE PUSH1 0x20 ADD PUSH1 0x0 KECCAK256 PUSH1 0x0 DUP3 ADD MLOAD DUP2 PUSH1 0x0 ADD PUSH1 0x0 PUSH2 0x100 EXP DUP2 SLOAD DUP2 PUSH1 0xFF MUL NOT AND SWAP1 DUP4 ISZERO ISZERO MUL OR SWAP1 SSTORE POP PUSH1 0x20 DUP3 ADD MLOAD DUP2 PUSH1 0x0 ADD PUSH1 0x1 PUSH2 0x100 EXP DUP2 SLOAD DUP2 PUSH1 0xFF MUL NOT AND SWAP1 DUP4 ISZERO ISZERO MUL OR SWAP1 SSTORE POP SWAP1 POP POP JUMP JUMPDEST PUSH1 0x2 PUSH1 0x4 DUP2 GT ISZERO PUSH2 0x373 JUMPI PUSH2 0x372 PUSH2 0x1A8F JUMP JUMPDEST JUMPDEST PUSH1 0x0 DUP1 CALLER PUSH20 0xFFFFFFFFFFFFFFFFFFFFFFFFFFFFFFFFFFFFFFFF AND PUSH20 0xFFFFFFFFFFFFFFFFFFFFFFFFFFFFFFFFFFFFFFFF AND DUP2 MSTORE PUSH1 0x20 ADD SWAP1 DUP2 MSTORE PUSH1 0x20 ADD PUSH1 0x0 KECCAK256 PUSH1 0x0 ADD PUSH1 0x0 SWAP1 SLOAD SWAP1 PUSH2 0x100 EXP SWAP1 DIV PUSH1 0xFF AND PUSH1 0x4 DUP2 GT ISZERO PUSH2 0x3D4 JUMPI PUSH2 0x3D3 PUSH2 0x1A8F JUMP JUMPDEST JUMPDEST EQ PUSH2 0x414 JUMPI PUSH1 0x40 MLOAD PUSH32 0x8C379A000000000000000000000000000000000000000000000000000000000 DUP2 MSTORE PUSH1 0x4 ADD PUSH2 0x40B SWAP1 PUSH2 0x1816 JUMP JUMPDEST PUSH1 0x40 MLOAD DUP1 SWAP2 SUB SWAP1 REVERT JUMPDEST PUSH1 0x0 ISZERO ISZERO PUSH1 0x2 PUSH1 0x0 CALLER PUSH20 0xFFFFFFFFFFFFFFFFFFFFFFFFFFFFFFFFFFFFFFFF AND PUSH20 0xFFFFFFFFFFFFFFFFFFFFFFFFFFFFFFFFFFFFFFFF AND DUP2 MSTORE PUSH1 0x20 ADD SWAP1 DUP2 MSTORE PUSH1 0x20 ADD PUSH1 0x0 KECCAK256 PUSH1 0x2 ADD PUSH1 0x15 SWAP1 SLOAD SWAP1 PUSH2 0x100 EXP SWAP1 DIV PUSH1 0xFF AND ISZERO ISZERO EQ PUSH2 0x4AA JUMPI PUSH1 0x40 MLOAD PUSH32 0x8C379A000000000000000000000000000000000000000000000000000000000 DUP2 MSTORE PUSH1 0x4 ADD PUSH2 0x4A1 SWAP1 PUSH2 0x1756 JUMP JUMPDEST PUSH1 0x40 MLOAD DUP1 SWAP2 SUB SWAP1 REVERT JUMPDEST PUSH1 0x0 PUSH1 0x2 PUSH1 0x0 DUP4 PUSH20 0xFFFFFFFFFFFFFFFFFFFFFFFFFFFFFFFFFFFFFFFF AND PUSH20 0xFFFFFFFFFFFFFFFFFFFFFFFFFFFFFFFFFFFFFFFF AND DUP2 MSTORE PUSH1 0x20 ADD SWAP1 DUP2 MSTORE PUSH1 0x20 ADD PUSH1 0x0 KECCAK256 PUSH1 0x2 ADD PUSH1 0x14 PUSH2 0x100 EXP DUP2 SLOAD DUP2 PUSH1 0xFF MUL NOT AND SWAP1 DUP4 ISZERO ISZERO MUL OR SWAP1 SSTORE POP POP JUMP JUMPDEST PUSH1 0x60 PUSH1 0x2 PUSH1 0x4 DUP2 GT ISZERO PUSH2 0x51E JUMPI PUSH2 0x51D PUSH2 0x1A8F JUMP JUMPDEST JUMPDEST PUSH1 0x0 DUP1 CALLER PUSH20 0xFFFFFFFFFFFFFFFFFFFFFFFFFFFFFFFFFFFFFFFF AND PUSH20 0xFFFFFFFFFFFFFFFFFFFFFFFFFFFFFFFFFFFFFFFF AND DUP2 MSTORE PUSH1 0x20 ADD SWAP1 DUP2 MSTORE PUSH1 0x20 ADD PUSH1 0x0 KECCAK256 PUSH1 0x0 ADD PUSH1 0x0 SWAP1 SLOAD SWAP1 PUSH2 0x100 EXP SWAP1 DIV PUSH1 0xFF AND PUSH1 0x4 DUP2 GT ISZERO PUSH2 0x57F JUMPI PUSH2 0x57E PUSH2 0x1A8F JUMP JUMPDEST JUMPDEST EQ PUSH2 0x5BF JUMPI PUSH1 0x40 MLOAD PUSH32 0x8C379A000000000000000000000000000000000000000000000000000000000 DUP2 MSTORE PUSH1 0x4 ADD PUSH2 0x5B6 SWAP1 PUSH2 0x1816 JUMP JUMPDEST PUSH1 0x40 MLOAD DUP1 SWAP2 SUB SWAP1 REVERT JUMPDEST PUSH1 0x3 DUP1 SLOAD DUP1 PUSH1 0x20 MUL PUSH1 0x20 ADD PUSH1 0x40 MLOAD SWAP1 DUP2 ADD PUSH1 0x40 MSTORE DUP1 SWAP3 SWAP2 SWAP1 DUP2 DUP2 MSTORE PUSH1 0x20 ADD DUP3 DUP1 SLOAD DUP1 ISZERO PUSH2 0x641 JUMPI PUSH1 0x20 MUL DUP3 ADD SWAP2 SWAP1 PUSH1 0x0 MSTORE PUSH1 0x20 PUSH1 0x0 KECCAK256 SWAP1 JUMPDEST DUP2 PUSH1 0x0 SWAP1 SLOAD SWAP1 PUSH2 0x100 EXP SWAP1 DIV PUSH20 0xFFFFFFFFFFFFFFFFFFFFFFFFFFFFFFFFFFFFFFFF AND PUSH20 0xFFFFFFFFFFFFFFFFFFFFFFFFFFFFFFFFFFFFFFFF AND DUP2 MSTORE PUSH1 0x20 ADD SWAP1 PUSH1 0x1 ADD SWAP1 DUP1 DUP4 GT PUSH2 0x5F7 JUMPI JUMPDEST POP POP POP POP POP SWAP1 POP SWAP1 JUMP JUMPDEST PUSH1 0x0 DUP1 ISZERO ISZERO PUSH1 0x1 PUSH1 0x0 PUSH20 0xAB8483F64D9C6D1ECF9B849AE677DD3315835CB2 PUSH20 0xFFFFFFFFFFFFFFFFFFFFFFFFFFFFFFFFFFFFFFFF AND PUSH20 0xFFFFFFFFFFFFFFFFFFFFFFFFFFFFFFFFFFFFFFFF AND DUP2 MSTORE PUSH1 0x20 ADD SWAP1 DUP2 MSTORE PUSH1 0x20 ADD PUSH1 0x0 KECCAK256 PUSH1 0x0 ADD PUSH1 0x0 SWAP1 SLOAD SWAP1 PUSH2 0x100 EXP SWAP1 DIV PUSH1 0xFF AND ISZERO ISZERO EQ DUP1 ISZERO PUSH2 0x72A JUMPI POP PUSH1 0x0 ISZERO ISZERO PUSH1 0x1 PUSH1 0x0 PUSH20 0xAB8483F64D9C6D1ECF9B849AE677DD3315835CB2 PUSH20 0xFFFFFFFFFFFFFFFFFFFFFFFFFFFFFFFFFFFFFFFF AND PUSH20 0xFFFFFFFFFFFFFFFFFFFFFFFFFFFFFFFFFFFFFFFF AND DUP2 MSTORE PUSH1 0x20 ADD SWAP1 DUP2 MSTORE PUSH1 0x20 ADD PUSH1 0x0 KECCAK256 PUSH1 0x0 ADD PUSH1 0x0 SWAP1 SLOAD SWAP1 PUSH2 0x100 EXP SWAP1 DIV PUSH1 0xFF AND ISZERO ISZERO EQ JUMPDEST PUSH2 0x769 JUMPI PUSH1 0x40 MLOAD PUSH32 0x8C379A000000000000000000000000000000000000000000000000000000000 DUP2 MSTORE PUSH1 0x4 ADD PUSH2 0x760 SWAP1 PUSH2 0x1836 JUMP JUMPDEST PUSH1 0x40 MLOAD DUP1 SWAP2 SUB SWAP1 REVERT JUMPDEST DUP2 PUSH20 0xFFFFFFFFFFFFFFFFFFFFFFFFFFFFFFFFFFFFFFFF AND CALLER PUSH20 0xFFFFFFFFFFFFFFFFFFFFFFFFFFFFFFFFFFFFFFFF AND EQ PUSH2 0x7D7 JUMPI PUSH1 0x40 MLOAD PUSH32 0x8C379A000000000000000000000000000000000000000000000000000000000 DUP2 MSTORE PUSH1 0x4 ADD PUSH2 0x7CE SWAP1 PUSH2 0x1856 JUMP JUMPDEST PUSH1 0x40 MLOAD DUP1 SWAP2 SUB SWAP1 REVERT JUMPDEST PUSH1 0x0 JUMPDEST PUSH1 0x3 DUP1 SLOAD SWAP1 POP DUP2 LT ISZERO PUSH2 0x8B8 JUMPI CALLER PUSH20 0xFFFFFFFFFFFFFFFFFFFFFFFFFFFFFFFFFFFFFFFF AND PUSH1 0x3 DUP3 DUP2 SLOAD DUP2 LT PUSH2 0x812 JUMPI PUSH2 0x811 PUSH2 0x1AED JUMP JUMPDEST JUMPDEST SWAP1 PUSH1 0x0 MSTORE PUSH1 0x20 PUSH1 0x0 KECCAK256 ADD PUSH1 0x0 SWAP1 SLOAD SWAP1 PUSH2 0x100 EXP SWAP1 DIV PUSH20 0xFFFFFFFFFFFFFFFFFFFFFFFFFFFFFFFFFFFFFFFF AND PUSH20 0xFFFFFFFFFFFFFFFFFFFFFFFFFFFFFFFFFFFFFFFF AND EQ ISZERO PUSH2 0x85E JUMPI PUSH1 0x1 SWAP2 POP JUMPDEST PUSH1 0x0 ISZERO ISZERO DUP3 ISZERO ISZERO EQ PUSH2 0x8A5 JUMPI PUSH1 0x40 MLOAD PUSH32 0x8C379A000000000000000000000000000000000000000000000000000000000 DUP2 MSTORE PUSH1 0x4 ADD PUSH2 0x89C SWAP1 PUSH2 0x1796 JUMP JUMPDEST PUSH1 0x40 MLOAD DUP1 SWAP2 SUB SWAP1 REVERT JUMPDEST DUP1 DUP1 PUSH2 0x8B0 SWAP1 PUSH2 0x1A17 JUMP JUMPDEST SWAP2 POP POP PUSH2 0x7DA JUMP JUMPDEST POP PUSH1 0x0 ISZERO ISZERO PUSH1 0x2 PUSH1 0x0 CALLER PUSH20 0xFFFFFFFFFFFFFFFFFFFFFFFFFFFFFFFFFFFFFFFF AND PUSH20 0xFFFFFFFFFFFFFFFFFFFFFFFFFFFFFFFFFFFFFFFF AND DUP2 MSTORE PUSH1 0x20 ADD SWAP1 DUP2 MSTORE PUSH1 0x20 ADD PUSH1 0x0 KECCAK256 PUSH1 0x2 ADD PUSH1 0x14 SWAP1 SLOAD SWAP1 PUSH2 0x100 EXP SWAP1 DIV PUSH1 0xFF AND ISZERO ISZERO EQ PUSH2 0x94F JUMPI PUSH1 0x40 MLOAD PUSH32 0x8C379A000000000000000000000000000000000000000000000000000000000 DUP2 MSTORE PUSH1 0x4 ADD PUSH2 0x946 SWAP1 PUSH2 0x17B6 JUMP JUMPDEST PUSH1 0x40 MLOAD DUP1 SWAP2 SUB SWAP1 REVERT JUMPDEST PUSH1 0x40 MLOAD DUP1 PUSH1 0xC0 ADD PUSH1 0x40 MSTORE DUP1 DUP6 DUP2 MSTORE PUSH1 0x20 ADD DUP5 DUP2 MSTORE PUSH1 0x20 ADD DUP4 PUSH20 0xFFFFFFFFFFFFFFFFFFFFFFFFFFFFFFFFFFFFFFFF AND DUP2 MSTORE PUSH1 0x20 ADD PUSH1 0x1 ISZERO ISZERO DUP2 MSTORE PUSH1 0x20 ADD PUSH1 0x0 ISZERO ISZERO DUP2 MSTORE PUSH1 0x20 ADD PUSH1 0x1 ISZERO ISZERO DUP2 MSTORE POP PUSH1 0x2 PUSH1 0x0 CALLER PUSH20 0xFFFFFFFFFFFFFFFFFFFFFFFFFFFFFFFFFFFFFFFF AND PUSH20 0xFFFFFFFFFFFFFFFFFFFFFFFFFFFFFFFFFFFFFFFF AND DUP2 MSTORE PUSH1 0x20 ADD SWAP1 DUP2 MSTORE PUSH1 0x20 ADD PUSH1 0x0 KECCAK256 PUSH1 0x0 DUP3 ADD MLOAD DUP2 PUSH1 0x0 ADD SWAP1 DUP1 MLOAD SWAP1 PUSH1 0x20 ADD SWAP1 PUSH2 0x9F6 SWAP3 SWAP2 SWAP1 PUSH2 0x12D9 JUMP JUMPDEST POP PUSH1 0x20 DUP3 ADD MLOAD DUP2 PUSH1 0x1 ADD SWAP1 DUP1 MLOAD SWAP1 PUSH1 0x20 ADD SWAP1 PUSH2 0xA13 SWAP3 SWAP2 SWAP1 PUSH2 0x12D9 JUMP JUMPDEST POP PUSH1 0x40 DUP3 ADD MLOAD DUP2 PUSH1 0x2 ADD PUSH1 0x0 PUSH2 0x100 EXP DUP2 SLOAD DUP2 PUSH20 0xFFFFFFFFFFFFFFFFFFFFFFFFFFFFFFFFFFFFFFFF MUL NOT AND SWAP1 DUP4 PUSH20 0xFFFFFFFFFFFFFFFFFFFFFFFFFFFFFFFFFFFFFFFF AND MUL OR SWAP1 SSTORE POP PUSH1 0x60 DUP3 ADD MLOAD DUP2 PUSH1 0x2 ADD PUSH1 0x14 PUSH2 0x100 EXP DUP2 SLOAD DUP2 PUSH1 0xFF MUL NOT AND SWAP1 DUP4 ISZERO ISZERO MUL OR SWAP1 SSTORE POP PUSH1 0x80 DUP3 ADD MLOAD DUP2 PUSH1 0x2 ADD PUSH1 0x15 PUSH2 0x100 EXP DUP2 SLOAD DUP2 PUSH1 0xFF MUL NOT AND SWAP1 DUP4 ISZERO ISZERO MUL OR SWAP1 SSTORE POP PUSH1 0xA0 DUP3 ADD MLOAD DUP2 PUSH1 0x2 ADD PUSH1 0x16 PUSH2 0x100 EXP DUP2 SLOAD DUP2 PUSH1 0xFF MUL NOT AND SWAP1 DUP4 ISZERO ISZERO MUL OR SWAP1 SSTORE POP SWAP1 POP POP PUSH1 0x3 CALLER SWAP1 DUP1 PUSH1 0x1 DUP2 SLOAD ADD DUP1 DUP3 SSTORE DUP1 SWAP2 POP POP PUSH1 0x1 SWAP1 SUB SWAP1 PUSH1 0x0 MSTORE PUSH1 0x20 PUSH1 0x0 KECCAK256 ADD PUSH1 0x0 SWAP1 SWAP2 SWAP1 SWAP2 SWAP1 SWAP2 PUSH2 0x100 EXP DUP2 SLOAD DUP2 PUSH20 0xFFFFFFFFFFFFFFFFFFFFFFFFFFFFFFFFFFFFFFFF MUL NOT AND SWAP1 DUP4 PUSH20 0xFFFFFFFFFFFFFFFFFFFFFFFFFFFFFFFFFFFFFFFF AND MUL OR SWAP1 SSTORE POP POP POP POP POP JUMP JUMPDEST PUSH1 0x60 PUSH1 0x0 PUSH1 0x4 DUP2 GT ISZERO PUSH2 0xB3D JUMPI PUSH2 0xB3C PUSH2 0x1A8F JUMP JUMPDEST JUMPDEST PUSH1 0x0 DUP1 CALLER PUSH20 0xFFFFFFFFFFFFFFFFFFFFFFFFFFFFFFFFFFFFFFFF AND PUSH20 0xFFFFFFFFFFFFFFFFFFFFFFFFFFFFFFFFFFFFFFFF AND DUP2 MSTORE PUSH1 0x20 ADD SWAP1 DUP2 MSTORE PUSH1 0x20 ADD PUSH1 0x0 KECCAK256 PUSH1 0x0 ADD PUSH1 0x0 SWAP1 SLOAD SWAP1 PUSH2 0x100 EXP SWAP1 DIV PUSH1 0xFF AND PUSH1 0x4 DUP2 GT ISZERO PUSH2 0xB9E JUMPI PUSH2 0xB9D PUSH2 0x1A8F JUMP JUMPDEST JUMPDEST EQ PUSH2 0xBDE JUMPI PUSH1 0x40 MLOAD PUSH32 0x8C379A000000000000000000000000000000000000000000000000000000000 DUP2 MSTORE PUSH1 0x4 ADD PUSH2 0xBD5 SWAP1 PUSH2 0x17F6 JUMP JUMPDEST PUSH1 0x40 MLOAD DUP1 SWAP2 SUB SWAP1 REVERT JUMPDEST PUSH1 0x5 DUP1 SLOAD DUP1 PUSH1 0x20 MUL PUSH1 0x20 ADD PUSH1 0x40 MLOAD SWAP1 DUP2 ADD PUSH1 0x40 MSTORE DUP1 SWAP3 SWAP2 SWAP1 DUP2 DUP2 MSTORE PUSH1 0x20 ADD DUP3 DUP1 SLOAD DUP1 ISZERO PUSH2 0xC60 JUMPI PUSH1 0x20 MUL DUP3 ADD SWAP2 SWAP1 PUSH1 0x0 MSTORE PUSH1 0x20 PUSH1 0x0 KECCAK256 SWAP1 JUMPDEST DUP2 PUSH1 0x0 SWAP1 SLOAD SWAP1 PUSH2 0x100 EXP SWAP1 DIV PUSH20 0xFFFFFFFFFFFFFFFFFFFFFFFFFFFFFFFFFFFFFFFF AND PUSH20 0xFFFFFFFFFFFFFFFFFFFFFFFFFFFFFFFFFFFFFFFF AND DUP2 MSTORE PUSH1 0x20 ADD SWAP1 PUSH1 0x1 ADD SWAP1 DUP1 DUP4 GT PUSH2 0xC16 JUMPI JUMPDEST POP POP POP POP POP SWAP1 POP SWAP1 JUMP JUMPDEST PUSH1 0x0 DUP2 PUSH1 0x40 MLOAD PUSH1 0x20 ADD PUSH2 0xC7D SWAP2 SWAP1 PUSH2 0x1702 JUMP JUMPDEST PUSH1 0x40 MLOAD PUSH1 0x20 DUP2 DUP4 SUB SUB DUP2 MSTORE SWAP1 PUSH1 0x40 MSTORE DUP1 MLOAD SWAP1 PUSH1 0x20 ADD KECCAK256 SWAP1 POP SWAP2 SWAP1 POP JUMP JUMPDEST PUSH1 0x2 PUSH1 0x4 DUP2 GT ISZERO PUSH2 0xCAE JUMPI PUSH2 0xCAD PUSH2 0x1A8F JUMP JUMPDEST JUMPDEST PUSH1 0x0 DUP1 CALLER PUSH20 0xFFFFFFFFFFFFFFFFFFFFFFFFFFFFFFFFFFFFFFFF AND PUSH20 0xFFFFFFFFFFFFFFFFFFFFFFFFFFFFFFFFFFFFFFFF AND DUP2 MSTORE PUSH1 0x20 ADD SWAP1 DUP2 MSTORE PUSH1 0x20 ADD PUSH1 0x0 KECCAK256 PUSH1 0x0 ADD PUSH1 0x0 SWAP1 SLOAD SWAP1 PUSH2 0x100 EXP SWAP1 DIV PUSH1 0xFF AND PUSH1 0x4 DUP2 GT ISZERO PUSH2 0xD0F JUMPI PUSH2 0xD0E PUSH2 0x1A8F JUMP JUMPDEST JUMPDEST EQ PUSH2 0xD4F JUMPI PUSH1 0x40 MLOAD PUSH32 0x8C379A000000000000000000000000000000000000000000000000000000000 DUP2 MSTORE PUSH1 0x4 ADD PUSH2 0xD46 SWAP1 PUSH2 0x1816 JUMP JUMPDEST PUSH1 0x40 MLOAD DUP1 SWAP2 SUB SWAP1 REVERT JUMPDEST PUSH1 0x0 ISZERO ISZERO PUSH1 0x2 PUSH1 0x0 CALLER PUSH20 0xFFFFFFFFFFFFFFFFFFFFFFFFFFFFFFFFFFFFFFFF AND PUSH20 0xFFFFFFFFFFFFFFFFFFFFFFFFFFFFFFFFFFFFFFFF AND DUP2 MSTORE PUSH1 0x20 ADD SWAP1 DUP2 MSTORE PUSH1 0x20 ADD PUSH1 0x0 KECCAK256 PUSH1 0x2 ADD PUSH1 0x15 SWAP1 SLOAD SWAP1 PUSH2 0x100 EXP SWAP1 DIV PUSH1 0xFF AND ISZERO ISZERO EQ PUSH2 0xDE5 JUMPI PUSH1 0x40 MLOAD PUSH32 0x8C379A000000000000000000000000000000000000000000000000000000000 DUP2 MSTORE PUSH1 0x4 ADD PUSH2 0xDDC SWAP1 PUSH2 0x1756 JUMP JUMPDEST PUSH1 0x40 MLOAD DUP1 SWAP2 SUB SWAP1 REVERT JUMPDEST PUSH1 0x0 PUSH1 0x2 PUSH1 0x0 DUP4 PUSH20 0xFFFFFFFFFFFFFFFFFFFFFFFFFFFFFFFFFFFFFFFF AND PUSH20 0xFFFFFFFFFFFFFFFFFFFFFFFFFFFFFFFFFFFFFFFF AND DUP2 MSTORE PUSH1 0x20 ADD SWAP1 DUP2 MSTORE PUSH1 0x20 ADD PUSH1 0x0 KECCAK256 PUSH1 0x2 ADD PUSH1 0x14 PUSH2 0x100 EXP DUP2 SLOAD DUP2 PUSH1 0xFF MUL NOT AND SWAP1 DUP4 ISZERO ISZERO MUL OR SWAP1 SSTORE POP PUSH1 0x3 DUP2 SWAP1 DUP1 PUSH1 0x1 DUP2 SLOAD ADD DUP1 DUP3 SSTORE DUP1 SWAP2 POP POP PUSH1 0x1 SWAP1 SUB SWAP1 PUSH1 0x0 MSTORE PUSH1 0x20 PUSH1 0x0 KECCAK256 ADD PUSH1 0x0 SWAP1 SWAP2 SWAP1 SWAP2 SWAP1 SWAP2 PUSH2 0x100 EXP DUP2 SLOAD DUP2 PUSH20 0xFFFFFFFFFFFFFFFFFFFFFFFFFFFFFFFFFFFFFFFF MUL NOT AND SWAP1 DUP4 PUSH20 0xFFFFFFFFFFFFFFFFFFFFFFFFFFFFFFFFFFFFFFFF AND MUL OR SWAP1 SSTORE POP PUSH1 0x4 DUP2 SWAP1 DUP1 PUSH1 0x1 DUP2 SLOAD ADD DUP1 DUP3 SSTORE DUP1 SWAP2 POP POP PUSH1 0x1 SWAP1 SUB SWAP1 PUSH1 0x0 MSTORE PUSH1 0x20 PUSH1 0x0 KECCAK256 ADD PUSH1 0x0 SWAP1 SWAP2 SWAP1 SWAP2 SWAP1 SWAP2 PUSH2 0x100 EXP DUP2 SLOAD DUP2 PUSH20 0xFFFFFFFFFFFFFFFFFFFFFFFFFFFFFFFFFFFFFFFF MUL NOT AND SWAP1 DUP4 PUSH20 0xFFFFFFFFFFFFFFFFFFFFFFFFFFFFFFFFFFFFFFFF AND MUL OR SWAP1 SSTORE POP PUSH1 0x40 MLOAD DUP1 PUSH1 0xE0 ADD PUSH1 0x40 MSTORE DUP1 PUSH1 0x4 DUP1 DUP2 GT ISZERO PUSH2 0xF24 JUMPI PUSH2 0xF23 PUSH2 0x1A8F JUMP JUMPDEST JUMPDEST DUP2 MSTORE PUSH1 0x20 ADD PUSH1 0x2 PUSH1 0x0 DUP5 PUSH20 0xFFFFFFFFFFFFFFFFFFFFFFFFFFFFFFFFFFFFFFFF AND PUSH20 0xFFFFFFFFFFFFFFFFFFFFFFFFFFFFFFFFFFFFFFFF AND DUP2 MSTORE PUSH1 0x20 ADD SWAP1 DUP2 MSTORE PUSH1 0x20 ADD PUSH1 0x0 KECCAK256 PUSH1 0x0 ADD DUP1 SLOAD PUSH2 0xF76 SWAP1 PUSH2 0x19B4 JUMP JUMPDEST DUP1 PUSH1 0x1F ADD PUSH1 0x20 DUP1 SWAP2 DIV MUL PUSH1 0x20 ADD PUSH1 0x40 MLOAD SWAP1 DUP2 ADD PUSH1 0x40 MSTORE DUP1 SWAP3 SWAP2 SWAP1 DUP2 DUP2 MSTORE PUSH1 0x20 ADD DUP3 DUP1 SLOAD PUSH2 0xFA2 SWAP1 PUSH2 0x19B4 JUMP JUMPDEST DUP1 ISZERO PUSH2 0xFEF JUMPI DUP1 PUSH1 0x1F LT PUSH2 0xFC4 JUMPI PUSH2 0x100 DUP1 DUP4 SLOAD DIV MUL DUP4 MSTORE SWAP2 PUSH1 0x20 ADD SWAP2 PUSH2 0xFEF JUMP JUMPDEST DUP3 ADD SWAP2 SWAP1 PUSH1 0x0 MSTORE PUSH1 0x20 PUSH1 0x0 KECCAK256 SWAP1 JUMPDEST DUP2 SLOAD DUP2 MSTORE SWAP1 PUSH1 0x1 ADD SWAP1 PUSH1 0x20 ADD DUP1 DUP4 GT PUSH2 0xFD2 JUMPI DUP3 SWAP1 SUB PUSH1 0x1F AND DUP3 ADD SWAP2 JUMPDEST POP POP POP POP POP DUP2 MSTORE PUSH1 0x20 ADD PUSH2 0x1037 PUSH1 0x40 MLOAD DUP1 PUSH1 0x40 ADD PUSH1 0x40 MSTORE DUP1 PUSH1 0x1 DUP2 MSTORE PUSH1 0x20 ADD PUSH32 0x3000000000000000000000000000000000000000000000000000000000000000 DUP2 MSTORE POP PUSH2 0xC6A JUMP JUMPDEST DUP2 MSTORE PUSH1 0x20 ADD PUSH1 0x0 DUP2 MSTORE PUSH1 0x20 ADD PUSH1 0x0 DUP2 MSTORE PUSH1 0x20 ADD PUSH1 0x0 DUP2 MSTORE PUSH1 0x20 ADD PUSH1 0x0 DUP2 MSTORE POP PUSH1 0x0 DUP1 DUP4 PUSH20 0xFFFFFFFFFFFFFFFFFFFFFFFFFFFFFFFFFFFFFFFF AND PUSH20 0xFFFFFFFFFFFFFFFFFFFFFFFFFFFFFFFFFFFFFFFF AND DUP2 MSTORE PUSH1 0x20 ADD SWAP1 DUP2 MSTORE PUSH1 0x20 ADD PUSH1 0x0 KECCAK256 PUSH1 0x0 DUP3 ADD MLOAD DUP2 PUSH1 0x0 ADD PUSH1 0x0 PUSH2 0x100 EXP DUP2 SLOAD DUP2 PUSH1 0xFF MUL NOT AND SWAP1 DUP4 PUSH1 0x4 DUP2 GT ISZERO PUSH2 0x10BF JUMPI PUSH2 0x10BE PUSH2 0x1A8F JUMP JUMPDEST JUMPDEST MUL OR SWAP1 SSTORE POP PUSH1 0x20 DUP3 ADD MLOAD DUP2 PUSH1 0x1 ADD SWAP1 DUP1 MLOAD SWAP1 PUSH1 0x20 ADD SWAP1 PUSH2 0x10E0 SWAP3 SWAP2 SWAP1 PUSH2 0x12D9 JUMP JUMPDEST POP PUSH1 0x40 DUP3 ADD MLOAD DUP2 PUSH1 0x2 ADD SSTORE PUSH1 0x60 DUP3 ADD MLOAD DUP2 PUSH1 0x3 ADD SSTORE PUSH1 0x80 DUP3 ADD MLOAD DUP2 PUSH1 0x4 ADD SSTORE PUSH1 0xA0 DUP3 ADD MLOAD DUP2 PUSH1 0x5 ADD SSTORE PUSH1 0xC0 DUP3 ADD MLOAD DUP2 PUSH1 0x6 ADD SSTORE SWAP1 POP POP POP JUMP JUMPDEST PUSH1 0x60 PUSH1 0x0 PUSH1 0x4 DUP2 GT ISZERO PUSH2 0x112F JUMPI PUSH2 0x112E PUSH2 0x1A8F JUMP JUMPDEST JUMPDEST PUSH1 0x0 DUP1 CALLER PUSH20 0xFFFFFFFFFFFFFFFFFFFFFFFFFFFFFFFFFFFFFFFF AND PUSH20 0xFFFFFFFFFFFFFFFFFFFFFFFFFFFFFFFFFFFFFFFF AND DUP2 MSTORE PUSH1 0x20 ADD SWAP1 DUP2 MSTORE PUSH1 0x20 ADD PUSH1 0x0 KECCAK256 PUSH1 0x0 ADD PUSH1 0x0 SWAP1 SLOAD SWAP1 PUSH2 0x100 EXP SWAP1 DIV PUSH1 0xFF AND PUSH1 0x4 DUP2 GT ISZERO PUSH2 0x1190 JUMPI PUSH2 0x118F PUSH2 0x1A8F JUMP JUMPDEST JUMPDEST EQ DUP1 PUSH2 0x120E JUMPI POP PUSH1 0x2 PUSH1 0x4 DUP2 GT ISZERO PUSH2 0x11AB JUMPI PUSH2 0x11AA PUSH2 0x1A8F JUMP JUMPDEST JUMPDEST PUSH1 0x0 DUP1 CALLER PUSH20 0xFFFFFFFFFFFFFFFFFFFFFFFFFFFFFFFFFFFFFFFF AND PUSH20 0xFFFFFFFFFFFFFFFFFFFFFFFFFFFFFFFFFFFFFFFF AND DUP2 MSTORE PUSH1 0x20 ADD SWAP1 DUP2 MSTORE PUSH1 0x20 ADD PUSH1 0x0 KECCAK256 PUSH1 0x0 ADD PUSH1 0x0 SWAP1 SLOAD SWAP1 PUSH2 0x100 EXP SWAP1 DIV PUSH1 0xFF AND PUSH1 0x4 DUP2 GT ISZERO PUSH2 0x120C JUMPI PUSH2 0x120B PUSH2 0x1A8F JUMP JUMPDEST JUMPDEST EQ JUMPDEST PUSH2 0x124D JUMPI PUSH1 0x40 MLOAD PUSH32 0x8C379A000000000000000000000000000000000000000000000000000000000 DUP2 MSTORE PUSH1 0x4 ADD PUSH2 0x1244 SWAP1 PUSH2 0x17D6 JUMP JUMPDEST PUSH1 0x40 MLOAD DUP1 SWAP2 SUB SWAP1 REVERT JUMPDEST PUSH1 0x4 DUP1 SLOAD DUP1 PUSH1 0x20 MUL PUSH1 0x20 ADD PUSH1 0x40 MLOAD SWAP1 DUP2 ADD PUSH1 0x40 MSTORE DUP1 SWAP3 SWAP2 SWAP1 DUP2 DUP2 MSTORE PUSH1 0x20 ADD DUP3 DUP1 SLOAD DUP1 ISZERO PUSH2 0x12CF JUMPI PUSH1 0x20 MUL DUP3 ADD SWAP2 SWAP1 PUSH1 0x0 MSTORE PUSH1 0x20 PUSH1 0x0 KECCAK256 SWAP1 JUMPDEST DUP2 PUSH1 0x0 SWAP1 SLOAD SWAP1 PUSH2 0x100 EXP SWAP1 DIV PUSH20 0xFFFFFFFFFFFFFFFFFFFFFFFFFFFFFFFFFFFFFFFF AND PUSH20 0xFFFFFFFFFFFFFFFFFFFFFFFFFFFFFFFFFFFFFFFF AND DUP2 MSTORE PUSH1 0x20 ADD SWAP1 PUSH1 0x1 ADD SWAP1 DUP1 DUP4 GT PUSH2 0x1285 JUMPI JUMPDEST POP POP POP POP POP SWAP1 POP SWAP1 JUMP JUMPDEST DUP3 DUP1 SLOAD PUSH2 0x12E5 SWAP1 PUSH2 0x19B4 JUMP JUMPDEST SWAP1 PUSH1 0x0 MSTORE PUSH1 0x20 PUSH1 0x0 KECCAK256 SWAP1 PUSH1 0x1F ADD PUSH1 0x20 SWAP1 DIV DUP2 ADD SWAP3 DUP3 PUSH2 0x1307 JUMPI PUSH1 0x0 DUP6 SSTORE PUSH2 0x134E JUMP JUMPDEST DUP3 PUSH1 0x1F LT PUSH2 0x1320 JUMPI DUP1 MLOAD PUSH1 0xFF NOT AND DUP4 DUP1 ADD OR DUP6 SSTORE PUSH2 0x134E JUMP JUMPDEST DUP3 DUP1 ADD PUSH1 0x1 ADD DUP6 SSTORE DUP3 ISZERO PUSH2 0x134E JUMPI SWAP2 DUP3 ADD JUMPDEST DUP3 DUP2 GT ISZERO PUSH2 0x134D JUMPI DUP3 MLOAD DUP3 SSTORE SWAP2 PUSH1 0x20 ADD SWAP2 SWAP1 PUSH1 0x1 ADD SWAP1 PUSH2 0x1332 JUMP JUMPDEST JUMPDEST POP SWAP1 POP PUSH2 0x135B SWAP2 SWAP1 PUSH2 0x135F JUMP JUMPDEST POP SWAP1 JUMP JUMPDEST JUMPDEST DUP1 DUP3 GT ISZERO PUSH2 0x1378 JUMPI PUSH1 0x0 DUP2 PUSH1 0x0 SWAP1 SSTORE POP PUSH1 0x1 ADD PUSH2 0x1360 JUMP JUMPDEST POP SWAP1 JUMP JUMPDEST PUSH1 0x0 PUSH2 0x138F PUSH2 0x138A DUP5 PUSH2 0x189B JUMP JUMPDEST PUSH2 0x1876 JUMP JUMPDEST SWAP1 POP DUP3 DUP2 MSTORE PUSH1 0x20 DUP2 ADD DUP5 DUP5 DUP5 ADD GT ISZERO PUSH2 0x13AB JUMPI PUSH2 0x13AA PUSH2 0x1B50 JUMP JUMPDEST JUMPDEST PUSH2 0x13B6 DUP5 DUP3 DUP6 PUSH2 0x1972 JUMP JUMPDEST POP SWAP4 SWAP3 POP POP POP JUMP JUMPDEST PUSH1 0x0 DUP2 CALLDATALOAD SWAP1 POP PUSH2 0x13CD DUP2 PUSH2 0x1D53 JUMP JUMPDEST SWAP3 SWAP2 POP POP JUMP JUMPDEST PUSH1 0x0 DUP3 PUSH1 0x1F DUP4 ADD SLT PUSH2 0x13E8 JUMPI PUSH2 0x13E7 PUSH2 0x1B4B JUMP JUMPDEST JUMPDEST DUP2 CALLDATALOAD PUSH2 0x13F8 DUP5 DUP3 PUSH1 0x20 DUP7 ADD PUSH2 0x137C JUMP JUMPDEST SWAP2 POP POP SWAP3 SWAP2 POP POP JUMP JUMPDEST PUSH1 0x0 PUSH1 0x20 DUP3 DUP5 SUB SLT ISZERO PUSH2 0x1417 JUMPI PUSH2 0x1416 PUSH2 0x1B5A JUMP JUMPDEST JUMPDEST PUSH1 0x0 PUSH2 0x1425 DUP5 DUP3 DUP6 ADD PUSH2 0x13BE JUMP JUMPDEST SWAP2 POP POP SWAP3 SWAP2 POP POP JUMP JUMPDEST PUSH1 0x0 PUSH1 0x20 DUP3 DUP5 SUB SLT ISZERO PUSH2 0x1444 JUMPI PUSH2 0x1443 PUSH2 0x1B5A JUMP JUMPDEST JUMPDEST PUSH1 0x0 DUP3 ADD CALLDATALOAD PUSH8 0xFFFFFFFFFFFFFFFF DUP2 GT ISZERO PUSH2 0x1462 JUMPI PUSH2 0x1461 PUSH2 0x1B55 JUMP JUMPDEST JUMPDEST PUSH2 0x146E DUP5 DUP3 DUP6 ADD PUSH2 0x13D3 JUMP JUMPDEST SWAP2 POP POP SWAP3 SWAP2 POP POP JUMP JUMPDEST PUSH1 0x0 DUP1 PUSH1 0x0 PUSH1 0x60 DUP5 DUP7 SUB SLT ISZERO PUSH2 0x1490 JUMPI PUSH2 0x148F PUSH2 0x1B5A JUMP JUMPDEST JUMPDEST PUSH1 0x0 DUP5 ADD CALLDATALOAD PUSH8 0xFFFFFFFFFFFFFFFF DUP2 GT ISZERO PUSH2 0x14AE JUMPI PUSH2 0x14AD PUSH2 0x1B55 JUMP JUMPDEST JUMPDEST PUSH2 0x14BA DUP7 DUP3 DUP8 ADD PUSH2 0x13D3 JUMP JUMPDEST SWAP4 POP POP PUSH1 0x20 DUP5 ADD CALLDATALOAD PUSH8 0xFFFFFFFFFFFFFFFF DUP2 GT ISZERO PUSH2 0x14DB JUMPI PUSH2 0x14DA PUSH2 0x1B55 JUMP JUMPDEST JUMPDEST PUSH2 0x14E7 DUP7 DUP3 DUP8 ADD PUSH2 0x13D3 JUMP JUMPDEST SWAP3 POP POP PUSH1 0x40 PUSH2 0x14F8 DUP7 DUP3 DUP8 ADD PUSH2 0x13BE JUMP JUMPDEST SWAP2 POP POP SWAP3 POP SWAP3 POP SWAP3 JUMP JUMPDEST PUSH1 0x0 PUSH2 0x150E DUP4 DUP4 PUSH2 0x151A JUMP JUMPDEST PUSH1 0x20 DUP4 ADD SWAP1 POP SWAP3 SWAP2 POP POP JUMP JUMPDEST PUSH2 0x1523 DUP2 PUSH2 0x192C JUMP JUMPDEST DUP3 MSTORE POP POP JUMP JUMPDEST PUSH1 0x0 PUSH2 0x1534 DUP3 PUSH2 0x18DC JUMP JUMPDEST PUSH2 0x153E DUP2 DUP6 PUSH2 0x18FF JUMP JUMPDEST SWAP4 POP PUSH2 0x1549 DUP4 PUSH2 0x18CC JUMP JUMPDEST DUP1 PUSH1 0x0 JUMPDEST DUP4 DUP2 LT ISZERO PUSH2 0x157A JUMPI DUP2 MLOAD PUSH2 0x1561 DUP9 DUP3 PUSH2 0x1502 JUMP JUMPDEST SWAP8 POP PUSH2 0x156C DUP4 PUSH2 0x18F2 JUMP JUMPDEST SWAP3 POP POP PUSH1 0x1 DUP2 ADD SWAP1 POP PUSH2 0x154D JUMP JUMPDEST POP DUP6 SWAP4 POP POP POP POP SWAP3 SWAP2 POP POP JUMP JUMPDEST PUSH2 0x1590 DUP2 PUSH2 0x193E JUMP JUMPDEST DUP3 MSTORE POP POP JUMP JUMPDEST PUSH1 0x0 PUSH2 0x15A1 DUP3 PUSH2 0x18E7 JUMP JUMPDEST PUSH2 0x15AB DUP2 DUP6 PUSH2 0x1921 JUMP JUMPDEST SWAP4 POP PUSH2 0x15BB DUP2 DUP6 PUSH1 0x20 DUP7 ADD PUSH2 0x1981 JUMP JUMPDEST DUP1 DUP5 ADD SWAP2 POP POP SWAP3 SWAP2 POP POP JUMP JUMPDEST PUSH1 0x0 PUSH2 0x15D4 PUSH1 0x1C DUP4 PUSH2 0x1910 JUMP JUMPDEST SWAP2 POP PUSH2 0x15DF DUP3 PUSH2 0x1B70 JUMP JUMPDEST PUSH1 0x20 DUP3 ADD SWAP1 POP SWAP2 SWAP1 POP JUMP JUMPDEST PUSH1 0x0 PUSH2 0x15F7 PUSH1 0x14 DUP4 PUSH2 0x1910 JUMP JUMPDEST SWAP2 POP PUSH2 0x1602 DUP3 PUSH2 0x1B99 JUMP JUMPDEST PUSH1 0x20 DUP3 ADD SWAP1 POP SWAP2 SWAP1 POP JUMP JUMPDEST PUSH1 0x0 PUSH2 0x161A PUSH1 0x18 DUP4 PUSH2 0x1910 JUMP JUMPDEST SWAP2 POP PUSH2 0x1625 DUP3 PUSH2 0x1BC2 JUMP JUMPDEST PUSH1 0x20 DUP3 ADD SWAP1 POP SWAP2 SWAP1 POP JUMP JUMPDEST PUSH1 0x0 PUSH2 0x163D PUSH1 0x2A DUP4 PUSH2 0x1910 JUMP JUMPDEST SWAP2 POP PUSH2 0x1648 DUP3 PUSH2 0x1BEB JUMP JUMPDEST PUSH1 0x40 DUP3 ADD SWAP1 POP SWAP2 SWAP1 POP JUMP JUMPDEST PUSH1 0x0 PUSH2 0x1660 PUSH1 0x29 DUP4 PUSH2 0x1910 JUMP JUMPDEST SWAP2 POP PUSH2 0x166B DUP3 PUSH2 0x1C3A JUMP JUMPDEST PUSH1 0x40 DUP3 ADD SWAP1 POP SWAP2 SWAP1 POP JUMP JUMPDEST PUSH1 0x0 PUSH2 0x1683 PUSH1 0xE DUP4 PUSH2 0x1910 JUMP JUMPDEST SWAP2 POP PUSH2 0x168E DUP3 PUSH2 0x1C89 JUMP JUMPDEST PUSH1 0x20 DUP3 ADD SWAP1 POP SWAP2 SWAP1 POP JUMP JUMPDEST PUSH1 0x0 PUSH2 0x16A6 PUSH1 0x19 DUP4 PUSH2 0x1910 JUMP JUMPDEST SWAP2 POP PUSH2 0x16B1 DUP3 PUSH2 0x1CB2 JUMP JUMPDEST PUSH1 0x20 DUP3 ADD SWAP1 POP SWAP2 SWAP1 POP JUMP JUMPDEST PUSH1 0x0 PUSH2 0x16C9 PUSH1 0x17 DUP4 PUSH2 0x1910 JUMP JUMPDEST SWAP2 POP PUSH2 0x16D4 DUP3 PUSH2 0x1CDB JUMP JUMPDEST PUSH1 0x20 DUP3 ADD SWAP1 POP SWAP2 SWAP1 POP JUMP JUMPDEST PUSH1 0x0 PUSH2 0x16EC PUSH1 0x37 DUP4 PUSH2 0x1910 JUMP JUMPDEST SWAP2 POP PUSH2 0x16F7 DUP3 PUSH2 0x1D04 JUMP JUMPDEST PUSH1 0x40 DUP3 ADD SWAP1 POP SWAP2 SWAP1 POP JUMP JUMPDEST PUSH1 0x0 PUSH2 0x170E DUP3 DUP5 PUSH2 0x1596 JUMP JUMPDEST SWAP2 POP DUP2 SWAP1 POP SWAP3 SWAP2 POP POP JUMP JUMPDEST PUSH1 0x0 PUSH1 0x20 DUP3 ADD SWAP1 POP DUP2 DUP2 SUB PUSH1 0x0 DUP4 ADD MSTORE PUSH2 0x1733 DUP2 DUP5 PUSH2 0x1529 JUMP JUMPDEST SWAP1 POP SWAP3 SWAP2 POP POP JUMP JUMPDEST PUSH1 0x0 PUSH1 0x20 DUP3 ADD SWAP1 POP PUSH2 0x1750 PUSH1 0x0 DUP4 ADD DUP5 PUSH2 0x1587 JUMP JUMPDEST SWAP3 SWAP2 POP POP JUMP JUMPDEST PUSH1 0x0 PUSH1 0x20 DUP3 ADD SWAP1 POP DUP2 DUP2 SUB PUSH1 0x0 DUP4 ADD MSTORE PUSH2 0x176F DUP2 PUSH2 0x15C7 JUMP JUMPDEST SWAP1 POP SWAP2 SWAP1 POP JUMP JUMPDEST PUSH1 0x0 PUSH1 0x20 DUP3 ADD SWAP1 POP DUP2 DUP2 SUB PUSH1 0x0 DUP4 ADD MSTORE PUSH2 0x178F DUP2 PUSH2 0x15EA JUMP JUMPDEST SWAP1 POP SWAP2 SWAP1 POP JUMP JUMPDEST PUSH1 0x0 PUSH1 0x20 DUP3 ADD SWAP1 POP DUP2 DUP2 SUB PUSH1 0x0 DUP4 ADD MSTORE PUSH2 0x17AF DUP2 PUSH2 0x160D JUMP JUMPDEST SWAP1 POP SWAP2 SWAP1 POP JUMP JUMPDEST PUSH1 0x0 PUSH1 0x20 DUP3 ADD SWAP1 POP DUP2 DUP2 SUB PUSH1 0x0 DUP4 ADD MSTORE PUSH2 0x17CF DUP2 PUSH2 0x1630 JUMP JUMPDEST SWAP1 POP SWAP2 SWAP1 POP JUMP JUMPDEST PUSH1 0x0 PUSH1 0x20 DUP3 ADD SWAP1 POP DUP2 DUP2 SUB PUSH1 0x0 DUP4 ADD MSTORE PUSH2 0x17EF DUP2 PUSH2 0x1653 JUMP JUMPDEST SWAP1 POP SWAP2 SWAP1 POP JUMP JUMPDEST PUSH1 0x0 PUSH1 0x20 DUP3 ADD SWAP1 POP DUP2 DUP2 SUB PUSH1 0x0 DUP4 ADD MSTORE PUSH2 0x180F DUP2 PUSH2 0x1676 JUMP JUMPDEST SWAP1 POP SWAP2 SWAP1 POP JUMP JUMPDEST PUSH1 0x0 PUSH1 0x20 DUP3 ADD SWAP1 POP DUP2 DUP2 SUB PUSH1 0x0 DUP4 ADD MSTORE PUSH2 0x182F DUP2 PUSH2 0x1699 JUMP JUMPDEST SWAP1 POP SWAP2 SWAP1 POP JUMP JUMPDEST PUSH1 0x0 PUSH1 0x20 DUP3 ADD SWAP1 POP DUP2 DUP2 SUB PUSH1 0x0 DUP4 ADD MSTORE PUSH2 0x184F DUP2 PUSH2 0x16BC JUMP JUMPDEST SWAP1 POP SWAP2 SWAP1 POP JUMP JUMPDEST PUSH1 0x0 PUSH1 0x20 DUP3 ADD SWAP1 POP DUP2 DUP2 SUB PUSH1 0x0 DUP4 ADD MSTORE PUSH2 0x186F DUP2 PUSH2 0x16DF JUMP JUMPDEST SWAP1 POP SWAP2 SWAP1 POP JUMP JUMPDEST PUSH1 0x0 PUSH2 0x1880 PUSH2 0x1891 JUMP JUMPDEST SWAP1 POP PUSH2 0x188C DUP3 DUP3 PUSH2 0x19E6 JUMP JUMPDEST SWAP2 SWAP1 POP JUMP JUMPDEST PUSH1 0x0 PUSH1 0x40 MLOAD SWAP1 POP SWAP1 JUMP JUMPDEST PUSH1 0x0 PUSH8 0xFFFFFFFFFFFFFFFF DUP3 GT ISZERO PUSH2 0x18B6 JUMPI PUSH2 0x18B5 PUSH2 0x1B1C JUMP JUMPDEST JUMPDEST PUSH2 0x18BF DUP3 PUSH2 0x1B5F JUMP JUMPDEST SWAP1 POP PUSH1 0x20 DUP2 ADD SWAP1 POP SWAP2 SWAP1 POP JUMP JUMPDEST PUSH1 0x0 DUP2 SWAP1 POP PUSH1 0x20 DUP3 ADD SWAP1 POP SWAP2 SWAP1 POP JUMP JUMPDEST PUSH1 0x0 DUP2 MLOAD SWAP1 POP SWAP2 SWAP1 POP JUMP JUMPDEST PUSH1 0x0 DUP2 MLOAD SWAP1 POP SWAP2 SWAP1 POP JUMP JUMPDEST PUSH1 0x0 PUSH1 0x20 DUP3 ADD SWAP1 POP SWAP2 SWAP1 POP JUMP JUMPDEST PUSH1 0x0 DUP3 DUP3 MSTORE PUSH1 0x20 DUP3 ADD SWAP1 POP SWAP3 SWAP2 POP POP JUMP JUMPDEST PUSH1 0x0 DUP3 DUP3 MSTORE PUSH1 0x20 DUP3 ADD SWAP1 POP SWAP3 SWAP2 POP POP JUMP JUMPDEST PUSH1 0x0 DUP2 SWAP1 POP SWAP3 SWAP2 POP POP JUMP JUMPDEST PUSH1 0x0 PUSH2 0x1937 DUP3 PUSH2 0x1948 JUMP JUMPDEST SWAP1 POP SWAP2 SWAP1 POP JUMP JUMPDEST PUSH1 0x0 DUP2 SWAP1 POP SWAP2 SWAP1 POP JUMP JUMPDEST PUSH1 0x0 PUSH20 0xFFFFFFFFFFFFFFFFFFFFFFFFFFFFFFFFFFFFFFFF DUP3 AND SWAP1 POP SWAP2 SWAP1 POP JUMP JUMPDEST PUSH1 0x0 DUP2 SWAP1 POP SWAP2 SWAP1 POP JUMP JUMPDEST DUP3 DUP2 DUP4 CALLDATACOPY PUSH1 0x0 DUP4 DUP4 ADD MSTORE POP POP POP JUMP JUMPDEST PUSH1 0x0 JUMPDEST DUP4 DUP2 LT ISZERO PUSH2 0x199F JUMPI DUP1 DUP3 ADD MLOAD DUP2 DUP5 ADD MSTORE PUSH1 0x20 DUP2 ADD SWAP1 POP PUSH2 0x1984 JUMP JUMPDEST DUP4 DUP2 GT ISZERO PUSH2 0x19AE JUMPI PUSH1 0x0 DUP5 DUP5 ADD MSTORE JUMPDEST POP POP POP POP JUMP JUMPDEST PUSH1 0x0 PUSH1 0x2 DUP3 DIV SWAP1 POP PUSH1 0x1 DUP3 AND DUP1 PUSH2 0x19CC JUMPI PUSH1 0x7F DUP3 AND SWAP2 POP JUMPDEST PUSH1 0x20 DUP3 LT DUP2 EQ ISZERO PUSH2 0x19E0 JUMPI PUSH2 0x19DF PUSH2 0x1ABE JUMP JUMPDEST JUMPDEST POP SWAP2 SWAP1 POP JUMP JUMPDEST PUSH2 0x19EF DUP3 PUSH2 0x1B5F JUMP JUMPDEST DUP2 ADD DUP2 DUP2 LT PUSH8 0xFFFFFFFFFFFFFFFF DUP3 GT OR ISZERO PUSH2 0x1A0E JUMPI PUSH2 0x1A0D PUSH2 0x1B1C JUMP JUMPDEST JUMPDEST DUP1 PUSH1 0x40 MSTORE POP POP POP JUMP JUMPDEST PUSH1 0x0 PUSH2 0x1A22 DUP3 PUSH2 0x1968 JUMP JUMPDEST SWAP2 POP PUSH32 0xFFFFFFFFFFFFFFFFFFFFFFFFFFFFFFFFFFFFFFFFFFFFFFFFFFFFFFFFFFFFFFFF DUP3 EQ ISZERO PUSH2 0x1A55 JUMPI PUSH2 0x1A54 PUSH2 0x1A60 JUMP JUMPDEST JUMPDEST PUSH1 0x1 DUP3 ADD SWAP1 POP SWAP2 SWAP1 POP JUMP JUMPDEST PUSH32 0x4E487B7100000000000000000000000000000000000000000000000000000000 PUSH1 0x0 MSTORE PUSH1 0x11 PUSH1 0x4 MSTORE PUSH1 0x24 PUSH1 0x0 REVERT JUMPDEST PUSH32 0x4E487B7100000000000000000000000000000000000000000000000000000000 PUSH1 0x0 MSTORE PUSH1 0x21 PUSH1 0x4 MSTORE PUSH1 0x24 PUSH1 0x0 REVERT JUMPDEST PUSH32 0x4E487B7100000000000000000000000000000000000000000000000000000000 PUSH1 0x0 MSTORE PUSH1 0x22 PUSH1 0x4 MSTORE PUSH1 0x24 PUSH1 0x0 REVERT JUMPDEST PUSH32 0x4E487B7100000000000000000000000000000000000000000000000000000000 PUSH1 0x0 MSTORE PUSH1 0x32 PUSH1 0x4 MSTORE PUSH1 0x24 PUSH1 0x0 REVERT JUMPDEST PUSH32 0x4E487B7100000000000000000000000000000000000000000000000000000000 PUSH1 0x0 MSTORE PUSH1 0x41 PUSH1 0x4 MSTORE PUSH1 0x24 PUSH1 0x0 REVERT JUMPDEST PUSH1 0x0 DUP1 REVERT JUMPDEST PUSH1 0x0 DUP1 REVERT JUMPDEST PUSH1 0x0 DUP1 REVERT JUMPDEST PUSH1 0x0 DUP1 REVERT JUMPDEST PUSH1 0x0 PUSH1 0x1F NOT PUSH1 0x1F DUP4 ADD AND SWAP1 POP SWAP2 SWAP1 POP JUMP JUMPDEST PUSH32 0x52657669657720746865206170706C69636174696F6E20666972737400000000 PUSH1 0x0 DUP3 ADD MSTORE POP JUMP JUMPDEST PUSH32 0x506861736520616C726561647920616374697665000000000000000000000000 PUSH1 0x0 DUP3 ADD MSTORE POP JUMP JUMPDEST PUSH32 0x4170706C69636174696F6E20616C72656164792073656E740000000000000000 PUSH1 0x0 DUP3 ADD MSTORE POP JUMP JUMPDEST PUSH32 0x596F7572206170706C69636174696F6E2068617320616C726561647920626565 PUSH1 0x0 DUP3 ADD MSTORE PUSH32 0x6E2072656A656374656400000000000000000000000000000000000000000000 PUSH1 0x20 DUP3 ADD MSTORE POP JUMP JUMPDEST PUSH32 0x596F7520617265206E6F7420746865206F776E6572206F722070726976617465 PUSH1 0x0 DUP3 ADD MSTORE PUSH32 0x2070726F76696465720000000000000000000000000000000000000000000000 PUSH1 0x20 DUP3 ADD MSTORE POP JUMP JUMPDEST PUSH32 0x596F7572206E6F742061646D696E000000000000000000000000000000000000 PUSH1 0x0 DUP3 ADD MSTORE POP JUMP JUMPDEST PUSH32 0x596F7572206E6F7420507269766174652070726F766964657200000000000000 PUSH1 0x0 DUP3 ADD MSTORE POP JUMP JUMPDEST PUSH32 0x4170706C69636174696F6E20706861736520656E646564000000000000000000 PUSH1 0x0 DUP3 ADD MSTORE POP JUMP JUMPDEST PUSH32 0x596F752063616E27742073656E6420616E206170706C69636174696F6E20746F PUSH1 0x0 DUP3 ADD MSTORE PUSH32 0x20736F6D656F6E6520656C736527732061646472657373000000000000000000 PUSH1 0x20 DUP3 ADD MSTORE POP JUMP JUMPDEST PUSH2 0x1D5C DUP2 PUSH2 0x192C JUMP JUMPDEST DUP2 EQ PUSH2 0x1D67 JUMPI PUSH1 0x0 DUP1 REVERT JUMPDEST POP JUMP INVALID LOG2 PUSH5 0x6970667358 0x22 SLT KECCAK256 DUP14 0xD8 SSTORE 0x4A ADDMOD 0xDA 0x5C 0xB7 PUSH23 0xF9A8945D73D4F73F4CAE93C5AF7DE90E7FC7A9E71567C0 PUSH5 0x736F6C6343 STOP ADDMOD SMOD STOP CALLER "
				},
				"gasEstimates": {
					"creation": {
						"codeDepositCost": "1516800",
						"executionCost": "1582",
						"totalCost": "1518382"
					},
					"external": {
						"acceptApplication(address)": "infinite",
						"application(string,string,address)": "infinite",
						"deviationApplication(address)": "29513",
						"getApplicationAmountAdr()": "infinite",
						"get_blackList()": "infinite",
						"get_keccak256(string)": "infinite",
						"get_whiteList()": "infinite",
						"startPrivatePhase()": "53501"
					}
				},
				"methodIdentifiers": {
					"acceptApplication(address)": "a678b65b",
					"application(string,string,address)": "785963c3",
					"deviationApplication(address)": "1d3eea35",
					"getApplicationAmountAdr()": "686c4cea",
					"get_blackList()": "7f89128f",
					"get_keccak256(string)": "8e4f8c6b",
					"get_whiteList()": "c10e3911",
					"startPrivatePhase()": "0691615d"
				}
			},
			"storageLayout": {
				"storage": [
					{
						"astId": 476,
						"contract": "Documents/GitHub/contract-token-cryptoMonster/backend/components/PhasePrivate.sol:PhasePrivate",
						"label": "structUsers_",
						"offset": 0,
						"slot": "0",
						"type": "t_mapping(t_address,t_struct(structUser)471_storage)"
					},
					{
						"astId": 486,
						"contract": "Documents/GitHub/contract-token-cryptoMonster/backend/components/PhasePrivate.sol:PhasePrivate",
						"label": "structPhases_",
						"offset": 0,
						"slot": "1",
						"type": "t_mapping(t_address,t_struct(structPhase)481_storage)"
					},
					{
						"astId": 504,
						"contract": "Documents/GitHub/contract-token-cryptoMonster/backend/components/PhasePrivate.sol:PhasePrivate",
						"label": "strucApplications_",
						"offset": 0,
						"slot": "2",
						"type": "t_mapping(t_address,t_struct(structApplication)499_storage)"
					},
					{
						"astId": 507,
						"contract": "Documents/GitHub/contract-token-cryptoMonster/backend/components/PhasePrivate.sol:PhasePrivate",
						"label": "structApplicationsAmountAdr",
						"offset": 0,
						"slot": "3",
						"type": "t_array(t_address)dyn_storage"
					},
					{
						"astId": 510,
						"contract": "Documents/GitHub/contract-token-cryptoMonster/backend/components/PhasePrivate.sol:PhasePrivate",
						"label": "whiteList",
						"offset": 0,
						"slot": "4",
						"type": "t_array(t_address)dyn_storage"
					},
					{
						"astId": 513,
						"contract": "Documents/GitHub/contract-token-cryptoMonster/backend/components/PhasePrivate.sol:PhasePrivate",
						"label": "blackList",
						"offset": 0,
						"slot": "5",
						"type": "t_array(t_address)dyn_storage"
					}
				],
				"types": {
					"t_address": {
						"encoding": "inplace",
						"label": "address",
						"numberOfBytes": "20"
					},
					"t_array(t_address)dyn_storage": {
						"base": "t_address",
						"encoding": "dynamic_array",
						"label": "address[]",
						"numberOfBytes": "32"
					},
					"t_bool": {
						"encoding": "inplace",
						"label": "bool",
						"numberOfBytes": "1"
					},
					"t_bytes32": {
						"encoding": "inplace",
						"label": "bytes32",
						"numberOfBytes": "32"
					},
					"t_enum(Role)455": {
						"encoding": "inplace",
						"label": "enum structures.Role",
						"numberOfBytes": "1"
					},
					"t_mapping(t_address,t_struct(structApplication)499_storage)": {
						"encoding": "mapping",
						"key": "t_address",
						"label": "mapping(address => struct structures.structApplication)",
						"numberOfBytes": "32",
						"value": "t_struct(structApplication)499_storage"
					},
					"t_mapping(t_address,t_struct(structPhase)481_storage)": {
						"encoding": "mapping",
						"key": "t_address",
						"label": "mapping(address => struct structures.structPhase)",
						"numberOfBytes": "32",
						"value": "t_struct(structPhase)481_storage"
					},
					"t_mapping(t_address,t_struct(structUser)471_storage)": {
						"encoding": "mapping",
						"key": "t_address",
						"label": "mapping(address => struct structures.structUser)",
						"numberOfBytes": "32",
						"value": "t_struct(structUser)471_storage"
					},
					"t_string_storage": {
						"encoding": "bytes",
						"label": "string",
						"numberOfBytes": "32"
					},
					"t_struct(structApplication)499_storage": {
						"encoding": "inplace",
						"label": "struct structures.structApplication",
						"members": [
							{
								"astId": 488,
								"contract": "Documents/GitHub/contract-token-cryptoMonster/backend/components/PhasePrivate.sol:PhasePrivate",
								"label": "name",
								"offset": 0,
								"slot": "0",
								"type": "t_string_storage"
							},
							{
								"astId": 490,
								"contract": "Documents/GitHub/contract-token-cryptoMonster/backend/components/PhasePrivate.sol:PhasePrivate",
								"label": "contactForCommunication",
								"offset": 0,
								"slot": "1",
								"type": "t_string_storage"
							},
							{
								"astId": 492,
								"contract": "Documents/GitHub/contract-token-cryptoMonster/backend/components/PhasePrivate.sol:PhasePrivate",
								"label": "userAdr",
								"offset": 0,
								"slot": "2",
								"type": "t_address"
							},
							{
								"astId": 494,
								"contract": "Documents/GitHub/contract-token-cryptoMonster/backend/components/PhasePrivate.sol:PhasePrivate",
								"label": "status",
								"offset": 20,
								"slot": "2",
								"type": "t_bool"
							},
							{
								"astId": 496,
								"contract": "Documents/GitHub/contract-token-cryptoMonster/backend/components/PhasePrivate.sol:PhasePrivate",
								"label": "reviewed",
								"offset": 21,
								"slot": "2",
								"type": "t_bool"
							},
							{
								"astId": 498,
								"contract": "Documents/GitHub/contract-token-cryptoMonster/backend/components/PhasePrivate.sol:PhasePrivate",
								"label": "exist",
								"offset": 22,
								"slot": "2",
								"type": "t_bool"
							}
						],
						"numberOfBytes": "96"
					},
					"t_struct(structPhase)481_storage": {
						"encoding": "inplace",
						"label": "struct structures.structPhase",
						"members": [
							{
								"astId": 478,
								"contract": "Documents/GitHub/contract-token-cryptoMonster/backend/components/PhasePrivate.sol:PhasePrivate",
								"label": "statusPhase",
								"offset": 0,
								"slot": "0",
								"type": "t_bool"
							},
							{
								"astId": 480,
								"contract": "Documents/GitHub/contract-token-cryptoMonster/backend/components/PhasePrivate.sol:PhasePrivate",
								"label": "reviewed",
								"offset": 1,
								"slot": "0",
								"type": "t_bool"
							}
						],
						"numberOfBytes": "32"
					},
					"t_struct(structUser)471_storage": {
						"encoding": "inplace",
						"label": "struct structures.structUser",
						"members": [
							{
								"astId": 458,
								"contract": "Documents/GitHub/contract-token-cryptoMonster/backend/components/PhasePrivate.sol:PhasePrivate",
								"label": "role",
								"offset": 0,
								"slot": "0",
								"type": "t_enum(Role)455"
							},
							{
								"astId": 460,
								"contract": "Documents/GitHub/contract-token-cryptoMonster/backend/components/PhasePrivate.sol:PhasePrivate",
								"label": "login",
								"offset": 0,
								"slot": "1",
								"type": "t_string_storage"
							},
							{
								"astId": 462,
								"contract": "Documents/GitHub/contract-token-cryptoMonster/backend/components/PhasePrivate.sol:PhasePrivate",
								"label": "password",
								"offset": 0,
								"slot": "2",
								"type": "t_bytes32"
							},
							{
								"astId": 464,
								"contract": "Documents/GitHub/contract-token-cryptoMonster/backend/components/PhasePrivate.sol:PhasePrivate",
								"label": "balance_overall",
								"offset": 0,
								"slot": "3",
								"type": "t_uint256"
							},
							{
								"astId": 466,
								"contract": "Documents/GitHub/contract-token-cryptoMonster/backend/components/PhasePrivate.sol:PhasePrivate",
								"label": "balance_seed",
								"offset": 0,
								"slot": "4",
								"type": "t_uint256"
							},
							{
								"astId": 468,
								"contract": "Documents/GitHub/contract-token-cryptoMonster/backend/components/PhasePrivate.sol:PhasePrivate",
								"label": "balance_private",
								"offset": 0,
								"slot": "5",
								"type": "t_uint256"
							},
							{
								"astId": 470,
								"contract": "Documents/GitHub/contract-token-cryptoMonster/backend/components/PhasePrivate.sol:PhasePrivate",
								"label": "balance_public",
								"offset": 0,
								"slot": "6",
								"type": "t_uint256"
							}
						],
						"numberOfBytes": "224"
					},
					"t_uint256": {
						"encoding": "inplace",
						"label": "uint256",
						"numberOfBytes": "32"
					}
				}
			},
			"userdoc": {
				"kind": "user",
				"methods": {},
				"version": 1
			}
		}
	}
}