{
	"GitHub/contract-token-cryptoMonster/backend/components/PhasePrivate.sol": {
		"PhasePrivate": {
			"abi": [
				{
					"inputs": [
						{
							"internalType": "address",
							"name": "_userAdr",
							"type": "address"
						}
					],
					"name": "acceptApplication",
					"outputs": [],
					"stateMutability": "nonpayable",
					"type": "function"
				},
				{
					"inputs": [
						{
							"internalType": "address",
							"name": "_userAdr",
							"type": "address"
						}
					],
					"name": "addBlackList",
					"outputs": [],
					"stateMutability": "nonpayable",
					"type": "function"
				},
				{
					"inputs": [
						{
							"internalType": "string",
							"name": "_name",
							"type": "string"
						},
						{
							"internalType": "string",
							"name": "_contactForCommunication",
							"type": "string"
						},
						{
							"internalType": "address",
							"name": "_userAdr",
							"type": "address"
						}
					],
					"name": "application",
					"outputs": [],
					"stateMutability": "nonpayable",
					"type": "function"
				},
				{
					"inputs": [
						{
							"internalType": "address",
							"name": "_userAdr",
							"type": "address"
						}
					],
					"name": "deviationApplication",
					"outputs": [],
					"stateMutability": "nonpayable",
					"type": "function"
				},
				{
					"inputs": [],
					"name": "getApplicationAmountAdr",
					"outputs": [
						{
							"internalType": "address[]",
							"name": "",
							"type": "address[]"
						}
					],
					"stateMutability": "view",
					"type": "function"
				},
				{
					"inputs": [],
					"name": "getApplicationNotReviewed",
					"outputs": [
						{
							"internalType": "address[]",
							"name": "",
							"type": "address[]"
						}
					],
					"stateMutability": "view",
					"type": "function"
				},
				{
					"inputs": [
						{
							"internalType": "string",
							"name": "_hash",
							"type": "string"
						}
					],
					"name": "get_keccak256",
					"outputs": [
						{
							"internalType": "bytes32",
							"name": "",
							"type": "bytes32"
						}
					],
					"stateMutability": "pure",
					"type": "function"
				},
				{
					"inputs": [],
					"name": "get_whiteList",
					"outputs": [
						{
							"internalType": "address[]",
							"name": "",
							"type": "address[]"
						}
					],
					"stateMutability": "view",
					"type": "function"
				},
				{
					"inputs": [
						{
							"internalType": "address",
							"name": "_userAdr",
							"type": "address"
						}
					],
					"name": "viewApplication",
					"outputs": [
						{
							"components": [
								{
									"internalType": "string",
									"name": "name",
									"type": "string"
								},
								{
									"internalType": "string",
									"name": "contactForCommunication",
									"type": "string"
								},
								{
									"internalType": "address",
									"name": "userAdr",
									"type": "address"
								},
								{
									"internalType": "bool",
									"name": "status",
									"type": "bool"
								},
								{
									"internalType": "bool",
									"name": "reviewed",
									"type": "bool"
								},
								{
									"internalType": "bool",
									"name": "exist",
									"type": "bool"
								}
							],
							"internalType": "struct structures.structApplication",
							"name": "",
							"type": "tuple"
						}
					],
					"stateMutability": "nonpayable",
					"type": "function"
				}
			],
			"devdoc": {
				"kind": "dev",
				"methods": {},
				"version": 1
			},
			"evm": {
				"assembly": "    /* \"GitHub/contract-token-cryptoMonster/backend/components/PhasePrivate.sol\":158:5282  contract PhasePrivate is validateFuncs {\r... */\n  mstore(0x40, 0x80)\n  callvalue\n  dup1\n  iszero\n  tag_1\n  jumpi\n  0x00\n  dup1\n  revert\ntag_1:\n  pop\n  dataSize(sub_0)\n  dup1\n  dataOffset(sub_0)\n  0x00\n  codecopy\n  0x00\n  return\nstop\n\nsub_0: assembly {\n        /* \"GitHub/contract-token-cryptoMonster/backend/components/PhasePrivate.sol\":158:5282  contract PhasePrivate is validateFuncs {\r... */\n      mstore(0x40, 0x80)\n      callvalue\n      dup1\n      iszero\n      tag_1\n      jumpi\n      0x00\n      dup1\n      revert\n    tag_1:\n      pop\n      jumpi(tag_2, lt(calldatasize, 0x04))\n      shr(0xe0, calldataload(0x00))\n      dup1\n      0x76eada91\n      gt\n      tag_12\n      jumpi\n      dup1\n      0x76eada91\n      eq\n      tag_7\n      jumpi\n      dup1\n      0x785963c3\n      eq\n      tag_8\n      jumpi\n      dup1\n      0x8e4f8c6b\n      eq\n      tag_9\n      jumpi\n      dup1\n      0xa678b65b\n      eq\n      tag_10\n      jumpi\n      dup1\n      0xc10e3911\n      eq\n      tag_11\n      jumpi\n      jump(tag_2)\n    tag_12:\n      dup1\n      0x0ecb93c0\n      eq\n      tag_3\n      jumpi\n      dup1\n      0x1d3eea35\n      eq\n      tag_4\n      jumpi\n      dup1\n      0x506a222c\n      eq\n      tag_5\n      jumpi\n      dup1\n      0x686c4cea\n      eq\n      tag_6\n      jumpi\n    tag_2:\n      0x00\n      dup1\n      revert\n        /* \"GitHub/contract-token-cryptoMonster/backend/components/PhasePrivate.sol\":5097:5279  function addBlackList (address _userAdr) public onlyOwner {\r... */\n    tag_3:\n      tag_13\n      0x04\n      dup1\n      calldatasize\n      sub\n      dup2\n      add\n      swap1\n      tag_14\n      swap2\n      swap1\n      tag_15\n      jump\t// in\n    tag_14:\n      tag_16\n      jump\t// in\n    tag_13:\n      stop\n        /* \"GitHub/contract-token-cryptoMonster/backend/components/PhasePrivate.sol\":4664:4992  function deviationApplication (address _userAdr) public onlyPrivateProvider {\r... */\n    tag_4:\n      tag_17\n      0x04\n      dup1\n      calldatasize\n      sub\n      dup2\n      add\n      swap1\n      tag_18\n      swap2\n      swap1\n      tag_15\n      jump\t// in\n    tag_18:\n      tag_19\n      jump\t// in\n    tag_17:\n      stop\n        /* \"GitHub/contract-token-cryptoMonster/backend/components/PhasePrivate.sol\":2256:3446  function getApplicationNotReviewed () public onlyPrivateProvider view returns (address[] memory) {\r... */\n    tag_5:\n      tag_20\n      tag_21\n      jump\t// in\n    tag_20:\n      mload(0x40)\n      tag_22\n      swap2\n      swap1\n      tag_23\n      jump\t// in\n    tag_22:\n      mload(0x40)\n      dup1\n      swap2\n      sub\n      swap1\n      return\n        /* \"GitHub/contract-token-cryptoMonster/backend/components/PhasePrivate.sol\":1866:2111  function getApplicationAmountAdr () public onlyPrivateProvider view returns (address[] memory) {\r... */\n    tag_6:\n      tag_24\n      tag_25\n      jump\t// in\n    tag_24:\n      mload(0x40)\n      tag_26\n      swap2\n      swap1\n      tag_23\n      jump\t// in\n    tag_26:\n      mload(0x40)\n      dup1\n      swap2\n      sub\n      swap1\n      return\n        /* \"GitHub/contract-token-cryptoMonster/backend/components/PhasePrivate.sol\":3567:3946  function viewApplication (address _userAdr) public onlyPrivateProvider returns (structApplication memory) {\r... */\n    tag_7:\n      tag_27\n      0x04\n      dup1\n      calldatasize\n      sub\n      dup2\n      add\n      swap1\n      tag_28\n      swap2\n      swap1\n      tag_15\n      jump\t// in\n    tag_28:\n      tag_29\n      jump\t// in\n    tag_27:\n      mload(0x40)\n      tag_30\n      swap2\n      swap1\n      tag_31\n      jump\t// in\n    tag_30:\n      mload(0x40)\n      dup1\n      swap2\n      sub\n      swap1\n      return\n        /* \"GitHub/contract-token-cryptoMonster/backend/components/PhasePrivate.sol\":297:1752  function application(string memory _name, string memory _contactForCommunication, address _userAdr) public {\r... */\n    tag_8:\n      tag_32\n      0x04\n      dup1\n      calldatasize\n      sub\n      dup2\n      add\n      swap1\n      tag_33\n      swap2\n      swap1\n      tag_34\n      jump\t// in\n    tag_33:\n      tag_35\n      jump\t// in\n    tag_32:\n      stop\n        /* \"GitHub/contract-token-cryptoMonster/backend/shared/helpers/helpresFunc.sol\":212:350  function get_keccak256(string memory _hash) public pure returns(bytes32) {\r... */\n    tag_9:\n      tag_36\n      0x04\n      dup1\n      calldatasize\n      sub\n      dup2\n      add\n      swap1\n      tag_37\n      swap2\n      swap1\n      tag_38\n      jump\t// in\n    tag_37:\n      tag_39\n      jump\t// in\n    tag_36:\n      mload(0x40)\n      tag_40\n      swap2\n      swap1\n      tag_41\n      jump\t// in\n    tag_40:\n      mload(0x40)\n      dup1\n      swap2\n      sub\n      swap1\n      return\n        /* \"GitHub/contract-token-cryptoMonster/backend/components/PhasePrivate.sol\":4022:4580  function acceptApplication (address _userAdr) public onlyPrivateProvider {\r... */\n    tag_10:\n      tag_42\n      0x04\n      dup1\n      calldatasize\n      sub\n      dup2\n      add\n      swap1\n      tag_43\n      swap2\n      swap1\n      tag_15\n      jump\t// in\n    tag_43:\n      tag_44\n      jump\t// in\n    tag_42:\n      stop\n        /* \"GitHub/contract-token-cryptoMonster/backend/shared/helpers/helpresFunc.sol\":426:556  function get_whiteList() public onlyOwner onlyPrivateProvider view returns (address[] memory) {\r... */\n    tag_11:\n      tag_45\n      tag_46\n      jump\t// in\n    tag_45:\n      mload(0x40)\n      tag_47\n      swap2\n      swap1\n      tag_23\n      jump\t// in\n    tag_47:\n      mload(0x40)\n      dup1\n      swap2\n      sub\n      swap1\n      return\n        /* \"GitHub/contract-token-cryptoMonster/backend/components/PhasePrivate.sol\":5097:5279  function addBlackList (address _userAdr) public onlyOwner {\r... */\n    tag_16:\n        /* \"GitHub/contract-token-cryptoMonster/backend/shared/helpers/modifireFunc.sol\":319:336  Role.SYSTEM_OWNER */\n      0x00\n        /* \"GitHub/contract-token-cryptoMonster/backend/shared/helpers/modifireFunc.sol\":286:336  structUsers_[msg.sender].role == Role.SYSTEM_OWNER */\n      0x04\n      dup2\n      gt\n      iszero\n      tag_49\n      jumpi\n      tag_50\n      tag_51\n      jump\t// in\n    tag_50:\n    tag_49:\n        /* \"GitHub/contract-token-cryptoMonster/backend/shared/helpers/modifireFunc.sol\":286:298  structUsers_ */\n      0x00\n        /* \"GitHub/contract-token-cryptoMonster/backend/shared/helpers/modifireFunc.sol\":286:310  structUsers_[msg.sender] */\n      dup1\n        /* \"GitHub/contract-token-cryptoMonster/backend/shared/helpers/modifireFunc.sol\":299:309  msg.sender */\n      caller\n        /* \"GitHub/contract-token-cryptoMonster/backend/shared/helpers/modifireFunc.sol\":286:310  structUsers_[msg.sender] */\n      0xffffffffffffffffffffffffffffffffffffffff\n      and\n      0xffffffffffffffffffffffffffffffffffffffff\n      and\n      dup2\n      mstore\n      0x20\n      add\n      swap1\n      dup2\n      mstore\n      0x20\n      add\n      0x00\n      keccak256\n        /* \"GitHub/contract-token-cryptoMonster/backend/shared/helpers/modifireFunc.sol\":286:315  structUsers_[msg.sender].role */\n      0x00\n      add\n      0x00\n      swap1\n      sload\n      swap1\n      0x0100\n      exp\n      swap1\n      div\n      0xff\n      and\n        /* \"GitHub/contract-token-cryptoMonster/backend/shared/helpers/modifireFunc.sol\":286:336  structUsers_[msg.sender].role == Role.SYSTEM_OWNER */\n      0x04\n      dup2\n      gt\n      iszero\n      tag_52\n      jumpi\n      tag_53\n      tag_51\n      jump\t// in\n    tag_53:\n    tag_52:\n      eq\n        /* \"GitHub/contract-token-cryptoMonster/backend/shared/helpers/modifireFunc.sol\":278:355  require(structUsers_[msg.sender].role == Role.SYSTEM_OWNER, \"Your not admin\") */\n      tag_54\n      jumpi\n      mload(0x40)\n      0x08c379a000000000000000000000000000000000000000000000000000000000\n      dup2\n      mstore\n      0x04\n      add\n      tag_55\n      swap1\n      tag_56\n      jump\t// in\n    tag_55:\n      mload(0x40)\n      dup1\n      swap2\n      sub\n      swap1\n      revert\n    tag_54:\n        /* \"GitHub/contract-token-cryptoMonster/backend/components/PhasePrivate.sol\":5166:5175  blackList */\n      0x05\n        /* \"GitHub/contract-token-cryptoMonster/backend/components/PhasePrivate.sol\":5181:5189  _userAdr */\n      dup2\n        /* \"GitHub/contract-token-cryptoMonster/backend/components/PhasePrivate.sol\":5166:5190  blackList.push(_userAdr) */\n      swap1\n      dup1\n      0x01\n      dup2\n      sload\n      add\n      dup1\n      dup3\n      sstore\n      dup1\n      swap2\n      pop\n      pop\n      0x01\n      swap1\n      sub\n      swap1\n      0x00\n      mstore\n      keccak256(0x00, 0x20)\n      add\n      0x00\n      swap1\n      swap2\n      swap1\n      swap2\n      swap1\n      swap2\n      0x0100\n      exp\n      dup2\n      sload\n      dup2\n      0xffffffffffffffffffffffffffffffffffffffff\n      mul\n      not\n      and\n      swap1\n      dup4\n      0xffffffffffffffffffffffffffffffffffffffff\n      and\n      mul\n      or\n      swap1\n      sstore\n      pop\n        /* \"GitHub/contract-token-cryptoMonster/backend/components/PhasePrivate.sol\":5097:5279  function addBlackList (address _userAdr) public onlyOwner {\r... */\n      pop\n      jump\t// out\n        /* \"GitHub/contract-token-cryptoMonster/backend/components/PhasePrivate.sol\":4664:4992  function deviationApplication (address _userAdr) public onlyPrivateProvider {\r... */\n    tag_19:\n        /* \"GitHub/contract-token-cryptoMonster/backend/shared/helpers/modifireFunc.sol\":565:584  Role.SYSTEM_PRIVATE */\n      0x02\n        /* \"GitHub/contract-token-cryptoMonster/backend/shared/helpers/modifireFunc.sol\":532:584  structUsers_[msg.sender].role == Role.SYSTEM_PRIVATE */\n      0x04\n      dup2\n      gt\n      iszero\n      tag_60\n      jumpi\n      tag_61\n      tag_51\n      jump\t// in\n    tag_61:\n    tag_60:\n        /* \"GitHub/contract-token-cryptoMonster/backend/shared/helpers/modifireFunc.sol\":532:544  structUsers_ */\n      0x00\n        /* \"GitHub/contract-token-cryptoMonster/backend/shared/helpers/modifireFunc.sol\":532:556  structUsers_[msg.sender] */\n      dup1\n        /* \"GitHub/contract-token-cryptoMonster/backend/shared/helpers/modifireFunc.sol\":545:555  msg.sender */\n      caller\n        /* \"GitHub/contract-token-cryptoMonster/backend/shared/helpers/modifireFunc.sol\":532:556  structUsers_[msg.sender] */\n      0xffffffffffffffffffffffffffffffffffffffff\n      and\n      0xffffffffffffffffffffffffffffffffffffffff\n      and\n      dup2\n      mstore\n      0x20\n      add\n      swap1\n      dup2\n      mstore\n      0x20\n      add\n      0x00\n      keccak256\n        /* \"GitHub/contract-token-cryptoMonster/backend/shared/helpers/modifireFunc.sol\":532:561  structUsers_[msg.sender].role */\n      0x00\n      add\n      0x00\n      swap1\n      sload\n      swap1\n      0x0100\n      exp\n      swap1\n      div\n      0xff\n      and\n        /* \"GitHub/contract-token-cryptoMonster/backend/shared/helpers/modifireFunc.sol\":532:584  structUsers_[msg.sender].role == Role.SYSTEM_PRIVATE */\n      0x04\n      dup2\n      gt\n      iszero\n      tag_62\n      jumpi\n      tag_63\n      tag_51\n      jump\t// in\n    tag_63:\n    tag_62:\n      eq\n        /* \"GitHub/contract-token-cryptoMonster/backend/shared/helpers/modifireFunc.sol\":524:614  require(structUsers_[msg.sender].role == Role.SYSTEM_PRIVATE, \"Your not Private provider\") */\n      tag_64\n      jumpi\n      mload(0x40)\n      0x08c379a000000000000000000000000000000000000000000000000000000000\n      dup2\n      mstore\n      0x04\n      add\n      tag_65\n      swap1\n      tag_66\n      jump\t// in\n    tag_65:\n      mload(0x40)\n      dup1\n      swap2\n      sub\n      swap1\n      revert\n    tag_64:\n        /* \"GitHub/contract-token-cryptoMonster/backend/components/PhasePrivate.sol\":4802:4807  false */\n      0x00\n        /* \"GitHub/contract-token-cryptoMonster/backend/components/PhasePrivate.sol\":4759:4807  strucApplications_[msg.sender].reviewed == false */\n      iszero\n      iszero\n        /* \"GitHub/contract-token-cryptoMonster/backend/components/PhasePrivate.sol\":4759:4777  strucApplications_ */\n      0x02\n        /* \"GitHub/contract-token-cryptoMonster/backend/components/PhasePrivate.sol\":4759:4789  strucApplications_[msg.sender] */\n      0x00\n        /* \"GitHub/contract-token-cryptoMonster/backend/components/PhasePrivate.sol\":4778:4788  msg.sender */\n      caller\n        /* \"GitHub/contract-token-cryptoMonster/backend/components/PhasePrivate.sol\":4759:4789  strucApplications_[msg.sender] */\n      0xffffffffffffffffffffffffffffffffffffffff\n      and\n      0xffffffffffffffffffffffffffffffffffffffff\n      and\n      dup2\n      mstore\n      0x20\n      add\n      swap1\n      dup2\n      mstore\n      0x20\n      add\n      0x00\n      keccak256\n        /* \"GitHub/contract-token-cryptoMonster/backend/components/PhasePrivate.sol\":4759:4798  strucApplications_[msg.sender].reviewed */\n      0x02\n      add\n      0x15\n      swap1\n      sload\n      swap1\n      0x0100\n      exp\n      swap1\n      div\n      0xff\n      and\n        /* \"GitHub/contract-token-cryptoMonster/backend/components/PhasePrivate.sol\":4759:4807  strucApplications_[msg.sender].reviewed == false */\n      iszero\n      iszero\n      eq\n        /* \"GitHub/contract-token-cryptoMonster/backend/components/PhasePrivate.sol\":4751:4840  require(strucApplications_[msg.sender].reviewed == false, \"Review the application first\") */\n      tag_68\n      jumpi\n      mload(0x40)\n      0x08c379a000000000000000000000000000000000000000000000000000000000\n      dup2\n      mstore\n      0x04\n      add\n      tag_69\n      swap1\n      tag_70\n      jump\t// in\n    tag_69:\n      mload(0x40)\n      dup1\n      swap2\n      sub\n      swap1\n      revert\n    tag_68:\n        /* \"GitHub/contract-token-cryptoMonster/backend/components/PhasePrivate.sol\":4979:4984  false */\n      0x00\n        /* \"GitHub/contract-token-cryptoMonster/backend/components/PhasePrivate.sol\":4941:4959  strucApplications_ */\n      0x02\n        /* \"GitHub/contract-token-cryptoMonster/backend/components/PhasePrivate.sol\":4941:4969  strucApplications_[_userAdr] */\n      0x00\n        /* \"GitHub/contract-token-cryptoMonster/backend/components/PhasePrivate.sol\":4960:4968  _userAdr */\n      dup4\n        /* \"GitHub/contract-token-cryptoMonster/backend/components/PhasePrivate.sol\":4941:4969  strucApplications_[_userAdr] */\n      0xffffffffffffffffffffffffffffffffffffffff\n      and\n      0xffffffffffffffffffffffffffffffffffffffff\n      and\n      dup2\n      mstore\n      0x20\n      add\n      swap1\n      dup2\n      mstore\n      0x20\n      add\n      0x00\n      keccak256\n        /* \"GitHub/contract-token-cryptoMonster/backend/components/PhasePrivate.sol\":4941:4976  strucApplications_[_userAdr].status */\n      0x02\n      add\n      0x14\n        /* \"GitHub/contract-token-cryptoMonster/backend/components/PhasePrivate.sol\":4941:4984  strucApplications_[_userAdr].status = false */\n      0x0100\n      exp\n      dup2\n      sload\n      dup2\n      0xff\n      mul\n      not\n      and\n      swap1\n      dup4\n      iszero\n      iszero\n      mul\n      or\n      swap1\n      sstore\n      pop\n        /* \"GitHub/contract-token-cryptoMonster/backend/components/PhasePrivate.sol\":4664:4992  function deviationApplication (address _userAdr) public onlyPrivateProvider {\r... */\n      pop\n      jump\t// out\n        /* \"GitHub/contract-token-cryptoMonster/backend/components/PhasePrivate.sol\":2256:3446  function getApplicationNotReviewed () public onlyPrivateProvider view returns (address[] memory) {\r... */\n    tag_21:\n        /* \"GitHub/contract-token-cryptoMonster/backend/components/PhasePrivate.sol\":2335:2351  address[] memory */\n      0x60\n        /* \"GitHub/contract-token-cryptoMonster/backend/shared/helpers/modifireFunc.sol\":565:584  Role.SYSTEM_PRIVATE */\n      0x02\n        /* \"GitHub/contract-token-cryptoMonster/backend/shared/helpers/modifireFunc.sol\":532:584  structUsers_[msg.sender].role == Role.SYSTEM_PRIVATE */\n      0x04\n      dup2\n      gt\n      iszero\n      tag_72\n      jumpi\n      tag_73\n      tag_51\n      jump\t// in\n    tag_73:\n    tag_72:\n        /* \"GitHub/contract-token-cryptoMonster/backend/shared/helpers/modifireFunc.sol\":532:544  structUsers_ */\n      0x00\n        /* \"GitHub/contract-token-cryptoMonster/backend/shared/helpers/modifireFunc.sol\":532:556  structUsers_[msg.sender] */\n      dup1\n        /* \"GitHub/contract-token-cryptoMonster/backend/shared/helpers/modifireFunc.sol\":545:555  msg.sender */\n      caller\n        /* \"GitHub/contract-token-cryptoMonster/backend/shared/helpers/modifireFunc.sol\":532:556  structUsers_[msg.sender] */\n      0xffffffffffffffffffffffffffffffffffffffff\n      and\n      0xffffffffffffffffffffffffffffffffffffffff\n      and\n      dup2\n      mstore\n      0x20\n      add\n      swap1\n      dup2\n      mstore\n      0x20\n      add\n      0x00\n      keccak256\n        /* \"GitHub/contract-token-cryptoMonster/backend/shared/helpers/modifireFunc.sol\":532:561  structUsers_[msg.sender].role */\n      0x00\n      add\n      0x00\n      swap1\n      sload\n      swap1\n      0x0100\n      exp\n      swap1\n      div\n      0xff\n      and\n        /* \"GitHub/contract-token-cryptoMonster/backend/shared/helpers/modifireFunc.sol\":532:584  structUsers_[msg.sender].role == Role.SYSTEM_PRIVATE */\n      0x04\n      dup2\n      gt\n      iszero\n      tag_74\n      jumpi\n      tag_75\n      tag_51\n      jump\t// in\n    tag_75:\n    tag_74:\n      eq\n        /* \"GitHub/contract-token-cryptoMonster/backend/shared/helpers/modifireFunc.sol\":524:614  require(structUsers_[msg.sender].role == Role.SYSTEM_PRIVATE, \"Your not Private provider\") */\n      tag_76\n      jumpi\n      mload(0x40)\n      0x08c379a000000000000000000000000000000000000000000000000000000000\n      dup2\n      mstore\n      0x04\n      add\n      tag_77\n      swap1\n      tag_66\n      jump\t// in\n    tag_77:\n      mload(0x40)\n      dup1\n      swap2\n      sub\n      swap1\n      revert\n    tag_76:\n        /* \"GitHub/contract-token-cryptoMonster/backend/components/PhasePrivate.sol\":2364:2395  address[] memory _tempAdrAmount */\n      0x60\n        /* \"GitHub/contract-token-cryptoMonster/backend/components/PhasePrivate.sol\":2412:2418  uint i */\n      0x00\n        /* \"GitHub/contract-token-cryptoMonster/backend/components/PhasePrivate.sol\":2407:3283  for (uint i = 0; i < structApplicationsAmountAdr.length; i++) {\r... */\n    tag_79:\n        /* \"GitHub/contract-token-cryptoMonster/backend/components/PhasePrivate.sol\":2428:2455  structApplicationsAmountAdr */\n      0x03\n        /* \"GitHub/contract-token-cryptoMonster/backend/components/PhasePrivate.sol\":2428:2462  structApplicationsAmountAdr.length */\n      dup1\n      sload\n      swap1\n      pop\n        /* \"GitHub/contract-token-cryptoMonster/backend/components/PhasePrivate.sol\":2424:2425  i */\n      dup2\n        /* \"GitHub/contract-token-cryptoMonster/backend/components/PhasePrivate.sol\":2424:2462  i < structApplicationsAmountAdr.length */\n      lt\n        /* \"GitHub/contract-token-cryptoMonster/backend/components/PhasePrivate.sol\":2407:3283  for (uint i = 0; i < structApplicationsAmountAdr.length; i++) {\r... */\n      iszero\n      tag_80\n      jumpi\n        /* \"GitHub/contract-token-cryptoMonster/backend/components/PhasePrivate.sol\":2484:2494  uint count */\n      0x00\n        /* \"GitHub/contract-token-cryptoMonster/backend/components/PhasePrivate.sol\":2609:2625  address _tempAdr */\n      dup1\n        /* \"GitHub/contract-token-cryptoMonster/backend/components/PhasePrivate.sol\":2628:2655  structApplicationsAmountAdr */\n      0x03\n        /* \"GitHub/contract-token-cryptoMonster/backend/components/PhasePrivate.sol\":2656:2657  i */\n      dup4\n        /* \"GitHub/contract-token-cryptoMonster/backend/components/PhasePrivate.sol\":2628:2658  structApplicationsAmountAdr[i] */\n      dup2\n      sload\n      dup2\n      lt\n      tag_82\n      jumpi\n      tag_83\n      tag_84\n      jump\t// in\n    tag_83:\n    tag_82:\n      swap1\n      0x00\n      mstore\n      keccak256(0x00, 0x20)\n      add\n      0x00\n      swap1\n      sload\n      swap1\n      0x0100\n      exp\n      swap1\n      div\n      0xffffffffffffffffffffffffffffffffffffffff\n      and\n        /* \"GitHub/contract-token-cryptoMonster/backend/components/PhasePrivate.sol\":2609:2658  address _tempAdr = structApplicationsAmountAdr[i] */\n      swap1\n      pop\n        /* \"GitHub/contract-token-cryptoMonster/backend/components/PhasePrivate.sol\":2820:2825  false */\n      0x00\n        /* \"GitHub/contract-token-cryptoMonster/backend/components/PhasePrivate.sol\":2779:2825  strucApplications_[_tempAdr].reviewed == false */\n      iszero\n      iszero\n        /* \"GitHub/contract-token-cryptoMonster/backend/components/PhasePrivate.sol\":2779:2797  strucApplications_ */\n      0x02\n        /* \"GitHub/contract-token-cryptoMonster/backend/components/PhasePrivate.sol\":2779:2807  strucApplications_[_tempAdr] */\n      0x00\n        /* \"GitHub/contract-token-cryptoMonster/backend/components/PhasePrivate.sol\":2798:2806  _tempAdr */\n      dup4\n        /* \"GitHub/contract-token-cryptoMonster/backend/components/PhasePrivate.sol\":2779:2807  strucApplications_[_tempAdr] */\n      0xffffffffffffffffffffffffffffffffffffffff\n      and\n      0xffffffffffffffffffffffffffffffffffffffff\n      and\n      dup2\n      mstore\n      0x20\n      add\n      swap1\n      dup2\n      mstore\n      0x20\n      add\n      0x00\n      keccak256\n        /* \"GitHub/contract-token-cryptoMonster/backend/components/PhasePrivate.sol\":2779:2816  strucApplications_[_tempAdr].reviewed */\n      0x02\n      add\n      0x15\n      swap1\n      sload\n      swap1\n      0x0100\n      exp\n      swap1\n      div\n      0xff\n      and\n        /* \"GitHub/contract-token-cryptoMonster/backend/components/PhasePrivate.sol\":2779:2825  strucApplications_[_tempAdr].reviewed == false */\n      iszero\n      iszero\n      eq\n        /* \"GitHub/contract-token-cryptoMonster/backend/components/PhasePrivate.sol\":2775:3272  if (strucApplications_[_tempAdr].reviewed == false) { // !: проверка того, что заявка ещё не была рассмотрена\r... */\n      iszero\n      tag_86\n      jumpi\n        /* \"GitHub/contract-token-cryptoMonster/backend/components/PhasePrivate.sol\":2967:2975  _tempAdr */\n      dup1\n        /* \"GitHub/contract-token-cryptoMonster/backend/components/PhasePrivate.sol\":2943:2957  _tempAdrAmount */\n      dup5\n        /* \"GitHub/contract-token-cryptoMonster/backend/components/PhasePrivate.sol\":2958:2963  count */\n      dup4\n        /* \"GitHub/contract-token-cryptoMonster/backend/components/PhasePrivate.sol\":2943:2964  _tempAdrAmount[count] */\n      dup2\n      mload\n      dup2\n      lt\n      tag_87\n      jumpi\n      tag_88\n      tag_84\n      jump\t// in\n    tag_88:\n    tag_87:\n      0x20\n      mul\n      0x20\n      add\n      add\n        /* \"GitHub/contract-token-cryptoMonster/backend/components/PhasePrivate.sol\":2943:2975  _tempAdrAmount[count] = _tempAdr */\n      swap1\n      0xffffffffffffffffffffffffffffffffffffffff\n      and\n      swap1\n      dup2\n      0xffffffffffffffffffffffffffffffffffffffff\n      and\n      dup2\n      mstore\n      pop\n      pop\n        /* \"GitHub/contract-token-cryptoMonster/backend/components/PhasePrivate.sol\":3125:3132  count++ */\n      dup2\n      dup1\n      tag_89\n      swap1\n      tag_90\n      jump\t// in\n    tag_89:\n      swap3\n      pop\n      pop\n        /* \"GitHub/contract-token-cryptoMonster/backend/components/PhasePrivate.sol\":2775:3272  if (strucApplications_[_tempAdr].reviewed == false) { // !: проверка того, что заявка ещё не была рассмотрена\r... */\n    tag_86:\n        /* \"GitHub/contract-token-cryptoMonster/backend/components/PhasePrivate.sol\":2469:3283  {\r... */\n      pop\n      pop\n        /* \"GitHub/contract-token-cryptoMonster/backend/components/PhasePrivate.sol\":2464:2467  i++ */\n      dup1\n      dup1\n      tag_91\n      swap1\n      tag_90\n      jump\t// in\n    tag_91:\n      swap2\n      pop\n      pop\n        /* \"GitHub/contract-token-cryptoMonster/backend/components/PhasePrivate.sol\":2407:3283  for (uint i = 0; i < structApplicationsAmountAdr.length; i++) {\r... */\n      jump(tag_79)\n    tag_80:\n      pop\n        /* \"GitHub/contract-token-cryptoMonster/backend/components/PhasePrivate.sol\":3300:3314  _tempAdrAmount */\n      dup1\n        /* \"GitHub/contract-token-cryptoMonster/backend/components/PhasePrivate.sol\":3293:3314  return _tempAdrAmount */\n      swap2\n      pop\n      pop\n        /* \"GitHub/contract-token-cryptoMonster/backend/components/PhasePrivate.sol\":2256:3446  function getApplicationNotReviewed () public onlyPrivateProvider view returns (address[] memory) {\r... */\n      swap1\n      jump\t// out\n        /* \"GitHub/contract-token-cryptoMonster/backend/components/PhasePrivate.sol\":1866:2111  function getApplicationAmountAdr () public onlyPrivateProvider view returns (address[] memory) {\r... */\n    tag_25:\n        /* \"GitHub/contract-token-cryptoMonster/backend/components/PhasePrivate.sol\":1943:1959  address[] memory */\n      0x60\n        /* \"GitHub/contract-token-cryptoMonster/backend/shared/helpers/modifireFunc.sol\":565:584  Role.SYSTEM_PRIVATE */\n      0x02\n        /* \"GitHub/contract-token-cryptoMonster/backend/shared/helpers/modifireFunc.sol\":532:584  structUsers_[msg.sender].role == Role.SYSTEM_PRIVATE */\n      0x04\n      dup2\n      gt\n      iszero\n      tag_93\n      jumpi\n      tag_94\n      tag_51\n      jump\t// in\n    tag_94:\n    tag_93:\n        /* \"GitHub/contract-token-cryptoMonster/backend/shared/helpers/modifireFunc.sol\":532:544  structUsers_ */\n      0x00\n        /* \"GitHub/contract-token-cryptoMonster/backend/shared/helpers/modifireFunc.sol\":532:556  structUsers_[msg.sender] */\n      dup1\n        /* \"GitHub/contract-token-cryptoMonster/backend/shared/helpers/modifireFunc.sol\":545:555  msg.sender */\n      caller\n        /* \"GitHub/contract-token-cryptoMonster/backend/shared/helpers/modifireFunc.sol\":532:556  structUsers_[msg.sender] */\n      0xffffffffffffffffffffffffffffffffffffffff\n      and\n      0xffffffffffffffffffffffffffffffffffffffff\n      and\n      dup2\n      mstore\n      0x20\n      add\n      swap1\n      dup2\n      mstore\n      0x20\n      add\n      0x00\n      keccak256\n        /* \"GitHub/contract-token-cryptoMonster/backend/shared/helpers/modifireFunc.sol\":532:561  structUsers_[msg.sender].role */\n      0x00\n      add\n      0x00\n      swap1\n      sload\n      swap1\n      0x0100\n      exp\n      swap1\n      div\n      0xff\n      and\n        /* \"GitHub/contract-token-cryptoMonster/backend/shared/helpers/modifireFunc.sol\":532:584  structUsers_[msg.sender].role == Role.SYSTEM_PRIVATE */\n      0x04\n      dup2\n      gt\n      iszero\n      tag_95\n      jumpi\n      tag_96\n      tag_51\n      jump\t// in\n    tag_96:\n    tag_95:\n      eq\n        /* \"GitHub/contract-token-cryptoMonster/backend/shared/helpers/modifireFunc.sol\":524:614  require(structUsers_[msg.sender].role == Role.SYSTEM_PRIVATE, \"Your not Private provider\") */\n      tag_97\n      jumpi\n      mload(0x40)\n      0x08c379a000000000000000000000000000000000000000000000000000000000\n      dup2\n      mstore\n      0x04\n      add\n      tag_98\n      swap1\n      tag_66\n      jump\t// in\n    tag_98:\n      mload(0x40)\n      dup1\n      swap2\n      sub\n      swap1\n      revert\n    tag_97:\n        /* \"GitHub/contract-token-cryptoMonster/backend/components/PhasePrivate.sol\":1979:2006  structApplicationsAmountAdr */\n      0x03\n        /* \"GitHub/contract-token-cryptoMonster/backend/components/PhasePrivate.sol\":1972:2006  return structApplicationsAmountAdr */\n      dup1\n      sload\n      dup1\n      0x20\n      mul\n      0x20\n      add\n      mload(0x40)\n      swap1\n      dup2\n      add\n      0x40\n      mstore\n      dup1\n      swap3\n      swap2\n      swap1\n      dup2\n      dup2\n      mstore\n      0x20\n      add\n      dup3\n      dup1\n      sload\n      dup1\n      iszero\n      tag_100\n      jumpi\n      0x20\n      mul\n      dup3\n      add\n      swap2\n      swap1\n      0x00\n      mstore\n      keccak256(0x00, 0x20)\n      swap1\n    tag_101:\n      dup2\n      0x00\n      swap1\n      sload\n      swap1\n      0x0100\n      exp\n      swap1\n      div\n      0xffffffffffffffffffffffffffffffffffffffff\n      and\n      0xffffffffffffffffffffffffffffffffffffffff\n      and\n      dup2\n      mstore\n      0x20\n      add\n      swap1\n      0x01\n      add\n      swap1\n      dup1\n      dup4\n      gt\n      tag_101\n      jumpi\n    tag_100:\n      pop\n      pop\n      pop\n      pop\n      pop\n      swap1\n      pop\n        /* \"GitHub/contract-token-cryptoMonster/backend/components/PhasePrivate.sol\":1866:2111  function getApplicationAmountAdr () public onlyPrivateProvider view returns (address[] memory) {\r... */\n      swap1\n      jump\t// out\n        /* \"GitHub/contract-token-cryptoMonster/backend/components/PhasePrivate.sol\":3567:3946  function viewApplication (address _userAdr) public onlyPrivateProvider returns (structApplication memory) {\r... */\n    tag_29:\n        /* \"GitHub/contract-token-cryptoMonster/backend/components/PhasePrivate.sol\":3647:3671  structApplication memory */\n      tag_102\n      tag_103\n      jump\t// in\n    tag_102:\n        /* \"GitHub/contract-token-cryptoMonster/backend/shared/helpers/modifireFunc.sol\":565:584  Role.SYSTEM_PRIVATE */\n      0x02\n        /* \"GitHub/contract-token-cryptoMonster/backend/shared/helpers/modifireFunc.sol\":532:584  structUsers_[msg.sender].role == Role.SYSTEM_PRIVATE */\n      0x04\n      dup2\n      gt\n      iszero\n      tag_105\n      jumpi\n      tag_106\n      tag_51\n      jump\t// in\n    tag_106:\n    tag_105:\n        /* \"GitHub/contract-token-cryptoMonster/backend/shared/helpers/modifireFunc.sol\":532:544  structUsers_ */\n      0x00\n        /* \"GitHub/contract-token-cryptoMonster/backend/shared/helpers/modifireFunc.sol\":532:556  structUsers_[msg.sender] */\n      dup1\n        /* \"GitHub/contract-token-cryptoMonster/backend/shared/helpers/modifireFunc.sol\":545:555  msg.sender */\n      caller\n        /* \"GitHub/contract-token-cryptoMonster/backend/shared/helpers/modifireFunc.sol\":532:556  structUsers_[msg.sender] */\n      0xffffffffffffffffffffffffffffffffffffffff\n      and\n      0xffffffffffffffffffffffffffffffffffffffff\n      and\n      dup2\n      mstore\n      0x20\n      add\n      swap1\n      dup2\n      mstore\n      0x20\n      add\n      0x00\n      keccak256\n        /* \"GitHub/contract-token-cryptoMonster/backend/shared/helpers/modifireFunc.sol\":532:561  structUsers_[msg.sender].role */\n      0x00\n      add\n      0x00\n      swap1\n      sload\n      swap1\n      0x0100\n      exp\n      swap1\n      div\n      0xff\n      and\n        /* \"GitHub/contract-token-cryptoMonster/backend/shared/helpers/modifireFunc.sol\":532:584  structUsers_[msg.sender].role == Role.SYSTEM_PRIVATE */\n      0x04\n      dup2\n      gt\n      iszero\n      tag_107\n      jumpi\n      tag_108\n      tag_51\n      jump\t// in\n    tag_108:\n    tag_107:\n      eq\n        /* \"GitHub/contract-token-cryptoMonster/backend/shared/helpers/modifireFunc.sol\":524:614  require(structUsers_[msg.sender].role == Role.SYSTEM_PRIVATE, \"Your not Private provider\") */\n      tag_109\n      jumpi\n      mload(0x40)\n      0x08c379a000000000000000000000000000000000000000000000000000000000\n      dup2\n      mstore\n      0x04\n      add\n      tag_110\n      swap1\n      tag_66\n      jump\t// in\n    tag_110:\n      mload(0x40)\n      dup1\n      swap2\n      sub\n      swap1\n      revert\n    tag_109:\n        /* \"GitHub/contract-token-cryptoMonster/backend/components/PhasePrivate.sol\":3724:3728  true */\n      0x01\n        /* \"GitHub/contract-token-cryptoMonster/backend/components/PhasePrivate.sol\":3684:3702  strucApplications_ */\n      0x02\n        /* \"GitHub/contract-token-cryptoMonster/backend/components/PhasePrivate.sol\":3684:3712  strucApplications_[_userAdr] */\n      0x00\n        /* \"GitHub/contract-token-cryptoMonster/backend/components/PhasePrivate.sol\":3703:3711  _userAdr */\n      dup5\n        /* \"GitHub/contract-token-cryptoMonster/backend/components/PhasePrivate.sol\":3684:3712  strucApplications_[_userAdr] */\n      0xffffffffffffffffffffffffffffffffffffffff\n      and\n      0xffffffffffffffffffffffffffffffffffffffff\n      and\n      dup2\n      mstore\n      0x20\n      add\n      swap1\n      dup2\n      mstore\n      0x20\n      add\n      0x00\n      keccak256\n        /* \"GitHub/contract-token-cryptoMonster/backend/components/PhasePrivate.sol\":3684:3721  strucApplications_[_userAdr].reviewed */\n      0x02\n      add\n      0x15\n        /* \"GitHub/contract-token-cryptoMonster/backend/components/PhasePrivate.sol\":3684:3728  strucApplications_[_userAdr].reviewed = true */\n      0x0100\n      exp\n      dup2\n      sload\n      dup2\n      0xff\n      mul\n      not\n      and\n      swap1\n      dup4\n      iszero\n      iszero\n      mul\n      or\n      swap1\n      sstore\n      pop\n        /* \"GitHub/contract-token-cryptoMonster/backend/components/PhasePrivate.sol\":3822:3840  strucApplications_ */\n      0x02\n        /* \"GitHub/contract-token-cryptoMonster/backend/components/PhasePrivate.sol\":3822:3850  strucApplications_[_userAdr] */\n      0x00\n        /* \"GitHub/contract-token-cryptoMonster/backend/components/PhasePrivate.sol\":3841:3849  _userAdr */\n      dup4\n        /* \"GitHub/contract-token-cryptoMonster/backend/components/PhasePrivate.sol\":3822:3850  strucApplications_[_userAdr] */\n      0xffffffffffffffffffffffffffffffffffffffff\n      and\n      0xffffffffffffffffffffffffffffffffffffffff\n      and\n      dup2\n      mstore\n      0x20\n      add\n      swap1\n      dup2\n      mstore\n      0x20\n      add\n      0x00\n      keccak256\n        /* \"GitHub/contract-token-cryptoMonster/backend/components/PhasePrivate.sol\":3815:3850  return strucApplications_[_userAdr] */\n      mload(0x40)\n      dup1\n      0xc0\n      add\n      0x40\n      mstore\n      swap1\n      dup2\n      0x00\n      dup3\n      add\n      dup1\n      sload\n      tag_112\n      swap1\n      tag_113\n      jump\t// in\n    tag_112:\n      dup1\n      0x1f\n      add\n      0x20\n      dup1\n      swap2\n      div\n      mul\n      0x20\n      add\n      mload(0x40)\n      swap1\n      dup2\n      add\n      0x40\n      mstore\n      dup1\n      swap3\n      swap2\n      swap1\n      dup2\n      dup2\n      mstore\n      0x20\n      add\n      dup3\n      dup1\n      sload\n      tag_114\n      swap1\n      tag_113\n      jump\t// in\n    tag_114:\n      dup1\n      iszero\n      tag_115\n      jumpi\n      dup1\n      0x1f\n      lt\n      tag_116\n      jumpi\n      0x0100\n      dup1\n      dup4\n      sload\n      div\n      mul\n      dup4\n      mstore\n      swap2\n      0x20\n      add\n      swap2\n      jump(tag_115)\n    tag_116:\n      dup3\n      add\n      swap2\n      swap1\n      0x00\n      mstore\n      keccak256(0x00, 0x20)\n      swap1\n    tag_117:\n      dup2\n      sload\n      dup2\n      mstore\n      swap1\n      0x01\n      add\n      swap1\n      0x20\n      add\n      dup1\n      dup4\n      gt\n      tag_117\n      jumpi\n      dup3\n      swap1\n      sub\n      0x1f\n      and\n      dup3\n      add\n      swap2\n    tag_115:\n      pop\n      pop\n      pop\n      pop\n      pop\n      dup2\n      mstore\n      0x20\n      add\n      0x01\n      dup3\n      add\n      dup1\n      sload\n      tag_118\n      swap1\n      tag_113\n      jump\t// in\n    tag_118:\n      dup1\n      0x1f\n      add\n      0x20\n      dup1\n      swap2\n      div\n      mul\n      0x20\n      add\n      mload(0x40)\n      swap1\n      dup2\n      add\n      0x40\n      mstore\n      dup1\n      swap3\n      swap2\n      swap1\n      dup2\n      dup2\n      mstore\n      0x20\n      add\n      dup3\n      dup1\n      sload\n      tag_119\n      swap1\n      tag_113\n      jump\t// in\n    tag_119:\n      dup1\n      iszero\n      tag_120\n      jumpi\n      dup1\n      0x1f\n      lt\n      tag_121\n      jumpi\n      0x0100\n      dup1\n      dup4\n      sload\n      div\n      mul\n      dup4\n      mstore\n      swap2\n      0x20\n      add\n      swap2\n      jump(tag_120)\n    tag_121:\n      dup3\n      add\n      swap2\n      swap1\n      0x00\n      mstore\n      keccak256(0x00, 0x20)\n      swap1\n    tag_122:\n      dup2\n      sload\n      dup2\n      mstore\n      swap1\n      0x01\n      add\n      swap1\n      0x20\n      add\n      dup1\n      dup4\n      gt\n      tag_122\n      jumpi\n      dup3\n      swap1\n      sub\n      0x1f\n      and\n      dup3\n      add\n      swap2\n    tag_120:\n      pop\n      pop\n      pop\n      pop\n      pop\n      dup2\n      mstore\n      0x20\n      add\n      0x02\n      dup3\n      add\n      0x00\n      swap1\n      sload\n      swap1\n      0x0100\n      exp\n      swap1\n      div\n      0xffffffffffffffffffffffffffffffffffffffff\n      and\n      0xffffffffffffffffffffffffffffffffffffffff\n      and\n      0xffffffffffffffffffffffffffffffffffffffff\n      and\n      dup2\n      mstore\n      0x20\n      add\n      0x02\n      dup3\n      add\n      0x14\n      swap1\n      sload\n      swap1\n      0x0100\n      exp\n      swap1\n      div\n      0xff\n      and\n      iszero\n      iszero\n      iszero\n      iszero\n      dup2\n      mstore\n      0x20\n      add\n      0x02\n      dup3\n      add\n      0x15\n      swap1\n      sload\n      swap1\n      0x0100\n      exp\n      swap1\n      div\n      0xff\n      and\n      iszero\n      iszero\n      iszero\n      iszero\n      dup2\n      mstore\n      0x20\n      add\n      0x02\n      dup3\n      add\n      0x16\n      swap1\n      sload\n      swap1\n      0x0100\n      exp\n      swap1\n      div\n      0xff\n      and\n      iszero\n      iszero\n      iszero\n      iszero\n      dup2\n      mstore\n      pop\n      pop\n      swap1\n      pop\n        /* \"GitHub/contract-token-cryptoMonster/backend/components/PhasePrivate.sol\":3567:3946  function viewApplication (address _userAdr) public onlyPrivateProvider returns (structApplication memory) {\r... */\n      swap2\n      swap1\n      pop\n      jump\t// out\n        /* \"GitHub/contract-token-cryptoMonster/backend/components/PhasePrivate.sol\":297:1752  function application(string memory _name, string memory _contactForCommunication, address _userAdr) public {\r... */\n    tag_35:\n        /* \"GitHub/contract-token-cryptoMonster/backend/components/PhasePrivate.sol\":415:430  bool _tempExist */\n      0x00\n        /* \"GitHub/contract-token-cryptoMonster/backend/components/PhasePrivate.sol\":530:535  false */\n      dup1\n        /* \"GitHub/contract-token-cryptoMonster/backend/components/PhasePrivate.sol\":457:535  structPhases_[0xAb8483F64d9C6d1EcF9b849Ae677dD3315835cb2].statusPhase == false */\n      iszero\n      iszero\n        /* \"GitHub/contract-token-cryptoMonster/backend/components/PhasePrivate.sol\":457:470  structPhases_ */\n      0x01\n        /* \"GitHub/contract-token-cryptoMonster/backend/components/PhasePrivate.sol\":457:514  structPhases_[0xAb8483F64d9C6d1EcF9b849Ae677dD3315835cb2] */\n      0x00\n        /* \"GitHub/contract-token-cryptoMonster/backend/components/PhasePrivate.sol\":471:513  0xAb8483F64d9C6d1EcF9b849Ae677dD3315835cb2 */\n      0xab8483f64d9c6d1ecf9b849ae677dd3315835cb2\n        /* \"GitHub/contract-token-cryptoMonster/backend/components/PhasePrivate.sol\":457:514  structPhases_[0xAb8483F64d9C6d1EcF9b849Ae677dD3315835cb2] */\n      0xffffffffffffffffffffffffffffffffffffffff\n      and\n      0xffffffffffffffffffffffffffffffffffffffff\n      and\n      dup2\n      mstore\n      0x20\n      add\n      swap1\n      dup2\n      mstore\n      0x20\n      add\n      0x00\n      keccak256\n        /* \"GitHub/contract-token-cryptoMonster/backend/components/PhasePrivate.sol\":457:526  structPhases_[0xAb8483F64d9C6d1EcF9b849Ae677dD3315835cb2].statusPhase */\n      0x00\n      add\n      0x00\n      swap1\n      sload\n      swap1\n      0x0100\n      exp\n      swap1\n      div\n      0xff\n      and\n        /* \"GitHub/contract-token-cryptoMonster/backend/components/PhasePrivate.sol\":457:535  structPhases_[0xAb8483F64d9C6d1EcF9b849Ae677dD3315835cb2].statusPhase == false */\n      iszero\n      iszero\n      eq\n        /* \"GitHub/contract-token-cryptoMonster/backend/components/PhasePrivate.sol\":457:617  structPhases_[0xAb8483F64d9C6d1EcF9b849Ae677dD3315835cb2].statusPhase == false && structPhases_[0xAb8483F64d9C6d1EcF9b849Ae677dD3315835cb2].statusPhase == false */\n      dup1\n      iszero\n      tag_124\n      jumpi\n      pop\n        /* \"GitHub/contract-token-cryptoMonster/backend/components/PhasePrivate.sol\":612:617  false */\n      0x00\n        /* \"GitHub/contract-token-cryptoMonster/backend/components/PhasePrivate.sol\":539:617  structPhases_[0xAb8483F64d9C6d1EcF9b849Ae677dD3315835cb2].statusPhase == false */\n      iszero\n      iszero\n        /* \"GitHub/contract-token-cryptoMonster/backend/components/PhasePrivate.sol\":539:552  structPhases_ */\n      0x01\n        /* \"GitHub/contract-token-cryptoMonster/backend/components/PhasePrivate.sol\":539:596  structPhases_[0xAb8483F64d9C6d1EcF9b849Ae677dD3315835cb2] */\n      0x00\n        /* \"GitHub/contract-token-cryptoMonster/backend/components/PhasePrivate.sol\":553:595  0xAb8483F64d9C6d1EcF9b849Ae677dD3315835cb2 */\n      0xab8483f64d9c6d1ecf9b849ae677dd3315835cb2\n        /* \"GitHub/contract-token-cryptoMonster/backend/components/PhasePrivate.sol\":539:596  structPhases_[0xAb8483F64d9C6d1EcF9b849Ae677dD3315835cb2] */\n      0xffffffffffffffffffffffffffffffffffffffff\n      and\n      0xffffffffffffffffffffffffffffffffffffffff\n      and\n      dup2\n      mstore\n      0x20\n      add\n      swap1\n      dup2\n      mstore\n      0x20\n      add\n      0x00\n      keccak256\n        /* \"GitHub/contract-token-cryptoMonster/backend/components/PhasePrivate.sol\":539:608  structPhases_[0xAb8483F64d9C6d1EcF9b849Ae677dD3315835cb2].statusPhase */\n      0x00\n      add\n      0x00\n      swap1\n      sload\n      swap1\n      0x0100\n      exp\n      swap1\n      div\n      0xff\n      and\n        /* \"GitHub/contract-token-cryptoMonster/backend/components/PhasePrivate.sol\":539:617  structPhases_[0xAb8483F64d9C6d1EcF9b849Ae677dD3315835cb2].statusPhase == false */\n      iszero\n      iszero\n      eq\n        /* \"GitHub/contract-token-cryptoMonster/backend/components/PhasePrivate.sol\":457:617  structPhases_[0xAb8483F64d9C6d1EcF9b849Ae677dD3315835cb2].statusPhase == false && structPhases_[0xAb8483F64d9C6d1EcF9b849Ae677dD3315835cb2].statusPhase == false */\n    tag_124:\n        /* \"GitHub/contract-token-cryptoMonster/backend/components/PhasePrivate.sol\":449:645  require(structPhases_[0xAb8483F64d9C6d1EcF9b849Ae677dD3315835cb2].statusPhase == false && structPhases_[0xAb8483F64d9C6d1EcF9b849Ae677dD3315835cb2].statusPhase == false, \"Application phase ended\") */\n      tag_125\n      jumpi\n      mload(0x40)\n      0x08c379a000000000000000000000000000000000000000000000000000000000\n      dup2\n      mstore\n      0x04\n      add\n      tag_126\n      swap1\n      tag_127\n      jump\t// in\n    tag_126:\n      mload(0x40)\n      dup1\n      swap2\n      sub\n      swap1\n      revert\n    tag_125:\n        /* \"GitHub/contract-token-cryptoMonster/backend/components/PhasePrivate.sol\":783:791  _userAdr */\n      dup2\n        /* \"GitHub/contract-token-cryptoMonster/backend/components/PhasePrivate.sol\":769:791  msg.sender == _userAdr */\n      0xffffffffffffffffffffffffffffffffffffffff\n      and\n        /* \"GitHub/contract-token-cryptoMonster/backend/components/PhasePrivate.sol\":769:779  msg.sender */\n      caller\n        /* \"GitHub/contract-token-cryptoMonster/backend/components/PhasePrivate.sol\":769:791  msg.sender == _userAdr */\n      0xffffffffffffffffffffffffffffffffffffffff\n      and\n      eq\n        /* \"GitHub/contract-token-cryptoMonster/backend/components/PhasePrivate.sol\":761:851  require(msg.sender == _userAdr, \"You can't send an application to someone else's address\") */\n      tag_128\n      jumpi\n      mload(0x40)\n      0x08c379a000000000000000000000000000000000000000000000000000000000\n      dup2\n      mstore\n      0x04\n      add\n      tag_129\n      swap1\n      tag_130\n      jump\t// in\n    tag_129:\n      mload(0x40)\n      dup1\n      swap2\n      sub\n      swap1\n      revert\n    tag_128:\n        /* \"GitHub/contract-token-cryptoMonster/backend/components/PhasePrivate.sol\":867:873  uint i */\n      0x00\n        /* \"GitHub/contract-token-cryptoMonster/backend/components/PhasePrivate.sol\":862:1191  for (uint i = 0; i < structApplicationsAmountAdr.length; i++) {\r... */\n    tag_131:\n        /* \"GitHub/contract-token-cryptoMonster/backend/components/PhasePrivate.sol\":883:910  structApplicationsAmountAdr */\n      0x03\n        /* \"GitHub/contract-token-cryptoMonster/backend/components/PhasePrivate.sol\":883:917  structApplicationsAmountAdr.length */\n      dup1\n      sload\n      swap1\n      pop\n        /* \"GitHub/contract-token-cryptoMonster/backend/components/PhasePrivate.sol\":879:880  i */\n      dup2\n        /* \"GitHub/contract-token-cryptoMonster/backend/components/PhasePrivate.sol\":879:917  i < structApplicationsAmountAdr.length */\n      lt\n        /* \"GitHub/contract-token-cryptoMonster/backend/components/PhasePrivate.sol\":862:1191  for (uint i = 0; i < structApplicationsAmountAdr.length; i++) {\r... */\n      iszero\n      tag_132\n      jumpi\n        /* \"GitHub/contract-token-cryptoMonster/backend/components/PhasePrivate.sol\":977:987  msg.sender */\n      caller\n        /* \"GitHub/contract-token-cryptoMonster/backend/components/PhasePrivate.sol\":943:987  structApplicationsAmountAdr[i] == msg.sender */\n      0xffffffffffffffffffffffffffffffffffffffff\n      and\n        /* \"GitHub/contract-token-cryptoMonster/backend/components/PhasePrivate.sol\":943:970  structApplicationsAmountAdr */\n      0x03\n        /* \"GitHub/contract-token-cryptoMonster/backend/components/PhasePrivate.sol\":971:972  i */\n      dup3\n        /* \"GitHub/contract-token-cryptoMonster/backend/components/PhasePrivate.sol\":943:973  structApplicationsAmountAdr[i] */\n      dup2\n      sload\n      dup2\n      lt\n      tag_134\n      jumpi\n      tag_135\n      tag_84\n      jump\t// in\n    tag_135:\n    tag_134:\n      swap1\n      0x00\n      mstore\n      keccak256(0x00, 0x20)\n      add\n      0x00\n      swap1\n      sload\n      swap1\n      0x0100\n      exp\n      swap1\n      div\n      0xffffffffffffffffffffffffffffffffffffffff\n      and\n        /* \"GitHub/contract-token-cryptoMonster/backend/components/PhasePrivate.sol\":943:987  structApplicationsAmountAdr[i] == msg.sender */\n      0xffffffffffffffffffffffffffffffffffffffff\n      and\n      eq\n        /* \"GitHub/contract-token-cryptoMonster/backend/components/PhasePrivate.sol\":939:1041  if (structApplicationsAmountAdr[i] == msg.sender) {\r... */\n      iszero\n      tag_137\n      jumpi\n        /* \"GitHub/contract-token-cryptoMonster/backend/components/PhasePrivate.sol\":1021:1025  true */\n      0x01\n        /* \"GitHub/contract-token-cryptoMonster/backend/components/PhasePrivate.sol\":1008:1025  _tempExist = true */\n      swap2\n      pop\n        /* \"GitHub/contract-token-cryptoMonster/backend/components/PhasePrivate.sol\":939:1041  if (structApplicationsAmountAdr[i] == msg.sender) {\r... */\n    tag_137:\n        /* \"GitHub/contract-token-cryptoMonster/backend/components/PhasePrivate.sol\":1077:1082  false */\n      0x00\n        /* \"GitHub/contract-token-cryptoMonster/backend/components/PhasePrivate.sol\":1063:1082  _tempExist == false */\n      iszero\n      iszero\n        /* \"GitHub/contract-token-cryptoMonster/backend/components/PhasePrivate.sol\":1063:1073  _tempExist */\n      dup3\n        /* \"GitHub/contract-token-cryptoMonster/backend/components/PhasePrivate.sol\":1063:1082  _tempExist == false */\n      iszero\n      iszero\n      eq\n        /* \"GitHub/contract-token-cryptoMonster/backend/components/PhasePrivate.sol\":1055:1111  require(_tempExist == false, \"Application already sent\") */\n      tag_138\n      jumpi\n      mload(0x40)\n      0x08c379a000000000000000000000000000000000000000000000000000000000\n      dup2\n      mstore\n      0x04\n      add\n      tag_139\n      swap1\n      tag_140\n      jump\t// in\n    tag_139:\n      mload(0x40)\n      dup1\n      swap2\n      sub\n      swap1\n      revert\n    tag_138:\n        /* \"GitHub/contract-token-cryptoMonster/backend/components/PhasePrivate.sol\":919:922  i++ */\n      dup1\n      dup1\n      tag_141\n      swap1\n      tag_90\n      jump\t// in\n    tag_141:\n      swap2\n      pop\n      pop\n        /* \"GitHub/contract-token-cryptoMonster/backend/components/PhasePrivate.sol\":862:1191  for (uint i = 0; i < structApplicationsAmountAdr.length; i++) {\r... */\n      jump(tag_131)\n    tag_132:\n      pop\n        /* \"GitHub/contract-token-cryptoMonster/backend/components/PhasePrivate.sol\":1250:1255  false */\n      0x00\n        /* \"GitHub/contract-token-cryptoMonster/backend/components/PhasePrivate.sol\":1209:1255  strucApplications_[msg.sender].status == false */\n      iszero\n      iszero\n        /* \"GitHub/contract-token-cryptoMonster/backend/components/PhasePrivate.sol\":1209:1227  strucApplications_ */\n      0x02\n        /* \"GitHub/contract-token-cryptoMonster/backend/components/PhasePrivate.sol\":1209:1239  strucApplications_[msg.sender] */\n      0x00\n        /* \"GitHub/contract-token-cryptoMonster/backend/components/PhasePrivate.sol\":1228:1238  msg.sender */\n      caller\n        /* \"GitHub/contract-token-cryptoMonster/backend/components/PhasePrivate.sol\":1209:1239  strucApplications_[msg.sender] */\n      0xffffffffffffffffffffffffffffffffffffffff\n      and\n      0xffffffffffffffffffffffffffffffffffffffff\n      and\n      dup2\n      mstore\n      0x20\n      add\n      swap1\n      dup2\n      mstore\n      0x20\n      add\n      0x00\n      keccak256\n        /* \"GitHub/contract-token-cryptoMonster/backend/components/PhasePrivate.sol\":1209:1246  strucApplications_[msg.sender].status */\n      0x02\n      add\n      0x14\n      swap1\n      sload\n      swap1\n      0x0100\n      exp\n      swap1\n      div\n      0xff\n      and\n        /* \"GitHub/contract-token-cryptoMonster/backend/components/PhasePrivate.sol\":1209:1255  strucApplications_[msg.sender].status == false */\n      iszero\n      iszero\n      eq\n        /* \"GitHub/contract-token-cryptoMonster/backend/components/PhasePrivate.sol\":1201:1302  require(strucApplications_[msg.sender].status == false, \"Your application has already been rejected\") */\n      tag_142\n      jumpi\n      mload(0x40)\n      0x08c379a000000000000000000000000000000000000000000000000000000000\n      dup2\n      mstore\n      0x04\n      add\n      tag_143\n      swap1\n      tag_144\n      jump\t// in\n    tag_143:\n      mload(0x40)\n      dup1\n      swap2\n      sub\n      swap1\n      revert\n    tag_142:\n        /* \"GitHub/contract-token-cryptoMonster/backend/components/PhasePrivate.sol\":1419:1498  structApplication(_name, _contactForCommunication, _userAdr, true, false, true) */\n      mload(0x40)\n      dup1\n      0xc0\n      add\n      0x40\n      mstore\n      dup1\n        /* \"GitHub/contract-token-cryptoMonster/backend/components/PhasePrivate.sol\":1437:1442  _name */\n      dup6\n        /* \"GitHub/contract-token-cryptoMonster/backend/components/PhasePrivate.sol\":1419:1498  structApplication(_name, _contactForCommunication, _userAdr, true, false, true) */\n      dup2\n      mstore\n      0x20\n      add\n        /* \"GitHub/contract-token-cryptoMonster/backend/components/PhasePrivate.sol\":1444:1468  _contactForCommunication */\n      dup5\n        /* \"GitHub/contract-token-cryptoMonster/backend/components/PhasePrivate.sol\":1419:1498  structApplication(_name, _contactForCommunication, _userAdr, true, false, true) */\n      dup2\n      mstore\n      0x20\n      add\n        /* \"GitHub/contract-token-cryptoMonster/backend/components/PhasePrivate.sol\":1470:1478  _userAdr */\n      dup4\n        /* \"GitHub/contract-token-cryptoMonster/backend/components/PhasePrivate.sol\":1419:1498  structApplication(_name, _contactForCommunication, _userAdr, true, false, true) */\n      0xffffffffffffffffffffffffffffffffffffffff\n      and\n      dup2\n      mstore\n      0x20\n      add\n        /* \"GitHub/contract-token-cryptoMonster/backend/components/PhasePrivate.sol\":1480:1484  true */\n      0x01\n        /* \"GitHub/contract-token-cryptoMonster/backend/components/PhasePrivate.sol\":1419:1498  structApplication(_name, _contactForCommunication, _userAdr, true, false, true) */\n      iszero\n      iszero\n      dup2\n      mstore\n      0x20\n      add\n        /* \"GitHub/contract-token-cryptoMonster/backend/components/PhasePrivate.sol\":1486:1491  false */\n      0x00\n        /* \"GitHub/contract-token-cryptoMonster/backend/components/PhasePrivate.sol\":1419:1498  structApplication(_name, _contactForCommunication, _userAdr, true, false, true) */\n      iszero\n      iszero\n      dup2\n      mstore\n      0x20\n      add\n        /* \"GitHub/contract-token-cryptoMonster/backend/components/PhasePrivate.sol\":1493:1497  true */\n      0x01\n        /* \"GitHub/contract-token-cryptoMonster/backend/components/PhasePrivate.sol\":1419:1498  structApplication(_name, _contactForCommunication, _userAdr, true, false, true) */\n      iszero\n      iszero\n      dup2\n      mstore\n      pop\n        /* \"GitHub/contract-token-cryptoMonster/backend/components/PhasePrivate.sol\":1385:1403  strucApplications_ */\n      0x02\n        /* \"GitHub/contract-token-cryptoMonster/backend/components/PhasePrivate.sol\":1385:1415  strucApplications_[msg.sender] */\n      0x00\n        /* \"GitHub/contract-token-cryptoMonster/backend/components/PhasePrivate.sol\":1404:1414  msg.sender */\n      caller\n        /* \"GitHub/contract-token-cryptoMonster/backend/components/PhasePrivate.sol\":1385:1415  strucApplications_[msg.sender] */\n      0xffffffffffffffffffffffffffffffffffffffff\n      and\n      0xffffffffffffffffffffffffffffffffffffffff\n      and\n      dup2\n      mstore\n      0x20\n      add\n      swap1\n      dup2\n      mstore\n      0x20\n      add\n      0x00\n      keccak256\n        /* \"GitHub/contract-token-cryptoMonster/backend/components/PhasePrivate.sol\":1385:1498  strucApplications_[msg.sender]  = structApplication(_name, _contactForCommunication, _userAdr, true, false, true) */\n      0x00\n      dup3\n      add\n      mload\n      dup2\n      0x00\n      add\n      swap1\n      dup1\n      mload\n      swap1\n      0x20\n      add\n      swap1\n      tag_145\n      swap3\n      swap2\n      swap1\n      tag_146\n      jump\t// in\n    tag_145:\n      pop\n      0x20\n      dup3\n      add\n      mload\n      dup2\n      0x01\n      add\n      swap1\n      dup1\n      mload\n      swap1\n      0x20\n      add\n      swap1\n      tag_147\n      swap3\n      swap2\n      swap1\n      tag_146\n      jump\t// in\n    tag_147:\n      pop\n      0x40\n      dup3\n      add\n      mload\n      dup2\n      0x02\n      add\n      exp(0x0100, 0x00)\n      dup2\n      sload\n      dup2\n      0xffffffffffffffffffffffffffffffffffffffff\n      mul\n      not\n      and\n      swap1\n      dup4\n      0xffffffffffffffffffffffffffffffffffffffff\n      and\n      mul\n      or\n      swap1\n      sstore\n      pop\n      0x60\n      dup3\n      add\n      mload\n      dup2\n      0x02\n      add\n      exp(0x0100, 0x14)\n      dup2\n      sload\n      dup2\n      0xff\n      mul\n      not\n      and\n      swap1\n      dup4\n      iszero\n      iszero\n      mul\n      or\n      swap1\n      sstore\n      pop\n      0x80\n      dup3\n      add\n      mload\n      dup2\n      0x02\n      add\n      exp(0x0100, 0x15)\n      dup2\n      sload\n      dup2\n      0xff\n      mul\n      not\n      and\n      swap1\n      dup4\n      iszero\n      iszero\n      mul\n      or\n      swap1\n      sstore\n      pop\n      0xa0\n      dup3\n      add\n      mload\n      dup2\n      0x02\n      add\n      exp(0x0100, 0x16)\n      dup2\n      sload\n      dup2\n      0xff\n      mul\n      not\n      and\n      swap1\n      dup4\n      iszero\n      iszero\n      mul\n      or\n      swap1\n      sstore\n      pop\n      swap1\n      pop\n      pop\n        /* \"GitHub/contract-token-cryptoMonster/backend/components/PhasePrivate.sol\":1567:1594  structApplicationsAmountAdr */\n      0x03\n        /* \"GitHub/contract-token-cryptoMonster/backend/components/PhasePrivate.sol\":1600:1610  msg.sender */\n      caller\n        /* \"GitHub/contract-token-cryptoMonster/backend/components/PhasePrivate.sol\":1567:1611  structApplicationsAmountAdr.push(msg.sender) */\n      swap1\n      dup1\n      0x01\n      dup2\n      sload\n      add\n      dup1\n      dup3\n      sstore\n      dup1\n      swap2\n      pop\n      pop\n      0x01\n      swap1\n      sub\n      swap1\n      0x00\n      mstore\n      keccak256(0x00, 0x20)\n      add\n      0x00\n      swap1\n      swap2\n      swap1\n      swap2\n      swap1\n      swap2\n      0x0100\n      exp\n      dup2\n      sload\n      dup2\n      0xffffffffffffffffffffffffffffffffffffffff\n      mul\n      not\n      and\n      swap1\n      dup4\n      0xffffffffffffffffffffffffffffffffffffffff\n      and\n      mul\n      or\n      swap1\n      sstore\n      pop\n        /* \"GitHub/contract-token-cryptoMonster/backend/components/PhasePrivate.sol\":404:1752  {\r... */\n      pop\n        /* \"GitHub/contract-token-cryptoMonster/backend/components/PhasePrivate.sol\":297:1752  function application(string memory _name, string memory _contactForCommunication, address _userAdr) public {\r... */\n      pop\n      pop\n      pop\n      jump\t// out\n        /* \"GitHub/contract-token-cryptoMonster/backend/shared/helpers/helpresFunc.sol\":212:350  function get_keccak256(string memory _hash) public pure returns(bytes32) {\r... */\n    tag_39:\n        /* \"GitHub/contract-token-cryptoMonster/backend/shared/helpers/helpresFunc.sol\":276:283  bytes32 */\n      0x00\n        /* \"GitHub/contract-token-cryptoMonster/backend/shared/helpers/helpresFunc.sol\":334:339  _hash */\n      dup2\n        /* \"GitHub/contract-token-cryptoMonster/backend/shared/helpers/helpresFunc.sol\":317:340  abi.encodePacked(_hash) */\n      add(0x20, mload(0x40))\n      tag_150\n      swap2\n      swap1\n      tag_151\n      jump\t// in\n    tag_150:\n      mload(0x40)\n      0x20\n      dup2\n      dup4\n      sub\n      sub\n      dup2\n      mstore\n      swap1\n      0x40\n      mstore\n        /* \"GitHub/contract-token-cryptoMonster/backend/shared/helpers/helpresFunc.sol\":307:341  keccak256(abi.encodePacked(_hash)) */\n      dup1\n      mload\n      swap1\n      0x20\n      add\n      keccak256\n        /* \"GitHub/contract-token-cryptoMonster/backend/shared/helpers/helpresFunc.sol\":300:342  return(keccak256(abi.encodePacked(_hash))) */\n      swap1\n      pop\n        /* \"GitHub/contract-token-cryptoMonster/backend/shared/helpers/helpresFunc.sol\":212:350  function get_keccak256(string memory _hash) public pure returns(bytes32) {\r... */\n      swap2\n      swap1\n      pop\n      jump\t// out\n        /* \"GitHub/contract-token-cryptoMonster/backend/components/PhasePrivate.sol\":4022:4580  function acceptApplication (address _userAdr) public onlyPrivateProvider {\r... */\n    tag_44:\n        /* \"GitHub/contract-token-cryptoMonster/backend/shared/helpers/modifireFunc.sol\":565:584  Role.SYSTEM_PRIVATE */\n      0x02\n        /* \"GitHub/contract-token-cryptoMonster/backend/shared/helpers/modifireFunc.sol\":532:584  structUsers_[msg.sender].role == Role.SYSTEM_PRIVATE */\n      0x04\n      dup2\n      gt\n      iszero\n      tag_153\n      jumpi\n      tag_154\n      tag_51\n      jump\t// in\n    tag_154:\n    tag_153:\n        /* \"GitHub/contract-token-cryptoMonster/backend/shared/helpers/modifireFunc.sol\":532:544  structUsers_ */\n      0x00\n        /* \"GitHub/contract-token-cryptoMonster/backend/shared/helpers/modifireFunc.sol\":532:556  structUsers_[msg.sender] */\n      dup1\n        /* \"GitHub/contract-token-cryptoMonster/backend/shared/helpers/modifireFunc.sol\":545:555  msg.sender */\n      caller\n        /* \"GitHub/contract-token-cryptoMonster/backend/shared/helpers/modifireFunc.sol\":532:556  structUsers_[msg.sender] */\n      0xffffffffffffffffffffffffffffffffffffffff\n      and\n      0xffffffffffffffffffffffffffffffffffffffff\n      and\n      dup2\n      mstore\n      0x20\n      add\n      swap1\n      dup2\n      mstore\n      0x20\n      add\n      0x00\n      keccak256\n        /* \"GitHub/contract-token-cryptoMonster/backend/shared/helpers/modifireFunc.sol\":532:561  structUsers_[msg.sender].role */\n      0x00\n      add\n      0x00\n      swap1\n      sload\n      swap1\n      0x0100\n      exp\n      swap1\n      div\n      0xff\n      and\n        /* \"GitHub/contract-token-cryptoMonster/backend/shared/helpers/modifireFunc.sol\":532:584  structUsers_[msg.sender].role == Role.SYSTEM_PRIVATE */\n      0x04\n      dup2\n      gt\n      iszero\n      tag_155\n      jumpi\n      tag_156\n      tag_51\n      jump\t// in\n    tag_156:\n    tag_155:\n      eq\n        /* \"GitHub/contract-token-cryptoMonster/backend/shared/helpers/modifireFunc.sol\":524:614  require(structUsers_[msg.sender].role == Role.SYSTEM_PRIVATE, \"Your not Private provider\") */\n      tag_157\n      jumpi\n      mload(0x40)\n      0x08c379a000000000000000000000000000000000000000000000000000000000\n      dup2\n      mstore\n      0x04\n      add\n      tag_158\n      swap1\n      tag_66\n      jump\t// in\n    tag_158:\n      mload(0x40)\n      dup1\n      swap2\n      sub\n      swap1\n      revert\n    tag_157:\n        /* \"GitHub/contract-token-cryptoMonster/backend/components/PhasePrivate.sol\":4157:4162  false */\n      0x00\n        /* \"GitHub/contract-token-cryptoMonster/backend/components/PhasePrivate.sol\":4114:4162  strucApplications_[msg.sender].reviewed == false */\n      iszero\n      iszero\n        /* \"GitHub/contract-token-cryptoMonster/backend/components/PhasePrivate.sol\":4114:4132  strucApplications_ */\n      0x02\n        /* \"GitHub/contract-token-cryptoMonster/backend/components/PhasePrivate.sol\":4114:4144  strucApplications_[msg.sender] */\n      0x00\n        /* \"GitHub/contract-token-cryptoMonster/backend/components/PhasePrivate.sol\":4133:4143  msg.sender */\n      caller\n        /* \"GitHub/contract-token-cryptoMonster/backend/components/PhasePrivate.sol\":4114:4144  strucApplications_[msg.sender] */\n      0xffffffffffffffffffffffffffffffffffffffff\n      and\n      0xffffffffffffffffffffffffffffffffffffffff\n      and\n      dup2\n      mstore\n      0x20\n      add\n      swap1\n      dup2\n      mstore\n      0x20\n      add\n      0x00\n      keccak256\n        /* \"GitHub/contract-token-cryptoMonster/backend/components/PhasePrivate.sol\":4114:4153  strucApplications_[msg.sender].reviewed */\n      0x02\n      add\n      0x15\n      swap1\n      sload\n      swap1\n      0x0100\n      exp\n      swap1\n      div\n      0xff\n      and\n        /* \"GitHub/contract-token-cryptoMonster/backend/components/PhasePrivate.sol\":4114:4162  strucApplications_[msg.sender].reviewed == false */\n      iszero\n      iszero\n      eq\n        /* \"GitHub/contract-token-cryptoMonster/backend/components/PhasePrivate.sol\":4106:4195  require(strucApplications_[msg.sender].reviewed == false, \"Review the application first\") */\n      tag_160\n      jumpi\n      mload(0x40)\n      0x08c379a000000000000000000000000000000000000000000000000000000000\n      dup2\n      mstore\n      0x04\n      add\n      tag_161\n      swap1\n      tag_70\n      jump\t// in\n    tag_161:\n      mload(0x40)\n      dup1\n      swap2\n      sub\n      swap1\n      revert\n    tag_160:\n        /* \"GitHub/contract-token-cryptoMonster/backend/components/PhasePrivate.sol\":4334:4339  false */\n      0x00\n        /* \"GitHub/contract-token-cryptoMonster/backend/components/PhasePrivate.sol\":4296:4314  strucApplications_ */\n      0x02\n        /* \"GitHub/contract-token-cryptoMonster/backend/components/PhasePrivate.sol\":4296:4324  strucApplications_[_userAdr] */\n      0x00\n        /* \"GitHub/contract-token-cryptoMonster/backend/components/PhasePrivate.sol\":4315:4323  _userAdr */\n      dup4\n        /* \"GitHub/contract-token-cryptoMonster/backend/components/PhasePrivate.sol\":4296:4324  strucApplications_[_userAdr] */\n      0xffffffffffffffffffffffffffffffffffffffff\n      and\n      0xffffffffffffffffffffffffffffffffffffffff\n      and\n      dup2\n      mstore\n      0x20\n      add\n      swap1\n      dup2\n      mstore\n      0x20\n      add\n      0x00\n      keccak256\n        /* \"GitHub/contract-token-cryptoMonster/backend/components/PhasePrivate.sol\":4296:4331  strucApplications_[_userAdr].status */\n      0x02\n      add\n      0x14\n        /* \"GitHub/contract-token-cryptoMonster/backend/components/PhasePrivate.sol\":4296:4339  strucApplications_[_userAdr].status = false */\n      0x0100\n      exp\n      dup2\n      sload\n      dup2\n      0xff\n      mul\n      not\n      and\n      swap1\n      dup4\n      iszero\n      iszero\n      mul\n      or\n      swap1\n      sstore\n      pop\n        /* \"GitHub/contract-token-cryptoMonster/backend/components/PhasePrivate.sol\":4403:4430  structApplicationsAmountAdr */\n      0x03\n        /* \"GitHub/contract-token-cryptoMonster/backend/components/PhasePrivate.sol\":4436:4444  _userAdr */\n      dup2\n        /* \"GitHub/contract-token-cryptoMonster/backend/components/PhasePrivate.sol\":4403:4445  structApplicationsAmountAdr.push(_userAdr) */\n      swap1\n      dup1\n      0x01\n      dup2\n      sload\n      add\n      dup1\n      dup3\n      sstore\n      dup1\n      swap2\n      pop\n      pop\n      0x01\n      swap1\n      sub\n      swap1\n      0x00\n      mstore\n      keccak256(0x00, 0x20)\n      add\n      0x00\n      swap1\n      swap2\n      swap1\n      swap2\n      swap1\n      swap2\n      0x0100\n      exp\n      dup2\n      sload\n      dup2\n      0xffffffffffffffffffffffffffffffffffffffff\n      mul\n      not\n      and\n      swap1\n      dup4\n      0xffffffffffffffffffffffffffffffffffffffff\n      and\n      mul\n      or\n      swap1\n      sstore\n      pop\n        /* \"GitHub/contract-token-cryptoMonster/backend/components/PhasePrivate.sol\":4022:4580  function acceptApplication (address _userAdr) public onlyPrivateProvider {\r... */\n      pop\n      jump\t// out\n        /* \"GitHub/contract-token-cryptoMonster/backend/shared/helpers/helpresFunc.sol\":426:556  function get_whiteList() public onlyOwner onlyPrivateProvider view returns (address[] memory) {\r... */\n    tag_46:\n        /* \"GitHub/contract-token-cryptoMonster/backend/shared/helpers/helpresFunc.sol\":502:518  address[] memory */\n      0x60\n        /* \"GitHub/contract-token-cryptoMonster/backend/shared/helpers/modifireFunc.sol\":319:336  Role.SYSTEM_OWNER */\n      0x00\n        /* \"GitHub/contract-token-cryptoMonster/backend/shared/helpers/modifireFunc.sol\":286:336  structUsers_[msg.sender].role == Role.SYSTEM_OWNER */\n      0x04\n      dup2\n      gt\n      iszero\n      tag_164\n      jumpi\n      tag_165\n      tag_51\n      jump\t// in\n    tag_165:\n    tag_164:\n        /* \"GitHub/contract-token-cryptoMonster/backend/shared/helpers/modifireFunc.sol\":286:298  structUsers_ */\n      0x00\n        /* \"GitHub/contract-token-cryptoMonster/backend/shared/helpers/modifireFunc.sol\":286:310  structUsers_[msg.sender] */\n      dup1\n        /* \"GitHub/contract-token-cryptoMonster/backend/shared/helpers/modifireFunc.sol\":299:309  msg.sender */\n      caller\n        /* \"GitHub/contract-token-cryptoMonster/backend/shared/helpers/modifireFunc.sol\":286:310  structUsers_[msg.sender] */\n      0xffffffffffffffffffffffffffffffffffffffff\n      and\n      0xffffffffffffffffffffffffffffffffffffffff\n      and\n      dup2\n      mstore\n      0x20\n      add\n      swap1\n      dup2\n      mstore\n      0x20\n      add\n      0x00\n      keccak256\n        /* \"GitHub/contract-token-cryptoMonster/backend/shared/helpers/modifireFunc.sol\":286:315  structUsers_[msg.sender].role */\n      0x00\n      add\n      0x00\n      swap1\n      sload\n      swap1\n      0x0100\n      exp\n      swap1\n      div\n      0xff\n      and\n        /* \"GitHub/contract-token-cryptoMonster/backend/shared/helpers/modifireFunc.sol\":286:336  structUsers_[msg.sender].role == Role.SYSTEM_OWNER */\n      0x04\n      dup2\n      gt\n      iszero\n      tag_166\n      jumpi\n      tag_167\n      tag_51\n      jump\t// in\n    tag_167:\n    tag_166:\n      eq\n        /* \"GitHub/contract-token-cryptoMonster/backend/shared/helpers/modifireFunc.sol\":278:355  require(structUsers_[msg.sender].role == Role.SYSTEM_OWNER, \"Your not admin\") */\n      tag_168\n      jumpi\n      mload(0x40)\n      0x08c379a000000000000000000000000000000000000000000000000000000000\n      dup2\n      mstore\n      0x04\n      add\n      tag_169\n      swap1\n      tag_56\n      jump\t// in\n    tag_169:\n      mload(0x40)\n      dup1\n      swap2\n      sub\n      swap1\n      revert\n    tag_168:\n        /* \"GitHub/contract-token-cryptoMonster/backend/shared/helpers/modifireFunc.sol\":565:584  Role.SYSTEM_PRIVATE */\n      0x02\n        /* \"GitHub/contract-token-cryptoMonster/backend/shared/helpers/modifireFunc.sol\":532:584  structUsers_[msg.sender].role == Role.SYSTEM_PRIVATE */\n      0x04\n      dup2\n      gt\n      iszero\n      tag_171\n      jumpi\n      tag_172\n      tag_51\n      jump\t// in\n    tag_172:\n    tag_171:\n        /* \"GitHub/contract-token-cryptoMonster/backend/shared/helpers/modifireFunc.sol\":532:544  structUsers_ */\n      0x00\n        /* \"GitHub/contract-token-cryptoMonster/backend/shared/helpers/modifireFunc.sol\":532:556  structUsers_[msg.sender] */\n      dup1\n        /* \"GitHub/contract-token-cryptoMonster/backend/shared/helpers/modifireFunc.sol\":545:555  msg.sender */\n      caller\n        /* \"GitHub/contract-token-cryptoMonster/backend/shared/helpers/modifireFunc.sol\":532:556  structUsers_[msg.sender] */\n      0xffffffffffffffffffffffffffffffffffffffff\n      and\n      0xffffffffffffffffffffffffffffffffffffffff\n      and\n      dup2\n      mstore\n      0x20\n      add\n      swap1\n      dup2\n      mstore\n      0x20\n      add\n      0x00\n      keccak256\n        /* \"GitHub/contract-token-cryptoMonster/backend/shared/helpers/modifireFunc.sol\":532:561  structUsers_[msg.sender].role */\n      0x00\n      add\n      0x00\n      swap1\n      sload\n      swap1\n      0x0100\n      exp\n      swap1\n      div\n      0xff\n      and\n        /* \"GitHub/contract-token-cryptoMonster/backend/shared/helpers/modifireFunc.sol\":532:584  structUsers_[msg.sender].role == Role.SYSTEM_PRIVATE */\n      0x04\n      dup2\n      gt\n      iszero\n      tag_173\n      jumpi\n      tag_174\n      tag_51\n      jump\t// in\n    tag_174:\n    tag_173:\n      eq\n        /* \"GitHub/contract-token-cryptoMonster/backend/shared/helpers/modifireFunc.sol\":524:614  require(structUsers_[msg.sender].role == Role.SYSTEM_PRIVATE, \"Your not Private provider\") */\n      tag_175\n      jumpi\n      mload(0x40)\n      0x08c379a000000000000000000000000000000000000000000000000000000000\n      dup2\n      mstore\n      0x04\n      add\n      tag_176\n      swap1\n      tag_66\n      jump\t// in\n    tag_176:\n      mload(0x40)\n      dup1\n      swap2\n      sub\n      swap1\n      revert\n    tag_175:\n        /* \"GitHub/contract-token-cryptoMonster/backend/shared/helpers/helpresFunc.sol\":538:547  whiteList */\n      0x04\n        /* \"GitHub/contract-token-cryptoMonster/backend/shared/helpers/helpresFunc.sol\":531:548  return(whiteList) */\n      dup1\n      sload\n      dup1\n      0x20\n      mul\n      0x20\n      add\n      mload(0x40)\n      swap1\n      dup2\n      add\n      0x40\n      mstore\n      dup1\n      swap3\n      swap2\n      swap1\n      dup2\n      dup2\n      mstore\n      0x20\n      add\n      dup3\n      dup1\n      sload\n      dup1\n      iszero\n      tag_178\n      jumpi\n      0x20\n      mul\n      dup3\n      add\n      swap2\n      swap1\n      0x00\n      mstore\n      keccak256(0x00, 0x20)\n      swap1\n    tag_179:\n      dup2\n      0x00\n      swap1\n      sload\n      swap1\n      0x0100\n      exp\n      swap1\n      div\n      0xffffffffffffffffffffffffffffffffffffffff\n      and\n      0xffffffffffffffffffffffffffffffffffffffff\n      and\n      dup2\n      mstore\n      0x20\n      add\n      swap1\n      0x01\n      add\n      swap1\n      dup1\n      dup4\n      gt\n      tag_179\n      jumpi\n    tag_178:\n      pop\n      pop\n      pop\n      pop\n      pop\n      swap1\n      pop\n        /* \"GitHub/contract-token-cryptoMonster/backend/shared/helpers/helpresFunc.sol\":426:556  function get_whiteList() public onlyOwner onlyPrivateProvider view returns (address[] memory) {\r... */\n      swap1\n      jump\t// out\n    tag_103:\n      mload(0x40)\n      dup1\n      0xc0\n      add\n      0x40\n      mstore\n      dup1\n      0x60\n      dup2\n      mstore\n      0x20\n      add\n      0x60\n      dup2\n      mstore\n      0x20\n      add\n      and(0xffffffffffffffffffffffffffffffffffffffff, 0x00)\n      dup2\n      mstore\n      0x20\n      add\n      iszero(iszero(0x00))\n      dup2\n      mstore\n      0x20\n      add\n      iszero(iszero(0x00))\n      dup2\n      mstore\n      0x20\n      add\n      iszero(iszero(0x00))\n      dup2\n      mstore\n      pop\n      swap1\n      jump\t// out\n    tag_146:\n      dup3\n      dup1\n      sload\n      tag_180\n      swap1\n      tag_113\n      jump\t// in\n    tag_180:\n      swap1\n      0x00\n      mstore\n      keccak256(0x00, 0x20)\n      swap1\n      0x1f\n      add\n      0x20\n      swap1\n      div\n      dup2\n      add\n      swap3\n      dup3\n      tag_182\n      jumpi\n      0x00\n      dup6\n      sstore\n      jump(tag_181)\n    tag_182:\n      dup3\n      0x1f\n      lt\n      tag_183\n      jumpi\n      dup1\n      mload\n      not(0xff)\n      and\n      dup4\n      dup1\n      add\n      or\n      dup6\n      sstore\n      jump(tag_181)\n    tag_183:\n      dup3\n      dup1\n      add\n      0x01\n      add\n      dup6\n      sstore\n      dup3\n      iszero\n      tag_181\n      jumpi\n      swap2\n      dup3\n      add\n    tag_184:\n      dup3\n      dup2\n      gt\n      iszero\n      tag_185\n      jumpi\n      dup3\n      mload\n      dup3\n      sstore\n      swap2\n      0x20\n      add\n      swap2\n      swap1\n      0x01\n      add\n      swap1\n      jump(tag_184)\n    tag_185:\n    tag_181:\n      pop\n      swap1\n      pop\n      tag_186\n      swap2\n      swap1\n      tag_187\n      jump\t// in\n    tag_186:\n      pop\n      swap1\n      jump\t// out\n    tag_187:\n    tag_188:\n      dup1\n      dup3\n      gt\n      iszero\n      tag_189\n      jumpi\n      0x00\n      dup2\n      0x00\n      swap1\n      sstore\n      pop\n      0x01\n      add\n      jump(tag_188)\n    tag_189:\n      pop\n      swap1\n      jump\t// out\n        /* \"#utility.yul\":7:419   */\n    tag_191:\n        /* \"#utility.yul\":85:90   */\n      0x00\n        /* \"#utility.yul\":110:176   */\n      tag_193\n        /* \"#utility.yul\":126:175   */\n      tag_194\n        /* \"#utility.yul\":168:174   */\n      dup5\n        /* \"#utility.yul\":126:175   */\n      tag_195\n      jump\t// in\n    tag_194:\n        /* \"#utility.yul\":110:176   */\n      tag_196\n      jump\t// in\n    tag_193:\n        /* \"#utility.yul\":101:176   */\n      swap1\n      pop\n        /* \"#utility.yul\":199:205   */\n      dup3\n        /* \"#utility.yul\":192:197   */\n      dup2\n        /* \"#utility.yul\":185:206   */\n      mstore\n        /* \"#utility.yul\":237:241   */\n      0x20\n        /* \"#utility.yul\":230:235   */\n      dup2\n        /* \"#utility.yul\":226:242   */\n      add\n        /* \"#utility.yul\":275:278   */\n      dup5\n        /* \"#utility.yul\":266:272   */\n      dup5\n        /* \"#utility.yul\":261:264   */\n      dup5\n        /* \"#utility.yul\":257:273   */\n      add\n        /* \"#utility.yul\":254:279   */\n      gt\n        /* \"#utility.yul\":251:363   */\n      iszero\n      tag_197\n      jumpi\n        /* \"#utility.yul\":282:361   */\n      tag_198\n      tag_199\n      jump\t// in\n    tag_198:\n        /* \"#utility.yul\":251:363   */\n    tag_197:\n        /* \"#utility.yul\":372:413   */\n      tag_200\n        /* \"#utility.yul\":406:412   */\n      dup5\n        /* \"#utility.yul\":401:404   */\n      dup3\n        /* \"#utility.yul\":396:399   */\n      dup6\n        /* \"#utility.yul\":372:413   */\n      tag_201\n      jump\t// in\n    tag_200:\n        /* \"#utility.yul\":91:419   */\n      pop\n        /* \"#utility.yul\":7:419   */\n      swap4\n      swap3\n      pop\n      pop\n      pop\n      jump\t// out\n        /* \"#utility.yul\":425:564   */\n    tag_202:\n        /* \"#utility.yul\":471:476   */\n      0x00\n        /* \"#utility.yul\":509:515   */\n      dup2\n        /* \"#utility.yul\":496:516   */\n      calldataload\n        /* \"#utility.yul\":487:516   */\n      swap1\n      pop\n        /* \"#utility.yul\":525:558   */\n      tag_204\n        /* \"#utility.yul\":552:557   */\n      dup2\n        /* \"#utility.yul\":525:558   */\n      tag_205\n      jump\t// in\n    tag_204:\n        /* \"#utility.yul\":425:564   */\n      swap3\n      swap2\n      pop\n      pop\n      jump\t// out\n        /* \"#utility.yul\":584:924   */\n    tag_206:\n        /* \"#utility.yul\":640:645   */\n      0x00\n        /* \"#utility.yul\":689:692   */\n      dup3\n        /* \"#utility.yul\":682:686   */\n      0x1f\n        /* \"#utility.yul\":674:680   */\n      dup4\n        /* \"#utility.yul\":670:687   */\n      add\n        /* \"#utility.yul\":666:693   */\n      slt\n        /* \"#utility.yul\":656:778   */\n      tag_208\n      jumpi\n        /* \"#utility.yul\":697:776   */\n      tag_209\n      tag_210\n      jump\t// in\n    tag_209:\n        /* \"#utility.yul\":656:778   */\n    tag_208:\n        /* \"#utility.yul\":814:820   */\n      dup2\n        /* \"#utility.yul\":801:821   */\n      calldataload\n        /* \"#utility.yul\":839:918   */\n      tag_211\n        /* \"#utility.yul\":914:917   */\n      dup5\n        /* \"#utility.yul\":906:912   */\n      dup3\n        /* \"#utility.yul\":899:903   */\n      0x20\n        /* \"#utility.yul\":891:897   */\n      dup7\n        /* \"#utility.yul\":887:904   */\n      add\n        /* \"#utility.yul\":839:918   */\n      tag_191\n      jump\t// in\n    tag_211:\n        /* \"#utility.yul\":830:918   */\n      swap2\n      pop\n        /* \"#utility.yul\":646:924   */\n      pop\n        /* \"#utility.yul\":584:924   */\n      swap3\n      swap2\n      pop\n      pop\n      jump\t// out\n        /* \"#utility.yul\":930:1259   */\n    tag_15:\n        /* \"#utility.yul\":989:995   */\n      0x00\n        /* \"#utility.yul\":1038:1040   */\n      0x20\n        /* \"#utility.yul\":1026:1035   */\n      dup3\n        /* \"#utility.yul\":1017:1024   */\n      dup5\n        /* \"#utility.yul\":1013:1036   */\n      sub\n        /* \"#utility.yul\":1009:1041   */\n      slt\n        /* \"#utility.yul\":1006:1125   */\n      iszero\n      tag_213\n      jumpi\n        /* \"#utility.yul\":1044:1123   */\n      tag_214\n      tag_215\n      jump\t// in\n    tag_214:\n        /* \"#utility.yul\":1006:1125   */\n    tag_213:\n        /* \"#utility.yul\":1164:1165   */\n      0x00\n        /* \"#utility.yul\":1189:1242   */\n      tag_216\n        /* \"#utility.yul\":1234:1241   */\n      dup5\n        /* \"#utility.yul\":1225:1231   */\n      dup3\n        /* \"#utility.yul\":1214:1223   */\n      dup6\n        /* \"#utility.yul\":1210:1232   */\n      add\n        /* \"#utility.yul\":1189:1242   */\n      tag_202\n      jump\t// in\n    tag_216:\n        /* \"#utility.yul\":1179:1242   */\n      swap2\n      pop\n        /* \"#utility.yul\":1135:1252   */\n      pop\n        /* \"#utility.yul\":930:1259   */\n      swap3\n      swap2\n      pop\n      pop\n      jump\t// out\n        /* \"#utility.yul\":1265:1774   */\n    tag_38:\n        /* \"#utility.yul\":1334:1340   */\n      0x00\n        /* \"#utility.yul\":1383:1385   */\n      0x20\n        /* \"#utility.yul\":1371:1380   */\n      dup3\n        /* \"#utility.yul\":1362:1369   */\n      dup5\n        /* \"#utility.yul\":1358:1381   */\n      sub\n        /* \"#utility.yul\":1354:1386   */\n      slt\n        /* \"#utility.yul\":1351:1470   */\n      iszero\n      tag_218\n      jumpi\n        /* \"#utility.yul\":1389:1468   */\n      tag_219\n      tag_215\n      jump\t// in\n    tag_219:\n        /* \"#utility.yul\":1351:1470   */\n    tag_218:\n        /* \"#utility.yul\":1537:1538   */\n      0x00\n        /* \"#utility.yul\":1526:1535   */\n      dup3\n        /* \"#utility.yul\":1522:1539   */\n      add\n        /* \"#utility.yul\":1509:1540   */\n      calldataload\n        /* \"#utility.yul\":1567:1585   */\n      0xffffffffffffffff\n        /* \"#utility.yul\":1559:1565   */\n      dup2\n        /* \"#utility.yul\":1556:1586   */\n      gt\n        /* \"#utility.yul\":1553:1670   */\n      iszero\n      tag_220\n      jumpi\n        /* \"#utility.yul\":1589:1668   */\n      tag_221\n      tag_222\n      jump\t// in\n    tag_221:\n        /* \"#utility.yul\":1553:1670   */\n    tag_220:\n        /* \"#utility.yul\":1694:1757   */\n      tag_223\n        /* \"#utility.yul\":1749:1756   */\n      dup5\n        /* \"#utility.yul\":1740:1746   */\n      dup3\n        /* \"#utility.yul\":1729:1738   */\n      dup6\n        /* \"#utility.yul\":1725:1747   */\n      add\n        /* \"#utility.yul\":1694:1757   */\n      tag_206\n      jump\t// in\n    tag_223:\n        /* \"#utility.yul\":1684:1757   */\n      swap2\n      pop\n        /* \"#utility.yul\":1480:1767   */\n      pop\n        /* \"#utility.yul\":1265:1774   */\n      swap3\n      swap2\n      pop\n      pop\n      jump\t// out\n        /* \"#utility.yul\":1780:2759   */\n    tag_34:\n        /* \"#utility.yul\":1877:1883   */\n      0x00\n        /* \"#utility.yul\":1885:1891   */\n      dup1\n        /* \"#utility.yul\":1893:1899   */\n      0x00\n        /* \"#utility.yul\":1942:1944   */\n      0x60\n        /* \"#utility.yul\":1930:1939   */\n      dup5\n        /* \"#utility.yul\":1921:1928   */\n      dup7\n        /* \"#utility.yul\":1917:1940   */\n      sub\n        /* \"#utility.yul\":1913:1945   */\n      slt\n        /* \"#utility.yul\":1910:2029   */\n      iszero\n      tag_225\n      jumpi\n        /* \"#utility.yul\":1948:2027   */\n      tag_226\n      tag_215\n      jump\t// in\n    tag_226:\n        /* \"#utility.yul\":1910:2029   */\n    tag_225:\n        /* \"#utility.yul\":2096:2097   */\n      0x00\n        /* \"#utility.yul\":2085:2094   */\n      dup5\n        /* \"#utility.yul\":2081:2098   */\n      add\n        /* \"#utility.yul\":2068:2099   */\n      calldataload\n        /* \"#utility.yul\":2126:2144   */\n      0xffffffffffffffff\n        /* \"#utility.yul\":2118:2124   */\n      dup2\n        /* \"#utility.yul\":2115:2145   */\n      gt\n        /* \"#utility.yul\":2112:2229   */\n      iszero\n      tag_227\n      jumpi\n        /* \"#utility.yul\":2148:2227   */\n      tag_228\n      tag_222\n      jump\t// in\n    tag_228:\n        /* \"#utility.yul\":2112:2229   */\n    tag_227:\n        /* \"#utility.yul\":2253:2316   */\n      tag_229\n        /* \"#utility.yul\":2308:2315   */\n      dup7\n        /* \"#utility.yul\":2299:2305   */\n      dup3\n        /* \"#utility.yul\":2288:2297   */\n      dup8\n        /* \"#utility.yul\":2284:2306   */\n      add\n        /* \"#utility.yul\":2253:2316   */\n      tag_206\n      jump\t// in\n    tag_229:\n        /* \"#utility.yul\":2243:2316   */\n      swap4\n      pop\n        /* \"#utility.yul\":2039:2326   */\n      pop\n        /* \"#utility.yul\":2393:2395   */\n      0x20\n        /* \"#utility.yul\":2382:2391   */\n      dup5\n        /* \"#utility.yul\":2378:2396   */\n      add\n        /* \"#utility.yul\":2365:2397   */\n      calldataload\n        /* \"#utility.yul\":2424:2442   */\n      0xffffffffffffffff\n        /* \"#utility.yul\":2416:2422   */\n      dup2\n        /* \"#utility.yul\":2413:2443   */\n      gt\n        /* \"#utility.yul\":2410:2527   */\n      iszero\n      tag_230\n      jumpi\n        /* \"#utility.yul\":2446:2525   */\n      tag_231\n      tag_222\n      jump\t// in\n    tag_231:\n        /* \"#utility.yul\":2410:2527   */\n    tag_230:\n        /* \"#utility.yul\":2551:2614   */\n      tag_232\n        /* \"#utility.yul\":2606:2613   */\n      dup7\n        /* \"#utility.yul\":2597:2603   */\n      dup3\n        /* \"#utility.yul\":2586:2595   */\n      dup8\n        /* \"#utility.yul\":2582:2604   */\n      add\n        /* \"#utility.yul\":2551:2614   */\n      tag_206\n      jump\t// in\n    tag_232:\n        /* \"#utility.yul\":2541:2614   */\n      swap3\n      pop\n        /* \"#utility.yul\":2336:2624   */\n      pop\n        /* \"#utility.yul\":2663:2665   */\n      0x40\n        /* \"#utility.yul\":2689:2742   */\n      tag_233\n        /* \"#utility.yul\":2734:2741   */\n      dup7\n        /* \"#utility.yul\":2725:2731   */\n      dup3\n        /* \"#utility.yul\":2714:2723   */\n      dup8\n        /* \"#utility.yul\":2710:2732   */\n      add\n        /* \"#utility.yul\":2689:2742   */\n      tag_202\n      jump\t// in\n    tag_233:\n        /* \"#utility.yul\":2679:2742   */\n      swap2\n      pop\n        /* \"#utility.yul\":2634:2752   */\n      pop\n        /* \"#utility.yul\":1780:2759   */\n      swap3\n      pop\n      swap3\n      pop\n      swap3\n      jump\t// out\n        /* \"#utility.yul\":2765:2944   */\n    tag_234:\n        /* \"#utility.yul\":2834:2844   */\n      0x00\n        /* \"#utility.yul\":2855:2901   */\n      tag_236\n        /* \"#utility.yul\":2897:2900   */\n      dup4\n        /* \"#utility.yul\":2889:2895   */\n      dup4\n        /* \"#utility.yul\":2855:2901   */\n      tag_237\n      jump\t// in\n    tag_236:\n        /* \"#utility.yul\":2933:2937   */\n      0x20\n        /* \"#utility.yul\":2928:2931   */\n      dup4\n        /* \"#utility.yul\":2924:2938   */\n      add\n        /* \"#utility.yul\":2910:2938   */\n      swap1\n      pop\n        /* \"#utility.yul\":2765:2944   */\n      swap3\n      swap2\n      pop\n      pop\n      jump\t// out\n        /* \"#utility.yul\":2950:3058   */\n    tag_237:\n        /* \"#utility.yul\":3027:3051   */\n      tag_239\n        /* \"#utility.yul\":3045:3050   */\n      dup2\n        /* \"#utility.yul\":3027:3051   */\n      tag_240\n      jump\t// in\n    tag_239:\n        /* \"#utility.yul\":3022:3025   */\n      dup3\n        /* \"#utility.yul\":3015:3052   */\n      mstore\n        /* \"#utility.yul\":2950:3058   */\n      pop\n      pop\n      jump\t// out\n        /* \"#utility.yul\":3094:3826   */\n    tag_241:\n        /* \"#utility.yul\":3213:3216   */\n      0x00\n        /* \"#utility.yul\":3242:3296   */\n      tag_243\n        /* \"#utility.yul\":3290:3295   */\n      dup3\n        /* \"#utility.yul\":3242:3296   */\n      tag_244\n      jump\t// in\n    tag_243:\n        /* \"#utility.yul\":3312:3398   */\n      tag_245\n        /* \"#utility.yul\":3391:3397   */\n      dup2\n        /* \"#utility.yul\":3386:3389   */\n      dup6\n        /* \"#utility.yul\":3312:3398   */\n      tag_246\n      jump\t// in\n    tag_245:\n        /* \"#utility.yul\":3305:3398   */\n      swap4\n      pop\n        /* \"#utility.yul\":3422:3478   */\n      tag_247\n        /* \"#utility.yul\":3472:3477   */\n      dup4\n        /* \"#utility.yul\":3422:3478   */\n      tag_248\n      jump\t// in\n    tag_247:\n        /* \"#utility.yul\":3501:3508   */\n      dup1\n        /* \"#utility.yul\":3532:3533   */\n      0x00\n        /* \"#utility.yul\":3517:3801   */\n    tag_249:\n        /* \"#utility.yul\":3542:3548   */\n      dup4\n        /* \"#utility.yul\":3539:3540   */\n      dup2\n        /* \"#utility.yul\":3536:3549   */\n      lt\n        /* \"#utility.yul\":3517:3801   */\n      iszero\n      tag_251\n      jumpi\n        /* \"#utility.yul\":3618:3624   */\n      dup2\n        /* \"#utility.yul\":3612:3625   */\n      mload\n        /* \"#utility.yul\":3645:3708   */\n      tag_252\n        /* \"#utility.yul\":3704:3707   */\n      dup9\n        /* \"#utility.yul\":3689:3702   */\n      dup3\n        /* \"#utility.yul\":3645:3708   */\n      tag_234\n      jump\t// in\n    tag_252:\n        /* \"#utility.yul\":3638:3708   */\n      swap8\n      pop\n        /* \"#utility.yul\":3731:3791   */\n      tag_253\n        /* \"#utility.yul\":3784:3790   */\n      dup4\n        /* \"#utility.yul\":3731:3791   */\n      tag_254\n      jump\t// in\n    tag_253:\n        /* \"#utility.yul\":3721:3791   */\n      swap3\n      pop\n        /* \"#utility.yul\":3577:3801   */\n      pop\n        /* \"#utility.yul\":3564:3565   */\n      0x01\n        /* \"#utility.yul\":3561:3562   */\n      dup2\n        /* \"#utility.yul\":3557:3566   */\n      add\n        /* \"#utility.yul\":3552:3566   */\n      swap1\n      pop\n        /* \"#utility.yul\":3517:3801   */\n      jump(tag_249)\n    tag_251:\n        /* \"#utility.yul\":3521:3535   */\n      pop\n        /* \"#utility.yul\":3817:3820   */\n      dup6\n        /* \"#utility.yul\":3810:3820   */\n      swap4\n      pop\n        /* \"#utility.yul\":3218:3826   */\n      pop\n      pop\n      pop\n        /* \"#utility.yul\":3094:3826   */\n      swap3\n      swap2\n      pop\n      pop\n      jump\t// out\n        /* \"#utility.yul\":3832:3931   */\n    tag_255:\n        /* \"#utility.yul\":3903:3924   */\n      tag_257\n        /* \"#utility.yul\":3918:3923   */\n      dup2\n        /* \"#utility.yul\":3903:3924   */\n      tag_258\n      jump\t// in\n    tag_257:\n        /* \"#utility.yul\":3898:3901   */\n      dup3\n        /* \"#utility.yul\":3891:3925   */\n      mstore\n        /* \"#utility.yul\":3832:3931   */\n      pop\n      pop\n      jump\t// out\n        /* \"#utility.yul\":3937:4055   */\n    tag_259:\n        /* \"#utility.yul\":4024:4048   */\n      tag_261\n        /* \"#utility.yul\":4042:4047   */\n      dup2\n        /* \"#utility.yul\":4024:4048   */\n      tag_262\n      jump\t// in\n    tag_261:\n        /* \"#utility.yul\":4019:4022   */\n      dup3\n        /* \"#utility.yul\":4012:4049   */\n      mstore\n        /* \"#utility.yul\":3937:4055   */\n      pop\n      pop\n      jump\t// out\n        /* \"#utility.yul\":4061:4405   */\n    tag_263:\n        /* \"#utility.yul\":4139:4142   */\n      0x00\n        /* \"#utility.yul\":4167:4206   */\n      tag_265\n        /* \"#utility.yul\":4200:4205   */\n      dup3\n        /* \"#utility.yul\":4167:4206   */\n      tag_266\n      jump\t// in\n    tag_265:\n        /* \"#utility.yul\":4222:4283   */\n      tag_267\n        /* \"#utility.yul\":4276:4282   */\n      dup2\n        /* \"#utility.yul\":4271:4274   */\n      dup6\n        /* \"#utility.yul\":4222:4283   */\n      tag_268\n      jump\t// in\n    tag_267:\n        /* \"#utility.yul\":4215:4283   */\n      swap4\n      pop\n        /* \"#utility.yul\":4292:4344   */\n      tag_269\n        /* \"#utility.yul\":4337:4343   */\n      dup2\n        /* \"#utility.yul\":4332:4335   */\n      dup6\n        /* \"#utility.yul\":4325:4329   */\n      0x20\n        /* \"#utility.yul\":4318:4323   */\n      dup7\n        /* \"#utility.yul\":4314:4330   */\n      add\n        /* \"#utility.yul\":4292:4344   */\n      tag_270\n      jump\t// in\n    tag_269:\n        /* \"#utility.yul\":4369:4398   */\n      tag_271\n        /* \"#utility.yul\":4391:4397   */\n      dup2\n        /* \"#utility.yul\":4369:4398   */\n      tag_272\n      jump\t// in\n    tag_271:\n        /* \"#utility.yul\":4364:4367   */\n      dup5\n        /* \"#utility.yul\":4360:4399   */\n      add\n        /* \"#utility.yul\":4353:4399   */\n      swap2\n      pop\n        /* \"#utility.yul\":4143:4405   */\n      pop\n        /* \"#utility.yul\":4061:4405   */\n      swap3\n      swap2\n      pop\n      pop\n      jump\t// out\n        /* \"#utility.yul\":4411:4788   */\n    tag_273:\n        /* \"#utility.yul\":4517:4520   */\n      0x00\n        /* \"#utility.yul\":4545:4584   */\n      tag_275\n        /* \"#utility.yul\":4578:4583   */\n      dup3\n        /* \"#utility.yul\":4545:4584   */\n      tag_266\n      jump\t// in\n    tag_275:\n        /* \"#utility.yul\":4600:4689   */\n      tag_276\n        /* \"#utility.yul\":4682:4688   */\n      dup2\n        /* \"#utility.yul\":4677:4680   */\n      dup6\n        /* \"#utility.yul\":4600:4689   */\n      tag_277\n      jump\t// in\n    tag_276:\n        /* \"#utility.yul\":4593:4689   */\n      swap4\n      pop\n        /* \"#utility.yul\":4698:4750   */\n      tag_278\n        /* \"#utility.yul\":4743:4749   */\n      dup2\n        /* \"#utility.yul\":4738:4741   */\n      dup6\n        /* \"#utility.yul\":4731:4735   */\n      0x20\n        /* \"#utility.yul\":4724:4729   */\n      dup7\n        /* \"#utility.yul\":4720:4736   */\n      add\n        /* \"#utility.yul\":4698:4750   */\n      tag_270\n      jump\t// in\n    tag_278:\n        /* \"#utility.yul\":4775:4781   */\n      dup1\n        /* \"#utility.yul\":4770:4773   */\n      dup5\n        /* \"#utility.yul\":4766:4782   */\n      add\n        /* \"#utility.yul\":4759:4782   */\n      swap2\n      pop\n        /* \"#utility.yul\":4521:4788   */\n      pop\n        /* \"#utility.yul\":4411:4788   */\n      swap3\n      swap2\n      pop\n      pop\n      jump\t// out\n        /* \"#utility.yul\":4794:5160   */\n    tag_279:\n        /* \"#utility.yul\":4936:4939   */\n      0x00\n        /* \"#utility.yul\":4957:5024   */\n      tag_281\n        /* \"#utility.yul\":5021:5023   */\n      0x1c\n        /* \"#utility.yul\":5016:5019   */\n      dup4\n        /* \"#utility.yul\":4957:5024   */\n      tag_282\n      jump\t// in\n    tag_281:\n        /* \"#utility.yul\":4950:5024   */\n      swap2\n      pop\n        /* \"#utility.yul\":5033:5126   */\n      tag_283\n        /* \"#utility.yul\":5122:5125   */\n      dup3\n        /* \"#utility.yul\":5033:5126   */\n      tag_284\n      jump\t// in\n    tag_283:\n        /* \"#utility.yul\":5151:5153   */\n      0x20\n        /* \"#utility.yul\":5146:5149   */\n      dup3\n        /* \"#utility.yul\":5142:5154   */\n      add\n        /* \"#utility.yul\":5135:5154   */\n      swap1\n      pop\n        /* \"#utility.yul\":4794:5160   */\n      swap2\n      swap1\n      pop\n      jump\t// out\n        /* \"#utility.yul\":5166:5532   */\n    tag_285:\n        /* \"#utility.yul\":5308:5311   */\n      0x00\n        /* \"#utility.yul\":5329:5396   */\n      tag_287\n        /* \"#utility.yul\":5393:5395   */\n      0x18\n        /* \"#utility.yul\":5388:5391   */\n      dup4\n        /* \"#utility.yul\":5329:5396   */\n      tag_282\n      jump\t// in\n    tag_287:\n        /* \"#utility.yul\":5322:5396   */\n      swap2\n      pop\n        /* \"#utility.yul\":5405:5498   */\n      tag_288\n        /* \"#utility.yul\":5494:5497   */\n      dup3\n        /* \"#utility.yul\":5405:5498   */\n      tag_289\n      jump\t// in\n    tag_288:\n        /* \"#utility.yul\":5523:5525   */\n      0x20\n        /* \"#utility.yul\":5518:5521   */\n      dup3\n        /* \"#utility.yul\":5514:5526   */\n      add\n        /* \"#utility.yul\":5507:5526   */\n      swap1\n      pop\n        /* \"#utility.yul\":5166:5532   */\n      swap2\n      swap1\n      pop\n      jump\t// out\n        /* \"#utility.yul\":5538:5904   */\n    tag_290:\n        /* \"#utility.yul\":5680:5683   */\n      0x00\n        /* \"#utility.yul\":5701:5768   */\n      tag_292\n        /* \"#utility.yul\":5765:5767   */\n      0x2a\n        /* \"#utility.yul\":5760:5763   */\n      dup4\n        /* \"#utility.yul\":5701:5768   */\n      tag_282\n      jump\t// in\n    tag_292:\n        /* \"#utility.yul\":5694:5768   */\n      swap2\n      pop\n        /* \"#utility.yul\":5777:5870   */\n      tag_293\n        /* \"#utility.yul\":5866:5869   */\n      dup3\n        /* \"#utility.yul\":5777:5870   */\n      tag_294\n      jump\t// in\n    tag_293:\n        /* \"#utility.yul\":5895:5897   */\n      0x40\n        /* \"#utility.yul\":5890:5893   */\n      dup3\n        /* \"#utility.yul\":5886:5898   */\n      add\n        /* \"#utility.yul\":5879:5898   */\n      swap1\n      pop\n        /* \"#utility.yul\":5538:5904   */\n      swap2\n      swap1\n      pop\n      jump\t// out\n        /* \"#utility.yul\":5910:6276   */\n    tag_295:\n        /* \"#utility.yul\":6052:6055   */\n      0x00\n        /* \"#utility.yul\":6073:6140   */\n      tag_297\n        /* \"#utility.yul\":6137:6139   */\n      0x0e\n        /* \"#utility.yul\":6132:6135   */\n      dup4\n        /* \"#utility.yul\":6073:6140   */\n      tag_282\n      jump\t// in\n    tag_297:\n        /* \"#utility.yul\":6066:6140   */\n      swap2\n      pop\n        /* \"#utility.yul\":6149:6242   */\n      tag_298\n        /* \"#utility.yul\":6238:6241   */\n      dup3\n        /* \"#utility.yul\":6149:6242   */\n      tag_299\n      jump\t// in\n    tag_298:\n        /* \"#utility.yul\":6267:6269   */\n      0x20\n        /* \"#utility.yul\":6262:6265   */\n      dup3\n        /* \"#utility.yul\":6258:6270   */\n      add\n        /* \"#utility.yul\":6251:6270   */\n      swap1\n      pop\n        /* \"#utility.yul\":5910:6276   */\n      swap2\n      swap1\n      pop\n      jump\t// out\n        /* \"#utility.yul\":6282:6648   */\n    tag_300:\n        /* \"#utility.yul\":6424:6427   */\n      0x00\n        /* \"#utility.yul\":6445:6512   */\n      tag_302\n        /* \"#utility.yul\":6509:6511   */\n      0x19\n        /* \"#utility.yul\":6504:6507   */\n      dup4\n        /* \"#utility.yul\":6445:6512   */\n      tag_282\n      jump\t// in\n    tag_302:\n        /* \"#utility.yul\":6438:6512   */\n      swap2\n      pop\n        /* \"#utility.yul\":6521:6614   */\n      tag_303\n        /* \"#utility.yul\":6610:6613   */\n      dup3\n        /* \"#utility.yul\":6521:6614   */\n      tag_304\n      jump\t// in\n    tag_303:\n        /* \"#utility.yul\":6639:6641   */\n      0x20\n        /* \"#utility.yul\":6634:6637   */\n      dup3\n        /* \"#utility.yul\":6630:6642   */\n      add\n        /* \"#utility.yul\":6623:6642   */\n      swap1\n      pop\n        /* \"#utility.yul\":6282:6648   */\n      swap2\n      swap1\n      pop\n      jump\t// out\n        /* \"#utility.yul\":6654:7020   */\n    tag_305:\n        /* \"#utility.yul\":6796:6799   */\n      0x00\n        /* \"#utility.yul\":6817:6884   */\n      tag_307\n        /* \"#utility.yul\":6881:6883   */\n      0x17\n        /* \"#utility.yul\":6876:6879   */\n      dup4\n        /* \"#utility.yul\":6817:6884   */\n      tag_282\n      jump\t// in\n    tag_307:\n        /* \"#utility.yul\":6810:6884   */\n      swap2\n      pop\n        /* \"#utility.yul\":6893:6986   */\n      tag_308\n        /* \"#utility.yul\":6982:6985   */\n      dup3\n        /* \"#utility.yul\":6893:6986   */\n      tag_309\n      jump\t// in\n    tag_308:\n        /* \"#utility.yul\":7011:7013   */\n      0x20\n        /* \"#utility.yul\":7006:7009   */\n      dup3\n        /* \"#utility.yul\":7002:7014   */\n      add\n        /* \"#utility.yul\":6995:7014   */\n      swap1\n      pop\n        /* \"#utility.yul\":6654:7020   */\n      swap2\n      swap1\n      pop\n      jump\t// out\n        /* \"#utility.yul\":7026:7392   */\n    tag_310:\n        /* \"#utility.yul\":7168:7171   */\n      0x00\n        /* \"#utility.yul\":7189:7256   */\n      tag_312\n        /* \"#utility.yul\":7253:7255   */\n      0x37\n        /* \"#utility.yul\":7248:7251   */\n      dup4\n        /* \"#utility.yul\":7189:7256   */\n      tag_282\n      jump\t// in\n    tag_312:\n        /* \"#utility.yul\":7182:7256   */\n      swap2\n      pop\n        /* \"#utility.yul\":7265:7358   */\n      tag_313\n        /* \"#utility.yul\":7354:7357   */\n      dup3\n        /* \"#utility.yul\":7265:7358   */\n      tag_314\n      jump\t// in\n    tag_313:\n        /* \"#utility.yul\":7383:7385   */\n      0x40\n        /* \"#utility.yul\":7378:7381   */\n      dup3\n        /* \"#utility.yul\":7374:7386   */\n      add\n        /* \"#utility.yul\":7367:7386   */\n      swap1\n      pop\n        /* \"#utility.yul\":7026:7392   */\n      swap2\n      swap1\n      pop\n      jump\t// out\n        /* \"#utility.yul\":7480:8882   */\n    tag_315:\n        /* \"#utility.yul\":7617:7620   */\n      0x00\n        /* \"#utility.yul\":7653:7657   */\n      0xc0\n        /* \"#utility.yul\":7648:7651   */\n      dup4\n        /* \"#utility.yul\":7644:7658   */\n      add\n        /* \"#utility.yul\":7740:7744   */\n      0x00\n        /* \"#utility.yul\":7733:7738   */\n      dup4\n        /* \"#utility.yul\":7729:7745   */\n      add\n        /* \"#utility.yul\":7723:7746   */\n      mload\n        /* \"#utility.yul\":7793:7796   */\n      dup5\n        /* \"#utility.yul\":7787:7791   */\n      dup3\n        /* \"#utility.yul\":7783:7797   */\n      sub\n        /* \"#utility.yul\":7776:7780   */\n      0x00\n        /* \"#utility.yul\":7771:7774   */\n      dup7\n        /* \"#utility.yul\":7767:7781   */\n      add\n        /* \"#utility.yul\":7760:7798   */\n      mstore\n        /* \"#utility.yul\":7819:7892   */\n      tag_317\n        /* \"#utility.yul\":7887:7891   */\n      dup3\n        /* \"#utility.yul\":7873:7885   */\n      dup3\n        /* \"#utility.yul\":7819:7892   */\n      tag_263\n      jump\t// in\n    tag_317:\n        /* \"#utility.yul\":7811:7892   */\n      swap2\n      pop\n        /* \"#utility.yul\":7668:7903   */\n      pop\n        /* \"#utility.yul\":8004:8008   */\n      0x20\n        /* \"#utility.yul\":7997:8002   */\n      dup4\n        /* \"#utility.yul\":7993:8009   */\n      add\n        /* \"#utility.yul\":7987:8010   */\n      mload\n        /* \"#utility.yul\":8057:8060   */\n      dup5\n        /* \"#utility.yul\":8051:8055   */\n      dup3\n        /* \"#utility.yul\":8047:8061   */\n      sub\n        /* \"#utility.yul\":8040:8044   */\n      0x20\n        /* \"#utility.yul\":8035:8038   */\n      dup7\n        /* \"#utility.yul\":8031:8045   */\n      add\n        /* \"#utility.yul\":8024:8062   */\n      mstore\n        /* \"#utility.yul\":8083:8156   */\n      tag_318\n        /* \"#utility.yul\":8151:8155   */\n      dup3\n        /* \"#utility.yul\":8137:8149   */\n      dup3\n        /* \"#utility.yul\":8083:8156   */\n      tag_263\n      jump\t// in\n    tag_318:\n        /* \"#utility.yul\":8075:8156   */\n      swap2\n      pop\n        /* \"#utility.yul\":7913:8167   */\n      pop\n        /* \"#utility.yul\":8252:8256   */\n      0x40\n        /* \"#utility.yul\":8245:8250   */\n      dup4\n        /* \"#utility.yul\":8241:8257   */\n      add\n        /* \"#utility.yul\":8235:8258   */\n      mload\n        /* \"#utility.yul\":8271:8334   */\n      tag_319\n        /* \"#utility.yul\":8328:8332   */\n      0x40\n        /* \"#utility.yul\":8323:8326   */\n      dup7\n        /* \"#utility.yul\":8319:8333   */\n      add\n        /* \"#utility.yul\":8305:8317   */\n      dup3\n        /* \"#utility.yul\":8271:8334   */\n      tag_237\n      jump\t// in\n    tag_319:\n        /* \"#utility.yul\":8177:8344   */\n      pop\n        /* \"#utility.yul\":8428:8432   */\n      0x60\n        /* \"#utility.yul\":8421:8426   */\n      dup4\n        /* \"#utility.yul\":8417:8433   */\n      add\n        /* \"#utility.yul\":8411:8434   */\n      mload\n        /* \"#utility.yul\":8447:8504   */\n      tag_320\n        /* \"#utility.yul\":8498:8502   */\n      0x60\n        /* \"#utility.yul\":8493:8496   */\n      dup7\n        /* \"#utility.yul\":8489:8503   */\n      add\n        /* \"#utility.yul\":8475:8487   */\n      dup3\n        /* \"#utility.yul\":8447:8504   */\n      tag_255\n      jump\t// in\n    tag_320:\n        /* \"#utility.yul\":8354:8514   */\n      pop\n        /* \"#utility.yul\":8600:8604   */\n      0x80\n        /* \"#utility.yul\":8593:8598   */\n      dup4\n        /* \"#utility.yul\":8589:8605   */\n      add\n        /* \"#utility.yul\":8583:8606   */\n      mload\n        /* \"#utility.yul\":8619:8676   */\n      tag_321\n        /* \"#utility.yul\":8670:8674   */\n      0x80\n        /* \"#utility.yul\":8665:8668   */\n      dup7\n        /* \"#utility.yul\":8661:8675   */\n      add\n        /* \"#utility.yul\":8647:8659   */\n      dup3\n        /* \"#utility.yul\":8619:8676   */\n      tag_255\n      jump\t// in\n    tag_321:\n        /* \"#utility.yul\":8524:8686   */\n      pop\n        /* \"#utility.yul\":8769:8773   */\n      0xa0\n        /* \"#utility.yul\":8762:8767   */\n      dup4\n        /* \"#utility.yul\":8758:8774   */\n      add\n        /* \"#utility.yul\":8752:8775   */\n      mload\n        /* \"#utility.yul\":8788:8845   */\n      tag_322\n        /* \"#utility.yul\":8839:8843   */\n      0xa0\n        /* \"#utility.yul\":8834:8837   */\n      dup7\n        /* \"#utility.yul\":8830:8844   */\n      add\n        /* \"#utility.yul\":8816:8828   */\n      dup3\n        /* \"#utility.yul\":8788:8845   */\n      tag_255\n      jump\t// in\n    tag_322:\n        /* \"#utility.yul\":8696:8855   */\n      pop\n        /* \"#utility.yul\":8872:8876   */\n      dup1\n        /* \"#utility.yul\":8865:8876   */\n      swap2\n      pop\n        /* \"#utility.yul\":7622:8882   */\n      pop\n        /* \"#utility.yul\":7480:8882   */\n      swap3\n      swap2\n      pop\n      pop\n      jump\t// out\n        /* \"#utility.yul\":8888:9163   */\n    tag_151:\n        /* \"#utility.yul\":9020:9023   */\n      0x00\n        /* \"#utility.yul\":9042:9137   */\n      tag_324\n        /* \"#utility.yul\":9133:9136   */\n      dup3\n        /* \"#utility.yul\":9124:9130   */\n      dup5\n        /* \"#utility.yul\":9042:9137   */\n      tag_273\n      jump\t// in\n    tag_324:\n        /* \"#utility.yul\":9035:9137   */\n      swap2\n      pop\n        /* \"#utility.yul\":9154:9157   */\n      dup2\n        /* \"#utility.yul\":9147:9157   */\n      swap1\n      pop\n        /* \"#utility.yul\":8888:9163   */\n      swap3\n      swap2\n      pop\n      pop\n      jump\t// out\n        /* \"#utility.yul\":9169:9542   */\n    tag_23:\n        /* \"#utility.yul\":9312:9316   */\n      0x00\n        /* \"#utility.yul\":9350:9352   */\n      0x20\n        /* \"#utility.yul\":9339:9348   */\n      dup3\n        /* \"#utility.yul\":9335:9353   */\n      add\n        /* \"#utility.yul\":9327:9353   */\n      swap1\n      pop\n        /* \"#utility.yul\":9399:9408   */\n      dup2\n        /* \"#utility.yul\":9393:9397   */\n      dup2\n        /* \"#utility.yul\":9389:9409   */\n      sub\n        /* \"#utility.yul\":9385:9386   */\n      0x00\n        /* \"#utility.yul\":9374:9383   */\n      dup4\n        /* \"#utility.yul\":9370:9387   */\n      add\n        /* \"#utility.yul\":9363:9410   */\n      mstore\n        /* \"#utility.yul\":9427:9535   */\n      tag_326\n        /* \"#utility.yul\":9530:9534   */\n      dup2\n        /* \"#utility.yul\":9521:9527   */\n      dup5\n        /* \"#utility.yul\":9427:9535   */\n      tag_241\n      jump\t// in\n    tag_326:\n        /* \"#utility.yul\":9419:9535   */\n      swap1\n      pop\n        /* \"#utility.yul\":9169:9542   */\n      swap3\n      swap2\n      pop\n      pop\n      jump\t// out\n        /* \"#utility.yul\":9548:9770   */\n    tag_41:\n        /* \"#utility.yul\":9641:9645   */\n      0x00\n        /* \"#utility.yul\":9679:9681   */\n      0x20\n        /* \"#utility.yul\":9668:9677   */\n      dup3\n        /* \"#utility.yul\":9664:9682   */\n      add\n        /* \"#utility.yul\":9656:9682   */\n      swap1\n      pop\n        /* \"#utility.yul\":9692:9763   */\n      tag_328\n        /* \"#utility.yul\":9760:9761   */\n      0x00\n        /* \"#utility.yul\":9749:9758   */\n      dup4\n        /* \"#utility.yul\":9745:9762   */\n      add\n        /* \"#utility.yul\":9736:9742   */\n      dup5\n        /* \"#utility.yul\":9692:9763   */\n      tag_259\n      jump\t// in\n    tag_328:\n        /* \"#utility.yul\":9548:9770   */\n      swap3\n      swap2\n      pop\n      pop\n      jump\t// out\n        /* \"#utility.yul\":9776:10195   */\n    tag_70:\n        /* \"#utility.yul\":9942:9946   */\n      0x00\n        /* \"#utility.yul\":9980:9982   */\n      0x20\n        /* \"#utility.yul\":9969:9978   */\n      dup3\n        /* \"#utility.yul\":9965:9983   */\n      add\n        /* \"#utility.yul\":9957:9983   */\n      swap1\n      pop\n        /* \"#utility.yul\":10029:10038   */\n      dup2\n        /* \"#utility.yul\":10023:10027   */\n      dup2\n        /* \"#utility.yul\":10019:10039   */\n      sub\n        /* \"#utility.yul\":10015:10016   */\n      0x00\n        /* \"#utility.yul\":10004:10013   */\n      dup4\n        /* \"#utility.yul\":10000:10017   */\n      add\n        /* \"#utility.yul\":9993:10040   */\n      mstore\n        /* \"#utility.yul\":10057:10188   */\n      tag_330\n        /* \"#utility.yul\":10183:10187   */\n      dup2\n        /* \"#utility.yul\":10057:10188   */\n      tag_279\n      jump\t// in\n    tag_330:\n        /* \"#utility.yul\":10049:10188   */\n      swap1\n      pop\n        /* \"#utility.yul\":9776:10195   */\n      swap2\n      swap1\n      pop\n      jump\t// out\n        /* \"#utility.yul\":10201:10620   */\n    tag_140:\n        /* \"#utility.yul\":10367:10371   */\n      0x00\n        /* \"#utility.yul\":10405:10407   */\n      0x20\n        /* \"#utility.yul\":10394:10403   */\n      dup3\n        /* \"#utility.yul\":10390:10408   */\n      add\n        /* \"#utility.yul\":10382:10408   */\n      swap1\n      pop\n        /* \"#utility.yul\":10454:10463   */\n      dup2\n        /* \"#utility.yul\":10448:10452   */\n      dup2\n        /* \"#utility.yul\":10444:10464   */\n      sub\n        /* \"#utility.yul\":10440:10441   */\n      0x00\n        /* \"#utility.yul\":10429:10438   */\n      dup4\n        /* \"#utility.yul\":10425:10442   */\n      add\n        /* \"#utility.yul\":10418:10465   */\n      mstore\n        /* \"#utility.yul\":10482:10613   */\n      tag_332\n        /* \"#utility.yul\":10608:10612   */\n      dup2\n        /* \"#utility.yul\":10482:10613   */\n      tag_285\n      jump\t// in\n    tag_332:\n        /* \"#utility.yul\":10474:10613   */\n      swap1\n      pop\n        /* \"#utility.yul\":10201:10620   */\n      swap2\n      swap1\n      pop\n      jump\t// out\n        /* \"#utility.yul\":10626:11045   */\n    tag_144:\n        /* \"#utility.yul\":10792:10796   */\n      0x00\n        /* \"#utility.yul\":10830:10832   */\n      0x20\n        /* \"#utility.yul\":10819:10828   */\n      dup3\n        /* \"#utility.yul\":10815:10833   */\n      add\n        /* \"#utility.yul\":10807:10833   */\n      swap1\n      pop\n        /* \"#utility.yul\":10879:10888   */\n      dup2\n        /* \"#utility.yul\":10873:10877   */\n      dup2\n        /* \"#utility.yul\":10869:10889   */\n      sub\n        /* \"#utility.yul\":10865:10866   */\n      0x00\n        /* \"#utility.yul\":10854:10863   */\n      dup4\n        /* \"#utility.yul\":10850:10867   */\n      add\n        /* \"#utility.yul\":10843:10890   */\n      mstore\n        /* \"#utility.yul\":10907:11038   */\n      tag_334\n        /* \"#utility.yul\":11033:11037   */\n      dup2\n        /* \"#utility.yul\":10907:11038   */\n      tag_290\n      jump\t// in\n    tag_334:\n        /* \"#utility.yul\":10899:11038   */\n      swap1\n      pop\n        /* \"#utility.yul\":10626:11045   */\n      swap2\n      swap1\n      pop\n      jump\t// out\n        /* \"#utility.yul\":11051:11470   */\n    tag_56:\n        /* \"#utility.yul\":11217:11221   */\n      0x00\n        /* \"#utility.yul\":11255:11257   */\n      0x20\n        /* \"#utility.yul\":11244:11253   */\n      dup3\n        /* \"#utility.yul\":11240:11258   */\n      add\n        /* \"#utility.yul\":11232:11258   */\n      swap1\n      pop\n        /* \"#utility.yul\":11304:11313   */\n      dup2\n        /* \"#utility.yul\":11298:11302   */\n      dup2\n        /* \"#utility.yul\":11294:11314   */\n      sub\n        /* \"#utility.yul\":11290:11291   */\n      0x00\n        /* \"#utility.yul\":11279:11288   */\n      dup4\n        /* \"#utility.yul\":11275:11292   */\n      add\n        /* \"#utility.yul\":11268:11315   */\n      mstore\n        /* \"#utility.yul\":11332:11463   */\n      tag_336\n        /* \"#utility.yul\":11458:11462   */\n      dup2\n        /* \"#utility.yul\":11332:11463   */\n      tag_295\n      jump\t// in\n    tag_336:\n        /* \"#utility.yul\":11324:11463   */\n      swap1\n      pop\n        /* \"#utility.yul\":11051:11470   */\n      swap2\n      swap1\n      pop\n      jump\t// out\n        /* \"#utility.yul\":11476:11895   */\n    tag_66:\n        /* \"#utility.yul\":11642:11646   */\n      0x00\n        /* \"#utility.yul\":11680:11682   */\n      0x20\n        /* \"#utility.yul\":11669:11678   */\n      dup3\n        /* \"#utility.yul\":11665:11683   */\n      add\n        /* \"#utility.yul\":11657:11683   */\n      swap1\n      pop\n        /* \"#utility.yul\":11729:11738   */\n      dup2\n        /* \"#utility.yul\":11723:11727   */\n      dup2\n        /* \"#utility.yul\":11719:11739   */\n      sub\n        /* \"#utility.yul\":11715:11716   */\n      0x00\n        /* \"#utility.yul\":11704:11713   */\n      dup4\n        /* \"#utility.yul\":11700:11717   */\n      add\n        /* \"#utility.yul\":11693:11740   */\n      mstore\n        /* \"#utility.yul\":11757:11888   */\n      tag_338\n        /* \"#utility.yul\":11883:11887   */\n      dup2\n        /* \"#utility.yul\":11757:11888   */\n      tag_300\n      jump\t// in\n    tag_338:\n        /* \"#utility.yul\":11749:11888   */\n      swap1\n      pop\n        /* \"#utility.yul\":11476:11895   */\n      swap2\n      swap1\n      pop\n      jump\t// out\n        /* \"#utility.yul\":11901:12320   */\n    tag_127:\n        /* \"#utility.yul\":12067:12071   */\n      0x00\n        /* \"#utility.yul\":12105:12107   */\n      0x20\n        /* \"#utility.yul\":12094:12103   */\n      dup3\n        /* \"#utility.yul\":12090:12108   */\n      add\n        /* \"#utility.yul\":12082:12108   */\n      swap1\n      pop\n        /* \"#utility.yul\":12154:12163   */\n      dup2\n        /* \"#utility.yul\":12148:12152   */\n      dup2\n        /* \"#utility.yul\":12144:12164   */\n      sub\n        /* \"#utility.yul\":12140:12141   */\n      0x00\n        /* \"#utility.yul\":12129:12138   */\n      dup4\n        /* \"#utility.yul\":12125:12142   */\n      add\n        /* \"#utility.yul\":12118:12165   */\n      mstore\n        /* \"#utility.yul\":12182:12313   */\n      tag_340\n        /* \"#utility.yul\":12308:12312   */\n      dup2\n        /* \"#utility.yul\":12182:12313   */\n      tag_305\n      jump\t// in\n    tag_340:\n        /* \"#utility.yul\":12174:12313   */\n      swap1\n      pop\n        /* \"#utility.yul\":11901:12320   */\n      swap2\n      swap1\n      pop\n      jump\t// out\n        /* \"#utility.yul\":12326:12745   */\n    tag_130:\n        /* \"#utility.yul\":12492:12496   */\n      0x00\n        /* \"#utility.yul\":12530:12532   */\n      0x20\n        /* \"#utility.yul\":12519:12528   */\n      dup3\n        /* \"#utility.yul\":12515:12533   */\n      add\n        /* \"#utility.yul\":12507:12533   */\n      swap1\n      pop\n        /* \"#utility.yul\":12579:12588   */\n      dup2\n        /* \"#utility.yul\":12573:12577   */\n      dup2\n        /* \"#utility.yul\":12569:12589   */\n      sub\n        /* \"#utility.yul\":12565:12566   */\n      0x00\n        /* \"#utility.yul\":12554:12563   */\n      dup4\n        /* \"#utility.yul\":12550:12567   */\n      add\n        /* \"#utility.yul\":12543:12590   */\n      mstore\n        /* \"#utility.yul\":12607:12738   */\n      tag_342\n        /* \"#utility.yul\":12733:12737   */\n      dup2\n        /* \"#utility.yul\":12607:12738   */\n      tag_310\n      jump\t// in\n    tag_342:\n        /* \"#utility.yul\":12599:12738   */\n      swap1\n      pop\n        /* \"#utility.yul\":12326:12745   */\n      swap2\n      swap1\n      pop\n      jump\t// out\n        /* \"#utility.yul\":12751:13160   */\n    tag_31:\n        /* \"#utility.yul\":12912:12916   */\n      0x00\n        /* \"#utility.yul\":12950:12952   */\n      0x20\n        /* \"#utility.yul\":12939:12948   */\n      dup3\n        /* \"#utility.yul\":12935:12953   */\n      add\n        /* \"#utility.yul\":12927:12953   */\n      swap1\n      pop\n        /* \"#utility.yul\":12999:13008   */\n      dup2\n        /* \"#utility.yul\":12993:12997   */\n      dup2\n        /* \"#utility.yul\":12989:13009   */\n      sub\n        /* \"#utility.yul\":12985:12986   */\n      0x00\n        /* \"#utility.yul\":12974:12983   */\n      dup4\n        /* \"#utility.yul\":12970:12987   */\n      add\n        /* \"#utility.yul\":12963:13010   */\n      mstore\n        /* \"#utility.yul\":13027:13153   */\n      tag_344\n        /* \"#utility.yul\":13148:13152   */\n      dup2\n        /* \"#utility.yul\":13139:13145   */\n      dup5\n        /* \"#utility.yul\":13027:13153   */\n      tag_315\n      jump\t// in\n    tag_344:\n        /* \"#utility.yul\":13019:13153   */\n      swap1\n      pop\n        /* \"#utility.yul\":12751:13160   */\n      swap3\n      swap2\n      pop\n      pop\n      jump\t// out\n        /* \"#utility.yul\":13166:13295   */\n    tag_196:\n        /* \"#utility.yul\":13200:13206   */\n      0x00\n        /* \"#utility.yul\":13227:13247   */\n      tag_346\n      tag_347\n      jump\t// in\n    tag_346:\n        /* \"#utility.yul\":13217:13247   */\n      swap1\n      pop\n        /* \"#utility.yul\":13256:13289   */\n      tag_348\n        /* \"#utility.yul\":13284:13288   */\n      dup3\n        /* \"#utility.yul\":13276:13282   */\n      dup3\n        /* \"#utility.yul\":13256:13289   */\n      tag_349\n      jump\t// in\n    tag_348:\n        /* \"#utility.yul\":13166:13295   */\n      swap2\n      swap1\n      pop\n      jump\t// out\n        /* \"#utility.yul\":13301:13376   */\n    tag_347:\n        /* \"#utility.yul\":13334:13340   */\n      0x00\n        /* \"#utility.yul\":13367:13369   */\n      0x40\n        /* \"#utility.yul\":13361:13370   */\n      mload\n        /* \"#utility.yul\":13351:13370   */\n      swap1\n      pop\n        /* \"#utility.yul\":13301:13376   */\n      swap1\n      jump\t// out\n        /* \"#utility.yul\":13382:13690   */\n    tag_195:\n        /* \"#utility.yul\":13444:13448   */\n      0x00\n        /* \"#utility.yul\":13534:13552   */\n      0xffffffffffffffff\n        /* \"#utility.yul\":13526:13532   */\n      dup3\n        /* \"#utility.yul\":13523:13553   */\n      gt\n        /* \"#utility.yul\":13520:13576   */\n      iszero\n      tag_352\n      jumpi\n        /* \"#utility.yul\":13556:13574   */\n      tag_353\n      tag_354\n      jump\t// in\n    tag_353:\n        /* \"#utility.yul\":13520:13576   */\n    tag_352:\n        /* \"#utility.yul\":13594:13623   */\n      tag_355\n        /* \"#utility.yul\":13616:13622   */\n      dup3\n        /* \"#utility.yul\":13594:13623   */\n      tag_272\n      jump\t// in\n    tag_355:\n        /* \"#utility.yul\":13586:13623   */\n      swap1\n      pop\n        /* \"#utility.yul\":13678:13682   */\n      0x20\n        /* \"#utility.yul\":13672:13676   */\n      dup2\n        /* \"#utility.yul\":13668:13683   */\n      add\n        /* \"#utility.yul\":13660:13683   */\n      swap1\n      pop\n        /* \"#utility.yul\":13382:13690   */\n      swap2\n      swap1\n      pop\n      jump\t// out\n        /* \"#utility.yul\":13696:13828   */\n    tag_248:\n        /* \"#utility.yul\":13763:13767   */\n      0x00\n        /* \"#utility.yul\":13786:13789   */\n      dup2\n        /* \"#utility.yul\":13778:13789   */\n      swap1\n      pop\n        /* \"#utility.yul\":13816:13820   */\n      0x20\n        /* \"#utility.yul\":13811:13814   */\n      dup3\n        /* \"#utility.yul\":13807:13821   */\n      add\n        /* \"#utility.yul\":13799:13821   */\n      swap1\n      pop\n        /* \"#utility.yul\":13696:13828   */\n      swap2\n      swap1\n      pop\n      jump\t// out\n        /* \"#utility.yul\":13834:13948   */\n    tag_244:\n        /* \"#utility.yul\":13901:13907   */\n      0x00\n        /* \"#utility.yul\":13935:13940   */\n      dup2\n        /* \"#utility.yul\":13929:13941   */\n      mload\n        /* \"#utility.yul\":13919:13941   */\n      swap1\n      pop\n        /* \"#utility.yul\":13834:13948   */\n      swap2\n      swap1\n      pop\n      jump\t// out\n        /* \"#utility.yul\":13954:14053   */\n    tag_266:\n        /* \"#utility.yul\":14006:14012   */\n      0x00\n        /* \"#utility.yul\":14040:14045   */\n      dup2\n        /* \"#utility.yul\":14034:14046   */\n      mload\n        /* \"#utility.yul\":14024:14046   */\n      swap1\n      pop\n        /* \"#utility.yul\":13954:14053   */\n      swap2\n      swap1\n      pop\n      jump\t// out\n        /* \"#utility.yul\":14059:14172   */\n    tag_254:\n        /* \"#utility.yul\":14129:14133   */\n      0x00\n        /* \"#utility.yul\":14161:14165   */\n      0x20\n        /* \"#utility.yul\":14156:14159   */\n      dup3\n        /* \"#utility.yul\":14152:14166   */\n      add\n        /* \"#utility.yul\":14144:14166   */\n      swap1\n      pop\n        /* \"#utility.yul\":14059:14172   */\n      swap2\n      swap1\n      pop\n      jump\t// out\n        /* \"#utility.yul\":14178:14362   */\n    tag_246:\n        /* \"#utility.yul\":14277:14288   */\n      0x00\n        /* \"#utility.yul\":14311:14317   */\n      dup3\n        /* \"#utility.yul\":14306:14309   */\n      dup3\n        /* \"#utility.yul\":14299:14318   */\n      mstore\n        /* \"#utility.yul\":14351:14355   */\n      0x20\n        /* \"#utility.yul\":14346:14349   */\n      dup3\n        /* \"#utility.yul\":14342:14356   */\n      add\n        /* \"#utility.yul\":14327:14356   */\n      swap1\n      pop\n        /* \"#utility.yul\":14178:14362   */\n      swap3\n      swap2\n      pop\n      pop\n      jump\t// out\n        /* \"#utility.yul\":14368:14527   */\n    tag_268:\n        /* \"#utility.yul\":14442:14453   */\n      0x00\n        /* \"#utility.yul\":14476:14482   */\n      dup3\n        /* \"#utility.yul\":14471:14474   */\n      dup3\n        /* \"#utility.yul\":14464:14483   */\n      mstore\n        /* \"#utility.yul\":14516:14520   */\n      0x20\n        /* \"#utility.yul\":14511:14514   */\n      dup3\n        /* \"#utility.yul\":14507:14521   */\n      add\n        /* \"#utility.yul\":14492:14521   */\n      swap1\n      pop\n        /* \"#utility.yul\":14368:14527   */\n      swap3\n      swap2\n      pop\n      pop\n      jump\t// out\n        /* \"#utility.yul\":14533:14702   */\n    tag_282:\n        /* \"#utility.yul\":14617:14628   */\n      0x00\n        /* \"#utility.yul\":14651:14657   */\n      dup3\n        /* \"#utility.yul\":14646:14649   */\n      dup3\n        /* \"#utility.yul\":14639:14658   */\n      mstore\n        /* \"#utility.yul\":14691:14695   */\n      0x20\n        /* \"#utility.yul\":14686:14689   */\n      dup3\n        /* \"#utility.yul\":14682:14696   */\n      add\n        /* \"#utility.yul\":14667:14696   */\n      swap1\n      pop\n        /* \"#utility.yul\":14533:14702   */\n      swap3\n      swap2\n      pop\n      pop\n      jump\t// out\n        /* \"#utility.yul\":14708:14856   */\n    tag_277:\n        /* \"#utility.yul\":14810:14821   */\n      0x00\n        /* \"#utility.yul\":14847:14850   */\n      dup2\n        /* \"#utility.yul\":14832:14850   */\n      swap1\n      pop\n        /* \"#utility.yul\":14708:14856   */\n      swap3\n      swap2\n      pop\n      pop\n      jump\t// out\n        /* \"#utility.yul\":14862:14958   */\n    tag_240:\n        /* \"#utility.yul\":14899:14906   */\n      0x00\n        /* \"#utility.yul\":14928:14952   */\n      tag_365\n        /* \"#utility.yul\":14946:14951   */\n      dup3\n        /* \"#utility.yul\":14928:14952   */\n      tag_366\n      jump\t// in\n    tag_365:\n        /* \"#utility.yul\":14917:14952   */\n      swap1\n      pop\n        /* \"#utility.yul\":14862:14958   */\n      swap2\n      swap1\n      pop\n      jump\t// out\n        /* \"#utility.yul\":14964:15054   */\n    tag_258:\n        /* \"#utility.yul\":14998:15005   */\n      0x00\n        /* \"#utility.yul\":15041:15046   */\n      dup2\n        /* \"#utility.yul\":15034:15047   */\n      iszero\n        /* \"#utility.yul\":15027:15048   */\n      iszero\n        /* \"#utility.yul\":15016:15048   */\n      swap1\n      pop\n        /* \"#utility.yul\":14964:15054   */\n      swap2\n      swap1\n      pop\n      jump\t// out\n        /* \"#utility.yul\":15060:15137   */\n    tag_262:\n        /* \"#utility.yul\":15097:15104   */\n      0x00\n        /* \"#utility.yul\":15126:15131   */\n      dup2\n        /* \"#utility.yul\":15115:15131   */\n      swap1\n      pop\n        /* \"#utility.yul\":15060:15137   */\n      swap2\n      swap1\n      pop\n      jump\t// out\n        /* \"#utility.yul\":15143:15269   */\n    tag_366:\n        /* \"#utility.yul\":15180:15187   */\n      0x00\n        /* \"#utility.yul\":15220:15262   */\n      0xffffffffffffffffffffffffffffffffffffffff\n        /* \"#utility.yul\":15213:15218   */\n      dup3\n        /* \"#utility.yul\":15209:15263   */\n      and\n        /* \"#utility.yul\":15198:15263   */\n      swap1\n      pop\n        /* \"#utility.yul\":15143:15269   */\n      swap2\n      swap1\n      pop\n      jump\t// out\n        /* \"#utility.yul\":15275:15352   */\n    tag_370:\n        /* \"#utility.yul\":15312:15319   */\n      0x00\n        /* \"#utility.yul\":15341:15346   */\n      dup2\n        /* \"#utility.yul\":15330:15346   */\n      swap1\n      pop\n        /* \"#utility.yul\":15275:15352   */\n      swap2\n      swap1\n      pop\n      jump\t// out\n        /* \"#utility.yul\":15358:15512   */\n    tag_201:\n        /* \"#utility.yul\":15442:15448   */\n      dup3\n        /* \"#utility.yul\":15437:15440   */\n      dup2\n        /* \"#utility.yul\":15432:15435   */\n      dup4\n        /* \"#utility.yul\":15419:15449   */\n      calldatacopy\n        /* \"#utility.yul\":15504:15505   */\n      0x00\n        /* \"#utility.yul\":15495:15501   */\n      dup4\n        /* \"#utility.yul\":15490:15493   */\n      dup4\n        /* \"#utility.yul\":15486:15502   */\n      add\n        /* \"#utility.yul\":15479:15506   */\n      mstore\n        /* \"#utility.yul\":15358:15512   */\n      pop\n      pop\n      pop\n      jump\t// out\n        /* \"#utility.yul\":15518:15825   */\n    tag_270:\n        /* \"#utility.yul\":15586:15587   */\n      0x00\n        /* \"#utility.yul\":15596:15709   */\n    tag_374:\n        /* \"#utility.yul\":15610:15616   */\n      dup4\n        /* \"#utility.yul\":15607:15608   */\n      dup2\n        /* \"#utility.yul\":15604:15617   */\n      lt\n        /* \"#utility.yul\":15596:15709   */\n      iszero\n      tag_376\n      jumpi\n        /* \"#utility.yul\":15695:15696   */\n      dup1\n        /* \"#utility.yul\":15690:15693   */\n      dup3\n        /* \"#utility.yul\":15686:15697   */\n      add\n        /* \"#utility.yul\":15680:15698   */\n      mload\n        /* \"#utility.yul\":15676:15677   */\n      dup2\n        /* \"#utility.yul\":15671:15674   */\n      dup5\n        /* \"#utility.yul\":15667:15678   */\n      add\n        /* \"#utility.yul\":15660:15699   */\n      mstore\n        /* \"#utility.yul\":15632:15634   */\n      0x20\n        /* \"#utility.yul\":15629:15630   */\n      dup2\n        /* \"#utility.yul\":15625:15635   */\n      add\n        /* \"#utility.yul\":15620:15635   */\n      swap1\n      pop\n        /* \"#utility.yul\":15596:15709   */\n      jump(tag_374)\n    tag_376:\n        /* \"#utility.yul\":15727:15733   */\n      dup4\n        /* \"#utility.yul\":15724:15725   */\n      dup2\n        /* \"#utility.yul\":15721:15734   */\n      gt\n        /* \"#utility.yul\":15718:15819   */\n      iszero\n      tag_377\n      jumpi\n        /* \"#utility.yul\":15807:15808   */\n      0x00\n        /* \"#utility.yul\":15798:15804   */\n      dup5\n        /* \"#utility.yul\":15793:15796   */\n      dup5\n        /* \"#utility.yul\":15789:15805   */\n      add\n        /* \"#utility.yul\":15782:15809   */\n      mstore\n        /* \"#utility.yul\":15718:15819   */\n    tag_377:\n        /* \"#utility.yul\":15567:15825   */\n      pop\n        /* \"#utility.yul\":15518:15825   */\n      pop\n      pop\n      pop\n      jump\t// out\n        /* \"#utility.yul\":15831:16151   */\n    tag_113:\n        /* \"#utility.yul\":15875:15881   */\n      0x00\n        /* \"#utility.yul\":15912:15913   */\n      0x02\n        /* \"#utility.yul\":15906:15910   */\n      dup3\n        /* \"#utility.yul\":15902:15914   */\n      div\n        /* \"#utility.yul\":15892:15914   */\n      swap1\n      pop\n        /* \"#utility.yul\":15959:15960   */\n      0x01\n        /* \"#utility.yul\":15953:15957   */\n      dup3\n        /* \"#utility.yul\":15949:15961   */\n      and\n        /* \"#utility.yul\":15980:15998   */\n      dup1\n        /* \"#utility.yul\":15970:16051   */\n      tag_379\n      jumpi\n        /* \"#utility.yul\":16036:16040   */\n      0x7f\n        /* \"#utility.yul\":16028:16034   */\n      dup3\n        /* \"#utility.yul\":16024:16041   */\n      and\n        /* \"#utility.yul\":16014:16041   */\n      swap2\n      pop\n        /* \"#utility.yul\":15970:16051   */\n    tag_379:\n        /* \"#utility.yul\":16098:16100   */\n      0x20\n        /* \"#utility.yul\":16090:16096   */\n      dup3\n        /* \"#utility.yul\":16087:16101   */\n      lt\n        /* \"#utility.yul\":16067:16085   */\n      dup2\n        /* \"#utility.yul\":16064:16102   */\n      eq\n        /* \"#utility.yul\":16061:16145   */\n      iszero\n      tag_380\n      jumpi\n        /* \"#utility.yul\":16117:16135   */\n      tag_381\n      tag_382\n      jump\t// in\n    tag_381:\n        /* \"#utility.yul\":16061:16145   */\n    tag_380:\n        /* \"#utility.yul\":15882:16151   */\n      pop\n        /* \"#utility.yul\":15831:16151   */\n      swap2\n      swap1\n      pop\n      jump\t// out\n        /* \"#utility.yul\":16157:16438   */\n    tag_349:\n        /* \"#utility.yul\":16240:16267   */\n      tag_384\n        /* \"#utility.yul\":16262:16266   */\n      dup3\n        /* \"#utility.yul\":16240:16267   */\n      tag_272\n      jump\t// in\n    tag_384:\n        /* \"#utility.yul\":16232:16238   */\n      dup2\n        /* \"#utility.yul\":16228:16268   */\n      add\n        /* \"#utility.yul\":16370:16376   */\n      dup2\n        /* \"#utility.yul\":16358:16368   */\n      dup2\n        /* \"#utility.yul\":16355:16377   */\n      lt\n        /* \"#utility.yul\":16334:16352   */\n      0xffffffffffffffff\n        /* \"#utility.yul\":16322:16332   */\n      dup3\n        /* \"#utility.yul\":16319:16353   */\n      gt\n        /* \"#utility.yul\":16316:16378   */\n      or\n        /* \"#utility.yul\":16313:16401   */\n      iszero\n      tag_385\n      jumpi\n        /* \"#utility.yul\":16381:16399   */\n      tag_386\n      tag_354\n      jump\t// in\n    tag_386:\n        /* \"#utility.yul\":16313:16401   */\n    tag_385:\n        /* \"#utility.yul\":16421:16431   */\n      dup1\n        /* \"#utility.yul\":16417:16419   */\n      0x40\n        /* \"#utility.yul\":16410:16432   */\n      mstore\n        /* \"#utility.yul\":16200:16438   */\n      pop\n        /* \"#utility.yul\":16157:16438   */\n      pop\n      pop\n      jump\t// out\n        /* \"#utility.yul\":16444:16677   */\n    tag_90:\n        /* \"#utility.yul\":16483:16486   */\n      0x00\n        /* \"#utility.yul\":16506:16530   */\n      tag_388\n        /* \"#utility.yul\":16524:16529   */\n      dup3\n        /* \"#utility.yul\":16506:16530   */\n      tag_370\n      jump\t// in\n    tag_388:\n        /* \"#utility.yul\":16497:16530   */\n      swap2\n      pop\n        /* \"#utility.yul\":16552:16618   */\n      0xffffffffffffffffffffffffffffffffffffffffffffffffffffffffffffffff\n        /* \"#utility.yul\":16545:16550   */\n      dup3\n        /* \"#utility.yul\":16542:16619   */\n      eq\n        /* \"#utility.yul\":16539:16642   */\n      iszero\n      tag_389\n      jumpi\n        /* \"#utility.yul\":16622:16640   */\n      tag_390\n      tag_391\n      jump\t// in\n    tag_390:\n        /* \"#utility.yul\":16539:16642   */\n    tag_389:\n        /* \"#utility.yul\":16669:16670   */\n      0x01\n        /* \"#utility.yul\":16662:16667   */\n      dup3\n        /* \"#utility.yul\":16658:16671   */\n      add\n        /* \"#utility.yul\":16651:16671   */\n      swap1\n      pop\n        /* \"#utility.yul\":16444:16677   */\n      swap2\n      swap1\n      pop\n      jump\t// out\n        /* \"#utility.yul\":16683:16863   */\n    tag_391:\n        /* \"#utility.yul\":16731:16808   */\n      0x4e487b7100000000000000000000000000000000000000000000000000000000\n        /* \"#utility.yul\":16728:16729   */\n      0x00\n        /* \"#utility.yul\":16721:16809   */\n      mstore\n        /* \"#utility.yul\":16828:16832   */\n      0x11\n        /* \"#utility.yul\":16825:16826   */\n      0x04\n        /* \"#utility.yul\":16818:16833   */\n      mstore\n        /* \"#utility.yul\":16852:16856   */\n      0x24\n        /* \"#utility.yul\":16849:16850   */\n      0x00\n        /* \"#utility.yul\":16842:16857   */\n      revert\n        /* \"#utility.yul\":16869:17049   */\n    tag_51:\n        /* \"#utility.yul\":16917:16994   */\n      0x4e487b7100000000000000000000000000000000000000000000000000000000\n        /* \"#utility.yul\":16914:16915   */\n      0x00\n        /* \"#utility.yul\":16907:16995   */\n      mstore\n        /* \"#utility.yul\":17014:17018   */\n      0x21\n        /* \"#utility.yul\":17011:17012   */\n      0x04\n        /* \"#utility.yul\":17004:17019   */\n      mstore\n        /* \"#utility.yul\":17038:17042   */\n      0x24\n        /* \"#utility.yul\":17035:17036   */\n      0x00\n        /* \"#utility.yul\":17028:17043   */\n      revert\n        /* \"#utility.yul\":17055:17235   */\n    tag_382:\n        /* \"#utility.yul\":17103:17180   */\n      0x4e487b7100000000000000000000000000000000000000000000000000000000\n        /* \"#utility.yul\":17100:17101   */\n      0x00\n        /* \"#utility.yul\":17093:17181   */\n      mstore\n        /* \"#utility.yul\":17200:17204   */\n      0x22\n        /* \"#utility.yul\":17197:17198   */\n      0x04\n        /* \"#utility.yul\":17190:17205   */\n      mstore\n        /* \"#utility.yul\":17224:17228   */\n      0x24\n        /* \"#utility.yul\":17221:17222   */\n      0x00\n        /* \"#utility.yul\":17214:17229   */\n      revert\n        /* \"#utility.yul\":17241:17421   */\n    tag_84:\n        /* \"#utility.yul\":17289:17366   */\n      0x4e487b7100000000000000000000000000000000000000000000000000000000\n        /* \"#utility.yul\":17286:17287   */\n      0x00\n        /* \"#utility.yul\":17279:17367   */\n      mstore\n        /* \"#utility.yul\":17386:17390   */\n      0x32\n        /* \"#utility.yul\":17383:17384   */\n      0x04\n        /* \"#utility.yul\":17376:17391   */\n      mstore\n        /* \"#utility.yul\":17410:17414   */\n      0x24\n        /* \"#utility.yul\":17407:17408   */\n      0x00\n        /* \"#utility.yul\":17400:17415   */\n      revert\n        /* \"#utility.yul\":17427:17607   */\n    tag_354:\n        /* \"#utility.yul\":17475:17552   */\n      0x4e487b7100000000000000000000000000000000000000000000000000000000\n        /* \"#utility.yul\":17472:17473   */\n      0x00\n        /* \"#utility.yul\":17465:17553   */\n      mstore\n        /* \"#utility.yul\":17572:17576   */\n      0x41\n        /* \"#utility.yul\":17569:17570   */\n      0x04\n        /* \"#utility.yul\":17562:17577   */\n      mstore\n        /* \"#utility.yul\":17596:17600   */\n      0x24\n        /* \"#utility.yul\":17593:17594   */\n      0x00\n        /* \"#utility.yul\":17586:17601   */\n      revert\n        /* \"#utility.yul\":17613:17730   */\n    tag_210:\n        /* \"#utility.yul\":17722:17723   */\n      0x00\n        /* \"#utility.yul\":17719:17720   */\n      dup1\n        /* \"#utility.yul\":17712:17724   */\n      revert\n        /* \"#utility.yul\":17736:17853   */\n    tag_199:\n        /* \"#utility.yul\":17845:17846   */\n      0x00\n        /* \"#utility.yul\":17842:17843   */\n      dup1\n        /* \"#utility.yul\":17835:17847   */\n      revert\n        /* \"#utility.yul\":17859:17976   */\n    tag_222:\n        /* \"#utility.yul\":17968:17969   */\n      0x00\n        /* \"#utility.yul\":17965:17966   */\n      dup1\n        /* \"#utility.yul\":17958:17970   */\n      revert\n        /* \"#utility.yul\":17982:18099   */\n    tag_215:\n        /* \"#utility.yul\":18091:18092   */\n      0x00\n        /* \"#utility.yul\":18088:18089   */\n      dup1\n        /* \"#utility.yul\":18081:18093   */\n      revert\n        /* \"#utility.yul\":18105:18207   */\n    tag_272:\n        /* \"#utility.yul\":18146:18152   */\n      0x00\n        /* \"#utility.yul\":18197:18199   */\n      0x1f\n        /* \"#utility.yul\":18193:18200   */\n      not\n        /* \"#utility.yul\":18188:18190   */\n      0x1f\n        /* \"#utility.yul\":18181:18186   */\n      dup4\n        /* \"#utility.yul\":18177:18191   */\n      add\n        /* \"#utility.yul\":18173:18201   */\n      and\n        /* \"#utility.yul\":18163:18201   */\n      swap1\n      pop\n        /* \"#utility.yul\":18105:18207   */\n      swap2\n      swap1\n      pop\n      jump\t// out\n        /* \"#utility.yul\":18213:18391   */\n    tag_284:\n        /* \"#utility.yul\":18353:18383   */\n      0x52657669657720746865206170706c69636174696f6e20666972737400000000\n        /* \"#utility.yul\":18349:18350   */\n      0x00\n        /* \"#utility.yul\":18341:18347   */\n      dup3\n        /* \"#utility.yul\":18337:18351   */\n      add\n        /* \"#utility.yul\":18330:18384   */\n      mstore\n        /* \"#utility.yul\":18213:18391   */\n      pop\n      jump\t// out\n        /* \"#utility.yul\":18397:18571   */\n    tag_289:\n        /* \"#utility.yul\":18537:18563   */\n      0x4170706c69636174696f6e20616c72656164792073656e740000000000000000\n        /* \"#utility.yul\":18533:18534   */\n      0x00\n        /* \"#utility.yul\":18525:18531   */\n      dup3\n        /* \"#utility.yul\":18521:18535   */\n      add\n        /* \"#utility.yul\":18514:18564   */\n      mstore\n        /* \"#utility.yul\":18397:18571   */\n      pop\n      jump\t// out\n        /* \"#utility.yul\":18577:18806   */\n    tag_294:\n        /* \"#utility.yul\":18717:18751   */\n      0x596f7572206170706c69636174696f6e2068617320616c726561647920626565\n        /* \"#utility.yul\":18713:18714   */\n      0x00\n        /* \"#utility.yul\":18705:18711   */\n      dup3\n        /* \"#utility.yul\":18701:18715   */\n      add\n        /* \"#utility.yul\":18694:18752   */\n      mstore\n        /* \"#utility.yul\":18786:18798   */\n      0x6e2072656a656374656400000000000000000000000000000000000000000000\n        /* \"#utility.yul\":18781:18783   */\n      0x20\n        /* \"#utility.yul\":18773:18779   */\n      dup3\n        /* \"#utility.yul\":18769:18784   */\n      add\n        /* \"#utility.yul\":18762:18799   */\n      mstore\n        /* \"#utility.yul\":18577:18806   */\n      pop\n      jump\t// out\n        /* \"#utility.yul\":18812:18976   */\n    tag_299:\n        /* \"#utility.yul\":18952:18968   */\n      0x596f7572206e6f742061646d696e000000000000000000000000000000000000\n        /* \"#utility.yul\":18948:18949   */\n      0x00\n        /* \"#utility.yul\":18940:18946   */\n      dup3\n        /* \"#utility.yul\":18936:18950   */\n      add\n        /* \"#utility.yul\":18929:18969   */\n      mstore\n        /* \"#utility.yul\":18812:18976   */\n      pop\n      jump\t// out\n        /* \"#utility.yul\":18982:19157   */\n    tag_304:\n        /* \"#utility.yul\":19122:19149   */\n      0x596f7572206e6f7420507269766174652070726f766964657200000000000000\n        /* \"#utility.yul\":19118:19119   */\n      0x00\n        /* \"#utility.yul\":19110:19116   */\n      dup3\n        /* \"#utility.yul\":19106:19120   */\n      add\n        /* \"#utility.yul\":19099:19150   */\n      mstore\n        /* \"#utility.yul\":18982:19157   */\n      pop\n      jump\t// out\n        /* \"#utility.yul\":19163:19336   */\n    tag_309:\n        /* \"#utility.yul\":19303:19328   */\n      0x4170706c69636174696f6e20706861736520656e646564000000000000000000\n        /* \"#utility.yul\":19299:19300   */\n      0x00\n        /* \"#utility.yul\":19291:19297   */\n      dup3\n        /* \"#utility.yul\":19287:19301   */\n      add\n        /* \"#utility.yul\":19280:19329   */\n      mstore\n        /* \"#utility.yul\":19163:19336   */\n      pop\n      jump\t// out\n        /* \"#utility.yul\":19342:19584   */\n    tag_314:\n        /* \"#utility.yul\":19482:19516   */\n      0x596f752063616e27742073656e6420616e206170706c69636174696f6e20746f\n        /* \"#utility.yul\":19478:19479   */\n      0x00\n        /* \"#utility.yul\":19470:19476   */\n      dup3\n        /* \"#utility.yul\":19466:19480   */\n      add\n        /* \"#utility.yul\":19459:19517   */\n      mstore\n        /* \"#utility.yul\":19551:19576   */\n      0x20736f6d656f6e6520656c736527732061646472657373000000000000000000\n        /* \"#utility.yul\":19546:19548   */\n      0x20\n        /* \"#utility.yul\":19538:19544   */\n      dup3\n        /* \"#utility.yul\":19534:19549   */\n      add\n        /* \"#utility.yul\":19527:19577   */\n      mstore\n        /* \"#utility.yul\":19342:19584   */\n      pop\n      jump\t// out\n        /* \"#utility.yul\":19590:19712   */\n    tag_205:\n        /* \"#utility.yul\":19663:19687   */\n      tag_410\n        /* \"#utility.yul\":19681:19686   */\n      dup2\n        /* \"#utility.yul\":19663:19687   */\n      tag_240\n      jump\t// in\n    tag_410:\n        /* \"#utility.yul\":19656:19661   */\n      dup2\n        /* \"#utility.yul\":19653:19688   */\n      eq\n        /* \"#utility.yul\":19643:19706   */\n      tag_411\n      jumpi\n        /* \"#utility.yul\":19702:19703   */\n      0x00\n        /* \"#utility.yul\":19699:19700   */\n      dup1\n        /* \"#utility.yul\":19692:19704   */\n      revert\n        /* \"#utility.yul\":19643:19706   */\n    tag_411:\n        /* \"#utility.yul\":19590:19712   */\n      pop\n      jump\t// out\n\n    auxdata: 0xa26469706673582212201256f88dc4435b3541957241e265dbe1340dc2e09c9ed6dd62083ef60f99353a64736f6c63430008070033\n}\n",
				"bytecode": {
					"linkReferences": {},
					"object": "608060405234801561001057600080fd5b50611f22806100206000396000f3fe608060405234801561001057600080fd5b50600436106100935760003560e01c806376eada911161006657806376eada911461010c578063785963c31461013c5780638e4f8c6b14610158578063a678b65b14610188578063c10e3911146101a457610093565b80630ecb93c0146100985780631d3eea35146100b4578063506a222c146100d0578063686c4cea146100ee575b600080fd5b6100b260048036038101906100ad919061156a565b6101c2565b005b6100ce60048036038101906100c9919061156a565b6102dd565b005b6100d8610486565b6040516100e59190611914565b60405180910390f35b6100f6610669565b6040516101039190611914565b60405180910390f35b6101266004803603810190610121919061156a565b6107ac565b6040516101339190611a31565b60405180910390f35b610156600480360381019061015191906115e0565b610ae0565b005b610172600480360381019061016d9190611597565b610fbc565b60405161017f9190611936565b60405180910390f35b6101a2600480360381019061019d919061156a565b610fec565b005b6101ac6111f8565b6040516101b99190611914565b60405180910390f35b600060048111156101d6576101d5611c89565b5b6000803373ffffffffffffffffffffffffffffffffffffffff1673ffffffffffffffffffffffffffffffffffffffff16815260200190815260200160002060000160009054906101000a900460ff16600481111561023757610236611c89565b5b14610277576040517f08c379a000000000000000000000000000000000000000000000000000000000815260040161026e906119b1565b60405180910390fd5b6005819080600181540180825580915050600190039060005260206000200160009091909190916101000a81548173ffffffffffffffffffffffffffffffffffffffff021916908373ffffffffffffffffffffffffffffffffffffffff16021790555050565b600260048111156102f1576102f0611c89565b5b6000803373ffffffffffffffffffffffffffffffffffffffff1673ffffffffffffffffffffffffffffffffffffffff16815260200190815260200160002060000160009054906101000a900460ff16600481111561035257610351611c89565b5b14610392576040517f08c379a0000000000000000000000000000000000000000000000000000000008152600401610389906119d1565b60405180910390fd5b60001515600260003373ffffffffffffffffffffffffffffffffffffffff1673ffffffffffffffffffffffffffffffffffffffff16815260200190815260200160002060020160159054906101000a900460ff16151514610428576040517f08c379a000000000000000000000000000000000000000000000000000000000815260040161041f90611951565b60405180910390fd5b6000600260008373ffffffffffffffffffffffffffffffffffffffff1673ffffffffffffffffffffffffffffffffffffffff16815260200190815260200160002060020160146101000a81548160ff02191690831515021790555050565b60606002600481111561049c5761049b611c89565b5b6000803373ffffffffffffffffffffffffffffffffffffffff1673ffffffffffffffffffffffffffffffffffffffff16815260200190815260200160002060000160009054906101000a900460ff1660048111156104fd576104fc611c89565b5b1461053d576040517f08c379a0000000000000000000000000000000000000000000000000000000008152600401610534906119d1565b60405180910390fd5b606060005b600380549050811015610661576000806003838154811061056657610565611ce7565b5b9060005260206000200160009054906101000a900473ffffffffffffffffffffffffffffffffffffffff16905060001515600260008373ffffffffffffffffffffffffffffffffffffffff1673ffffffffffffffffffffffffffffffffffffffff16815260200190815260200160002060020160159054906101000a900460ff161515141561064c578084838151811061060357610602611ce7565b5b602002602001019073ffffffffffffffffffffffffffffffffffffffff16908173ffffffffffffffffffffffffffffffffffffffff1681525050818061064890611c11565b9250505b5050808061065990611c11565b915050610542565b508091505090565b60606002600481111561067f5761067e611c89565b5b6000803373ffffffffffffffffffffffffffffffffffffffff1673ffffffffffffffffffffffffffffffffffffffff16815260200190815260200160002060000160009054906101000a900460ff1660048111156106e0576106df611c89565b5b14610720576040517f08c379a0000000000000000000000000000000000000000000000000000000008152600401610717906119d1565b60405180910390fd5b60038054806020026020016040519081016040528092919081815260200182805480156107a257602002820191906000526020600020905b8160009054906101000a900473ffffffffffffffffffffffffffffffffffffffff1673ffffffffffffffffffffffffffffffffffffffff1681526020019060010190808311610758575b5050505050905090565b6107b46113f0565b600260048111156107c8576107c7611c89565b5b6000803373ffffffffffffffffffffffffffffffffffffffff1673ffffffffffffffffffffffffffffffffffffffff16815260200190815260200160002060000160009054906101000a900460ff16600481111561082957610828611c89565b5b14610869576040517f08c379a0000000000000000000000000000000000000000000000000000000008152600401610860906119d1565b60405180910390fd5b6001600260008473ffffffffffffffffffffffffffffffffffffffff1673ffffffffffffffffffffffffffffffffffffffff16815260200190815260200160002060020160156101000a81548160ff021916908315150217905550600260008373ffffffffffffffffffffffffffffffffffffffff1673ffffffffffffffffffffffffffffffffffffffff1681526020019081526020016000206040518060c001604052908160008201805461091e90611bae565b80601f016020809104026020016040519081016040528092919081815260200182805461094a90611bae565b80156109975780601f1061096c57610100808354040283529160200191610997565b820191906000526020600020905b81548152906001019060200180831161097a57829003601f168201915b505050505081526020016001820180546109b090611bae565b80601f01602080910402602001604051908101604052809291908181526020018280546109dc90611bae565b8015610a295780601f106109fe57610100808354040283529160200191610a29565b820191906000526020600020905b815481529060010190602001808311610a0c57829003601f168201915b505050505081526020016002820160009054906101000a900473ffffffffffffffffffffffffffffffffffffffff1673ffffffffffffffffffffffffffffffffffffffff1673ffffffffffffffffffffffffffffffffffffffff1681526020016002820160149054906101000a900460ff161515151581526020016002820160159054906101000a900460ff161515151581526020016002820160169054906101000a900460ff1615151515815250509050919050565b60008015156001600073ab8483f64d9c6d1ecf9b849ae677dd3315835cb273ffffffffffffffffffffffffffffffffffffffff1673ffffffffffffffffffffffffffffffffffffffff16815260200190815260200160002060000160009054906101000a900460ff161515148015610bbf5750600015156001600073ab8483f64d9c6d1ecf9b849ae677dd3315835cb273ffffffffffffffffffffffffffffffffffffffff1673ffffffffffffffffffffffffffffffffffffffff16815260200190815260200160002060000160009054906101000a900460ff161515145b610bfe576040517f08c379a0000000000000000000000000000000000000000000000000000000008152600401610bf5906119f1565b60405180910390fd5b8173ffffffffffffffffffffffffffffffffffffffff163373ffffffffffffffffffffffffffffffffffffffff1614610c6c576040517f08c379a0000000000000000000000000000000000000000000000000000000008152600401610c6390611a11565b60405180910390fd5b60005b600380549050811015610d4d573373ffffffffffffffffffffffffffffffffffffffff1660038281548110610ca757610ca6611ce7565b5b9060005260206000200160009054906101000a900473ffffffffffffffffffffffffffffffffffffffff1673ffffffffffffffffffffffffffffffffffffffff161415610cf357600191505b6000151582151514610d3a576040517f08c379a0000000000000000000000000000000000000000000000000000000008152600401610d3190611971565b60405180910390fd5b8080610d4590611c11565b915050610c6f565b5060001515600260003373ffffffffffffffffffffffffffffffffffffffff1673ffffffffffffffffffffffffffffffffffffffff16815260200190815260200160002060020160149054906101000a900460ff16151514610de4576040517f08c379a0000000000000000000000000000000000000000000000000000000008152600401610ddb90611991565b60405180910390fd5b6040518060c001604052808581526020018481526020018373ffffffffffffffffffffffffffffffffffffffff16815260200160011515815260200160001515815260200160011515815250600260003373ffffffffffffffffffffffffffffffffffffffff1673ffffffffffffffffffffffffffffffffffffffff1681526020019081526020016000206000820151816000019080519060200190610e8b929190611442565b506020820151816001019080519060200190610ea8929190611442565b5060408201518160020160006101000a81548173ffffffffffffffffffffffffffffffffffffffff021916908373ffffffffffffffffffffffffffffffffffffffff16021790555060608201518160020160146101000a81548160ff02191690831515021790555060808201518160020160156101000a81548160ff02191690831515021790555060a08201518160020160166101000a81548160ff0219169083151502179055509050506003339080600181540180825580915050600190039060005260206000200160009091909190916101000a81548173ffffffffffffffffffffffffffffffffffffffff021916908373ffffffffffffffffffffffffffffffffffffffff16021790555050505050565b600081604051602001610fcf91906118fd565b604051602081830303815290604052805190602001209050919050565b6002600481111561100057610fff611c89565b5b6000803373ffffffffffffffffffffffffffffffffffffffff1673ffffffffffffffffffffffffffffffffffffffff16815260200190815260200160002060000160009054906101000a900460ff16600481111561106157611060611c89565b5b146110a1576040517f08c379a0000000000000000000000000000000000000000000000000000000008152600401611098906119d1565b60405180910390fd5b60001515600260003373ffffffffffffffffffffffffffffffffffffffff1673ffffffffffffffffffffffffffffffffffffffff16815260200190815260200160002060020160159054906101000a900460ff16151514611137576040517f08c379a000000000000000000000000000000000000000000000000000000000815260040161112e90611951565b60405180910390fd5b6000600260008373ffffffffffffffffffffffffffffffffffffffff1673ffffffffffffffffffffffffffffffffffffffff16815260200190815260200160002060020160146101000a81548160ff0219169083151502179055506003819080600181540180825580915050600190039060005260206000200160009091909190916101000a81548173ffffffffffffffffffffffffffffffffffffffff021916908373ffffffffffffffffffffffffffffffffffffffff16021790555050565b60606000600481111561120e5761120d611c89565b5b6000803373ffffffffffffffffffffffffffffffffffffffff1673ffffffffffffffffffffffffffffffffffffffff16815260200190815260200160002060000160009054906101000a900460ff16600481111561126f5761126e611c89565b5b146112af576040517f08c379a00000000000000000000000000000000000000000000000000000000081526004016112a6906119b1565b60405180910390fd5b600260048111156112c3576112c2611c89565b5b6000803373ffffffffffffffffffffffffffffffffffffffff1673ffffffffffffffffffffffffffffffffffffffff16815260200190815260200160002060000160009054906101000a900460ff16600481111561132457611323611c89565b5b14611364576040517f08c379a000000000000000000000000000000000000000000000000000000000815260040161135b906119d1565b60405180910390fd5b60048054806020026020016040519081016040528092919081815260200182805480156113e657602002820191906000526020600020905b8160009054906101000a900473ffffffffffffffffffffffffffffffffffffffff1673ffffffffffffffffffffffffffffffffffffffff168152602001906001019080831161139c575b5050505050905090565b6040518060c001604052806060815260200160608152602001600073ffffffffffffffffffffffffffffffffffffffff1681526020016000151581526020016000151581526020016000151581525090565b82805461144e90611bae565b90600052602060002090601f01602090048101928261147057600085556114b7565b82601f1061148957805160ff19168380011785556114b7565b828001600101855582156114b7579182015b828111156114b657825182559160200191906001019061149b565b5b5090506114c491906114c8565b5090565b5b808211156114e15760008160009055506001016114c9565b5090565b60006114f86114f384611a78565b611a53565b90508281526020810184848401111561151457611513611d4a565b5b61151f848285611b6c565b509392505050565b60008135905061153681611ed5565b92915050565b600082601f83011261155157611550611d45565b5b81356115618482602086016114e5565b91505092915050565b6000602082840312156115805761157f611d54565b5b600061158e84828501611527565b91505092915050565b6000602082840312156115ad576115ac611d54565b5b600082013567ffffffffffffffff8111156115cb576115ca611d4f565b5b6115d78482850161153c565b91505092915050565b6000806000606084860312156115f9576115f8611d54565b5b600084013567ffffffffffffffff81111561161757611616611d4f565b5b6116238682870161153c565b935050602084013567ffffffffffffffff81111561164457611643611d4f565b5b6116508682870161153c565b925050604061166186828701611527565b9150509250925092565b60006116778383611683565b60208301905092915050565b61168c81611b1a565b82525050565b600061169d82611ab9565b6116a78185611adc565b93506116b283611aa9565b8060005b838110156116e35781516116ca888261166b565b97506116d583611acf565b9250506001810190506116b6565b5085935050505092915050565b6116f981611b2c565b82525050565b61170881611b38565b82525050565b600061171982611ac4565b6117238185611aed565b9350611733818560208601611b7b565b61173c81611d59565b840191505092915050565b600061175282611ac4565b61175c8185611b0f565b935061176c818560208601611b7b565b80840191505092915050565b6000611785601c83611afe565b915061179082611d6a565b602082019050919050565b60006117a8601883611afe565b91506117b382611d93565b602082019050919050565b60006117cb602a83611afe565b91506117d682611dbc565b604082019050919050565b60006117ee600e83611afe565b91506117f982611e0b565b602082019050919050565b6000611811601983611afe565b915061181c82611e34565b602082019050919050565b6000611834601783611afe565b915061183f82611e5d565b602082019050919050565b6000611857603783611afe565b915061186282611e86565b604082019050919050565b600060c083016000830151848203600086015261188a828261170e565b915050602083015184820360208601526118a4828261170e565b91505060408301516118b96040860182611683565b5060608301516118cc60608601826116f0565b5060808301516118df60808601826116f0565b5060a08301516118f260a08601826116f0565b508091505092915050565b60006119098284611747565b915081905092915050565b6000602082019050818103600083015261192e8184611692565b905092915050565b600060208201905061194b60008301846116ff565b92915050565b6000602082019050818103600083015261196a81611778565b9050919050565b6000602082019050818103600083015261198a8161179b565b9050919050565b600060208201905081810360008301526119aa816117be565b9050919050565b600060208201905081810360008301526119ca816117e1565b9050919050565b600060208201905081810360008301526119ea81611804565b9050919050565b60006020820190508181036000830152611a0a81611827565b9050919050565b60006020820190508181036000830152611a2a8161184a565b9050919050565b60006020820190508181036000830152611a4b818461186d565b905092915050565b6000611a5d611a6e565b9050611a698282611be0565b919050565b6000604051905090565b600067ffffffffffffffff821115611a9357611a92611d16565b5b611a9c82611d59565b9050602081019050919050565b6000819050602082019050919050565b600081519050919050565b600081519050919050565b6000602082019050919050565b600082825260208201905092915050565b600082825260208201905092915050565b600082825260208201905092915050565b600081905092915050565b6000611b2582611b42565b9050919050565b60008115159050919050565b6000819050919050565b600073ffffffffffffffffffffffffffffffffffffffff82169050919050565b6000819050919050565b82818337600083830152505050565b60005b83811015611b99578082015181840152602081019050611b7e565b83811115611ba8576000848401525b50505050565b60006002820490506001821680611bc657607f821691505b60208210811415611bda57611bd9611cb8565b5b50919050565b611be982611d59565b810181811067ffffffffffffffff82111715611c0857611c07611d16565b5b80604052505050565b6000611c1c82611b62565b91507fffffffffffffffffffffffffffffffffffffffffffffffffffffffffffffffff821415611c4f57611c4e611c5a565b5b600182019050919050565b7f4e487b7100000000000000000000000000000000000000000000000000000000600052601160045260246000fd5b7f4e487b7100000000000000000000000000000000000000000000000000000000600052602160045260246000fd5b7f4e487b7100000000000000000000000000000000000000000000000000000000600052602260045260246000fd5b7f4e487b7100000000000000000000000000000000000000000000000000000000600052603260045260246000fd5b7f4e487b7100000000000000000000000000000000000000000000000000000000600052604160045260246000fd5b600080fd5b600080fd5b600080fd5b600080fd5b6000601f19601f8301169050919050565b7f52657669657720746865206170706c69636174696f6e20666972737400000000600082015250565b7f4170706c69636174696f6e20616c72656164792073656e740000000000000000600082015250565b7f596f7572206170706c69636174696f6e2068617320616c72656164792062656560008201527f6e2072656a656374656400000000000000000000000000000000000000000000602082015250565b7f596f7572206e6f742061646d696e000000000000000000000000000000000000600082015250565b7f596f7572206e6f7420507269766174652070726f766964657200000000000000600082015250565b7f4170706c69636174696f6e20706861736520656e646564000000000000000000600082015250565b7f596f752063616e27742073656e6420616e206170706c69636174696f6e20746f60008201527f20736f6d656f6e6520656c736527732061646472657373000000000000000000602082015250565b611ede81611b1a565b8114611ee957600080fd5b5056fea26469706673582212201256f88dc4435b3541957241e265dbe1340dc2e09c9ed6dd62083ef60f99353a64736f6c63430008070033",
					"opcodes": "PUSH1 0x80 PUSH1 0x40 MSTORE CALLVALUE DUP1 ISZERO PUSH2 0x10 JUMPI PUSH1 0x0 DUP1 REVERT JUMPDEST POP PUSH2 0x1F22 DUP1 PUSH2 0x20 PUSH1 0x0 CODECOPY PUSH1 0x0 RETURN INVALID PUSH1 0x80 PUSH1 0x40 MSTORE CALLVALUE DUP1 ISZERO PUSH2 0x10 JUMPI PUSH1 0x0 DUP1 REVERT JUMPDEST POP PUSH1 0x4 CALLDATASIZE LT PUSH2 0x93 JUMPI PUSH1 0x0 CALLDATALOAD PUSH1 0xE0 SHR DUP1 PUSH4 0x76EADA91 GT PUSH2 0x66 JUMPI DUP1 PUSH4 0x76EADA91 EQ PUSH2 0x10C JUMPI DUP1 PUSH4 0x785963C3 EQ PUSH2 0x13C JUMPI DUP1 PUSH4 0x8E4F8C6B EQ PUSH2 0x158 JUMPI DUP1 PUSH4 0xA678B65B EQ PUSH2 0x188 JUMPI DUP1 PUSH4 0xC10E3911 EQ PUSH2 0x1A4 JUMPI PUSH2 0x93 JUMP JUMPDEST DUP1 PUSH4 0xECB93C0 EQ PUSH2 0x98 JUMPI DUP1 PUSH4 0x1D3EEA35 EQ PUSH2 0xB4 JUMPI DUP1 PUSH4 0x506A222C EQ PUSH2 0xD0 JUMPI DUP1 PUSH4 0x686C4CEA EQ PUSH2 0xEE JUMPI JUMPDEST PUSH1 0x0 DUP1 REVERT JUMPDEST PUSH2 0xB2 PUSH1 0x4 DUP1 CALLDATASIZE SUB DUP2 ADD SWAP1 PUSH2 0xAD SWAP2 SWAP1 PUSH2 0x156A JUMP JUMPDEST PUSH2 0x1C2 JUMP JUMPDEST STOP JUMPDEST PUSH2 0xCE PUSH1 0x4 DUP1 CALLDATASIZE SUB DUP2 ADD SWAP1 PUSH2 0xC9 SWAP2 SWAP1 PUSH2 0x156A JUMP JUMPDEST PUSH2 0x2DD JUMP JUMPDEST STOP JUMPDEST PUSH2 0xD8 PUSH2 0x486 JUMP JUMPDEST PUSH1 0x40 MLOAD PUSH2 0xE5 SWAP2 SWAP1 PUSH2 0x1914 JUMP JUMPDEST PUSH1 0x40 MLOAD DUP1 SWAP2 SUB SWAP1 RETURN JUMPDEST PUSH2 0xF6 PUSH2 0x669 JUMP JUMPDEST PUSH1 0x40 MLOAD PUSH2 0x103 SWAP2 SWAP1 PUSH2 0x1914 JUMP JUMPDEST PUSH1 0x40 MLOAD DUP1 SWAP2 SUB SWAP1 RETURN JUMPDEST PUSH2 0x126 PUSH1 0x4 DUP1 CALLDATASIZE SUB DUP2 ADD SWAP1 PUSH2 0x121 SWAP2 SWAP1 PUSH2 0x156A JUMP JUMPDEST PUSH2 0x7AC JUMP JUMPDEST PUSH1 0x40 MLOAD PUSH2 0x133 SWAP2 SWAP1 PUSH2 0x1A31 JUMP JUMPDEST PUSH1 0x40 MLOAD DUP1 SWAP2 SUB SWAP1 RETURN JUMPDEST PUSH2 0x156 PUSH1 0x4 DUP1 CALLDATASIZE SUB DUP2 ADD SWAP1 PUSH2 0x151 SWAP2 SWAP1 PUSH2 0x15E0 JUMP JUMPDEST PUSH2 0xAE0 JUMP JUMPDEST STOP JUMPDEST PUSH2 0x172 PUSH1 0x4 DUP1 CALLDATASIZE SUB DUP2 ADD SWAP1 PUSH2 0x16D SWAP2 SWAP1 PUSH2 0x1597 JUMP JUMPDEST PUSH2 0xFBC JUMP JUMPDEST PUSH1 0x40 MLOAD PUSH2 0x17F SWAP2 SWAP1 PUSH2 0x1936 JUMP JUMPDEST PUSH1 0x40 MLOAD DUP1 SWAP2 SUB SWAP1 RETURN JUMPDEST PUSH2 0x1A2 PUSH1 0x4 DUP1 CALLDATASIZE SUB DUP2 ADD SWAP1 PUSH2 0x19D SWAP2 SWAP1 PUSH2 0x156A JUMP JUMPDEST PUSH2 0xFEC JUMP JUMPDEST STOP JUMPDEST PUSH2 0x1AC PUSH2 0x11F8 JUMP JUMPDEST PUSH1 0x40 MLOAD PUSH2 0x1B9 SWAP2 SWAP1 PUSH2 0x1914 JUMP JUMPDEST PUSH1 0x40 MLOAD DUP1 SWAP2 SUB SWAP1 RETURN JUMPDEST PUSH1 0x0 PUSH1 0x4 DUP2 GT ISZERO PUSH2 0x1D6 JUMPI PUSH2 0x1D5 PUSH2 0x1C89 JUMP JUMPDEST JUMPDEST PUSH1 0x0 DUP1 CALLER PUSH20 0xFFFFFFFFFFFFFFFFFFFFFFFFFFFFFFFFFFFFFFFF AND PUSH20 0xFFFFFFFFFFFFFFFFFFFFFFFFFFFFFFFFFFFFFFFF AND DUP2 MSTORE PUSH1 0x20 ADD SWAP1 DUP2 MSTORE PUSH1 0x20 ADD PUSH1 0x0 KECCAK256 PUSH1 0x0 ADD PUSH1 0x0 SWAP1 SLOAD SWAP1 PUSH2 0x100 EXP SWAP1 DIV PUSH1 0xFF AND PUSH1 0x4 DUP2 GT ISZERO PUSH2 0x237 JUMPI PUSH2 0x236 PUSH2 0x1C89 JUMP JUMPDEST JUMPDEST EQ PUSH2 0x277 JUMPI PUSH1 0x40 MLOAD PUSH32 0x8C379A000000000000000000000000000000000000000000000000000000000 DUP2 MSTORE PUSH1 0x4 ADD PUSH2 0x26E SWAP1 PUSH2 0x19B1 JUMP JUMPDEST PUSH1 0x40 MLOAD DUP1 SWAP2 SUB SWAP1 REVERT JUMPDEST PUSH1 0x5 DUP2 SWAP1 DUP1 PUSH1 0x1 DUP2 SLOAD ADD DUP1 DUP3 SSTORE DUP1 SWAP2 POP POP PUSH1 0x1 SWAP1 SUB SWAP1 PUSH1 0x0 MSTORE PUSH1 0x20 PUSH1 0x0 KECCAK256 ADD PUSH1 0x0 SWAP1 SWAP2 SWAP1 SWAP2 SWAP1 SWAP2 PUSH2 0x100 EXP DUP2 SLOAD DUP2 PUSH20 0xFFFFFFFFFFFFFFFFFFFFFFFFFFFFFFFFFFFFFFFF MUL NOT AND SWAP1 DUP4 PUSH20 0xFFFFFFFFFFFFFFFFFFFFFFFFFFFFFFFFFFFFFFFF AND MUL OR SWAP1 SSTORE POP POP JUMP JUMPDEST PUSH1 0x2 PUSH1 0x4 DUP2 GT ISZERO PUSH2 0x2F1 JUMPI PUSH2 0x2F0 PUSH2 0x1C89 JUMP JUMPDEST JUMPDEST PUSH1 0x0 DUP1 CALLER PUSH20 0xFFFFFFFFFFFFFFFFFFFFFFFFFFFFFFFFFFFFFFFF AND PUSH20 0xFFFFFFFFFFFFFFFFFFFFFFFFFFFFFFFFFFFFFFFF AND DUP2 MSTORE PUSH1 0x20 ADD SWAP1 DUP2 MSTORE PUSH1 0x20 ADD PUSH1 0x0 KECCAK256 PUSH1 0x0 ADD PUSH1 0x0 SWAP1 SLOAD SWAP1 PUSH2 0x100 EXP SWAP1 DIV PUSH1 0xFF AND PUSH1 0x4 DUP2 GT ISZERO PUSH2 0x352 JUMPI PUSH2 0x351 PUSH2 0x1C89 JUMP JUMPDEST JUMPDEST EQ PUSH2 0x392 JUMPI PUSH1 0x40 MLOAD PUSH32 0x8C379A000000000000000000000000000000000000000000000000000000000 DUP2 MSTORE PUSH1 0x4 ADD PUSH2 0x389 SWAP1 PUSH2 0x19D1 JUMP JUMPDEST PUSH1 0x40 MLOAD DUP1 SWAP2 SUB SWAP1 REVERT JUMPDEST PUSH1 0x0 ISZERO ISZERO PUSH1 0x2 PUSH1 0x0 CALLER PUSH20 0xFFFFFFFFFFFFFFFFFFFFFFFFFFFFFFFFFFFFFFFF AND PUSH20 0xFFFFFFFFFFFFFFFFFFFFFFFFFFFFFFFFFFFFFFFF AND DUP2 MSTORE PUSH1 0x20 ADD SWAP1 DUP2 MSTORE PUSH1 0x20 ADD PUSH1 0x0 KECCAK256 PUSH1 0x2 ADD PUSH1 0x15 SWAP1 SLOAD SWAP1 PUSH2 0x100 EXP SWAP1 DIV PUSH1 0xFF AND ISZERO ISZERO EQ PUSH2 0x428 JUMPI PUSH1 0x40 MLOAD PUSH32 0x8C379A000000000000000000000000000000000000000000000000000000000 DUP2 MSTORE PUSH1 0x4 ADD PUSH2 0x41F SWAP1 PUSH2 0x1951 JUMP JUMPDEST PUSH1 0x40 MLOAD DUP1 SWAP2 SUB SWAP1 REVERT JUMPDEST PUSH1 0x0 PUSH1 0x2 PUSH1 0x0 DUP4 PUSH20 0xFFFFFFFFFFFFFFFFFFFFFFFFFFFFFFFFFFFFFFFF AND PUSH20 0xFFFFFFFFFFFFFFFFFFFFFFFFFFFFFFFFFFFFFFFF AND DUP2 MSTORE PUSH1 0x20 ADD SWAP1 DUP2 MSTORE PUSH1 0x20 ADD PUSH1 0x0 KECCAK256 PUSH1 0x2 ADD PUSH1 0x14 PUSH2 0x100 EXP DUP2 SLOAD DUP2 PUSH1 0xFF MUL NOT AND SWAP1 DUP4 ISZERO ISZERO MUL OR SWAP1 SSTORE POP POP JUMP JUMPDEST PUSH1 0x60 PUSH1 0x2 PUSH1 0x4 DUP2 GT ISZERO PUSH2 0x49C JUMPI PUSH2 0x49B PUSH2 0x1C89 JUMP JUMPDEST JUMPDEST PUSH1 0x0 DUP1 CALLER PUSH20 0xFFFFFFFFFFFFFFFFFFFFFFFFFFFFFFFFFFFFFFFF AND PUSH20 0xFFFFFFFFFFFFFFFFFFFFFFFFFFFFFFFFFFFFFFFF AND DUP2 MSTORE PUSH1 0x20 ADD SWAP1 DUP2 MSTORE PUSH1 0x20 ADD PUSH1 0x0 KECCAK256 PUSH1 0x0 ADD PUSH1 0x0 SWAP1 SLOAD SWAP1 PUSH2 0x100 EXP SWAP1 DIV PUSH1 0xFF AND PUSH1 0x4 DUP2 GT ISZERO PUSH2 0x4FD JUMPI PUSH2 0x4FC PUSH2 0x1C89 JUMP JUMPDEST JUMPDEST EQ PUSH2 0x53D JUMPI PUSH1 0x40 MLOAD PUSH32 0x8C379A000000000000000000000000000000000000000000000000000000000 DUP2 MSTORE PUSH1 0x4 ADD PUSH2 0x534 SWAP1 PUSH2 0x19D1 JUMP JUMPDEST PUSH1 0x40 MLOAD DUP1 SWAP2 SUB SWAP1 REVERT JUMPDEST PUSH1 0x60 PUSH1 0x0 JUMPDEST PUSH1 0x3 DUP1 SLOAD SWAP1 POP DUP2 LT ISZERO PUSH2 0x661 JUMPI PUSH1 0x0 DUP1 PUSH1 0x3 DUP4 DUP2 SLOAD DUP2 LT PUSH2 0x566 JUMPI PUSH2 0x565 PUSH2 0x1CE7 JUMP JUMPDEST JUMPDEST SWAP1 PUSH1 0x0 MSTORE PUSH1 0x20 PUSH1 0x0 KECCAK256 ADD PUSH1 0x0 SWAP1 SLOAD SWAP1 PUSH2 0x100 EXP SWAP1 DIV PUSH20 0xFFFFFFFFFFFFFFFFFFFFFFFFFFFFFFFFFFFFFFFF AND SWAP1 POP PUSH1 0x0 ISZERO ISZERO PUSH1 0x2 PUSH1 0x0 DUP4 PUSH20 0xFFFFFFFFFFFFFFFFFFFFFFFFFFFFFFFFFFFFFFFF AND PUSH20 0xFFFFFFFFFFFFFFFFFFFFFFFFFFFFFFFFFFFFFFFF AND DUP2 MSTORE PUSH1 0x20 ADD SWAP1 DUP2 MSTORE PUSH1 0x20 ADD PUSH1 0x0 KECCAK256 PUSH1 0x2 ADD PUSH1 0x15 SWAP1 SLOAD SWAP1 PUSH2 0x100 EXP SWAP1 DIV PUSH1 0xFF AND ISZERO ISZERO EQ ISZERO PUSH2 0x64C JUMPI DUP1 DUP5 DUP4 DUP2 MLOAD DUP2 LT PUSH2 0x603 JUMPI PUSH2 0x602 PUSH2 0x1CE7 JUMP JUMPDEST JUMPDEST PUSH1 0x20 MUL PUSH1 0x20 ADD ADD SWAP1 PUSH20 0xFFFFFFFFFFFFFFFFFFFFFFFFFFFFFFFFFFFFFFFF AND SWAP1 DUP2 PUSH20 0xFFFFFFFFFFFFFFFFFFFFFFFFFFFFFFFFFFFFFFFF AND DUP2 MSTORE POP POP DUP2 DUP1 PUSH2 0x648 SWAP1 PUSH2 0x1C11 JUMP JUMPDEST SWAP3 POP POP JUMPDEST POP POP DUP1 DUP1 PUSH2 0x659 SWAP1 PUSH2 0x1C11 JUMP JUMPDEST SWAP2 POP POP PUSH2 0x542 JUMP JUMPDEST POP DUP1 SWAP2 POP POP SWAP1 JUMP JUMPDEST PUSH1 0x60 PUSH1 0x2 PUSH1 0x4 DUP2 GT ISZERO PUSH2 0x67F JUMPI PUSH2 0x67E PUSH2 0x1C89 JUMP JUMPDEST JUMPDEST PUSH1 0x0 DUP1 CALLER PUSH20 0xFFFFFFFFFFFFFFFFFFFFFFFFFFFFFFFFFFFFFFFF AND PUSH20 0xFFFFFFFFFFFFFFFFFFFFFFFFFFFFFFFFFFFFFFFF AND DUP2 MSTORE PUSH1 0x20 ADD SWAP1 DUP2 MSTORE PUSH1 0x20 ADD PUSH1 0x0 KECCAK256 PUSH1 0x0 ADD PUSH1 0x0 SWAP1 SLOAD SWAP1 PUSH2 0x100 EXP SWAP1 DIV PUSH1 0xFF AND PUSH1 0x4 DUP2 GT ISZERO PUSH2 0x6E0 JUMPI PUSH2 0x6DF PUSH2 0x1C89 JUMP JUMPDEST JUMPDEST EQ PUSH2 0x720 JUMPI PUSH1 0x40 MLOAD PUSH32 0x8C379A000000000000000000000000000000000000000000000000000000000 DUP2 MSTORE PUSH1 0x4 ADD PUSH2 0x717 SWAP1 PUSH2 0x19D1 JUMP JUMPDEST PUSH1 0x40 MLOAD DUP1 SWAP2 SUB SWAP1 REVERT JUMPDEST PUSH1 0x3 DUP1 SLOAD DUP1 PUSH1 0x20 MUL PUSH1 0x20 ADD PUSH1 0x40 MLOAD SWAP1 DUP2 ADD PUSH1 0x40 MSTORE DUP1 SWAP3 SWAP2 SWAP1 DUP2 DUP2 MSTORE PUSH1 0x20 ADD DUP3 DUP1 SLOAD DUP1 ISZERO PUSH2 0x7A2 JUMPI PUSH1 0x20 MUL DUP3 ADD SWAP2 SWAP1 PUSH1 0x0 MSTORE PUSH1 0x20 PUSH1 0x0 KECCAK256 SWAP1 JUMPDEST DUP2 PUSH1 0x0 SWAP1 SLOAD SWAP1 PUSH2 0x100 EXP SWAP1 DIV PUSH20 0xFFFFFFFFFFFFFFFFFFFFFFFFFFFFFFFFFFFFFFFF AND PUSH20 0xFFFFFFFFFFFFFFFFFFFFFFFFFFFFFFFFFFFFFFFF AND DUP2 MSTORE PUSH1 0x20 ADD SWAP1 PUSH1 0x1 ADD SWAP1 DUP1 DUP4 GT PUSH2 0x758 JUMPI JUMPDEST POP POP POP POP POP SWAP1 POP SWAP1 JUMP JUMPDEST PUSH2 0x7B4 PUSH2 0x13F0 JUMP JUMPDEST PUSH1 0x2 PUSH1 0x4 DUP2 GT ISZERO PUSH2 0x7C8 JUMPI PUSH2 0x7C7 PUSH2 0x1C89 JUMP JUMPDEST JUMPDEST PUSH1 0x0 DUP1 CALLER PUSH20 0xFFFFFFFFFFFFFFFFFFFFFFFFFFFFFFFFFFFFFFFF AND PUSH20 0xFFFFFFFFFFFFFFFFFFFFFFFFFFFFFFFFFFFFFFFF AND DUP2 MSTORE PUSH1 0x20 ADD SWAP1 DUP2 MSTORE PUSH1 0x20 ADD PUSH1 0x0 KECCAK256 PUSH1 0x0 ADD PUSH1 0x0 SWAP1 SLOAD SWAP1 PUSH2 0x100 EXP SWAP1 DIV PUSH1 0xFF AND PUSH1 0x4 DUP2 GT ISZERO PUSH2 0x829 JUMPI PUSH2 0x828 PUSH2 0x1C89 JUMP JUMPDEST JUMPDEST EQ PUSH2 0x869 JUMPI PUSH1 0x40 MLOAD PUSH32 0x8C379A000000000000000000000000000000000000000000000000000000000 DUP2 MSTORE PUSH1 0x4 ADD PUSH2 0x860 SWAP1 PUSH2 0x19D1 JUMP JUMPDEST PUSH1 0x40 MLOAD DUP1 SWAP2 SUB SWAP1 REVERT JUMPDEST PUSH1 0x1 PUSH1 0x2 PUSH1 0x0 DUP5 PUSH20 0xFFFFFFFFFFFFFFFFFFFFFFFFFFFFFFFFFFFFFFFF AND PUSH20 0xFFFFFFFFFFFFFFFFFFFFFFFFFFFFFFFFFFFFFFFF AND DUP2 MSTORE PUSH1 0x20 ADD SWAP1 DUP2 MSTORE PUSH1 0x20 ADD PUSH1 0x0 KECCAK256 PUSH1 0x2 ADD PUSH1 0x15 PUSH2 0x100 EXP DUP2 SLOAD DUP2 PUSH1 0xFF MUL NOT AND SWAP1 DUP4 ISZERO ISZERO MUL OR SWAP1 SSTORE POP PUSH1 0x2 PUSH1 0x0 DUP4 PUSH20 0xFFFFFFFFFFFFFFFFFFFFFFFFFFFFFFFFFFFFFFFF AND PUSH20 0xFFFFFFFFFFFFFFFFFFFFFFFFFFFFFFFFFFFFFFFF AND DUP2 MSTORE PUSH1 0x20 ADD SWAP1 DUP2 MSTORE PUSH1 0x20 ADD PUSH1 0x0 KECCAK256 PUSH1 0x40 MLOAD DUP1 PUSH1 0xC0 ADD PUSH1 0x40 MSTORE SWAP1 DUP2 PUSH1 0x0 DUP3 ADD DUP1 SLOAD PUSH2 0x91E SWAP1 PUSH2 0x1BAE JUMP JUMPDEST DUP1 PUSH1 0x1F ADD PUSH1 0x20 DUP1 SWAP2 DIV MUL PUSH1 0x20 ADD PUSH1 0x40 MLOAD SWAP1 DUP2 ADD PUSH1 0x40 MSTORE DUP1 SWAP3 SWAP2 SWAP1 DUP2 DUP2 MSTORE PUSH1 0x20 ADD DUP3 DUP1 SLOAD PUSH2 0x94A SWAP1 PUSH2 0x1BAE JUMP JUMPDEST DUP1 ISZERO PUSH2 0x997 JUMPI DUP1 PUSH1 0x1F LT PUSH2 0x96C JUMPI PUSH2 0x100 DUP1 DUP4 SLOAD DIV MUL DUP4 MSTORE SWAP2 PUSH1 0x20 ADD SWAP2 PUSH2 0x997 JUMP JUMPDEST DUP3 ADD SWAP2 SWAP1 PUSH1 0x0 MSTORE PUSH1 0x20 PUSH1 0x0 KECCAK256 SWAP1 JUMPDEST DUP2 SLOAD DUP2 MSTORE SWAP1 PUSH1 0x1 ADD SWAP1 PUSH1 0x20 ADD DUP1 DUP4 GT PUSH2 0x97A JUMPI DUP3 SWAP1 SUB PUSH1 0x1F AND DUP3 ADD SWAP2 JUMPDEST POP POP POP POP POP DUP2 MSTORE PUSH1 0x20 ADD PUSH1 0x1 DUP3 ADD DUP1 SLOAD PUSH2 0x9B0 SWAP1 PUSH2 0x1BAE JUMP JUMPDEST DUP1 PUSH1 0x1F ADD PUSH1 0x20 DUP1 SWAP2 DIV MUL PUSH1 0x20 ADD PUSH1 0x40 MLOAD SWAP1 DUP2 ADD PUSH1 0x40 MSTORE DUP1 SWAP3 SWAP2 SWAP1 DUP2 DUP2 MSTORE PUSH1 0x20 ADD DUP3 DUP1 SLOAD PUSH2 0x9DC SWAP1 PUSH2 0x1BAE JUMP JUMPDEST DUP1 ISZERO PUSH2 0xA29 JUMPI DUP1 PUSH1 0x1F LT PUSH2 0x9FE JUMPI PUSH2 0x100 DUP1 DUP4 SLOAD DIV MUL DUP4 MSTORE SWAP2 PUSH1 0x20 ADD SWAP2 PUSH2 0xA29 JUMP JUMPDEST DUP3 ADD SWAP2 SWAP1 PUSH1 0x0 MSTORE PUSH1 0x20 PUSH1 0x0 KECCAK256 SWAP1 JUMPDEST DUP2 SLOAD DUP2 MSTORE SWAP1 PUSH1 0x1 ADD SWAP1 PUSH1 0x20 ADD DUP1 DUP4 GT PUSH2 0xA0C JUMPI DUP3 SWAP1 SUB PUSH1 0x1F AND DUP3 ADD SWAP2 JUMPDEST POP POP POP POP POP DUP2 MSTORE PUSH1 0x20 ADD PUSH1 0x2 DUP3 ADD PUSH1 0x0 SWAP1 SLOAD SWAP1 PUSH2 0x100 EXP SWAP1 DIV PUSH20 0xFFFFFFFFFFFFFFFFFFFFFFFFFFFFFFFFFFFFFFFF AND PUSH20 0xFFFFFFFFFFFFFFFFFFFFFFFFFFFFFFFFFFFFFFFF AND PUSH20 0xFFFFFFFFFFFFFFFFFFFFFFFFFFFFFFFFFFFFFFFF AND DUP2 MSTORE PUSH1 0x20 ADD PUSH1 0x2 DUP3 ADD PUSH1 0x14 SWAP1 SLOAD SWAP1 PUSH2 0x100 EXP SWAP1 DIV PUSH1 0xFF AND ISZERO ISZERO ISZERO ISZERO DUP2 MSTORE PUSH1 0x20 ADD PUSH1 0x2 DUP3 ADD PUSH1 0x15 SWAP1 SLOAD SWAP1 PUSH2 0x100 EXP SWAP1 DIV PUSH1 0xFF AND ISZERO ISZERO ISZERO ISZERO DUP2 MSTORE PUSH1 0x20 ADD PUSH1 0x2 DUP3 ADD PUSH1 0x16 SWAP1 SLOAD SWAP1 PUSH2 0x100 EXP SWAP1 DIV PUSH1 0xFF AND ISZERO ISZERO ISZERO ISZERO DUP2 MSTORE POP POP SWAP1 POP SWAP2 SWAP1 POP JUMP JUMPDEST PUSH1 0x0 DUP1 ISZERO ISZERO PUSH1 0x1 PUSH1 0x0 PUSH20 0xAB8483F64D9C6D1ECF9B849AE677DD3315835CB2 PUSH20 0xFFFFFFFFFFFFFFFFFFFFFFFFFFFFFFFFFFFFFFFF AND PUSH20 0xFFFFFFFFFFFFFFFFFFFFFFFFFFFFFFFFFFFFFFFF AND DUP2 MSTORE PUSH1 0x20 ADD SWAP1 DUP2 MSTORE PUSH1 0x20 ADD PUSH1 0x0 KECCAK256 PUSH1 0x0 ADD PUSH1 0x0 SWAP1 SLOAD SWAP1 PUSH2 0x100 EXP SWAP1 DIV PUSH1 0xFF AND ISZERO ISZERO EQ DUP1 ISZERO PUSH2 0xBBF JUMPI POP PUSH1 0x0 ISZERO ISZERO PUSH1 0x1 PUSH1 0x0 PUSH20 0xAB8483F64D9C6D1ECF9B849AE677DD3315835CB2 PUSH20 0xFFFFFFFFFFFFFFFFFFFFFFFFFFFFFFFFFFFFFFFF AND PUSH20 0xFFFFFFFFFFFFFFFFFFFFFFFFFFFFFFFFFFFFFFFF AND DUP2 MSTORE PUSH1 0x20 ADD SWAP1 DUP2 MSTORE PUSH1 0x20 ADD PUSH1 0x0 KECCAK256 PUSH1 0x0 ADD PUSH1 0x0 SWAP1 SLOAD SWAP1 PUSH2 0x100 EXP SWAP1 DIV PUSH1 0xFF AND ISZERO ISZERO EQ JUMPDEST PUSH2 0xBFE JUMPI PUSH1 0x40 MLOAD PUSH32 0x8C379A000000000000000000000000000000000000000000000000000000000 DUP2 MSTORE PUSH1 0x4 ADD PUSH2 0xBF5 SWAP1 PUSH2 0x19F1 JUMP JUMPDEST PUSH1 0x40 MLOAD DUP1 SWAP2 SUB SWAP1 REVERT JUMPDEST DUP2 PUSH20 0xFFFFFFFFFFFFFFFFFFFFFFFFFFFFFFFFFFFFFFFF AND CALLER PUSH20 0xFFFFFFFFFFFFFFFFFFFFFFFFFFFFFFFFFFFFFFFF AND EQ PUSH2 0xC6C JUMPI PUSH1 0x40 MLOAD PUSH32 0x8C379A000000000000000000000000000000000000000000000000000000000 DUP2 MSTORE PUSH1 0x4 ADD PUSH2 0xC63 SWAP1 PUSH2 0x1A11 JUMP JUMPDEST PUSH1 0x40 MLOAD DUP1 SWAP2 SUB SWAP1 REVERT JUMPDEST PUSH1 0x0 JUMPDEST PUSH1 0x3 DUP1 SLOAD SWAP1 POP DUP2 LT ISZERO PUSH2 0xD4D JUMPI CALLER PUSH20 0xFFFFFFFFFFFFFFFFFFFFFFFFFFFFFFFFFFFFFFFF AND PUSH1 0x3 DUP3 DUP2 SLOAD DUP2 LT PUSH2 0xCA7 JUMPI PUSH2 0xCA6 PUSH2 0x1CE7 JUMP JUMPDEST JUMPDEST SWAP1 PUSH1 0x0 MSTORE PUSH1 0x20 PUSH1 0x0 KECCAK256 ADD PUSH1 0x0 SWAP1 SLOAD SWAP1 PUSH2 0x100 EXP SWAP1 DIV PUSH20 0xFFFFFFFFFFFFFFFFFFFFFFFFFFFFFFFFFFFFFFFF AND PUSH20 0xFFFFFFFFFFFFFFFFFFFFFFFFFFFFFFFFFFFFFFFF AND EQ ISZERO PUSH2 0xCF3 JUMPI PUSH1 0x1 SWAP2 POP JUMPDEST PUSH1 0x0 ISZERO ISZERO DUP3 ISZERO ISZERO EQ PUSH2 0xD3A JUMPI PUSH1 0x40 MLOAD PUSH32 0x8C379A000000000000000000000000000000000000000000000000000000000 DUP2 MSTORE PUSH1 0x4 ADD PUSH2 0xD31 SWAP1 PUSH2 0x1971 JUMP JUMPDEST PUSH1 0x40 MLOAD DUP1 SWAP2 SUB SWAP1 REVERT JUMPDEST DUP1 DUP1 PUSH2 0xD45 SWAP1 PUSH2 0x1C11 JUMP JUMPDEST SWAP2 POP POP PUSH2 0xC6F JUMP JUMPDEST POP PUSH1 0x0 ISZERO ISZERO PUSH1 0x2 PUSH1 0x0 CALLER PUSH20 0xFFFFFFFFFFFFFFFFFFFFFFFFFFFFFFFFFFFFFFFF AND PUSH20 0xFFFFFFFFFFFFFFFFFFFFFFFFFFFFFFFFFFFFFFFF AND DUP2 MSTORE PUSH1 0x20 ADD SWAP1 DUP2 MSTORE PUSH1 0x20 ADD PUSH1 0x0 KECCAK256 PUSH1 0x2 ADD PUSH1 0x14 SWAP1 SLOAD SWAP1 PUSH2 0x100 EXP SWAP1 DIV PUSH1 0xFF AND ISZERO ISZERO EQ PUSH2 0xDE4 JUMPI PUSH1 0x40 MLOAD PUSH32 0x8C379A000000000000000000000000000000000000000000000000000000000 DUP2 MSTORE PUSH1 0x4 ADD PUSH2 0xDDB SWAP1 PUSH2 0x1991 JUMP JUMPDEST PUSH1 0x40 MLOAD DUP1 SWAP2 SUB SWAP1 REVERT JUMPDEST PUSH1 0x40 MLOAD DUP1 PUSH1 0xC0 ADD PUSH1 0x40 MSTORE DUP1 DUP6 DUP2 MSTORE PUSH1 0x20 ADD DUP5 DUP2 MSTORE PUSH1 0x20 ADD DUP4 PUSH20 0xFFFFFFFFFFFFFFFFFFFFFFFFFFFFFFFFFFFFFFFF AND DUP2 MSTORE PUSH1 0x20 ADD PUSH1 0x1 ISZERO ISZERO DUP2 MSTORE PUSH1 0x20 ADD PUSH1 0x0 ISZERO ISZERO DUP2 MSTORE PUSH1 0x20 ADD PUSH1 0x1 ISZERO ISZERO DUP2 MSTORE POP PUSH1 0x2 PUSH1 0x0 CALLER PUSH20 0xFFFFFFFFFFFFFFFFFFFFFFFFFFFFFFFFFFFFFFFF AND PUSH20 0xFFFFFFFFFFFFFFFFFFFFFFFFFFFFFFFFFFFFFFFF AND DUP2 MSTORE PUSH1 0x20 ADD SWAP1 DUP2 MSTORE PUSH1 0x20 ADD PUSH1 0x0 KECCAK256 PUSH1 0x0 DUP3 ADD MLOAD DUP2 PUSH1 0x0 ADD SWAP1 DUP1 MLOAD SWAP1 PUSH1 0x20 ADD SWAP1 PUSH2 0xE8B SWAP3 SWAP2 SWAP1 PUSH2 0x1442 JUMP JUMPDEST POP PUSH1 0x20 DUP3 ADD MLOAD DUP2 PUSH1 0x1 ADD SWAP1 DUP1 MLOAD SWAP1 PUSH1 0x20 ADD SWAP1 PUSH2 0xEA8 SWAP3 SWAP2 SWAP1 PUSH2 0x1442 JUMP JUMPDEST POP PUSH1 0x40 DUP3 ADD MLOAD DUP2 PUSH1 0x2 ADD PUSH1 0x0 PUSH2 0x100 EXP DUP2 SLOAD DUP2 PUSH20 0xFFFFFFFFFFFFFFFFFFFFFFFFFFFFFFFFFFFFFFFF MUL NOT AND SWAP1 DUP4 PUSH20 0xFFFFFFFFFFFFFFFFFFFFFFFFFFFFFFFFFFFFFFFF AND MUL OR SWAP1 SSTORE POP PUSH1 0x60 DUP3 ADD MLOAD DUP2 PUSH1 0x2 ADD PUSH1 0x14 PUSH2 0x100 EXP DUP2 SLOAD DUP2 PUSH1 0xFF MUL NOT AND SWAP1 DUP4 ISZERO ISZERO MUL OR SWAP1 SSTORE POP PUSH1 0x80 DUP3 ADD MLOAD DUP2 PUSH1 0x2 ADD PUSH1 0x15 PUSH2 0x100 EXP DUP2 SLOAD DUP2 PUSH1 0xFF MUL NOT AND SWAP1 DUP4 ISZERO ISZERO MUL OR SWAP1 SSTORE POP PUSH1 0xA0 DUP3 ADD MLOAD DUP2 PUSH1 0x2 ADD PUSH1 0x16 PUSH2 0x100 EXP DUP2 SLOAD DUP2 PUSH1 0xFF MUL NOT AND SWAP1 DUP4 ISZERO ISZERO MUL OR SWAP1 SSTORE POP SWAP1 POP POP PUSH1 0x3 CALLER SWAP1 DUP1 PUSH1 0x1 DUP2 SLOAD ADD DUP1 DUP3 SSTORE DUP1 SWAP2 POP POP PUSH1 0x1 SWAP1 SUB SWAP1 PUSH1 0x0 MSTORE PUSH1 0x20 PUSH1 0x0 KECCAK256 ADD PUSH1 0x0 SWAP1 SWAP2 SWAP1 SWAP2 SWAP1 SWAP2 PUSH2 0x100 EXP DUP2 SLOAD DUP2 PUSH20 0xFFFFFFFFFFFFFFFFFFFFFFFFFFFFFFFFFFFFFFFF MUL NOT AND SWAP1 DUP4 PUSH20 0xFFFFFFFFFFFFFFFFFFFFFFFFFFFFFFFFFFFFFFFF AND MUL OR SWAP1 SSTORE POP POP POP POP POP JUMP JUMPDEST PUSH1 0x0 DUP2 PUSH1 0x40 MLOAD PUSH1 0x20 ADD PUSH2 0xFCF SWAP2 SWAP1 PUSH2 0x18FD JUMP JUMPDEST PUSH1 0x40 MLOAD PUSH1 0x20 DUP2 DUP4 SUB SUB DUP2 MSTORE SWAP1 PUSH1 0x40 MSTORE DUP1 MLOAD SWAP1 PUSH1 0x20 ADD KECCAK256 SWAP1 POP SWAP2 SWAP1 POP JUMP JUMPDEST PUSH1 0x2 PUSH1 0x4 DUP2 GT ISZERO PUSH2 0x1000 JUMPI PUSH2 0xFFF PUSH2 0x1C89 JUMP JUMPDEST JUMPDEST PUSH1 0x0 DUP1 CALLER PUSH20 0xFFFFFFFFFFFFFFFFFFFFFFFFFFFFFFFFFFFFFFFF AND PUSH20 0xFFFFFFFFFFFFFFFFFFFFFFFFFFFFFFFFFFFFFFFF AND DUP2 MSTORE PUSH1 0x20 ADD SWAP1 DUP2 MSTORE PUSH1 0x20 ADD PUSH1 0x0 KECCAK256 PUSH1 0x0 ADD PUSH1 0x0 SWAP1 SLOAD SWAP1 PUSH2 0x100 EXP SWAP1 DIV PUSH1 0xFF AND PUSH1 0x4 DUP2 GT ISZERO PUSH2 0x1061 JUMPI PUSH2 0x1060 PUSH2 0x1C89 JUMP JUMPDEST JUMPDEST EQ PUSH2 0x10A1 JUMPI PUSH1 0x40 MLOAD PUSH32 0x8C379A000000000000000000000000000000000000000000000000000000000 DUP2 MSTORE PUSH1 0x4 ADD PUSH2 0x1098 SWAP1 PUSH2 0x19D1 JUMP JUMPDEST PUSH1 0x40 MLOAD DUP1 SWAP2 SUB SWAP1 REVERT JUMPDEST PUSH1 0x0 ISZERO ISZERO PUSH1 0x2 PUSH1 0x0 CALLER PUSH20 0xFFFFFFFFFFFFFFFFFFFFFFFFFFFFFFFFFFFFFFFF AND PUSH20 0xFFFFFFFFFFFFFFFFFFFFFFFFFFFFFFFFFFFFFFFF AND DUP2 MSTORE PUSH1 0x20 ADD SWAP1 DUP2 MSTORE PUSH1 0x20 ADD PUSH1 0x0 KECCAK256 PUSH1 0x2 ADD PUSH1 0x15 SWAP1 SLOAD SWAP1 PUSH2 0x100 EXP SWAP1 DIV PUSH1 0xFF AND ISZERO ISZERO EQ PUSH2 0x1137 JUMPI PUSH1 0x40 MLOAD PUSH32 0x8C379A000000000000000000000000000000000000000000000000000000000 DUP2 MSTORE PUSH1 0x4 ADD PUSH2 0x112E SWAP1 PUSH2 0x1951 JUMP JUMPDEST PUSH1 0x40 MLOAD DUP1 SWAP2 SUB SWAP1 REVERT JUMPDEST PUSH1 0x0 PUSH1 0x2 PUSH1 0x0 DUP4 PUSH20 0xFFFFFFFFFFFFFFFFFFFFFFFFFFFFFFFFFFFFFFFF AND PUSH20 0xFFFFFFFFFFFFFFFFFFFFFFFFFFFFFFFFFFFFFFFF AND DUP2 MSTORE PUSH1 0x20 ADD SWAP1 DUP2 MSTORE PUSH1 0x20 ADD PUSH1 0x0 KECCAK256 PUSH1 0x2 ADD PUSH1 0x14 PUSH2 0x100 EXP DUP2 SLOAD DUP2 PUSH1 0xFF MUL NOT AND SWAP1 DUP4 ISZERO ISZERO MUL OR SWAP1 SSTORE POP PUSH1 0x3 DUP2 SWAP1 DUP1 PUSH1 0x1 DUP2 SLOAD ADD DUP1 DUP3 SSTORE DUP1 SWAP2 POP POP PUSH1 0x1 SWAP1 SUB SWAP1 PUSH1 0x0 MSTORE PUSH1 0x20 PUSH1 0x0 KECCAK256 ADD PUSH1 0x0 SWAP1 SWAP2 SWAP1 SWAP2 SWAP1 SWAP2 PUSH2 0x100 EXP DUP2 SLOAD DUP2 PUSH20 0xFFFFFFFFFFFFFFFFFFFFFFFFFFFFFFFFFFFFFFFF MUL NOT AND SWAP1 DUP4 PUSH20 0xFFFFFFFFFFFFFFFFFFFFFFFFFFFFFFFFFFFFFFFF AND MUL OR SWAP1 SSTORE POP POP JUMP JUMPDEST PUSH1 0x60 PUSH1 0x0 PUSH1 0x4 DUP2 GT ISZERO PUSH2 0x120E JUMPI PUSH2 0x120D PUSH2 0x1C89 JUMP JUMPDEST JUMPDEST PUSH1 0x0 DUP1 CALLER PUSH20 0xFFFFFFFFFFFFFFFFFFFFFFFFFFFFFFFFFFFFFFFF AND PUSH20 0xFFFFFFFFFFFFFFFFFFFFFFFFFFFFFFFFFFFFFFFF AND DUP2 MSTORE PUSH1 0x20 ADD SWAP1 DUP2 MSTORE PUSH1 0x20 ADD PUSH1 0x0 KECCAK256 PUSH1 0x0 ADD PUSH1 0x0 SWAP1 SLOAD SWAP1 PUSH2 0x100 EXP SWAP1 DIV PUSH1 0xFF AND PUSH1 0x4 DUP2 GT ISZERO PUSH2 0x126F JUMPI PUSH2 0x126E PUSH2 0x1C89 JUMP JUMPDEST JUMPDEST EQ PUSH2 0x12AF JUMPI PUSH1 0x40 MLOAD PUSH32 0x8C379A000000000000000000000000000000000000000000000000000000000 DUP2 MSTORE PUSH1 0x4 ADD PUSH2 0x12A6 SWAP1 PUSH2 0x19B1 JUMP JUMPDEST PUSH1 0x40 MLOAD DUP1 SWAP2 SUB SWAP1 REVERT JUMPDEST PUSH1 0x2 PUSH1 0x4 DUP2 GT ISZERO PUSH2 0x12C3 JUMPI PUSH2 0x12C2 PUSH2 0x1C89 JUMP JUMPDEST JUMPDEST PUSH1 0x0 DUP1 CALLER PUSH20 0xFFFFFFFFFFFFFFFFFFFFFFFFFFFFFFFFFFFFFFFF AND PUSH20 0xFFFFFFFFFFFFFFFFFFFFFFFFFFFFFFFFFFFFFFFF AND DUP2 MSTORE PUSH1 0x20 ADD SWAP1 DUP2 MSTORE PUSH1 0x20 ADD PUSH1 0x0 KECCAK256 PUSH1 0x0 ADD PUSH1 0x0 SWAP1 SLOAD SWAP1 PUSH2 0x100 EXP SWAP1 DIV PUSH1 0xFF AND PUSH1 0x4 DUP2 GT ISZERO PUSH2 0x1324 JUMPI PUSH2 0x1323 PUSH2 0x1C89 JUMP JUMPDEST JUMPDEST EQ PUSH2 0x1364 JUMPI PUSH1 0x40 MLOAD PUSH32 0x8C379A000000000000000000000000000000000000000000000000000000000 DUP2 MSTORE PUSH1 0x4 ADD PUSH2 0x135B SWAP1 PUSH2 0x19D1 JUMP JUMPDEST PUSH1 0x40 MLOAD DUP1 SWAP2 SUB SWAP1 REVERT JUMPDEST PUSH1 0x4 DUP1 SLOAD DUP1 PUSH1 0x20 MUL PUSH1 0x20 ADD PUSH1 0x40 MLOAD SWAP1 DUP2 ADD PUSH1 0x40 MSTORE DUP1 SWAP3 SWAP2 SWAP1 DUP2 DUP2 MSTORE PUSH1 0x20 ADD DUP3 DUP1 SLOAD DUP1 ISZERO PUSH2 0x13E6 JUMPI PUSH1 0x20 MUL DUP3 ADD SWAP2 SWAP1 PUSH1 0x0 MSTORE PUSH1 0x20 PUSH1 0x0 KECCAK256 SWAP1 JUMPDEST DUP2 PUSH1 0x0 SWAP1 SLOAD SWAP1 PUSH2 0x100 EXP SWAP1 DIV PUSH20 0xFFFFFFFFFFFFFFFFFFFFFFFFFFFFFFFFFFFFFFFF AND PUSH20 0xFFFFFFFFFFFFFFFFFFFFFFFFFFFFFFFFFFFFFFFF AND DUP2 MSTORE PUSH1 0x20 ADD SWAP1 PUSH1 0x1 ADD SWAP1 DUP1 DUP4 GT PUSH2 0x139C JUMPI JUMPDEST POP POP POP POP POP SWAP1 POP SWAP1 JUMP JUMPDEST PUSH1 0x40 MLOAD DUP1 PUSH1 0xC0 ADD PUSH1 0x40 MSTORE DUP1 PUSH1 0x60 DUP2 MSTORE PUSH1 0x20 ADD PUSH1 0x60 DUP2 MSTORE PUSH1 0x20 ADD PUSH1 0x0 PUSH20 0xFFFFFFFFFFFFFFFFFFFFFFFFFFFFFFFFFFFFFFFF AND DUP2 MSTORE PUSH1 0x20 ADD PUSH1 0x0 ISZERO ISZERO DUP2 MSTORE PUSH1 0x20 ADD PUSH1 0x0 ISZERO ISZERO DUP2 MSTORE PUSH1 0x20 ADD PUSH1 0x0 ISZERO ISZERO DUP2 MSTORE POP SWAP1 JUMP JUMPDEST DUP3 DUP1 SLOAD PUSH2 0x144E SWAP1 PUSH2 0x1BAE JUMP JUMPDEST SWAP1 PUSH1 0x0 MSTORE PUSH1 0x20 PUSH1 0x0 KECCAK256 SWAP1 PUSH1 0x1F ADD PUSH1 0x20 SWAP1 DIV DUP2 ADD SWAP3 DUP3 PUSH2 0x1470 JUMPI PUSH1 0x0 DUP6 SSTORE PUSH2 0x14B7 JUMP JUMPDEST DUP3 PUSH1 0x1F LT PUSH2 0x1489 JUMPI DUP1 MLOAD PUSH1 0xFF NOT AND DUP4 DUP1 ADD OR DUP6 SSTORE PUSH2 0x14B7 JUMP JUMPDEST DUP3 DUP1 ADD PUSH1 0x1 ADD DUP6 SSTORE DUP3 ISZERO PUSH2 0x14B7 JUMPI SWAP2 DUP3 ADD JUMPDEST DUP3 DUP2 GT ISZERO PUSH2 0x14B6 JUMPI DUP3 MLOAD DUP3 SSTORE SWAP2 PUSH1 0x20 ADD SWAP2 SWAP1 PUSH1 0x1 ADD SWAP1 PUSH2 0x149B JUMP JUMPDEST JUMPDEST POP SWAP1 POP PUSH2 0x14C4 SWAP2 SWAP1 PUSH2 0x14C8 JUMP JUMPDEST POP SWAP1 JUMP JUMPDEST JUMPDEST DUP1 DUP3 GT ISZERO PUSH2 0x14E1 JUMPI PUSH1 0x0 DUP2 PUSH1 0x0 SWAP1 SSTORE POP PUSH1 0x1 ADD PUSH2 0x14C9 JUMP JUMPDEST POP SWAP1 JUMP JUMPDEST PUSH1 0x0 PUSH2 0x14F8 PUSH2 0x14F3 DUP5 PUSH2 0x1A78 JUMP JUMPDEST PUSH2 0x1A53 JUMP JUMPDEST SWAP1 POP DUP3 DUP2 MSTORE PUSH1 0x20 DUP2 ADD DUP5 DUP5 DUP5 ADD GT ISZERO PUSH2 0x1514 JUMPI PUSH2 0x1513 PUSH2 0x1D4A JUMP JUMPDEST JUMPDEST PUSH2 0x151F DUP5 DUP3 DUP6 PUSH2 0x1B6C JUMP JUMPDEST POP SWAP4 SWAP3 POP POP POP JUMP JUMPDEST PUSH1 0x0 DUP2 CALLDATALOAD SWAP1 POP PUSH2 0x1536 DUP2 PUSH2 0x1ED5 JUMP JUMPDEST SWAP3 SWAP2 POP POP JUMP JUMPDEST PUSH1 0x0 DUP3 PUSH1 0x1F DUP4 ADD SLT PUSH2 0x1551 JUMPI PUSH2 0x1550 PUSH2 0x1D45 JUMP JUMPDEST JUMPDEST DUP2 CALLDATALOAD PUSH2 0x1561 DUP5 DUP3 PUSH1 0x20 DUP7 ADD PUSH2 0x14E5 JUMP JUMPDEST SWAP2 POP POP SWAP3 SWAP2 POP POP JUMP JUMPDEST PUSH1 0x0 PUSH1 0x20 DUP3 DUP5 SUB SLT ISZERO PUSH2 0x1580 JUMPI PUSH2 0x157F PUSH2 0x1D54 JUMP JUMPDEST JUMPDEST PUSH1 0x0 PUSH2 0x158E DUP5 DUP3 DUP6 ADD PUSH2 0x1527 JUMP JUMPDEST SWAP2 POP POP SWAP3 SWAP2 POP POP JUMP JUMPDEST PUSH1 0x0 PUSH1 0x20 DUP3 DUP5 SUB SLT ISZERO PUSH2 0x15AD JUMPI PUSH2 0x15AC PUSH2 0x1D54 JUMP JUMPDEST JUMPDEST PUSH1 0x0 DUP3 ADD CALLDATALOAD PUSH8 0xFFFFFFFFFFFFFFFF DUP2 GT ISZERO PUSH2 0x15CB JUMPI PUSH2 0x15CA PUSH2 0x1D4F JUMP JUMPDEST JUMPDEST PUSH2 0x15D7 DUP5 DUP3 DUP6 ADD PUSH2 0x153C JUMP JUMPDEST SWAP2 POP POP SWAP3 SWAP2 POP POP JUMP JUMPDEST PUSH1 0x0 DUP1 PUSH1 0x0 PUSH1 0x60 DUP5 DUP7 SUB SLT ISZERO PUSH2 0x15F9 JUMPI PUSH2 0x15F8 PUSH2 0x1D54 JUMP JUMPDEST JUMPDEST PUSH1 0x0 DUP5 ADD CALLDATALOAD PUSH8 0xFFFFFFFFFFFFFFFF DUP2 GT ISZERO PUSH2 0x1617 JUMPI PUSH2 0x1616 PUSH2 0x1D4F JUMP JUMPDEST JUMPDEST PUSH2 0x1623 DUP7 DUP3 DUP8 ADD PUSH2 0x153C JUMP JUMPDEST SWAP4 POP POP PUSH1 0x20 DUP5 ADD CALLDATALOAD PUSH8 0xFFFFFFFFFFFFFFFF DUP2 GT ISZERO PUSH2 0x1644 JUMPI PUSH2 0x1643 PUSH2 0x1D4F JUMP JUMPDEST JUMPDEST PUSH2 0x1650 DUP7 DUP3 DUP8 ADD PUSH2 0x153C JUMP JUMPDEST SWAP3 POP POP PUSH1 0x40 PUSH2 0x1661 DUP7 DUP3 DUP8 ADD PUSH2 0x1527 JUMP JUMPDEST SWAP2 POP POP SWAP3 POP SWAP3 POP SWAP3 JUMP JUMPDEST PUSH1 0x0 PUSH2 0x1677 DUP4 DUP4 PUSH2 0x1683 JUMP JUMPDEST PUSH1 0x20 DUP4 ADD SWAP1 POP SWAP3 SWAP2 POP POP JUMP JUMPDEST PUSH2 0x168C DUP2 PUSH2 0x1B1A JUMP JUMPDEST DUP3 MSTORE POP POP JUMP JUMPDEST PUSH1 0x0 PUSH2 0x169D DUP3 PUSH2 0x1AB9 JUMP JUMPDEST PUSH2 0x16A7 DUP2 DUP6 PUSH2 0x1ADC JUMP JUMPDEST SWAP4 POP PUSH2 0x16B2 DUP4 PUSH2 0x1AA9 JUMP JUMPDEST DUP1 PUSH1 0x0 JUMPDEST DUP4 DUP2 LT ISZERO PUSH2 0x16E3 JUMPI DUP2 MLOAD PUSH2 0x16CA DUP9 DUP3 PUSH2 0x166B JUMP JUMPDEST SWAP8 POP PUSH2 0x16D5 DUP4 PUSH2 0x1ACF JUMP JUMPDEST SWAP3 POP POP PUSH1 0x1 DUP2 ADD SWAP1 POP PUSH2 0x16B6 JUMP JUMPDEST POP DUP6 SWAP4 POP POP POP POP SWAP3 SWAP2 POP POP JUMP JUMPDEST PUSH2 0x16F9 DUP2 PUSH2 0x1B2C JUMP JUMPDEST DUP3 MSTORE POP POP JUMP JUMPDEST PUSH2 0x1708 DUP2 PUSH2 0x1B38 JUMP JUMPDEST DUP3 MSTORE POP POP JUMP JUMPDEST PUSH1 0x0 PUSH2 0x1719 DUP3 PUSH2 0x1AC4 JUMP JUMPDEST PUSH2 0x1723 DUP2 DUP6 PUSH2 0x1AED JUMP JUMPDEST SWAP4 POP PUSH2 0x1733 DUP2 DUP6 PUSH1 0x20 DUP7 ADD PUSH2 0x1B7B JUMP JUMPDEST PUSH2 0x173C DUP2 PUSH2 0x1D59 JUMP JUMPDEST DUP5 ADD SWAP2 POP POP SWAP3 SWAP2 POP POP JUMP JUMPDEST PUSH1 0x0 PUSH2 0x1752 DUP3 PUSH2 0x1AC4 JUMP JUMPDEST PUSH2 0x175C DUP2 DUP6 PUSH2 0x1B0F JUMP JUMPDEST SWAP4 POP PUSH2 0x176C DUP2 DUP6 PUSH1 0x20 DUP7 ADD PUSH2 0x1B7B JUMP JUMPDEST DUP1 DUP5 ADD SWAP2 POP POP SWAP3 SWAP2 POP POP JUMP JUMPDEST PUSH1 0x0 PUSH2 0x1785 PUSH1 0x1C DUP4 PUSH2 0x1AFE JUMP JUMPDEST SWAP2 POP PUSH2 0x1790 DUP3 PUSH2 0x1D6A JUMP JUMPDEST PUSH1 0x20 DUP3 ADD SWAP1 POP SWAP2 SWAP1 POP JUMP JUMPDEST PUSH1 0x0 PUSH2 0x17A8 PUSH1 0x18 DUP4 PUSH2 0x1AFE JUMP JUMPDEST SWAP2 POP PUSH2 0x17B3 DUP3 PUSH2 0x1D93 JUMP JUMPDEST PUSH1 0x20 DUP3 ADD SWAP1 POP SWAP2 SWAP1 POP JUMP JUMPDEST PUSH1 0x0 PUSH2 0x17CB PUSH1 0x2A DUP4 PUSH2 0x1AFE JUMP JUMPDEST SWAP2 POP PUSH2 0x17D6 DUP3 PUSH2 0x1DBC JUMP JUMPDEST PUSH1 0x40 DUP3 ADD SWAP1 POP SWAP2 SWAP1 POP JUMP JUMPDEST PUSH1 0x0 PUSH2 0x17EE PUSH1 0xE DUP4 PUSH2 0x1AFE JUMP JUMPDEST SWAP2 POP PUSH2 0x17F9 DUP3 PUSH2 0x1E0B JUMP JUMPDEST PUSH1 0x20 DUP3 ADD SWAP1 POP SWAP2 SWAP1 POP JUMP JUMPDEST PUSH1 0x0 PUSH2 0x1811 PUSH1 0x19 DUP4 PUSH2 0x1AFE JUMP JUMPDEST SWAP2 POP PUSH2 0x181C DUP3 PUSH2 0x1E34 JUMP JUMPDEST PUSH1 0x20 DUP3 ADD SWAP1 POP SWAP2 SWAP1 POP JUMP JUMPDEST PUSH1 0x0 PUSH2 0x1834 PUSH1 0x17 DUP4 PUSH2 0x1AFE JUMP JUMPDEST SWAP2 POP PUSH2 0x183F DUP3 PUSH2 0x1E5D JUMP JUMPDEST PUSH1 0x20 DUP3 ADD SWAP1 POP SWAP2 SWAP1 POP JUMP JUMPDEST PUSH1 0x0 PUSH2 0x1857 PUSH1 0x37 DUP4 PUSH2 0x1AFE JUMP JUMPDEST SWAP2 POP PUSH2 0x1862 DUP3 PUSH2 0x1E86 JUMP JUMPDEST PUSH1 0x40 DUP3 ADD SWAP1 POP SWAP2 SWAP1 POP JUMP JUMPDEST PUSH1 0x0 PUSH1 0xC0 DUP4 ADD PUSH1 0x0 DUP4 ADD MLOAD DUP5 DUP3 SUB PUSH1 0x0 DUP7 ADD MSTORE PUSH2 0x188A DUP3 DUP3 PUSH2 0x170E JUMP JUMPDEST SWAP2 POP POP PUSH1 0x20 DUP4 ADD MLOAD DUP5 DUP3 SUB PUSH1 0x20 DUP7 ADD MSTORE PUSH2 0x18A4 DUP3 DUP3 PUSH2 0x170E JUMP JUMPDEST SWAP2 POP POP PUSH1 0x40 DUP4 ADD MLOAD PUSH2 0x18B9 PUSH1 0x40 DUP7 ADD DUP3 PUSH2 0x1683 JUMP JUMPDEST POP PUSH1 0x60 DUP4 ADD MLOAD PUSH2 0x18CC PUSH1 0x60 DUP7 ADD DUP3 PUSH2 0x16F0 JUMP JUMPDEST POP PUSH1 0x80 DUP4 ADD MLOAD PUSH2 0x18DF PUSH1 0x80 DUP7 ADD DUP3 PUSH2 0x16F0 JUMP JUMPDEST POP PUSH1 0xA0 DUP4 ADD MLOAD PUSH2 0x18F2 PUSH1 0xA0 DUP7 ADD DUP3 PUSH2 0x16F0 JUMP JUMPDEST POP DUP1 SWAP2 POP POP SWAP3 SWAP2 POP POP JUMP JUMPDEST PUSH1 0x0 PUSH2 0x1909 DUP3 DUP5 PUSH2 0x1747 JUMP JUMPDEST SWAP2 POP DUP2 SWAP1 POP SWAP3 SWAP2 POP POP JUMP JUMPDEST PUSH1 0x0 PUSH1 0x20 DUP3 ADD SWAP1 POP DUP2 DUP2 SUB PUSH1 0x0 DUP4 ADD MSTORE PUSH2 0x192E DUP2 DUP5 PUSH2 0x1692 JUMP JUMPDEST SWAP1 POP SWAP3 SWAP2 POP POP JUMP JUMPDEST PUSH1 0x0 PUSH1 0x20 DUP3 ADD SWAP1 POP PUSH2 0x194B PUSH1 0x0 DUP4 ADD DUP5 PUSH2 0x16FF JUMP JUMPDEST SWAP3 SWAP2 POP POP JUMP JUMPDEST PUSH1 0x0 PUSH1 0x20 DUP3 ADD SWAP1 POP DUP2 DUP2 SUB PUSH1 0x0 DUP4 ADD MSTORE PUSH2 0x196A DUP2 PUSH2 0x1778 JUMP JUMPDEST SWAP1 POP SWAP2 SWAP1 POP JUMP JUMPDEST PUSH1 0x0 PUSH1 0x20 DUP3 ADD SWAP1 POP DUP2 DUP2 SUB PUSH1 0x0 DUP4 ADD MSTORE PUSH2 0x198A DUP2 PUSH2 0x179B JUMP JUMPDEST SWAP1 POP SWAP2 SWAP1 POP JUMP JUMPDEST PUSH1 0x0 PUSH1 0x20 DUP3 ADD SWAP1 POP DUP2 DUP2 SUB PUSH1 0x0 DUP4 ADD MSTORE PUSH2 0x19AA DUP2 PUSH2 0x17BE JUMP JUMPDEST SWAP1 POP SWAP2 SWAP1 POP JUMP JUMPDEST PUSH1 0x0 PUSH1 0x20 DUP3 ADD SWAP1 POP DUP2 DUP2 SUB PUSH1 0x0 DUP4 ADD MSTORE PUSH2 0x19CA DUP2 PUSH2 0x17E1 JUMP JUMPDEST SWAP1 POP SWAP2 SWAP1 POP JUMP JUMPDEST PUSH1 0x0 PUSH1 0x20 DUP3 ADD SWAP1 POP DUP2 DUP2 SUB PUSH1 0x0 DUP4 ADD MSTORE PUSH2 0x19EA DUP2 PUSH2 0x1804 JUMP JUMPDEST SWAP1 POP SWAP2 SWAP1 POP JUMP JUMPDEST PUSH1 0x0 PUSH1 0x20 DUP3 ADD SWAP1 POP DUP2 DUP2 SUB PUSH1 0x0 DUP4 ADD MSTORE PUSH2 0x1A0A DUP2 PUSH2 0x1827 JUMP JUMPDEST SWAP1 POP SWAP2 SWAP1 POP JUMP JUMPDEST PUSH1 0x0 PUSH1 0x20 DUP3 ADD SWAP1 POP DUP2 DUP2 SUB PUSH1 0x0 DUP4 ADD MSTORE PUSH2 0x1A2A DUP2 PUSH2 0x184A JUMP JUMPDEST SWAP1 POP SWAP2 SWAP1 POP JUMP JUMPDEST PUSH1 0x0 PUSH1 0x20 DUP3 ADD SWAP1 POP DUP2 DUP2 SUB PUSH1 0x0 DUP4 ADD MSTORE PUSH2 0x1A4B DUP2 DUP5 PUSH2 0x186D JUMP JUMPDEST SWAP1 POP SWAP3 SWAP2 POP POP JUMP JUMPDEST PUSH1 0x0 PUSH2 0x1A5D PUSH2 0x1A6E JUMP JUMPDEST SWAP1 POP PUSH2 0x1A69 DUP3 DUP3 PUSH2 0x1BE0 JUMP JUMPDEST SWAP2 SWAP1 POP JUMP JUMPDEST PUSH1 0x0 PUSH1 0x40 MLOAD SWAP1 POP SWAP1 JUMP JUMPDEST PUSH1 0x0 PUSH8 0xFFFFFFFFFFFFFFFF DUP3 GT ISZERO PUSH2 0x1A93 JUMPI PUSH2 0x1A92 PUSH2 0x1D16 JUMP JUMPDEST JUMPDEST PUSH2 0x1A9C DUP3 PUSH2 0x1D59 JUMP JUMPDEST SWAP1 POP PUSH1 0x20 DUP2 ADD SWAP1 POP SWAP2 SWAP1 POP JUMP JUMPDEST PUSH1 0x0 DUP2 SWAP1 POP PUSH1 0x20 DUP3 ADD SWAP1 POP SWAP2 SWAP1 POP JUMP JUMPDEST PUSH1 0x0 DUP2 MLOAD SWAP1 POP SWAP2 SWAP1 POP JUMP JUMPDEST PUSH1 0x0 DUP2 MLOAD SWAP1 POP SWAP2 SWAP1 POP JUMP JUMPDEST PUSH1 0x0 PUSH1 0x20 DUP3 ADD SWAP1 POP SWAP2 SWAP1 POP JUMP JUMPDEST PUSH1 0x0 DUP3 DUP3 MSTORE PUSH1 0x20 DUP3 ADD SWAP1 POP SWAP3 SWAP2 POP POP JUMP JUMPDEST PUSH1 0x0 DUP3 DUP3 MSTORE PUSH1 0x20 DUP3 ADD SWAP1 POP SWAP3 SWAP2 POP POP JUMP JUMPDEST PUSH1 0x0 DUP3 DUP3 MSTORE PUSH1 0x20 DUP3 ADD SWAP1 POP SWAP3 SWAP2 POP POP JUMP JUMPDEST PUSH1 0x0 DUP2 SWAP1 POP SWAP3 SWAP2 POP POP JUMP JUMPDEST PUSH1 0x0 PUSH2 0x1B25 DUP3 PUSH2 0x1B42 JUMP JUMPDEST SWAP1 POP SWAP2 SWAP1 POP JUMP JUMPDEST PUSH1 0x0 DUP2 ISZERO ISZERO SWAP1 POP SWAP2 SWAP1 POP JUMP JUMPDEST PUSH1 0x0 DUP2 SWAP1 POP SWAP2 SWAP1 POP JUMP JUMPDEST PUSH1 0x0 PUSH20 0xFFFFFFFFFFFFFFFFFFFFFFFFFFFFFFFFFFFFFFFF DUP3 AND SWAP1 POP SWAP2 SWAP1 POP JUMP JUMPDEST PUSH1 0x0 DUP2 SWAP1 POP SWAP2 SWAP1 POP JUMP JUMPDEST DUP3 DUP2 DUP4 CALLDATACOPY PUSH1 0x0 DUP4 DUP4 ADD MSTORE POP POP POP JUMP JUMPDEST PUSH1 0x0 JUMPDEST DUP4 DUP2 LT ISZERO PUSH2 0x1B99 JUMPI DUP1 DUP3 ADD MLOAD DUP2 DUP5 ADD MSTORE PUSH1 0x20 DUP2 ADD SWAP1 POP PUSH2 0x1B7E JUMP JUMPDEST DUP4 DUP2 GT ISZERO PUSH2 0x1BA8 JUMPI PUSH1 0x0 DUP5 DUP5 ADD MSTORE JUMPDEST POP POP POP POP JUMP JUMPDEST PUSH1 0x0 PUSH1 0x2 DUP3 DIV SWAP1 POP PUSH1 0x1 DUP3 AND DUP1 PUSH2 0x1BC6 JUMPI PUSH1 0x7F DUP3 AND SWAP2 POP JUMPDEST PUSH1 0x20 DUP3 LT DUP2 EQ ISZERO PUSH2 0x1BDA JUMPI PUSH2 0x1BD9 PUSH2 0x1CB8 JUMP JUMPDEST JUMPDEST POP SWAP2 SWAP1 POP JUMP JUMPDEST PUSH2 0x1BE9 DUP3 PUSH2 0x1D59 JUMP JUMPDEST DUP2 ADD DUP2 DUP2 LT PUSH8 0xFFFFFFFFFFFFFFFF DUP3 GT OR ISZERO PUSH2 0x1C08 JUMPI PUSH2 0x1C07 PUSH2 0x1D16 JUMP JUMPDEST JUMPDEST DUP1 PUSH1 0x40 MSTORE POP POP POP JUMP JUMPDEST PUSH1 0x0 PUSH2 0x1C1C DUP3 PUSH2 0x1B62 JUMP JUMPDEST SWAP2 POP PUSH32 0xFFFFFFFFFFFFFFFFFFFFFFFFFFFFFFFFFFFFFFFFFFFFFFFFFFFFFFFFFFFFFFFF DUP3 EQ ISZERO PUSH2 0x1C4F JUMPI PUSH2 0x1C4E PUSH2 0x1C5A JUMP JUMPDEST JUMPDEST PUSH1 0x1 DUP3 ADD SWAP1 POP SWAP2 SWAP1 POP JUMP JUMPDEST PUSH32 0x4E487B7100000000000000000000000000000000000000000000000000000000 PUSH1 0x0 MSTORE PUSH1 0x11 PUSH1 0x4 MSTORE PUSH1 0x24 PUSH1 0x0 REVERT JUMPDEST PUSH32 0x4E487B7100000000000000000000000000000000000000000000000000000000 PUSH1 0x0 MSTORE PUSH1 0x21 PUSH1 0x4 MSTORE PUSH1 0x24 PUSH1 0x0 REVERT JUMPDEST PUSH32 0x4E487B7100000000000000000000000000000000000000000000000000000000 PUSH1 0x0 MSTORE PUSH1 0x22 PUSH1 0x4 MSTORE PUSH1 0x24 PUSH1 0x0 REVERT JUMPDEST PUSH32 0x4E487B7100000000000000000000000000000000000000000000000000000000 PUSH1 0x0 MSTORE PUSH1 0x32 PUSH1 0x4 MSTORE PUSH1 0x24 PUSH1 0x0 REVERT JUMPDEST PUSH32 0x4E487B7100000000000000000000000000000000000000000000000000000000 PUSH1 0x0 MSTORE PUSH1 0x41 PUSH1 0x4 MSTORE PUSH1 0x24 PUSH1 0x0 REVERT JUMPDEST PUSH1 0x0 DUP1 REVERT JUMPDEST PUSH1 0x0 DUP1 REVERT JUMPDEST PUSH1 0x0 DUP1 REVERT JUMPDEST PUSH1 0x0 DUP1 REVERT JUMPDEST PUSH1 0x0 PUSH1 0x1F NOT PUSH1 0x1F DUP4 ADD AND SWAP1 POP SWAP2 SWAP1 POP JUMP JUMPDEST PUSH32 0x52657669657720746865206170706C69636174696F6E20666972737400000000 PUSH1 0x0 DUP3 ADD MSTORE POP JUMP JUMPDEST PUSH32 0x4170706C69636174696F6E20616C72656164792073656E740000000000000000 PUSH1 0x0 DUP3 ADD MSTORE POP JUMP JUMPDEST PUSH32 0x596F7572206170706C69636174696F6E2068617320616C726561647920626565 PUSH1 0x0 DUP3 ADD MSTORE PUSH32 0x6E2072656A656374656400000000000000000000000000000000000000000000 PUSH1 0x20 DUP3 ADD MSTORE POP JUMP JUMPDEST PUSH32 0x596F7572206E6F742061646D696E000000000000000000000000000000000000 PUSH1 0x0 DUP3 ADD MSTORE POP JUMP JUMPDEST PUSH32 0x596F7572206E6F7420507269766174652070726F766964657200000000000000 PUSH1 0x0 DUP3 ADD MSTORE POP JUMP JUMPDEST PUSH32 0x4170706C69636174696F6E20706861736520656E646564000000000000000000 PUSH1 0x0 DUP3 ADD MSTORE POP JUMP JUMPDEST PUSH32 0x596F752063616E27742073656E6420616E206170706C69636174696F6E20746F PUSH1 0x0 DUP3 ADD MSTORE PUSH32 0x20736F6D656F6E6520656C736527732061646472657373000000000000000000 PUSH1 0x20 DUP3 ADD MSTORE POP JUMP JUMPDEST PUSH2 0x1EDE DUP2 PUSH2 0x1B1A JUMP JUMPDEST DUP2 EQ PUSH2 0x1EE9 JUMPI PUSH1 0x0 DUP1 REVERT JUMPDEST POP JUMP INVALID LOG2 PUSH5 0x6970667358 0x22 SLT KECCAK256 SLT JUMP 0xF8 DUP14 0xC4 NUMBER JUMPDEST CALLDATALOAD COINBASE SWAP6 PUSH19 0x41E265DBE1340DC2E09C9ED6DD62083EF60F99 CALLDATALOAD GASPRICE PUSH5 0x736F6C6343 STOP ADDMOD SMOD STOP CALLER "
				},
				"gasEstimates": {
					"creation": {
						"codeDepositCost": "1594000",
						"executionCost": "1673",
						"totalCost": "1595673"
					},
					"external": {
						"acceptApplication(address)": "78135",
						"addBlackList(address)": "51341",
						"application(string,string,address)": "infinite",
						"deviationApplication(address)": "29513",
						"getApplicationAmountAdr()": "infinite",
						"getApplicationNotReviewed()": "infinite",
						"get_keccak256(string)": "infinite",
						"get_whiteList()": "infinite",
						"viewApplication(address)": "infinite"
					}
				},
				"methodIdentifiers": {
					"acceptApplication(address)": "a678b65b",
					"addBlackList(address)": "0ecb93c0",
					"application(string,string,address)": "785963c3",
					"deviationApplication(address)": "1d3eea35",
					"getApplicationAmountAdr()": "686c4cea",
					"getApplicationNotReviewed()": "506a222c",
					"get_keccak256(string)": "8e4f8c6b",
					"get_whiteList()": "c10e3911",
					"viewApplication(address)": "76eada91"
				}
			},
			"storageLayout": {
				"storage": [
					{
						"astId": 481,
						"contract": "GitHub/contract-token-cryptoMonster/backend/components/PhasePrivate.sol:PhasePrivate",
						"label": "structUsers_",
						"offset": 0,
						"slot": "0",
						"type": "t_mapping(t_address,t_struct(structUser)476_storage)"
					},
					{
						"astId": 491,
						"contract": "GitHub/contract-token-cryptoMonster/backend/components/PhasePrivate.sol:PhasePrivate",
						"label": "structPhases_",
						"offset": 0,
						"slot": "1",
						"type": "t_mapping(t_address,t_struct(structPhase)486_storage)"
					},
					{
						"astId": 509,
						"contract": "GitHub/contract-token-cryptoMonster/backend/components/PhasePrivate.sol:PhasePrivate",
						"label": "strucApplications_",
						"offset": 0,
						"slot": "2",
						"type": "t_mapping(t_address,t_struct(structApplication)504_storage)"
					},
					{
						"astId": 512,
						"contract": "GitHub/contract-token-cryptoMonster/backend/components/PhasePrivate.sol:PhasePrivate",
						"label": "structApplicationsAmountAdr",
						"offset": 0,
						"slot": "3",
						"type": "t_array(t_address)dyn_storage"
					},
					{
						"astId": 515,
						"contract": "GitHub/contract-token-cryptoMonster/backend/components/PhasePrivate.sol:PhasePrivate",
						"label": "whiteList",
						"offset": 0,
						"slot": "4",
						"type": "t_array(t_address)dyn_storage"
					},
					{
						"astId": 518,
						"contract": "GitHub/contract-token-cryptoMonster/backend/components/PhasePrivate.sol:PhasePrivate",
						"label": "blackList",
						"offset": 0,
						"slot": "5",
						"type": "t_array(t_address)dyn_storage"
					}
				],
				"types": {
					"t_address": {
						"encoding": "inplace",
						"label": "address",
						"numberOfBytes": "20"
					},
					"t_array(t_address)dyn_storage": {
						"base": "t_address",
						"encoding": "dynamic_array",
						"label": "address[]",
						"numberOfBytes": "32"
					},
					"t_bool": {
						"encoding": "inplace",
						"label": "bool",
						"numberOfBytes": "1"
					},
					"t_bytes32": {
						"encoding": "inplace",
						"label": "bytes32",
						"numberOfBytes": "32"
					},
					"t_enum(Role)460": {
						"encoding": "inplace",
						"label": "enum structures.Role",
						"numberOfBytes": "1"
					},
					"t_mapping(t_address,t_struct(structApplication)504_storage)": {
						"encoding": "mapping",
						"key": "t_address",
						"label": "mapping(address => struct structures.structApplication)",
						"numberOfBytes": "32",
						"value": "t_struct(structApplication)504_storage"
					},
					"t_mapping(t_address,t_struct(structPhase)486_storage)": {
						"encoding": "mapping",
						"key": "t_address",
						"label": "mapping(address => struct structures.structPhase)",
						"numberOfBytes": "32",
						"value": "t_struct(structPhase)486_storage"
					},
					"t_mapping(t_address,t_struct(structUser)476_storage)": {
						"encoding": "mapping",
						"key": "t_address",
						"label": "mapping(address => struct structures.structUser)",
						"numberOfBytes": "32",
						"value": "t_struct(structUser)476_storage"
					},
					"t_string_storage": {
						"encoding": "bytes",
						"label": "string",
						"numberOfBytes": "32"
					},
					"t_struct(structApplication)504_storage": {
						"encoding": "inplace",
						"label": "struct structures.structApplication",
						"members": [
							{
								"astId": 493,
								"contract": "GitHub/contract-token-cryptoMonster/backend/components/PhasePrivate.sol:PhasePrivate",
								"label": "name",
								"offset": 0,
								"slot": "0",
								"type": "t_string_storage"
							},
							{
								"astId": 495,
								"contract": "GitHub/contract-token-cryptoMonster/backend/components/PhasePrivate.sol:PhasePrivate",
								"label": "contactForCommunication",
								"offset": 0,
								"slot": "1",
								"type": "t_string_storage"
							},
							{
								"astId": 497,
								"contract": "GitHub/contract-token-cryptoMonster/backend/components/PhasePrivate.sol:PhasePrivate",
								"label": "userAdr",
								"offset": 0,
								"slot": "2",
								"type": "t_address"
							},
							{
								"astId": 499,
								"contract": "GitHub/contract-token-cryptoMonster/backend/components/PhasePrivate.sol:PhasePrivate",
								"label": "status",
								"offset": 20,
								"slot": "2",
								"type": "t_bool"
							},
							{
								"astId": 501,
								"contract": "GitHub/contract-token-cryptoMonster/backend/components/PhasePrivate.sol:PhasePrivate",
								"label": "reviewed",
								"offset": 21,
								"slot": "2",
								"type": "t_bool"
							},
							{
								"astId": 503,
								"contract": "GitHub/contract-token-cryptoMonster/backend/components/PhasePrivate.sol:PhasePrivate",
								"label": "exist",
								"offset": 22,
								"slot": "2",
								"type": "t_bool"
							}
						],
						"numberOfBytes": "96"
					},
					"t_struct(structPhase)486_storage": {
						"encoding": "inplace",
						"label": "struct structures.structPhase",
						"members": [
							{
								"astId": 483,
								"contract": "GitHub/contract-token-cryptoMonster/backend/components/PhasePrivate.sol:PhasePrivate",
								"label": "statusPhase",
								"offset": 0,
								"slot": "0",
								"type": "t_bool"
							},
							{
								"astId": 485,
								"contract": "GitHub/contract-token-cryptoMonster/backend/components/PhasePrivate.sol:PhasePrivate",
								"label": "reviewed",
								"offset": 1,
								"slot": "0",
								"type": "t_bool"
							}
						],
						"numberOfBytes": "32"
					},
					"t_struct(structUser)476_storage": {
						"encoding": "inplace",
						"label": "struct structures.structUser",
						"members": [
							{
								"astId": 463,
								"contract": "GitHub/contract-token-cryptoMonster/backend/components/PhasePrivate.sol:PhasePrivate",
								"label": "role",
								"offset": 0,
								"slot": "0",
								"type": "t_enum(Role)460"
							},
							{
								"astId": 465,
								"contract": "GitHub/contract-token-cryptoMonster/backend/components/PhasePrivate.sol:PhasePrivate",
								"label": "login",
								"offset": 0,
								"slot": "1",
								"type": "t_string_storage"
							},
							{
								"astId": 467,
								"contract": "GitHub/contract-token-cryptoMonster/backend/components/PhasePrivate.sol:PhasePrivate",
								"label": "password",
								"offset": 0,
								"slot": "2",
								"type": "t_bytes32"
							},
							{
								"astId": 469,
								"contract": "GitHub/contract-token-cryptoMonster/backend/components/PhasePrivate.sol:PhasePrivate",
								"label": "balance_overall",
								"offset": 0,
								"slot": "3",
								"type": "t_uint256"
							},
							{
								"astId": 471,
								"contract": "GitHub/contract-token-cryptoMonster/backend/components/PhasePrivate.sol:PhasePrivate",
								"label": "balance_seed",
								"offset": 0,
								"slot": "4",
								"type": "t_uint256"
							},
							{
								"astId": 473,
								"contract": "GitHub/contract-token-cryptoMonster/backend/components/PhasePrivate.sol:PhasePrivate",
								"label": "balance_private",
								"offset": 0,
								"slot": "5",
								"type": "t_uint256"
							},
							{
								"astId": 475,
								"contract": "GitHub/contract-token-cryptoMonster/backend/components/PhasePrivate.sol:PhasePrivate",
								"label": "balance_public",
								"offset": 0,
								"slot": "6",
								"type": "t_uint256"
							}
						],
						"numberOfBytes": "224"
					},
					"t_uint256": {
						"encoding": "inplace",
						"label": "uint256",
						"numberOfBytes": "32"
					}
				}
			},
			"userdoc": {
				"kind": "user",
				"methods": {},
				"version": 1
			}
		}
	}
}