{
	"GitHub/contract-token-cryptoMonster/backend/shared/helpers/helpresFunc.sol": {
		"helpresFunc": {
			"abi": [
				{
					"inputs": [
						{
							"internalType": "string",
							"name": "_hash",
							"type": "string"
						}
					],
					"name": "get_keccak256",
					"outputs": [
						{
							"internalType": "bytes32",
							"name": "",
							"type": "bytes32"
						}
					],
					"stateMutability": "pure",
					"type": "function"
				},
				{
					"inputs": [],
					"name": "get_whiteList",
					"outputs": [
						{
							"internalType": "address[]",
							"name": "",
							"type": "address[]"
						}
					],
					"stateMutability": "view",
					"type": "function"
				}
			],
			"devdoc": {
				"kind": "dev",
				"methods": {},
				"version": 1
			},
			"evm": {
				"assembly": "    /* \"GitHub/contract-token-cryptoMonster/backend/shared/helpers/helpresFunc.sol\":104:559  contract helpresFunc is modifireFunc {\r... */\n  mstore(0x40, 0x80)\n  callvalue\n  dup1\n  iszero\n  tag_1\n  jumpi\n  0x00\n  dup1\n  revert\ntag_1:\n  pop\n  dataSize(sub_0)\n  dup1\n  dataOffset(sub_0)\n  0x00\n  codecopy\n  0x00\n  return\nstop\n\nsub_0: assembly {\n        /* \"GitHub/contract-token-cryptoMonster/backend/shared/helpers/helpresFunc.sol\":104:559  contract helpresFunc is modifireFunc {\r... */\n      mstore(0x40, 0x80)\n      callvalue\n      dup1\n      iszero\n      tag_1\n      jumpi\n      0x00\n      dup1\n      revert\n    tag_1:\n      pop\n      jumpi(tag_2, lt(calldatasize, 0x04))\n      shr(0xe0, calldataload(0x00))\n      dup1\n      0x8e4f8c6b\n      eq\n      tag_3\n      jumpi\n      dup1\n      0xc10e3911\n      eq\n      tag_4\n      jumpi\n    tag_2:\n      0x00\n      dup1\n      revert\n        /* \"GitHub/contract-token-cryptoMonster/backend/shared/helpers/helpresFunc.sol\":212:350  function get_keccak256(string memory _hash) public pure returns(bytes32) {\r... */\n    tag_3:\n      tag_5\n      0x04\n      dup1\n      calldatasize\n      sub\n      dup2\n      add\n      swap1\n      tag_6\n      swap2\n      swap1\n      tag_7\n      jump\t// in\n    tag_6:\n      tag_8\n      jump\t// in\n    tag_5:\n      mload(0x40)\n      tag_9\n      swap2\n      swap1\n      tag_10\n      jump\t// in\n    tag_9:\n      mload(0x40)\n      dup1\n      swap2\n      sub\n      swap1\n      return\n        /* \"GitHub/contract-token-cryptoMonster/backend/shared/helpers/helpresFunc.sol\":426:556  function get_whiteList() public onlyOwner onlyPrivateProvider view returns (address[] memory) {\r... */\n    tag_4:\n      tag_11\n      tag_12\n      jump\t// in\n    tag_11:\n      mload(0x40)\n      tag_13\n      swap2\n      swap1\n      tag_14\n      jump\t// in\n    tag_13:\n      mload(0x40)\n      dup1\n      swap2\n      sub\n      swap1\n      return\n        /* \"GitHub/contract-token-cryptoMonster/backend/shared/helpers/helpresFunc.sol\":212:350  function get_keccak256(string memory _hash) public pure returns(bytes32) {\r... */\n    tag_8:\n        /* \"GitHub/contract-token-cryptoMonster/backend/shared/helpers/helpresFunc.sol\":276:283  bytes32 */\n      0x00\n        /* \"GitHub/contract-token-cryptoMonster/backend/shared/helpers/helpresFunc.sol\":334:339  _hash */\n      dup2\n        /* \"GitHub/contract-token-cryptoMonster/backend/shared/helpers/helpresFunc.sol\":317:340  abi.encodePacked(_hash) */\n      add(0x20, mload(0x40))\n      tag_16\n      swap2\n      swap1\n      tag_17\n      jump\t// in\n    tag_16:\n      mload(0x40)\n      0x20\n      dup2\n      dup4\n      sub\n      sub\n      dup2\n      mstore\n      swap1\n      0x40\n      mstore\n        /* \"GitHub/contract-token-cryptoMonster/backend/shared/helpers/helpresFunc.sol\":307:341  keccak256(abi.encodePacked(_hash)) */\n      dup1\n      mload\n      swap1\n      0x20\n      add\n      keccak256\n        /* \"GitHub/contract-token-cryptoMonster/backend/shared/helpers/helpresFunc.sol\":300:342  return(keccak256(abi.encodePacked(_hash))) */\n      swap1\n      pop\n        /* \"GitHub/contract-token-cryptoMonster/backend/shared/helpers/helpresFunc.sol\":212:350  function get_keccak256(string memory _hash) public pure returns(bytes32) {\r... */\n      swap2\n      swap1\n      pop\n      jump\t// out\n        /* \"GitHub/contract-token-cryptoMonster/backend/shared/helpers/helpresFunc.sol\":426:556  function get_whiteList() public onlyOwner onlyPrivateProvider view returns (address[] memory) {\r... */\n    tag_12:\n        /* \"GitHub/contract-token-cryptoMonster/backend/shared/helpers/helpresFunc.sol\":502:518  address[] memory */\n      0x60\n        /* \"GitHub/contract-token-cryptoMonster/backend/shared/helpers/modifireFunc.sol\":319:336  Role.SYSTEM_OWNER */\n      0x00\n        /* \"GitHub/contract-token-cryptoMonster/backend/shared/helpers/modifireFunc.sol\":286:336  structUsers_[msg.sender].role == Role.SYSTEM_OWNER */\n      0x04\n      dup2\n      gt\n      iszero\n      tag_19\n      jumpi\n      tag_20\n      tag_21\n      jump\t// in\n    tag_20:\n    tag_19:\n        /* \"GitHub/contract-token-cryptoMonster/backend/shared/helpers/modifireFunc.sol\":286:298  structUsers_ */\n      0x00\n        /* \"GitHub/contract-token-cryptoMonster/backend/shared/helpers/modifireFunc.sol\":286:310  structUsers_[msg.sender] */\n      dup1\n        /* \"GitHub/contract-token-cryptoMonster/backend/shared/helpers/modifireFunc.sol\":299:309  msg.sender */\n      caller\n        /* \"GitHub/contract-token-cryptoMonster/backend/shared/helpers/modifireFunc.sol\":286:310  structUsers_[msg.sender] */\n      0xffffffffffffffffffffffffffffffffffffffff\n      and\n      0xffffffffffffffffffffffffffffffffffffffff\n      and\n      dup2\n      mstore\n      0x20\n      add\n      swap1\n      dup2\n      mstore\n      0x20\n      add\n      0x00\n      keccak256\n        /* \"GitHub/contract-token-cryptoMonster/backend/shared/helpers/modifireFunc.sol\":286:315  structUsers_[msg.sender].role */\n      0x00\n      add\n      0x00\n      swap1\n      sload\n      swap1\n      0x0100\n      exp\n      swap1\n      div\n      0xff\n      and\n        /* \"GitHub/contract-token-cryptoMonster/backend/shared/helpers/modifireFunc.sol\":286:336  structUsers_[msg.sender].role == Role.SYSTEM_OWNER */\n      0x04\n      dup2\n      gt\n      iszero\n      tag_22\n      jumpi\n      tag_23\n      tag_21\n      jump\t// in\n    tag_23:\n    tag_22:\n      eq\n        /* \"GitHub/contract-token-cryptoMonster/backend/shared/helpers/modifireFunc.sol\":278:355  require(structUsers_[msg.sender].role == Role.SYSTEM_OWNER, \"Your not admin\") */\n      tag_24\n      jumpi\n      mload(0x40)\n      0x08c379a000000000000000000000000000000000000000000000000000000000\n      dup2\n      mstore\n      0x04\n      add\n      tag_25\n      swap1\n      tag_26\n      jump\t// in\n    tag_25:\n      mload(0x40)\n      dup1\n      swap2\n      sub\n      swap1\n      revert\n    tag_24:\n        /* \"GitHub/contract-token-cryptoMonster/backend/shared/helpers/modifireFunc.sol\":565:584  Role.SYSTEM_PRIVATE */\n      0x02\n        /* \"GitHub/contract-token-cryptoMonster/backend/shared/helpers/modifireFunc.sol\":532:584  structUsers_[msg.sender].role == Role.SYSTEM_PRIVATE */\n      0x04\n      dup2\n      gt\n      iszero\n      tag_28\n      jumpi\n      tag_29\n      tag_21\n      jump\t// in\n    tag_29:\n    tag_28:\n        /* \"GitHub/contract-token-cryptoMonster/backend/shared/helpers/modifireFunc.sol\":532:544  structUsers_ */\n      0x00\n        /* \"GitHub/contract-token-cryptoMonster/backend/shared/helpers/modifireFunc.sol\":532:556  structUsers_[msg.sender] */\n      dup1\n        /* \"GitHub/contract-token-cryptoMonster/backend/shared/helpers/modifireFunc.sol\":545:555  msg.sender */\n      caller\n        /* \"GitHub/contract-token-cryptoMonster/backend/shared/helpers/modifireFunc.sol\":532:556  structUsers_[msg.sender] */\n      0xffffffffffffffffffffffffffffffffffffffff\n      and\n      0xffffffffffffffffffffffffffffffffffffffff\n      and\n      dup2\n      mstore\n      0x20\n      add\n      swap1\n      dup2\n      mstore\n      0x20\n      add\n      0x00\n      keccak256\n        /* \"GitHub/contract-token-cryptoMonster/backend/shared/helpers/modifireFunc.sol\":532:561  structUsers_[msg.sender].role */\n      0x00\n      add\n      0x00\n      swap1\n      sload\n      swap1\n      0x0100\n      exp\n      swap1\n      div\n      0xff\n      and\n        /* \"GitHub/contract-token-cryptoMonster/backend/shared/helpers/modifireFunc.sol\":532:584  structUsers_[msg.sender].role == Role.SYSTEM_PRIVATE */\n      0x04\n      dup2\n      gt\n      iszero\n      tag_30\n      jumpi\n      tag_31\n      tag_21\n      jump\t// in\n    tag_31:\n    tag_30:\n      eq\n        /* \"GitHub/contract-token-cryptoMonster/backend/shared/helpers/modifireFunc.sol\":524:614  require(structUsers_[msg.sender].role == Role.SYSTEM_PRIVATE, \"Your not Private provider\") */\n      tag_32\n      jumpi\n      mload(0x40)\n      0x08c379a000000000000000000000000000000000000000000000000000000000\n      dup2\n      mstore\n      0x04\n      add\n      tag_33\n      swap1\n      tag_34\n      jump\t// in\n    tag_33:\n      mload(0x40)\n      dup1\n      swap2\n      sub\n      swap1\n      revert\n    tag_32:\n        /* \"GitHub/contract-token-cryptoMonster/backend/shared/helpers/helpresFunc.sol\":538:547  whiteList */\n      0x04\n        /* \"GitHub/contract-token-cryptoMonster/backend/shared/helpers/helpresFunc.sol\":531:548  return(whiteList) */\n      dup1\n      sload\n      dup1\n      0x20\n      mul\n      0x20\n      add\n      mload(0x40)\n      swap1\n      dup2\n      add\n      0x40\n      mstore\n      dup1\n      swap3\n      swap2\n      swap1\n      dup2\n      dup2\n      mstore\n      0x20\n      add\n      dup3\n      dup1\n      sload\n      dup1\n      iszero\n      tag_36\n      jumpi\n      0x20\n      mul\n      dup3\n      add\n      swap2\n      swap1\n      0x00\n      mstore\n      keccak256(0x00, 0x20)\n      swap1\n    tag_37:\n      dup2\n      0x00\n      swap1\n      sload\n      swap1\n      0x0100\n      exp\n      swap1\n      div\n      0xffffffffffffffffffffffffffffffffffffffff\n      and\n      0xffffffffffffffffffffffffffffffffffffffff\n      and\n      dup2\n      mstore\n      0x20\n      add\n      swap1\n      0x01\n      add\n      swap1\n      dup1\n      dup4\n      gt\n      tag_37\n      jumpi\n    tag_36:\n      pop\n      pop\n      pop\n      pop\n      pop\n      swap1\n      pop\n        /* \"GitHub/contract-token-cryptoMonster/backend/shared/helpers/helpresFunc.sol\":426:556  function get_whiteList() public onlyOwner onlyPrivateProvider view returns (address[] memory) {\r... */\n      swap1\n      jump\t// out\n        /* \"#utility.yul\":7:419   */\n    tag_39:\n        /* \"#utility.yul\":85:90   */\n      0x00\n        /* \"#utility.yul\":110:176   */\n      tag_41\n        /* \"#utility.yul\":126:175   */\n      tag_42\n        /* \"#utility.yul\":168:174   */\n      dup5\n        /* \"#utility.yul\":126:175   */\n      tag_43\n      jump\t// in\n    tag_42:\n        /* \"#utility.yul\":110:176   */\n      tag_44\n      jump\t// in\n    tag_41:\n        /* \"#utility.yul\":101:176   */\n      swap1\n      pop\n        /* \"#utility.yul\":199:205   */\n      dup3\n        /* \"#utility.yul\":192:197   */\n      dup2\n        /* \"#utility.yul\":185:206   */\n      mstore\n        /* \"#utility.yul\":237:241   */\n      0x20\n        /* \"#utility.yul\":230:235   */\n      dup2\n        /* \"#utility.yul\":226:242   */\n      add\n        /* \"#utility.yul\":275:278   */\n      dup5\n        /* \"#utility.yul\":266:272   */\n      dup5\n        /* \"#utility.yul\":261:264   */\n      dup5\n        /* \"#utility.yul\":257:273   */\n      add\n        /* \"#utility.yul\":254:279   */\n      gt\n        /* \"#utility.yul\":251:363   */\n      iszero\n      tag_45\n      jumpi\n        /* \"#utility.yul\":282:361   */\n      tag_46\n      tag_47\n      jump\t// in\n    tag_46:\n        /* \"#utility.yul\":251:363   */\n    tag_45:\n        /* \"#utility.yul\":372:413   */\n      tag_48\n        /* \"#utility.yul\":406:412   */\n      dup5\n        /* \"#utility.yul\":401:404   */\n      dup3\n        /* \"#utility.yul\":396:399   */\n      dup6\n        /* \"#utility.yul\":372:413   */\n      tag_49\n      jump\t// in\n    tag_48:\n        /* \"#utility.yul\":91:419   */\n      pop\n        /* \"#utility.yul\":7:419   */\n      swap4\n      swap3\n      pop\n      pop\n      pop\n      jump\t// out\n        /* \"#utility.yul\":439:779   */\n    tag_50:\n        /* \"#utility.yul\":495:500   */\n      0x00\n        /* \"#utility.yul\":544:547   */\n      dup3\n        /* \"#utility.yul\":537:541   */\n      0x1f\n        /* \"#utility.yul\":529:535   */\n      dup4\n        /* \"#utility.yul\":525:542   */\n      add\n        /* \"#utility.yul\":521:548   */\n      slt\n        /* \"#utility.yul\":511:633   */\n      tag_52\n      jumpi\n        /* \"#utility.yul\":552:631   */\n      tag_53\n      tag_54\n      jump\t// in\n    tag_53:\n        /* \"#utility.yul\":511:633   */\n    tag_52:\n        /* \"#utility.yul\":669:675   */\n      dup2\n        /* \"#utility.yul\":656:676   */\n      calldataload\n        /* \"#utility.yul\":694:773   */\n      tag_55\n        /* \"#utility.yul\":769:772   */\n      dup5\n        /* \"#utility.yul\":761:767   */\n      dup3\n        /* \"#utility.yul\":754:758   */\n      0x20\n        /* \"#utility.yul\":746:752   */\n      dup7\n        /* \"#utility.yul\":742:759   */\n      add\n        /* \"#utility.yul\":694:773   */\n      tag_39\n      jump\t// in\n    tag_55:\n        /* \"#utility.yul\":685:773   */\n      swap2\n      pop\n        /* \"#utility.yul\":501:779   */\n      pop\n        /* \"#utility.yul\":439:779   */\n      swap3\n      swap2\n      pop\n      pop\n      jump\t// out\n        /* \"#utility.yul\":785:1294   */\n    tag_7:\n        /* \"#utility.yul\":854:860   */\n      0x00\n        /* \"#utility.yul\":903:905   */\n      0x20\n        /* \"#utility.yul\":891:900   */\n      dup3\n        /* \"#utility.yul\":882:889   */\n      dup5\n        /* \"#utility.yul\":878:901   */\n      sub\n        /* \"#utility.yul\":874:906   */\n      slt\n        /* \"#utility.yul\":871:990   */\n      iszero\n      tag_57\n      jumpi\n        /* \"#utility.yul\":909:988   */\n      tag_58\n      tag_59\n      jump\t// in\n    tag_58:\n        /* \"#utility.yul\":871:990   */\n    tag_57:\n        /* \"#utility.yul\":1057:1058   */\n      0x00\n        /* \"#utility.yul\":1046:1055   */\n      dup3\n        /* \"#utility.yul\":1042:1059   */\n      add\n        /* \"#utility.yul\":1029:1060   */\n      calldataload\n        /* \"#utility.yul\":1087:1105   */\n      0xffffffffffffffff\n        /* \"#utility.yul\":1079:1085   */\n      dup2\n        /* \"#utility.yul\":1076:1106   */\n      gt\n        /* \"#utility.yul\":1073:1190   */\n      iszero\n      tag_60\n      jumpi\n        /* \"#utility.yul\":1109:1188   */\n      tag_61\n      tag_62\n      jump\t// in\n    tag_61:\n        /* \"#utility.yul\":1073:1190   */\n    tag_60:\n        /* \"#utility.yul\":1214:1277   */\n      tag_63\n        /* \"#utility.yul\":1269:1276   */\n      dup5\n        /* \"#utility.yul\":1260:1266   */\n      dup3\n        /* \"#utility.yul\":1249:1258   */\n      dup6\n        /* \"#utility.yul\":1245:1267   */\n      add\n        /* \"#utility.yul\":1214:1277   */\n      tag_50\n      jump\t// in\n    tag_63:\n        /* \"#utility.yul\":1204:1277   */\n      swap2\n      pop\n        /* \"#utility.yul\":1000:1287   */\n      pop\n        /* \"#utility.yul\":785:1294   */\n      swap3\n      swap2\n      pop\n      pop\n      jump\t// out\n        /* \"#utility.yul\":1300:1479   */\n    tag_64:\n        /* \"#utility.yul\":1369:1379   */\n      0x00\n        /* \"#utility.yul\":1390:1436   */\n      tag_66\n        /* \"#utility.yul\":1432:1435   */\n      dup4\n        /* \"#utility.yul\":1424:1430   */\n      dup4\n        /* \"#utility.yul\":1390:1436   */\n      tag_67\n      jump\t// in\n    tag_66:\n        /* \"#utility.yul\":1468:1472   */\n      0x20\n        /* \"#utility.yul\":1463:1466   */\n      dup4\n        /* \"#utility.yul\":1459:1473   */\n      add\n        /* \"#utility.yul\":1445:1473   */\n      swap1\n      pop\n        /* \"#utility.yul\":1300:1479   */\n      swap3\n      swap2\n      pop\n      pop\n      jump\t// out\n        /* \"#utility.yul\":1485:1593   */\n    tag_67:\n        /* \"#utility.yul\":1562:1586   */\n      tag_69\n        /* \"#utility.yul\":1580:1585   */\n      dup2\n        /* \"#utility.yul\":1562:1586   */\n      tag_70\n      jump\t// in\n    tag_69:\n        /* \"#utility.yul\":1557:1560   */\n      dup3\n        /* \"#utility.yul\":1550:1587   */\n      mstore\n        /* \"#utility.yul\":1485:1593   */\n      pop\n      pop\n      jump\t// out\n        /* \"#utility.yul\":1629:2361   */\n    tag_71:\n        /* \"#utility.yul\":1748:1751   */\n      0x00\n        /* \"#utility.yul\":1777:1831   */\n      tag_73\n        /* \"#utility.yul\":1825:1830   */\n      dup3\n        /* \"#utility.yul\":1777:1831   */\n      tag_74\n      jump\t// in\n    tag_73:\n        /* \"#utility.yul\":1847:1933   */\n      tag_75\n        /* \"#utility.yul\":1926:1932   */\n      dup2\n        /* \"#utility.yul\":1921:1924   */\n      dup6\n        /* \"#utility.yul\":1847:1933   */\n      tag_76\n      jump\t// in\n    tag_75:\n        /* \"#utility.yul\":1840:1933   */\n      swap4\n      pop\n        /* \"#utility.yul\":1957:2013   */\n      tag_77\n        /* \"#utility.yul\":2007:2012   */\n      dup4\n        /* \"#utility.yul\":1957:2013   */\n      tag_78\n      jump\t// in\n    tag_77:\n        /* \"#utility.yul\":2036:2043   */\n      dup1\n        /* \"#utility.yul\":2067:2068   */\n      0x00\n        /* \"#utility.yul\":2052:2336   */\n    tag_79:\n        /* \"#utility.yul\":2077:2083   */\n      dup4\n        /* \"#utility.yul\":2074:2075   */\n      dup2\n        /* \"#utility.yul\":2071:2084   */\n      lt\n        /* \"#utility.yul\":2052:2336   */\n      iszero\n      tag_81\n      jumpi\n        /* \"#utility.yul\":2153:2159   */\n      dup2\n        /* \"#utility.yul\":2147:2160   */\n      mload\n        /* \"#utility.yul\":2180:2243   */\n      tag_82\n        /* \"#utility.yul\":2239:2242   */\n      dup9\n        /* \"#utility.yul\":2224:2237   */\n      dup3\n        /* \"#utility.yul\":2180:2243   */\n      tag_64\n      jump\t// in\n    tag_82:\n        /* \"#utility.yul\":2173:2243   */\n      swap8\n      pop\n        /* \"#utility.yul\":2266:2326   */\n      tag_83\n        /* \"#utility.yul\":2319:2325   */\n      dup4\n        /* \"#utility.yul\":2266:2326   */\n      tag_84\n      jump\t// in\n    tag_83:\n        /* \"#utility.yul\":2256:2326   */\n      swap3\n      pop\n        /* \"#utility.yul\":2112:2336   */\n      pop\n        /* \"#utility.yul\":2099:2100   */\n      0x01\n        /* \"#utility.yul\":2096:2097   */\n      dup2\n        /* \"#utility.yul\":2092:2101   */\n      add\n        /* \"#utility.yul\":2087:2101   */\n      swap1\n      pop\n        /* \"#utility.yul\":2052:2336   */\n      jump(tag_79)\n    tag_81:\n        /* \"#utility.yul\":2056:2070   */\n      pop\n        /* \"#utility.yul\":2352:2355   */\n      dup6\n        /* \"#utility.yul\":2345:2355   */\n      swap4\n      pop\n        /* \"#utility.yul\":1753:2361   */\n      pop\n      pop\n      pop\n        /* \"#utility.yul\":1629:2361   */\n      swap3\n      swap2\n      pop\n      pop\n      jump\t// out\n        /* \"#utility.yul\":2367:2485   */\n    tag_85:\n        /* \"#utility.yul\":2454:2478   */\n      tag_87\n        /* \"#utility.yul\":2472:2477   */\n      dup2\n        /* \"#utility.yul\":2454:2478   */\n      tag_88\n      jump\t// in\n    tag_87:\n        /* \"#utility.yul\":2449:2452   */\n      dup3\n        /* \"#utility.yul\":2442:2479   */\n      mstore\n        /* \"#utility.yul\":2367:2485   */\n      pop\n      pop\n      jump\t// out\n        /* \"#utility.yul\":2491:2868   */\n    tag_89:\n        /* \"#utility.yul\":2597:2600   */\n      0x00\n        /* \"#utility.yul\":2625:2664   */\n      tag_91\n        /* \"#utility.yul\":2658:2663   */\n      dup3\n        /* \"#utility.yul\":2625:2664   */\n      tag_92\n      jump\t// in\n    tag_91:\n        /* \"#utility.yul\":2680:2769   */\n      tag_93\n        /* \"#utility.yul\":2762:2768   */\n      dup2\n        /* \"#utility.yul\":2757:2760   */\n      dup6\n        /* \"#utility.yul\":2680:2769   */\n      tag_94\n      jump\t// in\n    tag_93:\n        /* \"#utility.yul\":2673:2769   */\n      swap4\n      pop\n        /* \"#utility.yul\":2778:2830   */\n      tag_95\n        /* \"#utility.yul\":2823:2829   */\n      dup2\n        /* \"#utility.yul\":2818:2821   */\n      dup6\n        /* \"#utility.yul\":2811:2815   */\n      0x20\n        /* \"#utility.yul\":2804:2809   */\n      dup7\n        /* \"#utility.yul\":2800:2816   */\n      add\n        /* \"#utility.yul\":2778:2830   */\n      tag_96\n      jump\t// in\n    tag_95:\n        /* \"#utility.yul\":2855:2861   */\n      dup1\n        /* \"#utility.yul\":2850:2853   */\n      dup5\n        /* \"#utility.yul\":2846:2862   */\n      add\n        /* \"#utility.yul\":2839:2862   */\n      swap2\n      pop\n        /* \"#utility.yul\":2601:2868   */\n      pop\n        /* \"#utility.yul\":2491:2868   */\n      swap3\n      swap2\n      pop\n      pop\n      jump\t// out\n        /* \"#utility.yul\":2874:3240   */\n    tag_97:\n        /* \"#utility.yul\":3016:3019   */\n      0x00\n        /* \"#utility.yul\":3037:3104   */\n      tag_99\n        /* \"#utility.yul\":3101:3103   */\n      0x0e\n        /* \"#utility.yul\":3096:3099   */\n      dup4\n        /* \"#utility.yul\":3037:3104   */\n      tag_100\n      jump\t// in\n    tag_99:\n        /* \"#utility.yul\":3030:3104   */\n      swap2\n      pop\n        /* \"#utility.yul\":3113:3206   */\n      tag_101\n        /* \"#utility.yul\":3202:3205   */\n      dup3\n        /* \"#utility.yul\":3113:3206   */\n      tag_102\n      jump\t// in\n    tag_101:\n        /* \"#utility.yul\":3231:3233   */\n      0x20\n        /* \"#utility.yul\":3226:3229   */\n      dup3\n        /* \"#utility.yul\":3222:3234   */\n      add\n        /* \"#utility.yul\":3215:3234   */\n      swap1\n      pop\n        /* \"#utility.yul\":2874:3240   */\n      swap2\n      swap1\n      pop\n      jump\t// out\n        /* \"#utility.yul\":3246:3612   */\n    tag_103:\n        /* \"#utility.yul\":3388:3391   */\n      0x00\n        /* \"#utility.yul\":3409:3476   */\n      tag_105\n        /* \"#utility.yul\":3473:3475   */\n      0x19\n        /* \"#utility.yul\":3468:3471   */\n      dup4\n        /* \"#utility.yul\":3409:3476   */\n      tag_100\n      jump\t// in\n    tag_105:\n        /* \"#utility.yul\":3402:3476   */\n      swap2\n      pop\n        /* \"#utility.yul\":3485:3578   */\n      tag_106\n        /* \"#utility.yul\":3574:3577   */\n      dup3\n        /* \"#utility.yul\":3485:3578   */\n      tag_107\n      jump\t// in\n    tag_106:\n        /* \"#utility.yul\":3603:3605   */\n      0x20\n        /* \"#utility.yul\":3598:3601   */\n      dup3\n        /* \"#utility.yul\":3594:3606   */\n      add\n        /* \"#utility.yul\":3587:3606   */\n      swap1\n      pop\n        /* \"#utility.yul\":3246:3612   */\n      swap2\n      swap1\n      pop\n      jump\t// out\n        /* \"#utility.yul\":3618:3893   */\n    tag_17:\n        /* \"#utility.yul\":3750:3753   */\n      0x00\n        /* \"#utility.yul\":3772:3867   */\n      tag_109\n        /* \"#utility.yul\":3863:3866   */\n      dup3\n        /* \"#utility.yul\":3854:3860   */\n      dup5\n        /* \"#utility.yul\":3772:3867   */\n      tag_89\n      jump\t// in\n    tag_109:\n        /* \"#utility.yul\":3765:3867   */\n      swap2\n      pop\n        /* \"#utility.yul\":3884:3887   */\n      dup2\n        /* \"#utility.yul\":3877:3887   */\n      swap1\n      pop\n        /* \"#utility.yul\":3618:3893   */\n      swap3\n      swap2\n      pop\n      pop\n      jump\t// out\n        /* \"#utility.yul\":3899:4272   */\n    tag_14:\n        /* \"#utility.yul\":4042:4046   */\n      0x00\n        /* \"#utility.yul\":4080:4082   */\n      0x20\n        /* \"#utility.yul\":4069:4078   */\n      dup3\n        /* \"#utility.yul\":4065:4083   */\n      add\n        /* \"#utility.yul\":4057:4083   */\n      swap1\n      pop\n        /* \"#utility.yul\":4129:4138   */\n      dup2\n        /* \"#utility.yul\":4123:4127   */\n      dup2\n        /* \"#utility.yul\":4119:4139   */\n      sub\n        /* \"#utility.yul\":4115:4116   */\n      0x00\n        /* \"#utility.yul\":4104:4113   */\n      dup4\n        /* \"#utility.yul\":4100:4117   */\n      add\n        /* \"#utility.yul\":4093:4140   */\n      mstore\n        /* \"#utility.yul\":4157:4265   */\n      tag_111\n        /* \"#utility.yul\":4260:4264   */\n      dup2\n        /* \"#utility.yul\":4251:4257   */\n      dup5\n        /* \"#utility.yul\":4157:4265   */\n      tag_71\n      jump\t// in\n    tag_111:\n        /* \"#utility.yul\":4149:4265   */\n      swap1\n      pop\n        /* \"#utility.yul\":3899:4272   */\n      swap3\n      swap2\n      pop\n      pop\n      jump\t// out\n        /* \"#utility.yul\":4278:4500   */\n    tag_10:\n        /* \"#utility.yul\":4371:4375   */\n      0x00\n        /* \"#utility.yul\":4409:4411   */\n      0x20\n        /* \"#utility.yul\":4398:4407   */\n      dup3\n        /* \"#utility.yul\":4394:4412   */\n      add\n        /* \"#utility.yul\":4386:4412   */\n      swap1\n      pop\n        /* \"#utility.yul\":4422:4493   */\n      tag_113\n        /* \"#utility.yul\":4490:4491   */\n      0x00\n        /* \"#utility.yul\":4479:4488   */\n      dup4\n        /* \"#utility.yul\":4475:4492   */\n      add\n        /* \"#utility.yul\":4466:4472   */\n      dup5\n        /* \"#utility.yul\":4422:4493   */\n      tag_85\n      jump\t// in\n    tag_113:\n        /* \"#utility.yul\":4278:4500   */\n      swap3\n      swap2\n      pop\n      pop\n      jump\t// out\n        /* \"#utility.yul\":4506:4925   */\n    tag_26:\n        /* \"#utility.yul\":4672:4676   */\n      0x00\n        /* \"#utility.yul\":4710:4712   */\n      0x20\n        /* \"#utility.yul\":4699:4708   */\n      dup3\n        /* \"#utility.yul\":4695:4713   */\n      add\n        /* \"#utility.yul\":4687:4713   */\n      swap1\n      pop\n        /* \"#utility.yul\":4759:4768   */\n      dup2\n        /* \"#utility.yul\":4753:4757   */\n      dup2\n        /* \"#utility.yul\":4749:4769   */\n      sub\n        /* \"#utility.yul\":4745:4746   */\n      0x00\n        /* \"#utility.yul\":4734:4743   */\n      dup4\n        /* \"#utility.yul\":4730:4747   */\n      add\n        /* \"#utility.yul\":4723:4770   */\n      mstore\n        /* \"#utility.yul\":4787:4918   */\n      tag_115\n        /* \"#utility.yul\":4913:4917   */\n      dup2\n        /* \"#utility.yul\":4787:4918   */\n      tag_97\n      jump\t// in\n    tag_115:\n        /* \"#utility.yul\":4779:4918   */\n      swap1\n      pop\n        /* \"#utility.yul\":4506:4925   */\n      swap2\n      swap1\n      pop\n      jump\t// out\n        /* \"#utility.yul\":4931:5350   */\n    tag_34:\n        /* \"#utility.yul\":5097:5101   */\n      0x00\n        /* \"#utility.yul\":5135:5137   */\n      0x20\n        /* \"#utility.yul\":5124:5133   */\n      dup3\n        /* \"#utility.yul\":5120:5138   */\n      add\n        /* \"#utility.yul\":5112:5138   */\n      swap1\n      pop\n        /* \"#utility.yul\":5184:5193   */\n      dup2\n        /* \"#utility.yul\":5178:5182   */\n      dup2\n        /* \"#utility.yul\":5174:5194   */\n      sub\n        /* \"#utility.yul\":5170:5171   */\n      0x00\n        /* \"#utility.yul\":5159:5168   */\n      dup4\n        /* \"#utility.yul\":5155:5172   */\n      add\n        /* \"#utility.yul\":5148:5195   */\n      mstore\n        /* \"#utility.yul\":5212:5343   */\n      tag_117\n        /* \"#utility.yul\":5338:5342   */\n      dup2\n        /* \"#utility.yul\":5212:5343   */\n      tag_103\n      jump\t// in\n    tag_117:\n        /* \"#utility.yul\":5204:5343   */\n      swap1\n      pop\n        /* \"#utility.yul\":4931:5350   */\n      swap2\n      swap1\n      pop\n      jump\t// out\n        /* \"#utility.yul\":5356:5485   */\n    tag_44:\n        /* \"#utility.yul\":5390:5396   */\n      0x00\n        /* \"#utility.yul\":5417:5437   */\n      tag_119\n      tag_120\n      jump\t// in\n    tag_119:\n        /* \"#utility.yul\":5407:5437   */\n      swap1\n      pop\n        /* \"#utility.yul\":5446:5479   */\n      tag_121\n        /* \"#utility.yul\":5474:5478   */\n      dup3\n        /* \"#utility.yul\":5466:5472   */\n      dup3\n        /* \"#utility.yul\":5446:5479   */\n      tag_122\n      jump\t// in\n    tag_121:\n        /* \"#utility.yul\":5356:5485   */\n      swap2\n      swap1\n      pop\n      jump\t// out\n        /* \"#utility.yul\":5491:5566   */\n    tag_120:\n        /* \"#utility.yul\":5524:5530   */\n      0x00\n        /* \"#utility.yul\":5557:5559   */\n      0x40\n        /* \"#utility.yul\":5551:5560   */\n      mload\n        /* \"#utility.yul\":5541:5560   */\n      swap1\n      pop\n        /* \"#utility.yul\":5491:5566   */\n      swap1\n      jump\t// out\n        /* \"#utility.yul\":5572:5880   */\n    tag_43:\n        /* \"#utility.yul\":5634:5638   */\n      0x00\n        /* \"#utility.yul\":5724:5742   */\n      0xffffffffffffffff\n        /* \"#utility.yul\":5716:5722   */\n      dup3\n        /* \"#utility.yul\":5713:5743   */\n      gt\n        /* \"#utility.yul\":5710:5766   */\n      iszero\n      tag_125\n      jumpi\n        /* \"#utility.yul\":5746:5764   */\n      tag_126\n      tag_127\n      jump\t// in\n    tag_126:\n        /* \"#utility.yul\":5710:5766   */\n    tag_125:\n        /* \"#utility.yul\":5784:5813   */\n      tag_128\n        /* \"#utility.yul\":5806:5812   */\n      dup3\n        /* \"#utility.yul\":5784:5813   */\n      tag_129\n      jump\t// in\n    tag_128:\n        /* \"#utility.yul\":5776:5813   */\n      swap1\n      pop\n        /* \"#utility.yul\":5868:5872   */\n      0x20\n        /* \"#utility.yul\":5862:5866   */\n      dup2\n        /* \"#utility.yul\":5858:5873   */\n      add\n        /* \"#utility.yul\":5850:5873   */\n      swap1\n      pop\n        /* \"#utility.yul\":5572:5880   */\n      swap2\n      swap1\n      pop\n      jump\t// out\n        /* \"#utility.yul\":5886:6018   */\n    tag_78:\n        /* \"#utility.yul\":5953:5957   */\n      0x00\n        /* \"#utility.yul\":5976:5979   */\n      dup2\n        /* \"#utility.yul\":5968:5979   */\n      swap1\n      pop\n        /* \"#utility.yul\":6006:6010   */\n      0x20\n        /* \"#utility.yul\":6001:6004   */\n      dup3\n        /* \"#utility.yul\":5997:6011   */\n      add\n        /* \"#utility.yul\":5989:6011   */\n      swap1\n      pop\n        /* \"#utility.yul\":5886:6018   */\n      swap2\n      swap1\n      pop\n      jump\t// out\n        /* \"#utility.yul\":6024:6138   */\n    tag_74:\n        /* \"#utility.yul\":6091:6097   */\n      0x00\n        /* \"#utility.yul\":6125:6130   */\n      dup2\n        /* \"#utility.yul\":6119:6131   */\n      mload\n        /* \"#utility.yul\":6109:6131   */\n      swap1\n      pop\n        /* \"#utility.yul\":6024:6138   */\n      swap2\n      swap1\n      pop\n      jump\t// out\n        /* \"#utility.yul\":6144:6243   */\n    tag_92:\n        /* \"#utility.yul\":6196:6202   */\n      0x00\n        /* \"#utility.yul\":6230:6235   */\n      dup2\n        /* \"#utility.yul\":6224:6236   */\n      mload\n        /* \"#utility.yul\":6214:6236   */\n      swap1\n      pop\n        /* \"#utility.yul\":6144:6243   */\n      swap2\n      swap1\n      pop\n      jump\t// out\n        /* \"#utility.yul\":6249:6362   */\n    tag_84:\n        /* \"#utility.yul\":6319:6323   */\n      0x00\n        /* \"#utility.yul\":6351:6355   */\n      0x20\n        /* \"#utility.yul\":6346:6349   */\n      dup3\n        /* \"#utility.yul\":6342:6356   */\n      add\n        /* \"#utility.yul\":6334:6356   */\n      swap1\n      pop\n        /* \"#utility.yul\":6249:6362   */\n      swap2\n      swap1\n      pop\n      jump\t// out\n        /* \"#utility.yul\":6368:6552   */\n    tag_76:\n        /* \"#utility.yul\":6467:6478   */\n      0x00\n        /* \"#utility.yul\":6501:6507   */\n      dup3\n        /* \"#utility.yul\":6496:6499   */\n      dup3\n        /* \"#utility.yul\":6489:6508   */\n      mstore\n        /* \"#utility.yul\":6541:6545   */\n      0x20\n        /* \"#utility.yul\":6536:6539   */\n      dup3\n        /* \"#utility.yul\":6532:6546   */\n      add\n        /* \"#utility.yul\":6517:6546   */\n      swap1\n      pop\n        /* \"#utility.yul\":6368:6552   */\n      swap3\n      swap2\n      pop\n      pop\n      jump\t// out\n        /* \"#utility.yul\":6558:6727   */\n    tag_100:\n        /* \"#utility.yul\":6642:6653   */\n      0x00\n        /* \"#utility.yul\":6676:6682   */\n      dup3\n        /* \"#utility.yul\":6671:6674   */\n      dup3\n        /* \"#utility.yul\":6664:6683   */\n      mstore\n        /* \"#utility.yul\":6716:6720   */\n      0x20\n        /* \"#utility.yul\":6711:6714   */\n      dup3\n        /* \"#utility.yul\":6707:6721   */\n      add\n        /* \"#utility.yul\":6692:6721   */\n      swap1\n      pop\n        /* \"#utility.yul\":6558:6727   */\n      swap3\n      swap2\n      pop\n      pop\n      jump\t// out\n        /* \"#utility.yul\":6733:6881   */\n    tag_94:\n        /* \"#utility.yul\":6835:6846   */\n      0x00\n        /* \"#utility.yul\":6872:6875   */\n      dup2\n        /* \"#utility.yul\":6857:6875   */\n      swap1\n      pop\n        /* \"#utility.yul\":6733:6881   */\n      swap3\n      swap2\n      pop\n      pop\n      jump\t// out\n        /* \"#utility.yul\":6887:6983   */\n    tag_70:\n        /* \"#utility.yul\":6924:6931   */\n      0x00\n        /* \"#utility.yul\":6953:6977   */\n      tag_138\n        /* \"#utility.yul\":6971:6976   */\n      dup3\n        /* \"#utility.yul\":6953:6977   */\n      tag_139\n      jump\t// in\n    tag_138:\n        /* \"#utility.yul\":6942:6977   */\n      swap1\n      pop\n        /* \"#utility.yul\":6887:6983   */\n      swap2\n      swap1\n      pop\n      jump\t// out\n        /* \"#utility.yul\":6989:7066   */\n    tag_88:\n        /* \"#utility.yul\":7026:7033   */\n      0x00\n        /* \"#utility.yul\":7055:7060   */\n      dup2\n        /* \"#utility.yul\":7044:7060   */\n      swap1\n      pop\n        /* \"#utility.yul\":6989:7066   */\n      swap2\n      swap1\n      pop\n      jump\t// out\n        /* \"#utility.yul\":7072:7198   */\n    tag_139:\n        /* \"#utility.yul\":7109:7116   */\n      0x00\n        /* \"#utility.yul\":7149:7191   */\n      0xffffffffffffffffffffffffffffffffffffffff\n        /* \"#utility.yul\":7142:7147   */\n      dup3\n        /* \"#utility.yul\":7138:7192   */\n      and\n        /* \"#utility.yul\":7127:7192   */\n      swap1\n      pop\n        /* \"#utility.yul\":7072:7198   */\n      swap2\n      swap1\n      pop\n      jump\t// out\n        /* \"#utility.yul\":7204:7358   */\n    tag_49:\n        /* \"#utility.yul\":7288:7294   */\n      dup3\n        /* \"#utility.yul\":7283:7286   */\n      dup2\n        /* \"#utility.yul\":7278:7281   */\n      dup4\n        /* \"#utility.yul\":7265:7295   */\n      calldatacopy\n        /* \"#utility.yul\":7350:7351   */\n      0x00\n        /* \"#utility.yul\":7341:7347   */\n      dup4\n        /* \"#utility.yul\":7336:7339   */\n      dup4\n        /* \"#utility.yul\":7332:7348   */\n      add\n        /* \"#utility.yul\":7325:7352   */\n      mstore\n        /* \"#utility.yul\":7204:7358   */\n      pop\n      pop\n      pop\n      jump\t// out\n        /* \"#utility.yul\":7364:7671   */\n    tag_96:\n        /* \"#utility.yul\":7432:7433   */\n      0x00\n        /* \"#utility.yul\":7442:7555   */\n    tag_144:\n        /* \"#utility.yul\":7456:7462   */\n      dup4\n        /* \"#utility.yul\":7453:7454   */\n      dup2\n        /* \"#utility.yul\":7450:7463   */\n      lt\n        /* \"#utility.yul\":7442:7555   */\n      iszero\n      tag_146\n      jumpi\n        /* \"#utility.yul\":7541:7542   */\n      dup1\n        /* \"#utility.yul\":7536:7539   */\n      dup3\n        /* \"#utility.yul\":7532:7543   */\n      add\n        /* \"#utility.yul\":7526:7544   */\n      mload\n        /* \"#utility.yul\":7522:7523   */\n      dup2\n        /* \"#utility.yul\":7517:7520   */\n      dup5\n        /* \"#utility.yul\":7513:7524   */\n      add\n        /* \"#utility.yul\":7506:7545   */\n      mstore\n        /* \"#utility.yul\":7478:7480   */\n      0x20\n        /* \"#utility.yul\":7475:7476   */\n      dup2\n        /* \"#utility.yul\":7471:7481   */\n      add\n        /* \"#utility.yul\":7466:7481   */\n      swap1\n      pop\n        /* \"#utility.yul\":7442:7555   */\n      jump(tag_144)\n    tag_146:\n        /* \"#utility.yul\":7573:7579   */\n      dup4\n        /* \"#utility.yul\":7570:7571   */\n      dup2\n        /* \"#utility.yul\":7567:7580   */\n      gt\n        /* \"#utility.yul\":7564:7665   */\n      iszero\n      tag_147\n      jumpi\n        /* \"#utility.yul\":7653:7654   */\n      0x00\n        /* \"#utility.yul\":7644:7650   */\n      dup5\n        /* \"#utility.yul\":7639:7642   */\n      dup5\n        /* \"#utility.yul\":7635:7651   */\n      add\n        /* \"#utility.yul\":7628:7655   */\n      mstore\n        /* \"#utility.yul\":7564:7665   */\n    tag_147:\n        /* \"#utility.yul\":7413:7671   */\n      pop\n        /* \"#utility.yul\":7364:7671   */\n      pop\n      pop\n      pop\n      jump\t// out\n        /* \"#utility.yul\":7677:7958   */\n    tag_122:\n        /* \"#utility.yul\":7760:7787   */\n      tag_149\n        /* \"#utility.yul\":7782:7786   */\n      dup3\n        /* \"#utility.yul\":7760:7787   */\n      tag_129\n      jump\t// in\n    tag_149:\n        /* \"#utility.yul\":7752:7758   */\n      dup2\n        /* \"#utility.yul\":7748:7788   */\n      add\n        /* \"#utility.yul\":7890:7896   */\n      dup2\n        /* \"#utility.yul\":7878:7888   */\n      dup2\n        /* \"#utility.yul\":7875:7897   */\n      lt\n        /* \"#utility.yul\":7854:7872   */\n      0xffffffffffffffff\n        /* \"#utility.yul\":7842:7852   */\n      dup3\n        /* \"#utility.yul\":7839:7873   */\n      gt\n        /* \"#utility.yul\":7836:7898   */\n      or\n        /* \"#utility.yul\":7833:7921   */\n      iszero\n      tag_150\n      jumpi\n        /* \"#utility.yul\":7901:7919   */\n      tag_151\n      tag_127\n      jump\t// in\n    tag_151:\n        /* \"#utility.yul\":7833:7921   */\n    tag_150:\n        /* \"#utility.yul\":7941:7951   */\n      dup1\n        /* \"#utility.yul\":7937:7939   */\n      0x40\n        /* \"#utility.yul\":7930:7952   */\n      mstore\n        /* \"#utility.yul\":7720:7958   */\n      pop\n        /* \"#utility.yul\":7677:7958   */\n      pop\n      pop\n      jump\t// out\n        /* \"#utility.yul\":7964:8144   */\n    tag_21:\n        /* \"#utility.yul\":8012:8089   */\n      0x4e487b7100000000000000000000000000000000000000000000000000000000\n        /* \"#utility.yul\":8009:8010   */\n      0x00\n        /* \"#utility.yul\":8002:8090   */\n      mstore\n        /* \"#utility.yul\":8109:8113   */\n      0x21\n        /* \"#utility.yul\":8106:8107   */\n      0x04\n        /* \"#utility.yul\":8099:8114   */\n      mstore\n        /* \"#utility.yul\":8133:8137   */\n      0x24\n        /* \"#utility.yul\":8130:8131   */\n      0x00\n        /* \"#utility.yul\":8123:8138   */\n      revert\n        /* \"#utility.yul\":8150:8330   */\n    tag_127:\n        /* \"#utility.yul\":8198:8275   */\n      0x4e487b7100000000000000000000000000000000000000000000000000000000\n        /* \"#utility.yul\":8195:8196   */\n      0x00\n        /* \"#utility.yul\":8188:8276   */\n      mstore\n        /* \"#utility.yul\":8295:8299   */\n      0x41\n        /* \"#utility.yul\":8292:8293   */\n      0x04\n        /* \"#utility.yul\":8285:8300   */\n      mstore\n        /* \"#utility.yul\":8319:8323   */\n      0x24\n        /* \"#utility.yul\":8316:8317   */\n      0x00\n        /* \"#utility.yul\":8309:8324   */\n      revert\n        /* \"#utility.yul\":8336:8453   */\n    tag_54:\n        /* \"#utility.yul\":8445:8446   */\n      0x00\n        /* \"#utility.yul\":8442:8443   */\n      dup1\n        /* \"#utility.yul\":8435:8447   */\n      revert\n        /* \"#utility.yul\":8459:8576   */\n    tag_47:\n        /* \"#utility.yul\":8568:8569   */\n      0x00\n        /* \"#utility.yul\":8565:8566   */\n      dup1\n        /* \"#utility.yul\":8558:8570   */\n      revert\n        /* \"#utility.yul\":8582:8699   */\n    tag_62:\n        /* \"#utility.yul\":8691:8692   */\n      0x00\n        /* \"#utility.yul\":8688:8689   */\n      dup1\n        /* \"#utility.yul\":8681:8693   */\n      revert\n        /* \"#utility.yul\":8705:8822   */\n    tag_59:\n        /* \"#utility.yul\":8814:8815   */\n      0x00\n        /* \"#utility.yul\":8811:8812   */\n      dup1\n        /* \"#utility.yul\":8804:8816   */\n      revert\n        /* \"#utility.yul\":8828:8930   */\n    tag_129:\n        /* \"#utility.yul\":8869:8875   */\n      0x00\n        /* \"#utility.yul\":8920:8922   */\n      0x1f\n        /* \"#utility.yul\":8916:8923   */\n      not\n        /* \"#utility.yul\":8911:8913   */\n      0x1f\n        /* \"#utility.yul\":8904:8909   */\n      dup4\n        /* \"#utility.yul\":8900:8914   */\n      add\n        /* \"#utility.yul\":8896:8924   */\n      and\n        /* \"#utility.yul\":8886:8924   */\n      swap1\n      pop\n        /* \"#utility.yul\":8828:8930   */\n      swap2\n      swap1\n      pop\n      jump\t// out\n        /* \"#utility.yul\":8936:9100   */\n    tag_102:\n        /* \"#utility.yul\":9076:9092   */\n      0x596f7572206e6f742061646d696e000000000000000000000000000000000000\n        /* \"#utility.yul\":9072:9073   */\n      0x00\n        /* \"#utility.yul\":9064:9070   */\n      dup3\n        /* \"#utility.yul\":9060:9074   */\n      add\n        /* \"#utility.yul\":9053:9093   */\n      mstore\n        /* \"#utility.yul\":8936:9100   */\n      pop\n      jump\t// out\n        /* \"#utility.yul\":9106:9281   */\n    tag_107:\n        /* \"#utility.yul\":9246:9273   */\n      0x596f7572206e6f7420507269766174652070726f766964657200000000000000\n        /* \"#utility.yul\":9242:9243   */\n      0x00\n        /* \"#utility.yul\":9234:9240   */\n      dup3\n        /* \"#utility.yul\":9230:9244   */\n      add\n        /* \"#utility.yul\":9223:9274   */\n      mstore\n        /* \"#utility.yul\":9106:9281   */\n      pop\n      jump\t// out\n\n    auxdata: 0xa26469706673582212207614b1fff6e906205f5ea02753a1cd9cd9bac5dd8b3a0fc719b69b8bc475dfd864736f6c63430008070033\n}\n",
				"bytecode": {
					"linkReferences": {},
					"object": "608060405234801561001057600080fd5b50610779806100206000396000f3fe608060405234801561001057600080fd5b50600436106100365760003560e01c80638e4f8c6b1461003b578063c10e39111461006b575b600080fd5b61005560048036038101906100509190610321565b610089565b60405161006291906104ae565b60405180910390f35b6100736100b9565b604051610080919061048c565b60405180910390f35b60008160405160200161009c9190610475565b604051602081830303815290604052805190602001209050919050565b6060600060048111156100cf576100ce61066e565b5b6000803373ffffffffffffffffffffffffffffffffffffffff1673ffffffffffffffffffffffffffffffffffffffff16815260200190815260200160002060000160009054906101000a900460ff1660048111156101305761012f61066e565b5b14610170576040517f08c379a0000000000000000000000000000000000000000000000000000000008152600401610167906104c9565b60405180910390fd5b600260048111156101845761018361066e565b5b6000803373ffffffffffffffffffffffffffffffffffffffff1673ffffffffffffffffffffffffffffffffffffffff16815260200190815260200160002060000160009054906101000a900460ff1660048111156101e5576101e461066e565b5b14610225576040517f08c379a000000000000000000000000000000000000000000000000000000000815260040161021c906104e9565b60405180910390fd5b60048054806020026020016040519081016040528092919081815260200182805480156102a757602002820191906000526020600020905b8160009054906101000a900473ffffffffffffffffffffffffffffffffffffffff1673ffffffffffffffffffffffffffffffffffffffff168152602001906001019080831161025d575b5050505050905090565b60006102c46102bf8461052e565b610509565b9050828152602081018484840111156102e0576102df6106d1565b5b6102eb8482856105fb565b509392505050565b600082601f830112610308576103076106cc565b5b81356103188482602086016102b1565b91505092915050565b600060208284031215610337576103366106db565b5b600082013567ffffffffffffffff811115610355576103546106d6565b5b610361848285016102f3565b91505092915050565b60006103768383610382565b60208301905092915050565b61038b816105bf565b82525050565b600061039c8261056f565b6103a68185610592565b93506103b18361055f565b8060005b838110156103e25781516103c9888261036a565b97506103d483610585565b9250506001810190506103b5565b5085935050505092915050565b6103f8816105d1565b82525050565b60006104098261057a565b61041381856105b4565b935061042381856020860161060a565b80840191505092915050565b600061043c600e836105a3565b9150610447826106f1565b602082019050919050565b600061045f6019836105a3565b915061046a8261071a565b602082019050919050565b600061048182846103fe565b915081905092915050565b600060208201905081810360008301526104a68184610391565b905092915050565b60006020820190506104c360008301846103ef565b92915050565b600060208201905081810360008301526104e28161042f565b9050919050565b6000602082019050818103600083015261050281610452565b9050919050565b6000610513610524565b905061051f828261063d565b919050565b6000604051905090565b600067ffffffffffffffff8211156105495761054861069d565b5b610552826106e0565b9050602081019050919050565b6000819050602082019050919050565b600081519050919050565b600081519050919050565b6000602082019050919050565b600082825260208201905092915050565b600082825260208201905092915050565b600081905092915050565b60006105ca826105db565b9050919050565b6000819050919050565b600073ffffffffffffffffffffffffffffffffffffffff82169050919050565b82818337600083830152505050565b60005b8381101561062857808201518184015260208101905061060d565b83811115610637576000848401525b50505050565b610646826106e0565b810181811067ffffffffffffffff821117156106655761066461069d565b5b80604052505050565b7f4e487b7100000000000000000000000000000000000000000000000000000000600052602160045260246000fd5b7f4e487b7100000000000000000000000000000000000000000000000000000000600052604160045260246000fd5b600080fd5b600080fd5b600080fd5b600080fd5b6000601f19601f8301169050919050565b7f596f7572206e6f742061646d696e000000000000000000000000000000000000600082015250565b7f596f7572206e6f7420507269766174652070726f76696465720000000000000060008201525056fea26469706673582212207614b1fff6e906205f5ea02753a1cd9cd9bac5dd8b3a0fc719b69b8bc475dfd864736f6c63430008070033",
					"opcodes": "PUSH1 0x80 PUSH1 0x40 MSTORE CALLVALUE DUP1 ISZERO PUSH2 0x10 JUMPI PUSH1 0x0 DUP1 REVERT JUMPDEST POP PUSH2 0x779 DUP1 PUSH2 0x20 PUSH1 0x0 CODECOPY PUSH1 0x0 RETURN INVALID PUSH1 0x80 PUSH1 0x40 MSTORE CALLVALUE DUP1 ISZERO PUSH2 0x10 JUMPI PUSH1 0x0 DUP1 REVERT JUMPDEST POP PUSH1 0x4 CALLDATASIZE LT PUSH2 0x36 JUMPI PUSH1 0x0 CALLDATALOAD PUSH1 0xE0 SHR DUP1 PUSH4 0x8E4F8C6B EQ PUSH2 0x3B JUMPI DUP1 PUSH4 0xC10E3911 EQ PUSH2 0x6B JUMPI JUMPDEST PUSH1 0x0 DUP1 REVERT JUMPDEST PUSH2 0x55 PUSH1 0x4 DUP1 CALLDATASIZE SUB DUP2 ADD SWAP1 PUSH2 0x50 SWAP2 SWAP1 PUSH2 0x321 JUMP JUMPDEST PUSH2 0x89 JUMP JUMPDEST PUSH1 0x40 MLOAD PUSH2 0x62 SWAP2 SWAP1 PUSH2 0x4AE JUMP JUMPDEST PUSH1 0x40 MLOAD DUP1 SWAP2 SUB SWAP1 RETURN JUMPDEST PUSH2 0x73 PUSH2 0xB9 JUMP JUMPDEST PUSH1 0x40 MLOAD PUSH2 0x80 SWAP2 SWAP1 PUSH2 0x48C JUMP JUMPDEST PUSH1 0x40 MLOAD DUP1 SWAP2 SUB SWAP1 RETURN JUMPDEST PUSH1 0x0 DUP2 PUSH1 0x40 MLOAD PUSH1 0x20 ADD PUSH2 0x9C SWAP2 SWAP1 PUSH2 0x475 JUMP JUMPDEST PUSH1 0x40 MLOAD PUSH1 0x20 DUP2 DUP4 SUB SUB DUP2 MSTORE SWAP1 PUSH1 0x40 MSTORE DUP1 MLOAD SWAP1 PUSH1 0x20 ADD KECCAK256 SWAP1 POP SWAP2 SWAP1 POP JUMP JUMPDEST PUSH1 0x60 PUSH1 0x0 PUSH1 0x4 DUP2 GT ISZERO PUSH2 0xCF JUMPI PUSH2 0xCE PUSH2 0x66E JUMP JUMPDEST JUMPDEST PUSH1 0x0 DUP1 CALLER PUSH20 0xFFFFFFFFFFFFFFFFFFFFFFFFFFFFFFFFFFFFFFFF AND PUSH20 0xFFFFFFFFFFFFFFFFFFFFFFFFFFFFFFFFFFFFFFFF AND DUP2 MSTORE PUSH1 0x20 ADD SWAP1 DUP2 MSTORE PUSH1 0x20 ADD PUSH1 0x0 KECCAK256 PUSH1 0x0 ADD PUSH1 0x0 SWAP1 SLOAD SWAP1 PUSH2 0x100 EXP SWAP1 DIV PUSH1 0xFF AND PUSH1 0x4 DUP2 GT ISZERO PUSH2 0x130 JUMPI PUSH2 0x12F PUSH2 0x66E JUMP JUMPDEST JUMPDEST EQ PUSH2 0x170 JUMPI PUSH1 0x40 MLOAD PUSH32 0x8C379A000000000000000000000000000000000000000000000000000000000 DUP2 MSTORE PUSH1 0x4 ADD PUSH2 0x167 SWAP1 PUSH2 0x4C9 JUMP JUMPDEST PUSH1 0x40 MLOAD DUP1 SWAP2 SUB SWAP1 REVERT JUMPDEST PUSH1 0x2 PUSH1 0x4 DUP2 GT ISZERO PUSH2 0x184 JUMPI PUSH2 0x183 PUSH2 0x66E JUMP JUMPDEST JUMPDEST PUSH1 0x0 DUP1 CALLER PUSH20 0xFFFFFFFFFFFFFFFFFFFFFFFFFFFFFFFFFFFFFFFF AND PUSH20 0xFFFFFFFFFFFFFFFFFFFFFFFFFFFFFFFFFFFFFFFF AND DUP2 MSTORE PUSH1 0x20 ADD SWAP1 DUP2 MSTORE PUSH1 0x20 ADD PUSH1 0x0 KECCAK256 PUSH1 0x0 ADD PUSH1 0x0 SWAP1 SLOAD SWAP1 PUSH2 0x100 EXP SWAP1 DIV PUSH1 0xFF AND PUSH1 0x4 DUP2 GT ISZERO PUSH2 0x1E5 JUMPI PUSH2 0x1E4 PUSH2 0x66E JUMP JUMPDEST JUMPDEST EQ PUSH2 0x225 JUMPI PUSH1 0x40 MLOAD PUSH32 0x8C379A000000000000000000000000000000000000000000000000000000000 DUP2 MSTORE PUSH1 0x4 ADD PUSH2 0x21C SWAP1 PUSH2 0x4E9 JUMP JUMPDEST PUSH1 0x40 MLOAD DUP1 SWAP2 SUB SWAP1 REVERT JUMPDEST PUSH1 0x4 DUP1 SLOAD DUP1 PUSH1 0x20 MUL PUSH1 0x20 ADD PUSH1 0x40 MLOAD SWAP1 DUP2 ADD PUSH1 0x40 MSTORE DUP1 SWAP3 SWAP2 SWAP1 DUP2 DUP2 MSTORE PUSH1 0x20 ADD DUP3 DUP1 SLOAD DUP1 ISZERO PUSH2 0x2A7 JUMPI PUSH1 0x20 MUL DUP3 ADD SWAP2 SWAP1 PUSH1 0x0 MSTORE PUSH1 0x20 PUSH1 0x0 KECCAK256 SWAP1 JUMPDEST DUP2 PUSH1 0x0 SWAP1 SLOAD SWAP1 PUSH2 0x100 EXP SWAP1 DIV PUSH20 0xFFFFFFFFFFFFFFFFFFFFFFFFFFFFFFFFFFFFFFFF AND PUSH20 0xFFFFFFFFFFFFFFFFFFFFFFFFFFFFFFFFFFFFFFFF AND DUP2 MSTORE PUSH1 0x20 ADD SWAP1 PUSH1 0x1 ADD SWAP1 DUP1 DUP4 GT PUSH2 0x25D JUMPI JUMPDEST POP POP POP POP POP SWAP1 POP SWAP1 JUMP JUMPDEST PUSH1 0x0 PUSH2 0x2C4 PUSH2 0x2BF DUP5 PUSH2 0x52E JUMP JUMPDEST PUSH2 0x509 JUMP JUMPDEST SWAP1 POP DUP3 DUP2 MSTORE PUSH1 0x20 DUP2 ADD DUP5 DUP5 DUP5 ADD GT ISZERO PUSH2 0x2E0 JUMPI PUSH2 0x2DF PUSH2 0x6D1 JUMP JUMPDEST JUMPDEST PUSH2 0x2EB DUP5 DUP3 DUP6 PUSH2 0x5FB JUMP JUMPDEST POP SWAP4 SWAP3 POP POP POP JUMP JUMPDEST PUSH1 0x0 DUP3 PUSH1 0x1F DUP4 ADD SLT PUSH2 0x308 JUMPI PUSH2 0x307 PUSH2 0x6CC JUMP JUMPDEST JUMPDEST DUP2 CALLDATALOAD PUSH2 0x318 DUP5 DUP3 PUSH1 0x20 DUP7 ADD PUSH2 0x2B1 JUMP JUMPDEST SWAP2 POP POP SWAP3 SWAP2 POP POP JUMP JUMPDEST PUSH1 0x0 PUSH1 0x20 DUP3 DUP5 SUB SLT ISZERO PUSH2 0x337 JUMPI PUSH2 0x336 PUSH2 0x6DB JUMP JUMPDEST JUMPDEST PUSH1 0x0 DUP3 ADD CALLDATALOAD PUSH8 0xFFFFFFFFFFFFFFFF DUP2 GT ISZERO PUSH2 0x355 JUMPI PUSH2 0x354 PUSH2 0x6D6 JUMP JUMPDEST JUMPDEST PUSH2 0x361 DUP5 DUP3 DUP6 ADD PUSH2 0x2F3 JUMP JUMPDEST SWAP2 POP POP SWAP3 SWAP2 POP POP JUMP JUMPDEST PUSH1 0x0 PUSH2 0x376 DUP4 DUP4 PUSH2 0x382 JUMP JUMPDEST PUSH1 0x20 DUP4 ADD SWAP1 POP SWAP3 SWAP2 POP POP JUMP JUMPDEST PUSH2 0x38B DUP2 PUSH2 0x5BF JUMP JUMPDEST DUP3 MSTORE POP POP JUMP JUMPDEST PUSH1 0x0 PUSH2 0x39C DUP3 PUSH2 0x56F JUMP JUMPDEST PUSH2 0x3A6 DUP2 DUP6 PUSH2 0x592 JUMP JUMPDEST SWAP4 POP PUSH2 0x3B1 DUP4 PUSH2 0x55F JUMP JUMPDEST DUP1 PUSH1 0x0 JUMPDEST DUP4 DUP2 LT ISZERO PUSH2 0x3E2 JUMPI DUP2 MLOAD PUSH2 0x3C9 DUP9 DUP3 PUSH2 0x36A JUMP JUMPDEST SWAP8 POP PUSH2 0x3D4 DUP4 PUSH2 0x585 JUMP JUMPDEST SWAP3 POP POP PUSH1 0x1 DUP2 ADD SWAP1 POP PUSH2 0x3B5 JUMP JUMPDEST POP DUP6 SWAP4 POP POP POP POP SWAP3 SWAP2 POP POP JUMP JUMPDEST PUSH2 0x3F8 DUP2 PUSH2 0x5D1 JUMP JUMPDEST DUP3 MSTORE POP POP JUMP JUMPDEST PUSH1 0x0 PUSH2 0x409 DUP3 PUSH2 0x57A JUMP JUMPDEST PUSH2 0x413 DUP2 DUP6 PUSH2 0x5B4 JUMP JUMPDEST SWAP4 POP PUSH2 0x423 DUP2 DUP6 PUSH1 0x20 DUP7 ADD PUSH2 0x60A JUMP JUMPDEST DUP1 DUP5 ADD SWAP2 POP POP SWAP3 SWAP2 POP POP JUMP JUMPDEST PUSH1 0x0 PUSH2 0x43C PUSH1 0xE DUP4 PUSH2 0x5A3 JUMP JUMPDEST SWAP2 POP PUSH2 0x447 DUP3 PUSH2 0x6F1 JUMP JUMPDEST PUSH1 0x20 DUP3 ADD SWAP1 POP SWAP2 SWAP1 POP JUMP JUMPDEST PUSH1 0x0 PUSH2 0x45F PUSH1 0x19 DUP4 PUSH2 0x5A3 JUMP JUMPDEST SWAP2 POP PUSH2 0x46A DUP3 PUSH2 0x71A JUMP JUMPDEST PUSH1 0x20 DUP3 ADD SWAP1 POP SWAP2 SWAP1 POP JUMP JUMPDEST PUSH1 0x0 PUSH2 0x481 DUP3 DUP5 PUSH2 0x3FE JUMP JUMPDEST SWAP2 POP DUP2 SWAP1 POP SWAP3 SWAP2 POP POP JUMP JUMPDEST PUSH1 0x0 PUSH1 0x20 DUP3 ADD SWAP1 POP DUP2 DUP2 SUB PUSH1 0x0 DUP4 ADD MSTORE PUSH2 0x4A6 DUP2 DUP5 PUSH2 0x391 JUMP JUMPDEST SWAP1 POP SWAP3 SWAP2 POP POP JUMP JUMPDEST PUSH1 0x0 PUSH1 0x20 DUP3 ADD SWAP1 POP PUSH2 0x4C3 PUSH1 0x0 DUP4 ADD DUP5 PUSH2 0x3EF JUMP JUMPDEST SWAP3 SWAP2 POP POP JUMP JUMPDEST PUSH1 0x0 PUSH1 0x20 DUP3 ADD SWAP1 POP DUP2 DUP2 SUB PUSH1 0x0 DUP4 ADD MSTORE PUSH2 0x4E2 DUP2 PUSH2 0x42F JUMP JUMPDEST SWAP1 POP SWAP2 SWAP1 POP JUMP JUMPDEST PUSH1 0x0 PUSH1 0x20 DUP3 ADD SWAP1 POP DUP2 DUP2 SUB PUSH1 0x0 DUP4 ADD MSTORE PUSH2 0x502 DUP2 PUSH2 0x452 JUMP JUMPDEST SWAP1 POP SWAP2 SWAP1 POP JUMP JUMPDEST PUSH1 0x0 PUSH2 0x513 PUSH2 0x524 JUMP JUMPDEST SWAP1 POP PUSH2 0x51F DUP3 DUP3 PUSH2 0x63D JUMP JUMPDEST SWAP2 SWAP1 POP JUMP JUMPDEST PUSH1 0x0 PUSH1 0x40 MLOAD SWAP1 POP SWAP1 JUMP JUMPDEST PUSH1 0x0 PUSH8 0xFFFFFFFFFFFFFFFF DUP3 GT ISZERO PUSH2 0x549 JUMPI PUSH2 0x548 PUSH2 0x69D JUMP JUMPDEST JUMPDEST PUSH2 0x552 DUP3 PUSH2 0x6E0 JUMP JUMPDEST SWAP1 POP PUSH1 0x20 DUP2 ADD SWAP1 POP SWAP2 SWAP1 POP JUMP JUMPDEST PUSH1 0x0 DUP2 SWAP1 POP PUSH1 0x20 DUP3 ADD SWAP1 POP SWAP2 SWAP1 POP JUMP JUMPDEST PUSH1 0x0 DUP2 MLOAD SWAP1 POP SWAP2 SWAP1 POP JUMP JUMPDEST PUSH1 0x0 DUP2 MLOAD SWAP1 POP SWAP2 SWAP1 POP JUMP JUMPDEST PUSH1 0x0 PUSH1 0x20 DUP3 ADD SWAP1 POP SWAP2 SWAP1 POP JUMP JUMPDEST PUSH1 0x0 DUP3 DUP3 MSTORE PUSH1 0x20 DUP3 ADD SWAP1 POP SWAP3 SWAP2 POP POP JUMP JUMPDEST PUSH1 0x0 DUP3 DUP3 MSTORE PUSH1 0x20 DUP3 ADD SWAP1 POP SWAP3 SWAP2 POP POP JUMP JUMPDEST PUSH1 0x0 DUP2 SWAP1 POP SWAP3 SWAP2 POP POP JUMP JUMPDEST PUSH1 0x0 PUSH2 0x5CA DUP3 PUSH2 0x5DB JUMP JUMPDEST SWAP1 POP SWAP2 SWAP1 POP JUMP JUMPDEST PUSH1 0x0 DUP2 SWAP1 POP SWAP2 SWAP1 POP JUMP JUMPDEST PUSH1 0x0 PUSH20 0xFFFFFFFFFFFFFFFFFFFFFFFFFFFFFFFFFFFFFFFF DUP3 AND SWAP1 POP SWAP2 SWAP1 POP JUMP JUMPDEST DUP3 DUP2 DUP4 CALLDATACOPY PUSH1 0x0 DUP4 DUP4 ADD MSTORE POP POP POP JUMP JUMPDEST PUSH1 0x0 JUMPDEST DUP4 DUP2 LT ISZERO PUSH2 0x628 JUMPI DUP1 DUP3 ADD MLOAD DUP2 DUP5 ADD MSTORE PUSH1 0x20 DUP2 ADD SWAP1 POP PUSH2 0x60D JUMP JUMPDEST DUP4 DUP2 GT ISZERO PUSH2 0x637 JUMPI PUSH1 0x0 DUP5 DUP5 ADD MSTORE JUMPDEST POP POP POP POP JUMP JUMPDEST PUSH2 0x646 DUP3 PUSH2 0x6E0 JUMP JUMPDEST DUP2 ADD DUP2 DUP2 LT PUSH8 0xFFFFFFFFFFFFFFFF DUP3 GT OR ISZERO PUSH2 0x665 JUMPI PUSH2 0x664 PUSH2 0x69D JUMP JUMPDEST JUMPDEST DUP1 PUSH1 0x40 MSTORE POP POP POP JUMP JUMPDEST PUSH32 0x4E487B7100000000000000000000000000000000000000000000000000000000 PUSH1 0x0 MSTORE PUSH1 0x21 PUSH1 0x4 MSTORE PUSH1 0x24 PUSH1 0x0 REVERT JUMPDEST PUSH32 0x4E487B7100000000000000000000000000000000000000000000000000000000 PUSH1 0x0 MSTORE PUSH1 0x41 PUSH1 0x4 MSTORE PUSH1 0x24 PUSH1 0x0 REVERT JUMPDEST PUSH1 0x0 DUP1 REVERT JUMPDEST PUSH1 0x0 DUP1 REVERT JUMPDEST PUSH1 0x0 DUP1 REVERT JUMPDEST PUSH1 0x0 DUP1 REVERT JUMPDEST PUSH1 0x0 PUSH1 0x1F NOT PUSH1 0x1F DUP4 ADD AND SWAP1 POP SWAP2 SWAP1 POP JUMP JUMPDEST PUSH32 0x596F7572206E6F742061646D696E000000000000000000000000000000000000 PUSH1 0x0 DUP3 ADD MSTORE POP JUMP JUMPDEST PUSH32 0x596F7572206E6F7420507269766174652070726F766964657200000000000000 PUSH1 0x0 DUP3 ADD MSTORE POP JUMP INVALID LOG2 PUSH5 0x6970667358 0x22 SLT KECCAK256 PUSH23 0x14B1FFF6E906205F5EA02753A1CD9CD9BAC5DD8B3A0FC7 NOT 0xB6 SWAP12 DUP12 0xC4 PUSH22 0xDFD864736F6C63430008070033000000000000000000 "
				},
				"gasEstimates": {
					"creation": {
						"codeDepositCost": "382600",
						"executionCost": "418",
						"totalCost": "383018"
					},
					"external": {
						"get_keccak256(string)": "infinite",
						"get_whiteList()": "infinite"
					}
				},
				"methodIdentifiers": {
					"get_keccak256(string)": "8e4f8c6b",
					"get_whiteList()": "c10e3911"
				}
			},
			"storageLayout": {
				"storage": [
					{
						"astId": 481,
						"contract": "GitHub/contract-token-cryptoMonster/backend/shared/helpers/helpresFunc.sol:helpresFunc",
						"label": "structUsers_",
						"offset": 0,
						"slot": "0",
						"type": "t_mapping(t_address,t_struct(structUser)476_storage)"
					},
					{
						"astId": 491,
						"contract": "GitHub/contract-token-cryptoMonster/backend/shared/helpers/helpresFunc.sol:helpresFunc",
						"label": "structPhases_",
						"offset": 0,
						"slot": "1",
						"type": "t_mapping(t_address,t_struct(structPhase)486_storage)"
					},
					{
						"astId": 509,
						"contract": "GitHub/contract-token-cryptoMonster/backend/shared/helpers/helpresFunc.sol:helpresFunc",
						"label": "strucApplications_",
						"offset": 0,
						"slot": "2",
						"type": "t_mapping(t_address,t_struct(structApplication)504_storage)"
					},
					{
						"astId": 512,
						"contract": "GitHub/contract-token-cryptoMonster/backend/shared/helpers/helpresFunc.sol:helpresFunc",
						"label": "structApplicationsAmountAdr",
						"offset": 0,
						"slot": "3",
						"type": "t_array(t_address)dyn_storage"
					},
					{
						"astId": 515,
						"contract": "GitHub/contract-token-cryptoMonster/backend/shared/helpers/helpresFunc.sol:helpresFunc",
						"label": "whiteList",
						"offset": 0,
						"slot": "4",
						"type": "t_array(t_address)dyn_storage"
					},
					{
						"astId": 518,
						"contract": "GitHub/contract-token-cryptoMonster/backend/shared/helpers/helpresFunc.sol:helpresFunc",
						"label": "blackList",
						"offset": 0,
						"slot": "5",
						"type": "t_array(t_address)dyn_storage"
					}
				],
				"types": {
					"t_address": {
						"encoding": "inplace",
						"label": "address",
						"numberOfBytes": "20"
					},
					"t_array(t_address)dyn_storage": {
						"base": "t_address",
						"encoding": "dynamic_array",
						"label": "address[]",
						"numberOfBytes": "32"
					},
					"t_bool": {
						"encoding": "inplace",
						"label": "bool",
						"numberOfBytes": "1"
					},
					"t_bytes32": {
						"encoding": "inplace",
						"label": "bytes32",
						"numberOfBytes": "32"
					},
					"t_enum(Role)460": {
						"encoding": "inplace",
						"label": "enum structures.Role",
						"numberOfBytes": "1"
					},
					"t_mapping(t_address,t_struct(structApplication)504_storage)": {
						"encoding": "mapping",
						"key": "t_address",
						"label": "mapping(address => struct structures.structApplication)",
						"numberOfBytes": "32",
						"value": "t_struct(structApplication)504_storage"
					},
					"t_mapping(t_address,t_struct(structPhase)486_storage)": {
						"encoding": "mapping",
						"key": "t_address",
						"label": "mapping(address => struct structures.structPhase)",
						"numberOfBytes": "32",
						"value": "t_struct(structPhase)486_storage"
					},
					"t_mapping(t_address,t_struct(structUser)476_storage)": {
						"encoding": "mapping",
						"key": "t_address",
						"label": "mapping(address => struct structures.structUser)",
						"numberOfBytes": "32",
						"value": "t_struct(structUser)476_storage"
					},
					"t_string_storage": {
						"encoding": "bytes",
						"label": "string",
						"numberOfBytes": "32"
					},
					"t_struct(structApplication)504_storage": {
						"encoding": "inplace",
						"label": "struct structures.structApplication",
						"members": [
							{
								"astId": 493,
								"contract": "GitHub/contract-token-cryptoMonster/backend/shared/helpers/helpresFunc.sol:helpresFunc",
								"label": "name",
								"offset": 0,
								"slot": "0",
								"type": "t_string_storage"
							},
							{
								"astId": 495,
								"contract": "GitHub/contract-token-cryptoMonster/backend/shared/helpers/helpresFunc.sol:helpresFunc",
								"label": "contactForCommunication",
								"offset": 0,
								"slot": "1",
								"type": "t_string_storage"
							},
							{
								"astId": 497,
								"contract": "GitHub/contract-token-cryptoMonster/backend/shared/helpers/helpresFunc.sol:helpresFunc",
								"label": "userAdr",
								"offset": 0,
								"slot": "2",
								"type": "t_address"
							},
							{
								"astId": 499,
								"contract": "GitHub/contract-token-cryptoMonster/backend/shared/helpers/helpresFunc.sol:helpresFunc",
								"label": "status",
								"offset": 20,
								"slot": "2",
								"type": "t_bool"
							},
							{
								"astId": 501,
								"contract": "GitHub/contract-token-cryptoMonster/backend/shared/helpers/helpresFunc.sol:helpresFunc",
								"label": "reviewed",
								"offset": 21,
								"slot": "2",
								"type": "t_bool"
							},
							{
								"astId": 503,
								"contract": "GitHub/contract-token-cryptoMonster/backend/shared/helpers/helpresFunc.sol:helpresFunc",
								"label": "exist",
								"offset": 22,
								"slot": "2",
								"type": "t_bool"
							}
						],
						"numberOfBytes": "96"
					},
					"t_struct(structPhase)486_storage": {
						"encoding": "inplace",
						"label": "struct structures.structPhase",
						"members": [
							{
								"astId": 483,
								"contract": "GitHub/contract-token-cryptoMonster/backend/shared/helpers/helpresFunc.sol:helpresFunc",
								"label": "statusPhase",
								"offset": 0,
								"slot": "0",
								"type": "t_bool"
							},
							{
								"astId": 485,
								"contract": "GitHub/contract-token-cryptoMonster/backend/shared/helpers/helpresFunc.sol:helpresFunc",
								"label": "reviewed",
								"offset": 1,
								"slot": "0",
								"type": "t_bool"
							}
						],
						"numberOfBytes": "32"
					},
					"t_struct(structUser)476_storage": {
						"encoding": "inplace",
						"label": "struct structures.structUser",
						"members": [
							{
								"astId": 463,
								"contract": "GitHub/contract-token-cryptoMonster/backend/shared/helpers/helpresFunc.sol:helpresFunc",
								"label": "role",
								"offset": 0,
								"slot": "0",
								"type": "t_enum(Role)460"
							},
							{
								"astId": 465,
								"contract": "GitHub/contract-token-cryptoMonster/backend/shared/helpers/helpresFunc.sol:helpresFunc",
								"label": "login",
								"offset": 0,
								"slot": "1",
								"type": "t_string_storage"
							},
							{
								"astId": 467,
								"contract": "GitHub/contract-token-cryptoMonster/backend/shared/helpers/helpresFunc.sol:helpresFunc",
								"label": "password",
								"offset": 0,
								"slot": "2",
								"type": "t_bytes32"
							},
							{
								"astId": 469,
								"contract": "GitHub/contract-token-cryptoMonster/backend/shared/helpers/helpresFunc.sol:helpresFunc",
								"label": "balance_overall",
								"offset": 0,
								"slot": "3",
								"type": "t_uint256"
							},
							{
								"astId": 471,
								"contract": "GitHub/contract-token-cryptoMonster/backend/shared/helpers/helpresFunc.sol:helpresFunc",
								"label": "balance_seed",
								"offset": 0,
								"slot": "4",
								"type": "t_uint256"
							},
							{
								"astId": 473,
								"contract": "GitHub/contract-token-cryptoMonster/backend/shared/helpers/helpresFunc.sol:helpresFunc",
								"label": "balance_private",
								"offset": 0,
								"slot": "5",
								"type": "t_uint256"
							},
							{
								"astId": 475,
								"contract": "GitHub/contract-token-cryptoMonster/backend/shared/helpers/helpresFunc.sol:helpresFunc",
								"label": "balance_public",
								"offset": 0,
								"slot": "6",
								"type": "t_uint256"
							}
						],
						"numberOfBytes": "224"
					},
					"t_uint256": {
						"encoding": "inplace",
						"label": "uint256",
						"numberOfBytes": "32"
					}
				}
			},
			"userdoc": {
				"kind": "user",
				"methods": {},
				"version": 1
			}
		}
	}
}