{
	"Documents/GitHub/contract-token-cryptoMonster/backend/components/PhasePrivate.sol": {
		"PhasePrivate": {
			"abi": [
				{
					"inputs": [
						{
							"internalType": "address",
							"name": "_userAdr",
							"type": "address"
						},
						{
							"internalType": "bool",
							"name": "_changeStatus",
							"type": "bool"
						}
					],
					"name": "acceptApplication",
					"outputs": [],
					"stateMutability": "nonpayable",
					"type": "function"
				},
				{
					"inputs": [
						{
							"internalType": "string",
							"name": "_name",
							"type": "string"
						},
						{
							"internalType": "string",
							"name": "_contactForCommunication",
							"type": "string"
						},
						{
							"internalType": "address",
							"name": "_userAdr",
							"type": "address"
						}
					],
					"name": "application",
					"outputs": [],
					"stateMutability": "nonpayable",
					"type": "function"
				},
				{
					"inputs": [
						{
							"internalType": "string",
							"name": "_hash",
							"type": "string"
						}
					],
					"name": "get_keccak256",
					"outputs": [
						{
							"internalType": "bytes32",
							"name": "",
							"type": "bytes32"
						}
					],
					"stateMutability": "pure",
					"type": "function"
				},
				{
					"inputs": [
						{
							"internalType": "address",
							"name": "_userAdr",
							"type": "address"
						}
					],
					"name": "viewApplication",
					"outputs": [
						{
							"components": [
								{
									"internalType": "string",
									"name": "name",
									"type": "string"
								},
								{
									"internalType": "string",
									"name": "contactForCommunication",
									"type": "string"
								},
								{
									"internalType": "address",
									"name": "userAdr",
									"type": "address"
								},
								{
									"internalType": "bool",
									"name": "status",
									"type": "bool"
								},
								{
									"internalType": "bool",
									"name": "reviewed",
									"type": "bool"
								},
								{
									"internalType": "bool",
									"name": "exist",
									"type": "bool"
								}
							],
							"internalType": "struct structures.structApplication",
							"name": "",
							"type": "tuple"
						}
					],
					"stateMutability": "nonpayable",
					"type": "function"
				},
				{
					"inputs": [],
					"name": "viewApplicationAmountAdr",
					"outputs": [
						{
							"internalType": "address[]",
							"name": "",
							"type": "address[]"
						}
					],
					"stateMutability": "view",
					"type": "function"
				},
				{
					"inputs": [],
					"name": "viewApplicationNotReviewed",
					"outputs": [
						{
							"internalType": "address[]",
							"name": "",
							"type": "address[]"
						}
					],
					"stateMutability": "view",
					"type": "function"
				}
			],
			"devdoc": {
				"kind": "dev",
				"methods": {},
				"version": 1
			},
			"evm": {
				"assembly": "    /* \"Documents/GitHub/contract-token-cryptoMonster/backend/components/PhasePrivate.sol\":157:2673  contract PhasePrivate is modifireFunc {\r... */\n  mstore(0x40, 0x80)\n  callvalue\n  dup1\n  iszero\n  tag_1\n  jumpi\n  0x00\n  dup1\n  revert\ntag_1:\n  pop\n  dataSize(sub_0)\n  dup1\n  dataOffset(sub_0)\n  0x00\n  codecopy\n  0x00\n  return\nstop\n\nsub_0: assembly {\n        /* \"Documents/GitHub/contract-token-cryptoMonster/backend/components/PhasePrivate.sol\":157:2673  contract PhasePrivate is modifireFunc {\r... */\n      mstore(0x40, 0x80)\n      callvalue\n      dup1\n      iszero\n      tag_1\n      jumpi\n      0x00\n      dup1\n      revert\n    tag_1:\n      pop\n      jumpi(tag_2, lt(calldatasize, 0x04))\n      shr(0xe0, calldataload(0x00))\n      dup1\n      0x015952a7\n      eq\n      tag_3\n      jumpi\n      dup1\n      0x4d0d594f\n      eq\n      tag_4\n      jumpi\n      dup1\n      0x76eada91\n      eq\n      tag_5\n      jumpi\n      dup1\n      0x785963c3\n      eq\n      tag_6\n      jumpi\n      dup1\n      0x8404a61e\n      eq\n      tag_7\n      jumpi\n      dup1\n      0x8e4f8c6b\n      eq\n      tag_8\n      jumpi\n    tag_2:\n      0x00\n      dup1\n      revert\n        /* \"Documents/GitHub/contract-token-cryptoMonster/backend/components/PhasePrivate.sol\":1404:1921  function viewApplicationNotReviewed () public onlyPrivateProvider view returns (address[] memory) {\r... */\n    tag_3:\n      tag_9\n      tag_10\n      jump\t// in\n    tag_9:\n      mload(0x40)\n      tag_11\n      swap2\n      swap1\n      tag_12\n      jump\t// in\n    tag_11:\n      mload(0x40)\n      dup1\n      swap2\n      sub\n      swap1\n      return\n        /* \"Documents/GitHub/contract-token-cryptoMonster/backend/components/PhasePrivate.sol\":951:1259  function viewApplicationAmountAdr () public onlyPrivateProvider view returns (address[] memory) {\r... */\n    tag_4:\n      tag_13\n      tag_14\n      jump\t// in\n    tag_13:\n      mload(0x40)\n      tag_15\n      swap2\n      swap1\n      tag_12\n      jump\t// in\n    tag_15:\n      mload(0x40)\n      dup1\n      swap2\n      sub\n      swap1\n      return\n        /* \"Documents/GitHub/contract-token-cryptoMonster/backend/components/PhasePrivate.sol\":2042:2385  function viewApplication (address _userAdr) public onlyPrivateProvider returns (structApplication memory) {\r... */\n    tag_5:\n      tag_16\n      0x04\n      dup1\n      calldatasize\n      sub\n      dup2\n      add\n      swap1\n      tag_17\n      swap2\n      swap1\n      tag_18\n      jump\t// in\n    tag_17:\n      tag_19\n      jump\t// in\n    tag_16:\n      mload(0x40)\n      tag_20\n      swap2\n      swap1\n      tag_21\n      jump\t// in\n    tag_20:\n      mload(0x40)\n      dup1\n      swap2\n      sub\n      swap1\n      return\n        /* \"Documents/GitHub/contract-token-cryptoMonster/backend/components/PhasePrivate.sol\":293:837  function application(string memory _name, string memory _contactForCommunication, address _userAdr) public {\r... */\n    tag_6:\n      tag_22\n      0x04\n      dup1\n      calldatasize\n      sub\n      dup2\n      add\n      swap1\n      tag_23\n      swap2\n      swap1\n      tag_24\n      jump\t// in\n    tag_23:\n      tag_25\n      jump\t// in\n    tag_22:\n      stop\n        /* \"Documents/GitHub/contract-token-cryptoMonster/backend/components/PhasePrivate.sol\":2461:2670  function acceptApplication (address _userAdr,bool _changeStatus) public onlyPrivateProvider {\r... */\n    tag_7:\n      tag_26\n      0x04\n      dup1\n      calldatasize\n      sub\n      dup2\n      add\n      swap1\n      tag_27\n      swap2\n      swap1\n      tag_28\n      jump\t// in\n    tag_27:\n      tag_29\n      jump\t// in\n    tag_26:\n      stop\n        /* \"Documents/GitHub/contract-token-cryptoMonster/backend/shared/helpers/getFuncs.sol\":144:282  function get_keccak256(string memory _hash) public pure returns(bytes32) {\r... */\n    tag_8:\n      tag_30\n      0x04\n      dup1\n      calldatasize\n      sub\n      dup2\n      add\n      swap1\n      tag_31\n      swap2\n      swap1\n      tag_32\n      jump\t// in\n    tag_31:\n      tag_33\n      jump\t// in\n    tag_30:\n      mload(0x40)\n      tag_34\n      swap2\n      swap1\n      tag_35\n      jump\t// in\n    tag_34:\n      mload(0x40)\n      dup1\n      swap2\n      sub\n      swap1\n      return\n        /* \"Documents/GitHub/contract-token-cryptoMonster/backend/components/PhasePrivate.sol\":1404:1921  function viewApplicationNotReviewed () public onlyPrivateProvider view returns (address[] memory) {\r... */\n    tag_10:\n        /* \"Documents/GitHub/contract-token-cryptoMonster/backend/components/PhasePrivate.sol\":1484:1500  address[] memory */\n      0x60\n        /* \"Documents/GitHub/contract-token-cryptoMonster/backend/shared/helpers/modifireFunc.sol\":566:585  Role.SYSTEM_PRIVATE */\n      0x02\n        /* \"Documents/GitHub/contract-token-cryptoMonster/backend/shared/helpers/modifireFunc.sol\":533:585  structUsers_[msg.sender].role == Role.SYSTEM_PRIVATE */\n      0x04\n      dup2\n      gt\n      iszero\n      tag_37\n      jumpi\n      tag_38\n      tag_39\n      jump\t// in\n    tag_38:\n    tag_37:\n        /* \"Documents/GitHub/contract-token-cryptoMonster/backend/shared/helpers/modifireFunc.sol\":533:545  structUsers_ */\n      0x00\n        /* \"Documents/GitHub/contract-token-cryptoMonster/backend/shared/helpers/modifireFunc.sol\":533:557  structUsers_[msg.sender] */\n      dup1\n        /* \"Documents/GitHub/contract-token-cryptoMonster/backend/shared/helpers/modifireFunc.sol\":546:556  msg.sender */\n      caller\n        /* \"Documents/GitHub/contract-token-cryptoMonster/backend/shared/helpers/modifireFunc.sol\":533:557  structUsers_[msg.sender] */\n      0xffffffffffffffffffffffffffffffffffffffff\n      and\n      0xffffffffffffffffffffffffffffffffffffffff\n      and\n      dup2\n      mstore\n      0x20\n      add\n      swap1\n      dup2\n      mstore\n      0x20\n      add\n      0x00\n      keccak256\n        /* \"Documents/GitHub/contract-token-cryptoMonster/backend/shared/helpers/modifireFunc.sol\":533:562  structUsers_[msg.sender].role */\n      0x00\n      add\n      0x00\n      swap1\n      sload\n      swap1\n      0x0100\n      exp\n      swap1\n      div\n      0xff\n      and\n        /* \"Documents/GitHub/contract-token-cryptoMonster/backend/shared/helpers/modifireFunc.sol\":533:585  structUsers_[msg.sender].role == Role.SYSTEM_PRIVATE */\n      0x04\n      dup2\n      gt\n      iszero\n      tag_40\n      jumpi\n      tag_41\n      tag_39\n      jump\t// in\n    tag_41:\n    tag_40:\n      eq\n        /* \"Documents/GitHub/contract-token-cryptoMonster/backend/shared/helpers/modifireFunc.sol\":525:615  require(structUsers_[msg.sender].role == Role.SYSTEM_PRIVATE, \"Your not Private provider\") */\n      tag_42\n      jumpi\n      mload(0x40)\n      0x08c379a000000000000000000000000000000000000000000000000000000000\n      dup2\n      mstore\n      0x04\n      add\n      tag_43\n      swap1\n      tag_44\n      jump\t// in\n    tag_43:\n      mload(0x40)\n      dup1\n      swap2\n      sub\n      swap1\n      revert\n    tag_42:\n        /* \"Documents/GitHub/contract-token-cryptoMonster/backend/components/PhasePrivate.sol\":1513:1544  address[] memory _tempAdrAmount */\n      0x60\n        /* \"Documents/GitHub/contract-token-cryptoMonster/backend/components/PhasePrivate.sol\":1561:1567  uint i */\n      0x00\n        /* \"Documents/GitHub/contract-token-cryptoMonster/backend/components/PhasePrivate.sol\":1556:1882  for (uint i = 0; i < structApplicationsAmountAdr.length; i++) {\r... */\n    tag_46:\n        /* \"Documents/GitHub/contract-token-cryptoMonster/backend/components/PhasePrivate.sol\":1577:1604  structApplicationsAmountAdr */\n      0x03\n        /* \"Documents/GitHub/contract-token-cryptoMonster/backend/components/PhasePrivate.sol\":1577:1611  structApplicationsAmountAdr.length */\n      dup1\n      sload\n      swap1\n      pop\n        /* \"Documents/GitHub/contract-token-cryptoMonster/backend/components/PhasePrivate.sol\":1573:1574  i */\n      dup2\n        /* \"Documents/GitHub/contract-token-cryptoMonster/backend/components/PhasePrivate.sol\":1573:1611  i < structApplicationsAmountAdr.length */\n      lt\n        /* \"Documents/GitHub/contract-token-cryptoMonster/backend/components/PhasePrivate.sol\":1556:1882  for (uint i = 0; i < structApplicationsAmountAdr.length; i++) {\r... */\n      iszero\n      tag_47\n      jumpi\n        /* \"Documents/GitHub/contract-token-cryptoMonster/backend/components/PhasePrivate.sol\":1633:1643  uint count */\n      0x00\n        /* \"Documents/GitHub/contract-token-cryptoMonster/backend/components/PhasePrivate.sol\":1662:1678  address _tempAdr */\n      dup1\n        /* \"Documents/GitHub/contract-token-cryptoMonster/backend/components/PhasePrivate.sol\":1681:1708  structApplicationsAmountAdr */\n      0x03\n        /* \"Documents/GitHub/contract-token-cryptoMonster/backend/components/PhasePrivate.sol\":1709:1710  i */\n      dup4\n        /* \"Documents/GitHub/contract-token-cryptoMonster/backend/components/PhasePrivate.sol\":1681:1711  structApplicationsAmountAdr[i] */\n      dup2\n      sload\n      dup2\n      lt\n      tag_49\n      jumpi\n      tag_50\n      tag_51\n      jump\t// in\n    tag_50:\n    tag_49:\n      swap1\n      0x00\n      mstore\n      keccak256(0x00, 0x20)\n      add\n      0x00\n      swap1\n      sload\n      swap1\n      0x0100\n      exp\n      swap1\n      div\n      0xffffffffffffffffffffffffffffffffffffffff\n      and\n        /* \"Documents/GitHub/contract-token-cryptoMonster/backend/components/PhasePrivate.sol\":1662:1711  address _tempAdr = structApplicationsAmountAdr[i] */\n      swap1\n      pop\n        /* \"Documents/GitHub/contract-token-cryptoMonster/backend/components/PhasePrivate.sol\":1771:1776  false */\n      0x00\n        /* \"Documents/GitHub/contract-token-cryptoMonster/backend/components/PhasePrivate.sol\":1730:1776  strucApplications_[_tempAdr].reviewed == false */\n      iszero\n      iszero\n        /* \"Documents/GitHub/contract-token-cryptoMonster/backend/components/PhasePrivate.sol\":1730:1748  strucApplications_ */\n      0x02\n        /* \"Documents/GitHub/contract-token-cryptoMonster/backend/components/PhasePrivate.sol\":1730:1758  strucApplications_[_tempAdr] */\n      0x00\n        /* \"Documents/GitHub/contract-token-cryptoMonster/backend/components/PhasePrivate.sol\":1749:1757  _tempAdr */\n      dup4\n        /* \"Documents/GitHub/contract-token-cryptoMonster/backend/components/PhasePrivate.sol\":1730:1758  strucApplications_[_tempAdr] */\n      0xffffffffffffffffffffffffffffffffffffffff\n      and\n      0xffffffffffffffffffffffffffffffffffffffff\n      and\n      dup2\n      mstore\n      0x20\n      add\n      swap1\n      dup2\n      mstore\n      0x20\n      add\n      0x00\n      keccak256\n        /* \"Documents/GitHub/contract-token-cryptoMonster/backend/components/PhasePrivate.sol\":1730:1767  strucApplications_[_tempAdr].reviewed */\n      0x02\n      add\n      0x15\n      swap1\n      sload\n      swap1\n      0x0100\n      exp\n      swap1\n      div\n      0xff\n      and\n        /* \"Documents/GitHub/contract-token-cryptoMonster/backend/components/PhasePrivate.sol\":1730:1776  strucApplications_[_tempAdr].reviewed == false */\n      iszero\n      iszero\n      eq\n        /* \"Documents/GitHub/contract-token-cryptoMonster/backend/components/PhasePrivate.sol\":1726:1871  if (strucApplications_[_tempAdr].reviewed == false) {\r... */\n      iszero\n      tag_53\n      jumpi\n        /* \"Documents/GitHub/contract-token-cryptoMonster/backend/components/PhasePrivate.sol\":1821:1829  _tempAdr */\n      dup1\n        /* \"Documents/GitHub/contract-token-cryptoMonster/backend/components/PhasePrivate.sol\":1797:1811  _tempAdrAmount */\n      dup5\n        /* \"Documents/GitHub/contract-token-cryptoMonster/backend/components/PhasePrivate.sol\":1812:1817  count */\n      dup4\n        /* \"Documents/GitHub/contract-token-cryptoMonster/backend/components/PhasePrivate.sol\":1797:1818  _tempAdrAmount[count] */\n      dup2\n      mload\n      dup2\n      lt\n      tag_54\n      jumpi\n      tag_55\n      tag_51\n      jump\t// in\n    tag_55:\n    tag_54:\n      0x20\n      mul\n      0x20\n      add\n      add\n        /* \"Documents/GitHub/contract-token-cryptoMonster/backend/components/PhasePrivate.sol\":1797:1829  _tempAdrAmount[count] = _tempAdr */\n      swap1\n      0xffffffffffffffffffffffffffffffffffffffff\n      and\n      swap1\n      dup2\n      0xffffffffffffffffffffffffffffffffffffffff\n      and\n      dup2\n      mstore\n      pop\n      pop\n        /* \"Documents/GitHub/contract-token-cryptoMonster/backend/components/PhasePrivate.sol\":1848:1855  count++ */\n      dup2\n      dup1\n      tag_56\n      swap1\n      tag_57\n      jump\t// in\n    tag_56:\n      swap3\n      pop\n      pop\n        /* \"Documents/GitHub/contract-token-cryptoMonster/backend/components/PhasePrivate.sol\":1726:1871  if (strucApplications_[_tempAdr].reviewed == false) {\r... */\n    tag_53:\n        /* \"Documents/GitHub/contract-token-cryptoMonster/backend/components/PhasePrivate.sol\":1618:1882  {\r... */\n      pop\n      pop\n        /* \"Documents/GitHub/contract-token-cryptoMonster/backend/components/PhasePrivate.sol\":1613:1616  i++ */\n      dup1\n      dup1\n      tag_58\n      swap1\n      tag_57\n      jump\t// in\n    tag_58:\n      swap2\n      pop\n      pop\n        /* \"Documents/GitHub/contract-token-cryptoMonster/backend/components/PhasePrivate.sol\":1556:1882  for (uint i = 0; i < structApplicationsAmountAdr.length; i++) {\r... */\n      jump(tag_46)\n    tag_47:\n      pop\n        /* \"Documents/GitHub/contract-token-cryptoMonster/backend/components/PhasePrivate.sol\":1899:1913  _tempAdrAmount */\n      dup1\n        /* \"Documents/GitHub/contract-token-cryptoMonster/backend/components/PhasePrivate.sol\":1892:1913  return _tempAdrAmount */\n      swap2\n      pop\n      pop\n        /* \"Documents/GitHub/contract-token-cryptoMonster/backend/components/PhasePrivate.sol\":1404:1921  function viewApplicationNotReviewed () public onlyPrivateProvider view returns (address[] memory) {\r... */\n      swap1\n      jump\t// out\n        /* \"Documents/GitHub/contract-token-cryptoMonster/backend/components/PhasePrivate.sol\":951:1259  function viewApplicationAmountAdr () public onlyPrivateProvider view returns (address[] memory) {\r... */\n    tag_14:\n        /* \"Documents/GitHub/contract-token-cryptoMonster/backend/components/PhasePrivate.sol\":1029:1045  address[] memory */\n      0x60\n        /* \"Documents/GitHub/contract-token-cryptoMonster/backend/shared/helpers/modifireFunc.sol\":566:585  Role.SYSTEM_PRIVATE */\n      0x02\n        /* \"Documents/GitHub/contract-token-cryptoMonster/backend/shared/helpers/modifireFunc.sol\":533:585  structUsers_[msg.sender].role == Role.SYSTEM_PRIVATE */\n      0x04\n      dup2\n      gt\n      iszero\n      tag_60\n      jumpi\n      tag_61\n      tag_39\n      jump\t// in\n    tag_61:\n    tag_60:\n        /* \"Documents/GitHub/contract-token-cryptoMonster/backend/shared/helpers/modifireFunc.sol\":533:545  structUsers_ */\n      0x00\n        /* \"Documents/GitHub/contract-token-cryptoMonster/backend/shared/helpers/modifireFunc.sol\":533:557  structUsers_[msg.sender] */\n      dup1\n        /* \"Documents/GitHub/contract-token-cryptoMonster/backend/shared/helpers/modifireFunc.sol\":546:556  msg.sender */\n      caller\n        /* \"Documents/GitHub/contract-token-cryptoMonster/backend/shared/helpers/modifireFunc.sol\":533:557  structUsers_[msg.sender] */\n      0xffffffffffffffffffffffffffffffffffffffff\n      and\n      0xffffffffffffffffffffffffffffffffffffffff\n      and\n      dup2\n      mstore\n      0x20\n      add\n      swap1\n      dup2\n      mstore\n      0x20\n      add\n      0x00\n      keccak256\n        /* \"Documents/GitHub/contract-token-cryptoMonster/backend/shared/helpers/modifireFunc.sol\":533:562  structUsers_[msg.sender].role */\n      0x00\n      add\n      0x00\n      swap1\n      sload\n      swap1\n      0x0100\n      exp\n      swap1\n      div\n      0xff\n      and\n        /* \"Documents/GitHub/contract-token-cryptoMonster/backend/shared/helpers/modifireFunc.sol\":533:585  structUsers_[msg.sender].role == Role.SYSTEM_PRIVATE */\n      0x04\n      dup2\n      gt\n      iszero\n      tag_62\n      jumpi\n      tag_63\n      tag_39\n      jump\t// in\n    tag_63:\n    tag_62:\n      eq\n        /* \"Documents/GitHub/contract-token-cryptoMonster/backend/shared/helpers/modifireFunc.sol\":525:615  require(structUsers_[msg.sender].role == Role.SYSTEM_PRIVATE, \"Your not Private provider\") */\n      tag_64\n      jumpi\n      mload(0x40)\n      0x08c379a000000000000000000000000000000000000000000000000000000000\n      dup2\n      mstore\n      0x04\n      add\n      tag_65\n      swap1\n      tag_44\n      jump\t// in\n    tag_65:\n      mload(0x40)\n      dup1\n      swap2\n      sub\n      swap1\n      revert\n    tag_64:\n        /* \"Documents/GitHub/contract-token-cryptoMonster/backend/components/PhasePrivate.sol\":1065:1092  structApplicationsAmountAdr */\n      0x03\n        /* \"Documents/GitHub/contract-token-cryptoMonster/backend/components/PhasePrivate.sol\":1058:1092  return structApplicationsAmountAdr */\n      dup1\n      sload\n      dup1\n      0x20\n      mul\n      0x20\n      add\n      mload(0x40)\n      swap1\n      dup2\n      add\n      0x40\n      mstore\n      dup1\n      swap3\n      swap2\n      swap1\n      dup2\n      dup2\n      mstore\n      0x20\n      add\n      dup3\n      dup1\n      sload\n      dup1\n      iszero\n      tag_67\n      jumpi\n      0x20\n      mul\n      dup3\n      add\n      swap2\n      swap1\n      0x00\n      mstore\n      keccak256(0x00, 0x20)\n      swap1\n    tag_68:\n      dup2\n      0x00\n      swap1\n      sload\n      swap1\n      0x0100\n      exp\n      swap1\n      div\n      0xffffffffffffffffffffffffffffffffffffffff\n      and\n      0xffffffffffffffffffffffffffffffffffffffff\n      and\n      dup2\n      mstore\n      0x20\n      add\n      swap1\n      0x01\n      add\n      swap1\n      dup1\n      dup4\n      gt\n      tag_68\n      jumpi\n    tag_67:\n      pop\n      pop\n      pop\n      pop\n      pop\n      swap1\n      pop\n        /* \"Documents/GitHub/contract-token-cryptoMonster/backend/components/PhasePrivate.sol\":951:1259  function viewApplicationAmountAdr () public onlyPrivateProvider view returns (address[] memory) {\r... */\n      swap1\n      jump\t// out\n        /* \"Documents/GitHub/contract-token-cryptoMonster/backend/components/PhasePrivate.sol\":2042:2385  function viewApplication (address _userAdr) public onlyPrivateProvider returns (structApplication memory) {\r... */\n    tag_19:\n        /* \"Documents/GitHub/contract-token-cryptoMonster/backend/components/PhasePrivate.sol\":2122:2146  structApplication memory */\n      tag_69\n      tag_70\n      jump\t// in\n    tag_69:\n        /* \"Documents/GitHub/contract-token-cryptoMonster/backend/shared/helpers/modifireFunc.sol\":566:585  Role.SYSTEM_PRIVATE */\n      0x02\n        /* \"Documents/GitHub/contract-token-cryptoMonster/backend/shared/helpers/modifireFunc.sol\":533:585  structUsers_[msg.sender].role == Role.SYSTEM_PRIVATE */\n      0x04\n      dup2\n      gt\n      iszero\n      tag_72\n      jumpi\n      tag_73\n      tag_39\n      jump\t// in\n    tag_73:\n    tag_72:\n        /* \"Documents/GitHub/contract-token-cryptoMonster/backend/shared/helpers/modifireFunc.sol\":533:545  structUsers_ */\n      0x00\n        /* \"Documents/GitHub/contract-token-cryptoMonster/backend/shared/helpers/modifireFunc.sol\":533:557  structUsers_[msg.sender] */\n      dup1\n        /* \"Documents/GitHub/contract-token-cryptoMonster/backend/shared/helpers/modifireFunc.sol\":546:556  msg.sender */\n      caller\n        /* \"Documents/GitHub/contract-token-cryptoMonster/backend/shared/helpers/modifireFunc.sol\":533:557  structUsers_[msg.sender] */\n      0xffffffffffffffffffffffffffffffffffffffff\n      and\n      0xffffffffffffffffffffffffffffffffffffffff\n      and\n      dup2\n      mstore\n      0x20\n      add\n      swap1\n      dup2\n      mstore\n      0x20\n      add\n      0x00\n      keccak256\n        /* \"Documents/GitHub/contract-token-cryptoMonster/backend/shared/helpers/modifireFunc.sol\":533:562  structUsers_[msg.sender].role */\n      0x00\n      add\n      0x00\n      swap1\n      sload\n      swap1\n      0x0100\n      exp\n      swap1\n      div\n      0xff\n      and\n        /* \"Documents/GitHub/contract-token-cryptoMonster/backend/shared/helpers/modifireFunc.sol\":533:585  structUsers_[msg.sender].role == Role.SYSTEM_PRIVATE */\n      0x04\n      dup2\n      gt\n      iszero\n      tag_74\n      jumpi\n      tag_75\n      tag_39\n      jump\t// in\n    tag_75:\n    tag_74:\n      eq\n        /* \"Documents/GitHub/contract-token-cryptoMonster/backend/shared/helpers/modifireFunc.sol\":525:615  require(structUsers_[msg.sender].role == Role.SYSTEM_PRIVATE, \"Your not Private provider\") */\n      tag_76\n      jumpi\n      mload(0x40)\n      0x08c379a000000000000000000000000000000000000000000000000000000000\n      dup2\n      mstore\n      0x04\n      add\n      tag_77\n      swap1\n      tag_44\n      jump\t// in\n    tag_77:\n      mload(0x40)\n      dup1\n      swap2\n      sub\n      swap1\n      revert\n    tag_76:\n        /* \"Documents/GitHub/contract-token-cryptoMonster/backend/components/PhasePrivate.sol\":2199:2203  true */\n      0x01\n        /* \"Documents/GitHub/contract-token-cryptoMonster/backend/components/PhasePrivate.sol\":2159:2177  strucApplications_ */\n      0x02\n        /* \"Documents/GitHub/contract-token-cryptoMonster/backend/components/PhasePrivate.sol\":2159:2187  strucApplications_[_userAdr] */\n      0x00\n        /* \"Documents/GitHub/contract-token-cryptoMonster/backend/components/PhasePrivate.sol\":2178:2186  _userAdr */\n      dup5\n        /* \"Documents/GitHub/contract-token-cryptoMonster/backend/components/PhasePrivate.sol\":2159:2187  strucApplications_[_userAdr] */\n      0xffffffffffffffffffffffffffffffffffffffff\n      and\n      0xffffffffffffffffffffffffffffffffffffffff\n      and\n      dup2\n      mstore\n      0x20\n      add\n      swap1\n      dup2\n      mstore\n      0x20\n      add\n      0x00\n      keccak256\n        /* \"Documents/GitHub/contract-token-cryptoMonster/backend/components/PhasePrivate.sol\":2159:2196  strucApplications_[_userAdr].reviewed */\n      0x02\n      add\n      0x15\n        /* \"Documents/GitHub/contract-token-cryptoMonster/backend/components/PhasePrivate.sol\":2159:2203  strucApplications_[_userAdr].reviewed = true */\n      0x0100\n      exp\n      dup2\n      sload\n      dup2\n      0xff\n      mul\n      not\n      and\n      swap1\n      dup4\n      iszero\n      iszero\n      mul\n      or\n      swap1\n      sstore\n      pop\n        /* \"Documents/GitHub/contract-token-cryptoMonster/backend/components/PhasePrivate.sol\":2349:2367  strucApplications_ */\n      0x02\n        /* \"Documents/GitHub/contract-token-cryptoMonster/backend/components/PhasePrivate.sol\":2349:2377  strucApplications_[_userAdr] */\n      0x00\n        /* \"Documents/GitHub/contract-token-cryptoMonster/backend/components/PhasePrivate.sol\":2368:2376  _userAdr */\n      dup4\n        /* \"Documents/GitHub/contract-token-cryptoMonster/backend/components/PhasePrivate.sol\":2349:2377  strucApplications_[_userAdr] */\n      0xffffffffffffffffffffffffffffffffffffffff\n      and\n      0xffffffffffffffffffffffffffffffffffffffff\n      and\n      dup2\n      mstore\n      0x20\n      add\n      swap1\n      dup2\n      mstore\n      0x20\n      add\n      0x00\n      keccak256\n        /* \"Documents/GitHub/contract-token-cryptoMonster/backend/components/PhasePrivate.sol\":2342:2377  return strucApplications_[_userAdr] */\n      mload(0x40)\n      dup1\n      0xc0\n      add\n      0x40\n      mstore\n      swap1\n      dup2\n      0x00\n      dup3\n      add\n      dup1\n      sload\n      tag_79\n      swap1\n      tag_80\n      jump\t// in\n    tag_79:\n      dup1\n      0x1f\n      add\n      0x20\n      dup1\n      swap2\n      div\n      mul\n      0x20\n      add\n      mload(0x40)\n      swap1\n      dup2\n      add\n      0x40\n      mstore\n      dup1\n      swap3\n      swap2\n      swap1\n      dup2\n      dup2\n      mstore\n      0x20\n      add\n      dup3\n      dup1\n      sload\n      tag_81\n      swap1\n      tag_80\n      jump\t// in\n    tag_81:\n      dup1\n      iszero\n      tag_82\n      jumpi\n      dup1\n      0x1f\n      lt\n      tag_83\n      jumpi\n      0x0100\n      dup1\n      dup4\n      sload\n      div\n      mul\n      dup4\n      mstore\n      swap2\n      0x20\n      add\n      swap2\n      jump(tag_82)\n    tag_83:\n      dup3\n      add\n      swap2\n      swap1\n      0x00\n      mstore\n      keccak256(0x00, 0x20)\n      swap1\n    tag_84:\n      dup2\n      sload\n      dup2\n      mstore\n      swap1\n      0x01\n      add\n      swap1\n      0x20\n      add\n      dup1\n      dup4\n      gt\n      tag_84\n      jumpi\n      dup3\n      swap1\n      sub\n      0x1f\n      and\n      dup3\n      add\n      swap2\n    tag_82:\n      pop\n      pop\n      pop\n      pop\n      pop\n      dup2\n      mstore\n      0x20\n      add\n      0x01\n      dup3\n      add\n      dup1\n      sload\n      tag_85\n      swap1\n      tag_80\n      jump\t// in\n    tag_85:\n      dup1\n      0x1f\n      add\n      0x20\n      dup1\n      swap2\n      div\n      mul\n      0x20\n      add\n      mload(0x40)\n      swap1\n      dup2\n      add\n      0x40\n      mstore\n      dup1\n      swap3\n      swap2\n      swap1\n      dup2\n      dup2\n      mstore\n      0x20\n      add\n      dup3\n      dup1\n      sload\n      tag_86\n      swap1\n      tag_80\n      jump\t// in\n    tag_86:\n      dup1\n      iszero\n      tag_87\n      jumpi\n      dup1\n      0x1f\n      lt\n      tag_88\n      jumpi\n      0x0100\n      dup1\n      dup4\n      sload\n      div\n      mul\n      dup4\n      mstore\n      swap2\n      0x20\n      add\n      swap2\n      jump(tag_87)\n    tag_88:\n      dup3\n      add\n      swap2\n      swap1\n      0x00\n      mstore\n      keccak256(0x00, 0x20)\n      swap1\n    tag_89:\n      dup2\n      sload\n      dup2\n      mstore\n      swap1\n      0x01\n      add\n      swap1\n      0x20\n      add\n      dup1\n      dup4\n      gt\n      tag_89\n      jumpi\n      dup3\n      swap1\n      sub\n      0x1f\n      and\n      dup3\n      add\n      swap2\n    tag_87:\n      pop\n      pop\n      pop\n      pop\n      pop\n      dup2\n      mstore\n      0x20\n      add\n      0x02\n      dup3\n      add\n      0x00\n      swap1\n      sload\n      swap1\n      0x0100\n      exp\n      swap1\n      div\n      0xffffffffffffffffffffffffffffffffffffffff\n      and\n      0xffffffffffffffffffffffffffffffffffffffff\n      and\n      0xffffffffffffffffffffffffffffffffffffffff\n      and\n      dup2\n      mstore\n      0x20\n      add\n      0x02\n      dup3\n      add\n      0x14\n      swap1\n      sload\n      swap1\n      0x0100\n      exp\n      swap1\n      div\n      0xff\n      and\n      iszero\n      iszero\n      iszero\n      iszero\n      dup2\n      mstore\n      0x20\n      add\n      0x02\n      dup3\n      add\n      0x15\n      swap1\n      sload\n      swap1\n      0x0100\n      exp\n      swap1\n      div\n      0xff\n      and\n      iszero\n      iszero\n      iszero\n      iszero\n      dup2\n      mstore\n      0x20\n      add\n      0x02\n      dup3\n      add\n      0x16\n      swap1\n      sload\n      swap1\n      0x0100\n      exp\n      swap1\n      div\n      0xff\n      and\n      iszero\n      iszero\n      iszero\n      iszero\n      dup2\n      mstore\n      pop\n      pop\n      swap1\n      pop\n        /* \"Documents/GitHub/contract-token-cryptoMonster/backend/components/PhasePrivate.sol\":2042:2385  function viewApplication (address _userAdr) public onlyPrivateProvider returns (structApplication memory) {\r... */\n      swap2\n      swap1\n      pop\n      jump\t// out\n        /* \"Documents/GitHub/contract-token-cryptoMonster/backend/components/PhasePrivate.sol\":293:837  function application(string memory _name, string memory _contactForCommunication, address _userAdr) public {\r... */\n    tag_25:\n        /* \"Documents/GitHub/contract-token-cryptoMonster/backend/components/PhasePrivate.sol\":459:463  true */\n      0x01\n        /* \"Documents/GitHub/contract-token-cryptoMonster/backend/components/PhasePrivate.sol\":419:463  strucApplications_[msg.sender].exist == true */\n      iszero\n      iszero\n        /* \"Documents/GitHub/contract-token-cryptoMonster/backend/components/PhasePrivate.sol\":419:437  strucApplications_ */\n      0x02\n        /* \"Documents/GitHub/contract-token-cryptoMonster/backend/components/PhasePrivate.sol\":419:449  strucApplications_[msg.sender] */\n      0x00\n        /* \"Documents/GitHub/contract-token-cryptoMonster/backend/components/PhasePrivate.sol\":438:448  msg.sender */\n      caller\n        /* \"Documents/GitHub/contract-token-cryptoMonster/backend/components/PhasePrivate.sol\":419:449  strucApplications_[msg.sender] */\n      0xffffffffffffffffffffffffffffffffffffffff\n      and\n      0xffffffffffffffffffffffffffffffffffffffff\n      and\n      dup2\n      mstore\n      0x20\n      add\n      swap1\n      dup2\n      mstore\n      0x20\n      add\n      0x00\n      keccak256\n        /* \"Documents/GitHub/contract-token-cryptoMonster/backend/components/PhasePrivate.sol\":419:455  strucApplications_[msg.sender].exist */\n      0x02\n      add\n      0x16\n      swap1\n      sload\n      swap1\n      0x0100\n      exp\n      swap1\n      div\n      0xff\n      and\n        /* \"Documents/GitHub/contract-token-cryptoMonster/backend/components/PhasePrivate.sol\":419:463  strucApplications_[msg.sender].exist == true */\n      iszero\n      iszero\n      eq\n        /* \"Documents/GitHub/contract-token-cryptoMonster/backend/components/PhasePrivate.sol\":411:493  require(strucApplications_[msg.sender].exist == true, \"Application already sent!\") */\n      tag_91\n      jumpi\n      mload(0x40)\n      0x08c379a000000000000000000000000000000000000000000000000000000000\n      dup2\n      mstore\n      0x04\n      add\n      tag_92\n      swap1\n      tag_93\n      jump\t// in\n    tag_92:\n      mload(0x40)\n      dup1\n      swap2\n      sub\n      swap1\n      revert\n    tag_91:\n        /* \"Documents/GitHub/contract-token-cryptoMonster/backend/components/PhasePrivate.sol\":637:716  structApplication(_name, _contactForCommunication, _userAdr, true, false, true) */\n      mload(0x40)\n      dup1\n      0xc0\n      add\n      0x40\n      mstore\n      dup1\n        /* \"Documents/GitHub/contract-token-cryptoMonster/backend/components/PhasePrivate.sol\":655:660  _name */\n      dup5\n        /* \"Documents/GitHub/contract-token-cryptoMonster/backend/components/PhasePrivate.sol\":637:716  structApplication(_name, _contactForCommunication, _userAdr, true, false, true) */\n      dup2\n      mstore\n      0x20\n      add\n        /* \"Documents/GitHub/contract-token-cryptoMonster/backend/components/PhasePrivate.sol\":662:686  _contactForCommunication */\n      dup4\n        /* \"Documents/GitHub/contract-token-cryptoMonster/backend/components/PhasePrivate.sol\":637:716  structApplication(_name, _contactForCommunication, _userAdr, true, false, true) */\n      dup2\n      mstore\n      0x20\n      add\n        /* \"Documents/GitHub/contract-token-cryptoMonster/backend/components/PhasePrivate.sol\":688:696  _userAdr */\n      dup3\n        /* \"Documents/GitHub/contract-token-cryptoMonster/backend/components/PhasePrivate.sol\":637:716  structApplication(_name, _contactForCommunication, _userAdr, true, false, true) */\n      0xffffffffffffffffffffffffffffffffffffffff\n      and\n      dup2\n      mstore\n      0x20\n      add\n        /* \"Documents/GitHub/contract-token-cryptoMonster/backend/components/PhasePrivate.sol\":698:702  true */\n      0x01\n        /* \"Documents/GitHub/contract-token-cryptoMonster/backend/components/PhasePrivate.sol\":637:716  structApplication(_name, _contactForCommunication, _userAdr, true, false, true) */\n      iszero\n      iszero\n      dup2\n      mstore\n      0x20\n      add\n        /* \"Documents/GitHub/contract-token-cryptoMonster/backend/components/PhasePrivate.sol\":704:709  false */\n      0x00\n        /* \"Documents/GitHub/contract-token-cryptoMonster/backend/components/PhasePrivate.sol\":637:716  structApplication(_name, _contactForCommunication, _userAdr, true, false, true) */\n      iszero\n      iszero\n      dup2\n      mstore\n      0x20\n      add\n        /* \"Documents/GitHub/contract-token-cryptoMonster/backend/components/PhasePrivate.sol\":711:715  true */\n      0x01\n        /* \"Documents/GitHub/contract-token-cryptoMonster/backend/components/PhasePrivate.sol\":637:716  structApplication(_name, _contactForCommunication, _userAdr, true, false, true) */\n      iszero\n      iszero\n      dup2\n      mstore\n      pop\n        /* \"Documents/GitHub/contract-token-cryptoMonster/backend/components/PhasePrivate.sol\":603:621  strucApplications_ */\n      0x02\n        /* \"Documents/GitHub/contract-token-cryptoMonster/backend/components/PhasePrivate.sol\":603:633  strucApplications_[msg.sender] */\n      0x00\n        /* \"Documents/GitHub/contract-token-cryptoMonster/backend/components/PhasePrivate.sol\":622:632  msg.sender */\n      caller\n        /* \"Documents/GitHub/contract-token-cryptoMonster/backend/components/PhasePrivate.sol\":603:633  strucApplications_[msg.sender] */\n      0xffffffffffffffffffffffffffffffffffffffff\n      and\n      0xffffffffffffffffffffffffffffffffffffffff\n      and\n      dup2\n      mstore\n      0x20\n      add\n      swap1\n      dup2\n      mstore\n      0x20\n      add\n      0x00\n      keccak256\n        /* \"Documents/GitHub/contract-token-cryptoMonster/backend/components/PhasePrivate.sol\":603:716  strucApplications_[msg.sender]  = structApplication(_name, _contactForCommunication, _userAdr, true, false, true) */\n      0x00\n      dup3\n      add\n      mload\n      dup2\n      0x00\n      add\n      swap1\n      dup1\n      mload\n      swap1\n      0x20\n      add\n      swap1\n      tag_94\n      swap3\n      swap2\n      swap1\n      tag_95\n      jump\t// in\n    tag_94:\n      pop\n      0x20\n      dup3\n      add\n      mload\n      dup2\n      0x01\n      add\n      swap1\n      dup1\n      mload\n      swap1\n      0x20\n      add\n      swap1\n      tag_96\n      swap3\n      swap2\n      swap1\n      tag_95\n      jump\t// in\n    tag_96:\n      pop\n      0x40\n      dup3\n      add\n      mload\n      dup2\n      0x02\n      add\n      exp(0x0100, 0x00)\n      dup2\n      sload\n      dup2\n      0xffffffffffffffffffffffffffffffffffffffff\n      mul\n      not\n      and\n      swap1\n      dup4\n      0xffffffffffffffffffffffffffffffffffffffff\n      and\n      mul\n      or\n      swap1\n      sstore\n      pop\n      0x60\n      dup3\n      add\n      mload\n      dup2\n      0x02\n      add\n      exp(0x0100, 0x14)\n      dup2\n      sload\n      dup2\n      0xff\n      mul\n      not\n      and\n      swap1\n      dup4\n      iszero\n      iszero\n      mul\n      or\n      swap1\n      sstore\n      pop\n      0x80\n      dup3\n      add\n      mload\n      dup2\n      0x02\n      add\n      exp(0x0100, 0x15)\n      dup2\n      sload\n      dup2\n      0xff\n      mul\n      not\n      and\n      swap1\n      dup4\n      iszero\n      iszero\n      mul\n      or\n      swap1\n      sstore\n      pop\n      0xa0\n      dup3\n      add\n      mload\n      dup2\n      0x02\n      add\n      exp(0x0100, 0x16)\n      dup2\n      sload\n      dup2\n      0xff\n      mul\n      not\n      and\n      swap1\n      dup4\n      iszero\n      iszero\n      mul\n      or\n      swap1\n      sstore\n      pop\n      swap1\n      pop\n      pop\n        /* \"Documents/GitHub/contract-token-cryptoMonster/backend/components/PhasePrivate.sol\":785:812  structApplicationsAmountAdr */\n      0x03\n        /* \"Documents/GitHub/contract-token-cryptoMonster/backend/components/PhasePrivate.sol\":818:828  msg.sender */\n      caller\n        /* \"Documents/GitHub/contract-token-cryptoMonster/backend/components/PhasePrivate.sol\":785:829  structApplicationsAmountAdr.push(msg.sender) */\n      swap1\n      dup1\n      0x01\n      dup2\n      sload\n      add\n      dup1\n      dup3\n      sstore\n      dup1\n      swap2\n      pop\n      pop\n      0x01\n      swap1\n      sub\n      swap1\n      0x00\n      mstore\n      keccak256(0x00, 0x20)\n      add\n      0x00\n      swap1\n      swap2\n      swap1\n      swap2\n      swap1\n      swap2\n      0x0100\n      exp\n      dup2\n      sload\n      dup2\n      0xffffffffffffffffffffffffffffffffffffffff\n      mul\n      not\n      and\n      swap1\n      dup4\n      0xffffffffffffffffffffffffffffffffffffffff\n      and\n      mul\n      or\n      swap1\n      sstore\n      pop\n        /* \"Documents/GitHub/contract-token-cryptoMonster/backend/components/PhasePrivate.sol\":293:837  function application(string memory _name, string memory _contactForCommunication, address _userAdr) public {\r... */\n      pop\n      pop\n      pop\n      jump\t// out\n        /* \"Documents/GitHub/contract-token-cryptoMonster/backend/components/PhasePrivate.sol\":2461:2670  function acceptApplication (address _userAdr,bool _changeStatus) public onlyPrivateProvider {\r... */\n    tag_29:\n        /* \"Documents/GitHub/contract-token-cryptoMonster/backend/shared/helpers/modifireFunc.sol\":566:585  Role.SYSTEM_PRIVATE */\n      0x02\n        /* \"Documents/GitHub/contract-token-cryptoMonster/backend/shared/helpers/modifireFunc.sol\":533:585  structUsers_[msg.sender].role == Role.SYSTEM_PRIVATE */\n      0x04\n      dup2\n      gt\n      iszero\n      tag_99\n      jumpi\n      tag_100\n      tag_39\n      jump\t// in\n    tag_100:\n    tag_99:\n        /* \"Documents/GitHub/contract-token-cryptoMonster/backend/shared/helpers/modifireFunc.sol\":533:545  structUsers_ */\n      0x00\n        /* \"Documents/GitHub/contract-token-cryptoMonster/backend/shared/helpers/modifireFunc.sol\":533:557  structUsers_[msg.sender] */\n      dup1\n        /* \"Documents/GitHub/contract-token-cryptoMonster/backend/shared/helpers/modifireFunc.sol\":546:556  msg.sender */\n      caller\n        /* \"Documents/GitHub/contract-token-cryptoMonster/backend/shared/helpers/modifireFunc.sol\":533:557  structUsers_[msg.sender] */\n      0xffffffffffffffffffffffffffffffffffffffff\n      and\n      0xffffffffffffffffffffffffffffffffffffffff\n      and\n      dup2\n      mstore\n      0x20\n      add\n      swap1\n      dup2\n      mstore\n      0x20\n      add\n      0x00\n      keccak256\n        /* \"Documents/GitHub/contract-token-cryptoMonster/backend/shared/helpers/modifireFunc.sol\":533:562  structUsers_[msg.sender].role */\n      0x00\n      add\n      0x00\n      swap1\n      sload\n      swap1\n      0x0100\n      exp\n      swap1\n      div\n      0xff\n      and\n        /* \"Documents/GitHub/contract-token-cryptoMonster/backend/shared/helpers/modifireFunc.sol\":533:585  structUsers_[msg.sender].role == Role.SYSTEM_PRIVATE */\n      0x04\n      dup2\n      gt\n      iszero\n      tag_101\n      jumpi\n      tag_102\n      tag_39\n      jump\t// in\n    tag_102:\n    tag_101:\n      eq\n        /* \"Documents/GitHub/contract-token-cryptoMonster/backend/shared/helpers/modifireFunc.sol\":525:615  require(structUsers_[msg.sender].role == Role.SYSTEM_PRIVATE, \"Your not Private provider\") */\n      tag_103\n      jumpi\n      mload(0x40)\n      0x08c379a000000000000000000000000000000000000000000000000000000000\n      dup2\n      mstore\n      0x04\n      add\n      tag_104\n      swap1\n      tag_44\n      jump\t// in\n    tag_104:\n      mload(0x40)\n      dup1\n      swap2\n      sub\n      swap1\n      revert\n    tag_103:\n        /* \"Documents/GitHub/contract-token-cryptoMonster/backend/components/PhasePrivate.sol\":2604:2608  true */\n      0x01\n        /* \"Documents/GitHub/contract-token-cryptoMonster/backend/components/PhasePrivate.sol\":2564:2582  strucApplications_ */\n      0x02\n        /* \"Documents/GitHub/contract-token-cryptoMonster/backend/components/PhasePrivate.sol\":2564:2592  strucApplications_[_userAdr] */\n      0x00\n        /* \"Documents/GitHub/contract-token-cryptoMonster/backend/components/PhasePrivate.sol\":2583:2591  _userAdr */\n      dup5\n        /* \"Documents/GitHub/contract-token-cryptoMonster/backend/components/PhasePrivate.sol\":2564:2592  strucApplications_[_userAdr] */\n      0xffffffffffffffffffffffffffffffffffffffff\n      and\n      0xffffffffffffffffffffffffffffffffffffffff\n      and\n      dup2\n      mstore\n      0x20\n      add\n      swap1\n      dup2\n      mstore\n      0x20\n      add\n      0x00\n      keccak256\n        /* \"Documents/GitHub/contract-token-cryptoMonster/backend/components/PhasePrivate.sol\":2564:2601  strucApplications_[_userAdr].reviewed */\n      0x02\n      add\n      0x15\n        /* \"Documents/GitHub/contract-token-cryptoMonster/backend/components/PhasePrivate.sol\":2564:2608  strucApplications_[_userAdr].reviewed = true */\n      0x0100\n      exp\n      dup2\n      sload\n      dup2\n      0xff\n      mul\n      not\n      and\n      swap1\n      dup4\n      iszero\n      iszero\n      mul\n      or\n      swap1\n      sstore\n      pop\n        /* \"Documents/GitHub/contract-token-cryptoMonster/backend/components/PhasePrivate.sol\":2657:2662  false */\n      0x00\n        /* \"Documents/GitHub/contract-token-cryptoMonster/backend/components/PhasePrivate.sol\":2619:2637  strucApplications_ */\n      0x02\n        /* \"Documents/GitHub/contract-token-cryptoMonster/backend/components/PhasePrivate.sol\":2619:2647  strucApplications_[_userAdr] */\n      0x00\n        /* \"Documents/GitHub/contract-token-cryptoMonster/backend/components/PhasePrivate.sol\":2638:2646  _userAdr */\n      dup5\n        /* \"Documents/GitHub/contract-token-cryptoMonster/backend/components/PhasePrivate.sol\":2619:2647  strucApplications_[_userAdr] */\n      0xffffffffffffffffffffffffffffffffffffffff\n      and\n      0xffffffffffffffffffffffffffffffffffffffff\n      and\n      dup2\n      mstore\n      0x20\n      add\n      swap1\n      dup2\n      mstore\n      0x20\n      add\n      0x00\n      keccak256\n        /* \"Documents/GitHub/contract-token-cryptoMonster/backend/components/PhasePrivate.sol\":2619:2654  strucApplications_[_userAdr].status */\n      0x02\n      add\n      0x14\n        /* \"Documents/GitHub/contract-token-cryptoMonster/backend/components/PhasePrivate.sol\":2619:2662  strucApplications_[_userAdr].status = false */\n      0x0100\n      exp\n      dup2\n      sload\n      dup2\n      0xff\n      mul\n      not\n      and\n      swap1\n      dup4\n      iszero\n      iszero\n      mul\n      or\n      swap1\n      sstore\n      pop\n        /* \"Documents/GitHub/contract-token-cryptoMonster/backend/components/PhasePrivate.sol\":2461:2670  function acceptApplication (address _userAdr,bool _changeStatus) public onlyPrivateProvider {\r... */\n      pop\n      pop\n      jump\t// out\n        /* \"Documents/GitHub/contract-token-cryptoMonster/backend/shared/helpers/getFuncs.sol\":144:282  function get_keccak256(string memory _hash) public pure returns(bytes32) {\r... */\n    tag_33:\n        /* \"Documents/GitHub/contract-token-cryptoMonster/backend/shared/helpers/getFuncs.sol\":208:215  bytes32 */\n      0x00\n        /* \"Documents/GitHub/contract-token-cryptoMonster/backend/shared/helpers/getFuncs.sol\":266:271  _hash */\n      dup2\n        /* \"Documents/GitHub/contract-token-cryptoMonster/backend/shared/helpers/getFuncs.sol\":249:272  abi.encodePacked(_hash) */\n      add(0x20, mload(0x40))\n      tag_107\n      swap2\n      swap1\n      tag_108\n      jump\t// in\n    tag_107:\n      mload(0x40)\n      0x20\n      dup2\n      dup4\n      sub\n      sub\n      dup2\n      mstore\n      swap1\n      0x40\n      mstore\n        /* \"Documents/GitHub/contract-token-cryptoMonster/backend/shared/helpers/getFuncs.sol\":239:273  keccak256(abi.encodePacked(_hash)) */\n      dup1\n      mload\n      swap1\n      0x20\n      add\n      keccak256\n        /* \"Documents/GitHub/contract-token-cryptoMonster/backend/shared/helpers/getFuncs.sol\":232:274  return(keccak256(abi.encodePacked(_hash))) */\n      swap1\n      pop\n        /* \"Documents/GitHub/contract-token-cryptoMonster/backend/shared/helpers/getFuncs.sol\":144:282  function get_keccak256(string memory _hash) public pure returns(bytes32) {\r... */\n      swap2\n      swap1\n      pop\n      jump\t// out\n    tag_70:\n      mload(0x40)\n      dup1\n      0xc0\n      add\n      0x40\n      mstore\n      dup1\n      0x60\n      dup2\n      mstore\n      0x20\n      add\n      0x60\n      dup2\n      mstore\n      0x20\n      add\n      and(0xffffffffffffffffffffffffffffffffffffffff, 0x00)\n      dup2\n      mstore\n      0x20\n      add\n      iszero(iszero(0x00))\n      dup2\n      mstore\n      0x20\n      add\n      iszero(iszero(0x00))\n      dup2\n      mstore\n      0x20\n      add\n      iszero(iszero(0x00))\n      dup2\n      mstore\n      pop\n      swap1\n      jump\t// out\n    tag_95:\n      dup3\n      dup1\n      sload\n      tag_109\n      swap1\n      tag_80\n      jump\t// in\n    tag_109:\n      swap1\n      0x00\n      mstore\n      keccak256(0x00, 0x20)\n      swap1\n      0x1f\n      add\n      0x20\n      swap1\n      div\n      dup2\n      add\n      swap3\n      dup3\n      tag_111\n      jumpi\n      0x00\n      dup6\n      sstore\n      jump(tag_110)\n    tag_111:\n      dup3\n      0x1f\n      lt\n      tag_112\n      jumpi\n      dup1\n      mload\n      not(0xff)\n      and\n      dup4\n      dup1\n      add\n      or\n      dup6\n      sstore\n      jump(tag_110)\n    tag_112:\n      dup3\n      dup1\n      add\n      0x01\n      add\n      dup6\n      sstore\n      dup3\n      iszero\n      tag_110\n      jumpi\n      swap2\n      dup3\n      add\n    tag_113:\n      dup3\n      dup2\n      gt\n      iszero\n      tag_114\n      jumpi\n      dup3\n      mload\n      dup3\n      sstore\n      swap2\n      0x20\n      add\n      swap2\n      swap1\n      0x01\n      add\n      swap1\n      jump(tag_113)\n    tag_114:\n    tag_110:\n      pop\n      swap1\n      pop\n      tag_115\n      swap2\n      swap1\n      tag_116\n      jump\t// in\n    tag_115:\n      pop\n      swap1\n      jump\t// out\n    tag_116:\n    tag_117:\n      dup1\n      dup3\n      gt\n      iszero\n      tag_118\n      jumpi\n      0x00\n      dup2\n      0x00\n      swap1\n      sstore\n      pop\n      0x01\n      add\n      jump(tag_117)\n    tag_118:\n      pop\n      swap1\n      jump\t// out\n        /* \"#utility.yul\":7:419   */\n    tag_120:\n        /* \"#utility.yul\":85:90   */\n      0x00\n        /* \"#utility.yul\":110:176   */\n      tag_122\n        /* \"#utility.yul\":126:175   */\n      tag_123\n        /* \"#utility.yul\":168:174   */\n      dup5\n        /* \"#utility.yul\":126:175   */\n      tag_124\n      jump\t// in\n    tag_123:\n        /* \"#utility.yul\":110:176   */\n      tag_125\n      jump\t// in\n    tag_122:\n        /* \"#utility.yul\":101:176   */\n      swap1\n      pop\n        /* \"#utility.yul\":199:205   */\n      dup3\n        /* \"#utility.yul\":192:197   */\n      dup2\n        /* \"#utility.yul\":185:206   */\n      mstore\n        /* \"#utility.yul\":237:241   */\n      0x20\n        /* \"#utility.yul\":230:235   */\n      dup2\n        /* \"#utility.yul\":226:242   */\n      add\n        /* \"#utility.yul\":275:278   */\n      dup5\n        /* \"#utility.yul\":266:272   */\n      dup5\n        /* \"#utility.yul\":261:264   */\n      dup5\n        /* \"#utility.yul\":257:273   */\n      add\n        /* \"#utility.yul\":254:279   */\n      gt\n        /* \"#utility.yul\":251:363   */\n      iszero\n      tag_126\n      jumpi\n        /* \"#utility.yul\":282:361   */\n      tag_127\n      tag_128\n      jump\t// in\n    tag_127:\n        /* \"#utility.yul\":251:363   */\n    tag_126:\n        /* \"#utility.yul\":372:413   */\n      tag_129\n        /* \"#utility.yul\":406:412   */\n      dup5\n        /* \"#utility.yul\":401:404   */\n      dup3\n        /* \"#utility.yul\":396:399   */\n      dup6\n        /* \"#utility.yul\":372:413   */\n      tag_130\n      jump\t// in\n    tag_129:\n        /* \"#utility.yul\":91:419   */\n      pop\n        /* \"#utility.yul\":7:419   */\n      swap4\n      swap3\n      pop\n      pop\n      pop\n      jump\t// out\n        /* \"#utility.yul\":425:564   */\n    tag_131:\n        /* \"#utility.yul\":471:476   */\n      0x00\n        /* \"#utility.yul\":509:515   */\n      dup2\n        /* \"#utility.yul\":496:516   */\n      calldataload\n        /* \"#utility.yul\":487:516   */\n      swap1\n      pop\n        /* \"#utility.yul\":525:558   */\n      tag_133\n        /* \"#utility.yul\":552:557   */\n      dup2\n        /* \"#utility.yul\":525:558   */\n      tag_134\n      jump\t// in\n    tag_133:\n        /* \"#utility.yul\":425:564   */\n      swap3\n      swap2\n      pop\n      pop\n      jump\t// out\n        /* \"#utility.yul\":570:703   */\n    tag_135:\n        /* \"#utility.yul\":613:618   */\n      0x00\n        /* \"#utility.yul\":651:657   */\n      dup2\n        /* \"#utility.yul\":638:658   */\n      calldataload\n        /* \"#utility.yul\":629:658   */\n      swap1\n      pop\n        /* \"#utility.yul\":667:697   */\n      tag_137\n        /* \"#utility.yul\":691:696   */\n      dup2\n        /* \"#utility.yul\":667:697   */\n      tag_138\n      jump\t// in\n    tag_137:\n        /* \"#utility.yul\":570:703   */\n      swap3\n      swap2\n      pop\n      pop\n      jump\t// out\n        /* \"#utility.yul\":723:1063   */\n    tag_139:\n        /* \"#utility.yul\":779:784   */\n      0x00\n        /* \"#utility.yul\":828:831   */\n      dup3\n        /* \"#utility.yul\":821:825   */\n      0x1f\n        /* \"#utility.yul\":813:819   */\n      dup4\n        /* \"#utility.yul\":809:826   */\n      add\n        /* \"#utility.yul\":805:832   */\n      slt\n        /* \"#utility.yul\":795:917   */\n      tag_141\n      jumpi\n        /* \"#utility.yul\":836:915   */\n      tag_142\n      tag_143\n      jump\t// in\n    tag_142:\n        /* \"#utility.yul\":795:917   */\n    tag_141:\n        /* \"#utility.yul\":953:959   */\n      dup2\n        /* \"#utility.yul\":940:960   */\n      calldataload\n        /* \"#utility.yul\":978:1057   */\n      tag_144\n        /* \"#utility.yul\":1053:1056   */\n      dup5\n        /* \"#utility.yul\":1045:1051   */\n      dup3\n        /* \"#utility.yul\":1038:1042   */\n      0x20\n        /* \"#utility.yul\":1030:1036   */\n      dup7\n        /* \"#utility.yul\":1026:1043   */\n      add\n        /* \"#utility.yul\":978:1057   */\n      tag_120\n      jump\t// in\n    tag_144:\n        /* \"#utility.yul\":969:1057   */\n      swap2\n      pop\n        /* \"#utility.yul\":785:1063   */\n      pop\n        /* \"#utility.yul\":723:1063   */\n      swap3\n      swap2\n      pop\n      pop\n      jump\t// out\n        /* \"#utility.yul\":1069:1398   */\n    tag_18:\n        /* \"#utility.yul\":1128:1134   */\n      0x00\n        /* \"#utility.yul\":1177:1179   */\n      0x20\n        /* \"#utility.yul\":1165:1174   */\n      dup3\n        /* \"#utility.yul\":1156:1163   */\n      dup5\n        /* \"#utility.yul\":1152:1175   */\n      sub\n        /* \"#utility.yul\":1148:1180   */\n      slt\n        /* \"#utility.yul\":1145:1264   */\n      iszero\n      tag_146\n      jumpi\n        /* \"#utility.yul\":1183:1262   */\n      tag_147\n      tag_148\n      jump\t// in\n    tag_147:\n        /* \"#utility.yul\":1145:1264   */\n    tag_146:\n        /* \"#utility.yul\":1303:1304   */\n      0x00\n        /* \"#utility.yul\":1328:1381   */\n      tag_149\n        /* \"#utility.yul\":1373:1380   */\n      dup5\n        /* \"#utility.yul\":1364:1370   */\n      dup3\n        /* \"#utility.yul\":1353:1362   */\n      dup6\n        /* \"#utility.yul\":1349:1371   */\n      add\n        /* \"#utility.yul\":1328:1381   */\n      tag_131\n      jump\t// in\n    tag_149:\n        /* \"#utility.yul\":1318:1381   */\n      swap2\n      pop\n        /* \"#utility.yul\":1274:1391   */\n      pop\n        /* \"#utility.yul\":1069:1398   */\n      swap3\n      swap2\n      pop\n      pop\n      jump\t// out\n        /* \"#utility.yul\":1404:1872   */\n    tag_28:\n        /* \"#utility.yul\":1469:1475   */\n      0x00\n        /* \"#utility.yul\":1477:1483   */\n      dup1\n        /* \"#utility.yul\":1526:1528   */\n      0x40\n        /* \"#utility.yul\":1514:1523   */\n      dup4\n        /* \"#utility.yul\":1505:1512   */\n      dup6\n        /* \"#utility.yul\":1501:1524   */\n      sub\n        /* \"#utility.yul\":1497:1529   */\n      slt\n        /* \"#utility.yul\":1494:1613   */\n      iszero\n      tag_151\n      jumpi\n        /* \"#utility.yul\":1532:1611   */\n      tag_152\n      tag_148\n      jump\t// in\n    tag_152:\n        /* \"#utility.yul\":1494:1613   */\n    tag_151:\n        /* \"#utility.yul\":1652:1653   */\n      0x00\n        /* \"#utility.yul\":1677:1730   */\n      tag_153\n        /* \"#utility.yul\":1722:1729   */\n      dup6\n        /* \"#utility.yul\":1713:1719   */\n      dup3\n        /* \"#utility.yul\":1702:1711   */\n      dup7\n        /* \"#utility.yul\":1698:1720   */\n      add\n        /* \"#utility.yul\":1677:1730   */\n      tag_131\n      jump\t// in\n    tag_153:\n        /* \"#utility.yul\":1667:1730   */\n      swap3\n      pop\n        /* \"#utility.yul\":1623:1740   */\n      pop\n        /* \"#utility.yul\":1779:1781   */\n      0x20\n        /* \"#utility.yul\":1805:1855   */\n      tag_154\n        /* \"#utility.yul\":1847:1854   */\n      dup6\n        /* \"#utility.yul\":1838:1844   */\n      dup3\n        /* \"#utility.yul\":1827:1836   */\n      dup7\n        /* \"#utility.yul\":1823:1845   */\n      add\n        /* \"#utility.yul\":1805:1855   */\n      tag_135\n      jump\t// in\n    tag_154:\n        /* \"#utility.yul\":1795:1855   */\n      swap2\n      pop\n        /* \"#utility.yul\":1750:1865   */\n      pop\n        /* \"#utility.yul\":1404:1872   */\n      swap3\n      pop\n      swap3\n      swap1\n      pop\n      jump\t// out\n        /* \"#utility.yul\":1878:2387   */\n    tag_32:\n        /* \"#utility.yul\":1947:1953   */\n      0x00\n        /* \"#utility.yul\":1996:1998   */\n      0x20\n        /* \"#utility.yul\":1984:1993   */\n      dup3\n        /* \"#utility.yul\":1975:1982   */\n      dup5\n        /* \"#utility.yul\":1971:1994   */\n      sub\n        /* \"#utility.yul\":1967:1999   */\n      slt\n        /* \"#utility.yul\":1964:2083   */\n      iszero\n      tag_156\n      jumpi\n        /* \"#utility.yul\":2002:2081   */\n      tag_157\n      tag_148\n      jump\t// in\n    tag_157:\n        /* \"#utility.yul\":1964:2083   */\n    tag_156:\n        /* \"#utility.yul\":2150:2151   */\n      0x00\n        /* \"#utility.yul\":2139:2148   */\n      dup3\n        /* \"#utility.yul\":2135:2152   */\n      add\n        /* \"#utility.yul\":2122:2153   */\n      calldataload\n        /* \"#utility.yul\":2180:2198   */\n      0xffffffffffffffff\n        /* \"#utility.yul\":2172:2178   */\n      dup2\n        /* \"#utility.yul\":2169:2199   */\n      gt\n        /* \"#utility.yul\":2166:2283   */\n      iszero\n      tag_158\n      jumpi\n        /* \"#utility.yul\":2202:2281   */\n      tag_159\n      tag_160\n      jump\t// in\n    tag_159:\n        /* \"#utility.yul\":2166:2283   */\n    tag_158:\n        /* \"#utility.yul\":2307:2370   */\n      tag_161\n        /* \"#utility.yul\":2362:2369   */\n      dup5\n        /* \"#utility.yul\":2353:2359   */\n      dup3\n        /* \"#utility.yul\":2342:2351   */\n      dup6\n        /* \"#utility.yul\":2338:2360   */\n      add\n        /* \"#utility.yul\":2307:2370   */\n      tag_139\n      jump\t// in\n    tag_161:\n        /* \"#utility.yul\":2297:2370   */\n      swap2\n      pop\n        /* \"#utility.yul\":2093:2380   */\n      pop\n        /* \"#utility.yul\":1878:2387   */\n      swap3\n      swap2\n      pop\n      pop\n      jump\t// out\n        /* \"#utility.yul\":2393:3372   */\n    tag_24:\n        /* \"#utility.yul\":2490:2496   */\n      0x00\n        /* \"#utility.yul\":2498:2504   */\n      dup1\n        /* \"#utility.yul\":2506:2512   */\n      0x00\n        /* \"#utility.yul\":2555:2557   */\n      0x60\n        /* \"#utility.yul\":2543:2552   */\n      dup5\n        /* \"#utility.yul\":2534:2541   */\n      dup7\n        /* \"#utility.yul\":2530:2553   */\n      sub\n        /* \"#utility.yul\":2526:2558   */\n      slt\n        /* \"#utility.yul\":2523:2642   */\n      iszero\n      tag_163\n      jumpi\n        /* \"#utility.yul\":2561:2640   */\n      tag_164\n      tag_148\n      jump\t// in\n    tag_164:\n        /* \"#utility.yul\":2523:2642   */\n    tag_163:\n        /* \"#utility.yul\":2709:2710   */\n      0x00\n        /* \"#utility.yul\":2698:2707   */\n      dup5\n        /* \"#utility.yul\":2694:2711   */\n      add\n        /* \"#utility.yul\":2681:2712   */\n      calldataload\n        /* \"#utility.yul\":2739:2757   */\n      0xffffffffffffffff\n        /* \"#utility.yul\":2731:2737   */\n      dup2\n        /* \"#utility.yul\":2728:2758   */\n      gt\n        /* \"#utility.yul\":2725:2842   */\n      iszero\n      tag_165\n      jumpi\n        /* \"#utility.yul\":2761:2840   */\n      tag_166\n      tag_160\n      jump\t// in\n    tag_166:\n        /* \"#utility.yul\":2725:2842   */\n    tag_165:\n        /* \"#utility.yul\":2866:2929   */\n      tag_167\n        /* \"#utility.yul\":2921:2928   */\n      dup7\n        /* \"#utility.yul\":2912:2918   */\n      dup3\n        /* \"#utility.yul\":2901:2910   */\n      dup8\n        /* \"#utility.yul\":2897:2919   */\n      add\n        /* \"#utility.yul\":2866:2929   */\n      tag_139\n      jump\t// in\n    tag_167:\n        /* \"#utility.yul\":2856:2929   */\n      swap4\n      pop\n        /* \"#utility.yul\":2652:2939   */\n      pop\n        /* \"#utility.yul\":3006:3008   */\n      0x20\n        /* \"#utility.yul\":2995:3004   */\n      dup5\n        /* \"#utility.yul\":2991:3009   */\n      add\n        /* \"#utility.yul\":2978:3010   */\n      calldataload\n        /* \"#utility.yul\":3037:3055   */\n      0xffffffffffffffff\n        /* \"#utility.yul\":3029:3035   */\n      dup2\n        /* \"#utility.yul\":3026:3056   */\n      gt\n        /* \"#utility.yul\":3023:3140   */\n      iszero\n      tag_168\n      jumpi\n        /* \"#utility.yul\":3059:3138   */\n      tag_169\n      tag_160\n      jump\t// in\n    tag_169:\n        /* \"#utility.yul\":3023:3140   */\n    tag_168:\n        /* \"#utility.yul\":3164:3227   */\n      tag_170\n        /* \"#utility.yul\":3219:3226   */\n      dup7\n        /* \"#utility.yul\":3210:3216   */\n      dup3\n        /* \"#utility.yul\":3199:3208   */\n      dup8\n        /* \"#utility.yul\":3195:3217   */\n      add\n        /* \"#utility.yul\":3164:3227   */\n      tag_139\n      jump\t// in\n    tag_170:\n        /* \"#utility.yul\":3154:3227   */\n      swap3\n      pop\n        /* \"#utility.yul\":2949:3237   */\n      pop\n        /* \"#utility.yul\":3276:3278   */\n      0x40\n        /* \"#utility.yul\":3302:3355   */\n      tag_171\n        /* \"#utility.yul\":3347:3354   */\n      dup7\n        /* \"#utility.yul\":3338:3344   */\n      dup3\n        /* \"#utility.yul\":3327:3336   */\n      dup8\n        /* \"#utility.yul\":3323:3345   */\n      add\n        /* \"#utility.yul\":3302:3355   */\n      tag_131\n      jump\t// in\n    tag_171:\n        /* \"#utility.yul\":3292:3355   */\n      swap2\n      pop\n        /* \"#utility.yul\":3247:3365   */\n      pop\n        /* \"#utility.yul\":2393:3372   */\n      swap3\n      pop\n      swap3\n      pop\n      swap3\n      jump\t// out\n        /* \"#utility.yul\":3378:3557   */\n    tag_172:\n        /* \"#utility.yul\":3447:3457   */\n      0x00\n        /* \"#utility.yul\":3468:3514   */\n      tag_174\n        /* \"#utility.yul\":3510:3513   */\n      dup4\n        /* \"#utility.yul\":3502:3508   */\n      dup4\n        /* \"#utility.yul\":3468:3514   */\n      tag_175\n      jump\t// in\n    tag_174:\n        /* \"#utility.yul\":3546:3550   */\n      0x20\n        /* \"#utility.yul\":3541:3544   */\n      dup4\n        /* \"#utility.yul\":3537:3551   */\n      add\n        /* \"#utility.yul\":3523:3551   */\n      swap1\n      pop\n        /* \"#utility.yul\":3378:3557   */\n      swap3\n      swap2\n      pop\n      pop\n      jump\t// out\n        /* \"#utility.yul\":3563:3671   */\n    tag_175:\n        /* \"#utility.yul\":3640:3664   */\n      tag_177\n        /* \"#utility.yul\":3658:3663   */\n      dup2\n        /* \"#utility.yul\":3640:3664   */\n      tag_178\n      jump\t// in\n    tag_177:\n        /* \"#utility.yul\":3635:3638   */\n      dup3\n        /* \"#utility.yul\":3628:3665   */\n      mstore\n        /* \"#utility.yul\":3563:3671   */\n      pop\n      pop\n      jump\t// out\n        /* \"#utility.yul\":3707:4439   */\n    tag_179:\n        /* \"#utility.yul\":3826:3829   */\n      0x00\n        /* \"#utility.yul\":3855:3909   */\n      tag_181\n        /* \"#utility.yul\":3903:3908   */\n      dup3\n        /* \"#utility.yul\":3855:3909   */\n      tag_182\n      jump\t// in\n    tag_181:\n        /* \"#utility.yul\":3925:4011   */\n      tag_183\n        /* \"#utility.yul\":4004:4010   */\n      dup2\n        /* \"#utility.yul\":3999:4002   */\n      dup6\n        /* \"#utility.yul\":3925:4011   */\n      tag_184\n      jump\t// in\n    tag_183:\n        /* \"#utility.yul\":3918:4011   */\n      swap4\n      pop\n        /* \"#utility.yul\":4035:4091   */\n      tag_185\n        /* \"#utility.yul\":4085:4090   */\n      dup4\n        /* \"#utility.yul\":4035:4091   */\n      tag_186\n      jump\t// in\n    tag_185:\n        /* \"#utility.yul\":4114:4121   */\n      dup1\n        /* \"#utility.yul\":4145:4146   */\n      0x00\n        /* \"#utility.yul\":4130:4414   */\n    tag_187:\n        /* \"#utility.yul\":4155:4161   */\n      dup4\n        /* \"#utility.yul\":4152:4153   */\n      dup2\n        /* \"#utility.yul\":4149:4162   */\n      lt\n        /* \"#utility.yul\":4130:4414   */\n      iszero\n      tag_189\n      jumpi\n        /* \"#utility.yul\":4231:4237   */\n      dup2\n        /* \"#utility.yul\":4225:4238   */\n      mload\n        /* \"#utility.yul\":4258:4321   */\n      tag_190\n        /* \"#utility.yul\":4317:4320   */\n      dup9\n        /* \"#utility.yul\":4302:4315   */\n      dup3\n        /* \"#utility.yul\":4258:4321   */\n      tag_172\n      jump\t// in\n    tag_190:\n        /* \"#utility.yul\":4251:4321   */\n      swap8\n      pop\n        /* \"#utility.yul\":4344:4404   */\n      tag_191\n        /* \"#utility.yul\":4397:4403   */\n      dup4\n        /* \"#utility.yul\":4344:4404   */\n      tag_192\n      jump\t// in\n    tag_191:\n        /* \"#utility.yul\":4334:4404   */\n      swap3\n      pop\n        /* \"#utility.yul\":4190:4414   */\n      pop\n        /* \"#utility.yul\":4177:4178   */\n      0x01\n        /* \"#utility.yul\":4174:4175   */\n      dup2\n        /* \"#utility.yul\":4170:4179   */\n      add\n        /* \"#utility.yul\":4165:4179   */\n      swap1\n      pop\n        /* \"#utility.yul\":4130:4414   */\n      jump(tag_187)\n    tag_189:\n        /* \"#utility.yul\":4134:4148   */\n      pop\n        /* \"#utility.yul\":4430:4433   */\n      dup6\n        /* \"#utility.yul\":4423:4433   */\n      swap4\n      pop\n        /* \"#utility.yul\":3831:4439   */\n      pop\n      pop\n      pop\n        /* \"#utility.yul\":3707:4439   */\n      swap3\n      swap2\n      pop\n      pop\n      jump\t// out\n        /* \"#utility.yul\":4445:4544   */\n    tag_193:\n        /* \"#utility.yul\":4516:4537   */\n      tag_195\n        /* \"#utility.yul\":4531:4536   */\n      dup2\n        /* \"#utility.yul\":4516:4537   */\n      tag_196\n      jump\t// in\n    tag_195:\n        /* \"#utility.yul\":4511:4514   */\n      dup3\n        /* \"#utility.yul\":4504:4538   */\n      mstore\n        /* \"#utility.yul\":4445:4544   */\n      pop\n      pop\n      jump\t// out\n        /* \"#utility.yul\":4550:4668   */\n    tag_197:\n        /* \"#utility.yul\":4637:4661   */\n      tag_199\n        /* \"#utility.yul\":4655:4660   */\n      dup2\n        /* \"#utility.yul\":4637:4661   */\n      tag_200\n      jump\t// in\n    tag_199:\n        /* \"#utility.yul\":4632:4635   */\n      dup3\n        /* \"#utility.yul\":4625:4662   */\n      mstore\n        /* \"#utility.yul\":4550:4668   */\n      pop\n      pop\n      jump\t// out\n        /* \"#utility.yul\":4674:5018   */\n    tag_201:\n        /* \"#utility.yul\":4752:4755   */\n      0x00\n        /* \"#utility.yul\":4780:4819   */\n      tag_203\n        /* \"#utility.yul\":4813:4818   */\n      dup3\n        /* \"#utility.yul\":4780:4819   */\n      tag_204\n      jump\t// in\n    tag_203:\n        /* \"#utility.yul\":4835:4896   */\n      tag_205\n        /* \"#utility.yul\":4889:4895   */\n      dup2\n        /* \"#utility.yul\":4884:4887   */\n      dup6\n        /* \"#utility.yul\":4835:4896   */\n      tag_206\n      jump\t// in\n    tag_205:\n        /* \"#utility.yul\":4828:4896   */\n      swap4\n      pop\n        /* \"#utility.yul\":4905:4957   */\n      tag_207\n        /* \"#utility.yul\":4950:4956   */\n      dup2\n        /* \"#utility.yul\":4945:4948   */\n      dup6\n        /* \"#utility.yul\":4938:4942   */\n      0x20\n        /* \"#utility.yul\":4931:4936   */\n      dup7\n        /* \"#utility.yul\":4927:4943   */\n      add\n        /* \"#utility.yul\":4905:4957   */\n      tag_208\n      jump\t// in\n    tag_207:\n        /* \"#utility.yul\":4982:5011   */\n      tag_209\n        /* \"#utility.yul\":5004:5010   */\n      dup2\n        /* \"#utility.yul\":4982:5011   */\n      tag_210\n      jump\t// in\n    tag_209:\n        /* \"#utility.yul\":4977:4980   */\n      dup5\n        /* \"#utility.yul\":4973:5012   */\n      add\n        /* \"#utility.yul\":4966:5012   */\n      swap2\n      pop\n        /* \"#utility.yul\":4756:5018   */\n      pop\n        /* \"#utility.yul\":4674:5018   */\n      swap3\n      swap2\n      pop\n      pop\n      jump\t// out\n        /* \"#utility.yul\":5024:5401   */\n    tag_211:\n        /* \"#utility.yul\":5130:5133   */\n      0x00\n        /* \"#utility.yul\":5158:5197   */\n      tag_213\n        /* \"#utility.yul\":5191:5196   */\n      dup3\n        /* \"#utility.yul\":5158:5197   */\n      tag_204\n      jump\t// in\n    tag_213:\n        /* \"#utility.yul\":5213:5302   */\n      tag_214\n        /* \"#utility.yul\":5295:5301   */\n      dup2\n        /* \"#utility.yul\":5290:5293   */\n      dup6\n        /* \"#utility.yul\":5213:5302   */\n      tag_215\n      jump\t// in\n    tag_214:\n        /* \"#utility.yul\":5206:5302   */\n      swap4\n      pop\n        /* \"#utility.yul\":5311:5363   */\n      tag_216\n        /* \"#utility.yul\":5356:5362   */\n      dup2\n        /* \"#utility.yul\":5351:5354   */\n      dup6\n        /* \"#utility.yul\":5344:5348   */\n      0x20\n        /* \"#utility.yul\":5337:5342   */\n      dup7\n        /* \"#utility.yul\":5333:5349   */\n      add\n        /* \"#utility.yul\":5311:5363   */\n      tag_208\n      jump\t// in\n    tag_216:\n        /* \"#utility.yul\":5388:5394   */\n      dup1\n        /* \"#utility.yul\":5383:5386   */\n      dup5\n        /* \"#utility.yul\":5379:5395   */\n      add\n        /* \"#utility.yul\":5372:5395   */\n      swap2\n      pop\n        /* \"#utility.yul\":5134:5401   */\n      pop\n        /* \"#utility.yul\":5024:5401   */\n      swap3\n      swap2\n      pop\n      pop\n      jump\t// out\n        /* \"#utility.yul\":5407:5773   */\n    tag_217:\n        /* \"#utility.yul\":5549:5552   */\n      0x00\n        /* \"#utility.yul\":5570:5637   */\n      tag_219\n        /* \"#utility.yul\":5634:5636   */\n      0x19\n        /* \"#utility.yul\":5629:5632   */\n      dup4\n        /* \"#utility.yul\":5570:5637   */\n      tag_220\n      jump\t// in\n    tag_219:\n        /* \"#utility.yul\":5563:5637   */\n      swap2\n      pop\n        /* \"#utility.yul\":5646:5739   */\n      tag_221\n        /* \"#utility.yul\":5735:5738   */\n      dup3\n        /* \"#utility.yul\":5646:5739   */\n      tag_222\n      jump\t// in\n    tag_221:\n        /* \"#utility.yul\":5764:5766   */\n      0x20\n        /* \"#utility.yul\":5759:5762   */\n      dup3\n        /* \"#utility.yul\":5755:5767   */\n      add\n        /* \"#utility.yul\":5748:5767   */\n      swap1\n      pop\n        /* \"#utility.yul\":5407:5773   */\n      swap2\n      swap1\n      pop\n      jump\t// out\n        /* \"#utility.yul\":5779:6145   */\n    tag_223:\n        /* \"#utility.yul\":5921:5924   */\n      0x00\n        /* \"#utility.yul\":5942:6009   */\n      tag_225\n        /* \"#utility.yul\":6006:6008   */\n      0x19\n        /* \"#utility.yul\":6001:6004   */\n      dup4\n        /* \"#utility.yul\":5942:6009   */\n      tag_220\n      jump\t// in\n    tag_225:\n        /* \"#utility.yul\":5935:6009   */\n      swap2\n      pop\n        /* \"#utility.yul\":6018:6111   */\n      tag_226\n        /* \"#utility.yul\":6107:6110   */\n      dup3\n        /* \"#utility.yul\":6018:6111   */\n      tag_227\n      jump\t// in\n    tag_226:\n        /* \"#utility.yul\":6136:6138   */\n      0x20\n        /* \"#utility.yul\":6131:6134   */\n      dup3\n        /* \"#utility.yul\":6127:6139   */\n      add\n        /* \"#utility.yul\":6120:6139   */\n      swap1\n      pop\n        /* \"#utility.yul\":5779:6145   */\n      swap2\n      swap1\n      pop\n      jump\t// out\n        /* \"#utility.yul\":6233:7635   */\n    tag_228:\n        /* \"#utility.yul\":6370:6373   */\n      0x00\n        /* \"#utility.yul\":6406:6410   */\n      0xc0\n        /* \"#utility.yul\":6401:6404   */\n      dup4\n        /* \"#utility.yul\":6397:6411   */\n      add\n        /* \"#utility.yul\":6493:6497   */\n      0x00\n        /* \"#utility.yul\":6486:6491   */\n      dup4\n        /* \"#utility.yul\":6482:6498   */\n      add\n        /* \"#utility.yul\":6476:6499   */\n      mload\n        /* \"#utility.yul\":6546:6549   */\n      dup5\n        /* \"#utility.yul\":6540:6544   */\n      dup3\n        /* \"#utility.yul\":6536:6550   */\n      sub\n        /* \"#utility.yul\":6529:6533   */\n      0x00\n        /* \"#utility.yul\":6524:6527   */\n      dup7\n        /* \"#utility.yul\":6520:6534   */\n      add\n        /* \"#utility.yul\":6513:6551   */\n      mstore\n        /* \"#utility.yul\":6572:6645   */\n      tag_230\n        /* \"#utility.yul\":6640:6644   */\n      dup3\n        /* \"#utility.yul\":6626:6638   */\n      dup3\n        /* \"#utility.yul\":6572:6645   */\n      tag_201\n      jump\t// in\n    tag_230:\n        /* \"#utility.yul\":6564:6645   */\n      swap2\n      pop\n        /* \"#utility.yul\":6421:6656   */\n      pop\n        /* \"#utility.yul\":6757:6761   */\n      0x20\n        /* \"#utility.yul\":6750:6755   */\n      dup4\n        /* \"#utility.yul\":6746:6762   */\n      add\n        /* \"#utility.yul\":6740:6763   */\n      mload\n        /* \"#utility.yul\":6810:6813   */\n      dup5\n        /* \"#utility.yul\":6804:6808   */\n      dup3\n        /* \"#utility.yul\":6800:6814   */\n      sub\n        /* \"#utility.yul\":6793:6797   */\n      0x20\n        /* \"#utility.yul\":6788:6791   */\n      dup7\n        /* \"#utility.yul\":6784:6798   */\n      add\n        /* \"#utility.yul\":6777:6815   */\n      mstore\n        /* \"#utility.yul\":6836:6909   */\n      tag_231\n        /* \"#utility.yul\":6904:6908   */\n      dup3\n        /* \"#utility.yul\":6890:6902   */\n      dup3\n        /* \"#utility.yul\":6836:6909   */\n      tag_201\n      jump\t// in\n    tag_231:\n        /* \"#utility.yul\":6828:6909   */\n      swap2\n      pop\n        /* \"#utility.yul\":6666:6920   */\n      pop\n        /* \"#utility.yul\":7005:7009   */\n      0x40\n        /* \"#utility.yul\":6998:7003   */\n      dup4\n        /* \"#utility.yul\":6994:7010   */\n      add\n        /* \"#utility.yul\":6988:7011   */\n      mload\n        /* \"#utility.yul\":7024:7087   */\n      tag_232\n        /* \"#utility.yul\":7081:7085   */\n      0x40\n        /* \"#utility.yul\":7076:7079   */\n      dup7\n        /* \"#utility.yul\":7072:7086   */\n      add\n        /* \"#utility.yul\":7058:7070   */\n      dup3\n        /* \"#utility.yul\":7024:7087   */\n      tag_175\n      jump\t// in\n    tag_232:\n        /* \"#utility.yul\":6930:7097   */\n      pop\n        /* \"#utility.yul\":7181:7185   */\n      0x60\n        /* \"#utility.yul\":7174:7179   */\n      dup4\n        /* \"#utility.yul\":7170:7186   */\n      add\n        /* \"#utility.yul\":7164:7187   */\n      mload\n        /* \"#utility.yul\":7200:7257   */\n      tag_233\n        /* \"#utility.yul\":7251:7255   */\n      0x60\n        /* \"#utility.yul\":7246:7249   */\n      dup7\n        /* \"#utility.yul\":7242:7256   */\n      add\n        /* \"#utility.yul\":7228:7240   */\n      dup3\n        /* \"#utility.yul\":7200:7257   */\n      tag_193\n      jump\t// in\n    tag_233:\n        /* \"#utility.yul\":7107:7267   */\n      pop\n        /* \"#utility.yul\":7353:7357   */\n      0x80\n        /* \"#utility.yul\":7346:7351   */\n      dup4\n        /* \"#utility.yul\":7342:7358   */\n      add\n        /* \"#utility.yul\":7336:7359   */\n      mload\n        /* \"#utility.yul\":7372:7429   */\n      tag_234\n        /* \"#utility.yul\":7423:7427   */\n      0x80\n        /* \"#utility.yul\":7418:7421   */\n      dup7\n        /* \"#utility.yul\":7414:7428   */\n      add\n        /* \"#utility.yul\":7400:7412   */\n      dup3\n        /* \"#utility.yul\":7372:7429   */\n      tag_193\n      jump\t// in\n    tag_234:\n        /* \"#utility.yul\":7277:7439   */\n      pop\n        /* \"#utility.yul\":7522:7526   */\n      0xa0\n        /* \"#utility.yul\":7515:7520   */\n      dup4\n        /* \"#utility.yul\":7511:7527   */\n      add\n        /* \"#utility.yul\":7505:7528   */\n      mload\n        /* \"#utility.yul\":7541:7598   */\n      tag_235\n        /* \"#utility.yul\":7592:7596   */\n      0xa0\n        /* \"#utility.yul\":7587:7590   */\n      dup7\n        /* \"#utility.yul\":7583:7597   */\n      add\n        /* \"#utility.yul\":7569:7581   */\n      dup3\n        /* \"#utility.yul\":7541:7598   */\n      tag_193\n      jump\t// in\n    tag_235:\n        /* \"#utility.yul\":7449:7608   */\n      pop\n        /* \"#utility.yul\":7625:7629   */\n      dup1\n        /* \"#utility.yul\":7618:7629   */\n      swap2\n      pop\n        /* \"#utility.yul\":6375:7635   */\n      pop\n        /* \"#utility.yul\":6233:7635   */\n      swap3\n      swap2\n      pop\n      pop\n      jump\t// out\n        /* \"#utility.yul\":7641:7916   */\n    tag_108:\n        /* \"#utility.yul\":7773:7776   */\n      0x00\n        /* \"#utility.yul\":7795:7890   */\n      tag_237\n        /* \"#utility.yul\":7886:7889   */\n      dup3\n        /* \"#utility.yul\":7877:7883   */\n      dup5\n        /* \"#utility.yul\":7795:7890   */\n      tag_211\n      jump\t// in\n    tag_237:\n        /* \"#utility.yul\":7788:7890   */\n      swap2\n      pop\n        /* \"#utility.yul\":7907:7910   */\n      dup2\n        /* \"#utility.yul\":7900:7910   */\n      swap1\n      pop\n        /* \"#utility.yul\":7641:7916   */\n      swap3\n      swap2\n      pop\n      pop\n      jump\t// out\n        /* \"#utility.yul\":7922:8295   */\n    tag_12:\n        /* \"#utility.yul\":8065:8069   */\n      0x00\n        /* \"#utility.yul\":8103:8105   */\n      0x20\n        /* \"#utility.yul\":8092:8101   */\n      dup3\n        /* \"#utility.yul\":8088:8106   */\n      add\n        /* \"#utility.yul\":8080:8106   */\n      swap1\n      pop\n        /* \"#utility.yul\":8152:8161   */\n      dup2\n        /* \"#utility.yul\":8146:8150   */\n      dup2\n        /* \"#utility.yul\":8142:8162   */\n      sub\n        /* \"#utility.yul\":8138:8139   */\n      0x00\n        /* \"#utility.yul\":8127:8136   */\n      dup4\n        /* \"#utility.yul\":8123:8140   */\n      add\n        /* \"#utility.yul\":8116:8163   */\n      mstore\n        /* \"#utility.yul\":8180:8288   */\n      tag_239\n        /* \"#utility.yul\":8283:8287   */\n      dup2\n        /* \"#utility.yul\":8274:8280   */\n      dup5\n        /* \"#utility.yul\":8180:8288   */\n      tag_179\n      jump\t// in\n    tag_239:\n        /* \"#utility.yul\":8172:8288   */\n      swap1\n      pop\n        /* \"#utility.yul\":7922:8295   */\n      swap3\n      swap2\n      pop\n      pop\n      jump\t// out\n        /* \"#utility.yul\":8301:8523   */\n    tag_35:\n        /* \"#utility.yul\":8394:8398   */\n      0x00\n        /* \"#utility.yul\":8432:8434   */\n      0x20\n        /* \"#utility.yul\":8421:8430   */\n      dup3\n        /* \"#utility.yul\":8417:8435   */\n      add\n        /* \"#utility.yul\":8409:8435   */\n      swap1\n      pop\n        /* \"#utility.yul\":8445:8516   */\n      tag_241\n        /* \"#utility.yul\":8513:8514   */\n      0x00\n        /* \"#utility.yul\":8502:8511   */\n      dup4\n        /* \"#utility.yul\":8498:8515   */\n      add\n        /* \"#utility.yul\":8489:8495   */\n      dup5\n        /* \"#utility.yul\":8445:8516   */\n      tag_197\n      jump\t// in\n    tag_241:\n        /* \"#utility.yul\":8301:8523   */\n      swap3\n      swap2\n      pop\n      pop\n      jump\t// out\n        /* \"#utility.yul\":8529:8948   */\n    tag_93:\n        /* \"#utility.yul\":8695:8699   */\n      0x00\n        /* \"#utility.yul\":8733:8735   */\n      0x20\n        /* \"#utility.yul\":8722:8731   */\n      dup3\n        /* \"#utility.yul\":8718:8736   */\n      add\n        /* \"#utility.yul\":8710:8736   */\n      swap1\n      pop\n        /* \"#utility.yul\":8782:8791   */\n      dup2\n        /* \"#utility.yul\":8776:8780   */\n      dup2\n        /* \"#utility.yul\":8772:8792   */\n      sub\n        /* \"#utility.yul\":8768:8769   */\n      0x00\n        /* \"#utility.yul\":8757:8766   */\n      dup4\n        /* \"#utility.yul\":8753:8770   */\n      add\n        /* \"#utility.yul\":8746:8793   */\n      mstore\n        /* \"#utility.yul\":8810:8941   */\n      tag_243\n        /* \"#utility.yul\":8936:8940   */\n      dup2\n        /* \"#utility.yul\":8810:8941   */\n      tag_217\n      jump\t// in\n    tag_243:\n        /* \"#utility.yul\":8802:8941   */\n      swap1\n      pop\n        /* \"#utility.yul\":8529:8948   */\n      swap2\n      swap1\n      pop\n      jump\t// out\n        /* \"#utility.yul\":8954:9373   */\n    tag_44:\n        /* \"#utility.yul\":9120:9124   */\n      0x00\n        /* \"#utility.yul\":9158:9160   */\n      0x20\n        /* \"#utility.yul\":9147:9156   */\n      dup3\n        /* \"#utility.yul\":9143:9161   */\n      add\n        /* \"#utility.yul\":9135:9161   */\n      swap1\n      pop\n        /* \"#utility.yul\":9207:9216   */\n      dup2\n        /* \"#utility.yul\":9201:9205   */\n      dup2\n        /* \"#utility.yul\":9197:9217   */\n      sub\n        /* \"#utility.yul\":9193:9194   */\n      0x00\n        /* \"#utility.yul\":9182:9191   */\n      dup4\n        /* \"#utility.yul\":9178:9195   */\n      add\n        /* \"#utility.yul\":9171:9218   */\n      mstore\n        /* \"#utility.yul\":9235:9366   */\n      tag_245\n        /* \"#utility.yul\":9361:9365   */\n      dup2\n        /* \"#utility.yul\":9235:9366   */\n      tag_223\n      jump\t// in\n    tag_245:\n        /* \"#utility.yul\":9227:9366   */\n      swap1\n      pop\n        /* \"#utility.yul\":8954:9373   */\n      swap2\n      swap1\n      pop\n      jump\t// out\n        /* \"#utility.yul\":9379:9788   */\n    tag_21:\n        /* \"#utility.yul\":9540:9544   */\n      0x00\n        /* \"#utility.yul\":9578:9580   */\n      0x20\n        /* \"#utility.yul\":9567:9576   */\n      dup3\n        /* \"#utility.yul\":9563:9581   */\n      add\n        /* \"#utility.yul\":9555:9581   */\n      swap1\n      pop\n        /* \"#utility.yul\":9627:9636   */\n      dup2\n        /* \"#utility.yul\":9621:9625   */\n      dup2\n        /* \"#utility.yul\":9617:9637   */\n      sub\n        /* \"#utility.yul\":9613:9614   */\n      0x00\n        /* \"#utility.yul\":9602:9611   */\n      dup4\n        /* \"#utility.yul\":9598:9615   */\n      add\n        /* \"#utility.yul\":9591:9638   */\n      mstore\n        /* \"#utility.yul\":9655:9781   */\n      tag_247\n        /* \"#utility.yul\":9776:9780   */\n      dup2\n        /* \"#utility.yul\":9767:9773   */\n      dup5\n        /* \"#utility.yul\":9655:9781   */\n      tag_228\n      jump\t// in\n    tag_247:\n        /* \"#utility.yul\":9647:9781   */\n      swap1\n      pop\n        /* \"#utility.yul\":9379:9788   */\n      swap3\n      swap2\n      pop\n      pop\n      jump\t// out\n        /* \"#utility.yul\":9794:9923   */\n    tag_125:\n        /* \"#utility.yul\":9828:9834   */\n      0x00\n        /* \"#utility.yul\":9855:9875   */\n      tag_249\n      tag_250\n      jump\t// in\n    tag_249:\n        /* \"#utility.yul\":9845:9875   */\n      swap1\n      pop\n        /* \"#utility.yul\":9884:9917   */\n      tag_251\n        /* \"#utility.yul\":9912:9916   */\n      dup3\n        /* \"#utility.yul\":9904:9910   */\n      dup3\n        /* \"#utility.yul\":9884:9917   */\n      tag_252\n      jump\t// in\n    tag_251:\n        /* \"#utility.yul\":9794:9923   */\n      swap2\n      swap1\n      pop\n      jump\t// out\n        /* \"#utility.yul\":9929:10004   */\n    tag_250:\n        /* \"#utility.yul\":9962:9968   */\n      0x00\n        /* \"#utility.yul\":9995:9997   */\n      0x40\n        /* \"#utility.yul\":9989:9998   */\n      mload\n        /* \"#utility.yul\":9979:9998   */\n      swap1\n      pop\n        /* \"#utility.yul\":9929:10004   */\n      swap1\n      jump\t// out\n        /* \"#utility.yul\":10010:10318   */\n    tag_124:\n        /* \"#utility.yul\":10072:10076   */\n      0x00\n        /* \"#utility.yul\":10162:10180   */\n      0xffffffffffffffff\n        /* \"#utility.yul\":10154:10160   */\n      dup3\n        /* \"#utility.yul\":10151:10181   */\n      gt\n        /* \"#utility.yul\":10148:10204   */\n      iszero\n      tag_255\n      jumpi\n        /* \"#utility.yul\":10184:10202   */\n      tag_256\n      tag_257\n      jump\t// in\n    tag_256:\n        /* \"#utility.yul\":10148:10204   */\n    tag_255:\n        /* \"#utility.yul\":10222:10251   */\n      tag_258\n        /* \"#utility.yul\":10244:10250   */\n      dup3\n        /* \"#utility.yul\":10222:10251   */\n      tag_210\n      jump\t// in\n    tag_258:\n        /* \"#utility.yul\":10214:10251   */\n      swap1\n      pop\n        /* \"#utility.yul\":10306:10310   */\n      0x20\n        /* \"#utility.yul\":10300:10304   */\n      dup2\n        /* \"#utility.yul\":10296:10311   */\n      add\n        /* \"#utility.yul\":10288:10311   */\n      swap1\n      pop\n        /* \"#utility.yul\":10010:10318   */\n      swap2\n      swap1\n      pop\n      jump\t// out\n        /* \"#utility.yul\":10324:10456   */\n    tag_186:\n        /* \"#utility.yul\":10391:10395   */\n      0x00\n        /* \"#utility.yul\":10414:10417   */\n      dup2\n        /* \"#utility.yul\":10406:10417   */\n      swap1\n      pop\n        /* \"#utility.yul\":10444:10448   */\n      0x20\n        /* \"#utility.yul\":10439:10442   */\n      dup3\n        /* \"#utility.yul\":10435:10449   */\n      add\n        /* \"#utility.yul\":10427:10449   */\n      swap1\n      pop\n        /* \"#utility.yul\":10324:10456   */\n      swap2\n      swap1\n      pop\n      jump\t// out\n        /* \"#utility.yul\":10462:10576   */\n    tag_182:\n        /* \"#utility.yul\":10529:10535   */\n      0x00\n        /* \"#utility.yul\":10563:10568   */\n      dup2\n        /* \"#utility.yul\":10557:10569   */\n      mload\n        /* \"#utility.yul\":10547:10569   */\n      swap1\n      pop\n        /* \"#utility.yul\":10462:10576   */\n      swap2\n      swap1\n      pop\n      jump\t// out\n        /* \"#utility.yul\":10582:10681   */\n    tag_204:\n        /* \"#utility.yul\":10634:10640   */\n      0x00\n        /* \"#utility.yul\":10668:10673   */\n      dup2\n        /* \"#utility.yul\":10662:10674   */\n      mload\n        /* \"#utility.yul\":10652:10674   */\n      swap1\n      pop\n        /* \"#utility.yul\":10582:10681   */\n      swap2\n      swap1\n      pop\n      jump\t// out\n        /* \"#utility.yul\":10687:10800   */\n    tag_192:\n        /* \"#utility.yul\":10757:10761   */\n      0x00\n        /* \"#utility.yul\":10789:10793   */\n      0x20\n        /* \"#utility.yul\":10784:10787   */\n      dup3\n        /* \"#utility.yul\":10780:10794   */\n      add\n        /* \"#utility.yul\":10772:10794   */\n      swap1\n      pop\n        /* \"#utility.yul\":10687:10800   */\n      swap2\n      swap1\n      pop\n      jump\t// out\n        /* \"#utility.yul\":10806:10990   */\n    tag_184:\n        /* \"#utility.yul\":10905:10916   */\n      0x00\n        /* \"#utility.yul\":10939:10945   */\n      dup3\n        /* \"#utility.yul\":10934:10937   */\n      dup3\n        /* \"#utility.yul\":10927:10946   */\n      mstore\n        /* \"#utility.yul\":10979:10983   */\n      0x20\n        /* \"#utility.yul\":10974:10977   */\n      dup3\n        /* \"#utility.yul\":10970:10984   */\n      add\n        /* \"#utility.yul\":10955:10984   */\n      swap1\n      pop\n        /* \"#utility.yul\":10806:10990   */\n      swap3\n      swap2\n      pop\n      pop\n      jump\t// out\n        /* \"#utility.yul\":10996:11155   */\n    tag_206:\n        /* \"#utility.yul\":11070:11081   */\n      0x00\n        /* \"#utility.yul\":11104:11110   */\n      dup3\n        /* \"#utility.yul\":11099:11102   */\n      dup3\n        /* \"#utility.yul\":11092:11111   */\n      mstore\n        /* \"#utility.yul\":11144:11148   */\n      0x20\n        /* \"#utility.yul\":11139:11142   */\n      dup3\n        /* \"#utility.yul\":11135:11149   */\n      add\n        /* \"#utility.yul\":11120:11149   */\n      swap1\n      pop\n        /* \"#utility.yul\":10996:11155   */\n      swap3\n      swap2\n      pop\n      pop\n      jump\t// out\n        /* \"#utility.yul\":11161:11330   */\n    tag_220:\n        /* \"#utility.yul\":11245:11256   */\n      0x00\n        /* \"#utility.yul\":11279:11285   */\n      dup3\n        /* \"#utility.yul\":11274:11277   */\n      dup3\n        /* \"#utility.yul\":11267:11286   */\n      mstore\n        /* \"#utility.yul\":11319:11323   */\n      0x20\n        /* \"#utility.yul\":11314:11317   */\n      dup3\n        /* \"#utility.yul\":11310:11324   */\n      add\n        /* \"#utility.yul\":11295:11324   */\n      swap1\n      pop\n        /* \"#utility.yul\":11161:11330   */\n      swap3\n      swap2\n      pop\n      pop\n      jump\t// out\n        /* \"#utility.yul\":11336:11484   */\n    tag_215:\n        /* \"#utility.yul\":11438:11449   */\n      0x00\n        /* \"#utility.yul\":11475:11478   */\n      dup2\n        /* \"#utility.yul\":11460:11478   */\n      swap1\n      pop\n        /* \"#utility.yul\":11336:11484   */\n      swap3\n      swap2\n      pop\n      pop\n      jump\t// out\n        /* \"#utility.yul\":11490:11586   */\n    tag_178:\n        /* \"#utility.yul\":11527:11534   */\n      0x00\n        /* \"#utility.yul\":11556:11580   */\n      tag_268\n        /* \"#utility.yul\":11574:11579   */\n      dup3\n        /* \"#utility.yul\":11556:11580   */\n      tag_269\n      jump\t// in\n    tag_268:\n        /* \"#utility.yul\":11545:11580   */\n      swap1\n      pop\n        /* \"#utility.yul\":11490:11586   */\n      swap2\n      swap1\n      pop\n      jump\t// out\n        /* \"#utility.yul\":11592:11682   */\n    tag_196:\n        /* \"#utility.yul\":11626:11633   */\n      0x00\n        /* \"#utility.yul\":11669:11674   */\n      dup2\n        /* \"#utility.yul\":11662:11675   */\n      iszero\n        /* \"#utility.yul\":11655:11676   */\n      iszero\n        /* \"#utility.yul\":11644:11676   */\n      swap1\n      pop\n        /* \"#utility.yul\":11592:11682   */\n      swap2\n      swap1\n      pop\n      jump\t// out\n        /* \"#utility.yul\":11688:11765   */\n    tag_200:\n        /* \"#utility.yul\":11725:11732   */\n      0x00\n        /* \"#utility.yul\":11754:11759   */\n      dup2\n        /* \"#utility.yul\":11743:11759   */\n      swap1\n      pop\n        /* \"#utility.yul\":11688:11765   */\n      swap2\n      swap1\n      pop\n      jump\t// out\n        /* \"#utility.yul\":11771:11897   */\n    tag_269:\n        /* \"#utility.yul\":11808:11815   */\n      0x00\n        /* \"#utility.yul\":11848:11890   */\n      0xffffffffffffffffffffffffffffffffffffffff\n        /* \"#utility.yul\":11841:11846   */\n      dup3\n        /* \"#utility.yul\":11837:11891   */\n      and\n        /* \"#utility.yul\":11826:11891   */\n      swap1\n      pop\n        /* \"#utility.yul\":11771:11897   */\n      swap2\n      swap1\n      pop\n      jump\t// out\n        /* \"#utility.yul\":11903:11980   */\n    tag_273:\n        /* \"#utility.yul\":11940:11947   */\n      0x00\n        /* \"#utility.yul\":11969:11974   */\n      dup2\n        /* \"#utility.yul\":11958:11974   */\n      swap1\n      pop\n        /* \"#utility.yul\":11903:11980   */\n      swap2\n      swap1\n      pop\n      jump\t// out\n        /* \"#utility.yul\":11986:12140   */\n    tag_130:\n        /* \"#utility.yul\":12070:12076   */\n      dup3\n        /* \"#utility.yul\":12065:12068   */\n      dup2\n        /* \"#utility.yul\":12060:12063   */\n      dup4\n        /* \"#utility.yul\":12047:12077   */\n      calldatacopy\n        /* \"#utility.yul\":12132:12133   */\n      0x00\n        /* \"#utility.yul\":12123:12129   */\n      dup4\n        /* \"#utility.yul\":12118:12121   */\n      dup4\n        /* \"#utility.yul\":12114:12130   */\n      add\n        /* \"#utility.yul\":12107:12134   */\n      mstore\n        /* \"#utility.yul\":11986:12140   */\n      pop\n      pop\n      pop\n      jump\t// out\n        /* \"#utility.yul\":12146:12453   */\n    tag_208:\n        /* \"#utility.yul\":12214:12215   */\n      0x00\n        /* \"#utility.yul\":12224:12337   */\n    tag_277:\n        /* \"#utility.yul\":12238:12244   */\n      dup4\n        /* \"#utility.yul\":12235:12236   */\n      dup2\n        /* \"#utility.yul\":12232:12245   */\n      lt\n        /* \"#utility.yul\":12224:12337   */\n      iszero\n      tag_279\n      jumpi\n        /* \"#utility.yul\":12323:12324   */\n      dup1\n        /* \"#utility.yul\":12318:12321   */\n      dup3\n        /* \"#utility.yul\":12314:12325   */\n      add\n        /* \"#utility.yul\":12308:12326   */\n      mload\n        /* \"#utility.yul\":12304:12305   */\n      dup2\n        /* \"#utility.yul\":12299:12302   */\n      dup5\n        /* \"#utility.yul\":12295:12306   */\n      add\n        /* \"#utility.yul\":12288:12327   */\n      mstore\n        /* \"#utility.yul\":12260:12262   */\n      0x20\n        /* \"#utility.yul\":12257:12258   */\n      dup2\n        /* \"#utility.yul\":12253:12263   */\n      add\n        /* \"#utility.yul\":12248:12263   */\n      swap1\n      pop\n        /* \"#utility.yul\":12224:12337   */\n      jump(tag_277)\n    tag_279:\n        /* \"#utility.yul\":12355:12361   */\n      dup4\n        /* \"#utility.yul\":12352:12353   */\n      dup2\n        /* \"#utility.yul\":12349:12362   */\n      gt\n        /* \"#utility.yul\":12346:12447   */\n      iszero\n      tag_280\n      jumpi\n        /* \"#utility.yul\":12435:12436   */\n      0x00\n        /* \"#utility.yul\":12426:12432   */\n      dup5\n        /* \"#utility.yul\":12421:12424   */\n      dup5\n        /* \"#utility.yul\":12417:12433   */\n      add\n        /* \"#utility.yul\":12410:12437   */\n      mstore\n        /* \"#utility.yul\":12346:12447   */\n    tag_280:\n        /* \"#utility.yul\":12195:12453   */\n      pop\n        /* \"#utility.yul\":12146:12453   */\n      pop\n      pop\n      pop\n      jump\t// out\n        /* \"#utility.yul\":12459:12779   */\n    tag_80:\n        /* \"#utility.yul\":12503:12509   */\n      0x00\n        /* \"#utility.yul\":12540:12541   */\n      0x02\n        /* \"#utility.yul\":12534:12538   */\n      dup3\n        /* \"#utility.yul\":12530:12542   */\n      div\n        /* \"#utility.yul\":12520:12542   */\n      swap1\n      pop\n        /* \"#utility.yul\":12587:12588   */\n      0x01\n        /* \"#utility.yul\":12581:12585   */\n      dup3\n        /* \"#utility.yul\":12577:12589   */\n      and\n        /* \"#utility.yul\":12608:12626   */\n      dup1\n        /* \"#utility.yul\":12598:12679   */\n      tag_282\n      jumpi\n        /* \"#utility.yul\":12664:12668   */\n      0x7f\n        /* \"#utility.yul\":12656:12662   */\n      dup3\n        /* \"#utility.yul\":12652:12669   */\n      and\n        /* \"#utility.yul\":12642:12669   */\n      swap2\n      pop\n        /* \"#utility.yul\":12598:12679   */\n    tag_282:\n        /* \"#utility.yul\":12726:12728   */\n      0x20\n        /* \"#utility.yul\":12718:12724   */\n      dup3\n        /* \"#utility.yul\":12715:12729   */\n      lt\n        /* \"#utility.yul\":12695:12713   */\n      dup2\n        /* \"#utility.yul\":12692:12730   */\n      eq\n        /* \"#utility.yul\":12689:12773   */\n      iszero\n      tag_283\n      jumpi\n        /* \"#utility.yul\":12745:12763   */\n      tag_284\n      tag_285\n      jump\t// in\n    tag_284:\n        /* \"#utility.yul\":12689:12773   */\n    tag_283:\n        /* \"#utility.yul\":12510:12779   */\n      pop\n        /* \"#utility.yul\":12459:12779   */\n      swap2\n      swap1\n      pop\n      jump\t// out\n        /* \"#utility.yul\":12785:13066   */\n    tag_252:\n        /* \"#utility.yul\":12868:12895   */\n      tag_287\n        /* \"#utility.yul\":12890:12894   */\n      dup3\n        /* \"#utility.yul\":12868:12895   */\n      tag_210\n      jump\t// in\n    tag_287:\n        /* \"#utility.yul\":12860:12866   */\n      dup2\n        /* \"#utility.yul\":12856:12896   */\n      add\n        /* \"#utility.yul\":12998:13004   */\n      dup2\n        /* \"#utility.yul\":12986:12996   */\n      dup2\n        /* \"#utility.yul\":12983:13005   */\n      lt\n        /* \"#utility.yul\":12962:12980   */\n      0xffffffffffffffff\n        /* \"#utility.yul\":12950:12960   */\n      dup3\n        /* \"#utility.yul\":12947:12981   */\n      gt\n        /* \"#utility.yul\":12944:13006   */\n      or\n        /* \"#utility.yul\":12941:13029   */\n      iszero\n      tag_288\n      jumpi\n        /* \"#utility.yul\":13009:13027   */\n      tag_289\n      tag_257\n      jump\t// in\n    tag_289:\n        /* \"#utility.yul\":12941:13029   */\n    tag_288:\n        /* \"#utility.yul\":13049:13059   */\n      dup1\n        /* \"#utility.yul\":13045:13047   */\n      0x40\n        /* \"#utility.yul\":13038:13060   */\n      mstore\n        /* \"#utility.yul\":12828:13066   */\n      pop\n        /* \"#utility.yul\":12785:13066   */\n      pop\n      pop\n      jump\t// out\n        /* \"#utility.yul\":13072:13305   */\n    tag_57:\n        /* \"#utility.yul\":13111:13114   */\n      0x00\n        /* \"#utility.yul\":13134:13158   */\n      tag_291\n        /* \"#utility.yul\":13152:13157   */\n      dup3\n        /* \"#utility.yul\":13134:13158   */\n      tag_273\n      jump\t// in\n    tag_291:\n        /* \"#utility.yul\":13125:13158   */\n      swap2\n      pop\n        /* \"#utility.yul\":13180:13246   */\n      0xffffffffffffffffffffffffffffffffffffffffffffffffffffffffffffffff\n        /* \"#utility.yul\":13173:13178   */\n      dup3\n        /* \"#utility.yul\":13170:13247   */\n      eq\n        /* \"#utility.yul\":13167:13270   */\n      iszero\n      tag_292\n      jumpi\n        /* \"#utility.yul\":13250:13268   */\n      tag_293\n      tag_294\n      jump\t// in\n    tag_293:\n        /* \"#utility.yul\":13167:13270   */\n    tag_292:\n        /* \"#utility.yul\":13297:13298   */\n      0x01\n        /* \"#utility.yul\":13290:13295   */\n      dup3\n        /* \"#utility.yul\":13286:13299   */\n      add\n        /* \"#utility.yul\":13279:13299   */\n      swap1\n      pop\n        /* \"#utility.yul\":13072:13305   */\n      swap2\n      swap1\n      pop\n      jump\t// out\n        /* \"#utility.yul\":13311:13491   */\n    tag_294:\n        /* \"#utility.yul\":13359:13436   */\n      0x4e487b7100000000000000000000000000000000000000000000000000000000\n        /* \"#utility.yul\":13356:13357   */\n      0x00\n        /* \"#utility.yul\":13349:13437   */\n      mstore\n        /* \"#utility.yul\":13456:13460   */\n      0x11\n        /* \"#utility.yul\":13453:13454   */\n      0x04\n        /* \"#utility.yul\":13446:13461   */\n      mstore\n        /* \"#utility.yul\":13480:13484   */\n      0x24\n        /* \"#utility.yul\":13477:13478   */\n      0x00\n        /* \"#utility.yul\":13470:13485   */\n      revert\n        /* \"#utility.yul\":13497:13677   */\n    tag_39:\n        /* \"#utility.yul\":13545:13622   */\n      0x4e487b7100000000000000000000000000000000000000000000000000000000\n        /* \"#utility.yul\":13542:13543   */\n      0x00\n        /* \"#utility.yul\":13535:13623   */\n      mstore\n        /* \"#utility.yul\":13642:13646   */\n      0x21\n        /* \"#utility.yul\":13639:13640   */\n      0x04\n        /* \"#utility.yul\":13632:13647   */\n      mstore\n        /* \"#utility.yul\":13666:13670   */\n      0x24\n        /* \"#utility.yul\":13663:13664   */\n      0x00\n        /* \"#utility.yul\":13656:13671   */\n      revert\n        /* \"#utility.yul\":13683:13863   */\n    tag_285:\n        /* \"#utility.yul\":13731:13808   */\n      0x4e487b7100000000000000000000000000000000000000000000000000000000\n        /* \"#utility.yul\":13728:13729   */\n      0x00\n        /* \"#utility.yul\":13721:13809   */\n      mstore\n        /* \"#utility.yul\":13828:13832   */\n      0x22\n        /* \"#utility.yul\":13825:13826   */\n      0x04\n        /* \"#utility.yul\":13818:13833   */\n      mstore\n        /* \"#utility.yul\":13852:13856   */\n      0x24\n        /* \"#utility.yul\":13849:13850   */\n      0x00\n        /* \"#utility.yul\":13842:13857   */\n      revert\n        /* \"#utility.yul\":13869:14049   */\n    tag_51:\n        /* \"#utility.yul\":13917:13994   */\n      0x4e487b7100000000000000000000000000000000000000000000000000000000\n        /* \"#utility.yul\":13914:13915   */\n      0x00\n        /* \"#utility.yul\":13907:13995   */\n      mstore\n        /* \"#utility.yul\":14014:14018   */\n      0x32\n        /* \"#utility.yul\":14011:14012   */\n      0x04\n        /* \"#utility.yul\":14004:14019   */\n      mstore\n        /* \"#utility.yul\":14038:14042   */\n      0x24\n        /* \"#utility.yul\":14035:14036   */\n      0x00\n        /* \"#utility.yul\":14028:14043   */\n      revert\n        /* \"#utility.yul\":14055:14235   */\n    tag_257:\n        /* \"#utility.yul\":14103:14180   */\n      0x4e487b7100000000000000000000000000000000000000000000000000000000\n        /* \"#utility.yul\":14100:14101   */\n      0x00\n        /* \"#utility.yul\":14093:14181   */\n      mstore\n        /* \"#utility.yul\":14200:14204   */\n      0x41\n        /* \"#utility.yul\":14197:14198   */\n      0x04\n        /* \"#utility.yul\":14190:14205   */\n      mstore\n        /* \"#utility.yul\":14224:14228   */\n      0x24\n        /* \"#utility.yul\":14221:14222   */\n      0x00\n        /* \"#utility.yul\":14214:14229   */\n      revert\n        /* \"#utility.yul\":14241:14358   */\n    tag_143:\n        /* \"#utility.yul\":14350:14351   */\n      0x00\n        /* \"#utility.yul\":14347:14348   */\n      dup1\n        /* \"#utility.yul\":14340:14352   */\n      revert\n        /* \"#utility.yul\":14364:14481   */\n    tag_128:\n        /* \"#utility.yul\":14473:14474   */\n      0x00\n        /* \"#utility.yul\":14470:14471   */\n      dup1\n        /* \"#utility.yul\":14463:14475   */\n      revert\n        /* \"#utility.yul\":14487:14604   */\n    tag_160:\n        /* \"#utility.yul\":14596:14597   */\n      0x00\n        /* \"#utility.yul\":14593:14594   */\n      dup1\n        /* \"#utility.yul\":14586:14598   */\n      revert\n        /* \"#utility.yul\":14610:14727   */\n    tag_148:\n        /* \"#utility.yul\":14719:14720   */\n      0x00\n        /* \"#utility.yul\":14716:14717   */\n      dup1\n        /* \"#utility.yul\":14709:14721   */\n      revert\n        /* \"#utility.yul\":14733:14835   */\n    tag_210:\n        /* \"#utility.yul\":14774:14780   */\n      0x00\n        /* \"#utility.yul\":14825:14827   */\n      0x1f\n        /* \"#utility.yul\":14821:14828   */\n      not\n        /* \"#utility.yul\":14816:14818   */\n      0x1f\n        /* \"#utility.yul\":14809:14814   */\n      dup4\n        /* \"#utility.yul\":14805:14819   */\n      add\n        /* \"#utility.yul\":14801:14829   */\n      and\n        /* \"#utility.yul\":14791:14829   */\n      swap1\n      pop\n        /* \"#utility.yul\":14733:14835   */\n      swap2\n      swap1\n      pop\n      jump\t// out\n        /* \"#utility.yul\":14841:15016   */\n    tag_222:\n        /* \"#utility.yul\":14981:15008   */\n      0x4170706c69636174696f6e20616c72656164792073656e742100000000000000\n        /* \"#utility.yul\":14977:14978   */\n      0x00\n        /* \"#utility.yul\":14969:14975   */\n      dup3\n        /* \"#utility.yul\":14965:14979   */\n      add\n        /* \"#utility.yul\":14958:15009   */\n      mstore\n        /* \"#utility.yul\":14841:15016   */\n      pop\n      jump\t// out\n        /* \"#utility.yul\":15022:15197   */\n    tag_227:\n        /* \"#utility.yul\":15162:15189   */\n      0x596f7572206e6f7420507269766174652070726f766964657200000000000000\n        /* \"#utility.yul\":15158:15159   */\n      0x00\n        /* \"#utility.yul\":15150:15156   */\n      dup3\n        /* \"#utility.yul\":15146:15160   */\n      add\n        /* \"#utility.yul\":15139:15190   */\n      mstore\n        /* \"#utility.yul\":15022:15197   */\n      pop\n      jump\t// out\n        /* \"#utility.yul\":15203:15325   */\n    tag_134:\n        /* \"#utility.yul\":15276:15300   */\n      tag_308\n        /* \"#utility.yul\":15294:15299   */\n      dup2\n        /* \"#utility.yul\":15276:15300   */\n      tag_178\n      jump\t// in\n    tag_308:\n        /* \"#utility.yul\":15269:15274   */\n      dup2\n        /* \"#utility.yul\":15266:15301   */\n      eq\n        /* \"#utility.yul\":15256:15319   */\n      tag_309\n      jumpi\n        /* \"#utility.yul\":15315:15316   */\n      0x00\n        /* \"#utility.yul\":15312:15313   */\n      dup1\n        /* \"#utility.yul\":15305:15317   */\n      revert\n        /* \"#utility.yul\":15256:15319   */\n    tag_309:\n        /* \"#utility.yul\":15203:15325   */\n      pop\n      jump\t// out\n        /* \"#utility.yul\":15331:15447   */\n    tag_138:\n        /* \"#utility.yul\":15401:15422   */\n      tag_311\n        /* \"#utility.yul\":15416:15421   */\n      dup2\n        /* \"#utility.yul\":15401:15422   */\n      tag_196\n      jump\t// in\n    tag_311:\n        /* \"#utility.yul\":15394:15399   */\n      dup2\n        /* \"#utility.yul\":15391:15423   */\n      eq\n        /* \"#utility.yul\":15381:15441   */\n      tag_312\n      jumpi\n        /* \"#utility.yul\":15437:15438   */\n      0x00\n        /* \"#utility.yul\":15434:15435   */\n      dup1\n        /* \"#utility.yul\":15427:15439   */\n      revert\n        /* \"#utility.yul\":15381:15441   */\n    tag_312:\n        /* \"#utility.yul\":15331:15447   */\n      pop\n      jump\t// out\n\n    auxdata: 0xa26469706673582212205d2dc49a97118f249516e1fe929dc47062c26ce1ae0a330073c4ae224a863c4a64736f6c63430008070033\n}\n",
				"bytecode": {
					"linkReferences": {},
					"object": "608060405234801561001057600080fd5b506114d7806100206000396000f3fe608060405234801561001057600080fd5b50600436106100625760003560e01c8063015952a7146100675780634d0d594f1461008557806376eada91146100a3578063785963c3146100d35780638404a61e146100ef5780638e4f8c6b1461010b575b600080fd5b61006f61013b565b60405161007c919061106b565b60405180910390f35b61008d61031e565b60405161009a919061106b565b60405180910390f35b6100bd60048036038101906100b89190610d30565b610461565b6040516100ca91906110e8565b60405180910390f35b6100ed60048036038101906100e89190610de6565b610795565b005b61010960048036038101906101049190610d5d565b610a02565b005b61012560048036038101906101209190610d9d565b610b71565b604051610132919061108d565b60405180910390f35b60606002600481111561015157610150611340565b5b6000803373ffffffffffffffffffffffffffffffffffffffff1673ffffffffffffffffffffffffffffffffffffffff16815260200190815260200160002060000160009054906101000a900460ff1660048111156101b2576101b1611340565b5b146101f2576040517f08c379a00000000000000000000000000000000000000000000000000000000081526004016101e9906110c8565b60405180910390fd5b606060005b600380549050811015610316576000806003838154811061021b5761021a61139e565b5b9060005260206000200160009054906101000a900473ffffffffffffffffffffffffffffffffffffffff16905060001515600260008373ffffffffffffffffffffffffffffffffffffffff1673ffffffffffffffffffffffffffffffffffffffff16815260200190815260200160002060020160159054906101000a900460ff161515141561030157808483815181106102b8576102b761139e565b5b602002602001019073ffffffffffffffffffffffffffffffffffffffff16908173ffffffffffffffffffffffffffffffffffffffff168152505081806102fd906112c8565b9250505b5050808061030e906112c8565b9150506101f7565b508091505090565b60606002600481111561033457610333611340565b5b6000803373ffffffffffffffffffffffffffffffffffffffff1673ffffffffffffffffffffffffffffffffffffffff16815260200190815260200160002060000160009054906101000a900460ff16600481111561039557610394611340565b5b146103d5576040517f08c379a00000000000000000000000000000000000000000000000000000000081526004016103cc906110c8565b60405180910390fd5b600380548060200260200160405190810160405280929190818152602001828054801561045757602002820191906000526020600020905b8160009054906101000a900473ffffffffffffffffffffffffffffffffffffffff1673ffffffffffffffffffffffffffffffffffffffff168152602001906001019080831161040d575b5050505050905090565b610469610ba1565b6002600481111561047d5761047c611340565b5b6000803373ffffffffffffffffffffffffffffffffffffffff1673ffffffffffffffffffffffffffffffffffffffff16815260200190815260200160002060000160009054906101000a900460ff1660048111156104de576104dd611340565b5b1461051e576040517f08c379a0000000000000000000000000000000000000000000000000000000008152600401610515906110c8565b60405180910390fd5b6001600260008473ffffffffffffffffffffffffffffffffffffffff1673ffffffffffffffffffffffffffffffffffffffff16815260200190815260200160002060020160156101000a81548160ff021916908315150217905550600260008373ffffffffffffffffffffffffffffffffffffffff1673ffffffffffffffffffffffffffffffffffffffff1681526020019081526020016000206040518060c00160405290816000820180546105d390611265565b80601f01602080910402602001604051908101604052809291908181526020018280546105ff90611265565b801561064c5780601f106106215761010080835404028352916020019161064c565b820191906000526020600020905b81548152906001019060200180831161062f57829003601f168201915b5050505050815260200160018201805461066590611265565b80601f016020809104026020016040519081016040528092919081815260200182805461069190611265565b80156106de5780601f106106b3576101008083540402835291602001916106de565b820191906000526020600020905b8154815290600101906020018083116106c157829003601f168201915b505050505081526020016002820160009054906101000a900473ffffffffffffffffffffffffffffffffffffffff1673ffffffffffffffffffffffffffffffffffffffff1673ffffffffffffffffffffffffffffffffffffffff1681526020016002820160149054906101000a900460ff161515151581526020016002820160159054906101000a900460ff161515151581526020016002820160169054906101000a900460ff1615151515815250509050919050565b60011515600260003373ffffffffffffffffffffffffffffffffffffffff1673ffffffffffffffffffffffffffffffffffffffff16815260200190815260200160002060020160169054906101000a900460ff1615151461082b576040517f08c379a0000000000000000000000000000000000000000000000000000000008152600401610822906110a8565b60405180910390fd5b6040518060c001604052808481526020018381526020018273ffffffffffffffffffffffffffffffffffffffff16815260200160011515815260200160001515815260200160011515815250600260003373ffffffffffffffffffffffffffffffffffffffff1673ffffffffffffffffffffffffffffffffffffffff16815260200190815260200160002060008201518160000190805190602001906108d2929190610bf3565b5060208201518160010190805190602001906108ef929190610bf3565b5060408201518160020160006101000a81548173ffffffffffffffffffffffffffffffffffffffff021916908373ffffffffffffffffffffffffffffffffffffffff16021790555060608201518160020160146101000a81548160ff02191690831515021790555060808201518160020160156101000a81548160ff02191690831515021790555060a08201518160020160166101000a81548160ff0219169083151502179055509050506003339080600181540180825580915050600190039060005260206000200160009091909190916101000a81548173ffffffffffffffffffffffffffffffffffffffff021916908373ffffffffffffffffffffffffffffffffffffffff160217905550505050565b60026004811115610a1657610a15611340565b5b6000803373ffffffffffffffffffffffffffffffffffffffff1673ffffffffffffffffffffffffffffffffffffffff16815260200190815260200160002060000160009054906101000a900460ff166004811115610a7757610a76611340565b5b14610ab7576040517f08c379a0000000000000000000000000000000000000000000000000000000008152600401610aae906110c8565b60405180910390fd5b6001600260008473ffffffffffffffffffffffffffffffffffffffff1673ffffffffffffffffffffffffffffffffffffffff16815260200190815260200160002060020160156101000a81548160ff0219169083151502179055506000600260008473ffffffffffffffffffffffffffffffffffffffff1673ffffffffffffffffffffffffffffffffffffffff16815260200190815260200160002060020160146101000a81548160ff0219169083151502179055505050565b600081604051602001610b849190611054565b604051602081830303815290604052805190602001209050919050565b6040518060c001604052806060815260200160608152602001600073ffffffffffffffffffffffffffffffffffffffff1681526020016000151581526020016000151581526020016000151581525090565b828054610bff90611265565b90600052602060002090601f016020900481019282610c215760008555610c68565b82601f10610c3a57805160ff1916838001178555610c68565b82800160010185558215610c68579182015b82811115610c67578251825591602001919060010190610c4c565b5b509050610c759190610c79565b5090565b5b80821115610c92576000816000905550600101610c7a565b5090565b6000610ca9610ca48461112f565b61110a565b905082815260208101848484011115610cc557610cc4611401565b5b610cd0848285611223565b509392505050565b600081359050610ce781611473565b92915050565b600081359050610cfc8161148a565b92915050565b600082601f830112610d1757610d166113fc565b5b8135610d27848260208601610c96565b91505092915050565b600060208284031215610d4657610d4561140b565b5b6000610d5484828501610cd8565b91505092915050565b60008060408385031215610d7457610d7361140b565b5b6000610d8285828601610cd8565b9250506020610d9385828601610ced565b9150509250929050565b600060208284031215610db357610db261140b565b5b600082013567ffffffffffffffff811115610dd157610dd0611406565b5b610ddd84828501610d02565b91505092915050565b600080600060608486031215610dff57610dfe61140b565b5b600084013567ffffffffffffffff811115610e1d57610e1c611406565b5b610e2986828701610d02565b935050602084013567ffffffffffffffff811115610e4a57610e49611406565b5b610e5686828701610d02565b9250506040610e6786828701610cd8565b9150509250925092565b6000610e7d8383610e89565b60208301905092915050565b610e92816111d1565b82525050565b6000610ea382611170565b610ead8185611193565b9350610eb883611160565b8060005b83811015610ee9578151610ed08882610e71565b9750610edb83611186565b925050600181019050610ebc565b5085935050505092915050565b610eff816111e3565b82525050565b610f0e816111ef565b82525050565b6000610f1f8261117b565b610f2981856111a4565b9350610f39818560208601611232565b610f4281611410565b840191505092915050565b6000610f588261117b565b610f6281856111c6565b9350610f72818560208601611232565b80840191505092915050565b6000610f8b6019836111b5565b9150610f9682611421565b602082019050919050565b6000610fae6019836111b5565b9150610fb98261144a565b602082019050919050565b600060c0830160008301518482036000860152610fe18282610f14565b91505060208301518482036020860152610ffb8282610f14565b91505060408301516110106040860182610e89565b5060608301516110236060860182610ef6565b5060808301516110366080860182610ef6565b5060a083015161104960a0860182610ef6565b508091505092915050565b60006110608284610f4d565b915081905092915050565b600060208201905081810360008301526110858184610e98565b905092915050565b60006020820190506110a26000830184610f05565b92915050565b600060208201905081810360008301526110c181610f7e565b9050919050565b600060208201905081810360008301526110e181610fa1565b9050919050565b600060208201905081810360008301526111028184610fc4565b905092915050565b6000611114611125565b90506111208282611297565b919050565b6000604051905090565b600067ffffffffffffffff82111561114a576111496113cd565b5b61115382611410565b9050602081019050919050565b6000819050602082019050919050565b600081519050919050565b600081519050919050565b6000602082019050919050565b600082825260208201905092915050565b600082825260208201905092915050565b600082825260208201905092915050565b600081905092915050565b60006111dc826111f9565b9050919050565b60008115159050919050565b6000819050919050565b600073ffffffffffffffffffffffffffffffffffffffff82169050919050565b6000819050919050565b82818337600083830152505050565b60005b83811015611250578082015181840152602081019050611235565b8381111561125f576000848401525b50505050565b6000600282049050600182168061127d57607f821691505b602082108114156112915761129061136f565b5b50919050565b6112a082611410565b810181811067ffffffffffffffff821117156112bf576112be6113cd565b5b80604052505050565b60006112d382611219565b91507fffffffffffffffffffffffffffffffffffffffffffffffffffffffffffffffff82141561130657611305611311565b5b600182019050919050565b7f4e487b7100000000000000000000000000000000000000000000000000000000600052601160045260246000fd5b7f4e487b7100000000000000000000000000000000000000000000000000000000600052602160045260246000fd5b7f4e487b7100000000000000000000000000000000000000000000000000000000600052602260045260246000fd5b7f4e487b7100000000000000000000000000000000000000000000000000000000600052603260045260246000fd5b7f4e487b7100000000000000000000000000000000000000000000000000000000600052604160045260246000fd5b600080fd5b600080fd5b600080fd5b600080fd5b6000601f19601f8301169050919050565b7f4170706c69636174696f6e20616c72656164792073656e742100000000000000600082015250565b7f596f7572206e6f7420507269766174652070726f766964657200000000000000600082015250565b61147c816111d1565b811461148757600080fd5b50565b611493816111e3565b811461149e57600080fd5b5056fea26469706673582212205d2dc49a97118f249516e1fe929dc47062c26ce1ae0a330073c4ae224a863c4a64736f6c63430008070033",
					"opcodes": "PUSH1 0x80 PUSH1 0x40 MSTORE CALLVALUE DUP1 ISZERO PUSH2 0x10 JUMPI PUSH1 0x0 DUP1 REVERT JUMPDEST POP PUSH2 0x14D7 DUP1 PUSH2 0x20 PUSH1 0x0 CODECOPY PUSH1 0x0 RETURN INVALID PUSH1 0x80 PUSH1 0x40 MSTORE CALLVALUE DUP1 ISZERO PUSH2 0x10 JUMPI PUSH1 0x0 DUP1 REVERT JUMPDEST POP PUSH1 0x4 CALLDATASIZE LT PUSH2 0x62 JUMPI PUSH1 0x0 CALLDATALOAD PUSH1 0xE0 SHR DUP1 PUSH4 0x15952A7 EQ PUSH2 0x67 JUMPI DUP1 PUSH4 0x4D0D594F EQ PUSH2 0x85 JUMPI DUP1 PUSH4 0x76EADA91 EQ PUSH2 0xA3 JUMPI DUP1 PUSH4 0x785963C3 EQ PUSH2 0xD3 JUMPI DUP1 PUSH4 0x8404A61E EQ PUSH2 0xEF JUMPI DUP1 PUSH4 0x8E4F8C6B EQ PUSH2 0x10B JUMPI JUMPDEST PUSH1 0x0 DUP1 REVERT JUMPDEST PUSH2 0x6F PUSH2 0x13B JUMP JUMPDEST PUSH1 0x40 MLOAD PUSH2 0x7C SWAP2 SWAP1 PUSH2 0x106B JUMP JUMPDEST PUSH1 0x40 MLOAD DUP1 SWAP2 SUB SWAP1 RETURN JUMPDEST PUSH2 0x8D PUSH2 0x31E JUMP JUMPDEST PUSH1 0x40 MLOAD PUSH2 0x9A SWAP2 SWAP1 PUSH2 0x106B JUMP JUMPDEST PUSH1 0x40 MLOAD DUP1 SWAP2 SUB SWAP1 RETURN JUMPDEST PUSH2 0xBD PUSH1 0x4 DUP1 CALLDATASIZE SUB DUP2 ADD SWAP1 PUSH2 0xB8 SWAP2 SWAP1 PUSH2 0xD30 JUMP JUMPDEST PUSH2 0x461 JUMP JUMPDEST PUSH1 0x40 MLOAD PUSH2 0xCA SWAP2 SWAP1 PUSH2 0x10E8 JUMP JUMPDEST PUSH1 0x40 MLOAD DUP1 SWAP2 SUB SWAP1 RETURN JUMPDEST PUSH2 0xED PUSH1 0x4 DUP1 CALLDATASIZE SUB DUP2 ADD SWAP1 PUSH2 0xE8 SWAP2 SWAP1 PUSH2 0xDE6 JUMP JUMPDEST PUSH2 0x795 JUMP JUMPDEST STOP JUMPDEST PUSH2 0x109 PUSH1 0x4 DUP1 CALLDATASIZE SUB DUP2 ADD SWAP1 PUSH2 0x104 SWAP2 SWAP1 PUSH2 0xD5D JUMP JUMPDEST PUSH2 0xA02 JUMP JUMPDEST STOP JUMPDEST PUSH2 0x125 PUSH1 0x4 DUP1 CALLDATASIZE SUB DUP2 ADD SWAP1 PUSH2 0x120 SWAP2 SWAP1 PUSH2 0xD9D JUMP JUMPDEST PUSH2 0xB71 JUMP JUMPDEST PUSH1 0x40 MLOAD PUSH2 0x132 SWAP2 SWAP1 PUSH2 0x108D JUMP JUMPDEST PUSH1 0x40 MLOAD DUP1 SWAP2 SUB SWAP1 RETURN JUMPDEST PUSH1 0x60 PUSH1 0x2 PUSH1 0x4 DUP2 GT ISZERO PUSH2 0x151 JUMPI PUSH2 0x150 PUSH2 0x1340 JUMP JUMPDEST JUMPDEST PUSH1 0x0 DUP1 CALLER PUSH20 0xFFFFFFFFFFFFFFFFFFFFFFFFFFFFFFFFFFFFFFFF AND PUSH20 0xFFFFFFFFFFFFFFFFFFFFFFFFFFFFFFFFFFFFFFFF AND DUP2 MSTORE PUSH1 0x20 ADD SWAP1 DUP2 MSTORE PUSH1 0x20 ADD PUSH1 0x0 KECCAK256 PUSH1 0x0 ADD PUSH1 0x0 SWAP1 SLOAD SWAP1 PUSH2 0x100 EXP SWAP1 DIV PUSH1 0xFF AND PUSH1 0x4 DUP2 GT ISZERO PUSH2 0x1B2 JUMPI PUSH2 0x1B1 PUSH2 0x1340 JUMP JUMPDEST JUMPDEST EQ PUSH2 0x1F2 JUMPI PUSH1 0x40 MLOAD PUSH32 0x8C379A000000000000000000000000000000000000000000000000000000000 DUP2 MSTORE PUSH1 0x4 ADD PUSH2 0x1E9 SWAP1 PUSH2 0x10C8 JUMP JUMPDEST PUSH1 0x40 MLOAD DUP1 SWAP2 SUB SWAP1 REVERT JUMPDEST PUSH1 0x60 PUSH1 0x0 JUMPDEST PUSH1 0x3 DUP1 SLOAD SWAP1 POP DUP2 LT ISZERO PUSH2 0x316 JUMPI PUSH1 0x0 DUP1 PUSH1 0x3 DUP4 DUP2 SLOAD DUP2 LT PUSH2 0x21B JUMPI PUSH2 0x21A PUSH2 0x139E JUMP JUMPDEST JUMPDEST SWAP1 PUSH1 0x0 MSTORE PUSH1 0x20 PUSH1 0x0 KECCAK256 ADD PUSH1 0x0 SWAP1 SLOAD SWAP1 PUSH2 0x100 EXP SWAP1 DIV PUSH20 0xFFFFFFFFFFFFFFFFFFFFFFFFFFFFFFFFFFFFFFFF AND SWAP1 POP PUSH1 0x0 ISZERO ISZERO PUSH1 0x2 PUSH1 0x0 DUP4 PUSH20 0xFFFFFFFFFFFFFFFFFFFFFFFFFFFFFFFFFFFFFFFF AND PUSH20 0xFFFFFFFFFFFFFFFFFFFFFFFFFFFFFFFFFFFFFFFF AND DUP2 MSTORE PUSH1 0x20 ADD SWAP1 DUP2 MSTORE PUSH1 0x20 ADD PUSH1 0x0 KECCAK256 PUSH1 0x2 ADD PUSH1 0x15 SWAP1 SLOAD SWAP1 PUSH2 0x100 EXP SWAP1 DIV PUSH1 0xFF AND ISZERO ISZERO EQ ISZERO PUSH2 0x301 JUMPI DUP1 DUP5 DUP4 DUP2 MLOAD DUP2 LT PUSH2 0x2B8 JUMPI PUSH2 0x2B7 PUSH2 0x139E JUMP JUMPDEST JUMPDEST PUSH1 0x20 MUL PUSH1 0x20 ADD ADD SWAP1 PUSH20 0xFFFFFFFFFFFFFFFFFFFFFFFFFFFFFFFFFFFFFFFF AND SWAP1 DUP2 PUSH20 0xFFFFFFFFFFFFFFFFFFFFFFFFFFFFFFFFFFFFFFFF AND DUP2 MSTORE POP POP DUP2 DUP1 PUSH2 0x2FD SWAP1 PUSH2 0x12C8 JUMP JUMPDEST SWAP3 POP POP JUMPDEST POP POP DUP1 DUP1 PUSH2 0x30E SWAP1 PUSH2 0x12C8 JUMP JUMPDEST SWAP2 POP POP PUSH2 0x1F7 JUMP JUMPDEST POP DUP1 SWAP2 POP POP SWAP1 JUMP JUMPDEST PUSH1 0x60 PUSH1 0x2 PUSH1 0x4 DUP2 GT ISZERO PUSH2 0x334 JUMPI PUSH2 0x333 PUSH2 0x1340 JUMP JUMPDEST JUMPDEST PUSH1 0x0 DUP1 CALLER PUSH20 0xFFFFFFFFFFFFFFFFFFFFFFFFFFFFFFFFFFFFFFFF AND PUSH20 0xFFFFFFFFFFFFFFFFFFFFFFFFFFFFFFFFFFFFFFFF AND DUP2 MSTORE PUSH1 0x20 ADD SWAP1 DUP2 MSTORE PUSH1 0x20 ADD PUSH1 0x0 KECCAK256 PUSH1 0x0 ADD PUSH1 0x0 SWAP1 SLOAD SWAP1 PUSH2 0x100 EXP SWAP1 DIV PUSH1 0xFF AND PUSH1 0x4 DUP2 GT ISZERO PUSH2 0x395 JUMPI PUSH2 0x394 PUSH2 0x1340 JUMP JUMPDEST JUMPDEST EQ PUSH2 0x3D5 JUMPI PUSH1 0x40 MLOAD PUSH32 0x8C379A000000000000000000000000000000000000000000000000000000000 DUP2 MSTORE PUSH1 0x4 ADD PUSH2 0x3CC SWAP1 PUSH2 0x10C8 JUMP JUMPDEST PUSH1 0x40 MLOAD DUP1 SWAP2 SUB SWAP1 REVERT JUMPDEST PUSH1 0x3 DUP1 SLOAD DUP1 PUSH1 0x20 MUL PUSH1 0x20 ADD PUSH1 0x40 MLOAD SWAP1 DUP2 ADD PUSH1 0x40 MSTORE DUP1 SWAP3 SWAP2 SWAP1 DUP2 DUP2 MSTORE PUSH1 0x20 ADD DUP3 DUP1 SLOAD DUP1 ISZERO PUSH2 0x457 JUMPI PUSH1 0x20 MUL DUP3 ADD SWAP2 SWAP1 PUSH1 0x0 MSTORE PUSH1 0x20 PUSH1 0x0 KECCAK256 SWAP1 JUMPDEST DUP2 PUSH1 0x0 SWAP1 SLOAD SWAP1 PUSH2 0x100 EXP SWAP1 DIV PUSH20 0xFFFFFFFFFFFFFFFFFFFFFFFFFFFFFFFFFFFFFFFF AND PUSH20 0xFFFFFFFFFFFFFFFFFFFFFFFFFFFFFFFFFFFFFFFF AND DUP2 MSTORE PUSH1 0x20 ADD SWAP1 PUSH1 0x1 ADD SWAP1 DUP1 DUP4 GT PUSH2 0x40D JUMPI JUMPDEST POP POP POP POP POP SWAP1 POP SWAP1 JUMP JUMPDEST PUSH2 0x469 PUSH2 0xBA1 JUMP JUMPDEST PUSH1 0x2 PUSH1 0x4 DUP2 GT ISZERO PUSH2 0x47D JUMPI PUSH2 0x47C PUSH2 0x1340 JUMP JUMPDEST JUMPDEST PUSH1 0x0 DUP1 CALLER PUSH20 0xFFFFFFFFFFFFFFFFFFFFFFFFFFFFFFFFFFFFFFFF AND PUSH20 0xFFFFFFFFFFFFFFFFFFFFFFFFFFFFFFFFFFFFFFFF AND DUP2 MSTORE PUSH1 0x20 ADD SWAP1 DUP2 MSTORE PUSH1 0x20 ADD PUSH1 0x0 KECCAK256 PUSH1 0x0 ADD PUSH1 0x0 SWAP1 SLOAD SWAP1 PUSH2 0x100 EXP SWAP1 DIV PUSH1 0xFF AND PUSH1 0x4 DUP2 GT ISZERO PUSH2 0x4DE JUMPI PUSH2 0x4DD PUSH2 0x1340 JUMP JUMPDEST JUMPDEST EQ PUSH2 0x51E JUMPI PUSH1 0x40 MLOAD PUSH32 0x8C379A000000000000000000000000000000000000000000000000000000000 DUP2 MSTORE PUSH1 0x4 ADD PUSH2 0x515 SWAP1 PUSH2 0x10C8 JUMP JUMPDEST PUSH1 0x40 MLOAD DUP1 SWAP2 SUB SWAP1 REVERT JUMPDEST PUSH1 0x1 PUSH1 0x2 PUSH1 0x0 DUP5 PUSH20 0xFFFFFFFFFFFFFFFFFFFFFFFFFFFFFFFFFFFFFFFF AND PUSH20 0xFFFFFFFFFFFFFFFFFFFFFFFFFFFFFFFFFFFFFFFF AND DUP2 MSTORE PUSH1 0x20 ADD SWAP1 DUP2 MSTORE PUSH1 0x20 ADD PUSH1 0x0 KECCAK256 PUSH1 0x2 ADD PUSH1 0x15 PUSH2 0x100 EXP DUP2 SLOAD DUP2 PUSH1 0xFF MUL NOT AND SWAP1 DUP4 ISZERO ISZERO MUL OR SWAP1 SSTORE POP PUSH1 0x2 PUSH1 0x0 DUP4 PUSH20 0xFFFFFFFFFFFFFFFFFFFFFFFFFFFFFFFFFFFFFFFF AND PUSH20 0xFFFFFFFFFFFFFFFFFFFFFFFFFFFFFFFFFFFFFFFF AND DUP2 MSTORE PUSH1 0x20 ADD SWAP1 DUP2 MSTORE PUSH1 0x20 ADD PUSH1 0x0 KECCAK256 PUSH1 0x40 MLOAD DUP1 PUSH1 0xC0 ADD PUSH1 0x40 MSTORE SWAP1 DUP2 PUSH1 0x0 DUP3 ADD DUP1 SLOAD PUSH2 0x5D3 SWAP1 PUSH2 0x1265 JUMP JUMPDEST DUP1 PUSH1 0x1F ADD PUSH1 0x20 DUP1 SWAP2 DIV MUL PUSH1 0x20 ADD PUSH1 0x40 MLOAD SWAP1 DUP2 ADD PUSH1 0x40 MSTORE DUP1 SWAP3 SWAP2 SWAP1 DUP2 DUP2 MSTORE PUSH1 0x20 ADD DUP3 DUP1 SLOAD PUSH2 0x5FF SWAP1 PUSH2 0x1265 JUMP JUMPDEST DUP1 ISZERO PUSH2 0x64C JUMPI DUP1 PUSH1 0x1F LT PUSH2 0x621 JUMPI PUSH2 0x100 DUP1 DUP4 SLOAD DIV MUL DUP4 MSTORE SWAP2 PUSH1 0x20 ADD SWAP2 PUSH2 0x64C JUMP JUMPDEST DUP3 ADD SWAP2 SWAP1 PUSH1 0x0 MSTORE PUSH1 0x20 PUSH1 0x0 KECCAK256 SWAP1 JUMPDEST DUP2 SLOAD DUP2 MSTORE SWAP1 PUSH1 0x1 ADD SWAP1 PUSH1 0x20 ADD DUP1 DUP4 GT PUSH2 0x62F JUMPI DUP3 SWAP1 SUB PUSH1 0x1F AND DUP3 ADD SWAP2 JUMPDEST POP POP POP POP POP DUP2 MSTORE PUSH1 0x20 ADD PUSH1 0x1 DUP3 ADD DUP1 SLOAD PUSH2 0x665 SWAP1 PUSH2 0x1265 JUMP JUMPDEST DUP1 PUSH1 0x1F ADD PUSH1 0x20 DUP1 SWAP2 DIV MUL PUSH1 0x20 ADD PUSH1 0x40 MLOAD SWAP1 DUP2 ADD PUSH1 0x40 MSTORE DUP1 SWAP3 SWAP2 SWAP1 DUP2 DUP2 MSTORE PUSH1 0x20 ADD DUP3 DUP1 SLOAD PUSH2 0x691 SWAP1 PUSH2 0x1265 JUMP JUMPDEST DUP1 ISZERO PUSH2 0x6DE JUMPI DUP1 PUSH1 0x1F LT PUSH2 0x6B3 JUMPI PUSH2 0x100 DUP1 DUP4 SLOAD DIV MUL DUP4 MSTORE SWAP2 PUSH1 0x20 ADD SWAP2 PUSH2 0x6DE JUMP JUMPDEST DUP3 ADD SWAP2 SWAP1 PUSH1 0x0 MSTORE PUSH1 0x20 PUSH1 0x0 KECCAK256 SWAP1 JUMPDEST DUP2 SLOAD DUP2 MSTORE SWAP1 PUSH1 0x1 ADD SWAP1 PUSH1 0x20 ADD DUP1 DUP4 GT PUSH2 0x6C1 JUMPI DUP3 SWAP1 SUB PUSH1 0x1F AND DUP3 ADD SWAP2 JUMPDEST POP POP POP POP POP DUP2 MSTORE PUSH1 0x20 ADD PUSH1 0x2 DUP3 ADD PUSH1 0x0 SWAP1 SLOAD SWAP1 PUSH2 0x100 EXP SWAP1 DIV PUSH20 0xFFFFFFFFFFFFFFFFFFFFFFFFFFFFFFFFFFFFFFFF AND PUSH20 0xFFFFFFFFFFFFFFFFFFFFFFFFFFFFFFFFFFFFFFFF AND PUSH20 0xFFFFFFFFFFFFFFFFFFFFFFFFFFFFFFFFFFFFFFFF AND DUP2 MSTORE PUSH1 0x20 ADD PUSH1 0x2 DUP3 ADD PUSH1 0x14 SWAP1 SLOAD SWAP1 PUSH2 0x100 EXP SWAP1 DIV PUSH1 0xFF AND ISZERO ISZERO ISZERO ISZERO DUP2 MSTORE PUSH1 0x20 ADD PUSH1 0x2 DUP3 ADD PUSH1 0x15 SWAP1 SLOAD SWAP1 PUSH2 0x100 EXP SWAP1 DIV PUSH1 0xFF AND ISZERO ISZERO ISZERO ISZERO DUP2 MSTORE PUSH1 0x20 ADD PUSH1 0x2 DUP3 ADD PUSH1 0x16 SWAP1 SLOAD SWAP1 PUSH2 0x100 EXP SWAP1 DIV PUSH1 0xFF AND ISZERO ISZERO ISZERO ISZERO DUP2 MSTORE POP POP SWAP1 POP SWAP2 SWAP1 POP JUMP JUMPDEST PUSH1 0x1 ISZERO ISZERO PUSH1 0x2 PUSH1 0x0 CALLER PUSH20 0xFFFFFFFFFFFFFFFFFFFFFFFFFFFFFFFFFFFFFFFF AND PUSH20 0xFFFFFFFFFFFFFFFFFFFFFFFFFFFFFFFFFFFFFFFF AND DUP2 MSTORE PUSH1 0x20 ADD SWAP1 DUP2 MSTORE PUSH1 0x20 ADD PUSH1 0x0 KECCAK256 PUSH1 0x2 ADD PUSH1 0x16 SWAP1 SLOAD SWAP1 PUSH2 0x100 EXP SWAP1 DIV PUSH1 0xFF AND ISZERO ISZERO EQ PUSH2 0x82B JUMPI PUSH1 0x40 MLOAD PUSH32 0x8C379A000000000000000000000000000000000000000000000000000000000 DUP2 MSTORE PUSH1 0x4 ADD PUSH2 0x822 SWAP1 PUSH2 0x10A8 JUMP JUMPDEST PUSH1 0x40 MLOAD DUP1 SWAP2 SUB SWAP1 REVERT JUMPDEST PUSH1 0x40 MLOAD DUP1 PUSH1 0xC0 ADD PUSH1 0x40 MSTORE DUP1 DUP5 DUP2 MSTORE PUSH1 0x20 ADD DUP4 DUP2 MSTORE PUSH1 0x20 ADD DUP3 PUSH20 0xFFFFFFFFFFFFFFFFFFFFFFFFFFFFFFFFFFFFFFFF AND DUP2 MSTORE PUSH1 0x20 ADD PUSH1 0x1 ISZERO ISZERO DUP2 MSTORE PUSH1 0x20 ADD PUSH1 0x0 ISZERO ISZERO DUP2 MSTORE PUSH1 0x20 ADD PUSH1 0x1 ISZERO ISZERO DUP2 MSTORE POP PUSH1 0x2 PUSH1 0x0 CALLER PUSH20 0xFFFFFFFFFFFFFFFFFFFFFFFFFFFFFFFFFFFFFFFF AND PUSH20 0xFFFFFFFFFFFFFFFFFFFFFFFFFFFFFFFFFFFFFFFF AND DUP2 MSTORE PUSH1 0x20 ADD SWAP1 DUP2 MSTORE PUSH1 0x20 ADD PUSH1 0x0 KECCAK256 PUSH1 0x0 DUP3 ADD MLOAD DUP2 PUSH1 0x0 ADD SWAP1 DUP1 MLOAD SWAP1 PUSH1 0x20 ADD SWAP1 PUSH2 0x8D2 SWAP3 SWAP2 SWAP1 PUSH2 0xBF3 JUMP JUMPDEST POP PUSH1 0x20 DUP3 ADD MLOAD DUP2 PUSH1 0x1 ADD SWAP1 DUP1 MLOAD SWAP1 PUSH1 0x20 ADD SWAP1 PUSH2 0x8EF SWAP3 SWAP2 SWAP1 PUSH2 0xBF3 JUMP JUMPDEST POP PUSH1 0x40 DUP3 ADD MLOAD DUP2 PUSH1 0x2 ADD PUSH1 0x0 PUSH2 0x100 EXP DUP2 SLOAD DUP2 PUSH20 0xFFFFFFFFFFFFFFFFFFFFFFFFFFFFFFFFFFFFFFFF MUL NOT AND SWAP1 DUP4 PUSH20 0xFFFFFFFFFFFFFFFFFFFFFFFFFFFFFFFFFFFFFFFF AND MUL OR SWAP1 SSTORE POP PUSH1 0x60 DUP3 ADD MLOAD DUP2 PUSH1 0x2 ADD PUSH1 0x14 PUSH2 0x100 EXP DUP2 SLOAD DUP2 PUSH1 0xFF MUL NOT AND SWAP1 DUP4 ISZERO ISZERO MUL OR SWAP1 SSTORE POP PUSH1 0x80 DUP3 ADD MLOAD DUP2 PUSH1 0x2 ADD PUSH1 0x15 PUSH2 0x100 EXP DUP2 SLOAD DUP2 PUSH1 0xFF MUL NOT AND SWAP1 DUP4 ISZERO ISZERO MUL OR SWAP1 SSTORE POP PUSH1 0xA0 DUP3 ADD MLOAD DUP2 PUSH1 0x2 ADD PUSH1 0x16 PUSH2 0x100 EXP DUP2 SLOAD DUP2 PUSH1 0xFF MUL NOT AND SWAP1 DUP4 ISZERO ISZERO MUL OR SWAP1 SSTORE POP SWAP1 POP POP PUSH1 0x3 CALLER SWAP1 DUP1 PUSH1 0x1 DUP2 SLOAD ADD DUP1 DUP3 SSTORE DUP1 SWAP2 POP POP PUSH1 0x1 SWAP1 SUB SWAP1 PUSH1 0x0 MSTORE PUSH1 0x20 PUSH1 0x0 KECCAK256 ADD PUSH1 0x0 SWAP1 SWAP2 SWAP1 SWAP2 SWAP1 SWAP2 PUSH2 0x100 EXP DUP2 SLOAD DUP2 PUSH20 0xFFFFFFFFFFFFFFFFFFFFFFFFFFFFFFFFFFFFFFFF MUL NOT AND SWAP1 DUP4 PUSH20 0xFFFFFFFFFFFFFFFFFFFFFFFFFFFFFFFFFFFFFFFF AND MUL OR SWAP1 SSTORE POP POP POP POP JUMP JUMPDEST PUSH1 0x2 PUSH1 0x4 DUP2 GT ISZERO PUSH2 0xA16 JUMPI PUSH2 0xA15 PUSH2 0x1340 JUMP JUMPDEST JUMPDEST PUSH1 0x0 DUP1 CALLER PUSH20 0xFFFFFFFFFFFFFFFFFFFFFFFFFFFFFFFFFFFFFFFF AND PUSH20 0xFFFFFFFFFFFFFFFFFFFFFFFFFFFFFFFFFFFFFFFF AND DUP2 MSTORE PUSH1 0x20 ADD SWAP1 DUP2 MSTORE PUSH1 0x20 ADD PUSH1 0x0 KECCAK256 PUSH1 0x0 ADD PUSH1 0x0 SWAP1 SLOAD SWAP1 PUSH2 0x100 EXP SWAP1 DIV PUSH1 0xFF AND PUSH1 0x4 DUP2 GT ISZERO PUSH2 0xA77 JUMPI PUSH2 0xA76 PUSH2 0x1340 JUMP JUMPDEST JUMPDEST EQ PUSH2 0xAB7 JUMPI PUSH1 0x40 MLOAD PUSH32 0x8C379A000000000000000000000000000000000000000000000000000000000 DUP2 MSTORE PUSH1 0x4 ADD PUSH2 0xAAE SWAP1 PUSH2 0x10C8 JUMP JUMPDEST PUSH1 0x40 MLOAD DUP1 SWAP2 SUB SWAP1 REVERT JUMPDEST PUSH1 0x1 PUSH1 0x2 PUSH1 0x0 DUP5 PUSH20 0xFFFFFFFFFFFFFFFFFFFFFFFFFFFFFFFFFFFFFFFF AND PUSH20 0xFFFFFFFFFFFFFFFFFFFFFFFFFFFFFFFFFFFFFFFF AND DUP2 MSTORE PUSH1 0x20 ADD SWAP1 DUP2 MSTORE PUSH1 0x20 ADD PUSH1 0x0 KECCAK256 PUSH1 0x2 ADD PUSH1 0x15 PUSH2 0x100 EXP DUP2 SLOAD DUP2 PUSH1 0xFF MUL NOT AND SWAP1 DUP4 ISZERO ISZERO MUL OR SWAP1 SSTORE POP PUSH1 0x0 PUSH1 0x2 PUSH1 0x0 DUP5 PUSH20 0xFFFFFFFFFFFFFFFFFFFFFFFFFFFFFFFFFFFFFFFF AND PUSH20 0xFFFFFFFFFFFFFFFFFFFFFFFFFFFFFFFFFFFFFFFF AND DUP2 MSTORE PUSH1 0x20 ADD SWAP1 DUP2 MSTORE PUSH1 0x20 ADD PUSH1 0x0 KECCAK256 PUSH1 0x2 ADD PUSH1 0x14 PUSH2 0x100 EXP DUP2 SLOAD DUP2 PUSH1 0xFF MUL NOT AND SWAP1 DUP4 ISZERO ISZERO MUL OR SWAP1 SSTORE POP POP POP JUMP JUMPDEST PUSH1 0x0 DUP2 PUSH1 0x40 MLOAD PUSH1 0x20 ADD PUSH2 0xB84 SWAP2 SWAP1 PUSH2 0x1054 JUMP JUMPDEST PUSH1 0x40 MLOAD PUSH1 0x20 DUP2 DUP4 SUB SUB DUP2 MSTORE SWAP1 PUSH1 0x40 MSTORE DUP1 MLOAD SWAP1 PUSH1 0x20 ADD KECCAK256 SWAP1 POP SWAP2 SWAP1 POP JUMP JUMPDEST PUSH1 0x40 MLOAD DUP1 PUSH1 0xC0 ADD PUSH1 0x40 MSTORE DUP1 PUSH1 0x60 DUP2 MSTORE PUSH1 0x20 ADD PUSH1 0x60 DUP2 MSTORE PUSH1 0x20 ADD PUSH1 0x0 PUSH20 0xFFFFFFFFFFFFFFFFFFFFFFFFFFFFFFFFFFFFFFFF AND DUP2 MSTORE PUSH1 0x20 ADD PUSH1 0x0 ISZERO ISZERO DUP2 MSTORE PUSH1 0x20 ADD PUSH1 0x0 ISZERO ISZERO DUP2 MSTORE PUSH1 0x20 ADD PUSH1 0x0 ISZERO ISZERO DUP2 MSTORE POP SWAP1 JUMP JUMPDEST DUP3 DUP1 SLOAD PUSH2 0xBFF SWAP1 PUSH2 0x1265 JUMP JUMPDEST SWAP1 PUSH1 0x0 MSTORE PUSH1 0x20 PUSH1 0x0 KECCAK256 SWAP1 PUSH1 0x1F ADD PUSH1 0x20 SWAP1 DIV DUP2 ADD SWAP3 DUP3 PUSH2 0xC21 JUMPI PUSH1 0x0 DUP6 SSTORE PUSH2 0xC68 JUMP JUMPDEST DUP3 PUSH1 0x1F LT PUSH2 0xC3A JUMPI DUP1 MLOAD PUSH1 0xFF NOT AND DUP4 DUP1 ADD OR DUP6 SSTORE PUSH2 0xC68 JUMP JUMPDEST DUP3 DUP1 ADD PUSH1 0x1 ADD DUP6 SSTORE DUP3 ISZERO PUSH2 0xC68 JUMPI SWAP2 DUP3 ADD JUMPDEST DUP3 DUP2 GT ISZERO PUSH2 0xC67 JUMPI DUP3 MLOAD DUP3 SSTORE SWAP2 PUSH1 0x20 ADD SWAP2 SWAP1 PUSH1 0x1 ADD SWAP1 PUSH2 0xC4C JUMP JUMPDEST JUMPDEST POP SWAP1 POP PUSH2 0xC75 SWAP2 SWAP1 PUSH2 0xC79 JUMP JUMPDEST POP SWAP1 JUMP JUMPDEST JUMPDEST DUP1 DUP3 GT ISZERO PUSH2 0xC92 JUMPI PUSH1 0x0 DUP2 PUSH1 0x0 SWAP1 SSTORE POP PUSH1 0x1 ADD PUSH2 0xC7A JUMP JUMPDEST POP SWAP1 JUMP JUMPDEST PUSH1 0x0 PUSH2 0xCA9 PUSH2 0xCA4 DUP5 PUSH2 0x112F JUMP JUMPDEST PUSH2 0x110A JUMP JUMPDEST SWAP1 POP DUP3 DUP2 MSTORE PUSH1 0x20 DUP2 ADD DUP5 DUP5 DUP5 ADD GT ISZERO PUSH2 0xCC5 JUMPI PUSH2 0xCC4 PUSH2 0x1401 JUMP JUMPDEST JUMPDEST PUSH2 0xCD0 DUP5 DUP3 DUP6 PUSH2 0x1223 JUMP JUMPDEST POP SWAP4 SWAP3 POP POP POP JUMP JUMPDEST PUSH1 0x0 DUP2 CALLDATALOAD SWAP1 POP PUSH2 0xCE7 DUP2 PUSH2 0x1473 JUMP JUMPDEST SWAP3 SWAP2 POP POP JUMP JUMPDEST PUSH1 0x0 DUP2 CALLDATALOAD SWAP1 POP PUSH2 0xCFC DUP2 PUSH2 0x148A JUMP JUMPDEST SWAP3 SWAP2 POP POP JUMP JUMPDEST PUSH1 0x0 DUP3 PUSH1 0x1F DUP4 ADD SLT PUSH2 0xD17 JUMPI PUSH2 0xD16 PUSH2 0x13FC JUMP JUMPDEST JUMPDEST DUP2 CALLDATALOAD PUSH2 0xD27 DUP5 DUP3 PUSH1 0x20 DUP7 ADD PUSH2 0xC96 JUMP JUMPDEST SWAP2 POP POP SWAP3 SWAP2 POP POP JUMP JUMPDEST PUSH1 0x0 PUSH1 0x20 DUP3 DUP5 SUB SLT ISZERO PUSH2 0xD46 JUMPI PUSH2 0xD45 PUSH2 0x140B JUMP JUMPDEST JUMPDEST PUSH1 0x0 PUSH2 0xD54 DUP5 DUP3 DUP6 ADD PUSH2 0xCD8 JUMP JUMPDEST SWAP2 POP POP SWAP3 SWAP2 POP POP JUMP JUMPDEST PUSH1 0x0 DUP1 PUSH1 0x40 DUP4 DUP6 SUB SLT ISZERO PUSH2 0xD74 JUMPI PUSH2 0xD73 PUSH2 0x140B JUMP JUMPDEST JUMPDEST PUSH1 0x0 PUSH2 0xD82 DUP6 DUP3 DUP7 ADD PUSH2 0xCD8 JUMP JUMPDEST SWAP3 POP POP PUSH1 0x20 PUSH2 0xD93 DUP6 DUP3 DUP7 ADD PUSH2 0xCED JUMP JUMPDEST SWAP2 POP POP SWAP3 POP SWAP3 SWAP1 POP JUMP JUMPDEST PUSH1 0x0 PUSH1 0x20 DUP3 DUP5 SUB SLT ISZERO PUSH2 0xDB3 JUMPI PUSH2 0xDB2 PUSH2 0x140B JUMP JUMPDEST JUMPDEST PUSH1 0x0 DUP3 ADD CALLDATALOAD PUSH8 0xFFFFFFFFFFFFFFFF DUP2 GT ISZERO PUSH2 0xDD1 JUMPI PUSH2 0xDD0 PUSH2 0x1406 JUMP JUMPDEST JUMPDEST PUSH2 0xDDD DUP5 DUP3 DUP6 ADD PUSH2 0xD02 JUMP JUMPDEST SWAP2 POP POP SWAP3 SWAP2 POP POP JUMP JUMPDEST PUSH1 0x0 DUP1 PUSH1 0x0 PUSH1 0x60 DUP5 DUP7 SUB SLT ISZERO PUSH2 0xDFF JUMPI PUSH2 0xDFE PUSH2 0x140B JUMP JUMPDEST JUMPDEST PUSH1 0x0 DUP5 ADD CALLDATALOAD PUSH8 0xFFFFFFFFFFFFFFFF DUP2 GT ISZERO PUSH2 0xE1D JUMPI PUSH2 0xE1C PUSH2 0x1406 JUMP JUMPDEST JUMPDEST PUSH2 0xE29 DUP7 DUP3 DUP8 ADD PUSH2 0xD02 JUMP JUMPDEST SWAP4 POP POP PUSH1 0x20 DUP5 ADD CALLDATALOAD PUSH8 0xFFFFFFFFFFFFFFFF DUP2 GT ISZERO PUSH2 0xE4A JUMPI PUSH2 0xE49 PUSH2 0x1406 JUMP JUMPDEST JUMPDEST PUSH2 0xE56 DUP7 DUP3 DUP8 ADD PUSH2 0xD02 JUMP JUMPDEST SWAP3 POP POP PUSH1 0x40 PUSH2 0xE67 DUP7 DUP3 DUP8 ADD PUSH2 0xCD8 JUMP JUMPDEST SWAP2 POP POP SWAP3 POP SWAP3 POP SWAP3 JUMP JUMPDEST PUSH1 0x0 PUSH2 0xE7D DUP4 DUP4 PUSH2 0xE89 JUMP JUMPDEST PUSH1 0x20 DUP4 ADD SWAP1 POP SWAP3 SWAP2 POP POP JUMP JUMPDEST PUSH2 0xE92 DUP2 PUSH2 0x11D1 JUMP JUMPDEST DUP3 MSTORE POP POP JUMP JUMPDEST PUSH1 0x0 PUSH2 0xEA3 DUP3 PUSH2 0x1170 JUMP JUMPDEST PUSH2 0xEAD DUP2 DUP6 PUSH2 0x1193 JUMP JUMPDEST SWAP4 POP PUSH2 0xEB8 DUP4 PUSH2 0x1160 JUMP JUMPDEST DUP1 PUSH1 0x0 JUMPDEST DUP4 DUP2 LT ISZERO PUSH2 0xEE9 JUMPI DUP2 MLOAD PUSH2 0xED0 DUP9 DUP3 PUSH2 0xE71 JUMP JUMPDEST SWAP8 POP PUSH2 0xEDB DUP4 PUSH2 0x1186 JUMP JUMPDEST SWAP3 POP POP PUSH1 0x1 DUP2 ADD SWAP1 POP PUSH2 0xEBC JUMP JUMPDEST POP DUP6 SWAP4 POP POP POP POP SWAP3 SWAP2 POP POP JUMP JUMPDEST PUSH2 0xEFF DUP2 PUSH2 0x11E3 JUMP JUMPDEST DUP3 MSTORE POP POP JUMP JUMPDEST PUSH2 0xF0E DUP2 PUSH2 0x11EF JUMP JUMPDEST DUP3 MSTORE POP POP JUMP JUMPDEST PUSH1 0x0 PUSH2 0xF1F DUP3 PUSH2 0x117B JUMP JUMPDEST PUSH2 0xF29 DUP2 DUP6 PUSH2 0x11A4 JUMP JUMPDEST SWAP4 POP PUSH2 0xF39 DUP2 DUP6 PUSH1 0x20 DUP7 ADD PUSH2 0x1232 JUMP JUMPDEST PUSH2 0xF42 DUP2 PUSH2 0x1410 JUMP JUMPDEST DUP5 ADD SWAP2 POP POP SWAP3 SWAP2 POP POP JUMP JUMPDEST PUSH1 0x0 PUSH2 0xF58 DUP3 PUSH2 0x117B JUMP JUMPDEST PUSH2 0xF62 DUP2 DUP6 PUSH2 0x11C6 JUMP JUMPDEST SWAP4 POP PUSH2 0xF72 DUP2 DUP6 PUSH1 0x20 DUP7 ADD PUSH2 0x1232 JUMP JUMPDEST DUP1 DUP5 ADD SWAP2 POP POP SWAP3 SWAP2 POP POP JUMP JUMPDEST PUSH1 0x0 PUSH2 0xF8B PUSH1 0x19 DUP4 PUSH2 0x11B5 JUMP JUMPDEST SWAP2 POP PUSH2 0xF96 DUP3 PUSH2 0x1421 JUMP JUMPDEST PUSH1 0x20 DUP3 ADD SWAP1 POP SWAP2 SWAP1 POP JUMP JUMPDEST PUSH1 0x0 PUSH2 0xFAE PUSH1 0x19 DUP4 PUSH2 0x11B5 JUMP JUMPDEST SWAP2 POP PUSH2 0xFB9 DUP3 PUSH2 0x144A JUMP JUMPDEST PUSH1 0x20 DUP3 ADD SWAP1 POP SWAP2 SWAP1 POP JUMP JUMPDEST PUSH1 0x0 PUSH1 0xC0 DUP4 ADD PUSH1 0x0 DUP4 ADD MLOAD DUP5 DUP3 SUB PUSH1 0x0 DUP7 ADD MSTORE PUSH2 0xFE1 DUP3 DUP3 PUSH2 0xF14 JUMP JUMPDEST SWAP2 POP POP PUSH1 0x20 DUP4 ADD MLOAD DUP5 DUP3 SUB PUSH1 0x20 DUP7 ADD MSTORE PUSH2 0xFFB DUP3 DUP3 PUSH2 0xF14 JUMP JUMPDEST SWAP2 POP POP PUSH1 0x40 DUP4 ADD MLOAD PUSH2 0x1010 PUSH1 0x40 DUP7 ADD DUP3 PUSH2 0xE89 JUMP JUMPDEST POP PUSH1 0x60 DUP4 ADD MLOAD PUSH2 0x1023 PUSH1 0x60 DUP7 ADD DUP3 PUSH2 0xEF6 JUMP JUMPDEST POP PUSH1 0x80 DUP4 ADD MLOAD PUSH2 0x1036 PUSH1 0x80 DUP7 ADD DUP3 PUSH2 0xEF6 JUMP JUMPDEST POP PUSH1 0xA0 DUP4 ADD MLOAD PUSH2 0x1049 PUSH1 0xA0 DUP7 ADD DUP3 PUSH2 0xEF6 JUMP JUMPDEST POP DUP1 SWAP2 POP POP SWAP3 SWAP2 POP POP JUMP JUMPDEST PUSH1 0x0 PUSH2 0x1060 DUP3 DUP5 PUSH2 0xF4D JUMP JUMPDEST SWAP2 POP DUP2 SWAP1 POP SWAP3 SWAP2 POP POP JUMP JUMPDEST PUSH1 0x0 PUSH1 0x20 DUP3 ADD SWAP1 POP DUP2 DUP2 SUB PUSH1 0x0 DUP4 ADD MSTORE PUSH2 0x1085 DUP2 DUP5 PUSH2 0xE98 JUMP JUMPDEST SWAP1 POP SWAP3 SWAP2 POP POP JUMP JUMPDEST PUSH1 0x0 PUSH1 0x20 DUP3 ADD SWAP1 POP PUSH2 0x10A2 PUSH1 0x0 DUP4 ADD DUP5 PUSH2 0xF05 JUMP JUMPDEST SWAP3 SWAP2 POP POP JUMP JUMPDEST PUSH1 0x0 PUSH1 0x20 DUP3 ADD SWAP1 POP DUP2 DUP2 SUB PUSH1 0x0 DUP4 ADD MSTORE PUSH2 0x10C1 DUP2 PUSH2 0xF7E JUMP JUMPDEST SWAP1 POP SWAP2 SWAP1 POP JUMP JUMPDEST PUSH1 0x0 PUSH1 0x20 DUP3 ADD SWAP1 POP DUP2 DUP2 SUB PUSH1 0x0 DUP4 ADD MSTORE PUSH2 0x10E1 DUP2 PUSH2 0xFA1 JUMP JUMPDEST SWAP1 POP SWAP2 SWAP1 POP JUMP JUMPDEST PUSH1 0x0 PUSH1 0x20 DUP3 ADD SWAP1 POP DUP2 DUP2 SUB PUSH1 0x0 DUP4 ADD MSTORE PUSH2 0x1102 DUP2 DUP5 PUSH2 0xFC4 JUMP JUMPDEST SWAP1 POP SWAP3 SWAP2 POP POP JUMP JUMPDEST PUSH1 0x0 PUSH2 0x1114 PUSH2 0x1125 JUMP JUMPDEST SWAP1 POP PUSH2 0x1120 DUP3 DUP3 PUSH2 0x1297 JUMP JUMPDEST SWAP2 SWAP1 POP JUMP JUMPDEST PUSH1 0x0 PUSH1 0x40 MLOAD SWAP1 POP SWAP1 JUMP JUMPDEST PUSH1 0x0 PUSH8 0xFFFFFFFFFFFFFFFF DUP3 GT ISZERO PUSH2 0x114A JUMPI PUSH2 0x1149 PUSH2 0x13CD JUMP JUMPDEST JUMPDEST PUSH2 0x1153 DUP3 PUSH2 0x1410 JUMP JUMPDEST SWAP1 POP PUSH1 0x20 DUP2 ADD SWAP1 POP SWAP2 SWAP1 POP JUMP JUMPDEST PUSH1 0x0 DUP2 SWAP1 POP PUSH1 0x20 DUP3 ADD SWAP1 POP SWAP2 SWAP1 POP JUMP JUMPDEST PUSH1 0x0 DUP2 MLOAD SWAP1 POP SWAP2 SWAP1 POP JUMP JUMPDEST PUSH1 0x0 DUP2 MLOAD SWAP1 POP SWAP2 SWAP1 POP JUMP JUMPDEST PUSH1 0x0 PUSH1 0x20 DUP3 ADD SWAP1 POP SWAP2 SWAP1 POP JUMP JUMPDEST PUSH1 0x0 DUP3 DUP3 MSTORE PUSH1 0x20 DUP3 ADD SWAP1 POP SWAP3 SWAP2 POP POP JUMP JUMPDEST PUSH1 0x0 DUP3 DUP3 MSTORE PUSH1 0x20 DUP3 ADD SWAP1 POP SWAP3 SWAP2 POP POP JUMP JUMPDEST PUSH1 0x0 DUP3 DUP3 MSTORE PUSH1 0x20 DUP3 ADD SWAP1 POP SWAP3 SWAP2 POP POP JUMP JUMPDEST PUSH1 0x0 DUP2 SWAP1 POP SWAP3 SWAP2 POP POP JUMP JUMPDEST PUSH1 0x0 PUSH2 0x11DC DUP3 PUSH2 0x11F9 JUMP JUMPDEST SWAP1 POP SWAP2 SWAP1 POP JUMP JUMPDEST PUSH1 0x0 DUP2 ISZERO ISZERO SWAP1 POP SWAP2 SWAP1 POP JUMP JUMPDEST PUSH1 0x0 DUP2 SWAP1 POP SWAP2 SWAP1 POP JUMP JUMPDEST PUSH1 0x0 PUSH20 0xFFFFFFFFFFFFFFFFFFFFFFFFFFFFFFFFFFFFFFFF DUP3 AND SWAP1 POP SWAP2 SWAP1 POP JUMP JUMPDEST PUSH1 0x0 DUP2 SWAP1 POP SWAP2 SWAP1 POP JUMP JUMPDEST DUP3 DUP2 DUP4 CALLDATACOPY PUSH1 0x0 DUP4 DUP4 ADD MSTORE POP POP POP JUMP JUMPDEST PUSH1 0x0 JUMPDEST DUP4 DUP2 LT ISZERO PUSH2 0x1250 JUMPI DUP1 DUP3 ADD MLOAD DUP2 DUP5 ADD MSTORE PUSH1 0x20 DUP2 ADD SWAP1 POP PUSH2 0x1235 JUMP JUMPDEST DUP4 DUP2 GT ISZERO PUSH2 0x125F JUMPI PUSH1 0x0 DUP5 DUP5 ADD MSTORE JUMPDEST POP POP POP POP JUMP JUMPDEST PUSH1 0x0 PUSH1 0x2 DUP3 DIV SWAP1 POP PUSH1 0x1 DUP3 AND DUP1 PUSH2 0x127D JUMPI PUSH1 0x7F DUP3 AND SWAP2 POP JUMPDEST PUSH1 0x20 DUP3 LT DUP2 EQ ISZERO PUSH2 0x1291 JUMPI PUSH2 0x1290 PUSH2 0x136F JUMP JUMPDEST JUMPDEST POP SWAP2 SWAP1 POP JUMP JUMPDEST PUSH2 0x12A0 DUP3 PUSH2 0x1410 JUMP JUMPDEST DUP2 ADD DUP2 DUP2 LT PUSH8 0xFFFFFFFFFFFFFFFF DUP3 GT OR ISZERO PUSH2 0x12BF JUMPI PUSH2 0x12BE PUSH2 0x13CD JUMP JUMPDEST JUMPDEST DUP1 PUSH1 0x40 MSTORE POP POP POP JUMP JUMPDEST PUSH1 0x0 PUSH2 0x12D3 DUP3 PUSH2 0x1219 JUMP JUMPDEST SWAP2 POP PUSH32 0xFFFFFFFFFFFFFFFFFFFFFFFFFFFFFFFFFFFFFFFFFFFFFFFFFFFFFFFFFFFFFFFF DUP3 EQ ISZERO PUSH2 0x1306 JUMPI PUSH2 0x1305 PUSH2 0x1311 JUMP JUMPDEST JUMPDEST PUSH1 0x1 DUP3 ADD SWAP1 POP SWAP2 SWAP1 POP JUMP JUMPDEST PUSH32 0x4E487B7100000000000000000000000000000000000000000000000000000000 PUSH1 0x0 MSTORE PUSH1 0x11 PUSH1 0x4 MSTORE PUSH1 0x24 PUSH1 0x0 REVERT JUMPDEST PUSH32 0x4E487B7100000000000000000000000000000000000000000000000000000000 PUSH1 0x0 MSTORE PUSH1 0x21 PUSH1 0x4 MSTORE PUSH1 0x24 PUSH1 0x0 REVERT JUMPDEST PUSH32 0x4E487B7100000000000000000000000000000000000000000000000000000000 PUSH1 0x0 MSTORE PUSH1 0x22 PUSH1 0x4 MSTORE PUSH1 0x24 PUSH1 0x0 REVERT JUMPDEST PUSH32 0x4E487B7100000000000000000000000000000000000000000000000000000000 PUSH1 0x0 MSTORE PUSH1 0x32 PUSH1 0x4 MSTORE PUSH1 0x24 PUSH1 0x0 REVERT JUMPDEST PUSH32 0x4E487B7100000000000000000000000000000000000000000000000000000000 PUSH1 0x0 MSTORE PUSH1 0x41 PUSH1 0x4 MSTORE PUSH1 0x24 PUSH1 0x0 REVERT JUMPDEST PUSH1 0x0 DUP1 REVERT JUMPDEST PUSH1 0x0 DUP1 REVERT JUMPDEST PUSH1 0x0 DUP1 REVERT JUMPDEST PUSH1 0x0 DUP1 REVERT JUMPDEST PUSH1 0x0 PUSH1 0x1F NOT PUSH1 0x1F DUP4 ADD AND SWAP1 POP SWAP2 SWAP1 POP JUMP JUMPDEST PUSH32 0x4170706C69636174696F6E20616C72656164792073656E742100000000000000 PUSH1 0x0 DUP3 ADD MSTORE POP JUMP JUMPDEST PUSH32 0x596F7572206E6F7420507269766174652070726F766964657200000000000000 PUSH1 0x0 DUP3 ADD MSTORE POP JUMP JUMPDEST PUSH2 0x147C DUP2 PUSH2 0x11D1 JUMP JUMPDEST DUP2 EQ PUSH2 0x1487 JUMPI PUSH1 0x0 DUP1 REVERT JUMPDEST POP JUMP JUMPDEST PUSH2 0x1493 DUP2 PUSH2 0x11E3 JUMP JUMPDEST DUP2 EQ PUSH2 0x149E JUMPI PUSH1 0x0 DUP1 REVERT JUMPDEST POP JUMP INVALID LOG2 PUSH5 0x6970667358 0x22 SLT KECCAK256 0x5D 0x2D 0xC4 SWAP11 SWAP8 GT DUP16 0x24 SWAP6 AND 0xE1 INVALID SWAP3 SWAP14 0xC4 PUSH17 0x62C26CE1AE0A330073C4AE224A863C4A64 PUSH20 0x6F6C634300080700330000000000000000000000 "
				},
				"gasEstimates": {
					"creation": {
						"codeDepositCost": "1067000",
						"executionCost": "1107",
						"totalCost": "1068107"
					},
					"external": {
						"acceptApplication(address,bool)": "51832",
						"application(string,string,address)": "infinite",
						"get_keccak256(string)": "infinite",
						"viewApplication(address)": "infinite",
						"viewApplicationAmountAdr()": "infinite",
						"viewApplicationNotReviewed()": "infinite"
					}
				},
				"methodIdentifiers": {
					"acceptApplication(address,bool)": "8404a61e",
					"application(string,string,address)": "785963c3",
					"get_keccak256(string)": "8e4f8c6b",
					"viewApplication(address)": "76eada91",
					"viewApplicationAmountAdr()": "4d0d594f",
					"viewApplicationNotReviewed()": "015952a7"
				}
			},
			"storageLayout": {
				"storage": [
					{
						"astId": 358,
						"contract": "Documents/GitHub/contract-token-cryptoMonster/backend/components/PhasePrivate.sol:PhasePrivate",
						"label": "structUsers_",
						"offset": 0,
						"slot": "0",
						"type": "t_mapping(t_address,t_struct(structUser)353_storage)"
					},
					{
						"astId": 368,
						"contract": "Documents/GitHub/contract-token-cryptoMonster/backend/components/PhasePrivate.sol:PhasePrivate",
						"label": "structPhases_",
						"offset": 0,
						"slot": "1",
						"type": "t_mapping(t_address,t_struct(structPhase)363_storage)"
					},
					{
						"astId": 386,
						"contract": "Documents/GitHub/contract-token-cryptoMonster/backend/components/PhasePrivate.sol:PhasePrivate",
						"label": "strucApplications_",
						"offset": 0,
						"slot": "2",
						"type": "t_mapping(t_address,t_struct(structApplication)381_storage)"
					},
					{
						"astId": 389,
						"contract": "Documents/GitHub/contract-token-cryptoMonster/backend/components/PhasePrivate.sol:PhasePrivate",
						"label": "structApplicationsAmountAdr",
						"offset": 0,
						"slot": "3",
						"type": "t_array(t_address)dyn_storage"
					}
				],
				"types": {
					"t_address": {
						"encoding": "inplace",
						"label": "address",
						"numberOfBytes": "20"
					},
					"t_array(t_address)dyn_storage": {
						"base": "t_address",
						"encoding": "dynamic_array",
						"label": "address[]",
						"numberOfBytes": "32"
					},
					"t_bool": {
						"encoding": "inplace",
						"label": "bool",
						"numberOfBytes": "1"
					},
					"t_bytes32": {
						"encoding": "inplace",
						"label": "bytes32",
						"numberOfBytes": "32"
					},
					"t_enum(Role)337": {
						"encoding": "inplace",
						"label": "enum structures.Role",
						"numberOfBytes": "1"
					},
					"t_mapping(t_address,t_struct(structApplication)381_storage)": {
						"encoding": "mapping",
						"key": "t_address",
						"label": "mapping(address => struct structures.structApplication)",
						"numberOfBytes": "32",
						"value": "t_struct(structApplication)381_storage"
					},
					"t_mapping(t_address,t_struct(structPhase)363_storage)": {
						"encoding": "mapping",
						"key": "t_address",
						"label": "mapping(address => struct structures.structPhase)",
						"numberOfBytes": "32",
						"value": "t_struct(structPhase)363_storage"
					},
					"t_mapping(t_address,t_struct(structUser)353_storage)": {
						"encoding": "mapping",
						"key": "t_address",
						"label": "mapping(address => struct structures.structUser)",
						"numberOfBytes": "32",
						"value": "t_struct(structUser)353_storage"
					},
					"t_string_storage": {
						"encoding": "bytes",
						"label": "string",
						"numberOfBytes": "32"
					},
					"t_struct(structApplication)381_storage": {
						"encoding": "inplace",
						"label": "struct structures.structApplication",
						"members": [
							{
								"astId": 370,
								"contract": "Documents/GitHub/contract-token-cryptoMonster/backend/components/PhasePrivate.sol:PhasePrivate",
								"label": "name",
								"offset": 0,
								"slot": "0",
								"type": "t_string_storage"
							},
							{
								"astId": 372,
								"contract": "Documents/GitHub/contract-token-cryptoMonster/backend/components/PhasePrivate.sol:PhasePrivate",
								"label": "contactForCommunication",
								"offset": 0,
								"slot": "1",
								"type": "t_string_storage"
							},
							{
								"astId": 374,
								"contract": "Documents/GitHub/contract-token-cryptoMonster/backend/components/PhasePrivate.sol:PhasePrivate",
								"label": "userAdr",
								"offset": 0,
								"slot": "2",
								"type": "t_address"
							},
							{
								"astId": 376,
								"contract": "Documents/GitHub/contract-token-cryptoMonster/backend/components/PhasePrivate.sol:PhasePrivate",
								"label": "status",
								"offset": 20,
								"slot": "2",
								"type": "t_bool"
							},
							{
								"astId": 378,
								"contract": "Documents/GitHub/contract-token-cryptoMonster/backend/components/PhasePrivate.sol:PhasePrivate",
								"label": "reviewed",
								"offset": 21,
								"slot": "2",
								"type": "t_bool"
							},
							{
								"astId": 380,
								"contract": "Documents/GitHub/contract-token-cryptoMonster/backend/components/PhasePrivate.sol:PhasePrivate",
								"label": "exist",
								"offset": 22,
								"slot": "2",
								"type": "t_bool"
							}
						],
						"numberOfBytes": "96"
					},
					"t_struct(structPhase)363_storage": {
						"encoding": "inplace",
						"label": "struct structures.structPhase",
						"members": [
							{
								"astId": 360,
								"contract": "Documents/GitHub/contract-token-cryptoMonster/backend/components/PhasePrivate.sol:PhasePrivate",
								"label": "statusPhase",
								"offset": 0,
								"slot": "0",
								"type": "t_bool"
							},
							{
								"astId": 362,
								"contract": "Documents/GitHub/contract-token-cryptoMonster/backend/components/PhasePrivate.sol:PhasePrivate",
								"label": "reviewed",
								"offset": 1,
								"slot": "0",
								"type": "t_bool"
							}
						],
						"numberOfBytes": "32"
					},
					"t_struct(structUser)353_storage": {
						"encoding": "inplace",
						"label": "struct structures.structUser",
						"members": [
							{
								"astId": 340,
								"contract": "Documents/GitHub/contract-token-cryptoMonster/backend/components/PhasePrivate.sol:PhasePrivate",
								"label": "role",
								"offset": 0,
								"slot": "0",
								"type": "t_enum(Role)337"
							},
							{
								"astId": 342,
								"contract": "Documents/GitHub/contract-token-cryptoMonster/backend/components/PhasePrivate.sol:PhasePrivate",
								"label": "login",
								"offset": 0,
								"slot": "1",
								"type": "t_string_storage"
							},
							{
								"astId": 344,
								"contract": "Documents/GitHub/contract-token-cryptoMonster/backend/components/PhasePrivate.sol:PhasePrivate",
								"label": "password",
								"offset": 0,
								"slot": "2",
								"type": "t_bytes32"
							},
							{
								"astId": 346,
								"contract": "Documents/GitHub/contract-token-cryptoMonster/backend/components/PhasePrivate.sol:PhasePrivate",
								"label": "balance_overall",
								"offset": 0,
								"slot": "3",
								"type": "t_uint256"
							},
							{
								"astId": 348,
								"contract": "Documents/GitHub/contract-token-cryptoMonster/backend/components/PhasePrivate.sol:PhasePrivate",
								"label": "balance_seed",
								"offset": 0,
								"slot": "4",
								"type": "t_uint256"
							},
							{
								"astId": 350,
								"contract": "Documents/GitHub/contract-token-cryptoMonster/backend/components/PhasePrivate.sol:PhasePrivate",
								"label": "balance_private",
								"offset": 0,
								"slot": "5",
								"type": "t_uint256"
							},
							{
								"astId": 352,
								"contract": "Documents/GitHub/contract-token-cryptoMonster/backend/components/PhasePrivate.sol:PhasePrivate",
								"label": "balance_public",
								"offset": 0,
								"slot": "6",
								"type": "t_uint256"
							}
						],
						"numberOfBytes": "224"
					},
					"t_uint256": {
						"encoding": "inplace",
						"label": "uint256",
						"numberOfBytes": "32"
					}
				}
			},
			"userdoc": {
				"kind": "user",
				"methods": {},
				"version": 1
			}
		}
	}
}