{
	"Documents/GitHub/contract-token-cryptoMonster/backend/components/PhasePrivate.sol": {
		"PhasePrivate": {
			"abi": [
				{
					"inputs": [
						{
							"internalType": "address",
							"name": "_userAdr",
							"type": "address"
						}
					],
					"name": "acceptApplication",
					"outputs": [],
					"stateMutability": "nonpayable",
					"type": "function"
				},
				{
					"inputs": [
						{
							"internalType": "string",
							"name": "_name",
							"type": "string"
						},
						{
							"internalType": "string",
							"name": "_contactForCommunication",
							"type": "string"
						},
						{
							"internalType": "address",
							"name": "_userAdr",
							"type": "address"
						}
					],
					"name": "application",
					"outputs": [],
					"stateMutability": "nonpayable",
					"type": "function"
				},
				{
					"inputs": [
						{
							"internalType": "address",
							"name": "_userAdr",
							"type": "address"
						}
					],
					"name": "deviationApplication",
					"outputs": [],
					"stateMutability": "nonpayable",
					"type": "function"
				},
				{
					"inputs": [],
					"name": "getApplicationAmountAdr",
					"outputs": [
						{
							"internalType": "address[]",
							"name": "",
							"type": "address[]"
						}
					],
					"stateMutability": "view",
					"type": "function"
				},
				{
					"inputs": [],
					"name": "getApplicationNotReviewed",
					"outputs": [
						{
							"internalType": "address[]",
							"name": "",
							"type": "address[]"
						}
					],
					"stateMutability": "view",
					"type": "function"
				},
				{
					"inputs": [
						{
							"internalType": "string",
							"name": "_hash",
							"type": "string"
						}
					],
					"name": "get_keccak256",
					"outputs": [
						{
							"internalType": "bytes32",
							"name": "",
							"type": "bytes32"
						}
					],
					"stateMutability": "pure",
					"type": "function"
				},
				{
					"inputs": [
						{
							"internalType": "address",
							"name": "_userAdr",
							"type": "address"
						}
					],
					"name": "viewApplication",
					"outputs": [
						{
							"components": [
								{
									"internalType": "string",
									"name": "name",
									"type": "string"
								},
								{
									"internalType": "string",
									"name": "contactForCommunication",
									"type": "string"
								},
								{
									"internalType": "address",
									"name": "userAdr",
									"type": "address"
								},
								{
									"internalType": "bool",
									"name": "status",
									"type": "bool"
								},
								{
									"internalType": "bool",
									"name": "reviewed",
									"type": "bool"
								},
								{
									"internalType": "bool",
									"name": "exist",
									"type": "bool"
								}
							],
							"internalType": "struct structures.structApplication",
							"name": "",
							"type": "tuple"
						}
					],
					"stateMutability": "nonpayable",
					"type": "function"
				}
			],
			"devdoc": {
				"kind": "dev",
				"methods": {},
				"version": 1
			},
			"evm": {
				"assembly": "    /* \"Documents/GitHub/contract-token-cryptoMonster/backend/components/PhasePrivate.sol\":157:4292  contract PhasePrivate is modifireFunc {\r... */\n  mstore(0x40, 0x80)\n  callvalue\n  dup1\n  iszero\n  tag_1\n  jumpi\n  0x00\n  dup1\n  revert\ntag_1:\n  pop\n  dataSize(sub_0)\n  dup1\n  dataOffset(sub_0)\n  0x00\n  codecopy\n  0x00\n  return\nstop\n\nsub_0: assembly {\n        /* \"Documents/GitHub/contract-token-cryptoMonster/backend/components/PhasePrivate.sol\":157:4292  contract PhasePrivate is modifireFunc {\r... */\n      mstore(0x40, 0x80)\n      callvalue\n      dup1\n      iszero\n      tag_1\n      jumpi\n      0x00\n      dup1\n      revert\n    tag_1:\n      pop\n      jumpi(tag_2, lt(calldatasize, 0x04))\n      shr(0xe0, calldataload(0x00))\n      dup1\n      0x76eada91\n      gt\n      tag_10\n      jumpi\n      dup1\n      0x76eada91\n      eq\n      tag_6\n      jumpi\n      dup1\n      0x785963c3\n      eq\n      tag_7\n      jumpi\n      dup1\n      0x8e4f8c6b\n      eq\n      tag_8\n      jumpi\n      dup1\n      0xa678b65b\n      eq\n      tag_9\n      jumpi\n      jump(tag_2)\n    tag_10:\n      dup1\n      0x1d3eea35\n      eq\n      tag_3\n      jumpi\n      dup1\n      0x506a222c\n      eq\n      tag_4\n      jumpi\n      dup1\n      0x686c4cea\n      eq\n      tag_5\n      jumpi\n    tag_2:\n      0x00\n      dup1\n      revert\n        /* \"Documents/GitHub/contract-token-cryptoMonster/backend/components/PhasePrivate.sol\":4051:4289  function deviationApplication (address _userAdr) public onlyPrivateProvider {\r... */\n    tag_3:\n      tag_11\n      0x04\n      dup1\n      calldatasize\n      sub\n      dup2\n      add\n      swap1\n      tag_12\n      swap2\n      swap1\n      tag_13\n      jump\t// in\n    tag_12:\n      tag_14\n      jump\t// in\n    tag_11:\n      stop\n        /* \"Documents/GitHub/contract-token-cryptoMonster/backend/components/PhasePrivate.sol\":2040:3192  function getApplicationNotReviewed () public onlyPrivateProvider view returns (address[] memory) {\r... */\n    tag_4:\n      tag_15\n      tag_16\n      jump\t// in\n    tag_15:\n      mload(0x40)\n      tag_17\n      swap2\n      swap1\n      tag_18\n      jump\t// in\n    tag_17:\n      mload(0x40)\n      dup1\n      swap2\n      sub\n      swap1\n      return\n        /* \"Documents/GitHub/contract-token-cryptoMonster/backend/components/PhasePrivate.sol\":1650:1895  function getApplicationAmountAdr () public onlyPrivateProvider view returns (address[] memory) {\r... */\n    tag_5:\n      tag_19\n      tag_20\n      jump\t// in\n    tag_19:\n      mload(0x40)\n      tag_21\n      swap2\n      swap1\n      tag_18\n      jump\t// in\n    tag_21:\n      mload(0x40)\n      dup1\n      swap2\n      sub\n      swap1\n      return\n        /* \"Documents/GitHub/contract-token-cryptoMonster/backend/components/PhasePrivate.sol\":3313:3656  function viewApplication (address _userAdr) public onlyPrivateProvider returns (structApplication memory) {\r... */\n    tag_6:\n      tag_22\n      0x04\n      dup1\n      calldatasize\n      sub\n      dup2\n      add\n      swap1\n      tag_23\n      swap2\n      swap1\n      tag_13\n      jump\t// in\n    tag_23:\n      tag_24\n      jump\t// in\n    tag_22:\n      mload(0x40)\n      tag_25\n      swap2\n      swap1\n      tag_26\n      jump\t// in\n    tag_25:\n      mload(0x40)\n      dup1\n      swap2\n      sub\n      swap1\n      return\n        /* \"Documents/GitHub/contract-token-cryptoMonster/backend/components/PhasePrivate.sol\":295:1536  function application(string memory _name, string memory _contactForCommunication, address _userAdr) public {\r... */\n    tag_7:\n      tag_27\n      0x04\n      dup1\n      calldatasize\n      sub\n      dup2\n      add\n      swap1\n      tag_28\n      swap2\n      swap1\n      tag_29\n      jump\t// in\n    tag_28:\n      tag_30\n      jump\t// in\n    tag_27:\n      stop\n        /* \"Documents/GitHub/contract-token-cryptoMonster/backend/shared/helpers/helpresFunc.sol\":147:285  function get_keccak256(string memory _hash) public pure returns(bytes32) {\r... */\n    tag_8:\n      tag_31\n      0x04\n      dup1\n      calldatasize\n      sub\n      dup2\n      add\n      swap1\n      tag_32\n      swap2\n      swap1\n      tag_33\n      jump\t// in\n    tag_32:\n      tag_34\n      jump\t// in\n    tag_31:\n      mload(0x40)\n      tag_35\n      swap2\n      swap1\n      tag_36\n      jump\t// in\n    tag_35:\n      mload(0x40)\n      dup1\n      swap2\n      sub\n      swap1\n      return\n        /* \"Documents/GitHub/contract-token-cryptoMonster/backend/components/PhasePrivate.sol\":3732:3967  function acceptApplication (address _userAdr) public onlyPrivateProvider {\r... */\n    tag_9:\n      tag_37\n      0x04\n      dup1\n      calldatasize\n      sub\n      dup2\n      add\n      swap1\n      tag_38\n      swap2\n      swap1\n      tag_13\n      jump\t// in\n    tag_38:\n      tag_39\n      jump\t// in\n    tag_37:\n      stop\n        /* \"Documents/GitHub/contract-token-cryptoMonster/backend/components/PhasePrivate.sol\":4051:4289  function deviationApplication (address _userAdr) public onlyPrivateProvider {\r... */\n    tag_14:\n        /* \"Documents/GitHub/contract-token-cryptoMonster/backend/shared/helpers/modifireFunc.sol\":566:585  Role.SYSTEM_PRIVATE */\n      0x02\n        /* \"Documents/GitHub/contract-token-cryptoMonster/backend/shared/helpers/modifireFunc.sol\":533:585  structUsers_[msg.sender].role == Role.SYSTEM_PRIVATE */\n      0x04\n      dup2\n      gt\n      iszero\n      tag_41\n      jumpi\n      tag_42\n      tag_43\n      jump\t// in\n    tag_42:\n    tag_41:\n        /* \"Documents/GitHub/contract-token-cryptoMonster/backend/shared/helpers/modifireFunc.sol\":533:545  structUsers_ */\n      0x00\n        /* \"Documents/GitHub/contract-token-cryptoMonster/backend/shared/helpers/modifireFunc.sol\":533:557  structUsers_[msg.sender] */\n      dup1\n        /* \"Documents/GitHub/contract-token-cryptoMonster/backend/shared/helpers/modifireFunc.sol\":546:556  msg.sender */\n      caller\n        /* \"Documents/GitHub/contract-token-cryptoMonster/backend/shared/helpers/modifireFunc.sol\":533:557  structUsers_[msg.sender] */\n      0xffffffffffffffffffffffffffffffffffffffff\n      and\n      0xffffffffffffffffffffffffffffffffffffffff\n      and\n      dup2\n      mstore\n      0x20\n      add\n      swap1\n      dup2\n      mstore\n      0x20\n      add\n      0x00\n      keccak256\n        /* \"Documents/GitHub/contract-token-cryptoMonster/backend/shared/helpers/modifireFunc.sol\":533:562  structUsers_[msg.sender].role */\n      0x00\n      add\n      0x00\n      swap1\n      sload\n      swap1\n      0x0100\n      exp\n      swap1\n      div\n      0xff\n      and\n        /* \"Documents/GitHub/contract-token-cryptoMonster/backend/shared/helpers/modifireFunc.sol\":533:585  structUsers_[msg.sender].role == Role.SYSTEM_PRIVATE */\n      0x04\n      dup2\n      gt\n      iszero\n      tag_44\n      jumpi\n      tag_45\n      tag_43\n      jump\t// in\n    tag_45:\n    tag_44:\n      eq\n        /* \"Documents/GitHub/contract-token-cryptoMonster/backend/shared/helpers/modifireFunc.sol\":525:615  require(structUsers_[msg.sender].role == Role.SYSTEM_PRIVATE, \"Your not Private provider\") */\n      tag_46\n      jumpi\n      mload(0x40)\n      0x08c379a000000000000000000000000000000000000000000000000000000000\n      dup2\n      mstore\n      0x04\n      add\n      tag_47\n      swap1\n      tag_48\n      jump\t// in\n    tag_47:\n      mload(0x40)\n      dup1\n      swap2\n      sub\n      swap1\n      revert\n    tag_46:\n        /* \"Documents/GitHub/contract-token-cryptoMonster/backend/components/PhasePrivate.sol\":4189:4194  false */\n      0x00\n        /* \"Documents/GitHub/contract-token-cryptoMonster/backend/components/PhasePrivate.sol\":4146:4194  strucApplications_[msg.sender].reviewed == false */\n      iszero\n      iszero\n        /* \"Documents/GitHub/contract-token-cryptoMonster/backend/components/PhasePrivate.sol\":4146:4164  strucApplications_ */\n      0x02\n        /* \"Documents/GitHub/contract-token-cryptoMonster/backend/components/PhasePrivate.sol\":4146:4176  strucApplications_[msg.sender] */\n      0x00\n        /* \"Documents/GitHub/contract-token-cryptoMonster/backend/components/PhasePrivate.sol\":4165:4175  msg.sender */\n      caller\n        /* \"Documents/GitHub/contract-token-cryptoMonster/backend/components/PhasePrivate.sol\":4146:4176  strucApplications_[msg.sender] */\n      0xffffffffffffffffffffffffffffffffffffffff\n      and\n      0xffffffffffffffffffffffffffffffffffffffff\n      and\n      dup2\n      mstore\n      0x20\n      add\n      swap1\n      dup2\n      mstore\n      0x20\n      add\n      0x00\n      keccak256\n        /* \"Documents/GitHub/contract-token-cryptoMonster/backend/components/PhasePrivate.sol\":4146:4185  strucApplications_[msg.sender].reviewed */\n      0x02\n      add\n      0x15\n      swap1\n      sload\n      swap1\n      0x0100\n      exp\n      swap1\n      div\n      0xff\n      and\n        /* \"Documents/GitHub/contract-token-cryptoMonster/backend/components/PhasePrivate.sol\":4146:4194  strucApplications_[msg.sender].reviewed == false */\n      iszero\n      iszero\n      eq\n        /* \"Documents/GitHub/contract-token-cryptoMonster/backend/components/PhasePrivate.sol\":4138:4227  require(strucApplications_[msg.sender].reviewed == false, \"Review the application first\") */\n      tag_50\n      jumpi\n      mload(0x40)\n      0x08c379a000000000000000000000000000000000000000000000000000000000\n      dup2\n      mstore\n      0x04\n      add\n      tag_51\n      swap1\n      tag_52\n      jump\t// in\n    tag_51:\n      mload(0x40)\n      dup1\n      swap2\n      sub\n      swap1\n      revert\n    tag_50:\n        /* \"Documents/GitHub/contract-token-cryptoMonster/backend/components/PhasePrivate.sol\":4276:4281  false */\n      0x00\n        /* \"Documents/GitHub/contract-token-cryptoMonster/backend/components/PhasePrivate.sol\":4238:4256  strucApplications_ */\n      0x02\n        /* \"Documents/GitHub/contract-token-cryptoMonster/backend/components/PhasePrivate.sol\":4238:4266  strucApplications_[_userAdr] */\n      0x00\n        /* \"Documents/GitHub/contract-token-cryptoMonster/backend/components/PhasePrivate.sol\":4257:4265  _userAdr */\n      dup4\n        /* \"Documents/GitHub/contract-token-cryptoMonster/backend/components/PhasePrivate.sol\":4238:4266  strucApplications_[_userAdr] */\n      0xffffffffffffffffffffffffffffffffffffffff\n      and\n      0xffffffffffffffffffffffffffffffffffffffff\n      and\n      dup2\n      mstore\n      0x20\n      add\n      swap1\n      dup2\n      mstore\n      0x20\n      add\n      0x00\n      keccak256\n        /* \"Documents/GitHub/contract-token-cryptoMonster/backend/components/PhasePrivate.sol\":4238:4273  strucApplications_[_userAdr].status */\n      0x02\n      add\n      0x14\n        /* \"Documents/GitHub/contract-token-cryptoMonster/backend/components/PhasePrivate.sol\":4238:4281  strucApplications_[_userAdr].status = false */\n      0x0100\n      exp\n      dup2\n      sload\n      dup2\n      0xff\n      mul\n      not\n      and\n      swap1\n      dup4\n      iszero\n      iszero\n      mul\n      or\n      swap1\n      sstore\n      pop\n        /* \"Documents/GitHub/contract-token-cryptoMonster/backend/components/PhasePrivate.sol\":4051:4289  function deviationApplication (address _userAdr) public onlyPrivateProvider {\r... */\n      pop\n      jump\t// out\n        /* \"Documents/GitHub/contract-token-cryptoMonster/backend/components/PhasePrivate.sol\":2040:3192  function getApplicationNotReviewed () public onlyPrivateProvider view returns (address[] memory) {\r... */\n    tag_16:\n        /* \"Documents/GitHub/contract-token-cryptoMonster/backend/components/PhasePrivate.sol\":2119:2135  address[] memory */\n      0x60\n        /* \"Documents/GitHub/contract-token-cryptoMonster/backend/shared/helpers/modifireFunc.sol\":566:585  Role.SYSTEM_PRIVATE */\n      0x02\n        /* \"Documents/GitHub/contract-token-cryptoMonster/backend/shared/helpers/modifireFunc.sol\":533:585  structUsers_[msg.sender].role == Role.SYSTEM_PRIVATE */\n      0x04\n      dup2\n      gt\n      iszero\n      tag_54\n      jumpi\n      tag_55\n      tag_43\n      jump\t// in\n    tag_55:\n    tag_54:\n        /* \"Documents/GitHub/contract-token-cryptoMonster/backend/shared/helpers/modifireFunc.sol\":533:545  structUsers_ */\n      0x00\n        /* \"Documents/GitHub/contract-token-cryptoMonster/backend/shared/helpers/modifireFunc.sol\":533:557  structUsers_[msg.sender] */\n      dup1\n        /* \"Documents/GitHub/contract-token-cryptoMonster/backend/shared/helpers/modifireFunc.sol\":546:556  msg.sender */\n      caller\n        /* \"Documents/GitHub/contract-token-cryptoMonster/backend/shared/helpers/modifireFunc.sol\":533:557  structUsers_[msg.sender] */\n      0xffffffffffffffffffffffffffffffffffffffff\n      and\n      0xffffffffffffffffffffffffffffffffffffffff\n      and\n      dup2\n      mstore\n      0x20\n      add\n      swap1\n      dup2\n      mstore\n      0x20\n      add\n      0x00\n      keccak256\n        /* \"Documents/GitHub/contract-token-cryptoMonster/backend/shared/helpers/modifireFunc.sol\":533:562  structUsers_[msg.sender].role */\n      0x00\n      add\n      0x00\n      swap1\n      sload\n      swap1\n      0x0100\n      exp\n      swap1\n      div\n      0xff\n      and\n        /* \"Documents/GitHub/contract-token-cryptoMonster/backend/shared/helpers/modifireFunc.sol\":533:585  structUsers_[msg.sender].role == Role.SYSTEM_PRIVATE */\n      0x04\n      dup2\n      gt\n      iszero\n      tag_56\n      jumpi\n      tag_57\n      tag_43\n      jump\t// in\n    tag_57:\n    tag_56:\n      eq\n        /* \"Documents/GitHub/contract-token-cryptoMonster/backend/shared/helpers/modifireFunc.sol\":525:615  require(structUsers_[msg.sender].role == Role.SYSTEM_PRIVATE, \"Your not Private provider\") */\n      tag_58\n      jumpi\n      mload(0x40)\n      0x08c379a000000000000000000000000000000000000000000000000000000000\n      dup2\n      mstore\n      0x04\n      add\n      tag_59\n      swap1\n      tag_48\n      jump\t// in\n    tag_59:\n      mload(0x40)\n      dup1\n      swap2\n      sub\n      swap1\n      revert\n    tag_58:\n        /* \"Documents/GitHub/contract-token-cryptoMonster/backend/components/PhasePrivate.sol\":2148:2179  address[] memory _tempAdrAmount */\n      0x60\n        /* \"Documents/GitHub/contract-token-cryptoMonster/backend/components/PhasePrivate.sol\":2196:2202  uint i */\n      0x00\n        /* \"Documents/GitHub/contract-token-cryptoMonster/backend/components/PhasePrivate.sol\":2191:3029  for (uint i = 0; i < structApplicationsAmountAdr.length; i++) {\r... */\n    tag_61:\n        /* \"Documents/GitHub/contract-token-cryptoMonster/backend/components/PhasePrivate.sol\":2212:2239  structApplicationsAmountAdr */\n      0x03\n        /* \"Documents/GitHub/contract-token-cryptoMonster/backend/components/PhasePrivate.sol\":2212:2246  structApplicationsAmountAdr.length */\n      dup1\n      sload\n      swap1\n      pop\n        /* \"Documents/GitHub/contract-token-cryptoMonster/backend/components/PhasePrivate.sol\":2208:2209  i */\n      dup2\n        /* \"Documents/GitHub/contract-token-cryptoMonster/backend/components/PhasePrivate.sol\":2208:2246  i < structApplicationsAmountAdr.length */\n      lt\n        /* \"Documents/GitHub/contract-token-cryptoMonster/backend/components/PhasePrivate.sol\":2191:3029  for (uint i = 0; i < structApplicationsAmountAdr.length; i++) {\r... */\n      iszero\n      tag_62\n      jumpi\n        /* \"Documents/GitHub/contract-token-cryptoMonster/backend/components/PhasePrivate.sol\":2268:2278  uint count */\n      0x00\n        /* \"Documents/GitHub/contract-token-cryptoMonster/backend/components/PhasePrivate.sol\":2390:2406  address _tempAdr */\n      dup1\n        /* \"Documents/GitHub/contract-token-cryptoMonster/backend/components/PhasePrivate.sol\":2409:2436  structApplicationsAmountAdr */\n      0x03\n        /* \"Documents/GitHub/contract-token-cryptoMonster/backend/components/PhasePrivate.sol\":2437:2438  i */\n      dup4\n        /* \"Documents/GitHub/contract-token-cryptoMonster/backend/components/PhasePrivate.sol\":2409:2439  structApplicationsAmountAdr[i] */\n      dup2\n      sload\n      dup2\n      lt\n      tag_64\n      jumpi\n      tag_65\n      tag_66\n      jump\t// in\n    tag_65:\n    tag_64:\n      swap1\n      0x00\n      mstore\n      keccak256(0x00, 0x20)\n      add\n      0x00\n      swap1\n      sload\n      swap1\n      0x0100\n      exp\n      swap1\n      div\n      0xffffffffffffffffffffffffffffffffffffffff\n      and\n        /* \"Documents/GitHub/contract-token-cryptoMonster/backend/components/PhasePrivate.sol\":2390:2439  address _tempAdr = structApplicationsAmountAdr[i] */\n      swap1\n      pop\n        /* \"Documents/GitHub/contract-token-cryptoMonster/backend/components/PhasePrivate.sol\":2598:2603  false */\n      0x00\n        /* \"Documents/GitHub/contract-token-cryptoMonster/backend/components/PhasePrivate.sol\":2557:2603  strucApplications_[_tempAdr].reviewed == false */\n      iszero\n      iszero\n        /* \"Documents/GitHub/contract-token-cryptoMonster/backend/components/PhasePrivate.sol\":2557:2575  strucApplications_ */\n      0x02\n        /* \"Documents/GitHub/contract-token-cryptoMonster/backend/components/PhasePrivate.sol\":2557:2585  strucApplications_[_tempAdr] */\n      0x00\n        /* \"Documents/GitHub/contract-token-cryptoMonster/backend/components/PhasePrivate.sol\":2576:2584  _tempAdr */\n      dup4\n        /* \"Documents/GitHub/contract-token-cryptoMonster/backend/components/PhasePrivate.sol\":2557:2585  strucApplications_[_tempAdr] */\n      0xffffffffffffffffffffffffffffffffffffffff\n      and\n      0xffffffffffffffffffffffffffffffffffffffff\n      and\n      dup2\n      mstore\n      0x20\n      add\n      swap1\n      dup2\n      mstore\n      0x20\n      add\n      0x00\n      keccak256\n        /* \"Documents/GitHub/contract-token-cryptoMonster/backend/components/PhasePrivate.sol\":2557:2594  strucApplications_[_tempAdr].reviewed */\n      0x02\n      add\n      0x15\n      swap1\n      sload\n      swap1\n      0x0100\n      exp\n      swap1\n      div\n      0xff\n      and\n        /* \"Documents/GitHub/contract-token-cryptoMonster/backend/components/PhasePrivate.sol\":2557:2603  strucApplications_[_tempAdr].reviewed == false */\n      iszero\n      iszero\n      eq\n        /* \"Documents/GitHub/contract-token-cryptoMonster/backend/components/PhasePrivate.sol\":2553:3018  if (strucApplications_[_tempAdr].reviewed == false) { // !: проверка того, что заявка ещё не была рассмотрена\r... */\n      iszero\n      tag_68\n      jumpi\n        /* \"Documents/GitHub/contract-token-cryptoMonster/backend/components/PhasePrivate.sol\":2745:2753  _tempAdr */\n      dup1\n        /* \"Documents/GitHub/contract-token-cryptoMonster/backend/components/PhasePrivate.sol\":2721:2735  _tempAdrAmount */\n      dup5\n        /* \"Documents/GitHub/contract-token-cryptoMonster/backend/components/PhasePrivate.sol\":2736:2741  count */\n      dup4\n        /* \"Documents/GitHub/contract-token-cryptoMonster/backend/components/PhasePrivate.sol\":2721:2742  _tempAdrAmount[count] */\n      dup2\n      mload\n      dup2\n      lt\n      tag_69\n      jumpi\n      tag_70\n      tag_66\n      jump\t// in\n    tag_70:\n    tag_69:\n      0x20\n      mul\n      0x20\n      add\n      add\n        /* \"Documents/GitHub/contract-token-cryptoMonster/backend/components/PhasePrivate.sol\":2721:2753  _tempAdrAmount[count] = _tempAdr */\n      swap1\n      0xffffffffffffffffffffffffffffffffffffffff\n      and\n      swap1\n      dup2\n      0xffffffffffffffffffffffffffffffffffffffff\n      and\n      dup2\n      mstore\n      pop\n      pop\n        /* \"Documents/GitHub/contract-token-cryptoMonster/backend/components/PhasePrivate.sol\":2887:2894  count++ */\n      dup2\n      dup1\n      tag_71\n      swap1\n      tag_72\n      jump\t// in\n    tag_71:\n      swap3\n      pop\n      pop\n        /* \"Documents/GitHub/contract-token-cryptoMonster/backend/components/PhasePrivate.sol\":2553:3018  if (strucApplications_[_tempAdr].reviewed == false) { // !: проверка того, что заявка ещё не была рассмотрена\r... */\n    tag_68:\n        /* \"Documents/GitHub/contract-token-cryptoMonster/backend/components/PhasePrivate.sol\":2253:3029  {\r... */\n      pop\n      pop\n        /* \"Documents/GitHub/contract-token-cryptoMonster/backend/components/PhasePrivate.sol\":2248:2251  i++ */\n      dup1\n      dup1\n      tag_73\n      swap1\n      tag_72\n      jump\t// in\n    tag_73:\n      swap2\n      pop\n      pop\n        /* \"Documents/GitHub/contract-token-cryptoMonster/backend/components/PhasePrivate.sol\":2191:3029  for (uint i = 0; i < structApplicationsAmountAdr.length; i++) {\r... */\n      jump(tag_61)\n    tag_62:\n      pop\n        /* \"Documents/GitHub/contract-token-cryptoMonster/backend/components/PhasePrivate.sol\":3046:3060  _tempAdrAmount */\n      dup1\n        /* \"Documents/GitHub/contract-token-cryptoMonster/backend/components/PhasePrivate.sol\":3039:3060  return _tempAdrAmount */\n      swap2\n      pop\n      pop\n        /* \"Documents/GitHub/contract-token-cryptoMonster/backend/components/PhasePrivate.sol\":2040:3192  function getApplicationNotReviewed () public onlyPrivateProvider view returns (address[] memory) {\r... */\n      swap1\n      jump\t// out\n        /* \"Documents/GitHub/contract-token-cryptoMonster/backend/components/PhasePrivate.sol\":1650:1895  function getApplicationAmountAdr () public onlyPrivateProvider view returns (address[] memory) {\r... */\n    tag_20:\n        /* \"Documents/GitHub/contract-token-cryptoMonster/backend/components/PhasePrivate.sol\":1727:1743  address[] memory */\n      0x60\n        /* \"Documents/GitHub/contract-token-cryptoMonster/backend/shared/helpers/modifireFunc.sol\":566:585  Role.SYSTEM_PRIVATE */\n      0x02\n        /* \"Documents/GitHub/contract-token-cryptoMonster/backend/shared/helpers/modifireFunc.sol\":533:585  structUsers_[msg.sender].role == Role.SYSTEM_PRIVATE */\n      0x04\n      dup2\n      gt\n      iszero\n      tag_75\n      jumpi\n      tag_76\n      tag_43\n      jump\t// in\n    tag_76:\n    tag_75:\n        /* \"Documents/GitHub/contract-token-cryptoMonster/backend/shared/helpers/modifireFunc.sol\":533:545  structUsers_ */\n      0x00\n        /* \"Documents/GitHub/contract-token-cryptoMonster/backend/shared/helpers/modifireFunc.sol\":533:557  structUsers_[msg.sender] */\n      dup1\n        /* \"Documents/GitHub/contract-token-cryptoMonster/backend/shared/helpers/modifireFunc.sol\":546:556  msg.sender */\n      caller\n        /* \"Documents/GitHub/contract-token-cryptoMonster/backend/shared/helpers/modifireFunc.sol\":533:557  structUsers_[msg.sender] */\n      0xffffffffffffffffffffffffffffffffffffffff\n      and\n      0xffffffffffffffffffffffffffffffffffffffff\n      and\n      dup2\n      mstore\n      0x20\n      add\n      swap1\n      dup2\n      mstore\n      0x20\n      add\n      0x00\n      keccak256\n        /* \"Documents/GitHub/contract-token-cryptoMonster/backend/shared/helpers/modifireFunc.sol\":533:562  structUsers_[msg.sender].role */\n      0x00\n      add\n      0x00\n      swap1\n      sload\n      swap1\n      0x0100\n      exp\n      swap1\n      div\n      0xff\n      and\n        /* \"Documents/GitHub/contract-token-cryptoMonster/backend/shared/helpers/modifireFunc.sol\":533:585  structUsers_[msg.sender].role == Role.SYSTEM_PRIVATE */\n      0x04\n      dup2\n      gt\n      iszero\n      tag_77\n      jumpi\n      tag_78\n      tag_43\n      jump\t// in\n    tag_78:\n    tag_77:\n      eq\n        /* \"Documents/GitHub/contract-token-cryptoMonster/backend/shared/helpers/modifireFunc.sol\":525:615  require(structUsers_[msg.sender].role == Role.SYSTEM_PRIVATE, \"Your not Private provider\") */\n      tag_79\n      jumpi\n      mload(0x40)\n      0x08c379a000000000000000000000000000000000000000000000000000000000\n      dup2\n      mstore\n      0x04\n      add\n      tag_80\n      swap1\n      tag_48\n      jump\t// in\n    tag_80:\n      mload(0x40)\n      dup1\n      swap2\n      sub\n      swap1\n      revert\n    tag_79:\n        /* \"Documents/GitHub/contract-token-cryptoMonster/backend/components/PhasePrivate.sol\":1763:1790  structApplicationsAmountAdr */\n      0x03\n        /* \"Documents/GitHub/contract-token-cryptoMonster/backend/components/PhasePrivate.sol\":1756:1790  return structApplicationsAmountAdr */\n      dup1\n      sload\n      dup1\n      0x20\n      mul\n      0x20\n      add\n      mload(0x40)\n      swap1\n      dup2\n      add\n      0x40\n      mstore\n      dup1\n      swap3\n      swap2\n      swap1\n      dup2\n      dup2\n      mstore\n      0x20\n      add\n      dup3\n      dup1\n      sload\n      dup1\n      iszero\n      tag_82\n      jumpi\n      0x20\n      mul\n      dup3\n      add\n      swap2\n      swap1\n      0x00\n      mstore\n      keccak256(0x00, 0x20)\n      swap1\n    tag_83:\n      dup2\n      0x00\n      swap1\n      sload\n      swap1\n      0x0100\n      exp\n      swap1\n      div\n      0xffffffffffffffffffffffffffffffffffffffff\n      and\n      0xffffffffffffffffffffffffffffffffffffffff\n      and\n      dup2\n      mstore\n      0x20\n      add\n      swap1\n      0x01\n      add\n      swap1\n      dup1\n      dup4\n      gt\n      tag_83\n      jumpi\n    tag_82:\n      pop\n      pop\n      pop\n      pop\n      pop\n      swap1\n      pop\n        /* \"Documents/GitHub/contract-token-cryptoMonster/backend/components/PhasePrivate.sol\":1650:1895  function getApplicationAmountAdr () public onlyPrivateProvider view returns (address[] memory) {\r... */\n      swap1\n      jump\t// out\n        /* \"Documents/GitHub/contract-token-cryptoMonster/backend/components/PhasePrivate.sol\":3313:3656  function viewApplication (address _userAdr) public onlyPrivateProvider returns (structApplication memory) {\r... */\n    tag_24:\n        /* \"Documents/GitHub/contract-token-cryptoMonster/backend/components/PhasePrivate.sol\":3393:3417  structApplication memory */\n      tag_84\n      tag_85\n      jump\t// in\n    tag_84:\n        /* \"Documents/GitHub/contract-token-cryptoMonster/backend/shared/helpers/modifireFunc.sol\":566:585  Role.SYSTEM_PRIVATE */\n      0x02\n        /* \"Documents/GitHub/contract-token-cryptoMonster/backend/shared/helpers/modifireFunc.sol\":533:585  structUsers_[msg.sender].role == Role.SYSTEM_PRIVATE */\n      0x04\n      dup2\n      gt\n      iszero\n      tag_87\n      jumpi\n      tag_88\n      tag_43\n      jump\t// in\n    tag_88:\n    tag_87:\n        /* \"Documents/GitHub/contract-token-cryptoMonster/backend/shared/helpers/modifireFunc.sol\":533:545  structUsers_ */\n      0x00\n        /* \"Documents/GitHub/contract-token-cryptoMonster/backend/shared/helpers/modifireFunc.sol\":533:557  structUsers_[msg.sender] */\n      dup1\n        /* \"Documents/GitHub/contract-token-cryptoMonster/backend/shared/helpers/modifireFunc.sol\":546:556  msg.sender */\n      caller\n        /* \"Documents/GitHub/contract-token-cryptoMonster/backend/shared/helpers/modifireFunc.sol\":533:557  structUsers_[msg.sender] */\n      0xffffffffffffffffffffffffffffffffffffffff\n      and\n      0xffffffffffffffffffffffffffffffffffffffff\n      and\n      dup2\n      mstore\n      0x20\n      add\n      swap1\n      dup2\n      mstore\n      0x20\n      add\n      0x00\n      keccak256\n        /* \"Documents/GitHub/contract-token-cryptoMonster/backend/shared/helpers/modifireFunc.sol\":533:562  structUsers_[msg.sender].role */\n      0x00\n      add\n      0x00\n      swap1\n      sload\n      swap1\n      0x0100\n      exp\n      swap1\n      div\n      0xff\n      and\n        /* \"Documents/GitHub/contract-token-cryptoMonster/backend/shared/helpers/modifireFunc.sol\":533:585  structUsers_[msg.sender].role == Role.SYSTEM_PRIVATE */\n      0x04\n      dup2\n      gt\n      iszero\n      tag_89\n      jumpi\n      tag_90\n      tag_43\n      jump\t// in\n    tag_90:\n    tag_89:\n      eq\n        /* \"Documents/GitHub/contract-token-cryptoMonster/backend/shared/helpers/modifireFunc.sol\":525:615  require(structUsers_[msg.sender].role == Role.SYSTEM_PRIVATE, \"Your not Private provider\") */\n      tag_91\n      jumpi\n      mload(0x40)\n      0x08c379a000000000000000000000000000000000000000000000000000000000\n      dup2\n      mstore\n      0x04\n      add\n      tag_92\n      swap1\n      tag_48\n      jump\t// in\n    tag_92:\n      mload(0x40)\n      dup1\n      swap2\n      sub\n      swap1\n      revert\n    tag_91:\n        /* \"Documents/GitHub/contract-token-cryptoMonster/backend/components/PhasePrivate.sol\":3470:3474  true */\n      0x01\n        /* \"Documents/GitHub/contract-token-cryptoMonster/backend/components/PhasePrivate.sol\":3430:3448  strucApplications_ */\n      0x02\n        /* \"Documents/GitHub/contract-token-cryptoMonster/backend/components/PhasePrivate.sol\":3430:3458  strucApplications_[_userAdr] */\n      0x00\n        /* \"Documents/GitHub/contract-token-cryptoMonster/backend/components/PhasePrivate.sol\":3449:3457  _userAdr */\n      dup5\n        /* \"Documents/GitHub/contract-token-cryptoMonster/backend/components/PhasePrivate.sol\":3430:3458  strucApplications_[_userAdr] */\n      0xffffffffffffffffffffffffffffffffffffffff\n      and\n      0xffffffffffffffffffffffffffffffffffffffff\n      and\n      dup2\n      mstore\n      0x20\n      add\n      swap1\n      dup2\n      mstore\n      0x20\n      add\n      0x00\n      keccak256\n        /* \"Documents/GitHub/contract-token-cryptoMonster/backend/components/PhasePrivate.sol\":3430:3467  strucApplications_[_userAdr].reviewed */\n      0x02\n      add\n      0x15\n        /* \"Documents/GitHub/contract-token-cryptoMonster/backend/components/PhasePrivate.sol\":3430:3474  strucApplications_[_userAdr].reviewed = true */\n      0x0100\n      exp\n      dup2\n      sload\n      dup2\n      0xff\n      mul\n      not\n      and\n      swap1\n      dup4\n      iszero\n      iszero\n      mul\n      or\n      swap1\n      sstore\n      pop\n        /* \"Documents/GitHub/contract-token-cryptoMonster/backend/components/PhasePrivate.sol\":3620:3638  strucApplications_ */\n      0x02\n        /* \"Documents/GitHub/contract-token-cryptoMonster/backend/components/PhasePrivate.sol\":3620:3648  strucApplications_[_userAdr] */\n      0x00\n        /* \"Documents/GitHub/contract-token-cryptoMonster/backend/components/PhasePrivate.sol\":3639:3647  _userAdr */\n      dup4\n        /* \"Documents/GitHub/contract-token-cryptoMonster/backend/components/PhasePrivate.sol\":3620:3648  strucApplications_[_userAdr] */\n      0xffffffffffffffffffffffffffffffffffffffff\n      and\n      0xffffffffffffffffffffffffffffffffffffffff\n      and\n      dup2\n      mstore\n      0x20\n      add\n      swap1\n      dup2\n      mstore\n      0x20\n      add\n      0x00\n      keccak256\n        /* \"Documents/GitHub/contract-token-cryptoMonster/backend/components/PhasePrivate.sol\":3613:3648  return strucApplications_[_userAdr] */\n      mload(0x40)\n      dup1\n      0xc0\n      add\n      0x40\n      mstore\n      swap1\n      dup2\n      0x00\n      dup3\n      add\n      dup1\n      sload\n      tag_94\n      swap1\n      tag_95\n      jump\t// in\n    tag_94:\n      dup1\n      0x1f\n      add\n      0x20\n      dup1\n      swap2\n      div\n      mul\n      0x20\n      add\n      mload(0x40)\n      swap1\n      dup2\n      add\n      0x40\n      mstore\n      dup1\n      swap3\n      swap2\n      swap1\n      dup2\n      dup2\n      mstore\n      0x20\n      add\n      dup3\n      dup1\n      sload\n      tag_96\n      swap1\n      tag_95\n      jump\t// in\n    tag_96:\n      dup1\n      iszero\n      tag_97\n      jumpi\n      dup1\n      0x1f\n      lt\n      tag_98\n      jumpi\n      0x0100\n      dup1\n      dup4\n      sload\n      div\n      mul\n      dup4\n      mstore\n      swap2\n      0x20\n      add\n      swap2\n      jump(tag_97)\n    tag_98:\n      dup3\n      add\n      swap2\n      swap1\n      0x00\n      mstore\n      keccak256(0x00, 0x20)\n      swap1\n    tag_99:\n      dup2\n      sload\n      dup2\n      mstore\n      swap1\n      0x01\n      add\n      swap1\n      0x20\n      add\n      dup1\n      dup4\n      gt\n      tag_99\n      jumpi\n      dup3\n      swap1\n      sub\n      0x1f\n      and\n      dup3\n      add\n      swap2\n    tag_97:\n      pop\n      pop\n      pop\n      pop\n      pop\n      dup2\n      mstore\n      0x20\n      add\n      0x01\n      dup3\n      add\n      dup1\n      sload\n      tag_100\n      swap1\n      tag_95\n      jump\t// in\n    tag_100:\n      dup1\n      0x1f\n      add\n      0x20\n      dup1\n      swap2\n      div\n      mul\n      0x20\n      add\n      mload(0x40)\n      swap1\n      dup2\n      add\n      0x40\n      mstore\n      dup1\n      swap3\n      swap2\n      swap1\n      dup2\n      dup2\n      mstore\n      0x20\n      add\n      dup3\n      dup1\n      sload\n      tag_101\n      swap1\n      tag_95\n      jump\t// in\n    tag_101:\n      dup1\n      iszero\n      tag_102\n      jumpi\n      dup1\n      0x1f\n      lt\n      tag_103\n      jumpi\n      0x0100\n      dup1\n      dup4\n      sload\n      div\n      mul\n      dup4\n      mstore\n      swap2\n      0x20\n      add\n      swap2\n      jump(tag_102)\n    tag_103:\n      dup3\n      add\n      swap2\n      swap1\n      0x00\n      mstore\n      keccak256(0x00, 0x20)\n      swap1\n    tag_104:\n      dup2\n      sload\n      dup2\n      mstore\n      swap1\n      0x01\n      add\n      swap1\n      0x20\n      add\n      dup1\n      dup4\n      gt\n      tag_104\n      jumpi\n      dup3\n      swap1\n      sub\n      0x1f\n      and\n      dup3\n      add\n      swap2\n    tag_102:\n      pop\n      pop\n      pop\n      pop\n      pop\n      dup2\n      mstore\n      0x20\n      add\n      0x02\n      dup3\n      add\n      0x00\n      swap1\n      sload\n      swap1\n      0x0100\n      exp\n      swap1\n      div\n      0xffffffffffffffffffffffffffffffffffffffff\n      and\n      0xffffffffffffffffffffffffffffffffffffffff\n      and\n      0xffffffffffffffffffffffffffffffffffffffff\n      and\n      dup2\n      mstore\n      0x20\n      add\n      0x02\n      dup3\n      add\n      0x14\n      swap1\n      sload\n      swap1\n      0x0100\n      exp\n      swap1\n      div\n      0xff\n      and\n      iszero\n      iszero\n      iszero\n      iszero\n      dup2\n      mstore\n      0x20\n      add\n      0x02\n      dup3\n      add\n      0x15\n      swap1\n      sload\n      swap1\n      0x0100\n      exp\n      swap1\n      div\n      0xff\n      and\n      iszero\n      iszero\n      iszero\n      iszero\n      dup2\n      mstore\n      0x20\n      add\n      0x02\n      dup3\n      add\n      0x16\n      swap1\n      sload\n      swap1\n      0x0100\n      exp\n      swap1\n      div\n      0xff\n      and\n      iszero\n      iszero\n      iszero\n      iszero\n      dup2\n      mstore\n      pop\n      pop\n      swap1\n      pop\n        /* \"Documents/GitHub/contract-token-cryptoMonster/backend/components/PhasePrivate.sol\":3313:3656  function viewApplication (address _userAdr) public onlyPrivateProvider returns (structApplication memory) {\r... */\n      swap2\n      swap1\n      pop\n      jump\t// out\n        /* \"Documents/GitHub/contract-token-cryptoMonster/backend/components/PhasePrivate.sol\":295:1536  function application(string memory _name, string memory _contactForCommunication, address _userAdr) public {\r... */\n    tag_30:\n        /* \"Documents/GitHub/contract-token-cryptoMonster/backend/components/PhasePrivate.sol\":494:499  false */\n      0x00\n        /* \"Documents/GitHub/contract-token-cryptoMonster/backend/components/PhasePrivate.sol\":421:499  structPhases_[0xAb8483F64d9C6d1EcF9b849Ae677dD3315835cb2].statusPhase == false */\n      iszero\n      iszero\n        /* \"Documents/GitHub/contract-token-cryptoMonster/backend/components/PhasePrivate.sol\":421:434  structPhases_ */\n      0x01\n        /* \"Documents/GitHub/contract-token-cryptoMonster/backend/components/PhasePrivate.sol\":421:478  structPhases_[0xAb8483F64d9C6d1EcF9b849Ae677dD3315835cb2] */\n      0x00\n        /* \"Documents/GitHub/contract-token-cryptoMonster/backend/components/PhasePrivate.sol\":435:477  0xAb8483F64d9C6d1EcF9b849Ae677dD3315835cb2 */\n      0xab8483f64d9c6d1ecf9b849ae677dd3315835cb2\n        /* \"Documents/GitHub/contract-token-cryptoMonster/backend/components/PhasePrivate.sol\":421:478  structPhases_[0xAb8483F64d9C6d1EcF9b849Ae677dD3315835cb2] */\n      0xffffffffffffffffffffffffffffffffffffffff\n      and\n      0xffffffffffffffffffffffffffffffffffffffff\n      and\n      dup2\n      mstore\n      0x20\n      add\n      swap1\n      dup2\n      mstore\n      0x20\n      add\n      0x00\n      keccak256\n        /* \"Documents/GitHub/contract-token-cryptoMonster/backend/components/PhasePrivate.sol\":421:490  structPhases_[0xAb8483F64d9C6d1EcF9b849Ae677dD3315835cb2].statusPhase */\n      0x00\n      add\n      0x00\n      swap1\n      sload\n      swap1\n      0x0100\n      exp\n      swap1\n      div\n      0xff\n      and\n        /* \"Documents/GitHub/contract-token-cryptoMonster/backend/components/PhasePrivate.sol\":421:499  structPhases_[0xAb8483F64d9C6d1EcF9b849Ae677dD3315835cb2].statusPhase == false */\n      iszero\n      iszero\n      eq\n        /* \"Documents/GitHub/contract-token-cryptoMonster/backend/components/PhasePrivate.sol\":421:581  structPhases_[0xAb8483F64d9C6d1EcF9b849Ae677dD3315835cb2].statusPhase == false && structPhases_[0xAb8483F64d9C6d1EcF9b849Ae677dD3315835cb2].statusPhase == false */\n      dup1\n      iszero\n      tag_106\n      jumpi\n      pop\n        /* \"Documents/GitHub/contract-token-cryptoMonster/backend/components/PhasePrivate.sol\":576:581  false */\n      0x00\n        /* \"Documents/GitHub/contract-token-cryptoMonster/backend/components/PhasePrivate.sol\":503:581  structPhases_[0xAb8483F64d9C6d1EcF9b849Ae677dD3315835cb2].statusPhase == false */\n      iszero\n      iszero\n        /* \"Documents/GitHub/contract-token-cryptoMonster/backend/components/PhasePrivate.sol\":503:516  structPhases_ */\n      0x01\n        /* \"Documents/GitHub/contract-token-cryptoMonster/backend/components/PhasePrivate.sol\":503:560  structPhases_[0xAb8483F64d9C6d1EcF9b849Ae677dD3315835cb2] */\n      0x00\n        /* \"Documents/GitHub/contract-token-cryptoMonster/backend/components/PhasePrivate.sol\":517:559  0xAb8483F64d9C6d1EcF9b849Ae677dD3315835cb2 */\n      0xab8483f64d9c6d1ecf9b849ae677dd3315835cb2\n        /* \"Documents/GitHub/contract-token-cryptoMonster/backend/components/PhasePrivate.sol\":503:560  structPhases_[0xAb8483F64d9C6d1EcF9b849Ae677dD3315835cb2] */\n      0xffffffffffffffffffffffffffffffffffffffff\n      and\n      0xffffffffffffffffffffffffffffffffffffffff\n      and\n      dup2\n      mstore\n      0x20\n      add\n      swap1\n      dup2\n      mstore\n      0x20\n      add\n      0x00\n      keccak256\n        /* \"Documents/GitHub/contract-token-cryptoMonster/backend/components/PhasePrivate.sol\":503:572  structPhases_[0xAb8483F64d9C6d1EcF9b849Ae677dD3315835cb2].statusPhase */\n      0x00\n      add\n      0x00\n      swap1\n      sload\n      swap1\n      0x0100\n      exp\n      swap1\n      div\n      0xff\n      and\n        /* \"Documents/GitHub/contract-token-cryptoMonster/backend/components/PhasePrivate.sol\":503:581  structPhases_[0xAb8483F64d9C6d1EcF9b849Ae677dD3315835cb2].statusPhase == false */\n      iszero\n      iszero\n      eq\n        /* \"Documents/GitHub/contract-token-cryptoMonster/backend/components/PhasePrivate.sol\":421:581  structPhases_[0xAb8483F64d9C6d1EcF9b849Ae677dD3315835cb2].statusPhase == false && structPhases_[0xAb8483F64d9C6d1EcF9b849Ae677dD3315835cb2].statusPhase == false */\n    tag_106:\n        /* \"Documents/GitHub/contract-token-cryptoMonster/backend/components/PhasePrivate.sol\":413:609  require(structPhases_[0xAb8483F64d9C6d1EcF9b849Ae677dD3315835cb2].statusPhase == false && structPhases_[0xAb8483F64d9C6d1EcF9b849Ae677dD3315835cb2].statusPhase == false, \"Application phase ended\") */\n      tag_107\n      jumpi\n      mload(0x40)\n      0x08c379a000000000000000000000000000000000000000000000000000000000\n      dup2\n      mstore\n      0x04\n      add\n      tag_108\n      swap1\n      tag_109\n      jump\t// in\n    tag_108:\n      mload(0x40)\n      dup1\n      swap2\n      sub\n      swap1\n      revert\n    tag_107:\n        /* \"Documents/GitHub/contract-token-cryptoMonster/backend/components/PhasePrivate.sol\":773:777  true */\n      0x01\n        /* \"Documents/GitHub/contract-token-cryptoMonster/backend/components/PhasePrivate.sol\":733:777  strucApplications_[msg.sender].exist == true */\n      iszero\n      iszero\n        /* \"Documents/GitHub/contract-token-cryptoMonster/backend/components/PhasePrivate.sol\":733:751  strucApplications_ */\n      0x02\n        /* \"Documents/GitHub/contract-token-cryptoMonster/backend/components/PhasePrivate.sol\":733:763  strucApplications_[msg.sender] */\n      0x00\n        /* \"Documents/GitHub/contract-token-cryptoMonster/backend/components/PhasePrivate.sol\":752:762  msg.sender */\n      caller\n        /* \"Documents/GitHub/contract-token-cryptoMonster/backend/components/PhasePrivate.sol\":733:763  strucApplications_[msg.sender] */\n      0xffffffffffffffffffffffffffffffffffffffff\n      and\n      0xffffffffffffffffffffffffffffffffffffffff\n      and\n      dup2\n      mstore\n      0x20\n      add\n      swap1\n      dup2\n      mstore\n      0x20\n      add\n      0x00\n      keccak256\n        /* \"Documents/GitHub/contract-token-cryptoMonster/backend/components/PhasePrivate.sol\":733:769  strucApplications_[msg.sender].exist */\n      0x02\n      add\n      0x16\n      swap1\n      sload\n      swap1\n      0x0100\n      exp\n      swap1\n      div\n      0xff\n      and\n        /* \"Documents/GitHub/contract-token-cryptoMonster/backend/components/PhasePrivate.sol\":733:777  strucApplications_[msg.sender].exist == true */\n      iszero\n      iszero\n      eq\n        /* \"Documents/GitHub/contract-token-cryptoMonster/backend/components/PhasePrivate.sol\":725:806  require(strucApplications_[msg.sender].exist == true, \"Application already sent\") */\n      tag_110\n      jumpi\n      mload(0x40)\n      0x08c379a000000000000000000000000000000000000000000000000000000000\n      dup2\n      mstore\n      0x04\n      add\n      tag_111\n      swap1\n      tag_112\n      jump\t// in\n    tag_111:\n      mload(0x40)\n      dup1\n      swap2\n      sub\n      swap1\n      revert\n    tag_110:\n        /* \"Documents/GitHub/contract-token-cryptoMonster/backend/components/PhasePrivate.sol\":966:971  false */\n      0x00\n        /* \"Documents/GitHub/contract-token-cryptoMonster/backend/components/PhasePrivate.sol\":925:971  strucApplications_[msg.sender].status == false */\n      iszero\n      iszero\n        /* \"Documents/GitHub/contract-token-cryptoMonster/backend/components/PhasePrivate.sol\":925:943  strucApplications_ */\n      0x02\n        /* \"Documents/GitHub/contract-token-cryptoMonster/backend/components/PhasePrivate.sol\":925:955  strucApplications_[msg.sender] */\n      0x00\n        /* \"Documents/GitHub/contract-token-cryptoMonster/backend/components/PhasePrivate.sol\":944:954  msg.sender */\n      caller\n        /* \"Documents/GitHub/contract-token-cryptoMonster/backend/components/PhasePrivate.sol\":925:955  strucApplications_[msg.sender] */\n      0xffffffffffffffffffffffffffffffffffffffff\n      and\n      0xffffffffffffffffffffffffffffffffffffffff\n      and\n      dup2\n      mstore\n      0x20\n      add\n      swap1\n      dup2\n      mstore\n      0x20\n      add\n      0x00\n      keccak256\n        /* \"Documents/GitHub/contract-token-cryptoMonster/backend/components/PhasePrivate.sol\":925:962  strucApplications_[msg.sender].status */\n      0x02\n      add\n      0x14\n      swap1\n      sload\n      swap1\n      0x0100\n      exp\n      swap1\n      div\n      0xff\n      and\n        /* \"Documents/GitHub/contract-token-cryptoMonster/backend/components/PhasePrivate.sol\":925:971  strucApplications_[msg.sender].status == false */\n      iszero\n      iszero\n      eq\n        /* \"Documents/GitHub/contract-token-cryptoMonster/backend/components/PhasePrivate.sol\":917:1018  require(strucApplications_[msg.sender].status == false, \"Your application has already been rejected\") */\n      tag_113\n      jumpi\n      mload(0x40)\n      0x08c379a000000000000000000000000000000000000000000000000000000000\n      dup2\n      mstore\n      0x04\n      add\n      tag_114\n      swap1\n      tag_115\n      jump\t// in\n    tag_114:\n      mload(0x40)\n      dup1\n      swap2\n      sub\n      swap1\n      revert\n    tag_113:\n        /* \"Documents/GitHub/contract-token-cryptoMonster/backend/components/PhasePrivate.sol\":1135:1214  structApplication(_name, _contactForCommunication, _userAdr, true, false, true) */\n      mload(0x40)\n      dup1\n      0xc0\n      add\n      0x40\n      mstore\n      dup1\n        /* \"Documents/GitHub/contract-token-cryptoMonster/backend/components/PhasePrivate.sol\":1153:1158  _name */\n      dup5\n        /* \"Documents/GitHub/contract-token-cryptoMonster/backend/components/PhasePrivate.sol\":1135:1214  structApplication(_name, _contactForCommunication, _userAdr, true, false, true) */\n      dup2\n      mstore\n      0x20\n      add\n        /* \"Documents/GitHub/contract-token-cryptoMonster/backend/components/PhasePrivate.sol\":1160:1184  _contactForCommunication */\n      dup4\n        /* \"Documents/GitHub/contract-token-cryptoMonster/backend/components/PhasePrivate.sol\":1135:1214  structApplication(_name, _contactForCommunication, _userAdr, true, false, true) */\n      dup2\n      mstore\n      0x20\n      add\n        /* \"Documents/GitHub/contract-token-cryptoMonster/backend/components/PhasePrivate.sol\":1186:1194  _userAdr */\n      dup3\n        /* \"Documents/GitHub/contract-token-cryptoMonster/backend/components/PhasePrivate.sol\":1135:1214  structApplication(_name, _contactForCommunication, _userAdr, true, false, true) */\n      0xffffffffffffffffffffffffffffffffffffffff\n      and\n      dup2\n      mstore\n      0x20\n      add\n        /* \"Documents/GitHub/contract-token-cryptoMonster/backend/components/PhasePrivate.sol\":1196:1200  true */\n      0x01\n        /* \"Documents/GitHub/contract-token-cryptoMonster/backend/components/PhasePrivate.sol\":1135:1214  structApplication(_name, _contactForCommunication, _userAdr, true, false, true) */\n      iszero\n      iszero\n      dup2\n      mstore\n      0x20\n      add\n        /* \"Documents/GitHub/contract-token-cryptoMonster/backend/components/PhasePrivate.sol\":1202:1207  false */\n      0x00\n        /* \"Documents/GitHub/contract-token-cryptoMonster/backend/components/PhasePrivate.sol\":1135:1214  structApplication(_name, _contactForCommunication, _userAdr, true, false, true) */\n      iszero\n      iszero\n      dup2\n      mstore\n      0x20\n      add\n        /* \"Documents/GitHub/contract-token-cryptoMonster/backend/components/PhasePrivate.sol\":1209:1213  true */\n      0x01\n        /* \"Documents/GitHub/contract-token-cryptoMonster/backend/components/PhasePrivate.sol\":1135:1214  structApplication(_name, _contactForCommunication, _userAdr, true, false, true) */\n      iszero\n      iszero\n      dup2\n      mstore\n      pop\n        /* \"Documents/GitHub/contract-token-cryptoMonster/backend/components/PhasePrivate.sol\":1101:1119  strucApplications_ */\n      0x02\n        /* \"Documents/GitHub/contract-token-cryptoMonster/backend/components/PhasePrivate.sol\":1101:1131  strucApplications_[msg.sender] */\n      0x00\n        /* \"Documents/GitHub/contract-token-cryptoMonster/backend/components/PhasePrivate.sol\":1120:1130  msg.sender */\n      caller\n        /* \"Documents/GitHub/contract-token-cryptoMonster/backend/components/PhasePrivate.sol\":1101:1131  strucApplications_[msg.sender] */\n      0xffffffffffffffffffffffffffffffffffffffff\n      and\n      0xffffffffffffffffffffffffffffffffffffffff\n      and\n      dup2\n      mstore\n      0x20\n      add\n      swap1\n      dup2\n      mstore\n      0x20\n      add\n      0x00\n      keccak256\n        /* \"Documents/GitHub/contract-token-cryptoMonster/backend/components/PhasePrivate.sol\":1101:1214  strucApplications_[msg.sender]  = structApplication(_name, _contactForCommunication, _userAdr, true, false, true) */\n      0x00\n      dup3\n      add\n      mload\n      dup2\n      0x00\n      add\n      swap1\n      dup1\n      mload\n      swap1\n      0x20\n      add\n      swap1\n      tag_116\n      swap3\n      swap2\n      swap1\n      tag_117\n      jump\t// in\n    tag_116:\n      pop\n      0x20\n      dup3\n      add\n      mload\n      dup2\n      0x01\n      add\n      swap1\n      dup1\n      mload\n      swap1\n      0x20\n      add\n      swap1\n      tag_118\n      swap3\n      swap2\n      swap1\n      tag_117\n      jump\t// in\n    tag_118:\n      pop\n      0x40\n      dup3\n      add\n      mload\n      dup2\n      0x02\n      add\n      exp(0x0100, 0x00)\n      dup2\n      sload\n      dup2\n      0xffffffffffffffffffffffffffffffffffffffff\n      mul\n      not\n      and\n      swap1\n      dup4\n      0xffffffffffffffffffffffffffffffffffffffff\n      and\n      mul\n      or\n      swap1\n      sstore\n      pop\n      0x60\n      dup3\n      add\n      mload\n      dup2\n      0x02\n      add\n      exp(0x0100, 0x14)\n      dup2\n      sload\n      dup2\n      0xff\n      mul\n      not\n      and\n      swap1\n      dup4\n      iszero\n      iszero\n      mul\n      or\n      swap1\n      sstore\n      pop\n      0x80\n      dup3\n      add\n      mload\n      dup2\n      0x02\n      add\n      exp(0x0100, 0x15)\n      dup2\n      sload\n      dup2\n      0xff\n      mul\n      not\n      and\n      swap1\n      dup4\n      iszero\n      iszero\n      mul\n      or\n      swap1\n      sstore\n      pop\n      0xa0\n      dup3\n      add\n      mload\n      dup2\n      0x02\n      add\n      exp(0x0100, 0x16)\n      dup2\n      sload\n      dup2\n      0xff\n      mul\n      not\n      and\n      swap1\n      dup4\n      iszero\n      iszero\n      mul\n      or\n      swap1\n      sstore\n      pop\n      swap1\n      pop\n      pop\n        /* \"Documents/GitHub/contract-token-cryptoMonster/backend/components/PhasePrivate.sol\":1283:1310  structApplicationsAmountAdr */\n      0x03\n        /* \"Documents/GitHub/contract-token-cryptoMonster/backend/components/PhasePrivate.sol\":1316:1326  msg.sender */\n      caller\n        /* \"Documents/GitHub/contract-token-cryptoMonster/backend/components/PhasePrivate.sol\":1283:1327  structApplicationsAmountAdr.push(msg.sender) */\n      swap1\n      dup1\n      0x01\n      dup2\n      sload\n      add\n      dup1\n      dup3\n      sstore\n      dup1\n      swap2\n      pop\n      pop\n      0x01\n      swap1\n      sub\n      swap1\n      0x00\n      mstore\n      keccak256(0x00, 0x20)\n      add\n      0x00\n      swap1\n      swap2\n      swap1\n      swap2\n      swap1\n      swap2\n      0x0100\n      exp\n      dup2\n      sload\n      dup2\n      0xffffffffffffffffffffffffffffffffffffffff\n      mul\n      not\n      and\n      swap1\n      dup4\n      0xffffffffffffffffffffffffffffffffffffffff\n      and\n      mul\n      or\n      swap1\n      sstore\n      pop\n        /* \"Documents/GitHub/contract-token-cryptoMonster/backend/components/PhasePrivate.sol\":295:1536  function application(string memory _name, string memory _contactForCommunication, address _userAdr) public {\r... */\n      pop\n      pop\n      pop\n      jump\t// out\n        /* \"Documents/GitHub/contract-token-cryptoMonster/backend/shared/helpers/helpresFunc.sol\":147:285  function get_keccak256(string memory _hash) public pure returns(bytes32) {\r... */\n    tag_34:\n        /* \"Documents/GitHub/contract-token-cryptoMonster/backend/shared/helpers/helpresFunc.sol\":211:218  bytes32 */\n      0x00\n        /* \"Documents/GitHub/contract-token-cryptoMonster/backend/shared/helpers/helpresFunc.sol\":269:274  _hash */\n      dup2\n        /* \"Documents/GitHub/contract-token-cryptoMonster/backend/shared/helpers/helpresFunc.sol\":252:275  abi.encodePacked(_hash) */\n      add(0x20, mload(0x40))\n      tag_121\n      swap2\n      swap1\n      tag_122\n      jump\t// in\n    tag_121:\n      mload(0x40)\n      0x20\n      dup2\n      dup4\n      sub\n      sub\n      dup2\n      mstore\n      swap1\n      0x40\n      mstore\n        /* \"Documents/GitHub/contract-token-cryptoMonster/backend/shared/helpers/helpresFunc.sol\":242:276  keccak256(abi.encodePacked(_hash)) */\n      dup1\n      mload\n      swap1\n      0x20\n      add\n      keccak256\n        /* \"Documents/GitHub/contract-token-cryptoMonster/backend/shared/helpers/helpresFunc.sol\":235:277  return(keccak256(abi.encodePacked(_hash))) */\n      swap1\n      pop\n        /* \"Documents/GitHub/contract-token-cryptoMonster/backend/shared/helpers/helpresFunc.sol\":147:285  function get_keccak256(string memory _hash) public pure returns(bytes32) {\r... */\n      swap2\n      swap1\n      pop\n      jump\t// out\n        /* \"Documents/GitHub/contract-token-cryptoMonster/backend/components/PhasePrivate.sol\":3732:3967  function acceptApplication (address _userAdr) public onlyPrivateProvider {\r... */\n    tag_39:\n        /* \"Documents/GitHub/contract-token-cryptoMonster/backend/shared/helpers/modifireFunc.sol\":566:585  Role.SYSTEM_PRIVATE */\n      0x02\n        /* \"Documents/GitHub/contract-token-cryptoMonster/backend/shared/helpers/modifireFunc.sol\":533:585  structUsers_[msg.sender].role == Role.SYSTEM_PRIVATE */\n      0x04\n      dup2\n      gt\n      iszero\n      tag_124\n      jumpi\n      tag_125\n      tag_43\n      jump\t// in\n    tag_125:\n    tag_124:\n        /* \"Documents/GitHub/contract-token-cryptoMonster/backend/shared/helpers/modifireFunc.sol\":533:545  structUsers_ */\n      0x00\n        /* \"Documents/GitHub/contract-token-cryptoMonster/backend/shared/helpers/modifireFunc.sol\":533:557  structUsers_[msg.sender] */\n      dup1\n        /* \"Documents/GitHub/contract-token-cryptoMonster/backend/shared/helpers/modifireFunc.sol\":546:556  msg.sender */\n      caller\n        /* \"Documents/GitHub/contract-token-cryptoMonster/backend/shared/helpers/modifireFunc.sol\":533:557  structUsers_[msg.sender] */\n      0xffffffffffffffffffffffffffffffffffffffff\n      and\n      0xffffffffffffffffffffffffffffffffffffffff\n      and\n      dup2\n      mstore\n      0x20\n      add\n      swap1\n      dup2\n      mstore\n      0x20\n      add\n      0x00\n      keccak256\n        /* \"Documents/GitHub/contract-token-cryptoMonster/backend/shared/helpers/modifireFunc.sol\":533:562  structUsers_[msg.sender].role */\n      0x00\n      add\n      0x00\n      swap1\n      sload\n      swap1\n      0x0100\n      exp\n      swap1\n      div\n      0xff\n      and\n        /* \"Documents/GitHub/contract-token-cryptoMonster/backend/shared/helpers/modifireFunc.sol\":533:585  structUsers_[msg.sender].role == Role.SYSTEM_PRIVATE */\n      0x04\n      dup2\n      gt\n      iszero\n      tag_126\n      jumpi\n      tag_127\n      tag_43\n      jump\t// in\n    tag_127:\n    tag_126:\n      eq\n        /* \"Documents/GitHub/contract-token-cryptoMonster/backend/shared/helpers/modifireFunc.sol\":525:615  require(structUsers_[msg.sender].role == Role.SYSTEM_PRIVATE, \"Your not Private provider\") */\n      tag_128\n      jumpi\n      mload(0x40)\n      0x08c379a000000000000000000000000000000000000000000000000000000000\n      dup2\n      mstore\n      0x04\n      add\n      tag_129\n      swap1\n      tag_48\n      jump\t// in\n    tag_129:\n      mload(0x40)\n      dup1\n      swap2\n      sub\n      swap1\n      revert\n    tag_128:\n        /* \"Documents/GitHub/contract-token-cryptoMonster/backend/components/PhasePrivate.sol\":3867:3872  false */\n      0x00\n        /* \"Documents/GitHub/contract-token-cryptoMonster/backend/components/PhasePrivate.sol\":3824:3872  strucApplications_[msg.sender].reviewed == false */\n      iszero\n      iszero\n        /* \"Documents/GitHub/contract-token-cryptoMonster/backend/components/PhasePrivate.sol\":3824:3842  strucApplications_ */\n      0x02\n        /* \"Documents/GitHub/contract-token-cryptoMonster/backend/components/PhasePrivate.sol\":3824:3854  strucApplications_[msg.sender] */\n      0x00\n        /* \"Documents/GitHub/contract-token-cryptoMonster/backend/components/PhasePrivate.sol\":3843:3853  msg.sender */\n      caller\n        /* \"Documents/GitHub/contract-token-cryptoMonster/backend/components/PhasePrivate.sol\":3824:3854  strucApplications_[msg.sender] */\n      0xffffffffffffffffffffffffffffffffffffffff\n      and\n      0xffffffffffffffffffffffffffffffffffffffff\n      and\n      dup2\n      mstore\n      0x20\n      add\n      swap1\n      dup2\n      mstore\n      0x20\n      add\n      0x00\n      keccak256\n        /* \"Documents/GitHub/contract-token-cryptoMonster/backend/components/PhasePrivate.sol\":3824:3863  strucApplications_[msg.sender].reviewed */\n      0x02\n      add\n      0x15\n      swap1\n      sload\n      swap1\n      0x0100\n      exp\n      swap1\n      div\n      0xff\n      and\n        /* \"Documents/GitHub/contract-token-cryptoMonster/backend/components/PhasePrivate.sol\":3824:3872  strucApplications_[msg.sender].reviewed == false */\n      iszero\n      iszero\n      eq\n        /* \"Documents/GitHub/contract-token-cryptoMonster/backend/components/PhasePrivate.sol\":3816:3905  require(strucApplications_[msg.sender].reviewed == false, \"Review the application first\") */\n      tag_131\n      jumpi\n      mload(0x40)\n      0x08c379a000000000000000000000000000000000000000000000000000000000\n      dup2\n      mstore\n      0x04\n      add\n      tag_132\n      swap1\n      tag_52\n      jump\t// in\n    tag_132:\n      mload(0x40)\n      dup1\n      swap2\n      sub\n      swap1\n      revert\n    tag_131:\n        /* \"Documents/GitHub/contract-token-cryptoMonster/backend/components/PhasePrivate.sol\":3954:3959  false */\n      0x00\n        /* \"Documents/GitHub/contract-token-cryptoMonster/backend/components/PhasePrivate.sol\":3916:3934  strucApplications_ */\n      0x02\n        /* \"Documents/GitHub/contract-token-cryptoMonster/backend/components/PhasePrivate.sol\":3916:3944  strucApplications_[_userAdr] */\n      0x00\n        /* \"Documents/GitHub/contract-token-cryptoMonster/backend/components/PhasePrivate.sol\":3935:3943  _userAdr */\n      dup4\n        /* \"Documents/GitHub/contract-token-cryptoMonster/backend/components/PhasePrivate.sol\":3916:3944  strucApplications_[_userAdr] */\n      0xffffffffffffffffffffffffffffffffffffffff\n      and\n      0xffffffffffffffffffffffffffffffffffffffff\n      and\n      dup2\n      mstore\n      0x20\n      add\n      swap1\n      dup2\n      mstore\n      0x20\n      add\n      0x00\n      keccak256\n        /* \"Documents/GitHub/contract-token-cryptoMonster/backend/components/PhasePrivate.sol\":3916:3951  strucApplications_[_userAdr].status */\n      0x02\n      add\n      0x14\n        /* \"Documents/GitHub/contract-token-cryptoMonster/backend/components/PhasePrivate.sol\":3916:3959  strucApplications_[_userAdr].status = false */\n      0x0100\n      exp\n      dup2\n      sload\n      dup2\n      0xff\n      mul\n      not\n      and\n      swap1\n      dup4\n      iszero\n      iszero\n      mul\n      or\n      swap1\n      sstore\n      pop\n        /* \"Documents/GitHub/contract-token-cryptoMonster/backend/components/PhasePrivate.sol\":3732:3967  function acceptApplication (address _userAdr) public onlyPrivateProvider {\r... */\n      pop\n      jump\t// out\n    tag_85:\n      mload(0x40)\n      dup1\n      0xc0\n      add\n      0x40\n      mstore\n      dup1\n      0x60\n      dup2\n      mstore\n      0x20\n      add\n      0x60\n      dup2\n      mstore\n      0x20\n      add\n      and(0xffffffffffffffffffffffffffffffffffffffff, 0x00)\n      dup2\n      mstore\n      0x20\n      add\n      iszero(iszero(0x00))\n      dup2\n      mstore\n      0x20\n      add\n      iszero(iszero(0x00))\n      dup2\n      mstore\n      0x20\n      add\n      iszero(iszero(0x00))\n      dup2\n      mstore\n      pop\n      swap1\n      jump\t// out\n    tag_117:\n      dup3\n      dup1\n      sload\n      tag_133\n      swap1\n      tag_95\n      jump\t// in\n    tag_133:\n      swap1\n      0x00\n      mstore\n      keccak256(0x00, 0x20)\n      swap1\n      0x1f\n      add\n      0x20\n      swap1\n      div\n      dup2\n      add\n      swap3\n      dup3\n      tag_135\n      jumpi\n      0x00\n      dup6\n      sstore\n      jump(tag_134)\n    tag_135:\n      dup3\n      0x1f\n      lt\n      tag_136\n      jumpi\n      dup1\n      mload\n      not(0xff)\n      and\n      dup4\n      dup1\n      add\n      or\n      dup6\n      sstore\n      jump(tag_134)\n    tag_136:\n      dup3\n      dup1\n      add\n      0x01\n      add\n      dup6\n      sstore\n      dup3\n      iszero\n      tag_134\n      jumpi\n      swap2\n      dup3\n      add\n    tag_137:\n      dup3\n      dup2\n      gt\n      iszero\n      tag_138\n      jumpi\n      dup3\n      mload\n      dup3\n      sstore\n      swap2\n      0x20\n      add\n      swap2\n      swap1\n      0x01\n      add\n      swap1\n      jump(tag_137)\n    tag_138:\n    tag_134:\n      pop\n      swap1\n      pop\n      tag_139\n      swap2\n      swap1\n      tag_140\n      jump\t// in\n    tag_139:\n      pop\n      swap1\n      jump\t// out\n    tag_140:\n    tag_141:\n      dup1\n      dup3\n      gt\n      iszero\n      tag_142\n      jumpi\n      0x00\n      dup2\n      0x00\n      swap1\n      sstore\n      pop\n      0x01\n      add\n      jump(tag_141)\n    tag_142:\n      pop\n      swap1\n      jump\t// out\n        /* \"#utility.yul\":7:419   */\n    tag_144:\n        /* \"#utility.yul\":85:90   */\n      0x00\n        /* \"#utility.yul\":110:176   */\n      tag_146\n        /* \"#utility.yul\":126:175   */\n      tag_147\n        /* \"#utility.yul\":168:174   */\n      dup5\n        /* \"#utility.yul\":126:175   */\n      tag_148\n      jump\t// in\n    tag_147:\n        /* \"#utility.yul\":110:176   */\n      tag_149\n      jump\t// in\n    tag_146:\n        /* \"#utility.yul\":101:176   */\n      swap1\n      pop\n        /* \"#utility.yul\":199:205   */\n      dup3\n        /* \"#utility.yul\":192:197   */\n      dup2\n        /* \"#utility.yul\":185:206   */\n      mstore\n        /* \"#utility.yul\":237:241   */\n      0x20\n        /* \"#utility.yul\":230:235   */\n      dup2\n        /* \"#utility.yul\":226:242   */\n      add\n        /* \"#utility.yul\":275:278   */\n      dup5\n        /* \"#utility.yul\":266:272   */\n      dup5\n        /* \"#utility.yul\":261:264   */\n      dup5\n        /* \"#utility.yul\":257:273   */\n      add\n        /* \"#utility.yul\":254:279   */\n      gt\n        /* \"#utility.yul\":251:363   */\n      iszero\n      tag_150\n      jumpi\n        /* \"#utility.yul\":282:361   */\n      tag_151\n      tag_152\n      jump\t// in\n    tag_151:\n        /* \"#utility.yul\":251:363   */\n    tag_150:\n        /* \"#utility.yul\":372:413   */\n      tag_153\n        /* \"#utility.yul\":406:412   */\n      dup5\n        /* \"#utility.yul\":401:404   */\n      dup3\n        /* \"#utility.yul\":396:399   */\n      dup6\n        /* \"#utility.yul\":372:413   */\n      tag_154\n      jump\t// in\n    tag_153:\n        /* \"#utility.yul\":91:419   */\n      pop\n        /* \"#utility.yul\":7:419   */\n      swap4\n      swap3\n      pop\n      pop\n      pop\n      jump\t// out\n        /* \"#utility.yul\":425:564   */\n    tag_155:\n        /* \"#utility.yul\":471:476   */\n      0x00\n        /* \"#utility.yul\":509:515   */\n      dup2\n        /* \"#utility.yul\":496:516   */\n      calldataload\n        /* \"#utility.yul\":487:516   */\n      swap1\n      pop\n        /* \"#utility.yul\":525:558   */\n      tag_157\n        /* \"#utility.yul\":552:557   */\n      dup2\n        /* \"#utility.yul\":525:558   */\n      tag_158\n      jump\t// in\n    tag_157:\n        /* \"#utility.yul\":425:564   */\n      swap3\n      swap2\n      pop\n      pop\n      jump\t// out\n        /* \"#utility.yul\":584:924   */\n    tag_159:\n        /* \"#utility.yul\":640:645   */\n      0x00\n        /* \"#utility.yul\":689:692   */\n      dup3\n        /* \"#utility.yul\":682:686   */\n      0x1f\n        /* \"#utility.yul\":674:680   */\n      dup4\n        /* \"#utility.yul\":670:687   */\n      add\n        /* \"#utility.yul\":666:693   */\n      slt\n        /* \"#utility.yul\":656:778   */\n      tag_161\n      jumpi\n        /* \"#utility.yul\":697:776   */\n      tag_162\n      tag_163\n      jump\t// in\n    tag_162:\n        /* \"#utility.yul\":656:778   */\n    tag_161:\n        /* \"#utility.yul\":814:820   */\n      dup2\n        /* \"#utility.yul\":801:821   */\n      calldataload\n        /* \"#utility.yul\":839:918   */\n      tag_164\n        /* \"#utility.yul\":914:917   */\n      dup5\n        /* \"#utility.yul\":906:912   */\n      dup3\n        /* \"#utility.yul\":899:903   */\n      0x20\n        /* \"#utility.yul\":891:897   */\n      dup7\n        /* \"#utility.yul\":887:904   */\n      add\n        /* \"#utility.yul\":839:918   */\n      tag_144\n      jump\t// in\n    tag_164:\n        /* \"#utility.yul\":830:918   */\n      swap2\n      pop\n        /* \"#utility.yul\":646:924   */\n      pop\n        /* \"#utility.yul\":584:924   */\n      swap3\n      swap2\n      pop\n      pop\n      jump\t// out\n        /* \"#utility.yul\":930:1259   */\n    tag_13:\n        /* \"#utility.yul\":989:995   */\n      0x00\n        /* \"#utility.yul\":1038:1040   */\n      0x20\n        /* \"#utility.yul\":1026:1035   */\n      dup3\n        /* \"#utility.yul\":1017:1024   */\n      dup5\n        /* \"#utility.yul\":1013:1036   */\n      sub\n        /* \"#utility.yul\":1009:1041   */\n      slt\n        /* \"#utility.yul\":1006:1125   */\n      iszero\n      tag_166\n      jumpi\n        /* \"#utility.yul\":1044:1123   */\n      tag_167\n      tag_168\n      jump\t// in\n    tag_167:\n        /* \"#utility.yul\":1006:1125   */\n    tag_166:\n        /* \"#utility.yul\":1164:1165   */\n      0x00\n        /* \"#utility.yul\":1189:1242   */\n      tag_169\n        /* \"#utility.yul\":1234:1241   */\n      dup5\n        /* \"#utility.yul\":1225:1231   */\n      dup3\n        /* \"#utility.yul\":1214:1223   */\n      dup6\n        /* \"#utility.yul\":1210:1232   */\n      add\n        /* \"#utility.yul\":1189:1242   */\n      tag_155\n      jump\t// in\n    tag_169:\n        /* \"#utility.yul\":1179:1242   */\n      swap2\n      pop\n        /* \"#utility.yul\":1135:1252   */\n      pop\n        /* \"#utility.yul\":930:1259   */\n      swap3\n      swap2\n      pop\n      pop\n      jump\t// out\n        /* \"#utility.yul\":1265:1774   */\n    tag_33:\n        /* \"#utility.yul\":1334:1340   */\n      0x00\n        /* \"#utility.yul\":1383:1385   */\n      0x20\n        /* \"#utility.yul\":1371:1380   */\n      dup3\n        /* \"#utility.yul\":1362:1369   */\n      dup5\n        /* \"#utility.yul\":1358:1381   */\n      sub\n        /* \"#utility.yul\":1354:1386   */\n      slt\n        /* \"#utility.yul\":1351:1470   */\n      iszero\n      tag_171\n      jumpi\n        /* \"#utility.yul\":1389:1468   */\n      tag_172\n      tag_168\n      jump\t// in\n    tag_172:\n        /* \"#utility.yul\":1351:1470   */\n    tag_171:\n        /* \"#utility.yul\":1537:1538   */\n      0x00\n        /* \"#utility.yul\":1526:1535   */\n      dup3\n        /* \"#utility.yul\":1522:1539   */\n      add\n        /* \"#utility.yul\":1509:1540   */\n      calldataload\n        /* \"#utility.yul\":1567:1585   */\n      0xffffffffffffffff\n        /* \"#utility.yul\":1559:1565   */\n      dup2\n        /* \"#utility.yul\":1556:1586   */\n      gt\n        /* \"#utility.yul\":1553:1670   */\n      iszero\n      tag_173\n      jumpi\n        /* \"#utility.yul\":1589:1668   */\n      tag_174\n      tag_175\n      jump\t// in\n    tag_174:\n        /* \"#utility.yul\":1553:1670   */\n    tag_173:\n        /* \"#utility.yul\":1694:1757   */\n      tag_176\n        /* \"#utility.yul\":1749:1756   */\n      dup5\n        /* \"#utility.yul\":1740:1746   */\n      dup3\n        /* \"#utility.yul\":1729:1738   */\n      dup6\n        /* \"#utility.yul\":1725:1747   */\n      add\n        /* \"#utility.yul\":1694:1757   */\n      tag_159\n      jump\t// in\n    tag_176:\n        /* \"#utility.yul\":1684:1757   */\n      swap2\n      pop\n        /* \"#utility.yul\":1480:1767   */\n      pop\n        /* \"#utility.yul\":1265:1774   */\n      swap3\n      swap2\n      pop\n      pop\n      jump\t// out\n        /* \"#utility.yul\":1780:2759   */\n    tag_29:\n        /* \"#utility.yul\":1877:1883   */\n      0x00\n        /* \"#utility.yul\":1885:1891   */\n      dup1\n        /* \"#utility.yul\":1893:1899   */\n      0x00\n        /* \"#utility.yul\":1942:1944   */\n      0x60\n        /* \"#utility.yul\":1930:1939   */\n      dup5\n        /* \"#utility.yul\":1921:1928   */\n      dup7\n        /* \"#utility.yul\":1917:1940   */\n      sub\n        /* \"#utility.yul\":1913:1945   */\n      slt\n        /* \"#utility.yul\":1910:2029   */\n      iszero\n      tag_178\n      jumpi\n        /* \"#utility.yul\":1948:2027   */\n      tag_179\n      tag_168\n      jump\t// in\n    tag_179:\n        /* \"#utility.yul\":1910:2029   */\n    tag_178:\n        /* \"#utility.yul\":2096:2097   */\n      0x00\n        /* \"#utility.yul\":2085:2094   */\n      dup5\n        /* \"#utility.yul\":2081:2098   */\n      add\n        /* \"#utility.yul\":2068:2099   */\n      calldataload\n        /* \"#utility.yul\":2126:2144   */\n      0xffffffffffffffff\n        /* \"#utility.yul\":2118:2124   */\n      dup2\n        /* \"#utility.yul\":2115:2145   */\n      gt\n        /* \"#utility.yul\":2112:2229   */\n      iszero\n      tag_180\n      jumpi\n        /* \"#utility.yul\":2148:2227   */\n      tag_181\n      tag_175\n      jump\t// in\n    tag_181:\n        /* \"#utility.yul\":2112:2229   */\n    tag_180:\n        /* \"#utility.yul\":2253:2316   */\n      tag_182\n        /* \"#utility.yul\":2308:2315   */\n      dup7\n        /* \"#utility.yul\":2299:2305   */\n      dup3\n        /* \"#utility.yul\":2288:2297   */\n      dup8\n        /* \"#utility.yul\":2284:2306   */\n      add\n        /* \"#utility.yul\":2253:2316   */\n      tag_159\n      jump\t// in\n    tag_182:\n        /* \"#utility.yul\":2243:2316   */\n      swap4\n      pop\n        /* \"#utility.yul\":2039:2326   */\n      pop\n        /* \"#utility.yul\":2393:2395   */\n      0x20\n        /* \"#utility.yul\":2382:2391   */\n      dup5\n        /* \"#utility.yul\":2378:2396   */\n      add\n        /* \"#utility.yul\":2365:2397   */\n      calldataload\n        /* \"#utility.yul\":2424:2442   */\n      0xffffffffffffffff\n        /* \"#utility.yul\":2416:2422   */\n      dup2\n        /* \"#utility.yul\":2413:2443   */\n      gt\n        /* \"#utility.yul\":2410:2527   */\n      iszero\n      tag_183\n      jumpi\n        /* \"#utility.yul\":2446:2525   */\n      tag_184\n      tag_175\n      jump\t// in\n    tag_184:\n        /* \"#utility.yul\":2410:2527   */\n    tag_183:\n        /* \"#utility.yul\":2551:2614   */\n      tag_185\n        /* \"#utility.yul\":2606:2613   */\n      dup7\n        /* \"#utility.yul\":2597:2603   */\n      dup3\n        /* \"#utility.yul\":2586:2595   */\n      dup8\n        /* \"#utility.yul\":2582:2604   */\n      add\n        /* \"#utility.yul\":2551:2614   */\n      tag_159\n      jump\t// in\n    tag_185:\n        /* \"#utility.yul\":2541:2614   */\n      swap3\n      pop\n        /* \"#utility.yul\":2336:2624   */\n      pop\n        /* \"#utility.yul\":2663:2665   */\n      0x40\n        /* \"#utility.yul\":2689:2742   */\n      tag_186\n        /* \"#utility.yul\":2734:2741   */\n      dup7\n        /* \"#utility.yul\":2725:2731   */\n      dup3\n        /* \"#utility.yul\":2714:2723   */\n      dup8\n        /* \"#utility.yul\":2710:2732   */\n      add\n        /* \"#utility.yul\":2689:2742   */\n      tag_155\n      jump\t// in\n    tag_186:\n        /* \"#utility.yul\":2679:2742   */\n      swap2\n      pop\n        /* \"#utility.yul\":2634:2752   */\n      pop\n        /* \"#utility.yul\":1780:2759   */\n      swap3\n      pop\n      swap3\n      pop\n      swap3\n      jump\t// out\n        /* \"#utility.yul\":2765:2944   */\n    tag_187:\n        /* \"#utility.yul\":2834:2844   */\n      0x00\n        /* \"#utility.yul\":2855:2901   */\n      tag_189\n        /* \"#utility.yul\":2897:2900   */\n      dup4\n        /* \"#utility.yul\":2889:2895   */\n      dup4\n        /* \"#utility.yul\":2855:2901   */\n      tag_190\n      jump\t// in\n    tag_189:\n        /* \"#utility.yul\":2933:2937   */\n      0x20\n        /* \"#utility.yul\":2928:2931   */\n      dup4\n        /* \"#utility.yul\":2924:2938   */\n      add\n        /* \"#utility.yul\":2910:2938   */\n      swap1\n      pop\n        /* \"#utility.yul\":2765:2944   */\n      swap3\n      swap2\n      pop\n      pop\n      jump\t// out\n        /* \"#utility.yul\":2950:3058   */\n    tag_190:\n        /* \"#utility.yul\":3027:3051   */\n      tag_192\n        /* \"#utility.yul\":3045:3050   */\n      dup2\n        /* \"#utility.yul\":3027:3051   */\n      tag_193\n      jump\t// in\n    tag_192:\n        /* \"#utility.yul\":3022:3025   */\n      dup3\n        /* \"#utility.yul\":3015:3052   */\n      mstore\n        /* \"#utility.yul\":2950:3058   */\n      pop\n      pop\n      jump\t// out\n        /* \"#utility.yul\":3094:3826   */\n    tag_194:\n        /* \"#utility.yul\":3213:3216   */\n      0x00\n        /* \"#utility.yul\":3242:3296   */\n      tag_196\n        /* \"#utility.yul\":3290:3295   */\n      dup3\n        /* \"#utility.yul\":3242:3296   */\n      tag_197\n      jump\t// in\n    tag_196:\n        /* \"#utility.yul\":3312:3398   */\n      tag_198\n        /* \"#utility.yul\":3391:3397   */\n      dup2\n        /* \"#utility.yul\":3386:3389   */\n      dup6\n        /* \"#utility.yul\":3312:3398   */\n      tag_199\n      jump\t// in\n    tag_198:\n        /* \"#utility.yul\":3305:3398   */\n      swap4\n      pop\n        /* \"#utility.yul\":3422:3478   */\n      tag_200\n        /* \"#utility.yul\":3472:3477   */\n      dup4\n        /* \"#utility.yul\":3422:3478   */\n      tag_201\n      jump\t// in\n    tag_200:\n        /* \"#utility.yul\":3501:3508   */\n      dup1\n        /* \"#utility.yul\":3532:3533   */\n      0x00\n        /* \"#utility.yul\":3517:3801   */\n    tag_202:\n        /* \"#utility.yul\":3542:3548   */\n      dup4\n        /* \"#utility.yul\":3539:3540   */\n      dup2\n        /* \"#utility.yul\":3536:3549   */\n      lt\n        /* \"#utility.yul\":3517:3801   */\n      iszero\n      tag_204\n      jumpi\n        /* \"#utility.yul\":3618:3624   */\n      dup2\n        /* \"#utility.yul\":3612:3625   */\n      mload\n        /* \"#utility.yul\":3645:3708   */\n      tag_205\n        /* \"#utility.yul\":3704:3707   */\n      dup9\n        /* \"#utility.yul\":3689:3702   */\n      dup3\n        /* \"#utility.yul\":3645:3708   */\n      tag_187\n      jump\t// in\n    tag_205:\n        /* \"#utility.yul\":3638:3708   */\n      swap8\n      pop\n        /* \"#utility.yul\":3731:3791   */\n      tag_206\n        /* \"#utility.yul\":3784:3790   */\n      dup4\n        /* \"#utility.yul\":3731:3791   */\n      tag_207\n      jump\t// in\n    tag_206:\n        /* \"#utility.yul\":3721:3791   */\n      swap3\n      pop\n        /* \"#utility.yul\":3577:3801   */\n      pop\n        /* \"#utility.yul\":3564:3565   */\n      0x01\n        /* \"#utility.yul\":3561:3562   */\n      dup2\n        /* \"#utility.yul\":3557:3566   */\n      add\n        /* \"#utility.yul\":3552:3566   */\n      swap1\n      pop\n        /* \"#utility.yul\":3517:3801   */\n      jump(tag_202)\n    tag_204:\n        /* \"#utility.yul\":3521:3535   */\n      pop\n        /* \"#utility.yul\":3817:3820   */\n      dup6\n        /* \"#utility.yul\":3810:3820   */\n      swap4\n      pop\n        /* \"#utility.yul\":3218:3826   */\n      pop\n      pop\n      pop\n        /* \"#utility.yul\":3094:3826   */\n      swap3\n      swap2\n      pop\n      pop\n      jump\t// out\n        /* \"#utility.yul\":3832:3931   */\n    tag_208:\n        /* \"#utility.yul\":3903:3924   */\n      tag_210\n        /* \"#utility.yul\":3918:3923   */\n      dup2\n        /* \"#utility.yul\":3903:3924   */\n      tag_211\n      jump\t// in\n    tag_210:\n        /* \"#utility.yul\":3898:3901   */\n      dup3\n        /* \"#utility.yul\":3891:3925   */\n      mstore\n        /* \"#utility.yul\":3832:3931   */\n      pop\n      pop\n      jump\t// out\n        /* \"#utility.yul\":3937:4055   */\n    tag_212:\n        /* \"#utility.yul\":4024:4048   */\n      tag_214\n        /* \"#utility.yul\":4042:4047   */\n      dup2\n        /* \"#utility.yul\":4024:4048   */\n      tag_215\n      jump\t// in\n    tag_214:\n        /* \"#utility.yul\":4019:4022   */\n      dup3\n        /* \"#utility.yul\":4012:4049   */\n      mstore\n        /* \"#utility.yul\":3937:4055   */\n      pop\n      pop\n      jump\t// out\n        /* \"#utility.yul\":4061:4405   */\n    tag_216:\n        /* \"#utility.yul\":4139:4142   */\n      0x00\n        /* \"#utility.yul\":4167:4206   */\n      tag_218\n        /* \"#utility.yul\":4200:4205   */\n      dup3\n        /* \"#utility.yul\":4167:4206   */\n      tag_219\n      jump\t// in\n    tag_218:\n        /* \"#utility.yul\":4222:4283   */\n      tag_220\n        /* \"#utility.yul\":4276:4282   */\n      dup2\n        /* \"#utility.yul\":4271:4274   */\n      dup6\n        /* \"#utility.yul\":4222:4283   */\n      tag_221\n      jump\t// in\n    tag_220:\n        /* \"#utility.yul\":4215:4283   */\n      swap4\n      pop\n        /* \"#utility.yul\":4292:4344   */\n      tag_222\n        /* \"#utility.yul\":4337:4343   */\n      dup2\n        /* \"#utility.yul\":4332:4335   */\n      dup6\n        /* \"#utility.yul\":4325:4329   */\n      0x20\n        /* \"#utility.yul\":4318:4323   */\n      dup7\n        /* \"#utility.yul\":4314:4330   */\n      add\n        /* \"#utility.yul\":4292:4344   */\n      tag_223\n      jump\t// in\n    tag_222:\n        /* \"#utility.yul\":4369:4398   */\n      tag_224\n        /* \"#utility.yul\":4391:4397   */\n      dup2\n        /* \"#utility.yul\":4369:4398   */\n      tag_225\n      jump\t// in\n    tag_224:\n        /* \"#utility.yul\":4364:4367   */\n      dup5\n        /* \"#utility.yul\":4360:4399   */\n      add\n        /* \"#utility.yul\":4353:4399   */\n      swap2\n      pop\n        /* \"#utility.yul\":4143:4405   */\n      pop\n        /* \"#utility.yul\":4061:4405   */\n      swap3\n      swap2\n      pop\n      pop\n      jump\t// out\n        /* \"#utility.yul\":4411:4788   */\n    tag_226:\n        /* \"#utility.yul\":4517:4520   */\n      0x00\n        /* \"#utility.yul\":4545:4584   */\n      tag_228\n        /* \"#utility.yul\":4578:4583   */\n      dup3\n        /* \"#utility.yul\":4545:4584   */\n      tag_219\n      jump\t// in\n    tag_228:\n        /* \"#utility.yul\":4600:4689   */\n      tag_229\n        /* \"#utility.yul\":4682:4688   */\n      dup2\n        /* \"#utility.yul\":4677:4680   */\n      dup6\n        /* \"#utility.yul\":4600:4689   */\n      tag_230\n      jump\t// in\n    tag_229:\n        /* \"#utility.yul\":4593:4689   */\n      swap4\n      pop\n        /* \"#utility.yul\":4698:4750   */\n      tag_231\n        /* \"#utility.yul\":4743:4749   */\n      dup2\n        /* \"#utility.yul\":4738:4741   */\n      dup6\n        /* \"#utility.yul\":4731:4735   */\n      0x20\n        /* \"#utility.yul\":4724:4729   */\n      dup7\n        /* \"#utility.yul\":4720:4736   */\n      add\n        /* \"#utility.yul\":4698:4750   */\n      tag_223\n      jump\t// in\n    tag_231:\n        /* \"#utility.yul\":4775:4781   */\n      dup1\n        /* \"#utility.yul\":4770:4773   */\n      dup5\n        /* \"#utility.yul\":4766:4782   */\n      add\n        /* \"#utility.yul\":4759:4782   */\n      swap2\n      pop\n        /* \"#utility.yul\":4521:4788   */\n      pop\n        /* \"#utility.yul\":4411:4788   */\n      swap3\n      swap2\n      pop\n      pop\n      jump\t// out\n        /* \"#utility.yul\":4794:5160   */\n    tag_232:\n        /* \"#utility.yul\":4936:4939   */\n      0x00\n        /* \"#utility.yul\":4957:5024   */\n      tag_234\n        /* \"#utility.yul\":5021:5023   */\n      0x1c\n        /* \"#utility.yul\":5016:5019   */\n      dup4\n        /* \"#utility.yul\":4957:5024   */\n      tag_235\n      jump\t// in\n    tag_234:\n        /* \"#utility.yul\":4950:5024   */\n      swap2\n      pop\n        /* \"#utility.yul\":5033:5126   */\n      tag_236\n        /* \"#utility.yul\":5122:5125   */\n      dup3\n        /* \"#utility.yul\":5033:5126   */\n      tag_237\n      jump\t// in\n    tag_236:\n        /* \"#utility.yul\":5151:5153   */\n      0x20\n        /* \"#utility.yul\":5146:5149   */\n      dup3\n        /* \"#utility.yul\":5142:5154   */\n      add\n        /* \"#utility.yul\":5135:5154   */\n      swap1\n      pop\n        /* \"#utility.yul\":4794:5160   */\n      swap2\n      swap1\n      pop\n      jump\t// out\n        /* \"#utility.yul\":5166:5532   */\n    tag_238:\n        /* \"#utility.yul\":5308:5311   */\n      0x00\n        /* \"#utility.yul\":5329:5396   */\n      tag_240\n        /* \"#utility.yul\":5393:5395   */\n      0x18\n        /* \"#utility.yul\":5388:5391   */\n      dup4\n        /* \"#utility.yul\":5329:5396   */\n      tag_235\n      jump\t// in\n    tag_240:\n        /* \"#utility.yul\":5322:5396   */\n      swap2\n      pop\n        /* \"#utility.yul\":5405:5498   */\n      tag_241\n        /* \"#utility.yul\":5494:5497   */\n      dup3\n        /* \"#utility.yul\":5405:5498   */\n      tag_242\n      jump\t// in\n    tag_241:\n        /* \"#utility.yul\":5523:5525   */\n      0x20\n        /* \"#utility.yul\":5518:5521   */\n      dup3\n        /* \"#utility.yul\":5514:5526   */\n      add\n        /* \"#utility.yul\":5507:5526   */\n      swap1\n      pop\n        /* \"#utility.yul\":5166:5532   */\n      swap2\n      swap1\n      pop\n      jump\t// out\n        /* \"#utility.yul\":5538:5904   */\n    tag_243:\n        /* \"#utility.yul\":5680:5683   */\n      0x00\n        /* \"#utility.yul\":5701:5768   */\n      tag_245\n        /* \"#utility.yul\":5765:5767   */\n      0x2a\n        /* \"#utility.yul\":5760:5763   */\n      dup4\n        /* \"#utility.yul\":5701:5768   */\n      tag_235\n      jump\t// in\n    tag_245:\n        /* \"#utility.yul\":5694:5768   */\n      swap2\n      pop\n        /* \"#utility.yul\":5777:5870   */\n      tag_246\n        /* \"#utility.yul\":5866:5869   */\n      dup3\n        /* \"#utility.yul\":5777:5870   */\n      tag_247\n      jump\t// in\n    tag_246:\n        /* \"#utility.yul\":5895:5897   */\n      0x40\n        /* \"#utility.yul\":5890:5893   */\n      dup3\n        /* \"#utility.yul\":5886:5898   */\n      add\n        /* \"#utility.yul\":5879:5898   */\n      swap1\n      pop\n        /* \"#utility.yul\":5538:5904   */\n      swap2\n      swap1\n      pop\n      jump\t// out\n        /* \"#utility.yul\":5910:6276   */\n    tag_248:\n        /* \"#utility.yul\":6052:6055   */\n      0x00\n        /* \"#utility.yul\":6073:6140   */\n      tag_250\n        /* \"#utility.yul\":6137:6139   */\n      0x19\n        /* \"#utility.yul\":6132:6135   */\n      dup4\n        /* \"#utility.yul\":6073:6140   */\n      tag_235\n      jump\t// in\n    tag_250:\n        /* \"#utility.yul\":6066:6140   */\n      swap2\n      pop\n        /* \"#utility.yul\":6149:6242   */\n      tag_251\n        /* \"#utility.yul\":6238:6241   */\n      dup3\n        /* \"#utility.yul\":6149:6242   */\n      tag_252\n      jump\t// in\n    tag_251:\n        /* \"#utility.yul\":6267:6269   */\n      0x20\n        /* \"#utility.yul\":6262:6265   */\n      dup3\n        /* \"#utility.yul\":6258:6270   */\n      add\n        /* \"#utility.yul\":6251:6270   */\n      swap1\n      pop\n        /* \"#utility.yul\":5910:6276   */\n      swap2\n      swap1\n      pop\n      jump\t// out\n        /* \"#utility.yul\":6282:6648   */\n    tag_253:\n        /* \"#utility.yul\":6424:6427   */\n      0x00\n        /* \"#utility.yul\":6445:6512   */\n      tag_255\n        /* \"#utility.yul\":6509:6511   */\n      0x17\n        /* \"#utility.yul\":6504:6507   */\n      dup4\n        /* \"#utility.yul\":6445:6512   */\n      tag_235\n      jump\t// in\n    tag_255:\n        /* \"#utility.yul\":6438:6512   */\n      swap2\n      pop\n        /* \"#utility.yul\":6521:6614   */\n      tag_256\n        /* \"#utility.yul\":6610:6613   */\n      dup3\n        /* \"#utility.yul\":6521:6614   */\n      tag_257\n      jump\t// in\n    tag_256:\n        /* \"#utility.yul\":6639:6641   */\n      0x20\n        /* \"#utility.yul\":6634:6637   */\n      dup3\n        /* \"#utility.yul\":6630:6642   */\n      add\n        /* \"#utility.yul\":6623:6642   */\n      swap1\n      pop\n        /* \"#utility.yul\":6282:6648   */\n      swap2\n      swap1\n      pop\n      jump\t// out\n        /* \"#utility.yul\":6736:8138   */\n    tag_258:\n        /* \"#utility.yul\":6873:6876   */\n      0x00\n        /* \"#utility.yul\":6909:6913   */\n      0xc0\n        /* \"#utility.yul\":6904:6907   */\n      dup4\n        /* \"#utility.yul\":6900:6914   */\n      add\n        /* \"#utility.yul\":6996:7000   */\n      0x00\n        /* \"#utility.yul\":6989:6994   */\n      dup4\n        /* \"#utility.yul\":6985:7001   */\n      add\n        /* \"#utility.yul\":6979:7002   */\n      mload\n        /* \"#utility.yul\":7049:7052   */\n      dup5\n        /* \"#utility.yul\":7043:7047   */\n      dup3\n        /* \"#utility.yul\":7039:7053   */\n      sub\n        /* \"#utility.yul\":7032:7036   */\n      0x00\n        /* \"#utility.yul\":7027:7030   */\n      dup7\n        /* \"#utility.yul\":7023:7037   */\n      add\n        /* \"#utility.yul\":7016:7054   */\n      mstore\n        /* \"#utility.yul\":7075:7148   */\n      tag_260\n        /* \"#utility.yul\":7143:7147   */\n      dup3\n        /* \"#utility.yul\":7129:7141   */\n      dup3\n        /* \"#utility.yul\":7075:7148   */\n      tag_216\n      jump\t// in\n    tag_260:\n        /* \"#utility.yul\":7067:7148   */\n      swap2\n      pop\n        /* \"#utility.yul\":6924:7159   */\n      pop\n        /* \"#utility.yul\":7260:7264   */\n      0x20\n        /* \"#utility.yul\":7253:7258   */\n      dup4\n        /* \"#utility.yul\":7249:7265   */\n      add\n        /* \"#utility.yul\":7243:7266   */\n      mload\n        /* \"#utility.yul\":7313:7316   */\n      dup5\n        /* \"#utility.yul\":7307:7311   */\n      dup3\n        /* \"#utility.yul\":7303:7317   */\n      sub\n        /* \"#utility.yul\":7296:7300   */\n      0x20\n        /* \"#utility.yul\":7291:7294   */\n      dup7\n        /* \"#utility.yul\":7287:7301   */\n      add\n        /* \"#utility.yul\":7280:7318   */\n      mstore\n        /* \"#utility.yul\":7339:7412   */\n      tag_261\n        /* \"#utility.yul\":7407:7411   */\n      dup3\n        /* \"#utility.yul\":7393:7405   */\n      dup3\n        /* \"#utility.yul\":7339:7412   */\n      tag_216\n      jump\t// in\n    tag_261:\n        /* \"#utility.yul\":7331:7412   */\n      swap2\n      pop\n        /* \"#utility.yul\":7169:7423   */\n      pop\n        /* \"#utility.yul\":7508:7512   */\n      0x40\n        /* \"#utility.yul\":7501:7506   */\n      dup4\n        /* \"#utility.yul\":7497:7513   */\n      add\n        /* \"#utility.yul\":7491:7514   */\n      mload\n        /* \"#utility.yul\":7527:7590   */\n      tag_262\n        /* \"#utility.yul\":7584:7588   */\n      0x40\n        /* \"#utility.yul\":7579:7582   */\n      dup7\n        /* \"#utility.yul\":7575:7589   */\n      add\n        /* \"#utility.yul\":7561:7573   */\n      dup3\n        /* \"#utility.yul\":7527:7590   */\n      tag_190\n      jump\t// in\n    tag_262:\n        /* \"#utility.yul\":7433:7600   */\n      pop\n        /* \"#utility.yul\":7684:7688   */\n      0x60\n        /* \"#utility.yul\":7677:7682   */\n      dup4\n        /* \"#utility.yul\":7673:7689   */\n      add\n        /* \"#utility.yul\":7667:7690   */\n      mload\n        /* \"#utility.yul\":7703:7760   */\n      tag_263\n        /* \"#utility.yul\":7754:7758   */\n      0x60\n        /* \"#utility.yul\":7749:7752   */\n      dup7\n        /* \"#utility.yul\":7745:7759   */\n      add\n        /* \"#utility.yul\":7731:7743   */\n      dup3\n        /* \"#utility.yul\":7703:7760   */\n      tag_208\n      jump\t// in\n    tag_263:\n        /* \"#utility.yul\":7610:7770   */\n      pop\n        /* \"#utility.yul\":7856:7860   */\n      0x80\n        /* \"#utility.yul\":7849:7854   */\n      dup4\n        /* \"#utility.yul\":7845:7861   */\n      add\n        /* \"#utility.yul\":7839:7862   */\n      mload\n        /* \"#utility.yul\":7875:7932   */\n      tag_264\n        /* \"#utility.yul\":7926:7930   */\n      0x80\n        /* \"#utility.yul\":7921:7924   */\n      dup7\n        /* \"#utility.yul\":7917:7931   */\n      add\n        /* \"#utility.yul\":7903:7915   */\n      dup3\n        /* \"#utility.yul\":7875:7932   */\n      tag_208\n      jump\t// in\n    tag_264:\n        /* \"#utility.yul\":7780:7942   */\n      pop\n        /* \"#utility.yul\":8025:8029   */\n      0xa0\n        /* \"#utility.yul\":8018:8023   */\n      dup4\n        /* \"#utility.yul\":8014:8030   */\n      add\n        /* \"#utility.yul\":8008:8031   */\n      mload\n        /* \"#utility.yul\":8044:8101   */\n      tag_265\n        /* \"#utility.yul\":8095:8099   */\n      0xa0\n        /* \"#utility.yul\":8090:8093   */\n      dup7\n        /* \"#utility.yul\":8086:8100   */\n      add\n        /* \"#utility.yul\":8072:8084   */\n      dup3\n        /* \"#utility.yul\":8044:8101   */\n      tag_208\n      jump\t// in\n    tag_265:\n        /* \"#utility.yul\":7952:8111   */\n      pop\n        /* \"#utility.yul\":8128:8132   */\n      dup1\n        /* \"#utility.yul\":8121:8132   */\n      swap2\n      pop\n        /* \"#utility.yul\":6878:8138   */\n      pop\n        /* \"#utility.yul\":6736:8138   */\n      swap3\n      swap2\n      pop\n      pop\n      jump\t// out\n        /* \"#utility.yul\":8144:8419   */\n    tag_122:\n        /* \"#utility.yul\":8276:8279   */\n      0x00\n        /* \"#utility.yul\":8298:8393   */\n      tag_267\n        /* \"#utility.yul\":8389:8392   */\n      dup3\n        /* \"#utility.yul\":8380:8386   */\n      dup5\n        /* \"#utility.yul\":8298:8393   */\n      tag_226\n      jump\t// in\n    tag_267:\n        /* \"#utility.yul\":8291:8393   */\n      swap2\n      pop\n        /* \"#utility.yul\":8410:8413   */\n      dup2\n        /* \"#utility.yul\":8403:8413   */\n      swap1\n      pop\n        /* \"#utility.yul\":8144:8419   */\n      swap3\n      swap2\n      pop\n      pop\n      jump\t// out\n        /* \"#utility.yul\":8425:8798   */\n    tag_18:\n        /* \"#utility.yul\":8568:8572   */\n      0x00\n        /* \"#utility.yul\":8606:8608   */\n      0x20\n        /* \"#utility.yul\":8595:8604   */\n      dup3\n        /* \"#utility.yul\":8591:8609   */\n      add\n        /* \"#utility.yul\":8583:8609   */\n      swap1\n      pop\n        /* \"#utility.yul\":8655:8664   */\n      dup2\n        /* \"#utility.yul\":8649:8653   */\n      dup2\n        /* \"#utility.yul\":8645:8665   */\n      sub\n        /* \"#utility.yul\":8641:8642   */\n      0x00\n        /* \"#utility.yul\":8630:8639   */\n      dup4\n        /* \"#utility.yul\":8626:8643   */\n      add\n        /* \"#utility.yul\":8619:8666   */\n      mstore\n        /* \"#utility.yul\":8683:8791   */\n      tag_269\n        /* \"#utility.yul\":8786:8790   */\n      dup2\n        /* \"#utility.yul\":8777:8783   */\n      dup5\n        /* \"#utility.yul\":8683:8791   */\n      tag_194\n      jump\t// in\n    tag_269:\n        /* \"#utility.yul\":8675:8791   */\n      swap1\n      pop\n        /* \"#utility.yul\":8425:8798   */\n      swap3\n      swap2\n      pop\n      pop\n      jump\t// out\n        /* \"#utility.yul\":8804:9026   */\n    tag_36:\n        /* \"#utility.yul\":8897:8901   */\n      0x00\n        /* \"#utility.yul\":8935:8937   */\n      0x20\n        /* \"#utility.yul\":8924:8933   */\n      dup3\n        /* \"#utility.yul\":8920:8938   */\n      add\n        /* \"#utility.yul\":8912:8938   */\n      swap1\n      pop\n        /* \"#utility.yul\":8948:9019   */\n      tag_271\n        /* \"#utility.yul\":9016:9017   */\n      0x00\n        /* \"#utility.yul\":9005:9014   */\n      dup4\n        /* \"#utility.yul\":9001:9018   */\n      add\n        /* \"#utility.yul\":8992:8998   */\n      dup5\n        /* \"#utility.yul\":8948:9019   */\n      tag_212\n      jump\t// in\n    tag_271:\n        /* \"#utility.yul\":8804:9026   */\n      swap3\n      swap2\n      pop\n      pop\n      jump\t// out\n        /* \"#utility.yul\":9032:9451   */\n    tag_52:\n        /* \"#utility.yul\":9198:9202   */\n      0x00\n        /* \"#utility.yul\":9236:9238   */\n      0x20\n        /* \"#utility.yul\":9225:9234   */\n      dup3\n        /* \"#utility.yul\":9221:9239   */\n      add\n        /* \"#utility.yul\":9213:9239   */\n      swap1\n      pop\n        /* \"#utility.yul\":9285:9294   */\n      dup2\n        /* \"#utility.yul\":9279:9283   */\n      dup2\n        /* \"#utility.yul\":9275:9295   */\n      sub\n        /* \"#utility.yul\":9271:9272   */\n      0x00\n        /* \"#utility.yul\":9260:9269   */\n      dup4\n        /* \"#utility.yul\":9256:9273   */\n      add\n        /* \"#utility.yul\":9249:9296   */\n      mstore\n        /* \"#utility.yul\":9313:9444   */\n      tag_273\n        /* \"#utility.yul\":9439:9443   */\n      dup2\n        /* \"#utility.yul\":9313:9444   */\n      tag_232\n      jump\t// in\n    tag_273:\n        /* \"#utility.yul\":9305:9444   */\n      swap1\n      pop\n        /* \"#utility.yul\":9032:9451   */\n      swap2\n      swap1\n      pop\n      jump\t// out\n        /* \"#utility.yul\":9457:9876   */\n    tag_112:\n        /* \"#utility.yul\":9623:9627   */\n      0x00\n        /* \"#utility.yul\":9661:9663   */\n      0x20\n        /* \"#utility.yul\":9650:9659   */\n      dup3\n        /* \"#utility.yul\":9646:9664   */\n      add\n        /* \"#utility.yul\":9638:9664   */\n      swap1\n      pop\n        /* \"#utility.yul\":9710:9719   */\n      dup2\n        /* \"#utility.yul\":9704:9708   */\n      dup2\n        /* \"#utility.yul\":9700:9720   */\n      sub\n        /* \"#utility.yul\":9696:9697   */\n      0x00\n        /* \"#utility.yul\":9685:9694   */\n      dup4\n        /* \"#utility.yul\":9681:9698   */\n      add\n        /* \"#utility.yul\":9674:9721   */\n      mstore\n        /* \"#utility.yul\":9738:9869   */\n      tag_275\n        /* \"#utility.yul\":9864:9868   */\n      dup2\n        /* \"#utility.yul\":9738:9869   */\n      tag_238\n      jump\t// in\n    tag_275:\n        /* \"#utility.yul\":9730:9869   */\n      swap1\n      pop\n        /* \"#utility.yul\":9457:9876   */\n      swap2\n      swap1\n      pop\n      jump\t// out\n        /* \"#utility.yul\":9882:10301   */\n    tag_115:\n        /* \"#utility.yul\":10048:10052   */\n      0x00\n        /* \"#utility.yul\":10086:10088   */\n      0x20\n        /* \"#utility.yul\":10075:10084   */\n      dup3\n        /* \"#utility.yul\":10071:10089   */\n      add\n        /* \"#utility.yul\":10063:10089   */\n      swap1\n      pop\n        /* \"#utility.yul\":10135:10144   */\n      dup2\n        /* \"#utility.yul\":10129:10133   */\n      dup2\n        /* \"#utility.yul\":10125:10145   */\n      sub\n        /* \"#utility.yul\":10121:10122   */\n      0x00\n        /* \"#utility.yul\":10110:10119   */\n      dup4\n        /* \"#utility.yul\":10106:10123   */\n      add\n        /* \"#utility.yul\":10099:10146   */\n      mstore\n        /* \"#utility.yul\":10163:10294   */\n      tag_277\n        /* \"#utility.yul\":10289:10293   */\n      dup2\n        /* \"#utility.yul\":10163:10294   */\n      tag_243\n      jump\t// in\n    tag_277:\n        /* \"#utility.yul\":10155:10294   */\n      swap1\n      pop\n        /* \"#utility.yul\":9882:10301   */\n      swap2\n      swap1\n      pop\n      jump\t// out\n        /* \"#utility.yul\":10307:10726   */\n    tag_48:\n        /* \"#utility.yul\":10473:10477   */\n      0x00\n        /* \"#utility.yul\":10511:10513   */\n      0x20\n        /* \"#utility.yul\":10500:10509   */\n      dup3\n        /* \"#utility.yul\":10496:10514   */\n      add\n        /* \"#utility.yul\":10488:10514   */\n      swap1\n      pop\n        /* \"#utility.yul\":10560:10569   */\n      dup2\n        /* \"#utility.yul\":10554:10558   */\n      dup2\n        /* \"#utility.yul\":10550:10570   */\n      sub\n        /* \"#utility.yul\":10546:10547   */\n      0x00\n        /* \"#utility.yul\":10535:10544   */\n      dup4\n        /* \"#utility.yul\":10531:10548   */\n      add\n        /* \"#utility.yul\":10524:10571   */\n      mstore\n        /* \"#utility.yul\":10588:10719   */\n      tag_279\n        /* \"#utility.yul\":10714:10718   */\n      dup2\n        /* \"#utility.yul\":10588:10719   */\n      tag_248\n      jump\t// in\n    tag_279:\n        /* \"#utility.yul\":10580:10719   */\n      swap1\n      pop\n        /* \"#utility.yul\":10307:10726   */\n      swap2\n      swap1\n      pop\n      jump\t// out\n        /* \"#utility.yul\":10732:11151   */\n    tag_109:\n        /* \"#utility.yul\":10898:10902   */\n      0x00\n        /* \"#utility.yul\":10936:10938   */\n      0x20\n        /* \"#utility.yul\":10925:10934   */\n      dup3\n        /* \"#utility.yul\":10921:10939   */\n      add\n        /* \"#utility.yul\":10913:10939   */\n      swap1\n      pop\n        /* \"#utility.yul\":10985:10994   */\n      dup2\n        /* \"#utility.yul\":10979:10983   */\n      dup2\n        /* \"#utility.yul\":10975:10995   */\n      sub\n        /* \"#utility.yul\":10971:10972   */\n      0x00\n        /* \"#utility.yul\":10960:10969   */\n      dup4\n        /* \"#utility.yul\":10956:10973   */\n      add\n        /* \"#utility.yul\":10949:10996   */\n      mstore\n        /* \"#utility.yul\":11013:11144   */\n      tag_281\n        /* \"#utility.yul\":11139:11143   */\n      dup2\n        /* \"#utility.yul\":11013:11144   */\n      tag_253\n      jump\t// in\n    tag_281:\n        /* \"#utility.yul\":11005:11144   */\n      swap1\n      pop\n        /* \"#utility.yul\":10732:11151   */\n      swap2\n      swap1\n      pop\n      jump\t// out\n        /* \"#utility.yul\":11157:11566   */\n    tag_26:\n        /* \"#utility.yul\":11318:11322   */\n      0x00\n        /* \"#utility.yul\":11356:11358   */\n      0x20\n        /* \"#utility.yul\":11345:11354   */\n      dup3\n        /* \"#utility.yul\":11341:11359   */\n      add\n        /* \"#utility.yul\":11333:11359   */\n      swap1\n      pop\n        /* \"#utility.yul\":11405:11414   */\n      dup2\n        /* \"#utility.yul\":11399:11403   */\n      dup2\n        /* \"#utility.yul\":11395:11415   */\n      sub\n        /* \"#utility.yul\":11391:11392   */\n      0x00\n        /* \"#utility.yul\":11380:11389   */\n      dup4\n        /* \"#utility.yul\":11376:11393   */\n      add\n        /* \"#utility.yul\":11369:11416   */\n      mstore\n        /* \"#utility.yul\":11433:11559   */\n      tag_283\n        /* \"#utility.yul\":11554:11558   */\n      dup2\n        /* \"#utility.yul\":11545:11551   */\n      dup5\n        /* \"#utility.yul\":11433:11559   */\n      tag_258\n      jump\t// in\n    tag_283:\n        /* \"#utility.yul\":11425:11559   */\n      swap1\n      pop\n        /* \"#utility.yul\":11157:11566   */\n      swap3\n      swap2\n      pop\n      pop\n      jump\t// out\n        /* \"#utility.yul\":11572:11701   */\n    tag_149:\n        /* \"#utility.yul\":11606:11612   */\n      0x00\n        /* \"#utility.yul\":11633:11653   */\n      tag_285\n      tag_286\n      jump\t// in\n    tag_285:\n        /* \"#utility.yul\":11623:11653   */\n      swap1\n      pop\n        /* \"#utility.yul\":11662:11695   */\n      tag_287\n        /* \"#utility.yul\":11690:11694   */\n      dup3\n        /* \"#utility.yul\":11682:11688   */\n      dup3\n        /* \"#utility.yul\":11662:11695   */\n      tag_288\n      jump\t// in\n    tag_287:\n        /* \"#utility.yul\":11572:11701   */\n      swap2\n      swap1\n      pop\n      jump\t// out\n        /* \"#utility.yul\":11707:11782   */\n    tag_286:\n        /* \"#utility.yul\":11740:11746   */\n      0x00\n        /* \"#utility.yul\":11773:11775   */\n      0x40\n        /* \"#utility.yul\":11767:11776   */\n      mload\n        /* \"#utility.yul\":11757:11776   */\n      swap1\n      pop\n        /* \"#utility.yul\":11707:11782   */\n      swap1\n      jump\t// out\n        /* \"#utility.yul\":11788:12096   */\n    tag_148:\n        /* \"#utility.yul\":11850:11854   */\n      0x00\n        /* \"#utility.yul\":11940:11958   */\n      0xffffffffffffffff\n        /* \"#utility.yul\":11932:11938   */\n      dup3\n        /* \"#utility.yul\":11929:11959   */\n      gt\n        /* \"#utility.yul\":11926:11982   */\n      iszero\n      tag_291\n      jumpi\n        /* \"#utility.yul\":11962:11980   */\n      tag_292\n      tag_293\n      jump\t// in\n    tag_292:\n        /* \"#utility.yul\":11926:11982   */\n    tag_291:\n        /* \"#utility.yul\":12000:12029   */\n      tag_294\n        /* \"#utility.yul\":12022:12028   */\n      dup3\n        /* \"#utility.yul\":12000:12029   */\n      tag_225\n      jump\t// in\n    tag_294:\n        /* \"#utility.yul\":11992:12029   */\n      swap1\n      pop\n        /* \"#utility.yul\":12084:12088   */\n      0x20\n        /* \"#utility.yul\":12078:12082   */\n      dup2\n        /* \"#utility.yul\":12074:12089   */\n      add\n        /* \"#utility.yul\":12066:12089   */\n      swap1\n      pop\n        /* \"#utility.yul\":11788:12096   */\n      swap2\n      swap1\n      pop\n      jump\t// out\n        /* \"#utility.yul\":12102:12234   */\n    tag_201:\n        /* \"#utility.yul\":12169:12173   */\n      0x00\n        /* \"#utility.yul\":12192:12195   */\n      dup2\n        /* \"#utility.yul\":12184:12195   */\n      swap1\n      pop\n        /* \"#utility.yul\":12222:12226   */\n      0x20\n        /* \"#utility.yul\":12217:12220   */\n      dup3\n        /* \"#utility.yul\":12213:12227   */\n      add\n        /* \"#utility.yul\":12205:12227   */\n      swap1\n      pop\n        /* \"#utility.yul\":12102:12234   */\n      swap2\n      swap1\n      pop\n      jump\t// out\n        /* \"#utility.yul\":12240:12354   */\n    tag_197:\n        /* \"#utility.yul\":12307:12313   */\n      0x00\n        /* \"#utility.yul\":12341:12346   */\n      dup2\n        /* \"#utility.yul\":12335:12347   */\n      mload\n        /* \"#utility.yul\":12325:12347   */\n      swap1\n      pop\n        /* \"#utility.yul\":12240:12354   */\n      swap2\n      swap1\n      pop\n      jump\t// out\n        /* \"#utility.yul\":12360:12459   */\n    tag_219:\n        /* \"#utility.yul\":12412:12418   */\n      0x00\n        /* \"#utility.yul\":12446:12451   */\n      dup2\n        /* \"#utility.yul\":12440:12452   */\n      mload\n        /* \"#utility.yul\":12430:12452   */\n      swap1\n      pop\n        /* \"#utility.yul\":12360:12459   */\n      swap2\n      swap1\n      pop\n      jump\t// out\n        /* \"#utility.yul\":12465:12578   */\n    tag_207:\n        /* \"#utility.yul\":12535:12539   */\n      0x00\n        /* \"#utility.yul\":12567:12571   */\n      0x20\n        /* \"#utility.yul\":12562:12565   */\n      dup3\n        /* \"#utility.yul\":12558:12572   */\n      add\n        /* \"#utility.yul\":12550:12572   */\n      swap1\n      pop\n        /* \"#utility.yul\":12465:12578   */\n      swap2\n      swap1\n      pop\n      jump\t// out\n        /* \"#utility.yul\":12584:12768   */\n    tag_199:\n        /* \"#utility.yul\":12683:12694   */\n      0x00\n        /* \"#utility.yul\":12717:12723   */\n      dup3\n        /* \"#utility.yul\":12712:12715   */\n      dup3\n        /* \"#utility.yul\":12705:12724   */\n      mstore\n        /* \"#utility.yul\":12757:12761   */\n      0x20\n        /* \"#utility.yul\":12752:12755   */\n      dup3\n        /* \"#utility.yul\":12748:12762   */\n      add\n        /* \"#utility.yul\":12733:12762   */\n      swap1\n      pop\n        /* \"#utility.yul\":12584:12768   */\n      swap3\n      swap2\n      pop\n      pop\n      jump\t// out\n        /* \"#utility.yul\":12774:12933   */\n    tag_221:\n        /* \"#utility.yul\":12848:12859   */\n      0x00\n        /* \"#utility.yul\":12882:12888   */\n      dup3\n        /* \"#utility.yul\":12877:12880   */\n      dup3\n        /* \"#utility.yul\":12870:12889   */\n      mstore\n        /* \"#utility.yul\":12922:12926   */\n      0x20\n        /* \"#utility.yul\":12917:12920   */\n      dup3\n        /* \"#utility.yul\":12913:12927   */\n      add\n        /* \"#utility.yul\":12898:12927   */\n      swap1\n      pop\n        /* \"#utility.yul\":12774:12933   */\n      swap3\n      swap2\n      pop\n      pop\n      jump\t// out\n        /* \"#utility.yul\":12939:13108   */\n    tag_235:\n        /* \"#utility.yul\":13023:13034   */\n      0x00\n        /* \"#utility.yul\":13057:13063   */\n      dup3\n        /* \"#utility.yul\":13052:13055   */\n      dup3\n        /* \"#utility.yul\":13045:13064   */\n      mstore\n        /* \"#utility.yul\":13097:13101   */\n      0x20\n        /* \"#utility.yul\":13092:13095   */\n      dup3\n        /* \"#utility.yul\":13088:13102   */\n      add\n        /* \"#utility.yul\":13073:13102   */\n      swap1\n      pop\n        /* \"#utility.yul\":12939:13108   */\n      swap3\n      swap2\n      pop\n      pop\n      jump\t// out\n        /* \"#utility.yul\":13114:13262   */\n    tag_230:\n        /* \"#utility.yul\":13216:13227   */\n      0x00\n        /* \"#utility.yul\":13253:13256   */\n      dup2\n        /* \"#utility.yul\":13238:13256   */\n      swap1\n      pop\n        /* \"#utility.yul\":13114:13262   */\n      swap3\n      swap2\n      pop\n      pop\n      jump\t// out\n        /* \"#utility.yul\":13268:13364   */\n    tag_193:\n        /* \"#utility.yul\":13305:13312   */\n      0x00\n        /* \"#utility.yul\":13334:13358   */\n      tag_304\n        /* \"#utility.yul\":13352:13357   */\n      dup3\n        /* \"#utility.yul\":13334:13358   */\n      tag_305\n      jump\t// in\n    tag_304:\n        /* \"#utility.yul\":13323:13358   */\n      swap1\n      pop\n        /* \"#utility.yul\":13268:13364   */\n      swap2\n      swap1\n      pop\n      jump\t// out\n        /* \"#utility.yul\":13370:13460   */\n    tag_211:\n        /* \"#utility.yul\":13404:13411   */\n      0x00\n        /* \"#utility.yul\":13447:13452   */\n      dup2\n        /* \"#utility.yul\":13440:13453   */\n      iszero\n        /* \"#utility.yul\":13433:13454   */\n      iszero\n        /* \"#utility.yul\":13422:13454   */\n      swap1\n      pop\n        /* \"#utility.yul\":13370:13460   */\n      swap2\n      swap1\n      pop\n      jump\t// out\n        /* \"#utility.yul\":13466:13543   */\n    tag_215:\n        /* \"#utility.yul\":13503:13510   */\n      0x00\n        /* \"#utility.yul\":13532:13537   */\n      dup2\n        /* \"#utility.yul\":13521:13537   */\n      swap1\n      pop\n        /* \"#utility.yul\":13466:13543   */\n      swap2\n      swap1\n      pop\n      jump\t// out\n        /* \"#utility.yul\":13549:13675   */\n    tag_305:\n        /* \"#utility.yul\":13586:13593   */\n      0x00\n        /* \"#utility.yul\":13626:13668   */\n      0xffffffffffffffffffffffffffffffffffffffff\n        /* \"#utility.yul\":13619:13624   */\n      dup3\n        /* \"#utility.yul\":13615:13669   */\n      and\n        /* \"#utility.yul\":13604:13669   */\n      swap1\n      pop\n        /* \"#utility.yul\":13549:13675   */\n      swap2\n      swap1\n      pop\n      jump\t// out\n        /* \"#utility.yul\":13681:13758   */\n    tag_309:\n        /* \"#utility.yul\":13718:13725   */\n      0x00\n        /* \"#utility.yul\":13747:13752   */\n      dup2\n        /* \"#utility.yul\":13736:13752   */\n      swap1\n      pop\n        /* \"#utility.yul\":13681:13758   */\n      swap2\n      swap1\n      pop\n      jump\t// out\n        /* \"#utility.yul\":13764:13918   */\n    tag_154:\n        /* \"#utility.yul\":13848:13854   */\n      dup3\n        /* \"#utility.yul\":13843:13846   */\n      dup2\n        /* \"#utility.yul\":13838:13841   */\n      dup4\n        /* \"#utility.yul\":13825:13855   */\n      calldatacopy\n        /* \"#utility.yul\":13910:13911   */\n      0x00\n        /* \"#utility.yul\":13901:13907   */\n      dup4\n        /* \"#utility.yul\":13896:13899   */\n      dup4\n        /* \"#utility.yul\":13892:13908   */\n      add\n        /* \"#utility.yul\":13885:13912   */\n      mstore\n        /* \"#utility.yul\":13764:13918   */\n      pop\n      pop\n      pop\n      jump\t// out\n        /* \"#utility.yul\":13924:14231   */\n    tag_223:\n        /* \"#utility.yul\":13992:13993   */\n      0x00\n        /* \"#utility.yul\":14002:14115   */\n    tag_313:\n        /* \"#utility.yul\":14016:14022   */\n      dup4\n        /* \"#utility.yul\":14013:14014   */\n      dup2\n        /* \"#utility.yul\":14010:14023   */\n      lt\n        /* \"#utility.yul\":14002:14115   */\n      iszero\n      tag_315\n      jumpi\n        /* \"#utility.yul\":14101:14102   */\n      dup1\n        /* \"#utility.yul\":14096:14099   */\n      dup3\n        /* \"#utility.yul\":14092:14103   */\n      add\n        /* \"#utility.yul\":14086:14104   */\n      mload\n        /* \"#utility.yul\":14082:14083   */\n      dup2\n        /* \"#utility.yul\":14077:14080   */\n      dup5\n        /* \"#utility.yul\":14073:14084   */\n      add\n        /* \"#utility.yul\":14066:14105   */\n      mstore\n        /* \"#utility.yul\":14038:14040   */\n      0x20\n        /* \"#utility.yul\":14035:14036   */\n      dup2\n        /* \"#utility.yul\":14031:14041   */\n      add\n        /* \"#utility.yul\":14026:14041   */\n      swap1\n      pop\n        /* \"#utility.yul\":14002:14115   */\n      jump(tag_313)\n    tag_315:\n        /* \"#utility.yul\":14133:14139   */\n      dup4\n        /* \"#utility.yul\":14130:14131   */\n      dup2\n        /* \"#utility.yul\":14127:14140   */\n      gt\n        /* \"#utility.yul\":14124:14225   */\n      iszero\n      tag_316\n      jumpi\n        /* \"#utility.yul\":14213:14214   */\n      0x00\n        /* \"#utility.yul\":14204:14210   */\n      dup5\n        /* \"#utility.yul\":14199:14202   */\n      dup5\n        /* \"#utility.yul\":14195:14211   */\n      add\n        /* \"#utility.yul\":14188:14215   */\n      mstore\n        /* \"#utility.yul\":14124:14225   */\n    tag_316:\n        /* \"#utility.yul\":13973:14231   */\n      pop\n        /* \"#utility.yul\":13924:14231   */\n      pop\n      pop\n      pop\n      jump\t// out\n        /* \"#utility.yul\":14237:14557   */\n    tag_95:\n        /* \"#utility.yul\":14281:14287   */\n      0x00\n        /* \"#utility.yul\":14318:14319   */\n      0x02\n        /* \"#utility.yul\":14312:14316   */\n      dup3\n        /* \"#utility.yul\":14308:14320   */\n      div\n        /* \"#utility.yul\":14298:14320   */\n      swap1\n      pop\n        /* \"#utility.yul\":14365:14366   */\n      0x01\n        /* \"#utility.yul\":14359:14363   */\n      dup3\n        /* \"#utility.yul\":14355:14367   */\n      and\n        /* \"#utility.yul\":14386:14404   */\n      dup1\n        /* \"#utility.yul\":14376:14457   */\n      tag_318\n      jumpi\n        /* \"#utility.yul\":14442:14446   */\n      0x7f\n        /* \"#utility.yul\":14434:14440   */\n      dup3\n        /* \"#utility.yul\":14430:14447   */\n      and\n        /* \"#utility.yul\":14420:14447   */\n      swap2\n      pop\n        /* \"#utility.yul\":14376:14457   */\n    tag_318:\n        /* \"#utility.yul\":14504:14506   */\n      0x20\n        /* \"#utility.yul\":14496:14502   */\n      dup3\n        /* \"#utility.yul\":14493:14507   */\n      lt\n        /* \"#utility.yul\":14473:14491   */\n      dup2\n        /* \"#utility.yul\":14470:14508   */\n      eq\n        /* \"#utility.yul\":14467:14551   */\n      iszero\n      tag_319\n      jumpi\n        /* \"#utility.yul\":14523:14541   */\n      tag_320\n      tag_321\n      jump\t// in\n    tag_320:\n        /* \"#utility.yul\":14467:14551   */\n    tag_319:\n        /* \"#utility.yul\":14288:14557   */\n      pop\n        /* \"#utility.yul\":14237:14557   */\n      swap2\n      swap1\n      pop\n      jump\t// out\n        /* \"#utility.yul\":14563:14844   */\n    tag_288:\n        /* \"#utility.yul\":14646:14673   */\n      tag_323\n        /* \"#utility.yul\":14668:14672   */\n      dup3\n        /* \"#utility.yul\":14646:14673   */\n      tag_225\n      jump\t// in\n    tag_323:\n        /* \"#utility.yul\":14638:14644   */\n      dup2\n        /* \"#utility.yul\":14634:14674   */\n      add\n        /* \"#utility.yul\":14776:14782   */\n      dup2\n        /* \"#utility.yul\":14764:14774   */\n      dup2\n        /* \"#utility.yul\":14761:14783   */\n      lt\n        /* \"#utility.yul\":14740:14758   */\n      0xffffffffffffffff\n        /* \"#utility.yul\":14728:14738   */\n      dup3\n        /* \"#utility.yul\":14725:14759   */\n      gt\n        /* \"#utility.yul\":14722:14784   */\n      or\n        /* \"#utility.yul\":14719:14807   */\n      iszero\n      tag_324\n      jumpi\n        /* \"#utility.yul\":14787:14805   */\n      tag_325\n      tag_293\n      jump\t// in\n    tag_325:\n        /* \"#utility.yul\":14719:14807   */\n    tag_324:\n        /* \"#utility.yul\":14827:14837   */\n      dup1\n        /* \"#utility.yul\":14823:14825   */\n      0x40\n        /* \"#utility.yul\":14816:14838   */\n      mstore\n        /* \"#utility.yul\":14606:14844   */\n      pop\n        /* \"#utility.yul\":14563:14844   */\n      pop\n      pop\n      jump\t// out\n        /* \"#utility.yul\":14850:15083   */\n    tag_72:\n        /* \"#utility.yul\":14889:14892   */\n      0x00\n        /* \"#utility.yul\":14912:14936   */\n      tag_327\n        /* \"#utility.yul\":14930:14935   */\n      dup3\n        /* \"#utility.yul\":14912:14936   */\n      tag_309\n      jump\t// in\n    tag_327:\n        /* \"#utility.yul\":14903:14936   */\n      swap2\n      pop\n        /* \"#utility.yul\":14958:15024   */\n      0xffffffffffffffffffffffffffffffffffffffffffffffffffffffffffffffff\n        /* \"#utility.yul\":14951:14956   */\n      dup3\n        /* \"#utility.yul\":14948:15025   */\n      eq\n        /* \"#utility.yul\":14945:15048   */\n      iszero\n      tag_328\n      jumpi\n        /* \"#utility.yul\":15028:15046   */\n      tag_329\n      tag_330\n      jump\t// in\n    tag_329:\n        /* \"#utility.yul\":14945:15048   */\n    tag_328:\n        /* \"#utility.yul\":15075:15076   */\n      0x01\n        /* \"#utility.yul\":15068:15073   */\n      dup3\n        /* \"#utility.yul\":15064:15077   */\n      add\n        /* \"#utility.yul\":15057:15077   */\n      swap1\n      pop\n        /* \"#utility.yul\":14850:15083   */\n      swap2\n      swap1\n      pop\n      jump\t// out\n        /* \"#utility.yul\":15089:15269   */\n    tag_330:\n        /* \"#utility.yul\":15137:15214   */\n      0x4e487b7100000000000000000000000000000000000000000000000000000000\n        /* \"#utility.yul\":15134:15135   */\n      0x00\n        /* \"#utility.yul\":15127:15215   */\n      mstore\n        /* \"#utility.yul\":15234:15238   */\n      0x11\n        /* \"#utility.yul\":15231:15232   */\n      0x04\n        /* \"#utility.yul\":15224:15239   */\n      mstore\n        /* \"#utility.yul\":15258:15262   */\n      0x24\n        /* \"#utility.yul\":15255:15256   */\n      0x00\n        /* \"#utility.yul\":15248:15263   */\n      revert\n        /* \"#utility.yul\":15275:15455   */\n    tag_43:\n        /* \"#utility.yul\":15323:15400   */\n      0x4e487b7100000000000000000000000000000000000000000000000000000000\n        /* \"#utility.yul\":15320:15321   */\n      0x00\n        /* \"#utility.yul\":15313:15401   */\n      mstore\n        /* \"#utility.yul\":15420:15424   */\n      0x21\n        /* \"#utility.yul\":15417:15418   */\n      0x04\n        /* \"#utility.yul\":15410:15425   */\n      mstore\n        /* \"#utility.yul\":15444:15448   */\n      0x24\n        /* \"#utility.yul\":15441:15442   */\n      0x00\n        /* \"#utility.yul\":15434:15449   */\n      revert\n        /* \"#utility.yul\":15461:15641   */\n    tag_321:\n        /* \"#utility.yul\":15509:15586   */\n      0x4e487b7100000000000000000000000000000000000000000000000000000000\n        /* \"#utility.yul\":15506:15507   */\n      0x00\n        /* \"#utility.yul\":15499:15587   */\n      mstore\n        /* \"#utility.yul\":15606:15610   */\n      0x22\n        /* \"#utility.yul\":15603:15604   */\n      0x04\n        /* \"#utility.yul\":15596:15611   */\n      mstore\n        /* \"#utility.yul\":15630:15634   */\n      0x24\n        /* \"#utility.yul\":15627:15628   */\n      0x00\n        /* \"#utility.yul\":15620:15635   */\n      revert\n        /* \"#utility.yul\":15647:15827   */\n    tag_66:\n        /* \"#utility.yul\":15695:15772   */\n      0x4e487b7100000000000000000000000000000000000000000000000000000000\n        /* \"#utility.yul\":15692:15693   */\n      0x00\n        /* \"#utility.yul\":15685:15773   */\n      mstore\n        /* \"#utility.yul\":15792:15796   */\n      0x32\n        /* \"#utility.yul\":15789:15790   */\n      0x04\n        /* \"#utility.yul\":15782:15797   */\n      mstore\n        /* \"#utility.yul\":15816:15820   */\n      0x24\n        /* \"#utility.yul\":15813:15814   */\n      0x00\n        /* \"#utility.yul\":15806:15821   */\n      revert\n        /* \"#utility.yul\":15833:16013   */\n    tag_293:\n        /* \"#utility.yul\":15881:15958   */\n      0x4e487b7100000000000000000000000000000000000000000000000000000000\n        /* \"#utility.yul\":15878:15879   */\n      0x00\n        /* \"#utility.yul\":15871:15959   */\n      mstore\n        /* \"#utility.yul\":15978:15982   */\n      0x41\n        /* \"#utility.yul\":15975:15976   */\n      0x04\n        /* \"#utility.yul\":15968:15983   */\n      mstore\n        /* \"#utility.yul\":16002:16006   */\n      0x24\n        /* \"#utility.yul\":15999:16000   */\n      0x00\n        /* \"#utility.yul\":15992:16007   */\n      revert\n        /* \"#utility.yul\":16019:16136   */\n    tag_163:\n        /* \"#utility.yul\":16128:16129   */\n      0x00\n        /* \"#utility.yul\":16125:16126   */\n      dup1\n        /* \"#utility.yul\":16118:16130   */\n      revert\n        /* \"#utility.yul\":16142:16259   */\n    tag_152:\n        /* \"#utility.yul\":16251:16252   */\n      0x00\n        /* \"#utility.yul\":16248:16249   */\n      dup1\n        /* \"#utility.yul\":16241:16253   */\n      revert\n        /* \"#utility.yul\":16265:16382   */\n    tag_175:\n        /* \"#utility.yul\":16374:16375   */\n      0x00\n        /* \"#utility.yul\":16371:16372   */\n      dup1\n        /* \"#utility.yul\":16364:16376   */\n      revert\n        /* \"#utility.yul\":16388:16505   */\n    tag_168:\n        /* \"#utility.yul\":16497:16498   */\n      0x00\n        /* \"#utility.yul\":16494:16495   */\n      dup1\n        /* \"#utility.yul\":16487:16499   */\n      revert\n        /* \"#utility.yul\":16511:16613   */\n    tag_225:\n        /* \"#utility.yul\":16552:16558   */\n      0x00\n        /* \"#utility.yul\":16603:16605   */\n      0x1f\n        /* \"#utility.yul\":16599:16606   */\n      not\n        /* \"#utility.yul\":16594:16596   */\n      0x1f\n        /* \"#utility.yul\":16587:16592   */\n      dup4\n        /* \"#utility.yul\":16583:16597   */\n      add\n        /* \"#utility.yul\":16579:16607   */\n      and\n        /* \"#utility.yul\":16569:16607   */\n      swap1\n      pop\n        /* \"#utility.yul\":16511:16613   */\n      swap2\n      swap1\n      pop\n      jump\t// out\n        /* \"#utility.yul\":16619:16797   */\n    tag_237:\n        /* \"#utility.yul\":16759:16789   */\n      0x52657669657720746865206170706c69636174696f6e20666972737400000000\n        /* \"#utility.yul\":16755:16756   */\n      0x00\n        /* \"#utility.yul\":16747:16753   */\n      dup3\n        /* \"#utility.yul\":16743:16757   */\n      add\n        /* \"#utility.yul\":16736:16790   */\n      mstore\n        /* \"#utility.yul\":16619:16797   */\n      pop\n      jump\t// out\n        /* \"#utility.yul\":16803:16977   */\n    tag_242:\n        /* \"#utility.yul\":16943:16969   */\n      0x4170706c69636174696f6e20616c72656164792073656e740000000000000000\n        /* \"#utility.yul\":16939:16940   */\n      0x00\n        /* \"#utility.yul\":16931:16937   */\n      dup3\n        /* \"#utility.yul\":16927:16941   */\n      add\n        /* \"#utility.yul\":16920:16970   */\n      mstore\n        /* \"#utility.yul\":16803:16977   */\n      pop\n      jump\t// out\n        /* \"#utility.yul\":16983:17212   */\n    tag_247:\n        /* \"#utility.yul\":17123:17157   */\n      0x596f7572206170706c69636174696f6e2068617320616c726561647920626565\n        /* \"#utility.yul\":17119:17120   */\n      0x00\n        /* \"#utility.yul\":17111:17117   */\n      dup3\n        /* \"#utility.yul\":17107:17121   */\n      add\n        /* \"#utility.yul\":17100:17158   */\n      mstore\n        /* \"#utility.yul\":17192:17204   */\n      0x6e2072656a656374656400000000000000000000000000000000000000000000\n        /* \"#utility.yul\":17187:17189   */\n      0x20\n        /* \"#utility.yul\":17179:17185   */\n      dup3\n        /* \"#utility.yul\":17175:17190   */\n      add\n        /* \"#utility.yul\":17168:17205   */\n      mstore\n        /* \"#utility.yul\":16983:17212   */\n      pop\n      jump\t// out\n        /* \"#utility.yul\":17218:17393   */\n    tag_252:\n        /* \"#utility.yul\":17358:17385   */\n      0x596f7572206e6f7420507269766174652070726f766964657200000000000000\n        /* \"#utility.yul\":17354:17355   */\n      0x00\n        /* \"#utility.yul\":17346:17352   */\n      dup3\n        /* \"#utility.yul\":17342:17356   */\n      add\n        /* \"#utility.yul\":17335:17386   */\n      mstore\n        /* \"#utility.yul\":17218:17393   */\n      pop\n      jump\t// out\n        /* \"#utility.yul\":17399:17572   */\n    tag_257:\n        /* \"#utility.yul\":17539:17564   */\n      0x4170706c69636174696f6e20706861736520656e646564000000000000000000\n        /* \"#utility.yul\":17535:17536   */\n      0x00\n        /* \"#utility.yul\":17527:17533   */\n      dup3\n        /* \"#utility.yul\":17523:17537   */\n      add\n        /* \"#utility.yul\":17516:17565   */\n      mstore\n        /* \"#utility.yul\":17399:17572   */\n      pop\n      jump\t// out\n        /* \"#utility.yul\":17578:17700   */\n    tag_158:\n        /* \"#utility.yul\":17651:17675   */\n      tag_347\n        /* \"#utility.yul\":17669:17674   */\n      dup2\n        /* \"#utility.yul\":17651:17675   */\n      tag_193\n      jump\t// in\n    tag_347:\n        /* \"#utility.yul\":17644:17649   */\n      dup2\n        /* \"#utility.yul\":17641:17676   */\n      eq\n        /* \"#utility.yul\":17631:17694   */\n      tag_348\n      jumpi\n        /* \"#utility.yul\":17690:17691   */\n      0x00\n        /* \"#utility.yul\":17687:17688   */\n      dup1\n        /* \"#utility.yul\":17680:17692   */\n      revert\n        /* \"#utility.yul\":17631:17694   */\n    tag_348:\n        /* \"#utility.yul\":17578:17700   */\n      pop\n      jump\t// out\n\n    auxdata: 0xa2646970667358221220d80f91446f5bad33ae6e714e7600d04647690a23ddb6d6c2d2b3b3f856fdcdbe64736f6c63430008070033\n}\n",
				"bytecode": {
					"linkReferences": {},
					"object": "608060405234801561001057600080fd5b506119a2806100206000396000f3fe608060405234801561001057600080fd5b506004361061007d5760003560e01c806376eada911161005b57806376eada91146100da578063785963c31461010a5780638e4f8c6b14610126578063a678b65b146101565761007d565b80631d3eea3514610082578063506a222c1461009e578063686c4cea146100bc575b600080fd5b61009c600480360381019061009791906110e8565b610172565b005b6100a661031b565b6040516100b3919061144c565b60405180910390f35b6100c46104fe565b6040516100d1919061144c565b60405180910390f35b6100f460048036038101906100ef91906110e8565b610641565b6040516101019190611529565b60405180910390f35b610124600480360381019061011f919061115e565b610975565b005b610140600480360381019061013b9190611115565b610d95565b60405161014d919061146e565b60405180910390f35b610170600480360381019061016b91906110e8565b610dc5565b005b6002600481111561018657610185611781565b5b6000803373ffffffffffffffffffffffffffffffffffffffff1673ffffffffffffffffffffffffffffffffffffffff16815260200190815260200160002060000160009054906101000a900460ff1660048111156101e7576101e6611781565b5b14610227576040517f08c379a000000000000000000000000000000000000000000000000000000000815260040161021e906114e9565b60405180910390fd5b60001515600260003373ffffffffffffffffffffffffffffffffffffffff1673ffffffffffffffffffffffffffffffffffffffff16815260200190815260200160002060020160159054906101000a900460ff161515146102bd576040517f08c379a00000000000000000000000000000000000000000000000000000000081526004016102b490611489565b60405180910390fd5b6000600260008373ffffffffffffffffffffffffffffffffffffffff1673ffffffffffffffffffffffffffffffffffffffff16815260200190815260200160002060020160146101000a81548160ff02191690831515021790555050565b60606002600481111561033157610330611781565b5b6000803373ffffffffffffffffffffffffffffffffffffffff1673ffffffffffffffffffffffffffffffffffffffff16815260200190815260200160002060000160009054906101000a900460ff16600481111561039257610391611781565b5b146103d2576040517f08c379a00000000000000000000000000000000000000000000000000000000081526004016103c9906114e9565b60405180910390fd5b606060005b6003805490508110156104f657600080600383815481106103fb576103fa6117df565b5b9060005260206000200160009054906101000a900473ffffffffffffffffffffffffffffffffffffffff16905060001515600260008373ffffffffffffffffffffffffffffffffffffffff1673ffffffffffffffffffffffffffffffffffffffff16815260200190815260200160002060020160159054906101000a900460ff16151514156104e15780848381518110610498576104976117df565b5b602002602001019073ffffffffffffffffffffffffffffffffffffffff16908173ffffffffffffffffffffffffffffffffffffffff168152505081806104dd90611709565b9250505b505080806104ee90611709565b9150506103d7565b508091505090565b60606002600481111561051457610513611781565b5b6000803373ffffffffffffffffffffffffffffffffffffffff1673ffffffffffffffffffffffffffffffffffffffff16815260200190815260200160002060000160009054906101000a900460ff16600481111561057557610574611781565b5b146105b5576040517f08c379a00000000000000000000000000000000000000000000000000000000081526004016105ac906114e9565b60405180910390fd5b600380548060200260200160405190810160405280929190818152602001828054801561063757602002820191906000526020600020905b8160009054906101000a900473ffffffffffffffffffffffffffffffffffffffff1673ffffffffffffffffffffffffffffffffffffffff16815260200190600101908083116105ed575b5050505050905090565b610649610f6e565b6002600481111561065d5761065c611781565b5b6000803373ffffffffffffffffffffffffffffffffffffffff1673ffffffffffffffffffffffffffffffffffffffff16815260200190815260200160002060000160009054906101000a900460ff1660048111156106be576106bd611781565b5b146106fe576040517f08c379a00000000000000000000000000000000000000000000000000000000081526004016106f5906114e9565b60405180910390fd5b6001600260008473ffffffffffffffffffffffffffffffffffffffff1673ffffffffffffffffffffffffffffffffffffffff16815260200190815260200160002060020160156101000a81548160ff021916908315150217905550600260008373ffffffffffffffffffffffffffffffffffffffff1673ffffffffffffffffffffffffffffffffffffffff1681526020019081526020016000206040518060c00160405290816000820180546107b3906116a6565b80601f01602080910402602001604051908101604052809291908181526020018280546107df906116a6565b801561082c5780601f106108015761010080835404028352916020019161082c565b820191906000526020600020905b81548152906001019060200180831161080f57829003601f168201915b50505050508152602001600182018054610845906116a6565b80601f0160208091040260200160405190810160405280929190818152602001828054610871906116a6565b80156108be5780601f10610893576101008083540402835291602001916108be565b820191906000526020600020905b8154815290600101906020018083116108a157829003601f168201915b505050505081526020016002820160009054906101000a900473ffffffffffffffffffffffffffffffffffffffff1673ffffffffffffffffffffffffffffffffffffffff1673ffffffffffffffffffffffffffffffffffffffff1681526020016002820160149054906101000a900460ff161515151581526020016002820160159054906101000a900460ff161515151581526020016002820160169054906101000a900460ff1615151515815250509050919050565b600015156001600073ab8483f64d9c6d1ecf9b849ae677dd3315835cb273ffffffffffffffffffffffffffffffffffffffff1673ffffffffffffffffffffffffffffffffffffffff16815260200190815260200160002060000160009054906101000a900460ff161515148015610a535750600015156001600073ab8483f64d9c6d1ecf9b849ae677dd3315835cb273ffffffffffffffffffffffffffffffffffffffff1673ffffffffffffffffffffffffffffffffffffffff16815260200190815260200160002060000160009054906101000a900460ff161515145b610a92576040517f08c379a0000000000000000000000000000000000000000000000000000000008152600401610a8990611509565b60405180910390fd5b60011515600260003373ffffffffffffffffffffffffffffffffffffffff1673ffffffffffffffffffffffffffffffffffffffff16815260200190815260200160002060020160169054906101000a900460ff16151514610b28576040517f08c379a0000000000000000000000000000000000000000000000000000000008152600401610b1f906114a9565b60405180910390fd5b60001515600260003373ffffffffffffffffffffffffffffffffffffffff1673ffffffffffffffffffffffffffffffffffffffff16815260200190815260200160002060020160149054906101000a900460ff16151514610bbe576040517f08c379a0000000000000000000000000000000000000000000000000000000008152600401610bb5906114c9565b60405180910390fd5b6040518060c001604052808481526020018381526020018273ffffffffffffffffffffffffffffffffffffffff16815260200160011515815260200160001515815260200160011515815250600260003373ffffffffffffffffffffffffffffffffffffffff1673ffffffffffffffffffffffffffffffffffffffff1681526020019081526020016000206000820151816000019080519060200190610c65929190610fc0565b506020820151816001019080519060200190610c82929190610fc0565b5060408201518160020160006101000a81548173ffffffffffffffffffffffffffffffffffffffff021916908373ffffffffffffffffffffffffffffffffffffffff16021790555060608201518160020160146101000a81548160ff02191690831515021790555060808201518160020160156101000a81548160ff02191690831515021790555060a08201518160020160166101000a81548160ff0219169083151502179055509050506003339080600181540180825580915050600190039060005260206000200160009091909190916101000a81548173ffffffffffffffffffffffffffffffffffffffff021916908373ffffffffffffffffffffffffffffffffffffffff160217905550505050565b600081604051602001610da89190611435565b604051602081830303815290604052805190602001209050919050565b60026004811115610dd957610dd8611781565b5b6000803373ffffffffffffffffffffffffffffffffffffffff1673ffffffffffffffffffffffffffffffffffffffff16815260200190815260200160002060000160009054906101000a900460ff166004811115610e3a57610e39611781565b5b14610e7a576040517f08c379a0000000000000000000000000000000000000000000000000000000008152600401610e71906114e9565b60405180910390fd5b60001515600260003373ffffffffffffffffffffffffffffffffffffffff1673ffffffffffffffffffffffffffffffffffffffff16815260200190815260200160002060020160159054906101000a900460ff16151514610f10576040517f08c379a0000000000000000000000000000000000000000000000000000000008152600401610f0790611489565b60405180910390fd5b6000600260008373ffffffffffffffffffffffffffffffffffffffff1673ffffffffffffffffffffffffffffffffffffffff16815260200190815260200160002060020160146101000a81548160ff02191690831515021790555050565b6040518060c001604052806060815260200160608152602001600073ffffffffffffffffffffffffffffffffffffffff1681526020016000151581526020016000151581526020016000151581525090565b828054610fcc906116a6565b90600052602060002090601f016020900481019282610fee5760008555611035565b82601f1061100757805160ff1916838001178555611035565b82800160010185558215611035579182015b82811115611034578251825591602001919060010190611019565b5b5090506110429190611046565b5090565b5b8082111561105f576000816000905550600101611047565b5090565b600061107661107184611570565b61154b565b90508281526020810184848401111561109257611091611842565b5b61109d848285611664565b509392505050565b6000813590506110b481611955565b92915050565b600082601f8301126110cf576110ce61183d565b5b81356110df848260208601611063565b91505092915050565b6000602082840312156110fe576110fd61184c565b5b600061110c848285016110a5565b91505092915050565b60006020828403121561112b5761112a61184c565b5b600082013567ffffffffffffffff81111561114957611148611847565b5b611155848285016110ba565b91505092915050565b6000806000606084860312156111775761117661184c565b5b600084013567ffffffffffffffff81111561119557611194611847565b5b6111a1868287016110ba565b935050602084013567ffffffffffffffff8111156111c2576111c1611847565b5b6111ce868287016110ba565b92505060406111df868287016110a5565b9150509250925092565b60006111f58383611201565b60208301905092915050565b61120a81611612565b82525050565b600061121b826115b1565b61122581856115d4565b9350611230836115a1565b8060005b8381101561126157815161124888826111e9565b9750611253836115c7565b925050600181019050611234565b5085935050505092915050565b61127781611624565b82525050565b61128681611630565b82525050565b6000611297826115bc565b6112a181856115e5565b93506112b1818560208601611673565b6112ba81611851565b840191505092915050565b60006112d0826115bc565b6112da8185611607565b93506112ea818560208601611673565b80840191505092915050565b6000611303601c836115f6565b915061130e82611862565b602082019050919050565b60006113266018836115f6565b91506113318261188b565b602082019050919050565b6000611349602a836115f6565b9150611354826118b4565b604082019050919050565b600061136c6019836115f6565b915061137782611903565b602082019050919050565b600061138f6017836115f6565b915061139a8261192c565b602082019050919050565b600060c08301600083015184820360008601526113c2828261128c565b915050602083015184820360208601526113dc828261128c565b91505060408301516113f16040860182611201565b506060830151611404606086018261126e565b506080830151611417608086018261126e565b5060a083015161142a60a086018261126e565b508091505092915050565b600061144182846112c5565b915081905092915050565b600060208201905081810360008301526114668184611210565b905092915050565b6000602082019050611483600083018461127d565b92915050565b600060208201905081810360008301526114a2816112f6565b9050919050565b600060208201905081810360008301526114c281611319565b9050919050565b600060208201905081810360008301526114e28161133c565b9050919050565b600060208201905081810360008301526115028161135f565b9050919050565b6000602082019050818103600083015261152281611382565b9050919050565b6000602082019050818103600083015261154381846113a5565b905092915050565b6000611555611566565b905061156182826116d8565b919050565b6000604051905090565b600067ffffffffffffffff82111561158b5761158a61180e565b5b61159482611851565b9050602081019050919050565b6000819050602082019050919050565b600081519050919050565b600081519050919050565b6000602082019050919050565b600082825260208201905092915050565b600082825260208201905092915050565b600082825260208201905092915050565b600081905092915050565b600061161d8261163a565b9050919050565b60008115159050919050565b6000819050919050565b600073ffffffffffffffffffffffffffffffffffffffff82169050919050565b6000819050919050565b82818337600083830152505050565b60005b83811015611691578082015181840152602081019050611676565b838111156116a0576000848401525b50505050565b600060028204905060018216806116be57607f821691505b602082108114156116d2576116d16117b0565b5b50919050565b6116e182611851565b810181811067ffffffffffffffff82111715611700576116ff61180e565b5b80604052505050565b60006117148261165a565b91507fffffffffffffffffffffffffffffffffffffffffffffffffffffffffffffffff82141561174757611746611752565b5b600182019050919050565b7f4e487b7100000000000000000000000000000000000000000000000000000000600052601160045260246000fd5b7f4e487b7100000000000000000000000000000000000000000000000000000000600052602160045260246000fd5b7f4e487b7100000000000000000000000000000000000000000000000000000000600052602260045260246000fd5b7f4e487b7100000000000000000000000000000000000000000000000000000000600052603260045260246000fd5b7f4e487b7100000000000000000000000000000000000000000000000000000000600052604160045260246000fd5b600080fd5b600080fd5b600080fd5b600080fd5b6000601f19601f8301169050919050565b7f52657669657720746865206170706c69636174696f6e20666972737400000000600082015250565b7f4170706c69636174696f6e20616c72656164792073656e740000000000000000600082015250565b7f596f7572206170706c69636174696f6e2068617320616c72656164792062656560008201527f6e2072656a656374656400000000000000000000000000000000000000000000602082015250565b7f596f7572206e6f7420507269766174652070726f766964657200000000000000600082015250565b7f4170706c69636174696f6e20706861736520656e646564000000000000000000600082015250565b61195e81611612565b811461196957600080fd5b5056fea2646970667358221220d80f91446f5bad33ae6e714e7600d04647690a23ddb6d6c2d2b3b3f856fdcdbe64736f6c63430008070033",
					"opcodes": "PUSH1 0x80 PUSH1 0x40 MSTORE CALLVALUE DUP1 ISZERO PUSH2 0x10 JUMPI PUSH1 0x0 DUP1 REVERT JUMPDEST POP PUSH2 0x19A2 DUP1 PUSH2 0x20 PUSH1 0x0 CODECOPY PUSH1 0x0 RETURN INVALID PUSH1 0x80 PUSH1 0x40 MSTORE CALLVALUE DUP1 ISZERO PUSH2 0x10 JUMPI PUSH1 0x0 DUP1 REVERT JUMPDEST POP PUSH1 0x4 CALLDATASIZE LT PUSH2 0x7D JUMPI PUSH1 0x0 CALLDATALOAD PUSH1 0xE0 SHR DUP1 PUSH4 0x76EADA91 GT PUSH2 0x5B JUMPI DUP1 PUSH4 0x76EADA91 EQ PUSH2 0xDA JUMPI DUP1 PUSH4 0x785963C3 EQ PUSH2 0x10A JUMPI DUP1 PUSH4 0x8E4F8C6B EQ PUSH2 0x126 JUMPI DUP1 PUSH4 0xA678B65B EQ PUSH2 0x156 JUMPI PUSH2 0x7D JUMP JUMPDEST DUP1 PUSH4 0x1D3EEA35 EQ PUSH2 0x82 JUMPI DUP1 PUSH4 0x506A222C EQ PUSH2 0x9E JUMPI DUP1 PUSH4 0x686C4CEA EQ PUSH2 0xBC JUMPI JUMPDEST PUSH1 0x0 DUP1 REVERT JUMPDEST PUSH2 0x9C PUSH1 0x4 DUP1 CALLDATASIZE SUB DUP2 ADD SWAP1 PUSH2 0x97 SWAP2 SWAP1 PUSH2 0x10E8 JUMP JUMPDEST PUSH2 0x172 JUMP JUMPDEST STOP JUMPDEST PUSH2 0xA6 PUSH2 0x31B JUMP JUMPDEST PUSH1 0x40 MLOAD PUSH2 0xB3 SWAP2 SWAP1 PUSH2 0x144C JUMP JUMPDEST PUSH1 0x40 MLOAD DUP1 SWAP2 SUB SWAP1 RETURN JUMPDEST PUSH2 0xC4 PUSH2 0x4FE JUMP JUMPDEST PUSH1 0x40 MLOAD PUSH2 0xD1 SWAP2 SWAP1 PUSH2 0x144C JUMP JUMPDEST PUSH1 0x40 MLOAD DUP1 SWAP2 SUB SWAP1 RETURN JUMPDEST PUSH2 0xF4 PUSH1 0x4 DUP1 CALLDATASIZE SUB DUP2 ADD SWAP1 PUSH2 0xEF SWAP2 SWAP1 PUSH2 0x10E8 JUMP JUMPDEST PUSH2 0x641 JUMP JUMPDEST PUSH1 0x40 MLOAD PUSH2 0x101 SWAP2 SWAP1 PUSH2 0x1529 JUMP JUMPDEST PUSH1 0x40 MLOAD DUP1 SWAP2 SUB SWAP1 RETURN JUMPDEST PUSH2 0x124 PUSH1 0x4 DUP1 CALLDATASIZE SUB DUP2 ADD SWAP1 PUSH2 0x11F SWAP2 SWAP1 PUSH2 0x115E JUMP JUMPDEST PUSH2 0x975 JUMP JUMPDEST STOP JUMPDEST PUSH2 0x140 PUSH1 0x4 DUP1 CALLDATASIZE SUB DUP2 ADD SWAP1 PUSH2 0x13B SWAP2 SWAP1 PUSH2 0x1115 JUMP JUMPDEST PUSH2 0xD95 JUMP JUMPDEST PUSH1 0x40 MLOAD PUSH2 0x14D SWAP2 SWAP1 PUSH2 0x146E JUMP JUMPDEST PUSH1 0x40 MLOAD DUP1 SWAP2 SUB SWAP1 RETURN JUMPDEST PUSH2 0x170 PUSH1 0x4 DUP1 CALLDATASIZE SUB DUP2 ADD SWAP1 PUSH2 0x16B SWAP2 SWAP1 PUSH2 0x10E8 JUMP JUMPDEST PUSH2 0xDC5 JUMP JUMPDEST STOP JUMPDEST PUSH1 0x2 PUSH1 0x4 DUP2 GT ISZERO PUSH2 0x186 JUMPI PUSH2 0x185 PUSH2 0x1781 JUMP JUMPDEST JUMPDEST PUSH1 0x0 DUP1 CALLER PUSH20 0xFFFFFFFFFFFFFFFFFFFFFFFFFFFFFFFFFFFFFFFF AND PUSH20 0xFFFFFFFFFFFFFFFFFFFFFFFFFFFFFFFFFFFFFFFF AND DUP2 MSTORE PUSH1 0x20 ADD SWAP1 DUP2 MSTORE PUSH1 0x20 ADD PUSH1 0x0 KECCAK256 PUSH1 0x0 ADD PUSH1 0x0 SWAP1 SLOAD SWAP1 PUSH2 0x100 EXP SWAP1 DIV PUSH1 0xFF AND PUSH1 0x4 DUP2 GT ISZERO PUSH2 0x1E7 JUMPI PUSH2 0x1E6 PUSH2 0x1781 JUMP JUMPDEST JUMPDEST EQ PUSH2 0x227 JUMPI PUSH1 0x40 MLOAD PUSH32 0x8C379A000000000000000000000000000000000000000000000000000000000 DUP2 MSTORE PUSH1 0x4 ADD PUSH2 0x21E SWAP1 PUSH2 0x14E9 JUMP JUMPDEST PUSH1 0x40 MLOAD DUP1 SWAP2 SUB SWAP1 REVERT JUMPDEST PUSH1 0x0 ISZERO ISZERO PUSH1 0x2 PUSH1 0x0 CALLER PUSH20 0xFFFFFFFFFFFFFFFFFFFFFFFFFFFFFFFFFFFFFFFF AND PUSH20 0xFFFFFFFFFFFFFFFFFFFFFFFFFFFFFFFFFFFFFFFF AND DUP2 MSTORE PUSH1 0x20 ADD SWAP1 DUP2 MSTORE PUSH1 0x20 ADD PUSH1 0x0 KECCAK256 PUSH1 0x2 ADD PUSH1 0x15 SWAP1 SLOAD SWAP1 PUSH2 0x100 EXP SWAP1 DIV PUSH1 0xFF AND ISZERO ISZERO EQ PUSH2 0x2BD JUMPI PUSH1 0x40 MLOAD PUSH32 0x8C379A000000000000000000000000000000000000000000000000000000000 DUP2 MSTORE PUSH1 0x4 ADD PUSH2 0x2B4 SWAP1 PUSH2 0x1489 JUMP JUMPDEST PUSH1 0x40 MLOAD DUP1 SWAP2 SUB SWAP1 REVERT JUMPDEST PUSH1 0x0 PUSH1 0x2 PUSH1 0x0 DUP4 PUSH20 0xFFFFFFFFFFFFFFFFFFFFFFFFFFFFFFFFFFFFFFFF AND PUSH20 0xFFFFFFFFFFFFFFFFFFFFFFFFFFFFFFFFFFFFFFFF AND DUP2 MSTORE PUSH1 0x20 ADD SWAP1 DUP2 MSTORE PUSH1 0x20 ADD PUSH1 0x0 KECCAK256 PUSH1 0x2 ADD PUSH1 0x14 PUSH2 0x100 EXP DUP2 SLOAD DUP2 PUSH1 0xFF MUL NOT AND SWAP1 DUP4 ISZERO ISZERO MUL OR SWAP1 SSTORE POP POP JUMP JUMPDEST PUSH1 0x60 PUSH1 0x2 PUSH1 0x4 DUP2 GT ISZERO PUSH2 0x331 JUMPI PUSH2 0x330 PUSH2 0x1781 JUMP JUMPDEST JUMPDEST PUSH1 0x0 DUP1 CALLER PUSH20 0xFFFFFFFFFFFFFFFFFFFFFFFFFFFFFFFFFFFFFFFF AND PUSH20 0xFFFFFFFFFFFFFFFFFFFFFFFFFFFFFFFFFFFFFFFF AND DUP2 MSTORE PUSH1 0x20 ADD SWAP1 DUP2 MSTORE PUSH1 0x20 ADD PUSH1 0x0 KECCAK256 PUSH1 0x0 ADD PUSH1 0x0 SWAP1 SLOAD SWAP1 PUSH2 0x100 EXP SWAP1 DIV PUSH1 0xFF AND PUSH1 0x4 DUP2 GT ISZERO PUSH2 0x392 JUMPI PUSH2 0x391 PUSH2 0x1781 JUMP JUMPDEST JUMPDEST EQ PUSH2 0x3D2 JUMPI PUSH1 0x40 MLOAD PUSH32 0x8C379A000000000000000000000000000000000000000000000000000000000 DUP2 MSTORE PUSH1 0x4 ADD PUSH2 0x3C9 SWAP1 PUSH2 0x14E9 JUMP JUMPDEST PUSH1 0x40 MLOAD DUP1 SWAP2 SUB SWAP1 REVERT JUMPDEST PUSH1 0x60 PUSH1 0x0 JUMPDEST PUSH1 0x3 DUP1 SLOAD SWAP1 POP DUP2 LT ISZERO PUSH2 0x4F6 JUMPI PUSH1 0x0 DUP1 PUSH1 0x3 DUP4 DUP2 SLOAD DUP2 LT PUSH2 0x3FB JUMPI PUSH2 0x3FA PUSH2 0x17DF JUMP JUMPDEST JUMPDEST SWAP1 PUSH1 0x0 MSTORE PUSH1 0x20 PUSH1 0x0 KECCAK256 ADD PUSH1 0x0 SWAP1 SLOAD SWAP1 PUSH2 0x100 EXP SWAP1 DIV PUSH20 0xFFFFFFFFFFFFFFFFFFFFFFFFFFFFFFFFFFFFFFFF AND SWAP1 POP PUSH1 0x0 ISZERO ISZERO PUSH1 0x2 PUSH1 0x0 DUP4 PUSH20 0xFFFFFFFFFFFFFFFFFFFFFFFFFFFFFFFFFFFFFFFF AND PUSH20 0xFFFFFFFFFFFFFFFFFFFFFFFFFFFFFFFFFFFFFFFF AND DUP2 MSTORE PUSH1 0x20 ADD SWAP1 DUP2 MSTORE PUSH1 0x20 ADD PUSH1 0x0 KECCAK256 PUSH1 0x2 ADD PUSH1 0x15 SWAP1 SLOAD SWAP1 PUSH2 0x100 EXP SWAP1 DIV PUSH1 0xFF AND ISZERO ISZERO EQ ISZERO PUSH2 0x4E1 JUMPI DUP1 DUP5 DUP4 DUP2 MLOAD DUP2 LT PUSH2 0x498 JUMPI PUSH2 0x497 PUSH2 0x17DF JUMP JUMPDEST JUMPDEST PUSH1 0x20 MUL PUSH1 0x20 ADD ADD SWAP1 PUSH20 0xFFFFFFFFFFFFFFFFFFFFFFFFFFFFFFFFFFFFFFFF AND SWAP1 DUP2 PUSH20 0xFFFFFFFFFFFFFFFFFFFFFFFFFFFFFFFFFFFFFFFF AND DUP2 MSTORE POP POP DUP2 DUP1 PUSH2 0x4DD SWAP1 PUSH2 0x1709 JUMP JUMPDEST SWAP3 POP POP JUMPDEST POP POP DUP1 DUP1 PUSH2 0x4EE SWAP1 PUSH2 0x1709 JUMP JUMPDEST SWAP2 POP POP PUSH2 0x3D7 JUMP JUMPDEST POP DUP1 SWAP2 POP POP SWAP1 JUMP JUMPDEST PUSH1 0x60 PUSH1 0x2 PUSH1 0x4 DUP2 GT ISZERO PUSH2 0x514 JUMPI PUSH2 0x513 PUSH2 0x1781 JUMP JUMPDEST JUMPDEST PUSH1 0x0 DUP1 CALLER PUSH20 0xFFFFFFFFFFFFFFFFFFFFFFFFFFFFFFFFFFFFFFFF AND PUSH20 0xFFFFFFFFFFFFFFFFFFFFFFFFFFFFFFFFFFFFFFFF AND DUP2 MSTORE PUSH1 0x20 ADD SWAP1 DUP2 MSTORE PUSH1 0x20 ADD PUSH1 0x0 KECCAK256 PUSH1 0x0 ADD PUSH1 0x0 SWAP1 SLOAD SWAP1 PUSH2 0x100 EXP SWAP1 DIV PUSH1 0xFF AND PUSH1 0x4 DUP2 GT ISZERO PUSH2 0x575 JUMPI PUSH2 0x574 PUSH2 0x1781 JUMP JUMPDEST JUMPDEST EQ PUSH2 0x5B5 JUMPI PUSH1 0x40 MLOAD PUSH32 0x8C379A000000000000000000000000000000000000000000000000000000000 DUP2 MSTORE PUSH1 0x4 ADD PUSH2 0x5AC SWAP1 PUSH2 0x14E9 JUMP JUMPDEST PUSH1 0x40 MLOAD DUP1 SWAP2 SUB SWAP1 REVERT JUMPDEST PUSH1 0x3 DUP1 SLOAD DUP1 PUSH1 0x20 MUL PUSH1 0x20 ADD PUSH1 0x40 MLOAD SWAP1 DUP2 ADD PUSH1 0x40 MSTORE DUP1 SWAP3 SWAP2 SWAP1 DUP2 DUP2 MSTORE PUSH1 0x20 ADD DUP3 DUP1 SLOAD DUP1 ISZERO PUSH2 0x637 JUMPI PUSH1 0x20 MUL DUP3 ADD SWAP2 SWAP1 PUSH1 0x0 MSTORE PUSH1 0x20 PUSH1 0x0 KECCAK256 SWAP1 JUMPDEST DUP2 PUSH1 0x0 SWAP1 SLOAD SWAP1 PUSH2 0x100 EXP SWAP1 DIV PUSH20 0xFFFFFFFFFFFFFFFFFFFFFFFFFFFFFFFFFFFFFFFF AND PUSH20 0xFFFFFFFFFFFFFFFFFFFFFFFFFFFFFFFFFFFFFFFF AND DUP2 MSTORE PUSH1 0x20 ADD SWAP1 PUSH1 0x1 ADD SWAP1 DUP1 DUP4 GT PUSH2 0x5ED JUMPI JUMPDEST POP POP POP POP POP SWAP1 POP SWAP1 JUMP JUMPDEST PUSH2 0x649 PUSH2 0xF6E JUMP JUMPDEST PUSH1 0x2 PUSH1 0x4 DUP2 GT ISZERO PUSH2 0x65D JUMPI PUSH2 0x65C PUSH2 0x1781 JUMP JUMPDEST JUMPDEST PUSH1 0x0 DUP1 CALLER PUSH20 0xFFFFFFFFFFFFFFFFFFFFFFFFFFFFFFFFFFFFFFFF AND PUSH20 0xFFFFFFFFFFFFFFFFFFFFFFFFFFFFFFFFFFFFFFFF AND DUP2 MSTORE PUSH1 0x20 ADD SWAP1 DUP2 MSTORE PUSH1 0x20 ADD PUSH1 0x0 KECCAK256 PUSH1 0x0 ADD PUSH1 0x0 SWAP1 SLOAD SWAP1 PUSH2 0x100 EXP SWAP1 DIV PUSH1 0xFF AND PUSH1 0x4 DUP2 GT ISZERO PUSH2 0x6BE JUMPI PUSH2 0x6BD PUSH2 0x1781 JUMP JUMPDEST JUMPDEST EQ PUSH2 0x6FE JUMPI PUSH1 0x40 MLOAD PUSH32 0x8C379A000000000000000000000000000000000000000000000000000000000 DUP2 MSTORE PUSH1 0x4 ADD PUSH2 0x6F5 SWAP1 PUSH2 0x14E9 JUMP JUMPDEST PUSH1 0x40 MLOAD DUP1 SWAP2 SUB SWAP1 REVERT JUMPDEST PUSH1 0x1 PUSH1 0x2 PUSH1 0x0 DUP5 PUSH20 0xFFFFFFFFFFFFFFFFFFFFFFFFFFFFFFFFFFFFFFFF AND PUSH20 0xFFFFFFFFFFFFFFFFFFFFFFFFFFFFFFFFFFFFFFFF AND DUP2 MSTORE PUSH1 0x20 ADD SWAP1 DUP2 MSTORE PUSH1 0x20 ADD PUSH1 0x0 KECCAK256 PUSH1 0x2 ADD PUSH1 0x15 PUSH2 0x100 EXP DUP2 SLOAD DUP2 PUSH1 0xFF MUL NOT AND SWAP1 DUP4 ISZERO ISZERO MUL OR SWAP1 SSTORE POP PUSH1 0x2 PUSH1 0x0 DUP4 PUSH20 0xFFFFFFFFFFFFFFFFFFFFFFFFFFFFFFFFFFFFFFFF AND PUSH20 0xFFFFFFFFFFFFFFFFFFFFFFFFFFFFFFFFFFFFFFFF AND DUP2 MSTORE PUSH1 0x20 ADD SWAP1 DUP2 MSTORE PUSH1 0x20 ADD PUSH1 0x0 KECCAK256 PUSH1 0x40 MLOAD DUP1 PUSH1 0xC0 ADD PUSH1 0x40 MSTORE SWAP1 DUP2 PUSH1 0x0 DUP3 ADD DUP1 SLOAD PUSH2 0x7B3 SWAP1 PUSH2 0x16A6 JUMP JUMPDEST DUP1 PUSH1 0x1F ADD PUSH1 0x20 DUP1 SWAP2 DIV MUL PUSH1 0x20 ADD PUSH1 0x40 MLOAD SWAP1 DUP2 ADD PUSH1 0x40 MSTORE DUP1 SWAP3 SWAP2 SWAP1 DUP2 DUP2 MSTORE PUSH1 0x20 ADD DUP3 DUP1 SLOAD PUSH2 0x7DF SWAP1 PUSH2 0x16A6 JUMP JUMPDEST DUP1 ISZERO PUSH2 0x82C JUMPI DUP1 PUSH1 0x1F LT PUSH2 0x801 JUMPI PUSH2 0x100 DUP1 DUP4 SLOAD DIV MUL DUP4 MSTORE SWAP2 PUSH1 0x20 ADD SWAP2 PUSH2 0x82C JUMP JUMPDEST DUP3 ADD SWAP2 SWAP1 PUSH1 0x0 MSTORE PUSH1 0x20 PUSH1 0x0 KECCAK256 SWAP1 JUMPDEST DUP2 SLOAD DUP2 MSTORE SWAP1 PUSH1 0x1 ADD SWAP1 PUSH1 0x20 ADD DUP1 DUP4 GT PUSH2 0x80F JUMPI DUP3 SWAP1 SUB PUSH1 0x1F AND DUP3 ADD SWAP2 JUMPDEST POP POP POP POP POP DUP2 MSTORE PUSH1 0x20 ADD PUSH1 0x1 DUP3 ADD DUP1 SLOAD PUSH2 0x845 SWAP1 PUSH2 0x16A6 JUMP JUMPDEST DUP1 PUSH1 0x1F ADD PUSH1 0x20 DUP1 SWAP2 DIV MUL PUSH1 0x20 ADD PUSH1 0x40 MLOAD SWAP1 DUP2 ADD PUSH1 0x40 MSTORE DUP1 SWAP3 SWAP2 SWAP1 DUP2 DUP2 MSTORE PUSH1 0x20 ADD DUP3 DUP1 SLOAD PUSH2 0x871 SWAP1 PUSH2 0x16A6 JUMP JUMPDEST DUP1 ISZERO PUSH2 0x8BE JUMPI DUP1 PUSH1 0x1F LT PUSH2 0x893 JUMPI PUSH2 0x100 DUP1 DUP4 SLOAD DIV MUL DUP4 MSTORE SWAP2 PUSH1 0x20 ADD SWAP2 PUSH2 0x8BE JUMP JUMPDEST DUP3 ADD SWAP2 SWAP1 PUSH1 0x0 MSTORE PUSH1 0x20 PUSH1 0x0 KECCAK256 SWAP1 JUMPDEST DUP2 SLOAD DUP2 MSTORE SWAP1 PUSH1 0x1 ADD SWAP1 PUSH1 0x20 ADD DUP1 DUP4 GT PUSH2 0x8A1 JUMPI DUP3 SWAP1 SUB PUSH1 0x1F AND DUP3 ADD SWAP2 JUMPDEST POP POP POP POP POP DUP2 MSTORE PUSH1 0x20 ADD PUSH1 0x2 DUP3 ADD PUSH1 0x0 SWAP1 SLOAD SWAP1 PUSH2 0x100 EXP SWAP1 DIV PUSH20 0xFFFFFFFFFFFFFFFFFFFFFFFFFFFFFFFFFFFFFFFF AND PUSH20 0xFFFFFFFFFFFFFFFFFFFFFFFFFFFFFFFFFFFFFFFF AND PUSH20 0xFFFFFFFFFFFFFFFFFFFFFFFFFFFFFFFFFFFFFFFF AND DUP2 MSTORE PUSH1 0x20 ADD PUSH1 0x2 DUP3 ADD PUSH1 0x14 SWAP1 SLOAD SWAP1 PUSH2 0x100 EXP SWAP1 DIV PUSH1 0xFF AND ISZERO ISZERO ISZERO ISZERO DUP2 MSTORE PUSH1 0x20 ADD PUSH1 0x2 DUP3 ADD PUSH1 0x15 SWAP1 SLOAD SWAP1 PUSH2 0x100 EXP SWAP1 DIV PUSH1 0xFF AND ISZERO ISZERO ISZERO ISZERO DUP2 MSTORE PUSH1 0x20 ADD PUSH1 0x2 DUP3 ADD PUSH1 0x16 SWAP1 SLOAD SWAP1 PUSH2 0x100 EXP SWAP1 DIV PUSH1 0xFF AND ISZERO ISZERO ISZERO ISZERO DUP2 MSTORE POP POP SWAP1 POP SWAP2 SWAP1 POP JUMP JUMPDEST PUSH1 0x0 ISZERO ISZERO PUSH1 0x1 PUSH1 0x0 PUSH20 0xAB8483F64D9C6D1ECF9B849AE677DD3315835CB2 PUSH20 0xFFFFFFFFFFFFFFFFFFFFFFFFFFFFFFFFFFFFFFFF AND PUSH20 0xFFFFFFFFFFFFFFFFFFFFFFFFFFFFFFFFFFFFFFFF AND DUP2 MSTORE PUSH1 0x20 ADD SWAP1 DUP2 MSTORE PUSH1 0x20 ADD PUSH1 0x0 KECCAK256 PUSH1 0x0 ADD PUSH1 0x0 SWAP1 SLOAD SWAP1 PUSH2 0x100 EXP SWAP1 DIV PUSH1 0xFF AND ISZERO ISZERO EQ DUP1 ISZERO PUSH2 0xA53 JUMPI POP PUSH1 0x0 ISZERO ISZERO PUSH1 0x1 PUSH1 0x0 PUSH20 0xAB8483F64D9C6D1ECF9B849AE677DD3315835CB2 PUSH20 0xFFFFFFFFFFFFFFFFFFFFFFFFFFFFFFFFFFFFFFFF AND PUSH20 0xFFFFFFFFFFFFFFFFFFFFFFFFFFFFFFFFFFFFFFFF AND DUP2 MSTORE PUSH1 0x20 ADD SWAP1 DUP2 MSTORE PUSH1 0x20 ADD PUSH1 0x0 KECCAK256 PUSH1 0x0 ADD PUSH1 0x0 SWAP1 SLOAD SWAP1 PUSH2 0x100 EXP SWAP1 DIV PUSH1 0xFF AND ISZERO ISZERO EQ JUMPDEST PUSH2 0xA92 JUMPI PUSH1 0x40 MLOAD PUSH32 0x8C379A000000000000000000000000000000000000000000000000000000000 DUP2 MSTORE PUSH1 0x4 ADD PUSH2 0xA89 SWAP1 PUSH2 0x1509 JUMP JUMPDEST PUSH1 0x40 MLOAD DUP1 SWAP2 SUB SWAP1 REVERT JUMPDEST PUSH1 0x1 ISZERO ISZERO PUSH1 0x2 PUSH1 0x0 CALLER PUSH20 0xFFFFFFFFFFFFFFFFFFFFFFFFFFFFFFFFFFFFFFFF AND PUSH20 0xFFFFFFFFFFFFFFFFFFFFFFFFFFFFFFFFFFFFFFFF AND DUP2 MSTORE PUSH1 0x20 ADD SWAP1 DUP2 MSTORE PUSH1 0x20 ADD PUSH1 0x0 KECCAK256 PUSH1 0x2 ADD PUSH1 0x16 SWAP1 SLOAD SWAP1 PUSH2 0x100 EXP SWAP1 DIV PUSH1 0xFF AND ISZERO ISZERO EQ PUSH2 0xB28 JUMPI PUSH1 0x40 MLOAD PUSH32 0x8C379A000000000000000000000000000000000000000000000000000000000 DUP2 MSTORE PUSH1 0x4 ADD PUSH2 0xB1F SWAP1 PUSH2 0x14A9 JUMP JUMPDEST PUSH1 0x40 MLOAD DUP1 SWAP2 SUB SWAP1 REVERT JUMPDEST PUSH1 0x0 ISZERO ISZERO PUSH1 0x2 PUSH1 0x0 CALLER PUSH20 0xFFFFFFFFFFFFFFFFFFFFFFFFFFFFFFFFFFFFFFFF AND PUSH20 0xFFFFFFFFFFFFFFFFFFFFFFFFFFFFFFFFFFFFFFFF AND DUP2 MSTORE PUSH1 0x20 ADD SWAP1 DUP2 MSTORE PUSH1 0x20 ADD PUSH1 0x0 KECCAK256 PUSH1 0x2 ADD PUSH1 0x14 SWAP1 SLOAD SWAP1 PUSH2 0x100 EXP SWAP1 DIV PUSH1 0xFF AND ISZERO ISZERO EQ PUSH2 0xBBE JUMPI PUSH1 0x40 MLOAD PUSH32 0x8C379A000000000000000000000000000000000000000000000000000000000 DUP2 MSTORE PUSH1 0x4 ADD PUSH2 0xBB5 SWAP1 PUSH2 0x14C9 JUMP JUMPDEST PUSH1 0x40 MLOAD DUP1 SWAP2 SUB SWAP1 REVERT JUMPDEST PUSH1 0x40 MLOAD DUP1 PUSH1 0xC0 ADD PUSH1 0x40 MSTORE DUP1 DUP5 DUP2 MSTORE PUSH1 0x20 ADD DUP4 DUP2 MSTORE PUSH1 0x20 ADD DUP3 PUSH20 0xFFFFFFFFFFFFFFFFFFFFFFFFFFFFFFFFFFFFFFFF AND DUP2 MSTORE PUSH1 0x20 ADD PUSH1 0x1 ISZERO ISZERO DUP2 MSTORE PUSH1 0x20 ADD PUSH1 0x0 ISZERO ISZERO DUP2 MSTORE PUSH1 0x20 ADD PUSH1 0x1 ISZERO ISZERO DUP2 MSTORE POP PUSH1 0x2 PUSH1 0x0 CALLER PUSH20 0xFFFFFFFFFFFFFFFFFFFFFFFFFFFFFFFFFFFFFFFF AND PUSH20 0xFFFFFFFFFFFFFFFFFFFFFFFFFFFFFFFFFFFFFFFF AND DUP2 MSTORE PUSH1 0x20 ADD SWAP1 DUP2 MSTORE PUSH1 0x20 ADD PUSH1 0x0 KECCAK256 PUSH1 0x0 DUP3 ADD MLOAD DUP2 PUSH1 0x0 ADD SWAP1 DUP1 MLOAD SWAP1 PUSH1 0x20 ADD SWAP1 PUSH2 0xC65 SWAP3 SWAP2 SWAP1 PUSH2 0xFC0 JUMP JUMPDEST POP PUSH1 0x20 DUP3 ADD MLOAD DUP2 PUSH1 0x1 ADD SWAP1 DUP1 MLOAD SWAP1 PUSH1 0x20 ADD SWAP1 PUSH2 0xC82 SWAP3 SWAP2 SWAP1 PUSH2 0xFC0 JUMP JUMPDEST POP PUSH1 0x40 DUP3 ADD MLOAD DUP2 PUSH1 0x2 ADD PUSH1 0x0 PUSH2 0x100 EXP DUP2 SLOAD DUP2 PUSH20 0xFFFFFFFFFFFFFFFFFFFFFFFFFFFFFFFFFFFFFFFF MUL NOT AND SWAP1 DUP4 PUSH20 0xFFFFFFFFFFFFFFFFFFFFFFFFFFFFFFFFFFFFFFFF AND MUL OR SWAP1 SSTORE POP PUSH1 0x60 DUP3 ADD MLOAD DUP2 PUSH1 0x2 ADD PUSH1 0x14 PUSH2 0x100 EXP DUP2 SLOAD DUP2 PUSH1 0xFF MUL NOT AND SWAP1 DUP4 ISZERO ISZERO MUL OR SWAP1 SSTORE POP PUSH1 0x80 DUP3 ADD MLOAD DUP2 PUSH1 0x2 ADD PUSH1 0x15 PUSH2 0x100 EXP DUP2 SLOAD DUP2 PUSH1 0xFF MUL NOT AND SWAP1 DUP4 ISZERO ISZERO MUL OR SWAP1 SSTORE POP PUSH1 0xA0 DUP3 ADD MLOAD DUP2 PUSH1 0x2 ADD PUSH1 0x16 PUSH2 0x100 EXP DUP2 SLOAD DUP2 PUSH1 0xFF MUL NOT AND SWAP1 DUP4 ISZERO ISZERO MUL OR SWAP1 SSTORE POP SWAP1 POP POP PUSH1 0x3 CALLER SWAP1 DUP1 PUSH1 0x1 DUP2 SLOAD ADD DUP1 DUP3 SSTORE DUP1 SWAP2 POP POP PUSH1 0x1 SWAP1 SUB SWAP1 PUSH1 0x0 MSTORE PUSH1 0x20 PUSH1 0x0 KECCAK256 ADD PUSH1 0x0 SWAP1 SWAP2 SWAP1 SWAP2 SWAP1 SWAP2 PUSH2 0x100 EXP DUP2 SLOAD DUP2 PUSH20 0xFFFFFFFFFFFFFFFFFFFFFFFFFFFFFFFFFFFFFFFF MUL NOT AND SWAP1 DUP4 PUSH20 0xFFFFFFFFFFFFFFFFFFFFFFFFFFFFFFFFFFFFFFFF AND MUL OR SWAP1 SSTORE POP POP POP POP JUMP JUMPDEST PUSH1 0x0 DUP2 PUSH1 0x40 MLOAD PUSH1 0x20 ADD PUSH2 0xDA8 SWAP2 SWAP1 PUSH2 0x1435 JUMP JUMPDEST PUSH1 0x40 MLOAD PUSH1 0x20 DUP2 DUP4 SUB SUB DUP2 MSTORE SWAP1 PUSH1 0x40 MSTORE DUP1 MLOAD SWAP1 PUSH1 0x20 ADD KECCAK256 SWAP1 POP SWAP2 SWAP1 POP JUMP JUMPDEST PUSH1 0x2 PUSH1 0x4 DUP2 GT ISZERO PUSH2 0xDD9 JUMPI PUSH2 0xDD8 PUSH2 0x1781 JUMP JUMPDEST JUMPDEST PUSH1 0x0 DUP1 CALLER PUSH20 0xFFFFFFFFFFFFFFFFFFFFFFFFFFFFFFFFFFFFFFFF AND PUSH20 0xFFFFFFFFFFFFFFFFFFFFFFFFFFFFFFFFFFFFFFFF AND DUP2 MSTORE PUSH1 0x20 ADD SWAP1 DUP2 MSTORE PUSH1 0x20 ADD PUSH1 0x0 KECCAK256 PUSH1 0x0 ADD PUSH1 0x0 SWAP1 SLOAD SWAP1 PUSH2 0x100 EXP SWAP1 DIV PUSH1 0xFF AND PUSH1 0x4 DUP2 GT ISZERO PUSH2 0xE3A JUMPI PUSH2 0xE39 PUSH2 0x1781 JUMP JUMPDEST JUMPDEST EQ PUSH2 0xE7A JUMPI PUSH1 0x40 MLOAD PUSH32 0x8C379A000000000000000000000000000000000000000000000000000000000 DUP2 MSTORE PUSH1 0x4 ADD PUSH2 0xE71 SWAP1 PUSH2 0x14E9 JUMP JUMPDEST PUSH1 0x40 MLOAD DUP1 SWAP2 SUB SWAP1 REVERT JUMPDEST PUSH1 0x0 ISZERO ISZERO PUSH1 0x2 PUSH1 0x0 CALLER PUSH20 0xFFFFFFFFFFFFFFFFFFFFFFFFFFFFFFFFFFFFFFFF AND PUSH20 0xFFFFFFFFFFFFFFFFFFFFFFFFFFFFFFFFFFFFFFFF AND DUP2 MSTORE PUSH1 0x20 ADD SWAP1 DUP2 MSTORE PUSH1 0x20 ADD PUSH1 0x0 KECCAK256 PUSH1 0x2 ADD PUSH1 0x15 SWAP1 SLOAD SWAP1 PUSH2 0x100 EXP SWAP1 DIV PUSH1 0xFF AND ISZERO ISZERO EQ PUSH2 0xF10 JUMPI PUSH1 0x40 MLOAD PUSH32 0x8C379A000000000000000000000000000000000000000000000000000000000 DUP2 MSTORE PUSH1 0x4 ADD PUSH2 0xF07 SWAP1 PUSH2 0x1489 JUMP JUMPDEST PUSH1 0x40 MLOAD DUP1 SWAP2 SUB SWAP1 REVERT JUMPDEST PUSH1 0x0 PUSH1 0x2 PUSH1 0x0 DUP4 PUSH20 0xFFFFFFFFFFFFFFFFFFFFFFFFFFFFFFFFFFFFFFFF AND PUSH20 0xFFFFFFFFFFFFFFFFFFFFFFFFFFFFFFFFFFFFFFFF AND DUP2 MSTORE PUSH1 0x20 ADD SWAP1 DUP2 MSTORE PUSH1 0x20 ADD PUSH1 0x0 KECCAK256 PUSH1 0x2 ADD PUSH1 0x14 PUSH2 0x100 EXP DUP2 SLOAD DUP2 PUSH1 0xFF MUL NOT AND SWAP1 DUP4 ISZERO ISZERO MUL OR SWAP1 SSTORE POP POP JUMP JUMPDEST PUSH1 0x40 MLOAD DUP1 PUSH1 0xC0 ADD PUSH1 0x40 MSTORE DUP1 PUSH1 0x60 DUP2 MSTORE PUSH1 0x20 ADD PUSH1 0x60 DUP2 MSTORE PUSH1 0x20 ADD PUSH1 0x0 PUSH20 0xFFFFFFFFFFFFFFFFFFFFFFFFFFFFFFFFFFFFFFFF AND DUP2 MSTORE PUSH1 0x20 ADD PUSH1 0x0 ISZERO ISZERO DUP2 MSTORE PUSH1 0x20 ADD PUSH1 0x0 ISZERO ISZERO DUP2 MSTORE PUSH1 0x20 ADD PUSH1 0x0 ISZERO ISZERO DUP2 MSTORE POP SWAP1 JUMP JUMPDEST DUP3 DUP1 SLOAD PUSH2 0xFCC SWAP1 PUSH2 0x16A6 JUMP JUMPDEST SWAP1 PUSH1 0x0 MSTORE PUSH1 0x20 PUSH1 0x0 KECCAK256 SWAP1 PUSH1 0x1F ADD PUSH1 0x20 SWAP1 DIV DUP2 ADD SWAP3 DUP3 PUSH2 0xFEE JUMPI PUSH1 0x0 DUP6 SSTORE PUSH2 0x1035 JUMP JUMPDEST DUP3 PUSH1 0x1F LT PUSH2 0x1007 JUMPI DUP1 MLOAD PUSH1 0xFF NOT AND DUP4 DUP1 ADD OR DUP6 SSTORE PUSH2 0x1035 JUMP JUMPDEST DUP3 DUP1 ADD PUSH1 0x1 ADD DUP6 SSTORE DUP3 ISZERO PUSH2 0x1035 JUMPI SWAP2 DUP3 ADD JUMPDEST DUP3 DUP2 GT ISZERO PUSH2 0x1034 JUMPI DUP3 MLOAD DUP3 SSTORE SWAP2 PUSH1 0x20 ADD SWAP2 SWAP1 PUSH1 0x1 ADD SWAP1 PUSH2 0x1019 JUMP JUMPDEST JUMPDEST POP SWAP1 POP PUSH2 0x1042 SWAP2 SWAP1 PUSH2 0x1046 JUMP JUMPDEST POP SWAP1 JUMP JUMPDEST JUMPDEST DUP1 DUP3 GT ISZERO PUSH2 0x105F JUMPI PUSH1 0x0 DUP2 PUSH1 0x0 SWAP1 SSTORE POP PUSH1 0x1 ADD PUSH2 0x1047 JUMP JUMPDEST POP SWAP1 JUMP JUMPDEST PUSH1 0x0 PUSH2 0x1076 PUSH2 0x1071 DUP5 PUSH2 0x1570 JUMP JUMPDEST PUSH2 0x154B JUMP JUMPDEST SWAP1 POP DUP3 DUP2 MSTORE PUSH1 0x20 DUP2 ADD DUP5 DUP5 DUP5 ADD GT ISZERO PUSH2 0x1092 JUMPI PUSH2 0x1091 PUSH2 0x1842 JUMP JUMPDEST JUMPDEST PUSH2 0x109D DUP5 DUP3 DUP6 PUSH2 0x1664 JUMP JUMPDEST POP SWAP4 SWAP3 POP POP POP JUMP JUMPDEST PUSH1 0x0 DUP2 CALLDATALOAD SWAP1 POP PUSH2 0x10B4 DUP2 PUSH2 0x1955 JUMP JUMPDEST SWAP3 SWAP2 POP POP JUMP JUMPDEST PUSH1 0x0 DUP3 PUSH1 0x1F DUP4 ADD SLT PUSH2 0x10CF JUMPI PUSH2 0x10CE PUSH2 0x183D JUMP JUMPDEST JUMPDEST DUP2 CALLDATALOAD PUSH2 0x10DF DUP5 DUP3 PUSH1 0x20 DUP7 ADD PUSH2 0x1063 JUMP JUMPDEST SWAP2 POP POP SWAP3 SWAP2 POP POP JUMP JUMPDEST PUSH1 0x0 PUSH1 0x20 DUP3 DUP5 SUB SLT ISZERO PUSH2 0x10FE JUMPI PUSH2 0x10FD PUSH2 0x184C JUMP JUMPDEST JUMPDEST PUSH1 0x0 PUSH2 0x110C DUP5 DUP3 DUP6 ADD PUSH2 0x10A5 JUMP JUMPDEST SWAP2 POP POP SWAP3 SWAP2 POP POP JUMP JUMPDEST PUSH1 0x0 PUSH1 0x20 DUP3 DUP5 SUB SLT ISZERO PUSH2 0x112B JUMPI PUSH2 0x112A PUSH2 0x184C JUMP JUMPDEST JUMPDEST PUSH1 0x0 DUP3 ADD CALLDATALOAD PUSH8 0xFFFFFFFFFFFFFFFF DUP2 GT ISZERO PUSH2 0x1149 JUMPI PUSH2 0x1148 PUSH2 0x1847 JUMP JUMPDEST JUMPDEST PUSH2 0x1155 DUP5 DUP3 DUP6 ADD PUSH2 0x10BA JUMP JUMPDEST SWAP2 POP POP SWAP3 SWAP2 POP POP JUMP JUMPDEST PUSH1 0x0 DUP1 PUSH1 0x0 PUSH1 0x60 DUP5 DUP7 SUB SLT ISZERO PUSH2 0x1177 JUMPI PUSH2 0x1176 PUSH2 0x184C JUMP JUMPDEST JUMPDEST PUSH1 0x0 DUP5 ADD CALLDATALOAD PUSH8 0xFFFFFFFFFFFFFFFF DUP2 GT ISZERO PUSH2 0x1195 JUMPI PUSH2 0x1194 PUSH2 0x1847 JUMP JUMPDEST JUMPDEST PUSH2 0x11A1 DUP7 DUP3 DUP8 ADD PUSH2 0x10BA JUMP JUMPDEST SWAP4 POP POP PUSH1 0x20 DUP5 ADD CALLDATALOAD PUSH8 0xFFFFFFFFFFFFFFFF DUP2 GT ISZERO PUSH2 0x11C2 JUMPI PUSH2 0x11C1 PUSH2 0x1847 JUMP JUMPDEST JUMPDEST PUSH2 0x11CE DUP7 DUP3 DUP8 ADD PUSH2 0x10BA JUMP JUMPDEST SWAP3 POP POP PUSH1 0x40 PUSH2 0x11DF DUP7 DUP3 DUP8 ADD PUSH2 0x10A5 JUMP JUMPDEST SWAP2 POP POP SWAP3 POP SWAP3 POP SWAP3 JUMP JUMPDEST PUSH1 0x0 PUSH2 0x11F5 DUP4 DUP4 PUSH2 0x1201 JUMP JUMPDEST PUSH1 0x20 DUP4 ADD SWAP1 POP SWAP3 SWAP2 POP POP JUMP JUMPDEST PUSH2 0x120A DUP2 PUSH2 0x1612 JUMP JUMPDEST DUP3 MSTORE POP POP JUMP JUMPDEST PUSH1 0x0 PUSH2 0x121B DUP3 PUSH2 0x15B1 JUMP JUMPDEST PUSH2 0x1225 DUP2 DUP6 PUSH2 0x15D4 JUMP JUMPDEST SWAP4 POP PUSH2 0x1230 DUP4 PUSH2 0x15A1 JUMP JUMPDEST DUP1 PUSH1 0x0 JUMPDEST DUP4 DUP2 LT ISZERO PUSH2 0x1261 JUMPI DUP2 MLOAD PUSH2 0x1248 DUP9 DUP3 PUSH2 0x11E9 JUMP JUMPDEST SWAP8 POP PUSH2 0x1253 DUP4 PUSH2 0x15C7 JUMP JUMPDEST SWAP3 POP POP PUSH1 0x1 DUP2 ADD SWAP1 POP PUSH2 0x1234 JUMP JUMPDEST POP DUP6 SWAP4 POP POP POP POP SWAP3 SWAP2 POP POP JUMP JUMPDEST PUSH2 0x1277 DUP2 PUSH2 0x1624 JUMP JUMPDEST DUP3 MSTORE POP POP JUMP JUMPDEST PUSH2 0x1286 DUP2 PUSH2 0x1630 JUMP JUMPDEST DUP3 MSTORE POP POP JUMP JUMPDEST PUSH1 0x0 PUSH2 0x1297 DUP3 PUSH2 0x15BC JUMP JUMPDEST PUSH2 0x12A1 DUP2 DUP6 PUSH2 0x15E5 JUMP JUMPDEST SWAP4 POP PUSH2 0x12B1 DUP2 DUP6 PUSH1 0x20 DUP7 ADD PUSH2 0x1673 JUMP JUMPDEST PUSH2 0x12BA DUP2 PUSH2 0x1851 JUMP JUMPDEST DUP5 ADD SWAP2 POP POP SWAP3 SWAP2 POP POP JUMP JUMPDEST PUSH1 0x0 PUSH2 0x12D0 DUP3 PUSH2 0x15BC JUMP JUMPDEST PUSH2 0x12DA DUP2 DUP6 PUSH2 0x1607 JUMP JUMPDEST SWAP4 POP PUSH2 0x12EA DUP2 DUP6 PUSH1 0x20 DUP7 ADD PUSH2 0x1673 JUMP JUMPDEST DUP1 DUP5 ADD SWAP2 POP POP SWAP3 SWAP2 POP POP JUMP JUMPDEST PUSH1 0x0 PUSH2 0x1303 PUSH1 0x1C DUP4 PUSH2 0x15F6 JUMP JUMPDEST SWAP2 POP PUSH2 0x130E DUP3 PUSH2 0x1862 JUMP JUMPDEST PUSH1 0x20 DUP3 ADD SWAP1 POP SWAP2 SWAP1 POP JUMP JUMPDEST PUSH1 0x0 PUSH2 0x1326 PUSH1 0x18 DUP4 PUSH2 0x15F6 JUMP JUMPDEST SWAP2 POP PUSH2 0x1331 DUP3 PUSH2 0x188B JUMP JUMPDEST PUSH1 0x20 DUP3 ADD SWAP1 POP SWAP2 SWAP1 POP JUMP JUMPDEST PUSH1 0x0 PUSH2 0x1349 PUSH1 0x2A DUP4 PUSH2 0x15F6 JUMP JUMPDEST SWAP2 POP PUSH2 0x1354 DUP3 PUSH2 0x18B4 JUMP JUMPDEST PUSH1 0x40 DUP3 ADD SWAP1 POP SWAP2 SWAP1 POP JUMP JUMPDEST PUSH1 0x0 PUSH2 0x136C PUSH1 0x19 DUP4 PUSH2 0x15F6 JUMP JUMPDEST SWAP2 POP PUSH2 0x1377 DUP3 PUSH2 0x1903 JUMP JUMPDEST PUSH1 0x20 DUP3 ADD SWAP1 POP SWAP2 SWAP1 POP JUMP JUMPDEST PUSH1 0x0 PUSH2 0x138F PUSH1 0x17 DUP4 PUSH2 0x15F6 JUMP JUMPDEST SWAP2 POP PUSH2 0x139A DUP3 PUSH2 0x192C JUMP JUMPDEST PUSH1 0x20 DUP3 ADD SWAP1 POP SWAP2 SWAP1 POP JUMP JUMPDEST PUSH1 0x0 PUSH1 0xC0 DUP4 ADD PUSH1 0x0 DUP4 ADD MLOAD DUP5 DUP3 SUB PUSH1 0x0 DUP7 ADD MSTORE PUSH2 0x13C2 DUP3 DUP3 PUSH2 0x128C JUMP JUMPDEST SWAP2 POP POP PUSH1 0x20 DUP4 ADD MLOAD DUP5 DUP3 SUB PUSH1 0x20 DUP7 ADD MSTORE PUSH2 0x13DC DUP3 DUP3 PUSH2 0x128C JUMP JUMPDEST SWAP2 POP POP PUSH1 0x40 DUP4 ADD MLOAD PUSH2 0x13F1 PUSH1 0x40 DUP7 ADD DUP3 PUSH2 0x1201 JUMP JUMPDEST POP PUSH1 0x60 DUP4 ADD MLOAD PUSH2 0x1404 PUSH1 0x60 DUP7 ADD DUP3 PUSH2 0x126E JUMP JUMPDEST POP PUSH1 0x80 DUP4 ADD MLOAD PUSH2 0x1417 PUSH1 0x80 DUP7 ADD DUP3 PUSH2 0x126E JUMP JUMPDEST POP PUSH1 0xA0 DUP4 ADD MLOAD PUSH2 0x142A PUSH1 0xA0 DUP7 ADD DUP3 PUSH2 0x126E JUMP JUMPDEST POP DUP1 SWAP2 POP POP SWAP3 SWAP2 POP POP JUMP JUMPDEST PUSH1 0x0 PUSH2 0x1441 DUP3 DUP5 PUSH2 0x12C5 JUMP JUMPDEST SWAP2 POP DUP2 SWAP1 POP SWAP3 SWAP2 POP POP JUMP JUMPDEST PUSH1 0x0 PUSH1 0x20 DUP3 ADD SWAP1 POP DUP2 DUP2 SUB PUSH1 0x0 DUP4 ADD MSTORE PUSH2 0x1466 DUP2 DUP5 PUSH2 0x1210 JUMP JUMPDEST SWAP1 POP SWAP3 SWAP2 POP POP JUMP JUMPDEST PUSH1 0x0 PUSH1 0x20 DUP3 ADD SWAP1 POP PUSH2 0x1483 PUSH1 0x0 DUP4 ADD DUP5 PUSH2 0x127D JUMP JUMPDEST SWAP3 SWAP2 POP POP JUMP JUMPDEST PUSH1 0x0 PUSH1 0x20 DUP3 ADD SWAP1 POP DUP2 DUP2 SUB PUSH1 0x0 DUP4 ADD MSTORE PUSH2 0x14A2 DUP2 PUSH2 0x12F6 JUMP JUMPDEST SWAP1 POP SWAP2 SWAP1 POP JUMP JUMPDEST PUSH1 0x0 PUSH1 0x20 DUP3 ADD SWAP1 POP DUP2 DUP2 SUB PUSH1 0x0 DUP4 ADD MSTORE PUSH2 0x14C2 DUP2 PUSH2 0x1319 JUMP JUMPDEST SWAP1 POP SWAP2 SWAP1 POP JUMP JUMPDEST PUSH1 0x0 PUSH1 0x20 DUP3 ADD SWAP1 POP DUP2 DUP2 SUB PUSH1 0x0 DUP4 ADD MSTORE PUSH2 0x14E2 DUP2 PUSH2 0x133C JUMP JUMPDEST SWAP1 POP SWAP2 SWAP1 POP JUMP JUMPDEST PUSH1 0x0 PUSH1 0x20 DUP3 ADD SWAP1 POP DUP2 DUP2 SUB PUSH1 0x0 DUP4 ADD MSTORE PUSH2 0x1502 DUP2 PUSH2 0x135F JUMP JUMPDEST SWAP1 POP SWAP2 SWAP1 POP JUMP JUMPDEST PUSH1 0x0 PUSH1 0x20 DUP3 ADD SWAP1 POP DUP2 DUP2 SUB PUSH1 0x0 DUP4 ADD MSTORE PUSH2 0x1522 DUP2 PUSH2 0x1382 JUMP JUMPDEST SWAP1 POP SWAP2 SWAP1 POP JUMP JUMPDEST PUSH1 0x0 PUSH1 0x20 DUP3 ADD SWAP1 POP DUP2 DUP2 SUB PUSH1 0x0 DUP4 ADD MSTORE PUSH2 0x1543 DUP2 DUP5 PUSH2 0x13A5 JUMP JUMPDEST SWAP1 POP SWAP3 SWAP2 POP POP JUMP JUMPDEST PUSH1 0x0 PUSH2 0x1555 PUSH2 0x1566 JUMP JUMPDEST SWAP1 POP PUSH2 0x1561 DUP3 DUP3 PUSH2 0x16D8 JUMP JUMPDEST SWAP2 SWAP1 POP JUMP JUMPDEST PUSH1 0x0 PUSH1 0x40 MLOAD SWAP1 POP SWAP1 JUMP JUMPDEST PUSH1 0x0 PUSH8 0xFFFFFFFFFFFFFFFF DUP3 GT ISZERO PUSH2 0x158B JUMPI PUSH2 0x158A PUSH2 0x180E JUMP JUMPDEST JUMPDEST PUSH2 0x1594 DUP3 PUSH2 0x1851 JUMP JUMPDEST SWAP1 POP PUSH1 0x20 DUP2 ADD SWAP1 POP SWAP2 SWAP1 POP JUMP JUMPDEST PUSH1 0x0 DUP2 SWAP1 POP PUSH1 0x20 DUP3 ADD SWAP1 POP SWAP2 SWAP1 POP JUMP JUMPDEST PUSH1 0x0 DUP2 MLOAD SWAP1 POP SWAP2 SWAP1 POP JUMP JUMPDEST PUSH1 0x0 DUP2 MLOAD SWAP1 POP SWAP2 SWAP1 POP JUMP JUMPDEST PUSH1 0x0 PUSH1 0x20 DUP3 ADD SWAP1 POP SWAP2 SWAP1 POP JUMP JUMPDEST PUSH1 0x0 DUP3 DUP3 MSTORE PUSH1 0x20 DUP3 ADD SWAP1 POP SWAP3 SWAP2 POP POP JUMP JUMPDEST PUSH1 0x0 DUP3 DUP3 MSTORE PUSH1 0x20 DUP3 ADD SWAP1 POP SWAP3 SWAP2 POP POP JUMP JUMPDEST PUSH1 0x0 DUP3 DUP3 MSTORE PUSH1 0x20 DUP3 ADD SWAP1 POP SWAP3 SWAP2 POP POP JUMP JUMPDEST PUSH1 0x0 DUP2 SWAP1 POP SWAP3 SWAP2 POP POP JUMP JUMPDEST PUSH1 0x0 PUSH2 0x161D DUP3 PUSH2 0x163A JUMP JUMPDEST SWAP1 POP SWAP2 SWAP1 POP JUMP JUMPDEST PUSH1 0x0 DUP2 ISZERO ISZERO SWAP1 POP SWAP2 SWAP1 POP JUMP JUMPDEST PUSH1 0x0 DUP2 SWAP1 POP SWAP2 SWAP1 POP JUMP JUMPDEST PUSH1 0x0 PUSH20 0xFFFFFFFFFFFFFFFFFFFFFFFFFFFFFFFFFFFFFFFF DUP3 AND SWAP1 POP SWAP2 SWAP1 POP JUMP JUMPDEST PUSH1 0x0 DUP2 SWAP1 POP SWAP2 SWAP1 POP JUMP JUMPDEST DUP3 DUP2 DUP4 CALLDATACOPY PUSH1 0x0 DUP4 DUP4 ADD MSTORE POP POP POP JUMP JUMPDEST PUSH1 0x0 JUMPDEST DUP4 DUP2 LT ISZERO PUSH2 0x1691 JUMPI DUP1 DUP3 ADD MLOAD DUP2 DUP5 ADD MSTORE PUSH1 0x20 DUP2 ADD SWAP1 POP PUSH2 0x1676 JUMP JUMPDEST DUP4 DUP2 GT ISZERO PUSH2 0x16A0 JUMPI PUSH1 0x0 DUP5 DUP5 ADD MSTORE JUMPDEST POP POP POP POP JUMP JUMPDEST PUSH1 0x0 PUSH1 0x2 DUP3 DIV SWAP1 POP PUSH1 0x1 DUP3 AND DUP1 PUSH2 0x16BE JUMPI PUSH1 0x7F DUP3 AND SWAP2 POP JUMPDEST PUSH1 0x20 DUP3 LT DUP2 EQ ISZERO PUSH2 0x16D2 JUMPI PUSH2 0x16D1 PUSH2 0x17B0 JUMP JUMPDEST JUMPDEST POP SWAP2 SWAP1 POP JUMP JUMPDEST PUSH2 0x16E1 DUP3 PUSH2 0x1851 JUMP JUMPDEST DUP2 ADD DUP2 DUP2 LT PUSH8 0xFFFFFFFFFFFFFFFF DUP3 GT OR ISZERO PUSH2 0x1700 JUMPI PUSH2 0x16FF PUSH2 0x180E JUMP JUMPDEST JUMPDEST DUP1 PUSH1 0x40 MSTORE POP POP POP JUMP JUMPDEST PUSH1 0x0 PUSH2 0x1714 DUP3 PUSH2 0x165A JUMP JUMPDEST SWAP2 POP PUSH32 0xFFFFFFFFFFFFFFFFFFFFFFFFFFFFFFFFFFFFFFFFFFFFFFFFFFFFFFFFFFFFFFFF DUP3 EQ ISZERO PUSH2 0x1747 JUMPI PUSH2 0x1746 PUSH2 0x1752 JUMP JUMPDEST JUMPDEST PUSH1 0x1 DUP3 ADD SWAP1 POP SWAP2 SWAP1 POP JUMP JUMPDEST PUSH32 0x4E487B7100000000000000000000000000000000000000000000000000000000 PUSH1 0x0 MSTORE PUSH1 0x11 PUSH1 0x4 MSTORE PUSH1 0x24 PUSH1 0x0 REVERT JUMPDEST PUSH32 0x4E487B7100000000000000000000000000000000000000000000000000000000 PUSH1 0x0 MSTORE PUSH1 0x21 PUSH1 0x4 MSTORE PUSH1 0x24 PUSH1 0x0 REVERT JUMPDEST PUSH32 0x4E487B7100000000000000000000000000000000000000000000000000000000 PUSH1 0x0 MSTORE PUSH1 0x22 PUSH1 0x4 MSTORE PUSH1 0x24 PUSH1 0x0 REVERT JUMPDEST PUSH32 0x4E487B7100000000000000000000000000000000000000000000000000000000 PUSH1 0x0 MSTORE PUSH1 0x32 PUSH1 0x4 MSTORE PUSH1 0x24 PUSH1 0x0 REVERT JUMPDEST PUSH32 0x4E487B7100000000000000000000000000000000000000000000000000000000 PUSH1 0x0 MSTORE PUSH1 0x41 PUSH1 0x4 MSTORE PUSH1 0x24 PUSH1 0x0 REVERT JUMPDEST PUSH1 0x0 DUP1 REVERT JUMPDEST PUSH1 0x0 DUP1 REVERT JUMPDEST PUSH1 0x0 DUP1 REVERT JUMPDEST PUSH1 0x0 DUP1 REVERT JUMPDEST PUSH1 0x0 PUSH1 0x1F NOT PUSH1 0x1F DUP4 ADD AND SWAP1 POP SWAP2 SWAP1 POP JUMP JUMPDEST PUSH32 0x52657669657720746865206170706C69636174696F6E20666972737400000000 PUSH1 0x0 DUP3 ADD MSTORE POP JUMP JUMPDEST PUSH32 0x4170706C69636174696F6E20616C72656164792073656E740000000000000000 PUSH1 0x0 DUP3 ADD MSTORE POP JUMP JUMPDEST PUSH32 0x596F7572206170706C69636174696F6E2068617320616C726561647920626565 PUSH1 0x0 DUP3 ADD MSTORE PUSH32 0x6E2072656A656374656400000000000000000000000000000000000000000000 PUSH1 0x20 DUP3 ADD MSTORE POP JUMP JUMPDEST PUSH32 0x596F7572206E6F7420507269766174652070726F766964657200000000000000 PUSH1 0x0 DUP3 ADD MSTORE POP JUMP JUMPDEST PUSH32 0x4170706C69636174696F6E20706861736520656E646564000000000000000000 PUSH1 0x0 DUP3 ADD MSTORE POP JUMP JUMPDEST PUSH2 0x195E DUP2 PUSH2 0x1612 JUMP JUMPDEST DUP2 EQ PUSH2 0x1969 JUMPI PUSH1 0x0 DUP1 REVERT JUMPDEST POP JUMP INVALID LOG2 PUSH5 0x6970667358 0x22 SLT KECCAK256 0xD8 0xF SWAP2 DIFFICULTY PUSH16 0x5BAD33AE6E714E7600D04647690A23DD 0xB6 0xD6 0xC2 0xD2 0xB3 0xB3 0xF8 JUMP REVERT 0xCD 0xBE PUSH5 0x736F6C6343 STOP ADDMOD SMOD STOP CALLER "
				},
				"gasEstimates": {
					"creation": {
						"codeDepositCost": "1312400",
						"executionCost": "1369",
						"totalCost": "1313769"
					},
					"external": {
						"acceptApplication(address)": "29556",
						"application(string,string,address)": "infinite",
						"deviationApplication(address)": "29491",
						"getApplicationAmountAdr()": "infinite",
						"getApplicationNotReviewed()": "infinite",
						"get_keccak256(string)": "infinite",
						"viewApplication(address)": "infinite"
					}
				},
				"methodIdentifiers": {
					"acceptApplication(address)": "a678b65b",
					"application(string,string,address)": "785963c3",
					"deviationApplication(address)": "1d3eea35",
					"getApplicationAmountAdr()": "686c4cea",
					"getApplicationNotReviewed()": "506a222c",
					"get_keccak256(string)": "8e4f8c6b",
					"viewApplication(address)": "76eada91"
				}
			},
			"storageLayout": {
				"storage": [
					{
						"astId": 414,
						"contract": "Documents/GitHub/contract-token-cryptoMonster/backend/components/PhasePrivate.sol:PhasePrivate",
						"label": "structUsers_",
						"offset": 0,
						"slot": "0",
						"type": "t_mapping(t_address,t_struct(structUser)409_storage)"
					},
					{
						"astId": 424,
						"contract": "Documents/GitHub/contract-token-cryptoMonster/backend/components/PhasePrivate.sol:PhasePrivate",
						"label": "structPhases_",
						"offset": 0,
						"slot": "1",
						"type": "t_mapping(t_address,t_struct(structPhase)419_storage)"
					},
					{
						"astId": 442,
						"contract": "Documents/GitHub/contract-token-cryptoMonster/backend/components/PhasePrivate.sol:PhasePrivate",
						"label": "strucApplications_",
						"offset": 0,
						"slot": "2",
						"type": "t_mapping(t_address,t_struct(structApplication)437_storage)"
					},
					{
						"astId": 445,
						"contract": "Documents/GitHub/contract-token-cryptoMonster/backend/components/PhasePrivate.sol:PhasePrivate",
						"label": "structApplicationsAmountAdr",
						"offset": 0,
						"slot": "3",
						"type": "t_array(t_address)dyn_storage"
					},
					{
						"astId": 448,
						"contract": "Documents/GitHub/contract-token-cryptoMonster/backend/components/PhasePrivate.sol:PhasePrivate",
						"label": "whiteList",
						"offset": 0,
						"slot": "4",
						"type": "t_array(t_address)dyn_storage"
					}
				],
				"types": {
					"t_address": {
						"encoding": "inplace",
						"label": "address",
						"numberOfBytes": "20"
					},
					"t_array(t_address)dyn_storage": {
						"base": "t_address",
						"encoding": "dynamic_array",
						"label": "address[]",
						"numberOfBytes": "32"
					},
					"t_bool": {
						"encoding": "inplace",
						"label": "bool",
						"numberOfBytes": "1"
					},
					"t_bytes32": {
						"encoding": "inplace",
						"label": "bytes32",
						"numberOfBytes": "32"
					},
					"t_enum(Role)393": {
						"encoding": "inplace",
						"label": "enum structures.Role",
						"numberOfBytes": "1"
					},
					"t_mapping(t_address,t_struct(structApplication)437_storage)": {
						"encoding": "mapping",
						"key": "t_address",
						"label": "mapping(address => struct structures.structApplication)",
						"numberOfBytes": "32",
						"value": "t_struct(structApplication)437_storage"
					},
					"t_mapping(t_address,t_struct(structPhase)419_storage)": {
						"encoding": "mapping",
						"key": "t_address",
						"label": "mapping(address => struct structures.structPhase)",
						"numberOfBytes": "32",
						"value": "t_struct(structPhase)419_storage"
					},
					"t_mapping(t_address,t_struct(structUser)409_storage)": {
						"encoding": "mapping",
						"key": "t_address",
						"label": "mapping(address => struct structures.structUser)",
						"numberOfBytes": "32",
						"value": "t_struct(structUser)409_storage"
					},
					"t_string_storage": {
						"encoding": "bytes",
						"label": "string",
						"numberOfBytes": "32"
					},
					"t_struct(structApplication)437_storage": {
						"encoding": "inplace",
						"label": "struct structures.structApplication",
						"members": [
							{
								"astId": 426,
								"contract": "Documents/GitHub/contract-token-cryptoMonster/backend/components/PhasePrivate.sol:PhasePrivate",
								"label": "name",
								"offset": 0,
								"slot": "0",
								"type": "t_string_storage"
							},
							{
								"astId": 428,
								"contract": "Documents/GitHub/contract-token-cryptoMonster/backend/components/PhasePrivate.sol:PhasePrivate",
								"label": "contactForCommunication",
								"offset": 0,
								"slot": "1",
								"type": "t_string_storage"
							},
							{
								"astId": 430,
								"contract": "Documents/GitHub/contract-token-cryptoMonster/backend/components/PhasePrivate.sol:PhasePrivate",
								"label": "userAdr",
								"offset": 0,
								"slot": "2",
								"type": "t_address"
							},
							{
								"astId": 432,
								"contract": "Documents/GitHub/contract-token-cryptoMonster/backend/components/PhasePrivate.sol:PhasePrivate",
								"label": "status",
								"offset": 20,
								"slot": "2",
								"type": "t_bool"
							},
							{
								"astId": 434,
								"contract": "Documents/GitHub/contract-token-cryptoMonster/backend/components/PhasePrivate.sol:PhasePrivate",
								"label": "reviewed",
								"offset": 21,
								"slot": "2",
								"type": "t_bool"
							},
							{
								"astId": 436,
								"contract": "Documents/GitHub/contract-token-cryptoMonster/backend/components/PhasePrivate.sol:PhasePrivate",
								"label": "exist",
								"offset": 22,
								"slot": "2",
								"type": "t_bool"
							}
						],
						"numberOfBytes": "96"
					},
					"t_struct(structPhase)419_storage": {
						"encoding": "inplace",
						"label": "struct structures.structPhase",
						"members": [
							{
								"astId": 416,
								"contract": "Documents/GitHub/contract-token-cryptoMonster/backend/components/PhasePrivate.sol:PhasePrivate",
								"label": "statusPhase",
								"offset": 0,
								"slot": "0",
								"type": "t_bool"
							},
							{
								"astId": 418,
								"contract": "Documents/GitHub/contract-token-cryptoMonster/backend/components/PhasePrivate.sol:PhasePrivate",
								"label": "reviewed",
								"offset": 1,
								"slot": "0",
								"type": "t_bool"
							}
						],
						"numberOfBytes": "32"
					},
					"t_struct(structUser)409_storage": {
						"encoding": "inplace",
						"label": "struct structures.structUser",
						"members": [
							{
								"astId": 396,
								"contract": "Documents/GitHub/contract-token-cryptoMonster/backend/components/PhasePrivate.sol:PhasePrivate",
								"label": "role",
								"offset": 0,
								"slot": "0",
								"type": "t_enum(Role)393"
							},
							{
								"astId": 398,
								"contract": "Documents/GitHub/contract-token-cryptoMonster/backend/components/PhasePrivate.sol:PhasePrivate",
								"label": "login",
								"offset": 0,
								"slot": "1",
								"type": "t_string_storage"
							},
							{
								"astId": 400,
								"contract": "Documents/GitHub/contract-token-cryptoMonster/backend/components/PhasePrivate.sol:PhasePrivate",
								"label": "password",
								"offset": 0,
								"slot": "2",
								"type": "t_bytes32"
							},
							{
								"astId": 402,
								"contract": "Documents/GitHub/contract-token-cryptoMonster/backend/components/PhasePrivate.sol:PhasePrivate",
								"label": "balance_overall",
								"offset": 0,
								"slot": "3",
								"type": "t_uint256"
							},
							{
								"astId": 404,
								"contract": "Documents/GitHub/contract-token-cryptoMonster/backend/components/PhasePrivate.sol:PhasePrivate",
								"label": "balance_seed",
								"offset": 0,
								"slot": "4",
								"type": "t_uint256"
							},
							{
								"astId": 406,
								"contract": "Documents/GitHub/contract-token-cryptoMonster/backend/components/PhasePrivate.sol:PhasePrivate",
								"label": "balance_private",
								"offset": 0,
								"slot": "5",
								"type": "t_uint256"
							},
							{
								"astId": 408,
								"contract": "Documents/GitHub/contract-token-cryptoMonster/backend/components/PhasePrivate.sol:PhasePrivate",
								"label": "balance_public",
								"offset": 0,
								"slot": "6",
								"type": "t_uint256"
							}
						],
						"numberOfBytes": "224"
					},
					"t_uint256": {
						"encoding": "inplace",
						"label": "uint256",
						"numberOfBytes": "32"
					}
				}
			},
			"userdoc": {
				"kind": "user",
				"methods": {},
				"version": 1
			}
		}
	}
}