{
	"GitHub/contract-token-cryptoMonster/components/CryptoMonster.sol": {
		"CryptoMonster": {
			"abi": [
				{
					"inputs": [
						{
							"internalType": "uint256",
							"name": "total",
							"type": "uint256"
						}
					],
					"stateMutability": "nonpayable",
					"type": "constructor"
				},
				{
					"anonymous": false,
					"inputs": [
						{
							"indexed": true,
							"internalType": "address",
							"name": "_owner",
							"type": "address"
						},
						{
							"indexed": true,
							"internalType": "address",
							"name": "_spender",
							"type": "address"
						},
						{
							"indexed": false,
							"internalType": "uint256",
							"name": "_value",
							"type": "uint256"
						}
					],
					"name": "Approval",
					"type": "event"
				},
				{
					"anonymous": false,
					"inputs": [
						{
							"indexed": true,
							"internalType": "address",
							"name": "_from",
							"type": "address"
						},
						{
							"indexed": true,
							"internalType": "address",
							"name": "_to",
							"type": "address"
						},
						{
							"indexed": false,
							"internalType": "uint256",
							"name": "_value",
							"type": "uint256"
						}
					],
					"name": "Transfer",
					"type": "event"
				},
				{
					"inputs": [
						{
							"internalType": "address",
							"name": "_owner",
							"type": "address"
						},
						{
							"internalType": "address",
							"name": "_delegate",
							"type": "address"
						}
					],
					"name": "allowance",
					"outputs": [
						{
							"internalType": "uint256",
							"name": "",
							"type": "uint256"
						}
					],
					"stateMutability": "view",
					"type": "function"
				},
				{
					"inputs": [
						{
							"internalType": "address",
							"name": "_delegate",
							"type": "address"
						},
						{
							"internalType": "uint256",
							"name": "_numTokens",
							"type": "uint256"
						}
					],
					"name": "approve",
					"outputs": [
						{
							"internalType": "bool",
							"name": "",
							"type": "bool"
						}
					],
					"stateMutability": "nonpayable",
					"type": "function"
				},
				{
					"inputs": [
						{
							"internalType": "address",
							"name": "_tokenOwner",
							"type": "address"
						}
					],
					"name": "balanceOf",
					"outputs": [
						{
							"internalType": "uint256",
							"name": "",
							"type": "uint256"
						}
					],
					"stateMutability": "view",
					"type": "function"
				},
				{
					"inputs": [
						{
							"internalType": "uint256",
							"name": "_amount",
							"type": "uint256"
						}
					],
					"name": "buy",
					"outputs": [],
					"stateMutability": "payable",
					"type": "function"
				},
				{
					"inputs": [],
					"name": "decimals",
					"outputs": [
						{
							"internalType": "uint8",
							"name": "",
							"type": "uint8"
						}
					],
					"stateMutability": "view",
					"type": "function"
				},
				{
					"inputs": [],
					"name": "name",
					"outputs": [
						{
							"internalType": "string",
							"name": "",
							"type": "string"
						}
					],
					"stateMutability": "view",
					"type": "function"
				},
				{
					"inputs": [],
					"name": "symbol",
					"outputs": [
						{
							"internalType": "string",
							"name": "",
							"type": "string"
						}
					],
					"stateMutability": "view",
					"type": "function"
				},
				{
					"inputs": [],
					"name": "tokenPrice_",
					"outputs": [
						{
							"internalType": "uint256",
							"name": "",
							"type": "uint256"
						}
					],
					"stateMutability": "view",
					"type": "function"
				},
				{
					"inputs": [],
					"name": "totalSupply",
					"outputs": [
						{
							"internalType": "uint256",
							"name": "",
							"type": "uint256"
						}
					],
					"stateMutability": "view",
					"type": "function"
				},
				{
					"inputs": [
						{
							"internalType": "address",
							"name": "_receiver",
							"type": "address"
						},
						{
							"internalType": "uint256",
							"name": "_numTokens",
							"type": "uint256"
						}
					],
					"name": "transfer",
					"outputs": [
						{
							"internalType": "bool",
							"name": "",
							"type": "bool"
						}
					],
					"stateMutability": "nonpayable",
					"type": "function"
				},
				{
					"inputs": [
						{
							"internalType": "address",
							"name": "_owner",
							"type": "address"
						},
						{
							"internalType": "address",
							"name": "_buyer",
							"type": "address"
						},
						{
							"internalType": "uint256",
							"name": "_numTokens",
							"type": "uint256"
						}
					],
					"name": "transferFrom",
					"outputs": [
						{
							"internalType": "bool",
							"name": "",
							"type": "bool"
						}
					],
					"stateMutability": "nonpayable",
					"type": "function"
				}
			],
			"devdoc": {
				"kind": "dev",
				"methods": {},
				"version": 1
			},
			"evm": {
				"assembly": "    /* \"GitHub/contract-token-cryptoMonster/components/CryptoMonster.sol\":148:6010  contract CryptoMonster is IERC20  {\r... */\n  mstore(0x40, 0x80)\n    /* \"GitHub/contract-token-cryptoMonster/components/CryptoMonster.sol\":1378:1502  constructor(uint256 total) {\r... */\n  callvalue\n  dup1\n  iszero\n  tag_1\n  jumpi\n  0x00\n  dup1\n  revert\ntag_1:\n  pop\n  mload(0x40)\n  sub(codesize, bytecodeSize)\n  dup1\n  bytecodeSize\n  dup4\n  codecopy\n  dup2\n  dup2\n  add\n  0x40\n  mstore\n  dup2\n  add\n  swap1\n  tag_2\n  swap2\n  swap1\n  tag_3\n  jump\t// in\ntag_2:\n    /* \"GitHub/contract-token-cryptoMonster/components/CryptoMonster.sol\":1431:1436  total */\n  dup1\n    /* \"GitHub/contract-token-cryptoMonster/components/CryptoMonster.sol\":1416:1428  totalSupply_ */\n  0x03\n    /* \"GitHub/contract-token-cryptoMonster/components/CryptoMonster.sol\":1416:1436  totalSupply_ = total */\n  dup2\n  swap1\n  sstore\n  pop\n    /* \"GitHub/contract-token-cryptoMonster/components/CryptoMonster.sol\":1482:1494  totalSupply_ */\n  sload(0x03)\n    /* \"GitHub/contract-token-cryptoMonster/components/CryptoMonster.sol\":1447:1458  structUser_ */\n  0x00\n    /* \"GitHub/contract-token-cryptoMonster/components/CryptoMonster.sol\":1447:1470  structUser_[msg.sender] */\n  dup1\n    /* \"GitHub/contract-token-cryptoMonster/components/CryptoMonster.sol\":1459:1469  msg.sender */\n  caller\n    /* \"GitHub/contract-token-cryptoMonster/components/CryptoMonster.sol\":1447:1470  structUser_[msg.sender] */\n  0xffffffffffffffffffffffffffffffffffffffff\n  and\n  0xffffffffffffffffffffffffffffffffffffffff\n  and\n  dup2\n  mstore\n  0x20\n  add\n  swap1\n  dup2\n  mstore\n  0x20\n  add\n  0x00\n  keccak256\n    /* \"GitHub/contract-token-cryptoMonster/components/CryptoMonster.sol\":1447:1479  structUser_[msg.sender].balances */\n  0x02\n  add\n    /* \"GitHub/contract-token-cryptoMonster/components/CryptoMonster.sol\":1447:1494  structUser_[msg.sender].balances = totalSupply_ */\n  dup2\n  swap1\n  sstore\n  pop\n    /* \"GitHub/contract-token-cryptoMonster/components/CryptoMonster.sol\":1378:1502  constructor(uint256 total) {\r... */\n  pop\n    /* \"GitHub/contract-token-cryptoMonster/components/CryptoMonster.sol\":148:6010  contract CryptoMonster is IERC20  {\r... */\n  jump(tag_6)\n    /* \"#utility.yul\":7:150   */\ntag_8:\n    /* \"#utility.yul\":64:69   */\n  0x00\n    /* \"#utility.yul\":95:101   */\n  dup2\n    /* \"#utility.yul\":89:102   */\n  mload\n    /* \"#utility.yul\":80:102   */\n  swap1\n  pop\n    /* \"#utility.yul\":111:144   */\n  tag_10\n    /* \"#utility.yul\":138:143   */\n  dup2\n    /* \"#utility.yul\":111:144   */\n  tag_11\n  jump\t// in\ntag_10:\n    /* \"#utility.yul\":7:150   */\n  swap3\n  swap2\n  pop\n  pop\n  jump\t// out\n    /* \"#utility.yul\":156:507   */\ntag_3:\n    /* \"#utility.yul\":226:232   */\n  0x00\n    /* \"#utility.yul\":275:277   */\n  0x20\n    /* \"#utility.yul\":263:272   */\n  dup3\n    /* \"#utility.yul\":254:261   */\n  dup5\n    /* \"#utility.yul\":250:273   */\n  sub\n    /* \"#utility.yul\":246:278   */\n  slt\n    /* \"#utility.yul\":243:362   */\n  iszero\n  tag_13\n  jumpi\n    /* \"#utility.yul\":281:360   */\n  tag_14\n  tag_15\n  jump\t// in\ntag_14:\n    /* \"#utility.yul\":243:362   */\ntag_13:\n    /* \"#utility.yul\":401:402   */\n  0x00\n    /* \"#utility.yul\":426:490   */\n  tag_16\n    /* \"#utility.yul\":482:489   */\n  dup5\n    /* \"#utility.yul\":473:479   */\n  dup3\n    /* \"#utility.yul\":462:471   */\n  dup6\n    /* \"#utility.yul\":458:480   */\n  add\n    /* \"#utility.yul\":426:490   */\n  tag_8\n  jump\t// in\ntag_16:\n    /* \"#utility.yul\":416:490   */\n  swap2\n  pop\n    /* \"#utility.yul\":372:500   */\n  pop\n    /* \"#utility.yul\":156:507   */\n  swap3\n  swap2\n  pop\n  pop\n  jump\t// out\n    /* \"#utility.yul\":594:671   */\ntag_19:\n    /* \"#utility.yul\":631:638   */\n  0x00\n    /* \"#utility.yul\":660:665   */\n  dup2\n    /* \"#utility.yul\":649:665   */\n  swap1\n  pop\n    /* \"#utility.yul\":594:671   */\n  swap2\n  swap1\n  pop\n  jump\t// out\n    /* \"#utility.yul\":800:917   */\ntag_15:\n    /* \"#utility.yul\":909:910   */\n  0x00\n    /* \"#utility.yul\":906:907   */\n  dup1\n    /* \"#utility.yul\":899:911   */\n  revert\n    /* \"#utility.yul\":923:1045   */\ntag_11:\n    /* \"#utility.yul\":996:1020   */\n  tag_25\n    /* \"#utility.yul\":1014:1019   */\n  dup2\n    /* \"#utility.yul\":996:1020   */\n  tag_19\n  jump\t// in\ntag_25:\n    /* \"#utility.yul\":989:994   */\n  dup2\n    /* \"#utility.yul\":986:1021   */\n  eq\n    /* \"#utility.yul\":976:1039   */\n  tag_26\n  jumpi\n    /* \"#utility.yul\":1035:1036   */\n  0x00\n    /* \"#utility.yul\":1032:1033   */\n  dup1\n    /* \"#utility.yul\":1025:1037   */\n  revert\n    /* \"#utility.yul\":976:1039   */\ntag_26:\n    /* \"#utility.yul\":923:1045   */\n  pop\n  jump\t// out\n    /* \"GitHub/contract-token-cryptoMonster/components/CryptoMonster.sol\":148:6010  contract CryptoMonster is IERC20  {\r... */\ntag_6:\n  dataSize(sub_0)\n  dup1\n  dataOffset(sub_0)\n  0x00\n  codecopy\n  0x00\n  return\nstop\n\nsub_0: assembly {\n        /* \"GitHub/contract-token-cryptoMonster/components/CryptoMonster.sol\":148:6010  contract CryptoMonster is IERC20  {\r... */\n      mstore(0x40, 0x80)\n      jumpi(tag_1, lt(calldatasize, 0x04))\n      shr(0xe0, calldataload(0x00))\n      dup1\n      0x313ce567\n      gt\n      tag_13\n      jumpi\n      dup1\n      0x313ce567\n      eq\n      tag_7\n      jumpi\n      dup1\n      0x70a08231\n      eq\n      tag_8\n      jumpi\n      dup1\n      0x95d89b41\n      eq\n      tag_9\n      jumpi\n      dup1\n      0xa9059cbb\n      eq\n      tag_10\n      jumpi\n      dup1\n      0xd96a094a\n      eq\n      tag_11\n      jumpi\n      dup1\n      0xdd62ed3e\n      eq\n      tag_12\n      jumpi\n      jump(tag_1)\n    tag_13:\n      dup1\n      0x06fdde03\n      eq\n      tag_2\n      jumpi\n      dup1\n      0x0761c8b9\n      eq\n      tag_3\n      jumpi\n      dup1\n      0x095ea7b3\n      eq\n      tag_4\n      jumpi\n      dup1\n      0x18160ddd\n      eq\n      tag_5\n      jumpi\n      dup1\n      0x23b872dd\n      eq\n      tag_6\n      jumpi\n    tag_1:\n      0x00\n      dup1\n      revert\n        /* \"GitHub/contract-token-cryptoMonster/components/CryptoMonster.sol\":354:399  string public constant name = \"CryptoMonster\" */\n    tag_2:\n      callvalue\n      dup1\n      iszero\n      tag_14\n      jumpi\n      0x00\n      dup1\n      revert\n    tag_14:\n      pop\n      tag_15\n      tag_16\n      jump\t// in\n    tag_15:\n      mload(0x40)\n      tag_17\n      swap2\n      swap1\n      tag_18\n      jump\t// in\n    tag_17:\n      mload(0x40)\n      dup1\n      swap2\n      sub\n      swap1\n      return\n        /* \"GitHub/contract-token-cryptoMonster/components/CryptoMonster.sol\":1198:1246  uint256 public constant tokenPrice_ = 1000000000 */\n    tag_3:\n      callvalue\n      dup1\n      iszero\n      tag_19\n      jumpi\n      0x00\n      dup1\n      revert\n    tag_19:\n      pop\n      tag_20\n      tag_21\n      jump\t// in\n    tag_20:\n      mload(0x40)\n      tag_22\n      swap2\n      swap1\n      tag_23\n      jump\t// in\n    tag_22:\n      mload(0x40)\n      dup1\n      swap2\n      sub\n      swap1\n      return\n        /* \"GitHub/contract-token-cryptoMonster/components/CryptoMonster.sol\":5209:5583  function approve(address _delegate, uint256 _numTokens) public override returns (bool) {\r... */\n    tag_4:\n      callvalue\n      dup1\n      iszero\n      tag_24\n      jumpi\n      0x00\n      dup1\n      revert\n    tag_24:\n      pop\n      tag_25\n      0x04\n      dup1\n      calldatasize\n      sub\n      dup2\n      add\n      swap1\n      tag_26\n      swap2\n      swap1\n      tag_27\n      jump\t// in\n    tag_26:\n      tag_28\n      jump\t// in\n    tag_25:\n      mload(0x40)\n      tag_29\n      swap2\n      swap1\n      tag_30\n      jump\t// in\n    tag_29:\n      mload(0x40)\n      dup1\n      swap2\n      sub\n      swap1\n      return\n        /* \"GitHub/contract-token-cryptoMonster/components/CryptoMonster.sol\":2167:2267  function totalSupply() public override view returns (uint256) {\r... */\n    tag_5:\n      callvalue\n      dup1\n      iszero\n      tag_31\n      jumpi\n      0x00\n      dup1\n      revert\n    tag_31:\n      pop\n      tag_32\n      tag_33\n      jump\t// in\n    tag_32:\n      mload(0x40)\n      tag_34\n      swap2\n      swap1\n      tag_23\n      jump\t// in\n    tag_34:\n      mload(0x40)\n      dup1\n      swap2\n      sub\n      swap1\n      return\n        /* \"GitHub/contract-token-cryptoMonster/components/CryptoMonster.sol\":4062:4873  function transferFrom(address _owner, address _buyer, uint256 _numTokens) public override returns (bool) {\r... */\n    tag_6:\n      callvalue\n      dup1\n      iszero\n      tag_35\n      jumpi\n      0x00\n      dup1\n      revert\n    tag_35:\n      pop\n      tag_36\n      0x04\n      dup1\n      calldatasize\n      sub\n      dup2\n      add\n      swap1\n      tag_37\n      swap2\n      swap1\n      tag_38\n      jump\t// in\n    tag_37:\n      tag_39\n      jump\t// in\n    tag_36:\n      mload(0x40)\n      tag_40\n      swap2\n      swap1\n      tag_30\n      jump\t// in\n    tag_40:\n      mload(0x40)\n      dup1\n      swap2\n      sub\n      swap1\n      return\n        /* \"GitHub/contract-token-cryptoMonster/components/CryptoMonster.sol\":510:545  uint8 public constant decimals = 12 */\n    tag_7:\n      callvalue\n      dup1\n      iszero\n      tag_41\n      jumpi\n      0x00\n      dup1\n      revert\n    tag_41:\n      pop\n      tag_42\n      tag_43\n      jump\t// in\n    tag_42:\n      mload(0x40)\n      tag_44\n      swap2\n      swap1\n      tag_45\n      jump\t// in\n    tag_44:\n      mload(0x40)\n      dup1\n      swap2\n      sub\n      swap1\n      return\n        /* \"GitHub/contract-token-cryptoMonster/components/CryptoMonster.sol\":2477:2615  function balanceOf(address _tokenOwner) public override view returns (uint256) {\r... */\n    tag_8:\n      callvalue\n      dup1\n      iszero\n      tag_46\n      jumpi\n      0x00\n      dup1\n      revert\n    tag_46:\n      pop\n      tag_47\n      0x04\n      dup1\n      calldatasize\n      sub\n      dup2\n      add\n      swap1\n      tag_48\n      swap2\n      swap1\n      tag_49\n      jump\t// in\n    tag_48:\n      tag_50\n      jump\t// in\n    tag_47:\n      mload(0x40)\n      tag_51\n      swap2\n      swap1\n      tag_23\n      jump\t// in\n    tag_51:\n      mload(0x40)\n      dup1\n      swap2\n      sub\n      swap1\n      return\n        /* \"GitHub/contract-token-cryptoMonster/components/CryptoMonster.sol\":430:468  string public constant symbol = \"CMON\" */\n    tag_9:\n      callvalue\n      dup1\n      iszero\n      tag_52\n      jumpi\n      0x00\n      dup1\n      revert\n    tag_52:\n      pop\n      tag_53\n      tag_54\n      jump\t// in\n    tag_53:\n      mload(0x40)\n      tag_55\n      swap2\n      swap1\n      tag_18\n      jump\t// in\n    tag_55:\n      mload(0x40)\n      dup1\n      swap2\n      sub\n      swap1\n      return\n        /* \"GitHub/contract-token-cryptoMonster/components/CryptoMonster.sol\":3038:3729  function transfer(address _receiver, uint256 _numTokens) public override returns (bool) {\r... */\n    tag_10:\n      callvalue\n      dup1\n      iszero\n      tag_56\n      jumpi\n      0x00\n      dup1\n      revert\n    tag_56:\n      pop\n      tag_57\n      0x04\n      dup1\n      calldatasize\n      sub\n      dup2\n      add\n      swap1\n      tag_58\n      swap2\n      swap1\n      tag_27\n      jump\t// in\n    tag_58:\n      tag_59\n      jump\t// in\n    tag_57:\n      mload(0x40)\n      tag_60\n      swap2\n      swap1\n      tag_30\n      jump\t// in\n    tag_60:\n      mload(0x40)\n      dup1\n      swap2\n      sub\n      swap1\n      return\n        /* \"GitHub/contract-token-cryptoMonster/components/CryptoMonster.sol\":1575:1965  function buy(uint256 _amount) external payable {\r... */\n    tag_11:\n      tag_61\n      0x04\n      dup1\n      calldatasize\n      sub\n      dup2\n      add\n      swap1\n      tag_62\n      swap2\n      swap1\n      tag_63\n      jump\t// in\n    tag_62:\n      tag_64\n      jump\t// in\n    tag_61:\n      stop\n        /* \"GitHub/contract-token-cryptoMonster/components/CryptoMonster.sol\":5865:6007  function allowance(address _owner, address _delegate) public override view returns (uint) {\r... */\n    tag_12:\n      callvalue\n      dup1\n      iszero\n      tag_65\n      jumpi\n      0x00\n      dup1\n      revert\n    tag_65:\n      pop\n      tag_66\n      0x04\n      dup1\n      calldatasize\n      sub\n      dup2\n      add\n      swap1\n      tag_67\n      swap2\n      swap1\n      tag_68\n      jump\t// in\n    tag_67:\n      tag_69\n      jump\t// in\n    tag_66:\n      mload(0x40)\n      tag_70\n      swap2\n      swap1\n      tag_23\n      jump\t// in\n    tag_70:\n      mload(0x40)\n      dup1\n      swap2\n      sub\n      swap1\n      return\n        /* \"GitHub/contract-token-cryptoMonster/components/CryptoMonster.sol\":354:399  string public constant name = \"CryptoMonster\" */\n    tag_16:\n      mload(0x40)\n      dup1\n      0x40\n      add\n      0x40\n      mstore\n      dup1\n      0x0d\n      dup2\n      mstore\n      0x20\n      add\n      0x43727970746f4d6f6e7374657200000000000000000000000000000000000000\n      dup2\n      mstore\n      pop\n      dup2\n      jump\t// out\n        /* \"GitHub/contract-token-cryptoMonster/components/CryptoMonster.sol\":1198:1246  uint256 public constant tokenPrice_ = 1000000000 */\n    tag_21:\n        /* \"GitHub/contract-token-cryptoMonster/components/CryptoMonster.sol\":1236:1246  1000000000 */\n      0x3b9aca00\n        /* \"GitHub/contract-token-cryptoMonster/components/CryptoMonster.sol\":1198:1246  uint256 public constant tokenPrice_ = 1000000000 */\n      dup2\n      jump\t// out\n        /* \"GitHub/contract-token-cryptoMonster/components/CryptoMonster.sol\":5209:5583  function approve(address _delegate, uint256 _numTokens) public override returns (bool) {\r... */\n    tag_28:\n        /* \"GitHub/contract-token-cryptoMonster/components/CryptoMonster.sol\":5290:5294  bool */\n      0x00\n        /* \"GitHub/contract-token-cryptoMonster/components/CryptoMonster.sol\":5340:5350  _numTokens */\n      dup2\n        /* \"GitHub/contract-token-cryptoMonster/components/CryptoMonster.sol\":5307:5314  allowed */\n      0x02\n        /* \"GitHub/contract-token-cryptoMonster/components/CryptoMonster.sol\":5307:5326  allowed[msg.sender] */\n      0x00\n        /* \"GitHub/contract-token-cryptoMonster/components/CryptoMonster.sol\":5315:5325  msg.sender */\n      caller\n        /* \"GitHub/contract-token-cryptoMonster/components/CryptoMonster.sol\":5307:5326  allowed[msg.sender] */\n      0xffffffffffffffffffffffffffffffffffffffff\n      and\n      0xffffffffffffffffffffffffffffffffffffffff\n      and\n      dup2\n      mstore\n      0x20\n      add\n      swap1\n      dup2\n      mstore\n      0x20\n      add\n      0x00\n      keccak256\n        /* \"GitHub/contract-token-cryptoMonster/components/CryptoMonster.sol\":5307:5337  allowed[msg.sender][_delegate] */\n      0x00\n        /* \"GitHub/contract-token-cryptoMonster/components/CryptoMonster.sol\":5327:5336  _delegate */\n      dup6\n        /* \"GitHub/contract-token-cryptoMonster/components/CryptoMonster.sol\":5307:5337  allowed[msg.sender][_delegate] */\n      0xffffffffffffffffffffffffffffffffffffffff\n      and\n      0xffffffffffffffffffffffffffffffffffffffff\n      and\n      dup2\n      mstore\n      0x20\n      add\n      swap1\n      dup2\n      mstore\n      0x20\n      add\n      0x00\n      keccak256\n        /* \"GitHub/contract-token-cryptoMonster/components/CryptoMonster.sol\":5307:5350  allowed[msg.sender][_delegate] = _numTokens */\n      dup2\n      swap1\n      sstore\n      pop\n        /* \"GitHub/contract-token-cryptoMonster/components/CryptoMonster.sol\":5528:5537  _delegate */\n      dup3\n        /* \"GitHub/contract-token-cryptoMonster/components/CryptoMonster.sol\":5507:5550  Approval(msg.sender, _delegate, _numTokens) */\n      0xffffffffffffffffffffffffffffffffffffffff\n      and\n        /* \"GitHub/contract-token-cryptoMonster/components/CryptoMonster.sol\":5516:5526  msg.sender */\n      caller\n        /* \"GitHub/contract-token-cryptoMonster/components/CryptoMonster.sol\":5507:5550  Approval(msg.sender, _delegate, _numTokens) */\n      0xffffffffffffffffffffffffffffffffffffffff\n      and\n      0x8c5be1e5ebec7d5bd14f71427d1e84f3dd0314c0f7b2291e5b200ac8c7c3b925\n        /* \"GitHub/contract-token-cryptoMonster/components/CryptoMonster.sol\":5539:5549  _numTokens */\n      dup5\n        /* \"GitHub/contract-token-cryptoMonster/components/CryptoMonster.sol\":5507:5550  Approval(msg.sender, _delegate, _numTokens) */\n      mload(0x40)\n      tag_72\n      swap2\n      swap1\n      tag_23\n      jump\t// in\n    tag_72:\n      mload(0x40)\n      dup1\n      swap2\n      sub\n      swap1\n      log3\n        /* \"GitHub/contract-token-cryptoMonster/components/CryptoMonster.sol\":5571:5575  true */\n      0x01\n        /* \"GitHub/contract-token-cryptoMonster/components/CryptoMonster.sol\":5564:5575  return true */\n      swap1\n      pop\n        /* \"GitHub/contract-token-cryptoMonster/components/CryptoMonster.sol\":5209:5583  function approve(address _delegate, uint256 _numTokens) public override returns (bool) {\r... */\n      swap3\n      swap2\n      pop\n      pop\n      jump\t// out\n        /* \"GitHub/contract-token-cryptoMonster/components/CryptoMonster.sol\":2167:2267  function totalSupply() public override view returns (uint256) {\r... */\n    tag_33:\n        /* \"GitHub/contract-token-cryptoMonster/components/CryptoMonster.sol\":2220:2227  uint256 */\n      0x00\n        /* \"GitHub/contract-token-cryptoMonster/components/CryptoMonster.sol\":2247:2259  totalSupply_ */\n      sload(0x03)\n        /* \"GitHub/contract-token-cryptoMonster/components/CryptoMonster.sol\":2240:2259  return totalSupply_ */\n      swap1\n      pop\n        /* \"GitHub/contract-token-cryptoMonster/components/CryptoMonster.sol\":2167:2267  function totalSupply() public override view returns (uint256) {\r... */\n      swap1\n      jump\t// out\n        /* \"GitHub/contract-token-cryptoMonster/components/CryptoMonster.sol\":4062:4873  function transferFrom(address _owner, address _buyer, uint256 _numTokens) public override returns (bool) {\r... */\n    tag_39:\n        /* \"GitHub/contract-token-cryptoMonster/components/CryptoMonster.sol\":4161:4165  bool */\n      0x00\n        /* \"GitHub/contract-token-cryptoMonster/components/CryptoMonster.sol\":4200:4211  structUser_ */\n      dup1\n        /* \"GitHub/contract-token-cryptoMonster/components/CryptoMonster.sol\":4200:4219  structUser_[_owner] */\n      0x00\n        /* \"GitHub/contract-token-cryptoMonster/components/CryptoMonster.sol\":4212:4218  _owner */\n      dup6\n        /* \"GitHub/contract-token-cryptoMonster/components/CryptoMonster.sol\":4200:4219  structUser_[_owner] */\n      0xffffffffffffffffffffffffffffffffffffffff\n      and\n      0xffffffffffffffffffffffffffffffffffffffff\n      and\n      dup2\n      mstore\n      0x20\n      add\n      swap1\n      dup2\n      mstore\n      0x20\n      add\n      0x00\n      keccak256\n        /* \"GitHub/contract-token-cryptoMonster/components/CryptoMonster.sol\":4200:4228  structUser_[_owner].balances */\n      0x02\n      add\n      sload\n        /* \"GitHub/contract-token-cryptoMonster/components/CryptoMonster.sol\":4186:4196  _numTokens */\n      dup3\n        /* \"GitHub/contract-token-cryptoMonster/components/CryptoMonster.sol\":4186:4228  _numTokens <= structUser_[_owner].balances */\n      gt\n      iszero\n        /* \"GitHub/contract-token-cryptoMonster/components/CryptoMonster.sol\":4178:4229  require(_numTokens <= structUser_[_owner].balances) */\n      tag_75\n      jumpi\n      0x00\n      dup1\n      revert\n    tag_75:\n        /* \"GitHub/contract-token-cryptoMonster/components/CryptoMonster.sol\":4300:4307  allowed */\n      0x02\n        /* \"GitHub/contract-token-cryptoMonster/components/CryptoMonster.sol\":4300:4315  allowed[_owner] */\n      0x00\n        /* \"GitHub/contract-token-cryptoMonster/components/CryptoMonster.sol\":4308:4314  _owner */\n      dup6\n        /* \"GitHub/contract-token-cryptoMonster/components/CryptoMonster.sol\":4300:4315  allowed[_owner] */\n      0xffffffffffffffffffffffffffffffffffffffff\n      and\n      0xffffffffffffffffffffffffffffffffffffffff\n      and\n      dup2\n      mstore\n      0x20\n      add\n      swap1\n      dup2\n      mstore\n      0x20\n      add\n      0x00\n      keccak256\n        /* \"GitHub/contract-token-cryptoMonster/components/CryptoMonster.sol\":4300:4327  allowed[_owner][msg.sender] */\n      0x00\n        /* \"GitHub/contract-token-cryptoMonster/components/CryptoMonster.sol\":4316:4326  msg.sender */\n      caller\n        /* \"GitHub/contract-token-cryptoMonster/components/CryptoMonster.sol\":4300:4327  allowed[_owner][msg.sender] */\n      0xffffffffffffffffffffffffffffffffffffffff\n      and\n      0xffffffffffffffffffffffffffffffffffffffff\n      and\n      dup2\n      mstore\n      0x20\n      add\n      swap1\n      dup2\n      mstore\n      0x20\n      add\n      0x00\n      keccak256\n      sload\n        /* \"GitHub/contract-token-cryptoMonster/components/CryptoMonster.sol\":4286:4296  _numTokens */\n      dup3\n        /* \"GitHub/contract-token-cryptoMonster/components/CryptoMonster.sol\":4286:4327  _numTokens <= allowed[_owner][msg.sender] */\n      gt\n      iszero\n        /* \"GitHub/contract-token-cryptoMonster/components/CryptoMonster.sol\":4278:4328  require(_numTokens <= allowed[_owner][msg.sender]) */\n      tag_76\n      jumpi\n      0x00\n      dup1\n      revert\n    tag_76:\n        /* \"GitHub/contract-token-cryptoMonster/components/CryptoMonster.sol\":4411:4455  structUser_[_owner].balances.sub(_numTokens) */\n      tag_77\n        /* \"GitHub/contract-token-cryptoMonster/components/CryptoMonster.sol\":4444:4454  _numTokens */\n      dup3\n        /* \"GitHub/contract-token-cryptoMonster/components/CryptoMonster.sol\":4411:4422  structUser_ */\n      0x00\n        /* \"GitHub/contract-token-cryptoMonster/components/CryptoMonster.sol\":4411:4430  structUser_[_owner] */\n      dup1\n        /* \"GitHub/contract-token-cryptoMonster/components/CryptoMonster.sol\":4423:4429  _owner */\n      dup8\n        /* \"GitHub/contract-token-cryptoMonster/components/CryptoMonster.sol\":4411:4430  structUser_[_owner] */\n      0xffffffffffffffffffffffffffffffffffffffff\n      and\n      0xffffffffffffffffffffffffffffffffffffffff\n      and\n      dup2\n      mstore\n      0x20\n      add\n      swap1\n      dup2\n      mstore\n      0x20\n      add\n      0x00\n      keccak256\n        /* \"GitHub/contract-token-cryptoMonster/components/CryptoMonster.sol\":4411:4439  structUser_[_owner].balances */\n      0x02\n      add\n      sload\n        /* \"GitHub/contract-token-cryptoMonster/components/CryptoMonster.sol\":4411:4443  structUser_[_owner].balances.sub */\n      tag_78\n      swap1\n        /* \"GitHub/contract-token-cryptoMonster/components/CryptoMonster.sol\":4411:4455  structUser_[_owner].balances.sub(_numTokens) */\n      swap2\n      swap1\n      0xffffffff\n      and\n      jump\t// in\n    tag_77:\n        /* \"GitHub/contract-token-cryptoMonster/components/CryptoMonster.sol\":4380:4391  structUser_ */\n      0x00\n        /* \"GitHub/contract-token-cryptoMonster/components/CryptoMonster.sol\":4380:4399  structUser_[_owner] */\n      dup1\n        /* \"GitHub/contract-token-cryptoMonster/components/CryptoMonster.sol\":4392:4398  _owner */\n      dup7\n        /* \"GitHub/contract-token-cryptoMonster/components/CryptoMonster.sol\":4380:4399  structUser_[_owner] */\n      0xffffffffffffffffffffffffffffffffffffffff\n      and\n      0xffffffffffffffffffffffffffffffffffffffff\n      and\n      dup2\n      mstore\n      0x20\n      add\n      swap1\n      dup2\n      mstore\n      0x20\n      add\n      0x00\n      keccak256\n        /* \"GitHub/contract-token-cryptoMonster/components/CryptoMonster.sol\":4380:4408  structUser_[_owner].balances */\n      0x02\n      add\n        /* \"GitHub/contract-token-cryptoMonster/components/CryptoMonster.sol\":4380:4455  structUser_[_owner].balances = structUser_[_owner].balances.sub(_numTokens) */\n      dup2\n      swap1\n      sstore\n      pop\n        /* \"GitHub/contract-token-cryptoMonster/components/CryptoMonster.sol\":4548:4591  allowed[_owner][msg.sender].sub(_numTokens) */\n      tag_79\n        /* \"GitHub/contract-token-cryptoMonster/components/CryptoMonster.sol\":4580:4590  _numTokens */\n      dup3\n        /* \"GitHub/contract-token-cryptoMonster/components/CryptoMonster.sol\":4548:4555  allowed */\n      0x02\n        /* \"GitHub/contract-token-cryptoMonster/components/CryptoMonster.sol\":4548:4563  allowed[_owner] */\n      0x00\n        /* \"GitHub/contract-token-cryptoMonster/components/CryptoMonster.sol\":4556:4562  _owner */\n      dup8\n        /* \"GitHub/contract-token-cryptoMonster/components/CryptoMonster.sol\":4548:4563  allowed[_owner] */\n      0xffffffffffffffffffffffffffffffffffffffff\n      and\n      0xffffffffffffffffffffffffffffffffffffffff\n      and\n      dup2\n      mstore\n      0x20\n      add\n      swap1\n      dup2\n      mstore\n      0x20\n      add\n      0x00\n      keccak256\n        /* \"GitHub/contract-token-cryptoMonster/components/CryptoMonster.sol\":4548:4575  allowed[_owner][msg.sender] */\n      0x00\n        /* \"GitHub/contract-token-cryptoMonster/components/CryptoMonster.sol\":4564:4574  msg.sender */\n      caller\n        /* \"GitHub/contract-token-cryptoMonster/components/CryptoMonster.sol\":4548:4575  allowed[_owner][msg.sender] */\n      0xffffffffffffffffffffffffffffffffffffffff\n      and\n      0xffffffffffffffffffffffffffffffffffffffff\n      and\n      dup2\n      mstore\n      0x20\n      add\n      swap1\n      dup2\n      mstore\n      0x20\n      add\n      0x00\n      keccak256\n      sload\n        /* \"GitHub/contract-token-cryptoMonster/components/CryptoMonster.sol\":4548:4579  allowed[_owner][msg.sender].sub */\n      tag_78\n      swap1\n        /* \"GitHub/contract-token-cryptoMonster/components/CryptoMonster.sol\":4548:4591  allowed[_owner][msg.sender].sub(_numTokens) */\n      swap2\n      swap1\n      0xffffffff\n      and\n      jump\t// in\n    tag_79:\n        /* \"GitHub/contract-token-cryptoMonster/components/CryptoMonster.sol\":4518:4525  allowed */\n      0x02\n        /* \"GitHub/contract-token-cryptoMonster/components/CryptoMonster.sol\":4518:4533  allowed[_owner] */\n      0x00\n        /* \"GitHub/contract-token-cryptoMonster/components/CryptoMonster.sol\":4526:4532  _owner */\n      dup7\n        /* \"GitHub/contract-token-cryptoMonster/components/CryptoMonster.sol\":4518:4533  allowed[_owner] */\n      0xffffffffffffffffffffffffffffffffffffffff\n      and\n      0xffffffffffffffffffffffffffffffffffffffff\n      and\n      dup2\n      mstore\n      0x20\n      add\n      swap1\n      dup2\n      mstore\n      0x20\n      add\n      0x00\n      keccak256\n        /* \"GitHub/contract-token-cryptoMonster/components/CryptoMonster.sol\":4518:4545  allowed[_owner][msg.sender] */\n      0x00\n        /* \"GitHub/contract-token-cryptoMonster/components/CryptoMonster.sol\":4534:4544  msg.sender */\n      caller\n        /* \"GitHub/contract-token-cryptoMonster/components/CryptoMonster.sol\":4518:4545  allowed[_owner][msg.sender] */\n      0xffffffffffffffffffffffffffffffffffffffff\n      and\n      0xffffffffffffffffffffffffffffffffffffffff\n      and\n      dup2\n      mstore\n      0x20\n      add\n      swap1\n      dup2\n      mstore\n      0x20\n      add\n      0x00\n      keccak256\n        /* \"GitHub/contract-token-cryptoMonster/components/CryptoMonster.sol\":4518:4591  allowed[_owner][msg.sender] = allowed[_owner][msg.sender].sub(_numTokens) */\n      dup2\n      swap1\n      sstore\n      pop\n        /* \"GitHub/contract-token-cryptoMonster/components/CryptoMonster.sol\":4687:4731  structUser_[_buyer].balances.add(_numTokens) */\n      tag_80\n        /* \"GitHub/contract-token-cryptoMonster/components/CryptoMonster.sol\":4720:4730  _numTokens */\n      dup3\n        /* \"GitHub/contract-token-cryptoMonster/components/CryptoMonster.sol\":4687:4698  structUser_ */\n      0x00\n        /* \"GitHub/contract-token-cryptoMonster/components/CryptoMonster.sol\":4687:4706  structUser_[_buyer] */\n      dup1\n        /* \"GitHub/contract-token-cryptoMonster/components/CryptoMonster.sol\":4699:4705  _buyer */\n      dup7\n        /* \"GitHub/contract-token-cryptoMonster/components/CryptoMonster.sol\":4687:4706  structUser_[_buyer] */\n      0xffffffffffffffffffffffffffffffffffffffff\n      and\n      0xffffffffffffffffffffffffffffffffffffffff\n      and\n      dup2\n      mstore\n      0x20\n      add\n      swap1\n      dup2\n      mstore\n      0x20\n      add\n      0x00\n      keccak256\n        /* \"GitHub/contract-token-cryptoMonster/components/CryptoMonster.sol\":4687:4715  structUser_[_buyer].balances */\n      0x02\n      add\n      sload\n        /* \"GitHub/contract-token-cryptoMonster/components/CryptoMonster.sol\":4687:4719  structUser_[_buyer].balances.add */\n      tag_81\n      swap1\n        /* \"GitHub/contract-token-cryptoMonster/components/CryptoMonster.sol\":4687:4731  structUser_[_buyer].balances.add(_numTokens) */\n      swap2\n      swap1\n      0xffffffff\n      and\n      jump\t// in\n    tag_80:\n        /* \"GitHub/contract-token-cryptoMonster/components/CryptoMonster.sol\":4656:4667  structUser_ */\n      0x00\n        /* \"GitHub/contract-token-cryptoMonster/components/CryptoMonster.sol\":4656:4675  structUser_[_buyer] */\n      dup1\n        /* \"GitHub/contract-token-cryptoMonster/components/CryptoMonster.sol\":4668:4674  _buyer */\n      dup6\n        /* \"GitHub/contract-token-cryptoMonster/components/CryptoMonster.sol\":4656:4675  structUser_[_buyer] */\n      0xffffffffffffffffffffffffffffffffffffffff\n      and\n      0xffffffffffffffffffffffffffffffffffffffff\n      and\n      dup2\n      mstore\n      0x20\n      add\n      swap1\n      dup2\n      mstore\n      0x20\n      add\n      0x00\n      keccak256\n        /* \"GitHub/contract-token-cryptoMonster/components/CryptoMonster.sol\":4656:4684  structUser_[_buyer].balances */\n      0x02\n      add\n        /* \"GitHub/contract-token-cryptoMonster/components/CryptoMonster.sol\":4656:4731  structUser_[_buyer].balances = structUser_[_buyer].balances.add(_numTokens) */\n      dup2\n      swap1\n      sstore\n      pop\n        /* \"GitHub/contract-token-cryptoMonster/components/CryptoMonster.sol\":4824:4830  _buyer */\n      dup3\n        /* \"GitHub/contract-token-cryptoMonster/components/CryptoMonster.sol\":4807:4843  Transfer(_owner, _buyer, _numTokens) */\n      0xffffffffffffffffffffffffffffffffffffffff\n      and\n        /* \"GitHub/contract-token-cryptoMonster/components/CryptoMonster.sol\":4816:4822  _owner */\n      dup5\n        /* \"GitHub/contract-token-cryptoMonster/components/CryptoMonster.sol\":4807:4843  Transfer(_owner, _buyer, _numTokens) */\n      0xffffffffffffffffffffffffffffffffffffffff\n      and\n      0xddf252ad1be2c89b69c2b068fc378daa952ba7f163c4a11628f55a4df523b3ef\n        /* \"GitHub/contract-token-cryptoMonster/components/CryptoMonster.sol\":4832:4842  _numTokens */\n      dup5\n        /* \"GitHub/contract-token-cryptoMonster/components/CryptoMonster.sol\":4807:4843  Transfer(_owner, _buyer, _numTokens) */\n      mload(0x40)\n      tag_82\n      swap2\n      swap1\n      tag_23\n      jump\t// in\n    tag_82:\n      mload(0x40)\n      dup1\n      swap2\n      sub\n      swap1\n      log3\n        /* \"GitHub/contract-token-cryptoMonster/components/CryptoMonster.sol\":4861:4865  true */\n      0x01\n        /* \"GitHub/contract-token-cryptoMonster/components/CryptoMonster.sol\":4854:4865  return true */\n      swap1\n      pop\n        /* \"GitHub/contract-token-cryptoMonster/components/CryptoMonster.sol\":4062:4873  function transferFrom(address _owner, address _buyer, uint256 _numTokens) public override returns (bool) {\r... */\n      swap4\n      swap3\n      pop\n      pop\n      pop\n      jump\t// out\n        /* \"GitHub/contract-token-cryptoMonster/components/CryptoMonster.sol\":510:545  uint8 public constant decimals = 12 */\n    tag_43:\n        /* \"GitHub/contract-token-cryptoMonster/components/CryptoMonster.sol\":543:545  12 */\n      0x0c\n        /* \"GitHub/contract-token-cryptoMonster/components/CryptoMonster.sol\":510:545  uint8 public constant decimals = 12 */\n      dup2\n      jump\t// out\n        /* \"GitHub/contract-token-cryptoMonster/components/CryptoMonster.sol\":2477:2615  function balanceOf(address _tokenOwner) public override view returns (uint256) {\r... */\n    tag_50:\n        /* \"GitHub/contract-token-cryptoMonster/components/CryptoMonster.sol\":2547:2554  uint256 */\n      0x00\n        /* \"GitHub/contract-token-cryptoMonster/components/CryptoMonster.sol\":2574:2585  structUser_ */\n      dup1\n        /* \"GitHub/contract-token-cryptoMonster/components/CryptoMonster.sol\":2574:2598  structUser_[_tokenOwner] */\n      0x00\n        /* \"GitHub/contract-token-cryptoMonster/components/CryptoMonster.sol\":2586:2597  _tokenOwner */\n      dup4\n        /* \"GitHub/contract-token-cryptoMonster/components/CryptoMonster.sol\":2574:2598  structUser_[_tokenOwner] */\n      0xffffffffffffffffffffffffffffffffffffffff\n      and\n      0xffffffffffffffffffffffffffffffffffffffff\n      and\n      dup2\n      mstore\n      0x20\n      add\n      swap1\n      dup2\n      mstore\n      0x20\n      add\n      0x00\n      keccak256\n        /* \"GitHub/contract-token-cryptoMonster/components/CryptoMonster.sol\":2574:2607  structUser_[_tokenOwner].balances */\n      0x02\n      add\n      sload\n        /* \"GitHub/contract-token-cryptoMonster/components/CryptoMonster.sol\":2567:2607  return structUser_[_tokenOwner].balances */\n      swap1\n      pop\n        /* \"GitHub/contract-token-cryptoMonster/components/CryptoMonster.sol\":2477:2615  function balanceOf(address _tokenOwner) public override view returns (uint256) {\r... */\n      swap2\n      swap1\n      pop\n      jump\t// out\n        /* \"GitHub/contract-token-cryptoMonster/components/CryptoMonster.sol\":430:468  string public constant symbol = \"CMON\" */\n    tag_54:\n      mload(0x40)\n      dup1\n      0x40\n      add\n      0x40\n      mstore\n      dup1\n      0x04\n      dup2\n      mstore\n      0x20\n      add\n      0x434d4f4e00000000000000000000000000000000000000000000000000000000\n      dup2\n      mstore\n      pop\n      dup2\n      jump\t// out\n        /* \"GitHub/contract-token-cryptoMonster/components/CryptoMonster.sol\":3038:3729  function transfer(address _receiver, uint256 _numTokens) public override returns (bool) {\r... */\n    tag_59:\n        /* \"GitHub/contract-token-cryptoMonster/components/CryptoMonster.sol\":3120:3124  bool */\n      0x00\n        /* \"GitHub/contract-token-cryptoMonster/components/CryptoMonster.sol\":3159:3170  structUser_ */\n      dup1\n        /* \"GitHub/contract-token-cryptoMonster/components/CryptoMonster.sol\":3159:3182  structUser_[msg.sender] */\n      0x00\n        /* \"GitHub/contract-token-cryptoMonster/components/CryptoMonster.sol\":3171:3181  msg.sender */\n      caller\n        /* \"GitHub/contract-token-cryptoMonster/components/CryptoMonster.sol\":3159:3182  structUser_[msg.sender] */\n      0xffffffffffffffffffffffffffffffffffffffff\n      and\n      0xffffffffffffffffffffffffffffffffffffffff\n      and\n      dup2\n      mstore\n      0x20\n      add\n      swap1\n      dup2\n      mstore\n      0x20\n      add\n      0x00\n      keccak256\n        /* \"GitHub/contract-token-cryptoMonster/components/CryptoMonster.sol\":3159:3191  structUser_[msg.sender].balances */\n      0x02\n      add\n      sload\n        /* \"GitHub/contract-token-cryptoMonster/components/CryptoMonster.sol\":3145:3155  _numTokens */\n      dup3\n        /* \"GitHub/contract-token-cryptoMonster/components/CryptoMonster.sol\":3145:3191  _numTokens <= structUser_[msg.sender].balances */\n      gt\n      iszero\n        /* \"GitHub/contract-token-cryptoMonster/components/CryptoMonster.sol\":3137:3192  require(_numTokens <= structUser_[msg.sender].balances) */\n      tag_85\n      jumpi\n      0x00\n      dup1\n      revert\n    tag_85:\n        /* \"GitHub/contract-token-cryptoMonster/components/CryptoMonster.sol\":3292:3340  structUser_[msg.sender].balances.sub(_numTokens) */\n      tag_86\n        /* \"GitHub/contract-token-cryptoMonster/components/CryptoMonster.sol\":3329:3339  _numTokens */\n      dup3\n        /* \"GitHub/contract-token-cryptoMonster/components/CryptoMonster.sol\":3292:3303  structUser_ */\n      0x00\n        /* \"GitHub/contract-token-cryptoMonster/components/CryptoMonster.sol\":3292:3315  structUser_[msg.sender] */\n      dup1\n        /* \"GitHub/contract-token-cryptoMonster/components/CryptoMonster.sol\":3304:3314  msg.sender */\n      caller\n        /* \"GitHub/contract-token-cryptoMonster/components/CryptoMonster.sol\":3292:3315  structUser_[msg.sender] */\n      0xffffffffffffffffffffffffffffffffffffffff\n      and\n      0xffffffffffffffffffffffffffffffffffffffff\n      and\n      dup2\n      mstore\n      0x20\n      add\n      swap1\n      dup2\n      mstore\n      0x20\n      add\n      0x00\n      keccak256\n        /* \"GitHub/contract-token-cryptoMonster/components/CryptoMonster.sol\":3292:3324  structUser_[msg.sender].balances */\n      0x02\n      add\n      sload\n        /* \"GitHub/contract-token-cryptoMonster/components/CryptoMonster.sol\":3292:3328  structUser_[msg.sender].balances.sub */\n      tag_78\n      swap1\n        /* \"GitHub/contract-token-cryptoMonster/components/CryptoMonster.sol\":3292:3340  structUser_[msg.sender].balances.sub(_numTokens) */\n      swap2\n      swap1\n      0xffffffff\n      and\n      jump\t// in\n    tag_86:\n        /* \"GitHub/contract-token-cryptoMonster/components/CryptoMonster.sol\":3257:3268  structUser_ */\n      0x00\n        /* \"GitHub/contract-token-cryptoMonster/components/CryptoMonster.sol\":3257:3280  structUser_[msg.sender] */\n      dup1\n        /* \"GitHub/contract-token-cryptoMonster/components/CryptoMonster.sol\":3269:3279  msg.sender */\n      caller\n        /* \"GitHub/contract-token-cryptoMonster/components/CryptoMonster.sol\":3257:3280  structUser_[msg.sender] */\n      0xffffffffffffffffffffffffffffffffffffffff\n      and\n      0xffffffffffffffffffffffffffffffffffffffff\n      and\n      dup2\n      mstore\n      0x20\n      add\n      swap1\n      dup2\n      mstore\n      0x20\n      add\n      0x00\n      keccak256\n        /* \"GitHub/contract-token-cryptoMonster/components/CryptoMonster.sol\":3257:3289  structUser_[msg.sender].balances */\n      0x02\n      add\n        /* \"GitHub/contract-token-cryptoMonster/components/CryptoMonster.sol\":3257:3340  structUser_[msg.sender].balances = structUser_[msg.sender].balances.sub(_numTokens) */\n      dup2\n      swap1\n      sstore\n      pop\n        /* \"GitHub/contract-token-cryptoMonster/components/CryptoMonster.sol\":3437:3484  structUser_[_receiver].balances.add(_numTokens) */\n      tag_87\n        /* \"GitHub/contract-token-cryptoMonster/components/CryptoMonster.sol\":3473:3483  _numTokens */\n      dup3\n        /* \"GitHub/contract-token-cryptoMonster/components/CryptoMonster.sol\":3437:3448  structUser_ */\n      0x00\n        /* \"GitHub/contract-token-cryptoMonster/components/CryptoMonster.sol\":3437:3459  structUser_[_receiver] */\n      dup1\n        /* \"GitHub/contract-token-cryptoMonster/components/CryptoMonster.sol\":3449:3458  _receiver */\n      dup7\n        /* \"GitHub/contract-token-cryptoMonster/components/CryptoMonster.sol\":3437:3459  structUser_[_receiver] */\n      0xffffffffffffffffffffffffffffffffffffffff\n      and\n      0xffffffffffffffffffffffffffffffffffffffff\n      and\n      dup2\n      mstore\n      0x20\n      add\n      swap1\n      dup2\n      mstore\n      0x20\n      add\n      0x00\n      keccak256\n        /* \"GitHub/contract-token-cryptoMonster/components/CryptoMonster.sol\":3437:3468  structUser_[_receiver].balances */\n      0x02\n      add\n      sload\n        /* \"GitHub/contract-token-cryptoMonster/components/CryptoMonster.sol\":3437:3472  structUser_[_receiver].balances.add */\n      tag_81\n      swap1\n        /* \"GitHub/contract-token-cryptoMonster/components/CryptoMonster.sol\":3437:3484  structUser_[_receiver].balances.add(_numTokens) */\n      swap2\n      swap1\n      0xffffffff\n      and\n      jump\t// in\n    tag_87:\n        /* \"GitHub/contract-token-cryptoMonster/components/CryptoMonster.sol\":3403:3414  structUser_ */\n      0x00\n        /* \"GitHub/contract-token-cryptoMonster/components/CryptoMonster.sol\":3403:3425  structUser_[_receiver] */\n      dup1\n        /* \"GitHub/contract-token-cryptoMonster/components/CryptoMonster.sol\":3415:3424  _receiver */\n      dup6\n        /* \"GitHub/contract-token-cryptoMonster/components/CryptoMonster.sol\":3403:3425  structUser_[_receiver] */\n      0xffffffffffffffffffffffffffffffffffffffff\n      and\n      0xffffffffffffffffffffffffffffffffffffffff\n      and\n      dup2\n      mstore\n      0x20\n      add\n      swap1\n      dup2\n      mstore\n      0x20\n      add\n      0x00\n      keccak256\n        /* \"GitHub/contract-token-cryptoMonster/components/CryptoMonster.sol\":3403:3434  structUser_[_receiver].balances */\n      0x02\n      add\n        /* \"GitHub/contract-token-cryptoMonster/components/CryptoMonster.sol\":3403:3484  structUser_[_receiver].balances = structUser_[_receiver].balances.add(_numTokens) */\n      dup2\n      swap1\n      sstore\n      pop\n        /* \"GitHub/contract-token-cryptoMonster/components/CryptoMonster.sol\":3583:3592  _receiver */\n      dup3\n        /* \"GitHub/contract-token-cryptoMonster/components/CryptoMonster.sol\":3562:3605  Transfer(msg.sender, _receiver, _numTokens) */\n      0xffffffffffffffffffffffffffffffffffffffff\n      and\n        /* \"GitHub/contract-token-cryptoMonster/components/CryptoMonster.sol\":3571:3581  msg.sender */\n      caller\n        /* \"GitHub/contract-token-cryptoMonster/components/CryptoMonster.sol\":3562:3605  Transfer(msg.sender, _receiver, _numTokens) */\n      0xffffffffffffffffffffffffffffffffffffffff\n      and\n      0xddf252ad1be2c89b69c2b068fc378daa952ba7f163c4a11628f55a4df523b3ef\n        /* \"GitHub/contract-token-cryptoMonster/components/CryptoMonster.sol\":3594:3604  _numTokens */\n      dup5\n        /* \"GitHub/contract-token-cryptoMonster/components/CryptoMonster.sol\":3562:3605  Transfer(msg.sender, _receiver, _numTokens) */\n      mload(0x40)\n      tag_88\n      swap2\n      swap1\n      tag_23\n      jump\t// in\n    tag_88:\n      mload(0x40)\n      dup1\n      swap2\n      sub\n      swap1\n      log3\n        /* \"GitHub/contract-token-cryptoMonster/components/CryptoMonster.sol\":3717:3721  true */\n      0x01\n        /* \"GitHub/contract-token-cryptoMonster/components/CryptoMonster.sol\":3710:3721  return true */\n      swap1\n      pop\n        /* \"GitHub/contract-token-cryptoMonster/components/CryptoMonster.sol\":3038:3729  function transfer(address _receiver, uint256 _numTokens) public override returns (bool) {\r... */\n      swap3\n      swap2\n      pop\n      pop\n      jump\t// out\n        /* \"GitHub/contract-token-cryptoMonster/components/CryptoMonster.sol\":1575:1965  function buy(uint256 _amount) external payable {\r... */\n    tag_64:\n        /* \"GitHub/contract-token-cryptoMonster/components/CryptoMonster.sol\":1236:1246  1000000000 */\n      0x3b9aca00\n        /* \"GitHub/contract-token-cryptoMonster/components/CryptoMonster.sol\":1798:1805  _amount */\n      dup2\n        /* \"GitHub/contract-token-cryptoMonster/components/CryptoMonster.sol\":1798:1819  _amount * tokenPrice_ */\n      tag_90\n      swap2\n      swap1\n      tag_91\n      jump\t// in\n    tag_90:\n        /* \"GitHub/contract-token-cryptoMonster/components/CryptoMonster.sol\":1785:1794  msg.value */\n      callvalue\n        /* \"GitHub/contract-token-cryptoMonster/components/CryptoMonster.sol\":1785:1819  msg.value == _amount * tokenPrice_ */\n      eq\n        /* \"GitHub/contract-token-cryptoMonster/components/CryptoMonster.sol\":1777:1856  require(msg.value == _amount * tokenPrice_, 'Need to send exact amount of wei') */\n      tag_92\n      jumpi\n      mload(0x40)\n      0x08c379a000000000000000000000000000000000000000000000000000000000\n      dup2\n      mstore\n      0x04\n      add\n      tag_93\n      swap1\n      tag_94\n      jump\t// in\n    tag_93:\n      mload(0x40)\n      dup1\n      swap2\n      sub\n      swap1\n      revert\n    tag_92:\n        /* \"GitHub/contract-token-cryptoMonster/components/CryptoMonster.sol\":1912:1957  structUser_[msg.sender].balances.add(_amount) */\n      tag_95\n        /* \"GitHub/contract-token-cryptoMonster/components/CryptoMonster.sol\":1949:1956  _amount */\n      dup2\n        /* \"GitHub/contract-token-cryptoMonster/components/CryptoMonster.sol\":1912:1923  structUser_ */\n      0x00\n        /* \"GitHub/contract-token-cryptoMonster/components/CryptoMonster.sol\":1912:1935  structUser_[msg.sender] */\n      dup1\n        /* \"GitHub/contract-token-cryptoMonster/components/CryptoMonster.sol\":1924:1934  msg.sender */\n      caller\n        /* \"GitHub/contract-token-cryptoMonster/components/CryptoMonster.sol\":1912:1935  structUser_[msg.sender] */\n      0xffffffffffffffffffffffffffffffffffffffff\n      and\n      0xffffffffffffffffffffffffffffffffffffffff\n      and\n      dup2\n      mstore\n      0x20\n      add\n      swap1\n      dup2\n      mstore\n      0x20\n      add\n      0x00\n      keccak256\n        /* \"GitHub/contract-token-cryptoMonster/components/CryptoMonster.sol\":1912:1944  structUser_[msg.sender].balances */\n      0x02\n      add\n      sload\n        /* \"GitHub/contract-token-cryptoMonster/components/CryptoMonster.sol\":1912:1948  structUser_[msg.sender].balances.add */\n      tag_81\n      swap1\n        /* \"GitHub/contract-token-cryptoMonster/components/CryptoMonster.sol\":1912:1957  structUser_[msg.sender].balances.add(_amount) */\n      swap2\n      swap1\n      0xffffffff\n      and\n      jump\t// in\n    tag_95:\n        /* \"GitHub/contract-token-cryptoMonster/components/CryptoMonster.sol\":1877:1888  structUser_ */\n      0x00\n        /* \"GitHub/contract-token-cryptoMonster/components/CryptoMonster.sol\":1877:1900  structUser_[msg.sender] */\n      dup1\n        /* \"GitHub/contract-token-cryptoMonster/components/CryptoMonster.sol\":1889:1899  msg.sender */\n      caller\n        /* \"GitHub/contract-token-cryptoMonster/components/CryptoMonster.sol\":1877:1900  structUser_[msg.sender] */\n      0xffffffffffffffffffffffffffffffffffffffff\n      and\n      0xffffffffffffffffffffffffffffffffffffffff\n      and\n      dup2\n      mstore\n      0x20\n      add\n      swap1\n      dup2\n      mstore\n      0x20\n      add\n      0x00\n      keccak256\n        /* \"GitHub/contract-token-cryptoMonster/components/CryptoMonster.sol\":1877:1909  structUser_[msg.sender].balances */\n      0x02\n      add\n        /* \"GitHub/contract-token-cryptoMonster/components/CryptoMonster.sol\":1877:1957  structUser_[msg.sender].balances = structUser_[msg.sender].balances.add(_amount) */\n      dup2\n      swap1\n      sstore\n      pop\n        /* \"GitHub/contract-token-cryptoMonster/components/CryptoMonster.sol\":1575:1965  function buy(uint256 _amount) external payable {\r... */\n      pop\n      jump\t// out\n        /* \"GitHub/contract-token-cryptoMonster/components/CryptoMonster.sol\":5865:6007  function allowance(address _owner, address _delegate) public override view returns (uint) {\r... */\n    tag_69:\n        /* \"GitHub/contract-token-cryptoMonster/components/CryptoMonster.sol\":5949:5953  uint */\n      0x00\n        /* \"GitHub/contract-token-cryptoMonster/components/CryptoMonster.sol\":5973:5980  allowed */\n      0x02\n        /* \"GitHub/contract-token-cryptoMonster/components/CryptoMonster.sol\":5973:5988  allowed[_owner] */\n      0x00\n        /* \"GitHub/contract-token-cryptoMonster/components/CryptoMonster.sol\":5981:5987  _owner */\n      dup5\n        /* \"GitHub/contract-token-cryptoMonster/components/CryptoMonster.sol\":5973:5988  allowed[_owner] */\n      0xffffffffffffffffffffffffffffffffffffffff\n      and\n      0xffffffffffffffffffffffffffffffffffffffff\n      and\n      dup2\n      mstore\n      0x20\n      add\n      swap1\n      dup2\n      mstore\n      0x20\n      add\n      0x00\n      keccak256\n        /* \"GitHub/contract-token-cryptoMonster/components/CryptoMonster.sol\":5973:5999  allowed[_owner][_delegate] */\n      0x00\n        /* \"GitHub/contract-token-cryptoMonster/components/CryptoMonster.sol\":5989:5998  _delegate */\n      dup4\n        /* \"GitHub/contract-token-cryptoMonster/components/CryptoMonster.sol\":5973:5999  allowed[_owner][_delegate] */\n      0xffffffffffffffffffffffffffffffffffffffff\n      and\n      0xffffffffffffffffffffffffffffffffffffffff\n      and\n      dup2\n      mstore\n      0x20\n      add\n      swap1\n      dup2\n      mstore\n      0x20\n      add\n      0x00\n      keccak256\n      sload\n        /* \"GitHub/contract-token-cryptoMonster/components/CryptoMonster.sol\":5966:5999  return allowed[_owner][_delegate] */\n      swap1\n      pop\n        /* \"GitHub/contract-token-cryptoMonster/components/CryptoMonster.sol\":5865:6007  function allowance(address _owner, address _delegate) public override view returns (uint) {\r... */\n      swap3\n      swap2\n      pop\n      pop\n      jump\t// out\n        /* \"GitHub/contract-token-cryptoMonster/shared/lib/SafeMath.sol\":2846:2965  function sub(uint256 a, uint256 b) internal pure returns (uint256) {\r... */\n    tag_78:\n        /* \"GitHub/contract-token-cryptoMonster/shared/lib/SafeMath.sol\":2904:2911  uint256 */\n      0x00\n        /* \"GitHub/contract-token-cryptoMonster/shared/lib/SafeMath.sol\":2934:2935  a */\n      dup3\n        /* \"GitHub/contract-token-cryptoMonster/shared/lib/SafeMath.sol\":2929:2930  b */\n      dup3\n        /* \"GitHub/contract-token-cryptoMonster/shared/lib/SafeMath.sol\":2929:2935  b <= a */\n      gt\n      iszero\n        /* \"GitHub/contract-token-cryptoMonster/shared/lib/SafeMath.sol\":2922:2936  assert(b <= a) */\n      tag_98\n      jumpi\n      tag_99\n      tag_100\n      jump\t// in\n    tag_99:\n    tag_98:\n        /* \"GitHub/contract-token-cryptoMonster/shared/lib/SafeMath.sol\":2956:2957  b */\n      dup2\n        /* \"GitHub/contract-token-cryptoMonster/shared/lib/SafeMath.sol\":2952:2953  a */\n      dup4\n        /* \"GitHub/contract-token-cryptoMonster/shared/lib/SafeMath.sol\":2952:2957  a - b */\n      tag_101\n      swap2\n      swap1\n      tag_102\n      jump\t// in\n    tag_101:\n        /* \"GitHub/contract-token-cryptoMonster/shared/lib/SafeMath.sol\":2945:2957  return a - b */\n      swap1\n      pop\n        /* \"GitHub/contract-token-cryptoMonster/shared/lib/SafeMath.sol\":2846:2965  function sub(uint256 a, uint256 b) internal pure returns (uint256) {\r... */\n      swap3\n      swap2\n      pop\n      pop\n      jump\t// out\n        /* \"GitHub/contract-token-cryptoMonster/shared/lib/SafeMath.sol\":2422:2563  function add(uint256 a, uint256 b) internal pure returns (uint256) {\r... */\n    tag_81:\n        /* \"GitHub/contract-token-cryptoMonster/shared/lib/SafeMath.sol\":2480:2487  uint256 */\n      0x00\n        /* \"GitHub/contract-token-cryptoMonster/shared/lib/SafeMath.sol\":2498:2507  uint256 c */\n      dup1\n        /* \"GitHub/contract-token-cryptoMonster/shared/lib/SafeMath.sol\":2514:2515  b */\n      dup3\n        /* \"GitHub/contract-token-cryptoMonster/shared/lib/SafeMath.sol\":2510:2511  a */\n      dup5\n        /* \"GitHub/contract-token-cryptoMonster/shared/lib/SafeMath.sol\":2510:2515  a + b */\n      tag_104\n      swap2\n      swap1\n      tag_105\n      jump\t// in\n    tag_104:\n        /* \"GitHub/contract-token-cryptoMonster/shared/lib/SafeMath.sol\":2498:2515  uint256 c = a + b */\n      swap1\n      pop\n        /* \"GitHub/contract-token-cryptoMonster/shared/lib/SafeMath.sol\":2536:2537  a */\n      dup4\n        /* \"GitHub/contract-token-cryptoMonster/shared/lib/SafeMath.sol\":2531:2532  c */\n      dup2\n        /* \"GitHub/contract-token-cryptoMonster/shared/lib/SafeMath.sol\":2531:2537  c >= a */\n      lt\n      iszero\n        /* \"GitHub/contract-token-cryptoMonster/shared/lib/SafeMath.sol\":2524:2538  assert(c >= a) */\n      tag_106\n      jumpi\n      tag_107\n      tag_100\n      jump\t// in\n    tag_107:\n    tag_106:\n        /* \"GitHub/contract-token-cryptoMonster/shared/lib/SafeMath.sol\":2554:2555  c */\n      dup1\n        /* \"GitHub/contract-token-cryptoMonster/shared/lib/SafeMath.sol\":2547:2555  return c */\n      swap2\n      pop\n      pop\n        /* \"GitHub/contract-token-cryptoMonster/shared/lib/SafeMath.sol\":2422:2563  function add(uint256 a, uint256 b) internal pure returns (uint256) {\r... */\n      swap3\n      swap2\n      pop\n      pop\n      jump\t// out\n        /* \"#utility.yul\":7:146   */\n    tag_109:\n        /* \"#utility.yul\":53:58   */\n      0x00\n        /* \"#utility.yul\":91:97   */\n      dup2\n        /* \"#utility.yul\":78:98   */\n      calldataload\n        /* \"#utility.yul\":69:98   */\n      swap1\n      pop\n        /* \"#utility.yul\":107:140   */\n      tag_111\n        /* \"#utility.yul\":134:139   */\n      dup2\n        /* \"#utility.yul\":107:140   */\n      tag_112\n      jump\t// in\n    tag_111:\n        /* \"#utility.yul\":7:146   */\n      swap3\n      swap2\n      pop\n      pop\n      jump\t// out\n        /* \"#utility.yul\":152:291   */\n    tag_113:\n        /* \"#utility.yul\":198:203   */\n      0x00\n        /* \"#utility.yul\":236:242   */\n      dup2\n        /* \"#utility.yul\":223:243   */\n      calldataload\n        /* \"#utility.yul\":214:243   */\n      swap1\n      pop\n        /* \"#utility.yul\":252:285   */\n      tag_115\n        /* \"#utility.yul\":279:284   */\n      dup2\n        /* \"#utility.yul\":252:285   */\n      tag_116\n      jump\t// in\n    tag_115:\n        /* \"#utility.yul\":152:291   */\n      swap3\n      swap2\n      pop\n      pop\n      jump\t// out\n        /* \"#utility.yul\":297:626   */\n    tag_49:\n        /* \"#utility.yul\":356:362   */\n      0x00\n        /* \"#utility.yul\":405:407   */\n      0x20\n        /* \"#utility.yul\":393:402   */\n      dup3\n        /* \"#utility.yul\":384:391   */\n      dup5\n        /* \"#utility.yul\":380:403   */\n      sub\n        /* \"#utility.yul\":376:408   */\n      slt\n        /* \"#utility.yul\":373:492   */\n      iszero\n      tag_118\n      jumpi\n        /* \"#utility.yul\":411:490   */\n      tag_119\n      tag_120\n      jump\t// in\n    tag_119:\n        /* \"#utility.yul\":373:492   */\n    tag_118:\n        /* \"#utility.yul\":531:532   */\n      0x00\n        /* \"#utility.yul\":556:609   */\n      tag_121\n        /* \"#utility.yul\":601:608   */\n      dup5\n        /* \"#utility.yul\":592:598   */\n      dup3\n        /* \"#utility.yul\":581:590   */\n      dup6\n        /* \"#utility.yul\":577:599   */\n      add\n        /* \"#utility.yul\":556:609   */\n      tag_109\n      jump\t// in\n    tag_121:\n        /* \"#utility.yul\":546:609   */\n      swap2\n      pop\n        /* \"#utility.yul\":502:619   */\n      pop\n        /* \"#utility.yul\":297:626   */\n      swap3\n      swap2\n      pop\n      pop\n      jump\t// out\n        /* \"#utility.yul\":632:1106   */\n    tag_68:\n        /* \"#utility.yul\":700:706   */\n      0x00\n        /* \"#utility.yul\":708:714   */\n      dup1\n        /* \"#utility.yul\":757:759   */\n      0x40\n        /* \"#utility.yul\":745:754   */\n      dup4\n        /* \"#utility.yul\":736:743   */\n      dup6\n        /* \"#utility.yul\":732:755   */\n      sub\n        /* \"#utility.yul\":728:760   */\n      slt\n        /* \"#utility.yul\":725:844   */\n      iszero\n      tag_123\n      jumpi\n        /* \"#utility.yul\":763:842   */\n      tag_124\n      tag_120\n      jump\t// in\n    tag_124:\n        /* \"#utility.yul\":725:844   */\n    tag_123:\n        /* \"#utility.yul\":883:884   */\n      0x00\n        /* \"#utility.yul\":908:961   */\n      tag_125\n        /* \"#utility.yul\":953:960   */\n      dup6\n        /* \"#utility.yul\":944:950   */\n      dup3\n        /* \"#utility.yul\":933:942   */\n      dup7\n        /* \"#utility.yul\":929:951   */\n      add\n        /* \"#utility.yul\":908:961   */\n      tag_109\n      jump\t// in\n    tag_125:\n        /* \"#utility.yul\":898:961   */\n      swap3\n      pop\n        /* \"#utility.yul\":854:971   */\n      pop\n        /* \"#utility.yul\":1010:1012   */\n      0x20\n        /* \"#utility.yul\":1036:1089   */\n      tag_126\n        /* \"#utility.yul\":1081:1088   */\n      dup6\n        /* \"#utility.yul\":1072:1078   */\n      dup3\n        /* \"#utility.yul\":1061:1070   */\n      dup7\n        /* \"#utility.yul\":1057:1079   */\n      add\n        /* \"#utility.yul\":1036:1089   */\n      tag_109\n      jump\t// in\n    tag_126:\n        /* \"#utility.yul\":1026:1089   */\n      swap2\n      pop\n        /* \"#utility.yul\":981:1099   */\n      pop\n        /* \"#utility.yul\":632:1106   */\n      swap3\n      pop\n      swap3\n      swap1\n      pop\n      jump\t// out\n        /* \"#utility.yul\":1112:1731   */\n    tag_38:\n        /* \"#utility.yul\":1189:1195   */\n      0x00\n        /* \"#utility.yul\":1197:1203   */\n      dup1\n        /* \"#utility.yul\":1205:1211   */\n      0x00\n        /* \"#utility.yul\":1254:1256   */\n      0x60\n        /* \"#utility.yul\":1242:1251   */\n      dup5\n        /* \"#utility.yul\":1233:1240   */\n      dup7\n        /* \"#utility.yul\":1229:1252   */\n      sub\n        /* \"#utility.yul\":1225:1257   */\n      slt\n        /* \"#utility.yul\":1222:1341   */\n      iszero\n      tag_128\n      jumpi\n        /* \"#utility.yul\":1260:1339   */\n      tag_129\n      tag_120\n      jump\t// in\n    tag_129:\n        /* \"#utility.yul\":1222:1341   */\n    tag_128:\n        /* \"#utility.yul\":1380:1381   */\n      0x00\n        /* \"#utility.yul\":1405:1458   */\n      tag_130\n        /* \"#utility.yul\":1450:1457   */\n      dup7\n        /* \"#utility.yul\":1441:1447   */\n      dup3\n        /* \"#utility.yul\":1430:1439   */\n      dup8\n        /* \"#utility.yul\":1426:1448   */\n      add\n        /* \"#utility.yul\":1405:1458   */\n      tag_109\n      jump\t// in\n    tag_130:\n        /* \"#utility.yul\":1395:1458   */\n      swap4\n      pop\n        /* \"#utility.yul\":1351:1468   */\n      pop\n        /* \"#utility.yul\":1507:1509   */\n      0x20\n        /* \"#utility.yul\":1533:1586   */\n      tag_131\n        /* \"#utility.yul\":1578:1585   */\n      dup7\n        /* \"#utility.yul\":1569:1575   */\n      dup3\n        /* \"#utility.yul\":1558:1567   */\n      dup8\n        /* \"#utility.yul\":1554:1576   */\n      add\n        /* \"#utility.yul\":1533:1586   */\n      tag_109\n      jump\t// in\n    tag_131:\n        /* \"#utility.yul\":1523:1586   */\n      swap3\n      pop\n        /* \"#utility.yul\":1478:1596   */\n      pop\n        /* \"#utility.yul\":1635:1637   */\n      0x40\n        /* \"#utility.yul\":1661:1714   */\n      tag_132\n        /* \"#utility.yul\":1706:1713   */\n      dup7\n        /* \"#utility.yul\":1697:1703   */\n      dup3\n        /* \"#utility.yul\":1686:1695   */\n      dup8\n        /* \"#utility.yul\":1682:1704   */\n      add\n        /* \"#utility.yul\":1661:1714   */\n      tag_113\n      jump\t// in\n    tag_132:\n        /* \"#utility.yul\":1651:1714   */\n      swap2\n      pop\n        /* \"#utility.yul\":1606:1724   */\n      pop\n        /* \"#utility.yul\":1112:1731   */\n      swap3\n      pop\n      swap3\n      pop\n      swap3\n      jump\t// out\n        /* \"#utility.yul\":1737:2211   */\n    tag_27:\n        /* \"#utility.yul\":1805:1811   */\n      0x00\n        /* \"#utility.yul\":1813:1819   */\n      dup1\n        /* \"#utility.yul\":1862:1864   */\n      0x40\n        /* \"#utility.yul\":1850:1859   */\n      dup4\n        /* \"#utility.yul\":1841:1848   */\n      dup6\n        /* \"#utility.yul\":1837:1860   */\n      sub\n        /* \"#utility.yul\":1833:1865   */\n      slt\n        /* \"#utility.yul\":1830:1949   */\n      iszero\n      tag_134\n      jumpi\n        /* \"#utility.yul\":1868:1947   */\n      tag_135\n      tag_120\n      jump\t// in\n    tag_135:\n        /* \"#utility.yul\":1830:1949   */\n    tag_134:\n        /* \"#utility.yul\":1988:1989   */\n      0x00\n        /* \"#utility.yul\":2013:2066   */\n      tag_136\n        /* \"#utility.yul\":2058:2065   */\n      dup6\n        /* \"#utility.yul\":2049:2055   */\n      dup3\n        /* \"#utility.yul\":2038:2047   */\n      dup7\n        /* \"#utility.yul\":2034:2056   */\n      add\n        /* \"#utility.yul\":2013:2066   */\n      tag_109\n      jump\t// in\n    tag_136:\n        /* \"#utility.yul\":2003:2066   */\n      swap3\n      pop\n        /* \"#utility.yul\":1959:2076   */\n      pop\n        /* \"#utility.yul\":2115:2117   */\n      0x20\n        /* \"#utility.yul\":2141:2194   */\n      tag_137\n        /* \"#utility.yul\":2186:2193   */\n      dup6\n        /* \"#utility.yul\":2177:2183   */\n      dup3\n        /* \"#utility.yul\":2166:2175   */\n      dup7\n        /* \"#utility.yul\":2162:2184   */\n      add\n        /* \"#utility.yul\":2141:2194   */\n      tag_113\n      jump\t// in\n    tag_137:\n        /* \"#utility.yul\":2131:2194   */\n      swap2\n      pop\n        /* \"#utility.yul\":2086:2204   */\n      pop\n        /* \"#utility.yul\":1737:2211   */\n      swap3\n      pop\n      swap3\n      swap1\n      pop\n      jump\t// out\n        /* \"#utility.yul\":2217:2546   */\n    tag_63:\n        /* \"#utility.yul\":2276:2282   */\n      0x00\n        /* \"#utility.yul\":2325:2327   */\n      0x20\n        /* \"#utility.yul\":2313:2322   */\n      dup3\n        /* \"#utility.yul\":2304:2311   */\n      dup5\n        /* \"#utility.yul\":2300:2323   */\n      sub\n        /* \"#utility.yul\":2296:2328   */\n      slt\n        /* \"#utility.yul\":2293:2412   */\n      iszero\n      tag_139\n      jumpi\n        /* \"#utility.yul\":2331:2410   */\n      tag_140\n      tag_120\n      jump\t// in\n    tag_140:\n        /* \"#utility.yul\":2293:2412   */\n    tag_139:\n        /* \"#utility.yul\":2451:2452   */\n      0x00\n        /* \"#utility.yul\":2476:2529   */\n      tag_141\n        /* \"#utility.yul\":2521:2528   */\n      dup5\n        /* \"#utility.yul\":2512:2518   */\n      dup3\n        /* \"#utility.yul\":2501:2510   */\n      dup6\n        /* \"#utility.yul\":2497:2519   */\n      add\n        /* \"#utility.yul\":2476:2529   */\n      tag_113\n      jump\t// in\n    tag_141:\n        /* \"#utility.yul\":2466:2529   */\n      swap2\n      pop\n        /* \"#utility.yul\":2422:2539   */\n      pop\n        /* \"#utility.yul\":2217:2546   */\n      swap3\n      swap2\n      pop\n      pop\n      jump\t// out\n        /* \"#utility.yul\":2552:2661   */\n    tag_142:\n        /* \"#utility.yul\":2633:2654   */\n      tag_144\n        /* \"#utility.yul\":2648:2653   */\n      dup2\n        /* \"#utility.yul\":2633:2654   */\n      tag_145\n      jump\t// in\n    tag_144:\n        /* \"#utility.yul\":2628:2631   */\n      dup3\n        /* \"#utility.yul\":2621:2655   */\n      mstore\n        /* \"#utility.yul\":2552:2661   */\n      pop\n      pop\n      jump\t// out\n        /* \"#utility.yul\":2667:3031   */\n    tag_146:\n        /* \"#utility.yul\":2755:2758   */\n      0x00\n        /* \"#utility.yul\":2783:2822   */\n      tag_148\n        /* \"#utility.yul\":2816:2821   */\n      dup3\n        /* \"#utility.yul\":2783:2822   */\n      tag_149\n      jump\t// in\n    tag_148:\n        /* \"#utility.yul\":2838:2909   */\n      tag_150\n        /* \"#utility.yul\":2902:2908   */\n      dup2\n        /* \"#utility.yul\":2897:2900   */\n      dup6\n        /* \"#utility.yul\":2838:2909   */\n      tag_151\n      jump\t// in\n    tag_150:\n        /* \"#utility.yul\":2831:2909   */\n      swap4\n      pop\n        /* \"#utility.yul\":2918:2970   */\n      tag_152\n        /* \"#utility.yul\":2963:2969   */\n      dup2\n        /* \"#utility.yul\":2958:2961   */\n      dup6\n        /* \"#utility.yul\":2951:2955   */\n      0x20\n        /* \"#utility.yul\":2944:2949   */\n      dup7\n        /* \"#utility.yul\":2940:2956   */\n      add\n        /* \"#utility.yul\":2918:2970   */\n      tag_153\n      jump\t// in\n    tag_152:\n        /* \"#utility.yul\":2995:3024   */\n      tag_154\n        /* \"#utility.yul\":3017:3023   */\n      dup2\n        /* \"#utility.yul\":2995:3024   */\n      tag_155\n      jump\t// in\n    tag_154:\n        /* \"#utility.yul\":2990:2993   */\n      dup5\n        /* \"#utility.yul\":2986:3025   */\n      add\n        /* \"#utility.yul\":2979:3025   */\n      swap2\n      pop\n        /* \"#utility.yul\":2759:3031   */\n      pop\n        /* \"#utility.yul\":2667:3031   */\n      swap3\n      swap2\n      pop\n      pop\n      jump\t// out\n        /* \"#utility.yul\":3037:3403   */\n    tag_156:\n        /* \"#utility.yul\":3179:3182   */\n      0x00\n        /* \"#utility.yul\":3200:3267   */\n      tag_158\n        /* \"#utility.yul\":3264:3266   */\n      0x20\n        /* \"#utility.yul\":3259:3262   */\n      dup4\n        /* \"#utility.yul\":3200:3267   */\n      tag_151\n      jump\t// in\n    tag_158:\n        /* \"#utility.yul\":3193:3267   */\n      swap2\n      pop\n        /* \"#utility.yul\":3276:3369   */\n      tag_159\n        /* \"#utility.yul\":3365:3368   */\n      dup3\n        /* \"#utility.yul\":3276:3369   */\n      tag_160\n      jump\t// in\n    tag_159:\n        /* \"#utility.yul\":3394:3396   */\n      0x20\n        /* \"#utility.yul\":3389:3392   */\n      dup3\n        /* \"#utility.yul\":3385:3397   */\n      add\n        /* \"#utility.yul\":3378:3397   */\n      swap1\n      pop\n        /* \"#utility.yul\":3037:3403   */\n      swap2\n      swap1\n      pop\n      jump\t// out\n        /* \"#utility.yul\":3409:3527   */\n    tag_161:\n        /* \"#utility.yul\":3496:3520   */\n      tag_163\n        /* \"#utility.yul\":3514:3519   */\n      dup2\n        /* \"#utility.yul\":3496:3520   */\n      tag_164\n      jump\t// in\n    tag_163:\n        /* \"#utility.yul\":3491:3494   */\n      dup3\n        /* \"#utility.yul\":3484:3521   */\n      mstore\n        /* \"#utility.yul\":3409:3527   */\n      pop\n      pop\n      jump\t// out\n        /* \"#utility.yul\":3533:3645   */\n    tag_165:\n        /* \"#utility.yul\":3616:3638   */\n      tag_167\n        /* \"#utility.yul\":3632:3637   */\n      dup2\n        /* \"#utility.yul\":3616:3638   */\n      tag_168\n      jump\t// in\n    tag_167:\n        /* \"#utility.yul\":3611:3614   */\n      dup3\n        /* \"#utility.yul\":3604:3639   */\n      mstore\n        /* \"#utility.yul\":3533:3645   */\n      pop\n      pop\n      jump\t// out\n        /* \"#utility.yul\":3651:3861   */\n    tag_30:\n        /* \"#utility.yul\":3738:3742   */\n      0x00\n        /* \"#utility.yul\":3776:3778   */\n      0x20\n        /* \"#utility.yul\":3765:3774   */\n      dup3\n        /* \"#utility.yul\":3761:3779   */\n      add\n        /* \"#utility.yul\":3753:3779   */\n      swap1\n      pop\n        /* \"#utility.yul\":3789:3854   */\n      tag_170\n        /* \"#utility.yul\":3851:3852   */\n      0x00\n        /* \"#utility.yul\":3840:3849   */\n      dup4\n        /* \"#utility.yul\":3836:3853   */\n      add\n        /* \"#utility.yul\":3827:3833   */\n      dup5\n        /* \"#utility.yul\":3789:3854   */\n      tag_142\n      jump\t// in\n    tag_170:\n        /* \"#utility.yul\":3651:3861   */\n      swap3\n      swap2\n      pop\n      pop\n      jump\t// out\n        /* \"#utility.yul\":3867:4180   */\n    tag_18:\n        /* \"#utility.yul\":3980:3984   */\n      0x00\n        /* \"#utility.yul\":4018:4020   */\n      0x20\n        /* \"#utility.yul\":4007:4016   */\n      dup3\n        /* \"#utility.yul\":4003:4021   */\n      add\n        /* \"#utility.yul\":3995:4021   */\n      swap1\n      pop\n        /* \"#utility.yul\":4067:4076   */\n      dup2\n        /* \"#utility.yul\":4061:4065   */\n      dup2\n        /* \"#utility.yul\":4057:4077   */\n      sub\n        /* \"#utility.yul\":4053:4054   */\n      0x00\n        /* \"#utility.yul\":4042:4051   */\n      dup4\n        /* \"#utility.yul\":4038:4055   */\n      add\n        /* \"#utility.yul\":4031:4078   */\n      mstore\n        /* \"#utility.yul\":4095:4173   */\n      tag_172\n        /* \"#utility.yul\":4168:4172   */\n      dup2\n        /* \"#utility.yul\":4159:4165   */\n      dup5\n        /* \"#utility.yul\":4095:4173   */\n      tag_146\n      jump\t// in\n    tag_172:\n        /* \"#utility.yul\":4087:4173   */\n      swap1\n      pop\n        /* \"#utility.yul\":3867:4180   */\n      swap3\n      swap2\n      pop\n      pop\n      jump\t// out\n        /* \"#utility.yul\":4186:4605   */\n    tag_94:\n        /* \"#utility.yul\":4352:4356   */\n      0x00\n        /* \"#utility.yul\":4390:4392   */\n      0x20\n        /* \"#utility.yul\":4379:4388   */\n      dup3\n        /* \"#utility.yul\":4375:4393   */\n      add\n        /* \"#utility.yul\":4367:4393   */\n      swap1\n      pop\n        /* \"#utility.yul\":4439:4448   */\n      dup2\n        /* \"#utility.yul\":4433:4437   */\n      dup2\n        /* \"#utility.yul\":4429:4449   */\n      sub\n        /* \"#utility.yul\":4425:4426   */\n      0x00\n        /* \"#utility.yul\":4414:4423   */\n      dup4\n        /* \"#utility.yul\":4410:4427   */\n      add\n        /* \"#utility.yul\":4403:4450   */\n      mstore\n        /* \"#utility.yul\":4467:4598   */\n      tag_174\n        /* \"#utility.yul\":4593:4597   */\n      dup2\n        /* \"#utility.yul\":4467:4598   */\n      tag_156\n      jump\t// in\n    tag_174:\n        /* \"#utility.yul\":4459:4598   */\n      swap1\n      pop\n        /* \"#utility.yul\":4186:4605   */\n      swap2\n      swap1\n      pop\n      jump\t// out\n        /* \"#utility.yul\":4611:4833   */\n    tag_23:\n        /* \"#utility.yul\":4704:4708   */\n      0x00\n        /* \"#utility.yul\":4742:4744   */\n      0x20\n        /* \"#utility.yul\":4731:4740   */\n      dup3\n        /* \"#utility.yul\":4727:4745   */\n      add\n        /* \"#utility.yul\":4719:4745   */\n      swap1\n      pop\n        /* \"#utility.yul\":4755:4826   */\n      tag_176\n        /* \"#utility.yul\":4823:4824   */\n      0x00\n        /* \"#utility.yul\":4812:4821   */\n      dup4\n        /* \"#utility.yul\":4808:4825   */\n      add\n        /* \"#utility.yul\":4799:4805   */\n      dup5\n        /* \"#utility.yul\":4755:4826   */\n      tag_161\n      jump\t// in\n    tag_176:\n        /* \"#utility.yul\":4611:4833   */\n      swap3\n      swap2\n      pop\n      pop\n      jump\t// out\n        /* \"#utility.yul\":4839:5053   */\n    tag_45:\n        /* \"#utility.yul\":4928:4932   */\n      0x00\n        /* \"#utility.yul\":4966:4968   */\n      0x20\n        /* \"#utility.yul\":4955:4964   */\n      dup3\n        /* \"#utility.yul\":4951:4969   */\n      add\n        /* \"#utility.yul\":4943:4969   */\n      swap1\n      pop\n        /* \"#utility.yul\":4979:5046   */\n      tag_178\n        /* \"#utility.yul\":5043:5044   */\n      0x00\n        /* \"#utility.yul\":5032:5041   */\n      dup4\n        /* \"#utility.yul\":5028:5045   */\n      add\n        /* \"#utility.yul\":5019:5025   */\n      dup5\n        /* \"#utility.yul\":4979:5046   */\n      tag_165\n      jump\t// in\n    tag_178:\n        /* \"#utility.yul\":4839:5053   */\n      swap3\n      swap2\n      pop\n      pop\n      jump\t// out\n        /* \"#utility.yul\":5140:5239   */\n    tag_149:\n        /* \"#utility.yul\":5192:5198   */\n      0x00\n        /* \"#utility.yul\":5226:5231   */\n      dup2\n        /* \"#utility.yul\":5220:5232   */\n      mload\n        /* \"#utility.yul\":5210:5232   */\n      swap1\n      pop\n        /* \"#utility.yul\":5140:5239   */\n      swap2\n      swap1\n      pop\n      jump\t// out\n        /* \"#utility.yul\":5245:5414   */\n    tag_151:\n        /* \"#utility.yul\":5329:5340   */\n      0x00\n        /* \"#utility.yul\":5363:5369   */\n      dup3\n        /* \"#utility.yul\":5358:5361   */\n      dup3\n        /* \"#utility.yul\":5351:5370   */\n      mstore\n        /* \"#utility.yul\":5403:5407   */\n      0x20\n        /* \"#utility.yul\":5398:5401   */\n      dup3\n        /* \"#utility.yul\":5394:5408   */\n      add\n        /* \"#utility.yul\":5379:5408   */\n      swap1\n      pop\n        /* \"#utility.yul\":5245:5414   */\n      swap3\n      swap2\n      pop\n      pop\n      jump\t// out\n        /* \"#utility.yul\":5420:5725   */\n    tag_105:\n        /* \"#utility.yul\":5460:5463   */\n      0x00\n        /* \"#utility.yul\":5479:5499   */\n      tag_184\n        /* \"#utility.yul\":5497:5498   */\n      dup3\n        /* \"#utility.yul\":5479:5499   */\n      tag_164\n      jump\t// in\n    tag_184:\n        /* \"#utility.yul\":5474:5499   */\n      swap2\n      pop\n        /* \"#utility.yul\":5513:5533   */\n      tag_185\n        /* \"#utility.yul\":5531:5532   */\n      dup4\n        /* \"#utility.yul\":5513:5533   */\n      tag_164\n      jump\t// in\n    tag_185:\n        /* \"#utility.yul\":5508:5533   */\n      swap3\n      pop\n        /* \"#utility.yul\":5667:5668   */\n      dup3\n        /* \"#utility.yul\":5599:5665   */\n      0xffffffffffffffffffffffffffffffffffffffffffffffffffffffffffffffff\n        /* \"#utility.yul\":5595:5669   */\n      sub\n        /* \"#utility.yul\":5592:5593   */\n      dup3\n        /* \"#utility.yul\":5589:5670   */\n      gt\n        /* \"#utility.yul\":5586:5693   */\n      iszero\n      tag_186\n      jumpi\n        /* \"#utility.yul\":5673:5691   */\n      tag_187\n      tag_188\n      jump\t// in\n    tag_187:\n        /* \"#utility.yul\":5586:5693   */\n    tag_186:\n        /* \"#utility.yul\":5717:5718   */\n      dup3\n        /* \"#utility.yul\":5714:5715   */\n      dup3\n        /* \"#utility.yul\":5710:5719   */\n      add\n        /* \"#utility.yul\":5703:5719   */\n      swap1\n      pop\n        /* \"#utility.yul\":5420:5725   */\n      swap3\n      swap2\n      pop\n      pop\n      jump\t// out\n        /* \"#utility.yul\":5731:6079   */\n    tag_91:\n        /* \"#utility.yul\":5771:5778   */\n      0x00\n        /* \"#utility.yul\":5794:5814   */\n      tag_190\n        /* \"#utility.yul\":5812:5813   */\n      dup3\n        /* \"#utility.yul\":5794:5814   */\n      tag_164\n      jump\t// in\n    tag_190:\n        /* \"#utility.yul\":5789:5814   */\n      swap2\n      pop\n        /* \"#utility.yul\":5828:5848   */\n      tag_191\n        /* \"#utility.yul\":5846:5847   */\n      dup4\n        /* \"#utility.yul\":5828:5848   */\n      tag_164\n      jump\t// in\n    tag_191:\n        /* \"#utility.yul\":5823:5848   */\n      swap3\n      pop\n        /* \"#utility.yul\":6016:6017   */\n      dup2\n        /* \"#utility.yul\":5948:6014   */\n      0xffffffffffffffffffffffffffffffffffffffffffffffffffffffffffffffff\n        /* \"#utility.yul\":5944:6018   */\n      div\n        /* \"#utility.yul\":5941:5942   */\n      dup4\n        /* \"#utility.yul\":5938:6019   */\n      gt\n        /* \"#utility.yul\":5933:5934   */\n      dup3\n        /* \"#utility.yul\":5926:5935   */\n      iszero\n        /* \"#utility.yul\":5919:5936   */\n      iszero\n        /* \"#utility.yul\":5915:6020   */\n      and\n        /* \"#utility.yul\":5912:6043   */\n      iszero\n      tag_192\n      jumpi\n        /* \"#utility.yul\":6023:6041   */\n      tag_193\n      tag_188\n      jump\t// in\n    tag_193:\n        /* \"#utility.yul\":5912:6043   */\n    tag_192:\n        /* \"#utility.yul\":6071:6072   */\n      dup3\n        /* \"#utility.yul\":6068:6069   */\n      dup3\n        /* \"#utility.yul\":6064:6073   */\n      mul\n        /* \"#utility.yul\":6053:6073   */\n      swap1\n      pop\n        /* \"#utility.yul\":5731:6079   */\n      swap3\n      swap2\n      pop\n      pop\n      jump\t// out\n        /* \"#utility.yul\":6085:6276   */\n    tag_102:\n        /* \"#utility.yul\":6125:6129   */\n      0x00\n        /* \"#utility.yul\":6145:6165   */\n      tag_195\n        /* \"#utility.yul\":6163:6164   */\n      dup3\n        /* \"#utility.yul\":6145:6165   */\n      tag_164\n      jump\t// in\n    tag_195:\n        /* \"#utility.yul\":6140:6165   */\n      swap2\n      pop\n        /* \"#utility.yul\":6179:6199   */\n      tag_196\n        /* \"#utility.yul\":6197:6198   */\n      dup4\n        /* \"#utility.yul\":6179:6199   */\n      tag_164\n      jump\t// in\n    tag_196:\n        /* \"#utility.yul\":6174:6199   */\n      swap3\n      pop\n        /* \"#utility.yul\":6218:6219   */\n      dup3\n        /* \"#utility.yul\":6215:6216   */\n      dup3\n        /* \"#utility.yul\":6212:6220   */\n      lt\n        /* \"#utility.yul\":6209:6243   */\n      iszero\n      tag_197\n      jumpi\n        /* \"#utility.yul\":6223:6241   */\n      tag_198\n      tag_188\n      jump\t// in\n    tag_198:\n        /* \"#utility.yul\":6209:6243   */\n    tag_197:\n        /* \"#utility.yul\":6268:6269   */\n      dup3\n        /* \"#utility.yul\":6265:6266   */\n      dup3\n        /* \"#utility.yul\":6261:6270   */\n      sub\n        /* \"#utility.yul\":6253:6270   */\n      swap1\n      pop\n        /* \"#utility.yul\":6085:6276   */\n      swap3\n      swap2\n      pop\n      pop\n      jump\t// out\n        /* \"#utility.yul\":6282:6378   */\n    tag_199:\n        /* \"#utility.yul\":6319:6326   */\n      0x00\n        /* \"#utility.yul\":6348:6372   */\n      tag_201\n        /* \"#utility.yul\":6366:6371   */\n      dup3\n        /* \"#utility.yul\":6348:6372   */\n      tag_202\n      jump\t// in\n    tag_201:\n        /* \"#utility.yul\":6337:6372   */\n      swap1\n      pop\n        /* \"#utility.yul\":6282:6378   */\n      swap2\n      swap1\n      pop\n      jump\t// out\n        /* \"#utility.yul\":6384:6474   */\n    tag_145:\n        /* \"#utility.yul\":6418:6425   */\n      0x00\n        /* \"#utility.yul\":6461:6466   */\n      dup2\n        /* \"#utility.yul\":6454:6467   */\n      iszero\n        /* \"#utility.yul\":6447:6468   */\n      iszero\n        /* \"#utility.yul\":6436:6468   */\n      swap1\n      pop\n        /* \"#utility.yul\":6384:6474   */\n      swap2\n      swap1\n      pop\n      jump\t// out\n        /* \"#utility.yul\":6480:6606   */\n    tag_202:\n        /* \"#utility.yul\":6517:6524   */\n      0x00\n        /* \"#utility.yul\":6557:6599   */\n      0xffffffffffffffffffffffffffffffffffffffff\n        /* \"#utility.yul\":6550:6555   */\n      dup3\n        /* \"#utility.yul\":6546:6600   */\n      and\n        /* \"#utility.yul\":6535:6600   */\n      swap1\n      pop\n        /* \"#utility.yul\":6480:6606   */\n      swap2\n      swap1\n      pop\n      jump\t// out\n        /* \"#utility.yul\":6612:6689   */\n    tag_164:\n        /* \"#utility.yul\":6649:6656   */\n      0x00\n        /* \"#utility.yul\":6678:6683   */\n      dup2\n        /* \"#utility.yul\":6667:6683   */\n      swap1\n      pop\n        /* \"#utility.yul\":6612:6689   */\n      swap2\n      swap1\n      pop\n      jump\t// out\n        /* \"#utility.yul\":6695:6781   */\n    tag_168:\n        /* \"#utility.yul\":6730:6737   */\n      0x00\n        /* \"#utility.yul\":6770:6774   */\n      0xff\n        /* \"#utility.yul\":6763:6768   */\n      dup3\n        /* \"#utility.yul\":6759:6775   */\n      and\n        /* \"#utility.yul\":6748:6775   */\n      swap1\n      pop\n        /* \"#utility.yul\":6695:6781   */\n      swap2\n      swap1\n      pop\n      jump\t// out\n        /* \"#utility.yul\":6787:7094   */\n    tag_153:\n        /* \"#utility.yul\":6855:6856   */\n      0x00\n        /* \"#utility.yul\":6865:6978   */\n    tag_208:\n        /* \"#utility.yul\":6879:6885   */\n      dup4\n        /* \"#utility.yul\":6876:6877   */\n      dup2\n        /* \"#utility.yul\":6873:6886   */\n      lt\n        /* \"#utility.yul\":6865:6978   */\n      iszero\n      tag_210\n      jumpi\n        /* \"#utility.yul\":6964:6965   */\n      dup1\n        /* \"#utility.yul\":6959:6962   */\n      dup3\n        /* \"#utility.yul\":6955:6966   */\n      add\n        /* \"#utility.yul\":6949:6967   */\n      mload\n        /* \"#utility.yul\":6945:6946   */\n      dup2\n        /* \"#utility.yul\":6940:6943   */\n      dup5\n        /* \"#utility.yul\":6936:6947   */\n      add\n        /* \"#utility.yul\":6929:6968   */\n      mstore\n        /* \"#utility.yul\":6901:6903   */\n      0x20\n        /* \"#utility.yul\":6898:6899   */\n      dup2\n        /* \"#utility.yul\":6894:6904   */\n      add\n        /* \"#utility.yul\":6889:6904   */\n      swap1\n      pop\n        /* \"#utility.yul\":6865:6978   */\n      jump(tag_208)\n    tag_210:\n        /* \"#utility.yul\":6996:7002   */\n      dup4\n        /* \"#utility.yul\":6993:6994   */\n      dup2\n        /* \"#utility.yul\":6990:7003   */\n      gt\n        /* \"#utility.yul\":6987:7088   */\n      iszero\n      tag_211\n      jumpi\n        /* \"#utility.yul\":7076:7077   */\n      0x00\n        /* \"#utility.yul\":7067:7073   */\n      dup5\n        /* \"#utility.yul\":7062:7065   */\n      dup5\n        /* \"#utility.yul\":7058:7074   */\n      add\n        /* \"#utility.yul\":7051:7078   */\n      mstore\n        /* \"#utility.yul\":6987:7088   */\n    tag_211:\n        /* \"#utility.yul\":6836:7094   */\n      pop\n        /* \"#utility.yul\":6787:7094   */\n      pop\n      pop\n      pop\n      jump\t// out\n        /* \"#utility.yul\":7100:7280   */\n    tag_100:\n        /* \"#utility.yul\":7148:7225   */\n      0x4e487b7100000000000000000000000000000000000000000000000000000000\n        /* \"#utility.yul\":7145:7146   */\n      0x00\n        /* \"#utility.yul\":7138:7226   */\n      mstore\n        /* \"#utility.yul\":7245:7249   */\n      0x01\n        /* \"#utility.yul\":7242:7243   */\n      0x04\n        /* \"#utility.yul\":7235:7250   */\n      mstore\n        /* \"#utility.yul\":7269:7273   */\n      0x24\n        /* \"#utility.yul\":7266:7267   */\n      0x00\n        /* \"#utility.yul\":7259:7274   */\n      revert\n        /* \"#utility.yul\":7286:7466   */\n    tag_188:\n        /* \"#utility.yul\":7334:7411   */\n      0x4e487b7100000000000000000000000000000000000000000000000000000000\n        /* \"#utility.yul\":7331:7332   */\n      0x00\n        /* \"#utility.yul\":7324:7412   */\n      mstore\n        /* \"#utility.yul\":7431:7435   */\n      0x11\n        /* \"#utility.yul\":7428:7429   */\n      0x04\n        /* \"#utility.yul\":7421:7436   */\n      mstore\n        /* \"#utility.yul\":7455:7459   */\n      0x24\n        /* \"#utility.yul\":7452:7453   */\n      0x00\n        /* \"#utility.yul\":7445:7460   */\n      revert\n        /* \"#utility.yul\":7595:7712   */\n    tag_120:\n        /* \"#utility.yul\":7704:7705   */\n      0x00\n        /* \"#utility.yul\":7701:7702   */\n      dup1\n        /* \"#utility.yul\":7694:7706   */\n      revert\n        /* \"#utility.yul\":7718:7820   */\n    tag_155:\n        /* \"#utility.yul\":7759:7765   */\n      0x00\n        /* \"#utility.yul\":7810:7812   */\n      0x1f\n        /* \"#utility.yul\":7806:7813   */\n      not\n        /* \"#utility.yul\":7801:7803   */\n      0x1f\n        /* \"#utility.yul\":7794:7799   */\n      dup4\n        /* \"#utility.yul\":7790:7804   */\n      add\n        /* \"#utility.yul\":7786:7814   */\n      and\n        /* \"#utility.yul\":7776:7814   */\n      swap1\n      pop\n        /* \"#utility.yul\":7718:7820   */\n      swap2\n      swap1\n      pop\n      jump\t// out\n        /* \"#utility.yul\":7826:8008   */\n    tag_160:\n        /* \"#utility.yul\":7966:8000   */\n      0x4e65656420746f2073656e6420657861637420616d6f756e74206f6620776569\n        /* \"#utility.yul\":7962:7963   */\n      0x00\n        /* \"#utility.yul\":7954:7960   */\n      dup3\n        /* \"#utility.yul\":7950:7964   */\n      add\n        /* \"#utility.yul\":7943:8001   */\n      mstore\n        /* \"#utility.yul\":7826:8008   */\n      pop\n      jump\t// out\n        /* \"#utility.yul\":8014:8136   */\n    tag_112:\n        /* \"#utility.yul\":8087:8111   */\n      tag_220\n        /* \"#utility.yul\":8105:8110   */\n      dup2\n        /* \"#utility.yul\":8087:8111   */\n      tag_199\n      jump\t// in\n    tag_220:\n        /* \"#utility.yul\":8080:8085   */\n      dup2\n        /* \"#utility.yul\":8077:8112   */\n      eq\n        /* \"#utility.yul\":8067:8130   */\n      tag_221\n      jumpi\n        /* \"#utility.yul\":8126:8127   */\n      0x00\n        /* \"#utility.yul\":8123:8124   */\n      dup1\n        /* \"#utility.yul\":8116:8128   */\n      revert\n        /* \"#utility.yul\":8067:8130   */\n    tag_221:\n        /* \"#utility.yul\":8014:8136   */\n      pop\n      jump\t// out\n        /* \"#utility.yul\":8142:8264   */\n    tag_116:\n        /* \"#utility.yul\":8215:8239   */\n      tag_223\n        /* \"#utility.yul\":8233:8238   */\n      dup2\n        /* \"#utility.yul\":8215:8239   */\n      tag_164\n      jump\t// in\n    tag_223:\n        /* \"#utility.yul\":8208:8213   */\n      dup2\n        /* \"#utility.yul\":8205:8240   */\n      eq\n        /* \"#utility.yul\":8195:8258   */\n      tag_224\n      jumpi\n        /* \"#utility.yul\":8254:8255   */\n      0x00\n        /* \"#utility.yul\":8251:8252   */\n      dup1\n        /* \"#utility.yul\":8244:8256   */\n      revert\n        /* \"#utility.yul\":8195:8258   */\n    tag_224:\n        /* \"#utility.yul\":8142:8264   */\n      pop\n      jump\t// out\n\n    auxdata: 0xa26469706673582212202924671417745fadad8fde3cebe74b376b7998cb253445253238781dc83cdd9964736f6c63430008070033\n}\n",
				"bytecode": {
					"linkReferences": {},
					"object": "608060405234801561001057600080fd5b50604051620011ca380380620011ca8339818101604052810190610034919061009e565b806003819055506003546000803373ffffffffffffffffffffffffffffffffffffffff1673ffffffffffffffffffffffffffffffffffffffff16815260200190815260200160002060020181905550506100f1565b600081519050610098816100da565b92915050565b6000602082840312156100b4576100b36100d5565b5b60006100c284828501610089565b91505092915050565b6000819050919050565b600080fd5b6100e3816100cb565b81146100ee57600080fd5b50565b6110c980620001016000396000f3fe60806040526004361061009c5760003560e01c8063313ce56711610064578063313ce5671461019c57806370a08231146101c757806395d89b4114610204578063a9059cbb1461022f578063d96a094a1461026c578063dd62ed3e146102885761009c565b806306fdde03146100a15780630761c8b9146100cc578063095ea7b3146100f757806318160ddd1461013457806323b872dd1461015f575b600080fd5b3480156100ad57600080fd5b506100b66102c5565b6040516100c39190610dc8565b60405180910390f35b3480156100d857600080fd5b506100e16102fe565b6040516100ee9190610e0a565b60405180910390f35b34801561010357600080fd5b5061011e60048036038101906101199190610cb7565b610306565b60405161012b9190610dad565b60405180910390f35b34801561014057600080fd5b506101496103f8565b6040516101569190610e0a565b60405180910390f35b34801561016b57600080fd5b5061018660048036038101906101819190610c64565b610402565b6040516101939190610dad565b60405180910390f35b3480156101a857600080fd5b506101b161078c565b6040516101be9190610e25565b60405180910390f35b3480156101d357600080fd5b506101ee60048036038101906101e99190610bf7565b610791565b6040516101fb9190610e0a565b60405180910390f35b34801561021057600080fd5b506102196107dc565b6040516102269190610dc8565b60405180910390f35b34801561023b57600080fd5b5061025660048036038101906102519190610cb7565b610815565b6040516102639190610dad565b60405180910390f35b61028660048036038101906102819190610cf7565b610a06565b005b34801561029457600080fd5b506102af60048036038101906102aa9190610c24565b610af3565b6040516102bc9190610e0a565b60405180910390f35b6040518060400160405280600d81526020017f43727970746f4d6f6e737465720000000000000000000000000000000000000081525081565b633b9aca0081565b600081600260003373ffffffffffffffffffffffffffffffffffffffff1673ffffffffffffffffffffffffffffffffffffffff16815260200190815260200160002060008573ffffffffffffffffffffffffffffffffffffffff1673ffffffffffffffffffffffffffffffffffffffff168152602001908152602001600020819055508273ffffffffffffffffffffffffffffffffffffffff163373ffffffffffffffffffffffffffffffffffffffff167f8c5be1e5ebec7d5bd14f71427d1e84f3dd0314c0f7b2291e5b200ac8c7c3b925846040516103e69190610e0a565b60405180910390a36001905092915050565b6000600354905090565b60008060008573ffffffffffffffffffffffffffffffffffffffff1673ffffffffffffffffffffffffffffffffffffffff1681526020019081526020016000206002015482111561045257600080fd5b600260008573ffffffffffffffffffffffffffffffffffffffff1673ffffffffffffffffffffffffffffffffffffffff16815260200190815260200160002060003373ffffffffffffffffffffffffffffffffffffffff1673ffffffffffffffffffffffffffffffffffffffff168152602001908152602001600020548211156104db57600080fd5b61052f826000808773ffffffffffffffffffffffffffffffffffffffff1673ffffffffffffffffffffffffffffffffffffffff16815260200190815260200160002060020154610b7a90919063ffffffff16565b6000808673ffffffffffffffffffffffffffffffffffffffff1673ffffffffffffffffffffffffffffffffffffffff1681526020019081526020016000206002018190555061060382600260008773ffffffffffffffffffffffffffffffffffffffff1673ffffffffffffffffffffffffffffffffffffffff16815260200190815260200160002060003373ffffffffffffffffffffffffffffffffffffffff1673ffffffffffffffffffffffffffffffffffffffff16815260200190815260200160002054610b7a90919063ffffffff16565b600260008673ffffffffffffffffffffffffffffffffffffffff1673ffffffffffffffffffffffffffffffffffffffff16815260200190815260200160002060003373ffffffffffffffffffffffffffffffffffffffff1673ffffffffffffffffffffffffffffffffffffffff168152602001908152602001600020819055506106d7826000808673ffffffffffffffffffffffffffffffffffffffff1673ffffffffffffffffffffffffffffffffffffffff16815260200190815260200160002060020154610ba190919063ffffffff16565b6000808573ffffffffffffffffffffffffffffffffffffffff1673ffffffffffffffffffffffffffffffffffffffff168152602001908152602001600020600201819055508273ffffffffffffffffffffffffffffffffffffffff168473ffffffffffffffffffffffffffffffffffffffff167fddf252ad1be2c89b69c2b068fc378daa952ba7f163c4a11628f55a4df523b3ef846040516107799190610e0a565b60405180910390a3600190509392505050565b600c81565b60008060008373ffffffffffffffffffffffffffffffffffffffff1673ffffffffffffffffffffffffffffffffffffffff168152602001908152602001600020600201549050919050565b6040518060400160405280600481526020017f434d4f4e0000000000000000000000000000000000000000000000000000000081525081565b60008060003373ffffffffffffffffffffffffffffffffffffffff1673ffffffffffffffffffffffffffffffffffffffff1681526020019081526020016000206002015482111561086557600080fd5b6108b9826000803373ffffffffffffffffffffffffffffffffffffffff1673ffffffffffffffffffffffffffffffffffffffff16815260200190815260200160002060020154610b7a90919063ffffffff16565b6000803373ffffffffffffffffffffffffffffffffffffffff1673ffffffffffffffffffffffffffffffffffffffff16815260200190815260200160002060020181905550610952826000808673ffffffffffffffffffffffffffffffffffffffff1673ffffffffffffffffffffffffffffffffffffffff16815260200190815260200160002060020154610ba190919063ffffffff16565b6000808573ffffffffffffffffffffffffffffffffffffffff1673ffffffffffffffffffffffffffffffffffffffff168152602001908152602001600020600201819055508273ffffffffffffffffffffffffffffffffffffffff163373ffffffffffffffffffffffffffffffffffffffff167fddf252ad1be2c89b69c2b068fc378daa952ba7f163c4a11628f55a4df523b3ef846040516109f49190610e0a565b60405180910390a36001905092915050565b633b9aca0081610a169190610eb2565b3414610a57576040517f08c379a0000000000000000000000000000000000000000000000000000000008152600401610a4e90610dea565b60405180910390fd5b610aab816000803373ffffffffffffffffffffffffffffffffffffffff1673ffffffffffffffffffffffffffffffffffffffff16815260200190815260200160002060020154610ba190919063ffffffff16565b6000803373ffffffffffffffffffffffffffffffffffffffff1673ffffffffffffffffffffffffffffffffffffffff1681526020019081526020016000206002018190555050565b6000600260008473ffffffffffffffffffffffffffffffffffffffff1673ffffffffffffffffffffffffffffffffffffffff16815260200190815260200160002060008373ffffffffffffffffffffffffffffffffffffffff1673ffffffffffffffffffffffffffffffffffffffff16815260200190815260200160002054905092915050565b600082821115610b8d57610b8c610fc8565b5b8183610b999190610f0c565b905092915050565b6000808284610bb09190610e5c565b905083811015610bc357610bc2610fc8565b5b8091505092915050565b600081359050610bdc81611065565b92915050565b600081359050610bf18161107c565b92915050565b600060208284031215610c0d57610c0c611026565b5b6000610c1b84828501610bcd565b91505092915050565b60008060408385031215610c3b57610c3a611026565b5b6000610c4985828601610bcd565b9250506020610c5a85828601610bcd565b9150509250929050565b600080600060608486031215610c7d57610c7c611026565b5b6000610c8b86828701610bcd565b9350506020610c9c86828701610bcd565b9250506040610cad86828701610be2565b9150509250925092565b60008060408385031215610cce57610ccd611026565b5b6000610cdc85828601610bcd565b9250506020610ced85828601610be2565b9150509250929050565b600060208284031215610d0d57610d0c611026565b5b6000610d1b84828501610be2565b91505092915050565b610d2d81610f52565b82525050565b6000610d3e82610e40565b610d488185610e4b565b9350610d58818560208601610f95565b610d618161102b565b840191505092915050565b6000610d79602083610e4b565b9150610d848261103c565b602082019050919050565b610d9881610f7e565b82525050565b610da781610f88565b82525050565b6000602082019050610dc26000830184610d24565b92915050565b60006020820190508181036000830152610de28184610d33565b905092915050565b60006020820190508181036000830152610e0381610d6c565b9050919050565b6000602082019050610e1f6000830184610d8f565b92915050565b6000602082019050610e3a6000830184610d9e565b92915050565b600081519050919050565b600082825260208201905092915050565b6000610e6782610f7e565b9150610e7283610f7e565b9250827fffffffffffffffffffffffffffffffffffffffffffffffffffffffffffffffff03821115610ea757610ea6610ff7565b5b828201905092915050565b6000610ebd82610f7e565b9150610ec883610f7e565b9250817fffffffffffffffffffffffffffffffffffffffffffffffffffffffffffffffff0483118215151615610f0157610f00610ff7565b5b828202905092915050565b6000610f1782610f7e565b9150610f2283610f7e565b925082821015610f3557610f34610ff7565b5b828203905092915050565b6000610f4b82610f5e565b9050919050565b60008115159050919050565b600073ffffffffffffffffffffffffffffffffffffffff82169050919050565b6000819050919050565b600060ff82169050919050565b60005b83811015610fb3578082015181840152602081019050610f98565b83811115610fc2576000848401525b50505050565b7f4e487b7100000000000000000000000000000000000000000000000000000000600052600160045260246000fd5b7f4e487b7100000000000000000000000000000000000000000000000000000000600052601160045260246000fd5b600080fd5b6000601f19601f8301169050919050565b7f4e65656420746f2073656e6420657861637420616d6f756e74206f6620776569600082015250565b61106e81610f40565b811461107957600080fd5b50565b61108581610f7e565b811461109057600080fd5b5056fea26469706673582212202924671417745fadad8fde3cebe74b376b7998cb253445253238781dc83cdd9964736f6c63430008070033",
					"opcodes": "PUSH1 0x80 PUSH1 0x40 MSTORE CALLVALUE DUP1 ISZERO PUSH2 0x10 JUMPI PUSH1 0x0 DUP1 REVERT JUMPDEST POP PUSH1 0x40 MLOAD PUSH3 0x11CA CODESIZE SUB DUP1 PUSH3 0x11CA DUP4 CODECOPY DUP2 DUP2 ADD PUSH1 0x40 MSTORE DUP2 ADD SWAP1 PUSH2 0x34 SWAP2 SWAP1 PUSH2 0x9E JUMP JUMPDEST DUP1 PUSH1 0x3 DUP2 SWAP1 SSTORE POP PUSH1 0x3 SLOAD PUSH1 0x0 DUP1 CALLER PUSH20 0xFFFFFFFFFFFFFFFFFFFFFFFFFFFFFFFFFFFFFFFF AND PUSH20 0xFFFFFFFFFFFFFFFFFFFFFFFFFFFFFFFFFFFFFFFF AND DUP2 MSTORE PUSH1 0x20 ADD SWAP1 DUP2 MSTORE PUSH1 0x20 ADD PUSH1 0x0 KECCAK256 PUSH1 0x2 ADD DUP2 SWAP1 SSTORE POP POP PUSH2 0xF1 JUMP JUMPDEST PUSH1 0x0 DUP2 MLOAD SWAP1 POP PUSH2 0x98 DUP2 PUSH2 0xDA JUMP JUMPDEST SWAP3 SWAP2 POP POP JUMP JUMPDEST PUSH1 0x0 PUSH1 0x20 DUP3 DUP5 SUB SLT ISZERO PUSH2 0xB4 JUMPI PUSH2 0xB3 PUSH2 0xD5 JUMP JUMPDEST JUMPDEST PUSH1 0x0 PUSH2 0xC2 DUP5 DUP3 DUP6 ADD PUSH2 0x89 JUMP JUMPDEST SWAP2 POP POP SWAP3 SWAP2 POP POP JUMP JUMPDEST PUSH1 0x0 DUP2 SWAP1 POP SWAP2 SWAP1 POP JUMP JUMPDEST PUSH1 0x0 DUP1 REVERT JUMPDEST PUSH2 0xE3 DUP2 PUSH2 0xCB JUMP JUMPDEST DUP2 EQ PUSH2 0xEE JUMPI PUSH1 0x0 DUP1 REVERT JUMPDEST POP JUMP JUMPDEST PUSH2 0x10C9 DUP1 PUSH3 0x101 PUSH1 0x0 CODECOPY PUSH1 0x0 RETURN INVALID PUSH1 0x80 PUSH1 0x40 MSTORE PUSH1 0x4 CALLDATASIZE LT PUSH2 0x9C JUMPI PUSH1 0x0 CALLDATALOAD PUSH1 0xE0 SHR DUP1 PUSH4 0x313CE567 GT PUSH2 0x64 JUMPI DUP1 PUSH4 0x313CE567 EQ PUSH2 0x19C JUMPI DUP1 PUSH4 0x70A08231 EQ PUSH2 0x1C7 JUMPI DUP1 PUSH4 0x95D89B41 EQ PUSH2 0x204 JUMPI DUP1 PUSH4 0xA9059CBB EQ PUSH2 0x22F JUMPI DUP1 PUSH4 0xD96A094A EQ PUSH2 0x26C JUMPI DUP1 PUSH4 0xDD62ED3E EQ PUSH2 0x288 JUMPI PUSH2 0x9C JUMP JUMPDEST DUP1 PUSH4 0x6FDDE03 EQ PUSH2 0xA1 JUMPI DUP1 PUSH4 0x761C8B9 EQ PUSH2 0xCC JUMPI DUP1 PUSH4 0x95EA7B3 EQ PUSH2 0xF7 JUMPI DUP1 PUSH4 0x18160DDD EQ PUSH2 0x134 JUMPI DUP1 PUSH4 0x23B872DD EQ PUSH2 0x15F JUMPI JUMPDEST PUSH1 0x0 DUP1 REVERT JUMPDEST CALLVALUE DUP1 ISZERO PUSH2 0xAD JUMPI PUSH1 0x0 DUP1 REVERT JUMPDEST POP PUSH2 0xB6 PUSH2 0x2C5 JUMP JUMPDEST PUSH1 0x40 MLOAD PUSH2 0xC3 SWAP2 SWAP1 PUSH2 0xDC8 JUMP JUMPDEST PUSH1 0x40 MLOAD DUP1 SWAP2 SUB SWAP1 RETURN JUMPDEST CALLVALUE DUP1 ISZERO PUSH2 0xD8 JUMPI PUSH1 0x0 DUP1 REVERT JUMPDEST POP PUSH2 0xE1 PUSH2 0x2FE JUMP JUMPDEST PUSH1 0x40 MLOAD PUSH2 0xEE SWAP2 SWAP1 PUSH2 0xE0A JUMP JUMPDEST PUSH1 0x40 MLOAD DUP1 SWAP2 SUB SWAP1 RETURN JUMPDEST CALLVALUE DUP1 ISZERO PUSH2 0x103 JUMPI PUSH1 0x0 DUP1 REVERT JUMPDEST POP PUSH2 0x11E PUSH1 0x4 DUP1 CALLDATASIZE SUB DUP2 ADD SWAP1 PUSH2 0x119 SWAP2 SWAP1 PUSH2 0xCB7 JUMP JUMPDEST PUSH2 0x306 JUMP JUMPDEST PUSH1 0x40 MLOAD PUSH2 0x12B SWAP2 SWAP1 PUSH2 0xDAD JUMP JUMPDEST PUSH1 0x40 MLOAD DUP1 SWAP2 SUB SWAP1 RETURN JUMPDEST CALLVALUE DUP1 ISZERO PUSH2 0x140 JUMPI PUSH1 0x0 DUP1 REVERT JUMPDEST POP PUSH2 0x149 PUSH2 0x3F8 JUMP JUMPDEST PUSH1 0x40 MLOAD PUSH2 0x156 SWAP2 SWAP1 PUSH2 0xE0A JUMP JUMPDEST PUSH1 0x40 MLOAD DUP1 SWAP2 SUB SWAP1 RETURN JUMPDEST CALLVALUE DUP1 ISZERO PUSH2 0x16B JUMPI PUSH1 0x0 DUP1 REVERT JUMPDEST POP PUSH2 0x186 PUSH1 0x4 DUP1 CALLDATASIZE SUB DUP2 ADD SWAP1 PUSH2 0x181 SWAP2 SWAP1 PUSH2 0xC64 JUMP JUMPDEST PUSH2 0x402 JUMP JUMPDEST PUSH1 0x40 MLOAD PUSH2 0x193 SWAP2 SWAP1 PUSH2 0xDAD JUMP JUMPDEST PUSH1 0x40 MLOAD DUP1 SWAP2 SUB SWAP1 RETURN JUMPDEST CALLVALUE DUP1 ISZERO PUSH2 0x1A8 JUMPI PUSH1 0x0 DUP1 REVERT JUMPDEST POP PUSH2 0x1B1 PUSH2 0x78C JUMP JUMPDEST PUSH1 0x40 MLOAD PUSH2 0x1BE SWAP2 SWAP1 PUSH2 0xE25 JUMP JUMPDEST PUSH1 0x40 MLOAD DUP1 SWAP2 SUB SWAP1 RETURN JUMPDEST CALLVALUE DUP1 ISZERO PUSH2 0x1D3 JUMPI PUSH1 0x0 DUP1 REVERT JUMPDEST POP PUSH2 0x1EE PUSH1 0x4 DUP1 CALLDATASIZE SUB DUP2 ADD SWAP1 PUSH2 0x1E9 SWAP2 SWAP1 PUSH2 0xBF7 JUMP JUMPDEST PUSH2 0x791 JUMP JUMPDEST PUSH1 0x40 MLOAD PUSH2 0x1FB SWAP2 SWAP1 PUSH2 0xE0A JUMP JUMPDEST PUSH1 0x40 MLOAD DUP1 SWAP2 SUB SWAP1 RETURN JUMPDEST CALLVALUE DUP1 ISZERO PUSH2 0x210 JUMPI PUSH1 0x0 DUP1 REVERT JUMPDEST POP PUSH2 0x219 PUSH2 0x7DC JUMP JUMPDEST PUSH1 0x40 MLOAD PUSH2 0x226 SWAP2 SWAP1 PUSH2 0xDC8 JUMP JUMPDEST PUSH1 0x40 MLOAD DUP1 SWAP2 SUB SWAP1 RETURN JUMPDEST CALLVALUE DUP1 ISZERO PUSH2 0x23B JUMPI PUSH1 0x0 DUP1 REVERT JUMPDEST POP PUSH2 0x256 PUSH1 0x4 DUP1 CALLDATASIZE SUB DUP2 ADD SWAP1 PUSH2 0x251 SWAP2 SWAP1 PUSH2 0xCB7 JUMP JUMPDEST PUSH2 0x815 JUMP JUMPDEST PUSH1 0x40 MLOAD PUSH2 0x263 SWAP2 SWAP1 PUSH2 0xDAD JUMP JUMPDEST PUSH1 0x40 MLOAD DUP1 SWAP2 SUB SWAP1 RETURN JUMPDEST PUSH2 0x286 PUSH1 0x4 DUP1 CALLDATASIZE SUB DUP2 ADD SWAP1 PUSH2 0x281 SWAP2 SWAP1 PUSH2 0xCF7 JUMP JUMPDEST PUSH2 0xA06 JUMP JUMPDEST STOP JUMPDEST CALLVALUE DUP1 ISZERO PUSH2 0x294 JUMPI PUSH1 0x0 DUP1 REVERT JUMPDEST POP PUSH2 0x2AF PUSH1 0x4 DUP1 CALLDATASIZE SUB DUP2 ADD SWAP1 PUSH2 0x2AA SWAP2 SWAP1 PUSH2 0xC24 JUMP JUMPDEST PUSH2 0xAF3 JUMP JUMPDEST PUSH1 0x40 MLOAD PUSH2 0x2BC SWAP2 SWAP1 PUSH2 0xE0A JUMP JUMPDEST PUSH1 0x40 MLOAD DUP1 SWAP2 SUB SWAP1 RETURN JUMPDEST PUSH1 0x40 MLOAD DUP1 PUSH1 0x40 ADD PUSH1 0x40 MSTORE DUP1 PUSH1 0xD DUP2 MSTORE PUSH1 0x20 ADD PUSH32 0x43727970746F4D6F6E7374657200000000000000000000000000000000000000 DUP2 MSTORE POP DUP2 JUMP JUMPDEST PUSH4 0x3B9ACA00 DUP2 JUMP JUMPDEST PUSH1 0x0 DUP2 PUSH1 0x2 PUSH1 0x0 CALLER PUSH20 0xFFFFFFFFFFFFFFFFFFFFFFFFFFFFFFFFFFFFFFFF AND PUSH20 0xFFFFFFFFFFFFFFFFFFFFFFFFFFFFFFFFFFFFFFFF AND DUP2 MSTORE PUSH1 0x20 ADD SWAP1 DUP2 MSTORE PUSH1 0x20 ADD PUSH1 0x0 KECCAK256 PUSH1 0x0 DUP6 PUSH20 0xFFFFFFFFFFFFFFFFFFFFFFFFFFFFFFFFFFFFFFFF AND PUSH20 0xFFFFFFFFFFFFFFFFFFFFFFFFFFFFFFFFFFFFFFFF AND DUP2 MSTORE PUSH1 0x20 ADD SWAP1 DUP2 MSTORE PUSH1 0x20 ADD PUSH1 0x0 KECCAK256 DUP2 SWAP1 SSTORE POP DUP3 PUSH20 0xFFFFFFFFFFFFFFFFFFFFFFFFFFFFFFFFFFFFFFFF AND CALLER PUSH20 0xFFFFFFFFFFFFFFFFFFFFFFFFFFFFFFFFFFFFFFFF AND PUSH32 0x8C5BE1E5EBEC7D5BD14F71427D1E84F3DD0314C0F7B2291E5B200AC8C7C3B925 DUP5 PUSH1 0x40 MLOAD PUSH2 0x3E6 SWAP2 SWAP1 PUSH2 0xE0A JUMP JUMPDEST PUSH1 0x40 MLOAD DUP1 SWAP2 SUB SWAP1 LOG3 PUSH1 0x1 SWAP1 POP SWAP3 SWAP2 POP POP JUMP JUMPDEST PUSH1 0x0 PUSH1 0x3 SLOAD SWAP1 POP SWAP1 JUMP JUMPDEST PUSH1 0x0 DUP1 PUSH1 0x0 DUP6 PUSH20 0xFFFFFFFFFFFFFFFFFFFFFFFFFFFFFFFFFFFFFFFF AND PUSH20 0xFFFFFFFFFFFFFFFFFFFFFFFFFFFFFFFFFFFFFFFF AND DUP2 MSTORE PUSH1 0x20 ADD SWAP1 DUP2 MSTORE PUSH1 0x20 ADD PUSH1 0x0 KECCAK256 PUSH1 0x2 ADD SLOAD DUP3 GT ISZERO PUSH2 0x452 JUMPI PUSH1 0x0 DUP1 REVERT JUMPDEST PUSH1 0x2 PUSH1 0x0 DUP6 PUSH20 0xFFFFFFFFFFFFFFFFFFFFFFFFFFFFFFFFFFFFFFFF AND PUSH20 0xFFFFFFFFFFFFFFFFFFFFFFFFFFFFFFFFFFFFFFFF AND DUP2 MSTORE PUSH1 0x20 ADD SWAP1 DUP2 MSTORE PUSH1 0x20 ADD PUSH1 0x0 KECCAK256 PUSH1 0x0 CALLER PUSH20 0xFFFFFFFFFFFFFFFFFFFFFFFFFFFFFFFFFFFFFFFF AND PUSH20 0xFFFFFFFFFFFFFFFFFFFFFFFFFFFFFFFFFFFFFFFF AND DUP2 MSTORE PUSH1 0x20 ADD SWAP1 DUP2 MSTORE PUSH1 0x20 ADD PUSH1 0x0 KECCAK256 SLOAD DUP3 GT ISZERO PUSH2 0x4DB JUMPI PUSH1 0x0 DUP1 REVERT JUMPDEST PUSH2 0x52F DUP3 PUSH1 0x0 DUP1 DUP8 PUSH20 0xFFFFFFFFFFFFFFFFFFFFFFFFFFFFFFFFFFFFFFFF AND PUSH20 0xFFFFFFFFFFFFFFFFFFFFFFFFFFFFFFFFFFFFFFFF AND DUP2 MSTORE PUSH1 0x20 ADD SWAP1 DUP2 MSTORE PUSH1 0x20 ADD PUSH1 0x0 KECCAK256 PUSH1 0x2 ADD SLOAD PUSH2 0xB7A SWAP1 SWAP2 SWAP1 PUSH4 0xFFFFFFFF AND JUMP JUMPDEST PUSH1 0x0 DUP1 DUP7 PUSH20 0xFFFFFFFFFFFFFFFFFFFFFFFFFFFFFFFFFFFFFFFF AND PUSH20 0xFFFFFFFFFFFFFFFFFFFFFFFFFFFFFFFFFFFFFFFF AND DUP2 MSTORE PUSH1 0x20 ADD SWAP1 DUP2 MSTORE PUSH1 0x20 ADD PUSH1 0x0 KECCAK256 PUSH1 0x2 ADD DUP2 SWAP1 SSTORE POP PUSH2 0x603 DUP3 PUSH1 0x2 PUSH1 0x0 DUP8 PUSH20 0xFFFFFFFFFFFFFFFFFFFFFFFFFFFFFFFFFFFFFFFF AND PUSH20 0xFFFFFFFFFFFFFFFFFFFFFFFFFFFFFFFFFFFFFFFF AND DUP2 MSTORE PUSH1 0x20 ADD SWAP1 DUP2 MSTORE PUSH1 0x20 ADD PUSH1 0x0 KECCAK256 PUSH1 0x0 CALLER PUSH20 0xFFFFFFFFFFFFFFFFFFFFFFFFFFFFFFFFFFFFFFFF AND PUSH20 0xFFFFFFFFFFFFFFFFFFFFFFFFFFFFFFFFFFFFFFFF AND DUP2 MSTORE PUSH1 0x20 ADD SWAP1 DUP2 MSTORE PUSH1 0x20 ADD PUSH1 0x0 KECCAK256 SLOAD PUSH2 0xB7A SWAP1 SWAP2 SWAP1 PUSH4 0xFFFFFFFF AND JUMP JUMPDEST PUSH1 0x2 PUSH1 0x0 DUP7 PUSH20 0xFFFFFFFFFFFFFFFFFFFFFFFFFFFFFFFFFFFFFFFF AND PUSH20 0xFFFFFFFFFFFFFFFFFFFFFFFFFFFFFFFFFFFFFFFF AND DUP2 MSTORE PUSH1 0x20 ADD SWAP1 DUP2 MSTORE PUSH1 0x20 ADD PUSH1 0x0 KECCAK256 PUSH1 0x0 CALLER PUSH20 0xFFFFFFFFFFFFFFFFFFFFFFFFFFFFFFFFFFFFFFFF AND PUSH20 0xFFFFFFFFFFFFFFFFFFFFFFFFFFFFFFFFFFFFFFFF AND DUP2 MSTORE PUSH1 0x20 ADD SWAP1 DUP2 MSTORE PUSH1 0x20 ADD PUSH1 0x0 KECCAK256 DUP2 SWAP1 SSTORE POP PUSH2 0x6D7 DUP3 PUSH1 0x0 DUP1 DUP7 PUSH20 0xFFFFFFFFFFFFFFFFFFFFFFFFFFFFFFFFFFFFFFFF AND PUSH20 0xFFFFFFFFFFFFFFFFFFFFFFFFFFFFFFFFFFFFFFFF AND DUP2 MSTORE PUSH1 0x20 ADD SWAP1 DUP2 MSTORE PUSH1 0x20 ADD PUSH1 0x0 KECCAK256 PUSH1 0x2 ADD SLOAD PUSH2 0xBA1 SWAP1 SWAP2 SWAP1 PUSH4 0xFFFFFFFF AND JUMP JUMPDEST PUSH1 0x0 DUP1 DUP6 PUSH20 0xFFFFFFFFFFFFFFFFFFFFFFFFFFFFFFFFFFFFFFFF AND PUSH20 0xFFFFFFFFFFFFFFFFFFFFFFFFFFFFFFFFFFFFFFFF AND DUP2 MSTORE PUSH1 0x20 ADD SWAP1 DUP2 MSTORE PUSH1 0x20 ADD PUSH1 0x0 KECCAK256 PUSH1 0x2 ADD DUP2 SWAP1 SSTORE POP DUP3 PUSH20 0xFFFFFFFFFFFFFFFFFFFFFFFFFFFFFFFFFFFFFFFF AND DUP5 PUSH20 0xFFFFFFFFFFFFFFFFFFFFFFFFFFFFFFFFFFFFFFFF AND PUSH32 0xDDF252AD1BE2C89B69C2B068FC378DAA952BA7F163C4A11628F55A4DF523B3EF DUP5 PUSH1 0x40 MLOAD PUSH2 0x779 SWAP2 SWAP1 PUSH2 0xE0A JUMP JUMPDEST PUSH1 0x40 MLOAD DUP1 SWAP2 SUB SWAP1 LOG3 PUSH1 0x1 SWAP1 POP SWAP4 SWAP3 POP POP POP JUMP JUMPDEST PUSH1 0xC DUP2 JUMP JUMPDEST PUSH1 0x0 DUP1 PUSH1 0x0 DUP4 PUSH20 0xFFFFFFFFFFFFFFFFFFFFFFFFFFFFFFFFFFFFFFFF AND PUSH20 0xFFFFFFFFFFFFFFFFFFFFFFFFFFFFFFFFFFFFFFFF AND DUP2 MSTORE PUSH1 0x20 ADD SWAP1 DUP2 MSTORE PUSH1 0x20 ADD PUSH1 0x0 KECCAK256 PUSH1 0x2 ADD SLOAD SWAP1 POP SWAP2 SWAP1 POP JUMP JUMPDEST PUSH1 0x40 MLOAD DUP1 PUSH1 0x40 ADD PUSH1 0x40 MSTORE DUP1 PUSH1 0x4 DUP2 MSTORE PUSH1 0x20 ADD PUSH32 0x434D4F4E00000000000000000000000000000000000000000000000000000000 DUP2 MSTORE POP DUP2 JUMP JUMPDEST PUSH1 0x0 DUP1 PUSH1 0x0 CALLER PUSH20 0xFFFFFFFFFFFFFFFFFFFFFFFFFFFFFFFFFFFFFFFF AND PUSH20 0xFFFFFFFFFFFFFFFFFFFFFFFFFFFFFFFFFFFFFFFF AND DUP2 MSTORE PUSH1 0x20 ADD SWAP1 DUP2 MSTORE PUSH1 0x20 ADD PUSH1 0x0 KECCAK256 PUSH1 0x2 ADD SLOAD DUP3 GT ISZERO PUSH2 0x865 JUMPI PUSH1 0x0 DUP1 REVERT JUMPDEST PUSH2 0x8B9 DUP3 PUSH1 0x0 DUP1 CALLER PUSH20 0xFFFFFFFFFFFFFFFFFFFFFFFFFFFFFFFFFFFFFFFF AND PUSH20 0xFFFFFFFFFFFFFFFFFFFFFFFFFFFFFFFFFFFFFFFF AND DUP2 MSTORE PUSH1 0x20 ADD SWAP1 DUP2 MSTORE PUSH1 0x20 ADD PUSH1 0x0 KECCAK256 PUSH1 0x2 ADD SLOAD PUSH2 0xB7A SWAP1 SWAP2 SWAP1 PUSH4 0xFFFFFFFF AND JUMP JUMPDEST PUSH1 0x0 DUP1 CALLER PUSH20 0xFFFFFFFFFFFFFFFFFFFFFFFFFFFFFFFFFFFFFFFF AND PUSH20 0xFFFFFFFFFFFFFFFFFFFFFFFFFFFFFFFFFFFFFFFF AND DUP2 MSTORE PUSH1 0x20 ADD SWAP1 DUP2 MSTORE PUSH1 0x20 ADD PUSH1 0x0 KECCAK256 PUSH1 0x2 ADD DUP2 SWAP1 SSTORE POP PUSH2 0x952 DUP3 PUSH1 0x0 DUP1 DUP7 PUSH20 0xFFFFFFFFFFFFFFFFFFFFFFFFFFFFFFFFFFFFFFFF AND PUSH20 0xFFFFFFFFFFFFFFFFFFFFFFFFFFFFFFFFFFFFFFFF AND DUP2 MSTORE PUSH1 0x20 ADD SWAP1 DUP2 MSTORE PUSH1 0x20 ADD PUSH1 0x0 KECCAK256 PUSH1 0x2 ADD SLOAD PUSH2 0xBA1 SWAP1 SWAP2 SWAP1 PUSH4 0xFFFFFFFF AND JUMP JUMPDEST PUSH1 0x0 DUP1 DUP6 PUSH20 0xFFFFFFFFFFFFFFFFFFFFFFFFFFFFFFFFFFFFFFFF AND PUSH20 0xFFFFFFFFFFFFFFFFFFFFFFFFFFFFFFFFFFFFFFFF AND DUP2 MSTORE PUSH1 0x20 ADD SWAP1 DUP2 MSTORE PUSH1 0x20 ADD PUSH1 0x0 KECCAK256 PUSH1 0x2 ADD DUP2 SWAP1 SSTORE POP DUP3 PUSH20 0xFFFFFFFFFFFFFFFFFFFFFFFFFFFFFFFFFFFFFFFF AND CALLER PUSH20 0xFFFFFFFFFFFFFFFFFFFFFFFFFFFFFFFFFFFFFFFF AND PUSH32 0xDDF252AD1BE2C89B69C2B068FC378DAA952BA7F163C4A11628F55A4DF523B3EF DUP5 PUSH1 0x40 MLOAD PUSH2 0x9F4 SWAP2 SWAP1 PUSH2 0xE0A JUMP JUMPDEST PUSH1 0x40 MLOAD DUP1 SWAP2 SUB SWAP1 LOG3 PUSH1 0x1 SWAP1 POP SWAP3 SWAP2 POP POP JUMP JUMPDEST PUSH4 0x3B9ACA00 DUP2 PUSH2 0xA16 SWAP2 SWAP1 PUSH2 0xEB2 JUMP JUMPDEST CALLVALUE EQ PUSH2 0xA57 JUMPI PUSH1 0x40 MLOAD PUSH32 0x8C379A000000000000000000000000000000000000000000000000000000000 DUP2 MSTORE PUSH1 0x4 ADD PUSH2 0xA4E SWAP1 PUSH2 0xDEA JUMP JUMPDEST PUSH1 0x40 MLOAD DUP1 SWAP2 SUB SWAP1 REVERT JUMPDEST PUSH2 0xAAB DUP2 PUSH1 0x0 DUP1 CALLER PUSH20 0xFFFFFFFFFFFFFFFFFFFFFFFFFFFFFFFFFFFFFFFF AND PUSH20 0xFFFFFFFFFFFFFFFFFFFFFFFFFFFFFFFFFFFFFFFF AND DUP2 MSTORE PUSH1 0x20 ADD SWAP1 DUP2 MSTORE PUSH1 0x20 ADD PUSH1 0x0 KECCAK256 PUSH1 0x2 ADD SLOAD PUSH2 0xBA1 SWAP1 SWAP2 SWAP1 PUSH4 0xFFFFFFFF AND JUMP JUMPDEST PUSH1 0x0 DUP1 CALLER PUSH20 0xFFFFFFFFFFFFFFFFFFFFFFFFFFFFFFFFFFFFFFFF AND PUSH20 0xFFFFFFFFFFFFFFFFFFFFFFFFFFFFFFFFFFFFFFFF AND DUP2 MSTORE PUSH1 0x20 ADD SWAP1 DUP2 MSTORE PUSH1 0x20 ADD PUSH1 0x0 KECCAK256 PUSH1 0x2 ADD DUP2 SWAP1 SSTORE POP POP JUMP JUMPDEST PUSH1 0x0 PUSH1 0x2 PUSH1 0x0 DUP5 PUSH20 0xFFFFFFFFFFFFFFFFFFFFFFFFFFFFFFFFFFFFFFFF AND PUSH20 0xFFFFFFFFFFFFFFFFFFFFFFFFFFFFFFFFFFFFFFFF AND DUP2 MSTORE PUSH1 0x20 ADD SWAP1 DUP2 MSTORE PUSH1 0x20 ADD PUSH1 0x0 KECCAK256 PUSH1 0x0 DUP4 PUSH20 0xFFFFFFFFFFFFFFFFFFFFFFFFFFFFFFFFFFFFFFFF AND PUSH20 0xFFFFFFFFFFFFFFFFFFFFFFFFFFFFFFFFFFFFFFFF AND DUP2 MSTORE PUSH1 0x20 ADD SWAP1 DUP2 MSTORE PUSH1 0x20 ADD PUSH1 0x0 KECCAK256 SLOAD SWAP1 POP SWAP3 SWAP2 POP POP JUMP JUMPDEST PUSH1 0x0 DUP3 DUP3 GT ISZERO PUSH2 0xB8D JUMPI PUSH2 0xB8C PUSH2 0xFC8 JUMP JUMPDEST JUMPDEST DUP2 DUP4 PUSH2 0xB99 SWAP2 SWAP1 PUSH2 0xF0C JUMP JUMPDEST SWAP1 POP SWAP3 SWAP2 POP POP JUMP JUMPDEST PUSH1 0x0 DUP1 DUP3 DUP5 PUSH2 0xBB0 SWAP2 SWAP1 PUSH2 0xE5C JUMP JUMPDEST SWAP1 POP DUP4 DUP2 LT ISZERO PUSH2 0xBC3 JUMPI PUSH2 0xBC2 PUSH2 0xFC8 JUMP JUMPDEST JUMPDEST DUP1 SWAP2 POP POP SWAP3 SWAP2 POP POP JUMP JUMPDEST PUSH1 0x0 DUP2 CALLDATALOAD SWAP1 POP PUSH2 0xBDC DUP2 PUSH2 0x1065 JUMP JUMPDEST SWAP3 SWAP2 POP POP JUMP JUMPDEST PUSH1 0x0 DUP2 CALLDATALOAD SWAP1 POP PUSH2 0xBF1 DUP2 PUSH2 0x107C JUMP JUMPDEST SWAP3 SWAP2 POP POP JUMP JUMPDEST PUSH1 0x0 PUSH1 0x20 DUP3 DUP5 SUB SLT ISZERO PUSH2 0xC0D JUMPI PUSH2 0xC0C PUSH2 0x1026 JUMP JUMPDEST JUMPDEST PUSH1 0x0 PUSH2 0xC1B DUP5 DUP3 DUP6 ADD PUSH2 0xBCD JUMP JUMPDEST SWAP2 POP POP SWAP3 SWAP2 POP POP JUMP JUMPDEST PUSH1 0x0 DUP1 PUSH1 0x40 DUP4 DUP6 SUB SLT ISZERO PUSH2 0xC3B JUMPI PUSH2 0xC3A PUSH2 0x1026 JUMP JUMPDEST JUMPDEST PUSH1 0x0 PUSH2 0xC49 DUP6 DUP3 DUP7 ADD PUSH2 0xBCD JUMP JUMPDEST SWAP3 POP POP PUSH1 0x20 PUSH2 0xC5A DUP6 DUP3 DUP7 ADD PUSH2 0xBCD JUMP JUMPDEST SWAP2 POP POP SWAP3 POP SWAP3 SWAP1 POP JUMP JUMPDEST PUSH1 0x0 DUP1 PUSH1 0x0 PUSH1 0x60 DUP5 DUP7 SUB SLT ISZERO PUSH2 0xC7D JUMPI PUSH2 0xC7C PUSH2 0x1026 JUMP JUMPDEST JUMPDEST PUSH1 0x0 PUSH2 0xC8B DUP7 DUP3 DUP8 ADD PUSH2 0xBCD JUMP JUMPDEST SWAP4 POP POP PUSH1 0x20 PUSH2 0xC9C DUP7 DUP3 DUP8 ADD PUSH2 0xBCD JUMP JUMPDEST SWAP3 POP POP PUSH1 0x40 PUSH2 0xCAD DUP7 DUP3 DUP8 ADD PUSH2 0xBE2 JUMP JUMPDEST SWAP2 POP POP SWAP3 POP SWAP3 POP SWAP3 JUMP JUMPDEST PUSH1 0x0 DUP1 PUSH1 0x40 DUP4 DUP6 SUB SLT ISZERO PUSH2 0xCCE JUMPI PUSH2 0xCCD PUSH2 0x1026 JUMP JUMPDEST JUMPDEST PUSH1 0x0 PUSH2 0xCDC DUP6 DUP3 DUP7 ADD PUSH2 0xBCD JUMP JUMPDEST SWAP3 POP POP PUSH1 0x20 PUSH2 0xCED DUP6 DUP3 DUP7 ADD PUSH2 0xBE2 JUMP JUMPDEST SWAP2 POP POP SWAP3 POP SWAP3 SWAP1 POP JUMP JUMPDEST PUSH1 0x0 PUSH1 0x20 DUP3 DUP5 SUB SLT ISZERO PUSH2 0xD0D JUMPI PUSH2 0xD0C PUSH2 0x1026 JUMP JUMPDEST JUMPDEST PUSH1 0x0 PUSH2 0xD1B DUP5 DUP3 DUP6 ADD PUSH2 0xBE2 JUMP JUMPDEST SWAP2 POP POP SWAP3 SWAP2 POP POP JUMP JUMPDEST PUSH2 0xD2D DUP2 PUSH2 0xF52 JUMP JUMPDEST DUP3 MSTORE POP POP JUMP JUMPDEST PUSH1 0x0 PUSH2 0xD3E DUP3 PUSH2 0xE40 JUMP JUMPDEST PUSH2 0xD48 DUP2 DUP6 PUSH2 0xE4B JUMP JUMPDEST SWAP4 POP PUSH2 0xD58 DUP2 DUP6 PUSH1 0x20 DUP7 ADD PUSH2 0xF95 JUMP JUMPDEST PUSH2 0xD61 DUP2 PUSH2 0x102B JUMP JUMPDEST DUP5 ADD SWAP2 POP POP SWAP3 SWAP2 POP POP JUMP JUMPDEST PUSH1 0x0 PUSH2 0xD79 PUSH1 0x20 DUP4 PUSH2 0xE4B JUMP JUMPDEST SWAP2 POP PUSH2 0xD84 DUP3 PUSH2 0x103C JUMP JUMPDEST PUSH1 0x20 DUP3 ADD SWAP1 POP SWAP2 SWAP1 POP JUMP JUMPDEST PUSH2 0xD98 DUP2 PUSH2 0xF7E JUMP JUMPDEST DUP3 MSTORE POP POP JUMP JUMPDEST PUSH2 0xDA7 DUP2 PUSH2 0xF88 JUMP JUMPDEST DUP3 MSTORE POP POP JUMP JUMPDEST PUSH1 0x0 PUSH1 0x20 DUP3 ADD SWAP1 POP PUSH2 0xDC2 PUSH1 0x0 DUP4 ADD DUP5 PUSH2 0xD24 JUMP JUMPDEST SWAP3 SWAP2 POP POP JUMP JUMPDEST PUSH1 0x0 PUSH1 0x20 DUP3 ADD SWAP1 POP DUP2 DUP2 SUB PUSH1 0x0 DUP4 ADD MSTORE PUSH2 0xDE2 DUP2 DUP5 PUSH2 0xD33 JUMP JUMPDEST SWAP1 POP SWAP3 SWAP2 POP POP JUMP JUMPDEST PUSH1 0x0 PUSH1 0x20 DUP3 ADD SWAP1 POP DUP2 DUP2 SUB PUSH1 0x0 DUP4 ADD MSTORE PUSH2 0xE03 DUP2 PUSH2 0xD6C JUMP JUMPDEST SWAP1 POP SWAP2 SWAP1 POP JUMP JUMPDEST PUSH1 0x0 PUSH1 0x20 DUP3 ADD SWAP1 POP PUSH2 0xE1F PUSH1 0x0 DUP4 ADD DUP5 PUSH2 0xD8F JUMP JUMPDEST SWAP3 SWAP2 POP POP JUMP JUMPDEST PUSH1 0x0 PUSH1 0x20 DUP3 ADD SWAP1 POP PUSH2 0xE3A PUSH1 0x0 DUP4 ADD DUP5 PUSH2 0xD9E JUMP JUMPDEST SWAP3 SWAP2 POP POP JUMP JUMPDEST PUSH1 0x0 DUP2 MLOAD SWAP1 POP SWAP2 SWAP1 POP JUMP JUMPDEST PUSH1 0x0 DUP3 DUP3 MSTORE PUSH1 0x20 DUP3 ADD SWAP1 POP SWAP3 SWAP2 POP POP JUMP JUMPDEST PUSH1 0x0 PUSH2 0xE67 DUP3 PUSH2 0xF7E JUMP JUMPDEST SWAP2 POP PUSH2 0xE72 DUP4 PUSH2 0xF7E JUMP JUMPDEST SWAP3 POP DUP3 PUSH32 0xFFFFFFFFFFFFFFFFFFFFFFFFFFFFFFFFFFFFFFFFFFFFFFFFFFFFFFFFFFFFFFFF SUB DUP3 GT ISZERO PUSH2 0xEA7 JUMPI PUSH2 0xEA6 PUSH2 0xFF7 JUMP JUMPDEST JUMPDEST DUP3 DUP3 ADD SWAP1 POP SWAP3 SWAP2 POP POP JUMP JUMPDEST PUSH1 0x0 PUSH2 0xEBD DUP3 PUSH2 0xF7E JUMP JUMPDEST SWAP2 POP PUSH2 0xEC8 DUP4 PUSH2 0xF7E JUMP JUMPDEST SWAP3 POP DUP2 PUSH32 0xFFFFFFFFFFFFFFFFFFFFFFFFFFFFFFFFFFFFFFFFFFFFFFFFFFFFFFFFFFFFFFFF DIV DUP4 GT DUP3 ISZERO ISZERO AND ISZERO PUSH2 0xF01 JUMPI PUSH2 0xF00 PUSH2 0xFF7 JUMP JUMPDEST JUMPDEST DUP3 DUP3 MUL SWAP1 POP SWAP3 SWAP2 POP POP JUMP JUMPDEST PUSH1 0x0 PUSH2 0xF17 DUP3 PUSH2 0xF7E JUMP JUMPDEST SWAP2 POP PUSH2 0xF22 DUP4 PUSH2 0xF7E JUMP JUMPDEST SWAP3 POP DUP3 DUP3 LT ISZERO PUSH2 0xF35 JUMPI PUSH2 0xF34 PUSH2 0xFF7 JUMP JUMPDEST JUMPDEST DUP3 DUP3 SUB SWAP1 POP SWAP3 SWAP2 POP POP JUMP JUMPDEST PUSH1 0x0 PUSH2 0xF4B DUP3 PUSH2 0xF5E JUMP JUMPDEST SWAP1 POP SWAP2 SWAP1 POP JUMP JUMPDEST PUSH1 0x0 DUP2 ISZERO ISZERO SWAP1 POP SWAP2 SWAP1 POP JUMP JUMPDEST PUSH1 0x0 PUSH20 0xFFFFFFFFFFFFFFFFFFFFFFFFFFFFFFFFFFFFFFFF DUP3 AND SWAP1 POP SWAP2 SWAP1 POP JUMP JUMPDEST PUSH1 0x0 DUP2 SWAP1 POP SWAP2 SWAP1 POP JUMP JUMPDEST PUSH1 0x0 PUSH1 0xFF DUP3 AND SWAP1 POP SWAP2 SWAP1 POP JUMP JUMPDEST PUSH1 0x0 JUMPDEST DUP4 DUP2 LT ISZERO PUSH2 0xFB3 JUMPI DUP1 DUP3 ADD MLOAD DUP2 DUP5 ADD MSTORE PUSH1 0x20 DUP2 ADD SWAP1 POP PUSH2 0xF98 JUMP JUMPDEST DUP4 DUP2 GT ISZERO PUSH2 0xFC2 JUMPI PUSH1 0x0 DUP5 DUP5 ADD MSTORE JUMPDEST POP POP POP POP JUMP JUMPDEST PUSH32 0x4E487B7100000000000000000000000000000000000000000000000000000000 PUSH1 0x0 MSTORE PUSH1 0x1 PUSH1 0x4 MSTORE PUSH1 0x24 PUSH1 0x0 REVERT JUMPDEST PUSH32 0x4E487B7100000000000000000000000000000000000000000000000000000000 PUSH1 0x0 MSTORE PUSH1 0x11 PUSH1 0x4 MSTORE PUSH1 0x24 PUSH1 0x0 REVERT JUMPDEST PUSH1 0x0 DUP1 REVERT JUMPDEST PUSH1 0x0 PUSH1 0x1F NOT PUSH1 0x1F DUP4 ADD AND SWAP1 POP SWAP2 SWAP1 POP JUMP JUMPDEST PUSH32 0x4E65656420746F2073656E6420657861637420616D6F756E74206F6620776569 PUSH1 0x0 DUP3 ADD MSTORE POP JUMP JUMPDEST PUSH2 0x106E DUP2 PUSH2 0xF40 JUMP JUMPDEST DUP2 EQ PUSH2 0x1079 JUMPI PUSH1 0x0 DUP1 REVERT JUMPDEST POP JUMP JUMPDEST PUSH2 0x1085 DUP2 PUSH2 0xF7E JUMP JUMPDEST DUP2 EQ PUSH2 0x1090 JUMPI PUSH1 0x0 DUP1 REVERT JUMPDEST POP JUMP INVALID LOG2 PUSH5 0x6970667358 0x22 SLT KECCAK256 0x29 0x24 PUSH8 0x1417745FADAD8FDE EXTCODECOPY 0xEB 0xE7 0x4B CALLDATACOPY PUSH12 0x7998CB253445253238781DC8 EXTCODECOPY 0xDD SWAP10 PUSH5 0x736F6C6343 STOP ADDMOD SMOD STOP CALLER "
				},
				"gasEstimates": {
					"creation": {
						"codeDepositCost": "859400",
						"executionCost": "infinite",
						"totalCost": "infinite"
					},
					"external": {
						"allowance(address,address)": "infinite",
						"approve(address,uint256)": "infinite",
						"balanceOf(address)": "2869",
						"buy(uint256)": "infinite",
						"decimals()": "335",
						"name()": "infinite",
						"symbol()": "infinite",
						"tokenPrice_()": "352",
						"totalSupply()": "2504",
						"transfer(address,uint256)": "infinite",
						"transferFrom(address,address,uint256)": "infinite"
					}
				},
				"methodIdentifiers": {
					"allowance(address,address)": "dd62ed3e",
					"approve(address,uint256)": "095ea7b3",
					"balanceOf(address)": "70a08231",
					"buy(uint256)": "d96a094a",
					"decimals()": "313ce567",
					"name()": "06fdde03",
					"symbol()": "95d89b41",
					"tokenPrice_()": "0761c8b9",
					"totalSupply()": "18160ddd",
					"transfer(address,uint256)": "a9059cbb",
					"transferFrom(address,address,uint256)": "23b872dd"
				}
			},
			"storageLayout": {
				"storage": [
					{
						"astId": 29,
						"contract": "GitHub/contract-token-cryptoMonster/components/CryptoMonster.sol:CryptoMonster",
						"label": "structUser_",
						"offset": 0,
						"slot": "0",
						"type": "t_mapping(t_address,t_struct(structUser)24_storage)"
					},
					{
						"astId": 33,
						"contract": "GitHub/contract-token-cryptoMonster/components/CryptoMonster.sol:CryptoMonster",
						"label": "logins",
						"offset": 0,
						"slot": "1",
						"type": "t_mapping(t_address,t_string_storage)"
					},
					{
						"astId": 39,
						"contract": "GitHub/contract-token-cryptoMonster/components/CryptoMonster.sol:CryptoMonster",
						"label": "allowed",
						"offset": 0,
						"slot": "2",
						"type": "t_mapping(t_address,t_mapping(t_address,t_uint256))"
					},
					{
						"astId": 41,
						"contract": "GitHub/contract-token-cryptoMonster/components/CryptoMonster.sol:CryptoMonster",
						"label": "totalSupply_",
						"offset": 0,
						"slot": "3",
						"type": "t_uint256"
					}
				],
				"types": {
					"t_address": {
						"encoding": "inplace",
						"label": "address",
						"numberOfBytes": "20"
					},
					"t_bytes32": {
						"encoding": "inplace",
						"label": "bytes32",
						"numberOfBytes": "32"
					},
					"t_mapping(t_address,t_mapping(t_address,t_uint256))": {
						"encoding": "mapping",
						"key": "t_address",
						"label": "mapping(address => mapping(address => uint256))",
						"numberOfBytes": "32",
						"value": "t_mapping(t_address,t_uint256)"
					},
					"t_mapping(t_address,t_string_storage)": {
						"encoding": "mapping",
						"key": "t_address",
						"label": "mapping(address => string)",
						"numberOfBytes": "32",
						"value": "t_string_storage"
					},
					"t_mapping(t_address,t_struct(structUser)24_storage)": {
						"encoding": "mapping",
						"key": "t_address",
						"label": "mapping(address => struct CryptoMonster.structUser)",
						"numberOfBytes": "32",
						"value": "t_struct(structUser)24_storage"
					},
					"t_mapping(t_address,t_uint256)": {
						"encoding": "mapping",
						"key": "t_address",
						"label": "mapping(address => uint256)",
						"numberOfBytes": "32",
						"value": "t_uint256"
					},
					"t_string_storage": {
						"encoding": "bytes",
						"label": "string",
						"numberOfBytes": "32"
					},
					"t_struct(structUser)24_storage": {
						"encoding": "inplace",
						"label": "struct CryptoMonster.structUser",
						"members": [
							{
								"astId": 19,
								"contract": "GitHub/contract-token-cryptoMonster/components/CryptoMonster.sol:CryptoMonster",
								"label": "login",
								"offset": 0,
								"slot": "0",
								"type": "t_string_storage"
							},
							{
								"astId": 21,
								"contract": "GitHub/contract-token-cryptoMonster/components/CryptoMonster.sol:CryptoMonster",
								"label": "password",
								"offset": 0,
								"slot": "1",
								"type": "t_bytes32"
							},
							{
								"astId": 23,
								"contract": "GitHub/contract-token-cryptoMonster/components/CryptoMonster.sol:CryptoMonster",
								"label": "balances",
								"offset": 0,
								"slot": "2",
								"type": "t_uint256"
							}
						],
						"numberOfBytes": "96"
					},
					"t_uint256": {
						"encoding": "inplace",
						"label": "uint256",
						"numberOfBytes": "32"
					}
				}
			},
			"userdoc": {
				"kind": "user",
				"methods": {},
				"version": 1
			}
		}
	}
}