{
	"Documents/GitHub/contract-token-cryptoMonster/backend/components/PhasePrivate.sol": {
		"PhasePrivate": {
			"abi": [
				{
					"inputs": [
						{
							"internalType": "bool",
							"name": "_changeStatus",
							"type": "bool"
						}
					],
					"name": "acceptApplication",
					"outputs": [],
					"stateMutability": "nonpayable",
					"type": "function"
				},
				{
					"inputs": [
						{
							"internalType": "string",
							"name": "_name",
							"type": "string"
						},
						{
							"internalType": "string",
							"name": "_contactForCommunication",
							"type": "string"
						},
						{
							"internalType": "address",
							"name": "_userAdr",
							"type": "address"
						}
					],
					"name": "application",
					"outputs": [],
					"stateMutability": "nonpayable",
					"type": "function"
				},
				{
					"inputs": [
						{
							"internalType": "string",
							"name": "_hash",
							"type": "string"
						}
					],
					"name": "get_keccak256",
					"outputs": [
						{
							"internalType": "bytes32",
							"name": "",
							"type": "bytes32"
						}
					],
					"stateMutability": "pure",
					"type": "function"
				},
				{
					"inputs": [],
					"name": "viewApplication",
					"outputs": [
						{
							"internalType": "address",
							"name": "",
							"type": "address"
						}
					],
					"stateMutability": "nonpayable",
					"type": "function"
				}
			],
			"devdoc": {
				"kind": "dev",
				"methods": {},
				"version": 1
			},
			"evm": {
				"assembly": "    /* \"Documents/GitHub/contract-token-cryptoMonster/backend/components/PhasePrivate.sol\":120:1223  contract PhasePrivate is modifireFunc {\r... */\n  mstore(0x40, 0x80)\n  callvalue\n  dup1\n  iszero\n  tag_1\n  jumpi\n  0x00\n  dup1\n  revert\ntag_1:\n  pop\n  dataSize(sub_0)\n  dup1\n  dataOffset(sub_0)\n  0x00\n  codecopy\n  0x00\n  return\nstop\n\nsub_0: assembly {\n        /* \"Documents/GitHub/contract-token-cryptoMonster/backend/components/PhasePrivate.sol\":120:1223  contract PhasePrivate is modifireFunc {\r... */\n      mstore(0x40, 0x80)\n      callvalue\n      dup1\n      iszero\n      tag_1\n      jumpi\n      0x00\n      dup1\n      revert\n    tag_1:\n      pop\n      jumpi(tag_2, lt(calldatasize, 0x04))\n      shr(0xe0, calldataload(0x00))\n      dup1\n      0x44b69405\n      eq\n      tag_3\n      jumpi\n      dup1\n      0x785963c3\n      eq\n      tag_4\n      jumpi\n      dup1\n      0x8e4f8c6b\n      eq\n      tag_5\n      jumpi\n      dup1\n      0x9d9e7a4b\n      eq\n      tag_6\n      jumpi\n    tag_2:\n      0x00\n      dup1\n      revert\n        /* \"Documents/GitHub/contract-token-cryptoMonster/backend/components/PhasePrivate.sol\":765:972  function viewApplication () public returns (address) {\r... */\n    tag_3:\n      tag_7\n      tag_8\n      jump\t// in\n    tag_7:\n      mload(0x40)\n      tag_9\n      swap2\n      swap1\n      tag_10\n      jump\t// in\n    tag_9:\n      mload(0x40)\n      dup1\n      swap2\n      sub\n      swap1\n      return\n        /* \"Documents/GitHub/contract-token-cryptoMonster/backend/components/PhasePrivate.sol\":256:683  function application(string memory _name, string memory _contactForCommunication, address _userAdr) public {\r... */\n    tag_4:\n      tag_11\n      0x04\n      dup1\n      calldatasize\n      sub\n      dup2\n      add\n      swap1\n      tag_12\n      swap2\n      swap1\n      tag_13\n      jump\t// in\n    tag_12:\n      tag_14\n      jump\t// in\n    tag_11:\n      stop\n        /* \"Documents/GitHub/contract-token-cryptoMonster/backend/shared/helpers/getFuncs.sol\":144:282  function get_keccak256(string memory _hash) public pure returns(bytes32) {\r... */\n    tag_5:\n      tag_15\n      0x04\n      dup1\n      calldatasize\n      sub\n      dup2\n      add\n      swap1\n      tag_16\n      swap2\n      swap1\n      tag_17\n      jump\t// in\n    tag_16:\n      tag_18\n      jump\t// in\n    tag_15:\n      mload(0x40)\n      tag_19\n      swap2\n      swap1\n      tag_20\n      jump\t// in\n    tag_19:\n      mload(0x40)\n      dup1\n      swap2\n      sub\n      swap1\n      return\n        /* \"Documents/GitHub/contract-token-cryptoMonster/backend/components/PhasePrivate.sol\":1048:1220  function acceptApplication (bool _changeStatus) public {\r... */\n    tag_6:\n      tag_21\n      0x04\n      dup1\n      calldatasize\n      sub\n      dup2\n      add\n      swap1\n      tag_22\n      swap2\n      swap1\n      tag_23\n      jump\t// in\n    tag_22:\n      tag_24\n      jump\t// in\n    tag_21:\n      stop\n        /* \"Documents/GitHub/contract-token-cryptoMonster/backend/components/PhasePrivate.sol\":765:972  function viewApplication () public returns (address) {\r... */\n    tag_8:\n        /* \"Documents/GitHub/contract-token-cryptoMonster/backend/components/PhasePrivate.sol\":809:816  address */\n      0x00\n        /* \"Documents/GitHub/contract-token-cryptoMonster/backend/components/PhasePrivate.sol\":870:889  Role.SYSTEM_PRIVATE */\n      0x02\n        /* \"Documents/GitHub/contract-token-cryptoMonster/backend/components/PhasePrivate.sol\":837:889  structUsers_[msg.sender].role == Role.SYSTEM_PRIVATE */\n      0x04\n      dup2\n      gt\n      iszero\n      tag_26\n      jumpi\n      tag_27\n      tag_28\n      jump\t// in\n    tag_27:\n    tag_26:\n        /* \"Documents/GitHub/contract-token-cryptoMonster/backend/components/PhasePrivate.sol\":837:849  structUsers_ */\n      0x00\n        /* \"Documents/GitHub/contract-token-cryptoMonster/backend/components/PhasePrivate.sol\":837:861  structUsers_[msg.sender] */\n      dup1\n        /* \"Documents/GitHub/contract-token-cryptoMonster/backend/components/PhasePrivate.sol\":850:860  msg.sender */\n      caller\n        /* \"Documents/GitHub/contract-token-cryptoMonster/backend/components/PhasePrivate.sol\":837:861  structUsers_[msg.sender] */\n      0xffffffffffffffffffffffffffffffffffffffff\n      and\n      0xffffffffffffffffffffffffffffffffffffffff\n      and\n      dup2\n      mstore\n      0x20\n      add\n      swap1\n      dup2\n      mstore\n      0x20\n      add\n      0x00\n      keccak256\n        /* \"Documents/GitHub/contract-token-cryptoMonster/backend/components/PhasePrivate.sol\":837:866  structUsers_[msg.sender].role */\n      0x00\n      add\n      0x00\n      swap1\n      sload\n      swap1\n      0x0100\n      exp\n      swap1\n      div\n      0xff\n      and\n        /* \"Documents/GitHub/contract-token-cryptoMonster/backend/components/PhasePrivate.sol\":837:889  structUsers_[msg.sender].role == Role.SYSTEM_PRIVATE */\n      0x04\n      dup2\n      gt\n      iszero\n      tag_29\n      jumpi\n      tag_30\n      tag_28\n      jump\t// in\n    tag_30:\n    tag_29:\n      eq\n        /* \"Documents/GitHub/contract-token-cryptoMonster/backend/components/PhasePrivate.sol\":829:925  require(structUsers_[msg.sender].role == Role.SYSTEM_PRIVATE, \"You are not a private provider!\") */\n      tag_31\n      jumpi\n      mload(0x40)\n      0x08c379a000000000000000000000000000000000000000000000000000000000\n      dup2\n      mstore\n      0x04\n      add\n      tag_32\n      swap1\n      tag_33\n      jump\t// in\n    tag_32:\n      mload(0x40)\n      dup1\n      swap2\n      sub\n      swap1\n      revert\n    tag_31:\n        /* \"Documents/GitHub/contract-token-cryptoMonster/backend/components/PhasePrivate.sol\":765:972  function viewApplication () public returns (address) {\r... */\n      swap1\n      jump\t// out\n        /* \"Documents/GitHub/contract-token-cryptoMonster/backend/components/PhasePrivate.sol\":256:683  function application(string memory _name, string memory _contactForCommunication, address _userAdr) public {\r... */\n    tag_14:\n        /* \"Documents/GitHub/contract-token-cryptoMonster/backend/components/PhasePrivate.sol\":422:426  true */\n      0x01\n        /* \"Documents/GitHub/contract-token-cryptoMonster/backend/components/PhasePrivate.sol\":382:426  strucApplications_[msg.sender].exist == true */\n      iszero\n      iszero\n        /* \"Documents/GitHub/contract-token-cryptoMonster/backend/components/PhasePrivate.sol\":382:400  strucApplications_ */\n      0x02\n        /* \"Documents/GitHub/contract-token-cryptoMonster/backend/components/PhasePrivate.sol\":382:412  strucApplications_[msg.sender] */\n      0x00\n        /* \"Documents/GitHub/contract-token-cryptoMonster/backend/components/PhasePrivate.sol\":401:411  msg.sender */\n      caller\n        /* \"Documents/GitHub/contract-token-cryptoMonster/backend/components/PhasePrivate.sol\":382:412  strucApplications_[msg.sender] */\n      0xffffffffffffffffffffffffffffffffffffffff\n      and\n      0xffffffffffffffffffffffffffffffffffffffff\n      and\n      dup2\n      mstore\n      0x20\n      add\n      swap1\n      dup2\n      mstore\n      0x20\n      add\n      0x00\n      keccak256\n        /* \"Documents/GitHub/contract-token-cryptoMonster/backend/components/PhasePrivate.sol\":382:418  strucApplications_[msg.sender].exist */\n      0x02\n      add\n      0x16\n      swap1\n      sload\n      swap1\n      0x0100\n      exp\n      swap1\n      div\n      0xff\n      and\n        /* \"Documents/GitHub/contract-token-cryptoMonster/backend/components/PhasePrivate.sol\":382:426  strucApplications_[msg.sender].exist == true */\n      iszero\n      iszero\n      eq\n        /* \"Documents/GitHub/contract-token-cryptoMonster/backend/components/PhasePrivate.sol\":374:456  require(strucApplications_[msg.sender].exist == true, \"Application already sent!\") */\n      tag_35\n      jumpi\n      mload(0x40)\n      0x08c379a000000000000000000000000000000000000000000000000000000000\n      dup2\n      mstore\n      0x04\n      add\n      tag_36\n      swap1\n      tag_37\n      jump\t// in\n    tag_36:\n      mload(0x40)\n      dup1\n      swap2\n      sub\n      swap1\n      revert\n    tag_35:\n        /* \"Documents/GitHub/contract-token-cryptoMonster/backend/components/PhasePrivate.sol\":596:675  structApplication(_name, _contactForCommunication, _userAdr, true, false, true) */\n      mload(0x40)\n      dup1\n      0xc0\n      add\n      0x40\n      mstore\n      dup1\n        /* \"Documents/GitHub/contract-token-cryptoMonster/backend/components/PhasePrivate.sol\":614:619  _name */\n      dup5\n        /* \"Documents/GitHub/contract-token-cryptoMonster/backend/components/PhasePrivate.sol\":596:675  structApplication(_name, _contactForCommunication, _userAdr, true, false, true) */\n      dup2\n      mstore\n      0x20\n      add\n        /* \"Documents/GitHub/contract-token-cryptoMonster/backend/components/PhasePrivate.sol\":621:645  _contactForCommunication */\n      dup4\n        /* \"Documents/GitHub/contract-token-cryptoMonster/backend/components/PhasePrivate.sol\":596:675  structApplication(_name, _contactForCommunication, _userAdr, true, false, true) */\n      dup2\n      mstore\n      0x20\n      add\n        /* \"Documents/GitHub/contract-token-cryptoMonster/backend/components/PhasePrivate.sol\":647:655  _userAdr */\n      dup3\n        /* \"Documents/GitHub/contract-token-cryptoMonster/backend/components/PhasePrivate.sol\":596:675  structApplication(_name, _contactForCommunication, _userAdr, true, false, true) */\n      0xffffffffffffffffffffffffffffffffffffffff\n      and\n      dup2\n      mstore\n      0x20\n      add\n        /* \"Documents/GitHub/contract-token-cryptoMonster/backend/components/PhasePrivate.sol\":657:661  true */\n      0x01\n        /* \"Documents/GitHub/contract-token-cryptoMonster/backend/components/PhasePrivate.sol\":596:675  structApplication(_name, _contactForCommunication, _userAdr, true, false, true) */\n      iszero\n      iszero\n      dup2\n      mstore\n      0x20\n      add\n        /* \"Documents/GitHub/contract-token-cryptoMonster/backend/components/PhasePrivate.sol\":663:668  false */\n      0x00\n        /* \"Documents/GitHub/contract-token-cryptoMonster/backend/components/PhasePrivate.sol\":596:675  structApplication(_name, _contactForCommunication, _userAdr, true, false, true) */\n      iszero\n      iszero\n      dup2\n      mstore\n      0x20\n      add\n        /* \"Documents/GitHub/contract-token-cryptoMonster/backend/components/PhasePrivate.sol\":670:674  true */\n      0x01\n        /* \"Documents/GitHub/contract-token-cryptoMonster/backend/components/PhasePrivate.sol\":596:675  structApplication(_name, _contactForCommunication, _userAdr, true, false, true) */\n      iszero\n      iszero\n      dup2\n      mstore\n      pop\n        /* \"Documents/GitHub/contract-token-cryptoMonster/backend/components/PhasePrivate.sol\":562:580  strucApplications_ */\n      0x02\n        /* \"Documents/GitHub/contract-token-cryptoMonster/backend/components/PhasePrivate.sol\":562:592  strucApplications_[msg.sender] */\n      0x00\n        /* \"Documents/GitHub/contract-token-cryptoMonster/backend/components/PhasePrivate.sol\":581:591  msg.sender */\n      caller\n        /* \"Documents/GitHub/contract-token-cryptoMonster/backend/components/PhasePrivate.sol\":562:592  strucApplications_[msg.sender] */\n      0xffffffffffffffffffffffffffffffffffffffff\n      and\n      0xffffffffffffffffffffffffffffffffffffffff\n      and\n      dup2\n      mstore\n      0x20\n      add\n      swap1\n      dup2\n      mstore\n      0x20\n      add\n      0x00\n      keccak256\n        /* \"Documents/GitHub/contract-token-cryptoMonster/backend/components/PhasePrivate.sol\":562:675  strucApplications_[msg.sender]  = structApplication(_name, _contactForCommunication, _userAdr, true, false, true) */\n      0x00\n      dup3\n      add\n      mload\n      dup2\n      0x00\n      add\n      swap1\n      dup1\n      mload\n      swap1\n      0x20\n      add\n      swap1\n      tag_38\n      swap3\n      swap2\n      swap1\n      tag_39\n      jump\t// in\n    tag_38:\n      pop\n      0x20\n      dup3\n      add\n      mload\n      dup2\n      0x01\n      add\n      swap1\n      dup1\n      mload\n      swap1\n      0x20\n      add\n      swap1\n      tag_40\n      swap3\n      swap2\n      swap1\n      tag_39\n      jump\t// in\n    tag_40:\n      pop\n      0x40\n      dup3\n      add\n      mload\n      dup2\n      0x02\n      add\n      exp(0x0100, 0x00)\n      dup2\n      sload\n      dup2\n      0xffffffffffffffffffffffffffffffffffffffff\n      mul\n      not\n      and\n      swap1\n      dup4\n      0xffffffffffffffffffffffffffffffffffffffff\n      and\n      mul\n      or\n      swap1\n      sstore\n      pop\n      0x60\n      dup3\n      add\n      mload\n      dup2\n      0x02\n      add\n      exp(0x0100, 0x14)\n      dup2\n      sload\n      dup2\n      0xff\n      mul\n      not\n      and\n      swap1\n      dup4\n      iszero\n      iszero\n      mul\n      or\n      swap1\n      sstore\n      pop\n      0x80\n      dup3\n      add\n      mload\n      dup2\n      0x02\n      add\n      exp(0x0100, 0x15)\n      dup2\n      sload\n      dup2\n      0xff\n      mul\n      not\n      and\n      swap1\n      dup4\n      iszero\n      iszero\n      mul\n      or\n      swap1\n      sstore\n      pop\n      0xa0\n      dup3\n      add\n      mload\n      dup2\n      0x02\n      add\n      exp(0x0100, 0x16)\n      dup2\n      sload\n      dup2\n      0xff\n      mul\n      not\n      and\n      swap1\n      dup4\n      iszero\n      iszero\n      mul\n      or\n      swap1\n      sstore\n      pop\n      swap1\n      pop\n      pop\n        /* \"Documents/GitHub/contract-token-cryptoMonster/backend/components/PhasePrivate.sol\":256:683  function application(string memory _name, string memory _contactForCommunication, address _userAdr) public {\r... */\n      pop\n      pop\n      pop\n      jump\t// out\n        /* \"Documents/GitHub/contract-token-cryptoMonster/backend/shared/helpers/getFuncs.sol\":144:282  function get_keccak256(string memory _hash) public pure returns(bytes32) {\r... */\n    tag_18:\n        /* \"Documents/GitHub/contract-token-cryptoMonster/backend/shared/helpers/getFuncs.sol\":208:215  bytes32 */\n      0x00\n        /* \"Documents/GitHub/contract-token-cryptoMonster/backend/shared/helpers/getFuncs.sol\":266:271  _hash */\n      dup2\n        /* \"Documents/GitHub/contract-token-cryptoMonster/backend/shared/helpers/getFuncs.sol\":249:272  abi.encodePacked(_hash) */\n      add(0x20, mload(0x40))\n      tag_42\n      swap2\n      swap1\n      tag_43\n      jump\t// in\n    tag_42:\n      mload(0x40)\n      0x20\n      dup2\n      dup4\n      sub\n      sub\n      dup2\n      mstore\n      swap1\n      0x40\n      mstore\n        /* \"Documents/GitHub/contract-token-cryptoMonster/backend/shared/helpers/getFuncs.sol\":239:273  keccak256(abi.encodePacked(_hash)) */\n      dup1\n      mload\n      swap1\n      0x20\n      add\n      keccak256\n        /* \"Documents/GitHub/contract-token-cryptoMonster/backend/shared/helpers/getFuncs.sol\":232:274  return(keccak256(abi.encodePacked(_hash))) */\n      swap1\n      pop\n        /* \"Documents/GitHub/contract-token-cryptoMonster/backend/shared/helpers/getFuncs.sol\":144:282  function get_keccak256(string memory _hash) public pure returns(bytes32) {\r... */\n      swap2\n      swap1\n      pop\n      jump\t// out\n        /* \"Documents/GitHub/contract-token-cryptoMonster/backend/components/PhasePrivate.sol\":1048:1220  function acceptApplication (bool _changeStatus) public {\r... */\n    tag_24:\n        /* \"Documents/GitHub/contract-token-cryptoMonster/backend/components/PhasePrivate.sol\":1155:1174  Role.SYSTEM_PRIVATE */\n      0x02\n        /* \"Documents/GitHub/contract-token-cryptoMonster/backend/components/PhasePrivate.sol\":1122:1174  structUsers_[msg.sender].role == Role.SYSTEM_PRIVATE */\n      0x04\n      dup2\n      gt\n      iszero\n      tag_45\n      jumpi\n      tag_46\n      tag_28\n      jump\t// in\n    tag_46:\n    tag_45:\n        /* \"Documents/GitHub/contract-token-cryptoMonster/backend/components/PhasePrivate.sol\":1122:1134  structUsers_ */\n      0x00\n        /* \"Documents/GitHub/contract-token-cryptoMonster/backend/components/PhasePrivate.sol\":1122:1146  structUsers_[msg.sender] */\n      dup1\n        /* \"Documents/GitHub/contract-token-cryptoMonster/backend/components/PhasePrivate.sol\":1135:1145  msg.sender */\n      caller\n        /* \"Documents/GitHub/contract-token-cryptoMonster/backend/components/PhasePrivate.sol\":1122:1146  structUsers_[msg.sender] */\n      0xffffffffffffffffffffffffffffffffffffffff\n      and\n      0xffffffffffffffffffffffffffffffffffffffff\n      and\n      dup2\n      mstore\n      0x20\n      add\n      swap1\n      dup2\n      mstore\n      0x20\n      add\n      0x00\n      keccak256\n        /* \"Documents/GitHub/contract-token-cryptoMonster/backend/components/PhasePrivate.sol\":1122:1151  structUsers_[msg.sender].role */\n      0x00\n      add\n      0x00\n      swap1\n      sload\n      swap1\n      0x0100\n      exp\n      swap1\n      div\n      0xff\n      and\n        /* \"Documents/GitHub/contract-token-cryptoMonster/backend/components/PhasePrivate.sol\":1122:1174  structUsers_[msg.sender].role == Role.SYSTEM_PRIVATE */\n      0x04\n      dup2\n      gt\n      iszero\n      tag_47\n      jumpi\n      tag_48\n      tag_28\n      jump\t// in\n    tag_48:\n    tag_47:\n      eq\n        /* \"Documents/GitHub/contract-token-cryptoMonster/backend/components/PhasePrivate.sol\":1114:1210  require(structUsers_[msg.sender].role == Role.SYSTEM_PRIVATE, \"You are not a private provider!\") */\n      tag_49\n      jumpi\n      mload(0x40)\n      0x08c379a000000000000000000000000000000000000000000000000000000000\n      dup2\n      mstore\n      0x04\n      add\n      tag_50\n      swap1\n      tag_33\n      jump\t// in\n    tag_50:\n      mload(0x40)\n      dup1\n      swap2\n      sub\n      swap1\n      revert\n    tag_49:\n        /* \"Documents/GitHub/contract-token-cryptoMonster/backend/components/PhasePrivate.sol\":1048:1220  function acceptApplication (bool _changeStatus) public {\r... */\n      pop\n      jump\t// out\n    tag_39:\n      dup3\n      dup1\n      sload\n      tag_51\n      swap1\n      tag_52\n      jump\t// in\n    tag_51:\n      swap1\n      0x00\n      mstore\n      keccak256(0x00, 0x20)\n      swap1\n      0x1f\n      add\n      0x20\n      swap1\n      div\n      dup2\n      add\n      swap3\n      dup3\n      tag_54\n      jumpi\n      0x00\n      dup6\n      sstore\n      jump(tag_53)\n    tag_54:\n      dup3\n      0x1f\n      lt\n      tag_55\n      jumpi\n      dup1\n      mload\n      not(0xff)\n      and\n      dup4\n      dup1\n      add\n      or\n      dup6\n      sstore\n      jump(tag_53)\n    tag_55:\n      dup3\n      dup1\n      add\n      0x01\n      add\n      dup6\n      sstore\n      dup3\n      iszero\n      tag_53\n      jumpi\n      swap2\n      dup3\n      add\n    tag_56:\n      dup3\n      dup2\n      gt\n      iszero\n      tag_57\n      jumpi\n      dup3\n      mload\n      dup3\n      sstore\n      swap2\n      0x20\n      add\n      swap2\n      swap1\n      0x01\n      add\n      swap1\n      jump(tag_56)\n    tag_57:\n    tag_53:\n      pop\n      swap1\n      pop\n      tag_58\n      swap2\n      swap1\n      tag_59\n      jump\t// in\n    tag_58:\n      pop\n      swap1\n      jump\t// out\n    tag_59:\n    tag_60:\n      dup1\n      dup3\n      gt\n      iszero\n      tag_61\n      jumpi\n      0x00\n      dup2\n      0x00\n      swap1\n      sstore\n      pop\n      0x01\n      add\n      jump(tag_60)\n    tag_61:\n      pop\n      swap1\n      jump\t// out\n        /* \"#utility.yul\":7:419   */\n    tag_63:\n        /* \"#utility.yul\":85:90   */\n      0x00\n        /* \"#utility.yul\":110:176   */\n      tag_65\n        /* \"#utility.yul\":126:175   */\n      tag_66\n        /* \"#utility.yul\":168:174   */\n      dup5\n        /* \"#utility.yul\":126:175   */\n      tag_67\n      jump\t// in\n    tag_66:\n        /* \"#utility.yul\":110:176   */\n      tag_68\n      jump\t// in\n    tag_65:\n        /* \"#utility.yul\":101:176   */\n      swap1\n      pop\n        /* \"#utility.yul\":199:205   */\n      dup3\n        /* \"#utility.yul\":192:197   */\n      dup2\n        /* \"#utility.yul\":185:206   */\n      mstore\n        /* \"#utility.yul\":237:241   */\n      0x20\n        /* \"#utility.yul\":230:235   */\n      dup2\n        /* \"#utility.yul\":226:242   */\n      add\n        /* \"#utility.yul\":275:278   */\n      dup5\n        /* \"#utility.yul\":266:272   */\n      dup5\n        /* \"#utility.yul\":261:264   */\n      dup5\n        /* \"#utility.yul\":257:273   */\n      add\n        /* \"#utility.yul\":254:279   */\n      gt\n        /* \"#utility.yul\":251:363   */\n      iszero\n      tag_69\n      jumpi\n        /* \"#utility.yul\":282:361   */\n      tag_70\n      tag_71\n      jump\t// in\n    tag_70:\n        /* \"#utility.yul\":251:363   */\n    tag_69:\n        /* \"#utility.yul\":372:413   */\n      tag_72\n        /* \"#utility.yul\":406:412   */\n      dup5\n        /* \"#utility.yul\":401:404   */\n      dup3\n        /* \"#utility.yul\":396:399   */\n      dup6\n        /* \"#utility.yul\":372:413   */\n      tag_73\n      jump\t// in\n    tag_72:\n        /* \"#utility.yul\":91:419   */\n      pop\n        /* \"#utility.yul\":7:419   */\n      swap4\n      swap3\n      pop\n      pop\n      pop\n      jump\t// out\n        /* \"#utility.yul\":425:564   */\n    tag_74:\n        /* \"#utility.yul\":471:476   */\n      0x00\n        /* \"#utility.yul\":509:515   */\n      dup2\n        /* \"#utility.yul\":496:516   */\n      calldataload\n        /* \"#utility.yul\":487:516   */\n      swap1\n      pop\n        /* \"#utility.yul\":525:558   */\n      tag_76\n        /* \"#utility.yul\":552:557   */\n      dup2\n        /* \"#utility.yul\":525:558   */\n      tag_77\n      jump\t// in\n    tag_76:\n        /* \"#utility.yul\":425:564   */\n      swap3\n      swap2\n      pop\n      pop\n      jump\t// out\n        /* \"#utility.yul\":570:703   */\n    tag_78:\n        /* \"#utility.yul\":613:618   */\n      0x00\n        /* \"#utility.yul\":651:657   */\n      dup2\n        /* \"#utility.yul\":638:658   */\n      calldataload\n        /* \"#utility.yul\":629:658   */\n      swap1\n      pop\n        /* \"#utility.yul\":667:697   */\n      tag_80\n        /* \"#utility.yul\":691:696   */\n      dup2\n        /* \"#utility.yul\":667:697   */\n      tag_81\n      jump\t// in\n    tag_80:\n        /* \"#utility.yul\":570:703   */\n      swap3\n      swap2\n      pop\n      pop\n      jump\t// out\n        /* \"#utility.yul\":723:1063   */\n    tag_82:\n        /* \"#utility.yul\":779:784   */\n      0x00\n        /* \"#utility.yul\":828:831   */\n      dup3\n        /* \"#utility.yul\":821:825   */\n      0x1f\n        /* \"#utility.yul\":813:819   */\n      dup4\n        /* \"#utility.yul\":809:826   */\n      add\n        /* \"#utility.yul\":805:832   */\n      slt\n        /* \"#utility.yul\":795:917   */\n      tag_84\n      jumpi\n        /* \"#utility.yul\":836:915   */\n      tag_85\n      tag_86\n      jump\t// in\n    tag_85:\n        /* \"#utility.yul\":795:917   */\n    tag_84:\n        /* \"#utility.yul\":953:959   */\n      dup2\n        /* \"#utility.yul\":940:960   */\n      calldataload\n        /* \"#utility.yul\":978:1057   */\n      tag_87\n        /* \"#utility.yul\":1053:1056   */\n      dup5\n        /* \"#utility.yul\":1045:1051   */\n      dup3\n        /* \"#utility.yul\":1038:1042   */\n      0x20\n        /* \"#utility.yul\":1030:1036   */\n      dup7\n        /* \"#utility.yul\":1026:1043   */\n      add\n        /* \"#utility.yul\":978:1057   */\n      tag_63\n      jump\t// in\n    tag_87:\n        /* \"#utility.yul\":969:1057   */\n      swap2\n      pop\n        /* \"#utility.yul\":785:1063   */\n      pop\n        /* \"#utility.yul\":723:1063   */\n      swap3\n      swap2\n      pop\n      pop\n      jump\t// out\n        /* \"#utility.yul\":1069:1392   */\n    tag_23:\n        /* \"#utility.yul\":1125:1131   */\n      0x00\n        /* \"#utility.yul\":1174:1176   */\n      0x20\n        /* \"#utility.yul\":1162:1171   */\n      dup3\n        /* \"#utility.yul\":1153:1160   */\n      dup5\n        /* \"#utility.yul\":1149:1172   */\n      sub\n        /* \"#utility.yul\":1145:1177   */\n      slt\n        /* \"#utility.yul\":1142:1261   */\n      iszero\n      tag_89\n      jumpi\n        /* \"#utility.yul\":1180:1259   */\n      tag_90\n      tag_91\n      jump\t// in\n    tag_90:\n        /* \"#utility.yul\":1142:1261   */\n    tag_89:\n        /* \"#utility.yul\":1300:1301   */\n      0x00\n        /* \"#utility.yul\":1325:1375   */\n      tag_92\n        /* \"#utility.yul\":1367:1374   */\n      dup5\n        /* \"#utility.yul\":1358:1364   */\n      dup3\n        /* \"#utility.yul\":1347:1356   */\n      dup6\n        /* \"#utility.yul\":1343:1365   */\n      add\n        /* \"#utility.yul\":1325:1375   */\n      tag_78\n      jump\t// in\n    tag_92:\n        /* \"#utility.yul\":1315:1375   */\n      swap2\n      pop\n        /* \"#utility.yul\":1271:1385   */\n      pop\n        /* \"#utility.yul\":1069:1392   */\n      swap3\n      swap2\n      pop\n      pop\n      jump\t// out\n        /* \"#utility.yul\":1398:1907   */\n    tag_17:\n        /* \"#utility.yul\":1467:1473   */\n      0x00\n        /* \"#utility.yul\":1516:1518   */\n      0x20\n        /* \"#utility.yul\":1504:1513   */\n      dup3\n        /* \"#utility.yul\":1495:1502   */\n      dup5\n        /* \"#utility.yul\":1491:1514   */\n      sub\n        /* \"#utility.yul\":1487:1519   */\n      slt\n        /* \"#utility.yul\":1484:1603   */\n      iszero\n      tag_94\n      jumpi\n        /* \"#utility.yul\":1522:1601   */\n      tag_95\n      tag_91\n      jump\t// in\n    tag_95:\n        /* \"#utility.yul\":1484:1603   */\n    tag_94:\n        /* \"#utility.yul\":1670:1671   */\n      0x00\n        /* \"#utility.yul\":1659:1668   */\n      dup3\n        /* \"#utility.yul\":1655:1672   */\n      add\n        /* \"#utility.yul\":1642:1673   */\n      calldataload\n        /* \"#utility.yul\":1700:1718   */\n      0xffffffffffffffff\n        /* \"#utility.yul\":1692:1698   */\n      dup2\n        /* \"#utility.yul\":1689:1719   */\n      gt\n        /* \"#utility.yul\":1686:1803   */\n      iszero\n      tag_96\n      jumpi\n        /* \"#utility.yul\":1722:1801   */\n      tag_97\n      tag_98\n      jump\t// in\n    tag_97:\n        /* \"#utility.yul\":1686:1803   */\n    tag_96:\n        /* \"#utility.yul\":1827:1890   */\n      tag_99\n        /* \"#utility.yul\":1882:1889   */\n      dup5\n        /* \"#utility.yul\":1873:1879   */\n      dup3\n        /* \"#utility.yul\":1862:1871   */\n      dup6\n        /* \"#utility.yul\":1858:1880   */\n      add\n        /* \"#utility.yul\":1827:1890   */\n      tag_82\n      jump\t// in\n    tag_99:\n        /* \"#utility.yul\":1817:1890   */\n      swap2\n      pop\n        /* \"#utility.yul\":1613:1900   */\n      pop\n        /* \"#utility.yul\":1398:1907   */\n      swap3\n      swap2\n      pop\n      pop\n      jump\t// out\n        /* \"#utility.yul\":1913:2892   */\n    tag_13:\n        /* \"#utility.yul\":2010:2016   */\n      0x00\n        /* \"#utility.yul\":2018:2024   */\n      dup1\n        /* \"#utility.yul\":2026:2032   */\n      0x00\n        /* \"#utility.yul\":2075:2077   */\n      0x60\n        /* \"#utility.yul\":2063:2072   */\n      dup5\n        /* \"#utility.yul\":2054:2061   */\n      dup7\n        /* \"#utility.yul\":2050:2073   */\n      sub\n        /* \"#utility.yul\":2046:2078   */\n      slt\n        /* \"#utility.yul\":2043:2162   */\n      iszero\n      tag_101\n      jumpi\n        /* \"#utility.yul\":2081:2160   */\n      tag_102\n      tag_91\n      jump\t// in\n    tag_102:\n        /* \"#utility.yul\":2043:2162   */\n    tag_101:\n        /* \"#utility.yul\":2229:2230   */\n      0x00\n        /* \"#utility.yul\":2218:2227   */\n      dup5\n        /* \"#utility.yul\":2214:2231   */\n      add\n        /* \"#utility.yul\":2201:2232   */\n      calldataload\n        /* \"#utility.yul\":2259:2277   */\n      0xffffffffffffffff\n        /* \"#utility.yul\":2251:2257   */\n      dup2\n        /* \"#utility.yul\":2248:2278   */\n      gt\n        /* \"#utility.yul\":2245:2362   */\n      iszero\n      tag_103\n      jumpi\n        /* \"#utility.yul\":2281:2360   */\n      tag_104\n      tag_98\n      jump\t// in\n    tag_104:\n        /* \"#utility.yul\":2245:2362   */\n    tag_103:\n        /* \"#utility.yul\":2386:2449   */\n      tag_105\n        /* \"#utility.yul\":2441:2448   */\n      dup7\n        /* \"#utility.yul\":2432:2438   */\n      dup3\n        /* \"#utility.yul\":2421:2430   */\n      dup8\n        /* \"#utility.yul\":2417:2439   */\n      add\n        /* \"#utility.yul\":2386:2449   */\n      tag_82\n      jump\t// in\n    tag_105:\n        /* \"#utility.yul\":2376:2449   */\n      swap4\n      pop\n        /* \"#utility.yul\":2172:2459   */\n      pop\n        /* \"#utility.yul\":2526:2528   */\n      0x20\n        /* \"#utility.yul\":2515:2524   */\n      dup5\n        /* \"#utility.yul\":2511:2529   */\n      add\n        /* \"#utility.yul\":2498:2530   */\n      calldataload\n        /* \"#utility.yul\":2557:2575   */\n      0xffffffffffffffff\n        /* \"#utility.yul\":2549:2555   */\n      dup2\n        /* \"#utility.yul\":2546:2576   */\n      gt\n        /* \"#utility.yul\":2543:2660   */\n      iszero\n      tag_106\n      jumpi\n        /* \"#utility.yul\":2579:2658   */\n      tag_107\n      tag_98\n      jump\t// in\n    tag_107:\n        /* \"#utility.yul\":2543:2660   */\n    tag_106:\n        /* \"#utility.yul\":2684:2747   */\n      tag_108\n        /* \"#utility.yul\":2739:2746   */\n      dup7\n        /* \"#utility.yul\":2730:2736   */\n      dup3\n        /* \"#utility.yul\":2719:2728   */\n      dup8\n        /* \"#utility.yul\":2715:2737   */\n      add\n        /* \"#utility.yul\":2684:2747   */\n      tag_82\n      jump\t// in\n    tag_108:\n        /* \"#utility.yul\":2674:2747   */\n      swap3\n      pop\n        /* \"#utility.yul\":2469:2757   */\n      pop\n        /* \"#utility.yul\":2796:2798   */\n      0x40\n        /* \"#utility.yul\":2822:2875   */\n      tag_109\n        /* \"#utility.yul\":2867:2874   */\n      dup7\n        /* \"#utility.yul\":2858:2864   */\n      dup3\n        /* \"#utility.yul\":2847:2856   */\n      dup8\n        /* \"#utility.yul\":2843:2865   */\n      add\n        /* \"#utility.yul\":2822:2875   */\n      tag_74\n      jump\t// in\n    tag_109:\n        /* \"#utility.yul\":2812:2875   */\n      swap2\n      pop\n        /* \"#utility.yul\":2767:2885   */\n      pop\n        /* \"#utility.yul\":1913:2892   */\n      swap3\n      pop\n      swap3\n      pop\n      swap3\n      jump\t// out\n        /* \"#utility.yul\":2898:3016   */\n    tag_110:\n        /* \"#utility.yul\":2985:3009   */\n      tag_112\n        /* \"#utility.yul\":3003:3008   */\n      dup2\n        /* \"#utility.yul\":2985:3009   */\n      tag_113\n      jump\t// in\n    tag_112:\n        /* \"#utility.yul\":2980:2983   */\n      dup3\n        /* \"#utility.yul\":2973:3010   */\n      mstore\n        /* \"#utility.yul\":2898:3016   */\n      pop\n      pop\n      jump\t// out\n        /* \"#utility.yul\":3022:3140   */\n    tag_114:\n        /* \"#utility.yul\":3109:3133   */\n      tag_116\n        /* \"#utility.yul\":3127:3132   */\n      dup2\n        /* \"#utility.yul\":3109:3133   */\n      tag_117\n      jump\t// in\n    tag_116:\n        /* \"#utility.yul\":3104:3107   */\n      dup3\n        /* \"#utility.yul\":3097:3134   */\n      mstore\n        /* \"#utility.yul\":3022:3140   */\n      pop\n      pop\n      jump\t// out\n        /* \"#utility.yul\":3146:3523   */\n    tag_118:\n        /* \"#utility.yul\":3252:3255   */\n      0x00\n        /* \"#utility.yul\":3280:3319   */\n      tag_120\n        /* \"#utility.yul\":3313:3318   */\n      dup3\n        /* \"#utility.yul\":3280:3319   */\n      tag_121\n      jump\t// in\n    tag_120:\n        /* \"#utility.yul\":3335:3424   */\n      tag_122\n        /* \"#utility.yul\":3417:3423   */\n      dup2\n        /* \"#utility.yul\":3412:3415   */\n      dup6\n        /* \"#utility.yul\":3335:3424   */\n      tag_123\n      jump\t// in\n    tag_122:\n        /* \"#utility.yul\":3328:3424   */\n      swap4\n      pop\n        /* \"#utility.yul\":3433:3485   */\n      tag_124\n        /* \"#utility.yul\":3478:3484   */\n      dup2\n        /* \"#utility.yul\":3473:3476   */\n      dup6\n        /* \"#utility.yul\":3466:3470   */\n      0x20\n        /* \"#utility.yul\":3459:3464   */\n      dup7\n        /* \"#utility.yul\":3455:3471   */\n      add\n        /* \"#utility.yul\":3433:3485   */\n      tag_125\n      jump\t// in\n    tag_124:\n        /* \"#utility.yul\":3510:3516   */\n      dup1\n        /* \"#utility.yul\":3505:3508   */\n      dup5\n        /* \"#utility.yul\":3501:3517   */\n      add\n        /* \"#utility.yul\":3494:3517   */\n      swap2\n      pop\n        /* \"#utility.yul\":3256:3523   */\n      pop\n        /* \"#utility.yul\":3146:3523   */\n      swap3\n      swap2\n      pop\n      pop\n      jump\t// out\n        /* \"#utility.yul\":3529:3895   */\n    tag_126:\n        /* \"#utility.yul\":3671:3674   */\n      0x00\n        /* \"#utility.yul\":3692:3759   */\n      tag_128\n        /* \"#utility.yul\":3756:3758   */\n      0x1f\n        /* \"#utility.yul\":3751:3754   */\n      dup4\n        /* \"#utility.yul\":3692:3759   */\n      tag_129\n      jump\t// in\n    tag_128:\n        /* \"#utility.yul\":3685:3759   */\n      swap2\n      pop\n        /* \"#utility.yul\":3768:3861   */\n      tag_130\n        /* \"#utility.yul\":3857:3860   */\n      dup3\n        /* \"#utility.yul\":3768:3861   */\n      tag_131\n      jump\t// in\n    tag_130:\n        /* \"#utility.yul\":3886:3888   */\n      0x20\n        /* \"#utility.yul\":3881:3884   */\n      dup3\n        /* \"#utility.yul\":3877:3889   */\n      add\n        /* \"#utility.yul\":3870:3889   */\n      swap1\n      pop\n        /* \"#utility.yul\":3529:3895   */\n      swap2\n      swap1\n      pop\n      jump\t// out\n        /* \"#utility.yul\":3901:4267   */\n    tag_132:\n        /* \"#utility.yul\":4043:4046   */\n      0x00\n        /* \"#utility.yul\":4064:4131   */\n      tag_134\n        /* \"#utility.yul\":4128:4130   */\n      0x19\n        /* \"#utility.yul\":4123:4126   */\n      dup4\n        /* \"#utility.yul\":4064:4131   */\n      tag_129\n      jump\t// in\n    tag_134:\n        /* \"#utility.yul\":4057:4131   */\n      swap2\n      pop\n        /* \"#utility.yul\":4140:4233   */\n      tag_135\n        /* \"#utility.yul\":4229:4232   */\n      dup3\n        /* \"#utility.yul\":4140:4233   */\n      tag_136\n      jump\t// in\n    tag_135:\n        /* \"#utility.yul\":4258:4260   */\n      0x20\n        /* \"#utility.yul\":4253:4256   */\n      dup3\n        /* \"#utility.yul\":4249:4261   */\n      add\n        /* \"#utility.yul\":4242:4261   */\n      swap1\n      pop\n        /* \"#utility.yul\":3901:4267   */\n      swap2\n      swap1\n      pop\n      jump\t// out\n        /* \"#utility.yul\":4273:4548   */\n    tag_43:\n        /* \"#utility.yul\":4405:4408   */\n      0x00\n        /* \"#utility.yul\":4427:4522   */\n      tag_138\n        /* \"#utility.yul\":4518:4521   */\n      dup3\n        /* \"#utility.yul\":4509:4515   */\n      dup5\n        /* \"#utility.yul\":4427:4522   */\n      tag_118\n      jump\t// in\n    tag_138:\n        /* \"#utility.yul\":4420:4522   */\n      swap2\n      pop\n        /* \"#utility.yul\":4539:4542   */\n      dup2\n        /* \"#utility.yul\":4532:4542   */\n      swap1\n      pop\n        /* \"#utility.yul\":4273:4548   */\n      swap3\n      swap2\n      pop\n      pop\n      jump\t// out\n        /* \"#utility.yul\":4554:4776   */\n    tag_10:\n        /* \"#utility.yul\":4647:4651   */\n      0x00\n        /* \"#utility.yul\":4685:4687   */\n      0x20\n        /* \"#utility.yul\":4674:4683   */\n      dup3\n        /* \"#utility.yul\":4670:4688   */\n      add\n        /* \"#utility.yul\":4662:4688   */\n      swap1\n      pop\n        /* \"#utility.yul\":4698:4769   */\n      tag_140\n        /* \"#utility.yul\":4766:4767   */\n      0x00\n        /* \"#utility.yul\":4755:4764   */\n      dup4\n        /* \"#utility.yul\":4751:4768   */\n      add\n        /* \"#utility.yul\":4742:4748   */\n      dup5\n        /* \"#utility.yul\":4698:4769   */\n      tag_110\n      jump\t// in\n    tag_140:\n        /* \"#utility.yul\":4554:4776   */\n      swap3\n      swap2\n      pop\n      pop\n      jump\t// out\n        /* \"#utility.yul\":4782:5004   */\n    tag_20:\n        /* \"#utility.yul\":4875:4879   */\n      0x00\n        /* \"#utility.yul\":4913:4915   */\n      0x20\n        /* \"#utility.yul\":4902:4911   */\n      dup3\n        /* \"#utility.yul\":4898:4916   */\n      add\n        /* \"#utility.yul\":4890:4916   */\n      swap1\n      pop\n        /* \"#utility.yul\":4926:4997   */\n      tag_142\n        /* \"#utility.yul\":4994:4995   */\n      0x00\n        /* \"#utility.yul\":4983:4992   */\n      dup4\n        /* \"#utility.yul\":4979:4996   */\n      add\n        /* \"#utility.yul\":4970:4976   */\n      dup5\n        /* \"#utility.yul\":4926:4997   */\n      tag_114\n      jump\t// in\n    tag_142:\n        /* \"#utility.yul\":4782:5004   */\n      swap3\n      swap2\n      pop\n      pop\n      jump\t// out\n        /* \"#utility.yul\":5010:5429   */\n    tag_33:\n        /* \"#utility.yul\":5176:5180   */\n      0x00\n        /* \"#utility.yul\":5214:5216   */\n      0x20\n        /* \"#utility.yul\":5203:5212   */\n      dup3\n        /* \"#utility.yul\":5199:5217   */\n      add\n        /* \"#utility.yul\":5191:5217   */\n      swap1\n      pop\n        /* \"#utility.yul\":5263:5272   */\n      dup2\n        /* \"#utility.yul\":5257:5261   */\n      dup2\n        /* \"#utility.yul\":5253:5273   */\n      sub\n        /* \"#utility.yul\":5249:5250   */\n      0x00\n        /* \"#utility.yul\":5238:5247   */\n      dup4\n        /* \"#utility.yul\":5234:5251   */\n      add\n        /* \"#utility.yul\":5227:5274   */\n      mstore\n        /* \"#utility.yul\":5291:5422   */\n      tag_144\n        /* \"#utility.yul\":5417:5421   */\n      dup2\n        /* \"#utility.yul\":5291:5422   */\n      tag_126\n      jump\t// in\n    tag_144:\n        /* \"#utility.yul\":5283:5422   */\n      swap1\n      pop\n        /* \"#utility.yul\":5010:5429   */\n      swap2\n      swap1\n      pop\n      jump\t// out\n        /* \"#utility.yul\":5435:5854   */\n    tag_37:\n        /* \"#utility.yul\":5601:5605   */\n      0x00\n        /* \"#utility.yul\":5639:5641   */\n      0x20\n        /* \"#utility.yul\":5628:5637   */\n      dup3\n        /* \"#utility.yul\":5624:5642   */\n      add\n        /* \"#utility.yul\":5616:5642   */\n      swap1\n      pop\n        /* \"#utility.yul\":5688:5697   */\n      dup2\n        /* \"#utility.yul\":5682:5686   */\n      dup2\n        /* \"#utility.yul\":5678:5698   */\n      sub\n        /* \"#utility.yul\":5674:5675   */\n      0x00\n        /* \"#utility.yul\":5663:5672   */\n      dup4\n        /* \"#utility.yul\":5659:5676   */\n      add\n        /* \"#utility.yul\":5652:5699   */\n      mstore\n        /* \"#utility.yul\":5716:5847   */\n      tag_146\n        /* \"#utility.yul\":5842:5846   */\n      dup2\n        /* \"#utility.yul\":5716:5847   */\n      tag_132\n      jump\t// in\n    tag_146:\n        /* \"#utility.yul\":5708:5847   */\n      swap1\n      pop\n        /* \"#utility.yul\":5435:5854   */\n      swap2\n      swap1\n      pop\n      jump\t// out\n        /* \"#utility.yul\":5860:5989   */\n    tag_68:\n        /* \"#utility.yul\":5894:5900   */\n      0x00\n        /* \"#utility.yul\":5921:5941   */\n      tag_148\n      tag_149\n      jump\t// in\n    tag_148:\n        /* \"#utility.yul\":5911:5941   */\n      swap1\n      pop\n        /* \"#utility.yul\":5950:5983   */\n      tag_150\n        /* \"#utility.yul\":5978:5982   */\n      dup3\n        /* \"#utility.yul\":5970:5976   */\n      dup3\n        /* \"#utility.yul\":5950:5983   */\n      tag_151\n      jump\t// in\n    tag_150:\n        /* \"#utility.yul\":5860:5989   */\n      swap2\n      swap1\n      pop\n      jump\t// out\n        /* \"#utility.yul\":5995:6070   */\n    tag_149:\n        /* \"#utility.yul\":6028:6034   */\n      0x00\n        /* \"#utility.yul\":6061:6063   */\n      0x40\n        /* \"#utility.yul\":6055:6064   */\n      mload\n        /* \"#utility.yul\":6045:6064   */\n      swap1\n      pop\n        /* \"#utility.yul\":5995:6070   */\n      swap1\n      jump\t// out\n        /* \"#utility.yul\":6076:6384   */\n    tag_67:\n        /* \"#utility.yul\":6138:6142   */\n      0x00\n        /* \"#utility.yul\":6228:6246   */\n      0xffffffffffffffff\n        /* \"#utility.yul\":6220:6226   */\n      dup3\n        /* \"#utility.yul\":6217:6247   */\n      gt\n        /* \"#utility.yul\":6214:6270   */\n      iszero\n      tag_154\n      jumpi\n        /* \"#utility.yul\":6250:6268   */\n      tag_155\n      tag_156\n      jump\t// in\n    tag_155:\n        /* \"#utility.yul\":6214:6270   */\n    tag_154:\n        /* \"#utility.yul\":6288:6317   */\n      tag_157\n        /* \"#utility.yul\":6310:6316   */\n      dup3\n        /* \"#utility.yul\":6288:6317   */\n      tag_158\n      jump\t// in\n    tag_157:\n        /* \"#utility.yul\":6280:6317   */\n      swap1\n      pop\n        /* \"#utility.yul\":6372:6376   */\n      0x20\n        /* \"#utility.yul\":6366:6370   */\n      dup2\n        /* \"#utility.yul\":6362:6377   */\n      add\n        /* \"#utility.yul\":6354:6377   */\n      swap1\n      pop\n        /* \"#utility.yul\":6076:6384   */\n      swap2\n      swap1\n      pop\n      jump\t// out\n        /* \"#utility.yul\":6390:6489   */\n    tag_121:\n        /* \"#utility.yul\":6442:6448   */\n      0x00\n        /* \"#utility.yul\":6476:6481   */\n      dup2\n        /* \"#utility.yul\":6470:6482   */\n      mload\n        /* \"#utility.yul\":6460:6482   */\n      swap1\n      pop\n        /* \"#utility.yul\":6390:6489   */\n      swap2\n      swap1\n      pop\n      jump\t// out\n        /* \"#utility.yul\":6495:6664   */\n    tag_129:\n        /* \"#utility.yul\":6579:6590   */\n      0x00\n        /* \"#utility.yul\":6613:6619   */\n      dup3\n        /* \"#utility.yul\":6608:6611   */\n      dup3\n        /* \"#utility.yul\":6601:6620   */\n      mstore\n        /* \"#utility.yul\":6653:6657   */\n      0x20\n        /* \"#utility.yul\":6648:6651   */\n      dup3\n        /* \"#utility.yul\":6644:6658   */\n      add\n        /* \"#utility.yul\":6629:6658   */\n      swap1\n      pop\n        /* \"#utility.yul\":6495:6664   */\n      swap3\n      swap2\n      pop\n      pop\n      jump\t// out\n        /* \"#utility.yul\":6670:6818   */\n    tag_123:\n        /* \"#utility.yul\":6772:6783   */\n      0x00\n        /* \"#utility.yul\":6809:6812   */\n      dup2\n        /* \"#utility.yul\":6794:6812   */\n      swap1\n      pop\n        /* \"#utility.yul\":6670:6818   */\n      swap3\n      swap2\n      pop\n      pop\n      jump\t// out\n        /* \"#utility.yul\":6824:6920   */\n    tag_113:\n        /* \"#utility.yul\":6861:6868   */\n      0x00\n        /* \"#utility.yul\":6890:6914   */\n      tag_163\n        /* \"#utility.yul\":6908:6913   */\n      dup3\n        /* \"#utility.yul\":6890:6914   */\n      tag_164\n      jump\t// in\n    tag_163:\n        /* \"#utility.yul\":6879:6914   */\n      swap1\n      pop\n        /* \"#utility.yul\":6824:6920   */\n      swap2\n      swap1\n      pop\n      jump\t// out\n        /* \"#utility.yul\":6926:7016   */\n    tag_165:\n        /* \"#utility.yul\":6960:6967   */\n      0x00\n        /* \"#utility.yul\":7003:7008   */\n      dup2\n        /* \"#utility.yul\":6996:7009   */\n      iszero\n        /* \"#utility.yul\":6989:7010   */\n      iszero\n        /* \"#utility.yul\":6978:7010   */\n      swap1\n      pop\n        /* \"#utility.yul\":6926:7016   */\n      swap2\n      swap1\n      pop\n      jump\t// out\n        /* \"#utility.yul\":7022:7099   */\n    tag_117:\n        /* \"#utility.yul\":7059:7066   */\n      0x00\n        /* \"#utility.yul\":7088:7093   */\n      dup2\n        /* \"#utility.yul\":7077:7093   */\n      swap1\n      pop\n        /* \"#utility.yul\":7022:7099   */\n      swap2\n      swap1\n      pop\n      jump\t// out\n        /* \"#utility.yul\":7105:7231   */\n    tag_164:\n        /* \"#utility.yul\":7142:7149   */\n      0x00\n        /* \"#utility.yul\":7182:7224   */\n      0xffffffffffffffffffffffffffffffffffffffff\n        /* \"#utility.yul\":7175:7180   */\n      dup3\n        /* \"#utility.yul\":7171:7225   */\n      and\n        /* \"#utility.yul\":7160:7225   */\n      swap1\n      pop\n        /* \"#utility.yul\":7105:7231   */\n      swap2\n      swap1\n      pop\n      jump\t// out\n        /* \"#utility.yul\":7237:7391   */\n    tag_73:\n        /* \"#utility.yul\":7321:7327   */\n      dup3\n        /* \"#utility.yul\":7316:7319   */\n      dup2\n        /* \"#utility.yul\":7311:7314   */\n      dup4\n        /* \"#utility.yul\":7298:7328   */\n      calldatacopy\n        /* \"#utility.yul\":7383:7384   */\n      0x00\n        /* \"#utility.yul\":7374:7380   */\n      dup4\n        /* \"#utility.yul\":7369:7372   */\n      dup4\n        /* \"#utility.yul\":7365:7381   */\n      add\n        /* \"#utility.yul\":7358:7385   */\n      mstore\n        /* \"#utility.yul\":7237:7391   */\n      pop\n      pop\n      pop\n      jump\t// out\n        /* \"#utility.yul\":7397:7704   */\n    tag_125:\n        /* \"#utility.yul\":7465:7466   */\n      0x00\n        /* \"#utility.yul\":7475:7588   */\n    tag_171:\n        /* \"#utility.yul\":7489:7495   */\n      dup4\n        /* \"#utility.yul\":7486:7487   */\n      dup2\n        /* \"#utility.yul\":7483:7496   */\n      lt\n        /* \"#utility.yul\":7475:7588   */\n      iszero\n      tag_173\n      jumpi\n        /* \"#utility.yul\":7574:7575   */\n      dup1\n        /* \"#utility.yul\":7569:7572   */\n      dup3\n        /* \"#utility.yul\":7565:7576   */\n      add\n        /* \"#utility.yul\":7559:7577   */\n      mload\n        /* \"#utility.yul\":7555:7556   */\n      dup2\n        /* \"#utility.yul\":7550:7553   */\n      dup5\n        /* \"#utility.yul\":7546:7557   */\n      add\n        /* \"#utility.yul\":7539:7578   */\n      mstore\n        /* \"#utility.yul\":7511:7513   */\n      0x20\n        /* \"#utility.yul\":7508:7509   */\n      dup2\n        /* \"#utility.yul\":7504:7514   */\n      add\n        /* \"#utility.yul\":7499:7514   */\n      swap1\n      pop\n        /* \"#utility.yul\":7475:7588   */\n      jump(tag_171)\n    tag_173:\n        /* \"#utility.yul\":7606:7612   */\n      dup4\n        /* \"#utility.yul\":7603:7604   */\n      dup2\n        /* \"#utility.yul\":7600:7613   */\n      gt\n        /* \"#utility.yul\":7597:7698   */\n      iszero\n      tag_174\n      jumpi\n        /* \"#utility.yul\":7686:7687   */\n      0x00\n        /* \"#utility.yul\":7677:7683   */\n      dup5\n        /* \"#utility.yul\":7672:7675   */\n      dup5\n        /* \"#utility.yul\":7668:7684   */\n      add\n        /* \"#utility.yul\":7661:7688   */\n      mstore\n        /* \"#utility.yul\":7597:7698   */\n    tag_174:\n        /* \"#utility.yul\":7446:7704   */\n      pop\n        /* \"#utility.yul\":7397:7704   */\n      pop\n      pop\n      pop\n      jump\t// out\n        /* \"#utility.yul\":7710:8030   */\n    tag_52:\n        /* \"#utility.yul\":7754:7760   */\n      0x00\n        /* \"#utility.yul\":7791:7792   */\n      0x02\n        /* \"#utility.yul\":7785:7789   */\n      dup3\n        /* \"#utility.yul\":7781:7793   */\n      div\n        /* \"#utility.yul\":7771:7793   */\n      swap1\n      pop\n        /* \"#utility.yul\":7838:7839   */\n      0x01\n        /* \"#utility.yul\":7832:7836   */\n      dup3\n        /* \"#utility.yul\":7828:7840   */\n      and\n        /* \"#utility.yul\":7859:7877   */\n      dup1\n        /* \"#utility.yul\":7849:7930   */\n      tag_176\n      jumpi\n        /* \"#utility.yul\":7915:7919   */\n      0x7f\n        /* \"#utility.yul\":7907:7913   */\n      dup3\n        /* \"#utility.yul\":7903:7920   */\n      and\n        /* \"#utility.yul\":7893:7920   */\n      swap2\n      pop\n        /* \"#utility.yul\":7849:7930   */\n    tag_176:\n        /* \"#utility.yul\":7977:7979   */\n      0x20\n        /* \"#utility.yul\":7969:7975   */\n      dup3\n        /* \"#utility.yul\":7966:7980   */\n      lt\n        /* \"#utility.yul\":7946:7964   */\n      dup2\n        /* \"#utility.yul\":7943:7981   */\n      eq\n        /* \"#utility.yul\":7940:8024   */\n      iszero\n      tag_177\n      jumpi\n        /* \"#utility.yul\":7996:8014   */\n      tag_178\n      tag_179\n      jump\t// in\n    tag_178:\n        /* \"#utility.yul\":7940:8024   */\n    tag_177:\n        /* \"#utility.yul\":7761:8030   */\n      pop\n        /* \"#utility.yul\":7710:8030   */\n      swap2\n      swap1\n      pop\n      jump\t// out\n        /* \"#utility.yul\":8036:8317   */\n    tag_151:\n        /* \"#utility.yul\":8119:8146   */\n      tag_181\n        /* \"#utility.yul\":8141:8145   */\n      dup3\n        /* \"#utility.yul\":8119:8146   */\n      tag_158\n      jump\t// in\n    tag_181:\n        /* \"#utility.yul\":8111:8117   */\n      dup2\n        /* \"#utility.yul\":8107:8147   */\n      add\n        /* \"#utility.yul\":8249:8255   */\n      dup2\n        /* \"#utility.yul\":8237:8247   */\n      dup2\n        /* \"#utility.yul\":8234:8256   */\n      lt\n        /* \"#utility.yul\":8213:8231   */\n      0xffffffffffffffff\n        /* \"#utility.yul\":8201:8211   */\n      dup3\n        /* \"#utility.yul\":8198:8232   */\n      gt\n        /* \"#utility.yul\":8195:8257   */\n      or\n        /* \"#utility.yul\":8192:8280   */\n      iszero\n      tag_182\n      jumpi\n        /* \"#utility.yul\":8260:8278   */\n      tag_183\n      tag_156\n      jump\t// in\n    tag_183:\n        /* \"#utility.yul\":8192:8280   */\n    tag_182:\n        /* \"#utility.yul\":8300:8310   */\n      dup1\n        /* \"#utility.yul\":8296:8298   */\n      0x40\n        /* \"#utility.yul\":8289:8311   */\n      mstore\n        /* \"#utility.yul\":8079:8317   */\n      pop\n        /* \"#utility.yul\":8036:8317   */\n      pop\n      pop\n      jump\t// out\n        /* \"#utility.yul\":8323:8503   */\n    tag_28:\n        /* \"#utility.yul\":8371:8448   */\n      0x4e487b7100000000000000000000000000000000000000000000000000000000\n        /* \"#utility.yul\":8368:8369   */\n      0x00\n        /* \"#utility.yul\":8361:8449   */\n      mstore\n        /* \"#utility.yul\":8468:8472   */\n      0x21\n        /* \"#utility.yul\":8465:8466   */\n      0x04\n        /* \"#utility.yul\":8458:8473   */\n      mstore\n        /* \"#utility.yul\":8492:8496   */\n      0x24\n        /* \"#utility.yul\":8489:8490   */\n      0x00\n        /* \"#utility.yul\":8482:8497   */\n      revert\n        /* \"#utility.yul\":8509:8689   */\n    tag_179:\n        /* \"#utility.yul\":8557:8634   */\n      0x4e487b7100000000000000000000000000000000000000000000000000000000\n        /* \"#utility.yul\":8554:8555   */\n      0x00\n        /* \"#utility.yul\":8547:8635   */\n      mstore\n        /* \"#utility.yul\":8654:8658   */\n      0x22\n        /* \"#utility.yul\":8651:8652   */\n      0x04\n        /* \"#utility.yul\":8644:8659   */\n      mstore\n        /* \"#utility.yul\":8678:8682   */\n      0x24\n        /* \"#utility.yul\":8675:8676   */\n      0x00\n        /* \"#utility.yul\":8668:8683   */\n      revert\n        /* \"#utility.yul\":8695:8875   */\n    tag_156:\n        /* \"#utility.yul\":8743:8820   */\n      0x4e487b7100000000000000000000000000000000000000000000000000000000\n        /* \"#utility.yul\":8740:8741   */\n      0x00\n        /* \"#utility.yul\":8733:8821   */\n      mstore\n        /* \"#utility.yul\":8840:8844   */\n      0x41\n        /* \"#utility.yul\":8837:8838   */\n      0x04\n        /* \"#utility.yul\":8830:8845   */\n      mstore\n        /* \"#utility.yul\":8864:8868   */\n      0x24\n        /* \"#utility.yul\":8861:8862   */\n      0x00\n        /* \"#utility.yul\":8854:8869   */\n      revert\n        /* \"#utility.yul\":8881:8998   */\n    tag_86:\n        /* \"#utility.yul\":8990:8991   */\n      0x00\n        /* \"#utility.yul\":8987:8988   */\n      dup1\n        /* \"#utility.yul\":8980:8992   */\n      revert\n        /* \"#utility.yul\":9004:9121   */\n    tag_71:\n        /* \"#utility.yul\":9113:9114   */\n      0x00\n        /* \"#utility.yul\":9110:9111   */\n      dup1\n        /* \"#utility.yul\":9103:9115   */\n      revert\n        /* \"#utility.yul\":9127:9244   */\n    tag_98:\n        /* \"#utility.yul\":9236:9237   */\n      0x00\n        /* \"#utility.yul\":9233:9234   */\n      dup1\n        /* \"#utility.yul\":9226:9238   */\n      revert\n        /* \"#utility.yul\":9250:9367   */\n    tag_91:\n        /* \"#utility.yul\":9359:9360   */\n      0x00\n        /* \"#utility.yul\":9356:9357   */\n      dup1\n        /* \"#utility.yul\":9349:9361   */\n      revert\n        /* \"#utility.yul\":9373:9475   */\n    tag_158:\n        /* \"#utility.yul\":9414:9420   */\n      0x00\n        /* \"#utility.yul\":9465:9467   */\n      0x1f\n        /* \"#utility.yul\":9461:9468   */\n      not\n        /* \"#utility.yul\":9456:9458   */\n      0x1f\n        /* \"#utility.yul\":9449:9454   */\n      dup4\n        /* \"#utility.yul\":9445:9459   */\n      add\n        /* \"#utility.yul\":9441:9469   */\n      and\n        /* \"#utility.yul\":9431:9469   */\n      swap1\n      pop\n        /* \"#utility.yul\":9373:9475   */\n      swap2\n      swap1\n      pop\n      jump\t// out\n        /* \"#utility.yul\":9481:9662   */\n    tag_131:\n        /* \"#utility.yul\":9621:9654   */\n      0x596f7520617265206e6f74206120707269766174652070726f76696465722100\n        /* \"#utility.yul\":9617:9618   */\n      0x00\n        /* \"#utility.yul\":9609:9615   */\n      dup3\n        /* \"#utility.yul\":9605:9619   */\n      add\n        /* \"#utility.yul\":9598:9655   */\n      mstore\n        /* \"#utility.yul\":9481:9662   */\n      pop\n      jump\t// out\n        /* \"#utility.yul\":9668:9843   */\n    tag_136:\n        /* \"#utility.yul\":9808:9835   */\n      0x4170706c69636174696f6e20616c72656164792073656e742100000000000000\n        /* \"#utility.yul\":9804:9805   */\n      0x00\n        /* \"#utility.yul\":9796:9802   */\n      dup3\n        /* \"#utility.yul\":9792:9806   */\n      add\n        /* \"#utility.yul\":9785:9836   */\n      mstore\n        /* \"#utility.yul\":9668:9843   */\n      pop\n      jump\t// out\n        /* \"#utility.yul\":9849:9971   */\n    tag_77:\n        /* \"#utility.yul\":9922:9946   */\n      tag_195\n        /* \"#utility.yul\":9940:9945   */\n      dup2\n        /* \"#utility.yul\":9922:9946   */\n      tag_113\n      jump\t// in\n    tag_195:\n        /* \"#utility.yul\":9915:9920   */\n      dup2\n        /* \"#utility.yul\":9912:9947   */\n      eq\n        /* \"#utility.yul\":9902:9965   */\n      tag_196\n      jumpi\n        /* \"#utility.yul\":9961:9962   */\n      0x00\n        /* \"#utility.yul\":9958:9959   */\n      dup1\n        /* \"#utility.yul\":9951:9963   */\n      revert\n        /* \"#utility.yul\":9902:9965   */\n    tag_196:\n        /* \"#utility.yul\":9849:9971   */\n      pop\n      jump\t// out\n        /* \"#utility.yul\":9977:10093   */\n    tag_81:\n        /* \"#utility.yul\":10047:10068   */\n      tag_198\n        /* \"#utility.yul\":10062:10067   */\n      dup2\n        /* \"#utility.yul\":10047:10068   */\n      tag_165\n      jump\t// in\n    tag_198:\n        /* \"#utility.yul\":10040:10045   */\n      dup2\n        /* \"#utility.yul\":10037:10069   */\n      eq\n        /* \"#utility.yul\":10027:10087   */\n      tag_199\n      jumpi\n        /* \"#utility.yul\":10083:10084   */\n      0x00\n        /* \"#utility.yul\":10080:10081   */\n      dup1\n        /* \"#utility.yul\":10073:10085   */\n      revert\n        /* \"#utility.yul\":10027:10087   */\n    tag_199:\n        /* \"#utility.yul\":9977:10093   */\n      pop\n      jump\t// out\n\n    auxdata: 0xa2646970667358221220fca41c99cce6f92fa7995df778508e4fbe9cb7bb851368f9831ea7a9bb6284fc64736f6c63430008070033\n}\n",
				"bytecode": {
					"linkReferences": {},
					"object": "608060405234801561001057600080fd5b50610ab5806100206000396000f3fe608060405234801561001057600080fd5b506004361061004c5760003560e01c806344b6940514610051578063785963c31461006f5780638e4f8c6b1461008b5780639d9e7a4b146100bb575b600080fd5b6100596100d7565b604051610066919061076d565b60405180910390f35b61008960048036038101906100849190610636565b610191565b005b6100a560048036038101906100a091906105ed565b61039b565b6040516100b29190610788565b60405180910390f35b6100d560048036038101906100d091906105c0565b6103cb565b005b6000600260048111156100ed576100ec61094d565b5b6000803373ffffffffffffffffffffffffffffffffffffffff1673ffffffffffffffffffffffffffffffffffffffff16815260200190815260200160002060000160009054906101000a900460ff16600481111561014e5761014d61094d565b5b1461018e576040517f08c379a0000000000000000000000000000000000000000000000000000000008152600401610185906107a3565b60405180910390fd5b90565b60011515600260003373ffffffffffffffffffffffffffffffffffffffff1673ffffffffffffffffffffffffffffffffffffffff16815260200190815260200160002060020160169054906101000a900460ff16151514610227576040517f08c379a000000000000000000000000000000000000000000000000000000000815260040161021e906107c3565b60405180910390fd5b6040518060c001604052808481526020018381526020018273ffffffffffffffffffffffffffffffffffffffff16815260200160011515815260200160001515815260200160011515815250600260003373ffffffffffffffffffffffffffffffffffffffff1673ffffffffffffffffffffffffffffffffffffffff16815260200190815260200160002060008201518160000190805190602001906102ce929190610483565b5060208201518160010190805190602001906102eb929190610483565b5060408201518160020160006101000a81548173ffffffffffffffffffffffffffffffffffffffff021916908373ffffffffffffffffffffffffffffffffffffffff16021790555060608201518160020160146101000a81548160ff02191690831515021790555060808201518160020160156101000a81548160ff02191690831515021790555060a08201518160020160166101000a81548160ff021916908315150217905550905050505050565b6000816040516020016103ae9190610756565b604051602081830303815290604052805190602001209050919050565b600260048111156103df576103de61094d565b5b6000803373ffffffffffffffffffffffffffffffffffffffff1673ffffffffffffffffffffffffffffffffffffffff16815260200190815260200160002060000160009054906101000a900460ff1660048111156104405761043f61094d565b5b14610480576040517f08c379a0000000000000000000000000000000000000000000000000000000008152600401610477906107a3565b60405180910390fd5b50565b82805461048f906108ea565b90600052602060002090601f0160209004810192826104b157600085556104f8565b82601f106104ca57805160ff19168380011785556104f8565b828001600101855582156104f8579182015b828111156104f75782518255916020019190600101906104dc565b5b5090506105059190610509565b5090565b5b8082111561052257600081600090555060010161050a565b5090565b600061053961053484610808565b6107e3565b905082815260208101848484011115610555576105546109df565b5b6105608482856108a8565b509392505050565b60008135905061057781610a51565b92915050565b60008135905061058c81610a68565b92915050565b600082601f8301126105a7576105a66109da565b5b81356105b7848260208601610526565b91505092915050565b6000602082840312156105d6576105d56109e9565b5b60006105e48482850161057d565b91505092915050565b600060208284031215610603576106026109e9565b5b600082013567ffffffffffffffff811115610621576106206109e4565b5b61062d84828501610592565b91505092915050565b60008060006060848603121561064f5761064e6109e9565b5b600084013567ffffffffffffffff81111561066d5761066c6109e4565b5b61067986828701610592565b935050602084013567ffffffffffffffff81111561069a576106996109e4565b5b6106a686828701610592565b92505060406106b786828701610568565b9150509250925092565b6106ca81610860565b82525050565b6106d98161087e565b82525050565b60006106ea82610839565b6106f48185610855565b93506107048185602086016108b7565b80840191505092915050565b600061071d601f83610844565b9150610728826109ff565b602082019050919050565b6000610740601983610844565b915061074b82610a28565b602082019050919050565b600061076282846106df565b915081905092915050565b600060208201905061078260008301846106c1565b92915050565b600060208201905061079d60008301846106d0565b92915050565b600060208201905081810360008301526107bc81610710565b9050919050565b600060208201905081810360008301526107dc81610733565b9050919050565b60006107ed6107fe565b90506107f9828261091c565b919050565b6000604051905090565b600067ffffffffffffffff821115610823576108226109ab565b5b61082c826109ee565b9050602081019050919050565b600081519050919050565b600082825260208201905092915050565b600081905092915050565b600061086b82610888565b9050919050565b60008115159050919050565b6000819050919050565b600073ffffffffffffffffffffffffffffffffffffffff82169050919050565b82818337600083830152505050565b60005b838110156108d55780820151818401526020810190506108ba565b838111156108e4576000848401525b50505050565b6000600282049050600182168061090257607f821691505b602082108114156109165761091561097c565b5b50919050565b610925826109ee565b810181811067ffffffffffffffff82111715610944576109436109ab565b5b80604052505050565b7f4e487b7100000000000000000000000000000000000000000000000000000000600052602160045260246000fd5b7f4e487b7100000000000000000000000000000000000000000000000000000000600052602260045260246000fd5b7f4e487b7100000000000000000000000000000000000000000000000000000000600052604160045260246000fd5b600080fd5b600080fd5b600080fd5b600080fd5b6000601f19601f8301169050919050565b7f596f7520617265206e6f74206120707269766174652070726f76696465722100600082015250565b7f4170706c69636174696f6e20616c72656164792073656e742100000000000000600082015250565b610a5a81610860565b8114610a6557600080fd5b50565b610a7181610872565b8114610a7c57600080fd5b5056fea2646970667358221220fca41c99cce6f92fa7995df778508e4fbe9cb7bb851368f9831ea7a9bb6284fc64736f6c63430008070033",
					"opcodes": "PUSH1 0x80 PUSH1 0x40 MSTORE CALLVALUE DUP1 ISZERO PUSH2 0x10 JUMPI PUSH1 0x0 DUP1 REVERT JUMPDEST POP PUSH2 0xAB5 DUP1 PUSH2 0x20 PUSH1 0x0 CODECOPY PUSH1 0x0 RETURN INVALID PUSH1 0x80 PUSH1 0x40 MSTORE CALLVALUE DUP1 ISZERO PUSH2 0x10 JUMPI PUSH1 0x0 DUP1 REVERT JUMPDEST POP PUSH1 0x4 CALLDATASIZE LT PUSH2 0x4C JUMPI PUSH1 0x0 CALLDATALOAD PUSH1 0xE0 SHR DUP1 PUSH4 0x44B69405 EQ PUSH2 0x51 JUMPI DUP1 PUSH4 0x785963C3 EQ PUSH2 0x6F JUMPI DUP1 PUSH4 0x8E4F8C6B EQ PUSH2 0x8B JUMPI DUP1 PUSH4 0x9D9E7A4B EQ PUSH2 0xBB JUMPI JUMPDEST PUSH1 0x0 DUP1 REVERT JUMPDEST PUSH2 0x59 PUSH2 0xD7 JUMP JUMPDEST PUSH1 0x40 MLOAD PUSH2 0x66 SWAP2 SWAP1 PUSH2 0x76D JUMP JUMPDEST PUSH1 0x40 MLOAD DUP1 SWAP2 SUB SWAP1 RETURN JUMPDEST PUSH2 0x89 PUSH1 0x4 DUP1 CALLDATASIZE SUB DUP2 ADD SWAP1 PUSH2 0x84 SWAP2 SWAP1 PUSH2 0x636 JUMP JUMPDEST PUSH2 0x191 JUMP JUMPDEST STOP JUMPDEST PUSH2 0xA5 PUSH1 0x4 DUP1 CALLDATASIZE SUB DUP2 ADD SWAP1 PUSH2 0xA0 SWAP2 SWAP1 PUSH2 0x5ED JUMP JUMPDEST PUSH2 0x39B JUMP JUMPDEST PUSH1 0x40 MLOAD PUSH2 0xB2 SWAP2 SWAP1 PUSH2 0x788 JUMP JUMPDEST PUSH1 0x40 MLOAD DUP1 SWAP2 SUB SWAP1 RETURN JUMPDEST PUSH2 0xD5 PUSH1 0x4 DUP1 CALLDATASIZE SUB DUP2 ADD SWAP1 PUSH2 0xD0 SWAP2 SWAP1 PUSH2 0x5C0 JUMP JUMPDEST PUSH2 0x3CB JUMP JUMPDEST STOP JUMPDEST PUSH1 0x0 PUSH1 0x2 PUSH1 0x4 DUP2 GT ISZERO PUSH2 0xED JUMPI PUSH2 0xEC PUSH2 0x94D JUMP JUMPDEST JUMPDEST PUSH1 0x0 DUP1 CALLER PUSH20 0xFFFFFFFFFFFFFFFFFFFFFFFFFFFFFFFFFFFFFFFF AND PUSH20 0xFFFFFFFFFFFFFFFFFFFFFFFFFFFFFFFFFFFFFFFF AND DUP2 MSTORE PUSH1 0x20 ADD SWAP1 DUP2 MSTORE PUSH1 0x20 ADD PUSH1 0x0 KECCAK256 PUSH1 0x0 ADD PUSH1 0x0 SWAP1 SLOAD SWAP1 PUSH2 0x100 EXP SWAP1 DIV PUSH1 0xFF AND PUSH1 0x4 DUP2 GT ISZERO PUSH2 0x14E JUMPI PUSH2 0x14D PUSH2 0x94D JUMP JUMPDEST JUMPDEST EQ PUSH2 0x18E JUMPI PUSH1 0x40 MLOAD PUSH32 0x8C379A000000000000000000000000000000000000000000000000000000000 DUP2 MSTORE PUSH1 0x4 ADD PUSH2 0x185 SWAP1 PUSH2 0x7A3 JUMP JUMPDEST PUSH1 0x40 MLOAD DUP1 SWAP2 SUB SWAP1 REVERT JUMPDEST SWAP1 JUMP JUMPDEST PUSH1 0x1 ISZERO ISZERO PUSH1 0x2 PUSH1 0x0 CALLER PUSH20 0xFFFFFFFFFFFFFFFFFFFFFFFFFFFFFFFFFFFFFFFF AND PUSH20 0xFFFFFFFFFFFFFFFFFFFFFFFFFFFFFFFFFFFFFFFF AND DUP2 MSTORE PUSH1 0x20 ADD SWAP1 DUP2 MSTORE PUSH1 0x20 ADD PUSH1 0x0 KECCAK256 PUSH1 0x2 ADD PUSH1 0x16 SWAP1 SLOAD SWAP1 PUSH2 0x100 EXP SWAP1 DIV PUSH1 0xFF AND ISZERO ISZERO EQ PUSH2 0x227 JUMPI PUSH1 0x40 MLOAD PUSH32 0x8C379A000000000000000000000000000000000000000000000000000000000 DUP2 MSTORE PUSH1 0x4 ADD PUSH2 0x21E SWAP1 PUSH2 0x7C3 JUMP JUMPDEST PUSH1 0x40 MLOAD DUP1 SWAP2 SUB SWAP1 REVERT JUMPDEST PUSH1 0x40 MLOAD DUP1 PUSH1 0xC0 ADD PUSH1 0x40 MSTORE DUP1 DUP5 DUP2 MSTORE PUSH1 0x20 ADD DUP4 DUP2 MSTORE PUSH1 0x20 ADD DUP3 PUSH20 0xFFFFFFFFFFFFFFFFFFFFFFFFFFFFFFFFFFFFFFFF AND DUP2 MSTORE PUSH1 0x20 ADD PUSH1 0x1 ISZERO ISZERO DUP2 MSTORE PUSH1 0x20 ADD PUSH1 0x0 ISZERO ISZERO DUP2 MSTORE PUSH1 0x20 ADD PUSH1 0x1 ISZERO ISZERO DUP2 MSTORE POP PUSH1 0x2 PUSH1 0x0 CALLER PUSH20 0xFFFFFFFFFFFFFFFFFFFFFFFFFFFFFFFFFFFFFFFF AND PUSH20 0xFFFFFFFFFFFFFFFFFFFFFFFFFFFFFFFFFFFFFFFF AND DUP2 MSTORE PUSH1 0x20 ADD SWAP1 DUP2 MSTORE PUSH1 0x20 ADD PUSH1 0x0 KECCAK256 PUSH1 0x0 DUP3 ADD MLOAD DUP2 PUSH1 0x0 ADD SWAP1 DUP1 MLOAD SWAP1 PUSH1 0x20 ADD SWAP1 PUSH2 0x2CE SWAP3 SWAP2 SWAP1 PUSH2 0x483 JUMP JUMPDEST POP PUSH1 0x20 DUP3 ADD MLOAD DUP2 PUSH1 0x1 ADD SWAP1 DUP1 MLOAD SWAP1 PUSH1 0x20 ADD SWAP1 PUSH2 0x2EB SWAP3 SWAP2 SWAP1 PUSH2 0x483 JUMP JUMPDEST POP PUSH1 0x40 DUP3 ADD MLOAD DUP2 PUSH1 0x2 ADD PUSH1 0x0 PUSH2 0x100 EXP DUP2 SLOAD DUP2 PUSH20 0xFFFFFFFFFFFFFFFFFFFFFFFFFFFFFFFFFFFFFFFF MUL NOT AND SWAP1 DUP4 PUSH20 0xFFFFFFFFFFFFFFFFFFFFFFFFFFFFFFFFFFFFFFFF AND MUL OR SWAP1 SSTORE POP PUSH1 0x60 DUP3 ADD MLOAD DUP2 PUSH1 0x2 ADD PUSH1 0x14 PUSH2 0x100 EXP DUP2 SLOAD DUP2 PUSH1 0xFF MUL NOT AND SWAP1 DUP4 ISZERO ISZERO MUL OR SWAP1 SSTORE POP PUSH1 0x80 DUP3 ADD MLOAD DUP2 PUSH1 0x2 ADD PUSH1 0x15 PUSH2 0x100 EXP DUP2 SLOAD DUP2 PUSH1 0xFF MUL NOT AND SWAP1 DUP4 ISZERO ISZERO MUL OR SWAP1 SSTORE POP PUSH1 0xA0 DUP3 ADD MLOAD DUP2 PUSH1 0x2 ADD PUSH1 0x16 PUSH2 0x100 EXP DUP2 SLOAD DUP2 PUSH1 0xFF MUL NOT AND SWAP1 DUP4 ISZERO ISZERO MUL OR SWAP1 SSTORE POP SWAP1 POP POP POP POP POP JUMP JUMPDEST PUSH1 0x0 DUP2 PUSH1 0x40 MLOAD PUSH1 0x20 ADD PUSH2 0x3AE SWAP2 SWAP1 PUSH2 0x756 JUMP JUMPDEST PUSH1 0x40 MLOAD PUSH1 0x20 DUP2 DUP4 SUB SUB DUP2 MSTORE SWAP1 PUSH1 0x40 MSTORE DUP1 MLOAD SWAP1 PUSH1 0x20 ADD KECCAK256 SWAP1 POP SWAP2 SWAP1 POP JUMP JUMPDEST PUSH1 0x2 PUSH1 0x4 DUP2 GT ISZERO PUSH2 0x3DF JUMPI PUSH2 0x3DE PUSH2 0x94D JUMP JUMPDEST JUMPDEST PUSH1 0x0 DUP1 CALLER PUSH20 0xFFFFFFFFFFFFFFFFFFFFFFFFFFFFFFFFFFFFFFFF AND PUSH20 0xFFFFFFFFFFFFFFFFFFFFFFFFFFFFFFFFFFFFFFFF AND DUP2 MSTORE PUSH1 0x20 ADD SWAP1 DUP2 MSTORE PUSH1 0x20 ADD PUSH1 0x0 KECCAK256 PUSH1 0x0 ADD PUSH1 0x0 SWAP1 SLOAD SWAP1 PUSH2 0x100 EXP SWAP1 DIV PUSH1 0xFF AND PUSH1 0x4 DUP2 GT ISZERO PUSH2 0x440 JUMPI PUSH2 0x43F PUSH2 0x94D JUMP JUMPDEST JUMPDEST EQ PUSH2 0x480 JUMPI PUSH1 0x40 MLOAD PUSH32 0x8C379A000000000000000000000000000000000000000000000000000000000 DUP2 MSTORE PUSH1 0x4 ADD PUSH2 0x477 SWAP1 PUSH2 0x7A3 JUMP JUMPDEST PUSH1 0x40 MLOAD DUP1 SWAP2 SUB SWAP1 REVERT JUMPDEST POP JUMP JUMPDEST DUP3 DUP1 SLOAD PUSH2 0x48F SWAP1 PUSH2 0x8EA JUMP JUMPDEST SWAP1 PUSH1 0x0 MSTORE PUSH1 0x20 PUSH1 0x0 KECCAK256 SWAP1 PUSH1 0x1F ADD PUSH1 0x20 SWAP1 DIV DUP2 ADD SWAP3 DUP3 PUSH2 0x4B1 JUMPI PUSH1 0x0 DUP6 SSTORE PUSH2 0x4F8 JUMP JUMPDEST DUP3 PUSH1 0x1F LT PUSH2 0x4CA JUMPI DUP1 MLOAD PUSH1 0xFF NOT AND DUP4 DUP1 ADD OR DUP6 SSTORE PUSH2 0x4F8 JUMP JUMPDEST DUP3 DUP1 ADD PUSH1 0x1 ADD DUP6 SSTORE DUP3 ISZERO PUSH2 0x4F8 JUMPI SWAP2 DUP3 ADD JUMPDEST DUP3 DUP2 GT ISZERO PUSH2 0x4F7 JUMPI DUP3 MLOAD DUP3 SSTORE SWAP2 PUSH1 0x20 ADD SWAP2 SWAP1 PUSH1 0x1 ADD SWAP1 PUSH2 0x4DC JUMP JUMPDEST JUMPDEST POP SWAP1 POP PUSH2 0x505 SWAP2 SWAP1 PUSH2 0x509 JUMP JUMPDEST POP SWAP1 JUMP JUMPDEST JUMPDEST DUP1 DUP3 GT ISZERO PUSH2 0x522 JUMPI PUSH1 0x0 DUP2 PUSH1 0x0 SWAP1 SSTORE POP PUSH1 0x1 ADD PUSH2 0x50A JUMP JUMPDEST POP SWAP1 JUMP JUMPDEST PUSH1 0x0 PUSH2 0x539 PUSH2 0x534 DUP5 PUSH2 0x808 JUMP JUMPDEST PUSH2 0x7E3 JUMP JUMPDEST SWAP1 POP DUP3 DUP2 MSTORE PUSH1 0x20 DUP2 ADD DUP5 DUP5 DUP5 ADD GT ISZERO PUSH2 0x555 JUMPI PUSH2 0x554 PUSH2 0x9DF JUMP JUMPDEST JUMPDEST PUSH2 0x560 DUP5 DUP3 DUP6 PUSH2 0x8A8 JUMP JUMPDEST POP SWAP4 SWAP3 POP POP POP JUMP JUMPDEST PUSH1 0x0 DUP2 CALLDATALOAD SWAP1 POP PUSH2 0x577 DUP2 PUSH2 0xA51 JUMP JUMPDEST SWAP3 SWAP2 POP POP JUMP JUMPDEST PUSH1 0x0 DUP2 CALLDATALOAD SWAP1 POP PUSH2 0x58C DUP2 PUSH2 0xA68 JUMP JUMPDEST SWAP3 SWAP2 POP POP JUMP JUMPDEST PUSH1 0x0 DUP3 PUSH1 0x1F DUP4 ADD SLT PUSH2 0x5A7 JUMPI PUSH2 0x5A6 PUSH2 0x9DA JUMP JUMPDEST JUMPDEST DUP2 CALLDATALOAD PUSH2 0x5B7 DUP5 DUP3 PUSH1 0x20 DUP7 ADD PUSH2 0x526 JUMP JUMPDEST SWAP2 POP POP SWAP3 SWAP2 POP POP JUMP JUMPDEST PUSH1 0x0 PUSH1 0x20 DUP3 DUP5 SUB SLT ISZERO PUSH2 0x5D6 JUMPI PUSH2 0x5D5 PUSH2 0x9E9 JUMP JUMPDEST JUMPDEST PUSH1 0x0 PUSH2 0x5E4 DUP5 DUP3 DUP6 ADD PUSH2 0x57D JUMP JUMPDEST SWAP2 POP POP SWAP3 SWAP2 POP POP JUMP JUMPDEST PUSH1 0x0 PUSH1 0x20 DUP3 DUP5 SUB SLT ISZERO PUSH2 0x603 JUMPI PUSH2 0x602 PUSH2 0x9E9 JUMP JUMPDEST JUMPDEST PUSH1 0x0 DUP3 ADD CALLDATALOAD PUSH8 0xFFFFFFFFFFFFFFFF DUP2 GT ISZERO PUSH2 0x621 JUMPI PUSH2 0x620 PUSH2 0x9E4 JUMP JUMPDEST JUMPDEST PUSH2 0x62D DUP5 DUP3 DUP6 ADD PUSH2 0x592 JUMP JUMPDEST SWAP2 POP POP SWAP3 SWAP2 POP POP JUMP JUMPDEST PUSH1 0x0 DUP1 PUSH1 0x0 PUSH1 0x60 DUP5 DUP7 SUB SLT ISZERO PUSH2 0x64F JUMPI PUSH2 0x64E PUSH2 0x9E9 JUMP JUMPDEST JUMPDEST PUSH1 0x0 DUP5 ADD CALLDATALOAD PUSH8 0xFFFFFFFFFFFFFFFF DUP2 GT ISZERO PUSH2 0x66D JUMPI PUSH2 0x66C PUSH2 0x9E4 JUMP JUMPDEST JUMPDEST PUSH2 0x679 DUP7 DUP3 DUP8 ADD PUSH2 0x592 JUMP JUMPDEST SWAP4 POP POP PUSH1 0x20 DUP5 ADD CALLDATALOAD PUSH8 0xFFFFFFFFFFFFFFFF DUP2 GT ISZERO PUSH2 0x69A JUMPI PUSH2 0x699 PUSH2 0x9E4 JUMP JUMPDEST JUMPDEST PUSH2 0x6A6 DUP7 DUP3 DUP8 ADD PUSH2 0x592 JUMP JUMPDEST SWAP3 POP POP PUSH1 0x40 PUSH2 0x6B7 DUP7 DUP3 DUP8 ADD PUSH2 0x568 JUMP JUMPDEST SWAP2 POP POP SWAP3 POP SWAP3 POP SWAP3 JUMP JUMPDEST PUSH2 0x6CA DUP2 PUSH2 0x860 JUMP JUMPDEST DUP3 MSTORE POP POP JUMP JUMPDEST PUSH2 0x6D9 DUP2 PUSH2 0x87E JUMP JUMPDEST DUP3 MSTORE POP POP JUMP JUMPDEST PUSH1 0x0 PUSH2 0x6EA DUP3 PUSH2 0x839 JUMP JUMPDEST PUSH2 0x6F4 DUP2 DUP6 PUSH2 0x855 JUMP JUMPDEST SWAP4 POP PUSH2 0x704 DUP2 DUP6 PUSH1 0x20 DUP7 ADD PUSH2 0x8B7 JUMP JUMPDEST DUP1 DUP5 ADD SWAP2 POP POP SWAP3 SWAP2 POP POP JUMP JUMPDEST PUSH1 0x0 PUSH2 0x71D PUSH1 0x1F DUP4 PUSH2 0x844 JUMP JUMPDEST SWAP2 POP PUSH2 0x728 DUP3 PUSH2 0x9FF JUMP JUMPDEST PUSH1 0x20 DUP3 ADD SWAP1 POP SWAP2 SWAP1 POP JUMP JUMPDEST PUSH1 0x0 PUSH2 0x740 PUSH1 0x19 DUP4 PUSH2 0x844 JUMP JUMPDEST SWAP2 POP PUSH2 0x74B DUP3 PUSH2 0xA28 JUMP JUMPDEST PUSH1 0x20 DUP3 ADD SWAP1 POP SWAP2 SWAP1 POP JUMP JUMPDEST PUSH1 0x0 PUSH2 0x762 DUP3 DUP5 PUSH2 0x6DF JUMP JUMPDEST SWAP2 POP DUP2 SWAP1 POP SWAP3 SWAP2 POP POP JUMP JUMPDEST PUSH1 0x0 PUSH1 0x20 DUP3 ADD SWAP1 POP PUSH2 0x782 PUSH1 0x0 DUP4 ADD DUP5 PUSH2 0x6C1 JUMP JUMPDEST SWAP3 SWAP2 POP POP JUMP JUMPDEST PUSH1 0x0 PUSH1 0x20 DUP3 ADD SWAP1 POP PUSH2 0x79D PUSH1 0x0 DUP4 ADD DUP5 PUSH2 0x6D0 JUMP JUMPDEST SWAP3 SWAP2 POP POP JUMP JUMPDEST PUSH1 0x0 PUSH1 0x20 DUP3 ADD SWAP1 POP DUP2 DUP2 SUB PUSH1 0x0 DUP4 ADD MSTORE PUSH2 0x7BC DUP2 PUSH2 0x710 JUMP JUMPDEST SWAP1 POP SWAP2 SWAP1 POP JUMP JUMPDEST PUSH1 0x0 PUSH1 0x20 DUP3 ADD SWAP1 POP DUP2 DUP2 SUB PUSH1 0x0 DUP4 ADD MSTORE PUSH2 0x7DC DUP2 PUSH2 0x733 JUMP JUMPDEST SWAP1 POP SWAP2 SWAP1 POP JUMP JUMPDEST PUSH1 0x0 PUSH2 0x7ED PUSH2 0x7FE JUMP JUMPDEST SWAP1 POP PUSH2 0x7F9 DUP3 DUP3 PUSH2 0x91C JUMP JUMPDEST SWAP2 SWAP1 POP JUMP JUMPDEST PUSH1 0x0 PUSH1 0x40 MLOAD SWAP1 POP SWAP1 JUMP JUMPDEST PUSH1 0x0 PUSH8 0xFFFFFFFFFFFFFFFF DUP3 GT ISZERO PUSH2 0x823 JUMPI PUSH2 0x822 PUSH2 0x9AB JUMP JUMPDEST JUMPDEST PUSH2 0x82C DUP3 PUSH2 0x9EE JUMP JUMPDEST SWAP1 POP PUSH1 0x20 DUP2 ADD SWAP1 POP SWAP2 SWAP1 POP JUMP JUMPDEST PUSH1 0x0 DUP2 MLOAD SWAP1 POP SWAP2 SWAP1 POP JUMP JUMPDEST PUSH1 0x0 DUP3 DUP3 MSTORE PUSH1 0x20 DUP3 ADD SWAP1 POP SWAP3 SWAP2 POP POP JUMP JUMPDEST PUSH1 0x0 DUP2 SWAP1 POP SWAP3 SWAP2 POP POP JUMP JUMPDEST PUSH1 0x0 PUSH2 0x86B DUP3 PUSH2 0x888 JUMP JUMPDEST SWAP1 POP SWAP2 SWAP1 POP JUMP JUMPDEST PUSH1 0x0 DUP2 ISZERO ISZERO SWAP1 POP SWAP2 SWAP1 POP JUMP JUMPDEST PUSH1 0x0 DUP2 SWAP1 POP SWAP2 SWAP1 POP JUMP JUMPDEST PUSH1 0x0 PUSH20 0xFFFFFFFFFFFFFFFFFFFFFFFFFFFFFFFFFFFFFFFF DUP3 AND SWAP1 POP SWAP2 SWAP1 POP JUMP JUMPDEST DUP3 DUP2 DUP4 CALLDATACOPY PUSH1 0x0 DUP4 DUP4 ADD MSTORE POP POP POP JUMP JUMPDEST PUSH1 0x0 JUMPDEST DUP4 DUP2 LT ISZERO PUSH2 0x8D5 JUMPI DUP1 DUP3 ADD MLOAD DUP2 DUP5 ADD MSTORE PUSH1 0x20 DUP2 ADD SWAP1 POP PUSH2 0x8BA JUMP JUMPDEST DUP4 DUP2 GT ISZERO PUSH2 0x8E4 JUMPI PUSH1 0x0 DUP5 DUP5 ADD MSTORE JUMPDEST POP POP POP POP JUMP JUMPDEST PUSH1 0x0 PUSH1 0x2 DUP3 DIV SWAP1 POP PUSH1 0x1 DUP3 AND DUP1 PUSH2 0x902 JUMPI PUSH1 0x7F DUP3 AND SWAP2 POP JUMPDEST PUSH1 0x20 DUP3 LT DUP2 EQ ISZERO PUSH2 0x916 JUMPI PUSH2 0x915 PUSH2 0x97C JUMP JUMPDEST JUMPDEST POP SWAP2 SWAP1 POP JUMP JUMPDEST PUSH2 0x925 DUP3 PUSH2 0x9EE JUMP JUMPDEST DUP2 ADD DUP2 DUP2 LT PUSH8 0xFFFFFFFFFFFFFFFF DUP3 GT OR ISZERO PUSH2 0x944 JUMPI PUSH2 0x943 PUSH2 0x9AB JUMP JUMPDEST JUMPDEST DUP1 PUSH1 0x40 MSTORE POP POP POP JUMP JUMPDEST PUSH32 0x4E487B7100000000000000000000000000000000000000000000000000000000 PUSH1 0x0 MSTORE PUSH1 0x21 PUSH1 0x4 MSTORE PUSH1 0x24 PUSH1 0x0 REVERT JUMPDEST PUSH32 0x4E487B7100000000000000000000000000000000000000000000000000000000 PUSH1 0x0 MSTORE PUSH1 0x22 PUSH1 0x4 MSTORE PUSH1 0x24 PUSH1 0x0 REVERT JUMPDEST PUSH32 0x4E487B7100000000000000000000000000000000000000000000000000000000 PUSH1 0x0 MSTORE PUSH1 0x41 PUSH1 0x4 MSTORE PUSH1 0x24 PUSH1 0x0 REVERT JUMPDEST PUSH1 0x0 DUP1 REVERT JUMPDEST PUSH1 0x0 DUP1 REVERT JUMPDEST PUSH1 0x0 DUP1 REVERT JUMPDEST PUSH1 0x0 DUP1 REVERT JUMPDEST PUSH1 0x0 PUSH1 0x1F NOT PUSH1 0x1F DUP4 ADD AND SWAP1 POP SWAP2 SWAP1 POP JUMP JUMPDEST PUSH32 0x596F7520617265206E6F74206120707269766174652070726F76696465722100 PUSH1 0x0 DUP3 ADD MSTORE POP JUMP JUMPDEST PUSH32 0x4170706C69636174696F6E20616C72656164792073656E742100000000000000 PUSH1 0x0 DUP3 ADD MSTORE POP JUMP JUMPDEST PUSH2 0xA5A DUP2 PUSH2 0x860 JUMP JUMPDEST DUP2 EQ PUSH2 0xA65 JUMPI PUSH1 0x0 DUP1 REVERT JUMPDEST POP JUMP JUMPDEST PUSH2 0xA71 DUP2 PUSH2 0x872 JUMP JUMPDEST DUP2 EQ PUSH2 0xA7C JUMPI PUSH1 0x0 DUP1 REVERT JUMPDEST POP JUMP INVALID LOG2 PUSH5 0x6970667358 0x22 SLT KECCAK256 0xFC LOG4 SHR SWAP10 0xCC 0xE6 0xF9 0x2F 0xA7 SWAP10 0x5D 0xF7 PUSH25 0x508E4FBE9CB7BB851368F9831EA7A9BB6284FC64736F6C6343 STOP ADDMOD SMOD STOP CALLER "
				},
				"gasEstimates": {
					"creation": {
						"codeDepositCost": "548200",
						"executionCost": "581",
						"totalCost": "548781"
					},
					"external": {
						"acceptApplication(bool)": "3049",
						"application(string,string,address)": "infinite",
						"get_keccak256(string)": "infinite",
						"viewApplication()": "2720"
					}
				},
				"methodIdentifiers": {
					"acceptApplication(bool)": "9d9e7a4b",
					"application(string,string,address)": "785963c3",
					"get_keccak256(string)": "8e4f8c6b",
					"viewApplication()": "44b69405"
				}
			},
			"storageLayout": {
				"storage": [
					{
						"astId": 240,
						"contract": "Documents/GitHub/contract-token-cryptoMonster/backend/components/PhasePrivate.sol:PhasePrivate",
						"label": "structUsers_",
						"offset": 0,
						"slot": "0",
						"type": "t_mapping(t_address,t_struct(structUser)235_storage)"
					},
					{
						"astId": 250,
						"contract": "Documents/GitHub/contract-token-cryptoMonster/backend/components/PhasePrivate.sol:PhasePrivate",
						"label": "structPhases_",
						"offset": 0,
						"slot": "1",
						"type": "t_mapping(t_address,t_struct(structPhase)245_storage)"
					},
					{
						"astId": 268,
						"contract": "Documents/GitHub/contract-token-cryptoMonster/backend/components/PhasePrivate.sol:PhasePrivate",
						"label": "strucApplications_",
						"offset": 0,
						"slot": "2",
						"type": "t_mapping(t_address,t_struct(structApplication)263_storage)"
					}
				],
				"types": {
					"t_address": {
						"encoding": "inplace",
						"label": "address",
						"numberOfBytes": "20"
					},
					"t_bool": {
						"encoding": "inplace",
						"label": "bool",
						"numberOfBytes": "1"
					},
					"t_bytes32": {
						"encoding": "inplace",
						"label": "bytes32",
						"numberOfBytes": "32"
					},
					"t_enum(Role)219": {
						"encoding": "inplace",
						"label": "enum structures.Role",
						"numberOfBytes": "1"
					},
					"t_mapping(t_address,t_struct(structApplication)263_storage)": {
						"encoding": "mapping",
						"key": "t_address",
						"label": "mapping(address => struct structures.structApplication)",
						"numberOfBytes": "32",
						"value": "t_struct(structApplication)263_storage"
					},
					"t_mapping(t_address,t_struct(structPhase)245_storage)": {
						"encoding": "mapping",
						"key": "t_address",
						"label": "mapping(address => struct structures.structPhase)",
						"numberOfBytes": "32",
						"value": "t_struct(structPhase)245_storage"
					},
					"t_mapping(t_address,t_struct(structUser)235_storage)": {
						"encoding": "mapping",
						"key": "t_address",
						"label": "mapping(address => struct structures.structUser)",
						"numberOfBytes": "32",
						"value": "t_struct(structUser)235_storage"
					},
					"t_string_storage": {
						"encoding": "bytes",
						"label": "string",
						"numberOfBytes": "32"
					},
					"t_struct(structApplication)263_storage": {
						"encoding": "inplace",
						"label": "struct structures.structApplication",
						"members": [
							{
								"astId": 252,
								"contract": "Documents/GitHub/contract-token-cryptoMonster/backend/components/PhasePrivate.sol:PhasePrivate",
								"label": "name",
								"offset": 0,
								"slot": "0",
								"type": "t_string_storage"
							},
							{
								"astId": 254,
								"contract": "Documents/GitHub/contract-token-cryptoMonster/backend/components/PhasePrivate.sol:PhasePrivate",
								"label": "contactForCommunication",
								"offset": 0,
								"slot": "1",
								"type": "t_string_storage"
							},
							{
								"astId": 256,
								"contract": "Documents/GitHub/contract-token-cryptoMonster/backend/components/PhasePrivate.sol:PhasePrivate",
								"label": "userAdr",
								"offset": 0,
								"slot": "2",
								"type": "t_address"
							},
							{
								"astId": 258,
								"contract": "Documents/GitHub/contract-token-cryptoMonster/backend/components/PhasePrivate.sol:PhasePrivate",
								"label": "status",
								"offset": 20,
								"slot": "2",
								"type": "t_bool"
							},
							{
								"astId": 260,
								"contract": "Documents/GitHub/contract-token-cryptoMonster/backend/components/PhasePrivate.sol:PhasePrivate",
								"label": "reviewed",
								"offset": 21,
								"slot": "2",
								"type": "t_bool"
							},
							{
								"astId": 262,
								"contract": "Documents/GitHub/contract-token-cryptoMonster/backend/components/PhasePrivate.sol:PhasePrivate",
								"label": "exist",
								"offset": 22,
								"slot": "2",
								"type": "t_bool"
							}
						],
						"numberOfBytes": "96"
					},
					"t_struct(structPhase)245_storage": {
						"encoding": "inplace",
						"label": "struct structures.structPhase",
						"members": [
							{
								"astId": 242,
								"contract": "Documents/GitHub/contract-token-cryptoMonster/backend/components/PhasePrivate.sol:PhasePrivate",
								"label": "statusPhase",
								"offset": 0,
								"slot": "0",
								"type": "t_bool"
							},
							{
								"astId": 244,
								"contract": "Documents/GitHub/contract-token-cryptoMonster/backend/components/PhasePrivate.sol:PhasePrivate",
								"label": "reviewed",
								"offset": 1,
								"slot": "0",
								"type": "t_bool"
							}
						],
						"numberOfBytes": "32"
					},
					"t_struct(structUser)235_storage": {
						"encoding": "inplace",
						"label": "struct structures.structUser",
						"members": [
							{
								"astId": 222,
								"contract": "Documents/GitHub/contract-token-cryptoMonster/backend/components/PhasePrivate.sol:PhasePrivate",
								"label": "role",
								"offset": 0,
								"slot": "0",
								"type": "t_enum(Role)219"
							},
							{
								"astId": 224,
								"contract": "Documents/GitHub/contract-token-cryptoMonster/backend/components/PhasePrivate.sol:PhasePrivate",
								"label": "login",
								"offset": 0,
								"slot": "1",
								"type": "t_string_storage"
							},
							{
								"astId": 226,
								"contract": "Documents/GitHub/contract-token-cryptoMonster/backend/components/PhasePrivate.sol:PhasePrivate",
								"label": "password",
								"offset": 0,
								"slot": "2",
								"type": "t_bytes32"
							},
							{
								"astId": 228,
								"contract": "Documents/GitHub/contract-token-cryptoMonster/backend/components/PhasePrivate.sol:PhasePrivate",
								"label": "balance_overall",
								"offset": 0,
								"slot": "3",
								"type": "t_uint256"
							},
							{
								"astId": 230,
								"contract": "Documents/GitHub/contract-token-cryptoMonster/backend/components/PhasePrivate.sol:PhasePrivate",
								"label": "balance_seed",
								"offset": 0,
								"slot": "4",
								"type": "t_uint256"
							},
							{
								"astId": 232,
								"contract": "Documents/GitHub/contract-token-cryptoMonster/backend/components/PhasePrivate.sol:PhasePrivate",
								"label": "balance_private",
								"offset": 0,
								"slot": "5",
								"type": "t_uint256"
							},
							{
								"astId": 234,
								"contract": "Documents/GitHub/contract-token-cryptoMonster/backend/components/PhasePrivate.sol:PhasePrivate",
								"label": "balance_public",
								"offset": 0,
								"slot": "6",
								"type": "t_uint256"
							}
						],
						"numberOfBytes": "224"
					},
					"t_uint256": {
						"encoding": "inplace",
						"label": "uint256",
						"numberOfBytes": "32"
					}
				}
			},
			"userdoc": {
				"kind": "user",
				"methods": {},
				"version": 1
			}
		}
	}
}