{
	"GitHub/contract-token-cryptoMonster/backend/shared/helpers/helpresFunc.sol": {
		"helpresFunc": {
			"abi": [
				{
					"inputs": [
						{
							"internalType": "address",
							"name": "adr",
							"type": "address"
						}
					],
					"name": "getBalanceEth",
					"outputs": [
						{
							"internalType": "uint256",
							"name": "",
							"type": "uint256"
						}
					],
					"stateMutability": "view",
					"type": "function"
				},
				{
					"inputs": [
						{
							"internalType": "address",
							"name": "_userAdr",
							"type": "address"
						}
					],
					"name": "getBalancePrivateToken",
					"outputs": [
						{
							"internalType": "uint256",
							"name": "",
							"type": "uint256"
						}
					],
					"stateMutability": "view",
					"type": "function"
				},
				{
					"inputs": [
						{
							"internalType": "address",
							"name": "_userAdr",
							"type": "address"
						}
					],
					"name": "getBalancePublicToken",
					"outputs": [
						{
							"internalType": "uint256",
							"name": "",
							"type": "uint256"
						}
					],
					"stateMutability": "view",
					"type": "function"
				},
				{
					"inputs": [
						{
							"internalType": "address",
							"name": "_userAdr",
							"type": "address"
						}
					],
					"name": "getBalanceSeedToken",
					"outputs": [
						{
							"internalType": "uint256",
							"name": "",
							"type": "uint256"
						}
					],
					"stateMutability": "view",
					"type": "function"
				},
				{
					"inputs": [],
					"name": "get_blackList",
					"outputs": [
						{
							"internalType": "address[]",
							"name": "",
							"type": "address[]"
						}
					],
					"stateMutability": "view",
					"type": "function"
				},
				{
					"inputs": [
						{
							"internalType": "string",
							"name": "_hash",
							"type": "string"
						}
					],
					"name": "get_keccak256",
					"outputs": [
						{
							"internalType": "bytes32",
							"name": "",
							"type": "bytes32"
						}
					],
					"stateMutability": "pure",
					"type": "function"
				},
				{
					"inputs": [],
					"name": "get_whiteList",
					"outputs": [
						{
							"internalType": "address[]",
							"name": "",
							"type": "address[]"
						}
					],
					"stateMutability": "view",
					"type": "function"
				},
				{
					"inputs": [
						{
							"internalType": "address",
							"name": "",
							"type": "address"
						}
					],
					"name": "structUsers_",
					"outputs": [
						{
							"internalType": "enum structures.Role",
							"name": "role",
							"type": "uint8"
						},
						{
							"internalType": "string",
							"name": "login",
							"type": "string"
						},
						{
							"internalType": "bytes32",
							"name": "password",
							"type": "bytes32"
						},
						{
							"internalType": "uint256",
							"name": "balance_overall",
							"type": "uint256"
						},
						{
							"internalType": "uint256",
							"name": "balance_seed",
							"type": "uint256"
						},
						{
							"internalType": "uint256",
							"name": "balance_private",
							"type": "uint256"
						},
						{
							"internalType": "uint256",
							"name": "balance_public",
							"type": "uint256"
						}
					],
					"stateMutability": "view",
					"type": "function"
				},
				{
					"inputs": [],
					"name": "tokenAmount_",
					"outputs": [
						{
							"internalType": "uint256",
							"name": "",
							"type": "uint256"
						}
					],
					"stateMutability": "view",
					"type": "function"
				},
				{
					"inputs": [],
					"name": "tokenPrice_",
					"outputs": [
						{
							"internalType": "uint256",
							"name": "",
							"type": "uint256"
						}
					],
					"stateMutability": "view",
					"type": "function"
				}
			],
			"devdoc": {
				"kind": "dev",
				"methods": {},
				"version": 1
			},
			"evm": {
				"assembly": "    /* \"GitHub/contract-token-cryptoMonster/backend/shared/helpers/helpresFunc.sol\":104:1709  contract helpresFunc is modifireFunc {\r... */\n  mstore(0x40, 0x80)\n    /* \"GitHub/contract-token-cryptoMonster/backend/shared/lib/structures.sol\":1152:1161  750000000 */\n  0x2cb41780\n    /* \"GitHub/contract-token-cryptoMonster/backend/shared/lib/structures.sol\":1123:1161  uint256 public tokenPrice_ = 750000000 */\n  0x02\n  sstore\n    /* \"GitHub/contract-token-cryptoMonster/backend/shared/lib/structures.sol\":1412:1418  100000 */\n  0x0186a0\n    /* \"GitHub/contract-token-cryptoMonster/backend/shared/lib/structures.sol\":1385:1418  uint public tokenAmount_ = 100000 */\n  0x03\n  sstore\n    /* \"GitHub/contract-token-cryptoMonster/backend/shared/helpers/helpresFunc.sol\":104:1709  contract helpresFunc is modifireFunc {\r... */\n  callvalue\n  dup1\n  iszero\n  tag_1\n  jumpi\n  0x00\n  dup1\n  revert\ntag_1:\n  pop\n  dataSize(sub_0)\n  dup1\n  dataOffset(sub_0)\n  0x00\n  codecopy\n  0x00\n  return\nstop\n\nsub_0: assembly {\n        /* \"GitHub/contract-token-cryptoMonster/backend/shared/helpers/helpresFunc.sol\":104:1709  contract helpresFunc is modifireFunc {\r... */\n      mstore(0x40, 0x80)\n      callvalue\n      dup1\n      iszero\n      tag_1\n      jumpi\n      0x00\n      dup1\n      revert\n    tag_1:\n      pop\n      jumpi(tag_2, lt(calldatasize, 0x04))\n      shr(0xe0, calldataload(0x00))\n      dup1\n      0x948942ad\n      gt\n      tag_13\n      jumpi\n      dup1\n      0x948942ad\n      eq\n      tag_8\n      jumpi\n      dup1\n      0x99067ede\n      eq\n      tag_9\n      jumpi\n      dup1\n      0xb06cdc12\n      eq\n      tag_10\n      jumpi\n      dup1\n      0xc10e3911\n      eq\n      tag_11\n      jumpi\n      dup1\n      0xfc837259\n      eq\n      tag_12\n      jumpi\n      jump(tag_2)\n    tag_13:\n      dup1\n      0x0761c8b9\n      eq\n      tag_3\n      jumpi\n      dup1\n      0x2599d6d0\n      eq\n      tag_4\n      jumpi\n      dup1\n      0x72f0d72b\n      eq\n      tag_5\n      jumpi\n      dup1\n      0x7f89128f\n      eq\n      tag_6\n      jumpi\n      dup1\n      0x8e4f8c6b\n      eq\n      tag_7\n      jumpi\n    tag_2:\n      0x00\n      dup1\n      revert\n        /* \"GitHub/contract-token-cryptoMonster/backend/shared/lib/structures.sol\":1123:1161  uint256 public tokenPrice_ = 750000000 */\n    tag_3:\n      tag_14\n      tag_15\n      jump\t// in\n    tag_14:\n      mload(0x40)\n      tag_16\n      swap2\n      swap1\n      tag_17\n      jump\t// in\n    tag_16:\n      mload(0x40)\n      dup1\n      swap2\n      sub\n      swap1\n      return\n        /* \"GitHub/contract-token-cryptoMonster/backend/shared/helpers/helpresFunc.sol\":849:988  function getBalanceSeedToken (address _userAdr) public view returns (uint256) {\r... */\n    tag_4:\n      tag_18\n      0x04\n      dup1\n      calldatasize\n      sub\n      dup2\n      add\n      swap1\n      tag_19\n      swap2\n      swap1\n      tag_20\n      jump\t// in\n    tag_19:\n      tag_21\n      jump\t// in\n    tag_18:\n      mload(0x40)\n      tag_22\n      swap2\n      swap1\n      tag_17\n      jump\t// in\n    tag_22:\n      mload(0x40)\n      dup1\n      swap2\n      sub\n      swap1\n      return\n        /* \"GitHub/contract-token-cryptoMonster/backend/shared/helpers/helpresFunc.sol\":1352:1495  function getBalancePublicToken (address _userAdr) public view returns (uint256) {\r... */\n    tag_5:\n      tag_23\n      0x04\n      dup1\n      calldatasize\n      sub\n      dup2\n      add\n      swap1\n      tag_24\n      swap2\n      swap1\n      tag_20\n      jump\t// in\n    tag_24:\n      tag_25\n      jump\t// in\n    tag_23:\n      mload(0x40)\n      tag_26\n      swap2\n      swap1\n      tag_17\n      jump\t// in\n    tag_26:\n      mload(0x40)\n      dup1\n      swap2\n      sub\n      swap1\n      return\n        /* \"GitHub/contract-token-cryptoMonster/backend/shared/helpers/helpresFunc.sol\":632:742  function get_blackList() public onlyOwner view returns (address[] memory) {\r... */\n    tag_6:\n      tag_27\n      tag_28\n      jump\t// in\n    tag_27:\n      mload(0x40)\n      tag_29\n      swap2\n      swap1\n      tag_30\n      jump\t// in\n    tag_29:\n      mload(0x40)\n      dup1\n      swap2\n      sub\n      swap1\n      return\n        /* \"GitHub/contract-token-cryptoMonster/backend/shared/helpers/helpresFunc.sol\":212:350  function get_keccak256(string memory _hash) public pure returns(bytes32) {\r... */\n    tag_7:\n      tag_31\n      0x04\n      dup1\n      calldatasize\n      sub\n      dup2\n      add\n      swap1\n      tag_32\n      swap2\n      swap1\n      tag_33\n      jump\t// in\n    tag_32:\n      tag_34\n      jump\t// in\n    tag_31:\n      mload(0x40)\n      tag_35\n      swap2\n      swap1\n      tag_36\n      jump\t// in\n    tag_35:\n      mload(0x40)\n      dup1\n      swap2\n      sub\n      swap1\n      return\n        /* \"GitHub/contract-token-cryptoMonster/backend/shared/lib/structures.sol\":1385:1418  uint public tokenAmount_ = 100000 */\n    tag_8:\n      tag_37\n      tag_38\n      jump\t// in\n    tag_37:\n      mload(0x40)\n      tag_39\n      swap2\n      swap1\n      tag_17\n      jump\t// in\n    tag_39:\n      mload(0x40)\n      dup1\n      swap2\n      sub\n      swap1\n      return\n        /* \"GitHub/contract-token-cryptoMonster/backend/shared/helpers/helpresFunc.sol\":1595:1706  function getBalanceEth(address adr) public view returns(uint256) {\r... */\n    tag_9:\n      tag_40\n      0x04\n      dup1\n      calldatasize\n      sub\n      dup2\n      add\n      swap1\n      tag_41\n      swap2\n      swap1\n      tag_20\n      jump\t// in\n    tag_41:\n      tag_42\n      jump\t// in\n    tag_40:\n      mload(0x40)\n      tag_43\n      swap2\n      swap1\n      tag_17\n      jump\t// in\n    tag_43:\n      mload(0x40)\n      dup1\n      swap2\n      sub\n      swap1\n      return\n        /* \"GitHub/contract-token-cryptoMonster/backend/shared/helpers/helpresFunc.sol\":1098:1243  function getBalancePrivateToken (address _userAdr) public view returns (uint256) {\r... */\n    tag_10:\n      tag_44\n      0x04\n      dup1\n      calldatasize\n      sub\n      dup2\n      add\n      swap1\n      tag_45\n      swap2\n      swap1\n      tag_20\n      jump\t// in\n    tag_45:\n      tag_46\n      jump\t// in\n    tag_44:\n      mload(0x40)\n      tag_47\n      swap2\n      swap1\n      tag_17\n      jump\t// in\n    tag_47:\n      mload(0x40)\n      dup1\n      swap2\n      sub\n      swap1\n      return\n        /* \"GitHub/contract-token-cryptoMonster/backend/shared/helpers/helpresFunc.sol\":426:554  function get_whiteList() public onlyOwnerAndPrivateProvider view returns (address[] memory) {\r... */\n    tag_11:\n      tag_48\n      tag_49\n      jump\t// in\n    tag_48:\n      mload(0x40)\n      tag_50\n      swap2\n      swap1\n      tag_30\n      jump\t// in\n    tag_50:\n      mload(0x40)\n      dup1\n      swap2\n      sub\n      swap1\n      return\n        /* \"GitHub/contract-token-cryptoMonster/backend/shared/lib/structures.sol\":836:887  mapping (address => structUser) public structUsers_ */\n    tag_12:\n      tag_51\n      0x04\n      dup1\n      calldatasize\n      sub\n      dup2\n      add\n      swap1\n      tag_52\n      swap2\n      swap1\n      tag_20\n      jump\t// in\n    tag_52:\n      tag_53\n      jump\t// in\n    tag_51:\n      mload(0x40)\n      tag_54\n      swap8\n      swap7\n      swap6\n      swap5\n      swap4\n      swap3\n      swap2\n      swap1\n      tag_55\n      jump\t// in\n    tag_54:\n      mload(0x40)\n      dup1\n      swap2\n      sub\n      swap1\n      return\n        /* \"GitHub/contract-token-cryptoMonster/backend/shared/lib/structures.sol\":1123:1161  uint256 public tokenPrice_ = 750000000 */\n    tag_15:\n      sload(0x02)\n      dup2\n      jump\t// out\n        /* \"GitHub/contract-token-cryptoMonster/backend/shared/helpers/helpresFunc.sol\":849:988  function getBalanceSeedToken (address _userAdr) public view returns (uint256) {\r... */\n    tag_21:\n        /* \"GitHub/contract-token-cryptoMonster/backend/shared/helpers/helpresFunc.sol\":918:925  uint256 */\n      0x00\n        /* \"GitHub/contract-token-cryptoMonster/backend/shared/helpers/helpresFunc.sol\":945:957  structUsers_ */\n      dup1\n        /* \"GitHub/contract-token-cryptoMonster/backend/shared/helpers/helpresFunc.sol\":945:967  structUsers_[_userAdr] */\n      0x00\n        /* \"GitHub/contract-token-cryptoMonster/backend/shared/helpers/helpresFunc.sol\":958:966  _userAdr */\n      dup4\n        /* \"GitHub/contract-token-cryptoMonster/backend/shared/helpers/helpresFunc.sol\":945:967  structUsers_[_userAdr] */\n      0xffffffffffffffffffffffffffffffffffffffff\n      and\n      0xffffffffffffffffffffffffffffffffffffffff\n      and\n      dup2\n      mstore\n      0x20\n      add\n      swap1\n      dup2\n      mstore\n      0x20\n      add\n      0x00\n      keccak256\n        /* \"GitHub/contract-token-cryptoMonster/backend/shared/helpers/helpresFunc.sol\":945:980  structUsers_[_userAdr].balance_seed */\n      0x04\n      add\n      sload\n        /* \"GitHub/contract-token-cryptoMonster/backend/shared/helpers/helpresFunc.sol\":938:980  return structUsers_[_userAdr].balance_seed */\n      swap1\n      pop\n        /* \"GitHub/contract-token-cryptoMonster/backend/shared/helpers/helpresFunc.sol\":849:988  function getBalanceSeedToken (address _userAdr) public view returns (uint256) {\r... */\n      swap2\n      swap1\n      pop\n      jump\t// out\n        /* \"GitHub/contract-token-cryptoMonster/backend/shared/helpers/helpresFunc.sol\":1352:1495  function getBalancePublicToken (address _userAdr) public view returns (uint256) {\r... */\n    tag_25:\n        /* \"GitHub/contract-token-cryptoMonster/backend/shared/helpers/helpresFunc.sol\":1423:1430  uint256 */\n      0x00\n        /* \"GitHub/contract-token-cryptoMonster/backend/shared/helpers/helpresFunc.sol\":1450:1462  structUsers_ */\n      dup1\n        /* \"GitHub/contract-token-cryptoMonster/backend/shared/helpers/helpresFunc.sol\":1450:1472  structUsers_[_userAdr] */\n      0x00\n        /* \"GitHub/contract-token-cryptoMonster/backend/shared/helpers/helpresFunc.sol\":1463:1471  _userAdr */\n      dup4\n        /* \"GitHub/contract-token-cryptoMonster/backend/shared/helpers/helpresFunc.sol\":1450:1472  structUsers_[_userAdr] */\n      0xffffffffffffffffffffffffffffffffffffffff\n      and\n      0xffffffffffffffffffffffffffffffffffffffff\n      and\n      dup2\n      mstore\n      0x20\n      add\n      swap1\n      dup2\n      mstore\n      0x20\n      add\n      0x00\n      keccak256\n        /* \"GitHub/contract-token-cryptoMonster/backend/shared/helpers/helpresFunc.sol\":1450:1487  structUsers_[_userAdr].balance_public */\n      0x06\n      add\n      sload\n        /* \"GitHub/contract-token-cryptoMonster/backend/shared/helpers/helpresFunc.sol\":1443:1487  return structUsers_[_userAdr].balance_public */\n      swap1\n      pop\n        /* \"GitHub/contract-token-cryptoMonster/backend/shared/helpers/helpresFunc.sol\":1352:1495  function getBalancePublicToken (address _userAdr) public view returns (uint256) {\r... */\n      swap2\n      swap1\n      pop\n      jump\t// out\n        /* \"GitHub/contract-token-cryptoMonster/backend/shared/helpers/helpresFunc.sol\":632:742  function get_blackList() public onlyOwner view returns (address[] memory) {\r... */\n    tag_28:\n        /* \"GitHub/contract-token-cryptoMonster/backend/shared/helpers/helpresFunc.sol\":688:704  address[] memory */\n      0x60\n        /* \"GitHub/contract-token-cryptoMonster/backend/shared/helpers/modifireFunc.sol\":320:337  Role.SYSTEM_OWNER */\n      0x00\n        /* \"GitHub/contract-token-cryptoMonster/backend/shared/helpers/modifireFunc.sol\":287:337  structUsers_[msg.sender].role == Role.SYSTEM_OWNER */\n      0x04\n      dup2\n      gt\n      iszero\n      tag_59\n      jumpi\n      tag_60\n      tag_61\n      jump\t// in\n    tag_60:\n    tag_59:\n        /* \"GitHub/contract-token-cryptoMonster/backend/shared/helpers/modifireFunc.sol\":287:299  structUsers_ */\n      0x00\n        /* \"GitHub/contract-token-cryptoMonster/backend/shared/helpers/modifireFunc.sol\":287:311  structUsers_[msg.sender] */\n      dup1\n        /* \"GitHub/contract-token-cryptoMonster/backend/shared/helpers/modifireFunc.sol\":300:310  msg.sender */\n      caller\n        /* \"GitHub/contract-token-cryptoMonster/backend/shared/helpers/modifireFunc.sol\":287:311  structUsers_[msg.sender] */\n      0xffffffffffffffffffffffffffffffffffffffff\n      and\n      0xffffffffffffffffffffffffffffffffffffffff\n      and\n      dup2\n      mstore\n      0x20\n      add\n      swap1\n      dup2\n      mstore\n      0x20\n      add\n      0x00\n      keccak256\n        /* \"GitHub/contract-token-cryptoMonster/backend/shared/helpers/modifireFunc.sol\":287:316  structUsers_[msg.sender].role */\n      0x00\n      add\n      0x00\n      swap1\n      sload\n      swap1\n      0x0100\n      exp\n      swap1\n      div\n      0xff\n      and\n        /* \"GitHub/contract-token-cryptoMonster/backend/shared/helpers/modifireFunc.sol\":287:337  structUsers_[msg.sender].role == Role.SYSTEM_OWNER */\n      0x04\n      dup2\n      gt\n      iszero\n      tag_62\n      jumpi\n      tag_63\n      tag_61\n      jump\t// in\n    tag_63:\n    tag_62:\n      eq\n        /* \"GitHub/contract-token-cryptoMonster/backend/shared/helpers/modifireFunc.sol\":279:356  require(structUsers_[msg.sender].role == Role.SYSTEM_OWNER, \"Your not admin\") */\n      tag_64\n      jumpi\n      mload(0x40)\n      0x08c379a000000000000000000000000000000000000000000000000000000000\n      dup2\n      mstore\n      0x04\n      add\n      tag_65\n      swap1\n      tag_66\n      jump\t// in\n    tag_65:\n      mload(0x40)\n      dup1\n      swap2\n      sub\n      swap1\n      revert\n    tag_64:\n        /* \"GitHub/contract-token-cryptoMonster/backend/shared/helpers/helpresFunc.sol\":724:733  blackList */\n      0x08\n        /* \"GitHub/contract-token-cryptoMonster/backend/shared/helpers/helpresFunc.sol\":717:734  return(blackList) */\n      dup1\n      sload\n      dup1\n      0x20\n      mul\n      0x20\n      add\n      mload(0x40)\n      swap1\n      dup2\n      add\n      0x40\n      mstore\n      dup1\n      swap3\n      swap2\n      swap1\n      dup2\n      dup2\n      mstore\n      0x20\n      add\n      dup3\n      dup1\n      sload\n      dup1\n      iszero\n      tag_68\n      jumpi\n      0x20\n      mul\n      dup3\n      add\n      swap2\n      swap1\n      0x00\n      mstore\n      keccak256(0x00, 0x20)\n      swap1\n    tag_69:\n      dup2\n      0x00\n      swap1\n      sload\n      swap1\n      0x0100\n      exp\n      swap1\n      div\n      0xffffffffffffffffffffffffffffffffffffffff\n      and\n      0xffffffffffffffffffffffffffffffffffffffff\n      and\n      dup2\n      mstore\n      0x20\n      add\n      swap1\n      0x01\n      add\n      swap1\n      dup1\n      dup4\n      gt\n      tag_69\n      jumpi\n    tag_68:\n      pop\n      pop\n      pop\n      pop\n      pop\n      swap1\n      pop\n        /* \"GitHub/contract-token-cryptoMonster/backend/shared/helpers/helpresFunc.sol\":632:742  function get_blackList() public onlyOwner view returns (address[] memory) {\r... */\n      swap1\n      jump\t// out\n        /* \"GitHub/contract-token-cryptoMonster/backend/shared/helpers/helpresFunc.sol\":212:350  function get_keccak256(string memory _hash) public pure returns(bytes32) {\r... */\n    tag_34:\n        /* \"GitHub/contract-token-cryptoMonster/backend/shared/helpers/helpresFunc.sol\":276:283  bytes32 */\n      0x00\n        /* \"GitHub/contract-token-cryptoMonster/backend/shared/helpers/helpresFunc.sol\":334:339  _hash */\n      dup2\n        /* \"GitHub/contract-token-cryptoMonster/backend/shared/helpers/helpresFunc.sol\":317:340  abi.encodePacked(_hash) */\n      add(0x20, mload(0x40))\n      tag_71\n      swap2\n      swap1\n      tag_72\n      jump\t// in\n    tag_71:\n      mload(0x40)\n      0x20\n      dup2\n      dup4\n      sub\n      sub\n      dup2\n      mstore\n      swap1\n      0x40\n      mstore\n        /* \"GitHub/contract-token-cryptoMonster/backend/shared/helpers/helpresFunc.sol\":307:341  keccak256(abi.encodePacked(_hash)) */\n      dup1\n      mload\n      swap1\n      0x20\n      add\n      keccak256\n        /* \"GitHub/contract-token-cryptoMonster/backend/shared/helpers/helpresFunc.sol\":300:342  return(keccak256(abi.encodePacked(_hash))) */\n      swap1\n      pop\n        /* \"GitHub/contract-token-cryptoMonster/backend/shared/helpers/helpresFunc.sol\":212:350  function get_keccak256(string memory _hash) public pure returns(bytes32) {\r... */\n      swap2\n      swap1\n      pop\n      jump\t// out\n        /* \"GitHub/contract-token-cryptoMonster/backend/shared/lib/structures.sol\":1385:1418  uint public tokenAmount_ = 100000 */\n    tag_38:\n      sload(0x03)\n      dup2\n      jump\t// out\n        /* \"GitHub/contract-token-cryptoMonster/backend/shared/helpers/helpresFunc.sol\":1595:1706  function getBalanceEth(address adr) public view returns(uint256) {\r... */\n    tag_42:\n        /* \"GitHub/contract-token-cryptoMonster/backend/shared/helpers/helpresFunc.sol\":1651:1658  uint256 */\n      0x00\n        /* \"GitHub/contract-token-cryptoMonster/backend/shared/helpers/helpresFunc.sol\":1686:1689  adr */\n      dup2\n        /* \"GitHub/contract-token-cryptoMonster/backend/shared/helpers/helpresFunc.sol\":1678:1698  address(adr).balance */\n      0xffffffffffffffffffffffffffffffffffffffff\n      and\n      balance\n        /* \"GitHub/contract-token-cryptoMonster/backend/shared/helpers/helpresFunc.sol\":1671:1698  return address(adr).balance */\n      swap1\n      pop\n        /* \"GitHub/contract-token-cryptoMonster/backend/shared/helpers/helpresFunc.sol\":1595:1706  function getBalanceEth(address adr) public view returns(uint256) {\r... */\n      swap2\n      swap1\n      pop\n      jump\t// out\n        /* \"GitHub/contract-token-cryptoMonster/backend/shared/helpers/helpresFunc.sol\":1098:1243  function getBalancePrivateToken (address _userAdr) public view returns (uint256) {\r... */\n    tag_46:\n        /* \"GitHub/contract-token-cryptoMonster/backend/shared/helpers/helpresFunc.sol\":1170:1177  uint256 */\n      0x00\n        /* \"GitHub/contract-token-cryptoMonster/backend/shared/helpers/helpresFunc.sol\":1197:1209  structUsers_ */\n      dup1\n        /* \"GitHub/contract-token-cryptoMonster/backend/shared/helpers/helpresFunc.sol\":1197:1219  structUsers_[_userAdr] */\n      0x00\n        /* \"GitHub/contract-token-cryptoMonster/backend/shared/helpers/helpresFunc.sol\":1210:1218  _userAdr */\n      dup4\n        /* \"GitHub/contract-token-cryptoMonster/backend/shared/helpers/helpresFunc.sol\":1197:1219  structUsers_[_userAdr] */\n      0xffffffffffffffffffffffffffffffffffffffff\n      and\n      0xffffffffffffffffffffffffffffffffffffffff\n      and\n      dup2\n      mstore\n      0x20\n      add\n      swap1\n      dup2\n      mstore\n      0x20\n      add\n      0x00\n      keccak256\n        /* \"GitHub/contract-token-cryptoMonster/backend/shared/helpers/helpresFunc.sol\":1197:1235  structUsers_[_userAdr].balance_private */\n      0x05\n      add\n      sload\n        /* \"GitHub/contract-token-cryptoMonster/backend/shared/helpers/helpresFunc.sol\":1190:1235  return structUsers_[_userAdr].balance_private */\n      swap1\n      pop\n        /* \"GitHub/contract-token-cryptoMonster/backend/shared/helpers/helpresFunc.sol\":1098:1243  function getBalancePrivateToken (address _userAdr) public view returns (uint256) {\r... */\n      swap2\n      swap1\n      pop\n      jump\t// out\n        /* \"GitHub/contract-token-cryptoMonster/backend/shared/helpers/helpresFunc.sol\":426:554  function get_whiteList() public onlyOwnerAndPrivateProvider view returns (address[] memory) {\r... */\n    tag_49:\n        /* \"GitHub/contract-token-cryptoMonster/backend/shared/helpers/helpresFunc.sol\":500:516  address[] memory */\n      0x60\n        /* \"GitHub/contract-token-cryptoMonster/backend/shared/helpers/modifireFunc.sol\":1116:1133  Role.SYSTEM_OWNER */\n      0x00\n        /* \"GitHub/contract-token-cryptoMonster/backend/shared/helpers/modifireFunc.sol\":1083:1133  structUsers_[msg.sender].role == Role.SYSTEM_OWNER */\n      0x04\n      dup2\n      gt\n      iszero\n      tag_76\n      jumpi\n      tag_77\n      tag_61\n      jump\t// in\n    tag_77:\n    tag_76:\n        /* \"GitHub/contract-token-cryptoMonster/backend/shared/helpers/modifireFunc.sol\":1083:1095  structUsers_ */\n      0x00\n        /* \"GitHub/contract-token-cryptoMonster/backend/shared/helpers/modifireFunc.sol\":1083:1107  structUsers_[msg.sender] */\n      dup1\n        /* \"GitHub/contract-token-cryptoMonster/backend/shared/helpers/modifireFunc.sol\":1096:1106  msg.sender */\n      caller\n        /* \"GitHub/contract-token-cryptoMonster/backend/shared/helpers/modifireFunc.sol\":1083:1107  structUsers_[msg.sender] */\n      0xffffffffffffffffffffffffffffffffffffffff\n      and\n      0xffffffffffffffffffffffffffffffffffffffff\n      and\n      dup2\n      mstore\n      0x20\n      add\n      swap1\n      dup2\n      mstore\n      0x20\n      add\n      0x00\n      keccak256\n        /* \"GitHub/contract-token-cryptoMonster/backend/shared/helpers/modifireFunc.sol\":1083:1112  structUsers_[msg.sender].role */\n      0x00\n      add\n      0x00\n      swap1\n      sload\n      swap1\n      0x0100\n      exp\n      swap1\n      div\n      0xff\n      and\n        /* \"GitHub/contract-token-cryptoMonster/backend/shared/helpers/modifireFunc.sol\":1083:1133  structUsers_[msg.sender].role == Role.SYSTEM_OWNER */\n      0x04\n      dup2\n      gt\n      iszero\n      tag_78\n      jumpi\n      tag_79\n      tag_61\n      jump\t// in\n    tag_79:\n    tag_78:\n      eq\n        /* \"GitHub/contract-token-cryptoMonster/backend/shared/helpers/modifireFunc.sol\":1083:1189  structUsers_[msg.sender].role == Role.SYSTEM_OWNER || structUsers_[msg.sender].role == Role.SYSTEM_PRIVATE */\n      dup1\n      tag_80\n      jumpi\n      pop\n        /* \"GitHub/contract-token-cryptoMonster/backend/shared/helpers/modifireFunc.sol\":1170:1189  Role.SYSTEM_PRIVATE */\n      0x02\n        /* \"GitHub/contract-token-cryptoMonster/backend/shared/helpers/modifireFunc.sol\":1137:1189  structUsers_[msg.sender].role == Role.SYSTEM_PRIVATE */\n      0x04\n      dup2\n      gt\n      iszero\n      tag_81\n      jumpi\n      tag_82\n      tag_61\n      jump\t// in\n    tag_82:\n    tag_81:\n        /* \"GitHub/contract-token-cryptoMonster/backend/shared/helpers/modifireFunc.sol\":1137:1149  structUsers_ */\n      0x00\n        /* \"GitHub/contract-token-cryptoMonster/backend/shared/helpers/modifireFunc.sol\":1137:1161  structUsers_[msg.sender] */\n      dup1\n        /* \"GitHub/contract-token-cryptoMonster/backend/shared/helpers/modifireFunc.sol\":1150:1160  msg.sender */\n      caller\n        /* \"GitHub/contract-token-cryptoMonster/backend/shared/helpers/modifireFunc.sol\":1137:1161  structUsers_[msg.sender] */\n      0xffffffffffffffffffffffffffffffffffffffff\n      and\n      0xffffffffffffffffffffffffffffffffffffffff\n      and\n      dup2\n      mstore\n      0x20\n      add\n      swap1\n      dup2\n      mstore\n      0x20\n      add\n      0x00\n      keccak256\n        /* \"GitHub/contract-token-cryptoMonster/backend/shared/helpers/modifireFunc.sol\":1137:1166  structUsers_[msg.sender].role */\n      0x00\n      add\n      0x00\n      swap1\n      sload\n      swap1\n      0x0100\n      exp\n      swap1\n      div\n      0xff\n      and\n        /* \"GitHub/contract-token-cryptoMonster/backend/shared/helpers/modifireFunc.sol\":1137:1189  structUsers_[msg.sender].role == Role.SYSTEM_PRIVATE */\n      0x04\n      dup2\n      gt\n      iszero\n      tag_83\n      jumpi\n      tag_84\n      tag_61\n      jump\t// in\n    tag_84:\n    tag_83:\n      eq\n        /* \"GitHub/contract-token-cryptoMonster/backend/shared/helpers/modifireFunc.sol\":1083:1189  structUsers_[msg.sender].role == Role.SYSTEM_OWNER || structUsers_[msg.sender].role == Role.SYSTEM_PRIVATE */\n    tag_80:\n        /* \"GitHub/contract-token-cryptoMonster/backend/shared/helpers/modifireFunc.sol\":1075:1235  require(structUsers_[msg.sender].role == Role.SYSTEM_OWNER || structUsers_[msg.sender].role == Role.SYSTEM_PRIVATE, \"You are not the owner or private provider\") */\n      tag_85\n      jumpi\n      mload(0x40)\n      0x08c379a000000000000000000000000000000000000000000000000000000000\n      dup2\n      mstore\n      0x04\n      add\n      tag_86\n      swap1\n      tag_87\n      jump\t// in\n    tag_86:\n      mload(0x40)\n      dup1\n      swap2\n      sub\n      swap1\n      revert\n    tag_85:\n        /* \"GitHub/contract-token-cryptoMonster/backend/shared/helpers/helpresFunc.sol\":536:545  whiteList */\n      0x07\n        /* \"GitHub/contract-token-cryptoMonster/backend/shared/helpers/helpresFunc.sol\":529:546  return(whiteList) */\n      dup1\n      sload\n      dup1\n      0x20\n      mul\n      0x20\n      add\n      mload(0x40)\n      swap1\n      dup2\n      add\n      0x40\n      mstore\n      dup1\n      swap3\n      swap2\n      swap1\n      dup2\n      dup2\n      mstore\n      0x20\n      add\n      dup3\n      dup1\n      sload\n      dup1\n      iszero\n      tag_89\n      jumpi\n      0x20\n      mul\n      dup3\n      add\n      swap2\n      swap1\n      0x00\n      mstore\n      keccak256(0x00, 0x20)\n      swap1\n    tag_90:\n      dup2\n      0x00\n      swap1\n      sload\n      swap1\n      0x0100\n      exp\n      swap1\n      div\n      0xffffffffffffffffffffffffffffffffffffffff\n      and\n      0xffffffffffffffffffffffffffffffffffffffff\n      and\n      dup2\n      mstore\n      0x20\n      add\n      swap1\n      0x01\n      add\n      swap1\n      dup1\n      dup4\n      gt\n      tag_90\n      jumpi\n    tag_89:\n      pop\n      pop\n      pop\n      pop\n      pop\n      swap1\n      pop\n        /* \"GitHub/contract-token-cryptoMonster/backend/shared/helpers/helpresFunc.sol\":426:554  function get_whiteList() public onlyOwnerAndPrivateProvider view returns (address[] memory) {\r... */\n      swap1\n      jump\t// out\n        /* \"GitHub/contract-token-cryptoMonster/backend/shared/lib/structures.sol\":836:887  mapping (address => structUser) public structUsers_ */\n    tag_53:\n      mstore(0x20, 0x00)\n      dup1\n      0x00\n      mstore\n      keccak256(0x00, 0x40)\n      0x00\n      swap2\n      pop\n      swap1\n      pop\n      dup1\n      0x00\n      add\n      0x00\n      swap1\n      sload\n      swap1\n      0x0100\n      exp\n      swap1\n      div\n      0xff\n      and\n      swap1\n      dup1\n      0x01\n      add\n      dup1\n      sload\n      tag_91\n      swap1\n      tag_92\n      jump\t// in\n    tag_91:\n      dup1\n      0x1f\n      add\n      0x20\n      dup1\n      swap2\n      div\n      mul\n      0x20\n      add\n      mload(0x40)\n      swap1\n      dup2\n      add\n      0x40\n      mstore\n      dup1\n      swap3\n      swap2\n      swap1\n      dup2\n      dup2\n      mstore\n      0x20\n      add\n      dup3\n      dup1\n      sload\n      tag_93\n      swap1\n      tag_92\n      jump\t// in\n    tag_93:\n      dup1\n      iszero\n      tag_94\n      jumpi\n      dup1\n      0x1f\n      lt\n      tag_95\n      jumpi\n      0x0100\n      dup1\n      dup4\n      sload\n      div\n      mul\n      dup4\n      mstore\n      swap2\n      0x20\n      add\n      swap2\n      jump(tag_94)\n    tag_95:\n      dup3\n      add\n      swap2\n      swap1\n      0x00\n      mstore\n      keccak256(0x00, 0x20)\n      swap1\n    tag_96:\n      dup2\n      sload\n      dup2\n      mstore\n      swap1\n      0x01\n      add\n      swap1\n      0x20\n      add\n      dup1\n      dup4\n      gt\n      tag_96\n      jumpi\n      dup3\n      swap1\n      sub\n      0x1f\n      and\n      dup3\n      add\n      swap2\n    tag_94:\n      pop\n      pop\n      pop\n      pop\n      pop\n      swap1\n      dup1\n      0x02\n      add\n      sload\n      swap1\n      dup1\n      0x03\n      add\n      sload\n      swap1\n      dup1\n      0x04\n      add\n      sload\n      swap1\n      dup1\n      0x05\n      add\n      sload\n      swap1\n      dup1\n      0x06\n      add\n      sload\n      swap1\n      pop\n      dup8\n      jump\t// out\n        /* \"#utility.yul\":7:419   */\n    tag_98:\n        /* \"#utility.yul\":85:90   */\n      0x00\n        /* \"#utility.yul\":110:176   */\n      tag_100\n        /* \"#utility.yul\":126:175   */\n      tag_101\n        /* \"#utility.yul\":168:174   */\n      dup5\n        /* \"#utility.yul\":126:175   */\n      tag_102\n      jump\t// in\n    tag_101:\n        /* \"#utility.yul\":110:176   */\n      tag_103\n      jump\t// in\n    tag_100:\n        /* \"#utility.yul\":101:176   */\n      swap1\n      pop\n        /* \"#utility.yul\":199:205   */\n      dup3\n        /* \"#utility.yul\":192:197   */\n      dup2\n        /* \"#utility.yul\":185:206   */\n      mstore\n        /* \"#utility.yul\":237:241   */\n      0x20\n        /* \"#utility.yul\":230:235   */\n      dup2\n        /* \"#utility.yul\":226:242   */\n      add\n        /* \"#utility.yul\":275:278   */\n      dup5\n        /* \"#utility.yul\":266:272   */\n      dup5\n        /* \"#utility.yul\":261:264   */\n      dup5\n        /* \"#utility.yul\":257:273   */\n      add\n        /* \"#utility.yul\":254:279   */\n      gt\n        /* \"#utility.yul\":251:363   */\n      iszero\n      tag_104\n      jumpi\n        /* \"#utility.yul\":282:361   */\n      tag_105\n      tag_106\n      jump\t// in\n    tag_105:\n        /* \"#utility.yul\":251:363   */\n    tag_104:\n        /* \"#utility.yul\":372:413   */\n      tag_107\n        /* \"#utility.yul\":406:412   */\n      dup5\n        /* \"#utility.yul\":401:404   */\n      dup3\n        /* \"#utility.yul\":396:399   */\n      dup6\n        /* \"#utility.yul\":372:413   */\n      tag_108\n      jump\t// in\n    tag_107:\n        /* \"#utility.yul\":91:419   */\n      pop\n        /* \"#utility.yul\":7:419   */\n      swap4\n      swap3\n      pop\n      pop\n      pop\n      jump\t// out\n        /* \"#utility.yul\":425:564   */\n    tag_109:\n        /* \"#utility.yul\":471:476   */\n      0x00\n        /* \"#utility.yul\":509:515   */\n      dup2\n        /* \"#utility.yul\":496:516   */\n      calldataload\n        /* \"#utility.yul\":487:516   */\n      swap1\n      pop\n        /* \"#utility.yul\":525:558   */\n      tag_111\n        /* \"#utility.yul\":552:557   */\n      dup2\n        /* \"#utility.yul\":525:558   */\n      tag_112\n      jump\t// in\n    tag_111:\n        /* \"#utility.yul\":425:564   */\n      swap3\n      swap2\n      pop\n      pop\n      jump\t// out\n        /* \"#utility.yul\":584:924   */\n    tag_113:\n        /* \"#utility.yul\":640:645   */\n      0x00\n        /* \"#utility.yul\":689:692   */\n      dup3\n        /* \"#utility.yul\":682:686   */\n      0x1f\n        /* \"#utility.yul\":674:680   */\n      dup4\n        /* \"#utility.yul\":670:687   */\n      add\n        /* \"#utility.yul\":666:693   */\n      slt\n        /* \"#utility.yul\":656:778   */\n      tag_115\n      jumpi\n        /* \"#utility.yul\":697:776   */\n      tag_116\n      tag_117\n      jump\t// in\n    tag_116:\n        /* \"#utility.yul\":656:778   */\n    tag_115:\n        /* \"#utility.yul\":814:820   */\n      dup2\n        /* \"#utility.yul\":801:821   */\n      calldataload\n        /* \"#utility.yul\":839:918   */\n      tag_118\n        /* \"#utility.yul\":914:917   */\n      dup5\n        /* \"#utility.yul\":906:912   */\n      dup3\n        /* \"#utility.yul\":899:903   */\n      0x20\n        /* \"#utility.yul\":891:897   */\n      dup7\n        /* \"#utility.yul\":887:904   */\n      add\n        /* \"#utility.yul\":839:918   */\n      tag_98\n      jump\t// in\n    tag_118:\n        /* \"#utility.yul\":830:918   */\n      swap2\n      pop\n        /* \"#utility.yul\":646:924   */\n      pop\n        /* \"#utility.yul\":584:924   */\n      swap3\n      swap2\n      pop\n      pop\n      jump\t// out\n        /* \"#utility.yul\":930:1259   */\n    tag_20:\n        /* \"#utility.yul\":989:995   */\n      0x00\n        /* \"#utility.yul\":1038:1040   */\n      0x20\n        /* \"#utility.yul\":1026:1035   */\n      dup3\n        /* \"#utility.yul\":1017:1024   */\n      dup5\n        /* \"#utility.yul\":1013:1036   */\n      sub\n        /* \"#utility.yul\":1009:1041   */\n      slt\n        /* \"#utility.yul\":1006:1125   */\n      iszero\n      tag_120\n      jumpi\n        /* \"#utility.yul\":1044:1123   */\n      tag_121\n      tag_122\n      jump\t// in\n    tag_121:\n        /* \"#utility.yul\":1006:1125   */\n    tag_120:\n        /* \"#utility.yul\":1164:1165   */\n      0x00\n        /* \"#utility.yul\":1189:1242   */\n      tag_123\n        /* \"#utility.yul\":1234:1241   */\n      dup5\n        /* \"#utility.yul\":1225:1231   */\n      dup3\n        /* \"#utility.yul\":1214:1223   */\n      dup6\n        /* \"#utility.yul\":1210:1232   */\n      add\n        /* \"#utility.yul\":1189:1242   */\n      tag_109\n      jump\t// in\n    tag_123:\n        /* \"#utility.yul\":1179:1242   */\n      swap2\n      pop\n        /* \"#utility.yul\":1135:1252   */\n      pop\n        /* \"#utility.yul\":930:1259   */\n      swap3\n      swap2\n      pop\n      pop\n      jump\t// out\n        /* \"#utility.yul\":1265:1774   */\n    tag_33:\n        /* \"#utility.yul\":1334:1340   */\n      0x00\n        /* \"#utility.yul\":1383:1385   */\n      0x20\n        /* \"#utility.yul\":1371:1380   */\n      dup3\n        /* \"#utility.yul\":1362:1369   */\n      dup5\n        /* \"#utility.yul\":1358:1381   */\n      sub\n        /* \"#utility.yul\":1354:1386   */\n      slt\n        /* \"#utility.yul\":1351:1470   */\n      iszero\n      tag_125\n      jumpi\n        /* \"#utility.yul\":1389:1468   */\n      tag_126\n      tag_122\n      jump\t// in\n    tag_126:\n        /* \"#utility.yul\":1351:1470   */\n    tag_125:\n        /* \"#utility.yul\":1537:1538   */\n      0x00\n        /* \"#utility.yul\":1526:1535   */\n      dup3\n        /* \"#utility.yul\":1522:1539   */\n      add\n        /* \"#utility.yul\":1509:1540   */\n      calldataload\n        /* \"#utility.yul\":1567:1585   */\n      0xffffffffffffffff\n        /* \"#utility.yul\":1559:1565   */\n      dup2\n        /* \"#utility.yul\":1556:1586   */\n      gt\n        /* \"#utility.yul\":1553:1670   */\n      iszero\n      tag_127\n      jumpi\n        /* \"#utility.yul\":1589:1668   */\n      tag_128\n      tag_129\n      jump\t// in\n    tag_128:\n        /* \"#utility.yul\":1553:1670   */\n    tag_127:\n        /* \"#utility.yul\":1694:1757   */\n      tag_130\n        /* \"#utility.yul\":1749:1756   */\n      dup5\n        /* \"#utility.yul\":1740:1746   */\n      dup3\n        /* \"#utility.yul\":1729:1738   */\n      dup6\n        /* \"#utility.yul\":1725:1747   */\n      add\n        /* \"#utility.yul\":1694:1757   */\n      tag_113\n      jump\t// in\n    tag_130:\n        /* \"#utility.yul\":1684:1757   */\n      swap2\n      pop\n        /* \"#utility.yul\":1480:1767   */\n      pop\n        /* \"#utility.yul\":1265:1774   */\n      swap3\n      swap2\n      pop\n      pop\n      jump\t// out\n        /* \"#utility.yul\":1780:1959   */\n    tag_131:\n        /* \"#utility.yul\":1849:1859   */\n      0x00\n        /* \"#utility.yul\":1870:1916   */\n      tag_133\n        /* \"#utility.yul\":1912:1915   */\n      dup4\n        /* \"#utility.yul\":1904:1910   */\n      dup4\n        /* \"#utility.yul\":1870:1916   */\n      tag_134\n      jump\t// in\n    tag_133:\n        /* \"#utility.yul\":1948:1952   */\n      0x20\n        /* \"#utility.yul\":1943:1946   */\n      dup4\n        /* \"#utility.yul\":1939:1953   */\n      add\n        /* \"#utility.yul\":1925:1953   */\n      swap1\n      pop\n        /* \"#utility.yul\":1780:1959   */\n      swap3\n      swap2\n      pop\n      pop\n      jump\t// out\n        /* \"#utility.yul\":1965:2073   */\n    tag_134:\n        /* \"#utility.yul\":2042:2066   */\n      tag_136\n        /* \"#utility.yul\":2060:2065   */\n      dup2\n        /* \"#utility.yul\":2042:2066   */\n      tag_137\n      jump\t// in\n    tag_136:\n        /* \"#utility.yul\":2037:2040   */\n      dup3\n        /* \"#utility.yul\":2030:2067   */\n      mstore\n        /* \"#utility.yul\":1965:2073   */\n      pop\n      pop\n      jump\t// out\n        /* \"#utility.yul\":2109:2841   */\n    tag_138:\n        /* \"#utility.yul\":2228:2231   */\n      0x00\n        /* \"#utility.yul\":2257:2311   */\n      tag_140\n        /* \"#utility.yul\":2305:2310   */\n      dup3\n        /* \"#utility.yul\":2257:2311   */\n      tag_141\n      jump\t// in\n    tag_140:\n        /* \"#utility.yul\":2327:2413   */\n      tag_142\n        /* \"#utility.yul\":2406:2412   */\n      dup2\n        /* \"#utility.yul\":2401:2404   */\n      dup6\n        /* \"#utility.yul\":2327:2413   */\n      tag_143\n      jump\t// in\n    tag_142:\n        /* \"#utility.yul\":2320:2413   */\n      swap4\n      pop\n        /* \"#utility.yul\":2437:2493   */\n      tag_144\n        /* \"#utility.yul\":2487:2492   */\n      dup4\n        /* \"#utility.yul\":2437:2493   */\n      tag_145\n      jump\t// in\n    tag_144:\n        /* \"#utility.yul\":2516:2523   */\n      dup1\n        /* \"#utility.yul\":2547:2548   */\n      0x00\n        /* \"#utility.yul\":2532:2816   */\n    tag_146:\n        /* \"#utility.yul\":2557:2563   */\n      dup4\n        /* \"#utility.yul\":2554:2555   */\n      dup2\n        /* \"#utility.yul\":2551:2564   */\n      lt\n        /* \"#utility.yul\":2532:2816   */\n      iszero\n      tag_148\n      jumpi\n        /* \"#utility.yul\":2633:2639   */\n      dup2\n        /* \"#utility.yul\":2627:2640   */\n      mload\n        /* \"#utility.yul\":2660:2723   */\n      tag_149\n        /* \"#utility.yul\":2719:2722   */\n      dup9\n        /* \"#utility.yul\":2704:2717   */\n      dup3\n        /* \"#utility.yul\":2660:2723   */\n      tag_131\n      jump\t// in\n    tag_149:\n        /* \"#utility.yul\":2653:2723   */\n      swap8\n      pop\n        /* \"#utility.yul\":2746:2806   */\n      tag_150\n        /* \"#utility.yul\":2799:2805   */\n      dup4\n        /* \"#utility.yul\":2746:2806   */\n      tag_151\n      jump\t// in\n    tag_150:\n        /* \"#utility.yul\":2736:2806   */\n      swap3\n      pop\n        /* \"#utility.yul\":2592:2816   */\n      pop\n        /* \"#utility.yul\":2579:2580   */\n      0x01\n        /* \"#utility.yul\":2576:2577   */\n      dup2\n        /* \"#utility.yul\":2572:2581   */\n      add\n        /* \"#utility.yul\":2567:2581   */\n      swap1\n      pop\n        /* \"#utility.yul\":2532:2816   */\n      jump(tag_146)\n    tag_148:\n        /* \"#utility.yul\":2536:2550   */\n      pop\n        /* \"#utility.yul\":2832:2835   */\n      dup6\n        /* \"#utility.yul\":2825:2835   */\n      swap4\n      pop\n        /* \"#utility.yul\":2233:2841   */\n      pop\n      pop\n      pop\n        /* \"#utility.yul\":2109:2841   */\n      swap3\n      swap2\n      pop\n      pop\n      jump\t// out\n        /* \"#utility.yul\":2847:2965   */\n    tag_152:\n        /* \"#utility.yul\":2934:2958   */\n      tag_154\n        /* \"#utility.yul\":2952:2957   */\n      dup2\n        /* \"#utility.yul\":2934:2958   */\n      tag_155\n      jump\t// in\n    tag_154:\n        /* \"#utility.yul\":2929:2932   */\n      dup3\n        /* \"#utility.yul\":2922:2959   */\n      mstore\n        /* \"#utility.yul\":2847:2965   */\n      pop\n      pop\n      jump\t// out\n        /* \"#utility.yul\":2971:3114   */\n    tag_156:\n        /* \"#utility.yul\":3064:3107   */\n      tag_158\n        /* \"#utility.yul\":3101:3106   */\n      dup2\n        /* \"#utility.yul\":3064:3107   */\n      tag_159\n      jump\t// in\n    tag_158:\n        /* \"#utility.yul\":3059:3062   */\n      dup3\n        /* \"#utility.yul\":3052:3108   */\n      mstore\n        /* \"#utility.yul\":2971:3114   */\n      pop\n      pop\n      jump\t// out\n        /* \"#utility.yul\":3120:3484   */\n    tag_160:\n        /* \"#utility.yul\":3208:3211   */\n      0x00\n        /* \"#utility.yul\":3236:3275   */\n      tag_162\n        /* \"#utility.yul\":3269:3274   */\n      dup3\n        /* \"#utility.yul\":3236:3275   */\n      tag_163\n      jump\t// in\n    tag_162:\n        /* \"#utility.yul\":3291:3362   */\n      tag_164\n        /* \"#utility.yul\":3355:3361   */\n      dup2\n        /* \"#utility.yul\":3350:3353   */\n      dup6\n        /* \"#utility.yul\":3291:3362   */\n      tag_165\n      jump\t// in\n    tag_164:\n        /* \"#utility.yul\":3284:3362   */\n      swap4\n      pop\n        /* \"#utility.yul\":3371:3423   */\n      tag_166\n        /* \"#utility.yul\":3416:3422   */\n      dup2\n        /* \"#utility.yul\":3411:3414   */\n      dup6\n        /* \"#utility.yul\":3404:3408   */\n      0x20\n        /* \"#utility.yul\":3397:3402   */\n      dup7\n        /* \"#utility.yul\":3393:3409   */\n      add\n        /* \"#utility.yul\":3371:3423   */\n      tag_167\n      jump\t// in\n    tag_166:\n        /* \"#utility.yul\":3448:3477   */\n      tag_168\n        /* \"#utility.yul\":3470:3476   */\n      dup2\n        /* \"#utility.yul\":3448:3477   */\n      tag_169\n      jump\t// in\n    tag_168:\n        /* \"#utility.yul\":3443:3446   */\n      dup5\n        /* \"#utility.yul\":3439:3478   */\n      add\n        /* \"#utility.yul\":3432:3478   */\n      swap2\n      pop\n        /* \"#utility.yul\":3212:3484   */\n      pop\n        /* \"#utility.yul\":3120:3484   */\n      swap3\n      swap2\n      pop\n      pop\n      jump\t// out\n        /* \"#utility.yul\":3490:3867   */\n    tag_170:\n        /* \"#utility.yul\":3596:3599   */\n      0x00\n        /* \"#utility.yul\":3624:3663   */\n      tag_172\n        /* \"#utility.yul\":3657:3662   */\n      dup3\n        /* \"#utility.yul\":3624:3663   */\n      tag_163\n      jump\t// in\n    tag_172:\n        /* \"#utility.yul\":3679:3768   */\n      tag_173\n        /* \"#utility.yul\":3761:3767   */\n      dup2\n        /* \"#utility.yul\":3756:3759   */\n      dup6\n        /* \"#utility.yul\":3679:3768   */\n      tag_174\n      jump\t// in\n    tag_173:\n        /* \"#utility.yul\":3672:3768   */\n      swap4\n      pop\n        /* \"#utility.yul\":3777:3829   */\n      tag_175\n        /* \"#utility.yul\":3822:3828   */\n      dup2\n        /* \"#utility.yul\":3817:3820   */\n      dup6\n        /* \"#utility.yul\":3810:3814   */\n      0x20\n        /* \"#utility.yul\":3803:3808   */\n      dup7\n        /* \"#utility.yul\":3799:3815   */\n      add\n        /* \"#utility.yul\":3777:3829   */\n      tag_167\n      jump\t// in\n    tag_175:\n        /* \"#utility.yul\":3854:3860   */\n      dup1\n        /* \"#utility.yul\":3849:3852   */\n      dup5\n        /* \"#utility.yul\":3845:3861   */\n      add\n        /* \"#utility.yul\":3838:3861   */\n      swap2\n      pop\n        /* \"#utility.yul\":3600:3867   */\n      pop\n        /* \"#utility.yul\":3490:3867   */\n      swap3\n      swap2\n      pop\n      pop\n      jump\t// out\n        /* \"#utility.yul\":3873:4239   */\n    tag_176:\n        /* \"#utility.yul\":4015:4018   */\n      0x00\n        /* \"#utility.yul\":4036:4103   */\n      tag_178\n        /* \"#utility.yul\":4100:4102   */\n      0x29\n        /* \"#utility.yul\":4095:4098   */\n      dup4\n        /* \"#utility.yul\":4036:4103   */\n      tag_165\n      jump\t// in\n    tag_178:\n        /* \"#utility.yul\":4029:4103   */\n      swap2\n      pop\n        /* \"#utility.yul\":4112:4205   */\n      tag_179\n        /* \"#utility.yul\":4201:4204   */\n      dup3\n        /* \"#utility.yul\":4112:4205   */\n      tag_180\n      jump\t// in\n    tag_179:\n        /* \"#utility.yul\":4230:4232   */\n      0x40\n        /* \"#utility.yul\":4225:4228   */\n      dup3\n        /* \"#utility.yul\":4221:4233   */\n      add\n        /* \"#utility.yul\":4214:4233   */\n      swap1\n      pop\n        /* \"#utility.yul\":3873:4239   */\n      swap2\n      swap1\n      pop\n      jump\t// out\n        /* \"#utility.yul\":4245:4611   */\n    tag_181:\n        /* \"#utility.yul\":4387:4390   */\n      0x00\n        /* \"#utility.yul\":4408:4475   */\n      tag_183\n        /* \"#utility.yul\":4472:4474   */\n      0x0e\n        /* \"#utility.yul\":4467:4470   */\n      dup4\n        /* \"#utility.yul\":4408:4475   */\n      tag_165\n      jump\t// in\n    tag_183:\n        /* \"#utility.yul\":4401:4475   */\n      swap2\n      pop\n        /* \"#utility.yul\":4484:4577   */\n      tag_184\n        /* \"#utility.yul\":4573:4576   */\n      dup3\n        /* \"#utility.yul\":4484:4577   */\n      tag_185\n      jump\t// in\n    tag_184:\n        /* \"#utility.yul\":4602:4604   */\n      0x20\n        /* \"#utility.yul\":4597:4600   */\n      dup3\n        /* \"#utility.yul\":4593:4605   */\n      add\n        /* \"#utility.yul\":4586:4605   */\n      swap1\n      pop\n        /* \"#utility.yul\":4245:4611   */\n      swap2\n      swap1\n      pop\n      jump\t// out\n        /* \"#utility.yul\":4617:4735   */\n    tag_186:\n        /* \"#utility.yul\":4704:4728   */\n      tag_188\n        /* \"#utility.yul\":4722:4727   */\n      dup2\n        /* \"#utility.yul\":4704:4728   */\n      tag_189\n      jump\t// in\n    tag_188:\n        /* \"#utility.yul\":4699:4702   */\n      dup3\n        /* \"#utility.yul\":4692:4729   */\n      mstore\n        /* \"#utility.yul\":4617:4735   */\n      pop\n      pop\n      jump\t// out\n        /* \"#utility.yul\":4741:5016   */\n    tag_72:\n        /* \"#utility.yul\":4873:4876   */\n      0x00\n        /* \"#utility.yul\":4895:4990   */\n      tag_191\n        /* \"#utility.yul\":4986:4989   */\n      dup3\n        /* \"#utility.yul\":4977:4983   */\n      dup5\n        /* \"#utility.yul\":4895:4990   */\n      tag_170\n      jump\t// in\n    tag_191:\n        /* \"#utility.yul\":4888:4990   */\n      swap2\n      pop\n        /* \"#utility.yul\":5007:5010   */\n      dup2\n        /* \"#utility.yul\":5000:5010   */\n      swap1\n      pop\n        /* \"#utility.yul\":4741:5016   */\n      swap3\n      swap2\n      pop\n      pop\n      jump\t// out\n        /* \"#utility.yul\":5022:5395   */\n    tag_30:\n        /* \"#utility.yul\":5165:5169   */\n      0x00\n        /* \"#utility.yul\":5203:5205   */\n      0x20\n        /* \"#utility.yul\":5192:5201   */\n      dup3\n        /* \"#utility.yul\":5188:5206   */\n      add\n        /* \"#utility.yul\":5180:5206   */\n      swap1\n      pop\n        /* \"#utility.yul\":5252:5261   */\n      dup2\n        /* \"#utility.yul\":5246:5250   */\n      dup2\n        /* \"#utility.yul\":5242:5262   */\n      sub\n        /* \"#utility.yul\":5238:5239   */\n      0x00\n        /* \"#utility.yul\":5227:5236   */\n      dup4\n        /* \"#utility.yul\":5223:5240   */\n      add\n        /* \"#utility.yul\":5216:5263   */\n      mstore\n        /* \"#utility.yul\":5280:5388   */\n      tag_193\n        /* \"#utility.yul\":5383:5387   */\n      dup2\n        /* \"#utility.yul\":5374:5380   */\n      dup5\n        /* \"#utility.yul\":5280:5388   */\n      tag_138\n      jump\t// in\n    tag_193:\n        /* \"#utility.yul\":5272:5388   */\n      swap1\n      pop\n        /* \"#utility.yul\":5022:5395   */\n      swap3\n      swap2\n      pop\n      pop\n      jump\t// out\n        /* \"#utility.yul\":5401:5623   */\n    tag_36:\n        /* \"#utility.yul\":5494:5498   */\n      0x00\n        /* \"#utility.yul\":5532:5534   */\n      0x20\n        /* \"#utility.yul\":5521:5530   */\n      dup3\n        /* \"#utility.yul\":5517:5535   */\n      add\n        /* \"#utility.yul\":5509:5535   */\n      swap1\n      pop\n        /* \"#utility.yul\":5545:5616   */\n      tag_195\n        /* \"#utility.yul\":5613:5614   */\n      0x00\n        /* \"#utility.yul\":5602:5611   */\n      dup4\n        /* \"#utility.yul\":5598:5615   */\n      add\n        /* \"#utility.yul\":5589:5595   */\n      dup5\n        /* \"#utility.yul\":5545:5616   */\n      tag_152\n      jump\t// in\n    tag_195:\n        /* \"#utility.yul\":5401:5623   */\n      swap3\n      swap2\n      pop\n      pop\n      jump\t// out\n        /* \"#utility.yul\":5629:6618   */\n    tag_55:\n        /* \"#utility.yul\":5916:5920   */\n      0x00\n        /* \"#utility.yul\":5954:5957   */\n      0xe0\n        /* \"#utility.yul\":5943:5952   */\n      dup3\n        /* \"#utility.yul\":5939:5958   */\n      add\n        /* \"#utility.yul\":5931:5958   */\n      swap1\n      pop\n        /* \"#utility.yul\":5968:6045   */\n      tag_197\n        /* \"#utility.yul\":6042:6043   */\n      0x00\n        /* \"#utility.yul\":6031:6040   */\n      dup4\n        /* \"#utility.yul\":6027:6044   */\n      add\n        /* \"#utility.yul\":6018:6024   */\n      dup11\n        /* \"#utility.yul\":5968:6045   */\n      tag_156\n      jump\t// in\n    tag_197:\n        /* \"#utility.yul\":6092:6101   */\n      dup2\n        /* \"#utility.yul\":6086:6090   */\n      dup2\n        /* \"#utility.yul\":6082:6102   */\n      sub\n        /* \"#utility.yul\":6077:6079   */\n      0x20\n        /* \"#utility.yul\":6066:6075   */\n      dup4\n        /* \"#utility.yul\":6062:6080   */\n      add\n        /* \"#utility.yul\":6055:6103   */\n      mstore\n        /* \"#utility.yul\":6120:6198   */\n      tag_198\n        /* \"#utility.yul\":6193:6197   */\n      dup2\n        /* \"#utility.yul\":6184:6190   */\n      dup10\n        /* \"#utility.yul\":6120:6198   */\n      tag_160\n      jump\t// in\n    tag_198:\n        /* \"#utility.yul\":6112:6198   */\n      swap1\n      pop\n        /* \"#utility.yul\":6208:6280   */\n      tag_199\n        /* \"#utility.yul\":6276:6278   */\n      0x40\n        /* \"#utility.yul\":6265:6274   */\n      dup4\n        /* \"#utility.yul\":6261:6279   */\n      add\n        /* \"#utility.yul\":6252:6258   */\n      dup9\n        /* \"#utility.yul\":6208:6280   */\n      tag_152\n      jump\t// in\n    tag_199:\n        /* \"#utility.yul\":6290:6362   */\n      tag_200\n        /* \"#utility.yul\":6358:6360   */\n      0x60\n        /* \"#utility.yul\":6347:6356   */\n      dup4\n        /* \"#utility.yul\":6343:6361   */\n      add\n        /* \"#utility.yul\":6334:6340   */\n      dup8\n        /* \"#utility.yul\":6290:6362   */\n      tag_186\n      jump\t// in\n    tag_200:\n        /* \"#utility.yul\":6372:6445   */\n      tag_201\n        /* \"#utility.yul\":6440:6443   */\n      0x80\n        /* \"#utility.yul\":6429:6438   */\n      dup4\n        /* \"#utility.yul\":6425:6444   */\n      add\n        /* \"#utility.yul\":6416:6422   */\n      dup7\n        /* \"#utility.yul\":6372:6445   */\n      tag_186\n      jump\t// in\n    tag_201:\n        /* \"#utility.yul\":6455:6528   */\n      tag_202\n        /* \"#utility.yul\":6523:6526   */\n      0xa0\n        /* \"#utility.yul\":6512:6521   */\n      dup4\n        /* \"#utility.yul\":6508:6527   */\n      add\n        /* \"#utility.yul\":6499:6505   */\n      dup6\n        /* \"#utility.yul\":6455:6528   */\n      tag_186\n      jump\t// in\n    tag_202:\n        /* \"#utility.yul\":6538:6611   */\n      tag_203\n        /* \"#utility.yul\":6606:6609   */\n      0xc0\n        /* \"#utility.yul\":6595:6604   */\n      dup4\n        /* \"#utility.yul\":6591:6610   */\n      add\n        /* \"#utility.yul\":6582:6588   */\n      dup5\n        /* \"#utility.yul\":6538:6611   */\n      tag_186\n      jump\t// in\n    tag_203:\n        /* \"#utility.yul\":5629:6618   */\n      swap9\n      swap8\n      pop\n      pop\n      pop\n      pop\n      pop\n      pop\n      pop\n      pop\n      jump\t// out\n        /* \"#utility.yul\":6624:7043   */\n    tag_87:\n        /* \"#utility.yul\":6790:6794   */\n      0x00\n        /* \"#utility.yul\":6828:6830   */\n      0x20\n        /* \"#utility.yul\":6817:6826   */\n      dup3\n        /* \"#utility.yul\":6813:6831   */\n      add\n        /* \"#utility.yul\":6805:6831   */\n      swap1\n      pop\n        /* \"#utility.yul\":6877:6886   */\n      dup2\n        /* \"#utility.yul\":6871:6875   */\n      dup2\n        /* \"#utility.yul\":6867:6887   */\n      sub\n        /* \"#utility.yul\":6863:6864   */\n      0x00\n        /* \"#utility.yul\":6852:6861   */\n      dup4\n        /* \"#utility.yul\":6848:6865   */\n      add\n        /* \"#utility.yul\":6841:6888   */\n      mstore\n        /* \"#utility.yul\":6905:7036   */\n      tag_205\n        /* \"#utility.yul\":7031:7035   */\n      dup2\n        /* \"#utility.yul\":6905:7036   */\n      tag_176\n      jump\t// in\n    tag_205:\n        /* \"#utility.yul\":6897:7036   */\n      swap1\n      pop\n        /* \"#utility.yul\":6624:7043   */\n      swap2\n      swap1\n      pop\n      jump\t// out\n        /* \"#utility.yul\":7049:7468   */\n    tag_66:\n        /* \"#utility.yul\":7215:7219   */\n      0x00\n        /* \"#utility.yul\":7253:7255   */\n      0x20\n        /* \"#utility.yul\":7242:7251   */\n      dup3\n        /* \"#utility.yul\":7238:7256   */\n      add\n        /* \"#utility.yul\":7230:7256   */\n      swap1\n      pop\n        /* \"#utility.yul\":7302:7311   */\n      dup2\n        /* \"#utility.yul\":7296:7300   */\n      dup2\n        /* \"#utility.yul\":7292:7312   */\n      sub\n        /* \"#utility.yul\":7288:7289   */\n      0x00\n        /* \"#utility.yul\":7277:7286   */\n      dup4\n        /* \"#utility.yul\":7273:7290   */\n      add\n        /* \"#utility.yul\":7266:7313   */\n      mstore\n        /* \"#utility.yul\":7330:7461   */\n      tag_207\n        /* \"#utility.yul\":7456:7460   */\n      dup2\n        /* \"#utility.yul\":7330:7461   */\n      tag_181\n      jump\t// in\n    tag_207:\n        /* \"#utility.yul\":7322:7461   */\n      swap1\n      pop\n        /* \"#utility.yul\":7049:7468   */\n      swap2\n      swap1\n      pop\n      jump\t// out\n        /* \"#utility.yul\":7474:7696   */\n    tag_17:\n        /* \"#utility.yul\":7567:7571   */\n      0x00\n        /* \"#utility.yul\":7605:7607   */\n      0x20\n        /* \"#utility.yul\":7594:7603   */\n      dup3\n        /* \"#utility.yul\":7590:7608   */\n      add\n        /* \"#utility.yul\":7582:7608   */\n      swap1\n      pop\n        /* \"#utility.yul\":7618:7689   */\n      tag_209\n        /* \"#utility.yul\":7686:7687   */\n      0x00\n        /* \"#utility.yul\":7675:7684   */\n      dup4\n        /* \"#utility.yul\":7671:7688   */\n      add\n        /* \"#utility.yul\":7662:7668   */\n      dup5\n        /* \"#utility.yul\":7618:7689   */\n      tag_186\n      jump\t// in\n    tag_209:\n        /* \"#utility.yul\":7474:7696   */\n      swap3\n      swap2\n      pop\n      pop\n      jump\t// out\n        /* \"#utility.yul\":7702:7831   */\n    tag_103:\n        /* \"#utility.yul\":7736:7742   */\n      0x00\n        /* \"#utility.yul\":7763:7783   */\n      tag_211\n      tag_212\n      jump\t// in\n    tag_211:\n        /* \"#utility.yul\":7753:7783   */\n      swap1\n      pop\n        /* \"#utility.yul\":7792:7825   */\n      tag_213\n        /* \"#utility.yul\":7820:7824   */\n      dup3\n        /* \"#utility.yul\":7812:7818   */\n      dup3\n        /* \"#utility.yul\":7792:7825   */\n      tag_214\n      jump\t// in\n    tag_213:\n        /* \"#utility.yul\":7702:7831   */\n      swap2\n      swap1\n      pop\n      jump\t// out\n        /* \"#utility.yul\":7837:7912   */\n    tag_212:\n        /* \"#utility.yul\":7870:7876   */\n      0x00\n        /* \"#utility.yul\":7903:7905   */\n      0x40\n        /* \"#utility.yul\":7897:7906   */\n      mload\n        /* \"#utility.yul\":7887:7906   */\n      swap1\n      pop\n        /* \"#utility.yul\":7837:7912   */\n      swap1\n      jump\t// out\n        /* \"#utility.yul\":7918:8226   */\n    tag_102:\n        /* \"#utility.yul\":7980:7984   */\n      0x00\n        /* \"#utility.yul\":8070:8088   */\n      0xffffffffffffffff\n        /* \"#utility.yul\":8062:8068   */\n      dup3\n        /* \"#utility.yul\":8059:8089   */\n      gt\n        /* \"#utility.yul\":8056:8112   */\n      iszero\n      tag_217\n      jumpi\n        /* \"#utility.yul\":8092:8110   */\n      tag_218\n      tag_219\n      jump\t// in\n    tag_218:\n        /* \"#utility.yul\":8056:8112   */\n    tag_217:\n        /* \"#utility.yul\":8130:8159   */\n      tag_220\n        /* \"#utility.yul\":8152:8158   */\n      dup3\n        /* \"#utility.yul\":8130:8159   */\n      tag_169\n      jump\t// in\n    tag_220:\n        /* \"#utility.yul\":8122:8159   */\n      swap1\n      pop\n        /* \"#utility.yul\":8214:8218   */\n      0x20\n        /* \"#utility.yul\":8208:8212   */\n      dup2\n        /* \"#utility.yul\":8204:8219   */\n      add\n        /* \"#utility.yul\":8196:8219   */\n      swap1\n      pop\n        /* \"#utility.yul\":7918:8226   */\n      swap2\n      swap1\n      pop\n      jump\t// out\n        /* \"#utility.yul\":8232:8364   */\n    tag_145:\n        /* \"#utility.yul\":8299:8303   */\n      0x00\n        /* \"#utility.yul\":8322:8325   */\n      dup2\n        /* \"#utility.yul\":8314:8325   */\n      swap1\n      pop\n        /* \"#utility.yul\":8352:8356   */\n      0x20\n        /* \"#utility.yul\":8347:8350   */\n      dup3\n        /* \"#utility.yul\":8343:8357   */\n      add\n        /* \"#utility.yul\":8335:8357   */\n      swap1\n      pop\n        /* \"#utility.yul\":8232:8364   */\n      swap2\n      swap1\n      pop\n      jump\t// out\n        /* \"#utility.yul\":8370:8484   */\n    tag_141:\n        /* \"#utility.yul\":8437:8443   */\n      0x00\n        /* \"#utility.yul\":8471:8476   */\n      dup2\n        /* \"#utility.yul\":8465:8477   */\n      mload\n        /* \"#utility.yul\":8455:8477   */\n      swap1\n      pop\n        /* \"#utility.yul\":8370:8484   */\n      swap2\n      swap1\n      pop\n      jump\t// out\n        /* \"#utility.yul\":8490:8589   */\n    tag_163:\n        /* \"#utility.yul\":8542:8548   */\n      0x00\n        /* \"#utility.yul\":8576:8581   */\n      dup2\n        /* \"#utility.yul\":8570:8582   */\n      mload\n        /* \"#utility.yul\":8560:8582   */\n      swap1\n      pop\n        /* \"#utility.yul\":8490:8589   */\n      swap2\n      swap1\n      pop\n      jump\t// out\n        /* \"#utility.yul\":8595:8708   */\n    tag_151:\n        /* \"#utility.yul\":8665:8669   */\n      0x00\n        /* \"#utility.yul\":8697:8701   */\n      0x20\n        /* \"#utility.yul\":8692:8695   */\n      dup3\n        /* \"#utility.yul\":8688:8702   */\n      add\n        /* \"#utility.yul\":8680:8702   */\n      swap1\n      pop\n        /* \"#utility.yul\":8595:8708   */\n      swap2\n      swap1\n      pop\n      jump\t// out\n        /* \"#utility.yul\":8714:8898   */\n    tag_143:\n        /* \"#utility.yul\":8813:8824   */\n      0x00\n        /* \"#utility.yul\":8847:8853   */\n      dup3\n        /* \"#utility.yul\":8842:8845   */\n      dup3\n        /* \"#utility.yul\":8835:8854   */\n      mstore\n        /* \"#utility.yul\":8887:8891   */\n      0x20\n        /* \"#utility.yul\":8882:8885   */\n      dup3\n        /* \"#utility.yul\":8878:8892   */\n      add\n        /* \"#utility.yul\":8863:8892   */\n      swap1\n      pop\n        /* \"#utility.yul\":8714:8898   */\n      swap3\n      swap2\n      pop\n      pop\n      jump\t// out\n        /* \"#utility.yul\":8904:9073   */\n    tag_165:\n        /* \"#utility.yul\":8988:8999   */\n      0x00\n        /* \"#utility.yul\":9022:9028   */\n      dup3\n        /* \"#utility.yul\":9017:9020   */\n      dup3\n        /* \"#utility.yul\":9010:9029   */\n      mstore\n        /* \"#utility.yul\":9062:9066   */\n      0x20\n        /* \"#utility.yul\":9057:9060   */\n      dup3\n        /* \"#utility.yul\":9053:9067   */\n      add\n        /* \"#utility.yul\":9038:9067   */\n      swap1\n      pop\n        /* \"#utility.yul\":8904:9073   */\n      swap3\n      swap2\n      pop\n      pop\n      jump\t// out\n        /* \"#utility.yul\":9079:9227   */\n    tag_174:\n        /* \"#utility.yul\":9181:9192   */\n      0x00\n        /* \"#utility.yul\":9218:9221   */\n      dup2\n        /* \"#utility.yul\":9203:9221   */\n      swap1\n      pop\n        /* \"#utility.yul\":9079:9227   */\n      swap3\n      swap2\n      pop\n      pop\n      jump\t// out\n        /* \"#utility.yul\":9233:9329   */\n    tag_137:\n        /* \"#utility.yul\":9270:9277   */\n      0x00\n        /* \"#utility.yul\":9299:9323   */\n      tag_229\n        /* \"#utility.yul\":9317:9322   */\n      dup3\n        /* \"#utility.yul\":9299:9323   */\n      tag_230\n      jump\t// in\n    tag_229:\n        /* \"#utility.yul\":9288:9323   */\n      swap1\n      pop\n        /* \"#utility.yul\":9233:9329   */\n      swap2\n      swap1\n      pop\n      jump\t// out\n        /* \"#utility.yul\":9335:9412   */\n    tag_155:\n        /* \"#utility.yul\":9372:9379   */\n      0x00\n        /* \"#utility.yul\":9401:9406   */\n      dup2\n        /* \"#utility.yul\":9390:9406   */\n      swap1\n      pop\n        /* \"#utility.yul\":9335:9412   */\n      swap2\n      swap1\n      pop\n      jump\t// out\n        /* \"#utility.yul\":9418:9545   */\n    tag_232:\n        /* \"#utility.yul\":9463:9470   */\n      0x00\n        /* \"#utility.yul\":9492:9497   */\n      dup2\n        /* \"#utility.yul\":9481:9497   */\n      swap1\n      pop\n        /* \"#utility.yul\":9498:9539   */\n      tag_234\n        /* \"#utility.yul\":9533:9538   */\n      dup3\n        /* \"#utility.yul\":9498:9539   */\n      tag_235\n      jump\t// in\n    tag_234:\n        /* \"#utility.yul\":9418:9545   */\n      swap2\n      swap1\n      pop\n      jump\t// out\n        /* \"#utility.yul\":9551:9677   */\n    tag_230:\n        /* \"#utility.yul\":9588:9595   */\n      0x00\n        /* \"#utility.yul\":9628:9670   */\n      0xffffffffffffffffffffffffffffffffffffffff\n        /* \"#utility.yul\":9621:9626   */\n      dup3\n        /* \"#utility.yul\":9617:9671   */\n      and\n        /* \"#utility.yul\":9606:9671   */\n      swap1\n      pop\n        /* \"#utility.yul\":9551:9677   */\n      swap2\n      swap1\n      pop\n      jump\t// out\n        /* \"#utility.yul\":9683:9760   */\n    tag_189:\n        /* \"#utility.yul\":9720:9727   */\n      0x00\n        /* \"#utility.yul\":9749:9754   */\n      dup2\n        /* \"#utility.yul\":9738:9754   */\n      swap1\n      pop\n        /* \"#utility.yul\":9683:9760   */\n      swap2\n      swap1\n      pop\n      jump\t// out\n        /* \"#utility.yul\":9766:9893   */\n    tag_159:\n        /* \"#utility.yul\":9822:9831   */\n      0x00\n        /* \"#utility.yul\":9855:9887   */\n      tag_239\n        /* \"#utility.yul\":9881:9886   */\n      dup3\n        /* \"#utility.yul\":9855:9887   */\n      tag_232\n      jump\t// in\n    tag_239:\n        /* \"#utility.yul\":9842:9887   */\n      swap1\n      pop\n        /* \"#utility.yul\":9766:9893   */\n      swap2\n      swap1\n      pop\n      jump\t// out\n        /* \"#utility.yul\":9899:10053   */\n    tag_108:\n        /* \"#utility.yul\":9983:9989   */\n      dup3\n        /* \"#utility.yul\":9978:9981   */\n      dup2\n        /* \"#utility.yul\":9973:9976   */\n      dup4\n        /* \"#utility.yul\":9960:9990   */\n      calldatacopy\n        /* \"#utility.yul\":10045:10046   */\n      0x00\n        /* \"#utility.yul\":10036:10042   */\n      dup4\n        /* \"#utility.yul\":10031:10034   */\n      dup4\n        /* \"#utility.yul\":10027:10043   */\n      add\n        /* \"#utility.yul\":10020:10047   */\n      mstore\n        /* \"#utility.yul\":9899:10053   */\n      pop\n      pop\n      pop\n      jump\t// out\n        /* \"#utility.yul\":10059:10366   */\n    tag_167:\n        /* \"#utility.yul\":10127:10128   */\n      0x00\n        /* \"#utility.yul\":10137:10250   */\n    tag_242:\n        /* \"#utility.yul\":10151:10157   */\n      dup4\n        /* \"#utility.yul\":10148:10149   */\n      dup2\n        /* \"#utility.yul\":10145:10158   */\n      lt\n        /* \"#utility.yul\":10137:10250   */\n      iszero\n      tag_244\n      jumpi\n        /* \"#utility.yul\":10236:10237   */\n      dup1\n        /* \"#utility.yul\":10231:10234   */\n      dup3\n        /* \"#utility.yul\":10227:10238   */\n      add\n        /* \"#utility.yul\":10221:10239   */\n      mload\n        /* \"#utility.yul\":10217:10218   */\n      dup2\n        /* \"#utility.yul\":10212:10215   */\n      dup5\n        /* \"#utility.yul\":10208:10219   */\n      add\n        /* \"#utility.yul\":10201:10240   */\n      mstore\n        /* \"#utility.yul\":10173:10175   */\n      0x20\n        /* \"#utility.yul\":10170:10171   */\n      dup2\n        /* \"#utility.yul\":10166:10176   */\n      add\n        /* \"#utility.yul\":10161:10176   */\n      swap1\n      pop\n        /* \"#utility.yul\":10137:10250   */\n      jump(tag_242)\n    tag_244:\n        /* \"#utility.yul\":10268:10274   */\n      dup4\n        /* \"#utility.yul\":10265:10266   */\n      dup2\n        /* \"#utility.yul\":10262:10275   */\n      gt\n        /* \"#utility.yul\":10259:10360   */\n      iszero\n      tag_245\n      jumpi\n        /* \"#utility.yul\":10348:10349   */\n      0x00\n        /* \"#utility.yul\":10339:10345   */\n      dup5\n        /* \"#utility.yul\":10334:10337   */\n      dup5\n        /* \"#utility.yul\":10330:10346   */\n      add\n        /* \"#utility.yul\":10323:10350   */\n      mstore\n        /* \"#utility.yul\":10259:10360   */\n    tag_245:\n        /* \"#utility.yul\":10108:10366   */\n      pop\n        /* \"#utility.yul\":10059:10366   */\n      pop\n      pop\n      pop\n      jump\t// out\n        /* \"#utility.yul\":10372:10692   */\n    tag_92:\n        /* \"#utility.yul\":10416:10422   */\n      0x00\n        /* \"#utility.yul\":10453:10454   */\n      0x02\n        /* \"#utility.yul\":10447:10451   */\n      dup3\n        /* \"#utility.yul\":10443:10455   */\n      div\n        /* \"#utility.yul\":10433:10455   */\n      swap1\n      pop\n        /* \"#utility.yul\":10500:10501   */\n      0x01\n        /* \"#utility.yul\":10494:10498   */\n      dup3\n        /* \"#utility.yul\":10490:10502   */\n      and\n        /* \"#utility.yul\":10521:10539   */\n      dup1\n        /* \"#utility.yul\":10511:10592   */\n      tag_247\n      jumpi\n        /* \"#utility.yul\":10577:10581   */\n      0x7f\n        /* \"#utility.yul\":10569:10575   */\n      dup3\n        /* \"#utility.yul\":10565:10582   */\n      and\n        /* \"#utility.yul\":10555:10582   */\n      swap2\n      pop\n        /* \"#utility.yul\":10511:10592   */\n    tag_247:\n        /* \"#utility.yul\":10639:10641   */\n      0x20\n        /* \"#utility.yul\":10631:10637   */\n      dup3\n        /* \"#utility.yul\":10628:10642   */\n      lt\n        /* \"#utility.yul\":10608:10626   */\n      dup2\n        /* \"#utility.yul\":10605:10643   */\n      eq\n        /* \"#utility.yul\":10602:10686   */\n      iszero\n      tag_248\n      jumpi\n        /* \"#utility.yul\":10658:10676   */\n      tag_249\n      tag_250\n      jump\t// in\n    tag_249:\n        /* \"#utility.yul\":10602:10686   */\n    tag_248:\n        /* \"#utility.yul\":10423:10692   */\n      pop\n        /* \"#utility.yul\":10372:10692   */\n      swap2\n      swap1\n      pop\n      jump\t// out\n        /* \"#utility.yul\":10698:10979   */\n    tag_214:\n        /* \"#utility.yul\":10781:10808   */\n      tag_252\n        /* \"#utility.yul\":10803:10807   */\n      dup3\n        /* \"#utility.yul\":10781:10808   */\n      tag_169\n      jump\t// in\n    tag_252:\n        /* \"#utility.yul\":10773:10779   */\n      dup2\n        /* \"#utility.yul\":10769:10809   */\n      add\n        /* \"#utility.yul\":10911:10917   */\n      dup2\n        /* \"#utility.yul\":10899:10909   */\n      dup2\n        /* \"#utility.yul\":10896:10918   */\n      lt\n        /* \"#utility.yul\":10875:10893   */\n      0xffffffffffffffff\n        /* \"#utility.yul\":10863:10873   */\n      dup3\n        /* \"#utility.yul\":10860:10894   */\n      gt\n        /* \"#utility.yul\":10857:10919   */\n      or\n        /* \"#utility.yul\":10854:10942   */\n      iszero\n      tag_253\n      jumpi\n        /* \"#utility.yul\":10922:10940   */\n      tag_254\n      tag_219\n      jump\t// in\n    tag_254:\n        /* \"#utility.yul\":10854:10942   */\n    tag_253:\n        /* \"#utility.yul\":10962:10972   */\n      dup1\n        /* \"#utility.yul\":10958:10960   */\n      0x40\n        /* \"#utility.yul\":10951:10973   */\n      mstore\n        /* \"#utility.yul\":10741:10979   */\n      pop\n        /* \"#utility.yul\":10698:10979   */\n      pop\n      pop\n      jump\t// out\n        /* \"#utility.yul\":10985:11165   */\n    tag_61:\n        /* \"#utility.yul\":11033:11110   */\n      0x4e487b7100000000000000000000000000000000000000000000000000000000\n        /* \"#utility.yul\":11030:11031   */\n      0x00\n        /* \"#utility.yul\":11023:11111   */\n      mstore\n        /* \"#utility.yul\":11130:11134   */\n      0x21\n        /* \"#utility.yul\":11127:11128   */\n      0x04\n        /* \"#utility.yul\":11120:11135   */\n      mstore\n        /* \"#utility.yul\":11154:11158   */\n      0x24\n        /* \"#utility.yul\":11151:11152   */\n      0x00\n        /* \"#utility.yul\":11144:11159   */\n      revert\n        /* \"#utility.yul\":11171:11351   */\n    tag_250:\n        /* \"#utility.yul\":11219:11296   */\n      0x4e487b7100000000000000000000000000000000000000000000000000000000\n        /* \"#utility.yul\":11216:11217   */\n      0x00\n        /* \"#utility.yul\":11209:11297   */\n      mstore\n        /* \"#utility.yul\":11316:11320   */\n      0x22\n        /* \"#utility.yul\":11313:11314   */\n      0x04\n        /* \"#utility.yul\":11306:11321   */\n      mstore\n        /* \"#utility.yul\":11340:11344   */\n      0x24\n        /* \"#utility.yul\":11337:11338   */\n      0x00\n        /* \"#utility.yul\":11330:11345   */\n      revert\n        /* \"#utility.yul\":11357:11537   */\n    tag_219:\n        /* \"#utility.yul\":11405:11482   */\n      0x4e487b7100000000000000000000000000000000000000000000000000000000\n        /* \"#utility.yul\":11402:11403   */\n      0x00\n        /* \"#utility.yul\":11395:11483   */\n      mstore\n        /* \"#utility.yul\":11502:11506   */\n      0x41\n        /* \"#utility.yul\":11499:11500   */\n      0x04\n        /* \"#utility.yul\":11492:11507   */\n      mstore\n        /* \"#utility.yul\":11526:11530   */\n      0x24\n        /* \"#utility.yul\":11523:11524   */\n      0x00\n        /* \"#utility.yul\":11516:11531   */\n      revert\n        /* \"#utility.yul\":11543:11660   */\n    tag_117:\n        /* \"#utility.yul\":11652:11653   */\n      0x00\n        /* \"#utility.yul\":11649:11650   */\n      dup1\n        /* \"#utility.yul\":11642:11654   */\n      revert\n        /* \"#utility.yul\":11666:11783   */\n    tag_106:\n        /* \"#utility.yul\":11775:11776   */\n      0x00\n        /* \"#utility.yul\":11772:11773   */\n      dup1\n        /* \"#utility.yul\":11765:11777   */\n      revert\n        /* \"#utility.yul\":11789:11906   */\n    tag_129:\n        /* \"#utility.yul\":11898:11899   */\n      0x00\n        /* \"#utility.yul\":11895:11896   */\n      dup1\n        /* \"#utility.yul\":11888:11900   */\n      revert\n        /* \"#utility.yul\":11912:12029   */\n    tag_122:\n        /* \"#utility.yul\":12021:12022   */\n      0x00\n        /* \"#utility.yul\":12018:12019   */\n      dup1\n        /* \"#utility.yul\":12011:12023   */\n      revert\n        /* \"#utility.yul\":12035:12137   */\n    tag_169:\n        /* \"#utility.yul\":12076:12082   */\n      0x00\n        /* \"#utility.yul\":12127:12129   */\n      0x1f\n        /* \"#utility.yul\":12123:12130   */\n      not\n        /* \"#utility.yul\":12118:12120   */\n      0x1f\n        /* \"#utility.yul\":12111:12116   */\n      dup4\n        /* \"#utility.yul\":12107:12121   */\n      add\n        /* \"#utility.yul\":12103:12131   */\n      and\n        /* \"#utility.yul\":12093:12131   */\n      swap1\n      pop\n        /* \"#utility.yul\":12035:12137   */\n      swap2\n      swap1\n      pop\n      jump\t// out\n        /* \"#utility.yul\":12143:12371   */\n    tag_180:\n        /* \"#utility.yul\":12283:12317   */\n      0x596f7520617265206e6f7420746865206f776e6572206f722070726976617465\n        /* \"#utility.yul\":12279:12280   */\n      0x00\n        /* \"#utility.yul\":12271:12277   */\n      dup3\n        /* \"#utility.yul\":12267:12281   */\n      add\n        /* \"#utility.yul\":12260:12318   */\n      mstore\n        /* \"#utility.yul\":12352:12363   */\n      0x2070726f76696465720000000000000000000000000000000000000000000000\n        /* \"#utility.yul\":12347:12349   */\n      0x20\n        /* \"#utility.yul\":12339:12345   */\n      dup3\n        /* \"#utility.yul\":12335:12350   */\n      add\n        /* \"#utility.yul\":12328:12364   */\n      mstore\n        /* \"#utility.yul\":12143:12371   */\n      pop\n      jump\t// out\n        /* \"#utility.yul\":12377:12541   */\n    tag_185:\n        /* \"#utility.yul\":12517:12533   */\n      0x596f7572206e6f742061646d696e000000000000000000000000000000000000\n        /* \"#utility.yul\":12513:12514   */\n      0x00\n        /* \"#utility.yul\":12505:12511   */\n      dup3\n        /* \"#utility.yul\":12501:12515   */\n      add\n        /* \"#utility.yul\":12494:12534   */\n      mstore\n        /* \"#utility.yul\":12377:12541   */\n      pop\n      jump\t// out\n        /* \"#utility.yul\":12547:12660   */\n    tag_235:\n        /* \"#utility.yul\":12628:12629   */\n      0x05\n        /* \"#utility.yul\":12621:12626   */\n      dup2\n        /* \"#utility.yul\":12618:12630   */\n      lt\n        /* \"#utility.yul\":12608:12654   */\n      tag_266\n      jumpi\n        /* \"#utility.yul\":12634:12652   */\n      tag_267\n      tag_61\n      jump\t// in\n    tag_267:\n        /* \"#utility.yul\":12608:12654   */\n    tag_266:\n        /* \"#utility.yul\":12547:12660   */\n      pop\n      jump\t// out\n        /* \"#utility.yul\":12666:12788   */\n    tag_112:\n        /* \"#utility.yul\":12739:12763   */\n      tag_269\n        /* \"#utility.yul\":12757:12762   */\n      dup2\n        /* \"#utility.yul\":12739:12763   */\n      tag_137\n      jump\t// in\n    tag_269:\n        /* \"#utility.yul\":12732:12737   */\n      dup2\n        /* \"#utility.yul\":12729:12764   */\n      eq\n        /* \"#utility.yul\":12719:12782   */\n      tag_270\n      jumpi\n        /* \"#utility.yul\":12778:12779   */\n      0x00\n        /* \"#utility.yul\":12775:12776   */\n      dup1\n        /* \"#utility.yul\":12768:12780   */\n      revert\n        /* \"#utility.yul\":12719:12782   */\n    tag_270:\n        /* \"#utility.yul\":12666:12788   */\n      pop\n      jump\t// out\n\n    auxdata: 0xa26469706673582212208bde1f4104737800412f157fdd0b9f3e2620b951000f7b48ea564009add4746164736f6c63430008070033\n}\n",
				"bytecode": {
					"linkReferences": {},
					"object": "6080604052632cb41780600255620186a060035534801561001f57600080fd5b50610e2c8061002f6000396000f3fe608060405234801561001057600080fd5b506004361061009e5760003560e01c8063948942ad11610066578063948942ad1461016f57806399067ede1461018d578063b06cdc12146101bd578063c10e3911146101ed578063fc8372591461020b5761009e565b80630761c8b9146100a35780632599d6d0146100c157806372f0d72b146100f15780637f89128f146101215780638e4f8c6b1461013f575b600080fd5b6100ab610241565b6040516100b89190610ac0565b60405180910390f35b6100db60048036038101906100d691906107de565b610247565b6040516100e89190610ac0565b60405180910390f35b61010b600480360381019061010691906107de565b610292565b6040516101189190610ac0565b60405180910390f35b6101296102dd565b60405161013691906109cd565b60405180910390f35b6101596004803603810190610154919061080b565b610420565b60405161016691906109ef565b60405180910390f35b610177610450565b6040516101849190610ac0565b60405180910390f35b6101a760048036038101906101a291906107de565b610456565b6040516101b49190610ac0565b60405180910390f35b6101d760048036038101906101d291906107de565b610477565b6040516101e49190610ac0565b60405180910390f35b6101f56104c2565b60405161020291906109cd565b60405180910390f35b610225600480360381019061022091906107de565b610682565b6040516102389796959493929190610a0a565b60405180910390f35b60025481565b60008060008373ffffffffffffffffffffffffffffffffffffffff1673ffffffffffffffffffffffffffffffffffffffff168152602001908152602001600020600401549050919050565b60008060008373ffffffffffffffffffffffffffffffffffffffff1673ffffffffffffffffffffffffffffffffffffffff168152602001908152602001600020600601549050919050565b6060600060048111156102f3576102f2610ca1565b5b6000803373ffffffffffffffffffffffffffffffffffffffff1673ffffffffffffffffffffffffffffffffffffffff16815260200190815260200160002060000160009054906101000a900460ff16600481111561035457610353610ca1565b5b14610394576040517f08c379a000000000000000000000000000000000000000000000000000000000815260040161038b90610aa0565b60405180910390fd5b600880548060200260200160405190810160405280929190818152602001828054801561041657602002820191906000526020600020905b8160009054906101000a900473ffffffffffffffffffffffffffffffffffffffff1673ffffffffffffffffffffffffffffffffffffffff16815260200190600101908083116103cc575b5050505050905090565b60008160405160200161043391906109b6565b604051602081830303815290604052805190602001209050919050565b60035481565b60008173ffffffffffffffffffffffffffffffffffffffff16319050919050565b60008060008373ffffffffffffffffffffffffffffffffffffffff1673ffffffffffffffffffffffffffffffffffffffff168152602001908152602001600020600501549050919050565b6060600060048111156104d8576104d7610ca1565b5b6000803373ffffffffffffffffffffffffffffffffffffffff1673ffffffffffffffffffffffffffffffffffffffff16815260200190815260200160002060000160009054906101000a900460ff16600481111561053957610538610ca1565b5b14806105b757506002600481111561055457610553610ca1565b5b6000803373ffffffffffffffffffffffffffffffffffffffff1673ffffffffffffffffffffffffffffffffffffffff16815260200190815260200160002060000160009054906101000a900460ff1660048111156105b5576105b4610ca1565b5b145b6105f6576040517f08c379a00000000000000000000000000000000000000000000000000000000081526004016105ed90610a80565b60405180910390fd5b600780548060200260200160405190810160405280929190818152602001828054801561067857602002820191906000526020600020905b8160009054906101000a900473ffffffffffffffffffffffffffffffffffffffff1673ffffffffffffffffffffffffffffffffffffffff168152602001906001019080831161062e575b5050505050905090565b60006020528060005260406000206000915090508060000160009054906101000a900460ff16908060010180546106b890610c3e565b80601f01602080910402602001604051908101604052809291908181526020018280546106e490610c3e565b80156107315780601f1061070657610100808354040283529160200191610731565b820191906000526020600020905b81548152906001019060200180831161071457829003601f168201915b5050505050908060020154908060030154908060040154908060050154908060060154905087565b600061076c61076784610b00565b610adb565b90508281526020810184848401111561078857610787610d33565b5b610793848285610bfc565b509392505050565b6000813590506107aa81610ddf565b92915050565b600082601f8301126107c5576107c4610d2e565b5b81356107d5848260208601610759565b91505092915050565b6000602082840312156107f4576107f3610d3d565b5b60006108028482850161079b565b91505092915050565b60006020828403121561082157610820610d3d565b5b600082013567ffffffffffffffff81111561083f5761083e610d38565b5b61084b848285016107b0565b91505092915050565b6000610860838361086c565b60208301905092915050565b61087581610b91565b82525050565b600061088682610b41565b6108908185610b64565b935061089b83610b31565b8060005b838110156108cc5781516108b38882610854565b97506108be83610b57565b92505060018101905061089f565b5085935050505092915050565b6108e281610ba3565b82525050565b6108f181610bea565b82525050565b600061090282610b4c565b61090c8185610b75565b935061091c818560208601610c0b565b61092581610d42565b840191505092915050565b600061093b82610b4c565b6109458185610b86565b9350610955818560208601610c0b565b80840191505092915050565b600061096e602983610b75565b915061097982610d53565b604082019050919050565b6000610991600e83610b75565b915061099c82610da2565b602082019050919050565b6109b081610be0565b82525050565b60006109c28284610930565b915081905092915050565b600060208201905081810360008301526109e7818461087b565b905092915050565b6000602082019050610a0460008301846108d9565b92915050565b600060e082019050610a1f600083018a6108e8565b8181036020830152610a3181896108f7565b9050610a4060408301886108d9565b610a4d60608301876109a7565b610a5a60808301866109a7565b610a6760a08301856109a7565b610a7460c08301846109a7565b98975050505050505050565b60006020820190508181036000830152610a9981610961565b9050919050565b60006020820190508181036000830152610ab981610984565b9050919050565b6000602082019050610ad560008301846109a7565b92915050565b6000610ae5610af6565b9050610af18282610c70565b919050565b6000604051905090565b600067ffffffffffffffff821115610b1b57610b1a610cff565b5b610b2482610d42565b9050602081019050919050565b6000819050602082019050919050565b600081519050919050565b600081519050919050565b6000602082019050919050565b600082825260208201905092915050565b600082825260208201905092915050565b600081905092915050565b6000610b9c82610bc0565b9050919050565b6000819050919050565b6000819050610bbb82610dcb565b919050565b600073ffffffffffffffffffffffffffffffffffffffff82169050919050565b6000819050919050565b6000610bf582610bad565b9050919050565b82818337600083830152505050565b60005b83811015610c29578082015181840152602081019050610c0e565b83811115610c38576000848401525b50505050565b60006002820490506001821680610c5657607f821691505b60208210811415610c6a57610c69610cd0565b5b50919050565b610c7982610d42565b810181811067ffffffffffffffff82111715610c9857610c97610cff565b5b80604052505050565b7f4e487b7100000000000000000000000000000000000000000000000000000000600052602160045260246000fd5b7f4e487b7100000000000000000000000000000000000000000000000000000000600052602260045260246000fd5b7f4e487b7100000000000000000000000000000000000000000000000000000000600052604160045260246000fd5b600080fd5b600080fd5b600080fd5b600080fd5b6000601f19601f8301169050919050565b7f596f7520617265206e6f7420746865206f776e6572206f72207072697661746560008201527f2070726f76696465720000000000000000000000000000000000000000000000602082015250565b7f596f7572206e6f742061646d696e000000000000000000000000000000000000600082015250565b60058110610ddc57610ddb610ca1565b5b50565b610de881610b91565b8114610df357600080fd5b5056fea26469706673582212208bde1f4104737800412f157fdd0b9f3e2620b951000f7b48ea564009add4746164736f6c63430008070033",
					"opcodes": "PUSH1 0x80 PUSH1 0x40 MSTORE PUSH4 0x2CB41780 PUSH1 0x2 SSTORE PUSH3 0x186A0 PUSH1 0x3 SSTORE CALLVALUE DUP1 ISZERO PUSH2 0x1F JUMPI PUSH1 0x0 DUP1 REVERT JUMPDEST POP PUSH2 0xE2C DUP1 PUSH2 0x2F PUSH1 0x0 CODECOPY PUSH1 0x0 RETURN INVALID PUSH1 0x80 PUSH1 0x40 MSTORE CALLVALUE DUP1 ISZERO PUSH2 0x10 JUMPI PUSH1 0x0 DUP1 REVERT JUMPDEST POP PUSH1 0x4 CALLDATASIZE LT PUSH2 0x9E JUMPI PUSH1 0x0 CALLDATALOAD PUSH1 0xE0 SHR DUP1 PUSH4 0x948942AD GT PUSH2 0x66 JUMPI DUP1 PUSH4 0x948942AD EQ PUSH2 0x16F JUMPI DUP1 PUSH4 0x99067EDE EQ PUSH2 0x18D JUMPI DUP1 PUSH4 0xB06CDC12 EQ PUSH2 0x1BD JUMPI DUP1 PUSH4 0xC10E3911 EQ PUSH2 0x1ED JUMPI DUP1 PUSH4 0xFC837259 EQ PUSH2 0x20B JUMPI PUSH2 0x9E JUMP JUMPDEST DUP1 PUSH4 0x761C8B9 EQ PUSH2 0xA3 JUMPI DUP1 PUSH4 0x2599D6D0 EQ PUSH2 0xC1 JUMPI DUP1 PUSH4 0x72F0D72B EQ PUSH2 0xF1 JUMPI DUP1 PUSH4 0x7F89128F EQ PUSH2 0x121 JUMPI DUP1 PUSH4 0x8E4F8C6B EQ PUSH2 0x13F JUMPI JUMPDEST PUSH1 0x0 DUP1 REVERT JUMPDEST PUSH2 0xAB PUSH2 0x241 JUMP JUMPDEST PUSH1 0x40 MLOAD PUSH2 0xB8 SWAP2 SWAP1 PUSH2 0xAC0 JUMP JUMPDEST PUSH1 0x40 MLOAD DUP1 SWAP2 SUB SWAP1 RETURN JUMPDEST PUSH2 0xDB PUSH1 0x4 DUP1 CALLDATASIZE SUB DUP2 ADD SWAP1 PUSH2 0xD6 SWAP2 SWAP1 PUSH2 0x7DE JUMP JUMPDEST PUSH2 0x247 JUMP JUMPDEST PUSH1 0x40 MLOAD PUSH2 0xE8 SWAP2 SWAP1 PUSH2 0xAC0 JUMP JUMPDEST PUSH1 0x40 MLOAD DUP1 SWAP2 SUB SWAP1 RETURN JUMPDEST PUSH2 0x10B PUSH1 0x4 DUP1 CALLDATASIZE SUB DUP2 ADD SWAP1 PUSH2 0x106 SWAP2 SWAP1 PUSH2 0x7DE JUMP JUMPDEST PUSH2 0x292 JUMP JUMPDEST PUSH1 0x40 MLOAD PUSH2 0x118 SWAP2 SWAP1 PUSH2 0xAC0 JUMP JUMPDEST PUSH1 0x40 MLOAD DUP1 SWAP2 SUB SWAP1 RETURN JUMPDEST PUSH2 0x129 PUSH2 0x2DD JUMP JUMPDEST PUSH1 0x40 MLOAD PUSH2 0x136 SWAP2 SWAP1 PUSH2 0x9CD JUMP JUMPDEST PUSH1 0x40 MLOAD DUP1 SWAP2 SUB SWAP1 RETURN JUMPDEST PUSH2 0x159 PUSH1 0x4 DUP1 CALLDATASIZE SUB DUP2 ADD SWAP1 PUSH2 0x154 SWAP2 SWAP1 PUSH2 0x80B JUMP JUMPDEST PUSH2 0x420 JUMP JUMPDEST PUSH1 0x40 MLOAD PUSH2 0x166 SWAP2 SWAP1 PUSH2 0x9EF JUMP JUMPDEST PUSH1 0x40 MLOAD DUP1 SWAP2 SUB SWAP1 RETURN JUMPDEST PUSH2 0x177 PUSH2 0x450 JUMP JUMPDEST PUSH1 0x40 MLOAD PUSH2 0x184 SWAP2 SWAP1 PUSH2 0xAC0 JUMP JUMPDEST PUSH1 0x40 MLOAD DUP1 SWAP2 SUB SWAP1 RETURN JUMPDEST PUSH2 0x1A7 PUSH1 0x4 DUP1 CALLDATASIZE SUB DUP2 ADD SWAP1 PUSH2 0x1A2 SWAP2 SWAP1 PUSH2 0x7DE JUMP JUMPDEST PUSH2 0x456 JUMP JUMPDEST PUSH1 0x40 MLOAD PUSH2 0x1B4 SWAP2 SWAP1 PUSH2 0xAC0 JUMP JUMPDEST PUSH1 0x40 MLOAD DUP1 SWAP2 SUB SWAP1 RETURN JUMPDEST PUSH2 0x1D7 PUSH1 0x4 DUP1 CALLDATASIZE SUB DUP2 ADD SWAP1 PUSH2 0x1D2 SWAP2 SWAP1 PUSH2 0x7DE JUMP JUMPDEST PUSH2 0x477 JUMP JUMPDEST PUSH1 0x40 MLOAD PUSH2 0x1E4 SWAP2 SWAP1 PUSH2 0xAC0 JUMP JUMPDEST PUSH1 0x40 MLOAD DUP1 SWAP2 SUB SWAP1 RETURN JUMPDEST PUSH2 0x1F5 PUSH2 0x4C2 JUMP JUMPDEST PUSH1 0x40 MLOAD PUSH2 0x202 SWAP2 SWAP1 PUSH2 0x9CD JUMP JUMPDEST PUSH1 0x40 MLOAD DUP1 SWAP2 SUB SWAP1 RETURN JUMPDEST PUSH2 0x225 PUSH1 0x4 DUP1 CALLDATASIZE SUB DUP2 ADD SWAP1 PUSH2 0x220 SWAP2 SWAP1 PUSH2 0x7DE JUMP JUMPDEST PUSH2 0x682 JUMP JUMPDEST PUSH1 0x40 MLOAD PUSH2 0x238 SWAP8 SWAP7 SWAP6 SWAP5 SWAP4 SWAP3 SWAP2 SWAP1 PUSH2 0xA0A JUMP JUMPDEST PUSH1 0x40 MLOAD DUP1 SWAP2 SUB SWAP1 RETURN JUMPDEST PUSH1 0x2 SLOAD DUP2 JUMP JUMPDEST PUSH1 0x0 DUP1 PUSH1 0x0 DUP4 PUSH20 0xFFFFFFFFFFFFFFFFFFFFFFFFFFFFFFFFFFFFFFFF AND PUSH20 0xFFFFFFFFFFFFFFFFFFFFFFFFFFFFFFFFFFFFFFFF AND DUP2 MSTORE PUSH1 0x20 ADD SWAP1 DUP2 MSTORE PUSH1 0x20 ADD PUSH1 0x0 KECCAK256 PUSH1 0x4 ADD SLOAD SWAP1 POP SWAP2 SWAP1 POP JUMP JUMPDEST PUSH1 0x0 DUP1 PUSH1 0x0 DUP4 PUSH20 0xFFFFFFFFFFFFFFFFFFFFFFFFFFFFFFFFFFFFFFFF AND PUSH20 0xFFFFFFFFFFFFFFFFFFFFFFFFFFFFFFFFFFFFFFFF AND DUP2 MSTORE PUSH1 0x20 ADD SWAP1 DUP2 MSTORE PUSH1 0x20 ADD PUSH1 0x0 KECCAK256 PUSH1 0x6 ADD SLOAD SWAP1 POP SWAP2 SWAP1 POP JUMP JUMPDEST PUSH1 0x60 PUSH1 0x0 PUSH1 0x4 DUP2 GT ISZERO PUSH2 0x2F3 JUMPI PUSH2 0x2F2 PUSH2 0xCA1 JUMP JUMPDEST JUMPDEST PUSH1 0x0 DUP1 CALLER PUSH20 0xFFFFFFFFFFFFFFFFFFFFFFFFFFFFFFFFFFFFFFFF AND PUSH20 0xFFFFFFFFFFFFFFFFFFFFFFFFFFFFFFFFFFFFFFFF AND DUP2 MSTORE PUSH1 0x20 ADD SWAP1 DUP2 MSTORE PUSH1 0x20 ADD PUSH1 0x0 KECCAK256 PUSH1 0x0 ADD PUSH1 0x0 SWAP1 SLOAD SWAP1 PUSH2 0x100 EXP SWAP1 DIV PUSH1 0xFF AND PUSH1 0x4 DUP2 GT ISZERO PUSH2 0x354 JUMPI PUSH2 0x353 PUSH2 0xCA1 JUMP JUMPDEST JUMPDEST EQ PUSH2 0x394 JUMPI PUSH1 0x40 MLOAD PUSH32 0x8C379A000000000000000000000000000000000000000000000000000000000 DUP2 MSTORE PUSH1 0x4 ADD PUSH2 0x38B SWAP1 PUSH2 0xAA0 JUMP JUMPDEST PUSH1 0x40 MLOAD DUP1 SWAP2 SUB SWAP1 REVERT JUMPDEST PUSH1 0x8 DUP1 SLOAD DUP1 PUSH1 0x20 MUL PUSH1 0x20 ADD PUSH1 0x40 MLOAD SWAP1 DUP2 ADD PUSH1 0x40 MSTORE DUP1 SWAP3 SWAP2 SWAP1 DUP2 DUP2 MSTORE PUSH1 0x20 ADD DUP3 DUP1 SLOAD DUP1 ISZERO PUSH2 0x416 JUMPI PUSH1 0x20 MUL DUP3 ADD SWAP2 SWAP1 PUSH1 0x0 MSTORE PUSH1 0x20 PUSH1 0x0 KECCAK256 SWAP1 JUMPDEST DUP2 PUSH1 0x0 SWAP1 SLOAD SWAP1 PUSH2 0x100 EXP SWAP1 DIV PUSH20 0xFFFFFFFFFFFFFFFFFFFFFFFFFFFFFFFFFFFFFFFF AND PUSH20 0xFFFFFFFFFFFFFFFFFFFFFFFFFFFFFFFFFFFFFFFF AND DUP2 MSTORE PUSH1 0x20 ADD SWAP1 PUSH1 0x1 ADD SWAP1 DUP1 DUP4 GT PUSH2 0x3CC JUMPI JUMPDEST POP POP POP POP POP SWAP1 POP SWAP1 JUMP JUMPDEST PUSH1 0x0 DUP2 PUSH1 0x40 MLOAD PUSH1 0x20 ADD PUSH2 0x433 SWAP2 SWAP1 PUSH2 0x9B6 JUMP JUMPDEST PUSH1 0x40 MLOAD PUSH1 0x20 DUP2 DUP4 SUB SUB DUP2 MSTORE SWAP1 PUSH1 0x40 MSTORE DUP1 MLOAD SWAP1 PUSH1 0x20 ADD KECCAK256 SWAP1 POP SWAP2 SWAP1 POP JUMP JUMPDEST PUSH1 0x3 SLOAD DUP2 JUMP JUMPDEST PUSH1 0x0 DUP2 PUSH20 0xFFFFFFFFFFFFFFFFFFFFFFFFFFFFFFFFFFFFFFFF AND BALANCE SWAP1 POP SWAP2 SWAP1 POP JUMP JUMPDEST PUSH1 0x0 DUP1 PUSH1 0x0 DUP4 PUSH20 0xFFFFFFFFFFFFFFFFFFFFFFFFFFFFFFFFFFFFFFFF AND PUSH20 0xFFFFFFFFFFFFFFFFFFFFFFFFFFFFFFFFFFFFFFFF AND DUP2 MSTORE PUSH1 0x20 ADD SWAP1 DUP2 MSTORE PUSH1 0x20 ADD PUSH1 0x0 KECCAK256 PUSH1 0x5 ADD SLOAD SWAP1 POP SWAP2 SWAP1 POP JUMP JUMPDEST PUSH1 0x60 PUSH1 0x0 PUSH1 0x4 DUP2 GT ISZERO PUSH2 0x4D8 JUMPI PUSH2 0x4D7 PUSH2 0xCA1 JUMP JUMPDEST JUMPDEST PUSH1 0x0 DUP1 CALLER PUSH20 0xFFFFFFFFFFFFFFFFFFFFFFFFFFFFFFFFFFFFFFFF AND PUSH20 0xFFFFFFFFFFFFFFFFFFFFFFFFFFFFFFFFFFFFFFFF AND DUP2 MSTORE PUSH1 0x20 ADD SWAP1 DUP2 MSTORE PUSH1 0x20 ADD PUSH1 0x0 KECCAK256 PUSH1 0x0 ADD PUSH1 0x0 SWAP1 SLOAD SWAP1 PUSH2 0x100 EXP SWAP1 DIV PUSH1 0xFF AND PUSH1 0x4 DUP2 GT ISZERO PUSH2 0x539 JUMPI PUSH2 0x538 PUSH2 0xCA1 JUMP JUMPDEST JUMPDEST EQ DUP1 PUSH2 0x5B7 JUMPI POP PUSH1 0x2 PUSH1 0x4 DUP2 GT ISZERO PUSH2 0x554 JUMPI PUSH2 0x553 PUSH2 0xCA1 JUMP JUMPDEST JUMPDEST PUSH1 0x0 DUP1 CALLER PUSH20 0xFFFFFFFFFFFFFFFFFFFFFFFFFFFFFFFFFFFFFFFF AND PUSH20 0xFFFFFFFFFFFFFFFFFFFFFFFFFFFFFFFFFFFFFFFF AND DUP2 MSTORE PUSH1 0x20 ADD SWAP1 DUP2 MSTORE PUSH1 0x20 ADD PUSH1 0x0 KECCAK256 PUSH1 0x0 ADD PUSH1 0x0 SWAP1 SLOAD SWAP1 PUSH2 0x100 EXP SWAP1 DIV PUSH1 0xFF AND PUSH1 0x4 DUP2 GT ISZERO PUSH2 0x5B5 JUMPI PUSH2 0x5B4 PUSH2 0xCA1 JUMP JUMPDEST JUMPDEST EQ JUMPDEST PUSH2 0x5F6 JUMPI PUSH1 0x40 MLOAD PUSH32 0x8C379A000000000000000000000000000000000000000000000000000000000 DUP2 MSTORE PUSH1 0x4 ADD PUSH2 0x5ED SWAP1 PUSH2 0xA80 JUMP JUMPDEST PUSH1 0x40 MLOAD DUP1 SWAP2 SUB SWAP1 REVERT JUMPDEST PUSH1 0x7 DUP1 SLOAD DUP1 PUSH1 0x20 MUL PUSH1 0x20 ADD PUSH1 0x40 MLOAD SWAP1 DUP2 ADD PUSH1 0x40 MSTORE DUP1 SWAP3 SWAP2 SWAP1 DUP2 DUP2 MSTORE PUSH1 0x20 ADD DUP3 DUP1 SLOAD DUP1 ISZERO PUSH2 0x678 JUMPI PUSH1 0x20 MUL DUP3 ADD SWAP2 SWAP1 PUSH1 0x0 MSTORE PUSH1 0x20 PUSH1 0x0 KECCAK256 SWAP1 JUMPDEST DUP2 PUSH1 0x0 SWAP1 SLOAD SWAP1 PUSH2 0x100 EXP SWAP1 DIV PUSH20 0xFFFFFFFFFFFFFFFFFFFFFFFFFFFFFFFFFFFFFFFF AND PUSH20 0xFFFFFFFFFFFFFFFFFFFFFFFFFFFFFFFFFFFFFFFF AND DUP2 MSTORE PUSH1 0x20 ADD SWAP1 PUSH1 0x1 ADD SWAP1 DUP1 DUP4 GT PUSH2 0x62E JUMPI JUMPDEST POP POP POP POP POP SWAP1 POP SWAP1 JUMP JUMPDEST PUSH1 0x0 PUSH1 0x20 MSTORE DUP1 PUSH1 0x0 MSTORE PUSH1 0x40 PUSH1 0x0 KECCAK256 PUSH1 0x0 SWAP2 POP SWAP1 POP DUP1 PUSH1 0x0 ADD PUSH1 0x0 SWAP1 SLOAD SWAP1 PUSH2 0x100 EXP SWAP1 DIV PUSH1 0xFF AND SWAP1 DUP1 PUSH1 0x1 ADD DUP1 SLOAD PUSH2 0x6B8 SWAP1 PUSH2 0xC3E JUMP JUMPDEST DUP1 PUSH1 0x1F ADD PUSH1 0x20 DUP1 SWAP2 DIV MUL PUSH1 0x20 ADD PUSH1 0x40 MLOAD SWAP1 DUP2 ADD PUSH1 0x40 MSTORE DUP1 SWAP3 SWAP2 SWAP1 DUP2 DUP2 MSTORE PUSH1 0x20 ADD DUP3 DUP1 SLOAD PUSH2 0x6E4 SWAP1 PUSH2 0xC3E JUMP JUMPDEST DUP1 ISZERO PUSH2 0x731 JUMPI DUP1 PUSH1 0x1F LT PUSH2 0x706 JUMPI PUSH2 0x100 DUP1 DUP4 SLOAD DIV MUL DUP4 MSTORE SWAP2 PUSH1 0x20 ADD SWAP2 PUSH2 0x731 JUMP JUMPDEST DUP3 ADD SWAP2 SWAP1 PUSH1 0x0 MSTORE PUSH1 0x20 PUSH1 0x0 KECCAK256 SWAP1 JUMPDEST DUP2 SLOAD DUP2 MSTORE SWAP1 PUSH1 0x1 ADD SWAP1 PUSH1 0x20 ADD DUP1 DUP4 GT PUSH2 0x714 JUMPI DUP3 SWAP1 SUB PUSH1 0x1F AND DUP3 ADD SWAP2 JUMPDEST POP POP POP POP POP SWAP1 DUP1 PUSH1 0x2 ADD SLOAD SWAP1 DUP1 PUSH1 0x3 ADD SLOAD SWAP1 DUP1 PUSH1 0x4 ADD SLOAD SWAP1 DUP1 PUSH1 0x5 ADD SLOAD SWAP1 DUP1 PUSH1 0x6 ADD SLOAD SWAP1 POP DUP8 JUMP JUMPDEST PUSH1 0x0 PUSH2 0x76C PUSH2 0x767 DUP5 PUSH2 0xB00 JUMP JUMPDEST PUSH2 0xADB JUMP JUMPDEST SWAP1 POP DUP3 DUP2 MSTORE PUSH1 0x20 DUP2 ADD DUP5 DUP5 DUP5 ADD GT ISZERO PUSH2 0x788 JUMPI PUSH2 0x787 PUSH2 0xD33 JUMP JUMPDEST JUMPDEST PUSH2 0x793 DUP5 DUP3 DUP6 PUSH2 0xBFC JUMP JUMPDEST POP SWAP4 SWAP3 POP POP POP JUMP JUMPDEST PUSH1 0x0 DUP2 CALLDATALOAD SWAP1 POP PUSH2 0x7AA DUP2 PUSH2 0xDDF JUMP JUMPDEST SWAP3 SWAP2 POP POP JUMP JUMPDEST PUSH1 0x0 DUP3 PUSH1 0x1F DUP4 ADD SLT PUSH2 0x7C5 JUMPI PUSH2 0x7C4 PUSH2 0xD2E JUMP JUMPDEST JUMPDEST DUP2 CALLDATALOAD PUSH2 0x7D5 DUP5 DUP3 PUSH1 0x20 DUP7 ADD PUSH2 0x759 JUMP JUMPDEST SWAP2 POP POP SWAP3 SWAP2 POP POP JUMP JUMPDEST PUSH1 0x0 PUSH1 0x20 DUP3 DUP5 SUB SLT ISZERO PUSH2 0x7F4 JUMPI PUSH2 0x7F3 PUSH2 0xD3D JUMP JUMPDEST JUMPDEST PUSH1 0x0 PUSH2 0x802 DUP5 DUP3 DUP6 ADD PUSH2 0x79B JUMP JUMPDEST SWAP2 POP POP SWAP3 SWAP2 POP POP JUMP JUMPDEST PUSH1 0x0 PUSH1 0x20 DUP3 DUP5 SUB SLT ISZERO PUSH2 0x821 JUMPI PUSH2 0x820 PUSH2 0xD3D JUMP JUMPDEST JUMPDEST PUSH1 0x0 DUP3 ADD CALLDATALOAD PUSH8 0xFFFFFFFFFFFFFFFF DUP2 GT ISZERO PUSH2 0x83F JUMPI PUSH2 0x83E PUSH2 0xD38 JUMP JUMPDEST JUMPDEST PUSH2 0x84B DUP5 DUP3 DUP6 ADD PUSH2 0x7B0 JUMP JUMPDEST SWAP2 POP POP SWAP3 SWAP2 POP POP JUMP JUMPDEST PUSH1 0x0 PUSH2 0x860 DUP4 DUP4 PUSH2 0x86C JUMP JUMPDEST PUSH1 0x20 DUP4 ADD SWAP1 POP SWAP3 SWAP2 POP POP JUMP JUMPDEST PUSH2 0x875 DUP2 PUSH2 0xB91 JUMP JUMPDEST DUP3 MSTORE POP POP JUMP JUMPDEST PUSH1 0x0 PUSH2 0x886 DUP3 PUSH2 0xB41 JUMP JUMPDEST PUSH2 0x890 DUP2 DUP6 PUSH2 0xB64 JUMP JUMPDEST SWAP4 POP PUSH2 0x89B DUP4 PUSH2 0xB31 JUMP JUMPDEST DUP1 PUSH1 0x0 JUMPDEST DUP4 DUP2 LT ISZERO PUSH2 0x8CC JUMPI DUP2 MLOAD PUSH2 0x8B3 DUP9 DUP3 PUSH2 0x854 JUMP JUMPDEST SWAP8 POP PUSH2 0x8BE DUP4 PUSH2 0xB57 JUMP JUMPDEST SWAP3 POP POP PUSH1 0x1 DUP2 ADD SWAP1 POP PUSH2 0x89F JUMP JUMPDEST POP DUP6 SWAP4 POP POP POP POP SWAP3 SWAP2 POP POP JUMP JUMPDEST PUSH2 0x8E2 DUP2 PUSH2 0xBA3 JUMP JUMPDEST DUP3 MSTORE POP POP JUMP JUMPDEST PUSH2 0x8F1 DUP2 PUSH2 0xBEA JUMP JUMPDEST DUP3 MSTORE POP POP JUMP JUMPDEST PUSH1 0x0 PUSH2 0x902 DUP3 PUSH2 0xB4C JUMP JUMPDEST PUSH2 0x90C DUP2 DUP6 PUSH2 0xB75 JUMP JUMPDEST SWAP4 POP PUSH2 0x91C DUP2 DUP6 PUSH1 0x20 DUP7 ADD PUSH2 0xC0B JUMP JUMPDEST PUSH2 0x925 DUP2 PUSH2 0xD42 JUMP JUMPDEST DUP5 ADD SWAP2 POP POP SWAP3 SWAP2 POP POP JUMP JUMPDEST PUSH1 0x0 PUSH2 0x93B DUP3 PUSH2 0xB4C JUMP JUMPDEST PUSH2 0x945 DUP2 DUP6 PUSH2 0xB86 JUMP JUMPDEST SWAP4 POP PUSH2 0x955 DUP2 DUP6 PUSH1 0x20 DUP7 ADD PUSH2 0xC0B JUMP JUMPDEST DUP1 DUP5 ADD SWAP2 POP POP SWAP3 SWAP2 POP POP JUMP JUMPDEST PUSH1 0x0 PUSH2 0x96E PUSH1 0x29 DUP4 PUSH2 0xB75 JUMP JUMPDEST SWAP2 POP PUSH2 0x979 DUP3 PUSH2 0xD53 JUMP JUMPDEST PUSH1 0x40 DUP3 ADD SWAP1 POP SWAP2 SWAP1 POP JUMP JUMPDEST PUSH1 0x0 PUSH2 0x991 PUSH1 0xE DUP4 PUSH2 0xB75 JUMP JUMPDEST SWAP2 POP PUSH2 0x99C DUP3 PUSH2 0xDA2 JUMP JUMPDEST PUSH1 0x20 DUP3 ADD SWAP1 POP SWAP2 SWAP1 POP JUMP JUMPDEST PUSH2 0x9B0 DUP2 PUSH2 0xBE0 JUMP JUMPDEST DUP3 MSTORE POP POP JUMP JUMPDEST PUSH1 0x0 PUSH2 0x9C2 DUP3 DUP5 PUSH2 0x930 JUMP JUMPDEST SWAP2 POP DUP2 SWAP1 POP SWAP3 SWAP2 POP POP JUMP JUMPDEST PUSH1 0x0 PUSH1 0x20 DUP3 ADD SWAP1 POP DUP2 DUP2 SUB PUSH1 0x0 DUP4 ADD MSTORE PUSH2 0x9E7 DUP2 DUP5 PUSH2 0x87B JUMP JUMPDEST SWAP1 POP SWAP3 SWAP2 POP POP JUMP JUMPDEST PUSH1 0x0 PUSH1 0x20 DUP3 ADD SWAP1 POP PUSH2 0xA04 PUSH1 0x0 DUP4 ADD DUP5 PUSH2 0x8D9 JUMP JUMPDEST SWAP3 SWAP2 POP POP JUMP JUMPDEST PUSH1 0x0 PUSH1 0xE0 DUP3 ADD SWAP1 POP PUSH2 0xA1F PUSH1 0x0 DUP4 ADD DUP11 PUSH2 0x8E8 JUMP JUMPDEST DUP2 DUP2 SUB PUSH1 0x20 DUP4 ADD MSTORE PUSH2 0xA31 DUP2 DUP10 PUSH2 0x8F7 JUMP JUMPDEST SWAP1 POP PUSH2 0xA40 PUSH1 0x40 DUP4 ADD DUP9 PUSH2 0x8D9 JUMP JUMPDEST PUSH2 0xA4D PUSH1 0x60 DUP4 ADD DUP8 PUSH2 0x9A7 JUMP JUMPDEST PUSH2 0xA5A PUSH1 0x80 DUP4 ADD DUP7 PUSH2 0x9A7 JUMP JUMPDEST PUSH2 0xA67 PUSH1 0xA0 DUP4 ADD DUP6 PUSH2 0x9A7 JUMP JUMPDEST PUSH2 0xA74 PUSH1 0xC0 DUP4 ADD DUP5 PUSH2 0x9A7 JUMP JUMPDEST SWAP9 SWAP8 POP POP POP POP POP POP POP POP JUMP JUMPDEST PUSH1 0x0 PUSH1 0x20 DUP3 ADD SWAP1 POP DUP2 DUP2 SUB PUSH1 0x0 DUP4 ADD MSTORE PUSH2 0xA99 DUP2 PUSH2 0x961 JUMP JUMPDEST SWAP1 POP SWAP2 SWAP1 POP JUMP JUMPDEST PUSH1 0x0 PUSH1 0x20 DUP3 ADD SWAP1 POP DUP2 DUP2 SUB PUSH1 0x0 DUP4 ADD MSTORE PUSH2 0xAB9 DUP2 PUSH2 0x984 JUMP JUMPDEST SWAP1 POP SWAP2 SWAP1 POP JUMP JUMPDEST PUSH1 0x0 PUSH1 0x20 DUP3 ADD SWAP1 POP PUSH2 0xAD5 PUSH1 0x0 DUP4 ADD DUP5 PUSH2 0x9A7 JUMP JUMPDEST SWAP3 SWAP2 POP POP JUMP JUMPDEST PUSH1 0x0 PUSH2 0xAE5 PUSH2 0xAF6 JUMP JUMPDEST SWAP1 POP PUSH2 0xAF1 DUP3 DUP3 PUSH2 0xC70 JUMP JUMPDEST SWAP2 SWAP1 POP JUMP JUMPDEST PUSH1 0x0 PUSH1 0x40 MLOAD SWAP1 POP SWAP1 JUMP JUMPDEST PUSH1 0x0 PUSH8 0xFFFFFFFFFFFFFFFF DUP3 GT ISZERO PUSH2 0xB1B JUMPI PUSH2 0xB1A PUSH2 0xCFF JUMP JUMPDEST JUMPDEST PUSH2 0xB24 DUP3 PUSH2 0xD42 JUMP JUMPDEST SWAP1 POP PUSH1 0x20 DUP2 ADD SWAP1 POP SWAP2 SWAP1 POP JUMP JUMPDEST PUSH1 0x0 DUP2 SWAP1 POP PUSH1 0x20 DUP3 ADD SWAP1 POP SWAP2 SWAP1 POP JUMP JUMPDEST PUSH1 0x0 DUP2 MLOAD SWAP1 POP SWAP2 SWAP1 POP JUMP JUMPDEST PUSH1 0x0 DUP2 MLOAD SWAP1 POP SWAP2 SWAP1 POP JUMP JUMPDEST PUSH1 0x0 PUSH1 0x20 DUP3 ADD SWAP1 POP SWAP2 SWAP1 POP JUMP JUMPDEST PUSH1 0x0 DUP3 DUP3 MSTORE PUSH1 0x20 DUP3 ADD SWAP1 POP SWAP3 SWAP2 POP POP JUMP JUMPDEST PUSH1 0x0 DUP3 DUP3 MSTORE PUSH1 0x20 DUP3 ADD SWAP1 POP SWAP3 SWAP2 POP POP JUMP JUMPDEST PUSH1 0x0 DUP2 SWAP1 POP SWAP3 SWAP2 POP POP JUMP JUMPDEST PUSH1 0x0 PUSH2 0xB9C DUP3 PUSH2 0xBC0 JUMP JUMPDEST SWAP1 POP SWAP2 SWAP1 POP JUMP JUMPDEST PUSH1 0x0 DUP2 SWAP1 POP SWAP2 SWAP1 POP JUMP JUMPDEST PUSH1 0x0 DUP2 SWAP1 POP PUSH2 0xBBB DUP3 PUSH2 0xDCB JUMP JUMPDEST SWAP2 SWAP1 POP JUMP JUMPDEST PUSH1 0x0 PUSH20 0xFFFFFFFFFFFFFFFFFFFFFFFFFFFFFFFFFFFFFFFF DUP3 AND SWAP1 POP SWAP2 SWAP1 POP JUMP JUMPDEST PUSH1 0x0 DUP2 SWAP1 POP SWAP2 SWAP1 POP JUMP JUMPDEST PUSH1 0x0 PUSH2 0xBF5 DUP3 PUSH2 0xBAD JUMP JUMPDEST SWAP1 POP SWAP2 SWAP1 POP JUMP JUMPDEST DUP3 DUP2 DUP4 CALLDATACOPY PUSH1 0x0 DUP4 DUP4 ADD MSTORE POP POP POP JUMP JUMPDEST PUSH1 0x0 JUMPDEST DUP4 DUP2 LT ISZERO PUSH2 0xC29 JUMPI DUP1 DUP3 ADD MLOAD DUP2 DUP5 ADD MSTORE PUSH1 0x20 DUP2 ADD SWAP1 POP PUSH2 0xC0E JUMP JUMPDEST DUP4 DUP2 GT ISZERO PUSH2 0xC38 JUMPI PUSH1 0x0 DUP5 DUP5 ADD MSTORE JUMPDEST POP POP POP POP JUMP JUMPDEST PUSH1 0x0 PUSH1 0x2 DUP3 DIV SWAP1 POP PUSH1 0x1 DUP3 AND DUP1 PUSH2 0xC56 JUMPI PUSH1 0x7F DUP3 AND SWAP2 POP JUMPDEST PUSH1 0x20 DUP3 LT DUP2 EQ ISZERO PUSH2 0xC6A JUMPI PUSH2 0xC69 PUSH2 0xCD0 JUMP JUMPDEST JUMPDEST POP SWAP2 SWAP1 POP JUMP JUMPDEST PUSH2 0xC79 DUP3 PUSH2 0xD42 JUMP JUMPDEST DUP2 ADD DUP2 DUP2 LT PUSH8 0xFFFFFFFFFFFFFFFF DUP3 GT OR ISZERO PUSH2 0xC98 JUMPI PUSH2 0xC97 PUSH2 0xCFF JUMP JUMPDEST JUMPDEST DUP1 PUSH1 0x40 MSTORE POP POP POP JUMP JUMPDEST PUSH32 0x4E487B7100000000000000000000000000000000000000000000000000000000 PUSH1 0x0 MSTORE PUSH1 0x21 PUSH1 0x4 MSTORE PUSH1 0x24 PUSH1 0x0 REVERT JUMPDEST PUSH32 0x4E487B7100000000000000000000000000000000000000000000000000000000 PUSH1 0x0 MSTORE PUSH1 0x22 PUSH1 0x4 MSTORE PUSH1 0x24 PUSH1 0x0 REVERT JUMPDEST PUSH32 0x4E487B7100000000000000000000000000000000000000000000000000000000 PUSH1 0x0 MSTORE PUSH1 0x41 PUSH1 0x4 MSTORE PUSH1 0x24 PUSH1 0x0 REVERT JUMPDEST PUSH1 0x0 DUP1 REVERT JUMPDEST PUSH1 0x0 DUP1 REVERT JUMPDEST PUSH1 0x0 DUP1 REVERT JUMPDEST PUSH1 0x0 DUP1 REVERT JUMPDEST PUSH1 0x0 PUSH1 0x1F NOT PUSH1 0x1F DUP4 ADD AND SWAP1 POP SWAP2 SWAP1 POP JUMP JUMPDEST PUSH32 0x596F7520617265206E6F7420746865206F776E6572206F722070726976617465 PUSH1 0x0 DUP3 ADD MSTORE PUSH32 0x2070726F76696465720000000000000000000000000000000000000000000000 PUSH1 0x20 DUP3 ADD MSTORE POP JUMP JUMPDEST PUSH32 0x596F7572206E6F742061646D696E000000000000000000000000000000000000 PUSH1 0x0 DUP3 ADD MSTORE POP JUMP JUMPDEST PUSH1 0x5 DUP2 LT PUSH2 0xDDC JUMPI PUSH2 0xDDB PUSH2 0xCA1 JUMP JUMPDEST JUMPDEST POP JUMP JUMPDEST PUSH2 0xDE8 DUP2 PUSH2 0xB91 JUMP JUMPDEST DUP2 EQ PUSH2 0xDF3 JUMPI PUSH1 0x0 DUP1 REVERT JUMPDEST POP JUMP INVALID LOG2 PUSH5 0x6970667358 0x22 SLT KECCAK256 DUP12 0xDE 0x1F COINBASE DIV PUSH20 0x7800412F157FDD0B9F3E2620B951000F7B48EA56 BLOCKHASH MULMOD 0xAD 0xD4 PUSH21 0x6164736F6C63430008070033000000000000000000 "
				},
				"gasEstimates": {
					"creation": {
						"codeDepositCost": "725600",
						"executionCost": "44972",
						"totalCost": "770572"
					},
					"external": {
						"getBalanceEth(address)": "3279",
						"getBalancePrivateToken(address)": "2891",
						"getBalancePublicToken(address)": "2892",
						"getBalanceSeedToken(address)": "2870",
						"get_blackList()": "infinite",
						"get_keccak256(string)": "infinite",
						"get_whiteList()": "infinite",
						"structUsers_(address)": "infinite",
						"tokenAmount_()": "2429",
						"tokenPrice_()": "2430"
					}
				},
				"methodIdentifiers": {
					"getBalanceEth(address)": "99067ede",
					"getBalancePrivateToken(address)": "b06cdc12",
					"getBalancePublicToken(address)": "72f0d72b",
					"getBalanceSeedToken(address)": "2599d6d0",
					"get_blackList()": "7f89128f",
					"get_keccak256(string)": "8e4f8c6b",
					"get_whiteList()": "c10e3911",
					"structUsers_(address)": "fc837259",
					"tokenAmount_()": "948942ad",
					"tokenPrice_()": "0761c8b9"
				}
			},
			"storageLayout": {
				"storage": [
					{
						"astId": 580,
						"contract": "GitHub/contract-token-cryptoMonster/backend/shared/helpers/helpresFunc.sol:helpresFunc",
						"label": "structUsers_",
						"offset": 0,
						"slot": "0",
						"type": "t_mapping(t_address,t_struct(structUser)575_storage)"
					},
					{
						"astId": 586,
						"contract": "GitHub/contract-token-cryptoMonster/backend/shared/helpers/helpresFunc.sol:helpresFunc",
						"label": "allowed",
						"offset": 0,
						"slot": "1",
						"type": "t_mapping(t_address,t_mapping(t_address,t_uint256))"
					},
					{
						"astId": 589,
						"contract": "GitHub/contract-token-cryptoMonster/backend/shared/helpers/helpresFunc.sol:helpresFunc",
						"label": "tokenPrice_",
						"offset": 0,
						"slot": "2",
						"type": "t_uint256"
					},
					{
						"astId": 592,
						"contract": "GitHub/contract-token-cryptoMonster/backend/shared/helpers/helpresFunc.sol:helpresFunc",
						"label": "tokenAmount_",
						"offset": 0,
						"slot": "3",
						"type": "t_uint256"
					},
					{
						"astId": 611,
						"contract": "GitHub/contract-token-cryptoMonster/backend/shared/helpers/helpresFunc.sol:helpresFunc",
						"label": "structPhases_",
						"offset": 0,
						"slot": "4",
						"type": "t_mapping(t_address,t_struct(structPhase)606_storage)"
					},
					{
						"astId": 629,
						"contract": "GitHub/contract-token-cryptoMonster/backend/shared/helpers/helpresFunc.sol:helpresFunc",
						"label": "strucApplications_",
						"offset": 0,
						"slot": "5",
						"type": "t_mapping(t_address,t_struct(structApplication)624_storage)"
					},
					{
						"astId": 632,
						"contract": "GitHub/contract-token-cryptoMonster/backend/shared/helpers/helpresFunc.sol:helpresFunc",
						"label": "structApplicationsAmountAdr",
						"offset": 0,
						"slot": "6",
						"type": "t_array(t_address)dyn_storage"
					},
					{
						"astId": 635,
						"contract": "GitHub/contract-token-cryptoMonster/backend/shared/helpers/helpresFunc.sol:helpresFunc",
						"label": "whiteList",
						"offset": 0,
						"slot": "7",
						"type": "t_array(t_address)dyn_storage"
					},
					{
						"astId": 638,
						"contract": "GitHub/contract-token-cryptoMonster/backend/shared/helpers/helpresFunc.sol:helpresFunc",
						"label": "blackList",
						"offset": 0,
						"slot": "8",
						"type": "t_array(t_address)dyn_storage"
					}
				],
				"types": {
					"t_address": {
						"encoding": "inplace",
						"label": "address",
						"numberOfBytes": "20"
					},
					"t_array(t_address)dyn_storage": {
						"base": "t_address",
						"encoding": "dynamic_array",
						"label": "address[]",
						"numberOfBytes": "32"
					},
					"t_bool": {
						"encoding": "inplace",
						"label": "bool",
						"numberOfBytes": "1"
					},
					"t_bytes32": {
						"encoding": "inplace",
						"label": "bytes32",
						"numberOfBytes": "32"
					},
					"t_enum(Role)559": {
						"encoding": "inplace",
						"label": "enum structures.Role",
						"numberOfBytes": "1"
					},
					"t_mapping(t_address,t_mapping(t_address,t_uint256))": {
						"encoding": "mapping",
						"key": "t_address",
						"label": "mapping(address => mapping(address => uint256))",
						"numberOfBytes": "32",
						"value": "t_mapping(t_address,t_uint256)"
					},
					"t_mapping(t_address,t_struct(structApplication)624_storage)": {
						"encoding": "mapping",
						"key": "t_address",
						"label": "mapping(address => struct structures.structApplication)",
						"numberOfBytes": "32",
						"value": "t_struct(structApplication)624_storage"
					},
					"t_mapping(t_address,t_struct(structPhase)606_storage)": {
						"encoding": "mapping",
						"key": "t_address",
						"label": "mapping(address => struct structures.structPhase)",
						"numberOfBytes": "32",
						"value": "t_struct(structPhase)606_storage"
					},
					"t_mapping(t_address,t_struct(structUser)575_storage)": {
						"encoding": "mapping",
						"key": "t_address",
						"label": "mapping(address => struct structures.structUser)",
						"numberOfBytes": "32",
						"value": "t_struct(structUser)575_storage"
					},
					"t_mapping(t_address,t_uint256)": {
						"encoding": "mapping",
						"key": "t_address",
						"label": "mapping(address => uint256)",
						"numberOfBytes": "32",
						"value": "t_uint256"
					},
					"t_string_storage": {
						"encoding": "bytes",
						"label": "string",
						"numberOfBytes": "32"
					},
					"t_struct(structApplication)624_storage": {
						"encoding": "inplace",
						"label": "struct structures.structApplication",
						"members": [
							{
								"astId": 613,
								"contract": "GitHub/contract-token-cryptoMonster/backend/shared/helpers/helpresFunc.sol:helpresFunc",
								"label": "name",
								"offset": 0,
								"slot": "0",
								"type": "t_string_storage"
							},
							{
								"astId": 615,
								"contract": "GitHub/contract-token-cryptoMonster/backend/shared/helpers/helpresFunc.sol:helpresFunc",
								"label": "contactForCommunication",
								"offset": 0,
								"slot": "1",
								"type": "t_string_storage"
							},
							{
								"astId": 617,
								"contract": "GitHub/contract-token-cryptoMonster/backend/shared/helpers/helpresFunc.sol:helpresFunc",
								"label": "userAdr",
								"offset": 0,
								"slot": "2",
								"type": "t_address"
							},
							{
								"astId": 619,
								"contract": "GitHub/contract-token-cryptoMonster/backend/shared/helpers/helpresFunc.sol:helpresFunc",
								"label": "status",
								"offset": 20,
								"slot": "2",
								"type": "t_bool"
							},
							{
								"astId": 621,
								"contract": "GitHub/contract-token-cryptoMonster/backend/shared/helpers/helpresFunc.sol:helpresFunc",
								"label": "reviewed",
								"offset": 21,
								"slot": "2",
								"type": "t_bool"
							},
							{
								"astId": 623,
								"contract": "GitHub/contract-token-cryptoMonster/backend/shared/helpers/helpresFunc.sol:helpresFunc",
								"label": "exist",
								"offset": 22,
								"slot": "2",
								"type": "t_bool"
							}
						],
						"numberOfBytes": "96"
					},
					"t_struct(structPhase)606_storage": {
						"encoding": "inplace",
						"label": "struct structures.structPhase",
						"members": [
							{
								"astId": 603,
								"contract": "GitHub/contract-token-cryptoMonster/backend/shared/helpers/helpresFunc.sol:helpresFunc",
								"label": "statusPhase",
								"offset": 0,
								"slot": "0",
								"type": "t_bool"
							},
							{
								"astId": 605,
								"contract": "GitHub/contract-token-cryptoMonster/backend/shared/helpers/helpresFunc.sol:helpresFunc",
								"label": "reviewed",
								"offset": 1,
								"slot": "0",
								"type": "t_bool"
							}
						],
						"numberOfBytes": "32"
					},
					"t_struct(structUser)575_storage": {
						"encoding": "inplace",
						"label": "struct structures.structUser",
						"members": [
							{
								"astId": 562,
								"contract": "GitHub/contract-token-cryptoMonster/backend/shared/helpers/helpresFunc.sol:helpresFunc",
								"label": "role",
								"offset": 0,
								"slot": "0",
								"type": "t_enum(Role)559"
							},
							{
								"astId": 564,
								"contract": "GitHub/contract-token-cryptoMonster/backend/shared/helpers/helpresFunc.sol:helpresFunc",
								"label": "login",
								"offset": 0,
								"slot": "1",
								"type": "t_string_storage"
							},
							{
								"astId": 566,
								"contract": "GitHub/contract-token-cryptoMonster/backend/shared/helpers/helpresFunc.sol:helpresFunc",
								"label": "password",
								"offset": 0,
								"slot": "2",
								"type": "t_bytes32"
							},
							{
								"astId": 568,
								"contract": "GitHub/contract-token-cryptoMonster/backend/shared/helpers/helpresFunc.sol:helpresFunc",
								"label": "balance_overall",
								"offset": 0,
								"slot": "3",
								"type": "t_uint256"
							},
							{
								"astId": 570,
								"contract": "GitHub/contract-token-cryptoMonster/backend/shared/helpers/helpresFunc.sol:helpresFunc",
								"label": "balance_seed",
								"offset": 0,
								"slot": "4",
								"type": "t_uint256"
							},
							{
								"astId": 572,
								"contract": "GitHub/contract-token-cryptoMonster/backend/shared/helpers/helpresFunc.sol:helpresFunc",
								"label": "balance_private",
								"offset": 0,
								"slot": "5",
								"type": "t_uint256"
							},
							{
								"astId": 574,
								"contract": "GitHub/contract-token-cryptoMonster/backend/shared/helpers/helpresFunc.sol:helpresFunc",
								"label": "balance_public",
								"offset": 0,
								"slot": "6",
								"type": "t_uint256"
							}
						],
						"numberOfBytes": "224"
					},
					"t_uint256": {
						"encoding": "inplace",
						"label": "uint256",
						"numberOfBytes": "32"
					}
				}
			},
			"userdoc": {
				"kind": "user",
				"methods": {},
				"version": 1
			}
		}
	}
}