{
	"GitHub/contract-token-cryptoMonster/backend/components/PhasePrivate.sol": {
		"PhasePrivate": {
			"abi": [
				{
					"inputs": [
						{
							"internalType": "address",
							"name": "_userAdr",
							"type": "address"
						}
					],
					"name": "acceptApplication",
					"outputs": [],
					"stateMutability": "nonpayable",
					"type": "function"
				},
				{
					"inputs": [
						{
							"internalType": "string",
							"name": "_name",
							"type": "string"
						},
						{
							"internalType": "string",
							"name": "_contactForCommunication",
							"type": "string"
						},
						{
							"internalType": "address",
							"name": "_userAdr",
							"type": "address"
						}
					],
					"name": "application",
					"outputs": [],
					"stateMutability": "nonpayable",
					"type": "function"
				},
				{
					"inputs": [
						{
							"internalType": "uint256",
							"name": "_price",
							"type": "uint256"
						}
					],
					"name": "changeTokenAmountPricePrivate",
					"outputs": [],
					"stateMutability": "nonpayable",
					"type": "function"
				},
				{
					"inputs": [
						{
							"internalType": "address",
							"name": "_userAdr",
							"type": "address"
						}
					],
					"name": "deviationApplication",
					"outputs": [],
					"stateMutability": "nonpayable",
					"type": "function"
				},
				{
					"inputs": [],
					"name": "endPrivatePhase",
					"outputs": [],
					"stateMutability": "nonpayable",
					"type": "function"
				},
				{
					"inputs": [],
					"name": "getApplicationAmountAdr",
					"outputs": [
						{
							"internalType": "address[]",
							"name": "",
							"type": "address[]"
						}
					],
					"stateMutability": "view",
					"type": "function"
				},
				{
					"inputs": [
						{
							"internalType": "address",
							"name": "adr",
							"type": "address"
						}
					],
					"name": "getBalanceEth",
					"outputs": [
						{
							"internalType": "uint256",
							"name": "",
							"type": "uint256"
						}
					],
					"stateMutability": "view",
					"type": "function"
				},
				{
					"inputs": [
						{
							"internalType": "address",
							"name": "_userAdr",
							"type": "address"
						}
					],
					"name": "getBalancePrivateToken",
					"outputs": [
						{
							"internalType": "uint256",
							"name": "",
							"type": "uint256"
						}
					],
					"stateMutability": "view",
					"type": "function"
				},
				{
					"inputs": [
						{
							"internalType": "address",
							"name": "_userAdr",
							"type": "address"
						}
					],
					"name": "getBalancePublicToken",
					"outputs": [
						{
							"internalType": "uint256",
							"name": "",
							"type": "uint256"
						}
					],
					"stateMutability": "view",
					"type": "function"
				},
				{
					"inputs": [
						{
							"internalType": "address",
							"name": "_userAdr",
							"type": "address"
						}
					],
					"name": "getBalanceSeedToken",
					"outputs": [
						{
							"internalType": "uint256",
							"name": "",
							"type": "uint256"
						}
					],
					"stateMutability": "view",
					"type": "function"
				},
				{
					"inputs": [],
					"name": "get_blackList",
					"outputs": [
						{
							"internalType": "address[]",
							"name": "",
							"type": "address[]"
						}
					],
					"stateMutability": "view",
					"type": "function"
				},
				{
					"inputs": [
						{
							"internalType": "string",
							"name": "_hash",
							"type": "string"
						}
					],
					"name": "get_keccak256",
					"outputs": [
						{
							"internalType": "bytes32",
							"name": "",
							"type": "bytes32"
						}
					],
					"stateMutability": "pure",
					"type": "function"
				},
				{
					"inputs": [],
					"name": "get_whiteList",
					"outputs": [
						{
							"internalType": "address[]",
							"name": "",
							"type": "address[]"
						}
					],
					"stateMutability": "view",
					"type": "function"
				},
				{
					"inputs": [],
					"name": "startPrivatePhase",
					"outputs": [],
					"stateMutability": "nonpayable",
					"type": "function"
				},
				{
					"inputs": [
						{
							"internalType": "address",
							"name": "",
							"type": "address"
						}
					],
					"name": "structUsers_",
					"outputs": [
						{
							"internalType": "enum structures.Role",
							"name": "role",
							"type": "uint8"
						},
						{
							"internalType": "string",
							"name": "login",
							"type": "string"
						},
						{
							"internalType": "bytes32",
							"name": "password",
							"type": "bytes32"
						},
						{
							"internalType": "uint256",
							"name": "balance_overall",
							"type": "uint256"
						},
						{
							"internalType": "uint256",
							"name": "balance_seed",
							"type": "uint256"
						},
						{
							"internalType": "uint256",
							"name": "balance_private",
							"type": "uint256"
						},
						{
							"internalType": "uint256",
							"name": "balance_public",
							"type": "uint256"
						}
					],
					"stateMutability": "view",
					"type": "function"
				},
				{
					"inputs": [],
					"name": "tokenAmount_",
					"outputs": [
						{
							"internalType": "uint256",
							"name": "",
							"type": "uint256"
						}
					],
					"stateMutability": "view",
					"type": "function"
				},
				{
					"inputs": [],
					"name": "tokenPrice_",
					"outputs": [
						{
							"internalType": "uint256",
							"name": "",
							"type": "uint256"
						}
					],
					"stateMutability": "view",
					"type": "function"
				}
			],
			"devdoc": {
				"kind": "dev",
				"methods": {},
				"version": 1
			},
			"evm": {
				"assembly": "    /* \"GitHub/contract-token-cryptoMonster/backend/components/PhasePrivate.sol\":158:4518  contract PhasePrivate is validateFuncs {\r... */\n  mstore(0x40, 0x80)\n    /* \"GitHub/contract-token-cryptoMonster/backend/shared/lib/structures.sol\":1152:1161  750000000 */\n  0x2cb41780\n    /* \"GitHub/contract-token-cryptoMonster/backend/shared/lib/structures.sol\":1123:1161  uint256 public tokenPrice_ = 750000000 */\n  0x02\n  sstore\n    /* \"GitHub/contract-token-cryptoMonster/backend/shared/lib/structures.sol\":1412:1418  100000 */\n  0x0186a0\n    /* \"GitHub/contract-token-cryptoMonster/backend/shared/lib/structures.sol\":1385:1418  uint public tokenAmount_ = 100000 */\n  0x03\n  sstore\n    /* \"GitHub/contract-token-cryptoMonster/backend/components/PhasePrivate.sol\":158:4518  contract PhasePrivate is validateFuncs {\r... */\n  callvalue\n  dup1\n  iszero\n  tag_1\n  jumpi\n  0x00\n  dup1\n  revert\ntag_1:\n  pop\n  dataSize(sub_0)\n  dup1\n  dataOffset(sub_0)\n  0x00\n  codecopy\n  0x00\n  return\nstop\n\nsub_0: assembly {\n        /* \"GitHub/contract-token-cryptoMonster/backend/components/PhasePrivate.sol\":158:4518  contract PhasePrivate is validateFuncs {\r... */\n      mstore(0x40, 0x80)\n      callvalue\n      dup1\n      iszero\n      tag_1\n      jumpi\n      0x00\n      dup1\n      revert\n    tag_1:\n      pop\n      jumpi(tag_2, lt(calldatasize, 0x04))\n      shr(0xe0, calldataload(0x00))\n      dup1\n      0x7f89128f\n      gt\n      tag_20\n      jumpi\n      dup1\n      0x99067ede\n      gt\n      tag_21\n      jumpi\n      dup1\n      0x99067ede\n      eq\n      tag_15\n      jumpi\n      dup1\n      0xa678b65b\n      eq\n      tag_16\n      jumpi\n      dup1\n      0xb06cdc12\n      eq\n      tag_17\n      jumpi\n      dup1\n      0xc10e3911\n      eq\n      tag_18\n      jumpi\n      dup1\n      0xfc837259\n      eq\n      tag_19\n      jumpi\n      jump(tag_2)\n    tag_21:\n      dup1\n      0x7f89128f\n      eq\n      tag_11\n      jumpi\n      dup1\n      0x8aa7cc0b\n      eq\n      tag_12\n      jumpi\n      dup1\n      0x8e4f8c6b\n      eq\n      tag_13\n      jumpi\n      dup1\n      0x948942ad\n      eq\n      tag_14\n      jumpi\n      jump(tag_2)\n    tag_20:\n      dup1\n      0x686c4cea\n      gt\n      tag_22\n      jumpi\n      dup1\n      0x686c4cea\n      eq\n      tag_7\n      jumpi\n      dup1\n      0x72f0d72b\n      eq\n      tag_8\n      jumpi\n      dup1\n      0x785963c3\n      eq\n      tag_9\n      jumpi\n      dup1\n      0x7f4b8df0\n      eq\n      tag_10\n      jumpi\n      jump(tag_2)\n    tag_22:\n      dup1\n      0x0691615d\n      eq\n      tag_3\n      jumpi\n      dup1\n      0x0761c8b9\n      eq\n      tag_4\n      jumpi\n      dup1\n      0x1d3eea35\n      eq\n      tag_5\n      jumpi\n      dup1\n      0x2599d6d0\n      eq\n      tag_6\n      jumpi\n    tag_2:\n      0x00\n      dup1\n      revert\n        /* \"GitHub/contract-token-cryptoMonster/backend/components/PhasePrivate.sol\":3504:3768  function startPrivatePhase () public onlyPrivateProvider {\r... */\n    tag_3:\n      tag_23\n      tag_24\n      jump\t// in\n    tag_23:\n      stop\n        /* \"GitHub/contract-token-cryptoMonster/backend/shared/lib/structures.sol\":1123:1161  uint256 public tokenPrice_ = 750000000 */\n    tag_4:\n      tag_25\n      tag_26\n      jump\t// in\n    tag_25:\n      mload(0x40)\n      tag_27\n      swap2\n      swap1\n      tag_28\n      jump\t// in\n    tag_27:\n      mload(0x40)\n      dup1\n      swap2\n      sub\n      swap1\n      return\n        /* \"GitHub/contract-token-cryptoMonster/backend/components/PhasePrivate.sol\":3079:3407  function deviationApplication (address _userAdr) public onlyPrivateProvider {\r... */\n    tag_5:\n      tag_29\n      0x04\n      dup1\n      calldatasize\n      sub\n      dup2\n      add\n      swap1\n      tag_30\n      swap2\n      swap1\n      tag_31\n      jump\t// in\n    tag_30:\n      tag_32\n      jump\t// in\n    tag_29:\n      stop\n        /* \"GitHub/contract-token-cryptoMonster/backend/shared/helpers/helpresFunc.sol\":849:988  function getBalanceSeedToken (address _userAdr) public view returns (uint256) {\r... */\n    tag_6:\n      tag_33\n      0x04\n      dup1\n      calldatasize\n      sub\n      dup2\n      add\n      swap1\n      tag_34\n      swap2\n      swap1\n      tag_31\n      jump\t// in\n    tag_34:\n      tag_35\n      jump\t// in\n    tag_33:\n      mload(0x40)\n      tag_36\n      swap2\n      swap1\n      tag_28\n      jump\t// in\n    tag_36:\n      mload(0x40)\n      dup1\n      swap2\n      sub\n      swap1\n      return\n        /* \"GitHub/contract-token-cryptoMonster/backend/components/PhasePrivate.sol\":1875:2120  function getApplicationAmountAdr () public onlyPrivateProvider view returns (address[] memory) {\r... */\n    tag_7:\n      tag_37\n      tag_38\n      jump\t// in\n    tag_37:\n      mload(0x40)\n      tag_39\n      swap2\n      swap1\n      tag_40\n      jump\t// in\n    tag_39:\n      mload(0x40)\n      dup1\n      swap2\n      sub\n      swap1\n      return\n        /* \"GitHub/contract-token-cryptoMonster/backend/shared/helpers/helpresFunc.sol\":1352:1495  function getBalancePublicToken (address _userAdr) public view returns (uint256) {\r... */\n    tag_8:\n      tag_41\n      0x04\n      dup1\n      calldatasize\n      sub\n      dup2\n      add\n      swap1\n      tag_42\n      swap2\n      swap1\n      tag_31\n      jump\t// in\n    tag_42:\n      tag_43\n      jump\t// in\n    tag_41:\n      mload(0x40)\n      tag_44\n      swap2\n      swap1\n      tag_28\n      jump\t// in\n    tag_44:\n      mload(0x40)\n      dup1\n      swap2\n      sub\n      swap1\n      return\n        /* \"GitHub/contract-token-cryptoMonster/backend/components/PhasePrivate.sol\":297:1761  function application(string memory _name, string memory _contactForCommunication, address _userAdr) public onlyUser {\r... */\n    tag_9:\n      tag_45\n      0x04\n      dup1\n      calldatasize\n      sub\n      dup2\n      add\n      swap1\n      tag_46\n      swap2\n      swap1\n      tag_47\n      jump\t// in\n    tag_46:\n      tag_48\n      jump\t// in\n    tag_45:\n      stop\n        /* \"GitHub/contract-token-cryptoMonster/backend/components/PhasePrivate.sol\":3863:4295  function endPrivatePhase () public onlyPrivateProvider {\r... */\n    tag_10:\n      tag_49\n      tag_50\n      jump\t// in\n    tag_49:\n      stop\n        /* \"GitHub/contract-token-cryptoMonster/backend/shared/helpers/helpresFunc.sol\":632:742  function get_blackList() public onlyOwner view returns (address[] memory) {\r... */\n    tag_11:\n      tag_51\n      tag_52\n      jump\t// in\n    tag_51:\n      mload(0x40)\n      tag_53\n      swap2\n      swap1\n      tag_40\n      jump\t// in\n    tag_53:\n      mload(0x40)\n      dup1\n      swap2\n      sub\n      swap1\n      return\n        /* \"GitHub/contract-token-cryptoMonster/backend/components/PhasePrivate.sol\":4396:4515  function changeTokenAmountPricePrivate (uint _price) public onlyPrivateProvider {\r... */\n    tag_12:\n      tag_54\n      0x04\n      dup1\n      calldatasize\n      sub\n      dup2\n      add\n      swap1\n      tag_55\n      swap2\n      swap1\n      tag_56\n      jump\t// in\n    tag_55:\n      tag_57\n      jump\t// in\n    tag_54:\n      stop\n        /* \"GitHub/contract-token-cryptoMonster/backend/shared/helpers/helpresFunc.sol\":212:350  function get_keccak256(string memory _hash) public pure returns(bytes32) {\r... */\n    tag_13:\n      tag_58\n      0x04\n      dup1\n      calldatasize\n      sub\n      dup2\n      add\n      swap1\n      tag_59\n      swap2\n      swap1\n      tag_60\n      jump\t// in\n    tag_59:\n      tag_61\n      jump\t// in\n    tag_58:\n      mload(0x40)\n      tag_62\n      swap2\n      swap1\n      tag_63\n      jump\t// in\n    tag_62:\n      mload(0x40)\n      dup1\n      swap2\n      sub\n      swap1\n      return\n        /* \"GitHub/contract-token-cryptoMonster/backend/shared/lib/structures.sol\":1385:1418  uint public tokenAmount_ = 100000 */\n    tag_14:\n      tag_64\n      tag_65\n      jump\t// in\n    tag_64:\n      mload(0x40)\n      tag_66\n      swap2\n      swap1\n      tag_28\n      jump\t// in\n    tag_66:\n      mload(0x40)\n      dup1\n      swap2\n      sub\n      swap1\n      return\n        /* \"GitHub/contract-token-cryptoMonster/backend/shared/helpers/helpresFunc.sol\":1595:1706  function getBalanceEth(address adr) public view returns(uint256) {\r... */\n    tag_15:\n      tag_67\n      0x04\n      dup1\n      calldatasize\n      sub\n      dup2\n      add\n      swap1\n      tag_68\n      swap2\n      swap1\n      tag_31\n      jump\t// in\n    tag_68:\n      tag_69\n      jump\t// in\n    tag_67:\n      mload(0x40)\n      tag_70\n      swap2\n      swap1\n      tag_28\n      jump\t// in\n    tag_70:\n      mload(0x40)\n      dup1\n      swap2\n      sub\n      swap1\n      return\n        /* \"GitHub/contract-token-cryptoMonster/backend/components/PhasePrivate.sol\":2196:2995  function acceptApplication (address _userAdr) public onlyPrivateProvider {\r... */\n    tag_16:\n      tag_71\n      0x04\n      dup1\n      calldatasize\n      sub\n      dup2\n      add\n      swap1\n      tag_72\n      swap2\n      swap1\n      tag_31\n      jump\t// in\n    tag_72:\n      tag_73\n      jump\t// in\n    tag_71:\n      stop\n        /* \"GitHub/contract-token-cryptoMonster/backend/shared/helpers/helpresFunc.sol\":1098:1243  function getBalancePrivateToken (address _userAdr) public view returns (uint256) {\r... */\n    tag_17:\n      tag_74\n      0x04\n      dup1\n      calldatasize\n      sub\n      dup2\n      add\n      swap1\n      tag_75\n      swap2\n      swap1\n      tag_31\n      jump\t// in\n    tag_75:\n      tag_76\n      jump\t// in\n    tag_74:\n      mload(0x40)\n      tag_77\n      swap2\n      swap1\n      tag_28\n      jump\t// in\n    tag_77:\n      mload(0x40)\n      dup1\n      swap2\n      sub\n      swap1\n      return\n        /* \"GitHub/contract-token-cryptoMonster/backend/shared/helpers/helpresFunc.sol\":426:554  function get_whiteList() public onlyOwnerAndPrivateProvider view returns (address[] memory) {\r... */\n    tag_18:\n      tag_78\n      tag_79\n      jump\t// in\n    tag_78:\n      mload(0x40)\n      tag_80\n      swap2\n      swap1\n      tag_40\n      jump\t// in\n    tag_80:\n      mload(0x40)\n      dup1\n      swap2\n      sub\n      swap1\n      return\n        /* \"GitHub/contract-token-cryptoMonster/backend/shared/lib/structures.sol\":836:887  mapping (address => structUser) public structUsers_ */\n    tag_19:\n      tag_81\n      0x04\n      dup1\n      calldatasize\n      sub\n      dup2\n      add\n      swap1\n      tag_82\n      swap2\n      swap1\n      tag_31\n      jump\t// in\n    tag_82:\n      tag_83\n      jump\t// in\n    tag_81:\n      mload(0x40)\n      tag_84\n      swap8\n      swap7\n      swap6\n      swap5\n      swap4\n      swap3\n      swap2\n      swap1\n      tag_85\n      jump\t// in\n    tag_84:\n      mload(0x40)\n      dup1\n      swap2\n      sub\n      swap1\n      return\n        /* \"GitHub/contract-token-cryptoMonster/backend/components/PhasePrivate.sol\":3504:3768  function startPrivatePhase () public onlyPrivateProvider {\r... */\n    tag_24:\n        /* \"GitHub/contract-token-cryptoMonster/backend/shared/helpers/modifireFunc.sol\":567:586  Role.SYSTEM_PRIVATE */\n      0x02\n        /* \"GitHub/contract-token-cryptoMonster/backend/shared/helpers/modifireFunc.sol\":534:586  structUsers_[msg.sender].role == Role.SYSTEM_PRIVATE */\n      0x04\n      dup2\n      gt\n      iszero\n      tag_87\n      jumpi\n      tag_88\n      tag_89\n      jump\t// in\n    tag_88:\n    tag_87:\n        /* \"GitHub/contract-token-cryptoMonster/backend/shared/helpers/modifireFunc.sol\":534:546  structUsers_ */\n      0x00\n        /* \"GitHub/contract-token-cryptoMonster/backend/shared/helpers/modifireFunc.sol\":534:558  structUsers_[msg.sender] */\n      dup1\n        /* \"GitHub/contract-token-cryptoMonster/backend/shared/helpers/modifireFunc.sol\":547:557  msg.sender */\n      caller\n        /* \"GitHub/contract-token-cryptoMonster/backend/shared/helpers/modifireFunc.sol\":534:558  structUsers_[msg.sender] */\n      0xffffffffffffffffffffffffffffffffffffffff\n      and\n      0xffffffffffffffffffffffffffffffffffffffff\n      and\n      dup2\n      mstore\n      0x20\n      add\n      swap1\n      dup2\n      mstore\n      0x20\n      add\n      0x00\n      keccak256\n        /* \"GitHub/contract-token-cryptoMonster/backend/shared/helpers/modifireFunc.sol\":534:563  structUsers_[msg.sender].role */\n      0x00\n      add\n      0x00\n      swap1\n      sload\n      swap1\n      0x0100\n      exp\n      swap1\n      div\n      0xff\n      and\n        /* \"GitHub/contract-token-cryptoMonster/backend/shared/helpers/modifireFunc.sol\":534:586  structUsers_[msg.sender].role == Role.SYSTEM_PRIVATE */\n      0x04\n      dup2\n      gt\n      iszero\n      tag_90\n      jumpi\n      tag_91\n      tag_89\n      jump\t// in\n    tag_91:\n    tag_90:\n      eq\n        /* \"GitHub/contract-token-cryptoMonster/backend/shared/helpers/modifireFunc.sol\":526:616  require(structUsers_[msg.sender].role == Role.SYSTEM_PRIVATE, \"Your not Private provider\") */\n      tag_92\n      jumpi\n      mload(0x40)\n      0x08c379a000000000000000000000000000000000000000000000000000000000\n      dup2\n      mstore\n      0x04\n      add\n      tag_93\n      swap1\n      tag_94\n      jump\t// in\n    tag_93:\n      mload(0x40)\n      dup1\n      swap2\n      sub\n      swap1\n      revert\n    tag_92:\n        /* \"GitHub/contract-token-cryptoMonster/backend/components/PhasePrivate.sol\":3621:3626  false */\n      0x00\n        /* \"GitHub/contract-token-cryptoMonster/backend/components/PhasePrivate.sol\":3580:3626  structPhases_[msg.sender].statusPhase == false */\n      iszero\n      iszero\n        /* \"GitHub/contract-token-cryptoMonster/backend/components/PhasePrivate.sol\":3580:3593  structPhases_ */\n      0x04\n        /* \"GitHub/contract-token-cryptoMonster/backend/components/PhasePrivate.sol\":3580:3605  structPhases_[msg.sender] */\n      0x00\n        /* \"GitHub/contract-token-cryptoMonster/backend/components/PhasePrivate.sol\":3594:3604  msg.sender */\n      caller\n        /* \"GitHub/contract-token-cryptoMonster/backend/components/PhasePrivate.sol\":3580:3605  structPhases_[msg.sender] */\n      0xffffffffffffffffffffffffffffffffffffffff\n      and\n      0xffffffffffffffffffffffffffffffffffffffff\n      and\n      dup2\n      mstore\n      0x20\n      add\n      swap1\n      dup2\n      mstore\n      0x20\n      add\n      0x00\n      keccak256\n        /* \"GitHub/contract-token-cryptoMonster/backend/components/PhasePrivate.sol\":3580:3617  structPhases_[msg.sender].statusPhase */\n      0x00\n      add\n      0x00\n      swap1\n      sload\n      swap1\n      0x0100\n      exp\n      swap1\n      div\n      0xff\n      and\n        /* \"GitHub/contract-token-cryptoMonster/backend/components/PhasePrivate.sol\":3580:3626  structPhases_[msg.sender].statusPhase == false */\n      iszero\n      iszero\n      eq\n        /* \"GitHub/contract-token-cryptoMonster/backend/components/PhasePrivate.sol\":3580:3673  structPhases_[msg.sender].statusPhase == false && structPhases_[msg.sender].reviewed == false */\n      dup1\n      iszero\n      tag_96\n      jumpi\n      pop\n        /* \"GitHub/contract-token-cryptoMonster/backend/components/PhasePrivate.sol\":3668:3673  false */\n      0x00\n        /* \"GitHub/contract-token-cryptoMonster/backend/components/PhasePrivate.sol\":3630:3673  structPhases_[msg.sender].reviewed == false */\n      iszero\n      iszero\n        /* \"GitHub/contract-token-cryptoMonster/backend/components/PhasePrivate.sol\":3630:3643  structPhases_ */\n      0x04\n        /* \"GitHub/contract-token-cryptoMonster/backend/components/PhasePrivate.sol\":3630:3655  structPhases_[msg.sender] */\n      0x00\n        /* \"GitHub/contract-token-cryptoMonster/backend/components/PhasePrivate.sol\":3644:3654  msg.sender */\n      caller\n        /* \"GitHub/contract-token-cryptoMonster/backend/components/PhasePrivate.sol\":3630:3655  structPhases_[msg.sender] */\n      0xffffffffffffffffffffffffffffffffffffffff\n      and\n      0xffffffffffffffffffffffffffffffffffffffff\n      and\n      dup2\n      mstore\n      0x20\n      add\n      swap1\n      dup2\n      mstore\n      0x20\n      add\n      0x00\n      keccak256\n        /* \"GitHub/contract-token-cryptoMonster/backend/components/PhasePrivate.sol\":3630:3664  structPhases_[msg.sender].reviewed */\n      0x00\n      add\n      0x01\n      swap1\n      sload\n      swap1\n      0x0100\n      exp\n      swap1\n      div\n      0xff\n      and\n        /* \"GitHub/contract-token-cryptoMonster/backend/components/PhasePrivate.sol\":3630:3673  structPhases_[msg.sender].reviewed == false */\n      iszero\n      iszero\n      eq\n        /* \"GitHub/contract-token-cryptoMonster/backend/components/PhasePrivate.sol\":3580:3673  structPhases_[msg.sender].statusPhase == false && structPhases_[msg.sender].reviewed == false */\n    tag_96:\n        /* \"GitHub/contract-token-cryptoMonster/backend/components/PhasePrivate.sol\":3572:3698  require(structPhases_[msg.sender].statusPhase == false && structPhases_[msg.sender].reviewed == false, \"Phase already active\") */\n      tag_97\n      jumpi\n      mload(0x40)\n      0x08c379a000000000000000000000000000000000000000000000000000000000\n      dup2\n      mstore\n      0x04\n      add\n      tag_98\n      swap1\n      tag_99\n      jump\t// in\n    tag_98:\n      mload(0x40)\n      dup1\n      swap2\n      sub\n      swap1\n      revert\n    tag_97:\n        /* \"GitHub/contract-token-cryptoMonster/backend/components/PhasePrivate.sol\":3737:3760  structPhase(true, true) */\n      mload(0x40)\n      dup1\n      0x40\n      add\n      0x40\n      mstore\n      dup1\n        /* \"GitHub/contract-token-cryptoMonster/backend/components/PhasePrivate.sol\":3749:3753  true */\n      0x01\n        /* \"GitHub/contract-token-cryptoMonster/backend/components/PhasePrivate.sol\":3737:3760  structPhase(true, true) */\n      iszero\n      iszero\n      dup2\n      mstore\n      0x20\n      add\n        /* \"GitHub/contract-token-cryptoMonster/backend/components/PhasePrivate.sol\":3755:3759  true */\n      0x01\n        /* \"GitHub/contract-token-cryptoMonster/backend/components/PhasePrivate.sol\":3737:3760  structPhase(true, true) */\n      iszero\n      iszero\n      dup2\n      mstore\n      pop\n        /* \"GitHub/contract-token-cryptoMonster/backend/components/PhasePrivate.sol\":3709:3722  structPhases_ */\n      0x04\n        /* \"GitHub/contract-token-cryptoMonster/backend/components/PhasePrivate.sol\":3709:3734  structPhases_[msg.sender] */\n      0x00\n        /* \"GitHub/contract-token-cryptoMonster/backend/components/PhasePrivate.sol\":3723:3733  msg.sender */\n      caller\n        /* \"GitHub/contract-token-cryptoMonster/backend/components/PhasePrivate.sol\":3709:3734  structPhases_[msg.sender] */\n      0xffffffffffffffffffffffffffffffffffffffff\n      and\n      0xffffffffffffffffffffffffffffffffffffffff\n      and\n      dup2\n      mstore\n      0x20\n      add\n      swap1\n      dup2\n      mstore\n      0x20\n      add\n      0x00\n      keccak256\n        /* \"GitHub/contract-token-cryptoMonster/backend/components/PhasePrivate.sol\":3709:3760  structPhases_[msg.sender] = structPhase(true, true) */\n      0x00\n      dup3\n      add\n      mload\n      dup2\n      0x00\n      add\n      exp(0x0100, 0x00)\n      dup2\n      sload\n      dup2\n      0xff\n      mul\n      not\n      and\n      swap1\n      dup4\n      iszero\n      iszero\n      mul\n      or\n      swap1\n      sstore\n      pop\n      0x20\n      dup3\n      add\n      mload\n      dup2\n      0x00\n      add\n      exp(0x0100, 0x01)\n      dup2\n      sload\n      dup2\n      0xff\n      mul\n      not\n      and\n      swap1\n      dup4\n      iszero\n      iszero\n      mul\n      or\n      swap1\n      sstore\n      pop\n      swap1\n      pop\n      pop\n        /* \"GitHub/contract-token-cryptoMonster/backend/components/PhasePrivate.sol\":3504:3768  function startPrivatePhase () public onlyPrivateProvider {\r... */\n      jump\t// out\n        /* \"GitHub/contract-token-cryptoMonster/backend/shared/lib/structures.sol\":1123:1161  uint256 public tokenPrice_ = 750000000 */\n    tag_26:\n      sload(0x02)\n      dup2\n      jump\t// out\n        /* \"GitHub/contract-token-cryptoMonster/backend/components/PhasePrivate.sol\":3079:3407  function deviationApplication (address _userAdr) public onlyPrivateProvider {\r... */\n    tag_32:\n        /* \"GitHub/contract-token-cryptoMonster/backend/shared/helpers/modifireFunc.sol\":567:586  Role.SYSTEM_PRIVATE */\n      0x02\n        /* \"GitHub/contract-token-cryptoMonster/backend/shared/helpers/modifireFunc.sol\":534:586  structUsers_[msg.sender].role == Role.SYSTEM_PRIVATE */\n      0x04\n      dup2\n      gt\n      iszero\n      tag_101\n      jumpi\n      tag_102\n      tag_89\n      jump\t// in\n    tag_102:\n    tag_101:\n        /* \"GitHub/contract-token-cryptoMonster/backend/shared/helpers/modifireFunc.sol\":534:546  structUsers_ */\n      0x00\n        /* \"GitHub/contract-token-cryptoMonster/backend/shared/helpers/modifireFunc.sol\":534:558  structUsers_[msg.sender] */\n      dup1\n        /* \"GitHub/contract-token-cryptoMonster/backend/shared/helpers/modifireFunc.sol\":547:557  msg.sender */\n      caller\n        /* \"GitHub/contract-token-cryptoMonster/backend/shared/helpers/modifireFunc.sol\":534:558  structUsers_[msg.sender] */\n      0xffffffffffffffffffffffffffffffffffffffff\n      and\n      0xffffffffffffffffffffffffffffffffffffffff\n      and\n      dup2\n      mstore\n      0x20\n      add\n      swap1\n      dup2\n      mstore\n      0x20\n      add\n      0x00\n      keccak256\n        /* \"GitHub/contract-token-cryptoMonster/backend/shared/helpers/modifireFunc.sol\":534:563  structUsers_[msg.sender].role */\n      0x00\n      add\n      0x00\n      swap1\n      sload\n      swap1\n      0x0100\n      exp\n      swap1\n      div\n      0xff\n      and\n        /* \"GitHub/contract-token-cryptoMonster/backend/shared/helpers/modifireFunc.sol\":534:586  structUsers_[msg.sender].role == Role.SYSTEM_PRIVATE */\n      0x04\n      dup2\n      gt\n      iszero\n      tag_103\n      jumpi\n      tag_104\n      tag_89\n      jump\t// in\n    tag_104:\n    tag_103:\n      eq\n        /* \"GitHub/contract-token-cryptoMonster/backend/shared/helpers/modifireFunc.sol\":526:616  require(structUsers_[msg.sender].role == Role.SYSTEM_PRIVATE, \"Your not Private provider\") */\n      tag_105\n      jumpi\n      mload(0x40)\n      0x08c379a000000000000000000000000000000000000000000000000000000000\n      dup2\n      mstore\n      0x04\n      add\n      tag_106\n      swap1\n      tag_94\n      jump\t// in\n    tag_106:\n      mload(0x40)\n      dup1\n      swap2\n      sub\n      swap1\n      revert\n    tag_105:\n        /* \"GitHub/contract-token-cryptoMonster/backend/components/PhasePrivate.sol\":3217:3222  false */\n      0x00\n        /* \"GitHub/contract-token-cryptoMonster/backend/components/PhasePrivate.sol\":3174:3222  strucApplications_[msg.sender].reviewed == false */\n      iszero\n      iszero\n        /* \"GitHub/contract-token-cryptoMonster/backend/components/PhasePrivate.sol\":3174:3192  strucApplications_ */\n      0x05\n        /* \"GitHub/contract-token-cryptoMonster/backend/components/PhasePrivate.sol\":3174:3204  strucApplications_[msg.sender] */\n      0x00\n        /* \"GitHub/contract-token-cryptoMonster/backend/components/PhasePrivate.sol\":3193:3203  msg.sender */\n      caller\n        /* \"GitHub/contract-token-cryptoMonster/backend/components/PhasePrivate.sol\":3174:3204  strucApplications_[msg.sender] */\n      0xffffffffffffffffffffffffffffffffffffffff\n      and\n      0xffffffffffffffffffffffffffffffffffffffff\n      and\n      dup2\n      mstore\n      0x20\n      add\n      swap1\n      dup2\n      mstore\n      0x20\n      add\n      0x00\n      keccak256\n        /* \"GitHub/contract-token-cryptoMonster/backend/components/PhasePrivate.sol\":3174:3213  strucApplications_[msg.sender].reviewed */\n      0x02\n      add\n      0x15\n      swap1\n      sload\n      swap1\n      0x0100\n      exp\n      swap1\n      div\n      0xff\n      and\n        /* \"GitHub/contract-token-cryptoMonster/backend/components/PhasePrivate.sol\":3174:3222  strucApplications_[msg.sender].reviewed == false */\n      iszero\n      iszero\n      eq\n        /* \"GitHub/contract-token-cryptoMonster/backend/components/PhasePrivate.sol\":3166:3255  require(strucApplications_[msg.sender].reviewed == false, \"Review the application first\") */\n      tag_108\n      jumpi\n      mload(0x40)\n      0x08c379a000000000000000000000000000000000000000000000000000000000\n      dup2\n      mstore\n      0x04\n      add\n      tag_109\n      swap1\n      tag_110\n      jump\t// in\n    tag_109:\n      mload(0x40)\n      dup1\n      swap2\n      sub\n      swap1\n      revert\n    tag_108:\n        /* \"GitHub/contract-token-cryptoMonster/backend/components/PhasePrivate.sol\":3394:3399  false */\n      0x00\n        /* \"GitHub/contract-token-cryptoMonster/backend/components/PhasePrivate.sol\":3356:3374  strucApplications_ */\n      0x05\n        /* \"GitHub/contract-token-cryptoMonster/backend/components/PhasePrivate.sol\":3356:3384  strucApplications_[_userAdr] */\n      0x00\n        /* \"GitHub/contract-token-cryptoMonster/backend/components/PhasePrivate.sol\":3375:3383  _userAdr */\n      dup4\n        /* \"GitHub/contract-token-cryptoMonster/backend/components/PhasePrivate.sol\":3356:3384  strucApplications_[_userAdr] */\n      0xffffffffffffffffffffffffffffffffffffffff\n      and\n      0xffffffffffffffffffffffffffffffffffffffff\n      and\n      dup2\n      mstore\n      0x20\n      add\n      swap1\n      dup2\n      mstore\n      0x20\n      add\n      0x00\n      keccak256\n        /* \"GitHub/contract-token-cryptoMonster/backend/components/PhasePrivate.sol\":3356:3391  strucApplications_[_userAdr].status */\n      0x02\n      add\n      0x14\n        /* \"GitHub/contract-token-cryptoMonster/backend/components/PhasePrivate.sol\":3356:3399  strucApplications_[_userAdr].status = false */\n      0x0100\n      exp\n      dup2\n      sload\n      dup2\n      0xff\n      mul\n      not\n      and\n      swap1\n      dup4\n      iszero\n      iszero\n      mul\n      or\n      swap1\n      sstore\n      pop\n        /* \"GitHub/contract-token-cryptoMonster/backend/components/PhasePrivate.sol\":3079:3407  function deviationApplication (address _userAdr) public onlyPrivateProvider {\r... */\n      pop\n      jump\t// out\n        /* \"GitHub/contract-token-cryptoMonster/backend/shared/helpers/helpresFunc.sol\":849:988  function getBalanceSeedToken (address _userAdr) public view returns (uint256) {\r... */\n    tag_35:\n        /* \"GitHub/contract-token-cryptoMonster/backend/shared/helpers/helpresFunc.sol\":918:925  uint256 */\n      0x00\n        /* \"GitHub/contract-token-cryptoMonster/backend/shared/helpers/helpresFunc.sol\":945:957  structUsers_ */\n      dup1\n        /* \"GitHub/contract-token-cryptoMonster/backend/shared/helpers/helpresFunc.sol\":945:967  structUsers_[_userAdr] */\n      0x00\n        /* \"GitHub/contract-token-cryptoMonster/backend/shared/helpers/helpresFunc.sol\":958:966  _userAdr */\n      dup4\n        /* \"GitHub/contract-token-cryptoMonster/backend/shared/helpers/helpresFunc.sol\":945:967  structUsers_[_userAdr] */\n      0xffffffffffffffffffffffffffffffffffffffff\n      and\n      0xffffffffffffffffffffffffffffffffffffffff\n      and\n      dup2\n      mstore\n      0x20\n      add\n      swap1\n      dup2\n      mstore\n      0x20\n      add\n      0x00\n      keccak256\n        /* \"GitHub/contract-token-cryptoMonster/backend/shared/helpers/helpresFunc.sol\":945:980  structUsers_[_userAdr].balance_seed */\n      0x04\n      add\n      sload\n        /* \"GitHub/contract-token-cryptoMonster/backend/shared/helpers/helpresFunc.sol\":938:980  return structUsers_[_userAdr].balance_seed */\n      swap1\n      pop\n        /* \"GitHub/contract-token-cryptoMonster/backend/shared/helpers/helpresFunc.sol\":849:988  function getBalanceSeedToken (address _userAdr) public view returns (uint256) {\r... */\n      swap2\n      swap1\n      pop\n      jump\t// out\n        /* \"GitHub/contract-token-cryptoMonster/backend/components/PhasePrivate.sol\":1875:2120  function getApplicationAmountAdr () public onlyPrivateProvider view returns (address[] memory) {\r... */\n    tag_38:\n        /* \"GitHub/contract-token-cryptoMonster/backend/components/PhasePrivate.sol\":1952:1968  address[] memory */\n      0x60\n        /* \"GitHub/contract-token-cryptoMonster/backend/shared/helpers/modifireFunc.sol\":567:586  Role.SYSTEM_PRIVATE */\n      0x02\n        /* \"GitHub/contract-token-cryptoMonster/backend/shared/helpers/modifireFunc.sol\":534:586  structUsers_[msg.sender].role == Role.SYSTEM_PRIVATE */\n      0x04\n      dup2\n      gt\n      iszero\n      tag_113\n      jumpi\n      tag_114\n      tag_89\n      jump\t// in\n    tag_114:\n    tag_113:\n        /* \"GitHub/contract-token-cryptoMonster/backend/shared/helpers/modifireFunc.sol\":534:546  structUsers_ */\n      0x00\n        /* \"GitHub/contract-token-cryptoMonster/backend/shared/helpers/modifireFunc.sol\":534:558  structUsers_[msg.sender] */\n      dup1\n        /* \"GitHub/contract-token-cryptoMonster/backend/shared/helpers/modifireFunc.sol\":547:557  msg.sender */\n      caller\n        /* \"GitHub/contract-token-cryptoMonster/backend/shared/helpers/modifireFunc.sol\":534:558  structUsers_[msg.sender] */\n      0xffffffffffffffffffffffffffffffffffffffff\n      and\n      0xffffffffffffffffffffffffffffffffffffffff\n      and\n      dup2\n      mstore\n      0x20\n      add\n      swap1\n      dup2\n      mstore\n      0x20\n      add\n      0x00\n      keccak256\n        /* \"GitHub/contract-token-cryptoMonster/backend/shared/helpers/modifireFunc.sol\":534:563  structUsers_[msg.sender].role */\n      0x00\n      add\n      0x00\n      swap1\n      sload\n      swap1\n      0x0100\n      exp\n      swap1\n      div\n      0xff\n      and\n        /* \"GitHub/contract-token-cryptoMonster/backend/shared/helpers/modifireFunc.sol\":534:586  structUsers_[msg.sender].role == Role.SYSTEM_PRIVATE */\n      0x04\n      dup2\n      gt\n      iszero\n      tag_115\n      jumpi\n      tag_116\n      tag_89\n      jump\t// in\n    tag_116:\n    tag_115:\n      eq\n        /* \"GitHub/contract-token-cryptoMonster/backend/shared/helpers/modifireFunc.sol\":526:616  require(structUsers_[msg.sender].role == Role.SYSTEM_PRIVATE, \"Your not Private provider\") */\n      tag_117\n      jumpi\n      mload(0x40)\n      0x08c379a000000000000000000000000000000000000000000000000000000000\n      dup2\n      mstore\n      0x04\n      add\n      tag_118\n      swap1\n      tag_94\n      jump\t// in\n    tag_118:\n      mload(0x40)\n      dup1\n      swap2\n      sub\n      swap1\n      revert\n    tag_117:\n        /* \"GitHub/contract-token-cryptoMonster/backend/components/PhasePrivate.sol\":1988:2015  structApplicationsAmountAdr */\n      0x06\n        /* \"GitHub/contract-token-cryptoMonster/backend/components/PhasePrivate.sol\":1981:2015  return structApplicationsAmountAdr */\n      dup1\n      sload\n      dup1\n      0x20\n      mul\n      0x20\n      add\n      mload(0x40)\n      swap1\n      dup2\n      add\n      0x40\n      mstore\n      dup1\n      swap3\n      swap2\n      swap1\n      dup2\n      dup2\n      mstore\n      0x20\n      add\n      dup3\n      dup1\n      sload\n      dup1\n      iszero\n      tag_120\n      jumpi\n      0x20\n      mul\n      dup3\n      add\n      swap2\n      swap1\n      0x00\n      mstore\n      keccak256(0x00, 0x20)\n      swap1\n    tag_121:\n      dup2\n      0x00\n      swap1\n      sload\n      swap1\n      0x0100\n      exp\n      swap1\n      div\n      0xffffffffffffffffffffffffffffffffffffffff\n      and\n      0xffffffffffffffffffffffffffffffffffffffff\n      and\n      dup2\n      mstore\n      0x20\n      add\n      swap1\n      0x01\n      add\n      swap1\n      dup1\n      dup4\n      gt\n      tag_121\n      jumpi\n    tag_120:\n      pop\n      pop\n      pop\n      pop\n      pop\n      swap1\n      pop\n        /* \"GitHub/contract-token-cryptoMonster/backend/components/PhasePrivate.sol\":1875:2120  function getApplicationAmountAdr () public onlyPrivateProvider view returns (address[] memory) {\r... */\n      swap1\n      jump\t// out\n        /* \"GitHub/contract-token-cryptoMonster/backend/shared/helpers/helpresFunc.sol\":1352:1495  function getBalancePublicToken (address _userAdr) public view returns (uint256) {\r... */\n    tag_43:\n        /* \"GitHub/contract-token-cryptoMonster/backend/shared/helpers/helpresFunc.sol\":1423:1430  uint256 */\n      0x00\n        /* \"GitHub/contract-token-cryptoMonster/backend/shared/helpers/helpresFunc.sol\":1450:1462  structUsers_ */\n      dup1\n        /* \"GitHub/contract-token-cryptoMonster/backend/shared/helpers/helpresFunc.sol\":1450:1472  structUsers_[_userAdr] */\n      0x00\n        /* \"GitHub/contract-token-cryptoMonster/backend/shared/helpers/helpresFunc.sol\":1463:1471  _userAdr */\n      dup4\n        /* \"GitHub/contract-token-cryptoMonster/backend/shared/helpers/helpresFunc.sol\":1450:1472  structUsers_[_userAdr] */\n      0xffffffffffffffffffffffffffffffffffffffff\n      and\n      0xffffffffffffffffffffffffffffffffffffffff\n      and\n      dup2\n      mstore\n      0x20\n      add\n      swap1\n      dup2\n      mstore\n      0x20\n      add\n      0x00\n      keccak256\n        /* \"GitHub/contract-token-cryptoMonster/backend/shared/helpers/helpresFunc.sol\":1450:1487  structUsers_[_userAdr].balance_public */\n      0x06\n      add\n      sload\n        /* \"GitHub/contract-token-cryptoMonster/backend/shared/helpers/helpresFunc.sol\":1443:1487  return structUsers_[_userAdr].balance_public */\n      swap1\n      pop\n        /* \"GitHub/contract-token-cryptoMonster/backend/shared/helpers/helpresFunc.sol\":1352:1495  function getBalancePublicToken (address _userAdr) public view returns (uint256) {\r... */\n      swap2\n      swap1\n      pop\n      jump\t// out\n        /* \"GitHub/contract-token-cryptoMonster/backend/components/PhasePrivate.sol\":297:1761  function application(string memory _name, string memory _contactForCommunication, address _userAdr) public onlyUser {\r... */\n    tag_48:\n        /* \"GitHub/contract-token-cryptoMonster/backend/shared/helpers/modifireFunc.sol\":1474:1491  Role.SYSTEM_OWNER */\n      0x00\n        /* \"GitHub/contract-token-cryptoMonster/backend/shared/helpers/modifireFunc.sol\":1441:1491  structUsers_[msg.sender].role != Role.SYSTEM_OWNER */\n      0x04\n      dup2\n      gt\n      iszero\n      tag_124\n      jumpi\n      tag_125\n      tag_89\n      jump\t// in\n    tag_125:\n    tag_124:\n        /* \"GitHub/contract-token-cryptoMonster/backend/shared/helpers/modifireFunc.sol\":1441:1453  structUsers_ */\n      0x00\n        /* \"GitHub/contract-token-cryptoMonster/backend/shared/helpers/modifireFunc.sol\":1441:1465  structUsers_[msg.sender] */\n      dup1\n        /* \"GitHub/contract-token-cryptoMonster/backend/shared/helpers/modifireFunc.sol\":1454:1464  msg.sender */\n      caller\n        /* \"GitHub/contract-token-cryptoMonster/backend/shared/helpers/modifireFunc.sol\":1441:1465  structUsers_[msg.sender] */\n      0xffffffffffffffffffffffffffffffffffffffff\n      and\n      0xffffffffffffffffffffffffffffffffffffffff\n      and\n      dup2\n      mstore\n      0x20\n      add\n      swap1\n      dup2\n      mstore\n      0x20\n      add\n      0x00\n      keccak256\n        /* \"GitHub/contract-token-cryptoMonster/backend/shared/helpers/modifireFunc.sol\":1441:1470  structUsers_[msg.sender].role */\n      0x00\n      add\n      0x00\n      swap1\n      sload\n      swap1\n      0x0100\n      exp\n      swap1\n      div\n      0xff\n      and\n        /* \"GitHub/contract-token-cryptoMonster/backend/shared/helpers/modifireFunc.sol\":1441:1491  structUsers_[msg.sender].role != Role.SYSTEM_OWNER */\n      0x04\n      dup2\n      gt\n      iszero\n      tag_126\n      jumpi\n      tag_127\n      tag_89\n      jump\t// in\n    tag_127:\n    tag_126:\n      eq\n      iszero\n        /* \"GitHub/contract-token-cryptoMonster/backend/shared/helpers/modifireFunc.sol\":1441:1559  structUsers_[msg.sender].role != Role.SYSTEM_OWNER ||\r... */\n      dup1\n      tag_128\n      jumpi\n      pop\n        /* \"GitHub/contract-token-cryptoMonster/backend/shared/helpers/modifireFunc.sol\":1541:1559  Role.SYSTEM_PUBLIC */\n      0x01\n        /* \"GitHub/contract-token-cryptoMonster/backend/shared/helpers/modifireFunc.sol\":1508:1559  structUsers_[msg.sender].role != Role.SYSTEM_PUBLIC */\n      0x04\n      dup2\n      gt\n      iszero\n      tag_129\n      jumpi\n      tag_130\n      tag_89\n      jump\t// in\n    tag_130:\n    tag_129:\n        /* \"GitHub/contract-token-cryptoMonster/backend/shared/helpers/modifireFunc.sol\":1508:1520  structUsers_ */\n      0x00\n        /* \"GitHub/contract-token-cryptoMonster/backend/shared/helpers/modifireFunc.sol\":1508:1532  structUsers_[msg.sender] */\n      dup1\n        /* \"GitHub/contract-token-cryptoMonster/backend/shared/helpers/modifireFunc.sol\":1521:1531  msg.sender */\n      caller\n        /* \"GitHub/contract-token-cryptoMonster/backend/shared/helpers/modifireFunc.sol\":1508:1532  structUsers_[msg.sender] */\n      0xffffffffffffffffffffffffffffffffffffffff\n      and\n      0xffffffffffffffffffffffffffffffffffffffff\n      and\n      dup2\n      mstore\n      0x20\n      add\n      swap1\n      dup2\n      mstore\n      0x20\n      add\n      0x00\n      keccak256\n        /* \"GitHub/contract-token-cryptoMonster/backend/shared/helpers/modifireFunc.sol\":1508:1537  structUsers_[msg.sender].role */\n      0x00\n      add\n      0x00\n      swap1\n      sload\n      swap1\n      0x0100\n      exp\n      swap1\n      div\n      0xff\n      and\n        /* \"GitHub/contract-token-cryptoMonster/backend/shared/helpers/modifireFunc.sol\":1508:1559  structUsers_[msg.sender].role != Role.SYSTEM_PUBLIC */\n      0x04\n      dup2\n      gt\n      iszero\n      tag_131\n      jumpi\n      tag_132\n      tag_89\n      jump\t// in\n    tag_132:\n    tag_131:\n      eq\n      iszero\n        /* \"GitHub/contract-token-cryptoMonster/backend/shared/helpers/modifireFunc.sol\":1441:1559  structUsers_[msg.sender].role != Role.SYSTEM_OWNER ||\r... */\n    tag_128:\n        /* \"GitHub/contract-token-cryptoMonster/backend/shared/helpers/modifireFunc.sol\":1441:1628  structUsers_[msg.sender].role != Role.SYSTEM_OWNER ||\r... */\n      dup1\n      tag_133\n      jumpi\n      pop\n        /* \"GitHub/contract-token-cryptoMonster/backend/shared/helpers/modifireFunc.sol\":1609:1628  Role.SYSTEM_PRIVATE */\n      0x02\n        /* \"GitHub/contract-token-cryptoMonster/backend/shared/helpers/modifireFunc.sol\":1576:1628  structUsers_[msg.sender].role != Role.SYSTEM_PRIVATE */\n      0x04\n      dup2\n      gt\n      iszero\n      tag_134\n      jumpi\n      tag_135\n      tag_89\n      jump\t// in\n    tag_135:\n    tag_134:\n        /* \"GitHub/contract-token-cryptoMonster/backend/shared/helpers/modifireFunc.sol\":1576:1588  structUsers_ */\n      0x00\n        /* \"GitHub/contract-token-cryptoMonster/backend/shared/helpers/modifireFunc.sol\":1576:1600  structUsers_[msg.sender] */\n      dup1\n        /* \"GitHub/contract-token-cryptoMonster/backend/shared/helpers/modifireFunc.sol\":1589:1599  msg.sender */\n      caller\n        /* \"GitHub/contract-token-cryptoMonster/backend/shared/helpers/modifireFunc.sol\":1576:1600  structUsers_[msg.sender] */\n      0xffffffffffffffffffffffffffffffffffffffff\n      and\n      0xffffffffffffffffffffffffffffffffffffffff\n      and\n      dup2\n      mstore\n      0x20\n      add\n      swap1\n      dup2\n      mstore\n      0x20\n      add\n      0x00\n      keccak256\n        /* \"GitHub/contract-token-cryptoMonster/backend/shared/helpers/modifireFunc.sol\":1576:1605  structUsers_[msg.sender].role */\n      0x00\n      add\n      0x00\n      swap1\n      sload\n      swap1\n      0x0100\n      exp\n      swap1\n      div\n      0xff\n      and\n        /* \"GitHub/contract-token-cryptoMonster/backend/shared/helpers/modifireFunc.sol\":1576:1628  structUsers_[msg.sender].role != Role.SYSTEM_PRIVATE */\n      0x04\n      dup2\n      gt\n      iszero\n      tag_136\n      jumpi\n      tag_137\n      tag_89\n      jump\t// in\n    tag_137:\n    tag_136:\n      eq\n      iszero\n        /* \"GitHub/contract-token-cryptoMonster/backend/shared/helpers/modifireFunc.sol\":1441:1628  structUsers_[msg.sender].role != Role.SYSTEM_OWNER ||\r... */\n    tag_133:\n        /* \"GitHub/contract-token-cryptoMonster/backend/shared/helpers/modifireFunc.sol\":1441:1691  structUsers_[msg.sender].role != Role.SYSTEM_OWNER ||\r... */\n      dup1\n      tag_138\n      jumpi\n      pop\n        /* \"GitHub/contract-token-cryptoMonster/backend/shared/helpers/modifireFunc.sol\":1678:1691  Role.INVESTOR */\n      0x03\n        /* \"GitHub/contract-token-cryptoMonster/backend/shared/helpers/modifireFunc.sol\":1645:1691  structUsers_[msg.sender].role != Role.INVESTOR */\n      0x04\n      dup2\n      gt\n      iszero\n      tag_139\n      jumpi\n      tag_140\n      tag_89\n      jump\t// in\n    tag_140:\n    tag_139:\n        /* \"GitHub/contract-token-cryptoMonster/backend/shared/helpers/modifireFunc.sol\":1645:1657  structUsers_ */\n      0x00\n        /* \"GitHub/contract-token-cryptoMonster/backend/shared/helpers/modifireFunc.sol\":1645:1669  structUsers_[msg.sender] */\n      dup1\n        /* \"GitHub/contract-token-cryptoMonster/backend/shared/helpers/modifireFunc.sol\":1658:1668  msg.sender */\n      caller\n        /* \"GitHub/contract-token-cryptoMonster/backend/shared/helpers/modifireFunc.sol\":1645:1669  structUsers_[msg.sender] */\n      0xffffffffffffffffffffffffffffffffffffffff\n      and\n      0xffffffffffffffffffffffffffffffffffffffff\n      and\n      dup2\n      mstore\n      0x20\n      add\n      swap1\n      dup2\n      mstore\n      0x20\n      add\n      0x00\n      keccak256\n        /* \"GitHub/contract-token-cryptoMonster/backend/shared/helpers/modifireFunc.sol\":1645:1674  structUsers_[msg.sender].role */\n      0x00\n      add\n      0x00\n      swap1\n      sload\n      swap1\n      0x0100\n      exp\n      swap1\n      div\n      0xff\n      and\n        /* \"GitHub/contract-token-cryptoMonster/backend/shared/helpers/modifireFunc.sol\":1645:1691  structUsers_[msg.sender].role != Role.INVESTOR */\n      0x04\n      dup2\n      gt\n      iszero\n      tag_141\n      jumpi\n      tag_142\n      tag_89\n      jump\t// in\n    tag_142:\n    tag_141:\n      eq\n      iszero\n        /* \"GitHub/contract-token-cryptoMonster/backend/shared/helpers/modifireFunc.sol\":1441:1691  structUsers_[msg.sender].role != Role.SYSTEM_OWNER ||\r... */\n    tag_138:\n        /* \"GitHub/contract-token-cryptoMonster/backend/shared/helpers/modifireFunc.sol\":1419:1756  require(\r... */\n      tag_143\n      jumpi\n      mload(0x40)\n      0x08c379a000000000000000000000000000000000000000000000000000000000\n      dup2\n      mstore\n      0x04\n      add\n      tag_144\n      swap1\n      tag_145\n      jump\t// in\n    tag_144:\n      mload(0x40)\n      dup1\n      swap2\n      sub\n      swap1\n      revert\n    tag_143:\n        /* \"GitHub/contract-token-cryptoMonster/backend/components/PhasePrivate.sol\":424:439  bool _tempExist */\n      0x00\n        /* \"GitHub/contract-token-cryptoMonster/backend/components/PhasePrivate.sol\":539:544  false */\n      dup1\n        /* \"GitHub/contract-token-cryptoMonster/backend/components/PhasePrivate.sol\":466:544  structPhases_[0xAb8483F64d9C6d1EcF9b849Ae677dD3315835cb2].statusPhase == false */\n      iszero\n      iszero\n        /* \"GitHub/contract-token-cryptoMonster/backend/components/PhasePrivate.sol\":466:479  structPhases_ */\n      0x04\n        /* \"GitHub/contract-token-cryptoMonster/backend/components/PhasePrivate.sol\":466:523  structPhases_[0xAb8483F64d9C6d1EcF9b849Ae677dD3315835cb2] */\n      0x00\n        /* \"GitHub/contract-token-cryptoMonster/backend/components/PhasePrivate.sol\":480:522  0xAb8483F64d9C6d1EcF9b849Ae677dD3315835cb2 */\n      0xab8483f64d9c6d1ecf9b849ae677dd3315835cb2\n        /* \"GitHub/contract-token-cryptoMonster/backend/components/PhasePrivate.sol\":466:523  structPhases_[0xAb8483F64d9C6d1EcF9b849Ae677dD3315835cb2] */\n      0xffffffffffffffffffffffffffffffffffffffff\n      and\n      0xffffffffffffffffffffffffffffffffffffffff\n      and\n      dup2\n      mstore\n      0x20\n      add\n      swap1\n      dup2\n      mstore\n      0x20\n      add\n      0x00\n      keccak256\n        /* \"GitHub/contract-token-cryptoMonster/backend/components/PhasePrivate.sol\":466:535  structPhases_[0xAb8483F64d9C6d1EcF9b849Ae677dD3315835cb2].statusPhase */\n      0x00\n      add\n      0x00\n      swap1\n      sload\n      swap1\n      0x0100\n      exp\n      swap1\n      div\n      0xff\n      and\n        /* \"GitHub/contract-token-cryptoMonster/backend/components/PhasePrivate.sol\":466:544  structPhases_[0xAb8483F64d9C6d1EcF9b849Ae677dD3315835cb2].statusPhase == false */\n      iszero\n      iszero\n      eq\n        /* \"GitHub/contract-token-cryptoMonster/backend/components/PhasePrivate.sol\":466:626  structPhases_[0xAb8483F64d9C6d1EcF9b849Ae677dD3315835cb2].statusPhase == false && structPhases_[0xAb8483F64d9C6d1EcF9b849Ae677dD3315835cb2].statusPhase == false */\n      dup1\n      iszero\n      tag_147\n      jumpi\n      pop\n        /* \"GitHub/contract-token-cryptoMonster/backend/components/PhasePrivate.sol\":621:626  false */\n      0x00\n        /* \"GitHub/contract-token-cryptoMonster/backend/components/PhasePrivate.sol\":548:626  structPhases_[0xAb8483F64d9C6d1EcF9b849Ae677dD3315835cb2].statusPhase == false */\n      iszero\n      iszero\n        /* \"GitHub/contract-token-cryptoMonster/backend/components/PhasePrivate.sol\":548:561  structPhases_ */\n      0x04\n        /* \"GitHub/contract-token-cryptoMonster/backend/components/PhasePrivate.sol\":548:605  structPhases_[0xAb8483F64d9C6d1EcF9b849Ae677dD3315835cb2] */\n      0x00\n        /* \"GitHub/contract-token-cryptoMonster/backend/components/PhasePrivate.sol\":562:604  0xAb8483F64d9C6d1EcF9b849Ae677dD3315835cb2 */\n      0xab8483f64d9c6d1ecf9b849ae677dd3315835cb2\n        /* \"GitHub/contract-token-cryptoMonster/backend/components/PhasePrivate.sol\":548:605  structPhases_[0xAb8483F64d9C6d1EcF9b849Ae677dD3315835cb2] */\n      0xffffffffffffffffffffffffffffffffffffffff\n      and\n      0xffffffffffffffffffffffffffffffffffffffff\n      and\n      dup2\n      mstore\n      0x20\n      add\n      swap1\n      dup2\n      mstore\n      0x20\n      add\n      0x00\n      keccak256\n        /* \"GitHub/contract-token-cryptoMonster/backend/components/PhasePrivate.sol\":548:617  structPhases_[0xAb8483F64d9C6d1EcF9b849Ae677dD3315835cb2].statusPhase */\n      0x00\n      add\n      0x00\n      swap1\n      sload\n      swap1\n      0x0100\n      exp\n      swap1\n      div\n      0xff\n      and\n        /* \"GitHub/contract-token-cryptoMonster/backend/components/PhasePrivate.sol\":548:626  structPhases_[0xAb8483F64d9C6d1EcF9b849Ae677dD3315835cb2].statusPhase == false */\n      iszero\n      iszero\n      eq\n        /* \"GitHub/contract-token-cryptoMonster/backend/components/PhasePrivate.sol\":466:626  structPhases_[0xAb8483F64d9C6d1EcF9b849Ae677dD3315835cb2].statusPhase == false && structPhases_[0xAb8483F64d9C6d1EcF9b849Ae677dD3315835cb2].statusPhase == false */\n    tag_147:\n        /* \"GitHub/contract-token-cryptoMonster/backend/components/PhasePrivate.sol\":458:654  require(structPhases_[0xAb8483F64d9C6d1EcF9b849Ae677dD3315835cb2].statusPhase == false && structPhases_[0xAb8483F64d9C6d1EcF9b849Ae677dD3315835cb2].statusPhase == false, \"Application phase ended\") */\n      tag_148\n      jumpi\n      mload(0x40)\n      0x08c379a000000000000000000000000000000000000000000000000000000000\n      dup2\n      mstore\n      0x04\n      add\n      tag_149\n      swap1\n      tag_150\n      jump\t// in\n    tag_149:\n      mload(0x40)\n      dup1\n      swap2\n      sub\n      swap1\n      revert\n    tag_148:\n        /* \"GitHub/contract-token-cryptoMonster/backend/components/PhasePrivate.sol\":792:800  _userAdr */\n      dup2\n        /* \"GitHub/contract-token-cryptoMonster/backend/components/PhasePrivate.sol\":778:800  msg.sender == _userAdr */\n      0xffffffffffffffffffffffffffffffffffffffff\n      and\n        /* \"GitHub/contract-token-cryptoMonster/backend/components/PhasePrivate.sol\":778:788  msg.sender */\n      caller\n        /* \"GitHub/contract-token-cryptoMonster/backend/components/PhasePrivate.sol\":778:800  msg.sender == _userAdr */\n      0xffffffffffffffffffffffffffffffffffffffff\n      and\n      eq\n        /* \"GitHub/contract-token-cryptoMonster/backend/components/PhasePrivate.sol\":770:860  require(msg.sender == _userAdr, \"You can't send an application to someone else's address\") */\n      tag_151\n      jumpi\n      mload(0x40)\n      0x08c379a000000000000000000000000000000000000000000000000000000000\n      dup2\n      mstore\n      0x04\n      add\n      tag_152\n      swap1\n      tag_153\n      jump\t// in\n    tag_152:\n      mload(0x40)\n      dup1\n      swap2\n      sub\n      swap1\n      revert\n    tag_151:\n        /* \"GitHub/contract-token-cryptoMonster/backend/components/PhasePrivate.sol\":876:882  uint i */\n      0x00\n        /* \"GitHub/contract-token-cryptoMonster/backend/components/PhasePrivate.sol\":871:1200  for (uint i = 0; i < structApplicationsAmountAdr.length; i++) {\r... */\n    tag_154:\n        /* \"GitHub/contract-token-cryptoMonster/backend/components/PhasePrivate.sol\":892:919  structApplicationsAmountAdr */\n      0x06\n        /* \"GitHub/contract-token-cryptoMonster/backend/components/PhasePrivate.sol\":892:926  structApplicationsAmountAdr.length */\n      dup1\n      sload\n      swap1\n      pop\n        /* \"GitHub/contract-token-cryptoMonster/backend/components/PhasePrivate.sol\":888:889  i */\n      dup2\n        /* \"GitHub/contract-token-cryptoMonster/backend/components/PhasePrivate.sol\":888:926  i < structApplicationsAmountAdr.length */\n      lt\n        /* \"GitHub/contract-token-cryptoMonster/backend/components/PhasePrivate.sol\":871:1200  for (uint i = 0; i < structApplicationsAmountAdr.length; i++) {\r... */\n      iszero\n      tag_155\n      jumpi\n        /* \"GitHub/contract-token-cryptoMonster/backend/components/PhasePrivate.sol\":986:996  msg.sender */\n      caller\n        /* \"GitHub/contract-token-cryptoMonster/backend/components/PhasePrivate.sol\":952:996  structApplicationsAmountAdr[i] == msg.sender */\n      0xffffffffffffffffffffffffffffffffffffffff\n      and\n        /* \"GitHub/contract-token-cryptoMonster/backend/components/PhasePrivate.sol\":952:979  structApplicationsAmountAdr */\n      0x06\n        /* \"GitHub/contract-token-cryptoMonster/backend/components/PhasePrivate.sol\":980:981  i */\n      dup3\n        /* \"GitHub/contract-token-cryptoMonster/backend/components/PhasePrivate.sol\":952:982  structApplicationsAmountAdr[i] */\n      dup2\n      sload\n      dup2\n      lt\n      tag_157\n      jumpi\n      tag_158\n      tag_159\n      jump\t// in\n    tag_158:\n    tag_157:\n      swap1\n      0x00\n      mstore\n      keccak256(0x00, 0x20)\n      add\n      0x00\n      swap1\n      sload\n      swap1\n      0x0100\n      exp\n      swap1\n      div\n      0xffffffffffffffffffffffffffffffffffffffff\n      and\n        /* \"GitHub/contract-token-cryptoMonster/backend/components/PhasePrivate.sol\":952:996  structApplicationsAmountAdr[i] == msg.sender */\n      0xffffffffffffffffffffffffffffffffffffffff\n      and\n      eq\n        /* \"GitHub/contract-token-cryptoMonster/backend/components/PhasePrivate.sol\":948:1050  if (structApplicationsAmountAdr[i] == msg.sender) {\r... */\n      iszero\n      tag_161\n      jumpi\n        /* \"GitHub/contract-token-cryptoMonster/backend/components/PhasePrivate.sol\":1030:1034  true */\n      0x01\n        /* \"GitHub/contract-token-cryptoMonster/backend/components/PhasePrivate.sol\":1017:1034  _tempExist = true */\n      swap2\n      pop\n        /* \"GitHub/contract-token-cryptoMonster/backend/components/PhasePrivate.sol\":948:1050  if (structApplicationsAmountAdr[i] == msg.sender) {\r... */\n    tag_161:\n        /* \"GitHub/contract-token-cryptoMonster/backend/components/PhasePrivate.sol\":1086:1091  false */\n      0x00\n        /* \"GitHub/contract-token-cryptoMonster/backend/components/PhasePrivate.sol\":1072:1091  _tempExist == false */\n      iszero\n      iszero\n        /* \"GitHub/contract-token-cryptoMonster/backend/components/PhasePrivate.sol\":1072:1082  _tempExist */\n      dup3\n        /* \"GitHub/contract-token-cryptoMonster/backend/components/PhasePrivate.sol\":1072:1091  _tempExist == false */\n      iszero\n      iszero\n      eq\n        /* \"GitHub/contract-token-cryptoMonster/backend/components/PhasePrivate.sol\":1064:1120  require(_tempExist == false, \"Application already sent\") */\n      tag_162\n      jumpi\n      mload(0x40)\n      0x08c379a000000000000000000000000000000000000000000000000000000000\n      dup2\n      mstore\n      0x04\n      add\n      tag_163\n      swap1\n      tag_164\n      jump\t// in\n    tag_163:\n      mload(0x40)\n      dup1\n      swap2\n      sub\n      swap1\n      revert\n    tag_162:\n        /* \"GitHub/contract-token-cryptoMonster/backend/components/PhasePrivate.sol\":928:931  i++ */\n      dup1\n      dup1\n      tag_165\n      swap1\n      tag_166\n      jump\t// in\n    tag_165:\n      swap2\n      pop\n      pop\n        /* \"GitHub/contract-token-cryptoMonster/backend/components/PhasePrivate.sol\":871:1200  for (uint i = 0; i < structApplicationsAmountAdr.length; i++) {\r... */\n      jump(tag_154)\n    tag_155:\n      pop\n        /* \"GitHub/contract-token-cryptoMonster/backend/components/PhasePrivate.sol\":1259:1264  false */\n      0x00\n        /* \"GitHub/contract-token-cryptoMonster/backend/components/PhasePrivate.sol\":1218:1264  strucApplications_[msg.sender].status == false */\n      iszero\n      iszero\n        /* \"GitHub/contract-token-cryptoMonster/backend/components/PhasePrivate.sol\":1218:1236  strucApplications_ */\n      0x05\n        /* \"GitHub/contract-token-cryptoMonster/backend/components/PhasePrivate.sol\":1218:1248  strucApplications_[msg.sender] */\n      0x00\n        /* \"GitHub/contract-token-cryptoMonster/backend/components/PhasePrivate.sol\":1237:1247  msg.sender */\n      caller\n        /* \"GitHub/contract-token-cryptoMonster/backend/components/PhasePrivate.sol\":1218:1248  strucApplications_[msg.sender] */\n      0xffffffffffffffffffffffffffffffffffffffff\n      and\n      0xffffffffffffffffffffffffffffffffffffffff\n      and\n      dup2\n      mstore\n      0x20\n      add\n      swap1\n      dup2\n      mstore\n      0x20\n      add\n      0x00\n      keccak256\n        /* \"GitHub/contract-token-cryptoMonster/backend/components/PhasePrivate.sol\":1218:1255  strucApplications_[msg.sender].status */\n      0x02\n      add\n      0x14\n      swap1\n      sload\n      swap1\n      0x0100\n      exp\n      swap1\n      div\n      0xff\n      and\n        /* \"GitHub/contract-token-cryptoMonster/backend/components/PhasePrivate.sol\":1218:1264  strucApplications_[msg.sender].status == false */\n      iszero\n      iszero\n      eq\n        /* \"GitHub/contract-token-cryptoMonster/backend/components/PhasePrivate.sol\":1210:1311  require(strucApplications_[msg.sender].status == false, \"Your application has already been rejected\") */\n      tag_167\n      jumpi\n      mload(0x40)\n      0x08c379a000000000000000000000000000000000000000000000000000000000\n      dup2\n      mstore\n      0x04\n      add\n      tag_168\n      swap1\n      tag_169\n      jump\t// in\n    tag_168:\n      mload(0x40)\n      dup1\n      swap2\n      sub\n      swap1\n      revert\n    tag_167:\n        /* \"GitHub/contract-token-cryptoMonster/backend/components/PhasePrivate.sol\":1428:1507  structApplication(_name, _contactForCommunication, _userAdr, true, false, true) */\n      mload(0x40)\n      dup1\n      0xc0\n      add\n      0x40\n      mstore\n      dup1\n        /* \"GitHub/contract-token-cryptoMonster/backend/components/PhasePrivate.sol\":1446:1451  _name */\n      dup6\n        /* \"GitHub/contract-token-cryptoMonster/backend/components/PhasePrivate.sol\":1428:1507  structApplication(_name, _contactForCommunication, _userAdr, true, false, true) */\n      dup2\n      mstore\n      0x20\n      add\n        /* \"GitHub/contract-token-cryptoMonster/backend/components/PhasePrivate.sol\":1453:1477  _contactForCommunication */\n      dup5\n        /* \"GitHub/contract-token-cryptoMonster/backend/components/PhasePrivate.sol\":1428:1507  structApplication(_name, _contactForCommunication, _userAdr, true, false, true) */\n      dup2\n      mstore\n      0x20\n      add\n        /* \"GitHub/contract-token-cryptoMonster/backend/components/PhasePrivate.sol\":1479:1487  _userAdr */\n      dup4\n        /* \"GitHub/contract-token-cryptoMonster/backend/components/PhasePrivate.sol\":1428:1507  structApplication(_name, _contactForCommunication, _userAdr, true, false, true) */\n      0xffffffffffffffffffffffffffffffffffffffff\n      and\n      dup2\n      mstore\n      0x20\n      add\n        /* \"GitHub/contract-token-cryptoMonster/backend/components/PhasePrivate.sol\":1489:1493  true */\n      0x01\n        /* \"GitHub/contract-token-cryptoMonster/backend/components/PhasePrivate.sol\":1428:1507  structApplication(_name, _contactForCommunication, _userAdr, true, false, true) */\n      iszero\n      iszero\n      dup2\n      mstore\n      0x20\n      add\n        /* \"GitHub/contract-token-cryptoMonster/backend/components/PhasePrivate.sol\":1495:1500  false */\n      0x00\n        /* \"GitHub/contract-token-cryptoMonster/backend/components/PhasePrivate.sol\":1428:1507  structApplication(_name, _contactForCommunication, _userAdr, true, false, true) */\n      iszero\n      iszero\n      dup2\n      mstore\n      0x20\n      add\n        /* \"GitHub/contract-token-cryptoMonster/backend/components/PhasePrivate.sol\":1502:1506  true */\n      0x01\n        /* \"GitHub/contract-token-cryptoMonster/backend/components/PhasePrivate.sol\":1428:1507  structApplication(_name, _contactForCommunication, _userAdr, true, false, true) */\n      iszero\n      iszero\n      dup2\n      mstore\n      pop\n        /* \"GitHub/contract-token-cryptoMonster/backend/components/PhasePrivate.sol\":1394:1412  strucApplications_ */\n      0x05\n        /* \"GitHub/contract-token-cryptoMonster/backend/components/PhasePrivate.sol\":1394:1424  strucApplications_[msg.sender] */\n      0x00\n        /* \"GitHub/contract-token-cryptoMonster/backend/components/PhasePrivate.sol\":1413:1423  msg.sender */\n      caller\n        /* \"GitHub/contract-token-cryptoMonster/backend/components/PhasePrivate.sol\":1394:1424  strucApplications_[msg.sender] */\n      0xffffffffffffffffffffffffffffffffffffffff\n      and\n      0xffffffffffffffffffffffffffffffffffffffff\n      and\n      dup2\n      mstore\n      0x20\n      add\n      swap1\n      dup2\n      mstore\n      0x20\n      add\n      0x00\n      keccak256\n        /* \"GitHub/contract-token-cryptoMonster/backend/components/PhasePrivate.sol\":1394:1507  strucApplications_[msg.sender]  = structApplication(_name, _contactForCommunication, _userAdr, true, false, true) */\n      0x00\n      dup3\n      add\n      mload\n      dup2\n      0x00\n      add\n      swap1\n      dup1\n      mload\n      swap1\n      0x20\n      add\n      swap1\n      tag_170\n      swap3\n      swap2\n      swap1\n      tag_171\n      jump\t// in\n    tag_170:\n      pop\n      0x20\n      dup3\n      add\n      mload\n      dup2\n      0x01\n      add\n      swap1\n      dup1\n      mload\n      swap1\n      0x20\n      add\n      swap1\n      tag_172\n      swap3\n      swap2\n      swap1\n      tag_171\n      jump\t// in\n    tag_172:\n      pop\n      0x40\n      dup3\n      add\n      mload\n      dup2\n      0x02\n      add\n      exp(0x0100, 0x00)\n      dup2\n      sload\n      dup2\n      0xffffffffffffffffffffffffffffffffffffffff\n      mul\n      not\n      and\n      swap1\n      dup4\n      0xffffffffffffffffffffffffffffffffffffffff\n      and\n      mul\n      or\n      swap1\n      sstore\n      pop\n      0x60\n      dup3\n      add\n      mload\n      dup2\n      0x02\n      add\n      exp(0x0100, 0x14)\n      dup2\n      sload\n      dup2\n      0xff\n      mul\n      not\n      and\n      swap1\n      dup4\n      iszero\n      iszero\n      mul\n      or\n      swap1\n      sstore\n      pop\n      0x80\n      dup3\n      add\n      mload\n      dup2\n      0x02\n      add\n      exp(0x0100, 0x15)\n      dup2\n      sload\n      dup2\n      0xff\n      mul\n      not\n      and\n      swap1\n      dup4\n      iszero\n      iszero\n      mul\n      or\n      swap1\n      sstore\n      pop\n      0xa0\n      dup3\n      add\n      mload\n      dup2\n      0x02\n      add\n      exp(0x0100, 0x16)\n      dup2\n      sload\n      dup2\n      0xff\n      mul\n      not\n      and\n      swap1\n      dup4\n      iszero\n      iszero\n      mul\n      or\n      swap1\n      sstore\n      pop\n      swap1\n      pop\n      pop\n        /* \"GitHub/contract-token-cryptoMonster/backend/components/PhasePrivate.sol\":1576:1603  structApplicationsAmountAdr */\n      0x06\n        /* \"GitHub/contract-token-cryptoMonster/backend/components/PhasePrivate.sol\":1609:1619  msg.sender */\n      caller\n        /* \"GitHub/contract-token-cryptoMonster/backend/components/PhasePrivate.sol\":1576:1620  structApplicationsAmountAdr.push(msg.sender) */\n      swap1\n      dup1\n      0x01\n      dup2\n      sload\n      add\n      dup1\n      dup3\n      sstore\n      dup1\n      swap2\n      pop\n      pop\n      0x01\n      swap1\n      sub\n      swap1\n      0x00\n      mstore\n      keccak256(0x00, 0x20)\n      add\n      0x00\n      swap1\n      swap2\n      swap1\n      swap2\n      swap1\n      swap2\n      0x0100\n      exp\n      dup2\n      sload\n      dup2\n      0xffffffffffffffffffffffffffffffffffffffff\n      mul\n      not\n      and\n      swap1\n      dup4\n      0xffffffffffffffffffffffffffffffffffffffff\n      and\n      mul\n      or\n      swap1\n      sstore\n      pop\n        /* \"GitHub/contract-token-cryptoMonster/backend/components/PhasePrivate.sol\":413:1761  {\r... */\n      pop\n        /* \"GitHub/contract-token-cryptoMonster/backend/components/PhasePrivate.sol\":297:1761  function application(string memory _name, string memory _contactForCommunication, address _userAdr) public onlyUser {\r... */\n      pop\n      pop\n      pop\n      jump\t// out\n        /* \"GitHub/contract-token-cryptoMonster/backend/components/PhasePrivate.sol\":3863:4295  function endPrivatePhase () public onlyPrivateProvider {\r... */\n    tag_50:\n        /* \"GitHub/contract-token-cryptoMonster/backend/shared/helpers/modifireFunc.sol\":567:586  Role.SYSTEM_PRIVATE */\n      0x02\n        /* \"GitHub/contract-token-cryptoMonster/backend/shared/helpers/modifireFunc.sol\":534:586  structUsers_[msg.sender].role == Role.SYSTEM_PRIVATE */\n      0x04\n      dup2\n      gt\n      iszero\n      tag_175\n      jumpi\n      tag_176\n      tag_89\n      jump\t// in\n    tag_176:\n    tag_175:\n        /* \"GitHub/contract-token-cryptoMonster/backend/shared/helpers/modifireFunc.sol\":534:546  structUsers_ */\n      0x00\n        /* \"GitHub/contract-token-cryptoMonster/backend/shared/helpers/modifireFunc.sol\":534:558  structUsers_[msg.sender] */\n      dup1\n        /* \"GitHub/contract-token-cryptoMonster/backend/shared/helpers/modifireFunc.sol\":547:557  msg.sender */\n      caller\n        /* \"GitHub/contract-token-cryptoMonster/backend/shared/helpers/modifireFunc.sol\":534:558  structUsers_[msg.sender] */\n      0xffffffffffffffffffffffffffffffffffffffff\n      and\n      0xffffffffffffffffffffffffffffffffffffffff\n      and\n      dup2\n      mstore\n      0x20\n      add\n      swap1\n      dup2\n      mstore\n      0x20\n      add\n      0x00\n      keccak256\n        /* \"GitHub/contract-token-cryptoMonster/backend/shared/helpers/modifireFunc.sol\":534:563  structUsers_[msg.sender].role */\n      0x00\n      add\n      0x00\n      swap1\n      sload\n      swap1\n      0x0100\n      exp\n      swap1\n      div\n      0xff\n      and\n        /* \"GitHub/contract-token-cryptoMonster/backend/shared/helpers/modifireFunc.sol\":534:586  structUsers_[msg.sender].role == Role.SYSTEM_PRIVATE */\n      0x04\n      dup2\n      gt\n      iszero\n      tag_177\n      jumpi\n      tag_178\n      tag_89\n      jump\t// in\n    tag_178:\n    tag_177:\n      eq\n        /* \"GitHub/contract-token-cryptoMonster/backend/shared/helpers/modifireFunc.sol\":526:616  require(structUsers_[msg.sender].role == Role.SYSTEM_PRIVATE, \"Your not Private provider\") */\n      tag_179\n      jumpi\n      mload(0x40)\n      0x08c379a000000000000000000000000000000000000000000000000000000000\n      dup2\n      mstore\n      0x04\n      add\n      tag_180\n      swap1\n      tag_94\n      jump\t// in\n    tag_180:\n      mload(0x40)\n      dup1\n      swap2\n      sub\n      swap1\n      revert\n    tag_179:\n        /* \"GitHub/contract-token-cryptoMonster/backend/components/PhasePrivate.sol\":3978:3982  true */\n      0x01\n        /* \"GitHub/contract-token-cryptoMonster/backend/components/PhasePrivate.sol\":3937:3982  structPhases_[msg.sender].statusPhase == true */\n      iszero\n      iszero\n        /* \"GitHub/contract-token-cryptoMonster/backend/components/PhasePrivate.sol\":3937:3950  structPhases_ */\n      0x04\n        /* \"GitHub/contract-token-cryptoMonster/backend/components/PhasePrivate.sol\":3937:3962  structPhases_[msg.sender] */\n      0x00\n        /* \"GitHub/contract-token-cryptoMonster/backend/components/PhasePrivate.sol\":3951:3961  msg.sender */\n      caller\n        /* \"GitHub/contract-token-cryptoMonster/backend/components/PhasePrivate.sol\":3937:3962  structPhases_[msg.sender] */\n      0xffffffffffffffffffffffffffffffffffffffff\n      and\n      0xffffffffffffffffffffffffffffffffffffffff\n      and\n      dup2\n      mstore\n      0x20\n      add\n      swap1\n      dup2\n      mstore\n      0x20\n      add\n      0x00\n      keccak256\n        /* \"GitHub/contract-token-cryptoMonster/backend/components/PhasePrivate.sol\":3937:3974  structPhases_[msg.sender].statusPhase */\n      0x00\n      add\n      0x00\n      swap1\n      sload\n      swap1\n      0x0100\n      exp\n      swap1\n      div\n      0xff\n      and\n        /* \"GitHub/contract-token-cryptoMonster/backend/components/PhasePrivate.sol\":3937:3982  structPhases_[msg.sender].statusPhase == true */\n      iszero\n      iszero\n      eq\n        /* \"GitHub/contract-token-cryptoMonster/backend/components/PhasePrivate.sol\":3937:4028  structPhases_[msg.sender].statusPhase == true && structPhases_[msg.sender].reviewed == true */\n      dup1\n      iszero\n      tag_182\n      jumpi\n      pop\n        /* \"GitHub/contract-token-cryptoMonster/backend/components/PhasePrivate.sol\":4024:4028  true */\n      0x01\n        /* \"GitHub/contract-token-cryptoMonster/backend/components/PhasePrivate.sol\":3986:4028  structPhases_[msg.sender].reviewed == true */\n      iszero\n      iszero\n        /* \"GitHub/contract-token-cryptoMonster/backend/components/PhasePrivate.sol\":3986:3999  structPhases_ */\n      0x04\n        /* \"GitHub/contract-token-cryptoMonster/backend/components/PhasePrivate.sol\":3986:4011  structPhases_[msg.sender] */\n      0x00\n        /* \"GitHub/contract-token-cryptoMonster/backend/components/PhasePrivate.sol\":4000:4010  msg.sender */\n      caller\n        /* \"GitHub/contract-token-cryptoMonster/backend/components/PhasePrivate.sol\":3986:4011  structPhases_[msg.sender] */\n      0xffffffffffffffffffffffffffffffffffffffff\n      and\n      0xffffffffffffffffffffffffffffffffffffffff\n      and\n      dup2\n      mstore\n      0x20\n      add\n      swap1\n      dup2\n      mstore\n      0x20\n      add\n      0x00\n      keccak256\n        /* \"GitHub/contract-token-cryptoMonster/backend/components/PhasePrivate.sol\":3986:4020  structPhases_[msg.sender].reviewed */\n      0x00\n      add\n      0x01\n      swap1\n      sload\n      swap1\n      0x0100\n      exp\n      swap1\n      div\n      0xff\n      and\n        /* \"GitHub/contract-token-cryptoMonster/backend/components/PhasePrivate.sol\":3986:4028  structPhases_[msg.sender].reviewed == true */\n      iszero\n      iszero\n      eq\n        /* \"GitHub/contract-token-cryptoMonster/backend/components/PhasePrivate.sol\":3937:4028  structPhases_[msg.sender].statusPhase == true && structPhases_[msg.sender].reviewed == true */\n    tag_182:\n        /* \"GitHub/contract-token-cryptoMonster/backend/components/PhasePrivate.sol\":3929:4065  require(structPhases_[msg.sender].statusPhase == true && structPhases_[msg.sender].reviewed == true, \"Phase has not yet been activated\") */\n      tag_183\n      jumpi\n      mload(0x40)\n      0x08c379a000000000000000000000000000000000000000000000000000000000\n      dup2\n      mstore\n      0x04\n      add\n      tag_184\n      swap1\n      tag_185\n      jump\t// in\n    tag_184:\n      mload(0x40)\n      dup1\n      swap2\n      sub\n      swap1\n      revert\n    tag_183:\n        /* \"GitHub/contract-token-cryptoMonster/backend/components/PhasePrivate.sol\":4104:4128  structPhase(false, true) */\n      mload(0x40)\n      dup1\n      0x40\n      add\n      0x40\n      mstore\n      dup1\n        /* \"GitHub/contract-token-cryptoMonster/backend/components/PhasePrivate.sol\":4116:4121  false */\n      0x00\n        /* \"GitHub/contract-token-cryptoMonster/backend/components/PhasePrivate.sol\":4104:4128  structPhase(false, true) */\n      iszero\n      iszero\n      dup2\n      mstore\n      0x20\n      add\n        /* \"GitHub/contract-token-cryptoMonster/backend/components/PhasePrivate.sol\":4123:4127  true */\n      0x01\n        /* \"GitHub/contract-token-cryptoMonster/backend/components/PhasePrivate.sol\":4104:4128  structPhase(false, true) */\n      iszero\n      iszero\n      dup2\n      mstore\n      pop\n        /* \"GitHub/contract-token-cryptoMonster/backend/components/PhasePrivate.sol\":4076:4089  structPhases_ */\n      0x04\n        /* \"GitHub/contract-token-cryptoMonster/backend/components/PhasePrivate.sol\":4076:4101  structPhases_[msg.sender] */\n      0x00\n        /* \"GitHub/contract-token-cryptoMonster/backend/components/PhasePrivate.sol\":4090:4100  msg.sender */\n      caller\n        /* \"GitHub/contract-token-cryptoMonster/backend/components/PhasePrivate.sol\":4076:4101  structPhases_[msg.sender] */\n      0xffffffffffffffffffffffffffffffffffffffff\n      and\n      0xffffffffffffffffffffffffffffffffffffffff\n      and\n      dup2\n      mstore\n      0x20\n      add\n      swap1\n      dup2\n      mstore\n      0x20\n      add\n      0x00\n      keccak256\n        /* \"GitHub/contract-token-cryptoMonster/backend/components/PhasePrivate.sol\":4076:4128  structPhases_[msg.sender] = structPhase(false, true) */\n      0x00\n      dup3\n      add\n      mload\n      dup2\n      0x00\n      add\n      exp(0x0100, 0x00)\n      dup2\n      sload\n      dup2\n      0xff\n      mul\n      not\n      and\n      swap1\n      dup4\n      iszero\n      iszero\n      mul\n      or\n      swap1\n      sstore\n      pop\n      0x20\n      dup3\n      add\n      mload\n      dup2\n      0x00\n      add\n      exp(0x0100, 0x01)\n      dup2\n      sload\n      dup2\n      0xff\n      mul\n      not\n      and\n      swap1\n      dup4\n      iszero\n      iszero\n      mul\n      or\n      swap1\n      sstore\n      pop\n      swap1\n      pop\n      pop\n        /* \"GitHub/contract-token-cryptoMonster/backend/components/PhasePrivate.sol\":4199:4222  structPhase(true, true) */\n      mload(0x40)\n      dup1\n      0x40\n      add\n      0x40\n      mstore\n      dup1\n        /* \"GitHub/contract-token-cryptoMonster/backend/components/PhasePrivate.sol\":4211:4215  true */\n      0x01\n        /* \"GitHub/contract-token-cryptoMonster/backend/components/PhasePrivate.sol\":4199:4222  structPhase(true, true) */\n      iszero\n      iszero\n      dup2\n      mstore\n      0x20\n      add\n        /* \"GitHub/contract-token-cryptoMonster/backend/components/PhasePrivate.sol\":4217:4221  true */\n      0x01\n        /* \"GitHub/contract-token-cryptoMonster/backend/components/PhasePrivate.sol\":4199:4222  structPhase(true, true) */\n      iszero\n      iszero\n      dup2\n      mstore\n      pop\n        /* \"GitHub/contract-token-cryptoMonster/backend/components/PhasePrivate.sol\":4139:4152  structPhases_ */\n      0x04\n        /* \"GitHub/contract-token-cryptoMonster/backend/components/PhasePrivate.sol\":4139:4196  structPhases_[0x4B20993Bc481177ec7E8f571ceCaE8A9e22C02db] */\n      0x00\n        /* \"GitHub/contract-token-cryptoMonster/backend/components/PhasePrivate.sol\":4153:4195  0x4B20993Bc481177ec7E8f571ceCaE8A9e22C02db */\n      0x4b20993bc481177ec7e8f571cecae8a9e22c02db\n        /* \"GitHub/contract-token-cryptoMonster/backend/components/PhasePrivate.sol\":4139:4196  structPhases_[0x4B20993Bc481177ec7E8f571ceCaE8A9e22C02db] */\n      0xffffffffffffffffffffffffffffffffffffffff\n      and\n      0xffffffffffffffffffffffffffffffffffffffff\n      and\n      dup2\n      mstore\n      0x20\n      add\n      swap1\n      dup2\n      mstore\n      0x20\n      add\n      0x00\n      keccak256\n        /* \"GitHub/contract-token-cryptoMonster/backend/components/PhasePrivate.sol\":4139:4222  structPhases_[0x4B20993Bc481177ec7E8f571ceCaE8A9e22C02db] = structPhase(true, true) */\n      0x00\n      dup3\n      add\n      mload\n      dup2\n      0x00\n      add\n      exp(0x0100, 0x00)\n      dup2\n      sload\n      dup2\n      0xff\n      mul\n      not\n      and\n      swap1\n      dup4\n      iszero\n      iszero\n      mul\n      or\n      swap1\n      sstore\n      pop\n      0x20\n      dup3\n      add\n      mload\n      dup2\n      0x00\n      add\n      exp(0x0100, 0x01)\n      dup2\n      sload\n      dup2\n      0xff\n      mul\n      not\n      and\n      swap1\n      dup4\n      iszero\n      iszero\n      mul\n      or\n      swap1\n      sstore\n      pop\n      swap1\n      pop\n      pop\n        /* \"GitHub/contract-token-cryptoMonster/backend/components/PhasePrivate.sol\":4247:4257  1000000000 */\n      0x3b9aca00\n        /* \"GitHub/contract-token-cryptoMonster/backend/components/PhasePrivate.sol\":4233:4244  tokenPrice_ */\n      0x02\n        /* \"GitHub/contract-token-cryptoMonster/backend/components/PhasePrivate.sol\":4233:4257  tokenPrice_ = 1000000000 */\n      dup2\n      swap1\n      sstore\n      pop\n        /* \"GitHub/contract-token-cryptoMonster/backend/components/PhasePrivate.sol\":4283:4287  5000 */\n      0x1388\n        /* \"GitHub/contract-token-cryptoMonster/backend/components/PhasePrivate.sol\":4268:4280  tokenAmount_ */\n      0x03\n        /* \"GitHub/contract-token-cryptoMonster/backend/components/PhasePrivate.sol\":4268:4287  tokenAmount_ = 5000 */\n      dup2\n      swap1\n      sstore\n      pop\n        /* \"GitHub/contract-token-cryptoMonster/backend/components/PhasePrivate.sol\":3863:4295  function endPrivatePhase () public onlyPrivateProvider {\r... */\n      jump\t// out\n        /* \"GitHub/contract-token-cryptoMonster/backend/shared/helpers/helpresFunc.sol\":632:742  function get_blackList() public onlyOwner view returns (address[] memory) {\r... */\n    tag_52:\n        /* \"GitHub/contract-token-cryptoMonster/backend/shared/helpers/helpresFunc.sol\":688:704  address[] memory */\n      0x60\n        /* \"GitHub/contract-token-cryptoMonster/backend/shared/helpers/modifireFunc.sol\":320:337  Role.SYSTEM_OWNER */\n      0x00\n        /* \"GitHub/contract-token-cryptoMonster/backend/shared/helpers/modifireFunc.sol\":287:337  structUsers_[msg.sender].role == Role.SYSTEM_OWNER */\n      0x04\n      dup2\n      gt\n      iszero\n      tag_187\n      jumpi\n      tag_188\n      tag_89\n      jump\t// in\n    tag_188:\n    tag_187:\n        /* \"GitHub/contract-token-cryptoMonster/backend/shared/helpers/modifireFunc.sol\":287:299  structUsers_ */\n      0x00\n        /* \"GitHub/contract-token-cryptoMonster/backend/shared/helpers/modifireFunc.sol\":287:311  structUsers_[msg.sender] */\n      dup1\n        /* \"GitHub/contract-token-cryptoMonster/backend/shared/helpers/modifireFunc.sol\":300:310  msg.sender */\n      caller\n        /* \"GitHub/contract-token-cryptoMonster/backend/shared/helpers/modifireFunc.sol\":287:311  structUsers_[msg.sender] */\n      0xffffffffffffffffffffffffffffffffffffffff\n      and\n      0xffffffffffffffffffffffffffffffffffffffff\n      and\n      dup2\n      mstore\n      0x20\n      add\n      swap1\n      dup2\n      mstore\n      0x20\n      add\n      0x00\n      keccak256\n        /* \"GitHub/contract-token-cryptoMonster/backend/shared/helpers/modifireFunc.sol\":287:316  structUsers_[msg.sender].role */\n      0x00\n      add\n      0x00\n      swap1\n      sload\n      swap1\n      0x0100\n      exp\n      swap1\n      div\n      0xff\n      and\n        /* \"GitHub/contract-token-cryptoMonster/backend/shared/helpers/modifireFunc.sol\":287:337  structUsers_[msg.sender].role == Role.SYSTEM_OWNER */\n      0x04\n      dup2\n      gt\n      iszero\n      tag_189\n      jumpi\n      tag_190\n      tag_89\n      jump\t// in\n    tag_190:\n    tag_189:\n      eq\n        /* \"GitHub/contract-token-cryptoMonster/backend/shared/helpers/modifireFunc.sol\":279:356  require(structUsers_[msg.sender].role == Role.SYSTEM_OWNER, \"Your not admin\") */\n      tag_191\n      jumpi\n      mload(0x40)\n      0x08c379a000000000000000000000000000000000000000000000000000000000\n      dup2\n      mstore\n      0x04\n      add\n      tag_192\n      swap1\n      tag_193\n      jump\t// in\n    tag_192:\n      mload(0x40)\n      dup1\n      swap2\n      sub\n      swap1\n      revert\n    tag_191:\n        /* \"GitHub/contract-token-cryptoMonster/backend/shared/helpers/helpresFunc.sol\":724:733  blackList */\n      0x08\n        /* \"GitHub/contract-token-cryptoMonster/backend/shared/helpers/helpresFunc.sol\":717:734  return(blackList) */\n      dup1\n      sload\n      dup1\n      0x20\n      mul\n      0x20\n      add\n      mload(0x40)\n      swap1\n      dup2\n      add\n      0x40\n      mstore\n      dup1\n      swap3\n      swap2\n      swap1\n      dup2\n      dup2\n      mstore\n      0x20\n      add\n      dup3\n      dup1\n      sload\n      dup1\n      iszero\n      tag_195\n      jumpi\n      0x20\n      mul\n      dup3\n      add\n      swap2\n      swap1\n      0x00\n      mstore\n      keccak256(0x00, 0x20)\n      swap1\n    tag_196:\n      dup2\n      0x00\n      swap1\n      sload\n      swap1\n      0x0100\n      exp\n      swap1\n      div\n      0xffffffffffffffffffffffffffffffffffffffff\n      and\n      0xffffffffffffffffffffffffffffffffffffffff\n      and\n      dup2\n      mstore\n      0x20\n      add\n      swap1\n      0x01\n      add\n      swap1\n      dup1\n      dup4\n      gt\n      tag_196\n      jumpi\n    tag_195:\n      pop\n      pop\n      pop\n      pop\n      pop\n      swap1\n      pop\n        /* \"GitHub/contract-token-cryptoMonster/backend/shared/helpers/helpresFunc.sol\":632:742  function get_blackList() public onlyOwner view returns (address[] memory) {\r... */\n      swap1\n      jump\t// out\n        /* \"GitHub/contract-token-cryptoMonster/backend/components/PhasePrivate.sol\":4396:4515  function changeTokenAmountPricePrivate (uint _price) public onlyPrivateProvider {\r... */\n    tag_57:\n        /* \"GitHub/contract-token-cryptoMonster/backend/shared/helpers/modifireFunc.sol\":567:586  Role.SYSTEM_PRIVATE */\n      0x02\n        /* \"GitHub/contract-token-cryptoMonster/backend/shared/helpers/modifireFunc.sol\":534:586  structUsers_[msg.sender].role == Role.SYSTEM_PRIVATE */\n      0x04\n      dup2\n      gt\n      iszero\n      tag_198\n      jumpi\n      tag_199\n      tag_89\n      jump\t// in\n    tag_199:\n    tag_198:\n        /* \"GitHub/contract-token-cryptoMonster/backend/shared/helpers/modifireFunc.sol\":534:546  structUsers_ */\n      0x00\n        /* \"GitHub/contract-token-cryptoMonster/backend/shared/helpers/modifireFunc.sol\":534:558  structUsers_[msg.sender] */\n      dup1\n        /* \"GitHub/contract-token-cryptoMonster/backend/shared/helpers/modifireFunc.sol\":547:557  msg.sender */\n      caller\n        /* \"GitHub/contract-token-cryptoMonster/backend/shared/helpers/modifireFunc.sol\":534:558  structUsers_[msg.sender] */\n      0xffffffffffffffffffffffffffffffffffffffff\n      and\n      0xffffffffffffffffffffffffffffffffffffffff\n      and\n      dup2\n      mstore\n      0x20\n      add\n      swap1\n      dup2\n      mstore\n      0x20\n      add\n      0x00\n      keccak256\n        /* \"GitHub/contract-token-cryptoMonster/backend/shared/helpers/modifireFunc.sol\":534:563  structUsers_[msg.sender].role */\n      0x00\n      add\n      0x00\n      swap1\n      sload\n      swap1\n      0x0100\n      exp\n      swap1\n      div\n      0xff\n      and\n        /* \"GitHub/contract-token-cryptoMonster/backend/shared/helpers/modifireFunc.sol\":534:586  structUsers_[msg.sender].role == Role.SYSTEM_PRIVATE */\n      0x04\n      dup2\n      gt\n      iszero\n      tag_200\n      jumpi\n      tag_201\n      tag_89\n      jump\t// in\n    tag_201:\n    tag_200:\n      eq\n        /* \"GitHub/contract-token-cryptoMonster/backend/shared/helpers/modifireFunc.sol\":526:616  require(structUsers_[msg.sender].role == Role.SYSTEM_PRIVATE, \"Your not Private provider\") */\n      tag_202\n      jumpi\n      mload(0x40)\n      0x08c379a000000000000000000000000000000000000000000000000000000000\n      dup2\n      mstore\n      0x04\n      add\n      tag_203\n      swap1\n      tag_94\n      jump\t// in\n    tag_203:\n      mload(0x40)\n      dup1\n      swap2\n      sub\n      swap1\n      revert\n    tag_202:\n        /* \"GitHub/contract-token-cryptoMonster/backend/components/PhasePrivate.sol\":4501:4507  _price */\n      dup1\n        /* \"GitHub/contract-token-cryptoMonster/backend/components/PhasePrivate.sol\":4487:4498  tokenPrice_ */\n      0x02\n        /* \"GitHub/contract-token-cryptoMonster/backend/components/PhasePrivate.sol\":4487:4507  tokenPrice_ = _price */\n      dup2\n      swap1\n      sstore\n      pop\n        /* \"GitHub/contract-token-cryptoMonster/backend/components/PhasePrivate.sol\":4396:4515  function changeTokenAmountPricePrivate (uint _price) public onlyPrivateProvider {\r... */\n      pop\n      jump\t// out\n        /* \"GitHub/contract-token-cryptoMonster/backend/shared/helpers/helpresFunc.sol\":212:350  function get_keccak256(string memory _hash) public pure returns(bytes32) {\r... */\n    tag_61:\n        /* \"GitHub/contract-token-cryptoMonster/backend/shared/helpers/helpresFunc.sol\":276:283  bytes32 */\n      0x00\n        /* \"GitHub/contract-token-cryptoMonster/backend/shared/helpers/helpresFunc.sol\":334:339  _hash */\n      dup2\n        /* \"GitHub/contract-token-cryptoMonster/backend/shared/helpers/helpresFunc.sol\":317:340  abi.encodePacked(_hash) */\n      add(0x20, mload(0x40))\n      tag_206\n      swap2\n      swap1\n      tag_207\n      jump\t// in\n    tag_206:\n      mload(0x40)\n      0x20\n      dup2\n      dup4\n      sub\n      sub\n      dup2\n      mstore\n      swap1\n      0x40\n      mstore\n        /* \"GitHub/contract-token-cryptoMonster/backend/shared/helpers/helpresFunc.sol\":307:341  keccak256(abi.encodePacked(_hash)) */\n      dup1\n      mload\n      swap1\n      0x20\n      add\n      keccak256\n        /* \"GitHub/contract-token-cryptoMonster/backend/shared/helpers/helpresFunc.sol\":300:342  return(keccak256(abi.encodePacked(_hash))) */\n      swap1\n      pop\n        /* \"GitHub/contract-token-cryptoMonster/backend/shared/helpers/helpresFunc.sol\":212:350  function get_keccak256(string memory _hash) public pure returns(bytes32) {\r... */\n      swap2\n      swap1\n      pop\n      jump\t// out\n        /* \"GitHub/contract-token-cryptoMonster/backend/shared/lib/structures.sol\":1385:1418  uint public tokenAmount_ = 100000 */\n    tag_65:\n      sload(0x03)\n      dup2\n      jump\t// out\n        /* \"GitHub/contract-token-cryptoMonster/backend/shared/helpers/helpresFunc.sol\":1595:1706  function getBalanceEth(address adr) public view returns(uint256) {\r... */\n    tag_69:\n        /* \"GitHub/contract-token-cryptoMonster/backend/shared/helpers/helpresFunc.sol\":1651:1658  uint256 */\n      0x00\n        /* \"GitHub/contract-token-cryptoMonster/backend/shared/helpers/helpresFunc.sol\":1686:1689  adr */\n      dup2\n        /* \"GitHub/contract-token-cryptoMonster/backend/shared/helpers/helpresFunc.sol\":1678:1698  address(adr).balance */\n      0xffffffffffffffffffffffffffffffffffffffff\n      and\n      balance\n        /* \"GitHub/contract-token-cryptoMonster/backend/shared/helpers/helpresFunc.sol\":1671:1698  return address(adr).balance */\n      swap1\n      pop\n        /* \"GitHub/contract-token-cryptoMonster/backend/shared/helpers/helpresFunc.sol\":1595:1706  function getBalanceEth(address adr) public view returns(uint256) {\r... */\n      swap2\n      swap1\n      pop\n      jump\t// out\n        /* \"GitHub/contract-token-cryptoMonster/backend/components/PhasePrivate.sol\":2196:2995  function acceptApplication (address _userAdr) public onlyPrivateProvider {\r... */\n    tag_73:\n        /* \"GitHub/contract-token-cryptoMonster/backend/shared/helpers/modifireFunc.sol\":567:586  Role.SYSTEM_PRIVATE */\n      0x02\n        /* \"GitHub/contract-token-cryptoMonster/backend/shared/helpers/modifireFunc.sol\":534:586  structUsers_[msg.sender].role == Role.SYSTEM_PRIVATE */\n      0x04\n      dup2\n      gt\n      iszero\n      tag_210\n      jumpi\n      tag_211\n      tag_89\n      jump\t// in\n    tag_211:\n    tag_210:\n        /* \"GitHub/contract-token-cryptoMonster/backend/shared/helpers/modifireFunc.sol\":534:546  structUsers_ */\n      0x00\n        /* \"GitHub/contract-token-cryptoMonster/backend/shared/helpers/modifireFunc.sol\":534:558  structUsers_[msg.sender] */\n      dup1\n        /* \"GitHub/contract-token-cryptoMonster/backend/shared/helpers/modifireFunc.sol\":547:557  msg.sender */\n      caller\n        /* \"GitHub/contract-token-cryptoMonster/backend/shared/helpers/modifireFunc.sol\":534:558  structUsers_[msg.sender] */\n      0xffffffffffffffffffffffffffffffffffffffff\n      and\n      0xffffffffffffffffffffffffffffffffffffffff\n      and\n      dup2\n      mstore\n      0x20\n      add\n      swap1\n      dup2\n      mstore\n      0x20\n      add\n      0x00\n      keccak256\n        /* \"GitHub/contract-token-cryptoMonster/backend/shared/helpers/modifireFunc.sol\":534:563  structUsers_[msg.sender].role */\n      0x00\n      add\n      0x00\n      swap1\n      sload\n      swap1\n      0x0100\n      exp\n      swap1\n      div\n      0xff\n      and\n        /* \"GitHub/contract-token-cryptoMonster/backend/shared/helpers/modifireFunc.sol\":534:586  structUsers_[msg.sender].role == Role.SYSTEM_PRIVATE */\n      0x04\n      dup2\n      gt\n      iszero\n      tag_212\n      jumpi\n      tag_213\n      tag_89\n      jump\t// in\n    tag_213:\n    tag_212:\n      eq\n        /* \"GitHub/contract-token-cryptoMonster/backend/shared/helpers/modifireFunc.sol\":526:616  require(structUsers_[msg.sender].role == Role.SYSTEM_PRIVATE, \"Your not Private provider\") */\n      tag_214\n      jumpi\n      mload(0x40)\n      0x08c379a000000000000000000000000000000000000000000000000000000000\n      dup2\n      mstore\n      0x04\n      add\n      tag_215\n      swap1\n      tag_94\n      jump\t// in\n    tag_215:\n      mload(0x40)\n      dup1\n      swap2\n      sub\n      swap1\n      revert\n    tag_214:\n        /* \"GitHub/contract-token-cryptoMonster/backend/components/PhasePrivate.sol\":2331:2336  false */\n      0x00\n        /* \"GitHub/contract-token-cryptoMonster/backend/components/PhasePrivate.sol\":2288:2336  strucApplications_[msg.sender].reviewed == false */\n      iszero\n      iszero\n        /* \"GitHub/contract-token-cryptoMonster/backend/components/PhasePrivate.sol\":2288:2306  strucApplications_ */\n      0x05\n        /* \"GitHub/contract-token-cryptoMonster/backend/components/PhasePrivate.sol\":2288:2318  strucApplications_[msg.sender] */\n      0x00\n        /* \"GitHub/contract-token-cryptoMonster/backend/components/PhasePrivate.sol\":2307:2317  msg.sender */\n      caller\n        /* \"GitHub/contract-token-cryptoMonster/backend/components/PhasePrivate.sol\":2288:2318  strucApplications_[msg.sender] */\n      0xffffffffffffffffffffffffffffffffffffffff\n      and\n      0xffffffffffffffffffffffffffffffffffffffff\n      and\n      dup2\n      mstore\n      0x20\n      add\n      swap1\n      dup2\n      mstore\n      0x20\n      add\n      0x00\n      keccak256\n        /* \"GitHub/contract-token-cryptoMonster/backend/components/PhasePrivate.sol\":2288:2327  strucApplications_[msg.sender].reviewed */\n      0x02\n      add\n      0x15\n      swap1\n      sload\n      swap1\n      0x0100\n      exp\n      swap1\n      div\n      0xff\n      and\n        /* \"GitHub/contract-token-cryptoMonster/backend/components/PhasePrivate.sol\":2288:2336  strucApplications_[msg.sender].reviewed == false */\n      iszero\n      iszero\n      eq\n        /* \"GitHub/contract-token-cryptoMonster/backend/components/PhasePrivate.sol\":2280:2369  require(strucApplications_[msg.sender].reviewed == false, \"Review the application first\") */\n      tag_217\n      jumpi\n      mload(0x40)\n      0x08c379a000000000000000000000000000000000000000000000000000000000\n      dup2\n      mstore\n      0x04\n      add\n      tag_218\n      swap1\n      tag_110\n      jump\t// in\n    tag_218:\n      mload(0x40)\n      dup1\n      swap2\n      sub\n      swap1\n      revert\n    tag_217:\n        /* \"GitHub/contract-token-cryptoMonster/backend/components/PhasePrivate.sol\":2508:2513  false */\n      0x00\n        /* \"GitHub/contract-token-cryptoMonster/backend/components/PhasePrivate.sol\":2470:2488  strucApplications_ */\n      0x05\n        /* \"GitHub/contract-token-cryptoMonster/backend/components/PhasePrivate.sol\":2470:2498  strucApplications_[_userAdr] */\n      0x00\n        /* \"GitHub/contract-token-cryptoMonster/backend/components/PhasePrivate.sol\":2489:2497  _userAdr */\n      dup4\n        /* \"GitHub/contract-token-cryptoMonster/backend/components/PhasePrivate.sol\":2470:2498  strucApplications_[_userAdr] */\n      0xffffffffffffffffffffffffffffffffffffffff\n      and\n      0xffffffffffffffffffffffffffffffffffffffff\n      and\n      dup2\n      mstore\n      0x20\n      add\n      swap1\n      dup2\n      mstore\n      0x20\n      add\n      0x00\n      keccak256\n        /* \"GitHub/contract-token-cryptoMonster/backend/components/PhasePrivate.sol\":2470:2505  strucApplications_[_userAdr].status */\n      0x02\n      add\n      0x14\n        /* \"GitHub/contract-token-cryptoMonster/backend/components/PhasePrivate.sol\":2470:2513  strucApplications_[_userAdr].status = false */\n      0x0100\n      exp\n      dup2\n      sload\n      dup2\n      0xff\n      mul\n      not\n      and\n      swap1\n      dup4\n      iszero\n      iszero\n      mul\n      or\n      swap1\n      sstore\n      pop\n        /* \"GitHub/contract-token-cryptoMonster/backend/components/PhasePrivate.sol\":2577:2604  structApplicationsAmountAdr */\n      0x06\n        /* \"GitHub/contract-token-cryptoMonster/backend/components/PhasePrivate.sol\":2610:2618  _userAdr */\n      dup2\n        /* \"GitHub/contract-token-cryptoMonster/backend/components/PhasePrivate.sol\":2577:2619  structApplicationsAmountAdr.push(_userAdr) */\n      swap1\n      dup1\n      0x01\n      dup2\n      sload\n      add\n      dup1\n      dup3\n      sstore\n      dup1\n      swap2\n      pop\n      pop\n      0x01\n      swap1\n      sub\n      swap1\n      0x00\n      mstore\n      keccak256(0x00, 0x20)\n      add\n      0x00\n      swap1\n      swap2\n      swap1\n      swap2\n      swap1\n      swap2\n      0x0100\n      exp\n      dup2\n      sload\n      dup2\n      0xffffffffffffffffffffffffffffffffffffffff\n      mul\n      not\n      and\n      swap1\n      dup4\n      0xffffffffffffffffffffffffffffffffffffffff\n      and\n      mul\n      or\n      swap1\n      sstore\n      pop\n        /* \"GitHub/contract-token-cryptoMonster/backend/components/PhasePrivate.sol\":2757:2766  whiteList */\n      0x07\n        /* \"GitHub/contract-token-cryptoMonster/backend/components/PhasePrivate.sol\":2772:2780  _userAdr */\n      dup2\n        /* \"GitHub/contract-token-cryptoMonster/backend/components/PhasePrivate.sol\":2757:2781  whiteList.push(_userAdr) */\n      swap1\n      dup1\n      0x01\n      dup2\n      sload\n      add\n      dup1\n      dup3\n      sstore\n      dup1\n      swap2\n      pop\n      pop\n      0x01\n      swap1\n      sub\n      swap1\n      0x00\n      mstore\n      keccak256(0x00, 0x20)\n      add\n      0x00\n      swap1\n      swap2\n      swap1\n      swap2\n      swap1\n      swap2\n      0x0100\n      exp\n      dup2\n      sload\n      dup2\n      0xffffffffffffffffffffffffffffffffffffffff\n      mul\n      not\n      and\n      swap1\n      dup4\n      0xffffffffffffffffffffffffffffffffffffffff\n      and\n      mul\n      or\n      swap1\n      sstore\n      pop\n        /* \"GitHub/contract-token-cryptoMonster/backend/components/PhasePrivate.sol\":2899:2987  structUser(Role.USER, strucApplications_[_userAdr].name, get_keccak256(\"0\"), 0, 0, 0, 0) */\n      mload(0x40)\n      dup1\n      0xe0\n      add\n      0x40\n      mstore\n      dup1\n        /* \"GitHub/contract-token-cryptoMonster/backend/components/PhasePrivate.sol\":2910:2919  Role.USER */\n      0x04\n        /* \"GitHub/contract-token-cryptoMonster/backend/components/PhasePrivate.sol\":2899:2987  structUser(Role.USER, strucApplications_[_userAdr].name, get_keccak256(\"0\"), 0, 0, 0, 0) */\n      dup1\n      dup2\n      gt\n      iszero\n      tag_221\n      jumpi\n      tag_222\n      tag_89\n      jump\t// in\n    tag_222:\n    tag_221:\n      dup2\n      mstore\n      0x20\n      add\n        /* \"GitHub/contract-token-cryptoMonster/backend/components/PhasePrivate.sol\":2921:2939  strucApplications_ */\n      0x05\n        /* \"GitHub/contract-token-cryptoMonster/backend/components/PhasePrivate.sol\":2921:2949  strucApplications_[_userAdr] */\n      0x00\n        /* \"GitHub/contract-token-cryptoMonster/backend/components/PhasePrivate.sol\":2940:2948  _userAdr */\n      dup5\n        /* \"GitHub/contract-token-cryptoMonster/backend/components/PhasePrivate.sol\":2921:2949  strucApplications_[_userAdr] */\n      0xffffffffffffffffffffffffffffffffffffffff\n      and\n      0xffffffffffffffffffffffffffffffffffffffff\n      and\n      dup2\n      mstore\n      0x20\n      add\n      swap1\n      dup2\n      mstore\n      0x20\n      add\n      0x00\n      keccak256\n        /* \"GitHub/contract-token-cryptoMonster/backend/components/PhasePrivate.sol\":2921:2954  strucApplications_[_userAdr].name */\n      0x00\n      add\n        /* \"GitHub/contract-token-cryptoMonster/backend/components/PhasePrivate.sol\":2899:2987  structUser(Role.USER, strucApplications_[_userAdr].name, get_keccak256(\"0\"), 0, 0, 0, 0) */\n      dup1\n      sload\n      tag_223\n      swap1\n      tag_224\n      jump\t// in\n    tag_223:\n      dup1\n      0x1f\n      add\n      0x20\n      dup1\n      swap2\n      div\n      mul\n      0x20\n      add\n      mload(0x40)\n      swap1\n      dup2\n      add\n      0x40\n      mstore\n      dup1\n      swap3\n      swap2\n      swap1\n      dup2\n      dup2\n      mstore\n      0x20\n      add\n      dup3\n      dup1\n      sload\n      tag_225\n      swap1\n      tag_224\n      jump\t// in\n    tag_225:\n      dup1\n      iszero\n      tag_226\n      jumpi\n      dup1\n      0x1f\n      lt\n      tag_227\n      jumpi\n      0x0100\n      dup1\n      dup4\n      sload\n      div\n      mul\n      dup4\n      mstore\n      swap2\n      0x20\n      add\n      swap2\n      jump(tag_226)\n    tag_227:\n      dup3\n      add\n      swap2\n      swap1\n      0x00\n      mstore\n      keccak256(0x00, 0x20)\n      swap1\n    tag_228:\n      dup2\n      sload\n      dup2\n      mstore\n      swap1\n      0x01\n      add\n      swap1\n      0x20\n      add\n      dup1\n      dup4\n      gt\n      tag_228\n      jumpi\n      dup3\n      swap1\n      sub\n      0x1f\n      and\n      dup3\n      add\n      swap2\n    tag_226:\n      pop\n      pop\n      pop\n      pop\n      pop\n      dup2\n      mstore\n      0x20\n      add\n        /* \"GitHub/contract-token-cryptoMonster/backend/components/PhasePrivate.sol\":2956:2974  get_keccak256(\"0\") */\n      tag_229\n      mload(0x40)\n      dup1\n      0x40\n      add\n      0x40\n      mstore\n      dup1\n      0x01\n      dup2\n      mstore\n      0x20\n      add\n      0x3000000000000000000000000000000000000000000000000000000000000000\n      dup2\n      mstore\n      pop\n        /* \"GitHub/contract-token-cryptoMonster/backend/components/PhasePrivate.sol\":2956:2969  get_keccak256 */\n      tag_61\n        /* \"GitHub/contract-token-cryptoMonster/backend/components/PhasePrivate.sol\":2956:2974  get_keccak256(\"0\") */\n      jump\t// in\n    tag_229:\n        /* \"GitHub/contract-token-cryptoMonster/backend/components/PhasePrivate.sol\":2899:2987  structUser(Role.USER, strucApplications_[_userAdr].name, get_keccak256(\"0\"), 0, 0, 0, 0) */\n      dup2\n      mstore\n      0x20\n      add\n        /* \"GitHub/contract-token-cryptoMonster/backend/components/PhasePrivate.sol\":2976:2977  0 */\n      0x00\n        /* \"GitHub/contract-token-cryptoMonster/backend/components/PhasePrivate.sol\":2899:2987  structUser(Role.USER, strucApplications_[_userAdr].name, get_keccak256(\"0\"), 0, 0, 0, 0) */\n      dup2\n      mstore\n      0x20\n      add\n        /* \"GitHub/contract-token-cryptoMonster/backend/components/PhasePrivate.sol\":2979:2980  0 */\n      0x00\n        /* \"GitHub/contract-token-cryptoMonster/backend/components/PhasePrivate.sol\":2899:2987  structUser(Role.USER, strucApplications_[_userAdr].name, get_keccak256(\"0\"), 0, 0, 0, 0) */\n      dup2\n      mstore\n      0x20\n      add\n        /* \"GitHub/contract-token-cryptoMonster/backend/components/PhasePrivate.sol\":2982:2983  0 */\n      0x00\n        /* \"GitHub/contract-token-cryptoMonster/backend/components/PhasePrivate.sol\":2899:2987  structUser(Role.USER, strucApplications_[_userAdr].name, get_keccak256(\"0\"), 0, 0, 0, 0) */\n      dup2\n      mstore\n      0x20\n      add\n        /* \"GitHub/contract-token-cryptoMonster/backend/components/PhasePrivate.sol\":2985:2986  0 */\n      0x00\n        /* \"GitHub/contract-token-cryptoMonster/backend/components/PhasePrivate.sol\":2899:2987  structUser(Role.USER, strucApplications_[_userAdr].name, get_keccak256(\"0\"), 0, 0, 0, 0) */\n      dup2\n      mstore\n      pop\n        /* \"GitHub/contract-token-cryptoMonster/backend/components/PhasePrivate.sol\":2874:2886  structUsers_ */\n      0x00\n        /* \"GitHub/contract-token-cryptoMonster/backend/components/PhasePrivate.sol\":2874:2896  structUsers_[_userAdr] */\n      dup1\n        /* \"GitHub/contract-token-cryptoMonster/backend/components/PhasePrivate.sol\":2887:2895  _userAdr */\n      dup4\n        /* \"GitHub/contract-token-cryptoMonster/backend/components/PhasePrivate.sol\":2874:2896  structUsers_[_userAdr] */\n      0xffffffffffffffffffffffffffffffffffffffff\n      and\n      0xffffffffffffffffffffffffffffffffffffffff\n      and\n      dup2\n      mstore\n      0x20\n      add\n      swap1\n      dup2\n      mstore\n      0x20\n      add\n      0x00\n      keccak256\n        /* \"GitHub/contract-token-cryptoMonster/backend/components/PhasePrivate.sol\":2874:2987  structUsers_[_userAdr] = structUser(Role.USER, strucApplications_[_userAdr].name, get_keccak256(\"0\"), 0, 0, 0, 0) */\n      0x00\n      dup3\n      add\n      mload\n      dup2\n      0x00\n      add\n      exp(0x0100, 0x00)\n      dup2\n      sload\n      dup2\n      0xff\n      mul\n      not\n      and\n      swap1\n      dup4\n      0x04\n      dup2\n      gt\n      iszero\n      tag_230\n      jumpi\n      tag_231\n      tag_89\n      jump\t// in\n    tag_231:\n    tag_230:\n      mul\n      or\n      swap1\n      sstore\n      pop\n      0x20\n      dup3\n      add\n      mload\n      dup2\n      0x01\n      add\n      swap1\n      dup1\n      mload\n      swap1\n      0x20\n      add\n      swap1\n      tag_232\n      swap3\n      swap2\n      swap1\n      tag_171\n      jump\t// in\n    tag_232:\n      pop\n      0x40\n      dup3\n      add\n      mload\n      dup2\n      0x02\n      add\n      sstore\n      0x60\n      dup3\n      add\n      mload\n      dup2\n      0x03\n      add\n      sstore\n      0x80\n      dup3\n      add\n      mload\n      dup2\n      0x04\n      add\n      sstore\n      0xa0\n      dup3\n      add\n      mload\n      dup2\n      0x05\n      add\n      sstore\n      0xc0\n      dup3\n      add\n      mload\n      dup2\n      0x06\n      add\n      sstore\n      swap1\n      pop\n      pop\n        /* \"GitHub/contract-token-cryptoMonster/backend/components/PhasePrivate.sol\":2196:2995  function acceptApplication (address _userAdr) public onlyPrivateProvider {\r... */\n      pop\n      jump\t// out\n        /* \"GitHub/contract-token-cryptoMonster/backend/shared/helpers/helpresFunc.sol\":1098:1243  function getBalancePrivateToken (address _userAdr) public view returns (uint256) {\r... */\n    tag_76:\n        /* \"GitHub/contract-token-cryptoMonster/backend/shared/helpers/helpresFunc.sol\":1170:1177  uint256 */\n      0x00\n        /* \"GitHub/contract-token-cryptoMonster/backend/shared/helpers/helpresFunc.sol\":1197:1209  structUsers_ */\n      dup1\n        /* \"GitHub/contract-token-cryptoMonster/backend/shared/helpers/helpresFunc.sol\":1197:1219  structUsers_[_userAdr] */\n      0x00\n        /* \"GitHub/contract-token-cryptoMonster/backend/shared/helpers/helpresFunc.sol\":1210:1218  _userAdr */\n      dup4\n        /* \"GitHub/contract-token-cryptoMonster/backend/shared/helpers/helpresFunc.sol\":1197:1219  structUsers_[_userAdr] */\n      0xffffffffffffffffffffffffffffffffffffffff\n      and\n      0xffffffffffffffffffffffffffffffffffffffff\n      and\n      dup2\n      mstore\n      0x20\n      add\n      swap1\n      dup2\n      mstore\n      0x20\n      add\n      0x00\n      keccak256\n        /* \"GitHub/contract-token-cryptoMonster/backend/shared/helpers/helpresFunc.sol\":1197:1235  structUsers_[_userAdr].balance_private */\n      0x05\n      add\n      sload\n        /* \"GitHub/contract-token-cryptoMonster/backend/shared/helpers/helpresFunc.sol\":1190:1235  return structUsers_[_userAdr].balance_private */\n      swap1\n      pop\n        /* \"GitHub/contract-token-cryptoMonster/backend/shared/helpers/helpresFunc.sol\":1098:1243  function getBalancePrivateToken (address _userAdr) public view returns (uint256) {\r... */\n      swap2\n      swap1\n      pop\n      jump\t// out\n        /* \"GitHub/contract-token-cryptoMonster/backend/shared/helpers/helpresFunc.sol\":426:554  function get_whiteList() public onlyOwnerAndPrivateProvider view returns (address[] memory) {\r... */\n    tag_79:\n        /* \"GitHub/contract-token-cryptoMonster/backend/shared/helpers/helpresFunc.sol\":500:516  address[] memory */\n      0x60\n        /* \"GitHub/contract-token-cryptoMonster/backend/shared/helpers/modifireFunc.sol\":1116:1133  Role.SYSTEM_OWNER */\n      0x00\n        /* \"GitHub/contract-token-cryptoMonster/backend/shared/helpers/modifireFunc.sol\":1083:1133  structUsers_[msg.sender].role == Role.SYSTEM_OWNER */\n      0x04\n      dup2\n      gt\n      iszero\n      tag_235\n      jumpi\n      tag_236\n      tag_89\n      jump\t// in\n    tag_236:\n    tag_235:\n        /* \"GitHub/contract-token-cryptoMonster/backend/shared/helpers/modifireFunc.sol\":1083:1095  structUsers_ */\n      0x00\n        /* \"GitHub/contract-token-cryptoMonster/backend/shared/helpers/modifireFunc.sol\":1083:1107  structUsers_[msg.sender] */\n      dup1\n        /* \"GitHub/contract-token-cryptoMonster/backend/shared/helpers/modifireFunc.sol\":1096:1106  msg.sender */\n      caller\n        /* \"GitHub/contract-token-cryptoMonster/backend/shared/helpers/modifireFunc.sol\":1083:1107  structUsers_[msg.sender] */\n      0xffffffffffffffffffffffffffffffffffffffff\n      and\n      0xffffffffffffffffffffffffffffffffffffffff\n      and\n      dup2\n      mstore\n      0x20\n      add\n      swap1\n      dup2\n      mstore\n      0x20\n      add\n      0x00\n      keccak256\n        /* \"GitHub/contract-token-cryptoMonster/backend/shared/helpers/modifireFunc.sol\":1083:1112  structUsers_[msg.sender].role */\n      0x00\n      add\n      0x00\n      swap1\n      sload\n      swap1\n      0x0100\n      exp\n      swap1\n      div\n      0xff\n      and\n        /* \"GitHub/contract-token-cryptoMonster/backend/shared/helpers/modifireFunc.sol\":1083:1133  structUsers_[msg.sender].role == Role.SYSTEM_OWNER */\n      0x04\n      dup2\n      gt\n      iszero\n      tag_237\n      jumpi\n      tag_238\n      tag_89\n      jump\t// in\n    tag_238:\n    tag_237:\n      eq\n        /* \"GitHub/contract-token-cryptoMonster/backend/shared/helpers/modifireFunc.sol\":1083:1189  structUsers_[msg.sender].role == Role.SYSTEM_OWNER || structUsers_[msg.sender].role == Role.SYSTEM_PRIVATE */\n      dup1\n      tag_239\n      jumpi\n      pop\n        /* \"GitHub/contract-token-cryptoMonster/backend/shared/helpers/modifireFunc.sol\":1170:1189  Role.SYSTEM_PRIVATE */\n      0x02\n        /* \"GitHub/contract-token-cryptoMonster/backend/shared/helpers/modifireFunc.sol\":1137:1189  structUsers_[msg.sender].role == Role.SYSTEM_PRIVATE */\n      0x04\n      dup2\n      gt\n      iszero\n      tag_240\n      jumpi\n      tag_241\n      tag_89\n      jump\t// in\n    tag_241:\n    tag_240:\n        /* \"GitHub/contract-token-cryptoMonster/backend/shared/helpers/modifireFunc.sol\":1137:1149  structUsers_ */\n      0x00\n        /* \"GitHub/contract-token-cryptoMonster/backend/shared/helpers/modifireFunc.sol\":1137:1161  structUsers_[msg.sender] */\n      dup1\n        /* \"GitHub/contract-token-cryptoMonster/backend/shared/helpers/modifireFunc.sol\":1150:1160  msg.sender */\n      caller\n        /* \"GitHub/contract-token-cryptoMonster/backend/shared/helpers/modifireFunc.sol\":1137:1161  structUsers_[msg.sender] */\n      0xffffffffffffffffffffffffffffffffffffffff\n      and\n      0xffffffffffffffffffffffffffffffffffffffff\n      and\n      dup2\n      mstore\n      0x20\n      add\n      swap1\n      dup2\n      mstore\n      0x20\n      add\n      0x00\n      keccak256\n        /* \"GitHub/contract-token-cryptoMonster/backend/shared/helpers/modifireFunc.sol\":1137:1166  structUsers_[msg.sender].role */\n      0x00\n      add\n      0x00\n      swap1\n      sload\n      swap1\n      0x0100\n      exp\n      swap1\n      div\n      0xff\n      and\n        /* \"GitHub/contract-token-cryptoMonster/backend/shared/helpers/modifireFunc.sol\":1137:1189  structUsers_[msg.sender].role == Role.SYSTEM_PRIVATE */\n      0x04\n      dup2\n      gt\n      iszero\n      tag_242\n      jumpi\n      tag_243\n      tag_89\n      jump\t// in\n    tag_243:\n    tag_242:\n      eq\n        /* \"GitHub/contract-token-cryptoMonster/backend/shared/helpers/modifireFunc.sol\":1083:1189  structUsers_[msg.sender].role == Role.SYSTEM_OWNER || structUsers_[msg.sender].role == Role.SYSTEM_PRIVATE */\n    tag_239:\n        /* \"GitHub/contract-token-cryptoMonster/backend/shared/helpers/modifireFunc.sol\":1075:1235  require(structUsers_[msg.sender].role == Role.SYSTEM_OWNER || structUsers_[msg.sender].role == Role.SYSTEM_PRIVATE, \"You are not the owner or private provider\") */\n      tag_244\n      jumpi\n      mload(0x40)\n      0x08c379a000000000000000000000000000000000000000000000000000000000\n      dup2\n      mstore\n      0x04\n      add\n      tag_245\n      swap1\n      tag_246\n      jump\t// in\n    tag_245:\n      mload(0x40)\n      dup1\n      swap2\n      sub\n      swap1\n      revert\n    tag_244:\n        /* \"GitHub/contract-token-cryptoMonster/backend/shared/helpers/helpresFunc.sol\":536:545  whiteList */\n      0x07\n        /* \"GitHub/contract-token-cryptoMonster/backend/shared/helpers/helpresFunc.sol\":529:546  return(whiteList) */\n      dup1\n      sload\n      dup1\n      0x20\n      mul\n      0x20\n      add\n      mload(0x40)\n      swap1\n      dup2\n      add\n      0x40\n      mstore\n      dup1\n      swap3\n      swap2\n      swap1\n      dup2\n      dup2\n      mstore\n      0x20\n      add\n      dup3\n      dup1\n      sload\n      dup1\n      iszero\n      tag_248\n      jumpi\n      0x20\n      mul\n      dup3\n      add\n      swap2\n      swap1\n      0x00\n      mstore\n      keccak256(0x00, 0x20)\n      swap1\n    tag_249:\n      dup2\n      0x00\n      swap1\n      sload\n      swap1\n      0x0100\n      exp\n      swap1\n      div\n      0xffffffffffffffffffffffffffffffffffffffff\n      and\n      0xffffffffffffffffffffffffffffffffffffffff\n      and\n      dup2\n      mstore\n      0x20\n      add\n      swap1\n      0x01\n      add\n      swap1\n      dup1\n      dup4\n      gt\n      tag_249\n      jumpi\n    tag_248:\n      pop\n      pop\n      pop\n      pop\n      pop\n      swap1\n      pop\n        /* \"GitHub/contract-token-cryptoMonster/backend/shared/helpers/helpresFunc.sol\":426:554  function get_whiteList() public onlyOwnerAndPrivateProvider view returns (address[] memory) {\r... */\n      swap1\n      jump\t// out\n        /* \"GitHub/contract-token-cryptoMonster/backend/shared/lib/structures.sol\":836:887  mapping (address => structUser) public structUsers_ */\n    tag_83:\n      mstore(0x20, 0x00)\n      dup1\n      0x00\n      mstore\n      keccak256(0x00, 0x40)\n      0x00\n      swap2\n      pop\n      swap1\n      pop\n      dup1\n      0x00\n      add\n      0x00\n      swap1\n      sload\n      swap1\n      0x0100\n      exp\n      swap1\n      div\n      0xff\n      and\n      swap1\n      dup1\n      0x01\n      add\n      dup1\n      sload\n      tag_250\n      swap1\n      tag_224\n      jump\t// in\n    tag_250:\n      dup1\n      0x1f\n      add\n      0x20\n      dup1\n      swap2\n      div\n      mul\n      0x20\n      add\n      mload(0x40)\n      swap1\n      dup2\n      add\n      0x40\n      mstore\n      dup1\n      swap3\n      swap2\n      swap1\n      dup2\n      dup2\n      mstore\n      0x20\n      add\n      dup3\n      dup1\n      sload\n      tag_251\n      swap1\n      tag_224\n      jump\t// in\n    tag_251:\n      dup1\n      iszero\n      tag_252\n      jumpi\n      dup1\n      0x1f\n      lt\n      tag_253\n      jumpi\n      0x0100\n      dup1\n      dup4\n      sload\n      div\n      mul\n      dup4\n      mstore\n      swap2\n      0x20\n      add\n      swap2\n      jump(tag_252)\n    tag_253:\n      dup3\n      add\n      swap2\n      swap1\n      0x00\n      mstore\n      keccak256(0x00, 0x20)\n      swap1\n    tag_254:\n      dup2\n      sload\n      dup2\n      mstore\n      swap1\n      0x01\n      add\n      swap1\n      0x20\n      add\n      dup1\n      dup4\n      gt\n      tag_254\n      jumpi\n      dup3\n      swap1\n      sub\n      0x1f\n      and\n      dup3\n      add\n      swap2\n    tag_252:\n      pop\n      pop\n      pop\n      pop\n      pop\n      swap1\n      dup1\n      0x02\n      add\n      sload\n      swap1\n      dup1\n      0x03\n      add\n      sload\n      swap1\n      dup1\n      0x04\n      add\n      sload\n      swap1\n      dup1\n      0x05\n      add\n      sload\n      swap1\n      dup1\n      0x06\n      add\n      sload\n      swap1\n      pop\n      dup8\n      jump\t// out\n    tag_171:\n      dup3\n      dup1\n      sload\n      tag_255\n      swap1\n      tag_224\n      jump\t// in\n    tag_255:\n      swap1\n      0x00\n      mstore\n      keccak256(0x00, 0x20)\n      swap1\n      0x1f\n      add\n      0x20\n      swap1\n      div\n      dup2\n      add\n      swap3\n      dup3\n      tag_257\n      jumpi\n      0x00\n      dup6\n      sstore\n      jump(tag_256)\n    tag_257:\n      dup3\n      0x1f\n      lt\n      tag_258\n      jumpi\n      dup1\n      mload\n      not(0xff)\n      and\n      dup4\n      dup1\n      add\n      or\n      dup6\n      sstore\n      jump(tag_256)\n    tag_258:\n      dup3\n      dup1\n      add\n      0x01\n      add\n      dup6\n      sstore\n      dup3\n      iszero\n      tag_256\n      jumpi\n      swap2\n      dup3\n      add\n    tag_259:\n      dup3\n      dup2\n      gt\n      iszero\n      tag_260\n      jumpi\n      dup3\n      mload\n      dup3\n      sstore\n      swap2\n      0x20\n      add\n      swap2\n      swap1\n      0x01\n      add\n      swap1\n      jump(tag_259)\n    tag_260:\n    tag_256:\n      pop\n      swap1\n      pop\n      tag_261\n      swap2\n      swap1\n      tag_262\n      jump\t// in\n    tag_261:\n      pop\n      swap1\n      jump\t// out\n    tag_262:\n    tag_263:\n      dup1\n      dup3\n      gt\n      iszero\n      tag_264\n      jumpi\n      0x00\n      dup2\n      0x00\n      swap1\n      sstore\n      pop\n      0x01\n      add\n      jump(tag_263)\n    tag_264:\n      pop\n      swap1\n      jump\t// out\n        /* \"#utility.yul\":7:419   */\n    tag_266:\n        /* \"#utility.yul\":85:90   */\n      0x00\n        /* \"#utility.yul\":110:176   */\n      tag_268\n        /* \"#utility.yul\":126:175   */\n      tag_269\n        /* \"#utility.yul\":168:174   */\n      dup5\n        /* \"#utility.yul\":126:175   */\n      tag_270\n      jump\t// in\n    tag_269:\n        /* \"#utility.yul\":110:176   */\n      tag_271\n      jump\t// in\n    tag_268:\n        /* \"#utility.yul\":101:176   */\n      swap1\n      pop\n        /* \"#utility.yul\":199:205   */\n      dup3\n        /* \"#utility.yul\":192:197   */\n      dup2\n        /* \"#utility.yul\":185:206   */\n      mstore\n        /* \"#utility.yul\":237:241   */\n      0x20\n        /* \"#utility.yul\":230:235   */\n      dup2\n        /* \"#utility.yul\":226:242   */\n      add\n        /* \"#utility.yul\":275:278   */\n      dup5\n        /* \"#utility.yul\":266:272   */\n      dup5\n        /* \"#utility.yul\":261:264   */\n      dup5\n        /* \"#utility.yul\":257:273   */\n      add\n        /* \"#utility.yul\":254:279   */\n      gt\n        /* \"#utility.yul\":251:363   */\n      iszero\n      tag_272\n      jumpi\n        /* \"#utility.yul\":282:361   */\n      tag_273\n      tag_274\n      jump\t// in\n    tag_273:\n        /* \"#utility.yul\":251:363   */\n    tag_272:\n        /* \"#utility.yul\":372:413   */\n      tag_275\n        /* \"#utility.yul\":406:412   */\n      dup5\n        /* \"#utility.yul\":401:404   */\n      dup3\n        /* \"#utility.yul\":396:399   */\n      dup6\n        /* \"#utility.yul\":372:413   */\n      tag_276\n      jump\t// in\n    tag_275:\n        /* \"#utility.yul\":91:419   */\n      pop\n        /* \"#utility.yul\":7:419   */\n      swap4\n      swap3\n      pop\n      pop\n      pop\n      jump\t// out\n        /* \"#utility.yul\":425:564   */\n    tag_277:\n        /* \"#utility.yul\":471:476   */\n      0x00\n        /* \"#utility.yul\":509:515   */\n      dup2\n        /* \"#utility.yul\":496:516   */\n      calldataload\n        /* \"#utility.yul\":487:516   */\n      swap1\n      pop\n        /* \"#utility.yul\":525:558   */\n      tag_279\n        /* \"#utility.yul\":552:557   */\n      dup2\n        /* \"#utility.yul\":525:558   */\n      tag_280\n      jump\t// in\n    tag_279:\n        /* \"#utility.yul\":425:564   */\n      swap3\n      swap2\n      pop\n      pop\n      jump\t// out\n        /* \"#utility.yul\":584:924   */\n    tag_281:\n        /* \"#utility.yul\":640:645   */\n      0x00\n        /* \"#utility.yul\":689:692   */\n      dup3\n        /* \"#utility.yul\":682:686   */\n      0x1f\n        /* \"#utility.yul\":674:680   */\n      dup4\n        /* \"#utility.yul\":670:687   */\n      add\n        /* \"#utility.yul\":666:693   */\n      slt\n        /* \"#utility.yul\":656:778   */\n      tag_283\n      jumpi\n        /* \"#utility.yul\":697:776   */\n      tag_284\n      tag_285\n      jump\t// in\n    tag_284:\n        /* \"#utility.yul\":656:778   */\n    tag_283:\n        /* \"#utility.yul\":814:820   */\n      dup2\n        /* \"#utility.yul\":801:821   */\n      calldataload\n        /* \"#utility.yul\":839:918   */\n      tag_286\n        /* \"#utility.yul\":914:917   */\n      dup5\n        /* \"#utility.yul\":906:912   */\n      dup3\n        /* \"#utility.yul\":899:903   */\n      0x20\n        /* \"#utility.yul\":891:897   */\n      dup7\n        /* \"#utility.yul\":887:904   */\n      add\n        /* \"#utility.yul\":839:918   */\n      tag_266\n      jump\t// in\n    tag_286:\n        /* \"#utility.yul\":830:918   */\n      swap2\n      pop\n        /* \"#utility.yul\":646:924   */\n      pop\n        /* \"#utility.yul\":584:924   */\n      swap3\n      swap2\n      pop\n      pop\n      jump\t// out\n        /* \"#utility.yul\":930:1069   */\n    tag_287:\n        /* \"#utility.yul\":976:981   */\n      0x00\n        /* \"#utility.yul\":1014:1020   */\n      dup2\n        /* \"#utility.yul\":1001:1021   */\n      calldataload\n        /* \"#utility.yul\":992:1021   */\n      swap1\n      pop\n        /* \"#utility.yul\":1030:1063   */\n      tag_289\n        /* \"#utility.yul\":1057:1062   */\n      dup2\n        /* \"#utility.yul\":1030:1063   */\n      tag_290\n      jump\t// in\n    tag_289:\n        /* \"#utility.yul\":930:1069   */\n      swap3\n      swap2\n      pop\n      pop\n      jump\t// out\n        /* \"#utility.yul\":1075:1404   */\n    tag_31:\n        /* \"#utility.yul\":1134:1140   */\n      0x00\n        /* \"#utility.yul\":1183:1185   */\n      0x20\n        /* \"#utility.yul\":1171:1180   */\n      dup3\n        /* \"#utility.yul\":1162:1169   */\n      dup5\n        /* \"#utility.yul\":1158:1181   */\n      sub\n        /* \"#utility.yul\":1154:1186   */\n      slt\n        /* \"#utility.yul\":1151:1270   */\n      iszero\n      tag_292\n      jumpi\n        /* \"#utility.yul\":1189:1268   */\n      tag_293\n      tag_294\n      jump\t// in\n    tag_293:\n        /* \"#utility.yul\":1151:1270   */\n    tag_292:\n        /* \"#utility.yul\":1309:1310   */\n      0x00\n        /* \"#utility.yul\":1334:1387   */\n      tag_295\n        /* \"#utility.yul\":1379:1386   */\n      dup5\n        /* \"#utility.yul\":1370:1376   */\n      dup3\n        /* \"#utility.yul\":1359:1368   */\n      dup6\n        /* \"#utility.yul\":1355:1377   */\n      add\n        /* \"#utility.yul\":1334:1387   */\n      tag_277\n      jump\t// in\n    tag_295:\n        /* \"#utility.yul\":1324:1387   */\n      swap2\n      pop\n        /* \"#utility.yul\":1280:1397   */\n      pop\n        /* \"#utility.yul\":1075:1404   */\n      swap3\n      swap2\n      pop\n      pop\n      jump\t// out\n        /* \"#utility.yul\":1410:1919   */\n    tag_60:\n        /* \"#utility.yul\":1479:1485   */\n      0x00\n        /* \"#utility.yul\":1528:1530   */\n      0x20\n        /* \"#utility.yul\":1516:1525   */\n      dup3\n        /* \"#utility.yul\":1507:1514   */\n      dup5\n        /* \"#utility.yul\":1503:1526   */\n      sub\n        /* \"#utility.yul\":1499:1531   */\n      slt\n        /* \"#utility.yul\":1496:1615   */\n      iszero\n      tag_297\n      jumpi\n        /* \"#utility.yul\":1534:1613   */\n      tag_298\n      tag_294\n      jump\t// in\n    tag_298:\n        /* \"#utility.yul\":1496:1615   */\n    tag_297:\n        /* \"#utility.yul\":1682:1683   */\n      0x00\n        /* \"#utility.yul\":1671:1680   */\n      dup3\n        /* \"#utility.yul\":1667:1684   */\n      add\n        /* \"#utility.yul\":1654:1685   */\n      calldataload\n        /* \"#utility.yul\":1712:1730   */\n      0xffffffffffffffff\n        /* \"#utility.yul\":1704:1710   */\n      dup2\n        /* \"#utility.yul\":1701:1731   */\n      gt\n        /* \"#utility.yul\":1698:1815   */\n      iszero\n      tag_299\n      jumpi\n        /* \"#utility.yul\":1734:1813   */\n      tag_300\n      tag_301\n      jump\t// in\n    tag_300:\n        /* \"#utility.yul\":1698:1815   */\n    tag_299:\n        /* \"#utility.yul\":1839:1902   */\n      tag_302\n        /* \"#utility.yul\":1894:1901   */\n      dup5\n        /* \"#utility.yul\":1885:1891   */\n      dup3\n        /* \"#utility.yul\":1874:1883   */\n      dup6\n        /* \"#utility.yul\":1870:1892   */\n      add\n        /* \"#utility.yul\":1839:1902   */\n      tag_281\n      jump\t// in\n    tag_302:\n        /* \"#utility.yul\":1829:1902   */\n      swap2\n      pop\n        /* \"#utility.yul\":1625:1912   */\n      pop\n        /* \"#utility.yul\":1410:1919   */\n      swap3\n      swap2\n      pop\n      pop\n      jump\t// out\n        /* \"#utility.yul\":1925:2904   */\n    tag_47:\n        /* \"#utility.yul\":2022:2028   */\n      0x00\n        /* \"#utility.yul\":2030:2036   */\n      dup1\n        /* \"#utility.yul\":2038:2044   */\n      0x00\n        /* \"#utility.yul\":2087:2089   */\n      0x60\n        /* \"#utility.yul\":2075:2084   */\n      dup5\n        /* \"#utility.yul\":2066:2073   */\n      dup7\n        /* \"#utility.yul\":2062:2085   */\n      sub\n        /* \"#utility.yul\":2058:2090   */\n      slt\n        /* \"#utility.yul\":2055:2174   */\n      iszero\n      tag_304\n      jumpi\n        /* \"#utility.yul\":2093:2172   */\n      tag_305\n      tag_294\n      jump\t// in\n    tag_305:\n        /* \"#utility.yul\":2055:2174   */\n    tag_304:\n        /* \"#utility.yul\":2241:2242   */\n      0x00\n        /* \"#utility.yul\":2230:2239   */\n      dup5\n        /* \"#utility.yul\":2226:2243   */\n      add\n        /* \"#utility.yul\":2213:2244   */\n      calldataload\n        /* \"#utility.yul\":2271:2289   */\n      0xffffffffffffffff\n        /* \"#utility.yul\":2263:2269   */\n      dup2\n        /* \"#utility.yul\":2260:2290   */\n      gt\n        /* \"#utility.yul\":2257:2374   */\n      iszero\n      tag_306\n      jumpi\n        /* \"#utility.yul\":2293:2372   */\n      tag_307\n      tag_301\n      jump\t// in\n    tag_307:\n        /* \"#utility.yul\":2257:2374   */\n    tag_306:\n        /* \"#utility.yul\":2398:2461   */\n      tag_308\n        /* \"#utility.yul\":2453:2460   */\n      dup7\n        /* \"#utility.yul\":2444:2450   */\n      dup3\n        /* \"#utility.yul\":2433:2442   */\n      dup8\n        /* \"#utility.yul\":2429:2451   */\n      add\n        /* \"#utility.yul\":2398:2461   */\n      tag_281\n      jump\t// in\n    tag_308:\n        /* \"#utility.yul\":2388:2461   */\n      swap4\n      pop\n        /* \"#utility.yul\":2184:2471   */\n      pop\n        /* \"#utility.yul\":2538:2540   */\n      0x20\n        /* \"#utility.yul\":2527:2536   */\n      dup5\n        /* \"#utility.yul\":2523:2541   */\n      add\n        /* \"#utility.yul\":2510:2542   */\n      calldataload\n        /* \"#utility.yul\":2569:2587   */\n      0xffffffffffffffff\n        /* \"#utility.yul\":2561:2567   */\n      dup2\n        /* \"#utility.yul\":2558:2588   */\n      gt\n        /* \"#utility.yul\":2555:2672   */\n      iszero\n      tag_309\n      jumpi\n        /* \"#utility.yul\":2591:2670   */\n      tag_310\n      tag_301\n      jump\t// in\n    tag_310:\n        /* \"#utility.yul\":2555:2672   */\n    tag_309:\n        /* \"#utility.yul\":2696:2759   */\n      tag_311\n        /* \"#utility.yul\":2751:2758   */\n      dup7\n        /* \"#utility.yul\":2742:2748   */\n      dup3\n        /* \"#utility.yul\":2731:2740   */\n      dup8\n        /* \"#utility.yul\":2727:2749   */\n      add\n        /* \"#utility.yul\":2696:2759   */\n      tag_281\n      jump\t// in\n    tag_311:\n        /* \"#utility.yul\":2686:2759   */\n      swap3\n      pop\n        /* \"#utility.yul\":2481:2769   */\n      pop\n        /* \"#utility.yul\":2808:2810   */\n      0x40\n        /* \"#utility.yul\":2834:2887   */\n      tag_312\n        /* \"#utility.yul\":2879:2886   */\n      dup7\n        /* \"#utility.yul\":2870:2876   */\n      dup3\n        /* \"#utility.yul\":2859:2868   */\n      dup8\n        /* \"#utility.yul\":2855:2877   */\n      add\n        /* \"#utility.yul\":2834:2887   */\n      tag_277\n      jump\t// in\n    tag_312:\n        /* \"#utility.yul\":2824:2887   */\n      swap2\n      pop\n        /* \"#utility.yul\":2779:2897   */\n      pop\n        /* \"#utility.yul\":1925:2904   */\n      swap3\n      pop\n      swap3\n      pop\n      swap3\n      jump\t// out\n        /* \"#utility.yul\":2910:3239   */\n    tag_56:\n        /* \"#utility.yul\":2969:2975   */\n      0x00\n        /* \"#utility.yul\":3018:3020   */\n      0x20\n        /* \"#utility.yul\":3006:3015   */\n      dup3\n        /* \"#utility.yul\":2997:3004   */\n      dup5\n        /* \"#utility.yul\":2993:3016   */\n      sub\n        /* \"#utility.yul\":2989:3021   */\n      slt\n        /* \"#utility.yul\":2986:3105   */\n      iszero\n      tag_314\n      jumpi\n        /* \"#utility.yul\":3024:3103   */\n      tag_315\n      tag_294\n      jump\t// in\n    tag_315:\n        /* \"#utility.yul\":2986:3105   */\n    tag_314:\n        /* \"#utility.yul\":3144:3145   */\n      0x00\n        /* \"#utility.yul\":3169:3222   */\n      tag_316\n        /* \"#utility.yul\":3214:3221   */\n      dup5\n        /* \"#utility.yul\":3205:3211   */\n      dup3\n        /* \"#utility.yul\":3194:3203   */\n      dup6\n        /* \"#utility.yul\":3190:3212   */\n      add\n        /* \"#utility.yul\":3169:3222   */\n      tag_287\n      jump\t// in\n    tag_316:\n        /* \"#utility.yul\":3159:3222   */\n      swap2\n      pop\n        /* \"#utility.yul\":3115:3232   */\n      pop\n        /* \"#utility.yul\":2910:3239   */\n      swap3\n      swap2\n      pop\n      pop\n      jump\t// out\n        /* \"#utility.yul\":3245:3424   */\n    tag_317:\n        /* \"#utility.yul\":3314:3324   */\n      0x00\n        /* \"#utility.yul\":3335:3381   */\n      tag_319\n        /* \"#utility.yul\":3377:3380   */\n      dup4\n        /* \"#utility.yul\":3369:3375   */\n      dup4\n        /* \"#utility.yul\":3335:3381   */\n      tag_320\n      jump\t// in\n    tag_319:\n        /* \"#utility.yul\":3413:3417   */\n      0x20\n        /* \"#utility.yul\":3408:3411   */\n      dup4\n        /* \"#utility.yul\":3404:3418   */\n      add\n        /* \"#utility.yul\":3390:3418   */\n      swap1\n      pop\n        /* \"#utility.yul\":3245:3424   */\n      swap3\n      swap2\n      pop\n      pop\n      jump\t// out\n        /* \"#utility.yul\":3430:3538   */\n    tag_320:\n        /* \"#utility.yul\":3507:3531   */\n      tag_322\n        /* \"#utility.yul\":3525:3530   */\n      dup2\n        /* \"#utility.yul\":3507:3531   */\n      tag_323\n      jump\t// in\n    tag_322:\n        /* \"#utility.yul\":3502:3505   */\n      dup3\n        /* \"#utility.yul\":3495:3532   */\n      mstore\n        /* \"#utility.yul\":3430:3538   */\n      pop\n      pop\n      jump\t// out\n        /* \"#utility.yul\":3574:4306   */\n    tag_324:\n        /* \"#utility.yul\":3693:3696   */\n      0x00\n        /* \"#utility.yul\":3722:3776   */\n      tag_326\n        /* \"#utility.yul\":3770:3775   */\n      dup3\n        /* \"#utility.yul\":3722:3776   */\n      tag_327\n      jump\t// in\n    tag_326:\n        /* \"#utility.yul\":3792:3878   */\n      tag_328\n        /* \"#utility.yul\":3871:3877   */\n      dup2\n        /* \"#utility.yul\":3866:3869   */\n      dup6\n        /* \"#utility.yul\":3792:3878   */\n      tag_329\n      jump\t// in\n    tag_328:\n        /* \"#utility.yul\":3785:3878   */\n      swap4\n      pop\n        /* \"#utility.yul\":3902:3958   */\n      tag_330\n        /* \"#utility.yul\":3952:3957   */\n      dup4\n        /* \"#utility.yul\":3902:3958   */\n      tag_331\n      jump\t// in\n    tag_330:\n        /* \"#utility.yul\":3981:3988   */\n      dup1\n        /* \"#utility.yul\":4012:4013   */\n      0x00\n        /* \"#utility.yul\":3997:4281   */\n    tag_332:\n        /* \"#utility.yul\":4022:4028   */\n      dup4\n        /* \"#utility.yul\":4019:4020   */\n      dup2\n        /* \"#utility.yul\":4016:4029   */\n      lt\n        /* \"#utility.yul\":3997:4281   */\n      iszero\n      tag_334\n      jumpi\n        /* \"#utility.yul\":4098:4104   */\n      dup2\n        /* \"#utility.yul\":4092:4105   */\n      mload\n        /* \"#utility.yul\":4125:4188   */\n      tag_335\n        /* \"#utility.yul\":4184:4187   */\n      dup9\n        /* \"#utility.yul\":4169:4182   */\n      dup3\n        /* \"#utility.yul\":4125:4188   */\n      tag_317\n      jump\t// in\n    tag_335:\n        /* \"#utility.yul\":4118:4188   */\n      swap8\n      pop\n        /* \"#utility.yul\":4211:4271   */\n      tag_336\n        /* \"#utility.yul\":4264:4270   */\n      dup4\n        /* \"#utility.yul\":4211:4271   */\n      tag_337\n      jump\t// in\n    tag_336:\n        /* \"#utility.yul\":4201:4271   */\n      swap3\n      pop\n        /* \"#utility.yul\":4057:4281   */\n      pop\n        /* \"#utility.yul\":4044:4045   */\n      0x01\n        /* \"#utility.yul\":4041:4042   */\n      dup2\n        /* \"#utility.yul\":4037:4046   */\n      add\n        /* \"#utility.yul\":4032:4046   */\n      swap1\n      pop\n        /* \"#utility.yul\":3997:4281   */\n      jump(tag_332)\n    tag_334:\n        /* \"#utility.yul\":4001:4015   */\n      pop\n        /* \"#utility.yul\":4297:4300   */\n      dup6\n        /* \"#utility.yul\":4290:4300   */\n      swap4\n      pop\n        /* \"#utility.yul\":3698:4306   */\n      pop\n      pop\n      pop\n        /* \"#utility.yul\":3574:4306   */\n      swap3\n      swap2\n      pop\n      pop\n      jump\t// out\n        /* \"#utility.yul\":4312:4430   */\n    tag_338:\n        /* \"#utility.yul\":4399:4423   */\n      tag_340\n        /* \"#utility.yul\":4417:4422   */\n      dup2\n        /* \"#utility.yul\":4399:4423   */\n      tag_341\n      jump\t// in\n    tag_340:\n        /* \"#utility.yul\":4394:4397   */\n      dup3\n        /* \"#utility.yul\":4387:4424   */\n      mstore\n        /* \"#utility.yul\":4312:4430   */\n      pop\n      pop\n      jump\t// out\n        /* \"#utility.yul\":4436:4579   */\n    tag_342:\n        /* \"#utility.yul\":4529:4572   */\n      tag_344\n        /* \"#utility.yul\":4566:4571   */\n      dup2\n        /* \"#utility.yul\":4529:4572   */\n      tag_345\n      jump\t// in\n    tag_344:\n        /* \"#utility.yul\":4524:4527   */\n      dup3\n        /* \"#utility.yul\":4517:4573   */\n      mstore\n        /* \"#utility.yul\":4436:4579   */\n      pop\n      pop\n      jump\t// out\n        /* \"#utility.yul\":4585:4949   */\n    tag_346:\n        /* \"#utility.yul\":4673:4676   */\n      0x00\n        /* \"#utility.yul\":4701:4740   */\n      tag_348\n        /* \"#utility.yul\":4734:4739   */\n      dup3\n        /* \"#utility.yul\":4701:4740   */\n      tag_349\n      jump\t// in\n    tag_348:\n        /* \"#utility.yul\":4756:4827   */\n      tag_350\n        /* \"#utility.yul\":4820:4826   */\n      dup2\n        /* \"#utility.yul\":4815:4818   */\n      dup6\n        /* \"#utility.yul\":4756:4827   */\n      tag_351\n      jump\t// in\n    tag_350:\n        /* \"#utility.yul\":4749:4827   */\n      swap4\n      pop\n        /* \"#utility.yul\":4836:4888   */\n      tag_352\n        /* \"#utility.yul\":4881:4887   */\n      dup2\n        /* \"#utility.yul\":4876:4879   */\n      dup6\n        /* \"#utility.yul\":4869:4873   */\n      0x20\n        /* \"#utility.yul\":4862:4867   */\n      dup7\n        /* \"#utility.yul\":4858:4874   */\n      add\n        /* \"#utility.yul\":4836:4888   */\n      tag_353\n      jump\t// in\n    tag_352:\n        /* \"#utility.yul\":4913:4942   */\n      tag_354\n        /* \"#utility.yul\":4935:4941   */\n      dup2\n        /* \"#utility.yul\":4913:4942   */\n      tag_355\n      jump\t// in\n    tag_354:\n        /* \"#utility.yul\":4908:4911   */\n      dup5\n        /* \"#utility.yul\":4904:4943   */\n      add\n        /* \"#utility.yul\":4897:4943   */\n      swap2\n      pop\n        /* \"#utility.yul\":4677:4949   */\n      pop\n        /* \"#utility.yul\":4585:4949   */\n      swap3\n      swap2\n      pop\n      pop\n      jump\t// out\n        /* \"#utility.yul\":4955:5332   */\n    tag_356:\n        /* \"#utility.yul\":5061:5064   */\n      0x00\n        /* \"#utility.yul\":5089:5128   */\n      tag_358\n        /* \"#utility.yul\":5122:5127   */\n      dup3\n        /* \"#utility.yul\":5089:5128   */\n      tag_349\n      jump\t// in\n    tag_358:\n        /* \"#utility.yul\":5144:5233   */\n      tag_359\n        /* \"#utility.yul\":5226:5232   */\n      dup2\n        /* \"#utility.yul\":5221:5224   */\n      dup6\n        /* \"#utility.yul\":5144:5233   */\n      tag_360\n      jump\t// in\n    tag_359:\n        /* \"#utility.yul\":5137:5233   */\n      swap4\n      pop\n        /* \"#utility.yul\":5242:5294   */\n      tag_361\n        /* \"#utility.yul\":5287:5293   */\n      dup2\n        /* \"#utility.yul\":5282:5285   */\n      dup6\n        /* \"#utility.yul\":5275:5279   */\n      0x20\n        /* \"#utility.yul\":5268:5273   */\n      dup7\n        /* \"#utility.yul\":5264:5280   */\n      add\n        /* \"#utility.yul\":5242:5294   */\n      tag_353\n      jump\t// in\n    tag_361:\n        /* \"#utility.yul\":5319:5325   */\n      dup1\n        /* \"#utility.yul\":5314:5317   */\n      dup5\n        /* \"#utility.yul\":5310:5326   */\n      add\n        /* \"#utility.yul\":5303:5326   */\n      swap2\n      pop\n        /* \"#utility.yul\":5065:5332   */\n      pop\n        /* \"#utility.yul\":4955:5332   */\n      swap3\n      swap2\n      pop\n      pop\n      jump\t// out\n        /* \"#utility.yul\":5338:5704   */\n    tag_362:\n        /* \"#utility.yul\":5480:5483   */\n      0x00\n        /* \"#utility.yul\":5501:5568   */\n      tag_364\n        /* \"#utility.yul\":5565:5567   */\n      0x1c\n        /* \"#utility.yul\":5560:5563   */\n      dup4\n        /* \"#utility.yul\":5501:5568   */\n      tag_351\n      jump\t// in\n    tag_364:\n        /* \"#utility.yul\":5494:5568   */\n      swap2\n      pop\n        /* \"#utility.yul\":5577:5670   */\n      tag_365\n        /* \"#utility.yul\":5666:5669   */\n      dup3\n        /* \"#utility.yul\":5577:5670   */\n      tag_366\n      jump\t// in\n    tag_365:\n        /* \"#utility.yul\":5695:5697   */\n      0x20\n        /* \"#utility.yul\":5690:5693   */\n      dup3\n        /* \"#utility.yul\":5686:5698   */\n      add\n        /* \"#utility.yul\":5679:5698   */\n      swap1\n      pop\n        /* \"#utility.yul\":5338:5704   */\n      swap2\n      swap1\n      pop\n      jump\t// out\n        /* \"#utility.yul\":5710:6076   */\n    tag_367:\n        /* \"#utility.yul\":5852:5855   */\n      0x00\n        /* \"#utility.yul\":5873:5940   */\n      tag_369\n        /* \"#utility.yul\":5937:5939   */\n      0x14\n        /* \"#utility.yul\":5932:5935   */\n      dup4\n        /* \"#utility.yul\":5873:5940   */\n      tag_351\n      jump\t// in\n    tag_369:\n        /* \"#utility.yul\":5866:5940   */\n      swap2\n      pop\n        /* \"#utility.yul\":5949:6042   */\n      tag_370\n        /* \"#utility.yul\":6038:6041   */\n      dup3\n        /* \"#utility.yul\":5949:6042   */\n      tag_371\n      jump\t// in\n    tag_370:\n        /* \"#utility.yul\":6067:6069   */\n      0x20\n        /* \"#utility.yul\":6062:6065   */\n      dup3\n        /* \"#utility.yul\":6058:6070   */\n      add\n        /* \"#utility.yul\":6051:6070   */\n      swap1\n      pop\n        /* \"#utility.yul\":5710:6076   */\n      swap2\n      swap1\n      pop\n      jump\t// out\n        /* \"#utility.yul\":6082:6448   */\n    tag_372:\n        /* \"#utility.yul\":6224:6227   */\n      0x00\n        /* \"#utility.yul\":6245:6312   */\n      tag_374\n        /* \"#utility.yul\":6309:6311   */\n      0x18\n        /* \"#utility.yul\":6304:6307   */\n      dup4\n        /* \"#utility.yul\":6245:6312   */\n      tag_351\n      jump\t// in\n    tag_374:\n        /* \"#utility.yul\":6238:6312   */\n      swap2\n      pop\n        /* \"#utility.yul\":6321:6414   */\n      tag_375\n        /* \"#utility.yul\":6410:6413   */\n      dup3\n        /* \"#utility.yul\":6321:6414   */\n      tag_376\n      jump\t// in\n    tag_375:\n        /* \"#utility.yul\":6439:6441   */\n      0x20\n        /* \"#utility.yul\":6434:6437   */\n      dup3\n        /* \"#utility.yul\":6430:6442   */\n      add\n        /* \"#utility.yul\":6423:6442   */\n      swap1\n      pop\n        /* \"#utility.yul\":6082:6448   */\n      swap2\n      swap1\n      pop\n      jump\t// out\n        /* \"#utility.yul\":6454:6820   */\n    tag_377:\n        /* \"#utility.yul\":6596:6599   */\n      0x00\n        /* \"#utility.yul\":6617:6684   */\n      tag_379\n        /* \"#utility.yul\":6681:6683   */\n      0x2a\n        /* \"#utility.yul\":6676:6679   */\n      dup4\n        /* \"#utility.yul\":6617:6684   */\n      tag_351\n      jump\t// in\n    tag_379:\n        /* \"#utility.yul\":6610:6684   */\n      swap2\n      pop\n        /* \"#utility.yul\":6693:6786   */\n      tag_380\n        /* \"#utility.yul\":6782:6785   */\n      dup3\n        /* \"#utility.yul\":6693:6786   */\n      tag_381\n      jump\t// in\n    tag_380:\n        /* \"#utility.yul\":6811:6813   */\n      0x40\n        /* \"#utility.yul\":6806:6809   */\n      dup3\n        /* \"#utility.yul\":6802:6814   */\n      add\n        /* \"#utility.yul\":6795:6814   */\n      swap1\n      pop\n        /* \"#utility.yul\":6454:6820   */\n      swap2\n      swap1\n      pop\n      jump\t// out\n        /* \"#utility.yul\":6826:7192   */\n    tag_382:\n        /* \"#utility.yul\":6968:6971   */\n      0x00\n        /* \"#utility.yul\":6989:7056   */\n      tag_384\n        /* \"#utility.yul\":7053:7055   */\n      0x29\n        /* \"#utility.yul\":7048:7051   */\n      dup4\n        /* \"#utility.yul\":6989:7056   */\n      tag_351\n      jump\t// in\n    tag_384:\n        /* \"#utility.yul\":6982:7056   */\n      swap2\n      pop\n        /* \"#utility.yul\":7065:7158   */\n      tag_385\n        /* \"#utility.yul\":7154:7157   */\n      dup3\n        /* \"#utility.yul\":7065:7158   */\n      tag_386\n      jump\t// in\n    tag_385:\n        /* \"#utility.yul\":7183:7185   */\n      0x40\n        /* \"#utility.yul\":7178:7181   */\n      dup3\n        /* \"#utility.yul\":7174:7186   */\n      add\n        /* \"#utility.yul\":7167:7186   */\n      swap1\n      pop\n        /* \"#utility.yul\":6826:7192   */\n      swap2\n      swap1\n      pop\n      jump\t// out\n        /* \"#utility.yul\":7198:7564   */\n    tag_387:\n        /* \"#utility.yul\":7340:7343   */\n      0x00\n        /* \"#utility.yul\":7361:7428   */\n      tag_389\n        /* \"#utility.yul\":7425:7427   */\n      0x32\n        /* \"#utility.yul\":7420:7423   */\n      dup4\n        /* \"#utility.yul\":7361:7428   */\n      tag_351\n      jump\t// in\n    tag_389:\n        /* \"#utility.yul\":7354:7428   */\n      swap2\n      pop\n        /* \"#utility.yul\":7437:7530   */\n      tag_390\n        /* \"#utility.yul\":7526:7529   */\n      dup3\n        /* \"#utility.yul\":7437:7530   */\n      tag_391\n      jump\t// in\n    tag_390:\n        /* \"#utility.yul\":7555:7557   */\n      0x40\n        /* \"#utility.yul\":7550:7553   */\n      dup3\n        /* \"#utility.yul\":7546:7558   */\n      add\n        /* \"#utility.yul\":7539:7558   */\n      swap1\n      pop\n        /* \"#utility.yul\":7198:7564   */\n      swap2\n      swap1\n      pop\n      jump\t// out\n        /* \"#utility.yul\":7570:7936   */\n    tag_392:\n        /* \"#utility.yul\":7712:7715   */\n      0x00\n        /* \"#utility.yul\":7733:7800   */\n      tag_394\n        /* \"#utility.yul\":7797:7799   */\n      0x20\n        /* \"#utility.yul\":7792:7795   */\n      dup4\n        /* \"#utility.yul\":7733:7800   */\n      tag_351\n      jump\t// in\n    tag_394:\n        /* \"#utility.yul\":7726:7800   */\n      swap2\n      pop\n        /* \"#utility.yul\":7809:7902   */\n      tag_395\n        /* \"#utility.yul\":7898:7901   */\n      dup3\n        /* \"#utility.yul\":7809:7902   */\n      tag_396\n      jump\t// in\n    tag_395:\n        /* \"#utility.yul\":7927:7929   */\n      0x20\n        /* \"#utility.yul\":7922:7925   */\n      dup3\n        /* \"#utility.yul\":7918:7930   */\n      add\n        /* \"#utility.yul\":7911:7930   */\n      swap1\n      pop\n        /* \"#utility.yul\":7570:7936   */\n      swap2\n      swap1\n      pop\n      jump\t// out\n        /* \"#utility.yul\":7942:8308   */\n    tag_397:\n        /* \"#utility.yul\":8084:8087   */\n      0x00\n        /* \"#utility.yul\":8105:8172   */\n      tag_399\n        /* \"#utility.yul\":8169:8171   */\n      0x0e\n        /* \"#utility.yul\":8164:8167   */\n      dup4\n        /* \"#utility.yul\":8105:8172   */\n      tag_351\n      jump\t// in\n    tag_399:\n        /* \"#utility.yul\":8098:8172   */\n      swap2\n      pop\n        /* \"#utility.yul\":8181:8274   */\n      tag_400\n        /* \"#utility.yul\":8270:8273   */\n      dup3\n        /* \"#utility.yul\":8181:8274   */\n      tag_401\n      jump\t// in\n    tag_400:\n        /* \"#utility.yul\":8299:8301   */\n      0x20\n        /* \"#utility.yul\":8294:8297   */\n      dup3\n        /* \"#utility.yul\":8290:8302   */\n      add\n        /* \"#utility.yul\":8283:8302   */\n      swap1\n      pop\n        /* \"#utility.yul\":7942:8308   */\n      swap2\n      swap1\n      pop\n      jump\t// out\n        /* \"#utility.yul\":8314:8680   */\n    tag_402:\n        /* \"#utility.yul\":8456:8459   */\n      0x00\n        /* \"#utility.yul\":8477:8544   */\n      tag_404\n        /* \"#utility.yul\":8541:8543   */\n      0x19\n        /* \"#utility.yul\":8536:8539   */\n      dup4\n        /* \"#utility.yul\":8477:8544   */\n      tag_351\n      jump\t// in\n    tag_404:\n        /* \"#utility.yul\":8470:8544   */\n      swap2\n      pop\n        /* \"#utility.yul\":8553:8646   */\n      tag_405\n        /* \"#utility.yul\":8642:8645   */\n      dup3\n        /* \"#utility.yul\":8553:8646   */\n      tag_406\n      jump\t// in\n    tag_405:\n        /* \"#utility.yul\":8671:8673   */\n      0x20\n        /* \"#utility.yul\":8666:8669   */\n      dup3\n        /* \"#utility.yul\":8662:8674   */\n      add\n        /* \"#utility.yul\":8655:8674   */\n      swap1\n      pop\n        /* \"#utility.yul\":8314:8680   */\n      swap2\n      swap1\n      pop\n      jump\t// out\n        /* \"#utility.yul\":8686:9052   */\n    tag_407:\n        /* \"#utility.yul\":8828:8831   */\n      0x00\n        /* \"#utility.yul\":8849:8916   */\n      tag_409\n        /* \"#utility.yul\":8913:8915   */\n      0x17\n        /* \"#utility.yul\":8908:8911   */\n      dup4\n        /* \"#utility.yul\":8849:8916   */\n      tag_351\n      jump\t// in\n    tag_409:\n        /* \"#utility.yul\":8842:8916   */\n      swap2\n      pop\n        /* \"#utility.yul\":8925:9018   */\n      tag_410\n        /* \"#utility.yul\":9014:9017   */\n      dup3\n        /* \"#utility.yul\":8925:9018   */\n      tag_411\n      jump\t// in\n    tag_410:\n        /* \"#utility.yul\":9043:9045   */\n      0x20\n        /* \"#utility.yul\":9038:9041   */\n      dup3\n        /* \"#utility.yul\":9034:9046   */\n      add\n        /* \"#utility.yul\":9027:9046   */\n      swap1\n      pop\n        /* \"#utility.yul\":8686:9052   */\n      swap2\n      swap1\n      pop\n      jump\t// out\n        /* \"#utility.yul\":9058:9424   */\n    tag_412:\n        /* \"#utility.yul\":9200:9203   */\n      0x00\n        /* \"#utility.yul\":9221:9288   */\n      tag_414\n        /* \"#utility.yul\":9285:9287   */\n      0x37\n        /* \"#utility.yul\":9280:9283   */\n      dup4\n        /* \"#utility.yul\":9221:9288   */\n      tag_351\n      jump\t// in\n    tag_414:\n        /* \"#utility.yul\":9214:9288   */\n      swap2\n      pop\n        /* \"#utility.yul\":9297:9390   */\n      tag_415\n        /* \"#utility.yul\":9386:9389   */\n      dup3\n        /* \"#utility.yul\":9297:9390   */\n      tag_416\n      jump\t// in\n    tag_415:\n        /* \"#utility.yul\":9415:9417   */\n      0x40\n        /* \"#utility.yul\":9410:9413   */\n      dup3\n        /* \"#utility.yul\":9406:9418   */\n      add\n        /* \"#utility.yul\":9399:9418   */\n      swap1\n      pop\n        /* \"#utility.yul\":9058:9424   */\n      swap2\n      swap1\n      pop\n      jump\t// out\n        /* \"#utility.yul\":9430:9548   */\n    tag_417:\n        /* \"#utility.yul\":9517:9541   */\n      tag_419\n        /* \"#utility.yul\":9535:9540   */\n      dup2\n        /* \"#utility.yul\":9517:9541   */\n      tag_420\n      jump\t// in\n    tag_419:\n        /* \"#utility.yul\":9512:9515   */\n      dup3\n        /* \"#utility.yul\":9505:9542   */\n      mstore\n        /* \"#utility.yul\":9430:9548   */\n      pop\n      pop\n      jump\t// out\n        /* \"#utility.yul\":9554:9829   */\n    tag_207:\n        /* \"#utility.yul\":9686:9689   */\n      0x00\n        /* \"#utility.yul\":9708:9803   */\n      tag_422\n        /* \"#utility.yul\":9799:9802   */\n      dup3\n        /* \"#utility.yul\":9790:9796   */\n      dup5\n        /* \"#utility.yul\":9708:9803   */\n      tag_356\n      jump\t// in\n    tag_422:\n        /* \"#utility.yul\":9701:9803   */\n      swap2\n      pop\n        /* \"#utility.yul\":9820:9823   */\n      dup2\n        /* \"#utility.yul\":9813:9823   */\n      swap1\n      pop\n        /* \"#utility.yul\":9554:9829   */\n      swap3\n      swap2\n      pop\n      pop\n      jump\t// out\n        /* \"#utility.yul\":9835:10208   */\n    tag_40:\n        /* \"#utility.yul\":9978:9982   */\n      0x00\n        /* \"#utility.yul\":10016:10018   */\n      0x20\n        /* \"#utility.yul\":10005:10014   */\n      dup3\n        /* \"#utility.yul\":10001:10019   */\n      add\n        /* \"#utility.yul\":9993:10019   */\n      swap1\n      pop\n        /* \"#utility.yul\":10065:10074   */\n      dup2\n        /* \"#utility.yul\":10059:10063   */\n      dup2\n        /* \"#utility.yul\":10055:10075   */\n      sub\n        /* \"#utility.yul\":10051:10052   */\n      0x00\n        /* \"#utility.yul\":10040:10049   */\n      dup4\n        /* \"#utility.yul\":10036:10053   */\n      add\n        /* \"#utility.yul\":10029:10076   */\n      mstore\n        /* \"#utility.yul\":10093:10201   */\n      tag_424\n        /* \"#utility.yul\":10196:10200   */\n      dup2\n        /* \"#utility.yul\":10187:10193   */\n      dup5\n        /* \"#utility.yul\":10093:10201   */\n      tag_324\n      jump\t// in\n    tag_424:\n        /* \"#utility.yul\":10085:10201   */\n      swap1\n      pop\n        /* \"#utility.yul\":9835:10208   */\n      swap3\n      swap2\n      pop\n      pop\n      jump\t// out\n        /* \"#utility.yul\":10214:10436   */\n    tag_63:\n        /* \"#utility.yul\":10307:10311   */\n      0x00\n        /* \"#utility.yul\":10345:10347   */\n      0x20\n        /* \"#utility.yul\":10334:10343   */\n      dup3\n        /* \"#utility.yul\":10330:10348   */\n      add\n        /* \"#utility.yul\":10322:10348   */\n      swap1\n      pop\n        /* \"#utility.yul\":10358:10429   */\n      tag_426\n        /* \"#utility.yul\":10426:10427   */\n      0x00\n        /* \"#utility.yul\":10415:10424   */\n      dup4\n        /* \"#utility.yul\":10411:10428   */\n      add\n        /* \"#utility.yul\":10402:10408   */\n      dup5\n        /* \"#utility.yul\":10358:10429   */\n      tag_338\n      jump\t// in\n    tag_426:\n        /* \"#utility.yul\":10214:10436   */\n      swap3\n      swap2\n      pop\n      pop\n      jump\t// out\n        /* \"#utility.yul\":10442:11431   */\n    tag_85:\n        /* \"#utility.yul\":10729:10733   */\n      0x00\n        /* \"#utility.yul\":10767:10770   */\n      0xe0\n        /* \"#utility.yul\":10756:10765   */\n      dup3\n        /* \"#utility.yul\":10752:10771   */\n      add\n        /* \"#utility.yul\":10744:10771   */\n      swap1\n      pop\n        /* \"#utility.yul\":10781:10858   */\n      tag_428\n        /* \"#utility.yul\":10855:10856   */\n      0x00\n        /* \"#utility.yul\":10844:10853   */\n      dup4\n        /* \"#utility.yul\":10840:10857   */\n      add\n        /* \"#utility.yul\":10831:10837   */\n      dup11\n        /* \"#utility.yul\":10781:10858   */\n      tag_342\n      jump\t// in\n    tag_428:\n        /* \"#utility.yul\":10905:10914   */\n      dup2\n        /* \"#utility.yul\":10899:10903   */\n      dup2\n        /* \"#utility.yul\":10895:10915   */\n      sub\n        /* \"#utility.yul\":10890:10892   */\n      0x20\n        /* \"#utility.yul\":10879:10888   */\n      dup4\n        /* \"#utility.yul\":10875:10893   */\n      add\n        /* \"#utility.yul\":10868:10916   */\n      mstore\n        /* \"#utility.yul\":10933:11011   */\n      tag_429\n        /* \"#utility.yul\":11006:11010   */\n      dup2\n        /* \"#utility.yul\":10997:11003   */\n      dup10\n        /* \"#utility.yul\":10933:11011   */\n      tag_346\n      jump\t// in\n    tag_429:\n        /* \"#utility.yul\":10925:11011   */\n      swap1\n      pop\n        /* \"#utility.yul\":11021:11093   */\n      tag_430\n        /* \"#utility.yul\":11089:11091   */\n      0x40\n        /* \"#utility.yul\":11078:11087   */\n      dup4\n        /* \"#utility.yul\":11074:11092   */\n      add\n        /* \"#utility.yul\":11065:11071   */\n      dup9\n        /* \"#utility.yul\":11021:11093   */\n      tag_338\n      jump\t// in\n    tag_430:\n        /* \"#utility.yul\":11103:11175   */\n      tag_431\n        /* \"#utility.yul\":11171:11173   */\n      0x60\n        /* \"#utility.yul\":11160:11169   */\n      dup4\n        /* \"#utility.yul\":11156:11174   */\n      add\n        /* \"#utility.yul\":11147:11153   */\n      dup8\n        /* \"#utility.yul\":11103:11175   */\n      tag_417\n      jump\t// in\n    tag_431:\n        /* \"#utility.yul\":11185:11258   */\n      tag_432\n        /* \"#utility.yul\":11253:11256   */\n      0x80\n        /* \"#utility.yul\":11242:11251   */\n      dup4\n        /* \"#utility.yul\":11238:11257   */\n      add\n        /* \"#utility.yul\":11229:11235   */\n      dup7\n        /* \"#utility.yul\":11185:11258   */\n      tag_417\n      jump\t// in\n    tag_432:\n        /* \"#utility.yul\":11268:11341   */\n      tag_433\n        /* \"#utility.yul\":11336:11339   */\n      0xa0\n        /* \"#utility.yul\":11325:11334   */\n      dup4\n        /* \"#utility.yul\":11321:11340   */\n      add\n        /* \"#utility.yul\":11312:11318   */\n      dup6\n        /* \"#utility.yul\":11268:11341   */\n      tag_417\n      jump\t// in\n    tag_433:\n        /* \"#utility.yul\":11351:11424   */\n      tag_434\n        /* \"#utility.yul\":11419:11422   */\n      0xc0\n        /* \"#utility.yul\":11408:11417   */\n      dup4\n        /* \"#utility.yul\":11404:11423   */\n      add\n        /* \"#utility.yul\":11395:11401   */\n      dup5\n        /* \"#utility.yul\":11351:11424   */\n      tag_417\n      jump\t// in\n    tag_434:\n        /* \"#utility.yul\":10442:11431   */\n      swap9\n      swap8\n      pop\n      pop\n      pop\n      pop\n      pop\n      pop\n      pop\n      pop\n      jump\t// out\n        /* \"#utility.yul\":11437:11856   */\n    tag_110:\n        /* \"#utility.yul\":11603:11607   */\n      0x00\n        /* \"#utility.yul\":11641:11643   */\n      0x20\n        /* \"#utility.yul\":11630:11639   */\n      dup3\n        /* \"#utility.yul\":11626:11644   */\n      add\n        /* \"#utility.yul\":11618:11644   */\n      swap1\n      pop\n        /* \"#utility.yul\":11690:11699   */\n      dup2\n        /* \"#utility.yul\":11684:11688   */\n      dup2\n        /* \"#utility.yul\":11680:11700   */\n      sub\n        /* \"#utility.yul\":11676:11677   */\n      0x00\n        /* \"#utility.yul\":11665:11674   */\n      dup4\n        /* \"#utility.yul\":11661:11678   */\n      add\n        /* \"#utility.yul\":11654:11701   */\n      mstore\n        /* \"#utility.yul\":11718:11849   */\n      tag_436\n        /* \"#utility.yul\":11844:11848   */\n      dup2\n        /* \"#utility.yul\":11718:11849   */\n      tag_362\n      jump\t// in\n    tag_436:\n        /* \"#utility.yul\":11710:11849   */\n      swap1\n      pop\n        /* \"#utility.yul\":11437:11856   */\n      swap2\n      swap1\n      pop\n      jump\t// out\n        /* \"#utility.yul\":11862:12281   */\n    tag_99:\n        /* \"#utility.yul\":12028:12032   */\n      0x00\n        /* \"#utility.yul\":12066:12068   */\n      0x20\n        /* \"#utility.yul\":12055:12064   */\n      dup3\n        /* \"#utility.yul\":12051:12069   */\n      add\n        /* \"#utility.yul\":12043:12069   */\n      swap1\n      pop\n        /* \"#utility.yul\":12115:12124   */\n      dup2\n        /* \"#utility.yul\":12109:12113   */\n      dup2\n        /* \"#utility.yul\":12105:12125   */\n      sub\n        /* \"#utility.yul\":12101:12102   */\n      0x00\n        /* \"#utility.yul\":12090:12099   */\n      dup4\n        /* \"#utility.yul\":12086:12103   */\n      add\n        /* \"#utility.yul\":12079:12126   */\n      mstore\n        /* \"#utility.yul\":12143:12274   */\n      tag_438\n        /* \"#utility.yul\":12269:12273   */\n      dup2\n        /* \"#utility.yul\":12143:12274   */\n      tag_367\n      jump\t// in\n    tag_438:\n        /* \"#utility.yul\":12135:12274   */\n      swap1\n      pop\n        /* \"#utility.yul\":11862:12281   */\n      swap2\n      swap1\n      pop\n      jump\t// out\n        /* \"#utility.yul\":12287:12706   */\n    tag_164:\n        /* \"#utility.yul\":12453:12457   */\n      0x00\n        /* \"#utility.yul\":12491:12493   */\n      0x20\n        /* \"#utility.yul\":12480:12489   */\n      dup3\n        /* \"#utility.yul\":12476:12494   */\n      add\n        /* \"#utility.yul\":12468:12494   */\n      swap1\n      pop\n        /* \"#utility.yul\":12540:12549   */\n      dup2\n        /* \"#utility.yul\":12534:12538   */\n      dup2\n        /* \"#utility.yul\":12530:12550   */\n      sub\n        /* \"#utility.yul\":12526:12527   */\n      0x00\n        /* \"#utility.yul\":12515:12524   */\n      dup4\n        /* \"#utility.yul\":12511:12528   */\n      add\n        /* \"#utility.yul\":12504:12551   */\n      mstore\n        /* \"#utility.yul\":12568:12699   */\n      tag_440\n        /* \"#utility.yul\":12694:12698   */\n      dup2\n        /* \"#utility.yul\":12568:12699   */\n      tag_372\n      jump\t// in\n    tag_440:\n        /* \"#utility.yul\":12560:12699   */\n      swap1\n      pop\n        /* \"#utility.yul\":12287:12706   */\n      swap2\n      swap1\n      pop\n      jump\t// out\n        /* \"#utility.yul\":12712:13131   */\n    tag_169:\n        /* \"#utility.yul\":12878:12882   */\n      0x00\n        /* \"#utility.yul\":12916:12918   */\n      0x20\n        /* \"#utility.yul\":12905:12914   */\n      dup3\n        /* \"#utility.yul\":12901:12919   */\n      add\n        /* \"#utility.yul\":12893:12919   */\n      swap1\n      pop\n        /* \"#utility.yul\":12965:12974   */\n      dup2\n        /* \"#utility.yul\":12959:12963   */\n      dup2\n        /* \"#utility.yul\":12955:12975   */\n      sub\n        /* \"#utility.yul\":12951:12952   */\n      0x00\n        /* \"#utility.yul\":12940:12949   */\n      dup4\n        /* \"#utility.yul\":12936:12953   */\n      add\n        /* \"#utility.yul\":12929:12976   */\n      mstore\n        /* \"#utility.yul\":12993:13124   */\n      tag_442\n        /* \"#utility.yul\":13119:13123   */\n      dup2\n        /* \"#utility.yul\":12993:13124   */\n      tag_377\n      jump\t// in\n    tag_442:\n        /* \"#utility.yul\":12985:13124   */\n      swap1\n      pop\n        /* \"#utility.yul\":12712:13131   */\n      swap2\n      swap1\n      pop\n      jump\t// out\n        /* \"#utility.yul\":13137:13556   */\n    tag_246:\n        /* \"#utility.yul\":13303:13307   */\n      0x00\n        /* \"#utility.yul\":13341:13343   */\n      0x20\n        /* \"#utility.yul\":13330:13339   */\n      dup3\n        /* \"#utility.yul\":13326:13344   */\n      add\n        /* \"#utility.yul\":13318:13344   */\n      swap1\n      pop\n        /* \"#utility.yul\":13390:13399   */\n      dup2\n        /* \"#utility.yul\":13384:13388   */\n      dup2\n        /* \"#utility.yul\":13380:13400   */\n      sub\n        /* \"#utility.yul\":13376:13377   */\n      0x00\n        /* \"#utility.yul\":13365:13374   */\n      dup4\n        /* \"#utility.yul\":13361:13378   */\n      add\n        /* \"#utility.yul\":13354:13401   */\n      mstore\n        /* \"#utility.yul\":13418:13549   */\n      tag_444\n        /* \"#utility.yul\":13544:13548   */\n      dup2\n        /* \"#utility.yul\":13418:13549   */\n      tag_382\n      jump\t// in\n    tag_444:\n        /* \"#utility.yul\":13410:13549   */\n      swap1\n      pop\n        /* \"#utility.yul\":13137:13556   */\n      swap2\n      swap1\n      pop\n      jump\t// out\n        /* \"#utility.yul\":13562:13981   */\n    tag_145:\n        /* \"#utility.yul\":13728:13732   */\n      0x00\n        /* \"#utility.yul\":13766:13768   */\n      0x20\n        /* \"#utility.yul\":13755:13764   */\n      dup3\n        /* \"#utility.yul\":13751:13769   */\n      add\n        /* \"#utility.yul\":13743:13769   */\n      swap1\n      pop\n        /* \"#utility.yul\":13815:13824   */\n      dup2\n        /* \"#utility.yul\":13809:13813   */\n      dup2\n        /* \"#utility.yul\":13805:13825   */\n      sub\n        /* \"#utility.yul\":13801:13802   */\n      0x00\n        /* \"#utility.yul\":13790:13799   */\n      dup4\n        /* \"#utility.yul\":13786:13803   */\n      add\n        /* \"#utility.yul\":13779:13826   */\n      mstore\n        /* \"#utility.yul\":13843:13974   */\n      tag_446\n        /* \"#utility.yul\":13969:13973   */\n      dup2\n        /* \"#utility.yul\":13843:13974   */\n      tag_387\n      jump\t// in\n    tag_446:\n        /* \"#utility.yul\":13835:13974   */\n      swap1\n      pop\n        /* \"#utility.yul\":13562:13981   */\n      swap2\n      swap1\n      pop\n      jump\t// out\n        /* \"#utility.yul\":13987:14406   */\n    tag_185:\n        /* \"#utility.yul\":14153:14157   */\n      0x00\n        /* \"#utility.yul\":14191:14193   */\n      0x20\n        /* \"#utility.yul\":14180:14189   */\n      dup3\n        /* \"#utility.yul\":14176:14194   */\n      add\n        /* \"#utility.yul\":14168:14194   */\n      swap1\n      pop\n        /* \"#utility.yul\":14240:14249   */\n      dup2\n        /* \"#utility.yul\":14234:14238   */\n      dup2\n        /* \"#utility.yul\":14230:14250   */\n      sub\n        /* \"#utility.yul\":14226:14227   */\n      0x00\n        /* \"#utility.yul\":14215:14224   */\n      dup4\n        /* \"#utility.yul\":14211:14228   */\n      add\n        /* \"#utility.yul\":14204:14251   */\n      mstore\n        /* \"#utility.yul\":14268:14399   */\n      tag_448\n        /* \"#utility.yul\":14394:14398   */\n      dup2\n        /* \"#utility.yul\":14268:14399   */\n      tag_392\n      jump\t// in\n    tag_448:\n        /* \"#utility.yul\":14260:14399   */\n      swap1\n      pop\n        /* \"#utility.yul\":13987:14406   */\n      swap2\n      swap1\n      pop\n      jump\t// out\n        /* \"#utility.yul\":14412:14831   */\n    tag_193:\n        /* \"#utility.yul\":14578:14582   */\n      0x00\n        /* \"#utility.yul\":14616:14618   */\n      0x20\n        /* \"#utility.yul\":14605:14614   */\n      dup3\n        /* \"#utility.yul\":14601:14619   */\n      add\n        /* \"#utility.yul\":14593:14619   */\n      swap1\n      pop\n        /* \"#utility.yul\":14665:14674   */\n      dup2\n        /* \"#utility.yul\":14659:14663   */\n      dup2\n        /* \"#utility.yul\":14655:14675   */\n      sub\n        /* \"#utility.yul\":14651:14652   */\n      0x00\n        /* \"#utility.yul\":14640:14649   */\n      dup4\n        /* \"#utility.yul\":14636:14653   */\n      add\n        /* \"#utility.yul\":14629:14676   */\n      mstore\n        /* \"#utility.yul\":14693:14824   */\n      tag_450\n        /* \"#utility.yul\":14819:14823   */\n      dup2\n        /* \"#utility.yul\":14693:14824   */\n      tag_397\n      jump\t// in\n    tag_450:\n        /* \"#utility.yul\":14685:14824   */\n      swap1\n      pop\n        /* \"#utility.yul\":14412:14831   */\n      swap2\n      swap1\n      pop\n      jump\t// out\n        /* \"#utility.yul\":14837:15256   */\n    tag_94:\n        /* \"#utility.yul\":15003:15007   */\n      0x00\n        /* \"#utility.yul\":15041:15043   */\n      0x20\n        /* \"#utility.yul\":15030:15039   */\n      dup3\n        /* \"#utility.yul\":15026:15044   */\n      add\n        /* \"#utility.yul\":15018:15044   */\n      swap1\n      pop\n        /* \"#utility.yul\":15090:15099   */\n      dup2\n        /* \"#utility.yul\":15084:15088   */\n      dup2\n        /* \"#utility.yul\":15080:15100   */\n      sub\n        /* \"#utility.yul\":15076:15077   */\n      0x00\n        /* \"#utility.yul\":15065:15074   */\n      dup4\n        /* \"#utility.yul\":15061:15078   */\n      add\n        /* \"#utility.yul\":15054:15101   */\n      mstore\n        /* \"#utility.yul\":15118:15249   */\n      tag_452\n        /* \"#utility.yul\":15244:15248   */\n      dup2\n        /* \"#utility.yul\":15118:15249   */\n      tag_402\n      jump\t// in\n    tag_452:\n        /* \"#utility.yul\":15110:15249   */\n      swap1\n      pop\n        /* \"#utility.yul\":14837:15256   */\n      swap2\n      swap1\n      pop\n      jump\t// out\n        /* \"#utility.yul\":15262:15681   */\n    tag_150:\n        /* \"#utility.yul\":15428:15432   */\n      0x00\n        /* \"#utility.yul\":15466:15468   */\n      0x20\n        /* \"#utility.yul\":15455:15464   */\n      dup3\n        /* \"#utility.yul\":15451:15469   */\n      add\n        /* \"#utility.yul\":15443:15469   */\n      swap1\n      pop\n        /* \"#utility.yul\":15515:15524   */\n      dup2\n        /* \"#utility.yul\":15509:15513   */\n      dup2\n        /* \"#utility.yul\":15505:15525   */\n      sub\n        /* \"#utility.yul\":15501:15502   */\n      0x00\n        /* \"#utility.yul\":15490:15499   */\n      dup4\n        /* \"#utility.yul\":15486:15503   */\n      add\n        /* \"#utility.yul\":15479:15526   */\n      mstore\n        /* \"#utility.yul\":15543:15674   */\n      tag_454\n        /* \"#utility.yul\":15669:15673   */\n      dup2\n        /* \"#utility.yul\":15543:15674   */\n      tag_407\n      jump\t// in\n    tag_454:\n        /* \"#utility.yul\":15535:15674   */\n      swap1\n      pop\n        /* \"#utility.yul\":15262:15681   */\n      swap2\n      swap1\n      pop\n      jump\t// out\n        /* \"#utility.yul\":15687:16106   */\n    tag_153:\n        /* \"#utility.yul\":15853:15857   */\n      0x00\n        /* \"#utility.yul\":15891:15893   */\n      0x20\n        /* \"#utility.yul\":15880:15889   */\n      dup3\n        /* \"#utility.yul\":15876:15894   */\n      add\n        /* \"#utility.yul\":15868:15894   */\n      swap1\n      pop\n        /* \"#utility.yul\":15940:15949   */\n      dup2\n        /* \"#utility.yul\":15934:15938   */\n      dup2\n        /* \"#utility.yul\":15930:15950   */\n      sub\n        /* \"#utility.yul\":15926:15927   */\n      0x00\n        /* \"#utility.yul\":15915:15924   */\n      dup4\n        /* \"#utility.yul\":15911:15928   */\n      add\n        /* \"#utility.yul\":15904:15951   */\n      mstore\n        /* \"#utility.yul\":15968:16099   */\n      tag_456\n        /* \"#utility.yul\":16094:16098   */\n      dup2\n        /* \"#utility.yul\":15968:16099   */\n      tag_412\n      jump\t// in\n    tag_456:\n        /* \"#utility.yul\":15960:16099   */\n      swap1\n      pop\n        /* \"#utility.yul\":15687:16106   */\n      swap2\n      swap1\n      pop\n      jump\t// out\n        /* \"#utility.yul\":16112:16334   */\n    tag_28:\n        /* \"#utility.yul\":16205:16209   */\n      0x00\n        /* \"#utility.yul\":16243:16245   */\n      0x20\n        /* \"#utility.yul\":16232:16241   */\n      dup3\n        /* \"#utility.yul\":16228:16246   */\n      add\n        /* \"#utility.yul\":16220:16246   */\n      swap1\n      pop\n        /* \"#utility.yul\":16256:16327   */\n      tag_458\n        /* \"#utility.yul\":16324:16325   */\n      0x00\n        /* \"#utility.yul\":16313:16322   */\n      dup4\n        /* \"#utility.yul\":16309:16326   */\n      add\n        /* \"#utility.yul\":16300:16306   */\n      dup5\n        /* \"#utility.yul\":16256:16327   */\n      tag_417\n      jump\t// in\n    tag_458:\n        /* \"#utility.yul\":16112:16334   */\n      swap3\n      swap2\n      pop\n      pop\n      jump\t// out\n        /* \"#utility.yul\":16340:16469   */\n    tag_271:\n        /* \"#utility.yul\":16374:16380   */\n      0x00\n        /* \"#utility.yul\":16401:16421   */\n      tag_460\n      tag_461\n      jump\t// in\n    tag_460:\n        /* \"#utility.yul\":16391:16421   */\n      swap1\n      pop\n        /* \"#utility.yul\":16430:16463   */\n      tag_462\n        /* \"#utility.yul\":16458:16462   */\n      dup3\n        /* \"#utility.yul\":16450:16456   */\n      dup3\n        /* \"#utility.yul\":16430:16463   */\n      tag_463\n      jump\t// in\n    tag_462:\n        /* \"#utility.yul\":16340:16469   */\n      swap2\n      swap1\n      pop\n      jump\t// out\n        /* \"#utility.yul\":16475:16550   */\n    tag_461:\n        /* \"#utility.yul\":16508:16514   */\n      0x00\n        /* \"#utility.yul\":16541:16543   */\n      0x40\n        /* \"#utility.yul\":16535:16544   */\n      mload\n        /* \"#utility.yul\":16525:16544   */\n      swap1\n      pop\n        /* \"#utility.yul\":16475:16550   */\n      swap1\n      jump\t// out\n        /* \"#utility.yul\":16556:16864   */\n    tag_270:\n        /* \"#utility.yul\":16618:16622   */\n      0x00\n        /* \"#utility.yul\":16708:16726   */\n      0xffffffffffffffff\n        /* \"#utility.yul\":16700:16706   */\n      dup3\n        /* \"#utility.yul\":16697:16727   */\n      gt\n        /* \"#utility.yul\":16694:16750   */\n      iszero\n      tag_466\n      jumpi\n        /* \"#utility.yul\":16730:16748   */\n      tag_467\n      tag_468\n      jump\t// in\n    tag_467:\n        /* \"#utility.yul\":16694:16750   */\n    tag_466:\n        /* \"#utility.yul\":16768:16797   */\n      tag_469\n        /* \"#utility.yul\":16790:16796   */\n      dup3\n        /* \"#utility.yul\":16768:16797   */\n      tag_355\n      jump\t// in\n    tag_469:\n        /* \"#utility.yul\":16760:16797   */\n      swap1\n      pop\n        /* \"#utility.yul\":16852:16856   */\n      0x20\n        /* \"#utility.yul\":16846:16850   */\n      dup2\n        /* \"#utility.yul\":16842:16857   */\n      add\n        /* \"#utility.yul\":16834:16857   */\n      swap1\n      pop\n        /* \"#utility.yul\":16556:16864   */\n      swap2\n      swap1\n      pop\n      jump\t// out\n        /* \"#utility.yul\":16870:17002   */\n    tag_331:\n        /* \"#utility.yul\":16937:16941   */\n      0x00\n        /* \"#utility.yul\":16960:16963   */\n      dup2\n        /* \"#utility.yul\":16952:16963   */\n      swap1\n      pop\n        /* \"#utility.yul\":16990:16994   */\n      0x20\n        /* \"#utility.yul\":16985:16988   */\n      dup3\n        /* \"#utility.yul\":16981:16995   */\n      add\n        /* \"#utility.yul\":16973:16995   */\n      swap1\n      pop\n        /* \"#utility.yul\":16870:17002   */\n      swap2\n      swap1\n      pop\n      jump\t// out\n        /* \"#utility.yul\":17008:17122   */\n    tag_327:\n        /* \"#utility.yul\":17075:17081   */\n      0x00\n        /* \"#utility.yul\":17109:17114   */\n      dup2\n        /* \"#utility.yul\":17103:17115   */\n      mload\n        /* \"#utility.yul\":17093:17115   */\n      swap1\n      pop\n        /* \"#utility.yul\":17008:17122   */\n      swap2\n      swap1\n      pop\n      jump\t// out\n        /* \"#utility.yul\":17128:17227   */\n    tag_349:\n        /* \"#utility.yul\":17180:17186   */\n      0x00\n        /* \"#utility.yul\":17214:17219   */\n      dup2\n        /* \"#utility.yul\":17208:17220   */\n      mload\n        /* \"#utility.yul\":17198:17220   */\n      swap1\n      pop\n        /* \"#utility.yul\":17128:17227   */\n      swap2\n      swap1\n      pop\n      jump\t// out\n        /* \"#utility.yul\":17233:17346   */\n    tag_337:\n        /* \"#utility.yul\":17303:17307   */\n      0x00\n        /* \"#utility.yul\":17335:17339   */\n      0x20\n        /* \"#utility.yul\":17330:17333   */\n      dup3\n        /* \"#utility.yul\":17326:17340   */\n      add\n        /* \"#utility.yul\":17318:17340   */\n      swap1\n      pop\n        /* \"#utility.yul\":17233:17346   */\n      swap2\n      swap1\n      pop\n      jump\t// out\n        /* \"#utility.yul\":17352:17536   */\n    tag_329:\n        /* \"#utility.yul\":17451:17462   */\n      0x00\n        /* \"#utility.yul\":17485:17491   */\n      dup3\n        /* \"#utility.yul\":17480:17483   */\n      dup3\n        /* \"#utility.yul\":17473:17492   */\n      mstore\n        /* \"#utility.yul\":17525:17529   */\n      0x20\n        /* \"#utility.yul\":17520:17523   */\n      dup3\n        /* \"#utility.yul\":17516:17530   */\n      add\n        /* \"#utility.yul\":17501:17530   */\n      swap1\n      pop\n        /* \"#utility.yul\":17352:17536   */\n      swap3\n      swap2\n      pop\n      pop\n      jump\t// out\n        /* \"#utility.yul\":17542:17711   */\n    tag_351:\n        /* \"#utility.yul\":17626:17637   */\n      0x00\n        /* \"#utility.yul\":17660:17666   */\n      dup3\n        /* \"#utility.yul\":17655:17658   */\n      dup3\n        /* \"#utility.yul\":17648:17667   */\n      mstore\n        /* \"#utility.yul\":17700:17704   */\n      0x20\n        /* \"#utility.yul\":17695:17698   */\n      dup3\n        /* \"#utility.yul\":17691:17705   */\n      add\n        /* \"#utility.yul\":17676:17705   */\n      swap1\n      pop\n        /* \"#utility.yul\":17542:17711   */\n      swap3\n      swap2\n      pop\n      pop\n      jump\t// out\n        /* \"#utility.yul\":17717:17865   */\n    tag_360:\n        /* \"#utility.yul\":17819:17830   */\n      0x00\n        /* \"#utility.yul\":17856:17859   */\n      dup2\n        /* \"#utility.yul\":17841:17859   */\n      swap1\n      pop\n        /* \"#utility.yul\":17717:17865   */\n      swap3\n      swap2\n      pop\n      pop\n      jump\t// out\n        /* \"#utility.yul\":17871:17967   */\n    tag_323:\n        /* \"#utility.yul\":17908:17915   */\n      0x00\n        /* \"#utility.yul\":17937:17961   */\n      tag_478\n        /* \"#utility.yul\":17955:17960   */\n      dup3\n        /* \"#utility.yul\":17937:17961   */\n      tag_479\n      jump\t// in\n    tag_478:\n        /* \"#utility.yul\":17926:17961   */\n      swap1\n      pop\n        /* \"#utility.yul\":17871:17967   */\n      swap2\n      swap1\n      pop\n      jump\t// out\n        /* \"#utility.yul\":17973:18050   */\n    tag_341:\n        /* \"#utility.yul\":18010:18017   */\n      0x00\n        /* \"#utility.yul\":18039:18044   */\n      dup2\n        /* \"#utility.yul\":18028:18044   */\n      swap1\n      pop\n        /* \"#utility.yul\":17973:18050   */\n      swap2\n      swap1\n      pop\n      jump\t// out\n        /* \"#utility.yul\":18056:18183   */\n    tag_481:\n        /* \"#utility.yul\":18101:18108   */\n      0x00\n        /* \"#utility.yul\":18130:18135   */\n      dup2\n        /* \"#utility.yul\":18119:18135   */\n      swap1\n      pop\n        /* \"#utility.yul\":18136:18177   */\n      tag_483\n        /* \"#utility.yul\":18171:18176   */\n      dup3\n        /* \"#utility.yul\":18136:18177   */\n      tag_484\n      jump\t// in\n    tag_483:\n        /* \"#utility.yul\":18056:18183   */\n      swap2\n      swap1\n      pop\n      jump\t// out\n        /* \"#utility.yul\":18189:18315   */\n    tag_479:\n        /* \"#utility.yul\":18226:18233   */\n      0x00\n        /* \"#utility.yul\":18266:18308   */\n      0xffffffffffffffffffffffffffffffffffffffff\n        /* \"#utility.yul\":18259:18264   */\n      dup3\n        /* \"#utility.yul\":18255:18309   */\n      and\n        /* \"#utility.yul\":18244:18309   */\n      swap1\n      pop\n        /* \"#utility.yul\":18189:18315   */\n      swap2\n      swap1\n      pop\n      jump\t// out\n        /* \"#utility.yul\":18321:18398   */\n    tag_420:\n        /* \"#utility.yul\":18358:18365   */\n      0x00\n        /* \"#utility.yul\":18387:18392   */\n      dup2\n        /* \"#utility.yul\":18376:18392   */\n      swap1\n      pop\n        /* \"#utility.yul\":18321:18398   */\n      swap2\n      swap1\n      pop\n      jump\t// out\n        /* \"#utility.yul\":18404:18531   */\n    tag_345:\n        /* \"#utility.yul\":18460:18469   */\n      0x00\n        /* \"#utility.yul\":18493:18525   */\n      tag_488\n        /* \"#utility.yul\":18519:18524   */\n      dup3\n        /* \"#utility.yul\":18493:18525   */\n      tag_481\n      jump\t// in\n    tag_488:\n        /* \"#utility.yul\":18480:18525   */\n      swap1\n      pop\n        /* \"#utility.yul\":18404:18531   */\n      swap2\n      swap1\n      pop\n      jump\t// out\n        /* \"#utility.yul\":18537:18691   */\n    tag_276:\n        /* \"#utility.yul\":18621:18627   */\n      dup3\n        /* \"#utility.yul\":18616:18619   */\n      dup2\n        /* \"#utility.yul\":18611:18614   */\n      dup4\n        /* \"#utility.yul\":18598:18628   */\n      calldatacopy\n        /* \"#utility.yul\":18683:18684   */\n      0x00\n        /* \"#utility.yul\":18674:18680   */\n      dup4\n        /* \"#utility.yul\":18669:18672   */\n      dup4\n        /* \"#utility.yul\":18665:18681   */\n      add\n        /* \"#utility.yul\":18658:18685   */\n      mstore\n        /* \"#utility.yul\":18537:18691   */\n      pop\n      pop\n      pop\n      jump\t// out\n        /* \"#utility.yul\":18697:19004   */\n    tag_353:\n        /* \"#utility.yul\":18765:18766   */\n      0x00\n        /* \"#utility.yul\":18775:18888   */\n    tag_491:\n        /* \"#utility.yul\":18789:18795   */\n      dup4\n        /* \"#utility.yul\":18786:18787   */\n      dup2\n        /* \"#utility.yul\":18783:18796   */\n      lt\n        /* \"#utility.yul\":18775:18888   */\n      iszero\n      tag_493\n      jumpi\n        /* \"#utility.yul\":18874:18875   */\n      dup1\n        /* \"#utility.yul\":18869:18872   */\n      dup3\n        /* \"#utility.yul\":18865:18876   */\n      add\n        /* \"#utility.yul\":18859:18877   */\n      mload\n        /* \"#utility.yul\":18855:18856   */\n      dup2\n        /* \"#utility.yul\":18850:18853   */\n      dup5\n        /* \"#utility.yul\":18846:18857   */\n      add\n        /* \"#utility.yul\":18839:18878   */\n      mstore\n        /* \"#utility.yul\":18811:18813   */\n      0x20\n        /* \"#utility.yul\":18808:18809   */\n      dup2\n        /* \"#utility.yul\":18804:18814   */\n      add\n        /* \"#utility.yul\":18799:18814   */\n      swap1\n      pop\n        /* \"#utility.yul\":18775:18888   */\n      jump(tag_491)\n    tag_493:\n        /* \"#utility.yul\":18906:18912   */\n      dup4\n        /* \"#utility.yul\":18903:18904   */\n      dup2\n        /* \"#utility.yul\":18900:18913   */\n      gt\n        /* \"#utility.yul\":18897:18998   */\n      iszero\n      tag_494\n      jumpi\n        /* \"#utility.yul\":18986:18987   */\n      0x00\n        /* \"#utility.yul\":18977:18983   */\n      dup5\n        /* \"#utility.yul\":18972:18975   */\n      dup5\n        /* \"#utility.yul\":18968:18984   */\n      add\n        /* \"#utility.yul\":18961:18988   */\n      mstore\n        /* \"#utility.yul\":18897:18998   */\n    tag_494:\n        /* \"#utility.yul\":18746:19004   */\n      pop\n        /* \"#utility.yul\":18697:19004   */\n      pop\n      pop\n      pop\n      jump\t// out\n        /* \"#utility.yul\":19010:19330   */\n    tag_224:\n        /* \"#utility.yul\":19054:19060   */\n      0x00\n        /* \"#utility.yul\":19091:19092   */\n      0x02\n        /* \"#utility.yul\":19085:19089   */\n      dup3\n        /* \"#utility.yul\":19081:19093   */\n      div\n        /* \"#utility.yul\":19071:19093   */\n      swap1\n      pop\n        /* \"#utility.yul\":19138:19139   */\n      0x01\n        /* \"#utility.yul\":19132:19136   */\n      dup3\n        /* \"#utility.yul\":19128:19140   */\n      and\n        /* \"#utility.yul\":19159:19177   */\n      dup1\n        /* \"#utility.yul\":19149:19230   */\n      tag_496\n      jumpi\n        /* \"#utility.yul\":19215:19219   */\n      0x7f\n        /* \"#utility.yul\":19207:19213   */\n      dup3\n        /* \"#utility.yul\":19203:19220   */\n      and\n        /* \"#utility.yul\":19193:19220   */\n      swap2\n      pop\n        /* \"#utility.yul\":19149:19230   */\n    tag_496:\n        /* \"#utility.yul\":19277:19279   */\n      0x20\n        /* \"#utility.yul\":19269:19275   */\n      dup3\n        /* \"#utility.yul\":19266:19280   */\n      lt\n        /* \"#utility.yul\":19246:19264   */\n      dup2\n        /* \"#utility.yul\":19243:19281   */\n      eq\n        /* \"#utility.yul\":19240:19324   */\n      iszero\n      tag_497\n      jumpi\n        /* \"#utility.yul\":19296:19314   */\n      tag_498\n      tag_499\n      jump\t// in\n    tag_498:\n        /* \"#utility.yul\":19240:19324   */\n    tag_497:\n        /* \"#utility.yul\":19061:19330   */\n      pop\n        /* \"#utility.yul\":19010:19330   */\n      swap2\n      swap1\n      pop\n      jump\t// out\n        /* \"#utility.yul\":19336:19617   */\n    tag_463:\n        /* \"#utility.yul\":19419:19446   */\n      tag_501\n        /* \"#utility.yul\":19441:19445   */\n      dup3\n        /* \"#utility.yul\":19419:19446   */\n      tag_355\n      jump\t// in\n    tag_501:\n        /* \"#utility.yul\":19411:19417   */\n      dup2\n        /* \"#utility.yul\":19407:19447   */\n      add\n        /* \"#utility.yul\":19549:19555   */\n      dup2\n        /* \"#utility.yul\":19537:19547   */\n      dup2\n        /* \"#utility.yul\":19534:19556   */\n      lt\n        /* \"#utility.yul\":19513:19531   */\n      0xffffffffffffffff\n        /* \"#utility.yul\":19501:19511   */\n      dup3\n        /* \"#utility.yul\":19498:19532   */\n      gt\n        /* \"#utility.yul\":19495:19557   */\n      or\n        /* \"#utility.yul\":19492:19580   */\n      iszero\n      tag_502\n      jumpi\n        /* \"#utility.yul\":19560:19578   */\n      tag_503\n      tag_468\n      jump\t// in\n    tag_503:\n        /* \"#utility.yul\":19492:19580   */\n    tag_502:\n        /* \"#utility.yul\":19600:19610   */\n      dup1\n        /* \"#utility.yul\":19596:19598   */\n      0x40\n        /* \"#utility.yul\":19589:19611   */\n      mstore\n        /* \"#utility.yul\":19379:19617   */\n      pop\n        /* \"#utility.yul\":19336:19617   */\n      pop\n      pop\n      jump\t// out\n        /* \"#utility.yul\":19623:19856   */\n    tag_166:\n        /* \"#utility.yul\":19662:19665   */\n      0x00\n        /* \"#utility.yul\":19685:19709   */\n      tag_505\n        /* \"#utility.yul\":19703:19708   */\n      dup3\n        /* \"#utility.yul\":19685:19709   */\n      tag_420\n      jump\t// in\n    tag_505:\n        /* \"#utility.yul\":19676:19709   */\n      swap2\n      pop\n        /* \"#utility.yul\":19731:19797   */\n      0xffffffffffffffffffffffffffffffffffffffffffffffffffffffffffffffff\n        /* \"#utility.yul\":19724:19729   */\n      dup3\n        /* \"#utility.yul\":19721:19798   */\n      eq\n        /* \"#utility.yul\":19718:19821   */\n      iszero\n      tag_506\n      jumpi\n        /* \"#utility.yul\":19801:19819   */\n      tag_507\n      tag_508\n      jump\t// in\n    tag_507:\n        /* \"#utility.yul\":19718:19821   */\n    tag_506:\n        /* \"#utility.yul\":19848:19849   */\n      0x01\n        /* \"#utility.yul\":19841:19846   */\n      dup3\n        /* \"#utility.yul\":19837:19850   */\n      add\n        /* \"#utility.yul\":19830:19850   */\n      swap1\n      pop\n        /* \"#utility.yul\":19623:19856   */\n      swap2\n      swap1\n      pop\n      jump\t// out\n        /* \"#utility.yul\":19862:20042   */\n    tag_508:\n        /* \"#utility.yul\":19910:19987   */\n      0x4e487b7100000000000000000000000000000000000000000000000000000000\n        /* \"#utility.yul\":19907:19908   */\n      0x00\n        /* \"#utility.yul\":19900:19988   */\n      mstore\n        /* \"#utility.yul\":20007:20011   */\n      0x11\n        /* \"#utility.yul\":20004:20005   */\n      0x04\n        /* \"#utility.yul\":19997:20012   */\n      mstore\n        /* \"#utility.yul\":20031:20035   */\n      0x24\n        /* \"#utility.yul\":20028:20029   */\n      0x00\n        /* \"#utility.yul\":20021:20036   */\n      revert\n        /* \"#utility.yul\":20048:20228   */\n    tag_89:\n        /* \"#utility.yul\":20096:20173   */\n      0x4e487b7100000000000000000000000000000000000000000000000000000000\n        /* \"#utility.yul\":20093:20094   */\n      0x00\n        /* \"#utility.yul\":20086:20174   */\n      mstore\n        /* \"#utility.yul\":20193:20197   */\n      0x21\n        /* \"#utility.yul\":20190:20191   */\n      0x04\n        /* \"#utility.yul\":20183:20198   */\n      mstore\n        /* \"#utility.yul\":20217:20221   */\n      0x24\n        /* \"#utility.yul\":20214:20215   */\n      0x00\n        /* \"#utility.yul\":20207:20222   */\n      revert\n        /* \"#utility.yul\":20234:20414   */\n    tag_499:\n        /* \"#utility.yul\":20282:20359   */\n      0x4e487b7100000000000000000000000000000000000000000000000000000000\n        /* \"#utility.yul\":20279:20280   */\n      0x00\n        /* \"#utility.yul\":20272:20360   */\n      mstore\n        /* \"#utility.yul\":20379:20383   */\n      0x22\n        /* \"#utility.yul\":20376:20377   */\n      0x04\n        /* \"#utility.yul\":20369:20384   */\n      mstore\n        /* \"#utility.yul\":20403:20407   */\n      0x24\n        /* \"#utility.yul\":20400:20401   */\n      0x00\n        /* \"#utility.yul\":20393:20408   */\n      revert\n        /* \"#utility.yul\":20420:20600   */\n    tag_159:\n        /* \"#utility.yul\":20468:20545   */\n      0x4e487b7100000000000000000000000000000000000000000000000000000000\n        /* \"#utility.yul\":20465:20466   */\n      0x00\n        /* \"#utility.yul\":20458:20546   */\n      mstore\n        /* \"#utility.yul\":20565:20569   */\n      0x32\n        /* \"#utility.yul\":20562:20563   */\n      0x04\n        /* \"#utility.yul\":20555:20570   */\n      mstore\n        /* \"#utility.yul\":20589:20593   */\n      0x24\n        /* \"#utility.yul\":20586:20587   */\n      0x00\n        /* \"#utility.yul\":20579:20594   */\n      revert\n        /* \"#utility.yul\":20606:20786   */\n    tag_468:\n        /* \"#utility.yul\":20654:20731   */\n      0x4e487b7100000000000000000000000000000000000000000000000000000000\n        /* \"#utility.yul\":20651:20652   */\n      0x00\n        /* \"#utility.yul\":20644:20732   */\n      mstore\n        /* \"#utility.yul\":20751:20755   */\n      0x41\n        /* \"#utility.yul\":20748:20749   */\n      0x04\n        /* \"#utility.yul\":20741:20756   */\n      mstore\n        /* \"#utility.yul\":20775:20779   */\n      0x24\n        /* \"#utility.yul\":20772:20773   */\n      0x00\n        /* \"#utility.yul\":20765:20780   */\n      revert\n        /* \"#utility.yul\":20792:20909   */\n    tag_285:\n        /* \"#utility.yul\":20901:20902   */\n      0x00\n        /* \"#utility.yul\":20898:20899   */\n      dup1\n        /* \"#utility.yul\":20891:20903   */\n      revert\n        /* \"#utility.yul\":20915:21032   */\n    tag_274:\n        /* \"#utility.yul\":21024:21025   */\n      0x00\n        /* \"#utility.yul\":21021:21022   */\n      dup1\n        /* \"#utility.yul\":21014:21026   */\n      revert\n        /* \"#utility.yul\":21038:21155   */\n    tag_301:\n        /* \"#utility.yul\":21147:21148   */\n      0x00\n        /* \"#utility.yul\":21144:21145   */\n      dup1\n        /* \"#utility.yul\":21137:21149   */\n      revert\n        /* \"#utility.yul\":21161:21278   */\n    tag_294:\n        /* \"#utility.yul\":21270:21271   */\n      0x00\n        /* \"#utility.yul\":21267:21268   */\n      dup1\n        /* \"#utility.yul\":21260:21272   */\n      revert\n        /* \"#utility.yul\":21284:21386   */\n    tag_355:\n        /* \"#utility.yul\":21325:21331   */\n      0x00\n        /* \"#utility.yul\":21376:21378   */\n      0x1f\n        /* \"#utility.yul\":21372:21379   */\n      not\n        /* \"#utility.yul\":21367:21369   */\n      0x1f\n        /* \"#utility.yul\":21360:21365   */\n      dup4\n        /* \"#utility.yul\":21356:21370   */\n      add\n        /* \"#utility.yul\":21352:21380   */\n      and\n        /* \"#utility.yul\":21342:21380   */\n      swap1\n      pop\n        /* \"#utility.yul\":21284:21386   */\n      swap2\n      swap1\n      pop\n      jump\t// out\n        /* \"#utility.yul\":21392:21570   */\n    tag_366:\n        /* \"#utility.yul\":21532:21562   */\n      0x52657669657720746865206170706c69636174696f6e20666972737400000000\n        /* \"#utility.yul\":21528:21529   */\n      0x00\n        /* \"#utility.yul\":21520:21526   */\n      dup3\n        /* \"#utility.yul\":21516:21530   */\n      add\n        /* \"#utility.yul\":21509:21563   */\n      mstore\n        /* \"#utility.yul\":21392:21570   */\n      pop\n      jump\t// out\n        /* \"#utility.yul\":21576:21746   */\n    tag_371:\n        /* \"#utility.yul\":21716:21738   */\n      0x506861736520616c726561647920616374697665000000000000000000000000\n        /* \"#utility.yul\":21712:21713   */\n      0x00\n        /* \"#utility.yul\":21704:21710   */\n      dup3\n        /* \"#utility.yul\":21700:21714   */\n      add\n        /* \"#utility.yul\":21693:21739   */\n      mstore\n        /* \"#utility.yul\":21576:21746   */\n      pop\n      jump\t// out\n        /* \"#utility.yul\":21752:21926   */\n    tag_376:\n        /* \"#utility.yul\":21892:21918   */\n      0x4170706c69636174696f6e20616c72656164792073656e740000000000000000\n        /* \"#utility.yul\":21888:21889   */\n      0x00\n        /* \"#utility.yul\":21880:21886   */\n      dup3\n        /* \"#utility.yul\":21876:21890   */\n      add\n        /* \"#utility.yul\":21869:21919   */\n      mstore\n        /* \"#utility.yul\":21752:21926   */\n      pop\n      jump\t// out\n        /* \"#utility.yul\":21932:22161   */\n    tag_381:\n        /* \"#utility.yul\":22072:22106   */\n      0x596f7572206170706c69636174696f6e2068617320616c726561647920626565\n        /* \"#utility.yul\":22068:22069   */\n      0x00\n        /* \"#utility.yul\":22060:22066   */\n      dup3\n        /* \"#utility.yul\":22056:22070   */\n      add\n        /* \"#utility.yul\":22049:22107   */\n      mstore\n        /* \"#utility.yul\":22141:22153   */\n      0x6e2072656a656374656400000000000000000000000000000000000000000000\n        /* \"#utility.yul\":22136:22138   */\n      0x20\n        /* \"#utility.yul\":22128:22134   */\n      dup3\n        /* \"#utility.yul\":22124:22139   */\n      add\n        /* \"#utility.yul\":22117:22154   */\n      mstore\n        /* \"#utility.yul\":21932:22161   */\n      pop\n      jump\t// out\n        /* \"#utility.yul\":22167:22395   */\n    tag_386:\n        /* \"#utility.yul\":22307:22341   */\n      0x596f7520617265206e6f7420746865206f776e6572206f722070726976617465\n        /* \"#utility.yul\":22303:22304   */\n      0x00\n        /* \"#utility.yul\":22295:22301   */\n      dup3\n        /* \"#utility.yul\":22291:22305   */\n      add\n        /* \"#utility.yul\":22284:22342   */\n      mstore\n        /* \"#utility.yul\":22376:22387   */\n      0x2070726f76696465720000000000000000000000000000000000000000000000\n        /* \"#utility.yul\":22371:22373   */\n      0x20\n        /* \"#utility.yul\":22363:22369   */\n      dup3\n        /* \"#utility.yul\":22359:22374   */\n      add\n        /* \"#utility.yul\":22352:22388   */\n      mstore\n        /* \"#utility.yul\":22167:22395   */\n      pop\n      jump\t// out\n        /* \"#utility.yul\":22401:22638   */\n    tag_391:\n        /* \"#utility.yul\":22541:22575   */\n      0x4170706c69636174696f6e2063616e206f6e6c79206265207375626d69747465\n        /* \"#utility.yul\":22537:22538   */\n      0x00\n        /* \"#utility.yul\":22529:22535   */\n      dup3\n        /* \"#utility.yul\":22525:22539   */\n      add\n        /* \"#utility.yul\":22518:22576   */\n      mstore\n        /* \"#utility.yul\":22610:22630   */\n      0x6420627920726567756c61722075736572730000000000000000000000000000\n        /* \"#utility.yul\":22605:22607   */\n      0x20\n        /* \"#utility.yul\":22597:22603   */\n      dup3\n        /* \"#utility.yul\":22593:22608   */\n      add\n        /* \"#utility.yul\":22586:22631   */\n      mstore\n        /* \"#utility.yul\":22401:22638   */\n      pop\n      jump\t// out\n        /* \"#utility.yul\":22644:22826   */\n    tag_396:\n        /* \"#utility.yul\":22784:22818   */\n      0x506861736520686173206e6f7420796574206265656e20616374697661746564\n        /* \"#utility.yul\":22780:22781   */\n      0x00\n        /* \"#utility.yul\":22772:22778   */\n      dup3\n        /* \"#utility.yul\":22768:22782   */\n      add\n        /* \"#utility.yul\":22761:22819   */\n      mstore\n        /* \"#utility.yul\":22644:22826   */\n      pop\n      jump\t// out\n        /* \"#utility.yul\":22832:22996   */\n    tag_401:\n        /* \"#utility.yul\":22972:22988   */\n      0x596f7572206e6f742061646d696e000000000000000000000000000000000000\n        /* \"#utility.yul\":22968:22969   */\n      0x00\n        /* \"#utility.yul\":22960:22966   */\n      dup3\n        /* \"#utility.yul\":22956:22970   */\n      add\n        /* \"#utility.yul\":22949:22989   */\n      mstore\n        /* \"#utility.yul\":22832:22996   */\n      pop\n      jump\t// out\n        /* \"#utility.yul\":23002:23177   */\n    tag_406:\n        /* \"#utility.yul\":23142:23169   */\n      0x596f7572206e6f7420507269766174652070726f766964657200000000000000\n        /* \"#utility.yul\":23138:23139   */\n      0x00\n        /* \"#utility.yul\":23130:23136   */\n      dup3\n        /* \"#utility.yul\":23126:23140   */\n      add\n        /* \"#utility.yul\":23119:23170   */\n      mstore\n        /* \"#utility.yul\":23002:23177   */\n      pop\n      jump\t// out\n        /* \"#utility.yul\":23183:23356   */\n    tag_411:\n        /* \"#utility.yul\":23323:23348   */\n      0x4170706c69636174696f6e20706861736520656e646564000000000000000000\n        /* \"#utility.yul\":23319:23320   */\n      0x00\n        /* \"#utility.yul\":23311:23317   */\n      dup3\n        /* \"#utility.yul\":23307:23321   */\n      add\n        /* \"#utility.yul\":23300:23349   */\n      mstore\n        /* \"#utility.yul\":23183:23356   */\n      pop\n      jump\t// out\n        /* \"#utility.yul\":23362:23604   */\n    tag_416:\n        /* \"#utility.yul\":23502:23536   */\n      0x596f752063616e27742073656e6420616e206170706c69636174696f6e20746f\n        /* \"#utility.yul\":23498:23499   */\n      0x00\n        /* \"#utility.yul\":23490:23496   */\n      dup3\n        /* \"#utility.yul\":23486:23500   */\n      add\n        /* \"#utility.yul\":23479:23537   */\n      mstore\n        /* \"#utility.yul\":23571:23596   */\n      0x20736f6d656f6e6520656c736527732061646472657373000000000000000000\n        /* \"#utility.yul\":23566:23568   */\n      0x20\n        /* \"#utility.yul\":23558:23564   */\n      dup3\n        /* \"#utility.yul\":23554:23569   */\n      add\n        /* \"#utility.yul\":23547:23597   */\n      mstore\n        /* \"#utility.yul\":23362:23604   */\n      pop\n      jump\t// out\n        /* \"#utility.yul\":23610:23723   */\n    tag_484:\n        /* \"#utility.yul\":23691:23692   */\n      0x05\n        /* \"#utility.yul\":23684:23689   */\n      dup2\n        /* \"#utility.yul\":23681:23693   */\n      lt\n        /* \"#utility.yul\":23671:23717   */\n      tag_531\n      jumpi\n        /* \"#utility.yul\":23697:23715   */\n      tag_532\n      tag_89\n      jump\t// in\n    tag_532:\n        /* \"#utility.yul\":23671:23717   */\n    tag_531:\n        /* \"#utility.yul\":23610:23723   */\n      pop\n      jump\t// out\n        /* \"#utility.yul\":23729:23851   */\n    tag_280:\n        /* \"#utility.yul\":23802:23826   */\n      tag_534\n        /* \"#utility.yul\":23820:23825   */\n      dup2\n        /* \"#utility.yul\":23802:23826   */\n      tag_323\n      jump\t// in\n    tag_534:\n        /* \"#utility.yul\":23795:23800   */\n      dup2\n        /* \"#utility.yul\":23792:23827   */\n      eq\n        /* \"#utility.yul\":23782:23845   */\n      tag_535\n      jumpi\n        /* \"#utility.yul\":23841:23842   */\n      0x00\n        /* \"#utility.yul\":23838:23839   */\n      dup1\n        /* \"#utility.yul\":23831:23843   */\n      revert\n        /* \"#utility.yul\":23782:23845   */\n    tag_535:\n        /* \"#utility.yul\":23729:23851   */\n      pop\n      jump\t// out\n        /* \"#utility.yul\":23857:23979   */\n    tag_290:\n        /* \"#utility.yul\":23930:23954   */\n      tag_537\n        /* \"#utility.yul\":23948:23953   */\n      dup2\n        /* \"#utility.yul\":23930:23954   */\n      tag_420\n      jump\t// in\n    tag_537:\n        /* \"#utility.yul\":23923:23928   */\n      dup2\n        /* \"#utility.yul\":23920:23955   */\n      eq\n        /* \"#utility.yul\":23910:23973   */\n      tag_538\n      jumpi\n        /* \"#utility.yul\":23969:23970   */\n      0x00\n        /* \"#utility.yul\":23966:23967   */\n      dup1\n        /* \"#utility.yul\":23959:23971   */\n      revert\n        /* \"#utility.yul\":23910:23973   */\n    tag_538:\n        /* \"#utility.yul\":23857:23979   */\n      pop\n      jump\t// out\n\n    auxdata: 0xa2646970667358221220d30252bda5d5e6623b99c9affe136897aa607c10df336ba1ed7bc93bb8d5e94164736f6c63430008070033\n}\n",
				"bytecode": {
					"linkReferences": {},
					"object": "6080604052632cb41780600255620186a060035534801561001f57600080fd5b50612a348061002f6000396000f3fe608060405234801561001057600080fd5b506004361061010b5760003560e01c80637f89128f116100a257806399067ede1161007157806399067ede14610280578063a678b65b146102b0578063b06cdc12146102cc578063c10e3911146102fc578063fc8372591461031a5761010b565b80637f89128f146101f85780638aa7cc0b146102165780638e4f8c6b14610232578063948942ad146102625761010b565b8063686c4cea116100de578063686c4cea1461018457806372f0d72b146101a2578063785963c3146101d25780637f4b8df0146101ee5761010b565b80630691615d146101105780630761c8b91461011a5780631d3eea35146101385780632599d6d014610154575b600080fd5b610118610350565b005b610122610599565b60405161012f9190612427565b60405180910390f35b610152600480360381019061014d9190611e32565b61059f565b005b61016e60048036038101906101699190611e32565b610748565b60405161017b9190612427565b60405180910390f35b61018c610793565b6040516101999190612214565b60405180910390f35b6101bc60048036038101906101b79190611e32565b6108d6565b6040516101c99190612427565b60405180910390f35b6101ec60048036038101906101e79190611ea8565b610921565b005b6101f661102d565b005b61020061133b565b60405161020d9190612214565b60405180910390f35b610230600480360381019061022b9190611f33565b61147e565b005b61024c60048036038101906102479190611e5f565b61153d565b6040516102599190612236565b60405180910390f35b61026a61156d565b6040516102779190612427565b60405180910390f35b61029a60048036038101906102959190611e32565b611573565b6040516102a79190612427565b60405180910390f35b6102ca60048036038101906102c59190611e32565b611594565b005b6102e660048036038101906102e19190611e32565b611a13565b6040516102f39190612427565b60405180910390f35b610304611a5e565b6040516103119190612214565b60405180910390f35b610334600480360381019061032f9190611e32565b611c1e565b6040516103479796959493929190612251565b60405180910390f35b6002600481111561036457610363612680565b5b6000803373ffffffffffffffffffffffffffffffffffffffff1673ffffffffffffffffffffffffffffffffffffffff16815260200190815260200160002060000160009054906101000a900460ff1660048111156103c5576103c4612680565b5b14610405576040517f08c379a00000000000000000000000000000000000000000000000000000000081526004016103fc906123c7565b60405180910390fd5b60001515600460003373ffffffffffffffffffffffffffffffffffffffff1673ffffffffffffffffffffffffffffffffffffffff16815260200190815260200160002060000160009054906101000a900460ff1615151480156104bb575060001515600460003373ffffffffffffffffffffffffffffffffffffffff1673ffffffffffffffffffffffffffffffffffffffff16815260200190815260200160002060000160019054906101000a900460ff161515145b6104fa576040517f08c379a00000000000000000000000000000000000000000000000000000000081526004016104f1906122e7565b60405180910390fd5b604051806040016040528060011515815260200160011515815250600460003373ffffffffffffffffffffffffffffffffffffffff1673ffffffffffffffffffffffffffffffffffffffff16815260200190815260200160002060008201518160000160006101000a81548160ff02191690831515021790555060208201518160000160016101000a81548160ff021916908315150217905550905050565b60025481565b600260048111156105b3576105b2612680565b5b6000803373ffffffffffffffffffffffffffffffffffffffff1673ffffffffffffffffffffffffffffffffffffffff16815260200190815260200160002060000160009054906101000a900460ff16600481111561061457610613612680565b5b14610654576040517f08c379a000000000000000000000000000000000000000000000000000000000815260040161064b906123c7565b60405180910390fd5b60001515600560003373ffffffffffffffffffffffffffffffffffffffff1673ffffffffffffffffffffffffffffffffffffffff16815260200190815260200160002060020160159054906101000a900460ff161515146106ea576040517f08c379a00000000000000000000000000000000000000000000000000000000081526004016106e1906122c7565b60405180910390fd5b6000600560008373ffffffffffffffffffffffffffffffffffffffff1673ffffffffffffffffffffffffffffffffffffffff16815260200190815260200160002060020160146101000a81548160ff02191690831515021790555050565b60008060008373ffffffffffffffffffffffffffffffffffffffff1673ffffffffffffffffffffffffffffffffffffffff168152602001908152602001600020600401549050919050565b6060600260048111156107a9576107a8612680565b5b6000803373ffffffffffffffffffffffffffffffffffffffff1673ffffffffffffffffffffffffffffffffffffffff16815260200190815260200160002060000160009054906101000a900460ff16600481111561080a57610809612680565b5b1461084a576040517f08c379a0000000000000000000000000000000000000000000000000000000008152600401610841906123c7565b60405180910390fd5b60068054806020026020016040519081016040528092919081815260200182805480156108cc57602002820191906000526020600020905b8160009054906101000a900473ffffffffffffffffffffffffffffffffffffffff1673ffffffffffffffffffffffffffffffffffffffff1681526020019060010190808311610882575b5050505050905090565b60008060008373ffffffffffffffffffffffffffffffffffffffff1673ffffffffffffffffffffffffffffffffffffffff168152602001908152602001600020600601549050919050565b6000600481111561093557610934612680565b5b6000803373ffffffffffffffffffffffffffffffffffffffff1673ffffffffffffffffffffffffffffffffffffffff16815260200190815260200160002060000160009054906101000a900460ff16600481111561099657610995612680565b5b141580610a165750600160048111156109b2576109b1612680565b5b6000803373ffffffffffffffffffffffffffffffffffffffff1673ffffffffffffffffffffffffffffffffffffffff16815260200190815260200160002060000160009054906101000a900460ff166004811115610a1357610a12612680565b5b14155b80610a94575060026004811115610a3057610a2f612680565b5b6000803373ffffffffffffffffffffffffffffffffffffffff1673ffffffffffffffffffffffffffffffffffffffff16815260200190815260200160002060000160009054906101000a900460ff166004811115610a9157610a90612680565b5b14155b80610b12575060036004811115610aae57610aad612680565b5b6000803373ffffffffffffffffffffffffffffffffffffffff1673ffffffffffffffffffffffffffffffffffffffff16815260200190815260200160002060000160009054906101000a900460ff166004811115610b0f57610b0e612680565b5b14155b610b51576040517f08c379a0000000000000000000000000000000000000000000000000000000008152600401610b4890612367565b60405180910390fd5b60008015156004600073ab8483f64d9c6d1ecf9b849ae677dd3315835cb273ffffffffffffffffffffffffffffffffffffffff1673ffffffffffffffffffffffffffffffffffffffff16815260200190815260200160002060000160009054906101000a900460ff161515148015610c305750600015156004600073ab8483f64d9c6d1ecf9b849ae677dd3315835cb273ffffffffffffffffffffffffffffffffffffffff1673ffffffffffffffffffffffffffffffffffffffff16815260200190815260200160002060000160009054906101000a900460ff161515145b610c6f576040517f08c379a0000000000000000000000000000000000000000000000000000000008152600401610c66906123e7565b60405180910390fd5b8173ffffffffffffffffffffffffffffffffffffffff163373ffffffffffffffffffffffffffffffffffffffff1614610cdd576040517f08c379a0000000000000000000000000000000000000000000000000000000008152600401610cd490612407565b60405180910390fd5b60005b600680549050811015610dbe573373ffffffffffffffffffffffffffffffffffffffff1660068281548110610d1857610d176126de565b5b9060005260206000200160009054906101000a900473ffffffffffffffffffffffffffffffffffffffff1673ffffffffffffffffffffffffffffffffffffffff161415610d6457600191505b6000151582151514610dab576040517f08c379a0000000000000000000000000000000000000000000000000000000008152600401610da290612307565b60405180910390fd5b8080610db690612608565b915050610ce0565b5060001515600560003373ffffffffffffffffffffffffffffffffffffffff1673ffffffffffffffffffffffffffffffffffffffff16815260200190815260200160002060020160149054906101000a900460ff16151514610e55576040517f08c379a0000000000000000000000000000000000000000000000000000000008152600401610e4c90612327565b60405180910390fd5b6040518060c001604052808581526020018481526020018373ffffffffffffffffffffffffffffffffffffffff16815260200160011515815260200160001515815260200160011515815250600560003373ffffffffffffffffffffffffffffffffffffffff1673ffffffffffffffffffffffffffffffffffffffff1681526020019081526020016000206000820151816000019080519060200190610efc929190611cf5565b506020820151816001019080519060200190610f19929190611cf5565b5060408201518160020160006101000a81548173ffffffffffffffffffffffffffffffffffffffff021916908373ffffffffffffffffffffffffffffffffffffffff16021790555060608201518160020160146101000a81548160ff02191690831515021790555060808201518160020160156101000a81548160ff02191690831515021790555060a08201518160020160166101000a81548160ff0219169083151502179055509050506006339080600181540180825580915050600190039060005260206000200160009091909190916101000a81548173ffffffffffffffffffffffffffffffffffffffff021916908373ffffffffffffffffffffffffffffffffffffffff16021790555050505050565b6002600481111561104157611040612680565b5b6000803373ffffffffffffffffffffffffffffffffffffffff1673ffffffffffffffffffffffffffffffffffffffff16815260200190815260200160002060000160009054906101000a900460ff1660048111156110a2576110a1612680565b5b146110e2576040517f08c379a00000000000000000000000000000000000000000000000000000000081526004016110d9906123c7565b60405180910390fd5b60011515600460003373ffffffffffffffffffffffffffffffffffffffff1673ffffffffffffffffffffffffffffffffffffffff16815260200190815260200160002060000160009054906101000a900460ff161515148015611198575060011515600460003373ffffffffffffffffffffffffffffffffffffffff1673ffffffffffffffffffffffffffffffffffffffff16815260200190815260200160002060000160019054906101000a900460ff161515145b6111d7576040517f08c379a00000000000000000000000000000000000000000000000000000000081526004016111ce90612387565b60405180910390fd5b604051806040016040528060001515815260200160011515815250600460003373ffffffffffffffffffffffffffffffffffffffff1673ffffffffffffffffffffffffffffffffffffffff16815260200190815260200160002060008201518160000160006101000a81548160ff02191690831515021790555060208201518160000160016101000a81548160ff02191690831515021790555090505060405180604001604052806001151581526020016001151581525060046000734b20993bc481177ec7e8f571cecae8a9e22c02db73ffffffffffffffffffffffffffffffffffffffff1673ffffffffffffffffffffffffffffffffffffffff16815260200190815260200160002060008201518160000160006101000a81548160ff02191690831515021790555060208201518160000160016101000a81548160ff021916908315150217905550905050633b9aca00600281905550611388600381905550565b60606000600481111561135157611350612680565b5b6000803373ffffffffffffffffffffffffffffffffffffffff1673ffffffffffffffffffffffffffffffffffffffff16815260200190815260200160002060000160009054906101000a900460ff1660048111156113b2576113b1612680565b5b146113f2576040517f08c379a00000000000000000000000000000000000000000000000000000000081526004016113e9906123a7565b60405180910390fd5b600880548060200260200160405190810160405280929190818152602001828054801561147457602002820191906000526020600020905b8160009054906101000a900473ffffffffffffffffffffffffffffffffffffffff1673ffffffffffffffffffffffffffffffffffffffff168152602001906001019080831161142a575b5050505050905090565b6002600481111561149257611491612680565b5b6000803373ffffffffffffffffffffffffffffffffffffffff1673ffffffffffffffffffffffffffffffffffffffff16815260200190815260200160002060000160009054906101000a900460ff1660048111156114f3576114f2612680565b5b14611533576040517f08c379a000000000000000000000000000000000000000000000000000000000815260040161152a906123c7565b60405180910390fd5b8060028190555050565b60008160405160200161155091906121fd565b604051602081830303815290604052805190602001209050919050565b60035481565b60008173ffffffffffffffffffffffffffffffffffffffff16319050919050565b600260048111156115a8576115a7612680565b5b6000803373ffffffffffffffffffffffffffffffffffffffff1673ffffffffffffffffffffffffffffffffffffffff16815260200190815260200160002060000160009054906101000a900460ff16600481111561160957611608612680565b5b14611649576040517f08c379a0000000000000000000000000000000000000000000000000000000008152600401611640906123c7565b60405180910390fd5b60001515600560003373ffffffffffffffffffffffffffffffffffffffff1673ffffffffffffffffffffffffffffffffffffffff16815260200190815260200160002060020160159054906101000a900460ff161515146116df576040517f08c379a00000000000000000000000000000000000000000000000000000000081526004016116d6906122c7565b60405180910390fd5b6000600560008373ffffffffffffffffffffffffffffffffffffffff1673ffffffffffffffffffffffffffffffffffffffff16815260200190815260200160002060020160146101000a81548160ff0219169083151502179055506006819080600181540180825580915050600190039060005260206000200160009091909190916101000a81548173ffffffffffffffffffffffffffffffffffffffff021916908373ffffffffffffffffffffffffffffffffffffffff1602179055506007819080600181540180825580915050600190039060005260206000200160009091909190916101000a81548173ffffffffffffffffffffffffffffffffffffffff021916908373ffffffffffffffffffffffffffffffffffffffff1602179055506040518060e0016040528060048081111561181e5761181d612680565b5b8152602001600560008473ffffffffffffffffffffffffffffffffffffffff1673ffffffffffffffffffffffffffffffffffffffff1681526020019081526020016000206000018054611870906125a5565b80601f016020809104026020016040519081016040528092919081815260200182805461189c906125a5565b80156118e95780601f106118be576101008083540402835291602001916118e9565b820191906000526020600020905b8154815290600101906020018083116118cc57829003601f168201915b505050505081526020016119316040518060400160405280600181526020017f300000000000000000000000000000000000000000000000000000000000000081525061153d565b815260200160008152602001600081526020016000815260200160008152506000808373ffffffffffffffffffffffffffffffffffffffff1673ffffffffffffffffffffffffffffffffffffffff16815260200190815260200160002060008201518160000160006101000a81548160ff021916908360048111156119b9576119b8612680565b5b021790555060208201518160010190805190602001906119da929190611cf5565b5060408201518160020155606082015181600301556080820151816004015560a0820151816005015560c0820151816006015590505050565b60008060008373ffffffffffffffffffffffffffffffffffffffff1673ffffffffffffffffffffffffffffffffffffffff168152602001908152602001600020600501549050919050565b606060006004811115611a7457611a73612680565b5b6000803373ffffffffffffffffffffffffffffffffffffffff1673ffffffffffffffffffffffffffffffffffffffff16815260200190815260200160002060000160009054906101000a900460ff166004811115611ad557611ad4612680565b5b1480611b53575060026004811115611af057611aef612680565b5b6000803373ffffffffffffffffffffffffffffffffffffffff1673ffffffffffffffffffffffffffffffffffffffff16815260200190815260200160002060000160009054906101000a900460ff166004811115611b5157611b50612680565b5b145b611b92576040517f08c379a0000000000000000000000000000000000000000000000000000000008152600401611b8990612347565b60405180910390fd5b6007805480602002602001604051908101604052809291908181526020018280548015611c1457602002820191906000526020600020905b8160009054906101000a900473ffffffffffffffffffffffffffffffffffffffff1673ffffffffffffffffffffffffffffffffffffffff1681526020019060010190808311611bca575b5050505050905090565b60006020528060005260406000206000915090508060000160009054906101000a900460ff1690806001018054611c54906125a5565b80601f0160208091040260200160405190810160405280929190818152602001828054611c80906125a5565b8015611ccd5780601f10611ca257610100808354040283529160200191611ccd565b820191906000526020600020905b815481529060010190602001808311611cb057829003601f168201915b5050505050908060020154908060030154908060040154908060050154908060060154905087565b828054611d01906125a5565b90600052602060002090601f016020900481019282611d235760008555611d6a565b82601f10611d3c57805160ff1916838001178555611d6a565b82800160010185558215611d6a579182015b82811115611d69578251825591602001919060010190611d4e565b5b509050611d779190611d7b565b5090565b5b80821115611d94576000816000905550600101611d7c565b5090565b6000611dab611da684612467565b612442565b905082815260208101848484011115611dc757611dc6612741565b5b611dd2848285612563565b509392505050565b600081359050611de9816129d0565b92915050565b600082601f830112611e0457611e0361273c565b5b8135611e14848260208601611d98565b91505092915050565b600081359050611e2c816129e7565b92915050565b600060208284031215611e4857611e4761274b565b5b6000611e5684828501611dda565b91505092915050565b600060208284031215611e7557611e7461274b565b5b600082013567ffffffffffffffff811115611e9357611e92612746565b5b611e9f84828501611def565b91505092915050565b600080600060608486031215611ec157611ec061274b565b5b600084013567ffffffffffffffff811115611edf57611ede612746565b5b611eeb86828701611def565b935050602084013567ffffffffffffffff811115611f0c57611f0b612746565b5b611f1886828701611def565b9250506040611f2986828701611dda565b9150509250925092565b600060208284031215611f4957611f4861274b565b5b6000611f5784828501611e1d565b91505092915050565b6000611f6c8383611f78565b60208301905092915050565b611f81816124f8565b82525050565b6000611f92826124a8565b611f9c81856124cb565b9350611fa783612498565b8060005b83811015611fd8578151611fbf8882611f60565b9750611fca836124be565b925050600181019050611fab565b5085935050505092915050565b611fee8161250a565b82525050565b611ffd81612551565b82525050565b600061200e826124b3565b61201881856124dc565b9350612028818560208601612572565b61203181612750565b840191505092915050565b6000612047826124b3565b61205181856124ed565b9350612061818560208601612572565b80840191505092915050565b600061207a601c836124dc565b915061208582612761565b602082019050919050565b600061209d6014836124dc565b91506120a88261278a565b602082019050919050565b60006120c06018836124dc565b91506120cb826127b3565b602082019050919050565b60006120e3602a836124dc565b91506120ee826127dc565b604082019050919050565b60006121066029836124dc565b91506121118261282b565b604082019050919050565b60006121296032836124dc565b91506121348261287a565b604082019050919050565b600061214c6020836124dc565b9150612157826128c9565b602082019050919050565b600061216f600e836124dc565b915061217a826128f2565b602082019050919050565b60006121926019836124dc565b915061219d8261291b565b602082019050919050565b60006121b56017836124dc565b91506121c082612944565b602082019050919050565b60006121d86037836124dc565b91506121e38261296d565b604082019050919050565b6121f781612547565b82525050565b6000612209828461203c565b915081905092915050565b6000602082019050818103600083015261222e8184611f87565b905092915050565b600060208201905061224b6000830184611fe5565b92915050565b600060e082019050612266600083018a611ff4565b81810360208301526122788189612003565b90506122876040830188611fe5565b61229460608301876121ee565b6122a160808301866121ee565b6122ae60a08301856121ee565b6122bb60c08301846121ee565b98975050505050505050565b600060208201905081810360008301526122e08161206d565b9050919050565b6000602082019050818103600083015261230081612090565b9050919050565b60006020820190508181036000830152612320816120b3565b9050919050565b60006020820190508181036000830152612340816120d6565b9050919050565b60006020820190508181036000830152612360816120f9565b9050919050565b600060208201905081810360008301526123808161211c565b9050919050565b600060208201905081810360008301526123a08161213f565b9050919050565b600060208201905081810360008301526123c081612162565b9050919050565b600060208201905081810360008301526123e081612185565b9050919050565b60006020820190508181036000830152612400816121a8565b9050919050565b60006020820190508181036000830152612420816121cb565b9050919050565b600060208201905061243c60008301846121ee565b92915050565b600061244c61245d565b905061245882826125d7565b919050565b6000604051905090565b600067ffffffffffffffff8211156124825761248161270d565b5b61248b82612750565b9050602081019050919050565b6000819050602082019050919050565b600081519050919050565b600081519050919050565b6000602082019050919050565b600082825260208201905092915050565b600082825260208201905092915050565b600081905092915050565b600061250382612527565b9050919050565b6000819050919050565b6000819050612522826129bc565b919050565b600073ffffffffffffffffffffffffffffffffffffffff82169050919050565b6000819050919050565b600061255c82612514565b9050919050565b82818337600083830152505050565b60005b83811015612590578082015181840152602081019050612575565b8381111561259f576000848401525b50505050565b600060028204905060018216806125bd57607f821691505b602082108114156125d1576125d06126af565b5b50919050565b6125e082612750565b810181811067ffffffffffffffff821117156125ff576125fe61270d565b5b80604052505050565b600061261382612547565b91507fffffffffffffffffffffffffffffffffffffffffffffffffffffffffffffffff82141561264657612645612651565b5b600182019050919050565b7f4e487b7100000000000000000000000000000000000000000000000000000000600052601160045260246000fd5b7f4e487b7100000000000000000000000000000000000000000000000000000000600052602160045260246000fd5b7f4e487b7100000000000000000000000000000000000000000000000000000000600052602260045260246000fd5b7f4e487b7100000000000000000000000000000000000000000000000000000000600052603260045260246000fd5b7f4e487b7100000000000000000000000000000000000000000000000000000000600052604160045260246000fd5b600080fd5b600080fd5b600080fd5b600080fd5b6000601f19601f8301169050919050565b7f52657669657720746865206170706c69636174696f6e20666972737400000000600082015250565b7f506861736520616c726561647920616374697665000000000000000000000000600082015250565b7f4170706c69636174696f6e20616c72656164792073656e740000000000000000600082015250565b7f596f7572206170706c69636174696f6e2068617320616c72656164792062656560008201527f6e2072656a656374656400000000000000000000000000000000000000000000602082015250565b7f596f7520617265206e6f7420746865206f776e6572206f72207072697661746560008201527f2070726f76696465720000000000000000000000000000000000000000000000602082015250565b7f4170706c69636174696f6e2063616e206f6e6c79206265207375626d6974746560008201527f6420627920726567756c61722075736572730000000000000000000000000000602082015250565b7f506861736520686173206e6f7420796574206265656e20616374697661746564600082015250565b7f596f7572206e6f742061646d696e000000000000000000000000000000000000600082015250565b7f596f7572206e6f7420507269766174652070726f766964657200000000000000600082015250565b7f4170706c69636174696f6e20706861736520656e646564000000000000000000600082015250565b7f596f752063616e27742073656e6420616e206170706c69636174696f6e20746f60008201527f20736f6d656f6e6520656c736527732061646472657373000000000000000000602082015250565b600581106129cd576129cc612680565b5b50565b6129d9816124f8565b81146129e457600080fd5b50565b6129f081612547565b81146129fb57600080fd5b5056fea2646970667358221220d30252bda5d5e6623b99c9affe136897aa607c10df336ba1ed7bc93bb8d5e94164736f6c63430008070033",
					"opcodes": "PUSH1 0x80 PUSH1 0x40 MSTORE PUSH4 0x2CB41780 PUSH1 0x2 SSTORE PUSH3 0x186A0 PUSH1 0x3 SSTORE CALLVALUE DUP1 ISZERO PUSH2 0x1F JUMPI PUSH1 0x0 DUP1 REVERT JUMPDEST POP PUSH2 0x2A34 DUP1 PUSH2 0x2F PUSH1 0x0 CODECOPY PUSH1 0x0 RETURN INVALID PUSH1 0x80 PUSH1 0x40 MSTORE CALLVALUE DUP1 ISZERO PUSH2 0x10 JUMPI PUSH1 0x0 DUP1 REVERT JUMPDEST POP PUSH1 0x4 CALLDATASIZE LT PUSH2 0x10B JUMPI PUSH1 0x0 CALLDATALOAD PUSH1 0xE0 SHR DUP1 PUSH4 0x7F89128F GT PUSH2 0xA2 JUMPI DUP1 PUSH4 0x99067EDE GT PUSH2 0x71 JUMPI DUP1 PUSH4 0x99067EDE EQ PUSH2 0x280 JUMPI DUP1 PUSH4 0xA678B65B EQ PUSH2 0x2B0 JUMPI DUP1 PUSH4 0xB06CDC12 EQ PUSH2 0x2CC JUMPI DUP1 PUSH4 0xC10E3911 EQ PUSH2 0x2FC JUMPI DUP1 PUSH4 0xFC837259 EQ PUSH2 0x31A JUMPI PUSH2 0x10B JUMP JUMPDEST DUP1 PUSH4 0x7F89128F EQ PUSH2 0x1F8 JUMPI DUP1 PUSH4 0x8AA7CC0B EQ PUSH2 0x216 JUMPI DUP1 PUSH4 0x8E4F8C6B EQ PUSH2 0x232 JUMPI DUP1 PUSH4 0x948942AD EQ PUSH2 0x262 JUMPI PUSH2 0x10B JUMP JUMPDEST DUP1 PUSH4 0x686C4CEA GT PUSH2 0xDE JUMPI DUP1 PUSH4 0x686C4CEA EQ PUSH2 0x184 JUMPI DUP1 PUSH4 0x72F0D72B EQ PUSH2 0x1A2 JUMPI DUP1 PUSH4 0x785963C3 EQ PUSH2 0x1D2 JUMPI DUP1 PUSH4 0x7F4B8DF0 EQ PUSH2 0x1EE JUMPI PUSH2 0x10B JUMP JUMPDEST DUP1 PUSH4 0x691615D EQ PUSH2 0x110 JUMPI DUP1 PUSH4 0x761C8B9 EQ PUSH2 0x11A JUMPI DUP1 PUSH4 0x1D3EEA35 EQ PUSH2 0x138 JUMPI DUP1 PUSH4 0x2599D6D0 EQ PUSH2 0x154 JUMPI JUMPDEST PUSH1 0x0 DUP1 REVERT JUMPDEST PUSH2 0x118 PUSH2 0x350 JUMP JUMPDEST STOP JUMPDEST PUSH2 0x122 PUSH2 0x599 JUMP JUMPDEST PUSH1 0x40 MLOAD PUSH2 0x12F SWAP2 SWAP1 PUSH2 0x2427 JUMP JUMPDEST PUSH1 0x40 MLOAD DUP1 SWAP2 SUB SWAP1 RETURN JUMPDEST PUSH2 0x152 PUSH1 0x4 DUP1 CALLDATASIZE SUB DUP2 ADD SWAP1 PUSH2 0x14D SWAP2 SWAP1 PUSH2 0x1E32 JUMP JUMPDEST PUSH2 0x59F JUMP JUMPDEST STOP JUMPDEST PUSH2 0x16E PUSH1 0x4 DUP1 CALLDATASIZE SUB DUP2 ADD SWAP1 PUSH2 0x169 SWAP2 SWAP1 PUSH2 0x1E32 JUMP JUMPDEST PUSH2 0x748 JUMP JUMPDEST PUSH1 0x40 MLOAD PUSH2 0x17B SWAP2 SWAP1 PUSH2 0x2427 JUMP JUMPDEST PUSH1 0x40 MLOAD DUP1 SWAP2 SUB SWAP1 RETURN JUMPDEST PUSH2 0x18C PUSH2 0x793 JUMP JUMPDEST PUSH1 0x40 MLOAD PUSH2 0x199 SWAP2 SWAP1 PUSH2 0x2214 JUMP JUMPDEST PUSH1 0x40 MLOAD DUP1 SWAP2 SUB SWAP1 RETURN JUMPDEST PUSH2 0x1BC PUSH1 0x4 DUP1 CALLDATASIZE SUB DUP2 ADD SWAP1 PUSH2 0x1B7 SWAP2 SWAP1 PUSH2 0x1E32 JUMP JUMPDEST PUSH2 0x8D6 JUMP JUMPDEST PUSH1 0x40 MLOAD PUSH2 0x1C9 SWAP2 SWAP1 PUSH2 0x2427 JUMP JUMPDEST PUSH1 0x40 MLOAD DUP1 SWAP2 SUB SWAP1 RETURN JUMPDEST PUSH2 0x1EC PUSH1 0x4 DUP1 CALLDATASIZE SUB DUP2 ADD SWAP1 PUSH2 0x1E7 SWAP2 SWAP1 PUSH2 0x1EA8 JUMP JUMPDEST PUSH2 0x921 JUMP JUMPDEST STOP JUMPDEST PUSH2 0x1F6 PUSH2 0x102D JUMP JUMPDEST STOP JUMPDEST PUSH2 0x200 PUSH2 0x133B JUMP JUMPDEST PUSH1 0x40 MLOAD PUSH2 0x20D SWAP2 SWAP1 PUSH2 0x2214 JUMP JUMPDEST PUSH1 0x40 MLOAD DUP1 SWAP2 SUB SWAP1 RETURN JUMPDEST PUSH2 0x230 PUSH1 0x4 DUP1 CALLDATASIZE SUB DUP2 ADD SWAP1 PUSH2 0x22B SWAP2 SWAP1 PUSH2 0x1F33 JUMP JUMPDEST PUSH2 0x147E JUMP JUMPDEST STOP JUMPDEST PUSH2 0x24C PUSH1 0x4 DUP1 CALLDATASIZE SUB DUP2 ADD SWAP1 PUSH2 0x247 SWAP2 SWAP1 PUSH2 0x1E5F JUMP JUMPDEST PUSH2 0x153D JUMP JUMPDEST PUSH1 0x40 MLOAD PUSH2 0x259 SWAP2 SWAP1 PUSH2 0x2236 JUMP JUMPDEST PUSH1 0x40 MLOAD DUP1 SWAP2 SUB SWAP1 RETURN JUMPDEST PUSH2 0x26A PUSH2 0x156D JUMP JUMPDEST PUSH1 0x40 MLOAD PUSH2 0x277 SWAP2 SWAP1 PUSH2 0x2427 JUMP JUMPDEST PUSH1 0x40 MLOAD DUP1 SWAP2 SUB SWAP1 RETURN JUMPDEST PUSH2 0x29A PUSH1 0x4 DUP1 CALLDATASIZE SUB DUP2 ADD SWAP1 PUSH2 0x295 SWAP2 SWAP1 PUSH2 0x1E32 JUMP JUMPDEST PUSH2 0x1573 JUMP JUMPDEST PUSH1 0x40 MLOAD PUSH2 0x2A7 SWAP2 SWAP1 PUSH2 0x2427 JUMP JUMPDEST PUSH1 0x40 MLOAD DUP1 SWAP2 SUB SWAP1 RETURN JUMPDEST PUSH2 0x2CA PUSH1 0x4 DUP1 CALLDATASIZE SUB DUP2 ADD SWAP1 PUSH2 0x2C5 SWAP2 SWAP1 PUSH2 0x1E32 JUMP JUMPDEST PUSH2 0x1594 JUMP JUMPDEST STOP JUMPDEST PUSH2 0x2E6 PUSH1 0x4 DUP1 CALLDATASIZE SUB DUP2 ADD SWAP1 PUSH2 0x2E1 SWAP2 SWAP1 PUSH2 0x1E32 JUMP JUMPDEST PUSH2 0x1A13 JUMP JUMPDEST PUSH1 0x40 MLOAD PUSH2 0x2F3 SWAP2 SWAP1 PUSH2 0x2427 JUMP JUMPDEST PUSH1 0x40 MLOAD DUP1 SWAP2 SUB SWAP1 RETURN JUMPDEST PUSH2 0x304 PUSH2 0x1A5E JUMP JUMPDEST PUSH1 0x40 MLOAD PUSH2 0x311 SWAP2 SWAP1 PUSH2 0x2214 JUMP JUMPDEST PUSH1 0x40 MLOAD DUP1 SWAP2 SUB SWAP1 RETURN JUMPDEST PUSH2 0x334 PUSH1 0x4 DUP1 CALLDATASIZE SUB DUP2 ADD SWAP1 PUSH2 0x32F SWAP2 SWAP1 PUSH2 0x1E32 JUMP JUMPDEST PUSH2 0x1C1E JUMP JUMPDEST PUSH1 0x40 MLOAD PUSH2 0x347 SWAP8 SWAP7 SWAP6 SWAP5 SWAP4 SWAP3 SWAP2 SWAP1 PUSH2 0x2251 JUMP JUMPDEST PUSH1 0x40 MLOAD DUP1 SWAP2 SUB SWAP1 RETURN JUMPDEST PUSH1 0x2 PUSH1 0x4 DUP2 GT ISZERO PUSH2 0x364 JUMPI PUSH2 0x363 PUSH2 0x2680 JUMP JUMPDEST JUMPDEST PUSH1 0x0 DUP1 CALLER PUSH20 0xFFFFFFFFFFFFFFFFFFFFFFFFFFFFFFFFFFFFFFFF AND PUSH20 0xFFFFFFFFFFFFFFFFFFFFFFFFFFFFFFFFFFFFFFFF AND DUP2 MSTORE PUSH1 0x20 ADD SWAP1 DUP2 MSTORE PUSH1 0x20 ADD PUSH1 0x0 KECCAK256 PUSH1 0x0 ADD PUSH1 0x0 SWAP1 SLOAD SWAP1 PUSH2 0x100 EXP SWAP1 DIV PUSH1 0xFF AND PUSH1 0x4 DUP2 GT ISZERO PUSH2 0x3C5 JUMPI PUSH2 0x3C4 PUSH2 0x2680 JUMP JUMPDEST JUMPDEST EQ PUSH2 0x405 JUMPI PUSH1 0x40 MLOAD PUSH32 0x8C379A000000000000000000000000000000000000000000000000000000000 DUP2 MSTORE PUSH1 0x4 ADD PUSH2 0x3FC SWAP1 PUSH2 0x23C7 JUMP JUMPDEST PUSH1 0x40 MLOAD DUP1 SWAP2 SUB SWAP1 REVERT JUMPDEST PUSH1 0x0 ISZERO ISZERO PUSH1 0x4 PUSH1 0x0 CALLER PUSH20 0xFFFFFFFFFFFFFFFFFFFFFFFFFFFFFFFFFFFFFFFF AND PUSH20 0xFFFFFFFFFFFFFFFFFFFFFFFFFFFFFFFFFFFFFFFF AND DUP2 MSTORE PUSH1 0x20 ADD SWAP1 DUP2 MSTORE PUSH1 0x20 ADD PUSH1 0x0 KECCAK256 PUSH1 0x0 ADD PUSH1 0x0 SWAP1 SLOAD SWAP1 PUSH2 0x100 EXP SWAP1 DIV PUSH1 0xFF AND ISZERO ISZERO EQ DUP1 ISZERO PUSH2 0x4BB JUMPI POP PUSH1 0x0 ISZERO ISZERO PUSH1 0x4 PUSH1 0x0 CALLER PUSH20 0xFFFFFFFFFFFFFFFFFFFFFFFFFFFFFFFFFFFFFFFF AND PUSH20 0xFFFFFFFFFFFFFFFFFFFFFFFFFFFFFFFFFFFFFFFF AND DUP2 MSTORE PUSH1 0x20 ADD SWAP1 DUP2 MSTORE PUSH1 0x20 ADD PUSH1 0x0 KECCAK256 PUSH1 0x0 ADD PUSH1 0x1 SWAP1 SLOAD SWAP1 PUSH2 0x100 EXP SWAP1 DIV PUSH1 0xFF AND ISZERO ISZERO EQ JUMPDEST PUSH2 0x4FA JUMPI PUSH1 0x40 MLOAD PUSH32 0x8C379A000000000000000000000000000000000000000000000000000000000 DUP2 MSTORE PUSH1 0x4 ADD PUSH2 0x4F1 SWAP1 PUSH2 0x22E7 JUMP JUMPDEST PUSH1 0x40 MLOAD DUP1 SWAP2 SUB SWAP1 REVERT JUMPDEST PUSH1 0x40 MLOAD DUP1 PUSH1 0x40 ADD PUSH1 0x40 MSTORE DUP1 PUSH1 0x1 ISZERO ISZERO DUP2 MSTORE PUSH1 0x20 ADD PUSH1 0x1 ISZERO ISZERO DUP2 MSTORE POP PUSH1 0x4 PUSH1 0x0 CALLER PUSH20 0xFFFFFFFFFFFFFFFFFFFFFFFFFFFFFFFFFFFFFFFF AND PUSH20 0xFFFFFFFFFFFFFFFFFFFFFFFFFFFFFFFFFFFFFFFF AND DUP2 MSTORE PUSH1 0x20 ADD SWAP1 DUP2 MSTORE PUSH1 0x20 ADD PUSH1 0x0 KECCAK256 PUSH1 0x0 DUP3 ADD MLOAD DUP2 PUSH1 0x0 ADD PUSH1 0x0 PUSH2 0x100 EXP DUP2 SLOAD DUP2 PUSH1 0xFF MUL NOT AND SWAP1 DUP4 ISZERO ISZERO MUL OR SWAP1 SSTORE POP PUSH1 0x20 DUP3 ADD MLOAD DUP2 PUSH1 0x0 ADD PUSH1 0x1 PUSH2 0x100 EXP DUP2 SLOAD DUP2 PUSH1 0xFF MUL NOT AND SWAP1 DUP4 ISZERO ISZERO MUL OR SWAP1 SSTORE POP SWAP1 POP POP JUMP JUMPDEST PUSH1 0x2 SLOAD DUP2 JUMP JUMPDEST PUSH1 0x2 PUSH1 0x4 DUP2 GT ISZERO PUSH2 0x5B3 JUMPI PUSH2 0x5B2 PUSH2 0x2680 JUMP JUMPDEST JUMPDEST PUSH1 0x0 DUP1 CALLER PUSH20 0xFFFFFFFFFFFFFFFFFFFFFFFFFFFFFFFFFFFFFFFF AND PUSH20 0xFFFFFFFFFFFFFFFFFFFFFFFFFFFFFFFFFFFFFFFF AND DUP2 MSTORE PUSH1 0x20 ADD SWAP1 DUP2 MSTORE PUSH1 0x20 ADD PUSH1 0x0 KECCAK256 PUSH1 0x0 ADD PUSH1 0x0 SWAP1 SLOAD SWAP1 PUSH2 0x100 EXP SWAP1 DIV PUSH1 0xFF AND PUSH1 0x4 DUP2 GT ISZERO PUSH2 0x614 JUMPI PUSH2 0x613 PUSH2 0x2680 JUMP JUMPDEST JUMPDEST EQ PUSH2 0x654 JUMPI PUSH1 0x40 MLOAD PUSH32 0x8C379A000000000000000000000000000000000000000000000000000000000 DUP2 MSTORE PUSH1 0x4 ADD PUSH2 0x64B SWAP1 PUSH2 0x23C7 JUMP JUMPDEST PUSH1 0x40 MLOAD DUP1 SWAP2 SUB SWAP1 REVERT JUMPDEST PUSH1 0x0 ISZERO ISZERO PUSH1 0x5 PUSH1 0x0 CALLER PUSH20 0xFFFFFFFFFFFFFFFFFFFFFFFFFFFFFFFFFFFFFFFF AND PUSH20 0xFFFFFFFFFFFFFFFFFFFFFFFFFFFFFFFFFFFFFFFF AND DUP2 MSTORE PUSH1 0x20 ADD SWAP1 DUP2 MSTORE PUSH1 0x20 ADD PUSH1 0x0 KECCAK256 PUSH1 0x2 ADD PUSH1 0x15 SWAP1 SLOAD SWAP1 PUSH2 0x100 EXP SWAP1 DIV PUSH1 0xFF AND ISZERO ISZERO EQ PUSH2 0x6EA JUMPI PUSH1 0x40 MLOAD PUSH32 0x8C379A000000000000000000000000000000000000000000000000000000000 DUP2 MSTORE PUSH1 0x4 ADD PUSH2 0x6E1 SWAP1 PUSH2 0x22C7 JUMP JUMPDEST PUSH1 0x40 MLOAD DUP1 SWAP2 SUB SWAP1 REVERT JUMPDEST PUSH1 0x0 PUSH1 0x5 PUSH1 0x0 DUP4 PUSH20 0xFFFFFFFFFFFFFFFFFFFFFFFFFFFFFFFFFFFFFFFF AND PUSH20 0xFFFFFFFFFFFFFFFFFFFFFFFFFFFFFFFFFFFFFFFF AND DUP2 MSTORE PUSH1 0x20 ADD SWAP1 DUP2 MSTORE PUSH1 0x20 ADD PUSH1 0x0 KECCAK256 PUSH1 0x2 ADD PUSH1 0x14 PUSH2 0x100 EXP DUP2 SLOAD DUP2 PUSH1 0xFF MUL NOT AND SWAP1 DUP4 ISZERO ISZERO MUL OR SWAP1 SSTORE POP POP JUMP JUMPDEST PUSH1 0x0 DUP1 PUSH1 0x0 DUP4 PUSH20 0xFFFFFFFFFFFFFFFFFFFFFFFFFFFFFFFFFFFFFFFF AND PUSH20 0xFFFFFFFFFFFFFFFFFFFFFFFFFFFFFFFFFFFFFFFF AND DUP2 MSTORE PUSH1 0x20 ADD SWAP1 DUP2 MSTORE PUSH1 0x20 ADD PUSH1 0x0 KECCAK256 PUSH1 0x4 ADD SLOAD SWAP1 POP SWAP2 SWAP1 POP JUMP JUMPDEST PUSH1 0x60 PUSH1 0x2 PUSH1 0x4 DUP2 GT ISZERO PUSH2 0x7A9 JUMPI PUSH2 0x7A8 PUSH2 0x2680 JUMP JUMPDEST JUMPDEST PUSH1 0x0 DUP1 CALLER PUSH20 0xFFFFFFFFFFFFFFFFFFFFFFFFFFFFFFFFFFFFFFFF AND PUSH20 0xFFFFFFFFFFFFFFFFFFFFFFFFFFFFFFFFFFFFFFFF AND DUP2 MSTORE PUSH1 0x20 ADD SWAP1 DUP2 MSTORE PUSH1 0x20 ADD PUSH1 0x0 KECCAK256 PUSH1 0x0 ADD PUSH1 0x0 SWAP1 SLOAD SWAP1 PUSH2 0x100 EXP SWAP1 DIV PUSH1 0xFF AND PUSH1 0x4 DUP2 GT ISZERO PUSH2 0x80A JUMPI PUSH2 0x809 PUSH2 0x2680 JUMP JUMPDEST JUMPDEST EQ PUSH2 0x84A JUMPI PUSH1 0x40 MLOAD PUSH32 0x8C379A000000000000000000000000000000000000000000000000000000000 DUP2 MSTORE PUSH1 0x4 ADD PUSH2 0x841 SWAP1 PUSH2 0x23C7 JUMP JUMPDEST PUSH1 0x40 MLOAD DUP1 SWAP2 SUB SWAP1 REVERT JUMPDEST PUSH1 0x6 DUP1 SLOAD DUP1 PUSH1 0x20 MUL PUSH1 0x20 ADD PUSH1 0x40 MLOAD SWAP1 DUP2 ADD PUSH1 0x40 MSTORE DUP1 SWAP3 SWAP2 SWAP1 DUP2 DUP2 MSTORE PUSH1 0x20 ADD DUP3 DUP1 SLOAD DUP1 ISZERO PUSH2 0x8CC JUMPI PUSH1 0x20 MUL DUP3 ADD SWAP2 SWAP1 PUSH1 0x0 MSTORE PUSH1 0x20 PUSH1 0x0 KECCAK256 SWAP1 JUMPDEST DUP2 PUSH1 0x0 SWAP1 SLOAD SWAP1 PUSH2 0x100 EXP SWAP1 DIV PUSH20 0xFFFFFFFFFFFFFFFFFFFFFFFFFFFFFFFFFFFFFFFF AND PUSH20 0xFFFFFFFFFFFFFFFFFFFFFFFFFFFFFFFFFFFFFFFF AND DUP2 MSTORE PUSH1 0x20 ADD SWAP1 PUSH1 0x1 ADD SWAP1 DUP1 DUP4 GT PUSH2 0x882 JUMPI JUMPDEST POP POP POP POP POP SWAP1 POP SWAP1 JUMP JUMPDEST PUSH1 0x0 DUP1 PUSH1 0x0 DUP4 PUSH20 0xFFFFFFFFFFFFFFFFFFFFFFFFFFFFFFFFFFFFFFFF AND PUSH20 0xFFFFFFFFFFFFFFFFFFFFFFFFFFFFFFFFFFFFFFFF AND DUP2 MSTORE PUSH1 0x20 ADD SWAP1 DUP2 MSTORE PUSH1 0x20 ADD PUSH1 0x0 KECCAK256 PUSH1 0x6 ADD SLOAD SWAP1 POP SWAP2 SWAP1 POP JUMP JUMPDEST PUSH1 0x0 PUSH1 0x4 DUP2 GT ISZERO PUSH2 0x935 JUMPI PUSH2 0x934 PUSH2 0x2680 JUMP JUMPDEST JUMPDEST PUSH1 0x0 DUP1 CALLER PUSH20 0xFFFFFFFFFFFFFFFFFFFFFFFFFFFFFFFFFFFFFFFF AND PUSH20 0xFFFFFFFFFFFFFFFFFFFFFFFFFFFFFFFFFFFFFFFF AND DUP2 MSTORE PUSH1 0x20 ADD SWAP1 DUP2 MSTORE PUSH1 0x20 ADD PUSH1 0x0 KECCAK256 PUSH1 0x0 ADD PUSH1 0x0 SWAP1 SLOAD SWAP1 PUSH2 0x100 EXP SWAP1 DIV PUSH1 0xFF AND PUSH1 0x4 DUP2 GT ISZERO PUSH2 0x996 JUMPI PUSH2 0x995 PUSH2 0x2680 JUMP JUMPDEST JUMPDEST EQ ISZERO DUP1 PUSH2 0xA16 JUMPI POP PUSH1 0x1 PUSH1 0x4 DUP2 GT ISZERO PUSH2 0x9B2 JUMPI PUSH2 0x9B1 PUSH2 0x2680 JUMP JUMPDEST JUMPDEST PUSH1 0x0 DUP1 CALLER PUSH20 0xFFFFFFFFFFFFFFFFFFFFFFFFFFFFFFFFFFFFFFFF AND PUSH20 0xFFFFFFFFFFFFFFFFFFFFFFFFFFFFFFFFFFFFFFFF AND DUP2 MSTORE PUSH1 0x20 ADD SWAP1 DUP2 MSTORE PUSH1 0x20 ADD PUSH1 0x0 KECCAK256 PUSH1 0x0 ADD PUSH1 0x0 SWAP1 SLOAD SWAP1 PUSH2 0x100 EXP SWAP1 DIV PUSH1 0xFF AND PUSH1 0x4 DUP2 GT ISZERO PUSH2 0xA13 JUMPI PUSH2 0xA12 PUSH2 0x2680 JUMP JUMPDEST JUMPDEST EQ ISZERO JUMPDEST DUP1 PUSH2 0xA94 JUMPI POP PUSH1 0x2 PUSH1 0x4 DUP2 GT ISZERO PUSH2 0xA30 JUMPI PUSH2 0xA2F PUSH2 0x2680 JUMP JUMPDEST JUMPDEST PUSH1 0x0 DUP1 CALLER PUSH20 0xFFFFFFFFFFFFFFFFFFFFFFFFFFFFFFFFFFFFFFFF AND PUSH20 0xFFFFFFFFFFFFFFFFFFFFFFFFFFFFFFFFFFFFFFFF AND DUP2 MSTORE PUSH1 0x20 ADD SWAP1 DUP2 MSTORE PUSH1 0x20 ADD PUSH1 0x0 KECCAK256 PUSH1 0x0 ADD PUSH1 0x0 SWAP1 SLOAD SWAP1 PUSH2 0x100 EXP SWAP1 DIV PUSH1 0xFF AND PUSH1 0x4 DUP2 GT ISZERO PUSH2 0xA91 JUMPI PUSH2 0xA90 PUSH2 0x2680 JUMP JUMPDEST JUMPDEST EQ ISZERO JUMPDEST DUP1 PUSH2 0xB12 JUMPI POP PUSH1 0x3 PUSH1 0x4 DUP2 GT ISZERO PUSH2 0xAAE JUMPI PUSH2 0xAAD PUSH2 0x2680 JUMP JUMPDEST JUMPDEST PUSH1 0x0 DUP1 CALLER PUSH20 0xFFFFFFFFFFFFFFFFFFFFFFFFFFFFFFFFFFFFFFFF AND PUSH20 0xFFFFFFFFFFFFFFFFFFFFFFFFFFFFFFFFFFFFFFFF AND DUP2 MSTORE PUSH1 0x20 ADD SWAP1 DUP2 MSTORE PUSH1 0x20 ADD PUSH1 0x0 KECCAK256 PUSH1 0x0 ADD PUSH1 0x0 SWAP1 SLOAD SWAP1 PUSH2 0x100 EXP SWAP1 DIV PUSH1 0xFF AND PUSH1 0x4 DUP2 GT ISZERO PUSH2 0xB0F JUMPI PUSH2 0xB0E PUSH2 0x2680 JUMP JUMPDEST JUMPDEST EQ ISZERO JUMPDEST PUSH2 0xB51 JUMPI PUSH1 0x40 MLOAD PUSH32 0x8C379A000000000000000000000000000000000000000000000000000000000 DUP2 MSTORE PUSH1 0x4 ADD PUSH2 0xB48 SWAP1 PUSH2 0x2367 JUMP JUMPDEST PUSH1 0x40 MLOAD DUP1 SWAP2 SUB SWAP1 REVERT JUMPDEST PUSH1 0x0 DUP1 ISZERO ISZERO PUSH1 0x4 PUSH1 0x0 PUSH20 0xAB8483F64D9C6D1ECF9B849AE677DD3315835CB2 PUSH20 0xFFFFFFFFFFFFFFFFFFFFFFFFFFFFFFFFFFFFFFFF AND PUSH20 0xFFFFFFFFFFFFFFFFFFFFFFFFFFFFFFFFFFFFFFFF AND DUP2 MSTORE PUSH1 0x20 ADD SWAP1 DUP2 MSTORE PUSH1 0x20 ADD PUSH1 0x0 KECCAK256 PUSH1 0x0 ADD PUSH1 0x0 SWAP1 SLOAD SWAP1 PUSH2 0x100 EXP SWAP1 DIV PUSH1 0xFF AND ISZERO ISZERO EQ DUP1 ISZERO PUSH2 0xC30 JUMPI POP PUSH1 0x0 ISZERO ISZERO PUSH1 0x4 PUSH1 0x0 PUSH20 0xAB8483F64D9C6D1ECF9B849AE677DD3315835CB2 PUSH20 0xFFFFFFFFFFFFFFFFFFFFFFFFFFFFFFFFFFFFFFFF AND PUSH20 0xFFFFFFFFFFFFFFFFFFFFFFFFFFFFFFFFFFFFFFFF AND DUP2 MSTORE PUSH1 0x20 ADD SWAP1 DUP2 MSTORE PUSH1 0x20 ADD PUSH1 0x0 KECCAK256 PUSH1 0x0 ADD PUSH1 0x0 SWAP1 SLOAD SWAP1 PUSH2 0x100 EXP SWAP1 DIV PUSH1 0xFF AND ISZERO ISZERO EQ JUMPDEST PUSH2 0xC6F JUMPI PUSH1 0x40 MLOAD PUSH32 0x8C379A000000000000000000000000000000000000000000000000000000000 DUP2 MSTORE PUSH1 0x4 ADD PUSH2 0xC66 SWAP1 PUSH2 0x23E7 JUMP JUMPDEST PUSH1 0x40 MLOAD DUP1 SWAP2 SUB SWAP1 REVERT JUMPDEST DUP2 PUSH20 0xFFFFFFFFFFFFFFFFFFFFFFFFFFFFFFFFFFFFFFFF AND CALLER PUSH20 0xFFFFFFFFFFFFFFFFFFFFFFFFFFFFFFFFFFFFFFFF AND EQ PUSH2 0xCDD JUMPI PUSH1 0x40 MLOAD PUSH32 0x8C379A000000000000000000000000000000000000000000000000000000000 DUP2 MSTORE PUSH1 0x4 ADD PUSH2 0xCD4 SWAP1 PUSH2 0x2407 JUMP JUMPDEST PUSH1 0x40 MLOAD DUP1 SWAP2 SUB SWAP1 REVERT JUMPDEST PUSH1 0x0 JUMPDEST PUSH1 0x6 DUP1 SLOAD SWAP1 POP DUP2 LT ISZERO PUSH2 0xDBE JUMPI CALLER PUSH20 0xFFFFFFFFFFFFFFFFFFFFFFFFFFFFFFFFFFFFFFFF AND PUSH1 0x6 DUP3 DUP2 SLOAD DUP2 LT PUSH2 0xD18 JUMPI PUSH2 0xD17 PUSH2 0x26DE JUMP JUMPDEST JUMPDEST SWAP1 PUSH1 0x0 MSTORE PUSH1 0x20 PUSH1 0x0 KECCAK256 ADD PUSH1 0x0 SWAP1 SLOAD SWAP1 PUSH2 0x100 EXP SWAP1 DIV PUSH20 0xFFFFFFFFFFFFFFFFFFFFFFFFFFFFFFFFFFFFFFFF AND PUSH20 0xFFFFFFFFFFFFFFFFFFFFFFFFFFFFFFFFFFFFFFFF AND EQ ISZERO PUSH2 0xD64 JUMPI PUSH1 0x1 SWAP2 POP JUMPDEST PUSH1 0x0 ISZERO ISZERO DUP3 ISZERO ISZERO EQ PUSH2 0xDAB JUMPI PUSH1 0x40 MLOAD PUSH32 0x8C379A000000000000000000000000000000000000000000000000000000000 DUP2 MSTORE PUSH1 0x4 ADD PUSH2 0xDA2 SWAP1 PUSH2 0x2307 JUMP JUMPDEST PUSH1 0x40 MLOAD DUP1 SWAP2 SUB SWAP1 REVERT JUMPDEST DUP1 DUP1 PUSH2 0xDB6 SWAP1 PUSH2 0x2608 JUMP JUMPDEST SWAP2 POP POP PUSH2 0xCE0 JUMP JUMPDEST POP PUSH1 0x0 ISZERO ISZERO PUSH1 0x5 PUSH1 0x0 CALLER PUSH20 0xFFFFFFFFFFFFFFFFFFFFFFFFFFFFFFFFFFFFFFFF AND PUSH20 0xFFFFFFFFFFFFFFFFFFFFFFFFFFFFFFFFFFFFFFFF AND DUP2 MSTORE PUSH1 0x20 ADD SWAP1 DUP2 MSTORE PUSH1 0x20 ADD PUSH1 0x0 KECCAK256 PUSH1 0x2 ADD PUSH1 0x14 SWAP1 SLOAD SWAP1 PUSH2 0x100 EXP SWAP1 DIV PUSH1 0xFF AND ISZERO ISZERO EQ PUSH2 0xE55 JUMPI PUSH1 0x40 MLOAD PUSH32 0x8C379A000000000000000000000000000000000000000000000000000000000 DUP2 MSTORE PUSH1 0x4 ADD PUSH2 0xE4C SWAP1 PUSH2 0x2327 JUMP JUMPDEST PUSH1 0x40 MLOAD DUP1 SWAP2 SUB SWAP1 REVERT JUMPDEST PUSH1 0x40 MLOAD DUP1 PUSH1 0xC0 ADD PUSH1 0x40 MSTORE DUP1 DUP6 DUP2 MSTORE PUSH1 0x20 ADD DUP5 DUP2 MSTORE PUSH1 0x20 ADD DUP4 PUSH20 0xFFFFFFFFFFFFFFFFFFFFFFFFFFFFFFFFFFFFFFFF AND DUP2 MSTORE PUSH1 0x20 ADD PUSH1 0x1 ISZERO ISZERO DUP2 MSTORE PUSH1 0x20 ADD PUSH1 0x0 ISZERO ISZERO DUP2 MSTORE PUSH1 0x20 ADD PUSH1 0x1 ISZERO ISZERO DUP2 MSTORE POP PUSH1 0x5 PUSH1 0x0 CALLER PUSH20 0xFFFFFFFFFFFFFFFFFFFFFFFFFFFFFFFFFFFFFFFF AND PUSH20 0xFFFFFFFFFFFFFFFFFFFFFFFFFFFFFFFFFFFFFFFF AND DUP2 MSTORE PUSH1 0x20 ADD SWAP1 DUP2 MSTORE PUSH1 0x20 ADD PUSH1 0x0 KECCAK256 PUSH1 0x0 DUP3 ADD MLOAD DUP2 PUSH1 0x0 ADD SWAP1 DUP1 MLOAD SWAP1 PUSH1 0x20 ADD SWAP1 PUSH2 0xEFC SWAP3 SWAP2 SWAP1 PUSH2 0x1CF5 JUMP JUMPDEST POP PUSH1 0x20 DUP3 ADD MLOAD DUP2 PUSH1 0x1 ADD SWAP1 DUP1 MLOAD SWAP1 PUSH1 0x20 ADD SWAP1 PUSH2 0xF19 SWAP3 SWAP2 SWAP1 PUSH2 0x1CF5 JUMP JUMPDEST POP PUSH1 0x40 DUP3 ADD MLOAD DUP2 PUSH1 0x2 ADD PUSH1 0x0 PUSH2 0x100 EXP DUP2 SLOAD DUP2 PUSH20 0xFFFFFFFFFFFFFFFFFFFFFFFFFFFFFFFFFFFFFFFF MUL NOT AND SWAP1 DUP4 PUSH20 0xFFFFFFFFFFFFFFFFFFFFFFFFFFFFFFFFFFFFFFFF AND MUL OR SWAP1 SSTORE POP PUSH1 0x60 DUP3 ADD MLOAD DUP2 PUSH1 0x2 ADD PUSH1 0x14 PUSH2 0x100 EXP DUP2 SLOAD DUP2 PUSH1 0xFF MUL NOT AND SWAP1 DUP4 ISZERO ISZERO MUL OR SWAP1 SSTORE POP PUSH1 0x80 DUP3 ADD MLOAD DUP2 PUSH1 0x2 ADD PUSH1 0x15 PUSH2 0x100 EXP DUP2 SLOAD DUP2 PUSH1 0xFF MUL NOT AND SWAP1 DUP4 ISZERO ISZERO MUL OR SWAP1 SSTORE POP PUSH1 0xA0 DUP3 ADD MLOAD DUP2 PUSH1 0x2 ADD PUSH1 0x16 PUSH2 0x100 EXP DUP2 SLOAD DUP2 PUSH1 0xFF MUL NOT AND SWAP1 DUP4 ISZERO ISZERO MUL OR SWAP1 SSTORE POP SWAP1 POP POP PUSH1 0x6 CALLER SWAP1 DUP1 PUSH1 0x1 DUP2 SLOAD ADD DUP1 DUP3 SSTORE DUP1 SWAP2 POP POP PUSH1 0x1 SWAP1 SUB SWAP1 PUSH1 0x0 MSTORE PUSH1 0x20 PUSH1 0x0 KECCAK256 ADD PUSH1 0x0 SWAP1 SWAP2 SWAP1 SWAP2 SWAP1 SWAP2 PUSH2 0x100 EXP DUP2 SLOAD DUP2 PUSH20 0xFFFFFFFFFFFFFFFFFFFFFFFFFFFFFFFFFFFFFFFF MUL NOT AND SWAP1 DUP4 PUSH20 0xFFFFFFFFFFFFFFFFFFFFFFFFFFFFFFFFFFFFFFFF AND MUL OR SWAP1 SSTORE POP POP POP POP POP JUMP JUMPDEST PUSH1 0x2 PUSH1 0x4 DUP2 GT ISZERO PUSH2 0x1041 JUMPI PUSH2 0x1040 PUSH2 0x2680 JUMP JUMPDEST JUMPDEST PUSH1 0x0 DUP1 CALLER PUSH20 0xFFFFFFFFFFFFFFFFFFFFFFFFFFFFFFFFFFFFFFFF AND PUSH20 0xFFFFFFFFFFFFFFFFFFFFFFFFFFFFFFFFFFFFFFFF AND DUP2 MSTORE PUSH1 0x20 ADD SWAP1 DUP2 MSTORE PUSH1 0x20 ADD PUSH1 0x0 KECCAK256 PUSH1 0x0 ADD PUSH1 0x0 SWAP1 SLOAD SWAP1 PUSH2 0x100 EXP SWAP1 DIV PUSH1 0xFF AND PUSH1 0x4 DUP2 GT ISZERO PUSH2 0x10A2 JUMPI PUSH2 0x10A1 PUSH2 0x2680 JUMP JUMPDEST JUMPDEST EQ PUSH2 0x10E2 JUMPI PUSH1 0x40 MLOAD PUSH32 0x8C379A000000000000000000000000000000000000000000000000000000000 DUP2 MSTORE PUSH1 0x4 ADD PUSH2 0x10D9 SWAP1 PUSH2 0x23C7 JUMP JUMPDEST PUSH1 0x40 MLOAD DUP1 SWAP2 SUB SWAP1 REVERT JUMPDEST PUSH1 0x1 ISZERO ISZERO PUSH1 0x4 PUSH1 0x0 CALLER PUSH20 0xFFFFFFFFFFFFFFFFFFFFFFFFFFFFFFFFFFFFFFFF AND PUSH20 0xFFFFFFFFFFFFFFFFFFFFFFFFFFFFFFFFFFFFFFFF AND DUP2 MSTORE PUSH1 0x20 ADD SWAP1 DUP2 MSTORE PUSH1 0x20 ADD PUSH1 0x0 KECCAK256 PUSH1 0x0 ADD PUSH1 0x0 SWAP1 SLOAD SWAP1 PUSH2 0x100 EXP SWAP1 DIV PUSH1 0xFF AND ISZERO ISZERO EQ DUP1 ISZERO PUSH2 0x1198 JUMPI POP PUSH1 0x1 ISZERO ISZERO PUSH1 0x4 PUSH1 0x0 CALLER PUSH20 0xFFFFFFFFFFFFFFFFFFFFFFFFFFFFFFFFFFFFFFFF AND PUSH20 0xFFFFFFFFFFFFFFFFFFFFFFFFFFFFFFFFFFFFFFFF AND DUP2 MSTORE PUSH1 0x20 ADD SWAP1 DUP2 MSTORE PUSH1 0x20 ADD PUSH1 0x0 KECCAK256 PUSH1 0x0 ADD PUSH1 0x1 SWAP1 SLOAD SWAP1 PUSH2 0x100 EXP SWAP1 DIV PUSH1 0xFF AND ISZERO ISZERO EQ JUMPDEST PUSH2 0x11D7 JUMPI PUSH1 0x40 MLOAD PUSH32 0x8C379A000000000000000000000000000000000000000000000000000000000 DUP2 MSTORE PUSH1 0x4 ADD PUSH2 0x11CE SWAP1 PUSH2 0x2387 JUMP JUMPDEST PUSH1 0x40 MLOAD DUP1 SWAP2 SUB SWAP1 REVERT JUMPDEST PUSH1 0x40 MLOAD DUP1 PUSH1 0x40 ADD PUSH1 0x40 MSTORE DUP1 PUSH1 0x0 ISZERO ISZERO DUP2 MSTORE PUSH1 0x20 ADD PUSH1 0x1 ISZERO ISZERO DUP2 MSTORE POP PUSH1 0x4 PUSH1 0x0 CALLER PUSH20 0xFFFFFFFFFFFFFFFFFFFFFFFFFFFFFFFFFFFFFFFF AND PUSH20 0xFFFFFFFFFFFFFFFFFFFFFFFFFFFFFFFFFFFFFFFF AND DUP2 MSTORE PUSH1 0x20 ADD SWAP1 DUP2 MSTORE PUSH1 0x20 ADD PUSH1 0x0 KECCAK256 PUSH1 0x0 DUP3 ADD MLOAD DUP2 PUSH1 0x0 ADD PUSH1 0x0 PUSH2 0x100 EXP DUP2 SLOAD DUP2 PUSH1 0xFF MUL NOT AND SWAP1 DUP4 ISZERO ISZERO MUL OR SWAP1 SSTORE POP PUSH1 0x20 DUP3 ADD MLOAD DUP2 PUSH1 0x0 ADD PUSH1 0x1 PUSH2 0x100 EXP DUP2 SLOAD DUP2 PUSH1 0xFF MUL NOT AND SWAP1 DUP4 ISZERO ISZERO MUL OR SWAP1 SSTORE POP SWAP1 POP POP PUSH1 0x40 MLOAD DUP1 PUSH1 0x40 ADD PUSH1 0x40 MSTORE DUP1 PUSH1 0x1 ISZERO ISZERO DUP2 MSTORE PUSH1 0x20 ADD PUSH1 0x1 ISZERO ISZERO DUP2 MSTORE POP PUSH1 0x4 PUSH1 0x0 PUSH20 0x4B20993BC481177EC7E8F571CECAE8A9E22C02DB PUSH20 0xFFFFFFFFFFFFFFFFFFFFFFFFFFFFFFFFFFFFFFFF AND PUSH20 0xFFFFFFFFFFFFFFFFFFFFFFFFFFFFFFFFFFFFFFFF AND DUP2 MSTORE PUSH1 0x20 ADD SWAP1 DUP2 MSTORE PUSH1 0x20 ADD PUSH1 0x0 KECCAK256 PUSH1 0x0 DUP3 ADD MLOAD DUP2 PUSH1 0x0 ADD PUSH1 0x0 PUSH2 0x100 EXP DUP2 SLOAD DUP2 PUSH1 0xFF MUL NOT AND SWAP1 DUP4 ISZERO ISZERO MUL OR SWAP1 SSTORE POP PUSH1 0x20 DUP3 ADD MLOAD DUP2 PUSH1 0x0 ADD PUSH1 0x1 PUSH2 0x100 EXP DUP2 SLOAD DUP2 PUSH1 0xFF MUL NOT AND SWAP1 DUP4 ISZERO ISZERO MUL OR SWAP1 SSTORE POP SWAP1 POP POP PUSH4 0x3B9ACA00 PUSH1 0x2 DUP2 SWAP1 SSTORE POP PUSH2 0x1388 PUSH1 0x3 DUP2 SWAP1 SSTORE POP JUMP JUMPDEST PUSH1 0x60 PUSH1 0x0 PUSH1 0x4 DUP2 GT ISZERO PUSH2 0x1351 JUMPI PUSH2 0x1350 PUSH2 0x2680 JUMP JUMPDEST JUMPDEST PUSH1 0x0 DUP1 CALLER PUSH20 0xFFFFFFFFFFFFFFFFFFFFFFFFFFFFFFFFFFFFFFFF AND PUSH20 0xFFFFFFFFFFFFFFFFFFFFFFFFFFFFFFFFFFFFFFFF AND DUP2 MSTORE PUSH1 0x20 ADD SWAP1 DUP2 MSTORE PUSH1 0x20 ADD PUSH1 0x0 KECCAK256 PUSH1 0x0 ADD PUSH1 0x0 SWAP1 SLOAD SWAP1 PUSH2 0x100 EXP SWAP1 DIV PUSH1 0xFF AND PUSH1 0x4 DUP2 GT ISZERO PUSH2 0x13B2 JUMPI PUSH2 0x13B1 PUSH2 0x2680 JUMP JUMPDEST JUMPDEST EQ PUSH2 0x13F2 JUMPI PUSH1 0x40 MLOAD PUSH32 0x8C379A000000000000000000000000000000000000000000000000000000000 DUP2 MSTORE PUSH1 0x4 ADD PUSH2 0x13E9 SWAP1 PUSH2 0x23A7 JUMP JUMPDEST PUSH1 0x40 MLOAD DUP1 SWAP2 SUB SWAP1 REVERT JUMPDEST PUSH1 0x8 DUP1 SLOAD DUP1 PUSH1 0x20 MUL PUSH1 0x20 ADD PUSH1 0x40 MLOAD SWAP1 DUP2 ADD PUSH1 0x40 MSTORE DUP1 SWAP3 SWAP2 SWAP1 DUP2 DUP2 MSTORE PUSH1 0x20 ADD DUP3 DUP1 SLOAD DUP1 ISZERO PUSH2 0x1474 JUMPI PUSH1 0x20 MUL DUP3 ADD SWAP2 SWAP1 PUSH1 0x0 MSTORE PUSH1 0x20 PUSH1 0x0 KECCAK256 SWAP1 JUMPDEST DUP2 PUSH1 0x0 SWAP1 SLOAD SWAP1 PUSH2 0x100 EXP SWAP1 DIV PUSH20 0xFFFFFFFFFFFFFFFFFFFFFFFFFFFFFFFFFFFFFFFF AND PUSH20 0xFFFFFFFFFFFFFFFFFFFFFFFFFFFFFFFFFFFFFFFF AND DUP2 MSTORE PUSH1 0x20 ADD SWAP1 PUSH1 0x1 ADD SWAP1 DUP1 DUP4 GT PUSH2 0x142A JUMPI JUMPDEST POP POP POP POP POP SWAP1 POP SWAP1 JUMP JUMPDEST PUSH1 0x2 PUSH1 0x4 DUP2 GT ISZERO PUSH2 0x1492 JUMPI PUSH2 0x1491 PUSH2 0x2680 JUMP JUMPDEST JUMPDEST PUSH1 0x0 DUP1 CALLER PUSH20 0xFFFFFFFFFFFFFFFFFFFFFFFFFFFFFFFFFFFFFFFF AND PUSH20 0xFFFFFFFFFFFFFFFFFFFFFFFFFFFFFFFFFFFFFFFF AND DUP2 MSTORE PUSH1 0x20 ADD SWAP1 DUP2 MSTORE PUSH1 0x20 ADD PUSH1 0x0 KECCAK256 PUSH1 0x0 ADD PUSH1 0x0 SWAP1 SLOAD SWAP1 PUSH2 0x100 EXP SWAP1 DIV PUSH1 0xFF AND PUSH1 0x4 DUP2 GT ISZERO PUSH2 0x14F3 JUMPI PUSH2 0x14F2 PUSH2 0x2680 JUMP JUMPDEST JUMPDEST EQ PUSH2 0x1533 JUMPI PUSH1 0x40 MLOAD PUSH32 0x8C379A000000000000000000000000000000000000000000000000000000000 DUP2 MSTORE PUSH1 0x4 ADD PUSH2 0x152A SWAP1 PUSH2 0x23C7 JUMP JUMPDEST PUSH1 0x40 MLOAD DUP1 SWAP2 SUB SWAP1 REVERT JUMPDEST DUP1 PUSH1 0x2 DUP2 SWAP1 SSTORE POP POP JUMP JUMPDEST PUSH1 0x0 DUP2 PUSH1 0x40 MLOAD PUSH1 0x20 ADD PUSH2 0x1550 SWAP2 SWAP1 PUSH2 0x21FD JUMP JUMPDEST PUSH1 0x40 MLOAD PUSH1 0x20 DUP2 DUP4 SUB SUB DUP2 MSTORE SWAP1 PUSH1 0x40 MSTORE DUP1 MLOAD SWAP1 PUSH1 0x20 ADD KECCAK256 SWAP1 POP SWAP2 SWAP1 POP JUMP JUMPDEST PUSH1 0x3 SLOAD DUP2 JUMP JUMPDEST PUSH1 0x0 DUP2 PUSH20 0xFFFFFFFFFFFFFFFFFFFFFFFFFFFFFFFFFFFFFFFF AND BALANCE SWAP1 POP SWAP2 SWAP1 POP JUMP JUMPDEST PUSH1 0x2 PUSH1 0x4 DUP2 GT ISZERO PUSH2 0x15A8 JUMPI PUSH2 0x15A7 PUSH2 0x2680 JUMP JUMPDEST JUMPDEST PUSH1 0x0 DUP1 CALLER PUSH20 0xFFFFFFFFFFFFFFFFFFFFFFFFFFFFFFFFFFFFFFFF AND PUSH20 0xFFFFFFFFFFFFFFFFFFFFFFFFFFFFFFFFFFFFFFFF AND DUP2 MSTORE PUSH1 0x20 ADD SWAP1 DUP2 MSTORE PUSH1 0x20 ADD PUSH1 0x0 KECCAK256 PUSH1 0x0 ADD PUSH1 0x0 SWAP1 SLOAD SWAP1 PUSH2 0x100 EXP SWAP1 DIV PUSH1 0xFF AND PUSH1 0x4 DUP2 GT ISZERO PUSH2 0x1609 JUMPI PUSH2 0x1608 PUSH2 0x2680 JUMP JUMPDEST JUMPDEST EQ PUSH2 0x1649 JUMPI PUSH1 0x40 MLOAD PUSH32 0x8C379A000000000000000000000000000000000000000000000000000000000 DUP2 MSTORE PUSH1 0x4 ADD PUSH2 0x1640 SWAP1 PUSH2 0x23C7 JUMP JUMPDEST PUSH1 0x40 MLOAD DUP1 SWAP2 SUB SWAP1 REVERT JUMPDEST PUSH1 0x0 ISZERO ISZERO PUSH1 0x5 PUSH1 0x0 CALLER PUSH20 0xFFFFFFFFFFFFFFFFFFFFFFFFFFFFFFFFFFFFFFFF AND PUSH20 0xFFFFFFFFFFFFFFFFFFFFFFFFFFFFFFFFFFFFFFFF AND DUP2 MSTORE PUSH1 0x20 ADD SWAP1 DUP2 MSTORE PUSH1 0x20 ADD PUSH1 0x0 KECCAK256 PUSH1 0x2 ADD PUSH1 0x15 SWAP1 SLOAD SWAP1 PUSH2 0x100 EXP SWAP1 DIV PUSH1 0xFF AND ISZERO ISZERO EQ PUSH2 0x16DF JUMPI PUSH1 0x40 MLOAD PUSH32 0x8C379A000000000000000000000000000000000000000000000000000000000 DUP2 MSTORE PUSH1 0x4 ADD PUSH2 0x16D6 SWAP1 PUSH2 0x22C7 JUMP JUMPDEST PUSH1 0x40 MLOAD DUP1 SWAP2 SUB SWAP1 REVERT JUMPDEST PUSH1 0x0 PUSH1 0x5 PUSH1 0x0 DUP4 PUSH20 0xFFFFFFFFFFFFFFFFFFFFFFFFFFFFFFFFFFFFFFFF AND PUSH20 0xFFFFFFFFFFFFFFFFFFFFFFFFFFFFFFFFFFFFFFFF AND DUP2 MSTORE PUSH1 0x20 ADD SWAP1 DUP2 MSTORE PUSH1 0x20 ADD PUSH1 0x0 KECCAK256 PUSH1 0x2 ADD PUSH1 0x14 PUSH2 0x100 EXP DUP2 SLOAD DUP2 PUSH1 0xFF MUL NOT AND SWAP1 DUP4 ISZERO ISZERO MUL OR SWAP1 SSTORE POP PUSH1 0x6 DUP2 SWAP1 DUP1 PUSH1 0x1 DUP2 SLOAD ADD DUP1 DUP3 SSTORE DUP1 SWAP2 POP POP PUSH1 0x1 SWAP1 SUB SWAP1 PUSH1 0x0 MSTORE PUSH1 0x20 PUSH1 0x0 KECCAK256 ADD PUSH1 0x0 SWAP1 SWAP2 SWAP1 SWAP2 SWAP1 SWAP2 PUSH2 0x100 EXP DUP2 SLOAD DUP2 PUSH20 0xFFFFFFFFFFFFFFFFFFFFFFFFFFFFFFFFFFFFFFFF MUL NOT AND SWAP1 DUP4 PUSH20 0xFFFFFFFFFFFFFFFFFFFFFFFFFFFFFFFFFFFFFFFF AND MUL OR SWAP1 SSTORE POP PUSH1 0x7 DUP2 SWAP1 DUP1 PUSH1 0x1 DUP2 SLOAD ADD DUP1 DUP3 SSTORE DUP1 SWAP2 POP POP PUSH1 0x1 SWAP1 SUB SWAP1 PUSH1 0x0 MSTORE PUSH1 0x20 PUSH1 0x0 KECCAK256 ADD PUSH1 0x0 SWAP1 SWAP2 SWAP1 SWAP2 SWAP1 SWAP2 PUSH2 0x100 EXP DUP2 SLOAD DUP2 PUSH20 0xFFFFFFFFFFFFFFFFFFFFFFFFFFFFFFFFFFFFFFFF MUL NOT AND SWAP1 DUP4 PUSH20 0xFFFFFFFFFFFFFFFFFFFFFFFFFFFFFFFFFFFFFFFF AND MUL OR SWAP1 SSTORE POP PUSH1 0x40 MLOAD DUP1 PUSH1 0xE0 ADD PUSH1 0x40 MSTORE DUP1 PUSH1 0x4 DUP1 DUP2 GT ISZERO PUSH2 0x181E JUMPI PUSH2 0x181D PUSH2 0x2680 JUMP JUMPDEST JUMPDEST DUP2 MSTORE PUSH1 0x20 ADD PUSH1 0x5 PUSH1 0x0 DUP5 PUSH20 0xFFFFFFFFFFFFFFFFFFFFFFFFFFFFFFFFFFFFFFFF AND PUSH20 0xFFFFFFFFFFFFFFFFFFFFFFFFFFFFFFFFFFFFFFFF AND DUP2 MSTORE PUSH1 0x20 ADD SWAP1 DUP2 MSTORE PUSH1 0x20 ADD PUSH1 0x0 KECCAK256 PUSH1 0x0 ADD DUP1 SLOAD PUSH2 0x1870 SWAP1 PUSH2 0x25A5 JUMP JUMPDEST DUP1 PUSH1 0x1F ADD PUSH1 0x20 DUP1 SWAP2 DIV MUL PUSH1 0x20 ADD PUSH1 0x40 MLOAD SWAP1 DUP2 ADD PUSH1 0x40 MSTORE DUP1 SWAP3 SWAP2 SWAP1 DUP2 DUP2 MSTORE PUSH1 0x20 ADD DUP3 DUP1 SLOAD PUSH2 0x189C SWAP1 PUSH2 0x25A5 JUMP JUMPDEST DUP1 ISZERO PUSH2 0x18E9 JUMPI DUP1 PUSH1 0x1F LT PUSH2 0x18BE JUMPI PUSH2 0x100 DUP1 DUP4 SLOAD DIV MUL DUP4 MSTORE SWAP2 PUSH1 0x20 ADD SWAP2 PUSH2 0x18E9 JUMP JUMPDEST DUP3 ADD SWAP2 SWAP1 PUSH1 0x0 MSTORE PUSH1 0x20 PUSH1 0x0 KECCAK256 SWAP1 JUMPDEST DUP2 SLOAD DUP2 MSTORE SWAP1 PUSH1 0x1 ADD SWAP1 PUSH1 0x20 ADD DUP1 DUP4 GT PUSH2 0x18CC JUMPI DUP3 SWAP1 SUB PUSH1 0x1F AND DUP3 ADD SWAP2 JUMPDEST POP POP POP POP POP DUP2 MSTORE PUSH1 0x20 ADD PUSH2 0x1931 PUSH1 0x40 MLOAD DUP1 PUSH1 0x40 ADD PUSH1 0x40 MSTORE DUP1 PUSH1 0x1 DUP2 MSTORE PUSH1 0x20 ADD PUSH32 0x3000000000000000000000000000000000000000000000000000000000000000 DUP2 MSTORE POP PUSH2 0x153D JUMP JUMPDEST DUP2 MSTORE PUSH1 0x20 ADD PUSH1 0x0 DUP2 MSTORE PUSH1 0x20 ADD PUSH1 0x0 DUP2 MSTORE PUSH1 0x20 ADD PUSH1 0x0 DUP2 MSTORE PUSH1 0x20 ADD PUSH1 0x0 DUP2 MSTORE POP PUSH1 0x0 DUP1 DUP4 PUSH20 0xFFFFFFFFFFFFFFFFFFFFFFFFFFFFFFFFFFFFFFFF AND PUSH20 0xFFFFFFFFFFFFFFFFFFFFFFFFFFFFFFFFFFFFFFFF AND DUP2 MSTORE PUSH1 0x20 ADD SWAP1 DUP2 MSTORE PUSH1 0x20 ADD PUSH1 0x0 KECCAK256 PUSH1 0x0 DUP3 ADD MLOAD DUP2 PUSH1 0x0 ADD PUSH1 0x0 PUSH2 0x100 EXP DUP2 SLOAD DUP2 PUSH1 0xFF MUL NOT AND SWAP1 DUP4 PUSH1 0x4 DUP2 GT ISZERO PUSH2 0x19B9 JUMPI PUSH2 0x19B8 PUSH2 0x2680 JUMP JUMPDEST JUMPDEST MUL OR SWAP1 SSTORE POP PUSH1 0x20 DUP3 ADD MLOAD DUP2 PUSH1 0x1 ADD SWAP1 DUP1 MLOAD SWAP1 PUSH1 0x20 ADD SWAP1 PUSH2 0x19DA SWAP3 SWAP2 SWAP1 PUSH2 0x1CF5 JUMP JUMPDEST POP PUSH1 0x40 DUP3 ADD MLOAD DUP2 PUSH1 0x2 ADD SSTORE PUSH1 0x60 DUP3 ADD MLOAD DUP2 PUSH1 0x3 ADD SSTORE PUSH1 0x80 DUP3 ADD MLOAD DUP2 PUSH1 0x4 ADD SSTORE PUSH1 0xA0 DUP3 ADD MLOAD DUP2 PUSH1 0x5 ADD SSTORE PUSH1 0xC0 DUP3 ADD MLOAD DUP2 PUSH1 0x6 ADD SSTORE SWAP1 POP POP POP JUMP JUMPDEST PUSH1 0x0 DUP1 PUSH1 0x0 DUP4 PUSH20 0xFFFFFFFFFFFFFFFFFFFFFFFFFFFFFFFFFFFFFFFF AND PUSH20 0xFFFFFFFFFFFFFFFFFFFFFFFFFFFFFFFFFFFFFFFF AND DUP2 MSTORE PUSH1 0x20 ADD SWAP1 DUP2 MSTORE PUSH1 0x20 ADD PUSH1 0x0 KECCAK256 PUSH1 0x5 ADD SLOAD SWAP1 POP SWAP2 SWAP1 POP JUMP JUMPDEST PUSH1 0x60 PUSH1 0x0 PUSH1 0x4 DUP2 GT ISZERO PUSH2 0x1A74 JUMPI PUSH2 0x1A73 PUSH2 0x2680 JUMP JUMPDEST JUMPDEST PUSH1 0x0 DUP1 CALLER PUSH20 0xFFFFFFFFFFFFFFFFFFFFFFFFFFFFFFFFFFFFFFFF AND PUSH20 0xFFFFFFFFFFFFFFFFFFFFFFFFFFFFFFFFFFFFFFFF AND DUP2 MSTORE PUSH1 0x20 ADD SWAP1 DUP2 MSTORE PUSH1 0x20 ADD PUSH1 0x0 KECCAK256 PUSH1 0x0 ADD PUSH1 0x0 SWAP1 SLOAD SWAP1 PUSH2 0x100 EXP SWAP1 DIV PUSH1 0xFF AND PUSH1 0x4 DUP2 GT ISZERO PUSH2 0x1AD5 JUMPI PUSH2 0x1AD4 PUSH2 0x2680 JUMP JUMPDEST JUMPDEST EQ DUP1 PUSH2 0x1B53 JUMPI POP PUSH1 0x2 PUSH1 0x4 DUP2 GT ISZERO PUSH2 0x1AF0 JUMPI PUSH2 0x1AEF PUSH2 0x2680 JUMP JUMPDEST JUMPDEST PUSH1 0x0 DUP1 CALLER PUSH20 0xFFFFFFFFFFFFFFFFFFFFFFFFFFFFFFFFFFFFFFFF AND PUSH20 0xFFFFFFFFFFFFFFFFFFFFFFFFFFFFFFFFFFFFFFFF AND DUP2 MSTORE PUSH1 0x20 ADD SWAP1 DUP2 MSTORE PUSH1 0x20 ADD PUSH1 0x0 KECCAK256 PUSH1 0x0 ADD PUSH1 0x0 SWAP1 SLOAD SWAP1 PUSH2 0x100 EXP SWAP1 DIV PUSH1 0xFF AND PUSH1 0x4 DUP2 GT ISZERO PUSH2 0x1B51 JUMPI PUSH2 0x1B50 PUSH2 0x2680 JUMP JUMPDEST JUMPDEST EQ JUMPDEST PUSH2 0x1B92 JUMPI PUSH1 0x40 MLOAD PUSH32 0x8C379A000000000000000000000000000000000000000000000000000000000 DUP2 MSTORE PUSH1 0x4 ADD PUSH2 0x1B89 SWAP1 PUSH2 0x2347 JUMP JUMPDEST PUSH1 0x40 MLOAD DUP1 SWAP2 SUB SWAP1 REVERT JUMPDEST PUSH1 0x7 DUP1 SLOAD DUP1 PUSH1 0x20 MUL PUSH1 0x20 ADD PUSH1 0x40 MLOAD SWAP1 DUP2 ADD PUSH1 0x40 MSTORE DUP1 SWAP3 SWAP2 SWAP1 DUP2 DUP2 MSTORE PUSH1 0x20 ADD DUP3 DUP1 SLOAD DUP1 ISZERO PUSH2 0x1C14 JUMPI PUSH1 0x20 MUL DUP3 ADD SWAP2 SWAP1 PUSH1 0x0 MSTORE PUSH1 0x20 PUSH1 0x0 KECCAK256 SWAP1 JUMPDEST DUP2 PUSH1 0x0 SWAP1 SLOAD SWAP1 PUSH2 0x100 EXP SWAP1 DIV PUSH20 0xFFFFFFFFFFFFFFFFFFFFFFFFFFFFFFFFFFFFFFFF AND PUSH20 0xFFFFFFFFFFFFFFFFFFFFFFFFFFFFFFFFFFFFFFFF AND DUP2 MSTORE PUSH1 0x20 ADD SWAP1 PUSH1 0x1 ADD SWAP1 DUP1 DUP4 GT PUSH2 0x1BCA JUMPI JUMPDEST POP POP POP POP POP SWAP1 POP SWAP1 JUMP JUMPDEST PUSH1 0x0 PUSH1 0x20 MSTORE DUP1 PUSH1 0x0 MSTORE PUSH1 0x40 PUSH1 0x0 KECCAK256 PUSH1 0x0 SWAP2 POP SWAP1 POP DUP1 PUSH1 0x0 ADD PUSH1 0x0 SWAP1 SLOAD SWAP1 PUSH2 0x100 EXP SWAP1 DIV PUSH1 0xFF AND SWAP1 DUP1 PUSH1 0x1 ADD DUP1 SLOAD PUSH2 0x1C54 SWAP1 PUSH2 0x25A5 JUMP JUMPDEST DUP1 PUSH1 0x1F ADD PUSH1 0x20 DUP1 SWAP2 DIV MUL PUSH1 0x20 ADD PUSH1 0x40 MLOAD SWAP1 DUP2 ADD PUSH1 0x40 MSTORE DUP1 SWAP3 SWAP2 SWAP1 DUP2 DUP2 MSTORE PUSH1 0x20 ADD DUP3 DUP1 SLOAD PUSH2 0x1C80 SWAP1 PUSH2 0x25A5 JUMP JUMPDEST DUP1 ISZERO PUSH2 0x1CCD JUMPI DUP1 PUSH1 0x1F LT PUSH2 0x1CA2 JUMPI PUSH2 0x100 DUP1 DUP4 SLOAD DIV MUL DUP4 MSTORE SWAP2 PUSH1 0x20 ADD SWAP2 PUSH2 0x1CCD JUMP JUMPDEST DUP3 ADD SWAP2 SWAP1 PUSH1 0x0 MSTORE PUSH1 0x20 PUSH1 0x0 KECCAK256 SWAP1 JUMPDEST DUP2 SLOAD DUP2 MSTORE SWAP1 PUSH1 0x1 ADD SWAP1 PUSH1 0x20 ADD DUP1 DUP4 GT PUSH2 0x1CB0 JUMPI DUP3 SWAP1 SUB PUSH1 0x1F AND DUP3 ADD SWAP2 JUMPDEST POP POP POP POP POP SWAP1 DUP1 PUSH1 0x2 ADD SLOAD SWAP1 DUP1 PUSH1 0x3 ADD SLOAD SWAP1 DUP1 PUSH1 0x4 ADD SLOAD SWAP1 DUP1 PUSH1 0x5 ADD SLOAD SWAP1 DUP1 PUSH1 0x6 ADD SLOAD SWAP1 POP DUP8 JUMP JUMPDEST DUP3 DUP1 SLOAD PUSH2 0x1D01 SWAP1 PUSH2 0x25A5 JUMP JUMPDEST SWAP1 PUSH1 0x0 MSTORE PUSH1 0x20 PUSH1 0x0 KECCAK256 SWAP1 PUSH1 0x1F ADD PUSH1 0x20 SWAP1 DIV DUP2 ADD SWAP3 DUP3 PUSH2 0x1D23 JUMPI PUSH1 0x0 DUP6 SSTORE PUSH2 0x1D6A JUMP JUMPDEST DUP3 PUSH1 0x1F LT PUSH2 0x1D3C JUMPI DUP1 MLOAD PUSH1 0xFF NOT AND DUP4 DUP1 ADD OR DUP6 SSTORE PUSH2 0x1D6A JUMP JUMPDEST DUP3 DUP1 ADD PUSH1 0x1 ADD DUP6 SSTORE DUP3 ISZERO PUSH2 0x1D6A JUMPI SWAP2 DUP3 ADD JUMPDEST DUP3 DUP2 GT ISZERO PUSH2 0x1D69 JUMPI DUP3 MLOAD DUP3 SSTORE SWAP2 PUSH1 0x20 ADD SWAP2 SWAP1 PUSH1 0x1 ADD SWAP1 PUSH2 0x1D4E JUMP JUMPDEST JUMPDEST POP SWAP1 POP PUSH2 0x1D77 SWAP2 SWAP1 PUSH2 0x1D7B JUMP JUMPDEST POP SWAP1 JUMP JUMPDEST JUMPDEST DUP1 DUP3 GT ISZERO PUSH2 0x1D94 JUMPI PUSH1 0x0 DUP2 PUSH1 0x0 SWAP1 SSTORE POP PUSH1 0x1 ADD PUSH2 0x1D7C JUMP JUMPDEST POP SWAP1 JUMP JUMPDEST PUSH1 0x0 PUSH2 0x1DAB PUSH2 0x1DA6 DUP5 PUSH2 0x2467 JUMP JUMPDEST PUSH2 0x2442 JUMP JUMPDEST SWAP1 POP DUP3 DUP2 MSTORE PUSH1 0x20 DUP2 ADD DUP5 DUP5 DUP5 ADD GT ISZERO PUSH2 0x1DC7 JUMPI PUSH2 0x1DC6 PUSH2 0x2741 JUMP JUMPDEST JUMPDEST PUSH2 0x1DD2 DUP5 DUP3 DUP6 PUSH2 0x2563 JUMP JUMPDEST POP SWAP4 SWAP3 POP POP POP JUMP JUMPDEST PUSH1 0x0 DUP2 CALLDATALOAD SWAP1 POP PUSH2 0x1DE9 DUP2 PUSH2 0x29D0 JUMP JUMPDEST SWAP3 SWAP2 POP POP JUMP JUMPDEST PUSH1 0x0 DUP3 PUSH1 0x1F DUP4 ADD SLT PUSH2 0x1E04 JUMPI PUSH2 0x1E03 PUSH2 0x273C JUMP JUMPDEST JUMPDEST DUP2 CALLDATALOAD PUSH2 0x1E14 DUP5 DUP3 PUSH1 0x20 DUP7 ADD PUSH2 0x1D98 JUMP JUMPDEST SWAP2 POP POP SWAP3 SWAP2 POP POP JUMP JUMPDEST PUSH1 0x0 DUP2 CALLDATALOAD SWAP1 POP PUSH2 0x1E2C DUP2 PUSH2 0x29E7 JUMP JUMPDEST SWAP3 SWAP2 POP POP JUMP JUMPDEST PUSH1 0x0 PUSH1 0x20 DUP3 DUP5 SUB SLT ISZERO PUSH2 0x1E48 JUMPI PUSH2 0x1E47 PUSH2 0x274B JUMP JUMPDEST JUMPDEST PUSH1 0x0 PUSH2 0x1E56 DUP5 DUP3 DUP6 ADD PUSH2 0x1DDA JUMP JUMPDEST SWAP2 POP POP SWAP3 SWAP2 POP POP JUMP JUMPDEST PUSH1 0x0 PUSH1 0x20 DUP3 DUP5 SUB SLT ISZERO PUSH2 0x1E75 JUMPI PUSH2 0x1E74 PUSH2 0x274B JUMP JUMPDEST JUMPDEST PUSH1 0x0 DUP3 ADD CALLDATALOAD PUSH8 0xFFFFFFFFFFFFFFFF DUP2 GT ISZERO PUSH2 0x1E93 JUMPI PUSH2 0x1E92 PUSH2 0x2746 JUMP JUMPDEST JUMPDEST PUSH2 0x1E9F DUP5 DUP3 DUP6 ADD PUSH2 0x1DEF JUMP JUMPDEST SWAP2 POP POP SWAP3 SWAP2 POP POP JUMP JUMPDEST PUSH1 0x0 DUP1 PUSH1 0x0 PUSH1 0x60 DUP5 DUP7 SUB SLT ISZERO PUSH2 0x1EC1 JUMPI PUSH2 0x1EC0 PUSH2 0x274B JUMP JUMPDEST JUMPDEST PUSH1 0x0 DUP5 ADD CALLDATALOAD PUSH8 0xFFFFFFFFFFFFFFFF DUP2 GT ISZERO PUSH2 0x1EDF JUMPI PUSH2 0x1EDE PUSH2 0x2746 JUMP JUMPDEST JUMPDEST PUSH2 0x1EEB DUP7 DUP3 DUP8 ADD PUSH2 0x1DEF JUMP JUMPDEST SWAP4 POP POP PUSH1 0x20 DUP5 ADD CALLDATALOAD PUSH8 0xFFFFFFFFFFFFFFFF DUP2 GT ISZERO PUSH2 0x1F0C JUMPI PUSH2 0x1F0B PUSH2 0x2746 JUMP JUMPDEST JUMPDEST PUSH2 0x1F18 DUP7 DUP3 DUP8 ADD PUSH2 0x1DEF JUMP JUMPDEST SWAP3 POP POP PUSH1 0x40 PUSH2 0x1F29 DUP7 DUP3 DUP8 ADD PUSH2 0x1DDA JUMP JUMPDEST SWAP2 POP POP SWAP3 POP SWAP3 POP SWAP3 JUMP JUMPDEST PUSH1 0x0 PUSH1 0x20 DUP3 DUP5 SUB SLT ISZERO PUSH2 0x1F49 JUMPI PUSH2 0x1F48 PUSH2 0x274B JUMP JUMPDEST JUMPDEST PUSH1 0x0 PUSH2 0x1F57 DUP5 DUP3 DUP6 ADD PUSH2 0x1E1D JUMP JUMPDEST SWAP2 POP POP SWAP3 SWAP2 POP POP JUMP JUMPDEST PUSH1 0x0 PUSH2 0x1F6C DUP4 DUP4 PUSH2 0x1F78 JUMP JUMPDEST PUSH1 0x20 DUP4 ADD SWAP1 POP SWAP3 SWAP2 POP POP JUMP JUMPDEST PUSH2 0x1F81 DUP2 PUSH2 0x24F8 JUMP JUMPDEST DUP3 MSTORE POP POP JUMP JUMPDEST PUSH1 0x0 PUSH2 0x1F92 DUP3 PUSH2 0x24A8 JUMP JUMPDEST PUSH2 0x1F9C DUP2 DUP6 PUSH2 0x24CB JUMP JUMPDEST SWAP4 POP PUSH2 0x1FA7 DUP4 PUSH2 0x2498 JUMP JUMPDEST DUP1 PUSH1 0x0 JUMPDEST DUP4 DUP2 LT ISZERO PUSH2 0x1FD8 JUMPI DUP2 MLOAD PUSH2 0x1FBF DUP9 DUP3 PUSH2 0x1F60 JUMP JUMPDEST SWAP8 POP PUSH2 0x1FCA DUP4 PUSH2 0x24BE JUMP JUMPDEST SWAP3 POP POP PUSH1 0x1 DUP2 ADD SWAP1 POP PUSH2 0x1FAB JUMP JUMPDEST POP DUP6 SWAP4 POP POP POP POP SWAP3 SWAP2 POP POP JUMP JUMPDEST PUSH2 0x1FEE DUP2 PUSH2 0x250A JUMP JUMPDEST DUP3 MSTORE POP POP JUMP JUMPDEST PUSH2 0x1FFD DUP2 PUSH2 0x2551 JUMP JUMPDEST DUP3 MSTORE POP POP JUMP JUMPDEST PUSH1 0x0 PUSH2 0x200E DUP3 PUSH2 0x24B3 JUMP JUMPDEST PUSH2 0x2018 DUP2 DUP6 PUSH2 0x24DC JUMP JUMPDEST SWAP4 POP PUSH2 0x2028 DUP2 DUP6 PUSH1 0x20 DUP7 ADD PUSH2 0x2572 JUMP JUMPDEST PUSH2 0x2031 DUP2 PUSH2 0x2750 JUMP JUMPDEST DUP5 ADD SWAP2 POP POP SWAP3 SWAP2 POP POP JUMP JUMPDEST PUSH1 0x0 PUSH2 0x2047 DUP3 PUSH2 0x24B3 JUMP JUMPDEST PUSH2 0x2051 DUP2 DUP6 PUSH2 0x24ED JUMP JUMPDEST SWAP4 POP PUSH2 0x2061 DUP2 DUP6 PUSH1 0x20 DUP7 ADD PUSH2 0x2572 JUMP JUMPDEST DUP1 DUP5 ADD SWAP2 POP POP SWAP3 SWAP2 POP POP JUMP JUMPDEST PUSH1 0x0 PUSH2 0x207A PUSH1 0x1C DUP4 PUSH2 0x24DC JUMP JUMPDEST SWAP2 POP PUSH2 0x2085 DUP3 PUSH2 0x2761 JUMP JUMPDEST PUSH1 0x20 DUP3 ADD SWAP1 POP SWAP2 SWAP1 POP JUMP JUMPDEST PUSH1 0x0 PUSH2 0x209D PUSH1 0x14 DUP4 PUSH2 0x24DC JUMP JUMPDEST SWAP2 POP PUSH2 0x20A8 DUP3 PUSH2 0x278A JUMP JUMPDEST PUSH1 0x20 DUP3 ADD SWAP1 POP SWAP2 SWAP1 POP JUMP JUMPDEST PUSH1 0x0 PUSH2 0x20C0 PUSH1 0x18 DUP4 PUSH2 0x24DC JUMP JUMPDEST SWAP2 POP PUSH2 0x20CB DUP3 PUSH2 0x27B3 JUMP JUMPDEST PUSH1 0x20 DUP3 ADD SWAP1 POP SWAP2 SWAP1 POP JUMP JUMPDEST PUSH1 0x0 PUSH2 0x20E3 PUSH1 0x2A DUP4 PUSH2 0x24DC JUMP JUMPDEST SWAP2 POP PUSH2 0x20EE DUP3 PUSH2 0x27DC JUMP JUMPDEST PUSH1 0x40 DUP3 ADD SWAP1 POP SWAP2 SWAP1 POP JUMP JUMPDEST PUSH1 0x0 PUSH2 0x2106 PUSH1 0x29 DUP4 PUSH2 0x24DC JUMP JUMPDEST SWAP2 POP PUSH2 0x2111 DUP3 PUSH2 0x282B JUMP JUMPDEST PUSH1 0x40 DUP3 ADD SWAP1 POP SWAP2 SWAP1 POP JUMP JUMPDEST PUSH1 0x0 PUSH2 0x2129 PUSH1 0x32 DUP4 PUSH2 0x24DC JUMP JUMPDEST SWAP2 POP PUSH2 0x2134 DUP3 PUSH2 0x287A JUMP JUMPDEST PUSH1 0x40 DUP3 ADD SWAP1 POP SWAP2 SWAP1 POP JUMP JUMPDEST PUSH1 0x0 PUSH2 0x214C PUSH1 0x20 DUP4 PUSH2 0x24DC JUMP JUMPDEST SWAP2 POP PUSH2 0x2157 DUP3 PUSH2 0x28C9 JUMP JUMPDEST PUSH1 0x20 DUP3 ADD SWAP1 POP SWAP2 SWAP1 POP JUMP JUMPDEST PUSH1 0x0 PUSH2 0x216F PUSH1 0xE DUP4 PUSH2 0x24DC JUMP JUMPDEST SWAP2 POP PUSH2 0x217A DUP3 PUSH2 0x28F2 JUMP JUMPDEST PUSH1 0x20 DUP3 ADD SWAP1 POP SWAP2 SWAP1 POP JUMP JUMPDEST PUSH1 0x0 PUSH2 0x2192 PUSH1 0x19 DUP4 PUSH2 0x24DC JUMP JUMPDEST SWAP2 POP PUSH2 0x219D DUP3 PUSH2 0x291B JUMP JUMPDEST PUSH1 0x20 DUP3 ADD SWAP1 POP SWAP2 SWAP1 POP JUMP JUMPDEST PUSH1 0x0 PUSH2 0x21B5 PUSH1 0x17 DUP4 PUSH2 0x24DC JUMP JUMPDEST SWAP2 POP PUSH2 0x21C0 DUP3 PUSH2 0x2944 JUMP JUMPDEST PUSH1 0x20 DUP3 ADD SWAP1 POP SWAP2 SWAP1 POP JUMP JUMPDEST PUSH1 0x0 PUSH2 0x21D8 PUSH1 0x37 DUP4 PUSH2 0x24DC JUMP JUMPDEST SWAP2 POP PUSH2 0x21E3 DUP3 PUSH2 0x296D JUMP JUMPDEST PUSH1 0x40 DUP3 ADD SWAP1 POP SWAP2 SWAP1 POP JUMP JUMPDEST PUSH2 0x21F7 DUP2 PUSH2 0x2547 JUMP JUMPDEST DUP3 MSTORE POP POP JUMP JUMPDEST PUSH1 0x0 PUSH2 0x2209 DUP3 DUP5 PUSH2 0x203C JUMP JUMPDEST SWAP2 POP DUP2 SWAP1 POP SWAP3 SWAP2 POP POP JUMP JUMPDEST PUSH1 0x0 PUSH1 0x20 DUP3 ADD SWAP1 POP DUP2 DUP2 SUB PUSH1 0x0 DUP4 ADD MSTORE PUSH2 0x222E DUP2 DUP5 PUSH2 0x1F87 JUMP JUMPDEST SWAP1 POP SWAP3 SWAP2 POP POP JUMP JUMPDEST PUSH1 0x0 PUSH1 0x20 DUP3 ADD SWAP1 POP PUSH2 0x224B PUSH1 0x0 DUP4 ADD DUP5 PUSH2 0x1FE5 JUMP JUMPDEST SWAP3 SWAP2 POP POP JUMP JUMPDEST PUSH1 0x0 PUSH1 0xE0 DUP3 ADD SWAP1 POP PUSH2 0x2266 PUSH1 0x0 DUP4 ADD DUP11 PUSH2 0x1FF4 JUMP JUMPDEST DUP2 DUP2 SUB PUSH1 0x20 DUP4 ADD MSTORE PUSH2 0x2278 DUP2 DUP10 PUSH2 0x2003 JUMP JUMPDEST SWAP1 POP PUSH2 0x2287 PUSH1 0x40 DUP4 ADD DUP9 PUSH2 0x1FE5 JUMP JUMPDEST PUSH2 0x2294 PUSH1 0x60 DUP4 ADD DUP8 PUSH2 0x21EE JUMP JUMPDEST PUSH2 0x22A1 PUSH1 0x80 DUP4 ADD DUP7 PUSH2 0x21EE JUMP JUMPDEST PUSH2 0x22AE PUSH1 0xA0 DUP4 ADD DUP6 PUSH2 0x21EE JUMP JUMPDEST PUSH2 0x22BB PUSH1 0xC0 DUP4 ADD DUP5 PUSH2 0x21EE JUMP JUMPDEST SWAP9 SWAP8 POP POP POP POP POP POP POP POP JUMP JUMPDEST PUSH1 0x0 PUSH1 0x20 DUP3 ADD SWAP1 POP DUP2 DUP2 SUB PUSH1 0x0 DUP4 ADD MSTORE PUSH2 0x22E0 DUP2 PUSH2 0x206D JUMP JUMPDEST SWAP1 POP SWAP2 SWAP1 POP JUMP JUMPDEST PUSH1 0x0 PUSH1 0x20 DUP3 ADD SWAP1 POP DUP2 DUP2 SUB PUSH1 0x0 DUP4 ADD MSTORE PUSH2 0x2300 DUP2 PUSH2 0x2090 JUMP JUMPDEST SWAP1 POP SWAP2 SWAP1 POP JUMP JUMPDEST PUSH1 0x0 PUSH1 0x20 DUP3 ADD SWAP1 POP DUP2 DUP2 SUB PUSH1 0x0 DUP4 ADD MSTORE PUSH2 0x2320 DUP2 PUSH2 0x20B3 JUMP JUMPDEST SWAP1 POP SWAP2 SWAP1 POP JUMP JUMPDEST PUSH1 0x0 PUSH1 0x20 DUP3 ADD SWAP1 POP DUP2 DUP2 SUB PUSH1 0x0 DUP4 ADD MSTORE PUSH2 0x2340 DUP2 PUSH2 0x20D6 JUMP JUMPDEST SWAP1 POP SWAP2 SWAP1 POP JUMP JUMPDEST PUSH1 0x0 PUSH1 0x20 DUP3 ADD SWAP1 POP DUP2 DUP2 SUB PUSH1 0x0 DUP4 ADD MSTORE PUSH2 0x2360 DUP2 PUSH2 0x20F9 JUMP JUMPDEST SWAP1 POP SWAP2 SWAP1 POP JUMP JUMPDEST PUSH1 0x0 PUSH1 0x20 DUP3 ADD SWAP1 POP DUP2 DUP2 SUB PUSH1 0x0 DUP4 ADD MSTORE PUSH2 0x2380 DUP2 PUSH2 0x211C JUMP JUMPDEST SWAP1 POP SWAP2 SWAP1 POP JUMP JUMPDEST PUSH1 0x0 PUSH1 0x20 DUP3 ADD SWAP1 POP DUP2 DUP2 SUB PUSH1 0x0 DUP4 ADD MSTORE PUSH2 0x23A0 DUP2 PUSH2 0x213F JUMP JUMPDEST SWAP1 POP SWAP2 SWAP1 POP JUMP JUMPDEST PUSH1 0x0 PUSH1 0x20 DUP3 ADD SWAP1 POP DUP2 DUP2 SUB PUSH1 0x0 DUP4 ADD MSTORE PUSH2 0x23C0 DUP2 PUSH2 0x2162 JUMP JUMPDEST SWAP1 POP SWAP2 SWAP1 POP JUMP JUMPDEST PUSH1 0x0 PUSH1 0x20 DUP3 ADD SWAP1 POP DUP2 DUP2 SUB PUSH1 0x0 DUP4 ADD MSTORE PUSH2 0x23E0 DUP2 PUSH2 0x2185 JUMP JUMPDEST SWAP1 POP SWAP2 SWAP1 POP JUMP JUMPDEST PUSH1 0x0 PUSH1 0x20 DUP3 ADD SWAP1 POP DUP2 DUP2 SUB PUSH1 0x0 DUP4 ADD MSTORE PUSH2 0x2400 DUP2 PUSH2 0x21A8 JUMP JUMPDEST SWAP1 POP SWAP2 SWAP1 POP JUMP JUMPDEST PUSH1 0x0 PUSH1 0x20 DUP3 ADD SWAP1 POP DUP2 DUP2 SUB PUSH1 0x0 DUP4 ADD MSTORE PUSH2 0x2420 DUP2 PUSH2 0x21CB JUMP JUMPDEST SWAP1 POP SWAP2 SWAP1 POP JUMP JUMPDEST PUSH1 0x0 PUSH1 0x20 DUP3 ADD SWAP1 POP PUSH2 0x243C PUSH1 0x0 DUP4 ADD DUP5 PUSH2 0x21EE JUMP JUMPDEST SWAP3 SWAP2 POP POP JUMP JUMPDEST PUSH1 0x0 PUSH2 0x244C PUSH2 0x245D JUMP JUMPDEST SWAP1 POP PUSH2 0x2458 DUP3 DUP3 PUSH2 0x25D7 JUMP JUMPDEST SWAP2 SWAP1 POP JUMP JUMPDEST PUSH1 0x0 PUSH1 0x40 MLOAD SWAP1 POP SWAP1 JUMP JUMPDEST PUSH1 0x0 PUSH8 0xFFFFFFFFFFFFFFFF DUP3 GT ISZERO PUSH2 0x2482 JUMPI PUSH2 0x2481 PUSH2 0x270D JUMP JUMPDEST JUMPDEST PUSH2 0x248B DUP3 PUSH2 0x2750 JUMP JUMPDEST SWAP1 POP PUSH1 0x20 DUP2 ADD SWAP1 POP SWAP2 SWAP1 POP JUMP JUMPDEST PUSH1 0x0 DUP2 SWAP1 POP PUSH1 0x20 DUP3 ADD SWAP1 POP SWAP2 SWAP1 POP JUMP JUMPDEST PUSH1 0x0 DUP2 MLOAD SWAP1 POP SWAP2 SWAP1 POP JUMP JUMPDEST PUSH1 0x0 DUP2 MLOAD SWAP1 POP SWAP2 SWAP1 POP JUMP JUMPDEST PUSH1 0x0 PUSH1 0x20 DUP3 ADD SWAP1 POP SWAP2 SWAP1 POP JUMP JUMPDEST PUSH1 0x0 DUP3 DUP3 MSTORE PUSH1 0x20 DUP3 ADD SWAP1 POP SWAP3 SWAP2 POP POP JUMP JUMPDEST PUSH1 0x0 DUP3 DUP3 MSTORE PUSH1 0x20 DUP3 ADD SWAP1 POP SWAP3 SWAP2 POP POP JUMP JUMPDEST PUSH1 0x0 DUP2 SWAP1 POP SWAP3 SWAP2 POP POP JUMP JUMPDEST PUSH1 0x0 PUSH2 0x2503 DUP3 PUSH2 0x2527 JUMP JUMPDEST SWAP1 POP SWAP2 SWAP1 POP JUMP JUMPDEST PUSH1 0x0 DUP2 SWAP1 POP SWAP2 SWAP1 POP JUMP JUMPDEST PUSH1 0x0 DUP2 SWAP1 POP PUSH2 0x2522 DUP3 PUSH2 0x29BC JUMP JUMPDEST SWAP2 SWAP1 POP JUMP JUMPDEST PUSH1 0x0 PUSH20 0xFFFFFFFFFFFFFFFFFFFFFFFFFFFFFFFFFFFFFFFF DUP3 AND SWAP1 POP SWAP2 SWAP1 POP JUMP JUMPDEST PUSH1 0x0 DUP2 SWAP1 POP SWAP2 SWAP1 POP JUMP JUMPDEST PUSH1 0x0 PUSH2 0x255C DUP3 PUSH2 0x2514 JUMP JUMPDEST SWAP1 POP SWAP2 SWAP1 POP JUMP JUMPDEST DUP3 DUP2 DUP4 CALLDATACOPY PUSH1 0x0 DUP4 DUP4 ADD MSTORE POP POP POP JUMP JUMPDEST PUSH1 0x0 JUMPDEST DUP4 DUP2 LT ISZERO PUSH2 0x2590 JUMPI DUP1 DUP3 ADD MLOAD DUP2 DUP5 ADD MSTORE PUSH1 0x20 DUP2 ADD SWAP1 POP PUSH2 0x2575 JUMP JUMPDEST DUP4 DUP2 GT ISZERO PUSH2 0x259F JUMPI PUSH1 0x0 DUP5 DUP5 ADD MSTORE JUMPDEST POP POP POP POP JUMP JUMPDEST PUSH1 0x0 PUSH1 0x2 DUP3 DIV SWAP1 POP PUSH1 0x1 DUP3 AND DUP1 PUSH2 0x25BD JUMPI PUSH1 0x7F DUP3 AND SWAP2 POP JUMPDEST PUSH1 0x20 DUP3 LT DUP2 EQ ISZERO PUSH2 0x25D1 JUMPI PUSH2 0x25D0 PUSH2 0x26AF JUMP JUMPDEST JUMPDEST POP SWAP2 SWAP1 POP JUMP JUMPDEST PUSH2 0x25E0 DUP3 PUSH2 0x2750 JUMP JUMPDEST DUP2 ADD DUP2 DUP2 LT PUSH8 0xFFFFFFFFFFFFFFFF DUP3 GT OR ISZERO PUSH2 0x25FF JUMPI PUSH2 0x25FE PUSH2 0x270D JUMP JUMPDEST JUMPDEST DUP1 PUSH1 0x40 MSTORE POP POP POP JUMP JUMPDEST PUSH1 0x0 PUSH2 0x2613 DUP3 PUSH2 0x2547 JUMP JUMPDEST SWAP2 POP PUSH32 0xFFFFFFFFFFFFFFFFFFFFFFFFFFFFFFFFFFFFFFFFFFFFFFFFFFFFFFFFFFFFFFFF DUP3 EQ ISZERO PUSH2 0x2646 JUMPI PUSH2 0x2645 PUSH2 0x2651 JUMP JUMPDEST JUMPDEST PUSH1 0x1 DUP3 ADD SWAP1 POP SWAP2 SWAP1 POP JUMP JUMPDEST PUSH32 0x4E487B7100000000000000000000000000000000000000000000000000000000 PUSH1 0x0 MSTORE PUSH1 0x11 PUSH1 0x4 MSTORE PUSH1 0x24 PUSH1 0x0 REVERT JUMPDEST PUSH32 0x4E487B7100000000000000000000000000000000000000000000000000000000 PUSH1 0x0 MSTORE PUSH1 0x21 PUSH1 0x4 MSTORE PUSH1 0x24 PUSH1 0x0 REVERT JUMPDEST PUSH32 0x4E487B7100000000000000000000000000000000000000000000000000000000 PUSH1 0x0 MSTORE PUSH1 0x22 PUSH1 0x4 MSTORE PUSH1 0x24 PUSH1 0x0 REVERT JUMPDEST PUSH32 0x4E487B7100000000000000000000000000000000000000000000000000000000 PUSH1 0x0 MSTORE PUSH1 0x32 PUSH1 0x4 MSTORE PUSH1 0x24 PUSH1 0x0 REVERT JUMPDEST PUSH32 0x4E487B7100000000000000000000000000000000000000000000000000000000 PUSH1 0x0 MSTORE PUSH1 0x41 PUSH1 0x4 MSTORE PUSH1 0x24 PUSH1 0x0 REVERT JUMPDEST PUSH1 0x0 DUP1 REVERT JUMPDEST PUSH1 0x0 DUP1 REVERT JUMPDEST PUSH1 0x0 DUP1 REVERT JUMPDEST PUSH1 0x0 DUP1 REVERT JUMPDEST PUSH1 0x0 PUSH1 0x1F NOT PUSH1 0x1F DUP4 ADD AND SWAP1 POP SWAP2 SWAP1 POP JUMP JUMPDEST PUSH32 0x52657669657720746865206170706C69636174696F6E20666972737400000000 PUSH1 0x0 DUP3 ADD MSTORE POP JUMP JUMPDEST PUSH32 0x506861736520616C726561647920616374697665000000000000000000000000 PUSH1 0x0 DUP3 ADD MSTORE POP JUMP JUMPDEST PUSH32 0x4170706C69636174696F6E20616C72656164792073656E740000000000000000 PUSH1 0x0 DUP3 ADD MSTORE POP JUMP JUMPDEST PUSH32 0x596F7572206170706C69636174696F6E2068617320616C726561647920626565 PUSH1 0x0 DUP3 ADD MSTORE PUSH32 0x6E2072656A656374656400000000000000000000000000000000000000000000 PUSH1 0x20 DUP3 ADD MSTORE POP JUMP JUMPDEST PUSH32 0x596F7520617265206E6F7420746865206F776E6572206F722070726976617465 PUSH1 0x0 DUP3 ADD MSTORE PUSH32 0x2070726F76696465720000000000000000000000000000000000000000000000 PUSH1 0x20 DUP3 ADD MSTORE POP JUMP JUMPDEST PUSH32 0x4170706C69636174696F6E2063616E206F6E6C79206265207375626D69747465 PUSH1 0x0 DUP3 ADD MSTORE PUSH32 0x6420627920726567756C61722075736572730000000000000000000000000000 PUSH1 0x20 DUP3 ADD MSTORE POP JUMP JUMPDEST PUSH32 0x506861736520686173206E6F7420796574206265656E20616374697661746564 PUSH1 0x0 DUP3 ADD MSTORE POP JUMP JUMPDEST PUSH32 0x596F7572206E6F742061646D696E000000000000000000000000000000000000 PUSH1 0x0 DUP3 ADD MSTORE POP JUMP JUMPDEST PUSH32 0x596F7572206E6F7420507269766174652070726F766964657200000000000000 PUSH1 0x0 DUP3 ADD MSTORE POP JUMP JUMPDEST PUSH32 0x4170706C69636174696F6E20706861736520656E646564000000000000000000 PUSH1 0x0 DUP3 ADD MSTORE POP JUMP JUMPDEST PUSH32 0x596F752063616E27742073656E6420616E206170706C69636174696F6E20746F PUSH1 0x0 DUP3 ADD MSTORE PUSH32 0x20736F6D656F6E6520656C736527732061646472657373000000000000000000 PUSH1 0x20 DUP3 ADD MSTORE POP JUMP JUMPDEST PUSH1 0x5 DUP2 LT PUSH2 0x29CD JUMPI PUSH2 0x29CC PUSH2 0x2680 JUMP JUMPDEST JUMPDEST POP JUMP JUMPDEST PUSH2 0x29D9 DUP2 PUSH2 0x24F8 JUMP JUMPDEST DUP2 EQ PUSH2 0x29E4 JUMPI PUSH1 0x0 DUP1 REVERT JUMPDEST POP JUMP JUMPDEST PUSH2 0x29F0 DUP2 PUSH2 0x2547 JUMP JUMPDEST DUP2 EQ PUSH2 0x29FB JUMPI PUSH1 0x0 DUP1 REVERT JUMPDEST POP JUMP INVALID LOG2 PUSH5 0x6970667358 0x22 SLT KECCAK256 0xD3 MUL MSTORE 0xBD 0xA5 0xD5 0xE6 PUSH3 0x3B99C9 0xAF INVALID SGT PUSH9 0x97AA607C10DF336BA1 0xED PUSH28 0xC93BB8D5E94164736F6C634300080700330000000000000000000000 "
				},
				"gasEstimates": {
					"creation": {
						"codeDepositCost": "2160800",
						"executionCost": "46514",
						"totalCost": "2207314"
					},
					"external": {
						"acceptApplication(address)": "infinite",
						"application(string,string,address)": "infinite",
						"changeTokenAmountPricePrivate(uint256)": "24871",
						"deviationApplication(address)": "29558",
						"endPrivatePhase()": "148923",
						"getApplicationAmountAdr()": "infinite",
						"getBalanceEth(address)": "3279",
						"getBalancePrivateToken(address)": "2913",
						"getBalancePublicToken(address)": "2892",
						"getBalanceSeedToken(address)": "2937",
						"get_blackList()": "infinite",
						"get_keccak256(string)": "infinite",
						"get_whiteList()": "infinite",
						"startPrivatePhase()": "55848",
						"structUsers_(address)": "infinite",
						"tokenAmount_()": "2518",
						"tokenPrice_()": "2475"
					}
				},
				"methodIdentifiers": {
					"acceptApplication(address)": "a678b65b",
					"application(string,string,address)": "785963c3",
					"changeTokenAmountPricePrivate(uint256)": "8aa7cc0b",
					"deviationApplication(address)": "1d3eea35",
					"endPrivatePhase()": "7f4b8df0",
					"getApplicationAmountAdr()": "686c4cea",
					"getBalanceEth(address)": "99067ede",
					"getBalancePrivateToken(address)": "b06cdc12",
					"getBalancePublicToken(address)": "72f0d72b",
					"getBalanceSeedToken(address)": "2599d6d0",
					"get_blackList()": "7f89128f",
					"get_keccak256(string)": "8e4f8c6b",
					"get_whiteList()": "c10e3911",
					"startPrivatePhase()": "0691615d",
					"structUsers_(address)": "fc837259",
					"tokenAmount_()": "948942ad",
					"tokenPrice_()": "0761c8b9"
				}
			},
			"storageLayout": {
				"storage": [
					{
						"astId": 580,
						"contract": "GitHub/contract-token-cryptoMonster/backend/components/PhasePrivate.sol:PhasePrivate",
						"label": "structUsers_",
						"offset": 0,
						"slot": "0",
						"type": "t_mapping(t_address,t_struct(structUser)575_storage)"
					},
					{
						"astId": 586,
						"contract": "GitHub/contract-token-cryptoMonster/backend/components/PhasePrivate.sol:PhasePrivate",
						"label": "allowed",
						"offset": 0,
						"slot": "1",
						"type": "t_mapping(t_address,t_mapping(t_address,t_uint256))"
					},
					{
						"astId": 589,
						"contract": "GitHub/contract-token-cryptoMonster/backend/components/PhasePrivate.sol:PhasePrivate",
						"label": "tokenPrice_",
						"offset": 0,
						"slot": "2",
						"type": "t_uint256"
					},
					{
						"astId": 592,
						"contract": "GitHub/contract-token-cryptoMonster/backend/components/PhasePrivate.sol:PhasePrivate",
						"label": "tokenAmount_",
						"offset": 0,
						"slot": "3",
						"type": "t_uint256"
					},
					{
						"astId": 611,
						"contract": "GitHub/contract-token-cryptoMonster/backend/components/PhasePrivate.sol:PhasePrivate",
						"label": "structPhases_",
						"offset": 0,
						"slot": "4",
						"type": "t_mapping(t_address,t_struct(structPhase)606_storage)"
					},
					{
						"astId": 629,
						"contract": "GitHub/contract-token-cryptoMonster/backend/components/PhasePrivate.sol:PhasePrivate",
						"label": "strucApplications_",
						"offset": 0,
						"slot": "5",
						"type": "t_mapping(t_address,t_struct(structApplication)624_storage)"
					},
					{
						"astId": 632,
						"contract": "GitHub/contract-token-cryptoMonster/backend/components/PhasePrivate.sol:PhasePrivate",
						"label": "structApplicationsAmountAdr",
						"offset": 0,
						"slot": "6",
						"type": "t_array(t_address)dyn_storage"
					},
					{
						"astId": 635,
						"contract": "GitHub/contract-token-cryptoMonster/backend/components/PhasePrivate.sol:PhasePrivate",
						"label": "whiteList",
						"offset": 0,
						"slot": "7",
						"type": "t_array(t_address)dyn_storage"
					},
					{
						"astId": 638,
						"contract": "GitHub/contract-token-cryptoMonster/backend/components/PhasePrivate.sol:PhasePrivate",
						"label": "blackList",
						"offset": 0,
						"slot": "8",
						"type": "t_array(t_address)dyn_storage"
					}
				],
				"types": {
					"t_address": {
						"encoding": "inplace",
						"label": "address",
						"numberOfBytes": "20"
					},
					"t_array(t_address)dyn_storage": {
						"base": "t_address",
						"encoding": "dynamic_array",
						"label": "address[]",
						"numberOfBytes": "32"
					},
					"t_bool": {
						"encoding": "inplace",
						"label": "bool",
						"numberOfBytes": "1"
					},
					"t_bytes32": {
						"encoding": "inplace",
						"label": "bytes32",
						"numberOfBytes": "32"
					},
					"t_enum(Role)559": {
						"encoding": "inplace",
						"label": "enum structures.Role",
						"numberOfBytes": "1"
					},
					"t_mapping(t_address,t_mapping(t_address,t_uint256))": {
						"encoding": "mapping",
						"key": "t_address",
						"label": "mapping(address => mapping(address => uint256))",
						"numberOfBytes": "32",
						"value": "t_mapping(t_address,t_uint256)"
					},
					"t_mapping(t_address,t_struct(structApplication)624_storage)": {
						"encoding": "mapping",
						"key": "t_address",
						"label": "mapping(address => struct structures.structApplication)",
						"numberOfBytes": "32",
						"value": "t_struct(structApplication)624_storage"
					},
					"t_mapping(t_address,t_struct(structPhase)606_storage)": {
						"encoding": "mapping",
						"key": "t_address",
						"label": "mapping(address => struct structures.structPhase)",
						"numberOfBytes": "32",
						"value": "t_struct(structPhase)606_storage"
					},
					"t_mapping(t_address,t_struct(structUser)575_storage)": {
						"encoding": "mapping",
						"key": "t_address",
						"label": "mapping(address => struct structures.structUser)",
						"numberOfBytes": "32",
						"value": "t_struct(structUser)575_storage"
					},
					"t_mapping(t_address,t_uint256)": {
						"encoding": "mapping",
						"key": "t_address",
						"label": "mapping(address => uint256)",
						"numberOfBytes": "32",
						"value": "t_uint256"
					},
					"t_string_storage": {
						"encoding": "bytes",
						"label": "string",
						"numberOfBytes": "32"
					},
					"t_struct(structApplication)624_storage": {
						"encoding": "inplace",
						"label": "struct structures.structApplication",
						"members": [
							{
								"astId": 613,
								"contract": "GitHub/contract-token-cryptoMonster/backend/components/PhasePrivate.sol:PhasePrivate",
								"label": "name",
								"offset": 0,
								"slot": "0",
								"type": "t_string_storage"
							},
							{
								"astId": 615,
								"contract": "GitHub/contract-token-cryptoMonster/backend/components/PhasePrivate.sol:PhasePrivate",
								"label": "contactForCommunication",
								"offset": 0,
								"slot": "1",
								"type": "t_string_storage"
							},
							{
								"astId": 617,
								"contract": "GitHub/contract-token-cryptoMonster/backend/components/PhasePrivate.sol:PhasePrivate",
								"label": "userAdr",
								"offset": 0,
								"slot": "2",
								"type": "t_address"
							},
							{
								"astId": 619,
								"contract": "GitHub/contract-token-cryptoMonster/backend/components/PhasePrivate.sol:PhasePrivate",
								"label": "status",
								"offset": 20,
								"slot": "2",
								"type": "t_bool"
							},
							{
								"astId": 621,
								"contract": "GitHub/contract-token-cryptoMonster/backend/components/PhasePrivate.sol:PhasePrivate",
								"label": "reviewed",
								"offset": 21,
								"slot": "2",
								"type": "t_bool"
							},
							{
								"astId": 623,
								"contract": "GitHub/contract-token-cryptoMonster/backend/components/PhasePrivate.sol:PhasePrivate",
								"label": "exist",
								"offset": 22,
								"slot": "2",
								"type": "t_bool"
							}
						],
						"numberOfBytes": "96"
					},
					"t_struct(structPhase)606_storage": {
						"encoding": "inplace",
						"label": "struct structures.structPhase",
						"members": [
							{
								"astId": 603,
								"contract": "GitHub/contract-token-cryptoMonster/backend/components/PhasePrivate.sol:PhasePrivate",
								"label": "statusPhase",
								"offset": 0,
								"slot": "0",
								"type": "t_bool"
							},
							{
								"astId": 605,
								"contract": "GitHub/contract-token-cryptoMonster/backend/components/PhasePrivate.sol:PhasePrivate",
								"label": "reviewed",
								"offset": 1,
								"slot": "0",
								"type": "t_bool"
							}
						],
						"numberOfBytes": "32"
					},
					"t_struct(structUser)575_storage": {
						"encoding": "inplace",
						"label": "struct structures.structUser",
						"members": [
							{
								"astId": 562,
								"contract": "GitHub/contract-token-cryptoMonster/backend/components/PhasePrivate.sol:PhasePrivate",
								"label": "role",
								"offset": 0,
								"slot": "0",
								"type": "t_enum(Role)559"
							},
							{
								"astId": 564,
								"contract": "GitHub/contract-token-cryptoMonster/backend/components/PhasePrivate.sol:PhasePrivate",
								"label": "login",
								"offset": 0,
								"slot": "1",
								"type": "t_string_storage"
							},
							{
								"astId": 566,
								"contract": "GitHub/contract-token-cryptoMonster/backend/components/PhasePrivate.sol:PhasePrivate",
								"label": "password",
								"offset": 0,
								"slot": "2",
								"type": "t_bytes32"
							},
							{
								"astId": 568,
								"contract": "GitHub/contract-token-cryptoMonster/backend/components/PhasePrivate.sol:PhasePrivate",
								"label": "balance_overall",
								"offset": 0,
								"slot": "3",
								"type": "t_uint256"
							},
							{
								"astId": 570,
								"contract": "GitHub/contract-token-cryptoMonster/backend/components/PhasePrivate.sol:PhasePrivate",
								"label": "balance_seed",
								"offset": 0,
								"slot": "4",
								"type": "t_uint256"
							},
							{
								"astId": 572,
								"contract": "GitHub/contract-token-cryptoMonster/backend/components/PhasePrivate.sol:PhasePrivate",
								"label": "balance_private",
								"offset": 0,
								"slot": "5",
								"type": "t_uint256"
							},
							{
								"astId": 574,
								"contract": "GitHub/contract-token-cryptoMonster/backend/components/PhasePrivate.sol:PhasePrivate",
								"label": "balance_public",
								"offset": 0,
								"slot": "6",
								"type": "t_uint256"
							}
						],
						"numberOfBytes": "224"
					},
					"t_uint256": {
						"encoding": "inplace",
						"label": "uint256",
						"numberOfBytes": "32"
					}
				}
			},
			"userdoc": {
				"kind": "user",
				"methods": {},
				"version": 1
			}
		}
	}
}