{
	"GitHub/contract-token-cryptoMonster/backend/components/PhasePublic.sol": {
		"PhasePublic": {
			"abi": [
				{
					"inputs": [
						{
							"internalType": "uint256",
							"name": "_price",
							"type": "uint256"
						}
					],
					"name": "changeTokenAmountPricePublic",
					"outputs": [],
					"stateMutability": "nonpayable",
					"type": "function"
				},
				{
					"inputs": [
						{
							"internalType": "address",
							"name": "adr",
							"type": "address"
						}
					],
					"name": "getBalanceEth",
					"outputs": [
						{
							"internalType": "uint256",
							"name": "",
							"type": "uint256"
						}
					],
					"stateMutability": "view",
					"type": "function"
				},
				{
					"inputs": [
						{
							"internalType": "address",
							"name": "_userAdr",
							"type": "address"
						}
					],
					"name": "getBalancePrivateToken",
					"outputs": [
						{
							"internalType": "uint256",
							"name": "",
							"type": "uint256"
						}
					],
					"stateMutability": "view",
					"type": "function"
				},
				{
					"inputs": [
						{
							"internalType": "address",
							"name": "_userAdr",
							"type": "address"
						}
					],
					"name": "getBalancePublicToken",
					"outputs": [
						{
							"internalType": "uint256",
							"name": "",
							"type": "uint256"
						}
					],
					"stateMutability": "view",
					"type": "function"
				},
				{
					"inputs": [
						{
							"internalType": "address",
							"name": "_userAdr",
							"type": "address"
						}
					],
					"name": "getBalanceSeedToken",
					"outputs": [
						{
							"internalType": "uint256",
							"name": "",
							"type": "uint256"
						}
					],
					"stateMutability": "view",
					"type": "function"
				},
				{
					"inputs": [],
					"name": "get_blackList",
					"outputs": [
						{
							"internalType": "address[]",
							"name": "",
							"type": "address[]"
						}
					],
					"stateMutability": "view",
					"type": "function"
				},
				{
					"inputs": [
						{
							"internalType": "string",
							"name": "_hash",
							"type": "string"
						}
					],
					"name": "get_keccak256",
					"outputs": [
						{
							"internalType": "bytes32",
							"name": "",
							"type": "bytes32"
						}
					],
					"stateMutability": "pure",
					"type": "function"
				},
				{
					"inputs": [],
					"name": "get_whiteList",
					"outputs": [
						{
							"internalType": "address[]",
							"name": "",
							"type": "address[]"
						}
					],
					"stateMutability": "view",
					"type": "function"
				},
				{
					"inputs": [
						{
							"internalType": "address",
							"name": "",
							"type": "address"
						}
					],
					"name": "structUsers_",
					"outputs": [
						{
							"internalType": "enum structures.Role",
							"name": "role",
							"type": "uint8"
						},
						{
							"internalType": "string",
							"name": "login",
							"type": "string"
						},
						{
							"internalType": "bytes32",
							"name": "password",
							"type": "bytes32"
						},
						{
							"internalType": "uint256",
							"name": "balance_overall",
							"type": "uint256"
						},
						{
							"internalType": "uint256",
							"name": "balance_seed",
							"type": "uint256"
						},
						{
							"internalType": "uint256",
							"name": "balance_private",
							"type": "uint256"
						},
						{
							"internalType": "uint256",
							"name": "balance_public",
							"type": "uint256"
						}
					],
					"stateMutability": "view",
					"type": "function"
				},
				{
					"inputs": [],
					"name": "tokenAmount_",
					"outputs": [
						{
							"internalType": "uint256",
							"name": "",
							"type": "uint256"
						}
					],
					"stateMutability": "view",
					"type": "function"
				},
				{
					"inputs": [],
					"name": "tokenPrice_",
					"outputs": [
						{
							"internalType": "uint256",
							"name": "",
							"type": "uint256"
						}
					],
					"stateMutability": "view",
					"type": "function"
				}
			],
			"devdoc": {
				"kind": "dev",
				"methods": {},
				"version": 1
			},
			"evm": {
				"assembly": "    /* \"GitHub/contract-token-cryptoMonster/backend/components/PhasePublic.sol\":121:379  contract PhasePublic is validateFuncs {\r... */\n  mstore(0x40, 0x80)\n    /* \"GitHub/contract-token-cryptoMonster/backend/shared/lib/structures.sol\":1152:1161  750000000 */\n  0x2cb41780\n    /* \"GitHub/contract-token-cryptoMonster/backend/shared/lib/structures.sol\":1123:1161  uint256 public tokenPrice_ = 750000000 */\n  0x02\n  sstore\n    /* \"GitHub/contract-token-cryptoMonster/backend/shared/lib/structures.sol\":1412:1418  100000 */\n  0x0186a0\n    /* \"GitHub/contract-token-cryptoMonster/backend/shared/lib/structures.sol\":1385:1418  uint public tokenAmount_ = 100000 */\n  0x03\n  sstore\n    /* \"GitHub/contract-token-cryptoMonster/backend/components/PhasePublic.sol\":121:379  contract PhasePublic is validateFuncs {\r... */\n  callvalue\n  dup1\n  iszero\n  tag_1\n  jumpi\n  0x00\n  dup1\n  revert\ntag_1:\n  pop\n  dataSize(sub_0)\n  dup1\n  dataOffset(sub_0)\n  0x00\n  codecopy\n  0x00\n  return\nstop\n\nsub_0: assembly {\n        /* \"GitHub/contract-token-cryptoMonster/backend/components/PhasePublic.sol\":121:379  contract PhasePublic is validateFuncs {\r... */\n      mstore(0x40, 0x80)\n      callvalue\n      dup1\n      iszero\n      tag_1\n      jumpi\n      0x00\n      dup1\n      revert\n    tag_1:\n      pop\n      jumpi(tag_2, lt(calldatasize, 0x04))\n      shr(0xe0, calldataload(0x00))\n      dup1\n      0x8e4f8c6b\n      gt\n      tag_14\n      jumpi\n      dup1\n      0x8e4f8c6b\n      eq\n      tag_8\n      jumpi\n      dup1\n      0x948942ad\n      eq\n      tag_9\n      jumpi\n      dup1\n      0x99067ede\n      eq\n      tag_10\n      jumpi\n      dup1\n      0xb06cdc12\n      eq\n      tag_11\n      jumpi\n      dup1\n      0xc10e3911\n      eq\n      tag_12\n      jumpi\n      dup1\n      0xfc837259\n      eq\n      tag_13\n      jumpi\n      jump(tag_2)\n    tag_14:\n      dup1\n      0x0761c8b9\n      eq\n      tag_3\n      jumpi\n      dup1\n      0x2599d6d0\n      eq\n      tag_4\n      jumpi\n      dup1\n      0x32cbdd03\n      eq\n      tag_5\n      jumpi\n      dup1\n      0x72f0d72b\n      eq\n      tag_6\n      jumpi\n      dup1\n      0x7f89128f\n      eq\n      tag_7\n      jumpi\n    tag_2:\n      0x00\n      dup1\n      revert\n        /* \"GitHub/contract-token-cryptoMonster/backend/shared/lib/structures.sol\":1123:1161  uint256 public tokenPrice_ = 750000000 */\n    tag_3:\n      tag_15\n      tag_16\n      jump\t// in\n    tag_15:\n      mload(0x40)\n      tag_17\n      swap2\n      swap1\n      tag_18\n      jump\t// in\n    tag_17:\n      mload(0x40)\n      dup1\n      swap2\n      sub\n      swap1\n      return\n        /* \"GitHub/contract-token-cryptoMonster/backend/shared/helpers/helpresFunc.sol\":849:988  function getBalanceSeedToken (address _userAdr) public view returns (uint256) {\r... */\n    tag_4:\n      tag_19\n      0x04\n      dup1\n      calldatasize\n      sub\n      dup2\n      add\n      swap1\n      tag_20\n      swap2\n      swap1\n      tag_21\n      jump\t// in\n    tag_20:\n      tag_22\n      jump\t// in\n    tag_19:\n      mload(0x40)\n      tag_23\n      swap2\n      swap1\n      tag_18\n      jump\t// in\n    tag_23:\n      mload(0x40)\n      dup1\n      swap2\n      sub\n      swap1\n      return\n        /* \"GitHub/contract-token-cryptoMonster/backend/components/PhasePublic.sol\":257:374  function changeTokenAmountPricePublic (uint _price) public onlyPublicProvider {\r... */\n    tag_5:\n      tag_24\n      0x04\n      dup1\n      calldatasize\n      sub\n      dup2\n      add\n      swap1\n      tag_25\n      swap2\n      swap1\n      tag_26\n      jump\t// in\n    tag_25:\n      tag_27\n      jump\t// in\n    tag_24:\n      stop\n        /* \"GitHub/contract-token-cryptoMonster/backend/shared/helpers/helpresFunc.sol\":1352:1495  function getBalancePublicToken (address _userAdr) public view returns (uint256) {\r... */\n    tag_6:\n      tag_28\n      0x04\n      dup1\n      calldatasize\n      sub\n      dup2\n      add\n      swap1\n      tag_29\n      swap2\n      swap1\n      tag_21\n      jump\t// in\n    tag_29:\n      tag_30\n      jump\t// in\n    tag_28:\n      mload(0x40)\n      tag_31\n      swap2\n      swap1\n      tag_18\n      jump\t// in\n    tag_31:\n      mload(0x40)\n      dup1\n      swap2\n      sub\n      swap1\n      return\n        /* \"GitHub/contract-token-cryptoMonster/backend/shared/helpers/helpresFunc.sol\":632:742  function get_blackList() public onlyOwner view returns (address[] memory) {\r... */\n    tag_7:\n      tag_32\n      tag_33\n      jump\t// in\n    tag_32:\n      mload(0x40)\n      tag_34\n      swap2\n      swap1\n      tag_35\n      jump\t// in\n    tag_34:\n      mload(0x40)\n      dup1\n      swap2\n      sub\n      swap1\n      return\n        /* \"GitHub/contract-token-cryptoMonster/backend/shared/helpers/helpresFunc.sol\":212:350  function get_keccak256(string memory _hash) public pure returns(bytes32) {\r... */\n    tag_8:\n      tag_36\n      0x04\n      dup1\n      calldatasize\n      sub\n      dup2\n      add\n      swap1\n      tag_37\n      swap2\n      swap1\n      tag_38\n      jump\t// in\n    tag_37:\n      tag_39\n      jump\t// in\n    tag_36:\n      mload(0x40)\n      tag_40\n      swap2\n      swap1\n      tag_41\n      jump\t// in\n    tag_40:\n      mload(0x40)\n      dup1\n      swap2\n      sub\n      swap1\n      return\n        /* \"GitHub/contract-token-cryptoMonster/backend/shared/lib/structures.sol\":1385:1418  uint public tokenAmount_ = 100000 */\n    tag_9:\n      tag_42\n      tag_43\n      jump\t// in\n    tag_42:\n      mload(0x40)\n      tag_44\n      swap2\n      swap1\n      tag_18\n      jump\t// in\n    tag_44:\n      mload(0x40)\n      dup1\n      swap2\n      sub\n      swap1\n      return\n        /* \"GitHub/contract-token-cryptoMonster/backend/shared/helpers/helpresFunc.sol\":1595:1706  function getBalanceEth(address adr) public view returns(uint256) {\r... */\n    tag_10:\n      tag_45\n      0x04\n      dup1\n      calldatasize\n      sub\n      dup2\n      add\n      swap1\n      tag_46\n      swap2\n      swap1\n      tag_21\n      jump\t// in\n    tag_46:\n      tag_47\n      jump\t// in\n    tag_45:\n      mload(0x40)\n      tag_48\n      swap2\n      swap1\n      tag_18\n      jump\t// in\n    tag_48:\n      mload(0x40)\n      dup1\n      swap2\n      sub\n      swap1\n      return\n        /* \"GitHub/contract-token-cryptoMonster/backend/shared/helpers/helpresFunc.sol\":1098:1243  function getBalancePrivateToken (address _userAdr) public view returns (uint256) {\r... */\n    tag_11:\n      tag_49\n      0x04\n      dup1\n      calldatasize\n      sub\n      dup2\n      add\n      swap1\n      tag_50\n      swap2\n      swap1\n      tag_21\n      jump\t// in\n    tag_50:\n      tag_51\n      jump\t// in\n    tag_49:\n      mload(0x40)\n      tag_52\n      swap2\n      swap1\n      tag_18\n      jump\t// in\n    tag_52:\n      mload(0x40)\n      dup1\n      swap2\n      sub\n      swap1\n      return\n        /* \"GitHub/contract-token-cryptoMonster/backend/shared/helpers/helpresFunc.sol\":426:554  function get_whiteList() public onlyOwnerAndPrivateProvider view returns (address[] memory) {\r... */\n    tag_12:\n      tag_53\n      tag_54\n      jump\t// in\n    tag_53:\n      mload(0x40)\n      tag_55\n      swap2\n      swap1\n      tag_35\n      jump\t// in\n    tag_55:\n      mload(0x40)\n      dup1\n      swap2\n      sub\n      swap1\n      return\n        /* \"GitHub/contract-token-cryptoMonster/backend/shared/lib/structures.sol\":836:887  mapping (address => structUser) public structUsers_ */\n    tag_13:\n      tag_56\n      0x04\n      dup1\n      calldatasize\n      sub\n      dup2\n      add\n      swap1\n      tag_57\n      swap2\n      swap1\n      tag_21\n      jump\t// in\n    tag_57:\n      tag_58\n      jump\t// in\n    tag_56:\n      mload(0x40)\n      tag_59\n      swap8\n      swap7\n      swap6\n      swap5\n      swap4\n      swap3\n      swap2\n      swap1\n      tag_60\n      jump\t// in\n    tag_59:\n      mload(0x40)\n      dup1\n      swap2\n      sub\n      swap1\n      return\n        /* \"GitHub/contract-token-cryptoMonster/backend/shared/lib/structures.sol\":1123:1161  uint256 public tokenPrice_ = 750000000 */\n    tag_16:\n      sload(0x02)\n      dup2\n      jump\t// out\n        /* \"GitHub/contract-token-cryptoMonster/backend/shared/helpers/helpresFunc.sol\":849:988  function getBalanceSeedToken (address _userAdr) public view returns (uint256) {\r... */\n    tag_22:\n        /* \"GitHub/contract-token-cryptoMonster/backend/shared/helpers/helpresFunc.sol\":918:925  uint256 */\n      0x00\n        /* \"GitHub/contract-token-cryptoMonster/backend/shared/helpers/helpresFunc.sol\":945:957  structUsers_ */\n      dup1\n        /* \"GitHub/contract-token-cryptoMonster/backend/shared/helpers/helpresFunc.sol\":945:967  structUsers_[_userAdr] */\n      0x00\n        /* \"GitHub/contract-token-cryptoMonster/backend/shared/helpers/helpresFunc.sol\":958:966  _userAdr */\n      dup4\n        /* \"GitHub/contract-token-cryptoMonster/backend/shared/helpers/helpresFunc.sol\":945:967  structUsers_[_userAdr] */\n      0xffffffffffffffffffffffffffffffffffffffff\n      and\n      0xffffffffffffffffffffffffffffffffffffffff\n      and\n      dup2\n      mstore\n      0x20\n      add\n      swap1\n      dup2\n      mstore\n      0x20\n      add\n      0x00\n      keccak256\n        /* \"GitHub/contract-token-cryptoMonster/backend/shared/helpers/helpresFunc.sol\":945:980  structUsers_[_userAdr].balance_seed */\n      0x04\n      add\n      sload\n        /* \"GitHub/contract-token-cryptoMonster/backend/shared/helpers/helpresFunc.sol\":938:980  return structUsers_[_userAdr].balance_seed */\n      swap1\n      pop\n        /* \"GitHub/contract-token-cryptoMonster/backend/shared/helpers/helpresFunc.sol\":849:988  function getBalanceSeedToken (address _userAdr) public view returns (uint256) {\r... */\n      swap2\n      swap1\n      pop\n      jump\t// out\n        /* \"GitHub/contract-token-cryptoMonster/backend/components/PhasePublic.sol\":257:374  function changeTokenAmountPricePublic (uint _price) public onlyPublicProvider {\r... */\n    tag_27:\n        /* \"GitHub/contract-token-cryptoMonster/backend/shared/helpers/modifireFunc.sol\":826:844  Role.SYSTEM_PUBLIC */\n      0x01\n        /* \"GitHub/contract-token-cryptoMonster/backend/shared/helpers/modifireFunc.sol\":793:844  structUsers_[msg.sender].role == Role.SYSTEM_PUBLIC */\n      0x04\n      dup2\n      gt\n      iszero\n      tag_63\n      jumpi\n      tag_64\n      tag_65\n      jump\t// in\n    tag_64:\n    tag_63:\n        /* \"GitHub/contract-token-cryptoMonster/backend/shared/helpers/modifireFunc.sol\":793:805  structUsers_ */\n      0x00\n        /* \"GitHub/contract-token-cryptoMonster/backend/shared/helpers/modifireFunc.sol\":793:817  structUsers_[msg.sender] */\n      dup1\n        /* \"GitHub/contract-token-cryptoMonster/backend/shared/helpers/modifireFunc.sol\":806:816  msg.sender */\n      caller\n        /* \"GitHub/contract-token-cryptoMonster/backend/shared/helpers/modifireFunc.sol\":793:817  structUsers_[msg.sender] */\n      0xffffffffffffffffffffffffffffffffffffffff\n      and\n      0xffffffffffffffffffffffffffffffffffffffff\n      and\n      dup2\n      mstore\n      0x20\n      add\n      swap1\n      dup2\n      mstore\n      0x20\n      add\n      0x00\n      keccak256\n        /* \"GitHub/contract-token-cryptoMonster/backend/shared/helpers/modifireFunc.sol\":793:822  structUsers_[msg.sender].role */\n      0x00\n      add\n      0x00\n      swap1\n      sload\n      swap1\n      0x0100\n      exp\n      swap1\n      div\n      0xff\n      and\n        /* \"GitHub/contract-token-cryptoMonster/backend/shared/helpers/modifireFunc.sol\":793:844  structUsers_[msg.sender].role == Role.SYSTEM_PUBLIC */\n      0x04\n      dup2\n      gt\n      iszero\n      tag_66\n      jumpi\n      tag_67\n      tag_65\n      jump\t// in\n    tag_67:\n    tag_66:\n      eq\n        /* \"GitHub/contract-token-cryptoMonster/backend/shared/helpers/modifireFunc.sol\":785:873  require(structUsers_[msg.sender].role == Role.SYSTEM_PUBLIC, \"Your not Public provider\") */\n      tag_68\n      jumpi\n      mload(0x40)\n      0x08c379a000000000000000000000000000000000000000000000000000000000\n      dup2\n      mstore\n      0x04\n      add\n      tag_69\n      swap1\n      tag_70\n      jump\t// in\n    tag_69:\n      mload(0x40)\n      dup1\n      swap2\n      sub\n      swap1\n      revert\n    tag_68:\n        /* \"GitHub/contract-token-cryptoMonster/backend/components/PhasePublic.sol\":360:366  _price */\n      dup1\n        /* \"GitHub/contract-token-cryptoMonster/backend/components/PhasePublic.sol\":346:357  tokenPrice_ */\n      0x02\n        /* \"GitHub/contract-token-cryptoMonster/backend/components/PhasePublic.sol\":346:366  tokenPrice_ = _price */\n      dup2\n      swap1\n      sstore\n      pop\n        /* \"GitHub/contract-token-cryptoMonster/backend/components/PhasePublic.sol\":257:374  function changeTokenAmountPricePublic (uint _price) public onlyPublicProvider {\r... */\n      pop\n      jump\t// out\n        /* \"GitHub/contract-token-cryptoMonster/backend/shared/helpers/helpresFunc.sol\":1352:1495  function getBalancePublicToken (address _userAdr) public view returns (uint256) {\r... */\n    tag_30:\n        /* \"GitHub/contract-token-cryptoMonster/backend/shared/helpers/helpresFunc.sol\":1423:1430  uint256 */\n      0x00\n        /* \"GitHub/contract-token-cryptoMonster/backend/shared/helpers/helpresFunc.sol\":1450:1462  structUsers_ */\n      dup1\n        /* \"GitHub/contract-token-cryptoMonster/backend/shared/helpers/helpresFunc.sol\":1450:1472  structUsers_[_userAdr] */\n      0x00\n        /* \"GitHub/contract-token-cryptoMonster/backend/shared/helpers/helpresFunc.sol\":1463:1471  _userAdr */\n      dup4\n        /* \"GitHub/contract-token-cryptoMonster/backend/shared/helpers/helpresFunc.sol\":1450:1472  structUsers_[_userAdr] */\n      0xffffffffffffffffffffffffffffffffffffffff\n      and\n      0xffffffffffffffffffffffffffffffffffffffff\n      and\n      dup2\n      mstore\n      0x20\n      add\n      swap1\n      dup2\n      mstore\n      0x20\n      add\n      0x00\n      keccak256\n        /* \"GitHub/contract-token-cryptoMonster/backend/shared/helpers/helpresFunc.sol\":1450:1487  structUsers_[_userAdr].balance_public */\n      0x06\n      add\n      sload\n        /* \"GitHub/contract-token-cryptoMonster/backend/shared/helpers/helpresFunc.sol\":1443:1487  return structUsers_[_userAdr].balance_public */\n      swap1\n      pop\n        /* \"GitHub/contract-token-cryptoMonster/backend/shared/helpers/helpresFunc.sol\":1352:1495  function getBalancePublicToken (address _userAdr) public view returns (uint256) {\r... */\n      swap2\n      swap1\n      pop\n      jump\t// out\n        /* \"GitHub/contract-token-cryptoMonster/backend/shared/helpers/helpresFunc.sol\":632:742  function get_blackList() public onlyOwner view returns (address[] memory) {\r... */\n    tag_33:\n        /* \"GitHub/contract-token-cryptoMonster/backend/shared/helpers/helpresFunc.sol\":688:704  address[] memory */\n      0x60\n        /* \"GitHub/contract-token-cryptoMonster/backend/shared/helpers/modifireFunc.sol\":320:337  Role.SYSTEM_OWNER */\n      0x00\n        /* \"GitHub/contract-token-cryptoMonster/backend/shared/helpers/modifireFunc.sol\":287:337  structUsers_[msg.sender].role == Role.SYSTEM_OWNER */\n      0x04\n      dup2\n      gt\n      iszero\n      tag_74\n      jumpi\n      tag_75\n      tag_65\n      jump\t// in\n    tag_75:\n    tag_74:\n        /* \"GitHub/contract-token-cryptoMonster/backend/shared/helpers/modifireFunc.sol\":287:299  structUsers_ */\n      0x00\n        /* \"GitHub/contract-token-cryptoMonster/backend/shared/helpers/modifireFunc.sol\":287:311  structUsers_[msg.sender] */\n      dup1\n        /* \"GitHub/contract-token-cryptoMonster/backend/shared/helpers/modifireFunc.sol\":300:310  msg.sender */\n      caller\n        /* \"GitHub/contract-token-cryptoMonster/backend/shared/helpers/modifireFunc.sol\":287:311  structUsers_[msg.sender] */\n      0xffffffffffffffffffffffffffffffffffffffff\n      and\n      0xffffffffffffffffffffffffffffffffffffffff\n      and\n      dup2\n      mstore\n      0x20\n      add\n      swap1\n      dup2\n      mstore\n      0x20\n      add\n      0x00\n      keccak256\n        /* \"GitHub/contract-token-cryptoMonster/backend/shared/helpers/modifireFunc.sol\":287:316  structUsers_[msg.sender].role */\n      0x00\n      add\n      0x00\n      swap1\n      sload\n      swap1\n      0x0100\n      exp\n      swap1\n      div\n      0xff\n      and\n        /* \"GitHub/contract-token-cryptoMonster/backend/shared/helpers/modifireFunc.sol\":287:337  structUsers_[msg.sender].role == Role.SYSTEM_OWNER */\n      0x04\n      dup2\n      gt\n      iszero\n      tag_76\n      jumpi\n      tag_77\n      tag_65\n      jump\t// in\n    tag_77:\n    tag_76:\n      eq\n        /* \"GitHub/contract-token-cryptoMonster/backend/shared/helpers/modifireFunc.sol\":279:356  require(structUsers_[msg.sender].role == Role.SYSTEM_OWNER, \"Your not admin\") */\n      tag_78\n      jumpi\n      mload(0x40)\n      0x08c379a000000000000000000000000000000000000000000000000000000000\n      dup2\n      mstore\n      0x04\n      add\n      tag_79\n      swap1\n      tag_80\n      jump\t// in\n    tag_79:\n      mload(0x40)\n      dup1\n      swap2\n      sub\n      swap1\n      revert\n    tag_78:\n        /* \"GitHub/contract-token-cryptoMonster/backend/shared/helpers/helpresFunc.sol\":724:733  blackList */\n      0x08\n        /* \"GitHub/contract-token-cryptoMonster/backend/shared/helpers/helpresFunc.sol\":717:734  return(blackList) */\n      dup1\n      sload\n      dup1\n      0x20\n      mul\n      0x20\n      add\n      mload(0x40)\n      swap1\n      dup2\n      add\n      0x40\n      mstore\n      dup1\n      swap3\n      swap2\n      swap1\n      dup2\n      dup2\n      mstore\n      0x20\n      add\n      dup3\n      dup1\n      sload\n      dup1\n      iszero\n      tag_82\n      jumpi\n      0x20\n      mul\n      dup3\n      add\n      swap2\n      swap1\n      0x00\n      mstore\n      keccak256(0x00, 0x20)\n      swap1\n    tag_83:\n      dup2\n      0x00\n      swap1\n      sload\n      swap1\n      0x0100\n      exp\n      swap1\n      div\n      0xffffffffffffffffffffffffffffffffffffffff\n      and\n      0xffffffffffffffffffffffffffffffffffffffff\n      and\n      dup2\n      mstore\n      0x20\n      add\n      swap1\n      0x01\n      add\n      swap1\n      dup1\n      dup4\n      gt\n      tag_83\n      jumpi\n    tag_82:\n      pop\n      pop\n      pop\n      pop\n      pop\n      swap1\n      pop\n        /* \"GitHub/contract-token-cryptoMonster/backend/shared/helpers/helpresFunc.sol\":632:742  function get_blackList() public onlyOwner view returns (address[] memory) {\r... */\n      swap1\n      jump\t// out\n        /* \"GitHub/contract-token-cryptoMonster/backend/shared/helpers/helpresFunc.sol\":212:350  function get_keccak256(string memory _hash) public pure returns(bytes32) {\r... */\n    tag_39:\n        /* \"GitHub/contract-token-cryptoMonster/backend/shared/helpers/helpresFunc.sol\":276:283  bytes32 */\n      0x00\n        /* \"GitHub/contract-token-cryptoMonster/backend/shared/helpers/helpresFunc.sol\":334:339  _hash */\n      dup2\n        /* \"GitHub/contract-token-cryptoMonster/backend/shared/helpers/helpresFunc.sol\":317:340  abi.encodePacked(_hash) */\n      add(0x20, mload(0x40))\n      tag_85\n      swap2\n      swap1\n      tag_86\n      jump\t// in\n    tag_85:\n      mload(0x40)\n      0x20\n      dup2\n      dup4\n      sub\n      sub\n      dup2\n      mstore\n      swap1\n      0x40\n      mstore\n        /* \"GitHub/contract-token-cryptoMonster/backend/shared/helpers/helpresFunc.sol\":307:341  keccak256(abi.encodePacked(_hash)) */\n      dup1\n      mload\n      swap1\n      0x20\n      add\n      keccak256\n        /* \"GitHub/contract-token-cryptoMonster/backend/shared/helpers/helpresFunc.sol\":300:342  return(keccak256(abi.encodePacked(_hash))) */\n      swap1\n      pop\n        /* \"GitHub/contract-token-cryptoMonster/backend/shared/helpers/helpresFunc.sol\":212:350  function get_keccak256(string memory _hash) public pure returns(bytes32) {\r... */\n      swap2\n      swap1\n      pop\n      jump\t// out\n        /* \"GitHub/contract-token-cryptoMonster/backend/shared/lib/structures.sol\":1385:1418  uint public tokenAmount_ = 100000 */\n    tag_43:\n      sload(0x03)\n      dup2\n      jump\t// out\n        /* \"GitHub/contract-token-cryptoMonster/backend/shared/helpers/helpresFunc.sol\":1595:1706  function getBalanceEth(address adr) public view returns(uint256) {\r... */\n    tag_47:\n        /* \"GitHub/contract-token-cryptoMonster/backend/shared/helpers/helpresFunc.sol\":1651:1658  uint256 */\n      0x00\n        /* \"GitHub/contract-token-cryptoMonster/backend/shared/helpers/helpresFunc.sol\":1686:1689  adr */\n      dup2\n        /* \"GitHub/contract-token-cryptoMonster/backend/shared/helpers/helpresFunc.sol\":1678:1698  address(adr).balance */\n      0xffffffffffffffffffffffffffffffffffffffff\n      and\n      balance\n        /* \"GitHub/contract-token-cryptoMonster/backend/shared/helpers/helpresFunc.sol\":1671:1698  return address(adr).balance */\n      swap1\n      pop\n        /* \"GitHub/contract-token-cryptoMonster/backend/shared/helpers/helpresFunc.sol\":1595:1706  function getBalanceEth(address adr) public view returns(uint256) {\r... */\n      swap2\n      swap1\n      pop\n      jump\t// out\n        /* \"GitHub/contract-token-cryptoMonster/backend/shared/helpers/helpresFunc.sol\":1098:1243  function getBalancePrivateToken (address _userAdr) public view returns (uint256) {\r... */\n    tag_51:\n        /* \"GitHub/contract-token-cryptoMonster/backend/shared/helpers/helpresFunc.sol\":1170:1177  uint256 */\n      0x00\n        /* \"GitHub/contract-token-cryptoMonster/backend/shared/helpers/helpresFunc.sol\":1197:1209  structUsers_ */\n      dup1\n        /* \"GitHub/contract-token-cryptoMonster/backend/shared/helpers/helpresFunc.sol\":1197:1219  structUsers_[_userAdr] */\n      0x00\n        /* \"GitHub/contract-token-cryptoMonster/backend/shared/helpers/helpresFunc.sol\":1210:1218  _userAdr */\n      dup4\n        /* \"GitHub/contract-token-cryptoMonster/backend/shared/helpers/helpresFunc.sol\":1197:1219  structUsers_[_userAdr] */\n      0xffffffffffffffffffffffffffffffffffffffff\n      and\n      0xffffffffffffffffffffffffffffffffffffffff\n      and\n      dup2\n      mstore\n      0x20\n      add\n      swap1\n      dup2\n      mstore\n      0x20\n      add\n      0x00\n      keccak256\n        /* \"GitHub/contract-token-cryptoMonster/backend/shared/helpers/helpresFunc.sol\":1197:1235  structUsers_[_userAdr].balance_private */\n      0x05\n      add\n      sload\n        /* \"GitHub/contract-token-cryptoMonster/backend/shared/helpers/helpresFunc.sol\":1190:1235  return structUsers_[_userAdr].balance_private */\n      swap1\n      pop\n        /* \"GitHub/contract-token-cryptoMonster/backend/shared/helpers/helpresFunc.sol\":1098:1243  function getBalancePrivateToken (address _userAdr) public view returns (uint256) {\r... */\n      swap2\n      swap1\n      pop\n      jump\t// out\n        /* \"GitHub/contract-token-cryptoMonster/backend/shared/helpers/helpresFunc.sol\":426:554  function get_whiteList() public onlyOwnerAndPrivateProvider view returns (address[] memory) {\r... */\n    tag_54:\n        /* \"GitHub/contract-token-cryptoMonster/backend/shared/helpers/helpresFunc.sol\":500:516  address[] memory */\n      0x60\n        /* \"GitHub/contract-token-cryptoMonster/backend/shared/helpers/modifireFunc.sol\":1116:1133  Role.SYSTEM_OWNER */\n      0x00\n        /* \"GitHub/contract-token-cryptoMonster/backend/shared/helpers/modifireFunc.sol\":1083:1133  structUsers_[msg.sender].role == Role.SYSTEM_OWNER */\n      0x04\n      dup2\n      gt\n      iszero\n      tag_90\n      jumpi\n      tag_91\n      tag_65\n      jump\t// in\n    tag_91:\n    tag_90:\n        /* \"GitHub/contract-token-cryptoMonster/backend/shared/helpers/modifireFunc.sol\":1083:1095  structUsers_ */\n      0x00\n        /* \"GitHub/contract-token-cryptoMonster/backend/shared/helpers/modifireFunc.sol\":1083:1107  structUsers_[msg.sender] */\n      dup1\n        /* \"GitHub/contract-token-cryptoMonster/backend/shared/helpers/modifireFunc.sol\":1096:1106  msg.sender */\n      caller\n        /* \"GitHub/contract-token-cryptoMonster/backend/shared/helpers/modifireFunc.sol\":1083:1107  structUsers_[msg.sender] */\n      0xffffffffffffffffffffffffffffffffffffffff\n      and\n      0xffffffffffffffffffffffffffffffffffffffff\n      and\n      dup2\n      mstore\n      0x20\n      add\n      swap1\n      dup2\n      mstore\n      0x20\n      add\n      0x00\n      keccak256\n        /* \"GitHub/contract-token-cryptoMonster/backend/shared/helpers/modifireFunc.sol\":1083:1112  structUsers_[msg.sender].role */\n      0x00\n      add\n      0x00\n      swap1\n      sload\n      swap1\n      0x0100\n      exp\n      swap1\n      div\n      0xff\n      and\n        /* \"GitHub/contract-token-cryptoMonster/backend/shared/helpers/modifireFunc.sol\":1083:1133  structUsers_[msg.sender].role == Role.SYSTEM_OWNER */\n      0x04\n      dup2\n      gt\n      iszero\n      tag_92\n      jumpi\n      tag_93\n      tag_65\n      jump\t// in\n    tag_93:\n    tag_92:\n      eq\n        /* \"GitHub/contract-token-cryptoMonster/backend/shared/helpers/modifireFunc.sol\":1083:1189  structUsers_[msg.sender].role == Role.SYSTEM_OWNER || structUsers_[msg.sender].role == Role.SYSTEM_PRIVATE */\n      dup1\n      tag_94\n      jumpi\n      pop\n        /* \"GitHub/contract-token-cryptoMonster/backend/shared/helpers/modifireFunc.sol\":1170:1189  Role.SYSTEM_PRIVATE */\n      0x02\n        /* \"GitHub/contract-token-cryptoMonster/backend/shared/helpers/modifireFunc.sol\":1137:1189  structUsers_[msg.sender].role == Role.SYSTEM_PRIVATE */\n      0x04\n      dup2\n      gt\n      iszero\n      tag_95\n      jumpi\n      tag_96\n      tag_65\n      jump\t// in\n    tag_96:\n    tag_95:\n        /* \"GitHub/contract-token-cryptoMonster/backend/shared/helpers/modifireFunc.sol\":1137:1149  structUsers_ */\n      0x00\n        /* \"GitHub/contract-token-cryptoMonster/backend/shared/helpers/modifireFunc.sol\":1137:1161  structUsers_[msg.sender] */\n      dup1\n        /* \"GitHub/contract-token-cryptoMonster/backend/shared/helpers/modifireFunc.sol\":1150:1160  msg.sender */\n      caller\n        /* \"GitHub/contract-token-cryptoMonster/backend/shared/helpers/modifireFunc.sol\":1137:1161  structUsers_[msg.sender] */\n      0xffffffffffffffffffffffffffffffffffffffff\n      and\n      0xffffffffffffffffffffffffffffffffffffffff\n      and\n      dup2\n      mstore\n      0x20\n      add\n      swap1\n      dup2\n      mstore\n      0x20\n      add\n      0x00\n      keccak256\n        /* \"GitHub/contract-token-cryptoMonster/backend/shared/helpers/modifireFunc.sol\":1137:1166  structUsers_[msg.sender].role */\n      0x00\n      add\n      0x00\n      swap1\n      sload\n      swap1\n      0x0100\n      exp\n      swap1\n      div\n      0xff\n      and\n        /* \"GitHub/contract-token-cryptoMonster/backend/shared/helpers/modifireFunc.sol\":1137:1189  structUsers_[msg.sender].role == Role.SYSTEM_PRIVATE */\n      0x04\n      dup2\n      gt\n      iszero\n      tag_97\n      jumpi\n      tag_98\n      tag_65\n      jump\t// in\n    tag_98:\n    tag_97:\n      eq\n        /* \"GitHub/contract-token-cryptoMonster/backend/shared/helpers/modifireFunc.sol\":1083:1189  structUsers_[msg.sender].role == Role.SYSTEM_OWNER || structUsers_[msg.sender].role == Role.SYSTEM_PRIVATE */\n    tag_94:\n        /* \"GitHub/contract-token-cryptoMonster/backend/shared/helpers/modifireFunc.sol\":1075:1235  require(structUsers_[msg.sender].role == Role.SYSTEM_OWNER || structUsers_[msg.sender].role == Role.SYSTEM_PRIVATE, \"You are not the owner or private provider\") */\n      tag_99\n      jumpi\n      mload(0x40)\n      0x08c379a000000000000000000000000000000000000000000000000000000000\n      dup2\n      mstore\n      0x04\n      add\n      tag_100\n      swap1\n      tag_101\n      jump\t// in\n    tag_100:\n      mload(0x40)\n      dup1\n      swap2\n      sub\n      swap1\n      revert\n    tag_99:\n        /* \"GitHub/contract-token-cryptoMonster/backend/shared/helpers/helpresFunc.sol\":536:545  whiteList */\n      0x07\n        /* \"GitHub/contract-token-cryptoMonster/backend/shared/helpers/helpresFunc.sol\":529:546  return(whiteList) */\n      dup1\n      sload\n      dup1\n      0x20\n      mul\n      0x20\n      add\n      mload(0x40)\n      swap1\n      dup2\n      add\n      0x40\n      mstore\n      dup1\n      swap3\n      swap2\n      swap1\n      dup2\n      dup2\n      mstore\n      0x20\n      add\n      dup3\n      dup1\n      sload\n      dup1\n      iszero\n      tag_103\n      jumpi\n      0x20\n      mul\n      dup3\n      add\n      swap2\n      swap1\n      0x00\n      mstore\n      keccak256(0x00, 0x20)\n      swap1\n    tag_104:\n      dup2\n      0x00\n      swap1\n      sload\n      swap1\n      0x0100\n      exp\n      swap1\n      div\n      0xffffffffffffffffffffffffffffffffffffffff\n      and\n      0xffffffffffffffffffffffffffffffffffffffff\n      and\n      dup2\n      mstore\n      0x20\n      add\n      swap1\n      0x01\n      add\n      swap1\n      dup1\n      dup4\n      gt\n      tag_104\n      jumpi\n    tag_103:\n      pop\n      pop\n      pop\n      pop\n      pop\n      swap1\n      pop\n        /* \"GitHub/contract-token-cryptoMonster/backend/shared/helpers/helpresFunc.sol\":426:554  function get_whiteList() public onlyOwnerAndPrivateProvider view returns (address[] memory) {\r... */\n      swap1\n      jump\t// out\n        /* \"GitHub/contract-token-cryptoMonster/backend/shared/lib/structures.sol\":836:887  mapping (address => structUser) public structUsers_ */\n    tag_58:\n      mstore(0x20, 0x00)\n      dup1\n      0x00\n      mstore\n      keccak256(0x00, 0x40)\n      0x00\n      swap2\n      pop\n      swap1\n      pop\n      dup1\n      0x00\n      add\n      0x00\n      swap1\n      sload\n      swap1\n      0x0100\n      exp\n      swap1\n      div\n      0xff\n      and\n      swap1\n      dup1\n      0x01\n      add\n      dup1\n      sload\n      tag_105\n      swap1\n      tag_106\n      jump\t// in\n    tag_105:\n      dup1\n      0x1f\n      add\n      0x20\n      dup1\n      swap2\n      div\n      mul\n      0x20\n      add\n      mload(0x40)\n      swap1\n      dup2\n      add\n      0x40\n      mstore\n      dup1\n      swap3\n      swap2\n      swap1\n      dup2\n      dup2\n      mstore\n      0x20\n      add\n      dup3\n      dup1\n      sload\n      tag_107\n      swap1\n      tag_106\n      jump\t// in\n    tag_107:\n      dup1\n      iszero\n      tag_108\n      jumpi\n      dup1\n      0x1f\n      lt\n      tag_109\n      jumpi\n      0x0100\n      dup1\n      dup4\n      sload\n      div\n      mul\n      dup4\n      mstore\n      swap2\n      0x20\n      add\n      swap2\n      jump(tag_108)\n    tag_109:\n      dup3\n      add\n      swap2\n      swap1\n      0x00\n      mstore\n      keccak256(0x00, 0x20)\n      swap1\n    tag_110:\n      dup2\n      sload\n      dup2\n      mstore\n      swap1\n      0x01\n      add\n      swap1\n      0x20\n      add\n      dup1\n      dup4\n      gt\n      tag_110\n      jumpi\n      dup3\n      swap1\n      sub\n      0x1f\n      and\n      dup3\n      add\n      swap2\n    tag_108:\n      pop\n      pop\n      pop\n      pop\n      pop\n      swap1\n      dup1\n      0x02\n      add\n      sload\n      swap1\n      dup1\n      0x03\n      add\n      sload\n      swap1\n      dup1\n      0x04\n      add\n      sload\n      swap1\n      dup1\n      0x05\n      add\n      sload\n      swap1\n      dup1\n      0x06\n      add\n      sload\n      swap1\n      pop\n      dup8\n      jump\t// out\n        /* \"#utility.yul\":7:419   */\n    tag_112:\n        /* \"#utility.yul\":85:90   */\n      0x00\n        /* \"#utility.yul\":110:176   */\n      tag_114\n        /* \"#utility.yul\":126:175   */\n      tag_115\n        /* \"#utility.yul\":168:174   */\n      dup5\n        /* \"#utility.yul\":126:175   */\n      tag_116\n      jump\t// in\n    tag_115:\n        /* \"#utility.yul\":110:176   */\n      tag_117\n      jump\t// in\n    tag_114:\n        /* \"#utility.yul\":101:176   */\n      swap1\n      pop\n        /* \"#utility.yul\":199:205   */\n      dup3\n        /* \"#utility.yul\":192:197   */\n      dup2\n        /* \"#utility.yul\":185:206   */\n      mstore\n        /* \"#utility.yul\":237:241   */\n      0x20\n        /* \"#utility.yul\":230:235   */\n      dup2\n        /* \"#utility.yul\":226:242   */\n      add\n        /* \"#utility.yul\":275:278   */\n      dup5\n        /* \"#utility.yul\":266:272   */\n      dup5\n        /* \"#utility.yul\":261:264   */\n      dup5\n        /* \"#utility.yul\":257:273   */\n      add\n        /* \"#utility.yul\":254:279   */\n      gt\n        /* \"#utility.yul\":251:363   */\n      iszero\n      tag_118\n      jumpi\n        /* \"#utility.yul\":282:361   */\n      tag_119\n      tag_120\n      jump\t// in\n    tag_119:\n        /* \"#utility.yul\":251:363   */\n    tag_118:\n        /* \"#utility.yul\":372:413   */\n      tag_121\n        /* \"#utility.yul\":406:412   */\n      dup5\n        /* \"#utility.yul\":401:404   */\n      dup3\n        /* \"#utility.yul\":396:399   */\n      dup6\n        /* \"#utility.yul\":372:413   */\n      tag_122\n      jump\t// in\n    tag_121:\n        /* \"#utility.yul\":91:419   */\n      pop\n        /* \"#utility.yul\":7:419   */\n      swap4\n      swap3\n      pop\n      pop\n      pop\n      jump\t// out\n        /* \"#utility.yul\":425:564   */\n    tag_123:\n        /* \"#utility.yul\":471:476   */\n      0x00\n        /* \"#utility.yul\":509:515   */\n      dup2\n        /* \"#utility.yul\":496:516   */\n      calldataload\n        /* \"#utility.yul\":487:516   */\n      swap1\n      pop\n        /* \"#utility.yul\":525:558   */\n      tag_125\n        /* \"#utility.yul\":552:557   */\n      dup2\n        /* \"#utility.yul\":525:558   */\n      tag_126\n      jump\t// in\n    tag_125:\n        /* \"#utility.yul\":425:564   */\n      swap3\n      swap2\n      pop\n      pop\n      jump\t// out\n        /* \"#utility.yul\":584:924   */\n    tag_127:\n        /* \"#utility.yul\":640:645   */\n      0x00\n        /* \"#utility.yul\":689:692   */\n      dup3\n        /* \"#utility.yul\":682:686   */\n      0x1f\n        /* \"#utility.yul\":674:680   */\n      dup4\n        /* \"#utility.yul\":670:687   */\n      add\n        /* \"#utility.yul\":666:693   */\n      slt\n        /* \"#utility.yul\":656:778   */\n      tag_129\n      jumpi\n        /* \"#utility.yul\":697:776   */\n      tag_130\n      tag_131\n      jump\t// in\n    tag_130:\n        /* \"#utility.yul\":656:778   */\n    tag_129:\n        /* \"#utility.yul\":814:820   */\n      dup2\n        /* \"#utility.yul\":801:821   */\n      calldataload\n        /* \"#utility.yul\":839:918   */\n      tag_132\n        /* \"#utility.yul\":914:917   */\n      dup5\n        /* \"#utility.yul\":906:912   */\n      dup3\n        /* \"#utility.yul\":899:903   */\n      0x20\n        /* \"#utility.yul\":891:897   */\n      dup7\n        /* \"#utility.yul\":887:904   */\n      add\n        /* \"#utility.yul\":839:918   */\n      tag_112\n      jump\t// in\n    tag_132:\n        /* \"#utility.yul\":830:918   */\n      swap2\n      pop\n        /* \"#utility.yul\":646:924   */\n      pop\n        /* \"#utility.yul\":584:924   */\n      swap3\n      swap2\n      pop\n      pop\n      jump\t// out\n        /* \"#utility.yul\":930:1069   */\n    tag_133:\n        /* \"#utility.yul\":976:981   */\n      0x00\n        /* \"#utility.yul\":1014:1020   */\n      dup2\n        /* \"#utility.yul\":1001:1021   */\n      calldataload\n        /* \"#utility.yul\":992:1021   */\n      swap1\n      pop\n        /* \"#utility.yul\":1030:1063   */\n      tag_135\n        /* \"#utility.yul\":1057:1062   */\n      dup2\n        /* \"#utility.yul\":1030:1063   */\n      tag_136\n      jump\t// in\n    tag_135:\n        /* \"#utility.yul\":930:1069   */\n      swap3\n      swap2\n      pop\n      pop\n      jump\t// out\n        /* \"#utility.yul\":1075:1404   */\n    tag_21:\n        /* \"#utility.yul\":1134:1140   */\n      0x00\n        /* \"#utility.yul\":1183:1185   */\n      0x20\n        /* \"#utility.yul\":1171:1180   */\n      dup3\n        /* \"#utility.yul\":1162:1169   */\n      dup5\n        /* \"#utility.yul\":1158:1181   */\n      sub\n        /* \"#utility.yul\":1154:1186   */\n      slt\n        /* \"#utility.yul\":1151:1270   */\n      iszero\n      tag_138\n      jumpi\n        /* \"#utility.yul\":1189:1268   */\n      tag_139\n      tag_140\n      jump\t// in\n    tag_139:\n        /* \"#utility.yul\":1151:1270   */\n    tag_138:\n        /* \"#utility.yul\":1309:1310   */\n      0x00\n        /* \"#utility.yul\":1334:1387   */\n      tag_141\n        /* \"#utility.yul\":1379:1386   */\n      dup5\n        /* \"#utility.yul\":1370:1376   */\n      dup3\n        /* \"#utility.yul\":1359:1368   */\n      dup6\n        /* \"#utility.yul\":1355:1377   */\n      add\n        /* \"#utility.yul\":1334:1387   */\n      tag_123\n      jump\t// in\n    tag_141:\n        /* \"#utility.yul\":1324:1387   */\n      swap2\n      pop\n        /* \"#utility.yul\":1280:1397   */\n      pop\n        /* \"#utility.yul\":1075:1404   */\n      swap3\n      swap2\n      pop\n      pop\n      jump\t// out\n        /* \"#utility.yul\":1410:1919   */\n    tag_38:\n        /* \"#utility.yul\":1479:1485   */\n      0x00\n        /* \"#utility.yul\":1528:1530   */\n      0x20\n        /* \"#utility.yul\":1516:1525   */\n      dup3\n        /* \"#utility.yul\":1507:1514   */\n      dup5\n        /* \"#utility.yul\":1503:1526   */\n      sub\n        /* \"#utility.yul\":1499:1531   */\n      slt\n        /* \"#utility.yul\":1496:1615   */\n      iszero\n      tag_143\n      jumpi\n        /* \"#utility.yul\":1534:1613   */\n      tag_144\n      tag_140\n      jump\t// in\n    tag_144:\n        /* \"#utility.yul\":1496:1615   */\n    tag_143:\n        /* \"#utility.yul\":1682:1683   */\n      0x00\n        /* \"#utility.yul\":1671:1680   */\n      dup3\n        /* \"#utility.yul\":1667:1684   */\n      add\n        /* \"#utility.yul\":1654:1685   */\n      calldataload\n        /* \"#utility.yul\":1712:1730   */\n      0xffffffffffffffff\n        /* \"#utility.yul\":1704:1710   */\n      dup2\n        /* \"#utility.yul\":1701:1731   */\n      gt\n        /* \"#utility.yul\":1698:1815   */\n      iszero\n      tag_145\n      jumpi\n        /* \"#utility.yul\":1734:1813   */\n      tag_146\n      tag_147\n      jump\t// in\n    tag_146:\n        /* \"#utility.yul\":1698:1815   */\n    tag_145:\n        /* \"#utility.yul\":1839:1902   */\n      tag_148\n        /* \"#utility.yul\":1894:1901   */\n      dup5\n        /* \"#utility.yul\":1885:1891   */\n      dup3\n        /* \"#utility.yul\":1874:1883   */\n      dup6\n        /* \"#utility.yul\":1870:1892   */\n      add\n        /* \"#utility.yul\":1839:1902   */\n      tag_127\n      jump\t// in\n    tag_148:\n        /* \"#utility.yul\":1829:1902   */\n      swap2\n      pop\n        /* \"#utility.yul\":1625:1912   */\n      pop\n        /* \"#utility.yul\":1410:1919   */\n      swap3\n      swap2\n      pop\n      pop\n      jump\t// out\n        /* \"#utility.yul\":1925:2254   */\n    tag_26:\n        /* \"#utility.yul\":1984:1990   */\n      0x00\n        /* \"#utility.yul\":2033:2035   */\n      0x20\n        /* \"#utility.yul\":2021:2030   */\n      dup3\n        /* \"#utility.yul\":2012:2019   */\n      dup5\n        /* \"#utility.yul\":2008:2031   */\n      sub\n        /* \"#utility.yul\":2004:2036   */\n      slt\n        /* \"#utility.yul\":2001:2120   */\n      iszero\n      tag_150\n      jumpi\n        /* \"#utility.yul\":2039:2118   */\n      tag_151\n      tag_140\n      jump\t// in\n    tag_151:\n        /* \"#utility.yul\":2001:2120   */\n    tag_150:\n        /* \"#utility.yul\":2159:2160   */\n      0x00\n        /* \"#utility.yul\":2184:2237   */\n      tag_152\n        /* \"#utility.yul\":2229:2236   */\n      dup5\n        /* \"#utility.yul\":2220:2226   */\n      dup3\n        /* \"#utility.yul\":2209:2218   */\n      dup6\n        /* \"#utility.yul\":2205:2227   */\n      add\n        /* \"#utility.yul\":2184:2237   */\n      tag_133\n      jump\t// in\n    tag_152:\n        /* \"#utility.yul\":2174:2237   */\n      swap2\n      pop\n        /* \"#utility.yul\":2130:2247   */\n      pop\n        /* \"#utility.yul\":1925:2254   */\n      swap3\n      swap2\n      pop\n      pop\n      jump\t// out\n        /* \"#utility.yul\":2260:2439   */\n    tag_153:\n        /* \"#utility.yul\":2329:2339   */\n      0x00\n        /* \"#utility.yul\":2350:2396   */\n      tag_155\n        /* \"#utility.yul\":2392:2395   */\n      dup4\n        /* \"#utility.yul\":2384:2390   */\n      dup4\n        /* \"#utility.yul\":2350:2396   */\n      tag_156\n      jump\t// in\n    tag_155:\n        /* \"#utility.yul\":2428:2432   */\n      0x20\n        /* \"#utility.yul\":2423:2426   */\n      dup4\n        /* \"#utility.yul\":2419:2433   */\n      add\n        /* \"#utility.yul\":2405:2433   */\n      swap1\n      pop\n        /* \"#utility.yul\":2260:2439   */\n      swap3\n      swap2\n      pop\n      pop\n      jump\t// out\n        /* \"#utility.yul\":2445:2553   */\n    tag_156:\n        /* \"#utility.yul\":2522:2546   */\n      tag_158\n        /* \"#utility.yul\":2540:2545   */\n      dup2\n        /* \"#utility.yul\":2522:2546   */\n      tag_159\n      jump\t// in\n    tag_158:\n        /* \"#utility.yul\":2517:2520   */\n      dup3\n        /* \"#utility.yul\":2510:2547   */\n      mstore\n        /* \"#utility.yul\":2445:2553   */\n      pop\n      pop\n      jump\t// out\n        /* \"#utility.yul\":2589:3321   */\n    tag_160:\n        /* \"#utility.yul\":2708:2711   */\n      0x00\n        /* \"#utility.yul\":2737:2791   */\n      tag_162\n        /* \"#utility.yul\":2785:2790   */\n      dup3\n        /* \"#utility.yul\":2737:2791   */\n      tag_163\n      jump\t// in\n    tag_162:\n        /* \"#utility.yul\":2807:2893   */\n      tag_164\n        /* \"#utility.yul\":2886:2892   */\n      dup2\n        /* \"#utility.yul\":2881:2884   */\n      dup6\n        /* \"#utility.yul\":2807:2893   */\n      tag_165\n      jump\t// in\n    tag_164:\n        /* \"#utility.yul\":2800:2893   */\n      swap4\n      pop\n        /* \"#utility.yul\":2917:2973   */\n      tag_166\n        /* \"#utility.yul\":2967:2972   */\n      dup4\n        /* \"#utility.yul\":2917:2973   */\n      tag_167\n      jump\t// in\n    tag_166:\n        /* \"#utility.yul\":2996:3003   */\n      dup1\n        /* \"#utility.yul\":3027:3028   */\n      0x00\n        /* \"#utility.yul\":3012:3296   */\n    tag_168:\n        /* \"#utility.yul\":3037:3043   */\n      dup4\n        /* \"#utility.yul\":3034:3035   */\n      dup2\n        /* \"#utility.yul\":3031:3044   */\n      lt\n        /* \"#utility.yul\":3012:3296   */\n      iszero\n      tag_170\n      jumpi\n        /* \"#utility.yul\":3113:3119   */\n      dup2\n        /* \"#utility.yul\":3107:3120   */\n      mload\n        /* \"#utility.yul\":3140:3203   */\n      tag_171\n        /* \"#utility.yul\":3199:3202   */\n      dup9\n        /* \"#utility.yul\":3184:3197   */\n      dup3\n        /* \"#utility.yul\":3140:3203   */\n      tag_153\n      jump\t// in\n    tag_171:\n        /* \"#utility.yul\":3133:3203   */\n      swap8\n      pop\n        /* \"#utility.yul\":3226:3286   */\n      tag_172\n        /* \"#utility.yul\":3279:3285   */\n      dup4\n        /* \"#utility.yul\":3226:3286   */\n      tag_173\n      jump\t// in\n    tag_172:\n        /* \"#utility.yul\":3216:3286   */\n      swap3\n      pop\n        /* \"#utility.yul\":3072:3296   */\n      pop\n        /* \"#utility.yul\":3059:3060   */\n      0x01\n        /* \"#utility.yul\":3056:3057   */\n      dup2\n        /* \"#utility.yul\":3052:3061   */\n      add\n        /* \"#utility.yul\":3047:3061   */\n      swap1\n      pop\n        /* \"#utility.yul\":3012:3296   */\n      jump(tag_168)\n    tag_170:\n        /* \"#utility.yul\":3016:3030   */\n      pop\n        /* \"#utility.yul\":3312:3315   */\n      dup6\n        /* \"#utility.yul\":3305:3315   */\n      swap4\n      pop\n        /* \"#utility.yul\":2713:3321   */\n      pop\n      pop\n      pop\n        /* \"#utility.yul\":2589:3321   */\n      swap3\n      swap2\n      pop\n      pop\n      jump\t// out\n        /* \"#utility.yul\":3327:3445   */\n    tag_174:\n        /* \"#utility.yul\":3414:3438   */\n      tag_176\n        /* \"#utility.yul\":3432:3437   */\n      dup2\n        /* \"#utility.yul\":3414:3438   */\n      tag_177\n      jump\t// in\n    tag_176:\n        /* \"#utility.yul\":3409:3412   */\n      dup3\n        /* \"#utility.yul\":3402:3439   */\n      mstore\n        /* \"#utility.yul\":3327:3445   */\n      pop\n      pop\n      jump\t// out\n        /* \"#utility.yul\":3451:3594   */\n    tag_178:\n        /* \"#utility.yul\":3544:3587   */\n      tag_180\n        /* \"#utility.yul\":3581:3586   */\n      dup2\n        /* \"#utility.yul\":3544:3587   */\n      tag_181\n      jump\t// in\n    tag_180:\n        /* \"#utility.yul\":3539:3542   */\n      dup3\n        /* \"#utility.yul\":3532:3588   */\n      mstore\n        /* \"#utility.yul\":3451:3594   */\n      pop\n      pop\n      jump\t// out\n        /* \"#utility.yul\":3600:3964   */\n    tag_182:\n        /* \"#utility.yul\":3688:3691   */\n      0x00\n        /* \"#utility.yul\":3716:3755   */\n      tag_184\n        /* \"#utility.yul\":3749:3754   */\n      dup3\n        /* \"#utility.yul\":3716:3755   */\n      tag_185\n      jump\t// in\n    tag_184:\n        /* \"#utility.yul\":3771:3842   */\n      tag_186\n        /* \"#utility.yul\":3835:3841   */\n      dup2\n        /* \"#utility.yul\":3830:3833   */\n      dup6\n        /* \"#utility.yul\":3771:3842   */\n      tag_187\n      jump\t// in\n    tag_186:\n        /* \"#utility.yul\":3764:3842   */\n      swap4\n      pop\n        /* \"#utility.yul\":3851:3903   */\n      tag_188\n        /* \"#utility.yul\":3896:3902   */\n      dup2\n        /* \"#utility.yul\":3891:3894   */\n      dup6\n        /* \"#utility.yul\":3884:3888   */\n      0x20\n        /* \"#utility.yul\":3877:3882   */\n      dup7\n        /* \"#utility.yul\":3873:3889   */\n      add\n        /* \"#utility.yul\":3851:3903   */\n      tag_189\n      jump\t// in\n    tag_188:\n        /* \"#utility.yul\":3928:3957   */\n      tag_190\n        /* \"#utility.yul\":3950:3956   */\n      dup2\n        /* \"#utility.yul\":3928:3957   */\n      tag_191\n      jump\t// in\n    tag_190:\n        /* \"#utility.yul\":3923:3926   */\n      dup5\n        /* \"#utility.yul\":3919:3958   */\n      add\n        /* \"#utility.yul\":3912:3958   */\n      swap2\n      pop\n        /* \"#utility.yul\":3692:3964   */\n      pop\n        /* \"#utility.yul\":3600:3964   */\n      swap3\n      swap2\n      pop\n      pop\n      jump\t// out\n        /* \"#utility.yul\":3970:4347   */\n    tag_192:\n        /* \"#utility.yul\":4076:4079   */\n      0x00\n        /* \"#utility.yul\":4104:4143   */\n      tag_194\n        /* \"#utility.yul\":4137:4142   */\n      dup3\n        /* \"#utility.yul\":4104:4143   */\n      tag_185\n      jump\t// in\n    tag_194:\n        /* \"#utility.yul\":4159:4248   */\n      tag_195\n        /* \"#utility.yul\":4241:4247   */\n      dup2\n        /* \"#utility.yul\":4236:4239   */\n      dup6\n        /* \"#utility.yul\":4159:4248   */\n      tag_196\n      jump\t// in\n    tag_195:\n        /* \"#utility.yul\":4152:4248   */\n      swap4\n      pop\n        /* \"#utility.yul\":4257:4309   */\n      tag_197\n        /* \"#utility.yul\":4302:4308   */\n      dup2\n        /* \"#utility.yul\":4297:4300   */\n      dup6\n        /* \"#utility.yul\":4290:4294   */\n      0x20\n        /* \"#utility.yul\":4283:4288   */\n      dup7\n        /* \"#utility.yul\":4279:4295   */\n      add\n        /* \"#utility.yul\":4257:4309   */\n      tag_189\n      jump\t// in\n    tag_197:\n        /* \"#utility.yul\":4334:4340   */\n      dup1\n        /* \"#utility.yul\":4329:4332   */\n      dup5\n        /* \"#utility.yul\":4325:4341   */\n      add\n        /* \"#utility.yul\":4318:4341   */\n      swap2\n      pop\n        /* \"#utility.yul\":4080:4347   */\n      pop\n        /* \"#utility.yul\":3970:4347   */\n      swap3\n      swap2\n      pop\n      pop\n      jump\t// out\n        /* \"#utility.yul\":4353:4719   */\n    tag_198:\n        /* \"#utility.yul\":4495:4498   */\n      0x00\n        /* \"#utility.yul\":4516:4583   */\n      tag_200\n        /* \"#utility.yul\":4580:4582   */\n      0x18\n        /* \"#utility.yul\":4575:4578   */\n      dup4\n        /* \"#utility.yul\":4516:4583   */\n      tag_187\n      jump\t// in\n    tag_200:\n        /* \"#utility.yul\":4509:4583   */\n      swap2\n      pop\n        /* \"#utility.yul\":4592:4685   */\n      tag_201\n        /* \"#utility.yul\":4681:4684   */\n      dup3\n        /* \"#utility.yul\":4592:4685   */\n      tag_202\n      jump\t// in\n    tag_201:\n        /* \"#utility.yul\":4710:4712   */\n      0x20\n        /* \"#utility.yul\":4705:4708   */\n      dup3\n        /* \"#utility.yul\":4701:4713   */\n      add\n        /* \"#utility.yul\":4694:4713   */\n      swap1\n      pop\n        /* \"#utility.yul\":4353:4719   */\n      swap2\n      swap1\n      pop\n      jump\t// out\n        /* \"#utility.yul\":4725:5091   */\n    tag_203:\n        /* \"#utility.yul\":4867:4870   */\n      0x00\n        /* \"#utility.yul\":4888:4955   */\n      tag_205\n        /* \"#utility.yul\":4952:4954   */\n      0x29\n        /* \"#utility.yul\":4947:4950   */\n      dup4\n        /* \"#utility.yul\":4888:4955   */\n      tag_187\n      jump\t// in\n    tag_205:\n        /* \"#utility.yul\":4881:4955   */\n      swap2\n      pop\n        /* \"#utility.yul\":4964:5057   */\n      tag_206\n        /* \"#utility.yul\":5053:5056   */\n      dup3\n        /* \"#utility.yul\":4964:5057   */\n      tag_207\n      jump\t// in\n    tag_206:\n        /* \"#utility.yul\":5082:5084   */\n      0x40\n        /* \"#utility.yul\":5077:5080   */\n      dup3\n        /* \"#utility.yul\":5073:5085   */\n      add\n        /* \"#utility.yul\":5066:5085   */\n      swap1\n      pop\n        /* \"#utility.yul\":4725:5091   */\n      swap2\n      swap1\n      pop\n      jump\t// out\n        /* \"#utility.yul\":5097:5463   */\n    tag_208:\n        /* \"#utility.yul\":5239:5242   */\n      0x00\n        /* \"#utility.yul\":5260:5327   */\n      tag_210\n        /* \"#utility.yul\":5324:5326   */\n      0x0e\n        /* \"#utility.yul\":5319:5322   */\n      dup4\n        /* \"#utility.yul\":5260:5327   */\n      tag_187\n      jump\t// in\n    tag_210:\n        /* \"#utility.yul\":5253:5327   */\n      swap2\n      pop\n        /* \"#utility.yul\":5336:5429   */\n      tag_211\n        /* \"#utility.yul\":5425:5428   */\n      dup3\n        /* \"#utility.yul\":5336:5429   */\n      tag_212\n      jump\t// in\n    tag_211:\n        /* \"#utility.yul\":5454:5456   */\n      0x20\n        /* \"#utility.yul\":5449:5452   */\n      dup3\n        /* \"#utility.yul\":5445:5457   */\n      add\n        /* \"#utility.yul\":5438:5457   */\n      swap1\n      pop\n        /* \"#utility.yul\":5097:5463   */\n      swap2\n      swap1\n      pop\n      jump\t// out\n        /* \"#utility.yul\":5469:5587   */\n    tag_213:\n        /* \"#utility.yul\":5556:5580   */\n      tag_215\n        /* \"#utility.yul\":5574:5579   */\n      dup2\n        /* \"#utility.yul\":5556:5580   */\n      tag_216\n      jump\t// in\n    tag_215:\n        /* \"#utility.yul\":5551:5554   */\n      dup3\n        /* \"#utility.yul\":5544:5581   */\n      mstore\n        /* \"#utility.yul\":5469:5587   */\n      pop\n      pop\n      jump\t// out\n        /* \"#utility.yul\":5593:5868   */\n    tag_86:\n        /* \"#utility.yul\":5725:5728   */\n      0x00\n        /* \"#utility.yul\":5747:5842   */\n      tag_218\n        /* \"#utility.yul\":5838:5841   */\n      dup3\n        /* \"#utility.yul\":5829:5835   */\n      dup5\n        /* \"#utility.yul\":5747:5842   */\n      tag_192\n      jump\t// in\n    tag_218:\n        /* \"#utility.yul\":5740:5842   */\n      swap2\n      pop\n        /* \"#utility.yul\":5859:5862   */\n      dup2\n        /* \"#utility.yul\":5852:5862   */\n      swap1\n      pop\n        /* \"#utility.yul\":5593:5868   */\n      swap3\n      swap2\n      pop\n      pop\n      jump\t// out\n        /* \"#utility.yul\":5874:6247   */\n    tag_35:\n        /* \"#utility.yul\":6017:6021   */\n      0x00\n        /* \"#utility.yul\":6055:6057   */\n      0x20\n        /* \"#utility.yul\":6044:6053   */\n      dup3\n        /* \"#utility.yul\":6040:6058   */\n      add\n        /* \"#utility.yul\":6032:6058   */\n      swap1\n      pop\n        /* \"#utility.yul\":6104:6113   */\n      dup2\n        /* \"#utility.yul\":6098:6102   */\n      dup2\n        /* \"#utility.yul\":6094:6114   */\n      sub\n        /* \"#utility.yul\":6090:6091   */\n      0x00\n        /* \"#utility.yul\":6079:6088   */\n      dup4\n        /* \"#utility.yul\":6075:6092   */\n      add\n        /* \"#utility.yul\":6068:6115   */\n      mstore\n        /* \"#utility.yul\":6132:6240   */\n      tag_220\n        /* \"#utility.yul\":6235:6239   */\n      dup2\n        /* \"#utility.yul\":6226:6232   */\n      dup5\n        /* \"#utility.yul\":6132:6240   */\n      tag_160\n      jump\t// in\n    tag_220:\n        /* \"#utility.yul\":6124:6240   */\n      swap1\n      pop\n        /* \"#utility.yul\":5874:6247   */\n      swap3\n      swap2\n      pop\n      pop\n      jump\t// out\n        /* \"#utility.yul\":6253:6475   */\n    tag_41:\n        /* \"#utility.yul\":6346:6350   */\n      0x00\n        /* \"#utility.yul\":6384:6386   */\n      0x20\n        /* \"#utility.yul\":6373:6382   */\n      dup3\n        /* \"#utility.yul\":6369:6387   */\n      add\n        /* \"#utility.yul\":6361:6387   */\n      swap1\n      pop\n        /* \"#utility.yul\":6397:6468   */\n      tag_222\n        /* \"#utility.yul\":6465:6466   */\n      0x00\n        /* \"#utility.yul\":6454:6463   */\n      dup4\n        /* \"#utility.yul\":6450:6467   */\n      add\n        /* \"#utility.yul\":6441:6447   */\n      dup5\n        /* \"#utility.yul\":6397:6468   */\n      tag_174\n      jump\t// in\n    tag_222:\n        /* \"#utility.yul\":6253:6475   */\n      swap3\n      swap2\n      pop\n      pop\n      jump\t// out\n        /* \"#utility.yul\":6481:7470   */\n    tag_60:\n        /* \"#utility.yul\":6768:6772   */\n      0x00\n        /* \"#utility.yul\":6806:6809   */\n      0xe0\n        /* \"#utility.yul\":6795:6804   */\n      dup3\n        /* \"#utility.yul\":6791:6810   */\n      add\n        /* \"#utility.yul\":6783:6810   */\n      swap1\n      pop\n        /* \"#utility.yul\":6820:6897   */\n      tag_224\n        /* \"#utility.yul\":6894:6895   */\n      0x00\n        /* \"#utility.yul\":6883:6892   */\n      dup4\n        /* \"#utility.yul\":6879:6896   */\n      add\n        /* \"#utility.yul\":6870:6876   */\n      dup11\n        /* \"#utility.yul\":6820:6897   */\n      tag_178\n      jump\t// in\n    tag_224:\n        /* \"#utility.yul\":6944:6953   */\n      dup2\n        /* \"#utility.yul\":6938:6942   */\n      dup2\n        /* \"#utility.yul\":6934:6954   */\n      sub\n        /* \"#utility.yul\":6929:6931   */\n      0x20\n        /* \"#utility.yul\":6918:6927   */\n      dup4\n        /* \"#utility.yul\":6914:6932   */\n      add\n        /* \"#utility.yul\":6907:6955   */\n      mstore\n        /* \"#utility.yul\":6972:7050   */\n      tag_225\n        /* \"#utility.yul\":7045:7049   */\n      dup2\n        /* \"#utility.yul\":7036:7042   */\n      dup10\n        /* \"#utility.yul\":6972:7050   */\n      tag_182\n      jump\t// in\n    tag_225:\n        /* \"#utility.yul\":6964:7050   */\n      swap1\n      pop\n        /* \"#utility.yul\":7060:7132   */\n      tag_226\n        /* \"#utility.yul\":7128:7130   */\n      0x40\n        /* \"#utility.yul\":7117:7126   */\n      dup4\n        /* \"#utility.yul\":7113:7131   */\n      add\n        /* \"#utility.yul\":7104:7110   */\n      dup9\n        /* \"#utility.yul\":7060:7132   */\n      tag_174\n      jump\t// in\n    tag_226:\n        /* \"#utility.yul\":7142:7214   */\n      tag_227\n        /* \"#utility.yul\":7210:7212   */\n      0x60\n        /* \"#utility.yul\":7199:7208   */\n      dup4\n        /* \"#utility.yul\":7195:7213   */\n      add\n        /* \"#utility.yul\":7186:7192   */\n      dup8\n        /* \"#utility.yul\":7142:7214   */\n      tag_213\n      jump\t// in\n    tag_227:\n        /* \"#utility.yul\":7224:7297   */\n      tag_228\n        /* \"#utility.yul\":7292:7295   */\n      0x80\n        /* \"#utility.yul\":7281:7290   */\n      dup4\n        /* \"#utility.yul\":7277:7296   */\n      add\n        /* \"#utility.yul\":7268:7274   */\n      dup7\n        /* \"#utility.yul\":7224:7297   */\n      tag_213\n      jump\t// in\n    tag_228:\n        /* \"#utility.yul\":7307:7380   */\n      tag_229\n        /* \"#utility.yul\":7375:7378   */\n      0xa0\n        /* \"#utility.yul\":7364:7373   */\n      dup4\n        /* \"#utility.yul\":7360:7379   */\n      add\n        /* \"#utility.yul\":7351:7357   */\n      dup6\n        /* \"#utility.yul\":7307:7380   */\n      tag_213\n      jump\t// in\n    tag_229:\n        /* \"#utility.yul\":7390:7463   */\n      tag_230\n        /* \"#utility.yul\":7458:7461   */\n      0xc0\n        /* \"#utility.yul\":7447:7456   */\n      dup4\n        /* \"#utility.yul\":7443:7462   */\n      add\n        /* \"#utility.yul\":7434:7440   */\n      dup5\n        /* \"#utility.yul\":7390:7463   */\n      tag_213\n      jump\t// in\n    tag_230:\n        /* \"#utility.yul\":6481:7470   */\n      swap9\n      swap8\n      pop\n      pop\n      pop\n      pop\n      pop\n      pop\n      pop\n      pop\n      jump\t// out\n        /* \"#utility.yul\":7476:7895   */\n    tag_70:\n        /* \"#utility.yul\":7642:7646   */\n      0x00\n        /* \"#utility.yul\":7680:7682   */\n      0x20\n        /* \"#utility.yul\":7669:7678   */\n      dup3\n        /* \"#utility.yul\":7665:7683   */\n      add\n        /* \"#utility.yul\":7657:7683   */\n      swap1\n      pop\n        /* \"#utility.yul\":7729:7738   */\n      dup2\n        /* \"#utility.yul\":7723:7727   */\n      dup2\n        /* \"#utility.yul\":7719:7739   */\n      sub\n        /* \"#utility.yul\":7715:7716   */\n      0x00\n        /* \"#utility.yul\":7704:7713   */\n      dup4\n        /* \"#utility.yul\":7700:7717   */\n      add\n        /* \"#utility.yul\":7693:7740   */\n      mstore\n        /* \"#utility.yul\":7757:7888   */\n      tag_232\n        /* \"#utility.yul\":7883:7887   */\n      dup2\n        /* \"#utility.yul\":7757:7888   */\n      tag_198\n      jump\t// in\n    tag_232:\n        /* \"#utility.yul\":7749:7888   */\n      swap1\n      pop\n        /* \"#utility.yul\":7476:7895   */\n      swap2\n      swap1\n      pop\n      jump\t// out\n        /* \"#utility.yul\":7901:8320   */\n    tag_101:\n        /* \"#utility.yul\":8067:8071   */\n      0x00\n        /* \"#utility.yul\":8105:8107   */\n      0x20\n        /* \"#utility.yul\":8094:8103   */\n      dup3\n        /* \"#utility.yul\":8090:8108   */\n      add\n        /* \"#utility.yul\":8082:8108   */\n      swap1\n      pop\n        /* \"#utility.yul\":8154:8163   */\n      dup2\n        /* \"#utility.yul\":8148:8152   */\n      dup2\n        /* \"#utility.yul\":8144:8164   */\n      sub\n        /* \"#utility.yul\":8140:8141   */\n      0x00\n        /* \"#utility.yul\":8129:8138   */\n      dup4\n        /* \"#utility.yul\":8125:8142   */\n      add\n        /* \"#utility.yul\":8118:8165   */\n      mstore\n        /* \"#utility.yul\":8182:8313   */\n      tag_234\n        /* \"#utility.yul\":8308:8312   */\n      dup2\n        /* \"#utility.yul\":8182:8313   */\n      tag_203\n      jump\t// in\n    tag_234:\n        /* \"#utility.yul\":8174:8313   */\n      swap1\n      pop\n        /* \"#utility.yul\":7901:8320   */\n      swap2\n      swap1\n      pop\n      jump\t// out\n        /* \"#utility.yul\":8326:8745   */\n    tag_80:\n        /* \"#utility.yul\":8492:8496   */\n      0x00\n        /* \"#utility.yul\":8530:8532   */\n      0x20\n        /* \"#utility.yul\":8519:8528   */\n      dup3\n        /* \"#utility.yul\":8515:8533   */\n      add\n        /* \"#utility.yul\":8507:8533   */\n      swap1\n      pop\n        /* \"#utility.yul\":8579:8588   */\n      dup2\n        /* \"#utility.yul\":8573:8577   */\n      dup2\n        /* \"#utility.yul\":8569:8589   */\n      sub\n        /* \"#utility.yul\":8565:8566   */\n      0x00\n        /* \"#utility.yul\":8554:8563   */\n      dup4\n        /* \"#utility.yul\":8550:8567   */\n      add\n        /* \"#utility.yul\":8543:8590   */\n      mstore\n        /* \"#utility.yul\":8607:8738   */\n      tag_236\n        /* \"#utility.yul\":8733:8737   */\n      dup2\n        /* \"#utility.yul\":8607:8738   */\n      tag_208\n      jump\t// in\n    tag_236:\n        /* \"#utility.yul\":8599:8738   */\n      swap1\n      pop\n        /* \"#utility.yul\":8326:8745   */\n      swap2\n      swap1\n      pop\n      jump\t// out\n        /* \"#utility.yul\":8751:8973   */\n    tag_18:\n        /* \"#utility.yul\":8844:8848   */\n      0x00\n        /* \"#utility.yul\":8882:8884   */\n      0x20\n        /* \"#utility.yul\":8871:8880   */\n      dup3\n        /* \"#utility.yul\":8867:8885   */\n      add\n        /* \"#utility.yul\":8859:8885   */\n      swap1\n      pop\n        /* \"#utility.yul\":8895:8966   */\n      tag_238\n        /* \"#utility.yul\":8963:8964   */\n      0x00\n        /* \"#utility.yul\":8952:8961   */\n      dup4\n        /* \"#utility.yul\":8948:8965   */\n      add\n        /* \"#utility.yul\":8939:8945   */\n      dup5\n        /* \"#utility.yul\":8895:8966   */\n      tag_213\n      jump\t// in\n    tag_238:\n        /* \"#utility.yul\":8751:8973   */\n      swap3\n      swap2\n      pop\n      pop\n      jump\t// out\n        /* \"#utility.yul\":8979:9108   */\n    tag_117:\n        /* \"#utility.yul\":9013:9019   */\n      0x00\n        /* \"#utility.yul\":9040:9060   */\n      tag_240\n      tag_241\n      jump\t// in\n    tag_240:\n        /* \"#utility.yul\":9030:9060   */\n      swap1\n      pop\n        /* \"#utility.yul\":9069:9102   */\n      tag_242\n        /* \"#utility.yul\":9097:9101   */\n      dup3\n        /* \"#utility.yul\":9089:9095   */\n      dup3\n        /* \"#utility.yul\":9069:9102   */\n      tag_243\n      jump\t// in\n    tag_242:\n        /* \"#utility.yul\":8979:9108   */\n      swap2\n      swap1\n      pop\n      jump\t// out\n        /* \"#utility.yul\":9114:9189   */\n    tag_241:\n        /* \"#utility.yul\":9147:9153   */\n      0x00\n        /* \"#utility.yul\":9180:9182   */\n      0x40\n        /* \"#utility.yul\":9174:9183   */\n      mload\n        /* \"#utility.yul\":9164:9183   */\n      swap1\n      pop\n        /* \"#utility.yul\":9114:9189   */\n      swap1\n      jump\t// out\n        /* \"#utility.yul\":9195:9503   */\n    tag_116:\n        /* \"#utility.yul\":9257:9261   */\n      0x00\n        /* \"#utility.yul\":9347:9365   */\n      0xffffffffffffffff\n        /* \"#utility.yul\":9339:9345   */\n      dup3\n        /* \"#utility.yul\":9336:9366   */\n      gt\n        /* \"#utility.yul\":9333:9389   */\n      iszero\n      tag_246\n      jumpi\n        /* \"#utility.yul\":9369:9387   */\n      tag_247\n      tag_248\n      jump\t// in\n    tag_247:\n        /* \"#utility.yul\":9333:9389   */\n    tag_246:\n        /* \"#utility.yul\":9407:9436   */\n      tag_249\n        /* \"#utility.yul\":9429:9435   */\n      dup3\n        /* \"#utility.yul\":9407:9436   */\n      tag_191\n      jump\t// in\n    tag_249:\n        /* \"#utility.yul\":9399:9436   */\n      swap1\n      pop\n        /* \"#utility.yul\":9491:9495   */\n      0x20\n        /* \"#utility.yul\":9485:9489   */\n      dup2\n        /* \"#utility.yul\":9481:9496   */\n      add\n        /* \"#utility.yul\":9473:9496   */\n      swap1\n      pop\n        /* \"#utility.yul\":9195:9503   */\n      swap2\n      swap1\n      pop\n      jump\t// out\n        /* \"#utility.yul\":9509:9641   */\n    tag_167:\n        /* \"#utility.yul\":9576:9580   */\n      0x00\n        /* \"#utility.yul\":9599:9602   */\n      dup2\n        /* \"#utility.yul\":9591:9602   */\n      swap1\n      pop\n        /* \"#utility.yul\":9629:9633   */\n      0x20\n        /* \"#utility.yul\":9624:9627   */\n      dup3\n        /* \"#utility.yul\":9620:9634   */\n      add\n        /* \"#utility.yul\":9612:9634   */\n      swap1\n      pop\n        /* \"#utility.yul\":9509:9641   */\n      swap2\n      swap1\n      pop\n      jump\t// out\n        /* \"#utility.yul\":9647:9761   */\n    tag_163:\n        /* \"#utility.yul\":9714:9720   */\n      0x00\n        /* \"#utility.yul\":9748:9753   */\n      dup2\n        /* \"#utility.yul\":9742:9754   */\n      mload\n        /* \"#utility.yul\":9732:9754   */\n      swap1\n      pop\n        /* \"#utility.yul\":9647:9761   */\n      swap2\n      swap1\n      pop\n      jump\t// out\n        /* \"#utility.yul\":9767:9866   */\n    tag_185:\n        /* \"#utility.yul\":9819:9825   */\n      0x00\n        /* \"#utility.yul\":9853:9858   */\n      dup2\n        /* \"#utility.yul\":9847:9859   */\n      mload\n        /* \"#utility.yul\":9837:9859   */\n      swap1\n      pop\n        /* \"#utility.yul\":9767:9866   */\n      swap2\n      swap1\n      pop\n      jump\t// out\n        /* \"#utility.yul\":9872:9985   */\n    tag_173:\n        /* \"#utility.yul\":9942:9946   */\n      0x00\n        /* \"#utility.yul\":9974:9978   */\n      0x20\n        /* \"#utility.yul\":9969:9972   */\n      dup3\n        /* \"#utility.yul\":9965:9979   */\n      add\n        /* \"#utility.yul\":9957:9979   */\n      swap1\n      pop\n        /* \"#utility.yul\":9872:9985   */\n      swap2\n      swap1\n      pop\n      jump\t// out\n        /* \"#utility.yul\":9991:10175   */\n    tag_165:\n        /* \"#utility.yul\":10090:10101   */\n      0x00\n        /* \"#utility.yul\":10124:10130   */\n      dup3\n        /* \"#utility.yul\":10119:10122   */\n      dup3\n        /* \"#utility.yul\":10112:10131   */\n      mstore\n        /* \"#utility.yul\":10164:10168   */\n      0x20\n        /* \"#utility.yul\":10159:10162   */\n      dup3\n        /* \"#utility.yul\":10155:10169   */\n      add\n        /* \"#utility.yul\":10140:10169   */\n      swap1\n      pop\n        /* \"#utility.yul\":9991:10175   */\n      swap3\n      swap2\n      pop\n      pop\n      jump\t// out\n        /* \"#utility.yul\":10181:10350   */\n    tag_187:\n        /* \"#utility.yul\":10265:10276   */\n      0x00\n        /* \"#utility.yul\":10299:10305   */\n      dup3\n        /* \"#utility.yul\":10294:10297   */\n      dup3\n        /* \"#utility.yul\":10287:10306   */\n      mstore\n        /* \"#utility.yul\":10339:10343   */\n      0x20\n        /* \"#utility.yul\":10334:10337   */\n      dup3\n        /* \"#utility.yul\":10330:10344   */\n      add\n        /* \"#utility.yul\":10315:10344   */\n      swap1\n      pop\n        /* \"#utility.yul\":10181:10350   */\n      swap3\n      swap2\n      pop\n      pop\n      jump\t// out\n        /* \"#utility.yul\":10356:10504   */\n    tag_196:\n        /* \"#utility.yul\":10458:10469   */\n      0x00\n        /* \"#utility.yul\":10495:10498   */\n      dup2\n        /* \"#utility.yul\":10480:10498   */\n      swap1\n      pop\n        /* \"#utility.yul\":10356:10504   */\n      swap3\n      swap2\n      pop\n      pop\n      jump\t// out\n        /* \"#utility.yul\":10510:10606   */\n    tag_159:\n        /* \"#utility.yul\":10547:10554   */\n      0x00\n        /* \"#utility.yul\":10576:10600   */\n      tag_258\n        /* \"#utility.yul\":10594:10599   */\n      dup3\n        /* \"#utility.yul\":10576:10600   */\n      tag_259\n      jump\t// in\n    tag_258:\n        /* \"#utility.yul\":10565:10600   */\n      swap1\n      pop\n        /* \"#utility.yul\":10510:10606   */\n      swap2\n      swap1\n      pop\n      jump\t// out\n        /* \"#utility.yul\":10612:10689   */\n    tag_177:\n        /* \"#utility.yul\":10649:10656   */\n      0x00\n        /* \"#utility.yul\":10678:10683   */\n      dup2\n        /* \"#utility.yul\":10667:10683   */\n      swap1\n      pop\n        /* \"#utility.yul\":10612:10689   */\n      swap2\n      swap1\n      pop\n      jump\t// out\n        /* \"#utility.yul\":10695:10822   */\n    tag_261:\n        /* \"#utility.yul\":10740:10747   */\n      0x00\n        /* \"#utility.yul\":10769:10774   */\n      dup2\n        /* \"#utility.yul\":10758:10774   */\n      swap1\n      pop\n        /* \"#utility.yul\":10775:10816   */\n      tag_263\n        /* \"#utility.yul\":10810:10815   */\n      dup3\n        /* \"#utility.yul\":10775:10816   */\n      tag_264\n      jump\t// in\n    tag_263:\n        /* \"#utility.yul\":10695:10822   */\n      swap2\n      swap1\n      pop\n      jump\t// out\n        /* \"#utility.yul\":10828:10954   */\n    tag_259:\n        /* \"#utility.yul\":10865:10872   */\n      0x00\n        /* \"#utility.yul\":10905:10947   */\n      0xffffffffffffffffffffffffffffffffffffffff\n        /* \"#utility.yul\":10898:10903   */\n      dup3\n        /* \"#utility.yul\":10894:10948   */\n      and\n        /* \"#utility.yul\":10883:10948   */\n      swap1\n      pop\n        /* \"#utility.yul\":10828:10954   */\n      swap2\n      swap1\n      pop\n      jump\t// out\n        /* \"#utility.yul\":10960:11037   */\n    tag_216:\n        /* \"#utility.yul\":10997:11004   */\n      0x00\n        /* \"#utility.yul\":11026:11031   */\n      dup2\n        /* \"#utility.yul\":11015:11031   */\n      swap1\n      pop\n        /* \"#utility.yul\":10960:11037   */\n      swap2\n      swap1\n      pop\n      jump\t// out\n        /* \"#utility.yul\":11043:11170   */\n    tag_181:\n        /* \"#utility.yul\":11099:11108   */\n      0x00\n        /* \"#utility.yul\":11132:11164   */\n      tag_268\n        /* \"#utility.yul\":11158:11163   */\n      dup3\n        /* \"#utility.yul\":11132:11164   */\n      tag_261\n      jump\t// in\n    tag_268:\n        /* \"#utility.yul\":11119:11164   */\n      swap1\n      pop\n        /* \"#utility.yul\":11043:11170   */\n      swap2\n      swap1\n      pop\n      jump\t// out\n        /* \"#utility.yul\":11176:11330   */\n    tag_122:\n        /* \"#utility.yul\":11260:11266   */\n      dup3\n        /* \"#utility.yul\":11255:11258   */\n      dup2\n        /* \"#utility.yul\":11250:11253   */\n      dup4\n        /* \"#utility.yul\":11237:11267   */\n      calldatacopy\n        /* \"#utility.yul\":11322:11323   */\n      0x00\n        /* \"#utility.yul\":11313:11319   */\n      dup4\n        /* \"#utility.yul\":11308:11311   */\n      dup4\n        /* \"#utility.yul\":11304:11320   */\n      add\n        /* \"#utility.yul\":11297:11324   */\n      mstore\n        /* \"#utility.yul\":11176:11330   */\n      pop\n      pop\n      pop\n      jump\t// out\n        /* \"#utility.yul\":11336:11643   */\n    tag_189:\n        /* \"#utility.yul\":11404:11405   */\n      0x00\n        /* \"#utility.yul\":11414:11527   */\n    tag_271:\n        /* \"#utility.yul\":11428:11434   */\n      dup4\n        /* \"#utility.yul\":11425:11426   */\n      dup2\n        /* \"#utility.yul\":11422:11435   */\n      lt\n        /* \"#utility.yul\":11414:11527   */\n      iszero\n      tag_273\n      jumpi\n        /* \"#utility.yul\":11513:11514   */\n      dup1\n        /* \"#utility.yul\":11508:11511   */\n      dup3\n        /* \"#utility.yul\":11504:11515   */\n      add\n        /* \"#utility.yul\":11498:11516   */\n      mload\n        /* \"#utility.yul\":11494:11495   */\n      dup2\n        /* \"#utility.yul\":11489:11492   */\n      dup5\n        /* \"#utility.yul\":11485:11496   */\n      add\n        /* \"#utility.yul\":11478:11517   */\n      mstore\n        /* \"#utility.yul\":11450:11452   */\n      0x20\n        /* \"#utility.yul\":11447:11448   */\n      dup2\n        /* \"#utility.yul\":11443:11453   */\n      add\n        /* \"#utility.yul\":11438:11453   */\n      swap1\n      pop\n        /* \"#utility.yul\":11414:11527   */\n      jump(tag_271)\n    tag_273:\n        /* \"#utility.yul\":11545:11551   */\n      dup4\n        /* \"#utility.yul\":11542:11543   */\n      dup2\n        /* \"#utility.yul\":11539:11552   */\n      gt\n        /* \"#utility.yul\":11536:11637   */\n      iszero\n      tag_274\n      jumpi\n        /* \"#utility.yul\":11625:11626   */\n      0x00\n        /* \"#utility.yul\":11616:11622   */\n      dup5\n        /* \"#utility.yul\":11611:11614   */\n      dup5\n        /* \"#utility.yul\":11607:11623   */\n      add\n        /* \"#utility.yul\":11600:11627   */\n      mstore\n        /* \"#utility.yul\":11536:11637   */\n    tag_274:\n        /* \"#utility.yul\":11385:11643   */\n      pop\n        /* \"#utility.yul\":11336:11643   */\n      pop\n      pop\n      pop\n      jump\t// out\n        /* \"#utility.yul\":11649:11969   */\n    tag_106:\n        /* \"#utility.yul\":11693:11699   */\n      0x00\n        /* \"#utility.yul\":11730:11731   */\n      0x02\n        /* \"#utility.yul\":11724:11728   */\n      dup3\n        /* \"#utility.yul\":11720:11732   */\n      div\n        /* \"#utility.yul\":11710:11732   */\n      swap1\n      pop\n        /* \"#utility.yul\":11777:11778   */\n      0x01\n        /* \"#utility.yul\":11771:11775   */\n      dup3\n        /* \"#utility.yul\":11767:11779   */\n      and\n        /* \"#utility.yul\":11798:11816   */\n      dup1\n        /* \"#utility.yul\":11788:11869   */\n      tag_276\n      jumpi\n        /* \"#utility.yul\":11854:11858   */\n      0x7f\n        /* \"#utility.yul\":11846:11852   */\n      dup3\n        /* \"#utility.yul\":11842:11859   */\n      and\n        /* \"#utility.yul\":11832:11859   */\n      swap2\n      pop\n        /* \"#utility.yul\":11788:11869   */\n    tag_276:\n        /* \"#utility.yul\":11916:11918   */\n      0x20\n        /* \"#utility.yul\":11908:11914   */\n      dup3\n        /* \"#utility.yul\":11905:11919   */\n      lt\n        /* \"#utility.yul\":11885:11903   */\n      dup2\n        /* \"#utility.yul\":11882:11920   */\n      eq\n        /* \"#utility.yul\":11879:11963   */\n      iszero\n      tag_277\n      jumpi\n        /* \"#utility.yul\":11935:11953   */\n      tag_278\n      tag_279\n      jump\t// in\n    tag_278:\n        /* \"#utility.yul\":11879:11963   */\n    tag_277:\n        /* \"#utility.yul\":11700:11969   */\n      pop\n        /* \"#utility.yul\":11649:11969   */\n      swap2\n      swap1\n      pop\n      jump\t// out\n        /* \"#utility.yul\":11975:12256   */\n    tag_243:\n        /* \"#utility.yul\":12058:12085   */\n      tag_281\n        /* \"#utility.yul\":12080:12084   */\n      dup3\n        /* \"#utility.yul\":12058:12085   */\n      tag_191\n      jump\t// in\n    tag_281:\n        /* \"#utility.yul\":12050:12056   */\n      dup2\n        /* \"#utility.yul\":12046:12086   */\n      add\n        /* \"#utility.yul\":12188:12194   */\n      dup2\n        /* \"#utility.yul\":12176:12186   */\n      dup2\n        /* \"#utility.yul\":12173:12195   */\n      lt\n        /* \"#utility.yul\":12152:12170   */\n      0xffffffffffffffff\n        /* \"#utility.yul\":12140:12150   */\n      dup3\n        /* \"#utility.yul\":12137:12171   */\n      gt\n        /* \"#utility.yul\":12134:12196   */\n      or\n        /* \"#utility.yul\":12131:12219   */\n      iszero\n      tag_282\n      jumpi\n        /* \"#utility.yul\":12199:12217   */\n      tag_283\n      tag_248\n      jump\t// in\n    tag_283:\n        /* \"#utility.yul\":12131:12219   */\n    tag_282:\n        /* \"#utility.yul\":12239:12249   */\n      dup1\n        /* \"#utility.yul\":12235:12237   */\n      0x40\n        /* \"#utility.yul\":12228:12250   */\n      mstore\n        /* \"#utility.yul\":12018:12256   */\n      pop\n        /* \"#utility.yul\":11975:12256   */\n      pop\n      pop\n      jump\t// out\n        /* \"#utility.yul\":12262:12442   */\n    tag_65:\n        /* \"#utility.yul\":12310:12387   */\n      0x4e487b7100000000000000000000000000000000000000000000000000000000\n        /* \"#utility.yul\":12307:12308   */\n      0x00\n        /* \"#utility.yul\":12300:12388   */\n      mstore\n        /* \"#utility.yul\":12407:12411   */\n      0x21\n        /* \"#utility.yul\":12404:12405   */\n      0x04\n        /* \"#utility.yul\":12397:12412   */\n      mstore\n        /* \"#utility.yul\":12431:12435   */\n      0x24\n        /* \"#utility.yul\":12428:12429   */\n      0x00\n        /* \"#utility.yul\":12421:12436   */\n      revert\n        /* \"#utility.yul\":12448:12628   */\n    tag_279:\n        /* \"#utility.yul\":12496:12573   */\n      0x4e487b7100000000000000000000000000000000000000000000000000000000\n        /* \"#utility.yul\":12493:12494   */\n      0x00\n        /* \"#utility.yul\":12486:12574   */\n      mstore\n        /* \"#utility.yul\":12593:12597   */\n      0x22\n        /* \"#utility.yul\":12590:12591   */\n      0x04\n        /* \"#utility.yul\":12583:12598   */\n      mstore\n        /* \"#utility.yul\":12617:12621   */\n      0x24\n        /* \"#utility.yul\":12614:12615   */\n      0x00\n        /* \"#utility.yul\":12607:12622   */\n      revert\n        /* \"#utility.yul\":12634:12814   */\n    tag_248:\n        /* \"#utility.yul\":12682:12759   */\n      0x4e487b7100000000000000000000000000000000000000000000000000000000\n        /* \"#utility.yul\":12679:12680   */\n      0x00\n        /* \"#utility.yul\":12672:12760   */\n      mstore\n        /* \"#utility.yul\":12779:12783   */\n      0x41\n        /* \"#utility.yul\":12776:12777   */\n      0x04\n        /* \"#utility.yul\":12769:12784   */\n      mstore\n        /* \"#utility.yul\":12803:12807   */\n      0x24\n        /* \"#utility.yul\":12800:12801   */\n      0x00\n        /* \"#utility.yul\":12793:12808   */\n      revert\n        /* \"#utility.yul\":12820:12937   */\n    tag_131:\n        /* \"#utility.yul\":12929:12930   */\n      0x00\n        /* \"#utility.yul\":12926:12927   */\n      dup1\n        /* \"#utility.yul\":12919:12931   */\n      revert\n        /* \"#utility.yul\":12943:13060   */\n    tag_120:\n        /* \"#utility.yul\":13052:13053   */\n      0x00\n        /* \"#utility.yul\":13049:13050   */\n      dup1\n        /* \"#utility.yul\":13042:13054   */\n      revert\n        /* \"#utility.yul\":13066:13183   */\n    tag_147:\n        /* \"#utility.yul\":13175:13176   */\n      0x00\n        /* \"#utility.yul\":13172:13173   */\n      dup1\n        /* \"#utility.yul\":13165:13177   */\n      revert\n        /* \"#utility.yul\":13189:13306   */\n    tag_140:\n        /* \"#utility.yul\":13298:13299   */\n      0x00\n        /* \"#utility.yul\":13295:13296   */\n      dup1\n        /* \"#utility.yul\":13288:13300   */\n      revert\n        /* \"#utility.yul\":13312:13414   */\n    tag_191:\n        /* \"#utility.yul\":13353:13359   */\n      0x00\n        /* \"#utility.yul\":13404:13406   */\n      0x1f\n        /* \"#utility.yul\":13400:13407   */\n      not\n        /* \"#utility.yul\":13395:13397   */\n      0x1f\n        /* \"#utility.yul\":13388:13393   */\n      dup4\n        /* \"#utility.yul\":13384:13398   */\n      add\n        /* \"#utility.yul\":13380:13408   */\n      and\n        /* \"#utility.yul\":13370:13408   */\n      swap1\n      pop\n        /* \"#utility.yul\":13312:13414   */\n      swap2\n      swap1\n      pop\n      jump\t// out\n        /* \"#utility.yul\":13420:13594   */\n    tag_202:\n        /* \"#utility.yul\":13560:13586   */\n      0x596f7572206e6f74205075626c69632070726f76696465720000000000000000\n        /* \"#utility.yul\":13556:13557   */\n      0x00\n        /* \"#utility.yul\":13548:13554   */\n      dup3\n        /* \"#utility.yul\":13544:13558   */\n      add\n        /* \"#utility.yul\":13537:13587   */\n      mstore\n        /* \"#utility.yul\":13420:13594   */\n      pop\n      jump\t// out\n        /* \"#utility.yul\":13600:13828   */\n    tag_207:\n        /* \"#utility.yul\":13740:13774   */\n      0x596f7520617265206e6f7420746865206f776e6572206f722070726976617465\n        /* \"#utility.yul\":13736:13737   */\n      0x00\n        /* \"#utility.yul\":13728:13734   */\n      dup3\n        /* \"#utility.yul\":13724:13738   */\n      add\n        /* \"#utility.yul\":13717:13775   */\n      mstore\n        /* \"#utility.yul\":13809:13820   */\n      0x2070726f76696465720000000000000000000000000000000000000000000000\n        /* \"#utility.yul\":13804:13806   */\n      0x20\n        /* \"#utility.yul\":13796:13802   */\n      dup3\n        /* \"#utility.yul\":13792:13807   */\n      add\n        /* \"#utility.yul\":13785:13821   */\n      mstore\n        /* \"#utility.yul\":13600:13828   */\n      pop\n      jump\t// out\n        /* \"#utility.yul\":13834:13998   */\n    tag_212:\n        /* \"#utility.yul\":13974:13990   */\n      0x596f7572206e6f742061646d696e000000000000000000000000000000000000\n        /* \"#utility.yul\":13970:13971   */\n      0x00\n        /* \"#utility.yul\":13962:13968   */\n      dup3\n        /* \"#utility.yul\":13958:13972   */\n      add\n        /* \"#utility.yul\":13951:13991   */\n      mstore\n        /* \"#utility.yul\":13834:13998   */\n      pop\n      jump\t// out\n        /* \"#utility.yul\":14004:14117   */\n    tag_264:\n        /* \"#utility.yul\":14085:14086   */\n      0x05\n        /* \"#utility.yul\":14078:14083   */\n      dup2\n        /* \"#utility.yul\":14075:14087   */\n      lt\n        /* \"#utility.yul\":14065:14111   */\n      tag_296\n      jumpi\n        /* \"#utility.yul\":14091:14109   */\n      tag_297\n      tag_65\n      jump\t// in\n    tag_297:\n        /* \"#utility.yul\":14065:14111   */\n    tag_296:\n        /* \"#utility.yul\":14004:14117   */\n      pop\n      jump\t// out\n        /* \"#utility.yul\":14123:14245   */\n    tag_126:\n        /* \"#utility.yul\":14196:14220   */\n      tag_299\n        /* \"#utility.yul\":14214:14219   */\n      dup2\n        /* \"#utility.yul\":14196:14220   */\n      tag_159\n      jump\t// in\n    tag_299:\n        /* \"#utility.yul\":14189:14194   */\n      dup2\n        /* \"#utility.yul\":14186:14221   */\n      eq\n        /* \"#utility.yul\":14176:14239   */\n      tag_300\n      jumpi\n        /* \"#utility.yul\":14235:14236   */\n      0x00\n        /* \"#utility.yul\":14232:14233   */\n      dup1\n        /* \"#utility.yul\":14225:14237   */\n      revert\n        /* \"#utility.yul\":14176:14239   */\n    tag_300:\n        /* \"#utility.yul\":14123:14245   */\n      pop\n      jump\t// out\n        /* \"#utility.yul\":14251:14373   */\n    tag_136:\n        /* \"#utility.yul\":14324:14348   */\n      tag_302\n        /* \"#utility.yul\":14342:14347   */\n      dup2\n        /* \"#utility.yul\":14324:14348   */\n      tag_216\n      jump\t// in\n    tag_302:\n        /* \"#utility.yul\":14317:14322   */\n      dup2\n        /* \"#utility.yul\":14314:14349   */\n      eq\n        /* \"#utility.yul\":14304:14367   */\n      tag_303\n      jumpi\n        /* \"#utility.yul\":14363:14364   */\n      0x00\n        /* \"#utility.yul\":14360:14361   */\n      dup1\n        /* \"#utility.yul\":14353:14365   */\n      revert\n        /* \"#utility.yul\":14304:14367   */\n    tag_303:\n        /* \"#utility.yul\":14251:14373   */\n      pop\n      jump\t// out\n\n    auxdata: 0xa2646970667358221220bd45eda9ca65f37944f57a5e9f66b2158a79037a983eb33e7db762dbd1322bc064736f6c63430008070033\n}\n",
				"bytecode": {
					"linkReferences": {},
					"object": "6080604052632cb41780600255620186a060035534801561001f57600080fd5b50610fd78061002f6000396000f3fe608060405234801561001057600080fd5b50600436106100a95760003560e01c80638e4f8c6b116100715780638e4f8c6b14610166578063948942ad1461019657806399067ede146101b4578063b06cdc12146101e4578063c10e391114610214578063fc83725914610232576100a9565b80630761c8b9146100ae5780632599d6d0146100cc57806332cbdd03146100fc57806372f0d72b146101185780637f89128f14610148575b600080fd5b6100b6610268565b6040516100c39190610c2b565b60405180910390f35b6100e660048036038101906100e191906108d9565b61026e565b6040516100f39190610c2b565b60405180910390f35b6101166004803603810190610111919061094f565b6102b9565b005b610132600480360381019061012d91906108d9565b610378565b60405161013f9190610c2b565b60405180910390f35b6101506103c3565b60405161015d9190610b18565b60405180910390f35b610180600480360381019061017b9190610906565b610506565b60405161018d9190610b3a565b60405180910390f35b61019e610536565b6040516101ab9190610c2b565b60405180910390f35b6101ce60048036038101906101c991906108d9565b61053c565b6040516101db9190610c2b565b60405180910390f35b6101fe60048036038101906101f991906108d9565b61055d565b60405161020b9190610c2b565b60405180910390f35b61021c6105a8565b6040516102299190610b18565b60405180910390f35b61024c600480360381019061024791906108d9565b610768565b60405161025f9796959493929190610b55565b60405180910390f35b60025481565b60008060008373ffffffffffffffffffffffffffffffffffffffff1673ffffffffffffffffffffffffffffffffffffffff168152602001908152602001600020600401549050919050565b600160048111156102cd576102cc610e0c565b5b6000803373ffffffffffffffffffffffffffffffffffffffff1673ffffffffffffffffffffffffffffffffffffffff16815260200190815260200160002060000160009054906101000a900460ff16600481111561032e5761032d610e0c565b5b1461036e576040517f08c379a000000000000000000000000000000000000000000000000000000000815260040161036590610bcb565b60405180910390fd5b8060028190555050565b60008060008373ffffffffffffffffffffffffffffffffffffffff1673ffffffffffffffffffffffffffffffffffffffff168152602001908152602001600020600601549050919050565b6060600060048111156103d9576103d8610e0c565b5b6000803373ffffffffffffffffffffffffffffffffffffffff1673ffffffffffffffffffffffffffffffffffffffff16815260200190815260200160002060000160009054906101000a900460ff16600481111561043a57610439610e0c565b5b1461047a576040517f08c379a000000000000000000000000000000000000000000000000000000000815260040161047190610c0b565b60405180910390fd5b60088054806020026020016040519081016040528092919081815260200182805480156104fc57602002820191906000526020600020905b8160009054906101000a900473ffffffffffffffffffffffffffffffffffffffff1673ffffffffffffffffffffffffffffffffffffffff16815260200190600101908083116104b2575b5050505050905090565b6000816040516020016105199190610b01565b604051602081830303815290604052805190602001209050919050565b60035481565b60008173ffffffffffffffffffffffffffffffffffffffff16319050919050565b60008060008373ffffffffffffffffffffffffffffffffffffffff1673ffffffffffffffffffffffffffffffffffffffff168152602001908152602001600020600501549050919050565b6060600060048111156105be576105bd610e0c565b5b6000803373ffffffffffffffffffffffffffffffffffffffff1673ffffffffffffffffffffffffffffffffffffffff16815260200190815260200160002060000160009054906101000a900460ff16600481111561061f5761061e610e0c565b5b148061069d57506002600481111561063a57610639610e0c565b5b6000803373ffffffffffffffffffffffffffffffffffffffff1673ffffffffffffffffffffffffffffffffffffffff16815260200190815260200160002060000160009054906101000a900460ff16600481111561069b5761069a610e0c565b5b145b6106dc576040517f08c379a00000000000000000000000000000000000000000000000000000000081526004016106d390610beb565b60405180910390fd5b600780548060200260200160405190810160405280929190818152602001828054801561075e57602002820191906000526020600020905b8160009054906101000a900473ffffffffffffffffffffffffffffffffffffffff1673ffffffffffffffffffffffffffffffffffffffff1681526020019060010190808311610714575b5050505050905090565b60006020528060005260406000206000915090508060000160009054906101000a900460ff169080600101805461079e90610da9565b80601f01602080910402602001604051908101604052809291908181526020018280546107ca90610da9565b80156108175780601f106107ec57610100808354040283529160200191610817565b820191906000526020600020905b8154815290600101906020018083116107fa57829003601f168201915b5050505050908060020154908060030154908060040154908060050154908060060154905087565b600061085261084d84610c6b565b610c46565b90508281526020810184848401111561086e5761086d610e9e565b5b610879848285610d67565b509392505050565b60008135905061089081610f73565b92915050565b600082601f8301126108ab576108aa610e99565b5b81356108bb84826020860161083f565b91505092915050565b6000813590506108d381610f8a565b92915050565b6000602082840312156108ef576108ee610ea8565b5b60006108fd84828501610881565b91505092915050565b60006020828403121561091c5761091b610ea8565b5b600082013567ffffffffffffffff81111561093a57610939610ea3565b5b61094684828501610896565b91505092915050565b60006020828403121561096557610964610ea8565b5b6000610973848285016108c4565b91505092915050565b60006109888383610994565b60208301905092915050565b61099d81610cfc565b82525050565b60006109ae82610cac565b6109b88185610ccf565b93506109c383610c9c565b8060005b838110156109f45781516109db888261097c565b97506109e683610cc2565b9250506001810190506109c7565b5085935050505092915050565b610a0a81610d0e565b82525050565b610a1981610d55565b82525050565b6000610a2a82610cb7565b610a348185610ce0565b9350610a44818560208601610d76565b610a4d81610ead565b840191505092915050565b6000610a6382610cb7565b610a6d8185610cf1565b9350610a7d818560208601610d76565b80840191505092915050565b6000610a96601883610ce0565b9150610aa182610ebe565b602082019050919050565b6000610ab9602983610ce0565b9150610ac482610ee7565b604082019050919050565b6000610adc600e83610ce0565b9150610ae782610f36565b602082019050919050565b610afb81610d4b565b82525050565b6000610b0d8284610a58565b915081905092915050565b60006020820190508181036000830152610b3281846109a3565b905092915050565b6000602082019050610b4f6000830184610a01565b92915050565b600060e082019050610b6a600083018a610a10565b8181036020830152610b7c8189610a1f565b9050610b8b6040830188610a01565b610b986060830187610af2565b610ba56080830186610af2565b610bb260a0830185610af2565b610bbf60c0830184610af2565b98975050505050505050565b60006020820190508181036000830152610be481610a89565b9050919050565b60006020820190508181036000830152610c0481610aac565b9050919050565b60006020820190508181036000830152610c2481610acf565b9050919050565b6000602082019050610c406000830184610af2565b92915050565b6000610c50610c61565b9050610c5c8282610ddb565b919050565b6000604051905090565b600067ffffffffffffffff821115610c8657610c85610e6a565b5b610c8f82610ead565b9050602081019050919050565b6000819050602082019050919050565b600081519050919050565b600081519050919050565b6000602082019050919050565b600082825260208201905092915050565b600082825260208201905092915050565b600081905092915050565b6000610d0782610d2b565b9050919050565b6000819050919050565b6000819050610d2682610f5f565b919050565b600073ffffffffffffffffffffffffffffffffffffffff82169050919050565b6000819050919050565b6000610d6082610d18565b9050919050565b82818337600083830152505050565b60005b83811015610d94578082015181840152602081019050610d79565b83811115610da3576000848401525b50505050565b60006002820490506001821680610dc157607f821691505b60208210811415610dd557610dd4610e3b565b5b50919050565b610de482610ead565b810181811067ffffffffffffffff82111715610e0357610e02610e6a565b5b80604052505050565b7f4e487b7100000000000000000000000000000000000000000000000000000000600052602160045260246000fd5b7f4e487b7100000000000000000000000000000000000000000000000000000000600052602260045260246000fd5b7f4e487b7100000000000000000000000000000000000000000000000000000000600052604160045260246000fd5b600080fd5b600080fd5b600080fd5b600080fd5b6000601f19601f8301169050919050565b7f596f7572206e6f74205075626c69632070726f76696465720000000000000000600082015250565b7f596f7520617265206e6f7420746865206f776e6572206f72207072697661746560008201527f2070726f76696465720000000000000000000000000000000000000000000000602082015250565b7f596f7572206e6f742061646d696e000000000000000000000000000000000000600082015250565b60058110610f7057610f6f610e0c565b5b50565b610f7c81610cfc565b8114610f8757600080fd5b50565b610f9381610d4b565b8114610f9e57600080fd5b5056fea2646970667358221220bd45eda9ca65f37944f57a5e9f66b2158a79037a983eb33e7db762dbd1322bc064736f6c63430008070033",
					"opcodes": "PUSH1 0x80 PUSH1 0x40 MSTORE PUSH4 0x2CB41780 PUSH1 0x2 SSTORE PUSH3 0x186A0 PUSH1 0x3 SSTORE CALLVALUE DUP1 ISZERO PUSH2 0x1F JUMPI PUSH1 0x0 DUP1 REVERT JUMPDEST POP PUSH2 0xFD7 DUP1 PUSH2 0x2F PUSH1 0x0 CODECOPY PUSH1 0x0 RETURN INVALID PUSH1 0x80 PUSH1 0x40 MSTORE CALLVALUE DUP1 ISZERO PUSH2 0x10 JUMPI PUSH1 0x0 DUP1 REVERT JUMPDEST POP PUSH1 0x4 CALLDATASIZE LT PUSH2 0xA9 JUMPI PUSH1 0x0 CALLDATALOAD PUSH1 0xE0 SHR DUP1 PUSH4 0x8E4F8C6B GT PUSH2 0x71 JUMPI DUP1 PUSH4 0x8E4F8C6B EQ PUSH2 0x166 JUMPI DUP1 PUSH4 0x948942AD EQ PUSH2 0x196 JUMPI DUP1 PUSH4 0x99067EDE EQ PUSH2 0x1B4 JUMPI DUP1 PUSH4 0xB06CDC12 EQ PUSH2 0x1E4 JUMPI DUP1 PUSH4 0xC10E3911 EQ PUSH2 0x214 JUMPI DUP1 PUSH4 0xFC837259 EQ PUSH2 0x232 JUMPI PUSH2 0xA9 JUMP JUMPDEST DUP1 PUSH4 0x761C8B9 EQ PUSH2 0xAE JUMPI DUP1 PUSH4 0x2599D6D0 EQ PUSH2 0xCC JUMPI DUP1 PUSH4 0x32CBDD03 EQ PUSH2 0xFC JUMPI DUP1 PUSH4 0x72F0D72B EQ PUSH2 0x118 JUMPI DUP1 PUSH4 0x7F89128F EQ PUSH2 0x148 JUMPI JUMPDEST PUSH1 0x0 DUP1 REVERT JUMPDEST PUSH2 0xB6 PUSH2 0x268 JUMP JUMPDEST PUSH1 0x40 MLOAD PUSH2 0xC3 SWAP2 SWAP1 PUSH2 0xC2B JUMP JUMPDEST PUSH1 0x40 MLOAD DUP1 SWAP2 SUB SWAP1 RETURN JUMPDEST PUSH2 0xE6 PUSH1 0x4 DUP1 CALLDATASIZE SUB DUP2 ADD SWAP1 PUSH2 0xE1 SWAP2 SWAP1 PUSH2 0x8D9 JUMP JUMPDEST PUSH2 0x26E JUMP JUMPDEST PUSH1 0x40 MLOAD PUSH2 0xF3 SWAP2 SWAP1 PUSH2 0xC2B JUMP JUMPDEST PUSH1 0x40 MLOAD DUP1 SWAP2 SUB SWAP1 RETURN JUMPDEST PUSH2 0x116 PUSH1 0x4 DUP1 CALLDATASIZE SUB DUP2 ADD SWAP1 PUSH2 0x111 SWAP2 SWAP1 PUSH2 0x94F JUMP JUMPDEST PUSH2 0x2B9 JUMP JUMPDEST STOP JUMPDEST PUSH2 0x132 PUSH1 0x4 DUP1 CALLDATASIZE SUB DUP2 ADD SWAP1 PUSH2 0x12D SWAP2 SWAP1 PUSH2 0x8D9 JUMP JUMPDEST PUSH2 0x378 JUMP JUMPDEST PUSH1 0x40 MLOAD PUSH2 0x13F SWAP2 SWAP1 PUSH2 0xC2B JUMP JUMPDEST PUSH1 0x40 MLOAD DUP1 SWAP2 SUB SWAP1 RETURN JUMPDEST PUSH2 0x150 PUSH2 0x3C3 JUMP JUMPDEST PUSH1 0x40 MLOAD PUSH2 0x15D SWAP2 SWAP1 PUSH2 0xB18 JUMP JUMPDEST PUSH1 0x40 MLOAD DUP1 SWAP2 SUB SWAP1 RETURN JUMPDEST PUSH2 0x180 PUSH1 0x4 DUP1 CALLDATASIZE SUB DUP2 ADD SWAP1 PUSH2 0x17B SWAP2 SWAP1 PUSH2 0x906 JUMP JUMPDEST PUSH2 0x506 JUMP JUMPDEST PUSH1 0x40 MLOAD PUSH2 0x18D SWAP2 SWAP1 PUSH2 0xB3A JUMP JUMPDEST PUSH1 0x40 MLOAD DUP1 SWAP2 SUB SWAP1 RETURN JUMPDEST PUSH2 0x19E PUSH2 0x536 JUMP JUMPDEST PUSH1 0x40 MLOAD PUSH2 0x1AB SWAP2 SWAP1 PUSH2 0xC2B JUMP JUMPDEST PUSH1 0x40 MLOAD DUP1 SWAP2 SUB SWAP1 RETURN JUMPDEST PUSH2 0x1CE PUSH1 0x4 DUP1 CALLDATASIZE SUB DUP2 ADD SWAP1 PUSH2 0x1C9 SWAP2 SWAP1 PUSH2 0x8D9 JUMP JUMPDEST PUSH2 0x53C JUMP JUMPDEST PUSH1 0x40 MLOAD PUSH2 0x1DB SWAP2 SWAP1 PUSH2 0xC2B JUMP JUMPDEST PUSH1 0x40 MLOAD DUP1 SWAP2 SUB SWAP1 RETURN JUMPDEST PUSH2 0x1FE PUSH1 0x4 DUP1 CALLDATASIZE SUB DUP2 ADD SWAP1 PUSH2 0x1F9 SWAP2 SWAP1 PUSH2 0x8D9 JUMP JUMPDEST PUSH2 0x55D JUMP JUMPDEST PUSH1 0x40 MLOAD PUSH2 0x20B SWAP2 SWAP1 PUSH2 0xC2B JUMP JUMPDEST PUSH1 0x40 MLOAD DUP1 SWAP2 SUB SWAP1 RETURN JUMPDEST PUSH2 0x21C PUSH2 0x5A8 JUMP JUMPDEST PUSH1 0x40 MLOAD PUSH2 0x229 SWAP2 SWAP1 PUSH2 0xB18 JUMP JUMPDEST PUSH1 0x40 MLOAD DUP1 SWAP2 SUB SWAP1 RETURN JUMPDEST PUSH2 0x24C PUSH1 0x4 DUP1 CALLDATASIZE SUB DUP2 ADD SWAP1 PUSH2 0x247 SWAP2 SWAP1 PUSH2 0x8D9 JUMP JUMPDEST PUSH2 0x768 JUMP JUMPDEST PUSH1 0x40 MLOAD PUSH2 0x25F SWAP8 SWAP7 SWAP6 SWAP5 SWAP4 SWAP3 SWAP2 SWAP1 PUSH2 0xB55 JUMP JUMPDEST PUSH1 0x40 MLOAD DUP1 SWAP2 SUB SWAP1 RETURN JUMPDEST PUSH1 0x2 SLOAD DUP2 JUMP JUMPDEST PUSH1 0x0 DUP1 PUSH1 0x0 DUP4 PUSH20 0xFFFFFFFFFFFFFFFFFFFFFFFFFFFFFFFFFFFFFFFF AND PUSH20 0xFFFFFFFFFFFFFFFFFFFFFFFFFFFFFFFFFFFFFFFF AND DUP2 MSTORE PUSH1 0x20 ADD SWAP1 DUP2 MSTORE PUSH1 0x20 ADD PUSH1 0x0 KECCAK256 PUSH1 0x4 ADD SLOAD SWAP1 POP SWAP2 SWAP1 POP JUMP JUMPDEST PUSH1 0x1 PUSH1 0x4 DUP2 GT ISZERO PUSH2 0x2CD JUMPI PUSH2 0x2CC PUSH2 0xE0C JUMP JUMPDEST JUMPDEST PUSH1 0x0 DUP1 CALLER PUSH20 0xFFFFFFFFFFFFFFFFFFFFFFFFFFFFFFFFFFFFFFFF AND PUSH20 0xFFFFFFFFFFFFFFFFFFFFFFFFFFFFFFFFFFFFFFFF AND DUP2 MSTORE PUSH1 0x20 ADD SWAP1 DUP2 MSTORE PUSH1 0x20 ADD PUSH1 0x0 KECCAK256 PUSH1 0x0 ADD PUSH1 0x0 SWAP1 SLOAD SWAP1 PUSH2 0x100 EXP SWAP1 DIV PUSH1 0xFF AND PUSH1 0x4 DUP2 GT ISZERO PUSH2 0x32E JUMPI PUSH2 0x32D PUSH2 0xE0C JUMP JUMPDEST JUMPDEST EQ PUSH2 0x36E JUMPI PUSH1 0x40 MLOAD PUSH32 0x8C379A000000000000000000000000000000000000000000000000000000000 DUP2 MSTORE PUSH1 0x4 ADD PUSH2 0x365 SWAP1 PUSH2 0xBCB JUMP JUMPDEST PUSH1 0x40 MLOAD DUP1 SWAP2 SUB SWAP1 REVERT JUMPDEST DUP1 PUSH1 0x2 DUP2 SWAP1 SSTORE POP POP JUMP JUMPDEST PUSH1 0x0 DUP1 PUSH1 0x0 DUP4 PUSH20 0xFFFFFFFFFFFFFFFFFFFFFFFFFFFFFFFFFFFFFFFF AND PUSH20 0xFFFFFFFFFFFFFFFFFFFFFFFFFFFFFFFFFFFFFFFF AND DUP2 MSTORE PUSH1 0x20 ADD SWAP1 DUP2 MSTORE PUSH1 0x20 ADD PUSH1 0x0 KECCAK256 PUSH1 0x6 ADD SLOAD SWAP1 POP SWAP2 SWAP1 POP JUMP JUMPDEST PUSH1 0x60 PUSH1 0x0 PUSH1 0x4 DUP2 GT ISZERO PUSH2 0x3D9 JUMPI PUSH2 0x3D8 PUSH2 0xE0C JUMP JUMPDEST JUMPDEST PUSH1 0x0 DUP1 CALLER PUSH20 0xFFFFFFFFFFFFFFFFFFFFFFFFFFFFFFFFFFFFFFFF AND PUSH20 0xFFFFFFFFFFFFFFFFFFFFFFFFFFFFFFFFFFFFFFFF AND DUP2 MSTORE PUSH1 0x20 ADD SWAP1 DUP2 MSTORE PUSH1 0x20 ADD PUSH1 0x0 KECCAK256 PUSH1 0x0 ADD PUSH1 0x0 SWAP1 SLOAD SWAP1 PUSH2 0x100 EXP SWAP1 DIV PUSH1 0xFF AND PUSH1 0x4 DUP2 GT ISZERO PUSH2 0x43A JUMPI PUSH2 0x439 PUSH2 0xE0C JUMP JUMPDEST JUMPDEST EQ PUSH2 0x47A JUMPI PUSH1 0x40 MLOAD PUSH32 0x8C379A000000000000000000000000000000000000000000000000000000000 DUP2 MSTORE PUSH1 0x4 ADD PUSH2 0x471 SWAP1 PUSH2 0xC0B JUMP JUMPDEST PUSH1 0x40 MLOAD DUP1 SWAP2 SUB SWAP1 REVERT JUMPDEST PUSH1 0x8 DUP1 SLOAD DUP1 PUSH1 0x20 MUL PUSH1 0x20 ADD PUSH1 0x40 MLOAD SWAP1 DUP2 ADD PUSH1 0x40 MSTORE DUP1 SWAP3 SWAP2 SWAP1 DUP2 DUP2 MSTORE PUSH1 0x20 ADD DUP3 DUP1 SLOAD DUP1 ISZERO PUSH2 0x4FC JUMPI PUSH1 0x20 MUL DUP3 ADD SWAP2 SWAP1 PUSH1 0x0 MSTORE PUSH1 0x20 PUSH1 0x0 KECCAK256 SWAP1 JUMPDEST DUP2 PUSH1 0x0 SWAP1 SLOAD SWAP1 PUSH2 0x100 EXP SWAP1 DIV PUSH20 0xFFFFFFFFFFFFFFFFFFFFFFFFFFFFFFFFFFFFFFFF AND PUSH20 0xFFFFFFFFFFFFFFFFFFFFFFFFFFFFFFFFFFFFFFFF AND DUP2 MSTORE PUSH1 0x20 ADD SWAP1 PUSH1 0x1 ADD SWAP1 DUP1 DUP4 GT PUSH2 0x4B2 JUMPI JUMPDEST POP POP POP POP POP SWAP1 POP SWAP1 JUMP JUMPDEST PUSH1 0x0 DUP2 PUSH1 0x40 MLOAD PUSH1 0x20 ADD PUSH2 0x519 SWAP2 SWAP1 PUSH2 0xB01 JUMP JUMPDEST PUSH1 0x40 MLOAD PUSH1 0x20 DUP2 DUP4 SUB SUB DUP2 MSTORE SWAP1 PUSH1 0x40 MSTORE DUP1 MLOAD SWAP1 PUSH1 0x20 ADD KECCAK256 SWAP1 POP SWAP2 SWAP1 POP JUMP JUMPDEST PUSH1 0x3 SLOAD DUP2 JUMP JUMPDEST PUSH1 0x0 DUP2 PUSH20 0xFFFFFFFFFFFFFFFFFFFFFFFFFFFFFFFFFFFFFFFF AND BALANCE SWAP1 POP SWAP2 SWAP1 POP JUMP JUMPDEST PUSH1 0x0 DUP1 PUSH1 0x0 DUP4 PUSH20 0xFFFFFFFFFFFFFFFFFFFFFFFFFFFFFFFFFFFFFFFF AND PUSH20 0xFFFFFFFFFFFFFFFFFFFFFFFFFFFFFFFFFFFFFFFF AND DUP2 MSTORE PUSH1 0x20 ADD SWAP1 DUP2 MSTORE PUSH1 0x20 ADD PUSH1 0x0 KECCAK256 PUSH1 0x5 ADD SLOAD SWAP1 POP SWAP2 SWAP1 POP JUMP JUMPDEST PUSH1 0x60 PUSH1 0x0 PUSH1 0x4 DUP2 GT ISZERO PUSH2 0x5BE JUMPI PUSH2 0x5BD PUSH2 0xE0C JUMP JUMPDEST JUMPDEST PUSH1 0x0 DUP1 CALLER PUSH20 0xFFFFFFFFFFFFFFFFFFFFFFFFFFFFFFFFFFFFFFFF AND PUSH20 0xFFFFFFFFFFFFFFFFFFFFFFFFFFFFFFFFFFFFFFFF AND DUP2 MSTORE PUSH1 0x20 ADD SWAP1 DUP2 MSTORE PUSH1 0x20 ADD PUSH1 0x0 KECCAK256 PUSH1 0x0 ADD PUSH1 0x0 SWAP1 SLOAD SWAP1 PUSH2 0x100 EXP SWAP1 DIV PUSH1 0xFF AND PUSH1 0x4 DUP2 GT ISZERO PUSH2 0x61F JUMPI PUSH2 0x61E PUSH2 0xE0C JUMP JUMPDEST JUMPDEST EQ DUP1 PUSH2 0x69D JUMPI POP PUSH1 0x2 PUSH1 0x4 DUP2 GT ISZERO PUSH2 0x63A JUMPI PUSH2 0x639 PUSH2 0xE0C JUMP JUMPDEST JUMPDEST PUSH1 0x0 DUP1 CALLER PUSH20 0xFFFFFFFFFFFFFFFFFFFFFFFFFFFFFFFFFFFFFFFF AND PUSH20 0xFFFFFFFFFFFFFFFFFFFFFFFFFFFFFFFFFFFFFFFF AND DUP2 MSTORE PUSH1 0x20 ADD SWAP1 DUP2 MSTORE PUSH1 0x20 ADD PUSH1 0x0 KECCAK256 PUSH1 0x0 ADD PUSH1 0x0 SWAP1 SLOAD SWAP1 PUSH2 0x100 EXP SWAP1 DIV PUSH1 0xFF AND PUSH1 0x4 DUP2 GT ISZERO PUSH2 0x69B JUMPI PUSH2 0x69A PUSH2 0xE0C JUMP JUMPDEST JUMPDEST EQ JUMPDEST PUSH2 0x6DC JUMPI PUSH1 0x40 MLOAD PUSH32 0x8C379A000000000000000000000000000000000000000000000000000000000 DUP2 MSTORE PUSH1 0x4 ADD PUSH2 0x6D3 SWAP1 PUSH2 0xBEB JUMP JUMPDEST PUSH1 0x40 MLOAD DUP1 SWAP2 SUB SWAP1 REVERT JUMPDEST PUSH1 0x7 DUP1 SLOAD DUP1 PUSH1 0x20 MUL PUSH1 0x20 ADD PUSH1 0x40 MLOAD SWAP1 DUP2 ADD PUSH1 0x40 MSTORE DUP1 SWAP3 SWAP2 SWAP1 DUP2 DUP2 MSTORE PUSH1 0x20 ADD DUP3 DUP1 SLOAD DUP1 ISZERO PUSH2 0x75E JUMPI PUSH1 0x20 MUL DUP3 ADD SWAP2 SWAP1 PUSH1 0x0 MSTORE PUSH1 0x20 PUSH1 0x0 KECCAK256 SWAP1 JUMPDEST DUP2 PUSH1 0x0 SWAP1 SLOAD SWAP1 PUSH2 0x100 EXP SWAP1 DIV PUSH20 0xFFFFFFFFFFFFFFFFFFFFFFFFFFFFFFFFFFFFFFFF AND PUSH20 0xFFFFFFFFFFFFFFFFFFFFFFFFFFFFFFFFFFFFFFFF AND DUP2 MSTORE PUSH1 0x20 ADD SWAP1 PUSH1 0x1 ADD SWAP1 DUP1 DUP4 GT PUSH2 0x714 JUMPI JUMPDEST POP POP POP POP POP SWAP1 POP SWAP1 JUMP JUMPDEST PUSH1 0x0 PUSH1 0x20 MSTORE DUP1 PUSH1 0x0 MSTORE PUSH1 0x40 PUSH1 0x0 KECCAK256 PUSH1 0x0 SWAP2 POP SWAP1 POP DUP1 PUSH1 0x0 ADD PUSH1 0x0 SWAP1 SLOAD SWAP1 PUSH2 0x100 EXP SWAP1 DIV PUSH1 0xFF AND SWAP1 DUP1 PUSH1 0x1 ADD DUP1 SLOAD PUSH2 0x79E SWAP1 PUSH2 0xDA9 JUMP JUMPDEST DUP1 PUSH1 0x1F ADD PUSH1 0x20 DUP1 SWAP2 DIV MUL PUSH1 0x20 ADD PUSH1 0x40 MLOAD SWAP1 DUP2 ADD PUSH1 0x40 MSTORE DUP1 SWAP3 SWAP2 SWAP1 DUP2 DUP2 MSTORE PUSH1 0x20 ADD DUP3 DUP1 SLOAD PUSH2 0x7CA SWAP1 PUSH2 0xDA9 JUMP JUMPDEST DUP1 ISZERO PUSH2 0x817 JUMPI DUP1 PUSH1 0x1F LT PUSH2 0x7EC JUMPI PUSH2 0x100 DUP1 DUP4 SLOAD DIV MUL DUP4 MSTORE SWAP2 PUSH1 0x20 ADD SWAP2 PUSH2 0x817 JUMP JUMPDEST DUP3 ADD SWAP2 SWAP1 PUSH1 0x0 MSTORE PUSH1 0x20 PUSH1 0x0 KECCAK256 SWAP1 JUMPDEST DUP2 SLOAD DUP2 MSTORE SWAP1 PUSH1 0x1 ADD SWAP1 PUSH1 0x20 ADD DUP1 DUP4 GT PUSH2 0x7FA JUMPI DUP3 SWAP1 SUB PUSH1 0x1F AND DUP3 ADD SWAP2 JUMPDEST POP POP POP POP POP SWAP1 DUP1 PUSH1 0x2 ADD SLOAD SWAP1 DUP1 PUSH1 0x3 ADD SLOAD SWAP1 DUP1 PUSH1 0x4 ADD SLOAD SWAP1 DUP1 PUSH1 0x5 ADD SLOAD SWAP1 DUP1 PUSH1 0x6 ADD SLOAD SWAP1 POP DUP8 JUMP JUMPDEST PUSH1 0x0 PUSH2 0x852 PUSH2 0x84D DUP5 PUSH2 0xC6B JUMP JUMPDEST PUSH2 0xC46 JUMP JUMPDEST SWAP1 POP DUP3 DUP2 MSTORE PUSH1 0x20 DUP2 ADD DUP5 DUP5 DUP5 ADD GT ISZERO PUSH2 0x86E JUMPI PUSH2 0x86D PUSH2 0xE9E JUMP JUMPDEST JUMPDEST PUSH2 0x879 DUP5 DUP3 DUP6 PUSH2 0xD67 JUMP JUMPDEST POP SWAP4 SWAP3 POP POP POP JUMP JUMPDEST PUSH1 0x0 DUP2 CALLDATALOAD SWAP1 POP PUSH2 0x890 DUP2 PUSH2 0xF73 JUMP JUMPDEST SWAP3 SWAP2 POP POP JUMP JUMPDEST PUSH1 0x0 DUP3 PUSH1 0x1F DUP4 ADD SLT PUSH2 0x8AB JUMPI PUSH2 0x8AA PUSH2 0xE99 JUMP JUMPDEST JUMPDEST DUP2 CALLDATALOAD PUSH2 0x8BB DUP5 DUP3 PUSH1 0x20 DUP7 ADD PUSH2 0x83F JUMP JUMPDEST SWAP2 POP POP SWAP3 SWAP2 POP POP JUMP JUMPDEST PUSH1 0x0 DUP2 CALLDATALOAD SWAP1 POP PUSH2 0x8D3 DUP2 PUSH2 0xF8A JUMP JUMPDEST SWAP3 SWAP2 POP POP JUMP JUMPDEST PUSH1 0x0 PUSH1 0x20 DUP3 DUP5 SUB SLT ISZERO PUSH2 0x8EF JUMPI PUSH2 0x8EE PUSH2 0xEA8 JUMP JUMPDEST JUMPDEST PUSH1 0x0 PUSH2 0x8FD DUP5 DUP3 DUP6 ADD PUSH2 0x881 JUMP JUMPDEST SWAP2 POP POP SWAP3 SWAP2 POP POP JUMP JUMPDEST PUSH1 0x0 PUSH1 0x20 DUP3 DUP5 SUB SLT ISZERO PUSH2 0x91C JUMPI PUSH2 0x91B PUSH2 0xEA8 JUMP JUMPDEST JUMPDEST PUSH1 0x0 DUP3 ADD CALLDATALOAD PUSH8 0xFFFFFFFFFFFFFFFF DUP2 GT ISZERO PUSH2 0x93A JUMPI PUSH2 0x939 PUSH2 0xEA3 JUMP JUMPDEST JUMPDEST PUSH2 0x946 DUP5 DUP3 DUP6 ADD PUSH2 0x896 JUMP JUMPDEST SWAP2 POP POP SWAP3 SWAP2 POP POP JUMP JUMPDEST PUSH1 0x0 PUSH1 0x20 DUP3 DUP5 SUB SLT ISZERO PUSH2 0x965 JUMPI PUSH2 0x964 PUSH2 0xEA8 JUMP JUMPDEST JUMPDEST PUSH1 0x0 PUSH2 0x973 DUP5 DUP3 DUP6 ADD PUSH2 0x8C4 JUMP JUMPDEST SWAP2 POP POP SWAP3 SWAP2 POP POP JUMP JUMPDEST PUSH1 0x0 PUSH2 0x988 DUP4 DUP4 PUSH2 0x994 JUMP JUMPDEST PUSH1 0x20 DUP4 ADD SWAP1 POP SWAP3 SWAP2 POP POP JUMP JUMPDEST PUSH2 0x99D DUP2 PUSH2 0xCFC JUMP JUMPDEST DUP3 MSTORE POP POP JUMP JUMPDEST PUSH1 0x0 PUSH2 0x9AE DUP3 PUSH2 0xCAC JUMP JUMPDEST PUSH2 0x9B8 DUP2 DUP6 PUSH2 0xCCF JUMP JUMPDEST SWAP4 POP PUSH2 0x9C3 DUP4 PUSH2 0xC9C JUMP JUMPDEST DUP1 PUSH1 0x0 JUMPDEST DUP4 DUP2 LT ISZERO PUSH2 0x9F4 JUMPI DUP2 MLOAD PUSH2 0x9DB DUP9 DUP3 PUSH2 0x97C JUMP JUMPDEST SWAP8 POP PUSH2 0x9E6 DUP4 PUSH2 0xCC2 JUMP JUMPDEST SWAP3 POP POP PUSH1 0x1 DUP2 ADD SWAP1 POP PUSH2 0x9C7 JUMP JUMPDEST POP DUP6 SWAP4 POP POP POP POP SWAP3 SWAP2 POP POP JUMP JUMPDEST PUSH2 0xA0A DUP2 PUSH2 0xD0E JUMP JUMPDEST DUP3 MSTORE POP POP JUMP JUMPDEST PUSH2 0xA19 DUP2 PUSH2 0xD55 JUMP JUMPDEST DUP3 MSTORE POP POP JUMP JUMPDEST PUSH1 0x0 PUSH2 0xA2A DUP3 PUSH2 0xCB7 JUMP JUMPDEST PUSH2 0xA34 DUP2 DUP6 PUSH2 0xCE0 JUMP JUMPDEST SWAP4 POP PUSH2 0xA44 DUP2 DUP6 PUSH1 0x20 DUP7 ADD PUSH2 0xD76 JUMP JUMPDEST PUSH2 0xA4D DUP2 PUSH2 0xEAD JUMP JUMPDEST DUP5 ADD SWAP2 POP POP SWAP3 SWAP2 POP POP JUMP JUMPDEST PUSH1 0x0 PUSH2 0xA63 DUP3 PUSH2 0xCB7 JUMP JUMPDEST PUSH2 0xA6D DUP2 DUP6 PUSH2 0xCF1 JUMP JUMPDEST SWAP4 POP PUSH2 0xA7D DUP2 DUP6 PUSH1 0x20 DUP7 ADD PUSH2 0xD76 JUMP JUMPDEST DUP1 DUP5 ADD SWAP2 POP POP SWAP3 SWAP2 POP POP JUMP JUMPDEST PUSH1 0x0 PUSH2 0xA96 PUSH1 0x18 DUP4 PUSH2 0xCE0 JUMP JUMPDEST SWAP2 POP PUSH2 0xAA1 DUP3 PUSH2 0xEBE JUMP JUMPDEST PUSH1 0x20 DUP3 ADD SWAP1 POP SWAP2 SWAP1 POP JUMP JUMPDEST PUSH1 0x0 PUSH2 0xAB9 PUSH1 0x29 DUP4 PUSH2 0xCE0 JUMP JUMPDEST SWAP2 POP PUSH2 0xAC4 DUP3 PUSH2 0xEE7 JUMP JUMPDEST PUSH1 0x40 DUP3 ADD SWAP1 POP SWAP2 SWAP1 POP JUMP JUMPDEST PUSH1 0x0 PUSH2 0xADC PUSH1 0xE DUP4 PUSH2 0xCE0 JUMP JUMPDEST SWAP2 POP PUSH2 0xAE7 DUP3 PUSH2 0xF36 JUMP JUMPDEST PUSH1 0x20 DUP3 ADD SWAP1 POP SWAP2 SWAP1 POP JUMP JUMPDEST PUSH2 0xAFB DUP2 PUSH2 0xD4B JUMP JUMPDEST DUP3 MSTORE POP POP JUMP JUMPDEST PUSH1 0x0 PUSH2 0xB0D DUP3 DUP5 PUSH2 0xA58 JUMP JUMPDEST SWAP2 POP DUP2 SWAP1 POP SWAP3 SWAP2 POP POP JUMP JUMPDEST PUSH1 0x0 PUSH1 0x20 DUP3 ADD SWAP1 POP DUP2 DUP2 SUB PUSH1 0x0 DUP4 ADD MSTORE PUSH2 0xB32 DUP2 DUP5 PUSH2 0x9A3 JUMP JUMPDEST SWAP1 POP SWAP3 SWAP2 POP POP JUMP JUMPDEST PUSH1 0x0 PUSH1 0x20 DUP3 ADD SWAP1 POP PUSH2 0xB4F PUSH1 0x0 DUP4 ADD DUP5 PUSH2 0xA01 JUMP JUMPDEST SWAP3 SWAP2 POP POP JUMP JUMPDEST PUSH1 0x0 PUSH1 0xE0 DUP3 ADD SWAP1 POP PUSH2 0xB6A PUSH1 0x0 DUP4 ADD DUP11 PUSH2 0xA10 JUMP JUMPDEST DUP2 DUP2 SUB PUSH1 0x20 DUP4 ADD MSTORE PUSH2 0xB7C DUP2 DUP10 PUSH2 0xA1F JUMP JUMPDEST SWAP1 POP PUSH2 0xB8B PUSH1 0x40 DUP4 ADD DUP9 PUSH2 0xA01 JUMP JUMPDEST PUSH2 0xB98 PUSH1 0x60 DUP4 ADD DUP8 PUSH2 0xAF2 JUMP JUMPDEST PUSH2 0xBA5 PUSH1 0x80 DUP4 ADD DUP7 PUSH2 0xAF2 JUMP JUMPDEST PUSH2 0xBB2 PUSH1 0xA0 DUP4 ADD DUP6 PUSH2 0xAF2 JUMP JUMPDEST PUSH2 0xBBF PUSH1 0xC0 DUP4 ADD DUP5 PUSH2 0xAF2 JUMP JUMPDEST SWAP9 SWAP8 POP POP POP POP POP POP POP POP JUMP JUMPDEST PUSH1 0x0 PUSH1 0x20 DUP3 ADD SWAP1 POP DUP2 DUP2 SUB PUSH1 0x0 DUP4 ADD MSTORE PUSH2 0xBE4 DUP2 PUSH2 0xA89 JUMP JUMPDEST SWAP1 POP SWAP2 SWAP1 POP JUMP JUMPDEST PUSH1 0x0 PUSH1 0x20 DUP3 ADD SWAP1 POP DUP2 DUP2 SUB PUSH1 0x0 DUP4 ADD MSTORE PUSH2 0xC04 DUP2 PUSH2 0xAAC JUMP JUMPDEST SWAP1 POP SWAP2 SWAP1 POP JUMP JUMPDEST PUSH1 0x0 PUSH1 0x20 DUP3 ADD SWAP1 POP DUP2 DUP2 SUB PUSH1 0x0 DUP4 ADD MSTORE PUSH2 0xC24 DUP2 PUSH2 0xACF JUMP JUMPDEST SWAP1 POP SWAP2 SWAP1 POP JUMP JUMPDEST PUSH1 0x0 PUSH1 0x20 DUP3 ADD SWAP1 POP PUSH2 0xC40 PUSH1 0x0 DUP4 ADD DUP5 PUSH2 0xAF2 JUMP JUMPDEST SWAP3 SWAP2 POP POP JUMP JUMPDEST PUSH1 0x0 PUSH2 0xC50 PUSH2 0xC61 JUMP JUMPDEST SWAP1 POP PUSH2 0xC5C DUP3 DUP3 PUSH2 0xDDB JUMP JUMPDEST SWAP2 SWAP1 POP JUMP JUMPDEST PUSH1 0x0 PUSH1 0x40 MLOAD SWAP1 POP SWAP1 JUMP JUMPDEST PUSH1 0x0 PUSH8 0xFFFFFFFFFFFFFFFF DUP3 GT ISZERO PUSH2 0xC86 JUMPI PUSH2 0xC85 PUSH2 0xE6A JUMP JUMPDEST JUMPDEST PUSH2 0xC8F DUP3 PUSH2 0xEAD JUMP JUMPDEST SWAP1 POP PUSH1 0x20 DUP2 ADD SWAP1 POP SWAP2 SWAP1 POP JUMP JUMPDEST PUSH1 0x0 DUP2 SWAP1 POP PUSH1 0x20 DUP3 ADD SWAP1 POP SWAP2 SWAP1 POP JUMP JUMPDEST PUSH1 0x0 DUP2 MLOAD SWAP1 POP SWAP2 SWAP1 POP JUMP JUMPDEST PUSH1 0x0 DUP2 MLOAD SWAP1 POP SWAP2 SWAP1 POP JUMP JUMPDEST PUSH1 0x0 PUSH1 0x20 DUP3 ADD SWAP1 POP SWAP2 SWAP1 POP JUMP JUMPDEST PUSH1 0x0 DUP3 DUP3 MSTORE PUSH1 0x20 DUP3 ADD SWAP1 POP SWAP3 SWAP2 POP POP JUMP JUMPDEST PUSH1 0x0 DUP3 DUP3 MSTORE PUSH1 0x20 DUP3 ADD SWAP1 POP SWAP3 SWAP2 POP POP JUMP JUMPDEST PUSH1 0x0 DUP2 SWAP1 POP SWAP3 SWAP2 POP POP JUMP JUMPDEST PUSH1 0x0 PUSH2 0xD07 DUP3 PUSH2 0xD2B JUMP JUMPDEST SWAP1 POP SWAP2 SWAP1 POP JUMP JUMPDEST PUSH1 0x0 DUP2 SWAP1 POP SWAP2 SWAP1 POP JUMP JUMPDEST PUSH1 0x0 DUP2 SWAP1 POP PUSH2 0xD26 DUP3 PUSH2 0xF5F JUMP JUMPDEST SWAP2 SWAP1 POP JUMP JUMPDEST PUSH1 0x0 PUSH20 0xFFFFFFFFFFFFFFFFFFFFFFFFFFFFFFFFFFFFFFFF DUP3 AND SWAP1 POP SWAP2 SWAP1 POP JUMP JUMPDEST PUSH1 0x0 DUP2 SWAP1 POP SWAP2 SWAP1 POP JUMP JUMPDEST PUSH1 0x0 PUSH2 0xD60 DUP3 PUSH2 0xD18 JUMP JUMPDEST SWAP1 POP SWAP2 SWAP1 POP JUMP JUMPDEST DUP3 DUP2 DUP4 CALLDATACOPY PUSH1 0x0 DUP4 DUP4 ADD MSTORE POP POP POP JUMP JUMPDEST PUSH1 0x0 JUMPDEST DUP4 DUP2 LT ISZERO PUSH2 0xD94 JUMPI DUP1 DUP3 ADD MLOAD DUP2 DUP5 ADD MSTORE PUSH1 0x20 DUP2 ADD SWAP1 POP PUSH2 0xD79 JUMP JUMPDEST DUP4 DUP2 GT ISZERO PUSH2 0xDA3 JUMPI PUSH1 0x0 DUP5 DUP5 ADD MSTORE JUMPDEST POP POP POP POP JUMP JUMPDEST PUSH1 0x0 PUSH1 0x2 DUP3 DIV SWAP1 POP PUSH1 0x1 DUP3 AND DUP1 PUSH2 0xDC1 JUMPI PUSH1 0x7F DUP3 AND SWAP2 POP JUMPDEST PUSH1 0x20 DUP3 LT DUP2 EQ ISZERO PUSH2 0xDD5 JUMPI PUSH2 0xDD4 PUSH2 0xE3B JUMP JUMPDEST JUMPDEST POP SWAP2 SWAP1 POP JUMP JUMPDEST PUSH2 0xDE4 DUP3 PUSH2 0xEAD JUMP JUMPDEST DUP2 ADD DUP2 DUP2 LT PUSH8 0xFFFFFFFFFFFFFFFF DUP3 GT OR ISZERO PUSH2 0xE03 JUMPI PUSH2 0xE02 PUSH2 0xE6A JUMP JUMPDEST JUMPDEST DUP1 PUSH1 0x40 MSTORE POP POP POP JUMP JUMPDEST PUSH32 0x4E487B7100000000000000000000000000000000000000000000000000000000 PUSH1 0x0 MSTORE PUSH1 0x21 PUSH1 0x4 MSTORE PUSH1 0x24 PUSH1 0x0 REVERT JUMPDEST PUSH32 0x4E487B7100000000000000000000000000000000000000000000000000000000 PUSH1 0x0 MSTORE PUSH1 0x22 PUSH1 0x4 MSTORE PUSH1 0x24 PUSH1 0x0 REVERT JUMPDEST PUSH32 0x4E487B7100000000000000000000000000000000000000000000000000000000 PUSH1 0x0 MSTORE PUSH1 0x41 PUSH1 0x4 MSTORE PUSH1 0x24 PUSH1 0x0 REVERT JUMPDEST PUSH1 0x0 DUP1 REVERT JUMPDEST PUSH1 0x0 DUP1 REVERT JUMPDEST PUSH1 0x0 DUP1 REVERT JUMPDEST PUSH1 0x0 DUP1 REVERT JUMPDEST PUSH1 0x0 PUSH1 0x1F NOT PUSH1 0x1F DUP4 ADD AND SWAP1 POP SWAP2 SWAP1 POP JUMP JUMPDEST PUSH32 0x596F7572206E6F74205075626C69632070726F76696465720000000000000000 PUSH1 0x0 DUP3 ADD MSTORE POP JUMP JUMPDEST PUSH32 0x596F7520617265206E6F7420746865206F776E6572206F722070726976617465 PUSH1 0x0 DUP3 ADD MSTORE PUSH32 0x2070726F76696465720000000000000000000000000000000000000000000000 PUSH1 0x20 DUP3 ADD MSTORE POP JUMP JUMPDEST PUSH32 0x596F7572206E6F742061646D696E000000000000000000000000000000000000 PUSH1 0x0 DUP3 ADD MSTORE POP JUMP JUMPDEST PUSH1 0x5 DUP2 LT PUSH2 0xF70 JUMPI PUSH2 0xF6F PUSH2 0xE0C JUMP JUMPDEST JUMPDEST POP JUMP JUMPDEST PUSH2 0xF7C DUP2 PUSH2 0xCFC JUMP JUMPDEST DUP2 EQ PUSH2 0xF87 JUMPI PUSH1 0x0 DUP1 REVERT JUMPDEST POP JUMP JUMPDEST PUSH2 0xF93 DUP2 PUSH2 0xD4B JUMP JUMPDEST DUP2 EQ PUSH2 0xF9E JUMPI PUSH1 0x0 DUP1 REVERT JUMPDEST POP JUMP INVALID LOG2 PUSH5 0x6970667358 0x22 SLT KECCAK256 0xBD GASLIMIT 0xED 0xA9 0xCA PUSH6 0xF37944F57A5E SWAP16 PUSH7 0xB2158A79037A98 RETURNDATACOPY 0xB3 RETURNDATACOPY PUSH30 0xB762DBD1322BC064736F6C63430008070033000000000000000000000000 "
				},
				"gasEstimates": {
					"creation": {
						"codeDepositCost": "811000",
						"executionCost": "45056",
						"totalCost": "856056"
					},
					"external": {
						"changeTokenAmountPricePublic(uint256)": "24871",
						"getBalanceEth(address)": "3301",
						"getBalancePrivateToken(address)": "2913",
						"getBalancePublicToken(address)": "2914",
						"getBalanceSeedToken(address)": "2870",
						"get_blackList()": "infinite",
						"get_keccak256(string)": "infinite",
						"get_whiteList()": "infinite",
						"structUsers_(address)": "infinite",
						"tokenAmount_()": "2451",
						"tokenPrice_()": "2430"
					}
				},
				"methodIdentifiers": {
					"changeTokenAmountPricePublic(uint256)": "32cbdd03",
					"getBalanceEth(address)": "99067ede",
					"getBalancePrivateToken(address)": "b06cdc12",
					"getBalancePublicToken(address)": "72f0d72b",
					"getBalanceSeedToken(address)": "2599d6d0",
					"get_blackList()": "7f89128f",
					"get_keccak256(string)": "8e4f8c6b",
					"get_whiteList()": "c10e3911",
					"structUsers_(address)": "fc837259",
					"tokenAmount_()": "948942ad",
					"tokenPrice_()": "0761c8b9"
				}
			},
			"storageLayout": {
				"storage": [
					{
						"astId": 292,
						"contract": "GitHub/contract-token-cryptoMonster/backend/components/PhasePublic.sol:PhasePublic",
						"label": "structUsers_",
						"offset": 0,
						"slot": "0",
						"type": "t_mapping(t_address,t_struct(structUser)287_storage)"
					},
					{
						"astId": 298,
						"contract": "GitHub/contract-token-cryptoMonster/backend/components/PhasePublic.sol:PhasePublic",
						"label": "allowed",
						"offset": 0,
						"slot": "1",
						"type": "t_mapping(t_address,t_mapping(t_address,t_uint256))"
					},
					{
						"astId": 301,
						"contract": "GitHub/contract-token-cryptoMonster/backend/components/PhasePublic.sol:PhasePublic",
						"label": "tokenPrice_",
						"offset": 0,
						"slot": "2",
						"type": "t_uint256"
					},
					{
						"astId": 304,
						"contract": "GitHub/contract-token-cryptoMonster/backend/components/PhasePublic.sol:PhasePublic",
						"label": "tokenAmount_",
						"offset": 0,
						"slot": "3",
						"type": "t_uint256"
					},
					{
						"astId": 323,
						"contract": "GitHub/contract-token-cryptoMonster/backend/components/PhasePublic.sol:PhasePublic",
						"label": "structPhases_",
						"offset": 0,
						"slot": "4",
						"type": "t_mapping(t_address,t_struct(structPhase)318_storage)"
					},
					{
						"astId": 341,
						"contract": "GitHub/contract-token-cryptoMonster/backend/components/PhasePublic.sol:PhasePublic",
						"label": "strucApplications_",
						"offset": 0,
						"slot": "5",
						"type": "t_mapping(t_address,t_struct(structApplication)336_storage)"
					},
					{
						"astId": 344,
						"contract": "GitHub/contract-token-cryptoMonster/backend/components/PhasePublic.sol:PhasePublic",
						"label": "structApplicationsAmountAdr",
						"offset": 0,
						"slot": "6",
						"type": "t_array(t_address)dyn_storage"
					},
					{
						"astId": 347,
						"contract": "GitHub/contract-token-cryptoMonster/backend/components/PhasePublic.sol:PhasePublic",
						"label": "whiteList",
						"offset": 0,
						"slot": "7",
						"type": "t_array(t_address)dyn_storage"
					},
					{
						"astId": 350,
						"contract": "GitHub/contract-token-cryptoMonster/backend/components/PhasePublic.sol:PhasePublic",
						"label": "blackList",
						"offset": 0,
						"slot": "8",
						"type": "t_array(t_address)dyn_storage"
					}
				],
				"types": {
					"t_address": {
						"encoding": "inplace",
						"label": "address",
						"numberOfBytes": "20"
					},
					"t_array(t_address)dyn_storage": {
						"base": "t_address",
						"encoding": "dynamic_array",
						"label": "address[]",
						"numberOfBytes": "32"
					},
					"t_bool": {
						"encoding": "inplace",
						"label": "bool",
						"numberOfBytes": "1"
					},
					"t_bytes32": {
						"encoding": "inplace",
						"label": "bytes32",
						"numberOfBytes": "32"
					},
					"t_enum(Role)271": {
						"encoding": "inplace",
						"label": "enum structures.Role",
						"numberOfBytes": "1"
					},
					"t_mapping(t_address,t_mapping(t_address,t_uint256))": {
						"encoding": "mapping",
						"key": "t_address",
						"label": "mapping(address => mapping(address => uint256))",
						"numberOfBytes": "32",
						"value": "t_mapping(t_address,t_uint256)"
					},
					"t_mapping(t_address,t_struct(structApplication)336_storage)": {
						"encoding": "mapping",
						"key": "t_address",
						"label": "mapping(address => struct structures.structApplication)",
						"numberOfBytes": "32",
						"value": "t_struct(structApplication)336_storage"
					},
					"t_mapping(t_address,t_struct(structPhase)318_storage)": {
						"encoding": "mapping",
						"key": "t_address",
						"label": "mapping(address => struct structures.structPhase)",
						"numberOfBytes": "32",
						"value": "t_struct(structPhase)318_storage"
					},
					"t_mapping(t_address,t_struct(structUser)287_storage)": {
						"encoding": "mapping",
						"key": "t_address",
						"label": "mapping(address => struct structures.structUser)",
						"numberOfBytes": "32",
						"value": "t_struct(structUser)287_storage"
					},
					"t_mapping(t_address,t_uint256)": {
						"encoding": "mapping",
						"key": "t_address",
						"label": "mapping(address => uint256)",
						"numberOfBytes": "32",
						"value": "t_uint256"
					},
					"t_string_storage": {
						"encoding": "bytes",
						"label": "string",
						"numberOfBytes": "32"
					},
					"t_struct(structApplication)336_storage": {
						"encoding": "inplace",
						"label": "struct structures.structApplication",
						"members": [
							{
								"astId": 325,
								"contract": "GitHub/contract-token-cryptoMonster/backend/components/PhasePublic.sol:PhasePublic",
								"label": "name",
								"offset": 0,
								"slot": "0",
								"type": "t_string_storage"
							},
							{
								"astId": 327,
								"contract": "GitHub/contract-token-cryptoMonster/backend/components/PhasePublic.sol:PhasePublic",
								"label": "contactForCommunication",
								"offset": 0,
								"slot": "1",
								"type": "t_string_storage"
							},
							{
								"astId": 329,
								"contract": "GitHub/contract-token-cryptoMonster/backend/components/PhasePublic.sol:PhasePublic",
								"label": "userAdr",
								"offset": 0,
								"slot": "2",
								"type": "t_address"
							},
							{
								"astId": 331,
								"contract": "GitHub/contract-token-cryptoMonster/backend/components/PhasePublic.sol:PhasePublic",
								"label": "status",
								"offset": 20,
								"slot": "2",
								"type": "t_bool"
							},
							{
								"astId": 333,
								"contract": "GitHub/contract-token-cryptoMonster/backend/components/PhasePublic.sol:PhasePublic",
								"label": "reviewed",
								"offset": 21,
								"slot": "2",
								"type": "t_bool"
							},
							{
								"astId": 335,
								"contract": "GitHub/contract-token-cryptoMonster/backend/components/PhasePublic.sol:PhasePublic",
								"label": "exist",
								"offset": 22,
								"slot": "2",
								"type": "t_bool"
							}
						],
						"numberOfBytes": "96"
					},
					"t_struct(structPhase)318_storage": {
						"encoding": "inplace",
						"label": "struct structures.structPhase",
						"members": [
							{
								"astId": 315,
								"contract": "GitHub/contract-token-cryptoMonster/backend/components/PhasePublic.sol:PhasePublic",
								"label": "statusPhase",
								"offset": 0,
								"slot": "0",
								"type": "t_bool"
							},
							{
								"astId": 317,
								"contract": "GitHub/contract-token-cryptoMonster/backend/components/PhasePublic.sol:PhasePublic",
								"label": "reviewed",
								"offset": 1,
								"slot": "0",
								"type": "t_bool"
							}
						],
						"numberOfBytes": "32"
					},
					"t_struct(structUser)287_storage": {
						"encoding": "inplace",
						"label": "struct structures.structUser",
						"members": [
							{
								"astId": 274,
								"contract": "GitHub/contract-token-cryptoMonster/backend/components/PhasePublic.sol:PhasePublic",
								"label": "role",
								"offset": 0,
								"slot": "0",
								"type": "t_enum(Role)271"
							},
							{
								"astId": 276,
								"contract": "GitHub/contract-token-cryptoMonster/backend/components/PhasePublic.sol:PhasePublic",
								"label": "login",
								"offset": 0,
								"slot": "1",
								"type": "t_string_storage"
							},
							{
								"astId": 278,
								"contract": "GitHub/contract-token-cryptoMonster/backend/components/PhasePublic.sol:PhasePublic",
								"label": "password",
								"offset": 0,
								"slot": "2",
								"type": "t_bytes32"
							},
							{
								"astId": 280,
								"contract": "GitHub/contract-token-cryptoMonster/backend/components/PhasePublic.sol:PhasePublic",
								"label": "balance_overall",
								"offset": 0,
								"slot": "3",
								"type": "t_uint256"
							},
							{
								"astId": 282,
								"contract": "GitHub/contract-token-cryptoMonster/backend/components/PhasePublic.sol:PhasePublic",
								"label": "balance_seed",
								"offset": 0,
								"slot": "4",
								"type": "t_uint256"
							},
							{
								"astId": 284,
								"contract": "GitHub/contract-token-cryptoMonster/backend/components/PhasePublic.sol:PhasePublic",
								"label": "balance_private",
								"offset": 0,
								"slot": "5",
								"type": "t_uint256"
							},
							{
								"astId": 286,
								"contract": "GitHub/contract-token-cryptoMonster/backend/components/PhasePublic.sol:PhasePublic",
								"label": "balance_public",
								"offset": 0,
								"slot": "6",
								"type": "t_uint256"
							}
						],
						"numberOfBytes": "224"
					},
					"t_uint256": {
						"encoding": "inplace",
						"label": "uint256",
						"numberOfBytes": "32"
					}
				}
			},
			"userdoc": {
				"kind": "user",
				"methods": {},
				"version": 1
			}
		}
	}
}