{
	"Documents/GitHub/contract-token-cryptoMonster/backend/components/PhasePrivate.sol": {
		"PhasePrivate": {
			"abi": [
				{
					"inputs": [
						{
							"internalType": "bool",
							"name": "_changeStatus",
							"type": "bool"
						}
					],
					"name": "acceptApplication",
					"outputs": [],
					"stateMutability": "nonpayable",
					"type": "function"
				},
				{
					"inputs": [
						{
							"internalType": "string",
							"name": "_name",
							"type": "string"
						},
						{
							"internalType": "string",
							"name": "_contactForCommunication",
							"type": "string"
						},
						{
							"internalType": "address",
							"name": "_userAdr",
							"type": "address"
						}
					],
					"name": "application",
					"outputs": [],
					"stateMutability": "nonpayable",
					"type": "function"
				},
				{
					"inputs": [
						{
							"internalType": "string",
							"name": "_hash",
							"type": "string"
						}
					],
					"name": "get_keccak256",
					"outputs": [
						{
							"internalType": "bytes32",
							"name": "",
							"type": "bytes32"
						}
					],
					"stateMutability": "pure",
					"type": "function"
				},
				{
					"inputs": [
						{
							"internalType": "address",
							"name": "_userAdr",
							"type": "address"
						}
					],
					"name": "viewApplication",
					"outputs": [
						{
							"components": [
								{
									"internalType": "string",
									"name": "name",
									"type": "string"
								},
								{
									"internalType": "string",
									"name": "contactForCommunication",
									"type": "string"
								},
								{
									"internalType": "address",
									"name": "userAdr",
									"type": "address"
								},
								{
									"internalType": "bool",
									"name": "status",
									"type": "bool"
								},
								{
									"internalType": "bool",
									"name": "reviewed",
									"type": "bool"
								},
								{
									"internalType": "bool",
									"name": "exist",
									"type": "bool"
								}
							],
							"internalType": "struct structures.structApplication",
							"name": "",
							"type": "tuple"
						}
					],
					"stateMutability": "view",
					"type": "function"
				},
				{
					"inputs": [],
					"name": "viewApplicationAmountAdr",
					"outputs": [
						{
							"internalType": "address[]",
							"name": "",
							"type": "address[]"
						}
					],
					"stateMutability": "view",
					"type": "function"
				}
			],
			"devdoc": {
				"kind": "dev",
				"methods": {},
				"version": 1
			},
			"evm": {
				"assembly": "    /* \"Documents/GitHub/contract-token-cryptoMonster/backend/components/PhasePrivate.sol\":157:2148  contract PhasePrivate is modifireFunc {\r... */\n  mstore(0x40, 0x80)\n  callvalue\n  dup1\n  iszero\n  tag_1\n  jumpi\n  0x00\n  dup1\n  revert\ntag_1:\n  pop\n  dataSize(sub_0)\n  dup1\n  dataOffset(sub_0)\n  0x00\n  codecopy\n  0x00\n  return\nstop\n\nsub_0: assembly {\n        /* \"Documents/GitHub/contract-token-cryptoMonster/backend/components/PhasePrivate.sol\":157:2148  contract PhasePrivate is modifireFunc {\r... */\n      mstore(0x40, 0x80)\n      callvalue\n      dup1\n      iszero\n      tag_1\n      jumpi\n      0x00\n      dup1\n      revert\n    tag_1:\n      pop\n      jumpi(tag_2, lt(calldatasize, 0x04))\n      shr(0xe0, calldataload(0x00))\n      dup1\n      0x4d0d594f\n      eq\n      tag_3\n      jumpi\n      dup1\n      0x76eada91\n      eq\n      tag_4\n      jumpi\n      dup1\n      0x785963c3\n      eq\n      tag_5\n      jumpi\n      dup1\n      0x8e4f8c6b\n      eq\n      tag_6\n      jumpi\n      dup1\n      0x9d9e7a4b\n      eq\n      tag_7\n      jumpi\n    tag_2:\n      0x00\n      dup1\n      revert\n        /* \"Documents/GitHub/contract-token-cryptoMonster/backend/components/PhasePrivate.sol\":951:1435  function viewApplicationAmountAdr () public view returns (address[] memory) {\r... */\n    tag_3:\n      tag_8\n      tag_9\n      jump\t// in\n    tag_8:\n      mload(0x40)\n      tag_10\n      swap2\n      swap1\n      tag_11\n      jump\t// in\n    tag_10:\n      mload(0x40)\n      dup1\n      swap2\n      sub\n      swap1\n      return\n        /* \"Documents/GitHub/contract-token-cryptoMonster/backend/components/PhasePrivate.sol\":1556:1897  function viewApplication (address _userAdr) public view returns (structApplication memory) {\r... */\n    tag_4:\n      tag_12\n      0x04\n      dup1\n      calldatasize\n      sub\n      dup2\n      add\n      swap1\n      tag_13\n      swap2\n      swap1\n      tag_14\n      jump\t// in\n    tag_13:\n      tag_15\n      jump\t// in\n    tag_12:\n      mload(0x40)\n      tag_16\n      swap2\n      swap1\n      tag_17\n      jump\t// in\n    tag_16:\n      mload(0x40)\n      dup1\n      swap2\n      sub\n      swap1\n      return\n        /* \"Documents/GitHub/contract-token-cryptoMonster/backend/components/PhasePrivate.sol\":293:837  function application(string memory _name, string memory _contactForCommunication, address _userAdr) public {\r... */\n    tag_5:\n      tag_18\n      0x04\n      dup1\n      calldatasize\n      sub\n      dup2\n      add\n      swap1\n      tag_19\n      swap2\n      swap1\n      tag_20\n      jump\t// in\n    tag_19:\n      tag_21\n      jump\t// in\n    tag_18:\n      stop\n        /* \"Documents/GitHub/contract-token-cryptoMonster/backend/shared/helpers/getFuncs.sol\":144:282  function get_keccak256(string memory _hash) public pure returns(bytes32) {\r... */\n    tag_6:\n      tag_22\n      0x04\n      dup1\n      calldatasize\n      sub\n      dup2\n      add\n      swap1\n      tag_23\n      swap2\n      swap1\n      tag_24\n      jump\t// in\n    tag_23:\n      tag_25\n      jump\t// in\n    tag_22:\n      mload(0x40)\n      tag_26\n      swap2\n      swap1\n      tag_27\n      jump\t// in\n    tag_26:\n      mload(0x40)\n      dup1\n      swap2\n      sub\n      swap1\n      return\n        /* \"Documents/GitHub/contract-token-cryptoMonster/backend/components/PhasePrivate.sol\":1973:2145  function acceptApplication (bool _changeStatus) public {\r... */\n    tag_7:\n      tag_28\n      0x04\n      dup1\n      calldatasize\n      sub\n      dup2\n      add\n      swap1\n      tag_29\n      swap2\n      swap1\n      tag_30\n      jump\t// in\n    tag_29:\n      tag_31\n      jump\t// in\n    tag_28:\n      stop\n        /* \"Documents/GitHub/contract-token-cryptoMonster/backend/components/PhasePrivate.sol\":951:1435  function viewApplicationAmountAdr () public view returns (address[] memory) {\r... */\n    tag_9:\n        /* \"Documents/GitHub/contract-token-cryptoMonster/backend/components/PhasePrivate.sol\":1009:1025  address[] memory */\n      0x60\n        /* \"Documents/GitHub/contract-token-cryptoMonster/backend/components/PhasePrivate.sol\":1079:1098  Role.SYSTEM_PRIVATE */\n      0x02\n        /* \"Documents/GitHub/contract-token-cryptoMonster/backend/components/PhasePrivate.sol\":1046:1098  structUsers_[msg.sender].role == Role.SYSTEM_PRIVATE */\n      0x04\n      dup2\n      gt\n      iszero\n      tag_33\n      jumpi\n      tag_34\n      tag_35\n      jump\t// in\n    tag_34:\n    tag_33:\n        /* \"Documents/GitHub/contract-token-cryptoMonster/backend/components/PhasePrivate.sol\":1046:1058  structUsers_ */\n      0x00\n        /* \"Documents/GitHub/contract-token-cryptoMonster/backend/components/PhasePrivate.sol\":1046:1070  structUsers_[msg.sender] */\n      dup1\n        /* \"Documents/GitHub/contract-token-cryptoMonster/backend/components/PhasePrivate.sol\":1059:1069  msg.sender */\n      caller\n        /* \"Documents/GitHub/contract-token-cryptoMonster/backend/components/PhasePrivate.sol\":1046:1070  structUsers_[msg.sender] */\n      0xffffffffffffffffffffffffffffffffffffffff\n      and\n      0xffffffffffffffffffffffffffffffffffffffff\n      and\n      dup2\n      mstore\n      0x20\n      add\n      swap1\n      dup2\n      mstore\n      0x20\n      add\n      0x00\n      keccak256\n        /* \"Documents/GitHub/contract-token-cryptoMonster/backend/components/PhasePrivate.sol\":1046:1075  structUsers_[msg.sender].role */\n      0x00\n      add\n      0x00\n      swap1\n      sload\n      swap1\n      0x0100\n      exp\n      swap1\n      div\n      0xff\n      and\n        /* \"Documents/GitHub/contract-token-cryptoMonster/backend/components/PhasePrivate.sol\":1046:1098  structUsers_[msg.sender].role == Role.SYSTEM_PRIVATE */\n      0x04\n      dup2\n      gt\n      iszero\n      tag_36\n      jumpi\n      tag_37\n      tag_35\n      jump\t// in\n    tag_37:\n    tag_36:\n      eq\n        /* \"Documents/GitHub/contract-token-cryptoMonster/backend/components/PhasePrivate.sol\":1038:1134  require(structUsers_[msg.sender].role == Role.SYSTEM_PRIVATE, \"You are not a private provider!\") */\n      tag_38\n      jumpi\n      mload(0x40)\n      0x08c379a000000000000000000000000000000000000000000000000000000000\n      dup2\n      mstore\n      0x04\n      add\n      tag_39\n      swap1\n      tag_40\n      jump\t// in\n    tag_39:\n      mload(0x40)\n      dup1\n      swap2\n      sub\n      swap1\n      revert\n    tag_38:\n        /* \"Documents/GitHub/contract-token-cryptoMonster/backend/components/PhasePrivate.sol\":1241:1268  structApplicationsAmountAdr */\n      0x03\n        /* \"Documents/GitHub/contract-token-cryptoMonster/backend/components/PhasePrivate.sol\":1234:1268  return structApplicationsAmountAdr */\n      dup1\n      sload\n      dup1\n      0x20\n      mul\n      0x20\n      add\n      mload(0x40)\n      swap1\n      dup2\n      add\n      0x40\n      mstore\n      dup1\n      swap3\n      swap2\n      swap1\n      dup2\n      dup2\n      mstore\n      0x20\n      add\n      dup3\n      dup1\n      sload\n      dup1\n      iszero\n      tag_41\n      jumpi\n      0x20\n      mul\n      dup3\n      add\n      swap2\n      swap1\n      0x00\n      mstore\n      keccak256(0x00, 0x20)\n      swap1\n    tag_42:\n      dup2\n      0x00\n      swap1\n      sload\n      swap1\n      0x0100\n      exp\n      swap1\n      div\n      0xffffffffffffffffffffffffffffffffffffffff\n      and\n      0xffffffffffffffffffffffffffffffffffffffff\n      and\n      dup2\n      mstore\n      0x20\n      add\n      swap1\n      0x01\n      add\n      swap1\n      dup1\n      dup4\n      gt\n      tag_42\n      jumpi\n    tag_41:\n      pop\n      pop\n      pop\n      pop\n      pop\n      swap1\n      pop\n        /* \"Documents/GitHub/contract-token-cryptoMonster/backend/components/PhasePrivate.sol\":951:1435  function viewApplicationAmountAdr () public view returns (address[] memory) {\r... */\n      swap1\n      jump\t// out\n        /* \"Documents/GitHub/contract-token-cryptoMonster/backend/components/PhasePrivate.sol\":1556:1897  function viewApplication (address _userAdr) public view returns (structApplication memory) {\r... */\n    tag_15:\n        /* \"Documents/GitHub/contract-token-cryptoMonster/backend/components/PhasePrivate.sol\":1621:1645  structApplication memory */\n      tag_43\n      tag_44\n      jump\t// in\n    tag_43:\n        /* \"Documents/GitHub/contract-token-cryptoMonster/backend/components/PhasePrivate.sol\":1699:1718  Role.SYSTEM_PRIVATE */\n      0x02\n        /* \"Documents/GitHub/contract-token-cryptoMonster/backend/components/PhasePrivate.sol\":1666:1718  structUsers_[msg.sender].role == Role.SYSTEM_PRIVATE */\n      0x04\n      dup2\n      gt\n      iszero\n      tag_46\n      jumpi\n      tag_47\n      tag_35\n      jump\t// in\n    tag_47:\n    tag_46:\n        /* \"Documents/GitHub/contract-token-cryptoMonster/backend/components/PhasePrivate.sol\":1666:1678  structUsers_ */\n      0x00\n        /* \"Documents/GitHub/contract-token-cryptoMonster/backend/components/PhasePrivate.sol\":1666:1690  structUsers_[msg.sender] */\n      dup1\n        /* \"Documents/GitHub/contract-token-cryptoMonster/backend/components/PhasePrivate.sol\":1679:1689  msg.sender */\n      caller\n        /* \"Documents/GitHub/contract-token-cryptoMonster/backend/components/PhasePrivate.sol\":1666:1690  structUsers_[msg.sender] */\n      0xffffffffffffffffffffffffffffffffffffffff\n      and\n      0xffffffffffffffffffffffffffffffffffffffff\n      and\n      dup2\n      mstore\n      0x20\n      add\n      swap1\n      dup2\n      mstore\n      0x20\n      add\n      0x00\n      keccak256\n        /* \"Documents/GitHub/contract-token-cryptoMonster/backend/components/PhasePrivate.sol\":1666:1695  structUsers_[msg.sender].role */\n      0x00\n      add\n      0x00\n      swap1\n      sload\n      swap1\n      0x0100\n      exp\n      swap1\n      div\n      0xff\n      and\n        /* \"Documents/GitHub/contract-token-cryptoMonster/backend/components/PhasePrivate.sol\":1666:1718  structUsers_[msg.sender].role == Role.SYSTEM_PRIVATE */\n      0x04\n      dup2\n      gt\n      iszero\n      tag_48\n      jumpi\n      tag_49\n      tag_35\n      jump\t// in\n    tag_49:\n    tag_48:\n      eq\n        /* \"Documents/GitHub/contract-token-cryptoMonster/backend/components/PhasePrivate.sol\":1658:1754  require(structUsers_[msg.sender].role == Role.SYSTEM_PRIVATE, \"You are not a private provider!\") */\n      tag_50\n      jumpi\n      mload(0x40)\n      0x08c379a000000000000000000000000000000000000000000000000000000000\n      dup2\n      mstore\n      0x04\n      add\n      tag_51\n      swap1\n      tag_40\n      jump\t// in\n    tag_51:\n      mload(0x40)\n      dup1\n      swap2\n      sub\n      swap1\n      revert\n    tag_50:\n        /* \"Documents/GitHub/contract-token-cryptoMonster/backend/components/PhasePrivate.sol\":1861:1879  strucApplications_ */\n      0x02\n        /* \"Documents/GitHub/contract-token-cryptoMonster/backend/components/PhasePrivate.sol\":1861:1889  strucApplications_[_userAdr] */\n      0x00\n        /* \"Documents/GitHub/contract-token-cryptoMonster/backend/components/PhasePrivate.sol\":1880:1888  _userAdr */\n      dup4\n        /* \"Documents/GitHub/contract-token-cryptoMonster/backend/components/PhasePrivate.sol\":1861:1889  strucApplications_[_userAdr] */\n      0xffffffffffffffffffffffffffffffffffffffff\n      and\n      0xffffffffffffffffffffffffffffffffffffffff\n      and\n      dup2\n      mstore\n      0x20\n      add\n      swap1\n      dup2\n      mstore\n      0x20\n      add\n      0x00\n      keccak256\n        /* \"Documents/GitHub/contract-token-cryptoMonster/backend/components/PhasePrivate.sol\":1854:1889  return strucApplications_[_userAdr] */\n      mload(0x40)\n      dup1\n      0xc0\n      add\n      0x40\n      mstore\n      swap1\n      dup2\n      0x00\n      dup3\n      add\n      dup1\n      sload\n      tag_52\n      swap1\n      tag_53\n      jump\t// in\n    tag_52:\n      dup1\n      0x1f\n      add\n      0x20\n      dup1\n      swap2\n      div\n      mul\n      0x20\n      add\n      mload(0x40)\n      swap1\n      dup2\n      add\n      0x40\n      mstore\n      dup1\n      swap3\n      swap2\n      swap1\n      dup2\n      dup2\n      mstore\n      0x20\n      add\n      dup3\n      dup1\n      sload\n      tag_54\n      swap1\n      tag_53\n      jump\t// in\n    tag_54:\n      dup1\n      iszero\n      tag_55\n      jumpi\n      dup1\n      0x1f\n      lt\n      tag_56\n      jumpi\n      0x0100\n      dup1\n      dup4\n      sload\n      div\n      mul\n      dup4\n      mstore\n      swap2\n      0x20\n      add\n      swap2\n      jump(tag_55)\n    tag_56:\n      dup3\n      add\n      swap2\n      swap1\n      0x00\n      mstore\n      keccak256(0x00, 0x20)\n      swap1\n    tag_57:\n      dup2\n      sload\n      dup2\n      mstore\n      swap1\n      0x01\n      add\n      swap1\n      0x20\n      add\n      dup1\n      dup4\n      gt\n      tag_57\n      jumpi\n      dup3\n      swap1\n      sub\n      0x1f\n      and\n      dup3\n      add\n      swap2\n    tag_55:\n      pop\n      pop\n      pop\n      pop\n      pop\n      dup2\n      mstore\n      0x20\n      add\n      0x01\n      dup3\n      add\n      dup1\n      sload\n      tag_58\n      swap1\n      tag_53\n      jump\t// in\n    tag_58:\n      dup1\n      0x1f\n      add\n      0x20\n      dup1\n      swap2\n      div\n      mul\n      0x20\n      add\n      mload(0x40)\n      swap1\n      dup2\n      add\n      0x40\n      mstore\n      dup1\n      swap3\n      swap2\n      swap1\n      dup2\n      dup2\n      mstore\n      0x20\n      add\n      dup3\n      dup1\n      sload\n      tag_59\n      swap1\n      tag_53\n      jump\t// in\n    tag_59:\n      dup1\n      iszero\n      tag_60\n      jumpi\n      dup1\n      0x1f\n      lt\n      tag_61\n      jumpi\n      0x0100\n      dup1\n      dup4\n      sload\n      div\n      mul\n      dup4\n      mstore\n      swap2\n      0x20\n      add\n      swap2\n      jump(tag_60)\n    tag_61:\n      dup3\n      add\n      swap2\n      swap1\n      0x00\n      mstore\n      keccak256(0x00, 0x20)\n      swap1\n    tag_62:\n      dup2\n      sload\n      dup2\n      mstore\n      swap1\n      0x01\n      add\n      swap1\n      0x20\n      add\n      dup1\n      dup4\n      gt\n      tag_62\n      jumpi\n      dup3\n      swap1\n      sub\n      0x1f\n      and\n      dup3\n      add\n      swap2\n    tag_60:\n      pop\n      pop\n      pop\n      pop\n      pop\n      dup2\n      mstore\n      0x20\n      add\n      0x02\n      dup3\n      add\n      0x00\n      swap1\n      sload\n      swap1\n      0x0100\n      exp\n      swap1\n      div\n      0xffffffffffffffffffffffffffffffffffffffff\n      and\n      0xffffffffffffffffffffffffffffffffffffffff\n      and\n      0xffffffffffffffffffffffffffffffffffffffff\n      and\n      dup2\n      mstore\n      0x20\n      add\n      0x02\n      dup3\n      add\n      0x14\n      swap1\n      sload\n      swap1\n      0x0100\n      exp\n      swap1\n      div\n      0xff\n      and\n      iszero\n      iszero\n      iszero\n      iszero\n      dup2\n      mstore\n      0x20\n      add\n      0x02\n      dup3\n      add\n      0x15\n      swap1\n      sload\n      swap1\n      0x0100\n      exp\n      swap1\n      div\n      0xff\n      and\n      iszero\n      iszero\n      iszero\n      iszero\n      dup2\n      mstore\n      0x20\n      add\n      0x02\n      dup3\n      add\n      0x16\n      swap1\n      sload\n      swap1\n      0x0100\n      exp\n      swap1\n      div\n      0xff\n      and\n      iszero\n      iszero\n      iszero\n      iszero\n      dup2\n      mstore\n      pop\n      pop\n      swap1\n      pop\n        /* \"Documents/GitHub/contract-token-cryptoMonster/backend/components/PhasePrivate.sol\":1556:1897  function viewApplication (address _userAdr) public view returns (structApplication memory) {\r... */\n      swap2\n      swap1\n      pop\n      jump\t// out\n        /* \"Documents/GitHub/contract-token-cryptoMonster/backend/components/PhasePrivate.sol\":293:837  function application(string memory _name, string memory _contactForCommunication, address _userAdr) public {\r... */\n    tag_21:\n        /* \"Documents/GitHub/contract-token-cryptoMonster/backend/components/PhasePrivate.sol\":459:463  true */\n      0x01\n        /* \"Documents/GitHub/contract-token-cryptoMonster/backend/components/PhasePrivate.sol\":419:463  strucApplications_[msg.sender].exist == true */\n      iszero\n      iszero\n        /* \"Documents/GitHub/contract-token-cryptoMonster/backend/components/PhasePrivate.sol\":419:437  strucApplications_ */\n      0x02\n        /* \"Documents/GitHub/contract-token-cryptoMonster/backend/components/PhasePrivate.sol\":419:449  strucApplications_[msg.sender] */\n      0x00\n        /* \"Documents/GitHub/contract-token-cryptoMonster/backend/components/PhasePrivate.sol\":438:448  msg.sender */\n      caller\n        /* \"Documents/GitHub/contract-token-cryptoMonster/backend/components/PhasePrivate.sol\":419:449  strucApplications_[msg.sender] */\n      0xffffffffffffffffffffffffffffffffffffffff\n      and\n      0xffffffffffffffffffffffffffffffffffffffff\n      and\n      dup2\n      mstore\n      0x20\n      add\n      swap1\n      dup2\n      mstore\n      0x20\n      add\n      0x00\n      keccak256\n        /* \"Documents/GitHub/contract-token-cryptoMonster/backend/components/PhasePrivate.sol\":419:455  strucApplications_[msg.sender].exist */\n      0x02\n      add\n      0x16\n      swap1\n      sload\n      swap1\n      0x0100\n      exp\n      swap1\n      div\n      0xff\n      and\n        /* \"Documents/GitHub/contract-token-cryptoMonster/backend/components/PhasePrivate.sol\":419:463  strucApplications_[msg.sender].exist == true */\n      iszero\n      iszero\n      eq\n        /* \"Documents/GitHub/contract-token-cryptoMonster/backend/components/PhasePrivate.sol\":411:493  require(strucApplications_[msg.sender].exist == true, \"Application already sent!\") */\n      tag_64\n      jumpi\n      mload(0x40)\n      0x08c379a000000000000000000000000000000000000000000000000000000000\n      dup2\n      mstore\n      0x04\n      add\n      tag_65\n      swap1\n      tag_66\n      jump\t// in\n    tag_65:\n      mload(0x40)\n      dup1\n      swap2\n      sub\n      swap1\n      revert\n    tag_64:\n        /* \"Documents/GitHub/contract-token-cryptoMonster/backend/components/PhasePrivate.sol\":637:716  structApplication(_name, _contactForCommunication, _userAdr, true, false, true) */\n      mload(0x40)\n      dup1\n      0xc0\n      add\n      0x40\n      mstore\n      dup1\n        /* \"Documents/GitHub/contract-token-cryptoMonster/backend/components/PhasePrivate.sol\":655:660  _name */\n      dup5\n        /* \"Documents/GitHub/contract-token-cryptoMonster/backend/components/PhasePrivate.sol\":637:716  structApplication(_name, _contactForCommunication, _userAdr, true, false, true) */\n      dup2\n      mstore\n      0x20\n      add\n        /* \"Documents/GitHub/contract-token-cryptoMonster/backend/components/PhasePrivate.sol\":662:686  _contactForCommunication */\n      dup4\n        /* \"Documents/GitHub/contract-token-cryptoMonster/backend/components/PhasePrivate.sol\":637:716  structApplication(_name, _contactForCommunication, _userAdr, true, false, true) */\n      dup2\n      mstore\n      0x20\n      add\n        /* \"Documents/GitHub/contract-token-cryptoMonster/backend/components/PhasePrivate.sol\":688:696  _userAdr */\n      dup3\n        /* \"Documents/GitHub/contract-token-cryptoMonster/backend/components/PhasePrivate.sol\":637:716  structApplication(_name, _contactForCommunication, _userAdr, true, false, true) */\n      0xffffffffffffffffffffffffffffffffffffffff\n      and\n      dup2\n      mstore\n      0x20\n      add\n        /* \"Documents/GitHub/contract-token-cryptoMonster/backend/components/PhasePrivate.sol\":698:702  true */\n      0x01\n        /* \"Documents/GitHub/contract-token-cryptoMonster/backend/components/PhasePrivate.sol\":637:716  structApplication(_name, _contactForCommunication, _userAdr, true, false, true) */\n      iszero\n      iszero\n      dup2\n      mstore\n      0x20\n      add\n        /* \"Documents/GitHub/contract-token-cryptoMonster/backend/components/PhasePrivate.sol\":704:709  false */\n      0x00\n        /* \"Documents/GitHub/contract-token-cryptoMonster/backend/components/PhasePrivate.sol\":637:716  structApplication(_name, _contactForCommunication, _userAdr, true, false, true) */\n      iszero\n      iszero\n      dup2\n      mstore\n      0x20\n      add\n        /* \"Documents/GitHub/contract-token-cryptoMonster/backend/components/PhasePrivate.sol\":711:715  true */\n      0x01\n        /* \"Documents/GitHub/contract-token-cryptoMonster/backend/components/PhasePrivate.sol\":637:716  structApplication(_name, _contactForCommunication, _userAdr, true, false, true) */\n      iszero\n      iszero\n      dup2\n      mstore\n      pop\n        /* \"Documents/GitHub/contract-token-cryptoMonster/backend/components/PhasePrivate.sol\":603:621  strucApplications_ */\n      0x02\n        /* \"Documents/GitHub/contract-token-cryptoMonster/backend/components/PhasePrivate.sol\":603:633  strucApplications_[msg.sender] */\n      0x00\n        /* \"Documents/GitHub/contract-token-cryptoMonster/backend/components/PhasePrivate.sol\":622:632  msg.sender */\n      caller\n        /* \"Documents/GitHub/contract-token-cryptoMonster/backend/components/PhasePrivate.sol\":603:633  strucApplications_[msg.sender] */\n      0xffffffffffffffffffffffffffffffffffffffff\n      and\n      0xffffffffffffffffffffffffffffffffffffffff\n      and\n      dup2\n      mstore\n      0x20\n      add\n      swap1\n      dup2\n      mstore\n      0x20\n      add\n      0x00\n      keccak256\n        /* \"Documents/GitHub/contract-token-cryptoMonster/backend/components/PhasePrivate.sol\":603:716  strucApplications_[msg.sender]  = structApplication(_name, _contactForCommunication, _userAdr, true, false, true) */\n      0x00\n      dup3\n      add\n      mload\n      dup2\n      0x00\n      add\n      swap1\n      dup1\n      mload\n      swap1\n      0x20\n      add\n      swap1\n      tag_67\n      swap3\n      swap2\n      swap1\n      tag_68\n      jump\t// in\n    tag_67:\n      pop\n      0x20\n      dup3\n      add\n      mload\n      dup2\n      0x01\n      add\n      swap1\n      dup1\n      mload\n      swap1\n      0x20\n      add\n      swap1\n      tag_69\n      swap3\n      swap2\n      swap1\n      tag_68\n      jump\t// in\n    tag_69:\n      pop\n      0x40\n      dup3\n      add\n      mload\n      dup2\n      0x02\n      add\n      exp(0x0100, 0x00)\n      dup2\n      sload\n      dup2\n      0xffffffffffffffffffffffffffffffffffffffff\n      mul\n      not\n      and\n      swap1\n      dup4\n      0xffffffffffffffffffffffffffffffffffffffff\n      and\n      mul\n      or\n      swap1\n      sstore\n      pop\n      0x60\n      dup3\n      add\n      mload\n      dup2\n      0x02\n      add\n      exp(0x0100, 0x14)\n      dup2\n      sload\n      dup2\n      0xff\n      mul\n      not\n      and\n      swap1\n      dup4\n      iszero\n      iszero\n      mul\n      or\n      swap1\n      sstore\n      pop\n      0x80\n      dup3\n      add\n      mload\n      dup2\n      0x02\n      add\n      exp(0x0100, 0x15)\n      dup2\n      sload\n      dup2\n      0xff\n      mul\n      not\n      and\n      swap1\n      dup4\n      iszero\n      iszero\n      mul\n      or\n      swap1\n      sstore\n      pop\n      0xa0\n      dup3\n      add\n      mload\n      dup2\n      0x02\n      add\n      exp(0x0100, 0x16)\n      dup2\n      sload\n      dup2\n      0xff\n      mul\n      not\n      and\n      swap1\n      dup4\n      iszero\n      iszero\n      mul\n      or\n      swap1\n      sstore\n      pop\n      swap1\n      pop\n      pop\n        /* \"Documents/GitHub/contract-token-cryptoMonster/backend/components/PhasePrivate.sol\":785:812  structApplicationsAmountAdr */\n      0x03\n        /* \"Documents/GitHub/contract-token-cryptoMonster/backend/components/PhasePrivate.sol\":818:828  msg.sender */\n      caller\n        /* \"Documents/GitHub/contract-token-cryptoMonster/backend/components/PhasePrivate.sol\":785:829  structApplicationsAmountAdr.push(msg.sender) */\n      swap1\n      dup1\n      0x01\n      dup2\n      sload\n      add\n      dup1\n      dup3\n      sstore\n      dup1\n      swap2\n      pop\n      pop\n      0x01\n      swap1\n      sub\n      swap1\n      0x00\n      mstore\n      keccak256(0x00, 0x20)\n      add\n      0x00\n      swap1\n      swap2\n      swap1\n      swap2\n      swap1\n      swap2\n      0x0100\n      exp\n      dup2\n      sload\n      dup2\n      0xffffffffffffffffffffffffffffffffffffffff\n      mul\n      not\n      and\n      swap1\n      dup4\n      0xffffffffffffffffffffffffffffffffffffffff\n      and\n      mul\n      or\n      swap1\n      sstore\n      pop\n        /* \"Documents/GitHub/contract-token-cryptoMonster/backend/components/PhasePrivate.sol\":293:837  function application(string memory _name, string memory _contactForCommunication, address _userAdr) public {\r... */\n      pop\n      pop\n      pop\n      jump\t// out\n        /* \"Documents/GitHub/contract-token-cryptoMonster/backend/shared/helpers/getFuncs.sol\":144:282  function get_keccak256(string memory _hash) public pure returns(bytes32) {\r... */\n    tag_25:\n        /* \"Documents/GitHub/contract-token-cryptoMonster/backend/shared/helpers/getFuncs.sol\":208:215  bytes32 */\n      0x00\n        /* \"Documents/GitHub/contract-token-cryptoMonster/backend/shared/helpers/getFuncs.sol\":266:271  _hash */\n      dup2\n        /* \"Documents/GitHub/contract-token-cryptoMonster/backend/shared/helpers/getFuncs.sol\":249:272  abi.encodePacked(_hash) */\n      add(0x20, mload(0x40))\n      tag_72\n      swap2\n      swap1\n      tag_73\n      jump\t// in\n    tag_72:\n      mload(0x40)\n      0x20\n      dup2\n      dup4\n      sub\n      sub\n      dup2\n      mstore\n      swap1\n      0x40\n      mstore\n        /* \"Documents/GitHub/contract-token-cryptoMonster/backend/shared/helpers/getFuncs.sol\":239:273  keccak256(abi.encodePacked(_hash)) */\n      dup1\n      mload\n      swap1\n      0x20\n      add\n      keccak256\n        /* \"Documents/GitHub/contract-token-cryptoMonster/backend/shared/helpers/getFuncs.sol\":232:274  return(keccak256(abi.encodePacked(_hash))) */\n      swap1\n      pop\n        /* \"Documents/GitHub/contract-token-cryptoMonster/backend/shared/helpers/getFuncs.sol\":144:282  function get_keccak256(string memory _hash) public pure returns(bytes32) {\r... */\n      swap2\n      swap1\n      pop\n      jump\t// out\n        /* \"Documents/GitHub/contract-token-cryptoMonster/backend/components/PhasePrivate.sol\":1973:2145  function acceptApplication (bool _changeStatus) public {\r... */\n    tag_31:\n        /* \"Documents/GitHub/contract-token-cryptoMonster/backend/components/PhasePrivate.sol\":2080:2099  Role.SYSTEM_PRIVATE */\n      0x02\n        /* \"Documents/GitHub/contract-token-cryptoMonster/backend/components/PhasePrivate.sol\":2047:2099  structUsers_[msg.sender].role == Role.SYSTEM_PRIVATE */\n      0x04\n      dup2\n      gt\n      iszero\n      tag_75\n      jumpi\n      tag_76\n      tag_35\n      jump\t// in\n    tag_76:\n    tag_75:\n        /* \"Documents/GitHub/contract-token-cryptoMonster/backend/components/PhasePrivate.sol\":2047:2059  structUsers_ */\n      0x00\n        /* \"Documents/GitHub/contract-token-cryptoMonster/backend/components/PhasePrivate.sol\":2047:2071  structUsers_[msg.sender] */\n      dup1\n        /* \"Documents/GitHub/contract-token-cryptoMonster/backend/components/PhasePrivate.sol\":2060:2070  msg.sender */\n      caller\n        /* \"Documents/GitHub/contract-token-cryptoMonster/backend/components/PhasePrivate.sol\":2047:2071  structUsers_[msg.sender] */\n      0xffffffffffffffffffffffffffffffffffffffff\n      and\n      0xffffffffffffffffffffffffffffffffffffffff\n      and\n      dup2\n      mstore\n      0x20\n      add\n      swap1\n      dup2\n      mstore\n      0x20\n      add\n      0x00\n      keccak256\n        /* \"Documents/GitHub/contract-token-cryptoMonster/backend/components/PhasePrivate.sol\":2047:2076  structUsers_[msg.sender].role */\n      0x00\n      add\n      0x00\n      swap1\n      sload\n      swap1\n      0x0100\n      exp\n      swap1\n      div\n      0xff\n      and\n        /* \"Documents/GitHub/contract-token-cryptoMonster/backend/components/PhasePrivate.sol\":2047:2099  structUsers_[msg.sender].role == Role.SYSTEM_PRIVATE */\n      0x04\n      dup2\n      gt\n      iszero\n      tag_77\n      jumpi\n      tag_78\n      tag_35\n      jump\t// in\n    tag_78:\n    tag_77:\n      eq\n        /* \"Documents/GitHub/contract-token-cryptoMonster/backend/components/PhasePrivate.sol\":2039:2135  require(structUsers_[msg.sender].role == Role.SYSTEM_PRIVATE, \"You are not a private provider!\") */\n      tag_79\n      jumpi\n      mload(0x40)\n      0x08c379a000000000000000000000000000000000000000000000000000000000\n      dup2\n      mstore\n      0x04\n      add\n      tag_80\n      swap1\n      tag_40\n      jump\t// in\n    tag_80:\n      mload(0x40)\n      dup1\n      swap2\n      sub\n      swap1\n      revert\n    tag_79:\n        /* \"Documents/GitHub/contract-token-cryptoMonster/backend/components/PhasePrivate.sol\":1973:2145  function acceptApplication (bool _changeStatus) public {\r... */\n      pop\n      jump\t// out\n    tag_44:\n      mload(0x40)\n      dup1\n      0xc0\n      add\n      0x40\n      mstore\n      dup1\n      0x60\n      dup2\n      mstore\n      0x20\n      add\n      0x60\n      dup2\n      mstore\n      0x20\n      add\n      and(0xffffffffffffffffffffffffffffffffffffffff, 0x00)\n      dup2\n      mstore\n      0x20\n      add\n      iszero(iszero(0x00))\n      dup2\n      mstore\n      0x20\n      add\n      iszero(iszero(0x00))\n      dup2\n      mstore\n      0x20\n      add\n      iszero(iszero(0x00))\n      dup2\n      mstore\n      pop\n      swap1\n      jump\t// out\n    tag_68:\n      dup3\n      dup1\n      sload\n      tag_81\n      swap1\n      tag_53\n      jump\t// in\n    tag_81:\n      swap1\n      0x00\n      mstore\n      keccak256(0x00, 0x20)\n      swap1\n      0x1f\n      add\n      0x20\n      swap1\n      div\n      dup2\n      add\n      swap3\n      dup3\n      tag_83\n      jumpi\n      0x00\n      dup6\n      sstore\n      jump(tag_82)\n    tag_83:\n      dup3\n      0x1f\n      lt\n      tag_84\n      jumpi\n      dup1\n      mload\n      not(0xff)\n      and\n      dup4\n      dup1\n      add\n      or\n      dup6\n      sstore\n      jump(tag_82)\n    tag_84:\n      dup3\n      dup1\n      add\n      0x01\n      add\n      dup6\n      sstore\n      dup3\n      iszero\n      tag_82\n      jumpi\n      swap2\n      dup3\n      add\n    tag_85:\n      dup3\n      dup2\n      gt\n      iszero\n      tag_86\n      jumpi\n      dup3\n      mload\n      dup3\n      sstore\n      swap2\n      0x20\n      add\n      swap2\n      swap1\n      0x01\n      add\n      swap1\n      jump(tag_85)\n    tag_86:\n    tag_82:\n      pop\n      swap1\n      pop\n      tag_87\n      swap2\n      swap1\n      tag_88\n      jump\t// in\n    tag_87:\n      pop\n      swap1\n      jump\t// out\n    tag_88:\n    tag_89:\n      dup1\n      dup3\n      gt\n      iszero\n      tag_90\n      jumpi\n      0x00\n      dup2\n      0x00\n      swap1\n      sstore\n      pop\n      0x01\n      add\n      jump(tag_89)\n    tag_90:\n      pop\n      swap1\n      jump\t// out\n        /* \"#utility.yul\":7:419   */\n    tag_92:\n        /* \"#utility.yul\":85:90   */\n      0x00\n        /* \"#utility.yul\":110:176   */\n      tag_94\n        /* \"#utility.yul\":126:175   */\n      tag_95\n        /* \"#utility.yul\":168:174   */\n      dup5\n        /* \"#utility.yul\":126:175   */\n      tag_96\n      jump\t// in\n    tag_95:\n        /* \"#utility.yul\":110:176   */\n      tag_97\n      jump\t// in\n    tag_94:\n        /* \"#utility.yul\":101:176   */\n      swap1\n      pop\n        /* \"#utility.yul\":199:205   */\n      dup3\n        /* \"#utility.yul\":192:197   */\n      dup2\n        /* \"#utility.yul\":185:206   */\n      mstore\n        /* \"#utility.yul\":237:241   */\n      0x20\n        /* \"#utility.yul\":230:235   */\n      dup2\n        /* \"#utility.yul\":226:242   */\n      add\n        /* \"#utility.yul\":275:278   */\n      dup5\n        /* \"#utility.yul\":266:272   */\n      dup5\n        /* \"#utility.yul\":261:264   */\n      dup5\n        /* \"#utility.yul\":257:273   */\n      add\n        /* \"#utility.yul\":254:279   */\n      gt\n        /* \"#utility.yul\":251:363   */\n      iszero\n      tag_98\n      jumpi\n        /* \"#utility.yul\":282:361   */\n      tag_99\n      tag_100\n      jump\t// in\n    tag_99:\n        /* \"#utility.yul\":251:363   */\n    tag_98:\n        /* \"#utility.yul\":372:413   */\n      tag_101\n        /* \"#utility.yul\":406:412   */\n      dup5\n        /* \"#utility.yul\":401:404   */\n      dup3\n        /* \"#utility.yul\":396:399   */\n      dup6\n        /* \"#utility.yul\":372:413   */\n      tag_102\n      jump\t// in\n    tag_101:\n        /* \"#utility.yul\":91:419   */\n      pop\n        /* \"#utility.yul\":7:419   */\n      swap4\n      swap3\n      pop\n      pop\n      pop\n      jump\t// out\n        /* \"#utility.yul\":425:564   */\n    tag_103:\n        /* \"#utility.yul\":471:476   */\n      0x00\n        /* \"#utility.yul\":509:515   */\n      dup2\n        /* \"#utility.yul\":496:516   */\n      calldataload\n        /* \"#utility.yul\":487:516   */\n      swap1\n      pop\n        /* \"#utility.yul\":525:558   */\n      tag_105\n        /* \"#utility.yul\":552:557   */\n      dup2\n        /* \"#utility.yul\":525:558   */\n      tag_106\n      jump\t// in\n    tag_105:\n        /* \"#utility.yul\":425:564   */\n      swap3\n      swap2\n      pop\n      pop\n      jump\t// out\n        /* \"#utility.yul\":570:703   */\n    tag_107:\n        /* \"#utility.yul\":613:618   */\n      0x00\n        /* \"#utility.yul\":651:657   */\n      dup2\n        /* \"#utility.yul\":638:658   */\n      calldataload\n        /* \"#utility.yul\":629:658   */\n      swap1\n      pop\n        /* \"#utility.yul\":667:697   */\n      tag_109\n        /* \"#utility.yul\":691:696   */\n      dup2\n        /* \"#utility.yul\":667:697   */\n      tag_110\n      jump\t// in\n    tag_109:\n        /* \"#utility.yul\":570:703   */\n      swap3\n      swap2\n      pop\n      pop\n      jump\t// out\n        /* \"#utility.yul\":723:1063   */\n    tag_111:\n        /* \"#utility.yul\":779:784   */\n      0x00\n        /* \"#utility.yul\":828:831   */\n      dup3\n        /* \"#utility.yul\":821:825   */\n      0x1f\n        /* \"#utility.yul\":813:819   */\n      dup4\n        /* \"#utility.yul\":809:826   */\n      add\n        /* \"#utility.yul\":805:832   */\n      slt\n        /* \"#utility.yul\":795:917   */\n      tag_113\n      jumpi\n        /* \"#utility.yul\":836:915   */\n      tag_114\n      tag_115\n      jump\t// in\n    tag_114:\n        /* \"#utility.yul\":795:917   */\n    tag_113:\n        /* \"#utility.yul\":953:959   */\n      dup2\n        /* \"#utility.yul\":940:960   */\n      calldataload\n        /* \"#utility.yul\":978:1057   */\n      tag_116\n        /* \"#utility.yul\":1053:1056   */\n      dup5\n        /* \"#utility.yul\":1045:1051   */\n      dup3\n        /* \"#utility.yul\":1038:1042   */\n      0x20\n        /* \"#utility.yul\":1030:1036   */\n      dup7\n        /* \"#utility.yul\":1026:1043   */\n      add\n        /* \"#utility.yul\":978:1057   */\n      tag_92\n      jump\t// in\n    tag_116:\n        /* \"#utility.yul\":969:1057   */\n      swap2\n      pop\n        /* \"#utility.yul\":785:1063   */\n      pop\n        /* \"#utility.yul\":723:1063   */\n      swap3\n      swap2\n      pop\n      pop\n      jump\t// out\n        /* \"#utility.yul\":1069:1398   */\n    tag_14:\n        /* \"#utility.yul\":1128:1134   */\n      0x00\n        /* \"#utility.yul\":1177:1179   */\n      0x20\n        /* \"#utility.yul\":1165:1174   */\n      dup3\n        /* \"#utility.yul\":1156:1163   */\n      dup5\n        /* \"#utility.yul\":1152:1175   */\n      sub\n        /* \"#utility.yul\":1148:1180   */\n      slt\n        /* \"#utility.yul\":1145:1264   */\n      iszero\n      tag_118\n      jumpi\n        /* \"#utility.yul\":1183:1262   */\n      tag_119\n      tag_120\n      jump\t// in\n    tag_119:\n        /* \"#utility.yul\":1145:1264   */\n    tag_118:\n        /* \"#utility.yul\":1303:1304   */\n      0x00\n        /* \"#utility.yul\":1328:1381   */\n      tag_121\n        /* \"#utility.yul\":1373:1380   */\n      dup5\n        /* \"#utility.yul\":1364:1370   */\n      dup3\n        /* \"#utility.yul\":1353:1362   */\n      dup6\n        /* \"#utility.yul\":1349:1371   */\n      add\n        /* \"#utility.yul\":1328:1381   */\n      tag_103\n      jump\t// in\n    tag_121:\n        /* \"#utility.yul\":1318:1381   */\n      swap2\n      pop\n        /* \"#utility.yul\":1274:1391   */\n      pop\n        /* \"#utility.yul\":1069:1398   */\n      swap3\n      swap2\n      pop\n      pop\n      jump\t// out\n        /* \"#utility.yul\":1404:1727   */\n    tag_30:\n        /* \"#utility.yul\":1460:1466   */\n      0x00\n        /* \"#utility.yul\":1509:1511   */\n      0x20\n        /* \"#utility.yul\":1497:1506   */\n      dup3\n        /* \"#utility.yul\":1488:1495   */\n      dup5\n        /* \"#utility.yul\":1484:1507   */\n      sub\n        /* \"#utility.yul\":1480:1512   */\n      slt\n        /* \"#utility.yul\":1477:1596   */\n      iszero\n      tag_123\n      jumpi\n        /* \"#utility.yul\":1515:1594   */\n      tag_124\n      tag_120\n      jump\t// in\n    tag_124:\n        /* \"#utility.yul\":1477:1596   */\n    tag_123:\n        /* \"#utility.yul\":1635:1636   */\n      0x00\n        /* \"#utility.yul\":1660:1710   */\n      tag_125\n        /* \"#utility.yul\":1702:1709   */\n      dup5\n        /* \"#utility.yul\":1693:1699   */\n      dup3\n        /* \"#utility.yul\":1682:1691   */\n      dup6\n        /* \"#utility.yul\":1678:1700   */\n      add\n        /* \"#utility.yul\":1660:1710   */\n      tag_107\n      jump\t// in\n    tag_125:\n        /* \"#utility.yul\":1650:1710   */\n      swap2\n      pop\n        /* \"#utility.yul\":1606:1720   */\n      pop\n        /* \"#utility.yul\":1404:1727   */\n      swap3\n      swap2\n      pop\n      pop\n      jump\t// out\n        /* \"#utility.yul\":1733:2242   */\n    tag_24:\n        /* \"#utility.yul\":1802:1808   */\n      0x00\n        /* \"#utility.yul\":1851:1853   */\n      0x20\n        /* \"#utility.yul\":1839:1848   */\n      dup3\n        /* \"#utility.yul\":1830:1837   */\n      dup5\n        /* \"#utility.yul\":1826:1849   */\n      sub\n        /* \"#utility.yul\":1822:1854   */\n      slt\n        /* \"#utility.yul\":1819:1938   */\n      iszero\n      tag_127\n      jumpi\n        /* \"#utility.yul\":1857:1936   */\n      tag_128\n      tag_120\n      jump\t// in\n    tag_128:\n        /* \"#utility.yul\":1819:1938   */\n    tag_127:\n        /* \"#utility.yul\":2005:2006   */\n      0x00\n        /* \"#utility.yul\":1994:2003   */\n      dup3\n        /* \"#utility.yul\":1990:2007   */\n      add\n        /* \"#utility.yul\":1977:2008   */\n      calldataload\n        /* \"#utility.yul\":2035:2053   */\n      0xffffffffffffffff\n        /* \"#utility.yul\":2027:2033   */\n      dup2\n        /* \"#utility.yul\":2024:2054   */\n      gt\n        /* \"#utility.yul\":2021:2138   */\n      iszero\n      tag_129\n      jumpi\n        /* \"#utility.yul\":2057:2136   */\n      tag_130\n      tag_131\n      jump\t// in\n    tag_130:\n        /* \"#utility.yul\":2021:2138   */\n    tag_129:\n        /* \"#utility.yul\":2162:2225   */\n      tag_132\n        /* \"#utility.yul\":2217:2224   */\n      dup5\n        /* \"#utility.yul\":2208:2214   */\n      dup3\n        /* \"#utility.yul\":2197:2206   */\n      dup6\n        /* \"#utility.yul\":2193:2215   */\n      add\n        /* \"#utility.yul\":2162:2225   */\n      tag_111\n      jump\t// in\n    tag_132:\n        /* \"#utility.yul\":2152:2225   */\n      swap2\n      pop\n        /* \"#utility.yul\":1948:2235   */\n      pop\n        /* \"#utility.yul\":1733:2242   */\n      swap3\n      swap2\n      pop\n      pop\n      jump\t// out\n        /* \"#utility.yul\":2248:3227   */\n    tag_20:\n        /* \"#utility.yul\":2345:2351   */\n      0x00\n        /* \"#utility.yul\":2353:2359   */\n      dup1\n        /* \"#utility.yul\":2361:2367   */\n      0x00\n        /* \"#utility.yul\":2410:2412   */\n      0x60\n        /* \"#utility.yul\":2398:2407   */\n      dup5\n        /* \"#utility.yul\":2389:2396   */\n      dup7\n        /* \"#utility.yul\":2385:2408   */\n      sub\n        /* \"#utility.yul\":2381:2413   */\n      slt\n        /* \"#utility.yul\":2378:2497   */\n      iszero\n      tag_134\n      jumpi\n        /* \"#utility.yul\":2416:2495   */\n      tag_135\n      tag_120\n      jump\t// in\n    tag_135:\n        /* \"#utility.yul\":2378:2497   */\n    tag_134:\n        /* \"#utility.yul\":2564:2565   */\n      0x00\n        /* \"#utility.yul\":2553:2562   */\n      dup5\n        /* \"#utility.yul\":2549:2566   */\n      add\n        /* \"#utility.yul\":2536:2567   */\n      calldataload\n        /* \"#utility.yul\":2594:2612   */\n      0xffffffffffffffff\n        /* \"#utility.yul\":2586:2592   */\n      dup2\n        /* \"#utility.yul\":2583:2613   */\n      gt\n        /* \"#utility.yul\":2580:2697   */\n      iszero\n      tag_136\n      jumpi\n        /* \"#utility.yul\":2616:2695   */\n      tag_137\n      tag_131\n      jump\t// in\n    tag_137:\n        /* \"#utility.yul\":2580:2697   */\n    tag_136:\n        /* \"#utility.yul\":2721:2784   */\n      tag_138\n        /* \"#utility.yul\":2776:2783   */\n      dup7\n        /* \"#utility.yul\":2767:2773   */\n      dup3\n        /* \"#utility.yul\":2756:2765   */\n      dup8\n        /* \"#utility.yul\":2752:2774   */\n      add\n        /* \"#utility.yul\":2721:2784   */\n      tag_111\n      jump\t// in\n    tag_138:\n        /* \"#utility.yul\":2711:2784   */\n      swap4\n      pop\n        /* \"#utility.yul\":2507:2794   */\n      pop\n        /* \"#utility.yul\":2861:2863   */\n      0x20\n        /* \"#utility.yul\":2850:2859   */\n      dup5\n        /* \"#utility.yul\":2846:2864   */\n      add\n        /* \"#utility.yul\":2833:2865   */\n      calldataload\n        /* \"#utility.yul\":2892:2910   */\n      0xffffffffffffffff\n        /* \"#utility.yul\":2884:2890   */\n      dup2\n        /* \"#utility.yul\":2881:2911   */\n      gt\n        /* \"#utility.yul\":2878:2995   */\n      iszero\n      tag_139\n      jumpi\n        /* \"#utility.yul\":2914:2993   */\n      tag_140\n      tag_131\n      jump\t// in\n    tag_140:\n        /* \"#utility.yul\":2878:2995   */\n    tag_139:\n        /* \"#utility.yul\":3019:3082   */\n      tag_141\n        /* \"#utility.yul\":3074:3081   */\n      dup7\n        /* \"#utility.yul\":3065:3071   */\n      dup3\n        /* \"#utility.yul\":3054:3063   */\n      dup8\n        /* \"#utility.yul\":3050:3072   */\n      add\n        /* \"#utility.yul\":3019:3082   */\n      tag_111\n      jump\t// in\n    tag_141:\n        /* \"#utility.yul\":3009:3082   */\n      swap3\n      pop\n        /* \"#utility.yul\":2804:3092   */\n      pop\n        /* \"#utility.yul\":3131:3133   */\n      0x40\n        /* \"#utility.yul\":3157:3210   */\n      tag_142\n        /* \"#utility.yul\":3202:3209   */\n      dup7\n        /* \"#utility.yul\":3193:3199   */\n      dup3\n        /* \"#utility.yul\":3182:3191   */\n      dup8\n        /* \"#utility.yul\":3178:3200   */\n      add\n        /* \"#utility.yul\":3157:3210   */\n      tag_103\n      jump\t// in\n    tag_142:\n        /* \"#utility.yul\":3147:3210   */\n      swap2\n      pop\n        /* \"#utility.yul\":3102:3220   */\n      pop\n        /* \"#utility.yul\":2248:3227   */\n      swap3\n      pop\n      swap3\n      pop\n      swap3\n      jump\t// out\n        /* \"#utility.yul\":3233:3412   */\n    tag_143:\n        /* \"#utility.yul\":3302:3312   */\n      0x00\n        /* \"#utility.yul\":3323:3369   */\n      tag_145\n        /* \"#utility.yul\":3365:3368   */\n      dup4\n        /* \"#utility.yul\":3357:3363   */\n      dup4\n        /* \"#utility.yul\":3323:3369   */\n      tag_146\n      jump\t// in\n    tag_145:\n        /* \"#utility.yul\":3401:3405   */\n      0x20\n        /* \"#utility.yul\":3396:3399   */\n      dup4\n        /* \"#utility.yul\":3392:3406   */\n      add\n        /* \"#utility.yul\":3378:3406   */\n      swap1\n      pop\n        /* \"#utility.yul\":3233:3412   */\n      swap3\n      swap2\n      pop\n      pop\n      jump\t// out\n        /* \"#utility.yul\":3418:3526   */\n    tag_146:\n        /* \"#utility.yul\":3495:3519   */\n      tag_148\n        /* \"#utility.yul\":3513:3518   */\n      dup2\n        /* \"#utility.yul\":3495:3519   */\n      tag_149\n      jump\t// in\n    tag_148:\n        /* \"#utility.yul\":3490:3493   */\n      dup3\n        /* \"#utility.yul\":3483:3520   */\n      mstore\n        /* \"#utility.yul\":3418:3526   */\n      pop\n      pop\n      jump\t// out\n        /* \"#utility.yul\":3562:4294   */\n    tag_150:\n        /* \"#utility.yul\":3681:3684   */\n      0x00\n        /* \"#utility.yul\":3710:3764   */\n      tag_152\n        /* \"#utility.yul\":3758:3763   */\n      dup3\n        /* \"#utility.yul\":3710:3764   */\n      tag_153\n      jump\t// in\n    tag_152:\n        /* \"#utility.yul\":3780:3866   */\n      tag_154\n        /* \"#utility.yul\":3859:3865   */\n      dup2\n        /* \"#utility.yul\":3854:3857   */\n      dup6\n        /* \"#utility.yul\":3780:3866   */\n      tag_155\n      jump\t// in\n    tag_154:\n        /* \"#utility.yul\":3773:3866   */\n      swap4\n      pop\n        /* \"#utility.yul\":3890:3946   */\n      tag_156\n        /* \"#utility.yul\":3940:3945   */\n      dup4\n        /* \"#utility.yul\":3890:3946   */\n      tag_157\n      jump\t// in\n    tag_156:\n        /* \"#utility.yul\":3969:3976   */\n      dup1\n        /* \"#utility.yul\":4000:4001   */\n      0x00\n        /* \"#utility.yul\":3985:4269   */\n    tag_158:\n        /* \"#utility.yul\":4010:4016   */\n      dup4\n        /* \"#utility.yul\":4007:4008   */\n      dup2\n        /* \"#utility.yul\":4004:4017   */\n      lt\n        /* \"#utility.yul\":3985:4269   */\n      iszero\n      tag_160\n      jumpi\n        /* \"#utility.yul\":4086:4092   */\n      dup2\n        /* \"#utility.yul\":4080:4093   */\n      mload\n        /* \"#utility.yul\":4113:4176   */\n      tag_161\n        /* \"#utility.yul\":4172:4175   */\n      dup9\n        /* \"#utility.yul\":4157:4170   */\n      dup3\n        /* \"#utility.yul\":4113:4176   */\n      tag_143\n      jump\t// in\n    tag_161:\n        /* \"#utility.yul\":4106:4176   */\n      swap8\n      pop\n        /* \"#utility.yul\":4199:4259   */\n      tag_162\n        /* \"#utility.yul\":4252:4258   */\n      dup4\n        /* \"#utility.yul\":4199:4259   */\n      tag_163\n      jump\t// in\n    tag_162:\n        /* \"#utility.yul\":4189:4259   */\n      swap3\n      pop\n        /* \"#utility.yul\":4045:4269   */\n      pop\n        /* \"#utility.yul\":4032:4033   */\n      0x01\n        /* \"#utility.yul\":4029:4030   */\n      dup2\n        /* \"#utility.yul\":4025:4034   */\n      add\n        /* \"#utility.yul\":4020:4034   */\n      swap1\n      pop\n        /* \"#utility.yul\":3985:4269   */\n      jump(tag_158)\n    tag_160:\n        /* \"#utility.yul\":3989:4003   */\n      pop\n        /* \"#utility.yul\":4285:4288   */\n      dup6\n        /* \"#utility.yul\":4278:4288   */\n      swap4\n      pop\n        /* \"#utility.yul\":3686:4294   */\n      pop\n      pop\n      pop\n        /* \"#utility.yul\":3562:4294   */\n      swap3\n      swap2\n      pop\n      pop\n      jump\t// out\n        /* \"#utility.yul\":4300:4399   */\n    tag_164:\n        /* \"#utility.yul\":4371:4392   */\n      tag_166\n        /* \"#utility.yul\":4386:4391   */\n      dup2\n        /* \"#utility.yul\":4371:4392   */\n      tag_167\n      jump\t// in\n    tag_166:\n        /* \"#utility.yul\":4366:4369   */\n      dup3\n        /* \"#utility.yul\":4359:4393   */\n      mstore\n        /* \"#utility.yul\":4300:4399   */\n      pop\n      pop\n      jump\t// out\n        /* \"#utility.yul\":4405:4523   */\n    tag_168:\n        /* \"#utility.yul\":4492:4516   */\n      tag_170\n        /* \"#utility.yul\":4510:4515   */\n      dup2\n        /* \"#utility.yul\":4492:4516   */\n      tag_171\n      jump\t// in\n    tag_170:\n        /* \"#utility.yul\":4487:4490   */\n      dup3\n        /* \"#utility.yul\":4480:4517   */\n      mstore\n        /* \"#utility.yul\":4405:4523   */\n      pop\n      pop\n      jump\t// out\n        /* \"#utility.yul\":4529:4873   */\n    tag_172:\n        /* \"#utility.yul\":4607:4610   */\n      0x00\n        /* \"#utility.yul\":4635:4674   */\n      tag_174\n        /* \"#utility.yul\":4668:4673   */\n      dup3\n        /* \"#utility.yul\":4635:4674   */\n      tag_175\n      jump\t// in\n    tag_174:\n        /* \"#utility.yul\":4690:4751   */\n      tag_176\n        /* \"#utility.yul\":4744:4750   */\n      dup2\n        /* \"#utility.yul\":4739:4742   */\n      dup6\n        /* \"#utility.yul\":4690:4751   */\n      tag_177\n      jump\t// in\n    tag_176:\n        /* \"#utility.yul\":4683:4751   */\n      swap4\n      pop\n        /* \"#utility.yul\":4760:4812   */\n      tag_178\n        /* \"#utility.yul\":4805:4811   */\n      dup2\n        /* \"#utility.yul\":4800:4803   */\n      dup6\n        /* \"#utility.yul\":4793:4797   */\n      0x20\n        /* \"#utility.yul\":4786:4791   */\n      dup7\n        /* \"#utility.yul\":4782:4798   */\n      add\n        /* \"#utility.yul\":4760:4812   */\n      tag_179\n      jump\t// in\n    tag_178:\n        /* \"#utility.yul\":4837:4866   */\n      tag_180\n        /* \"#utility.yul\":4859:4865   */\n      dup2\n        /* \"#utility.yul\":4837:4866   */\n      tag_181\n      jump\t// in\n    tag_180:\n        /* \"#utility.yul\":4832:4835   */\n      dup5\n        /* \"#utility.yul\":4828:4867   */\n      add\n        /* \"#utility.yul\":4821:4867   */\n      swap2\n      pop\n        /* \"#utility.yul\":4611:4873   */\n      pop\n        /* \"#utility.yul\":4529:4873   */\n      swap3\n      swap2\n      pop\n      pop\n      jump\t// out\n        /* \"#utility.yul\":4879:5256   */\n    tag_182:\n        /* \"#utility.yul\":4985:4988   */\n      0x00\n        /* \"#utility.yul\":5013:5052   */\n      tag_184\n        /* \"#utility.yul\":5046:5051   */\n      dup3\n        /* \"#utility.yul\":5013:5052   */\n      tag_175\n      jump\t// in\n    tag_184:\n        /* \"#utility.yul\":5068:5157   */\n      tag_185\n        /* \"#utility.yul\":5150:5156   */\n      dup2\n        /* \"#utility.yul\":5145:5148   */\n      dup6\n        /* \"#utility.yul\":5068:5157   */\n      tag_186\n      jump\t// in\n    tag_185:\n        /* \"#utility.yul\":5061:5157   */\n      swap4\n      pop\n        /* \"#utility.yul\":5166:5218   */\n      tag_187\n        /* \"#utility.yul\":5211:5217   */\n      dup2\n        /* \"#utility.yul\":5206:5209   */\n      dup6\n        /* \"#utility.yul\":5199:5203   */\n      0x20\n        /* \"#utility.yul\":5192:5197   */\n      dup7\n        /* \"#utility.yul\":5188:5204   */\n      add\n        /* \"#utility.yul\":5166:5218   */\n      tag_179\n      jump\t// in\n    tag_187:\n        /* \"#utility.yul\":5243:5249   */\n      dup1\n        /* \"#utility.yul\":5238:5241   */\n      dup5\n        /* \"#utility.yul\":5234:5250   */\n      add\n        /* \"#utility.yul\":5227:5250   */\n      swap2\n      pop\n        /* \"#utility.yul\":4989:5256   */\n      pop\n        /* \"#utility.yul\":4879:5256   */\n      swap3\n      swap2\n      pop\n      pop\n      jump\t// out\n        /* \"#utility.yul\":5262:5628   */\n    tag_188:\n        /* \"#utility.yul\":5404:5407   */\n      0x00\n        /* \"#utility.yul\":5425:5492   */\n      tag_190\n        /* \"#utility.yul\":5489:5491   */\n      0x1f\n        /* \"#utility.yul\":5484:5487   */\n      dup4\n        /* \"#utility.yul\":5425:5492   */\n      tag_191\n      jump\t// in\n    tag_190:\n        /* \"#utility.yul\":5418:5492   */\n      swap2\n      pop\n        /* \"#utility.yul\":5501:5594   */\n      tag_192\n        /* \"#utility.yul\":5590:5593   */\n      dup3\n        /* \"#utility.yul\":5501:5594   */\n      tag_193\n      jump\t// in\n    tag_192:\n        /* \"#utility.yul\":5619:5621   */\n      0x20\n        /* \"#utility.yul\":5614:5617   */\n      dup3\n        /* \"#utility.yul\":5610:5622   */\n      add\n        /* \"#utility.yul\":5603:5622   */\n      swap1\n      pop\n        /* \"#utility.yul\":5262:5628   */\n      swap2\n      swap1\n      pop\n      jump\t// out\n        /* \"#utility.yul\":5634:6000   */\n    tag_194:\n        /* \"#utility.yul\":5776:5779   */\n      0x00\n        /* \"#utility.yul\":5797:5864   */\n      tag_196\n        /* \"#utility.yul\":5861:5863   */\n      0x19\n        /* \"#utility.yul\":5856:5859   */\n      dup4\n        /* \"#utility.yul\":5797:5864   */\n      tag_191\n      jump\t// in\n    tag_196:\n        /* \"#utility.yul\":5790:5864   */\n      swap2\n      pop\n        /* \"#utility.yul\":5873:5966   */\n      tag_197\n        /* \"#utility.yul\":5962:5965   */\n      dup3\n        /* \"#utility.yul\":5873:5966   */\n      tag_198\n      jump\t// in\n    tag_197:\n        /* \"#utility.yul\":5991:5993   */\n      0x20\n        /* \"#utility.yul\":5986:5989   */\n      dup3\n        /* \"#utility.yul\":5982:5994   */\n      add\n        /* \"#utility.yul\":5975:5994   */\n      swap1\n      pop\n        /* \"#utility.yul\":5634:6000   */\n      swap2\n      swap1\n      pop\n      jump\t// out\n        /* \"#utility.yul\":6088:7490   */\n    tag_199:\n        /* \"#utility.yul\":6225:6228   */\n      0x00\n        /* \"#utility.yul\":6261:6265   */\n      0xc0\n        /* \"#utility.yul\":6256:6259   */\n      dup4\n        /* \"#utility.yul\":6252:6266   */\n      add\n        /* \"#utility.yul\":6348:6352   */\n      0x00\n        /* \"#utility.yul\":6341:6346   */\n      dup4\n        /* \"#utility.yul\":6337:6353   */\n      add\n        /* \"#utility.yul\":6331:6354   */\n      mload\n        /* \"#utility.yul\":6401:6404   */\n      dup5\n        /* \"#utility.yul\":6395:6399   */\n      dup3\n        /* \"#utility.yul\":6391:6405   */\n      sub\n        /* \"#utility.yul\":6384:6388   */\n      0x00\n        /* \"#utility.yul\":6379:6382   */\n      dup7\n        /* \"#utility.yul\":6375:6389   */\n      add\n        /* \"#utility.yul\":6368:6406   */\n      mstore\n        /* \"#utility.yul\":6427:6500   */\n      tag_201\n        /* \"#utility.yul\":6495:6499   */\n      dup3\n        /* \"#utility.yul\":6481:6493   */\n      dup3\n        /* \"#utility.yul\":6427:6500   */\n      tag_172\n      jump\t// in\n    tag_201:\n        /* \"#utility.yul\":6419:6500   */\n      swap2\n      pop\n        /* \"#utility.yul\":6276:6511   */\n      pop\n        /* \"#utility.yul\":6612:6616   */\n      0x20\n        /* \"#utility.yul\":6605:6610   */\n      dup4\n        /* \"#utility.yul\":6601:6617   */\n      add\n        /* \"#utility.yul\":6595:6618   */\n      mload\n        /* \"#utility.yul\":6665:6668   */\n      dup5\n        /* \"#utility.yul\":6659:6663   */\n      dup3\n        /* \"#utility.yul\":6655:6669   */\n      sub\n        /* \"#utility.yul\":6648:6652   */\n      0x20\n        /* \"#utility.yul\":6643:6646   */\n      dup7\n        /* \"#utility.yul\":6639:6653   */\n      add\n        /* \"#utility.yul\":6632:6670   */\n      mstore\n        /* \"#utility.yul\":6691:6764   */\n      tag_202\n        /* \"#utility.yul\":6759:6763   */\n      dup3\n        /* \"#utility.yul\":6745:6757   */\n      dup3\n        /* \"#utility.yul\":6691:6764   */\n      tag_172\n      jump\t// in\n    tag_202:\n        /* \"#utility.yul\":6683:6764   */\n      swap2\n      pop\n        /* \"#utility.yul\":6521:6775   */\n      pop\n        /* \"#utility.yul\":6860:6864   */\n      0x40\n        /* \"#utility.yul\":6853:6858   */\n      dup4\n        /* \"#utility.yul\":6849:6865   */\n      add\n        /* \"#utility.yul\":6843:6866   */\n      mload\n        /* \"#utility.yul\":6879:6942   */\n      tag_203\n        /* \"#utility.yul\":6936:6940   */\n      0x40\n        /* \"#utility.yul\":6931:6934   */\n      dup7\n        /* \"#utility.yul\":6927:6941   */\n      add\n        /* \"#utility.yul\":6913:6925   */\n      dup3\n        /* \"#utility.yul\":6879:6942   */\n      tag_146\n      jump\t// in\n    tag_203:\n        /* \"#utility.yul\":6785:6952   */\n      pop\n        /* \"#utility.yul\":7036:7040   */\n      0x60\n        /* \"#utility.yul\":7029:7034   */\n      dup4\n        /* \"#utility.yul\":7025:7041   */\n      add\n        /* \"#utility.yul\":7019:7042   */\n      mload\n        /* \"#utility.yul\":7055:7112   */\n      tag_204\n        /* \"#utility.yul\":7106:7110   */\n      0x60\n        /* \"#utility.yul\":7101:7104   */\n      dup7\n        /* \"#utility.yul\":7097:7111   */\n      add\n        /* \"#utility.yul\":7083:7095   */\n      dup3\n        /* \"#utility.yul\":7055:7112   */\n      tag_164\n      jump\t// in\n    tag_204:\n        /* \"#utility.yul\":6962:7122   */\n      pop\n        /* \"#utility.yul\":7208:7212   */\n      0x80\n        /* \"#utility.yul\":7201:7206   */\n      dup4\n        /* \"#utility.yul\":7197:7213   */\n      add\n        /* \"#utility.yul\":7191:7214   */\n      mload\n        /* \"#utility.yul\":7227:7284   */\n      tag_205\n        /* \"#utility.yul\":7278:7282   */\n      0x80\n        /* \"#utility.yul\":7273:7276   */\n      dup7\n        /* \"#utility.yul\":7269:7283   */\n      add\n        /* \"#utility.yul\":7255:7267   */\n      dup3\n        /* \"#utility.yul\":7227:7284   */\n      tag_164\n      jump\t// in\n    tag_205:\n        /* \"#utility.yul\":7132:7294   */\n      pop\n        /* \"#utility.yul\":7377:7381   */\n      0xa0\n        /* \"#utility.yul\":7370:7375   */\n      dup4\n        /* \"#utility.yul\":7366:7382   */\n      add\n        /* \"#utility.yul\":7360:7383   */\n      mload\n        /* \"#utility.yul\":7396:7453   */\n      tag_206\n        /* \"#utility.yul\":7447:7451   */\n      0xa0\n        /* \"#utility.yul\":7442:7445   */\n      dup7\n        /* \"#utility.yul\":7438:7452   */\n      add\n        /* \"#utility.yul\":7424:7436   */\n      dup3\n        /* \"#utility.yul\":7396:7453   */\n      tag_164\n      jump\t// in\n    tag_206:\n        /* \"#utility.yul\":7304:7463   */\n      pop\n        /* \"#utility.yul\":7480:7484   */\n      dup1\n        /* \"#utility.yul\":7473:7484   */\n      swap2\n      pop\n        /* \"#utility.yul\":6230:7490   */\n      pop\n        /* \"#utility.yul\":6088:7490   */\n      swap3\n      swap2\n      pop\n      pop\n      jump\t// out\n        /* \"#utility.yul\":7496:7771   */\n    tag_73:\n        /* \"#utility.yul\":7628:7631   */\n      0x00\n        /* \"#utility.yul\":7650:7745   */\n      tag_208\n        /* \"#utility.yul\":7741:7744   */\n      dup3\n        /* \"#utility.yul\":7732:7738   */\n      dup5\n        /* \"#utility.yul\":7650:7745   */\n      tag_182\n      jump\t// in\n    tag_208:\n        /* \"#utility.yul\":7643:7745   */\n      swap2\n      pop\n        /* \"#utility.yul\":7762:7765   */\n      dup2\n        /* \"#utility.yul\":7755:7765   */\n      swap1\n      pop\n        /* \"#utility.yul\":7496:7771   */\n      swap3\n      swap2\n      pop\n      pop\n      jump\t// out\n        /* \"#utility.yul\":7777:8150   */\n    tag_11:\n        /* \"#utility.yul\":7920:7924   */\n      0x00\n        /* \"#utility.yul\":7958:7960   */\n      0x20\n        /* \"#utility.yul\":7947:7956   */\n      dup3\n        /* \"#utility.yul\":7943:7961   */\n      add\n        /* \"#utility.yul\":7935:7961   */\n      swap1\n      pop\n        /* \"#utility.yul\":8007:8016   */\n      dup2\n        /* \"#utility.yul\":8001:8005   */\n      dup2\n        /* \"#utility.yul\":7997:8017   */\n      sub\n        /* \"#utility.yul\":7993:7994   */\n      0x00\n        /* \"#utility.yul\":7982:7991   */\n      dup4\n        /* \"#utility.yul\":7978:7995   */\n      add\n        /* \"#utility.yul\":7971:8018   */\n      mstore\n        /* \"#utility.yul\":8035:8143   */\n      tag_210\n        /* \"#utility.yul\":8138:8142   */\n      dup2\n        /* \"#utility.yul\":8129:8135   */\n      dup5\n        /* \"#utility.yul\":8035:8143   */\n      tag_150\n      jump\t// in\n    tag_210:\n        /* \"#utility.yul\":8027:8143   */\n      swap1\n      pop\n        /* \"#utility.yul\":7777:8150   */\n      swap3\n      swap2\n      pop\n      pop\n      jump\t// out\n        /* \"#utility.yul\":8156:8378   */\n    tag_27:\n        /* \"#utility.yul\":8249:8253   */\n      0x00\n        /* \"#utility.yul\":8287:8289   */\n      0x20\n        /* \"#utility.yul\":8276:8285   */\n      dup3\n        /* \"#utility.yul\":8272:8290   */\n      add\n        /* \"#utility.yul\":8264:8290   */\n      swap1\n      pop\n        /* \"#utility.yul\":8300:8371   */\n      tag_212\n        /* \"#utility.yul\":8368:8369   */\n      0x00\n        /* \"#utility.yul\":8357:8366   */\n      dup4\n        /* \"#utility.yul\":8353:8370   */\n      add\n        /* \"#utility.yul\":8344:8350   */\n      dup5\n        /* \"#utility.yul\":8300:8371   */\n      tag_168\n      jump\t// in\n    tag_212:\n        /* \"#utility.yul\":8156:8378   */\n      swap3\n      swap2\n      pop\n      pop\n      jump\t// out\n        /* \"#utility.yul\":8384:8803   */\n    tag_40:\n        /* \"#utility.yul\":8550:8554   */\n      0x00\n        /* \"#utility.yul\":8588:8590   */\n      0x20\n        /* \"#utility.yul\":8577:8586   */\n      dup3\n        /* \"#utility.yul\":8573:8591   */\n      add\n        /* \"#utility.yul\":8565:8591   */\n      swap1\n      pop\n        /* \"#utility.yul\":8637:8646   */\n      dup2\n        /* \"#utility.yul\":8631:8635   */\n      dup2\n        /* \"#utility.yul\":8627:8647   */\n      sub\n        /* \"#utility.yul\":8623:8624   */\n      0x00\n        /* \"#utility.yul\":8612:8621   */\n      dup4\n        /* \"#utility.yul\":8608:8625   */\n      add\n        /* \"#utility.yul\":8601:8648   */\n      mstore\n        /* \"#utility.yul\":8665:8796   */\n      tag_214\n        /* \"#utility.yul\":8791:8795   */\n      dup2\n        /* \"#utility.yul\":8665:8796   */\n      tag_188\n      jump\t// in\n    tag_214:\n        /* \"#utility.yul\":8657:8796   */\n      swap1\n      pop\n        /* \"#utility.yul\":8384:8803   */\n      swap2\n      swap1\n      pop\n      jump\t// out\n        /* \"#utility.yul\":8809:9228   */\n    tag_66:\n        /* \"#utility.yul\":8975:8979   */\n      0x00\n        /* \"#utility.yul\":9013:9015   */\n      0x20\n        /* \"#utility.yul\":9002:9011   */\n      dup3\n        /* \"#utility.yul\":8998:9016   */\n      add\n        /* \"#utility.yul\":8990:9016   */\n      swap1\n      pop\n        /* \"#utility.yul\":9062:9071   */\n      dup2\n        /* \"#utility.yul\":9056:9060   */\n      dup2\n        /* \"#utility.yul\":9052:9072   */\n      sub\n        /* \"#utility.yul\":9048:9049   */\n      0x00\n        /* \"#utility.yul\":9037:9046   */\n      dup4\n        /* \"#utility.yul\":9033:9050   */\n      add\n        /* \"#utility.yul\":9026:9073   */\n      mstore\n        /* \"#utility.yul\":9090:9221   */\n      tag_216\n        /* \"#utility.yul\":9216:9220   */\n      dup2\n        /* \"#utility.yul\":9090:9221   */\n      tag_194\n      jump\t// in\n    tag_216:\n        /* \"#utility.yul\":9082:9221   */\n      swap1\n      pop\n        /* \"#utility.yul\":8809:9228   */\n      swap2\n      swap1\n      pop\n      jump\t// out\n        /* \"#utility.yul\":9234:9643   */\n    tag_17:\n        /* \"#utility.yul\":9395:9399   */\n      0x00\n        /* \"#utility.yul\":9433:9435   */\n      0x20\n        /* \"#utility.yul\":9422:9431   */\n      dup3\n        /* \"#utility.yul\":9418:9436   */\n      add\n        /* \"#utility.yul\":9410:9436   */\n      swap1\n      pop\n        /* \"#utility.yul\":9482:9491   */\n      dup2\n        /* \"#utility.yul\":9476:9480   */\n      dup2\n        /* \"#utility.yul\":9472:9492   */\n      sub\n        /* \"#utility.yul\":9468:9469   */\n      0x00\n        /* \"#utility.yul\":9457:9466   */\n      dup4\n        /* \"#utility.yul\":9453:9470   */\n      add\n        /* \"#utility.yul\":9446:9493   */\n      mstore\n        /* \"#utility.yul\":9510:9636   */\n      tag_218\n        /* \"#utility.yul\":9631:9635   */\n      dup2\n        /* \"#utility.yul\":9622:9628   */\n      dup5\n        /* \"#utility.yul\":9510:9636   */\n      tag_199\n      jump\t// in\n    tag_218:\n        /* \"#utility.yul\":9502:9636   */\n      swap1\n      pop\n        /* \"#utility.yul\":9234:9643   */\n      swap3\n      swap2\n      pop\n      pop\n      jump\t// out\n        /* \"#utility.yul\":9649:9778   */\n    tag_97:\n        /* \"#utility.yul\":9683:9689   */\n      0x00\n        /* \"#utility.yul\":9710:9730   */\n      tag_220\n      tag_221\n      jump\t// in\n    tag_220:\n        /* \"#utility.yul\":9700:9730   */\n      swap1\n      pop\n        /* \"#utility.yul\":9739:9772   */\n      tag_222\n        /* \"#utility.yul\":9767:9771   */\n      dup3\n        /* \"#utility.yul\":9759:9765   */\n      dup3\n        /* \"#utility.yul\":9739:9772   */\n      tag_223\n      jump\t// in\n    tag_222:\n        /* \"#utility.yul\":9649:9778   */\n      swap2\n      swap1\n      pop\n      jump\t// out\n        /* \"#utility.yul\":9784:9859   */\n    tag_221:\n        /* \"#utility.yul\":9817:9823   */\n      0x00\n        /* \"#utility.yul\":9850:9852   */\n      0x40\n        /* \"#utility.yul\":9844:9853   */\n      mload\n        /* \"#utility.yul\":9834:9853   */\n      swap1\n      pop\n        /* \"#utility.yul\":9784:9859   */\n      swap1\n      jump\t// out\n        /* \"#utility.yul\":9865:10173   */\n    tag_96:\n        /* \"#utility.yul\":9927:9931   */\n      0x00\n        /* \"#utility.yul\":10017:10035   */\n      0xffffffffffffffff\n        /* \"#utility.yul\":10009:10015   */\n      dup3\n        /* \"#utility.yul\":10006:10036   */\n      gt\n        /* \"#utility.yul\":10003:10059   */\n      iszero\n      tag_226\n      jumpi\n        /* \"#utility.yul\":10039:10057   */\n      tag_227\n      tag_228\n      jump\t// in\n    tag_227:\n        /* \"#utility.yul\":10003:10059   */\n    tag_226:\n        /* \"#utility.yul\":10077:10106   */\n      tag_229\n        /* \"#utility.yul\":10099:10105   */\n      dup3\n        /* \"#utility.yul\":10077:10106   */\n      tag_181\n      jump\t// in\n    tag_229:\n        /* \"#utility.yul\":10069:10106   */\n      swap1\n      pop\n        /* \"#utility.yul\":10161:10165   */\n      0x20\n        /* \"#utility.yul\":10155:10159   */\n      dup2\n        /* \"#utility.yul\":10151:10166   */\n      add\n        /* \"#utility.yul\":10143:10166   */\n      swap1\n      pop\n        /* \"#utility.yul\":9865:10173   */\n      swap2\n      swap1\n      pop\n      jump\t// out\n        /* \"#utility.yul\":10179:10311   */\n    tag_157:\n        /* \"#utility.yul\":10246:10250   */\n      0x00\n        /* \"#utility.yul\":10269:10272   */\n      dup2\n        /* \"#utility.yul\":10261:10272   */\n      swap1\n      pop\n        /* \"#utility.yul\":10299:10303   */\n      0x20\n        /* \"#utility.yul\":10294:10297   */\n      dup3\n        /* \"#utility.yul\":10290:10304   */\n      add\n        /* \"#utility.yul\":10282:10304   */\n      swap1\n      pop\n        /* \"#utility.yul\":10179:10311   */\n      swap2\n      swap1\n      pop\n      jump\t// out\n        /* \"#utility.yul\":10317:10431   */\n    tag_153:\n        /* \"#utility.yul\":10384:10390   */\n      0x00\n        /* \"#utility.yul\":10418:10423   */\n      dup2\n        /* \"#utility.yul\":10412:10424   */\n      mload\n        /* \"#utility.yul\":10402:10424   */\n      swap1\n      pop\n        /* \"#utility.yul\":10317:10431   */\n      swap2\n      swap1\n      pop\n      jump\t// out\n        /* \"#utility.yul\":10437:10536   */\n    tag_175:\n        /* \"#utility.yul\":10489:10495   */\n      0x00\n        /* \"#utility.yul\":10523:10528   */\n      dup2\n        /* \"#utility.yul\":10517:10529   */\n      mload\n        /* \"#utility.yul\":10507:10529   */\n      swap1\n      pop\n        /* \"#utility.yul\":10437:10536   */\n      swap2\n      swap1\n      pop\n      jump\t// out\n        /* \"#utility.yul\":10542:10655   */\n    tag_163:\n        /* \"#utility.yul\":10612:10616   */\n      0x00\n        /* \"#utility.yul\":10644:10648   */\n      0x20\n        /* \"#utility.yul\":10639:10642   */\n      dup3\n        /* \"#utility.yul\":10635:10649   */\n      add\n        /* \"#utility.yul\":10627:10649   */\n      swap1\n      pop\n        /* \"#utility.yul\":10542:10655   */\n      swap2\n      swap1\n      pop\n      jump\t// out\n        /* \"#utility.yul\":10661:10845   */\n    tag_155:\n        /* \"#utility.yul\":10760:10771   */\n      0x00\n        /* \"#utility.yul\":10794:10800   */\n      dup3\n        /* \"#utility.yul\":10789:10792   */\n      dup3\n        /* \"#utility.yul\":10782:10801   */\n      mstore\n        /* \"#utility.yul\":10834:10838   */\n      0x20\n        /* \"#utility.yul\":10829:10832   */\n      dup3\n        /* \"#utility.yul\":10825:10839   */\n      add\n        /* \"#utility.yul\":10810:10839   */\n      swap1\n      pop\n        /* \"#utility.yul\":10661:10845   */\n      swap3\n      swap2\n      pop\n      pop\n      jump\t// out\n        /* \"#utility.yul\":10851:11010   */\n    tag_177:\n        /* \"#utility.yul\":10925:10936   */\n      0x00\n        /* \"#utility.yul\":10959:10965   */\n      dup3\n        /* \"#utility.yul\":10954:10957   */\n      dup3\n        /* \"#utility.yul\":10947:10966   */\n      mstore\n        /* \"#utility.yul\":10999:11003   */\n      0x20\n        /* \"#utility.yul\":10994:10997   */\n      dup3\n        /* \"#utility.yul\":10990:11004   */\n      add\n        /* \"#utility.yul\":10975:11004   */\n      swap1\n      pop\n        /* \"#utility.yul\":10851:11010   */\n      swap3\n      swap2\n      pop\n      pop\n      jump\t// out\n        /* \"#utility.yul\":11016:11185   */\n    tag_191:\n        /* \"#utility.yul\":11100:11111   */\n      0x00\n        /* \"#utility.yul\":11134:11140   */\n      dup3\n        /* \"#utility.yul\":11129:11132   */\n      dup3\n        /* \"#utility.yul\":11122:11141   */\n      mstore\n        /* \"#utility.yul\":11174:11178   */\n      0x20\n        /* \"#utility.yul\":11169:11172   */\n      dup3\n        /* \"#utility.yul\":11165:11179   */\n      add\n        /* \"#utility.yul\":11150:11179   */\n      swap1\n      pop\n        /* \"#utility.yul\":11016:11185   */\n      swap3\n      swap2\n      pop\n      pop\n      jump\t// out\n        /* \"#utility.yul\":11191:11339   */\n    tag_186:\n        /* \"#utility.yul\":11293:11304   */\n      0x00\n        /* \"#utility.yul\":11330:11333   */\n      dup2\n        /* \"#utility.yul\":11315:11333   */\n      swap1\n      pop\n        /* \"#utility.yul\":11191:11339   */\n      swap3\n      swap2\n      pop\n      pop\n      jump\t// out\n        /* \"#utility.yul\":11345:11441   */\n    tag_149:\n        /* \"#utility.yul\":11382:11389   */\n      0x00\n        /* \"#utility.yul\":11411:11435   */\n      tag_239\n        /* \"#utility.yul\":11429:11434   */\n      dup3\n        /* \"#utility.yul\":11411:11435   */\n      tag_240\n      jump\t// in\n    tag_239:\n        /* \"#utility.yul\":11400:11435   */\n      swap1\n      pop\n        /* \"#utility.yul\":11345:11441   */\n      swap2\n      swap1\n      pop\n      jump\t// out\n        /* \"#utility.yul\":11447:11537   */\n    tag_167:\n        /* \"#utility.yul\":11481:11488   */\n      0x00\n        /* \"#utility.yul\":11524:11529   */\n      dup2\n        /* \"#utility.yul\":11517:11530   */\n      iszero\n        /* \"#utility.yul\":11510:11531   */\n      iszero\n        /* \"#utility.yul\":11499:11531   */\n      swap1\n      pop\n        /* \"#utility.yul\":11447:11537   */\n      swap2\n      swap1\n      pop\n      jump\t// out\n        /* \"#utility.yul\":11543:11620   */\n    tag_171:\n        /* \"#utility.yul\":11580:11587   */\n      0x00\n        /* \"#utility.yul\":11609:11614   */\n      dup2\n        /* \"#utility.yul\":11598:11614   */\n      swap1\n      pop\n        /* \"#utility.yul\":11543:11620   */\n      swap2\n      swap1\n      pop\n      jump\t// out\n        /* \"#utility.yul\":11626:11752   */\n    tag_240:\n        /* \"#utility.yul\":11663:11670   */\n      0x00\n        /* \"#utility.yul\":11703:11745   */\n      0xffffffffffffffffffffffffffffffffffffffff\n        /* \"#utility.yul\":11696:11701   */\n      dup3\n        /* \"#utility.yul\":11692:11746   */\n      and\n        /* \"#utility.yul\":11681:11746   */\n      swap1\n      pop\n        /* \"#utility.yul\":11626:11752   */\n      swap2\n      swap1\n      pop\n      jump\t// out\n        /* \"#utility.yul\":11758:11912   */\n    tag_102:\n        /* \"#utility.yul\":11842:11848   */\n      dup3\n        /* \"#utility.yul\":11837:11840   */\n      dup2\n        /* \"#utility.yul\":11832:11835   */\n      dup4\n        /* \"#utility.yul\":11819:11849   */\n      calldatacopy\n        /* \"#utility.yul\":11904:11905   */\n      0x00\n        /* \"#utility.yul\":11895:11901   */\n      dup4\n        /* \"#utility.yul\":11890:11893   */\n      dup4\n        /* \"#utility.yul\":11886:11902   */\n      add\n        /* \"#utility.yul\":11879:11906   */\n      mstore\n        /* \"#utility.yul\":11758:11912   */\n      pop\n      pop\n      pop\n      jump\t// out\n        /* \"#utility.yul\":11918:12225   */\n    tag_179:\n        /* \"#utility.yul\":11986:11987   */\n      0x00\n        /* \"#utility.yul\":11996:12109   */\n    tag_246:\n        /* \"#utility.yul\":12010:12016   */\n      dup4\n        /* \"#utility.yul\":12007:12008   */\n      dup2\n        /* \"#utility.yul\":12004:12017   */\n      lt\n        /* \"#utility.yul\":11996:12109   */\n      iszero\n      tag_248\n      jumpi\n        /* \"#utility.yul\":12095:12096   */\n      dup1\n        /* \"#utility.yul\":12090:12093   */\n      dup3\n        /* \"#utility.yul\":12086:12097   */\n      add\n        /* \"#utility.yul\":12080:12098   */\n      mload\n        /* \"#utility.yul\":12076:12077   */\n      dup2\n        /* \"#utility.yul\":12071:12074   */\n      dup5\n        /* \"#utility.yul\":12067:12078   */\n      add\n        /* \"#utility.yul\":12060:12099   */\n      mstore\n        /* \"#utility.yul\":12032:12034   */\n      0x20\n        /* \"#utility.yul\":12029:12030   */\n      dup2\n        /* \"#utility.yul\":12025:12035   */\n      add\n        /* \"#utility.yul\":12020:12035   */\n      swap1\n      pop\n        /* \"#utility.yul\":11996:12109   */\n      jump(tag_246)\n    tag_248:\n        /* \"#utility.yul\":12127:12133   */\n      dup4\n        /* \"#utility.yul\":12124:12125   */\n      dup2\n        /* \"#utility.yul\":12121:12134   */\n      gt\n        /* \"#utility.yul\":12118:12219   */\n      iszero\n      tag_249\n      jumpi\n        /* \"#utility.yul\":12207:12208   */\n      0x00\n        /* \"#utility.yul\":12198:12204   */\n      dup5\n        /* \"#utility.yul\":12193:12196   */\n      dup5\n        /* \"#utility.yul\":12189:12205   */\n      add\n        /* \"#utility.yul\":12182:12209   */\n      mstore\n        /* \"#utility.yul\":12118:12219   */\n    tag_249:\n        /* \"#utility.yul\":11967:12225   */\n      pop\n        /* \"#utility.yul\":11918:12225   */\n      pop\n      pop\n      pop\n      jump\t// out\n        /* \"#utility.yul\":12231:12551   */\n    tag_53:\n        /* \"#utility.yul\":12275:12281   */\n      0x00\n        /* \"#utility.yul\":12312:12313   */\n      0x02\n        /* \"#utility.yul\":12306:12310   */\n      dup3\n        /* \"#utility.yul\":12302:12314   */\n      div\n        /* \"#utility.yul\":12292:12314   */\n      swap1\n      pop\n        /* \"#utility.yul\":12359:12360   */\n      0x01\n        /* \"#utility.yul\":12353:12357   */\n      dup3\n        /* \"#utility.yul\":12349:12361   */\n      and\n        /* \"#utility.yul\":12380:12398   */\n      dup1\n        /* \"#utility.yul\":12370:12451   */\n      tag_251\n      jumpi\n        /* \"#utility.yul\":12436:12440   */\n      0x7f\n        /* \"#utility.yul\":12428:12434   */\n      dup3\n        /* \"#utility.yul\":12424:12441   */\n      and\n        /* \"#utility.yul\":12414:12441   */\n      swap2\n      pop\n        /* \"#utility.yul\":12370:12451   */\n    tag_251:\n        /* \"#utility.yul\":12498:12500   */\n      0x20\n        /* \"#utility.yul\":12490:12496   */\n      dup3\n        /* \"#utility.yul\":12487:12501   */\n      lt\n        /* \"#utility.yul\":12467:12485   */\n      dup2\n        /* \"#utility.yul\":12464:12502   */\n      eq\n        /* \"#utility.yul\":12461:12545   */\n      iszero\n      tag_252\n      jumpi\n        /* \"#utility.yul\":12517:12535   */\n      tag_253\n      tag_254\n      jump\t// in\n    tag_253:\n        /* \"#utility.yul\":12461:12545   */\n    tag_252:\n        /* \"#utility.yul\":12282:12551   */\n      pop\n        /* \"#utility.yul\":12231:12551   */\n      swap2\n      swap1\n      pop\n      jump\t// out\n        /* \"#utility.yul\":12557:12838   */\n    tag_223:\n        /* \"#utility.yul\":12640:12667   */\n      tag_256\n        /* \"#utility.yul\":12662:12666   */\n      dup3\n        /* \"#utility.yul\":12640:12667   */\n      tag_181\n      jump\t// in\n    tag_256:\n        /* \"#utility.yul\":12632:12638   */\n      dup2\n        /* \"#utility.yul\":12628:12668   */\n      add\n        /* \"#utility.yul\":12770:12776   */\n      dup2\n        /* \"#utility.yul\":12758:12768   */\n      dup2\n        /* \"#utility.yul\":12755:12777   */\n      lt\n        /* \"#utility.yul\":12734:12752   */\n      0xffffffffffffffff\n        /* \"#utility.yul\":12722:12732   */\n      dup3\n        /* \"#utility.yul\":12719:12753   */\n      gt\n        /* \"#utility.yul\":12716:12778   */\n      or\n        /* \"#utility.yul\":12713:12801   */\n      iszero\n      tag_257\n      jumpi\n        /* \"#utility.yul\":12781:12799   */\n      tag_258\n      tag_228\n      jump\t// in\n    tag_258:\n        /* \"#utility.yul\":12713:12801   */\n    tag_257:\n        /* \"#utility.yul\":12821:12831   */\n      dup1\n        /* \"#utility.yul\":12817:12819   */\n      0x40\n        /* \"#utility.yul\":12810:12832   */\n      mstore\n        /* \"#utility.yul\":12600:12838   */\n      pop\n        /* \"#utility.yul\":12557:12838   */\n      pop\n      pop\n      jump\t// out\n        /* \"#utility.yul\":12844:13024   */\n    tag_35:\n        /* \"#utility.yul\":12892:12969   */\n      0x4e487b7100000000000000000000000000000000000000000000000000000000\n        /* \"#utility.yul\":12889:12890   */\n      0x00\n        /* \"#utility.yul\":12882:12970   */\n      mstore\n        /* \"#utility.yul\":12989:12993   */\n      0x21\n        /* \"#utility.yul\":12986:12987   */\n      0x04\n        /* \"#utility.yul\":12979:12994   */\n      mstore\n        /* \"#utility.yul\":13013:13017   */\n      0x24\n        /* \"#utility.yul\":13010:13011   */\n      0x00\n        /* \"#utility.yul\":13003:13018   */\n      revert\n        /* \"#utility.yul\":13030:13210   */\n    tag_254:\n        /* \"#utility.yul\":13078:13155   */\n      0x4e487b7100000000000000000000000000000000000000000000000000000000\n        /* \"#utility.yul\":13075:13076   */\n      0x00\n        /* \"#utility.yul\":13068:13156   */\n      mstore\n        /* \"#utility.yul\":13175:13179   */\n      0x22\n        /* \"#utility.yul\":13172:13173   */\n      0x04\n        /* \"#utility.yul\":13165:13180   */\n      mstore\n        /* \"#utility.yul\":13199:13203   */\n      0x24\n        /* \"#utility.yul\":13196:13197   */\n      0x00\n        /* \"#utility.yul\":13189:13204   */\n      revert\n        /* \"#utility.yul\":13216:13396   */\n    tag_228:\n        /* \"#utility.yul\":13264:13341   */\n      0x4e487b7100000000000000000000000000000000000000000000000000000000\n        /* \"#utility.yul\":13261:13262   */\n      0x00\n        /* \"#utility.yul\":13254:13342   */\n      mstore\n        /* \"#utility.yul\":13361:13365   */\n      0x41\n        /* \"#utility.yul\":13358:13359   */\n      0x04\n        /* \"#utility.yul\":13351:13366   */\n      mstore\n        /* \"#utility.yul\":13385:13389   */\n      0x24\n        /* \"#utility.yul\":13382:13383   */\n      0x00\n        /* \"#utility.yul\":13375:13390   */\n      revert\n        /* \"#utility.yul\":13402:13519   */\n    tag_115:\n        /* \"#utility.yul\":13511:13512   */\n      0x00\n        /* \"#utility.yul\":13508:13509   */\n      dup1\n        /* \"#utility.yul\":13501:13513   */\n      revert\n        /* \"#utility.yul\":13525:13642   */\n    tag_100:\n        /* \"#utility.yul\":13634:13635   */\n      0x00\n        /* \"#utility.yul\":13631:13632   */\n      dup1\n        /* \"#utility.yul\":13624:13636   */\n      revert\n        /* \"#utility.yul\":13648:13765   */\n    tag_131:\n        /* \"#utility.yul\":13757:13758   */\n      0x00\n        /* \"#utility.yul\":13754:13755   */\n      dup1\n        /* \"#utility.yul\":13747:13759   */\n      revert\n        /* \"#utility.yul\":13771:13888   */\n    tag_120:\n        /* \"#utility.yul\":13880:13881   */\n      0x00\n        /* \"#utility.yul\":13877:13878   */\n      dup1\n        /* \"#utility.yul\":13870:13882   */\n      revert\n        /* \"#utility.yul\":13894:13996   */\n    tag_181:\n        /* \"#utility.yul\":13935:13941   */\n      0x00\n        /* \"#utility.yul\":13986:13988   */\n      0x1f\n        /* \"#utility.yul\":13982:13989   */\n      not\n        /* \"#utility.yul\":13977:13979   */\n      0x1f\n        /* \"#utility.yul\":13970:13975   */\n      dup4\n        /* \"#utility.yul\":13966:13980   */\n      add\n        /* \"#utility.yul\":13962:13990   */\n      and\n        /* \"#utility.yul\":13952:13990   */\n      swap1\n      pop\n        /* \"#utility.yul\":13894:13996   */\n      swap2\n      swap1\n      pop\n      jump\t// out\n        /* \"#utility.yul\":14002:14183   */\n    tag_193:\n        /* \"#utility.yul\":14142:14175   */\n      0x596f7520617265206e6f74206120707269766174652070726f76696465722100\n        /* \"#utility.yul\":14138:14139   */\n      0x00\n        /* \"#utility.yul\":14130:14136   */\n      dup3\n        /* \"#utility.yul\":14126:14140   */\n      add\n        /* \"#utility.yul\":14119:14176   */\n      mstore\n        /* \"#utility.yul\":14002:14183   */\n      pop\n      jump\t// out\n        /* \"#utility.yul\":14189:14364   */\n    tag_198:\n        /* \"#utility.yul\":14329:14356   */\n      0x4170706c69636174696f6e20616c72656164792073656e742100000000000000\n        /* \"#utility.yul\":14325:14326   */\n      0x00\n        /* \"#utility.yul\":14317:14323   */\n      dup3\n        /* \"#utility.yul\":14313:14327   */\n      add\n        /* \"#utility.yul\":14306:14357   */\n      mstore\n        /* \"#utility.yul\":14189:14364   */\n      pop\n      jump\t// out\n        /* \"#utility.yul\":14370:14492   */\n    tag_106:\n        /* \"#utility.yul\":14443:14467   */\n      tag_270\n        /* \"#utility.yul\":14461:14466   */\n      dup2\n        /* \"#utility.yul\":14443:14467   */\n      tag_149\n      jump\t// in\n    tag_270:\n        /* \"#utility.yul\":14436:14441   */\n      dup2\n        /* \"#utility.yul\":14433:14468   */\n      eq\n        /* \"#utility.yul\":14423:14486   */\n      tag_271\n      jumpi\n        /* \"#utility.yul\":14482:14483   */\n      0x00\n        /* \"#utility.yul\":14479:14480   */\n      dup1\n        /* \"#utility.yul\":14472:14484   */\n      revert\n        /* \"#utility.yul\":14423:14486   */\n    tag_271:\n        /* \"#utility.yul\":14370:14492   */\n      pop\n      jump\t// out\n        /* \"#utility.yul\":14498:14614   */\n    tag_110:\n        /* \"#utility.yul\":14568:14589   */\n      tag_273\n        /* \"#utility.yul\":14583:14588   */\n      dup2\n        /* \"#utility.yul\":14568:14589   */\n      tag_167\n      jump\t// in\n    tag_273:\n        /* \"#utility.yul\":14561:14566   */\n      dup2\n        /* \"#utility.yul\":14558:14590   */\n      eq\n        /* \"#utility.yul\":14548:14608   */\n      tag_274\n      jumpi\n        /* \"#utility.yul\":14604:14605   */\n      0x00\n        /* \"#utility.yul\":14601:14602   */\n      dup1\n        /* \"#utility.yul\":14594:14606   */\n      revert\n        /* \"#utility.yul\":14548:14608   */\n    tag_274:\n        /* \"#utility.yul\":14498:14614   */\n      pop\n      jump\t// out\n\n    auxdata: 0xa26469706673582212207ae73c8c0b0eb1e2ef81e4b23017e10856530d8abe82e0c7ee884ae0ea803e1464736f6c63430008070033\n}\n",
				"bytecode": {
					"linkReferences": {},
					"object": "608060405234801561001057600080fd5b506110f5806100206000396000f3fe608060405234801561001057600080fd5b50600436106100575760003560e01c80634d0d594f1461005c57806376eada911461007a578063785963c3146100aa5780638e4f8c6b146100c65780639d9e7a4b146100f6575b600080fd5b610064610112565b6040516100719190610d3a565b60405180910390f35b610094600480360381019061008f9190610a12565b610255565b6040516100a19190610db7565b60405180910390f35b6100c460048036038101906100bf9190610ab5565b61052e565b005b6100e060048036038101906100db9190610a6c565b61079b565b6040516100ed9190610d5c565b60405180910390f35b610110600480360381019061010b9190610a3f565b6107cb565b005b60606002600481111561012857610127610f8d565b5b6000803373ffffffffffffffffffffffffffffffffffffffff1673ffffffffffffffffffffffffffffffffffffffff16815260200190815260200160002060000160009054906101000a900460ff16600481111561018957610188610f8d565b5b146101c9576040517f08c379a00000000000000000000000000000000000000000000000000000000081526004016101c090610d77565b60405180910390fd5b600380548060200260200160405190810160405280929190818152602001828054801561024b57602002820191906000526020600020905b8160009054906101000a900473ffffffffffffffffffffffffffffffffffffffff1673ffffffffffffffffffffffffffffffffffffffff1681526020019060010190808311610201575b5050505050905090565b61025d610883565b6002600481111561027157610270610f8d565b5b6000803373ffffffffffffffffffffffffffffffffffffffff1673ffffffffffffffffffffffffffffffffffffffff16815260200190815260200160002060000160009054906101000a900460ff1660048111156102d2576102d1610f8d565b5b14610312576040517f08c379a000000000000000000000000000000000000000000000000000000000815260040161030990610d77565b60405180910390fd5b600260008373ffffffffffffffffffffffffffffffffffffffff1673ffffffffffffffffffffffffffffffffffffffff1681526020019081526020016000206040518060c001604052908160008201805461036c90610f2a565b80601f016020809104026020016040519081016040528092919081815260200182805461039890610f2a565b80156103e55780601f106103ba576101008083540402835291602001916103e5565b820191906000526020600020905b8154815290600101906020018083116103c857829003601f168201915b505050505081526020016001820180546103fe90610f2a565b80601f016020809104026020016040519081016040528092919081815260200182805461042a90610f2a565b80156104775780601f1061044c57610100808354040283529160200191610477565b820191906000526020600020905b81548152906001019060200180831161045a57829003601f168201915b505050505081526020016002820160009054906101000a900473ffffffffffffffffffffffffffffffffffffffff1673ffffffffffffffffffffffffffffffffffffffff1673ffffffffffffffffffffffffffffffffffffffff1681526020016002820160149054906101000a900460ff161515151581526020016002820160159054906101000a900460ff161515151581526020016002820160169054906101000a900460ff1615151515815250509050919050565b60011515600260003373ffffffffffffffffffffffffffffffffffffffff1673ffffffffffffffffffffffffffffffffffffffff16815260200190815260200160002060020160169054906101000a900460ff161515146105c4576040517f08c379a00000000000000000000000000000000000000000000000000000000081526004016105bb90610d97565b60405180910390fd5b6040518060c001604052808481526020018381526020018273ffffffffffffffffffffffffffffffffffffffff16815260200160011515815260200160001515815260200160011515815250600260003373ffffffffffffffffffffffffffffffffffffffff1673ffffffffffffffffffffffffffffffffffffffff168152602001908152602001600020600082015181600001908051906020019061066b9291906108d5565b5060208201518160010190805190602001906106889291906108d5565b5060408201518160020160006101000a81548173ffffffffffffffffffffffffffffffffffffffff021916908373ffffffffffffffffffffffffffffffffffffffff16021790555060608201518160020160146101000a81548160ff02191690831515021790555060808201518160020160156101000a81548160ff02191690831515021790555060a08201518160020160166101000a81548160ff0219169083151502179055509050506003339080600181540180825580915050600190039060005260206000200160009091909190916101000a81548173ffffffffffffffffffffffffffffffffffffffff021916908373ffffffffffffffffffffffffffffffffffffffff160217905550505050565b6000816040516020016107ae9190610d23565b604051602081830303815290604052805190602001209050919050565b600260048111156107df576107de610f8d565b5b6000803373ffffffffffffffffffffffffffffffffffffffff1673ffffffffffffffffffffffffffffffffffffffff16815260200190815260200160002060000160009054906101000a900460ff1660048111156108405761083f610f8d565b5b14610880576040517f08c379a000000000000000000000000000000000000000000000000000000000815260040161087790610d77565b60405180910390fd5b50565b6040518060c001604052806060815260200160608152602001600073ffffffffffffffffffffffffffffffffffffffff1681526020016000151581526020016000151581526020016000151581525090565b8280546108e190610f2a565b90600052602060002090601f016020900481019282610903576000855561094a565b82601f1061091c57805160ff191683800117855561094a565b8280016001018555821561094a579182015b8281111561094957825182559160200191906001019061092e565b5b509050610957919061095b565b5090565b5b8082111561097457600081600090555060010161095c565b5090565b600061098b61098684610dfe565b610dd9565b9050828152602081018484840111156109a7576109a661101f565b5b6109b2848285610ee8565b509392505050565b6000813590506109c981611091565b92915050565b6000813590506109de816110a8565b92915050565b600082601f8301126109f9576109f861101a565b5b8135610a09848260208601610978565b91505092915050565b600060208284031215610a2857610a27611029565b5b6000610a36848285016109ba565b91505092915050565b600060208284031215610a5557610a54611029565b5b6000610a63848285016109cf565b91505092915050565b600060208284031215610a8257610a81611029565b5b600082013567ffffffffffffffff811115610aa057610a9f611024565b5b610aac848285016109e4565b91505092915050565b600080600060608486031215610ace57610acd611029565b5b600084013567ffffffffffffffff811115610aec57610aeb611024565b5b610af8868287016109e4565b935050602084013567ffffffffffffffff811115610b1957610b18611024565b5b610b25868287016109e4565b9250506040610b36868287016109ba565b9150509250925092565b6000610b4c8383610b58565b60208301905092915050565b610b6181610ea0565b82525050565b6000610b7282610e3f565b610b7c8185610e62565b9350610b8783610e2f565b8060005b83811015610bb8578151610b9f8882610b40565b9750610baa83610e55565b925050600181019050610b8b565b5085935050505092915050565b610bce81610eb2565b82525050565b610bdd81610ebe565b82525050565b6000610bee82610e4a565b610bf88185610e73565b9350610c08818560208601610ef7565b610c118161102e565b840191505092915050565b6000610c2782610e4a565b610c318185610e95565b9350610c41818560208601610ef7565b80840191505092915050565b6000610c5a601f83610e84565b9150610c658261103f565b602082019050919050565b6000610c7d601983610e84565b9150610c8882611068565b602082019050919050565b600060c0830160008301518482036000860152610cb08282610be3565b91505060208301518482036020860152610cca8282610be3565b9150506040830151610cdf6040860182610b58565b506060830151610cf26060860182610bc5565b506080830151610d056080860182610bc5565b5060a0830151610d1860a0860182610bc5565b508091505092915050565b6000610d2f8284610c1c565b915081905092915050565b60006020820190508181036000830152610d548184610b67565b905092915050565b6000602082019050610d716000830184610bd4565b92915050565b60006020820190508181036000830152610d9081610c4d565b9050919050565b60006020820190508181036000830152610db081610c70565b9050919050565b60006020820190508181036000830152610dd18184610c93565b905092915050565b6000610de3610df4565b9050610def8282610f5c565b919050565b6000604051905090565b600067ffffffffffffffff821115610e1957610e18610feb565b5b610e228261102e565b9050602081019050919050565b6000819050602082019050919050565b600081519050919050565b600081519050919050565b6000602082019050919050565b600082825260208201905092915050565b600082825260208201905092915050565b600082825260208201905092915050565b600081905092915050565b6000610eab82610ec8565b9050919050565b60008115159050919050565b6000819050919050565b600073ffffffffffffffffffffffffffffffffffffffff82169050919050565b82818337600083830152505050565b60005b83811015610f15578082015181840152602081019050610efa565b83811115610f24576000848401525b50505050565b60006002820490506001821680610f4257607f821691505b60208210811415610f5657610f55610fbc565b5b50919050565b610f658261102e565b810181811067ffffffffffffffff82111715610f8457610f83610feb565b5b80604052505050565b7f4e487b7100000000000000000000000000000000000000000000000000000000600052602160045260246000fd5b7f4e487b7100000000000000000000000000000000000000000000000000000000600052602260045260246000fd5b7f4e487b7100000000000000000000000000000000000000000000000000000000600052604160045260246000fd5b600080fd5b600080fd5b600080fd5b600080fd5b6000601f19601f8301169050919050565b7f596f7520617265206e6f74206120707269766174652070726f76696465722100600082015250565b7f4170706c69636174696f6e20616c72656164792073656e742100000000000000600082015250565b61109a81610ea0565b81146110a557600080fd5b50565b6110b181610eb2565b81146110bc57600080fd5b5056fea26469706673582212207ae73c8c0b0eb1e2ef81e4b23017e10856530d8abe82e0c7ee884ae0ea803e1464736f6c63430008070033",
					"opcodes": "PUSH1 0x80 PUSH1 0x40 MSTORE CALLVALUE DUP1 ISZERO PUSH2 0x10 JUMPI PUSH1 0x0 DUP1 REVERT JUMPDEST POP PUSH2 0x10F5 DUP1 PUSH2 0x20 PUSH1 0x0 CODECOPY PUSH1 0x0 RETURN INVALID PUSH1 0x80 PUSH1 0x40 MSTORE CALLVALUE DUP1 ISZERO PUSH2 0x10 JUMPI PUSH1 0x0 DUP1 REVERT JUMPDEST POP PUSH1 0x4 CALLDATASIZE LT PUSH2 0x57 JUMPI PUSH1 0x0 CALLDATALOAD PUSH1 0xE0 SHR DUP1 PUSH4 0x4D0D594F EQ PUSH2 0x5C JUMPI DUP1 PUSH4 0x76EADA91 EQ PUSH2 0x7A JUMPI DUP1 PUSH4 0x785963C3 EQ PUSH2 0xAA JUMPI DUP1 PUSH4 0x8E4F8C6B EQ PUSH2 0xC6 JUMPI DUP1 PUSH4 0x9D9E7A4B EQ PUSH2 0xF6 JUMPI JUMPDEST PUSH1 0x0 DUP1 REVERT JUMPDEST PUSH2 0x64 PUSH2 0x112 JUMP JUMPDEST PUSH1 0x40 MLOAD PUSH2 0x71 SWAP2 SWAP1 PUSH2 0xD3A JUMP JUMPDEST PUSH1 0x40 MLOAD DUP1 SWAP2 SUB SWAP1 RETURN JUMPDEST PUSH2 0x94 PUSH1 0x4 DUP1 CALLDATASIZE SUB DUP2 ADD SWAP1 PUSH2 0x8F SWAP2 SWAP1 PUSH2 0xA12 JUMP JUMPDEST PUSH2 0x255 JUMP JUMPDEST PUSH1 0x40 MLOAD PUSH2 0xA1 SWAP2 SWAP1 PUSH2 0xDB7 JUMP JUMPDEST PUSH1 0x40 MLOAD DUP1 SWAP2 SUB SWAP1 RETURN JUMPDEST PUSH2 0xC4 PUSH1 0x4 DUP1 CALLDATASIZE SUB DUP2 ADD SWAP1 PUSH2 0xBF SWAP2 SWAP1 PUSH2 0xAB5 JUMP JUMPDEST PUSH2 0x52E JUMP JUMPDEST STOP JUMPDEST PUSH2 0xE0 PUSH1 0x4 DUP1 CALLDATASIZE SUB DUP2 ADD SWAP1 PUSH2 0xDB SWAP2 SWAP1 PUSH2 0xA6C JUMP JUMPDEST PUSH2 0x79B JUMP JUMPDEST PUSH1 0x40 MLOAD PUSH2 0xED SWAP2 SWAP1 PUSH2 0xD5C JUMP JUMPDEST PUSH1 0x40 MLOAD DUP1 SWAP2 SUB SWAP1 RETURN JUMPDEST PUSH2 0x110 PUSH1 0x4 DUP1 CALLDATASIZE SUB DUP2 ADD SWAP1 PUSH2 0x10B SWAP2 SWAP1 PUSH2 0xA3F JUMP JUMPDEST PUSH2 0x7CB JUMP JUMPDEST STOP JUMPDEST PUSH1 0x60 PUSH1 0x2 PUSH1 0x4 DUP2 GT ISZERO PUSH2 0x128 JUMPI PUSH2 0x127 PUSH2 0xF8D JUMP JUMPDEST JUMPDEST PUSH1 0x0 DUP1 CALLER PUSH20 0xFFFFFFFFFFFFFFFFFFFFFFFFFFFFFFFFFFFFFFFF AND PUSH20 0xFFFFFFFFFFFFFFFFFFFFFFFFFFFFFFFFFFFFFFFF AND DUP2 MSTORE PUSH1 0x20 ADD SWAP1 DUP2 MSTORE PUSH1 0x20 ADD PUSH1 0x0 KECCAK256 PUSH1 0x0 ADD PUSH1 0x0 SWAP1 SLOAD SWAP1 PUSH2 0x100 EXP SWAP1 DIV PUSH1 0xFF AND PUSH1 0x4 DUP2 GT ISZERO PUSH2 0x189 JUMPI PUSH2 0x188 PUSH2 0xF8D JUMP JUMPDEST JUMPDEST EQ PUSH2 0x1C9 JUMPI PUSH1 0x40 MLOAD PUSH32 0x8C379A000000000000000000000000000000000000000000000000000000000 DUP2 MSTORE PUSH1 0x4 ADD PUSH2 0x1C0 SWAP1 PUSH2 0xD77 JUMP JUMPDEST PUSH1 0x40 MLOAD DUP1 SWAP2 SUB SWAP1 REVERT JUMPDEST PUSH1 0x3 DUP1 SLOAD DUP1 PUSH1 0x20 MUL PUSH1 0x20 ADD PUSH1 0x40 MLOAD SWAP1 DUP2 ADD PUSH1 0x40 MSTORE DUP1 SWAP3 SWAP2 SWAP1 DUP2 DUP2 MSTORE PUSH1 0x20 ADD DUP3 DUP1 SLOAD DUP1 ISZERO PUSH2 0x24B JUMPI PUSH1 0x20 MUL DUP3 ADD SWAP2 SWAP1 PUSH1 0x0 MSTORE PUSH1 0x20 PUSH1 0x0 KECCAK256 SWAP1 JUMPDEST DUP2 PUSH1 0x0 SWAP1 SLOAD SWAP1 PUSH2 0x100 EXP SWAP1 DIV PUSH20 0xFFFFFFFFFFFFFFFFFFFFFFFFFFFFFFFFFFFFFFFF AND PUSH20 0xFFFFFFFFFFFFFFFFFFFFFFFFFFFFFFFFFFFFFFFF AND DUP2 MSTORE PUSH1 0x20 ADD SWAP1 PUSH1 0x1 ADD SWAP1 DUP1 DUP4 GT PUSH2 0x201 JUMPI JUMPDEST POP POP POP POP POP SWAP1 POP SWAP1 JUMP JUMPDEST PUSH2 0x25D PUSH2 0x883 JUMP JUMPDEST PUSH1 0x2 PUSH1 0x4 DUP2 GT ISZERO PUSH2 0x271 JUMPI PUSH2 0x270 PUSH2 0xF8D JUMP JUMPDEST JUMPDEST PUSH1 0x0 DUP1 CALLER PUSH20 0xFFFFFFFFFFFFFFFFFFFFFFFFFFFFFFFFFFFFFFFF AND PUSH20 0xFFFFFFFFFFFFFFFFFFFFFFFFFFFFFFFFFFFFFFFF AND DUP2 MSTORE PUSH1 0x20 ADD SWAP1 DUP2 MSTORE PUSH1 0x20 ADD PUSH1 0x0 KECCAK256 PUSH1 0x0 ADD PUSH1 0x0 SWAP1 SLOAD SWAP1 PUSH2 0x100 EXP SWAP1 DIV PUSH1 0xFF AND PUSH1 0x4 DUP2 GT ISZERO PUSH2 0x2D2 JUMPI PUSH2 0x2D1 PUSH2 0xF8D JUMP JUMPDEST JUMPDEST EQ PUSH2 0x312 JUMPI PUSH1 0x40 MLOAD PUSH32 0x8C379A000000000000000000000000000000000000000000000000000000000 DUP2 MSTORE PUSH1 0x4 ADD PUSH2 0x309 SWAP1 PUSH2 0xD77 JUMP JUMPDEST PUSH1 0x40 MLOAD DUP1 SWAP2 SUB SWAP1 REVERT JUMPDEST PUSH1 0x2 PUSH1 0x0 DUP4 PUSH20 0xFFFFFFFFFFFFFFFFFFFFFFFFFFFFFFFFFFFFFFFF AND PUSH20 0xFFFFFFFFFFFFFFFFFFFFFFFFFFFFFFFFFFFFFFFF AND DUP2 MSTORE PUSH1 0x20 ADD SWAP1 DUP2 MSTORE PUSH1 0x20 ADD PUSH1 0x0 KECCAK256 PUSH1 0x40 MLOAD DUP1 PUSH1 0xC0 ADD PUSH1 0x40 MSTORE SWAP1 DUP2 PUSH1 0x0 DUP3 ADD DUP1 SLOAD PUSH2 0x36C SWAP1 PUSH2 0xF2A JUMP JUMPDEST DUP1 PUSH1 0x1F ADD PUSH1 0x20 DUP1 SWAP2 DIV MUL PUSH1 0x20 ADD PUSH1 0x40 MLOAD SWAP1 DUP2 ADD PUSH1 0x40 MSTORE DUP1 SWAP3 SWAP2 SWAP1 DUP2 DUP2 MSTORE PUSH1 0x20 ADD DUP3 DUP1 SLOAD PUSH2 0x398 SWAP1 PUSH2 0xF2A JUMP JUMPDEST DUP1 ISZERO PUSH2 0x3E5 JUMPI DUP1 PUSH1 0x1F LT PUSH2 0x3BA JUMPI PUSH2 0x100 DUP1 DUP4 SLOAD DIV MUL DUP4 MSTORE SWAP2 PUSH1 0x20 ADD SWAP2 PUSH2 0x3E5 JUMP JUMPDEST DUP3 ADD SWAP2 SWAP1 PUSH1 0x0 MSTORE PUSH1 0x20 PUSH1 0x0 KECCAK256 SWAP1 JUMPDEST DUP2 SLOAD DUP2 MSTORE SWAP1 PUSH1 0x1 ADD SWAP1 PUSH1 0x20 ADD DUP1 DUP4 GT PUSH2 0x3C8 JUMPI DUP3 SWAP1 SUB PUSH1 0x1F AND DUP3 ADD SWAP2 JUMPDEST POP POP POP POP POP DUP2 MSTORE PUSH1 0x20 ADD PUSH1 0x1 DUP3 ADD DUP1 SLOAD PUSH2 0x3FE SWAP1 PUSH2 0xF2A JUMP JUMPDEST DUP1 PUSH1 0x1F ADD PUSH1 0x20 DUP1 SWAP2 DIV MUL PUSH1 0x20 ADD PUSH1 0x40 MLOAD SWAP1 DUP2 ADD PUSH1 0x40 MSTORE DUP1 SWAP3 SWAP2 SWAP1 DUP2 DUP2 MSTORE PUSH1 0x20 ADD DUP3 DUP1 SLOAD PUSH2 0x42A SWAP1 PUSH2 0xF2A JUMP JUMPDEST DUP1 ISZERO PUSH2 0x477 JUMPI DUP1 PUSH1 0x1F LT PUSH2 0x44C JUMPI PUSH2 0x100 DUP1 DUP4 SLOAD DIV MUL DUP4 MSTORE SWAP2 PUSH1 0x20 ADD SWAP2 PUSH2 0x477 JUMP JUMPDEST DUP3 ADD SWAP2 SWAP1 PUSH1 0x0 MSTORE PUSH1 0x20 PUSH1 0x0 KECCAK256 SWAP1 JUMPDEST DUP2 SLOAD DUP2 MSTORE SWAP1 PUSH1 0x1 ADD SWAP1 PUSH1 0x20 ADD DUP1 DUP4 GT PUSH2 0x45A JUMPI DUP3 SWAP1 SUB PUSH1 0x1F AND DUP3 ADD SWAP2 JUMPDEST POP POP POP POP POP DUP2 MSTORE PUSH1 0x20 ADD PUSH1 0x2 DUP3 ADD PUSH1 0x0 SWAP1 SLOAD SWAP1 PUSH2 0x100 EXP SWAP1 DIV PUSH20 0xFFFFFFFFFFFFFFFFFFFFFFFFFFFFFFFFFFFFFFFF AND PUSH20 0xFFFFFFFFFFFFFFFFFFFFFFFFFFFFFFFFFFFFFFFF AND PUSH20 0xFFFFFFFFFFFFFFFFFFFFFFFFFFFFFFFFFFFFFFFF AND DUP2 MSTORE PUSH1 0x20 ADD PUSH1 0x2 DUP3 ADD PUSH1 0x14 SWAP1 SLOAD SWAP1 PUSH2 0x100 EXP SWAP1 DIV PUSH1 0xFF AND ISZERO ISZERO ISZERO ISZERO DUP2 MSTORE PUSH1 0x20 ADD PUSH1 0x2 DUP3 ADD PUSH1 0x15 SWAP1 SLOAD SWAP1 PUSH2 0x100 EXP SWAP1 DIV PUSH1 0xFF AND ISZERO ISZERO ISZERO ISZERO DUP2 MSTORE PUSH1 0x20 ADD PUSH1 0x2 DUP3 ADD PUSH1 0x16 SWAP1 SLOAD SWAP1 PUSH2 0x100 EXP SWAP1 DIV PUSH1 0xFF AND ISZERO ISZERO ISZERO ISZERO DUP2 MSTORE POP POP SWAP1 POP SWAP2 SWAP1 POP JUMP JUMPDEST PUSH1 0x1 ISZERO ISZERO PUSH1 0x2 PUSH1 0x0 CALLER PUSH20 0xFFFFFFFFFFFFFFFFFFFFFFFFFFFFFFFFFFFFFFFF AND PUSH20 0xFFFFFFFFFFFFFFFFFFFFFFFFFFFFFFFFFFFFFFFF AND DUP2 MSTORE PUSH1 0x20 ADD SWAP1 DUP2 MSTORE PUSH1 0x20 ADD PUSH1 0x0 KECCAK256 PUSH1 0x2 ADD PUSH1 0x16 SWAP1 SLOAD SWAP1 PUSH2 0x100 EXP SWAP1 DIV PUSH1 0xFF AND ISZERO ISZERO EQ PUSH2 0x5C4 JUMPI PUSH1 0x40 MLOAD PUSH32 0x8C379A000000000000000000000000000000000000000000000000000000000 DUP2 MSTORE PUSH1 0x4 ADD PUSH2 0x5BB SWAP1 PUSH2 0xD97 JUMP JUMPDEST PUSH1 0x40 MLOAD DUP1 SWAP2 SUB SWAP1 REVERT JUMPDEST PUSH1 0x40 MLOAD DUP1 PUSH1 0xC0 ADD PUSH1 0x40 MSTORE DUP1 DUP5 DUP2 MSTORE PUSH1 0x20 ADD DUP4 DUP2 MSTORE PUSH1 0x20 ADD DUP3 PUSH20 0xFFFFFFFFFFFFFFFFFFFFFFFFFFFFFFFFFFFFFFFF AND DUP2 MSTORE PUSH1 0x20 ADD PUSH1 0x1 ISZERO ISZERO DUP2 MSTORE PUSH1 0x20 ADD PUSH1 0x0 ISZERO ISZERO DUP2 MSTORE PUSH1 0x20 ADD PUSH1 0x1 ISZERO ISZERO DUP2 MSTORE POP PUSH1 0x2 PUSH1 0x0 CALLER PUSH20 0xFFFFFFFFFFFFFFFFFFFFFFFFFFFFFFFFFFFFFFFF AND PUSH20 0xFFFFFFFFFFFFFFFFFFFFFFFFFFFFFFFFFFFFFFFF AND DUP2 MSTORE PUSH1 0x20 ADD SWAP1 DUP2 MSTORE PUSH1 0x20 ADD PUSH1 0x0 KECCAK256 PUSH1 0x0 DUP3 ADD MLOAD DUP2 PUSH1 0x0 ADD SWAP1 DUP1 MLOAD SWAP1 PUSH1 0x20 ADD SWAP1 PUSH2 0x66B SWAP3 SWAP2 SWAP1 PUSH2 0x8D5 JUMP JUMPDEST POP PUSH1 0x20 DUP3 ADD MLOAD DUP2 PUSH1 0x1 ADD SWAP1 DUP1 MLOAD SWAP1 PUSH1 0x20 ADD SWAP1 PUSH2 0x688 SWAP3 SWAP2 SWAP1 PUSH2 0x8D5 JUMP JUMPDEST POP PUSH1 0x40 DUP3 ADD MLOAD DUP2 PUSH1 0x2 ADD PUSH1 0x0 PUSH2 0x100 EXP DUP2 SLOAD DUP2 PUSH20 0xFFFFFFFFFFFFFFFFFFFFFFFFFFFFFFFFFFFFFFFF MUL NOT AND SWAP1 DUP4 PUSH20 0xFFFFFFFFFFFFFFFFFFFFFFFFFFFFFFFFFFFFFFFF AND MUL OR SWAP1 SSTORE POP PUSH1 0x60 DUP3 ADD MLOAD DUP2 PUSH1 0x2 ADD PUSH1 0x14 PUSH2 0x100 EXP DUP2 SLOAD DUP2 PUSH1 0xFF MUL NOT AND SWAP1 DUP4 ISZERO ISZERO MUL OR SWAP1 SSTORE POP PUSH1 0x80 DUP3 ADD MLOAD DUP2 PUSH1 0x2 ADD PUSH1 0x15 PUSH2 0x100 EXP DUP2 SLOAD DUP2 PUSH1 0xFF MUL NOT AND SWAP1 DUP4 ISZERO ISZERO MUL OR SWAP1 SSTORE POP PUSH1 0xA0 DUP3 ADD MLOAD DUP2 PUSH1 0x2 ADD PUSH1 0x16 PUSH2 0x100 EXP DUP2 SLOAD DUP2 PUSH1 0xFF MUL NOT AND SWAP1 DUP4 ISZERO ISZERO MUL OR SWAP1 SSTORE POP SWAP1 POP POP PUSH1 0x3 CALLER SWAP1 DUP1 PUSH1 0x1 DUP2 SLOAD ADD DUP1 DUP3 SSTORE DUP1 SWAP2 POP POP PUSH1 0x1 SWAP1 SUB SWAP1 PUSH1 0x0 MSTORE PUSH1 0x20 PUSH1 0x0 KECCAK256 ADD PUSH1 0x0 SWAP1 SWAP2 SWAP1 SWAP2 SWAP1 SWAP2 PUSH2 0x100 EXP DUP2 SLOAD DUP2 PUSH20 0xFFFFFFFFFFFFFFFFFFFFFFFFFFFFFFFFFFFFFFFF MUL NOT AND SWAP1 DUP4 PUSH20 0xFFFFFFFFFFFFFFFFFFFFFFFFFFFFFFFFFFFFFFFF AND MUL OR SWAP1 SSTORE POP POP POP POP JUMP JUMPDEST PUSH1 0x0 DUP2 PUSH1 0x40 MLOAD PUSH1 0x20 ADD PUSH2 0x7AE SWAP2 SWAP1 PUSH2 0xD23 JUMP JUMPDEST PUSH1 0x40 MLOAD PUSH1 0x20 DUP2 DUP4 SUB SUB DUP2 MSTORE SWAP1 PUSH1 0x40 MSTORE DUP1 MLOAD SWAP1 PUSH1 0x20 ADD KECCAK256 SWAP1 POP SWAP2 SWAP1 POP JUMP JUMPDEST PUSH1 0x2 PUSH1 0x4 DUP2 GT ISZERO PUSH2 0x7DF JUMPI PUSH2 0x7DE PUSH2 0xF8D JUMP JUMPDEST JUMPDEST PUSH1 0x0 DUP1 CALLER PUSH20 0xFFFFFFFFFFFFFFFFFFFFFFFFFFFFFFFFFFFFFFFF AND PUSH20 0xFFFFFFFFFFFFFFFFFFFFFFFFFFFFFFFFFFFFFFFF AND DUP2 MSTORE PUSH1 0x20 ADD SWAP1 DUP2 MSTORE PUSH1 0x20 ADD PUSH1 0x0 KECCAK256 PUSH1 0x0 ADD PUSH1 0x0 SWAP1 SLOAD SWAP1 PUSH2 0x100 EXP SWAP1 DIV PUSH1 0xFF AND PUSH1 0x4 DUP2 GT ISZERO PUSH2 0x840 JUMPI PUSH2 0x83F PUSH2 0xF8D JUMP JUMPDEST JUMPDEST EQ PUSH2 0x880 JUMPI PUSH1 0x40 MLOAD PUSH32 0x8C379A000000000000000000000000000000000000000000000000000000000 DUP2 MSTORE PUSH1 0x4 ADD PUSH2 0x877 SWAP1 PUSH2 0xD77 JUMP JUMPDEST PUSH1 0x40 MLOAD DUP1 SWAP2 SUB SWAP1 REVERT JUMPDEST POP JUMP JUMPDEST PUSH1 0x40 MLOAD DUP1 PUSH1 0xC0 ADD PUSH1 0x40 MSTORE DUP1 PUSH1 0x60 DUP2 MSTORE PUSH1 0x20 ADD PUSH1 0x60 DUP2 MSTORE PUSH1 0x20 ADD PUSH1 0x0 PUSH20 0xFFFFFFFFFFFFFFFFFFFFFFFFFFFFFFFFFFFFFFFF AND DUP2 MSTORE PUSH1 0x20 ADD PUSH1 0x0 ISZERO ISZERO DUP2 MSTORE PUSH1 0x20 ADD PUSH1 0x0 ISZERO ISZERO DUP2 MSTORE PUSH1 0x20 ADD PUSH1 0x0 ISZERO ISZERO DUP2 MSTORE POP SWAP1 JUMP JUMPDEST DUP3 DUP1 SLOAD PUSH2 0x8E1 SWAP1 PUSH2 0xF2A JUMP JUMPDEST SWAP1 PUSH1 0x0 MSTORE PUSH1 0x20 PUSH1 0x0 KECCAK256 SWAP1 PUSH1 0x1F ADD PUSH1 0x20 SWAP1 DIV DUP2 ADD SWAP3 DUP3 PUSH2 0x903 JUMPI PUSH1 0x0 DUP6 SSTORE PUSH2 0x94A JUMP JUMPDEST DUP3 PUSH1 0x1F LT PUSH2 0x91C JUMPI DUP1 MLOAD PUSH1 0xFF NOT AND DUP4 DUP1 ADD OR DUP6 SSTORE PUSH2 0x94A JUMP JUMPDEST DUP3 DUP1 ADD PUSH1 0x1 ADD DUP6 SSTORE DUP3 ISZERO PUSH2 0x94A JUMPI SWAP2 DUP3 ADD JUMPDEST DUP3 DUP2 GT ISZERO PUSH2 0x949 JUMPI DUP3 MLOAD DUP3 SSTORE SWAP2 PUSH1 0x20 ADD SWAP2 SWAP1 PUSH1 0x1 ADD SWAP1 PUSH2 0x92E JUMP JUMPDEST JUMPDEST POP SWAP1 POP PUSH2 0x957 SWAP2 SWAP1 PUSH2 0x95B JUMP JUMPDEST POP SWAP1 JUMP JUMPDEST JUMPDEST DUP1 DUP3 GT ISZERO PUSH2 0x974 JUMPI PUSH1 0x0 DUP2 PUSH1 0x0 SWAP1 SSTORE POP PUSH1 0x1 ADD PUSH2 0x95C JUMP JUMPDEST POP SWAP1 JUMP JUMPDEST PUSH1 0x0 PUSH2 0x98B PUSH2 0x986 DUP5 PUSH2 0xDFE JUMP JUMPDEST PUSH2 0xDD9 JUMP JUMPDEST SWAP1 POP DUP3 DUP2 MSTORE PUSH1 0x20 DUP2 ADD DUP5 DUP5 DUP5 ADD GT ISZERO PUSH2 0x9A7 JUMPI PUSH2 0x9A6 PUSH2 0x101F JUMP JUMPDEST JUMPDEST PUSH2 0x9B2 DUP5 DUP3 DUP6 PUSH2 0xEE8 JUMP JUMPDEST POP SWAP4 SWAP3 POP POP POP JUMP JUMPDEST PUSH1 0x0 DUP2 CALLDATALOAD SWAP1 POP PUSH2 0x9C9 DUP2 PUSH2 0x1091 JUMP JUMPDEST SWAP3 SWAP2 POP POP JUMP JUMPDEST PUSH1 0x0 DUP2 CALLDATALOAD SWAP1 POP PUSH2 0x9DE DUP2 PUSH2 0x10A8 JUMP JUMPDEST SWAP3 SWAP2 POP POP JUMP JUMPDEST PUSH1 0x0 DUP3 PUSH1 0x1F DUP4 ADD SLT PUSH2 0x9F9 JUMPI PUSH2 0x9F8 PUSH2 0x101A JUMP JUMPDEST JUMPDEST DUP2 CALLDATALOAD PUSH2 0xA09 DUP5 DUP3 PUSH1 0x20 DUP7 ADD PUSH2 0x978 JUMP JUMPDEST SWAP2 POP POP SWAP3 SWAP2 POP POP JUMP JUMPDEST PUSH1 0x0 PUSH1 0x20 DUP3 DUP5 SUB SLT ISZERO PUSH2 0xA28 JUMPI PUSH2 0xA27 PUSH2 0x1029 JUMP JUMPDEST JUMPDEST PUSH1 0x0 PUSH2 0xA36 DUP5 DUP3 DUP6 ADD PUSH2 0x9BA JUMP JUMPDEST SWAP2 POP POP SWAP3 SWAP2 POP POP JUMP JUMPDEST PUSH1 0x0 PUSH1 0x20 DUP3 DUP5 SUB SLT ISZERO PUSH2 0xA55 JUMPI PUSH2 0xA54 PUSH2 0x1029 JUMP JUMPDEST JUMPDEST PUSH1 0x0 PUSH2 0xA63 DUP5 DUP3 DUP6 ADD PUSH2 0x9CF JUMP JUMPDEST SWAP2 POP POP SWAP3 SWAP2 POP POP JUMP JUMPDEST PUSH1 0x0 PUSH1 0x20 DUP3 DUP5 SUB SLT ISZERO PUSH2 0xA82 JUMPI PUSH2 0xA81 PUSH2 0x1029 JUMP JUMPDEST JUMPDEST PUSH1 0x0 DUP3 ADD CALLDATALOAD PUSH8 0xFFFFFFFFFFFFFFFF DUP2 GT ISZERO PUSH2 0xAA0 JUMPI PUSH2 0xA9F PUSH2 0x1024 JUMP JUMPDEST JUMPDEST PUSH2 0xAAC DUP5 DUP3 DUP6 ADD PUSH2 0x9E4 JUMP JUMPDEST SWAP2 POP POP SWAP3 SWAP2 POP POP JUMP JUMPDEST PUSH1 0x0 DUP1 PUSH1 0x0 PUSH1 0x60 DUP5 DUP7 SUB SLT ISZERO PUSH2 0xACE JUMPI PUSH2 0xACD PUSH2 0x1029 JUMP JUMPDEST JUMPDEST PUSH1 0x0 DUP5 ADD CALLDATALOAD PUSH8 0xFFFFFFFFFFFFFFFF DUP2 GT ISZERO PUSH2 0xAEC JUMPI PUSH2 0xAEB PUSH2 0x1024 JUMP JUMPDEST JUMPDEST PUSH2 0xAF8 DUP7 DUP3 DUP8 ADD PUSH2 0x9E4 JUMP JUMPDEST SWAP4 POP POP PUSH1 0x20 DUP5 ADD CALLDATALOAD PUSH8 0xFFFFFFFFFFFFFFFF DUP2 GT ISZERO PUSH2 0xB19 JUMPI PUSH2 0xB18 PUSH2 0x1024 JUMP JUMPDEST JUMPDEST PUSH2 0xB25 DUP7 DUP3 DUP8 ADD PUSH2 0x9E4 JUMP JUMPDEST SWAP3 POP POP PUSH1 0x40 PUSH2 0xB36 DUP7 DUP3 DUP8 ADD PUSH2 0x9BA JUMP JUMPDEST SWAP2 POP POP SWAP3 POP SWAP3 POP SWAP3 JUMP JUMPDEST PUSH1 0x0 PUSH2 0xB4C DUP4 DUP4 PUSH2 0xB58 JUMP JUMPDEST PUSH1 0x20 DUP4 ADD SWAP1 POP SWAP3 SWAP2 POP POP JUMP JUMPDEST PUSH2 0xB61 DUP2 PUSH2 0xEA0 JUMP JUMPDEST DUP3 MSTORE POP POP JUMP JUMPDEST PUSH1 0x0 PUSH2 0xB72 DUP3 PUSH2 0xE3F JUMP JUMPDEST PUSH2 0xB7C DUP2 DUP6 PUSH2 0xE62 JUMP JUMPDEST SWAP4 POP PUSH2 0xB87 DUP4 PUSH2 0xE2F JUMP JUMPDEST DUP1 PUSH1 0x0 JUMPDEST DUP4 DUP2 LT ISZERO PUSH2 0xBB8 JUMPI DUP2 MLOAD PUSH2 0xB9F DUP9 DUP3 PUSH2 0xB40 JUMP JUMPDEST SWAP8 POP PUSH2 0xBAA DUP4 PUSH2 0xE55 JUMP JUMPDEST SWAP3 POP POP PUSH1 0x1 DUP2 ADD SWAP1 POP PUSH2 0xB8B JUMP JUMPDEST POP DUP6 SWAP4 POP POP POP POP SWAP3 SWAP2 POP POP JUMP JUMPDEST PUSH2 0xBCE DUP2 PUSH2 0xEB2 JUMP JUMPDEST DUP3 MSTORE POP POP JUMP JUMPDEST PUSH2 0xBDD DUP2 PUSH2 0xEBE JUMP JUMPDEST DUP3 MSTORE POP POP JUMP JUMPDEST PUSH1 0x0 PUSH2 0xBEE DUP3 PUSH2 0xE4A JUMP JUMPDEST PUSH2 0xBF8 DUP2 DUP6 PUSH2 0xE73 JUMP JUMPDEST SWAP4 POP PUSH2 0xC08 DUP2 DUP6 PUSH1 0x20 DUP7 ADD PUSH2 0xEF7 JUMP JUMPDEST PUSH2 0xC11 DUP2 PUSH2 0x102E JUMP JUMPDEST DUP5 ADD SWAP2 POP POP SWAP3 SWAP2 POP POP JUMP JUMPDEST PUSH1 0x0 PUSH2 0xC27 DUP3 PUSH2 0xE4A JUMP JUMPDEST PUSH2 0xC31 DUP2 DUP6 PUSH2 0xE95 JUMP JUMPDEST SWAP4 POP PUSH2 0xC41 DUP2 DUP6 PUSH1 0x20 DUP7 ADD PUSH2 0xEF7 JUMP JUMPDEST DUP1 DUP5 ADD SWAP2 POP POP SWAP3 SWAP2 POP POP JUMP JUMPDEST PUSH1 0x0 PUSH2 0xC5A PUSH1 0x1F DUP4 PUSH2 0xE84 JUMP JUMPDEST SWAP2 POP PUSH2 0xC65 DUP3 PUSH2 0x103F JUMP JUMPDEST PUSH1 0x20 DUP3 ADD SWAP1 POP SWAP2 SWAP1 POP JUMP JUMPDEST PUSH1 0x0 PUSH2 0xC7D PUSH1 0x19 DUP4 PUSH2 0xE84 JUMP JUMPDEST SWAP2 POP PUSH2 0xC88 DUP3 PUSH2 0x1068 JUMP JUMPDEST PUSH1 0x20 DUP3 ADD SWAP1 POP SWAP2 SWAP1 POP JUMP JUMPDEST PUSH1 0x0 PUSH1 0xC0 DUP4 ADD PUSH1 0x0 DUP4 ADD MLOAD DUP5 DUP3 SUB PUSH1 0x0 DUP7 ADD MSTORE PUSH2 0xCB0 DUP3 DUP3 PUSH2 0xBE3 JUMP JUMPDEST SWAP2 POP POP PUSH1 0x20 DUP4 ADD MLOAD DUP5 DUP3 SUB PUSH1 0x20 DUP7 ADD MSTORE PUSH2 0xCCA DUP3 DUP3 PUSH2 0xBE3 JUMP JUMPDEST SWAP2 POP POP PUSH1 0x40 DUP4 ADD MLOAD PUSH2 0xCDF PUSH1 0x40 DUP7 ADD DUP3 PUSH2 0xB58 JUMP JUMPDEST POP PUSH1 0x60 DUP4 ADD MLOAD PUSH2 0xCF2 PUSH1 0x60 DUP7 ADD DUP3 PUSH2 0xBC5 JUMP JUMPDEST POP PUSH1 0x80 DUP4 ADD MLOAD PUSH2 0xD05 PUSH1 0x80 DUP7 ADD DUP3 PUSH2 0xBC5 JUMP JUMPDEST POP PUSH1 0xA0 DUP4 ADD MLOAD PUSH2 0xD18 PUSH1 0xA0 DUP7 ADD DUP3 PUSH2 0xBC5 JUMP JUMPDEST POP DUP1 SWAP2 POP POP SWAP3 SWAP2 POP POP JUMP JUMPDEST PUSH1 0x0 PUSH2 0xD2F DUP3 DUP5 PUSH2 0xC1C JUMP JUMPDEST SWAP2 POP DUP2 SWAP1 POP SWAP3 SWAP2 POP POP JUMP JUMPDEST PUSH1 0x0 PUSH1 0x20 DUP3 ADD SWAP1 POP DUP2 DUP2 SUB PUSH1 0x0 DUP4 ADD MSTORE PUSH2 0xD54 DUP2 DUP5 PUSH2 0xB67 JUMP JUMPDEST SWAP1 POP SWAP3 SWAP2 POP POP JUMP JUMPDEST PUSH1 0x0 PUSH1 0x20 DUP3 ADD SWAP1 POP PUSH2 0xD71 PUSH1 0x0 DUP4 ADD DUP5 PUSH2 0xBD4 JUMP JUMPDEST SWAP3 SWAP2 POP POP JUMP JUMPDEST PUSH1 0x0 PUSH1 0x20 DUP3 ADD SWAP1 POP DUP2 DUP2 SUB PUSH1 0x0 DUP4 ADD MSTORE PUSH2 0xD90 DUP2 PUSH2 0xC4D JUMP JUMPDEST SWAP1 POP SWAP2 SWAP1 POP JUMP JUMPDEST PUSH1 0x0 PUSH1 0x20 DUP3 ADD SWAP1 POP DUP2 DUP2 SUB PUSH1 0x0 DUP4 ADD MSTORE PUSH2 0xDB0 DUP2 PUSH2 0xC70 JUMP JUMPDEST SWAP1 POP SWAP2 SWAP1 POP JUMP JUMPDEST PUSH1 0x0 PUSH1 0x20 DUP3 ADD SWAP1 POP DUP2 DUP2 SUB PUSH1 0x0 DUP4 ADD MSTORE PUSH2 0xDD1 DUP2 DUP5 PUSH2 0xC93 JUMP JUMPDEST SWAP1 POP SWAP3 SWAP2 POP POP JUMP JUMPDEST PUSH1 0x0 PUSH2 0xDE3 PUSH2 0xDF4 JUMP JUMPDEST SWAP1 POP PUSH2 0xDEF DUP3 DUP3 PUSH2 0xF5C JUMP JUMPDEST SWAP2 SWAP1 POP JUMP JUMPDEST PUSH1 0x0 PUSH1 0x40 MLOAD SWAP1 POP SWAP1 JUMP JUMPDEST PUSH1 0x0 PUSH8 0xFFFFFFFFFFFFFFFF DUP3 GT ISZERO PUSH2 0xE19 JUMPI PUSH2 0xE18 PUSH2 0xFEB JUMP JUMPDEST JUMPDEST PUSH2 0xE22 DUP3 PUSH2 0x102E JUMP JUMPDEST SWAP1 POP PUSH1 0x20 DUP2 ADD SWAP1 POP SWAP2 SWAP1 POP JUMP JUMPDEST PUSH1 0x0 DUP2 SWAP1 POP PUSH1 0x20 DUP3 ADD SWAP1 POP SWAP2 SWAP1 POP JUMP JUMPDEST PUSH1 0x0 DUP2 MLOAD SWAP1 POP SWAP2 SWAP1 POP JUMP JUMPDEST PUSH1 0x0 DUP2 MLOAD SWAP1 POP SWAP2 SWAP1 POP JUMP JUMPDEST PUSH1 0x0 PUSH1 0x20 DUP3 ADD SWAP1 POP SWAP2 SWAP1 POP JUMP JUMPDEST PUSH1 0x0 DUP3 DUP3 MSTORE PUSH1 0x20 DUP3 ADD SWAP1 POP SWAP3 SWAP2 POP POP JUMP JUMPDEST PUSH1 0x0 DUP3 DUP3 MSTORE PUSH1 0x20 DUP3 ADD SWAP1 POP SWAP3 SWAP2 POP POP JUMP JUMPDEST PUSH1 0x0 DUP3 DUP3 MSTORE PUSH1 0x20 DUP3 ADD SWAP1 POP SWAP3 SWAP2 POP POP JUMP JUMPDEST PUSH1 0x0 DUP2 SWAP1 POP SWAP3 SWAP2 POP POP JUMP JUMPDEST PUSH1 0x0 PUSH2 0xEAB DUP3 PUSH2 0xEC8 JUMP JUMPDEST SWAP1 POP SWAP2 SWAP1 POP JUMP JUMPDEST PUSH1 0x0 DUP2 ISZERO ISZERO SWAP1 POP SWAP2 SWAP1 POP JUMP JUMPDEST PUSH1 0x0 DUP2 SWAP1 POP SWAP2 SWAP1 POP JUMP JUMPDEST PUSH1 0x0 PUSH20 0xFFFFFFFFFFFFFFFFFFFFFFFFFFFFFFFFFFFFFFFF DUP3 AND SWAP1 POP SWAP2 SWAP1 POP JUMP JUMPDEST DUP3 DUP2 DUP4 CALLDATACOPY PUSH1 0x0 DUP4 DUP4 ADD MSTORE POP POP POP JUMP JUMPDEST PUSH1 0x0 JUMPDEST DUP4 DUP2 LT ISZERO PUSH2 0xF15 JUMPI DUP1 DUP3 ADD MLOAD DUP2 DUP5 ADD MSTORE PUSH1 0x20 DUP2 ADD SWAP1 POP PUSH2 0xEFA JUMP JUMPDEST DUP4 DUP2 GT ISZERO PUSH2 0xF24 JUMPI PUSH1 0x0 DUP5 DUP5 ADD MSTORE JUMPDEST POP POP POP POP JUMP JUMPDEST PUSH1 0x0 PUSH1 0x2 DUP3 DIV SWAP1 POP PUSH1 0x1 DUP3 AND DUP1 PUSH2 0xF42 JUMPI PUSH1 0x7F DUP3 AND SWAP2 POP JUMPDEST PUSH1 0x20 DUP3 LT DUP2 EQ ISZERO PUSH2 0xF56 JUMPI PUSH2 0xF55 PUSH2 0xFBC JUMP JUMPDEST JUMPDEST POP SWAP2 SWAP1 POP JUMP JUMPDEST PUSH2 0xF65 DUP3 PUSH2 0x102E JUMP JUMPDEST DUP2 ADD DUP2 DUP2 LT PUSH8 0xFFFFFFFFFFFFFFFF DUP3 GT OR ISZERO PUSH2 0xF84 JUMPI PUSH2 0xF83 PUSH2 0xFEB JUMP JUMPDEST JUMPDEST DUP1 PUSH1 0x40 MSTORE POP POP POP JUMP JUMPDEST PUSH32 0x4E487B7100000000000000000000000000000000000000000000000000000000 PUSH1 0x0 MSTORE PUSH1 0x21 PUSH1 0x4 MSTORE PUSH1 0x24 PUSH1 0x0 REVERT JUMPDEST PUSH32 0x4E487B7100000000000000000000000000000000000000000000000000000000 PUSH1 0x0 MSTORE PUSH1 0x22 PUSH1 0x4 MSTORE PUSH1 0x24 PUSH1 0x0 REVERT JUMPDEST PUSH32 0x4E487B7100000000000000000000000000000000000000000000000000000000 PUSH1 0x0 MSTORE PUSH1 0x41 PUSH1 0x4 MSTORE PUSH1 0x24 PUSH1 0x0 REVERT JUMPDEST PUSH1 0x0 DUP1 REVERT JUMPDEST PUSH1 0x0 DUP1 REVERT JUMPDEST PUSH1 0x0 DUP1 REVERT JUMPDEST PUSH1 0x0 DUP1 REVERT JUMPDEST PUSH1 0x0 PUSH1 0x1F NOT PUSH1 0x1F DUP4 ADD AND SWAP1 POP SWAP2 SWAP1 POP JUMP JUMPDEST PUSH32 0x596F7520617265206E6F74206120707269766174652070726F76696465722100 PUSH1 0x0 DUP3 ADD MSTORE POP JUMP JUMPDEST PUSH32 0x4170706C69636174696F6E20616C72656164792073656E742100000000000000 PUSH1 0x0 DUP3 ADD MSTORE POP JUMP JUMPDEST PUSH2 0x109A DUP2 PUSH2 0xEA0 JUMP JUMPDEST DUP2 EQ PUSH2 0x10A5 JUMPI PUSH1 0x0 DUP1 REVERT JUMPDEST POP JUMP JUMPDEST PUSH2 0x10B1 DUP2 PUSH2 0xEB2 JUMP JUMPDEST DUP2 EQ PUSH2 0x10BC JUMPI PUSH1 0x0 DUP1 REVERT JUMPDEST POP JUMP INVALID LOG2 PUSH5 0x6970667358 0x22 SLT KECCAK256 PUSH27 0xE73C8C0B0EB1E2EF81E4B23017E10856530D8ABE82E0C7EE884AE0 0xEA DUP1 RETURNDATACOPY EQ PUSH5 0x736F6C6343 STOP ADDMOD SMOD STOP CALLER "
				},
				"gasEstimates": {
					"creation": {
						"codeDepositCost": "868200",
						"executionCost": "903",
						"totalCost": "869103"
					},
					"external": {
						"acceptApplication(bool)": "3071",
						"application(string,string,address)": "infinite",
						"get_keccak256(string)": "infinite",
						"viewApplication(address)": "infinite",
						"viewApplicationAmountAdr()": "infinite"
					}
				},
				"methodIdentifiers": {
					"acceptApplication(bool)": "9d9e7a4b",
					"application(string,string,address)": "785963c3",
					"get_keccak256(string)": "8e4f8c6b",
					"viewApplication(address)": "76eada91",
					"viewApplicationAmountAdr()": "4d0d594f"
				}
			},
			"storageLayout": {
				"storage": [
					{
						"astId": 292,
						"contract": "Documents/GitHub/contract-token-cryptoMonster/backend/components/PhasePrivate.sol:PhasePrivate",
						"label": "structUsers_",
						"offset": 0,
						"slot": "0",
						"type": "t_mapping(t_address,t_struct(structUser)287_storage)"
					},
					{
						"astId": 302,
						"contract": "Documents/GitHub/contract-token-cryptoMonster/backend/components/PhasePrivate.sol:PhasePrivate",
						"label": "structPhases_",
						"offset": 0,
						"slot": "1",
						"type": "t_mapping(t_address,t_struct(structPhase)297_storage)"
					},
					{
						"astId": 320,
						"contract": "Documents/GitHub/contract-token-cryptoMonster/backend/components/PhasePrivate.sol:PhasePrivate",
						"label": "strucApplications_",
						"offset": 0,
						"slot": "2",
						"type": "t_mapping(t_address,t_struct(structApplication)315_storage)"
					},
					{
						"astId": 323,
						"contract": "Documents/GitHub/contract-token-cryptoMonster/backend/components/PhasePrivate.sol:PhasePrivate",
						"label": "structApplicationsAmountAdr",
						"offset": 0,
						"slot": "3",
						"type": "t_array(t_address)dyn_storage"
					}
				],
				"types": {
					"t_address": {
						"encoding": "inplace",
						"label": "address",
						"numberOfBytes": "20"
					},
					"t_array(t_address)dyn_storage": {
						"base": "t_address",
						"encoding": "dynamic_array",
						"label": "address[]",
						"numberOfBytes": "32"
					},
					"t_bool": {
						"encoding": "inplace",
						"label": "bool",
						"numberOfBytes": "1"
					},
					"t_bytes32": {
						"encoding": "inplace",
						"label": "bytes32",
						"numberOfBytes": "32"
					},
					"t_enum(Role)271": {
						"encoding": "inplace",
						"label": "enum structures.Role",
						"numberOfBytes": "1"
					},
					"t_mapping(t_address,t_struct(structApplication)315_storage)": {
						"encoding": "mapping",
						"key": "t_address",
						"label": "mapping(address => struct structures.structApplication)",
						"numberOfBytes": "32",
						"value": "t_struct(structApplication)315_storage"
					},
					"t_mapping(t_address,t_struct(structPhase)297_storage)": {
						"encoding": "mapping",
						"key": "t_address",
						"label": "mapping(address => struct structures.structPhase)",
						"numberOfBytes": "32",
						"value": "t_struct(structPhase)297_storage"
					},
					"t_mapping(t_address,t_struct(structUser)287_storage)": {
						"encoding": "mapping",
						"key": "t_address",
						"label": "mapping(address => struct structures.structUser)",
						"numberOfBytes": "32",
						"value": "t_struct(structUser)287_storage"
					},
					"t_string_storage": {
						"encoding": "bytes",
						"label": "string",
						"numberOfBytes": "32"
					},
					"t_struct(structApplication)315_storage": {
						"encoding": "inplace",
						"label": "struct structures.structApplication",
						"members": [
							{
								"astId": 304,
								"contract": "Documents/GitHub/contract-token-cryptoMonster/backend/components/PhasePrivate.sol:PhasePrivate",
								"label": "name",
								"offset": 0,
								"slot": "0",
								"type": "t_string_storage"
							},
							{
								"astId": 306,
								"contract": "Documents/GitHub/contract-token-cryptoMonster/backend/components/PhasePrivate.sol:PhasePrivate",
								"label": "contactForCommunication",
								"offset": 0,
								"slot": "1",
								"type": "t_string_storage"
							},
							{
								"astId": 308,
								"contract": "Documents/GitHub/contract-token-cryptoMonster/backend/components/PhasePrivate.sol:PhasePrivate",
								"label": "userAdr",
								"offset": 0,
								"slot": "2",
								"type": "t_address"
							},
							{
								"astId": 310,
								"contract": "Documents/GitHub/contract-token-cryptoMonster/backend/components/PhasePrivate.sol:PhasePrivate",
								"label": "status",
								"offset": 20,
								"slot": "2",
								"type": "t_bool"
							},
							{
								"astId": 312,
								"contract": "Documents/GitHub/contract-token-cryptoMonster/backend/components/PhasePrivate.sol:PhasePrivate",
								"label": "reviewed",
								"offset": 21,
								"slot": "2",
								"type": "t_bool"
							},
							{
								"astId": 314,
								"contract": "Documents/GitHub/contract-token-cryptoMonster/backend/components/PhasePrivate.sol:PhasePrivate",
								"label": "exist",
								"offset": 22,
								"slot": "2",
								"type": "t_bool"
							}
						],
						"numberOfBytes": "96"
					},
					"t_struct(structPhase)297_storage": {
						"encoding": "inplace",
						"label": "struct structures.structPhase",
						"members": [
							{
								"astId": 294,
								"contract": "Documents/GitHub/contract-token-cryptoMonster/backend/components/PhasePrivate.sol:PhasePrivate",
								"label": "statusPhase",
								"offset": 0,
								"slot": "0",
								"type": "t_bool"
							},
							{
								"astId": 296,
								"contract": "Documents/GitHub/contract-token-cryptoMonster/backend/components/PhasePrivate.sol:PhasePrivate",
								"label": "reviewed",
								"offset": 1,
								"slot": "0",
								"type": "t_bool"
							}
						],
						"numberOfBytes": "32"
					},
					"t_struct(structUser)287_storage": {
						"encoding": "inplace",
						"label": "struct structures.structUser",
						"members": [
							{
								"astId": 274,
								"contract": "Documents/GitHub/contract-token-cryptoMonster/backend/components/PhasePrivate.sol:PhasePrivate",
								"label": "role",
								"offset": 0,
								"slot": "0",
								"type": "t_enum(Role)271"
							},
							{
								"astId": 276,
								"contract": "Documents/GitHub/contract-token-cryptoMonster/backend/components/PhasePrivate.sol:PhasePrivate",
								"label": "login",
								"offset": 0,
								"slot": "1",
								"type": "t_string_storage"
							},
							{
								"astId": 278,
								"contract": "Documents/GitHub/contract-token-cryptoMonster/backend/components/PhasePrivate.sol:PhasePrivate",
								"label": "password",
								"offset": 0,
								"slot": "2",
								"type": "t_bytes32"
							},
							{
								"astId": 280,
								"contract": "Documents/GitHub/contract-token-cryptoMonster/backend/components/PhasePrivate.sol:PhasePrivate",
								"label": "balance_overall",
								"offset": 0,
								"slot": "3",
								"type": "t_uint256"
							},
							{
								"astId": 282,
								"contract": "Documents/GitHub/contract-token-cryptoMonster/backend/components/PhasePrivate.sol:PhasePrivate",
								"label": "balance_seed",
								"offset": 0,
								"slot": "4",
								"type": "t_uint256"
							},
							{
								"astId": 284,
								"contract": "Documents/GitHub/contract-token-cryptoMonster/backend/components/PhasePrivate.sol:PhasePrivate",
								"label": "balance_private",
								"offset": 0,
								"slot": "5",
								"type": "t_uint256"
							},
							{
								"astId": 286,
								"contract": "Documents/GitHub/contract-token-cryptoMonster/backend/components/PhasePrivate.sol:PhasePrivate",
								"label": "balance_public",
								"offset": 0,
								"slot": "6",
								"type": "t_uint256"
							}
						],
						"numberOfBytes": "224"
					},
					"t_uint256": {
						"encoding": "inplace",
						"label": "uint256",
						"numberOfBytes": "32"
					}
				}
			},
			"userdoc": {
				"kind": "user",
				"methods": {},
				"version": 1
			}
		}
	}
}