{
	"GitHub/contract-token-cryptoMonster/backend/components/PhasePrivate.sol": {
		"PhasePrivate": {
			"abi": [
				{
					"inputs": [
						{
							"internalType": "address",
							"name": "_userAdr",
							"type": "address"
						}
					],
					"name": "acceptApplication",
					"outputs": [],
					"stateMutability": "nonpayable",
					"type": "function"
				},
				{
					"inputs": [
						{
							"internalType": "string",
							"name": "_name",
							"type": "string"
						},
						{
							"internalType": "string",
							"name": "_contactForCommunication",
							"type": "string"
						},
						{
							"internalType": "address",
							"name": "_userAdr",
							"type": "address"
						}
					],
					"name": "application",
					"outputs": [],
					"stateMutability": "nonpayable",
					"type": "function"
				},
				{
					"inputs": [
						{
							"internalType": "uint256",
							"name": "_price",
							"type": "uint256"
						}
					],
					"name": "changeTokenAmountPricePrivate",
					"outputs": [],
					"stateMutability": "nonpayable",
					"type": "function"
				},
				{
					"inputs": [
						{
							"internalType": "address",
							"name": "_userAdr",
							"type": "address"
						}
					],
					"name": "deviationApplication",
					"outputs": [],
					"stateMutability": "nonpayable",
					"type": "function"
				},
				{
					"inputs": [],
					"name": "endPrivatePhase",
					"outputs": [],
					"stateMutability": "nonpayable",
					"type": "function"
				},
				{
					"inputs": [],
					"name": "getApplicationAmountAdr",
					"outputs": [
						{
							"internalType": "address[]",
							"name": "",
							"type": "address[]"
						}
					],
					"stateMutability": "view",
					"type": "function"
				},
				{
					"inputs": [
						{
							"internalType": "address",
							"name": "adr",
							"type": "address"
						}
					],
					"name": "getBalanceEth",
					"outputs": [
						{
							"internalType": "uint256",
							"name": "",
							"type": "uint256"
						}
					],
					"stateMutability": "view",
					"type": "function"
				},
				{
					"inputs": [
						{
							"internalType": "address",
							"name": "_userAdr",
							"type": "address"
						}
					],
					"name": "getBalancePrivateToken",
					"outputs": [
						{
							"internalType": "uint256",
							"name": "",
							"type": "uint256"
						}
					],
					"stateMutability": "view",
					"type": "function"
				},
				{
					"inputs": [
						{
							"internalType": "address",
							"name": "_userAdr",
							"type": "address"
						}
					],
					"name": "getBalancePublicToken",
					"outputs": [
						{
							"internalType": "uint256",
							"name": "",
							"type": "uint256"
						}
					],
					"stateMutability": "view",
					"type": "function"
				},
				{
					"inputs": [
						{
							"internalType": "address",
							"name": "_userAdr",
							"type": "address"
						}
					],
					"name": "getBalanceSeedToken",
					"outputs": [
						{
							"internalType": "uint256",
							"name": "",
							"type": "uint256"
						}
					],
					"stateMutability": "view",
					"type": "function"
				},
				{
					"inputs": [],
					"name": "get_blackList",
					"outputs": [
						{
							"internalType": "address[]",
							"name": "",
							"type": "address[]"
						}
					],
					"stateMutability": "view",
					"type": "function"
				},
				{
					"inputs": [
						{
							"internalType": "string",
							"name": "_hash",
							"type": "string"
						}
					],
					"name": "get_keccak256",
					"outputs": [
						{
							"internalType": "bytes32",
							"name": "",
							"type": "bytes32"
						}
					],
					"stateMutability": "pure",
					"type": "function"
				},
				{
					"inputs": [],
					"name": "get_whiteList",
					"outputs": [
						{
							"internalType": "address[]",
							"name": "",
							"type": "address[]"
						}
					],
					"stateMutability": "view",
					"type": "function"
				},
				{
					"inputs": [],
					"name": "startPrivatePhase",
					"outputs": [],
					"stateMutability": "nonpayable",
					"type": "function"
				},
				{
					"inputs": [
						{
							"internalType": "address",
							"name": "",
							"type": "address"
						}
					],
					"name": "structUsers_",
					"outputs": [
						{
							"internalType": "enum structures.Role",
							"name": "role",
							"type": "uint8"
						},
						{
							"internalType": "string",
							"name": "login",
							"type": "string"
						},
						{
							"internalType": "bytes32",
							"name": "password",
							"type": "bytes32"
						},
						{
							"internalType": "uint256",
							"name": "balance_overall",
							"type": "uint256"
						},
						{
							"internalType": "uint256",
							"name": "balance_seed",
							"type": "uint256"
						},
						{
							"internalType": "uint256",
							"name": "balance_private",
							"type": "uint256"
						},
						{
							"internalType": "uint256",
							"name": "balance_public",
							"type": "uint256"
						}
					],
					"stateMutability": "view",
					"type": "function"
				},
				{
					"inputs": [],
					"name": "tokenAmount_",
					"outputs": [
						{
							"internalType": "uint256",
							"name": "",
							"type": "uint256"
						}
					],
					"stateMutability": "view",
					"type": "function"
				},
				{
					"inputs": [],
					"name": "tokenPrice_",
					"outputs": [
						{
							"internalType": "uint256",
							"name": "",
							"type": "uint256"
						}
					],
					"stateMutability": "view",
					"type": "function"
				}
			],
			"devdoc": {
				"kind": "dev",
				"methods": {},
				"version": 1
			},
			"evm": {
				"assembly": "    /* \"GitHub/contract-token-cryptoMonster/backend/components/PhasePrivate.sol\":158:4518  contract PhasePrivate is validateFuncs {\r... */\n  mstore(0x40, 0x80)\n    /* \"GitHub/contract-token-cryptoMonster/backend/shared/lib/structures.sol\":1152:1161  750000000 */\n  0x2cb41780\n    /* \"GitHub/contract-token-cryptoMonster/backend/shared/lib/structures.sol\":1123:1161  uint256 public tokenPrice_ = 750000000 */\n  0x02\n  sstore\n    /* \"GitHub/contract-token-cryptoMonster/backend/shared/lib/structures.sol\":1412:1418  100000 */\n  0x0186a0\n    /* \"GitHub/contract-token-cryptoMonster/backend/shared/lib/structures.sol\":1385:1418  uint public tokenAmount_ = 100000 */\n  0x03\n  sstore\n    /* \"GitHub/contract-token-cryptoMonster/backend/components/PhasePrivate.sol\":158:4518  contract PhasePrivate is validateFuncs {\r... */\n  callvalue\n  dup1\n  iszero\n  tag_1\n  jumpi\n  0x00\n  dup1\n  revert\ntag_1:\n  pop\n  dataSize(sub_0)\n  dup1\n  dataOffset(sub_0)\n  0x00\n  codecopy\n  0x00\n  return\nstop\n\nsub_0: assembly {\n        /* \"GitHub/contract-token-cryptoMonster/backend/components/PhasePrivate.sol\":158:4518  contract PhasePrivate is validateFuncs {\r... */\n      mstore(0x40, 0x80)\n      callvalue\n      dup1\n      iszero\n      tag_1\n      jumpi\n      0x00\n      dup1\n      revert\n    tag_1:\n      pop\n      jumpi(tag_2, lt(calldatasize, 0x04))\n      shr(0xe0, calldataload(0x00))\n      dup1\n      0x0691615d\n      eq\n      tag_3\n      jumpi\n      dup1\n      0x0761c8b9\n      eq\n      tag_4\n      jumpi\n      dup1\n      0x1d3eea35\n      eq\n      tag_5\n      jumpi\n      dup1\n      0x2599d6d0\n      eq\n      tag_6\n      jumpi\n      dup1\n      0x686c4cea\n      eq\n      tag_7\n      jumpi\n      dup1\n      0x72f0d72b\n      eq\n      tag_8\n      jumpi\n      dup1\n      0x785963c3\n      eq\n      tag_9\n      jumpi\n      dup1\n      0x7f4b8df0\n      eq\n      tag_10\n      jumpi\n      dup1\n      0x7f89128f\n      eq\n      tag_11\n      jumpi\n      dup1\n      0x8aa7cc0b\n      eq\n      tag_12\n      jumpi\n      dup1\n      0x8e4f8c6b\n      eq\n      tag_13\n      jumpi\n      dup1\n      0x948942ad\n      eq\n      tag_14\n      jumpi\n      dup1\n      0x99067ede\n      eq\n      tag_15\n      jumpi\n      dup1\n      0xa678b65b\n      eq\n      tag_16\n      jumpi\n      dup1\n      0xb06cdc12\n      eq\n      tag_17\n      jumpi\n      dup1\n      0xc10e3911\n      eq\n      tag_18\n      jumpi\n      dup1\n      0xfc837259\n      eq\n      tag_19\n      jumpi\n    tag_2:\n      0x00\n      dup1\n      revert\n        /* \"GitHub/contract-token-cryptoMonster/backend/components/PhasePrivate.sol\":3504:3768  function startPrivatePhase () public onlyPrivateProvider {\r... */\n    tag_3:\n      tag_20\n      tag_21\n      jump\t// in\n    tag_20:\n      stop\n        /* \"GitHub/contract-token-cryptoMonster/backend/shared/lib/structures.sol\":1123:1161  uint256 public tokenPrice_ = 750000000 */\n    tag_4:\n      tag_22\n      sload(0x02)\n      dup2\n      jump\n    tag_22:\n      mload(0x40)\n        /* \"#utility.yul\":3331:3356   */\n      swap1\n      dup2\n      mstore\n        /* \"#utility.yul\":3319:3321   */\n      0x20\n        /* \"#utility.yul\":3304:3322   */\n      add\n        /* \"GitHub/contract-token-cryptoMonster/backend/shared/lib/structures.sol\":1123:1161  uint256 public tokenPrice_ = 750000000 */\n    tag_24:\n      mload(0x40)\n      dup1\n      swap2\n      sub\n      swap1\n      return\n        /* \"GitHub/contract-token-cryptoMonster/backend/components/PhasePrivate.sol\":3079:3407  function deviationApplication (address _userAdr) public onlyPrivateProvider {\r... */\n    tag_5:\n      tag_20\n      tag_27\n      calldatasize\n      0x04\n      tag_28\n      jump\t// in\n    tag_27:\n      tag_29\n      jump\t// in\n        /* \"GitHub/contract-token-cryptoMonster/backend/shared/helpers/helpresFunc.sol\":849:988  function getBalanceSeedToken (address _userAdr) public view returns (uint256) {\r... */\n    tag_6:\n      tag_22\n      tag_31\n      calldatasize\n      0x04\n      tag_28\n      jump\t// in\n    tag_31:\n      sub(shl(0xa0, 0x01), 0x01)\n        /* \"GitHub/contract-token-cryptoMonster/backend/shared/helpers/helpresFunc.sol\":945:967  structUsers_[_userAdr] */\n      and\n        /* \"GitHub/contract-token-cryptoMonster/backend/shared/helpers/helpresFunc.sol\":918:925  uint256 */\n      0x00\n        /* \"GitHub/contract-token-cryptoMonster/backend/shared/helpers/helpresFunc.sol\":945:967  structUsers_[_userAdr] */\n      swap1\n      dup2\n      mstore\n      0x20\n      dup2\n      swap1\n      mstore\n      0x40\n      swap1\n      keccak256\n        /* \"GitHub/contract-token-cryptoMonster/backend/shared/helpers/helpresFunc.sol\":945:980  structUsers_[_userAdr].balance_seed */\n      0x04\n      add\n      sload\n      swap1\n        /* \"GitHub/contract-token-cryptoMonster/backend/shared/helpers/helpresFunc.sol\":849:988  function getBalanceSeedToken (address _userAdr) public view returns (uint256) {\r... */\n      jump\n        /* \"GitHub/contract-token-cryptoMonster/backend/components/PhasePrivate.sol\":1875:2120  function getApplicationAmountAdr () public onlyPrivateProvider view returns (address[] memory) {\r... */\n    tag_7:\n      tag_34\n      tag_35\n      jump\t// in\n    tag_34:\n      mload(0x40)\n      tag_24\n      swap2\n      swap1\n      tag_37\n      jump\t// in\n        /* \"GitHub/contract-token-cryptoMonster/backend/shared/helpers/helpresFunc.sol\":1352:1495  function getBalancePublicToken (address _userAdr) public view returns (uint256) {\r... */\n    tag_8:\n      tag_22\n      tag_39\n      calldatasize\n      0x04\n      tag_28\n      jump\t// in\n    tag_39:\n      sub(shl(0xa0, 0x01), 0x01)\n        /* \"GitHub/contract-token-cryptoMonster/backend/shared/helpers/helpresFunc.sol\":1450:1472  structUsers_[_userAdr] */\n      and\n        /* \"GitHub/contract-token-cryptoMonster/backend/shared/helpers/helpresFunc.sol\":1423:1430  uint256 */\n      0x00\n        /* \"GitHub/contract-token-cryptoMonster/backend/shared/helpers/helpresFunc.sol\":1450:1472  structUsers_[_userAdr] */\n      swap1\n      dup2\n      mstore\n      0x20\n      dup2\n      swap1\n      mstore\n      0x40\n      swap1\n      keccak256\n        /* \"GitHub/contract-token-cryptoMonster/backend/shared/helpers/helpresFunc.sol\":1450:1487  structUsers_[_userAdr].balance_public */\n      0x06\n      add\n      sload\n      swap1\n        /* \"GitHub/contract-token-cryptoMonster/backend/shared/helpers/helpresFunc.sol\":1352:1495  function getBalancePublicToken (address _userAdr) public view returns (uint256) {\r... */\n      jump\n        /* \"GitHub/contract-token-cryptoMonster/backend/components/PhasePrivate.sol\":297:1761  function application(string memory _name, string memory _contactForCommunication, address _userAdr) public onlyUser {\r... */\n    tag_9:\n      tag_20\n      tag_43\n      calldatasize\n      0x04\n      tag_44\n      jump\t// in\n    tag_43:\n      tag_45\n      jump\t// in\n        /* \"GitHub/contract-token-cryptoMonster/backend/components/PhasePrivate.sol\":3863:4295  function endPrivatePhase () public onlyPrivateProvider {\r... */\n    tag_10:\n      tag_20\n      tag_47\n      jump\t// in\n        /* \"GitHub/contract-token-cryptoMonster/backend/shared/helpers/helpresFunc.sol\":632:742  function get_blackList() public onlyOwner view returns (address[] memory) {\r... */\n    tag_11:\n      tag_34\n      tag_49\n      jump\t// in\n        /* \"GitHub/contract-token-cryptoMonster/backend/components/PhasePrivate.sol\":4396:4515  function changeTokenAmountPricePrivate (uint _price) public onlyPrivateProvider {\r... */\n    tag_12:\n      tag_20\n      tag_52\n      calldatasize\n      0x04\n      tag_53\n      jump\t// in\n    tag_52:\n      tag_54\n      jump\t// in\n        /* \"GitHub/contract-token-cryptoMonster/backend/shared/helpers/helpresFunc.sol\":212:350  function get_keccak256(string memory _hash) public pure returns(bytes32) {\r... */\n    tag_13:\n      tag_22\n      tag_56\n      calldatasize\n      0x04\n      tag_57\n      jump\t// in\n    tag_56:\n      tag_58\n      jump\t// in\n        /* \"GitHub/contract-token-cryptoMonster/backend/shared/lib/structures.sol\":1385:1418  uint public tokenAmount_ = 100000 */\n    tag_14:\n      tag_22\n      sload(0x03)\n      dup2\n      jump\n        /* \"GitHub/contract-token-cryptoMonster/backend/shared/helpers/helpresFunc.sol\":1595:1706  function getBalanceEth(address adr) public view returns(uint256) {\r... */\n    tag_15:\n      tag_22\n      tag_65\n      calldatasize\n      0x04\n      tag_28\n      jump\t// in\n    tag_65:\n      sub(shl(0xa0, 0x01), 0x01)\n        /* \"GitHub/contract-token-cryptoMonster/backend/shared/helpers/helpresFunc.sol\":1678:1698  address(adr).balance */\n      and\n      balance\n      swap1\n        /* \"GitHub/contract-token-cryptoMonster/backend/shared/helpers/helpresFunc.sol\":1595:1706  function getBalanceEth(address adr) public view returns(uint256) {\r... */\n      jump\n        /* \"GitHub/contract-token-cryptoMonster/backend/components/PhasePrivate.sol\":2196:2995  function acceptApplication (address _userAdr) public onlyPrivateProvider {\r... */\n    tag_16:\n      tag_20\n      tag_69\n      calldatasize\n      0x04\n      tag_28\n      jump\t// in\n    tag_69:\n      tag_70\n      jump\t// in\n        /* \"GitHub/contract-token-cryptoMonster/backend/shared/helpers/helpresFunc.sol\":1098:1243  function getBalancePrivateToken (address _userAdr) public view returns (uint256) {\r... */\n    tag_17:\n      tag_22\n      tag_72\n      calldatasize\n      0x04\n      tag_28\n      jump\t// in\n    tag_72:\n      sub(shl(0xa0, 0x01), 0x01)\n        /* \"GitHub/contract-token-cryptoMonster/backend/shared/helpers/helpresFunc.sol\":1197:1219  structUsers_[_userAdr] */\n      and\n        /* \"GitHub/contract-token-cryptoMonster/backend/shared/helpers/helpresFunc.sol\":1170:1177  uint256 */\n      0x00\n        /* \"GitHub/contract-token-cryptoMonster/backend/shared/helpers/helpresFunc.sol\":1197:1219  structUsers_[_userAdr] */\n      swap1\n      dup2\n      mstore\n      0x20\n      dup2\n      swap1\n      mstore\n      0x40\n      swap1\n      keccak256\n        /* \"GitHub/contract-token-cryptoMonster/backend/shared/helpers/helpresFunc.sol\":1197:1235  structUsers_[_userAdr].balance_private */\n      0x05\n      add\n      sload\n      swap1\n        /* \"GitHub/contract-token-cryptoMonster/backend/shared/helpers/helpresFunc.sol\":1098:1243  function getBalancePrivateToken (address _userAdr) public view returns (uint256) {\r... */\n      jump\n        /* \"GitHub/contract-token-cryptoMonster/backend/shared/helpers/helpresFunc.sol\":426:554  function get_whiteList() public onlyOwnerAndPrivateProvider view returns (address[] memory) {\r... */\n    tag_18:\n      tag_34\n      tag_76\n      jump\t// in\n        /* \"GitHub/contract-token-cryptoMonster/backend/shared/lib/structures.sol\":836:887  mapping (address => structUser) public structUsers_ */\n    tag_19:\n      tag_78\n      tag_79\n      calldatasize\n      0x04\n      tag_28\n      jump\t// in\n    tag_79:\n      tag_80\n      jump\t// in\n    tag_78:\n      mload(0x40)\n      tag_24\n      swap8\n      swap7\n      swap6\n      swap5\n      swap4\n      swap3\n      swap2\n      swap1\n      tag_82\n      jump\t// in\n        /* \"GitHub/contract-token-cryptoMonster/backend/components/PhasePrivate.sol\":3504:3768  function startPrivatePhase () public onlyPrivateProvider {\r... */\n    tag_21:\n        /* \"GitHub/contract-token-cryptoMonster/backend/shared/helpers/modifireFunc.sol\":567:586  Role.SYSTEM_PRIVATE */\n      0x02\n        /* \"GitHub/contract-token-cryptoMonster/backend/shared/helpers/modifireFunc.sol\":547:557  msg.sender */\n      caller\n        /* \"GitHub/contract-token-cryptoMonster/backend/shared/helpers/modifireFunc.sol\":534:546  structUsers_ */\n      0x00\n        /* \"GitHub/contract-token-cryptoMonster/backend/shared/helpers/modifireFunc.sol\":534:558  structUsers_[msg.sender] */\n      swap1\n      dup2\n      mstore\n      0x20\n      dup2\n      swap1\n      mstore\n      0x40\n      swap1\n      keccak256\n        /* \"GitHub/contract-token-cryptoMonster/backend/shared/helpers/modifireFunc.sol\":534:563  structUsers_[msg.sender].role */\n      sload\n      0xff\n      and\n        /* \"GitHub/contract-token-cryptoMonster/backend/shared/helpers/modifireFunc.sol\":534:586  structUsers_[msg.sender].role == Role.SYSTEM_PRIVATE */\n      0x04\n      dup2\n      gt\n      iszero\n      tag_88\n      jumpi\n      tag_88\n      tag_86\n      jump\t// in\n    tag_88:\n      eq\n        /* \"GitHub/contract-token-cryptoMonster/backend/shared/helpers/modifireFunc.sol\":526:616  require(structUsers_[msg.sender].role == Role.SYSTEM_PRIVATE, \"Your not Private provider\") */\n      tag_89\n      jumpi\n      mload(0x40)\n      shl(0xe5, 0x461bcd)\n      dup2\n      mstore\n      0x04\n      add\n      tag_90\n      swap1\n      tag_91\n      jump\t// in\n    tag_90:\n      mload(0x40)\n      dup1\n      swap2\n      sub\n      swap1\n      revert\n    tag_89:\n        /* \"GitHub/contract-token-cryptoMonster/backend/components/PhasePrivate.sol\":3594:3604  msg.sender */\n      caller\n        /* \"GitHub/contract-token-cryptoMonster/backend/components/PhasePrivate.sol\":3580:3605  structPhases_[msg.sender] */\n      0x00\n      swap1\n      dup2\n      mstore\n        /* \"GitHub/contract-token-cryptoMonster/backend/components/PhasePrivate.sol\":3580:3593  structPhases_ */\n      0x04\n        /* \"GitHub/contract-token-cryptoMonster/backend/components/PhasePrivate.sol\":3580:3605  structPhases_[msg.sender] */\n      0x20\n      mstore\n      0x40\n      swap1\n      keccak256\n        /* \"GitHub/contract-token-cryptoMonster/backend/components/PhasePrivate.sol\":3580:3617  structPhases_[msg.sender].statusPhase */\n      sload\n      0xff\n      and\n        /* \"GitHub/contract-token-cryptoMonster/backend/components/PhasePrivate.sol\":3580:3626  structPhases_[msg.sender].statusPhase == false */\n      iszero\n      dup1\n      iszero\n        /* \"GitHub/contract-token-cryptoMonster/backend/components/PhasePrivate.sol\":3580:3673  structPhases_[msg.sender].statusPhase == false && structPhases_[msg.sender].reviewed == false */\n      tag_93\n      jumpi\n      pop\n        /* \"GitHub/contract-token-cryptoMonster/backend/components/PhasePrivate.sol\":3644:3654  msg.sender */\n      caller\n        /* \"GitHub/contract-token-cryptoMonster/backend/components/PhasePrivate.sol\":3630:3655  structPhases_[msg.sender] */\n      0x00\n      swap1\n      dup2\n      mstore\n        /* \"GitHub/contract-token-cryptoMonster/backend/components/PhasePrivate.sol\":3630:3643  structPhases_ */\n      0x04\n        /* \"GitHub/contract-token-cryptoMonster/backend/components/PhasePrivate.sol\":3630:3655  structPhases_[msg.sender] */\n      0x20\n      mstore\n      0x40\n      swap1\n      keccak256\n        /* \"GitHub/contract-token-cryptoMonster/backend/components/PhasePrivate.sol\":3630:3664  structPhases_[msg.sender].reviewed */\n      sload\n      0x0100\n      swap1\n      div\n      0xff\n      and\n        /* \"GitHub/contract-token-cryptoMonster/backend/components/PhasePrivate.sol\":3630:3673  structPhases_[msg.sender].reviewed == false */\n      iszero\n        /* \"GitHub/contract-token-cryptoMonster/backend/components/PhasePrivate.sol\":3580:3673  structPhases_[msg.sender].statusPhase == false && structPhases_[msg.sender].reviewed == false */\n    tag_93:\n        /* \"GitHub/contract-token-cryptoMonster/backend/components/PhasePrivate.sol\":3572:3698  require(structPhases_[msg.sender].statusPhase == false && structPhases_[msg.sender].reviewed == false, \"Phase already active\") */\n      tag_94\n      jumpi\n      mload(0x40)\n      shl(0xe5, 0x461bcd)\n      dup2\n      mstore\n        /* \"#utility.yul\":4926:4928   */\n      0x20\n        /* \"GitHub/contract-token-cryptoMonster/backend/components/PhasePrivate.sol\":3572:3698  require(structPhases_[msg.sender].statusPhase == false && structPhases_[msg.sender].reviewed == false, \"Phase already active\") */\n      0x04\n      dup3\n      add\n        /* \"#utility.yul\":4908:4929   */\n      mstore\n        /* \"#utility.yul\":4965:4967   */\n      0x14\n        /* \"#utility.yul\":4945:4963   */\n      0x24\n      dup3\n      add\n        /* \"#utility.yul\":4938:4968   */\n      mstore\n      shl(0x60, 0x506861736520616c726561647920616374697665)\n        /* \"#utility.yul\":4984:5002   */\n      0x44\n      dup3\n      add\n        /* \"#utility.yul\":4977:5027   */\n      mstore\n        /* \"#utility.yul\":5044:5062   */\n      0x64\n      add\n        /* \"GitHub/contract-token-cryptoMonster/backend/components/PhasePrivate.sol\":3572:3698  require(structPhases_[msg.sender].statusPhase == false && structPhases_[msg.sender].reviewed == false, \"Phase already active\") */\n      tag_90\n        /* \"#utility.yul\":4724:5068   */\n      jump\n        /* \"GitHub/contract-token-cryptoMonster/backend/components/PhasePrivate.sol\":3572:3698  require(structPhases_[msg.sender].statusPhase == false && structPhases_[msg.sender].reviewed == false, \"Phase already active\") */\n    tag_94:\n        /* \"GitHub/contract-token-cryptoMonster/backend/components/PhasePrivate.sol\":3737:3760  structPhase(true, true) */\n      0x40\n      dup1\n      mload\n      dup1\n      dup3\n      add\n      dup3\n      mstore\n        /* \"GitHub/contract-token-cryptoMonster/backend/components/PhasePrivate.sol\":3749:3753  true */\n      0x01\n        /* \"GitHub/contract-token-cryptoMonster/backend/components/PhasePrivate.sol\":3737:3760  structPhase(true, true) */\n      dup1\n      dup3\n      mstore\n      0x20\n      dup1\n      dup4\n      add\n      swap2\n      dup3\n      mstore\n        /* \"GitHub/contract-token-cryptoMonster/backend/components/PhasePrivate.sol\":3723:3733  msg.sender */\n      caller\n      0x00\n        /* \"GitHub/contract-token-cryptoMonster/backend/components/PhasePrivate.sol\":3709:3734  structPhases_[msg.sender] */\n      swap1\n      dup2\n      mstore\n        /* \"GitHub/contract-token-cryptoMonster/backend/components/PhasePrivate.sol\":3709:3722  structPhases_ */\n      0x04\n        /* \"GitHub/contract-token-cryptoMonster/backend/components/PhasePrivate.sol\":3709:3734  structPhases_[msg.sender] */\n      swap1\n      swap2\n      mstore\n      swap3\n      swap1\n      swap3\n      keccak256\n        /* \"GitHub/contract-token-cryptoMonster/backend/components/PhasePrivate.sol\":3709:3760  structPhases_[msg.sender] = structPhase(true, true) */\n      swap1\n      mload\n      dup2\n      sload\n      swap3\n      mload\n      not(0xffff)\n      swap1\n      swap4\n      and\n      swap1\n      iszero\n      iszero\n      not(0xff00)\n      and\n      or\n      0x0100\n      swap3\n      iszero\n      iszero\n      swap3\n      swap1\n      swap3\n      mul\n      swap2\n      swap1\n      swap2\n      or\n      swap1\n      sstore\n        /* \"GitHub/contract-token-cryptoMonster/backend/components/PhasePrivate.sol\":3504:3768  function startPrivatePhase () public onlyPrivateProvider {\r... */\n      jump\t// out\n        /* \"GitHub/contract-token-cryptoMonster/backend/components/PhasePrivate.sol\":3079:3407  function deviationApplication (address _userAdr) public onlyPrivateProvider {\r... */\n    tag_29:\n        /* \"GitHub/contract-token-cryptoMonster/backend/shared/helpers/modifireFunc.sol\":567:586  Role.SYSTEM_PRIVATE */\n      0x02\n        /* \"GitHub/contract-token-cryptoMonster/backend/shared/helpers/modifireFunc.sol\":547:557  msg.sender */\n      caller\n        /* \"GitHub/contract-token-cryptoMonster/backend/shared/helpers/modifireFunc.sol\":534:546  structUsers_ */\n      0x00\n        /* \"GitHub/contract-token-cryptoMonster/backend/shared/helpers/modifireFunc.sol\":534:558  structUsers_[msg.sender] */\n      swap1\n      dup2\n      mstore\n      0x20\n      dup2\n      swap1\n      mstore\n      0x40\n      swap1\n      keccak256\n        /* \"GitHub/contract-token-cryptoMonster/backend/shared/helpers/modifireFunc.sol\":534:563  structUsers_[msg.sender].role */\n      sload\n      0xff\n      and\n        /* \"GitHub/contract-token-cryptoMonster/backend/shared/helpers/modifireFunc.sol\":534:586  structUsers_[msg.sender].role == Role.SYSTEM_PRIVATE */\n      0x04\n      dup2\n      gt\n      iszero\n      tag_101\n      jumpi\n      tag_101\n      tag_86\n      jump\t// in\n    tag_101:\n      eq\n        /* \"GitHub/contract-token-cryptoMonster/backend/shared/helpers/modifireFunc.sol\":526:616  require(structUsers_[msg.sender].role == Role.SYSTEM_PRIVATE, \"Your not Private provider\") */\n      tag_102\n      jumpi\n      mload(0x40)\n      shl(0xe5, 0x461bcd)\n      dup2\n      mstore\n      0x04\n      add\n      tag_90\n      swap1\n      tag_91\n      jump\t// in\n    tag_102:\n        /* \"GitHub/contract-token-cryptoMonster/backend/components/PhasePrivate.sol\":3193:3203  msg.sender */\n      caller\n        /* \"GitHub/contract-token-cryptoMonster/backend/components/PhasePrivate.sol\":3174:3204  strucApplications_[msg.sender] */\n      0x00\n      swap1\n      dup2\n      mstore\n        /* \"GitHub/contract-token-cryptoMonster/backend/components/PhasePrivate.sol\":3174:3192  strucApplications_ */\n      0x05\n        /* \"GitHub/contract-token-cryptoMonster/backend/components/PhasePrivate.sol\":3174:3204  strucApplications_[msg.sender] */\n      0x20\n      mstore\n      0x40\n      swap1\n      keccak256\n        /* \"GitHub/contract-token-cryptoMonster/backend/components/PhasePrivate.sol\":3174:3213  strucApplications_[msg.sender].reviewed */\n      0x02\n      add\n      sload\n      shl(0xa8, 0x01)\n      swap1\n      div\n      0xff\n      and\n        /* \"GitHub/contract-token-cryptoMonster/backend/components/PhasePrivate.sol\":3174:3222  strucApplications_[msg.sender].reviewed == false */\n      iszero\n        /* \"GitHub/contract-token-cryptoMonster/backend/components/PhasePrivate.sol\":3166:3255  require(strucApplications_[msg.sender].reviewed == false, \"Review the application first\") */\n      tag_105\n      jumpi\n      mload(0x40)\n      shl(0xe5, 0x461bcd)\n      dup2\n      mstore\n      0x04\n      add\n      tag_90\n      swap1\n      tag_107\n      jump\t// in\n    tag_105:\n      sub(shl(0xa0, 0x01), 0x01)\n        /* \"GitHub/contract-token-cryptoMonster/backend/components/PhasePrivate.sol\":3356:3384  strucApplications_[_userAdr] */\n      and\n        /* \"GitHub/contract-token-cryptoMonster/backend/components/PhasePrivate.sol\":3394:3399  false */\n      0x00\n        /* \"GitHub/contract-token-cryptoMonster/backend/components/PhasePrivate.sol\":3356:3384  strucApplications_[_userAdr] */\n      swap1\n      dup2\n      mstore\n        /* \"GitHub/contract-token-cryptoMonster/backend/components/PhasePrivate.sol\":3356:3374  strucApplications_ */\n      0x05\n        /* \"GitHub/contract-token-cryptoMonster/backend/components/PhasePrivate.sol\":3356:3384  strucApplications_[_userAdr] */\n      0x20\n      mstore\n      0x40\n      swap1\n      keccak256\n        /* \"GitHub/contract-token-cryptoMonster/backend/components/PhasePrivate.sol\":3356:3391  strucApplications_[_userAdr].status */\n      0x02\n      add\n        /* \"GitHub/contract-token-cryptoMonster/backend/components/PhasePrivate.sol\":3356:3399  strucApplications_[_userAdr].status = false */\n      dup1\n      sload\n      not(shl(0xa0, 0xff))\n      and\n      swap1\n      sstore\n        /* \"GitHub/contract-token-cryptoMonster/backend/components/PhasePrivate.sol\":3079:3407  function deviationApplication (address _userAdr) public onlyPrivateProvider {\r... */\n      jump\t// out\n        /* \"GitHub/contract-token-cryptoMonster/backend/components/PhasePrivate.sol\":1875:2120  function getApplicationAmountAdr () public onlyPrivateProvider view returns (address[] memory) {\r... */\n    tag_35:\n        /* \"GitHub/contract-token-cryptoMonster/backend/components/PhasePrivate.sol\":1952:1968  address[] memory */\n      0x60\n        /* \"GitHub/contract-token-cryptoMonster/backend/shared/helpers/modifireFunc.sol\":567:586  Role.SYSTEM_PRIVATE */\n      0x02\n        /* \"GitHub/contract-token-cryptoMonster/backend/shared/helpers/modifireFunc.sol\":547:557  msg.sender */\n      caller\n        /* \"GitHub/contract-token-cryptoMonster/backend/shared/helpers/modifireFunc.sol\":534:546  structUsers_ */\n      0x00\n        /* \"GitHub/contract-token-cryptoMonster/backend/shared/helpers/modifireFunc.sol\":534:558  structUsers_[msg.sender] */\n      swap1\n      dup2\n      mstore\n      0x20\n      dup2\n      swap1\n      mstore\n      0x40\n      swap1\n      keccak256\n        /* \"GitHub/contract-token-cryptoMonster/backend/shared/helpers/modifireFunc.sol\":534:563  structUsers_[msg.sender].role */\n      sload\n      0xff\n      and\n        /* \"GitHub/contract-token-cryptoMonster/backend/shared/helpers/modifireFunc.sol\":534:586  structUsers_[msg.sender].role == Role.SYSTEM_PRIVATE */\n      0x04\n      dup2\n      gt\n      iszero\n      tag_113\n      jumpi\n      tag_113\n      tag_86\n      jump\t// in\n    tag_113:\n      eq\n        /* \"GitHub/contract-token-cryptoMonster/backend/shared/helpers/modifireFunc.sol\":526:616  require(structUsers_[msg.sender].role == Role.SYSTEM_PRIVATE, \"Your not Private provider\") */\n      tag_114\n      jumpi\n      mload(0x40)\n      shl(0xe5, 0x461bcd)\n      dup2\n      mstore\n      0x04\n      add\n      tag_90\n      swap1\n      tag_91\n      jump\t// in\n    tag_114:\n        /* \"GitHub/contract-token-cryptoMonster/backend/components/PhasePrivate.sol\":1988:2015  structApplicationsAmountAdr */\n      0x06\n        /* \"GitHub/contract-token-cryptoMonster/backend/components/PhasePrivate.sol\":1981:2015  return structApplicationsAmountAdr */\n      dup1\n      sload\n      dup1\n      0x20\n      mul\n      0x20\n      add\n      mload(0x40)\n      swap1\n      dup2\n      add\n      0x40\n      mstore\n      dup1\n      swap3\n      swap2\n      swap1\n      dup2\n      dup2\n      mstore\n      0x20\n      add\n      dup3\n      dup1\n      sload\n      dup1\n      iszero\n      tag_117\n      jumpi\n      0x20\n      mul\n      dup3\n      add\n      swap2\n      swap1\n      0x00\n      mstore\n      keccak256(0x00, 0x20)\n      swap1\n    tag_118:\n      dup2\n      sload\n      sub(shl(0xa0, 0x01), 0x01)\n      and\n      dup2\n      mstore\n      0x01\n      swap1\n      swap2\n      add\n      swap1\n      0x20\n      add\n      dup1\n      dup4\n      gt\n      tag_118\n      jumpi\n    tag_117:\n      pop\n      pop\n      pop\n      pop\n      pop\n      swap1\n      pop\n        /* \"GitHub/contract-token-cryptoMonster/backend/components/PhasePrivate.sol\":1875:2120  function getApplicationAmountAdr () public onlyPrivateProvider view returns (address[] memory) {\r... */\n      swap1\n      jump\t// out\n        /* \"GitHub/contract-token-cryptoMonster/backend/components/PhasePrivate.sol\":297:1761  function application(string memory _name, string memory _contactForCommunication, address _userAdr) public onlyUser {\r... */\n    tag_45:\n        /* \"GitHub/contract-token-cryptoMonster/backend/shared/helpers/modifireFunc.sol\":1454:1464  msg.sender */\n      caller\n        /* \"GitHub/contract-token-cryptoMonster/backend/shared/helpers/modifireFunc.sol\":1474:1491  Role.SYSTEM_OWNER */\n      0x00\n        /* \"GitHub/contract-token-cryptoMonster/backend/shared/helpers/modifireFunc.sol\":1441:1465  structUsers_[msg.sender] */\n      swap1\n      dup2\n      mstore\n      0x20\n      dup2\n      swap1\n      mstore\n      0x40\n      dup2\n      keccak256\n        /* \"GitHub/contract-token-cryptoMonster/backend/shared/helpers/modifireFunc.sol\":1441:1470  structUsers_[msg.sender].role */\n      sload\n      0xff\n      and\n        /* \"GitHub/contract-token-cryptoMonster/backend/shared/helpers/modifireFunc.sol\":1441:1491  structUsers_[msg.sender].role != Role.SYSTEM_OWNER */\n      0x04\n      dup2\n      gt\n      iszero\n      tag_124\n      jumpi\n      tag_124\n      tag_86\n      jump\t// in\n    tag_124:\n      eq\n      iszero\n        /* \"GitHub/contract-token-cryptoMonster/backend/shared/helpers/modifireFunc.sol\":1441:1559  structUsers_[msg.sender].role != Role.SYSTEM_OWNER ||\r... */\n      dup1\n      tag_125\n      jumpi\n      pop\n        /* \"GitHub/contract-token-cryptoMonster/backend/shared/helpers/modifireFunc.sol\":1541:1559  Role.SYSTEM_PUBLIC */\n      0x01\n        /* \"GitHub/contract-token-cryptoMonster/backend/shared/helpers/modifireFunc.sol\":1521:1531  msg.sender */\n      caller\n        /* \"GitHub/contract-token-cryptoMonster/backend/shared/helpers/modifireFunc.sol\":1508:1520  structUsers_ */\n      0x00\n        /* \"GitHub/contract-token-cryptoMonster/backend/shared/helpers/modifireFunc.sol\":1508:1532  structUsers_[msg.sender] */\n      swap1\n      dup2\n      mstore\n      0x20\n      dup2\n      swap1\n      mstore\n      0x40\n      swap1\n      keccak256\n        /* \"GitHub/contract-token-cryptoMonster/backend/shared/helpers/modifireFunc.sol\":1508:1537  structUsers_[msg.sender].role */\n      sload\n      0xff\n      and\n        /* \"GitHub/contract-token-cryptoMonster/backend/shared/helpers/modifireFunc.sol\":1508:1559  structUsers_[msg.sender].role != Role.SYSTEM_PUBLIC */\n      0x04\n      dup2\n      gt\n      iszero\n      tag_129\n      jumpi\n      tag_129\n      tag_86\n      jump\t// in\n    tag_129:\n      eq\n      iszero\n        /* \"GitHub/contract-token-cryptoMonster/backend/shared/helpers/modifireFunc.sol\":1441:1559  structUsers_[msg.sender].role != Role.SYSTEM_OWNER ||\r... */\n    tag_125:\n        /* \"GitHub/contract-token-cryptoMonster/backend/shared/helpers/modifireFunc.sol\":1441:1628  structUsers_[msg.sender].role != Role.SYSTEM_OWNER ||\r... */\n      dup1\n      tag_130\n      jumpi\n      pop\n        /* \"GitHub/contract-token-cryptoMonster/backend/shared/helpers/modifireFunc.sol\":1609:1628  Role.SYSTEM_PRIVATE */\n      0x02\n        /* \"GitHub/contract-token-cryptoMonster/backend/shared/helpers/modifireFunc.sol\":1589:1599  msg.sender */\n      caller\n        /* \"GitHub/contract-token-cryptoMonster/backend/shared/helpers/modifireFunc.sol\":1576:1588  structUsers_ */\n      0x00\n        /* \"GitHub/contract-token-cryptoMonster/backend/shared/helpers/modifireFunc.sol\":1576:1600  structUsers_[msg.sender] */\n      swap1\n      dup2\n      mstore\n      0x20\n      dup2\n      swap1\n      mstore\n      0x40\n      swap1\n      keccak256\n        /* \"GitHub/contract-token-cryptoMonster/backend/shared/helpers/modifireFunc.sol\":1576:1605  structUsers_[msg.sender].role */\n      sload\n      0xff\n      and\n        /* \"GitHub/contract-token-cryptoMonster/backend/shared/helpers/modifireFunc.sol\":1576:1628  structUsers_[msg.sender].role != Role.SYSTEM_PRIVATE */\n      0x04\n      dup2\n      gt\n      iszero\n      tag_134\n      jumpi\n      tag_134\n      tag_86\n      jump\t// in\n    tag_134:\n      eq\n      iszero\n        /* \"GitHub/contract-token-cryptoMonster/backend/shared/helpers/modifireFunc.sol\":1441:1628  structUsers_[msg.sender].role != Role.SYSTEM_OWNER ||\r... */\n    tag_130:\n        /* \"GitHub/contract-token-cryptoMonster/backend/shared/helpers/modifireFunc.sol\":1441:1691  structUsers_[msg.sender].role != Role.SYSTEM_OWNER ||\r... */\n      dup1\n      tag_135\n      jumpi\n      pop\n        /* \"GitHub/contract-token-cryptoMonster/backend/shared/helpers/modifireFunc.sol\":1678:1691  Role.INVESTOR */\n      0x03\n        /* \"GitHub/contract-token-cryptoMonster/backend/shared/helpers/modifireFunc.sol\":1658:1668  msg.sender */\n      caller\n        /* \"GitHub/contract-token-cryptoMonster/backend/shared/helpers/modifireFunc.sol\":1645:1657  structUsers_ */\n      0x00\n        /* \"GitHub/contract-token-cryptoMonster/backend/shared/helpers/modifireFunc.sol\":1645:1669  structUsers_[msg.sender] */\n      swap1\n      dup2\n      mstore\n      0x20\n      dup2\n      swap1\n      mstore\n      0x40\n      swap1\n      keccak256\n        /* \"GitHub/contract-token-cryptoMonster/backend/shared/helpers/modifireFunc.sol\":1645:1674  structUsers_[msg.sender].role */\n      sload\n      0xff\n      and\n        /* \"GitHub/contract-token-cryptoMonster/backend/shared/helpers/modifireFunc.sol\":1645:1691  structUsers_[msg.sender].role != Role.INVESTOR */\n      0x04\n      dup2\n      gt\n      iszero\n      tag_139\n      jumpi\n      tag_139\n      tag_86\n      jump\t// in\n    tag_139:\n      eq\n      iszero\n        /* \"GitHub/contract-token-cryptoMonster/backend/shared/helpers/modifireFunc.sol\":1441:1691  structUsers_[msg.sender].role != Role.SYSTEM_OWNER ||\r... */\n    tag_135:\n        /* \"GitHub/contract-token-cryptoMonster/backend/shared/helpers/modifireFunc.sol\":1419:1756  require(\r... */\n      tag_140\n      jumpi\n      mload(0x40)\n      shl(0xe5, 0x461bcd)\n      dup2\n      mstore\n        /* \"#utility.yul\":6449:6451   */\n      0x20\n        /* \"GitHub/contract-token-cryptoMonster/backend/shared/helpers/modifireFunc.sol\":1419:1756  require(\r... */\n      0x04\n      dup3\n      add\n        /* \"#utility.yul\":6431:6452   */\n      mstore\n        /* \"#utility.yul\":6488:6490   */\n      0x32\n        /* \"#utility.yul\":6468:6486   */\n      0x24\n      dup3\n      add\n        /* \"#utility.yul\":6461:6491   */\n      mstore\n        /* \"#utility.yul\":6527:6561   */\n      0x4170706c69636174696f6e2063616e206f6e6c79206265207375626d69747465\n        /* \"#utility.yul\":6507:6525   */\n      0x44\n      dup3\n      add\n        /* \"#utility.yul\":6500:6562   */\n      mstore\n      shl(0x70, 0x6420627920726567756c6172207573657273)\n        /* \"#utility.yul\":6578:6596   */\n      0x64\n      dup3\n      add\n        /* \"#utility.yul\":6571:6619   */\n      mstore\n        /* \"#utility.yul\":6636:6655   */\n      0x84\n      add\n        /* \"GitHub/contract-token-cryptoMonster/backend/shared/helpers/modifireFunc.sol\":1419:1756  require(\r... */\n      tag_90\n        /* \"#utility.yul\":6247:6661   */\n      jump\n        /* \"GitHub/contract-token-cryptoMonster/backend/shared/helpers/modifireFunc.sol\":1419:1756  require(\r... */\n    tag_140:\n        /* \"GitHub/contract-token-cryptoMonster/backend/components/PhasePrivate.sol\":480:522  0xAb8483F64d9C6d1EcF9b849Ae677dD3315835cb2 */\n      0xab8483f64d9c6d1ecf9b849ae677dd3315835cb2\n        /* \"GitHub/contract-token-cryptoMonster/backend/components/PhasePrivate.sol\":424:439  bool _tempExist */\n      0x00\n        /* \"GitHub/contract-token-cryptoMonster/backend/components/PhasePrivate.sol\":466:523  structPhases_[0xAb8483F64d9C6d1EcF9b849Ae677dD3315835cb2] */\n      swap1\n      dup2\n      mstore\n        /* \"GitHub/contract-token-cryptoMonster/backend/components/PhasePrivate.sol\":466:479  structPhases_ */\n      0x04\n        /* \"GitHub/contract-token-cryptoMonster/backend/components/PhasePrivate.sol\":466:523  structPhases_[0xAb8483F64d9C6d1EcF9b849Ae677dD3315835cb2] */\n      0x20\n      mstore\n      0x00\n      dup1\n      mload\n      0x20\n      data_210f354537685f9e5e046d4cb2f76e07344954c6dc3e59ff15ac4b676d448167\n      dup4\n      codecopy\n      dup2\n      mload\n      swap2\n      mstore\n        /* \"GitHub/contract-token-cryptoMonster/backend/components/PhasePrivate.sol\":466:535  structPhases_[0xAb8483F64d9C6d1EcF9b849Ae677dD3315835cb2].statusPhase */\n      sload\n      0xff\n      and\n        /* \"GitHub/contract-token-cryptoMonster/backend/components/PhasePrivate.sol\":466:544  structPhases_[0xAb8483F64d9C6d1EcF9b849Ae677dD3315835cb2].statusPhase == false */\n      iszero\n      dup1\n      iszero\n        /* \"GitHub/contract-token-cryptoMonster/backend/components/PhasePrivate.sol\":466:626  structPhases_[0xAb8483F64d9C6d1EcF9b849Ae677dD3315835cb2].statusPhase == false && structPhases_[0xAb8483F64d9C6d1EcF9b849Ae677dD3315835cb2].statusPhase == false */\n      tag_144\n      jumpi\n      pop\n        /* \"GitHub/contract-token-cryptoMonster/backend/components/PhasePrivate.sol\":562:604  0xAb8483F64d9C6d1EcF9b849Ae677dD3315835cb2 */\n      0xab8483f64d9c6d1ecf9b849ae677dd3315835cb2\n        /* \"GitHub/contract-token-cryptoMonster/backend/components/PhasePrivate.sol\":548:605  structPhases_[0xAb8483F64d9C6d1EcF9b849Ae677dD3315835cb2] */\n      0x00\n      mstore\n        /* \"GitHub/contract-token-cryptoMonster/backend/components/PhasePrivate.sol\":548:561  structPhases_ */\n      0x04\n        /* \"GitHub/contract-token-cryptoMonster/backend/components/PhasePrivate.sol\":548:605  structPhases_[0xAb8483F64d9C6d1EcF9b849Ae677dD3315835cb2] */\n      0x20\n      mstore\n      0x00\n      dup1\n      mload\n      0x20\n      data_210f354537685f9e5e046d4cb2f76e07344954c6dc3e59ff15ac4b676d448167\n      dup4\n      codecopy\n      dup2\n      mload\n      swap2\n      mstore\n        /* \"GitHub/contract-token-cryptoMonster/backend/components/PhasePrivate.sol\":548:617  structPhases_[0xAb8483F64d9C6d1EcF9b849Ae677dD3315835cb2].statusPhase */\n      sload\n      0xff\n      and\n        /* \"GitHub/contract-token-cryptoMonster/backend/components/PhasePrivate.sol\":548:626  structPhases_[0xAb8483F64d9C6d1EcF9b849Ae677dD3315835cb2].statusPhase == false */\n      iszero\n        /* \"GitHub/contract-token-cryptoMonster/backend/components/PhasePrivate.sol\":466:626  structPhases_[0xAb8483F64d9C6d1EcF9b849Ae677dD3315835cb2].statusPhase == false && structPhases_[0xAb8483F64d9C6d1EcF9b849Ae677dD3315835cb2].statusPhase == false */\n    tag_144:\n        /* \"GitHub/contract-token-cryptoMonster/backend/components/PhasePrivate.sol\":458:654  require(structPhases_[0xAb8483F64d9C6d1EcF9b849Ae677dD3315835cb2].statusPhase == false && structPhases_[0xAb8483F64d9C6d1EcF9b849Ae677dD3315835cb2].statusPhase == false, \"Application phase ended\") */\n      tag_145\n      jumpi\n      mload(0x40)\n      shl(0xe5, 0x461bcd)\n      dup2\n      mstore\n        /* \"#utility.yul\":7926:7928   */\n      0x20\n        /* \"GitHub/contract-token-cryptoMonster/backend/components/PhasePrivate.sol\":458:654  require(structPhases_[0xAb8483F64d9C6d1EcF9b849Ae677dD3315835cb2].statusPhase == false && structPhases_[0xAb8483F64d9C6d1EcF9b849Ae677dD3315835cb2].statusPhase == false, \"Application phase ended\") */\n      0x04\n      dup3\n      add\n        /* \"#utility.yul\":7908:7929   */\n      mstore\n        /* \"#utility.yul\":7965:7967   */\n      0x17\n        /* \"#utility.yul\":7945:7963   */\n      0x24\n      dup3\n      add\n        /* \"#utility.yul\":7938:7968   */\n      mstore\n      shl(0x4a, 0x105c1c1b1a58d85d1a5bdb881c1a185cd948195b991959)\n        /* \"#utility.yul\":7984:8002   */\n      0x44\n      dup3\n      add\n        /* \"#utility.yul\":7977:8030   */\n      mstore\n        /* \"#utility.yul\":8047:8065   */\n      0x64\n      add\n        /* \"GitHub/contract-token-cryptoMonster/backend/components/PhasePrivate.sol\":458:654  require(structPhases_[0xAb8483F64d9C6d1EcF9b849Ae677dD3315835cb2].statusPhase == false && structPhases_[0xAb8483F64d9C6d1EcF9b849Ae677dD3315835cb2].statusPhase == false, \"Application phase ended\") */\n      tag_90\n        /* \"#utility.yul\":7724:8071   */\n      jump\n        /* \"GitHub/contract-token-cryptoMonster/backend/components/PhasePrivate.sol\":458:654  require(structPhases_[0xAb8483F64d9C6d1EcF9b849Ae677dD3315835cb2].statusPhase == false && structPhases_[0xAb8483F64d9C6d1EcF9b849Ae677dD3315835cb2].statusPhase == false, \"Application phase ended\") */\n    tag_145:\n        /* \"GitHub/contract-token-cryptoMonster/backend/components/PhasePrivate.sol\":778:788  msg.sender */\n      caller\n      sub(shl(0xa0, 0x01), 0x01)\n        /* \"GitHub/contract-token-cryptoMonster/backend/components/PhasePrivate.sol\":778:800  msg.sender == _userAdr */\n      dup4\n      and\n      eq\n        /* \"GitHub/contract-token-cryptoMonster/backend/components/PhasePrivate.sol\":770:860  require(msg.sender == _userAdr, \"You can't send an application to someone else's address\") */\n      tag_148\n      jumpi\n      mload(0x40)\n      shl(0xe5, 0x461bcd)\n      dup2\n      mstore\n        /* \"#utility.yul\":8278:8280   */\n      0x20\n        /* \"GitHub/contract-token-cryptoMonster/backend/components/PhasePrivate.sol\":770:860  require(msg.sender == _userAdr, \"You can't send an application to someone else's address\") */\n      0x04\n      dup3\n      add\n        /* \"#utility.yul\":8260:8281   */\n      mstore\n        /* \"#utility.yul\":8317:8319   */\n      0x37\n        /* \"#utility.yul\":8297:8315   */\n      0x24\n      dup3\n      add\n        /* \"#utility.yul\":8290:8320   */\n      mstore\n        /* \"#utility.yul\":8356:8390   */\n      0x596f752063616e27742073656e6420616e206170706c69636174696f6e20746f\n        /* \"#utility.yul\":8336:8354   */\n      0x44\n      dup3\n      add\n        /* \"#utility.yul\":8329:8391   */\n      mstore\n      shl(0x48, 0x20736f6d656f6e6520656c736527732061646472657373)\n        /* \"#utility.yul\":8407:8425   */\n      0x64\n      dup3\n      add\n        /* \"#utility.yul\":8400:8453   */\n      mstore\n        /* \"#utility.yul\":8470:8489   */\n      0x84\n      add\n        /* \"GitHub/contract-token-cryptoMonster/backend/components/PhasePrivate.sol\":770:860  require(msg.sender == _userAdr, \"You can't send an application to someone else's address\") */\n      tag_90\n        /* \"#utility.yul\":8076:8495   */\n      jump\n        /* \"GitHub/contract-token-cryptoMonster/backend/components/PhasePrivate.sol\":770:860  require(msg.sender == _userAdr, \"You can't send an application to someone else's address\") */\n    tag_148:\n        /* \"GitHub/contract-token-cryptoMonster/backend/components/PhasePrivate.sol\":876:882  uint i */\n      0x00\n        /* \"GitHub/contract-token-cryptoMonster/backend/components/PhasePrivate.sol\":871:1200  for (uint i = 0; i < structApplicationsAmountAdr.length; i++) {\r... */\n    tag_151:\n        /* \"GitHub/contract-token-cryptoMonster/backend/components/PhasePrivate.sol\":892:919  structApplicationsAmountAdr */\n      0x06\n        /* \"GitHub/contract-token-cryptoMonster/backend/components/PhasePrivate.sol\":892:926  structApplicationsAmountAdr.length */\n      sload\n        /* \"GitHub/contract-token-cryptoMonster/backend/components/PhasePrivate.sol\":888:926  i < structApplicationsAmountAdr.length */\n      dup2\n      lt\n        /* \"GitHub/contract-token-cryptoMonster/backend/components/PhasePrivate.sol\":871:1200  for (uint i = 0; i < structApplicationsAmountAdr.length; i++) {\r... */\n      iszero\n      tag_152\n      jumpi\n        /* \"GitHub/contract-token-cryptoMonster/backend/components/PhasePrivate.sol\":986:996  msg.sender */\n      caller\n      sub(shl(0xa0, 0x01), 0x01)\n        /* \"GitHub/contract-token-cryptoMonster/backend/components/PhasePrivate.sol\":952:996  structApplicationsAmountAdr[i] == msg.sender */\n      and\n        /* \"GitHub/contract-token-cryptoMonster/backend/components/PhasePrivate.sol\":952:979  structApplicationsAmountAdr */\n      0x06\n        /* \"GitHub/contract-token-cryptoMonster/backend/components/PhasePrivate.sol\":980:981  i */\n      dup3\n        /* \"GitHub/contract-token-cryptoMonster/backend/components/PhasePrivate.sol\":952:982  structApplicationsAmountAdr[i] */\n      dup2\n      sload\n      dup2\n      lt\n      tag_155\n      jumpi\n      tag_155\n      tag_156\n      jump\t// in\n    tag_155:\n      0x00\n      swap2\n      dup3\n      mstore\n      0x20\n      swap1\n      swap2\n      keccak256\n      add\n      sload\n      sub(shl(0xa0, 0x01), 0x01)\n      and\n        /* \"GitHub/contract-token-cryptoMonster/backend/components/PhasePrivate.sol\":952:996  structApplicationsAmountAdr[i] == msg.sender */\n      eq\n        /* \"GitHub/contract-token-cryptoMonster/backend/components/PhasePrivate.sol\":948:1050  if (structApplicationsAmountAdr[i] == msg.sender) {\r... */\n      iszero\n      tag_158\n      jumpi\n        /* \"GitHub/contract-token-cryptoMonster/backend/components/PhasePrivate.sol\":1030:1034  true */\n      0x01\n        /* \"GitHub/contract-token-cryptoMonster/backend/components/PhasePrivate.sol\":1017:1034  _tempExist = true */\n      swap2\n      pop\n        /* \"GitHub/contract-token-cryptoMonster/backend/components/PhasePrivate.sol\":948:1050  if (structApplicationsAmountAdr[i] == msg.sender) {\r... */\n    tag_158:\n        /* \"GitHub/contract-token-cryptoMonster/backend/components/PhasePrivate.sol\":1072:1091  _tempExist == false */\n      dup2\n      iszero\n        /* \"GitHub/contract-token-cryptoMonster/backend/components/PhasePrivate.sol\":1064:1120  require(_tempExist == false, \"Application already sent\") */\n      tag_159\n      jumpi\n      mload(0x40)\n      shl(0xe5, 0x461bcd)\n      dup2\n      mstore\n        /* \"#utility.yul\":5275:5277   */\n      0x20\n        /* \"GitHub/contract-token-cryptoMonster/backend/components/PhasePrivate.sol\":1064:1120  require(_tempExist == false, \"Application already sent\") */\n      0x04\n      dup3\n      add\n        /* \"#utility.yul\":5257:5278   */\n      mstore\n        /* \"#utility.yul\":5314:5316   */\n      0x18\n        /* \"#utility.yul\":5294:5312   */\n      0x24\n      dup3\n      add\n        /* \"#utility.yul\":5287:5317   */\n      mstore\n      shl(0x42, 0x105c1c1b1a58d85d1a5bdb88185b1c9958591e481cd95b9d)\n        /* \"#utility.yul\":5333:5351   */\n      0x44\n      dup3\n      add\n        /* \"#utility.yul\":5326:5380   */\n      mstore\n        /* \"#utility.yul\":5397:5415   */\n      0x64\n      add\n        /* \"GitHub/contract-token-cryptoMonster/backend/components/PhasePrivate.sol\":1064:1120  require(_tempExist == false, \"Application already sent\") */\n      tag_90\n        /* \"#utility.yul\":5073:5421   */\n      jump\n        /* \"GitHub/contract-token-cryptoMonster/backend/components/PhasePrivate.sol\":1064:1120  require(_tempExist == false, \"Application already sent\") */\n    tag_159:\n        /* \"GitHub/contract-token-cryptoMonster/backend/components/PhasePrivate.sol\":928:931  i++ */\n      dup1\n      tag_162\n      dup2\n      tag_163\n      jump\t// in\n    tag_162:\n      swap2\n      pop\n      pop\n        /* \"GitHub/contract-token-cryptoMonster/backend/components/PhasePrivate.sol\":871:1200  for (uint i = 0; i < structApplicationsAmountAdr.length; i++) {\r... */\n      jump(tag_151)\n    tag_152:\n      pop\n        /* \"GitHub/contract-token-cryptoMonster/backend/components/PhasePrivate.sol\":1237:1247  msg.sender */\n      caller\n        /* \"GitHub/contract-token-cryptoMonster/backend/components/PhasePrivate.sol\":1218:1248  strucApplications_[msg.sender] */\n      0x00\n      swap1\n      dup2\n      mstore\n        /* \"GitHub/contract-token-cryptoMonster/backend/components/PhasePrivate.sol\":1218:1236  strucApplications_ */\n      0x05\n        /* \"GitHub/contract-token-cryptoMonster/backend/components/PhasePrivate.sol\":1218:1248  strucApplications_[msg.sender] */\n      0x20\n      mstore\n      0x40\n      swap1\n      keccak256\n        /* \"GitHub/contract-token-cryptoMonster/backend/components/PhasePrivate.sol\":1218:1255  strucApplications_[msg.sender].status */\n      0x02\n      add\n      sload\n      shl(0xa0, 0x01)\n      swap1\n      div\n      0xff\n      and\n        /* \"GitHub/contract-token-cryptoMonster/backend/components/PhasePrivate.sol\":1218:1264  strucApplications_[msg.sender].status == false */\n      iszero\n        /* \"GitHub/contract-token-cryptoMonster/backend/components/PhasePrivate.sol\":1210:1311  require(strucApplications_[msg.sender].status == false, \"Your application has already been rejected\") */\n      tag_164\n      jumpi\n      mload(0x40)\n      shl(0xe5, 0x461bcd)\n      dup2\n      mstore\n        /* \"#utility.yul\":5628:5630   */\n      0x20\n        /* \"GitHub/contract-token-cryptoMonster/backend/components/PhasePrivate.sol\":1210:1311  require(strucApplications_[msg.sender].status == false, \"Your application has already been rejected\") */\n      0x04\n      dup3\n      add\n        /* \"#utility.yul\":5610:5631   */\n      mstore\n        /* \"#utility.yul\":5667:5669   */\n      0x2a\n        /* \"#utility.yul\":5647:5665   */\n      0x24\n      dup3\n      add\n        /* \"#utility.yul\":5640:5670   */\n      mstore\n        /* \"#utility.yul\":5706:5740   */\n      0x596f7572206170706c69636174696f6e2068617320616c726561647920626565\n        /* \"#utility.yul\":5686:5704   */\n      0x44\n      dup3\n      add\n        /* \"#utility.yul\":5679:5741   */\n      mstore\n      shl(0xb2, 0x1b881c995a9958dd1959)\n        /* \"#utility.yul\":5757:5775   */\n      0x64\n      dup3\n      add\n        /* \"#utility.yul\":5750:5790   */\n      mstore\n        /* \"#utility.yul\":5807:5826   */\n      0x84\n      add\n        /* \"GitHub/contract-token-cryptoMonster/backend/components/PhasePrivate.sol\":1210:1311  require(strucApplications_[msg.sender].status == false, \"Your application has already been rejected\") */\n      tag_90\n        /* \"#utility.yul\":5426:5832   */\n      jump\n        /* \"GitHub/contract-token-cryptoMonster/backend/components/PhasePrivate.sol\":1210:1311  require(strucApplications_[msg.sender].status == false, \"Your application has already been rejected\") */\n    tag_164:\n        /* \"GitHub/contract-token-cryptoMonster/backend/components/PhasePrivate.sol\":1428:1507  structApplication(_name, _contactForCommunication, _userAdr, true, false, true) */\n      0x40\n      dup1\n      mload\n      0xc0\n      dup2\n      add\n      dup3\n      mstore\n      dup6\n      dup2\n      mstore\n      0x20\n      dup1\n      dup3\n      add\n      dup7\n      swap1\n      mstore\n      sub(shl(0xa0, 0x01), 0x01)\n      dup6\n      and\n      dup3\n      dup5\n      add\n      mstore\n        /* \"GitHub/contract-token-cryptoMonster/backend/components/PhasePrivate.sol\":1489:1493  true */\n      0x01\n        /* \"GitHub/contract-token-cryptoMonster/backend/components/PhasePrivate.sol\":1428:1507  structApplication(_name, _contactForCommunication, _userAdr, true, false, true) */\n      0x60\n      dup4\n      add\n      dup2\n      swap1\n      mstore\n      0x00\n      0x80\n      dup5\n      add\n      dup2\n      swap1\n      mstore\n      0xa0\n      dup5\n      add\n      swap2\n      swap1\n      swap2\n      mstore\n        /* \"GitHub/contract-token-cryptoMonster/backend/components/PhasePrivate.sol\":1413:1423  msg.sender */\n      caller\n        /* \"GitHub/contract-token-cryptoMonster/backend/components/PhasePrivate.sol\":1394:1424  strucApplications_[msg.sender] */\n      dup2\n      mstore\n        /* \"GitHub/contract-token-cryptoMonster/backend/components/PhasePrivate.sol\":1394:1412  strucApplications_ */\n      0x05\n        /* \"GitHub/contract-token-cryptoMonster/backend/components/PhasePrivate.sol\":1394:1424  strucApplications_[msg.sender] */\n      dup3\n      mstore\n      swap3\n      swap1\n      swap3\n      keccak256\n        /* \"GitHub/contract-token-cryptoMonster/backend/components/PhasePrivate.sol\":1394:1507  strucApplications_[msg.sender]  = structApplication(_name, _contactForCommunication, _userAdr, true, false, true) */\n      dup2\n      mload\n      dup1\n      mload\n        /* \"GitHub/contract-token-cryptoMonster/backend/components/PhasePrivate.sol\":1428:1507  structApplication(_name, _contactForCommunication, _userAdr, true, false, true) */\n      swap3\n      swap4\n        /* \"GitHub/contract-token-cryptoMonster/backend/components/PhasePrivate.sol\":1394:1424  strucApplications_[msg.sender] */\n      swap2\n      swap3\n        /* \"GitHub/contract-token-cryptoMonster/backend/components/PhasePrivate.sol\":1394:1507  strucApplications_[msg.sender]  = structApplication(_name, _contactForCommunication, _userAdr, true, false, true) */\n      tag_167\n      swap3\n        /* \"GitHub/contract-token-cryptoMonster/backend/components/PhasePrivate.sol\":1394:1424  strucApplications_[msg.sender] */\n      dup5\n      swap3\n        /* \"GitHub/contract-token-cryptoMonster/backend/components/PhasePrivate.sol\":1394:1507  strucApplications_[msg.sender]  = structApplication(_name, _contactForCommunication, _userAdr, true, false, true) */\n      add\n      swap1\n      tag_168\n      jump\t// in\n    tag_167:\n      pop\n      0x20\n      dup3\n      dup2\n      add\n      mload\n      dup1\n      mload\n      tag_169\n      swap3\n      0x01\n      dup6\n      add\n      swap3\n      add\n      swap1\n      tag_168\n      jump\t// in\n    tag_169:\n      pop\n      0x40\n      dup3\n      add\n      mload\n      0x02\n      swap1\n      swap2\n      add\n      dup1\n      sload\n      0x60\n      dup5\n      add\n      mload\n      0x80\n      dup6\n      add\n      mload\n      0xa0\n      swap1\n      swap6\n      add\n      mload\n      iszero\n      iszero\n      shl(0xb0, 0x01)\n      mul\n      not(shl(0xb0, 0xff))\n      swap6\n      iszero\n      iszero\n      shl(0xa8, 0x01)\n      mul\n      swap6\n      swap1\n      swap6\n      and\n      not(shl(0xa8, 0xffff))\n      swap2\n      iszero\n      iszero\n      shl(0xa0, 0x01)\n      mul\n      not(sub(shl(0xa8, 0x01), 0x01))\n      swap1\n      swap4\n      and\n      sub(shl(0xa0, 0x01), 0x01)\n      swap1\n      swap6\n      and\n      swap5\n      swap1\n      swap5\n      or\n      swap2\n      swap1\n      swap2\n      or\n      and\n      swap2\n      swap1\n      swap2\n      or\n      swap2\n      swap1\n      swap2\n      or\n      swap1\n      sstore\n      pop\n      pop\n        /* \"GitHub/contract-token-cryptoMonster/backend/components/PhasePrivate.sol\":1576:1603  structApplicationsAmountAdr */\n      0x06\n        /* \"GitHub/contract-token-cryptoMonster/backend/components/PhasePrivate.sol\":1576:1620  structApplicationsAmountAdr.push(msg.sender) */\n      dup1\n      sload\n        /* \"GitHub/contract-token-cryptoMonster/backend/components/PhasePrivate.sol\":1394:1507  strucApplications_[msg.sender]  = structApplication(_name, _contactForCommunication, _userAdr, true, false, true) */\n      0x01\n        /* \"GitHub/contract-token-cryptoMonster/backend/components/PhasePrivate.sol\":1576:1620  structApplicationsAmountAdr.push(msg.sender) */\n      dup2\n      add\n      dup3\n      sstore\n        /* \"GitHub/contract-token-cryptoMonster/backend/components/PhasePrivate.sol\":1394:1507  strucApplications_[msg.sender]  = structApplication(_name, _contactForCommunication, _userAdr, true, false, true) */\n      0x00\n        /* \"GitHub/contract-token-cryptoMonster/backend/components/PhasePrivate.sol\":1576:1620  structApplicationsAmountAdr.push(msg.sender) */\n      swap2\n      swap1\n      swap2\n      mstore\n      0x00\n      dup1\n      mload\n      0x20\n      data_b868bdfa8727775661e4ccf117824a175a33f8703d728c04488fbfffcafda9f9\n      dup4\n      codecopy\n      dup2\n      mload\n      swap2\n      mstore\n      add\n      dup1\n      sload\n      not(sub(shl(0xa0, 0x01), 0x01))\n      and\n        /* \"GitHub/contract-token-cryptoMonster/backend/components/PhasePrivate.sol\":1609:1619  msg.sender */\n      caller\n        /* \"GitHub/contract-token-cryptoMonster/backend/components/PhasePrivate.sol\":1576:1620  structApplicationsAmountAdr.push(msg.sender) */\n      or\n      swap1\n      sstore\n      pop\n      pop\n        /* \"GitHub/contract-token-cryptoMonster/backend/components/PhasePrivate.sol\":297:1761  function application(string memory _name, string memory _contactForCommunication, address _userAdr) public onlyUser {\r... */\n      jump\t// out\n        /* \"GitHub/contract-token-cryptoMonster/backend/components/PhasePrivate.sol\":3863:4295  function endPrivatePhase () public onlyPrivateProvider {\r... */\n    tag_47:\n        /* \"GitHub/contract-token-cryptoMonster/backend/shared/helpers/modifireFunc.sol\":567:586  Role.SYSTEM_PRIVATE */\n      0x02\n        /* \"GitHub/contract-token-cryptoMonster/backend/shared/helpers/modifireFunc.sol\":547:557  msg.sender */\n      caller\n        /* \"GitHub/contract-token-cryptoMonster/backend/shared/helpers/modifireFunc.sol\":534:546  structUsers_ */\n      0x00\n        /* \"GitHub/contract-token-cryptoMonster/backend/shared/helpers/modifireFunc.sol\":534:558  structUsers_[msg.sender] */\n      swap1\n      dup2\n      mstore\n      0x20\n      dup2\n      swap1\n      mstore\n      0x40\n      swap1\n      keccak256\n        /* \"GitHub/contract-token-cryptoMonster/backend/shared/helpers/modifireFunc.sol\":534:563  structUsers_[msg.sender].role */\n      sload\n      0xff\n      and\n        /* \"GitHub/contract-token-cryptoMonster/backend/shared/helpers/modifireFunc.sol\":534:586  structUsers_[msg.sender].role == Role.SYSTEM_PRIVATE */\n      0x04\n      dup2\n      gt\n      iszero\n      tag_175\n      jumpi\n      tag_175\n      tag_86\n      jump\t// in\n    tag_175:\n      eq\n        /* \"GitHub/contract-token-cryptoMonster/backend/shared/helpers/modifireFunc.sol\":526:616  require(structUsers_[msg.sender].role == Role.SYSTEM_PRIVATE, \"Your not Private provider\") */\n      tag_176\n      jumpi\n      mload(0x40)\n      shl(0xe5, 0x461bcd)\n      dup2\n      mstore\n      0x04\n      add\n      tag_90\n      swap1\n      tag_91\n      jump\t// in\n    tag_176:\n        /* \"GitHub/contract-token-cryptoMonster/backend/components/PhasePrivate.sol\":3951:3961  msg.sender */\n      caller\n        /* \"GitHub/contract-token-cryptoMonster/backend/components/PhasePrivate.sol\":3937:3962  structPhases_[msg.sender] */\n      0x00\n      swap1\n      dup2\n      mstore\n        /* \"GitHub/contract-token-cryptoMonster/backend/components/PhasePrivate.sol\":3937:3950  structPhases_ */\n      0x04\n        /* \"GitHub/contract-token-cryptoMonster/backend/components/PhasePrivate.sol\":3937:3962  structPhases_[msg.sender] */\n      0x20\n      mstore\n      0x40\n      swap1\n      keccak256\n        /* \"GitHub/contract-token-cryptoMonster/backend/components/PhasePrivate.sol\":3937:3974  structPhases_[msg.sender].statusPhase */\n      sload\n      0xff\n      and\n        /* \"GitHub/contract-token-cryptoMonster/backend/components/PhasePrivate.sol\":3937:3982  structPhases_[msg.sender].statusPhase == true */\n      iszero\n      iszero\n        /* \"GitHub/contract-token-cryptoMonster/backend/components/PhasePrivate.sol\":3937:3974  structPhases_[msg.sender].statusPhase */\n      0x01\n        /* \"GitHub/contract-token-cryptoMonster/backend/components/PhasePrivate.sol\":3937:3982  structPhases_[msg.sender].statusPhase == true */\n      eq\n        /* \"GitHub/contract-token-cryptoMonster/backend/components/PhasePrivate.sol\":3937:4028  structPhases_[msg.sender].statusPhase == true && structPhases_[msg.sender].reviewed == true */\n      dup1\n      iszero\n      tag_179\n      jumpi\n      pop\n        /* \"GitHub/contract-token-cryptoMonster/backend/components/PhasePrivate.sol\":4000:4010  msg.sender */\n      caller\n        /* \"GitHub/contract-token-cryptoMonster/backend/components/PhasePrivate.sol\":3986:4011  structPhases_[msg.sender] */\n      0x00\n      swap1\n      dup2\n      mstore\n        /* \"GitHub/contract-token-cryptoMonster/backend/components/PhasePrivate.sol\":3986:3999  structPhases_ */\n      0x04\n        /* \"GitHub/contract-token-cryptoMonster/backend/components/PhasePrivate.sol\":3986:4011  structPhases_[msg.sender] */\n      0x20\n      mstore\n      0x40\n      swap1\n      keccak256\n        /* \"GitHub/contract-token-cryptoMonster/backend/components/PhasePrivate.sol\":3986:4020  structPhases_[msg.sender].reviewed */\n      sload\n      0xff\n      0x0100\n      swap1\n      swap2\n      div\n      and\n        /* \"GitHub/contract-token-cryptoMonster/backend/components/PhasePrivate.sol\":3986:4028  structPhases_[msg.sender].reviewed == true */\n      iszero\n      iszero\n        /* \"GitHub/contract-token-cryptoMonster/backend/components/PhasePrivate.sol\":3986:4020  structPhases_[msg.sender].reviewed */\n      0x01\n        /* \"GitHub/contract-token-cryptoMonster/backend/components/PhasePrivate.sol\":3986:4028  structPhases_[msg.sender].reviewed == true */\n      eq\n        /* \"GitHub/contract-token-cryptoMonster/backend/components/PhasePrivate.sol\":3937:4028  structPhases_[msg.sender].statusPhase == true && structPhases_[msg.sender].reviewed == true */\n    tag_179:\n        /* \"GitHub/contract-token-cryptoMonster/backend/components/PhasePrivate.sol\":3929:4065  require(structPhases_[msg.sender].statusPhase == true && structPhases_[msg.sender].reviewed == true, \"Phase has not yet been activated\") */\n      tag_180\n      jumpi\n      mload(0x40)\n      shl(0xe5, 0x461bcd)\n      dup2\n      mstore\n        /* \"#utility.yul\":6868:6870   */\n      0x20\n        /* \"GitHub/contract-token-cryptoMonster/backend/components/PhasePrivate.sol\":3929:4065  require(structPhases_[msg.sender].statusPhase == true && structPhases_[msg.sender].reviewed == true, \"Phase has not yet been activated\") */\n      0x04\n      dup3\n      add\n        /* \"#utility.yul\":6850:6871   */\n      dup2\n      swap1\n      mstore\n        /* \"#utility.yul\":6887:6905   */\n      0x24\n      dup3\n      add\n        /* \"#utility.yul\":6880:6910   */\n      mstore\n        /* \"#utility.yul\":6946:6980   */\n      0x506861736520686173206e6f7420796574206265656e20616374697661746564\n        /* \"#utility.yul\":6926:6944   */\n      0x44\n      dup3\n      add\n        /* \"#utility.yul\":6919:6981   */\n      mstore\n        /* \"#utility.yul\":6998:7016   */\n      0x64\n      add\n        /* \"GitHub/contract-token-cryptoMonster/backend/components/PhasePrivate.sol\":3929:4065  require(structPhases_[msg.sender].statusPhase == true && structPhases_[msg.sender].reviewed == true, \"Phase has not yet been activated\") */\n      tag_90\n        /* \"#utility.yul\":6666:7022   */\n      jump\n        /* \"GitHub/contract-token-cryptoMonster/backend/components/PhasePrivate.sol\":3929:4065  require(structPhases_[msg.sender].statusPhase == true && structPhases_[msg.sender].reviewed == true, \"Phase has not yet been activated\") */\n    tag_180:\n        /* \"GitHub/contract-token-cryptoMonster/backend/components/PhasePrivate.sol\":4104:4128  structPhase(false, true) */\n      0x40\n      dup1\n      mload\n      dup1\n      dup3\n      add\n      dup3\n      mstore\n      0x00\n      dup1\n      dup3\n      mstore\n      0x01\n      0x20\n      dup1\n      dup5\n      add\n      dup3\n      dup2\n      mstore\n        /* \"GitHub/contract-token-cryptoMonster/backend/components/PhasePrivate.sol\":4090:4100  msg.sender */\n      caller\n        /* \"GitHub/contract-token-cryptoMonster/backend/components/PhasePrivate.sol\":4076:4101  structPhases_[msg.sender] */\n      dup5\n      mstore\n        /* \"GitHub/contract-token-cryptoMonster/backend/components/PhasePrivate.sol\":4076:4089  structPhases_ */\n      0x04\n        /* \"GitHub/contract-token-cryptoMonster/backend/components/PhasePrivate.sol\":4076:4101  structPhases_[msg.sender] */\n      dup1\n      dup4\n      mstore\n      dup7\n      dup6\n      keccak256\n        /* \"GitHub/contract-token-cryptoMonster/backend/components/PhasePrivate.sol\":4076:4128  structPhases_[msg.sender] = structPhase(false, true) */\n      swap6\n      mload\n      dup7\n      sload\n      swap3\n      mload\n      iszero\n      iszero\n      0x0100\n      swap1\n      dup2\n      mul\n      not(0xff00)\n      swap3\n      iszero\n      iszero\n      dup4\n      and\n      not(0xffff)\n      swap6\n      dup7\n      and\n      or\n      or\n      swap1\n      swap8\n      sstore\n        /* \"GitHub/contract-token-cryptoMonster/backend/components/PhasePrivate.sol\":4199:4222  structPhase(true, true) */\n      dup8\n      mload\n      dup1\n      dup10\n      add\n      swap1\n      swap9\n      mstore\n      dup5\n      dup9\n      mstore\n      dup8\n      dup5\n      add\n      swap5\n      dup6\n      mstore\n        /* \"GitHub/contract-token-cryptoMonster/backend/components/PhasePrivate.sol\":4153:4195  0x4B20993Bc481177ec7E8f571ceCaE8A9e22C02db */\n      0x4b20993bc481177ec7e8f571cecae8a9e22c02db\n        /* \"GitHub/contract-token-cryptoMonster/backend/components/PhasePrivate.sol\":4139:4196  structPhases_[0x4B20993Bc481177ec7E8f571ceCaE8A9e22C02db] */\n      swap1\n      swap6\n      mstore\n      swap1\n      swap2\n      mstore\n        /* \"GitHub/contract-token-cryptoMonster/backend/components/PhasePrivate.sol\":4139:4222  structPhases_[0x4B20993Bc481177ec7E8f571ceCaE8A9e22C02db] = structPhase(true, true) */\n      swap4\n      mload\n        /* \"GitHub/contract-token-cryptoMonster/backend/components/PhasePrivate.sol\":4139:4196  structPhases_[0x4B20993Bc481177ec7E8f571ceCaE8A9e22C02db] */\n      0xb9fe4b740977877e3fa94e7f3dbf51ffcc3fb0449ed024e5d3849f3210d56220\n        /* \"GitHub/contract-token-cryptoMonster/backend/components/PhasePrivate.sol\":4139:4222  structPhases_[0x4B20993Bc481177ec7E8f571ceCaE8A9e22C02db] = structPhase(true, true) */\n      dup1\n      sload\n      swap3\n      mload\n      iszero\n      iszero\n      swap1\n      swap5\n      mul\n      swap1\n      iszero\n      iszero\n      swap1\n      swap3\n      and\n      swap4\n      and\n      swap3\n      swap1\n      swap3\n      or\n      swap2\n      swap1\n      swap2\n      or\n      swap1\n      sstore\n        /* \"GitHub/contract-token-cryptoMonster/backend/components/PhasePrivate.sol\":4247:4257  1000000000 */\n      0x3b9aca00\n        /* \"GitHub/contract-token-cryptoMonster/backend/components/PhasePrivate.sol\":4233:4244  tokenPrice_ */\n      0x02\n        /* \"GitHub/contract-token-cryptoMonster/backend/components/PhasePrivate.sol\":4233:4257  tokenPrice_ = 1000000000 */\n      sstore\n        /* \"GitHub/contract-token-cryptoMonster/backend/components/PhasePrivate.sol\":4283:4287  5000 */\n      0x1388\n        /* \"GitHub/contract-token-cryptoMonster/backend/components/PhasePrivate.sol\":4268:4280  tokenAmount_ */\n      0x03\n        /* \"GitHub/contract-token-cryptoMonster/backend/components/PhasePrivate.sol\":4268:4287  tokenAmount_ = 5000 */\n      sstore\n        /* \"GitHub/contract-token-cryptoMonster/backend/components/PhasePrivate.sol\":3863:4295  function endPrivatePhase () public onlyPrivateProvider {\r... */\n      jump\t// out\n        /* \"GitHub/contract-token-cryptoMonster/backend/shared/helpers/helpresFunc.sol\":632:742  function get_blackList() public onlyOwner view returns (address[] memory) {\r... */\n    tag_49:\n        /* \"GitHub/contract-token-cryptoMonster/backend/shared/helpers/helpresFunc.sol\":688:704  address[] memory */\n      0x60\n        /* \"GitHub/contract-token-cryptoMonster/backend/shared/helpers/modifireFunc.sol\":320:337  Role.SYSTEM_OWNER */\n      0x00\n        /* \"GitHub/contract-token-cryptoMonster/backend/shared/helpers/modifireFunc.sol\":300:310  msg.sender */\n      caller\n        /* \"GitHub/contract-token-cryptoMonster/backend/shared/helpers/modifireFunc.sol\":287:299  structUsers_ */\n      0x00\n        /* \"GitHub/contract-token-cryptoMonster/backend/shared/helpers/modifireFunc.sol\":287:311  structUsers_[msg.sender] */\n      swap1\n      dup2\n      mstore\n      0x20\n      dup2\n      swap1\n      mstore\n      0x40\n      swap1\n      keccak256\n        /* \"GitHub/contract-token-cryptoMonster/backend/shared/helpers/modifireFunc.sol\":287:316  structUsers_[msg.sender].role */\n      sload\n      0xff\n      and\n        /* \"GitHub/contract-token-cryptoMonster/backend/shared/helpers/modifireFunc.sol\":287:337  structUsers_[msg.sender].role == Role.SYSTEM_OWNER */\n      0x04\n      dup2\n      gt\n      iszero\n      tag_187\n      jumpi\n      tag_187\n      tag_86\n      jump\t// in\n    tag_187:\n      eq\n        /* \"GitHub/contract-token-cryptoMonster/backend/shared/helpers/modifireFunc.sol\":279:356  require(structUsers_[msg.sender].role == Role.SYSTEM_OWNER, \"Your not admin\") */\n      tag_188\n      jumpi\n      mload(0x40)\n      shl(0xe5, 0x461bcd)\n      dup2\n      mstore\n        /* \"#utility.yul\":7229:7231   */\n      0x20\n        /* \"GitHub/contract-token-cryptoMonster/backend/shared/helpers/modifireFunc.sol\":279:356  require(structUsers_[msg.sender].role == Role.SYSTEM_OWNER, \"Your not admin\") */\n      0x04\n      dup3\n      add\n        /* \"#utility.yul\":7211:7232   */\n      mstore\n        /* \"#utility.yul\":7268:7270   */\n      0x0e\n        /* \"#utility.yul\":7248:7266   */\n      0x24\n      dup3\n      add\n        /* \"#utility.yul\":7241:7271   */\n      mstore\n      shl(0x91, 0x2cb7bab9103737ba1030b236b4b7)\n        /* \"#utility.yul\":7287:7305   */\n      0x44\n      dup3\n      add\n        /* \"#utility.yul\":7280:7324   */\n      mstore\n        /* \"#utility.yul\":7341:7359   */\n      0x64\n      add\n        /* \"GitHub/contract-token-cryptoMonster/backend/shared/helpers/modifireFunc.sol\":279:356  require(structUsers_[msg.sender].role == Role.SYSTEM_OWNER, \"Your not admin\") */\n      tag_90\n        /* \"#utility.yul\":7027:7365   */\n      jump\n        /* \"GitHub/contract-token-cryptoMonster/backend/shared/helpers/modifireFunc.sol\":279:356  require(structUsers_[msg.sender].role == Role.SYSTEM_OWNER, \"Your not admin\") */\n    tag_188:\n        /* \"GitHub/contract-token-cryptoMonster/backend/shared/helpers/helpresFunc.sol\":724:733  blackList */\n      0x08\n        /* \"GitHub/contract-token-cryptoMonster/backend/shared/helpers/helpresFunc.sol\":717:734  return(blackList) */\n      dup1\n      sload\n      dup1\n      0x20\n      mul\n      0x20\n      add\n      mload(0x40)\n      swap1\n      dup2\n      add\n      0x40\n      mstore\n      dup1\n      swap3\n      swap2\n      swap1\n      dup2\n      dup2\n      mstore\n      0x20\n      add\n      dup3\n      dup1\n      sload\n      dup1\n      iszero\n      tag_117\n      jumpi\n      0x20\n      mul\n      dup3\n      add\n      swap2\n      swap1\n      0x00\n      mstore\n      keccak256(0x00, 0x20)\n      swap1\n      dup2\n      sload\n      sub(shl(0xa0, 0x01), 0x01)\n      and\n      dup2\n      mstore\n      0x01\n      swap1\n      swap2\n      add\n      swap1\n      0x20\n      add\n      dup1\n      dup4\n      gt\n      tag_118\n      jumpi\n      pop\n      pop\n      pop\n      pop\n      pop\n      swap1\n      pop\n        /* \"GitHub/contract-token-cryptoMonster/backend/shared/helpers/helpresFunc.sol\":632:742  function get_blackList() public onlyOwner view returns (address[] memory) {\r... */\n      swap1\n      jump\t// out\n        /* \"GitHub/contract-token-cryptoMonster/backend/components/PhasePrivate.sol\":4396:4515  function changeTokenAmountPricePrivate (uint _price) public onlyPrivateProvider {\r... */\n    tag_54:\n        /* \"GitHub/contract-token-cryptoMonster/backend/shared/helpers/modifireFunc.sol\":567:586  Role.SYSTEM_PRIVATE */\n      0x02\n        /* \"GitHub/contract-token-cryptoMonster/backend/shared/helpers/modifireFunc.sol\":547:557  msg.sender */\n      caller\n        /* \"GitHub/contract-token-cryptoMonster/backend/shared/helpers/modifireFunc.sol\":534:546  structUsers_ */\n      0x00\n        /* \"GitHub/contract-token-cryptoMonster/backend/shared/helpers/modifireFunc.sol\":534:558  structUsers_[msg.sender] */\n      swap1\n      dup2\n      mstore\n      0x20\n      dup2\n      swap1\n      mstore\n      0x40\n      swap1\n      keccak256\n        /* \"GitHub/contract-token-cryptoMonster/backend/shared/helpers/modifireFunc.sol\":534:563  structUsers_[msg.sender].role */\n      sload\n      0xff\n      and\n        /* \"GitHub/contract-token-cryptoMonster/backend/shared/helpers/modifireFunc.sol\":534:586  structUsers_[msg.sender].role == Role.SYSTEM_PRIVATE */\n      0x04\n      dup2\n      gt\n      iszero\n      tag_198\n      jumpi\n      tag_198\n      tag_86\n      jump\t// in\n    tag_198:\n      eq\n        /* \"GitHub/contract-token-cryptoMonster/backend/shared/helpers/modifireFunc.sol\":526:616  require(structUsers_[msg.sender].role == Role.SYSTEM_PRIVATE, \"Your not Private provider\") */\n      tag_199\n      jumpi\n      mload(0x40)\n      shl(0xe5, 0x461bcd)\n      dup2\n      mstore\n      0x04\n      add\n      tag_90\n      swap1\n      tag_91\n      jump\t// in\n    tag_199:\n        /* \"GitHub/contract-token-cryptoMonster/backend/components/PhasePrivate.sol\":4487:4498  tokenPrice_ */\n      0x02\n        /* \"GitHub/contract-token-cryptoMonster/backend/components/PhasePrivate.sol\":4487:4507  tokenPrice_ = _price */\n      sstore\n        /* \"GitHub/contract-token-cryptoMonster/backend/components/PhasePrivate.sol\":4396:4515  function changeTokenAmountPricePrivate (uint _price) public onlyPrivateProvider {\r... */\n      jump\t// out\n        /* \"GitHub/contract-token-cryptoMonster/backend/shared/helpers/helpresFunc.sol\":212:350  function get_keccak256(string memory _hash) public pure returns(bytes32) {\r... */\n    tag_58:\n        /* \"GitHub/contract-token-cryptoMonster/backend/shared/helpers/helpresFunc.sol\":276:283  bytes32 */\n      0x00\n        /* \"GitHub/contract-token-cryptoMonster/backend/shared/helpers/helpresFunc.sol\":334:339  _hash */\n      dup2\n        /* \"GitHub/contract-token-cryptoMonster/backend/shared/helpers/helpresFunc.sol\":317:340  abi.encodePacked(_hash) */\n      add(0x20, mload(0x40))\n      tag_203\n      swap2\n      swap1\n      tag_204\n      jump\t// in\n    tag_203:\n      mload(0x40)\n      0x20\n      dup2\n      dup4\n      sub\n      sub\n      dup2\n      mstore\n      swap1\n      0x40\n      mstore\n        /* \"GitHub/contract-token-cryptoMonster/backend/shared/helpers/helpresFunc.sol\":307:341  keccak256(abi.encodePacked(_hash)) */\n      dup1\n      mload\n      swap1\n      0x20\n      add\n      keccak256\n        /* \"GitHub/contract-token-cryptoMonster/backend/shared/helpers/helpresFunc.sol\":300:342  return(keccak256(abi.encodePacked(_hash))) */\n      swap1\n      pop\n        /* \"GitHub/contract-token-cryptoMonster/backend/shared/helpers/helpresFunc.sol\":212:350  function get_keccak256(string memory _hash) public pure returns(bytes32) {\r... */\n      swap2\n      swap1\n      pop\n      jump\t// out\n        /* \"GitHub/contract-token-cryptoMonster/backend/components/PhasePrivate.sol\":2196:2995  function acceptApplication (address _userAdr) public onlyPrivateProvider {\r... */\n    tag_70:\n        /* \"GitHub/contract-token-cryptoMonster/backend/shared/helpers/modifireFunc.sol\":567:586  Role.SYSTEM_PRIVATE */\n      0x02\n        /* \"GitHub/contract-token-cryptoMonster/backend/shared/helpers/modifireFunc.sol\":547:557  msg.sender */\n      caller\n        /* \"GitHub/contract-token-cryptoMonster/backend/shared/helpers/modifireFunc.sol\":534:546  structUsers_ */\n      0x00\n        /* \"GitHub/contract-token-cryptoMonster/backend/shared/helpers/modifireFunc.sol\":534:558  structUsers_[msg.sender] */\n      swap1\n      dup2\n      mstore\n      0x20\n      dup2\n      swap1\n      mstore\n      0x40\n      swap1\n      keccak256\n        /* \"GitHub/contract-token-cryptoMonster/backend/shared/helpers/modifireFunc.sol\":534:563  structUsers_[msg.sender].role */\n      sload\n      0xff\n      and\n        /* \"GitHub/contract-token-cryptoMonster/backend/shared/helpers/modifireFunc.sol\":534:586  structUsers_[msg.sender].role == Role.SYSTEM_PRIVATE */\n      0x04\n      dup2\n      gt\n      iszero\n      tag_210\n      jumpi\n      tag_210\n      tag_86\n      jump\t// in\n    tag_210:\n      eq\n        /* \"GitHub/contract-token-cryptoMonster/backend/shared/helpers/modifireFunc.sol\":526:616  require(structUsers_[msg.sender].role == Role.SYSTEM_PRIVATE, \"Your not Private provider\") */\n      tag_211\n      jumpi\n      mload(0x40)\n      shl(0xe5, 0x461bcd)\n      dup2\n      mstore\n      0x04\n      add\n      tag_90\n      swap1\n      tag_91\n      jump\t// in\n    tag_211:\n        /* \"GitHub/contract-token-cryptoMonster/backend/components/PhasePrivate.sol\":2307:2317  msg.sender */\n      caller\n        /* \"GitHub/contract-token-cryptoMonster/backend/components/PhasePrivate.sol\":2288:2318  strucApplications_[msg.sender] */\n      0x00\n      swap1\n      dup2\n      mstore\n        /* \"GitHub/contract-token-cryptoMonster/backend/components/PhasePrivate.sol\":2288:2306  strucApplications_ */\n      0x05\n        /* \"GitHub/contract-token-cryptoMonster/backend/components/PhasePrivate.sol\":2288:2318  strucApplications_[msg.sender] */\n      0x20\n      mstore\n      0x40\n      swap1\n      keccak256\n        /* \"GitHub/contract-token-cryptoMonster/backend/components/PhasePrivate.sol\":2288:2327  strucApplications_[msg.sender].reviewed */\n      0x02\n      add\n      sload\n      shl(0xa8, 0x01)\n      swap1\n      div\n      0xff\n      and\n        /* \"GitHub/contract-token-cryptoMonster/backend/components/PhasePrivate.sol\":2288:2336  strucApplications_[msg.sender].reviewed == false */\n      iszero\n        /* \"GitHub/contract-token-cryptoMonster/backend/components/PhasePrivate.sol\":2280:2369  require(strucApplications_[msg.sender].reviewed == false, \"Review the application first\") */\n      tag_214\n      jumpi\n      mload(0x40)\n      shl(0xe5, 0x461bcd)\n      dup2\n      mstore\n      0x04\n      add\n      tag_90\n      swap1\n      tag_107\n      jump\t// in\n    tag_214:\n      sub(shl(0xa0, 0x01), 0x01)\n        /* \"GitHub/contract-token-cryptoMonster/backend/components/PhasePrivate.sol\":2470:2498  strucApplications_[_userAdr] */\n      dup2\n      and\n        /* \"GitHub/contract-token-cryptoMonster/backend/components/PhasePrivate.sol\":2508:2513  false */\n      0x00\n        /* \"GitHub/contract-token-cryptoMonster/backend/components/PhasePrivate.sol\":2470:2498  strucApplications_[_userAdr] */\n      dup2\n      dup2\n      mstore\n        /* \"GitHub/contract-token-cryptoMonster/backend/components/PhasePrivate.sol\":2470:2488  strucApplications_ */\n      0x05\n        /* \"GitHub/contract-token-cryptoMonster/backend/components/PhasePrivate.sol\":2470:2498  strucApplications_[_userAdr] */\n      0x20\n      dup2\n      dup2\n      mstore\n      0x40\n      dup1\n      dup5\n      keccak256\n        /* \"GitHub/contract-token-cryptoMonster/backend/components/PhasePrivate.sol\":2470:2505  strucApplications_[_userAdr].status */\n      0x02\n      dup2\n      add\n        /* \"GitHub/contract-token-cryptoMonster/backend/components/PhasePrivate.sol\":2470:2513  strucApplications_[_userAdr].status = false */\n      dup1\n      sload\n      not(shl(0xa0, 0xff))\n      and\n      swap1\n      sstore\n        /* \"GitHub/contract-token-cryptoMonster/backend/components/PhasePrivate.sol\":2577:2604  structApplicationsAmountAdr */\n      0x06\n        /* \"GitHub/contract-token-cryptoMonster/backend/components/PhasePrivate.sol\":2577:2619  structApplicationsAmountAdr.push(_userAdr) */\n      dup1\n      sload\n      0x01\n      dup2\n      dup2\n      add\n      swap1\n      swap3\n      sstore\n      0x00\n      dup1\n      mload\n      0x20\n      data_b868bdfa8727775661e4ccf117824a175a33f8703d728c04488fbfffcafda9f9\n      dup4\n      codecopy\n      dup2\n      mload\n      swap2\n      mstore\n      add\n      dup1\n      sload\n      not(sub(shl(0xa0, 0x01), 0x01))\n      swap1\n      dup2\n      and\n      dup10\n      or\n      swap1\n      swap2\n      sstore\n        /* \"GitHub/contract-token-cryptoMonster/backend/components/PhasePrivate.sol\":2757:2766  whiteList */\n      0x07\n        /* \"GitHub/contract-token-cryptoMonster/backend/components/PhasePrivate.sol\":2757:2781  whiteList.push(_userAdr) */\n      dup1\n      sload\n      swap3\n      dup4\n      add\n      swap1\n      sstore\n      0xa66cc928b5edb82af9bd49922954155ab7b0942694bea4ce44661d9a8736c688\n      swap1\n      swap2\n      add\n      dup1\n      sload\n      swap1\n      swap2\n      and\n      dup8\n      or\n      swap1\n      sstore\n        /* \"GitHub/contract-token-cryptoMonster/backend/components/PhasePrivate.sol\":2899:2987  structUser(Role.USER, strucApplications_[_userAdr].name, get_keccak256(\"0\"), 0, 0, 0, 0) */\n      dup2\n      mload\n      0xe0\n      dup2\n      add\n      swap1\n      swap3\n      mstore\n        /* \"GitHub/contract-token-cryptoMonster/backend/components/PhasePrivate.sol\":2910:2919  Role.USER */\n      0x04\n        /* \"GitHub/contract-token-cryptoMonster/backend/components/PhasePrivate.sol\":2899:2987  structUser(Role.USER, strucApplications_[_userAdr].name, get_keccak256(\"0\"), 0, 0, 0, 0) */\n      dup3\n      mstore\n        /* \"GitHub/contract-token-cryptoMonster/backend/components/PhasePrivate.sol\":2921:2949  strucApplications_[_userAdr] */\n      swap5\n      swap1\n      swap4\n      mstore\n      swap1\n      dup2\n      mstore\n        /* \"GitHub/contract-token-cryptoMonster/backend/components/PhasePrivate.sol\":2899:2987  structUser(Role.USER, strucApplications_[_userAdr].name, get_keccak256(\"0\"), 0, 0, 0, 0) */\n      dup3\n      sload\n      swap2\n      swap3\n      swap1\n      dup4\n      add\n      swap2\n      tag_220\n      swap1\n      tag_221\n      jump\t// in\n    tag_220:\n      dup1\n      0x1f\n      add\n      0x20\n      dup1\n      swap2\n      div\n      mul\n      0x20\n      add\n      mload(0x40)\n      swap1\n      dup2\n      add\n      0x40\n      mstore\n      dup1\n      swap3\n      swap2\n      swap1\n      dup2\n      dup2\n      mstore\n      0x20\n      add\n      dup3\n      dup1\n      sload\n      tag_222\n      swap1\n      tag_221\n      jump\t// in\n    tag_222:\n      dup1\n      iszero\n      tag_223\n      jumpi\n      dup1\n      0x1f\n      lt\n      tag_224\n      jumpi\n      0x0100\n      dup1\n      dup4\n      sload\n      div\n      mul\n      dup4\n      mstore\n      swap2\n      0x20\n      add\n      swap2\n      jump(tag_223)\n    tag_224:\n      dup3\n      add\n      swap2\n      swap1\n      0x00\n      mstore\n      keccak256(0x00, 0x20)\n      swap1\n    tag_225:\n      dup2\n      sload\n      dup2\n      mstore\n      swap1\n      0x01\n      add\n      swap1\n      0x20\n      add\n      dup1\n      dup4\n      gt\n      tag_225\n      jumpi\n      dup3\n      swap1\n      sub\n      0x1f\n      and\n      dup3\n      add\n      swap2\n    tag_223:\n      pop\n      pop\n      pop\n      pop\n      pop\n      dup2\n      mstore\n      0x20\n      add\n        /* \"GitHub/contract-token-cryptoMonster/backend/components/PhasePrivate.sol\":2956:2974  get_keccak256(\"0\") */\n      tag_226\n      mload(0x40)\n      dup1\n      0x40\n      add\n      0x40\n      mstore\n      dup1\n      0x01\n      dup2\n      mstore\n      0x20\n      add\n      shl(0xfc, 0x03)\n      dup2\n      mstore\n      pop\n        /* \"GitHub/contract-token-cryptoMonster/backend/components/PhasePrivate.sol\":2956:2969  get_keccak256 */\n      tag_58\n        /* \"GitHub/contract-token-cryptoMonster/backend/components/PhasePrivate.sol\":2956:2974  get_keccak256(\"0\") */\n      jump\t// in\n    tag_226:\n        /* \"GitHub/contract-token-cryptoMonster/backend/components/PhasePrivate.sol\":2899:2987  structUser(Role.USER, strucApplications_[_userAdr].name, get_keccak256(\"0\"), 0, 0, 0, 0) */\n      dup2\n      mstore\n        /* \"GitHub/contract-token-cryptoMonster/backend/components/PhasePrivate.sol\":2976:2977  0 */\n      0x00\n        /* \"GitHub/contract-token-cryptoMonster/backend/components/PhasePrivate.sol\":2899:2987  structUser(Role.USER, strucApplications_[_userAdr].name, get_keccak256(\"0\"), 0, 0, 0, 0) */\n      0x20\n      dup1\n      dup4\n      add\n      dup3\n      swap1\n      mstore\n      0x40\n      dup1\n      dup5\n      add\n      dup4\n      swap1\n      mstore\n      0x60\n      dup5\n      add\n      dup4\n      swap1\n      mstore\n      0x80\n      swap1\n      swap4\n      add\n      dup3\n      swap1\n      mstore\n      sub(shl(0xa0, 0x01), 0x01)\n        /* \"GitHub/contract-token-cryptoMonster/backend/components/PhasePrivate.sol\":2874:2896  structUsers_[_userAdr] */\n      dup6\n      and\n      dup3\n      mstore\n      dup2\n      swap1\n      mstore\n      keccak256\n        /* \"GitHub/contract-token-cryptoMonster/backend/components/PhasePrivate.sol\":2874:2987  structUsers_[_userAdr] = structUser(Role.USER, strucApplications_[_userAdr].name, get_keccak256(\"0\"), 0, 0, 0, 0) */\n      dup2\n      mload\n      dup2\n      sload\n        /* \"GitHub/contract-token-cryptoMonster/backend/components/PhasePrivate.sol\":2874:2896  structUsers_[_userAdr] */\n      dup3\n      swap1\n      not(0xff)\n        /* \"GitHub/contract-token-cryptoMonster/backend/components/PhasePrivate.sol\":2874:2987  structUsers_[_userAdr] = structUser(Role.USER, strucApplications_[_userAdr].name, get_keccak256(\"0\"), 0, 0, 0, 0) */\n      and\n      0x01\n      dup4\n      0x04\n      dup2\n      gt\n      iszero\n      tag_228\n      jumpi\n      tag_228\n      tag_86\n      jump\t// in\n    tag_228:\n      mul\n      or\n      swap1\n      sstore\n      pop\n      0x20\n      dup3\n      dup2\n      add\n      mload\n      dup1\n      mload\n      tag_229\n      swap3\n      0x01\n      dup6\n      add\n      swap3\n      add\n      swap1\n      tag_168\n      jump\t// in\n    tag_229:\n      pop\n      0x40\n      dup3\n      add\n      mload\n      0x02\n      dup3\n      add\n      sstore\n      0x60\n      dup3\n      add\n      mload\n      0x03\n      dup3\n      add\n      sstore\n      0x80\n      dup3\n      add\n      mload\n      0x04\n      dup3\n      add\n      sstore\n      0xa0\n      dup3\n      add\n      mload\n      0x05\n      dup3\n      add\n      sstore\n      0xc0\n      swap1\n      swap2\n      add\n      mload\n      0x06\n      swap1\n      swap2\n      add\n      sstore\n      pop\n        /* \"GitHub/contract-token-cryptoMonster/backend/components/PhasePrivate.sol\":2196:2995  function acceptApplication (address _userAdr) public onlyPrivateProvider {\r... */\n      jump\t// out\n        /* \"GitHub/contract-token-cryptoMonster/backend/shared/helpers/helpresFunc.sol\":426:554  function get_whiteList() public onlyOwnerAndPrivateProvider view returns (address[] memory) {\r... */\n    tag_76:\n        /* \"GitHub/contract-token-cryptoMonster/backend/shared/helpers/helpresFunc.sol\":500:516  address[] memory */\n      0x60\n        /* \"GitHub/contract-token-cryptoMonster/backend/shared/helpers/modifireFunc.sol\":1116:1133  Role.SYSTEM_OWNER */\n      0x00\n        /* \"GitHub/contract-token-cryptoMonster/backend/shared/helpers/modifireFunc.sol\":1096:1106  msg.sender */\n      caller\n        /* \"GitHub/contract-token-cryptoMonster/backend/shared/helpers/modifireFunc.sol\":1083:1095  structUsers_ */\n      0x00\n        /* \"GitHub/contract-token-cryptoMonster/backend/shared/helpers/modifireFunc.sol\":1083:1107  structUsers_[msg.sender] */\n      swap1\n      dup2\n      mstore\n      0x20\n      dup2\n      swap1\n      mstore\n      0x40\n      swap1\n      keccak256\n        /* \"GitHub/contract-token-cryptoMonster/backend/shared/helpers/modifireFunc.sol\":1083:1112  structUsers_[msg.sender].role */\n      sload\n      0xff\n      and\n        /* \"GitHub/contract-token-cryptoMonster/backend/shared/helpers/modifireFunc.sol\":1083:1133  structUsers_[msg.sender].role == Role.SYSTEM_OWNER */\n      0x04\n      dup2\n      gt\n      iszero\n      tag_235\n      jumpi\n      tag_235\n      tag_86\n      jump\t// in\n    tag_235:\n      eq\n        /* \"GitHub/contract-token-cryptoMonster/backend/shared/helpers/modifireFunc.sol\":1083:1189  structUsers_[msg.sender].role == Role.SYSTEM_OWNER || structUsers_[msg.sender].role == Role.SYSTEM_PRIVATE */\n      dup1\n      tag_236\n      jumpi\n      pop\n        /* \"GitHub/contract-token-cryptoMonster/backend/shared/helpers/modifireFunc.sol\":1170:1189  Role.SYSTEM_PRIVATE */\n      0x02\n        /* \"GitHub/contract-token-cryptoMonster/backend/shared/helpers/modifireFunc.sol\":1150:1160  msg.sender */\n      caller\n        /* \"GitHub/contract-token-cryptoMonster/backend/shared/helpers/modifireFunc.sol\":1137:1149  structUsers_ */\n      0x00\n        /* \"GitHub/contract-token-cryptoMonster/backend/shared/helpers/modifireFunc.sol\":1137:1161  structUsers_[msg.sender] */\n      swap1\n      dup2\n      mstore\n      0x20\n      dup2\n      swap1\n      mstore\n      0x40\n      swap1\n      keccak256\n        /* \"GitHub/contract-token-cryptoMonster/backend/shared/helpers/modifireFunc.sol\":1137:1166  structUsers_[msg.sender].role */\n      sload\n      0xff\n      and\n        /* \"GitHub/contract-token-cryptoMonster/backend/shared/helpers/modifireFunc.sol\":1137:1189  structUsers_[msg.sender].role == Role.SYSTEM_PRIVATE */\n      0x04\n      dup2\n      gt\n      iszero\n      tag_240\n      jumpi\n      tag_240\n      tag_86\n      jump\t// in\n    tag_240:\n      eq\n        /* \"GitHub/contract-token-cryptoMonster/backend/shared/helpers/modifireFunc.sol\":1083:1189  structUsers_[msg.sender].role == Role.SYSTEM_OWNER || structUsers_[msg.sender].role == Role.SYSTEM_PRIVATE */\n    tag_236:\n        /* \"GitHub/contract-token-cryptoMonster/backend/shared/helpers/modifireFunc.sol\":1075:1235  require(structUsers_[msg.sender].role == Role.SYSTEM_OWNER || structUsers_[msg.sender].role == Role.SYSTEM_PRIVATE, \"You are not the owner or private provider\") */\n      tag_241\n      jumpi\n      mload(0x40)\n      shl(0xe5, 0x461bcd)\n      dup2\n      mstore\n        /* \"#utility.yul\":6039:6041   */\n      0x20\n        /* \"GitHub/contract-token-cryptoMonster/backend/shared/helpers/modifireFunc.sol\":1075:1235  require(structUsers_[msg.sender].role == Role.SYSTEM_OWNER || structUsers_[msg.sender].role == Role.SYSTEM_PRIVATE, \"You are not the owner or private provider\") */\n      0x04\n      dup3\n      add\n        /* \"#utility.yul\":6021:6042   */\n      mstore\n        /* \"#utility.yul\":6078:6080   */\n      0x29\n        /* \"#utility.yul\":6058:6076   */\n      0x24\n      dup3\n      add\n        /* \"#utility.yul\":6051:6081   */\n      mstore\n        /* \"#utility.yul\":6117:6151   */\n      0x596f7520617265206e6f7420746865206f776e6572206f722070726976617465\n        /* \"#utility.yul\":6097:6115   */\n      0x44\n      dup3\n      add\n        /* \"#utility.yul\":6090:6152   */\n      mstore\n      shl(0xb9, 0x10383937bb34b232b9)\n        /* \"#utility.yul\":6168:6186   */\n      0x64\n      dup3\n      add\n        /* \"#utility.yul\":6161:6200   */\n      mstore\n        /* \"#utility.yul\":6217:6236   */\n      0x84\n      add\n        /* \"GitHub/contract-token-cryptoMonster/backend/shared/helpers/modifireFunc.sol\":1075:1235  require(structUsers_[msg.sender].role == Role.SYSTEM_OWNER || structUsers_[msg.sender].role == Role.SYSTEM_PRIVATE, \"You are not the owner or private provider\") */\n      tag_90\n        /* \"#utility.yul\":5837:6242   */\n      jump\n        /* \"GitHub/contract-token-cryptoMonster/backend/shared/helpers/modifireFunc.sol\":1075:1235  require(structUsers_[msg.sender].role == Role.SYSTEM_OWNER || structUsers_[msg.sender].role == Role.SYSTEM_PRIVATE, \"You are not the owner or private provider\") */\n    tag_241:\n        /* \"GitHub/contract-token-cryptoMonster/backend/shared/helpers/helpresFunc.sol\":536:545  whiteList */\n      0x07\n        /* \"GitHub/contract-token-cryptoMonster/backend/shared/helpers/helpresFunc.sol\":529:546  return(whiteList) */\n      dup1\n      sload\n      dup1\n      0x20\n      mul\n      0x20\n      add\n      mload(0x40)\n      swap1\n      dup2\n      add\n      0x40\n      mstore\n      dup1\n      swap3\n      swap2\n      swap1\n      dup2\n      dup2\n      mstore\n      0x20\n      add\n      dup3\n      dup1\n      sload\n      dup1\n      iszero\n      tag_117\n      jumpi\n      0x20\n      mul\n      dup3\n      add\n      swap2\n      swap1\n      0x00\n      mstore\n      keccak256(0x00, 0x20)\n      swap1\n      dup2\n      sload\n      sub(shl(0xa0, 0x01), 0x01)\n      and\n      dup2\n      mstore\n      0x01\n      swap1\n      swap2\n      add\n      swap1\n      0x20\n      add\n      dup1\n      dup4\n      gt\n      tag_118\n      jumpi\n      pop\n      pop\n      pop\n      pop\n      pop\n      swap1\n      pop\n        /* \"GitHub/contract-token-cryptoMonster/backend/shared/helpers/helpresFunc.sol\":426:554  function get_whiteList() public onlyOwnerAndPrivateProvider view returns (address[] memory) {\r... */\n      swap1\n      jump\t// out\n        /* \"GitHub/contract-token-cryptoMonster/backend/shared/lib/structures.sol\":836:887  mapping (address => structUser) public structUsers_ */\n    tag_80:\n      0x00\n      0x20\n      dup2\n      swap1\n      mstore\n      swap1\n      dup2\n      mstore\n      0x40\n      swap1\n      keccak256\n      dup1\n      sload\n      0x01\n      dup3\n      add\n      dup1\n      sload\n      0xff\n      swap1\n      swap3\n      and\n      swap3\n      swap2\n      tag_247\n      swap1\n      tag_221\n      jump\t// in\n    tag_247:\n      dup1\n      0x1f\n      add\n      0x20\n      dup1\n      swap2\n      div\n      mul\n      0x20\n      add\n      mload(0x40)\n      swap1\n      dup2\n      add\n      0x40\n      mstore\n      dup1\n      swap3\n      swap2\n      swap1\n      dup2\n      dup2\n      mstore\n      0x20\n      add\n      dup3\n      dup1\n      sload\n      tag_248\n      swap1\n      tag_221\n      jump\t// in\n    tag_248:\n      dup1\n      iszero\n      tag_249\n      jumpi\n      dup1\n      0x1f\n      lt\n      tag_250\n      jumpi\n      0x0100\n      dup1\n      dup4\n      sload\n      div\n      mul\n      dup4\n      mstore\n      swap2\n      0x20\n      add\n      swap2\n      jump(tag_249)\n    tag_250:\n      dup3\n      add\n      swap2\n      swap1\n      0x00\n      mstore\n      keccak256(0x00, 0x20)\n      swap1\n    tag_251:\n      dup2\n      sload\n      dup2\n      mstore\n      swap1\n      0x01\n      add\n      swap1\n      0x20\n      add\n      dup1\n      dup4\n      gt\n      tag_251\n      jumpi\n      dup3\n      swap1\n      sub\n      0x1f\n      and\n      dup3\n      add\n      swap2\n    tag_249:\n      pop\n      pop\n      pop\n      pop\n      pop\n      swap1\n      dup1\n      0x02\n      add\n      sload\n      swap1\n      dup1\n      0x03\n      add\n      sload\n      swap1\n      dup1\n      0x04\n      add\n      sload\n      swap1\n      dup1\n      0x05\n      add\n      sload\n      swap1\n      dup1\n      0x06\n      add\n      sload\n      swap1\n      pop\n      dup8\n      jump\t// out\n    tag_168:\n      dup3\n      dup1\n      sload\n      tag_252\n      swap1\n      tag_221\n      jump\t// in\n    tag_252:\n      swap1\n      0x00\n      mstore\n      keccak256(0x00, 0x20)\n      swap1\n      0x1f\n      add\n      0x20\n      swap1\n      div\n      dup2\n      add\n      swap3\n      dup3\n      tag_254\n      jumpi\n      0x00\n      dup6\n      sstore\n      jump(tag_257)\n    tag_254:\n      dup3\n      0x1f\n      lt\n      tag_255\n      jumpi\n      dup1\n      mload\n      not(0xff)\n      and\n      dup4\n      dup1\n      add\n      or\n      dup6\n      sstore\n      jump(tag_257)\n    tag_255:\n      dup3\n      dup1\n      add\n      0x01\n      add\n      dup6\n      sstore\n      dup3\n      iszero\n      tag_257\n      jumpi\n      swap2\n      dup3\n      add\n    tag_256:\n      dup3\n      dup2\n      gt\n      iszero\n      tag_257\n      jumpi\n      dup3\n      mload\n      dup3\n      sstore\n      swap2\n      0x20\n      add\n      swap2\n      swap1\n      0x01\n      add\n      swap1\n      jump(tag_256)\n    tag_257:\n      pop\n      tag_258\n      swap3\n      swap2\n      pop\n      tag_259\n      jump\t// in\n    tag_258:\n      pop\n      swap1\n      jump\t// out\n    tag_259:\n    tag_260:\n      dup1\n      dup3\n      gt\n      iszero\n      tag_258\n      jumpi\n      0x00\n      dup2\n      sstore\n      0x01\n      add\n      jump(tag_260)\n        /* \"#utility.yul\":14:187   */\n    tag_263:\n        /* \"#utility.yul\":82:102   */\n      dup1\n      calldataload\n      sub(shl(0xa0, 0x01), 0x01)\n        /* \"#utility.yul\":131:162   */\n      dup2\n      and\n        /* \"#utility.yul\":121:163   */\n      dup2\n      eq\n        /* \"#utility.yul\":111:181   */\n      tag_265\n      jumpi\n        /* \"#utility.yul\":177:178   */\n      0x00\n        /* \"#utility.yul\":174:175   */\n      dup1\n        /* \"#utility.yul\":167:179   */\n      revert\n        /* \"#utility.yul\":111:181   */\n    tag_265:\n        /* \"#utility.yul\":14:187   */\n      swap2\n      swap1\n      pop\n      jump\t// out\n        /* \"#utility.yul\":192:911   */\n    tag_266:\n        /* \"#utility.yul\":235:240   */\n      0x00\n        /* \"#utility.yul\":288:291   */\n      dup3\n        /* \"#utility.yul\":281:285   */\n      0x1f\n        /* \"#utility.yul\":273:279   */\n      dup4\n        /* \"#utility.yul\":269:286   */\n      add\n        /* \"#utility.yul\":265:292   */\n      slt\n        /* \"#utility.yul\":255:310   */\n      tag_268\n      jumpi\n        /* \"#utility.yul\":306:307   */\n      0x00\n        /* \"#utility.yul\":303:304   */\n      dup1\n        /* \"#utility.yul\":296:308   */\n      revert\n        /* \"#utility.yul\":255:310   */\n    tag_268:\n        /* \"#utility.yul\":329:349   */\n      dup2\n      calldataload\n      sub(shl(0x40, 0x01), 0x01)\n        /* \"#utility.yul\":398:408   */\n      dup1\n      dup3\n      gt\n        /* \"#utility.yul\":395:431   */\n      iszero\n      tag_270\n      jumpi\n        /* \"#utility.yul\":411:429   */\n      tag_270\n      tag_271\n      jump\t// in\n    tag_270:\n        /* \"#utility.yul\":486:488   */\n      0x40\n        /* \"#utility.yul\":480:489   */\n      mload\n        /* \"#utility.yul\":454:456   */\n      0x1f\n        /* \"#utility.yul\":540:553   */\n      dup4\n      add\n      not(0x1f)\n        /* \"#utility.yul\":536:558   */\n      swap1\n      dup2\n      and\n        /* \"#utility.yul\":560:562   */\n      0x3f\n        /* \"#utility.yul\":532:563   */\n      add\n        /* \"#utility.yul\":528:568   */\n      and\n        /* \"#utility.yul\":516:569   */\n      dup2\n      add\n      swap1\n        /* \"#utility.yul\":584:602   */\n      dup3\n      dup3\n      gt\n        /* \"#utility.yul\":604:626   */\n      dup2\n      dup4\n      lt\n        /* \"#utility.yul\":581:627   */\n      or\n        /* \"#utility.yul\":578:650   */\n      iszero\n      tag_273\n      jumpi\n        /* \"#utility.yul\":630:648   */\n      tag_273\n      tag_271\n      jump\t// in\n    tag_273:\n        /* \"#utility.yul\":670:680   */\n      dup2\n        /* \"#utility.yul\":666:668   */\n      0x40\n        /* \"#utility.yul\":659:681   */\n      mstore\n        /* \"#utility.yul\":705:707   */\n      dup4\n        /* \"#utility.yul\":697:703   */\n      dup2\n        /* \"#utility.yul\":690:708   */\n      mstore\n        /* \"#utility.yul\":751:754   */\n      dup7\n        /* \"#utility.yul\":744:748   */\n      0x20\n        /* \"#utility.yul\":739:741   */\n      dup6\n        /* \"#utility.yul\":731:737   */\n      dup9\n        /* \"#utility.yul\":727:742   */\n      add\n        /* \"#utility.yul\":723:749   */\n      add\n        /* \"#utility.yul\":720:755   */\n      gt\n        /* \"#utility.yul\":717:772   */\n      iszero\n      tag_274\n      jumpi\n        /* \"#utility.yul\":768:769   */\n      0x00\n        /* \"#utility.yul\":765:766   */\n      dup1\n        /* \"#utility.yul\":758:770   */\n      revert\n        /* \"#utility.yul\":717:772   */\n    tag_274:\n        /* \"#utility.yul\":832:834   */\n      dup4\n        /* \"#utility.yul\":825:829   */\n      0x20\n        /* \"#utility.yul\":817:823   */\n      dup8\n        /* \"#utility.yul\":813:830   */\n      add\n        /* \"#utility.yul\":806:810   */\n      0x20\n        /* \"#utility.yul\":798:804   */\n      dup4\n        /* \"#utility.yul\":794:811   */\n      add\n        /* \"#utility.yul\":781:835   */\n      calldatacopy\n        /* \"#utility.yul\":879:880   */\n      0x00\n        /* \"#utility.yul\":872:876   */\n      0x20\n        /* \"#utility.yul\":867:869   */\n      dup6\n        /* \"#utility.yul\":859:865   */\n      dup4\n        /* \"#utility.yul\":855:870   */\n      add\n        /* \"#utility.yul\":851:877   */\n      add\n        /* \"#utility.yul\":844:881   */\n      mstore\n        /* \"#utility.yul\":899:905   */\n      dup1\n        /* \"#utility.yul\":890:905   */\n      swap5\n      pop\n      pop\n      pop\n      pop\n      pop\n        /* \"#utility.yul\":192:911   */\n      swap3\n      swap2\n      pop\n      pop\n      jump\t// out\n        /* \"#utility.yul\":916:1102   */\n    tag_28:\n        /* \"#utility.yul\":975:981   */\n      0x00\n        /* \"#utility.yul\":1028:1030   */\n      0x20\n        /* \"#utility.yul\":1016:1025   */\n      dup3\n        /* \"#utility.yul\":1007:1014   */\n      dup5\n        /* \"#utility.yul\":1003:1026   */\n      sub\n        /* \"#utility.yul\":999:1031   */\n      slt\n        /* \"#utility.yul\":996:1048   */\n      iszero\n      tag_276\n      jumpi\n        /* \"#utility.yul\":1044:1045   */\n      0x00\n        /* \"#utility.yul\":1041:1042   */\n      dup1\n        /* \"#utility.yul\":1034:1046   */\n      revert\n        /* \"#utility.yul\":996:1048   */\n    tag_276:\n        /* \"#utility.yul\":1067:1096   */\n      tag_277\n        /* \"#utility.yul\":1086:1095   */\n      dup3\n        /* \"#utility.yul\":1067:1096   */\n      tag_263\n      jump\t// in\n    tag_277:\n        /* \"#utility.yul\":1057:1096   */\n      swap4\n        /* \"#utility.yul\":916:1102   */\n      swap3\n      pop\n      pop\n      pop\n      jump\t// out\n        /* \"#utility.yul\":1107:1429   */\n    tag_57:\n        /* \"#utility.yul\":1176:1182   */\n      0x00\n        /* \"#utility.yul\":1229:1231   */\n      0x20\n        /* \"#utility.yul\":1217:1226   */\n      dup3\n        /* \"#utility.yul\":1208:1215   */\n      dup5\n        /* \"#utility.yul\":1204:1227   */\n      sub\n        /* \"#utility.yul\":1200:1232   */\n      slt\n        /* \"#utility.yul\":1197:1249   */\n      iszero\n      tag_279\n      jumpi\n        /* \"#utility.yul\":1245:1246   */\n      0x00\n        /* \"#utility.yul\":1242:1243   */\n      dup1\n        /* \"#utility.yul\":1235:1247   */\n      revert\n        /* \"#utility.yul\":1197:1249   */\n    tag_279:\n        /* \"#utility.yul\":1272:1295   */\n      dup2\n      calldataload\n      sub(shl(0x40, 0x01), 0x01)\n        /* \"#utility.yul\":1307:1337   */\n      dup2\n      gt\n        /* \"#utility.yul\":1304:1354   */\n      iszero\n      tag_280\n      jumpi\n        /* \"#utility.yul\":1350:1351   */\n      0x00\n        /* \"#utility.yul\":1347:1348   */\n      dup1\n        /* \"#utility.yul\":1340:1352   */\n      revert\n        /* \"#utility.yul\":1304:1354   */\n    tag_280:\n        /* \"#utility.yul\":1373:1423   */\n      tag_281\n        /* \"#utility.yul\":1415:1422   */\n      dup5\n        /* \"#utility.yul\":1406:1412   */\n      dup3\n        /* \"#utility.yul\":1395:1404   */\n      dup6\n        /* \"#utility.yul\":1391:1413   */\n      add\n        /* \"#utility.yul\":1373:1423   */\n      tag_266\n      jump\t// in\n    tag_281:\n        /* \"#utility.yul\":1363:1423   */\n      swap5\n        /* \"#utility.yul\":1107:1429   */\n      swap4\n      pop\n      pop\n      pop\n      pop\n      jump\t// out\n        /* \"#utility.yul\":1434:2051   */\n    tag_44:\n        /* \"#utility.yul\":1531:1537   */\n      0x00\n        /* \"#utility.yul\":1539:1545   */\n      dup1\n        /* \"#utility.yul\":1547:1553   */\n      0x00\n        /* \"#utility.yul\":1600:1602   */\n      0x60\n        /* \"#utility.yul\":1588:1597   */\n      dup5\n        /* \"#utility.yul\":1579:1586   */\n      dup7\n        /* \"#utility.yul\":1575:1598   */\n      sub\n        /* \"#utility.yul\":1571:1603   */\n      slt\n        /* \"#utility.yul\":1568:1620   */\n      iszero\n      tag_283\n      jumpi\n        /* \"#utility.yul\":1616:1617   */\n      0x00\n        /* \"#utility.yul\":1613:1614   */\n      dup1\n        /* \"#utility.yul\":1606:1618   */\n      revert\n        /* \"#utility.yul\":1568:1620   */\n    tag_283:\n        /* \"#utility.yul\":1643:1666   */\n      dup4\n      calldataload\n      sub(shl(0x40, 0x01), 0x01)\n        /* \"#utility.yul\":1715:1729   */\n      dup1\n      dup3\n      gt\n        /* \"#utility.yul\":1712:1746   */\n      iszero\n      tag_284\n      jumpi\n        /* \"#utility.yul\":1742:1743   */\n      0x00\n        /* \"#utility.yul\":1739:1740   */\n      dup1\n        /* \"#utility.yul\":1732:1744   */\n      revert\n        /* \"#utility.yul\":1712:1746   */\n    tag_284:\n        /* \"#utility.yul\":1765:1815   */\n      tag_285\n        /* \"#utility.yul\":1807:1814   */\n      dup8\n        /* \"#utility.yul\":1798:1804   */\n      dup4\n        /* \"#utility.yul\":1787:1796   */\n      dup9\n        /* \"#utility.yul\":1783:1805   */\n      add\n        /* \"#utility.yul\":1765:1815   */\n      tag_266\n      jump\t// in\n    tag_285:\n        /* \"#utility.yul\":1755:1815   */\n      swap5\n      pop\n        /* \"#utility.yul\":1868:1870   */\n      0x20\n        /* \"#utility.yul\":1857:1866   */\n      dup7\n        /* \"#utility.yul\":1853:1871   */\n      add\n        /* \"#utility.yul\":1840:1872   */\n      calldataload\n        /* \"#utility.yul\":1824:1872   */\n      swap2\n      pop\n        /* \"#utility.yul\":1897:1899   */\n      dup1\n        /* \"#utility.yul\":1887:1895   */\n      dup3\n        /* \"#utility.yul\":1884:1900   */\n      gt\n        /* \"#utility.yul\":1881:1917   */\n      iszero\n      tag_286\n      jumpi\n        /* \"#utility.yul\":1913:1914   */\n      0x00\n        /* \"#utility.yul\":1910:1911   */\n      dup1\n        /* \"#utility.yul\":1903:1915   */\n      revert\n        /* \"#utility.yul\":1881:1917   */\n    tag_286:\n      pop\n        /* \"#utility.yul\":1936:1988   */\n      tag_287\n        /* \"#utility.yul\":1980:1987   */\n      dup7\n        /* \"#utility.yul\":1969:1977   */\n      dup3\n        /* \"#utility.yul\":1958:1967   */\n      dup8\n        /* \"#utility.yul\":1954:1978   */\n      add\n        /* \"#utility.yul\":1936:1988   */\n      tag_266\n      jump\t// in\n    tag_287:\n        /* \"#utility.yul\":1926:1988   */\n      swap3\n      pop\n      pop\n        /* \"#utility.yul\":2007:2045   */\n      tag_288\n        /* \"#utility.yul\":2041:2043   */\n      0x40\n        /* \"#utility.yul\":2030:2039   */\n      dup6\n        /* \"#utility.yul\":2026:2044   */\n      add\n        /* \"#utility.yul\":2007:2045   */\n      tag_263\n      jump\t// in\n    tag_288:\n        /* \"#utility.yul\":1997:2045   */\n      swap1\n      pop\n        /* \"#utility.yul\":1434:2051   */\n      swap3\n      pop\n      swap3\n      pop\n      swap3\n      jump\t// out\n        /* \"#utility.yul\":2056:2236   */\n    tag_53:\n        /* \"#utility.yul\":2115:2121   */\n      0x00\n        /* \"#utility.yul\":2168:2170   */\n      0x20\n        /* \"#utility.yul\":2156:2165   */\n      dup3\n        /* \"#utility.yul\":2147:2154   */\n      dup5\n        /* \"#utility.yul\":2143:2166   */\n      sub\n        /* \"#utility.yul\":2139:2171   */\n      slt\n        /* \"#utility.yul\":2136:2188   */\n      iszero\n      tag_290\n      jumpi\n        /* \"#utility.yul\":2184:2185   */\n      0x00\n        /* \"#utility.yul\":2181:2182   */\n      dup1\n        /* \"#utility.yul\":2174:2186   */\n      revert\n        /* \"#utility.yul\":2136:2188   */\n    tag_290:\n      pop\n        /* \"#utility.yul\":2207:2230   */\n      calldataload\n      swap2\n        /* \"#utility.yul\":2056:2236   */\n      swap1\n      pop\n      jump\t// out\n        /* \"#utility.yul\":2241:2517   */\n    tag_204:\n        /* \"#utility.yul\":2372:2375   */\n      0x00\n        /* \"#utility.yul\":2410:2416   */\n      dup3\n        /* \"#utility.yul\":2404:2417   */\n      mload\n        /* \"#utility.yul\":2426:2479   */\n      tag_292\n        /* \"#utility.yul\":2472:2478   */\n      dup2\n        /* \"#utility.yul\":2467:2470   */\n      dup5\n        /* \"#utility.yul\":2460:2464   */\n      0x20\n        /* \"#utility.yul\":2452:2458   */\n      dup8\n        /* \"#utility.yul\":2448:2465   */\n      add\n        /* \"#utility.yul\":2426:2479   */\n      tag_293\n      jump\t// in\n    tag_292:\n        /* \"#utility.yul\":2495:2511   */\n      swap2\n      swap1\n      swap2\n      add\n      swap3\n        /* \"#utility.yul\":2241:2517   */\n      swap2\n      pop\n      pop\n      jump\t// out\n        /* \"#utility.yul\":2522:3180   */\n    tag_37:\n        /* \"#utility.yul\":2693:2695   */\n      0x20\n        /* \"#utility.yul\":2745:2766   */\n      dup1\n      dup3\n      mstore\n        /* \"#utility.yul\":2815:2828   */\n      dup3\n      mload\n        /* \"#utility.yul\":2718:2736   */\n      dup3\n      dup3\n      add\n        /* \"#utility.yul\":2837:2859   */\n      dup2\n      swap1\n      mstore\n        /* \"#utility.yul\":2664:2668   */\n      0x00\n      swap2\n        /* \"#utility.yul\":2693:2695   */\n      swap1\n        /* \"#utility.yul\":2916:2931   */\n      dup5\n      dup3\n      add\n      swap1\n        /* \"#utility.yul\":2890:2892   */\n      0x40\n        /* \"#utility.yul\":2875:2893   */\n      dup6\n      add\n      swap1\n        /* \"#utility.yul\":2664:2668   */\n      dup5\n        /* \"#utility.yul\":2959:3154   */\n    tag_295:\n        /* \"#utility.yul\":2973:2979   */\n      dup2\n        /* \"#utility.yul\":2970:2971   */\n      dup2\n        /* \"#utility.yul\":2967:2980   */\n      lt\n        /* \"#utility.yul\":2959:3154   */\n      iszero\n      tag_297\n      jumpi\n        /* \"#utility.yul\":3038:3051   */\n      dup4\n      mload\n      sub(shl(0xa0, 0x01), 0x01)\n        /* \"#utility.yul\":3034:3073   */\n      and\n        /* \"#utility.yul\":3022:3074   */\n      dup4\n      mstore\n        /* \"#utility.yul\":3129:3144   */\n      swap3\n      dup5\n      add\n      swap3\n        /* \"#utility.yul\":3094:3106   */\n      swap2\n      dup5\n      add\n      swap2\n        /* \"#utility.yul\":3070:3071   */\n      0x01\n        /* \"#utility.yul\":2988:2997   */\n      add\n        /* \"#utility.yul\":2959:3154   */\n      jump(tag_295)\n    tag_297:\n      pop\n        /* \"#utility.yul\":3171:3174   */\n      swap1\n      swap7\n        /* \"#utility.yul\":2522:3180   */\n      swap6\n      pop\n      pop\n      pop\n      pop\n      pop\n      pop\n      jump\t// out\n        /* \"#utility.yul\":3367:4362   */\n    tag_82:\n        /* \"#utility.yul\":3653:3657   */\n      0x00\n        /* \"#utility.yul\":3693:3694   */\n      0x05\n        /* \"#utility.yul\":3685:3691   */\n      dup10\n        /* \"#utility.yul\":3682:3695   */\n      lt\n        /* \"#utility.yul\":3672:3816   */\n      tag_300\n      jumpi\n        /* \"#utility.yul\":3738:3748   */\n      0x4e487b71\n        /* \"#utility.yul\":3733:3736   */\n      0xe0\n        /* \"#utility.yul\":3729:3749   */\n      shl\n        /* \"#utility.yul\":3726:3727   */\n      0x00\n        /* \"#utility.yul\":3719:3750   */\n      mstore\n        /* \"#utility.yul\":3773:3777   */\n      0x21\n        /* \"#utility.yul\":3770:3771   */\n      0x04\n        /* \"#utility.yul\":3763:3778   */\n      mstore\n        /* \"#utility.yul\":3801:3805   */\n      0x24\n        /* \"#utility.yul\":3798:3799   */\n      0x00\n        /* \"#utility.yul\":3791:3806   */\n      revert\n        /* \"#utility.yul\":3672:3816   */\n    tag_300:\n        /* \"#utility.yul\":3843:3849   */\n      dup9\n        /* \"#utility.yul\":3832:3841   */\n      dup3\n        /* \"#utility.yul\":3825:3850   */\n      mstore\n        /* \"#utility.yul\":3886:3889   */\n      0xe0\n        /* \"#utility.yul\":3881:3883   */\n      0x20\n        /* \"#utility.yul\":3870:3879   */\n      dup4\n        /* \"#utility.yul\":3866:3884   */\n      add\n        /* \"#utility.yul\":3859:3890   */\n      mstore\n        /* \"#utility.yul\":3919:3925   */\n      dup8\n        /* \"#utility.yul\":3913:3926   */\n      mload\n        /* \"#utility.yul\":3963:3969   */\n      dup1\n        /* \"#utility.yul\":3957:3960   */\n      0xe0\n        /* \"#utility.yul\":3946:3955   */\n      dup5\n        /* \"#utility.yul\":3942:3961   */\n      add\n        /* \"#utility.yul\":3935:3970   */\n      mstore\n        /* \"#utility.yul\":3989:3992   */\n      0x0100\n        /* \"#utility.yul\":4001:4067   */\n      tag_301\n        /* \"#utility.yul\":4060:4066   */\n      dup3\n        /* \"#utility.yul\":4055:4057   */\n      dup3\n        /* \"#utility.yul\":4044:4053   */\n      dup7\n        /* \"#utility.yul\":4040:4058   */\n      add\n        /* \"#utility.yul\":4035:4037   */\n      0x20\n        /* \"#utility.yul\":4027:4033   */\n      dup14\n        /* \"#utility.yul\":4023:4038   */\n      add\n        /* \"#utility.yul\":4001:4067   */\n      tag_293\n      jump\t// in\n    tag_301:\n        /* \"#utility.yul\":4169:4171   */\n      0x40\n        /* \"#utility.yul\":4154:4172   */\n      dup5\n      add\n        /* \"#utility.yul\":4147:4181   */\n      swap9\n      swap1\n      swap9\n      mstore\n        /* \"#utility.yul\":4212:4214   */\n      0x60\n        /* \"#utility.yul\":4197:4215   */\n      dup4\n      add\n        /* \"#utility.yul\":4190:4224   */\n      swap7\n      swap1\n      swap7\n      mstore\n      pop\n        /* \"#utility.yul\":4255:4258   */\n      0x80\n        /* \"#utility.yul\":4240:4259   */\n      dup2\n      add\n        /* \"#utility.yul\":4233:4268   */\n      swap4\n      swap1\n      swap4\n      mstore\n        /* \"#utility.yul\":4299:4302   */\n      0xa0\n        /* \"#utility.yul\":4284:4303   */\n      dup4\n      add\n        /* \"#utility.yul\":4277:4312   */\n      swap2\n      swap1\n      swap2\n      mstore\n        /* \"#utility.yul\":4343:4346   */\n      0xc0\n        /* \"#utility.yul\":4328:4347   */\n      dup3\n      add\n        /* \"#utility.yul\":4321:4356   */\n      mstore\n        /* \"#utility.yul\":4128:4130   */\n      0x1f\n        /* \"#utility.yul\":4107:4122   */\n      swap1\n      swap2\n      add\n      not(0x1f)\n        /* \"#utility.yul\":4103:4132   */\n      and\n        /* \"#utility.yul\":4088:4133   */\n      add\n        /* \"#utility.yul\":4084:4138   */\n      add\n      swap3\n      swap2\n      pop\n      pop\n        /* \"#utility.yul\":3367:4362   */\n      jump\t// out\n        /* \"#utility.yul\":4367:4719   */\n    tag_107:\n        /* \"#utility.yul\":4569:4571   */\n      0x20\n        /* \"#utility.yul\":4551:4572   */\n      dup1\n      dup3\n      mstore\n        /* \"#utility.yul\":4608:4610   */\n      0x1c\n        /* \"#utility.yul\":4588:4606   */\n      swap1\n      dup3\n      add\n        /* \"#utility.yul\":4581:4611   */\n      mstore\n      shl(0x22, 0x14995d9a595dc81d1a1948185c1c1b1a58d85d1a5bdb88199a5c9cdd)\n        /* \"#utility.yul\":4642:4644   */\n      0x40\n        /* \"#utility.yul\":4627:4645   */\n      dup3\n      add\n        /* \"#utility.yul\":4620:4678   */\n      mstore\n        /* \"#utility.yul\":4710:4712   */\n      0x60\n        /* \"#utility.yul\":4695:4713   */\n      add\n      swap1\n        /* \"#utility.yul\":4367:4719   */\n      jump\t// out\n        /* \"#utility.yul\":7370:7719   */\n    tag_91:\n        /* \"#utility.yul\":7572:7574   */\n      0x20\n        /* \"#utility.yul\":7554:7575   */\n      dup1\n      dup3\n      mstore\n        /* \"#utility.yul\":7611:7613   */\n      0x19\n        /* \"#utility.yul\":7591:7609   */\n      swap1\n      dup3\n      add\n        /* \"#utility.yul\":7584:7614   */\n      mstore\n      shl(0x39, 0x2cb7bab9103737ba10283934bb30ba3290383937bb34b232b9)\n        /* \"#utility.yul\":7645:7647   */\n      0x40\n        /* \"#utility.yul\":7630:7648   */\n      dup3\n      add\n        /* \"#utility.yul\":7623:7678   */\n      mstore\n        /* \"#utility.yul\":7710:7712   */\n      0x60\n        /* \"#utility.yul\":7695:7713   */\n      add\n      swap1\n        /* \"#utility.yul\":7370:7719   */\n      jump\t// out\n        /* \"#utility.yul\":8682:8940   */\n    tag_293:\n        /* \"#utility.yul\":8754:8755   */\n      0x00\n        /* \"#utility.yul\":8764:8877   */\n    tag_315:\n        /* \"#utility.yul\":8778:8784   */\n      dup4\n        /* \"#utility.yul\":8775:8776   */\n      dup2\n        /* \"#utility.yul\":8772:8785   */\n      lt\n        /* \"#utility.yul\":8764:8877   */\n      iszero\n      tag_317\n      jumpi\n        /* \"#utility.yul\":8854:8865   */\n      dup2\n      dup2\n      add\n        /* \"#utility.yul\":8848:8866   */\n      mload\n        /* \"#utility.yul\":8835:8846   */\n      dup4\n      dup3\n      add\n        /* \"#utility.yul\":8828:8867   */\n      mstore\n        /* \"#utility.yul\":8800:8802   */\n      0x20\n        /* \"#utility.yul\":8793:8803   */\n      add\n        /* \"#utility.yul\":8764:8877   */\n      jump(tag_315)\n    tag_317:\n        /* \"#utility.yul\":8895:8901   */\n      dup4\n        /* \"#utility.yul\":8892:8893   */\n      dup2\n        /* \"#utility.yul\":8889:8902   */\n      gt\n        /* \"#utility.yul\":8886:8934   */\n      iszero\n      tag_318\n      jumpi\n        /* \"#utility.yul\":8930:8931   */\n      0x00\n        /* \"#utility.yul\":8921:8927   */\n      dup5\n        /* \"#utility.yul\":8916:8919   */\n      dup5\n        /* \"#utility.yul\":8912:8928   */\n      add\n        /* \"#utility.yul\":8905:8932   */\n      mstore\n        /* \"#utility.yul\":8886:8934   */\n    tag_318:\n      pop\n        /* \"#utility.yul\":8682:8940   */\n      pop\n      pop\n      pop\n      jump\t// out\n        /* \"#utility.yul\":8945:9325   */\n    tag_221:\n        /* \"#utility.yul\":9024:9025   */\n      0x01\n        /* \"#utility.yul\":9020:9032   */\n      dup2\n      dup2\n      shr\n      swap1\n        /* \"#utility.yul\":9067:9079   */\n      dup3\n      and\n      dup1\n        /* \"#utility.yul\":9088:9149   */\n      tag_320\n      jumpi\n        /* \"#utility.yul\":9142:9146   */\n      0x7f\n        /* \"#utility.yul\":9134:9140   */\n      dup3\n        /* \"#utility.yul\":9130:9147   */\n      and\n        /* \"#utility.yul\":9120:9147   */\n      swap2\n      pop\n        /* \"#utility.yul\":9088:9149   */\n    tag_320:\n        /* \"#utility.yul\":9195:9197   */\n      0x20\n        /* \"#utility.yul\":9187:9193   */\n      dup3\n        /* \"#utility.yul\":9184:9198   */\n      lt\n        /* \"#utility.yul\":9164:9182   */\n      dup2\n        /* \"#utility.yul\":9161:9199   */\n      eq\n        /* \"#utility.yul\":9158:9319   */\n      iszero\n      tag_321\n      jumpi\n        /* \"#utility.yul\":9241:9251   */\n      0x4e487b71\n        /* \"#utility.yul\":9236:9239   */\n      0xe0\n        /* \"#utility.yul\":9232:9252   */\n      shl\n        /* \"#utility.yul\":9229:9230   */\n      0x00\n        /* \"#utility.yul\":9222:9253   */\n      mstore\n        /* \"#utility.yul\":9276:9280   */\n      0x22\n        /* \"#utility.yul\":9273:9274   */\n      0x04\n        /* \"#utility.yul\":9266:9281   */\n      mstore\n        /* \"#utility.yul\":9304:9308   */\n      0x24\n        /* \"#utility.yul\":9301:9302   */\n      0x00\n        /* \"#utility.yul\":9294:9309   */\n      revert\n        /* \"#utility.yul\":9158:9319   */\n    tag_321:\n      pop\n        /* \"#utility.yul\":8945:9325   */\n      swap2\n      swap1\n      pop\n      jump\t// out\n        /* \"#utility.yul\":9330:9562   */\n    tag_163:\n        /* \"#utility.yul\":9369:9372   */\n      0x00\n      not(0x00)\n        /* \"#utility.yul\":9390:9407   */\n      dup3\n      eq\n        /* \"#utility.yul\":9387:9527   */\n      iszero\n      tag_323\n      jumpi\n        /* \"#utility.yul\":9449:9459   */\n      0x4e487b71\n        /* \"#utility.yul\":9444:9447   */\n      0xe0\n        /* \"#utility.yul\":9440:9460   */\n      shl\n        /* \"#utility.yul\":9437:9438   */\n      0x00\n        /* \"#utility.yul\":9430:9461   */\n      mstore\n        /* \"#utility.yul\":9484:9488   */\n      0x11\n        /* \"#utility.yul\":9481:9482   */\n      0x04\n        /* \"#utility.yul\":9474:9489   */\n      mstore\n        /* \"#utility.yul\":9512:9516   */\n      0x24\n        /* \"#utility.yul\":9509:9510   */\n      0x00\n        /* \"#utility.yul\":9502:9517   */\n      revert\n        /* \"#utility.yul\":9387:9527   */\n    tag_323:\n      pop\n        /* \"#utility.yul\":9554:9555   */\n      0x01\n        /* \"#utility.yul\":9543:9556   */\n      add\n      swap1\n        /* \"#utility.yul\":9330:9562   */\n      jump\t// out\n        /* \"#utility.yul\":9567:9694   */\n    tag_86:\n        /* \"#utility.yul\":9628:9638   */\n      0x4e487b71\n        /* \"#utility.yul\":9623:9626   */\n      0xe0\n        /* \"#utility.yul\":9619:9639   */\n      shl\n        /* \"#utility.yul\":9616:9617   */\n      0x00\n        /* \"#utility.yul\":9609:9640   */\n      mstore\n        /* \"#utility.yul\":9659:9663   */\n      0x21\n        /* \"#utility.yul\":9656:9657   */\n      0x04\n        /* \"#utility.yul\":9649:9664   */\n      mstore\n        /* \"#utility.yul\":9683:9687   */\n      0x24\n        /* \"#utility.yul\":9680:9681   */\n      0x00\n        /* \"#utility.yul\":9673:9688   */\n      revert\n        /* \"#utility.yul\":9699:9826   */\n    tag_156:\n        /* \"#utility.yul\":9760:9770   */\n      0x4e487b71\n        /* \"#utility.yul\":9755:9758   */\n      0xe0\n        /* \"#utility.yul\":9751:9771   */\n      shl\n        /* \"#utility.yul\":9748:9749   */\n      0x00\n        /* \"#utility.yul\":9741:9772   */\n      mstore\n        /* \"#utility.yul\":9791:9795   */\n      0x32\n        /* \"#utility.yul\":9788:9789   */\n      0x04\n        /* \"#utility.yul\":9781:9796   */\n      mstore\n        /* \"#utility.yul\":9815:9819   */\n      0x24\n        /* \"#utility.yul\":9812:9813   */\n      0x00\n        /* \"#utility.yul\":9805:9820   */\n      revert\n        /* \"#utility.yul\":9831:9958   */\n    tag_271:\n        /* \"#utility.yul\":9892:9902   */\n      0x4e487b71\n        /* \"#utility.yul\":9887:9890   */\n      0xe0\n        /* \"#utility.yul\":9883:9903   */\n      shl\n        /* \"#utility.yul\":9880:9881   */\n      0x00\n        /* \"#utility.yul\":9873:9904   */\n      mstore\n        /* \"#utility.yul\":9923:9927   */\n      0x41\n        /* \"#utility.yul\":9920:9921   */\n      0x04\n        /* \"#utility.yul\":9913:9928   */\n      mstore\n        /* \"#utility.yul\":9947:9951   */\n      0x24\n        /* \"#utility.yul\":9944:9945   */\n      0x00\n        /* \"#utility.yul\":9937:9952   */\n      revert\n    stop\n    data_210f354537685f9e5e046d4cb2f76e07344954c6dc3e59ff15ac4b676d448167 02e472438281ece9fae629c31ebc952b0b512971efb1bacfc7d4441c586cff6c\n    data_b868bdfa8727775661e4ccf117824a175a33f8703d728c04488fbfffcafda9f9 f652222313e28459528d920b65115c16c04f3efc82aaedc97be59f3f377c0d3f\n\n    auxdata: 0xa26469706673582212201fe56098de5209dffcda5a5248cf9bf09cd7bb7fb90390d498a29fc10e1ee77e64736f6c63430008070033\n}\n",
				"bytecode": {
					"linkReferences": {},
					"object": "6080604052632cb41780600255620186a060035534801561001f57600080fd5b506115238061002f6000396000f3fe608060405234801561001057600080fd5b50600436106100db5760003560e01c80630691615d146100e05780630761c8b9146100ea5780631d3eea35146101065780632599d6d014610119578063686c4cea1461014557806372f0d72b1461015a578063785963c3146101865780637f4b8df0146101995780637f89128f146101a15780638aa7cc0b146101a95780638e4f8c6b146101bc578063948942ad146101cf57806399067ede146101d8578063a678b65b146101f3578063b06cdc1214610206578063c10e391114610232578063fc8372591461023a575b600080fd5b6100e8610260565b005b6100f360025481565b6040519081526020015b60405180910390f35b6100e861011436600461119f565b610371565b6100f361012736600461119f565b6001600160a01b031660009081526020819052604090206004015490565b61014d610415565b6040516100fd91906112a5565b6100f361016836600461119f565b6001600160a01b031660009081526020819052604090206006015490565b6100e86101943660046111fd565b6104ba565b6100e861093f565b61014d610acc565b6100e86101b7366004611270565b610b90565b6100f36101ca3660046111c1565b610bd8565b6100f360035481565b6100f36101e636600461119f565b6001600160a01b03163190565b6100e861020136600461119f565b610c08565b6100f361021436600461119f565b6001600160a01b031660009081526020819052604090206005015490565b61014d610e84565b61024d61024836600461119f565b610f97565b6040516100fd97969594939291906112f2565b60023360009081526020819052604090205460ff1660048111156102865761028661146b565b146102ac5760405162461bcd60e51b81526004016102a3906113a4565b60405180910390fd5b3360009081526004602052604090205460ff161580156102e1575033600090815260046020526040902054610100900460ff16155b6103245760405162461bcd60e51b8152602060048201526014602482015273506861736520616c72656164792061637469766560601b60448201526064016102a3565b6040805180820182526001808252602080830191825233600090815260049091529290922090518154925161ffff1990931690151561ff0019161761010092151592909202919091179055565b60023360009081526020819052604090205460ff1660048111156103975761039761146b565b146103b45760405162461bcd60e51b81526004016102a3906113a4565b33600090815260056020526040902060020154600160a81b900460ff16156103ee5760405162461bcd60e51b81526004016102a39061136e565b6001600160a01b03166000908152600560205260409020600201805460ff60a01b19169055565b606060023360009081526020819052604090205460ff16600481111561043d5761043d61146b565b1461045a5760405162461bcd60e51b81526004016102a3906113a4565b60068054806020026020016040519081016040528092919081815260200182805480156104b057602002820191906000526020600020905b81546001600160a01b03168152600190910190602001808311610492575b5050505050905090565b3360009081526020819052604081205460ff1660048111156104de576104de61146b565b14158061050f575060013360009081526020819052604090205460ff16600481111561050c5761050c61146b565b14155b8061053e575060023360009081526020819052604090205460ff16600481111561053b5761053b61146b565b14155b8061056d575060033360009081526020819052604090205460ff16600481111561056a5761056a61146b565b14155b6105d45760405162461bcd60e51b815260206004820152603260248201527f4170706c69636174696f6e2063616e206f6e6c79206265207375626d697474656044820152716420627920726567756c617220757365727360701b60648201526084016102a3565b73ab8483f64d9c6d1ecf9b849ae677dd3315835cb2600090815260046020526000805160206114ae8339815191525460ff16158015610640575073ab8483f64d9c6d1ecf9b849ae677dd3315835cb260005260046020526000805160206114ae8339815191525460ff16155b6106865760405162461bcd60e51b8152602060048201526017602482015276105c1c1b1a58d85d1a5bdb881c1a185cd948195b991959604a1b60448201526064016102a3565b336001600160a01b038316146106fe5760405162461bcd60e51b815260206004820152603760248201527f596f752063616e27742073656e6420616e206170706c69636174696f6e20746f60448201527620736f6d656f6e6520656c73652773206164647265737360481b60648201526084016102a3565b60005b6006548110156107a357336001600160a01b03166006828154811061072857610728611481565b6000918252602090912001546001600160a01b0316141561074857600191505b81156107915760405162461bcd60e51b8152602060048201526018602482015277105c1c1b1a58d85d1a5bdb88185b1c9958591e481cd95b9d60421b60448201526064016102a3565b8061079b81611442565b915050610701565b5033600090815260056020526040902060020154600160a01b900460ff16156108215760405162461bcd60e51b815260206004820152602a60248201527f596f7572206170706c69636174696f6e2068617320616c7265616479206265656044820152691b881c995a9958dd195960b21b60648201526084016102a3565b6040805160c08101825285815260208082018690526001600160a01b0385168284015260016060830181905260006080840181905260a08401919091523381526005825292909220815180519293919261087e928492019061105e565b506020828101518051610897926001850192019061105e565b506040820151600290910180546060840151608085015160a0909501511515600160b01b0260ff60b01b19951515600160a81b029590951661ffff60a81b19911515600160a01b026001600160a81b03199093166001600160a01b03909516949094179190911716919091179190911790555050600680546001810182556000919091526000805160206114ce8339815191520180546001600160a01b031916331790555050565b60023360009081526020819052604090205460ff1660048111156109655761096561146b565b146109825760405162461bcd60e51b81526004016102a3906113a4565b3360009081526004602052604090205460ff16151560011480156109c057503360009081526004602052604090205460ff6101009091041615156001145b610a0c5760405162461bcd60e51b815260206004820181905260248201527f506861736520686173206e6f7420796574206265656e2061637469766174656460448201526064016102a3565b6040805180820182526000808252600160208084018281523384526004808352868520955186549251151561010090810261ff0019921515831661ffff1995861617179097558751808901909852848852878401948552734b20993bc481177ec7e8f571cecae8a9e22c02db90955290915293517fb9fe4b740977877e3fa94e7f3dbf51ffcc3fb0449ed024e5d3849f3210d56220805492511515909402901515909216931692909217919091179055633b9aca00600255611388600355565b606060003360009081526020819052604090205460ff166004811115610af457610af461146b565b14610b325760405162461bcd60e51b815260206004820152600e60248201526d2cb7bab9103737ba1030b236b4b760911b60448201526064016102a3565b60088054806020026020016040519081016040528092919081815260200182805480156104b0576020028201919060005260206000209081546001600160a01b03168152600190910190602001808311610492575050505050905090565b60023360009081526020819052604090205460ff166004811115610bb657610bb661146b565b14610bd35760405162461bcd60e51b81526004016102a3906113a4565b600255565b600081604051602001610beb9190611289565b604051602081830303815290604052805190602001209050919050565b60023360009081526020819052604090205460ff166004811115610c2e57610c2e61146b565b14610c4b5760405162461bcd60e51b81526004016102a3906113a4565b33600090815260056020526040902060020154600160a81b900460ff1615610c855760405162461bcd60e51b81526004016102a39061136e565b6001600160a01b038116600081815260056020818152604080842060028101805460ff60a01b191690556006805460018181019092556000805160206114ce8339815191520180546001600160a01b031990811689179091556007805492830190557fa66cc928b5edb82af9bd49922954155ab7b0942694bea4ce44661d9a8736c688909101805490911687179055815160e0810190925260048252949093529081528254919290830191610d3990611407565b80601f0160208091040260200160405190810160405280929190818152602001828054610d6590611407565b8015610db25780601f10610d8757610100808354040283529160200191610db2565b820191906000526020600020905b815481529060010190602001808311610d9557829003601f168201915b50505050508152602001610dde604051806040016040528060018152602001600360fc1b815250610bd8565b81526000602080830182905260408084018390526060840183905260809093018290526001600160a01b03851682528190522081518154829060ff19166001836004811115610e2f57610e2f61146b565b02179055506020828101518051610e4c926001850192019061105e565b5060408201516002820155606082015160038201556080820151600482015560a0820151600582015560c09091015160069091015550565b606060003360009081526020819052604090205460ff166004811115610eac57610eac61146b565b1480610edb575060023360009081526020819052604090205460ff166004811115610ed957610ed961146b565b145b610f395760405162461bcd60e51b815260206004820152602960248201527f596f7520617265206e6f7420746865206f776e6572206f72207072697661746560448201526810383937bb34b232b960b91b60648201526084016102a3565b60078054806020026020016040519081016040528092919081815260200182805480156104b0576020028201919060005260206000209081546001600160a01b03168152600190910190602001808311610492575050505050905090565b6000602081905290815260409020805460018201805460ff9092169291610fbd90611407565b80601f0160208091040260200160405190810160405280929190818152602001828054610fe990611407565b80156110365780601f1061100b57610100808354040283529160200191611036565b820191906000526020600020905b81548152906001019060200180831161101957829003601f168201915b5050505050908060020154908060030154908060040154908060050154908060060154905087565b82805461106a90611407565b90600052602060002090601f01602090048101928261108c57600085556110d2565b82601f106110a557805160ff19168380011785556110d2565b828001600101855582156110d2579182015b828111156110d25782518255916020019190600101906110b7565b506110de9291506110e2565b5090565b5b808211156110de57600081556001016110e3565b80356001600160a01b038116811461110e57600080fd5b919050565b600082601f83011261112457600080fd5b81356001600160401b038082111561113e5761113e611497565b604051601f8301601f19908116603f0116810190828211818310171561116657611166611497565b8160405283815286602085880101111561117f57600080fd5b836020870160208301376000602085830101528094505050505092915050565b6000602082840312156111b157600080fd5b6111ba826110f7565b9392505050565b6000602082840312156111d357600080fd5b81356001600160401b038111156111e957600080fd5b6111f584828501611113565b949350505050565b60008060006060848603121561121257600080fd5b83356001600160401b038082111561122957600080fd5b61123587838801611113565b9450602086013591508082111561124b57600080fd5b5061125886828701611113565b925050611267604085016110f7565b90509250925092565b60006020828403121561128257600080fd5b5035919050565b6000825161129b8184602087016113d7565b9190910192915050565b6020808252825182820181905260009190848201906040850190845b818110156112e65783516001600160a01b0316835292840192918401916001016112c1565b50909695505050505050565b60006005891061131257634e487b7160e01b600052602160045260246000fd5b88825260e0602083015287518060e08401526101006113378282860160208d016113d7565b6040840198909852606083019690965250608081019390935260a083019190915260c0820152601f909101601f1916010192915050565b6020808252601c908201527b14995d9a595dc81d1a1948185c1c1b1a58d85d1a5bdb88199a5c9cdd60221b604082015260600190565b6020808252601990820152782cb7bab9103737ba10283934bb30ba3290383937bb34b232b960391b604082015260600190565b60005b838110156113f25781810151838201526020016113da565b83811115611401576000848401525b50505050565b600181811c9082168061141b57607f821691505b6020821081141561143c57634e487b7160e01b600052602260045260246000fd5b50919050565b600060001982141561146457634e487b7160e01b600052601160045260246000fd5b5060010190565b634e487b7160e01b600052602160045260246000fd5b634e487b7160e01b600052603260045260246000fd5b634e487b7160e01b600052604160045260246000fdfe02e472438281ece9fae629c31ebc952b0b512971efb1bacfc7d4441c586cff6cf652222313e28459528d920b65115c16c04f3efc82aaedc97be59f3f377c0d3fa26469706673582212201fe56098de5209dffcda5a5248cf9bf09cd7bb7fb90390d498a29fc10e1ee77e64736f6c63430008070033",
					"opcodes": "PUSH1 0x80 PUSH1 0x40 MSTORE PUSH4 0x2CB41780 PUSH1 0x2 SSTORE PUSH3 0x186A0 PUSH1 0x3 SSTORE CALLVALUE DUP1 ISZERO PUSH2 0x1F JUMPI PUSH1 0x0 DUP1 REVERT JUMPDEST POP PUSH2 0x1523 DUP1 PUSH2 0x2F PUSH1 0x0 CODECOPY PUSH1 0x0 RETURN INVALID PUSH1 0x80 PUSH1 0x40 MSTORE CALLVALUE DUP1 ISZERO PUSH2 0x10 JUMPI PUSH1 0x0 DUP1 REVERT JUMPDEST POP PUSH1 0x4 CALLDATASIZE LT PUSH2 0xDB JUMPI PUSH1 0x0 CALLDATALOAD PUSH1 0xE0 SHR DUP1 PUSH4 0x691615D EQ PUSH2 0xE0 JUMPI DUP1 PUSH4 0x761C8B9 EQ PUSH2 0xEA JUMPI DUP1 PUSH4 0x1D3EEA35 EQ PUSH2 0x106 JUMPI DUP1 PUSH4 0x2599D6D0 EQ PUSH2 0x119 JUMPI DUP1 PUSH4 0x686C4CEA EQ PUSH2 0x145 JUMPI DUP1 PUSH4 0x72F0D72B EQ PUSH2 0x15A JUMPI DUP1 PUSH4 0x785963C3 EQ PUSH2 0x186 JUMPI DUP1 PUSH4 0x7F4B8DF0 EQ PUSH2 0x199 JUMPI DUP1 PUSH4 0x7F89128F EQ PUSH2 0x1A1 JUMPI DUP1 PUSH4 0x8AA7CC0B EQ PUSH2 0x1A9 JUMPI DUP1 PUSH4 0x8E4F8C6B EQ PUSH2 0x1BC JUMPI DUP1 PUSH4 0x948942AD EQ PUSH2 0x1CF JUMPI DUP1 PUSH4 0x99067EDE EQ PUSH2 0x1D8 JUMPI DUP1 PUSH4 0xA678B65B EQ PUSH2 0x1F3 JUMPI DUP1 PUSH4 0xB06CDC12 EQ PUSH2 0x206 JUMPI DUP1 PUSH4 0xC10E3911 EQ PUSH2 0x232 JUMPI DUP1 PUSH4 0xFC837259 EQ PUSH2 0x23A JUMPI JUMPDEST PUSH1 0x0 DUP1 REVERT JUMPDEST PUSH2 0xE8 PUSH2 0x260 JUMP JUMPDEST STOP JUMPDEST PUSH2 0xF3 PUSH1 0x2 SLOAD DUP2 JUMP JUMPDEST PUSH1 0x40 MLOAD SWAP1 DUP2 MSTORE PUSH1 0x20 ADD JUMPDEST PUSH1 0x40 MLOAD DUP1 SWAP2 SUB SWAP1 RETURN JUMPDEST PUSH2 0xE8 PUSH2 0x114 CALLDATASIZE PUSH1 0x4 PUSH2 0x119F JUMP JUMPDEST PUSH2 0x371 JUMP JUMPDEST PUSH2 0xF3 PUSH2 0x127 CALLDATASIZE PUSH1 0x4 PUSH2 0x119F JUMP JUMPDEST PUSH1 0x1 PUSH1 0x1 PUSH1 0xA0 SHL SUB AND PUSH1 0x0 SWAP1 DUP2 MSTORE PUSH1 0x20 DUP2 SWAP1 MSTORE PUSH1 0x40 SWAP1 KECCAK256 PUSH1 0x4 ADD SLOAD SWAP1 JUMP JUMPDEST PUSH2 0x14D PUSH2 0x415 JUMP JUMPDEST PUSH1 0x40 MLOAD PUSH2 0xFD SWAP2 SWAP1 PUSH2 0x12A5 JUMP JUMPDEST PUSH2 0xF3 PUSH2 0x168 CALLDATASIZE PUSH1 0x4 PUSH2 0x119F JUMP JUMPDEST PUSH1 0x1 PUSH1 0x1 PUSH1 0xA0 SHL SUB AND PUSH1 0x0 SWAP1 DUP2 MSTORE PUSH1 0x20 DUP2 SWAP1 MSTORE PUSH1 0x40 SWAP1 KECCAK256 PUSH1 0x6 ADD SLOAD SWAP1 JUMP JUMPDEST PUSH2 0xE8 PUSH2 0x194 CALLDATASIZE PUSH1 0x4 PUSH2 0x11FD JUMP JUMPDEST PUSH2 0x4BA JUMP JUMPDEST PUSH2 0xE8 PUSH2 0x93F JUMP JUMPDEST PUSH2 0x14D PUSH2 0xACC JUMP JUMPDEST PUSH2 0xE8 PUSH2 0x1B7 CALLDATASIZE PUSH1 0x4 PUSH2 0x1270 JUMP JUMPDEST PUSH2 0xB90 JUMP JUMPDEST PUSH2 0xF3 PUSH2 0x1CA CALLDATASIZE PUSH1 0x4 PUSH2 0x11C1 JUMP JUMPDEST PUSH2 0xBD8 JUMP JUMPDEST PUSH2 0xF3 PUSH1 0x3 SLOAD DUP2 JUMP JUMPDEST PUSH2 0xF3 PUSH2 0x1E6 CALLDATASIZE PUSH1 0x4 PUSH2 0x119F JUMP JUMPDEST PUSH1 0x1 PUSH1 0x1 PUSH1 0xA0 SHL SUB AND BALANCE SWAP1 JUMP JUMPDEST PUSH2 0xE8 PUSH2 0x201 CALLDATASIZE PUSH1 0x4 PUSH2 0x119F JUMP JUMPDEST PUSH2 0xC08 JUMP JUMPDEST PUSH2 0xF3 PUSH2 0x214 CALLDATASIZE PUSH1 0x4 PUSH2 0x119F JUMP JUMPDEST PUSH1 0x1 PUSH1 0x1 PUSH1 0xA0 SHL SUB AND PUSH1 0x0 SWAP1 DUP2 MSTORE PUSH1 0x20 DUP2 SWAP1 MSTORE PUSH1 0x40 SWAP1 KECCAK256 PUSH1 0x5 ADD SLOAD SWAP1 JUMP JUMPDEST PUSH2 0x14D PUSH2 0xE84 JUMP JUMPDEST PUSH2 0x24D PUSH2 0x248 CALLDATASIZE PUSH1 0x4 PUSH2 0x119F JUMP JUMPDEST PUSH2 0xF97 JUMP JUMPDEST PUSH1 0x40 MLOAD PUSH2 0xFD SWAP8 SWAP7 SWAP6 SWAP5 SWAP4 SWAP3 SWAP2 SWAP1 PUSH2 0x12F2 JUMP JUMPDEST PUSH1 0x2 CALLER PUSH1 0x0 SWAP1 DUP2 MSTORE PUSH1 0x20 DUP2 SWAP1 MSTORE PUSH1 0x40 SWAP1 KECCAK256 SLOAD PUSH1 0xFF AND PUSH1 0x4 DUP2 GT ISZERO PUSH2 0x286 JUMPI PUSH2 0x286 PUSH2 0x146B JUMP JUMPDEST EQ PUSH2 0x2AC JUMPI PUSH1 0x40 MLOAD PUSH3 0x461BCD PUSH1 0xE5 SHL DUP2 MSTORE PUSH1 0x4 ADD PUSH2 0x2A3 SWAP1 PUSH2 0x13A4 JUMP JUMPDEST PUSH1 0x40 MLOAD DUP1 SWAP2 SUB SWAP1 REVERT JUMPDEST CALLER PUSH1 0x0 SWAP1 DUP2 MSTORE PUSH1 0x4 PUSH1 0x20 MSTORE PUSH1 0x40 SWAP1 KECCAK256 SLOAD PUSH1 0xFF AND ISZERO DUP1 ISZERO PUSH2 0x2E1 JUMPI POP CALLER PUSH1 0x0 SWAP1 DUP2 MSTORE PUSH1 0x4 PUSH1 0x20 MSTORE PUSH1 0x40 SWAP1 KECCAK256 SLOAD PUSH2 0x100 SWAP1 DIV PUSH1 0xFF AND ISZERO JUMPDEST PUSH2 0x324 JUMPI PUSH1 0x40 MLOAD PUSH3 0x461BCD PUSH1 0xE5 SHL DUP2 MSTORE PUSH1 0x20 PUSH1 0x4 DUP3 ADD MSTORE PUSH1 0x14 PUSH1 0x24 DUP3 ADD MSTORE PUSH20 0x506861736520616C726561647920616374697665 PUSH1 0x60 SHL PUSH1 0x44 DUP3 ADD MSTORE PUSH1 0x64 ADD PUSH2 0x2A3 JUMP JUMPDEST PUSH1 0x40 DUP1 MLOAD DUP1 DUP3 ADD DUP3 MSTORE PUSH1 0x1 DUP1 DUP3 MSTORE PUSH1 0x20 DUP1 DUP4 ADD SWAP2 DUP3 MSTORE CALLER PUSH1 0x0 SWAP1 DUP2 MSTORE PUSH1 0x4 SWAP1 SWAP2 MSTORE SWAP3 SWAP1 SWAP3 KECCAK256 SWAP1 MLOAD DUP2 SLOAD SWAP3 MLOAD PUSH2 0xFFFF NOT SWAP1 SWAP4 AND SWAP1 ISZERO ISZERO PUSH2 0xFF00 NOT AND OR PUSH2 0x100 SWAP3 ISZERO ISZERO SWAP3 SWAP1 SWAP3 MUL SWAP2 SWAP1 SWAP2 OR SWAP1 SSTORE JUMP JUMPDEST PUSH1 0x2 CALLER PUSH1 0x0 SWAP1 DUP2 MSTORE PUSH1 0x20 DUP2 SWAP1 MSTORE PUSH1 0x40 SWAP1 KECCAK256 SLOAD PUSH1 0xFF AND PUSH1 0x4 DUP2 GT ISZERO PUSH2 0x397 JUMPI PUSH2 0x397 PUSH2 0x146B JUMP JUMPDEST EQ PUSH2 0x3B4 JUMPI PUSH1 0x40 MLOAD PUSH3 0x461BCD PUSH1 0xE5 SHL DUP2 MSTORE PUSH1 0x4 ADD PUSH2 0x2A3 SWAP1 PUSH2 0x13A4 JUMP JUMPDEST CALLER PUSH1 0x0 SWAP1 DUP2 MSTORE PUSH1 0x5 PUSH1 0x20 MSTORE PUSH1 0x40 SWAP1 KECCAK256 PUSH1 0x2 ADD SLOAD PUSH1 0x1 PUSH1 0xA8 SHL SWAP1 DIV PUSH1 0xFF AND ISZERO PUSH2 0x3EE JUMPI PUSH1 0x40 MLOAD PUSH3 0x461BCD PUSH1 0xE5 SHL DUP2 MSTORE PUSH1 0x4 ADD PUSH2 0x2A3 SWAP1 PUSH2 0x136E JUMP JUMPDEST PUSH1 0x1 PUSH1 0x1 PUSH1 0xA0 SHL SUB AND PUSH1 0x0 SWAP1 DUP2 MSTORE PUSH1 0x5 PUSH1 0x20 MSTORE PUSH1 0x40 SWAP1 KECCAK256 PUSH1 0x2 ADD DUP1 SLOAD PUSH1 0xFF PUSH1 0xA0 SHL NOT AND SWAP1 SSTORE JUMP JUMPDEST PUSH1 0x60 PUSH1 0x2 CALLER PUSH1 0x0 SWAP1 DUP2 MSTORE PUSH1 0x20 DUP2 SWAP1 MSTORE PUSH1 0x40 SWAP1 KECCAK256 SLOAD PUSH1 0xFF AND PUSH1 0x4 DUP2 GT ISZERO PUSH2 0x43D JUMPI PUSH2 0x43D PUSH2 0x146B JUMP JUMPDEST EQ PUSH2 0x45A JUMPI PUSH1 0x40 MLOAD PUSH3 0x461BCD PUSH1 0xE5 SHL DUP2 MSTORE PUSH1 0x4 ADD PUSH2 0x2A3 SWAP1 PUSH2 0x13A4 JUMP JUMPDEST PUSH1 0x6 DUP1 SLOAD DUP1 PUSH1 0x20 MUL PUSH1 0x20 ADD PUSH1 0x40 MLOAD SWAP1 DUP2 ADD PUSH1 0x40 MSTORE DUP1 SWAP3 SWAP2 SWAP1 DUP2 DUP2 MSTORE PUSH1 0x20 ADD DUP3 DUP1 SLOAD DUP1 ISZERO PUSH2 0x4B0 JUMPI PUSH1 0x20 MUL DUP3 ADD SWAP2 SWAP1 PUSH1 0x0 MSTORE PUSH1 0x20 PUSH1 0x0 KECCAK256 SWAP1 JUMPDEST DUP2 SLOAD PUSH1 0x1 PUSH1 0x1 PUSH1 0xA0 SHL SUB AND DUP2 MSTORE PUSH1 0x1 SWAP1 SWAP2 ADD SWAP1 PUSH1 0x20 ADD DUP1 DUP4 GT PUSH2 0x492 JUMPI JUMPDEST POP POP POP POP POP SWAP1 POP SWAP1 JUMP JUMPDEST CALLER PUSH1 0x0 SWAP1 DUP2 MSTORE PUSH1 0x20 DUP2 SWAP1 MSTORE PUSH1 0x40 DUP2 KECCAK256 SLOAD PUSH1 0xFF AND PUSH1 0x4 DUP2 GT ISZERO PUSH2 0x4DE JUMPI PUSH2 0x4DE PUSH2 0x146B JUMP JUMPDEST EQ ISZERO DUP1 PUSH2 0x50F JUMPI POP PUSH1 0x1 CALLER PUSH1 0x0 SWAP1 DUP2 MSTORE PUSH1 0x20 DUP2 SWAP1 MSTORE PUSH1 0x40 SWAP1 KECCAK256 SLOAD PUSH1 0xFF AND PUSH1 0x4 DUP2 GT ISZERO PUSH2 0x50C JUMPI PUSH2 0x50C PUSH2 0x146B JUMP JUMPDEST EQ ISZERO JUMPDEST DUP1 PUSH2 0x53E JUMPI POP PUSH1 0x2 CALLER PUSH1 0x0 SWAP1 DUP2 MSTORE PUSH1 0x20 DUP2 SWAP1 MSTORE PUSH1 0x40 SWAP1 KECCAK256 SLOAD PUSH1 0xFF AND PUSH1 0x4 DUP2 GT ISZERO PUSH2 0x53B JUMPI PUSH2 0x53B PUSH2 0x146B JUMP JUMPDEST EQ ISZERO JUMPDEST DUP1 PUSH2 0x56D JUMPI POP PUSH1 0x3 CALLER PUSH1 0x0 SWAP1 DUP2 MSTORE PUSH1 0x20 DUP2 SWAP1 MSTORE PUSH1 0x40 SWAP1 KECCAK256 SLOAD PUSH1 0xFF AND PUSH1 0x4 DUP2 GT ISZERO PUSH2 0x56A JUMPI PUSH2 0x56A PUSH2 0x146B JUMP JUMPDEST EQ ISZERO JUMPDEST PUSH2 0x5D4 JUMPI PUSH1 0x40 MLOAD PUSH3 0x461BCD PUSH1 0xE5 SHL DUP2 MSTORE PUSH1 0x20 PUSH1 0x4 DUP3 ADD MSTORE PUSH1 0x32 PUSH1 0x24 DUP3 ADD MSTORE PUSH32 0x4170706C69636174696F6E2063616E206F6E6C79206265207375626D69747465 PUSH1 0x44 DUP3 ADD MSTORE PUSH18 0x6420627920726567756C6172207573657273 PUSH1 0x70 SHL PUSH1 0x64 DUP3 ADD MSTORE PUSH1 0x84 ADD PUSH2 0x2A3 JUMP JUMPDEST PUSH20 0xAB8483F64D9C6D1ECF9B849AE677DD3315835CB2 PUSH1 0x0 SWAP1 DUP2 MSTORE PUSH1 0x4 PUSH1 0x20 MSTORE PUSH1 0x0 DUP1 MLOAD PUSH1 0x20 PUSH2 0x14AE DUP4 CODECOPY DUP2 MLOAD SWAP2 MSTORE SLOAD PUSH1 0xFF AND ISZERO DUP1 ISZERO PUSH2 0x640 JUMPI POP PUSH20 0xAB8483F64D9C6D1ECF9B849AE677DD3315835CB2 PUSH1 0x0 MSTORE PUSH1 0x4 PUSH1 0x20 MSTORE PUSH1 0x0 DUP1 MLOAD PUSH1 0x20 PUSH2 0x14AE DUP4 CODECOPY DUP2 MLOAD SWAP2 MSTORE SLOAD PUSH1 0xFF AND ISZERO JUMPDEST PUSH2 0x686 JUMPI PUSH1 0x40 MLOAD PUSH3 0x461BCD PUSH1 0xE5 SHL DUP2 MSTORE PUSH1 0x20 PUSH1 0x4 DUP3 ADD MSTORE PUSH1 0x17 PUSH1 0x24 DUP3 ADD MSTORE PUSH23 0x105C1C1B1A58D85D1A5BDB881C1A185CD948195B991959 PUSH1 0x4A SHL PUSH1 0x44 DUP3 ADD MSTORE PUSH1 0x64 ADD PUSH2 0x2A3 JUMP JUMPDEST CALLER PUSH1 0x1 PUSH1 0x1 PUSH1 0xA0 SHL SUB DUP4 AND EQ PUSH2 0x6FE JUMPI PUSH1 0x40 MLOAD PUSH3 0x461BCD PUSH1 0xE5 SHL DUP2 MSTORE PUSH1 0x20 PUSH1 0x4 DUP3 ADD MSTORE PUSH1 0x37 PUSH1 0x24 DUP3 ADD MSTORE PUSH32 0x596F752063616E27742073656E6420616E206170706C69636174696F6E20746F PUSH1 0x44 DUP3 ADD MSTORE PUSH23 0x20736F6D656F6E6520656C736527732061646472657373 PUSH1 0x48 SHL PUSH1 0x64 DUP3 ADD MSTORE PUSH1 0x84 ADD PUSH2 0x2A3 JUMP JUMPDEST PUSH1 0x0 JUMPDEST PUSH1 0x6 SLOAD DUP2 LT ISZERO PUSH2 0x7A3 JUMPI CALLER PUSH1 0x1 PUSH1 0x1 PUSH1 0xA0 SHL SUB AND PUSH1 0x6 DUP3 DUP2 SLOAD DUP2 LT PUSH2 0x728 JUMPI PUSH2 0x728 PUSH2 0x1481 JUMP JUMPDEST PUSH1 0x0 SWAP2 DUP3 MSTORE PUSH1 0x20 SWAP1 SWAP2 KECCAK256 ADD SLOAD PUSH1 0x1 PUSH1 0x1 PUSH1 0xA0 SHL SUB AND EQ ISZERO PUSH2 0x748 JUMPI PUSH1 0x1 SWAP2 POP JUMPDEST DUP2 ISZERO PUSH2 0x791 JUMPI PUSH1 0x40 MLOAD PUSH3 0x461BCD PUSH1 0xE5 SHL DUP2 MSTORE PUSH1 0x20 PUSH1 0x4 DUP3 ADD MSTORE PUSH1 0x18 PUSH1 0x24 DUP3 ADD MSTORE PUSH24 0x105C1C1B1A58D85D1A5BDB88185B1C9958591E481CD95B9D PUSH1 0x42 SHL PUSH1 0x44 DUP3 ADD MSTORE PUSH1 0x64 ADD PUSH2 0x2A3 JUMP JUMPDEST DUP1 PUSH2 0x79B DUP2 PUSH2 0x1442 JUMP JUMPDEST SWAP2 POP POP PUSH2 0x701 JUMP JUMPDEST POP CALLER PUSH1 0x0 SWAP1 DUP2 MSTORE PUSH1 0x5 PUSH1 0x20 MSTORE PUSH1 0x40 SWAP1 KECCAK256 PUSH1 0x2 ADD SLOAD PUSH1 0x1 PUSH1 0xA0 SHL SWAP1 DIV PUSH1 0xFF AND ISZERO PUSH2 0x821 JUMPI PUSH1 0x40 MLOAD PUSH3 0x461BCD PUSH1 0xE5 SHL DUP2 MSTORE PUSH1 0x20 PUSH1 0x4 DUP3 ADD MSTORE PUSH1 0x2A PUSH1 0x24 DUP3 ADD MSTORE PUSH32 0x596F7572206170706C69636174696F6E2068617320616C726561647920626565 PUSH1 0x44 DUP3 ADD MSTORE PUSH10 0x1B881C995A9958DD1959 PUSH1 0xB2 SHL PUSH1 0x64 DUP3 ADD MSTORE PUSH1 0x84 ADD PUSH2 0x2A3 JUMP JUMPDEST PUSH1 0x40 DUP1 MLOAD PUSH1 0xC0 DUP2 ADD DUP3 MSTORE DUP6 DUP2 MSTORE PUSH1 0x20 DUP1 DUP3 ADD DUP7 SWAP1 MSTORE PUSH1 0x1 PUSH1 0x1 PUSH1 0xA0 SHL SUB DUP6 AND DUP3 DUP5 ADD MSTORE PUSH1 0x1 PUSH1 0x60 DUP4 ADD DUP2 SWAP1 MSTORE PUSH1 0x0 PUSH1 0x80 DUP5 ADD DUP2 SWAP1 MSTORE PUSH1 0xA0 DUP5 ADD SWAP2 SWAP1 SWAP2 MSTORE CALLER DUP2 MSTORE PUSH1 0x5 DUP3 MSTORE SWAP3 SWAP1 SWAP3 KECCAK256 DUP2 MLOAD DUP1 MLOAD SWAP3 SWAP4 SWAP2 SWAP3 PUSH2 0x87E SWAP3 DUP5 SWAP3 ADD SWAP1 PUSH2 0x105E JUMP JUMPDEST POP PUSH1 0x20 DUP3 DUP2 ADD MLOAD DUP1 MLOAD PUSH2 0x897 SWAP3 PUSH1 0x1 DUP6 ADD SWAP3 ADD SWAP1 PUSH2 0x105E JUMP JUMPDEST POP PUSH1 0x40 DUP3 ADD MLOAD PUSH1 0x2 SWAP1 SWAP2 ADD DUP1 SLOAD PUSH1 0x60 DUP5 ADD MLOAD PUSH1 0x80 DUP6 ADD MLOAD PUSH1 0xA0 SWAP1 SWAP6 ADD MLOAD ISZERO ISZERO PUSH1 0x1 PUSH1 0xB0 SHL MUL PUSH1 0xFF PUSH1 0xB0 SHL NOT SWAP6 ISZERO ISZERO PUSH1 0x1 PUSH1 0xA8 SHL MUL SWAP6 SWAP1 SWAP6 AND PUSH2 0xFFFF PUSH1 0xA8 SHL NOT SWAP2 ISZERO ISZERO PUSH1 0x1 PUSH1 0xA0 SHL MUL PUSH1 0x1 PUSH1 0x1 PUSH1 0xA8 SHL SUB NOT SWAP1 SWAP4 AND PUSH1 0x1 PUSH1 0x1 PUSH1 0xA0 SHL SUB SWAP1 SWAP6 AND SWAP5 SWAP1 SWAP5 OR SWAP2 SWAP1 SWAP2 OR AND SWAP2 SWAP1 SWAP2 OR SWAP2 SWAP1 SWAP2 OR SWAP1 SSTORE POP POP PUSH1 0x6 DUP1 SLOAD PUSH1 0x1 DUP2 ADD DUP3 SSTORE PUSH1 0x0 SWAP2 SWAP1 SWAP2 MSTORE PUSH1 0x0 DUP1 MLOAD PUSH1 0x20 PUSH2 0x14CE DUP4 CODECOPY DUP2 MLOAD SWAP2 MSTORE ADD DUP1 SLOAD PUSH1 0x1 PUSH1 0x1 PUSH1 0xA0 SHL SUB NOT AND CALLER OR SWAP1 SSTORE POP POP JUMP JUMPDEST PUSH1 0x2 CALLER PUSH1 0x0 SWAP1 DUP2 MSTORE PUSH1 0x20 DUP2 SWAP1 MSTORE PUSH1 0x40 SWAP1 KECCAK256 SLOAD PUSH1 0xFF AND PUSH1 0x4 DUP2 GT ISZERO PUSH2 0x965 JUMPI PUSH2 0x965 PUSH2 0x146B JUMP JUMPDEST EQ PUSH2 0x982 JUMPI PUSH1 0x40 MLOAD PUSH3 0x461BCD PUSH1 0xE5 SHL DUP2 MSTORE PUSH1 0x4 ADD PUSH2 0x2A3 SWAP1 PUSH2 0x13A4 JUMP JUMPDEST CALLER PUSH1 0x0 SWAP1 DUP2 MSTORE PUSH1 0x4 PUSH1 0x20 MSTORE PUSH1 0x40 SWAP1 KECCAK256 SLOAD PUSH1 0xFF AND ISZERO ISZERO PUSH1 0x1 EQ DUP1 ISZERO PUSH2 0x9C0 JUMPI POP CALLER PUSH1 0x0 SWAP1 DUP2 MSTORE PUSH1 0x4 PUSH1 0x20 MSTORE PUSH1 0x40 SWAP1 KECCAK256 SLOAD PUSH1 0xFF PUSH2 0x100 SWAP1 SWAP2 DIV AND ISZERO ISZERO PUSH1 0x1 EQ JUMPDEST PUSH2 0xA0C JUMPI PUSH1 0x40 MLOAD PUSH3 0x461BCD PUSH1 0xE5 SHL DUP2 MSTORE PUSH1 0x20 PUSH1 0x4 DUP3 ADD DUP2 SWAP1 MSTORE PUSH1 0x24 DUP3 ADD MSTORE PUSH32 0x506861736520686173206E6F7420796574206265656E20616374697661746564 PUSH1 0x44 DUP3 ADD MSTORE PUSH1 0x64 ADD PUSH2 0x2A3 JUMP JUMPDEST PUSH1 0x40 DUP1 MLOAD DUP1 DUP3 ADD DUP3 MSTORE PUSH1 0x0 DUP1 DUP3 MSTORE PUSH1 0x1 PUSH1 0x20 DUP1 DUP5 ADD DUP3 DUP2 MSTORE CALLER DUP5 MSTORE PUSH1 0x4 DUP1 DUP4 MSTORE DUP7 DUP6 KECCAK256 SWAP6 MLOAD DUP7 SLOAD SWAP3 MLOAD ISZERO ISZERO PUSH2 0x100 SWAP1 DUP2 MUL PUSH2 0xFF00 NOT SWAP3 ISZERO ISZERO DUP4 AND PUSH2 0xFFFF NOT SWAP6 DUP7 AND OR OR SWAP1 SWAP8 SSTORE DUP8 MLOAD DUP1 DUP10 ADD SWAP1 SWAP9 MSTORE DUP5 DUP9 MSTORE DUP8 DUP5 ADD SWAP5 DUP6 MSTORE PUSH20 0x4B20993BC481177EC7E8F571CECAE8A9E22C02DB SWAP1 SWAP6 MSTORE SWAP1 SWAP2 MSTORE SWAP4 MLOAD PUSH32 0xB9FE4B740977877E3FA94E7F3DBF51FFCC3FB0449ED024E5D3849F3210D56220 DUP1 SLOAD SWAP3 MLOAD ISZERO ISZERO SWAP1 SWAP5 MUL SWAP1 ISZERO ISZERO SWAP1 SWAP3 AND SWAP4 AND SWAP3 SWAP1 SWAP3 OR SWAP2 SWAP1 SWAP2 OR SWAP1 SSTORE PUSH4 0x3B9ACA00 PUSH1 0x2 SSTORE PUSH2 0x1388 PUSH1 0x3 SSTORE JUMP JUMPDEST PUSH1 0x60 PUSH1 0x0 CALLER PUSH1 0x0 SWAP1 DUP2 MSTORE PUSH1 0x20 DUP2 SWAP1 MSTORE PUSH1 0x40 SWAP1 KECCAK256 SLOAD PUSH1 0xFF AND PUSH1 0x4 DUP2 GT ISZERO PUSH2 0xAF4 JUMPI PUSH2 0xAF4 PUSH2 0x146B JUMP JUMPDEST EQ PUSH2 0xB32 JUMPI PUSH1 0x40 MLOAD PUSH3 0x461BCD PUSH1 0xE5 SHL DUP2 MSTORE PUSH1 0x20 PUSH1 0x4 DUP3 ADD MSTORE PUSH1 0xE PUSH1 0x24 DUP3 ADD MSTORE PUSH14 0x2CB7BAB9103737BA1030B236B4B7 PUSH1 0x91 SHL PUSH1 0x44 DUP3 ADD MSTORE PUSH1 0x64 ADD PUSH2 0x2A3 JUMP JUMPDEST PUSH1 0x8 DUP1 SLOAD DUP1 PUSH1 0x20 MUL PUSH1 0x20 ADD PUSH1 0x40 MLOAD SWAP1 DUP2 ADD PUSH1 0x40 MSTORE DUP1 SWAP3 SWAP2 SWAP1 DUP2 DUP2 MSTORE PUSH1 0x20 ADD DUP3 DUP1 SLOAD DUP1 ISZERO PUSH2 0x4B0 JUMPI PUSH1 0x20 MUL DUP3 ADD SWAP2 SWAP1 PUSH1 0x0 MSTORE PUSH1 0x20 PUSH1 0x0 KECCAK256 SWAP1 DUP2 SLOAD PUSH1 0x1 PUSH1 0x1 PUSH1 0xA0 SHL SUB AND DUP2 MSTORE PUSH1 0x1 SWAP1 SWAP2 ADD SWAP1 PUSH1 0x20 ADD DUP1 DUP4 GT PUSH2 0x492 JUMPI POP POP POP POP POP SWAP1 POP SWAP1 JUMP JUMPDEST PUSH1 0x2 CALLER PUSH1 0x0 SWAP1 DUP2 MSTORE PUSH1 0x20 DUP2 SWAP1 MSTORE PUSH1 0x40 SWAP1 KECCAK256 SLOAD PUSH1 0xFF AND PUSH1 0x4 DUP2 GT ISZERO PUSH2 0xBB6 JUMPI PUSH2 0xBB6 PUSH2 0x146B JUMP JUMPDEST EQ PUSH2 0xBD3 JUMPI PUSH1 0x40 MLOAD PUSH3 0x461BCD PUSH1 0xE5 SHL DUP2 MSTORE PUSH1 0x4 ADD PUSH2 0x2A3 SWAP1 PUSH2 0x13A4 JUMP JUMPDEST PUSH1 0x2 SSTORE JUMP JUMPDEST PUSH1 0x0 DUP2 PUSH1 0x40 MLOAD PUSH1 0x20 ADD PUSH2 0xBEB SWAP2 SWAP1 PUSH2 0x1289 JUMP JUMPDEST PUSH1 0x40 MLOAD PUSH1 0x20 DUP2 DUP4 SUB SUB DUP2 MSTORE SWAP1 PUSH1 0x40 MSTORE DUP1 MLOAD SWAP1 PUSH1 0x20 ADD KECCAK256 SWAP1 POP SWAP2 SWAP1 POP JUMP JUMPDEST PUSH1 0x2 CALLER PUSH1 0x0 SWAP1 DUP2 MSTORE PUSH1 0x20 DUP2 SWAP1 MSTORE PUSH1 0x40 SWAP1 KECCAK256 SLOAD PUSH1 0xFF AND PUSH1 0x4 DUP2 GT ISZERO PUSH2 0xC2E JUMPI PUSH2 0xC2E PUSH2 0x146B JUMP JUMPDEST EQ PUSH2 0xC4B JUMPI PUSH1 0x40 MLOAD PUSH3 0x461BCD PUSH1 0xE5 SHL DUP2 MSTORE PUSH1 0x4 ADD PUSH2 0x2A3 SWAP1 PUSH2 0x13A4 JUMP JUMPDEST CALLER PUSH1 0x0 SWAP1 DUP2 MSTORE PUSH1 0x5 PUSH1 0x20 MSTORE PUSH1 0x40 SWAP1 KECCAK256 PUSH1 0x2 ADD SLOAD PUSH1 0x1 PUSH1 0xA8 SHL SWAP1 DIV PUSH1 0xFF AND ISZERO PUSH2 0xC85 JUMPI PUSH1 0x40 MLOAD PUSH3 0x461BCD PUSH1 0xE5 SHL DUP2 MSTORE PUSH1 0x4 ADD PUSH2 0x2A3 SWAP1 PUSH2 0x136E JUMP JUMPDEST PUSH1 0x1 PUSH1 0x1 PUSH1 0xA0 SHL SUB DUP2 AND PUSH1 0x0 DUP2 DUP2 MSTORE PUSH1 0x5 PUSH1 0x20 DUP2 DUP2 MSTORE PUSH1 0x40 DUP1 DUP5 KECCAK256 PUSH1 0x2 DUP2 ADD DUP1 SLOAD PUSH1 0xFF PUSH1 0xA0 SHL NOT AND SWAP1 SSTORE PUSH1 0x6 DUP1 SLOAD PUSH1 0x1 DUP2 DUP2 ADD SWAP1 SWAP3 SSTORE PUSH1 0x0 DUP1 MLOAD PUSH1 0x20 PUSH2 0x14CE DUP4 CODECOPY DUP2 MLOAD SWAP2 MSTORE ADD DUP1 SLOAD PUSH1 0x1 PUSH1 0x1 PUSH1 0xA0 SHL SUB NOT SWAP1 DUP2 AND DUP10 OR SWAP1 SWAP2 SSTORE PUSH1 0x7 DUP1 SLOAD SWAP3 DUP4 ADD SWAP1 SSTORE PUSH32 0xA66CC928B5EDB82AF9BD49922954155AB7B0942694BEA4CE44661D9A8736C688 SWAP1 SWAP2 ADD DUP1 SLOAD SWAP1 SWAP2 AND DUP8 OR SWAP1 SSTORE DUP2 MLOAD PUSH1 0xE0 DUP2 ADD SWAP1 SWAP3 MSTORE PUSH1 0x4 DUP3 MSTORE SWAP5 SWAP1 SWAP4 MSTORE SWAP1 DUP2 MSTORE DUP3 SLOAD SWAP2 SWAP3 SWAP1 DUP4 ADD SWAP2 PUSH2 0xD39 SWAP1 PUSH2 0x1407 JUMP JUMPDEST DUP1 PUSH1 0x1F ADD PUSH1 0x20 DUP1 SWAP2 DIV MUL PUSH1 0x20 ADD PUSH1 0x40 MLOAD SWAP1 DUP2 ADD PUSH1 0x40 MSTORE DUP1 SWAP3 SWAP2 SWAP1 DUP2 DUP2 MSTORE PUSH1 0x20 ADD DUP3 DUP1 SLOAD PUSH2 0xD65 SWAP1 PUSH2 0x1407 JUMP JUMPDEST DUP1 ISZERO PUSH2 0xDB2 JUMPI DUP1 PUSH1 0x1F LT PUSH2 0xD87 JUMPI PUSH2 0x100 DUP1 DUP4 SLOAD DIV MUL DUP4 MSTORE SWAP2 PUSH1 0x20 ADD SWAP2 PUSH2 0xDB2 JUMP JUMPDEST DUP3 ADD SWAP2 SWAP1 PUSH1 0x0 MSTORE PUSH1 0x20 PUSH1 0x0 KECCAK256 SWAP1 JUMPDEST DUP2 SLOAD DUP2 MSTORE SWAP1 PUSH1 0x1 ADD SWAP1 PUSH1 0x20 ADD DUP1 DUP4 GT PUSH2 0xD95 JUMPI DUP3 SWAP1 SUB PUSH1 0x1F AND DUP3 ADD SWAP2 JUMPDEST POP POP POP POP POP DUP2 MSTORE PUSH1 0x20 ADD PUSH2 0xDDE PUSH1 0x40 MLOAD DUP1 PUSH1 0x40 ADD PUSH1 0x40 MSTORE DUP1 PUSH1 0x1 DUP2 MSTORE PUSH1 0x20 ADD PUSH1 0x3 PUSH1 0xFC SHL DUP2 MSTORE POP PUSH2 0xBD8 JUMP JUMPDEST DUP2 MSTORE PUSH1 0x0 PUSH1 0x20 DUP1 DUP4 ADD DUP3 SWAP1 MSTORE PUSH1 0x40 DUP1 DUP5 ADD DUP4 SWAP1 MSTORE PUSH1 0x60 DUP5 ADD DUP4 SWAP1 MSTORE PUSH1 0x80 SWAP1 SWAP4 ADD DUP3 SWAP1 MSTORE PUSH1 0x1 PUSH1 0x1 PUSH1 0xA0 SHL SUB DUP6 AND DUP3 MSTORE DUP2 SWAP1 MSTORE KECCAK256 DUP2 MLOAD DUP2 SLOAD DUP3 SWAP1 PUSH1 0xFF NOT AND PUSH1 0x1 DUP4 PUSH1 0x4 DUP2 GT ISZERO PUSH2 0xE2F JUMPI PUSH2 0xE2F PUSH2 0x146B JUMP JUMPDEST MUL OR SWAP1 SSTORE POP PUSH1 0x20 DUP3 DUP2 ADD MLOAD DUP1 MLOAD PUSH2 0xE4C SWAP3 PUSH1 0x1 DUP6 ADD SWAP3 ADD SWAP1 PUSH2 0x105E JUMP JUMPDEST POP PUSH1 0x40 DUP3 ADD MLOAD PUSH1 0x2 DUP3 ADD SSTORE PUSH1 0x60 DUP3 ADD MLOAD PUSH1 0x3 DUP3 ADD SSTORE PUSH1 0x80 DUP3 ADD MLOAD PUSH1 0x4 DUP3 ADD SSTORE PUSH1 0xA0 DUP3 ADD MLOAD PUSH1 0x5 DUP3 ADD SSTORE PUSH1 0xC0 SWAP1 SWAP2 ADD MLOAD PUSH1 0x6 SWAP1 SWAP2 ADD SSTORE POP JUMP JUMPDEST PUSH1 0x60 PUSH1 0x0 CALLER PUSH1 0x0 SWAP1 DUP2 MSTORE PUSH1 0x20 DUP2 SWAP1 MSTORE PUSH1 0x40 SWAP1 KECCAK256 SLOAD PUSH1 0xFF AND PUSH1 0x4 DUP2 GT ISZERO PUSH2 0xEAC JUMPI PUSH2 0xEAC PUSH2 0x146B JUMP JUMPDEST EQ DUP1 PUSH2 0xEDB JUMPI POP PUSH1 0x2 CALLER PUSH1 0x0 SWAP1 DUP2 MSTORE PUSH1 0x20 DUP2 SWAP1 MSTORE PUSH1 0x40 SWAP1 KECCAK256 SLOAD PUSH1 0xFF AND PUSH1 0x4 DUP2 GT ISZERO PUSH2 0xED9 JUMPI PUSH2 0xED9 PUSH2 0x146B JUMP JUMPDEST EQ JUMPDEST PUSH2 0xF39 JUMPI PUSH1 0x40 MLOAD PUSH3 0x461BCD PUSH1 0xE5 SHL DUP2 MSTORE PUSH1 0x20 PUSH1 0x4 DUP3 ADD MSTORE PUSH1 0x29 PUSH1 0x24 DUP3 ADD MSTORE PUSH32 0x596F7520617265206E6F7420746865206F776E6572206F722070726976617465 PUSH1 0x44 DUP3 ADD MSTORE PUSH9 0x10383937BB34B232B9 PUSH1 0xB9 SHL PUSH1 0x64 DUP3 ADD MSTORE PUSH1 0x84 ADD PUSH2 0x2A3 JUMP JUMPDEST PUSH1 0x7 DUP1 SLOAD DUP1 PUSH1 0x20 MUL PUSH1 0x20 ADD PUSH1 0x40 MLOAD SWAP1 DUP2 ADD PUSH1 0x40 MSTORE DUP1 SWAP3 SWAP2 SWAP1 DUP2 DUP2 MSTORE PUSH1 0x20 ADD DUP3 DUP1 SLOAD DUP1 ISZERO PUSH2 0x4B0 JUMPI PUSH1 0x20 MUL DUP3 ADD SWAP2 SWAP1 PUSH1 0x0 MSTORE PUSH1 0x20 PUSH1 0x0 KECCAK256 SWAP1 DUP2 SLOAD PUSH1 0x1 PUSH1 0x1 PUSH1 0xA0 SHL SUB AND DUP2 MSTORE PUSH1 0x1 SWAP1 SWAP2 ADD SWAP1 PUSH1 0x20 ADD DUP1 DUP4 GT PUSH2 0x492 JUMPI POP POP POP POP POP SWAP1 POP SWAP1 JUMP JUMPDEST PUSH1 0x0 PUSH1 0x20 DUP2 SWAP1 MSTORE SWAP1 DUP2 MSTORE PUSH1 0x40 SWAP1 KECCAK256 DUP1 SLOAD PUSH1 0x1 DUP3 ADD DUP1 SLOAD PUSH1 0xFF SWAP1 SWAP3 AND SWAP3 SWAP2 PUSH2 0xFBD SWAP1 PUSH2 0x1407 JUMP JUMPDEST DUP1 PUSH1 0x1F ADD PUSH1 0x20 DUP1 SWAP2 DIV MUL PUSH1 0x20 ADD PUSH1 0x40 MLOAD SWAP1 DUP2 ADD PUSH1 0x40 MSTORE DUP1 SWAP3 SWAP2 SWAP1 DUP2 DUP2 MSTORE PUSH1 0x20 ADD DUP3 DUP1 SLOAD PUSH2 0xFE9 SWAP1 PUSH2 0x1407 JUMP JUMPDEST DUP1 ISZERO PUSH2 0x1036 JUMPI DUP1 PUSH1 0x1F LT PUSH2 0x100B JUMPI PUSH2 0x100 DUP1 DUP4 SLOAD DIV MUL DUP4 MSTORE SWAP2 PUSH1 0x20 ADD SWAP2 PUSH2 0x1036 JUMP JUMPDEST DUP3 ADD SWAP2 SWAP1 PUSH1 0x0 MSTORE PUSH1 0x20 PUSH1 0x0 KECCAK256 SWAP1 JUMPDEST DUP2 SLOAD DUP2 MSTORE SWAP1 PUSH1 0x1 ADD SWAP1 PUSH1 0x20 ADD DUP1 DUP4 GT PUSH2 0x1019 JUMPI DUP3 SWAP1 SUB PUSH1 0x1F AND DUP3 ADD SWAP2 JUMPDEST POP POP POP POP POP SWAP1 DUP1 PUSH1 0x2 ADD SLOAD SWAP1 DUP1 PUSH1 0x3 ADD SLOAD SWAP1 DUP1 PUSH1 0x4 ADD SLOAD SWAP1 DUP1 PUSH1 0x5 ADD SLOAD SWAP1 DUP1 PUSH1 0x6 ADD SLOAD SWAP1 POP DUP8 JUMP JUMPDEST DUP3 DUP1 SLOAD PUSH2 0x106A SWAP1 PUSH2 0x1407 JUMP JUMPDEST SWAP1 PUSH1 0x0 MSTORE PUSH1 0x20 PUSH1 0x0 KECCAK256 SWAP1 PUSH1 0x1F ADD PUSH1 0x20 SWAP1 DIV DUP2 ADD SWAP3 DUP3 PUSH2 0x108C JUMPI PUSH1 0x0 DUP6 SSTORE PUSH2 0x10D2 JUMP JUMPDEST DUP3 PUSH1 0x1F LT PUSH2 0x10A5 JUMPI DUP1 MLOAD PUSH1 0xFF NOT AND DUP4 DUP1 ADD OR DUP6 SSTORE PUSH2 0x10D2 JUMP JUMPDEST DUP3 DUP1 ADD PUSH1 0x1 ADD DUP6 SSTORE DUP3 ISZERO PUSH2 0x10D2 JUMPI SWAP2 DUP3 ADD JUMPDEST DUP3 DUP2 GT ISZERO PUSH2 0x10D2 JUMPI DUP3 MLOAD DUP3 SSTORE SWAP2 PUSH1 0x20 ADD SWAP2 SWAP1 PUSH1 0x1 ADD SWAP1 PUSH2 0x10B7 JUMP JUMPDEST POP PUSH2 0x10DE SWAP3 SWAP2 POP PUSH2 0x10E2 JUMP JUMPDEST POP SWAP1 JUMP JUMPDEST JUMPDEST DUP1 DUP3 GT ISZERO PUSH2 0x10DE JUMPI PUSH1 0x0 DUP2 SSTORE PUSH1 0x1 ADD PUSH2 0x10E3 JUMP JUMPDEST DUP1 CALLDATALOAD PUSH1 0x1 PUSH1 0x1 PUSH1 0xA0 SHL SUB DUP2 AND DUP2 EQ PUSH2 0x110E JUMPI PUSH1 0x0 DUP1 REVERT JUMPDEST SWAP2 SWAP1 POP JUMP JUMPDEST PUSH1 0x0 DUP3 PUSH1 0x1F DUP4 ADD SLT PUSH2 0x1124 JUMPI PUSH1 0x0 DUP1 REVERT JUMPDEST DUP2 CALLDATALOAD PUSH1 0x1 PUSH1 0x1 PUSH1 0x40 SHL SUB DUP1 DUP3 GT ISZERO PUSH2 0x113E JUMPI PUSH2 0x113E PUSH2 0x1497 JUMP JUMPDEST PUSH1 0x40 MLOAD PUSH1 0x1F DUP4 ADD PUSH1 0x1F NOT SWAP1 DUP2 AND PUSH1 0x3F ADD AND DUP2 ADD SWAP1 DUP3 DUP3 GT DUP2 DUP4 LT OR ISZERO PUSH2 0x1166 JUMPI PUSH2 0x1166 PUSH2 0x1497 JUMP JUMPDEST DUP2 PUSH1 0x40 MSTORE DUP4 DUP2 MSTORE DUP7 PUSH1 0x20 DUP6 DUP9 ADD ADD GT ISZERO PUSH2 0x117F JUMPI PUSH1 0x0 DUP1 REVERT JUMPDEST DUP4 PUSH1 0x20 DUP8 ADD PUSH1 0x20 DUP4 ADD CALLDATACOPY PUSH1 0x0 PUSH1 0x20 DUP6 DUP4 ADD ADD MSTORE DUP1 SWAP5 POP POP POP POP POP SWAP3 SWAP2 POP POP JUMP JUMPDEST PUSH1 0x0 PUSH1 0x20 DUP3 DUP5 SUB SLT ISZERO PUSH2 0x11B1 JUMPI PUSH1 0x0 DUP1 REVERT JUMPDEST PUSH2 0x11BA DUP3 PUSH2 0x10F7 JUMP JUMPDEST SWAP4 SWAP3 POP POP POP JUMP JUMPDEST PUSH1 0x0 PUSH1 0x20 DUP3 DUP5 SUB SLT ISZERO PUSH2 0x11D3 JUMPI PUSH1 0x0 DUP1 REVERT JUMPDEST DUP2 CALLDATALOAD PUSH1 0x1 PUSH1 0x1 PUSH1 0x40 SHL SUB DUP2 GT ISZERO PUSH2 0x11E9 JUMPI PUSH1 0x0 DUP1 REVERT JUMPDEST PUSH2 0x11F5 DUP5 DUP3 DUP6 ADD PUSH2 0x1113 JUMP JUMPDEST SWAP5 SWAP4 POP POP POP POP JUMP JUMPDEST PUSH1 0x0 DUP1 PUSH1 0x0 PUSH1 0x60 DUP5 DUP7 SUB SLT ISZERO PUSH2 0x1212 JUMPI PUSH1 0x0 DUP1 REVERT JUMPDEST DUP4 CALLDATALOAD PUSH1 0x1 PUSH1 0x1 PUSH1 0x40 SHL SUB DUP1 DUP3 GT ISZERO PUSH2 0x1229 JUMPI PUSH1 0x0 DUP1 REVERT JUMPDEST PUSH2 0x1235 DUP8 DUP4 DUP9 ADD PUSH2 0x1113 JUMP JUMPDEST SWAP5 POP PUSH1 0x20 DUP7 ADD CALLDATALOAD SWAP2 POP DUP1 DUP3 GT ISZERO PUSH2 0x124B JUMPI PUSH1 0x0 DUP1 REVERT JUMPDEST POP PUSH2 0x1258 DUP7 DUP3 DUP8 ADD PUSH2 0x1113 JUMP JUMPDEST SWAP3 POP POP PUSH2 0x1267 PUSH1 0x40 DUP6 ADD PUSH2 0x10F7 JUMP JUMPDEST SWAP1 POP SWAP3 POP SWAP3 POP SWAP3 JUMP JUMPDEST PUSH1 0x0 PUSH1 0x20 DUP3 DUP5 SUB SLT ISZERO PUSH2 0x1282 JUMPI PUSH1 0x0 DUP1 REVERT JUMPDEST POP CALLDATALOAD SWAP2 SWAP1 POP JUMP JUMPDEST PUSH1 0x0 DUP3 MLOAD PUSH2 0x129B DUP2 DUP5 PUSH1 0x20 DUP8 ADD PUSH2 0x13D7 JUMP JUMPDEST SWAP2 SWAP1 SWAP2 ADD SWAP3 SWAP2 POP POP JUMP JUMPDEST PUSH1 0x20 DUP1 DUP3 MSTORE DUP3 MLOAD DUP3 DUP3 ADD DUP2 SWAP1 MSTORE PUSH1 0x0 SWAP2 SWAP1 DUP5 DUP3 ADD SWAP1 PUSH1 0x40 DUP6 ADD SWAP1 DUP5 JUMPDEST DUP2 DUP2 LT ISZERO PUSH2 0x12E6 JUMPI DUP4 MLOAD PUSH1 0x1 PUSH1 0x1 PUSH1 0xA0 SHL SUB AND DUP4 MSTORE SWAP3 DUP5 ADD SWAP3 SWAP2 DUP5 ADD SWAP2 PUSH1 0x1 ADD PUSH2 0x12C1 JUMP JUMPDEST POP SWAP1 SWAP7 SWAP6 POP POP POP POP POP POP JUMP JUMPDEST PUSH1 0x0 PUSH1 0x5 DUP10 LT PUSH2 0x1312 JUMPI PUSH4 0x4E487B71 PUSH1 0xE0 SHL PUSH1 0x0 MSTORE PUSH1 0x21 PUSH1 0x4 MSTORE PUSH1 0x24 PUSH1 0x0 REVERT JUMPDEST DUP9 DUP3 MSTORE PUSH1 0xE0 PUSH1 0x20 DUP4 ADD MSTORE DUP8 MLOAD DUP1 PUSH1 0xE0 DUP5 ADD MSTORE PUSH2 0x100 PUSH2 0x1337 DUP3 DUP3 DUP7 ADD PUSH1 0x20 DUP14 ADD PUSH2 0x13D7 JUMP JUMPDEST PUSH1 0x40 DUP5 ADD SWAP9 SWAP1 SWAP9 MSTORE PUSH1 0x60 DUP4 ADD SWAP7 SWAP1 SWAP7 MSTORE POP PUSH1 0x80 DUP2 ADD SWAP4 SWAP1 SWAP4 MSTORE PUSH1 0xA0 DUP4 ADD SWAP2 SWAP1 SWAP2 MSTORE PUSH1 0xC0 DUP3 ADD MSTORE PUSH1 0x1F SWAP1 SWAP2 ADD PUSH1 0x1F NOT AND ADD ADD SWAP3 SWAP2 POP POP JUMP JUMPDEST PUSH1 0x20 DUP1 DUP3 MSTORE PUSH1 0x1C SWAP1 DUP3 ADD MSTORE PUSH28 0x14995D9A595DC81D1A1948185C1C1B1A58D85D1A5BDB88199A5C9CDD PUSH1 0x22 SHL PUSH1 0x40 DUP3 ADD MSTORE PUSH1 0x60 ADD SWAP1 JUMP JUMPDEST PUSH1 0x20 DUP1 DUP3 MSTORE PUSH1 0x19 SWAP1 DUP3 ADD MSTORE PUSH25 0x2CB7BAB9103737BA10283934BB30BA3290383937BB34B232B9 PUSH1 0x39 SHL PUSH1 0x40 DUP3 ADD MSTORE PUSH1 0x60 ADD SWAP1 JUMP JUMPDEST PUSH1 0x0 JUMPDEST DUP4 DUP2 LT ISZERO PUSH2 0x13F2 JUMPI DUP2 DUP2 ADD MLOAD DUP4 DUP3 ADD MSTORE PUSH1 0x20 ADD PUSH2 0x13DA JUMP JUMPDEST DUP4 DUP2 GT ISZERO PUSH2 0x1401 JUMPI PUSH1 0x0 DUP5 DUP5 ADD MSTORE JUMPDEST POP POP POP POP JUMP JUMPDEST PUSH1 0x1 DUP2 DUP2 SHR SWAP1 DUP3 AND DUP1 PUSH2 0x141B JUMPI PUSH1 0x7F DUP3 AND SWAP2 POP JUMPDEST PUSH1 0x20 DUP3 LT DUP2 EQ ISZERO PUSH2 0x143C JUMPI PUSH4 0x4E487B71 PUSH1 0xE0 SHL PUSH1 0x0 MSTORE PUSH1 0x22 PUSH1 0x4 MSTORE PUSH1 0x24 PUSH1 0x0 REVERT JUMPDEST POP SWAP2 SWAP1 POP JUMP JUMPDEST PUSH1 0x0 PUSH1 0x0 NOT DUP3 EQ ISZERO PUSH2 0x1464 JUMPI PUSH4 0x4E487B71 PUSH1 0xE0 SHL PUSH1 0x0 MSTORE PUSH1 0x11 PUSH1 0x4 MSTORE PUSH1 0x24 PUSH1 0x0 REVERT JUMPDEST POP PUSH1 0x1 ADD SWAP1 JUMP JUMPDEST PUSH4 0x4E487B71 PUSH1 0xE0 SHL PUSH1 0x0 MSTORE PUSH1 0x21 PUSH1 0x4 MSTORE PUSH1 0x24 PUSH1 0x0 REVERT JUMPDEST PUSH4 0x4E487B71 PUSH1 0xE0 SHL PUSH1 0x0 MSTORE PUSH1 0x32 PUSH1 0x4 MSTORE PUSH1 0x24 PUSH1 0x0 REVERT JUMPDEST PUSH4 0x4E487B71 PUSH1 0xE0 SHL PUSH1 0x0 MSTORE PUSH1 0x41 PUSH1 0x4 MSTORE PUSH1 0x24 PUSH1 0x0 REVERT INVALID MUL 0xE4 PUSH19 0x438281ECE9FAE629C31EBC952B0B512971EFB1 0xBA 0xCF 0xC7 0xD4 DIFFICULTY SHR PC PUSH13 0xFF6CF652222313E28459528D92 SIGNEXTEND PUSH6 0x115C16C04F3E 0xFC DUP3 0xAA 0xED 0xC9 PUSH28 0xE59F3F377C0D3FA26469706673582212201FE56098DE5209DFFCDA5A MSTORE BASEFEE 0xCF SWAP12 CREATE SWAP13 0xD7 0xBB PUSH32 0xB90390D498A29FC10E1EE77E64736F6C63430008070033000000000000000000 "
				},
				"gasEstimates": {
					"creation": {
						"codeDepositCost": "1082200",
						"executionCost": "45339",
						"totalCost": "1127539"
					},
					"external": {
						"acceptApplication(address)": "infinite",
						"application(string,string,address)": "infinite",
						"changeTokenAmountPricePrivate(uint256)": "24726",
						"deviationApplication(address)": "29081",
						"endPrivatePhase()": "99926",
						"getApplicationAmountAdr()": "infinite",
						"getBalanceEth(address)": "3199",
						"getBalancePrivateToken(address)": "2821",
						"getBalancePublicToken(address)": "2623",
						"getBalanceSeedToken(address)": "2579",
						"get_blackList()": "infinite",
						"get_keccak256(string)": "infinite",
						"get_whiteList()": "infinite",
						"startPrivatePhase()": "31190",
						"structUsers_(address)": "infinite",
						"tokenAmount_()": "2504",
						"tokenPrice_()": "2284"
					}
				},
				"methodIdentifiers": {
					"acceptApplication(address)": "a678b65b",
					"application(string,string,address)": "785963c3",
					"changeTokenAmountPricePrivate(uint256)": "8aa7cc0b",
					"deviationApplication(address)": "1d3eea35",
					"endPrivatePhase()": "7f4b8df0",
					"getApplicationAmountAdr()": "686c4cea",
					"getBalanceEth(address)": "99067ede",
					"getBalancePrivateToken(address)": "b06cdc12",
					"getBalancePublicToken(address)": "72f0d72b",
					"getBalanceSeedToken(address)": "2599d6d0",
					"get_blackList()": "7f89128f",
					"get_keccak256(string)": "8e4f8c6b",
					"get_whiteList()": "c10e3911",
					"startPrivatePhase()": "0691615d",
					"structUsers_(address)": "fc837259",
					"tokenAmount_()": "948942ad",
					"tokenPrice_()": "0761c8b9"
				}
			},
			"storageLayout": {
				"storage": [
					{
						"astId": 580,
						"contract": "GitHub/contract-token-cryptoMonster/backend/components/PhasePrivate.sol:PhasePrivate",
						"label": "structUsers_",
						"offset": 0,
						"slot": "0",
						"type": "t_mapping(t_address,t_struct(structUser)575_storage)"
					},
					{
						"astId": 586,
						"contract": "GitHub/contract-token-cryptoMonster/backend/components/PhasePrivate.sol:PhasePrivate",
						"label": "allowed",
						"offset": 0,
						"slot": "1",
						"type": "t_mapping(t_address,t_mapping(t_address,t_uint256))"
					},
					{
						"astId": 589,
						"contract": "GitHub/contract-token-cryptoMonster/backend/components/PhasePrivate.sol:PhasePrivate",
						"label": "tokenPrice_",
						"offset": 0,
						"slot": "2",
						"type": "t_uint256"
					},
					{
						"astId": 592,
						"contract": "GitHub/contract-token-cryptoMonster/backend/components/PhasePrivate.sol:PhasePrivate",
						"label": "tokenAmount_",
						"offset": 0,
						"slot": "3",
						"type": "t_uint256"
					},
					{
						"astId": 611,
						"contract": "GitHub/contract-token-cryptoMonster/backend/components/PhasePrivate.sol:PhasePrivate",
						"label": "structPhases_",
						"offset": 0,
						"slot": "4",
						"type": "t_mapping(t_address,t_struct(structPhase)606_storage)"
					},
					{
						"astId": 629,
						"contract": "GitHub/contract-token-cryptoMonster/backend/components/PhasePrivate.sol:PhasePrivate",
						"label": "strucApplications_",
						"offset": 0,
						"slot": "5",
						"type": "t_mapping(t_address,t_struct(structApplication)624_storage)"
					},
					{
						"astId": 632,
						"contract": "GitHub/contract-token-cryptoMonster/backend/components/PhasePrivate.sol:PhasePrivate",
						"label": "structApplicationsAmountAdr",
						"offset": 0,
						"slot": "6",
						"type": "t_array(t_address)dyn_storage"
					},
					{
						"astId": 635,
						"contract": "GitHub/contract-token-cryptoMonster/backend/components/PhasePrivate.sol:PhasePrivate",
						"label": "whiteList",
						"offset": 0,
						"slot": "7",
						"type": "t_array(t_address)dyn_storage"
					},
					{
						"astId": 638,
						"contract": "GitHub/contract-token-cryptoMonster/backend/components/PhasePrivate.sol:PhasePrivate",
						"label": "blackList",
						"offset": 0,
						"slot": "8",
						"type": "t_array(t_address)dyn_storage"
					}
				],
				"types": {
					"t_address": {
						"encoding": "inplace",
						"label": "address",
						"numberOfBytes": "20"
					},
					"t_array(t_address)dyn_storage": {
						"base": "t_address",
						"encoding": "dynamic_array",
						"label": "address[]",
						"numberOfBytes": "32"
					},
					"t_bool": {
						"encoding": "inplace",
						"label": "bool",
						"numberOfBytes": "1"
					},
					"t_bytes32": {
						"encoding": "inplace",
						"label": "bytes32",
						"numberOfBytes": "32"
					},
					"t_enum(Role)559": {
						"encoding": "inplace",
						"label": "enum structures.Role",
						"numberOfBytes": "1"
					},
					"t_mapping(t_address,t_mapping(t_address,t_uint256))": {
						"encoding": "mapping",
						"key": "t_address",
						"label": "mapping(address => mapping(address => uint256))",
						"numberOfBytes": "32",
						"value": "t_mapping(t_address,t_uint256)"
					},
					"t_mapping(t_address,t_struct(structApplication)624_storage)": {
						"encoding": "mapping",
						"key": "t_address",
						"label": "mapping(address => struct structures.structApplication)",
						"numberOfBytes": "32",
						"value": "t_struct(structApplication)624_storage"
					},
					"t_mapping(t_address,t_struct(structPhase)606_storage)": {
						"encoding": "mapping",
						"key": "t_address",
						"label": "mapping(address => struct structures.structPhase)",
						"numberOfBytes": "32",
						"value": "t_struct(structPhase)606_storage"
					},
					"t_mapping(t_address,t_struct(structUser)575_storage)": {
						"encoding": "mapping",
						"key": "t_address",
						"label": "mapping(address => struct structures.structUser)",
						"numberOfBytes": "32",
						"value": "t_struct(structUser)575_storage"
					},
					"t_mapping(t_address,t_uint256)": {
						"encoding": "mapping",
						"key": "t_address",
						"label": "mapping(address => uint256)",
						"numberOfBytes": "32",
						"value": "t_uint256"
					},
					"t_string_storage": {
						"encoding": "bytes",
						"label": "string",
						"numberOfBytes": "32"
					},
					"t_struct(structApplication)624_storage": {
						"encoding": "inplace",
						"label": "struct structures.structApplication",
						"members": [
							{
								"astId": 613,
								"contract": "GitHub/contract-token-cryptoMonster/backend/components/PhasePrivate.sol:PhasePrivate",
								"label": "name",
								"offset": 0,
								"slot": "0",
								"type": "t_string_storage"
							},
							{
								"astId": 615,
								"contract": "GitHub/contract-token-cryptoMonster/backend/components/PhasePrivate.sol:PhasePrivate",
								"label": "contactForCommunication",
								"offset": 0,
								"slot": "1",
								"type": "t_string_storage"
							},
							{
								"astId": 617,
								"contract": "GitHub/contract-token-cryptoMonster/backend/components/PhasePrivate.sol:PhasePrivate",
								"label": "userAdr",
								"offset": 0,
								"slot": "2",
								"type": "t_address"
							},
							{
								"astId": 619,
								"contract": "GitHub/contract-token-cryptoMonster/backend/components/PhasePrivate.sol:PhasePrivate",
								"label": "status",
								"offset": 20,
								"slot": "2",
								"type": "t_bool"
							},
							{
								"astId": 621,
								"contract": "GitHub/contract-token-cryptoMonster/backend/components/PhasePrivate.sol:PhasePrivate",
								"label": "reviewed",
								"offset": 21,
								"slot": "2",
								"type": "t_bool"
							},
							{
								"astId": 623,
								"contract": "GitHub/contract-token-cryptoMonster/backend/components/PhasePrivate.sol:PhasePrivate",
								"label": "exist",
								"offset": 22,
								"slot": "2",
								"type": "t_bool"
							}
						],
						"numberOfBytes": "96"
					},
					"t_struct(structPhase)606_storage": {
						"encoding": "inplace",
						"label": "struct structures.structPhase",
						"members": [
							{
								"astId": 603,
								"contract": "GitHub/contract-token-cryptoMonster/backend/components/PhasePrivate.sol:PhasePrivate",
								"label": "statusPhase",
								"offset": 0,
								"slot": "0",
								"type": "t_bool"
							},
							{
								"astId": 605,
								"contract": "GitHub/contract-token-cryptoMonster/backend/components/PhasePrivate.sol:PhasePrivate",
								"label": "reviewed",
								"offset": 1,
								"slot": "0",
								"type": "t_bool"
							}
						],
						"numberOfBytes": "32"
					},
					"t_struct(structUser)575_storage": {
						"encoding": "inplace",
						"label": "struct structures.structUser",
						"members": [
							{
								"astId": 562,
								"contract": "GitHub/contract-token-cryptoMonster/backend/components/PhasePrivate.sol:PhasePrivate",
								"label": "role",
								"offset": 0,
								"slot": "0",
								"type": "t_enum(Role)559"
							},
							{
								"astId": 564,
								"contract": "GitHub/contract-token-cryptoMonster/backend/components/PhasePrivate.sol:PhasePrivate",
								"label": "login",
								"offset": 0,
								"slot": "1",
								"type": "t_string_storage"
							},
							{
								"astId": 566,
								"contract": "GitHub/contract-token-cryptoMonster/backend/components/PhasePrivate.sol:PhasePrivate",
								"label": "password",
								"offset": 0,
								"slot": "2",
								"type": "t_bytes32"
							},
							{
								"astId": 568,
								"contract": "GitHub/contract-token-cryptoMonster/backend/components/PhasePrivate.sol:PhasePrivate",
								"label": "balance_overall",
								"offset": 0,
								"slot": "3",
								"type": "t_uint256"
							},
							{
								"astId": 570,
								"contract": "GitHub/contract-token-cryptoMonster/backend/components/PhasePrivate.sol:PhasePrivate",
								"label": "balance_seed",
								"offset": 0,
								"slot": "4",
								"type": "t_uint256"
							},
							{
								"astId": 572,
								"contract": "GitHub/contract-token-cryptoMonster/backend/components/PhasePrivate.sol:PhasePrivate",
								"label": "balance_private",
								"offset": 0,
								"slot": "5",
								"type": "t_uint256"
							},
							{
								"astId": 574,
								"contract": "GitHub/contract-token-cryptoMonster/backend/components/PhasePrivate.sol:PhasePrivate",
								"label": "balance_public",
								"offset": 0,
								"slot": "6",
								"type": "t_uint256"
							}
						],
						"numberOfBytes": "224"
					},
					"t_uint256": {
						"encoding": "inplace",
						"label": "uint256",
						"numberOfBytes": "32"
					}
				}
			},
			"userdoc": {
				"kind": "user",
				"methods": {},
				"version": 1
			}
		}
	}
}