{
	"GitHub/contract-token-cryptoMonster/backend/shared/helpers/validateFuncs.sol": {
		"validateFuncs": {
			"abi": [
				{
					"inputs": [
						{
							"internalType": "address",
							"name": "adr",
							"type": "address"
						}
					],
					"name": "getBalanceEth",
					"outputs": [
						{
							"internalType": "uint256",
							"name": "",
							"type": "uint256"
						}
					],
					"stateMutability": "view",
					"type": "function"
				},
				{
					"inputs": [
						{
							"internalType": "address",
							"name": "_userAdr",
							"type": "address"
						}
					],
					"name": "getBalancePrivateToken",
					"outputs": [
						{
							"internalType": "uint256",
							"name": "",
							"type": "uint256"
						}
					],
					"stateMutability": "view",
					"type": "function"
				},
				{
					"inputs": [
						{
							"internalType": "address",
							"name": "_userAdr",
							"type": "address"
						}
					],
					"name": "getBalancePublicToken",
					"outputs": [
						{
							"internalType": "uint256",
							"name": "",
							"type": "uint256"
						}
					],
					"stateMutability": "view",
					"type": "function"
				},
				{
					"inputs": [
						{
							"internalType": "address",
							"name": "_userAdr",
							"type": "address"
						}
					],
					"name": "getBalanceSeedToken",
					"outputs": [
						{
							"internalType": "uint256",
							"name": "",
							"type": "uint256"
						}
					],
					"stateMutability": "view",
					"type": "function"
				},
				{
					"inputs": [],
					"name": "get_blackList",
					"outputs": [
						{
							"internalType": "address[]",
							"name": "",
							"type": "address[]"
						}
					],
					"stateMutability": "view",
					"type": "function"
				},
				{
					"inputs": [
						{
							"internalType": "string",
							"name": "_hash",
							"type": "string"
						}
					],
					"name": "get_keccak256",
					"outputs": [
						{
							"internalType": "bytes32",
							"name": "",
							"type": "bytes32"
						}
					],
					"stateMutability": "pure",
					"type": "function"
				},
				{
					"inputs": [],
					"name": "get_whiteList",
					"outputs": [
						{
							"internalType": "address[]",
							"name": "",
							"type": "address[]"
						}
					],
					"stateMutability": "view",
					"type": "function"
				},
				{
					"inputs": [
						{
							"internalType": "address",
							"name": "",
							"type": "address"
						}
					],
					"name": "structUsers_",
					"outputs": [
						{
							"internalType": "enum structures.Role",
							"name": "role",
							"type": "uint8"
						},
						{
							"internalType": "string",
							"name": "login",
							"type": "string"
						},
						{
							"internalType": "bytes32",
							"name": "password",
							"type": "bytes32"
						},
						{
							"internalType": "uint256",
							"name": "balance_overall",
							"type": "uint256"
						},
						{
							"internalType": "uint256",
							"name": "balance_seed",
							"type": "uint256"
						},
						{
							"internalType": "uint256",
							"name": "balance_private",
							"type": "uint256"
						},
						{
							"internalType": "uint256",
							"name": "balance_public",
							"type": "uint256"
						}
					],
					"stateMutability": "view",
					"type": "function"
				},
				{
					"inputs": [],
					"name": "tokenAmount_",
					"outputs": [
						{
							"internalType": "uint256",
							"name": "",
							"type": "uint256"
						}
					],
					"stateMutability": "view",
					"type": "function"
				},
				{
					"inputs": [],
					"name": "tokenPrice_",
					"outputs": [
						{
							"internalType": "uint256",
							"name": "",
							"type": "uint256"
						}
					],
					"stateMutability": "view",
					"type": "function"
				}
			],
			"devdoc": {
				"kind": "dev",
				"methods": {},
				"version": 1
			},
			"evm": {
				"assembly": "    /* \"GitHub/contract-token-cryptoMonster/backend/shared/helpers/validateFuncs.sol\":191:609  contract validateFuncs is helpresFunc {\r... */\n  mstore(0x40, 0x80)\n    /* \"GitHub/contract-token-cryptoMonster/backend/shared/lib/structures.sol\":1152:1161  750000000 */\n  0x2cb41780\n    /* \"GitHub/contract-token-cryptoMonster/backend/shared/lib/structures.sol\":1123:1161  uint256 public tokenPrice_ = 750000000 */\n  0x02\n  sstore\n    /* \"GitHub/contract-token-cryptoMonster/backend/shared/lib/structures.sol\":1412:1418  100000 */\n  0x0186a0\n    /* \"GitHub/contract-token-cryptoMonster/backend/shared/lib/structures.sol\":1385:1418  uint public tokenAmount_ = 100000 */\n  0x03\n  sstore\n    /* \"GitHub/contract-token-cryptoMonster/backend/shared/helpers/validateFuncs.sol\":191:609  contract validateFuncs is helpresFunc {\r... */\n  callvalue\n  dup1\n  iszero\n  tag_1\n  jumpi\n  0x00\n  dup1\n  revert\ntag_1:\n  pop\n  dataSize(sub_0)\n  dup1\n  dataOffset(sub_0)\n  0x00\n  codecopy\n  0x00\n  return\nstop\n\nsub_0: assembly {\n        /* \"GitHub/contract-token-cryptoMonster/backend/shared/helpers/validateFuncs.sol\":191:609  contract validateFuncs is helpresFunc {\r... */\n      mstore(0x40, 0x80)\n      callvalue\n      dup1\n      iszero\n      tag_1\n      jumpi\n      0x00\n      dup1\n      revert\n    tag_1:\n      pop\n      jumpi(tag_2, lt(calldatasize, 0x04))\n      shr(0xe0, calldataload(0x00))\n      dup1\n      0x0761c8b9\n      eq\n      tag_3\n      jumpi\n      dup1\n      0x2599d6d0\n      eq\n      tag_4\n      jumpi\n      dup1\n      0x72f0d72b\n      eq\n      tag_5\n      jumpi\n      dup1\n      0x7f89128f\n      eq\n      tag_6\n      jumpi\n      dup1\n      0x8e4f8c6b\n      eq\n      tag_7\n      jumpi\n      dup1\n      0x948942ad\n      eq\n      tag_8\n      jumpi\n      dup1\n      0x99067ede\n      eq\n      tag_9\n      jumpi\n      dup1\n      0xb06cdc12\n      eq\n      tag_10\n      jumpi\n      dup1\n      0xc10e3911\n      eq\n      tag_11\n      jumpi\n      dup1\n      0xfc837259\n      eq\n      tag_12\n      jumpi\n    tag_2:\n      0x00\n      dup1\n      revert\n        /* \"GitHub/contract-token-cryptoMonster/backend/shared/lib/structures.sol\":1123:1161  uint256 public tokenPrice_ = 750000000 */\n    tag_3:\n      tag_13\n      sload(0x02)\n      dup2\n      jump\n    tag_13:\n      mload(0x40)\n        /* \"#utility.yul\":2322:2347   */\n      swap1\n      dup2\n      mstore\n        /* \"#utility.yul\":2310:2312   */\n      0x20\n        /* \"#utility.yul\":2295:2313   */\n      add\n        /* \"GitHub/contract-token-cryptoMonster/backend/shared/lib/structures.sol\":1123:1161  uint256 public tokenPrice_ = 750000000 */\n    tag_15:\n      mload(0x40)\n      dup1\n      swap2\n      sub\n      swap1\n      return\n        /* \"GitHub/contract-token-cryptoMonster/backend/shared/helpers/helpresFunc.sol\":849:988  function getBalanceSeedToken (address _userAdr) public view returns (uint256) {\r... */\n    tag_4:\n      tag_13\n      tag_18\n      calldatasize\n      0x04\n      tag_19\n      jump\t// in\n    tag_18:\n      sub(shl(0xa0, 0x01), 0x01)\n        /* \"GitHub/contract-token-cryptoMonster/backend/shared/helpers/helpresFunc.sol\":945:967  structUsers_[_userAdr] */\n      and\n        /* \"GitHub/contract-token-cryptoMonster/backend/shared/helpers/helpresFunc.sol\":918:925  uint256 */\n      0x00\n        /* \"GitHub/contract-token-cryptoMonster/backend/shared/helpers/helpresFunc.sol\":945:967  structUsers_[_userAdr] */\n      swap1\n      dup2\n      mstore\n      0x20\n      dup2\n      swap1\n      mstore\n      0x40\n      swap1\n      keccak256\n        /* \"GitHub/contract-token-cryptoMonster/backend/shared/helpers/helpresFunc.sol\":945:980  structUsers_[_userAdr].balance_seed */\n      0x04\n      add\n      sload\n      swap1\n        /* \"GitHub/contract-token-cryptoMonster/backend/shared/helpers/helpresFunc.sol\":849:988  function getBalanceSeedToken (address _userAdr) public view returns (uint256) {\r... */\n      jump\n        /* \"GitHub/contract-token-cryptoMonster/backend/shared/helpers/helpresFunc.sol\":1352:1495  function getBalancePublicToken (address _userAdr) public view returns (uint256) {\r... */\n    tag_5:\n      tag_13\n      tag_23\n      calldatasize\n      0x04\n      tag_19\n      jump\t// in\n    tag_23:\n      sub(shl(0xa0, 0x01), 0x01)\n        /* \"GitHub/contract-token-cryptoMonster/backend/shared/helpers/helpresFunc.sol\":1450:1472  structUsers_[_userAdr] */\n      and\n        /* \"GitHub/contract-token-cryptoMonster/backend/shared/helpers/helpresFunc.sol\":1423:1430  uint256 */\n      0x00\n        /* \"GitHub/contract-token-cryptoMonster/backend/shared/helpers/helpresFunc.sol\":1450:1472  structUsers_[_userAdr] */\n      swap1\n      dup2\n      mstore\n      0x20\n      dup2\n      swap1\n      mstore\n      0x40\n      swap1\n      keccak256\n        /* \"GitHub/contract-token-cryptoMonster/backend/shared/helpers/helpresFunc.sol\":1450:1487  structUsers_[_userAdr].balance_public */\n      0x06\n      add\n      sload\n      swap1\n        /* \"GitHub/contract-token-cryptoMonster/backend/shared/helpers/helpresFunc.sol\":1352:1495  function getBalancePublicToken (address _userAdr) public view returns (uint256) {\r... */\n      jump\n        /* \"GitHub/contract-token-cryptoMonster/backend/shared/helpers/helpresFunc.sol\":632:742  function get_blackList() public onlyOwner view returns (address[] memory) {\r... */\n    tag_6:\n      tag_26\n      tag_27\n      jump\t// in\n    tag_26:\n      mload(0x40)\n      tag_15\n      swap2\n      swap1\n      tag_29\n      jump\t// in\n        /* \"GitHub/contract-token-cryptoMonster/backend/shared/helpers/helpresFunc.sol\":212:350  function get_keccak256(string memory _hash) public pure returns(bytes32) {\r... */\n    tag_7:\n      tag_13\n      tag_31\n      calldatasize\n      0x04\n      tag_32\n      jump\t// in\n    tag_31:\n      tag_33\n      jump\t// in\n        /* \"GitHub/contract-token-cryptoMonster/backend/shared/lib/structures.sol\":1385:1418  uint public tokenAmount_ = 100000 */\n    tag_8:\n      tag_13\n      sload(0x03)\n      dup2\n      jump\n        /* \"GitHub/contract-token-cryptoMonster/backend/shared/helpers/helpresFunc.sol\":1595:1706  function getBalanceEth(address adr) public view returns(uint256) {\r... */\n    tag_9:\n      tag_13\n      tag_40\n      calldatasize\n      0x04\n      tag_19\n      jump\t// in\n    tag_40:\n      sub(shl(0xa0, 0x01), 0x01)\n        /* \"GitHub/contract-token-cryptoMonster/backend/shared/helpers/helpresFunc.sol\":1678:1698  address(adr).balance */\n      and\n      balance\n      swap1\n        /* \"GitHub/contract-token-cryptoMonster/backend/shared/helpers/helpresFunc.sol\":1595:1706  function getBalanceEth(address adr) public view returns(uint256) {\r... */\n      jump\n        /* \"GitHub/contract-token-cryptoMonster/backend/shared/helpers/helpresFunc.sol\":1098:1243  function getBalancePrivateToken (address _userAdr) public view returns (uint256) {\r... */\n    tag_10:\n      tag_13\n      tag_44\n      calldatasize\n      0x04\n      tag_19\n      jump\t// in\n    tag_44:\n      sub(shl(0xa0, 0x01), 0x01)\n        /* \"GitHub/contract-token-cryptoMonster/backend/shared/helpers/helpresFunc.sol\":1197:1219  structUsers_[_userAdr] */\n      and\n        /* \"GitHub/contract-token-cryptoMonster/backend/shared/helpers/helpresFunc.sol\":1170:1177  uint256 */\n      0x00\n        /* \"GitHub/contract-token-cryptoMonster/backend/shared/helpers/helpresFunc.sol\":1197:1219  structUsers_[_userAdr] */\n      swap1\n      dup2\n      mstore\n      0x20\n      dup2\n      swap1\n      mstore\n      0x40\n      swap1\n      keccak256\n        /* \"GitHub/contract-token-cryptoMonster/backend/shared/helpers/helpresFunc.sol\":1197:1235  structUsers_[_userAdr].balance_private */\n      0x05\n      add\n      sload\n      swap1\n        /* \"GitHub/contract-token-cryptoMonster/backend/shared/helpers/helpresFunc.sol\":1098:1243  function getBalancePrivateToken (address _userAdr) public view returns (uint256) {\r... */\n      jump\n        /* \"GitHub/contract-token-cryptoMonster/backend/shared/helpers/helpresFunc.sol\":426:554  function get_whiteList() public onlyOwnerAndPrivateProvider view returns (address[] memory) {\r... */\n    tag_11:\n      tag_26\n      tag_48\n      jump\t// in\n        /* \"GitHub/contract-token-cryptoMonster/backend/shared/lib/structures.sol\":836:887  mapping (address => structUser) public structUsers_ */\n    tag_12:\n      tag_50\n      tag_51\n      calldatasize\n      0x04\n      tag_19\n      jump\t// in\n    tag_51:\n      tag_52\n      jump\t// in\n    tag_50:\n      mload(0x40)\n      tag_15\n      swap8\n      swap7\n      swap6\n      swap5\n      swap4\n      swap3\n      swap2\n      swap1\n      tag_54\n      jump\t// in\n        /* \"GitHub/contract-token-cryptoMonster/backend/shared/helpers/helpresFunc.sol\":632:742  function get_blackList() public onlyOwner view returns (address[] memory) {\r... */\n    tag_27:\n        /* \"GitHub/contract-token-cryptoMonster/backend/shared/helpers/helpresFunc.sol\":688:704  address[] memory */\n      0x60\n        /* \"GitHub/contract-token-cryptoMonster/backend/shared/helpers/modifireFunc.sol\":320:337  Role.SYSTEM_OWNER */\n      0x00\n        /* \"GitHub/contract-token-cryptoMonster/backend/shared/helpers/modifireFunc.sol\":300:310  msg.sender */\n      caller\n        /* \"GitHub/contract-token-cryptoMonster/backend/shared/helpers/modifireFunc.sol\":287:299  structUsers_ */\n      0x00\n        /* \"GitHub/contract-token-cryptoMonster/backend/shared/helpers/modifireFunc.sol\":287:311  structUsers_[msg.sender] */\n      swap1\n      dup2\n      mstore\n      0x20\n      dup2\n      swap1\n      mstore\n      0x40\n      swap1\n      keccak256\n        /* \"GitHub/contract-token-cryptoMonster/backend/shared/helpers/modifireFunc.sol\":287:316  structUsers_[msg.sender].role */\n      sload\n      0xff\n      and\n        /* \"GitHub/contract-token-cryptoMonster/backend/shared/helpers/modifireFunc.sol\":287:337  structUsers_[msg.sender].role == Role.SYSTEM_OWNER */\n      0x04\n      dup2\n      gt\n      iszero\n      tag_62\n      jumpi\n      tag_62\n      tag_60\n      jump\t// in\n    tag_62:\n      eq\n        /* \"GitHub/contract-token-cryptoMonster/backend/shared/helpers/modifireFunc.sol\":279:356  require(structUsers_[msg.sender].role == Role.SYSTEM_OWNER, \"Your not admin\") */\n      tag_63\n      jumpi\n      mload(0x40)\n      shl(0xe5, 0x461bcd)\n      dup2\n      mstore\n        /* \"#utility.yul\":3970:3972   */\n      0x20\n        /* \"GitHub/contract-token-cryptoMonster/backend/shared/helpers/modifireFunc.sol\":279:356  require(structUsers_[msg.sender].role == Role.SYSTEM_OWNER, \"Your not admin\") */\n      0x04\n      dup3\n      add\n        /* \"#utility.yul\":3952:3973   */\n      mstore\n        /* \"#utility.yul\":4009:4011   */\n      0x0e\n        /* \"#utility.yul\":3989:4007   */\n      0x24\n      dup3\n      add\n        /* \"#utility.yul\":3982:4012   */\n      mstore\n      shl(0x91, 0x2cb7bab9103737ba1030b236b4b7)\n        /* \"#utility.yul\":4028:4046   */\n      0x44\n      dup3\n      add\n        /* \"#utility.yul\":4021:4065   */\n      mstore\n        /* \"#utility.yul\":4082:4100   */\n      0x64\n      add\n        /* \"GitHub/contract-token-cryptoMonster/backend/shared/helpers/modifireFunc.sol\":279:356  require(structUsers_[msg.sender].role == Role.SYSTEM_OWNER, \"Your not admin\") */\n    tag_64:\n      mload(0x40)\n      dup1\n      swap2\n      sub\n      swap1\n      revert\n    tag_63:\n        /* \"GitHub/contract-token-cryptoMonster/backend/shared/helpers/helpresFunc.sol\":724:733  blackList */\n      0x08\n        /* \"GitHub/contract-token-cryptoMonster/backend/shared/helpers/helpresFunc.sol\":717:734  return(blackList) */\n      dup1\n      sload\n      dup1\n      0x20\n      mul\n      0x20\n      add\n      mload(0x40)\n      swap1\n      dup2\n      add\n      0x40\n      mstore\n      dup1\n      swap3\n      swap2\n      swap1\n      dup2\n      dup2\n      mstore\n      0x20\n      add\n      dup3\n      dup1\n      sload\n      dup1\n      iszero\n      tag_67\n      jumpi\n      0x20\n      mul\n      dup3\n      add\n      swap2\n      swap1\n      0x00\n      mstore\n      keccak256(0x00, 0x20)\n      swap1\n    tag_68:\n      dup2\n      sload\n      sub(shl(0xa0, 0x01), 0x01)\n      and\n      dup2\n      mstore\n      0x01\n      swap1\n      swap2\n      add\n      swap1\n      0x20\n      add\n      dup1\n      dup4\n      gt\n      tag_68\n      jumpi\n    tag_67:\n      pop\n      pop\n      pop\n      pop\n      pop\n      swap1\n      pop\n        /* \"GitHub/contract-token-cryptoMonster/backend/shared/helpers/helpresFunc.sol\":632:742  function get_blackList() public onlyOwner view returns (address[] memory) {\r... */\n      swap1\n      jump\t// out\n        /* \"GitHub/contract-token-cryptoMonster/backend/shared/helpers/helpresFunc.sol\":212:350  function get_keccak256(string memory _hash) public pure returns(bytes32) {\r... */\n    tag_33:\n        /* \"GitHub/contract-token-cryptoMonster/backend/shared/helpers/helpresFunc.sol\":276:283  bytes32 */\n      0x00\n        /* \"GitHub/contract-token-cryptoMonster/backend/shared/helpers/helpresFunc.sol\":334:339  _hash */\n      dup2\n        /* \"GitHub/contract-token-cryptoMonster/backend/shared/helpers/helpresFunc.sol\":317:340  abi.encodePacked(_hash) */\n      add(0x20, mload(0x40))\n      tag_70\n      swap2\n      swap1\n      tag_71\n      jump\t// in\n    tag_70:\n      mload(0x40)\n      0x20\n      dup2\n      dup4\n      sub\n      sub\n      dup2\n      mstore\n      swap1\n      0x40\n      mstore\n        /* \"GitHub/contract-token-cryptoMonster/backend/shared/helpers/helpresFunc.sol\":307:341  keccak256(abi.encodePacked(_hash)) */\n      dup1\n      mload\n      swap1\n      0x20\n      add\n      keccak256\n        /* \"GitHub/contract-token-cryptoMonster/backend/shared/helpers/helpresFunc.sol\":300:342  return(keccak256(abi.encodePacked(_hash))) */\n      swap1\n      pop\n        /* \"GitHub/contract-token-cryptoMonster/backend/shared/helpers/helpresFunc.sol\":212:350  function get_keccak256(string memory _hash) public pure returns(bytes32) {\r... */\n      swap2\n      swap1\n      pop\n      jump\t// out\n        /* \"GitHub/contract-token-cryptoMonster/backend/shared/helpers/helpresFunc.sol\":426:554  function get_whiteList() public onlyOwnerAndPrivateProvider view returns (address[] memory) {\r... */\n    tag_48:\n        /* \"GitHub/contract-token-cryptoMonster/backend/shared/helpers/helpresFunc.sol\":500:516  address[] memory */\n      0x60\n        /* \"GitHub/contract-token-cryptoMonster/backend/shared/helpers/modifireFunc.sol\":1116:1133  Role.SYSTEM_OWNER */\n      0x00\n        /* \"GitHub/contract-token-cryptoMonster/backend/shared/helpers/modifireFunc.sol\":1096:1106  msg.sender */\n      caller\n        /* \"GitHub/contract-token-cryptoMonster/backend/shared/helpers/modifireFunc.sol\":1083:1095  structUsers_ */\n      0x00\n        /* \"GitHub/contract-token-cryptoMonster/backend/shared/helpers/modifireFunc.sol\":1083:1107  structUsers_[msg.sender] */\n      swap1\n      dup2\n      mstore\n      0x20\n      dup2\n      swap1\n      mstore\n      0x40\n      swap1\n      keccak256\n        /* \"GitHub/contract-token-cryptoMonster/backend/shared/helpers/modifireFunc.sol\":1083:1112  structUsers_[msg.sender].role */\n      sload\n      0xff\n      and\n        /* \"GitHub/contract-token-cryptoMonster/backend/shared/helpers/modifireFunc.sol\":1083:1133  structUsers_[msg.sender].role == Role.SYSTEM_OWNER */\n      0x04\n      dup2\n      gt\n      iszero\n      tag_78\n      jumpi\n      tag_78\n      tag_60\n      jump\t// in\n    tag_78:\n      eq\n        /* \"GitHub/contract-token-cryptoMonster/backend/shared/helpers/modifireFunc.sol\":1083:1189  structUsers_[msg.sender].role == Role.SYSTEM_OWNER || structUsers_[msg.sender].role == Role.SYSTEM_PRIVATE */\n      dup1\n      tag_79\n      jumpi\n      pop\n        /* \"GitHub/contract-token-cryptoMonster/backend/shared/helpers/modifireFunc.sol\":1170:1189  Role.SYSTEM_PRIVATE */\n      0x02\n        /* \"GitHub/contract-token-cryptoMonster/backend/shared/helpers/modifireFunc.sol\":1150:1160  msg.sender */\n      caller\n        /* \"GitHub/contract-token-cryptoMonster/backend/shared/helpers/modifireFunc.sol\":1137:1149  structUsers_ */\n      0x00\n        /* \"GitHub/contract-token-cryptoMonster/backend/shared/helpers/modifireFunc.sol\":1137:1161  structUsers_[msg.sender] */\n      swap1\n      dup2\n      mstore\n      0x20\n      dup2\n      swap1\n      mstore\n      0x40\n      swap1\n      keccak256\n        /* \"GitHub/contract-token-cryptoMonster/backend/shared/helpers/modifireFunc.sol\":1137:1166  structUsers_[msg.sender].role */\n      sload\n      0xff\n      and\n        /* \"GitHub/contract-token-cryptoMonster/backend/shared/helpers/modifireFunc.sol\":1137:1189  structUsers_[msg.sender].role == Role.SYSTEM_PRIVATE */\n      0x04\n      dup2\n      gt\n      iszero\n      tag_83\n      jumpi\n      tag_83\n      tag_60\n      jump\t// in\n    tag_83:\n      eq\n        /* \"GitHub/contract-token-cryptoMonster/backend/shared/helpers/modifireFunc.sol\":1083:1189  structUsers_[msg.sender].role == Role.SYSTEM_OWNER || structUsers_[msg.sender].role == Role.SYSTEM_PRIVATE */\n    tag_79:\n        /* \"GitHub/contract-token-cryptoMonster/backend/shared/helpers/modifireFunc.sol\":1075:1235  require(structUsers_[msg.sender].role == Role.SYSTEM_OWNER || structUsers_[msg.sender].role == Role.SYSTEM_PRIVATE, \"You are not the owner or private provider\") */\n      tag_84\n      jumpi\n      mload(0x40)\n      shl(0xe5, 0x461bcd)\n      dup2\n      mstore\n        /* \"#utility.yul\":3560:3562   */\n      0x20\n        /* \"GitHub/contract-token-cryptoMonster/backend/shared/helpers/modifireFunc.sol\":1075:1235  require(structUsers_[msg.sender].role == Role.SYSTEM_OWNER || structUsers_[msg.sender].role == Role.SYSTEM_PRIVATE, \"You are not the owner or private provider\") */\n      0x04\n      dup3\n      add\n        /* \"#utility.yul\":3542:3563   */\n      mstore\n        /* \"#utility.yul\":3599:3601   */\n      0x29\n        /* \"#utility.yul\":3579:3597   */\n      0x24\n      dup3\n      add\n        /* \"#utility.yul\":3572:3602   */\n      mstore\n        /* \"#utility.yul\":3638:3672   */\n      0x596f7520617265206e6f7420746865206f776e6572206f722070726976617465\n        /* \"#utility.yul\":3618:3636   */\n      0x44\n      dup3\n      add\n        /* \"#utility.yul\":3611:3673   */\n      mstore\n      shl(0xb9, 0x10383937bb34b232b9)\n        /* \"#utility.yul\":3689:3707   */\n      0x64\n      dup3\n      add\n        /* \"#utility.yul\":3682:3721   */\n      mstore\n        /* \"#utility.yul\":3738:3757   */\n      0x84\n      add\n        /* \"GitHub/contract-token-cryptoMonster/backend/shared/helpers/modifireFunc.sol\":1075:1235  require(structUsers_[msg.sender].role == Role.SYSTEM_OWNER || structUsers_[msg.sender].role == Role.SYSTEM_PRIVATE, \"You are not the owner or private provider\") */\n      tag_64\n        /* \"#utility.yul\":3358:3763   */\n      jump\n        /* \"GitHub/contract-token-cryptoMonster/backend/shared/helpers/modifireFunc.sol\":1075:1235  require(structUsers_[msg.sender].role == Role.SYSTEM_OWNER || structUsers_[msg.sender].role == Role.SYSTEM_PRIVATE, \"You are not the owner or private provider\") */\n    tag_84:\n        /* \"GitHub/contract-token-cryptoMonster/backend/shared/helpers/helpresFunc.sol\":536:545  whiteList */\n      0x07\n        /* \"GitHub/contract-token-cryptoMonster/backend/shared/helpers/helpresFunc.sol\":529:546  return(whiteList) */\n      dup1\n      sload\n      dup1\n      0x20\n      mul\n      0x20\n      add\n      mload(0x40)\n      swap1\n      dup2\n      add\n      0x40\n      mstore\n      dup1\n      swap3\n      swap2\n      swap1\n      dup2\n      dup2\n      mstore\n      0x20\n      add\n      dup3\n      dup1\n      sload\n      dup1\n      iszero\n      tag_67\n      jumpi\n      0x20\n      mul\n      dup3\n      add\n      swap2\n      swap1\n      0x00\n      mstore\n      keccak256(0x00, 0x20)\n      swap1\n      dup2\n      sload\n      sub(shl(0xa0, 0x01), 0x01)\n      and\n      dup2\n      mstore\n      0x01\n      swap1\n      swap2\n      add\n      swap1\n      0x20\n      add\n      dup1\n      dup4\n      gt\n      tag_68\n      jumpi\n      pop\n      pop\n      pop\n      pop\n      pop\n      swap1\n      pop\n        /* \"GitHub/contract-token-cryptoMonster/backend/shared/helpers/helpresFunc.sol\":426:554  function get_whiteList() public onlyOwnerAndPrivateProvider view returns (address[] memory) {\r... */\n      swap1\n      jump\t// out\n        /* \"GitHub/contract-token-cryptoMonster/backend/shared/lib/structures.sol\":836:887  mapping (address => structUser) public structUsers_ */\n    tag_52:\n      0x00\n      0x20\n      dup2\n      swap1\n      mstore\n      swap1\n      dup2\n      mstore\n      0x40\n      swap1\n      keccak256\n      dup1\n      sload\n      0x01\n      dup3\n      add\n      dup1\n      sload\n      0xff\n      swap1\n      swap3\n      and\n      swap3\n      swap2\n      tag_90\n      swap1\n      tag_91\n      jump\t// in\n    tag_90:\n      dup1\n      0x1f\n      add\n      0x20\n      dup1\n      swap2\n      div\n      mul\n      0x20\n      add\n      mload(0x40)\n      swap1\n      dup2\n      add\n      0x40\n      mstore\n      dup1\n      swap3\n      swap2\n      swap1\n      dup2\n      dup2\n      mstore\n      0x20\n      add\n      dup3\n      dup1\n      sload\n      tag_92\n      swap1\n      tag_91\n      jump\t// in\n    tag_92:\n      dup1\n      iszero\n      tag_93\n      jumpi\n      dup1\n      0x1f\n      lt\n      tag_94\n      jumpi\n      0x0100\n      dup1\n      dup4\n      sload\n      div\n      mul\n      dup4\n      mstore\n      swap2\n      0x20\n      add\n      swap2\n      jump(tag_93)\n    tag_94:\n      dup3\n      add\n      swap2\n      swap1\n      0x00\n      mstore\n      keccak256(0x00, 0x20)\n      swap1\n    tag_95:\n      dup2\n      sload\n      dup2\n      mstore\n      swap1\n      0x01\n      add\n      swap1\n      0x20\n      add\n      dup1\n      dup4\n      gt\n      tag_95\n      jumpi\n      dup3\n      swap1\n      sub\n      0x1f\n      and\n      dup3\n      add\n      swap2\n    tag_93:\n      pop\n      pop\n      pop\n      pop\n      pop\n      swap1\n      dup1\n      0x02\n      add\n      sload\n      swap1\n      dup1\n      0x03\n      add\n      sload\n      swap1\n      dup1\n      0x04\n      add\n      sload\n      swap1\n      dup1\n      0x05\n      add\n      sload\n      swap1\n      dup1\n      0x06\n      add\n      sload\n      swap1\n      pop\n      dup8\n      jump\t// out\n        /* \"#utility.yul\":14:300   */\n    tag_19:\n        /* \"#utility.yul\":73:79   */\n      0x00\n        /* \"#utility.yul\":126:128   */\n      0x20\n        /* \"#utility.yul\":114:123   */\n      dup3\n        /* \"#utility.yul\":105:112   */\n      dup5\n        /* \"#utility.yul\":101:124   */\n      sub\n        /* \"#utility.yul\":97:129   */\n      slt\n        /* \"#utility.yul\":94:146   */\n      iszero\n      tag_98\n      jumpi\n        /* \"#utility.yul\":142:143   */\n      0x00\n        /* \"#utility.yul\":139:140   */\n      dup1\n        /* \"#utility.yul\":132:144   */\n      revert\n        /* \"#utility.yul\":94:146   */\n    tag_98:\n        /* \"#utility.yul\":168:191   */\n      dup2\n      calldataload\n      sub(shl(0xa0, 0x01), 0x01)\n        /* \"#utility.yul\":220:251   */\n      dup2\n      and\n        /* \"#utility.yul\":210:252   */\n      dup2\n      eq\n        /* \"#utility.yul\":200:270   */\n      tag_99\n      jumpi\n        /* \"#utility.yul\":266:267   */\n      0x00\n        /* \"#utility.yul\":263:264   */\n      dup1\n        /* \"#utility.yul\":256:268   */\n      revert\n        /* \"#utility.yul\":200:270   */\n    tag_99:\n        /* \"#utility.yul\":289:294   */\n      swap4\n        /* \"#utility.yul\":14:300   */\n      swap3\n      pop\n      pop\n      pop\n      jump\t// out\n        /* \"#utility.yul\":305:1227   */\n    tag_32:\n        /* \"#utility.yul\":374:380   */\n      0x00\n        /* \"#utility.yul\":427:429   */\n      0x20\n        /* \"#utility.yul\":415:424   */\n      dup3\n        /* \"#utility.yul\":406:413   */\n      dup5\n        /* \"#utility.yul\":402:425   */\n      sub\n        /* \"#utility.yul\":398:430   */\n      slt\n        /* \"#utility.yul\":395:447   */\n      iszero\n      tag_101\n      jumpi\n        /* \"#utility.yul\":443:444   */\n      0x00\n        /* \"#utility.yul\":440:441   */\n      dup1\n        /* \"#utility.yul\":433:445   */\n      revert\n        /* \"#utility.yul\":395:447   */\n    tag_101:\n        /* \"#utility.yul\":470:493   */\n      dup2\n      calldataload\n      sub(shl(0x40, 0x01), 0x01)\n        /* \"#utility.yul\":542:556   */\n      dup1\n      dup3\n      gt\n        /* \"#utility.yul\":539:573   */\n      iszero\n      tag_102\n      jumpi\n        /* \"#utility.yul\":569:570   */\n      0x00\n        /* \"#utility.yul\":566:567   */\n      dup1\n        /* \"#utility.yul\":559:571   */\n      revert\n        /* \"#utility.yul\":539:573   */\n    tag_102:\n        /* \"#utility.yul\":607:613   */\n      dup2\n        /* \"#utility.yul\":596:605   */\n      dup5\n        /* \"#utility.yul\":592:614   */\n      add\n        /* \"#utility.yul\":582:614   */\n      swap2\n      pop\n        /* \"#utility.yul\":652:659   */\n      dup5\n        /* \"#utility.yul\":645:649   */\n      0x1f\n        /* \"#utility.yul\":641:643   */\n      dup4\n        /* \"#utility.yul\":637:650   */\n      add\n        /* \"#utility.yul\":633:660   */\n      slt\n        /* \"#utility.yul\":623:678   */\n      tag_103\n      jumpi\n        /* \"#utility.yul\":674:675   */\n      0x00\n        /* \"#utility.yul\":671:672   */\n      dup1\n        /* \"#utility.yul\":664:676   */\n      revert\n        /* \"#utility.yul\":623:678   */\n    tag_103:\n        /* \"#utility.yul\":710:712   */\n      dup2\n        /* \"#utility.yul\":697:713   */\n      calldataload\n        /* \"#utility.yul\":732:734   */\n      dup2\n        /* \"#utility.yul\":728:730   */\n      dup2\n        /* \"#utility.yul\":725:735   */\n      gt\n        /* \"#utility.yul\":722:758   */\n      iszero\n      tag_105\n      jumpi\n        /* \"#utility.yul\":738:756   */\n      tag_105\n      tag_106\n      jump\t// in\n    tag_105:\n        /* \"#utility.yul\":813:815   */\n      0x40\n        /* \"#utility.yul\":807:816   */\n      mload\n        /* \"#utility.yul\":781:783   */\n      0x1f\n        /* \"#utility.yul\":867:880   */\n      dup3\n      add\n      not(0x1f)\n        /* \"#utility.yul\":863:885   */\n      swap1\n      dup2\n      and\n        /* \"#utility.yul\":887:889   */\n      0x3f\n        /* \"#utility.yul\":859:890   */\n      add\n        /* \"#utility.yul\":855:895   */\n      and\n        /* \"#utility.yul\":843:896   */\n      dup2\n      add\n      swap1\n        /* \"#utility.yul\":911:929   */\n      dup4\n      dup3\n      gt\n        /* \"#utility.yul\":931:953   */\n      dup2\n      dup4\n      lt\n        /* \"#utility.yul\":908:954   */\n      or\n        /* \"#utility.yul\":905:977   */\n      iszero\n      tag_108\n      jumpi\n        /* \"#utility.yul\":957:975   */\n      tag_108\n      tag_106\n      jump\t// in\n    tag_108:\n        /* \"#utility.yul\":997:1007   */\n      dup2\n        /* \"#utility.yul\":993:995   */\n      0x40\n        /* \"#utility.yul\":986:1008   */\n      mstore\n        /* \"#utility.yul\":1032:1034   */\n      dup3\n        /* \"#utility.yul\":1024:1030   */\n      dup2\n        /* \"#utility.yul\":1017:1035   */\n      mstore\n        /* \"#utility.yul\":1072:1079   */\n      dup8\n        /* \"#utility.yul\":1067:1069   */\n      0x20\n        /* \"#utility.yul\":1062:1064   */\n      dup5\n        /* \"#utility.yul\":1058:1060   */\n      dup8\n        /* \"#utility.yul\":1054:1065   */\n      add\n        /* \"#utility.yul\":1050:1070   */\n      add\n        /* \"#utility.yul\":1047:1080   */\n      gt\n        /* \"#utility.yul\":1044:1097   */\n      iszero\n      tag_109\n      jumpi\n        /* \"#utility.yul\":1093:1094   */\n      0x00\n        /* \"#utility.yul\":1090:1091   */\n      dup1\n        /* \"#utility.yul\":1083:1095   */\n      revert\n        /* \"#utility.yul\":1044:1097   */\n    tag_109:\n        /* \"#utility.yul\":1149:1151   */\n      dup3\n        /* \"#utility.yul\":1144:1146   */\n      0x20\n        /* \"#utility.yul\":1140:1142   */\n      dup7\n        /* \"#utility.yul\":1136:1147   */\n      add\n        /* \"#utility.yul\":1131:1133   */\n      0x20\n        /* \"#utility.yul\":1123:1129   */\n      dup4\n        /* \"#utility.yul\":1119:1134   */\n      add\n        /* \"#utility.yul\":1106:1152   */\n      calldatacopy\n        /* \"#utility.yul\":1194:1195   */\n      0x00\n        /* \"#utility.yul\":1172:1187   */\n      swap3\n      dup2\n      add\n        /* \"#utility.yul\":1189:1191   */\n      0x20\n        /* \"#utility.yul\":1168:1192   */\n      add\n        /* \"#utility.yul\":1161:1196   */\n      swap3\n      swap1\n      swap3\n      mstore\n      pop\n        /* \"#utility.yul\":1176:1182   */\n      swap6\n        /* \"#utility.yul\":305:1227   */\n      swap5\n      pop\n      pop\n      pop\n      pop\n      pop\n      jump\t// out\n        /* \"#utility.yul\":1232:1508   */\n    tag_71:\n        /* \"#utility.yul\":1363:1366   */\n      0x00\n        /* \"#utility.yul\":1401:1407   */\n      dup3\n        /* \"#utility.yul\":1395:1408   */\n      mload\n        /* \"#utility.yul\":1417:1470   */\n      tag_111\n        /* \"#utility.yul\":1463:1469   */\n      dup2\n        /* \"#utility.yul\":1458:1461   */\n      dup5\n        /* \"#utility.yul\":1451:1455   */\n      0x20\n        /* \"#utility.yul\":1443:1449   */\n      dup8\n        /* \"#utility.yul\":1439:1456   */\n      add\n        /* \"#utility.yul\":1417:1470   */\n      tag_112\n      jump\t// in\n    tag_111:\n        /* \"#utility.yul\":1486:1502   */\n      swap2\n      swap1\n      swap2\n      add\n      swap3\n        /* \"#utility.yul\":1232:1508   */\n      swap2\n      pop\n      pop\n      jump\t// out\n        /* \"#utility.yul\":1513:2171   */\n    tag_29:\n        /* \"#utility.yul\":1684:1686   */\n      0x20\n        /* \"#utility.yul\":1736:1757   */\n      dup1\n      dup3\n      mstore\n        /* \"#utility.yul\":1806:1819   */\n      dup3\n      mload\n        /* \"#utility.yul\":1709:1727   */\n      dup3\n      dup3\n      add\n        /* \"#utility.yul\":1828:1850   */\n      dup2\n      swap1\n      mstore\n        /* \"#utility.yul\":1655:1659   */\n      0x00\n      swap2\n        /* \"#utility.yul\":1684:1686   */\n      swap1\n        /* \"#utility.yul\":1907:1922   */\n      dup5\n      dup3\n      add\n      swap1\n        /* \"#utility.yul\":1881:1883   */\n      0x40\n        /* \"#utility.yul\":1866:1884   */\n      dup6\n      add\n      swap1\n        /* \"#utility.yul\":1655:1659   */\n      dup5\n        /* \"#utility.yul\":1950:2145   */\n    tag_114:\n        /* \"#utility.yul\":1964:1970   */\n      dup2\n        /* \"#utility.yul\":1961:1962   */\n      dup2\n        /* \"#utility.yul\":1958:1971   */\n      lt\n        /* \"#utility.yul\":1950:2145   */\n      iszero\n      tag_116\n      jumpi\n        /* \"#utility.yul\":2029:2042   */\n      dup4\n      mload\n      sub(shl(0xa0, 0x01), 0x01)\n        /* \"#utility.yul\":2025:2064   */\n      and\n        /* \"#utility.yul\":2013:2065   */\n      dup4\n      mstore\n        /* \"#utility.yul\":2120:2135   */\n      swap3\n      dup5\n      add\n      swap3\n        /* \"#utility.yul\":2085:2097   */\n      swap2\n      dup5\n      add\n      swap2\n        /* \"#utility.yul\":2061:2062   */\n      0x01\n        /* \"#utility.yul\":1979:1988   */\n      add\n        /* \"#utility.yul\":1950:2145   */\n      jump(tag_114)\n    tag_116:\n      pop\n        /* \"#utility.yul\":2162:2165   */\n      swap1\n      swap7\n        /* \"#utility.yul\":1513:2171   */\n      swap6\n      pop\n      pop\n      pop\n      pop\n      pop\n      pop\n      jump\t// out\n        /* \"#utility.yul\":2358:3353   */\n    tag_54:\n        /* \"#utility.yul\":2644:2648   */\n      0x00\n        /* \"#utility.yul\":2684:2685   */\n      0x05\n        /* \"#utility.yul\":2676:2682   */\n      dup10\n        /* \"#utility.yul\":2673:2686   */\n      lt\n        /* \"#utility.yul\":2663:2807   */\n      tag_119\n      jumpi\n        /* \"#utility.yul\":2729:2739   */\n      0x4e487b71\n        /* \"#utility.yul\":2724:2727   */\n      0xe0\n        /* \"#utility.yul\":2720:2740   */\n      shl\n        /* \"#utility.yul\":2717:2718   */\n      0x00\n        /* \"#utility.yul\":2710:2741   */\n      mstore\n        /* \"#utility.yul\":2764:2768   */\n      0x21\n        /* \"#utility.yul\":2761:2762   */\n      0x04\n        /* \"#utility.yul\":2754:2769   */\n      mstore\n        /* \"#utility.yul\":2792:2796   */\n      0x24\n        /* \"#utility.yul\":2789:2790   */\n      0x00\n        /* \"#utility.yul\":2782:2797   */\n      revert\n        /* \"#utility.yul\":2663:2807   */\n    tag_119:\n        /* \"#utility.yul\":2834:2840   */\n      dup9\n        /* \"#utility.yul\":2823:2832   */\n      dup3\n        /* \"#utility.yul\":2816:2841   */\n      mstore\n        /* \"#utility.yul\":2877:2880   */\n      0xe0\n        /* \"#utility.yul\":2872:2874   */\n      0x20\n        /* \"#utility.yul\":2861:2870   */\n      dup4\n        /* \"#utility.yul\":2857:2875   */\n      add\n        /* \"#utility.yul\":2850:2881   */\n      mstore\n        /* \"#utility.yul\":2910:2916   */\n      dup8\n        /* \"#utility.yul\":2904:2917   */\n      mload\n        /* \"#utility.yul\":2954:2960   */\n      dup1\n        /* \"#utility.yul\":2948:2951   */\n      0xe0\n        /* \"#utility.yul\":2937:2946   */\n      dup5\n        /* \"#utility.yul\":2933:2952   */\n      add\n        /* \"#utility.yul\":2926:2961   */\n      mstore\n        /* \"#utility.yul\":2980:2983   */\n      0x0100\n        /* \"#utility.yul\":2992:3058   */\n      tag_120\n        /* \"#utility.yul\":3051:3057   */\n      dup3\n        /* \"#utility.yul\":3046:3048   */\n      dup3\n        /* \"#utility.yul\":3035:3044   */\n      dup7\n        /* \"#utility.yul\":3031:3049   */\n      add\n        /* \"#utility.yul\":3026:3028   */\n      0x20\n        /* \"#utility.yul\":3018:3024   */\n      dup14\n        /* \"#utility.yul\":3014:3029   */\n      add\n        /* \"#utility.yul\":2992:3058   */\n      tag_112\n      jump\t// in\n    tag_120:\n        /* \"#utility.yul\":3160:3162   */\n      0x40\n        /* \"#utility.yul\":3145:3163   */\n      dup5\n      add\n        /* \"#utility.yul\":3138:3172   */\n      swap9\n      swap1\n      swap9\n      mstore\n        /* \"#utility.yul\":3203:3205   */\n      0x60\n        /* \"#utility.yul\":3188:3206   */\n      dup4\n      add\n        /* \"#utility.yul\":3181:3215   */\n      swap7\n      swap1\n      swap7\n      mstore\n      pop\n        /* \"#utility.yul\":3246:3249   */\n      0x80\n        /* \"#utility.yul\":3231:3250   */\n      dup2\n      add\n        /* \"#utility.yul\":3224:3259   */\n      swap4\n      swap1\n      swap4\n      mstore\n        /* \"#utility.yul\":3290:3293   */\n      0xa0\n        /* \"#utility.yul\":3275:3294   */\n      dup4\n      add\n        /* \"#utility.yul\":3268:3303   */\n      swap2\n      swap1\n      swap2\n      mstore\n        /* \"#utility.yul\":3334:3337   */\n      0xc0\n        /* \"#utility.yul\":3319:3338   */\n      dup3\n      add\n        /* \"#utility.yul\":3312:3347   */\n      mstore\n        /* \"#utility.yul\":3119:3121   */\n      0x1f\n        /* \"#utility.yul\":3098:3113   */\n      swap1\n      swap2\n      add\n      not(0x1f)\n        /* \"#utility.yul\":3094:3123   */\n      and\n        /* \"#utility.yul\":3079:3124   */\n      add\n        /* \"#utility.yul\":3075:3129   */\n      add\n      swap3\n      swap2\n      pop\n      pop\n        /* \"#utility.yul\":2358:3353   */\n      jump\t// out\n        /* \"#utility.yul\":4293:4551   */\n    tag_112:\n        /* \"#utility.yul\":4365:4366   */\n      0x00\n        /* \"#utility.yul\":4375:4488   */\n    tag_125:\n        /* \"#utility.yul\":4389:4395   */\n      dup4\n        /* \"#utility.yul\":4386:4387   */\n      dup2\n        /* \"#utility.yul\":4383:4396   */\n      lt\n        /* \"#utility.yul\":4375:4488   */\n      iszero\n      tag_127\n      jumpi\n        /* \"#utility.yul\":4465:4476   */\n      dup2\n      dup2\n      add\n        /* \"#utility.yul\":4459:4477   */\n      mload\n        /* \"#utility.yul\":4446:4457   */\n      dup4\n      dup3\n      add\n        /* \"#utility.yul\":4439:4478   */\n      mstore\n        /* \"#utility.yul\":4411:4413   */\n      0x20\n        /* \"#utility.yul\":4404:4414   */\n      add\n        /* \"#utility.yul\":4375:4488   */\n      jump(tag_125)\n    tag_127:\n        /* \"#utility.yul\":4506:4512   */\n      dup4\n        /* \"#utility.yul\":4503:4504   */\n      dup2\n        /* \"#utility.yul\":4500:4513   */\n      gt\n        /* \"#utility.yul\":4497:4545   */\n      iszero\n      tag_128\n      jumpi\n        /* \"#utility.yul\":4541:4542   */\n      0x00\n        /* \"#utility.yul\":4532:4538   */\n      dup5\n        /* \"#utility.yul\":4527:4530   */\n      dup5\n        /* \"#utility.yul\":4523:4539   */\n      add\n        /* \"#utility.yul\":4516:4543   */\n      mstore\n        /* \"#utility.yul\":4497:4545   */\n    tag_128:\n      pop\n        /* \"#utility.yul\":4293:4551   */\n      pop\n      pop\n      pop\n      jump\t// out\n        /* \"#utility.yul\":4556:4936   */\n    tag_91:\n        /* \"#utility.yul\":4635:4636   */\n      0x01\n        /* \"#utility.yul\":4631:4643   */\n      dup2\n      dup2\n      shr\n      swap1\n        /* \"#utility.yul\":4678:4690   */\n      dup3\n      and\n      dup1\n        /* \"#utility.yul\":4699:4760   */\n      tag_130\n      jumpi\n        /* \"#utility.yul\":4753:4757   */\n      0x7f\n        /* \"#utility.yul\":4745:4751   */\n      dup3\n        /* \"#utility.yul\":4741:4758   */\n      and\n        /* \"#utility.yul\":4731:4758   */\n      swap2\n      pop\n        /* \"#utility.yul\":4699:4760   */\n    tag_130:\n        /* \"#utility.yul\":4806:4808   */\n      0x20\n        /* \"#utility.yul\":4798:4804   */\n      dup3\n        /* \"#utility.yul\":4795:4809   */\n      lt\n        /* \"#utility.yul\":4775:4793   */\n      dup2\n        /* \"#utility.yul\":4772:4810   */\n      eq\n        /* \"#utility.yul\":4769:4930   */\n      iszero\n      tag_131\n      jumpi\n        /* \"#utility.yul\":4852:4862   */\n      0x4e487b71\n        /* \"#utility.yul\":4847:4850   */\n      0xe0\n        /* \"#utility.yul\":4843:4863   */\n      shl\n        /* \"#utility.yul\":4840:4841   */\n      0x00\n        /* \"#utility.yul\":4833:4864   */\n      mstore\n        /* \"#utility.yul\":4887:4891   */\n      0x22\n        /* \"#utility.yul\":4884:4885   */\n      0x04\n        /* \"#utility.yul\":4877:4892   */\n      mstore\n        /* \"#utility.yul\":4915:4919   */\n      0x24\n        /* \"#utility.yul\":4912:4913   */\n      0x00\n        /* \"#utility.yul\":4905:4920   */\n      revert\n        /* \"#utility.yul\":4769:4930   */\n    tag_131:\n      pop\n        /* \"#utility.yul\":4556:4936   */\n      swap2\n      swap1\n      pop\n      jump\t// out\n        /* \"#utility.yul\":4941:5068   */\n    tag_60:\n        /* \"#utility.yul\":5002:5012   */\n      0x4e487b71\n        /* \"#utility.yul\":4997:5000   */\n      0xe0\n        /* \"#utility.yul\":4993:5013   */\n      shl\n        /* \"#utility.yul\":4990:4991   */\n      0x00\n        /* \"#utility.yul\":4983:5014   */\n      mstore\n        /* \"#utility.yul\":5033:5037   */\n      0x21\n        /* \"#utility.yul\":5030:5031   */\n      0x04\n        /* \"#utility.yul\":5023:5038   */\n      mstore\n        /* \"#utility.yul\":5057:5061   */\n      0x24\n        /* \"#utility.yul\":5054:5055   */\n      0x00\n        /* \"#utility.yul\":5047:5062   */\n      revert\n        /* \"#utility.yul\":5073:5200   */\n    tag_106:\n        /* \"#utility.yul\":5134:5144   */\n      0x4e487b71\n        /* \"#utility.yul\":5129:5132   */\n      0xe0\n        /* \"#utility.yul\":5125:5145   */\n      shl\n        /* \"#utility.yul\":5122:5123   */\n      0x00\n        /* \"#utility.yul\":5115:5146   */\n      mstore\n        /* \"#utility.yul\":5165:5169   */\n      0x41\n        /* \"#utility.yul\":5162:5163   */\n      0x04\n        /* \"#utility.yul\":5155:5170   */\n      mstore\n        /* \"#utility.yul\":5189:5193   */\n      0x24\n        /* \"#utility.yul\":5186:5187   */\n      0x00\n        /* \"#utility.yul\":5179:5194   */\n      revert\n\n    auxdata: 0xa26469706673582212209115de02c93168a6a60f1dbd878a07c1af0dc566d089b8ab11d85294f86c2aaf64736f6c63430008070033\n}\n",
				"bytecode": {
					"linkReferences": {},
					"object": "6080604052632cb41780600255620186a060035534801561001f57600080fd5b506107148061002f6000396000f3fe608060405234801561001057600080fd5b506004361061008e5760003560e01c80630761c8b9146100935780632599d6d0146100af57806372f0d72b146100db5780637f89128f146101075780638e4f8c6b1461011c578063948942ad1461012f57806399067ede14610138578063b06cdc1214610153578063c10e39111461017f578063fc83725914610187575b600080fd5b61009c60025481565b6040519081526020015b60405180910390f35b61009c6100bd366004610482565b6001600160a01b031660009081526020819052604090206004015490565b61009c6100e9366004610482565b6001600160a01b031660009081526020819052604090206006015490565b61010f6101ad565b6040516100a6919061057e565b61009c61012a3660046104b2565b610278565b61009c60035481565b61009c610146366004610482565b6001600160a01b03163190565b61009c610161366004610482565b6001600160a01b031660009081526020819052604090206005015490565b61010f6102a8565b61019a610195366004610482565b6103bb565b6040516100a697969594939291906105cb565b606060003360009081526020819052604090205460ff1660048111156101d5576101d56106b2565b146102185760405162461bcd60e51b815260206004820152600e60248201526d2cb7bab9103737ba1030b236b4b760911b60448201526064015b60405180910390fd5b600880548060200260200160405190810160405280929190818152602001828054801561026e57602002820191906000526020600020905b81546001600160a01b03168152600190910190602001808311610250575b5050505050905090565b60008160405160200161028b9190610562565b604051602081830303815290604052805190602001209050919050565b606060003360009081526020819052604090205460ff1660048111156102d0576102d06106b2565b14806102ff575060023360009081526020819052604090205460ff1660048111156102fd576102fd6106b2565b145b61035d5760405162461bcd60e51b815260206004820152602960248201527f596f7520617265206e6f7420746865206f776e6572206f72207072697661746560448201526810383937bb34b232b960b91b606482015260840161020f565b600780548060200260200160405190810160405280929190818152602001828054801561026e576020028201919060005260206000209081546001600160a01b03168152600190910190602001808311610250575050505050905090565b6000602081905290815260409020805460018201805460ff90921692916103e190610677565b80601f016020809104026020016040519081016040528092919081815260200182805461040d90610677565b801561045a5780601f1061042f5761010080835404028352916020019161045a565b820191906000526020600020905b81548152906001019060200180831161043d57829003601f168201915b5050505050908060020154908060030154908060040154908060050154908060060154905087565b60006020828403121561049457600080fd5b81356001600160a01b03811681146104ab57600080fd5b9392505050565b6000602082840312156104c457600080fd5b81356001600160401b03808211156104db57600080fd5b818401915084601f8301126104ef57600080fd5b813581811115610501576105016106c8565b604051601f8201601f19908116603f01168101908382118183101715610529576105296106c8565b8160405282815287602084870101111561054257600080fd5b826020860160208301376000928101602001929092525095945050505050565b60008251610574818460208701610647565b9190910192915050565b6020808252825182820181905260009190848201906040850190845b818110156105bf5783516001600160a01b03168352928401929184019160010161059a565b50909695505050505050565b6000600589106105eb57634e487b7160e01b600052602160045260246000fd5b88825260e0602083015287518060e08401526101006106108282860160208d01610647565b6040840198909852606083019690965250608081019390935260a083019190915260c0820152601f909101601f1916010192915050565b60005b8381101561066257818101518382015260200161064a565b83811115610671576000848401525b50505050565b600181811c9082168061068b57607f821691505b602082108114156106ac57634e487b7160e01b600052602260045260246000fd5b50919050565b634e487b7160e01b600052602160045260246000fd5b634e487b7160e01b600052604160045260246000fdfea26469706673582212209115de02c93168a6a60f1dbd878a07c1af0dc566d089b8ab11d85294f86c2aaf64736f6c63430008070033",
					"opcodes": "PUSH1 0x80 PUSH1 0x40 MSTORE PUSH4 0x2CB41780 PUSH1 0x2 SSTORE PUSH3 0x186A0 PUSH1 0x3 SSTORE CALLVALUE DUP1 ISZERO PUSH2 0x1F JUMPI PUSH1 0x0 DUP1 REVERT JUMPDEST POP PUSH2 0x714 DUP1 PUSH2 0x2F PUSH1 0x0 CODECOPY PUSH1 0x0 RETURN INVALID PUSH1 0x80 PUSH1 0x40 MSTORE CALLVALUE DUP1 ISZERO PUSH2 0x10 JUMPI PUSH1 0x0 DUP1 REVERT JUMPDEST POP PUSH1 0x4 CALLDATASIZE LT PUSH2 0x8E JUMPI PUSH1 0x0 CALLDATALOAD PUSH1 0xE0 SHR DUP1 PUSH4 0x761C8B9 EQ PUSH2 0x93 JUMPI DUP1 PUSH4 0x2599D6D0 EQ PUSH2 0xAF JUMPI DUP1 PUSH4 0x72F0D72B EQ PUSH2 0xDB JUMPI DUP1 PUSH4 0x7F89128F EQ PUSH2 0x107 JUMPI DUP1 PUSH4 0x8E4F8C6B EQ PUSH2 0x11C JUMPI DUP1 PUSH4 0x948942AD EQ PUSH2 0x12F JUMPI DUP1 PUSH4 0x99067EDE EQ PUSH2 0x138 JUMPI DUP1 PUSH4 0xB06CDC12 EQ PUSH2 0x153 JUMPI DUP1 PUSH4 0xC10E3911 EQ PUSH2 0x17F JUMPI DUP1 PUSH4 0xFC837259 EQ PUSH2 0x187 JUMPI JUMPDEST PUSH1 0x0 DUP1 REVERT JUMPDEST PUSH2 0x9C PUSH1 0x2 SLOAD DUP2 JUMP JUMPDEST PUSH1 0x40 MLOAD SWAP1 DUP2 MSTORE PUSH1 0x20 ADD JUMPDEST PUSH1 0x40 MLOAD DUP1 SWAP2 SUB SWAP1 RETURN JUMPDEST PUSH2 0x9C PUSH2 0xBD CALLDATASIZE PUSH1 0x4 PUSH2 0x482 JUMP JUMPDEST PUSH1 0x1 PUSH1 0x1 PUSH1 0xA0 SHL SUB AND PUSH1 0x0 SWAP1 DUP2 MSTORE PUSH1 0x20 DUP2 SWAP1 MSTORE PUSH1 0x40 SWAP1 KECCAK256 PUSH1 0x4 ADD SLOAD SWAP1 JUMP JUMPDEST PUSH2 0x9C PUSH2 0xE9 CALLDATASIZE PUSH1 0x4 PUSH2 0x482 JUMP JUMPDEST PUSH1 0x1 PUSH1 0x1 PUSH1 0xA0 SHL SUB AND PUSH1 0x0 SWAP1 DUP2 MSTORE PUSH1 0x20 DUP2 SWAP1 MSTORE PUSH1 0x40 SWAP1 KECCAK256 PUSH1 0x6 ADD SLOAD SWAP1 JUMP JUMPDEST PUSH2 0x10F PUSH2 0x1AD JUMP JUMPDEST PUSH1 0x40 MLOAD PUSH2 0xA6 SWAP2 SWAP1 PUSH2 0x57E JUMP JUMPDEST PUSH2 0x9C PUSH2 0x12A CALLDATASIZE PUSH1 0x4 PUSH2 0x4B2 JUMP JUMPDEST PUSH2 0x278 JUMP JUMPDEST PUSH2 0x9C PUSH1 0x3 SLOAD DUP2 JUMP JUMPDEST PUSH2 0x9C PUSH2 0x146 CALLDATASIZE PUSH1 0x4 PUSH2 0x482 JUMP JUMPDEST PUSH1 0x1 PUSH1 0x1 PUSH1 0xA0 SHL SUB AND BALANCE SWAP1 JUMP JUMPDEST PUSH2 0x9C PUSH2 0x161 CALLDATASIZE PUSH1 0x4 PUSH2 0x482 JUMP JUMPDEST PUSH1 0x1 PUSH1 0x1 PUSH1 0xA0 SHL SUB AND PUSH1 0x0 SWAP1 DUP2 MSTORE PUSH1 0x20 DUP2 SWAP1 MSTORE PUSH1 0x40 SWAP1 KECCAK256 PUSH1 0x5 ADD SLOAD SWAP1 JUMP JUMPDEST PUSH2 0x10F PUSH2 0x2A8 JUMP JUMPDEST PUSH2 0x19A PUSH2 0x195 CALLDATASIZE PUSH1 0x4 PUSH2 0x482 JUMP JUMPDEST PUSH2 0x3BB JUMP JUMPDEST PUSH1 0x40 MLOAD PUSH2 0xA6 SWAP8 SWAP7 SWAP6 SWAP5 SWAP4 SWAP3 SWAP2 SWAP1 PUSH2 0x5CB JUMP JUMPDEST PUSH1 0x60 PUSH1 0x0 CALLER PUSH1 0x0 SWAP1 DUP2 MSTORE PUSH1 0x20 DUP2 SWAP1 MSTORE PUSH1 0x40 SWAP1 KECCAK256 SLOAD PUSH1 0xFF AND PUSH1 0x4 DUP2 GT ISZERO PUSH2 0x1D5 JUMPI PUSH2 0x1D5 PUSH2 0x6B2 JUMP JUMPDEST EQ PUSH2 0x218 JUMPI PUSH1 0x40 MLOAD PUSH3 0x461BCD PUSH1 0xE5 SHL DUP2 MSTORE PUSH1 0x20 PUSH1 0x4 DUP3 ADD MSTORE PUSH1 0xE PUSH1 0x24 DUP3 ADD MSTORE PUSH14 0x2CB7BAB9103737BA1030B236B4B7 PUSH1 0x91 SHL PUSH1 0x44 DUP3 ADD MSTORE PUSH1 0x64 ADD JUMPDEST PUSH1 0x40 MLOAD DUP1 SWAP2 SUB SWAP1 REVERT JUMPDEST PUSH1 0x8 DUP1 SLOAD DUP1 PUSH1 0x20 MUL PUSH1 0x20 ADD PUSH1 0x40 MLOAD SWAP1 DUP2 ADD PUSH1 0x40 MSTORE DUP1 SWAP3 SWAP2 SWAP1 DUP2 DUP2 MSTORE PUSH1 0x20 ADD DUP3 DUP1 SLOAD DUP1 ISZERO PUSH2 0x26E JUMPI PUSH1 0x20 MUL DUP3 ADD SWAP2 SWAP1 PUSH1 0x0 MSTORE PUSH1 0x20 PUSH1 0x0 KECCAK256 SWAP1 JUMPDEST DUP2 SLOAD PUSH1 0x1 PUSH1 0x1 PUSH1 0xA0 SHL SUB AND DUP2 MSTORE PUSH1 0x1 SWAP1 SWAP2 ADD SWAP1 PUSH1 0x20 ADD DUP1 DUP4 GT PUSH2 0x250 JUMPI JUMPDEST POP POP POP POP POP SWAP1 POP SWAP1 JUMP JUMPDEST PUSH1 0x0 DUP2 PUSH1 0x40 MLOAD PUSH1 0x20 ADD PUSH2 0x28B SWAP2 SWAP1 PUSH2 0x562 JUMP JUMPDEST PUSH1 0x40 MLOAD PUSH1 0x20 DUP2 DUP4 SUB SUB DUP2 MSTORE SWAP1 PUSH1 0x40 MSTORE DUP1 MLOAD SWAP1 PUSH1 0x20 ADD KECCAK256 SWAP1 POP SWAP2 SWAP1 POP JUMP JUMPDEST PUSH1 0x60 PUSH1 0x0 CALLER PUSH1 0x0 SWAP1 DUP2 MSTORE PUSH1 0x20 DUP2 SWAP1 MSTORE PUSH1 0x40 SWAP1 KECCAK256 SLOAD PUSH1 0xFF AND PUSH1 0x4 DUP2 GT ISZERO PUSH2 0x2D0 JUMPI PUSH2 0x2D0 PUSH2 0x6B2 JUMP JUMPDEST EQ DUP1 PUSH2 0x2FF JUMPI POP PUSH1 0x2 CALLER PUSH1 0x0 SWAP1 DUP2 MSTORE PUSH1 0x20 DUP2 SWAP1 MSTORE PUSH1 0x40 SWAP1 KECCAK256 SLOAD PUSH1 0xFF AND PUSH1 0x4 DUP2 GT ISZERO PUSH2 0x2FD JUMPI PUSH2 0x2FD PUSH2 0x6B2 JUMP JUMPDEST EQ JUMPDEST PUSH2 0x35D JUMPI PUSH1 0x40 MLOAD PUSH3 0x461BCD PUSH1 0xE5 SHL DUP2 MSTORE PUSH1 0x20 PUSH1 0x4 DUP3 ADD MSTORE PUSH1 0x29 PUSH1 0x24 DUP3 ADD MSTORE PUSH32 0x596F7520617265206E6F7420746865206F776E6572206F722070726976617465 PUSH1 0x44 DUP3 ADD MSTORE PUSH9 0x10383937BB34B232B9 PUSH1 0xB9 SHL PUSH1 0x64 DUP3 ADD MSTORE PUSH1 0x84 ADD PUSH2 0x20F JUMP JUMPDEST PUSH1 0x7 DUP1 SLOAD DUP1 PUSH1 0x20 MUL PUSH1 0x20 ADD PUSH1 0x40 MLOAD SWAP1 DUP2 ADD PUSH1 0x40 MSTORE DUP1 SWAP3 SWAP2 SWAP1 DUP2 DUP2 MSTORE PUSH1 0x20 ADD DUP3 DUP1 SLOAD DUP1 ISZERO PUSH2 0x26E JUMPI PUSH1 0x20 MUL DUP3 ADD SWAP2 SWAP1 PUSH1 0x0 MSTORE PUSH1 0x20 PUSH1 0x0 KECCAK256 SWAP1 DUP2 SLOAD PUSH1 0x1 PUSH1 0x1 PUSH1 0xA0 SHL SUB AND DUP2 MSTORE PUSH1 0x1 SWAP1 SWAP2 ADD SWAP1 PUSH1 0x20 ADD DUP1 DUP4 GT PUSH2 0x250 JUMPI POP POP POP POP POP SWAP1 POP SWAP1 JUMP JUMPDEST PUSH1 0x0 PUSH1 0x20 DUP2 SWAP1 MSTORE SWAP1 DUP2 MSTORE PUSH1 0x40 SWAP1 KECCAK256 DUP1 SLOAD PUSH1 0x1 DUP3 ADD DUP1 SLOAD PUSH1 0xFF SWAP1 SWAP3 AND SWAP3 SWAP2 PUSH2 0x3E1 SWAP1 PUSH2 0x677 JUMP JUMPDEST DUP1 PUSH1 0x1F ADD PUSH1 0x20 DUP1 SWAP2 DIV MUL PUSH1 0x20 ADD PUSH1 0x40 MLOAD SWAP1 DUP2 ADD PUSH1 0x40 MSTORE DUP1 SWAP3 SWAP2 SWAP1 DUP2 DUP2 MSTORE PUSH1 0x20 ADD DUP3 DUP1 SLOAD PUSH2 0x40D SWAP1 PUSH2 0x677 JUMP JUMPDEST DUP1 ISZERO PUSH2 0x45A JUMPI DUP1 PUSH1 0x1F LT PUSH2 0x42F JUMPI PUSH2 0x100 DUP1 DUP4 SLOAD DIV MUL DUP4 MSTORE SWAP2 PUSH1 0x20 ADD SWAP2 PUSH2 0x45A JUMP JUMPDEST DUP3 ADD SWAP2 SWAP1 PUSH1 0x0 MSTORE PUSH1 0x20 PUSH1 0x0 KECCAK256 SWAP1 JUMPDEST DUP2 SLOAD DUP2 MSTORE SWAP1 PUSH1 0x1 ADD SWAP1 PUSH1 0x20 ADD DUP1 DUP4 GT PUSH2 0x43D JUMPI DUP3 SWAP1 SUB PUSH1 0x1F AND DUP3 ADD SWAP2 JUMPDEST POP POP POP POP POP SWAP1 DUP1 PUSH1 0x2 ADD SLOAD SWAP1 DUP1 PUSH1 0x3 ADD SLOAD SWAP1 DUP1 PUSH1 0x4 ADD SLOAD SWAP1 DUP1 PUSH1 0x5 ADD SLOAD SWAP1 DUP1 PUSH1 0x6 ADD SLOAD SWAP1 POP DUP8 JUMP JUMPDEST PUSH1 0x0 PUSH1 0x20 DUP3 DUP5 SUB SLT ISZERO PUSH2 0x494 JUMPI PUSH1 0x0 DUP1 REVERT JUMPDEST DUP2 CALLDATALOAD PUSH1 0x1 PUSH1 0x1 PUSH1 0xA0 SHL SUB DUP2 AND DUP2 EQ PUSH2 0x4AB JUMPI PUSH1 0x0 DUP1 REVERT JUMPDEST SWAP4 SWAP3 POP POP POP JUMP JUMPDEST PUSH1 0x0 PUSH1 0x20 DUP3 DUP5 SUB SLT ISZERO PUSH2 0x4C4 JUMPI PUSH1 0x0 DUP1 REVERT JUMPDEST DUP2 CALLDATALOAD PUSH1 0x1 PUSH1 0x1 PUSH1 0x40 SHL SUB DUP1 DUP3 GT ISZERO PUSH2 0x4DB JUMPI PUSH1 0x0 DUP1 REVERT JUMPDEST DUP2 DUP5 ADD SWAP2 POP DUP5 PUSH1 0x1F DUP4 ADD SLT PUSH2 0x4EF JUMPI PUSH1 0x0 DUP1 REVERT JUMPDEST DUP2 CALLDATALOAD DUP2 DUP2 GT ISZERO PUSH2 0x501 JUMPI PUSH2 0x501 PUSH2 0x6C8 JUMP JUMPDEST PUSH1 0x40 MLOAD PUSH1 0x1F DUP3 ADD PUSH1 0x1F NOT SWAP1 DUP2 AND PUSH1 0x3F ADD AND DUP2 ADD SWAP1 DUP4 DUP3 GT DUP2 DUP4 LT OR ISZERO PUSH2 0x529 JUMPI PUSH2 0x529 PUSH2 0x6C8 JUMP JUMPDEST DUP2 PUSH1 0x40 MSTORE DUP3 DUP2 MSTORE DUP8 PUSH1 0x20 DUP5 DUP8 ADD ADD GT ISZERO PUSH2 0x542 JUMPI PUSH1 0x0 DUP1 REVERT JUMPDEST DUP3 PUSH1 0x20 DUP7 ADD PUSH1 0x20 DUP4 ADD CALLDATACOPY PUSH1 0x0 SWAP3 DUP2 ADD PUSH1 0x20 ADD SWAP3 SWAP1 SWAP3 MSTORE POP SWAP6 SWAP5 POP POP POP POP POP JUMP JUMPDEST PUSH1 0x0 DUP3 MLOAD PUSH2 0x574 DUP2 DUP5 PUSH1 0x20 DUP8 ADD PUSH2 0x647 JUMP JUMPDEST SWAP2 SWAP1 SWAP2 ADD SWAP3 SWAP2 POP POP JUMP JUMPDEST PUSH1 0x20 DUP1 DUP3 MSTORE DUP3 MLOAD DUP3 DUP3 ADD DUP2 SWAP1 MSTORE PUSH1 0x0 SWAP2 SWAP1 DUP5 DUP3 ADD SWAP1 PUSH1 0x40 DUP6 ADD SWAP1 DUP5 JUMPDEST DUP2 DUP2 LT ISZERO PUSH2 0x5BF JUMPI DUP4 MLOAD PUSH1 0x1 PUSH1 0x1 PUSH1 0xA0 SHL SUB AND DUP4 MSTORE SWAP3 DUP5 ADD SWAP3 SWAP2 DUP5 ADD SWAP2 PUSH1 0x1 ADD PUSH2 0x59A JUMP JUMPDEST POP SWAP1 SWAP7 SWAP6 POP POP POP POP POP POP JUMP JUMPDEST PUSH1 0x0 PUSH1 0x5 DUP10 LT PUSH2 0x5EB JUMPI PUSH4 0x4E487B71 PUSH1 0xE0 SHL PUSH1 0x0 MSTORE PUSH1 0x21 PUSH1 0x4 MSTORE PUSH1 0x24 PUSH1 0x0 REVERT JUMPDEST DUP9 DUP3 MSTORE PUSH1 0xE0 PUSH1 0x20 DUP4 ADD MSTORE DUP8 MLOAD DUP1 PUSH1 0xE0 DUP5 ADD MSTORE PUSH2 0x100 PUSH2 0x610 DUP3 DUP3 DUP7 ADD PUSH1 0x20 DUP14 ADD PUSH2 0x647 JUMP JUMPDEST PUSH1 0x40 DUP5 ADD SWAP9 SWAP1 SWAP9 MSTORE PUSH1 0x60 DUP4 ADD SWAP7 SWAP1 SWAP7 MSTORE POP PUSH1 0x80 DUP2 ADD SWAP4 SWAP1 SWAP4 MSTORE PUSH1 0xA0 DUP4 ADD SWAP2 SWAP1 SWAP2 MSTORE PUSH1 0xC0 DUP3 ADD MSTORE PUSH1 0x1F SWAP1 SWAP2 ADD PUSH1 0x1F NOT AND ADD ADD SWAP3 SWAP2 POP POP JUMP JUMPDEST PUSH1 0x0 JUMPDEST DUP4 DUP2 LT ISZERO PUSH2 0x662 JUMPI DUP2 DUP2 ADD MLOAD DUP4 DUP3 ADD MSTORE PUSH1 0x20 ADD PUSH2 0x64A JUMP JUMPDEST DUP4 DUP2 GT ISZERO PUSH2 0x671 JUMPI PUSH1 0x0 DUP5 DUP5 ADD MSTORE JUMPDEST POP POP POP POP JUMP JUMPDEST PUSH1 0x1 DUP2 DUP2 SHR SWAP1 DUP3 AND DUP1 PUSH2 0x68B JUMPI PUSH1 0x7F DUP3 AND SWAP2 POP JUMPDEST PUSH1 0x20 DUP3 LT DUP2 EQ ISZERO PUSH2 0x6AC JUMPI PUSH4 0x4E487B71 PUSH1 0xE0 SHL PUSH1 0x0 MSTORE PUSH1 0x22 PUSH1 0x4 MSTORE PUSH1 0x24 PUSH1 0x0 REVERT JUMPDEST POP SWAP2 SWAP1 POP JUMP JUMPDEST PUSH4 0x4E487B71 PUSH1 0xE0 SHL PUSH1 0x0 MSTORE PUSH1 0x21 PUSH1 0x4 MSTORE PUSH1 0x24 PUSH1 0x0 REVERT JUMPDEST PUSH4 0x4E487B71 PUSH1 0xE0 SHL PUSH1 0x0 MSTORE PUSH1 0x41 PUSH1 0x4 MSTORE PUSH1 0x24 PUSH1 0x0 REVERT INVALID LOG2 PUSH5 0x6970667358 0x22 SLT KECCAK256 SWAP2 ISZERO 0xDE MUL 0xC9 BALANCE PUSH9 0xA6A60F1DBD878A07C1 0xAF 0xD 0xC5 PUSH7 0xD089B8AB11D852 SWAP5 0xF8 PUSH13 0x2AAF64736F6C63430008070033 "
				},
				"gasEstimates": {
					"creation": {
						"codeDepositCost": "362400",
						"executionCost": "44611",
						"totalCost": "407011"
					},
					"external": {
						"getBalanceEth(address)": "3032",
						"getBalancePrivateToken(address)": "2632",
						"getBalancePublicToken(address)": "2522",
						"getBalanceSeedToken(address)": "2500",
						"get_blackList()": "infinite",
						"get_keccak256(string)": "infinite",
						"get_whiteList()": "infinite",
						"structUsers_(address)": "infinite",
						"tokenAmount_()": "2372",
						"tokenPrice_()": "2262"
					},
					"internal": {
						"validateOwner()": "infinite"
					}
				},
				"methodIdentifiers": {
					"getBalanceEth(address)": "99067ede",
					"getBalancePrivateToken(address)": "b06cdc12",
					"getBalancePublicToken(address)": "72f0d72b",
					"getBalanceSeedToken(address)": "2599d6d0",
					"get_blackList()": "7f89128f",
					"get_keccak256(string)": "8e4f8c6b",
					"get_whiteList()": "c10e3911",
					"structUsers_(address)": "fc837259",
					"tokenAmount_()": "948942ad",
					"tokenPrice_()": "0761c8b9"
				}
			},
			"storageLayout": {
				"storage": [
					{
						"astId": 580,
						"contract": "GitHub/contract-token-cryptoMonster/backend/shared/helpers/validateFuncs.sol:validateFuncs",
						"label": "structUsers_",
						"offset": 0,
						"slot": "0",
						"type": "t_mapping(t_address,t_struct(structUser)575_storage)"
					},
					{
						"astId": 586,
						"contract": "GitHub/contract-token-cryptoMonster/backend/shared/helpers/validateFuncs.sol:validateFuncs",
						"label": "allowed",
						"offset": 0,
						"slot": "1",
						"type": "t_mapping(t_address,t_mapping(t_address,t_uint256))"
					},
					{
						"astId": 589,
						"contract": "GitHub/contract-token-cryptoMonster/backend/shared/helpers/validateFuncs.sol:validateFuncs",
						"label": "tokenPrice_",
						"offset": 0,
						"slot": "2",
						"type": "t_uint256"
					},
					{
						"astId": 592,
						"contract": "GitHub/contract-token-cryptoMonster/backend/shared/helpers/validateFuncs.sol:validateFuncs",
						"label": "tokenAmount_",
						"offset": 0,
						"slot": "3",
						"type": "t_uint256"
					},
					{
						"astId": 611,
						"contract": "GitHub/contract-token-cryptoMonster/backend/shared/helpers/validateFuncs.sol:validateFuncs",
						"label": "structPhases_",
						"offset": 0,
						"slot": "4",
						"type": "t_mapping(t_address,t_struct(structPhase)606_storage)"
					},
					{
						"astId": 629,
						"contract": "GitHub/contract-token-cryptoMonster/backend/shared/helpers/validateFuncs.sol:validateFuncs",
						"label": "strucApplications_",
						"offset": 0,
						"slot": "5",
						"type": "t_mapping(t_address,t_struct(structApplication)624_storage)"
					},
					{
						"astId": 632,
						"contract": "GitHub/contract-token-cryptoMonster/backend/shared/helpers/validateFuncs.sol:validateFuncs",
						"label": "structApplicationsAmountAdr",
						"offset": 0,
						"slot": "6",
						"type": "t_array(t_address)dyn_storage"
					},
					{
						"astId": 635,
						"contract": "GitHub/contract-token-cryptoMonster/backend/shared/helpers/validateFuncs.sol:validateFuncs",
						"label": "whiteList",
						"offset": 0,
						"slot": "7",
						"type": "t_array(t_address)dyn_storage"
					},
					{
						"astId": 638,
						"contract": "GitHub/contract-token-cryptoMonster/backend/shared/helpers/validateFuncs.sol:validateFuncs",
						"label": "blackList",
						"offset": 0,
						"slot": "8",
						"type": "t_array(t_address)dyn_storage"
					}
				],
				"types": {
					"t_address": {
						"encoding": "inplace",
						"label": "address",
						"numberOfBytes": "20"
					},
					"t_array(t_address)dyn_storage": {
						"base": "t_address",
						"encoding": "dynamic_array",
						"label": "address[]",
						"numberOfBytes": "32"
					},
					"t_bool": {
						"encoding": "inplace",
						"label": "bool",
						"numberOfBytes": "1"
					},
					"t_bytes32": {
						"encoding": "inplace",
						"label": "bytes32",
						"numberOfBytes": "32"
					},
					"t_enum(Role)559": {
						"encoding": "inplace",
						"label": "enum structures.Role",
						"numberOfBytes": "1"
					},
					"t_mapping(t_address,t_mapping(t_address,t_uint256))": {
						"encoding": "mapping",
						"key": "t_address",
						"label": "mapping(address => mapping(address => uint256))",
						"numberOfBytes": "32",
						"value": "t_mapping(t_address,t_uint256)"
					},
					"t_mapping(t_address,t_struct(structApplication)624_storage)": {
						"encoding": "mapping",
						"key": "t_address",
						"label": "mapping(address => struct structures.structApplication)",
						"numberOfBytes": "32",
						"value": "t_struct(structApplication)624_storage"
					},
					"t_mapping(t_address,t_struct(structPhase)606_storage)": {
						"encoding": "mapping",
						"key": "t_address",
						"label": "mapping(address => struct structures.structPhase)",
						"numberOfBytes": "32",
						"value": "t_struct(structPhase)606_storage"
					},
					"t_mapping(t_address,t_struct(structUser)575_storage)": {
						"encoding": "mapping",
						"key": "t_address",
						"label": "mapping(address => struct structures.structUser)",
						"numberOfBytes": "32",
						"value": "t_struct(structUser)575_storage"
					},
					"t_mapping(t_address,t_uint256)": {
						"encoding": "mapping",
						"key": "t_address",
						"label": "mapping(address => uint256)",
						"numberOfBytes": "32",
						"value": "t_uint256"
					},
					"t_string_storage": {
						"encoding": "bytes",
						"label": "string",
						"numberOfBytes": "32"
					},
					"t_struct(structApplication)624_storage": {
						"encoding": "inplace",
						"label": "struct structures.structApplication",
						"members": [
							{
								"astId": 613,
								"contract": "GitHub/contract-token-cryptoMonster/backend/shared/helpers/validateFuncs.sol:validateFuncs",
								"label": "name",
								"offset": 0,
								"slot": "0",
								"type": "t_string_storage"
							},
							{
								"astId": 615,
								"contract": "GitHub/contract-token-cryptoMonster/backend/shared/helpers/validateFuncs.sol:validateFuncs",
								"label": "contactForCommunication",
								"offset": 0,
								"slot": "1",
								"type": "t_string_storage"
							},
							{
								"astId": 617,
								"contract": "GitHub/contract-token-cryptoMonster/backend/shared/helpers/validateFuncs.sol:validateFuncs",
								"label": "userAdr",
								"offset": 0,
								"slot": "2",
								"type": "t_address"
							},
							{
								"astId": 619,
								"contract": "GitHub/contract-token-cryptoMonster/backend/shared/helpers/validateFuncs.sol:validateFuncs",
								"label": "status",
								"offset": 20,
								"slot": "2",
								"type": "t_bool"
							},
							{
								"astId": 621,
								"contract": "GitHub/contract-token-cryptoMonster/backend/shared/helpers/validateFuncs.sol:validateFuncs",
								"label": "reviewed",
								"offset": 21,
								"slot": "2",
								"type": "t_bool"
							},
							{
								"astId": 623,
								"contract": "GitHub/contract-token-cryptoMonster/backend/shared/helpers/validateFuncs.sol:validateFuncs",
								"label": "exist",
								"offset": 22,
								"slot": "2",
								"type": "t_bool"
							}
						],
						"numberOfBytes": "96"
					},
					"t_struct(structPhase)606_storage": {
						"encoding": "inplace",
						"label": "struct structures.structPhase",
						"members": [
							{
								"astId": 603,
								"contract": "GitHub/contract-token-cryptoMonster/backend/shared/helpers/validateFuncs.sol:validateFuncs",
								"label": "statusPhase",
								"offset": 0,
								"slot": "0",
								"type": "t_bool"
							},
							{
								"astId": 605,
								"contract": "GitHub/contract-token-cryptoMonster/backend/shared/helpers/validateFuncs.sol:validateFuncs",
								"label": "reviewed",
								"offset": 1,
								"slot": "0",
								"type": "t_bool"
							}
						],
						"numberOfBytes": "32"
					},
					"t_struct(structUser)575_storage": {
						"encoding": "inplace",
						"label": "struct structures.structUser",
						"members": [
							{
								"astId": 562,
								"contract": "GitHub/contract-token-cryptoMonster/backend/shared/helpers/validateFuncs.sol:validateFuncs",
								"label": "role",
								"offset": 0,
								"slot": "0",
								"type": "t_enum(Role)559"
							},
							{
								"astId": 564,
								"contract": "GitHub/contract-token-cryptoMonster/backend/shared/helpers/validateFuncs.sol:validateFuncs",
								"label": "login",
								"offset": 0,
								"slot": "1",
								"type": "t_string_storage"
							},
							{
								"astId": 566,
								"contract": "GitHub/contract-token-cryptoMonster/backend/shared/helpers/validateFuncs.sol:validateFuncs",
								"label": "password",
								"offset": 0,
								"slot": "2",
								"type": "t_bytes32"
							},
							{
								"astId": 568,
								"contract": "GitHub/contract-token-cryptoMonster/backend/shared/helpers/validateFuncs.sol:validateFuncs",
								"label": "balance_overall",
								"offset": 0,
								"slot": "3",
								"type": "t_uint256"
							},
							{
								"astId": 570,
								"contract": "GitHub/contract-token-cryptoMonster/backend/shared/helpers/validateFuncs.sol:validateFuncs",
								"label": "balance_seed",
								"offset": 0,
								"slot": "4",
								"type": "t_uint256"
							},
							{
								"astId": 572,
								"contract": "GitHub/contract-token-cryptoMonster/backend/shared/helpers/validateFuncs.sol:validateFuncs",
								"label": "balance_private",
								"offset": 0,
								"slot": "5",
								"type": "t_uint256"
							},
							{
								"astId": 574,
								"contract": "GitHub/contract-token-cryptoMonster/backend/shared/helpers/validateFuncs.sol:validateFuncs",
								"label": "balance_public",
								"offset": 0,
								"slot": "6",
								"type": "t_uint256"
							}
						],
						"numberOfBytes": "224"
					},
					"t_uint256": {
						"encoding": "inplace",
						"label": "uint256",
						"numberOfBytes": "32"
					}
				}
			},
			"userdoc": {
				"kind": "user",
				"methods": {},
				"version": 1
			}
		}
	}
}