{
	"Documents/GitHub/contract-token-cryptoMonster/backend/components/Seed.sol": {
		"Seed": {
			"abi": [
				{
					"inputs": [],
					"stateMutability": "nonpayable",
					"type": "constructor"
				},
				{
					"inputs": [
						{
							"internalType": "string",
							"name": "_password",
							"type": "string"
						}
					],
					"name": "get_hash",
					"outputs": [
						{
							"internalType": "bytes32",
							"name": "",
							"type": "bytes32"
						}
					],
					"stateMutability": "pure",
					"type": "function"
				}
			],
			"devdoc": {
				"kind": "dev",
				"methods": {},
				"version": 1
			},
			"evm": {
				"assembly": "    /* \"Documents/GitHub/contract-token-cryptoMonster/backend/components/Seed.sol\":127:973  contract Seed is Main {\r... */\n  mstore(0x40, 0x80)\n    /* \"Documents/GitHub/contract-token-cryptoMonster/backend/components/Seed.sol\":156:970  constructor() {\r... */\n  callvalue\n  dup1\n  iszero\n  tag_1\n  jumpi\n  0x00\n  dup1\n  revert\ntag_1:\n  pop\n    /* \"Documents/GitHub/contract-token-cryptoMonster/backend/components/Seed.sol\":317:341  address investorFirstAdr */\n  0x00\n    /* \"Documents/GitHub/contract-token-cryptoMonster/backend/components/Seed.sol\":344:386  0x78731D3Ca6b7E34aC0F824c42a7cC18A495cabaB */\n  0x78731d3ca6b7e34ac0f824c42a7cc18a495cabab\n    /* \"Documents/GitHub/contract-token-cryptoMonster/backend/components/Seed.sol\":317:386  address investorFirstAdr = 0x78731D3Ca6b7E34aC0F824c42a7cC18A495cabaB */\n  swap1\n  pop\n    /* \"Documents/GitHub/contract-token-cryptoMonster/backend/components/Seed.sol\":411:436  address investorSecondAdr */\n  0x00\n    /* \"Documents/GitHub/contract-token-cryptoMonster/backend/components/Seed.sol\":439:481  0x617F2E2fD72FD9D5503197092aC168c91465E7f2 */\n  0x617f2e2fd72fd9d5503197092ac168c91465e7f2\n    /* \"Documents/GitHub/contract-token-cryptoMonster/backend/components/Seed.sol\":411:481  address investorSecondAdr = 0x617F2E2fD72FD9D5503197092aC168c91465E7f2 */\n  swap1\n  pop\n    /* \"Documents/GitHub/contract-token-cryptoMonster/backend/components/Seed.sol\":505:526  address bestFriendAdr */\n  0x00\n    /* \"Documents/GitHub/contract-token-cryptoMonster/backend/components/Seed.sol\":529:571  0x17F6AD8Ef982297579C203069C1DbfFE4348c372 */\n  0x17f6ad8ef982297579c203069c1dbffe4348c372\n    /* \"Documents/GitHub/contract-token-cryptoMonster/backend/components/Seed.sol\":505:571  address bestFriendAdr = 0x17F6AD8Ef982297579C203069C1DbfFE4348c372 */\n  swap1\n  pop\n    /* \"Documents/GitHub/contract-token-cryptoMonster/backend/components/Seed.sol\":635:680  structUser(\"owner\", get_hash(\"3412\"), 600000) */\n  mload(0x40)\n  dup1\n  0x60\n  add\n  0x40\n  mstore\n  dup1\n  mload(0x40)\n  dup1\n  0x40\n  add\n  0x40\n  mstore\n  dup1\n  0x05\n  dup2\n  mstore\n  0x20\n  add\n  0x6f776e6572000000000000000000000000000000000000000000000000000000\n  dup2\n  mstore\n  pop\n  dup2\n  mstore\n  0x20\n  add\n    /* \"Documents/GitHub/contract-token-cryptoMonster/backend/components/Seed.sol\":655:671  get_hash(\"3412\") */\n  tag_4\n  mload(0x40)\n  dup1\n  0x40\n  add\n  0x40\n  mstore\n  dup1\n  0x04\n  dup2\n  mstore\n  0x20\n  add\n  0x3334313200000000000000000000000000000000000000000000000000000000\n  dup2\n  mstore\n  pop\n    /* \"Documents/GitHub/contract-token-cryptoMonster/backend/components/Seed.sol\":655:663  get_hash */\n  shl(0x20, tag_5)\n    /* \"Documents/GitHub/contract-token-cryptoMonster/backend/components/Seed.sol\":655:671  get_hash(\"3412\") */\n  0x20\n  shr\n  jump\t// in\ntag_4:\n    /* \"Documents/GitHub/contract-token-cryptoMonster/backend/components/Seed.sol\":635:680  structUser(\"owner\", get_hash(\"3412\"), 600000) */\n  dup2\n  mstore\n  0x20\n  add\n    /* \"Documents/GitHub/contract-token-cryptoMonster/backend/components/Seed.sol\":673:679  600000 */\n  0x0927c0\n    /* \"Documents/GitHub/contract-token-cryptoMonster/backend/components/Seed.sol\":635:680  structUser(\"owner\", get_hash(\"3412\"), 600000) */\n  dup2\n  mstore\n  pop\n    /* \"Documents/GitHub/contract-token-cryptoMonster/backend/components/Seed.sol\":603:614  structUser_ */\n  0x00\n    /* \"Documents/GitHub/contract-token-cryptoMonster/backend/components/Seed.sol\":603:632  structUser_[investorFirstAdr] */\n  dup1\n    /* \"Documents/GitHub/contract-token-cryptoMonster/backend/components/Seed.sol\":615:631  investorFirstAdr */\n  dup6\n    /* \"Documents/GitHub/contract-token-cryptoMonster/backend/components/Seed.sol\":603:632  structUser_[investorFirstAdr] */\n  0xffffffffffffffffffffffffffffffffffffffff\n  and\n  0xffffffffffffffffffffffffffffffffffffffff\n  and\n  dup2\n  mstore\n  0x20\n  add\n  swap1\n  dup2\n  mstore\n  0x20\n  add\n  0x00\n  keccak256\n    /* \"Documents/GitHub/contract-token-cryptoMonster/backend/components/Seed.sol\":603:680  structUser_[investorFirstAdr] = structUser(\"owner\", get_hash(\"3412\"), 600000) */\n  0x00\n  dup3\n  add\n  mload\n  dup2\n  0x00\n  add\n  swap1\n  dup1\n  mload\n  swap1\n  0x20\n  add\n  swap1\n  tag_6\n  swap3\n  swap2\n  swap1\n  tag_7\n  jump\t// in\ntag_6:\n  pop\n  0x20\n  dup3\n  add\n  mload\n  dup2\n  0x01\n  add\n  sstore\n  0x40\n  dup3\n  add\n  mload\n  dup2\n  0x02\n  add\n  sstore\n  swap1\n  pop\n  pop\n    /* \"Documents/GitHub/contract-token-cryptoMonster/backend/components/Seed.sol\":759:815  structUser(\"Private provider\", get_hash(\"1423\"), 800000) */\n  mload(0x40)\n  dup1\n  0x60\n  add\n  0x40\n  mstore\n  dup1\n  mload(0x40)\n  dup1\n  0x40\n  add\n  0x40\n  mstore\n  dup1\n  0x10\n  dup2\n  mstore\n  0x20\n  add\n  0x507269766174652070726f766964657200000000000000000000000000000000\n  dup2\n  mstore\n  pop\n  dup2\n  mstore\n  0x20\n  add\n    /* \"Documents/GitHub/contract-token-cryptoMonster/backend/components/Seed.sol\":790:806  get_hash(\"1423\") */\n  tag_8\n  mload(0x40)\n  dup1\n  0x40\n  add\n  0x40\n  mstore\n  dup1\n  0x04\n  dup2\n  mstore\n  0x20\n  add\n  0x3134323300000000000000000000000000000000000000000000000000000000\n  dup2\n  mstore\n  pop\n    /* \"Documents/GitHub/contract-token-cryptoMonster/backend/components/Seed.sol\":790:798  get_hash */\n  shl(0x20, tag_5)\n    /* \"Documents/GitHub/contract-token-cryptoMonster/backend/components/Seed.sol\":790:806  get_hash(\"1423\") */\n  0x20\n  shr\n  jump\t// in\ntag_8:\n    /* \"Documents/GitHub/contract-token-cryptoMonster/backend/components/Seed.sol\":759:815  structUser(\"Private provider\", get_hash(\"1423\"), 800000) */\n  dup2\n  mstore\n  0x20\n  add\n    /* \"Documents/GitHub/contract-token-cryptoMonster/backend/components/Seed.sol\":808:814  800000 */\n  0x0c3500\n    /* \"Documents/GitHub/contract-token-cryptoMonster/backend/components/Seed.sol\":759:815  structUser(\"Private provider\", get_hash(\"1423\"), 800000) */\n  dup2\n  mstore\n  pop\n    /* \"Documents/GitHub/contract-token-cryptoMonster/backend/components/Seed.sol\":726:737  structUser_ */\n  0x00\n    /* \"Documents/GitHub/contract-token-cryptoMonster/backend/components/Seed.sol\":726:756  structUser_[investorSecondAdr] */\n  dup1\n    /* \"Documents/GitHub/contract-token-cryptoMonster/backend/components/Seed.sol\":738:755  investorSecondAdr */\n  dup5\n    /* \"Documents/GitHub/contract-token-cryptoMonster/backend/components/Seed.sol\":726:756  structUser_[investorSecondAdr] */\n  0xffffffffffffffffffffffffffffffffffffffff\n  and\n  0xffffffffffffffffffffffffffffffffffffffff\n  and\n  dup2\n  mstore\n  0x20\n  add\n  swap1\n  dup2\n  mstore\n  0x20\n  add\n  0x00\n  keccak256\n    /* \"Documents/GitHub/contract-token-cryptoMonster/backend/components/Seed.sol\":726:815  structUser_[investorSecondAdr] = structUser(\"Private provider\", get_hash(\"1423\"), 800000) */\n  0x00\n  dup3\n  add\n  mload\n  dup2\n  0x00\n  add\n  swap1\n  dup1\n  mload\n  swap1\n  0x20\n  add\n  swap1\n  tag_9\n  swap3\n  swap2\n  swap1\n  tag_7\n  jump\t// in\ntag_9:\n  pop\n  0x20\n  dup3\n  add\n  mload\n  dup2\n  0x01\n  add\n  sstore\n  0x40\n  dup3\n  add\n  mload\n  dup2\n  0x02\n  add\n  sstore\n  swap1\n  pop\n  pop\n    /* \"Documents/GitHub/contract-token-cryptoMonster/backend/components/Seed.sol\":877:932  structUser(\"Public provider\", get_hash(\"2314\"), 400000) */\n  mload(0x40)\n  dup1\n  0x60\n  add\n  0x40\n  mstore\n  dup1\n  mload(0x40)\n  dup1\n  0x40\n  add\n  0x40\n  mstore\n  dup1\n  0x0f\n  dup2\n  mstore\n  0x20\n  add\n  0x5075626c69632070726f76696465720000000000000000000000000000000000\n  dup2\n  mstore\n  pop\n  dup2\n  mstore\n  0x20\n  add\n    /* \"Documents/GitHub/contract-token-cryptoMonster/backend/components/Seed.sol\":907:923  get_hash(\"2314\") */\n  tag_10\n  mload(0x40)\n  dup1\n  0x40\n  add\n  0x40\n  mstore\n  dup1\n  0x04\n  dup2\n  mstore\n  0x20\n  add\n  0x3233313400000000000000000000000000000000000000000000000000000000\n  dup2\n  mstore\n  pop\n    /* \"Documents/GitHub/contract-token-cryptoMonster/backend/components/Seed.sol\":907:915  get_hash */\n  shl(0x20, tag_5)\n    /* \"Documents/GitHub/contract-token-cryptoMonster/backend/components/Seed.sol\":907:923  get_hash(\"2314\") */\n  0x20\n  shr\n  jump\t// in\ntag_10:\n    /* \"Documents/GitHub/contract-token-cryptoMonster/backend/components/Seed.sol\":877:932  structUser(\"Public provider\", get_hash(\"2314\"), 400000) */\n  dup2\n  mstore\n  0x20\n  add\n    /* \"Documents/GitHub/contract-token-cryptoMonster/backend/components/Seed.sol\":925:931  400000 */\n  0x061a80\n    /* \"Documents/GitHub/contract-token-cryptoMonster/backend/components/Seed.sol\":877:932  structUser(\"Public provider\", get_hash(\"2314\"), 400000) */\n  dup2\n  mstore\n  pop\n    /* \"Documents/GitHub/contract-token-cryptoMonster/backend/components/Seed.sol\":848:859  structUser_ */\n  0x00\n    /* \"Documents/GitHub/contract-token-cryptoMonster/backend/components/Seed.sol\":848:874  structUser_[bestFriendAdr] */\n  dup1\n    /* \"Documents/GitHub/contract-token-cryptoMonster/backend/components/Seed.sol\":860:873  bestFriendAdr */\n  dup4\n    /* \"Documents/GitHub/contract-token-cryptoMonster/backend/components/Seed.sol\":848:874  structUser_[bestFriendAdr] */\n  0xffffffffffffffffffffffffffffffffffffffff\n  and\n  0xffffffffffffffffffffffffffffffffffffffff\n  and\n  dup2\n  mstore\n  0x20\n  add\n  swap1\n  dup2\n  mstore\n  0x20\n  add\n  0x00\n  keccak256\n    /* \"Documents/GitHub/contract-token-cryptoMonster/backend/components/Seed.sol\":848:932  structUser_[bestFriendAdr] = structUser(\"Public provider\", get_hash(\"2314\"), 400000) */\n  0x00\n  dup3\n  add\n  mload\n  dup2\n  0x00\n  add\n  swap1\n  dup1\n  mload\n  swap1\n  0x20\n  add\n  swap1\n  tag_11\n  swap3\n  swap2\n  swap1\n  tag_7\n  jump\t// in\ntag_11:\n  pop\n  0x20\n  dup3\n  add\n  mload\n  dup2\n  0x01\n  add\n  sstore\n  0x40\n  dup3\n  add\n  mload\n  dup2\n  0x02\n  add\n  sstore\n  swap1\n  pop\n  pop\n    /* \"Documents/GitHub/contract-token-cryptoMonster/backend/components/Seed.sol\":170:970  {\r... */\n  pop\n  pop\n  pop\n    /* \"Documents/GitHub/contract-token-cryptoMonster/backend/components/Seed.sol\":127:973  contract Seed is Main {\r... */\n  jump(tag_12)\n    /* \"Documents/GitHub/contract-token-cryptoMonster/backend/shared/helpers/getFuncs.sol\":144:285  function get_hash(string memory _password) public pure returns(bytes32) {\r... */\ntag_5:\n    /* \"Documents/GitHub/contract-token-cryptoMonster/backend/shared/helpers/getFuncs.sol\":207:214  bytes32 */\n  0x00\n    /* \"Documents/GitHub/contract-token-cryptoMonster/backend/shared/helpers/getFuncs.sol\":265:274  _password */\n  dup2\n    /* \"Documents/GitHub/contract-token-cryptoMonster/backend/shared/helpers/getFuncs.sol\":248:275  abi.encodePacked(_password) */\n  add(0x20, mload(0x40))\n  tag_14\n  swap2\n  swap1\n  tag_15\n  jump\t// in\ntag_14:\n  mload(0x40)\n  0x20\n  dup2\n  dup4\n  sub\n  sub\n  dup2\n  mstore\n  swap1\n  0x40\n  mstore\n    /* \"Documents/GitHub/contract-token-cryptoMonster/backend/shared/helpers/getFuncs.sol\":238:276  keccak256(abi.encodePacked(_password)) */\n  dup1\n  mload\n  swap1\n  0x20\n  add\n  keccak256\n    /* \"Documents/GitHub/contract-token-cryptoMonster/backend/shared/helpers/getFuncs.sol\":231:277  return(keccak256(abi.encodePacked(_password))) */\n  swap1\n  pop\n    /* \"Documents/GitHub/contract-token-cryptoMonster/backend/shared/helpers/getFuncs.sol\":144:285  function get_hash(string memory _password) public pure returns(bytes32) {\r... */\n  swap2\n  swap1\n  pop\n  jump\t// out\n    /* \"Documents/GitHub/contract-token-cryptoMonster/backend/components/Seed.sol\":127:973  contract Seed is Main {\r... */\ntag_7:\n  dup3\n  dup1\n  sload\n  tag_16\n  swap1\n  tag_17\n  jump\t// in\ntag_16:\n  swap1\n  0x00\n  mstore\n  keccak256(0x00, 0x20)\n  swap1\n  0x1f\n  add\n  0x20\n  swap1\n  div\n  dup2\n  add\n  swap3\n  dup3\n  tag_19\n  jumpi\n  0x00\n  dup6\n  sstore\n  jump(tag_18)\ntag_19:\n  dup3\n  0x1f\n  lt\n  tag_20\n  jumpi\n  dup1\n  mload\n  not(0xff)\n  and\n  dup4\n  dup1\n  add\n  or\n  dup6\n  sstore\n  jump(tag_18)\ntag_20:\n  dup3\n  dup1\n  add\n  0x01\n  add\n  dup6\n  sstore\n  dup3\n  iszero\n  tag_18\n  jumpi\n  swap2\n  dup3\n  add\ntag_21:\n  dup3\n  dup2\n  gt\n  iszero\n  tag_22\n  jumpi\n  dup3\n  mload\n  dup3\n  sstore\n  swap2\n  0x20\n  add\n  swap2\n  swap1\n  0x01\n  add\n  swap1\n  jump(tag_21)\ntag_22:\ntag_18:\n  pop\n  swap1\n  pop\n  tag_23\n  swap2\n  swap1\n  tag_24\n  jump\t// in\ntag_23:\n  pop\n  swap1\n  jump\t// out\ntag_24:\ntag_25:\n  dup1\n  dup3\n  gt\n  iszero\n  tag_26\n  jumpi\n  0x00\n  dup2\n  0x00\n  swap1\n  sstore\n  pop\n  0x01\n  add\n  jump(tag_25)\ntag_26:\n  pop\n  swap1\n  jump\t// out\n    /* \"#utility.yul\":7:384   */\ntag_28:\n    /* \"#utility.yul\":113:116   */\n  0x00\n    /* \"#utility.yul\":141:180   */\n  tag_30\n    /* \"#utility.yul\":174:179   */\n  dup3\n    /* \"#utility.yul\":141:180   */\n  tag_31\n  jump\t// in\ntag_30:\n    /* \"#utility.yul\":196:285   */\n  tag_32\n    /* \"#utility.yul\":278:284   */\n  dup2\n    /* \"#utility.yul\":273:276   */\n  dup6\n    /* \"#utility.yul\":196:285   */\n  tag_33\n  jump\t// in\ntag_32:\n    /* \"#utility.yul\":189:285   */\n  swap4\n  pop\n    /* \"#utility.yul\":294:346   */\n  tag_34\n    /* \"#utility.yul\":339:345   */\n  dup2\n    /* \"#utility.yul\":334:337   */\n  dup6\n    /* \"#utility.yul\":327:331   */\n  0x20\n    /* \"#utility.yul\":320:325   */\n  dup7\n    /* \"#utility.yul\":316:332   */\n  add\n    /* \"#utility.yul\":294:346   */\n  tag_35\n  jump\t// in\ntag_34:\n    /* \"#utility.yul\":371:377   */\n  dup1\n    /* \"#utility.yul\":366:369   */\n  dup5\n    /* \"#utility.yul\":362:378   */\n  add\n    /* \"#utility.yul\":355:378   */\n  swap2\n  pop\n    /* \"#utility.yul\":117:384   */\n  pop\n    /* \"#utility.yul\":7:384   */\n  swap3\n  swap2\n  pop\n  pop\n  jump\t// out\n    /* \"#utility.yul\":390:665   */\ntag_15:\n    /* \"#utility.yul\":522:525   */\n  0x00\n    /* \"#utility.yul\":544:639   */\n  tag_37\n    /* \"#utility.yul\":635:638   */\n  dup3\n    /* \"#utility.yul\":626:632   */\n  dup5\n    /* \"#utility.yul\":544:639   */\n  tag_28\n  jump\t// in\ntag_37:\n    /* \"#utility.yul\":537:639   */\n  swap2\n  pop\n    /* \"#utility.yul\":656:659   */\n  dup2\n    /* \"#utility.yul\":649:659   */\n  swap1\n  pop\n    /* \"#utility.yul\":390:665   */\n  swap3\n  swap2\n  pop\n  pop\n  jump\t// out\n    /* \"#utility.yul\":671:770   */\ntag_31:\n    /* \"#utility.yul\":723:729   */\n  0x00\n    /* \"#utility.yul\":757:762   */\n  dup2\n    /* \"#utility.yul\":751:763   */\n  mload\n    /* \"#utility.yul\":741:763   */\n  swap1\n  pop\n    /* \"#utility.yul\":671:770   */\n  swap2\n  swap1\n  pop\n  jump\t// out\n    /* \"#utility.yul\":776:924   */\ntag_33:\n    /* \"#utility.yul\":878:889   */\n  0x00\n    /* \"#utility.yul\":915:918   */\n  dup2\n    /* \"#utility.yul\":900:918   */\n  swap1\n  pop\n    /* \"#utility.yul\":776:924   */\n  swap3\n  swap2\n  pop\n  pop\n  jump\t// out\n    /* \"#utility.yul\":930:1237   */\ntag_35:\n    /* \"#utility.yul\":998:999   */\n  0x00\n    /* \"#utility.yul\":1008:1121   */\ntag_41:\n    /* \"#utility.yul\":1022:1028   */\n  dup4\n    /* \"#utility.yul\":1019:1020   */\n  dup2\n    /* \"#utility.yul\":1016:1029   */\n  lt\n    /* \"#utility.yul\":1008:1121   */\n  iszero\n  tag_43\n  jumpi\n    /* \"#utility.yul\":1107:1108   */\n  dup1\n    /* \"#utility.yul\":1102:1105   */\n  dup3\n    /* \"#utility.yul\":1098:1109   */\n  add\n    /* \"#utility.yul\":1092:1110   */\n  mload\n    /* \"#utility.yul\":1088:1089   */\n  dup2\n    /* \"#utility.yul\":1083:1086   */\n  dup5\n    /* \"#utility.yul\":1079:1090   */\n  add\n    /* \"#utility.yul\":1072:1111   */\n  mstore\n    /* \"#utility.yul\":1044:1046   */\n  0x20\n    /* \"#utility.yul\":1041:1042   */\n  dup2\n    /* \"#utility.yul\":1037:1047   */\n  add\n    /* \"#utility.yul\":1032:1047   */\n  swap1\n  pop\n    /* \"#utility.yul\":1008:1121   */\n  jump(tag_41)\ntag_43:\n    /* \"#utility.yul\":1139:1145   */\n  dup4\n    /* \"#utility.yul\":1136:1137   */\n  dup2\n    /* \"#utility.yul\":1133:1146   */\n  gt\n    /* \"#utility.yul\":1130:1231   */\n  iszero\n  tag_44\n  jumpi\n    /* \"#utility.yul\":1219:1220   */\n  0x00\n    /* \"#utility.yul\":1210:1216   */\n  dup5\n    /* \"#utility.yul\":1205:1208   */\n  dup5\n    /* \"#utility.yul\":1201:1217   */\n  add\n    /* \"#utility.yul\":1194:1221   */\n  mstore\n    /* \"#utility.yul\":1130:1231   */\ntag_44:\n    /* \"#utility.yul\":979:1237   */\n  pop\n    /* \"#utility.yul\":930:1237   */\n  pop\n  pop\n  pop\n  jump\t// out\n    /* \"#utility.yul\":1243:1563   */\ntag_17:\n    /* \"#utility.yul\":1287:1293   */\n  0x00\n    /* \"#utility.yul\":1324:1325   */\n  0x02\n    /* \"#utility.yul\":1318:1322   */\n  dup3\n    /* \"#utility.yul\":1314:1326   */\n  div\n    /* \"#utility.yul\":1304:1326   */\n  swap1\n  pop\n    /* \"#utility.yul\":1371:1372   */\n  0x01\n    /* \"#utility.yul\":1365:1369   */\n  dup3\n    /* \"#utility.yul\":1361:1373   */\n  and\n    /* \"#utility.yul\":1392:1410   */\n  dup1\n    /* \"#utility.yul\":1382:1463   */\n  tag_46\n  jumpi\n    /* \"#utility.yul\":1448:1452   */\n  0x7f\n    /* \"#utility.yul\":1440:1446   */\n  dup3\n    /* \"#utility.yul\":1436:1453   */\n  and\n    /* \"#utility.yul\":1426:1453   */\n  swap2\n  pop\n    /* \"#utility.yul\":1382:1463   */\ntag_46:\n    /* \"#utility.yul\":1510:1512   */\n  0x20\n    /* \"#utility.yul\":1502:1508   */\n  dup3\n    /* \"#utility.yul\":1499:1513   */\n  lt\n    /* \"#utility.yul\":1479:1497   */\n  dup2\n    /* \"#utility.yul\":1476:1514   */\n  eq\n    /* \"#utility.yul\":1473:1557   */\n  iszero\n  tag_47\n  jumpi\n    /* \"#utility.yul\":1529:1547   */\n  tag_48\n  tag_49\n  jump\t// in\ntag_48:\n    /* \"#utility.yul\":1473:1557   */\ntag_47:\n    /* \"#utility.yul\":1294:1563   */\n  pop\n    /* \"#utility.yul\":1243:1563   */\n  swap2\n  swap1\n  pop\n  jump\t// out\n    /* \"#utility.yul\":1569:1749   */\ntag_49:\n    /* \"#utility.yul\":1617:1694   */\n  0x4e487b7100000000000000000000000000000000000000000000000000000000\n    /* \"#utility.yul\":1614:1615   */\n  0x00\n    /* \"#utility.yul\":1607:1695   */\n  mstore\n    /* \"#utility.yul\":1714:1718   */\n  0x22\n    /* \"#utility.yul\":1711:1712   */\n  0x04\n    /* \"#utility.yul\":1704:1719   */\n  mstore\n    /* \"#utility.yul\":1738:1742   */\n  0x24\n    /* \"#utility.yul\":1735:1736   */\n  0x00\n    /* \"#utility.yul\":1728:1743   */\n  revert\n    /* \"Documents/GitHub/contract-token-cryptoMonster/backend/components/Seed.sol\":127:973  contract Seed is Main {\r... */\ntag_12:\n  dataSize(sub_0)\n  dup1\n  dataOffset(sub_0)\n  0x00\n  codecopy\n  0x00\n  return\nstop\n\nsub_0: assembly {\n        /* \"Documents/GitHub/contract-token-cryptoMonster/backend/components/Seed.sol\":127:973  contract Seed is Main {\r... */\n      mstore(0x40, 0x80)\n      callvalue\n      dup1\n      iszero\n      tag_1\n      jumpi\n      0x00\n      dup1\n      revert\n    tag_1:\n      pop\n      jumpi(tag_2, lt(calldatasize, 0x04))\n      shr(0xe0, calldataload(0x00))\n      dup1\n      0x845952a8\n      eq\n      tag_3\n      jumpi\n    tag_2:\n      0x00\n      dup1\n      revert\n        /* \"Documents/GitHub/contract-token-cryptoMonster/backend/shared/helpers/getFuncs.sol\":144:285  function get_hash(string memory _password) public pure returns(bytes32) {\r... */\n    tag_3:\n      tag_4\n      0x04\n      dup1\n      calldatasize\n      sub\n      dup2\n      add\n      swap1\n      tag_5\n      swap2\n      swap1\n      tag_6\n      jump\t// in\n    tag_5:\n      tag_7\n      jump\t// in\n    tag_4:\n      mload(0x40)\n      tag_8\n      swap2\n      swap1\n      tag_9\n      jump\t// in\n    tag_8:\n      mload(0x40)\n      dup1\n      swap2\n      sub\n      swap1\n      return\n    tag_7:\n        /* \"Documents/GitHub/contract-token-cryptoMonster/backend/shared/helpers/getFuncs.sol\":207:214  bytes32 */\n      0x00\n        /* \"Documents/GitHub/contract-token-cryptoMonster/backend/shared/helpers/getFuncs.sol\":265:274  _password */\n      dup2\n        /* \"Documents/GitHub/contract-token-cryptoMonster/backend/shared/helpers/getFuncs.sol\":248:275  abi.encodePacked(_password) */\n      add(0x20, mload(0x40))\n      tag_11\n      swap2\n      swap1\n      tag_12\n      jump\t// in\n    tag_11:\n      mload(0x40)\n      0x20\n      dup2\n      dup4\n      sub\n      sub\n      dup2\n      mstore\n      swap1\n      0x40\n      mstore\n        /* \"Documents/GitHub/contract-token-cryptoMonster/backend/shared/helpers/getFuncs.sol\":238:276  keccak256(abi.encodePacked(_password)) */\n      dup1\n      mload\n      swap1\n      0x20\n      add\n      keccak256\n        /* \"Documents/GitHub/contract-token-cryptoMonster/backend/shared/helpers/getFuncs.sol\":231:277  return(keccak256(abi.encodePacked(_password))) */\n      swap1\n      pop\n        /* \"Documents/GitHub/contract-token-cryptoMonster/backend/shared/helpers/getFuncs.sol\":144:285  function get_hash(string memory _password) public pure returns(bytes32) {\r... */\n      swap2\n      swap1\n      pop\n      jump\t// out\n        /* \"#utility.yul\":7:419   */\n    tag_14:\n        /* \"#utility.yul\":85:90   */\n      0x00\n        /* \"#utility.yul\":110:176   */\n      tag_16\n        /* \"#utility.yul\":126:175   */\n      tag_17\n        /* \"#utility.yul\":168:174   */\n      dup5\n        /* \"#utility.yul\":126:175   */\n      tag_18\n      jump\t// in\n    tag_17:\n        /* \"#utility.yul\":110:176   */\n      tag_19\n      jump\t// in\n    tag_16:\n        /* \"#utility.yul\":101:176   */\n      swap1\n      pop\n        /* \"#utility.yul\":199:205   */\n      dup3\n        /* \"#utility.yul\":192:197   */\n      dup2\n        /* \"#utility.yul\":185:206   */\n      mstore\n        /* \"#utility.yul\":237:241   */\n      0x20\n        /* \"#utility.yul\":230:235   */\n      dup2\n        /* \"#utility.yul\":226:242   */\n      add\n        /* \"#utility.yul\":275:278   */\n      dup5\n        /* \"#utility.yul\":266:272   */\n      dup5\n        /* \"#utility.yul\":261:264   */\n      dup5\n        /* \"#utility.yul\":257:273   */\n      add\n        /* \"#utility.yul\":254:279   */\n      gt\n        /* \"#utility.yul\":251:363   */\n      iszero\n      tag_20\n      jumpi\n        /* \"#utility.yul\":282:361   */\n      tag_21\n      tag_22\n      jump\t// in\n    tag_21:\n        /* \"#utility.yul\":251:363   */\n    tag_20:\n        /* \"#utility.yul\":372:413   */\n      tag_23\n        /* \"#utility.yul\":406:412   */\n      dup5\n        /* \"#utility.yul\":401:404   */\n      dup3\n        /* \"#utility.yul\":396:399   */\n      dup6\n        /* \"#utility.yul\":372:413   */\n      tag_24\n      jump\t// in\n    tag_23:\n        /* \"#utility.yul\":91:419   */\n      pop\n        /* \"#utility.yul\":7:419   */\n      swap4\n      swap3\n      pop\n      pop\n      pop\n      jump\t// out\n        /* \"#utility.yul\":439:779   */\n    tag_25:\n        /* \"#utility.yul\":495:500   */\n      0x00\n        /* \"#utility.yul\":544:547   */\n      dup3\n        /* \"#utility.yul\":537:541   */\n      0x1f\n        /* \"#utility.yul\":529:535   */\n      dup4\n        /* \"#utility.yul\":525:542   */\n      add\n        /* \"#utility.yul\":521:548   */\n      slt\n        /* \"#utility.yul\":511:633   */\n      tag_27\n      jumpi\n        /* \"#utility.yul\":552:631   */\n      tag_28\n      tag_29\n      jump\t// in\n    tag_28:\n        /* \"#utility.yul\":511:633   */\n    tag_27:\n        /* \"#utility.yul\":669:675   */\n      dup2\n        /* \"#utility.yul\":656:676   */\n      calldataload\n        /* \"#utility.yul\":694:773   */\n      tag_30\n        /* \"#utility.yul\":769:772   */\n      dup5\n        /* \"#utility.yul\":761:767   */\n      dup3\n        /* \"#utility.yul\":754:758   */\n      0x20\n        /* \"#utility.yul\":746:752   */\n      dup7\n        /* \"#utility.yul\":742:759   */\n      add\n        /* \"#utility.yul\":694:773   */\n      tag_14\n      jump\t// in\n    tag_30:\n        /* \"#utility.yul\":685:773   */\n      swap2\n      pop\n        /* \"#utility.yul\":501:779   */\n      pop\n        /* \"#utility.yul\":439:779   */\n      swap3\n      swap2\n      pop\n      pop\n      jump\t// out\n        /* \"#utility.yul\":785:1294   */\n    tag_6:\n        /* \"#utility.yul\":854:860   */\n      0x00\n        /* \"#utility.yul\":903:905   */\n      0x20\n        /* \"#utility.yul\":891:900   */\n      dup3\n        /* \"#utility.yul\":882:889   */\n      dup5\n        /* \"#utility.yul\":878:901   */\n      sub\n        /* \"#utility.yul\":874:906   */\n      slt\n        /* \"#utility.yul\":871:990   */\n      iszero\n      tag_32\n      jumpi\n        /* \"#utility.yul\":909:988   */\n      tag_33\n      tag_34\n      jump\t// in\n    tag_33:\n        /* \"#utility.yul\":871:990   */\n    tag_32:\n        /* \"#utility.yul\":1057:1058   */\n      0x00\n        /* \"#utility.yul\":1046:1055   */\n      dup3\n        /* \"#utility.yul\":1042:1059   */\n      add\n        /* \"#utility.yul\":1029:1060   */\n      calldataload\n        /* \"#utility.yul\":1087:1105   */\n      0xffffffffffffffff\n        /* \"#utility.yul\":1079:1085   */\n      dup2\n        /* \"#utility.yul\":1076:1106   */\n      gt\n        /* \"#utility.yul\":1073:1190   */\n      iszero\n      tag_35\n      jumpi\n        /* \"#utility.yul\":1109:1188   */\n      tag_36\n      tag_37\n      jump\t// in\n    tag_36:\n        /* \"#utility.yul\":1073:1190   */\n    tag_35:\n        /* \"#utility.yul\":1214:1277   */\n      tag_38\n        /* \"#utility.yul\":1269:1276   */\n      dup5\n        /* \"#utility.yul\":1260:1266   */\n      dup3\n        /* \"#utility.yul\":1249:1258   */\n      dup6\n        /* \"#utility.yul\":1245:1267   */\n      add\n        /* \"#utility.yul\":1214:1277   */\n      tag_25\n      jump\t// in\n    tag_38:\n        /* \"#utility.yul\":1204:1277   */\n      swap2\n      pop\n        /* \"#utility.yul\":1000:1287   */\n      pop\n        /* \"#utility.yul\":785:1294   */\n      swap3\n      swap2\n      pop\n      pop\n      jump\t// out\n        /* \"#utility.yul\":1300:1418   */\n    tag_39:\n        /* \"#utility.yul\":1387:1411   */\n      tag_41\n        /* \"#utility.yul\":1405:1410   */\n      dup2\n        /* \"#utility.yul\":1387:1411   */\n      tag_42\n      jump\t// in\n    tag_41:\n        /* \"#utility.yul\":1382:1385   */\n      dup3\n        /* \"#utility.yul\":1375:1412   */\n      mstore\n        /* \"#utility.yul\":1300:1418   */\n      pop\n      pop\n      jump\t// out\n        /* \"#utility.yul\":1424:1801   */\n    tag_43:\n        /* \"#utility.yul\":1530:1533   */\n      0x00\n        /* \"#utility.yul\":1558:1597   */\n      tag_45\n        /* \"#utility.yul\":1591:1596   */\n      dup3\n        /* \"#utility.yul\":1558:1597   */\n      tag_46\n      jump\t// in\n    tag_45:\n        /* \"#utility.yul\":1613:1702   */\n      tag_47\n        /* \"#utility.yul\":1695:1701   */\n      dup2\n        /* \"#utility.yul\":1690:1693   */\n      dup6\n        /* \"#utility.yul\":1613:1702   */\n      tag_48\n      jump\t// in\n    tag_47:\n        /* \"#utility.yul\":1606:1702   */\n      swap4\n      pop\n        /* \"#utility.yul\":1711:1763   */\n      tag_49\n        /* \"#utility.yul\":1756:1762   */\n      dup2\n        /* \"#utility.yul\":1751:1754   */\n      dup6\n        /* \"#utility.yul\":1744:1748   */\n      0x20\n        /* \"#utility.yul\":1737:1742   */\n      dup7\n        /* \"#utility.yul\":1733:1749   */\n      add\n        /* \"#utility.yul\":1711:1763   */\n      tag_50\n      jump\t// in\n    tag_49:\n        /* \"#utility.yul\":1788:1794   */\n      dup1\n        /* \"#utility.yul\":1783:1786   */\n      dup5\n        /* \"#utility.yul\":1779:1795   */\n      add\n        /* \"#utility.yul\":1772:1795   */\n      swap2\n      pop\n        /* \"#utility.yul\":1534:1801   */\n      pop\n        /* \"#utility.yul\":1424:1801   */\n      swap3\n      swap2\n      pop\n      pop\n      jump\t// out\n        /* \"#utility.yul\":1807:2082   */\n    tag_12:\n        /* \"#utility.yul\":1939:1942   */\n      0x00\n        /* \"#utility.yul\":1961:2056   */\n      tag_52\n        /* \"#utility.yul\":2052:2055   */\n      dup3\n        /* \"#utility.yul\":2043:2049   */\n      dup5\n        /* \"#utility.yul\":1961:2056   */\n      tag_43\n      jump\t// in\n    tag_52:\n        /* \"#utility.yul\":1954:2056   */\n      swap2\n      pop\n        /* \"#utility.yul\":2073:2076   */\n      dup2\n        /* \"#utility.yul\":2066:2076   */\n      swap1\n      pop\n        /* \"#utility.yul\":1807:2082   */\n      swap3\n      swap2\n      pop\n      pop\n      jump\t// out\n        /* \"#utility.yul\":2088:2310   */\n    tag_9:\n        /* \"#utility.yul\":2181:2185   */\n      0x00\n        /* \"#utility.yul\":2219:2221   */\n      0x20\n        /* \"#utility.yul\":2208:2217   */\n      dup3\n        /* \"#utility.yul\":2204:2222   */\n      add\n        /* \"#utility.yul\":2196:2222   */\n      swap1\n      pop\n        /* \"#utility.yul\":2232:2303   */\n      tag_54\n        /* \"#utility.yul\":2300:2301   */\n      0x00\n        /* \"#utility.yul\":2289:2298   */\n      dup4\n        /* \"#utility.yul\":2285:2302   */\n      add\n        /* \"#utility.yul\":2276:2282   */\n      dup5\n        /* \"#utility.yul\":2232:2303   */\n      tag_39\n      jump\t// in\n    tag_54:\n        /* \"#utility.yul\":2088:2310   */\n      swap3\n      swap2\n      pop\n      pop\n      jump\t// out\n        /* \"#utility.yul\":2316:2445   */\n    tag_19:\n        /* \"#utility.yul\":2350:2356   */\n      0x00\n        /* \"#utility.yul\":2377:2397   */\n      tag_56\n      tag_57\n      jump\t// in\n    tag_56:\n        /* \"#utility.yul\":2367:2397   */\n      swap1\n      pop\n        /* \"#utility.yul\":2406:2439   */\n      tag_58\n        /* \"#utility.yul\":2434:2438   */\n      dup3\n        /* \"#utility.yul\":2426:2432   */\n      dup3\n        /* \"#utility.yul\":2406:2439   */\n      tag_59\n      jump\t// in\n    tag_58:\n        /* \"#utility.yul\":2316:2445   */\n      swap2\n      swap1\n      pop\n      jump\t// out\n        /* \"#utility.yul\":2451:2526   */\n    tag_57:\n        /* \"#utility.yul\":2484:2490   */\n      0x00\n        /* \"#utility.yul\":2517:2519   */\n      0x40\n        /* \"#utility.yul\":2511:2520   */\n      mload\n        /* \"#utility.yul\":2501:2520   */\n      swap1\n      pop\n        /* \"#utility.yul\":2451:2526   */\n      swap1\n      jump\t// out\n        /* \"#utility.yul\":2532:2840   */\n    tag_18:\n        /* \"#utility.yul\":2594:2598   */\n      0x00\n        /* \"#utility.yul\":2684:2702   */\n      0xffffffffffffffff\n        /* \"#utility.yul\":2676:2682   */\n      dup3\n        /* \"#utility.yul\":2673:2703   */\n      gt\n        /* \"#utility.yul\":2670:2726   */\n      iszero\n      tag_62\n      jumpi\n        /* \"#utility.yul\":2706:2724   */\n      tag_63\n      tag_64\n      jump\t// in\n    tag_63:\n        /* \"#utility.yul\":2670:2726   */\n    tag_62:\n        /* \"#utility.yul\":2744:2773   */\n      tag_65\n        /* \"#utility.yul\":2766:2772   */\n      dup3\n        /* \"#utility.yul\":2744:2773   */\n      tag_66\n      jump\t// in\n    tag_65:\n        /* \"#utility.yul\":2736:2773   */\n      swap1\n      pop\n        /* \"#utility.yul\":2828:2832   */\n      0x20\n        /* \"#utility.yul\":2822:2826   */\n      dup2\n        /* \"#utility.yul\":2818:2833   */\n      add\n        /* \"#utility.yul\":2810:2833   */\n      swap1\n      pop\n        /* \"#utility.yul\":2532:2840   */\n      swap2\n      swap1\n      pop\n      jump\t// out\n        /* \"#utility.yul\":2846:2945   */\n    tag_46:\n        /* \"#utility.yul\":2898:2904   */\n      0x00\n        /* \"#utility.yul\":2932:2937   */\n      dup2\n        /* \"#utility.yul\":2926:2938   */\n      mload\n        /* \"#utility.yul\":2916:2938   */\n      swap1\n      pop\n        /* \"#utility.yul\":2846:2945   */\n      swap2\n      swap1\n      pop\n      jump\t// out\n        /* \"#utility.yul\":2951:3099   */\n    tag_48:\n        /* \"#utility.yul\":3053:3064   */\n      0x00\n        /* \"#utility.yul\":3090:3093   */\n      dup2\n        /* \"#utility.yul\":3075:3093   */\n      swap1\n      pop\n        /* \"#utility.yul\":2951:3099   */\n      swap3\n      swap2\n      pop\n      pop\n      jump\t// out\n        /* \"#utility.yul\":3105:3182   */\n    tag_42:\n        /* \"#utility.yul\":3142:3149   */\n      0x00\n        /* \"#utility.yul\":3171:3176   */\n      dup2\n        /* \"#utility.yul\":3160:3176   */\n      swap1\n      pop\n        /* \"#utility.yul\":3105:3182   */\n      swap2\n      swap1\n      pop\n      jump\t// out\n        /* \"#utility.yul\":3188:3342   */\n    tag_24:\n        /* \"#utility.yul\":3272:3278   */\n      dup3\n        /* \"#utility.yul\":3267:3270   */\n      dup2\n        /* \"#utility.yul\":3262:3265   */\n      dup4\n        /* \"#utility.yul\":3249:3279   */\n      calldatacopy\n        /* \"#utility.yul\":3334:3335   */\n      0x00\n        /* \"#utility.yul\":3325:3331   */\n      dup4\n        /* \"#utility.yul\":3320:3323   */\n      dup4\n        /* \"#utility.yul\":3316:3332   */\n      add\n        /* \"#utility.yul\":3309:3336   */\n      mstore\n        /* \"#utility.yul\":3188:3342   */\n      pop\n      pop\n      pop\n      jump\t// out\n        /* \"#utility.yul\":3348:3655   */\n    tag_50:\n        /* \"#utility.yul\":3416:3417   */\n      0x00\n        /* \"#utility.yul\":3426:3539   */\n    tag_72:\n        /* \"#utility.yul\":3440:3446   */\n      dup4\n        /* \"#utility.yul\":3437:3438   */\n      dup2\n        /* \"#utility.yul\":3434:3447   */\n      lt\n        /* \"#utility.yul\":3426:3539   */\n      iszero\n      tag_74\n      jumpi\n        /* \"#utility.yul\":3525:3526   */\n      dup1\n        /* \"#utility.yul\":3520:3523   */\n      dup3\n        /* \"#utility.yul\":3516:3527   */\n      add\n        /* \"#utility.yul\":3510:3528   */\n      mload\n        /* \"#utility.yul\":3506:3507   */\n      dup2\n        /* \"#utility.yul\":3501:3504   */\n      dup5\n        /* \"#utility.yul\":3497:3508   */\n      add\n        /* \"#utility.yul\":3490:3529   */\n      mstore\n        /* \"#utility.yul\":3462:3464   */\n      0x20\n        /* \"#utility.yul\":3459:3460   */\n      dup2\n        /* \"#utility.yul\":3455:3465   */\n      add\n        /* \"#utility.yul\":3450:3465   */\n      swap1\n      pop\n        /* \"#utility.yul\":3426:3539   */\n      jump(tag_72)\n    tag_74:\n        /* \"#utility.yul\":3557:3563   */\n      dup4\n        /* \"#utility.yul\":3554:3555   */\n      dup2\n        /* \"#utility.yul\":3551:3564   */\n      gt\n        /* \"#utility.yul\":3548:3649   */\n      iszero\n      tag_75\n      jumpi\n        /* \"#utility.yul\":3637:3638   */\n      0x00\n        /* \"#utility.yul\":3628:3634   */\n      dup5\n        /* \"#utility.yul\":3623:3626   */\n      dup5\n        /* \"#utility.yul\":3619:3635   */\n      add\n        /* \"#utility.yul\":3612:3639   */\n      mstore\n        /* \"#utility.yul\":3548:3649   */\n    tag_75:\n        /* \"#utility.yul\":3397:3655   */\n      pop\n        /* \"#utility.yul\":3348:3655   */\n      pop\n      pop\n      pop\n      jump\t// out\n        /* \"#utility.yul\":3661:3942   */\n    tag_59:\n        /* \"#utility.yul\":3744:3771   */\n      tag_77\n        /* \"#utility.yul\":3766:3770   */\n      dup3\n        /* \"#utility.yul\":3744:3771   */\n      tag_66\n      jump\t// in\n    tag_77:\n        /* \"#utility.yul\":3736:3742   */\n      dup2\n        /* \"#utility.yul\":3732:3772   */\n      add\n        /* \"#utility.yul\":3874:3880   */\n      dup2\n        /* \"#utility.yul\":3862:3872   */\n      dup2\n        /* \"#utility.yul\":3859:3881   */\n      lt\n        /* \"#utility.yul\":3838:3856   */\n      0xffffffffffffffff\n        /* \"#utility.yul\":3826:3836   */\n      dup3\n        /* \"#utility.yul\":3823:3857   */\n      gt\n        /* \"#utility.yul\":3820:3882   */\n      or\n        /* \"#utility.yul\":3817:3905   */\n      iszero\n      tag_78\n      jumpi\n        /* \"#utility.yul\":3885:3903   */\n      tag_79\n      tag_64\n      jump\t// in\n    tag_79:\n        /* \"#utility.yul\":3817:3905   */\n    tag_78:\n        /* \"#utility.yul\":3925:3935   */\n      dup1\n        /* \"#utility.yul\":3921:3923   */\n      0x40\n        /* \"#utility.yul\":3914:3936   */\n      mstore\n        /* \"#utility.yul\":3704:3942   */\n      pop\n        /* \"#utility.yul\":3661:3942   */\n      pop\n      pop\n      jump\t// out\n        /* \"#utility.yul\":3948:4128   */\n    tag_64:\n        /* \"#utility.yul\":3996:4073   */\n      0x4e487b7100000000000000000000000000000000000000000000000000000000\n        /* \"#utility.yul\":3993:3994   */\n      0x00\n        /* \"#utility.yul\":3986:4074   */\n      mstore\n        /* \"#utility.yul\":4093:4097   */\n      0x41\n        /* \"#utility.yul\":4090:4091   */\n      0x04\n        /* \"#utility.yul\":4083:4098   */\n      mstore\n        /* \"#utility.yul\":4117:4121   */\n      0x24\n        /* \"#utility.yul\":4114:4115   */\n      0x00\n        /* \"#utility.yul\":4107:4122   */\n      revert\n        /* \"#utility.yul\":4134:4251   */\n    tag_29:\n        /* \"#utility.yul\":4243:4244   */\n      0x00\n        /* \"#utility.yul\":4240:4241   */\n      dup1\n        /* \"#utility.yul\":4233:4245   */\n      revert\n        /* \"#utility.yul\":4257:4374   */\n    tag_22:\n        /* \"#utility.yul\":4366:4367   */\n      0x00\n        /* \"#utility.yul\":4363:4364   */\n      dup1\n        /* \"#utility.yul\":4356:4368   */\n      revert\n        /* \"#utility.yul\":4380:4497   */\n    tag_37:\n        /* \"#utility.yul\":4489:4490   */\n      0x00\n        /* \"#utility.yul\":4486:4487   */\n      dup1\n        /* \"#utility.yul\":4479:4491   */\n      revert\n        /* \"#utility.yul\":4503:4620   */\n    tag_34:\n        /* \"#utility.yul\":4612:4613   */\n      0x00\n        /* \"#utility.yul\":4609:4610   */\n      dup1\n        /* \"#utility.yul\":4602:4614   */\n      revert\n        /* \"#utility.yul\":4626:4728   */\n    tag_66:\n        /* \"#utility.yul\":4667:4673   */\n      0x00\n        /* \"#utility.yul\":4718:4720   */\n      0x1f\n        /* \"#utility.yul\":4714:4721   */\n      not\n        /* \"#utility.yul\":4709:4711   */\n      0x1f\n        /* \"#utility.yul\":4702:4707   */\n      dup4\n        /* \"#utility.yul\":4698:4712   */\n      add\n        /* \"#utility.yul\":4694:4722   */\n      and\n        /* \"#utility.yul\":4684:4722   */\n      swap1\n      pop\n        /* \"#utility.yul\":4626:4728   */\n      swap2\n      swap1\n      pop\n      jump\t// out\n\n    auxdata: 0xa2646970667358221220222e67775729a3d69fbbe01c3b87fd7008bc105167c544d4311eb69d7ac4044964736f6c63430008070033\n}\n",
				"bytecode": {
					"linkReferences": {},
					"object": "608060405234801561001057600080fd5b5060007378731d3ca6b7e34ac0f824c42a7cc18a495cabab9050600073617f2e2fd72fd9d5503197092ac168c91465e7f2905060007317f6ad8ef982297579c203069c1dbffe4348c372905060405180606001604052806040518060400160405280600581526020017f6f776e657200000000000000000000000000000000000000000000000000000081525081526020016100e66040518060400160405280600481526020017f333431320000000000000000000000000000000000000000000000000000000081525061037c60201b60201c565b8152602001620927c08152506000808573ffffffffffffffffffffffffffffffffffffffff1673ffffffffffffffffffffffffffffffffffffffff168152602001908152602001600020600082015181600001908051906020019061014c9291906103ac565b50602082015181600101556040820151816002015590505060405180606001604052806040518060400160405280601081526020017f507269766174652070726f76696465720000000000000000000000000000000081525081526020016101ee6040518060400160405280600481526020017f313432330000000000000000000000000000000000000000000000000000000081525061037c60201b60201c565b8152602001620c35008152506000808473ffffffffffffffffffffffffffffffffffffffff1673ffffffffffffffffffffffffffffffffffffffff16815260200190815260200160002060008201518160000190805190602001906102549291906103ac565b50602082015181600101556040820151816002015590505060405180606001604052806040518060400160405280600f81526020017f5075626c69632070726f7669646572000000000000000000000000000000000081525081526020016102f66040518060400160405280600481526020017f323331340000000000000000000000000000000000000000000000000000000081525061037c60201b60201c565b815260200162061a808152506000808373ffffffffffffffffffffffffffffffffffffffff1673ffffffffffffffffffffffffffffffffffffffff168152602001908152602001600020600082015181600001908051906020019061035c9291906103ac565b506020820151816001015560408201518160020155905050505050610541565b60008160405160200161038f9190610480565b604051602081830303815290604052805190602001209050919050565b8280546103b8906104e0565b90600052602060002090601f0160209004810192826103da5760008555610421565b82601f106103f357805160ff1916838001178555610421565b82800160010185558215610421579182015b82811115610420578251825591602001919060010190610405565b5b50905061042e9190610432565b5090565b5b8082111561044b576000816000905550600101610433565b5090565b600061045a82610497565b61046481856104a2565b93506104748185602086016104ad565b80840191505092915050565b600061048c828461044f565b915081905092915050565b600081519050919050565b600081905092915050565b60005b838110156104cb5780820151818401526020810190506104b0565b838111156104da576000848401525b50505050565b600060028204905060018216806104f857607f821691505b6020821081141561050c5761050b610512565b5b50919050565b7f4e487b7100000000000000000000000000000000000000000000000000000000600052602260045260246000fd5b61032e806105506000396000f3fe608060405234801561001057600080fd5b506004361061002b5760003560e01c8063845952a814610030575b600080fd5b61004a60048036038101906100459190610100565b610060565b60405161005791906101a0565b60405180910390f35b6000816040516020016100739190610189565b604051602081830303815290604052805190602001209050919050565b60006100a361009e846101e0565b6101bb565b9050828152602081018484840111156100bf576100be6102d8565b5b6100ca848285610231565b509392505050565b600082601f8301126100e7576100e66102d3565b5b81356100f7848260208601610090565b91505092915050565b600060208284031215610116576101156102e2565b5b600082013567ffffffffffffffff811115610134576101336102dd565b5b610140848285016100d2565b91505092915050565b61015281610227565b82525050565b600061016382610211565b61016d818561021c565b935061017d818560208601610240565b80840191505092915050565b60006101958284610158565b915081905092915050565b60006020820190506101b56000830184610149565b92915050565b60006101c56101d6565b90506101d18282610273565b919050565b6000604051905090565b600067ffffffffffffffff8211156101fb576101fa6102a4565b5b610204826102e7565b9050602081019050919050565b600081519050919050565b600081905092915050565b6000819050919050565b82818337600083830152505050565b60005b8381101561025e578082015181840152602081019050610243565b8381111561026d576000848401525b50505050565b61027c826102e7565b810181811067ffffffffffffffff8211171561029b5761029a6102a4565b5b80604052505050565b7f4e487b7100000000000000000000000000000000000000000000000000000000600052604160045260246000fd5b600080fd5b600080fd5b600080fd5b600080fd5b6000601f19601f830116905091905056fea2646970667358221220222e67775729a3d69fbbe01c3b87fd7008bc105167c544d4311eb69d7ac4044964736f6c63430008070033",
					"opcodes": "PUSH1 0x80 PUSH1 0x40 MSTORE CALLVALUE DUP1 ISZERO PUSH2 0x10 JUMPI PUSH1 0x0 DUP1 REVERT JUMPDEST POP PUSH1 0x0 PUSH20 0x78731D3CA6B7E34AC0F824C42A7CC18A495CABAB SWAP1 POP PUSH1 0x0 PUSH20 0x617F2E2FD72FD9D5503197092AC168C91465E7F2 SWAP1 POP PUSH1 0x0 PUSH20 0x17F6AD8EF982297579C203069C1DBFFE4348C372 SWAP1 POP PUSH1 0x40 MLOAD DUP1 PUSH1 0x60 ADD PUSH1 0x40 MSTORE DUP1 PUSH1 0x40 MLOAD DUP1 PUSH1 0x40 ADD PUSH1 0x40 MSTORE DUP1 PUSH1 0x5 DUP2 MSTORE PUSH1 0x20 ADD PUSH32 0x6F776E6572000000000000000000000000000000000000000000000000000000 DUP2 MSTORE POP DUP2 MSTORE PUSH1 0x20 ADD PUSH2 0xE6 PUSH1 0x40 MLOAD DUP1 PUSH1 0x40 ADD PUSH1 0x40 MSTORE DUP1 PUSH1 0x4 DUP2 MSTORE PUSH1 0x20 ADD PUSH32 0x3334313200000000000000000000000000000000000000000000000000000000 DUP2 MSTORE POP PUSH2 0x37C PUSH1 0x20 SHL PUSH1 0x20 SHR JUMP JUMPDEST DUP2 MSTORE PUSH1 0x20 ADD PUSH3 0x927C0 DUP2 MSTORE POP PUSH1 0x0 DUP1 DUP6 PUSH20 0xFFFFFFFFFFFFFFFFFFFFFFFFFFFFFFFFFFFFFFFF AND PUSH20 0xFFFFFFFFFFFFFFFFFFFFFFFFFFFFFFFFFFFFFFFF AND DUP2 MSTORE PUSH1 0x20 ADD SWAP1 DUP2 MSTORE PUSH1 0x20 ADD PUSH1 0x0 KECCAK256 PUSH1 0x0 DUP3 ADD MLOAD DUP2 PUSH1 0x0 ADD SWAP1 DUP1 MLOAD SWAP1 PUSH1 0x20 ADD SWAP1 PUSH2 0x14C SWAP3 SWAP2 SWAP1 PUSH2 0x3AC JUMP JUMPDEST POP PUSH1 0x20 DUP3 ADD MLOAD DUP2 PUSH1 0x1 ADD SSTORE PUSH1 0x40 DUP3 ADD MLOAD DUP2 PUSH1 0x2 ADD SSTORE SWAP1 POP POP PUSH1 0x40 MLOAD DUP1 PUSH1 0x60 ADD PUSH1 0x40 MSTORE DUP1 PUSH1 0x40 MLOAD DUP1 PUSH1 0x40 ADD PUSH1 0x40 MSTORE DUP1 PUSH1 0x10 DUP2 MSTORE PUSH1 0x20 ADD PUSH32 0x507269766174652070726F766964657200000000000000000000000000000000 DUP2 MSTORE POP DUP2 MSTORE PUSH1 0x20 ADD PUSH2 0x1EE PUSH1 0x40 MLOAD DUP1 PUSH1 0x40 ADD PUSH1 0x40 MSTORE DUP1 PUSH1 0x4 DUP2 MSTORE PUSH1 0x20 ADD PUSH32 0x3134323300000000000000000000000000000000000000000000000000000000 DUP2 MSTORE POP PUSH2 0x37C PUSH1 0x20 SHL PUSH1 0x20 SHR JUMP JUMPDEST DUP2 MSTORE PUSH1 0x20 ADD PUSH3 0xC3500 DUP2 MSTORE POP PUSH1 0x0 DUP1 DUP5 PUSH20 0xFFFFFFFFFFFFFFFFFFFFFFFFFFFFFFFFFFFFFFFF AND PUSH20 0xFFFFFFFFFFFFFFFFFFFFFFFFFFFFFFFFFFFFFFFF AND DUP2 MSTORE PUSH1 0x20 ADD SWAP1 DUP2 MSTORE PUSH1 0x20 ADD PUSH1 0x0 KECCAK256 PUSH1 0x0 DUP3 ADD MLOAD DUP2 PUSH1 0x0 ADD SWAP1 DUP1 MLOAD SWAP1 PUSH1 0x20 ADD SWAP1 PUSH2 0x254 SWAP3 SWAP2 SWAP1 PUSH2 0x3AC JUMP JUMPDEST POP PUSH1 0x20 DUP3 ADD MLOAD DUP2 PUSH1 0x1 ADD SSTORE PUSH1 0x40 DUP3 ADD MLOAD DUP2 PUSH1 0x2 ADD SSTORE SWAP1 POP POP PUSH1 0x40 MLOAD DUP1 PUSH1 0x60 ADD PUSH1 0x40 MSTORE DUP1 PUSH1 0x40 MLOAD DUP1 PUSH1 0x40 ADD PUSH1 0x40 MSTORE DUP1 PUSH1 0xF DUP2 MSTORE PUSH1 0x20 ADD PUSH32 0x5075626C69632070726F76696465720000000000000000000000000000000000 DUP2 MSTORE POP DUP2 MSTORE PUSH1 0x20 ADD PUSH2 0x2F6 PUSH1 0x40 MLOAD DUP1 PUSH1 0x40 ADD PUSH1 0x40 MSTORE DUP1 PUSH1 0x4 DUP2 MSTORE PUSH1 0x20 ADD PUSH32 0x3233313400000000000000000000000000000000000000000000000000000000 DUP2 MSTORE POP PUSH2 0x37C PUSH1 0x20 SHL PUSH1 0x20 SHR JUMP JUMPDEST DUP2 MSTORE PUSH1 0x20 ADD PUSH3 0x61A80 DUP2 MSTORE POP PUSH1 0x0 DUP1 DUP4 PUSH20 0xFFFFFFFFFFFFFFFFFFFFFFFFFFFFFFFFFFFFFFFF AND PUSH20 0xFFFFFFFFFFFFFFFFFFFFFFFFFFFFFFFFFFFFFFFF AND DUP2 MSTORE PUSH1 0x20 ADD SWAP1 DUP2 MSTORE PUSH1 0x20 ADD PUSH1 0x0 KECCAK256 PUSH1 0x0 DUP3 ADD MLOAD DUP2 PUSH1 0x0 ADD SWAP1 DUP1 MLOAD SWAP1 PUSH1 0x20 ADD SWAP1 PUSH2 0x35C SWAP3 SWAP2 SWAP1 PUSH2 0x3AC JUMP JUMPDEST POP PUSH1 0x20 DUP3 ADD MLOAD DUP2 PUSH1 0x1 ADD SSTORE PUSH1 0x40 DUP3 ADD MLOAD DUP2 PUSH1 0x2 ADD SSTORE SWAP1 POP POP POP POP POP PUSH2 0x541 JUMP JUMPDEST PUSH1 0x0 DUP2 PUSH1 0x40 MLOAD PUSH1 0x20 ADD PUSH2 0x38F SWAP2 SWAP1 PUSH2 0x480 JUMP JUMPDEST PUSH1 0x40 MLOAD PUSH1 0x20 DUP2 DUP4 SUB SUB DUP2 MSTORE SWAP1 PUSH1 0x40 MSTORE DUP1 MLOAD SWAP1 PUSH1 0x20 ADD KECCAK256 SWAP1 POP SWAP2 SWAP1 POP JUMP JUMPDEST DUP3 DUP1 SLOAD PUSH2 0x3B8 SWAP1 PUSH2 0x4E0 JUMP JUMPDEST SWAP1 PUSH1 0x0 MSTORE PUSH1 0x20 PUSH1 0x0 KECCAK256 SWAP1 PUSH1 0x1F ADD PUSH1 0x20 SWAP1 DIV DUP2 ADD SWAP3 DUP3 PUSH2 0x3DA JUMPI PUSH1 0x0 DUP6 SSTORE PUSH2 0x421 JUMP JUMPDEST DUP3 PUSH1 0x1F LT PUSH2 0x3F3 JUMPI DUP1 MLOAD PUSH1 0xFF NOT AND DUP4 DUP1 ADD OR DUP6 SSTORE PUSH2 0x421 JUMP JUMPDEST DUP3 DUP1 ADD PUSH1 0x1 ADD DUP6 SSTORE DUP3 ISZERO PUSH2 0x421 JUMPI SWAP2 DUP3 ADD JUMPDEST DUP3 DUP2 GT ISZERO PUSH2 0x420 JUMPI DUP3 MLOAD DUP3 SSTORE SWAP2 PUSH1 0x20 ADD SWAP2 SWAP1 PUSH1 0x1 ADD SWAP1 PUSH2 0x405 JUMP JUMPDEST JUMPDEST POP SWAP1 POP PUSH2 0x42E SWAP2 SWAP1 PUSH2 0x432 JUMP JUMPDEST POP SWAP1 JUMP JUMPDEST JUMPDEST DUP1 DUP3 GT ISZERO PUSH2 0x44B JUMPI PUSH1 0x0 DUP2 PUSH1 0x0 SWAP1 SSTORE POP PUSH1 0x1 ADD PUSH2 0x433 JUMP JUMPDEST POP SWAP1 JUMP JUMPDEST PUSH1 0x0 PUSH2 0x45A DUP3 PUSH2 0x497 JUMP JUMPDEST PUSH2 0x464 DUP2 DUP6 PUSH2 0x4A2 JUMP JUMPDEST SWAP4 POP PUSH2 0x474 DUP2 DUP6 PUSH1 0x20 DUP7 ADD PUSH2 0x4AD JUMP JUMPDEST DUP1 DUP5 ADD SWAP2 POP POP SWAP3 SWAP2 POP POP JUMP JUMPDEST PUSH1 0x0 PUSH2 0x48C DUP3 DUP5 PUSH2 0x44F JUMP JUMPDEST SWAP2 POP DUP2 SWAP1 POP SWAP3 SWAP2 POP POP JUMP JUMPDEST PUSH1 0x0 DUP2 MLOAD SWAP1 POP SWAP2 SWAP1 POP JUMP JUMPDEST PUSH1 0x0 DUP2 SWAP1 POP SWAP3 SWAP2 POP POP JUMP JUMPDEST PUSH1 0x0 JUMPDEST DUP4 DUP2 LT ISZERO PUSH2 0x4CB JUMPI DUP1 DUP3 ADD MLOAD DUP2 DUP5 ADD MSTORE PUSH1 0x20 DUP2 ADD SWAP1 POP PUSH2 0x4B0 JUMP JUMPDEST DUP4 DUP2 GT ISZERO PUSH2 0x4DA JUMPI PUSH1 0x0 DUP5 DUP5 ADD MSTORE JUMPDEST POP POP POP POP JUMP JUMPDEST PUSH1 0x0 PUSH1 0x2 DUP3 DIV SWAP1 POP PUSH1 0x1 DUP3 AND DUP1 PUSH2 0x4F8 JUMPI PUSH1 0x7F DUP3 AND SWAP2 POP JUMPDEST PUSH1 0x20 DUP3 LT DUP2 EQ ISZERO PUSH2 0x50C JUMPI PUSH2 0x50B PUSH2 0x512 JUMP JUMPDEST JUMPDEST POP SWAP2 SWAP1 POP JUMP JUMPDEST PUSH32 0x4E487B7100000000000000000000000000000000000000000000000000000000 PUSH1 0x0 MSTORE PUSH1 0x22 PUSH1 0x4 MSTORE PUSH1 0x24 PUSH1 0x0 REVERT JUMPDEST PUSH2 0x32E DUP1 PUSH2 0x550 PUSH1 0x0 CODECOPY PUSH1 0x0 RETURN INVALID PUSH1 0x80 PUSH1 0x40 MSTORE CALLVALUE DUP1 ISZERO PUSH2 0x10 JUMPI PUSH1 0x0 DUP1 REVERT JUMPDEST POP PUSH1 0x4 CALLDATASIZE LT PUSH2 0x2B JUMPI PUSH1 0x0 CALLDATALOAD PUSH1 0xE0 SHR DUP1 PUSH4 0x845952A8 EQ PUSH2 0x30 JUMPI JUMPDEST PUSH1 0x0 DUP1 REVERT JUMPDEST PUSH2 0x4A PUSH1 0x4 DUP1 CALLDATASIZE SUB DUP2 ADD SWAP1 PUSH2 0x45 SWAP2 SWAP1 PUSH2 0x100 JUMP JUMPDEST PUSH2 0x60 JUMP JUMPDEST PUSH1 0x40 MLOAD PUSH2 0x57 SWAP2 SWAP1 PUSH2 0x1A0 JUMP JUMPDEST PUSH1 0x40 MLOAD DUP1 SWAP2 SUB SWAP1 RETURN JUMPDEST PUSH1 0x0 DUP2 PUSH1 0x40 MLOAD PUSH1 0x20 ADD PUSH2 0x73 SWAP2 SWAP1 PUSH2 0x189 JUMP JUMPDEST PUSH1 0x40 MLOAD PUSH1 0x20 DUP2 DUP4 SUB SUB DUP2 MSTORE SWAP1 PUSH1 0x40 MSTORE DUP1 MLOAD SWAP1 PUSH1 0x20 ADD KECCAK256 SWAP1 POP SWAP2 SWAP1 POP JUMP JUMPDEST PUSH1 0x0 PUSH2 0xA3 PUSH2 0x9E DUP5 PUSH2 0x1E0 JUMP JUMPDEST PUSH2 0x1BB JUMP JUMPDEST SWAP1 POP DUP3 DUP2 MSTORE PUSH1 0x20 DUP2 ADD DUP5 DUP5 DUP5 ADD GT ISZERO PUSH2 0xBF JUMPI PUSH2 0xBE PUSH2 0x2D8 JUMP JUMPDEST JUMPDEST PUSH2 0xCA DUP5 DUP3 DUP6 PUSH2 0x231 JUMP JUMPDEST POP SWAP4 SWAP3 POP POP POP JUMP JUMPDEST PUSH1 0x0 DUP3 PUSH1 0x1F DUP4 ADD SLT PUSH2 0xE7 JUMPI PUSH2 0xE6 PUSH2 0x2D3 JUMP JUMPDEST JUMPDEST DUP2 CALLDATALOAD PUSH2 0xF7 DUP5 DUP3 PUSH1 0x20 DUP7 ADD PUSH2 0x90 JUMP JUMPDEST SWAP2 POP POP SWAP3 SWAP2 POP POP JUMP JUMPDEST PUSH1 0x0 PUSH1 0x20 DUP3 DUP5 SUB SLT ISZERO PUSH2 0x116 JUMPI PUSH2 0x115 PUSH2 0x2E2 JUMP JUMPDEST JUMPDEST PUSH1 0x0 DUP3 ADD CALLDATALOAD PUSH8 0xFFFFFFFFFFFFFFFF DUP2 GT ISZERO PUSH2 0x134 JUMPI PUSH2 0x133 PUSH2 0x2DD JUMP JUMPDEST JUMPDEST PUSH2 0x140 DUP5 DUP3 DUP6 ADD PUSH2 0xD2 JUMP JUMPDEST SWAP2 POP POP SWAP3 SWAP2 POP POP JUMP JUMPDEST PUSH2 0x152 DUP2 PUSH2 0x227 JUMP JUMPDEST DUP3 MSTORE POP POP JUMP JUMPDEST PUSH1 0x0 PUSH2 0x163 DUP3 PUSH2 0x211 JUMP JUMPDEST PUSH2 0x16D DUP2 DUP6 PUSH2 0x21C JUMP JUMPDEST SWAP4 POP PUSH2 0x17D DUP2 DUP6 PUSH1 0x20 DUP7 ADD PUSH2 0x240 JUMP JUMPDEST DUP1 DUP5 ADD SWAP2 POP POP SWAP3 SWAP2 POP POP JUMP JUMPDEST PUSH1 0x0 PUSH2 0x195 DUP3 DUP5 PUSH2 0x158 JUMP JUMPDEST SWAP2 POP DUP2 SWAP1 POP SWAP3 SWAP2 POP POP JUMP JUMPDEST PUSH1 0x0 PUSH1 0x20 DUP3 ADD SWAP1 POP PUSH2 0x1B5 PUSH1 0x0 DUP4 ADD DUP5 PUSH2 0x149 JUMP JUMPDEST SWAP3 SWAP2 POP POP JUMP JUMPDEST PUSH1 0x0 PUSH2 0x1C5 PUSH2 0x1D6 JUMP JUMPDEST SWAP1 POP PUSH2 0x1D1 DUP3 DUP3 PUSH2 0x273 JUMP JUMPDEST SWAP2 SWAP1 POP JUMP JUMPDEST PUSH1 0x0 PUSH1 0x40 MLOAD SWAP1 POP SWAP1 JUMP JUMPDEST PUSH1 0x0 PUSH8 0xFFFFFFFFFFFFFFFF DUP3 GT ISZERO PUSH2 0x1FB JUMPI PUSH2 0x1FA PUSH2 0x2A4 JUMP JUMPDEST JUMPDEST PUSH2 0x204 DUP3 PUSH2 0x2E7 JUMP JUMPDEST SWAP1 POP PUSH1 0x20 DUP2 ADD SWAP1 POP SWAP2 SWAP1 POP JUMP JUMPDEST PUSH1 0x0 DUP2 MLOAD SWAP1 POP SWAP2 SWAP1 POP JUMP JUMPDEST PUSH1 0x0 DUP2 SWAP1 POP SWAP3 SWAP2 POP POP JUMP JUMPDEST PUSH1 0x0 DUP2 SWAP1 POP SWAP2 SWAP1 POP JUMP JUMPDEST DUP3 DUP2 DUP4 CALLDATACOPY PUSH1 0x0 DUP4 DUP4 ADD MSTORE POP POP POP JUMP JUMPDEST PUSH1 0x0 JUMPDEST DUP4 DUP2 LT ISZERO PUSH2 0x25E JUMPI DUP1 DUP3 ADD MLOAD DUP2 DUP5 ADD MSTORE PUSH1 0x20 DUP2 ADD SWAP1 POP PUSH2 0x243 JUMP JUMPDEST DUP4 DUP2 GT ISZERO PUSH2 0x26D JUMPI PUSH1 0x0 DUP5 DUP5 ADD MSTORE JUMPDEST POP POP POP POP JUMP JUMPDEST PUSH2 0x27C DUP3 PUSH2 0x2E7 JUMP JUMPDEST DUP2 ADD DUP2 DUP2 LT PUSH8 0xFFFFFFFFFFFFFFFF DUP3 GT OR ISZERO PUSH2 0x29B JUMPI PUSH2 0x29A PUSH2 0x2A4 JUMP JUMPDEST JUMPDEST DUP1 PUSH1 0x40 MSTORE POP POP POP JUMP JUMPDEST PUSH32 0x4E487B7100000000000000000000000000000000000000000000000000000000 PUSH1 0x0 MSTORE PUSH1 0x41 PUSH1 0x4 MSTORE PUSH1 0x24 PUSH1 0x0 REVERT JUMPDEST PUSH1 0x0 DUP1 REVERT JUMPDEST PUSH1 0x0 DUP1 REVERT JUMPDEST PUSH1 0x0 DUP1 REVERT JUMPDEST PUSH1 0x0 DUP1 REVERT JUMPDEST PUSH1 0x0 PUSH1 0x1F NOT PUSH1 0x1F DUP4 ADD AND SWAP1 POP SWAP2 SWAP1 POP JUMP INVALID LOG2 PUSH5 0x6970667358 0x22 SLT KECCAK256 0x22 0x2E PUSH8 0x775729A3D69FBBE0 SHR EXTCODESIZE DUP8 REVERT PUSH17 0x8BC105167C544D4311EB69D7AC4044964 PUSH20 0x6F6C634300080700330000000000000000000000 "
				},
				"gasEstimates": {
					"creation": {
						"codeDepositCost": "162800",
						"executionCost": "infinite",
						"totalCost": "infinite"
					},
					"external": {
						"get_hash(string)": "infinite"
					}
				},
				"methodIdentifiers": {
					"get_hash(string)": "845952a8"
				}
			},
			"storageLayout": {
				"storage": [
					{
						"astId": 851,
						"contract": "Documents/GitHub/contract-token-cryptoMonster/backend/components/Seed.sol:Seed",
						"label": "structUser_",
						"offset": 0,
						"slot": "0",
						"type": "t_mapping(t_address,t_struct(structUser)846_storage)"
					}
				],
				"types": {
					"t_address": {
						"encoding": "inplace",
						"label": "address",
						"numberOfBytes": "20"
					},
					"t_bytes32": {
						"encoding": "inplace",
						"label": "bytes32",
						"numberOfBytes": "32"
					},
					"t_mapping(t_address,t_struct(structUser)846_storage)": {
						"encoding": "mapping",
						"key": "t_address",
						"label": "mapping(address => struct structures.structUser)",
						"numberOfBytes": "32",
						"value": "t_struct(structUser)846_storage"
					},
					"t_string_storage": {
						"encoding": "bytes",
						"label": "string",
						"numberOfBytes": "32"
					},
					"t_struct(structUser)846_storage": {
						"encoding": "inplace",
						"label": "struct structures.structUser",
						"members": [
							{
								"astId": 841,
								"contract": "Documents/GitHub/contract-token-cryptoMonster/backend/components/Seed.sol:Seed",
								"label": "login",
								"offset": 0,
								"slot": "0",
								"type": "t_string_storage"
							},
							{
								"astId": 843,
								"contract": "Documents/GitHub/contract-token-cryptoMonster/backend/components/Seed.sol:Seed",
								"label": "password",
								"offset": 0,
								"slot": "1",
								"type": "t_bytes32"
							},
							{
								"astId": 845,
								"contract": "Documents/GitHub/contract-token-cryptoMonster/backend/components/Seed.sol:Seed",
								"label": "balances",
								"offset": 0,
								"slot": "2",
								"type": "t_uint256"
							}
						],
						"numberOfBytes": "96"
					},
					"t_uint256": {
						"encoding": "inplace",
						"label": "uint256",
						"numberOfBytes": "32"
					}
				}
			},
			"userdoc": {
				"kind": "user",
				"methods": {},
				"version": 1
			}
		}
	}
}