{
	"Documents/GitHub/contract-token-cryptoMonster/backend/components/CryptoMonster.sol": {
		"CryptoMonster": {
			"abi": [
				{
					"inputs": [
						{
							"internalType": "uint256",
							"name": "total",
							"type": "uint256"
						}
					],
					"stateMutability": "nonpayable",
					"type": "constructor"
				},
				{
					"anonymous": false,
					"inputs": [
						{
							"indexed": true,
							"internalType": "address",
							"name": "_owner",
							"type": "address"
						},
						{
							"indexed": true,
							"internalType": "address",
							"name": "_spender",
							"type": "address"
						},
						{
							"indexed": false,
							"internalType": "uint256",
							"name": "_value",
							"type": "uint256"
						}
					],
					"name": "Approval",
					"type": "event"
				},
				{
					"anonymous": false,
					"inputs": [
						{
							"indexed": true,
							"internalType": "address",
							"name": "_from",
							"type": "address"
						},
						{
							"indexed": true,
							"internalType": "address",
							"name": "_to",
							"type": "address"
						},
						{
							"indexed": false,
							"internalType": "uint256",
							"name": "_value",
							"type": "uint256"
						}
					],
					"name": "Transfer",
					"type": "event"
				},
				{
					"inputs": [
						{
							"internalType": "address",
							"name": "_owner",
							"type": "address"
						},
						{
							"internalType": "address",
							"name": "_delegate",
							"type": "address"
						}
					],
					"name": "allowance",
					"outputs": [
						{
							"internalType": "uint256",
							"name": "",
							"type": "uint256"
						}
					],
					"stateMutability": "view",
					"type": "function"
				},
				{
					"inputs": [
						{
							"internalType": "address",
							"name": "_delegate",
							"type": "address"
						},
						{
							"internalType": "uint256",
							"name": "_numTokens",
							"type": "uint256"
						}
					],
					"name": "approve",
					"outputs": [
						{
							"internalType": "bool",
							"name": "",
							"type": "bool"
						}
					],
					"stateMutability": "nonpayable",
					"type": "function"
				},
				{
					"inputs": [
						{
							"internalType": "address",
							"name": "_tokenOwner",
							"type": "address"
						}
					],
					"name": "balanceOf",
					"outputs": [
						{
							"internalType": "uint256",
							"name": "",
							"type": "uint256"
						}
					],
					"stateMutability": "view",
					"type": "function"
				},
				{
					"inputs": [
						{
							"internalType": "uint256",
							"name": "_amount",
							"type": "uint256"
						}
					],
					"name": "buy",
					"outputs": [],
					"stateMutability": "payable",
					"type": "function"
				},
				{
					"inputs": [],
					"name": "decimals",
					"outputs": [
						{
							"internalType": "uint8",
							"name": "",
							"type": "uint8"
						}
					],
					"stateMutability": "view",
					"type": "function"
				},
				{
					"inputs": [
						{
							"internalType": "string",
							"name": "_password",
							"type": "string"
						}
					],
					"name": "get_hash",
					"outputs": [
						{
							"internalType": "bytes32",
							"name": "",
							"type": "bytes32"
						}
					],
					"stateMutability": "pure",
					"type": "function"
				},
				{
					"inputs": [],
					"name": "name",
					"outputs": [
						{
							"internalType": "string",
							"name": "",
							"type": "string"
						}
					],
					"stateMutability": "view",
					"type": "function"
				},
				{
					"inputs": [],
					"name": "symbol",
					"outputs": [
						{
							"internalType": "string",
							"name": "",
							"type": "string"
						}
					],
					"stateMutability": "view",
					"type": "function"
				},
				{
					"inputs": [],
					"name": "tokenPrice_",
					"outputs": [
						{
							"internalType": "uint256",
							"name": "",
							"type": "uint256"
						}
					],
					"stateMutability": "view",
					"type": "function"
				},
				{
					"inputs": [],
					"name": "totalSupply",
					"outputs": [
						{
							"internalType": "uint256",
							"name": "",
							"type": "uint256"
						}
					],
					"stateMutability": "view",
					"type": "function"
				},
				{
					"inputs": [
						{
							"internalType": "address",
							"name": "_receiver",
							"type": "address"
						},
						{
							"internalType": "uint256",
							"name": "_numTokens",
							"type": "uint256"
						}
					],
					"name": "transfer",
					"outputs": [
						{
							"internalType": "bool",
							"name": "",
							"type": "bool"
						}
					],
					"stateMutability": "nonpayable",
					"type": "function"
				},
				{
					"inputs": [
						{
							"internalType": "address",
							"name": "_owner",
							"type": "address"
						},
						{
							"internalType": "address",
							"name": "_buyer",
							"type": "address"
						},
						{
							"internalType": "uint256",
							"name": "_numTokens",
							"type": "uint256"
						}
					],
					"name": "transferFrom",
					"outputs": [
						{
							"internalType": "bool",
							"name": "",
							"type": "bool"
						}
					],
					"stateMutability": "nonpayable",
					"type": "function"
				}
			],
			"devdoc": {
				"kind": "dev",
				"methods": {},
				"version": 1
			},
			"evm": {
				"assembly": "    /* \"Documents/GitHub/contract-token-cryptoMonster/backend/components/CryptoMonster.sol\":496:7189  contract CryptoMonster is IERC20, Main, Seed {\r... */\n  mstore(0x40, 0x80)\n    /* \"Documents/GitHub/contract-token-cryptoMonster/backend/components/CryptoMonster.sol\":1457:2677  constructor(uint256 total) {\r... */\n  callvalue\n  dup1\n  iszero\n  tag_1\n  jumpi\n  0x00\n  dup1\n  revert\ntag_1:\n  pop\n  mload(0x40)\n  sub(codesize, bytecodeSize)\n  dup1\n  bytecodeSize\n  dup4\n  codecopy\n  dup2\n  dup2\n  add\n  0x40\n  mstore\n  dup2\n  add\n  swap1\n  tag_2\n  swap2\n  swap1\n  tag_3\n  jump\t// in\ntag_2:\n    /* \"Documents/GitHub/contract-token-cryptoMonster/backend/components/Seed.sol\":317:341  address investorFirstAdr */\n  0x00\n    /* \"Documents/GitHub/contract-token-cryptoMonster/backend/components/Seed.sol\":344:386  0x78731D3Ca6b7E34aC0F824c42a7cC18A495cabaB */\n  0x78731d3ca6b7e34ac0f824c42a7cc18a495cabab\n    /* \"Documents/GitHub/contract-token-cryptoMonster/backend/components/Seed.sol\":317:386  address investorFirstAdr = 0x78731D3Ca6b7E34aC0F824c42a7cC18A495cabaB */\n  swap1\n  pop\n    /* \"Documents/GitHub/contract-token-cryptoMonster/backend/components/Seed.sol\":411:436  address investorSecondAdr */\n  0x00\n    /* \"Documents/GitHub/contract-token-cryptoMonster/backend/components/Seed.sol\":439:481  0x617F2E2fD72FD9D5503197092aC168c91465E7f2 */\n  0x617f2e2fd72fd9d5503197092ac168c91465e7f2\n    /* \"Documents/GitHub/contract-token-cryptoMonster/backend/components/Seed.sol\":411:481  address investorSecondAdr = 0x617F2E2fD72FD9D5503197092aC168c91465E7f2 */\n  swap1\n  pop\n    /* \"Documents/GitHub/contract-token-cryptoMonster/backend/components/Seed.sol\":505:526  address bestFriendAdr */\n  0x00\n    /* \"Documents/GitHub/contract-token-cryptoMonster/backend/components/Seed.sol\":529:571  0x17F6AD8Ef982297579C203069C1DbfFE4348c372 */\n  0x17f6ad8ef982297579c203069c1dbffe4348c372\n    /* \"Documents/GitHub/contract-token-cryptoMonster/backend/components/Seed.sol\":505:571  address bestFriendAdr = 0x17F6AD8Ef982297579C203069C1DbfFE4348c372 */\n  swap1\n  pop\n    /* \"Documents/GitHub/contract-token-cryptoMonster/backend/components/Seed.sol\":635:680  structUser(\"owner\", get_hash(\"3412\"), 600000) */\n  mload(0x40)\n  dup1\n  0x60\n  add\n  0x40\n  mstore\n  dup1\n  mload(0x40)\n  dup1\n  0x40\n  add\n  0x40\n  mstore\n  dup1\n  0x05\n  dup2\n  mstore\n  0x20\n  add\n  0x6f776e6572000000000000000000000000000000000000000000000000000000\n  dup2\n  mstore\n  pop\n  dup2\n  mstore\n  0x20\n  add\n    /* \"Documents/GitHub/contract-token-cryptoMonster/backend/components/Seed.sol\":655:671  get_hash(\"3412\") */\n  tag_7\n  mload(0x40)\n  dup1\n  0x40\n  add\n  0x40\n  mstore\n  dup1\n  0x04\n  dup2\n  mstore\n  0x20\n  add\n  0x3334313200000000000000000000000000000000000000000000000000000000\n  dup2\n  mstore\n  pop\n    /* \"Documents/GitHub/contract-token-cryptoMonster/backend/components/Seed.sol\":655:663  get_hash */\n  shl(0x20, tag_8)\n    /* \"Documents/GitHub/contract-token-cryptoMonster/backend/components/Seed.sol\":655:671  get_hash(\"3412\") */\n  0x20\n  shr\n  jump\t// in\ntag_7:\n    /* \"Documents/GitHub/contract-token-cryptoMonster/backend/components/Seed.sol\":635:680  structUser(\"owner\", get_hash(\"3412\"), 600000) */\n  dup2\n  mstore\n  0x20\n  add\n    /* \"Documents/GitHub/contract-token-cryptoMonster/backend/components/Seed.sol\":673:679  600000 */\n  0x0927c0\n    /* \"Documents/GitHub/contract-token-cryptoMonster/backend/components/Seed.sol\":635:680  structUser(\"owner\", get_hash(\"3412\"), 600000) */\n  dup2\n  mstore\n  pop\n    /* \"Documents/GitHub/contract-token-cryptoMonster/backend/components/Seed.sol\":603:614  structUser_ */\n  0x00\n    /* \"Documents/GitHub/contract-token-cryptoMonster/backend/components/Seed.sol\":603:632  structUser_[investorFirstAdr] */\n  dup1\n    /* \"Documents/GitHub/contract-token-cryptoMonster/backend/components/Seed.sol\":615:631  investorFirstAdr */\n  dup6\n    /* \"Documents/GitHub/contract-token-cryptoMonster/backend/components/Seed.sol\":603:632  structUser_[investorFirstAdr] */\n  0xffffffffffffffffffffffffffffffffffffffff\n  and\n  0xffffffffffffffffffffffffffffffffffffffff\n  and\n  dup2\n  mstore\n  0x20\n  add\n  swap1\n  dup2\n  mstore\n  0x20\n  add\n  0x00\n  keccak256\n    /* \"Documents/GitHub/contract-token-cryptoMonster/backend/components/Seed.sol\":603:680  structUser_[investorFirstAdr] = structUser(\"owner\", get_hash(\"3412\"), 600000) */\n  0x00\n  dup3\n  add\n  mload\n  dup2\n  0x00\n  add\n  swap1\n  dup1\n  mload\n  swap1\n  0x20\n  add\n  swap1\n  tag_9\n  swap3\n  swap2\n  swap1\n  tag_10\n  jump\t// in\ntag_9:\n  pop\n  0x20\n  dup3\n  add\n  mload\n  dup2\n  0x01\n  add\n  sstore\n  0x40\n  dup3\n  add\n  mload\n  dup2\n  0x02\n  add\n  sstore\n  swap1\n  pop\n  pop\n    /* \"Documents/GitHub/contract-token-cryptoMonster/backend/components/Seed.sol\":759:815  structUser(\"Private provider\", get_hash(\"1423\"), 800000) */\n  mload(0x40)\n  dup1\n  0x60\n  add\n  0x40\n  mstore\n  dup1\n  mload(0x40)\n  dup1\n  0x40\n  add\n  0x40\n  mstore\n  dup1\n  0x10\n  dup2\n  mstore\n  0x20\n  add\n  0x507269766174652070726f766964657200000000000000000000000000000000\n  dup2\n  mstore\n  pop\n  dup2\n  mstore\n  0x20\n  add\n    /* \"Documents/GitHub/contract-token-cryptoMonster/backend/components/Seed.sol\":790:806  get_hash(\"1423\") */\n  tag_11\n  mload(0x40)\n  dup1\n  0x40\n  add\n  0x40\n  mstore\n  dup1\n  0x04\n  dup2\n  mstore\n  0x20\n  add\n  0x3134323300000000000000000000000000000000000000000000000000000000\n  dup2\n  mstore\n  pop\n    /* \"Documents/GitHub/contract-token-cryptoMonster/backend/components/Seed.sol\":790:798  get_hash */\n  shl(0x20, tag_8)\n    /* \"Documents/GitHub/contract-token-cryptoMonster/backend/components/Seed.sol\":790:806  get_hash(\"1423\") */\n  0x20\n  shr\n  jump\t// in\ntag_11:\n    /* \"Documents/GitHub/contract-token-cryptoMonster/backend/components/Seed.sol\":759:815  structUser(\"Private provider\", get_hash(\"1423\"), 800000) */\n  dup2\n  mstore\n  0x20\n  add\n    /* \"Documents/GitHub/contract-token-cryptoMonster/backend/components/Seed.sol\":808:814  800000 */\n  0x0c3500\n    /* \"Documents/GitHub/contract-token-cryptoMonster/backend/components/Seed.sol\":759:815  structUser(\"Private provider\", get_hash(\"1423\"), 800000) */\n  dup2\n  mstore\n  pop\n    /* \"Documents/GitHub/contract-token-cryptoMonster/backend/components/Seed.sol\":726:737  structUser_ */\n  0x00\n    /* \"Documents/GitHub/contract-token-cryptoMonster/backend/components/Seed.sol\":726:756  structUser_[investorSecondAdr] */\n  dup1\n    /* \"Documents/GitHub/contract-token-cryptoMonster/backend/components/Seed.sol\":738:755  investorSecondAdr */\n  dup5\n    /* \"Documents/GitHub/contract-token-cryptoMonster/backend/components/Seed.sol\":726:756  structUser_[investorSecondAdr] */\n  0xffffffffffffffffffffffffffffffffffffffff\n  and\n  0xffffffffffffffffffffffffffffffffffffffff\n  and\n  dup2\n  mstore\n  0x20\n  add\n  swap1\n  dup2\n  mstore\n  0x20\n  add\n  0x00\n  keccak256\n    /* \"Documents/GitHub/contract-token-cryptoMonster/backend/components/Seed.sol\":726:815  structUser_[investorSecondAdr] = structUser(\"Private provider\", get_hash(\"1423\"), 800000) */\n  0x00\n  dup3\n  add\n  mload\n  dup2\n  0x00\n  add\n  swap1\n  dup1\n  mload\n  swap1\n  0x20\n  add\n  swap1\n  tag_12\n  swap3\n  swap2\n  swap1\n  tag_10\n  jump\t// in\ntag_12:\n  pop\n  0x20\n  dup3\n  add\n  mload\n  dup2\n  0x01\n  add\n  sstore\n  0x40\n  dup3\n  add\n  mload\n  dup2\n  0x02\n  add\n  sstore\n  swap1\n  pop\n  pop\n    /* \"Documents/GitHub/contract-token-cryptoMonster/backend/components/Seed.sol\":877:932  structUser(\"Public provider\", get_hash(\"2314\"), 400000) */\n  mload(0x40)\n  dup1\n  0x60\n  add\n  0x40\n  mstore\n  dup1\n  mload(0x40)\n  dup1\n  0x40\n  add\n  0x40\n  mstore\n  dup1\n  0x0f\n  dup2\n  mstore\n  0x20\n  add\n  0x5075626c69632070726f76696465720000000000000000000000000000000000\n  dup2\n  mstore\n  pop\n  dup2\n  mstore\n  0x20\n  add\n    /* \"Documents/GitHub/contract-token-cryptoMonster/backend/components/Seed.sol\":907:923  get_hash(\"2314\") */\n  tag_13\n  mload(0x40)\n  dup1\n  0x40\n  add\n  0x40\n  mstore\n  dup1\n  0x04\n  dup2\n  mstore\n  0x20\n  add\n  0x3233313400000000000000000000000000000000000000000000000000000000\n  dup2\n  mstore\n  pop\n    /* \"Documents/GitHub/contract-token-cryptoMonster/backend/components/Seed.sol\":907:915  get_hash */\n  shl(0x20, tag_8)\n    /* \"Documents/GitHub/contract-token-cryptoMonster/backend/components/Seed.sol\":907:923  get_hash(\"2314\") */\n  0x20\n  shr\n  jump\t// in\ntag_13:\n    /* \"Documents/GitHub/contract-token-cryptoMonster/backend/components/Seed.sol\":877:932  structUser(\"Public provider\", get_hash(\"2314\"), 400000) */\n  dup2\n  mstore\n  0x20\n  add\n    /* \"Documents/GitHub/contract-token-cryptoMonster/backend/components/Seed.sol\":925:931  400000 */\n  0x061a80\n    /* \"Documents/GitHub/contract-token-cryptoMonster/backend/components/Seed.sol\":877:932  structUser(\"Public provider\", get_hash(\"2314\"), 400000) */\n  dup2\n  mstore\n  pop\n    /* \"Documents/GitHub/contract-token-cryptoMonster/backend/components/Seed.sol\":848:859  structUser_ */\n  0x00\n    /* \"Documents/GitHub/contract-token-cryptoMonster/backend/components/Seed.sol\":848:874  structUser_[bestFriendAdr] */\n  dup1\n    /* \"Documents/GitHub/contract-token-cryptoMonster/backend/components/Seed.sol\":860:873  bestFriendAdr */\n  dup4\n    /* \"Documents/GitHub/contract-token-cryptoMonster/backend/components/Seed.sol\":848:874  structUser_[bestFriendAdr] */\n  0xffffffffffffffffffffffffffffffffffffffff\n  and\n  0xffffffffffffffffffffffffffffffffffffffff\n  and\n  dup2\n  mstore\n  0x20\n  add\n  swap1\n  dup2\n  mstore\n  0x20\n  add\n  0x00\n  keccak256\n    /* \"Documents/GitHub/contract-token-cryptoMonster/backend/components/Seed.sol\":848:932  structUser_[bestFriendAdr] = structUser(\"Public provider\", get_hash(\"2314\"), 400000) */\n  0x00\n  dup3\n  add\n  mload\n  dup2\n  0x00\n  add\n  swap1\n  dup1\n  mload\n  swap1\n  0x20\n  add\n  swap1\n  tag_14\n  swap3\n  swap2\n  swap1\n  tag_10\n  jump\t// in\ntag_14:\n  pop\n  0x20\n  dup3\n  add\n  mload\n  dup2\n  0x01\n  add\n  sstore\n  0x40\n  dup3\n  add\n  mload\n  dup2\n  0x02\n  add\n  sstore\n  swap1\n  pop\n  pop\n    /* \"Documents/GitHub/contract-token-cryptoMonster/backend/components/Seed.sol\":170:970  {\r... */\n  pop\n  pop\n  pop\n    /* \"Documents/GitHub/contract-token-cryptoMonster/backend/components/CryptoMonster.sol\":1510:1515  total */\n  dup1\n    /* \"Documents/GitHub/contract-token-cryptoMonster/backend/components/CryptoMonster.sol\":1495:1507  totalSupply_ */\n  0x02\n    /* \"Documents/GitHub/contract-token-cryptoMonster/backend/components/CryptoMonster.sol\":1495:1515  totalSupply_ = total */\n  dup2\n  swap1\n  sstore\n  pop\n    /* \"Documents/GitHub/contract-token-cryptoMonster/backend/components/CryptoMonster.sol\":1676:1692  address ownerAdr */\n  0x00\n    /* \"Documents/GitHub/contract-token-cryptoMonster/backend/components/CryptoMonster.sol\":1695:1737  0x5B38Da6a701c568545dCfcB03FcB875f56beddC4 */\n  0x5b38da6a701c568545dcfcb03fcb875f56beddc4\n    /* \"Documents/GitHub/contract-token-cryptoMonster/backend/components/CryptoMonster.sol\":1676:1737  address ownerAdr = 0x5B38Da6a701c568545dCfcB03FcB875f56beddC4 */\n  swap1\n  pop\n    /* \"Documents/GitHub/contract-token-cryptoMonster/backend/components/CryptoMonster.sol\":1778:1804  address privateProviderAdr */\n  0x00\n    /* \"Documents/GitHub/contract-token-cryptoMonster/backend/components/CryptoMonster.sol\":1807:1849  0xAb8483F64d9C6d1EcF9b849Ae677dD3315835cb2 */\n  0xab8483f64d9c6d1ecf9b849ae677dd3315835cb2\n    /* \"Documents/GitHub/contract-token-cryptoMonster/backend/components/CryptoMonster.sol\":1778:1849  address privateProviderAdr = 0xAb8483F64d9C6d1EcF9b849Ae677dD3315835cb2 */\n  swap1\n  pop\n    /* \"Documents/GitHub/contract-token-cryptoMonster/backend/components/CryptoMonster.sol\":1890:1915  address publicProviderAdr */\n  0x00\n    /* \"Documents/GitHub/contract-token-cryptoMonster/backend/components/CryptoMonster.sol\":1918:1960  0xAb8483F64d9C6d1EcF9b849Ae677dD3315835cb2 */\n  0xab8483f64d9c6d1ecf9b849ae677dd3315835cb2\n    /* \"Documents/GitHub/contract-token-cryptoMonster/backend/components/CryptoMonster.sol\":1890:1960  address publicProviderAdr = 0xAb8483F64d9C6d1EcF9b849Ae677dD3315835cb2 */\n  swap1\n  pop\n    /* \"Documents/GitHub/contract-token-cryptoMonster/backend/components/CryptoMonster.sol\":2027:2078  structUser(\"owner\", get_hash(\"3412\"), totalSupply_) */\n  mload(0x40)\n  dup1\n  0x60\n  add\n  0x40\n  mstore\n  dup1\n  mload(0x40)\n  dup1\n  0x40\n  add\n  0x40\n  mstore\n  dup1\n  0x05\n  dup2\n  mstore\n  0x20\n  add\n  0x6f776e6572000000000000000000000000000000000000000000000000000000\n  dup2\n  mstore\n  pop\n  dup2\n  mstore\n  0x20\n  add\n    /* \"Documents/GitHub/contract-token-cryptoMonster/backend/components/CryptoMonster.sol\":2047:2063  get_hash(\"3412\") */\n  tag_16\n  mload(0x40)\n  dup1\n  0x40\n  add\n  0x40\n  mstore\n  dup1\n  0x04\n  dup2\n  mstore\n  0x20\n  add\n  0x3334313200000000000000000000000000000000000000000000000000000000\n  dup2\n  mstore\n  pop\n    /* \"Documents/GitHub/contract-token-cryptoMonster/backend/components/CryptoMonster.sol\":2047:2055  get_hash */\n  shl(0x20, tag_8)\n    /* \"Documents/GitHub/contract-token-cryptoMonster/backend/components/CryptoMonster.sol\":2047:2063  get_hash(\"3412\") */\n  0x20\n  shr\n  jump\t// in\ntag_16:\n    /* \"Documents/GitHub/contract-token-cryptoMonster/backend/components/CryptoMonster.sol\":2027:2078  structUser(\"owner\", get_hash(\"3412\"), totalSupply_) */\n  dup2\n  mstore\n  0x20\n  add\n    /* \"Documents/GitHub/contract-token-cryptoMonster/backend/components/CryptoMonster.sol\":2065:2077  totalSupply_ */\n  sload(0x02)\n    /* \"Documents/GitHub/contract-token-cryptoMonster/backend/components/CryptoMonster.sol\":2027:2078  structUser(\"owner\", get_hash(\"3412\"), totalSupply_) */\n  dup2\n  mstore\n  pop\n    /* \"Documents/GitHub/contract-token-cryptoMonster/backend/components/CryptoMonster.sol\":2003:2014  structUser_ */\n  0x00\n    /* \"Documents/GitHub/contract-token-cryptoMonster/backend/components/CryptoMonster.sol\":2003:2024  structUser_[ownerAdr] */\n  dup1\n    /* \"Documents/GitHub/contract-token-cryptoMonster/backend/components/CryptoMonster.sol\":2015:2023  ownerAdr */\n  dup6\n    /* \"Documents/GitHub/contract-token-cryptoMonster/backend/components/CryptoMonster.sol\":2003:2024  structUser_[ownerAdr] */\n  0xffffffffffffffffffffffffffffffffffffffff\n  and\n  0xffffffffffffffffffffffffffffffffffffffff\n  and\n  dup2\n  mstore\n  0x20\n  add\n  swap1\n  dup2\n  mstore\n  0x20\n  add\n  0x00\n  keccak256\n    /* \"Documents/GitHub/contract-token-cryptoMonster/backend/components/CryptoMonster.sol\":2003:2078  structUser_[ownerAdr] = structUser(\"owner\", get_hash(\"3412\"), totalSupply_) */\n  0x00\n  dup3\n  add\n  mload\n  dup2\n  0x00\n  add\n  swap1\n  dup1\n  mload\n  swap1\n  0x20\n  add\n  swap1\n  tag_17\n  swap3\n  swap2\n  swap1\n  tag_10\n  jump\t// in\ntag_17:\n  pop\n  0x20\n  dup3\n  add\n  mload\n  dup2\n  0x01\n  add\n  sstore\n  0x40\n  dup3\n  add\n  mload\n  dup2\n  0x02\n  add\n  sstore\n  swap1\n  pop\n  pop\n    /* \"Documents/GitHub/contract-token-cryptoMonster/backend/components/CryptoMonster.sol\":2154:2205  structUser(\"Private provider\", get_hash(\"1423\"), 0) */\n  mload(0x40)\n  dup1\n  0x60\n  add\n  0x40\n  mstore\n  dup1\n  mload(0x40)\n  dup1\n  0x40\n  add\n  0x40\n  mstore\n  dup1\n  0x10\n  dup2\n  mstore\n  0x20\n  add\n  0x507269766174652070726f766964657200000000000000000000000000000000\n  dup2\n  mstore\n  pop\n  dup2\n  mstore\n  0x20\n  add\n    /* \"Documents/GitHub/contract-token-cryptoMonster/backend/components/CryptoMonster.sol\":2185:2201  get_hash(\"1423\") */\n  tag_18\n  mload(0x40)\n  dup1\n  0x40\n  add\n  0x40\n  mstore\n  dup1\n  0x04\n  dup2\n  mstore\n  0x20\n  add\n  0x3134323300000000000000000000000000000000000000000000000000000000\n  dup2\n  mstore\n  pop\n    /* \"Documents/GitHub/contract-token-cryptoMonster/backend/components/CryptoMonster.sol\":2185:2193  get_hash */\n  shl(0x20, tag_8)\n    /* \"Documents/GitHub/contract-token-cryptoMonster/backend/components/CryptoMonster.sol\":2185:2201  get_hash(\"1423\") */\n  0x20\n  shr\n  jump\t// in\ntag_18:\n    /* \"Documents/GitHub/contract-token-cryptoMonster/backend/components/CryptoMonster.sol\":2154:2205  structUser(\"Private provider\", get_hash(\"1423\"), 0) */\n  dup2\n  mstore\n  0x20\n  add\n    /* \"Documents/GitHub/contract-token-cryptoMonster/backend/components/CryptoMonster.sol\":2203:2204  0 */\n  0x00\n    /* \"Documents/GitHub/contract-token-cryptoMonster/backend/components/CryptoMonster.sol\":2154:2205  structUser(\"Private provider\", get_hash(\"1423\"), 0) */\n  dup2\n  mstore\n  pop\n    /* \"Documents/GitHub/contract-token-cryptoMonster/backend/components/CryptoMonster.sol\":2120:2131  structUser_ */\n  0x00\n    /* \"Documents/GitHub/contract-token-cryptoMonster/backend/components/CryptoMonster.sol\":2120:2151  structUser_[privateProviderAdr] */\n  dup1\n    /* \"Documents/GitHub/contract-token-cryptoMonster/backend/components/CryptoMonster.sol\":2132:2150  privateProviderAdr */\n  dup5\n    /* \"Documents/GitHub/contract-token-cryptoMonster/backend/components/CryptoMonster.sol\":2120:2151  structUser_[privateProviderAdr] */\n  0xffffffffffffffffffffffffffffffffffffffff\n  and\n  0xffffffffffffffffffffffffffffffffffffffff\n  and\n  dup2\n  mstore\n  0x20\n  add\n  swap1\n  dup2\n  mstore\n  0x20\n  add\n  0x00\n  keccak256\n    /* \"Documents/GitHub/contract-token-cryptoMonster/backend/components/CryptoMonster.sol\":2120:2205  structUser_[privateProviderAdr] = structUser(\"Private provider\", get_hash(\"1423\"), 0) */\n  0x00\n  dup3\n  add\n  mload\n  dup2\n  0x00\n  add\n  swap1\n  dup1\n  mload\n  swap1\n  0x20\n  add\n  swap1\n  tag_19\n  swap3\n  swap2\n  swap1\n  tag_10\n  jump\t// in\ntag_19:\n  pop\n  0x20\n  dup3\n  add\n  mload\n  dup2\n  0x01\n  add\n  sstore\n  0x40\n  dup3\n  add\n  mload\n  dup2\n  0x02\n  add\n  sstore\n  swap1\n  pop\n  pop\n    /* \"Documents/GitHub/contract-token-cryptoMonster/backend/components/CryptoMonster.sol\":2286:2298  totalSupply_ */\n  sload(0x02)\n    /* \"Documents/GitHub/contract-token-cryptoMonster/backend/components/CryptoMonster.sol\":2246:2253  allowed */\n  0x01\n    /* \"Documents/GitHub/contract-token-cryptoMonster/backend/components/CryptoMonster.sol\":2246:2263  allowed[ownerAdr] */\n  0x00\n    /* \"Documents/GitHub/contract-token-cryptoMonster/backend/components/CryptoMonster.sol\":2254:2262  ownerAdr */\n  dup6\n    /* \"Documents/GitHub/contract-token-cryptoMonster/backend/components/CryptoMonster.sol\":2246:2263  allowed[ownerAdr] */\n  0xffffffffffffffffffffffffffffffffffffffff\n  and\n  0xffffffffffffffffffffffffffffffffffffffff\n  and\n  dup2\n  mstore\n  0x20\n  add\n  swap1\n  dup2\n  mstore\n  0x20\n  add\n  0x00\n  keccak256\n    /* \"Documents/GitHub/contract-token-cryptoMonster/backend/components/CryptoMonster.sol\":2246:2283  allowed[ownerAdr][privateProviderAdr] */\n  0x00\n    /* \"Documents/GitHub/contract-token-cryptoMonster/backend/components/CryptoMonster.sol\":2264:2282  privateProviderAdr */\n  dup5\n    /* \"Documents/GitHub/contract-token-cryptoMonster/backend/components/CryptoMonster.sol\":2246:2283  allowed[ownerAdr][privateProviderAdr] */\n  0xffffffffffffffffffffffffffffffffffffffff\n  and\n  0xffffffffffffffffffffffffffffffffffffffff\n  and\n  dup2\n  mstore\n  0x20\n  add\n  swap1\n  dup2\n  mstore\n  0x20\n  add\n  0x00\n  keccak256\n    /* \"Documents/GitHub/contract-token-cryptoMonster/backend/components/CryptoMonster.sol\":2246:2298  allowed[ownerAdr][privateProviderAdr] = totalSupply_ */\n  dup2\n  swap1\n  sstore\n  pop\n    /* \"Documents/GitHub/contract-token-cryptoMonster/backend/components/CryptoMonster.sol\":2434:2484  structUser(\"Public provider\", get_hash(\"2314\"), 0) */\n  mload(0x40)\n  dup1\n  0x60\n  add\n  0x40\n  mstore\n  dup1\n  mload(0x40)\n  dup1\n  0x40\n  add\n  0x40\n  mstore\n  dup1\n  0x0f\n  dup2\n  mstore\n  0x20\n  add\n  0x5075626c69632070726f76696465720000000000000000000000000000000000\n  dup2\n  mstore\n  pop\n  dup2\n  mstore\n  0x20\n  add\n    /* \"Documents/GitHub/contract-token-cryptoMonster/backend/components/CryptoMonster.sol\":2464:2480  get_hash(\"2314\") */\n  tag_20\n  mload(0x40)\n  dup1\n  0x40\n  add\n  0x40\n  mstore\n  dup1\n  0x04\n  dup2\n  mstore\n  0x20\n  add\n  0x3233313400000000000000000000000000000000000000000000000000000000\n  dup2\n  mstore\n  pop\n    /* \"Documents/GitHub/contract-token-cryptoMonster/backend/components/CryptoMonster.sol\":2464:2472  get_hash */\n  shl(0x20, tag_8)\n    /* \"Documents/GitHub/contract-token-cryptoMonster/backend/components/CryptoMonster.sol\":2464:2480  get_hash(\"2314\") */\n  0x20\n  shr\n  jump\t// in\ntag_20:\n    /* \"Documents/GitHub/contract-token-cryptoMonster/backend/components/CryptoMonster.sol\":2434:2484  structUser(\"Public provider\", get_hash(\"2314\"), 0) */\n  dup2\n  mstore\n  0x20\n  add\n    /* \"Documents/GitHub/contract-token-cryptoMonster/backend/components/CryptoMonster.sol\":2482:2483  0 */\n  0x00\n    /* \"Documents/GitHub/contract-token-cryptoMonster/backend/components/CryptoMonster.sol\":2434:2484  structUser(\"Public provider\", get_hash(\"2314\"), 0) */\n  dup2\n  mstore\n  pop\n    /* \"Documents/GitHub/contract-token-cryptoMonster/backend/components/CryptoMonster.sol\":2401:2412  structUser_ */\n  0x00\n    /* \"Documents/GitHub/contract-token-cryptoMonster/backend/components/CryptoMonster.sol\":2401:2431  structUser_[publicProviderAdr] */\n  dup1\n    /* \"Documents/GitHub/contract-token-cryptoMonster/backend/components/CryptoMonster.sol\":2413:2430  publicProviderAdr */\n  dup4\n    /* \"Documents/GitHub/contract-token-cryptoMonster/backend/components/CryptoMonster.sol\":2401:2431  structUser_[publicProviderAdr] */\n  0xffffffffffffffffffffffffffffffffffffffff\n  and\n  0xffffffffffffffffffffffffffffffffffffffff\n  and\n  dup2\n  mstore\n  0x20\n  add\n  swap1\n  dup2\n  mstore\n  0x20\n  add\n  0x00\n  keccak256\n    /* \"Documents/GitHub/contract-token-cryptoMonster/backend/components/CryptoMonster.sol\":2401:2484  structUser_[publicProviderAdr] = structUser(\"Public provider\", get_hash(\"2314\"), 0) */\n  0x00\n  dup3\n  add\n  mload\n  dup2\n  0x00\n  add\n  swap1\n  dup1\n  mload\n  swap1\n  0x20\n  add\n  swap1\n  tag_21\n  swap3\n  swap2\n  swap1\n  tag_10\n  jump\t// in\ntag_21:\n  pop\n  0x20\n  dup3\n  add\n  mload\n  dup2\n  0x01\n  add\n  sstore\n  0x40\n  dup3\n  add\n  mload\n  dup2\n  0x02\n  add\n  sstore\n  swap1\n  pop\n  pop\n    /* \"Documents/GitHub/contract-token-cryptoMonster/backend/components/CryptoMonster.sol\":2565:2577  totalSupply_ */\n  sload(0x02)\n    /* \"Documents/GitHub/contract-token-cryptoMonster/backend/components/CryptoMonster.sol\":2526:2533  allowed */\n  0x01\n    /* \"Documents/GitHub/contract-token-cryptoMonster/backend/components/CryptoMonster.sol\":2526:2543  allowed[ownerAdr] */\n  0x00\n    /* \"Documents/GitHub/contract-token-cryptoMonster/backend/components/CryptoMonster.sol\":2534:2542  ownerAdr */\n  dup6\n    /* \"Documents/GitHub/contract-token-cryptoMonster/backend/components/CryptoMonster.sol\":2526:2543  allowed[ownerAdr] */\n  0xffffffffffffffffffffffffffffffffffffffff\n  and\n  0xffffffffffffffffffffffffffffffffffffffff\n  and\n  dup2\n  mstore\n  0x20\n  add\n  swap1\n  dup2\n  mstore\n  0x20\n  add\n  0x00\n  keccak256\n    /* \"Documents/GitHub/contract-token-cryptoMonster/backend/components/CryptoMonster.sol\":2526:2562  allowed[ownerAdr][publicProviderAdr] */\n  0x00\n    /* \"Documents/GitHub/contract-token-cryptoMonster/backend/components/CryptoMonster.sol\":2544:2561  publicProviderAdr */\n  dup4\n    /* \"Documents/GitHub/contract-token-cryptoMonster/backend/components/CryptoMonster.sol\":2526:2562  allowed[ownerAdr][publicProviderAdr] */\n  0xffffffffffffffffffffffffffffffffffffffff\n  and\n  0xffffffffffffffffffffffffffffffffffffffff\n  and\n  dup2\n  mstore\n  0x20\n  add\n  swap1\n  dup2\n  mstore\n  0x20\n  add\n  0x00\n  keccak256\n    /* \"Documents/GitHub/contract-token-cryptoMonster/backend/components/CryptoMonster.sol\":2526:2577  allowed[ownerAdr][publicProviderAdr] = totalSupply_ */\n  dup2\n  swap1\n  sstore\n  pop\n    /* \"Documents/GitHub/contract-token-cryptoMonster/backend/components/CryptoMonster.sol\":1484:2677  {\r... */\n  pop\n  pop\n  pop\n    /* \"Documents/GitHub/contract-token-cryptoMonster/backend/components/CryptoMonster.sol\":1457:2677  constructor(uint256 total) {\r... */\n  pop\n    /* \"Documents/GitHub/contract-token-cryptoMonster/backend/components/CryptoMonster.sol\":496:7189  contract CryptoMonster is IERC20, Main, Seed {\r... */\n  jump(tag_22)\n    /* \"Documents/GitHub/contract-token-cryptoMonster/backend/shared/helpers/getFuncs.sol\":144:285  function get_hash(string memory _password) public pure returns(bytes32) {\r... */\ntag_8:\n    /* \"Documents/GitHub/contract-token-cryptoMonster/backend/shared/helpers/getFuncs.sol\":207:214  bytes32 */\n  0x00\n    /* \"Documents/GitHub/contract-token-cryptoMonster/backend/shared/helpers/getFuncs.sol\":265:274  _password */\n  dup2\n    /* \"Documents/GitHub/contract-token-cryptoMonster/backend/shared/helpers/getFuncs.sol\":248:275  abi.encodePacked(_password) */\n  add(0x20, mload(0x40))\n  tag_24\n  swap2\n  swap1\n  tag_25\n  jump\t// in\ntag_24:\n  mload(0x40)\n  0x20\n  dup2\n  dup4\n  sub\n  sub\n  dup2\n  mstore\n  swap1\n  0x40\n  mstore\n    /* \"Documents/GitHub/contract-token-cryptoMonster/backend/shared/helpers/getFuncs.sol\":238:276  keccak256(abi.encodePacked(_password)) */\n  dup1\n  mload\n  swap1\n  0x20\n  add\n  keccak256\n    /* \"Documents/GitHub/contract-token-cryptoMonster/backend/shared/helpers/getFuncs.sol\":231:277  return(keccak256(abi.encodePacked(_password))) */\n  swap1\n  pop\n    /* \"Documents/GitHub/contract-token-cryptoMonster/backend/shared/helpers/getFuncs.sol\":144:285  function get_hash(string memory _password) public pure returns(bytes32) {\r... */\n  swap2\n  swap1\n  pop\n  jump\t// out\n    /* \"Documents/GitHub/contract-token-cryptoMonster/backend/components/CryptoMonster.sol\":496:7189  contract CryptoMonster is IERC20, Main, Seed {\r... */\ntag_10:\n  dup3\n  dup1\n  sload\n  tag_26\n  swap1\n  tag_27\n  jump\t// in\ntag_26:\n  swap1\n  0x00\n  mstore\n  keccak256(0x00, 0x20)\n  swap1\n  0x1f\n  add\n  0x20\n  swap1\n  div\n  dup2\n  add\n  swap3\n  dup3\n  tag_29\n  jumpi\n  0x00\n  dup6\n  sstore\n  jump(tag_28)\ntag_29:\n  dup3\n  0x1f\n  lt\n  tag_30\n  jumpi\n  dup1\n  mload\n  not(0xff)\n  and\n  dup4\n  dup1\n  add\n  or\n  dup6\n  sstore\n  jump(tag_28)\ntag_30:\n  dup3\n  dup1\n  add\n  0x01\n  add\n  dup6\n  sstore\n  dup3\n  iszero\n  tag_28\n  jumpi\n  swap2\n  dup3\n  add\ntag_31:\n  dup3\n  dup2\n  gt\n  iszero\n  tag_32\n  jumpi\n  dup3\n  mload\n  dup3\n  sstore\n  swap2\n  0x20\n  add\n  swap2\n  swap1\n  0x01\n  add\n  swap1\n  jump(tag_31)\ntag_32:\ntag_28:\n  pop\n  swap1\n  pop\n  tag_33\n  swap2\n  swap1\n  tag_34\n  jump\t// in\ntag_33:\n  pop\n  swap1\n  jump\t// out\ntag_34:\ntag_35:\n  dup1\n  dup3\n  gt\n  iszero\n  tag_36\n  jumpi\n  0x00\n  dup2\n  0x00\n  swap1\n  sstore\n  pop\n  0x01\n  add\n  jump(tag_35)\ntag_36:\n  pop\n  swap1\n  jump\t// out\n    /* \"#utility.yul\":7:150   */\ntag_38:\n    /* \"#utility.yul\":64:69   */\n  0x00\n    /* \"#utility.yul\":95:101   */\n  dup2\n    /* \"#utility.yul\":89:102   */\n  mload\n    /* \"#utility.yul\":80:102   */\n  swap1\n  pop\n    /* \"#utility.yul\":111:144   */\n  tag_40\n    /* \"#utility.yul\":138:143   */\n  dup2\n    /* \"#utility.yul\":111:144   */\n  tag_41\n  jump\t// in\ntag_40:\n    /* \"#utility.yul\":7:150   */\n  swap3\n  swap2\n  pop\n  pop\n  jump\t// out\n    /* \"#utility.yul\":156:507   */\ntag_3:\n    /* \"#utility.yul\":226:232   */\n  0x00\n    /* \"#utility.yul\":275:277   */\n  0x20\n    /* \"#utility.yul\":263:272   */\n  dup3\n    /* \"#utility.yul\":254:261   */\n  dup5\n    /* \"#utility.yul\":250:273   */\n  sub\n    /* \"#utility.yul\":246:278   */\n  slt\n    /* \"#utility.yul\":243:362   */\n  iszero\n  tag_43\n  jumpi\n    /* \"#utility.yul\":281:360   */\n  tag_44\n  tag_45\n  jump\t// in\ntag_44:\n    /* \"#utility.yul\":243:362   */\ntag_43:\n    /* \"#utility.yul\":401:402   */\n  0x00\n    /* \"#utility.yul\":426:490   */\n  tag_46\n    /* \"#utility.yul\":482:489   */\n  dup5\n    /* \"#utility.yul\":473:479   */\n  dup3\n    /* \"#utility.yul\":462:471   */\n  dup6\n    /* \"#utility.yul\":458:480   */\n  add\n    /* \"#utility.yul\":426:490   */\n  tag_38\n  jump\t// in\ntag_46:\n    /* \"#utility.yul\":416:490   */\n  swap2\n  pop\n    /* \"#utility.yul\":372:500   */\n  pop\n    /* \"#utility.yul\":156:507   */\n  swap3\n  swap2\n  pop\n  pop\n  jump\t// out\n    /* \"#utility.yul\":513:890   */\ntag_47:\n    /* \"#utility.yul\":619:622   */\n  0x00\n    /* \"#utility.yul\":647:686   */\n  tag_49\n    /* \"#utility.yul\":680:685   */\n  dup3\n    /* \"#utility.yul\":647:686   */\n  tag_50\n  jump\t// in\ntag_49:\n    /* \"#utility.yul\":702:791   */\n  tag_51\n    /* \"#utility.yul\":784:790   */\n  dup2\n    /* \"#utility.yul\":779:782   */\n  dup6\n    /* \"#utility.yul\":702:791   */\n  tag_52\n  jump\t// in\ntag_51:\n    /* \"#utility.yul\":695:791   */\n  swap4\n  pop\n    /* \"#utility.yul\":800:852   */\n  tag_53\n    /* \"#utility.yul\":845:851   */\n  dup2\n    /* \"#utility.yul\":840:843   */\n  dup6\n    /* \"#utility.yul\":833:837   */\n  0x20\n    /* \"#utility.yul\":826:831   */\n  dup7\n    /* \"#utility.yul\":822:838   */\n  add\n    /* \"#utility.yul\":800:852   */\n  tag_54\n  jump\t// in\ntag_53:\n    /* \"#utility.yul\":877:883   */\n  dup1\n    /* \"#utility.yul\":872:875   */\n  dup5\n    /* \"#utility.yul\":868:884   */\n  add\n    /* \"#utility.yul\":861:884   */\n  swap2\n  pop\n    /* \"#utility.yul\":623:890   */\n  pop\n    /* \"#utility.yul\":513:890   */\n  swap3\n  swap2\n  pop\n  pop\n  jump\t// out\n    /* \"#utility.yul\":896:1171   */\ntag_25:\n    /* \"#utility.yul\":1028:1031   */\n  0x00\n    /* \"#utility.yul\":1050:1145   */\n  tag_56\n    /* \"#utility.yul\":1141:1144   */\n  dup3\n    /* \"#utility.yul\":1132:1138   */\n  dup5\n    /* \"#utility.yul\":1050:1145   */\n  tag_47\n  jump\t// in\ntag_56:\n    /* \"#utility.yul\":1043:1145   */\n  swap2\n  pop\n    /* \"#utility.yul\":1162:1165   */\n  dup2\n    /* \"#utility.yul\":1155:1165   */\n  swap1\n  pop\n    /* \"#utility.yul\":896:1171   */\n  swap3\n  swap2\n  pop\n  pop\n  jump\t// out\n    /* \"#utility.yul\":1258:1357   */\ntag_50:\n    /* \"#utility.yul\":1310:1316   */\n  0x00\n    /* \"#utility.yul\":1344:1349   */\n  dup2\n    /* \"#utility.yul\":1338:1350   */\n  mload\n    /* \"#utility.yul\":1328:1350   */\n  swap1\n  pop\n    /* \"#utility.yul\":1258:1357   */\n  swap2\n  swap1\n  pop\n  jump\t// out\n    /* \"#utility.yul\":1363:1511   */\ntag_52:\n    /* \"#utility.yul\":1465:1476   */\n  0x00\n    /* \"#utility.yul\":1502:1505   */\n  dup2\n    /* \"#utility.yul\":1487:1505   */\n  swap1\n  pop\n    /* \"#utility.yul\":1363:1511   */\n  swap3\n  swap2\n  pop\n  pop\n  jump\t// out\n    /* \"#utility.yul\":1517:1594   */\ntag_61:\n    /* \"#utility.yul\":1554:1561   */\n  0x00\n    /* \"#utility.yul\":1583:1588   */\n  dup2\n    /* \"#utility.yul\":1572:1588   */\n  swap1\n  pop\n    /* \"#utility.yul\":1517:1594   */\n  swap2\n  swap1\n  pop\n  jump\t// out\n    /* \"#utility.yul\":1600:1907   */\ntag_54:\n    /* \"#utility.yul\":1668:1669   */\n  0x00\n    /* \"#utility.yul\":1678:1791   */\ntag_64:\n    /* \"#utility.yul\":1692:1698   */\n  dup4\n    /* \"#utility.yul\":1689:1690   */\n  dup2\n    /* \"#utility.yul\":1686:1699   */\n  lt\n    /* \"#utility.yul\":1678:1791   */\n  iszero\n  tag_66\n  jumpi\n    /* \"#utility.yul\":1777:1778   */\n  dup1\n    /* \"#utility.yul\":1772:1775   */\n  dup3\n    /* \"#utility.yul\":1768:1779   */\n  add\n    /* \"#utility.yul\":1762:1780   */\n  mload\n    /* \"#utility.yul\":1758:1759   */\n  dup2\n    /* \"#utility.yul\":1753:1756   */\n  dup5\n    /* \"#utility.yul\":1749:1760   */\n  add\n    /* \"#utility.yul\":1742:1781   */\n  mstore\n    /* \"#utility.yul\":1714:1716   */\n  0x20\n    /* \"#utility.yul\":1711:1712   */\n  dup2\n    /* \"#utility.yul\":1707:1717   */\n  add\n    /* \"#utility.yul\":1702:1717   */\n  swap1\n  pop\n    /* \"#utility.yul\":1678:1791   */\n  jump(tag_64)\ntag_66:\n    /* \"#utility.yul\":1809:1815   */\n  dup4\n    /* \"#utility.yul\":1806:1807   */\n  dup2\n    /* \"#utility.yul\":1803:1816   */\n  gt\n    /* \"#utility.yul\":1800:1901   */\n  iszero\n  tag_67\n  jumpi\n    /* \"#utility.yul\":1889:1890   */\n  0x00\n    /* \"#utility.yul\":1880:1886   */\n  dup5\n    /* \"#utility.yul\":1875:1878   */\n  dup5\n    /* \"#utility.yul\":1871:1887   */\n  add\n    /* \"#utility.yul\":1864:1891   */\n  mstore\n    /* \"#utility.yul\":1800:1901   */\ntag_67:\n    /* \"#utility.yul\":1649:1907   */\n  pop\n    /* \"#utility.yul\":1600:1907   */\n  pop\n  pop\n  pop\n  jump\t// out\n    /* \"#utility.yul\":1913:2233   */\ntag_27:\n    /* \"#utility.yul\":1957:1963   */\n  0x00\n    /* \"#utility.yul\":1994:1995   */\n  0x02\n    /* \"#utility.yul\":1988:1992   */\n  dup3\n    /* \"#utility.yul\":1984:1996   */\n  div\n    /* \"#utility.yul\":1974:1996   */\n  swap1\n  pop\n    /* \"#utility.yul\":2041:2042   */\n  0x01\n    /* \"#utility.yul\":2035:2039   */\n  dup3\n    /* \"#utility.yul\":2031:2043   */\n  and\n    /* \"#utility.yul\":2062:2080   */\n  dup1\n    /* \"#utility.yul\":2052:2133   */\n  tag_69\n  jumpi\n    /* \"#utility.yul\":2118:2122   */\n  0x7f\n    /* \"#utility.yul\":2110:2116   */\n  dup3\n    /* \"#utility.yul\":2106:2123   */\n  and\n    /* \"#utility.yul\":2096:2123   */\n  swap2\n  pop\n    /* \"#utility.yul\":2052:2133   */\ntag_69:\n    /* \"#utility.yul\":2180:2182   */\n  0x20\n    /* \"#utility.yul\":2172:2178   */\n  dup3\n    /* \"#utility.yul\":2169:2183   */\n  lt\n    /* \"#utility.yul\":2149:2167   */\n  dup2\n    /* \"#utility.yul\":2146:2184   */\n  eq\n    /* \"#utility.yul\":2143:2227   */\n  iszero\n  tag_70\n  jumpi\n    /* \"#utility.yul\":2199:2217   */\n  tag_71\n  tag_72\n  jump\t// in\ntag_71:\n    /* \"#utility.yul\":2143:2227   */\ntag_70:\n    /* \"#utility.yul\":1964:2233   */\n  pop\n    /* \"#utility.yul\":1913:2233   */\n  swap2\n  swap1\n  pop\n  jump\t// out\n    /* \"#utility.yul\":2239:2419   */\ntag_72:\n    /* \"#utility.yul\":2287:2364   */\n  0x4e487b7100000000000000000000000000000000000000000000000000000000\n    /* \"#utility.yul\":2284:2285   */\n  0x00\n    /* \"#utility.yul\":2277:2365   */\n  mstore\n    /* \"#utility.yul\":2384:2388   */\n  0x22\n    /* \"#utility.yul\":2381:2382   */\n  0x04\n    /* \"#utility.yul\":2374:2389   */\n  mstore\n    /* \"#utility.yul\":2408:2412   */\n  0x24\n    /* \"#utility.yul\":2405:2406   */\n  0x00\n    /* \"#utility.yul\":2398:2413   */\n  revert\n    /* \"#utility.yul\":2548:2665   */\ntag_45:\n    /* \"#utility.yul\":2657:2658   */\n  0x00\n    /* \"#utility.yul\":2654:2655   */\n  dup1\n    /* \"#utility.yul\":2647:2659   */\n  revert\n    /* \"#utility.yul\":2671:2793   */\ntag_41:\n    /* \"#utility.yul\":2744:2768   */\n  tag_78\n    /* \"#utility.yul\":2762:2767   */\n  dup2\n    /* \"#utility.yul\":2744:2768   */\n  tag_61\n  jump\t// in\ntag_78:\n    /* \"#utility.yul\":2737:2742   */\n  dup2\n    /* \"#utility.yul\":2734:2769   */\n  eq\n    /* \"#utility.yul\":2724:2787   */\n  tag_79\n  jumpi\n    /* \"#utility.yul\":2783:2784   */\n  0x00\n    /* \"#utility.yul\":2780:2781   */\n  dup1\n    /* \"#utility.yul\":2773:2785   */\n  revert\n    /* \"#utility.yul\":2724:2787   */\ntag_79:\n    /* \"#utility.yul\":2671:2793   */\n  pop\n  jump\t// out\n    /* \"Documents/GitHub/contract-token-cryptoMonster/backend/components/CryptoMonster.sol\":496:7189  contract CryptoMonster is IERC20, Main, Seed {\r... */\ntag_22:\n  dataSize(sub_0)\n  dup1\n  dataOffset(sub_0)\n  0x00\n  codecopy\n  0x00\n  return\nstop\n\nsub_0: assembly {\n        /* \"Documents/GitHub/contract-token-cryptoMonster/backend/components/CryptoMonster.sol\":496:7189  contract CryptoMonster is IERC20, Main, Seed {\r... */\n      mstore(0x40, 0x80)\n      jumpi(tag_1, lt(calldatasize, 0x04))\n      shr(0xe0, calldataload(0x00))\n      dup1\n      0x70a08231\n      gt\n      tag_14\n      jumpi\n      dup1\n      0x70a08231\n      eq\n      tag_8\n      jumpi\n      dup1\n      0x845952a8\n      eq\n      tag_9\n      jumpi\n      dup1\n      0x95d89b41\n      eq\n      tag_10\n      jumpi\n      dup1\n      0xa9059cbb\n      eq\n      tag_11\n      jumpi\n      dup1\n      0xd96a094a\n      eq\n      tag_12\n      jumpi\n      dup1\n      0xdd62ed3e\n      eq\n      tag_13\n      jumpi\n      jump(tag_1)\n    tag_14:\n      dup1\n      0x06fdde03\n      eq\n      tag_2\n      jumpi\n      dup1\n      0x0761c8b9\n      eq\n      tag_3\n      jumpi\n      dup1\n      0x095ea7b3\n      eq\n      tag_4\n      jumpi\n      dup1\n      0x18160ddd\n      eq\n      tag_5\n      jumpi\n      dup1\n      0x23b872dd\n      eq\n      tag_6\n      jumpi\n      dup1\n      0x313ce567\n      eq\n      tag_7\n      jumpi\n    tag_1:\n      0x00\n      dup1\n      revert\n        /* \"Documents/GitHub/contract-token-cryptoMonster/backend/components/CryptoMonster.sol\":713:758  string public constant name = \"CryptoMonster\" */\n    tag_2:\n      callvalue\n      dup1\n      iszero\n      tag_15\n      jumpi\n      0x00\n      dup1\n      revert\n    tag_15:\n      pop\n      tag_16\n      tag_17\n      jump\t// in\n    tag_16:\n      mload(0x40)\n      tag_18\n      swap2\n      swap1\n      tag_19\n      jump\t// in\n    tag_18:\n      mload(0x40)\n      dup1\n      swap2\n      sub\n      swap1\n      return\n        /* \"Documents/GitHub/contract-token-cryptoMonster/backend/components/CryptoMonster.sol\":1277:1325  uint256 public constant tokenPrice_ = 1000000000 */\n    tag_3:\n      callvalue\n      dup1\n      iszero\n      tag_20\n      jumpi\n      0x00\n      dup1\n      revert\n    tag_20:\n      pop\n      tag_21\n      tag_22\n      jump\t// in\n    tag_21:\n      mload(0x40)\n      tag_23\n      swap2\n      swap1\n      tag_24\n      jump\t// in\n    tag_23:\n      mload(0x40)\n      dup1\n      swap2\n      sub\n      swap1\n      return\n        /* \"Documents/GitHub/contract-token-cryptoMonster/backend/components/CryptoMonster.sol\":6393:6762  function approve(address _delegate, uint256 _numTokens) public override returns (bool) {\r... */\n    tag_4:\n      callvalue\n      dup1\n      iszero\n      tag_25\n      jumpi\n      0x00\n      dup1\n      revert\n    tag_25:\n      pop\n      tag_26\n      0x04\n      dup1\n      calldatasize\n      sub\n      dup2\n      add\n      swap1\n      tag_27\n      swap2\n      swap1\n      tag_28\n      jump\t// in\n    tag_27:\n      tag_29\n      jump\t// in\n    tag_26:\n      mload(0x40)\n      tag_30\n      swap2\n      swap1\n      tag_31\n      jump\t// in\n    tag_30:\n      mload(0x40)\n      dup1\n      swap2\n      sub\n      swap1\n      return\n        /* \"Documents/GitHub/contract-token-cryptoMonster/backend/components/CryptoMonster.sol\":3342:3442  function totalSupply() public override view returns (uint256) {\r... */\n    tag_5:\n      callvalue\n      dup1\n      iszero\n      tag_32\n      jumpi\n      0x00\n      dup1\n      revert\n    tag_32:\n      pop\n      tag_33\n      tag_34\n      jump\t// in\n    tag_33:\n      mload(0x40)\n      tag_35\n      swap2\n      swap1\n      tag_24\n      jump\t// in\n    tag_35:\n      mload(0x40)\n      dup1\n      swap2\n      sub\n      swap1\n      return\n        /* \"Documents/GitHub/contract-token-cryptoMonster/backend/components/CryptoMonster.sol\":5261:6057  function transferFrom(address _owner, address _buyer, uint256 _numTokens) public override returns (bool) {\r... */\n    tag_6:\n      callvalue\n      dup1\n      iszero\n      tag_36\n      jumpi\n      0x00\n      dup1\n      revert\n    tag_36:\n      pop\n      tag_37\n      0x04\n      dup1\n      calldatasize\n      sub\n      dup2\n      add\n      swap1\n      tag_38\n      swap2\n      swap1\n      tag_39\n      jump\t// in\n    tag_38:\n      tag_40\n      jump\t// in\n    tag_37:\n      mload(0x40)\n      tag_41\n      swap2\n      swap1\n      tag_31\n      jump\t// in\n    tag_41:\n      mload(0x40)\n      dup1\n      swap2\n      sub\n      swap1\n      return\n        /* \"Documents/GitHub/contract-token-cryptoMonster/backend/components/CryptoMonster.sol\":877:912  uint8 public constant decimals = 12 */\n    tag_7:\n      callvalue\n      dup1\n      iszero\n      tag_42\n      jumpi\n      0x00\n      dup1\n      revert\n    tag_42:\n      pop\n      tag_43\n      tag_44\n      jump\t// in\n    tag_43:\n      mload(0x40)\n      tag_45\n      swap2\n      swap1\n      tag_46\n      jump\t// in\n    tag_45:\n      mload(0x40)\n      dup1\n      swap2\n      sub\n      swap1\n      return\n        /* \"Documents/GitHub/contract-token-cryptoMonster/backend/components/CryptoMonster.sol\":3652:3790  function balanceOf(address _tokenOwner) public override view returns (uint256) {\r... */\n    tag_8:\n      callvalue\n      dup1\n      iszero\n      tag_47\n      jumpi\n      0x00\n      dup1\n      revert\n    tag_47:\n      pop\n      tag_48\n      0x04\n      dup1\n      calldatasize\n      sub\n      dup2\n      add\n      swap1\n      tag_49\n      swap2\n      swap1\n      tag_50\n      jump\t// in\n    tag_49:\n      tag_51\n      jump\t// in\n    tag_48:\n      mload(0x40)\n      tag_52\n      swap2\n      swap1\n      tag_24\n      jump\t// in\n    tag_52:\n      mload(0x40)\n      dup1\n      swap2\n      sub\n      swap1\n      return\n        /* \"Documents/GitHub/contract-token-cryptoMonster/backend/shared/helpers/getFuncs.sol\":144:285  function get_hash(string memory _password) public pure returns(bytes32) {\r... */\n    tag_9:\n      callvalue\n      dup1\n      iszero\n      tag_53\n      jumpi\n      0x00\n      dup1\n      revert\n    tag_53:\n      pop\n      tag_54\n      0x04\n      dup1\n      calldatasize\n      sub\n      dup2\n      add\n      swap1\n      tag_55\n      swap2\n      swap1\n      tag_56\n      jump\t// in\n    tag_55:\n      tag_57\n      jump\t// in\n    tag_54:\n      mload(0x40)\n      tag_58\n      swap2\n      swap1\n      tag_59\n      jump\t// in\n    tag_58:\n      mload(0x40)\n      dup1\n      swap2\n      sub\n      swap1\n      return\n        /* \"Documents/GitHub/contract-token-cryptoMonster/backend/components/CryptoMonster.sol\":798:836  string public constant symbol = \"CMON\" */\n    tag_10:\n      callvalue\n      dup1\n      iszero\n      tag_60\n      jumpi\n      0x00\n      dup1\n      revert\n    tag_60:\n      pop\n      tag_61\n      tag_62\n      jump\t// in\n    tag_61:\n      mload(0x40)\n      tag_63\n      swap2\n      swap1\n      tag_19\n      jump\t// in\n    tag_63:\n      mload(0x40)\n      dup1\n      swap2\n      sub\n      swap1\n      return\n        /* \"Documents/GitHub/contract-token-cryptoMonster/backend/components/CryptoMonster.sol\":4213:4928  function transfer(address _receiver, uint256 _numTokens) public override returns (bool) {\r... */\n    tag_11:\n      callvalue\n      dup1\n      iszero\n      tag_64\n      jumpi\n      0x00\n      dup1\n      revert\n    tag_64:\n      pop\n      tag_65\n      0x04\n      dup1\n      calldatasize\n      sub\n      dup2\n      add\n      swap1\n      tag_66\n      swap2\n      swap1\n      tag_28\n      jump\t// in\n    tag_66:\n      tag_67\n      jump\t// in\n    tag_65:\n      mload(0x40)\n      tag_68\n      swap2\n      swap1\n      tag_31\n      jump\t// in\n    tag_68:\n      mload(0x40)\n      dup1\n      swap2\n      sub\n      swap1\n      return\n        /* \"Documents/GitHub/contract-token-cryptoMonster/backend/components/CryptoMonster.sol\":2750:3140  function buy(uint256 _amount) external payable {\r... */\n    tag_12:\n      tag_69\n      0x04\n      dup1\n      calldatasize\n      sub\n      dup2\n      add\n      swap1\n      tag_70\n      swap2\n      swap1\n      tag_71\n      jump\t// in\n    tag_70:\n      tag_72\n      jump\t// in\n    tag_69:\n      stop\n        /* \"Documents/GitHub/contract-token-cryptoMonster/backend/components/CryptoMonster.sol\":7044:7186  function allowance(address _owner, address _delegate) public override view returns (uint) {\r... */\n    tag_13:\n      callvalue\n      dup1\n      iszero\n      tag_73\n      jumpi\n      0x00\n      dup1\n      revert\n    tag_73:\n      pop\n      tag_74\n      0x04\n      dup1\n      calldatasize\n      sub\n      dup2\n      add\n      swap1\n      tag_75\n      swap2\n      swap1\n      tag_76\n      jump\t// in\n    tag_75:\n      tag_77\n      jump\t// in\n    tag_74:\n      mload(0x40)\n      tag_78\n      swap2\n      swap1\n      tag_24\n      jump\t// in\n    tag_78:\n      mload(0x40)\n      dup1\n      swap2\n      sub\n      swap1\n      return\n        /* \"Documents/GitHub/contract-token-cryptoMonster/backend/components/CryptoMonster.sol\":713:758  string public constant name = \"CryptoMonster\" */\n    tag_17:\n      mload(0x40)\n      dup1\n      0x40\n      add\n      0x40\n      mstore\n      dup1\n      0x0d\n      dup2\n      mstore\n      0x20\n      add\n      0x43727970746f4d6f6e7374657200000000000000000000000000000000000000\n      dup2\n      mstore\n      pop\n      dup2\n      jump\t// out\n        /* \"Documents/GitHub/contract-token-cryptoMonster/backend/components/CryptoMonster.sol\":1277:1325  uint256 public constant tokenPrice_ = 1000000000 */\n    tag_22:\n        /* \"Documents/GitHub/contract-token-cryptoMonster/backend/components/CryptoMonster.sol\":1315:1325  1000000000 */\n      0x3b9aca00\n        /* \"Documents/GitHub/contract-token-cryptoMonster/backend/components/CryptoMonster.sol\":1277:1325  uint256 public constant tokenPrice_ = 1000000000 */\n      dup2\n      jump\t// out\n        /* \"Documents/GitHub/contract-token-cryptoMonster/backend/components/CryptoMonster.sol\":6393:6762  function approve(address _delegate, uint256 _numTokens) public override returns (bool) {\r... */\n    tag_29:\n        /* \"Documents/GitHub/contract-token-cryptoMonster/backend/components/CryptoMonster.sol\":6474:6478  bool */\n      0x00\n        /* \"Documents/GitHub/contract-token-cryptoMonster/backend/components/CryptoMonster.sol\":6524:6534  _numTokens */\n      dup2\n        /* \"Documents/GitHub/contract-token-cryptoMonster/backend/components/CryptoMonster.sol\":6491:6498  allowed */\n      0x01\n        /* \"Documents/GitHub/contract-token-cryptoMonster/backend/components/CryptoMonster.sol\":6491:6510  allowed[msg.sender] */\n      0x00\n        /* \"Documents/GitHub/contract-token-cryptoMonster/backend/components/CryptoMonster.sol\":6499:6509  msg.sender */\n      caller\n        /* \"Documents/GitHub/contract-token-cryptoMonster/backend/components/CryptoMonster.sol\":6491:6510  allowed[msg.sender] */\n      0xffffffffffffffffffffffffffffffffffffffff\n      and\n      0xffffffffffffffffffffffffffffffffffffffff\n      and\n      dup2\n      mstore\n      0x20\n      add\n      swap1\n      dup2\n      mstore\n      0x20\n      add\n      0x00\n      keccak256\n        /* \"Documents/GitHub/contract-token-cryptoMonster/backend/components/CryptoMonster.sol\":6491:6521  allowed[msg.sender][_delegate] */\n      0x00\n        /* \"Documents/GitHub/contract-token-cryptoMonster/backend/components/CryptoMonster.sol\":6511:6520  _delegate */\n      dup6\n        /* \"Documents/GitHub/contract-token-cryptoMonster/backend/components/CryptoMonster.sol\":6491:6521  allowed[msg.sender][_delegate] */\n      0xffffffffffffffffffffffffffffffffffffffff\n      and\n      0xffffffffffffffffffffffffffffffffffffffff\n      and\n      dup2\n      mstore\n      0x20\n      add\n      swap1\n      dup2\n      mstore\n      0x20\n      add\n      0x00\n      keccak256\n        /* \"Documents/GitHub/contract-token-cryptoMonster/backend/components/CryptoMonster.sol\":6491:6534  allowed[msg.sender][_delegate] = _numTokens */\n      dup2\n      swap1\n      sstore\n      pop\n        /* \"Documents/GitHub/contract-token-cryptoMonster/backend/components/CryptoMonster.sol\":6710:6719  _delegate */\n      dup3\n        /* \"Documents/GitHub/contract-token-cryptoMonster/backend/components/CryptoMonster.sol\":6689:6732  Approval(msg.sender, _delegate, _numTokens) */\n      0xffffffffffffffffffffffffffffffffffffffff\n      and\n        /* \"Documents/GitHub/contract-token-cryptoMonster/backend/components/CryptoMonster.sol\":6698:6708  msg.sender */\n      caller\n        /* \"Documents/GitHub/contract-token-cryptoMonster/backend/components/CryptoMonster.sol\":6689:6732  Approval(msg.sender, _delegate, _numTokens) */\n      0xffffffffffffffffffffffffffffffffffffffff\n      and\n      0x8c5be1e5ebec7d5bd14f71427d1e84f3dd0314c0f7b2291e5b200ac8c7c3b925\n        /* \"Documents/GitHub/contract-token-cryptoMonster/backend/components/CryptoMonster.sol\":6721:6731  _numTokens */\n      dup5\n        /* \"Documents/GitHub/contract-token-cryptoMonster/backend/components/CryptoMonster.sol\":6689:6732  Approval(msg.sender, _delegate, _numTokens) */\n      mload(0x40)\n      tag_80\n      swap2\n      swap1\n      tag_24\n      jump\t// in\n    tag_80:\n      mload(0x40)\n      dup1\n      swap2\n      sub\n      swap1\n      log3\n        /* \"Documents/GitHub/contract-token-cryptoMonster/backend/components/CryptoMonster.sol\":6750:6754  true */\n      0x01\n        /* \"Documents/GitHub/contract-token-cryptoMonster/backend/components/CryptoMonster.sol\":6743:6754  return true */\n      swap1\n      pop\n        /* \"Documents/GitHub/contract-token-cryptoMonster/backend/components/CryptoMonster.sol\":6393:6762  function approve(address _delegate, uint256 _numTokens) public override returns (bool) {\r... */\n      swap3\n      swap2\n      pop\n      pop\n      jump\t// out\n        /* \"Documents/GitHub/contract-token-cryptoMonster/backend/components/CryptoMonster.sol\":3342:3442  function totalSupply() public override view returns (uint256) {\r... */\n    tag_34:\n        /* \"Documents/GitHub/contract-token-cryptoMonster/backend/components/CryptoMonster.sol\":3395:3402  uint256 */\n      0x00\n        /* \"Documents/GitHub/contract-token-cryptoMonster/backend/components/CryptoMonster.sol\":3422:3434  totalSupply_ */\n      sload(0x02)\n        /* \"Documents/GitHub/contract-token-cryptoMonster/backend/components/CryptoMonster.sol\":3415:3434  return totalSupply_ */\n      swap1\n      pop\n        /* \"Documents/GitHub/contract-token-cryptoMonster/backend/components/CryptoMonster.sol\":3342:3442  function totalSupply() public override view returns (uint256) {\r... */\n      swap1\n      jump\t// out\n        /* \"Documents/GitHub/contract-token-cryptoMonster/backend/components/CryptoMonster.sol\":5261:6057  function transferFrom(address _owner, address _buyer, uint256 _numTokens) public override returns (bool) {\r... */\n    tag_40:\n        /* \"Documents/GitHub/contract-token-cryptoMonster/backend/components/CryptoMonster.sol\":5360:5364  bool */\n      0x00\n        /* \"Documents/GitHub/contract-token-cryptoMonster/backend/components/CryptoMonster.sol\":5399:5410  structUser_ */\n      dup1\n        /* \"Documents/GitHub/contract-token-cryptoMonster/backend/components/CryptoMonster.sol\":5399:5418  structUser_[_owner] */\n      0x00\n        /* \"Documents/GitHub/contract-token-cryptoMonster/backend/components/CryptoMonster.sol\":5411:5417  _owner */\n      dup6\n        /* \"Documents/GitHub/contract-token-cryptoMonster/backend/components/CryptoMonster.sol\":5399:5418  structUser_[_owner] */\n      0xffffffffffffffffffffffffffffffffffffffff\n      and\n      0xffffffffffffffffffffffffffffffffffffffff\n      and\n      dup2\n      mstore\n      0x20\n      add\n      swap1\n      dup2\n      mstore\n      0x20\n      add\n      0x00\n      keccak256\n        /* \"Documents/GitHub/contract-token-cryptoMonster/backend/components/CryptoMonster.sol\":5399:5427  structUser_[_owner].balances */\n      0x02\n      add\n      sload\n        /* \"Documents/GitHub/contract-token-cryptoMonster/backend/components/CryptoMonster.sol\":5385:5395  _numTokens */\n      dup3\n        /* \"Documents/GitHub/contract-token-cryptoMonster/backend/components/CryptoMonster.sol\":5385:5427  _numTokens <= structUser_[_owner].balances */\n      gt\n      iszero\n        /* \"Documents/GitHub/contract-token-cryptoMonster/backend/components/CryptoMonster.sol\":5377:5428  require(_numTokens <= structUser_[_owner].balances) */\n      tag_83\n      jumpi\n      0x00\n      dup1\n      revert\n    tag_83:\n        /* \"Documents/GitHub/contract-token-cryptoMonster/backend/components/CryptoMonster.sol\":5496:5503  allowed */\n      0x01\n        /* \"Documents/GitHub/contract-token-cryptoMonster/backend/components/CryptoMonster.sol\":5496:5511  allowed[_owner] */\n      0x00\n        /* \"Documents/GitHub/contract-token-cryptoMonster/backend/components/CryptoMonster.sol\":5504:5510  _owner */\n      dup6\n        /* \"Documents/GitHub/contract-token-cryptoMonster/backend/components/CryptoMonster.sol\":5496:5511  allowed[_owner] */\n      0xffffffffffffffffffffffffffffffffffffffff\n      and\n      0xffffffffffffffffffffffffffffffffffffffff\n      and\n      dup2\n      mstore\n      0x20\n      add\n      swap1\n      dup2\n      mstore\n      0x20\n      add\n      0x00\n      keccak256\n        /* \"Documents/GitHub/contract-token-cryptoMonster/backend/components/CryptoMonster.sol\":5496:5523  allowed[_owner][msg.sender] */\n      0x00\n        /* \"Documents/GitHub/contract-token-cryptoMonster/backend/components/CryptoMonster.sol\":5512:5522  msg.sender */\n      caller\n        /* \"Documents/GitHub/contract-token-cryptoMonster/backend/components/CryptoMonster.sol\":5496:5523  allowed[_owner][msg.sender] */\n      0xffffffffffffffffffffffffffffffffffffffff\n      and\n      0xffffffffffffffffffffffffffffffffffffffff\n      and\n      dup2\n      mstore\n      0x20\n      add\n      swap1\n      dup2\n      mstore\n      0x20\n      add\n      0x00\n      keccak256\n      sload\n        /* \"Documents/GitHub/contract-token-cryptoMonster/backend/components/CryptoMonster.sol\":5482:5492  _numTokens */\n      dup3\n        /* \"Documents/GitHub/contract-token-cryptoMonster/backend/components/CryptoMonster.sol\":5482:5523  _numTokens <= allowed[_owner][msg.sender] */\n      gt\n      iszero\n        /* \"Documents/GitHub/contract-token-cryptoMonster/backend/components/CryptoMonster.sol\":5474:5524  require(_numTokens <= allowed[_owner][msg.sender]) */\n      tag_84\n      jumpi\n      0x00\n      dup1\n      revert\n    tag_84:\n        /* \"Documents/GitHub/contract-token-cryptoMonster/backend/components/CryptoMonster.sol\":5604:5648  structUser_[_owner].balances.sub(_numTokens) */\n      tag_85\n        /* \"Documents/GitHub/contract-token-cryptoMonster/backend/components/CryptoMonster.sol\":5637:5647  _numTokens */\n      dup3\n        /* \"Documents/GitHub/contract-token-cryptoMonster/backend/components/CryptoMonster.sol\":5604:5615  structUser_ */\n      0x00\n        /* \"Documents/GitHub/contract-token-cryptoMonster/backend/components/CryptoMonster.sol\":5604:5623  structUser_[_owner] */\n      dup1\n        /* \"Documents/GitHub/contract-token-cryptoMonster/backend/components/CryptoMonster.sol\":5616:5622  _owner */\n      dup8\n        /* \"Documents/GitHub/contract-token-cryptoMonster/backend/components/CryptoMonster.sol\":5604:5623  structUser_[_owner] */\n      0xffffffffffffffffffffffffffffffffffffffff\n      and\n      0xffffffffffffffffffffffffffffffffffffffff\n      and\n      dup2\n      mstore\n      0x20\n      add\n      swap1\n      dup2\n      mstore\n      0x20\n      add\n      0x00\n      keccak256\n        /* \"Documents/GitHub/contract-token-cryptoMonster/backend/components/CryptoMonster.sol\":5604:5632  structUser_[_owner].balances */\n      0x02\n      add\n      sload\n        /* \"Documents/GitHub/contract-token-cryptoMonster/backend/components/CryptoMonster.sol\":5604:5636  structUser_[_owner].balances.sub */\n      tag_86\n      swap1\n        /* \"Documents/GitHub/contract-token-cryptoMonster/backend/components/CryptoMonster.sol\":5604:5648  structUser_[_owner].balances.sub(_numTokens) */\n      swap2\n      swap1\n      0xffffffff\n      and\n      jump\t// in\n    tag_85:\n        /* \"Documents/GitHub/contract-token-cryptoMonster/backend/components/CryptoMonster.sol\":5573:5584  structUser_ */\n      0x00\n        /* \"Documents/GitHub/contract-token-cryptoMonster/backend/components/CryptoMonster.sol\":5573:5592  structUser_[_owner] */\n      dup1\n        /* \"Documents/GitHub/contract-token-cryptoMonster/backend/components/CryptoMonster.sol\":5585:5591  _owner */\n      dup7\n        /* \"Documents/GitHub/contract-token-cryptoMonster/backend/components/CryptoMonster.sol\":5573:5592  structUser_[_owner] */\n      0xffffffffffffffffffffffffffffffffffffffff\n      and\n      0xffffffffffffffffffffffffffffffffffffffff\n      and\n      dup2\n      mstore\n      0x20\n      add\n      swap1\n      dup2\n      mstore\n      0x20\n      add\n      0x00\n      keccak256\n        /* \"Documents/GitHub/contract-token-cryptoMonster/backend/components/CryptoMonster.sol\":5573:5601  structUser_[_owner].balances */\n      0x02\n      add\n        /* \"Documents/GitHub/contract-token-cryptoMonster/backend/components/CryptoMonster.sol\":5573:5648  structUser_[_owner].balances = structUser_[_owner].balances.sub(_numTokens) */\n      dup2\n      swap1\n      sstore\n      pop\n        /* \"Documents/GitHub/contract-token-cryptoMonster/backend/components/CryptoMonster.sol\":5738:5781  allowed[_owner][msg.sender].sub(_numTokens) */\n      tag_87\n        /* \"Documents/GitHub/contract-token-cryptoMonster/backend/components/CryptoMonster.sol\":5770:5780  _numTokens */\n      dup3\n        /* \"Documents/GitHub/contract-token-cryptoMonster/backend/components/CryptoMonster.sol\":5738:5745  allowed */\n      0x01\n        /* \"Documents/GitHub/contract-token-cryptoMonster/backend/components/CryptoMonster.sol\":5738:5753  allowed[_owner] */\n      0x00\n        /* \"Documents/GitHub/contract-token-cryptoMonster/backend/components/CryptoMonster.sol\":5746:5752  _owner */\n      dup8\n        /* \"Documents/GitHub/contract-token-cryptoMonster/backend/components/CryptoMonster.sol\":5738:5753  allowed[_owner] */\n      0xffffffffffffffffffffffffffffffffffffffff\n      and\n      0xffffffffffffffffffffffffffffffffffffffff\n      and\n      dup2\n      mstore\n      0x20\n      add\n      swap1\n      dup2\n      mstore\n      0x20\n      add\n      0x00\n      keccak256\n        /* \"Documents/GitHub/contract-token-cryptoMonster/backend/components/CryptoMonster.sol\":5738:5765  allowed[_owner][msg.sender] */\n      0x00\n        /* \"Documents/GitHub/contract-token-cryptoMonster/backend/components/CryptoMonster.sol\":5754:5764  msg.sender */\n      caller\n        /* \"Documents/GitHub/contract-token-cryptoMonster/backend/components/CryptoMonster.sol\":5738:5765  allowed[_owner][msg.sender] */\n      0xffffffffffffffffffffffffffffffffffffffff\n      and\n      0xffffffffffffffffffffffffffffffffffffffff\n      and\n      dup2\n      mstore\n      0x20\n      add\n      swap1\n      dup2\n      mstore\n      0x20\n      add\n      0x00\n      keccak256\n      sload\n        /* \"Documents/GitHub/contract-token-cryptoMonster/backend/components/CryptoMonster.sol\":5738:5769  allowed[_owner][msg.sender].sub */\n      tag_86\n      swap1\n        /* \"Documents/GitHub/contract-token-cryptoMonster/backend/components/CryptoMonster.sol\":5738:5781  allowed[_owner][msg.sender].sub(_numTokens) */\n      swap2\n      swap1\n      0xffffffff\n      and\n      jump\t// in\n    tag_87:\n        /* \"Documents/GitHub/contract-token-cryptoMonster/backend/components/CryptoMonster.sol\":5708:5715  allowed */\n      0x01\n        /* \"Documents/GitHub/contract-token-cryptoMonster/backend/components/CryptoMonster.sol\":5708:5723  allowed[_owner] */\n      0x00\n        /* \"Documents/GitHub/contract-token-cryptoMonster/backend/components/CryptoMonster.sol\":5716:5722  _owner */\n      dup7\n        /* \"Documents/GitHub/contract-token-cryptoMonster/backend/components/CryptoMonster.sol\":5708:5723  allowed[_owner] */\n      0xffffffffffffffffffffffffffffffffffffffff\n      and\n      0xffffffffffffffffffffffffffffffffffffffff\n      and\n      dup2\n      mstore\n      0x20\n      add\n      swap1\n      dup2\n      mstore\n      0x20\n      add\n      0x00\n      keccak256\n        /* \"Documents/GitHub/contract-token-cryptoMonster/backend/components/CryptoMonster.sol\":5708:5735  allowed[_owner][msg.sender] */\n      0x00\n        /* \"Documents/GitHub/contract-token-cryptoMonster/backend/components/CryptoMonster.sol\":5724:5734  msg.sender */\n      caller\n        /* \"Documents/GitHub/contract-token-cryptoMonster/backend/components/CryptoMonster.sol\":5708:5735  allowed[_owner][msg.sender] */\n      0xffffffffffffffffffffffffffffffffffffffff\n      and\n      0xffffffffffffffffffffffffffffffffffffffff\n      and\n      dup2\n      mstore\n      0x20\n      add\n      swap1\n      dup2\n      mstore\n      0x20\n      add\n      0x00\n      keccak256\n        /* \"Documents/GitHub/contract-token-cryptoMonster/backend/components/CryptoMonster.sol\":5708:5781  allowed[_owner][msg.sender] = allowed[_owner][msg.sender].sub(_numTokens) */\n      dup2\n      swap1\n      sstore\n      pop\n        /* \"Documents/GitHub/contract-token-cryptoMonster/backend/components/CryptoMonster.sol\":5874:5918  structUser_[_buyer].balances.add(_numTokens) */\n      tag_88\n        /* \"Documents/GitHub/contract-token-cryptoMonster/backend/components/CryptoMonster.sol\":5907:5917  _numTokens */\n      dup3\n        /* \"Documents/GitHub/contract-token-cryptoMonster/backend/components/CryptoMonster.sol\":5874:5885  structUser_ */\n      0x00\n        /* \"Documents/GitHub/contract-token-cryptoMonster/backend/components/CryptoMonster.sol\":5874:5893  structUser_[_buyer] */\n      dup1\n        /* \"Documents/GitHub/contract-token-cryptoMonster/backend/components/CryptoMonster.sol\":5886:5892  _buyer */\n      dup7\n        /* \"Documents/GitHub/contract-token-cryptoMonster/backend/components/CryptoMonster.sol\":5874:5893  structUser_[_buyer] */\n      0xffffffffffffffffffffffffffffffffffffffff\n      and\n      0xffffffffffffffffffffffffffffffffffffffff\n      and\n      dup2\n      mstore\n      0x20\n      add\n      swap1\n      dup2\n      mstore\n      0x20\n      add\n      0x00\n      keccak256\n        /* \"Documents/GitHub/contract-token-cryptoMonster/backend/components/CryptoMonster.sol\":5874:5902  structUser_[_buyer].balances */\n      0x02\n      add\n      sload\n        /* \"Documents/GitHub/contract-token-cryptoMonster/backend/components/CryptoMonster.sol\":5874:5906  structUser_[_buyer].balances.add */\n      tag_89\n      swap1\n        /* \"Documents/GitHub/contract-token-cryptoMonster/backend/components/CryptoMonster.sol\":5874:5918  structUser_[_buyer].balances.add(_numTokens) */\n      swap2\n      swap1\n      0xffffffff\n      and\n      jump\t// in\n    tag_88:\n        /* \"Documents/GitHub/contract-token-cryptoMonster/backend/components/CryptoMonster.sol\":5843:5854  structUser_ */\n      0x00\n        /* \"Documents/GitHub/contract-token-cryptoMonster/backend/components/CryptoMonster.sol\":5843:5862  structUser_[_buyer] */\n      dup1\n        /* \"Documents/GitHub/contract-token-cryptoMonster/backend/components/CryptoMonster.sol\":5855:5861  _buyer */\n      dup6\n        /* \"Documents/GitHub/contract-token-cryptoMonster/backend/components/CryptoMonster.sol\":5843:5862  structUser_[_buyer] */\n      0xffffffffffffffffffffffffffffffffffffffff\n      and\n      0xffffffffffffffffffffffffffffffffffffffff\n      and\n      dup2\n      mstore\n      0x20\n      add\n      swap1\n      dup2\n      mstore\n      0x20\n      add\n      0x00\n      keccak256\n        /* \"Documents/GitHub/contract-token-cryptoMonster/backend/components/CryptoMonster.sol\":5843:5871  structUser_[_buyer].balances */\n      0x02\n      add\n        /* \"Documents/GitHub/contract-token-cryptoMonster/backend/components/CryptoMonster.sol\":5843:5918  structUser_[_buyer].balances = structUser_[_buyer].balances.add(_numTokens) */\n      dup2\n      swap1\n      sstore\n      pop\n        /* \"Documents/GitHub/contract-token-cryptoMonster/backend/components/CryptoMonster.sol\":6008:6014  _buyer */\n      dup3\n        /* \"Documents/GitHub/contract-token-cryptoMonster/backend/components/CryptoMonster.sol\":5991:6027  Transfer(_owner, _buyer, _numTokens) */\n      0xffffffffffffffffffffffffffffffffffffffff\n      and\n        /* \"Documents/GitHub/contract-token-cryptoMonster/backend/components/CryptoMonster.sol\":6000:6006  _owner */\n      dup5\n        /* \"Documents/GitHub/contract-token-cryptoMonster/backend/components/CryptoMonster.sol\":5991:6027  Transfer(_owner, _buyer, _numTokens) */\n      0xffffffffffffffffffffffffffffffffffffffff\n      and\n      0xddf252ad1be2c89b69c2b068fc378daa952ba7f163c4a11628f55a4df523b3ef\n        /* \"Documents/GitHub/contract-token-cryptoMonster/backend/components/CryptoMonster.sol\":6016:6026  _numTokens */\n      dup5\n        /* \"Documents/GitHub/contract-token-cryptoMonster/backend/components/CryptoMonster.sol\":5991:6027  Transfer(_owner, _buyer, _numTokens) */\n      mload(0x40)\n      tag_90\n      swap2\n      swap1\n      tag_24\n      jump\t// in\n    tag_90:\n      mload(0x40)\n      dup1\n      swap2\n      sub\n      swap1\n      log3\n        /* \"Documents/GitHub/contract-token-cryptoMonster/backend/components/CryptoMonster.sol\":6045:6049  true */\n      0x01\n        /* \"Documents/GitHub/contract-token-cryptoMonster/backend/components/CryptoMonster.sol\":6038:6049  return true */\n      swap1\n      pop\n        /* \"Documents/GitHub/contract-token-cryptoMonster/backend/components/CryptoMonster.sol\":5261:6057  function transferFrom(address _owner, address _buyer, uint256 _numTokens) public override returns (bool) {\r... */\n      swap4\n      swap3\n      pop\n      pop\n      pop\n      jump\t// out\n        /* \"Documents/GitHub/contract-token-cryptoMonster/backend/components/CryptoMonster.sol\":877:912  uint8 public constant decimals = 12 */\n    tag_44:\n        /* \"Documents/GitHub/contract-token-cryptoMonster/backend/components/CryptoMonster.sol\":910:912  12 */\n      0x0c\n        /* \"Documents/GitHub/contract-token-cryptoMonster/backend/components/CryptoMonster.sol\":877:912  uint8 public constant decimals = 12 */\n      dup2\n      jump\t// out\n        /* \"Documents/GitHub/contract-token-cryptoMonster/backend/components/CryptoMonster.sol\":3652:3790  function balanceOf(address _tokenOwner) public override view returns (uint256) {\r... */\n    tag_51:\n        /* \"Documents/GitHub/contract-token-cryptoMonster/backend/components/CryptoMonster.sol\":3722:3729  uint256 */\n      0x00\n        /* \"Documents/GitHub/contract-token-cryptoMonster/backend/components/CryptoMonster.sol\":3749:3760  structUser_ */\n      dup1\n        /* \"Documents/GitHub/contract-token-cryptoMonster/backend/components/CryptoMonster.sol\":3749:3773  structUser_[_tokenOwner] */\n      0x00\n        /* \"Documents/GitHub/contract-token-cryptoMonster/backend/components/CryptoMonster.sol\":3761:3772  _tokenOwner */\n      dup4\n        /* \"Documents/GitHub/contract-token-cryptoMonster/backend/components/CryptoMonster.sol\":3749:3773  structUser_[_tokenOwner] */\n      0xffffffffffffffffffffffffffffffffffffffff\n      and\n      0xffffffffffffffffffffffffffffffffffffffff\n      and\n      dup2\n      mstore\n      0x20\n      add\n      swap1\n      dup2\n      mstore\n      0x20\n      add\n      0x00\n      keccak256\n        /* \"Documents/GitHub/contract-token-cryptoMonster/backend/components/CryptoMonster.sol\":3749:3782  structUser_[_tokenOwner].balances */\n      0x02\n      add\n      sload\n        /* \"Documents/GitHub/contract-token-cryptoMonster/backend/components/CryptoMonster.sol\":3742:3782  return structUser_[_tokenOwner].balances */\n      swap1\n      pop\n        /* \"Documents/GitHub/contract-token-cryptoMonster/backend/components/CryptoMonster.sol\":3652:3790  function balanceOf(address _tokenOwner) public override view returns (uint256) {\r... */\n      swap2\n      swap1\n      pop\n      jump\t// out\n        /* \"Documents/GitHub/contract-token-cryptoMonster/backend/shared/helpers/getFuncs.sol\":144:285  function get_hash(string memory _password) public pure returns(bytes32) {\r... */\n    tag_57:\n        /* \"Documents/GitHub/contract-token-cryptoMonster/backend/shared/helpers/getFuncs.sol\":207:214  bytes32 */\n      0x00\n        /* \"Documents/GitHub/contract-token-cryptoMonster/backend/shared/helpers/getFuncs.sol\":265:274  _password */\n      dup2\n        /* \"Documents/GitHub/contract-token-cryptoMonster/backend/shared/helpers/getFuncs.sol\":248:275  abi.encodePacked(_password) */\n      add(0x20, mload(0x40))\n      tag_93\n      swap2\n      swap1\n      tag_94\n      jump\t// in\n    tag_93:\n      mload(0x40)\n      0x20\n      dup2\n      dup4\n      sub\n      sub\n      dup2\n      mstore\n      swap1\n      0x40\n      mstore\n        /* \"Documents/GitHub/contract-token-cryptoMonster/backend/shared/helpers/getFuncs.sol\":238:276  keccak256(abi.encodePacked(_password)) */\n      dup1\n      mload\n      swap1\n      0x20\n      add\n      keccak256\n        /* \"Documents/GitHub/contract-token-cryptoMonster/backend/shared/helpers/getFuncs.sol\":231:277  return(keccak256(abi.encodePacked(_password))) */\n      swap1\n      pop\n        /* \"Documents/GitHub/contract-token-cryptoMonster/backend/shared/helpers/getFuncs.sol\":144:285  function get_hash(string memory _password) public pure returns(bytes32) {\r... */\n      swap2\n      swap1\n      pop\n      jump\t// out\n        /* \"Documents/GitHub/contract-token-cryptoMonster/backend/components/CryptoMonster.sol\":798:836  string public constant symbol = \"CMON\" */\n    tag_62:\n      mload(0x40)\n      dup1\n      0x40\n      add\n      0x40\n      mstore\n      dup1\n      0x04\n      dup2\n      mstore\n      0x20\n      add\n      0x434d4f4e00000000000000000000000000000000000000000000000000000000\n      dup2\n      mstore\n      pop\n      dup2\n      jump\t// out\n        /* \"Documents/GitHub/contract-token-cryptoMonster/backend/components/CryptoMonster.sol\":4213:4928  function transfer(address _receiver, uint256 _numTokens) public override returns (bool) {\r... */\n    tag_67:\n        /* \"Documents/GitHub/contract-token-cryptoMonster/backend/components/CryptoMonster.sol\":4295:4299  bool */\n      0x00\n        /* \"Documents/GitHub/contract-token-cryptoMonster/backend/components/CryptoMonster.sol\":4334:4345  structUser_ */\n      dup1\n        /* \"Documents/GitHub/contract-token-cryptoMonster/backend/components/CryptoMonster.sol\":4334:4357  structUser_[msg.sender] */\n      0x00\n        /* \"Documents/GitHub/contract-token-cryptoMonster/backend/components/CryptoMonster.sol\":4346:4356  msg.sender */\n      caller\n        /* \"Documents/GitHub/contract-token-cryptoMonster/backend/components/CryptoMonster.sol\":4334:4357  structUser_[msg.sender] */\n      0xffffffffffffffffffffffffffffffffffffffff\n      and\n      0xffffffffffffffffffffffffffffffffffffffff\n      and\n      dup2\n      mstore\n      0x20\n      add\n      swap1\n      dup2\n      mstore\n      0x20\n      add\n      0x00\n      keccak256\n        /* \"Documents/GitHub/contract-token-cryptoMonster/backend/components/CryptoMonster.sol\":4334:4366  structUser_[msg.sender].balances */\n      0x02\n      add\n      sload\n        /* \"Documents/GitHub/contract-token-cryptoMonster/backend/components/CryptoMonster.sol\":4320:4330  _numTokens */\n      dup3\n        /* \"Documents/GitHub/contract-token-cryptoMonster/backend/components/CryptoMonster.sol\":4320:4366  _numTokens <= structUser_[msg.sender].balances */\n      gt\n      iszero\n        /* \"Documents/GitHub/contract-token-cryptoMonster/backend/components/CryptoMonster.sol\":4312:4367  require(_numTokens <= structUser_[msg.sender].balances) */\n      tag_96\n      jumpi\n      0x00\n      dup1\n      revert\n    tag_96:\n        /* \"Documents/GitHub/contract-token-cryptoMonster/backend/components/CryptoMonster.sol\":4476:4524  structUser_[msg.sender].balances.sub(_numTokens) */\n      tag_97\n        /* \"Documents/GitHub/contract-token-cryptoMonster/backend/components/CryptoMonster.sol\":4513:4523  _numTokens */\n      dup3\n        /* \"Documents/GitHub/contract-token-cryptoMonster/backend/components/CryptoMonster.sol\":4476:4487  structUser_ */\n      0x00\n        /* \"Documents/GitHub/contract-token-cryptoMonster/backend/components/CryptoMonster.sol\":4476:4499  structUser_[msg.sender] */\n      dup1\n        /* \"Documents/GitHub/contract-token-cryptoMonster/backend/components/CryptoMonster.sol\":4488:4498  msg.sender */\n      caller\n        /* \"Documents/GitHub/contract-token-cryptoMonster/backend/components/CryptoMonster.sol\":4476:4499  structUser_[msg.sender] */\n      0xffffffffffffffffffffffffffffffffffffffff\n      and\n      0xffffffffffffffffffffffffffffffffffffffff\n      and\n      dup2\n      mstore\n      0x20\n      add\n      swap1\n      dup2\n      mstore\n      0x20\n      add\n      0x00\n      keccak256\n        /* \"Documents/GitHub/contract-token-cryptoMonster/backend/components/CryptoMonster.sol\":4476:4508  structUser_[msg.sender].balances */\n      0x02\n      add\n      sload\n        /* \"Documents/GitHub/contract-token-cryptoMonster/backend/components/CryptoMonster.sol\":4476:4512  structUser_[msg.sender].balances.sub */\n      tag_86\n      swap1\n        /* \"Documents/GitHub/contract-token-cryptoMonster/backend/components/CryptoMonster.sol\":4476:4524  structUser_[msg.sender].balances.sub(_numTokens) */\n      swap2\n      swap1\n      0xffffffff\n      and\n      jump\t// in\n    tag_97:\n        /* \"Documents/GitHub/contract-token-cryptoMonster/backend/components/CryptoMonster.sol\":4441:4452  structUser_ */\n      0x00\n        /* \"Documents/GitHub/contract-token-cryptoMonster/backend/components/CryptoMonster.sol\":4441:4464  structUser_[msg.sender] */\n      dup1\n        /* \"Documents/GitHub/contract-token-cryptoMonster/backend/components/CryptoMonster.sol\":4453:4463  msg.sender */\n      caller\n        /* \"Documents/GitHub/contract-token-cryptoMonster/backend/components/CryptoMonster.sol\":4441:4464  structUser_[msg.sender] */\n      0xffffffffffffffffffffffffffffffffffffffff\n      and\n      0xffffffffffffffffffffffffffffffffffffffff\n      and\n      dup2\n      mstore\n      0x20\n      add\n      swap1\n      dup2\n      mstore\n      0x20\n      add\n      0x00\n      keccak256\n        /* \"Documents/GitHub/contract-token-cryptoMonster/backend/components/CryptoMonster.sol\":4441:4473  structUser_[msg.sender].balances */\n      0x02\n      add\n        /* \"Documents/GitHub/contract-token-cryptoMonster/backend/components/CryptoMonster.sol\":4441:4524  structUser_[msg.sender].balances = structUser_[msg.sender].balances.sub(_numTokens) */\n      dup2\n      swap1\n      sstore\n      pop\n        /* \"Documents/GitHub/contract-token-cryptoMonster/backend/components/CryptoMonster.sol\":4618:4665  structUser_[_receiver].balances.add(_numTokens) */\n      tag_98\n        /* \"Documents/GitHub/contract-token-cryptoMonster/backend/components/CryptoMonster.sol\":4654:4664  _numTokens */\n      dup3\n        /* \"Documents/GitHub/contract-token-cryptoMonster/backend/components/CryptoMonster.sol\":4618:4629  structUser_ */\n      0x00\n        /* \"Documents/GitHub/contract-token-cryptoMonster/backend/components/CryptoMonster.sol\":4618:4640  structUser_[_receiver] */\n      dup1\n        /* \"Documents/GitHub/contract-token-cryptoMonster/backend/components/CryptoMonster.sol\":4630:4639  _receiver */\n      dup7\n        /* \"Documents/GitHub/contract-token-cryptoMonster/backend/components/CryptoMonster.sol\":4618:4640  structUser_[_receiver] */\n      0xffffffffffffffffffffffffffffffffffffffff\n      and\n      0xffffffffffffffffffffffffffffffffffffffff\n      and\n      dup2\n      mstore\n      0x20\n      add\n      swap1\n      dup2\n      mstore\n      0x20\n      add\n      0x00\n      keccak256\n        /* \"Documents/GitHub/contract-token-cryptoMonster/backend/components/CryptoMonster.sol\":4618:4649  structUser_[_receiver].balances */\n      0x02\n      add\n      sload\n        /* \"Documents/GitHub/contract-token-cryptoMonster/backend/components/CryptoMonster.sol\":4618:4653  structUser_[_receiver].balances.add */\n      tag_89\n      swap1\n        /* \"Documents/GitHub/contract-token-cryptoMonster/backend/components/CryptoMonster.sol\":4618:4665  structUser_[_receiver].balances.add(_numTokens) */\n      swap2\n      swap1\n      0xffffffff\n      and\n      jump\t// in\n    tag_98:\n        /* \"Documents/GitHub/contract-token-cryptoMonster/backend/components/CryptoMonster.sol\":4584:4595  structUser_ */\n      0x00\n        /* \"Documents/GitHub/contract-token-cryptoMonster/backend/components/CryptoMonster.sol\":4584:4606  structUser_[_receiver] */\n      dup1\n        /* \"Documents/GitHub/contract-token-cryptoMonster/backend/components/CryptoMonster.sol\":4596:4605  _receiver */\n      dup6\n        /* \"Documents/GitHub/contract-token-cryptoMonster/backend/components/CryptoMonster.sol\":4584:4606  structUser_[_receiver] */\n      0xffffffffffffffffffffffffffffffffffffffff\n      and\n      0xffffffffffffffffffffffffffffffffffffffff\n      and\n      dup2\n      mstore\n      0x20\n      add\n      swap1\n      dup2\n      mstore\n      0x20\n      add\n      0x00\n      keccak256\n        /* \"Documents/GitHub/contract-token-cryptoMonster/backend/components/CryptoMonster.sol\":4584:4615  structUser_[_receiver].balances */\n      0x02\n      add\n        /* \"Documents/GitHub/contract-token-cryptoMonster/backend/components/CryptoMonster.sol\":4584:4665  structUser_[_receiver].balances = structUser_[_receiver].balances.add(_numTokens) */\n      dup2\n      swap1\n      sstore\n      pop\n        /* \"Documents/GitHub/contract-token-cryptoMonster/backend/components/CryptoMonster.sol\":4761:4770  _receiver */\n      dup3\n        /* \"Documents/GitHub/contract-token-cryptoMonster/backend/components/CryptoMonster.sol\":4740:4783  Transfer(msg.sender, _receiver, _numTokens) */\n      0xffffffffffffffffffffffffffffffffffffffff\n      and\n        /* \"Documents/GitHub/contract-token-cryptoMonster/backend/components/CryptoMonster.sol\":4749:4759  msg.sender */\n      caller\n        /* \"Documents/GitHub/contract-token-cryptoMonster/backend/components/CryptoMonster.sol\":4740:4783  Transfer(msg.sender, _receiver, _numTokens) */\n      0xffffffffffffffffffffffffffffffffffffffff\n      and\n      0xddf252ad1be2c89b69c2b068fc378daa952ba7f163c4a11628f55a4df523b3ef\n        /* \"Documents/GitHub/contract-token-cryptoMonster/backend/components/CryptoMonster.sol\":4772:4782  _numTokens */\n      dup5\n        /* \"Documents/GitHub/contract-token-cryptoMonster/backend/components/CryptoMonster.sol\":4740:4783  Transfer(msg.sender, _receiver, _numTokens) */\n      mload(0x40)\n      tag_99\n      swap2\n      swap1\n      tag_24\n      jump\t// in\n    tag_99:\n      mload(0x40)\n      dup1\n      swap2\n      sub\n      swap1\n      log3\n        /* \"Documents/GitHub/contract-token-cryptoMonster/backend/components/CryptoMonster.sol\":4916:4920  true */\n      0x01\n        /* \"Documents/GitHub/contract-token-cryptoMonster/backend/components/CryptoMonster.sol\":4909:4920  return true */\n      swap1\n      pop\n        /* \"Documents/GitHub/contract-token-cryptoMonster/backend/components/CryptoMonster.sol\":4213:4928  function transfer(address _receiver, uint256 _numTokens) public override returns (bool) {\r... */\n      swap3\n      swap2\n      pop\n      pop\n      jump\t// out\n        /* \"Documents/GitHub/contract-token-cryptoMonster/backend/components/CryptoMonster.sol\":2750:3140  function buy(uint256 _amount) external payable {\r... */\n    tag_72:\n        /* \"Documents/GitHub/contract-token-cryptoMonster/backend/components/CryptoMonster.sol\":1315:1325  1000000000 */\n      0x3b9aca00\n        /* \"Documents/GitHub/contract-token-cryptoMonster/backend/components/CryptoMonster.sol\":2973:2980  _amount */\n      dup2\n        /* \"Documents/GitHub/contract-token-cryptoMonster/backend/components/CryptoMonster.sol\":2973:2994  _amount * tokenPrice_ */\n      tag_101\n      swap2\n      swap1\n      tag_102\n      jump\t// in\n    tag_101:\n        /* \"Documents/GitHub/contract-token-cryptoMonster/backend/components/CryptoMonster.sol\":2960:2969  msg.value */\n      callvalue\n        /* \"Documents/GitHub/contract-token-cryptoMonster/backend/components/CryptoMonster.sol\":2960:2994  msg.value == _amount * tokenPrice_ */\n      eq\n        /* \"Documents/GitHub/contract-token-cryptoMonster/backend/components/CryptoMonster.sol\":2952:3031  require(msg.value == _amount * tokenPrice_, 'Need to send exact amount of wei') */\n      tag_103\n      jumpi\n      mload(0x40)\n      0x08c379a000000000000000000000000000000000000000000000000000000000\n      dup2\n      mstore\n      0x04\n      add\n      tag_104\n      swap1\n      tag_105\n      jump\t// in\n    tag_104:\n      mload(0x40)\n      dup1\n      swap2\n      sub\n      swap1\n      revert\n    tag_103:\n        /* \"Documents/GitHub/contract-token-cryptoMonster/backend/components/CryptoMonster.sol\":3087:3132  structUser_[msg.sender].balances.add(_amount) */\n      tag_106\n        /* \"Documents/GitHub/contract-token-cryptoMonster/backend/components/CryptoMonster.sol\":3124:3131  _amount */\n      dup2\n        /* \"Documents/GitHub/contract-token-cryptoMonster/backend/components/CryptoMonster.sol\":3087:3098  structUser_ */\n      0x00\n        /* \"Documents/GitHub/contract-token-cryptoMonster/backend/components/CryptoMonster.sol\":3087:3110  structUser_[msg.sender] */\n      dup1\n        /* \"Documents/GitHub/contract-token-cryptoMonster/backend/components/CryptoMonster.sol\":3099:3109  msg.sender */\n      caller\n        /* \"Documents/GitHub/contract-token-cryptoMonster/backend/components/CryptoMonster.sol\":3087:3110  structUser_[msg.sender] */\n      0xffffffffffffffffffffffffffffffffffffffff\n      and\n      0xffffffffffffffffffffffffffffffffffffffff\n      and\n      dup2\n      mstore\n      0x20\n      add\n      swap1\n      dup2\n      mstore\n      0x20\n      add\n      0x00\n      keccak256\n        /* \"Documents/GitHub/contract-token-cryptoMonster/backend/components/CryptoMonster.sol\":3087:3119  structUser_[msg.sender].balances */\n      0x02\n      add\n      sload\n        /* \"Documents/GitHub/contract-token-cryptoMonster/backend/components/CryptoMonster.sol\":3087:3123  structUser_[msg.sender].balances.add */\n      tag_89\n      swap1\n        /* \"Documents/GitHub/contract-token-cryptoMonster/backend/components/CryptoMonster.sol\":3087:3132  structUser_[msg.sender].balances.add(_amount) */\n      swap2\n      swap1\n      0xffffffff\n      and\n      jump\t// in\n    tag_106:\n        /* \"Documents/GitHub/contract-token-cryptoMonster/backend/components/CryptoMonster.sol\":3052:3063  structUser_ */\n      0x00\n        /* \"Documents/GitHub/contract-token-cryptoMonster/backend/components/CryptoMonster.sol\":3052:3075  structUser_[msg.sender] */\n      dup1\n        /* \"Documents/GitHub/contract-token-cryptoMonster/backend/components/CryptoMonster.sol\":3064:3074  msg.sender */\n      caller\n        /* \"Documents/GitHub/contract-token-cryptoMonster/backend/components/CryptoMonster.sol\":3052:3075  structUser_[msg.sender] */\n      0xffffffffffffffffffffffffffffffffffffffff\n      and\n      0xffffffffffffffffffffffffffffffffffffffff\n      and\n      dup2\n      mstore\n      0x20\n      add\n      swap1\n      dup2\n      mstore\n      0x20\n      add\n      0x00\n      keccak256\n        /* \"Documents/GitHub/contract-token-cryptoMonster/backend/components/CryptoMonster.sol\":3052:3084  structUser_[msg.sender].balances */\n      0x02\n      add\n        /* \"Documents/GitHub/contract-token-cryptoMonster/backend/components/CryptoMonster.sol\":3052:3132  structUser_[msg.sender].balances = structUser_[msg.sender].balances.add(_amount) */\n      dup2\n      swap1\n      sstore\n      pop\n        /* \"Documents/GitHub/contract-token-cryptoMonster/backend/components/CryptoMonster.sol\":2750:3140  function buy(uint256 _amount) external payable {\r... */\n      pop\n      jump\t// out\n        /* \"Documents/GitHub/contract-token-cryptoMonster/backend/components/CryptoMonster.sol\":7044:7186  function allowance(address _owner, address _delegate) public override view returns (uint) {\r... */\n    tag_77:\n        /* \"Documents/GitHub/contract-token-cryptoMonster/backend/components/CryptoMonster.sol\":7128:7132  uint */\n      0x00\n        /* \"Documents/GitHub/contract-token-cryptoMonster/backend/components/CryptoMonster.sol\":7152:7159  allowed */\n      0x01\n        /* \"Documents/GitHub/contract-token-cryptoMonster/backend/components/CryptoMonster.sol\":7152:7167  allowed[_owner] */\n      0x00\n        /* \"Documents/GitHub/contract-token-cryptoMonster/backend/components/CryptoMonster.sol\":7160:7166  _owner */\n      dup5\n        /* \"Documents/GitHub/contract-token-cryptoMonster/backend/components/CryptoMonster.sol\":7152:7167  allowed[_owner] */\n      0xffffffffffffffffffffffffffffffffffffffff\n      and\n      0xffffffffffffffffffffffffffffffffffffffff\n      and\n      dup2\n      mstore\n      0x20\n      add\n      swap1\n      dup2\n      mstore\n      0x20\n      add\n      0x00\n      keccak256\n        /* \"Documents/GitHub/contract-token-cryptoMonster/backend/components/CryptoMonster.sol\":7152:7178  allowed[_owner][_delegate] */\n      0x00\n        /* \"Documents/GitHub/contract-token-cryptoMonster/backend/components/CryptoMonster.sol\":7168:7177  _delegate */\n      dup4\n        /* \"Documents/GitHub/contract-token-cryptoMonster/backend/components/CryptoMonster.sol\":7152:7178  allowed[_owner][_delegate] */\n      0xffffffffffffffffffffffffffffffffffffffff\n      and\n      0xffffffffffffffffffffffffffffffffffffffff\n      and\n      dup2\n      mstore\n      0x20\n      add\n      swap1\n      dup2\n      mstore\n      0x20\n      add\n      0x00\n      keccak256\n      sload\n        /* \"Documents/GitHub/contract-token-cryptoMonster/backend/components/CryptoMonster.sol\":7145:7178  return allowed[_owner][_delegate] */\n      swap1\n      pop\n        /* \"Documents/GitHub/contract-token-cryptoMonster/backend/components/CryptoMonster.sol\":7044:7186  function allowance(address _owner, address _delegate) public override view returns (uint) {\r... */\n      swap3\n      swap2\n      pop\n      pop\n      jump\t// out\n        /* \"Documents/GitHub/contract-token-cryptoMonster/backend/shared/lib/SafeMath.sol\":2846:2965  function sub(uint256 a, uint256 b) internal pure returns (uint256) {\r... */\n    tag_86:\n        /* \"Documents/GitHub/contract-token-cryptoMonster/backend/shared/lib/SafeMath.sol\":2904:2911  uint256 */\n      0x00\n        /* \"Documents/GitHub/contract-token-cryptoMonster/backend/shared/lib/SafeMath.sol\":2934:2935  a */\n      dup3\n        /* \"Documents/GitHub/contract-token-cryptoMonster/backend/shared/lib/SafeMath.sol\":2929:2930  b */\n      dup3\n        /* \"Documents/GitHub/contract-token-cryptoMonster/backend/shared/lib/SafeMath.sol\":2929:2935  b <= a */\n      gt\n      iszero\n        /* \"Documents/GitHub/contract-token-cryptoMonster/backend/shared/lib/SafeMath.sol\":2922:2936  assert(b <= a) */\n      tag_109\n      jumpi\n      tag_110\n      tag_111\n      jump\t// in\n    tag_110:\n    tag_109:\n        /* \"Documents/GitHub/contract-token-cryptoMonster/backend/shared/lib/SafeMath.sol\":2956:2957  b */\n      dup2\n        /* \"Documents/GitHub/contract-token-cryptoMonster/backend/shared/lib/SafeMath.sol\":2952:2953  a */\n      dup4\n        /* \"Documents/GitHub/contract-token-cryptoMonster/backend/shared/lib/SafeMath.sol\":2952:2957  a - b */\n      tag_112\n      swap2\n      swap1\n      tag_113\n      jump\t// in\n    tag_112:\n        /* \"Documents/GitHub/contract-token-cryptoMonster/backend/shared/lib/SafeMath.sol\":2945:2957  return a - b */\n      swap1\n      pop\n        /* \"Documents/GitHub/contract-token-cryptoMonster/backend/shared/lib/SafeMath.sol\":2846:2965  function sub(uint256 a, uint256 b) internal pure returns (uint256) {\r... */\n      swap3\n      swap2\n      pop\n      pop\n      jump\t// out\n        /* \"Documents/GitHub/contract-token-cryptoMonster/backend/shared/lib/SafeMath.sol\":2422:2563  function add(uint256 a, uint256 b) internal pure returns (uint256) {\r... */\n    tag_89:\n        /* \"Documents/GitHub/contract-token-cryptoMonster/backend/shared/lib/SafeMath.sol\":2480:2487  uint256 */\n      0x00\n        /* \"Documents/GitHub/contract-token-cryptoMonster/backend/shared/lib/SafeMath.sol\":2498:2507  uint256 c */\n      dup1\n        /* \"Documents/GitHub/contract-token-cryptoMonster/backend/shared/lib/SafeMath.sol\":2514:2515  b */\n      dup3\n        /* \"Documents/GitHub/contract-token-cryptoMonster/backend/shared/lib/SafeMath.sol\":2510:2511  a */\n      dup5\n        /* \"Documents/GitHub/contract-token-cryptoMonster/backend/shared/lib/SafeMath.sol\":2510:2515  a + b */\n      tag_115\n      swap2\n      swap1\n      tag_116\n      jump\t// in\n    tag_115:\n        /* \"Documents/GitHub/contract-token-cryptoMonster/backend/shared/lib/SafeMath.sol\":2498:2515  uint256 c = a + b */\n      swap1\n      pop\n        /* \"Documents/GitHub/contract-token-cryptoMonster/backend/shared/lib/SafeMath.sol\":2536:2537  a */\n      dup4\n        /* \"Documents/GitHub/contract-token-cryptoMonster/backend/shared/lib/SafeMath.sol\":2531:2532  c */\n      dup2\n        /* \"Documents/GitHub/contract-token-cryptoMonster/backend/shared/lib/SafeMath.sol\":2531:2537  c >= a */\n      lt\n      iszero\n        /* \"Documents/GitHub/contract-token-cryptoMonster/backend/shared/lib/SafeMath.sol\":2524:2538  assert(c >= a) */\n      tag_117\n      jumpi\n      tag_118\n      tag_111\n      jump\t// in\n    tag_118:\n    tag_117:\n        /* \"Documents/GitHub/contract-token-cryptoMonster/backend/shared/lib/SafeMath.sol\":2554:2555  c */\n      dup1\n        /* \"Documents/GitHub/contract-token-cryptoMonster/backend/shared/lib/SafeMath.sol\":2547:2555  return c */\n      swap2\n      pop\n      pop\n        /* \"Documents/GitHub/contract-token-cryptoMonster/backend/shared/lib/SafeMath.sol\":2422:2563  function add(uint256 a, uint256 b) internal pure returns (uint256) {\r... */\n      swap3\n      swap2\n      pop\n      pop\n      jump\t// out\n        /* \"#utility.yul\":7:419   */\n    tag_120:\n        /* \"#utility.yul\":85:90   */\n      0x00\n        /* \"#utility.yul\":110:176   */\n      tag_122\n        /* \"#utility.yul\":126:175   */\n      tag_123\n        /* \"#utility.yul\":168:174   */\n      dup5\n        /* \"#utility.yul\":126:175   */\n      tag_124\n      jump\t// in\n    tag_123:\n        /* \"#utility.yul\":110:176   */\n      tag_125\n      jump\t// in\n    tag_122:\n        /* \"#utility.yul\":101:176   */\n      swap1\n      pop\n        /* \"#utility.yul\":199:205   */\n      dup3\n        /* \"#utility.yul\":192:197   */\n      dup2\n        /* \"#utility.yul\":185:206   */\n      mstore\n        /* \"#utility.yul\":237:241   */\n      0x20\n        /* \"#utility.yul\":230:235   */\n      dup2\n        /* \"#utility.yul\":226:242   */\n      add\n        /* \"#utility.yul\":275:278   */\n      dup5\n        /* \"#utility.yul\":266:272   */\n      dup5\n        /* \"#utility.yul\":261:264   */\n      dup5\n        /* \"#utility.yul\":257:273   */\n      add\n        /* \"#utility.yul\":254:279   */\n      gt\n        /* \"#utility.yul\":251:363   */\n      iszero\n      tag_126\n      jumpi\n        /* \"#utility.yul\":282:361   */\n      tag_127\n      tag_128\n      jump\t// in\n    tag_127:\n        /* \"#utility.yul\":251:363   */\n    tag_126:\n        /* \"#utility.yul\":372:413   */\n      tag_129\n        /* \"#utility.yul\":406:412   */\n      dup5\n        /* \"#utility.yul\":401:404   */\n      dup3\n        /* \"#utility.yul\":396:399   */\n      dup6\n        /* \"#utility.yul\":372:413   */\n      tag_130\n      jump\t// in\n    tag_129:\n        /* \"#utility.yul\":91:419   */\n      pop\n        /* \"#utility.yul\":7:419   */\n      swap4\n      swap3\n      pop\n      pop\n      pop\n      jump\t// out\n        /* \"#utility.yul\":425:564   */\n    tag_131:\n        /* \"#utility.yul\":471:476   */\n      0x00\n        /* \"#utility.yul\":509:515   */\n      dup2\n        /* \"#utility.yul\":496:516   */\n      calldataload\n        /* \"#utility.yul\":487:516   */\n      swap1\n      pop\n        /* \"#utility.yul\":525:558   */\n      tag_133\n        /* \"#utility.yul\":552:557   */\n      dup2\n        /* \"#utility.yul\":525:558   */\n      tag_134\n      jump\t// in\n    tag_133:\n        /* \"#utility.yul\":425:564   */\n      swap3\n      swap2\n      pop\n      pop\n      jump\t// out\n        /* \"#utility.yul\":584:924   */\n    tag_135:\n        /* \"#utility.yul\":640:645   */\n      0x00\n        /* \"#utility.yul\":689:692   */\n      dup3\n        /* \"#utility.yul\":682:686   */\n      0x1f\n        /* \"#utility.yul\":674:680   */\n      dup4\n        /* \"#utility.yul\":670:687   */\n      add\n        /* \"#utility.yul\":666:693   */\n      slt\n        /* \"#utility.yul\":656:778   */\n      tag_137\n      jumpi\n        /* \"#utility.yul\":697:776   */\n      tag_138\n      tag_139\n      jump\t// in\n    tag_138:\n        /* \"#utility.yul\":656:778   */\n    tag_137:\n        /* \"#utility.yul\":814:820   */\n      dup2\n        /* \"#utility.yul\":801:821   */\n      calldataload\n        /* \"#utility.yul\":839:918   */\n      tag_140\n        /* \"#utility.yul\":914:917   */\n      dup5\n        /* \"#utility.yul\":906:912   */\n      dup3\n        /* \"#utility.yul\":899:903   */\n      0x20\n        /* \"#utility.yul\":891:897   */\n      dup7\n        /* \"#utility.yul\":887:904   */\n      add\n        /* \"#utility.yul\":839:918   */\n      tag_120\n      jump\t// in\n    tag_140:\n        /* \"#utility.yul\":830:918   */\n      swap2\n      pop\n        /* \"#utility.yul\":646:924   */\n      pop\n        /* \"#utility.yul\":584:924   */\n      swap3\n      swap2\n      pop\n      pop\n      jump\t// out\n        /* \"#utility.yul\":930:1069   */\n    tag_141:\n        /* \"#utility.yul\":976:981   */\n      0x00\n        /* \"#utility.yul\":1014:1020   */\n      dup2\n        /* \"#utility.yul\":1001:1021   */\n      calldataload\n        /* \"#utility.yul\":992:1021   */\n      swap1\n      pop\n        /* \"#utility.yul\":1030:1063   */\n      tag_143\n        /* \"#utility.yul\":1057:1062   */\n      dup2\n        /* \"#utility.yul\":1030:1063   */\n      tag_144\n      jump\t// in\n    tag_143:\n        /* \"#utility.yul\":930:1069   */\n      swap3\n      swap2\n      pop\n      pop\n      jump\t// out\n        /* \"#utility.yul\":1075:1404   */\n    tag_50:\n        /* \"#utility.yul\":1134:1140   */\n      0x00\n        /* \"#utility.yul\":1183:1185   */\n      0x20\n        /* \"#utility.yul\":1171:1180   */\n      dup3\n        /* \"#utility.yul\":1162:1169   */\n      dup5\n        /* \"#utility.yul\":1158:1181   */\n      sub\n        /* \"#utility.yul\":1154:1186   */\n      slt\n        /* \"#utility.yul\":1151:1270   */\n      iszero\n      tag_146\n      jumpi\n        /* \"#utility.yul\":1189:1268   */\n      tag_147\n      tag_148\n      jump\t// in\n    tag_147:\n        /* \"#utility.yul\":1151:1270   */\n    tag_146:\n        /* \"#utility.yul\":1309:1310   */\n      0x00\n        /* \"#utility.yul\":1334:1387   */\n      tag_149\n        /* \"#utility.yul\":1379:1386   */\n      dup5\n        /* \"#utility.yul\":1370:1376   */\n      dup3\n        /* \"#utility.yul\":1359:1368   */\n      dup6\n        /* \"#utility.yul\":1355:1377   */\n      add\n        /* \"#utility.yul\":1334:1387   */\n      tag_131\n      jump\t// in\n    tag_149:\n        /* \"#utility.yul\":1324:1387   */\n      swap2\n      pop\n        /* \"#utility.yul\":1280:1397   */\n      pop\n        /* \"#utility.yul\":1075:1404   */\n      swap3\n      swap2\n      pop\n      pop\n      jump\t// out\n        /* \"#utility.yul\":1410:1884   */\n    tag_76:\n        /* \"#utility.yul\":1478:1484   */\n      0x00\n        /* \"#utility.yul\":1486:1492   */\n      dup1\n        /* \"#utility.yul\":1535:1537   */\n      0x40\n        /* \"#utility.yul\":1523:1532   */\n      dup4\n        /* \"#utility.yul\":1514:1521   */\n      dup6\n        /* \"#utility.yul\":1510:1533   */\n      sub\n        /* \"#utility.yul\":1506:1538   */\n      slt\n        /* \"#utility.yul\":1503:1622   */\n      iszero\n      tag_151\n      jumpi\n        /* \"#utility.yul\":1541:1620   */\n      tag_152\n      tag_148\n      jump\t// in\n    tag_152:\n        /* \"#utility.yul\":1503:1622   */\n    tag_151:\n        /* \"#utility.yul\":1661:1662   */\n      0x00\n        /* \"#utility.yul\":1686:1739   */\n      tag_153\n        /* \"#utility.yul\":1731:1738   */\n      dup6\n        /* \"#utility.yul\":1722:1728   */\n      dup3\n        /* \"#utility.yul\":1711:1720   */\n      dup7\n        /* \"#utility.yul\":1707:1729   */\n      add\n        /* \"#utility.yul\":1686:1739   */\n      tag_131\n      jump\t// in\n    tag_153:\n        /* \"#utility.yul\":1676:1739   */\n      swap3\n      pop\n        /* \"#utility.yul\":1632:1749   */\n      pop\n        /* \"#utility.yul\":1788:1790   */\n      0x20\n        /* \"#utility.yul\":1814:1867   */\n      tag_154\n        /* \"#utility.yul\":1859:1866   */\n      dup6\n        /* \"#utility.yul\":1850:1856   */\n      dup3\n        /* \"#utility.yul\":1839:1848   */\n      dup7\n        /* \"#utility.yul\":1835:1857   */\n      add\n        /* \"#utility.yul\":1814:1867   */\n      tag_131\n      jump\t// in\n    tag_154:\n        /* \"#utility.yul\":1804:1867   */\n      swap2\n      pop\n        /* \"#utility.yul\":1759:1877   */\n      pop\n        /* \"#utility.yul\":1410:1884   */\n      swap3\n      pop\n      swap3\n      swap1\n      pop\n      jump\t// out\n        /* \"#utility.yul\":1890:2509   */\n    tag_39:\n        /* \"#utility.yul\":1967:1973   */\n      0x00\n        /* \"#utility.yul\":1975:1981   */\n      dup1\n        /* \"#utility.yul\":1983:1989   */\n      0x00\n        /* \"#utility.yul\":2032:2034   */\n      0x60\n        /* \"#utility.yul\":2020:2029   */\n      dup5\n        /* \"#utility.yul\":2011:2018   */\n      dup7\n        /* \"#utility.yul\":2007:2030   */\n      sub\n        /* \"#utility.yul\":2003:2035   */\n      slt\n        /* \"#utility.yul\":2000:2119   */\n      iszero\n      tag_156\n      jumpi\n        /* \"#utility.yul\":2038:2117   */\n      tag_157\n      tag_148\n      jump\t// in\n    tag_157:\n        /* \"#utility.yul\":2000:2119   */\n    tag_156:\n        /* \"#utility.yul\":2158:2159   */\n      0x00\n        /* \"#utility.yul\":2183:2236   */\n      tag_158\n        /* \"#utility.yul\":2228:2235   */\n      dup7\n        /* \"#utility.yul\":2219:2225   */\n      dup3\n        /* \"#utility.yul\":2208:2217   */\n      dup8\n        /* \"#utility.yul\":2204:2226   */\n      add\n        /* \"#utility.yul\":2183:2236   */\n      tag_131\n      jump\t// in\n    tag_158:\n        /* \"#utility.yul\":2173:2236   */\n      swap4\n      pop\n        /* \"#utility.yul\":2129:2246   */\n      pop\n        /* \"#utility.yul\":2285:2287   */\n      0x20\n        /* \"#utility.yul\":2311:2364   */\n      tag_159\n        /* \"#utility.yul\":2356:2363   */\n      dup7\n        /* \"#utility.yul\":2347:2353   */\n      dup3\n        /* \"#utility.yul\":2336:2345   */\n      dup8\n        /* \"#utility.yul\":2332:2354   */\n      add\n        /* \"#utility.yul\":2311:2364   */\n      tag_131\n      jump\t// in\n    tag_159:\n        /* \"#utility.yul\":2301:2364   */\n      swap3\n      pop\n        /* \"#utility.yul\":2256:2374   */\n      pop\n        /* \"#utility.yul\":2413:2415   */\n      0x40\n        /* \"#utility.yul\":2439:2492   */\n      tag_160\n        /* \"#utility.yul\":2484:2491   */\n      dup7\n        /* \"#utility.yul\":2475:2481   */\n      dup3\n        /* \"#utility.yul\":2464:2473   */\n      dup8\n        /* \"#utility.yul\":2460:2482   */\n      add\n        /* \"#utility.yul\":2439:2492   */\n      tag_141\n      jump\t// in\n    tag_160:\n        /* \"#utility.yul\":2429:2492   */\n      swap2\n      pop\n        /* \"#utility.yul\":2384:2502   */\n      pop\n        /* \"#utility.yul\":1890:2509   */\n      swap3\n      pop\n      swap3\n      pop\n      swap3\n      jump\t// out\n        /* \"#utility.yul\":2515:2989   */\n    tag_28:\n        /* \"#utility.yul\":2583:2589   */\n      0x00\n        /* \"#utility.yul\":2591:2597   */\n      dup1\n        /* \"#utility.yul\":2640:2642   */\n      0x40\n        /* \"#utility.yul\":2628:2637   */\n      dup4\n        /* \"#utility.yul\":2619:2626   */\n      dup6\n        /* \"#utility.yul\":2615:2638   */\n      sub\n        /* \"#utility.yul\":2611:2643   */\n      slt\n        /* \"#utility.yul\":2608:2727   */\n      iszero\n      tag_162\n      jumpi\n        /* \"#utility.yul\":2646:2725   */\n      tag_163\n      tag_148\n      jump\t// in\n    tag_163:\n        /* \"#utility.yul\":2608:2727   */\n    tag_162:\n        /* \"#utility.yul\":2766:2767   */\n      0x00\n        /* \"#utility.yul\":2791:2844   */\n      tag_164\n        /* \"#utility.yul\":2836:2843   */\n      dup6\n        /* \"#utility.yul\":2827:2833   */\n      dup3\n        /* \"#utility.yul\":2816:2825   */\n      dup7\n        /* \"#utility.yul\":2812:2834   */\n      add\n        /* \"#utility.yul\":2791:2844   */\n      tag_131\n      jump\t// in\n    tag_164:\n        /* \"#utility.yul\":2781:2844   */\n      swap3\n      pop\n        /* \"#utility.yul\":2737:2854   */\n      pop\n        /* \"#utility.yul\":2893:2895   */\n      0x20\n        /* \"#utility.yul\":2919:2972   */\n      tag_165\n        /* \"#utility.yul\":2964:2971   */\n      dup6\n        /* \"#utility.yul\":2955:2961   */\n      dup3\n        /* \"#utility.yul\":2944:2953   */\n      dup7\n        /* \"#utility.yul\":2940:2962   */\n      add\n        /* \"#utility.yul\":2919:2972   */\n      tag_141\n      jump\t// in\n    tag_165:\n        /* \"#utility.yul\":2909:2972   */\n      swap2\n      pop\n        /* \"#utility.yul\":2864:2982   */\n      pop\n        /* \"#utility.yul\":2515:2989   */\n      swap3\n      pop\n      swap3\n      swap1\n      pop\n      jump\t// out\n        /* \"#utility.yul\":2995:3504   */\n    tag_56:\n        /* \"#utility.yul\":3064:3070   */\n      0x00\n        /* \"#utility.yul\":3113:3115   */\n      0x20\n        /* \"#utility.yul\":3101:3110   */\n      dup3\n        /* \"#utility.yul\":3092:3099   */\n      dup5\n        /* \"#utility.yul\":3088:3111   */\n      sub\n        /* \"#utility.yul\":3084:3116   */\n      slt\n        /* \"#utility.yul\":3081:3200   */\n      iszero\n      tag_167\n      jumpi\n        /* \"#utility.yul\":3119:3198   */\n      tag_168\n      tag_148\n      jump\t// in\n    tag_168:\n        /* \"#utility.yul\":3081:3200   */\n    tag_167:\n        /* \"#utility.yul\":3267:3268   */\n      0x00\n        /* \"#utility.yul\":3256:3265   */\n      dup3\n        /* \"#utility.yul\":3252:3269   */\n      add\n        /* \"#utility.yul\":3239:3270   */\n      calldataload\n        /* \"#utility.yul\":3297:3315   */\n      0xffffffffffffffff\n        /* \"#utility.yul\":3289:3295   */\n      dup2\n        /* \"#utility.yul\":3286:3316   */\n      gt\n        /* \"#utility.yul\":3283:3400   */\n      iszero\n      tag_169\n      jumpi\n        /* \"#utility.yul\":3319:3398   */\n      tag_170\n      tag_171\n      jump\t// in\n    tag_170:\n        /* \"#utility.yul\":3283:3400   */\n    tag_169:\n        /* \"#utility.yul\":3424:3487   */\n      tag_172\n        /* \"#utility.yul\":3479:3486   */\n      dup5\n        /* \"#utility.yul\":3470:3476   */\n      dup3\n        /* \"#utility.yul\":3459:3468   */\n      dup6\n        /* \"#utility.yul\":3455:3477   */\n      add\n        /* \"#utility.yul\":3424:3487   */\n      tag_135\n      jump\t// in\n    tag_172:\n        /* \"#utility.yul\":3414:3487   */\n      swap2\n      pop\n        /* \"#utility.yul\":3210:3497   */\n      pop\n        /* \"#utility.yul\":2995:3504   */\n      swap3\n      swap2\n      pop\n      pop\n      jump\t// out\n        /* \"#utility.yul\":3510:3839   */\n    tag_71:\n        /* \"#utility.yul\":3569:3575   */\n      0x00\n        /* \"#utility.yul\":3618:3620   */\n      0x20\n        /* \"#utility.yul\":3606:3615   */\n      dup3\n        /* \"#utility.yul\":3597:3604   */\n      dup5\n        /* \"#utility.yul\":3593:3616   */\n      sub\n        /* \"#utility.yul\":3589:3621   */\n      slt\n        /* \"#utility.yul\":3586:3705   */\n      iszero\n      tag_174\n      jumpi\n        /* \"#utility.yul\":3624:3703   */\n      tag_175\n      tag_148\n      jump\t// in\n    tag_175:\n        /* \"#utility.yul\":3586:3705   */\n    tag_174:\n        /* \"#utility.yul\":3744:3745   */\n      0x00\n        /* \"#utility.yul\":3769:3822   */\n      tag_176\n        /* \"#utility.yul\":3814:3821   */\n      dup5\n        /* \"#utility.yul\":3805:3811   */\n      dup3\n        /* \"#utility.yul\":3794:3803   */\n      dup6\n        /* \"#utility.yul\":3790:3812   */\n      add\n        /* \"#utility.yul\":3769:3822   */\n      tag_141\n      jump\t// in\n    tag_176:\n        /* \"#utility.yul\":3759:3822   */\n      swap2\n      pop\n        /* \"#utility.yul\":3715:3832   */\n      pop\n        /* \"#utility.yul\":3510:3839   */\n      swap3\n      swap2\n      pop\n      pop\n      jump\t// out\n        /* \"#utility.yul\":3845:3954   */\n    tag_177:\n        /* \"#utility.yul\":3926:3947   */\n      tag_179\n        /* \"#utility.yul\":3941:3946   */\n      dup2\n        /* \"#utility.yul\":3926:3947   */\n      tag_180\n      jump\t// in\n    tag_179:\n        /* \"#utility.yul\":3921:3924   */\n      dup3\n        /* \"#utility.yul\":3914:3948   */\n      mstore\n        /* \"#utility.yul\":3845:3954   */\n      pop\n      pop\n      jump\t// out\n        /* \"#utility.yul\":3960:4078   */\n    tag_181:\n        /* \"#utility.yul\":4047:4071   */\n      tag_183\n        /* \"#utility.yul\":4065:4070   */\n      dup2\n        /* \"#utility.yul\":4047:4071   */\n      tag_184\n      jump\t// in\n    tag_183:\n        /* \"#utility.yul\":4042:4045   */\n      dup3\n        /* \"#utility.yul\":4035:4072   */\n      mstore\n        /* \"#utility.yul\":3960:4078   */\n      pop\n      pop\n      jump\t// out\n        /* \"#utility.yul\":4084:4448   */\n    tag_185:\n        /* \"#utility.yul\":4172:4175   */\n      0x00\n        /* \"#utility.yul\":4200:4239   */\n      tag_187\n        /* \"#utility.yul\":4233:4238   */\n      dup3\n        /* \"#utility.yul\":4200:4239   */\n      tag_188\n      jump\t// in\n    tag_187:\n        /* \"#utility.yul\":4255:4326   */\n      tag_189\n        /* \"#utility.yul\":4319:4325   */\n      dup2\n        /* \"#utility.yul\":4314:4317   */\n      dup6\n        /* \"#utility.yul\":4255:4326   */\n      tag_190\n      jump\t// in\n    tag_189:\n        /* \"#utility.yul\":4248:4326   */\n      swap4\n      pop\n        /* \"#utility.yul\":4335:4387   */\n      tag_191\n        /* \"#utility.yul\":4380:4386   */\n      dup2\n        /* \"#utility.yul\":4375:4378   */\n      dup6\n        /* \"#utility.yul\":4368:4372   */\n      0x20\n        /* \"#utility.yul\":4361:4366   */\n      dup7\n        /* \"#utility.yul\":4357:4373   */\n      add\n        /* \"#utility.yul\":4335:4387   */\n      tag_192\n      jump\t// in\n    tag_191:\n        /* \"#utility.yul\":4412:4441   */\n      tag_193\n        /* \"#utility.yul\":4434:4440   */\n      dup2\n        /* \"#utility.yul\":4412:4441   */\n      tag_194\n      jump\t// in\n    tag_193:\n        /* \"#utility.yul\":4407:4410   */\n      dup5\n        /* \"#utility.yul\":4403:4442   */\n      add\n        /* \"#utility.yul\":4396:4442   */\n      swap2\n      pop\n        /* \"#utility.yul\":4176:4448   */\n      pop\n        /* \"#utility.yul\":4084:4448   */\n      swap3\n      swap2\n      pop\n      pop\n      jump\t// out\n        /* \"#utility.yul\":4454:4831   */\n    tag_195:\n        /* \"#utility.yul\":4560:4563   */\n      0x00\n        /* \"#utility.yul\":4588:4627   */\n      tag_197\n        /* \"#utility.yul\":4621:4626   */\n      dup3\n        /* \"#utility.yul\":4588:4627   */\n      tag_188\n      jump\t// in\n    tag_197:\n        /* \"#utility.yul\":4643:4732   */\n      tag_198\n        /* \"#utility.yul\":4725:4731   */\n      dup2\n        /* \"#utility.yul\":4720:4723   */\n      dup6\n        /* \"#utility.yul\":4643:4732   */\n      tag_199\n      jump\t// in\n    tag_198:\n        /* \"#utility.yul\":4636:4732   */\n      swap4\n      pop\n        /* \"#utility.yul\":4741:4793   */\n      tag_200\n        /* \"#utility.yul\":4786:4792   */\n      dup2\n        /* \"#utility.yul\":4781:4784   */\n      dup6\n        /* \"#utility.yul\":4774:4778   */\n      0x20\n        /* \"#utility.yul\":4767:4772   */\n      dup7\n        /* \"#utility.yul\":4763:4779   */\n      add\n        /* \"#utility.yul\":4741:4793   */\n      tag_192\n      jump\t// in\n    tag_200:\n        /* \"#utility.yul\":4818:4824   */\n      dup1\n        /* \"#utility.yul\":4813:4816   */\n      dup5\n        /* \"#utility.yul\":4809:4825   */\n      add\n        /* \"#utility.yul\":4802:4825   */\n      swap2\n      pop\n        /* \"#utility.yul\":4564:4831   */\n      pop\n        /* \"#utility.yul\":4454:4831   */\n      swap3\n      swap2\n      pop\n      pop\n      jump\t// out\n        /* \"#utility.yul\":4837:5203   */\n    tag_201:\n        /* \"#utility.yul\":4979:4982   */\n      0x00\n        /* \"#utility.yul\":5000:5067   */\n      tag_203\n        /* \"#utility.yul\":5064:5066   */\n      0x20\n        /* \"#utility.yul\":5059:5062   */\n      dup4\n        /* \"#utility.yul\":5000:5067   */\n      tag_190\n      jump\t// in\n    tag_203:\n        /* \"#utility.yul\":4993:5067   */\n      swap2\n      pop\n        /* \"#utility.yul\":5076:5169   */\n      tag_204\n        /* \"#utility.yul\":5165:5168   */\n      dup3\n        /* \"#utility.yul\":5076:5169   */\n      tag_205\n      jump\t// in\n    tag_204:\n        /* \"#utility.yul\":5194:5196   */\n      0x20\n        /* \"#utility.yul\":5189:5192   */\n      dup3\n        /* \"#utility.yul\":5185:5197   */\n      add\n        /* \"#utility.yul\":5178:5197   */\n      swap1\n      pop\n        /* \"#utility.yul\":4837:5203   */\n      swap2\n      swap1\n      pop\n      jump\t// out\n        /* \"#utility.yul\":5209:5327   */\n    tag_206:\n        /* \"#utility.yul\":5296:5320   */\n      tag_208\n        /* \"#utility.yul\":5314:5319   */\n      dup2\n        /* \"#utility.yul\":5296:5320   */\n      tag_209\n      jump\t// in\n    tag_208:\n        /* \"#utility.yul\":5291:5294   */\n      dup3\n        /* \"#utility.yul\":5284:5321   */\n      mstore\n        /* \"#utility.yul\":5209:5327   */\n      pop\n      pop\n      jump\t// out\n        /* \"#utility.yul\":5333:5445   */\n    tag_210:\n        /* \"#utility.yul\":5416:5438   */\n      tag_212\n        /* \"#utility.yul\":5432:5437   */\n      dup2\n        /* \"#utility.yul\":5416:5438   */\n      tag_213\n      jump\t// in\n    tag_212:\n        /* \"#utility.yul\":5411:5414   */\n      dup3\n        /* \"#utility.yul\":5404:5439   */\n      mstore\n        /* \"#utility.yul\":5333:5445   */\n      pop\n      pop\n      jump\t// out\n        /* \"#utility.yul\":5451:5726   */\n    tag_94:\n        /* \"#utility.yul\":5583:5586   */\n      0x00\n        /* \"#utility.yul\":5605:5700   */\n      tag_215\n        /* \"#utility.yul\":5696:5699   */\n      dup3\n        /* \"#utility.yul\":5687:5693   */\n      dup5\n        /* \"#utility.yul\":5605:5700   */\n      tag_195\n      jump\t// in\n    tag_215:\n        /* \"#utility.yul\":5598:5700   */\n      swap2\n      pop\n        /* \"#utility.yul\":5717:5720   */\n      dup2\n        /* \"#utility.yul\":5710:5720   */\n      swap1\n      pop\n        /* \"#utility.yul\":5451:5726   */\n      swap3\n      swap2\n      pop\n      pop\n      jump\t// out\n        /* \"#utility.yul\":5732:5942   */\n    tag_31:\n        /* \"#utility.yul\":5819:5823   */\n      0x00\n        /* \"#utility.yul\":5857:5859   */\n      0x20\n        /* \"#utility.yul\":5846:5855   */\n      dup3\n        /* \"#utility.yul\":5842:5860   */\n      add\n        /* \"#utility.yul\":5834:5860   */\n      swap1\n      pop\n        /* \"#utility.yul\":5870:5935   */\n      tag_217\n        /* \"#utility.yul\":5932:5933   */\n      0x00\n        /* \"#utility.yul\":5921:5930   */\n      dup4\n        /* \"#utility.yul\":5917:5934   */\n      add\n        /* \"#utility.yul\":5908:5914   */\n      dup5\n        /* \"#utility.yul\":5870:5935   */\n      tag_177\n      jump\t// in\n    tag_217:\n        /* \"#utility.yul\":5732:5942   */\n      swap3\n      swap2\n      pop\n      pop\n      jump\t// out\n        /* \"#utility.yul\":5948:6170   */\n    tag_59:\n        /* \"#utility.yul\":6041:6045   */\n      0x00\n        /* \"#utility.yul\":6079:6081   */\n      0x20\n        /* \"#utility.yul\":6068:6077   */\n      dup3\n        /* \"#utility.yul\":6064:6082   */\n      add\n        /* \"#utility.yul\":6056:6082   */\n      swap1\n      pop\n        /* \"#utility.yul\":6092:6163   */\n      tag_219\n        /* \"#utility.yul\":6160:6161   */\n      0x00\n        /* \"#utility.yul\":6149:6158   */\n      dup4\n        /* \"#utility.yul\":6145:6162   */\n      add\n        /* \"#utility.yul\":6136:6142   */\n      dup5\n        /* \"#utility.yul\":6092:6163   */\n      tag_181\n      jump\t// in\n    tag_219:\n        /* \"#utility.yul\":5948:6170   */\n      swap3\n      swap2\n      pop\n      pop\n      jump\t// out\n        /* \"#utility.yul\":6176:6489   */\n    tag_19:\n        /* \"#utility.yul\":6289:6293   */\n      0x00\n        /* \"#utility.yul\":6327:6329   */\n      0x20\n        /* \"#utility.yul\":6316:6325   */\n      dup3\n        /* \"#utility.yul\":6312:6330   */\n      add\n        /* \"#utility.yul\":6304:6330   */\n      swap1\n      pop\n        /* \"#utility.yul\":6376:6385   */\n      dup2\n        /* \"#utility.yul\":6370:6374   */\n      dup2\n        /* \"#utility.yul\":6366:6386   */\n      sub\n        /* \"#utility.yul\":6362:6363   */\n      0x00\n        /* \"#utility.yul\":6351:6360   */\n      dup4\n        /* \"#utility.yul\":6347:6364   */\n      add\n        /* \"#utility.yul\":6340:6387   */\n      mstore\n        /* \"#utility.yul\":6404:6482   */\n      tag_221\n        /* \"#utility.yul\":6477:6481   */\n      dup2\n        /* \"#utility.yul\":6468:6474   */\n      dup5\n        /* \"#utility.yul\":6404:6482   */\n      tag_185\n      jump\t// in\n    tag_221:\n        /* \"#utility.yul\":6396:6482   */\n      swap1\n      pop\n        /* \"#utility.yul\":6176:6489   */\n      swap3\n      swap2\n      pop\n      pop\n      jump\t// out\n        /* \"#utility.yul\":6495:6914   */\n    tag_105:\n        /* \"#utility.yul\":6661:6665   */\n      0x00\n        /* \"#utility.yul\":6699:6701   */\n      0x20\n        /* \"#utility.yul\":6688:6697   */\n      dup3\n        /* \"#utility.yul\":6684:6702   */\n      add\n        /* \"#utility.yul\":6676:6702   */\n      swap1\n      pop\n        /* \"#utility.yul\":6748:6757   */\n      dup2\n        /* \"#utility.yul\":6742:6746   */\n      dup2\n        /* \"#utility.yul\":6738:6758   */\n      sub\n        /* \"#utility.yul\":6734:6735   */\n      0x00\n        /* \"#utility.yul\":6723:6732   */\n      dup4\n        /* \"#utility.yul\":6719:6736   */\n      add\n        /* \"#utility.yul\":6712:6759   */\n      mstore\n        /* \"#utility.yul\":6776:6907   */\n      tag_223\n        /* \"#utility.yul\":6902:6906   */\n      dup2\n        /* \"#utility.yul\":6776:6907   */\n      tag_201\n      jump\t// in\n    tag_223:\n        /* \"#utility.yul\":6768:6907   */\n      swap1\n      pop\n        /* \"#utility.yul\":6495:6914   */\n      swap2\n      swap1\n      pop\n      jump\t// out\n        /* \"#utility.yul\":6920:7142   */\n    tag_24:\n        /* \"#utility.yul\":7013:7017   */\n      0x00\n        /* \"#utility.yul\":7051:7053   */\n      0x20\n        /* \"#utility.yul\":7040:7049   */\n      dup3\n        /* \"#utility.yul\":7036:7054   */\n      add\n        /* \"#utility.yul\":7028:7054   */\n      swap1\n      pop\n        /* \"#utility.yul\":7064:7135   */\n      tag_225\n        /* \"#utility.yul\":7132:7133   */\n      0x00\n        /* \"#utility.yul\":7121:7130   */\n      dup4\n        /* \"#utility.yul\":7117:7134   */\n      add\n        /* \"#utility.yul\":7108:7114   */\n      dup5\n        /* \"#utility.yul\":7064:7135   */\n      tag_206\n      jump\t// in\n    tag_225:\n        /* \"#utility.yul\":6920:7142   */\n      swap3\n      swap2\n      pop\n      pop\n      jump\t// out\n        /* \"#utility.yul\":7148:7362   */\n    tag_46:\n        /* \"#utility.yul\":7237:7241   */\n      0x00\n        /* \"#utility.yul\":7275:7277   */\n      0x20\n        /* \"#utility.yul\":7264:7273   */\n      dup3\n        /* \"#utility.yul\":7260:7278   */\n      add\n        /* \"#utility.yul\":7252:7278   */\n      swap1\n      pop\n        /* \"#utility.yul\":7288:7355   */\n      tag_227\n        /* \"#utility.yul\":7352:7353   */\n      0x00\n        /* \"#utility.yul\":7341:7350   */\n      dup4\n        /* \"#utility.yul\":7337:7354   */\n      add\n        /* \"#utility.yul\":7328:7334   */\n      dup5\n        /* \"#utility.yul\":7288:7355   */\n      tag_210\n      jump\t// in\n    tag_227:\n        /* \"#utility.yul\":7148:7362   */\n      swap3\n      swap2\n      pop\n      pop\n      jump\t// out\n        /* \"#utility.yul\":7368:7497   */\n    tag_125:\n        /* \"#utility.yul\":7402:7408   */\n      0x00\n        /* \"#utility.yul\":7429:7449   */\n      tag_229\n      tag_230\n      jump\t// in\n    tag_229:\n        /* \"#utility.yul\":7419:7449   */\n      swap1\n      pop\n        /* \"#utility.yul\":7458:7491   */\n      tag_231\n        /* \"#utility.yul\":7486:7490   */\n      dup3\n        /* \"#utility.yul\":7478:7484   */\n      dup3\n        /* \"#utility.yul\":7458:7491   */\n      tag_232\n      jump\t// in\n    tag_231:\n        /* \"#utility.yul\":7368:7497   */\n      swap2\n      swap1\n      pop\n      jump\t// out\n        /* \"#utility.yul\":7503:7578   */\n    tag_230:\n        /* \"#utility.yul\":7536:7542   */\n      0x00\n        /* \"#utility.yul\":7569:7571   */\n      0x40\n        /* \"#utility.yul\":7563:7572   */\n      mload\n        /* \"#utility.yul\":7553:7572   */\n      swap1\n      pop\n        /* \"#utility.yul\":7503:7578   */\n      swap1\n      jump\t// out\n        /* \"#utility.yul\":7584:7892   */\n    tag_124:\n        /* \"#utility.yul\":7646:7650   */\n      0x00\n        /* \"#utility.yul\":7736:7754   */\n      0xffffffffffffffff\n        /* \"#utility.yul\":7728:7734   */\n      dup3\n        /* \"#utility.yul\":7725:7755   */\n      gt\n        /* \"#utility.yul\":7722:7778   */\n      iszero\n      tag_235\n      jumpi\n        /* \"#utility.yul\":7758:7776   */\n      tag_236\n      tag_237\n      jump\t// in\n    tag_236:\n        /* \"#utility.yul\":7722:7778   */\n    tag_235:\n        /* \"#utility.yul\":7796:7825   */\n      tag_238\n        /* \"#utility.yul\":7818:7824   */\n      dup3\n        /* \"#utility.yul\":7796:7825   */\n      tag_194\n      jump\t// in\n    tag_238:\n        /* \"#utility.yul\":7788:7825   */\n      swap1\n      pop\n        /* \"#utility.yul\":7880:7884   */\n      0x20\n        /* \"#utility.yul\":7874:7878   */\n      dup2\n        /* \"#utility.yul\":7870:7885   */\n      add\n        /* \"#utility.yul\":7862:7885   */\n      swap1\n      pop\n        /* \"#utility.yul\":7584:7892   */\n      swap2\n      swap1\n      pop\n      jump\t// out\n        /* \"#utility.yul\":7898:7997   */\n    tag_188:\n        /* \"#utility.yul\":7950:7956   */\n      0x00\n        /* \"#utility.yul\":7984:7989   */\n      dup2\n        /* \"#utility.yul\":7978:7990   */\n      mload\n        /* \"#utility.yul\":7968:7990   */\n      swap1\n      pop\n        /* \"#utility.yul\":7898:7997   */\n      swap2\n      swap1\n      pop\n      jump\t// out\n        /* \"#utility.yul\":8003:8172   */\n    tag_190:\n        /* \"#utility.yul\":8087:8098   */\n      0x00\n        /* \"#utility.yul\":8121:8127   */\n      dup3\n        /* \"#utility.yul\":8116:8119   */\n      dup3\n        /* \"#utility.yul\":8109:8128   */\n      mstore\n        /* \"#utility.yul\":8161:8165   */\n      0x20\n        /* \"#utility.yul\":8156:8159   */\n      dup3\n        /* \"#utility.yul\":8152:8166   */\n      add\n        /* \"#utility.yul\":8137:8166   */\n      swap1\n      pop\n        /* \"#utility.yul\":8003:8172   */\n      swap3\n      swap2\n      pop\n      pop\n      jump\t// out\n        /* \"#utility.yul\":8178:8326   */\n    tag_199:\n        /* \"#utility.yul\":8280:8291   */\n      0x00\n        /* \"#utility.yul\":8317:8320   */\n      dup2\n        /* \"#utility.yul\":8302:8320   */\n      swap1\n      pop\n        /* \"#utility.yul\":8178:8326   */\n      swap3\n      swap2\n      pop\n      pop\n      jump\t// out\n        /* \"#utility.yul\":8332:8637   */\n    tag_116:\n        /* \"#utility.yul\":8372:8375   */\n      0x00\n        /* \"#utility.yul\":8391:8411   */\n      tag_243\n        /* \"#utility.yul\":8409:8410   */\n      dup3\n        /* \"#utility.yul\":8391:8411   */\n      tag_209\n      jump\t// in\n    tag_243:\n        /* \"#utility.yul\":8386:8411   */\n      swap2\n      pop\n        /* \"#utility.yul\":8425:8445   */\n      tag_244\n        /* \"#utility.yul\":8443:8444   */\n      dup4\n        /* \"#utility.yul\":8425:8445   */\n      tag_209\n      jump\t// in\n    tag_244:\n        /* \"#utility.yul\":8420:8445   */\n      swap3\n      pop\n        /* \"#utility.yul\":8579:8580   */\n      dup3\n        /* \"#utility.yul\":8511:8577   */\n      0xffffffffffffffffffffffffffffffffffffffffffffffffffffffffffffffff\n        /* \"#utility.yul\":8507:8581   */\n      sub\n        /* \"#utility.yul\":8504:8505   */\n      dup3\n        /* \"#utility.yul\":8501:8582   */\n      gt\n        /* \"#utility.yul\":8498:8605   */\n      iszero\n      tag_245\n      jumpi\n        /* \"#utility.yul\":8585:8603   */\n      tag_246\n      tag_247\n      jump\t// in\n    tag_246:\n        /* \"#utility.yul\":8498:8605   */\n    tag_245:\n        /* \"#utility.yul\":8629:8630   */\n      dup3\n        /* \"#utility.yul\":8626:8627   */\n      dup3\n        /* \"#utility.yul\":8622:8631   */\n      add\n        /* \"#utility.yul\":8615:8631   */\n      swap1\n      pop\n        /* \"#utility.yul\":8332:8637   */\n      swap3\n      swap2\n      pop\n      pop\n      jump\t// out\n        /* \"#utility.yul\":8643:8991   */\n    tag_102:\n        /* \"#utility.yul\":8683:8690   */\n      0x00\n        /* \"#utility.yul\":8706:8726   */\n      tag_249\n        /* \"#utility.yul\":8724:8725   */\n      dup3\n        /* \"#utility.yul\":8706:8726   */\n      tag_209\n      jump\t// in\n    tag_249:\n        /* \"#utility.yul\":8701:8726   */\n      swap2\n      pop\n        /* \"#utility.yul\":8740:8760   */\n      tag_250\n        /* \"#utility.yul\":8758:8759   */\n      dup4\n        /* \"#utility.yul\":8740:8760   */\n      tag_209\n      jump\t// in\n    tag_250:\n        /* \"#utility.yul\":8735:8760   */\n      swap3\n      pop\n        /* \"#utility.yul\":8928:8929   */\n      dup2\n        /* \"#utility.yul\":8860:8926   */\n      0xffffffffffffffffffffffffffffffffffffffffffffffffffffffffffffffff\n        /* \"#utility.yul\":8856:8930   */\n      div\n        /* \"#utility.yul\":8853:8854   */\n      dup4\n        /* \"#utility.yul\":8850:8931   */\n      gt\n        /* \"#utility.yul\":8845:8846   */\n      dup3\n        /* \"#utility.yul\":8838:8847   */\n      iszero\n        /* \"#utility.yul\":8831:8848   */\n      iszero\n        /* \"#utility.yul\":8827:8932   */\n      and\n        /* \"#utility.yul\":8824:8955   */\n      iszero\n      tag_251\n      jumpi\n        /* \"#utility.yul\":8935:8953   */\n      tag_252\n      tag_247\n      jump\t// in\n    tag_252:\n        /* \"#utility.yul\":8824:8955   */\n    tag_251:\n        /* \"#utility.yul\":8983:8984   */\n      dup3\n        /* \"#utility.yul\":8980:8981   */\n      dup3\n        /* \"#utility.yul\":8976:8985   */\n      mul\n        /* \"#utility.yul\":8965:8985   */\n      swap1\n      pop\n        /* \"#utility.yul\":8643:8991   */\n      swap3\n      swap2\n      pop\n      pop\n      jump\t// out\n        /* \"#utility.yul\":8997:9188   */\n    tag_113:\n        /* \"#utility.yul\":9037:9041   */\n      0x00\n        /* \"#utility.yul\":9057:9077   */\n      tag_254\n        /* \"#utility.yul\":9075:9076   */\n      dup3\n        /* \"#utility.yul\":9057:9077   */\n      tag_209\n      jump\t// in\n    tag_254:\n        /* \"#utility.yul\":9052:9077   */\n      swap2\n      pop\n        /* \"#utility.yul\":9091:9111   */\n      tag_255\n        /* \"#utility.yul\":9109:9110   */\n      dup4\n        /* \"#utility.yul\":9091:9111   */\n      tag_209\n      jump\t// in\n    tag_255:\n        /* \"#utility.yul\":9086:9111   */\n      swap3\n      pop\n        /* \"#utility.yul\":9130:9131   */\n      dup3\n        /* \"#utility.yul\":9127:9128   */\n      dup3\n        /* \"#utility.yul\":9124:9132   */\n      lt\n        /* \"#utility.yul\":9121:9155   */\n      iszero\n      tag_256\n      jumpi\n        /* \"#utility.yul\":9135:9153   */\n      tag_257\n      tag_247\n      jump\t// in\n    tag_257:\n        /* \"#utility.yul\":9121:9155   */\n    tag_256:\n        /* \"#utility.yul\":9180:9181   */\n      dup3\n        /* \"#utility.yul\":9177:9178   */\n      dup3\n        /* \"#utility.yul\":9173:9182   */\n      sub\n        /* \"#utility.yul\":9165:9182   */\n      swap1\n      pop\n        /* \"#utility.yul\":8997:9188   */\n      swap3\n      swap2\n      pop\n      pop\n      jump\t// out\n        /* \"#utility.yul\":9194:9290   */\n    tag_258:\n        /* \"#utility.yul\":9231:9238   */\n      0x00\n        /* \"#utility.yul\":9260:9284   */\n      tag_260\n        /* \"#utility.yul\":9278:9283   */\n      dup3\n        /* \"#utility.yul\":9260:9284   */\n      tag_261\n      jump\t// in\n    tag_260:\n        /* \"#utility.yul\":9249:9284   */\n      swap1\n      pop\n        /* \"#utility.yul\":9194:9290   */\n      swap2\n      swap1\n      pop\n      jump\t// out\n        /* \"#utility.yul\":9296:9386   */\n    tag_180:\n        /* \"#utility.yul\":9330:9337   */\n      0x00\n        /* \"#utility.yul\":9373:9378   */\n      dup2\n        /* \"#utility.yul\":9366:9379   */\n      iszero\n        /* \"#utility.yul\":9359:9380   */\n      iszero\n        /* \"#utility.yul\":9348:9380   */\n      swap1\n      pop\n        /* \"#utility.yul\":9296:9386   */\n      swap2\n      swap1\n      pop\n      jump\t// out\n        /* \"#utility.yul\":9392:9469   */\n    tag_184:\n        /* \"#utility.yul\":9429:9436   */\n      0x00\n        /* \"#utility.yul\":9458:9463   */\n      dup2\n        /* \"#utility.yul\":9447:9463   */\n      swap1\n      pop\n        /* \"#utility.yul\":9392:9469   */\n      swap2\n      swap1\n      pop\n      jump\t// out\n        /* \"#utility.yul\":9475:9601   */\n    tag_261:\n        /* \"#utility.yul\":9512:9519   */\n      0x00\n        /* \"#utility.yul\":9552:9594   */\n      0xffffffffffffffffffffffffffffffffffffffff\n        /* \"#utility.yul\":9545:9550   */\n      dup3\n        /* \"#utility.yul\":9541:9595   */\n      and\n        /* \"#utility.yul\":9530:9595   */\n      swap1\n      pop\n        /* \"#utility.yul\":9475:9601   */\n      swap2\n      swap1\n      pop\n      jump\t// out\n        /* \"#utility.yul\":9607:9684   */\n    tag_209:\n        /* \"#utility.yul\":9644:9651   */\n      0x00\n        /* \"#utility.yul\":9673:9678   */\n      dup2\n        /* \"#utility.yul\":9662:9678   */\n      swap1\n      pop\n        /* \"#utility.yul\":9607:9684   */\n      swap2\n      swap1\n      pop\n      jump\t// out\n        /* \"#utility.yul\":9690:9776   */\n    tag_213:\n        /* \"#utility.yul\":9725:9732   */\n      0x00\n        /* \"#utility.yul\":9765:9769   */\n      0xff\n        /* \"#utility.yul\":9758:9763   */\n      dup3\n        /* \"#utility.yul\":9754:9770   */\n      and\n        /* \"#utility.yul\":9743:9770   */\n      swap1\n      pop\n        /* \"#utility.yul\":9690:9776   */\n      swap2\n      swap1\n      pop\n      jump\t// out\n        /* \"#utility.yul\":9782:9936   */\n    tag_130:\n        /* \"#utility.yul\":9866:9872   */\n      dup3\n        /* \"#utility.yul\":9861:9864   */\n      dup2\n        /* \"#utility.yul\":9856:9859   */\n      dup4\n        /* \"#utility.yul\":9843:9873   */\n      calldatacopy\n        /* \"#utility.yul\":9928:9929   */\n      0x00\n        /* \"#utility.yul\":9919:9925   */\n      dup4\n        /* \"#utility.yul\":9914:9917   */\n      dup4\n        /* \"#utility.yul\":9910:9926   */\n      add\n        /* \"#utility.yul\":9903:9930   */\n      mstore\n        /* \"#utility.yul\":9782:9936   */\n      pop\n      pop\n      pop\n      jump\t// out\n        /* \"#utility.yul\":9942:10249   */\n    tag_192:\n        /* \"#utility.yul\":10010:10011   */\n      0x00\n        /* \"#utility.yul\":10020:10133   */\n    tag_269:\n        /* \"#utility.yul\":10034:10040   */\n      dup4\n        /* \"#utility.yul\":10031:10032   */\n      dup2\n        /* \"#utility.yul\":10028:10041   */\n      lt\n        /* \"#utility.yul\":10020:10133   */\n      iszero\n      tag_271\n      jumpi\n        /* \"#utility.yul\":10119:10120   */\n      dup1\n        /* \"#utility.yul\":10114:10117   */\n      dup3\n        /* \"#utility.yul\":10110:10121   */\n      add\n        /* \"#utility.yul\":10104:10122   */\n      mload\n        /* \"#utility.yul\":10100:10101   */\n      dup2\n        /* \"#utility.yul\":10095:10098   */\n      dup5\n        /* \"#utility.yul\":10091:10102   */\n      add\n        /* \"#utility.yul\":10084:10123   */\n      mstore\n        /* \"#utility.yul\":10056:10058   */\n      0x20\n        /* \"#utility.yul\":10053:10054   */\n      dup2\n        /* \"#utility.yul\":10049:10059   */\n      add\n        /* \"#utility.yul\":10044:10059   */\n      swap1\n      pop\n        /* \"#utility.yul\":10020:10133   */\n      jump(tag_269)\n    tag_271:\n        /* \"#utility.yul\":10151:10157   */\n      dup4\n        /* \"#utility.yul\":10148:10149   */\n      dup2\n        /* \"#utility.yul\":10145:10158   */\n      gt\n        /* \"#utility.yul\":10142:10243   */\n      iszero\n      tag_272\n      jumpi\n        /* \"#utility.yul\":10231:10232   */\n      0x00\n        /* \"#utility.yul\":10222:10228   */\n      dup5\n        /* \"#utility.yul\":10217:10220   */\n      dup5\n        /* \"#utility.yul\":10213:10229   */\n      add\n        /* \"#utility.yul\":10206:10233   */\n      mstore\n        /* \"#utility.yul\":10142:10243   */\n    tag_272:\n        /* \"#utility.yul\":9991:10249   */\n      pop\n        /* \"#utility.yul\":9942:10249   */\n      pop\n      pop\n      pop\n      jump\t// out\n        /* \"#utility.yul\":10255:10536   */\n    tag_232:\n        /* \"#utility.yul\":10338:10365   */\n      tag_274\n        /* \"#utility.yul\":10360:10364   */\n      dup3\n        /* \"#utility.yul\":10338:10365   */\n      tag_194\n      jump\t// in\n    tag_274:\n        /* \"#utility.yul\":10330:10336   */\n      dup2\n        /* \"#utility.yul\":10326:10366   */\n      add\n        /* \"#utility.yul\":10468:10474   */\n      dup2\n        /* \"#utility.yul\":10456:10466   */\n      dup2\n        /* \"#utility.yul\":10453:10475   */\n      lt\n        /* \"#utility.yul\":10432:10450   */\n      0xffffffffffffffff\n        /* \"#utility.yul\":10420:10430   */\n      dup3\n        /* \"#utility.yul\":10417:10451   */\n      gt\n        /* \"#utility.yul\":10414:10476   */\n      or\n        /* \"#utility.yul\":10411:10499   */\n      iszero\n      tag_275\n      jumpi\n        /* \"#utility.yul\":10479:10497   */\n      tag_276\n      tag_237\n      jump\t// in\n    tag_276:\n        /* \"#utility.yul\":10411:10499   */\n    tag_275:\n        /* \"#utility.yul\":10519:10529   */\n      dup1\n        /* \"#utility.yul\":10515:10517   */\n      0x40\n        /* \"#utility.yul\":10508:10530   */\n      mstore\n        /* \"#utility.yul\":10298:10536   */\n      pop\n        /* \"#utility.yul\":10255:10536   */\n      pop\n      pop\n      jump\t// out\n        /* \"#utility.yul\":10542:10722   */\n    tag_111:\n        /* \"#utility.yul\":10590:10667   */\n      0x4e487b7100000000000000000000000000000000000000000000000000000000\n        /* \"#utility.yul\":10587:10588   */\n      0x00\n        /* \"#utility.yul\":10580:10668   */\n      mstore\n        /* \"#utility.yul\":10687:10691   */\n      0x01\n        /* \"#utility.yul\":10684:10685   */\n      0x04\n        /* \"#utility.yul\":10677:10692   */\n      mstore\n        /* \"#utility.yul\":10711:10715   */\n      0x24\n        /* \"#utility.yul\":10708:10709   */\n      0x00\n        /* \"#utility.yul\":10701:10716   */\n      revert\n        /* \"#utility.yul\":10728:10908   */\n    tag_247:\n        /* \"#utility.yul\":10776:10853   */\n      0x4e487b7100000000000000000000000000000000000000000000000000000000\n        /* \"#utility.yul\":10773:10774   */\n      0x00\n        /* \"#utility.yul\":10766:10854   */\n      mstore\n        /* \"#utility.yul\":10873:10877   */\n      0x11\n        /* \"#utility.yul\":10870:10871   */\n      0x04\n        /* \"#utility.yul\":10863:10878   */\n      mstore\n        /* \"#utility.yul\":10897:10901   */\n      0x24\n        /* \"#utility.yul\":10894:10895   */\n      0x00\n        /* \"#utility.yul\":10887:10902   */\n      revert\n        /* \"#utility.yul\":10914:11094   */\n    tag_237:\n        /* \"#utility.yul\":10962:11039   */\n      0x4e487b7100000000000000000000000000000000000000000000000000000000\n        /* \"#utility.yul\":10959:10960   */\n      0x00\n        /* \"#utility.yul\":10952:11040   */\n      mstore\n        /* \"#utility.yul\":11059:11063   */\n      0x41\n        /* \"#utility.yul\":11056:11057   */\n      0x04\n        /* \"#utility.yul\":11049:11064   */\n      mstore\n        /* \"#utility.yul\":11083:11087   */\n      0x24\n        /* \"#utility.yul\":11080:11081   */\n      0x00\n        /* \"#utility.yul\":11073:11088   */\n      revert\n        /* \"#utility.yul\":11100:11217   */\n    tag_139:\n        /* \"#utility.yul\":11209:11210   */\n      0x00\n        /* \"#utility.yul\":11206:11207   */\n      dup1\n        /* \"#utility.yul\":11199:11211   */\n      revert\n        /* \"#utility.yul\":11223:11340   */\n    tag_128:\n        /* \"#utility.yul\":11332:11333   */\n      0x00\n        /* \"#utility.yul\":11329:11330   */\n      dup1\n        /* \"#utility.yul\":11322:11334   */\n      revert\n        /* \"#utility.yul\":11346:11463   */\n    tag_171:\n        /* \"#utility.yul\":11455:11456   */\n      0x00\n        /* \"#utility.yul\":11452:11453   */\n      dup1\n        /* \"#utility.yul\":11445:11457   */\n      revert\n        /* \"#utility.yul\":11469:11586   */\n    tag_148:\n        /* \"#utility.yul\":11578:11579   */\n      0x00\n        /* \"#utility.yul\":11575:11576   */\n      dup1\n        /* \"#utility.yul\":11568:11580   */\n      revert\n        /* \"#utility.yul\":11592:11694   */\n    tag_194:\n        /* \"#utility.yul\":11633:11639   */\n      0x00\n        /* \"#utility.yul\":11684:11686   */\n      0x1f\n        /* \"#utility.yul\":11680:11687   */\n      not\n        /* \"#utility.yul\":11675:11677   */\n      0x1f\n        /* \"#utility.yul\":11668:11673   */\n      dup4\n        /* \"#utility.yul\":11664:11678   */\n      add\n        /* \"#utility.yul\":11660:11688   */\n      and\n        /* \"#utility.yul\":11650:11688   */\n      swap1\n      pop\n        /* \"#utility.yul\":11592:11694   */\n      swap2\n      swap1\n      pop\n      jump\t// out\n        /* \"#utility.yul\":11700:11882   */\n    tag_205:\n        /* \"#utility.yul\":11840:11874   */\n      0x4e65656420746f2073656e6420657861637420616d6f756e74206f6620776569\n        /* \"#utility.yul\":11836:11837   */\n      0x00\n        /* \"#utility.yul\":11828:11834   */\n      dup3\n        /* \"#utility.yul\":11824:11838   */\n      add\n        /* \"#utility.yul\":11817:11875   */\n      mstore\n        /* \"#utility.yul\":11700:11882   */\n      pop\n      jump\t// out\n        /* \"#utility.yul\":11888:12010   */\n    tag_134:\n        /* \"#utility.yul\":11961:11985   */\n      tag_287\n        /* \"#utility.yul\":11979:11984   */\n      dup2\n        /* \"#utility.yul\":11961:11985   */\n      tag_258\n      jump\t// in\n    tag_287:\n        /* \"#utility.yul\":11954:11959   */\n      dup2\n        /* \"#utility.yul\":11951:11986   */\n      eq\n        /* \"#utility.yul\":11941:12004   */\n      tag_288\n      jumpi\n        /* \"#utility.yul\":12000:12001   */\n      0x00\n        /* \"#utility.yul\":11997:11998   */\n      dup1\n        /* \"#utility.yul\":11990:12002   */\n      revert\n        /* \"#utility.yul\":11941:12004   */\n    tag_288:\n        /* \"#utility.yul\":11888:12010   */\n      pop\n      jump\t// out\n        /* \"#utility.yul\":12016:12138   */\n    tag_144:\n        /* \"#utility.yul\":12089:12113   */\n      tag_290\n        /* \"#utility.yul\":12107:12112   */\n      dup2\n        /* \"#utility.yul\":12089:12113   */\n      tag_209\n      jump\t// in\n    tag_290:\n        /* \"#utility.yul\":12082:12087   */\n      dup2\n        /* \"#utility.yul\":12079:12114   */\n      eq\n        /* \"#utility.yul\":12069:12132   */\n      tag_291\n      jumpi\n        /* \"#utility.yul\":12128:12129   */\n      0x00\n        /* \"#utility.yul\":12125:12126   */\n      dup1\n        /* \"#utility.yul\":12118:12130   */\n      revert\n        /* \"#utility.yul\":12069:12132   */\n    tag_291:\n        /* \"#utility.yul\":12016:12138   */\n      pop\n      jump\t// out\n\n    auxdata: 0xa2646970667358221220e570accaa672ed2bc47793300eebb258b4f6c2af4753784ec37d6651334fb2a464736f6c63430008070033\n}\n",
				"bytecode": {
					"linkReferences": {},
					"object": "60806040523480156200001157600080fd5b5060405162001de438038062001de4833981810160405281019062000037919062000923565b60007378731d3ca6b7e34ac0f824c42a7cc18a495cabab9050600073617f2e2fd72fd9d5503197092ac168c91465e7f2905060007317f6ad8ef982297579c203069c1dbffe4348c372905060405180606001604052806040518060400160405280600581526020017f6f776e657200000000000000000000000000000000000000000000000000000081525081526020016200010e6040518060400160405280600481526020017f33343132000000000000000000000000000000000000000000000000000000008152506200082a60201b60201c565b8152602001620927c08152506000808573ffffffffffffffffffffffffffffffffffffffff1673ffffffffffffffffffffffffffffffffffffffff1681526020019081526020016000206000820151816000019080519060200190620001769291906200085c565b50602082015181600101556040820151816002015590505060405180606001604052806040518060400160405280601081526020017f507269766174652070726f76696465720000000000000000000000000000000081525081526020016200021a6040518060400160405280600481526020017f31343233000000000000000000000000000000000000000000000000000000008152506200082a60201b60201c565b8152602001620c35008152506000808473ffffffffffffffffffffffffffffffffffffffff1673ffffffffffffffffffffffffffffffffffffffff1681526020019081526020016000206000820151816000019080519060200190620002829291906200085c565b50602082015181600101556040820151816002015590505060405180606001604052806040518060400160405280600f81526020017f5075626c69632070726f766964657200000000000000000000000000000000008152508152602001620003266040518060400160405280600481526020017f32333134000000000000000000000000000000000000000000000000000000008152506200082a60201b60201c565b815260200162061a808152506000808373ffffffffffffffffffffffffffffffffffffffff1673ffffffffffffffffffffffffffffffffffffffff16815260200190815260200160002060008201518160000190805190602001906200038e9291906200085c565b506020820151816001015560408201518160020155905050505050806002819055506000735b38da6a701c568545dcfcb03fcb875f56beddc49050600073ab8483f64d9c6d1ecf9b849ae677dd3315835cb29050600073ab8483f64d9c6d1ecf9b849ae677dd3315835cb2905060405180606001604052806040518060400160405280600581526020017f6f776e65720000000000000000000000000000000000000000000000000000008152508152602001620004876040518060400160405280600481526020017f33343132000000000000000000000000000000000000000000000000000000008152506200082a60201b60201c565b81526020016002548152506000808573ffffffffffffffffffffffffffffffffffffffff1673ffffffffffffffffffffffffffffffffffffffff1681526020019081526020016000206000820151816000019080519060200190620004ee9291906200085c565b50602082015181600101556040820151816002015590505060405180606001604052806040518060400160405280601081526020017f507269766174652070726f7669646572000000000000000000000000000000008152508152602001620005926040518060400160405280600481526020017f31343233000000000000000000000000000000000000000000000000000000008152506200082a60201b60201c565b815260200160008152506000808473ffffffffffffffffffffffffffffffffffffffff1673ffffffffffffffffffffffffffffffffffffffff1681526020019081526020016000206000820151816000019080519060200190620005f89291906200085c565b506020820151816001015560408201518160020155905050600254600160008573ffffffffffffffffffffffffffffffffffffffff1673ffffffffffffffffffffffffffffffffffffffff16815260200190815260200160002060008473ffffffffffffffffffffffffffffffffffffffff1673ffffffffffffffffffffffffffffffffffffffff1681526020019081526020016000208190555060405180606001604052806040518060400160405280600f81526020017f5075626c69632070726f7669646572000000000000000000000000000000000081525081526020016200071f6040518060400160405280600481526020017f32333134000000000000000000000000000000000000000000000000000000008152506200082a60201b60201c565b815260200160008152506000808373ffffffffffffffffffffffffffffffffffffffff1673ffffffffffffffffffffffffffffffffffffffff1681526020019081526020016000206000820151816000019080519060200190620007859291906200085c565b506020820151816001015560408201518160020155905050600254600160008573ffffffffffffffffffffffffffffffffffffffff1673ffffffffffffffffffffffffffffffffffffffff16815260200190815260200160002060008373ffffffffffffffffffffffffffffffffffffffff1673ffffffffffffffffffffffffffffffffffffffff168152602001908152602001600020819055505050505062000a7f565b6000816040516020016200083f91906200098c565b604051602081830303815290604052805190602001209050919050565b8280546200086a90620009fb565b90600052602060002090601f0160209004810192826200088e5760008555620008da565b82601f10620008a957805160ff1916838001178555620008da565b82800160010185558215620008da579182015b82811115620008d9578251825591602001919060010190620008bc565b5b509050620008e99190620008ed565b5090565b5b8082111562000908576000816000905550600101620008ee565b5090565b6000815190506200091d8162000a65565b92915050565b6000602082840312156200093c576200093b62000a60565b5b60006200094c848285016200090c565b91505092915050565b60006200096282620009a5565b6200096e8185620009b0565b935062000980818560208601620009c5565b80840191505092915050565b60006200099a828462000955565b915081905092915050565b600081519050919050565b600081905092915050565b6000819050919050565b60005b83811015620009e5578082015181840152602081019050620009c8565b83811115620009f5576000848401525b50505050565b6000600282049050600182168062000a1457607f821691505b6020821081141562000a2b5762000a2a62000a31565b5b50919050565b7f4e487b7100000000000000000000000000000000000000000000000000000000600052602260045260246000fd5b600080fd5b62000a7081620009bb565b811462000a7c57600080fd5b50565b6113558062000a8f6000396000f3fe6080604052600436106100a75760003560e01c806370a082311161006457806370a08231146101d2578063845952a81461020f57806395d89b411461024c578063a9059cbb14610277578063d96a094a146102b4578063dd62ed3e146102d0576100a7565b806306fdde03146100ac5780630761c8b9146100d7578063095ea7b31461010257806318160ddd1461013f57806323b872dd1461016a578063313ce567146101a7575b600080fd5b3480156100b857600080fd5b506100c161030d565b6040516100ce9190610f6b565b60405180910390f35b3480156100e357600080fd5b506100ec610346565b6040516100f99190610fad565b60405180910390f35b34801561010e57600080fd5b5061012960048036038101906101249190610d9f565b61034e565b6040516101369190610f35565b60405180910390f35b34801561014b57600080fd5b50610154610440565b6040516101619190610fad565b60405180910390f35b34801561017657600080fd5b50610191600480360381019061018c9190610d4c565b61044a565b60405161019e9190610f35565b60405180910390f35b3480156101b357600080fd5b506101bc6107d4565b6040516101c99190610fc8565b60405180910390f35b3480156101de57600080fd5b506101f960048036038101906101f49190610cdf565b6107d9565b6040516102069190610fad565b60405180910390f35b34801561021b57600080fd5b5061023660048036038101906102319190610ddf565b610824565b6040516102439190610f50565b60405180910390f35b34801561025857600080fd5b50610261610854565b60405161026e9190610f6b565b60405180910390f35b34801561028357600080fd5b5061029e60048036038101906102999190610d9f565b61088d565b6040516102ab9190610f35565b60405180910390f35b6102ce60048036038101906102c99190610e28565b610a7e565b005b3480156102dc57600080fd5b506102f760048036038101906102f29190610d0c565b610b6b565b6040516103049190610fad565b60405180910390f35b6040518060400160405280600d81526020017f43727970746f4d6f6e737465720000000000000000000000000000000000000081525081565b633b9aca0081565b600081600160003373ffffffffffffffffffffffffffffffffffffffff1673ffffffffffffffffffffffffffffffffffffffff16815260200190815260200160002060008573ffffffffffffffffffffffffffffffffffffffff1673ffffffffffffffffffffffffffffffffffffffff168152602001908152602001600020819055508273ffffffffffffffffffffffffffffffffffffffff163373ffffffffffffffffffffffffffffffffffffffff167f8c5be1e5ebec7d5bd14f71427d1e84f3dd0314c0f7b2291e5b200ac8c7c3b9258460405161042e9190610fad565b60405180910390a36001905092915050565b6000600254905090565b60008060008573ffffffffffffffffffffffffffffffffffffffff1673ffffffffffffffffffffffffffffffffffffffff1681526020019081526020016000206002015482111561049a57600080fd5b600160008573ffffffffffffffffffffffffffffffffffffffff1673ffffffffffffffffffffffffffffffffffffffff16815260200190815260200160002060003373ffffffffffffffffffffffffffffffffffffffff1673ffffffffffffffffffffffffffffffffffffffff1681526020019081526020016000205482111561052357600080fd5b610577826000808773ffffffffffffffffffffffffffffffffffffffff1673ffffffffffffffffffffffffffffffffffffffff16815260200190815260200160002060020154610bf290919063ffffffff16565b6000808673ffffffffffffffffffffffffffffffffffffffff1673ffffffffffffffffffffffffffffffffffffffff1681526020019081526020016000206002018190555061064b82600160008773ffffffffffffffffffffffffffffffffffffffff1673ffffffffffffffffffffffffffffffffffffffff16815260200190815260200160002060003373ffffffffffffffffffffffffffffffffffffffff1673ffffffffffffffffffffffffffffffffffffffff16815260200190815260200160002054610bf290919063ffffffff16565b600160008673ffffffffffffffffffffffffffffffffffffffff1673ffffffffffffffffffffffffffffffffffffffff16815260200190815260200160002060003373ffffffffffffffffffffffffffffffffffffffff1673ffffffffffffffffffffffffffffffffffffffff1681526020019081526020016000208190555061071f826000808673ffffffffffffffffffffffffffffffffffffffff1673ffffffffffffffffffffffffffffffffffffffff16815260200190815260200160002060020154610c1990919063ffffffff16565b6000808573ffffffffffffffffffffffffffffffffffffffff1673ffffffffffffffffffffffffffffffffffffffff168152602001908152602001600020600201819055508273ffffffffffffffffffffffffffffffffffffffff168473ffffffffffffffffffffffffffffffffffffffff167fddf252ad1be2c89b69c2b068fc378daa952ba7f163c4a11628f55a4df523b3ef846040516107c19190610fad565b60405180910390a3600190509392505050565b600c81565b60008060008373ffffffffffffffffffffffffffffffffffffffff1673ffffffffffffffffffffffffffffffffffffffff168152602001908152602001600020600201549050919050565b6000816040516020016108379190610f1e565b604051602081830303815290604052805190602001209050919050565b6040518060400160405280600481526020017f434d4f4e0000000000000000000000000000000000000000000000000000000081525081565b60008060003373ffffffffffffffffffffffffffffffffffffffff1673ffffffffffffffffffffffffffffffffffffffff168152602001908152602001600020600201548211156108dd57600080fd5b610931826000803373ffffffffffffffffffffffffffffffffffffffff1673ffffffffffffffffffffffffffffffffffffffff16815260200190815260200160002060020154610bf290919063ffffffff16565b6000803373ffffffffffffffffffffffffffffffffffffffff1673ffffffffffffffffffffffffffffffffffffffff168152602001908152602001600020600201819055506109ca826000808673ffffffffffffffffffffffffffffffffffffffff1673ffffffffffffffffffffffffffffffffffffffff16815260200190815260200160002060020154610c1990919063ffffffff16565b6000808573ffffffffffffffffffffffffffffffffffffffff1673ffffffffffffffffffffffffffffffffffffffff168152602001908152602001600020600201819055508273ffffffffffffffffffffffffffffffffffffffff163373ffffffffffffffffffffffffffffffffffffffff167fddf252ad1be2c89b69c2b068fc378daa952ba7f163c4a11628f55a4df523b3ef84604051610a6c9190610fad565b60405180910390a36001905092915050565b633b9aca0081610a8e91906110b6565b3414610acf576040517f08c379a0000000000000000000000000000000000000000000000000000000008152600401610ac690610f8d565b60405180910390fd5b610b23816000803373ffffffffffffffffffffffffffffffffffffffff1673ffffffffffffffffffffffffffffffffffffffff16815260200190815260200160002060020154610c1990919063ffffffff16565b6000803373ffffffffffffffffffffffffffffffffffffffff1673ffffffffffffffffffffffffffffffffffffffff1681526020019081526020016000206002018190555050565b6000600160008473ffffffffffffffffffffffffffffffffffffffff1673ffffffffffffffffffffffffffffffffffffffff16815260200190815260200160002060008373ffffffffffffffffffffffffffffffffffffffff1673ffffffffffffffffffffffffffffffffffffffff16815260200190815260200160002054905092915050565b600082821115610c0557610c04611216565b5b8183610c119190611110565b905092915050565b6000808284610c289190611060565b905083811015610c3b57610c3a611216565b5b8091505092915050565b6000610c58610c5384611008565b610fe3565b905082815260208101848484011115610c7457610c736112a8565b5b610c7f8482856111a3565b509392505050565b600081359050610c96816112f1565b92915050565b600082601f830112610cb157610cb06112a3565b5b8135610cc1848260208601610c45565b91505092915050565b600081359050610cd981611308565b92915050565b600060208284031215610cf557610cf46112b2565b5b6000610d0384828501610c87565b91505092915050565b60008060408385031215610d2357610d226112b2565b5b6000610d3185828601610c87565b9250506020610d4285828601610c87565b9150509250929050565b600080600060608486031215610d6557610d646112b2565b5b6000610d7386828701610c87565b9350506020610d8486828701610c87565b9250506040610d9586828701610cca565b9150509250925092565b60008060408385031215610db657610db56112b2565b5b6000610dc485828601610c87565b9250506020610dd585828601610cca565b9150509250929050565b600060208284031215610df557610df46112b2565b5b600082013567ffffffffffffffff811115610e1357610e126112ad565b5b610e1f84828501610c9c565b91505092915050565b600060208284031215610e3e57610e3d6112b2565b5b6000610e4c84828501610cca565b91505092915050565b610e5e81611156565b82525050565b610e6d81611162565b82525050565b6000610e7e82611039565b610e888185611044565b9350610e988185602086016111b2565b610ea1816112b7565b840191505092915050565b6000610eb782611039565b610ec18185611055565b9350610ed18185602086016111b2565b80840191505092915050565b6000610eea602083611044565b9150610ef5826112c8565b602082019050919050565b610f098161118c565b82525050565b610f1881611196565b82525050565b6000610f2a8284610eac565b915081905092915050565b6000602082019050610f4a6000830184610e55565b92915050565b6000602082019050610f656000830184610e64565b92915050565b60006020820190508181036000830152610f858184610e73565b905092915050565b60006020820190508181036000830152610fa681610edd565b9050919050565b6000602082019050610fc26000830184610f00565b92915050565b6000602082019050610fdd6000830184610f0f565b92915050565b6000610fed610ffe565b9050610ff982826111e5565b919050565b6000604051905090565b600067ffffffffffffffff82111561102357611022611274565b5b61102c826112b7565b9050602081019050919050565b600081519050919050565b600082825260208201905092915050565b600081905092915050565b600061106b8261118c565b91506110768361118c565b9250827fffffffffffffffffffffffffffffffffffffffffffffffffffffffffffffffff038211156110ab576110aa611245565b5b828201905092915050565b60006110c18261118c565b91506110cc8361118c565b9250817fffffffffffffffffffffffffffffffffffffffffffffffffffffffffffffffff048311821515161561110557611104611245565b5b828202905092915050565b600061111b8261118c565b91506111268361118c565b92508282101561113957611138611245565b5b828203905092915050565b600061114f8261116c565b9050919050565b60008115159050919050565b6000819050919050565b600073ffffffffffffffffffffffffffffffffffffffff82169050919050565b6000819050919050565b600060ff82169050919050565b82818337600083830152505050565b60005b838110156111d05780820151818401526020810190506111b5565b838111156111df576000848401525b50505050565b6111ee826112b7565b810181811067ffffffffffffffff8211171561120d5761120c611274565b5b80604052505050565b7f4e487b7100000000000000000000000000000000000000000000000000000000600052600160045260246000fd5b7f4e487b7100000000000000000000000000000000000000000000000000000000600052601160045260246000fd5b7f4e487b7100000000000000000000000000000000000000000000000000000000600052604160045260246000fd5b600080fd5b600080fd5b600080fd5b600080fd5b6000601f19601f8301169050919050565b7f4e65656420746f2073656e6420657861637420616d6f756e74206f6620776569600082015250565b6112fa81611144565b811461130557600080fd5b50565b6113118161118c565b811461131c57600080fd5b5056fea2646970667358221220e570accaa672ed2bc47793300eebb258b4f6c2af4753784ec37d6651334fb2a464736f6c63430008070033",
					"opcodes": "PUSH1 0x80 PUSH1 0x40 MSTORE CALLVALUE DUP1 ISZERO PUSH3 0x11 JUMPI PUSH1 0x0 DUP1 REVERT JUMPDEST POP PUSH1 0x40 MLOAD PUSH3 0x1DE4 CODESIZE SUB DUP1 PUSH3 0x1DE4 DUP4 CODECOPY DUP2 DUP2 ADD PUSH1 0x40 MSTORE DUP2 ADD SWAP1 PUSH3 0x37 SWAP2 SWAP1 PUSH3 0x923 JUMP JUMPDEST PUSH1 0x0 PUSH20 0x78731D3CA6B7E34AC0F824C42A7CC18A495CABAB SWAP1 POP PUSH1 0x0 PUSH20 0x617F2E2FD72FD9D5503197092AC168C91465E7F2 SWAP1 POP PUSH1 0x0 PUSH20 0x17F6AD8EF982297579C203069C1DBFFE4348C372 SWAP1 POP PUSH1 0x40 MLOAD DUP1 PUSH1 0x60 ADD PUSH1 0x40 MSTORE DUP1 PUSH1 0x40 MLOAD DUP1 PUSH1 0x40 ADD PUSH1 0x40 MSTORE DUP1 PUSH1 0x5 DUP2 MSTORE PUSH1 0x20 ADD PUSH32 0x6F776E6572000000000000000000000000000000000000000000000000000000 DUP2 MSTORE POP DUP2 MSTORE PUSH1 0x20 ADD PUSH3 0x10E PUSH1 0x40 MLOAD DUP1 PUSH1 0x40 ADD PUSH1 0x40 MSTORE DUP1 PUSH1 0x4 DUP2 MSTORE PUSH1 0x20 ADD PUSH32 0x3334313200000000000000000000000000000000000000000000000000000000 DUP2 MSTORE POP PUSH3 0x82A PUSH1 0x20 SHL PUSH1 0x20 SHR JUMP JUMPDEST DUP2 MSTORE PUSH1 0x20 ADD PUSH3 0x927C0 DUP2 MSTORE POP PUSH1 0x0 DUP1 DUP6 PUSH20 0xFFFFFFFFFFFFFFFFFFFFFFFFFFFFFFFFFFFFFFFF AND PUSH20 0xFFFFFFFFFFFFFFFFFFFFFFFFFFFFFFFFFFFFFFFF AND DUP2 MSTORE PUSH1 0x20 ADD SWAP1 DUP2 MSTORE PUSH1 0x20 ADD PUSH1 0x0 KECCAK256 PUSH1 0x0 DUP3 ADD MLOAD DUP2 PUSH1 0x0 ADD SWAP1 DUP1 MLOAD SWAP1 PUSH1 0x20 ADD SWAP1 PUSH3 0x176 SWAP3 SWAP2 SWAP1 PUSH3 0x85C JUMP JUMPDEST POP PUSH1 0x20 DUP3 ADD MLOAD DUP2 PUSH1 0x1 ADD SSTORE PUSH1 0x40 DUP3 ADD MLOAD DUP2 PUSH1 0x2 ADD SSTORE SWAP1 POP POP PUSH1 0x40 MLOAD DUP1 PUSH1 0x60 ADD PUSH1 0x40 MSTORE DUP1 PUSH1 0x40 MLOAD DUP1 PUSH1 0x40 ADD PUSH1 0x40 MSTORE DUP1 PUSH1 0x10 DUP2 MSTORE PUSH1 0x20 ADD PUSH32 0x507269766174652070726F766964657200000000000000000000000000000000 DUP2 MSTORE POP DUP2 MSTORE PUSH1 0x20 ADD PUSH3 0x21A PUSH1 0x40 MLOAD DUP1 PUSH1 0x40 ADD PUSH1 0x40 MSTORE DUP1 PUSH1 0x4 DUP2 MSTORE PUSH1 0x20 ADD PUSH32 0x3134323300000000000000000000000000000000000000000000000000000000 DUP2 MSTORE POP PUSH3 0x82A PUSH1 0x20 SHL PUSH1 0x20 SHR JUMP JUMPDEST DUP2 MSTORE PUSH1 0x20 ADD PUSH3 0xC3500 DUP2 MSTORE POP PUSH1 0x0 DUP1 DUP5 PUSH20 0xFFFFFFFFFFFFFFFFFFFFFFFFFFFFFFFFFFFFFFFF AND PUSH20 0xFFFFFFFFFFFFFFFFFFFFFFFFFFFFFFFFFFFFFFFF AND DUP2 MSTORE PUSH1 0x20 ADD SWAP1 DUP2 MSTORE PUSH1 0x20 ADD PUSH1 0x0 KECCAK256 PUSH1 0x0 DUP3 ADD MLOAD DUP2 PUSH1 0x0 ADD SWAP1 DUP1 MLOAD SWAP1 PUSH1 0x20 ADD SWAP1 PUSH3 0x282 SWAP3 SWAP2 SWAP1 PUSH3 0x85C JUMP JUMPDEST POP PUSH1 0x20 DUP3 ADD MLOAD DUP2 PUSH1 0x1 ADD SSTORE PUSH1 0x40 DUP3 ADD MLOAD DUP2 PUSH1 0x2 ADD SSTORE SWAP1 POP POP PUSH1 0x40 MLOAD DUP1 PUSH1 0x60 ADD PUSH1 0x40 MSTORE DUP1 PUSH1 0x40 MLOAD DUP1 PUSH1 0x40 ADD PUSH1 0x40 MSTORE DUP1 PUSH1 0xF DUP2 MSTORE PUSH1 0x20 ADD PUSH32 0x5075626C69632070726F76696465720000000000000000000000000000000000 DUP2 MSTORE POP DUP2 MSTORE PUSH1 0x20 ADD PUSH3 0x326 PUSH1 0x40 MLOAD DUP1 PUSH1 0x40 ADD PUSH1 0x40 MSTORE DUP1 PUSH1 0x4 DUP2 MSTORE PUSH1 0x20 ADD PUSH32 0x3233313400000000000000000000000000000000000000000000000000000000 DUP2 MSTORE POP PUSH3 0x82A PUSH1 0x20 SHL PUSH1 0x20 SHR JUMP JUMPDEST DUP2 MSTORE PUSH1 0x20 ADD PUSH3 0x61A80 DUP2 MSTORE POP PUSH1 0x0 DUP1 DUP4 PUSH20 0xFFFFFFFFFFFFFFFFFFFFFFFFFFFFFFFFFFFFFFFF AND PUSH20 0xFFFFFFFFFFFFFFFFFFFFFFFFFFFFFFFFFFFFFFFF AND DUP2 MSTORE PUSH1 0x20 ADD SWAP1 DUP2 MSTORE PUSH1 0x20 ADD PUSH1 0x0 KECCAK256 PUSH1 0x0 DUP3 ADD MLOAD DUP2 PUSH1 0x0 ADD SWAP1 DUP1 MLOAD SWAP1 PUSH1 0x20 ADD SWAP1 PUSH3 0x38E SWAP3 SWAP2 SWAP1 PUSH3 0x85C JUMP JUMPDEST POP PUSH1 0x20 DUP3 ADD MLOAD DUP2 PUSH1 0x1 ADD SSTORE PUSH1 0x40 DUP3 ADD MLOAD DUP2 PUSH1 0x2 ADD SSTORE SWAP1 POP POP POP POP POP DUP1 PUSH1 0x2 DUP2 SWAP1 SSTORE POP PUSH1 0x0 PUSH20 0x5B38DA6A701C568545DCFCB03FCB875F56BEDDC4 SWAP1 POP PUSH1 0x0 PUSH20 0xAB8483F64D9C6D1ECF9B849AE677DD3315835CB2 SWAP1 POP PUSH1 0x0 PUSH20 0xAB8483F64D9C6D1ECF9B849AE677DD3315835CB2 SWAP1 POP PUSH1 0x40 MLOAD DUP1 PUSH1 0x60 ADD PUSH1 0x40 MSTORE DUP1 PUSH1 0x40 MLOAD DUP1 PUSH1 0x40 ADD PUSH1 0x40 MSTORE DUP1 PUSH1 0x5 DUP2 MSTORE PUSH1 0x20 ADD PUSH32 0x6F776E6572000000000000000000000000000000000000000000000000000000 DUP2 MSTORE POP DUP2 MSTORE PUSH1 0x20 ADD PUSH3 0x487 PUSH1 0x40 MLOAD DUP1 PUSH1 0x40 ADD PUSH1 0x40 MSTORE DUP1 PUSH1 0x4 DUP2 MSTORE PUSH1 0x20 ADD PUSH32 0x3334313200000000000000000000000000000000000000000000000000000000 DUP2 MSTORE POP PUSH3 0x82A PUSH1 0x20 SHL PUSH1 0x20 SHR JUMP JUMPDEST DUP2 MSTORE PUSH1 0x20 ADD PUSH1 0x2 SLOAD DUP2 MSTORE POP PUSH1 0x0 DUP1 DUP6 PUSH20 0xFFFFFFFFFFFFFFFFFFFFFFFFFFFFFFFFFFFFFFFF AND PUSH20 0xFFFFFFFFFFFFFFFFFFFFFFFFFFFFFFFFFFFFFFFF AND DUP2 MSTORE PUSH1 0x20 ADD SWAP1 DUP2 MSTORE PUSH1 0x20 ADD PUSH1 0x0 KECCAK256 PUSH1 0x0 DUP3 ADD MLOAD DUP2 PUSH1 0x0 ADD SWAP1 DUP1 MLOAD SWAP1 PUSH1 0x20 ADD SWAP1 PUSH3 0x4EE SWAP3 SWAP2 SWAP1 PUSH3 0x85C JUMP JUMPDEST POP PUSH1 0x20 DUP3 ADD MLOAD DUP2 PUSH1 0x1 ADD SSTORE PUSH1 0x40 DUP3 ADD MLOAD DUP2 PUSH1 0x2 ADD SSTORE SWAP1 POP POP PUSH1 0x40 MLOAD DUP1 PUSH1 0x60 ADD PUSH1 0x40 MSTORE DUP1 PUSH1 0x40 MLOAD DUP1 PUSH1 0x40 ADD PUSH1 0x40 MSTORE DUP1 PUSH1 0x10 DUP2 MSTORE PUSH1 0x20 ADD PUSH32 0x507269766174652070726F766964657200000000000000000000000000000000 DUP2 MSTORE POP DUP2 MSTORE PUSH1 0x20 ADD PUSH3 0x592 PUSH1 0x40 MLOAD DUP1 PUSH1 0x40 ADD PUSH1 0x40 MSTORE DUP1 PUSH1 0x4 DUP2 MSTORE PUSH1 0x20 ADD PUSH32 0x3134323300000000000000000000000000000000000000000000000000000000 DUP2 MSTORE POP PUSH3 0x82A PUSH1 0x20 SHL PUSH1 0x20 SHR JUMP JUMPDEST DUP2 MSTORE PUSH1 0x20 ADD PUSH1 0x0 DUP2 MSTORE POP PUSH1 0x0 DUP1 DUP5 PUSH20 0xFFFFFFFFFFFFFFFFFFFFFFFFFFFFFFFFFFFFFFFF AND PUSH20 0xFFFFFFFFFFFFFFFFFFFFFFFFFFFFFFFFFFFFFFFF AND DUP2 MSTORE PUSH1 0x20 ADD SWAP1 DUP2 MSTORE PUSH1 0x20 ADD PUSH1 0x0 KECCAK256 PUSH1 0x0 DUP3 ADD MLOAD DUP2 PUSH1 0x0 ADD SWAP1 DUP1 MLOAD SWAP1 PUSH1 0x20 ADD SWAP1 PUSH3 0x5F8 SWAP3 SWAP2 SWAP1 PUSH3 0x85C JUMP JUMPDEST POP PUSH1 0x20 DUP3 ADD MLOAD DUP2 PUSH1 0x1 ADD SSTORE PUSH1 0x40 DUP3 ADD MLOAD DUP2 PUSH1 0x2 ADD SSTORE SWAP1 POP POP PUSH1 0x2 SLOAD PUSH1 0x1 PUSH1 0x0 DUP6 PUSH20 0xFFFFFFFFFFFFFFFFFFFFFFFFFFFFFFFFFFFFFFFF AND PUSH20 0xFFFFFFFFFFFFFFFFFFFFFFFFFFFFFFFFFFFFFFFF AND DUP2 MSTORE PUSH1 0x20 ADD SWAP1 DUP2 MSTORE PUSH1 0x20 ADD PUSH1 0x0 KECCAK256 PUSH1 0x0 DUP5 PUSH20 0xFFFFFFFFFFFFFFFFFFFFFFFFFFFFFFFFFFFFFFFF AND PUSH20 0xFFFFFFFFFFFFFFFFFFFFFFFFFFFFFFFFFFFFFFFF AND DUP2 MSTORE PUSH1 0x20 ADD SWAP1 DUP2 MSTORE PUSH1 0x20 ADD PUSH1 0x0 KECCAK256 DUP2 SWAP1 SSTORE POP PUSH1 0x40 MLOAD DUP1 PUSH1 0x60 ADD PUSH1 0x40 MSTORE DUP1 PUSH1 0x40 MLOAD DUP1 PUSH1 0x40 ADD PUSH1 0x40 MSTORE DUP1 PUSH1 0xF DUP2 MSTORE PUSH1 0x20 ADD PUSH32 0x5075626C69632070726F76696465720000000000000000000000000000000000 DUP2 MSTORE POP DUP2 MSTORE PUSH1 0x20 ADD PUSH3 0x71F PUSH1 0x40 MLOAD DUP1 PUSH1 0x40 ADD PUSH1 0x40 MSTORE DUP1 PUSH1 0x4 DUP2 MSTORE PUSH1 0x20 ADD PUSH32 0x3233313400000000000000000000000000000000000000000000000000000000 DUP2 MSTORE POP PUSH3 0x82A PUSH1 0x20 SHL PUSH1 0x20 SHR JUMP JUMPDEST DUP2 MSTORE PUSH1 0x20 ADD PUSH1 0x0 DUP2 MSTORE POP PUSH1 0x0 DUP1 DUP4 PUSH20 0xFFFFFFFFFFFFFFFFFFFFFFFFFFFFFFFFFFFFFFFF AND PUSH20 0xFFFFFFFFFFFFFFFFFFFFFFFFFFFFFFFFFFFFFFFF AND DUP2 MSTORE PUSH1 0x20 ADD SWAP1 DUP2 MSTORE PUSH1 0x20 ADD PUSH1 0x0 KECCAK256 PUSH1 0x0 DUP3 ADD MLOAD DUP2 PUSH1 0x0 ADD SWAP1 DUP1 MLOAD SWAP1 PUSH1 0x20 ADD SWAP1 PUSH3 0x785 SWAP3 SWAP2 SWAP1 PUSH3 0x85C JUMP JUMPDEST POP PUSH1 0x20 DUP3 ADD MLOAD DUP2 PUSH1 0x1 ADD SSTORE PUSH1 0x40 DUP3 ADD MLOAD DUP2 PUSH1 0x2 ADD SSTORE SWAP1 POP POP PUSH1 0x2 SLOAD PUSH1 0x1 PUSH1 0x0 DUP6 PUSH20 0xFFFFFFFFFFFFFFFFFFFFFFFFFFFFFFFFFFFFFFFF AND PUSH20 0xFFFFFFFFFFFFFFFFFFFFFFFFFFFFFFFFFFFFFFFF AND DUP2 MSTORE PUSH1 0x20 ADD SWAP1 DUP2 MSTORE PUSH1 0x20 ADD PUSH1 0x0 KECCAK256 PUSH1 0x0 DUP4 PUSH20 0xFFFFFFFFFFFFFFFFFFFFFFFFFFFFFFFFFFFFFFFF AND PUSH20 0xFFFFFFFFFFFFFFFFFFFFFFFFFFFFFFFFFFFFFFFF AND DUP2 MSTORE PUSH1 0x20 ADD SWAP1 DUP2 MSTORE PUSH1 0x20 ADD PUSH1 0x0 KECCAK256 DUP2 SWAP1 SSTORE POP POP POP POP POP PUSH3 0xA7F JUMP JUMPDEST PUSH1 0x0 DUP2 PUSH1 0x40 MLOAD PUSH1 0x20 ADD PUSH3 0x83F SWAP2 SWAP1 PUSH3 0x98C JUMP JUMPDEST PUSH1 0x40 MLOAD PUSH1 0x20 DUP2 DUP4 SUB SUB DUP2 MSTORE SWAP1 PUSH1 0x40 MSTORE DUP1 MLOAD SWAP1 PUSH1 0x20 ADD KECCAK256 SWAP1 POP SWAP2 SWAP1 POP JUMP JUMPDEST DUP3 DUP1 SLOAD PUSH3 0x86A SWAP1 PUSH3 0x9FB JUMP JUMPDEST SWAP1 PUSH1 0x0 MSTORE PUSH1 0x20 PUSH1 0x0 KECCAK256 SWAP1 PUSH1 0x1F ADD PUSH1 0x20 SWAP1 DIV DUP2 ADD SWAP3 DUP3 PUSH3 0x88E JUMPI PUSH1 0x0 DUP6 SSTORE PUSH3 0x8DA JUMP JUMPDEST DUP3 PUSH1 0x1F LT PUSH3 0x8A9 JUMPI DUP1 MLOAD PUSH1 0xFF NOT AND DUP4 DUP1 ADD OR DUP6 SSTORE PUSH3 0x8DA JUMP JUMPDEST DUP3 DUP1 ADD PUSH1 0x1 ADD DUP6 SSTORE DUP3 ISZERO PUSH3 0x8DA JUMPI SWAP2 DUP3 ADD JUMPDEST DUP3 DUP2 GT ISZERO PUSH3 0x8D9 JUMPI DUP3 MLOAD DUP3 SSTORE SWAP2 PUSH1 0x20 ADD SWAP2 SWAP1 PUSH1 0x1 ADD SWAP1 PUSH3 0x8BC JUMP JUMPDEST JUMPDEST POP SWAP1 POP PUSH3 0x8E9 SWAP2 SWAP1 PUSH3 0x8ED JUMP JUMPDEST POP SWAP1 JUMP JUMPDEST JUMPDEST DUP1 DUP3 GT ISZERO PUSH3 0x908 JUMPI PUSH1 0x0 DUP2 PUSH1 0x0 SWAP1 SSTORE POP PUSH1 0x1 ADD PUSH3 0x8EE JUMP JUMPDEST POP SWAP1 JUMP JUMPDEST PUSH1 0x0 DUP2 MLOAD SWAP1 POP PUSH3 0x91D DUP2 PUSH3 0xA65 JUMP JUMPDEST SWAP3 SWAP2 POP POP JUMP JUMPDEST PUSH1 0x0 PUSH1 0x20 DUP3 DUP5 SUB SLT ISZERO PUSH3 0x93C JUMPI PUSH3 0x93B PUSH3 0xA60 JUMP JUMPDEST JUMPDEST PUSH1 0x0 PUSH3 0x94C DUP5 DUP3 DUP6 ADD PUSH3 0x90C JUMP JUMPDEST SWAP2 POP POP SWAP3 SWAP2 POP POP JUMP JUMPDEST PUSH1 0x0 PUSH3 0x962 DUP3 PUSH3 0x9A5 JUMP JUMPDEST PUSH3 0x96E DUP2 DUP6 PUSH3 0x9B0 JUMP JUMPDEST SWAP4 POP PUSH3 0x980 DUP2 DUP6 PUSH1 0x20 DUP7 ADD PUSH3 0x9C5 JUMP JUMPDEST DUP1 DUP5 ADD SWAP2 POP POP SWAP3 SWAP2 POP POP JUMP JUMPDEST PUSH1 0x0 PUSH3 0x99A DUP3 DUP5 PUSH3 0x955 JUMP JUMPDEST SWAP2 POP DUP2 SWAP1 POP SWAP3 SWAP2 POP POP JUMP JUMPDEST PUSH1 0x0 DUP2 MLOAD SWAP1 POP SWAP2 SWAP1 POP JUMP JUMPDEST PUSH1 0x0 DUP2 SWAP1 POP SWAP3 SWAP2 POP POP JUMP JUMPDEST PUSH1 0x0 DUP2 SWAP1 POP SWAP2 SWAP1 POP JUMP JUMPDEST PUSH1 0x0 JUMPDEST DUP4 DUP2 LT ISZERO PUSH3 0x9E5 JUMPI DUP1 DUP3 ADD MLOAD DUP2 DUP5 ADD MSTORE PUSH1 0x20 DUP2 ADD SWAP1 POP PUSH3 0x9C8 JUMP JUMPDEST DUP4 DUP2 GT ISZERO PUSH3 0x9F5 JUMPI PUSH1 0x0 DUP5 DUP5 ADD MSTORE JUMPDEST POP POP POP POP JUMP JUMPDEST PUSH1 0x0 PUSH1 0x2 DUP3 DIV SWAP1 POP PUSH1 0x1 DUP3 AND DUP1 PUSH3 0xA14 JUMPI PUSH1 0x7F DUP3 AND SWAP2 POP JUMPDEST PUSH1 0x20 DUP3 LT DUP2 EQ ISZERO PUSH3 0xA2B JUMPI PUSH3 0xA2A PUSH3 0xA31 JUMP JUMPDEST JUMPDEST POP SWAP2 SWAP1 POP JUMP JUMPDEST PUSH32 0x4E487B7100000000000000000000000000000000000000000000000000000000 PUSH1 0x0 MSTORE PUSH1 0x22 PUSH1 0x4 MSTORE PUSH1 0x24 PUSH1 0x0 REVERT JUMPDEST PUSH1 0x0 DUP1 REVERT JUMPDEST PUSH3 0xA70 DUP2 PUSH3 0x9BB JUMP JUMPDEST DUP2 EQ PUSH3 0xA7C JUMPI PUSH1 0x0 DUP1 REVERT JUMPDEST POP JUMP JUMPDEST PUSH2 0x1355 DUP1 PUSH3 0xA8F PUSH1 0x0 CODECOPY PUSH1 0x0 RETURN INVALID PUSH1 0x80 PUSH1 0x40 MSTORE PUSH1 0x4 CALLDATASIZE LT PUSH2 0xA7 JUMPI PUSH1 0x0 CALLDATALOAD PUSH1 0xE0 SHR DUP1 PUSH4 0x70A08231 GT PUSH2 0x64 JUMPI DUP1 PUSH4 0x70A08231 EQ PUSH2 0x1D2 JUMPI DUP1 PUSH4 0x845952A8 EQ PUSH2 0x20F JUMPI DUP1 PUSH4 0x95D89B41 EQ PUSH2 0x24C JUMPI DUP1 PUSH4 0xA9059CBB EQ PUSH2 0x277 JUMPI DUP1 PUSH4 0xD96A094A EQ PUSH2 0x2B4 JUMPI DUP1 PUSH4 0xDD62ED3E EQ PUSH2 0x2D0 JUMPI PUSH2 0xA7 JUMP JUMPDEST DUP1 PUSH4 0x6FDDE03 EQ PUSH2 0xAC JUMPI DUP1 PUSH4 0x761C8B9 EQ PUSH2 0xD7 JUMPI DUP1 PUSH4 0x95EA7B3 EQ PUSH2 0x102 JUMPI DUP1 PUSH4 0x18160DDD EQ PUSH2 0x13F JUMPI DUP1 PUSH4 0x23B872DD EQ PUSH2 0x16A JUMPI DUP1 PUSH4 0x313CE567 EQ PUSH2 0x1A7 JUMPI JUMPDEST PUSH1 0x0 DUP1 REVERT JUMPDEST CALLVALUE DUP1 ISZERO PUSH2 0xB8 JUMPI PUSH1 0x0 DUP1 REVERT JUMPDEST POP PUSH2 0xC1 PUSH2 0x30D JUMP JUMPDEST PUSH1 0x40 MLOAD PUSH2 0xCE SWAP2 SWAP1 PUSH2 0xF6B JUMP JUMPDEST PUSH1 0x40 MLOAD DUP1 SWAP2 SUB SWAP1 RETURN JUMPDEST CALLVALUE DUP1 ISZERO PUSH2 0xE3 JUMPI PUSH1 0x0 DUP1 REVERT JUMPDEST POP PUSH2 0xEC PUSH2 0x346 JUMP JUMPDEST PUSH1 0x40 MLOAD PUSH2 0xF9 SWAP2 SWAP1 PUSH2 0xFAD JUMP JUMPDEST PUSH1 0x40 MLOAD DUP1 SWAP2 SUB SWAP1 RETURN JUMPDEST CALLVALUE DUP1 ISZERO PUSH2 0x10E JUMPI PUSH1 0x0 DUP1 REVERT JUMPDEST POP PUSH2 0x129 PUSH1 0x4 DUP1 CALLDATASIZE SUB DUP2 ADD SWAP1 PUSH2 0x124 SWAP2 SWAP1 PUSH2 0xD9F JUMP JUMPDEST PUSH2 0x34E JUMP JUMPDEST PUSH1 0x40 MLOAD PUSH2 0x136 SWAP2 SWAP1 PUSH2 0xF35 JUMP JUMPDEST PUSH1 0x40 MLOAD DUP1 SWAP2 SUB SWAP1 RETURN JUMPDEST CALLVALUE DUP1 ISZERO PUSH2 0x14B JUMPI PUSH1 0x0 DUP1 REVERT JUMPDEST POP PUSH2 0x154 PUSH2 0x440 JUMP JUMPDEST PUSH1 0x40 MLOAD PUSH2 0x161 SWAP2 SWAP1 PUSH2 0xFAD JUMP JUMPDEST PUSH1 0x40 MLOAD DUP1 SWAP2 SUB SWAP1 RETURN JUMPDEST CALLVALUE DUP1 ISZERO PUSH2 0x176 JUMPI PUSH1 0x0 DUP1 REVERT JUMPDEST POP PUSH2 0x191 PUSH1 0x4 DUP1 CALLDATASIZE SUB DUP2 ADD SWAP1 PUSH2 0x18C SWAP2 SWAP1 PUSH2 0xD4C JUMP JUMPDEST PUSH2 0x44A JUMP JUMPDEST PUSH1 0x40 MLOAD PUSH2 0x19E SWAP2 SWAP1 PUSH2 0xF35 JUMP JUMPDEST PUSH1 0x40 MLOAD DUP1 SWAP2 SUB SWAP1 RETURN JUMPDEST CALLVALUE DUP1 ISZERO PUSH2 0x1B3 JUMPI PUSH1 0x0 DUP1 REVERT JUMPDEST POP PUSH2 0x1BC PUSH2 0x7D4 JUMP JUMPDEST PUSH1 0x40 MLOAD PUSH2 0x1C9 SWAP2 SWAP1 PUSH2 0xFC8 JUMP JUMPDEST PUSH1 0x40 MLOAD DUP1 SWAP2 SUB SWAP1 RETURN JUMPDEST CALLVALUE DUP1 ISZERO PUSH2 0x1DE JUMPI PUSH1 0x0 DUP1 REVERT JUMPDEST POP PUSH2 0x1F9 PUSH1 0x4 DUP1 CALLDATASIZE SUB DUP2 ADD SWAP1 PUSH2 0x1F4 SWAP2 SWAP1 PUSH2 0xCDF JUMP JUMPDEST PUSH2 0x7D9 JUMP JUMPDEST PUSH1 0x40 MLOAD PUSH2 0x206 SWAP2 SWAP1 PUSH2 0xFAD JUMP JUMPDEST PUSH1 0x40 MLOAD DUP1 SWAP2 SUB SWAP1 RETURN JUMPDEST CALLVALUE DUP1 ISZERO PUSH2 0x21B JUMPI PUSH1 0x0 DUP1 REVERT JUMPDEST POP PUSH2 0x236 PUSH1 0x4 DUP1 CALLDATASIZE SUB DUP2 ADD SWAP1 PUSH2 0x231 SWAP2 SWAP1 PUSH2 0xDDF JUMP JUMPDEST PUSH2 0x824 JUMP JUMPDEST PUSH1 0x40 MLOAD PUSH2 0x243 SWAP2 SWAP1 PUSH2 0xF50 JUMP JUMPDEST PUSH1 0x40 MLOAD DUP1 SWAP2 SUB SWAP1 RETURN JUMPDEST CALLVALUE DUP1 ISZERO PUSH2 0x258 JUMPI PUSH1 0x0 DUP1 REVERT JUMPDEST POP PUSH2 0x261 PUSH2 0x854 JUMP JUMPDEST PUSH1 0x40 MLOAD PUSH2 0x26E SWAP2 SWAP1 PUSH2 0xF6B JUMP JUMPDEST PUSH1 0x40 MLOAD DUP1 SWAP2 SUB SWAP1 RETURN JUMPDEST CALLVALUE DUP1 ISZERO PUSH2 0x283 JUMPI PUSH1 0x0 DUP1 REVERT JUMPDEST POP PUSH2 0x29E PUSH1 0x4 DUP1 CALLDATASIZE SUB DUP2 ADD SWAP1 PUSH2 0x299 SWAP2 SWAP1 PUSH2 0xD9F JUMP JUMPDEST PUSH2 0x88D JUMP JUMPDEST PUSH1 0x40 MLOAD PUSH2 0x2AB SWAP2 SWAP1 PUSH2 0xF35 JUMP JUMPDEST PUSH1 0x40 MLOAD DUP1 SWAP2 SUB SWAP1 RETURN JUMPDEST PUSH2 0x2CE PUSH1 0x4 DUP1 CALLDATASIZE SUB DUP2 ADD SWAP1 PUSH2 0x2C9 SWAP2 SWAP1 PUSH2 0xE28 JUMP JUMPDEST PUSH2 0xA7E JUMP JUMPDEST STOP JUMPDEST CALLVALUE DUP1 ISZERO PUSH2 0x2DC JUMPI PUSH1 0x0 DUP1 REVERT JUMPDEST POP PUSH2 0x2F7 PUSH1 0x4 DUP1 CALLDATASIZE SUB DUP2 ADD SWAP1 PUSH2 0x2F2 SWAP2 SWAP1 PUSH2 0xD0C JUMP JUMPDEST PUSH2 0xB6B JUMP JUMPDEST PUSH1 0x40 MLOAD PUSH2 0x304 SWAP2 SWAP1 PUSH2 0xFAD JUMP JUMPDEST PUSH1 0x40 MLOAD DUP1 SWAP2 SUB SWAP1 RETURN JUMPDEST PUSH1 0x40 MLOAD DUP1 PUSH1 0x40 ADD PUSH1 0x40 MSTORE DUP1 PUSH1 0xD DUP2 MSTORE PUSH1 0x20 ADD PUSH32 0x43727970746F4D6F6E7374657200000000000000000000000000000000000000 DUP2 MSTORE POP DUP2 JUMP JUMPDEST PUSH4 0x3B9ACA00 DUP2 JUMP JUMPDEST PUSH1 0x0 DUP2 PUSH1 0x1 PUSH1 0x0 CALLER PUSH20 0xFFFFFFFFFFFFFFFFFFFFFFFFFFFFFFFFFFFFFFFF AND PUSH20 0xFFFFFFFFFFFFFFFFFFFFFFFFFFFFFFFFFFFFFFFF AND DUP2 MSTORE PUSH1 0x20 ADD SWAP1 DUP2 MSTORE PUSH1 0x20 ADD PUSH1 0x0 KECCAK256 PUSH1 0x0 DUP6 PUSH20 0xFFFFFFFFFFFFFFFFFFFFFFFFFFFFFFFFFFFFFFFF AND PUSH20 0xFFFFFFFFFFFFFFFFFFFFFFFFFFFFFFFFFFFFFFFF AND DUP2 MSTORE PUSH1 0x20 ADD SWAP1 DUP2 MSTORE PUSH1 0x20 ADD PUSH1 0x0 KECCAK256 DUP2 SWAP1 SSTORE POP DUP3 PUSH20 0xFFFFFFFFFFFFFFFFFFFFFFFFFFFFFFFFFFFFFFFF AND CALLER PUSH20 0xFFFFFFFFFFFFFFFFFFFFFFFFFFFFFFFFFFFFFFFF AND PUSH32 0x8C5BE1E5EBEC7D5BD14F71427D1E84F3DD0314C0F7B2291E5B200AC8C7C3B925 DUP5 PUSH1 0x40 MLOAD PUSH2 0x42E SWAP2 SWAP1 PUSH2 0xFAD JUMP JUMPDEST PUSH1 0x40 MLOAD DUP1 SWAP2 SUB SWAP1 LOG3 PUSH1 0x1 SWAP1 POP SWAP3 SWAP2 POP POP JUMP JUMPDEST PUSH1 0x0 PUSH1 0x2 SLOAD SWAP1 POP SWAP1 JUMP JUMPDEST PUSH1 0x0 DUP1 PUSH1 0x0 DUP6 PUSH20 0xFFFFFFFFFFFFFFFFFFFFFFFFFFFFFFFFFFFFFFFF AND PUSH20 0xFFFFFFFFFFFFFFFFFFFFFFFFFFFFFFFFFFFFFFFF AND DUP2 MSTORE PUSH1 0x20 ADD SWAP1 DUP2 MSTORE PUSH1 0x20 ADD PUSH1 0x0 KECCAK256 PUSH1 0x2 ADD SLOAD DUP3 GT ISZERO PUSH2 0x49A JUMPI PUSH1 0x0 DUP1 REVERT JUMPDEST PUSH1 0x1 PUSH1 0x0 DUP6 PUSH20 0xFFFFFFFFFFFFFFFFFFFFFFFFFFFFFFFFFFFFFFFF AND PUSH20 0xFFFFFFFFFFFFFFFFFFFFFFFFFFFFFFFFFFFFFFFF AND DUP2 MSTORE PUSH1 0x20 ADD SWAP1 DUP2 MSTORE PUSH1 0x20 ADD PUSH1 0x0 KECCAK256 PUSH1 0x0 CALLER PUSH20 0xFFFFFFFFFFFFFFFFFFFFFFFFFFFFFFFFFFFFFFFF AND PUSH20 0xFFFFFFFFFFFFFFFFFFFFFFFFFFFFFFFFFFFFFFFF AND DUP2 MSTORE PUSH1 0x20 ADD SWAP1 DUP2 MSTORE PUSH1 0x20 ADD PUSH1 0x0 KECCAK256 SLOAD DUP3 GT ISZERO PUSH2 0x523 JUMPI PUSH1 0x0 DUP1 REVERT JUMPDEST PUSH2 0x577 DUP3 PUSH1 0x0 DUP1 DUP8 PUSH20 0xFFFFFFFFFFFFFFFFFFFFFFFFFFFFFFFFFFFFFFFF AND PUSH20 0xFFFFFFFFFFFFFFFFFFFFFFFFFFFFFFFFFFFFFFFF AND DUP2 MSTORE PUSH1 0x20 ADD SWAP1 DUP2 MSTORE PUSH1 0x20 ADD PUSH1 0x0 KECCAK256 PUSH1 0x2 ADD SLOAD PUSH2 0xBF2 SWAP1 SWAP2 SWAP1 PUSH4 0xFFFFFFFF AND JUMP JUMPDEST PUSH1 0x0 DUP1 DUP7 PUSH20 0xFFFFFFFFFFFFFFFFFFFFFFFFFFFFFFFFFFFFFFFF AND PUSH20 0xFFFFFFFFFFFFFFFFFFFFFFFFFFFFFFFFFFFFFFFF AND DUP2 MSTORE PUSH1 0x20 ADD SWAP1 DUP2 MSTORE PUSH1 0x20 ADD PUSH1 0x0 KECCAK256 PUSH1 0x2 ADD DUP2 SWAP1 SSTORE POP PUSH2 0x64B DUP3 PUSH1 0x1 PUSH1 0x0 DUP8 PUSH20 0xFFFFFFFFFFFFFFFFFFFFFFFFFFFFFFFFFFFFFFFF AND PUSH20 0xFFFFFFFFFFFFFFFFFFFFFFFFFFFFFFFFFFFFFFFF AND DUP2 MSTORE PUSH1 0x20 ADD SWAP1 DUP2 MSTORE PUSH1 0x20 ADD PUSH1 0x0 KECCAK256 PUSH1 0x0 CALLER PUSH20 0xFFFFFFFFFFFFFFFFFFFFFFFFFFFFFFFFFFFFFFFF AND PUSH20 0xFFFFFFFFFFFFFFFFFFFFFFFFFFFFFFFFFFFFFFFF AND DUP2 MSTORE PUSH1 0x20 ADD SWAP1 DUP2 MSTORE PUSH1 0x20 ADD PUSH1 0x0 KECCAK256 SLOAD PUSH2 0xBF2 SWAP1 SWAP2 SWAP1 PUSH4 0xFFFFFFFF AND JUMP JUMPDEST PUSH1 0x1 PUSH1 0x0 DUP7 PUSH20 0xFFFFFFFFFFFFFFFFFFFFFFFFFFFFFFFFFFFFFFFF AND PUSH20 0xFFFFFFFFFFFFFFFFFFFFFFFFFFFFFFFFFFFFFFFF AND DUP2 MSTORE PUSH1 0x20 ADD SWAP1 DUP2 MSTORE PUSH1 0x20 ADD PUSH1 0x0 KECCAK256 PUSH1 0x0 CALLER PUSH20 0xFFFFFFFFFFFFFFFFFFFFFFFFFFFFFFFFFFFFFFFF AND PUSH20 0xFFFFFFFFFFFFFFFFFFFFFFFFFFFFFFFFFFFFFFFF AND DUP2 MSTORE PUSH1 0x20 ADD SWAP1 DUP2 MSTORE PUSH1 0x20 ADD PUSH1 0x0 KECCAK256 DUP2 SWAP1 SSTORE POP PUSH2 0x71F DUP3 PUSH1 0x0 DUP1 DUP7 PUSH20 0xFFFFFFFFFFFFFFFFFFFFFFFFFFFFFFFFFFFFFFFF AND PUSH20 0xFFFFFFFFFFFFFFFFFFFFFFFFFFFFFFFFFFFFFFFF AND DUP2 MSTORE PUSH1 0x20 ADD SWAP1 DUP2 MSTORE PUSH1 0x20 ADD PUSH1 0x0 KECCAK256 PUSH1 0x2 ADD SLOAD PUSH2 0xC19 SWAP1 SWAP2 SWAP1 PUSH4 0xFFFFFFFF AND JUMP JUMPDEST PUSH1 0x0 DUP1 DUP6 PUSH20 0xFFFFFFFFFFFFFFFFFFFFFFFFFFFFFFFFFFFFFFFF AND PUSH20 0xFFFFFFFFFFFFFFFFFFFFFFFFFFFFFFFFFFFFFFFF AND DUP2 MSTORE PUSH1 0x20 ADD SWAP1 DUP2 MSTORE PUSH1 0x20 ADD PUSH1 0x0 KECCAK256 PUSH1 0x2 ADD DUP2 SWAP1 SSTORE POP DUP3 PUSH20 0xFFFFFFFFFFFFFFFFFFFFFFFFFFFFFFFFFFFFFFFF AND DUP5 PUSH20 0xFFFFFFFFFFFFFFFFFFFFFFFFFFFFFFFFFFFFFFFF AND PUSH32 0xDDF252AD1BE2C89B69C2B068FC378DAA952BA7F163C4A11628F55A4DF523B3EF DUP5 PUSH1 0x40 MLOAD PUSH2 0x7C1 SWAP2 SWAP1 PUSH2 0xFAD JUMP JUMPDEST PUSH1 0x40 MLOAD DUP1 SWAP2 SUB SWAP1 LOG3 PUSH1 0x1 SWAP1 POP SWAP4 SWAP3 POP POP POP JUMP JUMPDEST PUSH1 0xC DUP2 JUMP JUMPDEST PUSH1 0x0 DUP1 PUSH1 0x0 DUP4 PUSH20 0xFFFFFFFFFFFFFFFFFFFFFFFFFFFFFFFFFFFFFFFF AND PUSH20 0xFFFFFFFFFFFFFFFFFFFFFFFFFFFFFFFFFFFFFFFF AND DUP2 MSTORE PUSH1 0x20 ADD SWAP1 DUP2 MSTORE PUSH1 0x20 ADD PUSH1 0x0 KECCAK256 PUSH1 0x2 ADD SLOAD SWAP1 POP SWAP2 SWAP1 POP JUMP JUMPDEST PUSH1 0x0 DUP2 PUSH1 0x40 MLOAD PUSH1 0x20 ADD PUSH2 0x837 SWAP2 SWAP1 PUSH2 0xF1E JUMP JUMPDEST PUSH1 0x40 MLOAD PUSH1 0x20 DUP2 DUP4 SUB SUB DUP2 MSTORE SWAP1 PUSH1 0x40 MSTORE DUP1 MLOAD SWAP1 PUSH1 0x20 ADD KECCAK256 SWAP1 POP SWAP2 SWAP1 POP JUMP JUMPDEST PUSH1 0x40 MLOAD DUP1 PUSH1 0x40 ADD PUSH1 0x40 MSTORE DUP1 PUSH1 0x4 DUP2 MSTORE PUSH1 0x20 ADD PUSH32 0x434D4F4E00000000000000000000000000000000000000000000000000000000 DUP2 MSTORE POP DUP2 JUMP JUMPDEST PUSH1 0x0 DUP1 PUSH1 0x0 CALLER PUSH20 0xFFFFFFFFFFFFFFFFFFFFFFFFFFFFFFFFFFFFFFFF AND PUSH20 0xFFFFFFFFFFFFFFFFFFFFFFFFFFFFFFFFFFFFFFFF AND DUP2 MSTORE PUSH1 0x20 ADD SWAP1 DUP2 MSTORE PUSH1 0x20 ADD PUSH1 0x0 KECCAK256 PUSH1 0x2 ADD SLOAD DUP3 GT ISZERO PUSH2 0x8DD JUMPI PUSH1 0x0 DUP1 REVERT JUMPDEST PUSH2 0x931 DUP3 PUSH1 0x0 DUP1 CALLER PUSH20 0xFFFFFFFFFFFFFFFFFFFFFFFFFFFFFFFFFFFFFFFF AND PUSH20 0xFFFFFFFFFFFFFFFFFFFFFFFFFFFFFFFFFFFFFFFF AND DUP2 MSTORE PUSH1 0x20 ADD SWAP1 DUP2 MSTORE PUSH1 0x20 ADD PUSH1 0x0 KECCAK256 PUSH1 0x2 ADD SLOAD PUSH2 0xBF2 SWAP1 SWAP2 SWAP1 PUSH4 0xFFFFFFFF AND JUMP JUMPDEST PUSH1 0x0 DUP1 CALLER PUSH20 0xFFFFFFFFFFFFFFFFFFFFFFFFFFFFFFFFFFFFFFFF AND PUSH20 0xFFFFFFFFFFFFFFFFFFFFFFFFFFFFFFFFFFFFFFFF AND DUP2 MSTORE PUSH1 0x20 ADD SWAP1 DUP2 MSTORE PUSH1 0x20 ADD PUSH1 0x0 KECCAK256 PUSH1 0x2 ADD DUP2 SWAP1 SSTORE POP PUSH2 0x9CA DUP3 PUSH1 0x0 DUP1 DUP7 PUSH20 0xFFFFFFFFFFFFFFFFFFFFFFFFFFFFFFFFFFFFFFFF AND PUSH20 0xFFFFFFFFFFFFFFFFFFFFFFFFFFFFFFFFFFFFFFFF AND DUP2 MSTORE PUSH1 0x20 ADD SWAP1 DUP2 MSTORE PUSH1 0x20 ADD PUSH1 0x0 KECCAK256 PUSH1 0x2 ADD SLOAD PUSH2 0xC19 SWAP1 SWAP2 SWAP1 PUSH4 0xFFFFFFFF AND JUMP JUMPDEST PUSH1 0x0 DUP1 DUP6 PUSH20 0xFFFFFFFFFFFFFFFFFFFFFFFFFFFFFFFFFFFFFFFF AND PUSH20 0xFFFFFFFFFFFFFFFFFFFFFFFFFFFFFFFFFFFFFFFF AND DUP2 MSTORE PUSH1 0x20 ADD SWAP1 DUP2 MSTORE PUSH1 0x20 ADD PUSH1 0x0 KECCAK256 PUSH1 0x2 ADD DUP2 SWAP1 SSTORE POP DUP3 PUSH20 0xFFFFFFFFFFFFFFFFFFFFFFFFFFFFFFFFFFFFFFFF AND CALLER PUSH20 0xFFFFFFFFFFFFFFFFFFFFFFFFFFFFFFFFFFFFFFFF AND PUSH32 0xDDF252AD1BE2C89B69C2B068FC378DAA952BA7F163C4A11628F55A4DF523B3EF DUP5 PUSH1 0x40 MLOAD PUSH2 0xA6C SWAP2 SWAP1 PUSH2 0xFAD JUMP JUMPDEST PUSH1 0x40 MLOAD DUP1 SWAP2 SUB SWAP1 LOG3 PUSH1 0x1 SWAP1 POP SWAP3 SWAP2 POP POP JUMP JUMPDEST PUSH4 0x3B9ACA00 DUP2 PUSH2 0xA8E SWAP2 SWAP1 PUSH2 0x10B6 JUMP JUMPDEST CALLVALUE EQ PUSH2 0xACF JUMPI PUSH1 0x40 MLOAD PUSH32 0x8C379A000000000000000000000000000000000000000000000000000000000 DUP2 MSTORE PUSH1 0x4 ADD PUSH2 0xAC6 SWAP1 PUSH2 0xF8D JUMP JUMPDEST PUSH1 0x40 MLOAD DUP1 SWAP2 SUB SWAP1 REVERT JUMPDEST PUSH2 0xB23 DUP2 PUSH1 0x0 DUP1 CALLER PUSH20 0xFFFFFFFFFFFFFFFFFFFFFFFFFFFFFFFFFFFFFFFF AND PUSH20 0xFFFFFFFFFFFFFFFFFFFFFFFFFFFFFFFFFFFFFFFF AND DUP2 MSTORE PUSH1 0x20 ADD SWAP1 DUP2 MSTORE PUSH1 0x20 ADD PUSH1 0x0 KECCAK256 PUSH1 0x2 ADD SLOAD PUSH2 0xC19 SWAP1 SWAP2 SWAP1 PUSH4 0xFFFFFFFF AND JUMP JUMPDEST PUSH1 0x0 DUP1 CALLER PUSH20 0xFFFFFFFFFFFFFFFFFFFFFFFFFFFFFFFFFFFFFFFF AND PUSH20 0xFFFFFFFFFFFFFFFFFFFFFFFFFFFFFFFFFFFFFFFF AND DUP2 MSTORE PUSH1 0x20 ADD SWAP1 DUP2 MSTORE PUSH1 0x20 ADD PUSH1 0x0 KECCAK256 PUSH1 0x2 ADD DUP2 SWAP1 SSTORE POP POP JUMP JUMPDEST PUSH1 0x0 PUSH1 0x1 PUSH1 0x0 DUP5 PUSH20 0xFFFFFFFFFFFFFFFFFFFFFFFFFFFFFFFFFFFFFFFF AND PUSH20 0xFFFFFFFFFFFFFFFFFFFFFFFFFFFFFFFFFFFFFFFF AND DUP2 MSTORE PUSH1 0x20 ADD SWAP1 DUP2 MSTORE PUSH1 0x20 ADD PUSH1 0x0 KECCAK256 PUSH1 0x0 DUP4 PUSH20 0xFFFFFFFFFFFFFFFFFFFFFFFFFFFFFFFFFFFFFFFF AND PUSH20 0xFFFFFFFFFFFFFFFFFFFFFFFFFFFFFFFFFFFFFFFF AND DUP2 MSTORE PUSH1 0x20 ADD SWAP1 DUP2 MSTORE PUSH1 0x20 ADD PUSH1 0x0 KECCAK256 SLOAD SWAP1 POP SWAP3 SWAP2 POP POP JUMP JUMPDEST PUSH1 0x0 DUP3 DUP3 GT ISZERO PUSH2 0xC05 JUMPI PUSH2 0xC04 PUSH2 0x1216 JUMP JUMPDEST JUMPDEST DUP2 DUP4 PUSH2 0xC11 SWAP2 SWAP1 PUSH2 0x1110 JUMP JUMPDEST SWAP1 POP SWAP3 SWAP2 POP POP JUMP JUMPDEST PUSH1 0x0 DUP1 DUP3 DUP5 PUSH2 0xC28 SWAP2 SWAP1 PUSH2 0x1060 JUMP JUMPDEST SWAP1 POP DUP4 DUP2 LT ISZERO PUSH2 0xC3B JUMPI PUSH2 0xC3A PUSH2 0x1216 JUMP JUMPDEST JUMPDEST DUP1 SWAP2 POP POP SWAP3 SWAP2 POP POP JUMP JUMPDEST PUSH1 0x0 PUSH2 0xC58 PUSH2 0xC53 DUP5 PUSH2 0x1008 JUMP JUMPDEST PUSH2 0xFE3 JUMP JUMPDEST SWAP1 POP DUP3 DUP2 MSTORE PUSH1 0x20 DUP2 ADD DUP5 DUP5 DUP5 ADD GT ISZERO PUSH2 0xC74 JUMPI PUSH2 0xC73 PUSH2 0x12A8 JUMP JUMPDEST JUMPDEST PUSH2 0xC7F DUP5 DUP3 DUP6 PUSH2 0x11A3 JUMP JUMPDEST POP SWAP4 SWAP3 POP POP POP JUMP JUMPDEST PUSH1 0x0 DUP2 CALLDATALOAD SWAP1 POP PUSH2 0xC96 DUP2 PUSH2 0x12F1 JUMP JUMPDEST SWAP3 SWAP2 POP POP JUMP JUMPDEST PUSH1 0x0 DUP3 PUSH1 0x1F DUP4 ADD SLT PUSH2 0xCB1 JUMPI PUSH2 0xCB0 PUSH2 0x12A3 JUMP JUMPDEST JUMPDEST DUP2 CALLDATALOAD PUSH2 0xCC1 DUP5 DUP3 PUSH1 0x20 DUP7 ADD PUSH2 0xC45 JUMP JUMPDEST SWAP2 POP POP SWAP3 SWAP2 POP POP JUMP JUMPDEST PUSH1 0x0 DUP2 CALLDATALOAD SWAP1 POP PUSH2 0xCD9 DUP2 PUSH2 0x1308 JUMP JUMPDEST SWAP3 SWAP2 POP POP JUMP JUMPDEST PUSH1 0x0 PUSH1 0x20 DUP3 DUP5 SUB SLT ISZERO PUSH2 0xCF5 JUMPI PUSH2 0xCF4 PUSH2 0x12B2 JUMP JUMPDEST JUMPDEST PUSH1 0x0 PUSH2 0xD03 DUP5 DUP3 DUP6 ADD PUSH2 0xC87 JUMP JUMPDEST SWAP2 POP POP SWAP3 SWAP2 POP POP JUMP JUMPDEST PUSH1 0x0 DUP1 PUSH1 0x40 DUP4 DUP6 SUB SLT ISZERO PUSH2 0xD23 JUMPI PUSH2 0xD22 PUSH2 0x12B2 JUMP JUMPDEST JUMPDEST PUSH1 0x0 PUSH2 0xD31 DUP6 DUP3 DUP7 ADD PUSH2 0xC87 JUMP JUMPDEST SWAP3 POP POP PUSH1 0x20 PUSH2 0xD42 DUP6 DUP3 DUP7 ADD PUSH2 0xC87 JUMP JUMPDEST SWAP2 POP POP SWAP3 POP SWAP3 SWAP1 POP JUMP JUMPDEST PUSH1 0x0 DUP1 PUSH1 0x0 PUSH1 0x60 DUP5 DUP7 SUB SLT ISZERO PUSH2 0xD65 JUMPI PUSH2 0xD64 PUSH2 0x12B2 JUMP JUMPDEST JUMPDEST PUSH1 0x0 PUSH2 0xD73 DUP7 DUP3 DUP8 ADD PUSH2 0xC87 JUMP JUMPDEST SWAP4 POP POP PUSH1 0x20 PUSH2 0xD84 DUP7 DUP3 DUP8 ADD PUSH2 0xC87 JUMP JUMPDEST SWAP3 POP POP PUSH1 0x40 PUSH2 0xD95 DUP7 DUP3 DUP8 ADD PUSH2 0xCCA JUMP JUMPDEST SWAP2 POP POP SWAP3 POP SWAP3 POP SWAP3 JUMP JUMPDEST PUSH1 0x0 DUP1 PUSH1 0x40 DUP4 DUP6 SUB SLT ISZERO PUSH2 0xDB6 JUMPI PUSH2 0xDB5 PUSH2 0x12B2 JUMP JUMPDEST JUMPDEST PUSH1 0x0 PUSH2 0xDC4 DUP6 DUP3 DUP7 ADD PUSH2 0xC87 JUMP JUMPDEST SWAP3 POP POP PUSH1 0x20 PUSH2 0xDD5 DUP6 DUP3 DUP7 ADD PUSH2 0xCCA JUMP JUMPDEST SWAP2 POP POP SWAP3 POP SWAP3 SWAP1 POP JUMP JUMPDEST PUSH1 0x0 PUSH1 0x20 DUP3 DUP5 SUB SLT ISZERO PUSH2 0xDF5 JUMPI PUSH2 0xDF4 PUSH2 0x12B2 JUMP JUMPDEST JUMPDEST PUSH1 0x0 DUP3 ADD CALLDATALOAD PUSH8 0xFFFFFFFFFFFFFFFF DUP2 GT ISZERO PUSH2 0xE13 JUMPI PUSH2 0xE12 PUSH2 0x12AD JUMP JUMPDEST JUMPDEST PUSH2 0xE1F DUP5 DUP3 DUP6 ADD PUSH2 0xC9C JUMP JUMPDEST SWAP2 POP POP SWAP3 SWAP2 POP POP JUMP JUMPDEST PUSH1 0x0 PUSH1 0x20 DUP3 DUP5 SUB SLT ISZERO PUSH2 0xE3E JUMPI PUSH2 0xE3D PUSH2 0x12B2 JUMP JUMPDEST JUMPDEST PUSH1 0x0 PUSH2 0xE4C DUP5 DUP3 DUP6 ADD PUSH2 0xCCA JUMP JUMPDEST SWAP2 POP POP SWAP3 SWAP2 POP POP JUMP JUMPDEST PUSH2 0xE5E DUP2 PUSH2 0x1156 JUMP JUMPDEST DUP3 MSTORE POP POP JUMP JUMPDEST PUSH2 0xE6D DUP2 PUSH2 0x1162 JUMP JUMPDEST DUP3 MSTORE POP POP JUMP JUMPDEST PUSH1 0x0 PUSH2 0xE7E DUP3 PUSH2 0x1039 JUMP JUMPDEST PUSH2 0xE88 DUP2 DUP6 PUSH2 0x1044 JUMP JUMPDEST SWAP4 POP PUSH2 0xE98 DUP2 DUP6 PUSH1 0x20 DUP7 ADD PUSH2 0x11B2 JUMP JUMPDEST PUSH2 0xEA1 DUP2 PUSH2 0x12B7 JUMP JUMPDEST DUP5 ADD SWAP2 POP POP SWAP3 SWAP2 POP POP JUMP JUMPDEST PUSH1 0x0 PUSH2 0xEB7 DUP3 PUSH2 0x1039 JUMP JUMPDEST PUSH2 0xEC1 DUP2 DUP6 PUSH2 0x1055 JUMP JUMPDEST SWAP4 POP PUSH2 0xED1 DUP2 DUP6 PUSH1 0x20 DUP7 ADD PUSH2 0x11B2 JUMP JUMPDEST DUP1 DUP5 ADD SWAP2 POP POP SWAP3 SWAP2 POP POP JUMP JUMPDEST PUSH1 0x0 PUSH2 0xEEA PUSH1 0x20 DUP4 PUSH2 0x1044 JUMP JUMPDEST SWAP2 POP PUSH2 0xEF5 DUP3 PUSH2 0x12C8 JUMP JUMPDEST PUSH1 0x20 DUP3 ADD SWAP1 POP SWAP2 SWAP1 POP JUMP JUMPDEST PUSH2 0xF09 DUP2 PUSH2 0x118C JUMP JUMPDEST DUP3 MSTORE POP POP JUMP JUMPDEST PUSH2 0xF18 DUP2 PUSH2 0x1196 JUMP JUMPDEST DUP3 MSTORE POP POP JUMP JUMPDEST PUSH1 0x0 PUSH2 0xF2A DUP3 DUP5 PUSH2 0xEAC JUMP JUMPDEST SWAP2 POP DUP2 SWAP1 POP SWAP3 SWAP2 POP POP JUMP JUMPDEST PUSH1 0x0 PUSH1 0x20 DUP3 ADD SWAP1 POP PUSH2 0xF4A PUSH1 0x0 DUP4 ADD DUP5 PUSH2 0xE55 JUMP JUMPDEST SWAP3 SWAP2 POP POP JUMP JUMPDEST PUSH1 0x0 PUSH1 0x20 DUP3 ADD SWAP1 POP PUSH2 0xF65 PUSH1 0x0 DUP4 ADD DUP5 PUSH2 0xE64 JUMP JUMPDEST SWAP3 SWAP2 POP POP JUMP JUMPDEST PUSH1 0x0 PUSH1 0x20 DUP3 ADD SWAP1 POP DUP2 DUP2 SUB PUSH1 0x0 DUP4 ADD MSTORE PUSH2 0xF85 DUP2 DUP5 PUSH2 0xE73 JUMP JUMPDEST SWAP1 POP SWAP3 SWAP2 POP POP JUMP JUMPDEST PUSH1 0x0 PUSH1 0x20 DUP3 ADD SWAP1 POP DUP2 DUP2 SUB PUSH1 0x0 DUP4 ADD MSTORE PUSH2 0xFA6 DUP2 PUSH2 0xEDD JUMP JUMPDEST SWAP1 POP SWAP2 SWAP1 POP JUMP JUMPDEST PUSH1 0x0 PUSH1 0x20 DUP3 ADD SWAP1 POP PUSH2 0xFC2 PUSH1 0x0 DUP4 ADD DUP5 PUSH2 0xF00 JUMP JUMPDEST SWAP3 SWAP2 POP POP JUMP JUMPDEST PUSH1 0x0 PUSH1 0x20 DUP3 ADD SWAP1 POP PUSH2 0xFDD PUSH1 0x0 DUP4 ADD DUP5 PUSH2 0xF0F JUMP JUMPDEST SWAP3 SWAP2 POP POP JUMP JUMPDEST PUSH1 0x0 PUSH2 0xFED PUSH2 0xFFE JUMP JUMPDEST SWAP1 POP PUSH2 0xFF9 DUP3 DUP3 PUSH2 0x11E5 JUMP JUMPDEST SWAP2 SWAP1 POP JUMP JUMPDEST PUSH1 0x0 PUSH1 0x40 MLOAD SWAP1 POP SWAP1 JUMP JUMPDEST PUSH1 0x0 PUSH8 0xFFFFFFFFFFFFFFFF DUP3 GT ISZERO PUSH2 0x1023 JUMPI PUSH2 0x1022 PUSH2 0x1274 JUMP JUMPDEST JUMPDEST PUSH2 0x102C DUP3 PUSH2 0x12B7 JUMP JUMPDEST SWAP1 POP PUSH1 0x20 DUP2 ADD SWAP1 POP SWAP2 SWAP1 POP JUMP JUMPDEST PUSH1 0x0 DUP2 MLOAD SWAP1 POP SWAP2 SWAP1 POP JUMP JUMPDEST PUSH1 0x0 DUP3 DUP3 MSTORE PUSH1 0x20 DUP3 ADD SWAP1 POP SWAP3 SWAP2 POP POP JUMP JUMPDEST PUSH1 0x0 DUP2 SWAP1 POP SWAP3 SWAP2 POP POP JUMP JUMPDEST PUSH1 0x0 PUSH2 0x106B DUP3 PUSH2 0x118C JUMP JUMPDEST SWAP2 POP PUSH2 0x1076 DUP4 PUSH2 0x118C JUMP JUMPDEST SWAP3 POP DUP3 PUSH32 0xFFFFFFFFFFFFFFFFFFFFFFFFFFFFFFFFFFFFFFFFFFFFFFFFFFFFFFFFFFFFFFFF SUB DUP3 GT ISZERO PUSH2 0x10AB JUMPI PUSH2 0x10AA PUSH2 0x1245 JUMP JUMPDEST JUMPDEST DUP3 DUP3 ADD SWAP1 POP SWAP3 SWAP2 POP POP JUMP JUMPDEST PUSH1 0x0 PUSH2 0x10C1 DUP3 PUSH2 0x118C JUMP JUMPDEST SWAP2 POP PUSH2 0x10CC DUP4 PUSH2 0x118C JUMP JUMPDEST SWAP3 POP DUP2 PUSH32 0xFFFFFFFFFFFFFFFFFFFFFFFFFFFFFFFFFFFFFFFFFFFFFFFFFFFFFFFFFFFFFFFF DIV DUP4 GT DUP3 ISZERO ISZERO AND ISZERO PUSH2 0x1105 JUMPI PUSH2 0x1104 PUSH2 0x1245 JUMP JUMPDEST JUMPDEST DUP3 DUP3 MUL SWAP1 POP SWAP3 SWAP2 POP POP JUMP JUMPDEST PUSH1 0x0 PUSH2 0x111B DUP3 PUSH2 0x118C JUMP JUMPDEST SWAP2 POP PUSH2 0x1126 DUP4 PUSH2 0x118C JUMP JUMPDEST SWAP3 POP DUP3 DUP3 LT ISZERO PUSH2 0x1139 JUMPI PUSH2 0x1138 PUSH2 0x1245 JUMP JUMPDEST JUMPDEST DUP3 DUP3 SUB SWAP1 POP SWAP3 SWAP2 POP POP JUMP JUMPDEST PUSH1 0x0 PUSH2 0x114F DUP3 PUSH2 0x116C JUMP JUMPDEST SWAP1 POP SWAP2 SWAP1 POP JUMP JUMPDEST PUSH1 0x0 DUP2 ISZERO ISZERO SWAP1 POP SWAP2 SWAP1 POP JUMP JUMPDEST PUSH1 0x0 DUP2 SWAP1 POP SWAP2 SWAP1 POP JUMP JUMPDEST PUSH1 0x0 PUSH20 0xFFFFFFFFFFFFFFFFFFFFFFFFFFFFFFFFFFFFFFFF DUP3 AND SWAP1 POP SWAP2 SWAP1 POP JUMP JUMPDEST PUSH1 0x0 DUP2 SWAP1 POP SWAP2 SWAP1 POP JUMP JUMPDEST PUSH1 0x0 PUSH1 0xFF DUP3 AND SWAP1 POP SWAP2 SWAP1 POP JUMP JUMPDEST DUP3 DUP2 DUP4 CALLDATACOPY PUSH1 0x0 DUP4 DUP4 ADD MSTORE POP POP POP JUMP JUMPDEST PUSH1 0x0 JUMPDEST DUP4 DUP2 LT ISZERO PUSH2 0x11D0 JUMPI DUP1 DUP3 ADD MLOAD DUP2 DUP5 ADD MSTORE PUSH1 0x20 DUP2 ADD SWAP1 POP PUSH2 0x11B5 JUMP JUMPDEST DUP4 DUP2 GT ISZERO PUSH2 0x11DF JUMPI PUSH1 0x0 DUP5 DUP5 ADD MSTORE JUMPDEST POP POP POP POP JUMP JUMPDEST PUSH2 0x11EE DUP3 PUSH2 0x12B7 JUMP JUMPDEST DUP2 ADD DUP2 DUP2 LT PUSH8 0xFFFFFFFFFFFFFFFF DUP3 GT OR ISZERO PUSH2 0x120D JUMPI PUSH2 0x120C PUSH2 0x1274 JUMP JUMPDEST JUMPDEST DUP1 PUSH1 0x40 MSTORE POP POP POP JUMP JUMPDEST PUSH32 0x4E487B7100000000000000000000000000000000000000000000000000000000 PUSH1 0x0 MSTORE PUSH1 0x1 PUSH1 0x4 MSTORE PUSH1 0x24 PUSH1 0x0 REVERT JUMPDEST PUSH32 0x4E487B7100000000000000000000000000000000000000000000000000000000 PUSH1 0x0 MSTORE PUSH1 0x11 PUSH1 0x4 MSTORE PUSH1 0x24 PUSH1 0x0 REVERT JUMPDEST PUSH32 0x4E487B7100000000000000000000000000000000000000000000000000000000 PUSH1 0x0 MSTORE PUSH1 0x41 PUSH1 0x4 MSTORE PUSH1 0x24 PUSH1 0x0 REVERT JUMPDEST PUSH1 0x0 DUP1 REVERT JUMPDEST PUSH1 0x0 DUP1 REVERT JUMPDEST PUSH1 0x0 DUP1 REVERT JUMPDEST PUSH1 0x0 DUP1 REVERT JUMPDEST PUSH1 0x0 PUSH1 0x1F NOT PUSH1 0x1F DUP4 ADD AND SWAP1 POP SWAP2 SWAP1 POP JUMP JUMPDEST PUSH32 0x4E65656420746F2073656E6420657861637420616D6F756E74206F6620776569 PUSH1 0x0 DUP3 ADD MSTORE POP JUMP JUMPDEST PUSH2 0x12FA DUP2 PUSH2 0x1144 JUMP JUMPDEST DUP2 EQ PUSH2 0x1305 JUMPI PUSH1 0x0 DUP1 REVERT JUMPDEST POP JUMP JUMPDEST PUSH2 0x1311 DUP2 PUSH2 0x118C JUMP JUMPDEST DUP2 EQ PUSH2 0x131C JUMPI PUSH1 0x0 DUP1 REVERT JUMPDEST POP JUMP INVALID LOG2 PUSH5 0x6970667358 0x22 SLT KECCAK256 0xE5 PUSH17 0xACCAA672ED2BC47793300EEBB258B4F6C2 0xAF SELFBALANCE MSTORE8 PUSH25 0x4EC37D6651334FB2A464736F6C634300080700330000000000 "
				},
				"gasEstimates": {
					"creation": {
						"codeDepositCost": "989800",
						"executionCost": "infinite",
						"totalCost": "infinite"
					},
					"external": {
						"allowance(address,address)": "infinite",
						"approve(address,uint256)": "infinite",
						"balanceOf(address)": "2847",
						"buy(uint256)": "infinite",
						"decimals()": "446",
						"get_hash(string)": "infinite",
						"name()": "infinite",
						"symbol()": "infinite",
						"tokenPrice_()": "352",
						"totalSupply()": "2504",
						"transfer(address,uint256)": "infinite",
						"transferFrom(address,address,uint256)": "infinite"
					}
				},
				"methodIdentifiers": {
					"allowance(address,address)": "dd62ed3e",
					"approve(address,uint256)": "095ea7b3",
					"balanceOf(address)": "70a08231",
					"buy(uint256)": "d96a094a",
					"decimals()": "313ce567",
					"get_hash(string)": "845952a8",
					"name()": "06fdde03",
					"symbol()": "95d89b41",
					"tokenPrice_()": "0761c8b9",
					"totalSupply()": "18160ddd",
					"transfer(address,uint256)": "a9059cbb",
					"transferFrom(address,address,uint256)": "23b872dd"
				}
			},
			"storageLayout": {
				"storage": [
					{
						"astId": 851,
						"contract": "Documents/GitHub/contract-token-cryptoMonster/backend/components/CryptoMonster.sol:CryptoMonster",
						"label": "structUser_",
						"offset": 0,
						"slot": "0",
						"type": "t_mapping(t_address,t_struct(structUser)846_storage)"
					},
					{
						"astId": 31,
						"contract": "Documents/GitHub/contract-token-cryptoMonster/backend/components/CryptoMonster.sol:CryptoMonster",
						"label": "allowed",
						"offset": 0,
						"slot": "1",
						"type": "t_mapping(t_address,t_mapping(t_address,t_uint256))"
					},
					{
						"astId": 33,
						"contract": "Documents/GitHub/contract-token-cryptoMonster/backend/components/CryptoMonster.sol:CryptoMonster",
						"label": "totalSupply_",
						"offset": 0,
						"slot": "2",
						"type": "t_uint256"
					}
				],
				"types": {
					"t_address": {
						"encoding": "inplace",
						"label": "address",
						"numberOfBytes": "20"
					},
					"t_bytes32": {
						"encoding": "inplace",
						"label": "bytes32",
						"numberOfBytes": "32"
					},
					"t_mapping(t_address,t_mapping(t_address,t_uint256))": {
						"encoding": "mapping",
						"key": "t_address",
						"label": "mapping(address => mapping(address => uint256))",
						"numberOfBytes": "32",
						"value": "t_mapping(t_address,t_uint256)"
					},
					"t_mapping(t_address,t_struct(structUser)846_storage)": {
						"encoding": "mapping",
						"key": "t_address",
						"label": "mapping(address => struct structures.structUser)",
						"numberOfBytes": "32",
						"value": "t_struct(structUser)846_storage"
					},
					"t_mapping(t_address,t_uint256)": {
						"encoding": "mapping",
						"key": "t_address",
						"label": "mapping(address => uint256)",
						"numberOfBytes": "32",
						"value": "t_uint256"
					},
					"t_string_storage": {
						"encoding": "bytes",
						"label": "string",
						"numberOfBytes": "32"
					},
					"t_struct(structUser)846_storage": {
						"encoding": "inplace",
						"label": "struct structures.structUser",
						"members": [
							{
								"astId": 841,
								"contract": "Documents/GitHub/contract-token-cryptoMonster/backend/components/CryptoMonster.sol:CryptoMonster",
								"label": "login",
								"offset": 0,
								"slot": "0",
								"type": "t_string_storage"
							},
							{
								"astId": 843,
								"contract": "Documents/GitHub/contract-token-cryptoMonster/backend/components/CryptoMonster.sol:CryptoMonster",
								"label": "password",
								"offset": 0,
								"slot": "1",
								"type": "t_bytes32"
							},
							{
								"astId": 845,
								"contract": "Documents/GitHub/contract-token-cryptoMonster/backend/components/CryptoMonster.sol:CryptoMonster",
								"label": "balances",
								"offset": 0,
								"slot": "2",
								"type": "t_uint256"
							}
						],
						"numberOfBytes": "96"
					},
					"t_uint256": {
						"encoding": "inplace",
						"label": "uint256",
						"numberOfBytes": "32"
					}
				}
			},
			"userdoc": {
				"kind": "user",
				"methods": {},
				"version": 1
			}
		}
	}
}