{
	"Documents/GitHub/contract-token-cryptoMonster/backend/components/PhasePrivate.sol": {
		"PhasePrivate": {
			"abi": [
				{
					"inputs": [
						{
							"internalType": "bool",
							"name": "_changeStatus",
							"type": "bool"
						}
					],
					"name": "acceptApplication",
					"outputs": [],
					"stateMutability": "nonpayable",
					"type": "function"
				},
				{
					"inputs": [
						{
							"internalType": "string",
							"name": "_name",
							"type": "string"
						},
						{
							"internalType": "string",
							"name": "_contactForCommunication",
							"type": "string"
						},
						{
							"internalType": "address",
							"name": "_userAdr",
							"type": "address"
						}
					],
					"name": "application",
					"outputs": [],
					"stateMutability": "nonpayable",
					"type": "function"
				},
				{
					"inputs": [
						{
							"internalType": "string",
							"name": "_hash",
							"type": "string"
						}
					],
					"name": "get_keccak256",
					"outputs": [
						{
							"internalType": "bytes32",
							"name": "",
							"type": "bytes32"
						}
					],
					"stateMutability": "pure",
					"type": "function"
				},
				{
					"inputs": [
						{
							"internalType": "address",
							"name": "",
							"type": "address"
						}
					],
					"name": "viewApplication",
					"outputs": [],
					"stateMutability": "view",
					"type": "function"
				},
				{
					"inputs": [],
					"name": "viewApplicationAmountAdr",
					"outputs": [
						{
							"internalType": "address[]",
							"name": "",
							"type": "address[]"
						}
					],
					"stateMutability": "view",
					"type": "function"
				}
			],
			"devdoc": {
				"kind": "dev",
				"methods": {},
				"version": 1
			},
			"evm": {
				"assembly": "    /* \"Documents/GitHub/contract-token-cryptoMonster/backend/components/PhasePrivate.sol\":120:1715  contract PhasePrivate is modifireFunc {\r... */\n  mstore(0x40, 0x80)\n  callvalue\n  dup1\n  iszero\n  tag_1\n  jumpi\n  0x00\n  dup1\n  revert\ntag_1:\n  pop\n  dataSize(sub_0)\n  dup1\n  dataOffset(sub_0)\n  0x00\n  codecopy\n  0x00\n  return\nstop\n\nsub_0: assembly {\n        /* \"Documents/GitHub/contract-token-cryptoMonster/backend/components/PhasePrivate.sol\":120:1715  contract PhasePrivate is modifireFunc {\r... */\n      mstore(0x40, 0x80)\n      callvalue\n      dup1\n      iszero\n      tag_1\n      jumpi\n      0x00\n      dup1\n      revert\n    tag_1:\n      pop\n      jumpi(tag_2, lt(calldatasize, 0x04))\n      shr(0xe0, calldataload(0x00))\n      dup1\n      0x4d0d594f\n      eq\n      tag_3\n      jumpi\n      dup1\n      0x76eada91\n      eq\n      tag_4\n      jumpi\n      dup1\n      0x785963c3\n      eq\n      tag_5\n      jumpi\n      dup1\n      0x8e4f8c6b\n      eq\n      tag_6\n      jumpi\n      dup1\n      0x9d9e7a4b\n      eq\n      tag_7\n      jumpi\n    tag_2:\n      0x00\n      dup1\n      revert\n        /* \"Documents/GitHub/contract-token-cryptoMonster/backend/components/PhasePrivate.sol\":914:1398  function viewApplicationAmountAdr () public view returns (address[] memory) {\r... */\n    tag_3:\n      tag_8\n      tag_9\n      jump\t// in\n    tag_8:\n      mload(0x40)\n      tag_10\n      swap2\n      swap1\n      tag_11\n      jump\t// in\n    tag_10:\n      mload(0x40)\n      dup1\n      swap2\n      sub\n      swap1\n      return\n        /* \"Documents/GitHub/contract-token-cryptoMonster/backend/components/PhasePrivate.sol\":1406:1464  function viewApplication (address ) public view {\r... */\n    tag_4:\n      tag_12\n      0x04\n      dup1\n      calldatasize\n      sub\n      dup2\n      add\n      swap1\n      tag_13\n      swap2\n      swap1\n      tag_14\n      jump\t// in\n    tag_13:\n      tag_15\n      jump\t// in\n    tag_12:\n      stop\n        /* \"Documents/GitHub/contract-token-cryptoMonster/backend/components/PhasePrivate.sol\":256:800  function application(string memory _name, string memory _contactForCommunication, address _userAdr) public {\r... */\n    tag_5:\n      tag_16\n      0x04\n      dup1\n      calldatasize\n      sub\n      dup2\n      add\n      swap1\n      tag_17\n      swap2\n      swap1\n      tag_18\n      jump\t// in\n    tag_17:\n      tag_19\n      jump\t// in\n    tag_16:\n      stop\n        /* \"Documents/GitHub/contract-token-cryptoMonster/backend/shared/helpers/getFuncs.sol\":144:282  function get_keccak256(string memory _hash) public pure returns(bytes32) {\r... */\n    tag_6:\n      tag_20\n      0x04\n      dup1\n      calldatasize\n      sub\n      dup2\n      add\n      swap1\n      tag_21\n      swap2\n      swap1\n      tag_22\n      jump\t// in\n    tag_21:\n      tag_23\n      jump\t// in\n    tag_20:\n      mload(0x40)\n      tag_24\n      swap2\n      swap1\n      tag_25\n      jump\t// in\n    tag_24:\n      mload(0x40)\n      dup1\n      swap2\n      sub\n      swap1\n      return\n        /* \"Documents/GitHub/contract-token-cryptoMonster/backend/components/PhasePrivate.sol\":1540:1712  function acceptApplication (bool _changeStatus) public {\r... */\n    tag_7:\n      tag_26\n      0x04\n      dup1\n      calldatasize\n      sub\n      dup2\n      add\n      swap1\n      tag_27\n      swap2\n      swap1\n      tag_28\n      jump\t// in\n    tag_27:\n      tag_29\n      jump\t// in\n    tag_26:\n      stop\n        /* \"Documents/GitHub/contract-token-cryptoMonster/backend/components/PhasePrivate.sol\":914:1398  function viewApplicationAmountAdr () public view returns (address[] memory) {\r... */\n    tag_9:\n        /* \"Documents/GitHub/contract-token-cryptoMonster/backend/components/PhasePrivate.sol\":972:988  address[] memory */\n      0x60\n        /* \"Documents/GitHub/contract-token-cryptoMonster/backend/components/PhasePrivate.sol\":1042:1061  Role.SYSTEM_PRIVATE */\n      0x02\n        /* \"Documents/GitHub/contract-token-cryptoMonster/backend/components/PhasePrivate.sol\":1009:1061  structUsers_[msg.sender].role == Role.SYSTEM_PRIVATE */\n      0x04\n      dup2\n      gt\n      iszero\n      tag_31\n      jumpi\n      tag_32\n      tag_33\n      jump\t// in\n    tag_32:\n    tag_31:\n        /* \"Documents/GitHub/contract-token-cryptoMonster/backend/components/PhasePrivate.sol\":1009:1021  structUsers_ */\n      0x00\n        /* \"Documents/GitHub/contract-token-cryptoMonster/backend/components/PhasePrivate.sol\":1009:1033  structUsers_[msg.sender] */\n      dup1\n        /* \"Documents/GitHub/contract-token-cryptoMonster/backend/components/PhasePrivate.sol\":1022:1032  msg.sender */\n      caller\n        /* \"Documents/GitHub/contract-token-cryptoMonster/backend/components/PhasePrivate.sol\":1009:1033  structUsers_[msg.sender] */\n      0xffffffffffffffffffffffffffffffffffffffff\n      and\n      0xffffffffffffffffffffffffffffffffffffffff\n      and\n      dup2\n      mstore\n      0x20\n      add\n      swap1\n      dup2\n      mstore\n      0x20\n      add\n      0x00\n      keccak256\n        /* \"Documents/GitHub/contract-token-cryptoMonster/backend/components/PhasePrivate.sol\":1009:1038  structUsers_[msg.sender].role */\n      0x00\n      add\n      0x00\n      swap1\n      sload\n      swap1\n      0x0100\n      exp\n      swap1\n      div\n      0xff\n      and\n        /* \"Documents/GitHub/contract-token-cryptoMonster/backend/components/PhasePrivate.sol\":1009:1061  structUsers_[msg.sender].role == Role.SYSTEM_PRIVATE */\n      0x04\n      dup2\n      gt\n      iszero\n      tag_34\n      jumpi\n      tag_35\n      tag_33\n      jump\t// in\n    tag_35:\n    tag_34:\n      eq\n        /* \"Documents/GitHub/contract-token-cryptoMonster/backend/components/PhasePrivate.sol\":1001:1097  require(structUsers_[msg.sender].role == Role.SYSTEM_PRIVATE, \"You are not a private provider!\") */\n      tag_36\n      jumpi\n      mload(0x40)\n      0x08c379a000000000000000000000000000000000000000000000000000000000\n      dup2\n      mstore\n      0x04\n      add\n      tag_37\n      swap1\n      tag_38\n      jump\t// in\n    tag_37:\n      mload(0x40)\n      dup1\n      swap2\n      sub\n      swap1\n      revert\n    tag_36:\n        /* \"Documents/GitHub/contract-token-cryptoMonster/backend/components/PhasePrivate.sol\":1204:1231  structApplicationsAmountAdr */\n      0x03\n        /* \"Documents/GitHub/contract-token-cryptoMonster/backend/components/PhasePrivate.sol\":1197:1231  return structApplicationsAmountAdr */\n      dup1\n      sload\n      dup1\n      0x20\n      mul\n      0x20\n      add\n      mload(0x40)\n      swap1\n      dup2\n      add\n      0x40\n      mstore\n      dup1\n      swap3\n      swap2\n      swap1\n      dup2\n      dup2\n      mstore\n      0x20\n      add\n      dup3\n      dup1\n      sload\n      dup1\n      iszero\n      tag_39\n      jumpi\n      0x20\n      mul\n      dup3\n      add\n      swap2\n      swap1\n      0x00\n      mstore\n      keccak256(0x00, 0x20)\n      swap1\n    tag_40:\n      dup2\n      0x00\n      swap1\n      sload\n      swap1\n      0x0100\n      exp\n      swap1\n      div\n      0xffffffffffffffffffffffffffffffffffffffff\n      and\n      0xffffffffffffffffffffffffffffffffffffffff\n      and\n      dup2\n      mstore\n      0x20\n      add\n      swap1\n      0x01\n      add\n      swap1\n      dup1\n      dup4\n      gt\n      tag_40\n      jumpi\n    tag_39:\n      pop\n      pop\n      pop\n      pop\n      pop\n      swap1\n      pop\n        /* \"Documents/GitHub/contract-token-cryptoMonster/backend/components/PhasePrivate.sol\":914:1398  function viewApplicationAmountAdr () public view returns (address[] memory) {\r... */\n      swap1\n      jump\t// out\n        /* \"Documents/GitHub/contract-token-cryptoMonster/backend/components/PhasePrivate.sol\":1406:1464  function viewApplication (address ) public view {\r... */\n    tag_15:\n      pop\n      jump\t// out\n        /* \"Documents/GitHub/contract-token-cryptoMonster/backend/components/PhasePrivate.sol\":256:800  function application(string memory _name, string memory _contactForCommunication, address _userAdr) public {\r... */\n    tag_19:\n        /* \"Documents/GitHub/contract-token-cryptoMonster/backend/components/PhasePrivate.sol\":422:426  true */\n      0x01\n        /* \"Documents/GitHub/contract-token-cryptoMonster/backend/components/PhasePrivate.sol\":382:426  strucApplications_[msg.sender].exist == true */\n      iszero\n      iszero\n        /* \"Documents/GitHub/contract-token-cryptoMonster/backend/components/PhasePrivate.sol\":382:400  strucApplications_ */\n      0x02\n        /* \"Documents/GitHub/contract-token-cryptoMonster/backend/components/PhasePrivate.sol\":382:412  strucApplications_[msg.sender] */\n      0x00\n        /* \"Documents/GitHub/contract-token-cryptoMonster/backend/components/PhasePrivate.sol\":401:411  msg.sender */\n      caller\n        /* \"Documents/GitHub/contract-token-cryptoMonster/backend/components/PhasePrivate.sol\":382:412  strucApplications_[msg.sender] */\n      0xffffffffffffffffffffffffffffffffffffffff\n      and\n      0xffffffffffffffffffffffffffffffffffffffff\n      and\n      dup2\n      mstore\n      0x20\n      add\n      swap1\n      dup2\n      mstore\n      0x20\n      add\n      0x00\n      keccak256\n        /* \"Documents/GitHub/contract-token-cryptoMonster/backend/components/PhasePrivate.sol\":382:418  strucApplications_[msg.sender].exist */\n      0x02\n      add\n      0x16\n      swap1\n      sload\n      swap1\n      0x0100\n      exp\n      swap1\n      div\n      0xff\n      and\n        /* \"Documents/GitHub/contract-token-cryptoMonster/backend/components/PhasePrivate.sol\":382:426  strucApplications_[msg.sender].exist == true */\n      iszero\n      iszero\n      eq\n        /* \"Documents/GitHub/contract-token-cryptoMonster/backend/components/PhasePrivate.sol\":374:456  require(strucApplications_[msg.sender].exist == true, \"Application already sent!\") */\n      tag_43\n      jumpi\n      mload(0x40)\n      0x08c379a000000000000000000000000000000000000000000000000000000000\n      dup2\n      mstore\n      0x04\n      add\n      tag_44\n      swap1\n      tag_45\n      jump\t// in\n    tag_44:\n      mload(0x40)\n      dup1\n      swap2\n      sub\n      swap1\n      revert\n    tag_43:\n        /* \"Documents/GitHub/contract-token-cryptoMonster/backend/components/PhasePrivate.sol\":600:679  structApplication(_name, _contactForCommunication, _userAdr, true, false, true) */\n      mload(0x40)\n      dup1\n      0xc0\n      add\n      0x40\n      mstore\n      dup1\n        /* \"Documents/GitHub/contract-token-cryptoMonster/backend/components/PhasePrivate.sol\":618:623  _name */\n      dup5\n        /* \"Documents/GitHub/contract-token-cryptoMonster/backend/components/PhasePrivate.sol\":600:679  structApplication(_name, _contactForCommunication, _userAdr, true, false, true) */\n      dup2\n      mstore\n      0x20\n      add\n        /* \"Documents/GitHub/contract-token-cryptoMonster/backend/components/PhasePrivate.sol\":625:649  _contactForCommunication */\n      dup4\n        /* \"Documents/GitHub/contract-token-cryptoMonster/backend/components/PhasePrivate.sol\":600:679  structApplication(_name, _contactForCommunication, _userAdr, true, false, true) */\n      dup2\n      mstore\n      0x20\n      add\n        /* \"Documents/GitHub/contract-token-cryptoMonster/backend/components/PhasePrivate.sol\":651:659  _userAdr */\n      dup3\n        /* \"Documents/GitHub/contract-token-cryptoMonster/backend/components/PhasePrivate.sol\":600:679  structApplication(_name, _contactForCommunication, _userAdr, true, false, true) */\n      0xffffffffffffffffffffffffffffffffffffffff\n      and\n      dup2\n      mstore\n      0x20\n      add\n        /* \"Documents/GitHub/contract-token-cryptoMonster/backend/components/PhasePrivate.sol\":661:665  true */\n      0x01\n        /* \"Documents/GitHub/contract-token-cryptoMonster/backend/components/PhasePrivate.sol\":600:679  structApplication(_name, _contactForCommunication, _userAdr, true, false, true) */\n      iszero\n      iszero\n      dup2\n      mstore\n      0x20\n      add\n        /* \"Documents/GitHub/contract-token-cryptoMonster/backend/components/PhasePrivate.sol\":667:672  false */\n      0x00\n        /* \"Documents/GitHub/contract-token-cryptoMonster/backend/components/PhasePrivate.sol\":600:679  structApplication(_name, _contactForCommunication, _userAdr, true, false, true) */\n      iszero\n      iszero\n      dup2\n      mstore\n      0x20\n      add\n        /* \"Documents/GitHub/contract-token-cryptoMonster/backend/components/PhasePrivate.sol\":674:678  true */\n      0x01\n        /* \"Documents/GitHub/contract-token-cryptoMonster/backend/components/PhasePrivate.sol\":600:679  structApplication(_name, _contactForCommunication, _userAdr, true, false, true) */\n      iszero\n      iszero\n      dup2\n      mstore\n      pop\n        /* \"Documents/GitHub/contract-token-cryptoMonster/backend/components/PhasePrivate.sol\":566:584  strucApplications_ */\n      0x02\n        /* \"Documents/GitHub/contract-token-cryptoMonster/backend/components/PhasePrivate.sol\":566:596  strucApplications_[msg.sender] */\n      0x00\n        /* \"Documents/GitHub/contract-token-cryptoMonster/backend/components/PhasePrivate.sol\":585:595  msg.sender */\n      caller\n        /* \"Documents/GitHub/contract-token-cryptoMonster/backend/components/PhasePrivate.sol\":566:596  strucApplications_[msg.sender] */\n      0xffffffffffffffffffffffffffffffffffffffff\n      and\n      0xffffffffffffffffffffffffffffffffffffffff\n      and\n      dup2\n      mstore\n      0x20\n      add\n      swap1\n      dup2\n      mstore\n      0x20\n      add\n      0x00\n      keccak256\n        /* \"Documents/GitHub/contract-token-cryptoMonster/backend/components/PhasePrivate.sol\":566:679  strucApplications_[msg.sender]  = structApplication(_name, _contactForCommunication, _userAdr, true, false, true) */\n      0x00\n      dup3\n      add\n      mload\n      dup2\n      0x00\n      add\n      swap1\n      dup1\n      mload\n      swap1\n      0x20\n      add\n      swap1\n      tag_46\n      swap3\n      swap2\n      swap1\n      tag_47\n      jump\t// in\n    tag_46:\n      pop\n      0x20\n      dup3\n      add\n      mload\n      dup2\n      0x01\n      add\n      swap1\n      dup1\n      mload\n      swap1\n      0x20\n      add\n      swap1\n      tag_48\n      swap3\n      swap2\n      swap1\n      tag_47\n      jump\t// in\n    tag_48:\n      pop\n      0x40\n      dup3\n      add\n      mload\n      dup2\n      0x02\n      add\n      exp(0x0100, 0x00)\n      dup2\n      sload\n      dup2\n      0xffffffffffffffffffffffffffffffffffffffff\n      mul\n      not\n      and\n      swap1\n      dup4\n      0xffffffffffffffffffffffffffffffffffffffff\n      and\n      mul\n      or\n      swap1\n      sstore\n      pop\n      0x60\n      dup3\n      add\n      mload\n      dup2\n      0x02\n      add\n      exp(0x0100, 0x14)\n      dup2\n      sload\n      dup2\n      0xff\n      mul\n      not\n      and\n      swap1\n      dup4\n      iszero\n      iszero\n      mul\n      or\n      swap1\n      sstore\n      pop\n      0x80\n      dup3\n      add\n      mload\n      dup2\n      0x02\n      add\n      exp(0x0100, 0x15)\n      dup2\n      sload\n      dup2\n      0xff\n      mul\n      not\n      and\n      swap1\n      dup4\n      iszero\n      iszero\n      mul\n      or\n      swap1\n      sstore\n      pop\n      0xa0\n      dup3\n      add\n      mload\n      dup2\n      0x02\n      add\n      exp(0x0100, 0x16)\n      dup2\n      sload\n      dup2\n      0xff\n      mul\n      not\n      and\n      swap1\n      dup4\n      iszero\n      iszero\n      mul\n      or\n      swap1\n      sstore\n      pop\n      swap1\n      pop\n      pop\n        /* \"Documents/GitHub/contract-token-cryptoMonster/backend/components/PhasePrivate.sol\":748:775  structApplicationsAmountAdr */\n      0x03\n        /* \"Documents/GitHub/contract-token-cryptoMonster/backend/components/PhasePrivate.sol\":781:791  msg.sender */\n      caller\n        /* \"Documents/GitHub/contract-token-cryptoMonster/backend/components/PhasePrivate.sol\":748:792  structApplicationsAmountAdr.push(msg.sender) */\n      swap1\n      dup1\n      0x01\n      dup2\n      sload\n      add\n      dup1\n      dup3\n      sstore\n      dup1\n      swap2\n      pop\n      pop\n      0x01\n      swap1\n      sub\n      swap1\n      0x00\n      mstore\n      keccak256(0x00, 0x20)\n      add\n      0x00\n      swap1\n      swap2\n      swap1\n      swap2\n      swap1\n      swap2\n      0x0100\n      exp\n      dup2\n      sload\n      dup2\n      0xffffffffffffffffffffffffffffffffffffffff\n      mul\n      not\n      and\n      swap1\n      dup4\n      0xffffffffffffffffffffffffffffffffffffffff\n      and\n      mul\n      or\n      swap1\n      sstore\n      pop\n        /* \"Documents/GitHub/contract-token-cryptoMonster/backend/components/PhasePrivate.sol\":256:800  function application(string memory _name, string memory _contactForCommunication, address _userAdr) public {\r... */\n      pop\n      pop\n      pop\n      jump\t// out\n        /* \"Documents/GitHub/contract-token-cryptoMonster/backend/shared/helpers/getFuncs.sol\":144:282  function get_keccak256(string memory _hash) public pure returns(bytes32) {\r... */\n    tag_23:\n        /* \"Documents/GitHub/contract-token-cryptoMonster/backend/shared/helpers/getFuncs.sol\":208:215  bytes32 */\n      0x00\n        /* \"Documents/GitHub/contract-token-cryptoMonster/backend/shared/helpers/getFuncs.sol\":266:271  _hash */\n      dup2\n        /* \"Documents/GitHub/contract-token-cryptoMonster/backend/shared/helpers/getFuncs.sol\":249:272  abi.encodePacked(_hash) */\n      add(0x20, mload(0x40))\n      tag_51\n      swap2\n      swap1\n      tag_52\n      jump\t// in\n    tag_51:\n      mload(0x40)\n      0x20\n      dup2\n      dup4\n      sub\n      sub\n      dup2\n      mstore\n      swap1\n      0x40\n      mstore\n        /* \"Documents/GitHub/contract-token-cryptoMonster/backend/shared/helpers/getFuncs.sol\":239:273  keccak256(abi.encodePacked(_hash)) */\n      dup1\n      mload\n      swap1\n      0x20\n      add\n      keccak256\n        /* \"Documents/GitHub/contract-token-cryptoMonster/backend/shared/helpers/getFuncs.sol\":232:274  return(keccak256(abi.encodePacked(_hash))) */\n      swap1\n      pop\n        /* \"Documents/GitHub/contract-token-cryptoMonster/backend/shared/helpers/getFuncs.sol\":144:282  function get_keccak256(string memory _hash) public pure returns(bytes32) {\r... */\n      swap2\n      swap1\n      pop\n      jump\t// out\n        /* \"Documents/GitHub/contract-token-cryptoMonster/backend/components/PhasePrivate.sol\":1540:1712  function acceptApplication (bool _changeStatus) public {\r... */\n    tag_29:\n        /* \"Documents/GitHub/contract-token-cryptoMonster/backend/components/PhasePrivate.sol\":1647:1666  Role.SYSTEM_PRIVATE */\n      0x02\n        /* \"Documents/GitHub/contract-token-cryptoMonster/backend/components/PhasePrivate.sol\":1614:1666  structUsers_[msg.sender].role == Role.SYSTEM_PRIVATE */\n      0x04\n      dup2\n      gt\n      iszero\n      tag_54\n      jumpi\n      tag_55\n      tag_33\n      jump\t// in\n    tag_55:\n    tag_54:\n        /* \"Documents/GitHub/contract-token-cryptoMonster/backend/components/PhasePrivate.sol\":1614:1626  structUsers_ */\n      0x00\n        /* \"Documents/GitHub/contract-token-cryptoMonster/backend/components/PhasePrivate.sol\":1614:1638  structUsers_[msg.sender] */\n      dup1\n        /* \"Documents/GitHub/contract-token-cryptoMonster/backend/components/PhasePrivate.sol\":1627:1637  msg.sender */\n      caller\n        /* \"Documents/GitHub/contract-token-cryptoMonster/backend/components/PhasePrivate.sol\":1614:1638  structUsers_[msg.sender] */\n      0xffffffffffffffffffffffffffffffffffffffff\n      and\n      0xffffffffffffffffffffffffffffffffffffffff\n      and\n      dup2\n      mstore\n      0x20\n      add\n      swap1\n      dup2\n      mstore\n      0x20\n      add\n      0x00\n      keccak256\n        /* \"Documents/GitHub/contract-token-cryptoMonster/backend/components/PhasePrivate.sol\":1614:1643  structUsers_[msg.sender].role */\n      0x00\n      add\n      0x00\n      swap1\n      sload\n      swap1\n      0x0100\n      exp\n      swap1\n      div\n      0xff\n      and\n        /* \"Documents/GitHub/contract-token-cryptoMonster/backend/components/PhasePrivate.sol\":1614:1666  structUsers_[msg.sender].role == Role.SYSTEM_PRIVATE */\n      0x04\n      dup2\n      gt\n      iszero\n      tag_56\n      jumpi\n      tag_57\n      tag_33\n      jump\t// in\n    tag_57:\n    tag_56:\n      eq\n        /* \"Documents/GitHub/contract-token-cryptoMonster/backend/components/PhasePrivate.sol\":1606:1702  require(structUsers_[msg.sender].role == Role.SYSTEM_PRIVATE, \"You are not a private provider!\") */\n      tag_58\n      jumpi\n      mload(0x40)\n      0x08c379a000000000000000000000000000000000000000000000000000000000\n      dup2\n      mstore\n      0x04\n      add\n      tag_59\n      swap1\n      tag_38\n      jump\t// in\n    tag_59:\n      mload(0x40)\n      dup1\n      swap2\n      sub\n      swap1\n      revert\n    tag_58:\n        /* \"Documents/GitHub/contract-token-cryptoMonster/backend/components/PhasePrivate.sol\":1540:1712  function acceptApplication (bool _changeStatus) public {\r... */\n      pop\n      jump\t// out\n    tag_47:\n      dup3\n      dup1\n      sload\n      tag_60\n      swap1\n      tag_61\n      jump\t// in\n    tag_60:\n      swap1\n      0x00\n      mstore\n      keccak256(0x00, 0x20)\n      swap1\n      0x1f\n      add\n      0x20\n      swap1\n      div\n      dup2\n      add\n      swap3\n      dup3\n      tag_63\n      jumpi\n      0x00\n      dup6\n      sstore\n      jump(tag_62)\n    tag_63:\n      dup3\n      0x1f\n      lt\n      tag_64\n      jumpi\n      dup1\n      mload\n      not(0xff)\n      and\n      dup4\n      dup1\n      add\n      or\n      dup6\n      sstore\n      jump(tag_62)\n    tag_64:\n      dup3\n      dup1\n      add\n      0x01\n      add\n      dup6\n      sstore\n      dup3\n      iszero\n      tag_62\n      jumpi\n      swap2\n      dup3\n      add\n    tag_65:\n      dup3\n      dup2\n      gt\n      iszero\n      tag_66\n      jumpi\n      dup3\n      mload\n      dup3\n      sstore\n      swap2\n      0x20\n      add\n      swap2\n      swap1\n      0x01\n      add\n      swap1\n      jump(tag_65)\n    tag_66:\n    tag_62:\n      pop\n      swap1\n      pop\n      tag_67\n      swap2\n      swap1\n      tag_68\n      jump\t// in\n    tag_67:\n      pop\n      swap1\n      jump\t// out\n    tag_68:\n    tag_69:\n      dup1\n      dup3\n      gt\n      iszero\n      tag_70\n      jumpi\n      0x00\n      dup2\n      0x00\n      swap1\n      sstore\n      pop\n      0x01\n      add\n      jump(tag_69)\n    tag_70:\n      pop\n      swap1\n      jump\t// out\n        /* \"#utility.yul\":7:419   */\n    tag_72:\n        /* \"#utility.yul\":85:90   */\n      0x00\n        /* \"#utility.yul\":110:176   */\n      tag_74\n        /* \"#utility.yul\":126:175   */\n      tag_75\n        /* \"#utility.yul\":168:174   */\n      dup5\n        /* \"#utility.yul\":126:175   */\n      tag_76\n      jump\t// in\n    tag_75:\n        /* \"#utility.yul\":110:176   */\n      tag_77\n      jump\t// in\n    tag_74:\n        /* \"#utility.yul\":101:176   */\n      swap1\n      pop\n        /* \"#utility.yul\":199:205   */\n      dup3\n        /* \"#utility.yul\":192:197   */\n      dup2\n        /* \"#utility.yul\":185:206   */\n      mstore\n        /* \"#utility.yul\":237:241   */\n      0x20\n        /* \"#utility.yul\":230:235   */\n      dup2\n        /* \"#utility.yul\":226:242   */\n      add\n        /* \"#utility.yul\":275:278   */\n      dup5\n        /* \"#utility.yul\":266:272   */\n      dup5\n        /* \"#utility.yul\":261:264   */\n      dup5\n        /* \"#utility.yul\":257:273   */\n      add\n        /* \"#utility.yul\":254:279   */\n      gt\n        /* \"#utility.yul\":251:363   */\n      iszero\n      tag_78\n      jumpi\n        /* \"#utility.yul\":282:361   */\n      tag_79\n      tag_80\n      jump\t// in\n    tag_79:\n        /* \"#utility.yul\":251:363   */\n    tag_78:\n        /* \"#utility.yul\":372:413   */\n      tag_81\n        /* \"#utility.yul\":406:412   */\n      dup5\n        /* \"#utility.yul\":401:404   */\n      dup3\n        /* \"#utility.yul\":396:399   */\n      dup6\n        /* \"#utility.yul\":372:413   */\n      tag_82\n      jump\t// in\n    tag_81:\n        /* \"#utility.yul\":91:419   */\n      pop\n        /* \"#utility.yul\":7:419   */\n      swap4\n      swap3\n      pop\n      pop\n      pop\n      jump\t// out\n        /* \"#utility.yul\":425:564   */\n    tag_83:\n        /* \"#utility.yul\":471:476   */\n      0x00\n        /* \"#utility.yul\":509:515   */\n      dup2\n        /* \"#utility.yul\":496:516   */\n      calldataload\n        /* \"#utility.yul\":487:516   */\n      swap1\n      pop\n        /* \"#utility.yul\":525:558   */\n      tag_85\n        /* \"#utility.yul\":552:557   */\n      dup2\n        /* \"#utility.yul\":525:558   */\n      tag_86\n      jump\t// in\n    tag_85:\n        /* \"#utility.yul\":425:564   */\n      swap3\n      swap2\n      pop\n      pop\n      jump\t// out\n        /* \"#utility.yul\":570:703   */\n    tag_87:\n        /* \"#utility.yul\":613:618   */\n      0x00\n        /* \"#utility.yul\":651:657   */\n      dup2\n        /* \"#utility.yul\":638:658   */\n      calldataload\n        /* \"#utility.yul\":629:658   */\n      swap1\n      pop\n        /* \"#utility.yul\":667:697   */\n      tag_89\n        /* \"#utility.yul\":691:696   */\n      dup2\n        /* \"#utility.yul\":667:697   */\n      tag_90\n      jump\t// in\n    tag_89:\n        /* \"#utility.yul\":570:703   */\n      swap3\n      swap2\n      pop\n      pop\n      jump\t// out\n        /* \"#utility.yul\":723:1063   */\n    tag_91:\n        /* \"#utility.yul\":779:784   */\n      0x00\n        /* \"#utility.yul\":828:831   */\n      dup3\n        /* \"#utility.yul\":821:825   */\n      0x1f\n        /* \"#utility.yul\":813:819   */\n      dup4\n        /* \"#utility.yul\":809:826   */\n      add\n        /* \"#utility.yul\":805:832   */\n      slt\n        /* \"#utility.yul\":795:917   */\n      tag_93\n      jumpi\n        /* \"#utility.yul\":836:915   */\n      tag_94\n      tag_95\n      jump\t// in\n    tag_94:\n        /* \"#utility.yul\":795:917   */\n    tag_93:\n        /* \"#utility.yul\":953:959   */\n      dup2\n        /* \"#utility.yul\":940:960   */\n      calldataload\n        /* \"#utility.yul\":978:1057   */\n      tag_96\n        /* \"#utility.yul\":1053:1056   */\n      dup5\n        /* \"#utility.yul\":1045:1051   */\n      dup3\n        /* \"#utility.yul\":1038:1042   */\n      0x20\n        /* \"#utility.yul\":1030:1036   */\n      dup7\n        /* \"#utility.yul\":1026:1043   */\n      add\n        /* \"#utility.yul\":978:1057   */\n      tag_72\n      jump\t// in\n    tag_96:\n        /* \"#utility.yul\":969:1057   */\n      swap2\n      pop\n        /* \"#utility.yul\":785:1063   */\n      pop\n        /* \"#utility.yul\":723:1063   */\n      swap3\n      swap2\n      pop\n      pop\n      jump\t// out\n        /* \"#utility.yul\":1069:1398   */\n    tag_14:\n        /* \"#utility.yul\":1128:1134   */\n      0x00\n        /* \"#utility.yul\":1177:1179   */\n      0x20\n        /* \"#utility.yul\":1165:1174   */\n      dup3\n        /* \"#utility.yul\":1156:1163   */\n      dup5\n        /* \"#utility.yul\":1152:1175   */\n      sub\n        /* \"#utility.yul\":1148:1180   */\n      slt\n        /* \"#utility.yul\":1145:1264   */\n      iszero\n      tag_98\n      jumpi\n        /* \"#utility.yul\":1183:1262   */\n      tag_99\n      tag_100\n      jump\t// in\n    tag_99:\n        /* \"#utility.yul\":1145:1264   */\n    tag_98:\n        /* \"#utility.yul\":1303:1304   */\n      0x00\n        /* \"#utility.yul\":1328:1381   */\n      tag_101\n        /* \"#utility.yul\":1373:1380   */\n      dup5\n        /* \"#utility.yul\":1364:1370   */\n      dup3\n        /* \"#utility.yul\":1353:1362   */\n      dup6\n        /* \"#utility.yul\":1349:1371   */\n      add\n        /* \"#utility.yul\":1328:1381   */\n      tag_83\n      jump\t// in\n    tag_101:\n        /* \"#utility.yul\":1318:1381   */\n      swap2\n      pop\n        /* \"#utility.yul\":1274:1391   */\n      pop\n        /* \"#utility.yul\":1069:1398   */\n      swap3\n      swap2\n      pop\n      pop\n      jump\t// out\n        /* \"#utility.yul\":1404:1727   */\n    tag_28:\n        /* \"#utility.yul\":1460:1466   */\n      0x00\n        /* \"#utility.yul\":1509:1511   */\n      0x20\n        /* \"#utility.yul\":1497:1506   */\n      dup3\n        /* \"#utility.yul\":1488:1495   */\n      dup5\n        /* \"#utility.yul\":1484:1507   */\n      sub\n        /* \"#utility.yul\":1480:1512   */\n      slt\n        /* \"#utility.yul\":1477:1596   */\n      iszero\n      tag_103\n      jumpi\n        /* \"#utility.yul\":1515:1594   */\n      tag_104\n      tag_100\n      jump\t// in\n    tag_104:\n        /* \"#utility.yul\":1477:1596   */\n    tag_103:\n        /* \"#utility.yul\":1635:1636   */\n      0x00\n        /* \"#utility.yul\":1660:1710   */\n      tag_105\n        /* \"#utility.yul\":1702:1709   */\n      dup5\n        /* \"#utility.yul\":1693:1699   */\n      dup3\n        /* \"#utility.yul\":1682:1691   */\n      dup6\n        /* \"#utility.yul\":1678:1700   */\n      add\n        /* \"#utility.yul\":1660:1710   */\n      tag_87\n      jump\t// in\n    tag_105:\n        /* \"#utility.yul\":1650:1710   */\n      swap2\n      pop\n        /* \"#utility.yul\":1606:1720   */\n      pop\n        /* \"#utility.yul\":1404:1727   */\n      swap3\n      swap2\n      pop\n      pop\n      jump\t// out\n        /* \"#utility.yul\":1733:2242   */\n    tag_22:\n        /* \"#utility.yul\":1802:1808   */\n      0x00\n        /* \"#utility.yul\":1851:1853   */\n      0x20\n        /* \"#utility.yul\":1839:1848   */\n      dup3\n        /* \"#utility.yul\":1830:1837   */\n      dup5\n        /* \"#utility.yul\":1826:1849   */\n      sub\n        /* \"#utility.yul\":1822:1854   */\n      slt\n        /* \"#utility.yul\":1819:1938   */\n      iszero\n      tag_107\n      jumpi\n        /* \"#utility.yul\":1857:1936   */\n      tag_108\n      tag_100\n      jump\t// in\n    tag_108:\n        /* \"#utility.yul\":1819:1938   */\n    tag_107:\n        /* \"#utility.yul\":2005:2006   */\n      0x00\n        /* \"#utility.yul\":1994:2003   */\n      dup3\n        /* \"#utility.yul\":1990:2007   */\n      add\n        /* \"#utility.yul\":1977:2008   */\n      calldataload\n        /* \"#utility.yul\":2035:2053   */\n      0xffffffffffffffff\n        /* \"#utility.yul\":2027:2033   */\n      dup2\n        /* \"#utility.yul\":2024:2054   */\n      gt\n        /* \"#utility.yul\":2021:2138   */\n      iszero\n      tag_109\n      jumpi\n        /* \"#utility.yul\":2057:2136   */\n      tag_110\n      tag_111\n      jump\t// in\n    tag_110:\n        /* \"#utility.yul\":2021:2138   */\n    tag_109:\n        /* \"#utility.yul\":2162:2225   */\n      tag_112\n        /* \"#utility.yul\":2217:2224   */\n      dup5\n        /* \"#utility.yul\":2208:2214   */\n      dup3\n        /* \"#utility.yul\":2197:2206   */\n      dup6\n        /* \"#utility.yul\":2193:2215   */\n      add\n        /* \"#utility.yul\":2162:2225   */\n      tag_91\n      jump\t// in\n    tag_112:\n        /* \"#utility.yul\":2152:2225   */\n      swap2\n      pop\n        /* \"#utility.yul\":1948:2235   */\n      pop\n        /* \"#utility.yul\":1733:2242   */\n      swap3\n      swap2\n      pop\n      pop\n      jump\t// out\n        /* \"#utility.yul\":2248:3227   */\n    tag_18:\n        /* \"#utility.yul\":2345:2351   */\n      0x00\n        /* \"#utility.yul\":2353:2359   */\n      dup1\n        /* \"#utility.yul\":2361:2367   */\n      0x00\n        /* \"#utility.yul\":2410:2412   */\n      0x60\n        /* \"#utility.yul\":2398:2407   */\n      dup5\n        /* \"#utility.yul\":2389:2396   */\n      dup7\n        /* \"#utility.yul\":2385:2408   */\n      sub\n        /* \"#utility.yul\":2381:2413   */\n      slt\n        /* \"#utility.yul\":2378:2497   */\n      iszero\n      tag_114\n      jumpi\n        /* \"#utility.yul\":2416:2495   */\n      tag_115\n      tag_100\n      jump\t// in\n    tag_115:\n        /* \"#utility.yul\":2378:2497   */\n    tag_114:\n        /* \"#utility.yul\":2564:2565   */\n      0x00\n        /* \"#utility.yul\":2553:2562   */\n      dup5\n        /* \"#utility.yul\":2549:2566   */\n      add\n        /* \"#utility.yul\":2536:2567   */\n      calldataload\n        /* \"#utility.yul\":2594:2612   */\n      0xffffffffffffffff\n        /* \"#utility.yul\":2586:2592   */\n      dup2\n        /* \"#utility.yul\":2583:2613   */\n      gt\n        /* \"#utility.yul\":2580:2697   */\n      iszero\n      tag_116\n      jumpi\n        /* \"#utility.yul\":2616:2695   */\n      tag_117\n      tag_111\n      jump\t// in\n    tag_117:\n        /* \"#utility.yul\":2580:2697   */\n    tag_116:\n        /* \"#utility.yul\":2721:2784   */\n      tag_118\n        /* \"#utility.yul\":2776:2783   */\n      dup7\n        /* \"#utility.yul\":2767:2773   */\n      dup3\n        /* \"#utility.yul\":2756:2765   */\n      dup8\n        /* \"#utility.yul\":2752:2774   */\n      add\n        /* \"#utility.yul\":2721:2784   */\n      tag_91\n      jump\t// in\n    tag_118:\n        /* \"#utility.yul\":2711:2784   */\n      swap4\n      pop\n        /* \"#utility.yul\":2507:2794   */\n      pop\n        /* \"#utility.yul\":2861:2863   */\n      0x20\n        /* \"#utility.yul\":2850:2859   */\n      dup5\n        /* \"#utility.yul\":2846:2864   */\n      add\n        /* \"#utility.yul\":2833:2865   */\n      calldataload\n        /* \"#utility.yul\":2892:2910   */\n      0xffffffffffffffff\n        /* \"#utility.yul\":2884:2890   */\n      dup2\n        /* \"#utility.yul\":2881:2911   */\n      gt\n        /* \"#utility.yul\":2878:2995   */\n      iszero\n      tag_119\n      jumpi\n        /* \"#utility.yul\":2914:2993   */\n      tag_120\n      tag_111\n      jump\t// in\n    tag_120:\n        /* \"#utility.yul\":2878:2995   */\n    tag_119:\n        /* \"#utility.yul\":3019:3082   */\n      tag_121\n        /* \"#utility.yul\":3074:3081   */\n      dup7\n        /* \"#utility.yul\":3065:3071   */\n      dup3\n        /* \"#utility.yul\":3054:3063   */\n      dup8\n        /* \"#utility.yul\":3050:3072   */\n      add\n        /* \"#utility.yul\":3019:3082   */\n      tag_91\n      jump\t// in\n    tag_121:\n        /* \"#utility.yul\":3009:3082   */\n      swap3\n      pop\n        /* \"#utility.yul\":2804:3092   */\n      pop\n        /* \"#utility.yul\":3131:3133   */\n      0x40\n        /* \"#utility.yul\":3157:3210   */\n      tag_122\n        /* \"#utility.yul\":3202:3209   */\n      dup7\n        /* \"#utility.yul\":3193:3199   */\n      dup3\n        /* \"#utility.yul\":3182:3191   */\n      dup8\n        /* \"#utility.yul\":3178:3200   */\n      add\n        /* \"#utility.yul\":3157:3210   */\n      tag_83\n      jump\t// in\n    tag_122:\n        /* \"#utility.yul\":3147:3210   */\n      swap2\n      pop\n        /* \"#utility.yul\":3102:3220   */\n      pop\n        /* \"#utility.yul\":2248:3227   */\n      swap3\n      pop\n      swap3\n      pop\n      swap3\n      jump\t// out\n        /* \"#utility.yul\":3233:3412   */\n    tag_123:\n        /* \"#utility.yul\":3302:3312   */\n      0x00\n        /* \"#utility.yul\":3323:3369   */\n      tag_125\n        /* \"#utility.yul\":3365:3368   */\n      dup4\n        /* \"#utility.yul\":3357:3363   */\n      dup4\n        /* \"#utility.yul\":3323:3369   */\n      tag_126\n      jump\t// in\n    tag_125:\n        /* \"#utility.yul\":3401:3405   */\n      0x20\n        /* \"#utility.yul\":3396:3399   */\n      dup4\n        /* \"#utility.yul\":3392:3406   */\n      add\n        /* \"#utility.yul\":3378:3406   */\n      swap1\n      pop\n        /* \"#utility.yul\":3233:3412   */\n      swap3\n      swap2\n      pop\n      pop\n      jump\t// out\n        /* \"#utility.yul\":3418:3526   */\n    tag_126:\n        /* \"#utility.yul\":3495:3519   */\n      tag_128\n        /* \"#utility.yul\":3513:3518   */\n      dup2\n        /* \"#utility.yul\":3495:3519   */\n      tag_129\n      jump\t// in\n    tag_128:\n        /* \"#utility.yul\":3490:3493   */\n      dup3\n        /* \"#utility.yul\":3483:3520   */\n      mstore\n        /* \"#utility.yul\":3418:3526   */\n      pop\n      pop\n      jump\t// out\n        /* \"#utility.yul\":3562:4294   */\n    tag_130:\n        /* \"#utility.yul\":3681:3684   */\n      0x00\n        /* \"#utility.yul\":3710:3764   */\n      tag_132\n        /* \"#utility.yul\":3758:3763   */\n      dup3\n        /* \"#utility.yul\":3710:3764   */\n      tag_133\n      jump\t// in\n    tag_132:\n        /* \"#utility.yul\":3780:3866   */\n      tag_134\n        /* \"#utility.yul\":3859:3865   */\n      dup2\n        /* \"#utility.yul\":3854:3857   */\n      dup6\n        /* \"#utility.yul\":3780:3866   */\n      tag_135\n      jump\t// in\n    tag_134:\n        /* \"#utility.yul\":3773:3866   */\n      swap4\n      pop\n        /* \"#utility.yul\":3890:3946   */\n      tag_136\n        /* \"#utility.yul\":3940:3945   */\n      dup4\n        /* \"#utility.yul\":3890:3946   */\n      tag_137\n      jump\t// in\n    tag_136:\n        /* \"#utility.yul\":3969:3976   */\n      dup1\n        /* \"#utility.yul\":4000:4001   */\n      0x00\n        /* \"#utility.yul\":3985:4269   */\n    tag_138:\n        /* \"#utility.yul\":4010:4016   */\n      dup4\n        /* \"#utility.yul\":4007:4008   */\n      dup2\n        /* \"#utility.yul\":4004:4017   */\n      lt\n        /* \"#utility.yul\":3985:4269   */\n      iszero\n      tag_140\n      jumpi\n        /* \"#utility.yul\":4086:4092   */\n      dup2\n        /* \"#utility.yul\":4080:4093   */\n      mload\n        /* \"#utility.yul\":4113:4176   */\n      tag_141\n        /* \"#utility.yul\":4172:4175   */\n      dup9\n        /* \"#utility.yul\":4157:4170   */\n      dup3\n        /* \"#utility.yul\":4113:4176   */\n      tag_123\n      jump\t// in\n    tag_141:\n        /* \"#utility.yul\":4106:4176   */\n      swap8\n      pop\n        /* \"#utility.yul\":4199:4259   */\n      tag_142\n        /* \"#utility.yul\":4252:4258   */\n      dup4\n        /* \"#utility.yul\":4199:4259   */\n      tag_143\n      jump\t// in\n    tag_142:\n        /* \"#utility.yul\":4189:4259   */\n      swap3\n      pop\n        /* \"#utility.yul\":4045:4269   */\n      pop\n        /* \"#utility.yul\":4032:4033   */\n      0x01\n        /* \"#utility.yul\":4029:4030   */\n      dup2\n        /* \"#utility.yul\":4025:4034   */\n      add\n        /* \"#utility.yul\":4020:4034   */\n      swap1\n      pop\n        /* \"#utility.yul\":3985:4269   */\n      jump(tag_138)\n    tag_140:\n        /* \"#utility.yul\":3989:4003   */\n      pop\n        /* \"#utility.yul\":4285:4288   */\n      dup6\n        /* \"#utility.yul\":4278:4288   */\n      swap4\n      pop\n        /* \"#utility.yul\":3686:4294   */\n      pop\n      pop\n      pop\n        /* \"#utility.yul\":3562:4294   */\n      swap3\n      swap2\n      pop\n      pop\n      jump\t// out\n        /* \"#utility.yul\":4300:4418   */\n    tag_144:\n        /* \"#utility.yul\":4387:4411   */\n      tag_146\n        /* \"#utility.yul\":4405:4410   */\n      dup2\n        /* \"#utility.yul\":4387:4411   */\n      tag_147\n      jump\t// in\n    tag_146:\n        /* \"#utility.yul\":4382:4385   */\n      dup3\n        /* \"#utility.yul\":4375:4412   */\n      mstore\n        /* \"#utility.yul\":4300:4418   */\n      pop\n      pop\n      jump\t// out\n        /* \"#utility.yul\":4424:4801   */\n    tag_148:\n        /* \"#utility.yul\":4530:4533   */\n      0x00\n        /* \"#utility.yul\":4558:4597   */\n      tag_150\n        /* \"#utility.yul\":4591:4596   */\n      dup3\n        /* \"#utility.yul\":4558:4597   */\n      tag_151\n      jump\t// in\n    tag_150:\n        /* \"#utility.yul\":4613:4702   */\n      tag_152\n        /* \"#utility.yul\":4695:4701   */\n      dup2\n        /* \"#utility.yul\":4690:4693   */\n      dup6\n        /* \"#utility.yul\":4613:4702   */\n      tag_153\n      jump\t// in\n    tag_152:\n        /* \"#utility.yul\":4606:4702   */\n      swap4\n      pop\n        /* \"#utility.yul\":4711:4763   */\n      tag_154\n        /* \"#utility.yul\":4756:4762   */\n      dup2\n        /* \"#utility.yul\":4751:4754   */\n      dup6\n        /* \"#utility.yul\":4744:4748   */\n      0x20\n        /* \"#utility.yul\":4737:4742   */\n      dup7\n        /* \"#utility.yul\":4733:4749   */\n      add\n        /* \"#utility.yul\":4711:4763   */\n      tag_155\n      jump\t// in\n    tag_154:\n        /* \"#utility.yul\":4788:4794   */\n      dup1\n        /* \"#utility.yul\":4783:4786   */\n      dup5\n        /* \"#utility.yul\":4779:4795   */\n      add\n        /* \"#utility.yul\":4772:4795   */\n      swap2\n      pop\n        /* \"#utility.yul\":4534:4801   */\n      pop\n        /* \"#utility.yul\":4424:4801   */\n      swap3\n      swap2\n      pop\n      pop\n      jump\t// out\n        /* \"#utility.yul\":4807:5173   */\n    tag_156:\n        /* \"#utility.yul\":4949:4952   */\n      0x00\n        /* \"#utility.yul\":4970:5037   */\n      tag_158\n        /* \"#utility.yul\":5034:5036   */\n      0x1f\n        /* \"#utility.yul\":5029:5032   */\n      dup4\n        /* \"#utility.yul\":4970:5037   */\n      tag_159\n      jump\t// in\n    tag_158:\n        /* \"#utility.yul\":4963:5037   */\n      swap2\n      pop\n        /* \"#utility.yul\":5046:5139   */\n      tag_160\n        /* \"#utility.yul\":5135:5138   */\n      dup3\n        /* \"#utility.yul\":5046:5139   */\n      tag_161\n      jump\t// in\n    tag_160:\n        /* \"#utility.yul\":5164:5166   */\n      0x20\n        /* \"#utility.yul\":5159:5162   */\n      dup3\n        /* \"#utility.yul\":5155:5167   */\n      add\n        /* \"#utility.yul\":5148:5167   */\n      swap1\n      pop\n        /* \"#utility.yul\":4807:5173   */\n      swap2\n      swap1\n      pop\n      jump\t// out\n        /* \"#utility.yul\":5179:5545   */\n    tag_162:\n        /* \"#utility.yul\":5321:5324   */\n      0x00\n        /* \"#utility.yul\":5342:5409   */\n      tag_164\n        /* \"#utility.yul\":5406:5408   */\n      0x19\n        /* \"#utility.yul\":5401:5404   */\n      dup4\n        /* \"#utility.yul\":5342:5409   */\n      tag_159\n      jump\t// in\n    tag_164:\n        /* \"#utility.yul\":5335:5409   */\n      swap2\n      pop\n        /* \"#utility.yul\":5418:5511   */\n      tag_165\n        /* \"#utility.yul\":5507:5510   */\n      dup3\n        /* \"#utility.yul\":5418:5511   */\n      tag_166\n      jump\t// in\n    tag_165:\n        /* \"#utility.yul\":5536:5538   */\n      0x20\n        /* \"#utility.yul\":5531:5534   */\n      dup3\n        /* \"#utility.yul\":5527:5539   */\n      add\n        /* \"#utility.yul\":5520:5539   */\n      swap1\n      pop\n        /* \"#utility.yul\":5179:5545   */\n      swap2\n      swap1\n      pop\n      jump\t// out\n        /* \"#utility.yul\":5551:5826   */\n    tag_52:\n        /* \"#utility.yul\":5683:5686   */\n      0x00\n        /* \"#utility.yul\":5705:5800   */\n      tag_168\n        /* \"#utility.yul\":5796:5799   */\n      dup3\n        /* \"#utility.yul\":5787:5793   */\n      dup5\n        /* \"#utility.yul\":5705:5800   */\n      tag_148\n      jump\t// in\n    tag_168:\n        /* \"#utility.yul\":5698:5800   */\n      swap2\n      pop\n        /* \"#utility.yul\":5817:5820   */\n      dup2\n        /* \"#utility.yul\":5810:5820   */\n      swap1\n      pop\n        /* \"#utility.yul\":5551:5826   */\n      swap3\n      swap2\n      pop\n      pop\n      jump\t// out\n        /* \"#utility.yul\":5832:6205   */\n    tag_11:\n        /* \"#utility.yul\":5975:5979   */\n      0x00\n        /* \"#utility.yul\":6013:6015   */\n      0x20\n        /* \"#utility.yul\":6002:6011   */\n      dup3\n        /* \"#utility.yul\":5998:6016   */\n      add\n        /* \"#utility.yul\":5990:6016   */\n      swap1\n      pop\n        /* \"#utility.yul\":6062:6071   */\n      dup2\n        /* \"#utility.yul\":6056:6060   */\n      dup2\n        /* \"#utility.yul\":6052:6072   */\n      sub\n        /* \"#utility.yul\":6048:6049   */\n      0x00\n        /* \"#utility.yul\":6037:6046   */\n      dup4\n        /* \"#utility.yul\":6033:6050   */\n      add\n        /* \"#utility.yul\":6026:6073   */\n      mstore\n        /* \"#utility.yul\":6090:6198   */\n      tag_170\n        /* \"#utility.yul\":6193:6197   */\n      dup2\n        /* \"#utility.yul\":6184:6190   */\n      dup5\n        /* \"#utility.yul\":6090:6198   */\n      tag_130\n      jump\t// in\n    tag_170:\n        /* \"#utility.yul\":6082:6198   */\n      swap1\n      pop\n        /* \"#utility.yul\":5832:6205   */\n      swap3\n      swap2\n      pop\n      pop\n      jump\t// out\n        /* \"#utility.yul\":6211:6433   */\n    tag_25:\n        /* \"#utility.yul\":6304:6308   */\n      0x00\n        /* \"#utility.yul\":6342:6344   */\n      0x20\n        /* \"#utility.yul\":6331:6340   */\n      dup3\n        /* \"#utility.yul\":6327:6345   */\n      add\n        /* \"#utility.yul\":6319:6345   */\n      swap1\n      pop\n        /* \"#utility.yul\":6355:6426   */\n      tag_172\n        /* \"#utility.yul\":6423:6424   */\n      0x00\n        /* \"#utility.yul\":6412:6421   */\n      dup4\n        /* \"#utility.yul\":6408:6425   */\n      add\n        /* \"#utility.yul\":6399:6405   */\n      dup5\n        /* \"#utility.yul\":6355:6426   */\n      tag_144\n      jump\t// in\n    tag_172:\n        /* \"#utility.yul\":6211:6433   */\n      swap3\n      swap2\n      pop\n      pop\n      jump\t// out\n        /* \"#utility.yul\":6439:6858   */\n    tag_38:\n        /* \"#utility.yul\":6605:6609   */\n      0x00\n        /* \"#utility.yul\":6643:6645   */\n      0x20\n        /* \"#utility.yul\":6632:6641   */\n      dup3\n        /* \"#utility.yul\":6628:6646   */\n      add\n        /* \"#utility.yul\":6620:6646   */\n      swap1\n      pop\n        /* \"#utility.yul\":6692:6701   */\n      dup2\n        /* \"#utility.yul\":6686:6690   */\n      dup2\n        /* \"#utility.yul\":6682:6702   */\n      sub\n        /* \"#utility.yul\":6678:6679   */\n      0x00\n        /* \"#utility.yul\":6667:6676   */\n      dup4\n        /* \"#utility.yul\":6663:6680   */\n      add\n        /* \"#utility.yul\":6656:6703   */\n      mstore\n        /* \"#utility.yul\":6720:6851   */\n      tag_174\n        /* \"#utility.yul\":6846:6850   */\n      dup2\n        /* \"#utility.yul\":6720:6851   */\n      tag_156\n      jump\t// in\n    tag_174:\n        /* \"#utility.yul\":6712:6851   */\n      swap1\n      pop\n        /* \"#utility.yul\":6439:6858   */\n      swap2\n      swap1\n      pop\n      jump\t// out\n        /* \"#utility.yul\":6864:7283   */\n    tag_45:\n        /* \"#utility.yul\":7030:7034   */\n      0x00\n        /* \"#utility.yul\":7068:7070   */\n      0x20\n        /* \"#utility.yul\":7057:7066   */\n      dup3\n        /* \"#utility.yul\":7053:7071   */\n      add\n        /* \"#utility.yul\":7045:7071   */\n      swap1\n      pop\n        /* \"#utility.yul\":7117:7126   */\n      dup2\n        /* \"#utility.yul\":7111:7115   */\n      dup2\n        /* \"#utility.yul\":7107:7127   */\n      sub\n        /* \"#utility.yul\":7103:7104   */\n      0x00\n        /* \"#utility.yul\":7092:7101   */\n      dup4\n        /* \"#utility.yul\":7088:7105   */\n      add\n        /* \"#utility.yul\":7081:7128   */\n      mstore\n        /* \"#utility.yul\":7145:7276   */\n      tag_176\n        /* \"#utility.yul\":7271:7275   */\n      dup2\n        /* \"#utility.yul\":7145:7276   */\n      tag_162\n      jump\t// in\n    tag_176:\n        /* \"#utility.yul\":7137:7276   */\n      swap1\n      pop\n        /* \"#utility.yul\":6864:7283   */\n      swap2\n      swap1\n      pop\n      jump\t// out\n        /* \"#utility.yul\":7289:7418   */\n    tag_77:\n        /* \"#utility.yul\":7323:7329   */\n      0x00\n        /* \"#utility.yul\":7350:7370   */\n      tag_178\n      tag_179\n      jump\t// in\n    tag_178:\n        /* \"#utility.yul\":7340:7370   */\n      swap1\n      pop\n        /* \"#utility.yul\":7379:7412   */\n      tag_180\n        /* \"#utility.yul\":7407:7411   */\n      dup3\n        /* \"#utility.yul\":7399:7405   */\n      dup3\n        /* \"#utility.yul\":7379:7412   */\n      tag_181\n      jump\t// in\n    tag_180:\n        /* \"#utility.yul\":7289:7418   */\n      swap2\n      swap1\n      pop\n      jump\t// out\n        /* \"#utility.yul\":7424:7499   */\n    tag_179:\n        /* \"#utility.yul\":7457:7463   */\n      0x00\n        /* \"#utility.yul\":7490:7492   */\n      0x40\n        /* \"#utility.yul\":7484:7493   */\n      mload\n        /* \"#utility.yul\":7474:7493   */\n      swap1\n      pop\n        /* \"#utility.yul\":7424:7499   */\n      swap1\n      jump\t// out\n        /* \"#utility.yul\":7505:7813   */\n    tag_76:\n        /* \"#utility.yul\":7567:7571   */\n      0x00\n        /* \"#utility.yul\":7657:7675   */\n      0xffffffffffffffff\n        /* \"#utility.yul\":7649:7655   */\n      dup3\n        /* \"#utility.yul\":7646:7676   */\n      gt\n        /* \"#utility.yul\":7643:7699   */\n      iszero\n      tag_184\n      jumpi\n        /* \"#utility.yul\":7679:7697   */\n      tag_185\n      tag_186\n      jump\t// in\n    tag_185:\n        /* \"#utility.yul\":7643:7699   */\n    tag_184:\n        /* \"#utility.yul\":7717:7746   */\n      tag_187\n        /* \"#utility.yul\":7739:7745   */\n      dup3\n        /* \"#utility.yul\":7717:7746   */\n      tag_188\n      jump\t// in\n    tag_187:\n        /* \"#utility.yul\":7709:7746   */\n      swap1\n      pop\n        /* \"#utility.yul\":7801:7805   */\n      0x20\n        /* \"#utility.yul\":7795:7799   */\n      dup2\n        /* \"#utility.yul\":7791:7806   */\n      add\n        /* \"#utility.yul\":7783:7806   */\n      swap1\n      pop\n        /* \"#utility.yul\":7505:7813   */\n      swap2\n      swap1\n      pop\n      jump\t// out\n        /* \"#utility.yul\":7819:7951   */\n    tag_137:\n        /* \"#utility.yul\":7886:7890   */\n      0x00\n        /* \"#utility.yul\":7909:7912   */\n      dup2\n        /* \"#utility.yul\":7901:7912   */\n      swap1\n      pop\n        /* \"#utility.yul\":7939:7943   */\n      0x20\n        /* \"#utility.yul\":7934:7937   */\n      dup3\n        /* \"#utility.yul\":7930:7944   */\n      add\n        /* \"#utility.yul\":7922:7944   */\n      swap1\n      pop\n        /* \"#utility.yul\":7819:7951   */\n      swap2\n      swap1\n      pop\n      jump\t// out\n        /* \"#utility.yul\":7957:8071   */\n    tag_133:\n        /* \"#utility.yul\":8024:8030   */\n      0x00\n        /* \"#utility.yul\":8058:8063   */\n      dup2\n        /* \"#utility.yul\":8052:8064   */\n      mload\n        /* \"#utility.yul\":8042:8064   */\n      swap1\n      pop\n        /* \"#utility.yul\":7957:8071   */\n      swap2\n      swap1\n      pop\n      jump\t// out\n        /* \"#utility.yul\":8077:8176   */\n    tag_151:\n        /* \"#utility.yul\":8129:8135   */\n      0x00\n        /* \"#utility.yul\":8163:8168   */\n      dup2\n        /* \"#utility.yul\":8157:8169   */\n      mload\n        /* \"#utility.yul\":8147:8169   */\n      swap1\n      pop\n        /* \"#utility.yul\":8077:8176   */\n      swap2\n      swap1\n      pop\n      jump\t// out\n        /* \"#utility.yul\":8182:8295   */\n    tag_143:\n        /* \"#utility.yul\":8252:8256   */\n      0x00\n        /* \"#utility.yul\":8284:8288   */\n      0x20\n        /* \"#utility.yul\":8279:8282   */\n      dup3\n        /* \"#utility.yul\":8275:8289   */\n      add\n        /* \"#utility.yul\":8267:8289   */\n      swap1\n      pop\n        /* \"#utility.yul\":8182:8295   */\n      swap2\n      swap1\n      pop\n      jump\t// out\n        /* \"#utility.yul\":8301:8485   */\n    tag_135:\n        /* \"#utility.yul\":8400:8411   */\n      0x00\n        /* \"#utility.yul\":8434:8440   */\n      dup3\n        /* \"#utility.yul\":8429:8432   */\n      dup3\n        /* \"#utility.yul\":8422:8441   */\n      mstore\n        /* \"#utility.yul\":8474:8478   */\n      0x20\n        /* \"#utility.yul\":8469:8472   */\n      dup3\n        /* \"#utility.yul\":8465:8479   */\n      add\n        /* \"#utility.yul\":8450:8479   */\n      swap1\n      pop\n        /* \"#utility.yul\":8301:8485   */\n      swap3\n      swap2\n      pop\n      pop\n      jump\t// out\n        /* \"#utility.yul\":8491:8660   */\n    tag_159:\n        /* \"#utility.yul\":8575:8586   */\n      0x00\n        /* \"#utility.yul\":8609:8615   */\n      dup3\n        /* \"#utility.yul\":8604:8607   */\n      dup3\n        /* \"#utility.yul\":8597:8616   */\n      mstore\n        /* \"#utility.yul\":8649:8653   */\n      0x20\n        /* \"#utility.yul\":8644:8647   */\n      dup3\n        /* \"#utility.yul\":8640:8654   */\n      add\n        /* \"#utility.yul\":8625:8654   */\n      swap1\n      pop\n        /* \"#utility.yul\":8491:8660   */\n      swap3\n      swap2\n      pop\n      pop\n      jump\t// out\n        /* \"#utility.yul\":8666:8814   */\n    tag_153:\n        /* \"#utility.yul\":8768:8779   */\n      0x00\n        /* \"#utility.yul\":8805:8808   */\n      dup2\n        /* \"#utility.yul\":8790:8808   */\n      swap1\n      pop\n        /* \"#utility.yul\":8666:8814   */\n      swap3\n      swap2\n      pop\n      pop\n      jump\t// out\n        /* \"#utility.yul\":8820:8916   */\n    tag_129:\n        /* \"#utility.yul\":8857:8864   */\n      0x00\n        /* \"#utility.yul\":8886:8910   */\n      tag_197\n        /* \"#utility.yul\":8904:8909   */\n      dup3\n        /* \"#utility.yul\":8886:8910   */\n      tag_198\n      jump\t// in\n    tag_197:\n        /* \"#utility.yul\":8875:8910   */\n      swap1\n      pop\n        /* \"#utility.yul\":8820:8916   */\n      swap2\n      swap1\n      pop\n      jump\t// out\n        /* \"#utility.yul\":8922:9012   */\n    tag_199:\n        /* \"#utility.yul\":8956:8963   */\n      0x00\n        /* \"#utility.yul\":8999:9004   */\n      dup2\n        /* \"#utility.yul\":8992:9005   */\n      iszero\n        /* \"#utility.yul\":8985:9006   */\n      iszero\n        /* \"#utility.yul\":8974:9006   */\n      swap1\n      pop\n        /* \"#utility.yul\":8922:9012   */\n      swap2\n      swap1\n      pop\n      jump\t// out\n        /* \"#utility.yul\":9018:9095   */\n    tag_147:\n        /* \"#utility.yul\":9055:9062   */\n      0x00\n        /* \"#utility.yul\":9084:9089   */\n      dup2\n        /* \"#utility.yul\":9073:9089   */\n      swap1\n      pop\n        /* \"#utility.yul\":9018:9095   */\n      swap2\n      swap1\n      pop\n      jump\t// out\n        /* \"#utility.yul\":9101:9227   */\n    tag_198:\n        /* \"#utility.yul\":9138:9145   */\n      0x00\n        /* \"#utility.yul\":9178:9220   */\n      0xffffffffffffffffffffffffffffffffffffffff\n        /* \"#utility.yul\":9171:9176   */\n      dup3\n        /* \"#utility.yul\":9167:9221   */\n      and\n        /* \"#utility.yul\":9156:9221   */\n      swap1\n      pop\n        /* \"#utility.yul\":9101:9227   */\n      swap2\n      swap1\n      pop\n      jump\t// out\n        /* \"#utility.yul\":9233:9387   */\n    tag_82:\n        /* \"#utility.yul\":9317:9323   */\n      dup3\n        /* \"#utility.yul\":9312:9315   */\n      dup2\n        /* \"#utility.yul\":9307:9310   */\n      dup4\n        /* \"#utility.yul\":9294:9324   */\n      calldatacopy\n        /* \"#utility.yul\":9379:9380   */\n      0x00\n        /* \"#utility.yul\":9370:9376   */\n      dup4\n        /* \"#utility.yul\":9365:9368   */\n      dup4\n        /* \"#utility.yul\":9361:9377   */\n      add\n        /* \"#utility.yul\":9354:9381   */\n      mstore\n        /* \"#utility.yul\":9233:9387   */\n      pop\n      pop\n      pop\n      jump\t// out\n        /* \"#utility.yul\":9393:9700   */\n    tag_155:\n        /* \"#utility.yul\":9461:9462   */\n      0x00\n        /* \"#utility.yul\":9471:9584   */\n    tag_205:\n        /* \"#utility.yul\":9485:9491   */\n      dup4\n        /* \"#utility.yul\":9482:9483   */\n      dup2\n        /* \"#utility.yul\":9479:9492   */\n      lt\n        /* \"#utility.yul\":9471:9584   */\n      iszero\n      tag_207\n      jumpi\n        /* \"#utility.yul\":9570:9571   */\n      dup1\n        /* \"#utility.yul\":9565:9568   */\n      dup3\n        /* \"#utility.yul\":9561:9572   */\n      add\n        /* \"#utility.yul\":9555:9573   */\n      mload\n        /* \"#utility.yul\":9551:9552   */\n      dup2\n        /* \"#utility.yul\":9546:9549   */\n      dup5\n        /* \"#utility.yul\":9542:9553   */\n      add\n        /* \"#utility.yul\":9535:9574   */\n      mstore\n        /* \"#utility.yul\":9507:9509   */\n      0x20\n        /* \"#utility.yul\":9504:9505   */\n      dup2\n        /* \"#utility.yul\":9500:9510   */\n      add\n        /* \"#utility.yul\":9495:9510   */\n      swap1\n      pop\n        /* \"#utility.yul\":9471:9584   */\n      jump(tag_205)\n    tag_207:\n        /* \"#utility.yul\":9602:9608   */\n      dup4\n        /* \"#utility.yul\":9599:9600   */\n      dup2\n        /* \"#utility.yul\":9596:9609   */\n      gt\n        /* \"#utility.yul\":9593:9694   */\n      iszero\n      tag_208\n      jumpi\n        /* \"#utility.yul\":9682:9683   */\n      0x00\n        /* \"#utility.yul\":9673:9679   */\n      dup5\n        /* \"#utility.yul\":9668:9671   */\n      dup5\n        /* \"#utility.yul\":9664:9680   */\n      add\n        /* \"#utility.yul\":9657:9684   */\n      mstore\n        /* \"#utility.yul\":9593:9694   */\n    tag_208:\n        /* \"#utility.yul\":9442:9700   */\n      pop\n        /* \"#utility.yul\":9393:9700   */\n      pop\n      pop\n      pop\n      jump\t// out\n        /* \"#utility.yul\":9706:10026   */\n    tag_61:\n        /* \"#utility.yul\":9750:9756   */\n      0x00\n        /* \"#utility.yul\":9787:9788   */\n      0x02\n        /* \"#utility.yul\":9781:9785   */\n      dup3\n        /* \"#utility.yul\":9777:9789   */\n      div\n        /* \"#utility.yul\":9767:9789   */\n      swap1\n      pop\n        /* \"#utility.yul\":9834:9835   */\n      0x01\n        /* \"#utility.yul\":9828:9832   */\n      dup3\n        /* \"#utility.yul\":9824:9836   */\n      and\n        /* \"#utility.yul\":9855:9873   */\n      dup1\n        /* \"#utility.yul\":9845:9926   */\n      tag_210\n      jumpi\n        /* \"#utility.yul\":9911:9915   */\n      0x7f\n        /* \"#utility.yul\":9903:9909   */\n      dup3\n        /* \"#utility.yul\":9899:9916   */\n      and\n        /* \"#utility.yul\":9889:9916   */\n      swap2\n      pop\n        /* \"#utility.yul\":9845:9926   */\n    tag_210:\n        /* \"#utility.yul\":9973:9975   */\n      0x20\n        /* \"#utility.yul\":9965:9971   */\n      dup3\n        /* \"#utility.yul\":9962:9976   */\n      lt\n        /* \"#utility.yul\":9942:9960   */\n      dup2\n        /* \"#utility.yul\":9939:9977   */\n      eq\n        /* \"#utility.yul\":9936:10020   */\n      iszero\n      tag_211\n      jumpi\n        /* \"#utility.yul\":9992:10010   */\n      tag_212\n      tag_213\n      jump\t// in\n    tag_212:\n        /* \"#utility.yul\":9936:10020   */\n    tag_211:\n        /* \"#utility.yul\":9757:10026   */\n      pop\n        /* \"#utility.yul\":9706:10026   */\n      swap2\n      swap1\n      pop\n      jump\t// out\n        /* \"#utility.yul\":10032:10313   */\n    tag_181:\n        /* \"#utility.yul\":10115:10142   */\n      tag_215\n        /* \"#utility.yul\":10137:10141   */\n      dup3\n        /* \"#utility.yul\":10115:10142   */\n      tag_188\n      jump\t// in\n    tag_215:\n        /* \"#utility.yul\":10107:10113   */\n      dup2\n        /* \"#utility.yul\":10103:10143   */\n      add\n        /* \"#utility.yul\":10245:10251   */\n      dup2\n        /* \"#utility.yul\":10233:10243   */\n      dup2\n        /* \"#utility.yul\":10230:10252   */\n      lt\n        /* \"#utility.yul\":10209:10227   */\n      0xffffffffffffffff\n        /* \"#utility.yul\":10197:10207   */\n      dup3\n        /* \"#utility.yul\":10194:10228   */\n      gt\n        /* \"#utility.yul\":10191:10253   */\n      or\n        /* \"#utility.yul\":10188:10276   */\n      iszero\n      tag_216\n      jumpi\n        /* \"#utility.yul\":10256:10274   */\n      tag_217\n      tag_186\n      jump\t// in\n    tag_217:\n        /* \"#utility.yul\":10188:10276   */\n    tag_216:\n        /* \"#utility.yul\":10296:10306   */\n      dup1\n        /* \"#utility.yul\":10292:10294   */\n      0x40\n        /* \"#utility.yul\":10285:10307   */\n      mstore\n        /* \"#utility.yul\":10075:10313   */\n      pop\n        /* \"#utility.yul\":10032:10313   */\n      pop\n      pop\n      jump\t// out\n        /* \"#utility.yul\":10319:10499   */\n    tag_33:\n        /* \"#utility.yul\":10367:10444   */\n      0x4e487b7100000000000000000000000000000000000000000000000000000000\n        /* \"#utility.yul\":10364:10365   */\n      0x00\n        /* \"#utility.yul\":10357:10445   */\n      mstore\n        /* \"#utility.yul\":10464:10468   */\n      0x21\n        /* \"#utility.yul\":10461:10462   */\n      0x04\n        /* \"#utility.yul\":10454:10469   */\n      mstore\n        /* \"#utility.yul\":10488:10492   */\n      0x24\n        /* \"#utility.yul\":10485:10486   */\n      0x00\n        /* \"#utility.yul\":10478:10493   */\n      revert\n        /* \"#utility.yul\":10505:10685   */\n    tag_213:\n        /* \"#utility.yul\":10553:10630   */\n      0x4e487b7100000000000000000000000000000000000000000000000000000000\n        /* \"#utility.yul\":10550:10551   */\n      0x00\n        /* \"#utility.yul\":10543:10631   */\n      mstore\n        /* \"#utility.yul\":10650:10654   */\n      0x22\n        /* \"#utility.yul\":10647:10648   */\n      0x04\n        /* \"#utility.yul\":10640:10655   */\n      mstore\n        /* \"#utility.yul\":10674:10678   */\n      0x24\n        /* \"#utility.yul\":10671:10672   */\n      0x00\n        /* \"#utility.yul\":10664:10679   */\n      revert\n        /* \"#utility.yul\":10691:10871   */\n    tag_186:\n        /* \"#utility.yul\":10739:10816   */\n      0x4e487b7100000000000000000000000000000000000000000000000000000000\n        /* \"#utility.yul\":10736:10737   */\n      0x00\n        /* \"#utility.yul\":10729:10817   */\n      mstore\n        /* \"#utility.yul\":10836:10840   */\n      0x41\n        /* \"#utility.yul\":10833:10834   */\n      0x04\n        /* \"#utility.yul\":10826:10841   */\n      mstore\n        /* \"#utility.yul\":10860:10864   */\n      0x24\n        /* \"#utility.yul\":10857:10858   */\n      0x00\n        /* \"#utility.yul\":10850:10865   */\n      revert\n        /* \"#utility.yul\":10877:10994   */\n    tag_95:\n        /* \"#utility.yul\":10986:10987   */\n      0x00\n        /* \"#utility.yul\":10983:10984   */\n      dup1\n        /* \"#utility.yul\":10976:10988   */\n      revert\n        /* \"#utility.yul\":11000:11117   */\n    tag_80:\n        /* \"#utility.yul\":11109:11110   */\n      0x00\n        /* \"#utility.yul\":11106:11107   */\n      dup1\n        /* \"#utility.yul\":11099:11111   */\n      revert\n        /* \"#utility.yul\":11123:11240   */\n    tag_111:\n        /* \"#utility.yul\":11232:11233   */\n      0x00\n        /* \"#utility.yul\":11229:11230   */\n      dup1\n        /* \"#utility.yul\":11222:11234   */\n      revert\n        /* \"#utility.yul\":11246:11363   */\n    tag_100:\n        /* \"#utility.yul\":11355:11356   */\n      0x00\n        /* \"#utility.yul\":11352:11353   */\n      dup1\n        /* \"#utility.yul\":11345:11357   */\n      revert\n        /* \"#utility.yul\":11369:11471   */\n    tag_188:\n        /* \"#utility.yul\":11410:11416   */\n      0x00\n        /* \"#utility.yul\":11461:11463   */\n      0x1f\n        /* \"#utility.yul\":11457:11464   */\n      not\n        /* \"#utility.yul\":11452:11454   */\n      0x1f\n        /* \"#utility.yul\":11445:11450   */\n      dup4\n        /* \"#utility.yul\":11441:11455   */\n      add\n        /* \"#utility.yul\":11437:11465   */\n      and\n        /* \"#utility.yul\":11427:11465   */\n      swap1\n      pop\n        /* \"#utility.yul\":11369:11471   */\n      swap2\n      swap1\n      pop\n      jump\t// out\n        /* \"#utility.yul\":11477:11658   */\n    tag_161:\n        /* \"#utility.yul\":11617:11650   */\n      0x596f7520617265206e6f74206120707269766174652070726f76696465722100\n        /* \"#utility.yul\":11613:11614   */\n      0x00\n        /* \"#utility.yul\":11605:11611   */\n      dup3\n        /* \"#utility.yul\":11601:11615   */\n      add\n        /* \"#utility.yul\":11594:11651   */\n      mstore\n        /* \"#utility.yul\":11477:11658   */\n      pop\n      jump\t// out\n        /* \"#utility.yul\":11664:11839   */\n    tag_166:\n        /* \"#utility.yul\":11804:11831   */\n      0x4170706c69636174696f6e20616c72656164792073656e742100000000000000\n        /* \"#utility.yul\":11800:11801   */\n      0x00\n        /* \"#utility.yul\":11792:11798   */\n      dup3\n        /* \"#utility.yul\":11788:11802   */\n      add\n        /* \"#utility.yul\":11781:11832   */\n      mstore\n        /* \"#utility.yul\":11664:11839   */\n      pop\n      jump\t// out\n        /* \"#utility.yul\":11845:11967   */\n    tag_86:\n        /* \"#utility.yul\":11918:11942   */\n      tag_229\n        /* \"#utility.yul\":11936:11941   */\n      dup2\n        /* \"#utility.yul\":11918:11942   */\n      tag_129\n      jump\t// in\n    tag_229:\n        /* \"#utility.yul\":11911:11916   */\n      dup2\n        /* \"#utility.yul\":11908:11943   */\n      eq\n        /* \"#utility.yul\":11898:11961   */\n      tag_230\n      jumpi\n        /* \"#utility.yul\":11957:11958   */\n      0x00\n        /* \"#utility.yul\":11954:11955   */\n      dup1\n        /* \"#utility.yul\":11947:11959   */\n      revert\n        /* \"#utility.yul\":11898:11961   */\n    tag_230:\n        /* \"#utility.yul\":11845:11967   */\n      pop\n      jump\t// out\n        /* \"#utility.yul\":11973:12089   */\n    tag_90:\n        /* \"#utility.yul\":12043:12064   */\n      tag_232\n        /* \"#utility.yul\":12058:12063   */\n      dup2\n        /* \"#utility.yul\":12043:12064   */\n      tag_199\n      jump\t// in\n    tag_232:\n        /* \"#utility.yul\":12036:12041   */\n      dup2\n        /* \"#utility.yul\":12033:12065   */\n      eq\n        /* \"#utility.yul\":12023:12083   */\n      tag_233\n      jumpi\n        /* \"#utility.yul\":12079:12080   */\n      0x00\n        /* \"#utility.yul\":12076:12077   */\n      dup1\n        /* \"#utility.yul\":12069:12081   */\n      revert\n        /* \"#utility.yul\":12023:12083   */\n    tag_233:\n        /* \"#utility.yul\":11973:12089   */\n      pop\n      jump\t// out\n\n    auxdata: 0xa2646970667358221220e3ac644554ed9ce141c4cf0c8106aac555e3295ca725df7485cbb69ab8be2acd64736f6c63430008070033\n}\n",
				"bytecode": {
					"linkReferences": {},
					"object": "608060405234801561001057600080fd5b50610cae806100206000396000f3fe608060405234801561001057600080fd5b50600436106100575760003560e01c80634d0d594f1461005c57806376eada911461007a578063785963c3146100965780638e4f8c6b146100b25780639d9e7a4b146100e2575b600080fd5b6100646100fe565b6040516100719190610926565b60405180910390f35b610094600480360381019061008f91906106d6565b610241565b005b6100b060048036038101906100ab9190610779565b610244565b005b6100cc60048036038101906100c79190610730565b6104b1565b6040516100d99190610948565b60405180910390f35b6100fc60048036038101906100f79190610703565b6104e1565b005b60606002600481111561011457610113610b46565b5b6000803373ffffffffffffffffffffffffffffffffffffffff1673ffffffffffffffffffffffffffffffffffffffff16815260200190815260200160002060000160009054906101000a900460ff16600481111561017557610174610b46565b5b146101b5576040517f08c379a00000000000000000000000000000000000000000000000000000000081526004016101ac90610963565b60405180910390fd5b600380548060200260200160405190810160405280929190818152602001828054801561023757602002820191906000526020600020905b8160009054906101000a900473ffffffffffffffffffffffffffffffffffffffff1673ffffffffffffffffffffffffffffffffffffffff16815260200190600101908083116101ed575b5050505050905090565b50565b60011515600260003373ffffffffffffffffffffffffffffffffffffffff1673ffffffffffffffffffffffffffffffffffffffff16815260200190815260200160002060020160169054906101000a900460ff161515146102da576040517f08c379a00000000000000000000000000000000000000000000000000000000081526004016102d190610983565b60405180910390fd5b6040518060c001604052808481526020018381526020018273ffffffffffffffffffffffffffffffffffffffff16815260200160011515815260200160001515815260200160011515815250600260003373ffffffffffffffffffffffffffffffffffffffff1673ffffffffffffffffffffffffffffffffffffffff1681526020019081526020016000206000820151816000019080519060200190610381929190610599565b50602082015181600101908051906020019061039e929190610599565b5060408201518160020160006101000a81548173ffffffffffffffffffffffffffffffffffffffff021916908373ffffffffffffffffffffffffffffffffffffffff16021790555060608201518160020160146101000a81548160ff02191690831515021790555060808201518160020160156101000a81548160ff02191690831515021790555060a08201518160020160166101000a81548160ff0219169083151502179055509050506003339080600181540180825580915050600190039060005260206000200160009091909190916101000a81548173ffffffffffffffffffffffffffffffffffffffff021916908373ffffffffffffffffffffffffffffffffffffffff160217905550505050565b6000816040516020016104c4919061090f565b604051602081830303815290604052805190602001209050919050565b600260048111156104f5576104f4610b46565b5b6000803373ffffffffffffffffffffffffffffffffffffffff1673ffffffffffffffffffffffffffffffffffffffff16815260200190815260200160002060000160009054906101000a900460ff16600481111561055657610555610b46565b5b14610596576040517f08c379a000000000000000000000000000000000000000000000000000000000815260040161058d90610963565b60405180910390fd5b50565b8280546105a590610ae3565b90600052602060002090601f0160209004810192826105c7576000855561060e565b82601f106105e057805160ff191683800117855561060e565b8280016001018555821561060e579182015b8281111561060d5782518255916020019190600101906105f2565b5b50905061061b919061061f565b5090565b5b80821115610638576000816000905550600101610620565b5090565b600061064f61064a846109c8565b6109a3565b90508281526020810184848401111561066b5761066a610bd8565b5b610676848285610aa1565b509392505050565b60008135905061068d81610c4a565b92915050565b6000813590506106a281610c61565b92915050565b600082601f8301126106bd576106bc610bd3565b5b81356106cd84826020860161063c565b91505092915050565b6000602082840312156106ec576106eb610be2565b5b60006106fa8482850161067e565b91505092915050565b60006020828403121561071957610718610be2565b5b600061072784828501610693565b91505092915050565b60006020828403121561074657610745610be2565b5b600082013567ffffffffffffffff81111561076457610763610bdd565b5b610770848285016106a8565b91505092915050565b60008060006060848603121561079257610791610be2565b5b600084013567ffffffffffffffff8111156107b0576107af610bdd565b5b6107bc868287016106a8565b935050602084013567ffffffffffffffff8111156107dd576107dc610bdd565b5b6107e9868287016106a8565b92505060406107fa8682870161067e565b9150509250925092565b6000610810838361081c565b60208301905092915050565b61082581610a59565b82525050565b600061083682610a09565b6108408185610a2c565b935061084b836109f9565b8060005b8381101561087c5781516108638882610804565b975061086e83610a1f565b92505060018101905061084f565b5085935050505092915050565b61089281610a77565b82525050565b60006108a382610a14565b6108ad8185610a4e565b93506108bd818560208601610ab0565b80840191505092915050565b60006108d6601f83610a3d565b91506108e182610bf8565b602082019050919050565b60006108f9601983610a3d565b915061090482610c21565b602082019050919050565b600061091b8284610898565b915081905092915050565b60006020820190508181036000830152610940818461082b565b905092915050565b600060208201905061095d6000830184610889565b92915050565b6000602082019050818103600083015261097c816108c9565b9050919050565b6000602082019050818103600083015261099c816108ec565b9050919050565b60006109ad6109be565b90506109b98282610b15565b919050565b6000604051905090565b600067ffffffffffffffff8211156109e3576109e2610ba4565b5b6109ec82610be7565b9050602081019050919050565b6000819050602082019050919050565b600081519050919050565b600081519050919050565b6000602082019050919050565b600082825260208201905092915050565b600082825260208201905092915050565b600081905092915050565b6000610a6482610a81565b9050919050565b60008115159050919050565b6000819050919050565b600073ffffffffffffffffffffffffffffffffffffffff82169050919050565b82818337600083830152505050565b60005b83811015610ace578082015181840152602081019050610ab3565b83811115610add576000848401525b50505050565b60006002820490506001821680610afb57607f821691505b60208210811415610b0f57610b0e610b75565b5b50919050565b610b1e82610be7565b810181811067ffffffffffffffff82111715610b3d57610b3c610ba4565b5b80604052505050565b7f4e487b7100000000000000000000000000000000000000000000000000000000600052602160045260246000fd5b7f4e487b7100000000000000000000000000000000000000000000000000000000600052602260045260246000fd5b7f4e487b7100000000000000000000000000000000000000000000000000000000600052604160045260246000fd5b600080fd5b600080fd5b600080fd5b600080fd5b6000601f19601f8301169050919050565b7f596f7520617265206e6f74206120707269766174652070726f76696465722100600082015250565b7f4170706c69636174696f6e20616c72656164792073656e742100000000000000600082015250565b610c5381610a59565b8114610c5e57600080fd5b50565b610c6a81610a6b565b8114610c7557600080fd5b5056fea2646970667358221220e3ac644554ed9ce141c4cf0c8106aac555e3295ca725df7485cbb69ab8be2acd64736f6c63430008070033",
					"opcodes": "PUSH1 0x80 PUSH1 0x40 MSTORE CALLVALUE DUP1 ISZERO PUSH2 0x10 JUMPI PUSH1 0x0 DUP1 REVERT JUMPDEST POP PUSH2 0xCAE DUP1 PUSH2 0x20 PUSH1 0x0 CODECOPY PUSH1 0x0 RETURN INVALID PUSH1 0x80 PUSH1 0x40 MSTORE CALLVALUE DUP1 ISZERO PUSH2 0x10 JUMPI PUSH1 0x0 DUP1 REVERT JUMPDEST POP PUSH1 0x4 CALLDATASIZE LT PUSH2 0x57 JUMPI PUSH1 0x0 CALLDATALOAD PUSH1 0xE0 SHR DUP1 PUSH4 0x4D0D594F EQ PUSH2 0x5C JUMPI DUP1 PUSH4 0x76EADA91 EQ PUSH2 0x7A JUMPI DUP1 PUSH4 0x785963C3 EQ PUSH2 0x96 JUMPI DUP1 PUSH4 0x8E4F8C6B EQ PUSH2 0xB2 JUMPI DUP1 PUSH4 0x9D9E7A4B EQ PUSH2 0xE2 JUMPI JUMPDEST PUSH1 0x0 DUP1 REVERT JUMPDEST PUSH2 0x64 PUSH2 0xFE JUMP JUMPDEST PUSH1 0x40 MLOAD PUSH2 0x71 SWAP2 SWAP1 PUSH2 0x926 JUMP JUMPDEST PUSH1 0x40 MLOAD DUP1 SWAP2 SUB SWAP1 RETURN JUMPDEST PUSH2 0x94 PUSH1 0x4 DUP1 CALLDATASIZE SUB DUP2 ADD SWAP1 PUSH2 0x8F SWAP2 SWAP1 PUSH2 0x6D6 JUMP JUMPDEST PUSH2 0x241 JUMP JUMPDEST STOP JUMPDEST PUSH2 0xB0 PUSH1 0x4 DUP1 CALLDATASIZE SUB DUP2 ADD SWAP1 PUSH2 0xAB SWAP2 SWAP1 PUSH2 0x779 JUMP JUMPDEST PUSH2 0x244 JUMP JUMPDEST STOP JUMPDEST PUSH2 0xCC PUSH1 0x4 DUP1 CALLDATASIZE SUB DUP2 ADD SWAP1 PUSH2 0xC7 SWAP2 SWAP1 PUSH2 0x730 JUMP JUMPDEST PUSH2 0x4B1 JUMP JUMPDEST PUSH1 0x40 MLOAD PUSH2 0xD9 SWAP2 SWAP1 PUSH2 0x948 JUMP JUMPDEST PUSH1 0x40 MLOAD DUP1 SWAP2 SUB SWAP1 RETURN JUMPDEST PUSH2 0xFC PUSH1 0x4 DUP1 CALLDATASIZE SUB DUP2 ADD SWAP1 PUSH2 0xF7 SWAP2 SWAP1 PUSH2 0x703 JUMP JUMPDEST PUSH2 0x4E1 JUMP JUMPDEST STOP JUMPDEST PUSH1 0x60 PUSH1 0x2 PUSH1 0x4 DUP2 GT ISZERO PUSH2 0x114 JUMPI PUSH2 0x113 PUSH2 0xB46 JUMP JUMPDEST JUMPDEST PUSH1 0x0 DUP1 CALLER PUSH20 0xFFFFFFFFFFFFFFFFFFFFFFFFFFFFFFFFFFFFFFFF AND PUSH20 0xFFFFFFFFFFFFFFFFFFFFFFFFFFFFFFFFFFFFFFFF AND DUP2 MSTORE PUSH1 0x20 ADD SWAP1 DUP2 MSTORE PUSH1 0x20 ADD PUSH1 0x0 KECCAK256 PUSH1 0x0 ADD PUSH1 0x0 SWAP1 SLOAD SWAP1 PUSH2 0x100 EXP SWAP1 DIV PUSH1 0xFF AND PUSH1 0x4 DUP2 GT ISZERO PUSH2 0x175 JUMPI PUSH2 0x174 PUSH2 0xB46 JUMP JUMPDEST JUMPDEST EQ PUSH2 0x1B5 JUMPI PUSH1 0x40 MLOAD PUSH32 0x8C379A000000000000000000000000000000000000000000000000000000000 DUP2 MSTORE PUSH1 0x4 ADD PUSH2 0x1AC SWAP1 PUSH2 0x963 JUMP JUMPDEST PUSH1 0x40 MLOAD DUP1 SWAP2 SUB SWAP1 REVERT JUMPDEST PUSH1 0x3 DUP1 SLOAD DUP1 PUSH1 0x20 MUL PUSH1 0x20 ADD PUSH1 0x40 MLOAD SWAP1 DUP2 ADD PUSH1 0x40 MSTORE DUP1 SWAP3 SWAP2 SWAP1 DUP2 DUP2 MSTORE PUSH1 0x20 ADD DUP3 DUP1 SLOAD DUP1 ISZERO PUSH2 0x237 JUMPI PUSH1 0x20 MUL DUP3 ADD SWAP2 SWAP1 PUSH1 0x0 MSTORE PUSH1 0x20 PUSH1 0x0 KECCAK256 SWAP1 JUMPDEST DUP2 PUSH1 0x0 SWAP1 SLOAD SWAP1 PUSH2 0x100 EXP SWAP1 DIV PUSH20 0xFFFFFFFFFFFFFFFFFFFFFFFFFFFFFFFFFFFFFFFF AND PUSH20 0xFFFFFFFFFFFFFFFFFFFFFFFFFFFFFFFFFFFFFFFF AND DUP2 MSTORE PUSH1 0x20 ADD SWAP1 PUSH1 0x1 ADD SWAP1 DUP1 DUP4 GT PUSH2 0x1ED JUMPI JUMPDEST POP POP POP POP POP SWAP1 POP SWAP1 JUMP JUMPDEST POP JUMP JUMPDEST PUSH1 0x1 ISZERO ISZERO PUSH1 0x2 PUSH1 0x0 CALLER PUSH20 0xFFFFFFFFFFFFFFFFFFFFFFFFFFFFFFFFFFFFFFFF AND PUSH20 0xFFFFFFFFFFFFFFFFFFFFFFFFFFFFFFFFFFFFFFFF AND DUP2 MSTORE PUSH1 0x20 ADD SWAP1 DUP2 MSTORE PUSH1 0x20 ADD PUSH1 0x0 KECCAK256 PUSH1 0x2 ADD PUSH1 0x16 SWAP1 SLOAD SWAP1 PUSH2 0x100 EXP SWAP1 DIV PUSH1 0xFF AND ISZERO ISZERO EQ PUSH2 0x2DA JUMPI PUSH1 0x40 MLOAD PUSH32 0x8C379A000000000000000000000000000000000000000000000000000000000 DUP2 MSTORE PUSH1 0x4 ADD PUSH2 0x2D1 SWAP1 PUSH2 0x983 JUMP JUMPDEST PUSH1 0x40 MLOAD DUP1 SWAP2 SUB SWAP1 REVERT JUMPDEST PUSH1 0x40 MLOAD DUP1 PUSH1 0xC0 ADD PUSH1 0x40 MSTORE DUP1 DUP5 DUP2 MSTORE PUSH1 0x20 ADD DUP4 DUP2 MSTORE PUSH1 0x20 ADD DUP3 PUSH20 0xFFFFFFFFFFFFFFFFFFFFFFFFFFFFFFFFFFFFFFFF AND DUP2 MSTORE PUSH1 0x20 ADD PUSH1 0x1 ISZERO ISZERO DUP2 MSTORE PUSH1 0x20 ADD PUSH1 0x0 ISZERO ISZERO DUP2 MSTORE PUSH1 0x20 ADD PUSH1 0x1 ISZERO ISZERO DUP2 MSTORE POP PUSH1 0x2 PUSH1 0x0 CALLER PUSH20 0xFFFFFFFFFFFFFFFFFFFFFFFFFFFFFFFFFFFFFFFF AND PUSH20 0xFFFFFFFFFFFFFFFFFFFFFFFFFFFFFFFFFFFFFFFF AND DUP2 MSTORE PUSH1 0x20 ADD SWAP1 DUP2 MSTORE PUSH1 0x20 ADD PUSH1 0x0 KECCAK256 PUSH1 0x0 DUP3 ADD MLOAD DUP2 PUSH1 0x0 ADD SWAP1 DUP1 MLOAD SWAP1 PUSH1 0x20 ADD SWAP1 PUSH2 0x381 SWAP3 SWAP2 SWAP1 PUSH2 0x599 JUMP JUMPDEST POP PUSH1 0x20 DUP3 ADD MLOAD DUP2 PUSH1 0x1 ADD SWAP1 DUP1 MLOAD SWAP1 PUSH1 0x20 ADD SWAP1 PUSH2 0x39E SWAP3 SWAP2 SWAP1 PUSH2 0x599 JUMP JUMPDEST POP PUSH1 0x40 DUP3 ADD MLOAD DUP2 PUSH1 0x2 ADD PUSH1 0x0 PUSH2 0x100 EXP DUP2 SLOAD DUP2 PUSH20 0xFFFFFFFFFFFFFFFFFFFFFFFFFFFFFFFFFFFFFFFF MUL NOT AND SWAP1 DUP4 PUSH20 0xFFFFFFFFFFFFFFFFFFFFFFFFFFFFFFFFFFFFFFFF AND MUL OR SWAP1 SSTORE POP PUSH1 0x60 DUP3 ADD MLOAD DUP2 PUSH1 0x2 ADD PUSH1 0x14 PUSH2 0x100 EXP DUP2 SLOAD DUP2 PUSH1 0xFF MUL NOT AND SWAP1 DUP4 ISZERO ISZERO MUL OR SWAP1 SSTORE POP PUSH1 0x80 DUP3 ADD MLOAD DUP2 PUSH1 0x2 ADD PUSH1 0x15 PUSH2 0x100 EXP DUP2 SLOAD DUP2 PUSH1 0xFF MUL NOT AND SWAP1 DUP4 ISZERO ISZERO MUL OR SWAP1 SSTORE POP PUSH1 0xA0 DUP3 ADD MLOAD DUP2 PUSH1 0x2 ADD PUSH1 0x16 PUSH2 0x100 EXP DUP2 SLOAD DUP2 PUSH1 0xFF MUL NOT AND SWAP1 DUP4 ISZERO ISZERO MUL OR SWAP1 SSTORE POP SWAP1 POP POP PUSH1 0x3 CALLER SWAP1 DUP1 PUSH1 0x1 DUP2 SLOAD ADD DUP1 DUP3 SSTORE DUP1 SWAP2 POP POP PUSH1 0x1 SWAP1 SUB SWAP1 PUSH1 0x0 MSTORE PUSH1 0x20 PUSH1 0x0 KECCAK256 ADD PUSH1 0x0 SWAP1 SWAP2 SWAP1 SWAP2 SWAP1 SWAP2 PUSH2 0x100 EXP DUP2 SLOAD DUP2 PUSH20 0xFFFFFFFFFFFFFFFFFFFFFFFFFFFFFFFFFFFFFFFF MUL NOT AND SWAP1 DUP4 PUSH20 0xFFFFFFFFFFFFFFFFFFFFFFFFFFFFFFFFFFFFFFFF AND MUL OR SWAP1 SSTORE POP POP POP POP JUMP JUMPDEST PUSH1 0x0 DUP2 PUSH1 0x40 MLOAD PUSH1 0x20 ADD PUSH2 0x4C4 SWAP2 SWAP1 PUSH2 0x90F JUMP JUMPDEST PUSH1 0x40 MLOAD PUSH1 0x20 DUP2 DUP4 SUB SUB DUP2 MSTORE SWAP1 PUSH1 0x40 MSTORE DUP1 MLOAD SWAP1 PUSH1 0x20 ADD KECCAK256 SWAP1 POP SWAP2 SWAP1 POP JUMP JUMPDEST PUSH1 0x2 PUSH1 0x4 DUP2 GT ISZERO PUSH2 0x4F5 JUMPI PUSH2 0x4F4 PUSH2 0xB46 JUMP JUMPDEST JUMPDEST PUSH1 0x0 DUP1 CALLER PUSH20 0xFFFFFFFFFFFFFFFFFFFFFFFFFFFFFFFFFFFFFFFF AND PUSH20 0xFFFFFFFFFFFFFFFFFFFFFFFFFFFFFFFFFFFFFFFF AND DUP2 MSTORE PUSH1 0x20 ADD SWAP1 DUP2 MSTORE PUSH1 0x20 ADD PUSH1 0x0 KECCAK256 PUSH1 0x0 ADD PUSH1 0x0 SWAP1 SLOAD SWAP1 PUSH2 0x100 EXP SWAP1 DIV PUSH1 0xFF AND PUSH1 0x4 DUP2 GT ISZERO PUSH2 0x556 JUMPI PUSH2 0x555 PUSH2 0xB46 JUMP JUMPDEST JUMPDEST EQ PUSH2 0x596 JUMPI PUSH1 0x40 MLOAD PUSH32 0x8C379A000000000000000000000000000000000000000000000000000000000 DUP2 MSTORE PUSH1 0x4 ADD PUSH2 0x58D SWAP1 PUSH2 0x963 JUMP JUMPDEST PUSH1 0x40 MLOAD DUP1 SWAP2 SUB SWAP1 REVERT JUMPDEST POP JUMP JUMPDEST DUP3 DUP1 SLOAD PUSH2 0x5A5 SWAP1 PUSH2 0xAE3 JUMP JUMPDEST SWAP1 PUSH1 0x0 MSTORE PUSH1 0x20 PUSH1 0x0 KECCAK256 SWAP1 PUSH1 0x1F ADD PUSH1 0x20 SWAP1 DIV DUP2 ADD SWAP3 DUP3 PUSH2 0x5C7 JUMPI PUSH1 0x0 DUP6 SSTORE PUSH2 0x60E JUMP JUMPDEST DUP3 PUSH1 0x1F LT PUSH2 0x5E0 JUMPI DUP1 MLOAD PUSH1 0xFF NOT AND DUP4 DUP1 ADD OR DUP6 SSTORE PUSH2 0x60E JUMP JUMPDEST DUP3 DUP1 ADD PUSH1 0x1 ADD DUP6 SSTORE DUP3 ISZERO PUSH2 0x60E JUMPI SWAP2 DUP3 ADD JUMPDEST DUP3 DUP2 GT ISZERO PUSH2 0x60D JUMPI DUP3 MLOAD DUP3 SSTORE SWAP2 PUSH1 0x20 ADD SWAP2 SWAP1 PUSH1 0x1 ADD SWAP1 PUSH2 0x5F2 JUMP JUMPDEST JUMPDEST POP SWAP1 POP PUSH2 0x61B SWAP2 SWAP1 PUSH2 0x61F JUMP JUMPDEST POP SWAP1 JUMP JUMPDEST JUMPDEST DUP1 DUP3 GT ISZERO PUSH2 0x638 JUMPI PUSH1 0x0 DUP2 PUSH1 0x0 SWAP1 SSTORE POP PUSH1 0x1 ADD PUSH2 0x620 JUMP JUMPDEST POP SWAP1 JUMP JUMPDEST PUSH1 0x0 PUSH2 0x64F PUSH2 0x64A DUP5 PUSH2 0x9C8 JUMP JUMPDEST PUSH2 0x9A3 JUMP JUMPDEST SWAP1 POP DUP3 DUP2 MSTORE PUSH1 0x20 DUP2 ADD DUP5 DUP5 DUP5 ADD GT ISZERO PUSH2 0x66B JUMPI PUSH2 0x66A PUSH2 0xBD8 JUMP JUMPDEST JUMPDEST PUSH2 0x676 DUP5 DUP3 DUP6 PUSH2 0xAA1 JUMP JUMPDEST POP SWAP4 SWAP3 POP POP POP JUMP JUMPDEST PUSH1 0x0 DUP2 CALLDATALOAD SWAP1 POP PUSH2 0x68D DUP2 PUSH2 0xC4A JUMP JUMPDEST SWAP3 SWAP2 POP POP JUMP JUMPDEST PUSH1 0x0 DUP2 CALLDATALOAD SWAP1 POP PUSH2 0x6A2 DUP2 PUSH2 0xC61 JUMP JUMPDEST SWAP3 SWAP2 POP POP JUMP JUMPDEST PUSH1 0x0 DUP3 PUSH1 0x1F DUP4 ADD SLT PUSH2 0x6BD JUMPI PUSH2 0x6BC PUSH2 0xBD3 JUMP JUMPDEST JUMPDEST DUP2 CALLDATALOAD PUSH2 0x6CD DUP5 DUP3 PUSH1 0x20 DUP7 ADD PUSH2 0x63C JUMP JUMPDEST SWAP2 POP POP SWAP3 SWAP2 POP POP JUMP JUMPDEST PUSH1 0x0 PUSH1 0x20 DUP3 DUP5 SUB SLT ISZERO PUSH2 0x6EC JUMPI PUSH2 0x6EB PUSH2 0xBE2 JUMP JUMPDEST JUMPDEST PUSH1 0x0 PUSH2 0x6FA DUP5 DUP3 DUP6 ADD PUSH2 0x67E JUMP JUMPDEST SWAP2 POP POP SWAP3 SWAP2 POP POP JUMP JUMPDEST PUSH1 0x0 PUSH1 0x20 DUP3 DUP5 SUB SLT ISZERO PUSH2 0x719 JUMPI PUSH2 0x718 PUSH2 0xBE2 JUMP JUMPDEST JUMPDEST PUSH1 0x0 PUSH2 0x727 DUP5 DUP3 DUP6 ADD PUSH2 0x693 JUMP JUMPDEST SWAP2 POP POP SWAP3 SWAP2 POP POP JUMP JUMPDEST PUSH1 0x0 PUSH1 0x20 DUP3 DUP5 SUB SLT ISZERO PUSH2 0x746 JUMPI PUSH2 0x745 PUSH2 0xBE2 JUMP JUMPDEST JUMPDEST PUSH1 0x0 DUP3 ADD CALLDATALOAD PUSH8 0xFFFFFFFFFFFFFFFF DUP2 GT ISZERO PUSH2 0x764 JUMPI PUSH2 0x763 PUSH2 0xBDD JUMP JUMPDEST JUMPDEST PUSH2 0x770 DUP5 DUP3 DUP6 ADD PUSH2 0x6A8 JUMP JUMPDEST SWAP2 POP POP SWAP3 SWAP2 POP POP JUMP JUMPDEST PUSH1 0x0 DUP1 PUSH1 0x0 PUSH1 0x60 DUP5 DUP7 SUB SLT ISZERO PUSH2 0x792 JUMPI PUSH2 0x791 PUSH2 0xBE2 JUMP JUMPDEST JUMPDEST PUSH1 0x0 DUP5 ADD CALLDATALOAD PUSH8 0xFFFFFFFFFFFFFFFF DUP2 GT ISZERO PUSH2 0x7B0 JUMPI PUSH2 0x7AF PUSH2 0xBDD JUMP JUMPDEST JUMPDEST PUSH2 0x7BC DUP7 DUP3 DUP8 ADD PUSH2 0x6A8 JUMP JUMPDEST SWAP4 POP POP PUSH1 0x20 DUP5 ADD CALLDATALOAD PUSH8 0xFFFFFFFFFFFFFFFF DUP2 GT ISZERO PUSH2 0x7DD JUMPI PUSH2 0x7DC PUSH2 0xBDD JUMP JUMPDEST JUMPDEST PUSH2 0x7E9 DUP7 DUP3 DUP8 ADD PUSH2 0x6A8 JUMP JUMPDEST SWAP3 POP POP PUSH1 0x40 PUSH2 0x7FA DUP7 DUP3 DUP8 ADD PUSH2 0x67E JUMP JUMPDEST SWAP2 POP POP SWAP3 POP SWAP3 POP SWAP3 JUMP JUMPDEST PUSH1 0x0 PUSH2 0x810 DUP4 DUP4 PUSH2 0x81C JUMP JUMPDEST PUSH1 0x20 DUP4 ADD SWAP1 POP SWAP3 SWAP2 POP POP JUMP JUMPDEST PUSH2 0x825 DUP2 PUSH2 0xA59 JUMP JUMPDEST DUP3 MSTORE POP POP JUMP JUMPDEST PUSH1 0x0 PUSH2 0x836 DUP3 PUSH2 0xA09 JUMP JUMPDEST PUSH2 0x840 DUP2 DUP6 PUSH2 0xA2C JUMP JUMPDEST SWAP4 POP PUSH2 0x84B DUP4 PUSH2 0x9F9 JUMP JUMPDEST DUP1 PUSH1 0x0 JUMPDEST DUP4 DUP2 LT ISZERO PUSH2 0x87C JUMPI DUP2 MLOAD PUSH2 0x863 DUP9 DUP3 PUSH2 0x804 JUMP JUMPDEST SWAP8 POP PUSH2 0x86E DUP4 PUSH2 0xA1F JUMP JUMPDEST SWAP3 POP POP PUSH1 0x1 DUP2 ADD SWAP1 POP PUSH2 0x84F JUMP JUMPDEST POP DUP6 SWAP4 POP POP POP POP SWAP3 SWAP2 POP POP JUMP JUMPDEST PUSH2 0x892 DUP2 PUSH2 0xA77 JUMP JUMPDEST DUP3 MSTORE POP POP JUMP JUMPDEST PUSH1 0x0 PUSH2 0x8A3 DUP3 PUSH2 0xA14 JUMP JUMPDEST PUSH2 0x8AD DUP2 DUP6 PUSH2 0xA4E JUMP JUMPDEST SWAP4 POP PUSH2 0x8BD DUP2 DUP6 PUSH1 0x20 DUP7 ADD PUSH2 0xAB0 JUMP JUMPDEST DUP1 DUP5 ADD SWAP2 POP POP SWAP3 SWAP2 POP POP JUMP JUMPDEST PUSH1 0x0 PUSH2 0x8D6 PUSH1 0x1F DUP4 PUSH2 0xA3D JUMP JUMPDEST SWAP2 POP PUSH2 0x8E1 DUP3 PUSH2 0xBF8 JUMP JUMPDEST PUSH1 0x20 DUP3 ADD SWAP1 POP SWAP2 SWAP1 POP JUMP JUMPDEST PUSH1 0x0 PUSH2 0x8F9 PUSH1 0x19 DUP4 PUSH2 0xA3D JUMP JUMPDEST SWAP2 POP PUSH2 0x904 DUP3 PUSH2 0xC21 JUMP JUMPDEST PUSH1 0x20 DUP3 ADD SWAP1 POP SWAP2 SWAP1 POP JUMP JUMPDEST PUSH1 0x0 PUSH2 0x91B DUP3 DUP5 PUSH2 0x898 JUMP JUMPDEST SWAP2 POP DUP2 SWAP1 POP SWAP3 SWAP2 POP POP JUMP JUMPDEST PUSH1 0x0 PUSH1 0x20 DUP3 ADD SWAP1 POP DUP2 DUP2 SUB PUSH1 0x0 DUP4 ADD MSTORE PUSH2 0x940 DUP2 DUP5 PUSH2 0x82B JUMP JUMPDEST SWAP1 POP SWAP3 SWAP2 POP POP JUMP JUMPDEST PUSH1 0x0 PUSH1 0x20 DUP3 ADD SWAP1 POP PUSH2 0x95D PUSH1 0x0 DUP4 ADD DUP5 PUSH2 0x889 JUMP JUMPDEST SWAP3 SWAP2 POP POP JUMP JUMPDEST PUSH1 0x0 PUSH1 0x20 DUP3 ADD SWAP1 POP DUP2 DUP2 SUB PUSH1 0x0 DUP4 ADD MSTORE PUSH2 0x97C DUP2 PUSH2 0x8C9 JUMP JUMPDEST SWAP1 POP SWAP2 SWAP1 POP JUMP JUMPDEST PUSH1 0x0 PUSH1 0x20 DUP3 ADD SWAP1 POP DUP2 DUP2 SUB PUSH1 0x0 DUP4 ADD MSTORE PUSH2 0x99C DUP2 PUSH2 0x8EC JUMP JUMPDEST SWAP1 POP SWAP2 SWAP1 POP JUMP JUMPDEST PUSH1 0x0 PUSH2 0x9AD PUSH2 0x9BE JUMP JUMPDEST SWAP1 POP PUSH2 0x9B9 DUP3 DUP3 PUSH2 0xB15 JUMP JUMPDEST SWAP2 SWAP1 POP JUMP JUMPDEST PUSH1 0x0 PUSH1 0x40 MLOAD SWAP1 POP SWAP1 JUMP JUMPDEST PUSH1 0x0 PUSH8 0xFFFFFFFFFFFFFFFF DUP3 GT ISZERO PUSH2 0x9E3 JUMPI PUSH2 0x9E2 PUSH2 0xBA4 JUMP JUMPDEST JUMPDEST PUSH2 0x9EC DUP3 PUSH2 0xBE7 JUMP JUMPDEST SWAP1 POP PUSH1 0x20 DUP2 ADD SWAP1 POP SWAP2 SWAP1 POP JUMP JUMPDEST PUSH1 0x0 DUP2 SWAP1 POP PUSH1 0x20 DUP3 ADD SWAP1 POP SWAP2 SWAP1 POP JUMP JUMPDEST PUSH1 0x0 DUP2 MLOAD SWAP1 POP SWAP2 SWAP1 POP JUMP JUMPDEST PUSH1 0x0 DUP2 MLOAD SWAP1 POP SWAP2 SWAP1 POP JUMP JUMPDEST PUSH1 0x0 PUSH1 0x20 DUP3 ADD SWAP1 POP SWAP2 SWAP1 POP JUMP JUMPDEST PUSH1 0x0 DUP3 DUP3 MSTORE PUSH1 0x20 DUP3 ADD SWAP1 POP SWAP3 SWAP2 POP POP JUMP JUMPDEST PUSH1 0x0 DUP3 DUP3 MSTORE PUSH1 0x20 DUP3 ADD SWAP1 POP SWAP3 SWAP2 POP POP JUMP JUMPDEST PUSH1 0x0 DUP2 SWAP1 POP SWAP3 SWAP2 POP POP JUMP JUMPDEST PUSH1 0x0 PUSH2 0xA64 DUP3 PUSH2 0xA81 JUMP JUMPDEST SWAP1 POP SWAP2 SWAP1 POP JUMP JUMPDEST PUSH1 0x0 DUP2 ISZERO ISZERO SWAP1 POP SWAP2 SWAP1 POP JUMP JUMPDEST PUSH1 0x0 DUP2 SWAP1 POP SWAP2 SWAP1 POP JUMP JUMPDEST PUSH1 0x0 PUSH20 0xFFFFFFFFFFFFFFFFFFFFFFFFFFFFFFFFFFFFFFFF DUP3 AND SWAP1 POP SWAP2 SWAP1 POP JUMP JUMPDEST DUP3 DUP2 DUP4 CALLDATACOPY PUSH1 0x0 DUP4 DUP4 ADD MSTORE POP POP POP JUMP JUMPDEST PUSH1 0x0 JUMPDEST DUP4 DUP2 LT ISZERO PUSH2 0xACE JUMPI DUP1 DUP3 ADD MLOAD DUP2 DUP5 ADD MSTORE PUSH1 0x20 DUP2 ADD SWAP1 POP PUSH2 0xAB3 JUMP JUMPDEST DUP4 DUP2 GT ISZERO PUSH2 0xADD JUMPI PUSH1 0x0 DUP5 DUP5 ADD MSTORE JUMPDEST POP POP POP POP JUMP JUMPDEST PUSH1 0x0 PUSH1 0x2 DUP3 DIV SWAP1 POP PUSH1 0x1 DUP3 AND DUP1 PUSH2 0xAFB JUMPI PUSH1 0x7F DUP3 AND SWAP2 POP JUMPDEST PUSH1 0x20 DUP3 LT DUP2 EQ ISZERO PUSH2 0xB0F JUMPI PUSH2 0xB0E PUSH2 0xB75 JUMP JUMPDEST JUMPDEST POP SWAP2 SWAP1 POP JUMP JUMPDEST PUSH2 0xB1E DUP3 PUSH2 0xBE7 JUMP JUMPDEST DUP2 ADD DUP2 DUP2 LT PUSH8 0xFFFFFFFFFFFFFFFF DUP3 GT OR ISZERO PUSH2 0xB3D JUMPI PUSH2 0xB3C PUSH2 0xBA4 JUMP JUMPDEST JUMPDEST DUP1 PUSH1 0x40 MSTORE POP POP POP JUMP JUMPDEST PUSH32 0x4E487B7100000000000000000000000000000000000000000000000000000000 PUSH1 0x0 MSTORE PUSH1 0x21 PUSH1 0x4 MSTORE PUSH1 0x24 PUSH1 0x0 REVERT JUMPDEST PUSH32 0x4E487B7100000000000000000000000000000000000000000000000000000000 PUSH1 0x0 MSTORE PUSH1 0x22 PUSH1 0x4 MSTORE PUSH1 0x24 PUSH1 0x0 REVERT JUMPDEST PUSH32 0x4E487B7100000000000000000000000000000000000000000000000000000000 PUSH1 0x0 MSTORE PUSH1 0x41 PUSH1 0x4 MSTORE PUSH1 0x24 PUSH1 0x0 REVERT JUMPDEST PUSH1 0x0 DUP1 REVERT JUMPDEST PUSH1 0x0 DUP1 REVERT JUMPDEST PUSH1 0x0 DUP1 REVERT JUMPDEST PUSH1 0x0 DUP1 REVERT JUMPDEST PUSH1 0x0 PUSH1 0x1F NOT PUSH1 0x1F DUP4 ADD AND SWAP1 POP SWAP2 SWAP1 POP JUMP JUMPDEST PUSH32 0x596F7520617265206E6F74206120707269766174652070726F76696465722100 PUSH1 0x0 DUP3 ADD MSTORE POP JUMP JUMPDEST PUSH32 0x4170706C69636174696F6E20616C72656164792073656E742100000000000000 PUSH1 0x0 DUP3 ADD MSTORE POP JUMP JUMPDEST PUSH2 0xC53 DUP2 PUSH2 0xA59 JUMP JUMPDEST DUP2 EQ PUSH2 0xC5E JUMPI PUSH1 0x0 DUP1 REVERT JUMPDEST POP JUMP JUMPDEST PUSH2 0xC6A DUP2 PUSH2 0xA6B JUMP JUMPDEST DUP2 EQ PUSH2 0xC75 JUMPI PUSH1 0x0 DUP1 REVERT JUMPDEST POP JUMP INVALID LOG2 PUSH5 0x6970667358 0x22 SLT KECCAK256 0xE3 0xAC PUSH5 0x4554ED9CE1 COINBASE 0xC4 0xCF 0xC DUP2 MOD 0xAA 0xC5 SSTORE 0xE3 0x29 0x5C 0xA7 0x25 0xDF PUSH21 0x85CBB69AB8BE2ACD64736F6C634300080700330000 "
				},
				"gasEstimates": {
					"creation": {
						"codeDepositCost": "649200",
						"executionCost": "683",
						"totalCost": "649883"
					},
					"external": {
						"acceptApplication(bool)": "3071",
						"application(string,string,address)": "infinite",
						"get_keccak256(string)": "infinite",
						"viewApplication(address)": "455",
						"viewApplicationAmountAdr()": "infinite"
					}
				},
				"methodIdentifiers": {
					"acceptApplication(bool)": "9d9e7a4b",
					"application(string,string,address)": "785963c3",
					"get_keccak256(string)": "8e4f8c6b",
					"viewApplication(address)": "76eada91",
					"viewApplicationAmountAdr()": "4d0d594f"
				}
			},
			"storageLayout": {
				"storage": [
					{
						"astId": 272,
						"contract": "Documents/GitHub/contract-token-cryptoMonster/backend/components/PhasePrivate.sol:PhasePrivate",
						"label": "structUsers_",
						"offset": 0,
						"slot": "0",
						"type": "t_mapping(t_address,t_struct(structUser)267_storage)"
					},
					{
						"astId": 282,
						"contract": "Documents/GitHub/contract-token-cryptoMonster/backend/components/PhasePrivate.sol:PhasePrivate",
						"label": "structPhases_",
						"offset": 0,
						"slot": "1",
						"type": "t_mapping(t_address,t_struct(structPhase)277_storage)"
					},
					{
						"astId": 300,
						"contract": "Documents/GitHub/contract-token-cryptoMonster/backend/components/PhasePrivate.sol:PhasePrivate",
						"label": "strucApplications_",
						"offset": 0,
						"slot": "2",
						"type": "t_mapping(t_address,t_struct(structApplication)295_storage)"
					},
					{
						"astId": 303,
						"contract": "Documents/GitHub/contract-token-cryptoMonster/backend/components/PhasePrivate.sol:PhasePrivate",
						"label": "structApplicationsAmountAdr",
						"offset": 0,
						"slot": "3",
						"type": "t_array(t_address)dyn_storage"
					}
				],
				"types": {
					"t_address": {
						"encoding": "inplace",
						"label": "address",
						"numberOfBytes": "20"
					},
					"t_array(t_address)dyn_storage": {
						"base": "t_address",
						"encoding": "dynamic_array",
						"label": "address[]",
						"numberOfBytes": "32"
					},
					"t_bool": {
						"encoding": "inplace",
						"label": "bool",
						"numberOfBytes": "1"
					},
					"t_bytes32": {
						"encoding": "inplace",
						"label": "bytes32",
						"numberOfBytes": "32"
					},
					"t_enum(Role)251": {
						"encoding": "inplace",
						"label": "enum structures.Role",
						"numberOfBytes": "1"
					},
					"t_mapping(t_address,t_struct(structApplication)295_storage)": {
						"encoding": "mapping",
						"key": "t_address",
						"label": "mapping(address => struct structures.structApplication)",
						"numberOfBytes": "32",
						"value": "t_struct(structApplication)295_storage"
					},
					"t_mapping(t_address,t_struct(structPhase)277_storage)": {
						"encoding": "mapping",
						"key": "t_address",
						"label": "mapping(address => struct structures.structPhase)",
						"numberOfBytes": "32",
						"value": "t_struct(structPhase)277_storage"
					},
					"t_mapping(t_address,t_struct(structUser)267_storage)": {
						"encoding": "mapping",
						"key": "t_address",
						"label": "mapping(address => struct structures.structUser)",
						"numberOfBytes": "32",
						"value": "t_struct(structUser)267_storage"
					},
					"t_string_storage": {
						"encoding": "bytes",
						"label": "string",
						"numberOfBytes": "32"
					},
					"t_struct(structApplication)295_storage": {
						"encoding": "inplace",
						"label": "struct structures.structApplication",
						"members": [
							{
								"astId": 284,
								"contract": "Documents/GitHub/contract-token-cryptoMonster/backend/components/PhasePrivate.sol:PhasePrivate",
								"label": "name",
								"offset": 0,
								"slot": "0",
								"type": "t_string_storage"
							},
							{
								"astId": 286,
								"contract": "Documents/GitHub/contract-token-cryptoMonster/backend/components/PhasePrivate.sol:PhasePrivate",
								"label": "contactForCommunication",
								"offset": 0,
								"slot": "1",
								"type": "t_string_storage"
							},
							{
								"astId": 288,
								"contract": "Documents/GitHub/contract-token-cryptoMonster/backend/components/PhasePrivate.sol:PhasePrivate",
								"label": "userAdr",
								"offset": 0,
								"slot": "2",
								"type": "t_address"
							},
							{
								"astId": 290,
								"contract": "Documents/GitHub/contract-token-cryptoMonster/backend/components/PhasePrivate.sol:PhasePrivate",
								"label": "status",
								"offset": 20,
								"slot": "2",
								"type": "t_bool"
							},
							{
								"astId": 292,
								"contract": "Documents/GitHub/contract-token-cryptoMonster/backend/components/PhasePrivate.sol:PhasePrivate",
								"label": "reviewed",
								"offset": 21,
								"slot": "2",
								"type": "t_bool"
							},
							{
								"astId": 294,
								"contract": "Documents/GitHub/contract-token-cryptoMonster/backend/components/PhasePrivate.sol:PhasePrivate",
								"label": "exist",
								"offset": 22,
								"slot": "2",
								"type": "t_bool"
							}
						],
						"numberOfBytes": "96"
					},
					"t_struct(structPhase)277_storage": {
						"encoding": "inplace",
						"label": "struct structures.structPhase",
						"members": [
							{
								"astId": 274,
								"contract": "Documents/GitHub/contract-token-cryptoMonster/backend/components/PhasePrivate.sol:PhasePrivate",
								"label": "statusPhase",
								"offset": 0,
								"slot": "0",
								"type": "t_bool"
							},
							{
								"astId": 276,
								"contract": "Documents/GitHub/contract-token-cryptoMonster/backend/components/PhasePrivate.sol:PhasePrivate",
								"label": "reviewed",
								"offset": 1,
								"slot": "0",
								"type": "t_bool"
							}
						],
						"numberOfBytes": "32"
					},
					"t_struct(structUser)267_storage": {
						"encoding": "inplace",
						"label": "struct structures.structUser",
						"members": [
							{
								"astId": 254,
								"contract": "Documents/GitHub/contract-token-cryptoMonster/backend/components/PhasePrivate.sol:PhasePrivate",
								"label": "role",
								"offset": 0,
								"slot": "0",
								"type": "t_enum(Role)251"
							},
							{
								"astId": 256,
								"contract": "Documents/GitHub/contract-token-cryptoMonster/backend/components/PhasePrivate.sol:PhasePrivate",
								"label": "login",
								"offset": 0,
								"slot": "1",
								"type": "t_string_storage"
							},
							{
								"astId": 258,
								"contract": "Documents/GitHub/contract-token-cryptoMonster/backend/components/PhasePrivate.sol:PhasePrivate",
								"label": "password",
								"offset": 0,
								"slot": "2",
								"type": "t_bytes32"
							},
							{
								"astId": 260,
								"contract": "Documents/GitHub/contract-token-cryptoMonster/backend/components/PhasePrivate.sol:PhasePrivate",
								"label": "balance_overall",
								"offset": 0,
								"slot": "3",
								"type": "t_uint256"
							},
							{
								"astId": 262,
								"contract": "Documents/GitHub/contract-token-cryptoMonster/backend/components/PhasePrivate.sol:PhasePrivate",
								"label": "balance_seed",
								"offset": 0,
								"slot": "4",
								"type": "t_uint256"
							},
							{
								"astId": 264,
								"contract": "Documents/GitHub/contract-token-cryptoMonster/backend/components/PhasePrivate.sol:PhasePrivate",
								"label": "balance_private",
								"offset": 0,
								"slot": "5",
								"type": "t_uint256"
							},
							{
								"astId": 266,
								"contract": "Documents/GitHub/contract-token-cryptoMonster/backend/components/PhasePrivate.sol:PhasePrivate",
								"label": "balance_public",
								"offset": 0,
								"slot": "6",
								"type": "t_uint256"
							}
						],
						"numberOfBytes": "224"
					},
					"t_uint256": {
						"encoding": "inplace",
						"label": "uint256",
						"numberOfBytes": "32"
					}
				}
			},
			"userdoc": {
				"kind": "user",
				"methods": {},
				"version": 1
			}
		}
	}
}