{
	"Documents/GitHub/contract-token-cryptoMonster/backend/components/PhasePrivate.sol": {
		"PhasePrivate": {
			"abi": [
				{
					"inputs": [
						{
							"internalType": "bool",
							"name": "_changeStatus",
							"type": "bool"
						}
					],
					"name": "acceptApplication",
					"outputs": [],
					"stateMutability": "nonpayable",
					"type": "function"
				},
				{
					"inputs": [
						{
							"internalType": "string",
							"name": "_name",
							"type": "string"
						},
						{
							"internalType": "string",
							"name": "_contactForCommunication",
							"type": "string"
						},
						{
							"internalType": "address",
							"name": "_userAdr",
							"type": "address"
						}
					],
					"name": "application",
					"outputs": [],
					"stateMutability": "nonpayable",
					"type": "function"
				},
				{
					"inputs": [
						{
							"internalType": "string",
							"name": "_hash",
							"type": "string"
						}
					],
					"name": "get_keccak256",
					"outputs": [
						{
							"internalType": "bytes32",
							"name": "",
							"type": "bytes32"
						}
					],
					"stateMutability": "pure",
					"type": "function"
				},
				{
					"inputs": [],
					"name": "viewApplicationAmountAdr",
					"outputs": [
						{
							"internalType": "address[]",
							"name": "",
							"type": "address[]"
						}
					],
					"stateMutability": "nonpayable",
					"type": "function"
				}
			],
			"devdoc": {
				"kind": "dev",
				"methods": {},
				"version": 1
			},
			"evm": {
				"assembly": "    /* \"Documents/GitHub/contract-token-cryptoMonster/backend/components/PhasePrivate.sol\":120:1344  contract PhasePrivate is modifireFunc {\r... */\n  mstore(0x40, 0x80)\n  callvalue\n  dup1\n  iszero\n  tag_1\n  jumpi\n  0x00\n  dup1\n  revert\ntag_1:\n  pop\n  dataSize(sub_0)\n  dup1\n  dataOffset(sub_0)\n  0x00\n  codecopy\n  0x00\n  return\nstop\n\nsub_0: assembly {\n        /* \"Documents/GitHub/contract-token-cryptoMonster/backend/components/PhasePrivate.sol\":120:1344  contract PhasePrivate is modifireFunc {\r... */\n      mstore(0x40, 0x80)\n      callvalue\n      dup1\n      iszero\n      tag_1\n      jumpi\n      0x00\n      dup1\n      revert\n    tag_1:\n      pop\n      jumpi(tag_2, lt(calldatasize, 0x04))\n      shr(0xe0, calldataload(0x00))\n      dup1\n      0x4d0d594f\n      eq\n      tag_3\n      jumpi\n      dup1\n      0x785963c3\n      eq\n      tag_4\n      jumpi\n      dup1\n      0x8e4f8c6b\n      eq\n      tag_5\n      jumpi\n      dup1\n      0x9d9e7a4b\n      eq\n      tag_6\n      jumpi\n    tag_2:\n      0x00\n      dup1\n      revert\n        /* \"Documents/GitHub/contract-token-cryptoMonster/backend/components/PhasePrivate.sol\":852:1093  function viewApplicationAmountAdr () public onlyAdmin returns (address[] memory) {\r... */\n    tag_3:\n      tag_7\n      tag_8\n      jump\t// in\n    tag_7:\n      mload(0x40)\n      tag_9\n      swap2\n      swap1\n      tag_10\n      jump\t// in\n    tag_9:\n      mload(0x40)\n      dup1\n      swap2\n      sub\n      swap1\n      return\n        /* \"Documents/GitHub/contract-token-cryptoMonster/backend/components/PhasePrivate.sol\":256:738  function application(string memory _name, string memory _contactForCommunication, address _userAdr) public {\r... */\n    tag_4:\n      tag_11\n      0x04\n      dup1\n      calldatasize\n      sub\n      dup2\n      add\n      swap1\n      tag_12\n      swap2\n      swap1\n      tag_13\n      jump\t// in\n    tag_12:\n      tag_14\n      jump\t// in\n    tag_11:\n      stop\n        /* \"Documents/GitHub/contract-token-cryptoMonster/backend/shared/helpers/getFuncs.sol\":144:282  function get_keccak256(string memory _hash) public pure returns(bytes32) {\r... */\n    tag_5:\n      tag_15\n      0x04\n      dup1\n      calldatasize\n      sub\n      dup2\n      add\n      swap1\n      tag_16\n      swap2\n      swap1\n      tag_17\n      jump\t// in\n    tag_16:\n      tag_18\n      jump\t// in\n    tag_15:\n      mload(0x40)\n      tag_19\n      swap2\n      swap1\n      tag_20\n      jump\t// in\n    tag_19:\n      mload(0x40)\n      dup1\n      swap2\n      sub\n      swap1\n      return\n        /* \"Documents/GitHub/contract-token-cryptoMonster/backend/components/PhasePrivate.sol\":1169:1341  function acceptApplication (bool _changeStatus) public {\r... */\n    tag_6:\n      tag_21\n      0x04\n      dup1\n      calldatasize\n      sub\n      dup2\n      add\n      swap1\n      tag_22\n      swap2\n      swap1\n      tag_23\n      jump\t// in\n    tag_22:\n      tag_24\n      jump\t// in\n    tag_21:\n      stop\n        /* \"Documents/GitHub/contract-token-cryptoMonster/backend/components/PhasePrivate.sol\":852:1093  function viewApplicationAmountAdr () public onlyAdmin returns (address[] memory) {\r... */\n    tag_8:\n        /* \"Documents/GitHub/contract-token-cryptoMonster/backend/components/PhasePrivate.sol\":915:931  address[] memory */\n      0x60\n        /* \"Documents/GitHub/contract-token-cryptoMonster/backend/shared/helpers/modifireFunc.sol\":224:241  Role.SYSTEM_OWNER */\n      0x00\n        /* \"Documents/GitHub/contract-token-cryptoMonster/backend/shared/helpers/modifireFunc.sol\":191:241  structUsers_[msg.sender].role == Role.SYSTEM_OWNER */\n      0x04\n      dup2\n      gt\n      iszero\n      tag_26\n      jumpi\n      tag_27\n      tag_28\n      jump\t// in\n    tag_27:\n    tag_26:\n        /* \"Documents/GitHub/contract-token-cryptoMonster/backend/shared/helpers/modifireFunc.sol\":191:203  structUsers_ */\n      0x00\n        /* \"Documents/GitHub/contract-token-cryptoMonster/backend/shared/helpers/modifireFunc.sol\":191:215  structUsers_[msg.sender] */\n      dup1\n        /* \"Documents/GitHub/contract-token-cryptoMonster/backend/shared/helpers/modifireFunc.sol\":204:214  msg.sender */\n      caller\n        /* \"Documents/GitHub/contract-token-cryptoMonster/backend/shared/helpers/modifireFunc.sol\":191:215  structUsers_[msg.sender] */\n      0xffffffffffffffffffffffffffffffffffffffff\n      and\n      0xffffffffffffffffffffffffffffffffffffffff\n      and\n      dup2\n      mstore\n      0x20\n      add\n      swap1\n      dup2\n      mstore\n      0x20\n      add\n      0x00\n      keccak256\n        /* \"Documents/GitHub/contract-token-cryptoMonster/backend/shared/helpers/modifireFunc.sol\":191:220  structUsers_[msg.sender].role */\n      0x00\n      add\n      0x00\n      swap1\n      sload\n      swap1\n      0x0100\n      exp\n      swap1\n      div\n      0xff\n      and\n        /* \"Documents/GitHub/contract-token-cryptoMonster/backend/shared/helpers/modifireFunc.sol\":191:241  structUsers_[msg.sender].role == Role.SYSTEM_OWNER */\n      0x04\n      dup2\n      gt\n      iszero\n      tag_29\n      jumpi\n      tag_30\n      tag_28\n      jump\t// in\n    tag_30:\n    tag_29:\n      eq\n        /* \"Documents/GitHub/contract-token-cryptoMonster/backend/shared/helpers/modifireFunc.sol\":183:260  require(structUsers_[msg.sender].role == Role.SYSTEM_OWNER, \"Your not admin\") */\n      tag_31\n      jumpi\n      mload(0x40)\n      0x08c379a000000000000000000000000000000000000000000000000000000000\n      dup2\n      mstore\n      0x04\n      add\n      tag_32\n      swap1\n      tag_33\n      jump\t// in\n    tag_32:\n      mload(0x40)\n      dup1\n      swap2\n      sub\n      swap1\n      revert\n    tag_31:\n        /* \"Documents/GitHub/contract-token-cryptoMonster/backend/components/PhasePrivate.sol\":985:1004  Role.SYSTEM_PRIVATE */\n      0x02\n        /* \"Documents/GitHub/contract-token-cryptoMonster/backend/components/PhasePrivate.sol\":952:1004  structUsers_[msg.sender].role == Role.SYSTEM_PRIVATE */\n      0x04\n      dup2\n      gt\n      iszero\n      tag_35\n      jumpi\n      tag_36\n      tag_28\n      jump\t// in\n    tag_36:\n    tag_35:\n        /* \"Documents/GitHub/contract-token-cryptoMonster/backend/components/PhasePrivate.sol\":952:964  structUsers_ */\n      0x00\n        /* \"Documents/GitHub/contract-token-cryptoMonster/backend/components/PhasePrivate.sol\":952:976  structUsers_[msg.sender] */\n      dup1\n        /* \"Documents/GitHub/contract-token-cryptoMonster/backend/components/PhasePrivate.sol\":965:975  msg.sender */\n      caller\n        /* \"Documents/GitHub/contract-token-cryptoMonster/backend/components/PhasePrivate.sol\":952:976  structUsers_[msg.sender] */\n      0xffffffffffffffffffffffffffffffffffffffff\n      and\n      0xffffffffffffffffffffffffffffffffffffffff\n      and\n      dup2\n      mstore\n      0x20\n      add\n      swap1\n      dup2\n      mstore\n      0x20\n      add\n      0x00\n      keccak256\n        /* \"Documents/GitHub/contract-token-cryptoMonster/backend/components/PhasePrivate.sol\":952:981  structUsers_[msg.sender].role */\n      0x00\n      add\n      0x00\n      swap1\n      sload\n      swap1\n      0x0100\n      exp\n      swap1\n      div\n      0xff\n      and\n        /* \"Documents/GitHub/contract-token-cryptoMonster/backend/components/PhasePrivate.sol\":952:1004  structUsers_[msg.sender].role == Role.SYSTEM_PRIVATE */\n      0x04\n      dup2\n      gt\n      iszero\n      tag_37\n      jumpi\n      tag_38\n      tag_28\n      jump\t// in\n    tag_38:\n    tag_37:\n      eq\n        /* \"Documents/GitHub/contract-token-cryptoMonster/backend/components/PhasePrivate.sol\":944:1040  require(structUsers_[msg.sender].role == Role.SYSTEM_PRIVATE, \"You are not a private provider!\") */\n      tag_39\n      jumpi\n      mload(0x40)\n      0x08c379a000000000000000000000000000000000000000000000000000000000\n      dup2\n      mstore\n      0x04\n      add\n      tag_40\n      swap1\n      tag_41\n      jump\t// in\n    tag_40:\n      mload(0x40)\n      dup1\n      swap2\n      sub\n      swap1\n      revert\n    tag_39:\n        /* \"Documents/GitHub/contract-token-cryptoMonster/backend/components/PhasePrivate.sol\":1058:1085  structApplicationsAmountAdr */\n      0x03\n        /* \"Documents/GitHub/contract-token-cryptoMonster/backend/components/PhasePrivate.sol\":1051:1085  return structApplicationsAmountAdr */\n      dup1\n      sload\n      dup1\n      0x20\n      mul\n      0x20\n      add\n      mload(0x40)\n      swap1\n      dup2\n      add\n      0x40\n      mstore\n      dup1\n      swap3\n      swap2\n      swap1\n      dup2\n      dup2\n      mstore\n      0x20\n      add\n      dup3\n      dup1\n      sload\n      dup1\n      iszero\n      tag_42\n      jumpi\n      0x20\n      mul\n      dup3\n      add\n      swap2\n      swap1\n      0x00\n      mstore\n      keccak256(0x00, 0x20)\n      swap1\n    tag_43:\n      dup2\n      0x00\n      swap1\n      sload\n      swap1\n      0x0100\n      exp\n      swap1\n      div\n      0xffffffffffffffffffffffffffffffffffffffff\n      and\n      0xffffffffffffffffffffffffffffffffffffffff\n      and\n      dup2\n      mstore\n      0x20\n      add\n      swap1\n      0x01\n      add\n      swap1\n      dup1\n      dup4\n      gt\n      tag_43\n      jumpi\n    tag_42:\n      pop\n      pop\n      pop\n      pop\n      pop\n      swap1\n      pop\n        /* \"Documents/GitHub/contract-token-cryptoMonster/backend/components/PhasePrivate.sol\":852:1093  function viewApplicationAmountAdr () public onlyAdmin returns (address[] memory) {\r... */\n      swap1\n      jump\t// out\n        /* \"Documents/GitHub/contract-token-cryptoMonster/backend/components/PhasePrivate.sol\":256:738  function application(string memory _name, string memory _contactForCommunication, address _userAdr) public {\r... */\n    tag_14:\n        /* \"Documents/GitHub/contract-token-cryptoMonster/backend/components/PhasePrivate.sol\":422:426  true */\n      0x01\n        /* \"Documents/GitHub/contract-token-cryptoMonster/backend/components/PhasePrivate.sol\":382:426  strucApplications_[msg.sender].exist == true */\n      iszero\n      iszero\n        /* \"Documents/GitHub/contract-token-cryptoMonster/backend/components/PhasePrivate.sol\":382:400  strucApplications_ */\n      0x02\n        /* \"Documents/GitHub/contract-token-cryptoMonster/backend/components/PhasePrivate.sol\":382:412  strucApplications_[msg.sender] */\n      0x00\n        /* \"Documents/GitHub/contract-token-cryptoMonster/backend/components/PhasePrivate.sol\":401:411  msg.sender */\n      caller\n        /* \"Documents/GitHub/contract-token-cryptoMonster/backend/components/PhasePrivate.sol\":382:412  strucApplications_[msg.sender] */\n      0xffffffffffffffffffffffffffffffffffffffff\n      and\n      0xffffffffffffffffffffffffffffffffffffffff\n      and\n      dup2\n      mstore\n      0x20\n      add\n      swap1\n      dup2\n      mstore\n      0x20\n      add\n      0x00\n      keccak256\n        /* \"Documents/GitHub/contract-token-cryptoMonster/backend/components/PhasePrivate.sol\":382:418  strucApplications_[msg.sender].exist */\n      0x02\n      add\n      0x16\n      swap1\n      sload\n      swap1\n      0x0100\n      exp\n      swap1\n      div\n      0xff\n      and\n        /* \"Documents/GitHub/contract-token-cryptoMonster/backend/components/PhasePrivate.sol\":382:426  strucApplications_[msg.sender].exist == true */\n      iszero\n      iszero\n      eq\n        /* \"Documents/GitHub/contract-token-cryptoMonster/backend/components/PhasePrivate.sol\":374:456  require(strucApplications_[msg.sender].exist == true, \"Application already sent!\") */\n      tag_45\n      jumpi\n      mload(0x40)\n      0x08c379a000000000000000000000000000000000000000000000000000000000\n      dup2\n      mstore\n      0x04\n      add\n      tag_46\n      swap1\n      tag_47\n      jump\t// in\n    tag_46:\n      mload(0x40)\n      dup1\n      swap2\n      sub\n      swap1\n      revert\n    tag_45:\n        /* \"Documents/GitHub/contract-token-cryptoMonster/backend/components/PhasePrivate.sol\":596:675  structApplication(_name, _contactForCommunication, _userAdr, true, false, true) */\n      mload(0x40)\n      dup1\n      0xc0\n      add\n      0x40\n      mstore\n      dup1\n        /* \"Documents/GitHub/contract-token-cryptoMonster/backend/components/PhasePrivate.sol\":614:619  _name */\n      dup5\n        /* \"Documents/GitHub/contract-token-cryptoMonster/backend/components/PhasePrivate.sol\":596:675  structApplication(_name, _contactForCommunication, _userAdr, true, false, true) */\n      dup2\n      mstore\n      0x20\n      add\n        /* \"Documents/GitHub/contract-token-cryptoMonster/backend/components/PhasePrivate.sol\":621:645  _contactForCommunication */\n      dup4\n        /* \"Documents/GitHub/contract-token-cryptoMonster/backend/components/PhasePrivate.sol\":596:675  structApplication(_name, _contactForCommunication, _userAdr, true, false, true) */\n      dup2\n      mstore\n      0x20\n      add\n        /* \"Documents/GitHub/contract-token-cryptoMonster/backend/components/PhasePrivate.sol\":647:655  _userAdr */\n      dup3\n        /* \"Documents/GitHub/contract-token-cryptoMonster/backend/components/PhasePrivate.sol\":596:675  structApplication(_name, _contactForCommunication, _userAdr, true, false, true) */\n      0xffffffffffffffffffffffffffffffffffffffff\n      and\n      dup2\n      mstore\n      0x20\n      add\n        /* \"Documents/GitHub/contract-token-cryptoMonster/backend/components/PhasePrivate.sol\":657:661  true */\n      0x01\n        /* \"Documents/GitHub/contract-token-cryptoMonster/backend/components/PhasePrivate.sol\":596:675  structApplication(_name, _contactForCommunication, _userAdr, true, false, true) */\n      iszero\n      iszero\n      dup2\n      mstore\n      0x20\n      add\n        /* \"Documents/GitHub/contract-token-cryptoMonster/backend/components/PhasePrivate.sol\":663:668  false */\n      0x00\n        /* \"Documents/GitHub/contract-token-cryptoMonster/backend/components/PhasePrivate.sol\":596:675  structApplication(_name, _contactForCommunication, _userAdr, true, false, true) */\n      iszero\n      iszero\n      dup2\n      mstore\n      0x20\n      add\n        /* \"Documents/GitHub/contract-token-cryptoMonster/backend/components/PhasePrivate.sol\":670:674  true */\n      0x01\n        /* \"Documents/GitHub/contract-token-cryptoMonster/backend/components/PhasePrivate.sol\":596:675  structApplication(_name, _contactForCommunication, _userAdr, true, false, true) */\n      iszero\n      iszero\n      dup2\n      mstore\n      pop\n        /* \"Documents/GitHub/contract-token-cryptoMonster/backend/components/PhasePrivate.sol\":562:580  strucApplications_ */\n      0x02\n        /* \"Documents/GitHub/contract-token-cryptoMonster/backend/components/PhasePrivate.sol\":562:592  strucApplications_[msg.sender] */\n      0x00\n        /* \"Documents/GitHub/contract-token-cryptoMonster/backend/components/PhasePrivate.sol\":581:591  msg.sender */\n      caller\n        /* \"Documents/GitHub/contract-token-cryptoMonster/backend/components/PhasePrivate.sol\":562:592  strucApplications_[msg.sender] */\n      0xffffffffffffffffffffffffffffffffffffffff\n      and\n      0xffffffffffffffffffffffffffffffffffffffff\n      and\n      dup2\n      mstore\n      0x20\n      add\n      swap1\n      dup2\n      mstore\n      0x20\n      add\n      0x00\n      keccak256\n        /* \"Documents/GitHub/contract-token-cryptoMonster/backend/components/PhasePrivate.sol\":562:675  strucApplications_[msg.sender]  = structApplication(_name, _contactForCommunication, _userAdr, true, false, true) */\n      0x00\n      dup3\n      add\n      mload\n      dup2\n      0x00\n      add\n      swap1\n      dup1\n      mload\n      swap1\n      0x20\n      add\n      swap1\n      tag_48\n      swap3\n      swap2\n      swap1\n      tag_49\n      jump\t// in\n    tag_48:\n      pop\n      0x20\n      dup3\n      add\n      mload\n      dup2\n      0x01\n      add\n      swap1\n      dup1\n      mload\n      swap1\n      0x20\n      add\n      swap1\n      tag_50\n      swap3\n      swap2\n      swap1\n      tag_49\n      jump\t// in\n    tag_50:\n      pop\n      0x40\n      dup3\n      add\n      mload\n      dup2\n      0x02\n      add\n      exp(0x0100, 0x00)\n      dup2\n      sload\n      dup2\n      0xffffffffffffffffffffffffffffffffffffffff\n      mul\n      not\n      and\n      swap1\n      dup4\n      0xffffffffffffffffffffffffffffffffffffffff\n      and\n      mul\n      or\n      swap1\n      sstore\n      pop\n      0x60\n      dup3\n      add\n      mload\n      dup2\n      0x02\n      add\n      exp(0x0100, 0x14)\n      dup2\n      sload\n      dup2\n      0xff\n      mul\n      not\n      and\n      swap1\n      dup4\n      iszero\n      iszero\n      mul\n      or\n      swap1\n      sstore\n      pop\n      0x80\n      dup3\n      add\n      mload\n      dup2\n      0x02\n      add\n      exp(0x0100, 0x15)\n      dup2\n      sload\n      dup2\n      0xff\n      mul\n      not\n      and\n      swap1\n      dup4\n      iszero\n      iszero\n      mul\n      or\n      swap1\n      sstore\n      pop\n      0xa0\n      dup3\n      add\n      mload\n      dup2\n      0x02\n      add\n      exp(0x0100, 0x16)\n      dup2\n      sload\n      dup2\n      0xff\n      mul\n      not\n      and\n      swap1\n      dup4\n      iszero\n      iszero\n      mul\n      or\n      swap1\n      sstore\n      pop\n      swap1\n      pop\n      pop\n        /* \"Documents/GitHub/contract-token-cryptoMonster/backend/components/PhasePrivate.sol\":686:713  structApplicationsAmountAdr */\n      0x03\n        /* \"Documents/GitHub/contract-token-cryptoMonster/backend/components/PhasePrivate.sol\":719:729  msg.sender */\n      caller\n        /* \"Documents/GitHub/contract-token-cryptoMonster/backend/components/PhasePrivate.sol\":686:730  structApplicationsAmountAdr.push(msg.sender) */\n      swap1\n      dup1\n      0x01\n      dup2\n      sload\n      add\n      dup1\n      dup3\n      sstore\n      dup1\n      swap2\n      pop\n      pop\n      0x01\n      swap1\n      sub\n      swap1\n      0x00\n      mstore\n      keccak256(0x00, 0x20)\n      add\n      0x00\n      swap1\n      swap2\n      swap1\n      swap2\n      swap1\n      swap2\n      0x0100\n      exp\n      dup2\n      sload\n      dup2\n      0xffffffffffffffffffffffffffffffffffffffff\n      mul\n      not\n      and\n      swap1\n      dup4\n      0xffffffffffffffffffffffffffffffffffffffff\n      and\n      mul\n      or\n      swap1\n      sstore\n      pop\n        /* \"Documents/GitHub/contract-token-cryptoMonster/backend/components/PhasePrivate.sol\":256:738  function application(string memory _name, string memory _contactForCommunication, address _userAdr) public {\r... */\n      pop\n      pop\n      pop\n      jump\t// out\n        /* \"Documents/GitHub/contract-token-cryptoMonster/backend/shared/helpers/getFuncs.sol\":144:282  function get_keccak256(string memory _hash) public pure returns(bytes32) {\r... */\n    tag_18:\n        /* \"Documents/GitHub/contract-token-cryptoMonster/backend/shared/helpers/getFuncs.sol\":208:215  bytes32 */\n      0x00\n        /* \"Documents/GitHub/contract-token-cryptoMonster/backend/shared/helpers/getFuncs.sol\":266:271  _hash */\n      dup2\n        /* \"Documents/GitHub/contract-token-cryptoMonster/backend/shared/helpers/getFuncs.sol\":249:272  abi.encodePacked(_hash) */\n      add(0x20, mload(0x40))\n      tag_53\n      swap2\n      swap1\n      tag_54\n      jump\t// in\n    tag_53:\n      mload(0x40)\n      0x20\n      dup2\n      dup4\n      sub\n      sub\n      dup2\n      mstore\n      swap1\n      0x40\n      mstore\n        /* \"Documents/GitHub/contract-token-cryptoMonster/backend/shared/helpers/getFuncs.sol\":239:273  keccak256(abi.encodePacked(_hash)) */\n      dup1\n      mload\n      swap1\n      0x20\n      add\n      keccak256\n        /* \"Documents/GitHub/contract-token-cryptoMonster/backend/shared/helpers/getFuncs.sol\":232:274  return(keccak256(abi.encodePacked(_hash))) */\n      swap1\n      pop\n        /* \"Documents/GitHub/contract-token-cryptoMonster/backend/shared/helpers/getFuncs.sol\":144:282  function get_keccak256(string memory _hash) public pure returns(bytes32) {\r... */\n      swap2\n      swap1\n      pop\n      jump\t// out\n        /* \"Documents/GitHub/contract-token-cryptoMonster/backend/components/PhasePrivate.sol\":1169:1341  function acceptApplication (bool _changeStatus) public {\r... */\n    tag_24:\n        /* \"Documents/GitHub/contract-token-cryptoMonster/backend/components/PhasePrivate.sol\":1276:1295  Role.SYSTEM_PRIVATE */\n      0x02\n        /* \"Documents/GitHub/contract-token-cryptoMonster/backend/components/PhasePrivate.sol\":1243:1295  structUsers_[msg.sender].role == Role.SYSTEM_PRIVATE */\n      0x04\n      dup2\n      gt\n      iszero\n      tag_56\n      jumpi\n      tag_57\n      tag_28\n      jump\t// in\n    tag_57:\n    tag_56:\n        /* \"Documents/GitHub/contract-token-cryptoMonster/backend/components/PhasePrivate.sol\":1243:1255  structUsers_ */\n      0x00\n        /* \"Documents/GitHub/contract-token-cryptoMonster/backend/components/PhasePrivate.sol\":1243:1267  structUsers_[msg.sender] */\n      dup1\n        /* \"Documents/GitHub/contract-token-cryptoMonster/backend/components/PhasePrivate.sol\":1256:1266  msg.sender */\n      caller\n        /* \"Documents/GitHub/contract-token-cryptoMonster/backend/components/PhasePrivate.sol\":1243:1267  structUsers_[msg.sender] */\n      0xffffffffffffffffffffffffffffffffffffffff\n      and\n      0xffffffffffffffffffffffffffffffffffffffff\n      and\n      dup2\n      mstore\n      0x20\n      add\n      swap1\n      dup2\n      mstore\n      0x20\n      add\n      0x00\n      keccak256\n        /* \"Documents/GitHub/contract-token-cryptoMonster/backend/components/PhasePrivate.sol\":1243:1272  structUsers_[msg.sender].role */\n      0x00\n      add\n      0x00\n      swap1\n      sload\n      swap1\n      0x0100\n      exp\n      swap1\n      div\n      0xff\n      and\n        /* \"Documents/GitHub/contract-token-cryptoMonster/backend/components/PhasePrivate.sol\":1243:1295  structUsers_[msg.sender].role == Role.SYSTEM_PRIVATE */\n      0x04\n      dup2\n      gt\n      iszero\n      tag_58\n      jumpi\n      tag_59\n      tag_28\n      jump\t// in\n    tag_59:\n    tag_58:\n      eq\n        /* \"Documents/GitHub/contract-token-cryptoMonster/backend/components/PhasePrivate.sol\":1235:1331  require(structUsers_[msg.sender].role == Role.SYSTEM_PRIVATE, \"You are not a private provider!\") */\n      tag_60\n      jumpi\n      mload(0x40)\n      0x08c379a000000000000000000000000000000000000000000000000000000000\n      dup2\n      mstore\n      0x04\n      add\n      tag_61\n      swap1\n      tag_41\n      jump\t// in\n    tag_61:\n      mload(0x40)\n      dup1\n      swap2\n      sub\n      swap1\n      revert\n    tag_60:\n        /* \"Documents/GitHub/contract-token-cryptoMonster/backend/components/PhasePrivate.sol\":1169:1341  function acceptApplication (bool _changeStatus) public {\r... */\n      pop\n      jump\t// out\n    tag_49:\n      dup3\n      dup1\n      sload\n      tag_62\n      swap1\n      tag_63\n      jump\t// in\n    tag_62:\n      swap1\n      0x00\n      mstore\n      keccak256(0x00, 0x20)\n      swap1\n      0x1f\n      add\n      0x20\n      swap1\n      div\n      dup2\n      add\n      swap3\n      dup3\n      tag_65\n      jumpi\n      0x00\n      dup6\n      sstore\n      jump(tag_64)\n    tag_65:\n      dup3\n      0x1f\n      lt\n      tag_66\n      jumpi\n      dup1\n      mload\n      not(0xff)\n      and\n      dup4\n      dup1\n      add\n      or\n      dup6\n      sstore\n      jump(tag_64)\n    tag_66:\n      dup3\n      dup1\n      add\n      0x01\n      add\n      dup6\n      sstore\n      dup3\n      iszero\n      tag_64\n      jumpi\n      swap2\n      dup3\n      add\n    tag_67:\n      dup3\n      dup2\n      gt\n      iszero\n      tag_68\n      jumpi\n      dup3\n      mload\n      dup3\n      sstore\n      swap2\n      0x20\n      add\n      swap2\n      swap1\n      0x01\n      add\n      swap1\n      jump(tag_67)\n    tag_68:\n    tag_64:\n      pop\n      swap1\n      pop\n      tag_69\n      swap2\n      swap1\n      tag_70\n      jump\t// in\n    tag_69:\n      pop\n      swap1\n      jump\t// out\n    tag_70:\n    tag_71:\n      dup1\n      dup3\n      gt\n      iszero\n      tag_72\n      jumpi\n      0x00\n      dup2\n      0x00\n      swap1\n      sstore\n      pop\n      0x01\n      add\n      jump(tag_71)\n    tag_72:\n      pop\n      swap1\n      jump\t// out\n        /* \"#utility.yul\":7:419   */\n    tag_74:\n        /* \"#utility.yul\":85:90   */\n      0x00\n        /* \"#utility.yul\":110:176   */\n      tag_76\n        /* \"#utility.yul\":126:175   */\n      tag_77\n        /* \"#utility.yul\":168:174   */\n      dup5\n        /* \"#utility.yul\":126:175   */\n      tag_78\n      jump\t// in\n    tag_77:\n        /* \"#utility.yul\":110:176   */\n      tag_79\n      jump\t// in\n    tag_76:\n        /* \"#utility.yul\":101:176   */\n      swap1\n      pop\n        /* \"#utility.yul\":199:205   */\n      dup3\n        /* \"#utility.yul\":192:197   */\n      dup2\n        /* \"#utility.yul\":185:206   */\n      mstore\n        /* \"#utility.yul\":237:241   */\n      0x20\n        /* \"#utility.yul\":230:235   */\n      dup2\n        /* \"#utility.yul\":226:242   */\n      add\n        /* \"#utility.yul\":275:278   */\n      dup5\n        /* \"#utility.yul\":266:272   */\n      dup5\n        /* \"#utility.yul\":261:264   */\n      dup5\n        /* \"#utility.yul\":257:273   */\n      add\n        /* \"#utility.yul\":254:279   */\n      gt\n        /* \"#utility.yul\":251:363   */\n      iszero\n      tag_80\n      jumpi\n        /* \"#utility.yul\":282:361   */\n      tag_81\n      tag_82\n      jump\t// in\n    tag_81:\n        /* \"#utility.yul\":251:363   */\n    tag_80:\n        /* \"#utility.yul\":372:413   */\n      tag_83\n        /* \"#utility.yul\":406:412   */\n      dup5\n        /* \"#utility.yul\":401:404   */\n      dup3\n        /* \"#utility.yul\":396:399   */\n      dup6\n        /* \"#utility.yul\":372:413   */\n      tag_84\n      jump\t// in\n    tag_83:\n        /* \"#utility.yul\":91:419   */\n      pop\n        /* \"#utility.yul\":7:419   */\n      swap4\n      swap3\n      pop\n      pop\n      pop\n      jump\t// out\n        /* \"#utility.yul\":425:564   */\n    tag_85:\n        /* \"#utility.yul\":471:476   */\n      0x00\n        /* \"#utility.yul\":509:515   */\n      dup2\n        /* \"#utility.yul\":496:516   */\n      calldataload\n        /* \"#utility.yul\":487:516   */\n      swap1\n      pop\n        /* \"#utility.yul\":525:558   */\n      tag_87\n        /* \"#utility.yul\":552:557   */\n      dup2\n        /* \"#utility.yul\":525:558   */\n      tag_88\n      jump\t// in\n    tag_87:\n        /* \"#utility.yul\":425:564   */\n      swap3\n      swap2\n      pop\n      pop\n      jump\t// out\n        /* \"#utility.yul\":570:703   */\n    tag_89:\n        /* \"#utility.yul\":613:618   */\n      0x00\n        /* \"#utility.yul\":651:657   */\n      dup2\n        /* \"#utility.yul\":638:658   */\n      calldataload\n        /* \"#utility.yul\":629:658   */\n      swap1\n      pop\n        /* \"#utility.yul\":667:697   */\n      tag_91\n        /* \"#utility.yul\":691:696   */\n      dup2\n        /* \"#utility.yul\":667:697   */\n      tag_92\n      jump\t// in\n    tag_91:\n        /* \"#utility.yul\":570:703   */\n      swap3\n      swap2\n      pop\n      pop\n      jump\t// out\n        /* \"#utility.yul\":723:1063   */\n    tag_93:\n        /* \"#utility.yul\":779:784   */\n      0x00\n        /* \"#utility.yul\":828:831   */\n      dup3\n        /* \"#utility.yul\":821:825   */\n      0x1f\n        /* \"#utility.yul\":813:819   */\n      dup4\n        /* \"#utility.yul\":809:826   */\n      add\n        /* \"#utility.yul\":805:832   */\n      slt\n        /* \"#utility.yul\":795:917   */\n      tag_95\n      jumpi\n        /* \"#utility.yul\":836:915   */\n      tag_96\n      tag_97\n      jump\t// in\n    tag_96:\n        /* \"#utility.yul\":795:917   */\n    tag_95:\n        /* \"#utility.yul\":953:959   */\n      dup2\n        /* \"#utility.yul\":940:960   */\n      calldataload\n        /* \"#utility.yul\":978:1057   */\n      tag_98\n        /* \"#utility.yul\":1053:1056   */\n      dup5\n        /* \"#utility.yul\":1045:1051   */\n      dup3\n        /* \"#utility.yul\":1038:1042   */\n      0x20\n        /* \"#utility.yul\":1030:1036   */\n      dup7\n        /* \"#utility.yul\":1026:1043   */\n      add\n        /* \"#utility.yul\":978:1057   */\n      tag_74\n      jump\t// in\n    tag_98:\n        /* \"#utility.yul\":969:1057   */\n      swap2\n      pop\n        /* \"#utility.yul\":785:1063   */\n      pop\n        /* \"#utility.yul\":723:1063   */\n      swap3\n      swap2\n      pop\n      pop\n      jump\t// out\n        /* \"#utility.yul\":1069:1392   */\n    tag_23:\n        /* \"#utility.yul\":1125:1131   */\n      0x00\n        /* \"#utility.yul\":1174:1176   */\n      0x20\n        /* \"#utility.yul\":1162:1171   */\n      dup3\n        /* \"#utility.yul\":1153:1160   */\n      dup5\n        /* \"#utility.yul\":1149:1172   */\n      sub\n        /* \"#utility.yul\":1145:1177   */\n      slt\n        /* \"#utility.yul\":1142:1261   */\n      iszero\n      tag_100\n      jumpi\n        /* \"#utility.yul\":1180:1259   */\n      tag_101\n      tag_102\n      jump\t// in\n    tag_101:\n        /* \"#utility.yul\":1142:1261   */\n    tag_100:\n        /* \"#utility.yul\":1300:1301   */\n      0x00\n        /* \"#utility.yul\":1325:1375   */\n      tag_103\n        /* \"#utility.yul\":1367:1374   */\n      dup5\n        /* \"#utility.yul\":1358:1364   */\n      dup3\n        /* \"#utility.yul\":1347:1356   */\n      dup6\n        /* \"#utility.yul\":1343:1365   */\n      add\n        /* \"#utility.yul\":1325:1375   */\n      tag_89\n      jump\t// in\n    tag_103:\n        /* \"#utility.yul\":1315:1375   */\n      swap2\n      pop\n        /* \"#utility.yul\":1271:1385   */\n      pop\n        /* \"#utility.yul\":1069:1392   */\n      swap3\n      swap2\n      pop\n      pop\n      jump\t// out\n        /* \"#utility.yul\":1398:1907   */\n    tag_17:\n        /* \"#utility.yul\":1467:1473   */\n      0x00\n        /* \"#utility.yul\":1516:1518   */\n      0x20\n        /* \"#utility.yul\":1504:1513   */\n      dup3\n        /* \"#utility.yul\":1495:1502   */\n      dup5\n        /* \"#utility.yul\":1491:1514   */\n      sub\n        /* \"#utility.yul\":1487:1519   */\n      slt\n        /* \"#utility.yul\":1484:1603   */\n      iszero\n      tag_105\n      jumpi\n        /* \"#utility.yul\":1522:1601   */\n      tag_106\n      tag_102\n      jump\t// in\n    tag_106:\n        /* \"#utility.yul\":1484:1603   */\n    tag_105:\n        /* \"#utility.yul\":1670:1671   */\n      0x00\n        /* \"#utility.yul\":1659:1668   */\n      dup3\n        /* \"#utility.yul\":1655:1672   */\n      add\n        /* \"#utility.yul\":1642:1673   */\n      calldataload\n        /* \"#utility.yul\":1700:1718   */\n      0xffffffffffffffff\n        /* \"#utility.yul\":1692:1698   */\n      dup2\n        /* \"#utility.yul\":1689:1719   */\n      gt\n        /* \"#utility.yul\":1686:1803   */\n      iszero\n      tag_107\n      jumpi\n        /* \"#utility.yul\":1722:1801   */\n      tag_108\n      tag_109\n      jump\t// in\n    tag_108:\n        /* \"#utility.yul\":1686:1803   */\n    tag_107:\n        /* \"#utility.yul\":1827:1890   */\n      tag_110\n        /* \"#utility.yul\":1882:1889   */\n      dup5\n        /* \"#utility.yul\":1873:1879   */\n      dup3\n        /* \"#utility.yul\":1862:1871   */\n      dup6\n        /* \"#utility.yul\":1858:1880   */\n      add\n        /* \"#utility.yul\":1827:1890   */\n      tag_93\n      jump\t// in\n    tag_110:\n        /* \"#utility.yul\":1817:1890   */\n      swap2\n      pop\n        /* \"#utility.yul\":1613:1900   */\n      pop\n        /* \"#utility.yul\":1398:1907   */\n      swap3\n      swap2\n      pop\n      pop\n      jump\t// out\n        /* \"#utility.yul\":1913:2892   */\n    tag_13:\n        /* \"#utility.yul\":2010:2016   */\n      0x00\n        /* \"#utility.yul\":2018:2024   */\n      dup1\n        /* \"#utility.yul\":2026:2032   */\n      0x00\n        /* \"#utility.yul\":2075:2077   */\n      0x60\n        /* \"#utility.yul\":2063:2072   */\n      dup5\n        /* \"#utility.yul\":2054:2061   */\n      dup7\n        /* \"#utility.yul\":2050:2073   */\n      sub\n        /* \"#utility.yul\":2046:2078   */\n      slt\n        /* \"#utility.yul\":2043:2162   */\n      iszero\n      tag_112\n      jumpi\n        /* \"#utility.yul\":2081:2160   */\n      tag_113\n      tag_102\n      jump\t// in\n    tag_113:\n        /* \"#utility.yul\":2043:2162   */\n    tag_112:\n        /* \"#utility.yul\":2229:2230   */\n      0x00\n        /* \"#utility.yul\":2218:2227   */\n      dup5\n        /* \"#utility.yul\":2214:2231   */\n      add\n        /* \"#utility.yul\":2201:2232   */\n      calldataload\n        /* \"#utility.yul\":2259:2277   */\n      0xffffffffffffffff\n        /* \"#utility.yul\":2251:2257   */\n      dup2\n        /* \"#utility.yul\":2248:2278   */\n      gt\n        /* \"#utility.yul\":2245:2362   */\n      iszero\n      tag_114\n      jumpi\n        /* \"#utility.yul\":2281:2360   */\n      tag_115\n      tag_109\n      jump\t// in\n    tag_115:\n        /* \"#utility.yul\":2245:2362   */\n    tag_114:\n        /* \"#utility.yul\":2386:2449   */\n      tag_116\n        /* \"#utility.yul\":2441:2448   */\n      dup7\n        /* \"#utility.yul\":2432:2438   */\n      dup3\n        /* \"#utility.yul\":2421:2430   */\n      dup8\n        /* \"#utility.yul\":2417:2439   */\n      add\n        /* \"#utility.yul\":2386:2449   */\n      tag_93\n      jump\t// in\n    tag_116:\n        /* \"#utility.yul\":2376:2449   */\n      swap4\n      pop\n        /* \"#utility.yul\":2172:2459   */\n      pop\n        /* \"#utility.yul\":2526:2528   */\n      0x20\n        /* \"#utility.yul\":2515:2524   */\n      dup5\n        /* \"#utility.yul\":2511:2529   */\n      add\n        /* \"#utility.yul\":2498:2530   */\n      calldataload\n        /* \"#utility.yul\":2557:2575   */\n      0xffffffffffffffff\n        /* \"#utility.yul\":2549:2555   */\n      dup2\n        /* \"#utility.yul\":2546:2576   */\n      gt\n        /* \"#utility.yul\":2543:2660   */\n      iszero\n      tag_117\n      jumpi\n        /* \"#utility.yul\":2579:2658   */\n      tag_118\n      tag_109\n      jump\t// in\n    tag_118:\n        /* \"#utility.yul\":2543:2660   */\n    tag_117:\n        /* \"#utility.yul\":2684:2747   */\n      tag_119\n        /* \"#utility.yul\":2739:2746   */\n      dup7\n        /* \"#utility.yul\":2730:2736   */\n      dup3\n        /* \"#utility.yul\":2719:2728   */\n      dup8\n        /* \"#utility.yul\":2715:2737   */\n      add\n        /* \"#utility.yul\":2684:2747   */\n      tag_93\n      jump\t// in\n    tag_119:\n        /* \"#utility.yul\":2674:2747   */\n      swap3\n      pop\n        /* \"#utility.yul\":2469:2757   */\n      pop\n        /* \"#utility.yul\":2796:2798   */\n      0x40\n        /* \"#utility.yul\":2822:2875   */\n      tag_120\n        /* \"#utility.yul\":2867:2874   */\n      dup7\n        /* \"#utility.yul\":2858:2864   */\n      dup3\n        /* \"#utility.yul\":2847:2856   */\n      dup8\n        /* \"#utility.yul\":2843:2865   */\n      add\n        /* \"#utility.yul\":2822:2875   */\n      tag_85\n      jump\t// in\n    tag_120:\n        /* \"#utility.yul\":2812:2875   */\n      swap2\n      pop\n        /* \"#utility.yul\":2767:2885   */\n      pop\n        /* \"#utility.yul\":1913:2892   */\n      swap3\n      pop\n      swap3\n      pop\n      swap3\n      jump\t// out\n        /* \"#utility.yul\":2898:3077   */\n    tag_121:\n        /* \"#utility.yul\":2967:2977   */\n      0x00\n        /* \"#utility.yul\":2988:3034   */\n      tag_123\n        /* \"#utility.yul\":3030:3033   */\n      dup4\n        /* \"#utility.yul\":3022:3028   */\n      dup4\n        /* \"#utility.yul\":2988:3034   */\n      tag_124\n      jump\t// in\n    tag_123:\n        /* \"#utility.yul\":3066:3070   */\n      0x20\n        /* \"#utility.yul\":3061:3064   */\n      dup4\n        /* \"#utility.yul\":3057:3071   */\n      add\n        /* \"#utility.yul\":3043:3071   */\n      swap1\n      pop\n        /* \"#utility.yul\":2898:3077   */\n      swap3\n      swap2\n      pop\n      pop\n      jump\t// out\n        /* \"#utility.yul\":3083:3191   */\n    tag_124:\n        /* \"#utility.yul\":3160:3184   */\n      tag_126\n        /* \"#utility.yul\":3178:3183   */\n      dup2\n        /* \"#utility.yul\":3160:3184   */\n      tag_127\n      jump\t// in\n    tag_126:\n        /* \"#utility.yul\":3155:3158   */\n      dup3\n        /* \"#utility.yul\":3148:3185   */\n      mstore\n        /* \"#utility.yul\":3083:3191   */\n      pop\n      pop\n      jump\t// out\n        /* \"#utility.yul\":3227:3959   */\n    tag_128:\n        /* \"#utility.yul\":3346:3349   */\n      0x00\n        /* \"#utility.yul\":3375:3429   */\n      tag_130\n        /* \"#utility.yul\":3423:3428   */\n      dup3\n        /* \"#utility.yul\":3375:3429   */\n      tag_131\n      jump\t// in\n    tag_130:\n        /* \"#utility.yul\":3445:3531   */\n      tag_132\n        /* \"#utility.yul\":3524:3530   */\n      dup2\n        /* \"#utility.yul\":3519:3522   */\n      dup6\n        /* \"#utility.yul\":3445:3531   */\n      tag_133\n      jump\t// in\n    tag_132:\n        /* \"#utility.yul\":3438:3531   */\n      swap4\n      pop\n        /* \"#utility.yul\":3555:3611   */\n      tag_134\n        /* \"#utility.yul\":3605:3610   */\n      dup4\n        /* \"#utility.yul\":3555:3611   */\n      tag_135\n      jump\t// in\n    tag_134:\n        /* \"#utility.yul\":3634:3641   */\n      dup1\n        /* \"#utility.yul\":3665:3666   */\n      0x00\n        /* \"#utility.yul\":3650:3934   */\n    tag_136:\n        /* \"#utility.yul\":3675:3681   */\n      dup4\n        /* \"#utility.yul\":3672:3673   */\n      dup2\n        /* \"#utility.yul\":3669:3682   */\n      lt\n        /* \"#utility.yul\":3650:3934   */\n      iszero\n      tag_138\n      jumpi\n        /* \"#utility.yul\":3751:3757   */\n      dup2\n        /* \"#utility.yul\":3745:3758   */\n      mload\n        /* \"#utility.yul\":3778:3841   */\n      tag_139\n        /* \"#utility.yul\":3837:3840   */\n      dup9\n        /* \"#utility.yul\":3822:3835   */\n      dup3\n        /* \"#utility.yul\":3778:3841   */\n      tag_121\n      jump\t// in\n    tag_139:\n        /* \"#utility.yul\":3771:3841   */\n      swap8\n      pop\n        /* \"#utility.yul\":3864:3924   */\n      tag_140\n        /* \"#utility.yul\":3917:3923   */\n      dup4\n        /* \"#utility.yul\":3864:3924   */\n      tag_141\n      jump\t// in\n    tag_140:\n        /* \"#utility.yul\":3854:3924   */\n      swap3\n      pop\n        /* \"#utility.yul\":3710:3934   */\n      pop\n        /* \"#utility.yul\":3697:3698   */\n      0x01\n        /* \"#utility.yul\":3694:3695   */\n      dup2\n        /* \"#utility.yul\":3690:3699   */\n      add\n        /* \"#utility.yul\":3685:3699   */\n      swap1\n      pop\n        /* \"#utility.yul\":3650:3934   */\n      jump(tag_136)\n    tag_138:\n        /* \"#utility.yul\":3654:3668   */\n      pop\n        /* \"#utility.yul\":3950:3953   */\n      dup6\n        /* \"#utility.yul\":3943:3953   */\n      swap4\n      pop\n        /* \"#utility.yul\":3351:3959   */\n      pop\n      pop\n      pop\n        /* \"#utility.yul\":3227:3959   */\n      swap3\n      swap2\n      pop\n      pop\n      jump\t// out\n        /* \"#utility.yul\":3965:4083   */\n    tag_142:\n        /* \"#utility.yul\":4052:4076   */\n      tag_144\n        /* \"#utility.yul\":4070:4075   */\n      dup2\n        /* \"#utility.yul\":4052:4076   */\n      tag_145\n      jump\t// in\n    tag_144:\n        /* \"#utility.yul\":4047:4050   */\n      dup3\n        /* \"#utility.yul\":4040:4077   */\n      mstore\n        /* \"#utility.yul\":3965:4083   */\n      pop\n      pop\n      jump\t// out\n        /* \"#utility.yul\":4089:4466   */\n    tag_146:\n        /* \"#utility.yul\":4195:4198   */\n      0x00\n        /* \"#utility.yul\":4223:4262   */\n      tag_148\n        /* \"#utility.yul\":4256:4261   */\n      dup3\n        /* \"#utility.yul\":4223:4262   */\n      tag_149\n      jump\t// in\n    tag_148:\n        /* \"#utility.yul\":4278:4367   */\n      tag_150\n        /* \"#utility.yul\":4360:4366   */\n      dup2\n        /* \"#utility.yul\":4355:4358   */\n      dup6\n        /* \"#utility.yul\":4278:4367   */\n      tag_151\n      jump\t// in\n    tag_150:\n        /* \"#utility.yul\":4271:4367   */\n      swap4\n      pop\n        /* \"#utility.yul\":4376:4428   */\n      tag_152\n        /* \"#utility.yul\":4421:4427   */\n      dup2\n        /* \"#utility.yul\":4416:4419   */\n      dup6\n        /* \"#utility.yul\":4409:4413   */\n      0x20\n        /* \"#utility.yul\":4402:4407   */\n      dup7\n        /* \"#utility.yul\":4398:4414   */\n      add\n        /* \"#utility.yul\":4376:4428   */\n      tag_153\n      jump\t// in\n    tag_152:\n        /* \"#utility.yul\":4453:4459   */\n      dup1\n        /* \"#utility.yul\":4448:4451   */\n      dup5\n        /* \"#utility.yul\":4444:4460   */\n      add\n        /* \"#utility.yul\":4437:4460   */\n      swap2\n      pop\n        /* \"#utility.yul\":4199:4466   */\n      pop\n        /* \"#utility.yul\":4089:4466   */\n      swap3\n      swap2\n      pop\n      pop\n      jump\t// out\n        /* \"#utility.yul\":4472:4838   */\n    tag_154:\n        /* \"#utility.yul\":4614:4617   */\n      0x00\n        /* \"#utility.yul\":4635:4702   */\n      tag_156\n        /* \"#utility.yul\":4699:4701   */\n      0x1f\n        /* \"#utility.yul\":4694:4697   */\n      dup4\n        /* \"#utility.yul\":4635:4702   */\n      tag_157\n      jump\t// in\n    tag_156:\n        /* \"#utility.yul\":4628:4702   */\n      swap2\n      pop\n        /* \"#utility.yul\":4711:4804   */\n      tag_158\n        /* \"#utility.yul\":4800:4803   */\n      dup3\n        /* \"#utility.yul\":4711:4804   */\n      tag_159\n      jump\t// in\n    tag_158:\n        /* \"#utility.yul\":4829:4831   */\n      0x20\n        /* \"#utility.yul\":4824:4827   */\n      dup3\n        /* \"#utility.yul\":4820:4832   */\n      add\n        /* \"#utility.yul\":4813:4832   */\n      swap1\n      pop\n        /* \"#utility.yul\":4472:4838   */\n      swap2\n      swap1\n      pop\n      jump\t// out\n        /* \"#utility.yul\":4844:5210   */\n    tag_160:\n        /* \"#utility.yul\":4986:4989   */\n      0x00\n        /* \"#utility.yul\":5007:5074   */\n      tag_162\n        /* \"#utility.yul\":5071:5073   */\n      0x19\n        /* \"#utility.yul\":5066:5069   */\n      dup4\n        /* \"#utility.yul\":5007:5074   */\n      tag_157\n      jump\t// in\n    tag_162:\n        /* \"#utility.yul\":5000:5074   */\n      swap2\n      pop\n        /* \"#utility.yul\":5083:5176   */\n      tag_163\n        /* \"#utility.yul\":5172:5175   */\n      dup3\n        /* \"#utility.yul\":5083:5176   */\n      tag_164\n      jump\t// in\n    tag_163:\n        /* \"#utility.yul\":5201:5203   */\n      0x20\n        /* \"#utility.yul\":5196:5199   */\n      dup3\n        /* \"#utility.yul\":5192:5204   */\n      add\n        /* \"#utility.yul\":5185:5204   */\n      swap1\n      pop\n        /* \"#utility.yul\":4844:5210   */\n      swap2\n      swap1\n      pop\n      jump\t// out\n        /* \"#utility.yul\":5216:5582   */\n    tag_165:\n        /* \"#utility.yul\":5358:5361   */\n      0x00\n        /* \"#utility.yul\":5379:5446   */\n      tag_167\n        /* \"#utility.yul\":5443:5445   */\n      0x0e\n        /* \"#utility.yul\":5438:5441   */\n      dup4\n        /* \"#utility.yul\":5379:5446   */\n      tag_157\n      jump\t// in\n    tag_167:\n        /* \"#utility.yul\":5372:5446   */\n      swap2\n      pop\n        /* \"#utility.yul\":5455:5548   */\n      tag_168\n        /* \"#utility.yul\":5544:5547   */\n      dup3\n        /* \"#utility.yul\":5455:5548   */\n      tag_169\n      jump\t// in\n    tag_168:\n        /* \"#utility.yul\":5573:5575   */\n      0x20\n        /* \"#utility.yul\":5568:5571   */\n      dup3\n        /* \"#utility.yul\":5564:5576   */\n      add\n        /* \"#utility.yul\":5557:5576   */\n      swap1\n      pop\n        /* \"#utility.yul\":5216:5582   */\n      swap2\n      swap1\n      pop\n      jump\t// out\n        /* \"#utility.yul\":5588:5863   */\n    tag_54:\n        /* \"#utility.yul\":5720:5723   */\n      0x00\n        /* \"#utility.yul\":5742:5837   */\n      tag_171\n        /* \"#utility.yul\":5833:5836   */\n      dup3\n        /* \"#utility.yul\":5824:5830   */\n      dup5\n        /* \"#utility.yul\":5742:5837   */\n      tag_146\n      jump\t// in\n    tag_171:\n        /* \"#utility.yul\":5735:5837   */\n      swap2\n      pop\n        /* \"#utility.yul\":5854:5857   */\n      dup2\n        /* \"#utility.yul\":5847:5857   */\n      swap1\n      pop\n        /* \"#utility.yul\":5588:5863   */\n      swap3\n      swap2\n      pop\n      pop\n      jump\t// out\n        /* \"#utility.yul\":5869:6242   */\n    tag_10:\n        /* \"#utility.yul\":6012:6016   */\n      0x00\n        /* \"#utility.yul\":6050:6052   */\n      0x20\n        /* \"#utility.yul\":6039:6048   */\n      dup3\n        /* \"#utility.yul\":6035:6053   */\n      add\n        /* \"#utility.yul\":6027:6053   */\n      swap1\n      pop\n        /* \"#utility.yul\":6099:6108   */\n      dup2\n        /* \"#utility.yul\":6093:6097   */\n      dup2\n        /* \"#utility.yul\":6089:6109   */\n      sub\n        /* \"#utility.yul\":6085:6086   */\n      0x00\n        /* \"#utility.yul\":6074:6083   */\n      dup4\n        /* \"#utility.yul\":6070:6087   */\n      add\n        /* \"#utility.yul\":6063:6110   */\n      mstore\n        /* \"#utility.yul\":6127:6235   */\n      tag_173\n        /* \"#utility.yul\":6230:6234   */\n      dup2\n        /* \"#utility.yul\":6221:6227   */\n      dup5\n        /* \"#utility.yul\":6127:6235   */\n      tag_128\n      jump\t// in\n    tag_173:\n        /* \"#utility.yul\":6119:6235   */\n      swap1\n      pop\n        /* \"#utility.yul\":5869:6242   */\n      swap3\n      swap2\n      pop\n      pop\n      jump\t// out\n        /* \"#utility.yul\":6248:6470   */\n    tag_20:\n        /* \"#utility.yul\":6341:6345   */\n      0x00\n        /* \"#utility.yul\":6379:6381   */\n      0x20\n        /* \"#utility.yul\":6368:6377   */\n      dup3\n        /* \"#utility.yul\":6364:6382   */\n      add\n        /* \"#utility.yul\":6356:6382   */\n      swap1\n      pop\n        /* \"#utility.yul\":6392:6463   */\n      tag_175\n        /* \"#utility.yul\":6460:6461   */\n      0x00\n        /* \"#utility.yul\":6449:6458   */\n      dup4\n        /* \"#utility.yul\":6445:6462   */\n      add\n        /* \"#utility.yul\":6436:6442   */\n      dup5\n        /* \"#utility.yul\":6392:6463   */\n      tag_142\n      jump\t// in\n    tag_175:\n        /* \"#utility.yul\":6248:6470   */\n      swap3\n      swap2\n      pop\n      pop\n      jump\t// out\n        /* \"#utility.yul\":6476:6895   */\n    tag_41:\n        /* \"#utility.yul\":6642:6646   */\n      0x00\n        /* \"#utility.yul\":6680:6682   */\n      0x20\n        /* \"#utility.yul\":6669:6678   */\n      dup3\n        /* \"#utility.yul\":6665:6683   */\n      add\n        /* \"#utility.yul\":6657:6683   */\n      swap1\n      pop\n        /* \"#utility.yul\":6729:6738   */\n      dup2\n        /* \"#utility.yul\":6723:6727   */\n      dup2\n        /* \"#utility.yul\":6719:6739   */\n      sub\n        /* \"#utility.yul\":6715:6716   */\n      0x00\n        /* \"#utility.yul\":6704:6713   */\n      dup4\n        /* \"#utility.yul\":6700:6717   */\n      add\n        /* \"#utility.yul\":6693:6740   */\n      mstore\n        /* \"#utility.yul\":6757:6888   */\n      tag_177\n        /* \"#utility.yul\":6883:6887   */\n      dup2\n        /* \"#utility.yul\":6757:6888   */\n      tag_154\n      jump\t// in\n    tag_177:\n        /* \"#utility.yul\":6749:6888   */\n      swap1\n      pop\n        /* \"#utility.yul\":6476:6895   */\n      swap2\n      swap1\n      pop\n      jump\t// out\n        /* \"#utility.yul\":6901:7320   */\n    tag_47:\n        /* \"#utility.yul\":7067:7071   */\n      0x00\n        /* \"#utility.yul\":7105:7107   */\n      0x20\n        /* \"#utility.yul\":7094:7103   */\n      dup3\n        /* \"#utility.yul\":7090:7108   */\n      add\n        /* \"#utility.yul\":7082:7108   */\n      swap1\n      pop\n        /* \"#utility.yul\":7154:7163   */\n      dup2\n        /* \"#utility.yul\":7148:7152   */\n      dup2\n        /* \"#utility.yul\":7144:7164   */\n      sub\n        /* \"#utility.yul\":7140:7141   */\n      0x00\n        /* \"#utility.yul\":7129:7138   */\n      dup4\n        /* \"#utility.yul\":7125:7142   */\n      add\n        /* \"#utility.yul\":7118:7165   */\n      mstore\n        /* \"#utility.yul\":7182:7313   */\n      tag_179\n        /* \"#utility.yul\":7308:7312   */\n      dup2\n        /* \"#utility.yul\":7182:7313   */\n      tag_160\n      jump\t// in\n    tag_179:\n        /* \"#utility.yul\":7174:7313   */\n      swap1\n      pop\n        /* \"#utility.yul\":6901:7320   */\n      swap2\n      swap1\n      pop\n      jump\t// out\n        /* \"#utility.yul\":7326:7745   */\n    tag_33:\n        /* \"#utility.yul\":7492:7496   */\n      0x00\n        /* \"#utility.yul\":7530:7532   */\n      0x20\n        /* \"#utility.yul\":7519:7528   */\n      dup3\n        /* \"#utility.yul\":7515:7533   */\n      add\n        /* \"#utility.yul\":7507:7533   */\n      swap1\n      pop\n        /* \"#utility.yul\":7579:7588   */\n      dup2\n        /* \"#utility.yul\":7573:7577   */\n      dup2\n        /* \"#utility.yul\":7569:7589   */\n      sub\n        /* \"#utility.yul\":7565:7566   */\n      0x00\n        /* \"#utility.yul\":7554:7563   */\n      dup4\n        /* \"#utility.yul\":7550:7567   */\n      add\n        /* \"#utility.yul\":7543:7590   */\n      mstore\n        /* \"#utility.yul\":7607:7738   */\n      tag_181\n        /* \"#utility.yul\":7733:7737   */\n      dup2\n        /* \"#utility.yul\":7607:7738   */\n      tag_165\n      jump\t// in\n    tag_181:\n        /* \"#utility.yul\":7599:7738   */\n      swap1\n      pop\n        /* \"#utility.yul\":7326:7745   */\n      swap2\n      swap1\n      pop\n      jump\t// out\n        /* \"#utility.yul\":7751:7880   */\n    tag_79:\n        /* \"#utility.yul\":7785:7791   */\n      0x00\n        /* \"#utility.yul\":7812:7832   */\n      tag_183\n      tag_184\n      jump\t// in\n    tag_183:\n        /* \"#utility.yul\":7802:7832   */\n      swap1\n      pop\n        /* \"#utility.yul\":7841:7874   */\n      tag_185\n        /* \"#utility.yul\":7869:7873   */\n      dup3\n        /* \"#utility.yul\":7861:7867   */\n      dup3\n        /* \"#utility.yul\":7841:7874   */\n      tag_186\n      jump\t// in\n    tag_185:\n        /* \"#utility.yul\":7751:7880   */\n      swap2\n      swap1\n      pop\n      jump\t// out\n        /* \"#utility.yul\":7886:7961   */\n    tag_184:\n        /* \"#utility.yul\":7919:7925   */\n      0x00\n        /* \"#utility.yul\":7952:7954   */\n      0x40\n        /* \"#utility.yul\":7946:7955   */\n      mload\n        /* \"#utility.yul\":7936:7955   */\n      swap1\n      pop\n        /* \"#utility.yul\":7886:7961   */\n      swap1\n      jump\t// out\n        /* \"#utility.yul\":7967:8275   */\n    tag_78:\n        /* \"#utility.yul\":8029:8033   */\n      0x00\n        /* \"#utility.yul\":8119:8137   */\n      0xffffffffffffffff\n        /* \"#utility.yul\":8111:8117   */\n      dup3\n        /* \"#utility.yul\":8108:8138   */\n      gt\n        /* \"#utility.yul\":8105:8161   */\n      iszero\n      tag_189\n      jumpi\n        /* \"#utility.yul\":8141:8159   */\n      tag_190\n      tag_191\n      jump\t// in\n    tag_190:\n        /* \"#utility.yul\":8105:8161   */\n    tag_189:\n        /* \"#utility.yul\":8179:8208   */\n      tag_192\n        /* \"#utility.yul\":8201:8207   */\n      dup3\n        /* \"#utility.yul\":8179:8208   */\n      tag_193\n      jump\t// in\n    tag_192:\n        /* \"#utility.yul\":8171:8208   */\n      swap1\n      pop\n        /* \"#utility.yul\":8263:8267   */\n      0x20\n        /* \"#utility.yul\":8257:8261   */\n      dup2\n        /* \"#utility.yul\":8253:8268   */\n      add\n        /* \"#utility.yul\":8245:8268   */\n      swap1\n      pop\n        /* \"#utility.yul\":7967:8275   */\n      swap2\n      swap1\n      pop\n      jump\t// out\n        /* \"#utility.yul\":8281:8413   */\n    tag_135:\n        /* \"#utility.yul\":8348:8352   */\n      0x00\n        /* \"#utility.yul\":8371:8374   */\n      dup2\n        /* \"#utility.yul\":8363:8374   */\n      swap1\n      pop\n        /* \"#utility.yul\":8401:8405   */\n      0x20\n        /* \"#utility.yul\":8396:8399   */\n      dup3\n        /* \"#utility.yul\":8392:8406   */\n      add\n        /* \"#utility.yul\":8384:8406   */\n      swap1\n      pop\n        /* \"#utility.yul\":8281:8413   */\n      swap2\n      swap1\n      pop\n      jump\t// out\n        /* \"#utility.yul\":8419:8533   */\n    tag_131:\n        /* \"#utility.yul\":8486:8492   */\n      0x00\n        /* \"#utility.yul\":8520:8525   */\n      dup2\n        /* \"#utility.yul\":8514:8526   */\n      mload\n        /* \"#utility.yul\":8504:8526   */\n      swap1\n      pop\n        /* \"#utility.yul\":8419:8533   */\n      swap2\n      swap1\n      pop\n      jump\t// out\n        /* \"#utility.yul\":8539:8638   */\n    tag_149:\n        /* \"#utility.yul\":8591:8597   */\n      0x00\n        /* \"#utility.yul\":8625:8630   */\n      dup2\n        /* \"#utility.yul\":8619:8631   */\n      mload\n        /* \"#utility.yul\":8609:8631   */\n      swap1\n      pop\n        /* \"#utility.yul\":8539:8638   */\n      swap2\n      swap1\n      pop\n      jump\t// out\n        /* \"#utility.yul\":8644:8757   */\n    tag_141:\n        /* \"#utility.yul\":8714:8718   */\n      0x00\n        /* \"#utility.yul\":8746:8750   */\n      0x20\n        /* \"#utility.yul\":8741:8744   */\n      dup3\n        /* \"#utility.yul\":8737:8751   */\n      add\n        /* \"#utility.yul\":8729:8751   */\n      swap1\n      pop\n        /* \"#utility.yul\":8644:8757   */\n      swap2\n      swap1\n      pop\n      jump\t// out\n        /* \"#utility.yul\":8763:8947   */\n    tag_133:\n        /* \"#utility.yul\":8862:8873   */\n      0x00\n        /* \"#utility.yul\":8896:8902   */\n      dup3\n        /* \"#utility.yul\":8891:8894   */\n      dup3\n        /* \"#utility.yul\":8884:8903   */\n      mstore\n        /* \"#utility.yul\":8936:8940   */\n      0x20\n        /* \"#utility.yul\":8931:8934   */\n      dup3\n        /* \"#utility.yul\":8927:8941   */\n      add\n        /* \"#utility.yul\":8912:8941   */\n      swap1\n      pop\n        /* \"#utility.yul\":8763:8947   */\n      swap3\n      swap2\n      pop\n      pop\n      jump\t// out\n        /* \"#utility.yul\":8953:9122   */\n    tag_157:\n        /* \"#utility.yul\":9037:9048   */\n      0x00\n        /* \"#utility.yul\":9071:9077   */\n      dup3\n        /* \"#utility.yul\":9066:9069   */\n      dup3\n        /* \"#utility.yul\":9059:9078   */\n      mstore\n        /* \"#utility.yul\":9111:9115   */\n      0x20\n        /* \"#utility.yul\":9106:9109   */\n      dup3\n        /* \"#utility.yul\":9102:9116   */\n      add\n        /* \"#utility.yul\":9087:9116   */\n      swap1\n      pop\n        /* \"#utility.yul\":8953:9122   */\n      swap3\n      swap2\n      pop\n      pop\n      jump\t// out\n        /* \"#utility.yul\":9128:9276   */\n    tag_151:\n        /* \"#utility.yul\":9230:9241   */\n      0x00\n        /* \"#utility.yul\":9267:9270   */\n      dup2\n        /* \"#utility.yul\":9252:9270   */\n      swap1\n      pop\n        /* \"#utility.yul\":9128:9276   */\n      swap3\n      swap2\n      pop\n      pop\n      jump\t// out\n        /* \"#utility.yul\":9282:9378   */\n    tag_127:\n        /* \"#utility.yul\":9319:9326   */\n      0x00\n        /* \"#utility.yul\":9348:9372   */\n      tag_202\n        /* \"#utility.yul\":9366:9371   */\n      dup3\n        /* \"#utility.yul\":9348:9372   */\n      tag_203\n      jump\t// in\n    tag_202:\n        /* \"#utility.yul\":9337:9372   */\n      swap1\n      pop\n        /* \"#utility.yul\":9282:9378   */\n      swap2\n      swap1\n      pop\n      jump\t// out\n        /* \"#utility.yul\":9384:9474   */\n    tag_204:\n        /* \"#utility.yul\":9418:9425   */\n      0x00\n        /* \"#utility.yul\":9461:9466   */\n      dup2\n        /* \"#utility.yul\":9454:9467   */\n      iszero\n        /* \"#utility.yul\":9447:9468   */\n      iszero\n        /* \"#utility.yul\":9436:9468   */\n      swap1\n      pop\n        /* \"#utility.yul\":9384:9474   */\n      swap2\n      swap1\n      pop\n      jump\t// out\n        /* \"#utility.yul\":9480:9557   */\n    tag_145:\n        /* \"#utility.yul\":9517:9524   */\n      0x00\n        /* \"#utility.yul\":9546:9551   */\n      dup2\n        /* \"#utility.yul\":9535:9551   */\n      swap1\n      pop\n        /* \"#utility.yul\":9480:9557   */\n      swap2\n      swap1\n      pop\n      jump\t// out\n        /* \"#utility.yul\":9563:9689   */\n    tag_203:\n        /* \"#utility.yul\":9600:9607   */\n      0x00\n        /* \"#utility.yul\":9640:9682   */\n      0xffffffffffffffffffffffffffffffffffffffff\n        /* \"#utility.yul\":9633:9638   */\n      dup3\n        /* \"#utility.yul\":9629:9683   */\n      and\n        /* \"#utility.yul\":9618:9683   */\n      swap1\n      pop\n        /* \"#utility.yul\":9563:9689   */\n      swap2\n      swap1\n      pop\n      jump\t// out\n        /* \"#utility.yul\":9695:9849   */\n    tag_84:\n        /* \"#utility.yul\":9779:9785   */\n      dup3\n        /* \"#utility.yul\":9774:9777   */\n      dup2\n        /* \"#utility.yul\":9769:9772   */\n      dup4\n        /* \"#utility.yul\":9756:9786   */\n      calldatacopy\n        /* \"#utility.yul\":9841:9842   */\n      0x00\n        /* \"#utility.yul\":9832:9838   */\n      dup4\n        /* \"#utility.yul\":9827:9830   */\n      dup4\n        /* \"#utility.yul\":9823:9839   */\n      add\n        /* \"#utility.yul\":9816:9843   */\n      mstore\n        /* \"#utility.yul\":9695:9849   */\n      pop\n      pop\n      pop\n      jump\t// out\n        /* \"#utility.yul\":9855:10162   */\n    tag_153:\n        /* \"#utility.yul\":9923:9924   */\n      0x00\n        /* \"#utility.yul\":9933:10046   */\n    tag_210:\n        /* \"#utility.yul\":9947:9953   */\n      dup4\n        /* \"#utility.yul\":9944:9945   */\n      dup2\n        /* \"#utility.yul\":9941:9954   */\n      lt\n        /* \"#utility.yul\":9933:10046   */\n      iszero\n      tag_212\n      jumpi\n        /* \"#utility.yul\":10032:10033   */\n      dup1\n        /* \"#utility.yul\":10027:10030   */\n      dup3\n        /* \"#utility.yul\":10023:10034   */\n      add\n        /* \"#utility.yul\":10017:10035   */\n      mload\n        /* \"#utility.yul\":10013:10014   */\n      dup2\n        /* \"#utility.yul\":10008:10011   */\n      dup5\n        /* \"#utility.yul\":10004:10015   */\n      add\n        /* \"#utility.yul\":9997:10036   */\n      mstore\n        /* \"#utility.yul\":9969:9971   */\n      0x20\n        /* \"#utility.yul\":9966:9967   */\n      dup2\n        /* \"#utility.yul\":9962:9972   */\n      add\n        /* \"#utility.yul\":9957:9972   */\n      swap1\n      pop\n        /* \"#utility.yul\":9933:10046   */\n      jump(tag_210)\n    tag_212:\n        /* \"#utility.yul\":10064:10070   */\n      dup4\n        /* \"#utility.yul\":10061:10062   */\n      dup2\n        /* \"#utility.yul\":10058:10071   */\n      gt\n        /* \"#utility.yul\":10055:10156   */\n      iszero\n      tag_213\n      jumpi\n        /* \"#utility.yul\":10144:10145   */\n      0x00\n        /* \"#utility.yul\":10135:10141   */\n      dup5\n        /* \"#utility.yul\":10130:10133   */\n      dup5\n        /* \"#utility.yul\":10126:10142   */\n      add\n        /* \"#utility.yul\":10119:10146   */\n      mstore\n        /* \"#utility.yul\":10055:10156   */\n    tag_213:\n        /* \"#utility.yul\":9904:10162   */\n      pop\n        /* \"#utility.yul\":9855:10162   */\n      pop\n      pop\n      pop\n      jump\t// out\n        /* \"#utility.yul\":10168:10488   */\n    tag_63:\n        /* \"#utility.yul\":10212:10218   */\n      0x00\n        /* \"#utility.yul\":10249:10250   */\n      0x02\n        /* \"#utility.yul\":10243:10247   */\n      dup3\n        /* \"#utility.yul\":10239:10251   */\n      div\n        /* \"#utility.yul\":10229:10251   */\n      swap1\n      pop\n        /* \"#utility.yul\":10296:10297   */\n      0x01\n        /* \"#utility.yul\":10290:10294   */\n      dup3\n        /* \"#utility.yul\":10286:10298   */\n      and\n        /* \"#utility.yul\":10317:10335   */\n      dup1\n        /* \"#utility.yul\":10307:10388   */\n      tag_215\n      jumpi\n        /* \"#utility.yul\":10373:10377   */\n      0x7f\n        /* \"#utility.yul\":10365:10371   */\n      dup3\n        /* \"#utility.yul\":10361:10378   */\n      and\n        /* \"#utility.yul\":10351:10378   */\n      swap2\n      pop\n        /* \"#utility.yul\":10307:10388   */\n    tag_215:\n        /* \"#utility.yul\":10435:10437   */\n      0x20\n        /* \"#utility.yul\":10427:10433   */\n      dup3\n        /* \"#utility.yul\":10424:10438   */\n      lt\n        /* \"#utility.yul\":10404:10422   */\n      dup2\n        /* \"#utility.yul\":10401:10439   */\n      eq\n        /* \"#utility.yul\":10398:10482   */\n      iszero\n      tag_216\n      jumpi\n        /* \"#utility.yul\":10454:10472   */\n      tag_217\n      tag_218\n      jump\t// in\n    tag_217:\n        /* \"#utility.yul\":10398:10482   */\n    tag_216:\n        /* \"#utility.yul\":10219:10488   */\n      pop\n        /* \"#utility.yul\":10168:10488   */\n      swap2\n      swap1\n      pop\n      jump\t// out\n        /* \"#utility.yul\":10494:10775   */\n    tag_186:\n        /* \"#utility.yul\":10577:10604   */\n      tag_220\n        /* \"#utility.yul\":10599:10603   */\n      dup3\n        /* \"#utility.yul\":10577:10604   */\n      tag_193\n      jump\t// in\n    tag_220:\n        /* \"#utility.yul\":10569:10575   */\n      dup2\n        /* \"#utility.yul\":10565:10605   */\n      add\n        /* \"#utility.yul\":10707:10713   */\n      dup2\n        /* \"#utility.yul\":10695:10705   */\n      dup2\n        /* \"#utility.yul\":10692:10714   */\n      lt\n        /* \"#utility.yul\":10671:10689   */\n      0xffffffffffffffff\n        /* \"#utility.yul\":10659:10669   */\n      dup3\n        /* \"#utility.yul\":10656:10690   */\n      gt\n        /* \"#utility.yul\":10653:10715   */\n      or\n        /* \"#utility.yul\":10650:10738   */\n      iszero\n      tag_221\n      jumpi\n        /* \"#utility.yul\":10718:10736   */\n      tag_222\n      tag_191\n      jump\t// in\n    tag_222:\n        /* \"#utility.yul\":10650:10738   */\n    tag_221:\n        /* \"#utility.yul\":10758:10768   */\n      dup1\n        /* \"#utility.yul\":10754:10756   */\n      0x40\n        /* \"#utility.yul\":10747:10769   */\n      mstore\n        /* \"#utility.yul\":10537:10775   */\n      pop\n        /* \"#utility.yul\":10494:10775   */\n      pop\n      pop\n      jump\t// out\n        /* \"#utility.yul\":10781:10961   */\n    tag_28:\n        /* \"#utility.yul\":10829:10906   */\n      0x4e487b7100000000000000000000000000000000000000000000000000000000\n        /* \"#utility.yul\":10826:10827   */\n      0x00\n        /* \"#utility.yul\":10819:10907   */\n      mstore\n        /* \"#utility.yul\":10926:10930   */\n      0x21\n        /* \"#utility.yul\":10923:10924   */\n      0x04\n        /* \"#utility.yul\":10916:10931   */\n      mstore\n        /* \"#utility.yul\":10950:10954   */\n      0x24\n        /* \"#utility.yul\":10947:10948   */\n      0x00\n        /* \"#utility.yul\":10940:10955   */\n      revert\n        /* \"#utility.yul\":10967:11147   */\n    tag_218:\n        /* \"#utility.yul\":11015:11092   */\n      0x4e487b7100000000000000000000000000000000000000000000000000000000\n        /* \"#utility.yul\":11012:11013   */\n      0x00\n        /* \"#utility.yul\":11005:11093   */\n      mstore\n        /* \"#utility.yul\":11112:11116   */\n      0x22\n        /* \"#utility.yul\":11109:11110   */\n      0x04\n        /* \"#utility.yul\":11102:11117   */\n      mstore\n        /* \"#utility.yul\":11136:11140   */\n      0x24\n        /* \"#utility.yul\":11133:11134   */\n      0x00\n        /* \"#utility.yul\":11126:11141   */\n      revert\n        /* \"#utility.yul\":11153:11333   */\n    tag_191:\n        /* \"#utility.yul\":11201:11278   */\n      0x4e487b7100000000000000000000000000000000000000000000000000000000\n        /* \"#utility.yul\":11198:11199   */\n      0x00\n        /* \"#utility.yul\":11191:11279   */\n      mstore\n        /* \"#utility.yul\":11298:11302   */\n      0x41\n        /* \"#utility.yul\":11295:11296   */\n      0x04\n        /* \"#utility.yul\":11288:11303   */\n      mstore\n        /* \"#utility.yul\":11322:11326   */\n      0x24\n        /* \"#utility.yul\":11319:11320   */\n      0x00\n        /* \"#utility.yul\":11312:11327   */\n      revert\n        /* \"#utility.yul\":11339:11456   */\n    tag_97:\n        /* \"#utility.yul\":11448:11449   */\n      0x00\n        /* \"#utility.yul\":11445:11446   */\n      dup1\n        /* \"#utility.yul\":11438:11450   */\n      revert\n        /* \"#utility.yul\":11462:11579   */\n    tag_82:\n        /* \"#utility.yul\":11571:11572   */\n      0x00\n        /* \"#utility.yul\":11568:11569   */\n      dup1\n        /* \"#utility.yul\":11561:11573   */\n      revert\n        /* \"#utility.yul\":11585:11702   */\n    tag_109:\n        /* \"#utility.yul\":11694:11695   */\n      0x00\n        /* \"#utility.yul\":11691:11692   */\n      dup1\n        /* \"#utility.yul\":11684:11696   */\n      revert\n        /* \"#utility.yul\":11708:11825   */\n    tag_102:\n        /* \"#utility.yul\":11817:11818   */\n      0x00\n        /* \"#utility.yul\":11814:11815   */\n      dup1\n        /* \"#utility.yul\":11807:11819   */\n      revert\n        /* \"#utility.yul\":11831:11933   */\n    tag_193:\n        /* \"#utility.yul\":11872:11878   */\n      0x00\n        /* \"#utility.yul\":11923:11925   */\n      0x1f\n        /* \"#utility.yul\":11919:11926   */\n      not\n        /* \"#utility.yul\":11914:11916   */\n      0x1f\n        /* \"#utility.yul\":11907:11912   */\n      dup4\n        /* \"#utility.yul\":11903:11917   */\n      add\n        /* \"#utility.yul\":11899:11927   */\n      and\n        /* \"#utility.yul\":11889:11927   */\n      swap1\n      pop\n        /* \"#utility.yul\":11831:11933   */\n      swap2\n      swap1\n      pop\n      jump\t// out\n        /* \"#utility.yul\":11939:12120   */\n    tag_159:\n        /* \"#utility.yul\":12079:12112   */\n      0x596f7520617265206e6f74206120707269766174652070726f76696465722100\n        /* \"#utility.yul\":12075:12076   */\n      0x00\n        /* \"#utility.yul\":12067:12073   */\n      dup3\n        /* \"#utility.yul\":12063:12077   */\n      add\n        /* \"#utility.yul\":12056:12113   */\n      mstore\n        /* \"#utility.yul\":11939:12120   */\n      pop\n      jump\t// out\n        /* \"#utility.yul\":12126:12301   */\n    tag_164:\n        /* \"#utility.yul\":12266:12293   */\n      0x4170706c69636174696f6e20616c72656164792073656e742100000000000000\n        /* \"#utility.yul\":12262:12263   */\n      0x00\n        /* \"#utility.yul\":12254:12260   */\n      dup3\n        /* \"#utility.yul\":12250:12264   */\n      add\n        /* \"#utility.yul\":12243:12294   */\n      mstore\n        /* \"#utility.yul\":12126:12301   */\n      pop\n      jump\t// out\n        /* \"#utility.yul\":12307:12471   */\n    tag_169:\n        /* \"#utility.yul\":12447:12463   */\n      0x596f7572206e6f742061646d696e000000000000000000000000000000000000\n        /* \"#utility.yul\":12443:12444   */\n      0x00\n        /* \"#utility.yul\":12435:12441   */\n      dup3\n        /* \"#utility.yul\":12431:12445   */\n      add\n        /* \"#utility.yul\":12424:12464   */\n      mstore\n        /* \"#utility.yul\":12307:12471   */\n      pop\n      jump\t// out\n        /* \"#utility.yul\":12477:12599   */\n    tag_88:\n        /* \"#utility.yul\":12550:12574   */\n      tag_235\n        /* \"#utility.yul\":12568:12573   */\n      dup2\n        /* \"#utility.yul\":12550:12574   */\n      tag_127\n      jump\t// in\n    tag_235:\n        /* \"#utility.yul\":12543:12548   */\n      dup2\n        /* \"#utility.yul\":12540:12575   */\n      eq\n        /* \"#utility.yul\":12530:12593   */\n      tag_236\n      jumpi\n        /* \"#utility.yul\":12589:12590   */\n      0x00\n        /* \"#utility.yul\":12586:12587   */\n      dup1\n        /* \"#utility.yul\":12579:12591   */\n      revert\n        /* \"#utility.yul\":12530:12593   */\n    tag_236:\n        /* \"#utility.yul\":12477:12599   */\n      pop\n      jump\t// out\n        /* \"#utility.yul\":12605:12721   */\n    tag_92:\n        /* \"#utility.yul\":12675:12696   */\n      tag_238\n        /* \"#utility.yul\":12690:12695   */\n      dup2\n        /* \"#utility.yul\":12675:12696   */\n      tag_204\n      jump\t// in\n    tag_238:\n        /* \"#utility.yul\":12668:12673   */\n      dup2\n        /* \"#utility.yul\":12665:12697   */\n      eq\n        /* \"#utility.yul\":12655:12715   */\n      tag_239\n      jumpi\n        /* \"#utility.yul\":12711:12712   */\n      0x00\n        /* \"#utility.yul\":12708:12709   */\n      dup1\n        /* \"#utility.yul\":12701:12713   */\n      revert\n        /* \"#utility.yul\":12655:12715   */\n    tag_239:\n        /* \"#utility.yul\":12605:12721   */\n      pop\n      jump\t// out\n\n    auxdata: 0xa2646970667358221220b733392e2b202da3a6a71604547b880fda00763e017e5287c3c587920879ea4664736f6c63430008070033\n}\n",
				"bytecode": {
					"linkReferences": {},
					"object": "608060405234801561001057600080fd5b50610d78806100206000396000f3fe608060405234801561001057600080fd5b506004361061004c5760003560e01c80634d0d594f14610051578063785963c31461006f5780638e4f8c6b1461008b5780639d9e7a4b146100bb575b600080fd5b6100596100d7565b60405161006691906109a7565b60405180910390f35b610089600480360381019061008491906107d7565b6102cf565b005b6100a560048036038101906100a0919061078e565b61053c565b6040516100b291906109c9565b60405180910390f35b6100d560048036038101906100d09190610761565b61056c565b005b6060600060048111156100ed576100ec610be7565b5b6000803373ffffffffffffffffffffffffffffffffffffffff1673ffffffffffffffffffffffffffffffffffffffff16815260200190815260200160002060000160009054906101000a900460ff16600481111561014e5761014d610be7565b5b1461018e576040517f08c379a000000000000000000000000000000000000000000000000000000000815260040161018590610a24565b60405180910390fd5b600260048111156101a2576101a1610be7565b5b6000803373ffffffffffffffffffffffffffffffffffffffff1673ffffffffffffffffffffffffffffffffffffffff16815260200190815260200160002060000160009054906101000a900460ff16600481111561020357610202610be7565b5b14610243576040517f08c379a000000000000000000000000000000000000000000000000000000000815260040161023a906109e4565b60405180910390fd5b60038054806020026020016040519081016040528092919081815260200182805480156102c557602002820191906000526020600020905b8160009054906101000a900473ffffffffffffffffffffffffffffffffffffffff1673ffffffffffffffffffffffffffffffffffffffff168152602001906001019080831161027b575b5050505050905090565b60011515600260003373ffffffffffffffffffffffffffffffffffffffff1673ffffffffffffffffffffffffffffffffffffffff16815260200190815260200160002060020160169054906101000a900460ff16151514610365576040517f08c379a000000000000000000000000000000000000000000000000000000000815260040161035c90610a04565b60405180910390fd5b6040518060c001604052808481526020018381526020018273ffffffffffffffffffffffffffffffffffffffff16815260200160011515815260200160001515815260200160011515815250600260003373ffffffffffffffffffffffffffffffffffffffff1673ffffffffffffffffffffffffffffffffffffffff168152602001908152602001600020600082015181600001908051906020019061040c929190610624565b506020820151816001019080519060200190610429929190610624565b5060408201518160020160006101000a81548173ffffffffffffffffffffffffffffffffffffffff021916908373ffffffffffffffffffffffffffffffffffffffff16021790555060608201518160020160146101000a81548160ff02191690831515021790555060808201518160020160156101000a81548160ff02191690831515021790555060a08201518160020160166101000a81548160ff0219169083151502179055509050506003339080600181540180825580915050600190039060005260206000200160009091909190916101000a81548173ffffffffffffffffffffffffffffffffffffffff021916908373ffffffffffffffffffffffffffffffffffffffff160217905550505050565b60008160405160200161054f9190610990565b604051602081830303815290604052805190602001209050919050565b600260048111156105805761057f610be7565b5b6000803373ffffffffffffffffffffffffffffffffffffffff1673ffffffffffffffffffffffffffffffffffffffff16815260200190815260200160002060000160009054906101000a900460ff1660048111156105e1576105e0610be7565b5b14610621576040517f08c379a0000000000000000000000000000000000000000000000000000000008152600401610618906109e4565b60405180910390fd5b50565b82805461063090610b84565b90600052602060002090601f0160209004810192826106525760008555610699565b82601f1061066b57805160ff1916838001178555610699565b82800160010185558215610699579182015b8281111561069857825182559160200191906001019061067d565b5b5090506106a691906106aa565b5090565b5b808211156106c35760008160009055506001016106ab565b5090565b60006106da6106d584610a69565b610a44565b9050828152602081018484840111156106f6576106f5610c79565b5b610701848285610b42565b509392505050565b60008135905061071881610d14565b92915050565b60008135905061072d81610d2b565b92915050565b600082601f83011261074857610747610c74565b5b81356107588482602086016106c7565b91505092915050565b60006020828403121561077757610776610c83565b5b60006107858482850161071e565b91505092915050565b6000602082840312156107a4576107a3610c83565b5b600082013567ffffffffffffffff8111156107c2576107c1610c7e565b5b6107ce84828501610733565b91505092915050565b6000806000606084860312156107f0576107ef610c83565b5b600084013567ffffffffffffffff81111561080e5761080d610c7e565b5b61081a86828701610733565b935050602084013567ffffffffffffffff81111561083b5761083a610c7e565b5b61084786828701610733565b925050604061085886828701610709565b9150509250925092565b600061086e838361087a565b60208301905092915050565b61088381610afa565b82525050565b600061089482610aaa565b61089e8185610acd565b93506108a983610a9a565b8060005b838110156108da5781516108c18882610862565b97506108cc83610ac0565b9250506001810190506108ad565b5085935050505092915050565b6108f081610b18565b82525050565b600061090182610ab5565b61090b8185610aef565b935061091b818560208601610b51565b80840191505092915050565b6000610934601f83610ade565b915061093f82610c99565b602082019050919050565b6000610957601983610ade565b915061096282610cc2565b602082019050919050565b600061097a600e83610ade565b915061098582610ceb565b602082019050919050565b600061099c82846108f6565b915081905092915050565b600060208201905081810360008301526109c18184610889565b905092915050565b60006020820190506109de60008301846108e7565b92915050565b600060208201905081810360008301526109fd81610927565b9050919050565b60006020820190508181036000830152610a1d8161094a565b9050919050565b60006020820190508181036000830152610a3d8161096d565b9050919050565b6000610a4e610a5f565b9050610a5a8282610bb6565b919050565b6000604051905090565b600067ffffffffffffffff821115610a8457610a83610c45565b5b610a8d82610c88565b9050602081019050919050565b6000819050602082019050919050565b600081519050919050565b600081519050919050565b6000602082019050919050565b600082825260208201905092915050565b600082825260208201905092915050565b600081905092915050565b6000610b0582610b22565b9050919050565b60008115159050919050565b6000819050919050565b600073ffffffffffffffffffffffffffffffffffffffff82169050919050565b82818337600083830152505050565b60005b83811015610b6f578082015181840152602081019050610b54565b83811115610b7e576000848401525b50505050565b60006002820490506001821680610b9c57607f821691505b60208210811415610bb057610baf610c16565b5b50919050565b610bbf82610c88565b810181811067ffffffffffffffff82111715610bde57610bdd610c45565b5b80604052505050565b7f4e487b7100000000000000000000000000000000000000000000000000000000600052602160045260246000fd5b7f4e487b7100000000000000000000000000000000000000000000000000000000600052602260045260246000fd5b7f4e487b7100000000000000000000000000000000000000000000000000000000600052604160045260246000fd5b600080fd5b600080fd5b600080fd5b600080fd5b6000601f19601f8301169050919050565b7f596f7520617265206e6f74206120707269766174652070726f76696465722100600082015250565b7f4170706c69636174696f6e20616c72656164792073656e742100000000000000600082015250565b7f596f7572206e6f742061646d696e000000000000000000000000000000000000600082015250565b610d1d81610afa565b8114610d2857600080fd5b50565b610d3481610b0c565b8114610d3f57600080fd5b5056fea2646970667358221220b733392e2b202da3a6a71604547b880fda00763e017e5287c3c587920879ea4664736f6c63430008070033",
					"opcodes": "PUSH1 0x80 PUSH1 0x40 MSTORE CALLVALUE DUP1 ISZERO PUSH2 0x10 JUMPI PUSH1 0x0 DUP1 REVERT JUMPDEST POP PUSH2 0xD78 DUP1 PUSH2 0x20 PUSH1 0x0 CODECOPY PUSH1 0x0 RETURN INVALID PUSH1 0x80 PUSH1 0x40 MSTORE CALLVALUE DUP1 ISZERO PUSH2 0x10 JUMPI PUSH1 0x0 DUP1 REVERT JUMPDEST POP PUSH1 0x4 CALLDATASIZE LT PUSH2 0x4C JUMPI PUSH1 0x0 CALLDATALOAD PUSH1 0xE0 SHR DUP1 PUSH4 0x4D0D594F EQ PUSH2 0x51 JUMPI DUP1 PUSH4 0x785963C3 EQ PUSH2 0x6F JUMPI DUP1 PUSH4 0x8E4F8C6B EQ PUSH2 0x8B JUMPI DUP1 PUSH4 0x9D9E7A4B EQ PUSH2 0xBB JUMPI JUMPDEST PUSH1 0x0 DUP1 REVERT JUMPDEST PUSH2 0x59 PUSH2 0xD7 JUMP JUMPDEST PUSH1 0x40 MLOAD PUSH2 0x66 SWAP2 SWAP1 PUSH2 0x9A7 JUMP JUMPDEST PUSH1 0x40 MLOAD DUP1 SWAP2 SUB SWAP1 RETURN JUMPDEST PUSH2 0x89 PUSH1 0x4 DUP1 CALLDATASIZE SUB DUP2 ADD SWAP1 PUSH2 0x84 SWAP2 SWAP1 PUSH2 0x7D7 JUMP JUMPDEST PUSH2 0x2CF JUMP JUMPDEST STOP JUMPDEST PUSH2 0xA5 PUSH1 0x4 DUP1 CALLDATASIZE SUB DUP2 ADD SWAP1 PUSH2 0xA0 SWAP2 SWAP1 PUSH2 0x78E JUMP JUMPDEST PUSH2 0x53C JUMP JUMPDEST PUSH1 0x40 MLOAD PUSH2 0xB2 SWAP2 SWAP1 PUSH2 0x9C9 JUMP JUMPDEST PUSH1 0x40 MLOAD DUP1 SWAP2 SUB SWAP1 RETURN JUMPDEST PUSH2 0xD5 PUSH1 0x4 DUP1 CALLDATASIZE SUB DUP2 ADD SWAP1 PUSH2 0xD0 SWAP2 SWAP1 PUSH2 0x761 JUMP JUMPDEST PUSH2 0x56C JUMP JUMPDEST STOP JUMPDEST PUSH1 0x60 PUSH1 0x0 PUSH1 0x4 DUP2 GT ISZERO PUSH2 0xED JUMPI PUSH2 0xEC PUSH2 0xBE7 JUMP JUMPDEST JUMPDEST PUSH1 0x0 DUP1 CALLER PUSH20 0xFFFFFFFFFFFFFFFFFFFFFFFFFFFFFFFFFFFFFFFF AND PUSH20 0xFFFFFFFFFFFFFFFFFFFFFFFFFFFFFFFFFFFFFFFF AND DUP2 MSTORE PUSH1 0x20 ADD SWAP1 DUP2 MSTORE PUSH1 0x20 ADD PUSH1 0x0 KECCAK256 PUSH1 0x0 ADD PUSH1 0x0 SWAP1 SLOAD SWAP1 PUSH2 0x100 EXP SWAP1 DIV PUSH1 0xFF AND PUSH1 0x4 DUP2 GT ISZERO PUSH2 0x14E JUMPI PUSH2 0x14D PUSH2 0xBE7 JUMP JUMPDEST JUMPDEST EQ PUSH2 0x18E JUMPI PUSH1 0x40 MLOAD PUSH32 0x8C379A000000000000000000000000000000000000000000000000000000000 DUP2 MSTORE PUSH1 0x4 ADD PUSH2 0x185 SWAP1 PUSH2 0xA24 JUMP JUMPDEST PUSH1 0x40 MLOAD DUP1 SWAP2 SUB SWAP1 REVERT JUMPDEST PUSH1 0x2 PUSH1 0x4 DUP2 GT ISZERO PUSH2 0x1A2 JUMPI PUSH2 0x1A1 PUSH2 0xBE7 JUMP JUMPDEST JUMPDEST PUSH1 0x0 DUP1 CALLER PUSH20 0xFFFFFFFFFFFFFFFFFFFFFFFFFFFFFFFFFFFFFFFF AND PUSH20 0xFFFFFFFFFFFFFFFFFFFFFFFFFFFFFFFFFFFFFFFF AND DUP2 MSTORE PUSH1 0x20 ADD SWAP1 DUP2 MSTORE PUSH1 0x20 ADD PUSH1 0x0 KECCAK256 PUSH1 0x0 ADD PUSH1 0x0 SWAP1 SLOAD SWAP1 PUSH2 0x100 EXP SWAP1 DIV PUSH1 0xFF AND PUSH1 0x4 DUP2 GT ISZERO PUSH2 0x203 JUMPI PUSH2 0x202 PUSH2 0xBE7 JUMP JUMPDEST JUMPDEST EQ PUSH2 0x243 JUMPI PUSH1 0x40 MLOAD PUSH32 0x8C379A000000000000000000000000000000000000000000000000000000000 DUP2 MSTORE PUSH1 0x4 ADD PUSH2 0x23A SWAP1 PUSH2 0x9E4 JUMP JUMPDEST PUSH1 0x40 MLOAD DUP1 SWAP2 SUB SWAP1 REVERT JUMPDEST PUSH1 0x3 DUP1 SLOAD DUP1 PUSH1 0x20 MUL PUSH1 0x20 ADD PUSH1 0x40 MLOAD SWAP1 DUP2 ADD PUSH1 0x40 MSTORE DUP1 SWAP3 SWAP2 SWAP1 DUP2 DUP2 MSTORE PUSH1 0x20 ADD DUP3 DUP1 SLOAD DUP1 ISZERO PUSH2 0x2C5 JUMPI PUSH1 0x20 MUL DUP3 ADD SWAP2 SWAP1 PUSH1 0x0 MSTORE PUSH1 0x20 PUSH1 0x0 KECCAK256 SWAP1 JUMPDEST DUP2 PUSH1 0x0 SWAP1 SLOAD SWAP1 PUSH2 0x100 EXP SWAP1 DIV PUSH20 0xFFFFFFFFFFFFFFFFFFFFFFFFFFFFFFFFFFFFFFFF AND PUSH20 0xFFFFFFFFFFFFFFFFFFFFFFFFFFFFFFFFFFFFFFFF AND DUP2 MSTORE PUSH1 0x20 ADD SWAP1 PUSH1 0x1 ADD SWAP1 DUP1 DUP4 GT PUSH2 0x27B JUMPI JUMPDEST POP POP POP POP POP SWAP1 POP SWAP1 JUMP JUMPDEST PUSH1 0x1 ISZERO ISZERO PUSH1 0x2 PUSH1 0x0 CALLER PUSH20 0xFFFFFFFFFFFFFFFFFFFFFFFFFFFFFFFFFFFFFFFF AND PUSH20 0xFFFFFFFFFFFFFFFFFFFFFFFFFFFFFFFFFFFFFFFF AND DUP2 MSTORE PUSH1 0x20 ADD SWAP1 DUP2 MSTORE PUSH1 0x20 ADD PUSH1 0x0 KECCAK256 PUSH1 0x2 ADD PUSH1 0x16 SWAP1 SLOAD SWAP1 PUSH2 0x100 EXP SWAP1 DIV PUSH1 0xFF AND ISZERO ISZERO EQ PUSH2 0x365 JUMPI PUSH1 0x40 MLOAD PUSH32 0x8C379A000000000000000000000000000000000000000000000000000000000 DUP2 MSTORE PUSH1 0x4 ADD PUSH2 0x35C SWAP1 PUSH2 0xA04 JUMP JUMPDEST PUSH1 0x40 MLOAD DUP1 SWAP2 SUB SWAP1 REVERT JUMPDEST PUSH1 0x40 MLOAD DUP1 PUSH1 0xC0 ADD PUSH1 0x40 MSTORE DUP1 DUP5 DUP2 MSTORE PUSH1 0x20 ADD DUP4 DUP2 MSTORE PUSH1 0x20 ADD DUP3 PUSH20 0xFFFFFFFFFFFFFFFFFFFFFFFFFFFFFFFFFFFFFFFF AND DUP2 MSTORE PUSH1 0x20 ADD PUSH1 0x1 ISZERO ISZERO DUP2 MSTORE PUSH1 0x20 ADD PUSH1 0x0 ISZERO ISZERO DUP2 MSTORE PUSH1 0x20 ADD PUSH1 0x1 ISZERO ISZERO DUP2 MSTORE POP PUSH1 0x2 PUSH1 0x0 CALLER PUSH20 0xFFFFFFFFFFFFFFFFFFFFFFFFFFFFFFFFFFFFFFFF AND PUSH20 0xFFFFFFFFFFFFFFFFFFFFFFFFFFFFFFFFFFFFFFFF AND DUP2 MSTORE PUSH1 0x20 ADD SWAP1 DUP2 MSTORE PUSH1 0x20 ADD PUSH1 0x0 KECCAK256 PUSH1 0x0 DUP3 ADD MLOAD DUP2 PUSH1 0x0 ADD SWAP1 DUP1 MLOAD SWAP1 PUSH1 0x20 ADD SWAP1 PUSH2 0x40C SWAP3 SWAP2 SWAP1 PUSH2 0x624 JUMP JUMPDEST POP PUSH1 0x20 DUP3 ADD MLOAD DUP2 PUSH1 0x1 ADD SWAP1 DUP1 MLOAD SWAP1 PUSH1 0x20 ADD SWAP1 PUSH2 0x429 SWAP3 SWAP2 SWAP1 PUSH2 0x624 JUMP JUMPDEST POP PUSH1 0x40 DUP3 ADD MLOAD DUP2 PUSH1 0x2 ADD PUSH1 0x0 PUSH2 0x100 EXP DUP2 SLOAD DUP2 PUSH20 0xFFFFFFFFFFFFFFFFFFFFFFFFFFFFFFFFFFFFFFFF MUL NOT AND SWAP1 DUP4 PUSH20 0xFFFFFFFFFFFFFFFFFFFFFFFFFFFFFFFFFFFFFFFF AND MUL OR SWAP1 SSTORE POP PUSH1 0x60 DUP3 ADD MLOAD DUP2 PUSH1 0x2 ADD PUSH1 0x14 PUSH2 0x100 EXP DUP2 SLOAD DUP2 PUSH1 0xFF MUL NOT AND SWAP1 DUP4 ISZERO ISZERO MUL OR SWAP1 SSTORE POP PUSH1 0x80 DUP3 ADD MLOAD DUP2 PUSH1 0x2 ADD PUSH1 0x15 PUSH2 0x100 EXP DUP2 SLOAD DUP2 PUSH1 0xFF MUL NOT AND SWAP1 DUP4 ISZERO ISZERO MUL OR SWAP1 SSTORE POP PUSH1 0xA0 DUP3 ADD MLOAD DUP2 PUSH1 0x2 ADD PUSH1 0x16 PUSH2 0x100 EXP DUP2 SLOAD DUP2 PUSH1 0xFF MUL NOT AND SWAP1 DUP4 ISZERO ISZERO MUL OR SWAP1 SSTORE POP SWAP1 POP POP PUSH1 0x3 CALLER SWAP1 DUP1 PUSH1 0x1 DUP2 SLOAD ADD DUP1 DUP3 SSTORE DUP1 SWAP2 POP POP PUSH1 0x1 SWAP1 SUB SWAP1 PUSH1 0x0 MSTORE PUSH1 0x20 PUSH1 0x0 KECCAK256 ADD PUSH1 0x0 SWAP1 SWAP2 SWAP1 SWAP2 SWAP1 SWAP2 PUSH2 0x100 EXP DUP2 SLOAD DUP2 PUSH20 0xFFFFFFFFFFFFFFFFFFFFFFFFFFFFFFFFFFFFFFFF MUL NOT AND SWAP1 DUP4 PUSH20 0xFFFFFFFFFFFFFFFFFFFFFFFFFFFFFFFFFFFFFFFF AND MUL OR SWAP1 SSTORE POP POP POP POP JUMP JUMPDEST PUSH1 0x0 DUP2 PUSH1 0x40 MLOAD PUSH1 0x20 ADD PUSH2 0x54F SWAP2 SWAP1 PUSH2 0x990 JUMP JUMPDEST PUSH1 0x40 MLOAD PUSH1 0x20 DUP2 DUP4 SUB SUB DUP2 MSTORE SWAP1 PUSH1 0x40 MSTORE DUP1 MLOAD SWAP1 PUSH1 0x20 ADD KECCAK256 SWAP1 POP SWAP2 SWAP1 POP JUMP JUMPDEST PUSH1 0x2 PUSH1 0x4 DUP2 GT ISZERO PUSH2 0x580 JUMPI PUSH2 0x57F PUSH2 0xBE7 JUMP JUMPDEST JUMPDEST PUSH1 0x0 DUP1 CALLER PUSH20 0xFFFFFFFFFFFFFFFFFFFFFFFFFFFFFFFFFFFFFFFF AND PUSH20 0xFFFFFFFFFFFFFFFFFFFFFFFFFFFFFFFFFFFFFFFF AND DUP2 MSTORE PUSH1 0x20 ADD SWAP1 DUP2 MSTORE PUSH1 0x20 ADD PUSH1 0x0 KECCAK256 PUSH1 0x0 ADD PUSH1 0x0 SWAP1 SLOAD SWAP1 PUSH2 0x100 EXP SWAP1 DIV PUSH1 0xFF AND PUSH1 0x4 DUP2 GT ISZERO PUSH2 0x5E1 JUMPI PUSH2 0x5E0 PUSH2 0xBE7 JUMP JUMPDEST JUMPDEST EQ PUSH2 0x621 JUMPI PUSH1 0x40 MLOAD PUSH32 0x8C379A000000000000000000000000000000000000000000000000000000000 DUP2 MSTORE PUSH1 0x4 ADD PUSH2 0x618 SWAP1 PUSH2 0x9E4 JUMP JUMPDEST PUSH1 0x40 MLOAD DUP1 SWAP2 SUB SWAP1 REVERT JUMPDEST POP JUMP JUMPDEST DUP3 DUP1 SLOAD PUSH2 0x630 SWAP1 PUSH2 0xB84 JUMP JUMPDEST SWAP1 PUSH1 0x0 MSTORE PUSH1 0x20 PUSH1 0x0 KECCAK256 SWAP1 PUSH1 0x1F ADD PUSH1 0x20 SWAP1 DIV DUP2 ADD SWAP3 DUP3 PUSH2 0x652 JUMPI PUSH1 0x0 DUP6 SSTORE PUSH2 0x699 JUMP JUMPDEST DUP3 PUSH1 0x1F LT PUSH2 0x66B JUMPI DUP1 MLOAD PUSH1 0xFF NOT AND DUP4 DUP1 ADD OR DUP6 SSTORE PUSH2 0x699 JUMP JUMPDEST DUP3 DUP1 ADD PUSH1 0x1 ADD DUP6 SSTORE DUP3 ISZERO PUSH2 0x699 JUMPI SWAP2 DUP3 ADD JUMPDEST DUP3 DUP2 GT ISZERO PUSH2 0x698 JUMPI DUP3 MLOAD DUP3 SSTORE SWAP2 PUSH1 0x20 ADD SWAP2 SWAP1 PUSH1 0x1 ADD SWAP1 PUSH2 0x67D JUMP JUMPDEST JUMPDEST POP SWAP1 POP PUSH2 0x6A6 SWAP2 SWAP1 PUSH2 0x6AA JUMP JUMPDEST POP SWAP1 JUMP JUMPDEST JUMPDEST DUP1 DUP3 GT ISZERO PUSH2 0x6C3 JUMPI PUSH1 0x0 DUP2 PUSH1 0x0 SWAP1 SSTORE POP PUSH1 0x1 ADD PUSH2 0x6AB JUMP JUMPDEST POP SWAP1 JUMP JUMPDEST PUSH1 0x0 PUSH2 0x6DA PUSH2 0x6D5 DUP5 PUSH2 0xA69 JUMP JUMPDEST PUSH2 0xA44 JUMP JUMPDEST SWAP1 POP DUP3 DUP2 MSTORE PUSH1 0x20 DUP2 ADD DUP5 DUP5 DUP5 ADD GT ISZERO PUSH2 0x6F6 JUMPI PUSH2 0x6F5 PUSH2 0xC79 JUMP JUMPDEST JUMPDEST PUSH2 0x701 DUP5 DUP3 DUP6 PUSH2 0xB42 JUMP JUMPDEST POP SWAP4 SWAP3 POP POP POP JUMP JUMPDEST PUSH1 0x0 DUP2 CALLDATALOAD SWAP1 POP PUSH2 0x718 DUP2 PUSH2 0xD14 JUMP JUMPDEST SWAP3 SWAP2 POP POP JUMP JUMPDEST PUSH1 0x0 DUP2 CALLDATALOAD SWAP1 POP PUSH2 0x72D DUP2 PUSH2 0xD2B JUMP JUMPDEST SWAP3 SWAP2 POP POP JUMP JUMPDEST PUSH1 0x0 DUP3 PUSH1 0x1F DUP4 ADD SLT PUSH2 0x748 JUMPI PUSH2 0x747 PUSH2 0xC74 JUMP JUMPDEST JUMPDEST DUP2 CALLDATALOAD PUSH2 0x758 DUP5 DUP3 PUSH1 0x20 DUP7 ADD PUSH2 0x6C7 JUMP JUMPDEST SWAP2 POP POP SWAP3 SWAP2 POP POP JUMP JUMPDEST PUSH1 0x0 PUSH1 0x20 DUP3 DUP5 SUB SLT ISZERO PUSH2 0x777 JUMPI PUSH2 0x776 PUSH2 0xC83 JUMP JUMPDEST JUMPDEST PUSH1 0x0 PUSH2 0x785 DUP5 DUP3 DUP6 ADD PUSH2 0x71E JUMP JUMPDEST SWAP2 POP POP SWAP3 SWAP2 POP POP JUMP JUMPDEST PUSH1 0x0 PUSH1 0x20 DUP3 DUP5 SUB SLT ISZERO PUSH2 0x7A4 JUMPI PUSH2 0x7A3 PUSH2 0xC83 JUMP JUMPDEST JUMPDEST PUSH1 0x0 DUP3 ADD CALLDATALOAD PUSH8 0xFFFFFFFFFFFFFFFF DUP2 GT ISZERO PUSH2 0x7C2 JUMPI PUSH2 0x7C1 PUSH2 0xC7E JUMP JUMPDEST JUMPDEST PUSH2 0x7CE DUP5 DUP3 DUP6 ADD PUSH2 0x733 JUMP JUMPDEST SWAP2 POP POP SWAP3 SWAP2 POP POP JUMP JUMPDEST PUSH1 0x0 DUP1 PUSH1 0x0 PUSH1 0x60 DUP5 DUP7 SUB SLT ISZERO PUSH2 0x7F0 JUMPI PUSH2 0x7EF PUSH2 0xC83 JUMP JUMPDEST JUMPDEST PUSH1 0x0 DUP5 ADD CALLDATALOAD PUSH8 0xFFFFFFFFFFFFFFFF DUP2 GT ISZERO PUSH2 0x80E JUMPI PUSH2 0x80D PUSH2 0xC7E JUMP JUMPDEST JUMPDEST PUSH2 0x81A DUP7 DUP3 DUP8 ADD PUSH2 0x733 JUMP JUMPDEST SWAP4 POP POP PUSH1 0x20 DUP5 ADD CALLDATALOAD PUSH8 0xFFFFFFFFFFFFFFFF DUP2 GT ISZERO PUSH2 0x83B JUMPI PUSH2 0x83A PUSH2 0xC7E JUMP JUMPDEST JUMPDEST PUSH2 0x847 DUP7 DUP3 DUP8 ADD PUSH2 0x733 JUMP JUMPDEST SWAP3 POP POP PUSH1 0x40 PUSH2 0x858 DUP7 DUP3 DUP8 ADD PUSH2 0x709 JUMP JUMPDEST SWAP2 POP POP SWAP3 POP SWAP3 POP SWAP3 JUMP JUMPDEST PUSH1 0x0 PUSH2 0x86E DUP4 DUP4 PUSH2 0x87A JUMP JUMPDEST PUSH1 0x20 DUP4 ADD SWAP1 POP SWAP3 SWAP2 POP POP JUMP JUMPDEST PUSH2 0x883 DUP2 PUSH2 0xAFA JUMP JUMPDEST DUP3 MSTORE POP POP JUMP JUMPDEST PUSH1 0x0 PUSH2 0x894 DUP3 PUSH2 0xAAA JUMP JUMPDEST PUSH2 0x89E DUP2 DUP6 PUSH2 0xACD JUMP JUMPDEST SWAP4 POP PUSH2 0x8A9 DUP4 PUSH2 0xA9A JUMP JUMPDEST DUP1 PUSH1 0x0 JUMPDEST DUP4 DUP2 LT ISZERO PUSH2 0x8DA JUMPI DUP2 MLOAD PUSH2 0x8C1 DUP9 DUP3 PUSH2 0x862 JUMP JUMPDEST SWAP8 POP PUSH2 0x8CC DUP4 PUSH2 0xAC0 JUMP JUMPDEST SWAP3 POP POP PUSH1 0x1 DUP2 ADD SWAP1 POP PUSH2 0x8AD JUMP JUMPDEST POP DUP6 SWAP4 POP POP POP POP SWAP3 SWAP2 POP POP JUMP JUMPDEST PUSH2 0x8F0 DUP2 PUSH2 0xB18 JUMP JUMPDEST DUP3 MSTORE POP POP JUMP JUMPDEST PUSH1 0x0 PUSH2 0x901 DUP3 PUSH2 0xAB5 JUMP JUMPDEST PUSH2 0x90B DUP2 DUP6 PUSH2 0xAEF JUMP JUMPDEST SWAP4 POP PUSH2 0x91B DUP2 DUP6 PUSH1 0x20 DUP7 ADD PUSH2 0xB51 JUMP JUMPDEST DUP1 DUP5 ADD SWAP2 POP POP SWAP3 SWAP2 POP POP JUMP JUMPDEST PUSH1 0x0 PUSH2 0x934 PUSH1 0x1F DUP4 PUSH2 0xADE JUMP JUMPDEST SWAP2 POP PUSH2 0x93F DUP3 PUSH2 0xC99 JUMP JUMPDEST PUSH1 0x20 DUP3 ADD SWAP1 POP SWAP2 SWAP1 POP JUMP JUMPDEST PUSH1 0x0 PUSH2 0x957 PUSH1 0x19 DUP4 PUSH2 0xADE JUMP JUMPDEST SWAP2 POP PUSH2 0x962 DUP3 PUSH2 0xCC2 JUMP JUMPDEST PUSH1 0x20 DUP3 ADD SWAP1 POP SWAP2 SWAP1 POP JUMP JUMPDEST PUSH1 0x0 PUSH2 0x97A PUSH1 0xE DUP4 PUSH2 0xADE JUMP JUMPDEST SWAP2 POP PUSH2 0x985 DUP3 PUSH2 0xCEB JUMP JUMPDEST PUSH1 0x20 DUP3 ADD SWAP1 POP SWAP2 SWAP1 POP JUMP JUMPDEST PUSH1 0x0 PUSH2 0x99C DUP3 DUP5 PUSH2 0x8F6 JUMP JUMPDEST SWAP2 POP DUP2 SWAP1 POP SWAP3 SWAP2 POP POP JUMP JUMPDEST PUSH1 0x0 PUSH1 0x20 DUP3 ADD SWAP1 POP DUP2 DUP2 SUB PUSH1 0x0 DUP4 ADD MSTORE PUSH2 0x9C1 DUP2 DUP5 PUSH2 0x889 JUMP JUMPDEST SWAP1 POP SWAP3 SWAP2 POP POP JUMP JUMPDEST PUSH1 0x0 PUSH1 0x20 DUP3 ADD SWAP1 POP PUSH2 0x9DE PUSH1 0x0 DUP4 ADD DUP5 PUSH2 0x8E7 JUMP JUMPDEST SWAP3 SWAP2 POP POP JUMP JUMPDEST PUSH1 0x0 PUSH1 0x20 DUP3 ADD SWAP1 POP DUP2 DUP2 SUB PUSH1 0x0 DUP4 ADD MSTORE PUSH2 0x9FD DUP2 PUSH2 0x927 JUMP JUMPDEST SWAP1 POP SWAP2 SWAP1 POP JUMP JUMPDEST PUSH1 0x0 PUSH1 0x20 DUP3 ADD SWAP1 POP DUP2 DUP2 SUB PUSH1 0x0 DUP4 ADD MSTORE PUSH2 0xA1D DUP2 PUSH2 0x94A JUMP JUMPDEST SWAP1 POP SWAP2 SWAP1 POP JUMP JUMPDEST PUSH1 0x0 PUSH1 0x20 DUP3 ADD SWAP1 POP DUP2 DUP2 SUB PUSH1 0x0 DUP4 ADD MSTORE PUSH2 0xA3D DUP2 PUSH2 0x96D JUMP JUMPDEST SWAP1 POP SWAP2 SWAP1 POP JUMP JUMPDEST PUSH1 0x0 PUSH2 0xA4E PUSH2 0xA5F JUMP JUMPDEST SWAP1 POP PUSH2 0xA5A DUP3 DUP3 PUSH2 0xBB6 JUMP JUMPDEST SWAP2 SWAP1 POP JUMP JUMPDEST PUSH1 0x0 PUSH1 0x40 MLOAD SWAP1 POP SWAP1 JUMP JUMPDEST PUSH1 0x0 PUSH8 0xFFFFFFFFFFFFFFFF DUP3 GT ISZERO PUSH2 0xA84 JUMPI PUSH2 0xA83 PUSH2 0xC45 JUMP JUMPDEST JUMPDEST PUSH2 0xA8D DUP3 PUSH2 0xC88 JUMP JUMPDEST SWAP1 POP PUSH1 0x20 DUP2 ADD SWAP1 POP SWAP2 SWAP1 POP JUMP JUMPDEST PUSH1 0x0 DUP2 SWAP1 POP PUSH1 0x20 DUP3 ADD SWAP1 POP SWAP2 SWAP1 POP JUMP JUMPDEST PUSH1 0x0 DUP2 MLOAD SWAP1 POP SWAP2 SWAP1 POP JUMP JUMPDEST PUSH1 0x0 DUP2 MLOAD SWAP1 POP SWAP2 SWAP1 POP JUMP JUMPDEST PUSH1 0x0 PUSH1 0x20 DUP3 ADD SWAP1 POP SWAP2 SWAP1 POP JUMP JUMPDEST PUSH1 0x0 DUP3 DUP3 MSTORE PUSH1 0x20 DUP3 ADD SWAP1 POP SWAP3 SWAP2 POP POP JUMP JUMPDEST PUSH1 0x0 DUP3 DUP3 MSTORE PUSH1 0x20 DUP3 ADD SWAP1 POP SWAP3 SWAP2 POP POP JUMP JUMPDEST PUSH1 0x0 DUP2 SWAP1 POP SWAP3 SWAP2 POP POP JUMP JUMPDEST PUSH1 0x0 PUSH2 0xB05 DUP3 PUSH2 0xB22 JUMP JUMPDEST SWAP1 POP SWAP2 SWAP1 POP JUMP JUMPDEST PUSH1 0x0 DUP2 ISZERO ISZERO SWAP1 POP SWAP2 SWAP1 POP JUMP JUMPDEST PUSH1 0x0 DUP2 SWAP1 POP SWAP2 SWAP1 POP JUMP JUMPDEST PUSH1 0x0 PUSH20 0xFFFFFFFFFFFFFFFFFFFFFFFFFFFFFFFFFFFFFFFF DUP3 AND SWAP1 POP SWAP2 SWAP1 POP JUMP JUMPDEST DUP3 DUP2 DUP4 CALLDATACOPY PUSH1 0x0 DUP4 DUP4 ADD MSTORE POP POP POP JUMP JUMPDEST PUSH1 0x0 JUMPDEST DUP4 DUP2 LT ISZERO PUSH2 0xB6F JUMPI DUP1 DUP3 ADD MLOAD DUP2 DUP5 ADD MSTORE PUSH1 0x20 DUP2 ADD SWAP1 POP PUSH2 0xB54 JUMP JUMPDEST DUP4 DUP2 GT ISZERO PUSH2 0xB7E JUMPI PUSH1 0x0 DUP5 DUP5 ADD MSTORE JUMPDEST POP POP POP POP JUMP JUMPDEST PUSH1 0x0 PUSH1 0x2 DUP3 DIV SWAP1 POP PUSH1 0x1 DUP3 AND DUP1 PUSH2 0xB9C JUMPI PUSH1 0x7F DUP3 AND SWAP2 POP JUMPDEST PUSH1 0x20 DUP3 LT DUP2 EQ ISZERO PUSH2 0xBB0 JUMPI PUSH2 0xBAF PUSH2 0xC16 JUMP JUMPDEST JUMPDEST POP SWAP2 SWAP1 POP JUMP JUMPDEST PUSH2 0xBBF DUP3 PUSH2 0xC88 JUMP JUMPDEST DUP2 ADD DUP2 DUP2 LT PUSH8 0xFFFFFFFFFFFFFFFF DUP3 GT OR ISZERO PUSH2 0xBDE JUMPI PUSH2 0xBDD PUSH2 0xC45 JUMP JUMPDEST JUMPDEST DUP1 PUSH1 0x40 MSTORE POP POP POP JUMP JUMPDEST PUSH32 0x4E487B7100000000000000000000000000000000000000000000000000000000 PUSH1 0x0 MSTORE PUSH1 0x21 PUSH1 0x4 MSTORE PUSH1 0x24 PUSH1 0x0 REVERT JUMPDEST PUSH32 0x4E487B7100000000000000000000000000000000000000000000000000000000 PUSH1 0x0 MSTORE PUSH1 0x22 PUSH1 0x4 MSTORE PUSH1 0x24 PUSH1 0x0 REVERT JUMPDEST PUSH32 0x4E487B7100000000000000000000000000000000000000000000000000000000 PUSH1 0x0 MSTORE PUSH1 0x41 PUSH1 0x4 MSTORE PUSH1 0x24 PUSH1 0x0 REVERT JUMPDEST PUSH1 0x0 DUP1 REVERT JUMPDEST PUSH1 0x0 DUP1 REVERT JUMPDEST PUSH1 0x0 DUP1 REVERT JUMPDEST PUSH1 0x0 DUP1 REVERT JUMPDEST PUSH1 0x0 PUSH1 0x1F NOT PUSH1 0x1F DUP4 ADD AND SWAP1 POP SWAP2 SWAP1 POP JUMP JUMPDEST PUSH32 0x596F7520617265206E6F74206120707269766174652070726F76696465722100 PUSH1 0x0 DUP3 ADD MSTORE POP JUMP JUMPDEST PUSH32 0x4170706C69636174696F6E20616C72656164792073656E742100000000000000 PUSH1 0x0 DUP3 ADD MSTORE POP JUMP JUMPDEST PUSH32 0x596F7572206E6F742061646D696E000000000000000000000000000000000000 PUSH1 0x0 DUP3 ADD MSTORE POP JUMP JUMPDEST PUSH2 0xD1D DUP2 PUSH2 0xAFA JUMP JUMPDEST DUP2 EQ PUSH2 0xD28 JUMPI PUSH1 0x0 DUP1 REVERT JUMPDEST POP JUMP JUMPDEST PUSH2 0xD34 DUP2 PUSH2 0xB0C JUMP JUMPDEST DUP2 EQ PUSH2 0xD3F JUMPI PUSH1 0x0 DUP1 REVERT JUMPDEST POP JUMP INVALID LOG2 PUSH5 0x6970667358 0x22 SLT KECCAK256 0xB7 CALLER CODECOPY 0x2E 0x2B KECCAK256 0x2D LOG3 0xA6 0xA7 AND DIV SLOAD PUSH28 0x880FDA00763E017E5287C3C587920879EA4664736F6C634300080700 CALLER "
				},
				"gasEstimates": {
					"creation": {
						"codeDepositCost": "689600",
						"executionCost": "721",
						"totalCost": "690321"
					},
					"external": {
						"acceptApplication(bool)": "3049",
						"application(string,string,address)": "infinite",
						"get_keccak256(string)": "infinite",
						"viewApplicationAmountAdr()": "infinite"
					}
				},
				"methodIdentifiers": {
					"acceptApplication(bool)": "9d9e7a4b",
					"application(string,string,address)": "785963c3",
					"get_keccak256(string)": "8e4f8c6b",
					"viewApplicationAmountAdr()": "4d0d594f"
				}
			},
			"storageLayout": {
				"storage": [
					{
						"astId": 268,
						"contract": "Documents/GitHub/contract-token-cryptoMonster/backend/components/PhasePrivate.sol:PhasePrivate",
						"label": "structUsers_",
						"offset": 0,
						"slot": "0",
						"type": "t_mapping(t_address,t_struct(structUser)263_storage)"
					},
					{
						"astId": 278,
						"contract": "Documents/GitHub/contract-token-cryptoMonster/backend/components/PhasePrivate.sol:PhasePrivate",
						"label": "structPhases_",
						"offset": 0,
						"slot": "1",
						"type": "t_mapping(t_address,t_struct(structPhase)273_storage)"
					},
					{
						"astId": 296,
						"contract": "Documents/GitHub/contract-token-cryptoMonster/backend/components/PhasePrivate.sol:PhasePrivate",
						"label": "strucApplications_",
						"offset": 0,
						"slot": "2",
						"type": "t_mapping(t_address,t_struct(structApplication)291_storage)"
					},
					{
						"astId": 299,
						"contract": "Documents/GitHub/contract-token-cryptoMonster/backend/components/PhasePrivate.sol:PhasePrivate",
						"label": "structApplicationsAmountAdr",
						"offset": 0,
						"slot": "3",
						"type": "t_array(t_address)dyn_storage"
					}
				],
				"types": {
					"t_address": {
						"encoding": "inplace",
						"label": "address",
						"numberOfBytes": "20"
					},
					"t_array(t_address)dyn_storage": {
						"base": "t_address",
						"encoding": "dynamic_array",
						"label": "address[]",
						"numberOfBytes": "32"
					},
					"t_bool": {
						"encoding": "inplace",
						"label": "bool",
						"numberOfBytes": "1"
					},
					"t_bytes32": {
						"encoding": "inplace",
						"label": "bytes32",
						"numberOfBytes": "32"
					},
					"t_enum(Role)247": {
						"encoding": "inplace",
						"label": "enum structures.Role",
						"numberOfBytes": "1"
					},
					"t_mapping(t_address,t_struct(structApplication)291_storage)": {
						"encoding": "mapping",
						"key": "t_address",
						"label": "mapping(address => struct structures.structApplication)",
						"numberOfBytes": "32",
						"value": "t_struct(structApplication)291_storage"
					},
					"t_mapping(t_address,t_struct(structPhase)273_storage)": {
						"encoding": "mapping",
						"key": "t_address",
						"label": "mapping(address => struct structures.structPhase)",
						"numberOfBytes": "32",
						"value": "t_struct(structPhase)273_storage"
					},
					"t_mapping(t_address,t_struct(structUser)263_storage)": {
						"encoding": "mapping",
						"key": "t_address",
						"label": "mapping(address => struct structures.structUser)",
						"numberOfBytes": "32",
						"value": "t_struct(structUser)263_storage"
					},
					"t_string_storage": {
						"encoding": "bytes",
						"label": "string",
						"numberOfBytes": "32"
					},
					"t_struct(structApplication)291_storage": {
						"encoding": "inplace",
						"label": "struct structures.structApplication",
						"members": [
							{
								"astId": 280,
								"contract": "Documents/GitHub/contract-token-cryptoMonster/backend/components/PhasePrivate.sol:PhasePrivate",
								"label": "name",
								"offset": 0,
								"slot": "0",
								"type": "t_string_storage"
							},
							{
								"astId": 282,
								"contract": "Documents/GitHub/contract-token-cryptoMonster/backend/components/PhasePrivate.sol:PhasePrivate",
								"label": "contactForCommunication",
								"offset": 0,
								"slot": "1",
								"type": "t_string_storage"
							},
							{
								"astId": 284,
								"contract": "Documents/GitHub/contract-token-cryptoMonster/backend/components/PhasePrivate.sol:PhasePrivate",
								"label": "userAdr",
								"offset": 0,
								"slot": "2",
								"type": "t_address"
							},
							{
								"astId": 286,
								"contract": "Documents/GitHub/contract-token-cryptoMonster/backend/components/PhasePrivate.sol:PhasePrivate",
								"label": "status",
								"offset": 20,
								"slot": "2",
								"type": "t_bool"
							},
							{
								"astId": 288,
								"contract": "Documents/GitHub/contract-token-cryptoMonster/backend/components/PhasePrivate.sol:PhasePrivate",
								"label": "reviewed",
								"offset": 21,
								"slot": "2",
								"type": "t_bool"
							},
							{
								"astId": 290,
								"contract": "Documents/GitHub/contract-token-cryptoMonster/backend/components/PhasePrivate.sol:PhasePrivate",
								"label": "exist",
								"offset": 22,
								"slot": "2",
								"type": "t_bool"
							}
						],
						"numberOfBytes": "96"
					},
					"t_struct(structPhase)273_storage": {
						"encoding": "inplace",
						"label": "struct structures.structPhase",
						"members": [
							{
								"astId": 270,
								"contract": "Documents/GitHub/contract-token-cryptoMonster/backend/components/PhasePrivate.sol:PhasePrivate",
								"label": "statusPhase",
								"offset": 0,
								"slot": "0",
								"type": "t_bool"
							},
							{
								"astId": 272,
								"contract": "Documents/GitHub/contract-token-cryptoMonster/backend/components/PhasePrivate.sol:PhasePrivate",
								"label": "reviewed",
								"offset": 1,
								"slot": "0",
								"type": "t_bool"
							}
						],
						"numberOfBytes": "32"
					},
					"t_struct(structUser)263_storage": {
						"encoding": "inplace",
						"label": "struct structures.structUser",
						"members": [
							{
								"astId": 250,
								"contract": "Documents/GitHub/contract-token-cryptoMonster/backend/components/PhasePrivate.sol:PhasePrivate",
								"label": "role",
								"offset": 0,
								"slot": "0",
								"type": "t_enum(Role)247"
							},
							{
								"astId": 252,
								"contract": "Documents/GitHub/contract-token-cryptoMonster/backend/components/PhasePrivate.sol:PhasePrivate",
								"label": "login",
								"offset": 0,
								"slot": "1",
								"type": "t_string_storage"
							},
							{
								"astId": 254,
								"contract": "Documents/GitHub/contract-token-cryptoMonster/backend/components/PhasePrivate.sol:PhasePrivate",
								"label": "password",
								"offset": 0,
								"slot": "2",
								"type": "t_bytes32"
							},
							{
								"astId": 256,
								"contract": "Documents/GitHub/contract-token-cryptoMonster/backend/components/PhasePrivate.sol:PhasePrivate",
								"label": "balance_overall",
								"offset": 0,
								"slot": "3",
								"type": "t_uint256"
							},
							{
								"astId": 258,
								"contract": "Documents/GitHub/contract-token-cryptoMonster/backend/components/PhasePrivate.sol:PhasePrivate",
								"label": "balance_seed",
								"offset": 0,
								"slot": "4",
								"type": "t_uint256"
							},
							{
								"astId": 260,
								"contract": "Documents/GitHub/contract-token-cryptoMonster/backend/components/PhasePrivate.sol:PhasePrivate",
								"label": "balance_private",
								"offset": 0,
								"slot": "5",
								"type": "t_uint256"
							},
							{
								"astId": 262,
								"contract": "Documents/GitHub/contract-token-cryptoMonster/backend/components/PhasePrivate.sol:PhasePrivate",
								"label": "balance_public",
								"offset": 0,
								"slot": "6",
								"type": "t_uint256"
							}
						],
						"numberOfBytes": "224"
					},
					"t_uint256": {
						"encoding": "inplace",
						"label": "uint256",
						"numberOfBytes": "32"
					}
				}
			},
			"userdoc": {
				"kind": "user",
				"methods": {},
				"version": 1
			}
		}
	}
}