{
	"Documents/GitHub/contract-token-cryptoMonster/backend/shared/lib/structures.sol": {
		"structures": {
			"abi": [
				{
					"inputs": [],
					"name": "tokenPrice_",
					"outputs": [
						{
							"internalType": "uint256",
							"name": "",
							"type": "uint256"
						}
					],
					"stateMutability": "view",
					"type": "function"
				}
			],
			"devdoc": {
				"kind": "dev",
				"methods": {},
				"version": 1
			},
			"evm": {
				"assembly": "    /* \"Documents/GitHub/contract-token-cryptoMonster/backend/shared/lib/structures.sol\":72:3163  contract structures {\r... */\n  mstore(0x40, 0x80)\n    /* \"Documents/GitHub/contract-token-cryptoMonster/backend/shared/lib/structures.sol\":1145:1154  750000000 */\n  0x2cb41780\n    /* \"Documents/GitHub/contract-token-cryptoMonster/backend/shared/lib/structures.sol\":1116:1154  uint256 public tokenPrice_ = 750000000 */\n  0x02\n  sstore\n    /* \"Documents/GitHub/contract-token-cryptoMonster/backend/shared/lib/structures.sol\":72:3163  contract structures {\r... */\n  callvalue\n  dup1\n  iszero\n  tag_1\n  jumpi\n  0x00\n  dup1\n  revert\ntag_1:\n  pop\n  dataSize(sub_0)\n  dup1\n  dataOffset(sub_0)\n  0x00\n  codecopy\n  0x00\n  return\nstop\n\nsub_0: assembly {\n        /* \"Documents/GitHub/contract-token-cryptoMonster/backend/shared/lib/structures.sol\":72:3163  contract structures {\r... */\n      mstore(0x40, 0x80)\n      callvalue\n      dup1\n      iszero\n      tag_1\n      jumpi\n      0x00\n      dup1\n      revert\n    tag_1:\n      pop\n      jumpi(tag_2, lt(calldatasize, 0x04))\n      shr(0xe0, calldataload(0x00))\n      dup1\n      0x0761c8b9\n      eq\n      tag_3\n      jumpi\n    tag_2:\n      0x00\n      dup1\n      revert\n        /* \"Documents/GitHub/contract-token-cryptoMonster/backend/shared/lib/structures.sol\":1116:1154  uint256 public tokenPrice_ = 750000000 */\n    tag_3:\n      tag_4\n      sload(0x02)\n      dup2\n      jump\n    tag_4:\n      mload(0x40)\n        /* \"#utility.yul\":160:185   */\n      swap1\n      dup2\n      mstore\n        /* \"#utility.yul\":148:150   */\n      0x20\n        /* \"#utility.yul\":133:151   */\n      add\n        /* \"Documents/GitHub/contract-token-cryptoMonster/backend/shared/lib/structures.sol\":1116:1154  uint256 public tokenPrice_ = 750000000 */\n      mload(0x40)\n      dup1\n      swap2\n      sub\n      swap1\n      return\n\n    auxdata: 0xa2646970667358221220fc5b16ea987f62b6d41fe921ab5cd567d1123fb245ac03e311d82fed4c7371a164736f6c63430008070033\n}\n",
				"bytecode": {
					"linkReferences": {},
					"object": "6080604052632cb41780600255348015601757600080fd5b50607d806100266000396000f3fe6080604052348015600f57600080fd5b506004361060285760003560e01c80630761c8b914602d575b600080fd5b603560025481565b60405190815260200160405180910390f3fea2646970667358221220fc5b16ea987f62b6d41fe921ab5cd567d1123fb245ac03e311d82fed4c7371a164736f6c63430008070033",
					"opcodes": "PUSH1 0x80 PUSH1 0x40 MSTORE PUSH4 0x2CB41780 PUSH1 0x2 SSTORE CALLVALUE DUP1 ISZERO PUSH1 0x17 JUMPI PUSH1 0x0 DUP1 REVERT JUMPDEST POP PUSH1 0x7D DUP1 PUSH2 0x26 PUSH1 0x0 CODECOPY PUSH1 0x0 RETURN INVALID PUSH1 0x80 PUSH1 0x40 MSTORE CALLVALUE DUP1 ISZERO PUSH1 0xF JUMPI PUSH1 0x0 DUP1 REVERT JUMPDEST POP PUSH1 0x4 CALLDATASIZE LT PUSH1 0x28 JUMPI PUSH1 0x0 CALLDATALOAD PUSH1 0xE0 SHR DUP1 PUSH4 0x761C8B9 EQ PUSH1 0x2D JUMPI JUMPDEST PUSH1 0x0 DUP1 REVERT JUMPDEST PUSH1 0x35 PUSH1 0x2 SLOAD DUP2 JUMP JUMPDEST PUSH1 0x40 MLOAD SWAP1 DUP2 MSTORE PUSH1 0x20 ADD PUSH1 0x40 MLOAD DUP1 SWAP2 SUB SWAP1 RETURN INVALID LOG2 PUSH5 0x6970667358 0x22 SLT KECCAK256 0xFC JUMPDEST AND 0xEA SWAP9 PUSH32 0x62B6D41FE921AB5CD567D1123FB245AC03E311D82FED4C7371A164736F6C6343 STOP ADDMOD SMOD STOP CALLER "
				},
				"gasEstimates": {
					"creation": {
						"codeDepositCost": "25000",
						"executionCost": "22181",
						"totalCost": "47181"
					},
					"external": {
						"tokenPrice_()": "2261"
					}
				},
				"methodIdentifiers": {
					"tokenPrice_()": "0761c8b9"
				}
			},
			"storageLayout": {
				"storage": [
					{
						"astId": 616,
						"contract": "Documents/GitHub/contract-token-cryptoMonster/backend/shared/lib/structures.sol:structures",
						"label": "structUsers_",
						"offset": 0,
						"slot": "0",
						"type": "t_mapping(t_address,t_struct(structUser)611_storage)"
					},
					{
						"astId": 622,
						"contract": "Documents/GitHub/contract-token-cryptoMonster/backend/shared/lib/structures.sol:structures",
						"label": "allowed",
						"offset": 0,
						"slot": "1",
						"type": "t_mapping(t_address,t_mapping(t_address,t_uint256))"
					},
					{
						"astId": 625,
						"contract": "Documents/GitHub/contract-token-cryptoMonster/backend/shared/lib/structures.sol:structures",
						"label": "tokenPrice_",
						"offset": 0,
						"slot": "2",
						"type": "t_uint256"
					},
					{
						"astId": 644,
						"contract": "Documents/GitHub/contract-token-cryptoMonster/backend/shared/lib/structures.sol:structures",
						"label": "structPhases_",
						"offset": 0,
						"slot": "3",
						"type": "t_mapping(t_address,t_struct(structPhase)639_storage)"
					},
					{
						"astId": 662,
						"contract": "Documents/GitHub/contract-token-cryptoMonster/backend/shared/lib/structures.sol:structures",
						"label": "strucApplications_",
						"offset": 0,
						"slot": "4",
						"type": "t_mapping(t_address,t_struct(structApplication)657_storage)"
					},
					{
						"astId": 665,
						"contract": "Documents/GitHub/contract-token-cryptoMonster/backend/shared/lib/structures.sol:structures",
						"label": "structApplicationsAmountAdr",
						"offset": 0,
						"slot": "5",
						"type": "t_array(t_address)dyn_storage"
					},
					{
						"astId": 668,
						"contract": "Documents/GitHub/contract-token-cryptoMonster/backend/shared/lib/structures.sol:structures",
						"label": "whiteList",
						"offset": 0,
						"slot": "6",
						"type": "t_array(t_address)dyn_storage"
					},
					{
						"astId": 671,
						"contract": "Documents/GitHub/contract-token-cryptoMonster/backend/shared/lib/structures.sol:structures",
						"label": "blackList",
						"offset": 0,
						"slot": "7",
						"type": "t_array(t_address)dyn_storage"
					}
				],
				"types": {
					"t_address": {
						"encoding": "inplace",
						"label": "address",
						"numberOfBytes": "20"
					},
					"t_array(t_address)dyn_storage": {
						"base": "t_address",
						"encoding": "dynamic_array",
						"label": "address[]",
						"numberOfBytes": "32"
					},
					"t_bool": {
						"encoding": "inplace",
						"label": "bool",
						"numberOfBytes": "1"
					},
					"t_bytes32": {
						"encoding": "inplace",
						"label": "bytes32",
						"numberOfBytes": "32"
					},
					"t_enum(Role)595": {
						"encoding": "inplace",
						"label": "enum structures.Role",
						"numberOfBytes": "1"
					},
					"t_mapping(t_address,t_mapping(t_address,t_uint256))": {
						"encoding": "mapping",
						"key": "t_address",
						"label": "mapping(address => mapping(address => uint256))",
						"numberOfBytes": "32",
						"value": "t_mapping(t_address,t_uint256)"
					},
					"t_mapping(t_address,t_struct(structApplication)657_storage)": {
						"encoding": "mapping",
						"key": "t_address",
						"label": "mapping(address => struct structures.structApplication)",
						"numberOfBytes": "32",
						"value": "t_struct(structApplication)657_storage"
					},
					"t_mapping(t_address,t_struct(structPhase)639_storage)": {
						"encoding": "mapping",
						"key": "t_address",
						"label": "mapping(address => struct structures.structPhase)",
						"numberOfBytes": "32",
						"value": "t_struct(structPhase)639_storage"
					},
					"t_mapping(t_address,t_struct(structUser)611_storage)": {
						"encoding": "mapping",
						"key": "t_address",
						"label": "mapping(address => struct structures.structUser)",
						"numberOfBytes": "32",
						"value": "t_struct(structUser)611_storage"
					},
					"t_mapping(t_address,t_uint256)": {
						"encoding": "mapping",
						"key": "t_address",
						"label": "mapping(address => uint256)",
						"numberOfBytes": "32",
						"value": "t_uint256"
					},
					"t_string_storage": {
						"encoding": "bytes",
						"label": "string",
						"numberOfBytes": "32"
					},
					"t_struct(structApplication)657_storage": {
						"encoding": "inplace",
						"label": "struct structures.structApplication",
						"members": [
							{
								"astId": 646,
								"contract": "Documents/GitHub/contract-token-cryptoMonster/backend/shared/lib/structures.sol:structures",
								"label": "name",
								"offset": 0,
								"slot": "0",
								"type": "t_string_storage"
							},
							{
								"astId": 648,
								"contract": "Documents/GitHub/contract-token-cryptoMonster/backend/shared/lib/structures.sol:structures",
								"label": "contactForCommunication",
								"offset": 0,
								"slot": "1",
								"type": "t_string_storage"
							},
							{
								"astId": 650,
								"contract": "Documents/GitHub/contract-token-cryptoMonster/backend/shared/lib/structures.sol:structures",
								"label": "userAdr",
								"offset": 0,
								"slot": "2",
								"type": "t_address"
							},
							{
								"astId": 652,
								"contract": "Documents/GitHub/contract-token-cryptoMonster/backend/shared/lib/structures.sol:structures",
								"label": "status",
								"offset": 20,
								"slot": "2",
								"type": "t_bool"
							},
							{
								"astId": 654,
								"contract": "Documents/GitHub/contract-token-cryptoMonster/backend/shared/lib/structures.sol:structures",
								"label": "reviewed",
								"offset": 21,
								"slot": "2",
								"type": "t_bool"
							},
							{
								"astId": 656,
								"contract": "Documents/GitHub/contract-token-cryptoMonster/backend/shared/lib/structures.sol:structures",
								"label": "exist",
								"offset": 22,
								"slot": "2",
								"type": "t_bool"
							}
						],
						"numberOfBytes": "96"
					},
					"t_struct(structPhase)639_storage": {
						"encoding": "inplace",
						"label": "struct structures.structPhase",
						"members": [
							{
								"astId": 636,
								"contract": "Documents/GitHub/contract-token-cryptoMonster/backend/shared/lib/structures.sol:structures",
								"label": "statusPhase",
								"offset": 0,
								"slot": "0",
								"type": "t_bool"
							},
							{
								"astId": 638,
								"contract": "Documents/GitHub/contract-token-cryptoMonster/backend/shared/lib/structures.sol:structures",
								"label": "reviewed",
								"offset": 1,
								"slot": "0",
								"type": "t_bool"
							}
						],
						"numberOfBytes": "32"
					},
					"t_struct(structUser)611_storage": {
						"encoding": "inplace",
						"label": "struct structures.structUser",
						"members": [
							{
								"astId": 598,
								"contract": "Documents/GitHub/contract-token-cryptoMonster/backend/shared/lib/structures.sol:structures",
								"label": "role",
								"offset": 0,
								"slot": "0",
								"type": "t_enum(Role)595"
							},
							{
								"astId": 600,
								"contract": "Documents/GitHub/contract-token-cryptoMonster/backend/shared/lib/structures.sol:structures",
								"label": "login",
								"offset": 0,
								"slot": "1",
								"type": "t_string_storage"
							},
							{
								"astId": 602,
								"contract": "Documents/GitHub/contract-token-cryptoMonster/backend/shared/lib/structures.sol:structures",
								"label": "password",
								"offset": 0,
								"slot": "2",
								"type": "t_bytes32"
							},
							{
								"astId": 604,
								"contract": "Documents/GitHub/contract-token-cryptoMonster/backend/shared/lib/structures.sol:structures",
								"label": "balance_overall",
								"offset": 0,
								"slot": "3",
								"type": "t_uint256"
							},
							{
								"astId": 606,
								"contract": "Documents/GitHub/contract-token-cryptoMonster/backend/shared/lib/structures.sol:structures",
								"label": "balance_seed",
								"offset": 0,
								"slot": "4",
								"type": "t_uint256"
							},
							{
								"astId": 608,
								"contract": "Documents/GitHub/contract-token-cryptoMonster/backend/shared/lib/structures.sol:structures",
								"label": "balance_private",
								"offset": 0,
								"slot": "5",
								"type": "t_uint256"
							},
							{
								"astId": 610,
								"contract": "Documents/GitHub/contract-token-cryptoMonster/backend/shared/lib/structures.sol:structures",
								"label": "balance_public",
								"offset": 0,
								"slot": "6",
								"type": "t_uint256"
							}
						],
						"numberOfBytes": "224"
					},
					"t_uint256": {
						"encoding": "inplace",
						"label": "uint256",
						"numberOfBytes": "32"
					}
				}
			},
			"userdoc": {
				"kind": "user",
				"methods": {},
				"version": 1
			}
		}
	}
}