{
	"Documents/GitHub/contract-token-cryptoMonster/backend/components/PhasePrivate.sol": {
		"PhasePrivate": {
			"abi": [
				{
					"inputs": [
						{
							"internalType": "address",
							"name": "_userAdr",
							"type": "address"
						}
					],
					"name": "acceptApplication",
					"outputs": [],
					"stateMutability": "nonpayable",
					"type": "function"
				},
				{
					"inputs": [
						{
							"internalType": "string",
							"name": "_name",
							"type": "string"
						},
						{
							"internalType": "string",
							"name": "_contactForCommunication",
							"type": "string"
						},
						{
							"internalType": "address",
							"name": "_userAdr",
							"type": "address"
						}
					],
					"name": "application",
					"outputs": [],
					"stateMutability": "nonpayable",
					"type": "function"
				},
				{
					"inputs": [
						{
							"internalType": "address",
							"name": "_userAdr",
							"type": "address"
						}
					],
					"name": "deviationApplication",
					"outputs": [],
					"stateMutability": "nonpayable",
					"type": "function"
				},
				{
					"inputs": [],
					"name": "endPrivatePhase",
					"outputs": [],
					"stateMutability": "nonpayable",
					"type": "function"
				},
				{
					"inputs": [],
					"name": "getApplicationAmountAdr",
					"outputs": [
						{
							"internalType": "address[]",
							"name": "",
							"type": "address[]"
						}
					],
					"stateMutability": "view",
					"type": "function"
				},
				{
					"inputs": [],
					"name": "get_blackList",
					"outputs": [
						{
							"internalType": "address[]",
							"name": "",
							"type": "address[]"
						}
					],
					"stateMutability": "view",
					"type": "function"
				},
				{
					"inputs": [
						{
							"internalType": "string",
							"name": "_hash",
							"type": "string"
						}
					],
					"name": "get_keccak256",
					"outputs": [
						{
							"internalType": "bytes32",
							"name": "",
							"type": "bytes32"
						}
					],
					"stateMutability": "pure",
					"type": "function"
				},
				{
					"inputs": [],
					"name": "get_whiteList",
					"outputs": [
						{
							"internalType": "address[]",
							"name": "",
							"type": "address[]"
						}
					],
					"stateMutability": "view",
					"type": "function"
				},
				{
					"inputs": [],
					"name": "startPrivatePhase",
					"outputs": [],
					"stateMutability": "nonpayable",
					"type": "function"
				}
			],
			"devdoc": {
				"kind": "dev",
				"methods": {},
				"version": 1
			},
			"evm": {
				"assembly": "    /* \"Documents/GitHub/contract-token-cryptoMonster/backend/components/PhasePrivate.sol\":158:5632  contract PhasePrivate is validateFuncs {\r... */\n  mstore(0x40, 0x80)\n  callvalue\n  dup1\n  iszero\n  tag_1\n  jumpi\n  0x00\n  dup1\n  revert\ntag_1:\n  pop\n  dataSize(sub_0)\n  dup1\n  dataOffset(sub_0)\n  0x00\n  codecopy\n  0x00\n  return\nstop\n\nsub_0: assembly {\n        /* \"Documents/GitHub/contract-token-cryptoMonster/backend/components/PhasePrivate.sol\":158:5632  contract PhasePrivate is validateFuncs {\r... */\n      mstore(0x40, 0x80)\n      callvalue\n      dup1\n      iszero\n      tag_1\n      jumpi\n      0x00\n      dup1\n      revert\n    tag_1:\n      pop\n      jumpi(tag_2, lt(calldatasize, 0x04))\n      shr(0xe0, calldataload(0x00))\n      dup1\n      0x7f4b8df0\n      gt\n      tag_12\n      jumpi\n      dup1\n      0x7f4b8df0\n      eq\n      tag_7\n      jumpi\n      dup1\n      0x7f89128f\n      eq\n      tag_8\n      jumpi\n      dup1\n      0x8e4f8c6b\n      eq\n      tag_9\n      jumpi\n      dup1\n      0xa678b65b\n      eq\n      tag_10\n      jumpi\n      dup1\n      0xc10e3911\n      eq\n      tag_11\n      jumpi\n      jump(tag_2)\n    tag_12:\n      dup1\n      0x0691615d\n      eq\n      tag_3\n      jumpi\n      dup1\n      0x1d3eea35\n      eq\n      tag_4\n      jumpi\n      dup1\n      0x686c4cea\n      eq\n      tag_5\n      jumpi\n      dup1\n      0x785963c3\n      eq\n      tag_6\n      jumpi\n    tag_2:\n      0x00\n      dup1\n      revert\n        /* \"Documents/GitHub/contract-token-cryptoMonster/backend/components/PhasePrivate.sol\":4903:5167  function startPrivatePhase () public onlyPrivateProvider {\r... */\n    tag_3:\n      tag_13\n      tag_14\n      jump\t// in\n    tag_13:\n      stop\n        /* \"Documents/GitHub/contract-token-cryptoMonster/backend/components/PhasePrivate.sol\":4478:4806  function deviationApplication (address _userAdr) public onlyPrivateProvider {\r... */\n    tag_4:\n      tag_15\n      0x04\n      dup1\n      calldatasize\n      sub\n      dup2\n      add\n      swap1\n      tag_16\n      swap2\n      swap1\n      tag_17\n      jump\t// in\n    tag_16:\n      tag_18\n      jump\t// in\n    tag_15:\n      stop\n        /* \"Documents/GitHub/contract-token-cryptoMonster/backend/components/PhasePrivate.sol\":1866:2111  function getApplicationAmountAdr () public onlyPrivateProvider view returns (address[] memory) {\r... */\n    tag_5:\n      tag_19\n      tag_20\n      jump\t// in\n    tag_19:\n      mload(0x40)\n      tag_21\n      swap2\n      swap1\n      tag_22\n      jump\t// in\n    tag_21:\n      mload(0x40)\n      dup1\n      swap2\n      sub\n      swap1\n      return\n        /* \"Documents/GitHub/contract-token-cryptoMonster/backend/components/PhasePrivate.sol\":297:1752  function application(string memory _name, string memory _contactForCommunication, address _userAdr) public {\r... */\n    tag_6:\n      tag_23\n      0x04\n      dup1\n      calldatasize\n      sub\n      dup2\n      add\n      swap1\n      tag_24\n      swap2\n      swap1\n      tag_25\n      jump\t// in\n    tag_24:\n      tag_26\n      jump\t// in\n    tag_23:\n      stop\n        /* \"Documents/GitHub/contract-token-cryptoMonster/backend/components/PhasePrivate.sol\":5262:5629  function endPrivatePhase () public onlyPrivateProvider {\r... */\n    tag_7:\n      tag_27\n      tag_28\n      jump\t// in\n    tag_27:\n      stop\n        /* \"Documents/GitHub/contract-token-cryptoMonster/backend/shared/helpers/helpresFunc.sol\":689:799  function get_blackList() public onlyOwner view returns (address[] memory) {\r... */\n    tag_8:\n      tag_29\n      tag_30\n      jump\t// in\n    tag_29:\n      mload(0x40)\n      tag_31\n      swap2\n      swap1\n      tag_22\n      jump\t// in\n    tag_31:\n      mload(0x40)\n      dup1\n      swap2\n      sub\n      swap1\n      return\n        /* \"Documents/GitHub/contract-token-cryptoMonster/backend/shared/helpers/helpresFunc.sol\":212:350  function get_keccak256(string memory _hash) public pure returns(bytes32) {\r... */\n    tag_9:\n      tag_32\n      0x04\n      dup1\n      calldatasize\n      sub\n      dup2\n      add\n      swap1\n      tag_33\n      swap2\n      swap1\n      tag_34\n      jump\t// in\n    tag_33:\n      tag_35\n      jump\t// in\n    tag_32:\n      mload(0x40)\n      tag_36\n      swap2\n      swap1\n      tag_37\n      jump\t// in\n    tag_36:\n      mload(0x40)\n      dup1\n      swap2\n      sub\n      swap1\n      return\n        /* \"Documents/GitHub/contract-token-cryptoMonster/backend/components/PhasePrivate.sol\":3595:4394  function acceptApplication (address _userAdr) public onlyPrivateProvider {\r... */\n    tag_10:\n      tag_38\n      0x04\n      dup1\n      calldatasize\n      sub\n      dup2\n      add\n      swap1\n      tag_39\n      swap2\n      swap1\n      tag_17\n      jump\t// in\n    tag_39:\n      tag_40\n      jump\t// in\n    tag_38:\n      stop\n        /* \"Documents/GitHub/contract-token-cryptoMonster/backend/shared/helpers/helpresFunc.sol\":483:611  function get_whiteList() public onlyOwnerAndPrivateProvider view returns (address[] memory) {\r... */\n    tag_11:\n      tag_41\n      tag_42\n      jump\t// in\n    tag_41:\n      mload(0x40)\n      tag_43\n      swap2\n      swap1\n      tag_22\n      jump\t// in\n    tag_43:\n      mload(0x40)\n      dup1\n      swap2\n      sub\n      swap1\n      return\n        /* \"Documents/GitHub/contract-token-cryptoMonster/backend/components/PhasePrivate.sol\":4903:5167  function startPrivatePhase () public onlyPrivateProvider {\r... */\n    tag_14:\n        /* \"Documents/GitHub/contract-token-cryptoMonster/backend/shared/helpers/modifireFunc.sol\":567:586  Role.SYSTEM_PRIVATE */\n      0x02\n        /* \"Documents/GitHub/contract-token-cryptoMonster/backend/shared/helpers/modifireFunc.sol\":534:586  structUsers_[msg.sender].role == Role.SYSTEM_PRIVATE */\n      0x04\n      dup2\n      gt\n      iszero\n      tag_45\n      jumpi\n      tag_46\n      tag_47\n      jump\t// in\n    tag_46:\n    tag_45:\n        /* \"Documents/GitHub/contract-token-cryptoMonster/backend/shared/helpers/modifireFunc.sol\":534:546  structUsers_ */\n      0x00\n        /* \"Documents/GitHub/contract-token-cryptoMonster/backend/shared/helpers/modifireFunc.sol\":534:558  structUsers_[msg.sender] */\n      dup1\n        /* \"Documents/GitHub/contract-token-cryptoMonster/backend/shared/helpers/modifireFunc.sol\":547:557  msg.sender */\n      caller\n        /* \"Documents/GitHub/contract-token-cryptoMonster/backend/shared/helpers/modifireFunc.sol\":534:558  structUsers_[msg.sender] */\n      0xffffffffffffffffffffffffffffffffffffffff\n      and\n      0xffffffffffffffffffffffffffffffffffffffff\n      and\n      dup2\n      mstore\n      0x20\n      add\n      swap1\n      dup2\n      mstore\n      0x20\n      add\n      0x00\n      keccak256\n        /* \"Documents/GitHub/contract-token-cryptoMonster/backend/shared/helpers/modifireFunc.sol\":534:563  structUsers_[msg.sender].role */\n      0x00\n      add\n      0x00\n      swap1\n      sload\n      swap1\n      0x0100\n      exp\n      swap1\n      div\n      0xff\n      and\n        /* \"Documents/GitHub/contract-token-cryptoMonster/backend/shared/helpers/modifireFunc.sol\":534:586  structUsers_[msg.sender].role == Role.SYSTEM_PRIVATE */\n      0x04\n      dup2\n      gt\n      iszero\n      tag_48\n      jumpi\n      tag_49\n      tag_47\n      jump\t// in\n    tag_49:\n    tag_48:\n      eq\n        /* \"Documents/GitHub/contract-token-cryptoMonster/backend/shared/helpers/modifireFunc.sol\":526:616  require(structUsers_[msg.sender].role == Role.SYSTEM_PRIVATE, \"Your not Private provider\") */\n      tag_50\n      jumpi\n      mload(0x40)\n      0x08c379a000000000000000000000000000000000000000000000000000000000\n      dup2\n      mstore\n      0x04\n      add\n      tag_51\n      swap1\n      tag_52\n      jump\t// in\n    tag_51:\n      mload(0x40)\n      dup1\n      swap2\n      sub\n      swap1\n      revert\n    tag_50:\n        /* \"Documents/GitHub/contract-token-cryptoMonster/backend/components/PhasePrivate.sol\":5020:5025  false */\n      0x00\n        /* \"Documents/GitHub/contract-token-cryptoMonster/backend/components/PhasePrivate.sol\":4979:5025  structPhases_[msg.sender].statusPhase == false */\n      iszero\n      iszero\n        /* \"Documents/GitHub/contract-token-cryptoMonster/backend/components/PhasePrivate.sol\":4979:4992  structPhases_ */\n      0x01\n        /* \"Documents/GitHub/contract-token-cryptoMonster/backend/components/PhasePrivate.sol\":4979:5004  structPhases_[msg.sender] */\n      0x00\n        /* \"Documents/GitHub/contract-token-cryptoMonster/backend/components/PhasePrivate.sol\":4993:5003  msg.sender */\n      caller\n        /* \"Documents/GitHub/contract-token-cryptoMonster/backend/components/PhasePrivate.sol\":4979:5004  structPhases_[msg.sender] */\n      0xffffffffffffffffffffffffffffffffffffffff\n      and\n      0xffffffffffffffffffffffffffffffffffffffff\n      and\n      dup2\n      mstore\n      0x20\n      add\n      swap1\n      dup2\n      mstore\n      0x20\n      add\n      0x00\n      keccak256\n        /* \"Documents/GitHub/contract-token-cryptoMonster/backend/components/PhasePrivate.sol\":4979:5016  structPhases_[msg.sender].statusPhase */\n      0x00\n      add\n      0x00\n      swap1\n      sload\n      swap1\n      0x0100\n      exp\n      swap1\n      div\n      0xff\n      and\n        /* \"Documents/GitHub/contract-token-cryptoMonster/backend/components/PhasePrivate.sol\":4979:5025  structPhases_[msg.sender].statusPhase == false */\n      iszero\n      iszero\n      eq\n        /* \"Documents/GitHub/contract-token-cryptoMonster/backend/components/PhasePrivate.sol\":4979:5072  structPhases_[msg.sender].statusPhase == false && structPhases_[msg.sender].reviewed == false */\n      dup1\n      iszero\n      tag_54\n      jumpi\n      pop\n        /* \"Documents/GitHub/contract-token-cryptoMonster/backend/components/PhasePrivate.sol\":5067:5072  false */\n      0x00\n        /* \"Documents/GitHub/contract-token-cryptoMonster/backend/components/PhasePrivate.sol\":5029:5072  structPhases_[msg.sender].reviewed == false */\n      iszero\n      iszero\n        /* \"Documents/GitHub/contract-token-cryptoMonster/backend/components/PhasePrivate.sol\":5029:5042  structPhases_ */\n      0x01\n        /* \"Documents/GitHub/contract-token-cryptoMonster/backend/components/PhasePrivate.sol\":5029:5054  structPhases_[msg.sender] */\n      0x00\n        /* \"Documents/GitHub/contract-token-cryptoMonster/backend/components/PhasePrivate.sol\":5043:5053  msg.sender */\n      caller\n        /* \"Documents/GitHub/contract-token-cryptoMonster/backend/components/PhasePrivate.sol\":5029:5054  structPhases_[msg.sender] */\n      0xffffffffffffffffffffffffffffffffffffffff\n      and\n      0xffffffffffffffffffffffffffffffffffffffff\n      and\n      dup2\n      mstore\n      0x20\n      add\n      swap1\n      dup2\n      mstore\n      0x20\n      add\n      0x00\n      keccak256\n        /* \"Documents/GitHub/contract-token-cryptoMonster/backend/components/PhasePrivate.sol\":5029:5063  structPhases_[msg.sender].reviewed */\n      0x00\n      add\n      0x01\n      swap1\n      sload\n      swap1\n      0x0100\n      exp\n      swap1\n      div\n      0xff\n      and\n        /* \"Documents/GitHub/contract-token-cryptoMonster/backend/components/PhasePrivate.sol\":5029:5072  structPhases_[msg.sender].reviewed == false */\n      iszero\n      iszero\n      eq\n        /* \"Documents/GitHub/contract-token-cryptoMonster/backend/components/PhasePrivate.sol\":4979:5072  structPhases_[msg.sender].statusPhase == false && structPhases_[msg.sender].reviewed == false */\n    tag_54:\n        /* \"Documents/GitHub/contract-token-cryptoMonster/backend/components/PhasePrivate.sol\":4971:5097  require(structPhases_[msg.sender].statusPhase == false && structPhases_[msg.sender].reviewed == false, \"Phase already active\") */\n      tag_55\n      jumpi\n      mload(0x40)\n      0x08c379a000000000000000000000000000000000000000000000000000000000\n      dup2\n      mstore\n      0x04\n      add\n      tag_56\n      swap1\n      tag_57\n      jump\t// in\n    tag_56:\n      mload(0x40)\n      dup1\n      swap2\n      sub\n      swap1\n      revert\n    tag_55:\n        /* \"Documents/GitHub/contract-token-cryptoMonster/backend/components/PhasePrivate.sol\":5136:5159  structPhase(true, true) */\n      mload(0x40)\n      dup1\n      0x40\n      add\n      0x40\n      mstore\n      dup1\n        /* \"Documents/GitHub/contract-token-cryptoMonster/backend/components/PhasePrivate.sol\":5148:5152  true */\n      0x01\n        /* \"Documents/GitHub/contract-token-cryptoMonster/backend/components/PhasePrivate.sol\":5136:5159  structPhase(true, true) */\n      iszero\n      iszero\n      dup2\n      mstore\n      0x20\n      add\n        /* \"Documents/GitHub/contract-token-cryptoMonster/backend/components/PhasePrivate.sol\":5154:5158  true */\n      0x01\n        /* \"Documents/GitHub/contract-token-cryptoMonster/backend/components/PhasePrivate.sol\":5136:5159  structPhase(true, true) */\n      iszero\n      iszero\n      dup2\n      mstore\n      pop\n        /* \"Documents/GitHub/contract-token-cryptoMonster/backend/components/PhasePrivate.sol\":5108:5121  structPhases_ */\n      0x01\n        /* \"Documents/GitHub/contract-token-cryptoMonster/backend/components/PhasePrivate.sol\":5108:5133  structPhases_[msg.sender] */\n      0x00\n        /* \"Documents/GitHub/contract-token-cryptoMonster/backend/components/PhasePrivate.sol\":5122:5132  msg.sender */\n      caller\n        /* \"Documents/GitHub/contract-token-cryptoMonster/backend/components/PhasePrivate.sol\":5108:5133  structPhases_[msg.sender] */\n      0xffffffffffffffffffffffffffffffffffffffff\n      and\n      0xffffffffffffffffffffffffffffffffffffffff\n      and\n      dup2\n      mstore\n      0x20\n      add\n      swap1\n      dup2\n      mstore\n      0x20\n      add\n      0x00\n      keccak256\n        /* \"Documents/GitHub/contract-token-cryptoMonster/backend/components/PhasePrivate.sol\":5108:5159  structPhases_[msg.sender] = structPhase(true, true) */\n      0x00\n      dup3\n      add\n      mload\n      dup2\n      0x00\n      add\n      exp(0x0100, 0x00)\n      dup2\n      sload\n      dup2\n      0xff\n      mul\n      not\n      and\n      swap1\n      dup4\n      iszero\n      iszero\n      mul\n      or\n      swap1\n      sstore\n      pop\n      0x20\n      dup3\n      add\n      mload\n      dup2\n      0x00\n      add\n      exp(0x0100, 0x01)\n      dup2\n      sload\n      dup2\n      0xff\n      mul\n      not\n      and\n      swap1\n      dup4\n      iszero\n      iszero\n      mul\n      or\n      swap1\n      sstore\n      pop\n      swap1\n      pop\n      pop\n        /* \"Documents/GitHub/contract-token-cryptoMonster/backend/components/PhasePrivate.sol\":4903:5167  function startPrivatePhase () public onlyPrivateProvider {\r... */\n      jump\t// out\n        /* \"Documents/GitHub/contract-token-cryptoMonster/backend/components/PhasePrivate.sol\":4478:4806  function deviationApplication (address _userAdr) public onlyPrivateProvider {\r... */\n    tag_18:\n        /* \"Documents/GitHub/contract-token-cryptoMonster/backend/shared/helpers/modifireFunc.sol\":567:586  Role.SYSTEM_PRIVATE */\n      0x02\n        /* \"Documents/GitHub/contract-token-cryptoMonster/backend/shared/helpers/modifireFunc.sol\":534:586  structUsers_[msg.sender].role == Role.SYSTEM_PRIVATE */\n      0x04\n      dup2\n      gt\n      iszero\n      tag_59\n      jumpi\n      tag_60\n      tag_47\n      jump\t// in\n    tag_60:\n    tag_59:\n        /* \"Documents/GitHub/contract-token-cryptoMonster/backend/shared/helpers/modifireFunc.sol\":534:546  structUsers_ */\n      0x00\n        /* \"Documents/GitHub/contract-token-cryptoMonster/backend/shared/helpers/modifireFunc.sol\":534:558  structUsers_[msg.sender] */\n      dup1\n        /* \"Documents/GitHub/contract-token-cryptoMonster/backend/shared/helpers/modifireFunc.sol\":547:557  msg.sender */\n      caller\n        /* \"Documents/GitHub/contract-token-cryptoMonster/backend/shared/helpers/modifireFunc.sol\":534:558  structUsers_[msg.sender] */\n      0xffffffffffffffffffffffffffffffffffffffff\n      and\n      0xffffffffffffffffffffffffffffffffffffffff\n      and\n      dup2\n      mstore\n      0x20\n      add\n      swap1\n      dup2\n      mstore\n      0x20\n      add\n      0x00\n      keccak256\n        /* \"Documents/GitHub/contract-token-cryptoMonster/backend/shared/helpers/modifireFunc.sol\":534:563  structUsers_[msg.sender].role */\n      0x00\n      add\n      0x00\n      swap1\n      sload\n      swap1\n      0x0100\n      exp\n      swap1\n      div\n      0xff\n      and\n        /* \"Documents/GitHub/contract-token-cryptoMonster/backend/shared/helpers/modifireFunc.sol\":534:586  structUsers_[msg.sender].role == Role.SYSTEM_PRIVATE */\n      0x04\n      dup2\n      gt\n      iszero\n      tag_61\n      jumpi\n      tag_62\n      tag_47\n      jump\t// in\n    tag_62:\n    tag_61:\n      eq\n        /* \"Documents/GitHub/contract-token-cryptoMonster/backend/shared/helpers/modifireFunc.sol\":526:616  require(structUsers_[msg.sender].role == Role.SYSTEM_PRIVATE, \"Your not Private provider\") */\n      tag_63\n      jumpi\n      mload(0x40)\n      0x08c379a000000000000000000000000000000000000000000000000000000000\n      dup2\n      mstore\n      0x04\n      add\n      tag_64\n      swap1\n      tag_52\n      jump\t// in\n    tag_64:\n      mload(0x40)\n      dup1\n      swap2\n      sub\n      swap1\n      revert\n    tag_63:\n        /* \"Documents/GitHub/contract-token-cryptoMonster/backend/components/PhasePrivate.sol\":4616:4621  false */\n      0x00\n        /* \"Documents/GitHub/contract-token-cryptoMonster/backend/components/PhasePrivate.sol\":4573:4621  strucApplications_[msg.sender].reviewed == false */\n      iszero\n      iszero\n        /* \"Documents/GitHub/contract-token-cryptoMonster/backend/components/PhasePrivate.sol\":4573:4591  strucApplications_ */\n      0x02\n        /* \"Documents/GitHub/contract-token-cryptoMonster/backend/components/PhasePrivate.sol\":4573:4603  strucApplications_[msg.sender] */\n      0x00\n        /* \"Documents/GitHub/contract-token-cryptoMonster/backend/components/PhasePrivate.sol\":4592:4602  msg.sender */\n      caller\n        /* \"Documents/GitHub/contract-token-cryptoMonster/backend/components/PhasePrivate.sol\":4573:4603  strucApplications_[msg.sender] */\n      0xffffffffffffffffffffffffffffffffffffffff\n      and\n      0xffffffffffffffffffffffffffffffffffffffff\n      and\n      dup2\n      mstore\n      0x20\n      add\n      swap1\n      dup2\n      mstore\n      0x20\n      add\n      0x00\n      keccak256\n        /* \"Documents/GitHub/contract-token-cryptoMonster/backend/components/PhasePrivate.sol\":4573:4612  strucApplications_[msg.sender].reviewed */\n      0x02\n      add\n      0x15\n      swap1\n      sload\n      swap1\n      0x0100\n      exp\n      swap1\n      div\n      0xff\n      and\n        /* \"Documents/GitHub/contract-token-cryptoMonster/backend/components/PhasePrivate.sol\":4573:4621  strucApplications_[msg.sender].reviewed == false */\n      iszero\n      iszero\n      eq\n        /* \"Documents/GitHub/contract-token-cryptoMonster/backend/components/PhasePrivate.sol\":4565:4654  require(strucApplications_[msg.sender].reviewed == false, \"Review the application first\") */\n      tag_66\n      jumpi\n      mload(0x40)\n      0x08c379a000000000000000000000000000000000000000000000000000000000\n      dup2\n      mstore\n      0x04\n      add\n      tag_67\n      swap1\n      tag_68\n      jump\t// in\n    tag_67:\n      mload(0x40)\n      dup1\n      swap2\n      sub\n      swap1\n      revert\n    tag_66:\n        /* \"Documents/GitHub/contract-token-cryptoMonster/backend/components/PhasePrivate.sol\":4793:4798  false */\n      0x00\n        /* \"Documents/GitHub/contract-token-cryptoMonster/backend/components/PhasePrivate.sol\":4755:4773  strucApplications_ */\n      0x02\n        /* \"Documents/GitHub/contract-token-cryptoMonster/backend/components/PhasePrivate.sol\":4755:4783  strucApplications_[_userAdr] */\n      0x00\n        /* \"Documents/GitHub/contract-token-cryptoMonster/backend/components/PhasePrivate.sol\":4774:4782  _userAdr */\n      dup4\n        /* \"Documents/GitHub/contract-token-cryptoMonster/backend/components/PhasePrivate.sol\":4755:4783  strucApplications_[_userAdr] */\n      0xffffffffffffffffffffffffffffffffffffffff\n      and\n      0xffffffffffffffffffffffffffffffffffffffff\n      and\n      dup2\n      mstore\n      0x20\n      add\n      swap1\n      dup2\n      mstore\n      0x20\n      add\n      0x00\n      keccak256\n        /* \"Documents/GitHub/contract-token-cryptoMonster/backend/components/PhasePrivate.sol\":4755:4790  strucApplications_[_userAdr].status */\n      0x02\n      add\n      0x14\n        /* \"Documents/GitHub/contract-token-cryptoMonster/backend/components/PhasePrivate.sol\":4755:4798  strucApplications_[_userAdr].status = false */\n      0x0100\n      exp\n      dup2\n      sload\n      dup2\n      0xff\n      mul\n      not\n      and\n      swap1\n      dup4\n      iszero\n      iszero\n      mul\n      or\n      swap1\n      sstore\n      pop\n        /* \"Documents/GitHub/contract-token-cryptoMonster/backend/components/PhasePrivate.sol\":4478:4806  function deviationApplication (address _userAdr) public onlyPrivateProvider {\r... */\n      pop\n      jump\t// out\n        /* \"Documents/GitHub/contract-token-cryptoMonster/backend/components/PhasePrivate.sol\":1866:2111  function getApplicationAmountAdr () public onlyPrivateProvider view returns (address[] memory) {\r... */\n    tag_20:\n        /* \"Documents/GitHub/contract-token-cryptoMonster/backend/components/PhasePrivate.sol\":1943:1959  address[] memory */\n      0x60\n        /* \"Documents/GitHub/contract-token-cryptoMonster/backend/shared/helpers/modifireFunc.sol\":567:586  Role.SYSTEM_PRIVATE */\n      0x02\n        /* \"Documents/GitHub/contract-token-cryptoMonster/backend/shared/helpers/modifireFunc.sol\":534:586  structUsers_[msg.sender].role == Role.SYSTEM_PRIVATE */\n      0x04\n      dup2\n      gt\n      iszero\n      tag_70\n      jumpi\n      tag_71\n      tag_47\n      jump\t// in\n    tag_71:\n    tag_70:\n        /* \"Documents/GitHub/contract-token-cryptoMonster/backend/shared/helpers/modifireFunc.sol\":534:546  structUsers_ */\n      0x00\n        /* \"Documents/GitHub/contract-token-cryptoMonster/backend/shared/helpers/modifireFunc.sol\":534:558  structUsers_[msg.sender] */\n      dup1\n        /* \"Documents/GitHub/contract-token-cryptoMonster/backend/shared/helpers/modifireFunc.sol\":547:557  msg.sender */\n      caller\n        /* \"Documents/GitHub/contract-token-cryptoMonster/backend/shared/helpers/modifireFunc.sol\":534:558  structUsers_[msg.sender] */\n      0xffffffffffffffffffffffffffffffffffffffff\n      and\n      0xffffffffffffffffffffffffffffffffffffffff\n      and\n      dup2\n      mstore\n      0x20\n      add\n      swap1\n      dup2\n      mstore\n      0x20\n      add\n      0x00\n      keccak256\n        /* \"Documents/GitHub/contract-token-cryptoMonster/backend/shared/helpers/modifireFunc.sol\":534:563  structUsers_[msg.sender].role */\n      0x00\n      add\n      0x00\n      swap1\n      sload\n      swap1\n      0x0100\n      exp\n      swap1\n      div\n      0xff\n      and\n        /* \"Documents/GitHub/contract-token-cryptoMonster/backend/shared/helpers/modifireFunc.sol\":534:586  structUsers_[msg.sender].role == Role.SYSTEM_PRIVATE */\n      0x04\n      dup2\n      gt\n      iszero\n      tag_72\n      jumpi\n      tag_73\n      tag_47\n      jump\t// in\n    tag_73:\n    tag_72:\n      eq\n        /* \"Documents/GitHub/contract-token-cryptoMonster/backend/shared/helpers/modifireFunc.sol\":526:616  require(structUsers_[msg.sender].role == Role.SYSTEM_PRIVATE, \"Your not Private provider\") */\n      tag_74\n      jumpi\n      mload(0x40)\n      0x08c379a000000000000000000000000000000000000000000000000000000000\n      dup2\n      mstore\n      0x04\n      add\n      tag_75\n      swap1\n      tag_52\n      jump\t// in\n    tag_75:\n      mload(0x40)\n      dup1\n      swap2\n      sub\n      swap1\n      revert\n    tag_74:\n        /* \"Documents/GitHub/contract-token-cryptoMonster/backend/components/PhasePrivate.sol\":1979:2006  structApplicationsAmountAdr */\n      0x03\n        /* \"Documents/GitHub/contract-token-cryptoMonster/backend/components/PhasePrivate.sol\":1972:2006  return structApplicationsAmountAdr */\n      dup1\n      sload\n      dup1\n      0x20\n      mul\n      0x20\n      add\n      mload(0x40)\n      swap1\n      dup2\n      add\n      0x40\n      mstore\n      dup1\n      swap3\n      swap2\n      swap1\n      dup2\n      dup2\n      mstore\n      0x20\n      add\n      dup3\n      dup1\n      sload\n      dup1\n      iszero\n      tag_77\n      jumpi\n      0x20\n      mul\n      dup3\n      add\n      swap2\n      swap1\n      0x00\n      mstore\n      keccak256(0x00, 0x20)\n      swap1\n    tag_78:\n      dup2\n      0x00\n      swap1\n      sload\n      swap1\n      0x0100\n      exp\n      swap1\n      div\n      0xffffffffffffffffffffffffffffffffffffffff\n      and\n      0xffffffffffffffffffffffffffffffffffffffff\n      and\n      dup2\n      mstore\n      0x20\n      add\n      swap1\n      0x01\n      add\n      swap1\n      dup1\n      dup4\n      gt\n      tag_78\n      jumpi\n    tag_77:\n      pop\n      pop\n      pop\n      pop\n      pop\n      swap1\n      pop\n        /* \"Documents/GitHub/contract-token-cryptoMonster/backend/components/PhasePrivate.sol\":1866:2111  function getApplicationAmountAdr () public onlyPrivateProvider view returns (address[] memory) {\r... */\n      swap1\n      jump\t// out\n        /* \"Documents/GitHub/contract-token-cryptoMonster/backend/components/PhasePrivate.sol\":297:1752  function application(string memory _name, string memory _contactForCommunication, address _userAdr) public {\r... */\n    tag_26:\n        /* \"Documents/GitHub/contract-token-cryptoMonster/backend/components/PhasePrivate.sol\":415:430  bool _tempExist */\n      0x00\n        /* \"Documents/GitHub/contract-token-cryptoMonster/backend/components/PhasePrivate.sol\":530:535  false */\n      dup1\n        /* \"Documents/GitHub/contract-token-cryptoMonster/backend/components/PhasePrivate.sol\":457:535  structPhases_[0xAb8483F64d9C6d1EcF9b849Ae677dD3315835cb2].statusPhase == false */\n      iszero\n      iszero\n        /* \"Documents/GitHub/contract-token-cryptoMonster/backend/components/PhasePrivate.sol\":457:470  structPhases_ */\n      0x01\n        /* \"Documents/GitHub/contract-token-cryptoMonster/backend/components/PhasePrivate.sol\":457:514  structPhases_[0xAb8483F64d9C6d1EcF9b849Ae677dD3315835cb2] */\n      0x00\n        /* \"Documents/GitHub/contract-token-cryptoMonster/backend/components/PhasePrivate.sol\":471:513  0xAb8483F64d9C6d1EcF9b849Ae677dD3315835cb2 */\n      0xab8483f64d9c6d1ecf9b849ae677dd3315835cb2\n        /* \"Documents/GitHub/contract-token-cryptoMonster/backend/components/PhasePrivate.sol\":457:514  structPhases_[0xAb8483F64d9C6d1EcF9b849Ae677dD3315835cb2] */\n      0xffffffffffffffffffffffffffffffffffffffff\n      and\n      0xffffffffffffffffffffffffffffffffffffffff\n      and\n      dup2\n      mstore\n      0x20\n      add\n      swap1\n      dup2\n      mstore\n      0x20\n      add\n      0x00\n      keccak256\n        /* \"Documents/GitHub/contract-token-cryptoMonster/backend/components/PhasePrivate.sol\":457:526  structPhases_[0xAb8483F64d9C6d1EcF9b849Ae677dD3315835cb2].statusPhase */\n      0x00\n      add\n      0x00\n      swap1\n      sload\n      swap1\n      0x0100\n      exp\n      swap1\n      div\n      0xff\n      and\n        /* \"Documents/GitHub/contract-token-cryptoMonster/backend/components/PhasePrivate.sol\":457:535  structPhases_[0xAb8483F64d9C6d1EcF9b849Ae677dD3315835cb2].statusPhase == false */\n      iszero\n      iszero\n      eq\n        /* \"Documents/GitHub/contract-token-cryptoMonster/backend/components/PhasePrivate.sol\":457:617  structPhases_[0xAb8483F64d9C6d1EcF9b849Ae677dD3315835cb2].statusPhase == false && structPhases_[0xAb8483F64d9C6d1EcF9b849Ae677dD3315835cb2].statusPhase == false */\n      dup1\n      iszero\n      tag_80\n      jumpi\n      pop\n        /* \"Documents/GitHub/contract-token-cryptoMonster/backend/components/PhasePrivate.sol\":612:617  false */\n      0x00\n        /* \"Documents/GitHub/contract-token-cryptoMonster/backend/components/PhasePrivate.sol\":539:617  structPhases_[0xAb8483F64d9C6d1EcF9b849Ae677dD3315835cb2].statusPhase == false */\n      iszero\n      iszero\n        /* \"Documents/GitHub/contract-token-cryptoMonster/backend/components/PhasePrivate.sol\":539:552  structPhases_ */\n      0x01\n        /* \"Documents/GitHub/contract-token-cryptoMonster/backend/components/PhasePrivate.sol\":539:596  structPhases_[0xAb8483F64d9C6d1EcF9b849Ae677dD3315835cb2] */\n      0x00\n        /* \"Documents/GitHub/contract-token-cryptoMonster/backend/components/PhasePrivate.sol\":553:595  0xAb8483F64d9C6d1EcF9b849Ae677dD3315835cb2 */\n      0xab8483f64d9c6d1ecf9b849ae677dd3315835cb2\n        /* \"Documents/GitHub/contract-token-cryptoMonster/backend/components/PhasePrivate.sol\":539:596  structPhases_[0xAb8483F64d9C6d1EcF9b849Ae677dD3315835cb2] */\n      0xffffffffffffffffffffffffffffffffffffffff\n      and\n      0xffffffffffffffffffffffffffffffffffffffff\n      and\n      dup2\n      mstore\n      0x20\n      add\n      swap1\n      dup2\n      mstore\n      0x20\n      add\n      0x00\n      keccak256\n        /* \"Documents/GitHub/contract-token-cryptoMonster/backend/components/PhasePrivate.sol\":539:608  structPhases_[0xAb8483F64d9C6d1EcF9b849Ae677dD3315835cb2].statusPhase */\n      0x00\n      add\n      0x00\n      swap1\n      sload\n      swap1\n      0x0100\n      exp\n      swap1\n      div\n      0xff\n      and\n        /* \"Documents/GitHub/contract-token-cryptoMonster/backend/components/PhasePrivate.sol\":539:617  structPhases_[0xAb8483F64d9C6d1EcF9b849Ae677dD3315835cb2].statusPhase == false */\n      iszero\n      iszero\n      eq\n        /* \"Documents/GitHub/contract-token-cryptoMonster/backend/components/PhasePrivate.sol\":457:617  structPhases_[0xAb8483F64d9C6d1EcF9b849Ae677dD3315835cb2].statusPhase == false && structPhases_[0xAb8483F64d9C6d1EcF9b849Ae677dD3315835cb2].statusPhase == false */\n    tag_80:\n        /* \"Documents/GitHub/contract-token-cryptoMonster/backend/components/PhasePrivate.sol\":449:645  require(structPhases_[0xAb8483F64d9C6d1EcF9b849Ae677dD3315835cb2].statusPhase == false && structPhases_[0xAb8483F64d9C6d1EcF9b849Ae677dD3315835cb2].statusPhase == false, \"Application phase ended\") */\n      tag_81\n      jumpi\n      mload(0x40)\n      0x08c379a000000000000000000000000000000000000000000000000000000000\n      dup2\n      mstore\n      0x04\n      add\n      tag_82\n      swap1\n      tag_83\n      jump\t// in\n    tag_82:\n      mload(0x40)\n      dup1\n      swap2\n      sub\n      swap1\n      revert\n    tag_81:\n        /* \"Documents/GitHub/contract-token-cryptoMonster/backend/components/PhasePrivate.sol\":783:791  _userAdr */\n      dup2\n        /* \"Documents/GitHub/contract-token-cryptoMonster/backend/components/PhasePrivate.sol\":769:791  msg.sender == _userAdr */\n      0xffffffffffffffffffffffffffffffffffffffff\n      and\n        /* \"Documents/GitHub/contract-token-cryptoMonster/backend/components/PhasePrivate.sol\":769:779  msg.sender */\n      caller\n        /* \"Documents/GitHub/contract-token-cryptoMonster/backend/components/PhasePrivate.sol\":769:791  msg.sender == _userAdr */\n      0xffffffffffffffffffffffffffffffffffffffff\n      and\n      eq\n        /* \"Documents/GitHub/contract-token-cryptoMonster/backend/components/PhasePrivate.sol\":761:851  require(msg.sender == _userAdr, \"You can't send an application to someone else's address\") */\n      tag_84\n      jumpi\n      mload(0x40)\n      0x08c379a000000000000000000000000000000000000000000000000000000000\n      dup2\n      mstore\n      0x04\n      add\n      tag_85\n      swap1\n      tag_86\n      jump\t// in\n    tag_85:\n      mload(0x40)\n      dup1\n      swap2\n      sub\n      swap1\n      revert\n    tag_84:\n        /* \"Documents/GitHub/contract-token-cryptoMonster/backend/components/PhasePrivate.sol\":867:873  uint i */\n      0x00\n        /* \"Documents/GitHub/contract-token-cryptoMonster/backend/components/PhasePrivate.sol\":862:1191  for (uint i = 0; i < structApplicationsAmountAdr.length; i++) {\r... */\n    tag_87:\n        /* \"Documents/GitHub/contract-token-cryptoMonster/backend/components/PhasePrivate.sol\":883:910  structApplicationsAmountAdr */\n      0x03\n        /* \"Documents/GitHub/contract-token-cryptoMonster/backend/components/PhasePrivate.sol\":883:917  structApplicationsAmountAdr.length */\n      dup1\n      sload\n      swap1\n      pop\n        /* \"Documents/GitHub/contract-token-cryptoMonster/backend/components/PhasePrivate.sol\":879:880  i */\n      dup2\n        /* \"Documents/GitHub/contract-token-cryptoMonster/backend/components/PhasePrivate.sol\":879:917  i < structApplicationsAmountAdr.length */\n      lt\n        /* \"Documents/GitHub/contract-token-cryptoMonster/backend/components/PhasePrivate.sol\":862:1191  for (uint i = 0; i < structApplicationsAmountAdr.length; i++) {\r... */\n      iszero\n      tag_88\n      jumpi\n        /* \"Documents/GitHub/contract-token-cryptoMonster/backend/components/PhasePrivate.sol\":977:987  msg.sender */\n      caller\n        /* \"Documents/GitHub/contract-token-cryptoMonster/backend/components/PhasePrivate.sol\":943:987  structApplicationsAmountAdr[i] == msg.sender */\n      0xffffffffffffffffffffffffffffffffffffffff\n      and\n        /* \"Documents/GitHub/contract-token-cryptoMonster/backend/components/PhasePrivate.sol\":943:970  structApplicationsAmountAdr */\n      0x03\n        /* \"Documents/GitHub/contract-token-cryptoMonster/backend/components/PhasePrivate.sol\":971:972  i */\n      dup3\n        /* \"Documents/GitHub/contract-token-cryptoMonster/backend/components/PhasePrivate.sol\":943:973  structApplicationsAmountAdr[i] */\n      dup2\n      sload\n      dup2\n      lt\n      tag_90\n      jumpi\n      tag_91\n      tag_92\n      jump\t// in\n    tag_91:\n    tag_90:\n      swap1\n      0x00\n      mstore\n      keccak256(0x00, 0x20)\n      add\n      0x00\n      swap1\n      sload\n      swap1\n      0x0100\n      exp\n      swap1\n      div\n      0xffffffffffffffffffffffffffffffffffffffff\n      and\n        /* \"Documents/GitHub/contract-token-cryptoMonster/backend/components/PhasePrivate.sol\":943:987  structApplicationsAmountAdr[i] == msg.sender */\n      0xffffffffffffffffffffffffffffffffffffffff\n      and\n      eq\n        /* \"Documents/GitHub/contract-token-cryptoMonster/backend/components/PhasePrivate.sol\":939:1041  if (structApplicationsAmountAdr[i] == msg.sender) {\r... */\n      iszero\n      tag_94\n      jumpi\n        /* \"Documents/GitHub/contract-token-cryptoMonster/backend/components/PhasePrivate.sol\":1021:1025  true */\n      0x01\n        /* \"Documents/GitHub/contract-token-cryptoMonster/backend/components/PhasePrivate.sol\":1008:1025  _tempExist = true */\n      swap2\n      pop\n        /* \"Documents/GitHub/contract-token-cryptoMonster/backend/components/PhasePrivate.sol\":939:1041  if (structApplicationsAmountAdr[i] == msg.sender) {\r... */\n    tag_94:\n        /* \"Documents/GitHub/contract-token-cryptoMonster/backend/components/PhasePrivate.sol\":1077:1082  false */\n      0x00\n        /* \"Documents/GitHub/contract-token-cryptoMonster/backend/components/PhasePrivate.sol\":1063:1082  _tempExist == false */\n      iszero\n      iszero\n        /* \"Documents/GitHub/contract-token-cryptoMonster/backend/components/PhasePrivate.sol\":1063:1073  _tempExist */\n      dup3\n        /* \"Documents/GitHub/contract-token-cryptoMonster/backend/components/PhasePrivate.sol\":1063:1082  _tempExist == false */\n      iszero\n      iszero\n      eq\n        /* \"Documents/GitHub/contract-token-cryptoMonster/backend/components/PhasePrivate.sol\":1055:1111  require(_tempExist == false, \"Application already sent\") */\n      tag_95\n      jumpi\n      mload(0x40)\n      0x08c379a000000000000000000000000000000000000000000000000000000000\n      dup2\n      mstore\n      0x04\n      add\n      tag_96\n      swap1\n      tag_97\n      jump\t// in\n    tag_96:\n      mload(0x40)\n      dup1\n      swap2\n      sub\n      swap1\n      revert\n    tag_95:\n        /* \"Documents/GitHub/contract-token-cryptoMonster/backend/components/PhasePrivate.sol\":919:922  i++ */\n      dup1\n      dup1\n      tag_98\n      swap1\n      tag_99\n      jump\t// in\n    tag_98:\n      swap2\n      pop\n      pop\n        /* \"Documents/GitHub/contract-token-cryptoMonster/backend/components/PhasePrivate.sol\":862:1191  for (uint i = 0; i < structApplicationsAmountAdr.length; i++) {\r... */\n      jump(tag_87)\n    tag_88:\n      pop\n        /* \"Documents/GitHub/contract-token-cryptoMonster/backend/components/PhasePrivate.sol\":1250:1255  false */\n      0x00\n        /* \"Documents/GitHub/contract-token-cryptoMonster/backend/components/PhasePrivate.sol\":1209:1255  strucApplications_[msg.sender].status == false */\n      iszero\n      iszero\n        /* \"Documents/GitHub/contract-token-cryptoMonster/backend/components/PhasePrivate.sol\":1209:1227  strucApplications_ */\n      0x02\n        /* \"Documents/GitHub/contract-token-cryptoMonster/backend/components/PhasePrivate.sol\":1209:1239  strucApplications_[msg.sender] */\n      0x00\n        /* \"Documents/GitHub/contract-token-cryptoMonster/backend/components/PhasePrivate.sol\":1228:1238  msg.sender */\n      caller\n        /* \"Documents/GitHub/contract-token-cryptoMonster/backend/components/PhasePrivate.sol\":1209:1239  strucApplications_[msg.sender] */\n      0xffffffffffffffffffffffffffffffffffffffff\n      and\n      0xffffffffffffffffffffffffffffffffffffffff\n      and\n      dup2\n      mstore\n      0x20\n      add\n      swap1\n      dup2\n      mstore\n      0x20\n      add\n      0x00\n      keccak256\n        /* \"Documents/GitHub/contract-token-cryptoMonster/backend/components/PhasePrivate.sol\":1209:1246  strucApplications_[msg.sender].status */\n      0x02\n      add\n      0x14\n      swap1\n      sload\n      swap1\n      0x0100\n      exp\n      swap1\n      div\n      0xff\n      and\n        /* \"Documents/GitHub/contract-token-cryptoMonster/backend/components/PhasePrivate.sol\":1209:1255  strucApplications_[msg.sender].status == false */\n      iszero\n      iszero\n      eq\n        /* \"Documents/GitHub/contract-token-cryptoMonster/backend/components/PhasePrivate.sol\":1201:1302  require(strucApplications_[msg.sender].status == false, \"Your application has already been rejected\") */\n      tag_100\n      jumpi\n      mload(0x40)\n      0x08c379a000000000000000000000000000000000000000000000000000000000\n      dup2\n      mstore\n      0x04\n      add\n      tag_101\n      swap1\n      tag_102\n      jump\t// in\n    tag_101:\n      mload(0x40)\n      dup1\n      swap2\n      sub\n      swap1\n      revert\n    tag_100:\n        /* \"Documents/GitHub/contract-token-cryptoMonster/backend/components/PhasePrivate.sol\":1419:1498  structApplication(_name, _contactForCommunication, _userAdr, true, false, true) */\n      mload(0x40)\n      dup1\n      0xc0\n      add\n      0x40\n      mstore\n      dup1\n        /* \"Documents/GitHub/contract-token-cryptoMonster/backend/components/PhasePrivate.sol\":1437:1442  _name */\n      dup6\n        /* \"Documents/GitHub/contract-token-cryptoMonster/backend/components/PhasePrivate.sol\":1419:1498  structApplication(_name, _contactForCommunication, _userAdr, true, false, true) */\n      dup2\n      mstore\n      0x20\n      add\n        /* \"Documents/GitHub/contract-token-cryptoMonster/backend/components/PhasePrivate.sol\":1444:1468  _contactForCommunication */\n      dup5\n        /* \"Documents/GitHub/contract-token-cryptoMonster/backend/components/PhasePrivate.sol\":1419:1498  structApplication(_name, _contactForCommunication, _userAdr, true, false, true) */\n      dup2\n      mstore\n      0x20\n      add\n        /* \"Documents/GitHub/contract-token-cryptoMonster/backend/components/PhasePrivate.sol\":1470:1478  _userAdr */\n      dup4\n        /* \"Documents/GitHub/contract-token-cryptoMonster/backend/components/PhasePrivate.sol\":1419:1498  structApplication(_name, _contactForCommunication, _userAdr, true, false, true) */\n      0xffffffffffffffffffffffffffffffffffffffff\n      and\n      dup2\n      mstore\n      0x20\n      add\n        /* \"Documents/GitHub/contract-token-cryptoMonster/backend/components/PhasePrivate.sol\":1480:1484  true */\n      0x01\n        /* \"Documents/GitHub/contract-token-cryptoMonster/backend/components/PhasePrivate.sol\":1419:1498  structApplication(_name, _contactForCommunication, _userAdr, true, false, true) */\n      iszero\n      iszero\n      dup2\n      mstore\n      0x20\n      add\n        /* \"Documents/GitHub/contract-token-cryptoMonster/backend/components/PhasePrivate.sol\":1486:1491  false */\n      0x00\n        /* \"Documents/GitHub/contract-token-cryptoMonster/backend/components/PhasePrivate.sol\":1419:1498  structApplication(_name, _contactForCommunication, _userAdr, true, false, true) */\n      iszero\n      iszero\n      dup2\n      mstore\n      0x20\n      add\n        /* \"Documents/GitHub/contract-token-cryptoMonster/backend/components/PhasePrivate.sol\":1493:1497  true */\n      0x01\n        /* \"Documents/GitHub/contract-token-cryptoMonster/backend/components/PhasePrivate.sol\":1419:1498  structApplication(_name, _contactForCommunication, _userAdr, true, false, true) */\n      iszero\n      iszero\n      dup2\n      mstore\n      pop\n        /* \"Documents/GitHub/contract-token-cryptoMonster/backend/components/PhasePrivate.sol\":1385:1403  strucApplications_ */\n      0x02\n        /* \"Documents/GitHub/contract-token-cryptoMonster/backend/components/PhasePrivate.sol\":1385:1415  strucApplications_[msg.sender] */\n      0x00\n        /* \"Documents/GitHub/contract-token-cryptoMonster/backend/components/PhasePrivate.sol\":1404:1414  msg.sender */\n      caller\n        /* \"Documents/GitHub/contract-token-cryptoMonster/backend/components/PhasePrivate.sol\":1385:1415  strucApplications_[msg.sender] */\n      0xffffffffffffffffffffffffffffffffffffffff\n      and\n      0xffffffffffffffffffffffffffffffffffffffff\n      and\n      dup2\n      mstore\n      0x20\n      add\n      swap1\n      dup2\n      mstore\n      0x20\n      add\n      0x00\n      keccak256\n        /* \"Documents/GitHub/contract-token-cryptoMonster/backend/components/PhasePrivate.sol\":1385:1498  strucApplications_[msg.sender]  = structApplication(_name, _contactForCommunication, _userAdr, true, false, true) */\n      0x00\n      dup3\n      add\n      mload\n      dup2\n      0x00\n      add\n      swap1\n      dup1\n      mload\n      swap1\n      0x20\n      add\n      swap1\n      tag_103\n      swap3\n      swap2\n      swap1\n      tag_104\n      jump\t// in\n    tag_103:\n      pop\n      0x20\n      dup3\n      add\n      mload\n      dup2\n      0x01\n      add\n      swap1\n      dup1\n      mload\n      swap1\n      0x20\n      add\n      swap1\n      tag_105\n      swap3\n      swap2\n      swap1\n      tag_104\n      jump\t// in\n    tag_105:\n      pop\n      0x40\n      dup3\n      add\n      mload\n      dup2\n      0x02\n      add\n      exp(0x0100, 0x00)\n      dup2\n      sload\n      dup2\n      0xffffffffffffffffffffffffffffffffffffffff\n      mul\n      not\n      and\n      swap1\n      dup4\n      0xffffffffffffffffffffffffffffffffffffffff\n      and\n      mul\n      or\n      swap1\n      sstore\n      pop\n      0x60\n      dup3\n      add\n      mload\n      dup2\n      0x02\n      add\n      exp(0x0100, 0x14)\n      dup2\n      sload\n      dup2\n      0xff\n      mul\n      not\n      and\n      swap1\n      dup4\n      iszero\n      iszero\n      mul\n      or\n      swap1\n      sstore\n      pop\n      0x80\n      dup3\n      add\n      mload\n      dup2\n      0x02\n      add\n      exp(0x0100, 0x15)\n      dup2\n      sload\n      dup2\n      0xff\n      mul\n      not\n      and\n      swap1\n      dup4\n      iszero\n      iszero\n      mul\n      or\n      swap1\n      sstore\n      pop\n      0xa0\n      dup3\n      add\n      mload\n      dup2\n      0x02\n      add\n      exp(0x0100, 0x16)\n      dup2\n      sload\n      dup2\n      0xff\n      mul\n      not\n      and\n      swap1\n      dup4\n      iszero\n      iszero\n      mul\n      or\n      swap1\n      sstore\n      pop\n      swap1\n      pop\n      pop\n        /* \"Documents/GitHub/contract-token-cryptoMonster/backend/components/PhasePrivate.sol\":1567:1594  structApplicationsAmountAdr */\n      0x03\n        /* \"Documents/GitHub/contract-token-cryptoMonster/backend/components/PhasePrivate.sol\":1600:1610  msg.sender */\n      caller\n        /* \"Documents/GitHub/contract-token-cryptoMonster/backend/components/PhasePrivate.sol\":1567:1611  structApplicationsAmountAdr.push(msg.sender) */\n      swap1\n      dup1\n      0x01\n      dup2\n      sload\n      add\n      dup1\n      dup3\n      sstore\n      dup1\n      swap2\n      pop\n      pop\n      0x01\n      swap1\n      sub\n      swap1\n      0x00\n      mstore\n      keccak256(0x00, 0x20)\n      add\n      0x00\n      swap1\n      swap2\n      swap1\n      swap2\n      swap1\n      swap2\n      0x0100\n      exp\n      dup2\n      sload\n      dup2\n      0xffffffffffffffffffffffffffffffffffffffff\n      mul\n      not\n      and\n      swap1\n      dup4\n      0xffffffffffffffffffffffffffffffffffffffff\n      and\n      mul\n      or\n      swap1\n      sstore\n      pop\n        /* \"Documents/GitHub/contract-token-cryptoMonster/backend/components/PhasePrivate.sol\":404:1752  {\r... */\n      pop\n        /* \"Documents/GitHub/contract-token-cryptoMonster/backend/components/PhasePrivate.sol\":297:1752  function application(string memory _name, string memory _contactForCommunication, address _userAdr) public {\r... */\n      pop\n      pop\n      pop\n      jump\t// out\n        /* \"Documents/GitHub/contract-token-cryptoMonster/backend/components/PhasePrivate.sol\":5262:5629  function endPrivatePhase () public onlyPrivateProvider {\r... */\n    tag_28:\n        /* \"Documents/GitHub/contract-token-cryptoMonster/backend/shared/helpers/modifireFunc.sol\":567:586  Role.SYSTEM_PRIVATE */\n      0x02\n        /* \"Documents/GitHub/contract-token-cryptoMonster/backend/shared/helpers/modifireFunc.sol\":534:586  structUsers_[msg.sender].role == Role.SYSTEM_PRIVATE */\n      0x04\n      dup2\n      gt\n      iszero\n      tag_108\n      jumpi\n      tag_109\n      tag_47\n      jump\t// in\n    tag_109:\n    tag_108:\n        /* \"Documents/GitHub/contract-token-cryptoMonster/backend/shared/helpers/modifireFunc.sol\":534:546  structUsers_ */\n      0x00\n        /* \"Documents/GitHub/contract-token-cryptoMonster/backend/shared/helpers/modifireFunc.sol\":534:558  structUsers_[msg.sender] */\n      dup1\n        /* \"Documents/GitHub/contract-token-cryptoMonster/backend/shared/helpers/modifireFunc.sol\":547:557  msg.sender */\n      caller\n        /* \"Documents/GitHub/contract-token-cryptoMonster/backend/shared/helpers/modifireFunc.sol\":534:558  structUsers_[msg.sender] */\n      0xffffffffffffffffffffffffffffffffffffffff\n      and\n      0xffffffffffffffffffffffffffffffffffffffff\n      and\n      dup2\n      mstore\n      0x20\n      add\n      swap1\n      dup2\n      mstore\n      0x20\n      add\n      0x00\n      keccak256\n        /* \"Documents/GitHub/contract-token-cryptoMonster/backend/shared/helpers/modifireFunc.sol\":534:563  structUsers_[msg.sender].role */\n      0x00\n      add\n      0x00\n      swap1\n      sload\n      swap1\n      0x0100\n      exp\n      swap1\n      div\n      0xff\n      and\n        /* \"Documents/GitHub/contract-token-cryptoMonster/backend/shared/helpers/modifireFunc.sol\":534:586  structUsers_[msg.sender].role == Role.SYSTEM_PRIVATE */\n      0x04\n      dup2\n      gt\n      iszero\n      tag_110\n      jumpi\n      tag_111\n      tag_47\n      jump\t// in\n    tag_111:\n    tag_110:\n      eq\n        /* \"Documents/GitHub/contract-token-cryptoMonster/backend/shared/helpers/modifireFunc.sol\":526:616  require(structUsers_[msg.sender].role == Role.SYSTEM_PRIVATE, \"Your not Private provider\") */\n      tag_112\n      jumpi\n      mload(0x40)\n      0x08c379a000000000000000000000000000000000000000000000000000000000\n      dup2\n      mstore\n      0x04\n      add\n      tag_113\n      swap1\n      tag_52\n      jump\t// in\n    tag_113:\n      mload(0x40)\n      dup1\n      swap2\n      sub\n      swap1\n      revert\n    tag_112:\n        /* \"Documents/GitHub/contract-token-cryptoMonster/backend/components/PhasePrivate.sol\":5377:5381  true */\n      0x01\n        /* \"Documents/GitHub/contract-token-cryptoMonster/backend/components/PhasePrivate.sol\":5336:5381  structPhases_[msg.sender].statusPhase == true */\n      iszero\n      iszero\n        /* \"Documents/GitHub/contract-token-cryptoMonster/backend/components/PhasePrivate.sol\":5336:5349  structPhases_ */\n      0x01\n        /* \"Documents/GitHub/contract-token-cryptoMonster/backend/components/PhasePrivate.sol\":5336:5361  structPhases_[msg.sender] */\n      0x00\n        /* \"Documents/GitHub/contract-token-cryptoMonster/backend/components/PhasePrivate.sol\":5350:5360  msg.sender */\n      caller\n        /* \"Documents/GitHub/contract-token-cryptoMonster/backend/components/PhasePrivate.sol\":5336:5361  structPhases_[msg.sender] */\n      0xffffffffffffffffffffffffffffffffffffffff\n      and\n      0xffffffffffffffffffffffffffffffffffffffff\n      and\n      dup2\n      mstore\n      0x20\n      add\n      swap1\n      dup2\n      mstore\n      0x20\n      add\n      0x00\n      keccak256\n        /* \"Documents/GitHub/contract-token-cryptoMonster/backend/components/PhasePrivate.sol\":5336:5373  structPhases_[msg.sender].statusPhase */\n      0x00\n      add\n      0x00\n      swap1\n      sload\n      swap1\n      0x0100\n      exp\n      swap1\n      div\n      0xff\n      and\n        /* \"Documents/GitHub/contract-token-cryptoMonster/backend/components/PhasePrivate.sol\":5336:5381  structPhases_[msg.sender].statusPhase == true */\n      iszero\n      iszero\n      eq\n        /* \"Documents/GitHub/contract-token-cryptoMonster/backend/components/PhasePrivate.sol\":5336:5427  structPhases_[msg.sender].statusPhase == true && structPhases_[msg.sender].reviewed == true */\n      dup1\n      iszero\n      tag_115\n      jumpi\n      pop\n        /* \"Documents/GitHub/contract-token-cryptoMonster/backend/components/PhasePrivate.sol\":5423:5427  true */\n      0x01\n        /* \"Documents/GitHub/contract-token-cryptoMonster/backend/components/PhasePrivate.sol\":5385:5427  structPhases_[msg.sender].reviewed == true */\n      iszero\n      iszero\n        /* \"Documents/GitHub/contract-token-cryptoMonster/backend/components/PhasePrivate.sol\":5385:5398  structPhases_ */\n      0x01\n        /* \"Documents/GitHub/contract-token-cryptoMonster/backend/components/PhasePrivate.sol\":5385:5410  structPhases_[msg.sender] */\n      0x00\n        /* \"Documents/GitHub/contract-token-cryptoMonster/backend/components/PhasePrivate.sol\":5399:5409  msg.sender */\n      caller\n        /* \"Documents/GitHub/contract-token-cryptoMonster/backend/components/PhasePrivate.sol\":5385:5410  structPhases_[msg.sender] */\n      0xffffffffffffffffffffffffffffffffffffffff\n      and\n      0xffffffffffffffffffffffffffffffffffffffff\n      and\n      dup2\n      mstore\n      0x20\n      add\n      swap1\n      dup2\n      mstore\n      0x20\n      add\n      0x00\n      keccak256\n        /* \"Documents/GitHub/contract-token-cryptoMonster/backend/components/PhasePrivate.sol\":5385:5419  structPhases_[msg.sender].reviewed */\n      0x00\n      add\n      0x01\n      swap1\n      sload\n      swap1\n      0x0100\n      exp\n      swap1\n      div\n      0xff\n      and\n        /* \"Documents/GitHub/contract-token-cryptoMonster/backend/components/PhasePrivate.sol\":5385:5427  structPhases_[msg.sender].reviewed == true */\n      iszero\n      iszero\n      eq\n        /* \"Documents/GitHub/contract-token-cryptoMonster/backend/components/PhasePrivate.sol\":5336:5427  structPhases_[msg.sender].statusPhase == true && structPhases_[msg.sender].reviewed == true */\n    tag_115:\n        /* \"Documents/GitHub/contract-token-cryptoMonster/backend/components/PhasePrivate.sol\":5328:5464  require(structPhases_[msg.sender].statusPhase == true && structPhases_[msg.sender].reviewed == true, \"Phase has not yet been activated\") */\n      tag_116\n      jumpi\n      mload(0x40)\n      0x08c379a000000000000000000000000000000000000000000000000000000000\n      dup2\n      mstore\n      0x04\n      add\n      tag_117\n      swap1\n      tag_118\n      jump\t// in\n    tag_117:\n      mload(0x40)\n      dup1\n      swap2\n      sub\n      swap1\n      revert\n    tag_116:\n        /* \"Documents/GitHub/contract-token-cryptoMonster/backend/components/PhasePrivate.sol\":5503:5527  structPhase(false, true) */\n      mload(0x40)\n      dup1\n      0x40\n      add\n      0x40\n      mstore\n      dup1\n        /* \"Documents/GitHub/contract-token-cryptoMonster/backend/components/PhasePrivate.sol\":5515:5520  false */\n      0x00\n        /* \"Documents/GitHub/contract-token-cryptoMonster/backend/components/PhasePrivate.sol\":5503:5527  structPhase(false, true) */\n      iszero\n      iszero\n      dup2\n      mstore\n      0x20\n      add\n        /* \"Documents/GitHub/contract-token-cryptoMonster/backend/components/PhasePrivate.sol\":5522:5526  true */\n      0x01\n        /* \"Documents/GitHub/contract-token-cryptoMonster/backend/components/PhasePrivate.sol\":5503:5527  structPhase(false, true) */\n      iszero\n      iszero\n      dup2\n      mstore\n      pop\n        /* \"Documents/GitHub/contract-token-cryptoMonster/backend/components/PhasePrivate.sol\":5475:5488  structPhases_ */\n      0x01\n        /* \"Documents/GitHub/contract-token-cryptoMonster/backend/components/PhasePrivate.sol\":5475:5500  structPhases_[msg.sender] */\n      0x00\n        /* \"Documents/GitHub/contract-token-cryptoMonster/backend/components/PhasePrivate.sol\":5489:5499  msg.sender */\n      caller\n        /* \"Documents/GitHub/contract-token-cryptoMonster/backend/components/PhasePrivate.sol\":5475:5500  structPhases_[msg.sender] */\n      0xffffffffffffffffffffffffffffffffffffffff\n      and\n      0xffffffffffffffffffffffffffffffffffffffff\n      and\n      dup2\n      mstore\n      0x20\n      add\n      swap1\n      dup2\n      mstore\n      0x20\n      add\n      0x00\n      keccak256\n        /* \"Documents/GitHub/contract-token-cryptoMonster/backend/components/PhasePrivate.sol\":5475:5527  structPhases_[msg.sender] = structPhase(false, true) */\n      0x00\n      dup3\n      add\n      mload\n      dup2\n      0x00\n      add\n      exp(0x0100, 0x00)\n      dup2\n      sload\n      dup2\n      0xff\n      mul\n      not\n      and\n      swap1\n      dup4\n      iszero\n      iszero\n      mul\n      or\n      swap1\n      sstore\n      pop\n      0x20\n      dup3\n      add\n      mload\n      dup2\n      0x00\n      add\n      exp(0x0100, 0x01)\n      dup2\n      sload\n      dup2\n      0xff\n      mul\n      not\n      and\n      swap1\n      dup4\n      iszero\n      iszero\n      mul\n      or\n      swap1\n      sstore\n      pop\n      swap1\n      pop\n      pop\n        /* \"Documents/GitHub/contract-token-cryptoMonster/backend/components/PhasePrivate.sol\":5598:5621  structPhase(true, true) */\n      mload(0x40)\n      dup1\n      0x40\n      add\n      0x40\n      mstore\n      dup1\n        /* \"Documents/GitHub/contract-token-cryptoMonster/backend/components/PhasePrivate.sol\":5610:5614  true */\n      0x01\n        /* \"Documents/GitHub/contract-token-cryptoMonster/backend/components/PhasePrivate.sol\":5598:5621  structPhase(true, true) */\n      iszero\n      iszero\n      dup2\n      mstore\n      0x20\n      add\n        /* \"Documents/GitHub/contract-token-cryptoMonster/backend/components/PhasePrivate.sol\":5616:5620  true */\n      0x01\n        /* \"Documents/GitHub/contract-token-cryptoMonster/backend/components/PhasePrivate.sol\":5598:5621  structPhase(true, true) */\n      iszero\n      iszero\n      dup2\n      mstore\n      pop\n        /* \"Documents/GitHub/contract-token-cryptoMonster/backend/components/PhasePrivate.sol\":5538:5551  structPhases_ */\n      0x01\n        /* \"Documents/GitHub/contract-token-cryptoMonster/backend/components/PhasePrivate.sol\":5538:5595  structPhases_[0x4B20993Bc481177ec7E8f571ceCaE8A9e22C02db] */\n      0x00\n        /* \"Documents/GitHub/contract-token-cryptoMonster/backend/components/PhasePrivate.sol\":5552:5594  0x4B20993Bc481177ec7E8f571ceCaE8A9e22C02db */\n      0x4b20993bc481177ec7e8f571cecae8a9e22c02db\n        /* \"Documents/GitHub/contract-token-cryptoMonster/backend/components/PhasePrivate.sol\":5538:5595  structPhases_[0x4B20993Bc481177ec7E8f571ceCaE8A9e22C02db] */\n      0xffffffffffffffffffffffffffffffffffffffff\n      and\n      0xffffffffffffffffffffffffffffffffffffffff\n      and\n      dup2\n      mstore\n      0x20\n      add\n      swap1\n      dup2\n      mstore\n      0x20\n      add\n      0x00\n      keccak256\n        /* \"Documents/GitHub/contract-token-cryptoMonster/backend/components/PhasePrivate.sol\":5538:5621  structPhases_[0x4B20993Bc481177ec7E8f571ceCaE8A9e22C02db] = structPhase(true, true) */\n      0x00\n      dup3\n      add\n      mload\n      dup2\n      0x00\n      add\n      exp(0x0100, 0x00)\n      dup2\n      sload\n      dup2\n      0xff\n      mul\n      not\n      and\n      swap1\n      dup4\n      iszero\n      iszero\n      mul\n      or\n      swap1\n      sstore\n      pop\n      0x20\n      dup3\n      add\n      mload\n      dup2\n      0x00\n      add\n      exp(0x0100, 0x01)\n      dup2\n      sload\n      dup2\n      0xff\n      mul\n      not\n      and\n      swap1\n      dup4\n      iszero\n      iszero\n      mul\n      or\n      swap1\n      sstore\n      pop\n      swap1\n      pop\n      pop\n        /* \"Documents/GitHub/contract-token-cryptoMonster/backend/components/PhasePrivate.sol\":5262:5629  function endPrivatePhase () public onlyPrivateProvider {\r... */\n      jump\t// out\n        /* \"Documents/GitHub/contract-token-cryptoMonster/backend/shared/helpers/helpresFunc.sol\":689:799  function get_blackList() public onlyOwner view returns (address[] memory) {\r... */\n    tag_30:\n        /* \"Documents/GitHub/contract-token-cryptoMonster/backend/shared/helpers/helpresFunc.sol\":745:761  address[] memory */\n      0x60\n        /* \"Documents/GitHub/contract-token-cryptoMonster/backend/shared/helpers/modifireFunc.sol\":320:337  Role.SYSTEM_OWNER */\n      0x00\n        /* \"Documents/GitHub/contract-token-cryptoMonster/backend/shared/helpers/modifireFunc.sol\":287:337  structUsers_[msg.sender].role == Role.SYSTEM_OWNER */\n      0x04\n      dup2\n      gt\n      iszero\n      tag_120\n      jumpi\n      tag_121\n      tag_47\n      jump\t// in\n    tag_121:\n    tag_120:\n        /* \"Documents/GitHub/contract-token-cryptoMonster/backend/shared/helpers/modifireFunc.sol\":287:299  structUsers_ */\n      0x00\n        /* \"Documents/GitHub/contract-token-cryptoMonster/backend/shared/helpers/modifireFunc.sol\":287:311  structUsers_[msg.sender] */\n      dup1\n        /* \"Documents/GitHub/contract-token-cryptoMonster/backend/shared/helpers/modifireFunc.sol\":300:310  msg.sender */\n      caller\n        /* \"Documents/GitHub/contract-token-cryptoMonster/backend/shared/helpers/modifireFunc.sol\":287:311  structUsers_[msg.sender] */\n      0xffffffffffffffffffffffffffffffffffffffff\n      and\n      0xffffffffffffffffffffffffffffffffffffffff\n      and\n      dup2\n      mstore\n      0x20\n      add\n      swap1\n      dup2\n      mstore\n      0x20\n      add\n      0x00\n      keccak256\n        /* \"Documents/GitHub/contract-token-cryptoMonster/backend/shared/helpers/modifireFunc.sol\":287:316  structUsers_[msg.sender].role */\n      0x00\n      add\n      0x00\n      swap1\n      sload\n      swap1\n      0x0100\n      exp\n      swap1\n      div\n      0xff\n      and\n        /* \"Documents/GitHub/contract-token-cryptoMonster/backend/shared/helpers/modifireFunc.sol\":287:337  structUsers_[msg.sender].role == Role.SYSTEM_OWNER */\n      0x04\n      dup2\n      gt\n      iszero\n      tag_122\n      jumpi\n      tag_123\n      tag_47\n      jump\t// in\n    tag_123:\n    tag_122:\n      eq\n        /* \"Documents/GitHub/contract-token-cryptoMonster/backend/shared/helpers/modifireFunc.sol\":279:356  require(structUsers_[msg.sender].role == Role.SYSTEM_OWNER, \"Your not admin\") */\n      tag_124\n      jumpi\n      mload(0x40)\n      0x08c379a000000000000000000000000000000000000000000000000000000000\n      dup2\n      mstore\n      0x04\n      add\n      tag_125\n      swap1\n      tag_126\n      jump\t// in\n    tag_125:\n      mload(0x40)\n      dup1\n      swap2\n      sub\n      swap1\n      revert\n    tag_124:\n        /* \"Documents/GitHub/contract-token-cryptoMonster/backend/shared/helpers/helpresFunc.sol\":781:790  blackList */\n      0x05\n        /* \"Documents/GitHub/contract-token-cryptoMonster/backend/shared/helpers/helpresFunc.sol\":774:791  return(blackList) */\n      dup1\n      sload\n      dup1\n      0x20\n      mul\n      0x20\n      add\n      mload(0x40)\n      swap1\n      dup2\n      add\n      0x40\n      mstore\n      dup1\n      swap3\n      swap2\n      swap1\n      dup2\n      dup2\n      mstore\n      0x20\n      add\n      dup3\n      dup1\n      sload\n      dup1\n      iszero\n      tag_128\n      jumpi\n      0x20\n      mul\n      dup3\n      add\n      swap2\n      swap1\n      0x00\n      mstore\n      keccak256(0x00, 0x20)\n      swap1\n    tag_129:\n      dup2\n      0x00\n      swap1\n      sload\n      swap1\n      0x0100\n      exp\n      swap1\n      div\n      0xffffffffffffffffffffffffffffffffffffffff\n      and\n      0xffffffffffffffffffffffffffffffffffffffff\n      and\n      dup2\n      mstore\n      0x20\n      add\n      swap1\n      0x01\n      add\n      swap1\n      dup1\n      dup4\n      gt\n      tag_129\n      jumpi\n    tag_128:\n      pop\n      pop\n      pop\n      pop\n      pop\n      swap1\n      pop\n        /* \"Documents/GitHub/contract-token-cryptoMonster/backend/shared/helpers/helpresFunc.sol\":689:799  function get_blackList() public onlyOwner view returns (address[] memory) {\r... */\n      swap1\n      jump\t// out\n        /* \"Documents/GitHub/contract-token-cryptoMonster/backend/shared/helpers/helpresFunc.sol\":212:350  function get_keccak256(string memory _hash) public pure returns(bytes32) {\r... */\n    tag_35:\n        /* \"Documents/GitHub/contract-token-cryptoMonster/backend/shared/helpers/helpresFunc.sol\":276:283  bytes32 */\n      0x00\n        /* \"Documents/GitHub/contract-token-cryptoMonster/backend/shared/helpers/helpresFunc.sol\":334:339  _hash */\n      dup2\n        /* \"Documents/GitHub/contract-token-cryptoMonster/backend/shared/helpers/helpresFunc.sol\":317:340  abi.encodePacked(_hash) */\n      add(0x20, mload(0x40))\n      tag_131\n      swap2\n      swap1\n      tag_132\n      jump\t// in\n    tag_131:\n      mload(0x40)\n      0x20\n      dup2\n      dup4\n      sub\n      sub\n      dup2\n      mstore\n      swap1\n      0x40\n      mstore\n        /* \"Documents/GitHub/contract-token-cryptoMonster/backend/shared/helpers/helpresFunc.sol\":307:341  keccak256(abi.encodePacked(_hash)) */\n      dup1\n      mload\n      swap1\n      0x20\n      add\n      keccak256\n        /* \"Documents/GitHub/contract-token-cryptoMonster/backend/shared/helpers/helpresFunc.sol\":300:342  return(keccak256(abi.encodePacked(_hash))) */\n      swap1\n      pop\n        /* \"Documents/GitHub/contract-token-cryptoMonster/backend/shared/helpers/helpresFunc.sol\":212:350  function get_keccak256(string memory _hash) public pure returns(bytes32) {\r... */\n      swap2\n      swap1\n      pop\n      jump\t// out\n        /* \"Documents/GitHub/contract-token-cryptoMonster/backend/components/PhasePrivate.sol\":3595:4394  function acceptApplication (address _userAdr) public onlyPrivateProvider {\r... */\n    tag_40:\n        /* \"Documents/GitHub/contract-token-cryptoMonster/backend/shared/helpers/modifireFunc.sol\":567:586  Role.SYSTEM_PRIVATE */\n      0x02\n        /* \"Documents/GitHub/contract-token-cryptoMonster/backend/shared/helpers/modifireFunc.sol\":534:586  structUsers_[msg.sender].role == Role.SYSTEM_PRIVATE */\n      0x04\n      dup2\n      gt\n      iszero\n      tag_134\n      jumpi\n      tag_135\n      tag_47\n      jump\t// in\n    tag_135:\n    tag_134:\n        /* \"Documents/GitHub/contract-token-cryptoMonster/backend/shared/helpers/modifireFunc.sol\":534:546  structUsers_ */\n      0x00\n        /* \"Documents/GitHub/contract-token-cryptoMonster/backend/shared/helpers/modifireFunc.sol\":534:558  structUsers_[msg.sender] */\n      dup1\n        /* \"Documents/GitHub/contract-token-cryptoMonster/backend/shared/helpers/modifireFunc.sol\":547:557  msg.sender */\n      caller\n        /* \"Documents/GitHub/contract-token-cryptoMonster/backend/shared/helpers/modifireFunc.sol\":534:558  structUsers_[msg.sender] */\n      0xffffffffffffffffffffffffffffffffffffffff\n      and\n      0xffffffffffffffffffffffffffffffffffffffff\n      and\n      dup2\n      mstore\n      0x20\n      add\n      swap1\n      dup2\n      mstore\n      0x20\n      add\n      0x00\n      keccak256\n        /* \"Documents/GitHub/contract-token-cryptoMonster/backend/shared/helpers/modifireFunc.sol\":534:563  structUsers_[msg.sender].role */\n      0x00\n      add\n      0x00\n      swap1\n      sload\n      swap1\n      0x0100\n      exp\n      swap1\n      div\n      0xff\n      and\n        /* \"Documents/GitHub/contract-token-cryptoMonster/backend/shared/helpers/modifireFunc.sol\":534:586  structUsers_[msg.sender].role == Role.SYSTEM_PRIVATE */\n      0x04\n      dup2\n      gt\n      iszero\n      tag_136\n      jumpi\n      tag_137\n      tag_47\n      jump\t// in\n    tag_137:\n    tag_136:\n      eq\n        /* \"Documents/GitHub/contract-token-cryptoMonster/backend/shared/helpers/modifireFunc.sol\":526:616  require(structUsers_[msg.sender].role == Role.SYSTEM_PRIVATE, \"Your not Private provider\") */\n      tag_138\n      jumpi\n      mload(0x40)\n      0x08c379a000000000000000000000000000000000000000000000000000000000\n      dup2\n      mstore\n      0x04\n      add\n      tag_139\n      swap1\n      tag_52\n      jump\t// in\n    tag_139:\n      mload(0x40)\n      dup1\n      swap2\n      sub\n      swap1\n      revert\n    tag_138:\n        /* \"Documents/GitHub/contract-token-cryptoMonster/backend/components/PhasePrivate.sol\":3730:3735  false */\n      0x00\n        /* \"Documents/GitHub/contract-token-cryptoMonster/backend/components/PhasePrivate.sol\":3687:3735  strucApplications_[msg.sender].reviewed == false */\n      iszero\n      iszero\n        /* \"Documents/GitHub/contract-token-cryptoMonster/backend/components/PhasePrivate.sol\":3687:3705  strucApplications_ */\n      0x02\n        /* \"Documents/GitHub/contract-token-cryptoMonster/backend/components/PhasePrivate.sol\":3687:3717  strucApplications_[msg.sender] */\n      0x00\n        /* \"Documents/GitHub/contract-token-cryptoMonster/backend/components/PhasePrivate.sol\":3706:3716  msg.sender */\n      caller\n        /* \"Documents/GitHub/contract-token-cryptoMonster/backend/components/PhasePrivate.sol\":3687:3717  strucApplications_[msg.sender] */\n      0xffffffffffffffffffffffffffffffffffffffff\n      and\n      0xffffffffffffffffffffffffffffffffffffffff\n      and\n      dup2\n      mstore\n      0x20\n      add\n      swap1\n      dup2\n      mstore\n      0x20\n      add\n      0x00\n      keccak256\n        /* \"Documents/GitHub/contract-token-cryptoMonster/backend/components/PhasePrivate.sol\":3687:3726  strucApplications_[msg.sender].reviewed */\n      0x02\n      add\n      0x15\n      swap1\n      sload\n      swap1\n      0x0100\n      exp\n      swap1\n      div\n      0xff\n      and\n        /* \"Documents/GitHub/contract-token-cryptoMonster/backend/components/PhasePrivate.sol\":3687:3735  strucApplications_[msg.sender].reviewed == false */\n      iszero\n      iszero\n      eq\n        /* \"Documents/GitHub/contract-token-cryptoMonster/backend/components/PhasePrivate.sol\":3679:3768  require(strucApplications_[msg.sender].reviewed == false, \"Review the application first\") */\n      tag_141\n      jumpi\n      mload(0x40)\n      0x08c379a000000000000000000000000000000000000000000000000000000000\n      dup2\n      mstore\n      0x04\n      add\n      tag_142\n      swap1\n      tag_68\n      jump\t// in\n    tag_142:\n      mload(0x40)\n      dup1\n      swap2\n      sub\n      swap1\n      revert\n    tag_141:\n        /* \"Documents/GitHub/contract-token-cryptoMonster/backend/components/PhasePrivate.sol\":3907:3912  false */\n      0x00\n        /* \"Documents/GitHub/contract-token-cryptoMonster/backend/components/PhasePrivate.sol\":3869:3887  strucApplications_ */\n      0x02\n        /* \"Documents/GitHub/contract-token-cryptoMonster/backend/components/PhasePrivate.sol\":3869:3897  strucApplications_[_userAdr] */\n      0x00\n        /* \"Documents/GitHub/contract-token-cryptoMonster/backend/components/PhasePrivate.sol\":3888:3896  _userAdr */\n      dup4\n        /* \"Documents/GitHub/contract-token-cryptoMonster/backend/components/PhasePrivate.sol\":3869:3897  strucApplications_[_userAdr] */\n      0xffffffffffffffffffffffffffffffffffffffff\n      and\n      0xffffffffffffffffffffffffffffffffffffffff\n      and\n      dup2\n      mstore\n      0x20\n      add\n      swap1\n      dup2\n      mstore\n      0x20\n      add\n      0x00\n      keccak256\n        /* \"Documents/GitHub/contract-token-cryptoMonster/backend/components/PhasePrivate.sol\":3869:3904  strucApplications_[_userAdr].status */\n      0x02\n      add\n      0x14\n        /* \"Documents/GitHub/contract-token-cryptoMonster/backend/components/PhasePrivate.sol\":3869:3912  strucApplications_[_userAdr].status = false */\n      0x0100\n      exp\n      dup2\n      sload\n      dup2\n      0xff\n      mul\n      not\n      and\n      swap1\n      dup4\n      iszero\n      iszero\n      mul\n      or\n      swap1\n      sstore\n      pop\n        /* \"Documents/GitHub/contract-token-cryptoMonster/backend/components/PhasePrivate.sol\":3976:4003  structApplicationsAmountAdr */\n      0x03\n        /* \"Documents/GitHub/contract-token-cryptoMonster/backend/components/PhasePrivate.sol\":4009:4017  _userAdr */\n      dup2\n        /* \"Documents/GitHub/contract-token-cryptoMonster/backend/components/PhasePrivate.sol\":3976:4018  structApplicationsAmountAdr.push(_userAdr) */\n      swap1\n      dup1\n      0x01\n      dup2\n      sload\n      add\n      dup1\n      dup3\n      sstore\n      dup1\n      swap2\n      pop\n      pop\n      0x01\n      swap1\n      sub\n      swap1\n      0x00\n      mstore\n      keccak256(0x00, 0x20)\n      add\n      0x00\n      swap1\n      swap2\n      swap1\n      swap2\n      swap1\n      swap2\n      0x0100\n      exp\n      dup2\n      sload\n      dup2\n      0xffffffffffffffffffffffffffffffffffffffff\n      mul\n      not\n      and\n      swap1\n      dup4\n      0xffffffffffffffffffffffffffffffffffffffff\n      and\n      mul\n      or\n      swap1\n      sstore\n      pop\n        /* \"Documents/GitHub/contract-token-cryptoMonster/backend/components/PhasePrivate.sol\":4156:4165  whiteList */\n      0x04\n        /* \"Documents/GitHub/contract-token-cryptoMonster/backend/components/PhasePrivate.sol\":4171:4179  _userAdr */\n      dup2\n        /* \"Documents/GitHub/contract-token-cryptoMonster/backend/components/PhasePrivate.sol\":4156:4180  whiteList.push(_userAdr) */\n      swap1\n      dup1\n      0x01\n      dup2\n      sload\n      add\n      dup1\n      dup3\n      sstore\n      dup1\n      swap2\n      pop\n      pop\n      0x01\n      swap1\n      sub\n      swap1\n      0x00\n      mstore\n      keccak256(0x00, 0x20)\n      add\n      0x00\n      swap1\n      swap2\n      swap1\n      swap2\n      swap1\n      swap2\n      0x0100\n      exp\n      dup2\n      sload\n      dup2\n      0xffffffffffffffffffffffffffffffffffffffff\n      mul\n      not\n      and\n      swap1\n      dup4\n      0xffffffffffffffffffffffffffffffffffffffff\n      and\n      mul\n      or\n      swap1\n      sstore\n      pop\n        /* \"Documents/GitHub/contract-token-cryptoMonster/backend/components/PhasePrivate.sol\":4298:4386  structUser(Role.USER, strucApplications_[_userAdr].name, get_keccak256(\"0\"), 0, 0, 0, 0) */\n      mload(0x40)\n      dup1\n      0xe0\n      add\n      0x40\n      mstore\n      dup1\n        /* \"Documents/GitHub/contract-token-cryptoMonster/backend/components/PhasePrivate.sol\":4309:4318  Role.USER */\n      0x04\n        /* \"Documents/GitHub/contract-token-cryptoMonster/backend/components/PhasePrivate.sol\":4298:4386  structUser(Role.USER, strucApplications_[_userAdr].name, get_keccak256(\"0\"), 0, 0, 0, 0) */\n      dup1\n      dup2\n      gt\n      iszero\n      tag_145\n      jumpi\n      tag_146\n      tag_47\n      jump\t// in\n    tag_146:\n    tag_145:\n      dup2\n      mstore\n      0x20\n      add\n        /* \"Documents/GitHub/contract-token-cryptoMonster/backend/components/PhasePrivate.sol\":4320:4338  strucApplications_ */\n      0x02\n        /* \"Documents/GitHub/contract-token-cryptoMonster/backend/components/PhasePrivate.sol\":4320:4348  strucApplications_[_userAdr] */\n      0x00\n        /* \"Documents/GitHub/contract-token-cryptoMonster/backend/components/PhasePrivate.sol\":4339:4347  _userAdr */\n      dup5\n        /* \"Documents/GitHub/contract-token-cryptoMonster/backend/components/PhasePrivate.sol\":4320:4348  strucApplications_[_userAdr] */\n      0xffffffffffffffffffffffffffffffffffffffff\n      and\n      0xffffffffffffffffffffffffffffffffffffffff\n      and\n      dup2\n      mstore\n      0x20\n      add\n      swap1\n      dup2\n      mstore\n      0x20\n      add\n      0x00\n      keccak256\n        /* \"Documents/GitHub/contract-token-cryptoMonster/backend/components/PhasePrivate.sol\":4320:4353  strucApplications_[_userAdr].name */\n      0x00\n      add\n        /* \"Documents/GitHub/contract-token-cryptoMonster/backend/components/PhasePrivate.sol\":4298:4386  structUser(Role.USER, strucApplications_[_userAdr].name, get_keccak256(\"0\"), 0, 0, 0, 0) */\n      dup1\n      sload\n      tag_147\n      swap1\n      tag_148\n      jump\t// in\n    tag_147:\n      dup1\n      0x1f\n      add\n      0x20\n      dup1\n      swap2\n      div\n      mul\n      0x20\n      add\n      mload(0x40)\n      swap1\n      dup2\n      add\n      0x40\n      mstore\n      dup1\n      swap3\n      swap2\n      swap1\n      dup2\n      dup2\n      mstore\n      0x20\n      add\n      dup3\n      dup1\n      sload\n      tag_149\n      swap1\n      tag_148\n      jump\t// in\n    tag_149:\n      dup1\n      iszero\n      tag_150\n      jumpi\n      dup1\n      0x1f\n      lt\n      tag_151\n      jumpi\n      0x0100\n      dup1\n      dup4\n      sload\n      div\n      mul\n      dup4\n      mstore\n      swap2\n      0x20\n      add\n      swap2\n      jump(tag_150)\n    tag_151:\n      dup3\n      add\n      swap2\n      swap1\n      0x00\n      mstore\n      keccak256(0x00, 0x20)\n      swap1\n    tag_152:\n      dup2\n      sload\n      dup2\n      mstore\n      swap1\n      0x01\n      add\n      swap1\n      0x20\n      add\n      dup1\n      dup4\n      gt\n      tag_152\n      jumpi\n      dup3\n      swap1\n      sub\n      0x1f\n      and\n      dup3\n      add\n      swap2\n    tag_150:\n      pop\n      pop\n      pop\n      pop\n      pop\n      dup2\n      mstore\n      0x20\n      add\n        /* \"Documents/GitHub/contract-token-cryptoMonster/backend/components/PhasePrivate.sol\":4355:4373  get_keccak256(\"0\") */\n      tag_153\n      mload(0x40)\n      dup1\n      0x40\n      add\n      0x40\n      mstore\n      dup1\n      0x01\n      dup2\n      mstore\n      0x20\n      add\n      0x3000000000000000000000000000000000000000000000000000000000000000\n      dup2\n      mstore\n      pop\n        /* \"Documents/GitHub/contract-token-cryptoMonster/backend/components/PhasePrivate.sol\":4355:4368  get_keccak256 */\n      tag_35\n        /* \"Documents/GitHub/contract-token-cryptoMonster/backend/components/PhasePrivate.sol\":4355:4373  get_keccak256(\"0\") */\n      jump\t// in\n    tag_153:\n        /* \"Documents/GitHub/contract-token-cryptoMonster/backend/components/PhasePrivate.sol\":4298:4386  structUser(Role.USER, strucApplications_[_userAdr].name, get_keccak256(\"0\"), 0, 0, 0, 0) */\n      dup2\n      mstore\n      0x20\n      add\n        /* \"Documents/GitHub/contract-token-cryptoMonster/backend/components/PhasePrivate.sol\":4375:4376  0 */\n      0x00\n        /* \"Documents/GitHub/contract-token-cryptoMonster/backend/components/PhasePrivate.sol\":4298:4386  structUser(Role.USER, strucApplications_[_userAdr].name, get_keccak256(\"0\"), 0, 0, 0, 0) */\n      dup2\n      mstore\n      0x20\n      add\n        /* \"Documents/GitHub/contract-token-cryptoMonster/backend/components/PhasePrivate.sol\":4378:4379  0 */\n      0x00\n        /* \"Documents/GitHub/contract-token-cryptoMonster/backend/components/PhasePrivate.sol\":4298:4386  structUser(Role.USER, strucApplications_[_userAdr].name, get_keccak256(\"0\"), 0, 0, 0, 0) */\n      dup2\n      mstore\n      0x20\n      add\n        /* \"Documents/GitHub/contract-token-cryptoMonster/backend/components/PhasePrivate.sol\":4381:4382  0 */\n      0x00\n        /* \"Documents/GitHub/contract-token-cryptoMonster/backend/components/PhasePrivate.sol\":4298:4386  structUser(Role.USER, strucApplications_[_userAdr].name, get_keccak256(\"0\"), 0, 0, 0, 0) */\n      dup2\n      mstore\n      0x20\n      add\n        /* \"Documents/GitHub/contract-token-cryptoMonster/backend/components/PhasePrivate.sol\":4384:4385  0 */\n      0x00\n        /* \"Documents/GitHub/contract-token-cryptoMonster/backend/components/PhasePrivate.sol\":4298:4386  structUser(Role.USER, strucApplications_[_userAdr].name, get_keccak256(\"0\"), 0, 0, 0, 0) */\n      dup2\n      mstore\n      pop\n        /* \"Documents/GitHub/contract-token-cryptoMonster/backend/components/PhasePrivate.sol\":4273:4285  structUsers_ */\n      0x00\n        /* \"Documents/GitHub/contract-token-cryptoMonster/backend/components/PhasePrivate.sol\":4273:4295  structUsers_[_userAdr] */\n      dup1\n        /* \"Documents/GitHub/contract-token-cryptoMonster/backend/components/PhasePrivate.sol\":4286:4294  _userAdr */\n      dup4\n        /* \"Documents/GitHub/contract-token-cryptoMonster/backend/components/PhasePrivate.sol\":4273:4295  structUsers_[_userAdr] */\n      0xffffffffffffffffffffffffffffffffffffffff\n      and\n      0xffffffffffffffffffffffffffffffffffffffff\n      and\n      dup2\n      mstore\n      0x20\n      add\n      swap1\n      dup2\n      mstore\n      0x20\n      add\n      0x00\n      keccak256\n        /* \"Documents/GitHub/contract-token-cryptoMonster/backend/components/PhasePrivate.sol\":4273:4386  structUsers_[_userAdr] = structUser(Role.USER, strucApplications_[_userAdr].name, get_keccak256(\"0\"), 0, 0, 0, 0) */\n      0x00\n      dup3\n      add\n      mload\n      dup2\n      0x00\n      add\n      exp(0x0100, 0x00)\n      dup2\n      sload\n      dup2\n      0xff\n      mul\n      not\n      and\n      swap1\n      dup4\n      0x04\n      dup2\n      gt\n      iszero\n      tag_154\n      jumpi\n      tag_155\n      tag_47\n      jump\t// in\n    tag_155:\n    tag_154:\n      mul\n      or\n      swap1\n      sstore\n      pop\n      0x20\n      dup3\n      add\n      mload\n      dup2\n      0x01\n      add\n      swap1\n      dup1\n      mload\n      swap1\n      0x20\n      add\n      swap1\n      tag_156\n      swap3\n      swap2\n      swap1\n      tag_104\n      jump\t// in\n    tag_156:\n      pop\n      0x40\n      dup3\n      add\n      mload\n      dup2\n      0x02\n      add\n      sstore\n      0x60\n      dup3\n      add\n      mload\n      dup2\n      0x03\n      add\n      sstore\n      0x80\n      dup3\n      add\n      mload\n      dup2\n      0x04\n      add\n      sstore\n      0xa0\n      dup3\n      add\n      mload\n      dup2\n      0x05\n      add\n      sstore\n      0xc0\n      dup3\n      add\n      mload\n      dup2\n      0x06\n      add\n      sstore\n      swap1\n      pop\n      pop\n        /* \"Documents/GitHub/contract-token-cryptoMonster/backend/components/PhasePrivate.sol\":3595:4394  function acceptApplication (address _userAdr) public onlyPrivateProvider {\r... */\n      pop\n      jump\t// out\n        /* \"Documents/GitHub/contract-token-cryptoMonster/backend/shared/helpers/helpresFunc.sol\":483:611  function get_whiteList() public onlyOwnerAndPrivateProvider view returns (address[] memory) {\r... */\n    tag_42:\n        /* \"Documents/GitHub/contract-token-cryptoMonster/backend/shared/helpers/helpresFunc.sol\":557:573  address[] memory */\n      0x60\n        /* \"Documents/GitHub/contract-token-cryptoMonster/backend/shared/helpers/modifireFunc.sol\":859:876  Role.SYSTEM_OWNER */\n      0x00\n        /* \"Documents/GitHub/contract-token-cryptoMonster/backend/shared/helpers/modifireFunc.sol\":826:876  structUsers_[msg.sender].role == Role.SYSTEM_OWNER */\n      0x04\n      dup2\n      gt\n      iszero\n      tag_158\n      jumpi\n      tag_159\n      tag_47\n      jump\t// in\n    tag_159:\n    tag_158:\n        /* \"Documents/GitHub/contract-token-cryptoMonster/backend/shared/helpers/modifireFunc.sol\":826:838  structUsers_ */\n      0x00\n        /* \"Documents/GitHub/contract-token-cryptoMonster/backend/shared/helpers/modifireFunc.sol\":826:850  structUsers_[msg.sender] */\n      dup1\n        /* \"Documents/GitHub/contract-token-cryptoMonster/backend/shared/helpers/modifireFunc.sol\":839:849  msg.sender */\n      caller\n        /* \"Documents/GitHub/contract-token-cryptoMonster/backend/shared/helpers/modifireFunc.sol\":826:850  structUsers_[msg.sender] */\n      0xffffffffffffffffffffffffffffffffffffffff\n      and\n      0xffffffffffffffffffffffffffffffffffffffff\n      and\n      dup2\n      mstore\n      0x20\n      add\n      swap1\n      dup2\n      mstore\n      0x20\n      add\n      0x00\n      keccak256\n        /* \"Documents/GitHub/contract-token-cryptoMonster/backend/shared/helpers/modifireFunc.sol\":826:855  structUsers_[msg.sender].role */\n      0x00\n      add\n      0x00\n      swap1\n      sload\n      swap1\n      0x0100\n      exp\n      swap1\n      div\n      0xff\n      and\n        /* \"Documents/GitHub/contract-token-cryptoMonster/backend/shared/helpers/modifireFunc.sol\":826:876  structUsers_[msg.sender].role == Role.SYSTEM_OWNER */\n      0x04\n      dup2\n      gt\n      iszero\n      tag_160\n      jumpi\n      tag_161\n      tag_47\n      jump\t// in\n    tag_161:\n    tag_160:\n      eq\n        /* \"Documents/GitHub/contract-token-cryptoMonster/backend/shared/helpers/modifireFunc.sol\":826:932  structUsers_[msg.sender].role == Role.SYSTEM_OWNER || structUsers_[msg.sender].role == Role.SYSTEM_PRIVATE */\n      dup1\n      tag_162\n      jumpi\n      pop\n        /* \"Documents/GitHub/contract-token-cryptoMonster/backend/shared/helpers/modifireFunc.sol\":913:932  Role.SYSTEM_PRIVATE */\n      0x02\n        /* \"Documents/GitHub/contract-token-cryptoMonster/backend/shared/helpers/modifireFunc.sol\":880:932  structUsers_[msg.sender].role == Role.SYSTEM_PRIVATE */\n      0x04\n      dup2\n      gt\n      iszero\n      tag_163\n      jumpi\n      tag_164\n      tag_47\n      jump\t// in\n    tag_164:\n    tag_163:\n        /* \"Documents/GitHub/contract-token-cryptoMonster/backend/shared/helpers/modifireFunc.sol\":880:892  structUsers_ */\n      0x00\n        /* \"Documents/GitHub/contract-token-cryptoMonster/backend/shared/helpers/modifireFunc.sol\":880:904  structUsers_[msg.sender] */\n      dup1\n        /* \"Documents/GitHub/contract-token-cryptoMonster/backend/shared/helpers/modifireFunc.sol\":893:903  msg.sender */\n      caller\n        /* \"Documents/GitHub/contract-token-cryptoMonster/backend/shared/helpers/modifireFunc.sol\":880:904  structUsers_[msg.sender] */\n      0xffffffffffffffffffffffffffffffffffffffff\n      and\n      0xffffffffffffffffffffffffffffffffffffffff\n      and\n      dup2\n      mstore\n      0x20\n      add\n      swap1\n      dup2\n      mstore\n      0x20\n      add\n      0x00\n      keccak256\n        /* \"Documents/GitHub/contract-token-cryptoMonster/backend/shared/helpers/modifireFunc.sol\":880:909  structUsers_[msg.sender].role */\n      0x00\n      add\n      0x00\n      swap1\n      sload\n      swap1\n      0x0100\n      exp\n      swap1\n      div\n      0xff\n      and\n        /* \"Documents/GitHub/contract-token-cryptoMonster/backend/shared/helpers/modifireFunc.sol\":880:932  structUsers_[msg.sender].role == Role.SYSTEM_PRIVATE */\n      0x04\n      dup2\n      gt\n      iszero\n      tag_165\n      jumpi\n      tag_166\n      tag_47\n      jump\t// in\n    tag_166:\n    tag_165:\n      eq\n        /* \"Documents/GitHub/contract-token-cryptoMonster/backend/shared/helpers/modifireFunc.sol\":826:932  structUsers_[msg.sender].role == Role.SYSTEM_OWNER || structUsers_[msg.sender].role == Role.SYSTEM_PRIVATE */\n    tag_162:\n        /* \"Documents/GitHub/contract-token-cryptoMonster/backend/shared/helpers/modifireFunc.sol\":818:978  require(structUsers_[msg.sender].role == Role.SYSTEM_OWNER || structUsers_[msg.sender].role == Role.SYSTEM_PRIVATE, \"You are not the owner or private provider\") */\n      tag_167\n      jumpi\n      mload(0x40)\n      0x08c379a000000000000000000000000000000000000000000000000000000000\n      dup2\n      mstore\n      0x04\n      add\n      tag_168\n      swap1\n      tag_169\n      jump\t// in\n    tag_168:\n      mload(0x40)\n      dup1\n      swap2\n      sub\n      swap1\n      revert\n    tag_167:\n        /* \"Documents/GitHub/contract-token-cryptoMonster/backend/shared/helpers/helpresFunc.sol\":593:602  whiteList */\n      0x04\n        /* \"Documents/GitHub/contract-token-cryptoMonster/backend/shared/helpers/helpresFunc.sol\":586:603  return(whiteList) */\n      dup1\n      sload\n      dup1\n      0x20\n      mul\n      0x20\n      add\n      mload(0x40)\n      swap1\n      dup2\n      add\n      0x40\n      mstore\n      dup1\n      swap3\n      swap2\n      swap1\n      dup2\n      dup2\n      mstore\n      0x20\n      add\n      dup3\n      dup1\n      sload\n      dup1\n      iszero\n      tag_171\n      jumpi\n      0x20\n      mul\n      dup3\n      add\n      swap2\n      swap1\n      0x00\n      mstore\n      keccak256(0x00, 0x20)\n      swap1\n    tag_172:\n      dup2\n      0x00\n      swap1\n      sload\n      swap1\n      0x0100\n      exp\n      swap1\n      div\n      0xffffffffffffffffffffffffffffffffffffffff\n      and\n      0xffffffffffffffffffffffffffffffffffffffff\n      and\n      dup2\n      mstore\n      0x20\n      add\n      swap1\n      0x01\n      add\n      swap1\n      dup1\n      dup4\n      gt\n      tag_172\n      jumpi\n    tag_171:\n      pop\n      pop\n      pop\n      pop\n      pop\n      swap1\n      pop\n        /* \"Documents/GitHub/contract-token-cryptoMonster/backend/shared/helpers/helpresFunc.sol\":483:611  function get_whiteList() public onlyOwnerAndPrivateProvider view returns (address[] memory) {\r... */\n      swap1\n      jump\t// out\n    tag_104:\n      dup3\n      dup1\n      sload\n      tag_173\n      swap1\n      tag_148\n      jump\t// in\n    tag_173:\n      swap1\n      0x00\n      mstore\n      keccak256(0x00, 0x20)\n      swap1\n      0x1f\n      add\n      0x20\n      swap1\n      div\n      dup2\n      add\n      swap3\n      dup3\n      tag_175\n      jumpi\n      0x00\n      dup6\n      sstore\n      jump(tag_174)\n    tag_175:\n      dup3\n      0x1f\n      lt\n      tag_176\n      jumpi\n      dup1\n      mload\n      not(0xff)\n      and\n      dup4\n      dup1\n      add\n      or\n      dup6\n      sstore\n      jump(tag_174)\n    tag_176:\n      dup3\n      dup1\n      add\n      0x01\n      add\n      dup6\n      sstore\n      dup3\n      iszero\n      tag_174\n      jumpi\n      swap2\n      dup3\n      add\n    tag_177:\n      dup3\n      dup2\n      gt\n      iszero\n      tag_178\n      jumpi\n      dup3\n      mload\n      dup3\n      sstore\n      swap2\n      0x20\n      add\n      swap2\n      swap1\n      0x01\n      add\n      swap1\n      jump(tag_177)\n    tag_178:\n    tag_174:\n      pop\n      swap1\n      pop\n      tag_179\n      swap2\n      swap1\n      tag_180\n      jump\t// in\n    tag_179:\n      pop\n      swap1\n      jump\t// out\n    tag_180:\n    tag_181:\n      dup1\n      dup3\n      gt\n      iszero\n      tag_182\n      jumpi\n      0x00\n      dup2\n      0x00\n      swap1\n      sstore\n      pop\n      0x01\n      add\n      jump(tag_181)\n    tag_182:\n      pop\n      swap1\n      jump\t// out\n        /* \"#utility.yul\":7:419   */\n    tag_184:\n        /* \"#utility.yul\":85:90   */\n      0x00\n        /* \"#utility.yul\":110:176   */\n      tag_186\n        /* \"#utility.yul\":126:175   */\n      tag_187\n        /* \"#utility.yul\":168:174   */\n      dup5\n        /* \"#utility.yul\":126:175   */\n      tag_188\n      jump\t// in\n    tag_187:\n        /* \"#utility.yul\":110:176   */\n      tag_189\n      jump\t// in\n    tag_186:\n        /* \"#utility.yul\":101:176   */\n      swap1\n      pop\n        /* \"#utility.yul\":199:205   */\n      dup3\n        /* \"#utility.yul\":192:197   */\n      dup2\n        /* \"#utility.yul\":185:206   */\n      mstore\n        /* \"#utility.yul\":237:241   */\n      0x20\n        /* \"#utility.yul\":230:235   */\n      dup2\n        /* \"#utility.yul\":226:242   */\n      add\n        /* \"#utility.yul\":275:278   */\n      dup5\n        /* \"#utility.yul\":266:272   */\n      dup5\n        /* \"#utility.yul\":261:264   */\n      dup5\n        /* \"#utility.yul\":257:273   */\n      add\n        /* \"#utility.yul\":254:279   */\n      gt\n        /* \"#utility.yul\":251:363   */\n      iszero\n      tag_190\n      jumpi\n        /* \"#utility.yul\":282:361   */\n      tag_191\n      tag_192\n      jump\t// in\n    tag_191:\n        /* \"#utility.yul\":251:363   */\n    tag_190:\n        /* \"#utility.yul\":372:413   */\n      tag_193\n        /* \"#utility.yul\":406:412   */\n      dup5\n        /* \"#utility.yul\":401:404   */\n      dup3\n        /* \"#utility.yul\":396:399   */\n      dup6\n        /* \"#utility.yul\":372:413   */\n      tag_194\n      jump\t// in\n    tag_193:\n        /* \"#utility.yul\":91:419   */\n      pop\n        /* \"#utility.yul\":7:419   */\n      swap4\n      swap3\n      pop\n      pop\n      pop\n      jump\t// out\n        /* \"#utility.yul\":425:564   */\n    tag_195:\n        /* \"#utility.yul\":471:476   */\n      0x00\n        /* \"#utility.yul\":509:515   */\n      dup2\n        /* \"#utility.yul\":496:516   */\n      calldataload\n        /* \"#utility.yul\":487:516   */\n      swap1\n      pop\n        /* \"#utility.yul\":525:558   */\n      tag_197\n        /* \"#utility.yul\":552:557   */\n      dup2\n        /* \"#utility.yul\":525:558   */\n      tag_198\n      jump\t// in\n    tag_197:\n        /* \"#utility.yul\":425:564   */\n      swap3\n      swap2\n      pop\n      pop\n      jump\t// out\n        /* \"#utility.yul\":584:924   */\n    tag_199:\n        /* \"#utility.yul\":640:645   */\n      0x00\n        /* \"#utility.yul\":689:692   */\n      dup3\n        /* \"#utility.yul\":682:686   */\n      0x1f\n        /* \"#utility.yul\":674:680   */\n      dup4\n        /* \"#utility.yul\":670:687   */\n      add\n        /* \"#utility.yul\":666:693   */\n      slt\n        /* \"#utility.yul\":656:778   */\n      tag_201\n      jumpi\n        /* \"#utility.yul\":697:776   */\n      tag_202\n      tag_203\n      jump\t// in\n    tag_202:\n        /* \"#utility.yul\":656:778   */\n    tag_201:\n        /* \"#utility.yul\":814:820   */\n      dup2\n        /* \"#utility.yul\":801:821   */\n      calldataload\n        /* \"#utility.yul\":839:918   */\n      tag_204\n        /* \"#utility.yul\":914:917   */\n      dup5\n        /* \"#utility.yul\":906:912   */\n      dup3\n        /* \"#utility.yul\":899:903   */\n      0x20\n        /* \"#utility.yul\":891:897   */\n      dup7\n        /* \"#utility.yul\":887:904   */\n      add\n        /* \"#utility.yul\":839:918   */\n      tag_184\n      jump\t// in\n    tag_204:\n        /* \"#utility.yul\":830:918   */\n      swap2\n      pop\n        /* \"#utility.yul\":646:924   */\n      pop\n        /* \"#utility.yul\":584:924   */\n      swap3\n      swap2\n      pop\n      pop\n      jump\t// out\n        /* \"#utility.yul\":930:1259   */\n    tag_17:\n        /* \"#utility.yul\":989:995   */\n      0x00\n        /* \"#utility.yul\":1038:1040   */\n      0x20\n        /* \"#utility.yul\":1026:1035   */\n      dup3\n        /* \"#utility.yul\":1017:1024   */\n      dup5\n        /* \"#utility.yul\":1013:1036   */\n      sub\n        /* \"#utility.yul\":1009:1041   */\n      slt\n        /* \"#utility.yul\":1006:1125   */\n      iszero\n      tag_206\n      jumpi\n        /* \"#utility.yul\":1044:1123   */\n      tag_207\n      tag_208\n      jump\t// in\n    tag_207:\n        /* \"#utility.yul\":1006:1125   */\n    tag_206:\n        /* \"#utility.yul\":1164:1165   */\n      0x00\n        /* \"#utility.yul\":1189:1242   */\n      tag_209\n        /* \"#utility.yul\":1234:1241   */\n      dup5\n        /* \"#utility.yul\":1225:1231   */\n      dup3\n        /* \"#utility.yul\":1214:1223   */\n      dup6\n        /* \"#utility.yul\":1210:1232   */\n      add\n        /* \"#utility.yul\":1189:1242   */\n      tag_195\n      jump\t// in\n    tag_209:\n        /* \"#utility.yul\":1179:1242   */\n      swap2\n      pop\n        /* \"#utility.yul\":1135:1252   */\n      pop\n        /* \"#utility.yul\":930:1259   */\n      swap3\n      swap2\n      pop\n      pop\n      jump\t// out\n        /* \"#utility.yul\":1265:1774   */\n    tag_34:\n        /* \"#utility.yul\":1334:1340   */\n      0x00\n        /* \"#utility.yul\":1383:1385   */\n      0x20\n        /* \"#utility.yul\":1371:1380   */\n      dup3\n        /* \"#utility.yul\":1362:1369   */\n      dup5\n        /* \"#utility.yul\":1358:1381   */\n      sub\n        /* \"#utility.yul\":1354:1386   */\n      slt\n        /* \"#utility.yul\":1351:1470   */\n      iszero\n      tag_211\n      jumpi\n        /* \"#utility.yul\":1389:1468   */\n      tag_212\n      tag_208\n      jump\t// in\n    tag_212:\n        /* \"#utility.yul\":1351:1470   */\n    tag_211:\n        /* \"#utility.yul\":1537:1538   */\n      0x00\n        /* \"#utility.yul\":1526:1535   */\n      dup3\n        /* \"#utility.yul\":1522:1539   */\n      add\n        /* \"#utility.yul\":1509:1540   */\n      calldataload\n        /* \"#utility.yul\":1567:1585   */\n      0xffffffffffffffff\n        /* \"#utility.yul\":1559:1565   */\n      dup2\n        /* \"#utility.yul\":1556:1586   */\n      gt\n        /* \"#utility.yul\":1553:1670   */\n      iszero\n      tag_213\n      jumpi\n        /* \"#utility.yul\":1589:1668   */\n      tag_214\n      tag_215\n      jump\t// in\n    tag_214:\n        /* \"#utility.yul\":1553:1670   */\n    tag_213:\n        /* \"#utility.yul\":1694:1757   */\n      tag_216\n        /* \"#utility.yul\":1749:1756   */\n      dup5\n        /* \"#utility.yul\":1740:1746   */\n      dup3\n        /* \"#utility.yul\":1729:1738   */\n      dup6\n        /* \"#utility.yul\":1725:1747   */\n      add\n        /* \"#utility.yul\":1694:1757   */\n      tag_199\n      jump\t// in\n    tag_216:\n        /* \"#utility.yul\":1684:1757   */\n      swap2\n      pop\n        /* \"#utility.yul\":1480:1767   */\n      pop\n        /* \"#utility.yul\":1265:1774   */\n      swap3\n      swap2\n      pop\n      pop\n      jump\t// out\n        /* \"#utility.yul\":1780:2759   */\n    tag_25:\n        /* \"#utility.yul\":1877:1883   */\n      0x00\n        /* \"#utility.yul\":1885:1891   */\n      dup1\n        /* \"#utility.yul\":1893:1899   */\n      0x00\n        /* \"#utility.yul\":1942:1944   */\n      0x60\n        /* \"#utility.yul\":1930:1939   */\n      dup5\n        /* \"#utility.yul\":1921:1928   */\n      dup7\n        /* \"#utility.yul\":1917:1940   */\n      sub\n        /* \"#utility.yul\":1913:1945   */\n      slt\n        /* \"#utility.yul\":1910:2029   */\n      iszero\n      tag_218\n      jumpi\n        /* \"#utility.yul\":1948:2027   */\n      tag_219\n      tag_208\n      jump\t// in\n    tag_219:\n        /* \"#utility.yul\":1910:2029   */\n    tag_218:\n        /* \"#utility.yul\":2096:2097   */\n      0x00\n        /* \"#utility.yul\":2085:2094   */\n      dup5\n        /* \"#utility.yul\":2081:2098   */\n      add\n        /* \"#utility.yul\":2068:2099   */\n      calldataload\n        /* \"#utility.yul\":2126:2144   */\n      0xffffffffffffffff\n        /* \"#utility.yul\":2118:2124   */\n      dup2\n        /* \"#utility.yul\":2115:2145   */\n      gt\n        /* \"#utility.yul\":2112:2229   */\n      iszero\n      tag_220\n      jumpi\n        /* \"#utility.yul\":2148:2227   */\n      tag_221\n      tag_215\n      jump\t// in\n    tag_221:\n        /* \"#utility.yul\":2112:2229   */\n    tag_220:\n        /* \"#utility.yul\":2253:2316   */\n      tag_222\n        /* \"#utility.yul\":2308:2315   */\n      dup7\n        /* \"#utility.yul\":2299:2305   */\n      dup3\n        /* \"#utility.yul\":2288:2297   */\n      dup8\n        /* \"#utility.yul\":2284:2306   */\n      add\n        /* \"#utility.yul\":2253:2316   */\n      tag_199\n      jump\t// in\n    tag_222:\n        /* \"#utility.yul\":2243:2316   */\n      swap4\n      pop\n        /* \"#utility.yul\":2039:2326   */\n      pop\n        /* \"#utility.yul\":2393:2395   */\n      0x20\n        /* \"#utility.yul\":2382:2391   */\n      dup5\n        /* \"#utility.yul\":2378:2396   */\n      add\n        /* \"#utility.yul\":2365:2397   */\n      calldataload\n        /* \"#utility.yul\":2424:2442   */\n      0xffffffffffffffff\n        /* \"#utility.yul\":2416:2422   */\n      dup2\n        /* \"#utility.yul\":2413:2443   */\n      gt\n        /* \"#utility.yul\":2410:2527   */\n      iszero\n      tag_223\n      jumpi\n        /* \"#utility.yul\":2446:2525   */\n      tag_224\n      tag_215\n      jump\t// in\n    tag_224:\n        /* \"#utility.yul\":2410:2527   */\n    tag_223:\n        /* \"#utility.yul\":2551:2614   */\n      tag_225\n        /* \"#utility.yul\":2606:2613   */\n      dup7\n        /* \"#utility.yul\":2597:2603   */\n      dup3\n        /* \"#utility.yul\":2586:2595   */\n      dup8\n        /* \"#utility.yul\":2582:2604   */\n      add\n        /* \"#utility.yul\":2551:2614   */\n      tag_199\n      jump\t// in\n    tag_225:\n        /* \"#utility.yul\":2541:2614   */\n      swap3\n      pop\n        /* \"#utility.yul\":2336:2624   */\n      pop\n        /* \"#utility.yul\":2663:2665   */\n      0x40\n        /* \"#utility.yul\":2689:2742   */\n      tag_226\n        /* \"#utility.yul\":2734:2741   */\n      dup7\n        /* \"#utility.yul\":2725:2731   */\n      dup3\n        /* \"#utility.yul\":2714:2723   */\n      dup8\n        /* \"#utility.yul\":2710:2732   */\n      add\n        /* \"#utility.yul\":2689:2742   */\n      tag_195\n      jump\t// in\n    tag_226:\n        /* \"#utility.yul\":2679:2742   */\n      swap2\n      pop\n        /* \"#utility.yul\":2634:2752   */\n      pop\n        /* \"#utility.yul\":1780:2759   */\n      swap3\n      pop\n      swap3\n      pop\n      swap3\n      jump\t// out\n        /* \"#utility.yul\":2765:2944   */\n    tag_227:\n        /* \"#utility.yul\":2834:2844   */\n      0x00\n        /* \"#utility.yul\":2855:2901   */\n      tag_229\n        /* \"#utility.yul\":2897:2900   */\n      dup4\n        /* \"#utility.yul\":2889:2895   */\n      dup4\n        /* \"#utility.yul\":2855:2901   */\n      tag_230\n      jump\t// in\n    tag_229:\n        /* \"#utility.yul\":2933:2937   */\n      0x20\n        /* \"#utility.yul\":2928:2931   */\n      dup4\n        /* \"#utility.yul\":2924:2938   */\n      add\n        /* \"#utility.yul\":2910:2938   */\n      swap1\n      pop\n        /* \"#utility.yul\":2765:2944   */\n      swap3\n      swap2\n      pop\n      pop\n      jump\t// out\n        /* \"#utility.yul\":2950:3058   */\n    tag_230:\n        /* \"#utility.yul\":3027:3051   */\n      tag_232\n        /* \"#utility.yul\":3045:3050   */\n      dup2\n        /* \"#utility.yul\":3027:3051   */\n      tag_233\n      jump\t// in\n    tag_232:\n        /* \"#utility.yul\":3022:3025   */\n      dup3\n        /* \"#utility.yul\":3015:3052   */\n      mstore\n        /* \"#utility.yul\":2950:3058   */\n      pop\n      pop\n      jump\t// out\n        /* \"#utility.yul\":3094:3826   */\n    tag_234:\n        /* \"#utility.yul\":3213:3216   */\n      0x00\n        /* \"#utility.yul\":3242:3296   */\n      tag_236\n        /* \"#utility.yul\":3290:3295   */\n      dup3\n        /* \"#utility.yul\":3242:3296   */\n      tag_237\n      jump\t// in\n    tag_236:\n        /* \"#utility.yul\":3312:3398   */\n      tag_238\n        /* \"#utility.yul\":3391:3397   */\n      dup2\n        /* \"#utility.yul\":3386:3389   */\n      dup6\n        /* \"#utility.yul\":3312:3398   */\n      tag_239\n      jump\t// in\n    tag_238:\n        /* \"#utility.yul\":3305:3398   */\n      swap4\n      pop\n        /* \"#utility.yul\":3422:3478   */\n      tag_240\n        /* \"#utility.yul\":3472:3477   */\n      dup4\n        /* \"#utility.yul\":3422:3478   */\n      tag_241\n      jump\t// in\n    tag_240:\n        /* \"#utility.yul\":3501:3508   */\n      dup1\n        /* \"#utility.yul\":3532:3533   */\n      0x00\n        /* \"#utility.yul\":3517:3801   */\n    tag_242:\n        /* \"#utility.yul\":3542:3548   */\n      dup4\n        /* \"#utility.yul\":3539:3540   */\n      dup2\n        /* \"#utility.yul\":3536:3549   */\n      lt\n        /* \"#utility.yul\":3517:3801   */\n      iszero\n      tag_244\n      jumpi\n        /* \"#utility.yul\":3618:3624   */\n      dup2\n        /* \"#utility.yul\":3612:3625   */\n      mload\n        /* \"#utility.yul\":3645:3708   */\n      tag_245\n        /* \"#utility.yul\":3704:3707   */\n      dup9\n        /* \"#utility.yul\":3689:3702   */\n      dup3\n        /* \"#utility.yul\":3645:3708   */\n      tag_227\n      jump\t// in\n    tag_245:\n        /* \"#utility.yul\":3638:3708   */\n      swap8\n      pop\n        /* \"#utility.yul\":3731:3791   */\n      tag_246\n        /* \"#utility.yul\":3784:3790   */\n      dup4\n        /* \"#utility.yul\":3731:3791   */\n      tag_247\n      jump\t// in\n    tag_246:\n        /* \"#utility.yul\":3721:3791   */\n      swap3\n      pop\n        /* \"#utility.yul\":3577:3801   */\n      pop\n        /* \"#utility.yul\":3564:3565   */\n      0x01\n        /* \"#utility.yul\":3561:3562   */\n      dup2\n        /* \"#utility.yul\":3557:3566   */\n      add\n        /* \"#utility.yul\":3552:3566   */\n      swap1\n      pop\n        /* \"#utility.yul\":3517:3801   */\n      jump(tag_242)\n    tag_244:\n        /* \"#utility.yul\":3521:3535   */\n      pop\n        /* \"#utility.yul\":3817:3820   */\n      dup6\n        /* \"#utility.yul\":3810:3820   */\n      swap4\n      pop\n        /* \"#utility.yul\":3218:3826   */\n      pop\n      pop\n      pop\n        /* \"#utility.yul\":3094:3826   */\n      swap3\n      swap2\n      pop\n      pop\n      jump\t// out\n        /* \"#utility.yul\":3832:3950   */\n    tag_248:\n        /* \"#utility.yul\":3919:3943   */\n      tag_250\n        /* \"#utility.yul\":3937:3942   */\n      dup2\n        /* \"#utility.yul\":3919:3943   */\n      tag_251\n      jump\t// in\n    tag_250:\n        /* \"#utility.yul\":3914:3917   */\n      dup3\n        /* \"#utility.yul\":3907:3944   */\n      mstore\n        /* \"#utility.yul\":3832:3950   */\n      pop\n      pop\n      jump\t// out\n        /* \"#utility.yul\":3956:4333   */\n    tag_252:\n        /* \"#utility.yul\":4062:4065   */\n      0x00\n        /* \"#utility.yul\":4090:4129   */\n      tag_254\n        /* \"#utility.yul\":4123:4128   */\n      dup3\n        /* \"#utility.yul\":4090:4129   */\n      tag_255\n      jump\t// in\n    tag_254:\n        /* \"#utility.yul\":4145:4234   */\n      tag_256\n        /* \"#utility.yul\":4227:4233   */\n      dup2\n        /* \"#utility.yul\":4222:4225   */\n      dup6\n        /* \"#utility.yul\":4145:4234   */\n      tag_257\n      jump\t// in\n    tag_256:\n        /* \"#utility.yul\":4138:4234   */\n      swap4\n      pop\n        /* \"#utility.yul\":4243:4295   */\n      tag_258\n        /* \"#utility.yul\":4288:4294   */\n      dup2\n        /* \"#utility.yul\":4283:4286   */\n      dup6\n        /* \"#utility.yul\":4276:4280   */\n      0x20\n        /* \"#utility.yul\":4269:4274   */\n      dup7\n        /* \"#utility.yul\":4265:4281   */\n      add\n        /* \"#utility.yul\":4243:4295   */\n      tag_259\n      jump\t// in\n    tag_258:\n        /* \"#utility.yul\":4320:4326   */\n      dup1\n        /* \"#utility.yul\":4315:4318   */\n      dup5\n        /* \"#utility.yul\":4311:4327   */\n      add\n        /* \"#utility.yul\":4304:4327   */\n      swap2\n      pop\n        /* \"#utility.yul\":4066:4333   */\n      pop\n        /* \"#utility.yul\":3956:4333   */\n      swap3\n      swap2\n      pop\n      pop\n      jump\t// out\n        /* \"#utility.yul\":4339:4705   */\n    tag_260:\n        /* \"#utility.yul\":4481:4484   */\n      0x00\n        /* \"#utility.yul\":4502:4569   */\n      tag_262\n        /* \"#utility.yul\":4566:4568   */\n      0x1c\n        /* \"#utility.yul\":4561:4564   */\n      dup4\n        /* \"#utility.yul\":4502:4569   */\n      tag_263\n      jump\t// in\n    tag_262:\n        /* \"#utility.yul\":4495:4569   */\n      swap2\n      pop\n        /* \"#utility.yul\":4578:4671   */\n      tag_264\n        /* \"#utility.yul\":4667:4670   */\n      dup3\n        /* \"#utility.yul\":4578:4671   */\n      tag_265\n      jump\t// in\n    tag_264:\n        /* \"#utility.yul\":4696:4698   */\n      0x20\n        /* \"#utility.yul\":4691:4694   */\n      dup3\n        /* \"#utility.yul\":4687:4699   */\n      add\n        /* \"#utility.yul\":4680:4699   */\n      swap1\n      pop\n        /* \"#utility.yul\":4339:4705   */\n      swap2\n      swap1\n      pop\n      jump\t// out\n        /* \"#utility.yul\":4711:5077   */\n    tag_266:\n        /* \"#utility.yul\":4853:4856   */\n      0x00\n        /* \"#utility.yul\":4874:4941   */\n      tag_268\n        /* \"#utility.yul\":4938:4940   */\n      0x14\n        /* \"#utility.yul\":4933:4936   */\n      dup4\n        /* \"#utility.yul\":4874:4941   */\n      tag_263\n      jump\t// in\n    tag_268:\n        /* \"#utility.yul\":4867:4941   */\n      swap2\n      pop\n        /* \"#utility.yul\":4950:5043   */\n      tag_269\n        /* \"#utility.yul\":5039:5042   */\n      dup3\n        /* \"#utility.yul\":4950:5043   */\n      tag_270\n      jump\t// in\n    tag_269:\n        /* \"#utility.yul\":5068:5070   */\n      0x20\n        /* \"#utility.yul\":5063:5066   */\n      dup3\n        /* \"#utility.yul\":5059:5071   */\n      add\n        /* \"#utility.yul\":5052:5071   */\n      swap1\n      pop\n        /* \"#utility.yul\":4711:5077   */\n      swap2\n      swap1\n      pop\n      jump\t// out\n        /* \"#utility.yul\":5083:5449   */\n    tag_271:\n        /* \"#utility.yul\":5225:5228   */\n      0x00\n        /* \"#utility.yul\":5246:5313   */\n      tag_273\n        /* \"#utility.yul\":5310:5312   */\n      0x18\n        /* \"#utility.yul\":5305:5308   */\n      dup4\n        /* \"#utility.yul\":5246:5313   */\n      tag_263\n      jump\t// in\n    tag_273:\n        /* \"#utility.yul\":5239:5313   */\n      swap2\n      pop\n        /* \"#utility.yul\":5322:5415   */\n      tag_274\n        /* \"#utility.yul\":5411:5414   */\n      dup3\n        /* \"#utility.yul\":5322:5415   */\n      tag_275\n      jump\t// in\n    tag_274:\n        /* \"#utility.yul\":5440:5442   */\n      0x20\n        /* \"#utility.yul\":5435:5438   */\n      dup3\n        /* \"#utility.yul\":5431:5443   */\n      add\n        /* \"#utility.yul\":5424:5443   */\n      swap1\n      pop\n        /* \"#utility.yul\":5083:5449   */\n      swap2\n      swap1\n      pop\n      jump\t// out\n        /* \"#utility.yul\":5455:5821   */\n    tag_276:\n        /* \"#utility.yul\":5597:5600   */\n      0x00\n        /* \"#utility.yul\":5618:5685   */\n      tag_278\n        /* \"#utility.yul\":5682:5684   */\n      0x2a\n        /* \"#utility.yul\":5677:5680   */\n      dup4\n        /* \"#utility.yul\":5618:5685   */\n      tag_263\n      jump\t// in\n    tag_278:\n        /* \"#utility.yul\":5611:5685   */\n      swap2\n      pop\n        /* \"#utility.yul\":5694:5787   */\n      tag_279\n        /* \"#utility.yul\":5783:5786   */\n      dup3\n        /* \"#utility.yul\":5694:5787   */\n      tag_280\n      jump\t// in\n    tag_279:\n        /* \"#utility.yul\":5812:5814   */\n      0x40\n        /* \"#utility.yul\":5807:5810   */\n      dup3\n        /* \"#utility.yul\":5803:5815   */\n      add\n        /* \"#utility.yul\":5796:5815   */\n      swap1\n      pop\n        /* \"#utility.yul\":5455:5821   */\n      swap2\n      swap1\n      pop\n      jump\t// out\n        /* \"#utility.yul\":5827:6193   */\n    tag_281:\n        /* \"#utility.yul\":5969:5972   */\n      0x00\n        /* \"#utility.yul\":5990:6057   */\n      tag_283\n        /* \"#utility.yul\":6054:6056   */\n      0x29\n        /* \"#utility.yul\":6049:6052   */\n      dup4\n        /* \"#utility.yul\":5990:6057   */\n      tag_263\n      jump\t// in\n    tag_283:\n        /* \"#utility.yul\":5983:6057   */\n      swap2\n      pop\n        /* \"#utility.yul\":6066:6159   */\n      tag_284\n        /* \"#utility.yul\":6155:6158   */\n      dup3\n        /* \"#utility.yul\":6066:6159   */\n      tag_285\n      jump\t// in\n    tag_284:\n        /* \"#utility.yul\":6184:6186   */\n      0x40\n        /* \"#utility.yul\":6179:6182   */\n      dup3\n        /* \"#utility.yul\":6175:6187   */\n      add\n        /* \"#utility.yul\":6168:6187   */\n      swap1\n      pop\n        /* \"#utility.yul\":5827:6193   */\n      swap2\n      swap1\n      pop\n      jump\t// out\n        /* \"#utility.yul\":6199:6565   */\n    tag_286:\n        /* \"#utility.yul\":6341:6344   */\n      0x00\n        /* \"#utility.yul\":6362:6429   */\n      tag_288\n        /* \"#utility.yul\":6426:6428   */\n      0x20\n        /* \"#utility.yul\":6421:6424   */\n      dup4\n        /* \"#utility.yul\":6362:6429   */\n      tag_263\n      jump\t// in\n    tag_288:\n        /* \"#utility.yul\":6355:6429   */\n      swap2\n      pop\n        /* \"#utility.yul\":6438:6531   */\n      tag_289\n        /* \"#utility.yul\":6527:6530   */\n      dup3\n        /* \"#utility.yul\":6438:6531   */\n      tag_290\n      jump\t// in\n    tag_289:\n        /* \"#utility.yul\":6556:6558   */\n      0x20\n        /* \"#utility.yul\":6551:6554   */\n      dup3\n        /* \"#utility.yul\":6547:6559   */\n      add\n        /* \"#utility.yul\":6540:6559   */\n      swap1\n      pop\n        /* \"#utility.yul\":6199:6565   */\n      swap2\n      swap1\n      pop\n      jump\t// out\n        /* \"#utility.yul\":6571:6937   */\n    tag_291:\n        /* \"#utility.yul\":6713:6716   */\n      0x00\n        /* \"#utility.yul\":6734:6801   */\n      tag_293\n        /* \"#utility.yul\":6798:6800   */\n      0x0e\n        /* \"#utility.yul\":6793:6796   */\n      dup4\n        /* \"#utility.yul\":6734:6801   */\n      tag_263\n      jump\t// in\n    tag_293:\n        /* \"#utility.yul\":6727:6801   */\n      swap2\n      pop\n        /* \"#utility.yul\":6810:6903   */\n      tag_294\n        /* \"#utility.yul\":6899:6902   */\n      dup3\n        /* \"#utility.yul\":6810:6903   */\n      tag_295\n      jump\t// in\n    tag_294:\n        /* \"#utility.yul\":6928:6930   */\n      0x20\n        /* \"#utility.yul\":6923:6926   */\n      dup3\n        /* \"#utility.yul\":6919:6931   */\n      add\n        /* \"#utility.yul\":6912:6931   */\n      swap1\n      pop\n        /* \"#utility.yul\":6571:6937   */\n      swap2\n      swap1\n      pop\n      jump\t// out\n        /* \"#utility.yul\":6943:7309   */\n    tag_296:\n        /* \"#utility.yul\":7085:7088   */\n      0x00\n        /* \"#utility.yul\":7106:7173   */\n      tag_298\n        /* \"#utility.yul\":7170:7172   */\n      0x19\n        /* \"#utility.yul\":7165:7168   */\n      dup4\n        /* \"#utility.yul\":7106:7173   */\n      tag_263\n      jump\t// in\n    tag_298:\n        /* \"#utility.yul\":7099:7173   */\n      swap2\n      pop\n        /* \"#utility.yul\":7182:7275   */\n      tag_299\n        /* \"#utility.yul\":7271:7274   */\n      dup3\n        /* \"#utility.yul\":7182:7275   */\n      tag_300\n      jump\t// in\n    tag_299:\n        /* \"#utility.yul\":7300:7302   */\n      0x20\n        /* \"#utility.yul\":7295:7298   */\n      dup3\n        /* \"#utility.yul\":7291:7303   */\n      add\n        /* \"#utility.yul\":7284:7303   */\n      swap1\n      pop\n        /* \"#utility.yul\":6943:7309   */\n      swap2\n      swap1\n      pop\n      jump\t// out\n        /* \"#utility.yul\":7315:7681   */\n    tag_301:\n        /* \"#utility.yul\":7457:7460   */\n      0x00\n        /* \"#utility.yul\":7478:7545   */\n      tag_303\n        /* \"#utility.yul\":7542:7544   */\n      0x17\n        /* \"#utility.yul\":7537:7540   */\n      dup4\n        /* \"#utility.yul\":7478:7545   */\n      tag_263\n      jump\t// in\n    tag_303:\n        /* \"#utility.yul\":7471:7545   */\n      swap2\n      pop\n        /* \"#utility.yul\":7554:7647   */\n      tag_304\n        /* \"#utility.yul\":7643:7646   */\n      dup3\n        /* \"#utility.yul\":7554:7647   */\n      tag_305\n      jump\t// in\n    tag_304:\n        /* \"#utility.yul\":7672:7674   */\n      0x20\n        /* \"#utility.yul\":7667:7670   */\n      dup3\n        /* \"#utility.yul\":7663:7675   */\n      add\n        /* \"#utility.yul\":7656:7675   */\n      swap1\n      pop\n        /* \"#utility.yul\":7315:7681   */\n      swap2\n      swap1\n      pop\n      jump\t// out\n        /* \"#utility.yul\":7687:8053   */\n    tag_306:\n        /* \"#utility.yul\":7829:7832   */\n      0x00\n        /* \"#utility.yul\":7850:7917   */\n      tag_308\n        /* \"#utility.yul\":7914:7916   */\n      0x37\n        /* \"#utility.yul\":7909:7912   */\n      dup4\n        /* \"#utility.yul\":7850:7917   */\n      tag_263\n      jump\t// in\n    tag_308:\n        /* \"#utility.yul\":7843:7917   */\n      swap2\n      pop\n        /* \"#utility.yul\":7926:8019   */\n      tag_309\n        /* \"#utility.yul\":8015:8018   */\n      dup3\n        /* \"#utility.yul\":7926:8019   */\n      tag_310\n      jump\t// in\n    tag_309:\n        /* \"#utility.yul\":8044:8046   */\n      0x40\n        /* \"#utility.yul\":8039:8042   */\n      dup3\n        /* \"#utility.yul\":8035:8047   */\n      add\n        /* \"#utility.yul\":8028:8047   */\n      swap1\n      pop\n        /* \"#utility.yul\":7687:8053   */\n      swap2\n      swap1\n      pop\n      jump\t// out\n        /* \"#utility.yul\":8059:8334   */\n    tag_132:\n        /* \"#utility.yul\":8191:8194   */\n      0x00\n        /* \"#utility.yul\":8213:8308   */\n      tag_312\n        /* \"#utility.yul\":8304:8307   */\n      dup3\n        /* \"#utility.yul\":8295:8301   */\n      dup5\n        /* \"#utility.yul\":8213:8308   */\n      tag_252\n      jump\t// in\n    tag_312:\n        /* \"#utility.yul\":8206:8308   */\n      swap2\n      pop\n        /* \"#utility.yul\":8325:8328   */\n      dup2\n        /* \"#utility.yul\":8318:8328   */\n      swap1\n      pop\n        /* \"#utility.yul\":8059:8334   */\n      swap3\n      swap2\n      pop\n      pop\n      jump\t// out\n        /* \"#utility.yul\":8340:8713   */\n    tag_22:\n        /* \"#utility.yul\":8483:8487   */\n      0x00\n        /* \"#utility.yul\":8521:8523   */\n      0x20\n        /* \"#utility.yul\":8510:8519   */\n      dup3\n        /* \"#utility.yul\":8506:8524   */\n      add\n        /* \"#utility.yul\":8498:8524   */\n      swap1\n      pop\n        /* \"#utility.yul\":8570:8579   */\n      dup2\n        /* \"#utility.yul\":8564:8568   */\n      dup2\n        /* \"#utility.yul\":8560:8580   */\n      sub\n        /* \"#utility.yul\":8556:8557   */\n      0x00\n        /* \"#utility.yul\":8545:8554   */\n      dup4\n        /* \"#utility.yul\":8541:8558   */\n      add\n        /* \"#utility.yul\":8534:8581   */\n      mstore\n        /* \"#utility.yul\":8598:8706   */\n      tag_314\n        /* \"#utility.yul\":8701:8705   */\n      dup2\n        /* \"#utility.yul\":8692:8698   */\n      dup5\n        /* \"#utility.yul\":8598:8706   */\n      tag_234\n      jump\t// in\n    tag_314:\n        /* \"#utility.yul\":8590:8706   */\n      swap1\n      pop\n        /* \"#utility.yul\":8340:8713   */\n      swap3\n      swap2\n      pop\n      pop\n      jump\t// out\n        /* \"#utility.yul\":8719:8941   */\n    tag_37:\n        /* \"#utility.yul\":8812:8816   */\n      0x00\n        /* \"#utility.yul\":8850:8852   */\n      0x20\n        /* \"#utility.yul\":8839:8848   */\n      dup3\n        /* \"#utility.yul\":8835:8853   */\n      add\n        /* \"#utility.yul\":8827:8853   */\n      swap1\n      pop\n        /* \"#utility.yul\":8863:8934   */\n      tag_316\n        /* \"#utility.yul\":8931:8932   */\n      0x00\n        /* \"#utility.yul\":8920:8929   */\n      dup4\n        /* \"#utility.yul\":8916:8933   */\n      add\n        /* \"#utility.yul\":8907:8913   */\n      dup5\n        /* \"#utility.yul\":8863:8934   */\n      tag_248\n      jump\t// in\n    tag_316:\n        /* \"#utility.yul\":8719:8941   */\n      swap3\n      swap2\n      pop\n      pop\n      jump\t// out\n        /* \"#utility.yul\":8947:9366   */\n    tag_68:\n        /* \"#utility.yul\":9113:9117   */\n      0x00\n        /* \"#utility.yul\":9151:9153   */\n      0x20\n        /* \"#utility.yul\":9140:9149   */\n      dup3\n        /* \"#utility.yul\":9136:9154   */\n      add\n        /* \"#utility.yul\":9128:9154   */\n      swap1\n      pop\n        /* \"#utility.yul\":9200:9209   */\n      dup2\n        /* \"#utility.yul\":9194:9198   */\n      dup2\n        /* \"#utility.yul\":9190:9210   */\n      sub\n        /* \"#utility.yul\":9186:9187   */\n      0x00\n        /* \"#utility.yul\":9175:9184   */\n      dup4\n        /* \"#utility.yul\":9171:9188   */\n      add\n        /* \"#utility.yul\":9164:9211   */\n      mstore\n        /* \"#utility.yul\":9228:9359   */\n      tag_318\n        /* \"#utility.yul\":9354:9358   */\n      dup2\n        /* \"#utility.yul\":9228:9359   */\n      tag_260\n      jump\t// in\n    tag_318:\n        /* \"#utility.yul\":9220:9359   */\n      swap1\n      pop\n        /* \"#utility.yul\":8947:9366   */\n      swap2\n      swap1\n      pop\n      jump\t// out\n        /* \"#utility.yul\":9372:9791   */\n    tag_57:\n        /* \"#utility.yul\":9538:9542   */\n      0x00\n        /* \"#utility.yul\":9576:9578   */\n      0x20\n        /* \"#utility.yul\":9565:9574   */\n      dup3\n        /* \"#utility.yul\":9561:9579   */\n      add\n        /* \"#utility.yul\":9553:9579   */\n      swap1\n      pop\n        /* \"#utility.yul\":9625:9634   */\n      dup2\n        /* \"#utility.yul\":9619:9623   */\n      dup2\n        /* \"#utility.yul\":9615:9635   */\n      sub\n        /* \"#utility.yul\":9611:9612   */\n      0x00\n        /* \"#utility.yul\":9600:9609   */\n      dup4\n        /* \"#utility.yul\":9596:9613   */\n      add\n        /* \"#utility.yul\":9589:9636   */\n      mstore\n        /* \"#utility.yul\":9653:9784   */\n      tag_320\n        /* \"#utility.yul\":9779:9783   */\n      dup2\n        /* \"#utility.yul\":9653:9784   */\n      tag_266\n      jump\t// in\n    tag_320:\n        /* \"#utility.yul\":9645:9784   */\n      swap1\n      pop\n        /* \"#utility.yul\":9372:9791   */\n      swap2\n      swap1\n      pop\n      jump\t// out\n        /* \"#utility.yul\":9797:10216   */\n    tag_97:\n        /* \"#utility.yul\":9963:9967   */\n      0x00\n        /* \"#utility.yul\":10001:10003   */\n      0x20\n        /* \"#utility.yul\":9990:9999   */\n      dup3\n        /* \"#utility.yul\":9986:10004   */\n      add\n        /* \"#utility.yul\":9978:10004   */\n      swap1\n      pop\n        /* \"#utility.yul\":10050:10059   */\n      dup2\n        /* \"#utility.yul\":10044:10048   */\n      dup2\n        /* \"#utility.yul\":10040:10060   */\n      sub\n        /* \"#utility.yul\":10036:10037   */\n      0x00\n        /* \"#utility.yul\":10025:10034   */\n      dup4\n        /* \"#utility.yul\":10021:10038   */\n      add\n        /* \"#utility.yul\":10014:10061   */\n      mstore\n        /* \"#utility.yul\":10078:10209   */\n      tag_322\n        /* \"#utility.yul\":10204:10208   */\n      dup2\n        /* \"#utility.yul\":10078:10209   */\n      tag_271\n      jump\t// in\n    tag_322:\n        /* \"#utility.yul\":10070:10209   */\n      swap1\n      pop\n        /* \"#utility.yul\":9797:10216   */\n      swap2\n      swap1\n      pop\n      jump\t// out\n        /* \"#utility.yul\":10222:10641   */\n    tag_102:\n        /* \"#utility.yul\":10388:10392   */\n      0x00\n        /* \"#utility.yul\":10426:10428   */\n      0x20\n        /* \"#utility.yul\":10415:10424   */\n      dup3\n        /* \"#utility.yul\":10411:10429   */\n      add\n        /* \"#utility.yul\":10403:10429   */\n      swap1\n      pop\n        /* \"#utility.yul\":10475:10484   */\n      dup2\n        /* \"#utility.yul\":10469:10473   */\n      dup2\n        /* \"#utility.yul\":10465:10485   */\n      sub\n        /* \"#utility.yul\":10461:10462   */\n      0x00\n        /* \"#utility.yul\":10450:10459   */\n      dup4\n        /* \"#utility.yul\":10446:10463   */\n      add\n        /* \"#utility.yul\":10439:10486   */\n      mstore\n        /* \"#utility.yul\":10503:10634   */\n      tag_324\n        /* \"#utility.yul\":10629:10633   */\n      dup2\n        /* \"#utility.yul\":10503:10634   */\n      tag_276\n      jump\t// in\n    tag_324:\n        /* \"#utility.yul\":10495:10634   */\n      swap1\n      pop\n        /* \"#utility.yul\":10222:10641   */\n      swap2\n      swap1\n      pop\n      jump\t// out\n        /* \"#utility.yul\":10647:11066   */\n    tag_169:\n        /* \"#utility.yul\":10813:10817   */\n      0x00\n        /* \"#utility.yul\":10851:10853   */\n      0x20\n        /* \"#utility.yul\":10840:10849   */\n      dup3\n        /* \"#utility.yul\":10836:10854   */\n      add\n        /* \"#utility.yul\":10828:10854   */\n      swap1\n      pop\n        /* \"#utility.yul\":10900:10909   */\n      dup2\n        /* \"#utility.yul\":10894:10898   */\n      dup2\n        /* \"#utility.yul\":10890:10910   */\n      sub\n        /* \"#utility.yul\":10886:10887   */\n      0x00\n        /* \"#utility.yul\":10875:10884   */\n      dup4\n        /* \"#utility.yul\":10871:10888   */\n      add\n        /* \"#utility.yul\":10864:10911   */\n      mstore\n        /* \"#utility.yul\":10928:11059   */\n      tag_326\n        /* \"#utility.yul\":11054:11058   */\n      dup2\n        /* \"#utility.yul\":10928:11059   */\n      tag_281\n      jump\t// in\n    tag_326:\n        /* \"#utility.yul\":10920:11059   */\n      swap1\n      pop\n        /* \"#utility.yul\":10647:11066   */\n      swap2\n      swap1\n      pop\n      jump\t// out\n        /* \"#utility.yul\":11072:11491   */\n    tag_118:\n        /* \"#utility.yul\":11238:11242   */\n      0x00\n        /* \"#utility.yul\":11276:11278   */\n      0x20\n        /* \"#utility.yul\":11265:11274   */\n      dup3\n        /* \"#utility.yul\":11261:11279   */\n      add\n        /* \"#utility.yul\":11253:11279   */\n      swap1\n      pop\n        /* \"#utility.yul\":11325:11334   */\n      dup2\n        /* \"#utility.yul\":11319:11323   */\n      dup2\n        /* \"#utility.yul\":11315:11335   */\n      sub\n        /* \"#utility.yul\":11311:11312   */\n      0x00\n        /* \"#utility.yul\":11300:11309   */\n      dup4\n        /* \"#utility.yul\":11296:11313   */\n      add\n        /* \"#utility.yul\":11289:11336   */\n      mstore\n        /* \"#utility.yul\":11353:11484   */\n      tag_328\n        /* \"#utility.yul\":11479:11483   */\n      dup2\n        /* \"#utility.yul\":11353:11484   */\n      tag_286\n      jump\t// in\n    tag_328:\n        /* \"#utility.yul\":11345:11484   */\n      swap1\n      pop\n        /* \"#utility.yul\":11072:11491   */\n      swap2\n      swap1\n      pop\n      jump\t// out\n        /* \"#utility.yul\":11497:11916   */\n    tag_126:\n        /* \"#utility.yul\":11663:11667   */\n      0x00\n        /* \"#utility.yul\":11701:11703   */\n      0x20\n        /* \"#utility.yul\":11690:11699   */\n      dup3\n        /* \"#utility.yul\":11686:11704   */\n      add\n        /* \"#utility.yul\":11678:11704   */\n      swap1\n      pop\n        /* \"#utility.yul\":11750:11759   */\n      dup2\n        /* \"#utility.yul\":11744:11748   */\n      dup2\n        /* \"#utility.yul\":11740:11760   */\n      sub\n        /* \"#utility.yul\":11736:11737   */\n      0x00\n        /* \"#utility.yul\":11725:11734   */\n      dup4\n        /* \"#utility.yul\":11721:11738   */\n      add\n        /* \"#utility.yul\":11714:11761   */\n      mstore\n        /* \"#utility.yul\":11778:11909   */\n      tag_330\n        /* \"#utility.yul\":11904:11908   */\n      dup2\n        /* \"#utility.yul\":11778:11909   */\n      tag_291\n      jump\t// in\n    tag_330:\n        /* \"#utility.yul\":11770:11909   */\n      swap1\n      pop\n        /* \"#utility.yul\":11497:11916   */\n      swap2\n      swap1\n      pop\n      jump\t// out\n        /* \"#utility.yul\":11922:12341   */\n    tag_52:\n        /* \"#utility.yul\":12088:12092   */\n      0x00\n        /* \"#utility.yul\":12126:12128   */\n      0x20\n        /* \"#utility.yul\":12115:12124   */\n      dup3\n        /* \"#utility.yul\":12111:12129   */\n      add\n        /* \"#utility.yul\":12103:12129   */\n      swap1\n      pop\n        /* \"#utility.yul\":12175:12184   */\n      dup2\n        /* \"#utility.yul\":12169:12173   */\n      dup2\n        /* \"#utility.yul\":12165:12185   */\n      sub\n        /* \"#utility.yul\":12161:12162   */\n      0x00\n        /* \"#utility.yul\":12150:12159   */\n      dup4\n        /* \"#utility.yul\":12146:12163   */\n      add\n        /* \"#utility.yul\":12139:12186   */\n      mstore\n        /* \"#utility.yul\":12203:12334   */\n      tag_332\n        /* \"#utility.yul\":12329:12333   */\n      dup2\n        /* \"#utility.yul\":12203:12334   */\n      tag_296\n      jump\t// in\n    tag_332:\n        /* \"#utility.yul\":12195:12334   */\n      swap1\n      pop\n        /* \"#utility.yul\":11922:12341   */\n      swap2\n      swap1\n      pop\n      jump\t// out\n        /* \"#utility.yul\":12347:12766   */\n    tag_83:\n        /* \"#utility.yul\":12513:12517   */\n      0x00\n        /* \"#utility.yul\":12551:12553   */\n      0x20\n        /* \"#utility.yul\":12540:12549   */\n      dup3\n        /* \"#utility.yul\":12536:12554   */\n      add\n        /* \"#utility.yul\":12528:12554   */\n      swap1\n      pop\n        /* \"#utility.yul\":12600:12609   */\n      dup2\n        /* \"#utility.yul\":12594:12598   */\n      dup2\n        /* \"#utility.yul\":12590:12610   */\n      sub\n        /* \"#utility.yul\":12586:12587   */\n      0x00\n        /* \"#utility.yul\":12575:12584   */\n      dup4\n        /* \"#utility.yul\":12571:12588   */\n      add\n        /* \"#utility.yul\":12564:12611   */\n      mstore\n        /* \"#utility.yul\":12628:12759   */\n      tag_334\n        /* \"#utility.yul\":12754:12758   */\n      dup2\n        /* \"#utility.yul\":12628:12759   */\n      tag_301\n      jump\t// in\n    tag_334:\n        /* \"#utility.yul\":12620:12759   */\n      swap1\n      pop\n        /* \"#utility.yul\":12347:12766   */\n      swap2\n      swap1\n      pop\n      jump\t// out\n        /* \"#utility.yul\":12772:13191   */\n    tag_86:\n        /* \"#utility.yul\":12938:12942   */\n      0x00\n        /* \"#utility.yul\":12976:12978   */\n      0x20\n        /* \"#utility.yul\":12965:12974   */\n      dup3\n        /* \"#utility.yul\":12961:12979   */\n      add\n        /* \"#utility.yul\":12953:12979   */\n      swap1\n      pop\n        /* \"#utility.yul\":13025:13034   */\n      dup2\n        /* \"#utility.yul\":13019:13023   */\n      dup2\n        /* \"#utility.yul\":13015:13035   */\n      sub\n        /* \"#utility.yul\":13011:13012   */\n      0x00\n        /* \"#utility.yul\":13000:13009   */\n      dup4\n        /* \"#utility.yul\":12996:13013   */\n      add\n        /* \"#utility.yul\":12989:13036   */\n      mstore\n        /* \"#utility.yul\":13053:13184   */\n      tag_336\n        /* \"#utility.yul\":13179:13183   */\n      dup2\n        /* \"#utility.yul\":13053:13184   */\n      tag_306\n      jump\t// in\n    tag_336:\n        /* \"#utility.yul\":13045:13184   */\n      swap1\n      pop\n        /* \"#utility.yul\":12772:13191   */\n      swap2\n      swap1\n      pop\n      jump\t// out\n        /* \"#utility.yul\":13197:13326   */\n    tag_189:\n        /* \"#utility.yul\":13231:13237   */\n      0x00\n        /* \"#utility.yul\":13258:13278   */\n      tag_338\n      tag_339\n      jump\t// in\n    tag_338:\n        /* \"#utility.yul\":13248:13278   */\n      swap1\n      pop\n        /* \"#utility.yul\":13287:13320   */\n      tag_340\n        /* \"#utility.yul\":13315:13319   */\n      dup3\n        /* \"#utility.yul\":13307:13313   */\n      dup3\n        /* \"#utility.yul\":13287:13320   */\n      tag_341\n      jump\t// in\n    tag_340:\n        /* \"#utility.yul\":13197:13326   */\n      swap2\n      swap1\n      pop\n      jump\t// out\n        /* \"#utility.yul\":13332:13407   */\n    tag_339:\n        /* \"#utility.yul\":13365:13371   */\n      0x00\n        /* \"#utility.yul\":13398:13400   */\n      0x40\n        /* \"#utility.yul\":13392:13401   */\n      mload\n        /* \"#utility.yul\":13382:13401   */\n      swap1\n      pop\n        /* \"#utility.yul\":13332:13407   */\n      swap1\n      jump\t// out\n        /* \"#utility.yul\":13413:13721   */\n    tag_188:\n        /* \"#utility.yul\":13475:13479   */\n      0x00\n        /* \"#utility.yul\":13565:13583   */\n      0xffffffffffffffff\n        /* \"#utility.yul\":13557:13563   */\n      dup3\n        /* \"#utility.yul\":13554:13584   */\n      gt\n        /* \"#utility.yul\":13551:13607   */\n      iszero\n      tag_344\n      jumpi\n        /* \"#utility.yul\":13587:13605   */\n      tag_345\n      tag_346\n      jump\t// in\n    tag_345:\n        /* \"#utility.yul\":13551:13607   */\n    tag_344:\n        /* \"#utility.yul\":13625:13654   */\n      tag_347\n        /* \"#utility.yul\":13647:13653   */\n      dup3\n        /* \"#utility.yul\":13625:13654   */\n      tag_348\n      jump\t// in\n    tag_347:\n        /* \"#utility.yul\":13617:13654   */\n      swap1\n      pop\n        /* \"#utility.yul\":13709:13713   */\n      0x20\n        /* \"#utility.yul\":13703:13707   */\n      dup2\n        /* \"#utility.yul\":13699:13714   */\n      add\n        /* \"#utility.yul\":13691:13714   */\n      swap1\n      pop\n        /* \"#utility.yul\":13413:13721   */\n      swap2\n      swap1\n      pop\n      jump\t// out\n        /* \"#utility.yul\":13727:13859   */\n    tag_241:\n        /* \"#utility.yul\":13794:13798   */\n      0x00\n        /* \"#utility.yul\":13817:13820   */\n      dup2\n        /* \"#utility.yul\":13809:13820   */\n      swap1\n      pop\n        /* \"#utility.yul\":13847:13851   */\n      0x20\n        /* \"#utility.yul\":13842:13845   */\n      dup3\n        /* \"#utility.yul\":13838:13852   */\n      add\n        /* \"#utility.yul\":13830:13852   */\n      swap1\n      pop\n        /* \"#utility.yul\":13727:13859   */\n      swap2\n      swap1\n      pop\n      jump\t// out\n        /* \"#utility.yul\":13865:13979   */\n    tag_237:\n        /* \"#utility.yul\":13932:13938   */\n      0x00\n        /* \"#utility.yul\":13966:13971   */\n      dup2\n        /* \"#utility.yul\":13960:13972   */\n      mload\n        /* \"#utility.yul\":13950:13972   */\n      swap1\n      pop\n        /* \"#utility.yul\":13865:13979   */\n      swap2\n      swap1\n      pop\n      jump\t// out\n        /* \"#utility.yul\":13985:14084   */\n    tag_255:\n        /* \"#utility.yul\":14037:14043   */\n      0x00\n        /* \"#utility.yul\":14071:14076   */\n      dup2\n        /* \"#utility.yul\":14065:14077   */\n      mload\n        /* \"#utility.yul\":14055:14077   */\n      swap1\n      pop\n        /* \"#utility.yul\":13985:14084   */\n      swap2\n      swap1\n      pop\n      jump\t// out\n        /* \"#utility.yul\":14090:14203   */\n    tag_247:\n        /* \"#utility.yul\":14160:14164   */\n      0x00\n        /* \"#utility.yul\":14192:14196   */\n      0x20\n        /* \"#utility.yul\":14187:14190   */\n      dup3\n        /* \"#utility.yul\":14183:14197   */\n      add\n        /* \"#utility.yul\":14175:14197   */\n      swap1\n      pop\n        /* \"#utility.yul\":14090:14203   */\n      swap2\n      swap1\n      pop\n      jump\t// out\n        /* \"#utility.yul\":14209:14393   */\n    tag_239:\n        /* \"#utility.yul\":14308:14319   */\n      0x00\n        /* \"#utility.yul\":14342:14348   */\n      dup3\n        /* \"#utility.yul\":14337:14340   */\n      dup3\n        /* \"#utility.yul\":14330:14349   */\n      mstore\n        /* \"#utility.yul\":14382:14386   */\n      0x20\n        /* \"#utility.yul\":14377:14380   */\n      dup3\n        /* \"#utility.yul\":14373:14387   */\n      add\n        /* \"#utility.yul\":14358:14387   */\n      swap1\n      pop\n        /* \"#utility.yul\":14209:14393   */\n      swap3\n      swap2\n      pop\n      pop\n      jump\t// out\n        /* \"#utility.yul\":14399:14568   */\n    tag_263:\n        /* \"#utility.yul\":14483:14494   */\n      0x00\n        /* \"#utility.yul\":14517:14523   */\n      dup3\n        /* \"#utility.yul\":14512:14515   */\n      dup3\n        /* \"#utility.yul\":14505:14524   */\n      mstore\n        /* \"#utility.yul\":14557:14561   */\n      0x20\n        /* \"#utility.yul\":14552:14555   */\n      dup3\n        /* \"#utility.yul\":14548:14562   */\n      add\n        /* \"#utility.yul\":14533:14562   */\n      swap1\n      pop\n        /* \"#utility.yul\":14399:14568   */\n      swap3\n      swap2\n      pop\n      pop\n      jump\t// out\n        /* \"#utility.yul\":14574:14722   */\n    tag_257:\n        /* \"#utility.yul\":14676:14687   */\n      0x00\n        /* \"#utility.yul\":14713:14716   */\n      dup2\n        /* \"#utility.yul\":14698:14716   */\n      swap1\n      pop\n        /* \"#utility.yul\":14574:14722   */\n      swap3\n      swap2\n      pop\n      pop\n      jump\t// out\n        /* \"#utility.yul\":14728:14824   */\n    tag_233:\n        /* \"#utility.yul\":14765:14772   */\n      0x00\n        /* \"#utility.yul\":14794:14818   */\n      tag_357\n        /* \"#utility.yul\":14812:14817   */\n      dup3\n        /* \"#utility.yul\":14794:14818   */\n      tag_358\n      jump\t// in\n    tag_357:\n        /* \"#utility.yul\":14783:14818   */\n      swap1\n      pop\n        /* \"#utility.yul\":14728:14824   */\n      swap2\n      swap1\n      pop\n      jump\t// out\n        /* \"#utility.yul\":14830:14907   */\n    tag_251:\n        /* \"#utility.yul\":14867:14874   */\n      0x00\n        /* \"#utility.yul\":14896:14901   */\n      dup2\n        /* \"#utility.yul\":14885:14901   */\n      swap1\n      pop\n        /* \"#utility.yul\":14830:14907   */\n      swap2\n      swap1\n      pop\n      jump\t// out\n        /* \"#utility.yul\":14913:15039   */\n    tag_358:\n        /* \"#utility.yul\":14950:14957   */\n      0x00\n        /* \"#utility.yul\":14990:15032   */\n      0xffffffffffffffffffffffffffffffffffffffff\n        /* \"#utility.yul\":14983:14988   */\n      dup3\n        /* \"#utility.yul\":14979:15033   */\n      and\n        /* \"#utility.yul\":14968:15033   */\n      swap1\n      pop\n        /* \"#utility.yul\":14913:15039   */\n      swap2\n      swap1\n      pop\n      jump\t// out\n        /* \"#utility.yul\":15045:15122   */\n    tag_361:\n        /* \"#utility.yul\":15082:15089   */\n      0x00\n        /* \"#utility.yul\":15111:15116   */\n      dup2\n        /* \"#utility.yul\":15100:15116   */\n      swap1\n      pop\n        /* \"#utility.yul\":15045:15122   */\n      swap2\n      swap1\n      pop\n      jump\t// out\n        /* \"#utility.yul\":15128:15282   */\n    tag_194:\n        /* \"#utility.yul\":15212:15218   */\n      dup3\n        /* \"#utility.yul\":15207:15210   */\n      dup2\n        /* \"#utility.yul\":15202:15205   */\n      dup4\n        /* \"#utility.yul\":15189:15219   */\n      calldatacopy\n        /* \"#utility.yul\":15274:15275   */\n      0x00\n        /* \"#utility.yul\":15265:15271   */\n      dup4\n        /* \"#utility.yul\":15260:15263   */\n      dup4\n        /* \"#utility.yul\":15256:15272   */\n      add\n        /* \"#utility.yul\":15249:15276   */\n      mstore\n        /* \"#utility.yul\":15128:15282   */\n      pop\n      pop\n      pop\n      jump\t// out\n        /* \"#utility.yul\":15288:15595   */\n    tag_259:\n        /* \"#utility.yul\":15356:15357   */\n      0x00\n        /* \"#utility.yul\":15366:15479   */\n    tag_365:\n        /* \"#utility.yul\":15380:15386   */\n      dup4\n        /* \"#utility.yul\":15377:15378   */\n      dup2\n        /* \"#utility.yul\":15374:15387   */\n      lt\n        /* \"#utility.yul\":15366:15479   */\n      iszero\n      tag_367\n      jumpi\n        /* \"#utility.yul\":15465:15466   */\n      dup1\n        /* \"#utility.yul\":15460:15463   */\n      dup3\n        /* \"#utility.yul\":15456:15467   */\n      add\n        /* \"#utility.yul\":15450:15468   */\n      mload\n        /* \"#utility.yul\":15446:15447   */\n      dup2\n        /* \"#utility.yul\":15441:15444   */\n      dup5\n        /* \"#utility.yul\":15437:15448   */\n      add\n        /* \"#utility.yul\":15430:15469   */\n      mstore\n        /* \"#utility.yul\":15402:15404   */\n      0x20\n        /* \"#utility.yul\":15399:15400   */\n      dup2\n        /* \"#utility.yul\":15395:15405   */\n      add\n        /* \"#utility.yul\":15390:15405   */\n      swap1\n      pop\n        /* \"#utility.yul\":15366:15479   */\n      jump(tag_365)\n    tag_367:\n        /* \"#utility.yul\":15497:15503   */\n      dup4\n        /* \"#utility.yul\":15494:15495   */\n      dup2\n        /* \"#utility.yul\":15491:15504   */\n      gt\n        /* \"#utility.yul\":15488:15589   */\n      iszero\n      tag_368\n      jumpi\n        /* \"#utility.yul\":15577:15578   */\n      0x00\n        /* \"#utility.yul\":15568:15574   */\n      dup5\n        /* \"#utility.yul\":15563:15566   */\n      dup5\n        /* \"#utility.yul\":15559:15575   */\n      add\n        /* \"#utility.yul\":15552:15579   */\n      mstore\n        /* \"#utility.yul\":15488:15589   */\n    tag_368:\n        /* \"#utility.yul\":15337:15595   */\n      pop\n        /* \"#utility.yul\":15288:15595   */\n      pop\n      pop\n      pop\n      jump\t// out\n        /* \"#utility.yul\":15601:15921   */\n    tag_148:\n        /* \"#utility.yul\":15645:15651   */\n      0x00\n        /* \"#utility.yul\":15682:15683   */\n      0x02\n        /* \"#utility.yul\":15676:15680   */\n      dup3\n        /* \"#utility.yul\":15672:15684   */\n      div\n        /* \"#utility.yul\":15662:15684   */\n      swap1\n      pop\n        /* \"#utility.yul\":15729:15730   */\n      0x01\n        /* \"#utility.yul\":15723:15727   */\n      dup3\n        /* \"#utility.yul\":15719:15731   */\n      and\n        /* \"#utility.yul\":15750:15768   */\n      dup1\n        /* \"#utility.yul\":15740:15821   */\n      tag_370\n      jumpi\n        /* \"#utility.yul\":15806:15810   */\n      0x7f\n        /* \"#utility.yul\":15798:15804   */\n      dup3\n        /* \"#utility.yul\":15794:15811   */\n      and\n        /* \"#utility.yul\":15784:15811   */\n      swap2\n      pop\n        /* \"#utility.yul\":15740:15821   */\n    tag_370:\n        /* \"#utility.yul\":15868:15870   */\n      0x20\n        /* \"#utility.yul\":15860:15866   */\n      dup3\n        /* \"#utility.yul\":15857:15871   */\n      lt\n        /* \"#utility.yul\":15837:15855   */\n      dup2\n        /* \"#utility.yul\":15834:15872   */\n      eq\n        /* \"#utility.yul\":15831:15915   */\n      iszero\n      tag_371\n      jumpi\n        /* \"#utility.yul\":15887:15905   */\n      tag_372\n      tag_373\n      jump\t// in\n    tag_372:\n        /* \"#utility.yul\":15831:15915   */\n    tag_371:\n        /* \"#utility.yul\":15652:15921   */\n      pop\n        /* \"#utility.yul\":15601:15921   */\n      swap2\n      swap1\n      pop\n      jump\t// out\n        /* \"#utility.yul\":15927:16208   */\n    tag_341:\n        /* \"#utility.yul\":16010:16037   */\n      tag_375\n        /* \"#utility.yul\":16032:16036   */\n      dup3\n        /* \"#utility.yul\":16010:16037   */\n      tag_348\n      jump\t// in\n    tag_375:\n        /* \"#utility.yul\":16002:16008   */\n      dup2\n        /* \"#utility.yul\":15998:16038   */\n      add\n        /* \"#utility.yul\":16140:16146   */\n      dup2\n        /* \"#utility.yul\":16128:16138   */\n      dup2\n        /* \"#utility.yul\":16125:16147   */\n      lt\n        /* \"#utility.yul\":16104:16122   */\n      0xffffffffffffffff\n        /* \"#utility.yul\":16092:16102   */\n      dup3\n        /* \"#utility.yul\":16089:16123   */\n      gt\n        /* \"#utility.yul\":16086:16148   */\n      or\n        /* \"#utility.yul\":16083:16171   */\n      iszero\n      tag_376\n      jumpi\n        /* \"#utility.yul\":16151:16169   */\n      tag_377\n      tag_346\n      jump\t// in\n    tag_377:\n        /* \"#utility.yul\":16083:16171   */\n    tag_376:\n        /* \"#utility.yul\":16191:16201   */\n      dup1\n        /* \"#utility.yul\":16187:16189   */\n      0x40\n        /* \"#utility.yul\":16180:16202   */\n      mstore\n        /* \"#utility.yul\":15970:16208   */\n      pop\n        /* \"#utility.yul\":15927:16208   */\n      pop\n      pop\n      jump\t// out\n        /* \"#utility.yul\":16214:16447   */\n    tag_99:\n        /* \"#utility.yul\":16253:16256   */\n      0x00\n        /* \"#utility.yul\":16276:16300   */\n      tag_379\n        /* \"#utility.yul\":16294:16299   */\n      dup3\n        /* \"#utility.yul\":16276:16300   */\n      tag_361\n      jump\t// in\n    tag_379:\n        /* \"#utility.yul\":16267:16300   */\n      swap2\n      pop\n        /* \"#utility.yul\":16322:16388   */\n      0xffffffffffffffffffffffffffffffffffffffffffffffffffffffffffffffff\n        /* \"#utility.yul\":16315:16320   */\n      dup3\n        /* \"#utility.yul\":16312:16389   */\n      eq\n        /* \"#utility.yul\":16309:16412   */\n      iszero\n      tag_380\n      jumpi\n        /* \"#utility.yul\":16392:16410   */\n      tag_381\n      tag_382\n      jump\t// in\n    tag_381:\n        /* \"#utility.yul\":16309:16412   */\n    tag_380:\n        /* \"#utility.yul\":16439:16440   */\n      0x01\n        /* \"#utility.yul\":16432:16437   */\n      dup3\n        /* \"#utility.yul\":16428:16441   */\n      add\n        /* \"#utility.yul\":16421:16441   */\n      swap1\n      pop\n        /* \"#utility.yul\":16214:16447   */\n      swap2\n      swap1\n      pop\n      jump\t// out\n        /* \"#utility.yul\":16453:16633   */\n    tag_382:\n        /* \"#utility.yul\":16501:16578   */\n      0x4e487b7100000000000000000000000000000000000000000000000000000000\n        /* \"#utility.yul\":16498:16499   */\n      0x00\n        /* \"#utility.yul\":16491:16579   */\n      mstore\n        /* \"#utility.yul\":16598:16602   */\n      0x11\n        /* \"#utility.yul\":16595:16596   */\n      0x04\n        /* \"#utility.yul\":16588:16603   */\n      mstore\n        /* \"#utility.yul\":16622:16626   */\n      0x24\n        /* \"#utility.yul\":16619:16620   */\n      0x00\n        /* \"#utility.yul\":16612:16627   */\n      revert\n        /* \"#utility.yul\":16639:16819   */\n    tag_47:\n        /* \"#utility.yul\":16687:16764   */\n      0x4e487b7100000000000000000000000000000000000000000000000000000000\n        /* \"#utility.yul\":16684:16685   */\n      0x00\n        /* \"#utility.yul\":16677:16765   */\n      mstore\n        /* \"#utility.yul\":16784:16788   */\n      0x21\n        /* \"#utility.yul\":16781:16782   */\n      0x04\n        /* \"#utility.yul\":16774:16789   */\n      mstore\n        /* \"#utility.yul\":16808:16812   */\n      0x24\n        /* \"#utility.yul\":16805:16806   */\n      0x00\n        /* \"#utility.yul\":16798:16813   */\n      revert\n        /* \"#utility.yul\":16825:17005   */\n    tag_373:\n        /* \"#utility.yul\":16873:16950   */\n      0x4e487b7100000000000000000000000000000000000000000000000000000000\n        /* \"#utility.yul\":16870:16871   */\n      0x00\n        /* \"#utility.yul\":16863:16951   */\n      mstore\n        /* \"#utility.yul\":16970:16974   */\n      0x22\n        /* \"#utility.yul\":16967:16968   */\n      0x04\n        /* \"#utility.yul\":16960:16975   */\n      mstore\n        /* \"#utility.yul\":16994:16998   */\n      0x24\n        /* \"#utility.yul\":16991:16992   */\n      0x00\n        /* \"#utility.yul\":16984:16999   */\n      revert\n        /* \"#utility.yul\":17011:17191   */\n    tag_92:\n        /* \"#utility.yul\":17059:17136   */\n      0x4e487b7100000000000000000000000000000000000000000000000000000000\n        /* \"#utility.yul\":17056:17057   */\n      0x00\n        /* \"#utility.yul\":17049:17137   */\n      mstore\n        /* \"#utility.yul\":17156:17160   */\n      0x32\n        /* \"#utility.yul\":17153:17154   */\n      0x04\n        /* \"#utility.yul\":17146:17161   */\n      mstore\n        /* \"#utility.yul\":17180:17184   */\n      0x24\n        /* \"#utility.yul\":17177:17178   */\n      0x00\n        /* \"#utility.yul\":17170:17185   */\n      revert\n        /* \"#utility.yul\":17197:17377   */\n    tag_346:\n        /* \"#utility.yul\":17245:17322   */\n      0x4e487b7100000000000000000000000000000000000000000000000000000000\n        /* \"#utility.yul\":17242:17243   */\n      0x00\n        /* \"#utility.yul\":17235:17323   */\n      mstore\n        /* \"#utility.yul\":17342:17346   */\n      0x41\n        /* \"#utility.yul\":17339:17340   */\n      0x04\n        /* \"#utility.yul\":17332:17347   */\n      mstore\n        /* \"#utility.yul\":17366:17370   */\n      0x24\n        /* \"#utility.yul\":17363:17364   */\n      0x00\n        /* \"#utility.yul\":17356:17371   */\n      revert\n        /* \"#utility.yul\":17383:17500   */\n    tag_203:\n        /* \"#utility.yul\":17492:17493   */\n      0x00\n        /* \"#utility.yul\":17489:17490   */\n      dup1\n        /* \"#utility.yul\":17482:17494   */\n      revert\n        /* \"#utility.yul\":17506:17623   */\n    tag_192:\n        /* \"#utility.yul\":17615:17616   */\n      0x00\n        /* \"#utility.yul\":17612:17613   */\n      dup1\n        /* \"#utility.yul\":17605:17617   */\n      revert\n        /* \"#utility.yul\":17629:17746   */\n    tag_215:\n        /* \"#utility.yul\":17738:17739   */\n      0x00\n        /* \"#utility.yul\":17735:17736   */\n      dup1\n        /* \"#utility.yul\":17728:17740   */\n      revert\n        /* \"#utility.yul\":17752:17869   */\n    tag_208:\n        /* \"#utility.yul\":17861:17862   */\n      0x00\n        /* \"#utility.yul\":17858:17859   */\n      dup1\n        /* \"#utility.yul\":17851:17863   */\n      revert\n        /* \"#utility.yul\":17875:17977   */\n    tag_348:\n        /* \"#utility.yul\":17916:17922   */\n      0x00\n        /* \"#utility.yul\":17967:17969   */\n      0x1f\n        /* \"#utility.yul\":17963:17970   */\n      not\n        /* \"#utility.yul\":17958:17960   */\n      0x1f\n        /* \"#utility.yul\":17951:17956   */\n      dup4\n        /* \"#utility.yul\":17947:17961   */\n      add\n        /* \"#utility.yul\":17943:17971   */\n      and\n        /* \"#utility.yul\":17933:17971   */\n      swap1\n      pop\n        /* \"#utility.yul\":17875:17977   */\n      swap2\n      swap1\n      pop\n      jump\t// out\n        /* \"#utility.yul\":17983:18161   */\n    tag_265:\n        /* \"#utility.yul\":18123:18153   */\n      0x52657669657720746865206170706c69636174696f6e20666972737400000000\n        /* \"#utility.yul\":18119:18120   */\n      0x00\n        /* \"#utility.yul\":18111:18117   */\n      dup3\n        /* \"#utility.yul\":18107:18121   */\n      add\n        /* \"#utility.yul\":18100:18154   */\n      mstore\n        /* \"#utility.yul\":17983:18161   */\n      pop\n      jump\t// out\n        /* \"#utility.yul\":18167:18337   */\n    tag_270:\n        /* \"#utility.yul\":18307:18329   */\n      0x506861736520616c726561647920616374697665000000000000000000000000\n        /* \"#utility.yul\":18303:18304   */\n      0x00\n        /* \"#utility.yul\":18295:18301   */\n      dup3\n        /* \"#utility.yul\":18291:18305   */\n      add\n        /* \"#utility.yul\":18284:18330   */\n      mstore\n        /* \"#utility.yul\":18167:18337   */\n      pop\n      jump\t// out\n        /* \"#utility.yul\":18343:18517   */\n    tag_275:\n        /* \"#utility.yul\":18483:18509   */\n      0x4170706c69636174696f6e20616c72656164792073656e740000000000000000\n        /* \"#utility.yul\":18479:18480   */\n      0x00\n        /* \"#utility.yul\":18471:18477   */\n      dup3\n        /* \"#utility.yul\":18467:18481   */\n      add\n        /* \"#utility.yul\":18460:18510   */\n      mstore\n        /* \"#utility.yul\":18343:18517   */\n      pop\n      jump\t// out\n        /* \"#utility.yul\":18523:18752   */\n    tag_280:\n        /* \"#utility.yul\":18663:18697   */\n      0x596f7572206170706c69636174696f6e2068617320616c726561647920626565\n        /* \"#utility.yul\":18659:18660   */\n      0x00\n        /* \"#utility.yul\":18651:18657   */\n      dup3\n        /* \"#utility.yul\":18647:18661   */\n      add\n        /* \"#utility.yul\":18640:18698   */\n      mstore\n        /* \"#utility.yul\":18732:18744   */\n      0x6e2072656a656374656400000000000000000000000000000000000000000000\n        /* \"#utility.yul\":18727:18729   */\n      0x20\n        /* \"#utility.yul\":18719:18725   */\n      dup3\n        /* \"#utility.yul\":18715:18730   */\n      add\n        /* \"#utility.yul\":18708:18745   */\n      mstore\n        /* \"#utility.yul\":18523:18752   */\n      pop\n      jump\t// out\n        /* \"#utility.yul\":18758:18986   */\n    tag_285:\n        /* \"#utility.yul\":18898:18932   */\n      0x596f7520617265206e6f7420746865206f776e6572206f722070726976617465\n        /* \"#utility.yul\":18894:18895   */\n      0x00\n        /* \"#utility.yul\":18886:18892   */\n      dup3\n        /* \"#utility.yul\":18882:18896   */\n      add\n        /* \"#utility.yul\":18875:18933   */\n      mstore\n        /* \"#utility.yul\":18967:18978   */\n      0x2070726f76696465720000000000000000000000000000000000000000000000\n        /* \"#utility.yul\":18962:18964   */\n      0x20\n        /* \"#utility.yul\":18954:18960   */\n      dup3\n        /* \"#utility.yul\":18950:18965   */\n      add\n        /* \"#utility.yul\":18943:18979   */\n      mstore\n        /* \"#utility.yul\":18758:18986   */\n      pop\n      jump\t// out\n        /* \"#utility.yul\":18992:19174   */\n    tag_290:\n        /* \"#utility.yul\":19132:19166   */\n      0x506861736520686173206e6f7420796574206265656e20616374697661746564\n        /* \"#utility.yul\":19128:19129   */\n      0x00\n        /* \"#utility.yul\":19120:19126   */\n      dup3\n        /* \"#utility.yul\":19116:19130   */\n      add\n        /* \"#utility.yul\":19109:19167   */\n      mstore\n        /* \"#utility.yul\":18992:19174   */\n      pop\n      jump\t// out\n        /* \"#utility.yul\":19180:19344   */\n    tag_295:\n        /* \"#utility.yul\":19320:19336   */\n      0x596f7572206e6f742061646d696e000000000000000000000000000000000000\n        /* \"#utility.yul\":19316:19317   */\n      0x00\n        /* \"#utility.yul\":19308:19314   */\n      dup3\n        /* \"#utility.yul\":19304:19318   */\n      add\n        /* \"#utility.yul\":19297:19337   */\n      mstore\n        /* \"#utility.yul\":19180:19344   */\n      pop\n      jump\t// out\n        /* \"#utility.yul\":19350:19525   */\n    tag_300:\n        /* \"#utility.yul\":19490:19517   */\n      0x596f7572206e6f7420507269766174652070726f766964657200000000000000\n        /* \"#utility.yul\":19486:19487   */\n      0x00\n        /* \"#utility.yul\":19478:19484   */\n      dup3\n        /* \"#utility.yul\":19474:19488   */\n      add\n        /* \"#utility.yul\":19467:19518   */\n      mstore\n        /* \"#utility.yul\":19350:19525   */\n      pop\n      jump\t// out\n        /* \"#utility.yul\":19531:19704   */\n    tag_305:\n        /* \"#utility.yul\":19671:19696   */\n      0x4170706c69636174696f6e20706861736520656e646564000000000000000000\n        /* \"#utility.yul\":19667:19668   */\n      0x00\n        /* \"#utility.yul\":19659:19665   */\n      dup3\n        /* \"#utility.yul\":19655:19669   */\n      add\n        /* \"#utility.yul\":19648:19697   */\n      mstore\n        /* \"#utility.yul\":19531:19704   */\n      pop\n      jump\t// out\n        /* \"#utility.yul\":19710:19952   */\n    tag_310:\n        /* \"#utility.yul\":19850:19884   */\n      0x596f752063616e27742073656e6420616e206170706c69636174696f6e20746f\n        /* \"#utility.yul\":19846:19847   */\n      0x00\n        /* \"#utility.yul\":19838:19844   */\n      dup3\n        /* \"#utility.yul\":19834:19848   */\n      add\n        /* \"#utility.yul\":19827:19885   */\n      mstore\n        /* \"#utility.yul\":19919:19944   */\n      0x20736f6d656f6e6520656c736527732061646472657373000000000000000000\n        /* \"#utility.yul\":19914:19916   */\n      0x20\n        /* \"#utility.yul\":19906:19912   */\n      dup3\n        /* \"#utility.yul\":19902:19917   */\n      add\n        /* \"#utility.yul\":19895:19945   */\n      mstore\n        /* \"#utility.yul\":19710:19952   */\n      pop\n      jump\t// out\n        /* \"#utility.yul\":19958:20080   */\n    tag_198:\n        /* \"#utility.yul\":20031:20055   */\n      tag_404\n        /* \"#utility.yul\":20049:20054   */\n      dup2\n        /* \"#utility.yul\":20031:20055   */\n      tag_233\n      jump\t// in\n    tag_404:\n        /* \"#utility.yul\":20024:20029   */\n      dup2\n        /* \"#utility.yul\":20021:20056   */\n      eq\n        /* \"#utility.yul\":20011:20074   */\n      tag_405\n      jumpi\n        /* \"#utility.yul\":20070:20071   */\n      0x00\n        /* \"#utility.yul\":20067:20068   */\n      dup1\n        /* \"#utility.yul\":20060:20072   */\n      revert\n        /* \"#utility.yul\":20011:20074   */\n    tag_405:\n        /* \"#utility.yul\":19958:20080   */\n      pop\n      jump\t// out\n\n    auxdata: 0xa2646970667358221220ec2c3c47f9ba690a7814ea90861f434e3185024e01e4e851b736e95b5f46555d64736f6c63430008070033\n}\n",
				"bytecode": {
					"linkReferences": {},
					"object": "608060405234801561001057600080fd5b5061217a806100206000396000f3fe608060405234801561001057600080fd5b50600436106100935760003560e01c80637f4b8df0116100665780637f4b8df0146100f85780637f89128f146101025780638e4f8c6b14610120578063a678b65b14610150578063c10e39111461016c57610093565b80630691615d146100985780631d3eea35146100a2578063686c4cea146100be578063785963c3146100dc575b600080fd5b6100a061018a565b005b6100bc60048036038101906100b7919061176f565b6103d3565b005b6100c661057c565b6040516100d39190611aaa565b60405180910390f35b6100f660048036038101906100f191906117e5565b6106bf565b005b610100610b9b565b005b61010a610e95565b6040516101179190611aaa565b60405180910390f35b61013a6004803603810190610135919061179c565b610fd8565b6040516101479190611acc565b60405180910390f35b61016a6004803603810190610165919061176f565b611008565b005b610174611487565b6040516101819190611aaa565b60405180910390f35b6002600481111561019e5761019d611e40565b5b6000803373ffffffffffffffffffffffffffffffffffffffff1673ffffffffffffffffffffffffffffffffffffffff16815260200190815260200160002060000160009054906101000a900460ff1660048111156101ff576101fe611e40565b5b1461023f576040517f08c379a000000000000000000000000000000000000000000000000000000000815260040161023690611bc7565b60405180910390fd5b60001515600160003373ffffffffffffffffffffffffffffffffffffffff1673ffffffffffffffffffffffffffffffffffffffff16815260200190815260200160002060000160009054906101000a900460ff1615151480156102f5575060001515600160003373ffffffffffffffffffffffffffffffffffffffff1673ffffffffffffffffffffffffffffffffffffffff16815260200190815260200160002060000160019054906101000a900460ff161515145b610334576040517f08c379a000000000000000000000000000000000000000000000000000000000815260040161032b90611b07565b60405180910390fd5b604051806040016040528060011515815260200160011515815250600160003373ffffffffffffffffffffffffffffffffffffffff1673ffffffffffffffffffffffffffffffffffffffff16815260200190815260200160002060008201518160000160006101000a81548160ff02191690831515021790555060208201518160000160016101000a81548160ff021916908315150217905550905050565b600260048111156103e7576103e6611e40565b5b6000803373ffffffffffffffffffffffffffffffffffffffff1673ffffffffffffffffffffffffffffffffffffffff16815260200190815260200160002060000160009054906101000a900460ff16600481111561044857610447611e40565b5b14610488576040517f08c379a000000000000000000000000000000000000000000000000000000000815260040161047f90611bc7565b60405180910390fd5b60001515600260003373ffffffffffffffffffffffffffffffffffffffff1673ffffffffffffffffffffffffffffffffffffffff16815260200190815260200160002060020160159054906101000a900460ff1615151461051e576040517f08c379a000000000000000000000000000000000000000000000000000000000815260040161051590611ae7565b60405180910390fd5b6000600260008373ffffffffffffffffffffffffffffffffffffffff1673ffffffffffffffffffffffffffffffffffffffff16815260200190815260200160002060020160146101000a81548160ff02191690831515021790555050565b60606002600481111561059257610591611e40565b5b6000803373ffffffffffffffffffffffffffffffffffffffff1673ffffffffffffffffffffffffffffffffffffffff16815260200190815260200160002060000160009054906101000a900460ff1660048111156105f3576105f2611e40565b5b14610633576040517f08c379a000000000000000000000000000000000000000000000000000000000815260040161062a90611bc7565b60405180910390fd5b60038054806020026020016040519081016040528092919081815260200182805480156106b557602002820191906000526020600020905b8160009054906101000a900473ffffffffffffffffffffffffffffffffffffffff1673ffffffffffffffffffffffffffffffffffffffff168152602001906001019080831161066b575b5050505050905090565b60008015156001600073ab8483f64d9c6d1ecf9b849ae677dd3315835cb273ffffffffffffffffffffffffffffffffffffffff1673ffffffffffffffffffffffffffffffffffffffff16815260200190815260200160002060000160009054906101000a900460ff16151514801561079e5750600015156001600073ab8483f64d9c6d1ecf9b849ae677dd3315835cb273ffffffffffffffffffffffffffffffffffffffff1673ffffffffffffffffffffffffffffffffffffffff16815260200190815260200160002060000160009054906101000a900460ff161515145b6107dd576040517f08c379a00000000000000000000000000000000000000000000000000000000081526004016107d490611be7565b60405180910390fd5b8173ffffffffffffffffffffffffffffffffffffffff163373ffffffffffffffffffffffffffffffffffffffff161461084b576040517f08c379a000000000000000000000000000000000000000000000000000000000815260040161084290611c07565b60405180910390fd5b60005b60038054905081101561092c573373ffffffffffffffffffffffffffffffffffffffff166003828154811061088657610885611e9e565b5b9060005260206000200160009054906101000a900473ffffffffffffffffffffffffffffffffffffffff1673ffffffffffffffffffffffffffffffffffffffff1614156108d257600191505b6000151582151514610919576040517f08c379a000000000000000000000000000000000000000000000000000000000815260040161091090611b27565b60405180910390fd5b808061092490611dc8565b91505061084e565b5060001515600260003373ffffffffffffffffffffffffffffffffffffffff1673ffffffffffffffffffffffffffffffffffffffff16815260200190815260200160002060020160149054906101000a900460ff161515146109c3576040517f08c379a00000000000000000000000000000000000000000000000000000000081526004016109ba90611b47565b60405180910390fd5b6040518060c001604052808581526020018481526020018373ffffffffffffffffffffffffffffffffffffffff16815260200160011515815260200160001515815260200160011515815250600260003373ffffffffffffffffffffffffffffffffffffffff1673ffffffffffffffffffffffffffffffffffffffff1681526020019081526020016000206000820151816000019080519060200190610a6a929190611647565b506020820151816001019080519060200190610a87929190611647565b5060408201518160020160006101000a81548173ffffffffffffffffffffffffffffffffffffffff021916908373ffffffffffffffffffffffffffffffffffffffff16021790555060608201518160020160146101000a81548160ff02191690831515021790555060808201518160020160156101000a81548160ff02191690831515021790555060a08201518160020160166101000a81548160ff0219169083151502179055509050506003339080600181540180825580915050600190039060005260206000200160009091909190916101000a81548173ffffffffffffffffffffffffffffffffffffffff021916908373ffffffffffffffffffffffffffffffffffffffff16021790555050505050565b60026004811115610baf57610bae611e40565b5b6000803373ffffffffffffffffffffffffffffffffffffffff1673ffffffffffffffffffffffffffffffffffffffff16815260200190815260200160002060000160009054906101000a900460ff166004811115610c1057610c0f611e40565b5b14610c50576040517f08c379a0000000000000000000000000000000000000000000000000000000008152600401610c4790611bc7565b60405180910390fd5b60011515600160003373ffffffffffffffffffffffffffffffffffffffff1673ffffffffffffffffffffffffffffffffffffffff16815260200190815260200160002060000160009054906101000a900460ff161515148015610d06575060011515600160003373ffffffffffffffffffffffffffffffffffffffff1673ffffffffffffffffffffffffffffffffffffffff16815260200190815260200160002060000160019054906101000a900460ff161515145b610d45576040517f08c379a0000000000000000000000000000000000000000000000000000000008152600401610d3c90611b87565b60405180910390fd5b604051806040016040528060001515815260200160011515815250600160003373ffffffffffffffffffffffffffffffffffffffff1673ffffffffffffffffffffffffffffffffffffffff16815260200190815260200160002060008201518160000160006101000a81548160ff02191690831515021790555060208201518160000160016101000a81548160ff02191690831515021790555090505060405180604001604052806001151581526020016001151581525060016000734b20993bc481177ec7e8f571cecae8a9e22c02db73ffffffffffffffffffffffffffffffffffffffff1673ffffffffffffffffffffffffffffffffffffffff16815260200190815260200160002060008201518160000160006101000a81548160ff02191690831515021790555060208201518160000160016101000a81548160ff021916908315150217905550905050565b606060006004811115610eab57610eaa611e40565b5b6000803373ffffffffffffffffffffffffffffffffffffffff1673ffffffffffffffffffffffffffffffffffffffff16815260200190815260200160002060000160009054906101000a900460ff166004811115610f0c57610f0b611e40565b5b14610f4c576040517f08c379a0000000000000000000000000000000000000000000000000000000008152600401610f4390611ba7565b60405180910390fd5b6005805480602002602001604051908101604052809291908181526020018280548015610fce57602002820191906000526020600020905b8160009054906101000a900473ffffffffffffffffffffffffffffffffffffffff1673ffffffffffffffffffffffffffffffffffffffff1681526020019060010190808311610f84575b5050505050905090565b600081604051602001610feb9190611a93565b604051602081830303815290604052805190602001209050919050565b6002600481111561101c5761101b611e40565b5b6000803373ffffffffffffffffffffffffffffffffffffffff1673ffffffffffffffffffffffffffffffffffffffff16815260200190815260200160002060000160009054906101000a900460ff16600481111561107d5761107c611e40565b5b146110bd576040517f08c379a00000000000000000000000000000000000000000000000000000000081526004016110b490611bc7565b60405180910390fd5b60001515600260003373ffffffffffffffffffffffffffffffffffffffff1673ffffffffffffffffffffffffffffffffffffffff16815260200190815260200160002060020160159054906101000a900460ff16151514611153576040517f08c379a000000000000000000000000000000000000000000000000000000000815260040161114a90611ae7565b60405180910390fd5b6000600260008373ffffffffffffffffffffffffffffffffffffffff1673ffffffffffffffffffffffffffffffffffffffff16815260200190815260200160002060020160146101000a81548160ff0219169083151502179055506003819080600181540180825580915050600190039060005260206000200160009091909190916101000a81548173ffffffffffffffffffffffffffffffffffffffff021916908373ffffffffffffffffffffffffffffffffffffffff1602179055506004819080600181540180825580915050600190039060005260206000200160009091909190916101000a81548173ffffffffffffffffffffffffffffffffffffffff021916908373ffffffffffffffffffffffffffffffffffffffff1602179055506040518060e0016040528060048081111561129257611291611e40565b5b8152602001600260008473ffffffffffffffffffffffffffffffffffffffff1673ffffffffffffffffffffffffffffffffffffffff16815260200190815260200160002060000180546112e490611d65565b80601f016020809104026020016040519081016040528092919081815260200182805461131090611d65565b801561135d5780601f106113325761010080835404028352916020019161135d565b820191906000526020600020905b81548152906001019060200180831161134057829003601f168201915b505050505081526020016113a56040518060400160405280600181526020017f3000000000000000000000000000000000000000000000000000000000000000815250610fd8565b815260200160008152602001600081526020016000815260200160008152506000808373ffffffffffffffffffffffffffffffffffffffff1673ffffffffffffffffffffffffffffffffffffffff16815260200190815260200160002060008201518160000160006101000a81548160ff0219169083600481111561142d5761142c611e40565b5b0217905550602082015181600101908051906020019061144e929190611647565b5060408201518160020155606082015181600301556080820151816004015560a0820151816005015560c0820151816006015590505050565b60606000600481111561149d5761149c611e40565b5b6000803373ffffffffffffffffffffffffffffffffffffffff1673ffffffffffffffffffffffffffffffffffffffff16815260200190815260200160002060000160009054906101000a900460ff1660048111156114fe576114fd611e40565b5b148061157c57506002600481111561151957611518611e40565b5b6000803373ffffffffffffffffffffffffffffffffffffffff1673ffffffffffffffffffffffffffffffffffffffff16815260200190815260200160002060000160009054906101000a900460ff16600481111561157a57611579611e40565b5b145b6115bb576040517f08c379a00000000000000000000000000000000000000000000000000000000081526004016115b290611b67565b60405180910390fd5b600480548060200260200160405190810160405280929190818152602001828054801561163d57602002820191906000526020600020905b8160009054906101000a900473ffffffffffffffffffffffffffffffffffffffff1673ffffffffffffffffffffffffffffffffffffffff16815260200190600101908083116115f3575b5050505050905090565b82805461165390611d65565b90600052602060002090601f01602090048101928261167557600085556116bc565b82601f1061168e57805160ff19168380011785556116bc565b828001600101855582156116bc579182015b828111156116bb5782518255916020019190600101906116a0565b5b5090506116c991906116cd565b5090565b5b808211156116e65760008160009055506001016116ce565b5090565b60006116fd6116f884611c4c565b611c27565b90508281526020810184848401111561171957611718611f01565b5b611724848285611d23565b509392505050565b60008135905061173b8161212d565b92915050565b600082601f83011261175657611755611efc565b5b81356117668482602086016116ea565b91505092915050565b60006020828403121561178557611784611f0b565b5b60006117938482850161172c565b91505092915050565b6000602082840312156117b2576117b1611f0b565b5b600082013567ffffffffffffffff8111156117d0576117cf611f06565b5b6117dc84828501611741565b91505092915050565b6000806000606084860312156117fe576117fd611f0b565b5b600084013567ffffffffffffffff81111561181c5761181b611f06565b5b61182886828701611741565b935050602084013567ffffffffffffffff81111561184957611848611f06565b5b61185586828701611741565b92505060406118668682870161172c565b9150509250925092565b600061187c8383611888565b60208301905092915050565b61189181611cdd565b82525050565b60006118a282611c8d565b6118ac8185611cb0565b93506118b783611c7d565b8060005b838110156118e85781516118cf8882611870565b97506118da83611ca3565b9250506001810190506118bb565b5085935050505092915050565b6118fe81611cef565b82525050565b600061190f82611c98565b6119198185611cd2565b9350611929818560208601611d32565b80840191505092915050565b6000611942601c83611cc1565b915061194d82611f21565b602082019050919050565b6000611965601483611cc1565b915061197082611f4a565b602082019050919050565b6000611988601883611cc1565b915061199382611f73565b602082019050919050565b60006119ab602a83611cc1565b91506119b682611f9c565b604082019050919050565b60006119ce602983611cc1565b91506119d982611feb565b604082019050919050565b60006119f1602083611cc1565b91506119fc8261203a565b602082019050919050565b6000611a14600e83611cc1565b9150611a1f82612063565b602082019050919050565b6000611a37601983611cc1565b9150611a428261208c565b602082019050919050565b6000611a5a601783611cc1565b9150611a65826120b5565b602082019050919050565b6000611a7d603783611cc1565b9150611a88826120de565b604082019050919050565b6000611a9f8284611904565b915081905092915050565b60006020820190508181036000830152611ac48184611897565b905092915050565b6000602082019050611ae160008301846118f5565b92915050565b60006020820190508181036000830152611b0081611935565b9050919050565b60006020820190508181036000830152611b2081611958565b9050919050565b60006020820190508181036000830152611b408161197b565b9050919050565b60006020820190508181036000830152611b608161199e565b9050919050565b60006020820190508181036000830152611b80816119c1565b9050919050565b60006020820190508181036000830152611ba0816119e4565b9050919050565b60006020820190508181036000830152611bc081611a07565b9050919050565b60006020820190508181036000830152611be081611a2a565b9050919050565b60006020820190508181036000830152611c0081611a4d565b9050919050565b60006020820190508181036000830152611c2081611a70565b9050919050565b6000611c31611c42565b9050611c3d8282611d97565b919050565b6000604051905090565b600067ffffffffffffffff821115611c6757611c66611ecd565b5b611c7082611f10565b9050602081019050919050565b6000819050602082019050919050565b600081519050919050565b600081519050919050565b6000602082019050919050565b600082825260208201905092915050565b600082825260208201905092915050565b600081905092915050565b6000611ce882611cf9565b9050919050565b6000819050919050565b600073ffffffffffffffffffffffffffffffffffffffff82169050919050565b6000819050919050565b82818337600083830152505050565b60005b83811015611d50578082015181840152602081019050611d35565b83811115611d5f576000848401525b50505050565b60006002820490506001821680611d7d57607f821691505b60208210811415611d9157611d90611e6f565b5b50919050565b611da082611f10565b810181811067ffffffffffffffff82111715611dbf57611dbe611ecd565b5b80604052505050565b6000611dd382611d19565b91507fffffffffffffffffffffffffffffffffffffffffffffffffffffffffffffffff821415611e0657611e05611e11565b5b600182019050919050565b7f4e487b7100000000000000000000000000000000000000000000000000000000600052601160045260246000fd5b7f4e487b7100000000000000000000000000000000000000000000000000000000600052602160045260246000fd5b7f4e487b7100000000000000000000000000000000000000000000000000000000600052602260045260246000fd5b7f4e487b7100000000000000000000000000000000000000000000000000000000600052603260045260246000fd5b7f4e487b7100000000000000000000000000000000000000000000000000000000600052604160045260246000fd5b600080fd5b600080fd5b600080fd5b600080fd5b6000601f19601f8301169050919050565b7f52657669657720746865206170706c69636174696f6e20666972737400000000600082015250565b7f506861736520616c726561647920616374697665000000000000000000000000600082015250565b7f4170706c69636174696f6e20616c72656164792073656e740000000000000000600082015250565b7f596f7572206170706c69636174696f6e2068617320616c72656164792062656560008201527f6e2072656a656374656400000000000000000000000000000000000000000000602082015250565b7f596f7520617265206e6f7420746865206f776e6572206f72207072697661746560008201527f2070726f76696465720000000000000000000000000000000000000000000000602082015250565b7f506861736520686173206e6f7420796574206265656e20616374697661746564600082015250565b7f596f7572206e6f742061646d696e000000000000000000000000000000000000600082015250565b7f596f7572206e6f7420507269766174652070726f766964657200000000000000600082015250565b7f4170706c69636174696f6e20706861736520656e646564000000000000000000600082015250565b7f596f752063616e27742073656e6420616e206170706c69636174696f6e20746f60008201527f20736f6d656f6e6520656c736527732061646472657373000000000000000000602082015250565b61213681611cdd565b811461214157600080fd5b5056fea2646970667358221220ec2c3c47f9ba690a7814ea90861f434e3185024e01e4e851b736e95b5f46555d64736f6c63430008070033",
					"opcodes": "PUSH1 0x80 PUSH1 0x40 MSTORE CALLVALUE DUP1 ISZERO PUSH2 0x10 JUMPI PUSH1 0x0 DUP1 REVERT JUMPDEST POP PUSH2 0x217A DUP1 PUSH2 0x20 PUSH1 0x0 CODECOPY PUSH1 0x0 RETURN INVALID PUSH1 0x80 PUSH1 0x40 MSTORE CALLVALUE DUP1 ISZERO PUSH2 0x10 JUMPI PUSH1 0x0 DUP1 REVERT JUMPDEST POP PUSH1 0x4 CALLDATASIZE LT PUSH2 0x93 JUMPI PUSH1 0x0 CALLDATALOAD PUSH1 0xE0 SHR DUP1 PUSH4 0x7F4B8DF0 GT PUSH2 0x66 JUMPI DUP1 PUSH4 0x7F4B8DF0 EQ PUSH2 0xF8 JUMPI DUP1 PUSH4 0x7F89128F EQ PUSH2 0x102 JUMPI DUP1 PUSH4 0x8E4F8C6B EQ PUSH2 0x120 JUMPI DUP1 PUSH4 0xA678B65B EQ PUSH2 0x150 JUMPI DUP1 PUSH4 0xC10E3911 EQ PUSH2 0x16C JUMPI PUSH2 0x93 JUMP JUMPDEST DUP1 PUSH4 0x691615D EQ PUSH2 0x98 JUMPI DUP1 PUSH4 0x1D3EEA35 EQ PUSH2 0xA2 JUMPI DUP1 PUSH4 0x686C4CEA EQ PUSH2 0xBE JUMPI DUP1 PUSH4 0x785963C3 EQ PUSH2 0xDC JUMPI JUMPDEST PUSH1 0x0 DUP1 REVERT JUMPDEST PUSH2 0xA0 PUSH2 0x18A JUMP JUMPDEST STOP JUMPDEST PUSH2 0xBC PUSH1 0x4 DUP1 CALLDATASIZE SUB DUP2 ADD SWAP1 PUSH2 0xB7 SWAP2 SWAP1 PUSH2 0x176F JUMP JUMPDEST PUSH2 0x3D3 JUMP JUMPDEST STOP JUMPDEST PUSH2 0xC6 PUSH2 0x57C JUMP JUMPDEST PUSH1 0x40 MLOAD PUSH2 0xD3 SWAP2 SWAP1 PUSH2 0x1AAA JUMP JUMPDEST PUSH1 0x40 MLOAD DUP1 SWAP2 SUB SWAP1 RETURN JUMPDEST PUSH2 0xF6 PUSH1 0x4 DUP1 CALLDATASIZE SUB DUP2 ADD SWAP1 PUSH2 0xF1 SWAP2 SWAP1 PUSH2 0x17E5 JUMP JUMPDEST PUSH2 0x6BF JUMP JUMPDEST STOP JUMPDEST PUSH2 0x100 PUSH2 0xB9B JUMP JUMPDEST STOP JUMPDEST PUSH2 0x10A PUSH2 0xE95 JUMP JUMPDEST PUSH1 0x40 MLOAD PUSH2 0x117 SWAP2 SWAP1 PUSH2 0x1AAA JUMP JUMPDEST PUSH1 0x40 MLOAD DUP1 SWAP2 SUB SWAP1 RETURN JUMPDEST PUSH2 0x13A PUSH1 0x4 DUP1 CALLDATASIZE SUB DUP2 ADD SWAP1 PUSH2 0x135 SWAP2 SWAP1 PUSH2 0x179C JUMP JUMPDEST PUSH2 0xFD8 JUMP JUMPDEST PUSH1 0x40 MLOAD PUSH2 0x147 SWAP2 SWAP1 PUSH2 0x1ACC JUMP JUMPDEST PUSH1 0x40 MLOAD DUP1 SWAP2 SUB SWAP1 RETURN JUMPDEST PUSH2 0x16A PUSH1 0x4 DUP1 CALLDATASIZE SUB DUP2 ADD SWAP1 PUSH2 0x165 SWAP2 SWAP1 PUSH2 0x176F JUMP JUMPDEST PUSH2 0x1008 JUMP JUMPDEST STOP JUMPDEST PUSH2 0x174 PUSH2 0x1487 JUMP JUMPDEST PUSH1 0x40 MLOAD PUSH2 0x181 SWAP2 SWAP1 PUSH2 0x1AAA JUMP JUMPDEST PUSH1 0x40 MLOAD DUP1 SWAP2 SUB SWAP1 RETURN JUMPDEST PUSH1 0x2 PUSH1 0x4 DUP2 GT ISZERO PUSH2 0x19E JUMPI PUSH2 0x19D PUSH2 0x1E40 JUMP JUMPDEST JUMPDEST PUSH1 0x0 DUP1 CALLER PUSH20 0xFFFFFFFFFFFFFFFFFFFFFFFFFFFFFFFFFFFFFFFF AND PUSH20 0xFFFFFFFFFFFFFFFFFFFFFFFFFFFFFFFFFFFFFFFF AND DUP2 MSTORE PUSH1 0x20 ADD SWAP1 DUP2 MSTORE PUSH1 0x20 ADD PUSH1 0x0 KECCAK256 PUSH1 0x0 ADD PUSH1 0x0 SWAP1 SLOAD SWAP1 PUSH2 0x100 EXP SWAP1 DIV PUSH1 0xFF AND PUSH1 0x4 DUP2 GT ISZERO PUSH2 0x1FF JUMPI PUSH2 0x1FE PUSH2 0x1E40 JUMP JUMPDEST JUMPDEST EQ PUSH2 0x23F JUMPI PUSH1 0x40 MLOAD PUSH32 0x8C379A000000000000000000000000000000000000000000000000000000000 DUP2 MSTORE PUSH1 0x4 ADD PUSH2 0x236 SWAP1 PUSH2 0x1BC7 JUMP JUMPDEST PUSH1 0x40 MLOAD DUP1 SWAP2 SUB SWAP1 REVERT JUMPDEST PUSH1 0x0 ISZERO ISZERO PUSH1 0x1 PUSH1 0x0 CALLER PUSH20 0xFFFFFFFFFFFFFFFFFFFFFFFFFFFFFFFFFFFFFFFF AND PUSH20 0xFFFFFFFFFFFFFFFFFFFFFFFFFFFFFFFFFFFFFFFF AND DUP2 MSTORE PUSH1 0x20 ADD SWAP1 DUP2 MSTORE PUSH1 0x20 ADD PUSH1 0x0 KECCAK256 PUSH1 0x0 ADD PUSH1 0x0 SWAP1 SLOAD SWAP1 PUSH2 0x100 EXP SWAP1 DIV PUSH1 0xFF AND ISZERO ISZERO EQ DUP1 ISZERO PUSH2 0x2F5 JUMPI POP PUSH1 0x0 ISZERO ISZERO PUSH1 0x1 PUSH1 0x0 CALLER PUSH20 0xFFFFFFFFFFFFFFFFFFFFFFFFFFFFFFFFFFFFFFFF AND PUSH20 0xFFFFFFFFFFFFFFFFFFFFFFFFFFFFFFFFFFFFFFFF AND DUP2 MSTORE PUSH1 0x20 ADD SWAP1 DUP2 MSTORE PUSH1 0x20 ADD PUSH1 0x0 KECCAK256 PUSH1 0x0 ADD PUSH1 0x1 SWAP1 SLOAD SWAP1 PUSH2 0x100 EXP SWAP1 DIV PUSH1 0xFF AND ISZERO ISZERO EQ JUMPDEST PUSH2 0x334 JUMPI PUSH1 0x40 MLOAD PUSH32 0x8C379A000000000000000000000000000000000000000000000000000000000 DUP2 MSTORE PUSH1 0x4 ADD PUSH2 0x32B SWAP1 PUSH2 0x1B07 JUMP JUMPDEST PUSH1 0x40 MLOAD DUP1 SWAP2 SUB SWAP1 REVERT JUMPDEST PUSH1 0x40 MLOAD DUP1 PUSH1 0x40 ADD PUSH1 0x40 MSTORE DUP1 PUSH1 0x1 ISZERO ISZERO DUP2 MSTORE PUSH1 0x20 ADD PUSH1 0x1 ISZERO ISZERO DUP2 MSTORE POP PUSH1 0x1 PUSH1 0x0 CALLER PUSH20 0xFFFFFFFFFFFFFFFFFFFFFFFFFFFFFFFFFFFFFFFF AND PUSH20 0xFFFFFFFFFFFFFFFFFFFFFFFFFFFFFFFFFFFFFFFF AND DUP2 MSTORE PUSH1 0x20 ADD SWAP1 DUP2 MSTORE PUSH1 0x20 ADD PUSH1 0x0 KECCAK256 PUSH1 0x0 DUP3 ADD MLOAD DUP2 PUSH1 0x0 ADD PUSH1 0x0 PUSH2 0x100 EXP DUP2 SLOAD DUP2 PUSH1 0xFF MUL NOT AND SWAP1 DUP4 ISZERO ISZERO MUL OR SWAP1 SSTORE POP PUSH1 0x20 DUP3 ADD MLOAD DUP2 PUSH1 0x0 ADD PUSH1 0x1 PUSH2 0x100 EXP DUP2 SLOAD DUP2 PUSH1 0xFF MUL NOT AND SWAP1 DUP4 ISZERO ISZERO MUL OR SWAP1 SSTORE POP SWAP1 POP POP JUMP JUMPDEST PUSH1 0x2 PUSH1 0x4 DUP2 GT ISZERO PUSH2 0x3E7 JUMPI PUSH2 0x3E6 PUSH2 0x1E40 JUMP JUMPDEST JUMPDEST PUSH1 0x0 DUP1 CALLER PUSH20 0xFFFFFFFFFFFFFFFFFFFFFFFFFFFFFFFFFFFFFFFF AND PUSH20 0xFFFFFFFFFFFFFFFFFFFFFFFFFFFFFFFFFFFFFFFF AND DUP2 MSTORE PUSH1 0x20 ADD SWAP1 DUP2 MSTORE PUSH1 0x20 ADD PUSH1 0x0 KECCAK256 PUSH1 0x0 ADD PUSH1 0x0 SWAP1 SLOAD SWAP1 PUSH2 0x100 EXP SWAP1 DIV PUSH1 0xFF AND PUSH1 0x4 DUP2 GT ISZERO PUSH2 0x448 JUMPI PUSH2 0x447 PUSH2 0x1E40 JUMP JUMPDEST JUMPDEST EQ PUSH2 0x488 JUMPI PUSH1 0x40 MLOAD PUSH32 0x8C379A000000000000000000000000000000000000000000000000000000000 DUP2 MSTORE PUSH1 0x4 ADD PUSH2 0x47F SWAP1 PUSH2 0x1BC7 JUMP JUMPDEST PUSH1 0x40 MLOAD DUP1 SWAP2 SUB SWAP1 REVERT JUMPDEST PUSH1 0x0 ISZERO ISZERO PUSH1 0x2 PUSH1 0x0 CALLER PUSH20 0xFFFFFFFFFFFFFFFFFFFFFFFFFFFFFFFFFFFFFFFF AND PUSH20 0xFFFFFFFFFFFFFFFFFFFFFFFFFFFFFFFFFFFFFFFF AND DUP2 MSTORE PUSH1 0x20 ADD SWAP1 DUP2 MSTORE PUSH1 0x20 ADD PUSH1 0x0 KECCAK256 PUSH1 0x2 ADD PUSH1 0x15 SWAP1 SLOAD SWAP1 PUSH2 0x100 EXP SWAP1 DIV PUSH1 0xFF AND ISZERO ISZERO EQ PUSH2 0x51E JUMPI PUSH1 0x40 MLOAD PUSH32 0x8C379A000000000000000000000000000000000000000000000000000000000 DUP2 MSTORE PUSH1 0x4 ADD PUSH2 0x515 SWAP1 PUSH2 0x1AE7 JUMP JUMPDEST PUSH1 0x40 MLOAD DUP1 SWAP2 SUB SWAP1 REVERT JUMPDEST PUSH1 0x0 PUSH1 0x2 PUSH1 0x0 DUP4 PUSH20 0xFFFFFFFFFFFFFFFFFFFFFFFFFFFFFFFFFFFFFFFF AND PUSH20 0xFFFFFFFFFFFFFFFFFFFFFFFFFFFFFFFFFFFFFFFF AND DUP2 MSTORE PUSH1 0x20 ADD SWAP1 DUP2 MSTORE PUSH1 0x20 ADD PUSH1 0x0 KECCAK256 PUSH1 0x2 ADD PUSH1 0x14 PUSH2 0x100 EXP DUP2 SLOAD DUP2 PUSH1 0xFF MUL NOT AND SWAP1 DUP4 ISZERO ISZERO MUL OR SWAP1 SSTORE POP POP JUMP JUMPDEST PUSH1 0x60 PUSH1 0x2 PUSH1 0x4 DUP2 GT ISZERO PUSH2 0x592 JUMPI PUSH2 0x591 PUSH2 0x1E40 JUMP JUMPDEST JUMPDEST PUSH1 0x0 DUP1 CALLER PUSH20 0xFFFFFFFFFFFFFFFFFFFFFFFFFFFFFFFFFFFFFFFF AND PUSH20 0xFFFFFFFFFFFFFFFFFFFFFFFFFFFFFFFFFFFFFFFF AND DUP2 MSTORE PUSH1 0x20 ADD SWAP1 DUP2 MSTORE PUSH1 0x20 ADD PUSH1 0x0 KECCAK256 PUSH1 0x0 ADD PUSH1 0x0 SWAP1 SLOAD SWAP1 PUSH2 0x100 EXP SWAP1 DIV PUSH1 0xFF AND PUSH1 0x4 DUP2 GT ISZERO PUSH2 0x5F3 JUMPI PUSH2 0x5F2 PUSH2 0x1E40 JUMP JUMPDEST JUMPDEST EQ PUSH2 0x633 JUMPI PUSH1 0x40 MLOAD PUSH32 0x8C379A000000000000000000000000000000000000000000000000000000000 DUP2 MSTORE PUSH1 0x4 ADD PUSH2 0x62A SWAP1 PUSH2 0x1BC7 JUMP JUMPDEST PUSH1 0x40 MLOAD DUP1 SWAP2 SUB SWAP1 REVERT JUMPDEST PUSH1 0x3 DUP1 SLOAD DUP1 PUSH1 0x20 MUL PUSH1 0x20 ADD PUSH1 0x40 MLOAD SWAP1 DUP2 ADD PUSH1 0x40 MSTORE DUP1 SWAP3 SWAP2 SWAP1 DUP2 DUP2 MSTORE PUSH1 0x20 ADD DUP3 DUP1 SLOAD DUP1 ISZERO PUSH2 0x6B5 JUMPI PUSH1 0x20 MUL DUP3 ADD SWAP2 SWAP1 PUSH1 0x0 MSTORE PUSH1 0x20 PUSH1 0x0 KECCAK256 SWAP1 JUMPDEST DUP2 PUSH1 0x0 SWAP1 SLOAD SWAP1 PUSH2 0x100 EXP SWAP1 DIV PUSH20 0xFFFFFFFFFFFFFFFFFFFFFFFFFFFFFFFFFFFFFFFF AND PUSH20 0xFFFFFFFFFFFFFFFFFFFFFFFFFFFFFFFFFFFFFFFF AND DUP2 MSTORE PUSH1 0x20 ADD SWAP1 PUSH1 0x1 ADD SWAP1 DUP1 DUP4 GT PUSH2 0x66B JUMPI JUMPDEST POP POP POP POP POP SWAP1 POP SWAP1 JUMP JUMPDEST PUSH1 0x0 DUP1 ISZERO ISZERO PUSH1 0x1 PUSH1 0x0 PUSH20 0xAB8483F64D9C6D1ECF9B849AE677DD3315835CB2 PUSH20 0xFFFFFFFFFFFFFFFFFFFFFFFFFFFFFFFFFFFFFFFF AND PUSH20 0xFFFFFFFFFFFFFFFFFFFFFFFFFFFFFFFFFFFFFFFF AND DUP2 MSTORE PUSH1 0x20 ADD SWAP1 DUP2 MSTORE PUSH1 0x20 ADD PUSH1 0x0 KECCAK256 PUSH1 0x0 ADD PUSH1 0x0 SWAP1 SLOAD SWAP1 PUSH2 0x100 EXP SWAP1 DIV PUSH1 0xFF AND ISZERO ISZERO EQ DUP1 ISZERO PUSH2 0x79E JUMPI POP PUSH1 0x0 ISZERO ISZERO PUSH1 0x1 PUSH1 0x0 PUSH20 0xAB8483F64D9C6D1ECF9B849AE677DD3315835CB2 PUSH20 0xFFFFFFFFFFFFFFFFFFFFFFFFFFFFFFFFFFFFFFFF AND PUSH20 0xFFFFFFFFFFFFFFFFFFFFFFFFFFFFFFFFFFFFFFFF AND DUP2 MSTORE PUSH1 0x20 ADD SWAP1 DUP2 MSTORE PUSH1 0x20 ADD PUSH1 0x0 KECCAK256 PUSH1 0x0 ADD PUSH1 0x0 SWAP1 SLOAD SWAP1 PUSH2 0x100 EXP SWAP1 DIV PUSH1 0xFF AND ISZERO ISZERO EQ JUMPDEST PUSH2 0x7DD JUMPI PUSH1 0x40 MLOAD PUSH32 0x8C379A000000000000000000000000000000000000000000000000000000000 DUP2 MSTORE PUSH1 0x4 ADD PUSH2 0x7D4 SWAP1 PUSH2 0x1BE7 JUMP JUMPDEST PUSH1 0x40 MLOAD DUP1 SWAP2 SUB SWAP1 REVERT JUMPDEST DUP2 PUSH20 0xFFFFFFFFFFFFFFFFFFFFFFFFFFFFFFFFFFFFFFFF AND CALLER PUSH20 0xFFFFFFFFFFFFFFFFFFFFFFFFFFFFFFFFFFFFFFFF AND EQ PUSH2 0x84B JUMPI PUSH1 0x40 MLOAD PUSH32 0x8C379A000000000000000000000000000000000000000000000000000000000 DUP2 MSTORE PUSH1 0x4 ADD PUSH2 0x842 SWAP1 PUSH2 0x1C07 JUMP JUMPDEST PUSH1 0x40 MLOAD DUP1 SWAP2 SUB SWAP1 REVERT JUMPDEST PUSH1 0x0 JUMPDEST PUSH1 0x3 DUP1 SLOAD SWAP1 POP DUP2 LT ISZERO PUSH2 0x92C JUMPI CALLER PUSH20 0xFFFFFFFFFFFFFFFFFFFFFFFFFFFFFFFFFFFFFFFF AND PUSH1 0x3 DUP3 DUP2 SLOAD DUP2 LT PUSH2 0x886 JUMPI PUSH2 0x885 PUSH2 0x1E9E JUMP JUMPDEST JUMPDEST SWAP1 PUSH1 0x0 MSTORE PUSH1 0x20 PUSH1 0x0 KECCAK256 ADD PUSH1 0x0 SWAP1 SLOAD SWAP1 PUSH2 0x100 EXP SWAP1 DIV PUSH20 0xFFFFFFFFFFFFFFFFFFFFFFFFFFFFFFFFFFFFFFFF AND PUSH20 0xFFFFFFFFFFFFFFFFFFFFFFFFFFFFFFFFFFFFFFFF AND EQ ISZERO PUSH2 0x8D2 JUMPI PUSH1 0x1 SWAP2 POP JUMPDEST PUSH1 0x0 ISZERO ISZERO DUP3 ISZERO ISZERO EQ PUSH2 0x919 JUMPI PUSH1 0x40 MLOAD PUSH32 0x8C379A000000000000000000000000000000000000000000000000000000000 DUP2 MSTORE PUSH1 0x4 ADD PUSH2 0x910 SWAP1 PUSH2 0x1B27 JUMP JUMPDEST PUSH1 0x40 MLOAD DUP1 SWAP2 SUB SWAP1 REVERT JUMPDEST DUP1 DUP1 PUSH2 0x924 SWAP1 PUSH2 0x1DC8 JUMP JUMPDEST SWAP2 POP POP PUSH2 0x84E JUMP JUMPDEST POP PUSH1 0x0 ISZERO ISZERO PUSH1 0x2 PUSH1 0x0 CALLER PUSH20 0xFFFFFFFFFFFFFFFFFFFFFFFFFFFFFFFFFFFFFFFF AND PUSH20 0xFFFFFFFFFFFFFFFFFFFFFFFFFFFFFFFFFFFFFFFF AND DUP2 MSTORE PUSH1 0x20 ADD SWAP1 DUP2 MSTORE PUSH1 0x20 ADD PUSH1 0x0 KECCAK256 PUSH1 0x2 ADD PUSH1 0x14 SWAP1 SLOAD SWAP1 PUSH2 0x100 EXP SWAP1 DIV PUSH1 0xFF AND ISZERO ISZERO EQ PUSH2 0x9C3 JUMPI PUSH1 0x40 MLOAD PUSH32 0x8C379A000000000000000000000000000000000000000000000000000000000 DUP2 MSTORE PUSH1 0x4 ADD PUSH2 0x9BA SWAP1 PUSH2 0x1B47 JUMP JUMPDEST PUSH1 0x40 MLOAD DUP1 SWAP2 SUB SWAP1 REVERT JUMPDEST PUSH1 0x40 MLOAD DUP1 PUSH1 0xC0 ADD PUSH1 0x40 MSTORE DUP1 DUP6 DUP2 MSTORE PUSH1 0x20 ADD DUP5 DUP2 MSTORE PUSH1 0x20 ADD DUP4 PUSH20 0xFFFFFFFFFFFFFFFFFFFFFFFFFFFFFFFFFFFFFFFF AND DUP2 MSTORE PUSH1 0x20 ADD PUSH1 0x1 ISZERO ISZERO DUP2 MSTORE PUSH1 0x20 ADD PUSH1 0x0 ISZERO ISZERO DUP2 MSTORE PUSH1 0x20 ADD PUSH1 0x1 ISZERO ISZERO DUP2 MSTORE POP PUSH1 0x2 PUSH1 0x0 CALLER PUSH20 0xFFFFFFFFFFFFFFFFFFFFFFFFFFFFFFFFFFFFFFFF AND PUSH20 0xFFFFFFFFFFFFFFFFFFFFFFFFFFFFFFFFFFFFFFFF AND DUP2 MSTORE PUSH1 0x20 ADD SWAP1 DUP2 MSTORE PUSH1 0x20 ADD PUSH1 0x0 KECCAK256 PUSH1 0x0 DUP3 ADD MLOAD DUP2 PUSH1 0x0 ADD SWAP1 DUP1 MLOAD SWAP1 PUSH1 0x20 ADD SWAP1 PUSH2 0xA6A SWAP3 SWAP2 SWAP1 PUSH2 0x1647 JUMP JUMPDEST POP PUSH1 0x20 DUP3 ADD MLOAD DUP2 PUSH1 0x1 ADD SWAP1 DUP1 MLOAD SWAP1 PUSH1 0x20 ADD SWAP1 PUSH2 0xA87 SWAP3 SWAP2 SWAP1 PUSH2 0x1647 JUMP JUMPDEST POP PUSH1 0x40 DUP3 ADD MLOAD DUP2 PUSH1 0x2 ADD PUSH1 0x0 PUSH2 0x100 EXP DUP2 SLOAD DUP2 PUSH20 0xFFFFFFFFFFFFFFFFFFFFFFFFFFFFFFFFFFFFFFFF MUL NOT AND SWAP1 DUP4 PUSH20 0xFFFFFFFFFFFFFFFFFFFFFFFFFFFFFFFFFFFFFFFF AND MUL OR SWAP1 SSTORE POP PUSH1 0x60 DUP3 ADD MLOAD DUP2 PUSH1 0x2 ADD PUSH1 0x14 PUSH2 0x100 EXP DUP2 SLOAD DUP2 PUSH1 0xFF MUL NOT AND SWAP1 DUP4 ISZERO ISZERO MUL OR SWAP1 SSTORE POP PUSH1 0x80 DUP3 ADD MLOAD DUP2 PUSH1 0x2 ADD PUSH1 0x15 PUSH2 0x100 EXP DUP2 SLOAD DUP2 PUSH1 0xFF MUL NOT AND SWAP1 DUP4 ISZERO ISZERO MUL OR SWAP1 SSTORE POP PUSH1 0xA0 DUP3 ADD MLOAD DUP2 PUSH1 0x2 ADD PUSH1 0x16 PUSH2 0x100 EXP DUP2 SLOAD DUP2 PUSH1 0xFF MUL NOT AND SWAP1 DUP4 ISZERO ISZERO MUL OR SWAP1 SSTORE POP SWAP1 POP POP PUSH1 0x3 CALLER SWAP1 DUP1 PUSH1 0x1 DUP2 SLOAD ADD DUP1 DUP3 SSTORE DUP1 SWAP2 POP POP PUSH1 0x1 SWAP1 SUB SWAP1 PUSH1 0x0 MSTORE PUSH1 0x20 PUSH1 0x0 KECCAK256 ADD PUSH1 0x0 SWAP1 SWAP2 SWAP1 SWAP2 SWAP1 SWAP2 PUSH2 0x100 EXP DUP2 SLOAD DUP2 PUSH20 0xFFFFFFFFFFFFFFFFFFFFFFFFFFFFFFFFFFFFFFFF MUL NOT AND SWAP1 DUP4 PUSH20 0xFFFFFFFFFFFFFFFFFFFFFFFFFFFFFFFFFFFFFFFF AND MUL OR SWAP1 SSTORE POP POP POP POP POP JUMP JUMPDEST PUSH1 0x2 PUSH1 0x4 DUP2 GT ISZERO PUSH2 0xBAF JUMPI PUSH2 0xBAE PUSH2 0x1E40 JUMP JUMPDEST JUMPDEST PUSH1 0x0 DUP1 CALLER PUSH20 0xFFFFFFFFFFFFFFFFFFFFFFFFFFFFFFFFFFFFFFFF AND PUSH20 0xFFFFFFFFFFFFFFFFFFFFFFFFFFFFFFFFFFFFFFFF AND DUP2 MSTORE PUSH1 0x20 ADD SWAP1 DUP2 MSTORE PUSH1 0x20 ADD PUSH1 0x0 KECCAK256 PUSH1 0x0 ADD PUSH1 0x0 SWAP1 SLOAD SWAP1 PUSH2 0x100 EXP SWAP1 DIV PUSH1 0xFF AND PUSH1 0x4 DUP2 GT ISZERO PUSH2 0xC10 JUMPI PUSH2 0xC0F PUSH2 0x1E40 JUMP JUMPDEST JUMPDEST EQ PUSH2 0xC50 JUMPI PUSH1 0x40 MLOAD PUSH32 0x8C379A000000000000000000000000000000000000000000000000000000000 DUP2 MSTORE PUSH1 0x4 ADD PUSH2 0xC47 SWAP1 PUSH2 0x1BC7 JUMP JUMPDEST PUSH1 0x40 MLOAD DUP1 SWAP2 SUB SWAP1 REVERT JUMPDEST PUSH1 0x1 ISZERO ISZERO PUSH1 0x1 PUSH1 0x0 CALLER PUSH20 0xFFFFFFFFFFFFFFFFFFFFFFFFFFFFFFFFFFFFFFFF AND PUSH20 0xFFFFFFFFFFFFFFFFFFFFFFFFFFFFFFFFFFFFFFFF AND DUP2 MSTORE PUSH1 0x20 ADD SWAP1 DUP2 MSTORE PUSH1 0x20 ADD PUSH1 0x0 KECCAK256 PUSH1 0x0 ADD PUSH1 0x0 SWAP1 SLOAD SWAP1 PUSH2 0x100 EXP SWAP1 DIV PUSH1 0xFF AND ISZERO ISZERO EQ DUP1 ISZERO PUSH2 0xD06 JUMPI POP PUSH1 0x1 ISZERO ISZERO PUSH1 0x1 PUSH1 0x0 CALLER PUSH20 0xFFFFFFFFFFFFFFFFFFFFFFFFFFFFFFFFFFFFFFFF AND PUSH20 0xFFFFFFFFFFFFFFFFFFFFFFFFFFFFFFFFFFFFFFFF AND DUP2 MSTORE PUSH1 0x20 ADD SWAP1 DUP2 MSTORE PUSH1 0x20 ADD PUSH1 0x0 KECCAK256 PUSH1 0x0 ADD PUSH1 0x1 SWAP1 SLOAD SWAP1 PUSH2 0x100 EXP SWAP1 DIV PUSH1 0xFF AND ISZERO ISZERO EQ JUMPDEST PUSH2 0xD45 JUMPI PUSH1 0x40 MLOAD PUSH32 0x8C379A000000000000000000000000000000000000000000000000000000000 DUP2 MSTORE PUSH1 0x4 ADD PUSH2 0xD3C SWAP1 PUSH2 0x1B87 JUMP JUMPDEST PUSH1 0x40 MLOAD DUP1 SWAP2 SUB SWAP1 REVERT JUMPDEST PUSH1 0x40 MLOAD DUP1 PUSH1 0x40 ADD PUSH1 0x40 MSTORE DUP1 PUSH1 0x0 ISZERO ISZERO DUP2 MSTORE PUSH1 0x20 ADD PUSH1 0x1 ISZERO ISZERO DUP2 MSTORE POP PUSH1 0x1 PUSH1 0x0 CALLER PUSH20 0xFFFFFFFFFFFFFFFFFFFFFFFFFFFFFFFFFFFFFFFF AND PUSH20 0xFFFFFFFFFFFFFFFFFFFFFFFFFFFFFFFFFFFFFFFF AND DUP2 MSTORE PUSH1 0x20 ADD SWAP1 DUP2 MSTORE PUSH1 0x20 ADD PUSH1 0x0 KECCAK256 PUSH1 0x0 DUP3 ADD MLOAD DUP2 PUSH1 0x0 ADD PUSH1 0x0 PUSH2 0x100 EXP DUP2 SLOAD DUP2 PUSH1 0xFF MUL NOT AND SWAP1 DUP4 ISZERO ISZERO MUL OR SWAP1 SSTORE POP PUSH1 0x20 DUP3 ADD MLOAD DUP2 PUSH1 0x0 ADD PUSH1 0x1 PUSH2 0x100 EXP DUP2 SLOAD DUP2 PUSH1 0xFF MUL NOT AND SWAP1 DUP4 ISZERO ISZERO MUL OR SWAP1 SSTORE POP SWAP1 POP POP PUSH1 0x40 MLOAD DUP1 PUSH1 0x40 ADD PUSH1 0x40 MSTORE DUP1 PUSH1 0x1 ISZERO ISZERO DUP2 MSTORE PUSH1 0x20 ADD PUSH1 0x1 ISZERO ISZERO DUP2 MSTORE POP PUSH1 0x1 PUSH1 0x0 PUSH20 0x4B20993BC481177EC7E8F571CECAE8A9E22C02DB PUSH20 0xFFFFFFFFFFFFFFFFFFFFFFFFFFFFFFFFFFFFFFFF AND PUSH20 0xFFFFFFFFFFFFFFFFFFFFFFFFFFFFFFFFFFFFFFFF AND DUP2 MSTORE PUSH1 0x20 ADD SWAP1 DUP2 MSTORE PUSH1 0x20 ADD PUSH1 0x0 KECCAK256 PUSH1 0x0 DUP3 ADD MLOAD DUP2 PUSH1 0x0 ADD PUSH1 0x0 PUSH2 0x100 EXP DUP2 SLOAD DUP2 PUSH1 0xFF MUL NOT AND SWAP1 DUP4 ISZERO ISZERO MUL OR SWAP1 SSTORE POP PUSH1 0x20 DUP3 ADD MLOAD DUP2 PUSH1 0x0 ADD PUSH1 0x1 PUSH2 0x100 EXP DUP2 SLOAD DUP2 PUSH1 0xFF MUL NOT AND SWAP1 DUP4 ISZERO ISZERO MUL OR SWAP1 SSTORE POP SWAP1 POP POP JUMP JUMPDEST PUSH1 0x60 PUSH1 0x0 PUSH1 0x4 DUP2 GT ISZERO PUSH2 0xEAB JUMPI PUSH2 0xEAA PUSH2 0x1E40 JUMP JUMPDEST JUMPDEST PUSH1 0x0 DUP1 CALLER PUSH20 0xFFFFFFFFFFFFFFFFFFFFFFFFFFFFFFFFFFFFFFFF AND PUSH20 0xFFFFFFFFFFFFFFFFFFFFFFFFFFFFFFFFFFFFFFFF AND DUP2 MSTORE PUSH1 0x20 ADD SWAP1 DUP2 MSTORE PUSH1 0x20 ADD PUSH1 0x0 KECCAK256 PUSH1 0x0 ADD PUSH1 0x0 SWAP1 SLOAD SWAP1 PUSH2 0x100 EXP SWAP1 DIV PUSH1 0xFF AND PUSH1 0x4 DUP2 GT ISZERO PUSH2 0xF0C JUMPI PUSH2 0xF0B PUSH2 0x1E40 JUMP JUMPDEST JUMPDEST EQ PUSH2 0xF4C JUMPI PUSH1 0x40 MLOAD PUSH32 0x8C379A000000000000000000000000000000000000000000000000000000000 DUP2 MSTORE PUSH1 0x4 ADD PUSH2 0xF43 SWAP1 PUSH2 0x1BA7 JUMP JUMPDEST PUSH1 0x40 MLOAD DUP1 SWAP2 SUB SWAP1 REVERT JUMPDEST PUSH1 0x5 DUP1 SLOAD DUP1 PUSH1 0x20 MUL PUSH1 0x20 ADD PUSH1 0x40 MLOAD SWAP1 DUP2 ADD PUSH1 0x40 MSTORE DUP1 SWAP3 SWAP2 SWAP1 DUP2 DUP2 MSTORE PUSH1 0x20 ADD DUP3 DUP1 SLOAD DUP1 ISZERO PUSH2 0xFCE JUMPI PUSH1 0x20 MUL DUP3 ADD SWAP2 SWAP1 PUSH1 0x0 MSTORE PUSH1 0x20 PUSH1 0x0 KECCAK256 SWAP1 JUMPDEST DUP2 PUSH1 0x0 SWAP1 SLOAD SWAP1 PUSH2 0x100 EXP SWAP1 DIV PUSH20 0xFFFFFFFFFFFFFFFFFFFFFFFFFFFFFFFFFFFFFFFF AND PUSH20 0xFFFFFFFFFFFFFFFFFFFFFFFFFFFFFFFFFFFFFFFF AND DUP2 MSTORE PUSH1 0x20 ADD SWAP1 PUSH1 0x1 ADD SWAP1 DUP1 DUP4 GT PUSH2 0xF84 JUMPI JUMPDEST POP POP POP POP POP SWAP1 POP SWAP1 JUMP JUMPDEST PUSH1 0x0 DUP2 PUSH1 0x40 MLOAD PUSH1 0x20 ADD PUSH2 0xFEB SWAP2 SWAP1 PUSH2 0x1A93 JUMP JUMPDEST PUSH1 0x40 MLOAD PUSH1 0x20 DUP2 DUP4 SUB SUB DUP2 MSTORE SWAP1 PUSH1 0x40 MSTORE DUP1 MLOAD SWAP1 PUSH1 0x20 ADD KECCAK256 SWAP1 POP SWAP2 SWAP1 POP JUMP JUMPDEST PUSH1 0x2 PUSH1 0x4 DUP2 GT ISZERO PUSH2 0x101C JUMPI PUSH2 0x101B PUSH2 0x1E40 JUMP JUMPDEST JUMPDEST PUSH1 0x0 DUP1 CALLER PUSH20 0xFFFFFFFFFFFFFFFFFFFFFFFFFFFFFFFFFFFFFFFF AND PUSH20 0xFFFFFFFFFFFFFFFFFFFFFFFFFFFFFFFFFFFFFFFF AND DUP2 MSTORE PUSH1 0x20 ADD SWAP1 DUP2 MSTORE PUSH1 0x20 ADD PUSH1 0x0 KECCAK256 PUSH1 0x0 ADD PUSH1 0x0 SWAP1 SLOAD SWAP1 PUSH2 0x100 EXP SWAP1 DIV PUSH1 0xFF AND PUSH1 0x4 DUP2 GT ISZERO PUSH2 0x107D JUMPI PUSH2 0x107C PUSH2 0x1E40 JUMP JUMPDEST JUMPDEST EQ PUSH2 0x10BD JUMPI PUSH1 0x40 MLOAD PUSH32 0x8C379A000000000000000000000000000000000000000000000000000000000 DUP2 MSTORE PUSH1 0x4 ADD PUSH2 0x10B4 SWAP1 PUSH2 0x1BC7 JUMP JUMPDEST PUSH1 0x40 MLOAD DUP1 SWAP2 SUB SWAP1 REVERT JUMPDEST PUSH1 0x0 ISZERO ISZERO PUSH1 0x2 PUSH1 0x0 CALLER PUSH20 0xFFFFFFFFFFFFFFFFFFFFFFFFFFFFFFFFFFFFFFFF AND PUSH20 0xFFFFFFFFFFFFFFFFFFFFFFFFFFFFFFFFFFFFFFFF AND DUP2 MSTORE PUSH1 0x20 ADD SWAP1 DUP2 MSTORE PUSH1 0x20 ADD PUSH1 0x0 KECCAK256 PUSH1 0x2 ADD PUSH1 0x15 SWAP1 SLOAD SWAP1 PUSH2 0x100 EXP SWAP1 DIV PUSH1 0xFF AND ISZERO ISZERO EQ PUSH2 0x1153 JUMPI PUSH1 0x40 MLOAD PUSH32 0x8C379A000000000000000000000000000000000000000000000000000000000 DUP2 MSTORE PUSH1 0x4 ADD PUSH2 0x114A SWAP1 PUSH2 0x1AE7 JUMP JUMPDEST PUSH1 0x40 MLOAD DUP1 SWAP2 SUB SWAP1 REVERT JUMPDEST PUSH1 0x0 PUSH1 0x2 PUSH1 0x0 DUP4 PUSH20 0xFFFFFFFFFFFFFFFFFFFFFFFFFFFFFFFFFFFFFFFF AND PUSH20 0xFFFFFFFFFFFFFFFFFFFFFFFFFFFFFFFFFFFFFFFF AND DUP2 MSTORE PUSH1 0x20 ADD SWAP1 DUP2 MSTORE PUSH1 0x20 ADD PUSH1 0x0 KECCAK256 PUSH1 0x2 ADD PUSH1 0x14 PUSH2 0x100 EXP DUP2 SLOAD DUP2 PUSH1 0xFF MUL NOT AND SWAP1 DUP4 ISZERO ISZERO MUL OR SWAP1 SSTORE POP PUSH1 0x3 DUP2 SWAP1 DUP1 PUSH1 0x1 DUP2 SLOAD ADD DUP1 DUP3 SSTORE DUP1 SWAP2 POP POP PUSH1 0x1 SWAP1 SUB SWAP1 PUSH1 0x0 MSTORE PUSH1 0x20 PUSH1 0x0 KECCAK256 ADD PUSH1 0x0 SWAP1 SWAP2 SWAP1 SWAP2 SWAP1 SWAP2 PUSH2 0x100 EXP DUP2 SLOAD DUP2 PUSH20 0xFFFFFFFFFFFFFFFFFFFFFFFFFFFFFFFFFFFFFFFF MUL NOT AND SWAP1 DUP4 PUSH20 0xFFFFFFFFFFFFFFFFFFFFFFFFFFFFFFFFFFFFFFFF AND MUL OR SWAP1 SSTORE POP PUSH1 0x4 DUP2 SWAP1 DUP1 PUSH1 0x1 DUP2 SLOAD ADD DUP1 DUP3 SSTORE DUP1 SWAP2 POP POP PUSH1 0x1 SWAP1 SUB SWAP1 PUSH1 0x0 MSTORE PUSH1 0x20 PUSH1 0x0 KECCAK256 ADD PUSH1 0x0 SWAP1 SWAP2 SWAP1 SWAP2 SWAP1 SWAP2 PUSH2 0x100 EXP DUP2 SLOAD DUP2 PUSH20 0xFFFFFFFFFFFFFFFFFFFFFFFFFFFFFFFFFFFFFFFF MUL NOT AND SWAP1 DUP4 PUSH20 0xFFFFFFFFFFFFFFFFFFFFFFFFFFFFFFFFFFFFFFFF AND MUL OR SWAP1 SSTORE POP PUSH1 0x40 MLOAD DUP1 PUSH1 0xE0 ADD PUSH1 0x40 MSTORE DUP1 PUSH1 0x4 DUP1 DUP2 GT ISZERO PUSH2 0x1292 JUMPI PUSH2 0x1291 PUSH2 0x1E40 JUMP JUMPDEST JUMPDEST DUP2 MSTORE PUSH1 0x20 ADD PUSH1 0x2 PUSH1 0x0 DUP5 PUSH20 0xFFFFFFFFFFFFFFFFFFFFFFFFFFFFFFFFFFFFFFFF AND PUSH20 0xFFFFFFFFFFFFFFFFFFFFFFFFFFFFFFFFFFFFFFFF AND DUP2 MSTORE PUSH1 0x20 ADD SWAP1 DUP2 MSTORE PUSH1 0x20 ADD PUSH1 0x0 KECCAK256 PUSH1 0x0 ADD DUP1 SLOAD PUSH2 0x12E4 SWAP1 PUSH2 0x1D65 JUMP JUMPDEST DUP1 PUSH1 0x1F ADD PUSH1 0x20 DUP1 SWAP2 DIV MUL PUSH1 0x20 ADD PUSH1 0x40 MLOAD SWAP1 DUP2 ADD PUSH1 0x40 MSTORE DUP1 SWAP3 SWAP2 SWAP1 DUP2 DUP2 MSTORE PUSH1 0x20 ADD DUP3 DUP1 SLOAD PUSH2 0x1310 SWAP1 PUSH2 0x1D65 JUMP JUMPDEST DUP1 ISZERO PUSH2 0x135D JUMPI DUP1 PUSH1 0x1F LT PUSH2 0x1332 JUMPI PUSH2 0x100 DUP1 DUP4 SLOAD DIV MUL DUP4 MSTORE SWAP2 PUSH1 0x20 ADD SWAP2 PUSH2 0x135D JUMP JUMPDEST DUP3 ADD SWAP2 SWAP1 PUSH1 0x0 MSTORE PUSH1 0x20 PUSH1 0x0 KECCAK256 SWAP1 JUMPDEST DUP2 SLOAD DUP2 MSTORE SWAP1 PUSH1 0x1 ADD SWAP1 PUSH1 0x20 ADD DUP1 DUP4 GT PUSH2 0x1340 JUMPI DUP3 SWAP1 SUB PUSH1 0x1F AND DUP3 ADD SWAP2 JUMPDEST POP POP POP POP POP DUP2 MSTORE PUSH1 0x20 ADD PUSH2 0x13A5 PUSH1 0x40 MLOAD DUP1 PUSH1 0x40 ADD PUSH1 0x40 MSTORE DUP1 PUSH1 0x1 DUP2 MSTORE PUSH1 0x20 ADD PUSH32 0x3000000000000000000000000000000000000000000000000000000000000000 DUP2 MSTORE POP PUSH2 0xFD8 JUMP JUMPDEST DUP2 MSTORE PUSH1 0x20 ADD PUSH1 0x0 DUP2 MSTORE PUSH1 0x20 ADD PUSH1 0x0 DUP2 MSTORE PUSH1 0x20 ADD PUSH1 0x0 DUP2 MSTORE PUSH1 0x20 ADD PUSH1 0x0 DUP2 MSTORE POP PUSH1 0x0 DUP1 DUP4 PUSH20 0xFFFFFFFFFFFFFFFFFFFFFFFFFFFFFFFFFFFFFFFF AND PUSH20 0xFFFFFFFFFFFFFFFFFFFFFFFFFFFFFFFFFFFFFFFF AND DUP2 MSTORE PUSH1 0x20 ADD SWAP1 DUP2 MSTORE PUSH1 0x20 ADD PUSH1 0x0 KECCAK256 PUSH1 0x0 DUP3 ADD MLOAD DUP2 PUSH1 0x0 ADD PUSH1 0x0 PUSH2 0x100 EXP DUP2 SLOAD DUP2 PUSH1 0xFF MUL NOT AND SWAP1 DUP4 PUSH1 0x4 DUP2 GT ISZERO PUSH2 0x142D JUMPI PUSH2 0x142C PUSH2 0x1E40 JUMP JUMPDEST JUMPDEST MUL OR SWAP1 SSTORE POP PUSH1 0x20 DUP3 ADD MLOAD DUP2 PUSH1 0x1 ADD SWAP1 DUP1 MLOAD SWAP1 PUSH1 0x20 ADD SWAP1 PUSH2 0x144E SWAP3 SWAP2 SWAP1 PUSH2 0x1647 JUMP JUMPDEST POP PUSH1 0x40 DUP3 ADD MLOAD DUP2 PUSH1 0x2 ADD SSTORE PUSH1 0x60 DUP3 ADD MLOAD DUP2 PUSH1 0x3 ADD SSTORE PUSH1 0x80 DUP3 ADD MLOAD DUP2 PUSH1 0x4 ADD SSTORE PUSH1 0xA0 DUP3 ADD MLOAD DUP2 PUSH1 0x5 ADD SSTORE PUSH1 0xC0 DUP3 ADD MLOAD DUP2 PUSH1 0x6 ADD SSTORE SWAP1 POP POP POP JUMP JUMPDEST PUSH1 0x60 PUSH1 0x0 PUSH1 0x4 DUP2 GT ISZERO PUSH2 0x149D JUMPI PUSH2 0x149C PUSH2 0x1E40 JUMP JUMPDEST JUMPDEST PUSH1 0x0 DUP1 CALLER PUSH20 0xFFFFFFFFFFFFFFFFFFFFFFFFFFFFFFFFFFFFFFFF AND PUSH20 0xFFFFFFFFFFFFFFFFFFFFFFFFFFFFFFFFFFFFFFFF AND DUP2 MSTORE PUSH1 0x20 ADD SWAP1 DUP2 MSTORE PUSH1 0x20 ADD PUSH1 0x0 KECCAK256 PUSH1 0x0 ADD PUSH1 0x0 SWAP1 SLOAD SWAP1 PUSH2 0x100 EXP SWAP1 DIV PUSH1 0xFF AND PUSH1 0x4 DUP2 GT ISZERO PUSH2 0x14FE JUMPI PUSH2 0x14FD PUSH2 0x1E40 JUMP JUMPDEST JUMPDEST EQ DUP1 PUSH2 0x157C JUMPI POP PUSH1 0x2 PUSH1 0x4 DUP2 GT ISZERO PUSH2 0x1519 JUMPI PUSH2 0x1518 PUSH2 0x1E40 JUMP JUMPDEST JUMPDEST PUSH1 0x0 DUP1 CALLER PUSH20 0xFFFFFFFFFFFFFFFFFFFFFFFFFFFFFFFFFFFFFFFF AND PUSH20 0xFFFFFFFFFFFFFFFFFFFFFFFFFFFFFFFFFFFFFFFF AND DUP2 MSTORE PUSH1 0x20 ADD SWAP1 DUP2 MSTORE PUSH1 0x20 ADD PUSH1 0x0 KECCAK256 PUSH1 0x0 ADD PUSH1 0x0 SWAP1 SLOAD SWAP1 PUSH2 0x100 EXP SWAP1 DIV PUSH1 0xFF AND PUSH1 0x4 DUP2 GT ISZERO PUSH2 0x157A JUMPI PUSH2 0x1579 PUSH2 0x1E40 JUMP JUMPDEST JUMPDEST EQ JUMPDEST PUSH2 0x15BB JUMPI PUSH1 0x40 MLOAD PUSH32 0x8C379A000000000000000000000000000000000000000000000000000000000 DUP2 MSTORE PUSH1 0x4 ADD PUSH2 0x15B2 SWAP1 PUSH2 0x1B67 JUMP JUMPDEST PUSH1 0x40 MLOAD DUP1 SWAP2 SUB SWAP1 REVERT JUMPDEST PUSH1 0x4 DUP1 SLOAD DUP1 PUSH1 0x20 MUL PUSH1 0x20 ADD PUSH1 0x40 MLOAD SWAP1 DUP2 ADD PUSH1 0x40 MSTORE DUP1 SWAP3 SWAP2 SWAP1 DUP2 DUP2 MSTORE PUSH1 0x20 ADD DUP3 DUP1 SLOAD DUP1 ISZERO PUSH2 0x163D JUMPI PUSH1 0x20 MUL DUP3 ADD SWAP2 SWAP1 PUSH1 0x0 MSTORE PUSH1 0x20 PUSH1 0x0 KECCAK256 SWAP1 JUMPDEST DUP2 PUSH1 0x0 SWAP1 SLOAD SWAP1 PUSH2 0x100 EXP SWAP1 DIV PUSH20 0xFFFFFFFFFFFFFFFFFFFFFFFFFFFFFFFFFFFFFFFF AND PUSH20 0xFFFFFFFFFFFFFFFFFFFFFFFFFFFFFFFFFFFFFFFF AND DUP2 MSTORE PUSH1 0x20 ADD SWAP1 PUSH1 0x1 ADD SWAP1 DUP1 DUP4 GT PUSH2 0x15F3 JUMPI JUMPDEST POP POP POP POP POP SWAP1 POP SWAP1 JUMP JUMPDEST DUP3 DUP1 SLOAD PUSH2 0x1653 SWAP1 PUSH2 0x1D65 JUMP JUMPDEST SWAP1 PUSH1 0x0 MSTORE PUSH1 0x20 PUSH1 0x0 KECCAK256 SWAP1 PUSH1 0x1F ADD PUSH1 0x20 SWAP1 DIV DUP2 ADD SWAP3 DUP3 PUSH2 0x1675 JUMPI PUSH1 0x0 DUP6 SSTORE PUSH2 0x16BC JUMP JUMPDEST DUP3 PUSH1 0x1F LT PUSH2 0x168E JUMPI DUP1 MLOAD PUSH1 0xFF NOT AND DUP4 DUP1 ADD OR DUP6 SSTORE PUSH2 0x16BC JUMP JUMPDEST DUP3 DUP1 ADD PUSH1 0x1 ADD DUP6 SSTORE DUP3 ISZERO PUSH2 0x16BC JUMPI SWAP2 DUP3 ADD JUMPDEST DUP3 DUP2 GT ISZERO PUSH2 0x16BB JUMPI DUP3 MLOAD DUP3 SSTORE SWAP2 PUSH1 0x20 ADD SWAP2 SWAP1 PUSH1 0x1 ADD SWAP1 PUSH2 0x16A0 JUMP JUMPDEST JUMPDEST POP SWAP1 POP PUSH2 0x16C9 SWAP2 SWAP1 PUSH2 0x16CD JUMP JUMPDEST POP SWAP1 JUMP JUMPDEST JUMPDEST DUP1 DUP3 GT ISZERO PUSH2 0x16E6 JUMPI PUSH1 0x0 DUP2 PUSH1 0x0 SWAP1 SSTORE POP PUSH1 0x1 ADD PUSH2 0x16CE JUMP JUMPDEST POP SWAP1 JUMP JUMPDEST PUSH1 0x0 PUSH2 0x16FD PUSH2 0x16F8 DUP5 PUSH2 0x1C4C JUMP JUMPDEST PUSH2 0x1C27 JUMP JUMPDEST SWAP1 POP DUP3 DUP2 MSTORE PUSH1 0x20 DUP2 ADD DUP5 DUP5 DUP5 ADD GT ISZERO PUSH2 0x1719 JUMPI PUSH2 0x1718 PUSH2 0x1F01 JUMP JUMPDEST JUMPDEST PUSH2 0x1724 DUP5 DUP3 DUP6 PUSH2 0x1D23 JUMP JUMPDEST POP SWAP4 SWAP3 POP POP POP JUMP JUMPDEST PUSH1 0x0 DUP2 CALLDATALOAD SWAP1 POP PUSH2 0x173B DUP2 PUSH2 0x212D JUMP JUMPDEST SWAP3 SWAP2 POP POP JUMP JUMPDEST PUSH1 0x0 DUP3 PUSH1 0x1F DUP4 ADD SLT PUSH2 0x1756 JUMPI PUSH2 0x1755 PUSH2 0x1EFC JUMP JUMPDEST JUMPDEST DUP2 CALLDATALOAD PUSH2 0x1766 DUP5 DUP3 PUSH1 0x20 DUP7 ADD PUSH2 0x16EA JUMP JUMPDEST SWAP2 POP POP SWAP3 SWAP2 POP POP JUMP JUMPDEST PUSH1 0x0 PUSH1 0x20 DUP3 DUP5 SUB SLT ISZERO PUSH2 0x1785 JUMPI PUSH2 0x1784 PUSH2 0x1F0B JUMP JUMPDEST JUMPDEST PUSH1 0x0 PUSH2 0x1793 DUP5 DUP3 DUP6 ADD PUSH2 0x172C JUMP JUMPDEST SWAP2 POP POP SWAP3 SWAP2 POP POP JUMP JUMPDEST PUSH1 0x0 PUSH1 0x20 DUP3 DUP5 SUB SLT ISZERO PUSH2 0x17B2 JUMPI PUSH2 0x17B1 PUSH2 0x1F0B JUMP JUMPDEST JUMPDEST PUSH1 0x0 DUP3 ADD CALLDATALOAD PUSH8 0xFFFFFFFFFFFFFFFF DUP2 GT ISZERO PUSH2 0x17D0 JUMPI PUSH2 0x17CF PUSH2 0x1F06 JUMP JUMPDEST JUMPDEST PUSH2 0x17DC DUP5 DUP3 DUP6 ADD PUSH2 0x1741 JUMP JUMPDEST SWAP2 POP POP SWAP3 SWAP2 POP POP JUMP JUMPDEST PUSH1 0x0 DUP1 PUSH1 0x0 PUSH1 0x60 DUP5 DUP7 SUB SLT ISZERO PUSH2 0x17FE JUMPI PUSH2 0x17FD PUSH2 0x1F0B JUMP JUMPDEST JUMPDEST PUSH1 0x0 DUP5 ADD CALLDATALOAD PUSH8 0xFFFFFFFFFFFFFFFF DUP2 GT ISZERO PUSH2 0x181C JUMPI PUSH2 0x181B PUSH2 0x1F06 JUMP JUMPDEST JUMPDEST PUSH2 0x1828 DUP7 DUP3 DUP8 ADD PUSH2 0x1741 JUMP JUMPDEST SWAP4 POP POP PUSH1 0x20 DUP5 ADD CALLDATALOAD PUSH8 0xFFFFFFFFFFFFFFFF DUP2 GT ISZERO PUSH2 0x1849 JUMPI PUSH2 0x1848 PUSH2 0x1F06 JUMP JUMPDEST JUMPDEST PUSH2 0x1855 DUP7 DUP3 DUP8 ADD PUSH2 0x1741 JUMP JUMPDEST SWAP3 POP POP PUSH1 0x40 PUSH2 0x1866 DUP7 DUP3 DUP8 ADD PUSH2 0x172C JUMP JUMPDEST SWAP2 POP POP SWAP3 POP SWAP3 POP SWAP3 JUMP JUMPDEST PUSH1 0x0 PUSH2 0x187C DUP4 DUP4 PUSH2 0x1888 JUMP JUMPDEST PUSH1 0x20 DUP4 ADD SWAP1 POP SWAP3 SWAP2 POP POP JUMP JUMPDEST PUSH2 0x1891 DUP2 PUSH2 0x1CDD JUMP JUMPDEST DUP3 MSTORE POP POP JUMP JUMPDEST PUSH1 0x0 PUSH2 0x18A2 DUP3 PUSH2 0x1C8D JUMP JUMPDEST PUSH2 0x18AC DUP2 DUP6 PUSH2 0x1CB0 JUMP JUMPDEST SWAP4 POP PUSH2 0x18B7 DUP4 PUSH2 0x1C7D JUMP JUMPDEST DUP1 PUSH1 0x0 JUMPDEST DUP4 DUP2 LT ISZERO PUSH2 0x18E8 JUMPI DUP2 MLOAD PUSH2 0x18CF DUP9 DUP3 PUSH2 0x1870 JUMP JUMPDEST SWAP8 POP PUSH2 0x18DA DUP4 PUSH2 0x1CA3 JUMP JUMPDEST SWAP3 POP POP PUSH1 0x1 DUP2 ADD SWAP1 POP PUSH2 0x18BB JUMP JUMPDEST POP DUP6 SWAP4 POP POP POP POP SWAP3 SWAP2 POP POP JUMP JUMPDEST PUSH2 0x18FE DUP2 PUSH2 0x1CEF JUMP JUMPDEST DUP3 MSTORE POP POP JUMP JUMPDEST PUSH1 0x0 PUSH2 0x190F DUP3 PUSH2 0x1C98 JUMP JUMPDEST PUSH2 0x1919 DUP2 DUP6 PUSH2 0x1CD2 JUMP JUMPDEST SWAP4 POP PUSH2 0x1929 DUP2 DUP6 PUSH1 0x20 DUP7 ADD PUSH2 0x1D32 JUMP JUMPDEST DUP1 DUP5 ADD SWAP2 POP POP SWAP3 SWAP2 POP POP JUMP JUMPDEST PUSH1 0x0 PUSH2 0x1942 PUSH1 0x1C DUP4 PUSH2 0x1CC1 JUMP JUMPDEST SWAP2 POP PUSH2 0x194D DUP3 PUSH2 0x1F21 JUMP JUMPDEST PUSH1 0x20 DUP3 ADD SWAP1 POP SWAP2 SWAP1 POP JUMP JUMPDEST PUSH1 0x0 PUSH2 0x1965 PUSH1 0x14 DUP4 PUSH2 0x1CC1 JUMP JUMPDEST SWAP2 POP PUSH2 0x1970 DUP3 PUSH2 0x1F4A JUMP JUMPDEST PUSH1 0x20 DUP3 ADD SWAP1 POP SWAP2 SWAP1 POP JUMP JUMPDEST PUSH1 0x0 PUSH2 0x1988 PUSH1 0x18 DUP4 PUSH2 0x1CC1 JUMP JUMPDEST SWAP2 POP PUSH2 0x1993 DUP3 PUSH2 0x1F73 JUMP JUMPDEST PUSH1 0x20 DUP3 ADD SWAP1 POP SWAP2 SWAP1 POP JUMP JUMPDEST PUSH1 0x0 PUSH2 0x19AB PUSH1 0x2A DUP4 PUSH2 0x1CC1 JUMP JUMPDEST SWAP2 POP PUSH2 0x19B6 DUP3 PUSH2 0x1F9C JUMP JUMPDEST PUSH1 0x40 DUP3 ADD SWAP1 POP SWAP2 SWAP1 POP JUMP JUMPDEST PUSH1 0x0 PUSH2 0x19CE PUSH1 0x29 DUP4 PUSH2 0x1CC1 JUMP JUMPDEST SWAP2 POP PUSH2 0x19D9 DUP3 PUSH2 0x1FEB JUMP JUMPDEST PUSH1 0x40 DUP3 ADD SWAP1 POP SWAP2 SWAP1 POP JUMP JUMPDEST PUSH1 0x0 PUSH2 0x19F1 PUSH1 0x20 DUP4 PUSH2 0x1CC1 JUMP JUMPDEST SWAP2 POP PUSH2 0x19FC DUP3 PUSH2 0x203A JUMP JUMPDEST PUSH1 0x20 DUP3 ADD SWAP1 POP SWAP2 SWAP1 POP JUMP JUMPDEST PUSH1 0x0 PUSH2 0x1A14 PUSH1 0xE DUP4 PUSH2 0x1CC1 JUMP JUMPDEST SWAP2 POP PUSH2 0x1A1F DUP3 PUSH2 0x2063 JUMP JUMPDEST PUSH1 0x20 DUP3 ADD SWAP1 POP SWAP2 SWAP1 POP JUMP JUMPDEST PUSH1 0x0 PUSH2 0x1A37 PUSH1 0x19 DUP4 PUSH2 0x1CC1 JUMP JUMPDEST SWAP2 POP PUSH2 0x1A42 DUP3 PUSH2 0x208C JUMP JUMPDEST PUSH1 0x20 DUP3 ADD SWAP1 POP SWAP2 SWAP1 POP JUMP JUMPDEST PUSH1 0x0 PUSH2 0x1A5A PUSH1 0x17 DUP4 PUSH2 0x1CC1 JUMP JUMPDEST SWAP2 POP PUSH2 0x1A65 DUP3 PUSH2 0x20B5 JUMP JUMPDEST PUSH1 0x20 DUP3 ADD SWAP1 POP SWAP2 SWAP1 POP JUMP JUMPDEST PUSH1 0x0 PUSH2 0x1A7D PUSH1 0x37 DUP4 PUSH2 0x1CC1 JUMP JUMPDEST SWAP2 POP PUSH2 0x1A88 DUP3 PUSH2 0x20DE JUMP JUMPDEST PUSH1 0x40 DUP3 ADD SWAP1 POP SWAP2 SWAP1 POP JUMP JUMPDEST PUSH1 0x0 PUSH2 0x1A9F DUP3 DUP5 PUSH2 0x1904 JUMP JUMPDEST SWAP2 POP DUP2 SWAP1 POP SWAP3 SWAP2 POP POP JUMP JUMPDEST PUSH1 0x0 PUSH1 0x20 DUP3 ADD SWAP1 POP DUP2 DUP2 SUB PUSH1 0x0 DUP4 ADD MSTORE PUSH2 0x1AC4 DUP2 DUP5 PUSH2 0x1897 JUMP JUMPDEST SWAP1 POP SWAP3 SWAP2 POP POP JUMP JUMPDEST PUSH1 0x0 PUSH1 0x20 DUP3 ADD SWAP1 POP PUSH2 0x1AE1 PUSH1 0x0 DUP4 ADD DUP5 PUSH2 0x18F5 JUMP JUMPDEST SWAP3 SWAP2 POP POP JUMP JUMPDEST PUSH1 0x0 PUSH1 0x20 DUP3 ADD SWAP1 POP DUP2 DUP2 SUB PUSH1 0x0 DUP4 ADD MSTORE PUSH2 0x1B00 DUP2 PUSH2 0x1935 JUMP JUMPDEST SWAP1 POP SWAP2 SWAP1 POP JUMP JUMPDEST PUSH1 0x0 PUSH1 0x20 DUP3 ADD SWAP1 POP DUP2 DUP2 SUB PUSH1 0x0 DUP4 ADD MSTORE PUSH2 0x1B20 DUP2 PUSH2 0x1958 JUMP JUMPDEST SWAP1 POP SWAP2 SWAP1 POP JUMP JUMPDEST PUSH1 0x0 PUSH1 0x20 DUP3 ADD SWAP1 POP DUP2 DUP2 SUB PUSH1 0x0 DUP4 ADD MSTORE PUSH2 0x1B40 DUP2 PUSH2 0x197B JUMP JUMPDEST SWAP1 POP SWAP2 SWAP1 POP JUMP JUMPDEST PUSH1 0x0 PUSH1 0x20 DUP3 ADD SWAP1 POP DUP2 DUP2 SUB PUSH1 0x0 DUP4 ADD MSTORE PUSH2 0x1B60 DUP2 PUSH2 0x199E JUMP JUMPDEST SWAP1 POP SWAP2 SWAP1 POP JUMP JUMPDEST PUSH1 0x0 PUSH1 0x20 DUP3 ADD SWAP1 POP DUP2 DUP2 SUB PUSH1 0x0 DUP4 ADD MSTORE PUSH2 0x1B80 DUP2 PUSH2 0x19C1 JUMP JUMPDEST SWAP1 POP SWAP2 SWAP1 POP JUMP JUMPDEST PUSH1 0x0 PUSH1 0x20 DUP3 ADD SWAP1 POP DUP2 DUP2 SUB PUSH1 0x0 DUP4 ADD MSTORE PUSH2 0x1BA0 DUP2 PUSH2 0x19E4 JUMP JUMPDEST SWAP1 POP SWAP2 SWAP1 POP JUMP JUMPDEST PUSH1 0x0 PUSH1 0x20 DUP3 ADD SWAP1 POP DUP2 DUP2 SUB PUSH1 0x0 DUP4 ADD MSTORE PUSH2 0x1BC0 DUP2 PUSH2 0x1A07 JUMP JUMPDEST SWAP1 POP SWAP2 SWAP1 POP JUMP JUMPDEST PUSH1 0x0 PUSH1 0x20 DUP3 ADD SWAP1 POP DUP2 DUP2 SUB PUSH1 0x0 DUP4 ADD MSTORE PUSH2 0x1BE0 DUP2 PUSH2 0x1A2A JUMP JUMPDEST SWAP1 POP SWAP2 SWAP1 POP JUMP JUMPDEST PUSH1 0x0 PUSH1 0x20 DUP3 ADD SWAP1 POP DUP2 DUP2 SUB PUSH1 0x0 DUP4 ADD MSTORE PUSH2 0x1C00 DUP2 PUSH2 0x1A4D JUMP JUMPDEST SWAP1 POP SWAP2 SWAP1 POP JUMP JUMPDEST PUSH1 0x0 PUSH1 0x20 DUP3 ADD SWAP1 POP DUP2 DUP2 SUB PUSH1 0x0 DUP4 ADD MSTORE PUSH2 0x1C20 DUP2 PUSH2 0x1A70 JUMP JUMPDEST SWAP1 POP SWAP2 SWAP1 POP JUMP JUMPDEST PUSH1 0x0 PUSH2 0x1C31 PUSH2 0x1C42 JUMP JUMPDEST SWAP1 POP PUSH2 0x1C3D DUP3 DUP3 PUSH2 0x1D97 JUMP JUMPDEST SWAP2 SWAP1 POP JUMP JUMPDEST PUSH1 0x0 PUSH1 0x40 MLOAD SWAP1 POP SWAP1 JUMP JUMPDEST PUSH1 0x0 PUSH8 0xFFFFFFFFFFFFFFFF DUP3 GT ISZERO PUSH2 0x1C67 JUMPI PUSH2 0x1C66 PUSH2 0x1ECD JUMP JUMPDEST JUMPDEST PUSH2 0x1C70 DUP3 PUSH2 0x1F10 JUMP JUMPDEST SWAP1 POP PUSH1 0x20 DUP2 ADD SWAP1 POP SWAP2 SWAP1 POP JUMP JUMPDEST PUSH1 0x0 DUP2 SWAP1 POP PUSH1 0x20 DUP3 ADD SWAP1 POP SWAP2 SWAP1 POP JUMP JUMPDEST PUSH1 0x0 DUP2 MLOAD SWAP1 POP SWAP2 SWAP1 POP JUMP JUMPDEST PUSH1 0x0 DUP2 MLOAD SWAP1 POP SWAP2 SWAP1 POP JUMP JUMPDEST PUSH1 0x0 PUSH1 0x20 DUP3 ADD SWAP1 POP SWAP2 SWAP1 POP JUMP JUMPDEST PUSH1 0x0 DUP3 DUP3 MSTORE PUSH1 0x20 DUP3 ADD SWAP1 POP SWAP3 SWAP2 POP POP JUMP JUMPDEST PUSH1 0x0 DUP3 DUP3 MSTORE PUSH1 0x20 DUP3 ADD SWAP1 POP SWAP3 SWAP2 POP POP JUMP JUMPDEST PUSH1 0x0 DUP2 SWAP1 POP SWAP3 SWAP2 POP POP JUMP JUMPDEST PUSH1 0x0 PUSH2 0x1CE8 DUP3 PUSH2 0x1CF9 JUMP JUMPDEST SWAP1 POP SWAP2 SWAP1 POP JUMP JUMPDEST PUSH1 0x0 DUP2 SWAP1 POP SWAP2 SWAP1 POP JUMP JUMPDEST PUSH1 0x0 PUSH20 0xFFFFFFFFFFFFFFFFFFFFFFFFFFFFFFFFFFFFFFFF DUP3 AND SWAP1 POP SWAP2 SWAP1 POP JUMP JUMPDEST PUSH1 0x0 DUP2 SWAP1 POP SWAP2 SWAP1 POP JUMP JUMPDEST DUP3 DUP2 DUP4 CALLDATACOPY PUSH1 0x0 DUP4 DUP4 ADD MSTORE POP POP POP JUMP JUMPDEST PUSH1 0x0 JUMPDEST DUP4 DUP2 LT ISZERO PUSH2 0x1D50 JUMPI DUP1 DUP3 ADD MLOAD DUP2 DUP5 ADD MSTORE PUSH1 0x20 DUP2 ADD SWAP1 POP PUSH2 0x1D35 JUMP JUMPDEST DUP4 DUP2 GT ISZERO PUSH2 0x1D5F JUMPI PUSH1 0x0 DUP5 DUP5 ADD MSTORE JUMPDEST POP POP POP POP JUMP JUMPDEST PUSH1 0x0 PUSH1 0x2 DUP3 DIV SWAP1 POP PUSH1 0x1 DUP3 AND DUP1 PUSH2 0x1D7D JUMPI PUSH1 0x7F DUP3 AND SWAP2 POP JUMPDEST PUSH1 0x20 DUP3 LT DUP2 EQ ISZERO PUSH2 0x1D91 JUMPI PUSH2 0x1D90 PUSH2 0x1E6F JUMP JUMPDEST JUMPDEST POP SWAP2 SWAP1 POP JUMP JUMPDEST PUSH2 0x1DA0 DUP3 PUSH2 0x1F10 JUMP JUMPDEST DUP2 ADD DUP2 DUP2 LT PUSH8 0xFFFFFFFFFFFFFFFF DUP3 GT OR ISZERO PUSH2 0x1DBF JUMPI PUSH2 0x1DBE PUSH2 0x1ECD JUMP JUMPDEST JUMPDEST DUP1 PUSH1 0x40 MSTORE POP POP POP JUMP JUMPDEST PUSH1 0x0 PUSH2 0x1DD3 DUP3 PUSH2 0x1D19 JUMP JUMPDEST SWAP2 POP PUSH32 0xFFFFFFFFFFFFFFFFFFFFFFFFFFFFFFFFFFFFFFFFFFFFFFFFFFFFFFFFFFFFFFFF DUP3 EQ ISZERO PUSH2 0x1E06 JUMPI PUSH2 0x1E05 PUSH2 0x1E11 JUMP JUMPDEST JUMPDEST PUSH1 0x1 DUP3 ADD SWAP1 POP SWAP2 SWAP1 POP JUMP JUMPDEST PUSH32 0x4E487B7100000000000000000000000000000000000000000000000000000000 PUSH1 0x0 MSTORE PUSH1 0x11 PUSH1 0x4 MSTORE PUSH1 0x24 PUSH1 0x0 REVERT JUMPDEST PUSH32 0x4E487B7100000000000000000000000000000000000000000000000000000000 PUSH1 0x0 MSTORE PUSH1 0x21 PUSH1 0x4 MSTORE PUSH1 0x24 PUSH1 0x0 REVERT JUMPDEST PUSH32 0x4E487B7100000000000000000000000000000000000000000000000000000000 PUSH1 0x0 MSTORE PUSH1 0x22 PUSH1 0x4 MSTORE PUSH1 0x24 PUSH1 0x0 REVERT JUMPDEST PUSH32 0x4E487B7100000000000000000000000000000000000000000000000000000000 PUSH1 0x0 MSTORE PUSH1 0x32 PUSH1 0x4 MSTORE PUSH1 0x24 PUSH1 0x0 REVERT JUMPDEST PUSH32 0x4E487B7100000000000000000000000000000000000000000000000000000000 PUSH1 0x0 MSTORE PUSH1 0x41 PUSH1 0x4 MSTORE PUSH1 0x24 PUSH1 0x0 REVERT JUMPDEST PUSH1 0x0 DUP1 REVERT JUMPDEST PUSH1 0x0 DUP1 REVERT JUMPDEST PUSH1 0x0 DUP1 REVERT JUMPDEST PUSH1 0x0 DUP1 REVERT JUMPDEST PUSH1 0x0 PUSH1 0x1F NOT PUSH1 0x1F DUP4 ADD AND SWAP1 POP SWAP2 SWAP1 POP JUMP JUMPDEST PUSH32 0x52657669657720746865206170706C69636174696F6E20666972737400000000 PUSH1 0x0 DUP3 ADD MSTORE POP JUMP JUMPDEST PUSH32 0x506861736520616C726561647920616374697665000000000000000000000000 PUSH1 0x0 DUP3 ADD MSTORE POP JUMP JUMPDEST PUSH32 0x4170706C69636174696F6E20616C72656164792073656E740000000000000000 PUSH1 0x0 DUP3 ADD MSTORE POP JUMP JUMPDEST PUSH32 0x596F7572206170706C69636174696F6E2068617320616C726561647920626565 PUSH1 0x0 DUP3 ADD MSTORE PUSH32 0x6E2072656A656374656400000000000000000000000000000000000000000000 PUSH1 0x20 DUP3 ADD MSTORE POP JUMP JUMPDEST PUSH32 0x596F7520617265206E6F7420746865206F776E6572206F722070726976617465 PUSH1 0x0 DUP3 ADD MSTORE PUSH32 0x2070726F76696465720000000000000000000000000000000000000000000000 PUSH1 0x20 DUP3 ADD MSTORE POP JUMP JUMPDEST PUSH32 0x506861736520686173206E6F7420796574206265656E20616374697661746564 PUSH1 0x0 DUP3 ADD MSTORE POP JUMP JUMPDEST PUSH32 0x596F7572206E6F742061646D696E000000000000000000000000000000000000 PUSH1 0x0 DUP3 ADD MSTORE POP JUMP JUMPDEST PUSH32 0x596F7572206E6F7420507269766174652070726F766964657200000000000000 PUSH1 0x0 DUP3 ADD MSTORE POP JUMP JUMPDEST PUSH32 0x4170706C69636174696F6E20706861736520656E646564000000000000000000 PUSH1 0x0 DUP3 ADD MSTORE POP JUMP JUMPDEST PUSH32 0x596F752063616E27742073656E6420616E206170706C69636174696F6E20746F PUSH1 0x0 DUP3 ADD MSTORE PUSH32 0x20736F6D656F6E6520656C736527732061646472657373000000000000000000 PUSH1 0x20 DUP3 ADD MSTORE POP JUMP JUMPDEST PUSH2 0x2136 DUP2 PUSH2 0x1CDD JUMP JUMPDEST DUP2 EQ PUSH2 0x2141 JUMPI PUSH1 0x0 DUP1 REVERT JUMPDEST POP JUMP INVALID LOG2 PUSH5 0x6970667358 0x22 SLT KECCAK256 0xEC 0x2C EXTCODECOPY SELFBALANCE 0xF9 0xBA PUSH10 0xA7814EA90861F434E31 DUP6 MUL 0x4E ADD 0xE4 0xE8 MLOAD 0xB7 CALLDATASIZE 0xE9 JUMPDEST 0x5F CHAINID SSTORE 0x5D PUSH5 0x736F6C6343 STOP ADDMOD SMOD STOP CALLER "
				},
				"gasEstimates": {
					"creation": {
						"codeDepositCost": "1714000",
						"executionCost": "1799",
						"totalCost": "1715799"
					},
					"external": {
						"acceptApplication(address)": "infinite",
						"application(string,string,address)": "infinite",
						"deviationApplication(address)": "29513",
						"endPrivatePhase()": "104606",
						"getApplicationAmountAdr()": "infinite",
						"get_blackList()": "infinite",
						"get_keccak256(string)": "infinite",
						"get_whiteList()": "infinite",
						"startPrivatePhase()": "55825"
					}
				},
				"methodIdentifiers": {
					"acceptApplication(address)": "a678b65b",
					"application(string,string,address)": "785963c3",
					"deviationApplication(address)": "1d3eea35",
					"endPrivatePhase()": "7f4b8df0",
					"getApplicationAmountAdr()": "686c4cea",
					"get_blackList()": "7f89128f",
					"get_keccak256(string)": "8e4f8c6b",
					"get_whiteList()": "c10e3911",
					"startPrivatePhase()": "0691615d"
				}
			},
			"storageLayout": {
				"storage": [
					{
						"astId": 528,
						"contract": "Documents/GitHub/contract-token-cryptoMonster/backend/components/PhasePrivate.sol:PhasePrivate",
						"label": "structUsers_",
						"offset": 0,
						"slot": "0",
						"type": "t_mapping(t_address,t_struct(structUser)523_storage)"
					},
					{
						"astId": 538,
						"contract": "Documents/GitHub/contract-token-cryptoMonster/backend/components/PhasePrivate.sol:PhasePrivate",
						"label": "structPhases_",
						"offset": 0,
						"slot": "1",
						"type": "t_mapping(t_address,t_struct(structPhase)533_storage)"
					},
					{
						"astId": 556,
						"contract": "Documents/GitHub/contract-token-cryptoMonster/backend/components/PhasePrivate.sol:PhasePrivate",
						"label": "strucApplications_",
						"offset": 0,
						"slot": "2",
						"type": "t_mapping(t_address,t_struct(structApplication)551_storage)"
					},
					{
						"astId": 559,
						"contract": "Documents/GitHub/contract-token-cryptoMonster/backend/components/PhasePrivate.sol:PhasePrivate",
						"label": "structApplicationsAmountAdr",
						"offset": 0,
						"slot": "3",
						"type": "t_array(t_address)dyn_storage"
					},
					{
						"astId": 562,
						"contract": "Documents/GitHub/contract-token-cryptoMonster/backend/components/PhasePrivate.sol:PhasePrivate",
						"label": "whiteList",
						"offset": 0,
						"slot": "4",
						"type": "t_array(t_address)dyn_storage"
					},
					{
						"astId": 565,
						"contract": "Documents/GitHub/contract-token-cryptoMonster/backend/components/PhasePrivate.sol:PhasePrivate",
						"label": "blackList",
						"offset": 0,
						"slot": "5",
						"type": "t_array(t_address)dyn_storage"
					}
				],
				"types": {
					"t_address": {
						"encoding": "inplace",
						"label": "address",
						"numberOfBytes": "20"
					},
					"t_array(t_address)dyn_storage": {
						"base": "t_address",
						"encoding": "dynamic_array",
						"label": "address[]",
						"numberOfBytes": "32"
					},
					"t_bool": {
						"encoding": "inplace",
						"label": "bool",
						"numberOfBytes": "1"
					},
					"t_bytes32": {
						"encoding": "inplace",
						"label": "bytes32",
						"numberOfBytes": "32"
					},
					"t_enum(Role)507": {
						"encoding": "inplace",
						"label": "enum structures.Role",
						"numberOfBytes": "1"
					},
					"t_mapping(t_address,t_struct(structApplication)551_storage)": {
						"encoding": "mapping",
						"key": "t_address",
						"label": "mapping(address => struct structures.structApplication)",
						"numberOfBytes": "32",
						"value": "t_struct(structApplication)551_storage"
					},
					"t_mapping(t_address,t_struct(structPhase)533_storage)": {
						"encoding": "mapping",
						"key": "t_address",
						"label": "mapping(address => struct structures.structPhase)",
						"numberOfBytes": "32",
						"value": "t_struct(structPhase)533_storage"
					},
					"t_mapping(t_address,t_struct(structUser)523_storage)": {
						"encoding": "mapping",
						"key": "t_address",
						"label": "mapping(address => struct structures.structUser)",
						"numberOfBytes": "32",
						"value": "t_struct(structUser)523_storage"
					},
					"t_string_storage": {
						"encoding": "bytes",
						"label": "string",
						"numberOfBytes": "32"
					},
					"t_struct(structApplication)551_storage": {
						"encoding": "inplace",
						"label": "struct structures.structApplication",
						"members": [
							{
								"astId": 540,
								"contract": "Documents/GitHub/contract-token-cryptoMonster/backend/components/PhasePrivate.sol:PhasePrivate",
								"label": "name",
								"offset": 0,
								"slot": "0",
								"type": "t_string_storage"
							},
							{
								"astId": 542,
								"contract": "Documents/GitHub/contract-token-cryptoMonster/backend/components/PhasePrivate.sol:PhasePrivate",
								"label": "contactForCommunication",
								"offset": 0,
								"slot": "1",
								"type": "t_string_storage"
							},
							{
								"astId": 544,
								"contract": "Documents/GitHub/contract-token-cryptoMonster/backend/components/PhasePrivate.sol:PhasePrivate",
								"label": "userAdr",
								"offset": 0,
								"slot": "2",
								"type": "t_address"
							},
							{
								"astId": 546,
								"contract": "Documents/GitHub/contract-token-cryptoMonster/backend/components/PhasePrivate.sol:PhasePrivate",
								"label": "status",
								"offset": 20,
								"slot": "2",
								"type": "t_bool"
							},
							{
								"astId": 548,
								"contract": "Documents/GitHub/contract-token-cryptoMonster/backend/components/PhasePrivate.sol:PhasePrivate",
								"label": "reviewed",
								"offset": 21,
								"slot": "2",
								"type": "t_bool"
							},
							{
								"astId": 550,
								"contract": "Documents/GitHub/contract-token-cryptoMonster/backend/components/PhasePrivate.sol:PhasePrivate",
								"label": "exist",
								"offset": 22,
								"slot": "2",
								"type": "t_bool"
							}
						],
						"numberOfBytes": "96"
					},
					"t_struct(structPhase)533_storage": {
						"encoding": "inplace",
						"label": "struct structures.structPhase",
						"members": [
							{
								"astId": 530,
								"contract": "Documents/GitHub/contract-token-cryptoMonster/backend/components/PhasePrivate.sol:PhasePrivate",
								"label": "statusPhase",
								"offset": 0,
								"slot": "0",
								"type": "t_bool"
							},
							{
								"astId": 532,
								"contract": "Documents/GitHub/contract-token-cryptoMonster/backend/components/PhasePrivate.sol:PhasePrivate",
								"label": "reviewed",
								"offset": 1,
								"slot": "0",
								"type": "t_bool"
							}
						],
						"numberOfBytes": "32"
					},
					"t_struct(structUser)523_storage": {
						"encoding": "inplace",
						"label": "struct structures.structUser",
						"members": [
							{
								"astId": 510,
								"contract": "Documents/GitHub/contract-token-cryptoMonster/backend/components/PhasePrivate.sol:PhasePrivate",
								"label": "role",
								"offset": 0,
								"slot": "0",
								"type": "t_enum(Role)507"
							},
							{
								"astId": 512,
								"contract": "Documents/GitHub/contract-token-cryptoMonster/backend/components/PhasePrivate.sol:PhasePrivate",
								"label": "login",
								"offset": 0,
								"slot": "1",
								"type": "t_string_storage"
							},
							{
								"astId": 514,
								"contract": "Documents/GitHub/contract-token-cryptoMonster/backend/components/PhasePrivate.sol:PhasePrivate",
								"label": "password",
								"offset": 0,
								"slot": "2",
								"type": "t_bytes32"
							},
							{
								"astId": 516,
								"contract": "Documents/GitHub/contract-token-cryptoMonster/backend/components/PhasePrivate.sol:PhasePrivate",
								"label": "balance_overall",
								"offset": 0,
								"slot": "3",
								"type": "t_uint256"
							},
							{
								"astId": 518,
								"contract": "Documents/GitHub/contract-token-cryptoMonster/backend/components/PhasePrivate.sol:PhasePrivate",
								"label": "balance_seed",
								"offset": 0,
								"slot": "4",
								"type": "t_uint256"
							},
							{
								"astId": 520,
								"contract": "Documents/GitHub/contract-token-cryptoMonster/backend/components/PhasePrivate.sol:PhasePrivate",
								"label": "balance_private",
								"offset": 0,
								"slot": "5",
								"type": "t_uint256"
							},
							{
								"astId": 522,
								"contract": "Documents/GitHub/contract-token-cryptoMonster/backend/components/PhasePrivate.sol:PhasePrivate",
								"label": "balance_public",
								"offset": 0,
								"slot": "6",
								"type": "t_uint256"
							}
						],
						"numberOfBytes": "224"
					},
					"t_uint256": {
						"encoding": "inplace",
						"label": "uint256",
						"numberOfBytes": "32"
					}
				}
			},
			"userdoc": {
				"kind": "user",
				"methods": {},
				"version": 1
			}
		}
	}
}