{
	"Documents/GitHub/contract-token-cryptoMonster/backend/components/PhaseSeed.sol": {
		"PhaseSeed": {
			"abi": [
				{
					"inputs": [],
					"stateMutability": "nonpayable",
					"type": "constructor"
				},
				{
					"inputs": [
						{
							"internalType": "string",
							"name": "_password",
							"type": "string"
						}
					],
					"name": "get_hash",
					"outputs": [
						{
							"internalType": "bytes32",
							"name": "",
							"type": "bytes32"
						}
					],
					"stateMutability": "pure",
					"type": "function"
				}
			],
			"devdoc": {
				"kind": "dev",
				"methods": {},
				"version": 1
			},
			"evm": {
				"assembly": "    /* \"Documents/GitHub/contract-token-cryptoMonster/backend/components/PhaseSeed.sol\":145:963  contract PhaseSeed is Main {\r... */\n  mstore(0x40, 0x80)\n    /* \"Documents/GitHub/contract-token-cryptoMonster/backend/components/PhaseSeed.sol\":210:252  0x78731D3Ca6b7E34aC0F824c42a7cC18A495cabaB */\n  0x78731d3ca6b7e34ac0f824c42a7cc18a495cabab\n    /* \"Documents/GitHub/contract-token-cryptoMonster/backend/components/PhaseSeed.sol\":183:252  address investorFirstAdr = 0x78731D3Ca6b7E34aC0F824c42a7cC18A495cabaB */\n  0x01\n  exp(0x0100, 0x00)\n  dup2\n  sload\n  dup2\n  0xffffffffffffffffffffffffffffffffffffffff\n  mul\n  not\n  and\n  swap1\n  dup4\n  0xffffffffffffffffffffffffffffffffffffffff\n  and\n  mul\n  or\n  swap1\n  sstore\n  pop\n    /* \"Documents/GitHub/contract-token-cryptoMonster/backend/components/PhaseSeed.sol\":273:960  constructor() {\r... */\n  callvalue\n  dup1\n  iszero\n  tag_1\n  jumpi\n  0x00\n  dup1\n  revert\ntag_1:\n  pop\n    /* \"Documents/GitHub/contract-token-cryptoMonster/backend/components/PhaseSeed.sol\":377:402  address investorSecondAdr */\n  0x00\n    /* \"Documents/GitHub/contract-token-cryptoMonster/backend/components/PhaseSeed.sol\":405:447  0x617F2E2fD72FD9D5503197092aC168c91465E7f2 */\n  0x617f2e2fd72fd9d5503197092ac168c91465e7f2\n    /* \"Documents/GitHub/contract-token-cryptoMonster/backend/components/PhaseSeed.sol\":377:447  address investorSecondAdr = 0x617F2E2fD72FD9D5503197092aC168c91465E7f2 */\n  swap1\n  pop\n    /* \"Documents/GitHub/contract-token-cryptoMonster/backend/components/PhaseSeed.sol\":471:492  address bestFriendAdr */\n  0x00\n    /* \"Documents/GitHub/contract-token-cryptoMonster/backend/components/PhaseSeed.sol\":495:537  0x17F6AD8Ef982297579C203069C1DbfFE4348c372 */\n  0x17f6ad8ef982297579c203069c1dbffe4348c372\n    /* \"Documents/GitHub/contract-token-cryptoMonster/backend/components/PhaseSeed.sol\":471:537  address bestFriendAdr = 0x17F6AD8Ef982297579C203069C1DbfFE4348c372 */\n  swap1\n  pop\n    /* \"Documents/GitHub/contract-token-cryptoMonster/backend/components/PhaseSeed.sol\":601:661  structUser(Role.INVESTOR , \"Investor1\", get_hash(\"3412\"), 0) */\n  mload(0x40)\n  dup1\n  0x80\n  add\n  0x40\n  mstore\n  dup1\n    /* \"Documents/GitHub/contract-token-cryptoMonster/backend/components/PhaseSeed.sol\":612:625  Role.INVESTOR */\n  0x03\n    /* \"Documents/GitHub/contract-token-cryptoMonster/backend/components/PhaseSeed.sol\":601:661  structUser(Role.INVESTOR , \"Investor1\", get_hash(\"3412\"), 0) */\n  0x04\n  dup2\n  gt\n  iszero\n  tag_4\n  jumpi\n  tag_5\n  tag_6\n  jump\t// in\ntag_5:\ntag_4:\n  dup2\n  mstore\n  0x20\n  add\n  mload(0x40)\n  dup1\n  0x40\n  add\n  0x40\n  mstore\n  dup1\n  0x09\n  dup2\n  mstore\n  0x20\n  add\n  0x496e766573746f72310000000000000000000000000000000000000000000000\n  dup2\n  mstore\n  pop\n  dup2\n  mstore\n  0x20\n  add\n    /* \"Documents/GitHub/contract-token-cryptoMonster/backend/components/PhaseSeed.sol\":641:657  get_hash(\"3412\") */\n  tag_7\n  mload(0x40)\n  dup1\n  0x40\n  add\n  0x40\n  mstore\n  dup1\n  0x04\n  dup2\n  mstore\n  0x20\n  add\n  0x3334313200000000000000000000000000000000000000000000000000000000\n  dup2\n  mstore\n  pop\n    /* \"Documents/GitHub/contract-token-cryptoMonster/backend/components/PhaseSeed.sol\":641:649  get_hash */\n  shl(0x20, tag_8)\n    /* \"Documents/GitHub/contract-token-cryptoMonster/backend/components/PhaseSeed.sol\":641:657  get_hash(\"3412\") */\n  0x20\n  shr\n  jump\t// in\ntag_7:\n    /* \"Documents/GitHub/contract-token-cryptoMonster/backend/components/PhaseSeed.sol\":601:661  structUser(Role.INVESTOR , \"Investor1\", get_hash(\"3412\"), 0) */\n  dup2\n  mstore\n  0x20\n  add\n    /* \"Documents/GitHub/contract-token-cryptoMonster/backend/components/PhaseSeed.sol\":659:660  0 */\n  0x00\n    /* \"Documents/GitHub/contract-token-cryptoMonster/backend/components/PhaseSeed.sol\":601:661  structUser(Role.INVESTOR , \"Investor1\", get_hash(\"3412\"), 0) */\n  dup2\n  mstore\n  pop\n    /* \"Documents/GitHub/contract-token-cryptoMonster/backend/components/PhaseSeed.sol\":569:580  structUser_ */\n  0x00\n    /* \"Documents/GitHub/contract-token-cryptoMonster/backend/components/PhaseSeed.sol\":569:598  structUser_[investorFirstAdr] */\n  dup1\n    /* \"Documents/GitHub/contract-token-cryptoMonster/backend/components/PhaseSeed.sol\":581:597  investorFirstAdr */\n  0x01\n  0x00\n  swap1\n  sload\n  swap1\n  0x0100\n  exp\n  swap1\n  div\n  0xffffffffffffffffffffffffffffffffffffffff\n  and\n    /* \"Documents/GitHub/contract-token-cryptoMonster/backend/components/PhaseSeed.sol\":569:598  structUser_[investorFirstAdr] */\n  0xffffffffffffffffffffffffffffffffffffffff\n  and\n  0xffffffffffffffffffffffffffffffffffffffff\n  and\n  dup2\n  mstore\n  0x20\n  add\n  swap1\n  dup2\n  mstore\n  0x20\n  add\n  0x00\n  keccak256\n    /* \"Documents/GitHub/contract-token-cryptoMonster/backend/components/PhaseSeed.sol\":569:661  structUser_[investorFirstAdr] = structUser(Role.INVESTOR , \"Investor1\", get_hash(\"3412\"), 0) */\n  0x00\n  dup3\n  add\n  mload\n  dup2\n  0x00\n  add\n  exp(0x0100, 0x00)\n  dup2\n  sload\n  dup2\n  0xff\n  mul\n  not\n  and\n  swap1\n  dup4\n  0x04\n  dup2\n  gt\n  iszero\n  tag_9\n  jumpi\n  tag_10\n  tag_6\n  jump\t// in\ntag_10:\ntag_9:\n  mul\n  or\n  swap1\n  sstore\n  pop\n  0x20\n  dup3\n  add\n  mload\n  dup2\n  0x01\n  add\n  swap1\n  dup1\n  mload\n  swap1\n  0x20\n  add\n  swap1\n  tag_11\n  swap3\n  swap2\n  swap1\n  tag_12\n  jump\t// in\ntag_11:\n  pop\n  0x40\n  dup3\n  add\n  mload\n  dup2\n  0x02\n  add\n  sstore\n  0x60\n  dup3\n  add\n  mload\n  dup2\n  0x03\n  add\n  sstore\n  swap1\n  pop\n  pop\n    /* \"Documents/GitHub/contract-token-cryptoMonster/backend/components/PhaseSeed.sol\":740:799  structUser(Role.INVESTOR, \"Investor1\", get_hash(\"1423\"), 0) */\n  mload(0x40)\n  dup1\n  0x80\n  add\n  0x40\n  mstore\n  dup1\n    /* \"Documents/GitHub/contract-token-cryptoMonster/backend/components/PhaseSeed.sol\":751:764  Role.INVESTOR */\n  0x03\n    /* \"Documents/GitHub/contract-token-cryptoMonster/backend/components/PhaseSeed.sol\":740:799  structUser(Role.INVESTOR, \"Investor1\", get_hash(\"1423\"), 0) */\n  0x04\n  dup2\n  gt\n  iszero\n  tag_13\n  jumpi\n  tag_14\n  tag_6\n  jump\t// in\ntag_14:\ntag_13:\n  dup2\n  mstore\n  0x20\n  add\n  mload(0x40)\n  dup1\n  0x40\n  add\n  0x40\n  mstore\n  dup1\n  0x09\n  dup2\n  mstore\n  0x20\n  add\n  0x496e766573746f72310000000000000000000000000000000000000000000000\n  dup2\n  mstore\n  pop\n  dup2\n  mstore\n  0x20\n  add\n    /* \"Documents/GitHub/contract-token-cryptoMonster/backend/components/PhaseSeed.sol\":779:795  get_hash(\"1423\") */\n  tag_15\n  mload(0x40)\n  dup1\n  0x40\n  add\n  0x40\n  mstore\n  dup1\n  0x04\n  dup2\n  mstore\n  0x20\n  add\n  0x3134323300000000000000000000000000000000000000000000000000000000\n  dup2\n  mstore\n  pop\n    /* \"Documents/GitHub/contract-token-cryptoMonster/backend/components/PhaseSeed.sol\":779:787  get_hash */\n  shl(0x20, tag_8)\n    /* \"Documents/GitHub/contract-token-cryptoMonster/backend/components/PhaseSeed.sol\":779:795  get_hash(\"1423\") */\n  0x20\n  shr\n  jump\t// in\ntag_15:\n    /* \"Documents/GitHub/contract-token-cryptoMonster/backend/components/PhaseSeed.sol\":740:799  structUser(Role.INVESTOR, \"Investor1\", get_hash(\"1423\"), 0) */\n  dup2\n  mstore\n  0x20\n  add\n    /* \"Documents/GitHub/contract-token-cryptoMonster/backend/components/PhaseSeed.sol\":797:798  0 */\n  0x00\n    /* \"Documents/GitHub/contract-token-cryptoMonster/backend/components/PhaseSeed.sol\":740:799  structUser(Role.INVESTOR, \"Investor1\", get_hash(\"1423\"), 0) */\n  dup2\n  mstore\n  pop\n    /* \"Documents/GitHub/contract-token-cryptoMonster/backend/components/PhaseSeed.sol\":707:718  structUser_ */\n  0x00\n    /* \"Documents/GitHub/contract-token-cryptoMonster/backend/components/PhaseSeed.sol\":707:737  structUser_[investorSecondAdr] */\n  dup1\n    /* \"Documents/GitHub/contract-token-cryptoMonster/backend/components/PhaseSeed.sol\":719:736  investorSecondAdr */\n  dup5\n    /* \"Documents/GitHub/contract-token-cryptoMonster/backend/components/PhaseSeed.sol\":707:737  structUser_[investorSecondAdr] */\n  0xffffffffffffffffffffffffffffffffffffffff\n  and\n  0xffffffffffffffffffffffffffffffffffffffff\n  and\n  dup2\n  mstore\n  0x20\n  add\n  swap1\n  dup2\n  mstore\n  0x20\n  add\n  0x00\n  keccak256\n    /* \"Documents/GitHub/contract-token-cryptoMonster/backend/components/PhaseSeed.sol\":707:799  structUser_[investorSecondAdr] = structUser(Role.INVESTOR, \"Investor1\", get_hash(\"1423\"), 0) */\n  0x00\n  dup3\n  add\n  mload\n  dup2\n  0x00\n  add\n  exp(0x0100, 0x00)\n  dup2\n  sload\n  dup2\n  0xff\n  mul\n  not\n  and\n  swap1\n  dup4\n  0x04\n  dup2\n  gt\n  iszero\n  tag_16\n  jumpi\n  tag_17\n  tag_6\n  jump\t// in\ntag_17:\ntag_16:\n  mul\n  or\n  swap1\n  sstore\n  pop\n  0x20\n  dup3\n  add\n  mload\n  dup2\n  0x01\n  add\n  swap1\n  dup1\n  mload\n  swap1\n  0x20\n  add\n  swap1\n  tag_18\n  swap3\n  swap2\n  swap1\n  tag_12\n  jump\t// in\ntag_18:\n  pop\n  0x40\n  dup3\n  add\n  mload\n  dup2\n  0x02\n  add\n  sstore\n  0x60\n  dup3\n  add\n  mload\n  dup2\n  0x03\n  add\n  sstore\n  swap1\n  pop\n  pop\n    /* \"Documents/GitHub/contract-token-cryptoMonster/backend/components/PhaseSeed.sol\":861:922  structUser(Role.INVESTOR, \"Best friend\", get_hash(\"2314\"), 0) */\n  mload(0x40)\n  dup1\n  0x80\n  add\n  0x40\n  mstore\n  dup1\n    /* \"Documents/GitHub/contract-token-cryptoMonster/backend/components/PhaseSeed.sol\":872:885  Role.INVESTOR */\n  0x03\n    /* \"Documents/GitHub/contract-token-cryptoMonster/backend/components/PhaseSeed.sol\":861:922  structUser(Role.INVESTOR, \"Best friend\", get_hash(\"2314\"), 0) */\n  0x04\n  dup2\n  gt\n  iszero\n  tag_19\n  jumpi\n  tag_20\n  tag_6\n  jump\t// in\ntag_20:\ntag_19:\n  dup2\n  mstore\n  0x20\n  add\n  mload(0x40)\n  dup1\n  0x40\n  add\n  0x40\n  mstore\n  dup1\n  0x0b\n  dup2\n  mstore\n  0x20\n  add\n  0x4265737420667269656e64000000000000000000000000000000000000000000\n  dup2\n  mstore\n  pop\n  dup2\n  mstore\n  0x20\n  add\n    /* \"Documents/GitHub/contract-token-cryptoMonster/backend/components/PhaseSeed.sol\":902:918  get_hash(\"2314\") */\n  tag_21\n  mload(0x40)\n  dup1\n  0x40\n  add\n  0x40\n  mstore\n  dup1\n  0x04\n  dup2\n  mstore\n  0x20\n  add\n  0x3233313400000000000000000000000000000000000000000000000000000000\n  dup2\n  mstore\n  pop\n    /* \"Documents/GitHub/contract-token-cryptoMonster/backend/components/PhaseSeed.sol\":902:910  get_hash */\n  shl(0x20, tag_8)\n    /* \"Documents/GitHub/contract-token-cryptoMonster/backend/components/PhaseSeed.sol\":902:918  get_hash(\"2314\") */\n  0x20\n  shr\n  jump\t// in\ntag_21:\n    /* \"Documents/GitHub/contract-token-cryptoMonster/backend/components/PhaseSeed.sol\":861:922  structUser(Role.INVESTOR, \"Best friend\", get_hash(\"2314\"), 0) */\n  dup2\n  mstore\n  0x20\n  add\n    /* \"Documents/GitHub/contract-token-cryptoMonster/backend/components/PhaseSeed.sol\":920:921  0 */\n  0x00\n    /* \"Documents/GitHub/contract-token-cryptoMonster/backend/components/PhaseSeed.sol\":861:922  structUser(Role.INVESTOR, \"Best friend\", get_hash(\"2314\"), 0) */\n  dup2\n  mstore\n  pop\n    /* \"Documents/GitHub/contract-token-cryptoMonster/backend/components/PhaseSeed.sol\":832:843  structUser_ */\n  0x00\n    /* \"Documents/GitHub/contract-token-cryptoMonster/backend/components/PhaseSeed.sol\":832:858  structUser_[bestFriendAdr] */\n  dup1\n    /* \"Documents/GitHub/contract-token-cryptoMonster/backend/components/PhaseSeed.sol\":844:857  bestFriendAdr */\n  dup4\n    /* \"Documents/GitHub/contract-token-cryptoMonster/backend/components/PhaseSeed.sol\":832:858  structUser_[bestFriendAdr] */\n  0xffffffffffffffffffffffffffffffffffffffff\n  and\n  0xffffffffffffffffffffffffffffffffffffffff\n  and\n  dup2\n  mstore\n  0x20\n  add\n  swap1\n  dup2\n  mstore\n  0x20\n  add\n  0x00\n  keccak256\n    /* \"Documents/GitHub/contract-token-cryptoMonster/backend/components/PhaseSeed.sol\":832:922  structUser_[bestFriendAdr] = structUser(Role.INVESTOR, \"Best friend\", get_hash(\"2314\"), 0) */\n  0x00\n  dup3\n  add\n  mload\n  dup2\n  0x00\n  add\n  exp(0x0100, 0x00)\n  dup2\n  sload\n  dup2\n  0xff\n  mul\n  not\n  and\n  swap1\n  dup4\n  0x04\n  dup2\n  gt\n  iszero\n  tag_22\n  jumpi\n  tag_23\n  tag_6\n  jump\t// in\ntag_23:\ntag_22:\n  mul\n  or\n  swap1\n  sstore\n  pop\n  0x20\n  dup3\n  add\n  mload\n  dup2\n  0x01\n  add\n  swap1\n  dup1\n  mload\n  swap1\n  0x20\n  add\n  swap1\n  tag_24\n  swap3\n  swap2\n  swap1\n  tag_12\n  jump\t// in\ntag_24:\n  pop\n  0x40\n  dup3\n  add\n  mload\n  dup2\n  0x02\n  add\n  sstore\n  0x60\n  dup3\n  add\n  mload\n  dup2\n  0x03\n  add\n  sstore\n  swap1\n  pop\n  pop\n    /* \"Documents/GitHub/contract-token-cryptoMonster/backend/components/PhaseSeed.sol\":287:960  {\r... */\n  pop\n  pop\n    /* \"Documents/GitHub/contract-token-cryptoMonster/backend/components/PhaseSeed.sol\":145:963  contract PhaseSeed is Main {\r... */\n  jump(tag_25)\n    /* \"Documents/GitHub/contract-token-cryptoMonster/backend/shared/helpers/getFuncs.sol\":144:285  function get_hash(string memory _password) public pure returns(bytes32) {\r... */\ntag_8:\n    /* \"Documents/GitHub/contract-token-cryptoMonster/backend/shared/helpers/getFuncs.sol\":207:214  bytes32 */\n  0x00\n    /* \"Documents/GitHub/contract-token-cryptoMonster/backend/shared/helpers/getFuncs.sol\":265:274  _password */\n  dup2\n    /* \"Documents/GitHub/contract-token-cryptoMonster/backend/shared/helpers/getFuncs.sol\":248:275  abi.encodePacked(_password) */\n  add(0x20, mload(0x40))\n  tag_27\n  swap2\n  swap1\n  tag_28\n  jump\t// in\ntag_27:\n  mload(0x40)\n  0x20\n  dup2\n  dup4\n  sub\n  sub\n  dup2\n  mstore\n  swap1\n  0x40\n  mstore\n    /* \"Documents/GitHub/contract-token-cryptoMonster/backend/shared/helpers/getFuncs.sol\":238:276  keccak256(abi.encodePacked(_password)) */\n  dup1\n  mload\n  swap1\n  0x20\n  add\n  keccak256\n    /* \"Documents/GitHub/contract-token-cryptoMonster/backend/shared/helpers/getFuncs.sol\":231:277  return(keccak256(abi.encodePacked(_password))) */\n  swap1\n  pop\n    /* \"Documents/GitHub/contract-token-cryptoMonster/backend/shared/helpers/getFuncs.sol\":144:285  function get_hash(string memory _password) public pure returns(bytes32) {\r... */\n  swap2\n  swap1\n  pop\n  jump\t// out\n    /* \"Documents/GitHub/contract-token-cryptoMonster/backend/components/PhaseSeed.sol\":145:963  contract PhaseSeed is Main {\r... */\ntag_12:\n  dup3\n  dup1\n  sload\n  tag_29\n  swap1\n  tag_30\n  jump\t// in\ntag_29:\n  swap1\n  0x00\n  mstore\n  keccak256(0x00, 0x20)\n  swap1\n  0x1f\n  add\n  0x20\n  swap1\n  div\n  dup2\n  add\n  swap3\n  dup3\n  tag_32\n  jumpi\n  0x00\n  dup6\n  sstore\n  jump(tag_31)\ntag_32:\n  dup3\n  0x1f\n  lt\n  tag_33\n  jumpi\n  dup1\n  mload\n  not(0xff)\n  and\n  dup4\n  dup1\n  add\n  or\n  dup6\n  sstore\n  jump(tag_31)\ntag_33:\n  dup3\n  dup1\n  add\n  0x01\n  add\n  dup6\n  sstore\n  dup3\n  iszero\n  tag_31\n  jumpi\n  swap2\n  dup3\n  add\ntag_34:\n  dup3\n  dup2\n  gt\n  iszero\n  tag_35\n  jumpi\n  dup3\n  mload\n  dup3\n  sstore\n  swap2\n  0x20\n  add\n  swap2\n  swap1\n  0x01\n  add\n  swap1\n  jump(tag_34)\ntag_35:\ntag_31:\n  pop\n  swap1\n  pop\n  tag_36\n  swap2\n  swap1\n  tag_37\n  jump\t// in\ntag_36:\n  pop\n  swap1\n  jump\t// out\ntag_37:\ntag_38:\n  dup1\n  dup3\n  gt\n  iszero\n  tag_39\n  jumpi\n  0x00\n  dup2\n  0x00\n  swap1\n  sstore\n  pop\n  0x01\n  add\n  jump(tag_38)\ntag_39:\n  pop\n  swap1\n  jump\t// out\n    /* \"#utility.yul\":7:384   */\ntag_41:\n    /* \"#utility.yul\":113:116   */\n  0x00\n    /* \"#utility.yul\":141:180   */\n  tag_43\n    /* \"#utility.yul\":174:179   */\n  dup3\n    /* \"#utility.yul\":141:180   */\n  tag_44\n  jump\t// in\ntag_43:\n    /* \"#utility.yul\":196:285   */\n  tag_45\n    /* \"#utility.yul\":278:284   */\n  dup2\n    /* \"#utility.yul\":273:276   */\n  dup6\n    /* \"#utility.yul\":196:285   */\n  tag_46\n  jump\t// in\ntag_45:\n    /* \"#utility.yul\":189:285   */\n  swap4\n  pop\n    /* \"#utility.yul\":294:346   */\n  tag_47\n    /* \"#utility.yul\":339:345   */\n  dup2\n    /* \"#utility.yul\":334:337   */\n  dup6\n    /* \"#utility.yul\":327:331   */\n  0x20\n    /* \"#utility.yul\":320:325   */\n  dup7\n    /* \"#utility.yul\":316:332   */\n  add\n    /* \"#utility.yul\":294:346   */\n  tag_48\n  jump\t// in\ntag_47:\n    /* \"#utility.yul\":371:377   */\n  dup1\n    /* \"#utility.yul\":366:369   */\n  dup5\n    /* \"#utility.yul\":362:378   */\n  add\n    /* \"#utility.yul\":355:378   */\n  swap2\n  pop\n    /* \"#utility.yul\":117:384   */\n  pop\n    /* \"#utility.yul\":7:384   */\n  swap3\n  swap2\n  pop\n  pop\n  jump\t// out\n    /* \"#utility.yul\":390:665   */\ntag_28:\n    /* \"#utility.yul\":522:525   */\n  0x00\n    /* \"#utility.yul\":544:639   */\n  tag_50\n    /* \"#utility.yul\":635:638   */\n  dup3\n    /* \"#utility.yul\":626:632   */\n  dup5\n    /* \"#utility.yul\":544:639   */\n  tag_41\n  jump\t// in\ntag_50:\n    /* \"#utility.yul\":537:639   */\n  swap2\n  pop\n    /* \"#utility.yul\":656:659   */\n  dup2\n    /* \"#utility.yul\":649:659   */\n  swap1\n  pop\n    /* \"#utility.yul\":390:665   */\n  swap3\n  swap2\n  pop\n  pop\n  jump\t// out\n    /* \"#utility.yul\":671:770   */\ntag_44:\n    /* \"#utility.yul\":723:729   */\n  0x00\n    /* \"#utility.yul\":757:762   */\n  dup2\n    /* \"#utility.yul\":751:763   */\n  mload\n    /* \"#utility.yul\":741:763   */\n  swap1\n  pop\n    /* \"#utility.yul\":671:770   */\n  swap2\n  swap1\n  pop\n  jump\t// out\n    /* \"#utility.yul\":776:924   */\ntag_46:\n    /* \"#utility.yul\":878:889   */\n  0x00\n    /* \"#utility.yul\":915:918   */\n  dup2\n    /* \"#utility.yul\":900:918   */\n  swap1\n  pop\n    /* \"#utility.yul\":776:924   */\n  swap3\n  swap2\n  pop\n  pop\n  jump\t// out\n    /* \"#utility.yul\":930:1237   */\ntag_48:\n    /* \"#utility.yul\":998:999   */\n  0x00\n    /* \"#utility.yul\":1008:1121   */\ntag_54:\n    /* \"#utility.yul\":1022:1028   */\n  dup4\n    /* \"#utility.yul\":1019:1020   */\n  dup2\n    /* \"#utility.yul\":1016:1029   */\n  lt\n    /* \"#utility.yul\":1008:1121   */\n  iszero\n  tag_56\n  jumpi\n    /* \"#utility.yul\":1107:1108   */\n  dup1\n    /* \"#utility.yul\":1102:1105   */\n  dup3\n    /* \"#utility.yul\":1098:1109   */\n  add\n    /* \"#utility.yul\":1092:1110   */\n  mload\n    /* \"#utility.yul\":1088:1089   */\n  dup2\n    /* \"#utility.yul\":1083:1086   */\n  dup5\n    /* \"#utility.yul\":1079:1090   */\n  add\n    /* \"#utility.yul\":1072:1111   */\n  mstore\n    /* \"#utility.yul\":1044:1046   */\n  0x20\n    /* \"#utility.yul\":1041:1042   */\n  dup2\n    /* \"#utility.yul\":1037:1047   */\n  add\n    /* \"#utility.yul\":1032:1047   */\n  swap1\n  pop\n    /* \"#utility.yul\":1008:1121   */\n  jump(tag_54)\ntag_56:\n    /* \"#utility.yul\":1139:1145   */\n  dup4\n    /* \"#utility.yul\":1136:1137   */\n  dup2\n    /* \"#utility.yul\":1133:1146   */\n  gt\n    /* \"#utility.yul\":1130:1231   */\n  iszero\n  tag_57\n  jumpi\n    /* \"#utility.yul\":1219:1220   */\n  0x00\n    /* \"#utility.yul\":1210:1216   */\n  dup5\n    /* \"#utility.yul\":1205:1208   */\n  dup5\n    /* \"#utility.yul\":1201:1217   */\n  add\n    /* \"#utility.yul\":1194:1221   */\n  mstore\n    /* \"#utility.yul\":1130:1231   */\ntag_57:\n    /* \"#utility.yul\":979:1237   */\n  pop\n    /* \"#utility.yul\":930:1237   */\n  pop\n  pop\n  pop\n  jump\t// out\n    /* \"#utility.yul\":1243:1563   */\ntag_30:\n    /* \"#utility.yul\":1287:1293   */\n  0x00\n    /* \"#utility.yul\":1324:1325   */\n  0x02\n    /* \"#utility.yul\":1318:1322   */\n  dup3\n    /* \"#utility.yul\":1314:1326   */\n  div\n    /* \"#utility.yul\":1304:1326   */\n  swap1\n  pop\n    /* \"#utility.yul\":1371:1372   */\n  0x01\n    /* \"#utility.yul\":1365:1369   */\n  dup3\n    /* \"#utility.yul\":1361:1373   */\n  and\n    /* \"#utility.yul\":1392:1410   */\n  dup1\n    /* \"#utility.yul\":1382:1463   */\n  tag_59\n  jumpi\n    /* \"#utility.yul\":1448:1452   */\n  0x7f\n    /* \"#utility.yul\":1440:1446   */\n  dup3\n    /* \"#utility.yul\":1436:1453   */\n  and\n    /* \"#utility.yul\":1426:1453   */\n  swap2\n  pop\n    /* \"#utility.yul\":1382:1463   */\ntag_59:\n    /* \"#utility.yul\":1510:1512   */\n  0x20\n    /* \"#utility.yul\":1502:1508   */\n  dup3\n    /* \"#utility.yul\":1499:1513   */\n  lt\n    /* \"#utility.yul\":1479:1497   */\n  dup2\n    /* \"#utility.yul\":1476:1514   */\n  eq\n    /* \"#utility.yul\":1473:1557   */\n  iszero\n  tag_60\n  jumpi\n    /* \"#utility.yul\":1529:1547   */\n  tag_61\n  tag_62\n  jump\t// in\ntag_61:\n    /* \"#utility.yul\":1473:1557   */\ntag_60:\n    /* \"#utility.yul\":1294:1563   */\n  pop\n    /* \"#utility.yul\":1243:1563   */\n  swap2\n  swap1\n  pop\n  jump\t// out\n    /* \"#utility.yul\":1569:1749   */\ntag_6:\n    /* \"#utility.yul\":1617:1694   */\n  0x4e487b7100000000000000000000000000000000000000000000000000000000\n    /* \"#utility.yul\":1614:1615   */\n  0x00\n    /* \"#utility.yul\":1607:1695   */\n  mstore\n    /* \"#utility.yul\":1714:1718   */\n  0x21\n    /* \"#utility.yul\":1711:1712   */\n  0x04\n    /* \"#utility.yul\":1704:1719   */\n  mstore\n    /* \"#utility.yul\":1738:1742   */\n  0x24\n    /* \"#utility.yul\":1735:1736   */\n  0x00\n    /* \"#utility.yul\":1728:1743   */\n  revert\n    /* \"#utility.yul\":1755:1935   */\ntag_62:\n    /* \"#utility.yul\":1803:1880   */\n  0x4e487b7100000000000000000000000000000000000000000000000000000000\n    /* \"#utility.yul\":1800:1801   */\n  0x00\n    /* \"#utility.yul\":1793:1881   */\n  mstore\n    /* \"#utility.yul\":1900:1904   */\n  0x22\n    /* \"#utility.yul\":1897:1898   */\n  0x04\n    /* \"#utility.yul\":1890:1905   */\n  mstore\n    /* \"#utility.yul\":1924:1928   */\n  0x24\n    /* \"#utility.yul\":1921:1922   */\n  0x00\n    /* \"#utility.yul\":1914:1929   */\n  revert\n    /* \"Documents/GitHub/contract-token-cryptoMonster/backend/components/PhaseSeed.sol\":145:963  contract PhaseSeed is Main {\r... */\ntag_25:\n  dataSize(sub_0)\n  dup1\n  dataOffset(sub_0)\n  0x00\n  codecopy\n  0x00\n  return\nstop\n\nsub_0: assembly {\n        /* \"Documents/GitHub/contract-token-cryptoMonster/backend/components/PhaseSeed.sol\":145:963  contract PhaseSeed is Main {\r... */\n      mstore(0x40, 0x80)\n      callvalue\n      dup1\n      iszero\n      tag_1\n      jumpi\n      0x00\n      dup1\n      revert\n    tag_1:\n      pop\n      jumpi(tag_2, lt(calldatasize, 0x04))\n      shr(0xe0, calldataload(0x00))\n      dup1\n      0x845952a8\n      eq\n      tag_3\n      jumpi\n    tag_2:\n      0x00\n      dup1\n      revert\n        /* \"Documents/GitHub/contract-token-cryptoMonster/backend/shared/helpers/getFuncs.sol\":144:285  function get_hash(string memory _password) public pure returns(bytes32) {\r... */\n    tag_3:\n      tag_4\n      0x04\n      dup1\n      calldatasize\n      sub\n      dup2\n      add\n      swap1\n      tag_5\n      swap2\n      swap1\n      tag_6\n      jump\t// in\n    tag_5:\n      tag_7\n      jump\t// in\n    tag_4:\n      mload(0x40)\n      tag_8\n      swap2\n      swap1\n      tag_9\n      jump\t// in\n    tag_8:\n      mload(0x40)\n      dup1\n      swap2\n      sub\n      swap1\n      return\n    tag_7:\n        /* \"Documents/GitHub/contract-token-cryptoMonster/backend/shared/helpers/getFuncs.sol\":207:214  bytes32 */\n      0x00\n        /* \"Documents/GitHub/contract-token-cryptoMonster/backend/shared/helpers/getFuncs.sol\":265:274  _password */\n      dup2\n        /* \"Documents/GitHub/contract-token-cryptoMonster/backend/shared/helpers/getFuncs.sol\":248:275  abi.encodePacked(_password) */\n      add(0x20, mload(0x40))\n      tag_11\n      swap2\n      swap1\n      tag_12\n      jump\t// in\n    tag_11:\n      mload(0x40)\n      0x20\n      dup2\n      dup4\n      sub\n      sub\n      dup2\n      mstore\n      swap1\n      0x40\n      mstore\n        /* \"Documents/GitHub/contract-token-cryptoMonster/backend/shared/helpers/getFuncs.sol\":238:276  keccak256(abi.encodePacked(_password)) */\n      dup1\n      mload\n      swap1\n      0x20\n      add\n      keccak256\n        /* \"Documents/GitHub/contract-token-cryptoMonster/backend/shared/helpers/getFuncs.sol\":231:277  return(keccak256(abi.encodePacked(_password))) */\n      swap1\n      pop\n        /* \"Documents/GitHub/contract-token-cryptoMonster/backend/shared/helpers/getFuncs.sol\":144:285  function get_hash(string memory _password) public pure returns(bytes32) {\r... */\n      swap2\n      swap1\n      pop\n      jump\t// out\n        /* \"#utility.yul\":7:419   */\n    tag_14:\n        /* \"#utility.yul\":85:90   */\n      0x00\n        /* \"#utility.yul\":110:176   */\n      tag_16\n        /* \"#utility.yul\":126:175   */\n      tag_17\n        /* \"#utility.yul\":168:174   */\n      dup5\n        /* \"#utility.yul\":126:175   */\n      tag_18\n      jump\t// in\n    tag_17:\n        /* \"#utility.yul\":110:176   */\n      tag_19\n      jump\t// in\n    tag_16:\n        /* \"#utility.yul\":101:176   */\n      swap1\n      pop\n        /* \"#utility.yul\":199:205   */\n      dup3\n        /* \"#utility.yul\":192:197   */\n      dup2\n        /* \"#utility.yul\":185:206   */\n      mstore\n        /* \"#utility.yul\":237:241   */\n      0x20\n        /* \"#utility.yul\":230:235   */\n      dup2\n        /* \"#utility.yul\":226:242   */\n      add\n        /* \"#utility.yul\":275:278   */\n      dup5\n        /* \"#utility.yul\":266:272   */\n      dup5\n        /* \"#utility.yul\":261:264   */\n      dup5\n        /* \"#utility.yul\":257:273   */\n      add\n        /* \"#utility.yul\":254:279   */\n      gt\n        /* \"#utility.yul\":251:363   */\n      iszero\n      tag_20\n      jumpi\n        /* \"#utility.yul\":282:361   */\n      tag_21\n      tag_22\n      jump\t// in\n    tag_21:\n        /* \"#utility.yul\":251:363   */\n    tag_20:\n        /* \"#utility.yul\":372:413   */\n      tag_23\n        /* \"#utility.yul\":406:412   */\n      dup5\n        /* \"#utility.yul\":401:404   */\n      dup3\n        /* \"#utility.yul\":396:399   */\n      dup6\n        /* \"#utility.yul\":372:413   */\n      tag_24\n      jump\t// in\n    tag_23:\n        /* \"#utility.yul\":91:419   */\n      pop\n        /* \"#utility.yul\":7:419   */\n      swap4\n      swap3\n      pop\n      pop\n      pop\n      jump\t// out\n        /* \"#utility.yul\":439:779   */\n    tag_25:\n        /* \"#utility.yul\":495:500   */\n      0x00\n        /* \"#utility.yul\":544:547   */\n      dup3\n        /* \"#utility.yul\":537:541   */\n      0x1f\n        /* \"#utility.yul\":529:535   */\n      dup4\n        /* \"#utility.yul\":525:542   */\n      add\n        /* \"#utility.yul\":521:548   */\n      slt\n        /* \"#utility.yul\":511:633   */\n      tag_27\n      jumpi\n        /* \"#utility.yul\":552:631   */\n      tag_28\n      tag_29\n      jump\t// in\n    tag_28:\n        /* \"#utility.yul\":511:633   */\n    tag_27:\n        /* \"#utility.yul\":669:675   */\n      dup2\n        /* \"#utility.yul\":656:676   */\n      calldataload\n        /* \"#utility.yul\":694:773   */\n      tag_30\n        /* \"#utility.yul\":769:772   */\n      dup5\n        /* \"#utility.yul\":761:767   */\n      dup3\n        /* \"#utility.yul\":754:758   */\n      0x20\n        /* \"#utility.yul\":746:752   */\n      dup7\n        /* \"#utility.yul\":742:759   */\n      add\n        /* \"#utility.yul\":694:773   */\n      tag_14\n      jump\t// in\n    tag_30:\n        /* \"#utility.yul\":685:773   */\n      swap2\n      pop\n        /* \"#utility.yul\":501:779   */\n      pop\n        /* \"#utility.yul\":439:779   */\n      swap3\n      swap2\n      pop\n      pop\n      jump\t// out\n        /* \"#utility.yul\":785:1294   */\n    tag_6:\n        /* \"#utility.yul\":854:860   */\n      0x00\n        /* \"#utility.yul\":903:905   */\n      0x20\n        /* \"#utility.yul\":891:900   */\n      dup3\n        /* \"#utility.yul\":882:889   */\n      dup5\n        /* \"#utility.yul\":878:901   */\n      sub\n        /* \"#utility.yul\":874:906   */\n      slt\n        /* \"#utility.yul\":871:990   */\n      iszero\n      tag_32\n      jumpi\n        /* \"#utility.yul\":909:988   */\n      tag_33\n      tag_34\n      jump\t// in\n    tag_33:\n        /* \"#utility.yul\":871:990   */\n    tag_32:\n        /* \"#utility.yul\":1057:1058   */\n      0x00\n        /* \"#utility.yul\":1046:1055   */\n      dup3\n        /* \"#utility.yul\":1042:1059   */\n      add\n        /* \"#utility.yul\":1029:1060   */\n      calldataload\n        /* \"#utility.yul\":1087:1105   */\n      0xffffffffffffffff\n        /* \"#utility.yul\":1079:1085   */\n      dup2\n        /* \"#utility.yul\":1076:1106   */\n      gt\n        /* \"#utility.yul\":1073:1190   */\n      iszero\n      tag_35\n      jumpi\n        /* \"#utility.yul\":1109:1188   */\n      tag_36\n      tag_37\n      jump\t// in\n    tag_36:\n        /* \"#utility.yul\":1073:1190   */\n    tag_35:\n        /* \"#utility.yul\":1214:1277   */\n      tag_38\n        /* \"#utility.yul\":1269:1276   */\n      dup5\n        /* \"#utility.yul\":1260:1266   */\n      dup3\n        /* \"#utility.yul\":1249:1258   */\n      dup6\n        /* \"#utility.yul\":1245:1267   */\n      add\n        /* \"#utility.yul\":1214:1277   */\n      tag_25\n      jump\t// in\n    tag_38:\n        /* \"#utility.yul\":1204:1277   */\n      swap2\n      pop\n        /* \"#utility.yul\":1000:1287   */\n      pop\n        /* \"#utility.yul\":785:1294   */\n      swap3\n      swap2\n      pop\n      pop\n      jump\t// out\n        /* \"#utility.yul\":1300:1418   */\n    tag_39:\n        /* \"#utility.yul\":1387:1411   */\n      tag_41\n        /* \"#utility.yul\":1405:1410   */\n      dup2\n        /* \"#utility.yul\":1387:1411   */\n      tag_42\n      jump\t// in\n    tag_41:\n        /* \"#utility.yul\":1382:1385   */\n      dup3\n        /* \"#utility.yul\":1375:1412   */\n      mstore\n        /* \"#utility.yul\":1300:1418   */\n      pop\n      pop\n      jump\t// out\n        /* \"#utility.yul\":1424:1801   */\n    tag_43:\n        /* \"#utility.yul\":1530:1533   */\n      0x00\n        /* \"#utility.yul\":1558:1597   */\n      tag_45\n        /* \"#utility.yul\":1591:1596   */\n      dup3\n        /* \"#utility.yul\":1558:1597   */\n      tag_46\n      jump\t// in\n    tag_45:\n        /* \"#utility.yul\":1613:1702   */\n      tag_47\n        /* \"#utility.yul\":1695:1701   */\n      dup2\n        /* \"#utility.yul\":1690:1693   */\n      dup6\n        /* \"#utility.yul\":1613:1702   */\n      tag_48\n      jump\t// in\n    tag_47:\n        /* \"#utility.yul\":1606:1702   */\n      swap4\n      pop\n        /* \"#utility.yul\":1711:1763   */\n      tag_49\n        /* \"#utility.yul\":1756:1762   */\n      dup2\n        /* \"#utility.yul\":1751:1754   */\n      dup6\n        /* \"#utility.yul\":1744:1748   */\n      0x20\n        /* \"#utility.yul\":1737:1742   */\n      dup7\n        /* \"#utility.yul\":1733:1749   */\n      add\n        /* \"#utility.yul\":1711:1763   */\n      tag_50\n      jump\t// in\n    tag_49:\n        /* \"#utility.yul\":1788:1794   */\n      dup1\n        /* \"#utility.yul\":1783:1786   */\n      dup5\n        /* \"#utility.yul\":1779:1795   */\n      add\n        /* \"#utility.yul\":1772:1795   */\n      swap2\n      pop\n        /* \"#utility.yul\":1534:1801   */\n      pop\n        /* \"#utility.yul\":1424:1801   */\n      swap3\n      swap2\n      pop\n      pop\n      jump\t// out\n        /* \"#utility.yul\":1807:2082   */\n    tag_12:\n        /* \"#utility.yul\":1939:1942   */\n      0x00\n        /* \"#utility.yul\":1961:2056   */\n      tag_52\n        /* \"#utility.yul\":2052:2055   */\n      dup3\n        /* \"#utility.yul\":2043:2049   */\n      dup5\n        /* \"#utility.yul\":1961:2056   */\n      tag_43\n      jump\t// in\n    tag_52:\n        /* \"#utility.yul\":1954:2056   */\n      swap2\n      pop\n        /* \"#utility.yul\":2073:2076   */\n      dup2\n        /* \"#utility.yul\":2066:2076   */\n      swap1\n      pop\n        /* \"#utility.yul\":1807:2082   */\n      swap3\n      swap2\n      pop\n      pop\n      jump\t// out\n        /* \"#utility.yul\":2088:2310   */\n    tag_9:\n        /* \"#utility.yul\":2181:2185   */\n      0x00\n        /* \"#utility.yul\":2219:2221   */\n      0x20\n        /* \"#utility.yul\":2208:2217   */\n      dup3\n        /* \"#utility.yul\":2204:2222   */\n      add\n        /* \"#utility.yul\":2196:2222   */\n      swap1\n      pop\n        /* \"#utility.yul\":2232:2303   */\n      tag_54\n        /* \"#utility.yul\":2300:2301   */\n      0x00\n        /* \"#utility.yul\":2289:2298   */\n      dup4\n        /* \"#utility.yul\":2285:2302   */\n      add\n        /* \"#utility.yul\":2276:2282   */\n      dup5\n        /* \"#utility.yul\":2232:2303   */\n      tag_39\n      jump\t// in\n    tag_54:\n        /* \"#utility.yul\":2088:2310   */\n      swap3\n      swap2\n      pop\n      pop\n      jump\t// out\n        /* \"#utility.yul\":2316:2445   */\n    tag_19:\n        /* \"#utility.yul\":2350:2356   */\n      0x00\n        /* \"#utility.yul\":2377:2397   */\n      tag_56\n      tag_57\n      jump\t// in\n    tag_56:\n        /* \"#utility.yul\":2367:2397   */\n      swap1\n      pop\n        /* \"#utility.yul\":2406:2439   */\n      tag_58\n        /* \"#utility.yul\":2434:2438   */\n      dup3\n        /* \"#utility.yul\":2426:2432   */\n      dup3\n        /* \"#utility.yul\":2406:2439   */\n      tag_59\n      jump\t// in\n    tag_58:\n        /* \"#utility.yul\":2316:2445   */\n      swap2\n      swap1\n      pop\n      jump\t// out\n        /* \"#utility.yul\":2451:2526   */\n    tag_57:\n        /* \"#utility.yul\":2484:2490   */\n      0x00\n        /* \"#utility.yul\":2517:2519   */\n      0x40\n        /* \"#utility.yul\":2511:2520   */\n      mload\n        /* \"#utility.yul\":2501:2520   */\n      swap1\n      pop\n        /* \"#utility.yul\":2451:2526   */\n      swap1\n      jump\t// out\n        /* \"#utility.yul\":2532:2840   */\n    tag_18:\n        /* \"#utility.yul\":2594:2598   */\n      0x00\n        /* \"#utility.yul\":2684:2702   */\n      0xffffffffffffffff\n        /* \"#utility.yul\":2676:2682   */\n      dup3\n        /* \"#utility.yul\":2673:2703   */\n      gt\n        /* \"#utility.yul\":2670:2726   */\n      iszero\n      tag_62\n      jumpi\n        /* \"#utility.yul\":2706:2724   */\n      tag_63\n      tag_64\n      jump\t// in\n    tag_63:\n        /* \"#utility.yul\":2670:2726   */\n    tag_62:\n        /* \"#utility.yul\":2744:2773   */\n      tag_65\n        /* \"#utility.yul\":2766:2772   */\n      dup3\n        /* \"#utility.yul\":2744:2773   */\n      tag_66\n      jump\t// in\n    tag_65:\n        /* \"#utility.yul\":2736:2773   */\n      swap1\n      pop\n        /* \"#utility.yul\":2828:2832   */\n      0x20\n        /* \"#utility.yul\":2822:2826   */\n      dup2\n        /* \"#utility.yul\":2818:2833   */\n      add\n        /* \"#utility.yul\":2810:2833   */\n      swap1\n      pop\n        /* \"#utility.yul\":2532:2840   */\n      swap2\n      swap1\n      pop\n      jump\t// out\n        /* \"#utility.yul\":2846:2945   */\n    tag_46:\n        /* \"#utility.yul\":2898:2904   */\n      0x00\n        /* \"#utility.yul\":2932:2937   */\n      dup2\n        /* \"#utility.yul\":2926:2938   */\n      mload\n        /* \"#utility.yul\":2916:2938   */\n      swap1\n      pop\n        /* \"#utility.yul\":2846:2945   */\n      swap2\n      swap1\n      pop\n      jump\t// out\n        /* \"#utility.yul\":2951:3099   */\n    tag_48:\n        /* \"#utility.yul\":3053:3064   */\n      0x00\n        /* \"#utility.yul\":3090:3093   */\n      dup2\n        /* \"#utility.yul\":3075:3093   */\n      swap1\n      pop\n        /* \"#utility.yul\":2951:3099   */\n      swap3\n      swap2\n      pop\n      pop\n      jump\t// out\n        /* \"#utility.yul\":3105:3182   */\n    tag_42:\n        /* \"#utility.yul\":3142:3149   */\n      0x00\n        /* \"#utility.yul\":3171:3176   */\n      dup2\n        /* \"#utility.yul\":3160:3176   */\n      swap1\n      pop\n        /* \"#utility.yul\":3105:3182   */\n      swap2\n      swap1\n      pop\n      jump\t// out\n        /* \"#utility.yul\":3188:3342   */\n    tag_24:\n        /* \"#utility.yul\":3272:3278   */\n      dup3\n        /* \"#utility.yul\":3267:3270   */\n      dup2\n        /* \"#utility.yul\":3262:3265   */\n      dup4\n        /* \"#utility.yul\":3249:3279   */\n      calldatacopy\n        /* \"#utility.yul\":3334:3335   */\n      0x00\n        /* \"#utility.yul\":3325:3331   */\n      dup4\n        /* \"#utility.yul\":3320:3323   */\n      dup4\n        /* \"#utility.yul\":3316:3332   */\n      add\n        /* \"#utility.yul\":3309:3336   */\n      mstore\n        /* \"#utility.yul\":3188:3342   */\n      pop\n      pop\n      pop\n      jump\t// out\n        /* \"#utility.yul\":3348:3655   */\n    tag_50:\n        /* \"#utility.yul\":3416:3417   */\n      0x00\n        /* \"#utility.yul\":3426:3539   */\n    tag_72:\n        /* \"#utility.yul\":3440:3446   */\n      dup4\n        /* \"#utility.yul\":3437:3438   */\n      dup2\n        /* \"#utility.yul\":3434:3447   */\n      lt\n        /* \"#utility.yul\":3426:3539   */\n      iszero\n      tag_74\n      jumpi\n        /* \"#utility.yul\":3525:3526   */\n      dup1\n        /* \"#utility.yul\":3520:3523   */\n      dup3\n        /* \"#utility.yul\":3516:3527   */\n      add\n        /* \"#utility.yul\":3510:3528   */\n      mload\n        /* \"#utility.yul\":3506:3507   */\n      dup2\n        /* \"#utility.yul\":3501:3504   */\n      dup5\n        /* \"#utility.yul\":3497:3508   */\n      add\n        /* \"#utility.yul\":3490:3529   */\n      mstore\n        /* \"#utility.yul\":3462:3464   */\n      0x20\n        /* \"#utility.yul\":3459:3460   */\n      dup2\n        /* \"#utility.yul\":3455:3465   */\n      add\n        /* \"#utility.yul\":3450:3465   */\n      swap1\n      pop\n        /* \"#utility.yul\":3426:3539   */\n      jump(tag_72)\n    tag_74:\n        /* \"#utility.yul\":3557:3563   */\n      dup4\n        /* \"#utility.yul\":3554:3555   */\n      dup2\n        /* \"#utility.yul\":3551:3564   */\n      gt\n        /* \"#utility.yul\":3548:3649   */\n      iszero\n      tag_75\n      jumpi\n        /* \"#utility.yul\":3637:3638   */\n      0x00\n        /* \"#utility.yul\":3628:3634   */\n      dup5\n        /* \"#utility.yul\":3623:3626   */\n      dup5\n        /* \"#utility.yul\":3619:3635   */\n      add\n        /* \"#utility.yul\":3612:3639   */\n      mstore\n        /* \"#utility.yul\":3548:3649   */\n    tag_75:\n        /* \"#utility.yul\":3397:3655   */\n      pop\n        /* \"#utility.yul\":3348:3655   */\n      pop\n      pop\n      pop\n      jump\t// out\n        /* \"#utility.yul\":3661:3942   */\n    tag_59:\n        /* \"#utility.yul\":3744:3771   */\n      tag_77\n        /* \"#utility.yul\":3766:3770   */\n      dup3\n        /* \"#utility.yul\":3744:3771   */\n      tag_66\n      jump\t// in\n    tag_77:\n        /* \"#utility.yul\":3736:3742   */\n      dup2\n        /* \"#utility.yul\":3732:3772   */\n      add\n        /* \"#utility.yul\":3874:3880   */\n      dup2\n        /* \"#utility.yul\":3862:3872   */\n      dup2\n        /* \"#utility.yul\":3859:3881   */\n      lt\n        /* \"#utility.yul\":3838:3856   */\n      0xffffffffffffffff\n        /* \"#utility.yul\":3826:3836   */\n      dup3\n        /* \"#utility.yul\":3823:3857   */\n      gt\n        /* \"#utility.yul\":3820:3882   */\n      or\n        /* \"#utility.yul\":3817:3905   */\n      iszero\n      tag_78\n      jumpi\n        /* \"#utility.yul\":3885:3903   */\n      tag_79\n      tag_64\n      jump\t// in\n    tag_79:\n        /* \"#utility.yul\":3817:3905   */\n    tag_78:\n        /* \"#utility.yul\":3925:3935   */\n      dup1\n        /* \"#utility.yul\":3921:3923   */\n      0x40\n        /* \"#utility.yul\":3914:3936   */\n      mstore\n        /* \"#utility.yul\":3704:3942   */\n      pop\n        /* \"#utility.yul\":3661:3942   */\n      pop\n      pop\n      jump\t// out\n        /* \"#utility.yul\":3948:4128   */\n    tag_64:\n        /* \"#utility.yul\":3996:4073   */\n      0x4e487b7100000000000000000000000000000000000000000000000000000000\n        /* \"#utility.yul\":3993:3994   */\n      0x00\n        /* \"#utility.yul\":3986:4074   */\n      mstore\n        /* \"#utility.yul\":4093:4097   */\n      0x41\n        /* \"#utility.yul\":4090:4091   */\n      0x04\n        /* \"#utility.yul\":4083:4098   */\n      mstore\n        /* \"#utility.yul\":4117:4121   */\n      0x24\n        /* \"#utility.yul\":4114:4115   */\n      0x00\n        /* \"#utility.yul\":4107:4122   */\n      revert\n        /* \"#utility.yul\":4134:4251   */\n    tag_29:\n        /* \"#utility.yul\":4243:4244   */\n      0x00\n        /* \"#utility.yul\":4240:4241   */\n      dup1\n        /* \"#utility.yul\":4233:4245   */\n      revert\n        /* \"#utility.yul\":4257:4374   */\n    tag_22:\n        /* \"#utility.yul\":4366:4367   */\n      0x00\n        /* \"#utility.yul\":4363:4364   */\n      dup1\n        /* \"#utility.yul\":4356:4368   */\n      revert\n        /* \"#utility.yul\":4380:4497   */\n    tag_37:\n        /* \"#utility.yul\":4489:4490   */\n      0x00\n        /* \"#utility.yul\":4486:4487   */\n      dup1\n        /* \"#utility.yul\":4479:4491   */\n      revert\n        /* \"#utility.yul\":4503:4620   */\n    tag_34:\n        /* \"#utility.yul\":4612:4613   */\n      0x00\n        /* \"#utility.yul\":4609:4610   */\n      dup1\n        /* \"#utility.yul\":4602:4614   */\n      revert\n        /* \"#utility.yul\":4626:4728   */\n    tag_66:\n        /* \"#utility.yul\":4667:4673   */\n      0x00\n        /* \"#utility.yul\":4718:4720   */\n      0x1f\n        /* \"#utility.yul\":4714:4721   */\n      not\n        /* \"#utility.yul\":4709:4711   */\n      0x1f\n        /* \"#utility.yul\":4702:4707   */\n      dup4\n        /* \"#utility.yul\":4698:4712   */\n      add\n        /* \"#utility.yul\":4694:4722   */\n      and\n        /* \"#utility.yul\":4684:4722   */\n      swap1\n      pop\n        /* \"#utility.yul\":4626:4728   */\n      swap2\n      swap1\n      pop\n      jump\t// out\n\n    auxdata: 0xa264697066735822122041f8220255b42a6a333708810a0d92d8805168251dc9d4443210f49a720f9e4664736f6c63430008070033\n}\n",
				"bytecode": {
					"linkReferences": {},
					"object": "60806040527378731d3ca6b7e34ac0f824c42a7cc18a495cabab600160006101000a81548173ffffffffffffffffffffffffffffffffffffffff021916908373ffffffffffffffffffffffffffffffffffffffff16021790555034801561006557600080fd5b50600073617f2e2fd72fd9d5503197092ac168c91465e7f2905060007317f6ad8ef982297579c203069c1dbffe4348c37290506040518060800160405280600360048111156100b7576100b6610644565b5b81526020016040518060400160405280600981526020017f496e766573746f72310000000000000000000000000000000000000000000000815250815260200161013b6040518060400160405280600481526020017f33343132000000000000000000000000000000000000000000000000000000008152506104ae60201b60201c565b81526020016000815250600080600160009054906101000a900473ffffffffffffffffffffffffffffffffffffffff1673ffffffffffffffffffffffffffffffffffffffff1673ffffffffffffffffffffffffffffffffffffffff16815260200190815260200160002060008201518160000160006101000a81548160ff021916908360048111156101d0576101cf610644565b5b021790555060208201518160010190805190602001906101f19291906104de565b50604082015181600201556060820151816003015590505060405180608001604052806003600481111561022857610227610644565b5b81526020016040518060400160405280600981526020017f496e766573746f7231000000000000000000000000000000000000000000000081525081526020016102ac6040518060400160405280600481526020017f31343233000000000000000000000000000000000000000000000000000000008152506104ae60201b60201c565b815260200160008152506000808473ffffffffffffffffffffffffffffffffffffffff1673ffffffffffffffffffffffffffffffffffffffff16815260200190815260200160002060008201518160000160006101000a81548160ff0219169083600481111561031f5761031e610644565b5b021790555060208201518160010190805190602001906103409291906104de565b50604082015181600201556060820151816003015590505060405180608001604052806003600481111561037757610376610644565b5b81526020016040518060400160405280600b81526020017f4265737420667269656e6400000000000000000000000000000000000000000081525081526020016103fb6040518060400160405280600481526020017f32333134000000000000000000000000000000000000000000000000000000008152506104ae60201b60201c565b815260200160008152506000808373ffffffffffffffffffffffffffffffffffffffff1673ffffffffffffffffffffffffffffffffffffffff16815260200190815260200160002060008201518160000160006101000a81548160ff0219169083600481111561046e5761046d610644565b5b0217905550602082015181600101908051906020019061048f9291906104de565b50604082015181600201556060820151816003015590505050506106a2565b6000816040516020016104c191906105b2565b604051602081830303815290604052805190602001209050919050565b8280546104ea90610612565b90600052602060002090601f01602090048101928261050c5760008555610553565b82601f1061052557805160ff1916838001178555610553565b82800160010185558215610553579182015b82811115610552578251825591602001919060010190610537565b5b5090506105609190610564565b5090565b5b8082111561057d576000816000905550600101610565565b5090565b600061058c826105c9565b61059681856105d4565b93506105a68185602086016105df565b80840191505092915050565b60006105be8284610581565b915081905092915050565b600081519050919050565b600081905092915050565b60005b838110156105fd5780820151818401526020810190506105e2565b8381111561060c576000848401525b50505050565b6000600282049050600182168061062a57607f821691505b6020821081141561063e5761063d610673565b5b50919050565b7f4e487b7100000000000000000000000000000000000000000000000000000000600052602160045260246000fd5b7f4e487b7100000000000000000000000000000000000000000000000000000000600052602260045260246000fd5b61032e806106b16000396000f3fe608060405234801561001057600080fd5b506004361061002b5760003560e01c8063845952a814610030575b600080fd5b61004a60048036038101906100459190610100565b610060565b60405161005791906101a0565b60405180910390f35b6000816040516020016100739190610189565b604051602081830303815290604052805190602001209050919050565b60006100a361009e846101e0565b6101bb565b9050828152602081018484840111156100bf576100be6102d8565b5b6100ca848285610231565b509392505050565b600082601f8301126100e7576100e66102d3565b5b81356100f7848260208601610090565b91505092915050565b600060208284031215610116576101156102e2565b5b600082013567ffffffffffffffff811115610134576101336102dd565b5b610140848285016100d2565b91505092915050565b61015281610227565b82525050565b600061016382610211565b61016d818561021c565b935061017d818560208601610240565b80840191505092915050565b60006101958284610158565b915081905092915050565b60006020820190506101b56000830184610149565b92915050565b60006101c56101d6565b90506101d18282610273565b919050565b6000604051905090565b600067ffffffffffffffff8211156101fb576101fa6102a4565b5b610204826102e7565b9050602081019050919050565b600081519050919050565b600081905092915050565b6000819050919050565b82818337600083830152505050565b60005b8381101561025e578082015181840152602081019050610243565b8381111561026d576000848401525b50505050565b61027c826102e7565b810181811067ffffffffffffffff8211171561029b5761029a6102a4565b5b80604052505050565b7f4e487b7100000000000000000000000000000000000000000000000000000000600052604160045260246000fd5b600080fd5b600080fd5b600080fd5b600080fd5b6000601f19601f830116905091905056fea264697066735822122041f8220255b42a6a333708810a0d92d8805168251dc9d4443210f49a720f9e4664736f6c63430008070033",
					"opcodes": "PUSH1 0x80 PUSH1 0x40 MSTORE PUSH20 0x78731D3CA6B7E34AC0F824C42A7CC18A495CABAB PUSH1 0x1 PUSH1 0x0 PUSH2 0x100 EXP DUP2 SLOAD DUP2 PUSH20 0xFFFFFFFFFFFFFFFFFFFFFFFFFFFFFFFFFFFFFFFF MUL NOT AND SWAP1 DUP4 PUSH20 0xFFFFFFFFFFFFFFFFFFFFFFFFFFFFFFFFFFFFFFFF AND MUL OR SWAP1 SSTORE POP CALLVALUE DUP1 ISZERO PUSH2 0x65 JUMPI PUSH1 0x0 DUP1 REVERT JUMPDEST POP PUSH1 0x0 PUSH20 0x617F2E2FD72FD9D5503197092AC168C91465E7F2 SWAP1 POP PUSH1 0x0 PUSH20 0x17F6AD8EF982297579C203069C1DBFFE4348C372 SWAP1 POP PUSH1 0x40 MLOAD DUP1 PUSH1 0x80 ADD PUSH1 0x40 MSTORE DUP1 PUSH1 0x3 PUSH1 0x4 DUP2 GT ISZERO PUSH2 0xB7 JUMPI PUSH2 0xB6 PUSH2 0x644 JUMP JUMPDEST JUMPDEST DUP2 MSTORE PUSH1 0x20 ADD PUSH1 0x40 MLOAD DUP1 PUSH1 0x40 ADD PUSH1 0x40 MSTORE DUP1 PUSH1 0x9 DUP2 MSTORE PUSH1 0x20 ADD PUSH32 0x496E766573746F72310000000000000000000000000000000000000000000000 DUP2 MSTORE POP DUP2 MSTORE PUSH1 0x20 ADD PUSH2 0x13B PUSH1 0x40 MLOAD DUP1 PUSH1 0x40 ADD PUSH1 0x40 MSTORE DUP1 PUSH1 0x4 DUP2 MSTORE PUSH1 0x20 ADD PUSH32 0x3334313200000000000000000000000000000000000000000000000000000000 DUP2 MSTORE POP PUSH2 0x4AE PUSH1 0x20 SHL PUSH1 0x20 SHR JUMP JUMPDEST DUP2 MSTORE PUSH1 0x20 ADD PUSH1 0x0 DUP2 MSTORE POP PUSH1 0x0 DUP1 PUSH1 0x1 PUSH1 0x0 SWAP1 SLOAD SWAP1 PUSH2 0x100 EXP SWAP1 DIV PUSH20 0xFFFFFFFFFFFFFFFFFFFFFFFFFFFFFFFFFFFFFFFF AND PUSH20 0xFFFFFFFFFFFFFFFFFFFFFFFFFFFFFFFFFFFFFFFF AND PUSH20 0xFFFFFFFFFFFFFFFFFFFFFFFFFFFFFFFFFFFFFFFF AND DUP2 MSTORE PUSH1 0x20 ADD SWAP1 DUP2 MSTORE PUSH1 0x20 ADD PUSH1 0x0 KECCAK256 PUSH1 0x0 DUP3 ADD MLOAD DUP2 PUSH1 0x0 ADD PUSH1 0x0 PUSH2 0x100 EXP DUP2 SLOAD DUP2 PUSH1 0xFF MUL NOT AND SWAP1 DUP4 PUSH1 0x4 DUP2 GT ISZERO PUSH2 0x1D0 JUMPI PUSH2 0x1CF PUSH2 0x644 JUMP JUMPDEST JUMPDEST MUL OR SWAP1 SSTORE POP PUSH1 0x20 DUP3 ADD MLOAD DUP2 PUSH1 0x1 ADD SWAP1 DUP1 MLOAD SWAP1 PUSH1 0x20 ADD SWAP1 PUSH2 0x1F1 SWAP3 SWAP2 SWAP1 PUSH2 0x4DE JUMP JUMPDEST POP PUSH1 0x40 DUP3 ADD MLOAD DUP2 PUSH1 0x2 ADD SSTORE PUSH1 0x60 DUP3 ADD MLOAD DUP2 PUSH1 0x3 ADD SSTORE SWAP1 POP POP PUSH1 0x40 MLOAD DUP1 PUSH1 0x80 ADD PUSH1 0x40 MSTORE DUP1 PUSH1 0x3 PUSH1 0x4 DUP2 GT ISZERO PUSH2 0x228 JUMPI PUSH2 0x227 PUSH2 0x644 JUMP JUMPDEST JUMPDEST DUP2 MSTORE PUSH1 0x20 ADD PUSH1 0x40 MLOAD DUP1 PUSH1 0x40 ADD PUSH1 0x40 MSTORE DUP1 PUSH1 0x9 DUP2 MSTORE PUSH1 0x20 ADD PUSH32 0x496E766573746F72310000000000000000000000000000000000000000000000 DUP2 MSTORE POP DUP2 MSTORE PUSH1 0x20 ADD PUSH2 0x2AC PUSH1 0x40 MLOAD DUP1 PUSH1 0x40 ADD PUSH1 0x40 MSTORE DUP1 PUSH1 0x4 DUP2 MSTORE PUSH1 0x20 ADD PUSH32 0x3134323300000000000000000000000000000000000000000000000000000000 DUP2 MSTORE POP PUSH2 0x4AE PUSH1 0x20 SHL PUSH1 0x20 SHR JUMP JUMPDEST DUP2 MSTORE PUSH1 0x20 ADD PUSH1 0x0 DUP2 MSTORE POP PUSH1 0x0 DUP1 DUP5 PUSH20 0xFFFFFFFFFFFFFFFFFFFFFFFFFFFFFFFFFFFFFFFF AND PUSH20 0xFFFFFFFFFFFFFFFFFFFFFFFFFFFFFFFFFFFFFFFF AND DUP2 MSTORE PUSH1 0x20 ADD SWAP1 DUP2 MSTORE PUSH1 0x20 ADD PUSH1 0x0 KECCAK256 PUSH1 0x0 DUP3 ADD MLOAD DUP2 PUSH1 0x0 ADD PUSH1 0x0 PUSH2 0x100 EXP DUP2 SLOAD DUP2 PUSH1 0xFF MUL NOT AND SWAP1 DUP4 PUSH1 0x4 DUP2 GT ISZERO PUSH2 0x31F JUMPI PUSH2 0x31E PUSH2 0x644 JUMP JUMPDEST JUMPDEST MUL OR SWAP1 SSTORE POP PUSH1 0x20 DUP3 ADD MLOAD DUP2 PUSH1 0x1 ADD SWAP1 DUP1 MLOAD SWAP1 PUSH1 0x20 ADD SWAP1 PUSH2 0x340 SWAP3 SWAP2 SWAP1 PUSH2 0x4DE JUMP JUMPDEST POP PUSH1 0x40 DUP3 ADD MLOAD DUP2 PUSH1 0x2 ADD SSTORE PUSH1 0x60 DUP3 ADD MLOAD DUP2 PUSH1 0x3 ADD SSTORE SWAP1 POP POP PUSH1 0x40 MLOAD DUP1 PUSH1 0x80 ADD PUSH1 0x40 MSTORE DUP1 PUSH1 0x3 PUSH1 0x4 DUP2 GT ISZERO PUSH2 0x377 JUMPI PUSH2 0x376 PUSH2 0x644 JUMP JUMPDEST JUMPDEST DUP2 MSTORE PUSH1 0x20 ADD PUSH1 0x40 MLOAD DUP1 PUSH1 0x40 ADD PUSH1 0x40 MSTORE DUP1 PUSH1 0xB DUP2 MSTORE PUSH1 0x20 ADD PUSH32 0x4265737420667269656E64000000000000000000000000000000000000000000 DUP2 MSTORE POP DUP2 MSTORE PUSH1 0x20 ADD PUSH2 0x3FB PUSH1 0x40 MLOAD DUP1 PUSH1 0x40 ADD PUSH1 0x40 MSTORE DUP1 PUSH1 0x4 DUP2 MSTORE PUSH1 0x20 ADD PUSH32 0x3233313400000000000000000000000000000000000000000000000000000000 DUP2 MSTORE POP PUSH2 0x4AE PUSH1 0x20 SHL PUSH1 0x20 SHR JUMP JUMPDEST DUP2 MSTORE PUSH1 0x20 ADD PUSH1 0x0 DUP2 MSTORE POP PUSH1 0x0 DUP1 DUP4 PUSH20 0xFFFFFFFFFFFFFFFFFFFFFFFFFFFFFFFFFFFFFFFF AND PUSH20 0xFFFFFFFFFFFFFFFFFFFFFFFFFFFFFFFFFFFFFFFF AND DUP2 MSTORE PUSH1 0x20 ADD SWAP1 DUP2 MSTORE PUSH1 0x20 ADD PUSH1 0x0 KECCAK256 PUSH1 0x0 DUP3 ADD MLOAD DUP2 PUSH1 0x0 ADD PUSH1 0x0 PUSH2 0x100 EXP DUP2 SLOAD DUP2 PUSH1 0xFF MUL NOT AND SWAP1 DUP4 PUSH1 0x4 DUP2 GT ISZERO PUSH2 0x46E JUMPI PUSH2 0x46D PUSH2 0x644 JUMP JUMPDEST JUMPDEST MUL OR SWAP1 SSTORE POP PUSH1 0x20 DUP3 ADD MLOAD DUP2 PUSH1 0x1 ADD SWAP1 DUP1 MLOAD SWAP1 PUSH1 0x20 ADD SWAP1 PUSH2 0x48F SWAP3 SWAP2 SWAP1 PUSH2 0x4DE JUMP JUMPDEST POP PUSH1 0x40 DUP3 ADD MLOAD DUP2 PUSH1 0x2 ADD SSTORE PUSH1 0x60 DUP3 ADD MLOAD DUP2 PUSH1 0x3 ADD SSTORE SWAP1 POP POP POP POP PUSH2 0x6A2 JUMP JUMPDEST PUSH1 0x0 DUP2 PUSH1 0x40 MLOAD PUSH1 0x20 ADD PUSH2 0x4C1 SWAP2 SWAP1 PUSH2 0x5B2 JUMP JUMPDEST PUSH1 0x40 MLOAD PUSH1 0x20 DUP2 DUP4 SUB SUB DUP2 MSTORE SWAP1 PUSH1 0x40 MSTORE DUP1 MLOAD SWAP1 PUSH1 0x20 ADD KECCAK256 SWAP1 POP SWAP2 SWAP1 POP JUMP JUMPDEST DUP3 DUP1 SLOAD PUSH2 0x4EA SWAP1 PUSH2 0x612 JUMP JUMPDEST SWAP1 PUSH1 0x0 MSTORE PUSH1 0x20 PUSH1 0x0 KECCAK256 SWAP1 PUSH1 0x1F ADD PUSH1 0x20 SWAP1 DIV DUP2 ADD SWAP3 DUP3 PUSH2 0x50C JUMPI PUSH1 0x0 DUP6 SSTORE PUSH2 0x553 JUMP JUMPDEST DUP3 PUSH1 0x1F LT PUSH2 0x525 JUMPI DUP1 MLOAD PUSH1 0xFF NOT AND DUP4 DUP1 ADD OR DUP6 SSTORE PUSH2 0x553 JUMP JUMPDEST DUP3 DUP1 ADD PUSH1 0x1 ADD DUP6 SSTORE DUP3 ISZERO PUSH2 0x553 JUMPI SWAP2 DUP3 ADD JUMPDEST DUP3 DUP2 GT ISZERO PUSH2 0x552 JUMPI DUP3 MLOAD DUP3 SSTORE SWAP2 PUSH1 0x20 ADD SWAP2 SWAP1 PUSH1 0x1 ADD SWAP1 PUSH2 0x537 JUMP JUMPDEST JUMPDEST POP SWAP1 POP PUSH2 0x560 SWAP2 SWAP1 PUSH2 0x564 JUMP JUMPDEST POP SWAP1 JUMP JUMPDEST JUMPDEST DUP1 DUP3 GT ISZERO PUSH2 0x57D JUMPI PUSH1 0x0 DUP2 PUSH1 0x0 SWAP1 SSTORE POP PUSH1 0x1 ADD PUSH2 0x565 JUMP JUMPDEST POP SWAP1 JUMP JUMPDEST PUSH1 0x0 PUSH2 0x58C DUP3 PUSH2 0x5C9 JUMP JUMPDEST PUSH2 0x596 DUP2 DUP6 PUSH2 0x5D4 JUMP JUMPDEST SWAP4 POP PUSH2 0x5A6 DUP2 DUP6 PUSH1 0x20 DUP7 ADD PUSH2 0x5DF JUMP JUMPDEST DUP1 DUP5 ADD SWAP2 POP POP SWAP3 SWAP2 POP POP JUMP JUMPDEST PUSH1 0x0 PUSH2 0x5BE DUP3 DUP5 PUSH2 0x581 JUMP JUMPDEST SWAP2 POP DUP2 SWAP1 POP SWAP3 SWAP2 POP POP JUMP JUMPDEST PUSH1 0x0 DUP2 MLOAD SWAP1 POP SWAP2 SWAP1 POP JUMP JUMPDEST PUSH1 0x0 DUP2 SWAP1 POP SWAP3 SWAP2 POP POP JUMP JUMPDEST PUSH1 0x0 JUMPDEST DUP4 DUP2 LT ISZERO PUSH2 0x5FD JUMPI DUP1 DUP3 ADD MLOAD DUP2 DUP5 ADD MSTORE PUSH1 0x20 DUP2 ADD SWAP1 POP PUSH2 0x5E2 JUMP JUMPDEST DUP4 DUP2 GT ISZERO PUSH2 0x60C JUMPI PUSH1 0x0 DUP5 DUP5 ADD MSTORE JUMPDEST POP POP POP POP JUMP JUMPDEST PUSH1 0x0 PUSH1 0x2 DUP3 DIV SWAP1 POP PUSH1 0x1 DUP3 AND DUP1 PUSH2 0x62A JUMPI PUSH1 0x7F DUP3 AND SWAP2 POP JUMPDEST PUSH1 0x20 DUP3 LT DUP2 EQ ISZERO PUSH2 0x63E JUMPI PUSH2 0x63D PUSH2 0x673 JUMP JUMPDEST JUMPDEST POP SWAP2 SWAP1 POP JUMP JUMPDEST PUSH32 0x4E487B7100000000000000000000000000000000000000000000000000000000 PUSH1 0x0 MSTORE PUSH1 0x21 PUSH1 0x4 MSTORE PUSH1 0x24 PUSH1 0x0 REVERT JUMPDEST PUSH32 0x4E487B7100000000000000000000000000000000000000000000000000000000 PUSH1 0x0 MSTORE PUSH1 0x22 PUSH1 0x4 MSTORE PUSH1 0x24 PUSH1 0x0 REVERT JUMPDEST PUSH2 0x32E DUP1 PUSH2 0x6B1 PUSH1 0x0 CODECOPY PUSH1 0x0 RETURN INVALID PUSH1 0x80 PUSH1 0x40 MSTORE CALLVALUE DUP1 ISZERO PUSH2 0x10 JUMPI PUSH1 0x0 DUP1 REVERT JUMPDEST POP PUSH1 0x4 CALLDATASIZE LT PUSH2 0x2B JUMPI PUSH1 0x0 CALLDATALOAD PUSH1 0xE0 SHR DUP1 PUSH4 0x845952A8 EQ PUSH2 0x30 JUMPI JUMPDEST PUSH1 0x0 DUP1 REVERT JUMPDEST PUSH2 0x4A PUSH1 0x4 DUP1 CALLDATASIZE SUB DUP2 ADD SWAP1 PUSH2 0x45 SWAP2 SWAP1 PUSH2 0x100 JUMP JUMPDEST PUSH2 0x60 JUMP JUMPDEST PUSH1 0x40 MLOAD PUSH2 0x57 SWAP2 SWAP1 PUSH2 0x1A0 JUMP JUMPDEST PUSH1 0x40 MLOAD DUP1 SWAP2 SUB SWAP1 RETURN JUMPDEST PUSH1 0x0 DUP2 PUSH1 0x40 MLOAD PUSH1 0x20 ADD PUSH2 0x73 SWAP2 SWAP1 PUSH2 0x189 JUMP JUMPDEST PUSH1 0x40 MLOAD PUSH1 0x20 DUP2 DUP4 SUB SUB DUP2 MSTORE SWAP1 PUSH1 0x40 MSTORE DUP1 MLOAD SWAP1 PUSH1 0x20 ADD KECCAK256 SWAP1 POP SWAP2 SWAP1 POP JUMP JUMPDEST PUSH1 0x0 PUSH2 0xA3 PUSH2 0x9E DUP5 PUSH2 0x1E0 JUMP JUMPDEST PUSH2 0x1BB JUMP JUMPDEST SWAP1 POP DUP3 DUP2 MSTORE PUSH1 0x20 DUP2 ADD DUP5 DUP5 DUP5 ADD GT ISZERO PUSH2 0xBF JUMPI PUSH2 0xBE PUSH2 0x2D8 JUMP JUMPDEST JUMPDEST PUSH2 0xCA DUP5 DUP3 DUP6 PUSH2 0x231 JUMP JUMPDEST POP SWAP4 SWAP3 POP POP POP JUMP JUMPDEST PUSH1 0x0 DUP3 PUSH1 0x1F DUP4 ADD SLT PUSH2 0xE7 JUMPI PUSH2 0xE6 PUSH2 0x2D3 JUMP JUMPDEST JUMPDEST DUP2 CALLDATALOAD PUSH2 0xF7 DUP5 DUP3 PUSH1 0x20 DUP7 ADD PUSH2 0x90 JUMP JUMPDEST SWAP2 POP POP SWAP3 SWAP2 POP POP JUMP JUMPDEST PUSH1 0x0 PUSH1 0x20 DUP3 DUP5 SUB SLT ISZERO PUSH2 0x116 JUMPI PUSH2 0x115 PUSH2 0x2E2 JUMP JUMPDEST JUMPDEST PUSH1 0x0 DUP3 ADD CALLDATALOAD PUSH8 0xFFFFFFFFFFFFFFFF DUP2 GT ISZERO PUSH2 0x134 JUMPI PUSH2 0x133 PUSH2 0x2DD JUMP JUMPDEST JUMPDEST PUSH2 0x140 DUP5 DUP3 DUP6 ADD PUSH2 0xD2 JUMP JUMPDEST SWAP2 POP POP SWAP3 SWAP2 POP POP JUMP JUMPDEST PUSH2 0x152 DUP2 PUSH2 0x227 JUMP JUMPDEST DUP3 MSTORE POP POP JUMP JUMPDEST PUSH1 0x0 PUSH2 0x163 DUP3 PUSH2 0x211 JUMP JUMPDEST PUSH2 0x16D DUP2 DUP6 PUSH2 0x21C JUMP JUMPDEST SWAP4 POP PUSH2 0x17D DUP2 DUP6 PUSH1 0x20 DUP7 ADD PUSH2 0x240 JUMP JUMPDEST DUP1 DUP5 ADD SWAP2 POP POP SWAP3 SWAP2 POP POP JUMP JUMPDEST PUSH1 0x0 PUSH2 0x195 DUP3 DUP5 PUSH2 0x158 JUMP JUMPDEST SWAP2 POP DUP2 SWAP1 POP SWAP3 SWAP2 POP POP JUMP JUMPDEST PUSH1 0x0 PUSH1 0x20 DUP3 ADD SWAP1 POP PUSH2 0x1B5 PUSH1 0x0 DUP4 ADD DUP5 PUSH2 0x149 JUMP JUMPDEST SWAP3 SWAP2 POP POP JUMP JUMPDEST PUSH1 0x0 PUSH2 0x1C5 PUSH2 0x1D6 JUMP JUMPDEST SWAP1 POP PUSH2 0x1D1 DUP3 DUP3 PUSH2 0x273 JUMP JUMPDEST SWAP2 SWAP1 POP JUMP JUMPDEST PUSH1 0x0 PUSH1 0x40 MLOAD SWAP1 POP SWAP1 JUMP JUMPDEST PUSH1 0x0 PUSH8 0xFFFFFFFFFFFFFFFF DUP3 GT ISZERO PUSH2 0x1FB JUMPI PUSH2 0x1FA PUSH2 0x2A4 JUMP JUMPDEST JUMPDEST PUSH2 0x204 DUP3 PUSH2 0x2E7 JUMP JUMPDEST SWAP1 POP PUSH1 0x20 DUP2 ADD SWAP1 POP SWAP2 SWAP1 POP JUMP JUMPDEST PUSH1 0x0 DUP2 MLOAD SWAP1 POP SWAP2 SWAP1 POP JUMP JUMPDEST PUSH1 0x0 DUP2 SWAP1 POP SWAP3 SWAP2 POP POP JUMP JUMPDEST PUSH1 0x0 DUP2 SWAP1 POP SWAP2 SWAP1 POP JUMP JUMPDEST DUP3 DUP2 DUP4 CALLDATACOPY PUSH1 0x0 DUP4 DUP4 ADD MSTORE POP POP POP JUMP JUMPDEST PUSH1 0x0 JUMPDEST DUP4 DUP2 LT ISZERO PUSH2 0x25E JUMPI DUP1 DUP3 ADD MLOAD DUP2 DUP5 ADD MSTORE PUSH1 0x20 DUP2 ADD SWAP1 POP PUSH2 0x243 JUMP JUMPDEST DUP4 DUP2 GT ISZERO PUSH2 0x26D JUMPI PUSH1 0x0 DUP5 DUP5 ADD MSTORE JUMPDEST POP POP POP POP JUMP JUMPDEST PUSH2 0x27C DUP3 PUSH2 0x2E7 JUMP JUMPDEST DUP2 ADD DUP2 DUP2 LT PUSH8 0xFFFFFFFFFFFFFFFF DUP3 GT OR ISZERO PUSH2 0x29B JUMPI PUSH2 0x29A PUSH2 0x2A4 JUMP JUMPDEST JUMPDEST DUP1 PUSH1 0x40 MSTORE POP POP POP JUMP JUMPDEST PUSH32 0x4E487B7100000000000000000000000000000000000000000000000000000000 PUSH1 0x0 MSTORE PUSH1 0x41 PUSH1 0x4 MSTORE PUSH1 0x24 PUSH1 0x0 REVERT JUMPDEST PUSH1 0x0 DUP1 REVERT JUMPDEST PUSH1 0x0 DUP1 REVERT JUMPDEST PUSH1 0x0 DUP1 REVERT JUMPDEST PUSH1 0x0 DUP1 REVERT JUMPDEST PUSH1 0x0 PUSH1 0x1F NOT PUSH1 0x1F DUP4 ADD AND SWAP1 POP SWAP2 SWAP1 POP JUMP INVALID LOG2 PUSH5 0x6970667358 0x22 SLT KECCAK256 COINBASE 0xF8 0x22 MUL SSTORE 0xB4 0x2A PUSH11 0x333708810A0D92D8805168 0x25 SAR 0xC9 0xD4 DIFFICULTY ORIGIN LT DELEGATECALL SWAP11 PUSH19 0xF9E4664736F6C634300080700330000000000 "
				},
				"gasEstimates": {
					"creation": {
						"codeDepositCost": "162800",
						"executionCost": "infinite",
						"totalCost": "infinite"
					},
					"external": {
						"get_hash(string)": "infinite"
					}
				},
				"methodIdentifiers": {
					"get_hash(string)": "845952a8"
				}
			},
			"storageLayout": {
				"storage": [
					{
						"astId": 890,
						"contract": "Documents/GitHub/contract-token-cryptoMonster/backend/components/PhaseSeed.sol:PhaseSeed",
						"label": "structUser_",
						"offset": 0,
						"slot": "0",
						"type": "t_mapping(t_address,t_struct(structUser)885_storage)"
					},
					{
						"astId": 387,
						"contract": "Documents/GitHub/contract-token-cryptoMonster/backend/components/PhaseSeed.sol:PhaseSeed",
						"label": "investorFirstAdr",
						"offset": 0,
						"slot": "1",
						"type": "t_address"
					}
				],
				"types": {
					"t_address": {
						"encoding": "inplace",
						"label": "address",
						"numberOfBytes": "20"
					},
					"t_bytes32": {
						"encoding": "inplace",
						"label": "bytes32",
						"numberOfBytes": "32"
					},
					"t_enum(Role)875": {
						"encoding": "inplace",
						"label": "enum structures.Role",
						"numberOfBytes": "1"
					},
					"t_mapping(t_address,t_struct(structUser)885_storage)": {
						"encoding": "mapping",
						"key": "t_address",
						"label": "mapping(address => struct structures.structUser)",
						"numberOfBytes": "32",
						"value": "t_struct(structUser)885_storage"
					},
					"t_string_storage": {
						"encoding": "bytes",
						"label": "string",
						"numberOfBytes": "32"
					},
					"t_struct(structUser)885_storage": {
						"encoding": "inplace",
						"label": "struct structures.structUser",
						"members": [
							{
								"astId": 878,
								"contract": "Documents/GitHub/contract-token-cryptoMonster/backend/components/PhaseSeed.sol:PhaseSeed",
								"label": "role",
								"offset": 0,
								"slot": "0",
								"type": "t_enum(Role)875"
							},
							{
								"astId": 880,
								"contract": "Documents/GitHub/contract-token-cryptoMonster/backend/components/PhaseSeed.sol:PhaseSeed",
								"label": "login",
								"offset": 0,
								"slot": "1",
								"type": "t_string_storage"
							},
							{
								"astId": 882,
								"contract": "Documents/GitHub/contract-token-cryptoMonster/backend/components/PhaseSeed.sol:PhaseSeed",
								"label": "password",
								"offset": 0,
								"slot": "2",
								"type": "t_bytes32"
							},
							{
								"astId": 884,
								"contract": "Documents/GitHub/contract-token-cryptoMonster/backend/components/PhaseSeed.sol:PhaseSeed",
								"label": "balances",
								"offset": 0,
								"slot": "3",
								"type": "t_uint256"
							}
						],
						"numberOfBytes": "128"
					},
					"t_uint256": {
						"encoding": "inplace",
						"label": "uint256",
						"numberOfBytes": "32"
					}
				}
			},
			"userdoc": {
				"kind": "user",
				"methods": {},
				"version": 1
			}
		}
	}
}