{
	"Documents/GitHub/contract-token-cryptoMonster/backend/components/PhasePrivate.sol": {
		"PhasePrivate": {
			"abi": [
				{
					"inputs": [
						{
							"internalType": "bool",
							"name": "_changeStatus",
							"type": "bool"
						}
					],
					"name": "acceptApplication",
					"outputs": [],
					"stateMutability": "nonpayable",
					"type": "function"
				},
				{
					"inputs": [
						{
							"internalType": "string",
							"name": "_name",
							"type": "string"
						},
						{
							"internalType": "string",
							"name": "_contactForCommunication",
							"type": "string"
						},
						{
							"internalType": "address",
							"name": "_userAdr",
							"type": "address"
						}
					],
					"name": "application",
					"outputs": [],
					"stateMutability": "nonpayable",
					"type": "function"
				},
				{
					"inputs": [
						{
							"internalType": "string",
							"name": "_hash",
							"type": "string"
						}
					],
					"name": "get_keccak256",
					"outputs": [
						{
							"internalType": "bytes32",
							"name": "",
							"type": "bytes32"
						}
					],
					"stateMutability": "pure",
					"type": "function"
				}
			],
			"devdoc": {
				"kind": "dev",
				"methods": {},
				"version": 1
			},
			"evm": {
				"assembly": "    /* \"Documents/GitHub/contract-token-cryptoMonster/backend/components/PhasePrivate.sol\":96:902  contract PhasePrivate is Main {\r... */\n  mstore(0x40, 0x80)\n  callvalue\n  dup1\n  iszero\n  tag_1\n  jumpi\n  0x00\n  dup1\n  revert\ntag_1:\n  pop\n  dataSize(sub_0)\n  dup1\n  dataOffset(sub_0)\n  0x00\n  codecopy\n  0x00\n  return\nstop\n\nsub_0: assembly {\n        /* \"Documents/GitHub/contract-token-cryptoMonster/backend/components/PhasePrivate.sol\":96:902  contract PhasePrivate is Main {\r... */\n      mstore(0x40, 0x80)\n      callvalue\n      dup1\n      iszero\n      tag_1\n      jumpi\n      0x00\n      dup1\n      revert\n    tag_1:\n      pop\n      jumpi(tag_2, lt(calldatasize, 0x04))\n      shr(0xe0, calldataload(0x00))\n      dup1\n      0x785963c3\n      eq\n      tag_3\n      jumpi\n      dup1\n      0x8e4f8c6b\n      eq\n      tag_4\n      jumpi\n      dup1\n      0x9d9e7a4b\n      eq\n      tag_5\n      jumpi\n    tag_2:\n      0x00\n      dup1\n      revert\n        /* \"Documents/GitHub/contract-token-cryptoMonster/backend/components/PhasePrivate.sol\":224:651  function application(string memory _name, string memory _contactForCommunication, address _userAdr) public {\r... */\n    tag_3:\n      tag_6\n      tag_7\n      calldatasize\n      0x04\n      tag_8\n      jump\t// in\n    tag_7:\n      tag_9\n      jump\t// in\n    tag_6:\n      stop\n        /* \"Documents/GitHub/contract-token-cryptoMonster/backend/shared/helpers/getFuncs.sol\":144:282  function get_keccak256(string memory _hash) public pure returns(bytes32) {\r... */\n    tag_4:\n      tag_10\n      tag_11\n      calldatasize\n      0x04\n      tag_12\n      jump\t// in\n    tag_11:\n      tag_13\n      jump\t// in\n    tag_10:\n      mload(0x40)\n        /* \"#utility.yul\":2667:2692   */\n      swap1\n      dup2\n      mstore\n        /* \"#utility.yul\":2655:2657   */\n      0x20\n        /* \"#utility.yul\":2640:2658   */\n      add\n        /* \"Documents/GitHub/contract-token-cryptoMonster/backend/shared/helpers/getFuncs.sol\":144:282  function get_keccak256(string memory _hash) public pure returns(bytes32) {\r... */\n      mload(0x40)\n      dup1\n      swap2\n      sub\n      swap1\n      return\n        /* \"Documents/GitHub/contract-token-cryptoMonster/backend/components/PhasePrivate.sol\":727:899  function acceptApplication (bool _changeStatus) public {\r... */\n    tag_5:\n      tag_6\n      tag_17\n      calldatasize\n      0x04\n      tag_18\n      jump\t// in\n    tag_17:\n      tag_19\n      jump\t// in\n        /* \"Documents/GitHub/contract-token-cryptoMonster/backend/components/PhasePrivate.sol\":224:651  function application(string memory _name, string memory _contactForCommunication, address _userAdr) public {\r... */\n    tag_9:\n        /* \"Documents/GitHub/contract-token-cryptoMonster/backend/components/PhasePrivate.sol\":369:379  msg.sender */\n      caller\n        /* \"Documents/GitHub/contract-token-cryptoMonster/backend/components/PhasePrivate.sol\":350:380  strucApplications_[msg.sender] */\n      0x00\n      swap1\n      dup2\n      mstore\n        /* \"Documents/GitHub/contract-token-cryptoMonster/backend/components/PhasePrivate.sol\":350:368  strucApplications_ */\n      0x02\n        /* \"Documents/GitHub/contract-token-cryptoMonster/backend/components/PhasePrivate.sol\":350:380  strucApplications_[msg.sender] */\n      0x20\n      dup2\n      swap1\n      mstore\n      0x40\n      swap1\n      swap2\n      keccak256\n        /* \"Documents/GitHub/contract-token-cryptoMonster/backend/components/PhasePrivate.sol\":350:386  strucApplications_[msg.sender].exist */\n      add\n      sload\n      shl(0xb0, 0x01)\n      swap1\n      div\n      0xff\n      and\n        /* \"Documents/GitHub/contract-token-cryptoMonster/backend/components/PhasePrivate.sol\":350:394  strucApplications_[msg.sender].exist == true */\n      iszero\n      iszero\n        /* \"Documents/GitHub/contract-token-cryptoMonster/backend/components/PhasePrivate.sol\":390:394  true */\n      0x01\n        /* \"Documents/GitHub/contract-token-cryptoMonster/backend/components/PhasePrivate.sol\":350:394  strucApplications_[msg.sender].exist == true */\n      eq\n        /* \"Documents/GitHub/contract-token-cryptoMonster/backend/components/PhasePrivate.sol\":342:424  require(strucApplications_[msg.sender].exist == true, \"Application already sent!\") */\n      tag_21\n      jumpi\n      mload(0x40)\n      shl(0xe5, 0x461bcd)\n      dup2\n      mstore\n        /* \"#utility.yul\":3265:3267   */\n      0x20\n        /* \"Documents/GitHub/contract-token-cryptoMonster/backend/components/PhasePrivate.sol\":342:424  require(strucApplications_[msg.sender].exist == true, \"Application already sent!\") */\n      0x04\n      dup3\n      add\n        /* \"#utility.yul\":3247:3268   */\n      mstore\n        /* \"#utility.yul\":3304:3306   */\n      0x19\n        /* \"#utility.yul\":3284:3302   */\n      0x24\n      dup3\n      add\n        /* \"#utility.yul\":3277:3307   */\n      mstore\n        /* \"#utility.yul\":3343:3370   */\n      0x4170706c69636174696f6e20616c72656164792073656e742100000000000000\n        /* \"#utility.yul\":3323:3341   */\n      0x44\n      dup3\n      add\n        /* \"#utility.yul\":3316:3371   */\n      mstore\n        /* \"#utility.yul\":3388:3406   */\n      0x64\n      add\n        /* \"Documents/GitHub/contract-token-cryptoMonster/backend/components/PhasePrivate.sol\":342:424  require(strucApplications_[msg.sender].exist == true, \"Application already sent!\") */\n    tag_22:\n      mload(0x40)\n      dup1\n      swap2\n      sub\n      swap1\n      revert\n    tag_21:\n        /* \"Documents/GitHub/contract-token-cryptoMonster/backend/components/PhasePrivate.sol\":564:643  structApplication(_name, _contactForCommunication, _userAdr, true, false, true) */\n      0x40\n      dup1\n      mload\n      0xc0\n      dup2\n      add\n      dup3\n      mstore\n      dup5\n      dup2\n      mstore\n      0x20\n      dup1\n      dup3\n      add\n      dup6\n      swap1\n      mstore\n      0xffffffffffffffffffffffffffffffffffffffff\n      dup5\n      and\n      dup3\n      dup5\n      add\n      mstore\n        /* \"Documents/GitHub/contract-token-cryptoMonster/backend/components/PhasePrivate.sol\":625:629  true */\n      0x01\n        /* \"Documents/GitHub/contract-token-cryptoMonster/backend/components/PhasePrivate.sol\":564:643  structApplication(_name, _contactForCommunication, _userAdr, true, false, true) */\n      0x60\n      dup4\n      add\n      dup2\n      swap1\n      mstore\n      0x00\n      0x80\n      dup5\n      add\n      dup2\n      swap1\n      mstore\n      0xa0\n      dup5\n      add\n      swap2\n      swap1\n      swap2\n      mstore\n        /* \"Documents/GitHub/contract-token-cryptoMonster/backend/components/PhasePrivate.sol\":549:559  msg.sender */\n      caller\n        /* \"Documents/GitHub/contract-token-cryptoMonster/backend/components/PhasePrivate.sol\":530:560  strucApplications_[msg.sender] */\n      dup2\n      mstore\n        /* \"Documents/GitHub/contract-token-cryptoMonster/backend/components/PhasePrivate.sol\":530:548  strucApplications_ */\n      0x02\n        /* \"Documents/GitHub/contract-token-cryptoMonster/backend/components/PhasePrivate.sol\":530:560  strucApplications_[msg.sender] */\n      dup3\n      mstore\n      swap3\n      swap1\n      swap3\n      keccak256\n        /* \"Documents/GitHub/contract-token-cryptoMonster/backend/components/PhasePrivate.sol\":530:643  strucApplications_[msg.sender]  = structApplication(_name, _contactForCommunication, _userAdr, true, false, true) */\n      dup2\n      mload\n      dup1\n      mload\n        /* \"Documents/GitHub/contract-token-cryptoMonster/backend/components/PhasePrivate.sol\":564:643  structApplication(_name, _contactForCommunication, _userAdr, true, false, true) */\n      swap3\n      swap4\n        /* \"Documents/GitHub/contract-token-cryptoMonster/backend/components/PhasePrivate.sol\":530:560  strucApplications_[msg.sender] */\n      swap2\n      swap3\n        /* \"Documents/GitHub/contract-token-cryptoMonster/backend/components/PhasePrivate.sol\":530:643  strucApplications_[msg.sender]  = structApplication(_name, _contactForCommunication, _userAdr, true, false, true) */\n      tag_24\n      swap3\n        /* \"Documents/GitHub/contract-token-cryptoMonster/backend/components/PhasePrivate.sol\":530:560  strucApplications_[msg.sender] */\n      dup5\n      swap3\n        /* \"Documents/GitHub/contract-token-cryptoMonster/backend/components/PhasePrivate.sol\":530:643  strucApplications_[msg.sender]  = structApplication(_name, _contactForCommunication, _userAdr, true, false, true) */\n      add\n      swap1\n      tag_25\n      jump\t// in\n    tag_24:\n      pop\n      0x20\n      dup3\n      dup2\n      add\n      mload\n      dup1\n      mload\n      tag_26\n      swap3\n      0x01\n      dup6\n      add\n      swap3\n      add\n      swap1\n      tag_25\n      jump\t// in\n    tag_26:\n      pop\n      0x40\n      dup3\n      add\n      mload\n      0x02\n      swap1\n      swap2\n      add\n      dup1\n      sload\n      0x60\n      dup5\n      add\n      mload\n      0x80\n      dup6\n      add\n      mload\n      0xa0\n      swap1\n      swap6\n      add\n      mload\n      iszero\n      iszero\n      shl(0xb0, 0x01)\n      mul\n      0xffffffffffffffffff00ffffffffffffffffffffffffffffffffffffffffffff\n      swap6\n      iszero\n      iszero\n      0x01000000000000000000000000000000000000000000\n      mul\n      swap6\n      swap1\n      swap6\n      and\n      0xffffffffffffffffff0000ffffffffffffffffffffffffffffffffffffffffff\n      swap2\n      iszero\n      iszero\n      0x010000000000000000000000000000000000000000\n      mul\n      0xffffffffffffffffffffff000000000000000000000000000000000000000000\n      swap1\n      swap4\n      and\n      0xffffffffffffffffffffffffffffffffffffffff\n      swap1\n      swap6\n      and\n      swap5\n      swap1\n      swap5\n      or\n      swap2\n      swap1\n      swap2\n      or\n      and\n      swap2\n      swap1\n      swap2\n      or\n      swap2\n      swap1\n      swap2\n      or\n      swap1\n      sstore\n      pop\n      pop\n      pop\n        /* \"Documents/GitHub/contract-token-cryptoMonster/backend/components/PhasePrivate.sol\":224:651  function application(string memory _name, string memory _contactForCommunication, address _userAdr) public {\r... */\n      jump\t// out\n        /* \"Documents/GitHub/contract-token-cryptoMonster/backend/shared/helpers/getFuncs.sol\":144:282  function get_keccak256(string memory _hash) public pure returns(bytes32) {\r... */\n    tag_13:\n        /* \"Documents/GitHub/contract-token-cryptoMonster/backend/shared/helpers/getFuncs.sol\":208:215  bytes32 */\n      0x00\n        /* \"Documents/GitHub/contract-token-cryptoMonster/backend/shared/helpers/getFuncs.sol\":266:271  _hash */\n      dup2\n        /* \"Documents/GitHub/contract-token-cryptoMonster/backend/shared/helpers/getFuncs.sol\":249:272  abi.encodePacked(_hash) */\n      add(0x20, mload(0x40))\n      tag_28\n      swap2\n      swap1\n      tag_29\n      jump\t// in\n    tag_28:\n      mload(0x40)\n      0x20\n      dup2\n      dup4\n      sub\n      sub\n      dup2\n      mstore\n      swap1\n      0x40\n      mstore\n        /* \"Documents/GitHub/contract-token-cryptoMonster/backend/shared/helpers/getFuncs.sol\":239:273  keccak256(abi.encodePacked(_hash)) */\n      dup1\n      mload\n      swap1\n      0x20\n      add\n      keccak256\n        /* \"Documents/GitHub/contract-token-cryptoMonster/backend/shared/helpers/getFuncs.sol\":232:274  return(keccak256(abi.encodePacked(_hash))) */\n      swap1\n      pop\n        /* \"Documents/GitHub/contract-token-cryptoMonster/backend/shared/helpers/getFuncs.sol\":144:282  function get_keccak256(string memory _hash) public pure returns(bytes32) {\r... */\n      swap2\n      swap1\n      pop\n      jump\t// out\n        /* \"Documents/GitHub/contract-token-cryptoMonster/backend/components/PhasePrivate.sol\":727:899  function acceptApplication (bool _changeStatus) public {\r... */\n    tag_19:\n        /* \"Documents/GitHub/contract-token-cryptoMonster/backend/components/PhasePrivate.sol\":834:853  Role.SYSTEM_PRIVATE */\n      0x02\n        /* \"Documents/GitHub/contract-token-cryptoMonster/backend/components/PhasePrivate.sol\":814:824  msg.sender */\n      caller\n        /* \"Documents/GitHub/contract-token-cryptoMonster/backend/components/PhasePrivate.sol\":801:813  structUsers_ */\n      0x00\n        /* \"Documents/GitHub/contract-token-cryptoMonster/backend/components/PhasePrivate.sol\":801:825  structUsers_[msg.sender] */\n      swap1\n      dup2\n      mstore\n      0x20\n      dup2\n      swap1\n      mstore\n      0x40\n      swap1\n      keccak256\n        /* \"Documents/GitHub/contract-token-cryptoMonster/backend/components/PhasePrivate.sol\":801:830  structUsers_[msg.sender].role */\n      sload\n      0xff\n      and\n        /* \"Documents/GitHub/contract-token-cryptoMonster/backend/components/PhasePrivate.sol\":801:853  structUsers_[msg.sender].role == Role.SYSTEM_PRIVATE */\n      0x04\n      dup2\n      gt\n      iszero\n      tag_35\n      jumpi\n      tag_35\n      tag_33\n      jump\t// in\n    tag_35:\n      eq\n        /* \"Documents/GitHub/contract-token-cryptoMonster/backend/components/PhasePrivate.sol\":793:889  require(structUsers_[msg.sender].role == Role.SYSTEM_PRIVATE, \"You are not a private provider!\") */\n      tag_36\n      jumpi\n      mload(0x40)\n      shl(0xe5, 0x461bcd)\n      dup2\n      mstore\n        /* \"#utility.yul\":2905:2907   */\n      0x20\n        /* \"Documents/GitHub/contract-token-cryptoMonster/backend/components/PhasePrivate.sol\":793:889  require(structUsers_[msg.sender].role == Role.SYSTEM_PRIVATE, \"You are not a private provider!\") */\n      0x04\n      dup3\n      add\n        /* \"#utility.yul\":2887:2908   */\n      mstore\n        /* \"#utility.yul\":2944:2946   */\n      0x1f\n        /* \"#utility.yul\":2924:2942   */\n      0x24\n      dup3\n      add\n        /* \"#utility.yul\":2917:2947   */\n      mstore\n        /* \"#utility.yul\":2983:3016   */\n      0x596f7520617265206e6f74206120707269766174652070726f76696465722100\n        /* \"#utility.yul\":2963:2981   */\n      0x44\n      dup3\n      add\n        /* \"#utility.yul\":2956:3017   */\n      mstore\n        /* \"#utility.yul\":3034:3052   */\n      0x64\n      add\n        /* \"Documents/GitHub/contract-token-cryptoMonster/backend/components/PhasePrivate.sol\":793:889  require(structUsers_[msg.sender].role == Role.SYSTEM_PRIVATE, \"You are not a private provider!\") */\n      tag_22\n        /* \"#utility.yul\":2703:3058   */\n      jump\n        /* \"Documents/GitHub/contract-token-cryptoMonster/backend/components/PhasePrivate.sol\":793:889  require(structUsers_[msg.sender].role == Role.SYSTEM_PRIVATE, \"You are not a private provider!\") */\n    tag_36:\n        /* \"Documents/GitHub/contract-token-cryptoMonster/backend/components/PhasePrivate.sol\":727:899  function acceptApplication (bool _changeStatus) public {\r... */\n      pop\n      jump\t// out\n    tag_25:\n      dup3\n      dup1\n      sload\n      tag_39\n      swap1\n      tag_40\n      jump\t// in\n    tag_39:\n      swap1\n      0x00\n      mstore\n      keccak256(0x00, 0x20)\n      swap1\n      0x1f\n      add\n      0x20\n      swap1\n      div\n      dup2\n      add\n      swap3\n      dup3\n      tag_42\n      jumpi\n      0x00\n      dup6\n      sstore\n      jump(tag_45)\n    tag_42:\n      dup3\n      0x1f\n      lt\n      tag_43\n      jumpi\n      dup1\n      mload\n      not(0xff)\n      and\n      dup4\n      dup1\n      add\n      or\n      dup6\n      sstore\n      jump(tag_45)\n    tag_43:\n      dup3\n      dup1\n      add\n      0x01\n      add\n      dup6\n      sstore\n      dup3\n      iszero\n      tag_45\n      jumpi\n      swap2\n      dup3\n      add\n    tag_44:\n      dup3\n      dup2\n      gt\n      iszero\n      tag_45\n      jumpi\n      dup3\n      mload\n      dup3\n      sstore\n      swap2\n      0x20\n      add\n      swap2\n      swap1\n      0x01\n      add\n      swap1\n      jump(tag_44)\n    tag_45:\n      pop\n      tag_46\n      swap3\n      swap2\n      pop\n      tag_47\n      jump\t// in\n    tag_46:\n      pop\n      swap1\n      jump\t// out\n    tag_47:\n    tag_48:\n      dup1\n      dup3\n      gt\n      iszero\n      tag_46\n      jumpi\n      0x00\n      dup2\n      sstore\n      0x01\n      add\n      jump(tag_48)\n        /* \"#utility.yul\":14:733   */\n    tag_51:\n        /* \"#utility.yul\":57:62   */\n      0x00\n        /* \"#utility.yul\":110:113   */\n      dup3\n        /* \"#utility.yul\":103:107   */\n      0x1f\n        /* \"#utility.yul\":95:101   */\n      dup4\n        /* \"#utility.yul\":91:108   */\n      add\n        /* \"#utility.yul\":87:114   */\n      slt\n        /* \"#utility.yul\":77:132   */\n      tag_53\n      jumpi\n        /* \"#utility.yul\":128:129   */\n      0x00\n        /* \"#utility.yul\":125:126   */\n      dup1\n        /* \"#utility.yul\":118:130   */\n      revert\n        /* \"#utility.yul\":77:132   */\n    tag_53:\n        /* \"#utility.yul\":164:170   */\n      dup2\n        /* \"#utility.yul\":151:171   */\n      calldataload\n        /* \"#utility.yul\":190:208   */\n      0xffffffffffffffff\n        /* \"#utility.yul\":227:229   */\n      dup1\n        /* \"#utility.yul\":223:225   */\n      dup3\n        /* \"#utility.yul\":220:230   */\n      gt\n        /* \"#utility.yul\":217:253   */\n      iszero\n      tag_55\n      jumpi\n        /* \"#utility.yul\":233:251   */\n      tag_55\n      tag_56\n      jump\t// in\n    tag_55:\n        /* \"#utility.yul\":308:310   */\n      0x40\n        /* \"#utility.yul\":302:311   */\n      mload\n        /* \"#utility.yul\":276:278   */\n      0x1f\n        /* \"#utility.yul\":362:375   */\n      dup4\n      add\n      not(0x1f)\n        /* \"#utility.yul\":358:380   */\n      swap1\n      dup2\n      and\n        /* \"#utility.yul\":382:384   */\n      0x3f\n        /* \"#utility.yul\":354:385   */\n      add\n        /* \"#utility.yul\":350:390   */\n      and\n        /* \"#utility.yul\":338:391   */\n      dup2\n      add\n      swap1\n        /* \"#utility.yul\":406:424   */\n      dup3\n      dup3\n      gt\n        /* \"#utility.yul\":426:448   */\n      dup2\n      dup4\n      lt\n        /* \"#utility.yul\":403:449   */\n      or\n        /* \"#utility.yul\":400:472   */\n      iszero\n      tag_58\n      jumpi\n        /* \"#utility.yul\":452:470   */\n      tag_58\n      tag_56\n      jump\t// in\n    tag_58:\n        /* \"#utility.yul\":492:502   */\n      dup2\n        /* \"#utility.yul\":488:490   */\n      0x40\n        /* \"#utility.yul\":481:503   */\n      mstore\n        /* \"#utility.yul\":527:529   */\n      dup4\n        /* \"#utility.yul\":519:525   */\n      dup2\n        /* \"#utility.yul\":512:530   */\n      mstore\n        /* \"#utility.yul\":573:576   */\n      dup7\n        /* \"#utility.yul\":566:570   */\n      0x20\n        /* \"#utility.yul\":561:563   */\n      dup6\n        /* \"#utility.yul\":553:559   */\n      dup9\n        /* \"#utility.yul\":549:564   */\n      add\n        /* \"#utility.yul\":545:571   */\n      add\n        /* \"#utility.yul\":542:577   */\n      gt\n        /* \"#utility.yul\":539:594   */\n      iszero\n      tag_59\n      jumpi\n        /* \"#utility.yul\":590:591   */\n      0x00\n        /* \"#utility.yul\":587:588   */\n      dup1\n        /* \"#utility.yul\":580:592   */\n      revert\n        /* \"#utility.yul\":539:594   */\n    tag_59:\n        /* \"#utility.yul\":654:656   */\n      dup4\n        /* \"#utility.yul\":647:651   */\n      0x20\n        /* \"#utility.yul\":639:645   */\n      dup8\n        /* \"#utility.yul\":635:652   */\n      add\n        /* \"#utility.yul\":628:632   */\n      0x20\n        /* \"#utility.yul\":620:626   */\n      dup4\n        /* \"#utility.yul\":616:633   */\n      add\n        /* \"#utility.yul\":603:657   */\n      calldatacopy\n        /* \"#utility.yul\":701:702   */\n      0x00\n        /* \"#utility.yul\":694:698   */\n      0x20\n        /* \"#utility.yul\":689:691   */\n      dup6\n        /* \"#utility.yul\":681:687   */\n      dup4\n        /* \"#utility.yul\":677:692   */\n      add\n        /* \"#utility.yul\":673:699   */\n      add\n        /* \"#utility.yul\":666:703   */\n      mstore\n        /* \"#utility.yul\":721:727   */\n      dup1\n        /* \"#utility.yul\":712:727   */\n      swap5\n      pop\n      pop\n      pop\n      pop\n      pop\n        /* \"#utility.yul\":14:733   */\n      swap3\n      swap2\n      pop\n      pop\n      jump\t// out\n        /* \"#utility.yul\":738:1011   */\n    tag_18:\n        /* \"#utility.yul\":794:800   */\n      0x00\n        /* \"#utility.yul\":847:849   */\n      0x20\n        /* \"#utility.yul\":835:844   */\n      dup3\n        /* \"#utility.yul\":826:833   */\n      dup5\n        /* \"#utility.yul\":822:845   */\n      sub\n        /* \"#utility.yul\":818:850   */\n      slt\n        /* \"#utility.yul\":815:867   */\n      iszero\n      tag_61\n      jumpi\n        /* \"#utility.yul\":863:864   */\n      0x00\n        /* \"#utility.yul\":860:861   */\n      dup1\n        /* \"#utility.yul\":853:865   */\n      revert\n        /* \"#utility.yul\":815:867   */\n    tag_61:\n        /* \"#utility.yul\":902:911   */\n      dup2\n        /* \"#utility.yul\":889:912   */\n      calldataload\n        /* \"#utility.yul\":955:960   */\n      dup1\n        /* \"#utility.yul\":948:961   */\n      iszero\n        /* \"#utility.yul\":941:962   */\n      iszero\n        /* \"#utility.yul\":934:939   */\n      dup2\n        /* \"#utility.yul\":931:963   */\n      eq\n        /* \"#utility.yul\":921:981   */\n      tag_62\n      jumpi\n        /* \"#utility.yul\":977:978   */\n      0x00\n        /* \"#utility.yul\":974:975   */\n      dup1\n        /* \"#utility.yul\":967:979   */\n      revert\n        /* \"#utility.yul\":921:981   */\n    tag_62:\n        /* \"#utility.yul\":1000:1005   */\n      swap4\n        /* \"#utility.yul\":738:1011   */\n      swap3\n      pop\n      pop\n      pop\n      jump\t// out\n        /* \"#utility.yul\":1016:1338   */\n    tag_12:\n        /* \"#utility.yul\":1085:1091   */\n      0x00\n        /* \"#utility.yul\":1138:1140   */\n      0x20\n        /* \"#utility.yul\":1126:1135   */\n      dup3\n        /* \"#utility.yul\":1117:1124   */\n      dup5\n        /* \"#utility.yul\":1113:1136   */\n      sub\n        /* \"#utility.yul\":1109:1141   */\n      slt\n        /* \"#utility.yul\":1106:1158   */\n      iszero\n      tag_64\n      jumpi\n        /* \"#utility.yul\":1154:1155   */\n      0x00\n        /* \"#utility.yul\":1151:1152   */\n      dup1\n        /* \"#utility.yul\":1144:1156   */\n      revert\n        /* \"#utility.yul\":1106:1158   */\n    tag_64:\n        /* \"#utility.yul\":1194:1203   */\n      dup2\n        /* \"#utility.yul\":1181:1204   */\n      calldataload\n        /* \"#utility.yul\":1227:1245   */\n      0xffffffffffffffff\n        /* \"#utility.yul\":1219:1225   */\n      dup2\n        /* \"#utility.yul\":1216:1246   */\n      gt\n        /* \"#utility.yul\":1213:1263   */\n      iszero\n      tag_65\n      jumpi\n        /* \"#utility.yul\":1259:1260   */\n      0x00\n        /* \"#utility.yul\":1256:1257   */\n      dup1\n        /* \"#utility.yul\":1249:1261   */\n      revert\n        /* \"#utility.yul\":1213:1263   */\n    tag_65:\n        /* \"#utility.yul\":1282:1332   */\n      tag_66\n        /* \"#utility.yul\":1324:1331   */\n      dup5\n        /* \"#utility.yul\":1315:1321   */\n      dup3\n        /* \"#utility.yul\":1304:1313   */\n      dup6\n        /* \"#utility.yul\":1300:1322   */\n      add\n        /* \"#utility.yul\":1282:1332   */\n      tag_51\n      jump\t// in\n    tag_66:\n        /* \"#utility.yul\":1272:1332   */\n      swap5\n        /* \"#utility.yul\":1016:1338   */\n      swap4\n      pop\n      pop\n      pop\n      pop\n      jump\t// out\n        /* \"#utility.yul\":1343:2083   */\n    tag_8:\n        /* \"#utility.yul\":1440:1446   */\n      0x00\n        /* \"#utility.yul\":1448:1454   */\n      dup1\n        /* \"#utility.yul\":1456:1462   */\n      0x00\n        /* \"#utility.yul\":1509:1511   */\n      0x60\n        /* \"#utility.yul\":1497:1506   */\n      dup5\n        /* \"#utility.yul\":1488:1495   */\n      dup7\n        /* \"#utility.yul\":1484:1507   */\n      sub\n        /* \"#utility.yul\":1480:1512   */\n      slt\n        /* \"#utility.yul\":1477:1529   */\n      iszero\n      tag_68\n      jumpi\n        /* \"#utility.yul\":1525:1526   */\n      0x00\n        /* \"#utility.yul\":1522:1523   */\n      dup1\n        /* \"#utility.yul\":1515:1527   */\n      revert\n        /* \"#utility.yul\":1477:1529   */\n    tag_68:\n        /* \"#utility.yul\":1565:1574   */\n      dup4\n        /* \"#utility.yul\":1552:1575   */\n      calldataload\n        /* \"#utility.yul\":1594:1612   */\n      0xffffffffffffffff\n        /* \"#utility.yul\":1635:1637   */\n      dup1\n        /* \"#utility.yul\":1627:1633   */\n      dup3\n        /* \"#utility.yul\":1624:1638   */\n      gt\n        /* \"#utility.yul\":1621:1655   */\n      iszero\n      tag_69\n      jumpi\n        /* \"#utility.yul\":1651:1652   */\n      0x00\n        /* \"#utility.yul\":1648:1649   */\n      dup1\n        /* \"#utility.yul\":1641:1653   */\n      revert\n        /* \"#utility.yul\":1621:1655   */\n    tag_69:\n        /* \"#utility.yul\":1674:1724   */\n      tag_70\n        /* \"#utility.yul\":1716:1723   */\n      dup8\n        /* \"#utility.yul\":1707:1713   */\n      dup4\n        /* \"#utility.yul\":1696:1705   */\n      dup9\n        /* \"#utility.yul\":1692:1714   */\n      add\n        /* \"#utility.yul\":1674:1724   */\n      tag_51\n      jump\t// in\n    tag_70:\n        /* \"#utility.yul\":1664:1724   */\n      swap5\n      pop\n        /* \"#utility.yul\":1777:1779   */\n      0x20\n        /* \"#utility.yul\":1766:1775   */\n      dup7\n        /* \"#utility.yul\":1762:1780   */\n      add\n        /* \"#utility.yul\":1749:1781   */\n      calldataload\n        /* \"#utility.yul\":1733:1781   */\n      swap2\n      pop\n        /* \"#utility.yul\":1806:1808   */\n      dup1\n        /* \"#utility.yul\":1796:1804   */\n      dup3\n        /* \"#utility.yul\":1793:1809   */\n      gt\n        /* \"#utility.yul\":1790:1826   */\n      iszero\n      tag_71\n      jumpi\n        /* \"#utility.yul\":1822:1823   */\n      0x00\n        /* \"#utility.yul\":1819:1820   */\n      dup1\n        /* \"#utility.yul\":1812:1824   */\n      revert\n        /* \"#utility.yul\":1790:1826   */\n    tag_71:\n      pop\n        /* \"#utility.yul\":1845:1897   */\n      tag_72\n        /* \"#utility.yul\":1889:1896   */\n      dup7\n        /* \"#utility.yul\":1878:1886   */\n      dup3\n        /* \"#utility.yul\":1867:1876   */\n      dup8\n        /* \"#utility.yul\":1863:1887   */\n      add\n        /* \"#utility.yul\":1845:1897   */\n      tag_51\n      jump\t// in\n    tag_72:\n        /* \"#utility.yul\":1835:1897   */\n      swap3\n      pop\n      pop\n        /* \"#utility.yul\":1947:1949   */\n      0x40\n        /* \"#utility.yul\":1936:1945   */\n      dup5\n        /* \"#utility.yul\":1932:1950   */\n      add\n        /* \"#utility.yul\":1919:1951   */\n      calldataload\n        /* \"#utility.yul\":1991:2033   */\n      0xffffffffffffffffffffffffffffffffffffffff\n        /* \"#utility.yul\":1984:1989   */\n      dup2\n        /* \"#utility.yul\":1980:2034   */\n      and\n        /* \"#utility.yul\":1973:1978   */\n      dup2\n        /* \"#utility.yul\":1970:2035   */\n      eq\n        /* \"#utility.yul\":1960:2053   */\n      tag_73\n      jumpi\n        /* \"#utility.yul\":2049:2050   */\n      0x00\n        /* \"#utility.yul\":2046:2047   */\n      dup1\n        /* \"#utility.yul\":2039:2051   */\n      revert\n        /* \"#utility.yul\":1960:2053   */\n    tag_73:\n        /* \"#utility.yul\":2072:2077   */\n      dup1\n        /* \"#utility.yul\":2062:2077   */\n      swap2\n      pop\n      pop\n        /* \"#utility.yul\":1343:2083   */\n      swap3\n      pop\n      swap3\n      pop\n      swap3\n      jump\t// out\n        /* \"#utility.yul\":2088:2516   */\n    tag_29:\n        /* \"#utility.yul\":2219:2222   */\n      0x00\n        /* \"#utility.yul\":2257:2263   */\n      dup3\n        /* \"#utility.yul\":2251:2264   */\n      mload\n        /* \"#utility.yul\":2282:2283   */\n      0x00\n        /* \"#utility.yul\":2292:2421   */\n    tag_75:\n        /* \"#utility.yul\":2306:2312   */\n      dup2\n        /* \"#utility.yul\":2303:2304   */\n      dup2\n        /* \"#utility.yul\":2300:2313   */\n      lt\n        /* \"#utility.yul\":2292:2421   */\n      iszero\n      tag_77\n      jumpi\n        /* \"#utility.yul\":2404:2408   */\n      0x20\n        /* \"#utility.yul\":2388:2402   */\n      dup2\n      dup7\n      add\n        /* \"#utility.yul\":2384:2409   */\n      dup2\n      add\n        /* \"#utility.yul\":2378:2410   */\n      mload\n        /* \"#utility.yul\":2365:2376   */\n      dup6\n      dup4\n      add\n        /* \"#utility.yul\":2358:2411   */\n      mstore\n        /* \"#utility.yul\":2321:2333   */\n      add\n        /* \"#utility.yul\":2292:2421   */\n      jump(tag_75)\n    tag_77:\n        /* \"#utility.yul\":2439:2445   */\n      dup2\n        /* \"#utility.yul\":2436:2437   */\n      dup2\n        /* \"#utility.yul\":2433:2446   */\n      gt\n        /* \"#utility.yul\":2430:2478   */\n      iszero\n      tag_78\n      jumpi\n        /* \"#utility.yul\":2474:2475   */\n      0x00\n        /* \"#utility.yul\":2465:2471   */\n      dup3\n        /* \"#utility.yul\":2460:2463   */\n      dup6\n        /* \"#utility.yul\":2456:2472   */\n      add\n        /* \"#utility.yul\":2449:2476   */\n      mstore\n        /* \"#utility.yul\":2430:2478   */\n    tag_78:\n      pop\n        /* \"#utility.yul\":2494:2510   */\n      swap2\n      swap1\n      swap2\n      add\n      swap3\n        /* \"#utility.yul\":2088:2516   */\n      swap2\n      pop\n      pop\n      jump\t// out\n        /* \"#utility.yul\":3417:3854   */\n    tag_40:\n        /* \"#utility.yul\":3496:3497   */\n      0x01\n        /* \"#utility.yul\":3492:3504   */\n      dup2\n      dup2\n      shr\n      swap1\n        /* \"#utility.yul\":3539:3551   */\n      dup3\n      and\n      dup1\n        /* \"#utility.yul\":3560:3621   */\n      tag_83\n      jumpi\n        /* \"#utility.yul\":3614:3618   */\n      0x7f\n        /* \"#utility.yul\":3606:3612   */\n      dup3\n        /* \"#utility.yul\":3602:3619   */\n      and\n        /* \"#utility.yul\":3592:3619   */\n      swap2\n      pop\n        /* \"#utility.yul\":3560:3621   */\n    tag_83:\n        /* \"#utility.yul\":3667:3669   */\n      0x20\n        /* \"#utility.yul\":3659:3665   */\n      dup3\n        /* \"#utility.yul\":3656:3670   */\n      lt\n        /* \"#utility.yul\":3636:3654   */\n      dup2\n        /* \"#utility.yul\":3633:3671   */\n      eq\n        /* \"#utility.yul\":3630:3848   */\n      iszero\n      tag_84\n      jumpi\n      shl(0xe0, 0x4e487b71)\n        /* \"#utility.yul\":3701:3702   */\n      0x00\n        /* \"#utility.yul\":3694:3782   */\n      mstore\n        /* \"#utility.yul\":3805:3809   */\n      0x22\n        /* \"#utility.yul\":3802:3803   */\n      0x04\n        /* \"#utility.yul\":3795:3810   */\n      mstore\n        /* \"#utility.yul\":3833:3837   */\n      0x24\n        /* \"#utility.yul\":3830:3831   */\n      0x00\n        /* \"#utility.yul\":3823:3838   */\n      revert\n        /* \"#utility.yul\":3630:3848   */\n    tag_84:\n      pop\n        /* \"#utility.yul\":3417:3854   */\n      swap2\n      swap1\n      pop\n      jump\t// out\n        /* \"#utility.yul\":3859:4043   */\n    tag_33:\n      shl(0xe0, 0x4e487b71)\n        /* \"#utility.yul\":3908:3909   */\n      0x00\n        /* \"#utility.yul\":3901:3989   */\n      mstore\n        /* \"#utility.yul\":4008:4012   */\n      0x21\n        /* \"#utility.yul\":4005:4006   */\n      0x04\n        /* \"#utility.yul\":3998:4013   */\n      mstore\n        /* \"#utility.yul\":4032:4036   */\n      0x24\n        /* \"#utility.yul\":4029:4030   */\n      0x00\n        /* \"#utility.yul\":4022:4037   */\n      revert\n        /* \"#utility.yul\":4048:4232   */\n    tag_56:\n      shl(0xe0, 0x4e487b71)\n        /* \"#utility.yul\":4097:4098   */\n      0x00\n        /* \"#utility.yul\":4090:4178   */\n      mstore\n        /* \"#utility.yul\":4197:4201   */\n      0x41\n        /* \"#utility.yul\":4194:4195   */\n      0x04\n        /* \"#utility.yul\":4187:4202   */\n      mstore\n        /* \"#utility.yul\":4221:4225   */\n      0x24\n        /* \"#utility.yul\":4218:4219   */\n      0x00\n        /* \"#utility.yul\":4211:4226   */\n      revert\n\n    auxdata: 0xa264697066735822122037c452db4e20d0a6809676a264ff416b0bf14645c6a7dd2ec50fb9a0c408a84c64736f6c63430008070033\n}\n",
				"bytecode": {
					"linkReferences": {},
					"object": "608060405234801561001057600080fd5b50610619806100206000396000f3fe608060405234801561001057600080fd5b50600436106100415760003560e01c8063785963c3146100465780638e4f8c6b1461005b5780639d9e7a4b14610080575b600080fd5b6100596100543660046104b0565b610093565b005b61006e610069366004610473565b61027e565b60405190815260200160405180910390f35b61005961008e36600461044a565b6102ae565b3360009081526002602081905260409091200154600160b01b900460ff1615156001146101075760405162461bcd60e51b815260206004820152601960248201527f4170706c69636174696f6e20616c72656164792073656e74210000000000000060448201526064015b60405180910390fd5b6040805160c081018252848152602080820185905273ffffffffffffffffffffffffffffffffffffffff84168284015260016060830181905260006080840181905260a0840191909152338152600282529290922081518051929391926101719284920190610324565b50602082810151805161018a9260018501920190610324565b506040820151600290910180546060840151608085015160a0909501511515600160b01b027fffffffffffffffffff00ffffffffffffffffffffffffffffffffffffffffffff951515750100000000000000000000000000000000000000000002959095167fffffffffffffffffff0000ffffffffffffffffffffffffffffffffffffffffff91151574010000000000000000000000000000000000000000027fffffffffffffffffffffff00000000000000000000000000000000000000000090931673ffffffffffffffffffffffffffffffffffffffff90951694909417919091171691909117919091179055505050565b6000816040516020016102919190610541565b604051602081830303815290604052805190602001209050919050565b60023360009081526020819052604090205460ff1660048111156102d4576102d46105b7565b146103215760405162461bcd60e51b815260206004820152601f60248201527f596f7520617265206e6f74206120707269766174652070726f7669646572210060448201526064016100fe565b50565b8280546103309061057c565b90600052602060002090601f0160209004810192826103525760008555610398565b82601f1061036b57805160ff1916838001178555610398565b82800160010185558215610398579182015b8281111561039857825182559160200191906001019061037d565b506103a49291506103a8565b5090565b5b808211156103a457600081556001016103a9565b600082601f8301126103ce57600080fd5b813567ffffffffffffffff808211156103e9576103e96105cd565b604051601f8301601f19908116603f01168101908282118183101715610411576104116105cd565b8160405283815286602085880101111561042a57600080fd5b836020870160208301376000602085830101528094505050505092915050565b60006020828403121561045c57600080fd5b8135801515811461046c57600080fd5b9392505050565b60006020828403121561048557600080fd5b813567ffffffffffffffff81111561049c57600080fd5b6104a8848285016103bd565b949350505050565b6000806000606084860312156104c557600080fd5b833567ffffffffffffffff808211156104dd57600080fd5b6104e9878388016103bd565b945060208601359150808211156104ff57600080fd5b5061050c868287016103bd565b925050604084013573ffffffffffffffffffffffffffffffffffffffff8116811461053657600080fd5b809150509250925092565b6000825160005b818110156105625760208186018101518583015201610548565b81811115610571576000828501525b509190910192915050565b600181811c9082168061059057607f821691505b602082108114156105b157634e487b7160e01b600052602260045260246000fd5b50919050565b634e487b7160e01b600052602160045260246000fd5b634e487b7160e01b600052604160045260246000fdfea264697066735822122037c452db4e20d0a6809676a264ff416b0bf14645c6a7dd2ec50fb9a0c408a84c64736f6c63430008070033",
					"opcodes": "PUSH1 0x80 PUSH1 0x40 MSTORE CALLVALUE DUP1 ISZERO PUSH2 0x10 JUMPI PUSH1 0x0 DUP1 REVERT JUMPDEST POP PUSH2 0x619 DUP1 PUSH2 0x20 PUSH1 0x0 CODECOPY PUSH1 0x0 RETURN INVALID PUSH1 0x80 PUSH1 0x40 MSTORE CALLVALUE DUP1 ISZERO PUSH2 0x10 JUMPI PUSH1 0x0 DUP1 REVERT JUMPDEST POP PUSH1 0x4 CALLDATASIZE LT PUSH2 0x41 JUMPI PUSH1 0x0 CALLDATALOAD PUSH1 0xE0 SHR DUP1 PUSH4 0x785963C3 EQ PUSH2 0x46 JUMPI DUP1 PUSH4 0x8E4F8C6B EQ PUSH2 0x5B JUMPI DUP1 PUSH4 0x9D9E7A4B EQ PUSH2 0x80 JUMPI JUMPDEST PUSH1 0x0 DUP1 REVERT JUMPDEST PUSH2 0x59 PUSH2 0x54 CALLDATASIZE PUSH1 0x4 PUSH2 0x4B0 JUMP JUMPDEST PUSH2 0x93 JUMP JUMPDEST STOP JUMPDEST PUSH2 0x6E PUSH2 0x69 CALLDATASIZE PUSH1 0x4 PUSH2 0x473 JUMP JUMPDEST PUSH2 0x27E JUMP JUMPDEST PUSH1 0x40 MLOAD SWAP1 DUP2 MSTORE PUSH1 0x20 ADD PUSH1 0x40 MLOAD DUP1 SWAP2 SUB SWAP1 RETURN JUMPDEST PUSH2 0x59 PUSH2 0x8E CALLDATASIZE PUSH1 0x4 PUSH2 0x44A JUMP JUMPDEST PUSH2 0x2AE JUMP JUMPDEST CALLER PUSH1 0x0 SWAP1 DUP2 MSTORE PUSH1 0x2 PUSH1 0x20 DUP2 SWAP1 MSTORE PUSH1 0x40 SWAP1 SWAP2 KECCAK256 ADD SLOAD PUSH1 0x1 PUSH1 0xB0 SHL SWAP1 DIV PUSH1 0xFF AND ISZERO ISZERO PUSH1 0x1 EQ PUSH2 0x107 JUMPI PUSH1 0x40 MLOAD PUSH3 0x461BCD PUSH1 0xE5 SHL DUP2 MSTORE PUSH1 0x20 PUSH1 0x4 DUP3 ADD MSTORE PUSH1 0x19 PUSH1 0x24 DUP3 ADD MSTORE PUSH32 0x4170706C69636174696F6E20616C72656164792073656E742100000000000000 PUSH1 0x44 DUP3 ADD MSTORE PUSH1 0x64 ADD JUMPDEST PUSH1 0x40 MLOAD DUP1 SWAP2 SUB SWAP1 REVERT JUMPDEST PUSH1 0x40 DUP1 MLOAD PUSH1 0xC0 DUP2 ADD DUP3 MSTORE DUP5 DUP2 MSTORE PUSH1 0x20 DUP1 DUP3 ADD DUP6 SWAP1 MSTORE PUSH20 0xFFFFFFFFFFFFFFFFFFFFFFFFFFFFFFFFFFFFFFFF DUP5 AND DUP3 DUP5 ADD MSTORE PUSH1 0x1 PUSH1 0x60 DUP4 ADD DUP2 SWAP1 MSTORE PUSH1 0x0 PUSH1 0x80 DUP5 ADD DUP2 SWAP1 MSTORE PUSH1 0xA0 DUP5 ADD SWAP2 SWAP1 SWAP2 MSTORE CALLER DUP2 MSTORE PUSH1 0x2 DUP3 MSTORE SWAP3 SWAP1 SWAP3 KECCAK256 DUP2 MLOAD DUP1 MLOAD SWAP3 SWAP4 SWAP2 SWAP3 PUSH2 0x171 SWAP3 DUP5 SWAP3 ADD SWAP1 PUSH2 0x324 JUMP JUMPDEST POP PUSH1 0x20 DUP3 DUP2 ADD MLOAD DUP1 MLOAD PUSH2 0x18A SWAP3 PUSH1 0x1 DUP6 ADD SWAP3 ADD SWAP1 PUSH2 0x324 JUMP JUMPDEST POP PUSH1 0x40 DUP3 ADD MLOAD PUSH1 0x2 SWAP1 SWAP2 ADD DUP1 SLOAD PUSH1 0x60 DUP5 ADD MLOAD PUSH1 0x80 DUP6 ADD MLOAD PUSH1 0xA0 SWAP1 SWAP6 ADD MLOAD ISZERO ISZERO PUSH1 0x1 PUSH1 0xB0 SHL MUL PUSH32 0xFFFFFFFFFFFFFFFFFF00FFFFFFFFFFFFFFFFFFFFFFFFFFFFFFFFFFFFFFFFFFFF SWAP6 ISZERO ISZERO PUSH22 0x1000000000000000000000000000000000000000000 MUL SWAP6 SWAP1 SWAP6 AND PUSH32 0xFFFFFFFFFFFFFFFFFF0000FFFFFFFFFFFFFFFFFFFFFFFFFFFFFFFFFFFFFFFFFF SWAP2 ISZERO ISZERO PUSH21 0x10000000000000000000000000000000000000000 MUL PUSH32 0xFFFFFFFFFFFFFFFFFFFFFF000000000000000000000000000000000000000000 SWAP1 SWAP4 AND PUSH20 0xFFFFFFFFFFFFFFFFFFFFFFFFFFFFFFFFFFFFFFFF SWAP1 SWAP6 AND SWAP5 SWAP1 SWAP5 OR SWAP2 SWAP1 SWAP2 OR AND SWAP2 SWAP1 SWAP2 OR SWAP2 SWAP1 SWAP2 OR SWAP1 SSTORE POP POP POP JUMP JUMPDEST PUSH1 0x0 DUP2 PUSH1 0x40 MLOAD PUSH1 0x20 ADD PUSH2 0x291 SWAP2 SWAP1 PUSH2 0x541 JUMP JUMPDEST PUSH1 0x40 MLOAD PUSH1 0x20 DUP2 DUP4 SUB SUB DUP2 MSTORE SWAP1 PUSH1 0x40 MSTORE DUP1 MLOAD SWAP1 PUSH1 0x20 ADD KECCAK256 SWAP1 POP SWAP2 SWAP1 POP JUMP JUMPDEST PUSH1 0x2 CALLER PUSH1 0x0 SWAP1 DUP2 MSTORE PUSH1 0x20 DUP2 SWAP1 MSTORE PUSH1 0x40 SWAP1 KECCAK256 SLOAD PUSH1 0xFF AND PUSH1 0x4 DUP2 GT ISZERO PUSH2 0x2D4 JUMPI PUSH2 0x2D4 PUSH2 0x5B7 JUMP JUMPDEST EQ PUSH2 0x321 JUMPI PUSH1 0x40 MLOAD PUSH3 0x461BCD PUSH1 0xE5 SHL DUP2 MSTORE PUSH1 0x20 PUSH1 0x4 DUP3 ADD MSTORE PUSH1 0x1F PUSH1 0x24 DUP3 ADD MSTORE PUSH32 0x596F7520617265206E6F74206120707269766174652070726F76696465722100 PUSH1 0x44 DUP3 ADD MSTORE PUSH1 0x64 ADD PUSH2 0xFE JUMP JUMPDEST POP JUMP JUMPDEST DUP3 DUP1 SLOAD PUSH2 0x330 SWAP1 PUSH2 0x57C JUMP JUMPDEST SWAP1 PUSH1 0x0 MSTORE PUSH1 0x20 PUSH1 0x0 KECCAK256 SWAP1 PUSH1 0x1F ADD PUSH1 0x20 SWAP1 DIV DUP2 ADD SWAP3 DUP3 PUSH2 0x352 JUMPI PUSH1 0x0 DUP6 SSTORE PUSH2 0x398 JUMP JUMPDEST DUP3 PUSH1 0x1F LT PUSH2 0x36B JUMPI DUP1 MLOAD PUSH1 0xFF NOT AND DUP4 DUP1 ADD OR DUP6 SSTORE PUSH2 0x398 JUMP JUMPDEST DUP3 DUP1 ADD PUSH1 0x1 ADD DUP6 SSTORE DUP3 ISZERO PUSH2 0x398 JUMPI SWAP2 DUP3 ADD JUMPDEST DUP3 DUP2 GT ISZERO PUSH2 0x398 JUMPI DUP3 MLOAD DUP3 SSTORE SWAP2 PUSH1 0x20 ADD SWAP2 SWAP1 PUSH1 0x1 ADD SWAP1 PUSH2 0x37D JUMP JUMPDEST POP PUSH2 0x3A4 SWAP3 SWAP2 POP PUSH2 0x3A8 JUMP JUMPDEST POP SWAP1 JUMP JUMPDEST JUMPDEST DUP1 DUP3 GT ISZERO PUSH2 0x3A4 JUMPI PUSH1 0x0 DUP2 SSTORE PUSH1 0x1 ADD PUSH2 0x3A9 JUMP JUMPDEST PUSH1 0x0 DUP3 PUSH1 0x1F DUP4 ADD SLT PUSH2 0x3CE JUMPI PUSH1 0x0 DUP1 REVERT JUMPDEST DUP2 CALLDATALOAD PUSH8 0xFFFFFFFFFFFFFFFF DUP1 DUP3 GT ISZERO PUSH2 0x3E9 JUMPI PUSH2 0x3E9 PUSH2 0x5CD JUMP JUMPDEST PUSH1 0x40 MLOAD PUSH1 0x1F DUP4 ADD PUSH1 0x1F NOT SWAP1 DUP2 AND PUSH1 0x3F ADD AND DUP2 ADD SWAP1 DUP3 DUP3 GT DUP2 DUP4 LT OR ISZERO PUSH2 0x411 JUMPI PUSH2 0x411 PUSH2 0x5CD JUMP JUMPDEST DUP2 PUSH1 0x40 MSTORE DUP4 DUP2 MSTORE DUP7 PUSH1 0x20 DUP6 DUP9 ADD ADD GT ISZERO PUSH2 0x42A JUMPI PUSH1 0x0 DUP1 REVERT JUMPDEST DUP4 PUSH1 0x20 DUP8 ADD PUSH1 0x20 DUP4 ADD CALLDATACOPY PUSH1 0x0 PUSH1 0x20 DUP6 DUP4 ADD ADD MSTORE DUP1 SWAP5 POP POP POP POP POP SWAP3 SWAP2 POP POP JUMP JUMPDEST PUSH1 0x0 PUSH1 0x20 DUP3 DUP5 SUB SLT ISZERO PUSH2 0x45C JUMPI PUSH1 0x0 DUP1 REVERT JUMPDEST DUP2 CALLDATALOAD DUP1 ISZERO ISZERO DUP2 EQ PUSH2 0x46C JUMPI PUSH1 0x0 DUP1 REVERT JUMPDEST SWAP4 SWAP3 POP POP POP JUMP JUMPDEST PUSH1 0x0 PUSH1 0x20 DUP3 DUP5 SUB SLT ISZERO PUSH2 0x485 JUMPI PUSH1 0x0 DUP1 REVERT JUMPDEST DUP2 CALLDATALOAD PUSH8 0xFFFFFFFFFFFFFFFF DUP2 GT ISZERO PUSH2 0x49C JUMPI PUSH1 0x0 DUP1 REVERT JUMPDEST PUSH2 0x4A8 DUP5 DUP3 DUP6 ADD PUSH2 0x3BD JUMP JUMPDEST SWAP5 SWAP4 POP POP POP POP JUMP JUMPDEST PUSH1 0x0 DUP1 PUSH1 0x0 PUSH1 0x60 DUP5 DUP7 SUB SLT ISZERO PUSH2 0x4C5 JUMPI PUSH1 0x0 DUP1 REVERT JUMPDEST DUP4 CALLDATALOAD PUSH8 0xFFFFFFFFFFFFFFFF DUP1 DUP3 GT ISZERO PUSH2 0x4DD JUMPI PUSH1 0x0 DUP1 REVERT JUMPDEST PUSH2 0x4E9 DUP8 DUP4 DUP9 ADD PUSH2 0x3BD JUMP JUMPDEST SWAP5 POP PUSH1 0x20 DUP7 ADD CALLDATALOAD SWAP2 POP DUP1 DUP3 GT ISZERO PUSH2 0x4FF JUMPI PUSH1 0x0 DUP1 REVERT JUMPDEST POP PUSH2 0x50C DUP7 DUP3 DUP8 ADD PUSH2 0x3BD JUMP JUMPDEST SWAP3 POP POP PUSH1 0x40 DUP5 ADD CALLDATALOAD PUSH20 0xFFFFFFFFFFFFFFFFFFFFFFFFFFFFFFFFFFFFFFFF DUP2 AND DUP2 EQ PUSH2 0x536 JUMPI PUSH1 0x0 DUP1 REVERT JUMPDEST DUP1 SWAP2 POP POP SWAP3 POP SWAP3 POP SWAP3 JUMP JUMPDEST PUSH1 0x0 DUP3 MLOAD PUSH1 0x0 JUMPDEST DUP2 DUP2 LT ISZERO PUSH2 0x562 JUMPI PUSH1 0x20 DUP2 DUP7 ADD DUP2 ADD MLOAD DUP6 DUP4 ADD MSTORE ADD PUSH2 0x548 JUMP JUMPDEST DUP2 DUP2 GT ISZERO PUSH2 0x571 JUMPI PUSH1 0x0 DUP3 DUP6 ADD MSTORE JUMPDEST POP SWAP2 SWAP1 SWAP2 ADD SWAP3 SWAP2 POP POP JUMP JUMPDEST PUSH1 0x1 DUP2 DUP2 SHR SWAP1 DUP3 AND DUP1 PUSH2 0x590 JUMPI PUSH1 0x7F DUP3 AND SWAP2 POP JUMPDEST PUSH1 0x20 DUP3 LT DUP2 EQ ISZERO PUSH2 0x5B1 JUMPI PUSH4 0x4E487B71 PUSH1 0xE0 SHL PUSH1 0x0 MSTORE PUSH1 0x22 PUSH1 0x4 MSTORE PUSH1 0x24 PUSH1 0x0 REVERT JUMPDEST POP SWAP2 SWAP1 POP JUMP JUMPDEST PUSH4 0x4E487B71 PUSH1 0xE0 SHL PUSH1 0x0 MSTORE PUSH1 0x21 PUSH1 0x4 MSTORE PUSH1 0x24 PUSH1 0x0 REVERT JUMPDEST PUSH4 0x4E487B71 PUSH1 0xE0 SHL PUSH1 0x0 MSTORE PUSH1 0x41 PUSH1 0x4 MSTORE PUSH1 0x24 PUSH1 0x0 REVERT INVALID LOG2 PUSH5 0x6970667358 0x22 SLT KECCAK256 CALLDATACOPY 0xC4 MSTORE 0xDB 0x4E KECCAK256 0xD0 0xA6 DUP1 SWAP7 PUSH23 0xA264FF416B0BF14645C6A7DD2EC50FB9A0C408A84C6473 PUSH16 0x6C634300080700330000000000000000 "
				},
				"gasEstimates": {
					"creation": {
						"codeDepositCost": "312200",
						"executionCost": "349",
						"totalCost": "312549"
					},
					"external": {
						"acceptApplication(bool)": "2610",
						"application(string,string,address)": "infinite",
						"get_keccak256(string)": "infinite"
					}
				},
				"methodIdentifiers": {
					"acceptApplication(bool)": "9d9e7a4b",
					"application(string,string,address)": "785963c3",
					"get_keccak256(string)": "8e4f8c6b"
				}
			},
			"storageLayout": {
				"storage": [
					{
						"astId": 1911,
						"contract": "Documents/GitHub/contract-token-cryptoMonster/backend/components/PhasePrivate.sol:PhasePrivate",
						"label": "structUsers_",
						"offset": 0,
						"slot": "0",
						"type": "t_mapping(t_address,t_struct(structUser)1906_storage)"
					},
					{
						"astId": 1921,
						"contract": "Documents/GitHub/contract-token-cryptoMonster/backend/components/PhasePrivate.sol:PhasePrivate",
						"label": "structPhases_",
						"offset": 0,
						"slot": "1",
						"type": "t_mapping(t_address,t_struct(structPhase)1916_storage)"
					},
					{
						"astId": 1939,
						"contract": "Documents/GitHub/contract-token-cryptoMonster/backend/components/PhasePrivate.sol:PhasePrivate",
						"label": "strucApplications_",
						"offset": 0,
						"slot": "2",
						"type": "t_mapping(t_address,t_struct(structApplication)1934_storage)"
					}
				],
				"types": {
					"t_address": {
						"encoding": "inplace",
						"label": "address",
						"numberOfBytes": "20"
					},
					"t_bool": {
						"encoding": "inplace",
						"label": "bool",
						"numberOfBytes": "1"
					},
					"t_bytes32": {
						"encoding": "inplace",
						"label": "bytes32",
						"numberOfBytes": "32"
					},
					"t_enum(Role)1890": {
						"encoding": "inplace",
						"label": "enum structures.Role",
						"numberOfBytes": "1"
					},
					"t_mapping(t_address,t_struct(structApplication)1934_storage)": {
						"encoding": "mapping",
						"key": "t_address",
						"label": "mapping(address => struct structures.structApplication)",
						"numberOfBytes": "32",
						"value": "t_struct(structApplication)1934_storage"
					},
					"t_mapping(t_address,t_struct(structPhase)1916_storage)": {
						"encoding": "mapping",
						"key": "t_address",
						"label": "mapping(address => struct structures.structPhase)",
						"numberOfBytes": "32",
						"value": "t_struct(structPhase)1916_storage"
					},
					"t_mapping(t_address,t_struct(structUser)1906_storage)": {
						"encoding": "mapping",
						"key": "t_address",
						"label": "mapping(address => struct structures.structUser)",
						"numberOfBytes": "32",
						"value": "t_struct(structUser)1906_storage"
					},
					"t_string_storage": {
						"encoding": "bytes",
						"label": "string",
						"numberOfBytes": "32"
					},
					"t_struct(structApplication)1934_storage": {
						"encoding": "inplace",
						"label": "struct structures.structApplication",
						"members": [
							{
								"astId": 1923,
								"contract": "Documents/GitHub/contract-token-cryptoMonster/backend/components/PhasePrivate.sol:PhasePrivate",
								"label": "name",
								"offset": 0,
								"slot": "0",
								"type": "t_string_storage"
							},
							{
								"astId": 1925,
								"contract": "Documents/GitHub/contract-token-cryptoMonster/backend/components/PhasePrivate.sol:PhasePrivate",
								"label": "contactForCommunication",
								"offset": 0,
								"slot": "1",
								"type": "t_string_storage"
							},
							{
								"astId": 1927,
								"contract": "Documents/GitHub/contract-token-cryptoMonster/backend/components/PhasePrivate.sol:PhasePrivate",
								"label": "userAdr",
								"offset": 0,
								"slot": "2",
								"type": "t_address"
							},
							{
								"astId": 1929,
								"contract": "Documents/GitHub/contract-token-cryptoMonster/backend/components/PhasePrivate.sol:PhasePrivate",
								"label": "status",
								"offset": 20,
								"slot": "2",
								"type": "t_bool"
							},
							{
								"astId": 1931,
								"contract": "Documents/GitHub/contract-token-cryptoMonster/backend/components/PhasePrivate.sol:PhasePrivate",
								"label": "reviewed",
								"offset": 21,
								"slot": "2",
								"type": "t_bool"
							},
							{
								"astId": 1933,
								"contract": "Documents/GitHub/contract-token-cryptoMonster/backend/components/PhasePrivate.sol:PhasePrivate",
								"label": "exist",
								"offset": 22,
								"slot": "2",
								"type": "t_bool"
							}
						],
						"numberOfBytes": "96"
					},
					"t_struct(structPhase)1916_storage": {
						"encoding": "inplace",
						"label": "struct structures.structPhase",
						"members": [
							{
								"astId": 1913,
								"contract": "Documents/GitHub/contract-token-cryptoMonster/backend/components/PhasePrivate.sol:PhasePrivate",
								"label": "statusPhase",
								"offset": 0,
								"slot": "0",
								"type": "t_bool"
							},
							{
								"astId": 1915,
								"contract": "Documents/GitHub/contract-token-cryptoMonster/backend/components/PhasePrivate.sol:PhasePrivate",
								"label": "reviewed",
								"offset": 1,
								"slot": "0",
								"type": "t_bool"
							}
						],
						"numberOfBytes": "32"
					},
					"t_struct(structUser)1906_storage": {
						"encoding": "inplace",
						"label": "struct structures.structUser",
						"members": [
							{
								"astId": 1893,
								"contract": "Documents/GitHub/contract-token-cryptoMonster/backend/components/PhasePrivate.sol:PhasePrivate",
								"label": "role",
								"offset": 0,
								"slot": "0",
								"type": "t_enum(Role)1890"
							},
							{
								"astId": 1895,
								"contract": "Documents/GitHub/contract-token-cryptoMonster/backend/components/PhasePrivate.sol:PhasePrivate",
								"label": "login",
								"offset": 0,
								"slot": "1",
								"type": "t_string_storage"
							},
							{
								"astId": 1897,
								"contract": "Documents/GitHub/contract-token-cryptoMonster/backend/components/PhasePrivate.sol:PhasePrivate",
								"label": "password",
								"offset": 0,
								"slot": "2",
								"type": "t_bytes32"
							},
							{
								"astId": 1899,
								"contract": "Documents/GitHub/contract-token-cryptoMonster/backend/components/PhasePrivate.sol:PhasePrivate",
								"label": "balance_overall",
								"offset": 0,
								"slot": "3",
								"type": "t_uint256"
							},
							{
								"astId": 1901,
								"contract": "Documents/GitHub/contract-token-cryptoMonster/backend/components/PhasePrivate.sol:PhasePrivate",
								"label": "balance_seed",
								"offset": 0,
								"slot": "4",
								"type": "t_uint256"
							},
							{
								"astId": 1903,
								"contract": "Documents/GitHub/contract-token-cryptoMonster/backend/components/PhasePrivate.sol:PhasePrivate",
								"label": "balance_private",
								"offset": 0,
								"slot": "5",
								"type": "t_uint256"
							},
							{
								"astId": 1905,
								"contract": "Documents/GitHub/contract-token-cryptoMonster/backend/components/PhasePrivate.sol:PhasePrivate",
								"label": "balance_public",
								"offset": 0,
								"slot": "6",
								"type": "t_uint256"
							}
						],
						"numberOfBytes": "224"
					},
					"t_uint256": {
						"encoding": "inplace",
						"label": "uint256",
						"numberOfBytes": "32"
					}
				}
			},
			"userdoc": {
				"kind": "user",
				"methods": {},
				"version": 1
			}
		}
	}
}