{
	"Documents/GitHub/contract-token-cryptoMonster/backend/components/CryptoMonster.sol": {
		"CryptoMonster": {
			"abi": [
				{
					"inputs": [
						{
							"internalType": "uint256",
							"name": "total",
							"type": "uint256"
						}
					],
					"stateMutability": "nonpayable",
					"type": "constructor"
				},
				{
					"anonymous": false,
					"inputs": [
						{
							"indexed": true,
							"internalType": "address",
							"name": "_owner",
							"type": "address"
						},
						{
							"indexed": true,
							"internalType": "address",
							"name": "_spender",
							"type": "address"
						},
						{
							"indexed": false,
							"internalType": "uint256",
							"name": "_value",
							"type": "uint256"
						}
					],
					"name": "Approval",
					"type": "event"
				},
				{
					"anonymous": false,
					"inputs": [
						{
							"indexed": true,
							"internalType": "address",
							"name": "_from",
							"type": "address"
						},
						{
							"indexed": true,
							"internalType": "address",
							"name": "_to",
							"type": "address"
						},
						{
							"indexed": false,
							"internalType": "uint256",
							"name": "_value",
							"type": "uint256"
						}
					],
					"name": "Transfer",
					"type": "event"
				},
				{
					"inputs": [
						{
							"internalType": "bool",
							"name": "_changeStatus",
							"type": "bool"
						}
					],
					"name": "acceptApplication",
					"outputs": [],
					"stateMutability": "nonpayable",
					"type": "function"
				},
				{
					"inputs": [
						{
							"internalType": "address",
							"name": "_owner",
							"type": "address"
						},
						{
							"internalType": "address",
							"name": "_delegate",
							"type": "address"
						}
					],
					"name": "allowance",
					"outputs": [
						{
							"internalType": "uint256",
							"name": "",
							"type": "uint256"
						}
					],
					"stateMutability": "view",
					"type": "function"
				},
				{
					"inputs": [
						{
							"internalType": "string",
							"name": "_name",
							"type": "string"
						},
						{
							"internalType": "string",
							"name": "_contactForCommunication",
							"type": "string"
						},
						{
							"internalType": "address",
							"name": "_userAdr",
							"type": "address"
						}
					],
					"name": "application",
					"outputs": [],
					"stateMutability": "nonpayable",
					"type": "function"
				},
				{
					"inputs": [
						{
							"internalType": "address",
							"name": "_delegate",
							"type": "address"
						},
						{
							"internalType": "uint256",
							"name": "_numTokens",
							"type": "uint256"
						}
					],
					"name": "approve",
					"outputs": [
						{
							"internalType": "bool",
							"name": "",
							"type": "bool"
						}
					],
					"stateMutability": "nonpayable",
					"type": "function"
				},
				{
					"inputs": [
						{
							"internalType": "address",
							"name": "_tokenOwner",
							"type": "address"
						}
					],
					"name": "balanceOf",
					"outputs": [
						{
							"internalType": "uint256",
							"name": "",
							"type": "uint256"
						}
					],
					"stateMutability": "view",
					"type": "function"
				},
				{
					"inputs": [
						{
							"internalType": "uint256",
							"name": "_amount",
							"type": "uint256"
						}
					],
					"name": "buy",
					"outputs": [],
					"stateMutability": "payable",
					"type": "function"
				},
				{
					"inputs": [],
					"name": "decimals",
					"outputs": [
						{
							"internalType": "uint8",
							"name": "",
							"type": "uint8"
						}
					],
					"stateMutability": "view",
					"type": "function"
				},
				{
					"inputs": [
						{
							"internalType": "string",
							"name": "_hash",
							"type": "string"
						}
					],
					"name": "get_keccak256",
					"outputs": [
						{
							"internalType": "bytes32",
							"name": "",
							"type": "bytes32"
						}
					],
					"stateMutability": "pure",
					"type": "function"
				},
				{
					"inputs": [],
					"name": "name",
					"outputs": [
						{
							"internalType": "string",
							"name": "",
							"type": "string"
						}
					],
					"stateMutability": "view",
					"type": "function"
				},
				{
					"inputs": [],
					"name": "symbol",
					"outputs": [
						{
							"internalType": "string",
							"name": "",
							"type": "string"
						}
					],
					"stateMutability": "view",
					"type": "function"
				},
				{
					"inputs": [],
					"name": "tokenPrice_",
					"outputs": [
						{
							"internalType": "uint256",
							"name": "",
							"type": "uint256"
						}
					],
					"stateMutability": "view",
					"type": "function"
				},
				{
					"inputs": [],
					"name": "totalSupply",
					"outputs": [
						{
							"internalType": "uint256",
							"name": "",
							"type": "uint256"
						}
					],
					"stateMutability": "view",
					"type": "function"
				},
				{
					"inputs": [
						{
							"internalType": "address",
							"name": "_receiver",
							"type": "address"
						},
						{
							"internalType": "uint256",
							"name": "_numTokens",
							"type": "uint256"
						}
					],
					"name": "transfer",
					"outputs": [
						{
							"internalType": "bool",
							"name": "",
							"type": "bool"
						}
					],
					"stateMutability": "nonpayable",
					"type": "function"
				},
				{
					"inputs": [
						{
							"internalType": "address",
							"name": "_owner",
							"type": "address"
						},
						{
							"internalType": "address",
							"name": "_buyer",
							"type": "address"
						},
						{
							"internalType": "uint256",
							"name": "_numTokens",
							"type": "uint256"
						}
					],
					"name": "transferFrom",
					"outputs": [
						{
							"internalType": "bool",
							"name": "",
							"type": "bool"
						}
					],
					"stateMutability": "nonpayable",
					"type": "function"
				}
			],
			"devdoc": {
				"kind": "dev",
				"methods": {},
				"version": 1
			},
			"evm": {
				"assembly": "    /* \"Documents/GitHub/contract-token-cryptoMonster/backend/components/CryptoMonster.sol\":377:20940  contract CryptoMonster is IERC20, Main, PhaseSeed, PhasePrivate {\r... */\n  mstore(0x40, 0x80)\n    /* \"Documents/GitHub/contract-token-cryptoMonster/backend/components/PhaseSeed.sol\":179:248  address investorFirstAdr = 0x78731D3Ca6b7E34aC0F824c42a7cC18A495cabaB */\n  0x03\n  dup1\n  sload\n  not(sub(shl(0xa0, 0x01), 0x01))\n  swap1\n  dup2\n  and\n    /* \"Documents/GitHub/contract-token-cryptoMonster/backend/components/PhaseSeed.sol\":206:248  0x78731D3Ca6b7E34aC0F824c42a7cC18A495cabaB */\n  0x78731d3ca6b7e34ac0f824c42a7cc18a495cabab\n    /* \"Documents/GitHub/contract-token-cryptoMonster/backend/components/PhaseSeed.sol\":179:248  address investorFirstAdr = 0x78731D3Ca6b7E34aC0F824c42a7cC18A495cabaB */\n  or\n  swap1\n  swap2\n  sstore\n    /* \"Documents/GitHub/contract-token-cryptoMonster/backend/components/PhaseSeed.sol\":269:339  address investorSecondAdr = 0x617F2E2fD72FD9D5503197092aC168c91465E7f2 */\n  0x04\n  dup1\n  sload\n  dup3\n  and\n    /* \"Documents/GitHub/contract-token-cryptoMonster/backend/components/PhaseSeed.sol\":297:339  0x617F2E2fD72FD9D5503197092aC168c91465E7f2 */\n  0x617f2e2fd72fd9d5503197092ac168c91465e7f2\n    /* \"Documents/GitHub/contract-token-cryptoMonster/backend/components/PhaseSeed.sol\":269:339  address investorSecondAdr = 0x617F2E2fD72FD9D5503197092aC168c91465E7f2 */\n  or\n  swap1\n  sstore\n    /* \"Documents/GitHub/contract-token-cryptoMonster/backend/components/PhaseSeed.sol\":359:425  address bestFriendAdr = 0x17F6AD8Ef982297579C203069C1DbfFE4348c372 */\n  0x05\n  dup1\n  sload\n  swap1\n  swap2\n  and\n    /* \"Documents/GitHub/contract-token-cryptoMonster/backend/components/PhaseSeed.sol\":383:425  0x17F6AD8Ef982297579C203069C1DbfFE4348c372 */\n  0x17f6ad8ef982297579c203069c1dbffe4348c372\n    /* \"Documents/GitHub/contract-token-cryptoMonster/backend/components/PhaseSeed.sol\":359:425  address bestFriendAdr = 0x17F6AD8Ef982297579C203069C1DbfFE4348c372 */\n  or\n  swap1\n  sstore\n    /* \"Documents/GitHub/contract-token-cryptoMonster/backend/components/CryptoMonster.sol\":1197:1207  1000000000 */\n  0x3b9aca00\n    /* \"Documents/GitHub/contract-token-cryptoMonster/backend/components/CryptoMonster.sol\":1168:1207  uint256 public tokenPrice_ = 1000000000 */\n  0x08\n  sstore\n    /* \"Documents/GitHub/contract-token-cryptoMonster/backend/components/CryptoMonster.sol\":1775:3374  constructor(uint256 total) {\r... */\n  callvalue\n  dup1\n  iszero\n  tag_1\n  jumpi\n  0x00\n  dup1\n  revert\ntag_1:\n  pop\n  mload(0x40)\n  sub(codesize, bytecodeSize)\n  dup1\n  bytecodeSize\n  dup4\n  codecopy\n  dup2\n  add\n  0x40\n  dup2\n  swap1\n  mstore\n  tag_2\n  swap2\n  tag_3\n  jump\t// in\ntag_2:\n    /* \"Documents/GitHub/contract-token-cryptoMonster/backend/components/PhaseSeed.sol\":584:658  structUser(Role.INVESTOR , \"Investor1\", get_keccak256(\"3412\"), 0, 0, 0, 0) */\n  0x40\n  dup1\n  mload\n  0xe0\n  dup2\n  add\n  swap1\n  swap2\n  mstore\n  dup1\n    /* \"Documents/GitHub/contract-token-cryptoMonster/backend/components/PhaseSeed.sol\":595:608  Role.INVESTOR */\n  0x03\n    /* \"Documents/GitHub/contract-token-cryptoMonster/backend/components/PhaseSeed.sol\":584:658  structUser(Role.INVESTOR , \"Investor1\", get_keccak256(\"3412\"), 0, 0, 0, 0) */\n  dup2\n  mstore\n  0x20\n  add\n  mload(0x40)\n  dup1\n  0x40\n  add\n  0x40\n  mstore\n  dup1\n  0x09\n  dup2\n  mstore\n  0x20\n  add\n  shl(0xb8, 0x496e766573746f7231)\n  dup2\n  mstore\n  pop\n  dup2\n  mstore\n  0x20\n  add\n    /* \"Documents/GitHub/contract-token-cryptoMonster/backend/components/PhaseSeed.sol\":624:645  get_keccak256(\"3412\") */\n  tag_10\n  mload(0x40)\n  dup1\n  0x40\n  add\n  0x40\n  mstore\n  dup1\n  0x04\n  dup2\n  mstore\n  0x20\n  add\n  shl(0xe1, 0x199a1899)\n  dup2\n  mstore\n  pop\n    /* \"Documents/GitHub/contract-token-cryptoMonster/backend/components/PhaseSeed.sol\":624:637  get_keccak256 */\n  shl(0x20, tag_11)\n    /* \"Documents/GitHub/contract-token-cryptoMonster/backend/components/PhaseSeed.sol\":624:645  get_keccak256(\"3412\") */\n  0x20\n  shr\n  jump\t// in\ntag_10:\n    /* \"Documents/GitHub/contract-token-cryptoMonster/backend/components/PhaseSeed.sol\":584:658  structUser(Role.INVESTOR , \"Investor1\", get_keccak256(\"3412\"), 0, 0, 0, 0) */\n  dup2\n  mstore\n    /* \"Documents/GitHub/contract-token-cryptoMonster/backend/components/PhaseSeed.sol\":647:648  0 */\n  0x00\n    /* \"Documents/GitHub/contract-token-cryptoMonster/backend/components/PhaseSeed.sol\":584:658  structUser(Role.INVESTOR , \"Investor1\", get_keccak256(\"3412\"), 0, 0, 0, 0) */\n  0x20\n  dup1\n  dup4\n  add\n  dup3\n  swap1\n  mstore\n  0x40\n  dup1\n  dup5\n  add\n  dup4\n  swap1\n  mstore\n  0x60\n  dup5\n  add\n  dup4\n  swap1\n  mstore\n  0x80\n  swap1\n  swap4\n  add\n  dup3\n  swap1\n  mstore\n    /* \"Documents/GitHub/contract-token-cryptoMonster/backend/components/PhaseSeed.sol\":564:580  investorFirstAdr */\n  and(sub(shl(0xa0, 0x01), 0x01), sload(0x03))\n    /* \"Documents/GitHub/contract-token-cryptoMonster/backend/components/PhaseSeed.sol\":551:581  structUsers_[investorFirstAdr] */\n  dup3\n  mstore\n  dup2\n  swap1\n  mstore\n  keccak256\n    /* \"Documents/GitHub/contract-token-cryptoMonster/backend/components/PhaseSeed.sol\":551:658  structUsers_[investorFirstAdr] = structUser(Role.INVESTOR , \"Investor1\", get_keccak256(\"3412\"), 0, 0, 0, 0) */\n  dup2\n  mload\n  dup2\n  sload\n    /* \"Documents/GitHub/contract-token-cryptoMonster/backend/components/PhaseSeed.sol\":551:581  structUsers_[investorFirstAdr] */\n  dup3\n  swap1\n  not(0xff)\n    /* \"Documents/GitHub/contract-token-cryptoMonster/backend/components/PhaseSeed.sol\":551:658  structUsers_[investorFirstAdr] = structUser(Role.INVESTOR , \"Investor1\", get_keccak256(\"3412\"), 0, 0, 0, 0) */\n  and\n    /* \"Documents/GitHub/contract-token-cryptoMonster/backend/components/PhaseSeed.sol\":564:580  investorFirstAdr */\n  0x01\n    /* \"Documents/GitHub/contract-token-cryptoMonster/backend/components/PhaseSeed.sol\":551:658  structUsers_[investorFirstAdr] = structUser(Role.INVESTOR , \"Investor1\", get_keccak256(\"3412\"), 0, 0, 0, 0) */\n  dup4\n  0x04\n  dup2\n  gt\n  iszero\n  tag_13\n  jumpi\n  tag_13\n  tag_9\n  jump\t// in\ntag_13:\n  mul\n  or\n  swap1\n  sstore\n  pop\n  0x20\n  dup3\n  dup2\n  add\n  mload\n  dup1\n  mload\n  tag_14\n  swap3\n  0x01\n  dup6\n  add\n  swap3\n  add\n  swap1\n  tag_15\n  jump\t// in\ntag_14:\n  pop\n  0x40\n  dup3\n  add\n  mload\n  dup2\n  0x02\n  add\n  sstore\n  0x60\n  dup3\n  add\n  mload\n  dup2\n  0x03\n  add\n  sstore\n  0x80\n  dup3\n  add\n  mload\n  dup2\n  0x04\n  add\n  sstore\n  0xa0\n  dup3\n  add\n  mload\n  dup2\n  0x05\n  add\n  sstore\n  0xc0\n  dup3\n  add\n  mload\n  dup2\n  0x06\n  add\n  sstore\n  swap1\n  pop\n  pop\n    /* \"Documents/GitHub/contract-token-cryptoMonster/backend/components/PhaseSeed.sol\":716:789  structUser(Role.INVESTOR, \"Investor1\", get_keccak256(\"1423\"), 0, 0, 0, 0) */\n  mload(0x40)\n  dup1\n  0xe0\n  add\n  0x40\n  mstore\n  dup1\n    /* \"Documents/GitHub/contract-token-cryptoMonster/backend/components/PhaseSeed.sol\":727:740  Role.INVESTOR */\n  0x03\n    /* \"Documents/GitHub/contract-token-cryptoMonster/backend/components/PhaseSeed.sol\":716:789  structUser(Role.INVESTOR, \"Investor1\", get_keccak256(\"1423\"), 0, 0, 0, 0) */\n  0x04\n  dup2\n  gt\n  iszero\n  tag_17\n  jumpi\n  tag_17\n  tag_9\n  jump\t// in\ntag_17:\n  dup2\n  mstore\n  0x20\n  add\n  mload(0x40)\n  dup1\n  0x40\n  add\n  0x40\n  mstore\n  dup1\n  0x09\n  dup2\n  mstore\n  0x20\n  add\n  shl(0xb8, 0x496e766573746f7231)\n  dup2\n  mstore\n  pop\n  dup2\n  mstore\n  0x20\n  add\n    /* \"Documents/GitHub/contract-token-cryptoMonster/backend/components/PhaseSeed.sol\":755:776  get_keccak256(\"1423\") */\n  tag_18\n  mload(0x40)\n  dup1\n  0x40\n  add\n  0x40\n  mstore\n  dup1\n  0x04\n  dup2\n  mstore\n  0x20\n  add\n  shl(0xe0, 0x31343233)\n  dup2\n  mstore\n  pop\n    /* \"Documents/GitHub/contract-token-cryptoMonster/backend/components/PhaseSeed.sol\":755:768  get_keccak256 */\n  shl(0x20, tag_11)\n    /* \"Documents/GitHub/contract-token-cryptoMonster/backend/components/PhaseSeed.sol\":755:776  get_keccak256(\"1423\") */\n  0x20\n  shr\n  jump\t// in\ntag_18:\n    /* \"Documents/GitHub/contract-token-cryptoMonster/backend/components/PhaseSeed.sol\":716:789  structUser(Role.INVESTOR, \"Investor1\", get_keccak256(\"1423\"), 0, 0, 0, 0) */\n  dup2\n  mstore\n    /* \"Documents/GitHub/contract-token-cryptoMonster/backend/components/PhaseSeed.sol\":778:779  0 */\n  0x00\n    /* \"Documents/GitHub/contract-token-cryptoMonster/backend/components/PhaseSeed.sol\":716:789  structUser(Role.INVESTOR, \"Investor1\", get_keccak256(\"1423\"), 0, 0, 0, 0) */\n  0x20\n  dup1\n  dup4\n  add\n  dup3\n  swap1\n  mstore\n  0x40\n  dup1\n  dup5\n  add\n  dup4\n  swap1\n  mstore\n  0x60\n  dup5\n  add\n  dup4\n  swap1\n  mstore\n  0x80\n  swap1\n  swap4\n  add\n  dup3\n  swap1\n  mstore\n    /* \"Documents/GitHub/contract-token-cryptoMonster/backend/components/PhaseSeed.sol\":695:712  investorSecondAdr */\n  0x04\n  dup1\n  sload\n  sub(shl(0xa0, 0x01), 0x01)\n  and\n    /* \"Documents/GitHub/contract-token-cryptoMonster/backend/components/PhaseSeed.sol\":682:713  structUsers_[investorSecondAdr] */\n  dup4\n  mstore\n  swap1\n  dup3\n  swap1\n  mstore\n  swap2\n  swap1\n  keccak256\n    /* \"Documents/GitHub/contract-token-cryptoMonster/backend/components/PhaseSeed.sol\":682:789  structUsers_[investorSecondAdr] = structUser(Role.INVESTOR, \"Investor1\", get_keccak256(\"1423\"), 0, 0, 0, 0) */\n  dup3\n  mload\n  dup2\n  sload\n    /* \"Documents/GitHub/contract-token-cryptoMonster/backend/components/PhaseSeed.sol\":682:713  structUsers_[investorSecondAdr] */\n  swap2\n  swap3\n    /* \"Documents/GitHub/contract-token-cryptoMonster/backend/components/PhaseSeed.sol\":682:789  structUsers_[investorSecondAdr] = structUser(Role.INVESTOR, \"Investor1\", get_keccak256(\"1423\"), 0, 0, 0, 0) */\n  swap1\n  swap2\n    /* \"Documents/GitHub/contract-token-cryptoMonster/backend/components/PhaseSeed.sol\":682:713  structUsers_[investorSecondAdr] */\n  dup4\n  swap2\n  not(0xff)\n    /* \"Documents/GitHub/contract-token-cryptoMonster/backend/components/PhaseSeed.sol\":682:789  structUsers_[investorSecondAdr] = structUser(Role.INVESTOR, \"Investor1\", get_keccak256(\"1423\"), 0, 0, 0, 0) */\n  swap1\n  swap2\n  and\n  swap1\n    /* \"Documents/GitHub/contract-token-cryptoMonster/backend/components/PhaseSeed.sol\":695:712  investorSecondAdr */\n  0x01\n  swap1\n    /* \"Documents/GitHub/contract-token-cryptoMonster/backend/components/PhaseSeed.sol\":682:789  structUsers_[investorSecondAdr] = structUser(Role.INVESTOR, \"Investor1\", get_keccak256(\"1423\"), 0, 0, 0, 0) */\n  dup5\n  swap1\n  dup2\n  gt\n  iszero\n  tag_20\n  jumpi\n  tag_20\n  tag_9\n  jump\t// in\ntag_20:\n  mul\n  or\n  swap1\n  sstore\n  pop\n  0x20\n  dup3\n  dup2\n  add\n  mload\n  dup1\n  mload\n  tag_21\n  swap3\n  0x01\n  dup6\n  add\n  swap3\n  add\n  swap1\n  tag_15\n  jump\t// in\ntag_21:\n  pop\n  0x40\n  dup3\n  add\n  mload\n  dup2\n  0x02\n  add\n  sstore\n  0x60\n  dup3\n  add\n  mload\n  dup2\n  0x03\n  add\n  sstore\n  0x80\n  dup3\n  add\n  mload\n  dup2\n  0x04\n  add\n  sstore\n  0xa0\n  dup3\n  add\n  mload\n  dup2\n  0x05\n  add\n  sstore\n  0xc0\n  dup3\n  add\n  mload\n  dup2\n  0x06\n  add\n  sstore\n  swap1\n  pop\n  pop\n    /* \"Documents/GitHub/contract-token-cryptoMonster/backend/components/PhaseSeed.sol\":843:918  structUser(Role.INVESTOR, \"Best friend\", get_keccak256(\"2314\"), 0, 0, 0, 0) */\n  mload(0x40)\n  dup1\n  0xe0\n  add\n  0x40\n  mstore\n  dup1\n    /* \"Documents/GitHub/contract-token-cryptoMonster/backend/components/PhaseSeed.sol\":854:867  Role.INVESTOR */\n  0x03\n    /* \"Documents/GitHub/contract-token-cryptoMonster/backend/components/PhaseSeed.sol\":843:918  structUser(Role.INVESTOR, \"Best friend\", get_keccak256(\"2314\"), 0, 0, 0, 0) */\n  0x04\n  dup2\n  gt\n  iszero\n  tag_23\n  jumpi\n  tag_23\n  tag_9\n  jump\t// in\ntag_23:\n  dup2\n  mstore\n  0x20\n  add\n  mload(0x40)\n  dup1\n  0x40\n  add\n  0x40\n  mstore\n  dup1\n  0x0b\n  dup2\n  mstore\n  0x20\n  add\n  shl(0xaa, 0x10995cdd08199c9a595b99)\n  dup2\n  mstore\n  pop\n  dup2\n  mstore\n  0x20\n  add\n    /* \"Documents/GitHub/contract-token-cryptoMonster/backend/components/PhaseSeed.sol\":884:905  get_keccak256(\"2314\") */\n  tag_24\n  mload(0x40)\n  dup1\n  0x40\n  add\n  0x40\n  mstore\n  dup1\n  0x04\n  dup2\n  mstore\n  0x20\n  add\n  shl(0xe2, 0x0c8ccc4d)\n  dup2\n  mstore\n  pop\n    /* \"Documents/GitHub/contract-token-cryptoMonster/backend/components/PhaseSeed.sol\":884:897  get_keccak256 */\n  shl(0x20, tag_11)\n    /* \"Documents/GitHub/contract-token-cryptoMonster/backend/components/PhaseSeed.sol\":884:905  get_keccak256(\"2314\") */\n  0x20\n  shr\n  jump\t// in\ntag_24:\n    /* \"Documents/GitHub/contract-token-cryptoMonster/backend/components/PhaseSeed.sol\":843:918  structUser(Role.INVESTOR, \"Best friend\", get_keccak256(\"2314\"), 0, 0, 0, 0) */\n  dup2\n  mstore\n    /* \"Documents/GitHub/contract-token-cryptoMonster/backend/components/PhaseSeed.sol\":907:908  0 */\n  0x00\n    /* \"Documents/GitHub/contract-token-cryptoMonster/backend/components/PhaseSeed.sol\":843:918  structUser(Role.INVESTOR, \"Best friend\", get_keccak256(\"2314\"), 0, 0, 0, 0) */\n  0x20\n  dup1\n  dup4\n  add\n  dup3\n  swap1\n  mstore\n  0x40\n  dup1\n  dup5\n  add\n  dup4\n  swap1\n  mstore\n  0x60\n  dup5\n  add\n  dup4\n  swap1\n  mstore\n  0x80\n  swap1\n  swap4\n  add\n  dup3\n  swap1\n  mstore\n    /* \"Documents/GitHub/contract-token-cryptoMonster/backend/components/PhaseSeed.sol\":826:839  bestFriendAdr */\n  and(sub(shl(0xa0, 0x01), 0x01), sload(0x05))\n    /* \"Documents/GitHub/contract-token-cryptoMonster/backend/components/PhaseSeed.sol\":813:840  structUsers_[bestFriendAdr] */\n  dup3\n  mstore\n  dup2\n  swap1\n  mstore\n  keccak256\n    /* \"Documents/GitHub/contract-token-cryptoMonster/backend/components/PhaseSeed.sol\":813:918  structUsers_[bestFriendAdr] = structUser(Role.INVESTOR, \"Best friend\", get_keccak256(\"2314\"), 0, 0, 0, 0) */\n  dup2\n  mload\n  dup2\n  sload\n    /* \"Documents/GitHub/contract-token-cryptoMonster/backend/components/PhaseSeed.sol\":813:840  structUsers_[bestFriendAdr] */\n  dup3\n  swap1\n  not(0xff)\n    /* \"Documents/GitHub/contract-token-cryptoMonster/backend/components/PhaseSeed.sol\":813:918  structUsers_[bestFriendAdr] = structUser(Role.INVESTOR, \"Best friend\", get_keccak256(\"2314\"), 0, 0, 0, 0) */\n  and\n    /* \"Documents/GitHub/contract-token-cryptoMonster/backend/components/PhaseSeed.sol\":826:839  bestFriendAdr */\n  0x01\n    /* \"Documents/GitHub/contract-token-cryptoMonster/backend/components/PhaseSeed.sol\":813:918  structUsers_[bestFriendAdr] = structUser(Role.INVESTOR, \"Best friend\", get_keccak256(\"2314\"), 0, 0, 0, 0) */\n  dup4\n  0x04\n  dup2\n  gt\n  iszero\n  tag_26\n  jumpi\n  tag_26\n  tag_9\n  jump\t// in\ntag_26:\n  mul\n  or\n  swap1\n  sstore\n  pop\n  0x20\n  dup3\n  dup2\n  add\n  mload\n  dup1\n  mload\n  tag_27\n  swap3\n  0x01\n  dup6\n  add\n  swap3\n  add\n  swap1\n  tag_15\n  jump\t// in\ntag_27:\n  pop\n  0x40\n  dup3\n  dup2\n  add\n  mload\n  0x02\n  dup4\n  add\n  sstore\n  0x60\n  dup4\n  add\n  mload\n  0x03\n  dup4\n  add\n  sstore\n  0x80\n  dup4\n  add\n  mload\n  0x04\n  dup4\n  add\n  sstore\n  0xa0\n  dup4\n  add\n  mload\n  0x05\n  dup4\n  add\n  sstore\n  0xc0\n  swap1\n  swap3\n  add\n  mload\n  0x06\n  swap1\n  swap2\n  add\n  sstore\n    /* \"Documents/GitHub/contract-token-cryptoMonster/backend/components/CryptoMonster.sol\":1813:1825  totalSupply_ */\n  0x07\n    /* \"Documents/GitHub/contract-token-cryptoMonster/backend/components/CryptoMonster.sol\":1813:1833  totalSupply_ = total */\n  dup3\n  swap1\n  sstore\n    /* \"Documents/GitHub/contract-token-cryptoMonster/backend/components/CryptoMonster.sol\":1921:2005  structUser(Role.SYSTEM_OWNER ,\"owner\", get_keccak256(\"3412\"), totalSupply_, 0, 0, 0) */\n  dup1\n  mload\n  0xe0\n  dup2\n  add\n  swap1\n  swap2\n  mstore\n  dup1\n  0x00\n  dup2\n  mstore\n  0x20\n  add\n  mload(0x40)\n  dup1\n  0x40\n  add\n  0x40\n  mstore\n  dup1\n  0x05\n  dup2\n  mstore\n  0x20\n  add\n  shl(0xd9, 0x37bbb732b9)\n  dup2\n  mstore\n  pop\n  dup2\n  mstore\n  0x20\n  add\n    /* \"Documents/GitHub/contract-token-cryptoMonster/backend/components/CryptoMonster.sol\":1960:1981  get_keccak256(\"3412\") */\n  tag_31\n  mload(0x40)\n  dup1\n  0x40\n  add\n  0x40\n  mstore\n  dup1\n  0x04\n  dup2\n  mstore\n  0x20\n  add\n  shl(0xe1, 0x199a1899)\n  dup2\n  mstore\n  pop\n    /* \"Documents/GitHub/contract-token-cryptoMonster/backend/components/CryptoMonster.sol\":1960:1973  get_keccak256 */\n  shl(0x20, tag_11)\n    /* \"Documents/GitHub/contract-token-cryptoMonster/backend/components/CryptoMonster.sol\":1960:1981  get_keccak256(\"3412\") */\n  0x20\n  shr\n  jump\t// in\ntag_31:\n    /* \"Documents/GitHub/contract-token-cryptoMonster/backend/components/CryptoMonster.sol\":1921:2005  structUser(Role.SYSTEM_OWNER ,\"owner\", get_keccak256(\"3412\"), totalSupply_, 0, 0, 0) */\n  dup2\n  mstore\n    /* \"Documents/GitHub/contract-token-cryptoMonster/backend/components/CryptoMonster.sol\":1983:1995  totalSupply_ */\n  sload(0x07)\n    /* \"Documents/GitHub/contract-token-cryptoMonster/backend/components/CryptoMonster.sol\":1921:2005  structUser(Role.SYSTEM_OWNER ,\"owner\", get_keccak256(\"3412\"), totalSupply_, 0, 0, 0) */\n  0x20\n  dup1\n  dup4\n  add\n  swap2\n  swap1\n  swap2\n  mstore\n  0x00\n  0x40\n  dup4\n  add\n  dup2\n  swap1\n  mstore\n  0x60\n  dup4\n  add\n  dup2\n  swap1\n  mstore\n  0x80\n  swap1\n  swap3\n  add\n  dup3\n  swap1\n  mstore\n    /* \"Documents/GitHub/contract-token-cryptoMonster/backend/components/CryptoMonster.sol\":1461:1503  0x5B38Da6a701c568545dCfcB03FcB875f56beddC4 */\n  0x5b38da6a701c568545dcfcb03fcb875f56beddc4\n    /* \"Documents/GitHub/contract-token-cryptoMonster/backend/components/CryptoMonster.sol\":1896:1918  structUsers_[ownerAdr] */\n  dup3\n  mstore\n  mstore\n    /* \"Documents/GitHub/contract-token-cryptoMonster/backend/components/CryptoMonster.sol\":1896:2005  structUsers_[ownerAdr] = structUser(Role.SYSTEM_OWNER ,\"owner\", get_keccak256(\"3412\"), totalSupply_, 0, 0, 0) */\n  dup1\n  mload\n    /* \"Documents/GitHub/contract-token-cryptoMonster/backend/components/CryptoMonster.sol\":1896:1918  structUsers_[ownerAdr] */\n  0x58f8e73c330daffe64653449eb9a999c1162911d5129dd8193c7233d46ade2d5\n    /* \"Documents/GitHub/contract-token-cryptoMonster/backend/components/CryptoMonster.sol\":1896:2005  structUsers_[ownerAdr] = structUser(Role.SYSTEM_OWNER ,\"owner\", get_keccak256(\"3412\"), totalSupply_, 0, 0, 0) */\n  dup1\n  sload\n    /* \"Documents/GitHub/contract-token-cryptoMonster/backend/components/CryptoMonster.sol\":1896:1918  structUsers_[ownerAdr] */\n  swap1\n  swap2\n    /* \"Documents/GitHub/contract-token-cryptoMonster/backend/components/CryptoMonster.sol\":1896:2005  structUsers_[ownerAdr] = structUser(Role.SYSTEM_OWNER ,\"owner\", get_keccak256(\"3412\"), totalSupply_, 0, 0, 0) */\n  swap1\n    /* \"Documents/GitHub/contract-token-cryptoMonster/backend/components/CryptoMonster.sol\":1896:1918  structUsers_[ownerAdr] */\n  dup3\n  swap1\n  not(0xff)\n    /* \"Documents/GitHub/contract-token-cryptoMonster/backend/components/CryptoMonster.sol\":1896:2005  structUsers_[ownerAdr] = structUser(Role.SYSTEM_OWNER ,\"owner\", get_keccak256(\"3412\"), totalSupply_, 0, 0, 0) */\n  and\n  0x01\n  dup4\n  0x04\n  dup2\n  gt\n  iszero\n  tag_33\n  jumpi\n  tag_33\n  tag_9\n  jump\t// in\ntag_33:\n  mul\n  or\n  swap1\n  sstore\n  pop\n  0x20\n  dup3\n  dup2\n  add\n  mload\n  dup1\n  mload\n  tag_34\n  swap3\n  0x01\n  dup6\n  add\n  swap3\n  add\n  swap1\n  tag_15\n  jump\t// in\ntag_34:\n  pop\n  0x40\n  dup3\n  add\n  mload\n  dup2\n  0x02\n  add\n  sstore\n  0x60\n  dup3\n  add\n  mload\n  dup2\n  0x03\n  add\n  sstore\n  0x80\n  dup3\n  add\n  mload\n  dup2\n  0x04\n  add\n  sstore\n  0xa0\n  dup3\n  add\n  mload\n  dup2\n  0x05\n  add\n  sstore\n  0xc0\n  dup3\n  add\n  mload\n  dup2\n  0x06\n  add\n  sstore\n  swap1\n  pop\n  pop\n    /* \"Documents/GitHub/contract-token-cryptoMonster/backend/components/CryptoMonster.sol\":2084:2170  structUser(Role.SYSTEM_PRIVATE, \"Private provider\", get_keccak256(\"1423\"), 0, 0, 0, 0) */\n  mload(0x40)\n  dup1\n  0xe0\n  add\n  0x40\n  mstore\n  dup1\n    /* \"Documents/GitHub/contract-token-cryptoMonster/backend/components/CryptoMonster.sol\":2095:2114  Role.SYSTEM_PRIVATE */\n  0x02\n    /* \"Documents/GitHub/contract-token-cryptoMonster/backend/components/CryptoMonster.sol\":2084:2170  structUser(Role.SYSTEM_PRIVATE, \"Private provider\", get_keccak256(\"1423\"), 0, 0, 0, 0) */\n  0x04\n  dup2\n  gt\n  iszero\n  tag_36\n  jumpi\n  tag_36\n  tag_9\n  jump\t// in\ntag_36:\n  dup2\n  mstore\n  0x20\n  add\n  mload(0x40)\n  dup1\n  0x40\n  add\n  0x40\n  mstore\n  dup1\n  0x10\n  dup2\n  mstore\n  0x20\n  add\n  shl(0x81, 0x283934bb30ba3290383937bb34b232b9)\n  dup2\n  mstore\n  pop\n  dup2\n  mstore\n  0x20\n  add\n    /* \"Documents/GitHub/contract-token-cryptoMonster/backend/components/CryptoMonster.sol\":2136:2157  get_keccak256(\"1423\") */\n  tag_37\n  mload(0x40)\n  dup1\n  0x40\n  add\n  0x40\n  mstore\n  dup1\n  0x04\n  dup2\n  mstore\n  0x20\n  add\n  shl(0xe0, 0x31343233)\n  dup2\n  mstore\n  pop\n    /* \"Documents/GitHub/contract-token-cryptoMonster/backend/components/CryptoMonster.sol\":2136:2149  get_keccak256 */\n  shl(0x20, tag_11)\n    /* \"Documents/GitHub/contract-token-cryptoMonster/backend/components/CryptoMonster.sol\":2136:2157  get_keccak256(\"1423\") */\n  0x20\n  shr\n  jump\t// in\ntag_37:\n    /* \"Documents/GitHub/contract-token-cryptoMonster/backend/components/CryptoMonster.sol\":2084:2170  structUser(Role.SYSTEM_PRIVATE, \"Private provider\", get_keccak256(\"1423\"), 0, 0, 0, 0) */\n  dup2\n  mstore\n    /* \"Documents/GitHub/contract-token-cryptoMonster/backend/components/CryptoMonster.sol\":2159:2160  0 */\n  0x00\n    /* \"Documents/GitHub/contract-token-cryptoMonster/backend/components/CryptoMonster.sol\":2084:2170  structUser(Role.SYSTEM_PRIVATE, \"Private provider\", get_keccak256(\"1423\"), 0, 0, 0, 0) */\n  0x20\n  dup1\n  dup4\n  add\n  dup3\n  swap1\n  mstore\n  0x40\n  dup4\n  add\n  dup3\n  swap1\n  mstore\n  0x60\n  dup4\n  add\n  dup3\n  swap1\n  mstore\n  0x80\n  swap1\n  swap3\n  add\n  dup2\n  swap1\n  mstore\n  0x00\n  dup1\n  mload\n  0x20\n  data_e92b278610ce8b6027ef7ad432103699b0132d8b129c33a54a54aa5151a105a3\n  dup4\n  codecopy\n  dup2\n  mload\n  swap2\n  mstore\n    /* \"Documents/GitHub/contract-token-cryptoMonster/backend/components/CryptoMonster.sol\":2049:2081  structUsers_[privateProviderAdr] */\n  dup2\n  mstore\n  swap1\n  mstore\n    /* \"Documents/GitHub/contract-token-cryptoMonster/backend/components/CryptoMonster.sol\":2049:2170  structUsers_[privateProviderAdr] = structUser(Role.SYSTEM_PRIVATE, \"Private provider\", get_keccak256(\"1423\"), 0, 0, 0, 0) */\n  dup1\n  mload\n  0x00\n  dup1\n  mload\n  0x20\n  data_b419932d51bf6bdfed16bae3f9f1f38a5df16d2ef9b0328748b1d9edd7c1e16c\n  dup4\n  codecopy\n  dup2\n  mload\n  swap2\n  mstore\n  dup1\n  sload\n    /* \"Documents/GitHub/contract-token-cryptoMonster/backend/components/CryptoMonster.sol\":2049:2081  structUsers_[privateProviderAdr] */\n  swap1\n  swap2\n    /* \"Documents/GitHub/contract-token-cryptoMonster/backend/components/CryptoMonster.sol\":2049:2170  structUsers_[privateProviderAdr] = structUser(Role.SYSTEM_PRIVATE, \"Private provider\", get_keccak256(\"1423\"), 0, 0, 0, 0) */\n  swap1\n    /* \"Documents/GitHub/contract-token-cryptoMonster/backend/components/CryptoMonster.sol\":2049:2081  structUsers_[privateProviderAdr] */\n  dup3\n  swap1\n  not(0xff)\n    /* \"Documents/GitHub/contract-token-cryptoMonster/backend/components/CryptoMonster.sol\":2049:2170  structUsers_[privateProviderAdr] = structUser(Role.SYSTEM_PRIVATE, \"Private provider\", get_keccak256(\"1423\"), 0, 0, 0, 0) */\n  and\n  0x01\n  dup4\n  0x04\n  dup2\n  gt\n  iszero\n  tag_39\n  jumpi\n  tag_39\n  tag_9\n  jump\t// in\ntag_39:\n  mul\n  or\n  swap1\n  sstore\n  pop\n  0x20\n  dup3\n  dup2\n  add\n  mload\n  dup1\n  mload\n  tag_40\n  swap3\n  0x01\n  dup6\n  add\n  swap3\n  add\n  swap1\n  tag_15\n  jump\t// in\ntag_40:\n  pop\n  0x40\n  dup3\n  dup2\n  add\n  mload\n  0x02\n  dup4\n  add\n  sstore\n  0x60\n  dup4\n  add\n  mload\n  0x03\n  dup4\n  add\n  sstore\n  0x80\n  dup4\n  add\n  mload\n  0x04\n  dup4\n  add\n  sstore\n  0xa0\n  dup4\n  add\n  mload\n  0x05\n  dup4\n  add\n  sstore\n  0xc0\n  swap1\n  swap3\n  add\n  mload\n  0x06\n  swap1\n  swap2\n  add\n  sstore\n    /* \"Documents/GitHub/contract-token-cryptoMonster/backend/components/CryptoMonster.sol\":2251:2263  totalSupply_ */\n  sload(0x07)\n  0x00\n  dup1\n  mload\n  0x20\n  data_e92b278610ce8b6027ef7ad432103699b0132d8b129c33a54a54aa5151a105a3\n  dup4\n  codecopy\n  dup2\n  mload\n  swap2\n  mstore\n  0x00\n    /* \"Documents/GitHub/contract-token-cryptoMonster/backend/components/CryptoMonster.sol\":2211:2248  allowed[ownerAdr][privateProviderAdr] */\n  mstore\n  0x00\n  dup1\n  mload\n  0x20\n  data_aafb3744b162f07202c1cec14b08048e79801d7c878b2c0eab16dd2801fec9ce\n  dup4\n  codecopy\n  dup2\n  mload\n  swap2\n  mstore\n    /* \"Documents/GitHub/contract-token-cryptoMonster/backend/components/CryptoMonster.sol\":2211:2263  allowed[ownerAdr][privateProviderAdr] = totalSupply_ */\n  sstore\n    /* \"Documents/GitHub/contract-token-cryptoMonster/backend/components/CryptoMonster.sol\":2402:2415  structPhases_ */\n  0x01\n    /* \"Documents/GitHub/contract-token-cryptoMonster/backend/components/CryptoMonster.sol\":2211:2228  allowed[ownerAdr] */\n  0x20\n    /* \"Documents/GitHub/contract-token-cryptoMonster/backend/components/CryptoMonster.sol\":2402:2435  structPhases_[privateProviderAdr] */\n  dup2\n  swap1\n  mstore\n  0x9d4d959825f0680278e64197773b2a50cd78b2b2cb00711ddbeebf0bf93cd8a4\n    /* \"Documents/GitHub/contract-token-cryptoMonster/backend/components/CryptoMonster.sol\":2402:2455  structPhases_[privateProviderAdr].statusPhase = false */\n  dup1\n  sload\n  not(0xff)\n  and\n  swap1\n  sstore\n    /* \"Documents/GitHub/contract-token-cryptoMonster/backend/components/CryptoMonster.sol\":2616:2700  structUser(Role.SYSTEM_PUBLIC, \"Public provider\", get_keccak256(\"2314\"), 0, 0, 0, 0) */\n  dup2\n  mload\n  0xe0\n  dup2\n  add\n  swap1\n  swap3\n  mstore\n  dup2\n  swap1\n  dup2\n  mstore\n  0x20\n  add\n  mload(0x40)\n  dup1\n  0x40\n  add\n  0x40\n  mstore\n  dup1\n  0x0f\n  dup2\n  mstore\n  0x20\n  add\n  shl(0x89, 0x283ab13634b190383937bb34b232b9)\n  dup2\n  mstore\n  pop\n  dup2\n  mstore\n  0x20\n  add\n    /* \"Documents/GitHub/contract-token-cryptoMonster/backend/components/CryptoMonster.sol\":2666:2687  get_keccak256(\"2314\") */\n  tag_43\n  mload(0x40)\n  dup1\n  0x40\n  add\n  0x40\n  mstore\n  dup1\n  0x04\n  dup2\n  mstore\n  0x20\n  add\n  shl(0xe2, 0x0c8ccc4d)\n  dup2\n  mstore\n  pop\n    /* \"Documents/GitHub/contract-token-cryptoMonster/backend/components/CryptoMonster.sol\":2666:2679  get_keccak256 */\n  shl(0x20, tag_11)\n    /* \"Documents/GitHub/contract-token-cryptoMonster/backend/components/CryptoMonster.sol\":2666:2687  get_keccak256(\"2314\") */\n  0x20\n  shr\n  jump\t// in\ntag_43:\n    /* \"Documents/GitHub/contract-token-cryptoMonster/backend/components/CryptoMonster.sol\":2616:2700  structUser(Role.SYSTEM_PUBLIC, \"Public provider\", get_keccak256(\"2314\"), 0, 0, 0, 0) */\n  dup2\n  mstore\n    /* \"Documents/GitHub/contract-token-cryptoMonster/backend/components/CryptoMonster.sol\":2689:2690  0 */\n  0x00\n    /* \"Documents/GitHub/contract-token-cryptoMonster/backend/components/CryptoMonster.sol\":2616:2700  structUser(Role.SYSTEM_PUBLIC, \"Public provider\", get_keccak256(\"2314\"), 0, 0, 0, 0) */\n  0x20\n  dup1\n  dup4\n  add\n  dup3\n  swap1\n  mstore\n  0x40\n  dup4\n  add\n  dup3\n  swap1\n  mstore\n  0x60\n  dup4\n  add\n  dup3\n  swap1\n  mstore\n  0x80\n  swap1\n  swap3\n  add\n  dup2\n  swap1\n  mstore\n  0x00\n  dup1\n  mload\n  0x20\n  data_e92b278610ce8b6027ef7ad432103699b0132d8b129c33a54a54aa5151a105a3\n  dup4\n  codecopy\n  dup2\n  mload\n  swap2\n  mstore\n    /* \"Documents/GitHub/contract-token-cryptoMonster/backend/components/CryptoMonster.sol\":2582:2613  structUsers_[publicProviderAdr] */\n  dup2\n  mstore\n  swap1\n  mstore\n    /* \"Documents/GitHub/contract-token-cryptoMonster/backend/components/CryptoMonster.sol\":2582:2700  structUsers_[publicProviderAdr] = structUser(Role.SYSTEM_PUBLIC, \"Public provider\", get_keccak256(\"2314\"), 0, 0, 0, 0) */\n  dup1\n  mload\n  0x00\n  dup1\n  mload\n  0x20\n  data_b419932d51bf6bdfed16bae3f9f1f38a5df16d2ef9b0328748b1d9edd7c1e16c\n  dup4\n  codecopy\n  dup2\n  mload\n  swap2\n  mstore\n  dup1\n  sload\n    /* \"Documents/GitHub/contract-token-cryptoMonster/backend/components/CryptoMonster.sol\":2582:2613  structUsers_[publicProviderAdr] */\n  swap1\n  swap2\n    /* \"Documents/GitHub/contract-token-cryptoMonster/backend/components/CryptoMonster.sol\":2582:2700  structUsers_[publicProviderAdr] = structUser(Role.SYSTEM_PUBLIC, \"Public provider\", get_keccak256(\"2314\"), 0, 0, 0, 0) */\n  swap1\n    /* \"Documents/GitHub/contract-token-cryptoMonster/backend/components/CryptoMonster.sol\":2582:2613  structUsers_[publicProviderAdr] */\n  dup3\n  swap1\n  not(0xff)\n    /* \"Documents/GitHub/contract-token-cryptoMonster/backend/components/CryptoMonster.sol\":2582:2700  structUsers_[publicProviderAdr] = structUser(Role.SYSTEM_PUBLIC, \"Public provider\", get_keccak256(\"2314\"), 0, 0, 0, 0) */\n  and\n  0x01\n  dup4\n  0x04\n  dup2\n  gt\n  iszero\n  tag_45\n  jumpi\n  tag_45\n  tag_9\n  jump\t// in\ntag_45:\n  mul\n  or\n  swap1\n  sstore\n  pop\n  0x20\n  dup3\n  dup2\n  add\n  mload\n  dup1\n  mload\n  tag_46\n  swap3\n  0x01\n  dup6\n  add\n  swap3\n  add\n  swap1\n  tag_15\n  jump\t// in\ntag_46:\n  pop\n  0x40\n  dup3\n  add\n  mload\n  0x02\n  dup3\n  add\n  sstore\n  0x60\n  dup3\n  add\n  mload\n  0x03\n  dup1\n  dup4\n  add\n  swap2\n  swap1\n  swap2\n  sstore\n  0x80\n  dup4\n  add\n  mload\n  0x04\n  dup4\n  add\n  sstore\n  0xa0\n  dup4\n  add\n  mload\n  0x05\n  dup4\n  add\n  sstore\n  0xc0\n  swap1\n  swap3\n  add\n  mload\n  0x06\n  swap1\n  swap2\n  add\n  sstore\n    /* \"Documents/GitHub/contract-token-cryptoMonster/backend/components/CryptoMonster.sol\":2782:2794  totalSupply_ */\n  sload(0x07)\n  0x00\n  dup1\n  mload\n  0x20\n  data_e92b278610ce8b6027ef7ad432103699b0132d8b129c33a54a54aa5151a105a3\n  dup4\n  codecopy\n  dup2\n  mload\n  swap2\n  mstore\n  0x00\n    /* \"Documents/GitHub/contract-token-cryptoMonster/backend/components/CryptoMonster.sol\":2743:2779  allowed[ownerAdr][publicProviderAdr] */\n  mstore\n  0x00\n  dup1\n  mload\n  0x20\n  data_aafb3744b162f07202c1cec14b08048e79801d7c878b2c0eab16dd2801fec9ce\n  dup4\n  codecopy\n  dup2\n  mload\n  swap2\n  mstore\n    /* \"Documents/GitHub/contract-token-cryptoMonster/backend/components/CryptoMonster.sol\":2743:2794  allowed[ownerAdr][publicProviderAdr] = totalSupply_ */\n  sstore\n    /* \"Documents/GitHub/contract-token-cryptoMonster/backend/components/CryptoMonster.sol\":2933:2946  structPhases_ */\n  0x01\n    /* \"Documents/GitHub/contract-token-cryptoMonster/backend/components/CryptoMonster.sol\":2743:2760  allowed[ownerAdr] */\n  0x20\n    /* \"Documents/GitHub/contract-token-cryptoMonster/backend/components/CryptoMonster.sol\":2933:2965  structPhases_[publicProviderAdr] */\n  mstore\n  0x9d4d959825f0680278e64197773b2a50cd78b2b2cb00711ddbeebf0bf93cd8a4\n    /* \"Documents/GitHub/contract-token-cryptoMonster/backend/components/CryptoMonster.sol\":2933:2985  structPhases_[publicProviderAdr].statusPhase = false */\n  dup1\n  sload\n  not(0xff)\n  and\n  swap1\n  sstore\n    /* \"Documents/GitHub/contract-token-cryptoMonster/backend/components/CryptoMonster.sol\":3207:3223  investorFirstAdr */\n  sload\n    /* \"Documents/GitHub/contract-token-cryptoMonster/backend/components/CryptoMonster.sol\":3198:3232  transfer(investorFirstAdr, 600000) */\n  tag_47\n  swap1\n  sub(shl(0xa0, 0x01), 0x01)\n    /* \"Documents/GitHub/contract-token-cryptoMonster/backend/components/CryptoMonster.sol\":3207:3223  investorFirstAdr */\n  and\n    /* \"Documents/GitHub/contract-token-cryptoMonster/backend/components/CryptoMonster.sol\":3225:3231  600000 */\n  0x0927c0\n    /* \"Documents/GitHub/contract-token-cryptoMonster/backend/components/CryptoMonster.sol\":3198:3206  transfer */\n  tag_48\n    /* \"Documents/GitHub/contract-token-cryptoMonster/backend/components/CryptoMonster.sol\":3198:3232  transfer(investorFirstAdr, 600000) */\n  jump\t// in\ntag_47:\n  pop\n    /* \"Documents/GitHub/contract-token-cryptoMonster/backend/components/CryptoMonster.sol\":3266:3283  investorSecondAdr */\n  sload(0x04)\n    /* \"Documents/GitHub/contract-token-cryptoMonster/backend/components/CryptoMonster.sol\":3257:3292  transfer(investorSecondAdr, 800000) */\n  tag_49\n  swap1\n  sub(shl(0xa0, 0x01), 0x01)\n    /* \"Documents/GitHub/contract-token-cryptoMonster/backend/components/CryptoMonster.sol\":3266:3283  investorSecondAdr */\n  and\n    /* \"Documents/GitHub/contract-token-cryptoMonster/backend/components/CryptoMonster.sol\":3285:3291  800000 */\n  0x0c3500\n    /* \"Documents/GitHub/contract-token-cryptoMonster/backend/components/CryptoMonster.sol\":3257:3265  transfer */\n  tag_48\n    /* \"Documents/GitHub/contract-token-cryptoMonster/backend/components/CryptoMonster.sol\":3257:3292  transfer(investorSecondAdr, 800000) */\n  jump\t// in\ntag_49:\n  pop\n    /* \"Documents/GitHub/contract-token-cryptoMonster/backend/components/CryptoMonster.sol\":3325:3338  bestFriendAdr */\n  sload(0x05)\n    /* \"Documents/GitHub/contract-token-cryptoMonster/backend/components/CryptoMonster.sol\":3316:3347  transfer(bestFriendAdr, 400000) */\n  tag_50\n  swap1\n  sub(shl(0xa0, 0x01), 0x01)\n    /* \"Documents/GitHub/contract-token-cryptoMonster/backend/components/CryptoMonster.sol\":3325:3338  bestFriendAdr */\n  and\n    /* \"Documents/GitHub/contract-token-cryptoMonster/backend/components/CryptoMonster.sol\":3340:3346  400000 */\n  0x061a80\n    /* \"Documents/GitHub/contract-token-cryptoMonster/backend/components/CryptoMonster.sol\":3316:3324  transfer */\n  tag_48\n    /* \"Documents/GitHub/contract-token-cryptoMonster/backend/components/CryptoMonster.sol\":3316:3347  transfer(bestFriendAdr, 400000) */\n  jump\t// in\ntag_50:\n  pop\n    /* \"Documents/GitHub/contract-token-cryptoMonster/backend/components/CryptoMonster.sol\":1775:3374  constructor(uint256 total) {\r... */\n  pop\n    /* \"Documents/GitHub/contract-token-cryptoMonster/backend/components/CryptoMonster.sol\":377:20940  contract CryptoMonster is IERC20, Main, PhaseSeed, PhasePrivate {\r... */\n  jump(tag_173)\n    /* \"Documents/GitHub/contract-token-cryptoMonster/backend/shared/helpers/getFuncs.sol\":144:282  function get_keccak256(string memory _hash) public pure returns(bytes32) {\r... */\ntag_11:\n    /* \"Documents/GitHub/contract-token-cryptoMonster/backend/shared/helpers/getFuncs.sol\":208:215  bytes32 */\n  0x00\n    /* \"Documents/GitHub/contract-token-cryptoMonster/backend/shared/helpers/getFuncs.sol\":266:271  _hash */\n  dup2\n    /* \"Documents/GitHub/contract-token-cryptoMonster/backend/shared/helpers/getFuncs.sol\":249:272  abi.encodePacked(_hash) */\n  add(0x20, mload(0x40))\n  tag_53\n  swap2\n  swap1\n  tag_54\n  jump\t// in\ntag_53:\n  mload(0x40)\n  0x20\n  dup2\n  dup4\n  sub\n  sub\n  dup2\n  mstore\n  swap1\n  0x40\n  mstore\n    /* \"Documents/GitHub/contract-token-cryptoMonster/backend/shared/helpers/getFuncs.sol\":239:273  keccak256(abi.encodePacked(_hash)) */\n  dup1\n  mload\n  swap1\n  0x20\n  add\n  keccak256\n    /* \"Documents/GitHub/contract-token-cryptoMonster/backend/shared/helpers/getFuncs.sol\":232:274  return(keccak256(abi.encodePacked(_hash))) */\n  swap1\n  pop\n    /* \"Documents/GitHub/contract-token-cryptoMonster/backend/shared/helpers/getFuncs.sol\":144:282  function get_keccak256(string memory _hash) public pure returns(bytes32) {\r... */\n  swap2\n  swap1\n  pop\n  jump\t// out\n    /* \"Documents/GitHub/contract-token-cryptoMonster/backend/components/CryptoMonster.sol\":5995:13261  function transfer(address _receiver, uint256 _numTokens) public override returns (bool) {\r... */\ntag_48:\n    /* \"Documents/GitHub/contract-token-cryptoMonster/backend/components/CryptoMonster.sol\":6077:6081  bool */\n  0x00\n    /* \"Documents/GitHub/contract-token-cryptoMonster/backend/components/CryptoMonster.sol\":6098:6158  validatePhase(\"seed\", privateProviderAdr, publicProviderAdr) */\n  tag_56\n  mload(0x40)\n  dup1\n  0x40\n  add\n  0x40\n  mstore\n  dup1\n  0x04\n  dup2\n  mstore\n  0x20\n  add\n  shl(0xe2, 0x1cd95959)\n  dup2\n  mstore\n  pop\n  0x00\n  dup1\n  mload\n  0x20\n  data_e92b278610ce8b6027ef7ad432103699b0132d8b129c33a54a54aa5151a105a3\n  dup4\n  codecopy\n  dup2\n  mload\n  swap2\n  mstore\n    /* \"Documents/GitHub/contract-token-cryptoMonster/backend/components/CryptoMonster.sol\":1694:1736  0xAb8483F64d9C6d1EcF9b849Ae677dD3315835cb2 */\n  dup1\n    /* \"Documents/GitHub/contract-token-cryptoMonster/backend/components/CryptoMonster.sol\":6098:6111  validatePhase */\n  shl(0x20, tag_57)\n    /* \"Documents/GitHub/contract-token-cryptoMonster/backend/components/CryptoMonster.sol\":6098:6158  validatePhase(\"seed\", privateProviderAdr, publicProviderAdr) */\n  0x20\n  shr\n  jump\t// in\ntag_56:\n    /* \"Documents/GitHub/contract-token-cryptoMonster/backend/components/CryptoMonster.sol\":6098:6166  validatePhase(\"seed\", privateProviderAdr, publicProviderAdr) == true */\n  iszero\n  iszero\n    /* \"Documents/GitHub/contract-token-cryptoMonster/backend/components/CryptoMonster.sol\":6162:6166  true */\n  0x01\n    /* \"Documents/GitHub/contract-token-cryptoMonster/backend/components/CryptoMonster.sol\":6098:6166  validatePhase(\"seed\", privateProviderAdr, publicProviderAdr) == true */\n  eq\n    /* \"Documents/GitHub/contract-token-cryptoMonster/backend/components/CryptoMonster.sol\":6094:13253  if (validatePhase(\"seed\", privateProviderAdr, publicProviderAdr) == true)  {                             // !: if фаза SEED\r... */\n  iszero\n  tag_58\n  jumpi\n    /* \"Documents/GitHub/contract-token-cryptoMonster/backend/components/CryptoMonster.sol\":6239:6254  validateOwner() */\n  tag_59\n    /* \"Documents/GitHub/contract-token-cryptoMonster/backend/components/CryptoMonster.sol\":6239:6252  validateOwner */\n  tag_60\n    /* \"Documents/GitHub/contract-token-cryptoMonster/backend/components/CryptoMonster.sol\":6239:6254  validateOwner() */\n  jump\t// in\ntag_59:\n    /* \"Documents/GitHub/contract-token-cryptoMonster/backend/components/CryptoMonster.sol\":6239:6262  validateOwner() == true */\n  iszero\n  iszero\n    /* \"Documents/GitHub/contract-token-cryptoMonster/backend/components/CryptoMonster.sol\":6258:6262  true */\n  0x01\n    /* \"Documents/GitHub/contract-token-cryptoMonster/backend/components/CryptoMonster.sol\":6239:6262  validateOwner() == true */\n  eq\n    /* \"Documents/GitHub/contract-token-cryptoMonster/backend/components/CryptoMonster.sol\":6235:9011  if (validateOwner() == true) {                                                                         // !: if пользователь админ\r... */\n  iszero\n  tag_61\n  jumpi\n    /* \"Documents/GitHub/contract-token-cryptoMonster/backend/components/CryptoMonster.sol\":6435:6445  msg.sender */\n  caller\n    /* \"Documents/GitHub/contract-token-cryptoMonster/backend/components/CryptoMonster.sol\":6422:6434  structUsers_ */\n  0x00\n    /* \"Documents/GitHub/contract-token-cryptoMonster/backend/components/CryptoMonster.sol\":6422:6446  structUsers_[msg.sender] */\n  swap1\n  dup2\n  mstore\n  0x20\n  dup2\n  swap1\n  mstore\n  0x40\n  swap1\n  keccak256\n    /* \"Documents/GitHub/contract-token-cryptoMonster/backend/components/CryptoMonster.sol\":6422:6462  structUsers_[msg.sender].balance_overall */\n  0x03\n  add\n  sload\n    /* \"Documents/GitHub/contract-token-cryptoMonster/backend/components/CryptoMonster.sol\":6408:6462  _numTokens <= structUsers_[msg.sender].balance_overall */\n  dup3\n  gt\n  iszero\n    /* \"Documents/GitHub/contract-token-cryptoMonster/backend/components/CryptoMonster.sol\":6400:6463  require(_numTokens <= structUsers_[msg.sender].balance_overall) */\n  tag_62\n  jumpi\n  0x00\n  dup1\n  revert\ntag_62:\n    /* \"Documents/GitHub/contract-token-cryptoMonster/backend/components/CryptoMonster.sol\":6647:6660  Role.INVESTOR */\n  0x03\n    /* \"Documents/GitHub/contract-token-cryptoMonster/backend/components/CryptoMonster.sol\":6627:6637  msg.sender */\n  caller\n    /* \"Documents/GitHub/contract-token-cryptoMonster/backend/components/CryptoMonster.sol\":6614:6626  structUsers_ */\n  0x00\n    /* \"Documents/GitHub/contract-token-cryptoMonster/backend/components/CryptoMonster.sol\":6614:6638  structUsers_[msg.sender] */\n  swap1\n  dup2\n  mstore\n  0x20\n  dup2\n  swap1\n  mstore\n  0x40\n  swap1\n  keccak256\n    /* \"Documents/GitHub/contract-token-cryptoMonster/backend/components/CryptoMonster.sol\":6614:6643  structUsers_[msg.sender].role */\n  sload\n  0xff\n  and\n    /* \"Documents/GitHub/contract-token-cryptoMonster/backend/components/CryptoMonster.sol\":6614:6660  structUsers_[msg.sender].role == Role.INVESTOR */\n  0x04\n  dup2\n  gt\n  iszero\n  tag_66\n  jumpi\n  tag_66\n  tag_9\n  jump\t// in\ntag_66:\n  eq\n    /* \"Documents/GitHub/contract-token-cryptoMonster/backend/components/CryptoMonster.sol\":6605:6682  require (structUsers_[msg.sender].role == Role.INVESTOR, \"Your not investor\") */\n  tag_67\n  jumpi\n  mload(0x40)\n  shl(0xe5, 0x461bcd)\n  dup2\n  mstore\n    /* \"#utility.yul\":838:840   */\n  0x20\n    /* \"Documents/GitHub/contract-token-cryptoMonster/backend/components/CryptoMonster.sol\":6605:6682  require (structUsers_[msg.sender].role == Role.INVESTOR, \"Your not investor\") */\n  0x04\n  dup3\n  add\n    /* \"#utility.yul\":820:841   */\n  mstore\n    /* \"#utility.yul\":877:879   */\n  0x11\n    /* \"#utility.yul\":857:875   */\n  0x24\n  dup3\n  add\n    /* \"#utility.yul\":850:880   */\n  mstore\n  shl(0x79, 0x2cb7bab9103737ba1034b73b32b9ba37b9)\n    /* \"#utility.yul\":896:914   */\n  0x44\n  dup3\n  add\n    /* \"#utility.yul\":889:936   */\n  mstore\n    /* \"#utility.yul\":953:971   */\n  0x64\n  add\n    /* \"Documents/GitHub/contract-token-cryptoMonster/backend/components/CryptoMonster.sol\":6605:6682  require (structUsers_[msg.sender].role == Role.INVESTOR, \"Your not investor\") */\ntag_68:\n  mload(0x40)\n  dup1\n  swap2\n  sub\n  swap1\n  revert\ntag_67:\n    /* \"Documents/GitHub/contract-token-cryptoMonster/backend/components/CryptoMonster.sol\":6853:6866  Role.INVESTOR */\n  0x03\n  sub(shl(0xa0, 0x01), 0x01)\n    /* \"Documents/GitHub/contract-token-cryptoMonster/backend/components/CryptoMonster.sol\":6821:6844  structUsers_[_receiver] */\n  dup5\n  and\n    /* \"Documents/GitHub/contract-token-cryptoMonster/backend/components/CryptoMonster.sol\":6821:6833  structUsers_ */\n  0x00\n    /* \"Documents/GitHub/contract-token-cryptoMonster/backend/components/CryptoMonster.sol\":6821:6844  structUsers_[_receiver] */\n  swap1\n  dup2\n  mstore\n  0x20\n  dup2\n  swap1\n  mstore\n  0x40\n  swap1\n  keccak256\n    /* \"Documents/GitHub/contract-token-cryptoMonster/backend/components/CryptoMonster.sol\":6821:6849  structUsers_[_receiver].role */\n  sload\n  0xff\n  and\n    /* \"Documents/GitHub/contract-token-cryptoMonster/backend/components/CryptoMonster.sol\":6821:6866  structUsers_[_receiver].role == Role.INVESTOR */\n  0x04\n  dup2\n  gt\n  iszero\n  tag_73\n  jumpi\n  tag_73\n  tag_9\n  jump\t// in\ntag_73:\n  eq\n    /* \"Documents/GitHub/contract-token-cryptoMonster/backend/components/CryptoMonster.sol\":6812:6888  require (structUsers_[_receiver].role == Role.INVESTOR, \"Your not investor\") */\n  tag_74\n  jumpi\n  mload(0x40)\n  shl(0xe5, 0x461bcd)\n  dup2\n  mstore\n    /* \"#utility.yul\":838:840   */\n  0x20\n    /* \"Documents/GitHub/contract-token-cryptoMonster/backend/components/CryptoMonster.sol\":6812:6888  require (structUsers_[_receiver].role == Role.INVESTOR, \"Your not investor\") */\n  0x04\n  dup3\n  add\n    /* \"#utility.yul\":820:841   */\n  mstore\n    /* \"#utility.yul\":877:879   */\n  0x11\n    /* \"#utility.yul\":857:875   */\n  0x24\n  dup3\n  add\n    /* \"#utility.yul\":850:880   */\n  mstore\n  shl(0x79, 0x2cb7bab9103737ba1034b73b32b9ba37b9)\n    /* \"#utility.yul\":896:914   */\n  0x44\n  dup3\n  add\n    /* \"#utility.yul\":889:936   */\n  mstore\n    /* \"#utility.yul\":953:971   */\n  0x64\n  add\n    /* \"Documents/GitHub/contract-token-cryptoMonster/backend/components/CryptoMonster.sol\":6812:6888  require (structUsers_[_receiver].role == Role.INVESTOR, \"Your not investor\") */\n  tag_68\n    /* \"#utility.yul\":636:977   */\n  jump\n    /* \"Documents/GitHub/contract-token-cryptoMonster/backend/components/CryptoMonster.sol\":6812:6888  require (structUsers_[_receiver].role == Role.INVESTOR, \"Your not investor\") */\ntag_74:\n    /* \"Documents/GitHub/contract-token-cryptoMonster/backend/components/CryptoMonster.sol\":7077:7087  msg.sender */\n  caller\n    /* \"Documents/GitHub/contract-token-cryptoMonster/backend/components/CryptoMonster.sol\":7064:7076  structUsers_ */\n  0x00\n    /* \"Documents/GitHub/contract-token-cryptoMonster/backend/components/CryptoMonster.sol\":7064:7088  structUsers_[msg.sender] */\n  swap1\n  dup2\n  mstore\n  0x20\n  dup2\n  dup2\n  mstore\n  0x40\n  swap1\n  swap2\n  keccak256\n    /* \"Documents/GitHub/contract-token-cryptoMonster/backend/components/CryptoMonster.sol\":7064:7104  structUsers_[msg.sender].balance_overall */\n  0x03\n  add\n  sload\n    /* \"Documents/GitHub/contract-token-cryptoMonster/backend/components/CryptoMonster.sol\":7064:7120  structUsers_[msg.sender].balance_overall.sub(_numTokens) */\n  tag_76\n  swap2\n    /* \"Documents/GitHub/contract-token-cryptoMonster/backend/components/CryptoMonster.sol\":7109:7119  _numTokens */\n  dup5\n  swap1\n    /* \"Documents/GitHub/contract-token-cryptoMonster/backend/components/CryptoMonster.sol\":7064:7108  structUsers_[msg.sender].balance_overall.sub */\n  tag_0_93\n  tag_77\n  dup3\n  shl\n  or\n    /* \"Documents/GitHub/contract-token-cryptoMonster/backend/components/CryptoMonster.sol\":7064:7120  structUsers_[msg.sender].balance_overall.sub(_numTokens) */\n  swap1\n  shr\n  jump\t// in\ntag_76:\n    /* \"Documents/GitHub/contract-token-cryptoMonster/backend/components/CryptoMonster.sol\":7034:7044  msg.sender */\n  caller\n    /* \"Documents/GitHub/contract-token-cryptoMonster/backend/components/CryptoMonster.sol\":7021:7033  structUsers_ */\n  0x00\n    /* \"Documents/GitHub/contract-token-cryptoMonster/backend/components/CryptoMonster.sol\":7021:7045  structUsers_[msg.sender] */\n  swap1\n  dup2\n  mstore\n  0x20\n  dup2\n  dup2\n  mstore\n  0x40\n  dup1\n  dup4\n  keccak256\n    /* \"Documents/GitHub/contract-token-cryptoMonster/backend/components/CryptoMonster.sol\":7021:7061  structUsers_[msg.sender].balance_overall */\n  0x03\n  add\n    /* \"Documents/GitHub/contract-token-cryptoMonster/backend/components/CryptoMonster.sol\":7021:7120  structUsers_[msg.sender].balance_overall = structUsers_[msg.sender].balance_overall.sub(_numTokens) */\n  swap4\n  swap1\n  swap4\n  sstore\n  sub(shl(0xa0, 0x01), 0x01)\n    /* \"Documents/GitHub/contract-token-cryptoMonster/backend/components/CryptoMonster.sol\":7249:7272  structUsers_[_receiver] */\n  dup7\n  and\n  dup3\n  mstore\n  swap2\n  swap1\n  keccak256\n    /* \"Documents/GitHub/contract-token-cryptoMonster/backend/components/CryptoMonster.sol\":7249:7285  structUsers_[_receiver].balance_seed */\n  0x04\n  add\n  sload\n    /* \"Documents/GitHub/contract-token-cryptoMonster/backend/components/CryptoMonster.sol\":7249:7301  structUsers_[_receiver].balance_seed.add(_numTokens) */\n  tag_78\n  swap2\n    /* \"Documents/GitHub/contract-token-cryptoMonster/backend/components/CryptoMonster.sol\":7290:7300  _numTokens */\n  dup5\n  swap1\n    /* \"Documents/GitHub/contract-token-cryptoMonster/backend/components/CryptoMonster.sol\":7249:7289  structUsers_[_receiver].balance_seed.add */\n  tag_0_94\n  tag_79\n  dup3\n  shl\n  or\n    /* \"Documents/GitHub/contract-token-cryptoMonster/backend/components/CryptoMonster.sol\":7249:7301  structUsers_[_receiver].balance_seed.add(_numTokens) */\n  swap1\n  shr\n  jump\t// in\ntag_78:\n  sub(shl(0xa0, 0x01), 0x01)\n    /* \"Documents/GitHub/contract-token-cryptoMonster/backend/components/CryptoMonster.sol\":7210:7233  structUsers_[_receiver] */\n  dup5\n  and\n    /* \"Documents/GitHub/contract-token-cryptoMonster/backend/components/CryptoMonster.sol\":7210:7222  structUsers_ */\n  0x00\n    /* \"Documents/GitHub/contract-token-cryptoMonster/backend/components/CryptoMonster.sol\":7210:7233  structUsers_[_receiver] */\n  dup2\n  dup2\n  mstore\n  0x20\n  dup2\n  dup2\n  mstore\n  0x40\n  swap2\n  dup3\n  swap1\n  keccak256\n    /* \"Documents/GitHub/contract-token-cryptoMonster/backend/components/CryptoMonster.sol\":7210:7246  structUsers_[_receiver].balance_seed */\n  0x04\n  add\n    /* \"Documents/GitHub/contract-token-cryptoMonster/backend/components/CryptoMonster.sol\":7210:7301  structUsers_[_receiver].balance_seed = structUsers_[_receiver].balance_seed.add(_numTokens) */\n  swap4\n  swap1\n  swap4\n  sstore\n    /* \"Documents/GitHub/contract-token-cryptoMonster/backend/components/CryptoMonster.sol\":7398:7441  Transfer(msg.sender, _receiver, _numTokens) */\n  mload\n    /* \"#utility.yul\":1128:1153   */\n  dup5\n  dup2\n  mstore\n    /* \"Documents/GitHub/contract-token-cryptoMonster/backend/components/CryptoMonster.sol\":7210:7233  structUsers_[_receiver] */\n  swap1\n  swap2\n    /* \"Documents/GitHub/contract-token-cryptoMonster/backend/components/CryptoMonster.sol\":7407:7417  msg.sender */\n  caller\n  swap2\n  0x00\n  dup1\n  mload\n  0x20\n  data_ada389e1fc24a8587c776340efb91b36e675792ab631816100d55df0b5cf3cbc\n  dup4\n  codecopy\n  dup2\n  mload\n  swap2\n  mstore\n    /* \"Documents/GitHub/contract-token-cryptoMonster/backend/components/CryptoMonster.sol\":7398:7441  Transfer(msg.sender, _receiver, _numTokens) */\n  swap2\n    /* \"#utility.yul\":1101:1119   */\n  add\n    /* \"Documents/GitHub/contract-token-cryptoMonster/backend/components/CryptoMonster.sol\":7398:7441  Transfer(msg.sender, _receiver, _numTokens) */\ntag_80:\n  mload(0x40)\n  dup1\n  swap2\n  sub\n  swap1\n  log3\n  pop\n    /* \"Documents/GitHub/contract-token-cryptoMonster/backend/components/CryptoMonster.sol\":7601:7605  true */\n  0x01\n    /* \"Documents/GitHub/contract-token-cryptoMonster/backend/components/CryptoMonster.sol\":7594:7605  return true */\n  jump(tag_127)\n    /* \"Documents/GitHub/contract-token-cryptoMonster/backend/components/CryptoMonster.sol\":6235:9011  if (validateOwner() == true) {                                                                         // !: if пользователь админ\r... */\ntag_61:\n    /* \"Documents/GitHub/contract-token-cryptoMonster/backend/components/CryptoMonster.sol\":7825:7835  msg.sender */\n  caller\n    /* \"Documents/GitHub/contract-token-cryptoMonster/backend/components/CryptoMonster.sol\":7812:7824  structUsers_ */\n  0x00\n    /* \"Documents/GitHub/contract-token-cryptoMonster/backend/components/CryptoMonster.sol\":7812:7836  structUsers_[msg.sender] */\n  swap1\n  dup2\n  mstore\n  0x20\n  dup2\n  swap1\n  mstore\n  0x40\n  swap1\n  keccak256\n    /* \"Documents/GitHub/contract-token-cryptoMonster/backend/components/CryptoMonster.sol\":7812:7849  structUsers_[msg.sender].balance_seed */\n  0x04\n  add\n  sload\n    /* \"Documents/GitHub/contract-token-cryptoMonster/backend/components/CryptoMonster.sol\":7798:7849  _numTokens <= structUsers_[msg.sender].balance_seed */\n  dup3\n  gt\n  iszero\n    /* \"Documents/GitHub/contract-token-cryptoMonster/backend/components/CryptoMonster.sol\":7790:7850  require(_numTokens <= structUsers_[msg.sender].balance_seed) */\n  tag_83\n  jumpi\n  0x00\n  dup1\n  revert\ntag_83:\n    /* \"Documents/GitHub/contract-token-cryptoMonster/backend/components/CryptoMonster.sol\":8037:8050  Role.INVESTOR */\n  0x03\n    /* \"Documents/GitHub/contract-token-cryptoMonster/backend/components/CryptoMonster.sol\":8017:8027  msg.sender */\n  caller\n    /* \"Documents/GitHub/contract-token-cryptoMonster/backend/components/CryptoMonster.sol\":8004:8016  structUsers_ */\n  0x00\n    /* \"Documents/GitHub/contract-token-cryptoMonster/backend/components/CryptoMonster.sol\":8004:8028  structUsers_[msg.sender] */\n  swap1\n  dup2\n  mstore\n  0x20\n  dup2\n  swap1\n  mstore\n  0x40\n  swap1\n  keccak256\n    /* \"Documents/GitHub/contract-token-cryptoMonster/backend/components/CryptoMonster.sol\":8004:8033  structUsers_[msg.sender].role */\n  sload\n  0xff\n  and\n    /* \"Documents/GitHub/contract-token-cryptoMonster/backend/components/CryptoMonster.sol\":8004:8050  structUsers_[msg.sender].role == Role.INVESTOR */\n  0x04\n  dup2\n  gt\n  iszero\n  tag_87\n  jumpi\n  tag_87\n  tag_9\n  jump\t// in\ntag_87:\n  eq\n    /* \"Documents/GitHub/contract-token-cryptoMonster/backend/components/CryptoMonster.sol\":7995:8072  require (structUsers_[msg.sender].role == Role.INVESTOR, \"Your not investor\") */\n  tag_88\n  jumpi\n  mload(0x40)\n  shl(0xe5, 0x461bcd)\n  dup2\n  mstore\n    /* \"#utility.yul\":838:840   */\n  0x20\n    /* \"Documents/GitHub/contract-token-cryptoMonster/backend/components/CryptoMonster.sol\":7995:8072  require (structUsers_[msg.sender].role == Role.INVESTOR, \"Your not investor\") */\n  0x04\n  dup3\n  add\n    /* \"#utility.yul\":820:841   */\n  mstore\n    /* \"#utility.yul\":877:879   */\n  0x11\n    /* \"#utility.yul\":857:875   */\n  0x24\n  dup3\n  add\n    /* \"#utility.yul\":850:880   */\n  mstore\n  shl(0x79, 0x2cb7bab9103737ba1034b73b32b9ba37b9)\n    /* \"#utility.yul\":896:914   */\n  0x44\n  dup3\n  add\n    /* \"#utility.yul\":889:936   */\n  mstore\n    /* \"#utility.yul\":953:971   */\n  0x64\n  add\n    /* \"Documents/GitHub/contract-token-cryptoMonster/backend/components/CryptoMonster.sol\":7995:8072  require (structUsers_[msg.sender].role == Role.INVESTOR, \"Your not investor\") */\n  tag_68\n    /* \"#utility.yul\":636:977   */\n  jump\n    /* \"Documents/GitHub/contract-token-cryptoMonster/backend/components/CryptoMonster.sol\":7995:8072  require (structUsers_[msg.sender].role == Role.INVESTOR, \"Your not investor\") */\ntag_88:\n    /* \"Documents/GitHub/contract-token-cryptoMonster/backend/components/CryptoMonster.sol\":8243:8256  Role.INVESTOR */\n  0x03\n  sub(shl(0xa0, 0x01), 0x01)\n    /* \"Documents/GitHub/contract-token-cryptoMonster/backend/components/CryptoMonster.sol\":8211:8234  structUsers_[_receiver] */\n  dup5\n  and\n    /* \"Documents/GitHub/contract-token-cryptoMonster/backend/components/CryptoMonster.sol\":8211:8223  structUsers_ */\n  0x00\n    /* \"Documents/GitHub/contract-token-cryptoMonster/backend/components/CryptoMonster.sol\":8211:8234  structUsers_[_receiver] */\n  swap1\n  dup2\n  mstore\n  0x20\n  dup2\n  swap1\n  mstore\n  0x40\n  swap1\n  keccak256\n    /* \"Documents/GitHub/contract-token-cryptoMonster/backend/components/CryptoMonster.sol\":8211:8239  structUsers_[_receiver].role */\n  sload\n  0xff\n  and\n    /* \"Documents/GitHub/contract-token-cryptoMonster/backend/components/CryptoMonster.sol\":8211:8256  structUsers_[_receiver].role == Role.INVESTOR */\n  0x04\n  dup2\n  gt\n  iszero\n  tag_93\n  jumpi\n  tag_93\n  tag_9\n  jump\t// in\ntag_93:\n  eq\n    /* \"Documents/GitHub/contract-token-cryptoMonster/backend/components/CryptoMonster.sol\":8202:8278  require (structUsers_[_receiver].role == Role.INVESTOR, \"Your not investor\") */\n  tag_94\n  jumpi\n  mload(0x40)\n  shl(0xe5, 0x461bcd)\n  dup2\n  mstore\n    /* \"#utility.yul\":838:840   */\n  0x20\n    /* \"Documents/GitHub/contract-token-cryptoMonster/backend/components/CryptoMonster.sol\":8202:8278  require (structUsers_[_receiver].role == Role.INVESTOR, \"Your not investor\") */\n  0x04\n  dup3\n  add\n    /* \"#utility.yul\":820:841   */\n  mstore\n    /* \"#utility.yul\":877:879   */\n  0x11\n    /* \"#utility.yul\":857:875   */\n  0x24\n  dup3\n  add\n    /* \"#utility.yul\":850:880   */\n  mstore\n  shl(0x79, 0x2cb7bab9103737ba1034b73b32b9ba37b9)\n    /* \"#utility.yul\":896:914   */\n  0x44\n  dup3\n  add\n    /* \"#utility.yul\":889:936   */\n  mstore\n    /* \"#utility.yul\":953:971   */\n  0x64\n  add\n    /* \"Documents/GitHub/contract-token-cryptoMonster/backend/components/CryptoMonster.sol\":8202:8278  require (structUsers_[_receiver].role == Role.INVESTOR, \"Your not investor\") */\n  tag_68\n    /* \"#utility.yul\":636:977   */\n  jump\n    /* \"Documents/GitHub/contract-token-cryptoMonster/backend/components/CryptoMonster.sol\":8202:8278  require (structUsers_[_receiver].role == Role.INVESTOR, \"Your not investor\") */\ntag_94:\n    /* \"Documents/GitHub/contract-token-cryptoMonster/backend/components/CryptoMonster.sol\":8464:8474  msg.sender */\n  caller\n    /* \"Documents/GitHub/contract-token-cryptoMonster/backend/components/CryptoMonster.sol\":8451:8463  structUsers_ */\n  0x00\n    /* \"Documents/GitHub/contract-token-cryptoMonster/backend/components/CryptoMonster.sol\":8451:8475  structUsers_[msg.sender] */\n  swap1\n  dup2\n  mstore\n  0x20\n  dup2\n  dup2\n  mstore\n  0x40\n  swap1\n  swap2\n  keccak256\n    /* \"Documents/GitHub/contract-token-cryptoMonster/backend/components/CryptoMonster.sol\":8451:8488  structUsers_[msg.sender].balance_seed */\n  0x04\n  add\n  sload\n    /* \"Documents/GitHub/contract-token-cryptoMonster/backend/components/CryptoMonster.sol\":8451:8504  structUsers_[msg.sender].balance_seed.sub(_numTokens) */\n  tag_96\n  swap2\n    /* \"Documents/GitHub/contract-token-cryptoMonster/backend/components/CryptoMonster.sol\":8493:8503  _numTokens */\n  dup5\n  swap1\n    /* \"Documents/GitHub/contract-token-cryptoMonster/backend/components/CryptoMonster.sol\":8451:8492  structUsers_[msg.sender].balance_seed.sub */\n  tag_0_93\n  tag_77\n  dup3\n  shl\n  or\n    /* \"Documents/GitHub/contract-token-cryptoMonster/backend/components/CryptoMonster.sol\":8451:8504  structUsers_[msg.sender].balance_seed.sub(_numTokens) */\n  swap1\n  shr\n  jump\t// in\ntag_96:\n    /* \"Documents/GitHub/contract-token-cryptoMonster/backend/components/CryptoMonster.sol\":8424:8434  msg.sender */\n  caller\n    /* \"Documents/GitHub/contract-token-cryptoMonster/backend/components/CryptoMonster.sol\":8411:8423  structUsers_ */\n  0x00\n    /* \"Documents/GitHub/contract-token-cryptoMonster/backend/components/CryptoMonster.sol\":8411:8435  structUsers_[msg.sender] */\n  swap1\n  dup2\n  mstore\n  0x20\n  dup2\n  dup2\n  mstore\n  0x40\n  dup1\n  dup4\n  keccak256\n    /* \"Documents/GitHub/contract-token-cryptoMonster/backend/components/CryptoMonster.sol\":8411:8448  structUsers_[msg.sender].balance_seed */\n  0x04\n  swap1\n  dup2\n  add\n    /* \"Documents/GitHub/contract-token-cryptoMonster/backend/components/CryptoMonster.sol\":8411:8504  structUsers_[msg.sender].balance_seed = structUsers_[msg.sender].balance_seed.sub(_numTokens) */\n  swap5\n  swap1\n  swap5\n  sstore\n  sub(shl(0xa0, 0x01), 0x01)\n    /* \"Documents/GitHub/contract-token-cryptoMonster/backend/components/CryptoMonster.sol\":8639:8662  structUsers_[_receiver] */\n  dup8\n  and\n  dup4\n  mstore\n  swap1\n  swap2\n  keccak256\n    /* \"Documents/GitHub/contract-token-cryptoMonster/backend/components/CryptoMonster.sol\":8639:8675  structUsers_[_receiver].balance_seed */\n  swap1\n  swap2\n  add\n  sload\n    /* \"Documents/GitHub/contract-token-cryptoMonster/backend/components/CryptoMonster.sol\":8639:8691  structUsers_[_receiver].balance_seed.add(_numTokens) */\n  tag_78\n  swap2\n    /* \"Documents/GitHub/contract-token-cryptoMonster/backend/components/CryptoMonster.sol\":8680:8690  _numTokens */\n  dup5\n  swap1\n    /* \"Documents/GitHub/contract-token-cryptoMonster/backend/components/CryptoMonster.sol\":8639:8679  structUsers_[_receiver].balance_seed.add */\n  tag_0_94\n  tag_79\n  dup3\n  shl\n  or\n    /* \"Documents/GitHub/contract-token-cryptoMonster/backend/components/CryptoMonster.sol\":8639:8691  structUsers_[_receiver].balance_seed.add(_numTokens) */\n  swap1\n  shr\n  jump\t// in\n    /* \"Documents/GitHub/contract-token-cryptoMonster/backend/components/CryptoMonster.sol\":6094:13253  if (validatePhase(\"seed\", privateProviderAdr, publicProviderAdr) == true)  {                             // !: if фаза SEED\r... */\ntag_58:\n    /* \"Documents/GitHub/contract-token-cryptoMonster/backend/components/CryptoMonster.sol\":9032:9095  validatePhase(\"private\", privateProviderAdr, publicProviderAdr) */\n  0x40\n  dup1\n  mload\n  dup1\n  dup3\n  add\n  swap1\n  swap2\n  mstore\n  0x07\n  dup2\n  mstore\n  shl(0xc8, 0x70726976617465)\n  0x20\n  dup3\n  add\n  mstore\n  tag_100\n  swap1\n  0x00\n  dup1\n  mload\n  0x20\n  data_e92b278610ce8b6027ef7ad432103699b0132d8b129c33a54a54aa5151a105a3\n  dup4\n  codecopy\n  dup2\n  mload\n  swap2\n  mstore\n    /* \"Documents/GitHub/contract-token-cryptoMonster/backend/components/CryptoMonster.sol\":1578:1620  0xAb8483F64d9C6d1EcF9b849Ae677dD3315835cb2 */\n  dup1\n    /* \"Documents/GitHub/contract-token-cryptoMonster/backend/components/CryptoMonster.sol\":9032:9045  validatePhase */\n  tag_57\n    /* \"Documents/GitHub/contract-token-cryptoMonster/backend/components/CryptoMonster.sol\":9032:9095  validatePhase(\"private\", privateProviderAdr, publicProviderAdr) */\n  jump\t// in\ntag_100:\n    /* \"Documents/GitHub/contract-token-cryptoMonster/backend/components/CryptoMonster.sol\":9032:9103  validatePhase(\"private\", privateProviderAdr, publicProviderAdr) == true */\n  iszero\n  iszero\n    /* \"Documents/GitHub/contract-token-cryptoMonster/backend/components/CryptoMonster.sol\":9099:9103  true */\n  0x01\n    /* \"Documents/GitHub/contract-token-cryptoMonster/backend/components/CryptoMonster.sol\":9032:9103  validatePhase(\"private\", privateProviderAdr, publicProviderAdr) == true */\n  eq\n    /* \"Documents/GitHub/contract-token-cryptoMonster/backend/components/CryptoMonster.sol\":9028:13253  if (validatePhase(\"private\", privateProviderAdr, publicProviderAdr) == true) {                    // !: if фаза PRIVATE\r... */\n  iszero\n  tag_101\n  jumpi\n    /* \"Documents/GitHub/contract-token-cryptoMonster/backend/components/CryptoMonster.sol\":9169:9184  validateOwner() */\n  tag_102\n    /* \"Documents/GitHub/contract-token-cryptoMonster/backend/components/CryptoMonster.sol\":9169:9182  validateOwner */\n  tag_60\n    /* \"Documents/GitHub/contract-token-cryptoMonster/backend/components/CryptoMonster.sol\":9169:9184  validateOwner() */\n  jump\t// in\ntag_102:\n    /* \"Documents/GitHub/contract-token-cryptoMonster/backend/components/CryptoMonster.sol\":9169:9192  validateOwner() == true */\n  iszero\n  iszero\n    /* \"Documents/GitHub/contract-token-cryptoMonster/backend/components/CryptoMonster.sol\":9188:9192  true */\n  0x01\n    /* \"Documents/GitHub/contract-token-cryptoMonster/backend/components/CryptoMonster.sol\":9169:9192  validateOwner() == true */\n  eq\n    /* \"Documents/GitHub/contract-token-cryptoMonster/backend/components/CryptoMonster.sol\":9165:11119  if (validateOwner() == true) {                                                                         // !: if пользователь админ\r... */\n  iszero\n  tag_103\n  jumpi\n    /* \"Documents/GitHub/contract-token-cryptoMonster/backend/components/CryptoMonster.sol\":9365:9375  msg.sender */\n  caller\n    /* \"Documents/GitHub/contract-token-cryptoMonster/backend/components/CryptoMonster.sol\":9352:9364  structUsers_ */\n  0x00\n    /* \"Documents/GitHub/contract-token-cryptoMonster/backend/components/CryptoMonster.sol\":9352:9376  structUsers_[msg.sender] */\n  swap1\n  dup2\n  mstore\n  0x20\n  dup2\n  swap1\n  mstore\n  0x40\n  swap1\n  keccak256\n    /* \"Documents/GitHub/contract-token-cryptoMonster/backend/components/CryptoMonster.sol\":9352:9392  structUsers_[msg.sender].balance_overall */\n  0x03\n  add\n  sload\n    /* \"Documents/GitHub/contract-token-cryptoMonster/backend/components/CryptoMonster.sol\":9338:9392  _numTokens <= structUsers_[msg.sender].balance_overall */\n  dup3\n  gt\n  iszero\n    /* \"Documents/GitHub/contract-token-cryptoMonster/backend/components/CryptoMonster.sol\":9330:9393  require(_numTokens <= structUsers_[msg.sender].balance_overall) */\n  tag_104\n  jumpi\n  0x00\n  dup1\n  revert\ntag_104:\n    /* \"Documents/GitHub/contract-token-cryptoMonster/backend/components/CryptoMonster.sol\":9593:9603  msg.sender */\n  caller\n    /* \"Documents/GitHub/contract-token-cryptoMonster/backend/components/CryptoMonster.sol\":9580:9592  structUsers_ */\n  0x00\n    /* \"Documents/GitHub/contract-token-cryptoMonster/backend/components/CryptoMonster.sol\":9580:9604  structUsers_[msg.sender] */\n  swap1\n  dup2\n  mstore\n  0x20\n  dup2\n  dup2\n  mstore\n  0x40\n  swap1\n  swap2\n  keccak256\n    /* \"Documents/GitHub/contract-token-cryptoMonster/backend/components/CryptoMonster.sol\":9580:9620  structUsers_[msg.sender].balance_overall */\n  0x03\n  add\n  sload\n    /* \"Documents/GitHub/contract-token-cryptoMonster/backend/components/CryptoMonster.sol\":9580:9636  structUsers_[msg.sender].balance_overall.sub(_numTokens) */\n  tag_105\n  swap2\n    /* \"Documents/GitHub/contract-token-cryptoMonster/backend/components/CryptoMonster.sol\":9625:9635  _numTokens */\n  dup5\n  swap1\n    /* \"Documents/GitHub/contract-token-cryptoMonster/backend/components/CryptoMonster.sol\":9580:9624  structUsers_[msg.sender].balance_overall.sub */\n  tag_0_93\n  tag_77\n  dup3\n  shl\n  or\n    /* \"Documents/GitHub/contract-token-cryptoMonster/backend/components/CryptoMonster.sol\":9580:9636  structUsers_[msg.sender].balance_overall.sub(_numTokens) */\n  swap1\n  shr\n  jump\t// in\ntag_105:\n    /* \"Documents/GitHub/contract-token-cryptoMonster/backend/components/CryptoMonster.sol\":9550:9560  msg.sender */\n  caller\n    /* \"Documents/GitHub/contract-token-cryptoMonster/backend/components/CryptoMonster.sol\":9537:9549  structUsers_ */\n  0x00\n    /* \"Documents/GitHub/contract-token-cryptoMonster/backend/components/CryptoMonster.sol\":9537:9561  structUsers_[msg.sender] */\n  swap1\n  dup2\n  mstore\n  0x20\n  dup2\n  dup2\n  mstore\n  0x40\n  dup1\n  dup4\n  keccak256\n    /* \"Documents/GitHub/contract-token-cryptoMonster/backend/components/CryptoMonster.sol\":9537:9577  structUsers_[msg.sender].balance_overall */\n  0x03\n  add\n    /* \"Documents/GitHub/contract-token-cryptoMonster/backend/components/CryptoMonster.sol\":9537:9636  structUsers_[msg.sender].balance_overall = structUsers_[msg.sender].balance_overall.sub(_numTokens) */\n  swap4\n  swap1\n  swap4\n  sstore\n  sub(shl(0xa0, 0x01), 0x01)\n    /* \"Documents/GitHub/contract-token-cryptoMonster/backend/components/CryptoMonster.sol\":9768:9791  structUsers_[_receiver] */\n  dup7\n  and\n  dup3\n  mstore\n  swap2\n  swap1\n  keccak256\n    /* \"Documents/GitHub/contract-token-cryptoMonster/backend/components/CryptoMonster.sol\":9768:9807  structUsers_[_receiver].balance_private */\n  0x05\n  add\n  sload\n    /* \"Documents/GitHub/contract-token-cryptoMonster/backend/components/CryptoMonster.sol\":9768:9823  structUsers_[_receiver].balance_private.add(_numTokens) */\n  tag_106\n  swap2\n    /* \"Documents/GitHub/contract-token-cryptoMonster/backend/components/CryptoMonster.sol\":9812:9822  _numTokens */\n  dup5\n  swap1\n    /* \"Documents/GitHub/contract-token-cryptoMonster/backend/components/CryptoMonster.sol\":9768:9811  structUsers_[_receiver].balance_private.add */\n  tag_0_94\n  tag_79\n  dup3\n  shl\n  or\n    /* \"Documents/GitHub/contract-token-cryptoMonster/backend/components/CryptoMonster.sol\":9768:9823  structUsers_[_receiver].balance_private.add(_numTokens) */\n  swap1\n  shr\n  jump\t// in\ntag_106:\n  sub(shl(0xa0, 0x01), 0x01)\n    /* \"Documents/GitHub/contract-token-cryptoMonster/backend/components/CryptoMonster.sol\":9726:9749  structUsers_[_receiver] */\n  dup5\n  and\n    /* \"Documents/GitHub/contract-token-cryptoMonster/backend/components/CryptoMonster.sol\":9726:9738  structUsers_ */\n  0x00\n    /* \"Documents/GitHub/contract-token-cryptoMonster/backend/components/CryptoMonster.sol\":9726:9749  structUsers_[_receiver] */\n  dup2\n  dup2\n  mstore\n  0x20\n  dup2\n  dup2\n  mstore\n  0x40\n  swap2\n  dup3\n  swap1\n  keccak256\n    /* \"Documents/GitHub/contract-token-cryptoMonster/backend/components/CryptoMonster.sol\":9726:9765  structUsers_[_receiver].balance_private */\n  0x05\n  add\n    /* \"Documents/GitHub/contract-token-cryptoMonster/backend/components/CryptoMonster.sol\":9726:9823  structUsers_[_receiver].balance_private = structUsers_[_receiver].balance_private.add(_numTokens) */\n  swap4\n  swap1\n  swap4\n  sstore\n    /* \"Documents/GitHub/contract-token-cryptoMonster/backend/components/CryptoMonster.sol\":9917:9960  Transfer(msg.sender, _receiver, _numTokens) */\n  mload\n    /* \"#utility.yul\":1128:1153   */\n  dup5\n  dup2\n  mstore\n    /* \"Documents/GitHub/contract-token-cryptoMonster/backend/components/CryptoMonster.sol\":9726:9749  structUsers_[_receiver] */\n  swap1\n  swap2\n    /* \"Documents/GitHub/contract-token-cryptoMonster/backend/components/CryptoMonster.sol\":9926:9936  msg.sender */\n  caller\n  swap2\n  0x00\n  dup1\n  mload\n  0x20\n  data_ada389e1fc24a8587c776340efb91b36e675792ab631816100d55df0b5cf3cbc\n  dup4\n  codecopy\n  dup2\n  mload\n  swap2\n  mstore\n    /* \"Documents/GitHub/contract-token-cryptoMonster/backend/components/CryptoMonster.sol\":9917:9960  Transfer(msg.sender, _receiver, _numTokens) */\n  swap2\n    /* \"#utility.yul\":1101:1119   */\n  add\n    /* \"Documents/GitHub/contract-token-cryptoMonster/backend/components/CryptoMonster.sol\":9917:9960  Transfer(msg.sender, _receiver, _numTokens) */\n  tag_80\n    /* \"#utility.yul\":982:1159   */\n  jump\n    /* \"Documents/GitHub/contract-token-cryptoMonster/backend/components/CryptoMonster.sol\":9165:11119  if (validateOwner() == true) {                                                                         // !: if пользователь админ\r... */\ntag_103:\n    /* \"Documents/GitHub/contract-token-cryptoMonster/backend/components/CryptoMonster.sol\":10344:10354  msg.sender */\n  caller\n    /* \"Documents/GitHub/contract-token-cryptoMonster/backend/components/CryptoMonster.sol\":10331:10343  structUsers_ */\n  0x00\n    /* \"Documents/GitHub/contract-token-cryptoMonster/backend/components/CryptoMonster.sol\":10331:10355  structUsers_[msg.sender] */\n  swap1\n  dup2\n  mstore\n  0x20\n  dup2\n  swap1\n  mstore\n  0x40\n  swap1\n  keccak256\n    /* \"Documents/GitHub/contract-token-cryptoMonster/backend/components/CryptoMonster.sol\":10331:10371  structUsers_[msg.sender].balance_private */\n  0x05\n  add\n  sload\n    /* \"Documents/GitHub/contract-token-cryptoMonster/backend/components/CryptoMonster.sol\":10317:10371  _numTokens <= structUsers_[msg.sender].balance_private */\n  dup3\n  gt\n  iszero\n    /* \"Documents/GitHub/contract-token-cryptoMonster/backend/components/CryptoMonster.sol\":10309:10372  require(_numTokens <= structUsers_[msg.sender].balance_private) */\n  tag_109\n  jumpi\n  0x00\n  dup1\n  revert\ntag_109:\n    /* \"Documents/GitHub/contract-token-cryptoMonster/backend/components/CryptoMonster.sol\":10572:10582  msg.sender */\n  caller\n    /* \"Documents/GitHub/contract-token-cryptoMonster/backend/components/CryptoMonster.sol\":10559:10571  structUsers_ */\n  0x00\n    /* \"Documents/GitHub/contract-token-cryptoMonster/backend/components/CryptoMonster.sol\":10559:10583  structUsers_[msg.sender] */\n  swap1\n  dup2\n  mstore\n  0x20\n  dup2\n  dup2\n  mstore\n  0x40\n  swap1\n  swap2\n  keccak256\n    /* \"Documents/GitHub/contract-token-cryptoMonster/backend/components/CryptoMonster.sol\":10559:10599  structUsers_[msg.sender].balance_private */\n  0x05\n  add\n  sload\n    /* \"Documents/GitHub/contract-token-cryptoMonster/backend/components/CryptoMonster.sol\":10559:10615  structUsers_[msg.sender].balance_private.sub(_numTokens) */\n  tag_110\n  swap2\n    /* \"Documents/GitHub/contract-token-cryptoMonster/backend/components/CryptoMonster.sol\":10604:10614  _numTokens */\n  dup5\n  swap1\n    /* \"Documents/GitHub/contract-token-cryptoMonster/backend/components/CryptoMonster.sol\":10559:10603  structUsers_[msg.sender].balance_private.sub */\n  tag_0_93\n  tag_77\n  dup3\n  shl\n  or\n    /* \"Documents/GitHub/contract-token-cryptoMonster/backend/components/CryptoMonster.sol\":10559:10615  structUsers_[msg.sender].balance_private.sub(_numTokens) */\n  swap1\n  shr\n  jump\t// in\ntag_110:\n    /* \"Documents/GitHub/contract-token-cryptoMonster/backend/components/CryptoMonster.sol\":10529:10539  msg.sender */\n  caller\n    /* \"Documents/GitHub/contract-token-cryptoMonster/backend/components/CryptoMonster.sol\":10516:10528  structUsers_ */\n  0x00\n    /* \"Documents/GitHub/contract-token-cryptoMonster/backend/components/CryptoMonster.sol\":10516:10540  structUsers_[msg.sender] */\n  swap1\n  dup2\n  mstore\n  0x20\n  dup2\n  dup2\n  mstore\n  0x40\n  dup1\n  dup4\n  keccak256\n    /* \"Documents/GitHub/contract-token-cryptoMonster/backend/components/CryptoMonster.sol\":10516:10556  structUsers_[msg.sender].balance_private */\n  0x05\n  swap1\n  dup2\n  add\n    /* \"Documents/GitHub/contract-token-cryptoMonster/backend/components/CryptoMonster.sol\":10516:10615  structUsers_[msg.sender].balance_private = structUsers_[msg.sender].balance_private.sub(_numTokens) */\n  swap5\n  swap1\n  swap5\n  sstore\n  sub(shl(0xa0, 0x01), 0x01)\n    /* \"Documents/GitHub/contract-token-cryptoMonster/backend/components/CryptoMonster.sol\":10747:10770  structUsers_[_receiver] */\n  dup8\n  and\n  dup4\n  mstore\n  swap1\n  swap2\n  keccak256\n    /* \"Documents/GitHub/contract-token-cryptoMonster/backend/components/CryptoMonster.sol\":10747:10786  structUsers_[_receiver].balance_private */\n  swap1\n  swap2\n  add\n  sload\n    /* \"Documents/GitHub/contract-token-cryptoMonster/backend/components/CryptoMonster.sol\":10747:10802  structUsers_[_receiver].balance_private.add(_numTokens) */\n  tag_106\n  swap2\n    /* \"Documents/GitHub/contract-token-cryptoMonster/backend/components/CryptoMonster.sol\":10791:10801  _numTokens */\n  dup5\n  swap1\n    /* \"Documents/GitHub/contract-token-cryptoMonster/backend/components/CryptoMonster.sol\":10747:10790  structUsers_[_receiver].balance_private.add */\n  tag_0_94\n  tag_79\n  dup3\n  shl\n  or\n    /* \"Documents/GitHub/contract-token-cryptoMonster/backend/components/CryptoMonster.sol\":10747:10802  structUsers_[_receiver].balance_private.add(_numTokens) */\n  swap1\n  shr\n  jump\t// in\n    /* \"Documents/GitHub/contract-token-cryptoMonster/backend/components/CryptoMonster.sol\":9028:13253  if (validatePhase(\"private\", privateProviderAdr, publicProviderAdr) == true) {                    // !: if фаза PRIVATE\r... */\ntag_101:\n    /* \"Documents/GitHub/contract-token-cryptoMonster/backend/components/CryptoMonster.sol\":11140:11202  validatePhase(\"public\", privateProviderAdr, publicProviderAdr) */\n  0x40\n  dup1\n  mload\n  dup1\n  dup3\n  add\n  swap1\n  swap2\n  mstore\n  0x06\n  dup2\n  mstore\n  shl(0xd0, 0x7075626c6963)\n  0x20\n  dup3\n  add\n  mstore\n  tag_114\n  swap1\n  0x00\n  dup1\n  mload\n  0x20\n  data_e92b278610ce8b6027ef7ad432103699b0132d8b129c33a54a54aa5151a105a3\n  dup4\n  codecopy\n  dup2\n  mload\n  swap2\n  mstore\n    /* \"Documents/GitHub/contract-token-cryptoMonster/backend/components/CryptoMonster.sol\":1578:1620  0xAb8483F64d9C6d1EcF9b849Ae677dD3315835cb2 */\n  dup1\n    /* \"Documents/GitHub/contract-token-cryptoMonster/backend/components/CryptoMonster.sol\":11140:11153  validatePhase */\n  tag_57\n    /* \"Documents/GitHub/contract-token-cryptoMonster/backend/components/CryptoMonster.sol\":11140:11202  validatePhase(\"public\", privateProviderAdr, publicProviderAdr) */\n  jump\t// in\ntag_114:\n    /* \"Documents/GitHub/contract-token-cryptoMonster/backend/components/CryptoMonster.sol\":11140:11210  validatePhase(\"public\", privateProviderAdr, publicProviderAdr) == true */\n  iszero\n  iszero\n    /* \"Documents/GitHub/contract-token-cryptoMonster/backend/components/CryptoMonster.sol\":11206:11210  true */\n  0x01\n    /* \"Documents/GitHub/contract-token-cryptoMonster/backend/components/CryptoMonster.sol\":11140:11210  validatePhase(\"public\", privateProviderAdr, publicProviderAdr) == true */\n  eq\n    /* \"Documents/GitHub/contract-token-cryptoMonster/backend/components/CryptoMonster.sol\":11136:13253  if (validatePhase(\"public\", privateProviderAdr, publicProviderAdr) == true) {                     // !: if фаза PUBLIC\r... */\n  iszero\n  tag_115\n  jumpi\n    /* \"Documents/GitHub/contract-token-cryptoMonster/backend/components/CryptoMonster.sol\":11276:11291  validateOwner() */\n  tag_116\n    /* \"Documents/GitHub/contract-token-cryptoMonster/backend/components/CryptoMonster.sol\":11276:11289  validateOwner */\n  tag_60\n    /* \"Documents/GitHub/contract-token-cryptoMonster/backend/components/CryptoMonster.sol\":11276:11291  validateOwner() */\n  jump\t// in\ntag_116:\n    /* \"Documents/GitHub/contract-token-cryptoMonster/backend/components/CryptoMonster.sol\":11276:11299  validateOwner() == true */\n  iszero\n  iszero\n    /* \"Documents/GitHub/contract-token-cryptoMonster/backend/components/CryptoMonster.sol\":11295:11299  true */\n  0x01\n    /* \"Documents/GitHub/contract-token-cryptoMonster/backend/components/CryptoMonster.sol\":11276:11299  validateOwner() == true */\n  eq\n    /* \"Documents/GitHub/contract-token-cryptoMonster/backend/components/CryptoMonster.sol\":11272:13224  if (validateOwner() == true) {                                                                         // !: if пользователь админ\r... */\n  iszero\n  tag_117\n  jumpi\n    /* \"Documents/GitHub/contract-token-cryptoMonster/backend/components/CryptoMonster.sol\":11472:11482  msg.sender */\n  caller\n    /* \"Documents/GitHub/contract-token-cryptoMonster/backend/components/CryptoMonster.sol\":11459:11471  structUsers_ */\n  0x00\n    /* \"Documents/GitHub/contract-token-cryptoMonster/backend/components/CryptoMonster.sol\":11459:11483  structUsers_[msg.sender] */\n  swap1\n  dup2\n  mstore\n  0x20\n  dup2\n  swap1\n  mstore\n  0x40\n  swap1\n  keccak256\n    /* \"Documents/GitHub/contract-token-cryptoMonster/backend/components/CryptoMonster.sol\":11459:11499  structUsers_[msg.sender].balance_overall */\n  0x03\n  add\n  sload\n    /* \"Documents/GitHub/contract-token-cryptoMonster/backend/components/CryptoMonster.sol\":11445:11499  _numTokens <= structUsers_[msg.sender].balance_overall */\n  dup3\n  gt\n  iszero\n    /* \"Documents/GitHub/contract-token-cryptoMonster/backend/components/CryptoMonster.sol\":11437:11500  require(_numTokens <= structUsers_[msg.sender].balance_overall) */\n  tag_118\n  jumpi\n  0x00\n  dup1\n  revert\ntag_118:\n    /* \"Documents/GitHub/contract-token-cryptoMonster/backend/components/CryptoMonster.sol\":11700:11710  msg.sender */\n  caller\n    /* \"Documents/GitHub/contract-token-cryptoMonster/backend/components/CryptoMonster.sol\":11687:11699  structUsers_ */\n  0x00\n    /* \"Documents/GitHub/contract-token-cryptoMonster/backend/components/CryptoMonster.sol\":11687:11711  structUsers_[msg.sender] */\n  swap1\n  dup2\n  mstore\n  0x20\n  dup2\n  dup2\n  mstore\n  0x40\n  swap1\n  swap2\n  keccak256\n    /* \"Documents/GitHub/contract-token-cryptoMonster/backend/components/CryptoMonster.sol\":11687:11727  structUsers_[msg.sender].balance_overall */\n  0x03\n  add\n  sload\n    /* \"Documents/GitHub/contract-token-cryptoMonster/backend/components/CryptoMonster.sol\":11687:11743  structUsers_[msg.sender].balance_overall.sub(_numTokens) */\n  tag_119\n  swap2\n    /* \"Documents/GitHub/contract-token-cryptoMonster/backend/components/CryptoMonster.sol\":11732:11742  _numTokens */\n  dup5\n  swap1\n    /* \"Documents/GitHub/contract-token-cryptoMonster/backend/components/CryptoMonster.sol\":11687:11731  structUsers_[msg.sender].balance_overall.sub */\n  tag_0_93\n  tag_77\n  dup3\n  shl\n  or\n    /* \"Documents/GitHub/contract-token-cryptoMonster/backend/components/CryptoMonster.sol\":11687:11743  structUsers_[msg.sender].balance_overall.sub(_numTokens) */\n  swap1\n  shr\n  jump\t// in\ntag_119:\n    /* \"Documents/GitHub/contract-token-cryptoMonster/backend/components/CryptoMonster.sol\":11657:11667  msg.sender */\n  caller\n    /* \"Documents/GitHub/contract-token-cryptoMonster/backend/components/CryptoMonster.sol\":11644:11656  structUsers_ */\n  0x00\n    /* \"Documents/GitHub/contract-token-cryptoMonster/backend/components/CryptoMonster.sol\":11644:11668  structUsers_[msg.sender] */\n  swap1\n  dup2\n  mstore\n  0x20\n  dup2\n  dup2\n  mstore\n  0x40\n  dup1\n  dup4\n  keccak256\n    /* \"Documents/GitHub/contract-token-cryptoMonster/backend/components/CryptoMonster.sol\":11644:11684  structUsers_[msg.sender].balance_overall */\n  0x03\n  add\n    /* \"Documents/GitHub/contract-token-cryptoMonster/backend/components/CryptoMonster.sol\":11644:11743  structUsers_[msg.sender].balance_overall = structUsers_[msg.sender].balance_overall.sub(_numTokens) */\n  swap4\n  swap1\n  swap4\n  sstore\n  sub(shl(0xa0, 0x01), 0x01)\n    /* \"Documents/GitHub/contract-token-cryptoMonster/backend/components/CryptoMonster.sol\":11874:11897  structUsers_[_receiver] */\n  dup7\n  and\n  dup3\n  mstore\n  swap2\n  swap1\n  keccak256\n    /* \"Documents/GitHub/contract-token-cryptoMonster/backend/components/CryptoMonster.sol\":11874:11912  structUsers_[_receiver].balance_public */\n  0x06\n  add\n  sload\n    /* \"Documents/GitHub/contract-token-cryptoMonster/backend/components/CryptoMonster.sol\":11874:11928  structUsers_[_receiver].balance_public.add(_numTokens) */\n  tag_120\n  swap2\n    /* \"Documents/GitHub/contract-token-cryptoMonster/backend/components/CryptoMonster.sol\":11917:11927  _numTokens */\n  dup5\n  swap1\n    /* \"Documents/GitHub/contract-token-cryptoMonster/backend/components/CryptoMonster.sol\":11874:11916  structUsers_[_receiver].balance_public.add */\n  tag_0_94\n  tag_79\n  dup3\n  shl\n  or\n    /* \"Documents/GitHub/contract-token-cryptoMonster/backend/components/CryptoMonster.sol\":11874:11928  structUsers_[_receiver].balance_public.add(_numTokens) */\n  swap1\n  shr\n  jump\t// in\ntag_120:\n  sub(shl(0xa0, 0x01), 0x01)\n    /* \"Documents/GitHub/contract-token-cryptoMonster/backend/components/CryptoMonster.sol\":11833:11856  structUsers_[_receiver] */\n  dup5\n  and\n    /* \"Documents/GitHub/contract-token-cryptoMonster/backend/components/CryptoMonster.sol\":11833:11845  structUsers_ */\n  0x00\n    /* \"Documents/GitHub/contract-token-cryptoMonster/backend/components/CryptoMonster.sol\":11833:11856  structUsers_[_receiver] */\n  dup2\n  dup2\n  mstore\n  0x20\n  dup2\n  dup2\n  mstore\n  0x40\n  swap2\n  dup3\n  swap1\n  keccak256\n    /* \"Documents/GitHub/contract-token-cryptoMonster/backend/components/CryptoMonster.sol\":11833:11871  structUsers_[_receiver].balance_public */\n  0x06\n  add\n    /* \"Documents/GitHub/contract-token-cryptoMonster/backend/components/CryptoMonster.sol\":11833:11928  structUsers_[_receiver].balance_public = structUsers_[_receiver].balance_public.add(_numTokens) */\n  swap4\n  swap1\n  swap4\n  sstore\n    /* \"Documents/GitHub/contract-token-cryptoMonster/backend/components/CryptoMonster.sol\":12023:12066  Transfer(msg.sender, _receiver, _numTokens) */\n  mload\n    /* \"#utility.yul\":1128:1153   */\n  dup5\n  dup2\n  mstore\n    /* \"Documents/GitHub/contract-token-cryptoMonster/backend/components/CryptoMonster.sol\":11833:11856  structUsers_[_receiver] */\n  swap1\n  swap2\n    /* \"Documents/GitHub/contract-token-cryptoMonster/backend/components/CryptoMonster.sol\":12032:12042  msg.sender */\n  caller\n  swap2\n  0x00\n  dup1\n  mload\n  0x20\n  data_ada389e1fc24a8587c776340efb91b36e675792ab631816100d55df0b5cf3cbc\n  dup4\n  codecopy\n  dup2\n  mload\n  swap2\n  mstore\n    /* \"Documents/GitHub/contract-token-cryptoMonster/backend/components/CryptoMonster.sol\":12023:12066  Transfer(msg.sender, _receiver, _numTokens) */\n  swap2\n    /* \"#utility.yul\":1101:1119   */\n  add\n    /* \"Documents/GitHub/contract-token-cryptoMonster/backend/components/CryptoMonster.sol\":12023:12066  Transfer(msg.sender, _receiver, _numTokens) */\n  tag_80\n    /* \"#utility.yul\":982:1159   */\n  jump\n    /* \"Documents/GitHub/contract-token-cryptoMonster/backend/components/CryptoMonster.sol\":11272:13224  if (validateOwner() == true) {                                                                         // !: if пользователь админ\r... */\ntag_117:\n    /* \"Documents/GitHub/contract-token-cryptoMonster/backend/components/CryptoMonster.sol\":12450:12460  msg.sender */\n  caller\n    /* \"Documents/GitHub/contract-token-cryptoMonster/backend/components/CryptoMonster.sol\":12437:12449  structUsers_ */\n  0x00\n    /* \"Documents/GitHub/contract-token-cryptoMonster/backend/components/CryptoMonster.sol\":12437:12461  structUsers_[msg.sender] */\n  swap1\n  dup2\n  mstore\n  0x20\n  dup2\n  swap1\n  mstore\n  0x40\n  swap1\n  keccak256\n    /* \"Documents/GitHub/contract-token-cryptoMonster/backend/components/CryptoMonster.sol\":12437:12476  structUsers_[msg.sender].balance_public */\n  0x06\n  add\n  sload\n    /* \"Documents/GitHub/contract-token-cryptoMonster/backend/components/CryptoMonster.sol\":12423:12476  _numTokens <= structUsers_[msg.sender].balance_public */\n  dup3\n  gt\n  iszero\n    /* \"Documents/GitHub/contract-token-cryptoMonster/backend/components/CryptoMonster.sol\":12415:12477  require(_numTokens <= structUsers_[msg.sender].balance_public) */\n  tag_123\n  jumpi\n  0x00\n  dup1\n  revert\ntag_123:\n    /* \"Documents/GitHub/contract-token-cryptoMonster/backend/components/CryptoMonster.sol\":12677:12687  msg.sender */\n  caller\n    /* \"Documents/GitHub/contract-token-cryptoMonster/backend/components/CryptoMonster.sol\":12664:12676  structUsers_ */\n  0x00\n    /* \"Documents/GitHub/contract-token-cryptoMonster/backend/components/CryptoMonster.sol\":12664:12688  structUsers_[msg.sender] */\n  swap1\n  dup2\n  mstore\n  0x20\n  dup2\n  dup2\n  mstore\n  0x40\n  swap1\n  swap2\n  keccak256\n    /* \"Documents/GitHub/contract-token-cryptoMonster/backend/components/CryptoMonster.sol\":12664:12703  structUsers_[msg.sender].balance_public */\n  0x06\n  add\n  sload\n    /* \"Documents/GitHub/contract-token-cryptoMonster/backend/components/CryptoMonster.sol\":12664:12719  structUsers_[msg.sender].balance_public.sub(_numTokens) */\n  tag_124\n  swap2\n    /* \"Documents/GitHub/contract-token-cryptoMonster/backend/components/CryptoMonster.sol\":12708:12718  _numTokens */\n  dup5\n  swap1\n    /* \"Documents/GitHub/contract-token-cryptoMonster/backend/components/CryptoMonster.sol\":12664:12707  structUsers_[msg.sender].balance_public.sub */\n  tag_0_93\n  tag_77\n  dup3\n  shl\n  or\n    /* \"Documents/GitHub/contract-token-cryptoMonster/backend/components/CryptoMonster.sol\":12664:12719  structUsers_[msg.sender].balance_public.sub(_numTokens) */\n  swap1\n  shr\n  jump\t// in\ntag_124:\n    /* \"Documents/GitHub/contract-token-cryptoMonster/backend/components/CryptoMonster.sol\":12635:12645  msg.sender */\n  caller\n    /* \"Documents/GitHub/contract-token-cryptoMonster/backend/components/CryptoMonster.sol\":12622:12634  structUsers_ */\n  0x00\n    /* \"Documents/GitHub/contract-token-cryptoMonster/backend/components/CryptoMonster.sol\":12622:12646  structUsers_[msg.sender] */\n  swap1\n  dup2\n  mstore\n  0x20\n  dup2\n  dup2\n  mstore\n  0x40\n  dup1\n  dup4\n  keccak256\n    /* \"Documents/GitHub/contract-token-cryptoMonster/backend/components/CryptoMonster.sol\":12622:12661  structUsers_[msg.sender].balance_public */\n  0x06\n  swap1\n  dup2\n  add\n    /* \"Documents/GitHub/contract-token-cryptoMonster/backend/components/CryptoMonster.sol\":12622:12719  structUsers_[msg.sender].balance_public = structUsers_[msg.sender].balance_public.sub(_numTokens) */\n  swap5\n  swap1\n  swap5\n  sstore\n  sub(shl(0xa0, 0x01), 0x01)\n    /* \"Documents/GitHub/contract-token-cryptoMonster/backend/components/CryptoMonster.sol\":12852:12875  structUsers_[_receiver] */\n  dup8\n  and\n  dup4\n  mstore\n  swap1\n  swap2\n  keccak256\n    /* \"Documents/GitHub/contract-token-cryptoMonster/backend/components/CryptoMonster.sol\":12852:12890  structUsers_[_receiver].balance_public */\n  swap1\n  swap2\n  add\n  sload\n    /* \"Documents/GitHub/contract-token-cryptoMonster/backend/components/CryptoMonster.sol\":12852:12906  structUsers_[_receiver].balance_public.add(_numTokens) */\n  tag_120\n  swap2\n    /* \"Documents/GitHub/contract-token-cryptoMonster/backend/components/CryptoMonster.sol\":12895:12905  _numTokens */\n  dup5\n  swap1\n    /* \"Documents/GitHub/contract-token-cryptoMonster/backend/components/CryptoMonster.sol\":12852:12894  structUsers_[_receiver].balance_public.add */\n  tag_0_94\n  tag_79\n  dup3\n  shl\n  or\n    /* \"Documents/GitHub/contract-token-cryptoMonster/backend/components/CryptoMonster.sol\":12852:12906  structUsers_[_receiver].balance_public.add(_numTokens) */\n  swap1\n  shr\n  jump\t// in\n    /* \"Documents/GitHub/contract-token-cryptoMonster/backend/components/CryptoMonster.sol\":11136:13253  if (validatePhase(\"public\", privateProviderAdr, publicProviderAdr) == true) {                     // !: if фаза PUBLIC\r... */\ntag_115:\n  pop\n    /* \"Documents/GitHub/contract-token-cryptoMonster/backend/components/CryptoMonster.sol\":13248:13253  false */\n  0x00\n    /* \"Documents/GitHub/contract-token-cryptoMonster/backend/components/CryptoMonster.sol\":11136:13253  if (validatePhase(\"public\", privateProviderAdr, publicProviderAdr) == true) {                     // !: if фаза PUBLIC\r... */\ntag_127:\n    /* \"Documents/GitHub/contract-token-cryptoMonster/backend/components/CryptoMonster.sol\":5995:13261  function transfer(address _receiver, uint256 _numTokens) public override returns (bool) {\r... */\n  swap3\n  swap2\n  pop\n  pop\n  jump\t// out\n    /* \"Documents/GitHub/contract-token-cryptoMonster/backend/shared/helpers/validateFuncs.sol\":771:1971  function validatePhase(string memory _type, address _providerPrivate, address _providerPublic) internal view returns (bool) {\r... */\ntag_57:\n    /* \"Documents/GitHub/contract-token-cryptoMonster/backend/shared/helpers/validateFuncs.sol\":889:893  bool */\n  0x00\n    /* \"Documents/GitHub/contract-token-cryptoMonster/backend/shared/helpers/validateFuncs.sol\":934:955  get_keccak256(\"seed\") */\n  tag_129\n  mload(0x40)\n  dup1\n  0x40\n  add\n  0x40\n  mstore\n  dup1\n  0x04\n  dup2\n  mstore\n  0x20\n  add\n  shl(0xe2, 0x1cd95959)\n  dup2\n  mstore\n  pop\n    /* \"Documents/GitHub/contract-token-cryptoMonster/backend/shared/helpers/validateFuncs.sol\":934:947  get_keccak256 */\n  shl(0x20, tag_11)\n    /* \"Documents/GitHub/contract-token-cryptoMonster/backend/shared/helpers/validateFuncs.sol\":934:955  get_keccak256(\"seed\") */\n  0x20\n  shr\n  jump\t// in\ntag_129:\n    /* \"Documents/GitHub/contract-token-cryptoMonster/backend/shared/helpers/validateFuncs.sol\":910:930  get_keccak256(_type) */\n  tag_130\n    /* \"Documents/GitHub/contract-token-cryptoMonster/backend/shared/helpers/validateFuncs.sol\":924:929  _type */\n  dup6\n    /* \"Documents/GitHub/contract-token-cryptoMonster/backend/shared/helpers/validateFuncs.sol\":910:923  get_keccak256 */\n  tag_11\n    /* \"Documents/GitHub/contract-token-cryptoMonster/backend/shared/helpers/validateFuncs.sol\":910:930  get_keccak256(_type) */\n  jump\t// in\ntag_130:\n    /* \"Documents/GitHub/contract-token-cryptoMonster/backend/shared/helpers/validateFuncs.sol\":910:955  get_keccak256(_type) == get_keccak256(\"seed\") */\n  eq\n    /* \"Documents/GitHub/contract-token-cryptoMonster/backend/shared/helpers/validateFuncs.sol\":906:1964  if (get_keccak256(_type) == get_keccak256(\"seed\")) {\r... */\n  iszero\n  tag_131\n  jumpi\n  sub(shl(0xa0, 0x01), 0x01)\n    /* \"Documents/GitHub/contract-token-cryptoMonster/backend/shared/helpers/validateFuncs.sol\":976:1007  structPhases_[_providerPrivate] */\n  dup4\n  and\n  0x00\n  swap1\n  dup2\n  mstore\n    /* \"Documents/GitHub/contract-token-cryptoMonster/backend/shared/helpers/validateFuncs.sol\":976:989  structPhases_ */\n  0x01\n    /* \"Documents/GitHub/contract-token-cryptoMonster/backend/shared/helpers/validateFuncs.sol\":976:1007  structPhases_[_providerPrivate] */\n  0x20\n  mstore\n  0x40\n  swap1\n  keccak256\n    /* \"Documents/GitHub/contract-token-cryptoMonster/backend/shared/helpers/validateFuncs.sol\":976:1019  structPhases_[_providerPrivate].statusPhase */\n  sload\n  0xff\n  and\n    /* \"Documents/GitHub/contract-token-cryptoMonster/backend/shared/helpers/validateFuncs.sol\":976:1028  structPhases_[_providerPrivate].statusPhase == false */\n  iszero\n  dup1\n  iszero\n    /* \"Documents/GitHub/contract-token-cryptoMonster/backend/shared/helpers/validateFuncs.sol\":976:1083  structPhases_[_providerPrivate].statusPhase == false && structPhases_[_providerPublic].statusPhase == false */\n  tag_132\n  jumpi\n  pop\n  sub(shl(0xa0, 0x01), 0x01)\n    /* \"Documents/GitHub/contract-token-cryptoMonster/backend/shared/helpers/validateFuncs.sol\":1032:1062  structPhases_[_providerPublic] */\n  dup3\n  and\n  0x00\n  swap1\n  dup2\n  mstore\n    /* \"Documents/GitHub/contract-token-cryptoMonster/backend/shared/helpers/validateFuncs.sol\":1032:1045  structPhases_ */\n  0x01\n    /* \"Documents/GitHub/contract-token-cryptoMonster/backend/shared/helpers/validateFuncs.sol\":1032:1062  structPhases_[_providerPublic] */\n  0x20\n  mstore\n  0x40\n  swap1\n  keccak256\n    /* \"Documents/GitHub/contract-token-cryptoMonster/backend/shared/helpers/validateFuncs.sol\":1032:1074  structPhases_[_providerPublic].statusPhase */\n  sload\n  0xff\n  and\n    /* \"Documents/GitHub/contract-token-cryptoMonster/backend/shared/helpers/validateFuncs.sol\":1032:1083  structPhases_[_providerPublic].statusPhase == false */\n  iszero\n    /* \"Documents/GitHub/contract-token-cryptoMonster/backend/shared/helpers/validateFuncs.sol\":976:1083  structPhases_[_providerPrivate].statusPhase == false && structPhases_[_providerPublic].statusPhase == false */\ntag_132:\n    /* \"Documents/GitHub/contract-token-cryptoMonster/backend/shared/helpers/validateFuncs.sol\":972:1111  if (structPhases_[_providerPrivate].statusPhase == false && structPhases_[_providerPublic].statusPhase == false ) \r... */\n  iszero\n  tag_133\n  jumpi\n  pop\n    /* \"Documents/GitHub/contract-token-cryptoMonster/backend/shared/helpers/validateFuncs.sol\":1107:1111  true */\n  0x01\n    /* \"Documents/GitHub/contract-token-cryptoMonster/backend/shared/helpers/validateFuncs.sol\":1100:1111  return true */\n  jump(tag_144)\n    /* \"Documents/GitHub/contract-token-cryptoMonster/backend/shared/helpers/validateFuncs.sol\":972:1111  if (structPhases_[_providerPrivate].statusPhase == false && structPhases_[_providerPublic].statusPhase == false ) \r... */\ntag_133:\n  pop\n    /* \"Documents/GitHub/contract-token-cryptoMonster/backend/shared/helpers/validateFuncs.sol\":1185:1190  false */\n  0x00\n    /* \"Documents/GitHub/contract-token-cryptoMonster/backend/shared/helpers/validateFuncs.sol\":1178:1190  return false */\n  jump(tag_144)\n    /* \"Documents/GitHub/contract-token-cryptoMonster/backend/shared/helpers/validateFuncs.sol\":906:1964  if (get_keccak256(_type) == get_keccak256(\"seed\")) {\r... */\ntag_131:\n    /* \"Documents/GitHub/contract-token-cryptoMonster/backend/shared/helpers/validateFuncs.sol\":1292:1316  get_keccak256(\"private\") */\n  0x40\n  dup1\n  mload\n  dup1\n  dup3\n  add\n  swap1\n  swap2\n  mstore\n  0x07\n  dup2\n  mstore\n  shl(0xc8, 0x70726976617465)\n  0x20\n  dup3\n  add\n  mstore\n  tag_135\n  swap1\n    /* \"Documents/GitHub/contract-token-cryptoMonster/backend/shared/helpers/validateFuncs.sol\":1292:1305  get_keccak256 */\n  tag_11\n    /* \"Documents/GitHub/contract-token-cryptoMonster/backend/shared/helpers/validateFuncs.sol\":1292:1316  get_keccak256(\"private\") */\n  jump\t// in\ntag_135:\n    /* \"Documents/GitHub/contract-token-cryptoMonster/backend/shared/helpers/validateFuncs.sol\":1268:1288  get_keccak256(_type) */\n  tag_136\n    /* \"Documents/GitHub/contract-token-cryptoMonster/backend/shared/helpers/validateFuncs.sol\":1282:1287  _type */\n  dup6\n    /* \"Documents/GitHub/contract-token-cryptoMonster/backend/shared/helpers/validateFuncs.sol\":1268:1281  get_keccak256 */\n  tag_11\n    /* \"Documents/GitHub/contract-token-cryptoMonster/backend/shared/helpers/validateFuncs.sol\":1268:1288  get_keccak256(_type) */\n  jump\t// in\ntag_136:\n    /* \"Documents/GitHub/contract-token-cryptoMonster/backend/shared/helpers/validateFuncs.sol\":1268:1316  get_keccak256(_type) == get_keccak256(\"private\") */\n  eq\n    /* \"Documents/GitHub/contract-token-cryptoMonster/backend/shared/helpers/validateFuncs.sol\":1264:1964  if (get_keccak256(_type) == get_keccak256(\"private\")) {\r... */\n  iszero\n  tag_137\n  jumpi\n  sub(shl(0xa0, 0x01), 0x01)\n    /* \"Documents/GitHub/contract-token-cryptoMonster/backend/shared/helpers/validateFuncs.sol\":1337:1368  structPhases_[_providerPrivate] */\n  dup4\n  and\n  0x00\n  swap1\n  dup2\n  mstore\n    /* \"Documents/GitHub/contract-token-cryptoMonster/backend/shared/helpers/validateFuncs.sol\":1337:1350  structPhases_ */\n  0x01\n    /* \"Documents/GitHub/contract-token-cryptoMonster/backend/shared/helpers/validateFuncs.sol\":1337:1368  structPhases_[_providerPrivate] */\n  0x20\n  dup2\n  swap1\n  mstore\n  0x40\n  swap1\n  swap2\n  keccak256\n    /* \"Documents/GitHub/contract-token-cryptoMonster/backend/shared/helpers/validateFuncs.sol\":1337:1380  structPhases_[_providerPrivate].statusPhase */\n  sload\n  0xff\n  and\n    /* \"Documents/GitHub/contract-token-cryptoMonster/backend/shared/helpers/validateFuncs.sol\":1337:1388  structPhases_[_providerPrivate].statusPhase == true */\n  iszero\n  iszero\n  eq\n    /* \"Documents/GitHub/contract-token-cryptoMonster/backend/shared/helpers/validateFuncs.sol\":1333:1415  if (structPhases_[_providerPrivate].statusPhase == true) \r... */\n  iszero\n  tag_133\n  jumpi\n  pop\n    /* \"Documents/GitHub/contract-token-cryptoMonster/backend/shared/helpers/validateFuncs.sol\":1411:1415  true */\n  0x01\n    /* \"Documents/GitHub/contract-token-cryptoMonster/backend/shared/helpers/validateFuncs.sol\":1404:1415  return true */\n  jump(tag_144)\n    /* \"Documents/GitHub/contract-token-cryptoMonster/backend/shared/helpers/validateFuncs.sol\":1264:1964  if (get_keccak256(_type) == get_keccak256(\"private\")) {\r... */\ntag_137:\n    /* \"Documents/GitHub/contract-token-cryptoMonster/backend/shared/helpers/validateFuncs.sol\":1596:1619  get_keccak256(\"public\") */\n  0x40\n  dup1\n  mload\n  dup1\n  dup3\n  add\n  swap1\n  swap2\n  mstore\n  0x06\n  dup2\n  mstore\n  shl(0xd0, 0x7075626c6963)\n  0x20\n  dup3\n  add\n  mstore\n  tag_140\n  swap1\n    /* \"Documents/GitHub/contract-token-cryptoMonster/backend/shared/helpers/validateFuncs.sol\":1596:1609  get_keccak256 */\n  tag_11\n    /* \"Documents/GitHub/contract-token-cryptoMonster/backend/shared/helpers/validateFuncs.sol\":1596:1619  get_keccak256(\"public\") */\n  jump\t// in\ntag_140:\n    /* \"Documents/GitHub/contract-token-cryptoMonster/backend/shared/helpers/validateFuncs.sol\":1572:1592  get_keccak256(_type) */\n  tag_141\n    /* \"Documents/GitHub/contract-token-cryptoMonster/backend/shared/helpers/validateFuncs.sol\":1586:1591  _type */\n  dup6\n    /* \"Documents/GitHub/contract-token-cryptoMonster/backend/shared/helpers/validateFuncs.sol\":1572:1585  get_keccak256 */\n  tag_11\n    /* \"Documents/GitHub/contract-token-cryptoMonster/backend/shared/helpers/validateFuncs.sol\":1572:1592  get_keccak256(_type) */\n  jump\t// in\ntag_141:\n    /* \"Documents/GitHub/contract-token-cryptoMonster/backend/shared/helpers/validateFuncs.sol\":1572:1619  get_keccak256(_type) == get_keccak256(\"public\") */\n  eq\n    /* \"Documents/GitHub/contract-token-cryptoMonster/backend/shared/helpers/validateFuncs.sol\":1568:1964  if (get_keccak256(_type) == get_keccak256(\"public\")) {\r... */\n  iszero\n  tag_133\n  jumpi\n  sub(shl(0xa0, 0x01), 0x01)\n    /* \"Documents/GitHub/contract-token-cryptoMonster/backend/shared/helpers/validateFuncs.sol\":1640:1670  structPhases_[_providerPublic] */\n  dup3\n  and\n  0x00\n  swap1\n  dup2\n  mstore\n    /* \"Documents/GitHub/contract-token-cryptoMonster/backend/shared/helpers/validateFuncs.sol\":1640:1653  structPhases_ */\n  0x01\n    /* \"Documents/GitHub/contract-token-cryptoMonster/backend/shared/helpers/validateFuncs.sol\":1640:1670  structPhases_[_providerPublic] */\n  0x20\n  dup2\n  swap1\n  mstore\n  0x40\n  swap1\n  swap2\n  keccak256\n    /* \"Documents/GitHub/contract-token-cryptoMonster/backend/shared/helpers/validateFuncs.sol\":1640:1682  structPhases_[_providerPublic].statusPhase */\n  sload\n  0xff\n  and\n    /* \"Documents/GitHub/contract-token-cryptoMonster/backend/shared/helpers/validateFuncs.sol\":1640:1690  structPhases_[_providerPublic].statusPhase == true */\n  iszero\n  iszero\n  eq\n    /* \"Documents/GitHub/contract-token-cryptoMonster/backend/shared/helpers/validateFuncs.sol\":1636:1716  if (structPhases_[_providerPublic].statusPhase == true)\r... */\n  iszero\n  tag_133\n  jumpi\n  pop\n    /* \"Documents/GitHub/contract-token-cryptoMonster/backend/shared/helpers/validateFuncs.sol\":1712:1716  true */\n  0x01\n    /* \"Documents/GitHub/contract-token-cryptoMonster/backend/shared/helpers/validateFuncs.sol\":1568:1964  if (get_keccak256(_type) == get_keccak256(\"public\")) {\r... */\ntag_144:\n    /* \"Documents/GitHub/contract-token-cryptoMonster/backend/shared/helpers/validateFuncs.sol\":771:1971  function validatePhase(string memory _type, address _providerPrivate, address _providerPublic) internal view returns (bool) {\r... */\n  swap4\n  swap3\n  pop\n  pop\n  pop\n  jump\t// out\n    /* \"Documents/GitHub/contract-token-cryptoMonster/backend/shared/helpers/validateFuncs.sol\":405:693  function validateOwner() internal view returns (bool) {\r... */\ntag_60:\n    /* \"Documents/GitHub/contract-token-cryptoMonster/backend/shared/helpers/validateFuncs.sol\":453:457  bool */\n  0x00\n  dup1\n    /* \"Documents/GitHub/contract-token-cryptoMonster/backend/shared/helpers/validateFuncs.sol\":487:497  msg.sender */\n  caller\n    /* \"Documents/GitHub/contract-token-cryptoMonster/backend/shared/helpers/validateFuncs.sol\":474:486  structUsers_ */\n  0x00\n    /* \"Documents/GitHub/contract-token-cryptoMonster/backend/shared/helpers/validateFuncs.sol\":474:498  structUsers_[msg.sender] */\n  swap1\n  dup2\n  mstore\n  0x20\n  dup2\n  swap1\n  mstore\n  0x40\n  swap1\n  keccak256\n    /* \"Documents/GitHub/contract-token-cryptoMonster/backend/shared/helpers/validateFuncs.sol\":474:503  structUsers_[msg.sender].role */\n  sload\n  0xff\n  and\n    /* \"Documents/GitHub/contract-token-cryptoMonster/backend/shared/helpers/validateFuncs.sol\":474:524  structUsers_[msg.sender].role == Role.SYSTEM_OWNER */\n  0x04\n  dup2\n  gt\n  iszero\n  tag_149\n  jumpi\n  tag_149\n  tag_9\n  jump\t// in\ntag_149:\n  eq\n    /* \"Documents/GitHub/contract-token-cryptoMonster/backend/shared/helpers/validateFuncs.sol\":470:550  if (structUsers_[msg.sender].role == Role.SYSTEM_OWNER)\r... */\n  iszero\n  tag_150\n  jumpi\n  pop\n    /* \"Documents/GitHub/contract-token-cryptoMonster/backend/shared/helpers/validateFuncs.sol\":546:550  true */\n  0x01\n  swap1\n    /* \"Documents/GitHub/contract-token-cryptoMonster/backend/shared/helpers/validateFuncs.sol\":405:693  function validateOwner() internal view returns (bool) {\r... */\n  jump\t// out\n    /* \"Documents/GitHub/contract-token-cryptoMonster/backend/shared/helpers/validateFuncs.sol\":470:550  if (structUsers_[msg.sender].role == Role.SYSTEM_OWNER)\r... */\ntag_150:\n  pop\n    /* \"Documents/GitHub/contract-token-cryptoMonster/backend/shared/helpers/validateFuncs.sol\":624:629  false */\n  0x00\n  swap1\n    /* \"Documents/GitHub/contract-token-cryptoMonster/backend/shared/helpers/validateFuncs.sol\":405:693  function validateOwner() internal view returns (bool) {\r... */\n  jump\t// out\n    /* \"Documents/GitHub/contract-token-cryptoMonster/backend/shared/lib/SafeMath.sol\":2846:2965  function sub(uint256 a, uint256 b) internal pure returns (uint256) {\r... */\ntag_77:\n    /* \"Documents/GitHub/contract-token-cryptoMonster/backend/shared/lib/SafeMath.sol\":2904:2911  uint256 */\n  0x00\n    /* \"Documents/GitHub/contract-token-cryptoMonster/backend/shared/lib/SafeMath.sol\":2934:2935  a */\n  dup3\n    /* \"Documents/GitHub/contract-token-cryptoMonster/backend/shared/lib/SafeMath.sol\":2929:2930  b */\n  dup3\n    /* \"Documents/GitHub/contract-token-cryptoMonster/backend/shared/lib/SafeMath.sol\":2929:2935  b <= a */\n  gt\n  iszero\n    /* \"Documents/GitHub/contract-token-cryptoMonster/backend/shared/lib/SafeMath.sol\":2922:2936  assert(b <= a) */\n  tag_153\n  jumpi\n  tag_153\n  tag_154\n  jump\t// in\ntag_153:\n    /* \"Documents/GitHub/contract-token-cryptoMonster/backend/shared/lib/SafeMath.sol\":2952:2957  a - b */\n  tag_144\n    /* \"Documents/GitHub/contract-token-cryptoMonster/backend/shared/lib/SafeMath.sol\":2956:2957  b */\n  dup3\n    /* \"Documents/GitHub/contract-token-cryptoMonster/backend/shared/lib/SafeMath.sol\":2952:2953  a */\n  dup5\n    /* \"Documents/GitHub/contract-token-cryptoMonster/backend/shared/lib/SafeMath.sol\":2952:2957  a - b */\n  tag_156\n  jump\t// in\n    /* \"Documents/GitHub/contract-token-cryptoMonster/backend/shared/lib/SafeMath.sol\":2422:2563  function add(uint256 a, uint256 b) internal pure returns (uint256) {\r... */\ntag_79:\n    /* \"Documents/GitHub/contract-token-cryptoMonster/backend/shared/lib/SafeMath.sol\":2480:2487  uint256 */\n  0x00\n  dup1\n    /* \"Documents/GitHub/contract-token-cryptoMonster/backend/shared/lib/SafeMath.sol\":2510:2515  a + b */\n  tag_158\n    /* \"Documents/GitHub/contract-token-cryptoMonster/backend/shared/lib/SafeMath.sol\":2514:2515  b */\n  dup4\n    /* \"Documents/GitHub/contract-token-cryptoMonster/backend/shared/lib/SafeMath.sol\":2510:2511  a */\n  dup6\n    /* \"Documents/GitHub/contract-token-cryptoMonster/backend/shared/lib/SafeMath.sol\":2510:2515  a + b */\n  tag_159\n  jump\t// in\ntag_158:\n    /* \"Documents/GitHub/contract-token-cryptoMonster/backend/shared/lib/SafeMath.sol\":2498:2515  uint256 c = a + b */\n  swap1\n  pop\n    /* \"Documents/GitHub/contract-token-cryptoMonster/backend/shared/lib/SafeMath.sol\":2536:2537  a */\n  dup4\n    /* \"Documents/GitHub/contract-token-cryptoMonster/backend/shared/lib/SafeMath.sol\":2531:2532  c */\n  dup2\n    /* \"Documents/GitHub/contract-token-cryptoMonster/backend/shared/lib/SafeMath.sol\":2531:2537  c >= a */\n  lt\n  iszero\n    /* \"Documents/GitHub/contract-token-cryptoMonster/backend/shared/lib/SafeMath.sol\":2524:2538  assert(c >= a) */\n  tag_144\n  jumpi\n  tag_144\n  tag_154\n  jump\t// in\n    /* \"Documents/GitHub/contract-token-cryptoMonster/backend/components/CryptoMonster.sol\":377:20940  contract CryptoMonster is IERC20, Main, PhaseSeed, PhasePrivate {\r... */\ntag_15:\n  dup3\n  dup1\n  sload\n  tag_162\n  swap1\n  tag_163\n  jump\t// in\ntag_162:\n  swap1\n  0x00\n  mstore\n  keccak256(0x00, 0x20)\n  swap1\n  0x1f\n  add\n  0x20\n  swap1\n  div\n  dup2\n  add\n  swap3\n  dup3\n  tag_165\n  jumpi\n  0x00\n  dup6\n  sstore\n  jump(tag_168)\ntag_165:\n  dup3\n  0x1f\n  lt\n  tag_166\n  jumpi\n  dup1\n  mload\n  not(0xff)\n  and\n  dup4\n  dup1\n  add\n  or\n  dup6\n  sstore\n  jump(tag_168)\ntag_166:\n  dup3\n  dup1\n  add\n  0x01\n  add\n  dup6\n  sstore\n  dup3\n  iszero\n  tag_168\n  jumpi\n  swap2\n  dup3\n  add\ntag_167:\n  dup3\n  dup2\n  gt\n  iszero\n  tag_168\n  jumpi\n  dup3\n  mload\n  dup3\n  sstore\n  swap2\n  0x20\n  add\n  swap2\n  swap1\n  0x01\n  add\n  swap1\n  jump(tag_167)\ntag_168:\n  pop\n  tag_169\n  swap3\n  swap2\n  pop\n  tag_170\n  jump\t// in\ntag_169:\n  pop\n  swap1\n  jump\t// out\ntag_170:\ntag_171:\n  dup1\n  dup3\n  gt\n  iszero\n  tag_169\n  jumpi\n  0x00\n  dup2\n  sstore\n  0x01\n  add\n  jump(tag_171)\n    /* \"#utility.yul\":14:198   */\ntag_3:\n    /* \"#utility.yul\":84:90   */\n  0x00\n    /* \"#utility.yul\":137:139   */\n  0x20\n    /* \"#utility.yul\":125:134   */\n  dup3\n    /* \"#utility.yul\":116:123   */\n  dup5\n    /* \"#utility.yul\":112:135   */\n  sub\n    /* \"#utility.yul\":108:140   */\n  slt\n    /* \"#utility.yul\":105:157   */\n  iszero\n  tag_175\n  jumpi\n    /* \"#utility.yul\":153:154   */\n  0x00\n    /* \"#utility.yul\":150:151   */\n  dup1\n    /* \"#utility.yul\":143:155   */\n  revert\n    /* \"#utility.yul\":105:157   */\ntag_175:\n  pop\n    /* \"#utility.yul\":176:192   */\n  mload\n  swap2\n    /* \"#utility.yul\":14:198   */\n  swap1\n  pop\n  jump\t// out\n    /* \"#utility.yul\":203:631   */\ntag_54:\n    /* \"#utility.yul\":334:337   */\n  0x00\n    /* \"#utility.yul\":372:378   */\n  dup3\n    /* \"#utility.yul\":366:379   */\n  mload\n    /* \"#utility.yul\":397:398   */\n  0x00\n    /* \"#utility.yul\":407:536   */\ntag_177:\n    /* \"#utility.yul\":421:427   */\n  dup2\n    /* \"#utility.yul\":418:419   */\n  dup2\n    /* \"#utility.yul\":415:428   */\n  lt\n    /* \"#utility.yul\":407:536   */\n  iszero\n  tag_179\n  jumpi\n    /* \"#utility.yul\":519:523   */\n  0x20\n    /* \"#utility.yul\":503:517   */\n  dup2\n  dup7\n  add\n    /* \"#utility.yul\":499:524   */\n  dup2\n  add\n    /* \"#utility.yul\":493:525   */\n  mload\n    /* \"#utility.yul\":480:491   */\n  dup6\n  dup4\n  add\n    /* \"#utility.yul\":473:526   */\n  mstore\n    /* \"#utility.yul\":436:448   */\n  add\n    /* \"#utility.yul\":407:536   */\n  jump(tag_177)\ntag_179:\n    /* \"#utility.yul\":554:560   */\n  dup2\n    /* \"#utility.yul\":551:552   */\n  dup2\n    /* \"#utility.yul\":548:561   */\n  gt\n    /* \"#utility.yul\":545:593   */\n  iszero\n  tag_180\n  jumpi\n    /* \"#utility.yul\":589:590   */\n  0x00\n    /* \"#utility.yul\":580:586   */\n  dup3\n    /* \"#utility.yul\":575:578   */\n  dup6\n    /* \"#utility.yul\":571:587   */\n  add\n    /* \"#utility.yul\":564:591   */\n  mstore\n    /* \"#utility.yul\":545:593   */\ntag_180:\n  pop\n    /* \"#utility.yul\":609:625   */\n  swap2\n  swap1\n  swap2\n  add\n  swap3\n    /* \"#utility.yul\":203:631   */\n  swap2\n  pop\n  pop\n  jump\t// out\n    /* \"#utility.yul\":1164:1292   */\ntag_159:\n    /* \"#utility.yul\":1204:1207   */\n  0x00\n    /* \"#utility.yul\":1235:1236   */\n  dup3\n    /* \"#utility.yul\":1231:1237   */\n  not\n    /* \"#utility.yul\":1228:1229   */\n  dup3\n    /* \"#utility.yul\":1225:1238   */\n  gt\n    /* \"#utility.yul\":1222:1261   */\n  iszero\n  tag_185\n  jumpi\n    /* \"#utility.yul\":1241:1259   */\n  tag_185\n  tag_186\n  jump\t// in\ntag_185:\n  pop\n    /* \"#utility.yul\":1277:1286   */\n  add\n  swap1\n    /* \"#utility.yul\":1164:1292   */\n  jump\t// out\n    /* \"#utility.yul\":1297:1422   */\ntag_156:\n    /* \"#utility.yul\":1337:1341   */\n  0x00\n    /* \"#utility.yul\":1365:1366   */\n  dup3\n    /* \"#utility.yul\":1362:1363   */\n  dup3\n    /* \"#utility.yul\":1359:1367   */\n  lt\n    /* \"#utility.yul\":1356:1390   */\n  iszero\n  tag_189\n  jumpi\n    /* \"#utility.yul\":1370:1388   */\n  tag_189\n  tag_186\n  jump\t// in\ntag_189:\n  pop\n    /* \"#utility.yul\":1407:1416   */\n  sub\n  swap1\n    /* \"#utility.yul\":1297:1422   */\n  jump\t// out\n    /* \"#utility.yul\":1427:1807   */\ntag_163:\n    /* \"#utility.yul\":1506:1507   */\n  0x01\n    /* \"#utility.yul\":1502:1514   */\n  dup2\n  dup2\n  shr\n  swap1\n    /* \"#utility.yul\":1549:1561   */\n  dup3\n  and\n  dup1\n    /* \"#utility.yul\":1570:1631   */\n  tag_191\n  jumpi\n    /* \"#utility.yul\":1624:1628   */\n  0x7f\n    /* \"#utility.yul\":1616:1622   */\n  dup3\n    /* \"#utility.yul\":1612:1629   */\n  and\n    /* \"#utility.yul\":1602:1629   */\n  swap2\n  pop\n    /* \"#utility.yul\":1570:1631   */\ntag_191:\n    /* \"#utility.yul\":1677:1679   */\n  0x20\n    /* \"#utility.yul\":1669:1675   */\n  dup3\n    /* \"#utility.yul\":1666:1680   */\n  lt\n    /* \"#utility.yul\":1646:1664   */\n  dup2\n    /* \"#utility.yul\":1643:1681   */\n  eq\n    /* \"#utility.yul\":1640:1801   */\n  iszero\n  tag_192\n  jumpi\n    /* \"#utility.yul\":1723:1733   */\n  0x4e487b71\n    /* \"#utility.yul\":1718:1721   */\n  0xe0\n    /* \"#utility.yul\":1714:1734   */\n  shl\n    /* \"#utility.yul\":1711:1712   */\n  0x00\n    /* \"#utility.yul\":1704:1735   */\n  mstore\n    /* \"#utility.yul\":1758:1762   */\n  0x22\n    /* \"#utility.yul\":1755:1756   */\n  0x04\n    /* \"#utility.yul\":1748:1763   */\n  mstore\n    /* \"#utility.yul\":1786:1790   */\n  0x24\n    /* \"#utility.yul\":1783:1784   */\n  0x00\n    /* \"#utility.yul\":1776:1791   */\n  revert\n    /* \"#utility.yul\":1640:1801   */\ntag_192:\n  pop\n    /* \"#utility.yul\":1427:1807   */\n  swap2\n  swap1\n  pop\n  jump\t// out\n    /* \"#utility.yul\":1812:1939   */\ntag_154:\n    /* \"#utility.yul\":1873:1883   */\n  0x4e487b71\n    /* \"#utility.yul\":1868:1871   */\n  0xe0\n    /* \"#utility.yul\":1864:1884   */\n  shl\n    /* \"#utility.yul\":1861:1862   */\n  0x00\n    /* \"#utility.yul\":1854:1885   */\n  mstore\n    /* \"#utility.yul\":1904:1908   */\n  0x01\n    /* \"#utility.yul\":1901:1902   */\n  0x04\n    /* \"#utility.yul\":1894:1909   */\n  mstore\n    /* \"#utility.yul\":1928:1932   */\n  0x24\n    /* \"#utility.yul\":1925:1926   */\n  0x00\n    /* \"#utility.yul\":1918:1933   */\n  revert\n    /* \"#utility.yul\":1944:2071   */\ntag_186:\n    /* \"#utility.yul\":2005:2015   */\n  0x4e487b71\n    /* \"#utility.yul\":2000:2003   */\n  0xe0\n    /* \"#utility.yul\":1996:2016   */\n  shl\n    /* \"#utility.yul\":1993:1994   */\n  0x00\n    /* \"#utility.yul\":1986:2017   */\n  mstore\n    /* \"#utility.yul\":2036:2040   */\n  0x11\n    /* \"#utility.yul\":2033:2034   */\n  0x04\n    /* \"#utility.yul\":2026:2041   */\n  mstore\n    /* \"#utility.yul\":2060:2064   */\n  0x24\n    /* \"#utility.yul\":2057:2058   */\n  0x00\n    /* \"#utility.yul\":2050:2065   */\n  revert\n    /* \"#utility.yul\":2076:2203   */\ntag_9:\n    /* \"#utility.yul\":2137:2147   */\n  0x4e487b71\n    /* \"#utility.yul\":2132:2135   */\n  0xe0\n    /* \"#utility.yul\":2128:2148   */\n  shl\n    /* \"#utility.yul\":2125:2126   */\n  0x00\n    /* \"#utility.yul\":2118:2149   */\n  mstore\n    /* \"#utility.yul\":2168:2172   */\n  0x21\n    /* \"#utility.yul\":2165:2166   */\n  0x04\n    /* \"#utility.yul\":2158:2173   */\n  mstore\n    /* \"#utility.yul\":2192:2196   */\n  0x24\n    /* \"#utility.yul\":2189:2190   */\n  0x00\n    /* \"#utility.yul\":2182:2197   */\n  revert\n    /* \"#utility.yul\":2076:2203   */\ntag_173:\n    /* \"Documents/GitHub/contract-token-cryptoMonster/backend/components/CryptoMonster.sol\":377:20940  contract CryptoMonster is IERC20, Main, PhaseSeed, PhasePrivate {\r... */\n  dataSize(sub_0)\n  dup1\n  dataOffset(sub_0)\n  0x00\n  codecopy\n  0x00\n  return\nstop\ndata_aafb3744b162f07202c1cec14b08048e79801d7c878b2c0eab16dd2801fec9ce d0917daa0b256b4ca08bff93fec91cc093247bf3cc8b97e585b3c6329d4b8765\ndata_ada389e1fc24a8587c776340efb91b36e675792ab631816100d55df0b5cf3cbc ddf252ad1be2c89b69c2b068fc378daa952ba7f163c4a11628f55a4df523b3ef\ndata_b419932d51bf6bdfed16bae3f9f1f38a5df16d2ef9b0328748b1d9edd7c1e16c 1a1017a437881fd8fee8ab135586d886995df9286bd91e5d3c250f79b2327f02\ndata_e92b278610ce8b6027ef7ad432103699b0132d8b129c33a54a54aa5151a105a3 000000000000000000000000ab8483f64d9c6d1ecf9b849ae677dd3315835cb2\n\nsub_0: assembly {\n        /* \"Documents/GitHub/contract-token-cryptoMonster/backend/components/CryptoMonster.sol\":377:20940  contract CryptoMonster is IERC20, Main, PhaseSeed, PhasePrivate {\r... */\n      mstore(0x40, 0x80)\n      jumpi(tag_1, lt(calldatasize, 0x04))\n      shr(0xe0, calldataload(0x00))\n      dup1\n      0x785963c3\n      gt\n      tag_16\n      jumpi\n      dup1\n      0x9d9e7a4b\n      gt\n      tag_17\n      jumpi\n      dup1\n      0x9d9e7a4b\n      eq\n      tag_12\n      jumpi\n      dup1\n      0xa9059cbb\n      eq\n      tag_13\n      jumpi\n      dup1\n      0xd96a094a\n      eq\n      tag_14\n      jumpi\n      dup1\n      0xdd62ed3e\n      eq\n      tag_15\n      jumpi\n      0x00\n      dup1\n      revert\n    tag_17:\n      dup1\n      0x785963c3\n      eq\n      tag_9\n      jumpi\n      dup1\n      0x8e4f8c6b\n      eq\n      tag_10\n      jumpi\n      dup1\n      0x95d89b41\n      eq\n      tag_11\n      jumpi\n      0x00\n      dup1\n      revert\n    tag_16:\n      dup1\n      0x18160ddd\n      gt\n      tag_18\n      jumpi\n      dup1\n      0x18160ddd\n      eq\n      tag_5\n      jumpi\n      dup1\n      0x23b872dd\n      eq\n      tag_6\n      jumpi\n      dup1\n      0x313ce567\n      eq\n      tag_7\n      jumpi\n      dup1\n      0x70a08231\n      eq\n      tag_8\n      jumpi\n      0x00\n      dup1\n      revert\n    tag_18:\n      dup1\n      0x06fdde03\n      eq\n      tag_2\n      jumpi\n      dup1\n      0x0761c8b9\n      eq\n      tag_3\n      jumpi\n      dup1\n      0x095ea7b3\n      eq\n      tag_4\n      jumpi\n    tag_1:\n      0x00\n      dup1\n      revert\n        /* \"Documents/GitHub/contract-token-cryptoMonster/backend/components/CryptoMonster.sol\":613:658  string public constant name = \"CryptoMonster\" */\n    tag_2:\n      callvalue\n      dup1\n      iszero\n      tag_19\n      jumpi\n      0x00\n      dup1\n      revert\n    tag_19:\n      pop\n      tag_20\n      mload(0x40)\n      dup1\n      0x40\n      add\n      0x40\n      mstore\n      dup1\n      0x0d\n      dup2\n      mstore\n      0x20\n      add\n      0x43727970746f4d6f6e7374657200000000000000000000000000000000000000\n      dup2\n      mstore\n      pop\n      dup2\n      jump\n    tag_20:\n      mload(0x40)\n      tag_22\n      swap2\n      swap1\n      tag_23\n      jump\t// in\n    tag_22:\n      mload(0x40)\n      dup1\n      swap2\n      sub\n      swap1\n      return\n        /* \"Documents/GitHub/contract-token-cryptoMonster/backend/components/CryptoMonster.sol\":1168:1207  uint256 public tokenPrice_ = 1000000000 */\n    tag_3:\n      callvalue\n      dup1\n      iszero\n      tag_24\n      jumpi\n      0x00\n      dup1\n      revert\n    tag_24:\n      pop\n      tag_25\n      sload(0x08)\n      dup2\n      jump\n    tag_25:\n      mload(0x40)\n        /* \"#utility.yul\":4018:4043   */\n      swap1\n      dup2\n      mstore\n        /* \"#utility.yul\":4006:4008   */\n      0x20\n        /* \"#utility.yul\":3991:4009   */\n      add\n        /* \"Documents/GitHub/contract-token-cryptoMonster/backend/components/CryptoMonster.sol\":1168:1207  uint256 public tokenPrice_ = 1000000000 */\n      tag_22\n        /* \"#utility.yul\":3872:4049   */\n      jump\n        /* \"Documents/GitHub/contract-token-cryptoMonster/backend/components/CryptoMonster.sol\":20144:20513  function approve(address _delegate, uint256 _numTokens) public override returns (bool) {\r... */\n    tag_4:\n      callvalue\n      dup1\n      iszero\n      tag_29\n      jumpi\n      0x00\n      dup1\n      revert\n    tag_29:\n      pop\n      tag_30\n      tag_31\n      calldatasize\n      0x04\n      tag_32\n      jump\t// in\n    tag_31:\n      tag_33\n      jump\t// in\n    tag_30:\n      mload(0x40)\n        /* \"#utility.yul\":3845:3859   */\n      swap1\n      iszero\n        /* \"#utility.yul\":3838:3860   */\n      iszero\n        /* \"#utility.yul\":3820:3861   */\n      dup2\n      mstore\n        /* \"#utility.yul\":3808:3810   */\n      0x20\n        /* \"#utility.yul\":3793:3811   */\n      add\n        /* \"Documents/GitHub/contract-token-cryptoMonster/backend/components/CryptoMonster.sol\":20144:20513  function approve(address _delegate, uint256 _numTokens) public override returns (bool) {\r... */\n      tag_22\n        /* \"#utility.yul\":3680:3867   */\n      jump\n        /* \"Documents/GitHub/contract-token-cryptoMonster/backend/components/CryptoMonster.sol\":4509:4609  function totalSupply() public override view returns (uint256) {\r... */\n    tag_5:\n      callvalue\n      dup1\n      iszero\n      tag_36\n      jumpi\n      0x00\n      dup1\n      revert\n    tag_36:\n      pop\n        /* \"Documents/GitHub/contract-token-cryptoMonster/backend/components/CryptoMonster.sol\":4589:4601  totalSupply_ */\n      sload(0x07)\n        /* \"Documents/GitHub/contract-token-cryptoMonster/backend/components/CryptoMonster.sol\":4509:4609  function totalSupply() public override view returns (uint256) {\r... */\n      jump(tag_25)\n        /* \"Documents/GitHub/contract-token-cryptoMonster/backend/components/CryptoMonster.sol\":13594:19808  function transferFrom(address _owner, address _buyer, uint256 _numTokens) public override returns (bool) {\r... */\n    tag_6:\n      callvalue\n      dup1\n      iszero\n      tag_40\n      jumpi\n      0x00\n      dup1\n      revert\n    tag_40:\n      pop\n      tag_30\n      tag_42\n      calldatasize\n      0x04\n      tag_43\n      jump\t// in\n    tag_42:\n      tag_44\n      jump\t// in\n        /* \"Documents/GitHub/contract-token-cryptoMonster/backend/components/CryptoMonster.sol\":777:812  uint8 public constant decimals = 12 */\n    tag_7:\n      callvalue\n      dup1\n      iszero\n      tag_46\n      jumpi\n      0x00\n      dup1\n      revert\n    tag_46:\n      pop\n      tag_47\n        /* \"Documents/GitHub/contract-token-cryptoMonster/backend/components/CryptoMonster.sol\":810:812  12 */\n      0x0c\n        /* \"Documents/GitHub/contract-token-cryptoMonster/backend/components/CryptoMonster.sol\":777:812  uint8 public constant decimals = 12 */\n      dup2\n      jump\n    tag_47:\n      mload(0x40)\n        /* \"#utility.yul\":6645:6649   */\n      0xff\n        /* \"#utility.yul\":6633:6650   */\n      swap1\n      swap2\n      and\n        /* \"#utility.yul\":6615:6651   */\n      dup2\n      mstore\n        /* \"#utility.yul\":6603:6605   */\n      0x20\n        /* \"#utility.yul\":6588:6606   */\n      add\n        /* \"Documents/GitHub/contract-token-cryptoMonster/backend/components/CryptoMonster.sol\":777:812  uint8 public constant decimals = 12 */\n      tag_22\n        /* \"#utility.yul\":6473:6657   */\n      jump\n        /* \"Documents/GitHub/contract-token-cryptoMonster/backend/components/CryptoMonster.sol\":4819:5572  function balanceOf(address _tokenOwner) public override view returns (uint256) {\r... */\n    tag_8:\n      callvalue\n      dup1\n      iszero\n      tag_51\n      jumpi\n      0x00\n      dup1\n      revert\n    tag_51:\n      pop\n      tag_25\n      tag_53\n      calldatasize\n      0x04\n      tag_54\n      jump\t// in\n    tag_53:\n      tag_55\n      jump\t// in\n        /* \"Documents/GitHub/contract-token-cryptoMonster/backend/components/PhasePrivate.sol\":224:651  function application(string memory _name, string memory _contactForCommunication, address _userAdr) public {\r... */\n    tag_9:\n      callvalue\n      dup1\n      iszero\n      tag_57\n      jumpi\n      0x00\n      dup1\n      revert\n    tag_57:\n      pop\n      tag_58\n      tag_59\n      calldatasize\n      0x04\n      tag_60\n      jump\t// in\n    tag_59:\n      tag_61\n      jump\t// in\n    tag_58:\n      stop\n        /* \"Documents/GitHub/contract-token-cryptoMonster/backend/shared/helpers/getFuncs.sol\":144:282  function get_keccak256(string memory _hash) public pure returns(bytes32) {\r... */\n    tag_10:\n      callvalue\n      dup1\n      iszero\n      tag_62\n      jumpi\n      0x00\n      dup1\n      revert\n    tag_62:\n      pop\n      tag_25\n      tag_64\n      calldatasize\n      0x04\n      tag_65\n      jump\t// in\n    tag_64:\n      tag_66\n      jump\t// in\n        /* \"Documents/GitHub/contract-token-cryptoMonster/backend/components/CryptoMonster.sol\":698:736  string public constant symbol = \"CMON\" */\n    tag_11:\n      callvalue\n      dup1\n      iszero\n      tag_69\n      jumpi\n      0x00\n      dup1\n      revert\n    tag_69:\n      pop\n      tag_20\n      mload(0x40)\n      dup1\n      0x40\n      add\n      0x40\n      mstore\n      dup1\n      0x04\n      dup2\n      mstore\n      0x20\n      add\n      0x434d4f4e00000000000000000000000000000000000000000000000000000000\n      dup2\n      mstore\n      pop\n      dup2\n      jump\n        /* \"Documents/GitHub/contract-token-cryptoMonster/backend/components/PhasePrivate.sol\":727:899  function acceptApplication (bool _changeStatus) public {\r... */\n    tag_12:\n      callvalue\n      dup1\n      iszero\n      tag_73\n      jumpi\n      0x00\n      dup1\n      revert\n    tag_73:\n      pop\n      tag_58\n      tag_75\n      calldatasize\n      0x04\n      tag_76\n      jump\t// in\n    tag_75:\n      tag_77\n      jump\t// in\n        /* \"Documents/GitHub/contract-token-cryptoMonster/backend/components/CryptoMonster.sol\":5995:13261  function transfer(address _receiver, uint256 _numTokens) public override returns (bool) {\r... */\n    tag_13:\n      callvalue\n      dup1\n      iszero\n      tag_78\n      jumpi\n      0x00\n      dup1\n      revert\n    tag_78:\n      pop\n      tag_30\n      tag_80\n      calldatasize\n      0x04\n      tag_32\n      jump\t// in\n    tag_80:\n      tag_81\n      jump\t// in\n        /* \"Documents/GitHub/contract-token-cryptoMonster/backend/components/CryptoMonster.sol\":3447:4307  function buy(uint256 _amount) external payable {\r... */\n    tag_14:\n      tag_58\n      tag_84\n      calldatasize\n      0x04\n      tag_85\n      jump\t// in\n    tag_84:\n      tag_86\n      jump\t// in\n        /* \"Documents/GitHub/contract-token-cryptoMonster/backend/components/CryptoMonster.sol\":20795:20937  function allowance(address _owner, address _delegate) public override view returns (uint) {\r... */\n    tag_15:\n      callvalue\n      dup1\n      iszero\n      tag_87\n      jumpi\n      0x00\n      dup1\n      revert\n    tag_87:\n      pop\n      tag_25\n      tag_89\n      calldatasize\n      0x04\n      tag_90\n      jump\t// in\n    tag_89:\n      sub(shl(0xa0, 0x01), 0x01)\n        /* \"Documents/GitHub/contract-token-cryptoMonster/backend/components/CryptoMonster.sol\":20903:20918  allowed[_owner] */\n      swap2\n      dup3\n      and\n        /* \"Documents/GitHub/contract-token-cryptoMonster/backend/components/CryptoMonster.sol\":20879:20883  uint */\n      0x00\n        /* \"Documents/GitHub/contract-token-cryptoMonster/backend/components/CryptoMonster.sol\":20903:20918  allowed[_owner] */\n      swap1\n      dup2\n      mstore\n        /* \"Documents/GitHub/contract-token-cryptoMonster/backend/components/CryptoMonster.sol\":20903:20910  allowed */\n      0x06\n        /* \"Documents/GitHub/contract-token-cryptoMonster/backend/components/CryptoMonster.sol\":20903:20918  allowed[_owner] */\n      0x20\n      swap1\n      dup2\n      mstore\n      0x40\n      dup1\n      dup4\n      keccak256\n        /* \"Documents/GitHub/contract-token-cryptoMonster/backend/components/CryptoMonster.sol\":20903:20929  allowed[_owner][_delegate] */\n      swap4\n      swap1\n      swap5\n      and\n      dup3\n      mstore\n      swap2\n      swap1\n      swap2\n      mstore\n      keccak256\n      sload\n      swap1\n        /* \"Documents/GitHub/contract-token-cryptoMonster/backend/components/CryptoMonster.sol\":20795:20937  function allowance(address _owner, address _delegate) public override view returns (uint) {\r... */\n      jump\n        /* \"Documents/GitHub/contract-token-cryptoMonster/backend/components/CryptoMonster.sol\":20144:20513  function approve(address _delegate, uint256 _numTokens) public override returns (bool) {\r... */\n    tag_33:\n        /* \"Documents/GitHub/contract-token-cryptoMonster/backend/components/CryptoMonster.sol\":20250:20260  msg.sender */\n      caller\n        /* \"Documents/GitHub/contract-token-cryptoMonster/backend/components/CryptoMonster.sol\":20225:20229  bool */\n      0x00\n        /* \"Documents/GitHub/contract-token-cryptoMonster/backend/components/CryptoMonster.sol\":20242:20261  allowed[msg.sender] */\n      dup2\n      dup2\n      mstore\n        /* \"Documents/GitHub/contract-token-cryptoMonster/backend/components/CryptoMonster.sol\":20242:20249  allowed */\n      0x06\n        /* \"Documents/GitHub/contract-token-cryptoMonster/backend/components/CryptoMonster.sol\":20242:20261  allowed[msg.sender] */\n      0x20\n      swap1\n      dup2\n      mstore\n      0x40\n      dup1\n      dup4\n      keccak256\n      sub(shl(0xa0, 0x01), 0x01)\n        /* \"Documents/GitHub/contract-token-cryptoMonster/backend/components/CryptoMonster.sol\":20242:20272  allowed[msg.sender][_delegate] */\n      dup8\n      and\n      dup1\n      dup6\n      mstore\n      swap3\n      mstore\n      dup1\n      dup4\n      keccak256\n        /* \"Documents/GitHub/contract-token-cryptoMonster/backend/components/CryptoMonster.sol\":20242:20285  allowed[msg.sender][_delegate] = _numTokens */\n      dup6\n      swap1\n      sstore\n        /* \"Documents/GitHub/contract-token-cryptoMonster/backend/components/CryptoMonster.sol\":20440:20483  Approval(msg.sender, _delegate, _numTokens) */\n      mload\n        /* \"Documents/GitHub/contract-token-cryptoMonster/backend/components/CryptoMonster.sol\":20225:20229  bool */\n      swap2\n      swap3\n        /* \"Documents/GitHub/contract-token-cryptoMonster/backend/components/CryptoMonster.sol\":20242:20272  allowed[msg.sender][_delegate] */\n      swap1\n      swap2\n        /* \"Documents/GitHub/contract-token-cryptoMonster/backend/components/CryptoMonster.sol\":20440:20483  Approval(msg.sender, _delegate, _numTokens) */\n      0x8c5be1e5ebec7d5bd14f71427d1e84f3dd0314c0f7b2291e5b200ac8c7c3b925\n      swap1\n      tag_96\n      swap1\n        /* \"Documents/GitHub/contract-token-cryptoMonster/backend/components/CryptoMonster.sol\":20275:20285  _numTokens */\n      dup7\n        /* \"#utility.yul\":4018:4043   */\n      dup2\n      mstore\n        /* \"#utility.yul\":4006:4008   */\n      0x20\n        /* \"#utility.yul\":3991:4009   */\n      add\n      swap1\n        /* \"#utility.yul\":3872:4049   */\n      jump\n        /* \"Documents/GitHub/contract-token-cryptoMonster/backend/components/CryptoMonster.sol\":20440:20483  Approval(msg.sender, _delegate, _numTokens) */\n    tag_96:\n      mload(0x40)\n      dup1\n      swap2\n      sub\n      swap1\n      log3\n      pop\n        /* \"Documents/GitHub/contract-token-cryptoMonster/backend/components/CryptoMonster.sol\":20501:20505  true */\n      0x01\n        /* \"Documents/GitHub/contract-token-cryptoMonster/backend/components/CryptoMonster.sol\":20144:20513  function approve(address _delegate, uint256 _numTokens) public override returns (bool) {\r... */\n    tag_95:\n      swap3\n      swap2\n      pop\n      pop\n      jump\t// out\n        /* \"Documents/GitHub/contract-token-cryptoMonster/backend/components/CryptoMonster.sol\":13594:19808  function transferFrom(address _owner, address _buyer, uint256 _numTokens) public override returns (bool) {\r... */\n    tag_44:\n        /* \"Documents/GitHub/contract-token-cryptoMonster/backend/components/CryptoMonster.sol\":13693:13697  bool */\n      0x00\n        /* \"Documents/GitHub/contract-token-cryptoMonster/backend/components/CryptoMonster.sol\":13714:13774  validatePhase(\"seed\", privateProviderAdr, publicProviderAdr) */\n      tag_99\n      mload(0x40)\n      dup1\n      0x40\n      add\n      0x40\n      mstore\n      dup1\n      0x04\n      dup2\n      mstore\n      0x20\n      add\n      shl(0xe2, 0x1cd95959)\n      dup2\n      mstore\n      pop\n        /* \"Documents/GitHub/contract-token-cryptoMonster/backend/components/CryptoMonster.sol\":1578:1620  0xAb8483F64d9C6d1EcF9b849Ae677dD3315835cb2 */\n      0xab8483f64d9c6d1ecf9b849ae677dd3315835cb2\n        /* \"Documents/GitHub/contract-token-cryptoMonster/backend/components/CryptoMonster.sol\":1694:1736  0xAb8483F64d9C6d1EcF9b849Ae677dD3315835cb2 */\n      dup1\n        /* \"Documents/GitHub/contract-token-cryptoMonster/backend/components/CryptoMonster.sol\":13714:13727  validatePhase */\n      tag_100\n        /* \"Documents/GitHub/contract-token-cryptoMonster/backend/components/CryptoMonster.sol\":13714:13774  validatePhase(\"seed\", privateProviderAdr, publicProviderAdr) */\n      jump\t// in\n    tag_99:\n        /* \"Documents/GitHub/contract-token-cryptoMonster/backend/components/CryptoMonster.sol\":13714:13782  validatePhase(\"seed\", privateProviderAdr, publicProviderAdr) == true */\n      iszero\n      iszero\n        /* \"Documents/GitHub/contract-token-cryptoMonster/backend/components/CryptoMonster.sol\":13778:13782  true */\n      0x01\n        /* \"Documents/GitHub/contract-token-cryptoMonster/backend/components/CryptoMonster.sol\":13714:13782  validatePhase(\"seed\", privateProviderAdr, publicProviderAdr) == true */\n      eq\n        /* \"Documents/GitHub/contract-token-cryptoMonster/backend/components/CryptoMonster.sol\":13710:19800  if (validatePhase(\"seed\", privateProviderAdr, publicProviderAdr) == true)  {                   // !: if фаза SEED\r... */\n      iszero\n      tag_101\n      jumpi\n        /* \"Documents/GitHub/contract-token-cryptoMonster/backend/components/CryptoMonster.sol\":13845:13860  validateOwner() */\n      tag_102\n        /* \"Documents/GitHub/contract-token-cryptoMonster/backend/components/CryptoMonster.sol\":13845:13858  validateOwner */\n      tag_103\n        /* \"Documents/GitHub/contract-token-cryptoMonster/backend/components/CryptoMonster.sol\":13845:13860  validateOwner() */\n      jump\t// in\n    tag_102:\n        /* \"Documents/GitHub/contract-token-cryptoMonster/backend/components/CryptoMonster.sol\":13845:13868  validateOwner() == true */\n      iszero\n      iszero\n        /* \"Documents/GitHub/contract-token-cryptoMonster/backend/components/CryptoMonster.sol\":13864:13868  true */\n      0x01\n        /* \"Documents/GitHub/contract-token-cryptoMonster/backend/components/CryptoMonster.sol\":13845:13868  validateOwner() == true */\n      eq\n        /* \"Documents/GitHub/contract-token-cryptoMonster/backend/components/CryptoMonster.sol\":13841:15735  if (validateOwner() == true) {                                                             // !: if пользователь является ownder'ом\r... */\n      iszero\n      tag_104\n      jumpi\n      sub(shl(0xa0, 0x01), 0x01)\n        /* \"Documents/GitHub/contract-token-cryptoMonster/backend/components/CryptoMonster.sol\":14034:14054  structUsers_[_owner] */\n      dup5\n      and\n        /* \"Documents/GitHub/contract-token-cryptoMonster/backend/components/CryptoMonster.sol\":14034:14046  structUsers_ */\n      0x00\n        /* \"Documents/GitHub/contract-token-cryptoMonster/backend/components/CryptoMonster.sol\":14034:14054  structUsers_[_owner] */\n      swap1\n      dup2\n      mstore\n      0x20\n      dup2\n      swap1\n      mstore\n      0x40\n      swap1\n      keccak256\n        /* \"Documents/GitHub/contract-token-cryptoMonster/backend/components/CryptoMonster.sol\":14034:14070  structUsers_[_owner].balance_overall */\n      0x03\n      add\n      sload\n        /* \"Documents/GitHub/contract-token-cryptoMonster/backend/components/CryptoMonster.sol\":14020:14070  _numTokens <= structUsers_[_owner].balance_overall */\n      dup3\n      gt\n      iszero\n        /* \"Documents/GitHub/contract-token-cryptoMonster/backend/components/CryptoMonster.sol\":14012:14071  require(_numTokens <= structUsers_[_owner].balance_overall) */\n      tag_105\n      jumpi\n      0x00\n      dup1\n      revert\n    tag_105:\n      sub(shl(0xa0, 0x01), 0x01)\n        /* \"Documents/GitHub/contract-token-cryptoMonster/backend/components/CryptoMonster.sol\":14176:14191  allowed[_owner] */\n      dup5\n      and\n      0x00\n      swap1\n      dup2\n      mstore\n        /* \"Documents/GitHub/contract-token-cryptoMonster/backend/components/CryptoMonster.sol\":14176:14183  allowed */\n      0x06\n        /* \"Documents/GitHub/contract-token-cryptoMonster/backend/components/CryptoMonster.sol\":14176:14191  allowed[_owner] */\n      0x20\n      swap1\n      dup2\n      mstore\n      0x40\n      dup1\n      dup4\n      keccak256\n        /* \"Documents/GitHub/contract-token-cryptoMonster/backend/components/CryptoMonster.sol\":14192:14202  msg.sender */\n      caller\n        /* \"Documents/GitHub/contract-token-cryptoMonster/backend/components/CryptoMonster.sol\":14176:14203  allowed[_owner][msg.sender] */\n      dup5\n      mstore\n      swap1\n      swap2\n      mstore\n      swap1\n      keccak256\n      sload\n        /* \"Documents/GitHub/contract-token-cryptoMonster/backend/components/CryptoMonster.sol\":14162:14203  _numTokens <= allowed[_owner][msg.sender] */\n      dup3\n      gt\n      iszero\n        /* \"Documents/GitHub/contract-token-cryptoMonster/backend/components/CryptoMonster.sol\":14154:14204  require(_numTokens <= allowed[_owner][msg.sender]) */\n      tag_106\n      jumpi\n      0x00\n      dup1\n      revert\n    tag_106:\n      sub(shl(0xa0, 0x01), 0x01)\n        /* \"Documents/GitHub/contract-token-cryptoMonster/backend/components/CryptoMonster.sol\":14334:14354  structUsers_[_owner] */\n      dup5\n      and\n        /* \"Documents/GitHub/contract-token-cryptoMonster/backend/components/CryptoMonster.sol\":14334:14346  structUsers_ */\n      0x00\n        /* \"Documents/GitHub/contract-token-cryptoMonster/backend/components/CryptoMonster.sol\":14334:14354  structUsers_[_owner] */\n      swap1\n      dup2\n      mstore\n      0x20\n      dup2\n      swap1\n      mstore\n      0x40\n      swap1\n      keccak256\n        /* \"Documents/GitHub/contract-token-cryptoMonster/backend/components/CryptoMonster.sol\":14334:14367  structUsers_[_owner].balance_seed */\n      0x04\n      add\n      sload\n        /* \"Documents/GitHub/contract-token-cryptoMonster/backend/components/CryptoMonster.sol\":14334:14383  structUsers_[_owner].balance_seed.sub(_numTokens) */\n      tag_107\n      swap1\n        /* \"Documents/GitHub/contract-token-cryptoMonster/backend/components/CryptoMonster.sol\":14372:14382  _numTokens */\n      dup4\n        /* \"Documents/GitHub/contract-token-cryptoMonster/backend/components/CryptoMonster.sol\":14334:14371  structUsers_[_owner].balance_seed.sub */\n      tag_93\n        /* \"Documents/GitHub/contract-token-cryptoMonster/backend/components/CryptoMonster.sol\":14334:14383  structUsers_[_owner].balance_seed.sub(_numTokens) */\n      jump\t// in\n    tag_107:\n      sub(shl(0xa0, 0x01), 0x01)\n        /* \"Documents/GitHub/contract-token-cryptoMonster/backend/components/CryptoMonster.sol\":14298:14318  structUsers_[_owner] */\n      dup6\n      and\n        /* \"Documents/GitHub/contract-token-cryptoMonster/backend/components/CryptoMonster.sol\":14298:14310  structUsers_ */\n      0x00\n        /* \"Documents/GitHub/contract-token-cryptoMonster/backend/components/CryptoMonster.sol\":14298:14318  structUsers_[_owner] */\n      swap1\n      dup2\n      mstore\n      0x20\n      dup2\n      dup2\n      mstore\n      0x40\n      dup1\n      dup4\n      keccak256\n        /* \"Documents/GitHub/contract-token-cryptoMonster/backend/components/CryptoMonster.sol\":14298:14331  structUsers_[_owner].balance_seed */\n      0x04\n      add\n        /* \"Documents/GitHub/contract-token-cryptoMonster/backend/components/CryptoMonster.sol\":14298:14383  structUsers_[_owner].balance_seed = structUsers_[_owner].balance_seed.sub(_numTokens) */\n      swap4\n      swap1\n      swap4\n      sstore\n        /* \"Documents/GitHub/contract-token-cryptoMonster/backend/components/CryptoMonster.sol\":14484:14491  allowed */\n      0x06\n        /* \"Documents/GitHub/contract-token-cryptoMonster/backend/components/CryptoMonster.sol\":14484:14499  allowed[_owner] */\n      dup2\n      mstore\n      dup3\n      dup3\n      keccak256\n        /* \"Documents/GitHub/contract-token-cryptoMonster/backend/components/CryptoMonster.sol\":14500:14510  msg.sender */\n      caller\n        /* \"Documents/GitHub/contract-token-cryptoMonster/backend/components/CryptoMonster.sol\":14484:14511  allowed[_owner][msg.sender] */\n      dup4\n      mstore\n      swap1\n      mstore\n      keccak256\n      sload\n        /* \"Documents/GitHub/contract-token-cryptoMonster/backend/components/CryptoMonster.sol\":14484:14527  allowed[_owner][msg.sender].sub(_numTokens) */\n      tag_108\n      swap1\n        /* \"Documents/GitHub/contract-token-cryptoMonster/backend/components/CryptoMonster.sol\":14516:14526  _numTokens */\n      dup4\n        /* \"Documents/GitHub/contract-token-cryptoMonster/backend/components/CryptoMonster.sol\":14484:14515  allowed[_owner][msg.sender].sub */\n      tag_93\n        /* \"Documents/GitHub/contract-token-cryptoMonster/backend/components/CryptoMonster.sol\":14484:14527  allowed[_owner][msg.sender].sub(_numTokens) */\n      jump\t// in\n    tag_108:\n      sub(shl(0xa0, 0x01), 0x01)\n        /* \"Documents/GitHub/contract-token-cryptoMonster/backend/components/CryptoMonster.sol\":14454:14469  allowed[_owner] */\n      dup1\n      dup7\n      and\n      0x00\n      swap1\n      dup2\n      mstore\n        /* \"Documents/GitHub/contract-token-cryptoMonster/backend/components/CryptoMonster.sol\":14454:14461  allowed */\n      0x06\n        /* \"Documents/GitHub/contract-token-cryptoMonster/backend/components/CryptoMonster.sol\":14454:14469  allowed[_owner] */\n      0x20\n      swap1\n      dup2\n      mstore\n      0x40\n      dup1\n      dup4\n      keccak256\n        /* \"Documents/GitHub/contract-token-cryptoMonster/backend/components/CryptoMonster.sol\":14470:14480  msg.sender */\n      caller\n        /* \"Documents/GitHub/contract-token-cryptoMonster/backend/components/CryptoMonster.sol\":14454:14481  allowed[_owner][msg.sender] */\n      dup5\n      mstore\n      dup3\n      mstore\n      dup1\n      dup4\n      keccak256\n        /* \"Documents/GitHub/contract-token-cryptoMonster/backend/components/CryptoMonster.sol\":14454:14527  allowed[_owner][msg.sender] = allowed[_owner][msg.sender].sub(_numTokens) */\n      swap5\n      swap1\n      swap5\n      sstore\n        /* \"Documents/GitHub/contract-token-cryptoMonster/backend/components/CryptoMonster.sol\":14646:14666  structUsers_[_buyer] */\n      swap2\n      dup7\n      and\n      dup2\n      mstore\n      swap1\n      dup2\n      swap1\n      mstore\n      keccak256\n        /* \"Documents/GitHub/contract-token-cryptoMonster/backend/components/CryptoMonster.sol\":14646:14679  structUsers_[_buyer].balance_seed */\n      0x04\n      add\n      sload\n        /* \"Documents/GitHub/contract-token-cryptoMonster/backend/components/CryptoMonster.sol\":14646:14695  structUsers_[_buyer].balance_seed.add(_numTokens) */\n      tag_109\n      swap1\n        /* \"Documents/GitHub/contract-token-cryptoMonster/backend/components/CryptoMonster.sol\":14684:14694  _numTokens */\n      dup4\n        /* \"Documents/GitHub/contract-token-cryptoMonster/backend/components/CryptoMonster.sol\":14646:14683  structUsers_[_buyer].balance_seed.add */\n      tag_94\n        /* \"Documents/GitHub/contract-token-cryptoMonster/backend/components/CryptoMonster.sol\":14646:14695  structUsers_[_buyer].balance_seed.add(_numTokens) */\n      jump\t// in\n    tag_109:\n      sub(shl(0xa0, 0x01), 0x01)\n        /* \"Documents/GitHub/contract-token-cryptoMonster/backend/components/CryptoMonster.sol\":14610:14630  structUsers_[_buyer] */\n      dup5\n      dup2\n      and\n        /* \"Documents/GitHub/contract-token-cryptoMonster/backend/components/CryptoMonster.sol\":14610:14622  structUsers_ */\n      0x00\n        /* \"Documents/GitHub/contract-token-cryptoMonster/backend/components/CryptoMonster.sol\":14610:14630  structUsers_[_buyer] */\n      dup2\n      dup2\n      mstore\n      0x20\n      dup2\n      dup2\n      mstore\n      0x40\n      swap2\n      dup3\n      swap1\n      keccak256\n        /* \"Documents/GitHub/contract-token-cryptoMonster/backend/components/CryptoMonster.sol\":14610:14643  structUsers_[_buyer].balance_seed */\n      0x04\n      add\n        /* \"Documents/GitHub/contract-token-cryptoMonster/backend/components/CryptoMonster.sol\":14610:14695  structUsers_[_buyer].balance_seed = structUsers_[_buyer].balance_seed.add(_numTokens) */\n      swap5\n      swap1\n      swap5\n      sstore\n        /* \"Documents/GitHub/contract-token-cryptoMonster/backend/components/CryptoMonster.sol\":14779:14815  Transfer(_owner, _buyer, _numTokens) */\n      mload\n        /* \"#utility.yul\":4018:4043   */\n      dup6\n      dup2\n      mstore\n        /* \"Documents/GitHub/contract-token-cryptoMonster/backend/components/CryptoMonster.sol\":14610:14630  structUsers_[_buyer] */\n      swap1\n      swap3\n        /* \"Documents/GitHub/contract-token-cryptoMonster/backend/components/CryptoMonster.sol\":14779:14815  Transfer(_owner, _buyer, _numTokens) */\n      swap2\n      dup8\n      and\n      swap2\n      0xddf252ad1be2c89b69c2b068fc378daa952ba7f163c4a11628f55a4df523b3ef\n      swap2\n        /* \"#utility.yul\":3991:4009   */\n      add\n        /* \"Documents/GitHub/contract-token-cryptoMonster/backend/components/CryptoMonster.sol\":14779:14815  Transfer(_owner, _buyer, _numTokens) */\n    tag_110:\n      mload(0x40)\n      dup1\n      swap2\n      sub\n      swap1\n      log3\n      pop\n        /* \"Documents/GitHub/contract-token-cryptoMonster/backend/components/CryptoMonster.sol\":14841:14845  true */\n      0x01\n        /* \"Documents/GitHub/contract-token-cryptoMonster/backend/components/CryptoMonster.sol\":14834:14845  return true */\n      jump(tag_154)\n        /* \"Documents/GitHub/contract-token-cryptoMonster/backend/components/CryptoMonster.sol\":13841:15735  if (validateOwner() == true) {                                                             // !: if пользователь является ownder'ом\r... */\n    tag_104:\n      sub(shl(0xa0, 0x01), 0x01)\n        /* \"Documents/GitHub/contract-token-cryptoMonster/backend/components/CryptoMonster.sol\":14908:14928  structUsers_[_owner] */\n      dup5\n      and\n        /* \"Documents/GitHub/contract-token-cryptoMonster/backend/components/CryptoMonster.sol\":14908:14920  structUsers_ */\n      0x00\n        /* \"Documents/GitHub/contract-token-cryptoMonster/backend/components/CryptoMonster.sol\":14908:14928  structUsers_[_owner] */\n      swap1\n      dup2\n      mstore\n      0x20\n      dup2\n      swap1\n      mstore\n      0x40\n      swap1\n      keccak256\n        /* \"Documents/GitHub/contract-token-cryptoMonster/backend/components/CryptoMonster.sol\":14908:14941  structUsers_[_owner].balance_seed */\n      0x04\n      add\n      sload\n        /* \"Documents/GitHub/contract-token-cryptoMonster/backend/components/CryptoMonster.sol\":14894:14941  _numTokens <= structUsers_[_owner].balance_seed */\n      dup3\n      gt\n      iszero\n        /* \"Documents/GitHub/contract-token-cryptoMonster/backend/components/CryptoMonster.sol\":14886:14942  require(_numTokens <= structUsers_[_owner].balance_seed) */\n      tag_105\n      jumpi\n      0x00\n      dup1\n      revert\n        /* \"Documents/GitHub/contract-token-cryptoMonster/backend/components/CryptoMonster.sol\":13710:19800  if (validatePhase(\"seed\", privateProviderAdr, publicProviderAdr) == true)  {                   // !: if фаза SEED\r... */\n    tag_101:\n        /* \"Documents/GitHub/contract-token-cryptoMonster/backend/components/CryptoMonster.sol\":15756:15819  validatePhase(\"private\", privateProviderAdr, publicProviderAdr) */\n      tag_119\n      mload(0x40)\n      dup1\n      0x40\n      add\n      0x40\n      mstore\n      dup1\n      0x07\n      dup2\n      mstore\n      0x20\n      add\n      shl(0xc8, 0x70726976617465)\n      dup2\n      mstore\n      pop\n        /* \"Documents/GitHub/contract-token-cryptoMonster/backend/components/CryptoMonster.sol\":1578:1620  0xAb8483F64d9C6d1EcF9b849Ae677dD3315835cb2 */\n      0xab8483f64d9c6d1ecf9b849ae677dd3315835cb2\n        /* \"Documents/GitHub/contract-token-cryptoMonster/backend/components/CryptoMonster.sol\":1694:1736  0xAb8483F64d9C6d1EcF9b849Ae677dD3315835cb2 */\n      dup1\n        /* \"Documents/GitHub/contract-token-cryptoMonster/backend/components/CryptoMonster.sol\":15756:15769  validatePhase */\n      tag_100\n        /* \"Documents/GitHub/contract-token-cryptoMonster/backend/components/CryptoMonster.sol\":15756:15819  validatePhase(\"private\", privateProviderAdr, publicProviderAdr) */\n      jump\t// in\n    tag_119:\n        /* \"Documents/GitHub/contract-token-cryptoMonster/backend/components/CryptoMonster.sol\":15756:15827  validatePhase(\"private\", privateProviderAdr, publicProviderAdr) == true */\n      iszero\n      iszero\n        /* \"Documents/GitHub/contract-token-cryptoMonster/backend/components/CryptoMonster.sol\":15823:15827  true */\n      0x01\n        /* \"Documents/GitHub/contract-token-cryptoMonster/backend/components/CryptoMonster.sol\":15756:15827  validatePhase(\"private\", privateProviderAdr, publicProviderAdr) == true */\n      eq\n        /* \"Documents/GitHub/contract-token-cryptoMonster/backend/components/CryptoMonster.sol\":15752:19800  if (validatePhase(\"private\", privateProviderAdr, publicProviderAdr) == true) {     \r... */\n      iszero\n      tag_120\n      jumpi\n        /* \"Documents/GitHub/contract-token-cryptoMonster/backend/components/CryptoMonster.sol\":15853:15868  validateOwner() */\n      tag_121\n        /* \"Documents/GitHub/contract-token-cryptoMonster/backend/components/CryptoMonster.sol\":15853:15866  validateOwner */\n      tag_103\n        /* \"Documents/GitHub/contract-token-cryptoMonster/backend/components/CryptoMonster.sol\":15853:15868  validateOwner() */\n      jump\t// in\n    tag_121:\n        /* \"Documents/GitHub/contract-token-cryptoMonster/backend/components/CryptoMonster.sol\":15853:15876  validateOwner() == true */\n      iszero\n      iszero\n        /* \"Documents/GitHub/contract-token-cryptoMonster/backend/components/CryptoMonster.sol\":15872:15876  true */\n      0x01\n        /* \"Documents/GitHub/contract-token-cryptoMonster/backend/components/CryptoMonster.sol\":15853:15876  validateOwner() == true */\n      eq\n        /* \"Documents/GitHub/contract-token-cryptoMonster/backend/components/CryptoMonster.sol\":15849:17758  if (validateOwner() == true) {                                                             // !: if пользователь является ownder'ом\r... */\n      iszero\n      tag_122\n      jumpi\n      sub(shl(0xa0, 0x01), 0x01)\n        /* \"Documents/GitHub/contract-token-cryptoMonster/backend/components/CryptoMonster.sol\":16042:16062  structUsers_[_owner] */\n      dup5\n      and\n        /* \"Documents/GitHub/contract-token-cryptoMonster/backend/components/CryptoMonster.sol\":16042:16054  structUsers_ */\n      0x00\n        /* \"Documents/GitHub/contract-token-cryptoMonster/backend/components/CryptoMonster.sol\":16042:16062  structUsers_[_owner] */\n      swap1\n      dup2\n      mstore\n      0x20\n      dup2\n      swap1\n      mstore\n      0x40\n      swap1\n      keccak256\n        /* \"Documents/GitHub/contract-token-cryptoMonster/backend/components/CryptoMonster.sol\":16042:16078  structUsers_[_owner].balance_overall */\n      0x03\n      add\n      sload\n        /* \"Documents/GitHub/contract-token-cryptoMonster/backend/components/CryptoMonster.sol\":16028:16078  _numTokens <= structUsers_[_owner].balance_overall */\n      dup3\n      gt\n      iszero\n        /* \"Documents/GitHub/contract-token-cryptoMonster/backend/components/CryptoMonster.sol\":16020:16079  require(_numTokens <= structUsers_[_owner].balance_overall) */\n      tag_105\n      jumpi\n      0x00\n      dup1\n      revert\n        /* \"Documents/GitHub/contract-token-cryptoMonster/backend/components/CryptoMonster.sol\":15849:17758  if (validateOwner() == true) {                                                             // !: if пользователь является ownder'ом\r... */\n    tag_122:\n      sub(shl(0xa0, 0x01), 0x01)\n        /* \"Documents/GitHub/contract-token-cryptoMonster/backend/components/CryptoMonster.sol\":16916:16936  structUsers_[_owner] */\n      dup5\n      and\n        /* \"Documents/GitHub/contract-token-cryptoMonster/backend/components/CryptoMonster.sol\":16916:16928  structUsers_ */\n      0x00\n        /* \"Documents/GitHub/contract-token-cryptoMonster/backend/components/CryptoMonster.sol\":16916:16936  structUsers_[_owner] */\n      swap1\n      dup2\n      mstore\n      0x20\n      dup2\n      swap1\n      mstore\n      0x40\n      swap1\n      keccak256\n        /* \"Documents/GitHub/contract-token-cryptoMonster/backend/components/CryptoMonster.sol\":16916:16952  structUsers_[_owner].balance_private */\n      0x05\n      add\n      sload\n        /* \"Documents/GitHub/contract-token-cryptoMonster/backend/components/CryptoMonster.sol\":16902:16952  _numTokens <= structUsers_[_owner].balance_private */\n      dup3\n      gt\n      iszero\n        /* \"Documents/GitHub/contract-token-cryptoMonster/backend/components/CryptoMonster.sol\":16894:16953  require(_numTokens <= structUsers_[_owner].balance_private) */\n      tag_130\n      jumpi\n      0x00\n      dup1\n      revert\n    tag_130:\n      sub(shl(0xa0, 0x01), 0x01)\n        /* \"Documents/GitHub/contract-token-cryptoMonster/backend/components/CryptoMonster.sol\":17061:17076  allowed[_owner] */\n      dup5\n      and\n      0x00\n      swap1\n      dup2\n      mstore\n        /* \"Documents/GitHub/contract-token-cryptoMonster/backend/components/CryptoMonster.sol\":17061:17068  allowed */\n      0x06\n        /* \"Documents/GitHub/contract-token-cryptoMonster/backend/components/CryptoMonster.sol\":17061:17076  allowed[_owner] */\n      0x20\n      swap1\n      dup2\n      mstore\n      0x40\n      dup1\n      dup4\n      keccak256\n        /* \"Documents/GitHub/contract-token-cryptoMonster/backend/components/CryptoMonster.sol\":17077:17087  msg.sender */\n      caller\n        /* \"Documents/GitHub/contract-token-cryptoMonster/backend/components/CryptoMonster.sol\":17061:17088  allowed[_owner][msg.sender] */\n      dup5\n      mstore\n      swap1\n      swap2\n      mstore\n      swap1\n      keccak256\n      sload\n        /* \"Documents/GitHub/contract-token-cryptoMonster/backend/components/CryptoMonster.sol\":17047:17088  _numTokens <= allowed[_owner][msg.sender] */\n      dup3\n      gt\n      iszero\n        /* \"Documents/GitHub/contract-token-cryptoMonster/backend/components/CryptoMonster.sol\":17039:17089  require(_numTokens <= allowed[_owner][msg.sender]) */\n      tag_131\n      jumpi\n      0x00\n      dup1\n      revert\n    tag_131:\n      sub(shl(0xa0, 0x01), 0x01)\n        /* \"Documents/GitHub/contract-token-cryptoMonster/backend/components/CryptoMonster.sol\":17222:17242  structUsers_[_owner] */\n      dup5\n      and\n        /* \"Documents/GitHub/contract-token-cryptoMonster/backend/components/CryptoMonster.sol\":17222:17234  structUsers_ */\n      0x00\n        /* \"Documents/GitHub/contract-token-cryptoMonster/backend/components/CryptoMonster.sol\":17222:17242  structUsers_[_owner] */\n      swap1\n      dup2\n      mstore\n      0x20\n      dup2\n      swap1\n      mstore\n      0x40\n      swap1\n      keccak256\n        /* \"Documents/GitHub/contract-token-cryptoMonster/backend/components/CryptoMonster.sol\":17222:17258  structUsers_[_owner].balance_private */\n      0x05\n      add\n      sload\n        /* \"Documents/GitHub/contract-token-cryptoMonster/backend/components/CryptoMonster.sol\":17222:17274  structUsers_[_owner].balance_private.sub(_numTokens) */\n      tag_132\n      swap1\n        /* \"Documents/GitHub/contract-token-cryptoMonster/backend/components/CryptoMonster.sol\":17263:17273  _numTokens */\n      dup4\n        /* \"Documents/GitHub/contract-token-cryptoMonster/backend/components/CryptoMonster.sol\":17222:17262  structUsers_[_owner].balance_private.sub */\n      tag_93\n        /* \"Documents/GitHub/contract-token-cryptoMonster/backend/components/CryptoMonster.sol\":17222:17274  structUsers_[_owner].balance_private.sub(_numTokens) */\n      jump\t// in\n    tag_132:\n      sub(shl(0xa0, 0x01), 0x01)\n        /* \"Documents/GitHub/contract-token-cryptoMonster/backend/components/CryptoMonster.sol\":17183:17203  structUsers_[_owner] */\n      dup6\n      and\n        /* \"Documents/GitHub/contract-token-cryptoMonster/backend/components/CryptoMonster.sol\":17183:17195  structUsers_ */\n      0x00\n        /* \"Documents/GitHub/contract-token-cryptoMonster/backend/components/CryptoMonster.sol\":17183:17203  structUsers_[_owner] */\n      swap1\n      dup2\n      mstore\n      0x20\n      dup2\n      dup2\n      mstore\n      0x40\n      dup1\n      dup4\n      keccak256\n        /* \"Documents/GitHub/contract-token-cryptoMonster/backend/components/CryptoMonster.sol\":17183:17219  structUsers_[_owner].balance_private */\n      0x05\n      add\n        /* \"Documents/GitHub/contract-token-cryptoMonster/backend/components/CryptoMonster.sol\":17183:17274  structUsers_[_owner].balance_private = structUsers_[_owner].balance_private.sub(_numTokens) */\n      swap4\n      swap1\n      swap4\n      sstore\n        /* \"Documents/GitHub/contract-token-cryptoMonster/backend/components/CryptoMonster.sol\":17375:17382  allowed */\n      0x06\n        /* \"Documents/GitHub/contract-token-cryptoMonster/backend/components/CryptoMonster.sol\":17375:17390  allowed[_owner] */\n      dup2\n      mstore\n      dup3\n      dup3\n      keccak256\n        /* \"Documents/GitHub/contract-token-cryptoMonster/backend/components/CryptoMonster.sol\":17391:17401  msg.sender */\n      caller\n        /* \"Documents/GitHub/contract-token-cryptoMonster/backend/components/CryptoMonster.sol\":17375:17402  allowed[_owner][msg.sender] */\n      dup4\n      mstore\n      swap1\n      mstore\n      keccak256\n      sload\n        /* \"Documents/GitHub/contract-token-cryptoMonster/backend/components/CryptoMonster.sol\":17375:17418  allowed[_owner][msg.sender].sub(_numTokens) */\n      tag_133\n      swap1\n        /* \"Documents/GitHub/contract-token-cryptoMonster/backend/components/CryptoMonster.sol\":17407:17417  _numTokens */\n      dup4\n        /* \"Documents/GitHub/contract-token-cryptoMonster/backend/components/CryptoMonster.sol\":17375:17406  allowed[_owner][msg.sender].sub */\n      tag_93\n        /* \"Documents/GitHub/contract-token-cryptoMonster/backend/components/CryptoMonster.sol\":17375:17418  allowed[_owner][msg.sender].sub(_numTokens) */\n      jump\t// in\n    tag_133:\n      sub(shl(0xa0, 0x01), 0x01)\n        /* \"Documents/GitHub/contract-token-cryptoMonster/backend/components/CryptoMonster.sol\":17345:17360  allowed[_owner] */\n      dup1\n      dup7\n      and\n      0x00\n      swap1\n      dup2\n      mstore\n        /* \"Documents/GitHub/contract-token-cryptoMonster/backend/components/CryptoMonster.sol\":17345:17352  allowed */\n      0x06\n        /* \"Documents/GitHub/contract-token-cryptoMonster/backend/components/CryptoMonster.sol\":17345:17360  allowed[_owner] */\n      0x20\n      swap1\n      dup2\n      mstore\n      0x40\n      dup1\n      dup4\n      keccak256\n        /* \"Documents/GitHub/contract-token-cryptoMonster/backend/components/CryptoMonster.sol\":17361:17371  msg.sender */\n      caller\n        /* \"Documents/GitHub/contract-token-cryptoMonster/backend/components/CryptoMonster.sol\":17345:17372  allowed[_owner][msg.sender] */\n      dup5\n      mstore\n      dup3\n      mstore\n      dup1\n      dup4\n      keccak256\n        /* \"Documents/GitHub/contract-token-cryptoMonster/backend/components/CryptoMonster.sol\":17345:17418  allowed[_owner][msg.sender] = allowed[_owner][msg.sender].sub(_numTokens) */\n      swap5\n      swap1\n      swap5\n      sstore\n        /* \"Documents/GitHub/contract-token-cryptoMonster/backend/components/CryptoMonster.sol\":17540:17560  structUsers_[_buyer] */\n      swap2\n      dup7\n      and\n      dup2\n      mstore\n      swap1\n      dup2\n      swap1\n      mstore\n      keccak256\n        /* \"Documents/GitHub/contract-token-cryptoMonster/backend/components/CryptoMonster.sol\":17540:17576  structUsers_[_buyer].balance_private */\n      0x05\n      add\n      sload\n        /* \"Documents/GitHub/contract-token-cryptoMonster/backend/components/CryptoMonster.sol\":17540:17592  structUsers_[_buyer].balance_private.add(_numTokens) */\n      tag_134\n      swap1\n        /* \"Documents/GitHub/contract-token-cryptoMonster/backend/components/CryptoMonster.sol\":17581:17591  _numTokens */\n      dup4\n        /* \"Documents/GitHub/contract-token-cryptoMonster/backend/components/CryptoMonster.sol\":17540:17580  structUsers_[_buyer].balance_private.add */\n      tag_94\n        /* \"Documents/GitHub/contract-token-cryptoMonster/backend/components/CryptoMonster.sol\":17540:17592  structUsers_[_buyer].balance_private.add(_numTokens) */\n      jump\t// in\n    tag_134:\n      sub(shl(0xa0, 0x01), 0x01)\n        /* \"Documents/GitHub/contract-token-cryptoMonster/backend/components/CryptoMonster.sol\":17501:17521  structUsers_[_buyer] */\n      dup5\n      dup2\n      and\n        /* \"Documents/GitHub/contract-token-cryptoMonster/backend/components/CryptoMonster.sol\":17501:17513  structUsers_ */\n      0x00\n        /* \"Documents/GitHub/contract-token-cryptoMonster/backend/components/CryptoMonster.sol\":17501:17521  structUsers_[_buyer] */\n      dup2\n      dup2\n      mstore\n      0x20\n      dup2\n      dup2\n      mstore\n      0x40\n      swap2\n      dup3\n      swap1\n      keccak256\n        /* \"Documents/GitHub/contract-token-cryptoMonster/backend/components/CryptoMonster.sol\":17501:17537  structUsers_[_buyer].balance_private */\n      0x05\n      add\n        /* \"Documents/GitHub/contract-token-cryptoMonster/backend/components/CryptoMonster.sol\":17501:17592  structUsers_[_buyer].balance_private = structUsers_[_buyer].balance_private.add(_numTokens) */\n      swap5\n      swap1\n      swap5\n      sstore\n        /* \"Documents/GitHub/contract-token-cryptoMonster/backend/components/CryptoMonster.sol\":17676:17712  Transfer(_owner, _buyer, _numTokens) */\n      mload\n        /* \"#utility.yul\":4018:4043   */\n      dup6\n      dup2\n      mstore\n        /* \"Documents/GitHub/contract-token-cryptoMonster/backend/components/CryptoMonster.sol\":17501:17521  structUsers_[_buyer] */\n      swap1\n      swap3\n        /* \"Documents/GitHub/contract-token-cryptoMonster/backend/components/CryptoMonster.sol\":17676:17712  Transfer(_owner, _buyer, _numTokens) */\n      swap2\n      dup8\n      and\n      swap2\n      0xddf252ad1be2c89b69c2b068fc378daa952ba7f163c4a11628f55a4df523b3ef\n      swap2\n        /* \"#utility.yul\":3991:4009   */\n      add\n        /* \"Documents/GitHub/contract-token-cryptoMonster/backend/components/CryptoMonster.sol\":17676:17712  Transfer(_owner, _buyer, _numTokens) */\n      tag_110\n        /* \"#utility.yul\":3872:4049   */\n      jump\n        /* \"Documents/GitHub/contract-token-cryptoMonster/backend/components/CryptoMonster.sol\":15752:19800  if (validatePhase(\"private\", privateProviderAdr, publicProviderAdr) == true) {     \r... */\n    tag_120:\n        /* \"Documents/GitHub/contract-token-cryptoMonster/backend/components/CryptoMonster.sol\":17779:17841  validatePhase(\"public\", privateProviderAdr, publicProviderAdr) */\n      tag_137\n      mload(0x40)\n      dup1\n      0x40\n      add\n      0x40\n      mstore\n      dup1\n      0x06\n      dup2\n      mstore\n      0x20\n      add\n      shl(0xd0, 0x7075626c6963)\n      dup2\n      mstore\n      pop\n        /* \"Documents/GitHub/contract-token-cryptoMonster/backend/components/CryptoMonster.sol\":1578:1620  0xAb8483F64d9C6d1EcF9b849Ae677dD3315835cb2 */\n      0xab8483f64d9c6d1ecf9b849ae677dd3315835cb2\n        /* \"Documents/GitHub/contract-token-cryptoMonster/backend/components/CryptoMonster.sol\":1694:1736  0xAb8483F64d9C6d1EcF9b849Ae677dD3315835cb2 */\n      dup1\n        /* \"Documents/GitHub/contract-token-cryptoMonster/backend/components/CryptoMonster.sol\":17779:17792  validatePhase */\n      tag_100\n        /* \"Documents/GitHub/contract-token-cryptoMonster/backend/components/CryptoMonster.sol\":17779:17841  validatePhase(\"public\", privateProviderAdr, publicProviderAdr) */\n      jump\t// in\n    tag_137:\n        /* \"Documents/GitHub/contract-token-cryptoMonster/backend/components/CryptoMonster.sol\":17779:17849  validatePhase(\"public\", privateProviderAdr, publicProviderAdr) == true */\n      iszero\n      iszero\n        /* \"Documents/GitHub/contract-token-cryptoMonster/backend/components/CryptoMonster.sol\":17845:17849  true */\n      0x01\n        /* \"Documents/GitHub/contract-token-cryptoMonster/backend/components/CryptoMonster.sol\":17779:17849  validatePhase(\"public\", privateProviderAdr, publicProviderAdr) == true */\n      eq\n        /* \"Documents/GitHub/contract-token-cryptoMonster/backend/components/CryptoMonster.sol\":17775:19800  if (validatePhase(\"public\", privateProviderAdr, publicProviderAdr) == true) { \r... */\n      iszero\n      tag_138\n      jumpi\n        /* \"Documents/GitHub/contract-token-cryptoMonster/backend/components/CryptoMonster.sol\":17871:17886  validateOwner() */\n      tag_139\n        /* \"Documents/GitHub/contract-token-cryptoMonster/backend/components/CryptoMonster.sol\":17871:17884  validateOwner */\n      tag_103\n        /* \"Documents/GitHub/contract-token-cryptoMonster/backend/components/CryptoMonster.sol\":17871:17886  validateOwner() */\n      jump\t// in\n    tag_139:\n        /* \"Documents/GitHub/contract-token-cryptoMonster/backend/components/CryptoMonster.sol\":17871:17894  validateOwner() == true */\n      iszero\n      iszero\n        /* \"Documents/GitHub/contract-token-cryptoMonster/backend/components/CryptoMonster.sol\":17890:17894  true */\n      0x01\n        /* \"Documents/GitHub/contract-token-cryptoMonster/backend/components/CryptoMonster.sol\":17871:17894  validateOwner() == true */\n      eq\n        /* \"Documents/GitHub/contract-token-cryptoMonster/backend/components/CryptoMonster.sol\":17867:19771  if (validateOwner() == true) {                                                             // !: if пользователь является ownder'ом\r... */\n      iszero\n      tag_140\n      jumpi\n      sub(shl(0xa0, 0x01), 0x01)\n        /* \"Documents/GitHub/contract-token-cryptoMonster/backend/components/CryptoMonster.sol\":18060:18080  structUsers_[_owner] */\n      dup5\n      and\n        /* \"Documents/GitHub/contract-token-cryptoMonster/backend/components/CryptoMonster.sol\":18060:18072  structUsers_ */\n      0x00\n        /* \"Documents/GitHub/contract-token-cryptoMonster/backend/components/CryptoMonster.sol\":18060:18080  structUsers_[_owner] */\n      swap1\n      dup2\n      mstore\n      0x20\n      dup2\n      swap1\n      mstore\n      0x40\n      swap1\n      keccak256\n        /* \"Documents/GitHub/contract-token-cryptoMonster/backend/components/CryptoMonster.sol\":18060:18096  structUsers_[_owner].balance_overall */\n      0x03\n      add\n      sload\n        /* \"Documents/GitHub/contract-token-cryptoMonster/backend/components/CryptoMonster.sol\":18046:18096  _numTokens <= structUsers_[_owner].balance_overall */\n      dup3\n      gt\n      iszero\n        /* \"Documents/GitHub/contract-token-cryptoMonster/backend/components/CryptoMonster.sol\":18038:18097  require(_numTokens <= structUsers_[_owner].balance_overall) */\n      tag_105\n      jumpi\n      0x00\n      dup1\n      revert\n        /* \"Documents/GitHub/contract-token-cryptoMonster/backend/components/CryptoMonster.sol\":17867:19771  if (validateOwner() == true) {                                                             // !: if пользователь является ownder'ом\r... */\n    tag_140:\n      sub(shl(0xa0, 0x01), 0x01)\n        /* \"Documents/GitHub/contract-token-cryptoMonster/backend/components/CryptoMonster.sol\":18934:18954  structUsers_[_owner] */\n      dup5\n      and\n        /* \"Documents/GitHub/contract-token-cryptoMonster/backend/components/CryptoMonster.sol\":18934:18946  structUsers_ */\n      0x00\n        /* \"Documents/GitHub/contract-token-cryptoMonster/backend/components/CryptoMonster.sol\":18934:18954  structUsers_[_owner] */\n      swap1\n      dup2\n      mstore\n      0x20\n      dup2\n      swap1\n      mstore\n      0x40\n      swap1\n      keccak256\n        /* \"Documents/GitHub/contract-token-cryptoMonster/backend/components/CryptoMonster.sol\":18934:18969  structUsers_[_owner].balance_public */\n      0x06\n      add\n      sload\n        /* \"Documents/GitHub/contract-token-cryptoMonster/backend/components/CryptoMonster.sol\":18920:18969  _numTokens <= structUsers_[_owner].balance_public */\n      dup3\n      gt\n      iszero\n        /* \"Documents/GitHub/contract-token-cryptoMonster/backend/components/CryptoMonster.sol\":18912:18970  require(_numTokens <= structUsers_[_owner].balance_public) */\n      tag_148\n      jumpi\n      0x00\n      dup1\n      revert\n    tag_148:\n      sub(shl(0xa0, 0x01), 0x01)\n        /* \"Documents/GitHub/contract-token-cryptoMonster/backend/components/CryptoMonster.sol\":19078:19093  allowed[_owner] */\n      dup5\n      and\n      0x00\n      swap1\n      dup2\n      mstore\n        /* \"Documents/GitHub/contract-token-cryptoMonster/backend/components/CryptoMonster.sol\":19078:19085  allowed */\n      0x06\n        /* \"Documents/GitHub/contract-token-cryptoMonster/backend/components/CryptoMonster.sol\":19078:19093  allowed[_owner] */\n      0x20\n      swap1\n      dup2\n      mstore\n      0x40\n      dup1\n      dup4\n      keccak256\n        /* \"Documents/GitHub/contract-token-cryptoMonster/backend/components/CryptoMonster.sol\":19094:19104  msg.sender */\n      caller\n        /* \"Documents/GitHub/contract-token-cryptoMonster/backend/components/CryptoMonster.sol\":19078:19105  allowed[_owner][msg.sender] */\n      dup5\n      mstore\n      swap1\n      swap2\n      mstore\n      swap1\n      keccak256\n      sload\n        /* \"Documents/GitHub/contract-token-cryptoMonster/backend/components/CryptoMonster.sol\":19064:19105  _numTokens <= allowed[_owner][msg.sender] */\n      dup3\n      gt\n      iszero\n        /* \"Documents/GitHub/contract-token-cryptoMonster/backend/components/CryptoMonster.sol\":19056:19106  require(_numTokens <= allowed[_owner][msg.sender]) */\n      tag_149\n      jumpi\n      0x00\n      dup1\n      revert\n    tag_149:\n      sub(shl(0xa0, 0x01), 0x01)\n        /* \"Documents/GitHub/contract-token-cryptoMonster/backend/components/CryptoMonster.sol\":19238:19258  structUsers_[_owner] */\n      dup5\n      and\n        /* \"Documents/GitHub/contract-token-cryptoMonster/backend/components/CryptoMonster.sol\":19238:19250  structUsers_ */\n      0x00\n        /* \"Documents/GitHub/contract-token-cryptoMonster/backend/components/CryptoMonster.sol\":19238:19258  structUsers_[_owner] */\n      swap1\n      dup2\n      mstore\n      0x20\n      dup2\n      swap1\n      mstore\n      0x40\n      swap1\n      keccak256\n        /* \"Documents/GitHub/contract-token-cryptoMonster/backend/components/CryptoMonster.sol\":19238:19273  structUsers_[_owner].balance_public */\n      0x06\n      add\n      sload\n        /* \"Documents/GitHub/contract-token-cryptoMonster/backend/components/CryptoMonster.sol\":19238:19289  structUsers_[_owner].balance_public.sub(_numTokens) */\n      tag_150\n      swap1\n        /* \"Documents/GitHub/contract-token-cryptoMonster/backend/components/CryptoMonster.sol\":19278:19288  _numTokens */\n      dup4\n        /* \"Documents/GitHub/contract-token-cryptoMonster/backend/components/CryptoMonster.sol\":19238:19277  structUsers_[_owner].balance_public.sub */\n      tag_93\n        /* \"Documents/GitHub/contract-token-cryptoMonster/backend/components/CryptoMonster.sol\":19238:19289  structUsers_[_owner].balance_public.sub(_numTokens) */\n      jump\t// in\n    tag_150:\n      sub(shl(0xa0, 0x01), 0x01)\n        /* \"Documents/GitHub/contract-token-cryptoMonster/backend/components/CryptoMonster.sol\":19200:19220  structUsers_[_owner] */\n      dup6\n      and\n        /* \"Documents/GitHub/contract-token-cryptoMonster/backend/components/CryptoMonster.sol\":19200:19212  structUsers_ */\n      0x00\n        /* \"Documents/GitHub/contract-token-cryptoMonster/backend/components/CryptoMonster.sol\":19200:19220  structUsers_[_owner] */\n      swap1\n      dup2\n      mstore\n      0x20\n      dup2\n      dup2\n      mstore\n      0x40\n      dup1\n      dup4\n      keccak256\n        /* \"Documents/GitHub/contract-token-cryptoMonster/backend/components/CryptoMonster.sol\":19200:19235  structUsers_[_owner].balance_public */\n      0x06\n      swap1\n      dup2\n      add\n        /* \"Documents/GitHub/contract-token-cryptoMonster/backend/components/CryptoMonster.sol\":19200:19289  structUsers_[_owner].balance_public = structUsers_[_owner].balance_public.sub(_numTokens) */\n      swap5\n      swap1\n      swap5\n      sstore\n        /* \"Documents/GitHub/contract-token-cryptoMonster/backend/components/CryptoMonster.sol\":19390:19405  allowed[_owner] */\n      swap3\n      dup2\n      mstore\n      dup3\n      dup3\n      keccak256\n        /* \"Documents/GitHub/contract-token-cryptoMonster/backend/components/CryptoMonster.sol\":19406:19416  msg.sender */\n      caller\n        /* \"Documents/GitHub/contract-token-cryptoMonster/backend/components/CryptoMonster.sol\":19390:19417  allowed[_owner][msg.sender] */\n      dup4\n      mstore\n      swap1\n      mstore\n      keccak256\n      sload\n        /* \"Documents/GitHub/contract-token-cryptoMonster/backend/components/CryptoMonster.sol\":19390:19433  allowed[_owner][msg.sender].sub(_numTokens) */\n      tag_151\n      swap1\n        /* \"Documents/GitHub/contract-token-cryptoMonster/backend/components/CryptoMonster.sol\":19422:19432  _numTokens */\n      dup4\n        /* \"Documents/GitHub/contract-token-cryptoMonster/backend/components/CryptoMonster.sol\":19390:19421  allowed[_owner][msg.sender].sub */\n      tag_93\n        /* \"Documents/GitHub/contract-token-cryptoMonster/backend/components/CryptoMonster.sol\":19390:19433  allowed[_owner][msg.sender].sub(_numTokens) */\n      jump\t// in\n    tag_151:\n      sub(shl(0xa0, 0x01), 0x01)\n        /* \"Documents/GitHub/contract-token-cryptoMonster/backend/components/CryptoMonster.sol\":19360:19375  allowed[_owner] */\n      dup1\n      dup7\n      and\n      0x00\n      swap1\n      dup2\n      mstore\n        /* \"Documents/GitHub/contract-token-cryptoMonster/backend/components/CryptoMonster.sol\":19360:19367  allowed */\n      0x06\n        /* \"Documents/GitHub/contract-token-cryptoMonster/backend/components/CryptoMonster.sol\":19360:19375  allowed[_owner] */\n      0x20\n      dup2\n      dup2\n      mstore\n      0x40\n      dup1\n      dup5\n      keccak256\n        /* \"Documents/GitHub/contract-token-cryptoMonster/backend/components/CryptoMonster.sol\":19376:19386  msg.sender */\n      caller\n        /* \"Documents/GitHub/contract-token-cryptoMonster/backend/components/CryptoMonster.sol\":19360:19387  allowed[_owner][msg.sender] */\n      dup6\n      mstore\n      dup3\n      mstore\n      dup1\n      dup5\n      keccak256\n        /* \"Documents/GitHub/contract-token-cryptoMonster/backend/components/CryptoMonster.sol\":19360:19433  allowed[_owner][msg.sender] = allowed[_owner][msg.sender].sub(_numTokens) */\n      swap6\n      swap1\n      swap6\n      sstore\n        /* \"Documents/GitHub/contract-token-cryptoMonster/backend/components/CryptoMonster.sol\":19554:19574  structUsers_[_buyer] */\n      swap3\n      dup8\n      and\n      dup3\n      mstore\n      swap2\n      dup2\n      swap1\n      mstore\n      swap2\n      swap1\n      swap2\n      keccak256\n        /* \"Documents/GitHub/contract-token-cryptoMonster/backend/components/CryptoMonster.sol\":19554:19589  structUsers_[_buyer].balance_public */\n      add\n      sload\n        /* \"Documents/GitHub/contract-token-cryptoMonster/backend/components/CryptoMonster.sol\":19554:19605  structUsers_[_buyer].balance_public.add(_numTokens) */\n      tag_152\n      swap1\n        /* \"Documents/GitHub/contract-token-cryptoMonster/backend/components/CryptoMonster.sol\":19594:19604  _numTokens */\n      dup4\n        /* \"Documents/GitHub/contract-token-cryptoMonster/backend/components/CryptoMonster.sol\":19554:19593  structUsers_[_buyer].balance_public.add */\n      tag_94\n        /* \"Documents/GitHub/contract-token-cryptoMonster/backend/components/CryptoMonster.sol\":19554:19605  structUsers_[_buyer].balance_public.add(_numTokens) */\n      jump\t// in\n    tag_152:\n      sub(shl(0xa0, 0x01), 0x01)\n        /* \"Documents/GitHub/contract-token-cryptoMonster/backend/components/CryptoMonster.sol\":19516:19536  structUsers_[_buyer] */\n      dup5\n      dup2\n      and\n        /* \"Documents/GitHub/contract-token-cryptoMonster/backend/components/CryptoMonster.sol\":19516:19528  structUsers_ */\n      0x00\n        /* \"Documents/GitHub/contract-token-cryptoMonster/backend/components/CryptoMonster.sol\":19516:19536  structUsers_[_buyer] */\n      dup2\n      dup2\n      mstore\n      0x20\n      dup2\n      dup2\n      mstore\n      0x40\n      swap2\n      dup3\n      swap1\n      keccak256\n        /* \"Documents/GitHub/contract-token-cryptoMonster/backend/components/CryptoMonster.sol\":19516:19551  structUsers_[_buyer].balance_public */\n      0x06\n      add\n        /* \"Documents/GitHub/contract-token-cryptoMonster/backend/components/CryptoMonster.sol\":19516:19605  structUsers_[_buyer].balance_public = structUsers_[_buyer].balance_public.add(_numTokens) */\n      swap5\n      swap1\n      swap5\n      sstore\n        /* \"Documents/GitHub/contract-token-cryptoMonster/backend/components/CryptoMonster.sol\":19689:19725  Transfer(_owner, _buyer, _numTokens) */\n      mload\n        /* \"#utility.yul\":4018:4043   */\n      dup6\n      dup2\n      mstore\n        /* \"Documents/GitHub/contract-token-cryptoMonster/backend/components/CryptoMonster.sol\":19516:19536  structUsers_[_buyer] */\n      swap1\n      swap3\n        /* \"Documents/GitHub/contract-token-cryptoMonster/backend/components/CryptoMonster.sol\":19689:19725  Transfer(_owner, _buyer, _numTokens) */\n      swap2\n      dup8\n      and\n      swap2\n      0xddf252ad1be2c89b69c2b068fc378daa952ba7f163c4a11628f55a4df523b3ef\n      swap2\n        /* \"#utility.yul\":3991:4009   */\n      add\n        /* \"Documents/GitHub/contract-token-cryptoMonster/backend/components/CryptoMonster.sol\":19689:19725  Transfer(_owner, _buyer, _numTokens) */\n      tag_110\n        /* \"#utility.yul\":3872:4049   */\n      jump\n        /* \"Documents/GitHub/contract-token-cryptoMonster/backend/components/CryptoMonster.sol\":17775:19800  if (validatePhase(\"public\", privateProviderAdr, publicProviderAdr) == true) { \r... */\n    tag_138:\n      pop\n        /* \"Documents/GitHub/contract-token-cryptoMonster/backend/components/CryptoMonster.sol\":19795:19800  false */\n      0x00\n        /* \"Documents/GitHub/contract-token-cryptoMonster/backend/components/CryptoMonster.sol\":17775:19800  if (validatePhase(\"public\", privateProviderAdr, publicProviderAdr) == true) { \r... */\n    tag_154:\n        /* \"Documents/GitHub/contract-token-cryptoMonster/backend/components/CryptoMonster.sol\":13594:19808  function transferFrom(address _owner, address _buyer, uint256 _numTokens) public override returns (bool) {\r... */\n      swap4\n      swap3\n      pop\n      pop\n      pop\n      jump\t// out\n        /* \"Documents/GitHub/contract-token-cryptoMonster/backend/components/CryptoMonster.sol\":4819:5572  function balanceOf(address _tokenOwner) public override view returns (uint256) {\r... */\n    tag_55:\n        /* \"Documents/GitHub/contract-token-cryptoMonster/backend/components/CryptoMonster.sol\":1578:1620  0xAb8483F64d9C6d1EcF9b849Ae677dD3315835cb2 */\n      0xab8483f64d9c6d1ecf9b849ae677dd3315835cb2\n        /* \"Documents/GitHub/contract-token-cryptoMonster/backend/components/CryptoMonster.sol\":4889:4896  uint256 */\n      0x00\n        /* \"Documents/GitHub/contract-token-cryptoMonster/backend/components/CryptoMonster.sol\":4912:4945  structPhases_[privateProviderAdr] */\n      swap1\n      dup2\n      mstore\n        /* \"Documents/GitHub/contract-token-cryptoMonster/backend/components/CryptoMonster.sol\":4912:4925  structPhases_ */\n      0x01\n        /* \"Documents/GitHub/contract-token-cryptoMonster/backend/components/CryptoMonster.sol\":4912:4945  structPhases_[privateProviderAdr] */\n      0x20\n      mstore\n      0x9d4d959825f0680278e64197773b2a50cd78b2b2cb00711ddbeebf0bf93cd8a4\n        /* \"Documents/GitHub/contract-token-cryptoMonster/backend/components/CryptoMonster.sol\":4912:4957  structPhases_[privateProviderAdr].statusPhase */\n      sload\n      0xff\n      and\n        /* \"Documents/GitHub/contract-token-cryptoMonster/backend/components/CryptoMonster.sol\":4912:4966  structPhases_[privateProviderAdr].statusPhase == false */\n      iszero\n      dup1\n      iszero\n        /* \"Documents/GitHub/contract-token-cryptoMonster/backend/components/CryptoMonster.sol\":4912:5023  structPhases_[privateProviderAdr].statusPhase == false && structPhases_[publicProviderAdr].statusPhase == false */\n      tag_156\n      jumpi\n      pop\n        /* \"Documents/GitHub/contract-token-cryptoMonster/backend/components/CryptoMonster.sol\":1694:1736  0xAb8483F64d9C6d1EcF9b849Ae677dD3315835cb2 */\n      0xab8483f64d9c6d1ecf9b849ae677dd3315835cb2\n        /* \"Documents/GitHub/contract-token-cryptoMonster/backend/components/CryptoMonster.sol\":4970:5002  structPhases_[publicProviderAdr] */\n      0x00\n      mstore\n        /* \"Documents/GitHub/contract-token-cryptoMonster/backend/components/CryptoMonster.sol\":4970:4983  structPhases_ */\n      0x01\n        /* \"Documents/GitHub/contract-token-cryptoMonster/backend/components/CryptoMonster.sol\":4970:5002  structPhases_[publicProviderAdr] */\n      0x20\n      mstore\n      0x9d4d959825f0680278e64197773b2a50cd78b2b2cb00711ddbeebf0bf93cd8a4\n        /* \"Documents/GitHub/contract-token-cryptoMonster/backend/components/CryptoMonster.sol\":4970:5014  structPhases_[publicProviderAdr].statusPhase */\n      sload\n      0xff\n      and\n        /* \"Documents/GitHub/contract-token-cryptoMonster/backend/components/CryptoMonster.sol\":4970:5023  structPhases_[publicProviderAdr].statusPhase == false */\n      iszero\n        /* \"Documents/GitHub/contract-token-cryptoMonster/backend/components/CryptoMonster.sol\":4912:5023  structPhases_[privateProviderAdr].statusPhase == false && structPhases_[publicProviderAdr].statusPhase == false */\n    tag_156:\n        /* \"Documents/GitHub/contract-token-cryptoMonster/backend/components/CryptoMonster.sol\":4909:5564  if(structPhases_[privateProviderAdr].statusPhase == false && structPhases_[publicProviderAdr].statusPhase == false) { // !: if фаза SEED\r... */\n      iszero\n      tag_157\n      jumpi\n      pop\n      sub(shl(0xa0, 0x01), 0x01)\n        /* \"Documents/GitHub/contract-token-cryptoMonster/backend/components/CryptoMonster.sol\":5070:5095  structUsers_[_tokenOwner] */\n      and\n        /* \"Documents/GitHub/contract-token-cryptoMonster/backend/components/CryptoMonster.sol\":5070:5082  structUsers_ */\n      0x00\n        /* \"Documents/GitHub/contract-token-cryptoMonster/backend/components/CryptoMonster.sol\":5070:5095  structUsers_[_tokenOwner] */\n      swap1\n      dup2\n      mstore\n      0x20\n      dup2\n      swap1\n      mstore\n      0x40\n      swap1\n      keccak256\n        /* \"Documents/GitHub/contract-token-cryptoMonster/backend/components/CryptoMonster.sol\":5070:5108  structUsers_[_tokenOwner].balance_seed */\n      0x04\n      add\n      sload\n      swap1\n        /* \"Documents/GitHub/contract-token-cryptoMonster/backend/components/CryptoMonster.sol\":4819:5572  function balanceOf(address _tokenOwner) public override view returns (uint256) {\r... */\n      jump\t// out\n        /* \"Documents/GitHub/contract-token-cryptoMonster/backend/components/CryptoMonster.sol\":4909:5564  if(structPhases_[privateProviderAdr].statusPhase == false && structPhases_[publicProviderAdr].statusPhase == false) { // !: if фаза SEED\r... */\n    tag_157:\n        /* \"Documents/GitHub/contract-token-cryptoMonster/backend/components/CryptoMonster.sol\":1578:1620  0xAb8483F64d9C6d1EcF9b849Ae677dD3315835cb2 */\n      0xab8483f64d9c6d1ecf9b849ae677dd3315835cb2\n        /* \"Documents/GitHub/contract-token-cryptoMonster/backend/components/CryptoMonster.sol\":5130:5163  structPhases_[privateProviderAdr] */\n      0x00\n      mstore\n        /* \"Documents/GitHub/contract-token-cryptoMonster/backend/components/CryptoMonster.sol\":5130:5143  structPhases_ */\n      0x01\n        /* \"Documents/GitHub/contract-token-cryptoMonster/backend/components/CryptoMonster.sol\":5130:5163  structPhases_[privateProviderAdr] */\n      0x20\n      dup2\n      swap1\n      mstore\n      0x9d4d959825f0680278e64197773b2a50cd78b2b2cb00711ddbeebf0bf93cd8a4\n        /* \"Documents/GitHub/contract-token-cryptoMonster/backend/components/CryptoMonster.sol\":5130:5175  structPhases_[privateProviderAdr].statusPhase */\n      sload\n      0xff\n      and\n        /* \"Documents/GitHub/contract-token-cryptoMonster/backend/components/CryptoMonster.sol\":5130:5183  structPhases_[privateProviderAdr].statusPhase == true */\n      iszero\n      iszero\n      eq\n        /* \"Documents/GitHub/contract-token-cryptoMonster/backend/components/CryptoMonster.sol\":5126:5564  if (structPhases_[privateProviderAdr].statusPhase == true) {                                                   // !: if фаза PRIVATE\r... */\n      iszero\n      tag_159\n      jumpi\n      pop\n      sub(shl(0xa0, 0x01), 0x01)\n        /* \"Documents/GitHub/contract-token-cryptoMonster/backend/components/CryptoMonster.sol\":5283:5308  structUsers_[_tokenOwner] */\n      and\n        /* \"Documents/GitHub/contract-token-cryptoMonster/backend/components/CryptoMonster.sol\":5283:5295  structUsers_ */\n      0x00\n        /* \"Documents/GitHub/contract-token-cryptoMonster/backend/components/CryptoMonster.sol\":5283:5308  structUsers_[_tokenOwner] */\n      swap1\n      dup2\n      mstore\n      0x20\n      dup2\n      swap1\n      mstore\n      0x40\n      swap1\n      keccak256\n        /* \"Documents/GitHub/contract-token-cryptoMonster/backend/components/CryptoMonster.sol\":5283:5324  structUsers_[_tokenOwner].balance_private */\n      0x05\n      add\n      sload\n      swap1\n        /* \"Documents/GitHub/contract-token-cryptoMonster/backend/components/CryptoMonster.sol\":4819:5572  function balanceOf(address _tokenOwner) public override view returns (uint256) {\r... */\n      jump\t// out\n        /* \"Documents/GitHub/contract-token-cryptoMonster/backend/components/CryptoMonster.sol\":5126:5564  if (structPhases_[privateProviderAdr].statusPhase == true) {                                                   // !: if фаза PRIVATE\r... */\n    tag_159:\n        /* \"Documents/GitHub/contract-token-cryptoMonster/backend/components/CryptoMonster.sol\":1694:1736  0xAb8483F64d9C6d1EcF9b849Ae677dD3315835cb2 */\n      0xab8483f64d9c6d1ecf9b849ae677dd3315835cb2\n        /* \"Documents/GitHub/contract-token-cryptoMonster/backend/components/CryptoMonster.sol\":5346:5378  structPhases_[publicProviderAdr] */\n      0x00\n      mstore\n        /* \"Documents/GitHub/contract-token-cryptoMonster/backend/components/CryptoMonster.sol\":5346:5359  structPhases_ */\n      0x01\n        /* \"Documents/GitHub/contract-token-cryptoMonster/backend/components/CryptoMonster.sol\":5346:5378  structPhases_[publicProviderAdr] */\n      0x20\n      dup2\n      swap1\n      mstore\n      0x9d4d959825f0680278e64197773b2a50cd78b2b2cb00711ddbeebf0bf93cd8a4\n        /* \"Documents/GitHub/contract-token-cryptoMonster/backend/components/CryptoMonster.sol\":5346:5390  structPhases_[publicProviderAdr].statusPhase */\n      sload\n      0xff\n      and\n        /* \"Documents/GitHub/contract-token-cryptoMonster/backend/components/CryptoMonster.sol\":5346:5398  structPhases_[publicProviderAdr].statusPhase == true */\n      iszero\n      iszero\n      eq\n        /* \"Documents/GitHub/contract-token-cryptoMonster/backend/components/CryptoMonster.sol\":5342:5564  if (structPhases_[publicProviderAdr].statusPhase == true) {                                                    // !: if фаза PUBLIC\r... */\n      iszero\n      tag_161\n      jumpi\n      pop\n      sub(shl(0xa0, 0x01), 0x01)\n        /* \"Documents/GitHub/contract-token-cryptoMonster/backend/components/CryptoMonster.sol\":5498:5523  structUsers_[_tokenOwner] */\n      and\n        /* \"Documents/GitHub/contract-token-cryptoMonster/backend/components/CryptoMonster.sol\":5498:5510  structUsers_ */\n      0x00\n        /* \"Documents/GitHub/contract-token-cryptoMonster/backend/components/CryptoMonster.sol\":5498:5523  structUsers_[_tokenOwner] */\n      swap1\n      dup2\n      mstore\n      0x20\n      dup2\n      swap1\n      mstore\n      0x40\n      swap1\n      keccak256\n        /* \"Documents/GitHub/contract-token-cryptoMonster/backend/components/CryptoMonster.sol\":5498:5538  structUsers_[_tokenOwner].balance_public */\n      0x06\n      add\n      sload\n      swap1\n        /* \"Documents/GitHub/contract-token-cryptoMonster/backend/components/CryptoMonster.sol\":4819:5572  function balanceOf(address _tokenOwner) public override view returns (uint256) {\r... */\n      jump\t// out\n        /* \"Documents/GitHub/contract-token-cryptoMonster/backend/components/CryptoMonster.sol\":5342:5564  if (structPhases_[publicProviderAdr].statusPhase == true) {                                                    // !: if фаза PUBLIC\r... */\n    tag_161:\n      pop\n        /* \"Documents/GitHub/contract-token-cryptoMonster/backend/components/CryptoMonster.sol\":5563:5564  0 */\n      0x00\n      swap2\n        /* \"Documents/GitHub/contract-token-cryptoMonster/backend/components/CryptoMonster.sol\":4819:5572  function balanceOf(address _tokenOwner) public override view returns (uint256) {\r... */\n      swap1\n      pop\n      jump\t// out\n        /* \"Documents/GitHub/contract-token-cryptoMonster/backend/components/CryptoMonster.sol\":5342:5564  if (structPhases_[publicProviderAdr].statusPhase == true) {                                                    // !: if фаза PUBLIC\r... */\n    tag_162:\n        /* \"Documents/GitHub/contract-token-cryptoMonster/backend/components/CryptoMonster.sol\":4819:5572  function balanceOf(address _tokenOwner) public override view returns (uint256) {\r... */\n      swap2\n      swap1\n      pop\n      jump\t// out\n        /* \"Documents/GitHub/contract-token-cryptoMonster/backend/components/PhasePrivate.sol\":224:651  function application(string memory _name, string memory _contactForCommunication, address _userAdr) public {\r... */\n    tag_61:\n        /* \"Documents/GitHub/contract-token-cryptoMonster/backend/components/PhasePrivate.sol\":369:379  msg.sender */\n      caller\n        /* \"Documents/GitHub/contract-token-cryptoMonster/backend/components/PhasePrivate.sol\":350:380  strucApplications_[msg.sender] */\n      0x00\n      swap1\n      dup2\n      mstore\n        /* \"Documents/GitHub/contract-token-cryptoMonster/backend/components/PhasePrivate.sol\":350:368  strucApplications_ */\n      0x02\n        /* \"Documents/GitHub/contract-token-cryptoMonster/backend/components/PhasePrivate.sol\":350:380  strucApplications_[msg.sender] */\n      0x20\n      dup2\n      swap1\n      mstore\n      0x40\n      swap1\n      swap2\n      keccak256\n        /* \"Documents/GitHub/contract-token-cryptoMonster/backend/components/PhasePrivate.sol\":350:386  strucApplications_[msg.sender].exist */\n      add\n      sload\n      shl(0xb0, 0x01)\n      swap1\n      div\n      0xff\n      and\n        /* \"Documents/GitHub/contract-token-cryptoMonster/backend/components/PhasePrivate.sol\":350:394  strucApplications_[msg.sender].exist == true */\n      iszero\n      iszero\n        /* \"Documents/GitHub/contract-token-cryptoMonster/backend/components/PhasePrivate.sol\":390:394  true */\n      0x01\n        /* \"Documents/GitHub/contract-token-cryptoMonster/backend/components/PhasePrivate.sol\":350:394  strucApplications_[msg.sender].exist == true */\n      eq\n        /* \"Documents/GitHub/contract-token-cryptoMonster/backend/components/PhasePrivate.sol\":342:424  require(strucApplications_[msg.sender].exist == true, \"Application already sent!\") */\n      tag_164\n      jumpi\n      mload(0x40)\n      shl(0xe5, 0x461bcd)\n      dup2\n      mstore\n        /* \"#utility.yul\":5793:5795   */\n      0x20\n        /* \"Documents/GitHub/contract-token-cryptoMonster/backend/components/PhasePrivate.sol\":342:424  require(strucApplications_[msg.sender].exist == true, \"Application already sent!\") */\n      0x04\n      dup3\n      add\n        /* \"#utility.yul\":5775:5796   */\n      mstore\n        /* \"#utility.yul\":5832:5834   */\n      0x19\n        /* \"#utility.yul\":5812:5830   */\n      0x24\n      dup3\n      add\n        /* \"#utility.yul\":5805:5835   */\n      mstore\n        /* \"#utility.yul\":5871:5898   */\n      0x4170706c69636174696f6e20616c72656164792073656e742100000000000000\n        /* \"#utility.yul\":5851:5869   */\n      0x44\n      dup3\n      add\n        /* \"#utility.yul\":5844:5899   */\n      mstore\n        /* \"#utility.yul\":5916:5934   */\n      0x64\n      add\n        /* \"Documents/GitHub/contract-token-cryptoMonster/backend/components/PhasePrivate.sol\":342:424  require(strucApplications_[msg.sender].exist == true, \"Application already sent!\") */\n    tag_165:\n      mload(0x40)\n      dup1\n      swap2\n      sub\n      swap1\n      revert\n    tag_164:\n        /* \"Documents/GitHub/contract-token-cryptoMonster/backend/components/PhasePrivate.sol\":564:643  structApplication(_name, _contactForCommunication, _userAdr, true, false, true) */\n      0x40\n      dup1\n      mload\n      0xc0\n      dup2\n      add\n      dup3\n      mstore\n      dup5\n      dup2\n      mstore\n      0x20\n      dup1\n      dup3\n      add\n      dup6\n      swap1\n      mstore\n      sub(shl(0xa0, 0x01), 0x01)\n      dup5\n      and\n      dup3\n      dup5\n      add\n      mstore\n        /* \"Documents/GitHub/contract-token-cryptoMonster/backend/components/PhasePrivate.sol\":625:629  true */\n      0x01\n        /* \"Documents/GitHub/contract-token-cryptoMonster/backend/components/PhasePrivate.sol\":564:643  structApplication(_name, _contactForCommunication, _userAdr, true, false, true) */\n      0x60\n      dup4\n      add\n      dup2\n      swap1\n      mstore\n      0x00\n      0x80\n      dup5\n      add\n      dup2\n      swap1\n      mstore\n      0xa0\n      dup5\n      add\n      swap2\n      swap1\n      swap2\n      mstore\n        /* \"Documents/GitHub/contract-token-cryptoMonster/backend/components/PhasePrivate.sol\":549:559  msg.sender */\n      caller\n        /* \"Documents/GitHub/contract-token-cryptoMonster/backend/components/PhasePrivate.sol\":530:560  strucApplications_[msg.sender] */\n      dup2\n      mstore\n        /* \"Documents/GitHub/contract-token-cryptoMonster/backend/components/PhasePrivate.sol\":530:548  strucApplications_ */\n      0x02\n        /* \"Documents/GitHub/contract-token-cryptoMonster/backend/components/PhasePrivate.sol\":530:560  strucApplications_[msg.sender] */\n      dup3\n      mstore\n      swap3\n      swap1\n      swap3\n      keccak256\n        /* \"Documents/GitHub/contract-token-cryptoMonster/backend/components/PhasePrivate.sol\":530:643  strucApplications_[msg.sender]  = structApplication(_name, _contactForCommunication, _userAdr, true, false, true) */\n      dup2\n      mload\n      dup1\n      mload\n        /* \"Documents/GitHub/contract-token-cryptoMonster/backend/components/PhasePrivate.sol\":564:643  structApplication(_name, _contactForCommunication, _userAdr, true, false, true) */\n      swap3\n      swap4\n        /* \"Documents/GitHub/contract-token-cryptoMonster/backend/components/PhasePrivate.sol\":530:560  strucApplications_[msg.sender] */\n      swap2\n      swap3\n        /* \"Documents/GitHub/contract-token-cryptoMonster/backend/components/PhasePrivate.sol\":530:643  strucApplications_[msg.sender]  = structApplication(_name, _contactForCommunication, _userAdr, true, false, true) */\n      tag_167\n      swap3\n        /* \"Documents/GitHub/contract-token-cryptoMonster/backend/components/PhasePrivate.sol\":530:560  strucApplications_[msg.sender] */\n      dup5\n      swap3\n        /* \"Documents/GitHub/contract-token-cryptoMonster/backend/components/PhasePrivate.sol\":530:643  strucApplications_[msg.sender]  = structApplication(_name, _contactForCommunication, _userAdr, true, false, true) */\n      add\n      swap1\n      tag_168\n      jump\t// in\n    tag_167:\n      pop\n      0x20\n      dup3\n      dup2\n      add\n      mload\n      dup1\n      mload\n      tag_169\n      swap3\n      0x01\n      dup6\n      add\n      swap3\n      add\n      swap1\n      tag_168\n      jump\t// in\n    tag_169:\n      pop\n      0x40\n      dup3\n      add\n      mload\n      0x02\n      swap1\n      swap2\n      add\n      dup1\n      sload\n      0x60\n      dup5\n      add\n      mload\n      0x80\n      dup6\n      add\n      mload\n      0xa0\n      swap1\n      swap6\n      add\n      mload\n      iszero\n      iszero\n      shl(0xb0, 0x01)\n      mul\n      0xffffffffffffffffff00ffffffffffffffffffffffffffffffffffffffffffff\n      swap6\n      iszero\n      iszero\n      0x01000000000000000000000000000000000000000000\n      mul\n      swap6\n      swap1\n      swap6\n      and\n      0xffffffffffffffffff0000ffffffffffffffffffffffffffffffffffffffffff\n      swap2\n      iszero\n      iszero\n      0x010000000000000000000000000000000000000000\n      mul\n      0xffffffffffffffffffffff000000000000000000000000000000000000000000\n      swap1\n      swap4\n      and\n      sub(shl(0xa0, 0x01), 0x01)\n      swap1\n      swap6\n      and\n      swap5\n      swap1\n      swap5\n      or\n      swap2\n      swap1\n      swap2\n      or\n      and\n      swap2\n      swap1\n      swap2\n      or\n      swap2\n      swap1\n      swap2\n      or\n      swap1\n      sstore\n      pop\n      pop\n      pop\n        /* \"Documents/GitHub/contract-token-cryptoMonster/backend/components/PhasePrivate.sol\":224:651  function application(string memory _name, string memory _contactForCommunication, address _userAdr) public {\r... */\n      jump\t// out\n        /* \"Documents/GitHub/contract-token-cryptoMonster/backend/shared/helpers/getFuncs.sol\":144:282  function get_keccak256(string memory _hash) public pure returns(bytes32) {\r... */\n    tag_66:\n        /* \"Documents/GitHub/contract-token-cryptoMonster/backend/shared/helpers/getFuncs.sol\":208:215  bytes32 */\n      0x00\n        /* \"Documents/GitHub/contract-token-cryptoMonster/backend/shared/helpers/getFuncs.sol\":266:271  _hash */\n      dup2\n        /* \"Documents/GitHub/contract-token-cryptoMonster/backend/shared/helpers/getFuncs.sol\":249:272  abi.encodePacked(_hash) */\n      add(0x20, mload(0x40))\n      tag_171\n      swap2\n      swap1\n      tag_172\n      jump\t// in\n    tag_171:\n      mload(0x40)\n      0x20\n      dup2\n      dup4\n      sub\n      sub\n      dup2\n      mstore\n      swap1\n      0x40\n      mstore\n        /* \"Documents/GitHub/contract-token-cryptoMonster/backend/shared/helpers/getFuncs.sol\":239:273  keccak256(abi.encodePacked(_hash)) */\n      dup1\n      mload\n      swap1\n      0x20\n      add\n      keccak256\n        /* \"Documents/GitHub/contract-token-cryptoMonster/backend/shared/helpers/getFuncs.sol\":232:274  return(keccak256(abi.encodePacked(_hash))) */\n      swap1\n      pop\n        /* \"Documents/GitHub/contract-token-cryptoMonster/backend/shared/helpers/getFuncs.sol\":144:282  function get_keccak256(string memory _hash) public pure returns(bytes32) {\r... */\n      swap2\n      swap1\n      pop\n      jump\t// out\n        /* \"Documents/GitHub/contract-token-cryptoMonster/backend/components/PhasePrivate.sol\":727:899  function acceptApplication (bool _changeStatus) public {\r... */\n    tag_77:\n        /* \"Documents/GitHub/contract-token-cryptoMonster/backend/components/PhasePrivate.sol\":834:853  Role.SYSTEM_PRIVATE */\n      0x02\n        /* \"Documents/GitHub/contract-token-cryptoMonster/backend/components/PhasePrivate.sol\":814:824  msg.sender */\n      caller\n        /* \"Documents/GitHub/contract-token-cryptoMonster/backend/components/PhasePrivate.sol\":801:813  structUsers_ */\n      0x00\n        /* \"Documents/GitHub/contract-token-cryptoMonster/backend/components/PhasePrivate.sol\":801:825  structUsers_[msg.sender] */\n      swap1\n      dup2\n      mstore\n      0x20\n      dup2\n      swap1\n      mstore\n      0x40\n      swap1\n      keccak256\n        /* \"Documents/GitHub/contract-token-cryptoMonster/backend/components/PhasePrivate.sol\":801:830  structUsers_[msg.sender].role */\n      sload\n      0xff\n      and\n        /* \"Documents/GitHub/contract-token-cryptoMonster/backend/components/PhasePrivate.sol\":801:853  structUsers_[msg.sender].role == Role.SYSTEM_PRIVATE */\n      0x04\n      dup2\n      gt\n      iszero\n      tag_178\n      jumpi\n      tag_178\n      tag_176\n      jump\t// in\n    tag_178:\n      eq\n        /* \"Documents/GitHub/contract-token-cryptoMonster/backend/components/PhasePrivate.sol\":793:889  require(structUsers_[msg.sender].role == Role.SYSTEM_PRIVATE, \"You are not a private provider!\") */\n      tag_179\n      jumpi\n      mload(0x40)\n      shl(0xe5, 0x461bcd)\n      dup2\n      mstore\n        /* \"#utility.yul\":4644:4646   */\n      0x20\n        /* \"Documents/GitHub/contract-token-cryptoMonster/backend/components/PhasePrivate.sol\":793:889  require(structUsers_[msg.sender].role == Role.SYSTEM_PRIVATE, \"You are not a private provider!\") */\n      0x04\n      dup3\n      add\n        /* \"#utility.yul\":4626:4647   */\n      mstore\n        /* \"#utility.yul\":4683:4685   */\n      0x1f\n        /* \"#utility.yul\":4663:4681   */\n      0x24\n      dup3\n      add\n        /* \"#utility.yul\":4656:4686   */\n      mstore\n        /* \"#utility.yul\":4722:4755   */\n      0x596f7520617265206e6f74206120707269766174652070726f76696465722100\n        /* \"#utility.yul\":4702:4720   */\n      0x44\n      dup3\n      add\n        /* \"#utility.yul\":4695:4756   */\n      mstore\n        /* \"#utility.yul\":4773:4791   */\n      0x64\n      add\n        /* \"Documents/GitHub/contract-token-cryptoMonster/backend/components/PhasePrivate.sol\":793:889  require(structUsers_[msg.sender].role == Role.SYSTEM_PRIVATE, \"You are not a private provider!\") */\n      tag_165\n        /* \"#utility.yul\":4442:4797   */\n      jump\n        /* \"Documents/GitHub/contract-token-cryptoMonster/backend/components/PhasePrivate.sol\":793:889  require(structUsers_[msg.sender].role == Role.SYSTEM_PRIVATE, \"You are not a private provider!\") */\n    tag_179:\n        /* \"Documents/GitHub/contract-token-cryptoMonster/backend/components/PhasePrivate.sol\":727:899  function acceptApplication (bool _changeStatus) public {\r... */\n      pop\n      jump\t// out\n        /* \"Documents/GitHub/contract-token-cryptoMonster/backend/components/CryptoMonster.sol\":5995:13261  function transfer(address _receiver, uint256 _numTokens) public override returns (bool) {\r... */\n    tag_81:\n        /* \"Documents/GitHub/contract-token-cryptoMonster/backend/components/CryptoMonster.sol\":6077:6081  bool */\n      0x00\n        /* \"Documents/GitHub/contract-token-cryptoMonster/backend/components/CryptoMonster.sol\":6098:6158  validatePhase(\"seed\", privateProviderAdr, publicProviderAdr) */\n      tag_183\n      mload(0x40)\n      dup1\n      0x40\n      add\n      0x40\n      mstore\n      dup1\n      0x04\n      dup2\n      mstore\n      0x20\n      add\n      shl(0xe2, 0x1cd95959)\n      dup2\n      mstore\n      pop\n        /* \"Documents/GitHub/contract-token-cryptoMonster/backend/components/CryptoMonster.sol\":1578:1620  0xAb8483F64d9C6d1EcF9b849Ae677dD3315835cb2 */\n      0xab8483f64d9c6d1ecf9b849ae677dd3315835cb2\n        /* \"Documents/GitHub/contract-token-cryptoMonster/backend/components/CryptoMonster.sol\":1694:1736  0xAb8483F64d9C6d1EcF9b849Ae677dD3315835cb2 */\n      dup1\n        /* \"Documents/GitHub/contract-token-cryptoMonster/backend/components/CryptoMonster.sol\":6098:6111  validatePhase */\n      tag_100\n        /* \"Documents/GitHub/contract-token-cryptoMonster/backend/components/CryptoMonster.sol\":6098:6158  validatePhase(\"seed\", privateProviderAdr, publicProviderAdr) */\n      jump\t// in\n    tag_183:\n        /* \"Documents/GitHub/contract-token-cryptoMonster/backend/components/CryptoMonster.sol\":6098:6166  validatePhase(\"seed\", privateProviderAdr, publicProviderAdr) == true */\n      iszero\n      iszero\n        /* \"Documents/GitHub/contract-token-cryptoMonster/backend/components/CryptoMonster.sol\":6162:6166  true */\n      0x01\n        /* \"Documents/GitHub/contract-token-cryptoMonster/backend/components/CryptoMonster.sol\":6098:6166  validatePhase(\"seed\", privateProviderAdr, publicProviderAdr) == true */\n      eq\n        /* \"Documents/GitHub/contract-token-cryptoMonster/backend/components/CryptoMonster.sol\":6094:13253  if (validatePhase(\"seed\", privateProviderAdr, publicProviderAdr) == true)  {                             // !: if фаза SEED\r... */\n      iszero\n      tag_184\n      jumpi\n        /* \"Documents/GitHub/contract-token-cryptoMonster/backend/components/CryptoMonster.sol\":6239:6254  validateOwner() */\n      tag_185\n        /* \"Documents/GitHub/contract-token-cryptoMonster/backend/components/CryptoMonster.sol\":6239:6252  validateOwner */\n      tag_103\n        /* \"Documents/GitHub/contract-token-cryptoMonster/backend/components/CryptoMonster.sol\":6239:6254  validateOwner() */\n      jump\t// in\n    tag_185:\n        /* \"Documents/GitHub/contract-token-cryptoMonster/backend/components/CryptoMonster.sol\":6239:6262  validateOwner() == true */\n      iszero\n      iszero\n        /* \"Documents/GitHub/contract-token-cryptoMonster/backend/components/CryptoMonster.sol\":6258:6262  true */\n      0x01\n        /* \"Documents/GitHub/contract-token-cryptoMonster/backend/components/CryptoMonster.sol\":6239:6262  validateOwner() == true */\n      eq\n        /* \"Documents/GitHub/contract-token-cryptoMonster/backend/components/CryptoMonster.sol\":6235:9011  if (validateOwner() == true) {                                                                         // !: if пользователь админ\r... */\n      iszero\n      tag_186\n      jumpi\n        /* \"Documents/GitHub/contract-token-cryptoMonster/backend/components/CryptoMonster.sol\":6435:6445  msg.sender */\n      caller\n        /* \"Documents/GitHub/contract-token-cryptoMonster/backend/components/CryptoMonster.sol\":6422:6434  structUsers_ */\n      0x00\n        /* \"Documents/GitHub/contract-token-cryptoMonster/backend/components/CryptoMonster.sol\":6422:6446  structUsers_[msg.sender] */\n      swap1\n      dup2\n      mstore\n      0x20\n      dup2\n      swap1\n      mstore\n      0x40\n      swap1\n      keccak256\n        /* \"Documents/GitHub/contract-token-cryptoMonster/backend/components/CryptoMonster.sol\":6422:6462  structUsers_[msg.sender].balance_overall */\n      0x03\n      add\n      sload\n        /* \"Documents/GitHub/contract-token-cryptoMonster/backend/components/CryptoMonster.sol\":6408:6462  _numTokens <= structUsers_[msg.sender].balance_overall */\n      dup3\n      gt\n      iszero\n        /* \"Documents/GitHub/contract-token-cryptoMonster/backend/components/CryptoMonster.sol\":6400:6463  require(_numTokens <= structUsers_[msg.sender].balance_overall) */\n      tag_187\n      jumpi\n      0x00\n      dup1\n      revert\n    tag_187:\n        /* \"Documents/GitHub/contract-token-cryptoMonster/backend/components/CryptoMonster.sol\":6647:6660  Role.INVESTOR */\n      0x03\n        /* \"Documents/GitHub/contract-token-cryptoMonster/backend/components/CryptoMonster.sol\":6627:6637  msg.sender */\n      caller\n        /* \"Documents/GitHub/contract-token-cryptoMonster/backend/components/CryptoMonster.sol\":6614:6626  structUsers_ */\n      0x00\n        /* \"Documents/GitHub/contract-token-cryptoMonster/backend/components/CryptoMonster.sol\":6614:6638  structUsers_[msg.sender] */\n      swap1\n      dup2\n      mstore\n      0x20\n      dup2\n      swap1\n      mstore\n      0x40\n      swap1\n      keccak256\n        /* \"Documents/GitHub/contract-token-cryptoMonster/backend/components/CryptoMonster.sol\":6614:6643  structUsers_[msg.sender].role */\n      sload\n      0xff\n      and\n        /* \"Documents/GitHub/contract-token-cryptoMonster/backend/components/CryptoMonster.sol\":6614:6660  structUsers_[msg.sender].role == Role.INVESTOR */\n      0x04\n      dup2\n      gt\n      iszero\n      tag_191\n      jumpi\n      tag_191\n      tag_176\n      jump\t// in\n    tag_191:\n      eq\n        /* \"Documents/GitHub/contract-token-cryptoMonster/backend/components/CryptoMonster.sol\":6605:6682  require (structUsers_[msg.sender].role == Role.INVESTOR, \"Your not investor\") */\n      tag_192\n      jumpi\n      mload(0x40)\n      shl(0xe5, 0x461bcd)\n      dup2\n      mstore\n        /* \"#utility.yul\":6147:6149   */\n      0x20\n        /* \"Documents/GitHub/contract-token-cryptoMonster/backend/components/CryptoMonster.sol\":6605:6682  require (structUsers_[msg.sender].role == Role.INVESTOR, \"Your not investor\") */\n      0x04\n      dup3\n      add\n        /* \"#utility.yul\":6129:6150   */\n      mstore\n        /* \"#utility.yul\":6186:6188   */\n      0x11\n        /* \"#utility.yul\":6166:6184   */\n      0x24\n      dup3\n      add\n        /* \"#utility.yul\":6159:6189   */\n      mstore\n      shl(0x79, 0x2cb7bab9103737ba1034b73b32b9ba37b9)\n        /* \"#utility.yul\":6205:6223   */\n      0x44\n      dup3\n      add\n        /* \"#utility.yul\":6198:6245   */\n      mstore\n        /* \"#utility.yul\":6262:6280   */\n      0x64\n      add\n        /* \"Documents/GitHub/contract-token-cryptoMonster/backend/components/CryptoMonster.sol\":6605:6682  require (structUsers_[msg.sender].role == Role.INVESTOR, \"Your not investor\") */\n      tag_165\n        /* \"#utility.yul\":5945:6286   */\n      jump\n        /* \"Documents/GitHub/contract-token-cryptoMonster/backend/components/CryptoMonster.sol\":6605:6682  require (structUsers_[msg.sender].role == Role.INVESTOR, \"Your not investor\") */\n    tag_192:\n        /* \"Documents/GitHub/contract-token-cryptoMonster/backend/components/CryptoMonster.sol\":6853:6866  Role.INVESTOR */\n      0x03\n      sub(shl(0xa0, 0x01), 0x01)\n        /* \"Documents/GitHub/contract-token-cryptoMonster/backend/components/CryptoMonster.sol\":6821:6844  structUsers_[_receiver] */\n      dup5\n      and\n        /* \"Documents/GitHub/contract-token-cryptoMonster/backend/components/CryptoMonster.sol\":6821:6833  structUsers_ */\n      0x00\n        /* \"Documents/GitHub/contract-token-cryptoMonster/backend/components/CryptoMonster.sol\":6821:6844  structUsers_[_receiver] */\n      swap1\n      dup2\n      mstore\n      0x20\n      dup2\n      swap1\n      mstore\n      0x40\n      swap1\n      keccak256\n        /* \"Documents/GitHub/contract-token-cryptoMonster/backend/components/CryptoMonster.sol\":6821:6849  structUsers_[_receiver].role */\n      sload\n      0xff\n      and\n        /* \"Documents/GitHub/contract-token-cryptoMonster/backend/components/CryptoMonster.sol\":6821:6866  structUsers_[_receiver].role == Role.INVESTOR */\n      0x04\n      dup2\n      gt\n      iszero\n      tag_198\n      jumpi\n      tag_198\n      tag_176\n      jump\t// in\n    tag_198:\n      eq\n        /* \"Documents/GitHub/contract-token-cryptoMonster/backend/components/CryptoMonster.sol\":6812:6888  require (structUsers_[_receiver].role == Role.INVESTOR, \"Your not investor\") */\n      tag_199\n      jumpi\n      mload(0x40)\n      shl(0xe5, 0x461bcd)\n      dup2\n      mstore\n        /* \"#utility.yul\":6147:6149   */\n      0x20\n        /* \"Documents/GitHub/contract-token-cryptoMonster/backend/components/CryptoMonster.sol\":6812:6888  require (structUsers_[_receiver].role == Role.INVESTOR, \"Your not investor\") */\n      0x04\n      dup3\n      add\n        /* \"#utility.yul\":6129:6150   */\n      mstore\n        /* \"#utility.yul\":6186:6188   */\n      0x11\n        /* \"#utility.yul\":6166:6184   */\n      0x24\n      dup3\n      add\n        /* \"#utility.yul\":6159:6189   */\n      mstore\n      shl(0x79, 0x2cb7bab9103737ba1034b73b32b9ba37b9)\n        /* \"#utility.yul\":6205:6223   */\n      0x44\n      dup3\n      add\n        /* \"#utility.yul\":6198:6245   */\n      mstore\n        /* \"#utility.yul\":6262:6280   */\n      0x64\n      add\n        /* \"Documents/GitHub/contract-token-cryptoMonster/backend/components/CryptoMonster.sol\":6812:6888  require (structUsers_[_receiver].role == Role.INVESTOR, \"Your not investor\") */\n      tag_165\n        /* \"#utility.yul\":5945:6286   */\n      jump\n        /* \"Documents/GitHub/contract-token-cryptoMonster/backend/components/CryptoMonster.sol\":6812:6888  require (structUsers_[_receiver].role == Role.INVESTOR, \"Your not investor\") */\n    tag_199:\n        /* \"Documents/GitHub/contract-token-cryptoMonster/backend/components/CryptoMonster.sol\":7077:7087  msg.sender */\n      caller\n        /* \"Documents/GitHub/contract-token-cryptoMonster/backend/components/CryptoMonster.sol\":7064:7076  structUsers_ */\n      0x00\n        /* \"Documents/GitHub/contract-token-cryptoMonster/backend/components/CryptoMonster.sol\":7064:7088  structUsers_[msg.sender] */\n      swap1\n      dup2\n      mstore\n      0x20\n      dup2\n      swap1\n      mstore\n      0x40\n      swap1\n      keccak256\n        /* \"Documents/GitHub/contract-token-cryptoMonster/backend/components/CryptoMonster.sol\":7064:7104  structUsers_[msg.sender].balance_overall */\n      0x03\n      add\n      sload\n        /* \"Documents/GitHub/contract-token-cryptoMonster/backend/components/CryptoMonster.sol\":7064:7120  structUsers_[msg.sender].balance_overall.sub(_numTokens) */\n      tag_201\n      swap1\n        /* \"Documents/GitHub/contract-token-cryptoMonster/backend/components/CryptoMonster.sol\":7109:7119  _numTokens */\n      dup4\n        /* \"Documents/GitHub/contract-token-cryptoMonster/backend/components/CryptoMonster.sol\":7064:7108  structUsers_[msg.sender].balance_overall.sub */\n      tag_93\n        /* \"Documents/GitHub/contract-token-cryptoMonster/backend/components/CryptoMonster.sol\":7064:7120  structUsers_[msg.sender].balance_overall.sub(_numTokens) */\n      jump\t// in\n    tag_201:\n        /* \"Documents/GitHub/contract-token-cryptoMonster/backend/components/CryptoMonster.sol\":7034:7044  msg.sender */\n      caller\n        /* \"Documents/GitHub/contract-token-cryptoMonster/backend/components/CryptoMonster.sol\":7021:7033  structUsers_ */\n      0x00\n        /* \"Documents/GitHub/contract-token-cryptoMonster/backend/components/CryptoMonster.sol\":7021:7045  structUsers_[msg.sender] */\n      swap1\n      dup2\n      mstore\n      0x20\n      dup2\n      swap1\n      mstore\n      0x40\n      dup1\n      dup3\n      keccak256\n        /* \"Documents/GitHub/contract-token-cryptoMonster/backend/components/CryptoMonster.sol\":7021:7061  structUsers_[msg.sender].balance_overall */\n      0x03\n      add\n        /* \"Documents/GitHub/contract-token-cryptoMonster/backend/components/CryptoMonster.sol\":7021:7120  structUsers_[msg.sender].balance_overall = structUsers_[msg.sender].balance_overall.sub(_numTokens) */\n      swap3\n      swap1\n      swap3\n      sstore\n      sub(shl(0xa0, 0x01), 0x01)\n        /* \"Documents/GitHub/contract-token-cryptoMonster/backend/components/CryptoMonster.sol\":7249:7272  structUsers_[_receiver] */\n      dup6\n      and\n      dup2\n      mstore\n      keccak256\n        /* \"Documents/GitHub/contract-token-cryptoMonster/backend/components/CryptoMonster.sol\":7249:7285  structUsers_[_receiver].balance_seed */\n      0x04\n      add\n      sload\n        /* \"Documents/GitHub/contract-token-cryptoMonster/backend/components/CryptoMonster.sol\":7249:7301  structUsers_[_receiver].balance_seed.add(_numTokens) */\n      tag_202\n      swap1\n        /* \"Documents/GitHub/contract-token-cryptoMonster/backend/components/CryptoMonster.sol\":7290:7300  _numTokens */\n      dup4\n        /* \"Documents/GitHub/contract-token-cryptoMonster/backend/components/CryptoMonster.sol\":7249:7289  structUsers_[_receiver].balance_seed.add */\n      tag_94\n        /* \"Documents/GitHub/contract-token-cryptoMonster/backend/components/CryptoMonster.sol\":7249:7301  structUsers_[_receiver].balance_seed.add(_numTokens) */\n      jump\t// in\n    tag_202:\n      sub(shl(0xa0, 0x01), 0x01)\n        /* \"Documents/GitHub/contract-token-cryptoMonster/backend/components/CryptoMonster.sol\":7210:7233  structUsers_[_receiver] */\n      dup5\n      and\n        /* \"Documents/GitHub/contract-token-cryptoMonster/backend/components/CryptoMonster.sol\":7210:7222  structUsers_ */\n      0x00\n        /* \"Documents/GitHub/contract-token-cryptoMonster/backend/components/CryptoMonster.sol\":7210:7233  structUsers_[_receiver] */\n      dup2\n      dup2\n      mstore\n      0x20\n      dup2\n      dup2\n      mstore\n      0x40\n      swap2\n      dup3\n      swap1\n      keccak256\n        /* \"Documents/GitHub/contract-token-cryptoMonster/backend/components/CryptoMonster.sol\":7210:7246  structUsers_[_receiver].balance_seed */\n      0x04\n      add\n        /* \"Documents/GitHub/contract-token-cryptoMonster/backend/components/CryptoMonster.sol\":7210:7301  structUsers_[_receiver].balance_seed = structUsers_[_receiver].balance_seed.add(_numTokens) */\n      swap4\n      swap1\n      swap4\n      sstore\n        /* \"Documents/GitHub/contract-token-cryptoMonster/backend/components/CryptoMonster.sol\":7398:7441  Transfer(msg.sender, _receiver, _numTokens) */\n      mload\n        /* \"#utility.yul\":4018:4043   */\n      dup5\n      dup2\n      mstore\n        /* \"Documents/GitHub/contract-token-cryptoMonster/backend/components/CryptoMonster.sol\":7210:7233  structUsers_[_receiver] */\n      swap1\n      swap2\n        /* \"Documents/GitHub/contract-token-cryptoMonster/backend/components/CryptoMonster.sol\":7407:7417  msg.sender */\n      caller\n      swap2\n        /* \"Documents/GitHub/contract-token-cryptoMonster/backend/components/CryptoMonster.sol\":7398:7441  Transfer(msg.sender, _receiver, _numTokens) */\n      0xddf252ad1be2c89b69c2b068fc378daa952ba7f163c4a11628f55a4df523b3ef\n      swap2\n        /* \"#utility.yul\":3991:4009   */\n      add\n        /* \"Documents/GitHub/contract-token-cryptoMonster/backend/components/CryptoMonster.sol\":7398:7441  Transfer(msg.sender, _receiver, _numTokens) */\n    tag_203:\n      mload(0x40)\n      dup1\n      swap2\n      sub\n      swap1\n      log3\n      pop\n        /* \"Documents/GitHub/contract-token-cryptoMonster/backend/components/CryptoMonster.sol\":7601:7605  true */\n      0x01\n        /* \"Documents/GitHub/contract-token-cryptoMonster/backend/components/CryptoMonster.sol\":7594:7605  return true */\n      jump(tag_95)\n        /* \"Documents/GitHub/contract-token-cryptoMonster/backend/components/CryptoMonster.sol\":6235:9011  if (validateOwner() == true) {                                                                         // !: if пользователь админ\r... */\n    tag_186:\n        /* \"Documents/GitHub/contract-token-cryptoMonster/backend/components/CryptoMonster.sol\":7825:7835  msg.sender */\n      caller\n        /* \"Documents/GitHub/contract-token-cryptoMonster/backend/components/CryptoMonster.sol\":7812:7824  structUsers_ */\n      0x00\n        /* \"Documents/GitHub/contract-token-cryptoMonster/backend/components/CryptoMonster.sol\":7812:7836  structUsers_[msg.sender] */\n      swap1\n      dup2\n      mstore\n      0x20\n      dup2\n      swap1\n      mstore\n      0x40\n      swap1\n      keccak256\n        /* \"Documents/GitHub/contract-token-cryptoMonster/backend/components/CryptoMonster.sol\":7812:7849  structUsers_[msg.sender].balance_seed */\n      0x04\n      add\n      sload\n        /* \"Documents/GitHub/contract-token-cryptoMonster/backend/components/CryptoMonster.sol\":7798:7849  _numTokens <= structUsers_[msg.sender].balance_seed */\n      dup3\n      gt\n      iszero\n        /* \"Documents/GitHub/contract-token-cryptoMonster/backend/components/CryptoMonster.sol\":7790:7850  require(_numTokens <= structUsers_[msg.sender].balance_seed) */\n      tag_205\n      jumpi\n      0x00\n      dup1\n      revert\n    tag_205:\n        /* \"Documents/GitHub/contract-token-cryptoMonster/backend/components/CryptoMonster.sol\":8037:8050  Role.INVESTOR */\n      0x03\n        /* \"Documents/GitHub/contract-token-cryptoMonster/backend/components/CryptoMonster.sol\":8017:8027  msg.sender */\n      caller\n        /* \"Documents/GitHub/contract-token-cryptoMonster/backend/components/CryptoMonster.sol\":8004:8016  structUsers_ */\n      0x00\n        /* \"Documents/GitHub/contract-token-cryptoMonster/backend/components/CryptoMonster.sol\":8004:8028  structUsers_[msg.sender] */\n      swap1\n      dup2\n      mstore\n      0x20\n      dup2\n      swap1\n      mstore\n      0x40\n      swap1\n      keccak256\n        /* \"Documents/GitHub/contract-token-cryptoMonster/backend/components/CryptoMonster.sol\":8004:8033  structUsers_[msg.sender].role */\n      sload\n      0xff\n      and\n        /* \"Documents/GitHub/contract-token-cryptoMonster/backend/components/CryptoMonster.sol\":8004:8050  structUsers_[msg.sender].role == Role.INVESTOR */\n      0x04\n      dup2\n      gt\n      iszero\n      tag_209\n      jumpi\n      tag_209\n      tag_176\n      jump\t// in\n    tag_209:\n      eq\n        /* \"Documents/GitHub/contract-token-cryptoMonster/backend/components/CryptoMonster.sol\":7995:8072  require (structUsers_[msg.sender].role == Role.INVESTOR, \"Your not investor\") */\n      tag_210\n      jumpi\n      mload(0x40)\n      shl(0xe5, 0x461bcd)\n      dup2\n      mstore\n        /* \"#utility.yul\":6147:6149   */\n      0x20\n        /* \"Documents/GitHub/contract-token-cryptoMonster/backend/components/CryptoMonster.sol\":7995:8072  require (structUsers_[msg.sender].role == Role.INVESTOR, \"Your not investor\") */\n      0x04\n      dup3\n      add\n        /* \"#utility.yul\":6129:6150   */\n      mstore\n        /* \"#utility.yul\":6186:6188   */\n      0x11\n        /* \"#utility.yul\":6166:6184   */\n      0x24\n      dup3\n      add\n        /* \"#utility.yul\":6159:6189   */\n      mstore\n      shl(0x79, 0x2cb7bab9103737ba1034b73b32b9ba37b9)\n        /* \"#utility.yul\":6205:6223   */\n      0x44\n      dup3\n      add\n        /* \"#utility.yul\":6198:6245   */\n      mstore\n        /* \"#utility.yul\":6262:6280   */\n      0x64\n      add\n        /* \"Documents/GitHub/contract-token-cryptoMonster/backend/components/CryptoMonster.sol\":7995:8072  require (structUsers_[msg.sender].role == Role.INVESTOR, \"Your not investor\") */\n      tag_165\n        /* \"#utility.yul\":5945:6286   */\n      jump\n        /* \"Documents/GitHub/contract-token-cryptoMonster/backend/components/CryptoMonster.sol\":7995:8072  require (structUsers_[msg.sender].role == Role.INVESTOR, \"Your not investor\") */\n    tag_210:\n        /* \"Documents/GitHub/contract-token-cryptoMonster/backend/components/CryptoMonster.sol\":8243:8256  Role.INVESTOR */\n      0x03\n      sub(shl(0xa0, 0x01), 0x01)\n        /* \"Documents/GitHub/contract-token-cryptoMonster/backend/components/CryptoMonster.sol\":8211:8234  structUsers_[_receiver] */\n      dup5\n      and\n        /* \"Documents/GitHub/contract-token-cryptoMonster/backend/components/CryptoMonster.sol\":8211:8223  structUsers_ */\n      0x00\n        /* \"Documents/GitHub/contract-token-cryptoMonster/backend/components/CryptoMonster.sol\":8211:8234  structUsers_[_receiver] */\n      swap1\n      dup2\n      mstore\n      0x20\n      dup2\n      swap1\n      mstore\n      0x40\n      swap1\n      keccak256\n        /* \"Documents/GitHub/contract-token-cryptoMonster/backend/components/CryptoMonster.sol\":8211:8239  structUsers_[_receiver].role */\n      sload\n      0xff\n      and\n        /* \"Documents/GitHub/contract-token-cryptoMonster/backend/components/CryptoMonster.sol\":8211:8256  structUsers_[_receiver].role == Role.INVESTOR */\n      0x04\n      dup2\n      gt\n      iszero\n      tag_215\n      jumpi\n      tag_215\n      tag_176\n      jump\t// in\n    tag_215:\n      eq\n        /* \"Documents/GitHub/contract-token-cryptoMonster/backend/components/CryptoMonster.sol\":8202:8278  require (structUsers_[_receiver].role == Role.INVESTOR, \"Your not investor\") */\n      tag_216\n      jumpi\n      mload(0x40)\n      shl(0xe5, 0x461bcd)\n      dup2\n      mstore\n        /* \"#utility.yul\":6147:6149   */\n      0x20\n        /* \"Documents/GitHub/contract-token-cryptoMonster/backend/components/CryptoMonster.sol\":8202:8278  require (structUsers_[_receiver].role == Role.INVESTOR, \"Your not investor\") */\n      0x04\n      dup3\n      add\n        /* \"#utility.yul\":6129:6150   */\n      mstore\n        /* \"#utility.yul\":6186:6188   */\n      0x11\n        /* \"#utility.yul\":6166:6184   */\n      0x24\n      dup3\n      add\n        /* \"#utility.yul\":6159:6189   */\n      mstore\n      shl(0x79, 0x2cb7bab9103737ba1034b73b32b9ba37b9)\n        /* \"#utility.yul\":6205:6223   */\n      0x44\n      dup3\n      add\n        /* \"#utility.yul\":6198:6245   */\n      mstore\n        /* \"#utility.yul\":6262:6280   */\n      0x64\n      add\n        /* \"Documents/GitHub/contract-token-cryptoMonster/backend/components/CryptoMonster.sol\":8202:8278  require (structUsers_[_receiver].role == Role.INVESTOR, \"Your not investor\") */\n      tag_165\n        /* \"#utility.yul\":5945:6286   */\n      jump\n        /* \"Documents/GitHub/contract-token-cryptoMonster/backend/components/CryptoMonster.sol\":8202:8278  require (structUsers_[_receiver].role == Role.INVESTOR, \"Your not investor\") */\n    tag_216:\n        /* \"Documents/GitHub/contract-token-cryptoMonster/backend/components/CryptoMonster.sol\":8464:8474  msg.sender */\n      caller\n        /* \"Documents/GitHub/contract-token-cryptoMonster/backend/components/CryptoMonster.sol\":8451:8463  structUsers_ */\n      0x00\n        /* \"Documents/GitHub/contract-token-cryptoMonster/backend/components/CryptoMonster.sol\":8451:8475  structUsers_[msg.sender] */\n      swap1\n      dup2\n      mstore\n      0x20\n      dup2\n      swap1\n      mstore\n      0x40\n      swap1\n      keccak256\n        /* \"Documents/GitHub/contract-token-cryptoMonster/backend/components/CryptoMonster.sol\":8451:8488  structUsers_[msg.sender].balance_seed */\n      0x04\n      add\n      sload\n        /* \"Documents/GitHub/contract-token-cryptoMonster/backend/components/CryptoMonster.sol\":8451:8504  structUsers_[msg.sender].balance_seed.sub(_numTokens) */\n      tag_218\n      swap1\n        /* \"Documents/GitHub/contract-token-cryptoMonster/backend/components/CryptoMonster.sol\":8493:8503  _numTokens */\n      dup4\n        /* \"Documents/GitHub/contract-token-cryptoMonster/backend/components/CryptoMonster.sol\":8451:8492  structUsers_[msg.sender].balance_seed.sub */\n      tag_93\n        /* \"Documents/GitHub/contract-token-cryptoMonster/backend/components/CryptoMonster.sol\":8451:8504  structUsers_[msg.sender].balance_seed.sub(_numTokens) */\n      jump\t// in\n    tag_218:\n        /* \"Documents/GitHub/contract-token-cryptoMonster/backend/components/CryptoMonster.sol\":8424:8434  msg.sender */\n      caller\n        /* \"Documents/GitHub/contract-token-cryptoMonster/backend/components/CryptoMonster.sol\":8411:8423  structUsers_ */\n      0x00\n        /* \"Documents/GitHub/contract-token-cryptoMonster/backend/components/CryptoMonster.sol\":8411:8435  structUsers_[msg.sender] */\n      swap1\n      dup2\n      mstore\n      0x20\n      dup2\n      swap1\n      mstore\n      0x40\n      dup1\n      dup3\n      keccak256\n        /* \"Documents/GitHub/contract-token-cryptoMonster/backend/components/CryptoMonster.sol\":8411:8448  structUsers_[msg.sender].balance_seed */\n      0x04\n      swap1\n      dup2\n      add\n        /* \"Documents/GitHub/contract-token-cryptoMonster/backend/components/CryptoMonster.sol\":8411:8504  structUsers_[msg.sender].balance_seed = structUsers_[msg.sender].balance_seed.sub(_numTokens) */\n      swap4\n      swap1\n      swap4\n      sstore\n      sub(shl(0xa0, 0x01), 0x01)\n        /* \"Documents/GitHub/contract-token-cryptoMonster/backend/components/CryptoMonster.sol\":8639:8662  structUsers_[_receiver] */\n      dup7\n      and\n      dup3\n      mstore\n      swap1\n      keccak256\n        /* \"Documents/GitHub/contract-token-cryptoMonster/backend/components/CryptoMonster.sol\":8639:8675  structUsers_[_receiver].balance_seed */\n      add\n      sload\n        /* \"Documents/GitHub/contract-token-cryptoMonster/backend/components/CryptoMonster.sol\":8639:8691  structUsers_[_receiver].balance_seed.add(_numTokens) */\n      tag_202\n      swap1\n        /* \"Documents/GitHub/contract-token-cryptoMonster/backend/components/CryptoMonster.sol\":8680:8690  _numTokens */\n      dup4\n        /* \"Documents/GitHub/contract-token-cryptoMonster/backend/components/CryptoMonster.sol\":8639:8679  structUsers_[_receiver].balance_seed.add */\n      tag_94\n        /* \"Documents/GitHub/contract-token-cryptoMonster/backend/components/CryptoMonster.sol\":8639:8691  structUsers_[_receiver].balance_seed.add(_numTokens) */\n      jump\t// in\n        /* \"Documents/GitHub/contract-token-cryptoMonster/backend/components/CryptoMonster.sol\":6094:13253  if (validatePhase(\"seed\", privateProviderAdr, publicProviderAdr) == true)  {                             // !: if фаза SEED\r... */\n    tag_184:\n        /* \"Documents/GitHub/contract-token-cryptoMonster/backend/components/CryptoMonster.sol\":9032:9095  validatePhase(\"private\", privateProviderAdr, publicProviderAdr) */\n      tag_222\n      mload(0x40)\n      dup1\n      0x40\n      add\n      0x40\n      mstore\n      dup1\n      0x07\n      dup2\n      mstore\n      0x20\n      add\n      shl(0xc8, 0x70726976617465)\n      dup2\n      mstore\n      pop\n        /* \"Documents/GitHub/contract-token-cryptoMonster/backend/components/CryptoMonster.sol\":1578:1620  0xAb8483F64d9C6d1EcF9b849Ae677dD3315835cb2 */\n      0xab8483f64d9c6d1ecf9b849ae677dd3315835cb2\n        /* \"Documents/GitHub/contract-token-cryptoMonster/backend/components/CryptoMonster.sol\":1694:1736  0xAb8483F64d9C6d1EcF9b849Ae677dD3315835cb2 */\n      dup1\n        /* \"Documents/GitHub/contract-token-cryptoMonster/backend/components/CryptoMonster.sol\":9032:9045  validatePhase */\n      tag_100\n        /* \"Documents/GitHub/contract-token-cryptoMonster/backend/components/CryptoMonster.sol\":9032:9095  validatePhase(\"private\", privateProviderAdr, publicProviderAdr) */\n      jump\t// in\n    tag_222:\n        /* \"Documents/GitHub/contract-token-cryptoMonster/backend/components/CryptoMonster.sol\":9032:9103  validatePhase(\"private\", privateProviderAdr, publicProviderAdr) == true */\n      iszero\n      iszero\n        /* \"Documents/GitHub/contract-token-cryptoMonster/backend/components/CryptoMonster.sol\":9099:9103  true */\n      0x01\n        /* \"Documents/GitHub/contract-token-cryptoMonster/backend/components/CryptoMonster.sol\":9032:9103  validatePhase(\"private\", privateProviderAdr, publicProviderAdr) == true */\n      eq\n        /* \"Documents/GitHub/contract-token-cryptoMonster/backend/components/CryptoMonster.sol\":9028:13253  if (validatePhase(\"private\", privateProviderAdr, publicProviderAdr) == true) {                    // !: if фаза PRIVATE\r... */\n      iszero\n      tag_223\n      jumpi\n        /* \"Documents/GitHub/contract-token-cryptoMonster/backend/components/CryptoMonster.sol\":9169:9184  validateOwner() */\n      tag_224\n        /* \"Documents/GitHub/contract-token-cryptoMonster/backend/components/CryptoMonster.sol\":9169:9182  validateOwner */\n      tag_103\n        /* \"Documents/GitHub/contract-token-cryptoMonster/backend/components/CryptoMonster.sol\":9169:9184  validateOwner() */\n      jump\t// in\n    tag_224:\n        /* \"Documents/GitHub/contract-token-cryptoMonster/backend/components/CryptoMonster.sol\":9169:9192  validateOwner() == true */\n      iszero\n      iszero\n        /* \"Documents/GitHub/contract-token-cryptoMonster/backend/components/CryptoMonster.sol\":9188:9192  true */\n      0x01\n        /* \"Documents/GitHub/contract-token-cryptoMonster/backend/components/CryptoMonster.sol\":9169:9192  validateOwner() == true */\n      eq\n        /* \"Documents/GitHub/contract-token-cryptoMonster/backend/components/CryptoMonster.sol\":9165:11119  if (validateOwner() == true) {                                                                         // !: if пользователь админ\r... */\n      iszero\n      tag_225\n      jumpi\n        /* \"Documents/GitHub/contract-token-cryptoMonster/backend/components/CryptoMonster.sol\":9365:9375  msg.sender */\n      caller\n        /* \"Documents/GitHub/contract-token-cryptoMonster/backend/components/CryptoMonster.sol\":9352:9364  structUsers_ */\n      0x00\n        /* \"Documents/GitHub/contract-token-cryptoMonster/backend/components/CryptoMonster.sol\":9352:9376  structUsers_[msg.sender] */\n      swap1\n      dup2\n      mstore\n      0x20\n      dup2\n      swap1\n      mstore\n      0x40\n      swap1\n      keccak256\n        /* \"Documents/GitHub/contract-token-cryptoMonster/backend/components/CryptoMonster.sol\":9352:9392  structUsers_[msg.sender].balance_overall */\n      0x03\n      add\n      sload\n        /* \"Documents/GitHub/contract-token-cryptoMonster/backend/components/CryptoMonster.sol\":9338:9392  _numTokens <= structUsers_[msg.sender].balance_overall */\n      dup3\n      gt\n      iszero\n        /* \"Documents/GitHub/contract-token-cryptoMonster/backend/components/CryptoMonster.sol\":9330:9393  require(_numTokens <= structUsers_[msg.sender].balance_overall) */\n      tag_226\n      jumpi\n      0x00\n      dup1\n      revert\n    tag_226:\n        /* \"Documents/GitHub/contract-token-cryptoMonster/backend/components/CryptoMonster.sol\":9593:9603  msg.sender */\n      caller\n        /* \"Documents/GitHub/contract-token-cryptoMonster/backend/components/CryptoMonster.sol\":9580:9592  structUsers_ */\n      0x00\n        /* \"Documents/GitHub/contract-token-cryptoMonster/backend/components/CryptoMonster.sol\":9580:9604  structUsers_[msg.sender] */\n      swap1\n      dup2\n      mstore\n      0x20\n      dup2\n      swap1\n      mstore\n      0x40\n      swap1\n      keccak256\n        /* \"Documents/GitHub/contract-token-cryptoMonster/backend/components/CryptoMonster.sol\":9580:9620  structUsers_[msg.sender].balance_overall */\n      0x03\n      add\n      sload\n        /* \"Documents/GitHub/contract-token-cryptoMonster/backend/components/CryptoMonster.sol\":9580:9636  structUsers_[msg.sender].balance_overall.sub(_numTokens) */\n      tag_227\n      swap1\n        /* \"Documents/GitHub/contract-token-cryptoMonster/backend/components/CryptoMonster.sol\":9625:9635  _numTokens */\n      dup4\n        /* \"Documents/GitHub/contract-token-cryptoMonster/backend/components/CryptoMonster.sol\":9580:9624  structUsers_[msg.sender].balance_overall.sub */\n      tag_93\n        /* \"Documents/GitHub/contract-token-cryptoMonster/backend/components/CryptoMonster.sol\":9580:9636  structUsers_[msg.sender].balance_overall.sub(_numTokens) */\n      jump\t// in\n    tag_227:\n        /* \"Documents/GitHub/contract-token-cryptoMonster/backend/components/CryptoMonster.sol\":9550:9560  msg.sender */\n      caller\n        /* \"Documents/GitHub/contract-token-cryptoMonster/backend/components/CryptoMonster.sol\":9537:9549  structUsers_ */\n      0x00\n        /* \"Documents/GitHub/contract-token-cryptoMonster/backend/components/CryptoMonster.sol\":9537:9561  structUsers_[msg.sender] */\n      swap1\n      dup2\n      mstore\n      0x20\n      dup2\n      swap1\n      mstore\n      0x40\n      dup1\n      dup3\n      keccak256\n        /* \"Documents/GitHub/contract-token-cryptoMonster/backend/components/CryptoMonster.sol\":9537:9577  structUsers_[msg.sender].balance_overall */\n      0x03\n      add\n        /* \"Documents/GitHub/contract-token-cryptoMonster/backend/components/CryptoMonster.sol\":9537:9636  structUsers_[msg.sender].balance_overall = structUsers_[msg.sender].balance_overall.sub(_numTokens) */\n      swap3\n      swap1\n      swap3\n      sstore\n      sub(shl(0xa0, 0x01), 0x01)\n        /* \"Documents/GitHub/contract-token-cryptoMonster/backend/components/CryptoMonster.sol\":9768:9791  structUsers_[_receiver] */\n      dup6\n      and\n      dup2\n      mstore\n      keccak256\n        /* \"Documents/GitHub/contract-token-cryptoMonster/backend/components/CryptoMonster.sol\":9768:9807  structUsers_[_receiver].balance_private */\n      0x05\n      add\n      sload\n        /* \"Documents/GitHub/contract-token-cryptoMonster/backend/components/CryptoMonster.sol\":9768:9823  structUsers_[_receiver].balance_private.add(_numTokens) */\n      tag_228\n      swap1\n        /* \"Documents/GitHub/contract-token-cryptoMonster/backend/components/CryptoMonster.sol\":9812:9822  _numTokens */\n      dup4\n        /* \"Documents/GitHub/contract-token-cryptoMonster/backend/components/CryptoMonster.sol\":9768:9811  structUsers_[_receiver].balance_private.add */\n      tag_94\n        /* \"Documents/GitHub/contract-token-cryptoMonster/backend/components/CryptoMonster.sol\":9768:9823  structUsers_[_receiver].balance_private.add(_numTokens) */\n      jump\t// in\n    tag_228:\n      sub(shl(0xa0, 0x01), 0x01)\n        /* \"Documents/GitHub/contract-token-cryptoMonster/backend/components/CryptoMonster.sol\":9726:9749  structUsers_[_receiver] */\n      dup5\n      and\n        /* \"Documents/GitHub/contract-token-cryptoMonster/backend/components/CryptoMonster.sol\":9726:9738  structUsers_ */\n      0x00\n        /* \"Documents/GitHub/contract-token-cryptoMonster/backend/components/CryptoMonster.sol\":9726:9749  structUsers_[_receiver] */\n      dup2\n      dup2\n      mstore\n      0x20\n      dup2\n      dup2\n      mstore\n      0x40\n      swap2\n      dup3\n      swap1\n      keccak256\n        /* \"Documents/GitHub/contract-token-cryptoMonster/backend/components/CryptoMonster.sol\":9726:9765  structUsers_[_receiver].balance_private */\n      0x05\n      add\n        /* \"Documents/GitHub/contract-token-cryptoMonster/backend/components/CryptoMonster.sol\":9726:9823  structUsers_[_receiver].balance_private = structUsers_[_receiver].balance_private.add(_numTokens) */\n      swap4\n      swap1\n      swap4\n      sstore\n        /* \"Documents/GitHub/contract-token-cryptoMonster/backend/components/CryptoMonster.sol\":9917:9960  Transfer(msg.sender, _receiver, _numTokens) */\n      mload\n        /* \"#utility.yul\":4018:4043   */\n      dup5\n      dup2\n      mstore\n        /* \"Documents/GitHub/contract-token-cryptoMonster/backend/components/CryptoMonster.sol\":9726:9749  structUsers_[_receiver] */\n      swap1\n      swap2\n        /* \"Documents/GitHub/contract-token-cryptoMonster/backend/components/CryptoMonster.sol\":9926:9936  msg.sender */\n      caller\n      swap2\n        /* \"Documents/GitHub/contract-token-cryptoMonster/backend/components/CryptoMonster.sol\":9917:9960  Transfer(msg.sender, _receiver, _numTokens) */\n      0xddf252ad1be2c89b69c2b068fc378daa952ba7f163c4a11628f55a4df523b3ef\n      swap2\n        /* \"#utility.yul\":3991:4009   */\n      add\n        /* \"Documents/GitHub/contract-token-cryptoMonster/backend/components/CryptoMonster.sol\":9917:9960  Transfer(msg.sender, _receiver, _numTokens) */\n      tag_203\n        /* \"#utility.yul\":3872:4049   */\n      jump\n        /* \"Documents/GitHub/contract-token-cryptoMonster/backend/components/CryptoMonster.sol\":9165:11119  if (validateOwner() == true) {                                                                         // !: if пользователь админ\r... */\n    tag_225:\n        /* \"Documents/GitHub/contract-token-cryptoMonster/backend/components/CryptoMonster.sol\":10344:10354  msg.sender */\n      caller\n        /* \"Documents/GitHub/contract-token-cryptoMonster/backend/components/CryptoMonster.sol\":10331:10343  structUsers_ */\n      0x00\n        /* \"Documents/GitHub/contract-token-cryptoMonster/backend/components/CryptoMonster.sol\":10331:10355  structUsers_[msg.sender] */\n      swap1\n      dup2\n      mstore\n      0x20\n      dup2\n      swap1\n      mstore\n      0x40\n      swap1\n      keccak256\n        /* \"Documents/GitHub/contract-token-cryptoMonster/backend/components/CryptoMonster.sol\":10331:10371  structUsers_[msg.sender].balance_private */\n      0x05\n      add\n      sload\n        /* \"Documents/GitHub/contract-token-cryptoMonster/backend/components/CryptoMonster.sol\":10317:10371  _numTokens <= structUsers_[msg.sender].balance_private */\n      dup3\n      gt\n      iszero\n        /* \"Documents/GitHub/contract-token-cryptoMonster/backend/components/CryptoMonster.sol\":10309:10372  require(_numTokens <= structUsers_[msg.sender].balance_private) */\n      tag_231\n      jumpi\n      0x00\n      dup1\n      revert\n    tag_231:\n        /* \"Documents/GitHub/contract-token-cryptoMonster/backend/components/CryptoMonster.sol\":10572:10582  msg.sender */\n      caller\n        /* \"Documents/GitHub/contract-token-cryptoMonster/backend/components/CryptoMonster.sol\":10559:10571  structUsers_ */\n      0x00\n        /* \"Documents/GitHub/contract-token-cryptoMonster/backend/components/CryptoMonster.sol\":10559:10583  structUsers_[msg.sender] */\n      swap1\n      dup2\n      mstore\n      0x20\n      dup2\n      swap1\n      mstore\n      0x40\n      swap1\n      keccak256\n        /* \"Documents/GitHub/contract-token-cryptoMonster/backend/components/CryptoMonster.sol\":10559:10599  structUsers_[msg.sender].balance_private */\n      0x05\n      add\n      sload\n        /* \"Documents/GitHub/contract-token-cryptoMonster/backend/components/CryptoMonster.sol\":10559:10615  structUsers_[msg.sender].balance_private.sub(_numTokens) */\n      tag_232\n      swap1\n        /* \"Documents/GitHub/contract-token-cryptoMonster/backend/components/CryptoMonster.sol\":10604:10614  _numTokens */\n      dup4\n        /* \"Documents/GitHub/contract-token-cryptoMonster/backend/components/CryptoMonster.sol\":10559:10603  structUsers_[msg.sender].balance_private.sub */\n      tag_93\n        /* \"Documents/GitHub/contract-token-cryptoMonster/backend/components/CryptoMonster.sol\":10559:10615  structUsers_[msg.sender].balance_private.sub(_numTokens) */\n      jump\t// in\n    tag_232:\n        /* \"Documents/GitHub/contract-token-cryptoMonster/backend/components/CryptoMonster.sol\":10529:10539  msg.sender */\n      caller\n        /* \"Documents/GitHub/contract-token-cryptoMonster/backend/components/CryptoMonster.sol\":10516:10528  structUsers_ */\n      0x00\n        /* \"Documents/GitHub/contract-token-cryptoMonster/backend/components/CryptoMonster.sol\":10516:10540  structUsers_[msg.sender] */\n      swap1\n      dup2\n      mstore\n      0x20\n      dup2\n      swap1\n      mstore\n      0x40\n      dup1\n      dup3\n      keccak256\n        /* \"Documents/GitHub/contract-token-cryptoMonster/backend/components/CryptoMonster.sol\":10516:10556  structUsers_[msg.sender].balance_private */\n      0x05\n      swap1\n      dup2\n      add\n        /* \"Documents/GitHub/contract-token-cryptoMonster/backend/components/CryptoMonster.sol\":10516:10615  structUsers_[msg.sender].balance_private = structUsers_[msg.sender].balance_private.sub(_numTokens) */\n      swap4\n      swap1\n      swap4\n      sstore\n      sub(shl(0xa0, 0x01), 0x01)\n        /* \"Documents/GitHub/contract-token-cryptoMonster/backend/components/CryptoMonster.sol\":10747:10770  structUsers_[_receiver] */\n      dup7\n      and\n      dup3\n      mstore\n      swap1\n      keccak256\n        /* \"Documents/GitHub/contract-token-cryptoMonster/backend/components/CryptoMonster.sol\":10747:10786  structUsers_[_receiver].balance_private */\n      add\n      sload\n        /* \"Documents/GitHub/contract-token-cryptoMonster/backend/components/CryptoMonster.sol\":10747:10802  structUsers_[_receiver].balance_private.add(_numTokens) */\n      tag_228\n      swap1\n        /* \"Documents/GitHub/contract-token-cryptoMonster/backend/components/CryptoMonster.sol\":10791:10801  _numTokens */\n      dup4\n        /* \"Documents/GitHub/contract-token-cryptoMonster/backend/components/CryptoMonster.sol\":10747:10790  structUsers_[_receiver].balance_private.add */\n      tag_94\n        /* \"Documents/GitHub/contract-token-cryptoMonster/backend/components/CryptoMonster.sol\":10747:10802  structUsers_[_receiver].balance_private.add(_numTokens) */\n      jump\t// in\n        /* \"Documents/GitHub/contract-token-cryptoMonster/backend/components/CryptoMonster.sol\":9028:13253  if (validatePhase(\"private\", privateProviderAdr, publicProviderAdr) == true) {                    // !: if фаза PRIVATE\r... */\n    tag_223:\n        /* \"Documents/GitHub/contract-token-cryptoMonster/backend/components/CryptoMonster.sol\":11140:11202  validatePhase(\"public\", privateProviderAdr, publicProviderAdr) */\n      tag_236\n      mload(0x40)\n      dup1\n      0x40\n      add\n      0x40\n      mstore\n      dup1\n      0x06\n      dup2\n      mstore\n      0x20\n      add\n      shl(0xd0, 0x7075626c6963)\n      dup2\n      mstore\n      pop\n        /* \"Documents/GitHub/contract-token-cryptoMonster/backend/components/CryptoMonster.sol\":1578:1620  0xAb8483F64d9C6d1EcF9b849Ae677dD3315835cb2 */\n      0xab8483f64d9c6d1ecf9b849ae677dd3315835cb2\n        /* \"Documents/GitHub/contract-token-cryptoMonster/backend/components/CryptoMonster.sol\":1694:1736  0xAb8483F64d9C6d1EcF9b849Ae677dD3315835cb2 */\n      dup1\n        /* \"Documents/GitHub/contract-token-cryptoMonster/backend/components/CryptoMonster.sol\":11140:11153  validatePhase */\n      tag_100\n        /* \"Documents/GitHub/contract-token-cryptoMonster/backend/components/CryptoMonster.sol\":11140:11202  validatePhase(\"public\", privateProviderAdr, publicProviderAdr) */\n      jump\t// in\n    tag_236:\n        /* \"Documents/GitHub/contract-token-cryptoMonster/backend/components/CryptoMonster.sol\":11140:11210  validatePhase(\"public\", privateProviderAdr, publicProviderAdr) == true */\n      iszero\n      iszero\n        /* \"Documents/GitHub/contract-token-cryptoMonster/backend/components/CryptoMonster.sol\":11206:11210  true */\n      0x01\n        /* \"Documents/GitHub/contract-token-cryptoMonster/backend/components/CryptoMonster.sol\":11140:11210  validatePhase(\"public\", privateProviderAdr, publicProviderAdr) == true */\n      eq\n        /* \"Documents/GitHub/contract-token-cryptoMonster/backend/components/CryptoMonster.sol\":11136:13253  if (validatePhase(\"public\", privateProviderAdr, publicProviderAdr) == true) {                     // !: if фаза PUBLIC\r... */\n      iszero\n      tag_237\n      jumpi\n        /* \"Documents/GitHub/contract-token-cryptoMonster/backend/components/CryptoMonster.sol\":11276:11291  validateOwner() */\n      tag_238\n        /* \"Documents/GitHub/contract-token-cryptoMonster/backend/components/CryptoMonster.sol\":11276:11289  validateOwner */\n      tag_103\n        /* \"Documents/GitHub/contract-token-cryptoMonster/backend/components/CryptoMonster.sol\":11276:11291  validateOwner() */\n      jump\t// in\n    tag_238:\n        /* \"Documents/GitHub/contract-token-cryptoMonster/backend/components/CryptoMonster.sol\":11276:11299  validateOwner() == true */\n      iszero\n      iszero\n        /* \"Documents/GitHub/contract-token-cryptoMonster/backend/components/CryptoMonster.sol\":11295:11299  true */\n      0x01\n        /* \"Documents/GitHub/contract-token-cryptoMonster/backend/components/CryptoMonster.sol\":11276:11299  validateOwner() == true */\n      eq\n        /* \"Documents/GitHub/contract-token-cryptoMonster/backend/components/CryptoMonster.sol\":11272:13224  if (validateOwner() == true) {                                                                         // !: if пользователь админ\r... */\n      iszero\n      tag_239\n      jumpi\n        /* \"Documents/GitHub/contract-token-cryptoMonster/backend/components/CryptoMonster.sol\":11472:11482  msg.sender */\n      caller\n        /* \"Documents/GitHub/contract-token-cryptoMonster/backend/components/CryptoMonster.sol\":11459:11471  structUsers_ */\n      0x00\n        /* \"Documents/GitHub/contract-token-cryptoMonster/backend/components/CryptoMonster.sol\":11459:11483  structUsers_[msg.sender] */\n      swap1\n      dup2\n      mstore\n      0x20\n      dup2\n      swap1\n      mstore\n      0x40\n      swap1\n      keccak256\n        /* \"Documents/GitHub/contract-token-cryptoMonster/backend/components/CryptoMonster.sol\":11459:11499  structUsers_[msg.sender].balance_overall */\n      0x03\n      add\n      sload\n        /* \"Documents/GitHub/contract-token-cryptoMonster/backend/components/CryptoMonster.sol\":11445:11499  _numTokens <= structUsers_[msg.sender].balance_overall */\n      dup3\n      gt\n      iszero\n        /* \"Documents/GitHub/contract-token-cryptoMonster/backend/components/CryptoMonster.sol\":11437:11500  require(_numTokens <= structUsers_[msg.sender].balance_overall) */\n      tag_240\n      jumpi\n      0x00\n      dup1\n      revert\n    tag_240:\n        /* \"Documents/GitHub/contract-token-cryptoMonster/backend/components/CryptoMonster.sol\":11700:11710  msg.sender */\n      caller\n        /* \"Documents/GitHub/contract-token-cryptoMonster/backend/components/CryptoMonster.sol\":11687:11699  structUsers_ */\n      0x00\n        /* \"Documents/GitHub/contract-token-cryptoMonster/backend/components/CryptoMonster.sol\":11687:11711  structUsers_[msg.sender] */\n      swap1\n      dup2\n      mstore\n      0x20\n      dup2\n      swap1\n      mstore\n      0x40\n      swap1\n      keccak256\n        /* \"Documents/GitHub/contract-token-cryptoMonster/backend/components/CryptoMonster.sol\":11687:11727  structUsers_[msg.sender].balance_overall */\n      0x03\n      add\n      sload\n        /* \"Documents/GitHub/contract-token-cryptoMonster/backend/components/CryptoMonster.sol\":11687:11743  structUsers_[msg.sender].balance_overall.sub(_numTokens) */\n      tag_241\n      swap1\n        /* \"Documents/GitHub/contract-token-cryptoMonster/backend/components/CryptoMonster.sol\":11732:11742  _numTokens */\n      dup4\n        /* \"Documents/GitHub/contract-token-cryptoMonster/backend/components/CryptoMonster.sol\":11687:11731  structUsers_[msg.sender].balance_overall.sub */\n      tag_93\n        /* \"Documents/GitHub/contract-token-cryptoMonster/backend/components/CryptoMonster.sol\":11687:11743  structUsers_[msg.sender].balance_overall.sub(_numTokens) */\n      jump\t// in\n    tag_241:\n        /* \"Documents/GitHub/contract-token-cryptoMonster/backend/components/CryptoMonster.sol\":11657:11667  msg.sender */\n      caller\n        /* \"Documents/GitHub/contract-token-cryptoMonster/backend/components/CryptoMonster.sol\":11644:11656  structUsers_ */\n      0x00\n        /* \"Documents/GitHub/contract-token-cryptoMonster/backend/components/CryptoMonster.sol\":11644:11668  structUsers_[msg.sender] */\n      swap1\n      dup2\n      mstore\n      0x20\n      dup2\n      swap1\n      mstore\n      0x40\n      dup1\n      dup3\n      keccak256\n        /* \"Documents/GitHub/contract-token-cryptoMonster/backend/components/CryptoMonster.sol\":11644:11684  structUsers_[msg.sender].balance_overall */\n      0x03\n      add\n        /* \"Documents/GitHub/contract-token-cryptoMonster/backend/components/CryptoMonster.sol\":11644:11743  structUsers_[msg.sender].balance_overall = structUsers_[msg.sender].balance_overall.sub(_numTokens) */\n      swap3\n      swap1\n      swap3\n      sstore\n      sub(shl(0xa0, 0x01), 0x01)\n        /* \"Documents/GitHub/contract-token-cryptoMonster/backend/components/CryptoMonster.sol\":11874:11897  structUsers_[_receiver] */\n      dup6\n      and\n      dup2\n      mstore\n      keccak256\n        /* \"Documents/GitHub/contract-token-cryptoMonster/backend/components/CryptoMonster.sol\":11874:11912  structUsers_[_receiver].balance_public */\n      0x06\n      add\n      sload\n        /* \"Documents/GitHub/contract-token-cryptoMonster/backend/components/CryptoMonster.sol\":11874:11928  structUsers_[_receiver].balance_public.add(_numTokens) */\n      tag_242\n      swap1\n        /* \"Documents/GitHub/contract-token-cryptoMonster/backend/components/CryptoMonster.sol\":11917:11927  _numTokens */\n      dup4\n        /* \"Documents/GitHub/contract-token-cryptoMonster/backend/components/CryptoMonster.sol\":11874:11916  structUsers_[_receiver].balance_public.add */\n      tag_94\n        /* \"Documents/GitHub/contract-token-cryptoMonster/backend/components/CryptoMonster.sol\":11874:11928  structUsers_[_receiver].balance_public.add(_numTokens) */\n      jump\t// in\n    tag_242:\n      sub(shl(0xa0, 0x01), 0x01)\n        /* \"Documents/GitHub/contract-token-cryptoMonster/backend/components/CryptoMonster.sol\":11833:11856  structUsers_[_receiver] */\n      dup5\n      and\n        /* \"Documents/GitHub/contract-token-cryptoMonster/backend/components/CryptoMonster.sol\":11833:11845  structUsers_ */\n      0x00\n        /* \"Documents/GitHub/contract-token-cryptoMonster/backend/components/CryptoMonster.sol\":11833:11856  structUsers_[_receiver] */\n      dup2\n      dup2\n      mstore\n      0x20\n      dup2\n      dup2\n      mstore\n      0x40\n      swap2\n      dup3\n      swap1\n      keccak256\n        /* \"Documents/GitHub/contract-token-cryptoMonster/backend/components/CryptoMonster.sol\":11833:11871  structUsers_[_receiver].balance_public */\n      0x06\n      add\n        /* \"Documents/GitHub/contract-token-cryptoMonster/backend/components/CryptoMonster.sol\":11833:11928  structUsers_[_receiver].balance_public = structUsers_[_receiver].balance_public.add(_numTokens) */\n      swap4\n      swap1\n      swap4\n      sstore\n        /* \"Documents/GitHub/contract-token-cryptoMonster/backend/components/CryptoMonster.sol\":12023:12066  Transfer(msg.sender, _receiver, _numTokens) */\n      mload\n        /* \"#utility.yul\":4018:4043   */\n      dup5\n      dup2\n      mstore\n        /* \"Documents/GitHub/contract-token-cryptoMonster/backend/components/CryptoMonster.sol\":11833:11856  structUsers_[_receiver] */\n      swap1\n      swap2\n        /* \"Documents/GitHub/contract-token-cryptoMonster/backend/components/CryptoMonster.sol\":12032:12042  msg.sender */\n      caller\n      swap2\n        /* \"Documents/GitHub/contract-token-cryptoMonster/backend/components/CryptoMonster.sol\":12023:12066  Transfer(msg.sender, _receiver, _numTokens) */\n      0xddf252ad1be2c89b69c2b068fc378daa952ba7f163c4a11628f55a4df523b3ef\n      swap2\n        /* \"#utility.yul\":3991:4009   */\n      add\n        /* \"Documents/GitHub/contract-token-cryptoMonster/backend/components/CryptoMonster.sol\":12023:12066  Transfer(msg.sender, _receiver, _numTokens) */\n      tag_203\n        /* \"#utility.yul\":3872:4049   */\n      jump\n        /* \"Documents/GitHub/contract-token-cryptoMonster/backend/components/CryptoMonster.sol\":11272:13224  if (validateOwner() == true) {                                                                         // !: if пользователь админ\r... */\n    tag_239:\n        /* \"Documents/GitHub/contract-token-cryptoMonster/backend/components/CryptoMonster.sol\":12450:12460  msg.sender */\n      caller\n        /* \"Documents/GitHub/contract-token-cryptoMonster/backend/components/CryptoMonster.sol\":12437:12449  structUsers_ */\n      0x00\n        /* \"Documents/GitHub/contract-token-cryptoMonster/backend/components/CryptoMonster.sol\":12437:12461  structUsers_[msg.sender] */\n      swap1\n      dup2\n      mstore\n      0x20\n      dup2\n      swap1\n      mstore\n      0x40\n      swap1\n      keccak256\n        /* \"Documents/GitHub/contract-token-cryptoMonster/backend/components/CryptoMonster.sol\":12437:12476  structUsers_[msg.sender].balance_public */\n      0x06\n      add\n      sload\n        /* \"Documents/GitHub/contract-token-cryptoMonster/backend/components/CryptoMonster.sol\":12423:12476  _numTokens <= structUsers_[msg.sender].balance_public */\n      dup3\n      gt\n      iszero\n        /* \"Documents/GitHub/contract-token-cryptoMonster/backend/components/CryptoMonster.sol\":12415:12477  require(_numTokens <= structUsers_[msg.sender].balance_public) */\n      tag_245\n      jumpi\n      0x00\n      dup1\n      revert\n    tag_245:\n        /* \"Documents/GitHub/contract-token-cryptoMonster/backend/components/CryptoMonster.sol\":12677:12687  msg.sender */\n      caller\n        /* \"Documents/GitHub/contract-token-cryptoMonster/backend/components/CryptoMonster.sol\":12664:12676  structUsers_ */\n      0x00\n        /* \"Documents/GitHub/contract-token-cryptoMonster/backend/components/CryptoMonster.sol\":12664:12688  structUsers_[msg.sender] */\n      swap1\n      dup2\n      mstore\n      0x20\n      dup2\n      swap1\n      mstore\n      0x40\n      swap1\n      keccak256\n        /* \"Documents/GitHub/contract-token-cryptoMonster/backend/components/CryptoMonster.sol\":12664:12703  structUsers_[msg.sender].balance_public */\n      0x06\n      add\n      sload\n        /* \"Documents/GitHub/contract-token-cryptoMonster/backend/components/CryptoMonster.sol\":12664:12719  structUsers_[msg.sender].balance_public.sub(_numTokens) */\n      tag_246\n      swap1\n        /* \"Documents/GitHub/contract-token-cryptoMonster/backend/components/CryptoMonster.sol\":12708:12718  _numTokens */\n      dup4\n        /* \"Documents/GitHub/contract-token-cryptoMonster/backend/components/CryptoMonster.sol\":12664:12707  structUsers_[msg.sender].balance_public.sub */\n      tag_93\n        /* \"Documents/GitHub/contract-token-cryptoMonster/backend/components/CryptoMonster.sol\":12664:12719  structUsers_[msg.sender].balance_public.sub(_numTokens) */\n      jump\t// in\n    tag_246:\n        /* \"Documents/GitHub/contract-token-cryptoMonster/backend/components/CryptoMonster.sol\":12635:12645  msg.sender */\n      caller\n        /* \"Documents/GitHub/contract-token-cryptoMonster/backend/components/CryptoMonster.sol\":12622:12634  structUsers_ */\n      0x00\n        /* \"Documents/GitHub/contract-token-cryptoMonster/backend/components/CryptoMonster.sol\":12622:12646  structUsers_[msg.sender] */\n      swap1\n      dup2\n      mstore\n      0x20\n      dup2\n      swap1\n      mstore\n      0x40\n      dup1\n      dup3\n      keccak256\n        /* \"Documents/GitHub/contract-token-cryptoMonster/backend/components/CryptoMonster.sol\":12622:12661  structUsers_[msg.sender].balance_public */\n      0x06\n      swap1\n      dup2\n      add\n        /* \"Documents/GitHub/contract-token-cryptoMonster/backend/components/CryptoMonster.sol\":12622:12719  structUsers_[msg.sender].balance_public = structUsers_[msg.sender].balance_public.sub(_numTokens) */\n      swap4\n      swap1\n      swap4\n      sstore\n      sub(shl(0xa0, 0x01), 0x01)\n        /* \"Documents/GitHub/contract-token-cryptoMonster/backend/components/CryptoMonster.sol\":12852:12875  structUsers_[_receiver] */\n      dup7\n      and\n      dup3\n      mstore\n      swap1\n      keccak256\n        /* \"Documents/GitHub/contract-token-cryptoMonster/backend/components/CryptoMonster.sol\":12852:12890  structUsers_[_receiver].balance_public */\n      add\n      sload\n        /* \"Documents/GitHub/contract-token-cryptoMonster/backend/components/CryptoMonster.sol\":12852:12906  structUsers_[_receiver].balance_public.add(_numTokens) */\n      tag_242\n      swap1\n        /* \"Documents/GitHub/contract-token-cryptoMonster/backend/components/CryptoMonster.sol\":12895:12905  _numTokens */\n      dup4\n        /* \"Documents/GitHub/contract-token-cryptoMonster/backend/components/CryptoMonster.sol\":12852:12894  structUsers_[_receiver].balance_public.add */\n      tag_94\n        /* \"Documents/GitHub/contract-token-cryptoMonster/backend/components/CryptoMonster.sol\":12852:12906  structUsers_[_receiver].balance_public.add(_numTokens) */\n      jump\t// in\n        /* \"Documents/GitHub/contract-token-cryptoMonster/backend/components/CryptoMonster.sol\":11136:13253  if (validatePhase(\"public\", privateProviderAdr, publicProviderAdr) == true) {                     // !: if фаза PUBLIC\r... */\n    tag_237:\n      pop\n        /* \"Documents/GitHub/contract-token-cryptoMonster/backend/components/CryptoMonster.sol\":13248:13253  false */\n      0x00\n        /* \"Documents/GitHub/contract-token-cryptoMonster/backend/components/CryptoMonster.sol\":13241:13253  return false */\n      jump(tag_95)\n        /* \"Documents/GitHub/contract-token-cryptoMonster/backend/components/CryptoMonster.sol\":3447:4307  function buy(uint256 _amount) external payable {\r... */\n    tag_86:\n        /* \"Documents/GitHub/contract-token-cryptoMonster/backend/components/CryptoMonster.sol\":3680:3691  tokenPrice_ */\n      sload(0x08)\n        /* \"Documents/GitHub/contract-token-cryptoMonster/backend/components/CryptoMonster.sol\":3670:3691  _amount * tokenPrice_ */\n      tag_251\n      swap1\n        /* \"Documents/GitHub/contract-token-cryptoMonster/backend/components/CryptoMonster.sol\":3670:3677  _amount */\n      dup3\n        /* \"Documents/GitHub/contract-token-cryptoMonster/backend/components/CryptoMonster.sol\":3670:3691  _amount * tokenPrice_ */\n      tag_252\n      jump\t// in\n    tag_251:\n        /* \"Documents/GitHub/contract-token-cryptoMonster/backend/components/CryptoMonster.sol\":3657:3666  msg.value */\n      callvalue\n        /* \"Documents/GitHub/contract-token-cryptoMonster/backend/components/CryptoMonster.sol\":3657:3691  msg.value == _amount * tokenPrice_ */\n      eq\n        /* \"Documents/GitHub/contract-token-cryptoMonster/backend/components/CryptoMonster.sol\":3649:3728  require(msg.value == _amount * tokenPrice_, \"Need to send exact amount of wei\") */\n      tag_253\n      jumpi\n      mload(0x40)\n      shl(0xe5, 0x461bcd)\n      dup2\n      mstore\n        /* \"#utility.yul\":5004:5006   */\n      0x20\n        /* \"Documents/GitHub/contract-token-cryptoMonster/backend/components/CryptoMonster.sol\":3649:3728  require(msg.value == _amount * tokenPrice_, \"Need to send exact amount of wei\") */\n      0x04\n      dup3\n      add\n        /* \"#utility.yul\":4986:5007   */\n      dup2\n      swap1\n      mstore\n        /* \"#utility.yul\":5023:5041   */\n      0x24\n      dup3\n      add\n        /* \"#utility.yul\":5016:5046   */\n      mstore\n        /* \"#utility.yul\":5082:5116   */\n      0x4e65656420746f2073656e6420657861637420616d6f756e74206f6620776569\n        /* \"#utility.yul\":5062:5080   */\n      0x44\n      dup3\n      add\n        /* \"#utility.yul\":5055:5117   */\n      mstore\n        /* \"#utility.yul\":5134:5152   */\n      0x64\n      add\n        /* \"Documents/GitHub/contract-token-cryptoMonster/backend/components/CryptoMonster.sol\":3649:3728  require(msg.value == _amount * tokenPrice_, \"Need to send exact amount of wei\") */\n      tag_165\n        /* \"#utility.yul\":4802:5158   */\n      jump\n        /* \"Documents/GitHub/contract-token-cryptoMonster/backend/components/CryptoMonster.sol\":3649:3728  require(msg.value == _amount * tokenPrice_, \"Need to send exact amount of wei\") */\n    tag_253:\n        /* \"Documents/GitHub/contract-token-cryptoMonster/backend/components/CryptoMonster.sol\":1578:1620  0xAb8483F64d9C6d1EcF9b849Ae677dD3315835cb2 */\n      0xab8483f64d9c6d1ecf9b849ae677dd3315835cb2\n        /* \"Documents/GitHub/contract-token-cryptoMonster/backend/components/CryptoMonster.sol\":3747:3780  structPhases_[privateProviderAdr] */\n      0x00\n      mstore\n        /* \"Documents/GitHub/contract-token-cryptoMonster/backend/components/CryptoMonster.sol\":3747:3760  structPhases_ */\n      0x01\n        /* \"Documents/GitHub/contract-token-cryptoMonster/backend/components/CryptoMonster.sol\":3747:3780  structPhases_[privateProviderAdr] */\n      0x20\n      mstore\n      0x9d4d959825f0680278e64197773b2a50cd78b2b2cb00711ddbeebf0bf93cd8a4\n        /* \"Documents/GitHub/contract-token-cryptoMonster/backend/components/CryptoMonster.sol\":3747:3792  structPhases_[privateProviderAdr].statusPhase */\n      sload\n      0xff\n      and\n        /* \"Documents/GitHub/contract-token-cryptoMonster/backend/components/CryptoMonster.sol\":3747:3801  structPhases_[privateProviderAdr].statusPhase == false */\n      iszero\n      dup1\n      iszero\n        /* \"Documents/GitHub/contract-token-cryptoMonster/backend/components/CryptoMonster.sol\":3747:3858  structPhases_[privateProviderAdr].statusPhase == false && structPhases_[publicProviderAdr].statusPhase == false */\n      tag_256\n      jumpi\n      pop\n        /* \"Documents/GitHub/contract-token-cryptoMonster/backend/components/CryptoMonster.sol\":1694:1736  0xAb8483F64d9C6d1EcF9b849Ae677dD3315835cb2 */\n      0xab8483f64d9c6d1ecf9b849ae677dd3315835cb2\n        /* \"Documents/GitHub/contract-token-cryptoMonster/backend/components/CryptoMonster.sol\":3805:3837  structPhases_[publicProviderAdr] */\n      0x00\n      mstore\n        /* \"Documents/GitHub/contract-token-cryptoMonster/backend/components/CryptoMonster.sol\":3805:3818  structPhases_ */\n      0x01\n        /* \"Documents/GitHub/contract-token-cryptoMonster/backend/components/CryptoMonster.sol\":3805:3837  structPhases_[publicProviderAdr] */\n      0x20\n      mstore\n      0x9d4d959825f0680278e64197773b2a50cd78b2b2cb00711ddbeebf0bf93cd8a4\n        /* \"Documents/GitHub/contract-token-cryptoMonster/backend/components/CryptoMonster.sol\":3805:3849  structPhases_[publicProviderAdr].statusPhase */\n      sload\n      0xff\n      and\n        /* \"Documents/GitHub/contract-token-cryptoMonster/backend/components/CryptoMonster.sol\":3805:3858  structPhases_[publicProviderAdr].statusPhase == false */\n      iszero\n        /* \"Documents/GitHub/contract-token-cryptoMonster/backend/components/CryptoMonster.sol\":3747:3858  structPhases_[privateProviderAdr].statusPhase == false && structPhases_[publicProviderAdr].statusPhase == false */\n    tag_256:\n        /* \"Documents/GitHub/contract-token-cryptoMonster/backend/components/CryptoMonster.sol\":3739:3922  require(structPhases_[privateProviderAdr].statusPhase == false && structPhases_[publicProviderAdr].statusPhase == false, \"During the seed phase, the transfer of tokens is prohibited\") */\n      tag_257\n      jumpi\n      mload(0x40)\n      shl(0xe5, 0x461bcd)\n      dup2\n      mstore\n        /* \"#utility.yul\":5365:5367   */\n      0x20\n        /* \"Documents/GitHub/contract-token-cryptoMonster/backend/components/CryptoMonster.sol\":3739:3922  require(structPhases_[privateProviderAdr].statusPhase == false && structPhases_[publicProviderAdr].statusPhase == false, \"During the seed phase, the transfer of tokens is prohibited\") */\n      0x04\n      dup3\n      add\n        /* \"#utility.yul\":5347:5368   */\n      mstore\n        /* \"#utility.yul\":5404:5406   */\n      0x3b\n        /* \"#utility.yul\":5384:5402   */\n      0x24\n      dup3\n      add\n        /* \"#utility.yul\":5377:5407   */\n      mstore\n        /* \"#utility.yul\":5443:5477   */\n      0x447572696e672074686520736565642070686173652c20746865207472616e73\n        /* \"#utility.yul\":5423:5441   */\n      0x44\n      dup3\n      add\n        /* \"#utility.yul\":5416:5478   */\n      mstore\n        /* \"#utility.yul\":5514:5543   */\n      0x666572206f6620746f6b656e732069732070726f686962697465640000000000\n        /* \"#utility.yul\":5494:5512   */\n      0x64\n      dup3\n      add\n        /* \"#utility.yul\":5487:5544   */\n      mstore\n        /* \"#utility.yul\":5561:5580   */\n      0x84\n      add\n        /* \"Documents/GitHub/contract-token-cryptoMonster/backend/components/CryptoMonster.sol\":3739:3922  require(structPhases_[privateProviderAdr].statusPhase == false && structPhases_[publicProviderAdr].statusPhase == false, \"During the seed phase, the transfer of tokens is prohibited\") */\n      tag_165\n        /* \"#utility.yul\":5163:5586   */\n      jump\n        /* \"Documents/GitHub/contract-token-cryptoMonster/backend/components/CryptoMonster.sol\":3739:3922  require(structPhases_[privateProviderAdr].statusPhase == false && structPhases_[publicProviderAdr].statusPhase == false, \"During the seed phase, the transfer of tokens is prohibited\") */\n    tag_257:\n        /* \"Documents/GitHub/contract-token-cryptoMonster/backend/components/CryptoMonster.sol\":1578:1620  0xAb8483F64d9C6d1EcF9b849Ae677dD3315835cb2 */\n      0xab8483f64d9c6d1ecf9b849ae677dd3315835cb2\n        /* \"Documents/GitHub/contract-token-cryptoMonster/backend/components/CryptoMonster.sol\":3937:3970  structPhases_[privateProviderAdr] */\n      0x00\n      mstore\n        /* \"Documents/GitHub/contract-token-cryptoMonster/backend/components/CryptoMonster.sol\":3937:3950  structPhases_ */\n      0x01\n        /* \"Documents/GitHub/contract-token-cryptoMonster/backend/components/CryptoMonster.sol\":3937:3970  structPhases_[privateProviderAdr] */\n      0x20\n      dup2\n      swap1\n      mstore\n      0x9d4d959825f0680278e64197773b2a50cd78b2b2cb00711ddbeebf0bf93cd8a4\n        /* \"Documents/GitHub/contract-token-cryptoMonster/backend/components/CryptoMonster.sol\":3937:3982  structPhases_[privateProviderAdr].statusPhase */\n      sload\n      0xff\n      and\n        /* \"Documents/GitHub/contract-token-cryptoMonster/backend/components/CryptoMonster.sol\":3937:3990  structPhases_[privateProviderAdr].statusPhase == true */\n      iszero\n      iszero\n      eq\n        /* \"Documents/GitHub/contract-token-cryptoMonster/backend/components/CryptoMonster.sol\":3933:4300  if (structPhases_[privateProviderAdr].statusPhase == true) {\r... */\n      iszero\n      tag_260\n      jumpi\n        /* \"Documents/GitHub/contract-token-cryptoMonster/backend/components/CryptoMonster.sol\":4063:4073  msg.sender */\n      caller\n        /* \"Documents/GitHub/contract-token-cryptoMonster/backend/components/CryptoMonster.sol\":4050:4062  structUsers_ */\n      0x00\n        /* \"Documents/GitHub/contract-token-cryptoMonster/backend/components/CryptoMonster.sol\":4050:4074  structUsers_[msg.sender] */\n      swap1\n      dup2\n      mstore\n      0x20\n      dup2\n      swap1\n      mstore\n      0x40\n      swap1\n      keccak256\n        /* \"Documents/GitHub/contract-token-cryptoMonster/backend/components/CryptoMonster.sol\":4050:4090  structUsers_[msg.sender].balance_private */\n      0x05\n      add\n      sload\n        /* \"Documents/GitHub/contract-token-cryptoMonster/backend/components/CryptoMonster.sol\":4050:4103  structUsers_[msg.sender].balance_private.add(_amount) */\n      tag_261\n      swap1\n        /* \"Documents/GitHub/contract-token-cryptoMonster/backend/components/CryptoMonster.sol\":4095:4102  _amount */\n      dup3\n        /* \"Documents/GitHub/contract-token-cryptoMonster/backend/components/CryptoMonster.sol\":4050:4094  structUsers_[msg.sender].balance_private.add */\n      tag_94\n        /* \"Documents/GitHub/contract-token-cryptoMonster/backend/components/CryptoMonster.sol\":4050:4103  structUsers_[msg.sender].balance_private.add(_amount) */\n      jump\t// in\n    tag_261:\n        /* \"Documents/GitHub/contract-token-cryptoMonster/backend/components/CryptoMonster.sol\":4020:4030  msg.sender */\n      caller\n        /* \"Documents/GitHub/contract-token-cryptoMonster/backend/components/CryptoMonster.sol\":4007:4019  structUsers_ */\n      0x00\n        /* \"Documents/GitHub/contract-token-cryptoMonster/backend/components/CryptoMonster.sol\":4007:4031  structUsers_[msg.sender] */\n      swap1\n      dup2\n      mstore\n      0x20\n      dup2\n      swap1\n      mstore\n      0x40\n      swap1\n      keccak256\n        /* \"Documents/GitHub/contract-token-cryptoMonster/backend/components/CryptoMonster.sol\":4007:4047  structUsers_[msg.sender].balance_private */\n      0x05\n      add\n        /* \"Documents/GitHub/contract-token-cryptoMonster/backend/components/CryptoMonster.sol\":4007:4103  structUsers_[msg.sender].balance_private = structUsers_[msg.sender].balance_private.add(_amount) */\n      sstore\n        /* \"Documents/GitHub/contract-token-cryptoMonster/backend/components/PhasePrivate.sol\":727:899  function acceptApplication (bool _changeStatus) public {\r... */\n      pop\n      jump\t// out\n        /* \"Documents/GitHub/contract-token-cryptoMonster/backend/components/CryptoMonster.sol\":3933:4300  if (structPhases_[privateProviderAdr].statusPhase == true) {\r... */\n    tag_260:\n        /* \"Documents/GitHub/contract-token-cryptoMonster/backend/components/CryptoMonster.sol\":1694:1736  0xAb8483F64d9C6d1EcF9b849Ae677dD3315835cb2 */\n      0xab8483f64d9c6d1ecf9b849ae677dd3315835cb2\n        /* \"Documents/GitHub/contract-token-cryptoMonster/backend/components/CryptoMonster.sol\":4125:4157  structPhases_[publicProviderAdr] */\n      0x00\n      mstore\n        /* \"Documents/GitHub/contract-token-cryptoMonster/backend/components/CryptoMonster.sol\":4125:4138  structPhases_ */\n      0x01\n        /* \"Documents/GitHub/contract-token-cryptoMonster/backend/components/CryptoMonster.sol\":4125:4157  structPhases_[publicProviderAdr] */\n      0x20\n      dup2\n      swap1\n      mstore\n      0x9d4d959825f0680278e64197773b2a50cd78b2b2cb00711ddbeebf0bf93cd8a4\n        /* \"Documents/GitHub/contract-token-cryptoMonster/backend/components/CryptoMonster.sol\":4125:4169  structPhases_[publicProviderAdr].statusPhase */\n      sload\n      0xff\n      and\n        /* \"Documents/GitHub/contract-token-cryptoMonster/backend/components/CryptoMonster.sol\":4125:4177  structPhases_[publicProviderAdr].statusPhase == true */\n      iszero\n      iszero\n      eq\n        /* \"Documents/GitHub/contract-token-cryptoMonster/backend/components/CryptoMonster.sol\":4121:4300  if (structPhases_[publicProviderAdr].statusPhase == true) {\r... */\n      iszero\n      tag_179\n      jumpi\n        /* \"Documents/GitHub/contract-token-cryptoMonster/backend/components/CryptoMonster.sol\":4249:4259  msg.sender */\n      caller\n        /* \"Documents/GitHub/contract-token-cryptoMonster/backend/components/CryptoMonster.sol\":4236:4248  structUsers_ */\n      0x00\n        /* \"Documents/GitHub/contract-token-cryptoMonster/backend/components/CryptoMonster.sol\":4236:4260  structUsers_[msg.sender] */\n      swap1\n      dup2\n      mstore\n      0x20\n      dup2\n      swap1\n      mstore\n      0x40\n      swap1\n      keccak256\n        /* \"Documents/GitHub/contract-token-cryptoMonster/backend/components/CryptoMonster.sol\":4236:4275  structUsers_[msg.sender].balance_public */\n      0x06\n      add\n      sload\n        /* \"Documents/GitHub/contract-token-cryptoMonster/backend/components/CryptoMonster.sol\":4236:4288  structUsers_[msg.sender].balance_public.add(_amount) */\n      tag_264\n      swap1\n        /* \"Documents/GitHub/contract-token-cryptoMonster/backend/components/CryptoMonster.sol\":4280:4287  _amount */\n      dup3\n        /* \"Documents/GitHub/contract-token-cryptoMonster/backend/components/CryptoMonster.sol\":4236:4279  structUsers_[msg.sender].balance_public.add */\n      tag_94\n        /* \"Documents/GitHub/contract-token-cryptoMonster/backend/components/CryptoMonster.sol\":4236:4288  structUsers_[msg.sender].balance_public.add(_amount) */\n      jump\t// in\n    tag_264:\n        /* \"Documents/GitHub/contract-token-cryptoMonster/backend/components/CryptoMonster.sol\":4207:4217  msg.sender */\n      caller\n        /* \"Documents/GitHub/contract-token-cryptoMonster/backend/components/CryptoMonster.sol\":4194:4206  structUsers_ */\n      0x00\n        /* \"Documents/GitHub/contract-token-cryptoMonster/backend/components/CryptoMonster.sol\":4194:4218  structUsers_[msg.sender] */\n      swap1\n      dup2\n      mstore\n      0x20\n      dup2\n      swap1\n      mstore\n      0x40\n      swap1\n      keccak256\n        /* \"Documents/GitHub/contract-token-cryptoMonster/backend/components/CryptoMonster.sol\":4194:4233  structUsers_[msg.sender].balance_public */\n      0x06\n      add\n        /* \"Documents/GitHub/contract-token-cryptoMonster/backend/components/CryptoMonster.sol\":4194:4288  structUsers_[msg.sender].balance_public = structUsers_[msg.sender].balance_public.add(_amount) */\n      sstore\n        /* \"Documents/GitHub/contract-token-cryptoMonster/backend/components/CryptoMonster.sol\":3447:4307  function buy(uint256 _amount) external payable {\r... */\n      pop\n      jump\t// out\n        /* \"Documents/GitHub/contract-token-cryptoMonster/backend/shared/lib/SafeMath.sol\":2846:2965  function sub(uint256 a, uint256 b) internal pure returns (uint256) {\r... */\n    tag_93:\n        /* \"Documents/GitHub/contract-token-cryptoMonster/backend/shared/lib/SafeMath.sol\":2904:2911  uint256 */\n      0x00\n        /* \"Documents/GitHub/contract-token-cryptoMonster/backend/shared/lib/SafeMath.sol\":2934:2935  a */\n      dup3\n        /* \"Documents/GitHub/contract-token-cryptoMonster/backend/shared/lib/SafeMath.sol\":2929:2930  b */\n      dup3\n        /* \"Documents/GitHub/contract-token-cryptoMonster/backend/shared/lib/SafeMath.sol\":2929:2935  b <= a */\n      gt\n      iszero\n        /* \"Documents/GitHub/contract-token-cryptoMonster/backend/shared/lib/SafeMath.sol\":2922:2936  assert(b <= a) */\n      tag_268\n      jumpi\n      tag_268\n      tag_269\n      jump\t// in\n    tag_268:\n        /* \"Documents/GitHub/contract-token-cryptoMonster/backend/shared/lib/SafeMath.sol\":2952:2957  a - b */\n      tag_154\n        /* \"Documents/GitHub/contract-token-cryptoMonster/backend/shared/lib/SafeMath.sol\":2956:2957  b */\n      dup3\n        /* \"Documents/GitHub/contract-token-cryptoMonster/backend/shared/lib/SafeMath.sol\":2952:2953  a */\n      dup5\n        /* \"Documents/GitHub/contract-token-cryptoMonster/backend/shared/lib/SafeMath.sol\":2952:2957  a - b */\n      tag_271\n      jump\t// in\n        /* \"Documents/GitHub/contract-token-cryptoMonster/backend/shared/lib/SafeMath.sol\":2422:2563  function add(uint256 a, uint256 b) internal pure returns (uint256) {\r... */\n    tag_94:\n        /* \"Documents/GitHub/contract-token-cryptoMonster/backend/shared/lib/SafeMath.sol\":2480:2487  uint256 */\n      0x00\n      dup1\n        /* \"Documents/GitHub/contract-token-cryptoMonster/backend/shared/lib/SafeMath.sol\":2510:2515  a + b */\n      tag_273\n        /* \"Documents/GitHub/contract-token-cryptoMonster/backend/shared/lib/SafeMath.sol\":2514:2515  b */\n      dup4\n        /* \"Documents/GitHub/contract-token-cryptoMonster/backend/shared/lib/SafeMath.sol\":2510:2511  a */\n      dup6\n        /* \"Documents/GitHub/contract-token-cryptoMonster/backend/shared/lib/SafeMath.sol\":2510:2515  a + b */\n      tag_274\n      jump\t// in\n    tag_273:\n        /* \"Documents/GitHub/contract-token-cryptoMonster/backend/shared/lib/SafeMath.sol\":2498:2515  uint256 c = a + b */\n      swap1\n      pop\n        /* \"Documents/GitHub/contract-token-cryptoMonster/backend/shared/lib/SafeMath.sol\":2536:2537  a */\n      dup4\n        /* \"Documents/GitHub/contract-token-cryptoMonster/backend/shared/lib/SafeMath.sol\":2531:2532  c */\n      dup2\n        /* \"Documents/GitHub/contract-token-cryptoMonster/backend/shared/lib/SafeMath.sol\":2531:2537  c >= a */\n      lt\n      iszero\n        /* \"Documents/GitHub/contract-token-cryptoMonster/backend/shared/lib/SafeMath.sol\":2524:2538  assert(c >= a) */\n      tag_154\n      jumpi\n      tag_154\n      tag_269\n      jump\t// in\n        /* \"Documents/GitHub/contract-token-cryptoMonster/backend/shared/helpers/validateFuncs.sol\":771:1971  function validatePhase(string memory _type, address _providerPrivate, address _providerPublic) internal view returns (bool) {\r... */\n    tag_100:\n        /* \"Documents/GitHub/contract-token-cryptoMonster/backend/shared/helpers/validateFuncs.sol\":889:893  bool */\n      0x00\n        /* \"Documents/GitHub/contract-token-cryptoMonster/backend/shared/helpers/validateFuncs.sol\":934:955  get_keccak256(\"seed\") */\n      tag_278\n      mload(0x40)\n      dup1\n      0x40\n      add\n      0x40\n      mstore\n      dup1\n      0x04\n      dup2\n      mstore\n      0x20\n      add\n      shl(0xe2, 0x1cd95959)\n      dup2\n      mstore\n      pop\n        /* \"Documents/GitHub/contract-token-cryptoMonster/backend/shared/helpers/validateFuncs.sol\":934:947  get_keccak256 */\n      tag_66\n        /* \"Documents/GitHub/contract-token-cryptoMonster/backend/shared/helpers/validateFuncs.sol\":934:955  get_keccak256(\"seed\") */\n      jump\t// in\n    tag_278:\n        /* \"Documents/GitHub/contract-token-cryptoMonster/backend/shared/helpers/validateFuncs.sol\":910:930  get_keccak256(_type) */\n      tag_279\n        /* \"Documents/GitHub/contract-token-cryptoMonster/backend/shared/helpers/validateFuncs.sol\":924:929  _type */\n      dup6\n        /* \"Documents/GitHub/contract-token-cryptoMonster/backend/shared/helpers/validateFuncs.sol\":910:923  get_keccak256 */\n      tag_66\n        /* \"Documents/GitHub/contract-token-cryptoMonster/backend/shared/helpers/validateFuncs.sol\":910:930  get_keccak256(_type) */\n      jump\t// in\n    tag_279:\n        /* \"Documents/GitHub/contract-token-cryptoMonster/backend/shared/helpers/validateFuncs.sol\":910:955  get_keccak256(_type) == get_keccak256(\"seed\") */\n      eq\n        /* \"Documents/GitHub/contract-token-cryptoMonster/backend/shared/helpers/validateFuncs.sol\":906:1964  if (get_keccak256(_type) == get_keccak256(\"seed\")) {\r... */\n      iszero\n      tag_280\n      jumpi\n      sub(shl(0xa0, 0x01), 0x01)\n        /* \"Documents/GitHub/contract-token-cryptoMonster/backend/shared/helpers/validateFuncs.sol\":976:1007  structPhases_[_providerPrivate] */\n      dup4\n      and\n      0x00\n      swap1\n      dup2\n      mstore\n        /* \"Documents/GitHub/contract-token-cryptoMonster/backend/shared/helpers/validateFuncs.sol\":976:989  structPhases_ */\n      0x01\n        /* \"Documents/GitHub/contract-token-cryptoMonster/backend/shared/helpers/validateFuncs.sol\":976:1007  structPhases_[_providerPrivate] */\n      0x20\n      mstore\n      0x40\n      swap1\n      keccak256\n        /* \"Documents/GitHub/contract-token-cryptoMonster/backend/shared/helpers/validateFuncs.sol\":976:1019  structPhases_[_providerPrivate].statusPhase */\n      sload\n      0xff\n      and\n        /* \"Documents/GitHub/contract-token-cryptoMonster/backend/shared/helpers/validateFuncs.sol\":976:1028  structPhases_[_providerPrivate].statusPhase == false */\n      iszero\n      dup1\n      iszero\n        /* \"Documents/GitHub/contract-token-cryptoMonster/backend/shared/helpers/validateFuncs.sol\":976:1083  structPhases_[_providerPrivate].statusPhase == false && structPhases_[_providerPublic].statusPhase == false */\n      tag_281\n      jumpi\n      pop\n      sub(shl(0xa0, 0x01), 0x01)\n        /* \"Documents/GitHub/contract-token-cryptoMonster/backend/shared/helpers/validateFuncs.sol\":1032:1062  structPhases_[_providerPublic] */\n      dup3\n      and\n      0x00\n      swap1\n      dup2\n      mstore\n        /* \"Documents/GitHub/contract-token-cryptoMonster/backend/shared/helpers/validateFuncs.sol\":1032:1045  structPhases_ */\n      0x01\n        /* \"Documents/GitHub/contract-token-cryptoMonster/backend/shared/helpers/validateFuncs.sol\":1032:1062  structPhases_[_providerPublic] */\n      0x20\n      mstore\n      0x40\n      swap1\n      keccak256\n        /* \"Documents/GitHub/contract-token-cryptoMonster/backend/shared/helpers/validateFuncs.sol\":1032:1074  structPhases_[_providerPublic].statusPhase */\n      sload\n      0xff\n      and\n        /* \"Documents/GitHub/contract-token-cryptoMonster/backend/shared/helpers/validateFuncs.sol\":1032:1083  structPhases_[_providerPublic].statusPhase == false */\n      iszero\n        /* \"Documents/GitHub/contract-token-cryptoMonster/backend/shared/helpers/validateFuncs.sol\":976:1083  structPhases_[_providerPrivate].statusPhase == false && structPhases_[_providerPublic].statusPhase == false */\n    tag_281:\n        /* \"Documents/GitHub/contract-token-cryptoMonster/backend/shared/helpers/validateFuncs.sol\":972:1111  if (structPhases_[_providerPrivate].statusPhase == false && structPhases_[_providerPublic].statusPhase == false ) \r... */\n      iszero\n      tag_138\n      jumpi\n      pop\n        /* \"Documents/GitHub/contract-token-cryptoMonster/backend/shared/helpers/validateFuncs.sol\":1107:1111  true */\n      0x01\n        /* \"Documents/GitHub/contract-token-cryptoMonster/backend/shared/helpers/validateFuncs.sol\":1100:1111  return true */\n      jump(tag_154)\n        /* \"Documents/GitHub/contract-token-cryptoMonster/backend/shared/helpers/validateFuncs.sol\":906:1964  if (get_keccak256(_type) == get_keccak256(\"seed\")) {\r... */\n    tag_280:\n        /* \"Documents/GitHub/contract-token-cryptoMonster/backend/shared/helpers/validateFuncs.sol\":1292:1316  get_keccak256(\"private\") */\n      tag_284\n      mload(0x40)\n      dup1\n      0x40\n      add\n      0x40\n      mstore\n      dup1\n      0x07\n      dup2\n      mstore\n      0x20\n      add\n      shl(0xc8, 0x70726976617465)\n      dup2\n      mstore\n      pop\n        /* \"Documents/GitHub/contract-token-cryptoMonster/backend/shared/helpers/validateFuncs.sol\":1292:1305  get_keccak256 */\n      tag_66\n        /* \"Documents/GitHub/contract-token-cryptoMonster/backend/shared/helpers/validateFuncs.sol\":1292:1316  get_keccak256(\"private\") */\n      jump\t// in\n    tag_284:\n        /* \"Documents/GitHub/contract-token-cryptoMonster/backend/shared/helpers/validateFuncs.sol\":1268:1288  get_keccak256(_type) */\n      tag_285\n        /* \"Documents/GitHub/contract-token-cryptoMonster/backend/shared/helpers/validateFuncs.sol\":1282:1287  _type */\n      dup6\n        /* \"Documents/GitHub/contract-token-cryptoMonster/backend/shared/helpers/validateFuncs.sol\":1268:1281  get_keccak256 */\n      tag_66\n        /* \"Documents/GitHub/contract-token-cryptoMonster/backend/shared/helpers/validateFuncs.sol\":1268:1288  get_keccak256(_type) */\n      jump\t// in\n    tag_285:\n        /* \"Documents/GitHub/contract-token-cryptoMonster/backend/shared/helpers/validateFuncs.sol\":1268:1316  get_keccak256(_type) == get_keccak256(\"private\") */\n      eq\n        /* \"Documents/GitHub/contract-token-cryptoMonster/backend/shared/helpers/validateFuncs.sol\":1264:1964  if (get_keccak256(_type) == get_keccak256(\"private\")) {\r... */\n      iszero\n      tag_286\n      jumpi\n      sub(shl(0xa0, 0x01), 0x01)\n        /* \"Documents/GitHub/contract-token-cryptoMonster/backend/shared/helpers/validateFuncs.sol\":1337:1368  structPhases_[_providerPrivate] */\n      dup4\n      and\n      0x00\n      swap1\n      dup2\n      mstore\n        /* \"Documents/GitHub/contract-token-cryptoMonster/backend/shared/helpers/validateFuncs.sol\":1337:1350  structPhases_ */\n      0x01\n        /* \"Documents/GitHub/contract-token-cryptoMonster/backend/shared/helpers/validateFuncs.sol\":1337:1368  structPhases_[_providerPrivate] */\n      0x20\n      dup2\n      swap1\n      mstore\n      0x40\n      swap1\n      swap2\n      keccak256\n        /* \"Documents/GitHub/contract-token-cryptoMonster/backend/shared/helpers/validateFuncs.sol\":1337:1380  structPhases_[_providerPrivate].statusPhase */\n      sload\n      0xff\n      and\n        /* \"Documents/GitHub/contract-token-cryptoMonster/backend/shared/helpers/validateFuncs.sol\":1337:1388  structPhases_[_providerPrivate].statusPhase == true */\n      iszero\n      iszero\n      eq\n        /* \"Documents/GitHub/contract-token-cryptoMonster/backend/shared/helpers/validateFuncs.sol\":1333:1415  if (structPhases_[_providerPrivate].statusPhase == true) \r... */\n      iszero\n      tag_138\n      jumpi\n      pop\n        /* \"Documents/GitHub/contract-token-cryptoMonster/backend/shared/helpers/validateFuncs.sol\":1411:1415  true */\n      0x01\n        /* \"Documents/GitHub/contract-token-cryptoMonster/backend/shared/helpers/validateFuncs.sol\":1404:1415  return true */\n      jump(tag_154)\n        /* \"Documents/GitHub/contract-token-cryptoMonster/backend/shared/helpers/validateFuncs.sol\":1264:1964  if (get_keccak256(_type) == get_keccak256(\"private\")) {\r... */\n    tag_286:\n        /* \"Documents/GitHub/contract-token-cryptoMonster/backend/shared/helpers/validateFuncs.sol\":1596:1619  get_keccak256(\"public\") */\n      tag_289\n      mload(0x40)\n      dup1\n      0x40\n      add\n      0x40\n      mstore\n      dup1\n      0x06\n      dup2\n      mstore\n      0x20\n      add\n      shl(0xd0, 0x7075626c6963)\n      dup2\n      mstore\n      pop\n        /* \"Documents/GitHub/contract-token-cryptoMonster/backend/shared/helpers/validateFuncs.sol\":1596:1609  get_keccak256 */\n      tag_66\n        /* \"Documents/GitHub/contract-token-cryptoMonster/backend/shared/helpers/validateFuncs.sol\":1596:1619  get_keccak256(\"public\") */\n      jump\t// in\n    tag_289:\n        /* \"Documents/GitHub/contract-token-cryptoMonster/backend/shared/helpers/validateFuncs.sol\":1572:1592  get_keccak256(_type) */\n      tag_290\n        /* \"Documents/GitHub/contract-token-cryptoMonster/backend/shared/helpers/validateFuncs.sol\":1586:1591  _type */\n      dup6\n        /* \"Documents/GitHub/contract-token-cryptoMonster/backend/shared/helpers/validateFuncs.sol\":1572:1585  get_keccak256 */\n      tag_66\n        /* \"Documents/GitHub/contract-token-cryptoMonster/backend/shared/helpers/validateFuncs.sol\":1572:1592  get_keccak256(_type) */\n      jump\t// in\n    tag_290:\n        /* \"Documents/GitHub/contract-token-cryptoMonster/backend/shared/helpers/validateFuncs.sol\":1572:1619  get_keccak256(_type) == get_keccak256(\"public\") */\n      eq\n        /* \"Documents/GitHub/contract-token-cryptoMonster/backend/shared/helpers/validateFuncs.sol\":1568:1964  if (get_keccak256(_type) == get_keccak256(\"public\")) {\r... */\n      iszero\n      tag_138\n      jumpi\n      sub(shl(0xa0, 0x01), 0x01)\n        /* \"Documents/GitHub/contract-token-cryptoMonster/backend/shared/helpers/validateFuncs.sol\":1640:1670  structPhases_[_providerPublic] */\n      dup3\n      and\n      0x00\n      swap1\n      dup2\n      mstore\n        /* \"Documents/GitHub/contract-token-cryptoMonster/backend/shared/helpers/validateFuncs.sol\":1640:1653  structPhases_ */\n      0x01\n        /* \"Documents/GitHub/contract-token-cryptoMonster/backend/shared/helpers/validateFuncs.sol\":1640:1670  structPhases_[_providerPublic] */\n      0x20\n      dup2\n      swap1\n      mstore\n      0x40\n      swap1\n      swap2\n      keccak256\n        /* \"Documents/GitHub/contract-token-cryptoMonster/backend/shared/helpers/validateFuncs.sol\":1640:1682  structPhases_[_providerPublic].statusPhase */\n      sload\n      0xff\n      and\n        /* \"Documents/GitHub/contract-token-cryptoMonster/backend/shared/helpers/validateFuncs.sol\":1640:1690  structPhases_[_providerPublic].statusPhase == true */\n      iszero\n      iszero\n      eq\n        /* \"Documents/GitHub/contract-token-cryptoMonster/backend/shared/helpers/validateFuncs.sol\":1636:1716  if (structPhases_[_providerPublic].statusPhase == true)\r... */\n      iszero\n      tag_138\n      jumpi\n      pop\n        /* \"Documents/GitHub/contract-token-cryptoMonster/backend/shared/helpers/validateFuncs.sol\":1712:1716  true */\n      0x01\n        /* \"Documents/GitHub/contract-token-cryptoMonster/backend/shared/helpers/validateFuncs.sol\":1705:1716  return true */\n      jump(tag_154)\n        /* \"Documents/GitHub/contract-token-cryptoMonster/backend/shared/helpers/validateFuncs.sol\":405:693  function validateOwner() internal view returns (bool) {\r... */\n    tag_103:\n        /* \"Documents/GitHub/contract-token-cryptoMonster/backend/shared/helpers/validateFuncs.sol\":453:457  bool */\n      0x00\n      dup1\n        /* \"Documents/GitHub/contract-token-cryptoMonster/backend/shared/helpers/validateFuncs.sol\":487:497  msg.sender */\n      caller\n        /* \"Documents/GitHub/contract-token-cryptoMonster/backend/shared/helpers/validateFuncs.sol\":474:486  structUsers_ */\n      0x00\n        /* \"Documents/GitHub/contract-token-cryptoMonster/backend/shared/helpers/validateFuncs.sol\":474:498  structUsers_[msg.sender] */\n      swap1\n      dup2\n      mstore\n      0x20\n      dup2\n      swap1\n      mstore\n      0x40\n      swap1\n      keccak256\n        /* \"Documents/GitHub/contract-token-cryptoMonster/backend/shared/helpers/validateFuncs.sol\":474:503  structUsers_[msg.sender].role */\n      sload\n      0xff\n      and\n        /* \"Documents/GitHub/contract-token-cryptoMonster/backend/shared/helpers/validateFuncs.sol\":474:524  structUsers_[msg.sender].role == Role.SYSTEM_OWNER */\n      0x04\n      dup2\n      gt\n      iszero\n      tag_298\n      jumpi\n      tag_298\n      tag_176\n      jump\t// in\n    tag_298:\n      eq\n        /* \"Documents/GitHub/contract-token-cryptoMonster/backend/shared/helpers/validateFuncs.sol\":470:550  if (structUsers_[msg.sender].role == Role.SYSTEM_OWNER)\r... */\n      iszero\n      tag_299\n      jumpi\n      pop\n        /* \"Documents/GitHub/contract-token-cryptoMonster/backend/shared/helpers/validateFuncs.sol\":546:550  true */\n      0x01\n      swap1\n        /* \"Documents/GitHub/contract-token-cryptoMonster/backend/shared/helpers/validateFuncs.sol\":405:693  function validateOwner() internal view returns (bool) {\r... */\n      jump\t// out\n        /* \"Documents/GitHub/contract-token-cryptoMonster/backend/shared/helpers/validateFuncs.sol\":470:550  if (structUsers_[msg.sender].role == Role.SYSTEM_OWNER)\r... */\n    tag_299:\n      pop\n        /* \"Documents/GitHub/contract-token-cryptoMonster/backend/shared/helpers/validateFuncs.sol\":624:629  false */\n      0x00\n      swap1\n        /* \"Documents/GitHub/contract-token-cryptoMonster/backend/shared/helpers/validateFuncs.sol\":405:693  function validateOwner() internal view returns (bool) {\r... */\n      jump\t// out\n    tag_168:\n      dup3\n      dup1\n      sload\n      tag_300\n      swap1\n      tag_301\n      jump\t// in\n    tag_300:\n      swap1\n      0x00\n      mstore\n      keccak256(0x00, 0x20)\n      swap1\n      0x1f\n      add\n      0x20\n      swap1\n      div\n      dup2\n      add\n      swap3\n      dup3\n      tag_303\n      jumpi\n      0x00\n      dup6\n      sstore\n      jump(tag_306)\n    tag_303:\n      dup3\n      0x1f\n      lt\n      tag_304\n      jumpi\n      dup1\n      mload\n      not(0xff)\n      and\n      dup4\n      dup1\n      add\n      or\n      dup6\n      sstore\n      jump(tag_306)\n    tag_304:\n      dup3\n      dup1\n      add\n      0x01\n      add\n      dup6\n      sstore\n      dup3\n      iszero\n      tag_306\n      jumpi\n      swap2\n      dup3\n      add\n    tag_305:\n      dup3\n      dup2\n      gt\n      iszero\n      tag_306\n      jumpi\n      dup3\n      mload\n      dup3\n      sstore\n      swap2\n      0x20\n      add\n      swap2\n      swap1\n      0x01\n      add\n      swap1\n      jump(tag_305)\n    tag_306:\n      pop\n      tag_307\n      swap3\n      swap2\n      pop\n      tag_308\n      jump\t// in\n    tag_307:\n      pop\n      swap1\n      jump\t// out\n    tag_308:\n    tag_309:\n      dup1\n      dup3\n      gt\n      iszero\n      tag_307\n      jumpi\n      0x00\n      dup2\n      sstore\n      0x01\n      add\n      jump(tag_309)\n        /* \"#utility.yul\":14:210   */\n    tag_312:\n        /* \"#utility.yul\":82:102   */\n      dup1\n      calldataload\n      sub(shl(0xa0, 0x01), 0x01)\n        /* \"#utility.yul\":131:185   */\n      dup2\n      and\n        /* \"#utility.yul\":121:186   */\n      dup2\n      eq\n        /* \"#utility.yul\":111:204   */\n      tag_162\n      jumpi\n        /* \"#utility.yul\":200:201   */\n      0x00\n        /* \"#utility.yul\":197:198   */\n      dup1\n        /* \"#utility.yul\":190:202   */\n      revert\n        /* \"#utility.yul\":215:934   */\n    tag_315:\n        /* \"#utility.yul\":258:263   */\n      0x00\n        /* \"#utility.yul\":311:314   */\n      dup3\n        /* \"#utility.yul\":304:308   */\n      0x1f\n        /* \"#utility.yul\":296:302   */\n      dup4\n        /* \"#utility.yul\":292:309   */\n      add\n        /* \"#utility.yul\":288:315   */\n      slt\n        /* \"#utility.yul\":278:333   */\n      tag_317\n      jumpi\n        /* \"#utility.yul\":329:330   */\n      0x00\n        /* \"#utility.yul\":326:327   */\n      dup1\n        /* \"#utility.yul\":319:331   */\n      revert\n        /* \"#utility.yul\":278:333   */\n    tag_317:\n        /* \"#utility.yul\":365:371   */\n      dup2\n        /* \"#utility.yul\":352:372   */\n      calldataload\n        /* \"#utility.yul\":391:409   */\n      0xffffffffffffffff\n        /* \"#utility.yul\":428:430   */\n      dup1\n        /* \"#utility.yul\":424:426   */\n      dup3\n        /* \"#utility.yul\":421:431   */\n      gt\n        /* \"#utility.yul\":418:454   */\n      iszero\n      tag_319\n      jumpi\n        /* \"#utility.yul\":434:452   */\n      tag_319\n      tag_320\n      jump\t// in\n    tag_319:\n        /* \"#utility.yul\":509:511   */\n      0x40\n        /* \"#utility.yul\":503:512   */\n      mload\n        /* \"#utility.yul\":477:479   */\n      0x1f\n        /* \"#utility.yul\":563:576   */\n      dup4\n      add\n      not(0x1f)\n        /* \"#utility.yul\":559:581   */\n      swap1\n      dup2\n      and\n        /* \"#utility.yul\":583:585   */\n      0x3f\n        /* \"#utility.yul\":555:586   */\n      add\n        /* \"#utility.yul\":551:591   */\n      and\n        /* \"#utility.yul\":539:592   */\n      dup2\n      add\n      swap1\n        /* \"#utility.yul\":607:625   */\n      dup3\n      dup3\n      gt\n        /* \"#utility.yul\":627:649   */\n      dup2\n      dup4\n      lt\n        /* \"#utility.yul\":604:650   */\n      or\n        /* \"#utility.yul\":601:673   */\n      iszero\n      tag_322\n      jumpi\n        /* \"#utility.yul\":653:671   */\n      tag_322\n      tag_320\n      jump\t// in\n    tag_322:\n        /* \"#utility.yul\":693:703   */\n      dup2\n        /* \"#utility.yul\":689:691   */\n      0x40\n        /* \"#utility.yul\":682:704   */\n      mstore\n        /* \"#utility.yul\":728:730   */\n      dup4\n        /* \"#utility.yul\":720:726   */\n      dup2\n        /* \"#utility.yul\":713:731   */\n      mstore\n        /* \"#utility.yul\":774:777   */\n      dup7\n        /* \"#utility.yul\":767:771   */\n      0x20\n        /* \"#utility.yul\":762:764   */\n      dup6\n        /* \"#utility.yul\":754:760   */\n      dup9\n        /* \"#utility.yul\":750:765   */\n      add\n        /* \"#utility.yul\":746:772   */\n      add\n        /* \"#utility.yul\":743:778   */\n      gt\n        /* \"#utility.yul\":740:795   */\n      iszero\n      tag_323\n      jumpi\n        /* \"#utility.yul\":791:792   */\n      0x00\n        /* \"#utility.yul\":788:789   */\n      dup1\n        /* \"#utility.yul\":781:793   */\n      revert\n        /* \"#utility.yul\":740:795   */\n    tag_323:\n        /* \"#utility.yul\":855:857   */\n      dup4\n        /* \"#utility.yul\":848:852   */\n      0x20\n        /* \"#utility.yul\":840:846   */\n      dup8\n        /* \"#utility.yul\":836:853   */\n      add\n        /* \"#utility.yul\":829:833   */\n      0x20\n        /* \"#utility.yul\":821:827   */\n      dup4\n        /* \"#utility.yul\":817:834   */\n      add\n        /* \"#utility.yul\":804:858   */\n      calldatacopy\n        /* \"#utility.yul\":902:903   */\n      0x00\n        /* \"#utility.yul\":895:899   */\n      0x20\n        /* \"#utility.yul\":890:892   */\n      dup6\n        /* \"#utility.yul\":882:888   */\n      dup4\n        /* \"#utility.yul\":878:893   */\n      add\n        /* \"#utility.yul\":874:900   */\n      add\n        /* \"#utility.yul\":867:904   */\n      mstore\n        /* \"#utility.yul\":922:928   */\n      dup1\n        /* \"#utility.yul\":913:928   */\n      swap5\n      pop\n      pop\n      pop\n      pop\n      pop\n        /* \"#utility.yul\":215:934   */\n      swap3\n      swap2\n      pop\n      pop\n      jump\t// out\n        /* \"#utility.yul\":939:1125   */\n    tag_54:\n        /* \"#utility.yul\":998:1004   */\n      0x00\n        /* \"#utility.yul\":1051:1053   */\n      0x20\n        /* \"#utility.yul\":1039:1048   */\n      dup3\n        /* \"#utility.yul\":1030:1037   */\n      dup5\n        /* \"#utility.yul\":1026:1049   */\n      sub\n        /* \"#utility.yul\":1022:1054   */\n      slt\n        /* \"#utility.yul\":1019:1071   */\n      iszero\n      tag_325\n      jumpi\n        /* \"#utility.yul\":1067:1068   */\n      0x00\n        /* \"#utility.yul\":1064:1065   */\n      dup1\n        /* \"#utility.yul\":1057:1069   */\n      revert\n        /* \"#utility.yul\":1019:1071   */\n    tag_325:\n        /* \"#utility.yul\":1090:1119   */\n      tag_154\n        /* \"#utility.yul\":1109:1118   */\n      dup3\n        /* \"#utility.yul\":1090:1119   */\n      tag_312\n      jump\t// in\n        /* \"#utility.yul\":1130:1390   */\n    tag_90:\n        /* \"#utility.yul\":1198:1204   */\n      0x00\n        /* \"#utility.yul\":1206:1212   */\n      dup1\n        /* \"#utility.yul\":1259:1261   */\n      0x40\n        /* \"#utility.yul\":1247:1256   */\n      dup4\n        /* \"#utility.yul\":1238:1245   */\n      dup6\n        /* \"#utility.yul\":1234:1257   */\n      sub\n        /* \"#utility.yul\":1230:1262   */\n      slt\n        /* \"#utility.yul\":1227:1279   */\n      iszero\n      tag_328\n      jumpi\n        /* \"#utility.yul\":1275:1276   */\n      0x00\n        /* \"#utility.yul\":1272:1273   */\n      dup1\n        /* \"#utility.yul\":1265:1277   */\n      revert\n        /* \"#utility.yul\":1227:1279   */\n    tag_328:\n        /* \"#utility.yul\":1298:1327   */\n      tag_329\n        /* \"#utility.yul\":1317:1326   */\n      dup4\n        /* \"#utility.yul\":1298:1327   */\n      tag_312\n      jump\t// in\n    tag_329:\n        /* \"#utility.yul\":1288:1327   */\n      swap2\n      pop\n        /* \"#utility.yul\":1346:1384   */\n      tag_330\n        /* \"#utility.yul\":1380:1382   */\n      0x20\n        /* \"#utility.yul\":1369:1378   */\n      dup5\n        /* \"#utility.yul\":1365:1383   */\n      add\n        /* \"#utility.yul\":1346:1384   */\n      tag_312\n      jump\t// in\n    tag_330:\n        /* \"#utility.yul\":1336:1384   */\n      swap1\n      pop\n        /* \"#utility.yul\":1130:1390   */\n      swap3\n      pop\n      swap3\n      swap1\n      pop\n      jump\t// out\n        /* \"#utility.yul\":1395:1723   */\n    tag_43:\n        /* \"#utility.yul\":1472:1478   */\n      0x00\n        /* \"#utility.yul\":1480:1486   */\n      dup1\n        /* \"#utility.yul\":1488:1494   */\n      0x00\n        /* \"#utility.yul\":1541:1543   */\n      0x60\n        /* \"#utility.yul\":1529:1538   */\n      dup5\n        /* \"#utility.yul\":1520:1527   */\n      dup7\n        /* \"#utility.yul\":1516:1539   */\n      sub\n        /* \"#utility.yul\":1512:1544   */\n      slt\n        /* \"#utility.yul\":1509:1561   */\n      iszero\n      tag_332\n      jumpi\n        /* \"#utility.yul\":1557:1558   */\n      0x00\n        /* \"#utility.yul\":1554:1555   */\n      dup1\n        /* \"#utility.yul\":1547:1559   */\n      revert\n        /* \"#utility.yul\":1509:1561   */\n    tag_332:\n        /* \"#utility.yul\":1580:1609   */\n      tag_333\n        /* \"#utility.yul\":1599:1608   */\n      dup5\n        /* \"#utility.yul\":1580:1609   */\n      tag_312\n      jump\t// in\n    tag_333:\n        /* \"#utility.yul\":1570:1609   */\n      swap3\n      pop\n        /* \"#utility.yul\":1628:1666   */\n      tag_334\n        /* \"#utility.yul\":1662:1664   */\n      0x20\n        /* \"#utility.yul\":1651:1660   */\n      dup6\n        /* \"#utility.yul\":1647:1665   */\n      add\n        /* \"#utility.yul\":1628:1666   */\n      tag_312\n      jump\t// in\n    tag_334:\n        /* \"#utility.yul\":1618:1666   */\n      swap2\n      pop\n        /* \"#utility.yul\":1713:1715   */\n      0x40\n        /* \"#utility.yul\":1702:1711   */\n      dup5\n        /* \"#utility.yul\":1698:1716   */\n      add\n        /* \"#utility.yul\":1685:1717   */\n      calldataload\n        /* \"#utility.yul\":1675:1717   */\n      swap1\n      pop\n        /* \"#utility.yul\":1395:1723   */\n      swap3\n      pop\n      swap3\n      pop\n      swap3\n      jump\t// out\n        /* \"#utility.yul\":1728:1982   */\n    tag_32:\n        /* \"#utility.yul\":1796:1802   */\n      0x00\n        /* \"#utility.yul\":1804:1810   */\n      dup1\n        /* \"#utility.yul\":1857:1859   */\n      0x40\n        /* \"#utility.yul\":1845:1854   */\n      dup4\n        /* \"#utility.yul\":1836:1843   */\n      dup6\n        /* \"#utility.yul\":1832:1855   */\n      sub\n        /* \"#utility.yul\":1828:1860   */\n      slt\n        /* \"#utility.yul\":1825:1877   */\n      iszero\n      tag_336\n      jumpi\n        /* \"#utility.yul\":1873:1874   */\n      0x00\n        /* \"#utility.yul\":1870:1871   */\n      dup1\n        /* \"#utility.yul\":1863:1875   */\n      revert\n        /* \"#utility.yul\":1825:1877   */\n    tag_336:\n        /* \"#utility.yul\":1896:1925   */\n      tag_337\n        /* \"#utility.yul\":1915:1924   */\n      dup4\n        /* \"#utility.yul\":1896:1925   */\n      tag_312\n      jump\t// in\n    tag_337:\n        /* \"#utility.yul\":1886:1925   */\n      swap5\n        /* \"#utility.yul\":1972:1974   */\n      0x20\n        /* \"#utility.yul\":1957:1975   */\n      swap4\n      swap1\n      swap4\n      add\n        /* \"#utility.yul\":1944:1976   */\n      calldataload\n      swap4\n      pop\n      pop\n      pop\n        /* \"#utility.yul\":1728:1982   */\n      jump\t// out\n        /* \"#utility.yul\":1987:2260   */\n    tag_76:\n        /* \"#utility.yul\":2043:2049   */\n      0x00\n        /* \"#utility.yul\":2096:2098   */\n      0x20\n        /* \"#utility.yul\":2084:2093   */\n      dup3\n        /* \"#utility.yul\":2075:2082   */\n      dup5\n        /* \"#utility.yul\":2071:2094   */\n      sub\n        /* \"#utility.yul\":2067:2099   */\n      slt\n        /* \"#utility.yul\":2064:2116   */\n      iszero\n      tag_339\n      jumpi\n        /* \"#utility.yul\":2112:2113   */\n      0x00\n        /* \"#utility.yul\":2109:2110   */\n      dup1\n        /* \"#utility.yul\":2102:2114   */\n      revert\n        /* \"#utility.yul\":2064:2116   */\n    tag_339:\n        /* \"#utility.yul\":2151:2160   */\n      dup2\n        /* \"#utility.yul\":2138:2161   */\n      calldataload\n        /* \"#utility.yul\":2204:2209   */\n      dup1\n        /* \"#utility.yul\":2197:2210   */\n      iszero\n        /* \"#utility.yul\":2190:2211   */\n      iszero\n        /* \"#utility.yul\":2183:2188   */\n      dup2\n        /* \"#utility.yul\":2180:2212   */\n      eq\n        /* \"#utility.yul\":2170:2230   */\n      tag_154\n      jumpi\n        /* \"#utility.yul\":2226:2227   */\n      0x00\n        /* \"#utility.yul\":2223:2224   */\n      dup1\n        /* \"#utility.yul\":2216:2228   */\n      revert\n        /* \"#utility.yul\":2265:2587   */\n    tag_65:\n        /* \"#utility.yul\":2334:2340   */\n      0x00\n        /* \"#utility.yul\":2387:2389   */\n      0x20\n        /* \"#utility.yul\":2375:2384   */\n      dup3\n        /* \"#utility.yul\":2366:2373   */\n      dup5\n        /* \"#utility.yul\":2362:2385   */\n      sub\n        /* \"#utility.yul\":2358:2390   */\n      slt\n        /* \"#utility.yul\":2355:2407   */\n      iszero\n      tag_342\n      jumpi\n        /* \"#utility.yul\":2403:2404   */\n      0x00\n        /* \"#utility.yul\":2400:2401   */\n      dup1\n        /* \"#utility.yul\":2393:2405   */\n      revert\n        /* \"#utility.yul\":2355:2407   */\n    tag_342:\n        /* \"#utility.yul\":2443:2452   */\n      dup2\n        /* \"#utility.yul\":2430:2453   */\n      calldataload\n        /* \"#utility.yul\":2476:2494   */\n      0xffffffffffffffff\n        /* \"#utility.yul\":2468:2474   */\n      dup2\n        /* \"#utility.yul\":2465:2495   */\n      gt\n        /* \"#utility.yul\":2462:2512   */\n      iszero\n      tag_343\n      jumpi\n        /* \"#utility.yul\":2508:2509   */\n      0x00\n        /* \"#utility.yul\":2505:2506   */\n      dup1\n        /* \"#utility.yul\":2498:2510   */\n      revert\n        /* \"#utility.yul\":2462:2512   */\n    tag_343:\n        /* \"#utility.yul\":2531:2581   */\n      tag_344\n        /* \"#utility.yul\":2573:2580   */\n      dup5\n        /* \"#utility.yul\":2564:2570   */\n      dup3\n        /* \"#utility.yul\":2553:2562   */\n      dup6\n        /* \"#utility.yul\":2549:2571   */\n      add\n        /* \"#utility.yul\":2531:2581   */\n      tag_315\n      jump\t// in\n    tag_344:\n        /* \"#utility.yul\":2521:2581   */\n      swap5\n        /* \"#utility.yul\":2265:2587   */\n      swap4\n      pop\n      pop\n      pop\n      pop\n      jump\t// out\n        /* \"#utility.yul\":2592:3209   */\n    tag_60:\n        /* \"#utility.yul\":2689:2695   */\n      0x00\n        /* \"#utility.yul\":2697:2703   */\n      dup1\n        /* \"#utility.yul\":2705:2711   */\n      0x00\n        /* \"#utility.yul\":2758:2760   */\n      0x60\n        /* \"#utility.yul\":2746:2755   */\n      dup5\n        /* \"#utility.yul\":2737:2744   */\n      dup7\n        /* \"#utility.yul\":2733:2756   */\n      sub\n        /* \"#utility.yul\":2729:2761   */\n      slt\n        /* \"#utility.yul\":2726:2778   */\n      iszero\n      tag_346\n      jumpi\n        /* \"#utility.yul\":2774:2775   */\n      0x00\n        /* \"#utility.yul\":2771:2772   */\n      dup1\n        /* \"#utility.yul\":2764:2776   */\n      revert\n        /* \"#utility.yul\":2726:2778   */\n    tag_346:\n        /* \"#utility.yul\":2814:2823   */\n      dup4\n        /* \"#utility.yul\":2801:2824   */\n      calldataload\n        /* \"#utility.yul\":2843:2861   */\n      0xffffffffffffffff\n        /* \"#utility.yul\":2884:2886   */\n      dup1\n        /* \"#utility.yul\":2876:2882   */\n      dup3\n        /* \"#utility.yul\":2873:2887   */\n      gt\n        /* \"#utility.yul\":2870:2904   */\n      iszero\n      tag_347\n      jumpi\n        /* \"#utility.yul\":2900:2901   */\n      0x00\n        /* \"#utility.yul\":2897:2898   */\n      dup1\n        /* \"#utility.yul\":2890:2902   */\n      revert\n        /* \"#utility.yul\":2870:2904   */\n    tag_347:\n        /* \"#utility.yul\":2923:2973   */\n      tag_348\n        /* \"#utility.yul\":2965:2972   */\n      dup8\n        /* \"#utility.yul\":2956:2962   */\n      dup4\n        /* \"#utility.yul\":2945:2954   */\n      dup9\n        /* \"#utility.yul\":2941:2963   */\n      add\n        /* \"#utility.yul\":2923:2973   */\n      tag_315\n      jump\t// in\n    tag_348:\n        /* \"#utility.yul\":2913:2973   */\n      swap5\n      pop\n        /* \"#utility.yul\":3026:3028   */\n      0x20\n        /* \"#utility.yul\":3015:3024   */\n      dup7\n        /* \"#utility.yul\":3011:3029   */\n      add\n        /* \"#utility.yul\":2998:3030   */\n      calldataload\n        /* \"#utility.yul\":2982:3030   */\n      swap2\n      pop\n        /* \"#utility.yul\":3055:3057   */\n      dup1\n        /* \"#utility.yul\":3045:3053   */\n      dup3\n        /* \"#utility.yul\":3042:3058   */\n      gt\n        /* \"#utility.yul\":3039:3075   */\n      iszero\n      tag_349\n      jumpi\n        /* \"#utility.yul\":3071:3072   */\n      0x00\n        /* \"#utility.yul\":3068:3069   */\n      dup1\n        /* \"#utility.yul\":3061:3073   */\n      revert\n        /* \"#utility.yul\":3039:3075   */\n    tag_349:\n      pop\n        /* \"#utility.yul\":3094:3146   */\n      tag_350\n        /* \"#utility.yul\":3138:3145   */\n      dup7\n        /* \"#utility.yul\":3127:3135   */\n      dup3\n        /* \"#utility.yul\":3116:3125   */\n      dup8\n        /* \"#utility.yul\":3112:3136   */\n      add\n        /* \"#utility.yul\":3094:3146   */\n      tag_315\n      jump\t// in\n    tag_350:\n        /* \"#utility.yul\":3084:3146   */\n      swap3\n      pop\n      pop\n        /* \"#utility.yul\":3165:3203   */\n      tag_351\n        /* \"#utility.yul\":3199:3201   */\n      0x40\n        /* \"#utility.yul\":3188:3197   */\n      dup6\n        /* \"#utility.yul\":3184:3202   */\n      add\n        /* \"#utility.yul\":3165:3203   */\n      tag_312\n      jump\t// in\n    tag_351:\n        /* \"#utility.yul\":3155:3203   */\n      swap1\n      pop\n        /* \"#utility.yul\":2592:3209   */\n      swap3\n      pop\n      swap3\n      pop\n      swap3\n      jump\t// out\n        /* \"#utility.yul\":3214:3394   */\n    tag_85:\n        /* \"#utility.yul\":3273:3279   */\n      0x00\n        /* \"#utility.yul\":3326:3328   */\n      0x20\n        /* \"#utility.yul\":3314:3323   */\n      dup3\n        /* \"#utility.yul\":3305:3312   */\n      dup5\n        /* \"#utility.yul\":3301:3324   */\n      sub\n        /* \"#utility.yul\":3297:3329   */\n      slt\n        /* \"#utility.yul\":3294:3346   */\n      iszero\n      tag_353\n      jumpi\n        /* \"#utility.yul\":3342:3343   */\n      0x00\n        /* \"#utility.yul\":3339:3340   */\n      dup1\n        /* \"#utility.yul\":3332:3344   */\n      revert\n        /* \"#utility.yul\":3294:3346   */\n    tag_353:\n      pop\n        /* \"#utility.yul\":3365:3388   */\n      calldataload\n      swap2\n        /* \"#utility.yul\":3214:3394   */\n      swap1\n      pop\n      jump\t// out\n        /* \"#utility.yul\":3399:3675   */\n    tag_172:\n        /* \"#utility.yul\":3530:3533   */\n      0x00\n        /* \"#utility.yul\":3568:3574   */\n      dup3\n        /* \"#utility.yul\":3562:3575   */\n      mload\n        /* \"#utility.yul\":3584:3637   */\n      tag_355\n        /* \"#utility.yul\":3630:3636   */\n      dup2\n        /* \"#utility.yul\":3625:3628   */\n      dup5\n        /* \"#utility.yul\":3618:3622   */\n      0x20\n        /* \"#utility.yul\":3610:3616   */\n      dup8\n        /* \"#utility.yul\":3606:3623   */\n      add\n        /* \"#utility.yul\":3584:3637   */\n      tag_356\n      jump\t// in\n    tag_355:\n        /* \"#utility.yul\":3653:3669   */\n      swap2\n      swap1\n      swap2\n      add\n      swap3\n        /* \"#utility.yul\":3399:3675   */\n      swap2\n      pop\n      pop\n      jump\t// out\n        /* \"#utility.yul\":4054:4437   */\n    tag_23:\n        /* \"#utility.yul\":4203:4205   */\n      0x20\n        /* \"#utility.yul\":4192:4201   */\n      dup2\n        /* \"#utility.yul\":4185:4206   */\n      mstore\n        /* \"#utility.yul\":4166:4170   */\n      0x00\n        /* \"#utility.yul\":4235:4241   */\n      dup3\n        /* \"#utility.yul\":4229:4242   */\n      mload\n        /* \"#utility.yul\":4278:4284   */\n      dup1\n        /* \"#utility.yul\":4273:4275   */\n      0x20\n        /* \"#utility.yul\":4262:4271   */\n      dup5\n        /* \"#utility.yul\":4258:4276   */\n      add\n        /* \"#utility.yul\":4251:4285   */\n      mstore\n        /* \"#utility.yul\":4294:4360   */\n      tag_360\n        /* \"#utility.yul\":4353:4359   */\n      dup2\n        /* \"#utility.yul\":4348:4350   */\n      0x40\n        /* \"#utility.yul\":4337:4346   */\n      dup6\n        /* \"#utility.yul\":4333:4351   */\n      add\n        /* \"#utility.yul\":4328:4330   */\n      0x20\n        /* \"#utility.yul\":4320:4326   */\n      dup8\n        /* \"#utility.yul\":4316:4331   */\n      add\n        /* \"#utility.yul\":4294:4360   */\n      tag_356\n      jump\t// in\n    tag_360:\n        /* \"#utility.yul\":4421:4423   */\n      0x1f\n        /* \"#utility.yul\":4400:4415   */\n      add\n      not(0x1f)\n        /* \"#utility.yul\":4396:4425   */\n      and\n        /* \"#utility.yul\":4381:4426   */\n      swap2\n      swap1\n      swap2\n      add\n        /* \"#utility.yul\":4428:4430   */\n      0x40\n        /* \"#utility.yul\":4377:4431   */\n      add\n      swap3\n        /* \"#utility.yul\":4054:4437   */\n      swap2\n      pop\n      pop\n      jump\t// out\n        /* \"#utility.yul\":6662:6790   */\n    tag_274:\n        /* \"#utility.yul\":6702:6705   */\n      0x00\n        /* \"#utility.yul\":6733:6734   */\n      dup3\n        /* \"#utility.yul\":6729:6735   */\n      not\n        /* \"#utility.yul\":6726:6727   */\n      dup3\n        /* \"#utility.yul\":6723:6736   */\n      gt\n        /* \"#utility.yul\":6720:6759   */\n      iszero\n      tag_370\n      jumpi\n        /* \"#utility.yul\":6739:6757   */\n      tag_370\n      tag_371\n      jump\t// in\n    tag_370:\n      pop\n        /* \"#utility.yul\":6775:6784   */\n      add\n      swap1\n        /* \"#utility.yul\":6662:6790   */\n      jump\t// out\n        /* \"#utility.yul\":6795:6963   */\n    tag_252:\n        /* \"#utility.yul\":6835:6842   */\n      0x00\n        /* \"#utility.yul\":6901:6902   */\n      dup2\n        /* \"#utility.yul\":6897:6898   */\n      0x00\n        /* \"#utility.yul\":6893:6899   */\n      not\n        /* \"#utility.yul\":6889:6903   */\n      div\n        /* \"#utility.yul\":6886:6887   */\n      dup4\n        /* \"#utility.yul\":6883:6904   */\n      gt\n        /* \"#utility.yul\":6878:6879   */\n      dup3\n        /* \"#utility.yul\":6871:6880   */\n      iszero\n        /* \"#utility.yul\":6864:6881   */\n      iszero\n        /* \"#utility.yul\":6860:6905   */\n      and\n        /* \"#utility.yul\":6857:6928   */\n      iszero\n      tag_374\n      jumpi\n        /* \"#utility.yul\":6908:6926   */\n      tag_374\n      tag_371\n      jump\t// in\n    tag_374:\n      pop\n        /* \"#utility.yul\":6948:6957   */\n      mul\n      swap1\n        /* \"#utility.yul\":6795:6963   */\n      jump\t// out\n        /* \"#utility.yul\":6968:7093   */\n    tag_271:\n        /* \"#utility.yul\":7008:7012   */\n      0x00\n        /* \"#utility.yul\":7036:7037   */\n      dup3\n        /* \"#utility.yul\":7033:7034   */\n      dup3\n        /* \"#utility.yul\":7030:7038   */\n      lt\n        /* \"#utility.yul\":7027:7061   */\n      iszero\n      tag_377\n      jumpi\n        /* \"#utility.yul\":7041:7059   */\n      tag_377\n      tag_371\n      jump\t// in\n    tag_377:\n      pop\n        /* \"#utility.yul\":7078:7087   */\n      sub\n      swap1\n        /* \"#utility.yul\":6968:7093   */\n      jump\t// out\n        /* \"#utility.yul\":7098:7356   */\n    tag_356:\n        /* \"#utility.yul\":7170:7171   */\n      0x00\n        /* \"#utility.yul\":7180:7293   */\n    tag_379:\n        /* \"#utility.yul\":7194:7200   */\n      dup4\n        /* \"#utility.yul\":7191:7192   */\n      dup2\n        /* \"#utility.yul\":7188:7201   */\n      lt\n        /* \"#utility.yul\":7180:7293   */\n      iszero\n      tag_381\n      jumpi\n        /* \"#utility.yul\":7270:7281   */\n      dup2\n      dup2\n      add\n        /* \"#utility.yul\":7264:7282   */\n      mload\n        /* \"#utility.yul\":7251:7262   */\n      dup4\n      dup3\n      add\n        /* \"#utility.yul\":7244:7283   */\n      mstore\n        /* \"#utility.yul\":7216:7218   */\n      0x20\n        /* \"#utility.yul\":7209:7219   */\n      add\n        /* \"#utility.yul\":7180:7293   */\n      jump(tag_379)\n    tag_381:\n        /* \"#utility.yul\":7311:7317   */\n      dup4\n        /* \"#utility.yul\":7308:7309   */\n      dup2\n        /* \"#utility.yul\":7305:7318   */\n      gt\n        /* \"#utility.yul\":7302:7350   */\n      iszero\n      tag_382\n      jumpi\n        /* \"#utility.yul\":7346:7347   */\n      0x00\n        /* \"#utility.yul\":7337:7343   */\n      dup5\n        /* \"#utility.yul\":7332:7335   */\n      dup5\n        /* \"#utility.yul\":7328:7344   */\n      add\n        /* \"#utility.yul\":7321:7348   */\n      mstore\n        /* \"#utility.yul\":7302:7350   */\n    tag_382:\n      pop\n        /* \"#utility.yul\":7098:7356   */\n      pop\n      pop\n      pop\n      jump\t// out\n        /* \"#utility.yul\":7361:7798   */\n    tag_301:\n        /* \"#utility.yul\":7440:7441   */\n      0x01\n        /* \"#utility.yul\":7436:7448   */\n      dup2\n      dup2\n      shr\n      swap1\n        /* \"#utility.yul\":7483:7495   */\n      dup3\n      and\n      dup1\n        /* \"#utility.yul\":7504:7565   */\n      tag_384\n      jumpi\n        /* \"#utility.yul\":7558:7562   */\n      0x7f\n        /* \"#utility.yul\":7550:7556   */\n      dup3\n        /* \"#utility.yul\":7546:7563   */\n      and\n        /* \"#utility.yul\":7536:7563   */\n      swap2\n      pop\n        /* \"#utility.yul\":7504:7565   */\n    tag_384:\n        /* \"#utility.yul\":7611:7613   */\n      0x20\n        /* \"#utility.yul\":7603:7609   */\n      dup3\n        /* \"#utility.yul\":7600:7614   */\n      lt\n        /* \"#utility.yul\":7580:7598   */\n      dup2\n        /* \"#utility.yul\":7577:7615   */\n      eq\n        /* \"#utility.yul\":7574:7792   */\n      iszero\n      tag_385\n      jumpi\n      shl(0xe0, 0x4e487b71)\n        /* \"#utility.yul\":7645:7646   */\n      0x00\n        /* \"#utility.yul\":7638:7726   */\n      mstore\n        /* \"#utility.yul\":7749:7753   */\n      0x22\n        /* \"#utility.yul\":7746:7747   */\n      0x04\n        /* \"#utility.yul\":7739:7754   */\n      mstore\n        /* \"#utility.yul\":7777:7781   */\n      0x24\n        /* \"#utility.yul\":7774:7775   */\n      0x00\n        /* \"#utility.yul\":7767:7782   */\n      revert\n        /* \"#utility.yul\":7574:7792   */\n    tag_385:\n      pop\n        /* \"#utility.yul\":7361:7798   */\n      swap2\n      swap1\n      pop\n      jump\t// out\n        /* \"#utility.yul\":7803:7987   */\n    tag_269:\n      shl(0xe0, 0x4e487b71)\n        /* \"#utility.yul\":7852:7853   */\n      0x00\n        /* \"#utility.yul\":7845:7933   */\n      mstore\n        /* \"#utility.yul\":7952:7956   */\n      0x01\n        /* \"#utility.yul\":7949:7950   */\n      0x04\n        /* \"#utility.yul\":7942:7957   */\n      mstore\n        /* \"#utility.yul\":7976:7980   */\n      0x24\n        /* \"#utility.yul\":7973:7974   */\n      0x00\n        /* \"#utility.yul\":7966:7981   */\n      revert\n        /* \"#utility.yul\":7992:8176   */\n    tag_371:\n      shl(0xe0, 0x4e487b71)\n        /* \"#utility.yul\":8041:8042   */\n      0x00\n        /* \"#utility.yul\":8034:8122   */\n      mstore\n        /* \"#utility.yul\":8141:8145   */\n      0x11\n        /* \"#utility.yul\":8138:8139   */\n      0x04\n        /* \"#utility.yul\":8131:8146   */\n      mstore\n        /* \"#utility.yul\":8165:8169   */\n      0x24\n        /* \"#utility.yul\":8162:8163   */\n      0x00\n        /* \"#utility.yul\":8155:8170   */\n      revert\n        /* \"#utility.yul\":8181:8365   */\n    tag_176:\n      shl(0xe0, 0x4e487b71)\n        /* \"#utility.yul\":8230:8231   */\n      0x00\n        /* \"#utility.yul\":8223:8311   */\n      mstore\n        /* \"#utility.yul\":8330:8334   */\n      0x21\n        /* \"#utility.yul\":8327:8328   */\n      0x04\n        /* \"#utility.yul\":8320:8335   */\n      mstore\n        /* \"#utility.yul\":8354:8358   */\n      0x24\n        /* \"#utility.yul\":8351:8352   */\n      0x00\n        /* \"#utility.yul\":8344:8359   */\n      revert\n        /* \"#utility.yul\":8370:8554   */\n    tag_320:\n      shl(0xe0, 0x4e487b71)\n        /* \"#utility.yul\":8419:8420   */\n      0x00\n        /* \"#utility.yul\":8412:8500   */\n      mstore\n        /* \"#utility.yul\":8519:8523   */\n      0x41\n        /* \"#utility.yul\":8516:8517   */\n      0x04\n        /* \"#utility.yul\":8509:8524   */\n      mstore\n        /* \"#utility.yul\":8543:8547   */\n      0x24\n        /* \"#utility.yul\":8540:8541   */\n      0x00\n        /* \"#utility.yul\":8533:8548   */\n      revert\n\n    auxdata: 0xa26469706673582212205e36ce26871be4e39f0a981a8d72ea692e762a9cf0fed388515cccc459eff83264736f6c63430008070033\n}\n",
				"bytecode": {
					"linkReferences": {},
					"object": "6080604052600380546001600160a01b03199081167378731d3ca6b7e34ac0f824c42a7cc18a495cabab1790915560048054821673617f2e2fd72fd9d5503197092ac168c91465e7f2179055600580549091167317f6ad8ef982297579c203069c1dbffe4348c372179055633b9aca006008553480156200007f57600080fd5b506040516200302c3803806200302c833981016040819052620000a2916200127d565b6040805160e08101909152806003815260200160405180604001604052806009815260200168496e766573746f723160b81b81525081526020016200010960405180604001604052806004815260200163199a189960e11b815250620008ba60201b60201c565b81526000602080830182905260408084018390526060840183905260809093018290526003546001600160a01b031682528190522081518154829060ff191660018360048111156200015f576200015f62001373565b021790555060208281015180516200017e9260018501920190620011d7565b5060408201518160020155606082015181600301556080820151816004015560a0820151816005015560c082015181600601559050506040518060e0016040528060036004811115620001d557620001d562001373565b815260200160405180604001604052806009815260200168496e766573746f723160b81b81525081526020016200022e604051806040016040528060048152602001633134323360e01b815250620008ba60201b60201c565b8152600060208083018290526040808401839052606084018390526080909301829052600480546001600160a01b03168352908290529190208251815491929091839160ff199091169060019084908111156200028f576200028f62001373565b02179055506020828101518051620002ae9260018501920190620011d7565b5060408201518160020155606082015181600301556080820151816004015560a0820151816005015560c082015181600601559050506040518060e001604052806003600481111562000305576200030562001373565b81526020016040518060400160405280600b81526020016a10995cdd08199c9a595b9960aa1b815250815260200162000360604051806040016040528060048152602001630c8ccc4d60e21b815250620008ba60201b60201c565b81526000602080830182905260408084018390526060840183905260809093018290526005546001600160a01b031682528190522081518154829060ff19166001836004811115620003b657620003b662001373565b02179055506020828101518051620003d59260018501920190620011d7565b506040828101516002830155606083015160038301556080830151600483015560a0830151600583015560c0909201516006909101556007829055805160e0810190915280600081526020016040518060400160405280600581526020016437bbb732b960d91b81525081526020016200047160405180604001604052806004815260200163199a189960e11b815250620008ba60201b60201c565b8152600754602080830191909152600060408301819052606083018190526080909201829052735b38da6a701c568545dcfcb03fcb875f56beddc482525280517f58f8e73c330daffe64653449eb9a999c1162911d5129dd8193c7233d46ade2d58054909190829060ff19166001836004811115620004f457620004f462001373565b02179055506020828101518051620005139260018501920190620011d7565b5060408201518160020155606082015181600301556080820151816004015560a0820151816005015560c082015181600601559050506040518060e00160405280600260048111156200056a576200056a62001373565b81526020016040518060400160405280601081526020016f283934bb30ba3290383937bb34b232b960811b8152508152602001620005ca604051806040016040528060048152602001633134323360e01b815250620008ba60201b60201c565b815260006020808301829052604083018290526060830182905260809092018190526000805160206200300c83398151915281529052805160008051602062002fec8339815191528054909190829060ff1916600183600481111562000634576200063462001373565b02179055506020828101518051620006539260018501920190620011d7565b506040828101516002830155606083015160038301556080830151600483015560a0830151600583015560c0909201516006909101556007546000805160206200300c83398151915260005260008051602062002fac83398151915255600160208190527f9d4d959825f0680278e64197773b2a50cd78b2b2cb00711ddbeebf0bf93cd8a4805460ff19169055815160e08101909252819081526020016040518060400160405280600f81526020016e283ab13634b190383937bb34b232b960891b81525081526020016200074a604051806040016040528060048152602001630c8ccc4d60e21b815250620008ba60201b60201c565b815260006020808301829052604083018290526060830182905260809092018190526000805160206200300c83398151915281529052805160008051602062002fec8339815191528054909190829060ff19166001836004811115620007b457620007b462001373565b02179055506020828101518051620007d39260018501920190620011d7565b506040820151600282015560608201516003808301919091556080830151600483015560a0830151600583015560c0909201516006909101556007546000805160206200300c83398151915260005260008051602062002fac8339815191525560016020527f9d4d959825f0680278e64197773b2a50cd78b2b2cb00711ddbeebf0bf93cd8a4805460ff19169055546200087a906001600160a01b0316620927c0620008ec565b5060045462000896906001600160a01b0316620c3500620008ec565b50600554620008b2906001600160a01b031662061a80620008ec565b505062001389565b600081604051602001620008cf919062001297565b604051602081830303815290604052805190602001209050919050565b60006200092c604051806040016040528060048152602001631cd9595960e21b8152506000805160206200300c8339815191528062000fe060201b60201c565b15156001141562000c75576200094162001155565b15156001141562000b0857336000908152602081905260409020600301548211156200096c57600080fd5b60033360009081526020819052604090205460ff16600481111562000995576200099562001373565b14620009dc5760405162461bcd60e51b81526020600482015260116024820152702cb7bab9103737ba1034b73b32b9ba37b960791b60448201526064015b60405180910390fd5b60036001600160a01b03841660009081526020819052604090205460ff16600481111562000a0e5762000a0e62001373565b1462000a515760405162461bcd60e51b81526020600482015260116024820152702cb7bab9103737ba1034b73b32b9ba37b960791b6044820152606401620009d3565b336000908152602081815260409091206003015462000a7b918490620015dc62001192821b17901c565b33600090815260208181526040808320600301939093556001600160a01b03861682529190206004015462000abb918490620015f8620011b3821b17901c565b6001600160a01b0384166000818152602081815260409182902060040193909355518481529091339160008051602062002fcc83398151915291015b60405180910390a350600162000fda565b3360009081526020819052604090206004015482111562000b2857600080fd5b60033360009081526020819052604090205460ff16600481111562000b515762000b5162001373565b1462000b945760405162461bcd60e51b81526020600482015260116024820152702cb7bab9103737ba1034b73b32b9ba37b960791b6044820152606401620009d3565b60036001600160a01b03841660009081526020819052604090205460ff16600481111562000bc65762000bc662001373565b1462000c095760405162461bcd60e51b81526020600482015260116024820152702cb7bab9103737ba1034b73b32b9ba37b960791b6044820152606401620009d3565b336000908152602081815260409091206004015462000c33918490620015dc62001192821b17901c565b336000908152602081815260408083206004908101949094556001600160a01b03871683529091209091015462000abb918490620015f8620011b3821b17901c565b6040805180820190915260078152667072697661746560c81b602082015262000caf906000805160206200300c8339815191528062000fe0565b15156001141562000e265762000cc462001155565b15156001141562000d9a573360009081526020819052604090206003015482111562000cef57600080fd5b336000908152602081815260409091206003015462000d19918490620015dc62001192821b17901c565b33600090815260208181526040808320600301939093556001600160a01b03861682529190206005015462000d59918490620015f8620011b3821b17901c565b6001600160a01b0384166000818152602081815260409182902060050193909355518481529091339160008051602062002fcc833981519152910162000af7565b3360009081526020819052604090206005015482111562000dba57600080fd5b336000908152602081815260409091206005015462000de4918490620015dc62001192821b17901c565b336000908152602081815260408083206005908101949094556001600160a01b03871683529091209091015462000d59918490620015f8620011b3821b17901c565b6040805180820190915260068152657075626c696360d01b602082015262000e5f906000805160206200300c8339815191528062000fe0565b15156001141562000fd65762000e7462001155565b15156001141562000f4a573360009081526020819052604090206003015482111562000e9f57600080fd5b336000908152602081815260409091206003015462000ec9918490620015dc62001192821b17901c565b33600090815260208181526040808320600301939093556001600160a01b03861682529190206006015462000f09918490620015f8620011b3821b17901c565b6001600160a01b0384166000818152602081815260409182902060060193909355518481529091339160008051602062002fcc833981519152910162000af7565b3360009081526020819052604090206006015482111562000f6a57600080fd5b336000908152602081815260409091206006015462000f94918490620015dc62001192821b17901c565b336000908152602081815260408083206006908101949094556001600160a01b03871683529091209091015462000f09918490620015f8620011b3821b17901c565b5060005b92915050565b60006200100f604051806040016040528060048152602001631cd9595960e21b815250620008ba60201b60201c565b6200101a85620008ba565b14156200107c576001600160a01b03831660009081526001602052604090205460ff161580156200106457506001600160a01b03821660009081526001602052604090205460ff16155b1562001073575060016200114e565b5060006200114e565b6040805180820190915260078152667072697661746560c81b6020820152620010a590620008ba565b620010b085620008ba565b1415620010e8576001600160a01b03831660009081526001602081905260409091205460ff161515141562001073575060016200114e565b6040805180820190915260068152657075626c696360d01b60208201526200111090620008ba565b6200111b85620008ba565b141562001073576001600160a01b03821660009081526001602081905260409091205460ff161515141562001073575060015b9392505050565b6000803360009081526020819052604090205460ff1660048111156200117f576200117f62001373565b14156200118c5750600190565b50600090565b600082821115620011a757620011a762001347565b6200114e8284620012f0565b600080620011c28385620012d5565b9050838110156200114e576200114e62001347565b828054620011e5906200130a565b90600052602060002090601f01602090048101928262001209576000855562001254565b82601f106200122457805160ff191683800117855562001254565b8280016001018555821562001254579182015b828111156200125457825182559160200191906001019062001237565b506200126292915062001266565b5090565b5b8082111562001262576000815560010162001267565b6000602082840312156200129057600080fd5b5051919050565b6000825160005b81811015620012ba57602081860181015185830152016200129e565b81811115620012ca576000828501525b509190910192915050565b60008219821115620012eb57620012eb6200135d565b500190565b6000828210156200130557620013056200135d565b500390565b600181811c908216806200131f57607f821691505b602082108114156200134157634e487b7160e01b600052602260045260246000fd5b50919050565b634e487b7160e01b600052600160045260246000fd5b634e487b7160e01b600052601160045260246000fd5b634e487b7160e01b600052602160045260246000fd5b611c1380620013996000396000f3fe6080604052600436106100dd5760003560e01c8063785963c31161007f5780639d9e7a4b116100595780639d9e7a4b1461029c578063a9059cbb146102bc578063d96a094a146102dc578063dd62ed3e146102ef57600080fd5b8063785963c3146102115780638e4f8c6b1461023357806395d89b411461025357600080fd5b806318160ddd116100bb57806318160ddd1461019557806323b872dd146101aa578063313ce567146101ca57806370a08231146101f157600080fd5b806306fdde03146100e25780630761c8b914610141578063095ea7b314610165575b600080fd5b3480156100ee57600080fd5b5061012b6040518060400160405280600d81526020017f43727970746f4d6f6e737465720000000000000000000000000000000000000081525081565b6040516101389190611a99565b60405180910390f35b34801561014d57600080fd5b5061015760085481565b604051908152602001610138565b34801561017157600080fd5b50610185610180366004611967565b610335565b6040519015158152602001610138565b3480156101a157600080fd5b50600754610157565b3480156101b657600080fd5b506101856101c536600461192b565b6103a2565b3480156101d657600080fd5b506101df600c81565b60405160ff9091168152602001610138565b3480156101fd57600080fd5b5061015761020c3660046118dd565b61091d565b34801561021d57600080fd5b5061023161022c3660046119f0565b610ab4565b005b34801561023f57600080fd5b5061015761024e3660046119b3565b610c85565b34801561025f57600080fd5b5061012b6040518060400160405280600481526020017f434d4f4e0000000000000000000000000000000000000000000000000000000081525081565b3480156102a857600080fd5b506102316102b7366004611991565b610cb5565b3480156102c857600080fd5b506101856102d7366004611967565b610d2b565b6102316102ea366004611a64565b611383565b3480156102fb57600080fd5b5061015761030a3660046118f8565b6001600160a01b03918216600090815260066020908152604080832093909416825291909152205490565b3360008181526006602090815260408083206001600160a01b038716808552925280832085905551919290917f8c5be1e5ebec7d5bd14f71427d1e84f3dd0314c0f7b2291e5b200ac8c7c3b925906103909086815260200190565b60405180910390a35060015b92915050565b60006103df604051806040016040528060048152602001631cd9595960e21b81525073ab8483f64d9c6d1ecf9b849ae677dd3315835cb280611617565b151560011415610579576103f1611767565b151560011415610551576001600160a01b03841660009081526020819052604090206003015482111561042357600080fd5b6001600160a01b038416600090815260066020908152604080832033845290915290205482111561045357600080fd5b6001600160a01b03841660009081526020819052604090206004015461047990836115dc565b6001600160a01b0385166000908152602081815260408083206004019390935560068152828220338352905220546104b190836115dc565b6001600160a01b03808616600090815260066020908152604080832033845282528083209490945591861681529081905220600401546104f190836115f8565b6001600160a01b038481166000818152602081815260409182902060040194909455518581529092918716917fddf252ad1be2c89b69c2b068fc378daa952ba7f163c4a11628f55a4df523b3ef91015b60405180910390a3506001610916565b6001600160a01b03841660009081526020819052604090206004015482111561042357600080fd5b6105b7604051806040016040528060078152602001667072697661746560c81b81525073ab8483f64d9c6d1ecf9b849ae677dd3315835cb280611617565b151560011415610745576105c9611767565b1515600114156105fb576001600160a01b03841660009081526020819052604090206003015482111561042357600080fd5b6001600160a01b03841660009081526020819052604090206005015482111561062357600080fd5b6001600160a01b038416600090815260066020908152604080832033845290915290205482111561065357600080fd5b6001600160a01b03841660009081526020819052604090206005015461067990836115dc565b6001600160a01b0385166000908152602081815260408083206005019390935560068152828220338352905220546106b190836115dc565b6001600160a01b03808616600090815260066020908152604080832033845282528083209490945591861681529081905220600501546106f190836115f8565b6001600160a01b038481166000818152602081815260409182902060050194909455518581529092918716917fddf252ad1be2c89b69c2b068fc378daa952ba7f163c4a11628f55a4df523b3ef9101610541565b610782604051806040016040528060068152602001657075626c696360d01b81525073ab8483f64d9c6d1ecf9b849ae677dd3315835cb280611617565b15156001141561091257610794611767565b1515600114156107c6576001600160a01b03841660009081526020819052604090206003015482111561042357600080fd5b6001600160a01b0384166000908152602081905260409020600601548211156107ee57600080fd5b6001600160a01b038416600090815260066020908152604080832033845290915290205482111561081e57600080fd5b6001600160a01b03841660009081526020819052604090206006015461084490836115dc565b6001600160a01b0385166000908152602081815260408083206006908101949094559281528282203383529052205461087d90836115dc565b6001600160a01b0380861660009081526006602081815260408084203385528252808420959095559287168252918190529190912001546108be90836115f8565b6001600160a01b038481166000818152602081815260409182902060060194909455518581529092918716917fddf252ad1be2c89b69c2b068fc378daa952ba7f163c4a11628f55a4df523b3ef9101610541565b5060005b9392505050565b73ab8483f64d9c6d1ecf9b849ae677dd3315835cb2600090815260016020527f9d4d959825f0680278e64197773b2a50cd78b2b2cb00711ddbeebf0bf93cd8a45460ff161580156109ad575073ab8483f64d9c6d1ecf9b849ae677dd3315835cb260005260016020527f9d4d959825f0680278e64197773b2a50cd78b2b2cb00711ddbeebf0bf93cd8a45460ff16155b156109d157506001600160a01b031660009081526020819052604090206004015490565b73ab8483f64d9c6d1ecf9b849ae677dd3315835cb2600052600160208190527f9d4d959825f0680278e64197773b2a50cd78b2b2cb00711ddbeebf0bf93cd8a45460ff1615151415610a3c57506001600160a01b031660009081526020819052604090206005015490565b73ab8483f64d9c6d1ecf9b849ae677dd3315835cb2600052600160208190527f9d4d959825f0680278e64197773b2a50cd78b2b2cb00711ddbeebf0bf93cd8a45460ff1615151415610aa757506001600160a01b031660009081526020819052604090206006015490565b506000919050565b919050565b3360009081526002602081905260409091200154600160b01b900460ff161515600114610b285760405162461bcd60e51b815260206004820152601960248201527f4170706c69636174696f6e20616c72656164792073656e74210000000000000060448201526064015b60405180910390fd5b6040805160c08101825284815260208082018590526001600160a01b0384168284015260016060830181905260006080840181905260a084019190915233815260028252929092208151805192939192610b8592849201906117a0565b506020828101518051610b9e92600185019201906117a0565b506040820151600290910180546060840151608085015160a0909501511515600160b01b027fffffffffffffffffff00ffffffffffffffffffffffffffffffffffffffffffff951515750100000000000000000000000000000000000000000002959095167fffffffffffffffffff0000ffffffffffffffffffffffffffffffffffffffffff91151574010000000000000000000000000000000000000000027fffffffffffffffffffffff0000000000000000000000000000000000000000009093166001600160a01b0390951694909417919091171691909117919091179055505050565b600081604051602001610c989190611a7d565b604051602081830303815290604052805190602001209050919050565b60023360009081526020819052604090205460ff166004811115610cdb57610cdb611bb1565b14610d285760405162461bcd60e51b815260206004820152601f60248201527f596f7520617265206e6f74206120707269766174652070726f766964657221006044820152606401610b1f565b50565b6000610d68604051806040016040528060048152602001631cd9595960e21b81525073ab8483f64d9c6d1ecf9b849ae677dd3315835cb280611617565b15156001141561106c57610d7a611767565b151560011415610f265733600090815260208190526040902060030154821115610da357600080fd5b60033360009081526020819052604090205460ff166004811115610dc957610dc9611bb1565b14610e0a5760405162461bcd60e51b81526020600482015260116024820152702cb7bab9103737ba1034b73b32b9ba37b960791b6044820152606401610b1f565b60036001600160a01b03841660009081526020819052604090205460ff166004811115610e3957610e39611bb1565b14610e7a5760405162461bcd60e51b81526020600482015260116024820152702cb7bab9103737ba1034b73b32b9ba37b960791b6044820152606401610b1f565b33600090815260208190526040902060030154610e9790836115dc565b33600090815260208190526040808220600301929092556001600160a01b03851681522060040154610ec990836115f8565b6001600160a01b038416600081815260208181526040918290206004019390935551848152909133917fddf252ad1be2c89b69c2b068fc378daa952ba7f163c4a11628f55a4df523b3ef91015b60405180910390a350600161039c565b33600090815260208190526040902060040154821115610f4557600080fd5b60033360009081526020819052604090205460ff166004811115610f6b57610f6b611bb1565b14610fac5760405162461bcd60e51b81526020600482015260116024820152702cb7bab9103737ba1034b73b32b9ba37b960791b6044820152606401610b1f565b60036001600160a01b03841660009081526020819052604090205460ff166004811115610fdb57610fdb611bb1565b1461101c5760405162461bcd60e51b81526020600482015260116024820152702cb7bab9103737ba1034b73b32b9ba37b960791b6044820152606401610b1f565b3360009081526020819052604090206004015461103990836115dc565b336000908152602081905260408082206004908101939093556001600160a01b038616825290200154610ec990836115f8565b6110aa604051806040016040528060078152602001667072697661746560c81b81525073ab8483f64d9c6d1ecf9b849ae677dd3315835cb280611617565b1515600114156111f4576110bc611767565b15156001141561118557336000908152602081905260409020600301548211156110e557600080fd5b3360009081526020819052604090206003015461110290836115dc565b33600090815260208190526040808220600301929092556001600160a01b0385168152206005015461113490836115f8565b6001600160a01b038416600081815260208181526040918290206005019390935551848152909133917fddf252ad1be2c89b69c2b068fc378daa952ba7f163c4a11628f55a4df523b3ef9101610f16565b336000908152602081905260409020600501548211156111a457600080fd5b336000908152602081905260409020600501546111c190836115dc565b336000908152602081905260408082206005908101939093556001600160a01b03861682529020015461113490836115f8565b611231604051806040016040528060068152602001657075626c696360d01b81525073ab8483f64d9c6d1ecf9b849ae677dd3315835cb280611617565b15156001141561137b57611243611767565b15156001141561130c573360009081526020819052604090206003015482111561126c57600080fd5b3360009081526020819052604090206003015461128990836115dc565b33600090815260208190526040808220600301929092556001600160a01b038516815220600601546112bb90836115f8565b6001600160a01b038416600081815260208181526040918290206006019390935551848152909133917fddf252ad1be2c89b69c2b068fc378daa952ba7f163c4a11628f55a4df523b3ef9101610f16565b3360009081526020819052604090206006015482111561132b57600080fd5b3360009081526020819052604090206006015461134890836115dc565b336000908152602081905260408082206006908101939093556001600160a01b0386168252902001546112bb90836115f8565b50600061039c565b6008546113909082611ae4565b34146113de5760405162461bcd60e51b815260206004820181905260248201527f4e65656420746f2073656e6420657861637420616d6f756e74206f66207765696044820152606401610b1f565b73ab8483f64d9c6d1ecf9b849ae677dd3315835cb260005260016020527f9d4d959825f0680278e64197773b2a50cd78b2b2cb00711ddbeebf0bf93cd8a45460ff1615801561146c575073ab8483f64d9c6d1ecf9b849ae677dd3315835cb260005260016020527f9d4d959825f0680278e64197773b2a50cd78b2b2cb00711ddbeebf0bf93cd8a45460ff16155b6114de5760405162461bcd60e51b815260206004820152603b60248201527f447572696e672074686520736565642070686173652c20746865207472616e7360448201527f666572206f6620746f6b656e732069732070726f6869626974656400000000006064820152608401610b1f565b73ab8483f64d9c6d1ecf9b849ae677dd3315835cb2600052600160208190527f9d4d959825f0680278e64197773b2a50cd78b2b2cb00711ddbeebf0bf93cd8a45460ff161515141561155d573360009081526020819052604090206005015461154790826115f8565b3360009081526020819052604090206005015550565b73ab8483f64d9c6d1ecf9b849ae677dd3315835cb2600052600160208190527f9d4d959825f0680278e64197773b2a50cd78b2b2cb00711ddbeebf0bf93cd8a45460ff1615151415610d2857336000908152602081905260409020600601546115c690826115f8565b3360009081526020819052604090206006015550565b6000828211156115ee576115ee611b85565b6109168284611b03565b6000806116058385611acc565b90508381101561091657610916611b85565b600061163e604051806040016040528060048152602001631cd9595960e21b815250610c85565b61164785610c85565b141561169c576001600160a01b03831660009081526001602052604090205460ff1615801561168f57506001600160a01b03821660009081526001602052604090205460ff16155b1561091257506001610916565b6116c4604051806040016040528060078152602001667072697661746560c81b815250610c85565b6116cd85610c85565b1415611702576001600160a01b03831660009081526001602081905260409091205460ff161515141561091257506001610916565b611729604051806040016040528060068152602001657075626c696360d01b815250610c85565b61173285610c85565b1415610912576001600160a01b03821660009081526001602081905260409091205460ff161515141561091257506001610916565b6000803360009081526020819052604090205460ff16600481111561178e5761178e611bb1565b141561179a5750600190565b50600090565b8280546117ac90611b4a565b90600052602060002090601f0160209004810192826117ce5760008555611814565b82601f106117e757805160ff1916838001178555611814565b82800160010185558215611814579182015b828111156118145782518255916020019190600101906117f9565b50611820929150611824565b5090565b5b808211156118205760008155600101611825565b80356001600160a01b0381168114610aaf57600080fd5b600082601f83011261186157600080fd5b813567ffffffffffffffff8082111561187c5761187c611bc7565b604051601f8301601f19908116603f011681019082821181831017156118a4576118a4611bc7565b816040528381528660208588010111156118bd57600080fd5b836020870160208301376000602085830101528094505050505092915050565b6000602082840312156118ef57600080fd5b61091682611839565b6000806040838503121561190b57600080fd5b61191483611839565b915061192260208401611839565b90509250929050565b60008060006060848603121561194057600080fd5b61194984611839565b925061195760208501611839565b9150604084013590509250925092565b6000806040838503121561197a57600080fd5b61198383611839565b946020939093013593505050565b6000602082840312156119a357600080fd5b8135801515811461091657600080fd5b6000602082840312156119c557600080fd5b813567ffffffffffffffff8111156119dc57600080fd5b6119e884828501611850565b949350505050565b600080600060608486031215611a0557600080fd5b833567ffffffffffffffff80821115611a1d57600080fd5b611a2987838801611850565b94506020860135915080821115611a3f57600080fd5b50611a4c86828701611850565b925050611a5b60408501611839565b90509250925092565b600060208284031215611a7657600080fd5b5035919050565b60008251611a8f818460208701611b1a565b9190910192915050565b6020815260008251806020840152611ab8816040850160208701611b1a565b601f01601f19169190910160400192915050565b60008219821115611adf57611adf611b9b565b500190565b6000816000190483118215151615611afe57611afe611b9b565b500290565b600082821015611b1557611b15611b9b565b500390565b60005b83811015611b35578181015183820152602001611b1d565b83811115611b44576000848401525b50505050565b600181811c90821680611b5e57607f821691505b60208210811415611b7f57634e487b7160e01b600052602260045260246000fd5b50919050565b634e487b7160e01b600052600160045260246000fd5b634e487b7160e01b600052601160045260246000fd5b634e487b7160e01b600052602160045260246000fd5b634e487b7160e01b600052604160045260246000fdfea26469706673582212205e36ce26871be4e39f0a981a8d72ea692e762a9cf0fed388515cccc459eff83264736f6c63430008070033d0917daa0b256b4ca08bff93fec91cc093247bf3cc8b97e585b3c6329d4b8765ddf252ad1be2c89b69c2b068fc378daa952ba7f163c4a11628f55a4df523b3ef1a1017a437881fd8fee8ab135586d886995df9286bd91e5d3c250f79b2327f02000000000000000000000000ab8483f64d9c6d1ecf9b849ae677dd3315835cb2",
					"opcodes": "PUSH1 0x80 PUSH1 0x40 MSTORE PUSH1 0x3 DUP1 SLOAD PUSH1 0x1 PUSH1 0x1 PUSH1 0xA0 SHL SUB NOT SWAP1 DUP2 AND PUSH20 0x78731D3CA6B7E34AC0F824C42A7CC18A495CABAB OR SWAP1 SWAP2 SSTORE PUSH1 0x4 DUP1 SLOAD DUP3 AND PUSH20 0x617F2E2FD72FD9D5503197092AC168C91465E7F2 OR SWAP1 SSTORE PUSH1 0x5 DUP1 SLOAD SWAP1 SWAP2 AND PUSH20 0x17F6AD8EF982297579C203069C1DBFFE4348C372 OR SWAP1 SSTORE PUSH4 0x3B9ACA00 PUSH1 0x8 SSTORE CALLVALUE DUP1 ISZERO PUSH3 0x7F JUMPI PUSH1 0x0 DUP1 REVERT JUMPDEST POP PUSH1 0x40 MLOAD PUSH3 0x302C CODESIZE SUB DUP1 PUSH3 0x302C DUP4 CODECOPY DUP2 ADD PUSH1 0x40 DUP2 SWAP1 MSTORE PUSH3 0xA2 SWAP2 PUSH3 0x127D JUMP JUMPDEST PUSH1 0x40 DUP1 MLOAD PUSH1 0xE0 DUP2 ADD SWAP1 SWAP2 MSTORE DUP1 PUSH1 0x3 DUP2 MSTORE PUSH1 0x20 ADD PUSH1 0x40 MLOAD DUP1 PUSH1 0x40 ADD PUSH1 0x40 MSTORE DUP1 PUSH1 0x9 DUP2 MSTORE PUSH1 0x20 ADD PUSH9 0x496E766573746F7231 PUSH1 0xB8 SHL DUP2 MSTORE POP DUP2 MSTORE PUSH1 0x20 ADD PUSH3 0x109 PUSH1 0x40 MLOAD DUP1 PUSH1 0x40 ADD PUSH1 0x40 MSTORE DUP1 PUSH1 0x4 DUP2 MSTORE PUSH1 0x20 ADD PUSH4 0x199A1899 PUSH1 0xE1 SHL DUP2 MSTORE POP PUSH3 0x8BA PUSH1 0x20 SHL PUSH1 0x20 SHR JUMP JUMPDEST DUP2 MSTORE PUSH1 0x0 PUSH1 0x20 DUP1 DUP4 ADD DUP3 SWAP1 MSTORE PUSH1 0x40 DUP1 DUP5 ADD DUP4 SWAP1 MSTORE PUSH1 0x60 DUP5 ADD DUP4 SWAP1 MSTORE PUSH1 0x80 SWAP1 SWAP4 ADD DUP3 SWAP1 MSTORE PUSH1 0x3 SLOAD PUSH1 0x1 PUSH1 0x1 PUSH1 0xA0 SHL SUB AND DUP3 MSTORE DUP2 SWAP1 MSTORE KECCAK256 DUP2 MLOAD DUP2 SLOAD DUP3 SWAP1 PUSH1 0xFF NOT AND PUSH1 0x1 DUP4 PUSH1 0x4 DUP2 GT ISZERO PUSH3 0x15F JUMPI PUSH3 0x15F PUSH3 0x1373 JUMP JUMPDEST MUL OR SWAP1 SSTORE POP PUSH1 0x20 DUP3 DUP2 ADD MLOAD DUP1 MLOAD PUSH3 0x17E SWAP3 PUSH1 0x1 DUP6 ADD SWAP3 ADD SWAP1 PUSH3 0x11D7 JUMP JUMPDEST POP PUSH1 0x40 DUP3 ADD MLOAD DUP2 PUSH1 0x2 ADD SSTORE PUSH1 0x60 DUP3 ADD MLOAD DUP2 PUSH1 0x3 ADD SSTORE PUSH1 0x80 DUP3 ADD MLOAD DUP2 PUSH1 0x4 ADD SSTORE PUSH1 0xA0 DUP3 ADD MLOAD DUP2 PUSH1 0x5 ADD SSTORE PUSH1 0xC0 DUP3 ADD MLOAD DUP2 PUSH1 0x6 ADD SSTORE SWAP1 POP POP PUSH1 0x40 MLOAD DUP1 PUSH1 0xE0 ADD PUSH1 0x40 MSTORE DUP1 PUSH1 0x3 PUSH1 0x4 DUP2 GT ISZERO PUSH3 0x1D5 JUMPI PUSH3 0x1D5 PUSH3 0x1373 JUMP JUMPDEST DUP2 MSTORE PUSH1 0x20 ADD PUSH1 0x40 MLOAD DUP1 PUSH1 0x40 ADD PUSH1 0x40 MSTORE DUP1 PUSH1 0x9 DUP2 MSTORE PUSH1 0x20 ADD PUSH9 0x496E766573746F7231 PUSH1 0xB8 SHL DUP2 MSTORE POP DUP2 MSTORE PUSH1 0x20 ADD PUSH3 0x22E PUSH1 0x40 MLOAD DUP1 PUSH1 0x40 ADD PUSH1 0x40 MSTORE DUP1 PUSH1 0x4 DUP2 MSTORE PUSH1 0x20 ADD PUSH4 0x31343233 PUSH1 0xE0 SHL DUP2 MSTORE POP PUSH3 0x8BA PUSH1 0x20 SHL PUSH1 0x20 SHR JUMP JUMPDEST DUP2 MSTORE PUSH1 0x0 PUSH1 0x20 DUP1 DUP4 ADD DUP3 SWAP1 MSTORE PUSH1 0x40 DUP1 DUP5 ADD DUP4 SWAP1 MSTORE PUSH1 0x60 DUP5 ADD DUP4 SWAP1 MSTORE PUSH1 0x80 SWAP1 SWAP4 ADD DUP3 SWAP1 MSTORE PUSH1 0x4 DUP1 SLOAD PUSH1 0x1 PUSH1 0x1 PUSH1 0xA0 SHL SUB AND DUP4 MSTORE SWAP1 DUP3 SWAP1 MSTORE SWAP2 SWAP1 KECCAK256 DUP3 MLOAD DUP2 SLOAD SWAP2 SWAP3 SWAP1 SWAP2 DUP4 SWAP2 PUSH1 0xFF NOT SWAP1 SWAP2 AND SWAP1 PUSH1 0x1 SWAP1 DUP5 SWAP1 DUP2 GT ISZERO PUSH3 0x28F JUMPI PUSH3 0x28F PUSH3 0x1373 JUMP JUMPDEST MUL OR SWAP1 SSTORE POP PUSH1 0x20 DUP3 DUP2 ADD MLOAD DUP1 MLOAD PUSH3 0x2AE SWAP3 PUSH1 0x1 DUP6 ADD SWAP3 ADD SWAP1 PUSH3 0x11D7 JUMP JUMPDEST POP PUSH1 0x40 DUP3 ADD MLOAD DUP2 PUSH1 0x2 ADD SSTORE PUSH1 0x60 DUP3 ADD MLOAD DUP2 PUSH1 0x3 ADD SSTORE PUSH1 0x80 DUP3 ADD MLOAD DUP2 PUSH1 0x4 ADD SSTORE PUSH1 0xA0 DUP3 ADD MLOAD DUP2 PUSH1 0x5 ADD SSTORE PUSH1 0xC0 DUP3 ADD MLOAD DUP2 PUSH1 0x6 ADD SSTORE SWAP1 POP POP PUSH1 0x40 MLOAD DUP1 PUSH1 0xE0 ADD PUSH1 0x40 MSTORE DUP1 PUSH1 0x3 PUSH1 0x4 DUP2 GT ISZERO PUSH3 0x305 JUMPI PUSH3 0x305 PUSH3 0x1373 JUMP JUMPDEST DUP2 MSTORE PUSH1 0x20 ADD PUSH1 0x40 MLOAD DUP1 PUSH1 0x40 ADD PUSH1 0x40 MSTORE DUP1 PUSH1 0xB DUP2 MSTORE PUSH1 0x20 ADD PUSH11 0x10995CDD08199C9A595B99 PUSH1 0xAA SHL DUP2 MSTORE POP DUP2 MSTORE PUSH1 0x20 ADD PUSH3 0x360 PUSH1 0x40 MLOAD DUP1 PUSH1 0x40 ADD PUSH1 0x40 MSTORE DUP1 PUSH1 0x4 DUP2 MSTORE PUSH1 0x20 ADD PUSH4 0xC8CCC4D PUSH1 0xE2 SHL DUP2 MSTORE POP PUSH3 0x8BA PUSH1 0x20 SHL PUSH1 0x20 SHR JUMP JUMPDEST DUP2 MSTORE PUSH1 0x0 PUSH1 0x20 DUP1 DUP4 ADD DUP3 SWAP1 MSTORE PUSH1 0x40 DUP1 DUP5 ADD DUP4 SWAP1 MSTORE PUSH1 0x60 DUP5 ADD DUP4 SWAP1 MSTORE PUSH1 0x80 SWAP1 SWAP4 ADD DUP3 SWAP1 MSTORE PUSH1 0x5 SLOAD PUSH1 0x1 PUSH1 0x1 PUSH1 0xA0 SHL SUB AND DUP3 MSTORE DUP2 SWAP1 MSTORE KECCAK256 DUP2 MLOAD DUP2 SLOAD DUP3 SWAP1 PUSH1 0xFF NOT AND PUSH1 0x1 DUP4 PUSH1 0x4 DUP2 GT ISZERO PUSH3 0x3B6 JUMPI PUSH3 0x3B6 PUSH3 0x1373 JUMP JUMPDEST MUL OR SWAP1 SSTORE POP PUSH1 0x20 DUP3 DUP2 ADD MLOAD DUP1 MLOAD PUSH3 0x3D5 SWAP3 PUSH1 0x1 DUP6 ADD SWAP3 ADD SWAP1 PUSH3 0x11D7 JUMP JUMPDEST POP PUSH1 0x40 DUP3 DUP2 ADD MLOAD PUSH1 0x2 DUP4 ADD SSTORE PUSH1 0x60 DUP4 ADD MLOAD PUSH1 0x3 DUP4 ADD SSTORE PUSH1 0x80 DUP4 ADD MLOAD PUSH1 0x4 DUP4 ADD SSTORE PUSH1 0xA0 DUP4 ADD MLOAD PUSH1 0x5 DUP4 ADD SSTORE PUSH1 0xC0 SWAP1 SWAP3 ADD MLOAD PUSH1 0x6 SWAP1 SWAP2 ADD SSTORE PUSH1 0x7 DUP3 SWAP1 SSTORE DUP1 MLOAD PUSH1 0xE0 DUP2 ADD SWAP1 SWAP2 MSTORE DUP1 PUSH1 0x0 DUP2 MSTORE PUSH1 0x20 ADD PUSH1 0x40 MLOAD DUP1 PUSH1 0x40 ADD PUSH1 0x40 MSTORE DUP1 PUSH1 0x5 DUP2 MSTORE PUSH1 0x20 ADD PUSH5 0x37BBB732B9 PUSH1 0xD9 SHL DUP2 MSTORE POP DUP2 MSTORE PUSH1 0x20 ADD PUSH3 0x471 PUSH1 0x40 MLOAD DUP1 PUSH1 0x40 ADD PUSH1 0x40 MSTORE DUP1 PUSH1 0x4 DUP2 MSTORE PUSH1 0x20 ADD PUSH4 0x199A1899 PUSH1 0xE1 SHL DUP2 MSTORE POP PUSH3 0x8BA PUSH1 0x20 SHL PUSH1 0x20 SHR JUMP JUMPDEST DUP2 MSTORE PUSH1 0x7 SLOAD PUSH1 0x20 DUP1 DUP4 ADD SWAP2 SWAP1 SWAP2 MSTORE PUSH1 0x0 PUSH1 0x40 DUP4 ADD DUP2 SWAP1 MSTORE PUSH1 0x60 DUP4 ADD DUP2 SWAP1 MSTORE PUSH1 0x80 SWAP1 SWAP3 ADD DUP3 SWAP1 MSTORE PUSH20 0x5B38DA6A701C568545DCFCB03FCB875F56BEDDC4 DUP3 MSTORE MSTORE DUP1 MLOAD PUSH32 0x58F8E73C330DAFFE64653449EB9A999C1162911D5129DD8193C7233D46ADE2D5 DUP1 SLOAD SWAP1 SWAP2 SWAP1 DUP3 SWAP1 PUSH1 0xFF NOT AND PUSH1 0x1 DUP4 PUSH1 0x4 DUP2 GT ISZERO PUSH3 0x4F4 JUMPI PUSH3 0x4F4 PUSH3 0x1373 JUMP JUMPDEST MUL OR SWAP1 SSTORE POP PUSH1 0x20 DUP3 DUP2 ADD MLOAD DUP1 MLOAD PUSH3 0x513 SWAP3 PUSH1 0x1 DUP6 ADD SWAP3 ADD SWAP1 PUSH3 0x11D7 JUMP JUMPDEST POP PUSH1 0x40 DUP3 ADD MLOAD DUP2 PUSH1 0x2 ADD SSTORE PUSH1 0x60 DUP3 ADD MLOAD DUP2 PUSH1 0x3 ADD SSTORE PUSH1 0x80 DUP3 ADD MLOAD DUP2 PUSH1 0x4 ADD SSTORE PUSH1 0xA0 DUP3 ADD MLOAD DUP2 PUSH1 0x5 ADD SSTORE PUSH1 0xC0 DUP3 ADD MLOAD DUP2 PUSH1 0x6 ADD SSTORE SWAP1 POP POP PUSH1 0x40 MLOAD DUP1 PUSH1 0xE0 ADD PUSH1 0x40 MSTORE DUP1 PUSH1 0x2 PUSH1 0x4 DUP2 GT ISZERO PUSH3 0x56A JUMPI PUSH3 0x56A PUSH3 0x1373 JUMP JUMPDEST DUP2 MSTORE PUSH1 0x20 ADD PUSH1 0x40 MLOAD DUP1 PUSH1 0x40 ADD PUSH1 0x40 MSTORE DUP1 PUSH1 0x10 DUP2 MSTORE PUSH1 0x20 ADD PUSH16 0x283934BB30BA3290383937BB34B232B9 PUSH1 0x81 SHL DUP2 MSTORE POP DUP2 MSTORE PUSH1 0x20 ADD PUSH3 0x5CA PUSH1 0x40 MLOAD DUP1 PUSH1 0x40 ADD PUSH1 0x40 MSTORE DUP1 PUSH1 0x4 DUP2 MSTORE PUSH1 0x20 ADD PUSH4 0x31343233 PUSH1 0xE0 SHL DUP2 MSTORE POP PUSH3 0x8BA PUSH1 0x20 SHL PUSH1 0x20 SHR JUMP JUMPDEST DUP2 MSTORE PUSH1 0x0 PUSH1 0x20 DUP1 DUP4 ADD DUP3 SWAP1 MSTORE PUSH1 0x40 DUP4 ADD DUP3 SWAP1 MSTORE PUSH1 0x60 DUP4 ADD DUP3 SWAP1 MSTORE PUSH1 0x80 SWAP1 SWAP3 ADD DUP2 SWAP1 MSTORE PUSH1 0x0 DUP1 MLOAD PUSH1 0x20 PUSH3 0x300C DUP4 CODECOPY DUP2 MLOAD SWAP2 MSTORE DUP2 MSTORE SWAP1 MSTORE DUP1 MLOAD PUSH1 0x0 DUP1 MLOAD PUSH1 0x20 PUSH3 0x2FEC DUP4 CODECOPY DUP2 MLOAD SWAP2 MSTORE DUP1 SLOAD SWAP1 SWAP2 SWAP1 DUP3 SWAP1 PUSH1 0xFF NOT AND PUSH1 0x1 DUP4 PUSH1 0x4 DUP2 GT ISZERO PUSH3 0x634 JUMPI PUSH3 0x634 PUSH3 0x1373 JUMP JUMPDEST MUL OR SWAP1 SSTORE POP PUSH1 0x20 DUP3 DUP2 ADD MLOAD DUP1 MLOAD PUSH3 0x653 SWAP3 PUSH1 0x1 DUP6 ADD SWAP3 ADD SWAP1 PUSH3 0x11D7 JUMP JUMPDEST POP PUSH1 0x40 DUP3 DUP2 ADD MLOAD PUSH1 0x2 DUP4 ADD SSTORE PUSH1 0x60 DUP4 ADD MLOAD PUSH1 0x3 DUP4 ADD SSTORE PUSH1 0x80 DUP4 ADD MLOAD PUSH1 0x4 DUP4 ADD SSTORE PUSH1 0xA0 DUP4 ADD MLOAD PUSH1 0x5 DUP4 ADD SSTORE PUSH1 0xC0 SWAP1 SWAP3 ADD MLOAD PUSH1 0x6 SWAP1 SWAP2 ADD SSTORE PUSH1 0x7 SLOAD PUSH1 0x0 DUP1 MLOAD PUSH1 0x20 PUSH3 0x300C DUP4 CODECOPY DUP2 MLOAD SWAP2 MSTORE PUSH1 0x0 MSTORE PUSH1 0x0 DUP1 MLOAD PUSH1 0x20 PUSH3 0x2FAC DUP4 CODECOPY DUP2 MLOAD SWAP2 MSTORE SSTORE PUSH1 0x1 PUSH1 0x20 DUP2 SWAP1 MSTORE PUSH32 0x9D4D959825F0680278E64197773B2A50CD78B2B2CB00711DDBEEBF0BF93CD8A4 DUP1 SLOAD PUSH1 0xFF NOT AND SWAP1 SSTORE DUP2 MLOAD PUSH1 0xE0 DUP2 ADD SWAP1 SWAP3 MSTORE DUP2 SWAP1 DUP2 MSTORE PUSH1 0x20 ADD PUSH1 0x40 MLOAD DUP1 PUSH1 0x40 ADD PUSH1 0x40 MSTORE DUP1 PUSH1 0xF DUP2 MSTORE PUSH1 0x20 ADD PUSH15 0x283AB13634B190383937BB34B232B9 PUSH1 0x89 SHL DUP2 MSTORE POP DUP2 MSTORE PUSH1 0x20 ADD PUSH3 0x74A PUSH1 0x40 MLOAD DUP1 PUSH1 0x40 ADD PUSH1 0x40 MSTORE DUP1 PUSH1 0x4 DUP2 MSTORE PUSH1 0x20 ADD PUSH4 0xC8CCC4D PUSH1 0xE2 SHL DUP2 MSTORE POP PUSH3 0x8BA PUSH1 0x20 SHL PUSH1 0x20 SHR JUMP JUMPDEST DUP2 MSTORE PUSH1 0x0 PUSH1 0x20 DUP1 DUP4 ADD DUP3 SWAP1 MSTORE PUSH1 0x40 DUP4 ADD DUP3 SWAP1 MSTORE PUSH1 0x60 DUP4 ADD DUP3 SWAP1 MSTORE PUSH1 0x80 SWAP1 SWAP3 ADD DUP2 SWAP1 MSTORE PUSH1 0x0 DUP1 MLOAD PUSH1 0x20 PUSH3 0x300C DUP4 CODECOPY DUP2 MLOAD SWAP2 MSTORE DUP2 MSTORE SWAP1 MSTORE DUP1 MLOAD PUSH1 0x0 DUP1 MLOAD PUSH1 0x20 PUSH3 0x2FEC DUP4 CODECOPY DUP2 MLOAD SWAP2 MSTORE DUP1 SLOAD SWAP1 SWAP2 SWAP1 DUP3 SWAP1 PUSH1 0xFF NOT AND PUSH1 0x1 DUP4 PUSH1 0x4 DUP2 GT ISZERO PUSH3 0x7B4 JUMPI PUSH3 0x7B4 PUSH3 0x1373 JUMP JUMPDEST MUL OR SWAP1 SSTORE POP PUSH1 0x20 DUP3 DUP2 ADD MLOAD DUP1 MLOAD PUSH3 0x7D3 SWAP3 PUSH1 0x1 DUP6 ADD SWAP3 ADD SWAP1 PUSH3 0x11D7 JUMP JUMPDEST POP PUSH1 0x40 DUP3 ADD MLOAD PUSH1 0x2 DUP3 ADD SSTORE PUSH1 0x60 DUP3 ADD MLOAD PUSH1 0x3 DUP1 DUP4 ADD SWAP2 SWAP1 SWAP2 SSTORE PUSH1 0x80 DUP4 ADD MLOAD PUSH1 0x4 DUP4 ADD SSTORE PUSH1 0xA0 DUP4 ADD MLOAD PUSH1 0x5 DUP4 ADD SSTORE PUSH1 0xC0 SWAP1 SWAP3 ADD MLOAD PUSH1 0x6 SWAP1 SWAP2 ADD SSTORE PUSH1 0x7 SLOAD PUSH1 0x0 DUP1 MLOAD PUSH1 0x20 PUSH3 0x300C DUP4 CODECOPY DUP2 MLOAD SWAP2 MSTORE PUSH1 0x0 MSTORE PUSH1 0x0 DUP1 MLOAD PUSH1 0x20 PUSH3 0x2FAC DUP4 CODECOPY DUP2 MLOAD SWAP2 MSTORE SSTORE PUSH1 0x1 PUSH1 0x20 MSTORE PUSH32 0x9D4D959825F0680278E64197773B2A50CD78B2B2CB00711DDBEEBF0BF93CD8A4 DUP1 SLOAD PUSH1 0xFF NOT AND SWAP1 SSTORE SLOAD PUSH3 0x87A SWAP1 PUSH1 0x1 PUSH1 0x1 PUSH1 0xA0 SHL SUB AND PUSH3 0x927C0 PUSH3 0x8EC JUMP JUMPDEST POP PUSH1 0x4 SLOAD PUSH3 0x896 SWAP1 PUSH1 0x1 PUSH1 0x1 PUSH1 0xA0 SHL SUB AND PUSH3 0xC3500 PUSH3 0x8EC JUMP JUMPDEST POP PUSH1 0x5 SLOAD PUSH3 0x8B2 SWAP1 PUSH1 0x1 PUSH1 0x1 PUSH1 0xA0 SHL SUB AND PUSH3 0x61A80 PUSH3 0x8EC JUMP JUMPDEST POP POP PUSH3 0x1389 JUMP JUMPDEST PUSH1 0x0 DUP2 PUSH1 0x40 MLOAD PUSH1 0x20 ADD PUSH3 0x8CF SWAP2 SWAP1 PUSH3 0x1297 JUMP JUMPDEST PUSH1 0x40 MLOAD PUSH1 0x20 DUP2 DUP4 SUB SUB DUP2 MSTORE SWAP1 PUSH1 0x40 MSTORE DUP1 MLOAD SWAP1 PUSH1 0x20 ADD KECCAK256 SWAP1 POP SWAP2 SWAP1 POP JUMP JUMPDEST PUSH1 0x0 PUSH3 0x92C PUSH1 0x40 MLOAD DUP1 PUSH1 0x40 ADD PUSH1 0x40 MSTORE DUP1 PUSH1 0x4 DUP2 MSTORE PUSH1 0x20 ADD PUSH4 0x1CD95959 PUSH1 0xE2 SHL DUP2 MSTORE POP PUSH1 0x0 DUP1 MLOAD PUSH1 0x20 PUSH3 0x300C DUP4 CODECOPY DUP2 MLOAD SWAP2 MSTORE DUP1 PUSH3 0xFE0 PUSH1 0x20 SHL PUSH1 0x20 SHR JUMP JUMPDEST ISZERO ISZERO PUSH1 0x1 EQ ISZERO PUSH3 0xC75 JUMPI PUSH3 0x941 PUSH3 0x1155 JUMP JUMPDEST ISZERO ISZERO PUSH1 0x1 EQ ISZERO PUSH3 0xB08 JUMPI CALLER PUSH1 0x0 SWAP1 DUP2 MSTORE PUSH1 0x20 DUP2 SWAP1 MSTORE PUSH1 0x40 SWAP1 KECCAK256 PUSH1 0x3 ADD SLOAD DUP3 GT ISZERO PUSH3 0x96C JUMPI PUSH1 0x0 DUP1 REVERT JUMPDEST PUSH1 0x3 CALLER PUSH1 0x0 SWAP1 DUP2 MSTORE PUSH1 0x20 DUP2 SWAP1 MSTORE PUSH1 0x40 SWAP1 KECCAK256 SLOAD PUSH1 0xFF AND PUSH1 0x4 DUP2 GT ISZERO PUSH3 0x995 JUMPI PUSH3 0x995 PUSH3 0x1373 JUMP JUMPDEST EQ PUSH3 0x9DC JUMPI PUSH1 0x40 MLOAD PUSH3 0x461BCD PUSH1 0xE5 SHL DUP2 MSTORE PUSH1 0x20 PUSH1 0x4 DUP3 ADD MSTORE PUSH1 0x11 PUSH1 0x24 DUP3 ADD MSTORE PUSH17 0x2CB7BAB9103737BA1034B73B32B9BA37B9 PUSH1 0x79 SHL PUSH1 0x44 DUP3 ADD MSTORE PUSH1 0x64 ADD JUMPDEST PUSH1 0x40 MLOAD DUP1 SWAP2 SUB SWAP1 REVERT JUMPDEST PUSH1 0x3 PUSH1 0x1 PUSH1 0x1 PUSH1 0xA0 SHL SUB DUP5 AND PUSH1 0x0 SWAP1 DUP2 MSTORE PUSH1 0x20 DUP2 SWAP1 MSTORE PUSH1 0x40 SWAP1 KECCAK256 SLOAD PUSH1 0xFF AND PUSH1 0x4 DUP2 GT ISZERO PUSH3 0xA0E JUMPI PUSH3 0xA0E PUSH3 0x1373 JUMP JUMPDEST EQ PUSH3 0xA51 JUMPI PUSH1 0x40 MLOAD PUSH3 0x461BCD PUSH1 0xE5 SHL DUP2 MSTORE PUSH1 0x20 PUSH1 0x4 DUP3 ADD MSTORE PUSH1 0x11 PUSH1 0x24 DUP3 ADD MSTORE PUSH17 0x2CB7BAB9103737BA1034B73B32B9BA37B9 PUSH1 0x79 SHL PUSH1 0x44 DUP3 ADD MSTORE PUSH1 0x64 ADD PUSH3 0x9D3 JUMP JUMPDEST CALLER PUSH1 0x0 SWAP1 DUP2 MSTORE PUSH1 0x20 DUP2 DUP2 MSTORE PUSH1 0x40 SWAP1 SWAP2 KECCAK256 PUSH1 0x3 ADD SLOAD PUSH3 0xA7B SWAP2 DUP5 SWAP1 PUSH3 0x15DC PUSH3 0x1192 DUP3 SHL OR SWAP1 SHR JUMP JUMPDEST CALLER PUSH1 0x0 SWAP1 DUP2 MSTORE PUSH1 0x20 DUP2 DUP2 MSTORE PUSH1 0x40 DUP1 DUP4 KECCAK256 PUSH1 0x3 ADD SWAP4 SWAP1 SWAP4 SSTORE PUSH1 0x1 PUSH1 0x1 PUSH1 0xA0 SHL SUB DUP7 AND DUP3 MSTORE SWAP2 SWAP1 KECCAK256 PUSH1 0x4 ADD SLOAD PUSH3 0xABB SWAP2 DUP5 SWAP1 PUSH3 0x15F8 PUSH3 0x11B3 DUP3 SHL OR SWAP1 SHR JUMP JUMPDEST PUSH1 0x1 PUSH1 0x1 PUSH1 0xA0 SHL SUB DUP5 AND PUSH1 0x0 DUP2 DUP2 MSTORE PUSH1 0x20 DUP2 DUP2 MSTORE PUSH1 0x40 SWAP2 DUP3 SWAP1 KECCAK256 PUSH1 0x4 ADD SWAP4 SWAP1 SWAP4 SSTORE MLOAD DUP5 DUP2 MSTORE SWAP1 SWAP2 CALLER SWAP2 PUSH1 0x0 DUP1 MLOAD PUSH1 0x20 PUSH3 0x2FCC DUP4 CODECOPY DUP2 MLOAD SWAP2 MSTORE SWAP2 ADD JUMPDEST PUSH1 0x40 MLOAD DUP1 SWAP2 SUB SWAP1 LOG3 POP PUSH1 0x1 PUSH3 0xFDA JUMP JUMPDEST CALLER PUSH1 0x0 SWAP1 DUP2 MSTORE PUSH1 0x20 DUP2 SWAP1 MSTORE PUSH1 0x40 SWAP1 KECCAK256 PUSH1 0x4 ADD SLOAD DUP3 GT ISZERO PUSH3 0xB28 JUMPI PUSH1 0x0 DUP1 REVERT JUMPDEST PUSH1 0x3 CALLER PUSH1 0x0 SWAP1 DUP2 MSTORE PUSH1 0x20 DUP2 SWAP1 MSTORE PUSH1 0x40 SWAP1 KECCAK256 SLOAD PUSH1 0xFF AND PUSH1 0x4 DUP2 GT ISZERO PUSH3 0xB51 JUMPI PUSH3 0xB51 PUSH3 0x1373 JUMP JUMPDEST EQ PUSH3 0xB94 JUMPI PUSH1 0x40 MLOAD PUSH3 0x461BCD PUSH1 0xE5 SHL DUP2 MSTORE PUSH1 0x20 PUSH1 0x4 DUP3 ADD MSTORE PUSH1 0x11 PUSH1 0x24 DUP3 ADD MSTORE PUSH17 0x2CB7BAB9103737BA1034B73B32B9BA37B9 PUSH1 0x79 SHL PUSH1 0x44 DUP3 ADD MSTORE PUSH1 0x64 ADD PUSH3 0x9D3 JUMP JUMPDEST PUSH1 0x3 PUSH1 0x1 PUSH1 0x1 PUSH1 0xA0 SHL SUB DUP5 AND PUSH1 0x0 SWAP1 DUP2 MSTORE PUSH1 0x20 DUP2 SWAP1 MSTORE PUSH1 0x40 SWAP1 KECCAK256 SLOAD PUSH1 0xFF AND PUSH1 0x4 DUP2 GT ISZERO PUSH3 0xBC6 JUMPI PUSH3 0xBC6 PUSH3 0x1373 JUMP JUMPDEST EQ PUSH3 0xC09 JUMPI PUSH1 0x40 MLOAD PUSH3 0x461BCD PUSH1 0xE5 SHL DUP2 MSTORE PUSH1 0x20 PUSH1 0x4 DUP3 ADD MSTORE PUSH1 0x11 PUSH1 0x24 DUP3 ADD MSTORE PUSH17 0x2CB7BAB9103737BA1034B73B32B9BA37B9 PUSH1 0x79 SHL PUSH1 0x44 DUP3 ADD MSTORE PUSH1 0x64 ADD PUSH3 0x9D3 JUMP JUMPDEST CALLER PUSH1 0x0 SWAP1 DUP2 MSTORE PUSH1 0x20 DUP2 DUP2 MSTORE PUSH1 0x40 SWAP1 SWAP2 KECCAK256 PUSH1 0x4 ADD SLOAD PUSH3 0xC33 SWAP2 DUP5 SWAP1 PUSH3 0x15DC PUSH3 0x1192 DUP3 SHL OR SWAP1 SHR JUMP JUMPDEST CALLER PUSH1 0x0 SWAP1 DUP2 MSTORE PUSH1 0x20 DUP2 DUP2 MSTORE PUSH1 0x40 DUP1 DUP4 KECCAK256 PUSH1 0x4 SWAP1 DUP2 ADD SWAP5 SWAP1 SWAP5 SSTORE PUSH1 0x1 PUSH1 0x1 PUSH1 0xA0 SHL SUB DUP8 AND DUP4 MSTORE SWAP1 SWAP2 KECCAK256 SWAP1 SWAP2 ADD SLOAD PUSH3 0xABB SWAP2 DUP5 SWAP1 PUSH3 0x15F8 PUSH3 0x11B3 DUP3 SHL OR SWAP1 SHR JUMP JUMPDEST PUSH1 0x40 DUP1 MLOAD DUP1 DUP3 ADD SWAP1 SWAP2 MSTORE PUSH1 0x7 DUP2 MSTORE PUSH7 0x70726976617465 PUSH1 0xC8 SHL PUSH1 0x20 DUP3 ADD MSTORE PUSH3 0xCAF SWAP1 PUSH1 0x0 DUP1 MLOAD PUSH1 0x20 PUSH3 0x300C DUP4 CODECOPY DUP2 MLOAD SWAP2 MSTORE DUP1 PUSH3 0xFE0 JUMP JUMPDEST ISZERO ISZERO PUSH1 0x1 EQ ISZERO PUSH3 0xE26 JUMPI PUSH3 0xCC4 PUSH3 0x1155 JUMP JUMPDEST ISZERO ISZERO PUSH1 0x1 EQ ISZERO PUSH3 0xD9A JUMPI CALLER PUSH1 0x0 SWAP1 DUP2 MSTORE PUSH1 0x20 DUP2 SWAP1 MSTORE PUSH1 0x40 SWAP1 KECCAK256 PUSH1 0x3 ADD SLOAD DUP3 GT ISZERO PUSH3 0xCEF JUMPI PUSH1 0x0 DUP1 REVERT JUMPDEST CALLER PUSH1 0x0 SWAP1 DUP2 MSTORE PUSH1 0x20 DUP2 DUP2 MSTORE PUSH1 0x40 SWAP1 SWAP2 KECCAK256 PUSH1 0x3 ADD SLOAD PUSH3 0xD19 SWAP2 DUP5 SWAP1 PUSH3 0x15DC PUSH3 0x1192 DUP3 SHL OR SWAP1 SHR JUMP JUMPDEST CALLER PUSH1 0x0 SWAP1 DUP2 MSTORE PUSH1 0x20 DUP2 DUP2 MSTORE PUSH1 0x40 DUP1 DUP4 KECCAK256 PUSH1 0x3 ADD SWAP4 SWAP1 SWAP4 SSTORE PUSH1 0x1 PUSH1 0x1 PUSH1 0xA0 SHL SUB DUP7 AND DUP3 MSTORE SWAP2 SWAP1 KECCAK256 PUSH1 0x5 ADD SLOAD PUSH3 0xD59 SWAP2 DUP5 SWAP1 PUSH3 0x15F8 PUSH3 0x11B3 DUP3 SHL OR SWAP1 SHR JUMP JUMPDEST PUSH1 0x1 PUSH1 0x1 PUSH1 0xA0 SHL SUB DUP5 AND PUSH1 0x0 DUP2 DUP2 MSTORE PUSH1 0x20 DUP2 DUP2 MSTORE PUSH1 0x40 SWAP2 DUP3 SWAP1 KECCAK256 PUSH1 0x5 ADD SWAP4 SWAP1 SWAP4 SSTORE MLOAD DUP5 DUP2 MSTORE SWAP1 SWAP2 CALLER SWAP2 PUSH1 0x0 DUP1 MLOAD PUSH1 0x20 PUSH3 0x2FCC DUP4 CODECOPY DUP2 MLOAD SWAP2 MSTORE SWAP2 ADD PUSH3 0xAF7 JUMP JUMPDEST CALLER PUSH1 0x0 SWAP1 DUP2 MSTORE PUSH1 0x20 DUP2 SWAP1 MSTORE PUSH1 0x40 SWAP1 KECCAK256 PUSH1 0x5 ADD SLOAD DUP3 GT ISZERO PUSH3 0xDBA JUMPI PUSH1 0x0 DUP1 REVERT JUMPDEST CALLER PUSH1 0x0 SWAP1 DUP2 MSTORE PUSH1 0x20 DUP2 DUP2 MSTORE PUSH1 0x40 SWAP1 SWAP2 KECCAK256 PUSH1 0x5 ADD SLOAD PUSH3 0xDE4 SWAP2 DUP5 SWAP1 PUSH3 0x15DC PUSH3 0x1192 DUP3 SHL OR SWAP1 SHR JUMP JUMPDEST CALLER PUSH1 0x0 SWAP1 DUP2 MSTORE PUSH1 0x20 DUP2 DUP2 MSTORE PUSH1 0x40 DUP1 DUP4 KECCAK256 PUSH1 0x5 SWAP1 DUP2 ADD SWAP5 SWAP1 SWAP5 SSTORE PUSH1 0x1 PUSH1 0x1 PUSH1 0xA0 SHL SUB DUP8 AND DUP4 MSTORE SWAP1 SWAP2 KECCAK256 SWAP1 SWAP2 ADD SLOAD PUSH3 0xD59 SWAP2 DUP5 SWAP1 PUSH3 0x15F8 PUSH3 0x11B3 DUP3 SHL OR SWAP1 SHR JUMP JUMPDEST PUSH1 0x40 DUP1 MLOAD DUP1 DUP3 ADD SWAP1 SWAP2 MSTORE PUSH1 0x6 DUP2 MSTORE PUSH6 0x7075626C6963 PUSH1 0xD0 SHL PUSH1 0x20 DUP3 ADD MSTORE PUSH3 0xE5F SWAP1 PUSH1 0x0 DUP1 MLOAD PUSH1 0x20 PUSH3 0x300C DUP4 CODECOPY DUP2 MLOAD SWAP2 MSTORE DUP1 PUSH3 0xFE0 JUMP JUMPDEST ISZERO ISZERO PUSH1 0x1 EQ ISZERO PUSH3 0xFD6 JUMPI PUSH3 0xE74 PUSH3 0x1155 JUMP JUMPDEST ISZERO ISZERO PUSH1 0x1 EQ ISZERO PUSH3 0xF4A JUMPI CALLER PUSH1 0x0 SWAP1 DUP2 MSTORE PUSH1 0x20 DUP2 SWAP1 MSTORE PUSH1 0x40 SWAP1 KECCAK256 PUSH1 0x3 ADD SLOAD DUP3 GT ISZERO PUSH3 0xE9F JUMPI PUSH1 0x0 DUP1 REVERT JUMPDEST CALLER PUSH1 0x0 SWAP1 DUP2 MSTORE PUSH1 0x20 DUP2 DUP2 MSTORE PUSH1 0x40 SWAP1 SWAP2 KECCAK256 PUSH1 0x3 ADD SLOAD PUSH3 0xEC9 SWAP2 DUP5 SWAP1 PUSH3 0x15DC PUSH3 0x1192 DUP3 SHL OR SWAP1 SHR JUMP JUMPDEST CALLER PUSH1 0x0 SWAP1 DUP2 MSTORE PUSH1 0x20 DUP2 DUP2 MSTORE PUSH1 0x40 DUP1 DUP4 KECCAK256 PUSH1 0x3 ADD SWAP4 SWAP1 SWAP4 SSTORE PUSH1 0x1 PUSH1 0x1 PUSH1 0xA0 SHL SUB DUP7 AND DUP3 MSTORE SWAP2 SWAP1 KECCAK256 PUSH1 0x6 ADD SLOAD PUSH3 0xF09 SWAP2 DUP5 SWAP1 PUSH3 0x15F8 PUSH3 0x11B3 DUP3 SHL OR SWAP1 SHR JUMP JUMPDEST PUSH1 0x1 PUSH1 0x1 PUSH1 0xA0 SHL SUB DUP5 AND PUSH1 0x0 DUP2 DUP2 MSTORE PUSH1 0x20 DUP2 DUP2 MSTORE PUSH1 0x40 SWAP2 DUP3 SWAP1 KECCAK256 PUSH1 0x6 ADD SWAP4 SWAP1 SWAP4 SSTORE MLOAD DUP5 DUP2 MSTORE SWAP1 SWAP2 CALLER SWAP2 PUSH1 0x0 DUP1 MLOAD PUSH1 0x20 PUSH3 0x2FCC DUP4 CODECOPY DUP2 MLOAD SWAP2 MSTORE SWAP2 ADD PUSH3 0xAF7 JUMP JUMPDEST CALLER PUSH1 0x0 SWAP1 DUP2 MSTORE PUSH1 0x20 DUP2 SWAP1 MSTORE PUSH1 0x40 SWAP1 KECCAK256 PUSH1 0x6 ADD SLOAD DUP3 GT ISZERO PUSH3 0xF6A JUMPI PUSH1 0x0 DUP1 REVERT JUMPDEST CALLER PUSH1 0x0 SWAP1 DUP2 MSTORE PUSH1 0x20 DUP2 DUP2 MSTORE PUSH1 0x40 SWAP1 SWAP2 KECCAK256 PUSH1 0x6 ADD SLOAD PUSH3 0xF94 SWAP2 DUP5 SWAP1 PUSH3 0x15DC PUSH3 0x1192 DUP3 SHL OR SWAP1 SHR JUMP JUMPDEST CALLER PUSH1 0x0 SWAP1 DUP2 MSTORE PUSH1 0x20 DUP2 DUP2 MSTORE PUSH1 0x40 DUP1 DUP4 KECCAK256 PUSH1 0x6 SWAP1 DUP2 ADD SWAP5 SWAP1 SWAP5 SSTORE PUSH1 0x1 PUSH1 0x1 PUSH1 0xA0 SHL SUB DUP8 AND DUP4 MSTORE SWAP1 SWAP2 KECCAK256 SWAP1 SWAP2 ADD SLOAD PUSH3 0xF09 SWAP2 DUP5 SWAP1 PUSH3 0x15F8 PUSH3 0x11B3 DUP3 SHL OR SWAP1 SHR JUMP JUMPDEST POP PUSH1 0x0 JUMPDEST SWAP3 SWAP2 POP POP JUMP JUMPDEST PUSH1 0x0 PUSH3 0x100F PUSH1 0x40 MLOAD DUP1 PUSH1 0x40 ADD PUSH1 0x40 MSTORE DUP1 PUSH1 0x4 DUP2 MSTORE PUSH1 0x20 ADD PUSH4 0x1CD95959 PUSH1 0xE2 SHL DUP2 MSTORE POP PUSH3 0x8BA PUSH1 0x20 SHL PUSH1 0x20 SHR JUMP JUMPDEST PUSH3 0x101A DUP6 PUSH3 0x8BA JUMP JUMPDEST EQ ISZERO PUSH3 0x107C JUMPI PUSH1 0x1 PUSH1 0x1 PUSH1 0xA0 SHL SUB DUP4 AND PUSH1 0x0 SWAP1 DUP2 MSTORE PUSH1 0x1 PUSH1 0x20 MSTORE PUSH1 0x40 SWAP1 KECCAK256 SLOAD PUSH1 0xFF AND ISZERO DUP1 ISZERO PUSH3 0x1064 JUMPI POP PUSH1 0x1 PUSH1 0x1 PUSH1 0xA0 SHL SUB DUP3 AND PUSH1 0x0 SWAP1 DUP2 MSTORE PUSH1 0x1 PUSH1 0x20 MSTORE PUSH1 0x40 SWAP1 KECCAK256 SLOAD PUSH1 0xFF AND ISZERO JUMPDEST ISZERO PUSH3 0x1073 JUMPI POP PUSH1 0x1 PUSH3 0x114E JUMP JUMPDEST POP PUSH1 0x0 PUSH3 0x114E JUMP JUMPDEST PUSH1 0x40 DUP1 MLOAD DUP1 DUP3 ADD SWAP1 SWAP2 MSTORE PUSH1 0x7 DUP2 MSTORE PUSH7 0x70726976617465 PUSH1 0xC8 SHL PUSH1 0x20 DUP3 ADD MSTORE PUSH3 0x10A5 SWAP1 PUSH3 0x8BA JUMP JUMPDEST PUSH3 0x10B0 DUP6 PUSH3 0x8BA JUMP JUMPDEST EQ ISZERO PUSH3 0x10E8 JUMPI PUSH1 0x1 PUSH1 0x1 PUSH1 0xA0 SHL SUB DUP4 AND PUSH1 0x0 SWAP1 DUP2 MSTORE PUSH1 0x1 PUSH1 0x20 DUP2 SWAP1 MSTORE PUSH1 0x40 SWAP1 SWAP2 KECCAK256 SLOAD PUSH1 0xFF AND ISZERO ISZERO EQ ISZERO PUSH3 0x1073 JUMPI POP PUSH1 0x1 PUSH3 0x114E JUMP JUMPDEST PUSH1 0x40 DUP1 MLOAD DUP1 DUP3 ADD SWAP1 SWAP2 MSTORE PUSH1 0x6 DUP2 MSTORE PUSH6 0x7075626C6963 PUSH1 0xD0 SHL PUSH1 0x20 DUP3 ADD MSTORE PUSH3 0x1110 SWAP1 PUSH3 0x8BA JUMP JUMPDEST PUSH3 0x111B DUP6 PUSH3 0x8BA JUMP JUMPDEST EQ ISZERO PUSH3 0x1073 JUMPI PUSH1 0x1 PUSH1 0x1 PUSH1 0xA0 SHL SUB DUP3 AND PUSH1 0x0 SWAP1 DUP2 MSTORE PUSH1 0x1 PUSH1 0x20 DUP2 SWAP1 MSTORE PUSH1 0x40 SWAP1 SWAP2 KECCAK256 SLOAD PUSH1 0xFF AND ISZERO ISZERO EQ ISZERO PUSH3 0x1073 JUMPI POP PUSH1 0x1 JUMPDEST SWAP4 SWAP3 POP POP POP JUMP JUMPDEST PUSH1 0x0 DUP1 CALLER PUSH1 0x0 SWAP1 DUP2 MSTORE PUSH1 0x20 DUP2 SWAP1 MSTORE PUSH1 0x40 SWAP1 KECCAK256 SLOAD PUSH1 0xFF AND PUSH1 0x4 DUP2 GT ISZERO PUSH3 0x117F JUMPI PUSH3 0x117F PUSH3 0x1373 JUMP JUMPDEST EQ ISZERO PUSH3 0x118C JUMPI POP PUSH1 0x1 SWAP1 JUMP JUMPDEST POP PUSH1 0x0 SWAP1 JUMP JUMPDEST PUSH1 0x0 DUP3 DUP3 GT ISZERO PUSH3 0x11A7 JUMPI PUSH3 0x11A7 PUSH3 0x1347 JUMP JUMPDEST PUSH3 0x114E DUP3 DUP5 PUSH3 0x12F0 JUMP JUMPDEST PUSH1 0x0 DUP1 PUSH3 0x11C2 DUP4 DUP6 PUSH3 0x12D5 JUMP JUMPDEST SWAP1 POP DUP4 DUP2 LT ISZERO PUSH3 0x114E JUMPI PUSH3 0x114E PUSH3 0x1347 JUMP JUMPDEST DUP3 DUP1 SLOAD PUSH3 0x11E5 SWAP1 PUSH3 0x130A JUMP JUMPDEST SWAP1 PUSH1 0x0 MSTORE PUSH1 0x20 PUSH1 0x0 KECCAK256 SWAP1 PUSH1 0x1F ADD PUSH1 0x20 SWAP1 DIV DUP2 ADD SWAP3 DUP3 PUSH3 0x1209 JUMPI PUSH1 0x0 DUP6 SSTORE PUSH3 0x1254 JUMP JUMPDEST DUP3 PUSH1 0x1F LT PUSH3 0x1224 JUMPI DUP1 MLOAD PUSH1 0xFF NOT AND DUP4 DUP1 ADD OR DUP6 SSTORE PUSH3 0x1254 JUMP JUMPDEST DUP3 DUP1 ADD PUSH1 0x1 ADD DUP6 SSTORE DUP3 ISZERO PUSH3 0x1254 JUMPI SWAP2 DUP3 ADD JUMPDEST DUP3 DUP2 GT ISZERO PUSH3 0x1254 JUMPI DUP3 MLOAD DUP3 SSTORE SWAP2 PUSH1 0x20 ADD SWAP2 SWAP1 PUSH1 0x1 ADD SWAP1 PUSH3 0x1237 JUMP JUMPDEST POP PUSH3 0x1262 SWAP3 SWAP2 POP PUSH3 0x1266 JUMP JUMPDEST POP SWAP1 JUMP JUMPDEST JUMPDEST DUP1 DUP3 GT ISZERO PUSH3 0x1262 JUMPI PUSH1 0x0 DUP2 SSTORE PUSH1 0x1 ADD PUSH3 0x1267 JUMP JUMPDEST PUSH1 0x0 PUSH1 0x20 DUP3 DUP5 SUB SLT ISZERO PUSH3 0x1290 JUMPI PUSH1 0x0 DUP1 REVERT JUMPDEST POP MLOAD SWAP2 SWAP1 POP JUMP JUMPDEST PUSH1 0x0 DUP3 MLOAD PUSH1 0x0 JUMPDEST DUP2 DUP2 LT ISZERO PUSH3 0x12BA JUMPI PUSH1 0x20 DUP2 DUP7 ADD DUP2 ADD MLOAD DUP6 DUP4 ADD MSTORE ADD PUSH3 0x129E JUMP JUMPDEST DUP2 DUP2 GT ISZERO PUSH3 0x12CA JUMPI PUSH1 0x0 DUP3 DUP6 ADD MSTORE JUMPDEST POP SWAP2 SWAP1 SWAP2 ADD SWAP3 SWAP2 POP POP JUMP JUMPDEST PUSH1 0x0 DUP3 NOT DUP3 GT ISZERO PUSH3 0x12EB JUMPI PUSH3 0x12EB PUSH3 0x135D JUMP JUMPDEST POP ADD SWAP1 JUMP JUMPDEST PUSH1 0x0 DUP3 DUP3 LT ISZERO PUSH3 0x1305 JUMPI PUSH3 0x1305 PUSH3 0x135D JUMP JUMPDEST POP SUB SWAP1 JUMP JUMPDEST PUSH1 0x1 DUP2 DUP2 SHR SWAP1 DUP3 AND DUP1 PUSH3 0x131F JUMPI PUSH1 0x7F DUP3 AND SWAP2 POP JUMPDEST PUSH1 0x20 DUP3 LT DUP2 EQ ISZERO PUSH3 0x1341 JUMPI PUSH4 0x4E487B71 PUSH1 0xE0 SHL PUSH1 0x0 MSTORE PUSH1 0x22 PUSH1 0x4 MSTORE PUSH1 0x24 PUSH1 0x0 REVERT JUMPDEST POP SWAP2 SWAP1 POP JUMP JUMPDEST PUSH4 0x4E487B71 PUSH1 0xE0 SHL PUSH1 0x0 MSTORE PUSH1 0x1 PUSH1 0x4 MSTORE PUSH1 0x24 PUSH1 0x0 REVERT JUMPDEST PUSH4 0x4E487B71 PUSH1 0xE0 SHL PUSH1 0x0 MSTORE PUSH1 0x11 PUSH1 0x4 MSTORE PUSH1 0x24 PUSH1 0x0 REVERT JUMPDEST PUSH4 0x4E487B71 PUSH1 0xE0 SHL PUSH1 0x0 MSTORE PUSH1 0x21 PUSH1 0x4 MSTORE PUSH1 0x24 PUSH1 0x0 REVERT JUMPDEST PUSH2 0x1C13 DUP1 PUSH3 0x1399 PUSH1 0x0 CODECOPY PUSH1 0x0 RETURN INVALID PUSH1 0x80 PUSH1 0x40 MSTORE PUSH1 0x4 CALLDATASIZE LT PUSH2 0xDD JUMPI PUSH1 0x0 CALLDATALOAD PUSH1 0xE0 SHR DUP1 PUSH4 0x785963C3 GT PUSH2 0x7F JUMPI DUP1 PUSH4 0x9D9E7A4B GT PUSH2 0x59 JUMPI DUP1 PUSH4 0x9D9E7A4B EQ PUSH2 0x29C JUMPI DUP1 PUSH4 0xA9059CBB EQ PUSH2 0x2BC JUMPI DUP1 PUSH4 0xD96A094A EQ PUSH2 0x2DC JUMPI DUP1 PUSH4 0xDD62ED3E EQ PUSH2 0x2EF JUMPI PUSH1 0x0 DUP1 REVERT JUMPDEST DUP1 PUSH4 0x785963C3 EQ PUSH2 0x211 JUMPI DUP1 PUSH4 0x8E4F8C6B EQ PUSH2 0x233 JUMPI DUP1 PUSH4 0x95D89B41 EQ PUSH2 0x253 JUMPI PUSH1 0x0 DUP1 REVERT JUMPDEST DUP1 PUSH4 0x18160DDD GT PUSH2 0xBB JUMPI DUP1 PUSH4 0x18160DDD EQ PUSH2 0x195 JUMPI DUP1 PUSH4 0x23B872DD EQ PUSH2 0x1AA JUMPI DUP1 PUSH4 0x313CE567 EQ PUSH2 0x1CA JUMPI DUP1 PUSH4 0x70A08231 EQ PUSH2 0x1F1 JUMPI PUSH1 0x0 DUP1 REVERT JUMPDEST DUP1 PUSH4 0x6FDDE03 EQ PUSH2 0xE2 JUMPI DUP1 PUSH4 0x761C8B9 EQ PUSH2 0x141 JUMPI DUP1 PUSH4 0x95EA7B3 EQ PUSH2 0x165 JUMPI JUMPDEST PUSH1 0x0 DUP1 REVERT JUMPDEST CALLVALUE DUP1 ISZERO PUSH2 0xEE JUMPI PUSH1 0x0 DUP1 REVERT JUMPDEST POP PUSH2 0x12B PUSH1 0x40 MLOAD DUP1 PUSH1 0x40 ADD PUSH1 0x40 MSTORE DUP1 PUSH1 0xD DUP2 MSTORE PUSH1 0x20 ADD PUSH32 0x43727970746F4D6F6E7374657200000000000000000000000000000000000000 DUP2 MSTORE POP DUP2 JUMP JUMPDEST PUSH1 0x40 MLOAD PUSH2 0x138 SWAP2 SWAP1 PUSH2 0x1A99 JUMP JUMPDEST PUSH1 0x40 MLOAD DUP1 SWAP2 SUB SWAP1 RETURN JUMPDEST CALLVALUE DUP1 ISZERO PUSH2 0x14D JUMPI PUSH1 0x0 DUP1 REVERT JUMPDEST POP PUSH2 0x157 PUSH1 0x8 SLOAD DUP2 JUMP JUMPDEST PUSH1 0x40 MLOAD SWAP1 DUP2 MSTORE PUSH1 0x20 ADD PUSH2 0x138 JUMP JUMPDEST CALLVALUE DUP1 ISZERO PUSH2 0x171 JUMPI PUSH1 0x0 DUP1 REVERT JUMPDEST POP PUSH2 0x185 PUSH2 0x180 CALLDATASIZE PUSH1 0x4 PUSH2 0x1967 JUMP JUMPDEST PUSH2 0x335 JUMP JUMPDEST PUSH1 0x40 MLOAD SWAP1 ISZERO ISZERO DUP2 MSTORE PUSH1 0x20 ADD PUSH2 0x138 JUMP JUMPDEST CALLVALUE DUP1 ISZERO PUSH2 0x1A1 JUMPI PUSH1 0x0 DUP1 REVERT JUMPDEST POP PUSH1 0x7 SLOAD PUSH2 0x157 JUMP JUMPDEST CALLVALUE DUP1 ISZERO PUSH2 0x1B6 JUMPI PUSH1 0x0 DUP1 REVERT JUMPDEST POP PUSH2 0x185 PUSH2 0x1C5 CALLDATASIZE PUSH1 0x4 PUSH2 0x192B JUMP JUMPDEST PUSH2 0x3A2 JUMP JUMPDEST CALLVALUE DUP1 ISZERO PUSH2 0x1D6 JUMPI PUSH1 0x0 DUP1 REVERT JUMPDEST POP PUSH2 0x1DF PUSH1 0xC DUP2 JUMP JUMPDEST PUSH1 0x40 MLOAD PUSH1 0xFF SWAP1 SWAP2 AND DUP2 MSTORE PUSH1 0x20 ADD PUSH2 0x138 JUMP JUMPDEST CALLVALUE DUP1 ISZERO PUSH2 0x1FD JUMPI PUSH1 0x0 DUP1 REVERT JUMPDEST POP PUSH2 0x157 PUSH2 0x20C CALLDATASIZE PUSH1 0x4 PUSH2 0x18DD JUMP JUMPDEST PUSH2 0x91D JUMP JUMPDEST CALLVALUE DUP1 ISZERO PUSH2 0x21D JUMPI PUSH1 0x0 DUP1 REVERT JUMPDEST POP PUSH2 0x231 PUSH2 0x22C CALLDATASIZE PUSH1 0x4 PUSH2 0x19F0 JUMP JUMPDEST PUSH2 0xAB4 JUMP JUMPDEST STOP JUMPDEST CALLVALUE DUP1 ISZERO PUSH2 0x23F JUMPI PUSH1 0x0 DUP1 REVERT JUMPDEST POP PUSH2 0x157 PUSH2 0x24E CALLDATASIZE PUSH1 0x4 PUSH2 0x19B3 JUMP JUMPDEST PUSH2 0xC85 JUMP JUMPDEST CALLVALUE DUP1 ISZERO PUSH2 0x25F JUMPI PUSH1 0x0 DUP1 REVERT JUMPDEST POP PUSH2 0x12B PUSH1 0x40 MLOAD DUP1 PUSH1 0x40 ADD PUSH1 0x40 MSTORE DUP1 PUSH1 0x4 DUP2 MSTORE PUSH1 0x20 ADD PUSH32 0x434D4F4E00000000000000000000000000000000000000000000000000000000 DUP2 MSTORE POP DUP2 JUMP JUMPDEST CALLVALUE DUP1 ISZERO PUSH2 0x2A8 JUMPI PUSH1 0x0 DUP1 REVERT JUMPDEST POP PUSH2 0x231 PUSH2 0x2B7 CALLDATASIZE PUSH1 0x4 PUSH2 0x1991 JUMP JUMPDEST PUSH2 0xCB5 JUMP JUMPDEST CALLVALUE DUP1 ISZERO PUSH2 0x2C8 JUMPI PUSH1 0x0 DUP1 REVERT JUMPDEST POP PUSH2 0x185 PUSH2 0x2D7 CALLDATASIZE PUSH1 0x4 PUSH2 0x1967 JUMP JUMPDEST PUSH2 0xD2B JUMP JUMPDEST PUSH2 0x231 PUSH2 0x2EA CALLDATASIZE PUSH1 0x4 PUSH2 0x1A64 JUMP JUMPDEST PUSH2 0x1383 JUMP JUMPDEST CALLVALUE DUP1 ISZERO PUSH2 0x2FB JUMPI PUSH1 0x0 DUP1 REVERT JUMPDEST POP PUSH2 0x157 PUSH2 0x30A CALLDATASIZE PUSH1 0x4 PUSH2 0x18F8 JUMP JUMPDEST PUSH1 0x1 PUSH1 0x1 PUSH1 0xA0 SHL SUB SWAP2 DUP3 AND PUSH1 0x0 SWAP1 DUP2 MSTORE PUSH1 0x6 PUSH1 0x20 SWAP1 DUP2 MSTORE PUSH1 0x40 DUP1 DUP4 KECCAK256 SWAP4 SWAP1 SWAP5 AND DUP3 MSTORE SWAP2 SWAP1 SWAP2 MSTORE KECCAK256 SLOAD SWAP1 JUMP JUMPDEST CALLER PUSH1 0x0 DUP2 DUP2 MSTORE PUSH1 0x6 PUSH1 0x20 SWAP1 DUP2 MSTORE PUSH1 0x40 DUP1 DUP4 KECCAK256 PUSH1 0x1 PUSH1 0x1 PUSH1 0xA0 SHL SUB DUP8 AND DUP1 DUP6 MSTORE SWAP3 MSTORE DUP1 DUP4 KECCAK256 DUP6 SWAP1 SSTORE MLOAD SWAP2 SWAP3 SWAP1 SWAP2 PUSH32 0x8C5BE1E5EBEC7D5BD14F71427D1E84F3DD0314C0F7B2291E5B200AC8C7C3B925 SWAP1 PUSH2 0x390 SWAP1 DUP7 DUP2 MSTORE PUSH1 0x20 ADD SWAP1 JUMP JUMPDEST PUSH1 0x40 MLOAD DUP1 SWAP2 SUB SWAP1 LOG3 POP PUSH1 0x1 JUMPDEST SWAP3 SWAP2 POP POP JUMP JUMPDEST PUSH1 0x0 PUSH2 0x3DF PUSH1 0x40 MLOAD DUP1 PUSH1 0x40 ADD PUSH1 0x40 MSTORE DUP1 PUSH1 0x4 DUP2 MSTORE PUSH1 0x20 ADD PUSH4 0x1CD95959 PUSH1 0xE2 SHL DUP2 MSTORE POP PUSH20 0xAB8483F64D9C6D1ECF9B849AE677DD3315835CB2 DUP1 PUSH2 0x1617 JUMP JUMPDEST ISZERO ISZERO PUSH1 0x1 EQ ISZERO PUSH2 0x579 JUMPI PUSH2 0x3F1 PUSH2 0x1767 JUMP JUMPDEST ISZERO ISZERO PUSH1 0x1 EQ ISZERO PUSH2 0x551 JUMPI PUSH1 0x1 PUSH1 0x1 PUSH1 0xA0 SHL SUB DUP5 AND PUSH1 0x0 SWAP1 DUP2 MSTORE PUSH1 0x20 DUP2 SWAP1 MSTORE PUSH1 0x40 SWAP1 KECCAK256 PUSH1 0x3 ADD SLOAD DUP3 GT ISZERO PUSH2 0x423 JUMPI PUSH1 0x0 DUP1 REVERT JUMPDEST PUSH1 0x1 PUSH1 0x1 PUSH1 0xA0 SHL SUB DUP5 AND PUSH1 0x0 SWAP1 DUP2 MSTORE PUSH1 0x6 PUSH1 0x20 SWAP1 DUP2 MSTORE PUSH1 0x40 DUP1 DUP4 KECCAK256 CALLER DUP5 MSTORE SWAP1 SWAP2 MSTORE SWAP1 KECCAK256 SLOAD DUP3 GT ISZERO PUSH2 0x453 JUMPI PUSH1 0x0 DUP1 REVERT JUMPDEST PUSH1 0x1 PUSH1 0x1 PUSH1 0xA0 SHL SUB DUP5 AND PUSH1 0x0 SWAP1 DUP2 MSTORE PUSH1 0x20 DUP2 SWAP1 MSTORE PUSH1 0x40 SWAP1 KECCAK256 PUSH1 0x4 ADD SLOAD PUSH2 0x479 SWAP1 DUP4 PUSH2 0x15DC JUMP JUMPDEST PUSH1 0x1 PUSH1 0x1 PUSH1 0xA0 SHL SUB DUP6 AND PUSH1 0x0 SWAP1 DUP2 MSTORE PUSH1 0x20 DUP2 DUP2 MSTORE PUSH1 0x40 DUP1 DUP4 KECCAK256 PUSH1 0x4 ADD SWAP4 SWAP1 SWAP4 SSTORE PUSH1 0x6 DUP2 MSTORE DUP3 DUP3 KECCAK256 CALLER DUP4 MSTORE SWAP1 MSTORE KECCAK256 SLOAD PUSH2 0x4B1 SWAP1 DUP4 PUSH2 0x15DC JUMP JUMPDEST PUSH1 0x1 PUSH1 0x1 PUSH1 0xA0 SHL SUB DUP1 DUP7 AND PUSH1 0x0 SWAP1 DUP2 MSTORE PUSH1 0x6 PUSH1 0x20 SWAP1 DUP2 MSTORE PUSH1 0x40 DUP1 DUP4 KECCAK256 CALLER DUP5 MSTORE DUP3 MSTORE DUP1 DUP4 KECCAK256 SWAP5 SWAP1 SWAP5 SSTORE SWAP2 DUP7 AND DUP2 MSTORE SWAP1 DUP2 SWAP1 MSTORE KECCAK256 PUSH1 0x4 ADD SLOAD PUSH2 0x4F1 SWAP1 DUP4 PUSH2 0x15F8 JUMP JUMPDEST PUSH1 0x1 PUSH1 0x1 PUSH1 0xA0 SHL SUB DUP5 DUP2 AND PUSH1 0x0 DUP2 DUP2 MSTORE PUSH1 0x20 DUP2 DUP2 MSTORE PUSH1 0x40 SWAP2 DUP3 SWAP1 KECCAK256 PUSH1 0x4 ADD SWAP5 SWAP1 SWAP5 SSTORE MLOAD DUP6 DUP2 MSTORE SWAP1 SWAP3 SWAP2 DUP8 AND SWAP2 PUSH32 0xDDF252AD1BE2C89B69C2B068FC378DAA952BA7F163C4A11628F55A4DF523B3EF SWAP2 ADD JUMPDEST PUSH1 0x40 MLOAD DUP1 SWAP2 SUB SWAP1 LOG3 POP PUSH1 0x1 PUSH2 0x916 JUMP JUMPDEST PUSH1 0x1 PUSH1 0x1 PUSH1 0xA0 SHL SUB DUP5 AND PUSH1 0x0 SWAP1 DUP2 MSTORE PUSH1 0x20 DUP2 SWAP1 MSTORE PUSH1 0x40 SWAP1 KECCAK256 PUSH1 0x4 ADD SLOAD DUP3 GT ISZERO PUSH2 0x423 JUMPI PUSH1 0x0 DUP1 REVERT JUMPDEST PUSH2 0x5B7 PUSH1 0x40 MLOAD DUP1 PUSH1 0x40 ADD PUSH1 0x40 MSTORE DUP1 PUSH1 0x7 DUP2 MSTORE PUSH1 0x20 ADD PUSH7 0x70726976617465 PUSH1 0xC8 SHL DUP2 MSTORE POP PUSH20 0xAB8483F64D9C6D1ECF9B849AE677DD3315835CB2 DUP1 PUSH2 0x1617 JUMP JUMPDEST ISZERO ISZERO PUSH1 0x1 EQ ISZERO PUSH2 0x745 JUMPI PUSH2 0x5C9 PUSH2 0x1767 JUMP JUMPDEST ISZERO ISZERO PUSH1 0x1 EQ ISZERO PUSH2 0x5FB JUMPI PUSH1 0x1 PUSH1 0x1 PUSH1 0xA0 SHL SUB DUP5 AND PUSH1 0x0 SWAP1 DUP2 MSTORE PUSH1 0x20 DUP2 SWAP1 MSTORE PUSH1 0x40 SWAP1 KECCAK256 PUSH1 0x3 ADD SLOAD DUP3 GT ISZERO PUSH2 0x423 JUMPI PUSH1 0x0 DUP1 REVERT JUMPDEST PUSH1 0x1 PUSH1 0x1 PUSH1 0xA0 SHL SUB DUP5 AND PUSH1 0x0 SWAP1 DUP2 MSTORE PUSH1 0x20 DUP2 SWAP1 MSTORE PUSH1 0x40 SWAP1 KECCAK256 PUSH1 0x5 ADD SLOAD DUP3 GT ISZERO PUSH2 0x623 JUMPI PUSH1 0x0 DUP1 REVERT JUMPDEST PUSH1 0x1 PUSH1 0x1 PUSH1 0xA0 SHL SUB DUP5 AND PUSH1 0x0 SWAP1 DUP2 MSTORE PUSH1 0x6 PUSH1 0x20 SWAP1 DUP2 MSTORE PUSH1 0x40 DUP1 DUP4 KECCAK256 CALLER DUP5 MSTORE SWAP1 SWAP2 MSTORE SWAP1 KECCAK256 SLOAD DUP3 GT ISZERO PUSH2 0x653 JUMPI PUSH1 0x0 DUP1 REVERT JUMPDEST PUSH1 0x1 PUSH1 0x1 PUSH1 0xA0 SHL SUB DUP5 AND PUSH1 0x0 SWAP1 DUP2 MSTORE PUSH1 0x20 DUP2 SWAP1 MSTORE PUSH1 0x40 SWAP1 KECCAK256 PUSH1 0x5 ADD SLOAD PUSH2 0x679 SWAP1 DUP4 PUSH2 0x15DC JUMP JUMPDEST PUSH1 0x1 PUSH1 0x1 PUSH1 0xA0 SHL SUB DUP6 AND PUSH1 0x0 SWAP1 DUP2 MSTORE PUSH1 0x20 DUP2 DUP2 MSTORE PUSH1 0x40 DUP1 DUP4 KECCAK256 PUSH1 0x5 ADD SWAP4 SWAP1 SWAP4 SSTORE PUSH1 0x6 DUP2 MSTORE DUP3 DUP3 KECCAK256 CALLER DUP4 MSTORE SWAP1 MSTORE KECCAK256 SLOAD PUSH2 0x6B1 SWAP1 DUP4 PUSH2 0x15DC JUMP JUMPDEST PUSH1 0x1 PUSH1 0x1 PUSH1 0xA0 SHL SUB DUP1 DUP7 AND PUSH1 0x0 SWAP1 DUP2 MSTORE PUSH1 0x6 PUSH1 0x20 SWAP1 DUP2 MSTORE PUSH1 0x40 DUP1 DUP4 KECCAK256 CALLER DUP5 MSTORE DUP3 MSTORE DUP1 DUP4 KECCAK256 SWAP5 SWAP1 SWAP5 SSTORE SWAP2 DUP7 AND DUP2 MSTORE SWAP1 DUP2 SWAP1 MSTORE KECCAK256 PUSH1 0x5 ADD SLOAD PUSH2 0x6F1 SWAP1 DUP4 PUSH2 0x15F8 JUMP JUMPDEST PUSH1 0x1 PUSH1 0x1 PUSH1 0xA0 SHL SUB DUP5 DUP2 AND PUSH1 0x0 DUP2 DUP2 MSTORE PUSH1 0x20 DUP2 DUP2 MSTORE PUSH1 0x40 SWAP2 DUP3 SWAP1 KECCAK256 PUSH1 0x5 ADD SWAP5 SWAP1 SWAP5 SSTORE MLOAD DUP6 DUP2 MSTORE SWAP1 SWAP3 SWAP2 DUP8 AND SWAP2 PUSH32 0xDDF252AD1BE2C89B69C2B068FC378DAA952BA7F163C4A11628F55A4DF523B3EF SWAP2 ADD PUSH2 0x541 JUMP JUMPDEST PUSH2 0x782 PUSH1 0x40 MLOAD DUP1 PUSH1 0x40 ADD PUSH1 0x40 MSTORE DUP1 PUSH1 0x6 DUP2 MSTORE PUSH1 0x20 ADD PUSH6 0x7075626C6963 PUSH1 0xD0 SHL DUP2 MSTORE POP PUSH20 0xAB8483F64D9C6D1ECF9B849AE677DD3315835CB2 DUP1 PUSH2 0x1617 JUMP JUMPDEST ISZERO ISZERO PUSH1 0x1 EQ ISZERO PUSH2 0x912 JUMPI PUSH2 0x794 PUSH2 0x1767 JUMP JUMPDEST ISZERO ISZERO PUSH1 0x1 EQ ISZERO PUSH2 0x7C6 JUMPI PUSH1 0x1 PUSH1 0x1 PUSH1 0xA0 SHL SUB DUP5 AND PUSH1 0x0 SWAP1 DUP2 MSTORE PUSH1 0x20 DUP2 SWAP1 MSTORE PUSH1 0x40 SWAP1 KECCAK256 PUSH1 0x3 ADD SLOAD DUP3 GT ISZERO PUSH2 0x423 JUMPI PUSH1 0x0 DUP1 REVERT JUMPDEST PUSH1 0x1 PUSH1 0x1 PUSH1 0xA0 SHL SUB DUP5 AND PUSH1 0x0 SWAP1 DUP2 MSTORE PUSH1 0x20 DUP2 SWAP1 MSTORE PUSH1 0x40 SWAP1 KECCAK256 PUSH1 0x6 ADD SLOAD DUP3 GT ISZERO PUSH2 0x7EE JUMPI PUSH1 0x0 DUP1 REVERT JUMPDEST PUSH1 0x1 PUSH1 0x1 PUSH1 0xA0 SHL SUB DUP5 AND PUSH1 0x0 SWAP1 DUP2 MSTORE PUSH1 0x6 PUSH1 0x20 SWAP1 DUP2 MSTORE PUSH1 0x40 DUP1 DUP4 KECCAK256 CALLER DUP5 MSTORE SWAP1 SWAP2 MSTORE SWAP1 KECCAK256 SLOAD DUP3 GT ISZERO PUSH2 0x81E JUMPI PUSH1 0x0 DUP1 REVERT JUMPDEST PUSH1 0x1 PUSH1 0x1 PUSH1 0xA0 SHL SUB DUP5 AND PUSH1 0x0 SWAP1 DUP2 MSTORE PUSH1 0x20 DUP2 SWAP1 MSTORE PUSH1 0x40 SWAP1 KECCAK256 PUSH1 0x6 ADD SLOAD PUSH2 0x844 SWAP1 DUP4 PUSH2 0x15DC JUMP JUMPDEST PUSH1 0x1 PUSH1 0x1 PUSH1 0xA0 SHL SUB DUP6 AND PUSH1 0x0 SWAP1 DUP2 MSTORE PUSH1 0x20 DUP2 DUP2 MSTORE PUSH1 0x40 DUP1 DUP4 KECCAK256 PUSH1 0x6 SWAP1 DUP2 ADD SWAP5 SWAP1 SWAP5 SSTORE SWAP3 DUP2 MSTORE DUP3 DUP3 KECCAK256 CALLER DUP4 MSTORE SWAP1 MSTORE KECCAK256 SLOAD PUSH2 0x87D SWAP1 DUP4 PUSH2 0x15DC JUMP JUMPDEST PUSH1 0x1 PUSH1 0x1 PUSH1 0xA0 SHL SUB DUP1 DUP7 AND PUSH1 0x0 SWAP1 DUP2 MSTORE PUSH1 0x6 PUSH1 0x20 DUP2 DUP2 MSTORE PUSH1 0x40 DUP1 DUP5 KECCAK256 CALLER DUP6 MSTORE DUP3 MSTORE DUP1 DUP5 KECCAK256 SWAP6 SWAP1 SWAP6 SSTORE SWAP3 DUP8 AND DUP3 MSTORE SWAP2 DUP2 SWAP1 MSTORE SWAP2 SWAP1 SWAP2 KECCAK256 ADD SLOAD PUSH2 0x8BE SWAP1 DUP4 PUSH2 0x15F8 JUMP JUMPDEST PUSH1 0x1 PUSH1 0x1 PUSH1 0xA0 SHL SUB DUP5 DUP2 AND PUSH1 0x0 DUP2 DUP2 MSTORE PUSH1 0x20 DUP2 DUP2 MSTORE PUSH1 0x40 SWAP2 DUP3 SWAP1 KECCAK256 PUSH1 0x6 ADD SWAP5 SWAP1 SWAP5 SSTORE MLOAD DUP6 DUP2 MSTORE SWAP1 SWAP3 SWAP2 DUP8 AND SWAP2 PUSH32 0xDDF252AD1BE2C89B69C2B068FC378DAA952BA7F163C4A11628F55A4DF523B3EF SWAP2 ADD PUSH2 0x541 JUMP JUMPDEST POP PUSH1 0x0 JUMPDEST SWAP4 SWAP3 POP POP POP JUMP JUMPDEST PUSH20 0xAB8483F64D9C6D1ECF9B849AE677DD3315835CB2 PUSH1 0x0 SWAP1 DUP2 MSTORE PUSH1 0x1 PUSH1 0x20 MSTORE PUSH32 0x9D4D959825F0680278E64197773B2A50CD78B2B2CB00711DDBEEBF0BF93CD8A4 SLOAD PUSH1 0xFF AND ISZERO DUP1 ISZERO PUSH2 0x9AD JUMPI POP PUSH20 0xAB8483F64D9C6D1ECF9B849AE677DD3315835CB2 PUSH1 0x0 MSTORE PUSH1 0x1 PUSH1 0x20 MSTORE PUSH32 0x9D4D959825F0680278E64197773B2A50CD78B2B2CB00711DDBEEBF0BF93CD8A4 SLOAD PUSH1 0xFF AND ISZERO JUMPDEST ISZERO PUSH2 0x9D1 JUMPI POP PUSH1 0x1 PUSH1 0x1 PUSH1 0xA0 SHL SUB AND PUSH1 0x0 SWAP1 DUP2 MSTORE PUSH1 0x20 DUP2 SWAP1 MSTORE PUSH1 0x40 SWAP1 KECCAK256 PUSH1 0x4 ADD SLOAD SWAP1 JUMP JUMPDEST PUSH20 0xAB8483F64D9C6D1ECF9B849AE677DD3315835CB2 PUSH1 0x0 MSTORE PUSH1 0x1 PUSH1 0x20 DUP2 SWAP1 MSTORE PUSH32 0x9D4D959825F0680278E64197773B2A50CD78B2B2CB00711DDBEEBF0BF93CD8A4 SLOAD PUSH1 0xFF AND ISZERO ISZERO EQ ISZERO PUSH2 0xA3C JUMPI POP PUSH1 0x1 PUSH1 0x1 PUSH1 0xA0 SHL SUB AND PUSH1 0x0 SWAP1 DUP2 MSTORE PUSH1 0x20 DUP2 SWAP1 MSTORE PUSH1 0x40 SWAP1 KECCAK256 PUSH1 0x5 ADD SLOAD SWAP1 JUMP JUMPDEST PUSH20 0xAB8483F64D9C6D1ECF9B849AE677DD3315835CB2 PUSH1 0x0 MSTORE PUSH1 0x1 PUSH1 0x20 DUP2 SWAP1 MSTORE PUSH32 0x9D4D959825F0680278E64197773B2A50CD78B2B2CB00711DDBEEBF0BF93CD8A4 SLOAD PUSH1 0xFF AND ISZERO ISZERO EQ ISZERO PUSH2 0xAA7 JUMPI POP PUSH1 0x1 PUSH1 0x1 PUSH1 0xA0 SHL SUB AND PUSH1 0x0 SWAP1 DUP2 MSTORE PUSH1 0x20 DUP2 SWAP1 MSTORE PUSH1 0x40 SWAP1 KECCAK256 PUSH1 0x6 ADD SLOAD SWAP1 JUMP JUMPDEST POP PUSH1 0x0 SWAP2 SWAP1 POP JUMP JUMPDEST SWAP2 SWAP1 POP JUMP JUMPDEST CALLER PUSH1 0x0 SWAP1 DUP2 MSTORE PUSH1 0x2 PUSH1 0x20 DUP2 SWAP1 MSTORE PUSH1 0x40 SWAP1 SWAP2 KECCAK256 ADD SLOAD PUSH1 0x1 PUSH1 0xB0 SHL SWAP1 DIV PUSH1 0xFF AND ISZERO ISZERO PUSH1 0x1 EQ PUSH2 0xB28 JUMPI PUSH1 0x40 MLOAD PUSH3 0x461BCD PUSH1 0xE5 SHL DUP2 MSTORE PUSH1 0x20 PUSH1 0x4 DUP3 ADD MSTORE PUSH1 0x19 PUSH1 0x24 DUP3 ADD MSTORE PUSH32 0x4170706C69636174696F6E20616C72656164792073656E742100000000000000 PUSH1 0x44 DUP3 ADD MSTORE PUSH1 0x64 ADD JUMPDEST PUSH1 0x40 MLOAD DUP1 SWAP2 SUB SWAP1 REVERT JUMPDEST PUSH1 0x40 DUP1 MLOAD PUSH1 0xC0 DUP2 ADD DUP3 MSTORE DUP5 DUP2 MSTORE PUSH1 0x20 DUP1 DUP3 ADD DUP6 SWAP1 MSTORE PUSH1 0x1 PUSH1 0x1 PUSH1 0xA0 SHL SUB DUP5 AND DUP3 DUP5 ADD MSTORE PUSH1 0x1 PUSH1 0x60 DUP4 ADD DUP2 SWAP1 MSTORE PUSH1 0x0 PUSH1 0x80 DUP5 ADD DUP2 SWAP1 MSTORE PUSH1 0xA0 DUP5 ADD SWAP2 SWAP1 SWAP2 MSTORE CALLER DUP2 MSTORE PUSH1 0x2 DUP3 MSTORE SWAP3 SWAP1 SWAP3 KECCAK256 DUP2 MLOAD DUP1 MLOAD SWAP3 SWAP4 SWAP2 SWAP3 PUSH2 0xB85 SWAP3 DUP5 SWAP3 ADD SWAP1 PUSH2 0x17A0 JUMP JUMPDEST POP PUSH1 0x20 DUP3 DUP2 ADD MLOAD DUP1 MLOAD PUSH2 0xB9E SWAP3 PUSH1 0x1 DUP6 ADD SWAP3 ADD SWAP1 PUSH2 0x17A0 JUMP JUMPDEST POP PUSH1 0x40 DUP3 ADD MLOAD PUSH1 0x2 SWAP1 SWAP2 ADD DUP1 SLOAD PUSH1 0x60 DUP5 ADD MLOAD PUSH1 0x80 DUP6 ADD MLOAD PUSH1 0xA0 SWAP1 SWAP6 ADD MLOAD ISZERO ISZERO PUSH1 0x1 PUSH1 0xB0 SHL MUL PUSH32 0xFFFFFFFFFFFFFFFFFF00FFFFFFFFFFFFFFFFFFFFFFFFFFFFFFFFFFFFFFFFFFFF SWAP6 ISZERO ISZERO PUSH22 0x1000000000000000000000000000000000000000000 MUL SWAP6 SWAP1 SWAP6 AND PUSH32 0xFFFFFFFFFFFFFFFFFF0000FFFFFFFFFFFFFFFFFFFFFFFFFFFFFFFFFFFFFFFFFF SWAP2 ISZERO ISZERO PUSH21 0x10000000000000000000000000000000000000000 MUL PUSH32 0xFFFFFFFFFFFFFFFFFFFFFF000000000000000000000000000000000000000000 SWAP1 SWAP4 AND PUSH1 0x1 PUSH1 0x1 PUSH1 0xA0 SHL SUB SWAP1 SWAP6 AND SWAP5 SWAP1 SWAP5 OR SWAP2 SWAP1 SWAP2 OR AND SWAP2 SWAP1 SWAP2 OR SWAP2 SWAP1 SWAP2 OR SWAP1 SSTORE POP POP POP JUMP JUMPDEST PUSH1 0x0 DUP2 PUSH1 0x40 MLOAD PUSH1 0x20 ADD PUSH2 0xC98 SWAP2 SWAP1 PUSH2 0x1A7D JUMP JUMPDEST PUSH1 0x40 MLOAD PUSH1 0x20 DUP2 DUP4 SUB SUB DUP2 MSTORE SWAP1 PUSH1 0x40 MSTORE DUP1 MLOAD SWAP1 PUSH1 0x20 ADD KECCAK256 SWAP1 POP SWAP2 SWAP1 POP JUMP JUMPDEST PUSH1 0x2 CALLER PUSH1 0x0 SWAP1 DUP2 MSTORE PUSH1 0x20 DUP2 SWAP1 MSTORE PUSH1 0x40 SWAP1 KECCAK256 SLOAD PUSH1 0xFF AND PUSH1 0x4 DUP2 GT ISZERO PUSH2 0xCDB JUMPI PUSH2 0xCDB PUSH2 0x1BB1 JUMP JUMPDEST EQ PUSH2 0xD28 JUMPI PUSH1 0x40 MLOAD PUSH3 0x461BCD PUSH1 0xE5 SHL DUP2 MSTORE PUSH1 0x20 PUSH1 0x4 DUP3 ADD MSTORE PUSH1 0x1F PUSH1 0x24 DUP3 ADD MSTORE PUSH32 0x596F7520617265206E6F74206120707269766174652070726F76696465722100 PUSH1 0x44 DUP3 ADD MSTORE PUSH1 0x64 ADD PUSH2 0xB1F JUMP JUMPDEST POP JUMP JUMPDEST PUSH1 0x0 PUSH2 0xD68 PUSH1 0x40 MLOAD DUP1 PUSH1 0x40 ADD PUSH1 0x40 MSTORE DUP1 PUSH1 0x4 DUP2 MSTORE PUSH1 0x20 ADD PUSH4 0x1CD95959 PUSH1 0xE2 SHL DUP2 MSTORE POP PUSH20 0xAB8483F64D9C6D1ECF9B849AE677DD3315835CB2 DUP1 PUSH2 0x1617 JUMP JUMPDEST ISZERO ISZERO PUSH1 0x1 EQ ISZERO PUSH2 0x106C JUMPI PUSH2 0xD7A PUSH2 0x1767 JUMP JUMPDEST ISZERO ISZERO PUSH1 0x1 EQ ISZERO PUSH2 0xF26 JUMPI CALLER PUSH1 0x0 SWAP1 DUP2 MSTORE PUSH1 0x20 DUP2 SWAP1 MSTORE PUSH1 0x40 SWAP1 KECCAK256 PUSH1 0x3 ADD SLOAD DUP3 GT ISZERO PUSH2 0xDA3 JUMPI PUSH1 0x0 DUP1 REVERT JUMPDEST PUSH1 0x3 CALLER PUSH1 0x0 SWAP1 DUP2 MSTORE PUSH1 0x20 DUP2 SWAP1 MSTORE PUSH1 0x40 SWAP1 KECCAK256 SLOAD PUSH1 0xFF AND PUSH1 0x4 DUP2 GT ISZERO PUSH2 0xDC9 JUMPI PUSH2 0xDC9 PUSH2 0x1BB1 JUMP JUMPDEST EQ PUSH2 0xE0A JUMPI PUSH1 0x40 MLOAD PUSH3 0x461BCD PUSH1 0xE5 SHL DUP2 MSTORE PUSH1 0x20 PUSH1 0x4 DUP3 ADD MSTORE PUSH1 0x11 PUSH1 0x24 DUP3 ADD MSTORE PUSH17 0x2CB7BAB9103737BA1034B73B32B9BA37B9 PUSH1 0x79 SHL PUSH1 0x44 DUP3 ADD MSTORE PUSH1 0x64 ADD PUSH2 0xB1F JUMP JUMPDEST PUSH1 0x3 PUSH1 0x1 PUSH1 0x1 PUSH1 0xA0 SHL SUB DUP5 AND PUSH1 0x0 SWAP1 DUP2 MSTORE PUSH1 0x20 DUP2 SWAP1 MSTORE PUSH1 0x40 SWAP1 KECCAK256 SLOAD PUSH1 0xFF AND PUSH1 0x4 DUP2 GT ISZERO PUSH2 0xE39 JUMPI PUSH2 0xE39 PUSH2 0x1BB1 JUMP JUMPDEST EQ PUSH2 0xE7A JUMPI PUSH1 0x40 MLOAD PUSH3 0x461BCD PUSH1 0xE5 SHL DUP2 MSTORE PUSH1 0x20 PUSH1 0x4 DUP3 ADD MSTORE PUSH1 0x11 PUSH1 0x24 DUP3 ADD MSTORE PUSH17 0x2CB7BAB9103737BA1034B73B32B9BA37B9 PUSH1 0x79 SHL PUSH1 0x44 DUP3 ADD MSTORE PUSH1 0x64 ADD PUSH2 0xB1F JUMP JUMPDEST CALLER PUSH1 0x0 SWAP1 DUP2 MSTORE PUSH1 0x20 DUP2 SWAP1 MSTORE PUSH1 0x40 SWAP1 KECCAK256 PUSH1 0x3 ADD SLOAD PUSH2 0xE97 SWAP1 DUP4 PUSH2 0x15DC JUMP JUMPDEST CALLER PUSH1 0x0 SWAP1 DUP2 MSTORE PUSH1 0x20 DUP2 SWAP1 MSTORE PUSH1 0x40 DUP1 DUP3 KECCAK256 PUSH1 0x3 ADD SWAP3 SWAP1 SWAP3 SSTORE PUSH1 0x1 PUSH1 0x1 PUSH1 0xA0 SHL SUB DUP6 AND DUP2 MSTORE KECCAK256 PUSH1 0x4 ADD SLOAD PUSH2 0xEC9 SWAP1 DUP4 PUSH2 0x15F8 JUMP JUMPDEST PUSH1 0x1 PUSH1 0x1 PUSH1 0xA0 SHL SUB DUP5 AND PUSH1 0x0 DUP2 DUP2 MSTORE PUSH1 0x20 DUP2 DUP2 MSTORE PUSH1 0x40 SWAP2 DUP3 SWAP1 KECCAK256 PUSH1 0x4 ADD SWAP4 SWAP1 SWAP4 SSTORE MLOAD DUP5 DUP2 MSTORE SWAP1 SWAP2 CALLER SWAP2 PUSH32 0xDDF252AD1BE2C89B69C2B068FC378DAA952BA7F163C4A11628F55A4DF523B3EF SWAP2 ADD JUMPDEST PUSH1 0x40 MLOAD DUP1 SWAP2 SUB SWAP1 LOG3 POP PUSH1 0x1 PUSH2 0x39C JUMP JUMPDEST CALLER PUSH1 0x0 SWAP1 DUP2 MSTORE PUSH1 0x20 DUP2 SWAP1 MSTORE PUSH1 0x40 SWAP1 KECCAK256 PUSH1 0x4 ADD SLOAD DUP3 GT ISZERO PUSH2 0xF45 JUMPI PUSH1 0x0 DUP1 REVERT JUMPDEST PUSH1 0x3 CALLER PUSH1 0x0 SWAP1 DUP2 MSTORE PUSH1 0x20 DUP2 SWAP1 MSTORE PUSH1 0x40 SWAP1 KECCAK256 SLOAD PUSH1 0xFF AND PUSH1 0x4 DUP2 GT ISZERO PUSH2 0xF6B JUMPI PUSH2 0xF6B PUSH2 0x1BB1 JUMP JUMPDEST EQ PUSH2 0xFAC JUMPI PUSH1 0x40 MLOAD PUSH3 0x461BCD PUSH1 0xE5 SHL DUP2 MSTORE PUSH1 0x20 PUSH1 0x4 DUP3 ADD MSTORE PUSH1 0x11 PUSH1 0x24 DUP3 ADD MSTORE PUSH17 0x2CB7BAB9103737BA1034B73B32B9BA37B9 PUSH1 0x79 SHL PUSH1 0x44 DUP3 ADD MSTORE PUSH1 0x64 ADD PUSH2 0xB1F JUMP JUMPDEST PUSH1 0x3 PUSH1 0x1 PUSH1 0x1 PUSH1 0xA0 SHL SUB DUP5 AND PUSH1 0x0 SWAP1 DUP2 MSTORE PUSH1 0x20 DUP2 SWAP1 MSTORE PUSH1 0x40 SWAP1 KECCAK256 SLOAD PUSH1 0xFF AND PUSH1 0x4 DUP2 GT ISZERO PUSH2 0xFDB JUMPI PUSH2 0xFDB PUSH2 0x1BB1 JUMP JUMPDEST EQ PUSH2 0x101C JUMPI PUSH1 0x40 MLOAD PUSH3 0x461BCD PUSH1 0xE5 SHL DUP2 MSTORE PUSH1 0x20 PUSH1 0x4 DUP3 ADD MSTORE PUSH1 0x11 PUSH1 0x24 DUP3 ADD MSTORE PUSH17 0x2CB7BAB9103737BA1034B73B32B9BA37B9 PUSH1 0x79 SHL PUSH1 0x44 DUP3 ADD MSTORE PUSH1 0x64 ADD PUSH2 0xB1F JUMP JUMPDEST CALLER PUSH1 0x0 SWAP1 DUP2 MSTORE PUSH1 0x20 DUP2 SWAP1 MSTORE PUSH1 0x40 SWAP1 KECCAK256 PUSH1 0x4 ADD SLOAD PUSH2 0x1039 SWAP1 DUP4 PUSH2 0x15DC JUMP JUMPDEST CALLER PUSH1 0x0 SWAP1 DUP2 MSTORE PUSH1 0x20 DUP2 SWAP1 MSTORE PUSH1 0x40 DUP1 DUP3 KECCAK256 PUSH1 0x4 SWAP1 DUP2 ADD SWAP4 SWAP1 SWAP4 SSTORE PUSH1 0x1 PUSH1 0x1 PUSH1 0xA0 SHL SUB DUP7 AND DUP3 MSTORE SWAP1 KECCAK256 ADD SLOAD PUSH2 0xEC9 SWAP1 DUP4 PUSH2 0x15F8 JUMP JUMPDEST PUSH2 0x10AA PUSH1 0x40 MLOAD DUP1 PUSH1 0x40 ADD PUSH1 0x40 MSTORE DUP1 PUSH1 0x7 DUP2 MSTORE PUSH1 0x20 ADD PUSH7 0x70726976617465 PUSH1 0xC8 SHL DUP2 MSTORE POP PUSH20 0xAB8483F64D9C6D1ECF9B849AE677DD3315835CB2 DUP1 PUSH2 0x1617 JUMP JUMPDEST ISZERO ISZERO PUSH1 0x1 EQ ISZERO PUSH2 0x11F4 JUMPI PUSH2 0x10BC PUSH2 0x1767 JUMP JUMPDEST ISZERO ISZERO PUSH1 0x1 EQ ISZERO PUSH2 0x1185 JUMPI CALLER PUSH1 0x0 SWAP1 DUP2 MSTORE PUSH1 0x20 DUP2 SWAP1 MSTORE PUSH1 0x40 SWAP1 KECCAK256 PUSH1 0x3 ADD SLOAD DUP3 GT ISZERO PUSH2 0x10E5 JUMPI PUSH1 0x0 DUP1 REVERT JUMPDEST CALLER PUSH1 0x0 SWAP1 DUP2 MSTORE PUSH1 0x20 DUP2 SWAP1 MSTORE PUSH1 0x40 SWAP1 KECCAK256 PUSH1 0x3 ADD SLOAD PUSH2 0x1102 SWAP1 DUP4 PUSH2 0x15DC JUMP JUMPDEST CALLER PUSH1 0x0 SWAP1 DUP2 MSTORE PUSH1 0x20 DUP2 SWAP1 MSTORE PUSH1 0x40 DUP1 DUP3 KECCAK256 PUSH1 0x3 ADD SWAP3 SWAP1 SWAP3 SSTORE PUSH1 0x1 PUSH1 0x1 PUSH1 0xA0 SHL SUB DUP6 AND DUP2 MSTORE KECCAK256 PUSH1 0x5 ADD SLOAD PUSH2 0x1134 SWAP1 DUP4 PUSH2 0x15F8 JUMP JUMPDEST PUSH1 0x1 PUSH1 0x1 PUSH1 0xA0 SHL SUB DUP5 AND PUSH1 0x0 DUP2 DUP2 MSTORE PUSH1 0x20 DUP2 DUP2 MSTORE PUSH1 0x40 SWAP2 DUP3 SWAP1 KECCAK256 PUSH1 0x5 ADD SWAP4 SWAP1 SWAP4 SSTORE MLOAD DUP5 DUP2 MSTORE SWAP1 SWAP2 CALLER SWAP2 PUSH32 0xDDF252AD1BE2C89B69C2B068FC378DAA952BA7F163C4A11628F55A4DF523B3EF SWAP2 ADD PUSH2 0xF16 JUMP JUMPDEST CALLER PUSH1 0x0 SWAP1 DUP2 MSTORE PUSH1 0x20 DUP2 SWAP1 MSTORE PUSH1 0x40 SWAP1 KECCAK256 PUSH1 0x5 ADD SLOAD DUP3 GT ISZERO PUSH2 0x11A4 JUMPI PUSH1 0x0 DUP1 REVERT JUMPDEST CALLER PUSH1 0x0 SWAP1 DUP2 MSTORE PUSH1 0x20 DUP2 SWAP1 MSTORE PUSH1 0x40 SWAP1 KECCAK256 PUSH1 0x5 ADD SLOAD PUSH2 0x11C1 SWAP1 DUP4 PUSH2 0x15DC JUMP JUMPDEST CALLER PUSH1 0x0 SWAP1 DUP2 MSTORE PUSH1 0x20 DUP2 SWAP1 MSTORE PUSH1 0x40 DUP1 DUP3 KECCAK256 PUSH1 0x5 SWAP1 DUP2 ADD SWAP4 SWAP1 SWAP4 SSTORE PUSH1 0x1 PUSH1 0x1 PUSH1 0xA0 SHL SUB DUP7 AND DUP3 MSTORE SWAP1 KECCAK256 ADD SLOAD PUSH2 0x1134 SWAP1 DUP4 PUSH2 0x15F8 JUMP JUMPDEST PUSH2 0x1231 PUSH1 0x40 MLOAD DUP1 PUSH1 0x40 ADD PUSH1 0x40 MSTORE DUP1 PUSH1 0x6 DUP2 MSTORE PUSH1 0x20 ADD PUSH6 0x7075626C6963 PUSH1 0xD0 SHL DUP2 MSTORE POP PUSH20 0xAB8483F64D9C6D1ECF9B849AE677DD3315835CB2 DUP1 PUSH2 0x1617 JUMP JUMPDEST ISZERO ISZERO PUSH1 0x1 EQ ISZERO PUSH2 0x137B JUMPI PUSH2 0x1243 PUSH2 0x1767 JUMP JUMPDEST ISZERO ISZERO PUSH1 0x1 EQ ISZERO PUSH2 0x130C JUMPI CALLER PUSH1 0x0 SWAP1 DUP2 MSTORE PUSH1 0x20 DUP2 SWAP1 MSTORE PUSH1 0x40 SWAP1 KECCAK256 PUSH1 0x3 ADD SLOAD DUP3 GT ISZERO PUSH2 0x126C JUMPI PUSH1 0x0 DUP1 REVERT JUMPDEST CALLER PUSH1 0x0 SWAP1 DUP2 MSTORE PUSH1 0x20 DUP2 SWAP1 MSTORE PUSH1 0x40 SWAP1 KECCAK256 PUSH1 0x3 ADD SLOAD PUSH2 0x1289 SWAP1 DUP4 PUSH2 0x15DC JUMP JUMPDEST CALLER PUSH1 0x0 SWAP1 DUP2 MSTORE PUSH1 0x20 DUP2 SWAP1 MSTORE PUSH1 0x40 DUP1 DUP3 KECCAK256 PUSH1 0x3 ADD SWAP3 SWAP1 SWAP3 SSTORE PUSH1 0x1 PUSH1 0x1 PUSH1 0xA0 SHL SUB DUP6 AND DUP2 MSTORE KECCAK256 PUSH1 0x6 ADD SLOAD PUSH2 0x12BB SWAP1 DUP4 PUSH2 0x15F8 JUMP JUMPDEST PUSH1 0x1 PUSH1 0x1 PUSH1 0xA0 SHL SUB DUP5 AND PUSH1 0x0 DUP2 DUP2 MSTORE PUSH1 0x20 DUP2 DUP2 MSTORE PUSH1 0x40 SWAP2 DUP3 SWAP1 KECCAK256 PUSH1 0x6 ADD SWAP4 SWAP1 SWAP4 SSTORE MLOAD DUP5 DUP2 MSTORE SWAP1 SWAP2 CALLER SWAP2 PUSH32 0xDDF252AD1BE2C89B69C2B068FC378DAA952BA7F163C4A11628F55A4DF523B3EF SWAP2 ADD PUSH2 0xF16 JUMP JUMPDEST CALLER PUSH1 0x0 SWAP1 DUP2 MSTORE PUSH1 0x20 DUP2 SWAP1 MSTORE PUSH1 0x40 SWAP1 KECCAK256 PUSH1 0x6 ADD SLOAD DUP3 GT ISZERO PUSH2 0x132B JUMPI PUSH1 0x0 DUP1 REVERT JUMPDEST CALLER PUSH1 0x0 SWAP1 DUP2 MSTORE PUSH1 0x20 DUP2 SWAP1 MSTORE PUSH1 0x40 SWAP1 KECCAK256 PUSH1 0x6 ADD SLOAD PUSH2 0x1348 SWAP1 DUP4 PUSH2 0x15DC JUMP JUMPDEST CALLER PUSH1 0x0 SWAP1 DUP2 MSTORE PUSH1 0x20 DUP2 SWAP1 MSTORE PUSH1 0x40 DUP1 DUP3 KECCAK256 PUSH1 0x6 SWAP1 DUP2 ADD SWAP4 SWAP1 SWAP4 SSTORE PUSH1 0x1 PUSH1 0x1 PUSH1 0xA0 SHL SUB DUP7 AND DUP3 MSTORE SWAP1 KECCAK256 ADD SLOAD PUSH2 0x12BB SWAP1 DUP4 PUSH2 0x15F8 JUMP JUMPDEST POP PUSH1 0x0 PUSH2 0x39C JUMP JUMPDEST PUSH1 0x8 SLOAD PUSH2 0x1390 SWAP1 DUP3 PUSH2 0x1AE4 JUMP JUMPDEST CALLVALUE EQ PUSH2 0x13DE JUMPI PUSH1 0x40 MLOAD PUSH3 0x461BCD PUSH1 0xE5 SHL DUP2 MSTORE PUSH1 0x20 PUSH1 0x4 DUP3 ADD DUP2 SWAP1 MSTORE PUSH1 0x24 DUP3 ADD MSTORE PUSH32 0x4E65656420746F2073656E6420657861637420616D6F756E74206F6620776569 PUSH1 0x44 DUP3 ADD MSTORE PUSH1 0x64 ADD PUSH2 0xB1F JUMP JUMPDEST PUSH20 0xAB8483F64D9C6D1ECF9B849AE677DD3315835CB2 PUSH1 0x0 MSTORE PUSH1 0x1 PUSH1 0x20 MSTORE PUSH32 0x9D4D959825F0680278E64197773B2A50CD78B2B2CB00711DDBEEBF0BF93CD8A4 SLOAD PUSH1 0xFF AND ISZERO DUP1 ISZERO PUSH2 0x146C JUMPI POP PUSH20 0xAB8483F64D9C6D1ECF9B849AE677DD3315835CB2 PUSH1 0x0 MSTORE PUSH1 0x1 PUSH1 0x20 MSTORE PUSH32 0x9D4D959825F0680278E64197773B2A50CD78B2B2CB00711DDBEEBF0BF93CD8A4 SLOAD PUSH1 0xFF AND ISZERO JUMPDEST PUSH2 0x14DE JUMPI PUSH1 0x40 MLOAD PUSH3 0x461BCD PUSH1 0xE5 SHL DUP2 MSTORE PUSH1 0x20 PUSH1 0x4 DUP3 ADD MSTORE PUSH1 0x3B PUSH1 0x24 DUP3 ADD MSTORE PUSH32 0x447572696E672074686520736565642070686173652C20746865207472616E73 PUSH1 0x44 DUP3 ADD MSTORE PUSH32 0x666572206F6620746F6B656E732069732070726F686962697465640000000000 PUSH1 0x64 DUP3 ADD MSTORE PUSH1 0x84 ADD PUSH2 0xB1F JUMP JUMPDEST PUSH20 0xAB8483F64D9C6D1ECF9B849AE677DD3315835CB2 PUSH1 0x0 MSTORE PUSH1 0x1 PUSH1 0x20 DUP2 SWAP1 MSTORE PUSH32 0x9D4D959825F0680278E64197773B2A50CD78B2B2CB00711DDBEEBF0BF93CD8A4 SLOAD PUSH1 0xFF AND ISZERO ISZERO EQ ISZERO PUSH2 0x155D JUMPI CALLER PUSH1 0x0 SWAP1 DUP2 MSTORE PUSH1 0x20 DUP2 SWAP1 MSTORE PUSH1 0x40 SWAP1 KECCAK256 PUSH1 0x5 ADD SLOAD PUSH2 0x1547 SWAP1 DUP3 PUSH2 0x15F8 JUMP JUMPDEST CALLER PUSH1 0x0 SWAP1 DUP2 MSTORE PUSH1 0x20 DUP2 SWAP1 MSTORE PUSH1 0x40 SWAP1 KECCAK256 PUSH1 0x5 ADD SSTORE POP JUMP JUMPDEST PUSH20 0xAB8483F64D9C6D1ECF9B849AE677DD3315835CB2 PUSH1 0x0 MSTORE PUSH1 0x1 PUSH1 0x20 DUP2 SWAP1 MSTORE PUSH32 0x9D4D959825F0680278E64197773B2A50CD78B2B2CB00711DDBEEBF0BF93CD8A4 SLOAD PUSH1 0xFF AND ISZERO ISZERO EQ ISZERO PUSH2 0xD28 JUMPI CALLER PUSH1 0x0 SWAP1 DUP2 MSTORE PUSH1 0x20 DUP2 SWAP1 MSTORE PUSH1 0x40 SWAP1 KECCAK256 PUSH1 0x6 ADD SLOAD PUSH2 0x15C6 SWAP1 DUP3 PUSH2 0x15F8 JUMP JUMPDEST CALLER PUSH1 0x0 SWAP1 DUP2 MSTORE PUSH1 0x20 DUP2 SWAP1 MSTORE PUSH1 0x40 SWAP1 KECCAK256 PUSH1 0x6 ADD SSTORE POP JUMP JUMPDEST PUSH1 0x0 DUP3 DUP3 GT ISZERO PUSH2 0x15EE JUMPI PUSH2 0x15EE PUSH2 0x1B85 JUMP JUMPDEST PUSH2 0x916 DUP3 DUP5 PUSH2 0x1B03 JUMP JUMPDEST PUSH1 0x0 DUP1 PUSH2 0x1605 DUP4 DUP6 PUSH2 0x1ACC JUMP JUMPDEST SWAP1 POP DUP4 DUP2 LT ISZERO PUSH2 0x916 JUMPI PUSH2 0x916 PUSH2 0x1B85 JUMP JUMPDEST PUSH1 0x0 PUSH2 0x163E PUSH1 0x40 MLOAD DUP1 PUSH1 0x40 ADD PUSH1 0x40 MSTORE DUP1 PUSH1 0x4 DUP2 MSTORE PUSH1 0x20 ADD PUSH4 0x1CD95959 PUSH1 0xE2 SHL DUP2 MSTORE POP PUSH2 0xC85 JUMP JUMPDEST PUSH2 0x1647 DUP6 PUSH2 0xC85 JUMP JUMPDEST EQ ISZERO PUSH2 0x169C JUMPI PUSH1 0x1 PUSH1 0x1 PUSH1 0xA0 SHL SUB DUP4 AND PUSH1 0x0 SWAP1 DUP2 MSTORE PUSH1 0x1 PUSH1 0x20 MSTORE PUSH1 0x40 SWAP1 KECCAK256 SLOAD PUSH1 0xFF AND ISZERO DUP1 ISZERO PUSH2 0x168F JUMPI POP PUSH1 0x1 PUSH1 0x1 PUSH1 0xA0 SHL SUB DUP3 AND PUSH1 0x0 SWAP1 DUP2 MSTORE PUSH1 0x1 PUSH1 0x20 MSTORE PUSH1 0x40 SWAP1 KECCAK256 SLOAD PUSH1 0xFF AND ISZERO JUMPDEST ISZERO PUSH2 0x912 JUMPI POP PUSH1 0x1 PUSH2 0x916 JUMP JUMPDEST PUSH2 0x16C4 PUSH1 0x40 MLOAD DUP1 PUSH1 0x40 ADD PUSH1 0x40 MSTORE DUP1 PUSH1 0x7 DUP2 MSTORE PUSH1 0x20 ADD PUSH7 0x70726976617465 PUSH1 0xC8 SHL DUP2 MSTORE POP PUSH2 0xC85 JUMP JUMPDEST PUSH2 0x16CD DUP6 PUSH2 0xC85 JUMP JUMPDEST EQ ISZERO PUSH2 0x1702 JUMPI PUSH1 0x1 PUSH1 0x1 PUSH1 0xA0 SHL SUB DUP4 AND PUSH1 0x0 SWAP1 DUP2 MSTORE PUSH1 0x1 PUSH1 0x20 DUP2 SWAP1 MSTORE PUSH1 0x40 SWAP1 SWAP2 KECCAK256 SLOAD PUSH1 0xFF AND ISZERO ISZERO EQ ISZERO PUSH2 0x912 JUMPI POP PUSH1 0x1 PUSH2 0x916 JUMP JUMPDEST PUSH2 0x1729 PUSH1 0x40 MLOAD DUP1 PUSH1 0x40 ADD PUSH1 0x40 MSTORE DUP1 PUSH1 0x6 DUP2 MSTORE PUSH1 0x20 ADD PUSH6 0x7075626C6963 PUSH1 0xD0 SHL DUP2 MSTORE POP PUSH2 0xC85 JUMP JUMPDEST PUSH2 0x1732 DUP6 PUSH2 0xC85 JUMP JUMPDEST EQ ISZERO PUSH2 0x912 JUMPI PUSH1 0x1 PUSH1 0x1 PUSH1 0xA0 SHL SUB DUP3 AND PUSH1 0x0 SWAP1 DUP2 MSTORE PUSH1 0x1 PUSH1 0x20 DUP2 SWAP1 MSTORE PUSH1 0x40 SWAP1 SWAP2 KECCAK256 SLOAD PUSH1 0xFF AND ISZERO ISZERO EQ ISZERO PUSH2 0x912 JUMPI POP PUSH1 0x1 PUSH2 0x916 JUMP JUMPDEST PUSH1 0x0 DUP1 CALLER PUSH1 0x0 SWAP1 DUP2 MSTORE PUSH1 0x20 DUP2 SWAP1 MSTORE PUSH1 0x40 SWAP1 KECCAK256 SLOAD PUSH1 0xFF AND PUSH1 0x4 DUP2 GT ISZERO PUSH2 0x178E JUMPI PUSH2 0x178E PUSH2 0x1BB1 JUMP JUMPDEST EQ ISZERO PUSH2 0x179A JUMPI POP PUSH1 0x1 SWAP1 JUMP JUMPDEST POP PUSH1 0x0 SWAP1 JUMP JUMPDEST DUP3 DUP1 SLOAD PUSH2 0x17AC SWAP1 PUSH2 0x1B4A JUMP JUMPDEST SWAP1 PUSH1 0x0 MSTORE PUSH1 0x20 PUSH1 0x0 KECCAK256 SWAP1 PUSH1 0x1F ADD PUSH1 0x20 SWAP1 DIV DUP2 ADD SWAP3 DUP3 PUSH2 0x17CE JUMPI PUSH1 0x0 DUP6 SSTORE PUSH2 0x1814 JUMP JUMPDEST DUP3 PUSH1 0x1F LT PUSH2 0x17E7 JUMPI DUP1 MLOAD PUSH1 0xFF NOT AND DUP4 DUP1 ADD OR DUP6 SSTORE PUSH2 0x1814 JUMP JUMPDEST DUP3 DUP1 ADD PUSH1 0x1 ADD DUP6 SSTORE DUP3 ISZERO PUSH2 0x1814 JUMPI SWAP2 DUP3 ADD JUMPDEST DUP3 DUP2 GT ISZERO PUSH2 0x1814 JUMPI DUP3 MLOAD DUP3 SSTORE SWAP2 PUSH1 0x20 ADD SWAP2 SWAP1 PUSH1 0x1 ADD SWAP1 PUSH2 0x17F9 JUMP JUMPDEST POP PUSH2 0x1820 SWAP3 SWAP2 POP PUSH2 0x1824 JUMP JUMPDEST POP SWAP1 JUMP JUMPDEST JUMPDEST DUP1 DUP3 GT ISZERO PUSH2 0x1820 JUMPI PUSH1 0x0 DUP2 SSTORE PUSH1 0x1 ADD PUSH2 0x1825 JUMP JUMPDEST DUP1 CALLDATALOAD PUSH1 0x1 PUSH1 0x1 PUSH1 0xA0 SHL SUB DUP2 AND DUP2 EQ PUSH2 0xAAF JUMPI PUSH1 0x0 DUP1 REVERT JUMPDEST PUSH1 0x0 DUP3 PUSH1 0x1F DUP4 ADD SLT PUSH2 0x1861 JUMPI PUSH1 0x0 DUP1 REVERT JUMPDEST DUP2 CALLDATALOAD PUSH8 0xFFFFFFFFFFFFFFFF DUP1 DUP3 GT ISZERO PUSH2 0x187C JUMPI PUSH2 0x187C PUSH2 0x1BC7 JUMP JUMPDEST PUSH1 0x40 MLOAD PUSH1 0x1F DUP4 ADD PUSH1 0x1F NOT SWAP1 DUP2 AND PUSH1 0x3F ADD AND DUP2 ADD SWAP1 DUP3 DUP3 GT DUP2 DUP4 LT OR ISZERO PUSH2 0x18A4 JUMPI PUSH2 0x18A4 PUSH2 0x1BC7 JUMP JUMPDEST DUP2 PUSH1 0x40 MSTORE DUP4 DUP2 MSTORE DUP7 PUSH1 0x20 DUP6 DUP9 ADD ADD GT ISZERO PUSH2 0x18BD JUMPI PUSH1 0x0 DUP1 REVERT JUMPDEST DUP4 PUSH1 0x20 DUP8 ADD PUSH1 0x20 DUP4 ADD CALLDATACOPY PUSH1 0x0 PUSH1 0x20 DUP6 DUP4 ADD ADD MSTORE DUP1 SWAP5 POP POP POP POP POP SWAP3 SWAP2 POP POP JUMP JUMPDEST PUSH1 0x0 PUSH1 0x20 DUP3 DUP5 SUB SLT ISZERO PUSH2 0x18EF JUMPI PUSH1 0x0 DUP1 REVERT JUMPDEST PUSH2 0x916 DUP3 PUSH2 0x1839 JUMP JUMPDEST PUSH1 0x0 DUP1 PUSH1 0x40 DUP4 DUP6 SUB SLT ISZERO PUSH2 0x190B JUMPI PUSH1 0x0 DUP1 REVERT JUMPDEST PUSH2 0x1914 DUP4 PUSH2 0x1839 JUMP JUMPDEST SWAP2 POP PUSH2 0x1922 PUSH1 0x20 DUP5 ADD PUSH2 0x1839 JUMP JUMPDEST SWAP1 POP SWAP3 POP SWAP3 SWAP1 POP JUMP JUMPDEST PUSH1 0x0 DUP1 PUSH1 0x0 PUSH1 0x60 DUP5 DUP7 SUB SLT ISZERO PUSH2 0x1940 JUMPI PUSH1 0x0 DUP1 REVERT JUMPDEST PUSH2 0x1949 DUP5 PUSH2 0x1839 JUMP JUMPDEST SWAP3 POP PUSH2 0x1957 PUSH1 0x20 DUP6 ADD PUSH2 0x1839 JUMP JUMPDEST SWAP2 POP PUSH1 0x40 DUP5 ADD CALLDATALOAD SWAP1 POP SWAP3 POP SWAP3 POP SWAP3 JUMP JUMPDEST PUSH1 0x0 DUP1 PUSH1 0x40 DUP4 DUP6 SUB SLT ISZERO PUSH2 0x197A JUMPI PUSH1 0x0 DUP1 REVERT JUMPDEST PUSH2 0x1983 DUP4 PUSH2 0x1839 JUMP JUMPDEST SWAP5 PUSH1 0x20 SWAP4 SWAP1 SWAP4 ADD CALLDATALOAD SWAP4 POP POP POP JUMP JUMPDEST PUSH1 0x0 PUSH1 0x20 DUP3 DUP5 SUB SLT ISZERO PUSH2 0x19A3 JUMPI PUSH1 0x0 DUP1 REVERT JUMPDEST DUP2 CALLDATALOAD DUP1 ISZERO ISZERO DUP2 EQ PUSH2 0x916 JUMPI PUSH1 0x0 DUP1 REVERT JUMPDEST PUSH1 0x0 PUSH1 0x20 DUP3 DUP5 SUB SLT ISZERO PUSH2 0x19C5 JUMPI PUSH1 0x0 DUP1 REVERT JUMPDEST DUP2 CALLDATALOAD PUSH8 0xFFFFFFFFFFFFFFFF DUP2 GT ISZERO PUSH2 0x19DC JUMPI PUSH1 0x0 DUP1 REVERT JUMPDEST PUSH2 0x19E8 DUP5 DUP3 DUP6 ADD PUSH2 0x1850 JUMP JUMPDEST SWAP5 SWAP4 POP POP POP POP JUMP JUMPDEST PUSH1 0x0 DUP1 PUSH1 0x0 PUSH1 0x60 DUP5 DUP7 SUB SLT ISZERO PUSH2 0x1A05 JUMPI PUSH1 0x0 DUP1 REVERT JUMPDEST DUP4 CALLDATALOAD PUSH8 0xFFFFFFFFFFFFFFFF DUP1 DUP3 GT ISZERO PUSH2 0x1A1D JUMPI PUSH1 0x0 DUP1 REVERT JUMPDEST PUSH2 0x1A29 DUP8 DUP4 DUP9 ADD PUSH2 0x1850 JUMP JUMPDEST SWAP5 POP PUSH1 0x20 DUP7 ADD CALLDATALOAD SWAP2 POP DUP1 DUP3 GT ISZERO PUSH2 0x1A3F JUMPI PUSH1 0x0 DUP1 REVERT JUMPDEST POP PUSH2 0x1A4C DUP7 DUP3 DUP8 ADD PUSH2 0x1850 JUMP JUMPDEST SWAP3 POP POP PUSH2 0x1A5B PUSH1 0x40 DUP6 ADD PUSH2 0x1839 JUMP JUMPDEST SWAP1 POP SWAP3 POP SWAP3 POP SWAP3 JUMP JUMPDEST PUSH1 0x0 PUSH1 0x20 DUP3 DUP5 SUB SLT ISZERO PUSH2 0x1A76 JUMPI PUSH1 0x0 DUP1 REVERT JUMPDEST POP CALLDATALOAD SWAP2 SWAP1 POP JUMP JUMPDEST PUSH1 0x0 DUP3 MLOAD PUSH2 0x1A8F DUP2 DUP5 PUSH1 0x20 DUP8 ADD PUSH2 0x1B1A JUMP JUMPDEST SWAP2 SWAP1 SWAP2 ADD SWAP3 SWAP2 POP POP JUMP JUMPDEST PUSH1 0x20 DUP2 MSTORE PUSH1 0x0 DUP3 MLOAD DUP1 PUSH1 0x20 DUP5 ADD MSTORE PUSH2 0x1AB8 DUP2 PUSH1 0x40 DUP6 ADD PUSH1 0x20 DUP8 ADD PUSH2 0x1B1A JUMP JUMPDEST PUSH1 0x1F ADD PUSH1 0x1F NOT AND SWAP2 SWAP1 SWAP2 ADD PUSH1 0x40 ADD SWAP3 SWAP2 POP POP JUMP JUMPDEST PUSH1 0x0 DUP3 NOT DUP3 GT ISZERO PUSH2 0x1ADF JUMPI PUSH2 0x1ADF PUSH2 0x1B9B JUMP JUMPDEST POP ADD SWAP1 JUMP JUMPDEST PUSH1 0x0 DUP2 PUSH1 0x0 NOT DIV DUP4 GT DUP3 ISZERO ISZERO AND ISZERO PUSH2 0x1AFE JUMPI PUSH2 0x1AFE PUSH2 0x1B9B JUMP JUMPDEST POP MUL SWAP1 JUMP JUMPDEST PUSH1 0x0 DUP3 DUP3 LT ISZERO PUSH2 0x1B15 JUMPI PUSH2 0x1B15 PUSH2 0x1B9B JUMP JUMPDEST POP SUB SWAP1 JUMP JUMPDEST PUSH1 0x0 JUMPDEST DUP4 DUP2 LT ISZERO PUSH2 0x1B35 JUMPI DUP2 DUP2 ADD MLOAD DUP4 DUP3 ADD MSTORE PUSH1 0x20 ADD PUSH2 0x1B1D JUMP JUMPDEST DUP4 DUP2 GT ISZERO PUSH2 0x1B44 JUMPI PUSH1 0x0 DUP5 DUP5 ADD MSTORE JUMPDEST POP POP POP POP JUMP JUMPDEST PUSH1 0x1 DUP2 DUP2 SHR SWAP1 DUP3 AND DUP1 PUSH2 0x1B5E JUMPI PUSH1 0x7F DUP3 AND SWAP2 POP JUMPDEST PUSH1 0x20 DUP3 LT DUP2 EQ ISZERO PUSH2 0x1B7F JUMPI PUSH4 0x4E487B71 PUSH1 0xE0 SHL PUSH1 0x0 MSTORE PUSH1 0x22 PUSH1 0x4 MSTORE PUSH1 0x24 PUSH1 0x0 REVERT JUMPDEST POP SWAP2 SWAP1 POP JUMP JUMPDEST PUSH4 0x4E487B71 PUSH1 0xE0 SHL PUSH1 0x0 MSTORE PUSH1 0x1 PUSH1 0x4 MSTORE PUSH1 0x24 PUSH1 0x0 REVERT JUMPDEST PUSH4 0x4E487B71 PUSH1 0xE0 SHL PUSH1 0x0 MSTORE PUSH1 0x11 PUSH1 0x4 MSTORE PUSH1 0x24 PUSH1 0x0 REVERT JUMPDEST PUSH4 0x4E487B71 PUSH1 0xE0 SHL PUSH1 0x0 MSTORE PUSH1 0x21 PUSH1 0x4 MSTORE PUSH1 0x24 PUSH1 0x0 REVERT JUMPDEST PUSH4 0x4E487B71 PUSH1 0xE0 SHL PUSH1 0x0 MSTORE PUSH1 0x41 PUSH1 0x4 MSTORE PUSH1 0x24 PUSH1 0x0 REVERT INVALID LOG2 PUSH5 0x6970667358 0x22 SLT KECCAK256 0x5E CALLDATASIZE 0xCE 0x26 DUP8 SHL 0xE4 0xE3 SWAP16 EXP SWAP9 BYTE DUP14 PUSH19 0xEA692E762A9CF0FED388515CCCC459EFF83264 PUSH20 0x6F6C63430008070033D0917DAA0B256B4CA08BFF SWAP4 INVALID 0xC9 SHR 0xC0 SWAP4 0x24 PUSH28 0xF3CC8B97E585B3C6329D4B8765DDF252AD1BE2C89B69C2B068FC378D 0xAA SWAP6 0x2B 0xA7 CALL PUSH4 0xC4A11628 CREATE2 GAS 0x4D CREATE2 0x23 0xB3 0xEF BYTE LT OR LOG4 CALLDATACOPY DUP9 0x1F 0xD8 INVALID 0xE8 0xAB SGT SSTORE DUP7 0xD8 DUP7 SWAP10 0x5D 0xF9 0x28 PUSH12 0xD91E5D3C250F79B2327F0200 STOP STOP STOP STOP STOP STOP STOP STOP STOP STOP STOP 0xAB DUP5 DUP4 0xF6 0x4D SWAP13 PUSH14 0x1ECF9B849AE677DD3315835CB200 "
				},
				"gasEstimates": {
					"creation": {
						"codeDepositCost": "1437400",
						"executionCost": "infinite",
						"totalCost": "infinite"
					},
					"external": {
						"acceptApplication(bool)": "2610",
						"allowance(address,address)": "infinite",
						"application(string,string,address)": "infinite",
						"approve(address,uint256)": "24568",
						"balanceOf(address)": "11271",
						"buy(uint256)": "35601",
						"decimals()": "271",
						"get_keccak256(string)": "infinite",
						"name()": "infinite",
						"symbol()": "infinite",
						"tokenPrice_()": "2341",
						"totalSupply()": "2315",
						"transfer(address,uint256)": "infinite",
						"transferFrom(address,address,uint256)": "infinite"
					}
				},
				"methodIdentifiers": {
					"acceptApplication(bool)": "9d9e7a4b",
					"allowance(address,address)": "dd62ed3e",
					"application(string,string,address)": "785963c3",
					"approve(address,uint256)": "095ea7b3",
					"balanceOf(address)": "70a08231",
					"buy(uint256)": "d96a094a",
					"decimals()": "313ce567",
					"get_keccak256(string)": "8e4f8c6b",
					"name()": "06fdde03",
					"symbol()": "95d89b41",
					"tokenPrice_()": "0761c8b9",
					"totalSupply()": "18160ddd",
					"transfer(address,uint256)": "a9059cbb",
					"transferFrom(address,address,uint256)": "23b872dd"
				}
			},
			"storageLayout": {
				"storage": [
					{
						"astId": 1911,
						"contract": "Documents/GitHub/contract-token-cryptoMonster/backend/components/CryptoMonster.sol:CryptoMonster",
						"label": "structUsers_",
						"offset": 0,
						"slot": "0",
						"type": "t_mapping(t_address,t_struct(structUser)1906_storage)"
					},
					{
						"astId": 1921,
						"contract": "Documents/GitHub/contract-token-cryptoMonster/backend/components/CryptoMonster.sol:CryptoMonster",
						"label": "structPhases_",
						"offset": 0,
						"slot": "1",
						"type": "t_mapping(t_address,t_struct(structPhase)1916_storage)"
					},
					{
						"astId": 1939,
						"contract": "Documents/GitHub/contract-token-cryptoMonster/backend/components/CryptoMonster.sol:CryptoMonster",
						"label": "strucApplications_",
						"offset": 0,
						"slot": "2",
						"type": "t_mapping(t_address,t_struct(structApplication)1934_storage)"
					},
					{
						"astId": 1289,
						"contract": "Documents/GitHub/contract-token-cryptoMonster/backend/components/CryptoMonster.sol:CryptoMonster",
						"label": "investorFirstAdr",
						"offset": 0,
						"slot": "3",
						"type": "t_address"
					},
					{
						"astId": 1292,
						"contract": "Documents/GitHub/contract-token-cryptoMonster/backend/components/CryptoMonster.sol:CryptoMonster",
						"label": "investorSecondAdr",
						"offset": 0,
						"slot": "4",
						"type": "t_address"
					},
					{
						"astId": 1295,
						"contract": "Documents/GitHub/contract-token-cryptoMonster/backend/components/CryptoMonster.sol:CryptoMonster",
						"label": "bestFriendAdr",
						"offset": 0,
						"slot": "5",
						"type": "t_address"
					},
					{
						"astId": 32,
						"contract": "Documents/GitHub/contract-token-cryptoMonster/backend/components/CryptoMonster.sol:CryptoMonster",
						"label": "allowed",
						"offset": 0,
						"slot": "6",
						"type": "t_mapping(t_address,t_mapping(t_address,t_uint256))"
					},
					{
						"astId": 34,
						"contract": "Documents/GitHub/contract-token-cryptoMonster/backend/components/CryptoMonster.sol:CryptoMonster",
						"label": "totalSupply_",
						"offset": 0,
						"slot": "7",
						"type": "t_uint256"
					},
					{
						"astId": 37,
						"contract": "Documents/GitHub/contract-token-cryptoMonster/backend/components/CryptoMonster.sol:CryptoMonster",
						"label": "tokenPrice_",
						"offset": 0,
						"slot": "8",
						"type": "t_uint256"
					}
				],
				"types": {
					"t_address": {
						"encoding": "inplace",
						"label": "address",
						"numberOfBytes": "20"
					},
					"t_bool": {
						"encoding": "inplace",
						"label": "bool",
						"numberOfBytes": "1"
					},
					"t_bytes32": {
						"encoding": "inplace",
						"label": "bytes32",
						"numberOfBytes": "32"
					},
					"t_enum(Role)1890": {
						"encoding": "inplace",
						"label": "enum structures.Role",
						"numberOfBytes": "1"
					},
					"t_mapping(t_address,t_mapping(t_address,t_uint256))": {
						"encoding": "mapping",
						"key": "t_address",
						"label": "mapping(address => mapping(address => uint256))",
						"numberOfBytes": "32",
						"value": "t_mapping(t_address,t_uint256)"
					},
					"t_mapping(t_address,t_struct(structApplication)1934_storage)": {
						"encoding": "mapping",
						"key": "t_address",
						"label": "mapping(address => struct structures.structApplication)",
						"numberOfBytes": "32",
						"value": "t_struct(structApplication)1934_storage"
					},
					"t_mapping(t_address,t_struct(structPhase)1916_storage)": {
						"encoding": "mapping",
						"key": "t_address",
						"label": "mapping(address => struct structures.structPhase)",
						"numberOfBytes": "32",
						"value": "t_struct(structPhase)1916_storage"
					},
					"t_mapping(t_address,t_struct(structUser)1906_storage)": {
						"encoding": "mapping",
						"key": "t_address",
						"label": "mapping(address => struct structures.structUser)",
						"numberOfBytes": "32",
						"value": "t_struct(structUser)1906_storage"
					},
					"t_mapping(t_address,t_uint256)": {
						"encoding": "mapping",
						"key": "t_address",
						"label": "mapping(address => uint256)",
						"numberOfBytes": "32",
						"value": "t_uint256"
					},
					"t_string_storage": {
						"encoding": "bytes",
						"label": "string",
						"numberOfBytes": "32"
					},
					"t_struct(structApplication)1934_storage": {
						"encoding": "inplace",
						"label": "struct structures.structApplication",
						"members": [
							{
								"astId": 1923,
								"contract": "Documents/GitHub/contract-token-cryptoMonster/backend/components/CryptoMonster.sol:CryptoMonster",
								"label": "name",
								"offset": 0,
								"slot": "0",
								"type": "t_string_storage"
							},
							{
								"astId": 1925,
								"contract": "Documents/GitHub/contract-token-cryptoMonster/backend/components/CryptoMonster.sol:CryptoMonster",
								"label": "contactForCommunication",
								"offset": 0,
								"slot": "1",
								"type": "t_string_storage"
							},
							{
								"astId": 1927,
								"contract": "Documents/GitHub/contract-token-cryptoMonster/backend/components/CryptoMonster.sol:CryptoMonster",
								"label": "userAdr",
								"offset": 0,
								"slot": "2",
								"type": "t_address"
							},
							{
								"astId": 1929,
								"contract": "Documents/GitHub/contract-token-cryptoMonster/backend/components/CryptoMonster.sol:CryptoMonster",
								"label": "status",
								"offset": 20,
								"slot": "2",
								"type": "t_bool"
							},
							{
								"astId": 1931,
								"contract": "Documents/GitHub/contract-token-cryptoMonster/backend/components/CryptoMonster.sol:CryptoMonster",
								"label": "reviewed",
								"offset": 21,
								"slot": "2",
								"type": "t_bool"
							},
							{
								"astId": 1933,
								"contract": "Documents/GitHub/contract-token-cryptoMonster/backend/components/CryptoMonster.sol:CryptoMonster",
								"label": "exist",
								"offset": 22,
								"slot": "2",
								"type": "t_bool"
							}
						],
						"numberOfBytes": "96"
					},
					"t_struct(structPhase)1916_storage": {
						"encoding": "inplace",
						"label": "struct structures.structPhase",
						"members": [
							{
								"astId": 1913,
								"contract": "Documents/GitHub/contract-token-cryptoMonster/backend/components/CryptoMonster.sol:CryptoMonster",
								"label": "statusPhase",
								"offset": 0,
								"slot": "0",
								"type": "t_bool"
							},
							{
								"astId": 1915,
								"contract": "Documents/GitHub/contract-token-cryptoMonster/backend/components/CryptoMonster.sol:CryptoMonster",
								"label": "reviewed",
								"offset": 1,
								"slot": "0",
								"type": "t_bool"
							}
						],
						"numberOfBytes": "32"
					},
					"t_struct(structUser)1906_storage": {
						"encoding": "inplace",
						"label": "struct structures.structUser",
						"members": [
							{
								"astId": 1893,
								"contract": "Documents/GitHub/contract-token-cryptoMonster/backend/components/CryptoMonster.sol:CryptoMonster",
								"label": "role",
								"offset": 0,
								"slot": "0",
								"type": "t_enum(Role)1890"
							},
							{
								"astId": 1895,
								"contract": "Documents/GitHub/contract-token-cryptoMonster/backend/components/CryptoMonster.sol:CryptoMonster",
								"label": "login",
								"offset": 0,
								"slot": "1",
								"type": "t_string_storage"
							},
							{
								"astId": 1897,
								"contract": "Documents/GitHub/contract-token-cryptoMonster/backend/components/CryptoMonster.sol:CryptoMonster",
								"label": "password",
								"offset": 0,
								"slot": "2",
								"type": "t_bytes32"
							},
							{
								"astId": 1899,
								"contract": "Documents/GitHub/contract-token-cryptoMonster/backend/components/CryptoMonster.sol:CryptoMonster",
								"label": "balance_overall",
								"offset": 0,
								"slot": "3",
								"type": "t_uint256"
							},
							{
								"astId": 1901,
								"contract": "Documents/GitHub/contract-token-cryptoMonster/backend/components/CryptoMonster.sol:CryptoMonster",
								"label": "balance_seed",
								"offset": 0,
								"slot": "4",
								"type": "t_uint256"
							},
							{
								"astId": 1903,
								"contract": "Documents/GitHub/contract-token-cryptoMonster/backend/components/CryptoMonster.sol:CryptoMonster",
								"label": "balance_private",
								"offset": 0,
								"slot": "5",
								"type": "t_uint256"
							},
							{
								"astId": 1905,
								"contract": "Documents/GitHub/contract-token-cryptoMonster/backend/components/CryptoMonster.sol:CryptoMonster",
								"label": "balance_public",
								"offset": 0,
								"slot": "6",
								"type": "t_uint256"
							}
						],
						"numberOfBytes": "224"
					},
					"t_uint256": {
						"encoding": "inplace",
						"label": "uint256",
						"numberOfBytes": "32"
					}
				}
			},
			"userdoc": {
				"kind": "user",
				"methods": {},
				"version": 1
			}
		}
	}
}