{
	"Documents/GitHub/contract-token-cryptoMonster/backend/components/PhaseSeed.sol": {
		"PhaseSeed": {
			"abi": [
				{
					"inputs": [],
					"stateMutability": "nonpayable",
					"type": "constructor"
				},
				{
					"inputs": [
						{
							"internalType": "string",
							"name": "_hash",
							"type": "string"
						}
					],
					"name": "get_keccak256",
					"outputs": [
						{
							"internalType": "bytes32",
							"name": "",
							"type": "bytes32"
						}
					],
					"stateMutability": "pure",
					"type": "function"
				}
			],
			"devdoc": {
				"kind": "dev",
				"methods": {},
				"version": 1
			},
			"evm": {
				"assembly": "    /* \"Documents/GitHub/contract-token-cryptoMonster/backend/components/PhaseSeed.sol\":145:946  contract PhaseSeed is Main {\r... */\n  mstore(0x40, 0x80)\n    /* \"Documents/GitHub/contract-token-cryptoMonster/backend/components/PhaseSeed.sol\":179:248  address investorFirstAdr = 0x78731D3Ca6b7E34aC0F824c42a7cC18A495cabaB */\n  0x03\n  dup1\n  sload\n  not(sub(shl(0xa0, 0x01), 0x01))\n  swap1\n  dup2\n  and\n    /* \"Documents/GitHub/contract-token-cryptoMonster/backend/components/PhaseSeed.sol\":206:248  0x78731D3Ca6b7E34aC0F824c42a7cC18A495cabaB */\n  0x78731d3ca6b7e34ac0f824c42a7cc18a495cabab\n    /* \"Documents/GitHub/contract-token-cryptoMonster/backend/components/PhaseSeed.sol\":179:248  address investorFirstAdr = 0x78731D3Ca6b7E34aC0F824c42a7cC18A495cabaB */\n  or\n  swap1\n  swap2\n  sstore\n    /* \"Documents/GitHub/contract-token-cryptoMonster/backend/components/PhaseSeed.sol\":269:339  address investorSecondAdr = 0x617F2E2fD72FD9D5503197092aC168c91465E7f2 */\n  0x04\n  dup1\n  sload\n  dup3\n  and\n    /* \"Documents/GitHub/contract-token-cryptoMonster/backend/components/PhaseSeed.sol\":297:339  0x617F2E2fD72FD9D5503197092aC168c91465E7f2 */\n  0x617f2e2fd72fd9d5503197092ac168c91465e7f2\n    /* \"Documents/GitHub/contract-token-cryptoMonster/backend/components/PhaseSeed.sol\":269:339  address investorSecondAdr = 0x617F2E2fD72FD9D5503197092aC168c91465E7f2 */\n  or\n  swap1\n  sstore\n    /* \"Documents/GitHub/contract-token-cryptoMonster/backend/components/PhaseSeed.sol\":359:425  address bestFriendAdr = 0x17F6AD8Ef982297579C203069C1DbfFE4348c372 */\n  0x05\n  dup1\n  sload\n  swap1\n  swap2\n  and\n    /* \"Documents/GitHub/contract-token-cryptoMonster/backend/components/PhaseSeed.sol\":383:425  0x17F6AD8Ef982297579C203069C1DbfFE4348c372 */\n  0x17f6ad8ef982297579c203069c1dbffe4348c372\n    /* \"Documents/GitHub/contract-token-cryptoMonster/backend/components/PhaseSeed.sol\":359:425  address bestFriendAdr = 0x17F6AD8Ef982297579C203069C1DbfFE4348c372 */\n  or\n  swap1\n  sstore\n    /* \"Documents/GitHub/contract-token-cryptoMonster/backend/components/PhaseSeed.sol\":526:943  constructor() {\r... */\n  callvalue\n  dup1\n  iszero\n  tag_1\n  jumpi\n  0x00\n  dup1\n  revert\ntag_1:\n  pop\n    /* \"Documents/GitHub/contract-token-cryptoMonster/backend/components/PhaseSeed.sol\":584:658  structUser(Role.INVESTOR , \"Investor1\", get_keccak256(\"3412\"), 0, 0, 0, 0) */\n  0x40\n  dup1\n  mload\n  0xe0\n  dup2\n  add\n  swap1\n  swap2\n  mstore\n  dup1\n    /* \"Documents/GitHub/contract-token-cryptoMonster/backend/components/PhaseSeed.sol\":595:608  Role.INVESTOR */\n  0x03\n    /* \"Documents/GitHub/contract-token-cryptoMonster/backend/components/PhaseSeed.sol\":584:658  structUser(Role.INVESTOR , \"Investor1\", get_keccak256(\"3412\"), 0, 0, 0, 0) */\n  dup2\n  mstore\n  0x20\n  add\n  mload(0x40)\n  dup1\n  0x40\n  add\n  0x40\n  mstore\n  dup1\n  0x09\n  dup2\n  mstore\n  0x20\n  add\n  shl(0xb8, 0x496e766573746f7231)\n  dup2\n  mstore\n  pop\n  dup2\n  mstore\n  0x20\n  add\n    /* \"Documents/GitHub/contract-token-cryptoMonster/backend/components/PhaseSeed.sol\":624:645  get_keccak256(\"3412\") */\n  tag_7\n  mload(0x40)\n  dup1\n  0x40\n  add\n  0x40\n  mstore\n  dup1\n  0x04\n  dup2\n  mstore\n  0x20\n  add\n  shl(0xe1, 0x199a1899)\n  dup2\n  mstore\n  pop\n    /* \"Documents/GitHub/contract-token-cryptoMonster/backend/components/PhaseSeed.sol\":624:637  get_keccak256 */\n  shl(0x20, tag_8)\n    /* \"Documents/GitHub/contract-token-cryptoMonster/backend/components/PhaseSeed.sol\":624:645  get_keccak256(\"3412\") */\n  0x20\n  shr\n  jump\t// in\ntag_7:\n    /* \"Documents/GitHub/contract-token-cryptoMonster/backend/components/PhaseSeed.sol\":584:658  structUser(Role.INVESTOR , \"Investor1\", get_keccak256(\"3412\"), 0, 0, 0, 0) */\n  dup2\n  mstore\n    /* \"Documents/GitHub/contract-token-cryptoMonster/backend/components/PhaseSeed.sol\":647:648  0 */\n  0x00\n    /* \"Documents/GitHub/contract-token-cryptoMonster/backend/components/PhaseSeed.sol\":584:658  structUser(Role.INVESTOR , \"Investor1\", get_keccak256(\"3412\"), 0, 0, 0, 0) */\n  0x20\n  dup1\n  dup4\n  add\n  dup3\n  swap1\n  mstore\n  0x40\n  dup1\n  dup5\n  add\n  dup4\n  swap1\n  mstore\n  0x60\n  dup5\n  add\n  dup4\n  swap1\n  mstore\n  0x80\n  swap1\n  swap4\n  add\n  dup3\n  swap1\n  mstore\n    /* \"Documents/GitHub/contract-token-cryptoMonster/backend/components/PhaseSeed.sol\":564:580  investorFirstAdr */\n  and(sub(shl(0xa0, 0x01), 0x01), sload(0x03))\n    /* \"Documents/GitHub/contract-token-cryptoMonster/backend/components/PhaseSeed.sol\":551:581  structUsers_[investorFirstAdr] */\n  dup3\n  mstore\n  dup2\n  swap1\n  mstore\n  keccak256\n    /* \"Documents/GitHub/contract-token-cryptoMonster/backend/components/PhaseSeed.sol\":551:658  structUsers_[investorFirstAdr] = structUser(Role.INVESTOR , \"Investor1\", get_keccak256(\"3412\"), 0, 0, 0, 0) */\n  dup2\n  mload\n  dup2\n  sload\n    /* \"Documents/GitHub/contract-token-cryptoMonster/backend/components/PhaseSeed.sol\":551:581  structUsers_[investorFirstAdr] */\n  dup3\n  swap1\n  not(0xff)\n    /* \"Documents/GitHub/contract-token-cryptoMonster/backend/components/PhaseSeed.sol\":551:658  structUsers_[investorFirstAdr] = structUser(Role.INVESTOR , \"Investor1\", get_keccak256(\"3412\"), 0, 0, 0, 0) */\n  and\n    /* \"Documents/GitHub/contract-token-cryptoMonster/backend/components/PhaseSeed.sol\":564:580  investorFirstAdr */\n  0x01\n    /* \"Documents/GitHub/contract-token-cryptoMonster/backend/components/PhaseSeed.sol\":551:658  structUsers_[investorFirstAdr] = structUser(Role.INVESTOR , \"Investor1\", get_keccak256(\"3412\"), 0, 0, 0, 0) */\n  dup4\n  0x04\n  dup2\n  gt\n  iszero\n  tag_10\n  jumpi\n  tag_10\n  tag_6\n  jump\t// in\ntag_10:\n  mul\n  or\n  swap1\n  sstore\n  pop\n  0x20\n  dup3\n  dup2\n  add\n  mload\n  dup1\n  mload\n  tag_11\n  swap3\n  0x01\n  dup6\n  add\n  swap3\n  add\n  swap1\n  tag_12\n  jump\t// in\ntag_11:\n  pop\n  0x40\n  dup3\n  add\n  mload\n  dup2\n  0x02\n  add\n  sstore\n  0x60\n  dup3\n  add\n  mload\n  dup2\n  0x03\n  add\n  sstore\n  0x80\n  dup3\n  add\n  mload\n  dup2\n  0x04\n  add\n  sstore\n  0xa0\n  dup3\n  add\n  mload\n  dup2\n  0x05\n  add\n  sstore\n  0xc0\n  dup3\n  add\n  mload\n  dup2\n  0x06\n  add\n  sstore\n  swap1\n  pop\n  pop\n    /* \"Documents/GitHub/contract-token-cryptoMonster/backend/components/PhaseSeed.sol\":716:789  structUser(Role.INVESTOR, \"Investor1\", get_keccak256(\"1423\"), 0, 0, 0, 0) */\n  mload(0x40)\n  dup1\n  0xe0\n  add\n  0x40\n  mstore\n  dup1\n    /* \"Documents/GitHub/contract-token-cryptoMonster/backend/components/PhaseSeed.sol\":727:740  Role.INVESTOR */\n  0x03\n    /* \"Documents/GitHub/contract-token-cryptoMonster/backend/components/PhaseSeed.sol\":716:789  structUser(Role.INVESTOR, \"Investor1\", get_keccak256(\"1423\"), 0, 0, 0, 0) */\n  0x04\n  dup2\n  gt\n  iszero\n  tag_14\n  jumpi\n  tag_14\n  tag_6\n  jump\t// in\ntag_14:\n  dup2\n  mstore\n  0x20\n  add\n  mload(0x40)\n  dup1\n  0x40\n  add\n  0x40\n  mstore\n  dup1\n  0x09\n  dup2\n  mstore\n  0x20\n  add\n  shl(0xb8, 0x496e766573746f7231)\n  dup2\n  mstore\n  pop\n  dup2\n  mstore\n  0x20\n  add\n    /* \"Documents/GitHub/contract-token-cryptoMonster/backend/components/PhaseSeed.sol\":755:776  get_keccak256(\"1423\") */\n  tag_15\n  mload(0x40)\n  dup1\n  0x40\n  add\n  0x40\n  mstore\n  dup1\n  0x04\n  dup2\n  mstore\n  0x20\n  add\n  shl(0xe0, 0x31343233)\n  dup2\n  mstore\n  pop\n    /* \"Documents/GitHub/contract-token-cryptoMonster/backend/components/PhaseSeed.sol\":755:768  get_keccak256 */\n  shl(0x20, tag_8)\n    /* \"Documents/GitHub/contract-token-cryptoMonster/backend/components/PhaseSeed.sol\":755:776  get_keccak256(\"1423\") */\n  0x20\n  shr\n  jump\t// in\ntag_15:\n    /* \"Documents/GitHub/contract-token-cryptoMonster/backend/components/PhaseSeed.sol\":716:789  structUser(Role.INVESTOR, \"Investor1\", get_keccak256(\"1423\"), 0, 0, 0, 0) */\n  dup2\n  mstore\n    /* \"Documents/GitHub/contract-token-cryptoMonster/backend/components/PhaseSeed.sol\":778:779  0 */\n  0x00\n    /* \"Documents/GitHub/contract-token-cryptoMonster/backend/components/PhaseSeed.sol\":716:789  structUser(Role.INVESTOR, \"Investor1\", get_keccak256(\"1423\"), 0, 0, 0, 0) */\n  0x20\n  dup1\n  dup4\n  add\n  dup3\n  swap1\n  mstore\n  0x40\n  dup1\n  dup5\n  add\n  dup4\n  swap1\n  mstore\n  0x60\n  dup5\n  add\n  dup4\n  swap1\n  mstore\n  0x80\n  swap1\n  swap4\n  add\n  dup3\n  swap1\n  mstore\n    /* \"Documents/GitHub/contract-token-cryptoMonster/backend/components/PhaseSeed.sol\":695:712  investorSecondAdr */\n  0x04\n  dup1\n  sload\n  sub(shl(0xa0, 0x01), 0x01)\n  and\n    /* \"Documents/GitHub/contract-token-cryptoMonster/backend/components/PhaseSeed.sol\":682:713  structUsers_[investorSecondAdr] */\n  dup4\n  mstore\n  swap1\n  dup3\n  swap1\n  mstore\n  swap2\n  swap1\n  keccak256\n    /* \"Documents/GitHub/contract-token-cryptoMonster/backend/components/PhaseSeed.sol\":682:789  structUsers_[investorSecondAdr] = structUser(Role.INVESTOR, \"Investor1\", get_keccak256(\"1423\"), 0, 0, 0, 0) */\n  dup3\n  mload\n  dup2\n  sload\n    /* \"Documents/GitHub/contract-token-cryptoMonster/backend/components/PhaseSeed.sol\":682:713  structUsers_[investorSecondAdr] */\n  swap2\n  swap3\n    /* \"Documents/GitHub/contract-token-cryptoMonster/backend/components/PhaseSeed.sol\":682:789  structUsers_[investorSecondAdr] = structUser(Role.INVESTOR, \"Investor1\", get_keccak256(\"1423\"), 0, 0, 0, 0) */\n  swap1\n  swap2\n    /* \"Documents/GitHub/contract-token-cryptoMonster/backend/components/PhaseSeed.sol\":682:713  structUsers_[investorSecondAdr] */\n  dup4\n  swap2\n  not(0xff)\n    /* \"Documents/GitHub/contract-token-cryptoMonster/backend/components/PhaseSeed.sol\":682:789  structUsers_[investorSecondAdr] = structUser(Role.INVESTOR, \"Investor1\", get_keccak256(\"1423\"), 0, 0, 0, 0) */\n  swap1\n  swap2\n  and\n  swap1\n    /* \"Documents/GitHub/contract-token-cryptoMonster/backend/components/PhaseSeed.sol\":695:712  investorSecondAdr */\n  0x01\n  swap1\n    /* \"Documents/GitHub/contract-token-cryptoMonster/backend/components/PhaseSeed.sol\":682:789  structUsers_[investorSecondAdr] = structUser(Role.INVESTOR, \"Investor1\", get_keccak256(\"1423\"), 0, 0, 0, 0) */\n  dup5\n  swap1\n  dup2\n  gt\n  iszero\n  tag_17\n  jumpi\n  tag_17\n  tag_6\n  jump\t// in\ntag_17:\n  mul\n  or\n  swap1\n  sstore\n  pop\n  0x20\n  dup3\n  dup2\n  add\n  mload\n  dup1\n  mload\n  tag_18\n  swap3\n  0x01\n  dup6\n  add\n  swap3\n  add\n  swap1\n  tag_12\n  jump\t// in\ntag_18:\n  pop\n  0x40\n  dup3\n  add\n  mload\n  dup2\n  0x02\n  add\n  sstore\n  0x60\n  dup3\n  add\n  mload\n  dup2\n  0x03\n  add\n  sstore\n  0x80\n  dup3\n  add\n  mload\n  dup2\n  0x04\n  add\n  sstore\n  0xa0\n  dup3\n  add\n  mload\n  dup2\n  0x05\n  add\n  sstore\n  0xc0\n  dup3\n  add\n  mload\n  dup2\n  0x06\n  add\n  sstore\n  swap1\n  pop\n  pop\n    /* \"Documents/GitHub/contract-token-cryptoMonster/backend/components/PhaseSeed.sol\":843:918  structUser(Role.INVESTOR, \"Best friend\", get_keccak256(\"2314\"), 0, 0, 0, 0) */\n  mload(0x40)\n  dup1\n  0xe0\n  add\n  0x40\n  mstore\n  dup1\n    /* \"Documents/GitHub/contract-token-cryptoMonster/backend/components/PhaseSeed.sol\":854:867  Role.INVESTOR */\n  0x03\n    /* \"Documents/GitHub/contract-token-cryptoMonster/backend/components/PhaseSeed.sol\":843:918  structUser(Role.INVESTOR, \"Best friend\", get_keccak256(\"2314\"), 0, 0, 0, 0) */\n  0x04\n  dup2\n  gt\n  iszero\n  tag_20\n  jumpi\n  tag_20\n  tag_6\n  jump\t// in\ntag_20:\n  dup2\n  mstore\n  0x20\n  add\n  mload(0x40)\n  dup1\n  0x40\n  add\n  0x40\n  mstore\n  dup1\n  0x0b\n  dup2\n  mstore\n  0x20\n  add\n  shl(0xaa, 0x10995cdd08199c9a595b99)\n  dup2\n  mstore\n  pop\n  dup2\n  mstore\n  0x20\n  add\n    /* \"Documents/GitHub/contract-token-cryptoMonster/backend/components/PhaseSeed.sol\":884:905  get_keccak256(\"2314\") */\n  tag_21\n  mload(0x40)\n  dup1\n  0x40\n  add\n  0x40\n  mstore\n  dup1\n  0x04\n  dup2\n  mstore\n  0x20\n  add\n  shl(0xe2, 0x0c8ccc4d)\n  dup2\n  mstore\n  pop\n    /* \"Documents/GitHub/contract-token-cryptoMonster/backend/components/PhaseSeed.sol\":884:897  get_keccak256 */\n  shl(0x20, tag_8)\n    /* \"Documents/GitHub/contract-token-cryptoMonster/backend/components/PhaseSeed.sol\":884:905  get_keccak256(\"2314\") */\n  0x20\n  shr\n  jump\t// in\ntag_21:\n    /* \"Documents/GitHub/contract-token-cryptoMonster/backend/components/PhaseSeed.sol\":843:918  structUser(Role.INVESTOR, \"Best friend\", get_keccak256(\"2314\"), 0, 0, 0, 0) */\n  dup2\n  mstore\n    /* \"Documents/GitHub/contract-token-cryptoMonster/backend/components/PhaseSeed.sol\":907:908  0 */\n  0x00\n    /* \"Documents/GitHub/contract-token-cryptoMonster/backend/components/PhaseSeed.sol\":843:918  structUser(Role.INVESTOR, \"Best friend\", get_keccak256(\"2314\"), 0, 0, 0, 0) */\n  0x20\n  dup1\n  dup4\n  add\n  dup3\n  swap1\n  mstore\n  0x40\n  dup1\n  dup5\n  add\n  dup4\n  swap1\n  mstore\n  0x60\n  dup5\n  add\n  dup4\n  swap1\n  mstore\n  0x80\n  swap1\n  swap4\n  add\n  dup3\n  swap1\n  mstore\n    /* \"Documents/GitHub/contract-token-cryptoMonster/backend/components/PhaseSeed.sol\":826:839  bestFriendAdr */\n  and(sub(shl(0xa0, 0x01), 0x01), sload(0x05))\n    /* \"Documents/GitHub/contract-token-cryptoMonster/backend/components/PhaseSeed.sol\":813:840  structUsers_[bestFriendAdr] */\n  dup3\n  mstore\n  dup2\n  swap1\n  mstore\n  keccak256\n    /* \"Documents/GitHub/contract-token-cryptoMonster/backend/components/PhaseSeed.sol\":813:918  structUsers_[bestFriendAdr] = structUser(Role.INVESTOR, \"Best friend\", get_keccak256(\"2314\"), 0, 0, 0, 0) */\n  dup2\n  mload\n  dup2\n  sload\n    /* \"Documents/GitHub/contract-token-cryptoMonster/backend/components/PhaseSeed.sol\":813:840  structUsers_[bestFriendAdr] */\n  dup3\n  swap1\n  not(0xff)\n    /* \"Documents/GitHub/contract-token-cryptoMonster/backend/components/PhaseSeed.sol\":813:918  structUsers_[bestFriendAdr] = structUser(Role.INVESTOR, \"Best friend\", get_keccak256(\"2314\"), 0, 0, 0, 0) */\n  and\n    /* \"Documents/GitHub/contract-token-cryptoMonster/backend/components/PhaseSeed.sol\":826:839  bestFriendAdr */\n  0x01\n    /* \"Documents/GitHub/contract-token-cryptoMonster/backend/components/PhaseSeed.sol\":813:918  structUsers_[bestFriendAdr] = structUser(Role.INVESTOR, \"Best friend\", get_keccak256(\"2314\"), 0, 0, 0, 0) */\n  dup4\n  0x04\n  dup2\n  gt\n  iszero\n  tag_23\n  jumpi\n  tag_23\n  tag_6\n  jump\t// in\ntag_23:\n  mul\n  or\n  swap1\n  sstore\n  pop\n  0x20\n  dup3\n  dup2\n  add\n  mload\n  dup1\n  mload\n  tag_24\n  swap3\n  0x01\n  dup6\n  add\n  swap3\n  add\n  swap1\n  tag_12\n  jump\t// in\ntag_24:\n  pop\n  0x40\n  dup3\n  add\n  mload\n  0x02\n  dup3\n  add\n  sstore\n  0x60\n  dup3\n  add\n  mload\n  0x03\n  dup3\n  add\n  sstore\n  0x80\n  dup3\n  add\n  mload\n  0x04\n  dup3\n  add\n  sstore\n  0xa0\n  dup3\n  add\n  mload\n  0x05\n  dup3\n  add\n  sstore\n  0xc0\n  swap1\n  swap2\n  add\n  mload\n  0x06\n  swap1\n  swap2\n  add\n  sstore\n    /* \"Documents/GitHub/contract-token-cryptoMonster/backend/components/PhaseSeed.sol\":145:946  contract PhaseSeed is Main {\r... */\n  jump(tag_40)\n    /* \"Documents/GitHub/contract-token-cryptoMonster/backend/shared/helpers/getFuncs.sol\":144:282  function get_keccak256(string memory _hash) public pure returns(bytes32) {\r... */\ntag_8:\n    /* \"Documents/GitHub/contract-token-cryptoMonster/backend/shared/helpers/getFuncs.sol\":208:215  bytes32 */\n  0x00\n    /* \"Documents/GitHub/contract-token-cryptoMonster/backend/shared/helpers/getFuncs.sol\":266:271  _hash */\n  dup2\n    /* \"Documents/GitHub/contract-token-cryptoMonster/backend/shared/helpers/getFuncs.sol\":249:272  abi.encodePacked(_hash) */\n  add(0x20, mload(0x40))\n  tag_27\n  swap2\n  swap1\n  tag_28\n  jump\t// in\ntag_27:\n  mload(0x40)\n  0x20\n  dup2\n  dup4\n  sub\n  sub\n  dup2\n  mstore\n  swap1\n  0x40\n  mstore\n    /* \"Documents/GitHub/contract-token-cryptoMonster/backend/shared/helpers/getFuncs.sol\":239:273  keccak256(abi.encodePacked(_hash)) */\n  dup1\n  mload\n  swap1\n  0x20\n  add\n  keccak256\n    /* \"Documents/GitHub/contract-token-cryptoMonster/backend/shared/helpers/getFuncs.sol\":232:274  return(keccak256(abi.encodePacked(_hash))) */\n  swap1\n  pop\n    /* \"Documents/GitHub/contract-token-cryptoMonster/backend/shared/helpers/getFuncs.sol\":144:282  function get_keccak256(string memory _hash) public pure returns(bytes32) {\r... */\n  swap2\n  swap1\n  pop\n  jump\t// out\n    /* \"Documents/GitHub/contract-token-cryptoMonster/backend/components/PhaseSeed.sol\":145:946  contract PhaseSeed is Main {\r... */\ntag_12:\n  dup3\n  dup1\n  sload\n  tag_29\n  swap1\n  tag_30\n  jump\t// in\ntag_29:\n  swap1\n  0x00\n  mstore\n  keccak256(0x00, 0x20)\n  swap1\n  0x1f\n  add\n  0x20\n  swap1\n  div\n  dup2\n  add\n  swap3\n  dup3\n  tag_32\n  jumpi\n  0x00\n  dup6\n  sstore\n  jump(tag_35)\ntag_32:\n  dup3\n  0x1f\n  lt\n  tag_33\n  jumpi\n  dup1\n  mload\n  not(0xff)\n  and\n  dup4\n  dup1\n  add\n  or\n  dup6\n  sstore\n  jump(tag_35)\ntag_33:\n  dup3\n  dup1\n  add\n  0x01\n  add\n  dup6\n  sstore\n  dup3\n  iszero\n  tag_35\n  jumpi\n  swap2\n  dup3\n  add\ntag_34:\n  dup3\n  dup2\n  gt\n  iszero\n  tag_35\n  jumpi\n  dup3\n  mload\n  dup3\n  sstore\n  swap2\n  0x20\n  add\n  swap2\n  swap1\n  0x01\n  add\n  swap1\n  jump(tag_34)\ntag_35:\n  pop\n  tag_36\n  swap3\n  swap2\n  pop\n  tag_37\n  jump\t// in\ntag_36:\n  pop\n  swap1\n  jump\t// out\ntag_37:\ntag_38:\n  dup1\n  dup3\n  gt\n  iszero\n  tag_36\n  jumpi\n  0x00\n  dup2\n  sstore\n  0x01\n  add\n  jump(tag_38)\n    /* \"#utility.yul\":14:442   */\ntag_28:\n    /* \"#utility.yul\":145:148   */\n  0x00\n    /* \"#utility.yul\":183:189   */\n  dup3\n    /* \"#utility.yul\":177:190   */\n  mload\n    /* \"#utility.yul\":208:209   */\n  0x00\n    /* \"#utility.yul\":218:347   */\ntag_42:\n    /* \"#utility.yul\":232:238   */\n  dup2\n    /* \"#utility.yul\":229:230   */\n  dup2\n    /* \"#utility.yul\":226:239   */\n  lt\n    /* \"#utility.yul\":218:347   */\n  iszero\n  tag_44\n  jumpi\n    /* \"#utility.yul\":330:334   */\n  0x20\n    /* \"#utility.yul\":314:328   */\n  dup2\n  dup7\n  add\n    /* \"#utility.yul\":310:335   */\n  dup2\n  add\n    /* \"#utility.yul\":304:336   */\n  mload\n    /* \"#utility.yul\":291:302   */\n  dup6\n  dup4\n  add\n    /* \"#utility.yul\":284:337   */\n  mstore\n    /* \"#utility.yul\":247:259   */\n  add\n    /* \"#utility.yul\":218:347   */\n  jump(tag_42)\ntag_44:\n    /* \"#utility.yul\":365:371   */\n  dup2\n    /* \"#utility.yul\":362:363   */\n  dup2\n    /* \"#utility.yul\":359:372   */\n  gt\n    /* \"#utility.yul\":356:404   */\n  iszero\n  tag_45\n  jumpi\n    /* \"#utility.yul\":400:401   */\n  0x00\n    /* \"#utility.yul\":391:397   */\n  dup3\n    /* \"#utility.yul\":386:389   */\n  dup6\n    /* \"#utility.yul\":382:398   */\n  add\n    /* \"#utility.yul\":375:402   */\n  mstore\n    /* \"#utility.yul\":356:404   */\ntag_45:\n  pop\n    /* \"#utility.yul\":420:436   */\n  swap2\n  swap1\n  swap2\n  add\n  swap3\n    /* \"#utility.yul\":14:442   */\n  swap2\n  pop\n  pop\n  jump\t// out\n    /* \"#utility.yul\":447:827   */\ntag_30:\n    /* \"#utility.yul\":526:527   */\n  0x01\n    /* \"#utility.yul\":522:534   */\n  dup2\n  dup2\n  shr\n  swap1\n    /* \"#utility.yul\":569:581   */\n  dup3\n  and\n  dup1\n    /* \"#utility.yul\":590:651   */\n  tag_47\n  jumpi\n    /* \"#utility.yul\":644:648   */\n  0x7f\n    /* \"#utility.yul\":636:642   */\n  dup3\n    /* \"#utility.yul\":632:649   */\n  and\n    /* \"#utility.yul\":622:649   */\n  swap2\n  pop\n    /* \"#utility.yul\":590:651   */\ntag_47:\n    /* \"#utility.yul\":697:699   */\n  0x20\n    /* \"#utility.yul\":689:695   */\n  dup3\n    /* \"#utility.yul\":686:700   */\n  lt\n    /* \"#utility.yul\":666:684   */\n  dup2\n    /* \"#utility.yul\":663:701   */\n  eq\n    /* \"#utility.yul\":660:821   */\n  iszero\n  tag_48\n  jumpi\n    /* \"#utility.yul\":743:753   */\n  0x4e487b71\n    /* \"#utility.yul\":738:741   */\n  0xe0\n    /* \"#utility.yul\":734:754   */\n  shl\n    /* \"#utility.yul\":731:732   */\n  0x00\n    /* \"#utility.yul\":724:755   */\n  mstore\n    /* \"#utility.yul\":778:782   */\n  0x22\n    /* \"#utility.yul\":775:776   */\n  0x04\n    /* \"#utility.yul\":768:783   */\n  mstore\n    /* \"#utility.yul\":806:810   */\n  0x24\n    /* \"#utility.yul\":803:804   */\n  0x00\n    /* \"#utility.yul\":796:811   */\n  revert\n    /* \"#utility.yul\":660:821   */\ntag_48:\n  pop\n    /* \"#utility.yul\":447:827   */\n  swap2\n  swap1\n  pop\n  jump\t// out\n    /* \"#utility.yul\":832:959   */\ntag_6:\n    /* \"#utility.yul\":893:903   */\n  0x4e487b71\n    /* \"#utility.yul\":888:891   */\n  0xe0\n    /* \"#utility.yul\":884:904   */\n  shl\n    /* \"#utility.yul\":881:882   */\n  0x00\n    /* \"#utility.yul\":874:905   */\n  mstore\n    /* \"#utility.yul\":924:928   */\n  0x21\n    /* \"#utility.yul\":921:922   */\n  0x04\n    /* \"#utility.yul\":914:929   */\n  mstore\n    /* \"#utility.yul\":948:952   */\n  0x24\n    /* \"#utility.yul\":945:946   */\n  0x00\n    /* \"#utility.yul\":938:953   */\n  revert\n    /* \"#utility.yul\":832:959   */\ntag_40:\n    /* \"Documents/GitHub/contract-token-cryptoMonster/backend/components/PhaseSeed.sol\":145:946  contract PhaseSeed is Main {\r... */\n  dataSize(sub_0)\n  dup1\n  dataOffset(sub_0)\n  0x00\n  codecopy\n  0x00\n  return\nstop\n\nsub_0: assembly {\n        /* \"Documents/GitHub/contract-token-cryptoMonster/backend/components/PhaseSeed.sol\":145:946  contract PhaseSeed is Main {\r... */\n      mstore(0x40, 0x80)\n      callvalue\n      dup1\n      iszero\n      tag_1\n      jumpi\n      0x00\n      dup1\n      revert\n    tag_1:\n      pop\n      jumpi(tag_2, lt(calldatasize, 0x04))\n      shr(0xe0, calldataload(0x00))\n      dup1\n      0x8e4f8c6b\n      eq\n      tag_3\n      jumpi\n    tag_2:\n      0x00\n      dup1\n      revert\n        /* \"Documents/GitHub/contract-token-cryptoMonster/backend/shared/helpers/getFuncs.sol\":144:282  function get_keccak256(string memory _hash) public pure returns(bytes32) {\r... */\n    tag_3:\n      tag_4\n      tag_5\n      calldatasize\n      0x04\n      tag_6\n      jump\t// in\n    tag_5:\n      tag_7\n      jump\t// in\n    tag_4:\n      mload(0x40)\n        /* \"#utility.yul\":1520:1545   */\n      swap1\n      dup2\n      mstore\n        /* \"#utility.yul\":1508:1510   */\n      0x20\n        /* \"#utility.yul\":1493:1511   */\n      add\n        /* \"Documents/GitHub/contract-token-cryptoMonster/backend/shared/helpers/getFuncs.sol\":144:282  function get_keccak256(string memory _hash) public pure returns(bytes32) {\r... */\n      mload(0x40)\n      dup1\n      swap2\n      sub\n      swap1\n      return\n    tag_7:\n        /* \"Documents/GitHub/contract-token-cryptoMonster/backend/shared/helpers/getFuncs.sol\":208:215  bytes32 */\n      0x00\n        /* \"Documents/GitHub/contract-token-cryptoMonster/backend/shared/helpers/getFuncs.sol\":266:271  _hash */\n      dup2\n        /* \"Documents/GitHub/contract-token-cryptoMonster/backend/shared/helpers/getFuncs.sol\":249:272  abi.encodePacked(_hash) */\n      add(0x20, mload(0x40))\n      tag_11\n      swap2\n      swap1\n      tag_12\n      jump\t// in\n    tag_11:\n      mload(0x40)\n      0x20\n      dup2\n      dup4\n      sub\n      sub\n      dup2\n      mstore\n      swap1\n      0x40\n      mstore\n        /* \"Documents/GitHub/contract-token-cryptoMonster/backend/shared/helpers/getFuncs.sol\":239:273  keccak256(abi.encodePacked(_hash)) */\n      dup1\n      mload\n      swap1\n      0x20\n      add\n      keccak256\n        /* \"Documents/GitHub/contract-token-cryptoMonster/backend/shared/helpers/getFuncs.sol\":232:274  return(keccak256(abi.encodePacked(_hash))) */\n      swap1\n      pop\n        /* \"Documents/GitHub/contract-token-cryptoMonster/backend/shared/helpers/getFuncs.sol\":144:282  function get_keccak256(string memory _hash) public pure returns(bytes32) {\r... */\n      swap2\n      swap1\n      pop\n      jump\t// out\n        /* \"#utility.yul\":14:936   */\n    tag_6:\n        /* \"#utility.yul\":83:89   */\n      0x00\n        /* \"#utility.yul\":136:138   */\n      0x20\n        /* \"#utility.yul\":124:133   */\n      dup3\n        /* \"#utility.yul\":115:122   */\n      dup5\n        /* \"#utility.yul\":111:134   */\n      sub\n        /* \"#utility.yul\":107:139   */\n      slt\n        /* \"#utility.yul\":104:156   */\n      iszero\n      tag_15\n      jumpi\n        /* \"#utility.yul\":152:153   */\n      0x00\n        /* \"#utility.yul\":149:150   */\n      dup1\n        /* \"#utility.yul\":142:154   */\n      revert\n        /* \"#utility.yul\":104:156   */\n    tag_15:\n        /* \"#utility.yul\":192:201   */\n      dup2\n        /* \"#utility.yul\":179:202   */\n      calldataload\n        /* \"#utility.yul\":221:239   */\n      0xffffffffffffffff\n        /* \"#utility.yul\":262:264   */\n      dup1\n        /* \"#utility.yul\":254:260   */\n      dup3\n        /* \"#utility.yul\":251:265   */\n      gt\n        /* \"#utility.yul\":248:282   */\n      iszero\n      tag_16\n      jumpi\n        /* \"#utility.yul\":278:279   */\n      0x00\n        /* \"#utility.yul\":275:276   */\n      dup1\n        /* \"#utility.yul\":268:280   */\n      revert\n        /* \"#utility.yul\":248:282   */\n    tag_16:\n        /* \"#utility.yul\":316:322   */\n      dup2\n        /* \"#utility.yul\":305:314   */\n      dup5\n        /* \"#utility.yul\":301:323   */\n      add\n        /* \"#utility.yul\":291:323   */\n      swap2\n      pop\n        /* \"#utility.yul\":361:368   */\n      dup5\n        /* \"#utility.yul\":354:358   */\n      0x1f\n        /* \"#utility.yul\":350:352   */\n      dup4\n        /* \"#utility.yul\":346:359   */\n      add\n        /* \"#utility.yul\":342:369   */\n      slt\n        /* \"#utility.yul\":332:387   */\n      tag_17\n      jumpi\n        /* \"#utility.yul\":383:384   */\n      0x00\n        /* \"#utility.yul\":380:381   */\n      dup1\n        /* \"#utility.yul\":373:385   */\n      revert\n        /* \"#utility.yul\":332:387   */\n    tag_17:\n        /* \"#utility.yul\":419:421   */\n      dup2\n        /* \"#utility.yul\":406:422   */\n      calldataload\n        /* \"#utility.yul\":441:443   */\n      dup2\n        /* \"#utility.yul\":437:439   */\n      dup2\n        /* \"#utility.yul\":434:444   */\n      gt\n        /* \"#utility.yul\":431:467   */\n      iszero\n      tag_19\n      jumpi\n        /* \"#utility.yul\":447:465   */\n      tag_19\n      tag_20\n      jump\t// in\n    tag_19:\n        /* \"#utility.yul\":522:524   */\n      0x40\n        /* \"#utility.yul\":516:525   */\n      mload\n        /* \"#utility.yul\":490:492   */\n      0x1f\n        /* \"#utility.yul\":576:589   */\n      dup3\n      add\n      not(0x1f)\n        /* \"#utility.yul\":572:594   */\n      swap1\n      dup2\n      and\n        /* \"#utility.yul\":596:598   */\n      0x3f\n        /* \"#utility.yul\":568:599   */\n      add\n        /* \"#utility.yul\":564:604   */\n      and\n        /* \"#utility.yul\":552:605   */\n      dup2\n      add\n      swap1\n        /* \"#utility.yul\":620:638   */\n      dup4\n      dup3\n      gt\n        /* \"#utility.yul\":640:662   */\n      dup2\n      dup4\n      lt\n        /* \"#utility.yul\":617:663   */\n      or\n        /* \"#utility.yul\":614:686   */\n      iszero\n      tag_22\n      jumpi\n        /* \"#utility.yul\":666:684   */\n      tag_22\n      tag_20\n      jump\t// in\n    tag_22:\n        /* \"#utility.yul\":706:716   */\n      dup2\n        /* \"#utility.yul\":702:704   */\n      0x40\n        /* \"#utility.yul\":695:717   */\n      mstore\n        /* \"#utility.yul\":741:743   */\n      dup3\n        /* \"#utility.yul\":733:739   */\n      dup2\n        /* \"#utility.yul\":726:744   */\n      mstore\n        /* \"#utility.yul\":781:788   */\n      dup8\n        /* \"#utility.yul\":776:778   */\n      0x20\n        /* \"#utility.yul\":771:773   */\n      dup5\n        /* \"#utility.yul\":767:769   */\n      dup8\n        /* \"#utility.yul\":763:774   */\n      add\n        /* \"#utility.yul\":759:779   */\n      add\n        /* \"#utility.yul\":756:789   */\n      gt\n        /* \"#utility.yul\":753:806   */\n      iszero\n      tag_23\n      jumpi\n        /* \"#utility.yul\":802:803   */\n      0x00\n        /* \"#utility.yul\":799:800   */\n      dup1\n        /* \"#utility.yul\":792:804   */\n      revert\n        /* \"#utility.yul\":753:806   */\n    tag_23:\n        /* \"#utility.yul\":858:860   */\n      dup3\n        /* \"#utility.yul\":853:855   */\n      0x20\n        /* \"#utility.yul\":849:851   */\n      dup7\n        /* \"#utility.yul\":845:856   */\n      add\n        /* \"#utility.yul\":840:842   */\n      0x20\n        /* \"#utility.yul\":832:838   */\n      dup4\n        /* \"#utility.yul\":828:843   */\n      add\n        /* \"#utility.yul\":815:861   */\n      calldatacopy\n        /* \"#utility.yul\":903:904   */\n      0x00\n        /* \"#utility.yul\":881:896   */\n      swap3\n      dup2\n      add\n        /* \"#utility.yul\":898:900   */\n      0x20\n        /* \"#utility.yul\":877:901   */\n      add\n        /* \"#utility.yul\":870:905   */\n      swap3\n      swap1\n      swap3\n      mstore\n      pop\n        /* \"#utility.yul\":885:891   */\n      swap6\n        /* \"#utility.yul\":14:936   */\n      swap5\n      pop\n      pop\n      pop\n      pop\n      pop\n      jump\t// out\n        /* \"#utility.yul\":941:1369   */\n    tag_12:\n        /* \"#utility.yul\":1072:1075   */\n      0x00\n        /* \"#utility.yul\":1110:1116   */\n      dup3\n        /* \"#utility.yul\":1104:1117   */\n      mload\n        /* \"#utility.yul\":1135:1136   */\n      0x00\n        /* \"#utility.yul\":1145:1274   */\n    tag_25:\n        /* \"#utility.yul\":1159:1165   */\n      dup2\n        /* \"#utility.yul\":1156:1157   */\n      dup2\n        /* \"#utility.yul\":1153:1166   */\n      lt\n        /* \"#utility.yul\":1145:1274   */\n      iszero\n      tag_27\n      jumpi\n        /* \"#utility.yul\":1257:1261   */\n      0x20\n        /* \"#utility.yul\":1241:1255   */\n      dup2\n      dup7\n      add\n        /* \"#utility.yul\":1237:1262   */\n      dup2\n      add\n        /* \"#utility.yul\":1231:1263   */\n      mload\n        /* \"#utility.yul\":1218:1229   */\n      dup6\n      dup4\n      add\n        /* \"#utility.yul\":1211:1264   */\n      mstore\n        /* \"#utility.yul\":1174:1186   */\n      add\n        /* \"#utility.yul\":1145:1274   */\n      jump(tag_25)\n    tag_27:\n        /* \"#utility.yul\":1292:1298   */\n      dup2\n        /* \"#utility.yul\":1289:1290   */\n      dup2\n        /* \"#utility.yul\":1286:1299   */\n      gt\n        /* \"#utility.yul\":1283:1331   */\n      iszero\n      tag_28\n      jumpi\n        /* \"#utility.yul\":1327:1328   */\n      0x00\n        /* \"#utility.yul\":1318:1324   */\n      dup3\n        /* \"#utility.yul\":1313:1316   */\n      dup6\n        /* \"#utility.yul\":1309:1325   */\n      add\n        /* \"#utility.yul\":1302:1329   */\n      mstore\n        /* \"#utility.yul\":1283:1331   */\n    tag_28:\n      pop\n        /* \"#utility.yul\":1347:1363   */\n      swap2\n      swap1\n      swap2\n      add\n      swap3\n        /* \"#utility.yul\":941:1369   */\n      swap2\n      pop\n      pop\n      jump\t// out\n        /* \"#utility.yul\":1556:1740   */\n    tag_20:\n        /* \"#utility.yul\":1608:1685   */\n      0x4e487b7100000000000000000000000000000000000000000000000000000000\n        /* \"#utility.yul\":1605:1606   */\n      0x00\n        /* \"#utility.yul\":1598:1686   */\n      mstore\n        /* \"#utility.yul\":1705:1709   */\n      0x41\n        /* \"#utility.yul\":1702:1703   */\n      0x04\n        /* \"#utility.yul\":1695:1710   */\n      mstore\n        /* \"#utility.yul\":1729:1733   */\n      0x24\n        /* \"#utility.yul\":1726:1727   */\n      0x00\n        /* \"#utility.yul\":1719:1734   */\n      revert\n\n    auxdata: 0xa26469706673582212201dfe82837366e83fa1ed1c6749116ea6971aedb8f13161b777a94c14df04449164736f6c63430008070033\n}\n",
				"bytecode": {
					"linkReferences": {},
					"object": "6080604052600380546001600160a01b03199081167378731d3ca6b7e34ac0f824c42a7cc18a495cabab1790915560048054821673617f2e2fd72fd9d5503197092ac168c91465e7f2179055600580549091167317f6ad8ef982297579c203069c1dbffe4348c37217905534801561007657600080fd5b506040805160e08101909152806003815260200160405180604001604052806009815260200168496e766573746f723160b81b81525081526020016100dc60405180604001604052806004815260200163199a189960e11b8152506103c960201b60201c565b81526000602080830182905260408084018390526060840183905260809093018290526003546001600160a01b031682528190522081518154829060ff1916600183600481111561012f5761012f610508565b0217905550602082810151805161014c92600185019201906103f9565b5060408201518160020155606082015181600301556080820151816004015560a0820151816005015560c082015181600601559050506040518060e00160405280600360048111156101a0576101a0610508565b815260200160405180604001604052806009815260200168496e766573746f723160b81b81525081526020016101f7604051806040016040528060048152602001633134323360e01b8152506103c960201b60201c565b8152600060208083018290526040808401839052606084018390526080909301829052600480546001600160a01b03168352908290529190208251815491929091839160ff1990911690600190849081111561025557610255610508565b0217905550602082810151805161027292600185019201906103f9565b5060408201518160020155606082015181600301556080820151816004015560a0820151816005015560c082015181600601559050506040518060e00160405280600360048111156102c6576102c6610508565b81526020016040518060400160405280600b81526020016a10995cdd08199c9a595b9960aa1b815250815260200161031f604051806040016040528060048152602001630c8ccc4d60e21b8152506103c960201b60201c565b81526000602080830182905260408084018390526060840183905260809093018290526005546001600160a01b031682528190522081518154829060ff1916600183600481111561037257610372610508565b0217905550602082810151805161038f92600185019201906103f9565b5060408201516002820155606082015160038201556080820151600482015560a0820151600582015560c09091015160069091015561051e565b6000816040516020016103dc9190610492565b604051602081830303815290604052805190602001209050919050565b828054610405906104cd565b90600052602060002090601f016020900481019282610427576000855561046d565b82601f1061044057805160ff191683800117855561046d565b8280016001018555821561046d579182015b8281111561046d578251825591602001919060010190610452565b5061047992915061047d565b5090565b5b80821115610479576000815560010161047e565b6000825160005b818110156104b35760208186018101518583015201610499565b818111156104c2576000828501525b509190910192915050565b600181811c908216806104e157607f821691505b6020821081141561050257634e487b7160e01b600052602260045260246000fd5b50919050565b634e487b7160e01b600052602160045260246000fd5b6101d68061052d6000396000f3fe608060405234801561001057600080fd5b506004361061002b5760003560e01c80638e4f8c6b14610030575b600080fd5b61004361003e366004610085565b610055565b60405190815260200160405180910390f35b6000816040516020016100689190610136565b604051602081830303815290604052805190602001209050919050565b60006020828403121561009757600080fd5b813567ffffffffffffffff808211156100af57600080fd5b818401915084601f8301126100c357600080fd5b8135818111156100d5576100d5610171565b604051601f8201601f19908116603f011681019083821181831017156100fd576100fd610171565b8160405282815287602084870101111561011657600080fd5b826020860160208301376000928101602001929092525095945050505050565b6000825160005b81811015610157576020818601810151858301520161013d565b81811115610166576000828501525b509190910192915050565b7f4e487b7100000000000000000000000000000000000000000000000000000000600052604160045260246000fdfea26469706673582212201dfe82837366e83fa1ed1c6749116ea6971aedb8f13161b777a94c14df04449164736f6c63430008070033",
					"opcodes": "PUSH1 0x80 PUSH1 0x40 MSTORE PUSH1 0x3 DUP1 SLOAD PUSH1 0x1 PUSH1 0x1 PUSH1 0xA0 SHL SUB NOT SWAP1 DUP2 AND PUSH20 0x78731D3CA6B7E34AC0F824C42A7CC18A495CABAB OR SWAP1 SWAP2 SSTORE PUSH1 0x4 DUP1 SLOAD DUP3 AND PUSH20 0x617F2E2FD72FD9D5503197092AC168C91465E7F2 OR SWAP1 SSTORE PUSH1 0x5 DUP1 SLOAD SWAP1 SWAP2 AND PUSH20 0x17F6AD8EF982297579C203069C1DBFFE4348C372 OR SWAP1 SSTORE CALLVALUE DUP1 ISZERO PUSH2 0x76 JUMPI PUSH1 0x0 DUP1 REVERT JUMPDEST POP PUSH1 0x40 DUP1 MLOAD PUSH1 0xE0 DUP2 ADD SWAP1 SWAP2 MSTORE DUP1 PUSH1 0x3 DUP2 MSTORE PUSH1 0x20 ADD PUSH1 0x40 MLOAD DUP1 PUSH1 0x40 ADD PUSH1 0x40 MSTORE DUP1 PUSH1 0x9 DUP2 MSTORE PUSH1 0x20 ADD PUSH9 0x496E766573746F7231 PUSH1 0xB8 SHL DUP2 MSTORE POP DUP2 MSTORE PUSH1 0x20 ADD PUSH2 0xDC PUSH1 0x40 MLOAD DUP1 PUSH1 0x40 ADD PUSH1 0x40 MSTORE DUP1 PUSH1 0x4 DUP2 MSTORE PUSH1 0x20 ADD PUSH4 0x199A1899 PUSH1 0xE1 SHL DUP2 MSTORE POP PUSH2 0x3C9 PUSH1 0x20 SHL PUSH1 0x20 SHR JUMP JUMPDEST DUP2 MSTORE PUSH1 0x0 PUSH1 0x20 DUP1 DUP4 ADD DUP3 SWAP1 MSTORE PUSH1 0x40 DUP1 DUP5 ADD DUP4 SWAP1 MSTORE PUSH1 0x60 DUP5 ADD DUP4 SWAP1 MSTORE PUSH1 0x80 SWAP1 SWAP4 ADD DUP3 SWAP1 MSTORE PUSH1 0x3 SLOAD PUSH1 0x1 PUSH1 0x1 PUSH1 0xA0 SHL SUB AND DUP3 MSTORE DUP2 SWAP1 MSTORE KECCAK256 DUP2 MLOAD DUP2 SLOAD DUP3 SWAP1 PUSH1 0xFF NOT AND PUSH1 0x1 DUP4 PUSH1 0x4 DUP2 GT ISZERO PUSH2 0x12F JUMPI PUSH2 0x12F PUSH2 0x508 JUMP JUMPDEST MUL OR SWAP1 SSTORE POP PUSH1 0x20 DUP3 DUP2 ADD MLOAD DUP1 MLOAD PUSH2 0x14C SWAP3 PUSH1 0x1 DUP6 ADD SWAP3 ADD SWAP1 PUSH2 0x3F9 JUMP JUMPDEST POP PUSH1 0x40 DUP3 ADD MLOAD DUP2 PUSH1 0x2 ADD SSTORE PUSH1 0x60 DUP3 ADD MLOAD DUP2 PUSH1 0x3 ADD SSTORE PUSH1 0x80 DUP3 ADD MLOAD DUP2 PUSH1 0x4 ADD SSTORE PUSH1 0xA0 DUP3 ADD MLOAD DUP2 PUSH1 0x5 ADD SSTORE PUSH1 0xC0 DUP3 ADD MLOAD DUP2 PUSH1 0x6 ADD SSTORE SWAP1 POP POP PUSH1 0x40 MLOAD DUP1 PUSH1 0xE0 ADD PUSH1 0x40 MSTORE DUP1 PUSH1 0x3 PUSH1 0x4 DUP2 GT ISZERO PUSH2 0x1A0 JUMPI PUSH2 0x1A0 PUSH2 0x508 JUMP JUMPDEST DUP2 MSTORE PUSH1 0x20 ADD PUSH1 0x40 MLOAD DUP1 PUSH1 0x40 ADD PUSH1 0x40 MSTORE DUP1 PUSH1 0x9 DUP2 MSTORE PUSH1 0x20 ADD PUSH9 0x496E766573746F7231 PUSH1 0xB8 SHL DUP2 MSTORE POP DUP2 MSTORE PUSH1 0x20 ADD PUSH2 0x1F7 PUSH1 0x40 MLOAD DUP1 PUSH1 0x40 ADD PUSH1 0x40 MSTORE DUP1 PUSH1 0x4 DUP2 MSTORE PUSH1 0x20 ADD PUSH4 0x31343233 PUSH1 0xE0 SHL DUP2 MSTORE POP PUSH2 0x3C9 PUSH1 0x20 SHL PUSH1 0x20 SHR JUMP JUMPDEST DUP2 MSTORE PUSH1 0x0 PUSH1 0x20 DUP1 DUP4 ADD DUP3 SWAP1 MSTORE PUSH1 0x40 DUP1 DUP5 ADD DUP4 SWAP1 MSTORE PUSH1 0x60 DUP5 ADD DUP4 SWAP1 MSTORE PUSH1 0x80 SWAP1 SWAP4 ADD DUP3 SWAP1 MSTORE PUSH1 0x4 DUP1 SLOAD PUSH1 0x1 PUSH1 0x1 PUSH1 0xA0 SHL SUB AND DUP4 MSTORE SWAP1 DUP3 SWAP1 MSTORE SWAP2 SWAP1 KECCAK256 DUP3 MLOAD DUP2 SLOAD SWAP2 SWAP3 SWAP1 SWAP2 DUP4 SWAP2 PUSH1 0xFF NOT SWAP1 SWAP2 AND SWAP1 PUSH1 0x1 SWAP1 DUP5 SWAP1 DUP2 GT ISZERO PUSH2 0x255 JUMPI PUSH2 0x255 PUSH2 0x508 JUMP JUMPDEST MUL OR SWAP1 SSTORE POP PUSH1 0x20 DUP3 DUP2 ADD MLOAD DUP1 MLOAD PUSH2 0x272 SWAP3 PUSH1 0x1 DUP6 ADD SWAP3 ADD SWAP1 PUSH2 0x3F9 JUMP JUMPDEST POP PUSH1 0x40 DUP3 ADD MLOAD DUP2 PUSH1 0x2 ADD SSTORE PUSH1 0x60 DUP3 ADD MLOAD DUP2 PUSH1 0x3 ADD SSTORE PUSH1 0x80 DUP3 ADD MLOAD DUP2 PUSH1 0x4 ADD SSTORE PUSH1 0xA0 DUP3 ADD MLOAD DUP2 PUSH1 0x5 ADD SSTORE PUSH1 0xC0 DUP3 ADD MLOAD DUP2 PUSH1 0x6 ADD SSTORE SWAP1 POP POP PUSH1 0x40 MLOAD DUP1 PUSH1 0xE0 ADD PUSH1 0x40 MSTORE DUP1 PUSH1 0x3 PUSH1 0x4 DUP2 GT ISZERO PUSH2 0x2C6 JUMPI PUSH2 0x2C6 PUSH2 0x508 JUMP JUMPDEST DUP2 MSTORE PUSH1 0x20 ADD PUSH1 0x40 MLOAD DUP1 PUSH1 0x40 ADD PUSH1 0x40 MSTORE DUP1 PUSH1 0xB DUP2 MSTORE PUSH1 0x20 ADD PUSH11 0x10995CDD08199C9A595B99 PUSH1 0xAA SHL DUP2 MSTORE POP DUP2 MSTORE PUSH1 0x20 ADD PUSH2 0x31F PUSH1 0x40 MLOAD DUP1 PUSH1 0x40 ADD PUSH1 0x40 MSTORE DUP1 PUSH1 0x4 DUP2 MSTORE PUSH1 0x20 ADD PUSH4 0xC8CCC4D PUSH1 0xE2 SHL DUP2 MSTORE POP PUSH2 0x3C9 PUSH1 0x20 SHL PUSH1 0x20 SHR JUMP JUMPDEST DUP2 MSTORE PUSH1 0x0 PUSH1 0x20 DUP1 DUP4 ADD DUP3 SWAP1 MSTORE PUSH1 0x40 DUP1 DUP5 ADD DUP4 SWAP1 MSTORE PUSH1 0x60 DUP5 ADD DUP4 SWAP1 MSTORE PUSH1 0x80 SWAP1 SWAP4 ADD DUP3 SWAP1 MSTORE PUSH1 0x5 SLOAD PUSH1 0x1 PUSH1 0x1 PUSH1 0xA0 SHL SUB AND DUP3 MSTORE DUP2 SWAP1 MSTORE KECCAK256 DUP2 MLOAD DUP2 SLOAD DUP3 SWAP1 PUSH1 0xFF NOT AND PUSH1 0x1 DUP4 PUSH1 0x4 DUP2 GT ISZERO PUSH2 0x372 JUMPI PUSH2 0x372 PUSH2 0x508 JUMP JUMPDEST MUL OR SWAP1 SSTORE POP PUSH1 0x20 DUP3 DUP2 ADD MLOAD DUP1 MLOAD PUSH2 0x38F SWAP3 PUSH1 0x1 DUP6 ADD SWAP3 ADD SWAP1 PUSH2 0x3F9 JUMP JUMPDEST POP PUSH1 0x40 DUP3 ADD MLOAD PUSH1 0x2 DUP3 ADD SSTORE PUSH1 0x60 DUP3 ADD MLOAD PUSH1 0x3 DUP3 ADD SSTORE PUSH1 0x80 DUP3 ADD MLOAD PUSH1 0x4 DUP3 ADD SSTORE PUSH1 0xA0 DUP3 ADD MLOAD PUSH1 0x5 DUP3 ADD SSTORE PUSH1 0xC0 SWAP1 SWAP2 ADD MLOAD PUSH1 0x6 SWAP1 SWAP2 ADD SSTORE PUSH2 0x51E JUMP JUMPDEST PUSH1 0x0 DUP2 PUSH1 0x40 MLOAD PUSH1 0x20 ADD PUSH2 0x3DC SWAP2 SWAP1 PUSH2 0x492 JUMP JUMPDEST PUSH1 0x40 MLOAD PUSH1 0x20 DUP2 DUP4 SUB SUB DUP2 MSTORE SWAP1 PUSH1 0x40 MSTORE DUP1 MLOAD SWAP1 PUSH1 0x20 ADD KECCAK256 SWAP1 POP SWAP2 SWAP1 POP JUMP JUMPDEST DUP3 DUP1 SLOAD PUSH2 0x405 SWAP1 PUSH2 0x4CD JUMP JUMPDEST SWAP1 PUSH1 0x0 MSTORE PUSH1 0x20 PUSH1 0x0 KECCAK256 SWAP1 PUSH1 0x1F ADD PUSH1 0x20 SWAP1 DIV DUP2 ADD SWAP3 DUP3 PUSH2 0x427 JUMPI PUSH1 0x0 DUP6 SSTORE PUSH2 0x46D JUMP JUMPDEST DUP3 PUSH1 0x1F LT PUSH2 0x440 JUMPI DUP1 MLOAD PUSH1 0xFF NOT AND DUP4 DUP1 ADD OR DUP6 SSTORE PUSH2 0x46D JUMP JUMPDEST DUP3 DUP1 ADD PUSH1 0x1 ADD DUP6 SSTORE DUP3 ISZERO PUSH2 0x46D JUMPI SWAP2 DUP3 ADD JUMPDEST DUP3 DUP2 GT ISZERO PUSH2 0x46D JUMPI DUP3 MLOAD DUP3 SSTORE SWAP2 PUSH1 0x20 ADD SWAP2 SWAP1 PUSH1 0x1 ADD SWAP1 PUSH2 0x452 JUMP JUMPDEST POP PUSH2 0x479 SWAP3 SWAP2 POP PUSH2 0x47D JUMP JUMPDEST POP SWAP1 JUMP JUMPDEST JUMPDEST DUP1 DUP3 GT ISZERO PUSH2 0x479 JUMPI PUSH1 0x0 DUP2 SSTORE PUSH1 0x1 ADD PUSH2 0x47E JUMP JUMPDEST PUSH1 0x0 DUP3 MLOAD PUSH1 0x0 JUMPDEST DUP2 DUP2 LT ISZERO PUSH2 0x4B3 JUMPI PUSH1 0x20 DUP2 DUP7 ADD DUP2 ADD MLOAD DUP6 DUP4 ADD MSTORE ADD PUSH2 0x499 JUMP JUMPDEST DUP2 DUP2 GT ISZERO PUSH2 0x4C2 JUMPI PUSH1 0x0 DUP3 DUP6 ADD MSTORE JUMPDEST POP SWAP2 SWAP1 SWAP2 ADD SWAP3 SWAP2 POP POP JUMP JUMPDEST PUSH1 0x1 DUP2 DUP2 SHR SWAP1 DUP3 AND DUP1 PUSH2 0x4E1 JUMPI PUSH1 0x7F DUP3 AND SWAP2 POP JUMPDEST PUSH1 0x20 DUP3 LT DUP2 EQ ISZERO PUSH2 0x502 JUMPI PUSH4 0x4E487B71 PUSH1 0xE0 SHL PUSH1 0x0 MSTORE PUSH1 0x22 PUSH1 0x4 MSTORE PUSH1 0x24 PUSH1 0x0 REVERT JUMPDEST POP SWAP2 SWAP1 POP JUMP JUMPDEST PUSH4 0x4E487B71 PUSH1 0xE0 SHL PUSH1 0x0 MSTORE PUSH1 0x21 PUSH1 0x4 MSTORE PUSH1 0x24 PUSH1 0x0 REVERT JUMPDEST PUSH2 0x1D6 DUP1 PUSH2 0x52D PUSH1 0x0 CODECOPY PUSH1 0x0 RETURN INVALID PUSH1 0x80 PUSH1 0x40 MSTORE CALLVALUE DUP1 ISZERO PUSH2 0x10 JUMPI PUSH1 0x0 DUP1 REVERT JUMPDEST POP PUSH1 0x4 CALLDATASIZE LT PUSH2 0x2B JUMPI PUSH1 0x0 CALLDATALOAD PUSH1 0xE0 SHR DUP1 PUSH4 0x8E4F8C6B EQ PUSH2 0x30 JUMPI JUMPDEST PUSH1 0x0 DUP1 REVERT JUMPDEST PUSH2 0x43 PUSH2 0x3E CALLDATASIZE PUSH1 0x4 PUSH2 0x85 JUMP JUMPDEST PUSH2 0x55 JUMP JUMPDEST PUSH1 0x40 MLOAD SWAP1 DUP2 MSTORE PUSH1 0x20 ADD PUSH1 0x40 MLOAD DUP1 SWAP2 SUB SWAP1 RETURN JUMPDEST PUSH1 0x0 DUP2 PUSH1 0x40 MLOAD PUSH1 0x20 ADD PUSH2 0x68 SWAP2 SWAP1 PUSH2 0x136 JUMP JUMPDEST PUSH1 0x40 MLOAD PUSH1 0x20 DUP2 DUP4 SUB SUB DUP2 MSTORE SWAP1 PUSH1 0x40 MSTORE DUP1 MLOAD SWAP1 PUSH1 0x20 ADD KECCAK256 SWAP1 POP SWAP2 SWAP1 POP JUMP JUMPDEST PUSH1 0x0 PUSH1 0x20 DUP3 DUP5 SUB SLT ISZERO PUSH2 0x97 JUMPI PUSH1 0x0 DUP1 REVERT JUMPDEST DUP2 CALLDATALOAD PUSH8 0xFFFFFFFFFFFFFFFF DUP1 DUP3 GT ISZERO PUSH2 0xAF JUMPI PUSH1 0x0 DUP1 REVERT JUMPDEST DUP2 DUP5 ADD SWAP2 POP DUP5 PUSH1 0x1F DUP4 ADD SLT PUSH2 0xC3 JUMPI PUSH1 0x0 DUP1 REVERT JUMPDEST DUP2 CALLDATALOAD DUP2 DUP2 GT ISZERO PUSH2 0xD5 JUMPI PUSH2 0xD5 PUSH2 0x171 JUMP JUMPDEST PUSH1 0x40 MLOAD PUSH1 0x1F DUP3 ADD PUSH1 0x1F NOT SWAP1 DUP2 AND PUSH1 0x3F ADD AND DUP2 ADD SWAP1 DUP4 DUP3 GT DUP2 DUP4 LT OR ISZERO PUSH2 0xFD JUMPI PUSH2 0xFD PUSH2 0x171 JUMP JUMPDEST DUP2 PUSH1 0x40 MSTORE DUP3 DUP2 MSTORE DUP8 PUSH1 0x20 DUP5 DUP8 ADD ADD GT ISZERO PUSH2 0x116 JUMPI PUSH1 0x0 DUP1 REVERT JUMPDEST DUP3 PUSH1 0x20 DUP7 ADD PUSH1 0x20 DUP4 ADD CALLDATACOPY PUSH1 0x0 SWAP3 DUP2 ADD PUSH1 0x20 ADD SWAP3 SWAP1 SWAP3 MSTORE POP SWAP6 SWAP5 POP POP POP POP POP JUMP JUMPDEST PUSH1 0x0 DUP3 MLOAD PUSH1 0x0 JUMPDEST DUP2 DUP2 LT ISZERO PUSH2 0x157 JUMPI PUSH1 0x20 DUP2 DUP7 ADD DUP2 ADD MLOAD DUP6 DUP4 ADD MSTORE ADD PUSH2 0x13D JUMP JUMPDEST DUP2 DUP2 GT ISZERO PUSH2 0x166 JUMPI PUSH1 0x0 DUP3 DUP6 ADD MSTORE JUMPDEST POP SWAP2 SWAP1 SWAP2 ADD SWAP3 SWAP2 POP POP JUMP JUMPDEST PUSH32 0x4E487B7100000000000000000000000000000000000000000000000000000000 PUSH1 0x0 MSTORE PUSH1 0x41 PUSH1 0x4 MSTORE PUSH1 0x24 PUSH1 0x0 REVERT INVALID LOG2 PUSH5 0x6970667358 0x22 SLT KECCAK256 SAR INVALID DUP3 DUP4 PUSH20 0x66E83FA1ED1C6749116EA6971AEDB8F13161B777 0xA9 0x4C EQ 0xDF DIV DIFFICULTY SWAP2 PUSH5 0x736F6C6343 STOP ADDMOD SMOD STOP CALLER "
				},
				"gasEstimates": {
					"creation": {
						"codeDepositCost": "94000",
						"executionCost": "infinite",
						"totalCost": "infinite"
					},
					"external": {
						"get_keccak256(string)": "infinite"
					}
				},
				"methodIdentifiers": {
					"get_keccak256(string)": "8e4f8c6b"
				}
			},
			"storageLayout": {
				"storage": [
					{
						"astId": 1911,
						"contract": "Documents/GitHub/contract-token-cryptoMonster/backend/components/PhaseSeed.sol:PhaseSeed",
						"label": "structUsers_",
						"offset": 0,
						"slot": "0",
						"type": "t_mapping(t_address,t_struct(structUser)1906_storage)"
					},
					{
						"astId": 1921,
						"contract": "Documents/GitHub/contract-token-cryptoMonster/backend/components/PhaseSeed.sol:PhaseSeed",
						"label": "structPhases_",
						"offset": 0,
						"slot": "1",
						"type": "t_mapping(t_address,t_struct(structPhase)1916_storage)"
					},
					{
						"astId": 1939,
						"contract": "Documents/GitHub/contract-token-cryptoMonster/backend/components/PhaseSeed.sol:PhaseSeed",
						"label": "strucApplications_",
						"offset": 0,
						"slot": "2",
						"type": "t_mapping(t_address,t_struct(structApplication)1934_storage)"
					},
					{
						"astId": 1289,
						"contract": "Documents/GitHub/contract-token-cryptoMonster/backend/components/PhaseSeed.sol:PhaseSeed",
						"label": "investorFirstAdr",
						"offset": 0,
						"slot": "3",
						"type": "t_address"
					},
					{
						"astId": 1292,
						"contract": "Documents/GitHub/contract-token-cryptoMonster/backend/components/PhaseSeed.sol:PhaseSeed",
						"label": "investorSecondAdr",
						"offset": 0,
						"slot": "4",
						"type": "t_address"
					},
					{
						"astId": 1295,
						"contract": "Documents/GitHub/contract-token-cryptoMonster/backend/components/PhaseSeed.sol:PhaseSeed",
						"label": "bestFriendAdr",
						"offset": 0,
						"slot": "5",
						"type": "t_address"
					}
				],
				"types": {
					"t_address": {
						"encoding": "inplace",
						"label": "address",
						"numberOfBytes": "20"
					},
					"t_bool": {
						"encoding": "inplace",
						"label": "bool",
						"numberOfBytes": "1"
					},
					"t_bytes32": {
						"encoding": "inplace",
						"label": "bytes32",
						"numberOfBytes": "32"
					},
					"t_enum(Role)1890": {
						"encoding": "inplace",
						"label": "enum structures.Role",
						"numberOfBytes": "1"
					},
					"t_mapping(t_address,t_struct(structApplication)1934_storage)": {
						"encoding": "mapping",
						"key": "t_address",
						"label": "mapping(address => struct structures.structApplication)",
						"numberOfBytes": "32",
						"value": "t_struct(structApplication)1934_storage"
					},
					"t_mapping(t_address,t_struct(structPhase)1916_storage)": {
						"encoding": "mapping",
						"key": "t_address",
						"label": "mapping(address => struct structures.structPhase)",
						"numberOfBytes": "32",
						"value": "t_struct(structPhase)1916_storage"
					},
					"t_mapping(t_address,t_struct(structUser)1906_storage)": {
						"encoding": "mapping",
						"key": "t_address",
						"label": "mapping(address => struct structures.structUser)",
						"numberOfBytes": "32",
						"value": "t_struct(structUser)1906_storage"
					},
					"t_string_storage": {
						"encoding": "bytes",
						"label": "string",
						"numberOfBytes": "32"
					},
					"t_struct(structApplication)1934_storage": {
						"encoding": "inplace",
						"label": "struct structures.structApplication",
						"members": [
							{
								"astId": 1923,
								"contract": "Documents/GitHub/contract-token-cryptoMonster/backend/components/PhaseSeed.sol:PhaseSeed",
								"label": "name",
								"offset": 0,
								"slot": "0",
								"type": "t_string_storage"
							},
							{
								"astId": 1925,
								"contract": "Documents/GitHub/contract-token-cryptoMonster/backend/components/PhaseSeed.sol:PhaseSeed",
								"label": "contactForCommunication",
								"offset": 0,
								"slot": "1",
								"type": "t_string_storage"
							},
							{
								"astId": 1927,
								"contract": "Documents/GitHub/contract-token-cryptoMonster/backend/components/PhaseSeed.sol:PhaseSeed",
								"label": "userAdr",
								"offset": 0,
								"slot": "2",
								"type": "t_address"
							},
							{
								"astId": 1929,
								"contract": "Documents/GitHub/contract-token-cryptoMonster/backend/components/PhaseSeed.sol:PhaseSeed",
								"label": "status",
								"offset": 20,
								"slot": "2",
								"type": "t_bool"
							},
							{
								"astId": 1931,
								"contract": "Documents/GitHub/contract-token-cryptoMonster/backend/components/PhaseSeed.sol:PhaseSeed",
								"label": "reviewed",
								"offset": 21,
								"slot": "2",
								"type": "t_bool"
							},
							{
								"astId": 1933,
								"contract": "Documents/GitHub/contract-token-cryptoMonster/backend/components/PhaseSeed.sol:PhaseSeed",
								"label": "exist",
								"offset": 22,
								"slot": "2",
								"type": "t_bool"
							}
						],
						"numberOfBytes": "96"
					},
					"t_struct(structPhase)1916_storage": {
						"encoding": "inplace",
						"label": "struct structures.structPhase",
						"members": [
							{
								"astId": 1913,
								"contract": "Documents/GitHub/contract-token-cryptoMonster/backend/components/PhaseSeed.sol:PhaseSeed",
								"label": "statusPhase",
								"offset": 0,
								"slot": "0",
								"type": "t_bool"
							},
							{
								"astId": 1915,
								"contract": "Documents/GitHub/contract-token-cryptoMonster/backend/components/PhaseSeed.sol:PhaseSeed",
								"label": "reviewed",
								"offset": 1,
								"slot": "0",
								"type": "t_bool"
							}
						],
						"numberOfBytes": "32"
					},
					"t_struct(structUser)1906_storage": {
						"encoding": "inplace",
						"label": "struct structures.structUser",
						"members": [
							{
								"astId": 1893,
								"contract": "Documents/GitHub/contract-token-cryptoMonster/backend/components/PhaseSeed.sol:PhaseSeed",
								"label": "role",
								"offset": 0,
								"slot": "0",
								"type": "t_enum(Role)1890"
							},
							{
								"astId": 1895,
								"contract": "Documents/GitHub/contract-token-cryptoMonster/backend/components/PhaseSeed.sol:PhaseSeed",
								"label": "login",
								"offset": 0,
								"slot": "1",
								"type": "t_string_storage"
							},
							{
								"astId": 1897,
								"contract": "Documents/GitHub/contract-token-cryptoMonster/backend/components/PhaseSeed.sol:PhaseSeed",
								"label": "password",
								"offset": 0,
								"slot": "2",
								"type": "t_bytes32"
							},
							{
								"astId": 1899,
								"contract": "Documents/GitHub/contract-token-cryptoMonster/backend/components/PhaseSeed.sol:PhaseSeed",
								"label": "balance_overall",
								"offset": 0,
								"slot": "3",
								"type": "t_uint256"
							},
							{
								"astId": 1901,
								"contract": "Documents/GitHub/contract-token-cryptoMonster/backend/components/PhaseSeed.sol:PhaseSeed",
								"label": "balance_seed",
								"offset": 0,
								"slot": "4",
								"type": "t_uint256"
							},
							{
								"astId": 1903,
								"contract": "Documents/GitHub/contract-token-cryptoMonster/backend/components/PhaseSeed.sol:PhaseSeed",
								"label": "balance_private",
								"offset": 0,
								"slot": "5",
								"type": "t_uint256"
							},
							{
								"astId": 1905,
								"contract": "Documents/GitHub/contract-token-cryptoMonster/backend/components/PhaseSeed.sol:PhaseSeed",
								"label": "balance_public",
								"offset": 0,
								"slot": "6",
								"type": "t_uint256"
							}
						],
						"numberOfBytes": "224"
					},
					"t_uint256": {
						"encoding": "inplace",
						"label": "uint256",
						"numberOfBytes": "32"
					}
				}
			},
			"userdoc": {
				"kind": "user",
				"methods": {},
				"version": 1
			}
		}
	}
}