{
	"Documents/GitHub/contract-token-cryptoMonster/backend/components/main.sol": {
		"Main": {
			"abi": [
				{
					"inputs": [
						{
							"internalType": "string",
							"name": "_hash",
							"type": "string"
						}
					],
					"name": "get_keccak256",
					"outputs": [
						{
							"internalType": "bytes32",
							"name": "",
							"type": "bytes32"
						}
					],
					"stateMutability": "pure",
					"type": "function"
				}
			],
			"devdoc": {
				"kind": "dev",
				"methods": {},
				"version": 1
			},
			"evm": {
				"assembly": "    /* \"Documents/GitHub/contract-token-cryptoMonster/backend/components/main.sol\":225:262  contract Main is validateFuncs {\r... */\n  mstore(0x40, 0x80)\n  callvalue\n  dup1\n  iszero\n  tag_1\n  jumpi\n  0x00\n  dup1\n  revert\ntag_1:\n  pop\n  dataSize(sub_0)\n  dup1\n  dataOffset(sub_0)\n  0x00\n  codecopy\n  0x00\n  return\nstop\n\nsub_0: assembly {\n        /* \"Documents/GitHub/contract-token-cryptoMonster/backend/components/main.sol\":225:262  contract Main is validateFuncs {\r... */\n      mstore(0x40, 0x80)\n      callvalue\n      dup1\n      iszero\n      tag_1\n      jumpi\n      0x00\n      dup1\n      revert\n    tag_1:\n      pop\n      jumpi(tag_2, lt(calldatasize, 0x04))\n      shr(0xe0, calldataload(0x00))\n      dup1\n      0x8e4f8c6b\n      eq\n      tag_3\n      jumpi\n    tag_2:\n      0x00\n      dup1\n      revert\n        /* \"Documents/GitHub/contract-token-cryptoMonster/backend/shared/helpers/getFuncs.sol\":144:282  function get_keccak256(string memory _hash) public pure returns(bytes32) {\r... */\n    tag_3:\n      tag_4\n      tag_5\n      calldatasize\n      0x04\n      tag_6\n      jump\t// in\n    tag_5:\n      tag_7\n      jump\t// in\n    tag_4:\n      mload(0x40)\n        /* \"#utility.yul\":1520:1545   */\n      swap1\n      dup2\n      mstore\n        /* \"#utility.yul\":1508:1510   */\n      0x20\n        /* \"#utility.yul\":1493:1511   */\n      add\n        /* \"Documents/GitHub/contract-token-cryptoMonster/backend/shared/helpers/getFuncs.sol\":144:282  function get_keccak256(string memory _hash) public pure returns(bytes32) {\r... */\n      mload(0x40)\n      dup1\n      swap2\n      sub\n      swap1\n      return\n    tag_7:\n        /* \"Documents/GitHub/contract-token-cryptoMonster/backend/shared/helpers/getFuncs.sol\":208:215  bytes32 */\n      0x00\n        /* \"Documents/GitHub/contract-token-cryptoMonster/backend/shared/helpers/getFuncs.sol\":266:271  _hash */\n      dup2\n        /* \"Documents/GitHub/contract-token-cryptoMonster/backend/shared/helpers/getFuncs.sol\":249:272  abi.encodePacked(_hash) */\n      add(0x20, mload(0x40))\n      tag_11\n      swap2\n      swap1\n      tag_12\n      jump\t// in\n    tag_11:\n      mload(0x40)\n      0x20\n      dup2\n      dup4\n      sub\n      sub\n      dup2\n      mstore\n      swap1\n      0x40\n      mstore\n        /* \"Documents/GitHub/contract-token-cryptoMonster/backend/shared/helpers/getFuncs.sol\":239:273  keccak256(abi.encodePacked(_hash)) */\n      dup1\n      mload\n      swap1\n      0x20\n      add\n      keccak256\n        /* \"Documents/GitHub/contract-token-cryptoMonster/backend/shared/helpers/getFuncs.sol\":232:274  return(keccak256(abi.encodePacked(_hash))) */\n      swap1\n      pop\n        /* \"Documents/GitHub/contract-token-cryptoMonster/backend/shared/helpers/getFuncs.sol\":144:282  function get_keccak256(string memory _hash) public pure returns(bytes32) {\r... */\n      swap2\n      swap1\n      pop\n      jump\t// out\n        /* \"#utility.yul\":14:936   */\n    tag_6:\n        /* \"#utility.yul\":83:89   */\n      0x00\n        /* \"#utility.yul\":136:138   */\n      0x20\n        /* \"#utility.yul\":124:133   */\n      dup3\n        /* \"#utility.yul\":115:122   */\n      dup5\n        /* \"#utility.yul\":111:134   */\n      sub\n        /* \"#utility.yul\":107:139   */\n      slt\n        /* \"#utility.yul\":104:156   */\n      iszero\n      tag_15\n      jumpi\n        /* \"#utility.yul\":152:153   */\n      0x00\n        /* \"#utility.yul\":149:150   */\n      dup1\n        /* \"#utility.yul\":142:154   */\n      revert\n        /* \"#utility.yul\":104:156   */\n    tag_15:\n        /* \"#utility.yul\":192:201   */\n      dup2\n        /* \"#utility.yul\":179:202   */\n      calldataload\n        /* \"#utility.yul\":221:239   */\n      0xffffffffffffffff\n        /* \"#utility.yul\":262:264   */\n      dup1\n        /* \"#utility.yul\":254:260   */\n      dup3\n        /* \"#utility.yul\":251:265   */\n      gt\n        /* \"#utility.yul\":248:282   */\n      iszero\n      tag_16\n      jumpi\n        /* \"#utility.yul\":278:279   */\n      0x00\n        /* \"#utility.yul\":275:276   */\n      dup1\n        /* \"#utility.yul\":268:280   */\n      revert\n        /* \"#utility.yul\":248:282   */\n    tag_16:\n        /* \"#utility.yul\":316:322   */\n      dup2\n        /* \"#utility.yul\":305:314   */\n      dup5\n        /* \"#utility.yul\":301:323   */\n      add\n        /* \"#utility.yul\":291:323   */\n      swap2\n      pop\n        /* \"#utility.yul\":361:368   */\n      dup5\n        /* \"#utility.yul\":354:358   */\n      0x1f\n        /* \"#utility.yul\":350:352   */\n      dup4\n        /* \"#utility.yul\":346:359   */\n      add\n        /* \"#utility.yul\":342:369   */\n      slt\n        /* \"#utility.yul\":332:387   */\n      tag_17\n      jumpi\n        /* \"#utility.yul\":383:384   */\n      0x00\n        /* \"#utility.yul\":380:381   */\n      dup1\n        /* \"#utility.yul\":373:385   */\n      revert\n        /* \"#utility.yul\":332:387   */\n    tag_17:\n        /* \"#utility.yul\":419:421   */\n      dup2\n        /* \"#utility.yul\":406:422   */\n      calldataload\n        /* \"#utility.yul\":441:443   */\n      dup2\n        /* \"#utility.yul\":437:439   */\n      dup2\n        /* \"#utility.yul\":434:444   */\n      gt\n        /* \"#utility.yul\":431:467   */\n      iszero\n      tag_19\n      jumpi\n        /* \"#utility.yul\":447:465   */\n      tag_19\n      tag_20\n      jump\t// in\n    tag_19:\n        /* \"#utility.yul\":522:524   */\n      0x40\n        /* \"#utility.yul\":516:525   */\n      mload\n        /* \"#utility.yul\":490:492   */\n      0x1f\n        /* \"#utility.yul\":576:589   */\n      dup3\n      add\n      not(0x1f)\n        /* \"#utility.yul\":572:594   */\n      swap1\n      dup2\n      and\n        /* \"#utility.yul\":596:598   */\n      0x3f\n        /* \"#utility.yul\":568:599   */\n      add\n        /* \"#utility.yul\":564:604   */\n      and\n        /* \"#utility.yul\":552:605   */\n      dup2\n      add\n      swap1\n        /* \"#utility.yul\":620:638   */\n      dup4\n      dup3\n      gt\n        /* \"#utility.yul\":640:662   */\n      dup2\n      dup4\n      lt\n        /* \"#utility.yul\":617:663   */\n      or\n        /* \"#utility.yul\":614:686   */\n      iszero\n      tag_22\n      jumpi\n        /* \"#utility.yul\":666:684   */\n      tag_22\n      tag_20\n      jump\t// in\n    tag_22:\n        /* \"#utility.yul\":706:716   */\n      dup2\n        /* \"#utility.yul\":702:704   */\n      0x40\n        /* \"#utility.yul\":695:717   */\n      mstore\n        /* \"#utility.yul\":741:743   */\n      dup3\n        /* \"#utility.yul\":733:739   */\n      dup2\n        /* \"#utility.yul\":726:744   */\n      mstore\n        /* \"#utility.yul\":781:788   */\n      dup8\n        /* \"#utility.yul\":776:778   */\n      0x20\n        /* \"#utility.yul\":771:773   */\n      dup5\n        /* \"#utility.yul\":767:769   */\n      dup8\n        /* \"#utility.yul\":763:774   */\n      add\n        /* \"#utility.yul\":759:779   */\n      add\n        /* \"#utility.yul\":756:789   */\n      gt\n        /* \"#utility.yul\":753:806   */\n      iszero\n      tag_23\n      jumpi\n        /* \"#utility.yul\":802:803   */\n      0x00\n        /* \"#utility.yul\":799:800   */\n      dup1\n        /* \"#utility.yul\":792:804   */\n      revert\n        /* \"#utility.yul\":753:806   */\n    tag_23:\n        /* \"#utility.yul\":858:860   */\n      dup3\n        /* \"#utility.yul\":853:855   */\n      0x20\n        /* \"#utility.yul\":849:851   */\n      dup7\n        /* \"#utility.yul\":845:856   */\n      add\n        /* \"#utility.yul\":840:842   */\n      0x20\n        /* \"#utility.yul\":832:838   */\n      dup4\n        /* \"#utility.yul\":828:843   */\n      add\n        /* \"#utility.yul\":815:861   */\n      calldatacopy\n        /* \"#utility.yul\":903:904   */\n      0x00\n        /* \"#utility.yul\":881:896   */\n      swap3\n      dup2\n      add\n        /* \"#utility.yul\":898:900   */\n      0x20\n        /* \"#utility.yul\":877:901   */\n      add\n        /* \"#utility.yul\":870:905   */\n      swap3\n      swap1\n      swap3\n      mstore\n      pop\n        /* \"#utility.yul\":885:891   */\n      swap6\n        /* \"#utility.yul\":14:936   */\n      swap5\n      pop\n      pop\n      pop\n      pop\n      pop\n      jump\t// out\n        /* \"#utility.yul\":941:1369   */\n    tag_12:\n        /* \"#utility.yul\":1072:1075   */\n      0x00\n        /* \"#utility.yul\":1110:1116   */\n      dup3\n        /* \"#utility.yul\":1104:1117   */\n      mload\n        /* \"#utility.yul\":1135:1136   */\n      0x00\n        /* \"#utility.yul\":1145:1274   */\n    tag_25:\n        /* \"#utility.yul\":1159:1165   */\n      dup2\n        /* \"#utility.yul\":1156:1157   */\n      dup2\n        /* \"#utility.yul\":1153:1166   */\n      lt\n        /* \"#utility.yul\":1145:1274   */\n      iszero\n      tag_27\n      jumpi\n        /* \"#utility.yul\":1257:1261   */\n      0x20\n        /* \"#utility.yul\":1241:1255   */\n      dup2\n      dup7\n      add\n        /* \"#utility.yul\":1237:1262   */\n      dup2\n      add\n        /* \"#utility.yul\":1231:1263   */\n      mload\n        /* \"#utility.yul\":1218:1229   */\n      dup6\n      dup4\n      add\n        /* \"#utility.yul\":1211:1264   */\n      mstore\n        /* \"#utility.yul\":1174:1186   */\n      add\n        /* \"#utility.yul\":1145:1274   */\n      jump(tag_25)\n    tag_27:\n        /* \"#utility.yul\":1292:1298   */\n      dup2\n        /* \"#utility.yul\":1289:1290   */\n      dup2\n        /* \"#utility.yul\":1286:1299   */\n      gt\n        /* \"#utility.yul\":1283:1331   */\n      iszero\n      tag_28\n      jumpi\n        /* \"#utility.yul\":1327:1328   */\n      0x00\n        /* \"#utility.yul\":1318:1324   */\n      dup3\n        /* \"#utility.yul\":1313:1316   */\n      dup6\n        /* \"#utility.yul\":1309:1325   */\n      add\n        /* \"#utility.yul\":1302:1329   */\n      mstore\n        /* \"#utility.yul\":1283:1331   */\n    tag_28:\n      pop\n        /* \"#utility.yul\":1347:1363   */\n      swap2\n      swap1\n      swap2\n      add\n      swap3\n        /* \"#utility.yul\":941:1369   */\n      swap2\n      pop\n      pop\n      jump\t// out\n        /* \"#utility.yul\":1556:1740   */\n    tag_20:\n        /* \"#utility.yul\":1608:1685   */\n      0x4e487b7100000000000000000000000000000000000000000000000000000000\n        /* \"#utility.yul\":1605:1606   */\n      0x00\n        /* \"#utility.yul\":1598:1686   */\n      mstore\n        /* \"#utility.yul\":1705:1709   */\n      0x41\n        /* \"#utility.yul\":1702:1703   */\n      0x04\n        /* \"#utility.yul\":1695:1710   */\n      mstore\n        /* \"#utility.yul\":1729:1733   */\n      0x24\n        /* \"#utility.yul\":1726:1727   */\n      0x00\n        /* \"#utility.yul\":1719:1734   */\n      revert\n\n    auxdata: 0xa264697066735822122040af8ce016989c9a94f94f5ce7823e9baf9368e21e1ff94b2235c95d4d61cc4564736f6c63430008070033\n}\n",
				"bytecode": {
					"linkReferences": {},
					"object": "608060405234801561001057600080fd5b506101d6806100206000396000f3fe608060405234801561001057600080fd5b506004361061002b5760003560e01c80638e4f8c6b14610030575b600080fd5b61004361003e366004610085565b610055565b60405190815260200160405180910390f35b6000816040516020016100689190610136565b604051602081830303815290604052805190602001209050919050565b60006020828403121561009757600080fd5b813567ffffffffffffffff808211156100af57600080fd5b818401915084601f8301126100c357600080fd5b8135818111156100d5576100d5610171565b604051601f8201601f19908116603f011681019083821181831017156100fd576100fd610171565b8160405282815287602084870101111561011657600080fd5b826020860160208301376000928101602001929092525095945050505050565b6000825160005b81811015610157576020818601810151858301520161013d565b81811115610166576000828501525b509190910192915050565b7f4e487b7100000000000000000000000000000000000000000000000000000000600052604160045260246000fdfea264697066735822122040af8ce016989c9a94f94f5ce7823e9baf9368e21e1ff94b2235c95d4d61cc4564736f6c63430008070033",
					"opcodes": "PUSH1 0x80 PUSH1 0x40 MSTORE CALLVALUE DUP1 ISZERO PUSH2 0x10 JUMPI PUSH1 0x0 DUP1 REVERT JUMPDEST POP PUSH2 0x1D6 DUP1 PUSH2 0x20 PUSH1 0x0 CODECOPY PUSH1 0x0 RETURN INVALID PUSH1 0x80 PUSH1 0x40 MSTORE CALLVALUE DUP1 ISZERO PUSH2 0x10 JUMPI PUSH1 0x0 DUP1 REVERT JUMPDEST POP PUSH1 0x4 CALLDATASIZE LT PUSH2 0x2B JUMPI PUSH1 0x0 CALLDATALOAD PUSH1 0xE0 SHR DUP1 PUSH4 0x8E4F8C6B EQ PUSH2 0x30 JUMPI JUMPDEST PUSH1 0x0 DUP1 REVERT JUMPDEST PUSH2 0x43 PUSH2 0x3E CALLDATASIZE PUSH1 0x4 PUSH2 0x85 JUMP JUMPDEST PUSH2 0x55 JUMP JUMPDEST PUSH1 0x40 MLOAD SWAP1 DUP2 MSTORE PUSH1 0x20 ADD PUSH1 0x40 MLOAD DUP1 SWAP2 SUB SWAP1 RETURN JUMPDEST PUSH1 0x0 DUP2 PUSH1 0x40 MLOAD PUSH1 0x20 ADD PUSH2 0x68 SWAP2 SWAP1 PUSH2 0x136 JUMP JUMPDEST PUSH1 0x40 MLOAD PUSH1 0x20 DUP2 DUP4 SUB SUB DUP2 MSTORE SWAP1 PUSH1 0x40 MSTORE DUP1 MLOAD SWAP1 PUSH1 0x20 ADD KECCAK256 SWAP1 POP SWAP2 SWAP1 POP JUMP JUMPDEST PUSH1 0x0 PUSH1 0x20 DUP3 DUP5 SUB SLT ISZERO PUSH2 0x97 JUMPI PUSH1 0x0 DUP1 REVERT JUMPDEST DUP2 CALLDATALOAD PUSH8 0xFFFFFFFFFFFFFFFF DUP1 DUP3 GT ISZERO PUSH2 0xAF JUMPI PUSH1 0x0 DUP1 REVERT JUMPDEST DUP2 DUP5 ADD SWAP2 POP DUP5 PUSH1 0x1F DUP4 ADD SLT PUSH2 0xC3 JUMPI PUSH1 0x0 DUP1 REVERT JUMPDEST DUP2 CALLDATALOAD DUP2 DUP2 GT ISZERO PUSH2 0xD5 JUMPI PUSH2 0xD5 PUSH2 0x171 JUMP JUMPDEST PUSH1 0x40 MLOAD PUSH1 0x1F DUP3 ADD PUSH1 0x1F NOT SWAP1 DUP2 AND PUSH1 0x3F ADD AND DUP2 ADD SWAP1 DUP4 DUP3 GT DUP2 DUP4 LT OR ISZERO PUSH2 0xFD JUMPI PUSH2 0xFD PUSH2 0x171 JUMP JUMPDEST DUP2 PUSH1 0x40 MSTORE DUP3 DUP2 MSTORE DUP8 PUSH1 0x20 DUP5 DUP8 ADD ADD GT ISZERO PUSH2 0x116 JUMPI PUSH1 0x0 DUP1 REVERT JUMPDEST DUP3 PUSH1 0x20 DUP7 ADD PUSH1 0x20 DUP4 ADD CALLDATACOPY PUSH1 0x0 SWAP3 DUP2 ADD PUSH1 0x20 ADD SWAP3 SWAP1 SWAP3 MSTORE POP SWAP6 SWAP5 POP POP POP POP POP JUMP JUMPDEST PUSH1 0x0 DUP3 MLOAD PUSH1 0x0 JUMPDEST DUP2 DUP2 LT ISZERO PUSH2 0x157 JUMPI PUSH1 0x20 DUP2 DUP7 ADD DUP2 ADD MLOAD DUP6 DUP4 ADD MSTORE ADD PUSH2 0x13D JUMP JUMPDEST DUP2 DUP2 GT ISZERO PUSH2 0x166 JUMPI PUSH1 0x0 DUP3 DUP6 ADD MSTORE JUMPDEST POP SWAP2 SWAP1 SWAP2 ADD SWAP3 SWAP2 POP POP JUMP JUMPDEST PUSH32 0x4E487B7100000000000000000000000000000000000000000000000000000000 PUSH1 0x0 MSTORE PUSH1 0x41 PUSH1 0x4 MSTORE PUSH1 0x24 PUSH1 0x0 REVERT INVALID LOG2 PUSH5 0x6970667358 0x22 SLT KECCAK256 BLOCKHASH 0xAF DUP13 0xE0 AND SWAP9 SWAP13 SWAP11 SWAP5 0xF9 0x4F 0x5C 0xE7 DUP3 RETURNDATACOPY SWAP12 0xAF SWAP4 PUSH9 0xE21E1FF94B2235C95D 0x4D PUSH2 0xCC45 PUSH5 0x736F6C6343 STOP ADDMOD SMOD STOP CALLER "
				},
				"gasEstimates": {
					"creation": {
						"codeDepositCost": "94000",
						"executionCost": "141",
						"totalCost": "94141"
					},
					"external": {
						"get_keccak256(string)": "infinite"
					}
				},
				"methodIdentifiers": {
					"get_keccak256(string)": "8e4f8c6b"
				}
			},
			"storageLayout": {
				"storage": [
					{
						"astId": 1911,
						"contract": "Documents/GitHub/contract-token-cryptoMonster/backend/components/main.sol:Main",
						"label": "structUsers_",
						"offset": 0,
						"slot": "0",
						"type": "t_mapping(t_address,t_struct(structUser)1906_storage)"
					},
					{
						"astId": 1921,
						"contract": "Documents/GitHub/contract-token-cryptoMonster/backend/components/main.sol:Main",
						"label": "structPhases_",
						"offset": 0,
						"slot": "1",
						"type": "t_mapping(t_address,t_struct(structPhase)1916_storage)"
					},
					{
						"astId": 1939,
						"contract": "Documents/GitHub/contract-token-cryptoMonster/backend/components/main.sol:Main",
						"label": "strucApplications_",
						"offset": 0,
						"slot": "2",
						"type": "t_mapping(t_address,t_struct(structApplication)1934_storage)"
					}
				],
				"types": {
					"t_address": {
						"encoding": "inplace",
						"label": "address",
						"numberOfBytes": "20"
					},
					"t_bool": {
						"encoding": "inplace",
						"label": "bool",
						"numberOfBytes": "1"
					},
					"t_bytes32": {
						"encoding": "inplace",
						"label": "bytes32",
						"numberOfBytes": "32"
					},
					"t_enum(Role)1890": {
						"encoding": "inplace",
						"label": "enum structures.Role",
						"numberOfBytes": "1"
					},
					"t_mapping(t_address,t_struct(structApplication)1934_storage)": {
						"encoding": "mapping",
						"key": "t_address",
						"label": "mapping(address => struct structures.structApplication)",
						"numberOfBytes": "32",
						"value": "t_struct(structApplication)1934_storage"
					},
					"t_mapping(t_address,t_struct(structPhase)1916_storage)": {
						"encoding": "mapping",
						"key": "t_address",
						"label": "mapping(address => struct structures.structPhase)",
						"numberOfBytes": "32",
						"value": "t_struct(structPhase)1916_storage"
					},
					"t_mapping(t_address,t_struct(structUser)1906_storage)": {
						"encoding": "mapping",
						"key": "t_address",
						"label": "mapping(address => struct structures.structUser)",
						"numberOfBytes": "32",
						"value": "t_struct(structUser)1906_storage"
					},
					"t_string_storage": {
						"encoding": "bytes",
						"label": "string",
						"numberOfBytes": "32"
					},
					"t_struct(structApplication)1934_storage": {
						"encoding": "inplace",
						"label": "struct structures.structApplication",
						"members": [
							{
								"astId": 1923,
								"contract": "Documents/GitHub/contract-token-cryptoMonster/backend/components/main.sol:Main",
								"label": "name",
								"offset": 0,
								"slot": "0",
								"type": "t_string_storage"
							},
							{
								"astId": 1925,
								"contract": "Documents/GitHub/contract-token-cryptoMonster/backend/components/main.sol:Main",
								"label": "contactForCommunication",
								"offset": 0,
								"slot": "1",
								"type": "t_string_storage"
							},
							{
								"astId": 1927,
								"contract": "Documents/GitHub/contract-token-cryptoMonster/backend/components/main.sol:Main",
								"label": "userAdr",
								"offset": 0,
								"slot": "2",
								"type": "t_address"
							},
							{
								"astId": 1929,
								"contract": "Documents/GitHub/contract-token-cryptoMonster/backend/components/main.sol:Main",
								"label": "status",
								"offset": 20,
								"slot": "2",
								"type": "t_bool"
							},
							{
								"astId": 1931,
								"contract": "Documents/GitHub/contract-token-cryptoMonster/backend/components/main.sol:Main",
								"label": "reviewed",
								"offset": 21,
								"slot": "2",
								"type": "t_bool"
							},
							{
								"astId": 1933,
								"contract": "Documents/GitHub/contract-token-cryptoMonster/backend/components/main.sol:Main",
								"label": "exist",
								"offset": 22,
								"slot": "2",
								"type": "t_bool"
							}
						],
						"numberOfBytes": "96"
					},
					"t_struct(structPhase)1916_storage": {
						"encoding": "inplace",
						"label": "struct structures.structPhase",
						"members": [
							{
								"astId": 1913,
								"contract": "Documents/GitHub/contract-token-cryptoMonster/backend/components/main.sol:Main",
								"label": "statusPhase",
								"offset": 0,
								"slot": "0",
								"type": "t_bool"
							},
							{
								"astId": 1915,
								"contract": "Documents/GitHub/contract-token-cryptoMonster/backend/components/main.sol:Main",
								"label": "reviewed",
								"offset": 1,
								"slot": "0",
								"type": "t_bool"
							}
						],
						"numberOfBytes": "32"
					},
					"t_struct(structUser)1906_storage": {
						"encoding": "inplace",
						"label": "struct structures.structUser",
						"members": [
							{
								"astId": 1893,
								"contract": "Documents/GitHub/contract-token-cryptoMonster/backend/components/main.sol:Main",
								"label": "role",
								"offset": 0,
								"slot": "0",
								"type": "t_enum(Role)1890"
							},
							{
								"astId": 1895,
								"contract": "Documents/GitHub/contract-token-cryptoMonster/backend/components/main.sol:Main",
								"label": "login",
								"offset": 0,
								"slot": "1",
								"type": "t_string_storage"
							},
							{
								"astId": 1897,
								"contract": "Documents/GitHub/contract-token-cryptoMonster/backend/components/main.sol:Main",
								"label": "password",
								"offset": 0,
								"slot": "2",
								"type": "t_bytes32"
							},
							{
								"astId": 1899,
								"contract": "Documents/GitHub/contract-token-cryptoMonster/backend/components/main.sol:Main",
								"label": "balance_overall",
								"offset": 0,
								"slot": "3",
								"type": "t_uint256"
							},
							{
								"astId": 1901,
								"contract": "Documents/GitHub/contract-token-cryptoMonster/backend/components/main.sol:Main",
								"label": "balance_seed",
								"offset": 0,
								"slot": "4",
								"type": "t_uint256"
							},
							{
								"astId": 1903,
								"contract": "Documents/GitHub/contract-token-cryptoMonster/backend/components/main.sol:Main",
								"label": "balance_private",
								"offset": 0,
								"slot": "5",
								"type": "t_uint256"
							},
							{
								"astId": 1905,
								"contract": "Documents/GitHub/contract-token-cryptoMonster/backend/components/main.sol:Main",
								"label": "balance_public",
								"offset": 0,
								"slot": "6",
								"type": "t_uint256"
							}
						],
						"numberOfBytes": "224"
					},
					"t_uint256": {
						"encoding": "inplace",
						"label": "uint256",
						"numberOfBytes": "32"
					}
				}
			},
			"userdoc": {
				"kind": "user",
				"methods": {},
				"version": 1
			}
		}
	}
}