{
	"Documents/GitHub/contract-token-cryptoMonster/backend/components/PhasePrivate.sol": {
		"PhasePrivate": {
			"abi": [
				{
					"inputs": [
						{
							"internalType": "bool",
							"name": "_changeStatus",
							"type": "bool"
						}
					],
					"name": "acceptApplication",
					"outputs": [],
					"stateMutability": "nonpayable",
					"type": "function"
				},
				{
					"inputs": [
						{
							"internalType": "string",
							"name": "_name",
							"type": "string"
						},
						{
							"internalType": "string",
							"name": "_contactForCommunication",
							"type": "string"
						},
						{
							"internalType": "address",
							"name": "_userAdr",
							"type": "address"
						}
					],
					"name": "application",
					"outputs": [],
					"stateMutability": "nonpayable",
					"type": "function"
				},
				{
					"inputs": [
						{
							"internalType": "string",
							"name": "_hash",
							"type": "string"
						}
					],
					"name": "get_keccak256",
					"outputs": [
						{
							"internalType": "bytes32",
							"name": "",
							"type": "bytes32"
						}
					],
					"stateMutability": "pure",
					"type": "function"
				},
				{
					"inputs": [],
					"name": "viewApplication",
					"outputs": [
						{
							"internalType": "address",
							"name": "",
							"type": "address"
						}
					],
					"stateMutability": "nonpayable",
					"type": "function"
				}
			],
			"devdoc": {
				"kind": "dev",
				"methods": {},
				"version": 1
			},
			"evm": {
				"assembly": "    /* \"Documents/GitHub/contract-token-cryptoMonster/backend/components/PhasePrivate.sol\":120:1233  contract PhasePrivate is modifireFunc {\r... */\n  mstore(0x40, 0x80)\n  callvalue\n  dup1\n  iszero\n  tag_1\n  jumpi\n  0x00\n  dup1\n  revert\ntag_1:\n  pop\n  dataSize(sub_0)\n  dup1\n  dataOffset(sub_0)\n  0x00\n  codecopy\n  0x00\n  return\nstop\n\nsub_0: assembly {\n        /* \"Documents/GitHub/contract-token-cryptoMonster/backend/components/PhasePrivate.sol\":120:1233  contract PhasePrivate is modifireFunc {\r... */\n      mstore(0x40, 0x80)\n      callvalue\n      dup1\n      iszero\n      tag_1\n      jumpi\n      0x00\n      dup1\n      revert\n    tag_1:\n      pop\n      jumpi(tag_2, lt(calldatasize, 0x04))\n      shr(0xe0, calldataload(0x00))\n      dup1\n      0x44b69405\n      eq\n      tag_3\n      jumpi\n      dup1\n      0x785963c3\n      eq\n      tag_4\n      jumpi\n      dup1\n      0x8e4f8c6b\n      eq\n      tag_5\n      jumpi\n      dup1\n      0x9d9e7a4b\n      eq\n      tag_6\n      jumpi\n    tag_2:\n      0x00\n      dup1\n      revert\n        /* \"Documents/GitHub/contract-token-cryptoMonster/backend/components/PhasePrivate.sol\":765:982  function viewApplication () public onlyAdmin returns (address) {\r... */\n    tag_3:\n      tag_7\n      tag_8\n      jump\t// in\n    tag_7:\n      mload(0x40)\n      tag_9\n      swap2\n      swap1\n      tag_10\n      jump\t// in\n    tag_9:\n      mload(0x40)\n      dup1\n      swap2\n      sub\n      swap1\n      return\n        /* \"Documents/GitHub/contract-token-cryptoMonster/backend/components/PhasePrivate.sol\":256:683  function application(string memory _name, string memory _contactForCommunication, address _userAdr) public {\r... */\n    tag_4:\n      tag_11\n      0x04\n      dup1\n      calldatasize\n      sub\n      dup2\n      add\n      swap1\n      tag_12\n      swap2\n      swap1\n      tag_13\n      jump\t// in\n    tag_12:\n      tag_14\n      jump\t// in\n    tag_11:\n      stop\n        /* \"Documents/GitHub/contract-token-cryptoMonster/backend/shared/helpers/getFuncs.sol\":144:282  function get_keccak256(string memory _hash) public pure returns(bytes32) {\r... */\n    tag_5:\n      tag_15\n      0x04\n      dup1\n      calldatasize\n      sub\n      dup2\n      add\n      swap1\n      tag_16\n      swap2\n      swap1\n      tag_17\n      jump\t// in\n    tag_16:\n      tag_18\n      jump\t// in\n    tag_15:\n      mload(0x40)\n      tag_19\n      swap2\n      swap1\n      tag_20\n      jump\t// in\n    tag_19:\n      mload(0x40)\n      dup1\n      swap2\n      sub\n      swap1\n      return\n        /* \"Documents/GitHub/contract-token-cryptoMonster/backend/components/PhasePrivate.sol\":1058:1230  function acceptApplication (bool _changeStatus) public {\r... */\n    tag_6:\n      tag_21\n      0x04\n      dup1\n      calldatasize\n      sub\n      dup2\n      add\n      swap1\n      tag_22\n      swap2\n      swap1\n      tag_23\n      jump\t// in\n    tag_22:\n      tag_24\n      jump\t// in\n    tag_21:\n      stop\n        /* \"Documents/GitHub/contract-token-cryptoMonster/backend/components/PhasePrivate.sol\":765:982  function viewApplication () public onlyAdmin returns (address) {\r... */\n    tag_8:\n        /* \"Documents/GitHub/contract-token-cryptoMonster/backend/components/PhasePrivate.sol\":819:826  address */\n      0x00\n        /* \"Documents/GitHub/contract-token-cryptoMonster/backend/shared/helpers/modifireFunc.sol\":224:241  Role.SYSTEM_OWNER */\n      dup1\n        /* \"Documents/GitHub/contract-token-cryptoMonster/backend/shared/helpers/modifireFunc.sol\":191:241  structUsers_[msg.sender].role == Role.SYSTEM_OWNER */\n      0x04\n      dup2\n      gt\n      iszero\n      tag_26\n      jumpi\n      tag_27\n      tag_28\n      jump\t// in\n    tag_27:\n    tag_26:\n        /* \"Documents/GitHub/contract-token-cryptoMonster/backend/shared/helpers/modifireFunc.sol\":191:203  structUsers_ */\n      0x00\n        /* \"Documents/GitHub/contract-token-cryptoMonster/backend/shared/helpers/modifireFunc.sol\":191:215  structUsers_[msg.sender] */\n      dup1\n        /* \"Documents/GitHub/contract-token-cryptoMonster/backend/shared/helpers/modifireFunc.sol\":204:214  msg.sender */\n      caller\n        /* \"Documents/GitHub/contract-token-cryptoMonster/backend/shared/helpers/modifireFunc.sol\":191:215  structUsers_[msg.sender] */\n      0xffffffffffffffffffffffffffffffffffffffff\n      and\n      0xffffffffffffffffffffffffffffffffffffffff\n      and\n      dup2\n      mstore\n      0x20\n      add\n      swap1\n      dup2\n      mstore\n      0x20\n      add\n      0x00\n      keccak256\n        /* \"Documents/GitHub/contract-token-cryptoMonster/backend/shared/helpers/modifireFunc.sol\":191:220  structUsers_[msg.sender].role */\n      0x00\n      add\n      0x00\n      swap1\n      sload\n      swap1\n      0x0100\n      exp\n      swap1\n      div\n      0xff\n      and\n        /* \"Documents/GitHub/contract-token-cryptoMonster/backend/shared/helpers/modifireFunc.sol\":191:241  structUsers_[msg.sender].role == Role.SYSTEM_OWNER */\n      0x04\n      dup2\n      gt\n      iszero\n      tag_29\n      jumpi\n      tag_30\n      tag_28\n      jump\t// in\n    tag_30:\n    tag_29:\n      eq\n        /* \"Documents/GitHub/contract-token-cryptoMonster/backend/shared/helpers/modifireFunc.sol\":183:260  require(structUsers_[msg.sender].role == Role.SYSTEM_OWNER, \"Your not admin\") */\n      tag_31\n      jumpi\n      mload(0x40)\n      0x08c379a000000000000000000000000000000000000000000000000000000000\n      dup2\n      mstore\n      0x04\n      add\n      tag_32\n      swap1\n      tag_33\n      jump\t// in\n    tag_32:\n      mload(0x40)\n      dup1\n      swap2\n      sub\n      swap1\n      revert\n    tag_31:\n        /* \"Documents/GitHub/contract-token-cryptoMonster/backend/components/PhasePrivate.sol\":880:899  Role.SYSTEM_PRIVATE */\n      0x02\n        /* \"Documents/GitHub/contract-token-cryptoMonster/backend/components/PhasePrivate.sol\":847:899  structUsers_[msg.sender].role == Role.SYSTEM_PRIVATE */\n      0x04\n      dup2\n      gt\n      iszero\n      tag_35\n      jumpi\n      tag_36\n      tag_28\n      jump\t// in\n    tag_36:\n    tag_35:\n        /* \"Documents/GitHub/contract-token-cryptoMonster/backend/components/PhasePrivate.sol\":847:859  structUsers_ */\n      0x00\n        /* \"Documents/GitHub/contract-token-cryptoMonster/backend/components/PhasePrivate.sol\":847:871  structUsers_[msg.sender] */\n      dup1\n        /* \"Documents/GitHub/contract-token-cryptoMonster/backend/components/PhasePrivate.sol\":860:870  msg.sender */\n      caller\n        /* \"Documents/GitHub/contract-token-cryptoMonster/backend/components/PhasePrivate.sol\":847:871  structUsers_[msg.sender] */\n      0xffffffffffffffffffffffffffffffffffffffff\n      and\n      0xffffffffffffffffffffffffffffffffffffffff\n      and\n      dup2\n      mstore\n      0x20\n      add\n      swap1\n      dup2\n      mstore\n      0x20\n      add\n      0x00\n      keccak256\n        /* \"Documents/GitHub/contract-token-cryptoMonster/backend/components/PhasePrivate.sol\":847:876  structUsers_[msg.sender].role */\n      0x00\n      add\n      0x00\n      swap1\n      sload\n      swap1\n      0x0100\n      exp\n      swap1\n      div\n      0xff\n      and\n        /* \"Documents/GitHub/contract-token-cryptoMonster/backend/components/PhasePrivate.sol\":847:899  structUsers_[msg.sender].role == Role.SYSTEM_PRIVATE */\n      0x04\n      dup2\n      gt\n      iszero\n      tag_37\n      jumpi\n      tag_38\n      tag_28\n      jump\t// in\n    tag_38:\n    tag_37:\n      eq\n        /* \"Documents/GitHub/contract-token-cryptoMonster/backend/components/PhasePrivate.sol\":839:935  require(structUsers_[msg.sender].role == Role.SYSTEM_PRIVATE, \"You are not a private provider!\") */\n      tag_39\n      jumpi\n      mload(0x40)\n      0x08c379a000000000000000000000000000000000000000000000000000000000\n      dup2\n      mstore\n      0x04\n      add\n      tag_40\n      swap1\n      tag_41\n      jump\t// in\n    tag_40:\n      mload(0x40)\n      dup1\n      swap2\n      sub\n      swap1\n      revert\n    tag_39:\n        /* \"Documents/GitHub/contract-token-cryptoMonster/backend/components/PhasePrivate.sol\":765:982  function viewApplication () public onlyAdmin returns (address) {\r... */\n      swap1\n      jump\t// out\n        /* \"Documents/GitHub/contract-token-cryptoMonster/backend/components/PhasePrivate.sol\":256:683  function application(string memory _name, string memory _contactForCommunication, address _userAdr) public {\r... */\n    tag_14:\n        /* \"Documents/GitHub/contract-token-cryptoMonster/backend/components/PhasePrivate.sol\":422:426  true */\n      0x01\n        /* \"Documents/GitHub/contract-token-cryptoMonster/backend/components/PhasePrivate.sol\":382:426  strucApplications_[msg.sender].exist == true */\n      iszero\n      iszero\n        /* \"Documents/GitHub/contract-token-cryptoMonster/backend/components/PhasePrivate.sol\":382:400  strucApplications_ */\n      0x02\n        /* \"Documents/GitHub/contract-token-cryptoMonster/backend/components/PhasePrivate.sol\":382:412  strucApplications_[msg.sender] */\n      0x00\n        /* \"Documents/GitHub/contract-token-cryptoMonster/backend/components/PhasePrivate.sol\":401:411  msg.sender */\n      caller\n        /* \"Documents/GitHub/contract-token-cryptoMonster/backend/components/PhasePrivate.sol\":382:412  strucApplications_[msg.sender] */\n      0xffffffffffffffffffffffffffffffffffffffff\n      and\n      0xffffffffffffffffffffffffffffffffffffffff\n      and\n      dup2\n      mstore\n      0x20\n      add\n      swap1\n      dup2\n      mstore\n      0x20\n      add\n      0x00\n      keccak256\n        /* \"Documents/GitHub/contract-token-cryptoMonster/backend/components/PhasePrivate.sol\":382:418  strucApplications_[msg.sender].exist */\n      0x02\n      add\n      0x16\n      swap1\n      sload\n      swap1\n      0x0100\n      exp\n      swap1\n      div\n      0xff\n      and\n        /* \"Documents/GitHub/contract-token-cryptoMonster/backend/components/PhasePrivate.sol\":382:426  strucApplications_[msg.sender].exist == true */\n      iszero\n      iszero\n      eq\n        /* \"Documents/GitHub/contract-token-cryptoMonster/backend/components/PhasePrivate.sol\":374:456  require(strucApplications_[msg.sender].exist == true, \"Application already sent!\") */\n      tag_43\n      jumpi\n      mload(0x40)\n      0x08c379a000000000000000000000000000000000000000000000000000000000\n      dup2\n      mstore\n      0x04\n      add\n      tag_44\n      swap1\n      tag_45\n      jump\t// in\n    tag_44:\n      mload(0x40)\n      dup1\n      swap2\n      sub\n      swap1\n      revert\n    tag_43:\n        /* \"Documents/GitHub/contract-token-cryptoMonster/backend/components/PhasePrivate.sol\":596:675  structApplication(_name, _contactForCommunication, _userAdr, true, false, true) */\n      mload(0x40)\n      dup1\n      0xc0\n      add\n      0x40\n      mstore\n      dup1\n        /* \"Documents/GitHub/contract-token-cryptoMonster/backend/components/PhasePrivate.sol\":614:619  _name */\n      dup5\n        /* \"Documents/GitHub/contract-token-cryptoMonster/backend/components/PhasePrivate.sol\":596:675  structApplication(_name, _contactForCommunication, _userAdr, true, false, true) */\n      dup2\n      mstore\n      0x20\n      add\n        /* \"Documents/GitHub/contract-token-cryptoMonster/backend/components/PhasePrivate.sol\":621:645  _contactForCommunication */\n      dup4\n        /* \"Documents/GitHub/contract-token-cryptoMonster/backend/components/PhasePrivate.sol\":596:675  structApplication(_name, _contactForCommunication, _userAdr, true, false, true) */\n      dup2\n      mstore\n      0x20\n      add\n        /* \"Documents/GitHub/contract-token-cryptoMonster/backend/components/PhasePrivate.sol\":647:655  _userAdr */\n      dup3\n        /* \"Documents/GitHub/contract-token-cryptoMonster/backend/components/PhasePrivate.sol\":596:675  structApplication(_name, _contactForCommunication, _userAdr, true, false, true) */\n      0xffffffffffffffffffffffffffffffffffffffff\n      and\n      dup2\n      mstore\n      0x20\n      add\n        /* \"Documents/GitHub/contract-token-cryptoMonster/backend/components/PhasePrivate.sol\":657:661  true */\n      0x01\n        /* \"Documents/GitHub/contract-token-cryptoMonster/backend/components/PhasePrivate.sol\":596:675  structApplication(_name, _contactForCommunication, _userAdr, true, false, true) */\n      iszero\n      iszero\n      dup2\n      mstore\n      0x20\n      add\n        /* \"Documents/GitHub/contract-token-cryptoMonster/backend/components/PhasePrivate.sol\":663:668  false */\n      0x00\n        /* \"Documents/GitHub/contract-token-cryptoMonster/backend/components/PhasePrivate.sol\":596:675  structApplication(_name, _contactForCommunication, _userAdr, true, false, true) */\n      iszero\n      iszero\n      dup2\n      mstore\n      0x20\n      add\n        /* \"Documents/GitHub/contract-token-cryptoMonster/backend/components/PhasePrivate.sol\":670:674  true */\n      0x01\n        /* \"Documents/GitHub/contract-token-cryptoMonster/backend/components/PhasePrivate.sol\":596:675  structApplication(_name, _contactForCommunication, _userAdr, true, false, true) */\n      iszero\n      iszero\n      dup2\n      mstore\n      pop\n        /* \"Documents/GitHub/contract-token-cryptoMonster/backend/components/PhasePrivate.sol\":562:580  strucApplications_ */\n      0x02\n        /* \"Documents/GitHub/contract-token-cryptoMonster/backend/components/PhasePrivate.sol\":562:592  strucApplications_[msg.sender] */\n      0x00\n        /* \"Documents/GitHub/contract-token-cryptoMonster/backend/components/PhasePrivate.sol\":581:591  msg.sender */\n      caller\n        /* \"Documents/GitHub/contract-token-cryptoMonster/backend/components/PhasePrivate.sol\":562:592  strucApplications_[msg.sender] */\n      0xffffffffffffffffffffffffffffffffffffffff\n      and\n      0xffffffffffffffffffffffffffffffffffffffff\n      and\n      dup2\n      mstore\n      0x20\n      add\n      swap1\n      dup2\n      mstore\n      0x20\n      add\n      0x00\n      keccak256\n        /* \"Documents/GitHub/contract-token-cryptoMonster/backend/components/PhasePrivate.sol\":562:675  strucApplications_[msg.sender]  = structApplication(_name, _contactForCommunication, _userAdr, true, false, true) */\n      0x00\n      dup3\n      add\n      mload\n      dup2\n      0x00\n      add\n      swap1\n      dup1\n      mload\n      swap1\n      0x20\n      add\n      swap1\n      tag_46\n      swap3\n      swap2\n      swap1\n      tag_47\n      jump\t// in\n    tag_46:\n      pop\n      0x20\n      dup3\n      add\n      mload\n      dup2\n      0x01\n      add\n      swap1\n      dup1\n      mload\n      swap1\n      0x20\n      add\n      swap1\n      tag_48\n      swap3\n      swap2\n      swap1\n      tag_47\n      jump\t// in\n    tag_48:\n      pop\n      0x40\n      dup3\n      add\n      mload\n      dup2\n      0x02\n      add\n      exp(0x0100, 0x00)\n      dup2\n      sload\n      dup2\n      0xffffffffffffffffffffffffffffffffffffffff\n      mul\n      not\n      and\n      swap1\n      dup4\n      0xffffffffffffffffffffffffffffffffffffffff\n      and\n      mul\n      or\n      swap1\n      sstore\n      pop\n      0x60\n      dup3\n      add\n      mload\n      dup2\n      0x02\n      add\n      exp(0x0100, 0x14)\n      dup2\n      sload\n      dup2\n      0xff\n      mul\n      not\n      and\n      swap1\n      dup4\n      iszero\n      iszero\n      mul\n      or\n      swap1\n      sstore\n      pop\n      0x80\n      dup3\n      add\n      mload\n      dup2\n      0x02\n      add\n      exp(0x0100, 0x15)\n      dup2\n      sload\n      dup2\n      0xff\n      mul\n      not\n      and\n      swap1\n      dup4\n      iszero\n      iszero\n      mul\n      or\n      swap1\n      sstore\n      pop\n      0xa0\n      dup3\n      add\n      mload\n      dup2\n      0x02\n      add\n      exp(0x0100, 0x16)\n      dup2\n      sload\n      dup2\n      0xff\n      mul\n      not\n      and\n      swap1\n      dup4\n      iszero\n      iszero\n      mul\n      or\n      swap1\n      sstore\n      pop\n      swap1\n      pop\n      pop\n        /* \"Documents/GitHub/contract-token-cryptoMonster/backend/components/PhasePrivate.sol\":256:683  function application(string memory _name, string memory _contactForCommunication, address _userAdr) public {\r... */\n      pop\n      pop\n      pop\n      jump\t// out\n        /* \"Documents/GitHub/contract-token-cryptoMonster/backend/shared/helpers/getFuncs.sol\":144:282  function get_keccak256(string memory _hash) public pure returns(bytes32) {\r... */\n    tag_18:\n        /* \"Documents/GitHub/contract-token-cryptoMonster/backend/shared/helpers/getFuncs.sol\":208:215  bytes32 */\n      0x00\n        /* \"Documents/GitHub/contract-token-cryptoMonster/backend/shared/helpers/getFuncs.sol\":266:271  _hash */\n      dup2\n        /* \"Documents/GitHub/contract-token-cryptoMonster/backend/shared/helpers/getFuncs.sol\":249:272  abi.encodePacked(_hash) */\n      add(0x20, mload(0x40))\n      tag_50\n      swap2\n      swap1\n      tag_51\n      jump\t// in\n    tag_50:\n      mload(0x40)\n      0x20\n      dup2\n      dup4\n      sub\n      sub\n      dup2\n      mstore\n      swap1\n      0x40\n      mstore\n        /* \"Documents/GitHub/contract-token-cryptoMonster/backend/shared/helpers/getFuncs.sol\":239:273  keccak256(abi.encodePacked(_hash)) */\n      dup1\n      mload\n      swap1\n      0x20\n      add\n      keccak256\n        /* \"Documents/GitHub/contract-token-cryptoMonster/backend/shared/helpers/getFuncs.sol\":232:274  return(keccak256(abi.encodePacked(_hash))) */\n      swap1\n      pop\n        /* \"Documents/GitHub/contract-token-cryptoMonster/backend/shared/helpers/getFuncs.sol\":144:282  function get_keccak256(string memory _hash) public pure returns(bytes32) {\r... */\n      swap2\n      swap1\n      pop\n      jump\t// out\n        /* \"Documents/GitHub/contract-token-cryptoMonster/backend/components/PhasePrivate.sol\":1058:1230  function acceptApplication (bool _changeStatus) public {\r... */\n    tag_24:\n        /* \"Documents/GitHub/contract-token-cryptoMonster/backend/components/PhasePrivate.sol\":1165:1184  Role.SYSTEM_PRIVATE */\n      0x02\n        /* \"Documents/GitHub/contract-token-cryptoMonster/backend/components/PhasePrivate.sol\":1132:1184  structUsers_[msg.sender].role == Role.SYSTEM_PRIVATE */\n      0x04\n      dup2\n      gt\n      iszero\n      tag_53\n      jumpi\n      tag_54\n      tag_28\n      jump\t// in\n    tag_54:\n    tag_53:\n        /* \"Documents/GitHub/contract-token-cryptoMonster/backend/components/PhasePrivate.sol\":1132:1144  structUsers_ */\n      0x00\n        /* \"Documents/GitHub/contract-token-cryptoMonster/backend/components/PhasePrivate.sol\":1132:1156  structUsers_[msg.sender] */\n      dup1\n        /* \"Documents/GitHub/contract-token-cryptoMonster/backend/components/PhasePrivate.sol\":1145:1155  msg.sender */\n      caller\n        /* \"Documents/GitHub/contract-token-cryptoMonster/backend/components/PhasePrivate.sol\":1132:1156  structUsers_[msg.sender] */\n      0xffffffffffffffffffffffffffffffffffffffff\n      and\n      0xffffffffffffffffffffffffffffffffffffffff\n      and\n      dup2\n      mstore\n      0x20\n      add\n      swap1\n      dup2\n      mstore\n      0x20\n      add\n      0x00\n      keccak256\n        /* \"Documents/GitHub/contract-token-cryptoMonster/backend/components/PhasePrivate.sol\":1132:1161  structUsers_[msg.sender].role */\n      0x00\n      add\n      0x00\n      swap1\n      sload\n      swap1\n      0x0100\n      exp\n      swap1\n      div\n      0xff\n      and\n        /* \"Documents/GitHub/contract-token-cryptoMonster/backend/components/PhasePrivate.sol\":1132:1184  structUsers_[msg.sender].role == Role.SYSTEM_PRIVATE */\n      0x04\n      dup2\n      gt\n      iszero\n      tag_55\n      jumpi\n      tag_56\n      tag_28\n      jump\t// in\n    tag_56:\n    tag_55:\n      eq\n        /* \"Documents/GitHub/contract-token-cryptoMonster/backend/components/PhasePrivate.sol\":1124:1220  require(structUsers_[msg.sender].role == Role.SYSTEM_PRIVATE, \"You are not a private provider!\") */\n      tag_57\n      jumpi\n      mload(0x40)\n      0x08c379a000000000000000000000000000000000000000000000000000000000\n      dup2\n      mstore\n      0x04\n      add\n      tag_58\n      swap1\n      tag_41\n      jump\t// in\n    tag_58:\n      mload(0x40)\n      dup1\n      swap2\n      sub\n      swap1\n      revert\n    tag_57:\n        /* \"Documents/GitHub/contract-token-cryptoMonster/backend/components/PhasePrivate.sol\":1058:1230  function acceptApplication (bool _changeStatus) public {\r... */\n      pop\n      jump\t// out\n    tag_47:\n      dup3\n      dup1\n      sload\n      tag_59\n      swap1\n      tag_60\n      jump\t// in\n    tag_59:\n      swap1\n      0x00\n      mstore\n      keccak256(0x00, 0x20)\n      swap1\n      0x1f\n      add\n      0x20\n      swap1\n      div\n      dup2\n      add\n      swap3\n      dup3\n      tag_62\n      jumpi\n      0x00\n      dup6\n      sstore\n      jump(tag_61)\n    tag_62:\n      dup3\n      0x1f\n      lt\n      tag_63\n      jumpi\n      dup1\n      mload\n      not(0xff)\n      and\n      dup4\n      dup1\n      add\n      or\n      dup6\n      sstore\n      jump(tag_61)\n    tag_63:\n      dup3\n      dup1\n      add\n      0x01\n      add\n      dup6\n      sstore\n      dup3\n      iszero\n      tag_61\n      jumpi\n      swap2\n      dup3\n      add\n    tag_64:\n      dup3\n      dup2\n      gt\n      iszero\n      tag_65\n      jumpi\n      dup3\n      mload\n      dup3\n      sstore\n      swap2\n      0x20\n      add\n      swap2\n      swap1\n      0x01\n      add\n      swap1\n      jump(tag_64)\n    tag_65:\n    tag_61:\n      pop\n      swap1\n      pop\n      tag_66\n      swap2\n      swap1\n      tag_67\n      jump\t// in\n    tag_66:\n      pop\n      swap1\n      jump\t// out\n    tag_67:\n    tag_68:\n      dup1\n      dup3\n      gt\n      iszero\n      tag_69\n      jumpi\n      0x00\n      dup2\n      0x00\n      swap1\n      sstore\n      pop\n      0x01\n      add\n      jump(tag_68)\n    tag_69:\n      pop\n      swap1\n      jump\t// out\n        /* \"#utility.yul\":7:419   */\n    tag_71:\n        /* \"#utility.yul\":85:90   */\n      0x00\n        /* \"#utility.yul\":110:176   */\n      tag_73\n        /* \"#utility.yul\":126:175   */\n      tag_74\n        /* \"#utility.yul\":168:174   */\n      dup5\n        /* \"#utility.yul\":126:175   */\n      tag_75\n      jump\t// in\n    tag_74:\n        /* \"#utility.yul\":110:176   */\n      tag_76\n      jump\t// in\n    tag_73:\n        /* \"#utility.yul\":101:176   */\n      swap1\n      pop\n        /* \"#utility.yul\":199:205   */\n      dup3\n        /* \"#utility.yul\":192:197   */\n      dup2\n        /* \"#utility.yul\":185:206   */\n      mstore\n        /* \"#utility.yul\":237:241   */\n      0x20\n        /* \"#utility.yul\":230:235   */\n      dup2\n        /* \"#utility.yul\":226:242   */\n      add\n        /* \"#utility.yul\":275:278   */\n      dup5\n        /* \"#utility.yul\":266:272   */\n      dup5\n        /* \"#utility.yul\":261:264   */\n      dup5\n        /* \"#utility.yul\":257:273   */\n      add\n        /* \"#utility.yul\":254:279   */\n      gt\n        /* \"#utility.yul\":251:363   */\n      iszero\n      tag_77\n      jumpi\n        /* \"#utility.yul\":282:361   */\n      tag_78\n      tag_79\n      jump\t// in\n    tag_78:\n        /* \"#utility.yul\":251:363   */\n    tag_77:\n        /* \"#utility.yul\":372:413   */\n      tag_80\n        /* \"#utility.yul\":406:412   */\n      dup5\n        /* \"#utility.yul\":401:404   */\n      dup3\n        /* \"#utility.yul\":396:399   */\n      dup6\n        /* \"#utility.yul\":372:413   */\n      tag_81\n      jump\t// in\n    tag_80:\n        /* \"#utility.yul\":91:419   */\n      pop\n        /* \"#utility.yul\":7:419   */\n      swap4\n      swap3\n      pop\n      pop\n      pop\n      jump\t// out\n        /* \"#utility.yul\":425:564   */\n    tag_82:\n        /* \"#utility.yul\":471:476   */\n      0x00\n        /* \"#utility.yul\":509:515   */\n      dup2\n        /* \"#utility.yul\":496:516   */\n      calldataload\n        /* \"#utility.yul\":487:516   */\n      swap1\n      pop\n        /* \"#utility.yul\":525:558   */\n      tag_84\n        /* \"#utility.yul\":552:557   */\n      dup2\n        /* \"#utility.yul\":525:558   */\n      tag_85\n      jump\t// in\n    tag_84:\n        /* \"#utility.yul\":425:564   */\n      swap3\n      swap2\n      pop\n      pop\n      jump\t// out\n        /* \"#utility.yul\":570:703   */\n    tag_86:\n        /* \"#utility.yul\":613:618   */\n      0x00\n        /* \"#utility.yul\":651:657   */\n      dup2\n        /* \"#utility.yul\":638:658   */\n      calldataload\n        /* \"#utility.yul\":629:658   */\n      swap1\n      pop\n        /* \"#utility.yul\":667:697   */\n      tag_88\n        /* \"#utility.yul\":691:696   */\n      dup2\n        /* \"#utility.yul\":667:697   */\n      tag_89\n      jump\t// in\n    tag_88:\n        /* \"#utility.yul\":570:703   */\n      swap3\n      swap2\n      pop\n      pop\n      jump\t// out\n        /* \"#utility.yul\":723:1063   */\n    tag_90:\n        /* \"#utility.yul\":779:784   */\n      0x00\n        /* \"#utility.yul\":828:831   */\n      dup3\n        /* \"#utility.yul\":821:825   */\n      0x1f\n        /* \"#utility.yul\":813:819   */\n      dup4\n        /* \"#utility.yul\":809:826   */\n      add\n        /* \"#utility.yul\":805:832   */\n      slt\n        /* \"#utility.yul\":795:917   */\n      tag_92\n      jumpi\n        /* \"#utility.yul\":836:915   */\n      tag_93\n      tag_94\n      jump\t// in\n    tag_93:\n        /* \"#utility.yul\":795:917   */\n    tag_92:\n        /* \"#utility.yul\":953:959   */\n      dup2\n        /* \"#utility.yul\":940:960   */\n      calldataload\n        /* \"#utility.yul\":978:1057   */\n      tag_95\n        /* \"#utility.yul\":1053:1056   */\n      dup5\n        /* \"#utility.yul\":1045:1051   */\n      dup3\n        /* \"#utility.yul\":1038:1042   */\n      0x20\n        /* \"#utility.yul\":1030:1036   */\n      dup7\n        /* \"#utility.yul\":1026:1043   */\n      add\n        /* \"#utility.yul\":978:1057   */\n      tag_71\n      jump\t// in\n    tag_95:\n        /* \"#utility.yul\":969:1057   */\n      swap2\n      pop\n        /* \"#utility.yul\":785:1063   */\n      pop\n        /* \"#utility.yul\":723:1063   */\n      swap3\n      swap2\n      pop\n      pop\n      jump\t// out\n        /* \"#utility.yul\":1069:1392   */\n    tag_23:\n        /* \"#utility.yul\":1125:1131   */\n      0x00\n        /* \"#utility.yul\":1174:1176   */\n      0x20\n        /* \"#utility.yul\":1162:1171   */\n      dup3\n        /* \"#utility.yul\":1153:1160   */\n      dup5\n        /* \"#utility.yul\":1149:1172   */\n      sub\n        /* \"#utility.yul\":1145:1177   */\n      slt\n        /* \"#utility.yul\":1142:1261   */\n      iszero\n      tag_97\n      jumpi\n        /* \"#utility.yul\":1180:1259   */\n      tag_98\n      tag_99\n      jump\t// in\n    tag_98:\n        /* \"#utility.yul\":1142:1261   */\n    tag_97:\n        /* \"#utility.yul\":1300:1301   */\n      0x00\n        /* \"#utility.yul\":1325:1375   */\n      tag_100\n        /* \"#utility.yul\":1367:1374   */\n      dup5\n        /* \"#utility.yul\":1358:1364   */\n      dup3\n        /* \"#utility.yul\":1347:1356   */\n      dup6\n        /* \"#utility.yul\":1343:1365   */\n      add\n        /* \"#utility.yul\":1325:1375   */\n      tag_86\n      jump\t// in\n    tag_100:\n        /* \"#utility.yul\":1315:1375   */\n      swap2\n      pop\n        /* \"#utility.yul\":1271:1385   */\n      pop\n        /* \"#utility.yul\":1069:1392   */\n      swap3\n      swap2\n      pop\n      pop\n      jump\t// out\n        /* \"#utility.yul\":1398:1907   */\n    tag_17:\n        /* \"#utility.yul\":1467:1473   */\n      0x00\n        /* \"#utility.yul\":1516:1518   */\n      0x20\n        /* \"#utility.yul\":1504:1513   */\n      dup3\n        /* \"#utility.yul\":1495:1502   */\n      dup5\n        /* \"#utility.yul\":1491:1514   */\n      sub\n        /* \"#utility.yul\":1487:1519   */\n      slt\n        /* \"#utility.yul\":1484:1603   */\n      iszero\n      tag_102\n      jumpi\n        /* \"#utility.yul\":1522:1601   */\n      tag_103\n      tag_99\n      jump\t// in\n    tag_103:\n        /* \"#utility.yul\":1484:1603   */\n    tag_102:\n        /* \"#utility.yul\":1670:1671   */\n      0x00\n        /* \"#utility.yul\":1659:1668   */\n      dup3\n        /* \"#utility.yul\":1655:1672   */\n      add\n        /* \"#utility.yul\":1642:1673   */\n      calldataload\n        /* \"#utility.yul\":1700:1718   */\n      0xffffffffffffffff\n        /* \"#utility.yul\":1692:1698   */\n      dup2\n        /* \"#utility.yul\":1689:1719   */\n      gt\n        /* \"#utility.yul\":1686:1803   */\n      iszero\n      tag_104\n      jumpi\n        /* \"#utility.yul\":1722:1801   */\n      tag_105\n      tag_106\n      jump\t// in\n    tag_105:\n        /* \"#utility.yul\":1686:1803   */\n    tag_104:\n        /* \"#utility.yul\":1827:1890   */\n      tag_107\n        /* \"#utility.yul\":1882:1889   */\n      dup5\n        /* \"#utility.yul\":1873:1879   */\n      dup3\n        /* \"#utility.yul\":1862:1871   */\n      dup6\n        /* \"#utility.yul\":1858:1880   */\n      add\n        /* \"#utility.yul\":1827:1890   */\n      tag_90\n      jump\t// in\n    tag_107:\n        /* \"#utility.yul\":1817:1890   */\n      swap2\n      pop\n        /* \"#utility.yul\":1613:1900   */\n      pop\n        /* \"#utility.yul\":1398:1907   */\n      swap3\n      swap2\n      pop\n      pop\n      jump\t// out\n        /* \"#utility.yul\":1913:2892   */\n    tag_13:\n        /* \"#utility.yul\":2010:2016   */\n      0x00\n        /* \"#utility.yul\":2018:2024   */\n      dup1\n        /* \"#utility.yul\":2026:2032   */\n      0x00\n        /* \"#utility.yul\":2075:2077   */\n      0x60\n        /* \"#utility.yul\":2063:2072   */\n      dup5\n        /* \"#utility.yul\":2054:2061   */\n      dup7\n        /* \"#utility.yul\":2050:2073   */\n      sub\n        /* \"#utility.yul\":2046:2078   */\n      slt\n        /* \"#utility.yul\":2043:2162   */\n      iszero\n      tag_109\n      jumpi\n        /* \"#utility.yul\":2081:2160   */\n      tag_110\n      tag_99\n      jump\t// in\n    tag_110:\n        /* \"#utility.yul\":2043:2162   */\n    tag_109:\n        /* \"#utility.yul\":2229:2230   */\n      0x00\n        /* \"#utility.yul\":2218:2227   */\n      dup5\n        /* \"#utility.yul\":2214:2231   */\n      add\n        /* \"#utility.yul\":2201:2232   */\n      calldataload\n        /* \"#utility.yul\":2259:2277   */\n      0xffffffffffffffff\n        /* \"#utility.yul\":2251:2257   */\n      dup2\n        /* \"#utility.yul\":2248:2278   */\n      gt\n        /* \"#utility.yul\":2245:2362   */\n      iszero\n      tag_111\n      jumpi\n        /* \"#utility.yul\":2281:2360   */\n      tag_112\n      tag_106\n      jump\t// in\n    tag_112:\n        /* \"#utility.yul\":2245:2362   */\n    tag_111:\n        /* \"#utility.yul\":2386:2449   */\n      tag_113\n        /* \"#utility.yul\":2441:2448   */\n      dup7\n        /* \"#utility.yul\":2432:2438   */\n      dup3\n        /* \"#utility.yul\":2421:2430   */\n      dup8\n        /* \"#utility.yul\":2417:2439   */\n      add\n        /* \"#utility.yul\":2386:2449   */\n      tag_90\n      jump\t// in\n    tag_113:\n        /* \"#utility.yul\":2376:2449   */\n      swap4\n      pop\n        /* \"#utility.yul\":2172:2459   */\n      pop\n        /* \"#utility.yul\":2526:2528   */\n      0x20\n        /* \"#utility.yul\":2515:2524   */\n      dup5\n        /* \"#utility.yul\":2511:2529   */\n      add\n        /* \"#utility.yul\":2498:2530   */\n      calldataload\n        /* \"#utility.yul\":2557:2575   */\n      0xffffffffffffffff\n        /* \"#utility.yul\":2549:2555   */\n      dup2\n        /* \"#utility.yul\":2546:2576   */\n      gt\n        /* \"#utility.yul\":2543:2660   */\n      iszero\n      tag_114\n      jumpi\n        /* \"#utility.yul\":2579:2658   */\n      tag_115\n      tag_106\n      jump\t// in\n    tag_115:\n        /* \"#utility.yul\":2543:2660   */\n    tag_114:\n        /* \"#utility.yul\":2684:2747   */\n      tag_116\n        /* \"#utility.yul\":2739:2746   */\n      dup7\n        /* \"#utility.yul\":2730:2736   */\n      dup3\n        /* \"#utility.yul\":2719:2728   */\n      dup8\n        /* \"#utility.yul\":2715:2737   */\n      add\n        /* \"#utility.yul\":2684:2747   */\n      tag_90\n      jump\t// in\n    tag_116:\n        /* \"#utility.yul\":2674:2747   */\n      swap3\n      pop\n        /* \"#utility.yul\":2469:2757   */\n      pop\n        /* \"#utility.yul\":2796:2798   */\n      0x40\n        /* \"#utility.yul\":2822:2875   */\n      tag_117\n        /* \"#utility.yul\":2867:2874   */\n      dup7\n        /* \"#utility.yul\":2858:2864   */\n      dup3\n        /* \"#utility.yul\":2847:2856   */\n      dup8\n        /* \"#utility.yul\":2843:2865   */\n      add\n        /* \"#utility.yul\":2822:2875   */\n      tag_82\n      jump\t// in\n    tag_117:\n        /* \"#utility.yul\":2812:2875   */\n      swap2\n      pop\n        /* \"#utility.yul\":2767:2885   */\n      pop\n        /* \"#utility.yul\":1913:2892   */\n      swap3\n      pop\n      swap3\n      pop\n      swap3\n      jump\t// out\n        /* \"#utility.yul\":2898:3016   */\n    tag_118:\n        /* \"#utility.yul\":2985:3009   */\n      tag_120\n        /* \"#utility.yul\":3003:3008   */\n      dup2\n        /* \"#utility.yul\":2985:3009   */\n      tag_121\n      jump\t// in\n    tag_120:\n        /* \"#utility.yul\":2980:2983   */\n      dup3\n        /* \"#utility.yul\":2973:3010   */\n      mstore\n        /* \"#utility.yul\":2898:3016   */\n      pop\n      pop\n      jump\t// out\n        /* \"#utility.yul\":3022:3140   */\n    tag_122:\n        /* \"#utility.yul\":3109:3133   */\n      tag_124\n        /* \"#utility.yul\":3127:3132   */\n      dup2\n        /* \"#utility.yul\":3109:3133   */\n      tag_125\n      jump\t// in\n    tag_124:\n        /* \"#utility.yul\":3104:3107   */\n      dup3\n        /* \"#utility.yul\":3097:3134   */\n      mstore\n        /* \"#utility.yul\":3022:3140   */\n      pop\n      pop\n      jump\t// out\n        /* \"#utility.yul\":3146:3523   */\n    tag_126:\n        /* \"#utility.yul\":3252:3255   */\n      0x00\n        /* \"#utility.yul\":3280:3319   */\n      tag_128\n        /* \"#utility.yul\":3313:3318   */\n      dup3\n        /* \"#utility.yul\":3280:3319   */\n      tag_129\n      jump\t// in\n    tag_128:\n        /* \"#utility.yul\":3335:3424   */\n      tag_130\n        /* \"#utility.yul\":3417:3423   */\n      dup2\n        /* \"#utility.yul\":3412:3415   */\n      dup6\n        /* \"#utility.yul\":3335:3424   */\n      tag_131\n      jump\t// in\n    tag_130:\n        /* \"#utility.yul\":3328:3424   */\n      swap4\n      pop\n        /* \"#utility.yul\":3433:3485   */\n      tag_132\n        /* \"#utility.yul\":3478:3484   */\n      dup2\n        /* \"#utility.yul\":3473:3476   */\n      dup6\n        /* \"#utility.yul\":3466:3470   */\n      0x20\n        /* \"#utility.yul\":3459:3464   */\n      dup7\n        /* \"#utility.yul\":3455:3471   */\n      add\n        /* \"#utility.yul\":3433:3485   */\n      tag_133\n      jump\t// in\n    tag_132:\n        /* \"#utility.yul\":3510:3516   */\n      dup1\n        /* \"#utility.yul\":3505:3508   */\n      dup5\n        /* \"#utility.yul\":3501:3517   */\n      add\n        /* \"#utility.yul\":3494:3517   */\n      swap2\n      pop\n        /* \"#utility.yul\":3256:3523   */\n      pop\n        /* \"#utility.yul\":3146:3523   */\n      swap3\n      swap2\n      pop\n      pop\n      jump\t// out\n        /* \"#utility.yul\":3529:3895   */\n    tag_134:\n        /* \"#utility.yul\":3671:3674   */\n      0x00\n        /* \"#utility.yul\":3692:3759   */\n      tag_136\n        /* \"#utility.yul\":3756:3758   */\n      0x1f\n        /* \"#utility.yul\":3751:3754   */\n      dup4\n        /* \"#utility.yul\":3692:3759   */\n      tag_137\n      jump\t// in\n    tag_136:\n        /* \"#utility.yul\":3685:3759   */\n      swap2\n      pop\n        /* \"#utility.yul\":3768:3861   */\n      tag_138\n        /* \"#utility.yul\":3857:3860   */\n      dup3\n        /* \"#utility.yul\":3768:3861   */\n      tag_139\n      jump\t// in\n    tag_138:\n        /* \"#utility.yul\":3886:3888   */\n      0x20\n        /* \"#utility.yul\":3881:3884   */\n      dup3\n        /* \"#utility.yul\":3877:3889   */\n      add\n        /* \"#utility.yul\":3870:3889   */\n      swap1\n      pop\n        /* \"#utility.yul\":3529:3895   */\n      swap2\n      swap1\n      pop\n      jump\t// out\n        /* \"#utility.yul\":3901:4267   */\n    tag_140:\n        /* \"#utility.yul\":4043:4046   */\n      0x00\n        /* \"#utility.yul\":4064:4131   */\n      tag_142\n        /* \"#utility.yul\":4128:4130   */\n      0x19\n        /* \"#utility.yul\":4123:4126   */\n      dup4\n        /* \"#utility.yul\":4064:4131   */\n      tag_137\n      jump\t// in\n    tag_142:\n        /* \"#utility.yul\":4057:4131   */\n      swap2\n      pop\n        /* \"#utility.yul\":4140:4233   */\n      tag_143\n        /* \"#utility.yul\":4229:4232   */\n      dup3\n        /* \"#utility.yul\":4140:4233   */\n      tag_144\n      jump\t// in\n    tag_143:\n        /* \"#utility.yul\":4258:4260   */\n      0x20\n        /* \"#utility.yul\":4253:4256   */\n      dup3\n        /* \"#utility.yul\":4249:4261   */\n      add\n        /* \"#utility.yul\":4242:4261   */\n      swap1\n      pop\n        /* \"#utility.yul\":3901:4267   */\n      swap2\n      swap1\n      pop\n      jump\t// out\n        /* \"#utility.yul\":4273:4639   */\n    tag_145:\n        /* \"#utility.yul\":4415:4418   */\n      0x00\n        /* \"#utility.yul\":4436:4503   */\n      tag_147\n        /* \"#utility.yul\":4500:4502   */\n      0x0e\n        /* \"#utility.yul\":4495:4498   */\n      dup4\n        /* \"#utility.yul\":4436:4503   */\n      tag_137\n      jump\t// in\n    tag_147:\n        /* \"#utility.yul\":4429:4503   */\n      swap2\n      pop\n        /* \"#utility.yul\":4512:4605   */\n      tag_148\n        /* \"#utility.yul\":4601:4604   */\n      dup3\n        /* \"#utility.yul\":4512:4605   */\n      tag_149\n      jump\t// in\n    tag_148:\n        /* \"#utility.yul\":4630:4632   */\n      0x20\n        /* \"#utility.yul\":4625:4628   */\n      dup3\n        /* \"#utility.yul\":4621:4633   */\n      add\n        /* \"#utility.yul\":4614:4633   */\n      swap1\n      pop\n        /* \"#utility.yul\":4273:4639   */\n      swap2\n      swap1\n      pop\n      jump\t// out\n        /* \"#utility.yul\":4645:4920   */\n    tag_51:\n        /* \"#utility.yul\":4777:4780   */\n      0x00\n        /* \"#utility.yul\":4799:4894   */\n      tag_151\n        /* \"#utility.yul\":4890:4893   */\n      dup3\n        /* \"#utility.yul\":4881:4887   */\n      dup5\n        /* \"#utility.yul\":4799:4894   */\n      tag_126\n      jump\t// in\n    tag_151:\n        /* \"#utility.yul\":4792:4894   */\n      swap2\n      pop\n        /* \"#utility.yul\":4911:4914   */\n      dup2\n        /* \"#utility.yul\":4904:4914   */\n      swap1\n      pop\n        /* \"#utility.yul\":4645:4920   */\n      swap3\n      swap2\n      pop\n      pop\n      jump\t// out\n        /* \"#utility.yul\":4926:5148   */\n    tag_10:\n        /* \"#utility.yul\":5019:5023   */\n      0x00\n        /* \"#utility.yul\":5057:5059   */\n      0x20\n        /* \"#utility.yul\":5046:5055   */\n      dup3\n        /* \"#utility.yul\":5042:5060   */\n      add\n        /* \"#utility.yul\":5034:5060   */\n      swap1\n      pop\n        /* \"#utility.yul\":5070:5141   */\n      tag_153\n        /* \"#utility.yul\":5138:5139   */\n      0x00\n        /* \"#utility.yul\":5127:5136   */\n      dup4\n        /* \"#utility.yul\":5123:5140   */\n      add\n        /* \"#utility.yul\":5114:5120   */\n      dup5\n        /* \"#utility.yul\":5070:5141   */\n      tag_118\n      jump\t// in\n    tag_153:\n        /* \"#utility.yul\":4926:5148   */\n      swap3\n      swap2\n      pop\n      pop\n      jump\t// out\n        /* \"#utility.yul\":5154:5376   */\n    tag_20:\n        /* \"#utility.yul\":5247:5251   */\n      0x00\n        /* \"#utility.yul\":5285:5287   */\n      0x20\n        /* \"#utility.yul\":5274:5283   */\n      dup3\n        /* \"#utility.yul\":5270:5288   */\n      add\n        /* \"#utility.yul\":5262:5288   */\n      swap1\n      pop\n        /* \"#utility.yul\":5298:5369   */\n      tag_155\n        /* \"#utility.yul\":5366:5367   */\n      0x00\n        /* \"#utility.yul\":5355:5364   */\n      dup4\n        /* \"#utility.yul\":5351:5368   */\n      add\n        /* \"#utility.yul\":5342:5348   */\n      dup5\n        /* \"#utility.yul\":5298:5369   */\n      tag_122\n      jump\t// in\n    tag_155:\n        /* \"#utility.yul\":5154:5376   */\n      swap3\n      swap2\n      pop\n      pop\n      jump\t// out\n        /* \"#utility.yul\":5382:5801   */\n    tag_41:\n        /* \"#utility.yul\":5548:5552   */\n      0x00\n        /* \"#utility.yul\":5586:5588   */\n      0x20\n        /* \"#utility.yul\":5575:5584   */\n      dup3\n        /* \"#utility.yul\":5571:5589   */\n      add\n        /* \"#utility.yul\":5563:5589   */\n      swap1\n      pop\n        /* \"#utility.yul\":5635:5644   */\n      dup2\n        /* \"#utility.yul\":5629:5633   */\n      dup2\n        /* \"#utility.yul\":5625:5645   */\n      sub\n        /* \"#utility.yul\":5621:5622   */\n      0x00\n        /* \"#utility.yul\":5610:5619   */\n      dup4\n        /* \"#utility.yul\":5606:5623   */\n      add\n        /* \"#utility.yul\":5599:5646   */\n      mstore\n        /* \"#utility.yul\":5663:5794   */\n      tag_157\n        /* \"#utility.yul\":5789:5793   */\n      dup2\n        /* \"#utility.yul\":5663:5794   */\n      tag_134\n      jump\t// in\n    tag_157:\n        /* \"#utility.yul\":5655:5794   */\n      swap1\n      pop\n        /* \"#utility.yul\":5382:5801   */\n      swap2\n      swap1\n      pop\n      jump\t// out\n        /* \"#utility.yul\":5807:6226   */\n    tag_45:\n        /* \"#utility.yul\":5973:5977   */\n      0x00\n        /* \"#utility.yul\":6011:6013   */\n      0x20\n        /* \"#utility.yul\":6000:6009   */\n      dup3\n        /* \"#utility.yul\":5996:6014   */\n      add\n        /* \"#utility.yul\":5988:6014   */\n      swap1\n      pop\n        /* \"#utility.yul\":6060:6069   */\n      dup2\n        /* \"#utility.yul\":6054:6058   */\n      dup2\n        /* \"#utility.yul\":6050:6070   */\n      sub\n        /* \"#utility.yul\":6046:6047   */\n      0x00\n        /* \"#utility.yul\":6035:6044   */\n      dup4\n        /* \"#utility.yul\":6031:6048   */\n      add\n        /* \"#utility.yul\":6024:6071   */\n      mstore\n        /* \"#utility.yul\":6088:6219   */\n      tag_159\n        /* \"#utility.yul\":6214:6218   */\n      dup2\n        /* \"#utility.yul\":6088:6219   */\n      tag_140\n      jump\t// in\n    tag_159:\n        /* \"#utility.yul\":6080:6219   */\n      swap1\n      pop\n        /* \"#utility.yul\":5807:6226   */\n      swap2\n      swap1\n      pop\n      jump\t// out\n        /* \"#utility.yul\":6232:6651   */\n    tag_33:\n        /* \"#utility.yul\":6398:6402   */\n      0x00\n        /* \"#utility.yul\":6436:6438   */\n      0x20\n        /* \"#utility.yul\":6425:6434   */\n      dup3\n        /* \"#utility.yul\":6421:6439   */\n      add\n        /* \"#utility.yul\":6413:6439   */\n      swap1\n      pop\n        /* \"#utility.yul\":6485:6494   */\n      dup2\n        /* \"#utility.yul\":6479:6483   */\n      dup2\n        /* \"#utility.yul\":6475:6495   */\n      sub\n        /* \"#utility.yul\":6471:6472   */\n      0x00\n        /* \"#utility.yul\":6460:6469   */\n      dup4\n        /* \"#utility.yul\":6456:6473   */\n      add\n        /* \"#utility.yul\":6449:6496   */\n      mstore\n        /* \"#utility.yul\":6513:6644   */\n      tag_161\n        /* \"#utility.yul\":6639:6643   */\n      dup2\n        /* \"#utility.yul\":6513:6644   */\n      tag_145\n      jump\t// in\n    tag_161:\n        /* \"#utility.yul\":6505:6644   */\n      swap1\n      pop\n        /* \"#utility.yul\":6232:6651   */\n      swap2\n      swap1\n      pop\n      jump\t// out\n        /* \"#utility.yul\":6657:6786   */\n    tag_76:\n        /* \"#utility.yul\":6691:6697   */\n      0x00\n        /* \"#utility.yul\":6718:6738   */\n      tag_163\n      tag_164\n      jump\t// in\n    tag_163:\n        /* \"#utility.yul\":6708:6738   */\n      swap1\n      pop\n        /* \"#utility.yul\":6747:6780   */\n      tag_165\n        /* \"#utility.yul\":6775:6779   */\n      dup3\n        /* \"#utility.yul\":6767:6773   */\n      dup3\n        /* \"#utility.yul\":6747:6780   */\n      tag_166\n      jump\t// in\n    tag_165:\n        /* \"#utility.yul\":6657:6786   */\n      swap2\n      swap1\n      pop\n      jump\t// out\n        /* \"#utility.yul\":6792:6867   */\n    tag_164:\n        /* \"#utility.yul\":6825:6831   */\n      0x00\n        /* \"#utility.yul\":6858:6860   */\n      0x40\n        /* \"#utility.yul\":6852:6861   */\n      mload\n        /* \"#utility.yul\":6842:6861   */\n      swap1\n      pop\n        /* \"#utility.yul\":6792:6867   */\n      swap1\n      jump\t// out\n        /* \"#utility.yul\":6873:7181   */\n    tag_75:\n        /* \"#utility.yul\":6935:6939   */\n      0x00\n        /* \"#utility.yul\":7025:7043   */\n      0xffffffffffffffff\n        /* \"#utility.yul\":7017:7023   */\n      dup3\n        /* \"#utility.yul\":7014:7044   */\n      gt\n        /* \"#utility.yul\":7011:7067   */\n      iszero\n      tag_169\n      jumpi\n        /* \"#utility.yul\":7047:7065   */\n      tag_170\n      tag_171\n      jump\t// in\n    tag_170:\n        /* \"#utility.yul\":7011:7067   */\n    tag_169:\n        /* \"#utility.yul\":7085:7114   */\n      tag_172\n        /* \"#utility.yul\":7107:7113   */\n      dup3\n        /* \"#utility.yul\":7085:7114   */\n      tag_173\n      jump\t// in\n    tag_172:\n        /* \"#utility.yul\":7077:7114   */\n      swap1\n      pop\n        /* \"#utility.yul\":7169:7173   */\n      0x20\n        /* \"#utility.yul\":7163:7167   */\n      dup2\n        /* \"#utility.yul\":7159:7174   */\n      add\n        /* \"#utility.yul\":7151:7174   */\n      swap1\n      pop\n        /* \"#utility.yul\":6873:7181   */\n      swap2\n      swap1\n      pop\n      jump\t// out\n        /* \"#utility.yul\":7187:7286   */\n    tag_129:\n        /* \"#utility.yul\":7239:7245   */\n      0x00\n        /* \"#utility.yul\":7273:7278   */\n      dup2\n        /* \"#utility.yul\":7267:7279   */\n      mload\n        /* \"#utility.yul\":7257:7279   */\n      swap1\n      pop\n        /* \"#utility.yul\":7187:7286   */\n      swap2\n      swap1\n      pop\n      jump\t// out\n        /* \"#utility.yul\":7292:7461   */\n    tag_137:\n        /* \"#utility.yul\":7376:7387   */\n      0x00\n        /* \"#utility.yul\":7410:7416   */\n      dup3\n        /* \"#utility.yul\":7405:7408   */\n      dup3\n        /* \"#utility.yul\":7398:7417   */\n      mstore\n        /* \"#utility.yul\":7450:7454   */\n      0x20\n        /* \"#utility.yul\":7445:7448   */\n      dup3\n        /* \"#utility.yul\":7441:7455   */\n      add\n        /* \"#utility.yul\":7426:7455   */\n      swap1\n      pop\n        /* \"#utility.yul\":7292:7461   */\n      swap3\n      swap2\n      pop\n      pop\n      jump\t// out\n        /* \"#utility.yul\":7467:7615   */\n    tag_131:\n        /* \"#utility.yul\":7569:7580   */\n      0x00\n        /* \"#utility.yul\":7606:7609   */\n      dup2\n        /* \"#utility.yul\":7591:7609   */\n      swap1\n      pop\n        /* \"#utility.yul\":7467:7615   */\n      swap3\n      swap2\n      pop\n      pop\n      jump\t// out\n        /* \"#utility.yul\":7621:7717   */\n    tag_121:\n        /* \"#utility.yul\":7658:7665   */\n      0x00\n        /* \"#utility.yul\":7687:7711   */\n      tag_178\n        /* \"#utility.yul\":7705:7710   */\n      dup3\n        /* \"#utility.yul\":7687:7711   */\n      tag_179\n      jump\t// in\n    tag_178:\n        /* \"#utility.yul\":7676:7711   */\n      swap1\n      pop\n        /* \"#utility.yul\":7621:7717   */\n      swap2\n      swap1\n      pop\n      jump\t// out\n        /* \"#utility.yul\":7723:7813   */\n    tag_180:\n        /* \"#utility.yul\":7757:7764   */\n      0x00\n        /* \"#utility.yul\":7800:7805   */\n      dup2\n        /* \"#utility.yul\":7793:7806   */\n      iszero\n        /* \"#utility.yul\":7786:7807   */\n      iszero\n        /* \"#utility.yul\":7775:7807   */\n      swap1\n      pop\n        /* \"#utility.yul\":7723:7813   */\n      swap2\n      swap1\n      pop\n      jump\t// out\n        /* \"#utility.yul\":7819:7896   */\n    tag_125:\n        /* \"#utility.yul\":7856:7863   */\n      0x00\n        /* \"#utility.yul\":7885:7890   */\n      dup2\n        /* \"#utility.yul\":7874:7890   */\n      swap1\n      pop\n        /* \"#utility.yul\":7819:7896   */\n      swap2\n      swap1\n      pop\n      jump\t// out\n        /* \"#utility.yul\":7902:8028   */\n    tag_179:\n        /* \"#utility.yul\":7939:7946   */\n      0x00\n        /* \"#utility.yul\":7979:8021   */\n      0xffffffffffffffffffffffffffffffffffffffff\n        /* \"#utility.yul\":7972:7977   */\n      dup3\n        /* \"#utility.yul\":7968:8022   */\n      and\n        /* \"#utility.yul\":7957:8022   */\n      swap1\n      pop\n        /* \"#utility.yul\":7902:8028   */\n      swap2\n      swap1\n      pop\n      jump\t// out\n        /* \"#utility.yul\":8034:8188   */\n    tag_81:\n        /* \"#utility.yul\":8118:8124   */\n      dup3\n        /* \"#utility.yul\":8113:8116   */\n      dup2\n        /* \"#utility.yul\":8108:8111   */\n      dup4\n        /* \"#utility.yul\":8095:8125   */\n      calldatacopy\n        /* \"#utility.yul\":8180:8181   */\n      0x00\n        /* \"#utility.yul\":8171:8177   */\n      dup4\n        /* \"#utility.yul\":8166:8169   */\n      dup4\n        /* \"#utility.yul\":8162:8178   */\n      add\n        /* \"#utility.yul\":8155:8182   */\n      mstore\n        /* \"#utility.yul\":8034:8188   */\n      pop\n      pop\n      pop\n      jump\t// out\n        /* \"#utility.yul\":8194:8501   */\n    tag_133:\n        /* \"#utility.yul\":8262:8263   */\n      0x00\n        /* \"#utility.yul\":8272:8385   */\n    tag_186:\n        /* \"#utility.yul\":8286:8292   */\n      dup4\n        /* \"#utility.yul\":8283:8284   */\n      dup2\n        /* \"#utility.yul\":8280:8293   */\n      lt\n        /* \"#utility.yul\":8272:8385   */\n      iszero\n      tag_188\n      jumpi\n        /* \"#utility.yul\":8371:8372   */\n      dup1\n        /* \"#utility.yul\":8366:8369   */\n      dup3\n        /* \"#utility.yul\":8362:8373   */\n      add\n        /* \"#utility.yul\":8356:8374   */\n      mload\n        /* \"#utility.yul\":8352:8353   */\n      dup2\n        /* \"#utility.yul\":8347:8350   */\n      dup5\n        /* \"#utility.yul\":8343:8354   */\n      add\n        /* \"#utility.yul\":8336:8375   */\n      mstore\n        /* \"#utility.yul\":8308:8310   */\n      0x20\n        /* \"#utility.yul\":8305:8306   */\n      dup2\n        /* \"#utility.yul\":8301:8311   */\n      add\n        /* \"#utility.yul\":8296:8311   */\n      swap1\n      pop\n        /* \"#utility.yul\":8272:8385   */\n      jump(tag_186)\n    tag_188:\n        /* \"#utility.yul\":8403:8409   */\n      dup4\n        /* \"#utility.yul\":8400:8401   */\n      dup2\n        /* \"#utility.yul\":8397:8410   */\n      gt\n        /* \"#utility.yul\":8394:8495   */\n      iszero\n      tag_189\n      jumpi\n        /* \"#utility.yul\":8483:8484   */\n      0x00\n        /* \"#utility.yul\":8474:8480   */\n      dup5\n        /* \"#utility.yul\":8469:8472   */\n      dup5\n        /* \"#utility.yul\":8465:8481   */\n      add\n        /* \"#utility.yul\":8458:8485   */\n      mstore\n        /* \"#utility.yul\":8394:8495   */\n    tag_189:\n        /* \"#utility.yul\":8243:8501   */\n      pop\n        /* \"#utility.yul\":8194:8501   */\n      pop\n      pop\n      pop\n      jump\t// out\n        /* \"#utility.yul\":8507:8827   */\n    tag_60:\n        /* \"#utility.yul\":8551:8557   */\n      0x00\n        /* \"#utility.yul\":8588:8589   */\n      0x02\n        /* \"#utility.yul\":8582:8586   */\n      dup3\n        /* \"#utility.yul\":8578:8590   */\n      div\n        /* \"#utility.yul\":8568:8590   */\n      swap1\n      pop\n        /* \"#utility.yul\":8635:8636   */\n      0x01\n        /* \"#utility.yul\":8629:8633   */\n      dup3\n        /* \"#utility.yul\":8625:8637   */\n      and\n        /* \"#utility.yul\":8656:8674   */\n      dup1\n        /* \"#utility.yul\":8646:8727   */\n      tag_191\n      jumpi\n        /* \"#utility.yul\":8712:8716   */\n      0x7f\n        /* \"#utility.yul\":8704:8710   */\n      dup3\n        /* \"#utility.yul\":8700:8717   */\n      and\n        /* \"#utility.yul\":8690:8717   */\n      swap2\n      pop\n        /* \"#utility.yul\":8646:8727   */\n    tag_191:\n        /* \"#utility.yul\":8774:8776   */\n      0x20\n        /* \"#utility.yul\":8766:8772   */\n      dup3\n        /* \"#utility.yul\":8763:8777   */\n      lt\n        /* \"#utility.yul\":8743:8761   */\n      dup2\n        /* \"#utility.yul\":8740:8778   */\n      eq\n        /* \"#utility.yul\":8737:8821   */\n      iszero\n      tag_192\n      jumpi\n        /* \"#utility.yul\":8793:8811   */\n      tag_193\n      tag_194\n      jump\t// in\n    tag_193:\n        /* \"#utility.yul\":8737:8821   */\n    tag_192:\n        /* \"#utility.yul\":8558:8827   */\n      pop\n        /* \"#utility.yul\":8507:8827   */\n      swap2\n      swap1\n      pop\n      jump\t// out\n        /* \"#utility.yul\":8833:9114   */\n    tag_166:\n        /* \"#utility.yul\":8916:8943   */\n      tag_196\n        /* \"#utility.yul\":8938:8942   */\n      dup3\n        /* \"#utility.yul\":8916:8943   */\n      tag_173\n      jump\t// in\n    tag_196:\n        /* \"#utility.yul\":8908:8914   */\n      dup2\n        /* \"#utility.yul\":8904:8944   */\n      add\n        /* \"#utility.yul\":9046:9052   */\n      dup2\n        /* \"#utility.yul\":9034:9044   */\n      dup2\n        /* \"#utility.yul\":9031:9053   */\n      lt\n        /* \"#utility.yul\":9010:9028   */\n      0xffffffffffffffff\n        /* \"#utility.yul\":8998:9008   */\n      dup3\n        /* \"#utility.yul\":8995:9029   */\n      gt\n        /* \"#utility.yul\":8992:9054   */\n      or\n        /* \"#utility.yul\":8989:9077   */\n      iszero\n      tag_197\n      jumpi\n        /* \"#utility.yul\":9057:9075   */\n      tag_198\n      tag_171\n      jump\t// in\n    tag_198:\n        /* \"#utility.yul\":8989:9077   */\n    tag_197:\n        /* \"#utility.yul\":9097:9107   */\n      dup1\n        /* \"#utility.yul\":9093:9095   */\n      0x40\n        /* \"#utility.yul\":9086:9108   */\n      mstore\n        /* \"#utility.yul\":8876:9114   */\n      pop\n        /* \"#utility.yul\":8833:9114   */\n      pop\n      pop\n      jump\t// out\n        /* \"#utility.yul\":9120:9300   */\n    tag_28:\n        /* \"#utility.yul\":9168:9245   */\n      0x4e487b7100000000000000000000000000000000000000000000000000000000\n        /* \"#utility.yul\":9165:9166   */\n      0x00\n        /* \"#utility.yul\":9158:9246   */\n      mstore\n        /* \"#utility.yul\":9265:9269   */\n      0x21\n        /* \"#utility.yul\":9262:9263   */\n      0x04\n        /* \"#utility.yul\":9255:9270   */\n      mstore\n        /* \"#utility.yul\":9289:9293   */\n      0x24\n        /* \"#utility.yul\":9286:9287   */\n      0x00\n        /* \"#utility.yul\":9279:9294   */\n      revert\n        /* \"#utility.yul\":9306:9486   */\n    tag_194:\n        /* \"#utility.yul\":9354:9431   */\n      0x4e487b7100000000000000000000000000000000000000000000000000000000\n        /* \"#utility.yul\":9351:9352   */\n      0x00\n        /* \"#utility.yul\":9344:9432   */\n      mstore\n        /* \"#utility.yul\":9451:9455   */\n      0x22\n        /* \"#utility.yul\":9448:9449   */\n      0x04\n        /* \"#utility.yul\":9441:9456   */\n      mstore\n        /* \"#utility.yul\":9475:9479   */\n      0x24\n        /* \"#utility.yul\":9472:9473   */\n      0x00\n        /* \"#utility.yul\":9465:9480   */\n      revert\n        /* \"#utility.yul\":9492:9672   */\n    tag_171:\n        /* \"#utility.yul\":9540:9617   */\n      0x4e487b7100000000000000000000000000000000000000000000000000000000\n        /* \"#utility.yul\":9537:9538   */\n      0x00\n        /* \"#utility.yul\":9530:9618   */\n      mstore\n        /* \"#utility.yul\":9637:9641   */\n      0x41\n        /* \"#utility.yul\":9634:9635   */\n      0x04\n        /* \"#utility.yul\":9627:9642   */\n      mstore\n        /* \"#utility.yul\":9661:9665   */\n      0x24\n        /* \"#utility.yul\":9658:9659   */\n      0x00\n        /* \"#utility.yul\":9651:9666   */\n      revert\n        /* \"#utility.yul\":9678:9795   */\n    tag_94:\n        /* \"#utility.yul\":9787:9788   */\n      0x00\n        /* \"#utility.yul\":9784:9785   */\n      dup1\n        /* \"#utility.yul\":9777:9789   */\n      revert\n        /* \"#utility.yul\":9801:9918   */\n    tag_79:\n        /* \"#utility.yul\":9910:9911   */\n      0x00\n        /* \"#utility.yul\":9907:9908   */\n      dup1\n        /* \"#utility.yul\":9900:9912   */\n      revert\n        /* \"#utility.yul\":9924:10041   */\n    tag_106:\n        /* \"#utility.yul\":10033:10034   */\n      0x00\n        /* \"#utility.yul\":10030:10031   */\n      dup1\n        /* \"#utility.yul\":10023:10035   */\n      revert\n        /* \"#utility.yul\":10047:10164   */\n    tag_99:\n        /* \"#utility.yul\":10156:10157   */\n      0x00\n        /* \"#utility.yul\":10153:10154   */\n      dup1\n        /* \"#utility.yul\":10146:10158   */\n      revert\n        /* \"#utility.yul\":10170:10272   */\n    tag_173:\n        /* \"#utility.yul\":10211:10217   */\n      0x00\n        /* \"#utility.yul\":10262:10264   */\n      0x1f\n        /* \"#utility.yul\":10258:10265   */\n      not\n        /* \"#utility.yul\":10253:10255   */\n      0x1f\n        /* \"#utility.yul\":10246:10251   */\n      dup4\n        /* \"#utility.yul\":10242:10256   */\n      add\n        /* \"#utility.yul\":10238:10266   */\n      and\n        /* \"#utility.yul\":10228:10266   */\n      swap1\n      pop\n        /* \"#utility.yul\":10170:10272   */\n      swap2\n      swap1\n      pop\n      jump\t// out\n        /* \"#utility.yul\":10278:10459   */\n    tag_139:\n        /* \"#utility.yul\":10418:10451   */\n      0x596f7520617265206e6f74206120707269766174652070726f76696465722100\n        /* \"#utility.yul\":10414:10415   */\n      0x00\n        /* \"#utility.yul\":10406:10412   */\n      dup3\n        /* \"#utility.yul\":10402:10416   */\n      add\n        /* \"#utility.yul\":10395:10452   */\n      mstore\n        /* \"#utility.yul\":10278:10459   */\n      pop\n      jump\t// out\n        /* \"#utility.yul\":10465:10640   */\n    tag_144:\n        /* \"#utility.yul\":10605:10632   */\n      0x4170706c69636174696f6e20616c72656164792073656e742100000000000000\n        /* \"#utility.yul\":10601:10602   */\n      0x00\n        /* \"#utility.yul\":10593:10599   */\n      dup3\n        /* \"#utility.yul\":10589:10603   */\n      add\n        /* \"#utility.yul\":10582:10633   */\n      mstore\n        /* \"#utility.yul\":10465:10640   */\n      pop\n      jump\t// out\n        /* \"#utility.yul\":10646:10810   */\n    tag_149:\n        /* \"#utility.yul\":10786:10802   */\n      0x596f7572206e6f742061646d696e000000000000000000000000000000000000\n        /* \"#utility.yul\":10782:10783   */\n      0x00\n        /* \"#utility.yul\":10774:10780   */\n      dup3\n        /* \"#utility.yul\":10770:10784   */\n      add\n        /* \"#utility.yul\":10763:10803   */\n      mstore\n        /* \"#utility.yul\":10646:10810   */\n      pop\n      jump\t// out\n        /* \"#utility.yul\":10816:10938   */\n    tag_85:\n        /* \"#utility.yul\":10889:10913   */\n      tag_211\n        /* \"#utility.yul\":10907:10912   */\n      dup2\n        /* \"#utility.yul\":10889:10913   */\n      tag_121\n      jump\t// in\n    tag_211:\n        /* \"#utility.yul\":10882:10887   */\n      dup2\n        /* \"#utility.yul\":10879:10914   */\n      eq\n        /* \"#utility.yul\":10869:10932   */\n      tag_212\n      jumpi\n        /* \"#utility.yul\":10928:10929   */\n      0x00\n        /* \"#utility.yul\":10925:10926   */\n      dup1\n        /* \"#utility.yul\":10918:10930   */\n      revert\n        /* \"#utility.yul\":10869:10932   */\n    tag_212:\n        /* \"#utility.yul\":10816:10938   */\n      pop\n      jump\t// out\n        /* \"#utility.yul\":10944:11060   */\n    tag_89:\n        /* \"#utility.yul\":11014:11035   */\n      tag_214\n        /* \"#utility.yul\":11029:11034   */\n      dup2\n        /* \"#utility.yul\":11014:11035   */\n      tag_180\n      jump\t// in\n    tag_214:\n        /* \"#utility.yul\":11007:11012   */\n      dup2\n        /* \"#utility.yul\":11004:11036   */\n      eq\n        /* \"#utility.yul\":10994:11054   */\n      tag_215\n      jumpi\n        /* \"#utility.yul\":11050:11051   */\n      0x00\n        /* \"#utility.yul\":11047:11048   */\n      dup1\n        /* \"#utility.yul\":11040:11052   */\n      revert\n        /* \"#utility.yul\":10994:11054   */\n    tag_215:\n        /* \"#utility.yul\":10944:11060   */\n      pop\n      jump\t// out\n\n    auxdata: 0xa2646970667358221220bab5643f546d27203e5e44ee84610e785e9c6797d819c42a3d4c812bbeb35a0364736f6c63430008070033\n}\n",
				"bytecode": {
					"linkReferences": {},
					"object": "608060405234801561001057600080fd5b50610bd5806100206000396000f3fe608060405234801561001057600080fd5b506004361061004c5760003560e01c806344b6940514610051578063785963c31461006f5780638e4f8c6b1461008b5780639d9e7a4b146100bb575b600080fd5b6100596100d7565b6040516100669190610844565b60405180910390f35b610089600480360381019061008491906106ea565b610245565b005b6100a560048036038101906100a091906106a1565b61044f565b6040516100b2919061085f565b60405180910390f35b6100d560048036038101906100d09190610674565b61047f565b005b60008060048111156100ec576100eb610a44565b5b6000803373ffffffffffffffffffffffffffffffffffffffff1673ffffffffffffffffffffffffffffffffffffffff16815260200190815260200160002060000160009054906101000a900460ff16600481111561014d5761014c610a44565b5b1461018d576040517f08c379a0000000000000000000000000000000000000000000000000000000008152600401610184906108ba565b60405180910390fd5b600260048111156101a1576101a0610a44565b5b6000803373ffffffffffffffffffffffffffffffffffffffff1673ffffffffffffffffffffffffffffffffffffffff16815260200190815260200160002060000160009054906101000a900460ff16600481111561020257610201610a44565b5b14610242576040517f08c379a00000000000000000000000000000000000000000000000000000000081526004016102399061087a565b60405180910390fd5b90565b60011515600260003373ffffffffffffffffffffffffffffffffffffffff1673ffffffffffffffffffffffffffffffffffffffff16815260200190815260200160002060020160169054906101000a900460ff161515146102db576040517f08c379a00000000000000000000000000000000000000000000000000000000081526004016102d29061089a565b60405180910390fd5b6040518060c001604052808481526020018381526020018273ffffffffffffffffffffffffffffffffffffffff16815260200160011515815260200160001515815260200160011515815250600260003373ffffffffffffffffffffffffffffffffffffffff1673ffffffffffffffffffffffffffffffffffffffff1681526020019081526020016000206000820151816000019080519060200190610382929190610537565b50602082015181600101908051906020019061039f929190610537565b5060408201518160020160006101000a81548173ffffffffffffffffffffffffffffffffffffffff021916908373ffffffffffffffffffffffffffffffffffffffff16021790555060608201518160020160146101000a81548160ff02191690831515021790555060808201518160020160156101000a81548160ff02191690831515021790555060a08201518160020160166101000a81548160ff021916908315150217905550905050505050565b600081604051602001610462919061082d565b604051602081830303815290604052805190602001209050919050565b6002600481111561049357610492610a44565b5b6000803373ffffffffffffffffffffffffffffffffffffffff1673ffffffffffffffffffffffffffffffffffffffff16815260200190815260200160002060000160009054906101000a900460ff1660048111156104f4576104f3610a44565b5b14610534576040517f08c379a000000000000000000000000000000000000000000000000000000000815260040161052b9061087a565b60405180910390fd5b50565b828054610543906109e1565b90600052602060002090601f01602090048101928261056557600085556105ac565b82601f1061057e57805160ff19168380011785556105ac565b828001600101855582156105ac579182015b828111156105ab578251825591602001919060010190610590565b5b5090506105b991906105bd565b5090565b5b808211156105d65760008160009055506001016105be565b5090565b60006105ed6105e8846108ff565b6108da565b90508281526020810184848401111561060957610608610ad6565b5b61061484828561099f565b509392505050565b60008135905061062b81610b71565b92915050565b60008135905061064081610b88565b92915050565b600082601f83011261065b5761065a610ad1565b5b813561066b8482602086016105da565b91505092915050565b60006020828403121561068a57610689610ae0565b5b600061069884828501610631565b91505092915050565b6000602082840312156106b7576106b6610ae0565b5b600082013567ffffffffffffffff8111156106d5576106d4610adb565b5b6106e184828501610646565b91505092915050565b60008060006060848603121561070357610702610ae0565b5b600084013567ffffffffffffffff81111561072157610720610adb565b5b61072d86828701610646565b935050602084013567ffffffffffffffff81111561074e5761074d610adb565b5b61075a86828701610646565b925050604061076b8682870161061c565b9150509250925092565b61077e81610957565b82525050565b61078d81610975565b82525050565b600061079e82610930565b6107a8818561094c565b93506107b88185602086016109ae565b80840191505092915050565b60006107d1601f8361093b565b91506107dc82610af6565b602082019050919050565b60006107f460198361093b565b91506107ff82610b1f565b602082019050919050565b6000610817600e8361093b565b915061082282610b48565b602082019050919050565b60006108398284610793565b915081905092915050565b60006020820190506108596000830184610775565b92915050565b60006020820190506108746000830184610784565b92915050565b60006020820190508181036000830152610893816107c4565b9050919050565b600060208201905081810360008301526108b3816107e7565b9050919050565b600060208201905081810360008301526108d38161080a565b9050919050565b60006108e46108f5565b90506108f08282610a13565b919050565b6000604051905090565b600067ffffffffffffffff82111561091a57610919610aa2565b5b61092382610ae5565b9050602081019050919050565b600081519050919050565b600082825260208201905092915050565b600081905092915050565b60006109628261097f565b9050919050565b60008115159050919050565b6000819050919050565b600073ffffffffffffffffffffffffffffffffffffffff82169050919050565b82818337600083830152505050565b60005b838110156109cc5780820151818401526020810190506109b1565b838111156109db576000848401525b50505050565b600060028204905060018216806109f957607f821691505b60208210811415610a0d57610a0c610a73565b5b50919050565b610a1c82610ae5565b810181811067ffffffffffffffff82111715610a3b57610a3a610aa2565b5b80604052505050565b7f4e487b7100000000000000000000000000000000000000000000000000000000600052602160045260246000fd5b7f4e487b7100000000000000000000000000000000000000000000000000000000600052602260045260246000fd5b7f4e487b7100000000000000000000000000000000000000000000000000000000600052604160045260246000fd5b600080fd5b600080fd5b600080fd5b600080fd5b6000601f19601f8301169050919050565b7f596f7520617265206e6f74206120707269766174652070726f76696465722100600082015250565b7f4170706c69636174696f6e20616c72656164792073656e742100000000000000600082015250565b7f596f7572206e6f742061646d696e000000000000000000000000000000000000600082015250565b610b7a81610957565b8114610b8557600080fd5b50565b610b9181610969565b8114610b9c57600080fd5b5056fea2646970667358221220bab5643f546d27203e5e44ee84610e785e9c6797d819c42a3d4c812bbeb35a0364736f6c63430008070033",
					"opcodes": "PUSH1 0x80 PUSH1 0x40 MSTORE CALLVALUE DUP1 ISZERO PUSH2 0x10 JUMPI PUSH1 0x0 DUP1 REVERT JUMPDEST POP PUSH2 0xBD5 DUP1 PUSH2 0x20 PUSH1 0x0 CODECOPY PUSH1 0x0 RETURN INVALID PUSH1 0x80 PUSH1 0x40 MSTORE CALLVALUE DUP1 ISZERO PUSH2 0x10 JUMPI PUSH1 0x0 DUP1 REVERT JUMPDEST POP PUSH1 0x4 CALLDATASIZE LT PUSH2 0x4C JUMPI PUSH1 0x0 CALLDATALOAD PUSH1 0xE0 SHR DUP1 PUSH4 0x44B69405 EQ PUSH2 0x51 JUMPI DUP1 PUSH4 0x785963C3 EQ PUSH2 0x6F JUMPI DUP1 PUSH4 0x8E4F8C6B EQ PUSH2 0x8B JUMPI DUP1 PUSH4 0x9D9E7A4B EQ PUSH2 0xBB JUMPI JUMPDEST PUSH1 0x0 DUP1 REVERT JUMPDEST PUSH2 0x59 PUSH2 0xD7 JUMP JUMPDEST PUSH1 0x40 MLOAD PUSH2 0x66 SWAP2 SWAP1 PUSH2 0x844 JUMP JUMPDEST PUSH1 0x40 MLOAD DUP1 SWAP2 SUB SWAP1 RETURN JUMPDEST PUSH2 0x89 PUSH1 0x4 DUP1 CALLDATASIZE SUB DUP2 ADD SWAP1 PUSH2 0x84 SWAP2 SWAP1 PUSH2 0x6EA JUMP JUMPDEST PUSH2 0x245 JUMP JUMPDEST STOP JUMPDEST PUSH2 0xA5 PUSH1 0x4 DUP1 CALLDATASIZE SUB DUP2 ADD SWAP1 PUSH2 0xA0 SWAP2 SWAP1 PUSH2 0x6A1 JUMP JUMPDEST PUSH2 0x44F JUMP JUMPDEST PUSH1 0x40 MLOAD PUSH2 0xB2 SWAP2 SWAP1 PUSH2 0x85F JUMP JUMPDEST PUSH1 0x40 MLOAD DUP1 SWAP2 SUB SWAP1 RETURN JUMPDEST PUSH2 0xD5 PUSH1 0x4 DUP1 CALLDATASIZE SUB DUP2 ADD SWAP1 PUSH2 0xD0 SWAP2 SWAP1 PUSH2 0x674 JUMP JUMPDEST PUSH2 0x47F JUMP JUMPDEST STOP JUMPDEST PUSH1 0x0 DUP1 PUSH1 0x4 DUP2 GT ISZERO PUSH2 0xEC JUMPI PUSH2 0xEB PUSH2 0xA44 JUMP JUMPDEST JUMPDEST PUSH1 0x0 DUP1 CALLER PUSH20 0xFFFFFFFFFFFFFFFFFFFFFFFFFFFFFFFFFFFFFFFF AND PUSH20 0xFFFFFFFFFFFFFFFFFFFFFFFFFFFFFFFFFFFFFFFF AND DUP2 MSTORE PUSH1 0x20 ADD SWAP1 DUP2 MSTORE PUSH1 0x20 ADD PUSH1 0x0 KECCAK256 PUSH1 0x0 ADD PUSH1 0x0 SWAP1 SLOAD SWAP1 PUSH2 0x100 EXP SWAP1 DIV PUSH1 0xFF AND PUSH1 0x4 DUP2 GT ISZERO PUSH2 0x14D JUMPI PUSH2 0x14C PUSH2 0xA44 JUMP JUMPDEST JUMPDEST EQ PUSH2 0x18D JUMPI PUSH1 0x40 MLOAD PUSH32 0x8C379A000000000000000000000000000000000000000000000000000000000 DUP2 MSTORE PUSH1 0x4 ADD PUSH2 0x184 SWAP1 PUSH2 0x8BA JUMP JUMPDEST PUSH1 0x40 MLOAD DUP1 SWAP2 SUB SWAP1 REVERT JUMPDEST PUSH1 0x2 PUSH1 0x4 DUP2 GT ISZERO PUSH2 0x1A1 JUMPI PUSH2 0x1A0 PUSH2 0xA44 JUMP JUMPDEST JUMPDEST PUSH1 0x0 DUP1 CALLER PUSH20 0xFFFFFFFFFFFFFFFFFFFFFFFFFFFFFFFFFFFFFFFF AND PUSH20 0xFFFFFFFFFFFFFFFFFFFFFFFFFFFFFFFFFFFFFFFF AND DUP2 MSTORE PUSH1 0x20 ADD SWAP1 DUP2 MSTORE PUSH1 0x20 ADD PUSH1 0x0 KECCAK256 PUSH1 0x0 ADD PUSH1 0x0 SWAP1 SLOAD SWAP1 PUSH2 0x100 EXP SWAP1 DIV PUSH1 0xFF AND PUSH1 0x4 DUP2 GT ISZERO PUSH2 0x202 JUMPI PUSH2 0x201 PUSH2 0xA44 JUMP JUMPDEST JUMPDEST EQ PUSH2 0x242 JUMPI PUSH1 0x40 MLOAD PUSH32 0x8C379A000000000000000000000000000000000000000000000000000000000 DUP2 MSTORE PUSH1 0x4 ADD PUSH2 0x239 SWAP1 PUSH2 0x87A JUMP JUMPDEST PUSH1 0x40 MLOAD DUP1 SWAP2 SUB SWAP1 REVERT JUMPDEST SWAP1 JUMP JUMPDEST PUSH1 0x1 ISZERO ISZERO PUSH1 0x2 PUSH1 0x0 CALLER PUSH20 0xFFFFFFFFFFFFFFFFFFFFFFFFFFFFFFFFFFFFFFFF AND PUSH20 0xFFFFFFFFFFFFFFFFFFFFFFFFFFFFFFFFFFFFFFFF AND DUP2 MSTORE PUSH1 0x20 ADD SWAP1 DUP2 MSTORE PUSH1 0x20 ADD PUSH1 0x0 KECCAK256 PUSH1 0x2 ADD PUSH1 0x16 SWAP1 SLOAD SWAP1 PUSH2 0x100 EXP SWAP1 DIV PUSH1 0xFF AND ISZERO ISZERO EQ PUSH2 0x2DB JUMPI PUSH1 0x40 MLOAD PUSH32 0x8C379A000000000000000000000000000000000000000000000000000000000 DUP2 MSTORE PUSH1 0x4 ADD PUSH2 0x2D2 SWAP1 PUSH2 0x89A JUMP JUMPDEST PUSH1 0x40 MLOAD DUP1 SWAP2 SUB SWAP1 REVERT JUMPDEST PUSH1 0x40 MLOAD DUP1 PUSH1 0xC0 ADD PUSH1 0x40 MSTORE DUP1 DUP5 DUP2 MSTORE PUSH1 0x20 ADD DUP4 DUP2 MSTORE PUSH1 0x20 ADD DUP3 PUSH20 0xFFFFFFFFFFFFFFFFFFFFFFFFFFFFFFFFFFFFFFFF AND DUP2 MSTORE PUSH1 0x20 ADD PUSH1 0x1 ISZERO ISZERO DUP2 MSTORE PUSH1 0x20 ADD PUSH1 0x0 ISZERO ISZERO DUP2 MSTORE PUSH1 0x20 ADD PUSH1 0x1 ISZERO ISZERO DUP2 MSTORE POP PUSH1 0x2 PUSH1 0x0 CALLER PUSH20 0xFFFFFFFFFFFFFFFFFFFFFFFFFFFFFFFFFFFFFFFF AND PUSH20 0xFFFFFFFFFFFFFFFFFFFFFFFFFFFFFFFFFFFFFFFF AND DUP2 MSTORE PUSH1 0x20 ADD SWAP1 DUP2 MSTORE PUSH1 0x20 ADD PUSH1 0x0 KECCAK256 PUSH1 0x0 DUP3 ADD MLOAD DUP2 PUSH1 0x0 ADD SWAP1 DUP1 MLOAD SWAP1 PUSH1 0x20 ADD SWAP1 PUSH2 0x382 SWAP3 SWAP2 SWAP1 PUSH2 0x537 JUMP JUMPDEST POP PUSH1 0x20 DUP3 ADD MLOAD DUP2 PUSH1 0x1 ADD SWAP1 DUP1 MLOAD SWAP1 PUSH1 0x20 ADD SWAP1 PUSH2 0x39F SWAP3 SWAP2 SWAP1 PUSH2 0x537 JUMP JUMPDEST POP PUSH1 0x40 DUP3 ADD MLOAD DUP2 PUSH1 0x2 ADD PUSH1 0x0 PUSH2 0x100 EXP DUP2 SLOAD DUP2 PUSH20 0xFFFFFFFFFFFFFFFFFFFFFFFFFFFFFFFFFFFFFFFF MUL NOT AND SWAP1 DUP4 PUSH20 0xFFFFFFFFFFFFFFFFFFFFFFFFFFFFFFFFFFFFFFFF AND MUL OR SWAP1 SSTORE POP PUSH1 0x60 DUP3 ADD MLOAD DUP2 PUSH1 0x2 ADD PUSH1 0x14 PUSH2 0x100 EXP DUP2 SLOAD DUP2 PUSH1 0xFF MUL NOT AND SWAP1 DUP4 ISZERO ISZERO MUL OR SWAP1 SSTORE POP PUSH1 0x80 DUP3 ADD MLOAD DUP2 PUSH1 0x2 ADD PUSH1 0x15 PUSH2 0x100 EXP DUP2 SLOAD DUP2 PUSH1 0xFF MUL NOT AND SWAP1 DUP4 ISZERO ISZERO MUL OR SWAP1 SSTORE POP PUSH1 0xA0 DUP3 ADD MLOAD DUP2 PUSH1 0x2 ADD PUSH1 0x16 PUSH2 0x100 EXP DUP2 SLOAD DUP2 PUSH1 0xFF MUL NOT AND SWAP1 DUP4 ISZERO ISZERO MUL OR SWAP1 SSTORE POP SWAP1 POP POP POP POP POP JUMP JUMPDEST PUSH1 0x0 DUP2 PUSH1 0x40 MLOAD PUSH1 0x20 ADD PUSH2 0x462 SWAP2 SWAP1 PUSH2 0x82D JUMP JUMPDEST PUSH1 0x40 MLOAD PUSH1 0x20 DUP2 DUP4 SUB SUB DUP2 MSTORE SWAP1 PUSH1 0x40 MSTORE DUP1 MLOAD SWAP1 PUSH1 0x20 ADD KECCAK256 SWAP1 POP SWAP2 SWAP1 POP JUMP JUMPDEST PUSH1 0x2 PUSH1 0x4 DUP2 GT ISZERO PUSH2 0x493 JUMPI PUSH2 0x492 PUSH2 0xA44 JUMP JUMPDEST JUMPDEST PUSH1 0x0 DUP1 CALLER PUSH20 0xFFFFFFFFFFFFFFFFFFFFFFFFFFFFFFFFFFFFFFFF AND PUSH20 0xFFFFFFFFFFFFFFFFFFFFFFFFFFFFFFFFFFFFFFFF AND DUP2 MSTORE PUSH1 0x20 ADD SWAP1 DUP2 MSTORE PUSH1 0x20 ADD PUSH1 0x0 KECCAK256 PUSH1 0x0 ADD PUSH1 0x0 SWAP1 SLOAD SWAP1 PUSH2 0x100 EXP SWAP1 DIV PUSH1 0xFF AND PUSH1 0x4 DUP2 GT ISZERO PUSH2 0x4F4 JUMPI PUSH2 0x4F3 PUSH2 0xA44 JUMP JUMPDEST JUMPDEST EQ PUSH2 0x534 JUMPI PUSH1 0x40 MLOAD PUSH32 0x8C379A000000000000000000000000000000000000000000000000000000000 DUP2 MSTORE PUSH1 0x4 ADD PUSH2 0x52B SWAP1 PUSH2 0x87A JUMP JUMPDEST PUSH1 0x40 MLOAD DUP1 SWAP2 SUB SWAP1 REVERT JUMPDEST POP JUMP JUMPDEST DUP3 DUP1 SLOAD PUSH2 0x543 SWAP1 PUSH2 0x9E1 JUMP JUMPDEST SWAP1 PUSH1 0x0 MSTORE PUSH1 0x20 PUSH1 0x0 KECCAK256 SWAP1 PUSH1 0x1F ADD PUSH1 0x20 SWAP1 DIV DUP2 ADD SWAP3 DUP3 PUSH2 0x565 JUMPI PUSH1 0x0 DUP6 SSTORE PUSH2 0x5AC JUMP JUMPDEST DUP3 PUSH1 0x1F LT PUSH2 0x57E JUMPI DUP1 MLOAD PUSH1 0xFF NOT AND DUP4 DUP1 ADD OR DUP6 SSTORE PUSH2 0x5AC JUMP JUMPDEST DUP3 DUP1 ADD PUSH1 0x1 ADD DUP6 SSTORE DUP3 ISZERO PUSH2 0x5AC JUMPI SWAP2 DUP3 ADD JUMPDEST DUP3 DUP2 GT ISZERO PUSH2 0x5AB JUMPI DUP3 MLOAD DUP3 SSTORE SWAP2 PUSH1 0x20 ADD SWAP2 SWAP1 PUSH1 0x1 ADD SWAP1 PUSH2 0x590 JUMP JUMPDEST JUMPDEST POP SWAP1 POP PUSH2 0x5B9 SWAP2 SWAP1 PUSH2 0x5BD JUMP JUMPDEST POP SWAP1 JUMP JUMPDEST JUMPDEST DUP1 DUP3 GT ISZERO PUSH2 0x5D6 JUMPI PUSH1 0x0 DUP2 PUSH1 0x0 SWAP1 SSTORE POP PUSH1 0x1 ADD PUSH2 0x5BE JUMP JUMPDEST POP SWAP1 JUMP JUMPDEST PUSH1 0x0 PUSH2 0x5ED PUSH2 0x5E8 DUP5 PUSH2 0x8FF JUMP JUMPDEST PUSH2 0x8DA JUMP JUMPDEST SWAP1 POP DUP3 DUP2 MSTORE PUSH1 0x20 DUP2 ADD DUP5 DUP5 DUP5 ADD GT ISZERO PUSH2 0x609 JUMPI PUSH2 0x608 PUSH2 0xAD6 JUMP JUMPDEST JUMPDEST PUSH2 0x614 DUP5 DUP3 DUP6 PUSH2 0x99F JUMP JUMPDEST POP SWAP4 SWAP3 POP POP POP JUMP JUMPDEST PUSH1 0x0 DUP2 CALLDATALOAD SWAP1 POP PUSH2 0x62B DUP2 PUSH2 0xB71 JUMP JUMPDEST SWAP3 SWAP2 POP POP JUMP JUMPDEST PUSH1 0x0 DUP2 CALLDATALOAD SWAP1 POP PUSH2 0x640 DUP2 PUSH2 0xB88 JUMP JUMPDEST SWAP3 SWAP2 POP POP JUMP JUMPDEST PUSH1 0x0 DUP3 PUSH1 0x1F DUP4 ADD SLT PUSH2 0x65B JUMPI PUSH2 0x65A PUSH2 0xAD1 JUMP JUMPDEST JUMPDEST DUP2 CALLDATALOAD PUSH2 0x66B DUP5 DUP3 PUSH1 0x20 DUP7 ADD PUSH2 0x5DA JUMP JUMPDEST SWAP2 POP POP SWAP3 SWAP2 POP POP JUMP JUMPDEST PUSH1 0x0 PUSH1 0x20 DUP3 DUP5 SUB SLT ISZERO PUSH2 0x68A JUMPI PUSH2 0x689 PUSH2 0xAE0 JUMP JUMPDEST JUMPDEST PUSH1 0x0 PUSH2 0x698 DUP5 DUP3 DUP6 ADD PUSH2 0x631 JUMP JUMPDEST SWAP2 POP POP SWAP3 SWAP2 POP POP JUMP JUMPDEST PUSH1 0x0 PUSH1 0x20 DUP3 DUP5 SUB SLT ISZERO PUSH2 0x6B7 JUMPI PUSH2 0x6B6 PUSH2 0xAE0 JUMP JUMPDEST JUMPDEST PUSH1 0x0 DUP3 ADD CALLDATALOAD PUSH8 0xFFFFFFFFFFFFFFFF DUP2 GT ISZERO PUSH2 0x6D5 JUMPI PUSH2 0x6D4 PUSH2 0xADB JUMP JUMPDEST JUMPDEST PUSH2 0x6E1 DUP5 DUP3 DUP6 ADD PUSH2 0x646 JUMP JUMPDEST SWAP2 POP POP SWAP3 SWAP2 POP POP JUMP JUMPDEST PUSH1 0x0 DUP1 PUSH1 0x0 PUSH1 0x60 DUP5 DUP7 SUB SLT ISZERO PUSH2 0x703 JUMPI PUSH2 0x702 PUSH2 0xAE0 JUMP JUMPDEST JUMPDEST PUSH1 0x0 DUP5 ADD CALLDATALOAD PUSH8 0xFFFFFFFFFFFFFFFF DUP2 GT ISZERO PUSH2 0x721 JUMPI PUSH2 0x720 PUSH2 0xADB JUMP JUMPDEST JUMPDEST PUSH2 0x72D DUP7 DUP3 DUP8 ADD PUSH2 0x646 JUMP JUMPDEST SWAP4 POP POP PUSH1 0x20 DUP5 ADD CALLDATALOAD PUSH8 0xFFFFFFFFFFFFFFFF DUP2 GT ISZERO PUSH2 0x74E JUMPI PUSH2 0x74D PUSH2 0xADB JUMP JUMPDEST JUMPDEST PUSH2 0x75A DUP7 DUP3 DUP8 ADD PUSH2 0x646 JUMP JUMPDEST SWAP3 POP POP PUSH1 0x40 PUSH2 0x76B DUP7 DUP3 DUP8 ADD PUSH2 0x61C JUMP JUMPDEST SWAP2 POP POP SWAP3 POP SWAP3 POP SWAP3 JUMP JUMPDEST PUSH2 0x77E DUP2 PUSH2 0x957 JUMP JUMPDEST DUP3 MSTORE POP POP JUMP JUMPDEST PUSH2 0x78D DUP2 PUSH2 0x975 JUMP JUMPDEST DUP3 MSTORE POP POP JUMP JUMPDEST PUSH1 0x0 PUSH2 0x79E DUP3 PUSH2 0x930 JUMP JUMPDEST PUSH2 0x7A8 DUP2 DUP6 PUSH2 0x94C JUMP JUMPDEST SWAP4 POP PUSH2 0x7B8 DUP2 DUP6 PUSH1 0x20 DUP7 ADD PUSH2 0x9AE JUMP JUMPDEST DUP1 DUP5 ADD SWAP2 POP POP SWAP3 SWAP2 POP POP JUMP JUMPDEST PUSH1 0x0 PUSH2 0x7D1 PUSH1 0x1F DUP4 PUSH2 0x93B JUMP JUMPDEST SWAP2 POP PUSH2 0x7DC DUP3 PUSH2 0xAF6 JUMP JUMPDEST PUSH1 0x20 DUP3 ADD SWAP1 POP SWAP2 SWAP1 POP JUMP JUMPDEST PUSH1 0x0 PUSH2 0x7F4 PUSH1 0x19 DUP4 PUSH2 0x93B JUMP JUMPDEST SWAP2 POP PUSH2 0x7FF DUP3 PUSH2 0xB1F JUMP JUMPDEST PUSH1 0x20 DUP3 ADD SWAP1 POP SWAP2 SWAP1 POP JUMP JUMPDEST PUSH1 0x0 PUSH2 0x817 PUSH1 0xE DUP4 PUSH2 0x93B JUMP JUMPDEST SWAP2 POP PUSH2 0x822 DUP3 PUSH2 0xB48 JUMP JUMPDEST PUSH1 0x20 DUP3 ADD SWAP1 POP SWAP2 SWAP1 POP JUMP JUMPDEST PUSH1 0x0 PUSH2 0x839 DUP3 DUP5 PUSH2 0x793 JUMP JUMPDEST SWAP2 POP DUP2 SWAP1 POP SWAP3 SWAP2 POP POP JUMP JUMPDEST PUSH1 0x0 PUSH1 0x20 DUP3 ADD SWAP1 POP PUSH2 0x859 PUSH1 0x0 DUP4 ADD DUP5 PUSH2 0x775 JUMP JUMPDEST SWAP3 SWAP2 POP POP JUMP JUMPDEST PUSH1 0x0 PUSH1 0x20 DUP3 ADD SWAP1 POP PUSH2 0x874 PUSH1 0x0 DUP4 ADD DUP5 PUSH2 0x784 JUMP JUMPDEST SWAP3 SWAP2 POP POP JUMP JUMPDEST PUSH1 0x0 PUSH1 0x20 DUP3 ADD SWAP1 POP DUP2 DUP2 SUB PUSH1 0x0 DUP4 ADD MSTORE PUSH2 0x893 DUP2 PUSH2 0x7C4 JUMP JUMPDEST SWAP1 POP SWAP2 SWAP1 POP JUMP JUMPDEST PUSH1 0x0 PUSH1 0x20 DUP3 ADD SWAP1 POP DUP2 DUP2 SUB PUSH1 0x0 DUP4 ADD MSTORE PUSH2 0x8B3 DUP2 PUSH2 0x7E7 JUMP JUMPDEST SWAP1 POP SWAP2 SWAP1 POP JUMP JUMPDEST PUSH1 0x0 PUSH1 0x20 DUP3 ADD SWAP1 POP DUP2 DUP2 SUB PUSH1 0x0 DUP4 ADD MSTORE PUSH2 0x8D3 DUP2 PUSH2 0x80A JUMP JUMPDEST SWAP1 POP SWAP2 SWAP1 POP JUMP JUMPDEST PUSH1 0x0 PUSH2 0x8E4 PUSH2 0x8F5 JUMP JUMPDEST SWAP1 POP PUSH2 0x8F0 DUP3 DUP3 PUSH2 0xA13 JUMP JUMPDEST SWAP2 SWAP1 POP JUMP JUMPDEST PUSH1 0x0 PUSH1 0x40 MLOAD SWAP1 POP SWAP1 JUMP JUMPDEST PUSH1 0x0 PUSH8 0xFFFFFFFFFFFFFFFF DUP3 GT ISZERO PUSH2 0x91A JUMPI PUSH2 0x919 PUSH2 0xAA2 JUMP JUMPDEST JUMPDEST PUSH2 0x923 DUP3 PUSH2 0xAE5 JUMP JUMPDEST SWAP1 POP PUSH1 0x20 DUP2 ADD SWAP1 POP SWAP2 SWAP1 POP JUMP JUMPDEST PUSH1 0x0 DUP2 MLOAD SWAP1 POP SWAP2 SWAP1 POP JUMP JUMPDEST PUSH1 0x0 DUP3 DUP3 MSTORE PUSH1 0x20 DUP3 ADD SWAP1 POP SWAP3 SWAP2 POP POP JUMP JUMPDEST PUSH1 0x0 DUP2 SWAP1 POP SWAP3 SWAP2 POP POP JUMP JUMPDEST PUSH1 0x0 PUSH2 0x962 DUP3 PUSH2 0x97F JUMP JUMPDEST SWAP1 POP SWAP2 SWAP1 POP JUMP JUMPDEST PUSH1 0x0 DUP2 ISZERO ISZERO SWAP1 POP SWAP2 SWAP1 POP JUMP JUMPDEST PUSH1 0x0 DUP2 SWAP1 POP SWAP2 SWAP1 POP JUMP JUMPDEST PUSH1 0x0 PUSH20 0xFFFFFFFFFFFFFFFFFFFFFFFFFFFFFFFFFFFFFFFF DUP3 AND SWAP1 POP SWAP2 SWAP1 POP JUMP JUMPDEST DUP3 DUP2 DUP4 CALLDATACOPY PUSH1 0x0 DUP4 DUP4 ADD MSTORE POP POP POP JUMP JUMPDEST PUSH1 0x0 JUMPDEST DUP4 DUP2 LT ISZERO PUSH2 0x9CC JUMPI DUP1 DUP3 ADD MLOAD DUP2 DUP5 ADD MSTORE PUSH1 0x20 DUP2 ADD SWAP1 POP PUSH2 0x9B1 JUMP JUMPDEST DUP4 DUP2 GT ISZERO PUSH2 0x9DB JUMPI PUSH1 0x0 DUP5 DUP5 ADD MSTORE JUMPDEST POP POP POP POP JUMP JUMPDEST PUSH1 0x0 PUSH1 0x2 DUP3 DIV SWAP1 POP PUSH1 0x1 DUP3 AND DUP1 PUSH2 0x9F9 JUMPI PUSH1 0x7F DUP3 AND SWAP2 POP JUMPDEST PUSH1 0x20 DUP3 LT DUP2 EQ ISZERO PUSH2 0xA0D JUMPI PUSH2 0xA0C PUSH2 0xA73 JUMP JUMPDEST JUMPDEST POP SWAP2 SWAP1 POP JUMP JUMPDEST PUSH2 0xA1C DUP3 PUSH2 0xAE5 JUMP JUMPDEST DUP2 ADD DUP2 DUP2 LT PUSH8 0xFFFFFFFFFFFFFFFF DUP3 GT OR ISZERO PUSH2 0xA3B JUMPI PUSH2 0xA3A PUSH2 0xAA2 JUMP JUMPDEST JUMPDEST DUP1 PUSH1 0x40 MSTORE POP POP POP JUMP JUMPDEST PUSH32 0x4E487B7100000000000000000000000000000000000000000000000000000000 PUSH1 0x0 MSTORE PUSH1 0x21 PUSH1 0x4 MSTORE PUSH1 0x24 PUSH1 0x0 REVERT JUMPDEST PUSH32 0x4E487B7100000000000000000000000000000000000000000000000000000000 PUSH1 0x0 MSTORE PUSH1 0x22 PUSH1 0x4 MSTORE PUSH1 0x24 PUSH1 0x0 REVERT JUMPDEST PUSH32 0x4E487B7100000000000000000000000000000000000000000000000000000000 PUSH1 0x0 MSTORE PUSH1 0x41 PUSH1 0x4 MSTORE PUSH1 0x24 PUSH1 0x0 REVERT JUMPDEST PUSH1 0x0 DUP1 REVERT JUMPDEST PUSH1 0x0 DUP1 REVERT JUMPDEST PUSH1 0x0 DUP1 REVERT JUMPDEST PUSH1 0x0 DUP1 REVERT JUMPDEST PUSH1 0x0 PUSH1 0x1F NOT PUSH1 0x1F DUP4 ADD AND SWAP1 POP SWAP2 SWAP1 POP JUMP JUMPDEST PUSH32 0x596F7520617265206E6F74206120707269766174652070726F76696465722100 PUSH1 0x0 DUP3 ADD MSTORE POP JUMP JUMPDEST PUSH32 0x4170706C69636174696F6E20616C72656164792073656E742100000000000000 PUSH1 0x0 DUP3 ADD MSTORE POP JUMP JUMPDEST PUSH32 0x596F7572206E6F742061646D696E000000000000000000000000000000000000 PUSH1 0x0 DUP3 ADD MSTORE POP JUMP JUMPDEST PUSH2 0xB7A DUP2 PUSH2 0x957 JUMP JUMPDEST DUP2 EQ PUSH2 0xB85 JUMPI PUSH1 0x0 DUP1 REVERT JUMPDEST POP JUMP JUMPDEST PUSH2 0xB91 DUP2 PUSH2 0x969 JUMP JUMPDEST DUP2 EQ PUSH2 0xB9C JUMPI PUSH1 0x0 DUP1 REVERT JUMPDEST POP JUMP INVALID LOG2 PUSH5 0x6970667358 0x22 SLT KECCAK256 0xBA 0xB5 PUSH5 0x3F546D2720 RETURNDATACOPY 0x5E DIFFICULTY 0xEE DUP5 PUSH2 0xE78 0x5E SWAP13 PUSH8 0x97D819C42A3D4C81 0x2B 0xBE 0xB3 GAS SUB PUSH5 0x736F6C6343 STOP ADDMOD SMOD STOP CALLER "
				},
				"gasEstimates": {
					"creation": {
						"codeDepositCost": "605800",
						"executionCost": "638",
						"totalCost": "606438"
					},
					"external": {
						"acceptApplication(bool)": "3049",
						"application(string,string,address)": "infinite",
						"get_keccak256(string)": "infinite",
						"viewApplication()": "5026"
					}
				},
				"methodIdentifiers": {
					"acceptApplication(bool)": "9d9e7a4b",
					"application(string,string,address)": "785963c3",
					"get_keccak256(string)": "8e4f8c6b",
					"viewApplication()": "44b69405"
				}
			},
			"storageLayout": {
				"storage": [
					{
						"astId": 258,
						"contract": "Documents/GitHub/contract-token-cryptoMonster/backend/components/PhasePrivate.sol:PhasePrivate",
						"label": "structUsers_",
						"offset": 0,
						"slot": "0",
						"type": "t_mapping(t_address,t_struct(structUser)253_storage)"
					},
					{
						"astId": 268,
						"contract": "Documents/GitHub/contract-token-cryptoMonster/backend/components/PhasePrivate.sol:PhasePrivate",
						"label": "structPhases_",
						"offset": 0,
						"slot": "1",
						"type": "t_mapping(t_address,t_struct(structPhase)263_storage)"
					},
					{
						"astId": 286,
						"contract": "Documents/GitHub/contract-token-cryptoMonster/backend/components/PhasePrivate.sol:PhasePrivate",
						"label": "strucApplications_",
						"offset": 0,
						"slot": "2",
						"type": "t_mapping(t_address,t_struct(structApplication)281_storage)"
					}
				],
				"types": {
					"t_address": {
						"encoding": "inplace",
						"label": "address",
						"numberOfBytes": "20"
					},
					"t_bool": {
						"encoding": "inplace",
						"label": "bool",
						"numberOfBytes": "1"
					},
					"t_bytes32": {
						"encoding": "inplace",
						"label": "bytes32",
						"numberOfBytes": "32"
					},
					"t_enum(Role)237": {
						"encoding": "inplace",
						"label": "enum structures.Role",
						"numberOfBytes": "1"
					},
					"t_mapping(t_address,t_struct(structApplication)281_storage)": {
						"encoding": "mapping",
						"key": "t_address",
						"label": "mapping(address => struct structures.structApplication)",
						"numberOfBytes": "32",
						"value": "t_struct(structApplication)281_storage"
					},
					"t_mapping(t_address,t_struct(structPhase)263_storage)": {
						"encoding": "mapping",
						"key": "t_address",
						"label": "mapping(address => struct structures.structPhase)",
						"numberOfBytes": "32",
						"value": "t_struct(structPhase)263_storage"
					},
					"t_mapping(t_address,t_struct(structUser)253_storage)": {
						"encoding": "mapping",
						"key": "t_address",
						"label": "mapping(address => struct structures.structUser)",
						"numberOfBytes": "32",
						"value": "t_struct(structUser)253_storage"
					},
					"t_string_storage": {
						"encoding": "bytes",
						"label": "string",
						"numberOfBytes": "32"
					},
					"t_struct(structApplication)281_storage": {
						"encoding": "inplace",
						"label": "struct structures.structApplication",
						"members": [
							{
								"astId": 270,
								"contract": "Documents/GitHub/contract-token-cryptoMonster/backend/components/PhasePrivate.sol:PhasePrivate",
								"label": "name",
								"offset": 0,
								"slot": "0",
								"type": "t_string_storage"
							},
							{
								"astId": 272,
								"contract": "Documents/GitHub/contract-token-cryptoMonster/backend/components/PhasePrivate.sol:PhasePrivate",
								"label": "contactForCommunication",
								"offset": 0,
								"slot": "1",
								"type": "t_string_storage"
							},
							{
								"astId": 274,
								"contract": "Documents/GitHub/contract-token-cryptoMonster/backend/components/PhasePrivate.sol:PhasePrivate",
								"label": "userAdr",
								"offset": 0,
								"slot": "2",
								"type": "t_address"
							},
							{
								"astId": 276,
								"contract": "Documents/GitHub/contract-token-cryptoMonster/backend/components/PhasePrivate.sol:PhasePrivate",
								"label": "status",
								"offset": 20,
								"slot": "2",
								"type": "t_bool"
							},
							{
								"astId": 278,
								"contract": "Documents/GitHub/contract-token-cryptoMonster/backend/components/PhasePrivate.sol:PhasePrivate",
								"label": "reviewed",
								"offset": 21,
								"slot": "2",
								"type": "t_bool"
							},
							{
								"astId": 280,
								"contract": "Documents/GitHub/contract-token-cryptoMonster/backend/components/PhasePrivate.sol:PhasePrivate",
								"label": "exist",
								"offset": 22,
								"slot": "2",
								"type": "t_bool"
							}
						],
						"numberOfBytes": "96"
					},
					"t_struct(structPhase)263_storage": {
						"encoding": "inplace",
						"label": "struct structures.structPhase",
						"members": [
							{
								"astId": 260,
								"contract": "Documents/GitHub/contract-token-cryptoMonster/backend/components/PhasePrivate.sol:PhasePrivate",
								"label": "statusPhase",
								"offset": 0,
								"slot": "0",
								"type": "t_bool"
							},
							{
								"astId": 262,
								"contract": "Documents/GitHub/contract-token-cryptoMonster/backend/components/PhasePrivate.sol:PhasePrivate",
								"label": "reviewed",
								"offset": 1,
								"slot": "0",
								"type": "t_bool"
							}
						],
						"numberOfBytes": "32"
					},
					"t_struct(structUser)253_storage": {
						"encoding": "inplace",
						"label": "struct structures.structUser",
						"members": [
							{
								"astId": 240,
								"contract": "Documents/GitHub/contract-token-cryptoMonster/backend/components/PhasePrivate.sol:PhasePrivate",
								"label": "role",
								"offset": 0,
								"slot": "0",
								"type": "t_enum(Role)237"
							},
							{
								"astId": 242,
								"contract": "Documents/GitHub/contract-token-cryptoMonster/backend/components/PhasePrivate.sol:PhasePrivate",
								"label": "login",
								"offset": 0,
								"slot": "1",
								"type": "t_string_storage"
							},
							{
								"astId": 244,
								"contract": "Documents/GitHub/contract-token-cryptoMonster/backend/components/PhasePrivate.sol:PhasePrivate",
								"label": "password",
								"offset": 0,
								"slot": "2",
								"type": "t_bytes32"
							},
							{
								"astId": 246,
								"contract": "Documents/GitHub/contract-token-cryptoMonster/backend/components/PhasePrivate.sol:PhasePrivate",
								"label": "balance_overall",
								"offset": 0,
								"slot": "3",
								"type": "t_uint256"
							},
							{
								"astId": 248,
								"contract": "Documents/GitHub/contract-token-cryptoMonster/backend/components/PhasePrivate.sol:PhasePrivate",
								"label": "balance_seed",
								"offset": 0,
								"slot": "4",
								"type": "t_uint256"
							},
							{
								"astId": 250,
								"contract": "Documents/GitHub/contract-token-cryptoMonster/backend/components/PhasePrivate.sol:PhasePrivate",
								"label": "balance_private",
								"offset": 0,
								"slot": "5",
								"type": "t_uint256"
							},
							{
								"astId": 252,
								"contract": "Documents/GitHub/contract-token-cryptoMonster/backend/components/PhasePrivate.sol:PhasePrivate",
								"label": "balance_public",
								"offset": 0,
								"slot": "6",
								"type": "t_uint256"
							}
						],
						"numberOfBytes": "224"
					},
					"t_uint256": {
						"encoding": "inplace",
						"label": "uint256",
						"numberOfBytes": "32"
					}
				}
			},
			"userdoc": {
				"kind": "user",
				"methods": {},
				"version": 1
			}
		}
	}
}