{
	"Documents/GitHub/contract-token-cryptoMonster/backend/components/PhasePrivate.sol": {
		"PhasePrivate": {
			"abi": [
				{
					"inputs": [
						{
							"internalType": "address",
							"name": "_userAdr",
							"type": "address"
						}
					],
					"name": "acceptApplication",
					"outputs": [],
					"stateMutability": "nonpayable",
					"type": "function"
				},
				{
					"inputs": [
						{
							"internalType": "string",
							"name": "_name",
							"type": "string"
						},
						{
							"internalType": "string",
							"name": "_contactForCommunication",
							"type": "string"
						},
						{
							"internalType": "address",
							"name": "_userAdr",
							"type": "address"
						}
					],
					"name": "application",
					"outputs": [],
					"stateMutability": "nonpayable",
					"type": "function"
				},
				{
					"inputs": [
						{
							"internalType": "address",
							"name": "_userAdr",
							"type": "address"
						}
					],
					"name": "deviationApplication",
					"outputs": [],
					"stateMutability": "nonpayable",
					"type": "function"
				},
				{
					"inputs": [],
					"name": "getApplicationAmountAdr",
					"outputs": [
						{
							"internalType": "address[]",
							"name": "",
							"type": "address[]"
						}
					],
					"stateMutability": "view",
					"type": "function"
				},
				{
					"inputs": [],
					"name": "getApplicationNotReviewed",
					"outputs": [
						{
							"internalType": "address[]",
							"name": "",
							"type": "address[]"
						}
					],
					"stateMutability": "view",
					"type": "function"
				},
				{
					"inputs": [],
					"name": "get_blackList",
					"outputs": [
						{
							"internalType": "address[]",
							"name": "",
							"type": "address[]"
						}
					],
					"stateMutability": "view",
					"type": "function"
				},
				{
					"inputs": [
						{
							"internalType": "string",
							"name": "_hash",
							"type": "string"
						}
					],
					"name": "get_keccak256",
					"outputs": [
						{
							"internalType": "bytes32",
							"name": "",
							"type": "bytes32"
						}
					],
					"stateMutability": "pure",
					"type": "function"
				},
				{
					"inputs": [],
					"name": "get_whiteList",
					"outputs": [
						{
							"internalType": "address[]",
							"name": "",
							"type": "address[]"
						}
					],
					"stateMutability": "view",
					"type": "function"
				},
				{
					"inputs": [
						{
							"internalType": "address",
							"name": "_userAdr",
							"type": "address"
						}
					],
					"name": "pushApplicationNotReviewed",
					"outputs": [],
					"stateMutability": "nonpayable",
					"type": "function"
				}
			],
			"devdoc": {
				"kind": "dev",
				"methods": {},
				"version": 1
			},
			"evm": {
				"assembly": "    /* \"Documents/GitHub/contract-token-cryptoMonster/backend/components/PhasePrivate.sol\":158:5030  contract PhasePrivate is validateFuncs {\r... */\n  mstore(0x40, 0x80)\n  callvalue\n  dup1\n  iszero\n  tag_1\n  jumpi\n  0x00\n  dup1\n  revert\ntag_1:\n  pop\n  dataSize(sub_0)\n  dup1\n  dataOffset(sub_0)\n  0x00\n  codecopy\n  0x00\n  return\nstop\n\nsub_0: assembly {\n        /* \"Documents/GitHub/contract-token-cryptoMonster/backend/components/PhasePrivate.sol\":158:5030  contract PhasePrivate is validateFuncs {\r... */\n      mstore(0x40, 0x80)\n      callvalue\n      dup1\n      iszero\n      tag_1\n      jumpi\n      0x00\n      dup1\n      revert\n    tag_1:\n      pop\n      jumpi(tag_2, lt(calldatasize, 0x04))\n      shr(0xe0, calldataload(0x00))\n      dup1\n      0x7f89128f\n      gt\n      tag_12\n      jumpi\n      dup1\n      0x7f89128f\n      eq\n      tag_7\n      jumpi\n      dup1\n      0x8e4f8c6b\n      eq\n      tag_8\n      jumpi\n      dup1\n      0xa678b65b\n      eq\n      tag_9\n      jumpi\n      dup1\n      0xc10e3911\n      eq\n      tag_10\n      jumpi\n      dup1\n      0xed842d85\n      eq\n      tag_11\n      jumpi\n      jump(tag_2)\n    tag_12:\n      dup1\n      0x1d3eea35\n      eq\n      tag_3\n      jumpi\n      dup1\n      0x506a222c\n      eq\n      tag_4\n      jumpi\n      dup1\n      0x686c4cea\n      eq\n      tag_5\n      jumpi\n      dup1\n      0x785963c3\n      eq\n      tag_6\n      jumpi\n    tag_2:\n      0x00\n      dup1\n      revert\n        /* \"Documents/GitHub/contract-token-cryptoMonster/backend/components/PhasePrivate.sol\":4699:5027  function deviationApplication (address _userAdr) public onlyPrivateProvider {\r... */\n    tag_3:\n      tag_13\n      0x04\n      dup1\n      calldatasize\n      sub\n      dup2\n      add\n      swap1\n      tag_14\n      swap2\n      swap1\n      tag_15\n      jump\t// in\n    tag_14:\n      tag_16\n      jump\t// in\n    tag_13:\n      stop\n        /* \"Documents/GitHub/contract-token-cryptoMonster/backend/components/PhasePrivate.sol\":2596:3819  function getApplicationNotReviewed () public onlyPrivateProvider view returns (address[] memory) {\r... */\n    tag_4:\n      tag_17\n      tag_18\n      jump\t// in\n    tag_17:\n      mload(0x40)\n      tag_19\n      swap2\n      swap1\n      tag_20\n      jump\t// in\n    tag_19:\n      mload(0x40)\n      dup1\n      swap2\n      sub\n      swap1\n      return\n        /* \"Documents/GitHub/contract-token-cryptoMonster/backend/components/PhasePrivate.sol\":1866:2111  function getApplicationAmountAdr () public onlyPrivateProvider view returns (address[] memory) {\r... */\n    tag_5:\n      tag_21\n      tag_22\n      jump\t// in\n    tag_21:\n      mload(0x40)\n      tag_23\n      swap2\n      swap1\n      tag_20\n      jump\t// in\n    tag_23:\n      mload(0x40)\n      dup1\n      swap2\n      sub\n      swap1\n      return\n        /* \"Documents/GitHub/contract-token-cryptoMonster/backend/components/PhasePrivate.sol\":297:1752  function application(string memory _name, string memory _contactForCommunication, address _userAdr) public {\r... */\n    tag_6:\n      tag_24\n      0x04\n      dup1\n      calldatasize\n      sub\n      dup2\n      add\n      swap1\n      tag_25\n      swap2\n      swap1\n      tag_26\n      jump\t// in\n    tag_25:\n      tag_27\n      jump\t// in\n    tag_24:\n      stop\n        /* \"Documents/GitHub/contract-token-cryptoMonster/backend/shared/helpers/helpresFunc.sol\":689:799  function get_blackList() public onlyOwner view returns (address[] memory) {\r... */\n    tag_7:\n      tag_28\n      tag_29\n      jump\t// in\n    tag_28:\n      mload(0x40)\n      tag_30\n      swap2\n      swap1\n      tag_20\n      jump\t// in\n    tag_30:\n      mload(0x40)\n      dup1\n      swap2\n      sub\n      swap1\n      return\n        /* \"Documents/GitHub/contract-token-cryptoMonster/backend/shared/helpers/helpresFunc.sol\":212:350  function get_keccak256(string memory _hash) public pure returns(bytes32) {\r... */\n    tag_8:\n      tag_31\n      0x04\n      dup1\n      calldatasize\n      sub\n      dup2\n      add\n      swap1\n      tag_32\n      swap2\n      swap1\n      tag_33\n      jump\t// in\n    tag_32:\n      tag_34\n      jump\t// in\n    tag_31:\n      mload(0x40)\n      tag_35\n      swap2\n      swap1\n      tag_36\n      jump\t// in\n    tag_35:\n      mload(0x40)\n      dup1\n      swap2\n      sub\n      swap1\n      return\n        /* \"Documents/GitHub/contract-token-cryptoMonster/backend/components/PhasePrivate.sol\":3895:4615  function acceptApplication (address _userAdr) public onlyPrivateProvider {\r... */\n    tag_9:\n      tag_37\n      0x04\n      dup1\n      calldatasize\n      sub\n      dup2\n      add\n      swap1\n      tag_38\n      swap2\n      swap1\n      tag_15\n      jump\t// in\n    tag_38:\n      tag_39\n      jump\t// in\n    tag_37:\n      stop\n        /* \"Documents/GitHub/contract-token-cryptoMonster/backend/shared/helpers/helpresFunc.sol\":483:611  function get_whiteList() public onlyOwnerAndPrivateProvider view returns (address[] memory) {\r... */\n    tag_10:\n      tag_40\n      tag_41\n      jump\t// in\n    tag_40:\n      mload(0x40)\n      tag_42\n      swap2\n      swap1\n      tag_20\n      jump\t// in\n    tag_42:\n      mload(0x40)\n      dup1\n      swap2\n      sub\n      swap1\n      return\n        /* \"Documents/GitHub/contract-token-cryptoMonster/backend/components/PhasePrivate.sol\":2323:2451  function pushApplicationNotReviewed (address _userAdr) external  {\r... */\n    tag_11:\n      tag_43\n      0x04\n      dup1\n      calldatasize\n      sub\n      dup2\n      add\n      swap1\n      tag_44\n      swap2\n      swap1\n      tag_15\n      jump\t// in\n    tag_44:\n      tag_45\n      jump\t// in\n    tag_43:\n      stop\n        /* \"Documents/GitHub/contract-token-cryptoMonster/backend/components/PhasePrivate.sol\":4699:5027  function deviationApplication (address _userAdr) public onlyPrivateProvider {\r... */\n    tag_16:\n        /* \"Documents/GitHub/contract-token-cryptoMonster/backend/shared/helpers/modifireFunc.sol\":567:586  Role.SYSTEM_PRIVATE */\n      0x02\n        /* \"Documents/GitHub/contract-token-cryptoMonster/backend/shared/helpers/modifireFunc.sol\":534:586  structUsers_[msg.sender].role == Role.SYSTEM_PRIVATE */\n      0x04\n      dup2\n      gt\n      iszero\n      tag_47\n      jumpi\n      tag_48\n      tag_49\n      jump\t// in\n    tag_48:\n    tag_47:\n        /* \"Documents/GitHub/contract-token-cryptoMonster/backend/shared/helpers/modifireFunc.sol\":534:546  structUsers_ */\n      0x00\n        /* \"Documents/GitHub/contract-token-cryptoMonster/backend/shared/helpers/modifireFunc.sol\":534:558  structUsers_[msg.sender] */\n      dup1\n        /* \"Documents/GitHub/contract-token-cryptoMonster/backend/shared/helpers/modifireFunc.sol\":547:557  msg.sender */\n      caller\n        /* \"Documents/GitHub/contract-token-cryptoMonster/backend/shared/helpers/modifireFunc.sol\":534:558  structUsers_[msg.sender] */\n      0xffffffffffffffffffffffffffffffffffffffff\n      and\n      0xffffffffffffffffffffffffffffffffffffffff\n      and\n      dup2\n      mstore\n      0x20\n      add\n      swap1\n      dup2\n      mstore\n      0x20\n      add\n      0x00\n      keccak256\n        /* \"Documents/GitHub/contract-token-cryptoMonster/backend/shared/helpers/modifireFunc.sol\":534:563  structUsers_[msg.sender].role */\n      0x00\n      add\n      0x00\n      swap1\n      sload\n      swap1\n      0x0100\n      exp\n      swap1\n      div\n      0xff\n      and\n        /* \"Documents/GitHub/contract-token-cryptoMonster/backend/shared/helpers/modifireFunc.sol\":534:586  structUsers_[msg.sender].role == Role.SYSTEM_PRIVATE */\n      0x04\n      dup2\n      gt\n      iszero\n      tag_50\n      jumpi\n      tag_51\n      tag_49\n      jump\t// in\n    tag_51:\n    tag_50:\n      eq\n        /* \"Documents/GitHub/contract-token-cryptoMonster/backend/shared/helpers/modifireFunc.sol\":526:616  require(structUsers_[msg.sender].role == Role.SYSTEM_PRIVATE, \"Your not Private provider\") */\n      tag_52\n      jumpi\n      mload(0x40)\n      0x08c379a000000000000000000000000000000000000000000000000000000000\n      dup2\n      mstore\n      0x04\n      add\n      tag_53\n      swap1\n      tag_54\n      jump\t// in\n    tag_53:\n      mload(0x40)\n      dup1\n      swap2\n      sub\n      swap1\n      revert\n    tag_52:\n        /* \"Documents/GitHub/contract-token-cryptoMonster/backend/components/PhasePrivate.sol\":4837:4842  false */\n      0x00\n        /* \"Documents/GitHub/contract-token-cryptoMonster/backend/components/PhasePrivate.sol\":4794:4842  strucApplications_[msg.sender].reviewed == false */\n      iszero\n      iszero\n        /* \"Documents/GitHub/contract-token-cryptoMonster/backend/components/PhasePrivate.sol\":4794:4812  strucApplications_ */\n      0x02\n        /* \"Documents/GitHub/contract-token-cryptoMonster/backend/components/PhasePrivate.sol\":4794:4824  strucApplications_[msg.sender] */\n      0x00\n        /* \"Documents/GitHub/contract-token-cryptoMonster/backend/components/PhasePrivate.sol\":4813:4823  msg.sender */\n      caller\n        /* \"Documents/GitHub/contract-token-cryptoMonster/backend/components/PhasePrivate.sol\":4794:4824  strucApplications_[msg.sender] */\n      0xffffffffffffffffffffffffffffffffffffffff\n      and\n      0xffffffffffffffffffffffffffffffffffffffff\n      and\n      dup2\n      mstore\n      0x20\n      add\n      swap1\n      dup2\n      mstore\n      0x20\n      add\n      0x00\n      keccak256\n        /* \"Documents/GitHub/contract-token-cryptoMonster/backend/components/PhasePrivate.sol\":4794:4833  strucApplications_[msg.sender].reviewed */\n      0x02\n      add\n      0x15\n      swap1\n      sload\n      swap1\n      0x0100\n      exp\n      swap1\n      div\n      0xff\n      and\n        /* \"Documents/GitHub/contract-token-cryptoMonster/backend/components/PhasePrivate.sol\":4794:4842  strucApplications_[msg.sender].reviewed == false */\n      iszero\n      iszero\n      eq\n        /* \"Documents/GitHub/contract-token-cryptoMonster/backend/components/PhasePrivate.sol\":4786:4875  require(strucApplications_[msg.sender].reviewed == false, \"Review the application first\") */\n      tag_56\n      jumpi\n      mload(0x40)\n      0x08c379a000000000000000000000000000000000000000000000000000000000\n      dup2\n      mstore\n      0x04\n      add\n      tag_57\n      swap1\n      tag_58\n      jump\t// in\n    tag_57:\n      mload(0x40)\n      dup1\n      swap2\n      sub\n      swap1\n      revert\n    tag_56:\n        /* \"Documents/GitHub/contract-token-cryptoMonster/backend/components/PhasePrivate.sol\":5014:5019  false */\n      0x00\n        /* \"Documents/GitHub/contract-token-cryptoMonster/backend/components/PhasePrivate.sol\":4976:4994  strucApplications_ */\n      0x02\n        /* \"Documents/GitHub/contract-token-cryptoMonster/backend/components/PhasePrivate.sol\":4976:5004  strucApplications_[_userAdr] */\n      0x00\n        /* \"Documents/GitHub/contract-token-cryptoMonster/backend/components/PhasePrivate.sol\":4995:5003  _userAdr */\n      dup4\n        /* \"Documents/GitHub/contract-token-cryptoMonster/backend/components/PhasePrivate.sol\":4976:5004  strucApplications_[_userAdr] */\n      0xffffffffffffffffffffffffffffffffffffffff\n      and\n      0xffffffffffffffffffffffffffffffffffffffff\n      and\n      dup2\n      mstore\n      0x20\n      add\n      swap1\n      dup2\n      mstore\n      0x20\n      add\n      0x00\n      keccak256\n        /* \"Documents/GitHub/contract-token-cryptoMonster/backend/components/PhasePrivate.sol\":4976:5011  strucApplications_[_userAdr].status */\n      0x02\n      add\n      0x14\n        /* \"Documents/GitHub/contract-token-cryptoMonster/backend/components/PhasePrivate.sol\":4976:5019  strucApplications_[_userAdr].status = false */\n      0x0100\n      exp\n      dup2\n      sload\n      dup2\n      0xff\n      mul\n      not\n      and\n      swap1\n      dup4\n      iszero\n      iszero\n      mul\n      or\n      swap1\n      sstore\n      pop\n        /* \"Documents/GitHub/contract-token-cryptoMonster/backend/components/PhasePrivate.sol\":4699:5027  function deviationApplication (address _userAdr) public onlyPrivateProvider {\r... */\n      pop\n      jump\t// out\n        /* \"Documents/GitHub/contract-token-cryptoMonster/backend/components/PhasePrivate.sol\":2596:3819  function getApplicationNotReviewed () public onlyPrivateProvider view returns (address[] memory) {\r... */\n    tag_18:\n        /* \"Documents/GitHub/contract-token-cryptoMonster/backend/components/PhasePrivate.sol\":2675:2691  address[] memory */\n      0x60\n        /* \"Documents/GitHub/contract-token-cryptoMonster/backend/shared/helpers/modifireFunc.sol\":567:586  Role.SYSTEM_PRIVATE */\n      0x02\n        /* \"Documents/GitHub/contract-token-cryptoMonster/backend/shared/helpers/modifireFunc.sol\":534:586  structUsers_[msg.sender].role == Role.SYSTEM_PRIVATE */\n      0x04\n      dup2\n      gt\n      iszero\n      tag_60\n      jumpi\n      tag_61\n      tag_49\n      jump\t// in\n    tag_61:\n    tag_60:\n        /* \"Documents/GitHub/contract-token-cryptoMonster/backend/shared/helpers/modifireFunc.sol\":534:546  structUsers_ */\n      0x00\n        /* \"Documents/GitHub/contract-token-cryptoMonster/backend/shared/helpers/modifireFunc.sol\":534:558  structUsers_[msg.sender] */\n      dup1\n        /* \"Documents/GitHub/contract-token-cryptoMonster/backend/shared/helpers/modifireFunc.sol\":547:557  msg.sender */\n      caller\n        /* \"Documents/GitHub/contract-token-cryptoMonster/backend/shared/helpers/modifireFunc.sol\":534:558  structUsers_[msg.sender] */\n      0xffffffffffffffffffffffffffffffffffffffff\n      and\n      0xffffffffffffffffffffffffffffffffffffffff\n      and\n      dup2\n      mstore\n      0x20\n      add\n      swap1\n      dup2\n      mstore\n      0x20\n      add\n      0x00\n      keccak256\n        /* \"Documents/GitHub/contract-token-cryptoMonster/backend/shared/helpers/modifireFunc.sol\":534:563  structUsers_[msg.sender].role */\n      0x00\n      add\n      0x00\n      swap1\n      sload\n      swap1\n      0x0100\n      exp\n      swap1\n      div\n      0xff\n      and\n        /* \"Documents/GitHub/contract-token-cryptoMonster/backend/shared/helpers/modifireFunc.sol\":534:586  structUsers_[msg.sender].role == Role.SYSTEM_PRIVATE */\n      0x04\n      dup2\n      gt\n      iszero\n      tag_62\n      jumpi\n      tag_63\n      tag_49\n      jump\t// in\n    tag_63:\n    tag_62:\n      eq\n        /* \"Documents/GitHub/contract-token-cryptoMonster/backend/shared/helpers/modifireFunc.sol\":526:616  require(structUsers_[msg.sender].role == Role.SYSTEM_PRIVATE, \"Your not Private provider\") */\n      tag_64\n      jumpi\n      mload(0x40)\n      0x08c379a000000000000000000000000000000000000000000000000000000000\n      dup2\n      mstore\n      0x04\n      add\n      tag_65\n      swap1\n      tag_54\n      jump\t// in\n    tag_65:\n      mload(0x40)\n      dup1\n      swap2\n      sub\n      swap1\n      revert\n    tag_64:\n        /* \"Documents/GitHub/contract-token-cryptoMonster/backend/components/PhasePrivate.sol\":2704:2735  address[] memory _tempAdrAmount */\n      0x60\n        /* \"Documents/GitHub/contract-token-cryptoMonster/backend/components/PhasePrivate.sol\":2785:2791  uint i */\n      0x00\n        /* \"Documents/GitHub/contract-token-cryptoMonster/backend/components/PhasePrivate.sol\":2780:3656  for (uint i = 0; i < structApplicationsAmountAdr.length; i++) {\r... */\n    tag_67:\n        /* \"Documents/GitHub/contract-token-cryptoMonster/backend/components/PhasePrivate.sol\":2801:2828  structApplicationsAmountAdr */\n      0x03\n        /* \"Documents/GitHub/contract-token-cryptoMonster/backend/components/PhasePrivate.sol\":2801:2835  structApplicationsAmountAdr.length */\n      dup1\n      sload\n      swap1\n      pop\n        /* \"Documents/GitHub/contract-token-cryptoMonster/backend/components/PhasePrivate.sol\":2797:2798  i */\n      dup2\n        /* \"Documents/GitHub/contract-token-cryptoMonster/backend/components/PhasePrivate.sol\":2797:2835  i < structApplicationsAmountAdr.length */\n      lt\n        /* \"Documents/GitHub/contract-token-cryptoMonster/backend/components/PhasePrivate.sol\":2780:3656  for (uint i = 0; i < structApplicationsAmountAdr.length; i++) {\r... */\n      iszero\n      tag_68\n      jumpi\n        /* \"Documents/GitHub/contract-token-cryptoMonster/backend/components/PhasePrivate.sol\":2857:2867  uint count */\n      0x00\n        /* \"Documents/GitHub/contract-token-cryptoMonster/backend/components/PhasePrivate.sol\":2982:2998  address _tempAdr */\n      dup1\n        /* \"Documents/GitHub/contract-token-cryptoMonster/backend/components/PhasePrivate.sol\":3001:3028  structApplicationsAmountAdr */\n      0x03\n        /* \"Documents/GitHub/contract-token-cryptoMonster/backend/components/PhasePrivate.sol\":3029:3030  i */\n      dup4\n        /* \"Documents/GitHub/contract-token-cryptoMonster/backend/components/PhasePrivate.sol\":3001:3031  structApplicationsAmountAdr[i] */\n      dup2\n      sload\n      dup2\n      lt\n      tag_70\n      jumpi\n      tag_71\n      tag_72\n      jump\t// in\n    tag_71:\n    tag_70:\n      swap1\n      0x00\n      mstore\n      keccak256(0x00, 0x20)\n      add\n      0x00\n      swap1\n      sload\n      swap1\n      0x0100\n      exp\n      swap1\n      div\n      0xffffffffffffffffffffffffffffffffffffffff\n      and\n        /* \"Documents/GitHub/contract-token-cryptoMonster/backend/components/PhasePrivate.sol\":2982:3031  address _tempAdr = structApplicationsAmountAdr[i] */\n      swap1\n      pop\n        /* \"Documents/GitHub/contract-token-cryptoMonster/backend/components/PhasePrivate.sol\":3193:3198  false */\n      0x00\n        /* \"Documents/GitHub/contract-token-cryptoMonster/backend/components/PhasePrivate.sol\":3152:3198  strucApplications_[_tempAdr].reviewed == false */\n      iszero\n      iszero\n        /* \"Documents/GitHub/contract-token-cryptoMonster/backend/components/PhasePrivate.sol\":3152:3170  strucApplications_ */\n      0x02\n        /* \"Documents/GitHub/contract-token-cryptoMonster/backend/components/PhasePrivate.sol\":3152:3180  strucApplications_[_tempAdr] */\n      0x00\n        /* \"Documents/GitHub/contract-token-cryptoMonster/backend/components/PhasePrivate.sol\":3171:3179  _tempAdr */\n      dup4\n        /* \"Documents/GitHub/contract-token-cryptoMonster/backend/components/PhasePrivate.sol\":3152:3180  strucApplications_[_tempAdr] */\n      0xffffffffffffffffffffffffffffffffffffffff\n      and\n      0xffffffffffffffffffffffffffffffffffffffff\n      and\n      dup2\n      mstore\n      0x20\n      add\n      swap1\n      dup2\n      mstore\n      0x20\n      add\n      0x00\n      keccak256\n        /* \"Documents/GitHub/contract-token-cryptoMonster/backend/components/PhasePrivate.sol\":3152:3189  strucApplications_[_tempAdr].reviewed */\n      0x02\n      add\n      0x15\n      swap1\n      sload\n      swap1\n      0x0100\n      exp\n      swap1\n      div\n      0xff\n      and\n        /* \"Documents/GitHub/contract-token-cryptoMonster/backend/components/PhasePrivate.sol\":3152:3198  strucApplications_[_tempAdr].reviewed == false */\n      iszero\n      iszero\n      eq\n        /* \"Documents/GitHub/contract-token-cryptoMonster/backend/components/PhasePrivate.sol\":3148:3645  if (strucApplications_[_tempAdr].reviewed == false) { // !: проверка того, что заявка ещё не была рассмотрена\r... */\n      iszero\n      tag_74\n      jumpi\n        /* \"Documents/GitHub/contract-token-cryptoMonster/backend/components/PhasePrivate.sol\":3340:3348  _tempAdr */\n      dup1\n        /* \"Documents/GitHub/contract-token-cryptoMonster/backend/components/PhasePrivate.sol\":3316:3330  _tempAdrAmount */\n      dup5\n        /* \"Documents/GitHub/contract-token-cryptoMonster/backend/components/PhasePrivate.sol\":3331:3336  count */\n      dup4\n        /* \"Documents/GitHub/contract-token-cryptoMonster/backend/components/PhasePrivate.sol\":3316:3337  _tempAdrAmount[count] */\n      dup2\n      mload\n      dup2\n      lt\n      tag_75\n      jumpi\n      tag_76\n      tag_72\n      jump\t// in\n    tag_76:\n    tag_75:\n      0x20\n      mul\n      0x20\n      add\n      add\n        /* \"Documents/GitHub/contract-token-cryptoMonster/backend/components/PhasePrivate.sol\":3316:3348  _tempAdrAmount[count] = _tempAdr */\n      swap1\n      0xffffffffffffffffffffffffffffffffffffffff\n      and\n      swap1\n      dup2\n      0xffffffffffffffffffffffffffffffffffffffff\n      and\n      dup2\n      mstore\n      pop\n      pop\n        /* \"Documents/GitHub/contract-token-cryptoMonster/backend/components/PhasePrivate.sol\":3498:3505  count++ */\n      dup2\n      dup1\n      tag_77\n      swap1\n      tag_78\n      jump\t// in\n    tag_77:\n      swap3\n      pop\n      pop\n        /* \"Documents/GitHub/contract-token-cryptoMonster/backend/components/PhasePrivate.sol\":3148:3645  if (strucApplications_[_tempAdr].reviewed == false) { // !: проверка того, что заявка ещё не была рассмотрена\r... */\n    tag_74:\n        /* \"Documents/GitHub/contract-token-cryptoMonster/backend/components/PhasePrivate.sol\":2842:3656  {\r... */\n      pop\n      pop\n        /* \"Documents/GitHub/contract-token-cryptoMonster/backend/components/PhasePrivate.sol\":2837:2840  i++ */\n      dup1\n      dup1\n      tag_79\n      swap1\n      tag_78\n      jump\t// in\n    tag_79:\n      swap2\n      pop\n      pop\n        /* \"Documents/GitHub/contract-token-cryptoMonster/backend/components/PhasePrivate.sol\":2780:3656  for (uint i = 0; i < structApplicationsAmountAdr.length; i++) {\r... */\n      jump(tag_67)\n    tag_68:\n      pop\n        /* \"Documents/GitHub/contract-token-cryptoMonster/backend/components/PhasePrivate.sol\":3673:3687  _tempAdrAmount */\n      dup1\n        /* \"Documents/GitHub/contract-token-cryptoMonster/backend/components/PhasePrivate.sol\":3666:3687  return _tempAdrAmount */\n      swap2\n      pop\n      pop\n        /* \"Documents/GitHub/contract-token-cryptoMonster/backend/components/PhasePrivate.sol\":2596:3819  function getApplicationNotReviewed () public onlyPrivateProvider view returns (address[] memory) {\r... */\n      swap1\n      jump\t// out\n        /* \"Documents/GitHub/contract-token-cryptoMonster/backend/components/PhasePrivate.sol\":1866:2111  function getApplicationAmountAdr () public onlyPrivateProvider view returns (address[] memory) {\r... */\n    tag_22:\n        /* \"Documents/GitHub/contract-token-cryptoMonster/backend/components/PhasePrivate.sol\":1943:1959  address[] memory */\n      0x60\n        /* \"Documents/GitHub/contract-token-cryptoMonster/backend/shared/helpers/modifireFunc.sol\":567:586  Role.SYSTEM_PRIVATE */\n      0x02\n        /* \"Documents/GitHub/contract-token-cryptoMonster/backend/shared/helpers/modifireFunc.sol\":534:586  structUsers_[msg.sender].role == Role.SYSTEM_PRIVATE */\n      0x04\n      dup2\n      gt\n      iszero\n      tag_81\n      jumpi\n      tag_82\n      tag_49\n      jump\t// in\n    tag_82:\n    tag_81:\n        /* \"Documents/GitHub/contract-token-cryptoMonster/backend/shared/helpers/modifireFunc.sol\":534:546  structUsers_ */\n      0x00\n        /* \"Documents/GitHub/contract-token-cryptoMonster/backend/shared/helpers/modifireFunc.sol\":534:558  structUsers_[msg.sender] */\n      dup1\n        /* \"Documents/GitHub/contract-token-cryptoMonster/backend/shared/helpers/modifireFunc.sol\":547:557  msg.sender */\n      caller\n        /* \"Documents/GitHub/contract-token-cryptoMonster/backend/shared/helpers/modifireFunc.sol\":534:558  structUsers_[msg.sender] */\n      0xffffffffffffffffffffffffffffffffffffffff\n      and\n      0xffffffffffffffffffffffffffffffffffffffff\n      and\n      dup2\n      mstore\n      0x20\n      add\n      swap1\n      dup2\n      mstore\n      0x20\n      add\n      0x00\n      keccak256\n        /* \"Documents/GitHub/contract-token-cryptoMonster/backend/shared/helpers/modifireFunc.sol\":534:563  structUsers_[msg.sender].role */\n      0x00\n      add\n      0x00\n      swap1\n      sload\n      swap1\n      0x0100\n      exp\n      swap1\n      div\n      0xff\n      and\n        /* \"Documents/GitHub/contract-token-cryptoMonster/backend/shared/helpers/modifireFunc.sol\":534:586  structUsers_[msg.sender].role == Role.SYSTEM_PRIVATE */\n      0x04\n      dup2\n      gt\n      iszero\n      tag_83\n      jumpi\n      tag_84\n      tag_49\n      jump\t// in\n    tag_84:\n    tag_83:\n      eq\n        /* \"Documents/GitHub/contract-token-cryptoMonster/backend/shared/helpers/modifireFunc.sol\":526:616  require(structUsers_[msg.sender].role == Role.SYSTEM_PRIVATE, \"Your not Private provider\") */\n      tag_85\n      jumpi\n      mload(0x40)\n      0x08c379a000000000000000000000000000000000000000000000000000000000\n      dup2\n      mstore\n      0x04\n      add\n      tag_86\n      swap1\n      tag_54\n      jump\t// in\n    tag_86:\n      mload(0x40)\n      dup1\n      swap2\n      sub\n      swap1\n      revert\n    tag_85:\n        /* \"Documents/GitHub/contract-token-cryptoMonster/backend/components/PhasePrivate.sol\":1979:2006  structApplicationsAmountAdr */\n      0x03\n        /* \"Documents/GitHub/contract-token-cryptoMonster/backend/components/PhasePrivate.sol\":1972:2006  return structApplicationsAmountAdr */\n      dup1\n      sload\n      dup1\n      0x20\n      mul\n      0x20\n      add\n      mload(0x40)\n      swap1\n      dup2\n      add\n      0x40\n      mstore\n      dup1\n      swap3\n      swap2\n      swap1\n      dup2\n      dup2\n      mstore\n      0x20\n      add\n      dup3\n      dup1\n      sload\n      dup1\n      iszero\n      tag_88\n      jumpi\n      0x20\n      mul\n      dup3\n      add\n      swap2\n      swap1\n      0x00\n      mstore\n      keccak256(0x00, 0x20)\n      swap1\n    tag_89:\n      dup2\n      0x00\n      swap1\n      sload\n      swap1\n      0x0100\n      exp\n      swap1\n      div\n      0xffffffffffffffffffffffffffffffffffffffff\n      and\n      0xffffffffffffffffffffffffffffffffffffffff\n      and\n      dup2\n      mstore\n      0x20\n      add\n      swap1\n      0x01\n      add\n      swap1\n      dup1\n      dup4\n      gt\n      tag_89\n      jumpi\n    tag_88:\n      pop\n      pop\n      pop\n      pop\n      pop\n      swap1\n      pop\n        /* \"Documents/GitHub/contract-token-cryptoMonster/backend/components/PhasePrivate.sol\":1866:2111  function getApplicationAmountAdr () public onlyPrivateProvider view returns (address[] memory) {\r... */\n      swap1\n      jump\t// out\n        /* \"Documents/GitHub/contract-token-cryptoMonster/backend/components/PhasePrivate.sol\":297:1752  function application(string memory _name, string memory _contactForCommunication, address _userAdr) public {\r... */\n    tag_27:\n        /* \"Documents/GitHub/contract-token-cryptoMonster/backend/components/PhasePrivate.sol\":415:430  bool _tempExist */\n      0x00\n        /* \"Documents/GitHub/contract-token-cryptoMonster/backend/components/PhasePrivate.sol\":530:535  false */\n      dup1\n        /* \"Documents/GitHub/contract-token-cryptoMonster/backend/components/PhasePrivate.sol\":457:535  structPhases_[0xAb8483F64d9C6d1EcF9b849Ae677dD3315835cb2].statusPhase == false */\n      iszero\n      iszero\n        /* \"Documents/GitHub/contract-token-cryptoMonster/backend/components/PhasePrivate.sol\":457:470  structPhases_ */\n      0x01\n        /* \"Documents/GitHub/contract-token-cryptoMonster/backend/components/PhasePrivate.sol\":457:514  structPhases_[0xAb8483F64d9C6d1EcF9b849Ae677dD3315835cb2] */\n      0x00\n        /* \"Documents/GitHub/contract-token-cryptoMonster/backend/components/PhasePrivate.sol\":471:513  0xAb8483F64d9C6d1EcF9b849Ae677dD3315835cb2 */\n      0xab8483f64d9c6d1ecf9b849ae677dd3315835cb2\n        /* \"Documents/GitHub/contract-token-cryptoMonster/backend/components/PhasePrivate.sol\":457:514  structPhases_[0xAb8483F64d9C6d1EcF9b849Ae677dD3315835cb2] */\n      0xffffffffffffffffffffffffffffffffffffffff\n      and\n      0xffffffffffffffffffffffffffffffffffffffff\n      and\n      dup2\n      mstore\n      0x20\n      add\n      swap1\n      dup2\n      mstore\n      0x20\n      add\n      0x00\n      keccak256\n        /* \"Documents/GitHub/contract-token-cryptoMonster/backend/components/PhasePrivate.sol\":457:526  structPhases_[0xAb8483F64d9C6d1EcF9b849Ae677dD3315835cb2].statusPhase */\n      0x00\n      add\n      0x00\n      swap1\n      sload\n      swap1\n      0x0100\n      exp\n      swap1\n      div\n      0xff\n      and\n        /* \"Documents/GitHub/contract-token-cryptoMonster/backend/components/PhasePrivate.sol\":457:535  structPhases_[0xAb8483F64d9C6d1EcF9b849Ae677dD3315835cb2].statusPhase == false */\n      iszero\n      iszero\n      eq\n        /* \"Documents/GitHub/contract-token-cryptoMonster/backend/components/PhasePrivate.sol\":457:617  structPhases_[0xAb8483F64d9C6d1EcF9b849Ae677dD3315835cb2].statusPhase == false && structPhases_[0xAb8483F64d9C6d1EcF9b849Ae677dD3315835cb2].statusPhase == false */\n      dup1\n      iszero\n      tag_91\n      jumpi\n      pop\n        /* \"Documents/GitHub/contract-token-cryptoMonster/backend/components/PhasePrivate.sol\":612:617  false */\n      0x00\n        /* \"Documents/GitHub/contract-token-cryptoMonster/backend/components/PhasePrivate.sol\":539:617  structPhases_[0xAb8483F64d9C6d1EcF9b849Ae677dD3315835cb2].statusPhase == false */\n      iszero\n      iszero\n        /* \"Documents/GitHub/contract-token-cryptoMonster/backend/components/PhasePrivate.sol\":539:552  structPhases_ */\n      0x01\n        /* \"Documents/GitHub/contract-token-cryptoMonster/backend/components/PhasePrivate.sol\":539:596  structPhases_[0xAb8483F64d9C6d1EcF9b849Ae677dD3315835cb2] */\n      0x00\n        /* \"Documents/GitHub/contract-token-cryptoMonster/backend/components/PhasePrivate.sol\":553:595  0xAb8483F64d9C6d1EcF9b849Ae677dD3315835cb2 */\n      0xab8483f64d9c6d1ecf9b849ae677dd3315835cb2\n        /* \"Documents/GitHub/contract-token-cryptoMonster/backend/components/PhasePrivate.sol\":539:596  structPhases_[0xAb8483F64d9C6d1EcF9b849Ae677dD3315835cb2] */\n      0xffffffffffffffffffffffffffffffffffffffff\n      and\n      0xffffffffffffffffffffffffffffffffffffffff\n      and\n      dup2\n      mstore\n      0x20\n      add\n      swap1\n      dup2\n      mstore\n      0x20\n      add\n      0x00\n      keccak256\n        /* \"Documents/GitHub/contract-token-cryptoMonster/backend/components/PhasePrivate.sol\":539:608  structPhases_[0xAb8483F64d9C6d1EcF9b849Ae677dD3315835cb2].statusPhase */\n      0x00\n      add\n      0x00\n      swap1\n      sload\n      swap1\n      0x0100\n      exp\n      swap1\n      div\n      0xff\n      and\n        /* \"Documents/GitHub/contract-token-cryptoMonster/backend/components/PhasePrivate.sol\":539:617  structPhases_[0xAb8483F64d9C6d1EcF9b849Ae677dD3315835cb2].statusPhase == false */\n      iszero\n      iszero\n      eq\n        /* \"Documents/GitHub/contract-token-cryptoMonster/backend/components/PhasePrivate.sol\":457:617  structPhases_[0xAb8483F64d9C6d1EcF9b849Ae677dD3315835cb2].statusPhase == false && structPhases_[0xAb8483F64d9C6d1EcF9b849Ae677dD3315835cb2].statusPhase == false */\n    tag_91:\n        /* \"Documents/GitHub/contract-token-cryptoMonster/backend/components/PhasePrivate.sol\":449:645  require(structPhases_[0xAb8483F64d9C6d1EcF9b849Ae677dD3315835cb2].statusPhase == false && structPhases_[0xAb8483F64d9C6d1EcF9b849Ae677dD3315835cb2].statusPhase == false, \"Application phase ended\") */\n      tag_92\n      jumpi\n      mload(0x40)\n      0x08c379a000000000000000000000000000000000000000000000000000000000\n      dup2\n      mstore\n      0x04\n      add\n      tag_93\n      swap1\n      tag_94\n      jump\t// in\n    tag_93:\n      mload(0x40)\n      dup1\n      swap2\n      sub\n      swap1\n      revert\n    tag_92:\n        /* \"Documents/GitHub/contract-token-cryptoMonster/backend/components/PhasePrivate.sol\":783:791  _userAdr */\n      dup2\n        /* \"Documents/GitHub/contract-token-cryptoMonster/backend/components/PhasePrivate.sol\":769:791  msg.sender == _userAdr */\n      0xffffffffffffffffffffffffffffffffffffffff\n      and\n        /* \"Documents/GitHub/contract-token-cryptoMonster/backend/components/PhasePrivate.sol\":769:779  msg.sender */\n      caller\n        /* \"Documents/GitHub/contract-token-cryptoMonster/backend/components/PhasePrivate.sol\":769:791  msg.sender == _userAdr */\n      0xffffffffffffffffffffffffffffffffffffffff\n      and\n      eq\n        /* \"Documents/GitHub/contract-token-cryptoMonster/backend/components/PhasePrivate.sol\":761:851  require(msg.sender == _userAdr, \"You can't send an application to someone else's address\") */\n      tag_95\n      jumpi\n      mload(0x40)\n      0x08c379a000000000000000000000000000000000000000000000000000000000\n      dup2\n      mstore\n      0x04\n      add\n      tag_96\n      swap1\n      tag_97\n      jump\t// in\n    tag_96:\n      mload(0x40)\n      dup1\n      swap2\n      sub\n      swap1\n      revert\n    tag_95:\n        /* \"Documents/GitHub/contract-token-cryptoMonster/backend/components/PhasePrivate.sol\":867:873  uint i */\n      0x00\n        /* \"Documents/GitHub/contract-token-cryptoMonster/backend/components/PhasePrivate.sol\":862:1191  for (uint i = 0; i < structApplicationsAmountAdr.length; i++) {\r... */\n    tag_98:\n        /* \"Documents/GitHub/contract-token-cryptoMonster/backend/components/PhasePrivate.sol\":883:910  structApplicationsAmountAdr */\n      0x03\n        /* \"Documents/GitHub/contract-token-cryptoMonster/backend/components/PhasePrivate.sol\":883:917  structApplicationsAmountAdr.length */\n      dup1\n      sload\n      swap1\n      pop\n        /* \"Documents/GitHub/contract-token-cryptoMonster/backend/components/PhasePrivate.sol\":879:880  i */\n      dup2\n        /* \"Documents/GitHub/contract-token-cryptoMonster/backend/components/PhasePrivate.sol\":879:917  i < structApplicationsAmountAdr.length */\n      lt\n        /* \"Documents/GitHub/contract-token-cryptoMonster/backend/components/PhasePrivate.sol\":862:1191  for (uint i = 0; i < structApplicationsAmountAdr.length; i++) {\r... */\n      iszero\n      tag_99\n      jumpi\n        /* \"Documents/GitHub/contract-token-cryptoMonster/backend/components/PhasePrivate.sol\":977:987  msg.sender */\n      caller\n        /* \"Documents/GitHub/contract-token-cryptoMonster/backend/components/PhasePrivate.sol\":943:987  structApplicationsAmountAdr[i] == msg.sender */\n      0xffffffffffffffffffffffffffffffffffffffff\n      and\n        /* \"Documents/GitHub/contract-token-cryptoMonster/backend/components/PhasePrivate.sol\":943:970  structApplicationsAmountAdr */\n      0x03\n        /* \"Documents/GitHub/contract-token-cryptoMonster/backend/components/PhasePrivate.sol\":971:972  i */\n      dup3\n        /* \"Documents/GitHub/contract-token-cryptoMonster/backend/components/PhasePrivate.sol\":943:973  structApplicationsAmountAdr[i] */\n      dup2\n      sload\n      dup2\n      lt\n      tag_101\n      jumpi\n      tag_102\n      tag_72\n      jump\t// in\n    tag_102:\n    tag_101:\n      swap1\n      0x00\n      mstore\n      keccak256(0x00, 0x20)\n      add\n      0x00\n      swap1\n      sload\n      swap1\n      0x0100\n      exp\n      swap1\n      div\n      0xffffffffffffffffffffffffffffffffffffffff\n      and\n        /* \"Documents/GitHub/contract-token-cryptoMonster/backend/components/PhasePrivate.sol\":943:987  structApplicationsAmountAdr[i] == msg.sender */\n      0xffffffffffffffffffffffffffffffffffffffff\n      and\n      eq\n        /* \"Documents/GitHub/contract-token-cryptoMonster/backend/components/PhasePrivate.sol\":939:1041  if (structApplicationsAmountAdr[i] == msg.sender) {\r... */\n      iszero\n      tag_104\n      jumpi\n        /* \"Documents/GitHub/contract-token-cryptoMonster/backend/components/PhasePrivate.sol\":1021:1025  true */\n      0x01\n        /* \"Documents/GitHub/contract-token-cryptoMonster/backend/components/PhasePrivate.sol\":1008:1025  _tempExist = true */\n      swap2\n      pop\n        /* \"Documents/GitHub/contract-token-cryptoMonster/backend/components/PhasePrivate.sol\":939:1041  if (structApplicationsAmountAdr[i] == msg.sender) {\r... */\n    tag_104:\n        /* \"Documents/GitHub/contract-token-cryptoMonster/backend/components/PhasePrivate.sol\":1077:1082  false */\n      0x00\n        /* \"Documents/GitHub/contract-token-cryptoMonster/backend/components/PhasePrivate.sol\":1063:1082  _tempExist == false */\n      iszero\n      iszero\n        /* \"Documents/GitHub/contract-token-cryptoMonster/backend/components/PhasePrivate.sol\":1063:1073  _tempExist */\n      dup3\n        /* \"Documents/GitHub/contract-token-cryptoMonster/backend/components/PhasePrivate.sol\":1063:1082  _tempExist == false */\n      iszero\n      iszero\n      eq\n        /* \"Documents/GitHub/contract-token-cryptoMonster/backend/components/PhasePrivate.sol\":1055:1111  require(_tempExist == false, \"Application already sent\") */\n      tag_105\n      jumpi\n      mload(0x40)\n      0x08c379a000000000000000000000000000000000000000000000000000000000\n      dup2\n      mstore\n      0x04\n      add\n      tag_106\n      swap1\n      tag_107\n      jump\t// in\n    tag_106:\n      mload(0x40)\n      dup1\n      swap2\n      sub\n      swap1\n      revert\n    tag_105:\n        /* \"Documents/GitHub/contract-token-cryptoMonster/backend/components/PhasePrivate.sol\":919:922  i++ */\n      dup1\n      dup1\n      tag_108\n      swap1\n      tag_78\n      jump\t// in\n    tag_108:\n      swap2\n      pop\n      pop\n        /* \"Documents/GitHub/contract-token-cryptoMonster/backend/components/PhasePrivate.sol\":862:1191  for (uint i = 0; i < structApplicationsAmountAdr.length; i++) {\r... */\n      jump(tag_98)\n    tag_99:\n      pop\n        /* \"Documents/GitHub/contract-token-cryptoMonster/backend/components/PhasePrivate.sol\":1250:1255  false */\n      0x00\n        /* \"Documents/GitHub/contract-token-cryptoMonster/backend/components/PhasePrivate.sol\":1209:1255  strucApplications_[msg.sender].status == false */\n      iszero\n      iszero\n        /* \"Documents/GitHub/contract-token-cryptoMonster/backend/components/PhasePrivate.sol\":1209:1227  strucApplications_ */\n      0x02\n        /* \"Documents/GitHub/contract-token-cryptoMonster/backend/components/PhasePrivate.sol\":1209:1239  strucApplications_[msg.sender] */\n      0x00\n        /* \"Documents/GitHub/contract-token-cryptoMonster/backend/components/PhasePrivate.sol\":1228:1238  msg.sender */\n      caller\n        /* \"Documents/GitHub/contract-token-cryptoMonster/backend/components/PhasePrivate.sol\":1209:1239  strucApplications_[msg.sender] */\n      0xffffffffffffffffffffffffffffffffffffffff\n      and\n      0xffffffffffffffffffffffffffffffffffffffff\n      and\n      dup2\n      mstore\n      0x20\n      add\n      swap1\n      dup2\n      mstore\n      0x20\n      add\n      0x00\n      keccak256\n        /* \"Documents/GitHub/contract-token-cryptoMonster/backend/components/PhasePrivate.sol\":1209:1246  strucApplications_[msg.sender].status */\n      0x02\n      add\n      0x14\n      swap1\n      sload\n      swap1\n      0x0100\n      exp\n      swap1\n      div\n      0xff\n      and\n        /* \"Documents/GitHub/contract-token-cryptoMonster/backend/components/PhasePrivate.sol\":1209:1255  strucApplications_[msg.sender].status == false */\n      iszero\n      iszero\n      eq\n        /* \"Documents/GitHub/contract-token-cryptoMonster/backend/components/PhasePrivate.sol\":1201:1302  require(strucApplications_[msg.sender].status == false, \"Your application has already been rejected\") */\n      tag_109\n      jumpi\n      mload(0x40)\n      0x08c379a000000000000000000000000000000000000000000000000000000000\n      dup2\n      mstore\n      0x04\n      add\n      tag_110\n      swap1\n      tag_111\n      jump\t// in\n    tag_110:\n      mload(0x40)\n      dup1\n      swap2\n      sub\n      swap1\n      revert\n    tag_109:\n        /* \"Documents/GitHub/contract-token-cryptoMonster/backend/components/PhasePrivate.sol\":1419:1498  structApplication(_name, _contactForCommunication, _userAdr, true, false, true) */\n      mload(0x40)\n      dup1\n      0xc0\n      add\n      0x40\n      mstore\n      dup1\n        /* \"Documents/GitHub/contract-token-cryptoMonster/backend/components/PhasePrivate.sol\":1437:1442  _name */\n      dup6\n        /* \"Documents/GitHub/contract-token-cryptoMonster/backend/components/PhasePrivate.sol\":1419:1498  structApplication(_name, _contactForCommunication, _userAdr, true, false, true) */\n      dup2\n      mstore\n      0x20\n      add\n        /* \"Documents/GitHub/contract-token-cryptoMonster/backend/components/PhasePrivate.sol\":1444:1468  _contactForCommunication */\n      dup5\n        /* \"Documents/GitHub/contract-token-cryptoMonster/backend/components/PhasePrivate.sol\":1419:1498  structApplication(_name, _contactForCommunication, _userAdr, true, false, true) */\n      dup2\n      mstore\n      0x20\n      add\n        /* \"Documents/GitHub/contract-token-cryptoMonster/backend/components/PhasePrivate.sol\":1470:1478  _userAdr */\n      dup4\n        /* \"Documents/GitHub/contract-token-cryptoMonster/backend/components/PhasePrivate.sol\":1419:1498  structApplication(_name, _contactForCommunication, _userAdr, true, false, true) */\n      0xffffffffffffffffffffffffffffffffffffffff\n      and\n      dup2\n      mstore\n      0x20\n      add\n        /* \"Documents/GitHub/contract-token-cryptoMonster/backend/components/PhasePrivate.sol\":1480:1484  true */\n      0x01\n        /* \"Documents/GitHub/contract-token-cryptoMonster/backend/components/PhasePrivate.sol\":1419:1498  structApplication(_name, _contactForCommunication, _userAdr, true, false, true) */\n      iszero\n      iszero\n      dup2\n      mstore\n      0x20\n      add\n        /* \"Documents/GitHub/contract-token-cryptoMonster/backend/components/PhasePrivate.sol\":1486:1491  false */\n      0x00\n        /* \"Documents/GitHub/contract-token-cryptoMonster/backend/components/PhasePrivate.sol\":1419:1498  structApplication(_name, _contactForCommunication, _userAdr, true, false, true) */\n      iszero\n      iszero\n      dup2\n      mstore\n      0x20\n      add\n        /* \"Documents/GitHub/contract-token-cryptoMonster/backend/components/PhasePrivate.sol\":1493:1497  true */\n      0x01\n        /* \"Documents/GitHub/contract-token-cryptoMonster/backend/components/PhasePrivate.sol\":1419:1498  structApplication(_name, _contactForCommunication, _userAdr, true, false, true) */\n      iszero\n      iszero\n      dup2\n      mstore\n      pop\n        /* \"Documents/GitHub/contract-token-cryptoMonster/backend/components/PhasePrivate.sol\":1385:1403  strucApplications_ */\n      0x02\n        /* \"Documents/GitHub/contract-token-cryptoMonster/backend/components/PhasePrivate.sol\":1385:1415  strucApplications_[msg.sender] */\n      0x00\n        /* \"Documents/GitHub/contract-token-cryptoMonster/backend/components/PhasePrivate.sol\":1404:1414  msg.sender */\n      caller\n        /* \"Documents/GitHub/contract-token-cryptoMonster/backend/components/PhasePrivate.sol\":1385:1415  strucApplications_[msg.sender] */\n      0xffffffffffffffffffffffffffffffffffffffff\n      and\n      0xffffffffffffffffffffffffffffffffffffffff\n      and\n      dup2\n      mstore\n      0x20\n      add\n      swap1\n      dup2\n      mstore\n      0x20\n      add\n      0x00\n      keccak256\n        /* \"Documents/GitHub/contract-token-cryptoMonster/backend/components/PhasePrivate.sol\":1385:1498  strucApplications_[msg.sender]  = structApplication(_name, _contactForCommunication, _userAdr, true, false, true) */\n      0x00\n      dup3\n      add\n      mload\n      dup2\n      0x00\n      add\n      swap1\n      dup1\n      mload\n      swap1\n      0x20\n      add\n      swap1\n      tag_112\n      swap3\n      swap2\n      swap1\n      tag_113\n      jump\t// in\n    tag_112:\n      pop\n      0x20\n      dup3\n      add\n      mload\n      dup2\n      0x01\n      add\n      swap1\n      dup1\n      mload\n      swap1\n      0x20\n      add\n      swap1\n      tag_114\n      swap3\n      swap2\n      swap1\n      tag_113\n      jump\t// in\n    tag_114:\n      pop\n      0x40\n      dup3\n      add\n      mload\n      dup2\n      0x02\n      add\n      exp(0x0100, 0x00)\n      dup2\n      sload\n      dup2\n      0xffffffffffffffffffffffffffffffffffffffff\n      mul\n      not\n      and\n      swap1\n      dup4\n      0xffffffffffffffffffffffffffffffffffffffff\n      and\n      mul\n      or\n      swap1\n      sstore\n      pop\n      0x60\n      dup3\n      add\n      mload\n      dup2\n      0x02\n      add\n      exp(0x0100, 0x14)\n      dup2\n      sload\n      dup2\n      0xff\n      mul\n      not\n      and\n      swap1\n      dup4\n      iszero\n      iszero\n      mul\n      or\n      swap1\n      sstore\n      pop\n      0x80\n      dup3\n      add\n      mload\n      dup2\n      0x02\n      add\n      exp(0x0100, 0x15)\n      dup2\n      sload\n      dup2\n      0xff\n      mul\n      not\n      and\n      swap1\n      dup4\n      iszero\n      iszero\n      mul\n      or\n      swap1\n      sstore\n      pop\n      0xa0\n      dup3\n      add\n      mload\n      dup2\n      0x02\n      add\n      exp(0x0100, 0x16)\n      dup2\n      sload\n      dup2\n      0xff\n      mul\n      not\n      and\n      swap1\n      dup4\n      iszero\n      iszero\n      mul\n      or\n      swap1\n      sstore\n      pop\n      swap1\n      pop\n      pop\n        /* \"Documents/GitHub/contract-token-cryptoMonster/backend/components/PhasePrivate.sol\":1567:1594  structApplicationsAmountAdr */\n      0x03\n        /* \"Documents/GitHub/contract-token-cryptoMonster/backend/components/PhasePrivate.sol\":1600:1610  msg.sender */\n      caller\n        /* \"Documents/GitHub/contract-token-cryptoMonster/backend/components/PhasePrivate.sol\":1567:1611  structApplicationsAmountAdr.push(msg.sender) */\n      swap1\n      dup1\n      0x01\n      dup2\n      sload\n      add\n      dup1\n      dup3\n      sstore\n      dup1\n      swap2\n      pop\n      pop\n      0x01\n      swap1\n      sub\n      swap1\n      0x00\n      mstore\n      keccak256(0x00, 0x20)\n      add\n      0x00\n      swap1\n      swap2\n      swap1\n      swap2\n      swap1\n      swap2\n      0x0100\n      exp\n      dup2\n      sload\n      dup2\n      0xffffffffffffffffffffffffffffffffffffffff\n      mul\n      not\n      and\n      swap1\n      dup4\n      0xffffffffffffffffffffffffffffffffffffffff\n      and\n      mul\n      or\n      swap1\n      sstore\n      pop\n        /* \"Documents/GitHub/contract-token-cryptoMonster/backend/components/PhasePrivate.sol\":404:1752  {\r... */\n      pop\n        /* \"Documents/GitHub/contract-token-cryptoMonster/backend/components/PhasePrivate.sol\":297:1752  function application(string memory _name, string memory _contactForCommunication, address _userAdr) public {\r... */\n      pop\n      pop\n      pop\n      jump\t// out\n        /* \"Documents/GitHub/contract-token-cryptoMonster/backend/shared/helpers/helpresFunc.sol\":689:799  function get_blackList() public onlyOwner view returns (address[] memory) {\r... */\n    tag_29:\n        /* \"Documents/GitHub/contract-token-cryptoMonster/backend/shared/helpers/helpresFunc.sol\":745:761  address[] memory */\n      0x60\n        /* \"Documents/GitHub/contract-token-cryptoMonster/backend/shared/helpers/modifireFunc.sol\":320:337  Role.SYSTEM_OWNER */\n      0x00\n        /* \"Documents/GitHub/contract-token-cryptoMonster/backend/shared/helpers/modifireFunc.sol\":287:337  structUsers_[msg.sender].role == Role.SYSTEM_OWNER */\n      0x04\n      dup2\n      gt\n      iszero\n      tag_117\n      jumpi\n      tag_118\n      tag_49\n      jump\t// in\n    tag_118:\n    tag_117:\n        /* \"Documents/GitHub/contract-token-cryptoMonster/backend/shared/helpers/modifireFunc.sol\":287:299  structUsers_ */\n      0x00\n        /* \"Documents/GitHub/contract-token-cryptoMonster/backend/shared/helpers/modifireFunc.sol\":287:311  structUsers_[msg.sender] */\n      dup1\n        /* \"Documents/GitHub/contract-token-cryptoMonster/backend/shared/helpers/modifireFunc.sol\":300:310  msg.sender */\n      caller\n        /* \"Documents/GitHub/contract-token-cryptoMonster/backend/shared/helpers/modifireFunc.sol\":287:311  structUsers_[msg.sender] */\n      0xffffffffffffffffffffffffffffffffffffffff\n      and\n      0xffffffffffffffffffffffffffffffffffffffff\n      and\n      dup2\n      mstore\n      0x20\n      add\n      swap1\n      dup2\n      mstore\n      0x20\n      add\n      0x00\n      keccak256\n        /* \"Documents/GitHub/contract-token-cryptoMonster/backend/shared/helpers/modifireFunc.sol\":287:316  structUsers_[msg.sender].role */\n      0x00\n      add\n      0x00\n      swap1\n      sload\n      swap1\n      0x0100\n      exp\n      swap1\n      div\n      0xff\n      and\n        /* \"Documents/GitHub/contract-token-cryptoMonster/backend/shared/helpers/modifireFunc.sol\":287:337  structUsers_[msg.sender].role == Role.SYSTEM_OWNER */\n      0x04\n      dup2\n      gt\n      iszero\n      tag_119\n      jumpi\n      tag_120\n      tag_49\n      jump\t// in\n    tag_120:\n    tag_119:\n      eq\n        /* \"Documents/GitHub/contract-token-cryptoMonster/backend/shared/helpers/modifireFunc.sol\":279:356  require(structUsers_[msg.sender].role == Role.SYSTEM_OWNER, \"Your not admin\") */\n      tag_121\n      jumpi\n      mload(0x40)\n      0x08c379a000000000000000000000000000000000000000000000000000000000\n      dup2\n      mstore\n      0x04\n      add\n      tag_122\n      swap1\n      tag_123\n      jump\t// in\n    tag_122:\n      mload(0x40)\n      dup1\n      swap2\n      sub\n      swap1\n      revert\n    tag_121:\n        /* \"Documents/GitHub/contract-token-cryptoMonster/backend/shared/helpers/helpresFunc.sol\":781:790  blackList */\n      0x05\n        /* \"Documents/GitHub/contract-token-cryptoMonster/backend/shared/helpers/helpresFunc.sol\":774:791  return(blackList) */\n      dup1\n      sload\n      dup1\n      0x20\n      mul\n      0x20\n      add\n      mload(0x40)\n      swap1\n      dup2\n      add\n      0x40\n      mstore\n      dup1\n      swap3\n      swap2\n      swap1\n      dup2\n      dup2\n      mstore\n      0x20\n      add\n      dup3\n      dup1\n      sload\n      dup1\n      iszero\n      tag_125\n      jumpi\n      0x20\n      mul\n      dup3\n      add\n      swap2\n      swap1\n      0x00\n      mstore\n      keccak256(0x00, 0x20)\n      swap1\n    tag_126:\n      dup2\n      0x00\n      swap1\n      sload\n      swap1\n      0x0100\n      exp\n      swap1\n      div\n      0xffffffffffffffffffffffffffffffffffffffff\n      and\n      0xffffffffffffffffffffffffffffffffffffffff\n      and\n      dup2\n      mstore\n      0x20\n      add\n      swap1\n      0x01\n      add\n      swap1\n      dup1\n      dup4\n      gt\n      tag_126\n      jumpi\n    tag_125:\n      pop\n      pop\n      pop\n      pop\n      pop\n      swap1\n      pop\n        /* \"Documents/GitHub/contract-token-cryptoMonster/backend/shared/helpers/helpresFunc.sol\":689:799  function get_blackList() public onlyOwner view returns (address[] memory) {\r... */\n      swap1\n      jump\t// out\n        /* \"Documents/GitHub/contract-token-cryptoMonster/backend/shared/helpers/helpresFunc.sol\":212:350  function get_keccak256(string memory _hash) public pure returns(bytes32) {\r... */\n    tag_34:\n        /* \"Documents/GitHub/contract-token-cryptoMonster/backend/shared/helpers/helpresFunc.sol\":276:283  bytes32 */\n      0x00\n        /* \"Documents/GitHub/contract-token-cryptoMonster/backend/shared/helpers/helpresFunc.sol\":334:339  _hash */\n      dup2\n        /* \"Documents/GitHub/contract-token-cryptoMonster/backend/shared/helpers/helpresFunc.sol\":317:340  abi.encodePacked(_hash) */\n      add(0x20, mload(0x40))\n      tag_128\n      swap2\n      swap1\n      tag_129\n      jump\t// in\n    tag_128:\n      mload(0x40)\n      0x20\n      dup2\n      dup4\n      sub\n      sub\n      dup2\n      mstore\n      swap1\n      0x40\n      mstore\n        /* \"Documents/GitHub/contract-token-cryptoMonster/backend/shared/helpers/helpresFunc.sol\":307:341  keccak256(abi.encodePacked(_hash)) */\n      dup1\n      mload\n      swap1\n      0x20\n      add\n      keccak256\n        /* \"Documents/GitHub/contract-token-cryptoMonster/backend/shared/helpers/helpresFunc.sol\":300:342  return(keccak256(abi.encodePacked(_hash))) */\n      swap1\n      pop\n        /* \"Documents/GitHub/contract-token-cryptoMonster/backend/shared/helpers/helpresFunc.sol\":212:350  function get_keccak256(string memory _hash) public pure returns(bytes32) {\r... */\n      swap2\n      swap1\n      pop\n      jump\t// out\n        /* \"Documents/GitHub/contract-token-cryptoMonster/backend/components/PhasePrivate.sol\":3895:4615  function acceptApplication (address _userAdr) public onlyPrivateProvider {\r... */\n    tag_39:\n        /* \"Documents/GitHub/contract-token-cryptoMonster/backend/shared/helpers/modifireFunc.sol\":567:586  Role.SYSTEM_PRIVATE */\n      0x02\n        /* \"Documents/GitHub/contract-token-cryptoMonster/backend/shared/helpers/modifireFunc.sol\":534:586  structUsers_[msg.sender].role == Role.SYSTEM_PRIVATE */\n      0x04\n      dup2\n      gt\n      iszero\n      tag_131\n      jumpi\n      tag_132\n      tag_49\n      jump\t// in\n    tag_132:\n    tag_131:\n        /* \"Documents/GitHub/contract-token-cryptoMonster/backend/shared/helpers/modifireFunc.sol\":534:546  structUsers_ */\n      0x00\n        /* \"Documents/GitHub/contract-token-cryptoMonster/backend/shared/helpers/modifireFunc.sol\":534:558  structUsers_[msg.sender] */\n      dup1\n        /* \"Documents/GitHub/contract-token-cryptoMonster/backend/shared/helpers/modifireFunc.sol\":547:557  msg.sender */\n      caller\n        /* \"Documents/GitHub/contract-token-cryptoMonster/backend/shared/helpers/modifireFunc.sol\":534:558  structUsers_[msg.sender] */\n      0xffffffffffffffffffffffffffffffffffffffff\n      and\n      0xffffffffffffffffffffffffffffffffffffffff\n      and\n      dup2\n      mstore\n      0x20\n      add\n      swap1\n      dup2\n      mstore\n      0x20\n      add\n      0x00\n      keccak256\n        /* \"Documents/GitHub/contract-token-cryptoMonster/backend/shared/helpers/modifireFunc.sol\":534:563  structUsers_[msg.sender].role */\n      0x00\n      add\n      0x00\n      swap1\n      sload\n      swap1\n      0x0100\n      exp\n      swap1\n      div\n      0xff\n      and\n        /* \"Documents/GitHub/contract-token-cryptoMonster/backend/shared/helpers/modifireFunc.sol\":534:586  structUsers_[msg.sender].role == Role.SYSTEM_PRIVATE */\n      0x04\n      dup2\n      gt\n      iszero\n      tag_133\n      jumpi\n      tag_134\n      tag_49\n      jump\t// in\n    tag_134:\n    tag_133:\n      eq\n        /* \"Documents/GitHub/contract-token-cryptoMonster/backend/shared/helpers/modifireFunc.sol\":526:616  require(structUsers_[msg.sender].role == Role.SYSTEM_PRIVATE, \"Your not Private provider\") */\n      tag_135\n      jumpi\n      mload(0x40)\n      0x08c379a000000000000000000000000000000000000000000000000000000000\n      dup2\n      mstore\n      0x04\n      add\n      tag_136\n      swap1\n      tag_54\n      jump\t// in\n    tag_136:\n      mload(0x40)\n      dup1\n      swap2\n      sub\n      swap1\n      revert\n    tag_135:\n        /* \"Documents/GitHub/contract-token-cryptoMonster/backend/components/PhasePrivate.sol\":4030:4035  false */\n      0x00\n        /* \"Documents/GitHub/contract-token-cryptoMonster/backend/components/PhasePrivate.sol\":3987:4035  strucApplications_[msg.sender].reviewed == false */\n      iszero\n      iszero\n        /* \"Documents/GitHub/contract-token-cryptoMonster/backend/components/PhasePrivate.sol\":3987:4005  strucApplications_ */\n      0x02\n        /* \"Documents/GitHub/contract-token-cryptoMonster/backend/components/PhasePrivate.sol\":3987:4017  strucApplications_[msg.sender] */\n      0x00\n        /* \"Documents/GitHub/contract-token-cryptoMonster/backend/components/PhasePrivate.sol\":4006:4016  msg.sender */\n      caller\n        /* \"Documents/GitHub/contract-token-cryptoMonster/backend/components/PhasePrivate.sol\":3987:4017  strucApplications_[msg.sender] */\n      0xffffffffffffffffffffffffffffffffffffffff\n      and\n      0xffffffffffffffffffffffffffffffffffffffff\n      and\n      dup2\n      mstore\n      0x20\n      add\n      swap1\n      dup2\n      mstore\n      0x20\n      add\n      0x00\n      keccak256\n        /* \"Documents/GitHub/contract-token-cryptoMonster/backend/components/PhasePrivate.sol\":3987:4026  strucApplications_[msg.sender].reviewed */\n      0x02\n      add\n      0x15\n      swap1\n      sload\n      swap1\n      0x0100\n      exp\n      swap1\n      div\n      0xff\n      and\n        /* \"Documents/GitHub/contract-token-cryptoMonster/backend/components/PhasePrivate.sol\":3987:4035  strucApplications_[msg.sender].reviewed == false */\n      iszero\n      iszero\n      eq\n        /* \"Documents/GitHub/contract-token-cryptoMonster/backend/components/PhasePrivate.sol\":3979:4068  require(strucApplications_[msg.sender].reviewed == false, \"Review the application first\") */\n      tag_138\n      jumpi\n      mload(0x40)\n      0x08c379a000000000000000000000000000000000000000000000000000000000\n      dup2\n      mstore\n      0x04\n      add\n      tag_139\n      swap1\n      tag_58\n      jump\t// in\n    tag_139:\n      mload(0x40)\n      dup1\n      swap2\n      sub\n      swap1\n      revert\n    tag_138:\n        /* \"Documents/GitHub/contract-token-cryptoMonster/backend/components/PhasePrivate.sol\":4207:4212  false */\n      0x00\n        /* \"Documents/GitHub/contract-token-cryptoMonster/backend/components/PhasePrivate.sol\":4169:4187  strucApplications_ */\n      0x02\n        /* \"Documents/GitHub/contract-token-cryptoMonster/backend/components/PhasePrivate.sol\":4169:4197  strucApplications_[_userAdr] */\n      0x00\n        /* \"Documents/GitHub/contract-token-cryptoMonster/backend/components/PhasePrivate.sol\":4188:4196  _userAdr */\n      dup4\n        /* \"Documents/GitHub/contract-token-cryptoMonster/backend/components/PhasePrivate.sol\":4169:4197  strucApplications_[_userAdr] */\n      0xffffffffffffffffffffffffffffffffffffffff\n      and\n      0xffffffffffffffffffffffffffffffffffffffff\n      and\n      dup2\n      mstore\n      0x20\n      add\n      swap1\n      dup2\n      mstore\n      0x20\n      add\n      0x00\n      keccak256\n        /* \"Documents/GitHub/contract-token-cryptoMonster/backend/components/PhasePrivate.sol\":4169:4204  strucApplications_[_userAdr].status */\n      0x02\n      add\n      0x14\n        /* \"Documents/GitHub/contract-token-cryptoMonster/backend/components/PhasePrivate.sol\":4169:4212  strucApplications_[_userAdr].status = false */\n      0x0100\n      exp\n      dup2\n      sload\n      dup2\n      0xff\n      mul\n      not\n      and\n      swap1\n      dup4\n      iszero\n      iszero\n      mul\n      or\n      swap1\n      sstore\n      pop\n        /* \"Documents/GitHub/contract-token-cryptoMonster/backend/components/PhasePrivate.sol\":4276:4303  structApplicationsAmountAdr */\n      0x03\n        /* \"Documents/GitHub/contract-token-cryptoMonster/backend/components/PhasePrivate.sol\":4309:4317  _userAdr */\n      dup2\n        /* \"Documents/GitHub/contract-token-cryptoMonster/backend/components/PhasePrivate.sol\":4276:4318  structApplicationsAmountAdr.push(_userAdr) */\n      swap1\n      dup1\n      0x01\n      dup2\n      sload\n      add\n      dup1\n      dup3\n      sstore\n      dup1\n      swap2\n      pop\n      pop\n      0x01\n      swap1\n      sub\n      swap1\n      0x00\n      mstore\n      keccak256(0x00, 0x20)\n      add\n      0x00\n      swap1\n      swap2\n      swap1\n      swap2\n      swap1\n      swap2\n      0x0100\n      exp\n      dup2\n      sload\n      dup2\n      0xffffffffffffffffffffffffffffffffffffffff\n      mul\n      not\n      and\n      swap1\n      dup4\n      0xffffffffffffffffffffffffffffffffffffffff\n      and\n      mul\n      or\n      swap1\n      sstore\n      pop\n        /* \"Documents/GitHub/contract-token-cryptoMonster/backend/components/PhasePrivate.sol\":4456:4465  whiteList */\n      0x04\n        /* \"Documents/GitHub/contract-token-cryptoMonster/backend/components/PhasePrivate.sol\":4471:4479  _userAdr */\n      dup2\n        /* \"Documents/GitHub/contract-token-cryptoMonster/backend/components/PhasePrivate.sol\":4456:4480  whiteList.push(_userAdr) */\n      swap1\n      dup1\n      0x01\n      dup2\n      sload\n      add\n      dup1\n      dup3\n      sstore\n      dup1\n      swap2\n      pop\n      pop\n      0x01\n      swap1\n      sub\n      swap1\n      0x00\n      mstore\n      keccak256(0x00, 0x20)\n      add\n      0x00\n      swap1\n      swap2\n      swap1\n      swap2\n      swap1\n      swap2\n      0x0100\n      exp\n      dup2\n      sload\n      dup2\n      0xffffffffffffffffffffffffffffffffffffffff\n      mul\n      not\n      and\n      swap1\n      dup4\n      0xffffffffffffffffffffffffffffffffffffffff\n      and\n      mul\n      or\n      swap1\n      sstore\n      pop\n        /* \"Documents/GitHub/contract-token-cryptoMonster/backend/components/PhasePrivate.sol\":3895:4615  function acceptApplication (address _userAdr) public onlyPrivateProvider {\r... */\n      pop\n      jump\t// out\n        /* \"Documents/GitHub/contract-token-cryptoMonster/backend/shared/helpers/helpresFunc.sol\":483:611  function get_whiteList() public onlyOwnerAndPrivateProvider view returns (address[] memory) {\r... */\n    tag_41:\n        /* \"Documents/GitHub/contract-token-cryptoMonster/backend/shared/helpers/helpresFunc.sol\":557:573  address[] memory */\n      0x60\n        /* \"Documents/GitHub/contract-token-cryptoMonster/backend/shared/helpers/modifireFunc.sol\":859:876  Role.SYSTEM_OWNER */\n      0x00\n        /* \"Documents/GitHub/contract-token-cryptoMonster/backend/shared/helpers/modifireFunc.sol\":826:876  structUsers_[msg.sender].role == Role.SYSTEM_OWNER */\n      0x04\n      dup2\n      gt\n      iszero\n      tag_143\n      jumpi\n      tag_144\n      tag_49\n      jump\t// in\n    tag_144:\n    tag_143:\n        /* \"Documents/GitHub/contract-token-cryptoMonster/backend/shared/helpers/modifireFunc.sol\":826:838  structUsers_ */\n      0x00\n        /* \"Documents/GitHub/contract-token-cryptoMonster/backend/shared/helpers/modifireFunc.sol\":826:850  structUsers_[msg.sender] */\n      dup1\n        /* \"Documents/GitHub/contract-token-cryptoMonster/backend/shared/helpers/modifireFunc.sol\":839:849  msg.sender */\n      caller\n        /* \"Documents/GitHub/contract-token-cryptoMonster/backend/shared/helpers/modifireFunc.sol\":826:850  structUsers_[msg.sender] */\n      0xffffffffffffffffffffffffffffffffffffffff\n      and\n      0xffffffffffffffffffffffffffffffffffffffff\n      and\n      dup2\n      mstore\n      0x20\n      add\n      swap1\n      dup2\n      mstore\n      0x20\n      add\n      0x00\n      keccak256\n        /* \"Documents/GitHub/contract-token-cryptoMonster/backend/shared/helpers/modifireFunc.sol\":826:855  structUsers_[msg.sender].role */\n      0x00\n      add\n      0x00\n      swap1\n      sload\n      swap1\n      0x0100\n      exp\n      swap1\n      div\n      0xff\n      and\n        /* \"Documents/GitHub/contract-token-cryptoMonster/backend/shared/helpers/modifireFunc.sol\":826:876  structUsers_[msg.sender].role == Role.SYSTEM_OWNER */\n      0x04\n      dup2\n      gt\n      iszero\n      tag_145\n      jumpi\n      tag_146\n      tag_49\n      jump\t// in\n    tag_146:\n    tag_145:\n      eq\n        /* \"Documents/GitHub/contract-token-cryptoMonster/backend/shared/helpers/modifireFunc.sol\":826:932  structUsers_[msg.sender].role == Role.SYSTEM_OWNER || structUsers_[msg.sender].role == Role.SYSTEM_PRIVATE */\n      dup1\n      tag_147\n      jumpi\n      pop\n        /* \"Documents/GitHub/contract-token-cryptoMonster/backend/shared/helpers/modifireFunc.sol\":913:932  Role.SYSTEM_PRIVATE */\n      0x02\n        /* \"Documents/GitHub/contract-token-cryptoMonster/backend/shared/helpers/modifireFunc.sol\":880:932  structUsers_[msg.sender].role == Role.SYSTEM_PRIVATE */\n      0x04\n      dup2\n      gt\n      iszero\n      tag_148\n      jumpi\n      tag_149\n      tag_49\n      jump\t// in\n    tag_149:\n    tag_148:\n        /* \"Documents/GitHub/contract-token-cryptoMonster/backend/shared/helpers/modifireFunc.sol\":880:892  structUsers_ */\n      0x00\n        /* \"Documents/GitHub/contract-token-cryptoMonster/backend/shared/helpers/modifireFunc.sol\":880:904  structUsers_[msg.sender] */\n      dup1\n        /* \"Documents/GitHub/contract-token-cryptoMonster/backend/shared/helpers/modifireFunc.sol\":893:903  msg.sender */\n      caller\n        /* \"Documents/GitHub/contract-token-cryptoMonster/backend/shared/helpers/modifireFunc.sol\":880:904  structUsers_[msg.sender] */\n      0xffffffffffffffffffffffffffffffffffffffff\n      and\n      0xffffffffffffffffffffffffffffffffffffffff\n      and\n      dup2\n      mstore\n      0x20\n      add\n      swap1\n      dup2\n      mstore\n      0x20\n      add\n      0x00\n      keccak256\n        /* \"Documents/GitHub/contract-token-cryptoMonster/backend/shared/helpers/modifireFunc.sol\":880:909  structUsers_[msg.sender].role */\n      0x00\n      add\n      0x00\n      swap1\n      sload\n      swap1\n      0x0100\n      exp\n      swap1\n      div\n      0xff\n      and\n        /* \"Documents/GitHub/contract-token-cryptoMonster/backend/shared/helpers/modifireFunc.sol\":880:932  structUsers_[msg.sender].role == Role.SYSTEM_PRIVATE */\n      0x04\n      dup2\n      gt\n      iszero\n      tag_150\n      jumpi\n      tag_151\n      tag_49\n      jump\t// in\n    tag_151:\n    tag_150:\n      eq\n        /* \"Documents/GitHub/contract-token-cryptoMonster/backend/shared/helpers/modifireFunc.sol\":826:932  structUsers_[msg.sender].role == Role.SYSTEM_OWNER || structUsers_[msg.sender].role == Role.SYSTEM_PRIVATE */\n    tag_147:\n        /* \"Documents/GitHub/contract-token-cryptoMonster/backend/shared/helpers/modifireFunc.sol\":818:978  require(structUsers_[msg.sender].role == Role.SYSTEM_OWNER || structUsers_[msg.sender].role == Role.SYSTEM_PRIVATE, \"You are not the owner or private provider\") */\n      tag_152\n      jumpi\n      mload(0x40)\n      0x08c379a000000000000000000000000000000000000000000000000000000000\n      dup2\n      mstore\n      0x04\n      add\n      tag_153\n      swap1\n      tag_154\n      jump\t// in\n    tag_153:\n      mload(0x40)\n      dup1\n      swap2\n      sub\n      swap1\n      revert\n    tag_152:\n        /* \"Documents/GitHub/contract-token-cryptoMonster/backend/shared/helpers/helpresFunc.sol\":593:602  whiteList */\n      0x04\n        /* \"Documents/GitHub/contract-token-cryptoMonster/backend/shared/helpers/helpresFunc.sol\":586:603  return(whiteList) */\n      dup1\n      sload\n      dup1\n      0x20\n      mul\n      0x20\n      add\n      mload(0x40)\n      swap1\n      dup2\n      add\n      0x40\n      mstore\n      dup1\n      swap3\n      swap2\n      swap1\n      dup2\n      dup2\n      mstore\n      0x20\n      add\n      dup3\n      dup1\n      sload\n      dup1\n      iszero\n      tag_156\n      jumpi\n      0x20\n      mul\n      dup3\n      add\n      swap2\n      swap1\n      0x00\n      mstore\n      keccak256(0x00, 0x20)\n      swap1\n    tag_157:\n      dup2\n      0x00\n      swap1\n      sload\n      swap1\n      0x0100\n      exp\n      swap1\n      div\n      0xffffffffffffffffffffffffffffffffffffffff\n      and\n      0xffffffffffffffffffffffffffffffffffffffff\n      and\n      dup2\n      mstore\n      0x20\n      add\n      swap1\n      0x01\n      add\n      swap1\n      dup1\n      dup4\n      gt\n      tag_157\n      jumpi\n    tag_156:\n      pop\n      pop\n      pop\n      pop\n      pop\n      swap1\n      pop\n        /* \"Documents/GitHub/contract-token-cryptoMonster/backend/shared/helpers/helpresFunc.sol\":483:611  function get_whiteList() public onlyOwnerAndPrivateProvider view returns (address[] memory) {\r... */\n      swap1\n      jump\t// out\n        /* \"Documents/GitHub/contract-token-cryptoMonster/backend/components/PhasePrivate.sol\":2323:2451  function pushApplicationNotReviewed (address _userAdr) external  {\r... */\n    tag_45:\n        /* \"Documents/GitHub/contract-token-cryptoMonster/backend/components/PhasePrivate.sol\":2399:2428  addressApplicationNotReviewed */\n      0x06\n        /* \"Documents/GitHub/contract-token-cryptoMonster/backend/components/PhasePrivate.sol\":2434:2442  _userAdr */\n      dup2\n        /* \"Documents/GitHub/contract-token-cryptoMonster/backend/components/PhasePrivate.sol\":2399:2443  addressApplicationNotReviewed.push(_userAdr) */\n      swap1\n      dup1\n      0x01\n      dup2\n      sload\n      add\n      dup1\n      dup3\n      sstore\n      dup1\n      swap2\n      pop\n      pop\n      0x01\n      swap1\n      sub\n      swap1\n      0x00\n      mstore\n      keccak256(0x00, 0x20)\n      add\n      0x00\n      swap1\n      swap2\n      swap1\n      swap2\n      swap1\n      swap2\n      0x0100\n      exp\n      dup2\n      sload\n      dup2\n      0xffffffffffffffffffffffffffffffffffffffff\n      mul\n      not\n      and\n      swap1\n      dup4\n      0xffffffffffffffffffffffffffffffffffffffff\n      and\n      mul\n      or\n      swap1\n      sstore\n      pop\n        /* \"Documents/GitHub/contract-token-cryptoMonster/backend/components/PhasePrivate.sol\":2323:2451  function pushApplicationNotReviewed (address _userAdr) external  {\r... */\n      pop\n      jump\t// out\n    tag_113:\n      dup3\n      dup1\n      sload\n      tag_160\n      swap1\n      tag_161\n      jump\t// in\n    tag_160:\n      swap1\n      0x00\n      mstore\n      keccak256(0x00, 0x20)\n      swap1\n      0x1f\n      add\n      0x20\n      swap1\n      div\n      dup2\n      add\n      swap3\n      dup3\n      tag_163\n      jumpi\n      0x00\n      dup6\n      sstore\n      jump(tag_162)\n    tag_163:\n      dup3\n      0x1f\n      lt\n      tag_164\n      jumpi\n      dup1\n      mload\n      not(0xff)\n      and\n      dup4\n      dup1\n      add\n      or\n      dup6\n      sstore\n      jump(tag_162)\n    tag_164:\n      dup3\n      dup1\n      add\n      0x01\n      add\n      dup6\n      sstore\n      dup3\n      iszero\n      tag_162\n      jumpi\n      swap2\n      dup3\n      add\n    tag_165:\n      dup3\n      dup2\n      gt\n      iszero\n      tag_166\n      jumpi\n      dup3\n      mload\n      dup3\n      sstore\n      swap2\n      0x20\n      add\n      swap2\n      swap1\n      0x01\n      add\n      swap1\n      jump(tag_165)\n    tag_166:\n    tag_162:\n      pop\n      swap1\n      pop\n      tag_167\n      swap2\n      swap1\n      tag_168\n      jump\t// in\n    tag_167:\n      pop\n      swap1\n      jump\t// out\n    tag_168:\n    tag_169:\n      dup1\n      dup3\n      gt\n      iszero\n      tag_170\n      jumpi\n      0x00\n      dup2\n      0x00\n      swap1\n      sstore\n      pop\n      0x01\n      add\n      jump(tag_169)\n    tag_170:\n      pop\n      swap1\n      jump\t// out\n        /* \"#utility.yul\":7:419   */\n    tag_172:\n        /* \"#utility.yul\":85:90   */\n      0x00\n        /* \"#utility.yul\":110:176   */\n      tag_174\n        /* \"#utility.yul\":126:175   */\n      tag_175\n        /* \"#utility.yul\":168:174   */\n      dup5\n        /* \"#utility.yul\":126:175   */\n      tag_176\n      jump\t// in\n    tag_175:\n        /* \"#utility.yul\":110:176   */\n      tag_177\n      jump\t// in\n    tag_174:\n        /* \"#utility.yul\":101:176   */\n      swap1\n      pop\n        /* \"#utility.yul\":199:205   */\n      dup3\n        /* \"#utility.yul\":192:197   */\n      dup2\n        /* \"#utility.yul\":185:206   */\n      mstore\n        /* \"#utility.yul\":237:241   */\n      0x20\n        /* \"#utility.yul\":230:235   */\n      dup2\n        /* \"#utility.yul\":226:242   */\n      add\n        /* \"#utility.yul\":275:278   */\n      dup5\n        /* \"#utility.yul\":266:272   */\n      dup5\n        /* \"#utility.yul\":261:264   */\n      dup5\n        /* \"#utility.yul\":257:273   */\n      add\n        /* \"#utility.yul\":254:279   */\n      gt\n        /* \"#utility.yul\":251:363   */\n      iszero\n      tag_178\n      jumpi\n        /* \"#utility.yul\":282:361   */\n      tag_179\n      tag_180\n      jump\t// in\n    tag_179:\n        /* \"#utility.yul\":251:363   */\n    tag_178:\n        /* \"#utility.yul\":372:413   */\n      tag_181\n        /* \"#utility.yul\":406:412   */\n      dup5\n        /* \"#utility.yul\":401:404   */\n      dup3\n        /* \"#utility.yul\":396:399   */\n      dup6\n        /* \"#utility.yul\":372:413   */\n      tag_182\n      jump\t// in\n    tag_181:\n        /* \"#utility.yul\":91:419   */\n      pop\n        /* \"#utility.yul\":7:419   */\n      swap4\n      swap3\n      pop\n      pop\n      pop\n      jump\t// out\n        /* \"#utility.yul\":425:564   */\n    tag_183:\n        /* \"#utility.yul\":471:476   */\n      0x00\n        /* \"#utility.yul\":509:515   */\n      dup2\n        /* \"#utility.yul\":496:516   */\n      calldataload\n        /* \"#utility.yul\":487:516   */\n      swap1\n      pop\n        /* \"#utility.yul\":525:558   */\n      tag_185\n        /* \"#utility.yul\":552:557   */\n      dup2\n        /* \"#utility.yul\":525:558   */\n      tag_186\n      jump\t// in\n    tag_185:\n        /* \"#utility.yul\":425:564   */\n      swap3\n      swap2\n      pop\n      pop\n      jump\t// out\n        /* \"#utility.yul\":584:924   */\n    tag_187:\n        /* \"#utility.yul\":640:645   */\n      0x00\n        /* \"#utility.yul\":689:692   */\n      dup3\n        /* \"#utility.yul\":682:686   */\n      0x1f\n        /* \"#utility.yul\":674:680   */\n      dup4\n        /* \"#utility.yul\":670:687   */\n      add\n        /* \"#utility.yul\":666:693   */\n      slt\n        /* \"#utility.yul\":656:778   */\n      tag_189\n      jumpi\n        /* \"#utility.yul\":697:776   */\n      tag_190\n      tag_191\n      jump\t// in\n    tag_190:\n        /* \"#utility.yul\":656:778   */\n    tag_189:\n        /* \"#utility.yul\":814:820   */\n      dup2\n        /* \"#utility.yul\":801:821   */\n      calldataload\n        /* \"#utility.yul\":839:918   */\n      tag_192\n        /* \"#utility.yul\":914:917   */\n      dup5\n        /* \"#utility.yul\":906:912   */\n      dup3\n        /* \"#utility.yul\":899:903   */\n      0x20\n        /* \"#utility.yul\":891:897   */\n      dup7\n        /* \"#utility.yul\":887:904   */\n      add\n        /* \"#utility.yul\":839:918   */\n      tag_172\n      jump\t// in\n    tag_192:\n        /* \"#utility.yul\":830:918   */\n      swap2\n      pop\n        /* \"#utility.yul\":646:924   */\n      pop\n        /* \"#utility.yul\":584:924   */\n      swap3\n      swap2\n      pop\n      pop\n      jump\t// out\n        /* \"#utility.yul\":930:1259   */\n    tag_15:\n        /* \"#utility.yul\":989:995   */\n      0x00\n        /* \"#utility.yul\":1038:1040   */\n      0x20\n        /* \"#utility.yul\":1026:1035   */\n      dup3\n        /* \"#utility.yul\":1017:1024   */\n      dup5\n        /* \"#utility.yul\":1013:1036   */\n      sub\n        /* \"#utility.yul\":1009:1041   */\n      slt\n        /* \"#utility.yul\":1006:1125   */\n      iszero\n      tag_194\n      jumpi\n        /* \"#utility.yul\":1044:1123   */\n      tag_195\n      tag_196\n      jump\t// in\n    tag_195:\n        /* \"#utility.yul\":1006:1125   */\n    tag_194:\n        /* \"#utility.yul\":1164:1165   */\n      0x00\n        /* \"#utility.yul\":1189:1242   */\n      tag_197\n        /* \"#utility.yul\":1234:1241   */\n      dup5\n        /* \"#utility.yul\":1225:1231   */\n      dup3\n        /* \"#utility.yul\":1214:1223   */\n      dup6\n        /* \"#utility.yul\":1210:1232   */\n      add\n        /* \"#utility.yul\":1189:1242   */\n      tag_183\n      jump\t// in\n    tag_197:\n        /* \"#utility.yul\":1179:1242   */\n      swap2\n      pop\n        /* \"#utility.yul\":1135:1252   */\n      pop\n        /* \"#utility.yul\":930:1259   */\n      swap3\n      swap2\n      pop\n      pop\n      jump\t// out\n        /* \"#utility.yul\":1265:1774   */\n    tag_33:\n        /* \"#utility.yul\":1334:1340   */\n      0x00\n        /* \"#utility.yul\":1383:1385   */\n      0x20\n        /* \"#utility.yul\":1371:1380   */\n      dup3\n        /* \"#utility.yul\":1362:1369   */\n      dup5\n        /* \"#utility.yul\":1358:1381   */\n      sub\n        /* \"#utility.yul\":1354:1386   */\n      slt\n        /* \"#utility.yul\":1351:1470   */\n      iszero\n      tag_199\n      jumpi\n        /* \"#utility.yul\":1389:1468   */\n      tag_200\n      tag_196\n      jump\t// in\n    tag_200:\n        /* \"#utility.yul\":1351:1470   */\n    tag_199:\n        /* \"#utility.yul\":1537:1538   */\n      0x00\n        /* \"#utility.yul\":1526:1535   */\n      dup3\n        /* \"#utility.yul\":1522:1539   */\n      add\n        /* \"#utility.yul\":1509:1540   */\n      calldataload\n        /* \"#utility.yul\":1567:1585   */\n      0xffffffffffffffff\n        /* \"#utility.yul\":1559:1565   */\n      dup2\n        /* \"#utility.yul\":1556:1586   */\n      gt\n        /* \"#utility.yul\":1553:1670   */\n      iszero\n      tag_201\n      jumpi\n        /* \"#utility.yul\":1589:1668   */\n      tag_202\n      tag_203\n      jump\t// in\n    tag_202:\n        /* \"#utility.yul\":1553:1670   */\n    tag_201:\n        /* \"#utility.yul\":1694:1757   */\n      tag_204\n        /* \"#utility.yul\":1749:1756   */\n      dup5\n        /* \"#utility.yul\":1740:1746   */\n      dup3\n        /* \"#utility.yul\":1729:1738   */\n      dup6\n        /* \"#utility.yul\":1725:1747   */\n      add\n        /* \"#utility.yul\":1694:1757   */\n      tag_187\n      jump\t// in\n    tag_204:\n        /* \"#utility.yul\":1684:1757   */\n      swap2\n      pop\n        /* \"#utility.yul\":1480:1767   */\n      pop\n        /* \"#utility.yul\":1265:1774   */\n      swap3\n      swap2\n      pop\n      pop\n      jump\t// out\n        /* \"#utility.yul\":1780:2759   */\n    tag_26:\n        /* \"#utility.yul\":1877:1883   */\n      0x00\n        /* \"#utility.yul\":1885:1891   */\n      dup1\n        /* \"#utility.yul\":1893:1899   */\n      0x00\n        /* \"#utility.yul\":1942:1944   */\n      0x60\n        /* \"#utility.yul\":1930:1939   */\n      dup5\n        /* \"#utility.yul\":1921:1928   */\n      dup7\n        /* \"#utility.yul\":1917:1940   */\n      sub\n        /* \"#utility.yul\":1913:1945   */\n      slt\n        /* \"#utility.yul\":1910:2029   */\n      iszero\n      tag_206\n      jumpi\n        /* \"#utility.yul\":1948:2027   */\n      tag_207\n      tag_196\n      jump\t// in\n    tag_207:\n        /* \"#utility.yul\":1910:2029   */\n    tag_206:\n        /* \"#utility.yul\":2096:2097   */\n      0x00\n        /* \"#utility.yul\":2085:2094   */\n      dup5\n        /* \"#utility.yul\":2081:2098   */\n      add\n        /* \"#utility.yul\":2068:2099   */\n      calldataload\n        /* \"#utility.yul\":2126:2144   */\n      0xffffffffffffffff\n        /* \"#utility.yul\":2118:2124   */\n      dup2\n        /* \"#utility.yul\":2115:2145   */\n      gt\n        /* \"#utility.yul\":2112:2229   */\n      iszero\n      tag_208\n      jumpi\n        /* \"#utility.yul\":2148:2227   */\n      tag_209\n      tag_203\n      jump\t// in\n    tag_209:\n        /* \"#utility.yul\":2112:2229   */\n    tag_208:\n        /* \"#utility.yul\":2253:2316   */\n      tag_210\n        /* \"#utility.yul\":2308:2315   */\n      dup7\n        /* \"#utility.yul\":2299:2305   */\n      dup3\n        /* \"#utility.yul\":2288:2297   */\n      dup8\n        /* \"#utility.yul\":2284:2306   */\n      add\n        /* \"#utility.yul\":2253:2316   */\n      tag_187\n      jump\t// in\n    tag_210:\n        /* \"#utility.yul\":2243:2316   */\n      swap4\n      pop\n        /* \"#utility.yul\":2039:2326   */\n      pop\n        /* \"#utility.yul\":2393:2395   */\n      0x20\n        /* \"#utility.yul\":2382:2391   */\n      dup5\n        /* \"#utility.yul\":2378:2396   */\n      add\n        /* \"#utility.yul\":2365:2397   */\n      calldataload\n        /* \"#utility.yul\":2424:2442   */\n      0xffffffffffffffff\n        /* \"#utility.yul\":2416:2422   */\n      dup2\n        /* \"#utility.yul\":2413:2443   */\n      gt\n        /* \"#utility.yul\":2410:2527   */\n      iszero\n      tag_211\n      jumpi\n        /* \"#utility.yul\":2446:2525   */\n      tag_212\n      tag_203\n      jump\t// in\n    tag_212:\n        /* \"#utility.yul\":2410:2527   */\n    tag_211:\n        /* \"#utility.yul\":2551:2614   */\n      tag_213\n        /* \"#utility.yul\":2606:2613   */\n      dup7\n        /* \"#utility.yul\":2597:2603   */\n      dup3\n        /* \"#utility.yul\":2586:2595   */\n      dup8\n        /* \"#utility.yul\":2582:2604   */\n      add\n        /* \"#utility.yul\":2551:2614   */\n      tag_187\n      jump\t// in\n    tag_213:\n        /* \"#utility.yul\":2541:2614   */\n      swap3\n      pop\n        /* \"#utility.yul\":2336:2624   */\n      pop\n        /* \"#utility.yul\":2663:2665   */\n      0x40\n        /* \"#utility.yul\":2689:2742   */\n      tag_214\n        /* \"#utility.yul\":2734:2741   */\n      dup7\n        /* \"#utility.yul\":2725:2731   */\n      dup3\n        /* \"#utility.yul\":2714:2723   */\n      dup8\n        /* \"#utility.yul\":2710:2732   */\n      add\n        /* \"#utility.yul\":2689:2742   */\n      tag_183\n      jump\t// in\n    tag_214:\n        /* \"#utility.yul\":2679:2742   */\n      swap2\n      pop\n        /* \"#utility.yul\":2634:2752   */\n      pop\n        /* \"#utility.yul\":1780:2759   */\n      swap3\n      pop\n      swap3\n      pop\n      swap3\n      jump\t// out\n        /* \"#utility.yul\":2765:2944   */\n    tag_215:\n        /* \"#utility.yul\":2834:2844   */\n      0x00\n        /* \"#utility.yul\":2855:2901   */\n      tag_217\n        /* \"#utility.yul\":2897:2900   */\n      dup4\n        /* \"#utility.yul\":2889:2895   */\n      dup4\n        /* \"#utility.yul\":2855:2901   */\n      tag_218\n      jump\t// in\n    tag_217:\n        /* \"#utility.yul\":2933:2937   */\n      0x20\n        /* \"#utility.yul\":2928:2931   */\n      dup4\n        /* \"#utility.yul\":2924:2938   */\n      add\n        /* \"#utility.yul\":2910:2938   */\n      swap1\n      pop\n        /* \"#utility.yul\":2765:2944   */\n      swap3\n      swap2\n      pop\n      pop\n      jump\t// out\n        /* \"#utility.yul\":2950:3058   */\n    tag_218:\n        /* \"#utility.yul\":3027:3051   */\n      tag_220\n        /* \"#utility.yul\":3045:3050   */\n      dup2\n        /* \"#utility.yul\":3027:3051   */\n      tag_221\n      jump\t// in\n    tag_220:\n        /* \"#utility.yul\":3022:3025   */\n      dup3\n        /* \"#utility.yul\":3015:3052   */\n      mstore\n        /* \"#utility.yul\":2950:3058   */\n      pop\n      pop\n      jump\t// out\n        /* \"#utility.yul\":3094:3826   */\n    tag_222:\n        /* \"#utility.yul\":3213:3216   */\n      0x00\n        /* \"#utility.yul\":3242:3296   */\n      tag_224\n        /* \"#utility.yul\":3290:3295   */\n      dup3\n        /* \"#utility.yul\":3242:3296   */\n      tag_225\n      jump\t// in\n    tag_224:\n        /* \"#utility.yul\":3312:3398   */\n      tag_226\n        /* \"#utility.yul\":3391:3397   */\n      dup2\n        /* \"#utility.yul\":3386:3389   */\n      dup6\n        /* \"#utility.yul\":3312:3398   */\n      tag_227\n      jump\t// in\n    tag_226:\n        /* \"#utility.yul\":3305:3398   */\n      swap4\n      pop\n        /* \"#utility.yul\":3422:3478   */\n      tag_228\n        /* \"#utility.yul\":3472:3477   */\n      dup4\n        /* \"#utility.yul\":3422:3478   */\n      tag_229\n      jump\t// in\n    tag_228:\n        /* \"#utility.yul\":3501:3508   */\n      dup1\n        /* \"#utility.yul\":3532:3533   */\n      0x00\n        /* \"#utility.yul\":3517:3801   */\n    tag_230:\n        /* \"#utility.yul\":3542:3548   */\n      dup4\n        /* \"#utility.yul\":3539:3540   */\n      dup2\n        /* \"#utility.yul\":3536:3549   */\n      lt\n        /* \"#utility.yul\":3517:3801   */\n      iszero\n      tag_232\n      jumpi\n        /* \"#utility.yul\":3618:3624   */\n      dup2\n        /* \"#utility.yul\":3612:3625   */\n      mload\n        /* \"#utility.yul\":3645:3708   */\n      tag_233\n        /* \"#utility.yul\":3704:3707   */\n      dup9\n        /* \"#utility.yul\":3689:3702   */\n      dup3\n        /* \"#utility.yul\":3645:3708   */\n      tag_215\n      jump\t// in\n    tag_233:\n        /* \"#utility.yul\":3638:3708   */\n      swap8\n      pop\n        /* \"#utility.yul\":3731:3791   */\n      tag_234\n        /* \"#utility.yul\":3784:3790   */\n      dup4\n        /* \"#utility.yul\":3731:3791   */\n      tag_235\n      jump\t// in\n    tag_234:\n        /* \"#utility.yul\":3721:3791   */\n      swap3\n      pop\n        /* \"#utility.yul\":3577:3801   */\n      pop\n        /* \"#utility.yul\":3564:3565   */\n      0x01\n        /* \"#utility.yul\":3561:3562   */\n      dup2\n        /* \"#utility.yul\":3557:3566   */\n      add\n        /* \"#utility.yul\":3552:3566   */\n      swap1\n      pop\n        /* \"#utility.yul\":3517:3801   */\n      jump(tag_230)\n    tag_232:\n        /* \"#utility.yul\":3521:3535   */\n      pop\n        /* \"#utility.yul\":3817:3820   */\n      dup6\n        /* \"#utility.yul\":3810:3820   */\n      swap4\n      pop\n        /* \"#utility.yul\":3218:3826   */\n      pop\n      pop\n      pop\n        /* \"#utility.yul\":3094:3826   */\n      swap3\n      swap2\n      pop\n      pop\n      jump\t// out\n        /* \"#utility.yul\":3832:3950   */\n    tag_236:\n        /* \"#utility.yul\":3919:3943   */\n      tag_238\n        /* \"#utility.yul\":3937:3942   */\n      dup2\n        /* \"#utility.yul\":3919:3943   */\n      tag_239\n      jump\t// in\n    tag_238:\n        /* \"#utility.yul\":3914:3917   */\n      dup3\n        /* \"#utility.yul\":3907:3944   */\n      mstore\n        /* \"#utility.yul\":3832:3950   */\n      pop\n      pop\n      jump\t// out\n        /* \"#utility.yul\":3956:4333   */\n    tag_240:\n        /* \"#utility.yul\":4062:4065   */\n      0x00\n        /* \"#utility.yul\":4090:4129   */\n      tag_242\n        /* \"#utility.yul\":4123:4128   */\n      dup3\n        /* \"#utility.yul\":4090:4129   */\n      tag_243\n      jump\t// in\n    tag_242:\n        /* \"#utility.yul\":4145:4234   */\n      tag_244\n        /* \"#utility.yul\":4227:4233   */\n      dup2\n        /* \"#utility.yul\":4222:4225   */\n      dup6\n        /* \"#utility.yul\":4145:4234   */\n      tag_245\n      jump\t// in\n    tag_244:\n        /* \"#utility.yul\":4138:4234   */\n      swap4\n      pop\n        /* \"#utility.yul\":4243:4295   */\n      tag_246\n        /* \"#utility.yul\":4288:4294   */\n      dup2\n        /* \"#utility.yul\":4283:4286   */\n      dup6\n        /* \"#utility.yul\":4276:4280   */\n      0x20\n        /* \"#utility.yul\":4269:4274   */\n      dup7\n        /* \"#utility.yul\":4265:4281   */\n      add\n        /* \"#utility.yul\":4243:4295   */\n      tag_247\n      jump\t// in\n    tag_246:\n        /* \"#utility.yul\":4320:4326   */\n      dup1\n        /* \"#utility.yul\":4315:4318   */\n      dup5\n        /* \"#utility.yul\":4311:4327   */\n      add\n        /* \"#utility.yul\":4304:4327   */\n      swap2\n      pop\n        /* \"#utility.yul\":4066:4333   */\n      pop\n        /* \"#utility.yul\":3956:4333   */\n      swap3\n      swap2\n      pop\n      pop\n      jump\t// out\n        /* \"#utility.yul\":4339:4705   */\n    tag_248:\n        /* \"#utility.yul\":4481:4484   */\n      0x00\n        /* \"#utility.yul\":4502:4569   */\n      tag_250\n        /* \"#utility.yul\":4566:4568   */\n      0x1c\n        /* \"#utility.yul\":4561:4564   */\n      dup4\n        /* \"#utility.yul\":4502:4569   */\n      tag_251\n      jump\t// in\n    tag_250:\n        /* \"#utility.yul\":4495:4569   */\n      swap2\n      pop\n        /* \"#utility.yul\":4578:4671   */\n      tag_252\n        /* \"#utility.yul\":4667:4670   */\n      dup3\n        /* \"#utility.yul\":4578:4671   */\n      tag_253\n      jump\t// in\n    tag_252:\n        /* \"#utility.yul\":4696:4698   */\n      0x20\n        /* \"#utility.yul\":4691:4694   */\n      dup3\n        /* \"#utility.yul\":4687:4699   */\n      add\n        /* \"#utility.yul\":4680:4699   */\n      swap1\n      pop\n        /* \"#utility.yul\":4339:4705   */\n      swap2\n      swap1\n      pop\n      jump\t// out\n        /* \"#utility.yul\":4711:5077   */\n    tag_254:\n        /* \"#utility.yul\":4853:4856   */\n      0x00\n        /* \"#utility.yul\":4874:4941   */\n      tag_256\n        /* \"#utility.yul\":4938:4940   */\n      0x18\n        /* \"#utility.yul\":4933:4936   */\n      dup4\n        /* \"#utility.yul\":4874:4941   */\n      tag_251\n      jump\t// in\n    tag_256:\n        /* \"#utility.yul\":4867:4941   */\n      swap2\n      pop\n        /* \"#utility.yul\":4950:5043   */\n      tag_257\n        /* \"#utility.yul\":5039:5042   */\n      dup3\n        /* \"#utility.yul\":4950:5043   */\n      tag_258\n      jump\t// in\n    tag_257:\n        /* \"#utility.yul\":5068:5070   */\n      0x20\n        /* \"#utility.yul\":5063:5066   */\n      dup3\n        /* \"#utility.yul\":5059:5071   */\n      add\n        /* \"#utility.yul\":5052:5071   */\n      swap1\n      pop\n        /* \"#utility.yul\":4711:5077   */\n      swap2\n      swap1\n      pop\n      jump\t// out\n        /* \"#utility.yul\":5083:5449   */\n    tag_259:\n        /* \"#utility.yul\":5225:5228   */\n      0x00\n        /* \"#utility.yul\":5246:5313   */\n      tag_261\n        /* \"#utility.yul\":5310:5312   */\n      0x2a\n        /* \"#utility.yul\":5305:5308   */\n      dup4\n        /* \"#utility.yul\":5246:5313   */\n      tag_251\n      jump\t// in\n    tag_261:\n        /* \"#utility.yul\":5239:5313   */\n      swap2\n      pop\n        /* \"#utility.yul\":5322:5415   */\n      tag_262\n        /* \"#utility.yul\":5411:5414   */\n      dup3\n        /* \"#utility.yul\":5322:5415   */\n      tag_263\n      jump\t// in\n    tag_262:\n        /* \"#utility.yul\":5440:5442   */\n      0x40\n        /* \"#utility.yul\":5435:5438   */\n      dup3\n        /* \"#utility.yul\":5431:5443   */\n      add\n        /* \"#utility.yul\":5424:5443   */\n      swap1\n      pop\n        /* \"#utility.yul\":5083:5449   */\n      swap2\n      swap1\n      pop\n      jump\t// out\n        /* \"#utility.yul\":5455:5821   */\n    tag_264:\n        /* \"#utility.yul\":5597:5600   */\n      0x00\n        /* \"#utility.yul\":5618:5685   */\n      tag_266\n        /* \"#utility.yul\":5682:5684   */\n      0x29\n        /* \"#utility.yul\":5677:5680   */\n      dup4\n        /* \"#utility.yul\":5618:5685   */\n      tag_251\n      jump\t// in\n    tag_266:\n        /* \"#utility.yul\":5611:5685   */\n      swap2\n      pop\n        /* \"#utility.yul\":5694:5787   */\n      tag_267\n        /* \"#utility.yul\":5783:5786   */\n      dup3\n        /* \"#utility.yul\":5694:5787   */\n      tag_268\n      jump\t// in\n    tag_267:\n        /* \"#utility.yul\":5812:5814   */\n      0x40\n        /* \"#utility.yul\":5807:5810   */\n      dup3\n        /* \"#utility.yul\":5803:5815   */\n      add\n        /* \"#utility.yul\":5796:5815   */\n      swap1\n      pop\n        /* \"#utility.yul\":5455:5821   */\n      swap2\n      swap1\n      pop\n      jump\t// out\n        /* \"#utility.yul\":5827:6193   */\n    tag_269:\n        /* \"#utility.yul\":5969:5972   */\n      0x00\n        /* \"#utility.yul\":5990:6057   */\n      tag_271\n        /* \"#utility.yul\":6054:6056   */\n      0x0e\n        /* \"#utility.yul\":6049:6052   */\n      dup4\n        /* \"#utility.yul\":5990:6057   */\n      tag_251\n      jump\t// in\n    tag_271:\n        /* \"#utility.yul\":5983:6057   */\n      swap2\n      pop\n        /* \"#utility.yul\":6066:6159   */\n      tag_272\n        /* \"#utility.yul\":6155:6158   */\n      dup3\n        /* \"#utility.yul\":6066:6159   */\n      tag_273\n      jump\t// in\n    tag_272:\n        /* \"#utility.yul\":6184:6186   */\n      0x20\n        /* \"#utility.yul\":6179:6182   */\n      dup3\n        /* \"#utility.yul\":6175:6187   */\n      add\n        /* \"#utility.yul\":6168:6187   */\n      swap1\n      pop\n        /* \"#utility.yul\":5827:6193   */\n      swap2\n      swap1\n      pop\n      jump\t// out\n        /* \"#utility.yul\":6199:6565   */\n    tag_274:\n        /* \"#utility.yul\":6341:6344   */\n      0x00\n        /* \"#utility.yul\":6362:6429   */\n      tag_276\n        /* \"#utility.yul\":6426:6428   */\n      0x19\n        /* \"#utility.yul\":6421:6424   */\n      dup4\n        /* \"#utility.yul\":6362:6429   */\n      tag_251\n      jump\t// in\n    tag_276:\n        /* \"#utility.yul\":6355:6429   */\n      swap2\n      pop\n        /* \"#utility.yul\":6438:6531   */\n      tag_277\n        /* \"#utility.yul\":6527:6530   */\n      dup3\n        /* \"#utility.yul\":6438:6531   */\n      tag_278\n      jump\t// in\n    tag_277:\n        /* \"#utility.yul\":6556:6558   */\n      0x20\n        /* \"#utility.yul\":6551:6554   */\n      dup3\n        /* \"#utility.yul\":6547:6559   */\n      add\n        /* \"#utility.yul\":6540:6559   */\n      swap1\n      pop\n        /* \"#utility.yul\":6199:6565   */\n      swap2\n      swap1\n      pop\n      jump\t// out\n        /* \"#utility.yul\":6571:6937   */\n    tag_279:\n        /* \"#utility.yul\":6713:6716   */\n      0x00\n        /* \"#utility.yul\":6734:6801   */\n      tag_281\n        /* \"#utility.yul\":6798:6800   */\n      0x17\n        /* \"#utility.yul\":6793:6796   */\n      dup4\n        /* \"#utility.yul\":6734:6801   */\n      tag_251\n      jump\t// in\n    tag_281:\n        /* \"#utility.yul\":6727:6801   */\n      swap2\n      pop\n        /* \"#utility.yul\":6810:6903   */\n      tag_282\n        /* \"#utility.yul\":6899:6902   */\n      dup3\n        /* \"#utility.yul\":6810:6903   */\n      tag_283\n      jump\t// in\n    tag_282:\n        /* \"#utility.yul\":6928:6930   */\n      0x20\n        /* \"#utility.yul\":6923:6926   */\n      dup3\n        /* \"#utility.yul\":6919:6931   */\n      add\n        /* \"#utility.yul\":6912:6931   */\n      swap1\n      pop\n        /* \"#utility.yul\":6571:6937   */\n      swap2\n      swap1\n      pop\n      jump\t// out\n        /* \"#utility.yul\":6943:7309   */\n    tag_284:\n        /* \"#utility.yul\":7085:7088   */\n      0x00\n        /* \"#utility.yul\":7106:7173   */\n      tag_286\n        /* \"#utility.yul\":7170:7172   */\n      0x37\n        /* \"#utility.yul\":7165:7168   */\n      dup4\n        /* \"#utility.yul\":7106:7173   */\n      tag_251\n      jump\t// in\n    tag_286:\n        /* \"#utility.yul\":7099:7173   */\n      swap2\n      pop\n        /* \"#utility.yul\":7182:7275   */\n      tag_287\n        /* \"#utility.yul\":7271:7274   */\n      dup3\n        /* \"#utility.yul\":7182:7275   */\n      tag_288\n      jump\t// in\n    tag_287:\n        /* \"#utility.yul\":7300:7302   */\n      0x40\n        /* \"#utility.yul\":7295:7298   */\n      dup3\n        /* \"#utility.yul\":7291:7303   */\n      add\n        /* \"#utility.yul\":7284:7303   */\n      swap1\n      pop\n        /* \"#utility.yul\":6943:7309   */\n      swap2\n      swap1\n      pop\n      jump\t// out\n        /* \"#utility.yul\":7315:7590   */\n    tag_129:\n        /* \"#utility.yul\":7447:7450   */\n      0x00\n        /* \"#utility.yul\":7469:7564   */\n      tag_290\n        /* \"#utility.yul\":7560:7563   */\n      dup3\n        /* \"#utility.yul\":7551:7557   */\n      dup5\n        /* \"#utility.yul\":7469:7564   */\n      tag_240\n      jump\t// in\n    tag_290:\n        /* \"#utility.yul\":7462:7564   */\n      swap2\n      pop\n        /* \"#utility.yul\":7581:7584   */\n      dup2\n        /* \"#utility.yul\":7574:7584   */\n      swap1\n      pop\n        /* \"#utility.yul\":7315:7590   */\n      swap3\n      swap2\n      pop\n      pop\n      jump\t// out\n        /* \"#utility.yul\":7596:7969   */\n    tag_20:\n        /* \"#utility.yul\":7739:7743   */\n      0x00\n        /* \"#utility.yul\":7777:7779   */\n      0x20\n        /* \"#utility.yul\":7766:7775   */\n      dup3\n        /* \"#utility.yul\":7762:7780   */\n      add\n        /* \"#utility.yul\":7754:7780   */\n      swap1\n      pop\n        /* \"#utility.yul\":7826:7835   */\n      dup2\n        /* \"#utility.yul\":7820:7824   */\n      dup2\n        /* \"#utility.yul\":7816:7836   */\n      sub\n        /* \"#utility.yul\":7812:7813   */\n      0x00\n        /* \"#utility.yul\":7801:7810   */\n      dup4\n        /* \"#utility.yul\":7797:7814   */\n      add\n        /* \"#utility.yul\":7790:7837   */\n      mstore\n        /* \"#utility.yul\":7854:7962   */\n      tag_292\n        /* \"#utility.yul\":7957:7961   */\n      dup2\n        /* \"#utility.yul\":7948:7954   */\n      dup5\n        /* \"#utility.yul\":7854:7962   */\n      tag_222\n      jump\t// in\n    tag_292:\n        /* \"#utility.yul\":7846:7962   */\n      swap1\n      pop\n        /* \"#utility.yul\":7596:7969   */\n      swap3\n      swap2\n      pop\n      pop\n      jump\t// out\n        /* \"#utility.yul\":7975:8197   */\n    tag_36:\n        /* \"#utility.yul\":8068:8072   */\n      0x00\n        /* \"#utility.yul\":8106:8108   */\n      0x20\n        /* \"#utility.yul\":8095:8104   */\n      dup3\n        /* \"#utility.yul\":8091:8109   */\n      add\n        /* \"#utility.yul\":8083:8109   */\n      swap1\n      pop\n        /* \"#utility.yul\":8119:8190   */\n      tag_294\n        /* \"#utility.yul\":8187:8188   */\n      0x00\n        /* \"#utility.yul\":8176:8185   */\n      dup4\n        /* \"#utility.yul\":8172:8189   */\n      add\n        /* \"#utility.yul\":8163:8169   */\n      dup5\n        /* \"#utility.yul\":8119:8190   */\n      tag_236\n      jump\t// in\n    tag_294:\n        /* \"#utility.yul\":7975:8197   */\n      swap3\n      swap2\n      pop\n      pop\n      jump\t// out\n        /* \"#utility.yul\":8203:8622   */\n    tag_58:\n        /* \"#utility.yul\":8369:8373   */\n      0x00\n        /* \"#utility.yul\":8407:8409   */\n      0x20\n        /* \"#utility.yul\":8396:8405   */\n      dup3\n        /* \"#utility.yul\":8392:8410   */\n      add\n        /* \"#utility.yul\":8384:8410   */\n      swap1\n      pop\n        /* \"#utility.yul\":8456:8465   */\n      dup2\n        /* \"#utility.yul\":8450:8454   */\n      dup2\n        /* \"#utility.yul\":8446:8466   */\n      sub\n        /* \"#utility.yul\":8442:8443   */\n      0x00\n        /* \"#utility.yul\":8431:8440   */\n      dup4\n        /* \"#utility.yul\":8427:8444   */\n      add\n        /* \"#utility.yul\":8420:8467   */\n      mstore\n        /* \"#utility.yul\":8484:8615   */\n      tag_296\n        /* \"#utility.yul\":8610:8614   */\n      dup2\n        /* \"#utility.yul\":8484:8615   */\n      tag_248\n      jump\t// in\n    tag_296:\n        /* \"#utility.yul\":8476:8615   */\n      swap1\n      pop\n        /* \"#utility.yul\":8203:8622   */\n      swap2\n      swap1\n      pop\n      jump\t// out\n        /* \"#utility.yul\":8628:9047   */\n    tag_107:\n        /* \"#utility.yul\":8794:8798   */\n      0x00\n        /* \"#utility.yul\":8832:8834   */\n      0x20\n        /* \"#utility.yul\":8821:8830   */\n      dup3\n        /* \"#utility.yul\":8817:8835   */\n      add\n        /* \"#utility.yul\":8809:8835   */\n      swap1\n      pop\n        /* \"#utility.yul\":8881:8890   */\n      dup2\n        /* \"#utility.yul\":8875:8879   */\n      dup2\n        /* \"#utility.yul\":8871:8891   */\n      sub\n        /* \"#utility.yul\":8867:8868   */\n      0x00\n        /* \"#utility.yul\":8856:8865   */\n      dup4\n        /* \"#utility.yul\":8852:8869   */\n      add\n        /* \"#utility.yul\":8845:8892   */\n      mstore\n        /* \"#utility.yul\":8909:9040   */\n      tag_298\n        /* \"#utility.yul\":9035:9039   */\n      dup2\n        /* \"#utility.yul\":8909:9040   */\n      tag_254\n      jump\t// in\n    tag_298:\n        /* \"#utility.yul\":8901:9040   */\n      swap1\n      pop\n        /* \"#utility.yul\":8628:9047   */\n      swap2\n      swap1\n      pop\n      jump\t// out\n        /* \"#utility.yul\":9053:9472   */\n    tag_111:\n        /* \"#utility.yul\":9219:9223   */\n      0x00\n        /* \"#utility.yul\":9257:9259   */\n      0x20\n        /* \"#utility.yul\":9246:9255   */\n      dup3\n        /* \"#utility.yul\":9242:9260   */\n      add\n        /* \"#utility.yul\":9234:9260   */\n      swap1\n      pop\n        /* \"#utility.yul\":9306:9315   */\n      dup2\n        /* \"#utility.yul\":9300:9304   */\n      dup2\n        /* \"#utility.yul\":9296:9316   */\n      sub\n        /* \"#utility.yul\":9292:9293   */\n      0x00\n        /* \"#utility.yul\":9281:9290   */\n      dup4\n        /* \"#utility.yul\":9277:9294   */\n      add\n        /* \"#utility.yul\":9270:9317   */\n      mstore\n        /* \"#utility.yul\":9334:9465   */\n      tag_300\n        /* \"#utility.yul\":9460:9464   */\n      dup2\n        /* \"#utility.yul\":9334:9465   */\n      tag_259\n      jump\t// in\n    tag_300:\n        /* \"#utility.yul\":9326:9465   */\n      swap1\n      pop\n        /* \"#utility.yul\":9053:9472   */\n      swap2\n      swap1\n      pop\n      jump\t// out\n        /* \"#utility.yul\":9478:9897   */\n    tag_154:\n        /* \"#utility.yul\":9644:9648   */\n      0x00\n        /* \"#utility.yul\":9682:9684   */\n      0x20\n        /* \"#utility.yul\":9671:9680   */\n      dup3\n        /* \"#utility.yul\":9667:9685   */\n      add\n        /* \"#utility.yul\":9659:9685   */\n      swap1\n      pop\n        /* \"#utility.yul\":9731:9740   */\n      dup2\n        /* \"#utility.yul\":9725:9729   */\n      dup2\n        /* \"#utility.yul\":9721:9741   */\n      sub\n        /* \"#utility.yul\":9717:9718   */\n      0x00\n        /* \"#utility.yul\":9706:9715   */\n      dup4\n        /* \"#utility.yul\":9702:9719   */\n      add\n        /* \"#utility.yul\":9695:9742   */\n      mstore\n        /* \"#utility.yul\":9759:9890   */\n      tag_302\n        /* \"#utility.yul\":9885:9889   */\n      dup2\n        /* \"#utility.yul\":9759:9890   */\n      tag_264\n      jump\t// in\n    tag_302:\n        /* \"#utility.yul\":9751:9890   */\n      swap1\n      pop\n        /* \"#utility.yul\":9478:9897   */\n      swap2\n      swap1\n      pop\n      jump\t// out\n        /* \"#utility.yul\":9903:10322   */\n    tag_123:\n        /* \"#utility.yul\":10069:10073   */\n      0x00\n        /* \"#utility.yul\":10107:10109   */\n      0x20\n        /* \"#utility.yul\":10096:10105   */\n      dup3\n        /* \"#utility.yul\":10092:10110   */\n      add\n        /* \"#utility.yul\":10084:10110   */\n      swap1\n      pop\n        /* \"#utility.yul\":10156:10165   */\n      dup2\n        /* \"#utility.yul\":10150:10154   */\n      dup2\n        /* \"#utility.yul\":10146:10166   */\n      sub\n        /* \"#utility.yul\":10142:10143   */\n      0x00\n        /* \"#utility.yul\":10131:10140   */\n      dup4\n        /* \"#utility.yul\":10127:10144   */\n      add\n        /* \"#utility.yul\":10120:10167   */\n      mstore\n        /* \"#utility.yul\":10184:10315   */\n      tag_304\n        /* \"#utility.yul\":10310:10314   */\n      dup2\n        /* \"#utility.yul\":10184:10315   */\n      tag_269\n      jump\t// in\n    tag_304:\n        /* \"#utility.yul\":10176:10315   */\n      swap1\n      pop\n        /* \"#utility.yul\":9903:10322   */\n      swap2\n      swap1\n      pop\n      jump\t// out\n        /* \"#utility.yul\":10328:10747   */\n    tag_54:\n        /* \"#utility.yul\":10494:10498   */\n      0x00\n        /* \"#utility.yul\":10532:10534   */\n      0x20\n        /* \"#utility.yul\":10521:10530   */\n      dup3\n        /* \"#utility.yul\":10517:10535   */\n      add\n        /* \"#utility.yul\":10509:10535   */\n      swap1\n      pop\n        /* \"#utility.yul\":10581:10590   */\n      dup2\n        /* \"#utility.yul\":10575:10579   */\n      dup2\n        /* \"#utility.yul\":10571:10591   */\n      sub\n        /* \"#utility.yul\":10567:10568   */\n      0x00\n        /* \"#utility.yul\":10556:10565   */\n      dup4\n        /* \"#utility.yul\":10552:10569   */\n      add\n        /* \"#utility.yul\":10545:10592   */\n      mstore\n        /* \"#utility.yul\":10609:10740   */\n      tag_306\n        /* \"#utility.yul\":10735:10739   */\n      dup2\n        /* \"#utility.yul\":10609:10740   */\n      tag_274\n      jump\t// in\n    tag_306:\n        /* \"#utility.yul\":10601:10740   */\n      swap1\n      pop\n        /* \"#utility.yul\":10328:10747   */\n      swap2\n      swap1\n      pop\n      jump\t// out\n        /* \"#utility.yul\":10753:11172   */\n    tag_94:\n        /* \"#utility.yul\":10919:10923   */\n      0x00\n        /* \"#utility.yul\":10957:10959   */\n      0x20\n        /* \"#utility.yul\":10946:10955   */\n      dup3\n        /* \"#utility.yul\":10942:10960   */\n      add\n        /* \"#utility.yul\":10934:10960   */\n      swap1\n      pop\n        /* \"#utility.yul\":11006:11015   */\n      dup2\n        /* \"#utility.yul\":11000:11004   */\n      dup2\n        /* \"#utility.yul\":10996:11016   */\n      sub\n        /* \"#utility.yul\":10992:10993   */\n      0x00\n        /* \"#utility.yul\":10981:10990   */\n      dup4\n        /* \"#utility.yul\":10977:10994   */\n      add\n        /* \"#utility.yul\":10970:11017   */\n      mstore\n        /* \"#utility.yul\":11034:11165   */\n      tag_308\n        /* \"#utility.yul\":11160:11164   */\n      dup2\n        /* \"#utility.yul\":11034:11165   */\n      tag_279\n      jump\t// in\n    tag_308:\n        /* \"#utility.yul\":11026:11165   */\n      swap1\n      pop\n        /* \"#utility.yul\":10753:11172   */\n      swap2\n      swap1\n      pop\n      jump\t// out\n        /* \"#utility.yul\":11178:11597   */\n    tag_97:\n        /* \"#utility.yul\":11344:11348   */\n      0x00\n        /* \"#utility.yul\":11382:11384   */\n      0x20\n        /* \"#utility.yul\":11371:11380   */\n      dup3\n        /* \"#utility.yul\":11367:11385   */\n      add\n        /* \"#utility.yul\":11359:11385   */\n      swap1\n      pop\n        /* \"#utility.yul\":11431:11440   */\n      dup2\n        /* \"#utility.yul\":11425:11429   */\n      dup2\n        /* \"#utility.yul\":11421:11441   */\n      sub\n        /* \"#utility.yul\":11417:11418   */\n      0x00\n        /* \"#utility.yul\":11406:11415   */\n      dup4\n        /* \"#utility.yul\":11402:11419   */\n      add\n        /* \"#utility.yul\":11395:11442   */\n      mstore\n        /* \"#utility.yul\":11459:11590   */\n      tag_310\n        /* \"#utility.yul\":11585:11589   */\n      dup2\n        /* \"#utility.yul\":11459:11590   */\n      tag_284\n      jump\t// in\n    tag_310:\n        /* \"#utility.yul\":11451:11590   */\n      swap1\n      pop\n        /* \"#utility.yul\":11178:11597   */\n      swap2\n      swap1\n      pop\n      jump\t// out\n        /* \"#utility.yul\":11603:11732   */\n    tag_177:\n        /* \"#utility.yul\":11637:11643   */\n      0x00\n        /* \"#utility.yul\":11664:11684   */\n      tag_312\n      tag_313\n      jump\t// in\n    tag_312:\n        /* \"#utility.yul\":11654:11684   */\n      swap1\n      pop\n        /* \"#utility.yul\":11693:11726   */\n      tag_314\n        /* \"#utility.yul\":11721:11725   */\n      dup3\n        /* \"#utility.yul\":11713:11719   */\n      dup3\n        /* \"#utility.yul\":11693:11726   */\n      tag_315\n      jump\t// in\n    tag_314:\n        /* \"#utility.yul\":11603:11732   */\n      swap2\n      swap1\n      pop\n      jump\t// out\n        /* \"#utility.yul\":11738:11813   */\n    tag_313:\n        /* \"#utility.yul\":11771:11777   */\n      0x00\n        /* \"#utility.yul\":11804:11806   */\n      0x40\n        /* \"#utility.yul\":11798:11807   */\n      mload\n        /* \"#utility.yul\":11788:11807   */\n      swap1\n      pop\n        /* \"#utility.yul\":11738:11813   */\n      swap1\n      jump\t// out\n        /* \"#utility.yul\":11819:12127   */\n    tag_176:\n        /* \"#utility.yul\":11881:11885   */\n      0x00\n        /* \"#utility.yul\":11971:11989   */\n      0xffffffffffffffff\n        /* \"#utility.yul\":11963:11969   */\n      dup3\n        /* \"#utility.yul\":11960:11990   */\n      gt\n        /* \"#utility.yul\":11957:12013   */\n      iszero\n      tag_318\n      jumpi\n        /* \"#utility.yul\":11993:12011   */\n      tag_319\n      tag_320\n      jump\t// in\n    tag_319:\n        /* \"#utility.yul\":11957:12013   */\n    tag_318:\n        /* \"#utility.yul\":12031:12060   */\n      tag_321\n        /* \"#utility.yul\":12053:12059   */\n      dup3\n        /* \"#utility.yul\":12031:12060   */\n      tag_322\n      jump\t// in\n    tag_321:\n        /* \"#utility.yul\":12023:12060   */\n      swap1\n      pop\n        /* \"#utility.yul\":12115:12119   */\n      0x20\n        /* \"#utility.yul\":12109:12113   */\n      dup2\n        /* \"#utility.yul\":12105:12120   */\n      add\n        /* \"#utility.yul\":12097:12120   */\n      swap1\n      pop\n        /* \"#utility.yul\":11819:12127   */\n      swap2\n      swap1\n      pop\n      jump\t// out\n        /* \"#utility.yul\":12133:12265   */\n    tag_229:\n        /* \"#utility.yul\":12200:12204   */\n      0x00\n        /* \"#utility.yul\":12223:12226   */\n      dup2\n        /* \"#utility.yul\":12215:12226   */\n      swap1\n      pop\n        /* \"#utility.yul\":12253:12257   */\n      0x20\n        /* \"#utility.yul\":12248:12251   */\n      dup3\n        /* \"#utility.yul\":12244:12258   */\n      add\n        /* \"#utility.yul\":12236:12258   */\n      swap1\n      pop\n        /* \"#utility.yul\":12133:12265   */\n      swap2\n      swap1\n      pop\n      jump\t// out\n        /* \"#utility.yul\":12271:12385   */\n    tag_225:\n        /* \"#utility.yul\":12338:12344   */\n      0x00\n        /* \"#utility.yul\":12372:12377   */\n      dup2\n        /* \"#utility.yul\":12366:12378   */\n      mload\n        /* \"#utility.yul\":12356:12378   */\n      swap1\n      pop\n        /* \"#utility.yul\":12271:12385   */\n      swap2\n      swap1\n      pop\n      jump\t// out\n        /* \"#utility.yul\":12391:12490   */\n    tag_243:\n        /* \"#utility.yul\":12443:12449   */\n      0x00\n        /* \"#utility.yul\":12477:12482   */\n      dup2\n        /* \"#utility.yul\":12471:12483   */\n      mload\n        /* \"#utility.yul\":12461:12483   */\n      swap1\n      pop\n        /* \"#utility.yul\":12391:12490   */\n      swap2\n      swap1\n      pop\n      jump\t// out\n        /* \"#utility.yul\":12496:12609   */\n    tag_235:\n        /* \"#utility.yul\":12566:12570   */\n      0x00\n        /* \"#utility.yul\":12598:12602   */\n      0x20\n        /* \"#utility.yul\":12593:12596   */\n      dup3\n        /* \"#utility.yul\":12589:12603   */\n      add\n        /* \"#utility.yul\":12581:12603   */\n      swap1\n      pop\n        /* \"#utility.yul\":12496:12609   */\n      swap2\n      swap1\n      pop\n      jump\t// out\n        /* \"#utility.yul\":12615:12799   */\n    tag_227:\n        /* \"#utility.yul\":12714:12725   */\n      0x00\n        /* \"#utility.yul\":12748:12754   */\n      dup3\n        /* \"#utility.yul\":12743:12746   */\n      dup3\n        /* \"#utility.yul\":12736:12755   */\n      mstore\n        /* \"#utility.yul\":12788:12792   */\n      0x20\n        /* \"#utility.yul\":12783:12786   */\n      dup3\n        /* \"#utility.yul\":12779:12793   */\n      add\n        /* \"#utility.yul\":12764:12793   */\n      swap1\n      pop\n        /* \"#utility.yul\":12615:12799   */\n      swap3\n      swap2\n      pop\n      pop\n      jump\t// out\n        /* \"#utility.yul\":12805:12974   */\n    tag_251:\n        /* \"#utility.yul\":12889:12900   */\n      0x00\n        /* \"#utility.yul\":12923:12929   */\n      dup3\n        /* \"#utility.yul\":12918:12921   */\n      dup3\n        /* \"#utility.yul\":12911:12930   */\n      mstore\n        /* \"#utility.yul\":12963:12967   */\n      0x20\n        /* \"#utility.yul\":12958:12961   */\n      dup3\n        /* \"#utility.yul\":12954:12968   */\n      add\n        /* \"#utility.yul\":12939:12968   */\n      swap1\n      pop\n        /* \"#utility.yul\":12805:12974   */\n      swap3\n      swap2\n      pop\n      pop\n      jump\t// out\n        /* \"#utility.yul\":12980:13128   */\n    tag_245:\n        /* \"#utility.yul\":13082:13093   */\n      0x00\n        /* \"#utility.yul\":13119:13122   */\n      dup2\n        /* \"#utility.yul\":13104:13122   */\n      swap1\n      pop\n        /* \"#utility.yul\":12980:13128   */\n      swap3\n      swap2\n      pop\n      pop\n      jump\t// out\n        /* \"#utility.yul\":13134:13230   */\n    tag_221:\n        /* \"#utility.yul\":13171:13178   */\n      0x00\n        /* \"#utility.yul\":13200:13224   */\n      tag_331\n        /* \"#utility.yul\":13218:13223   */\n      dup3\n        /* \"#utility.yul\":13200:13224   */\n      tag_332\n      jump\t// in\n    tag_331:\n        /* \"#utility.yul\":13189:13224   */\n      swap1\n      pop\n        /* \"#utility.yul\":13134:13230   */\n      swap2\n      swap1\n      pop\n      jump\t// out\n        /* \"#utility.yul\":13236:13313   */\n    tag_239:\n        /* \"#utility.yul\":13273:13280   */\n      0x00\n        /* \"#utility.yul\":13302:13307   */\n      dup2\n        /* \"#utility.yul\":13291:13307   */\n      swap1\n      pop\n        /* \"#utility.yul\":13236:13313   */\n      swap2\n      swap1\n      pop\n      jump\t// out\n        /* \"#utility.yul\":13319:13445   */\n    tag_332:\n        /* \"#utility.yul\":13356:13363   */\n      0x00\n        /* \"#utility.yul\":13396:13438   */\n      0xffffffffffffffffffffffffffffffffffffffff\n        /* \"#utility.yul\":13389:13394   */\n      dup3\n        /* \"#utility.yul\":13385:13439   */\n      and\n        /* \"#utility.yul\":13374:13439   */\n      swap1\n      pop\n        /* \"#utility.yul\":13319:13445   */\n      swap2\n      swap1\n      pop\n      jump\t// out\n        /* \"#utility.yul\":13451:13528   */\n    tag_335:\n        /* \"#utility.yul\":13488:13495   */\n      0x00\n        /* \"#utility.yul\":13517:13522   */\n      dup2\n        /* \"#utility.yul\":13506:13522   */\n      swap1\n      pop\n        /* \"#utility.yul\":13451:13528   */\n      swap2\n      swap1\n      pop\n      jump\t// out\n        /* \"#utility.yul\":13534:13688   */\n    tag_182:\n        /* \"#utility.yul\":13618:13624   */\n      dup3\n        /* \"#utility.yul\":13613:13616   */\n      dup2\n        /* \"#utility.yul\":13608:13611   */\n      dup4\n        /* \"#utility.yul\":13595:13625   */\n      calldatacopy\n        /* \"#utility.yul\":13680:13681   */\n      0x00\n        /* \"#utility.yul\":13671:13677   */\n      dup4\n        /* \"#utility.yul\":13666:13669   */\n      dup4\n        /* \"#utility.yul\":13662:13678   */\n      add\n        /* \"#utility.yul\":13655:13682   */\n      mstore\n        /* \"#utility.yul\":13534:13688   */\n      pop\n      pop\n      pop\n      jump\t// out\n        /* \"#utility.yul\":13694:14001   */\n    tag_247:\n        /* \"#utility.yul\":13762:13763   */\n      0x00\n        /* \"#utility.yul\":13772:13885   */\n    tag_339:\n        /* \"#utility.yul\":13786:13792   */\n      dup4\n        /* \"#utility.yul\":13783:13784   */\n      dup2\n        /* \"#utility.yul\":13780:13793   */\n      lt\n        /* \"#utility.yul\":13772:13885   */\n      iszero\n      tag_341\n      jumpi\n        /* \"#utility.yul\":13871:13872   */\n      dup1\n        /* \"#utility.yul\":13866:13869   */\n      dup3\n        /* \"#utility.yul\":13862:13873   */\n      add\n        /* \"#utility.yul\":13856:13874   */\n      mload\n        /* \"#utility.yul\":13852:13853   */\n      dup2\n        /* \"#utility.yul\":13847:13850   */\n      dup5\n        /* \"#utility.yul\":13843:13854   */\n      add\n        /* \"#utility.yul\":13836:13875   */\n      mstore\n        /* \"#utility.yul\":13808:13810   */\n      0x20\n        /* \"#utility.yul\":13805:13806   */\n      dup2\n        /* \"#utility.yul\":13801:13811   */\n      add\n        /* \"#utility.yul\":13796:13811   */\n      swap1\n      pop\n        /* \"#utility.yul\":13772:13885   */\n      jump(tag_339)\n    tag_341:\n        /* \"#utility.yul\":13903:13909   */\n      dup4\n        /* \"#utility.yul\":13900:13901   */\n      dup2\n        /* \"#utility.yul\":13897:13910   */\n      gt\n        /* \"#utility.yul\":13894:13995   */\n      iszero\n      tag_342\n      jumpi\n        /* \"#utility.yul\":13983:13984   */\n      0x00\n        /* \"#utility.yul\":13974:13980   */\n      dup5\n        /* \"#utility.yul\":13969:13972   */\n      dup5\n        /* \"#utility.yul\":13965:13981   */\n      add\n        /* \"#utility.yul\":13958:13985   */\n      mstore\n        /* \"#utility.yul\":13894:13995   */\n    tag_342:\n        /* \"#utility.yul\":13743:14001   */\n      pop\n        /* \"#utility.yul\":13694:14001   */\n      pop\n      pop\n      pop\n      jump\t// out\n        /* \"#utility.yul\":14007:14327   */\n    tag_161:\n        /* \"#utility.yul\":14051:14057   */\n      0x00\n        /* \"#utility.yul\":14088:14089   */\n      0x02\n        /* \"#utility.yul\":14082:14086   */\n      dup3\n        /* \"#utility.yul\":14078:14090   */\n      div\n        /* \"#utility.yul\":14068:14090   */\n      swap1\n      pop\n        /* \"#utility.yul\":14135:14136   */\n      0x01\n        /* \"#utility.yul\":14129:14133   */\n      dup3\n        /* \"#utility.yul\":14125:14137   */\n      and\n        /* \"#utility.yul\":14156:14174   */\n      dup1\n        /* \"#utility.yul\":14146:14227   */\n      tag_344\n      jumpi\n        /* \"#utility.yul\":14212:14216   */\n      0x7f\n        /* \"#utility.yul\":14204:14210   */\n      dup3\n        /* \"#utility.yul\":14200:14217   */\n      and\n        /* \"#utility.yul\":14190:14217   */\n      swap2\n      pop\n        /* \"#utility.yul\":14146:14227   */\n    tag_344:\n        /* \"#utility.yul\":14274:14276   */\n      0x20\n        /* \"#utility.yul\":14266:14272   */\n      dup3\n        /* \"#utility.yul\":14263:14277   */\n      lt\n        /* \"#utility.yul\":14243:14261   */\n      dup2\n        /* \"#utility.yul\":14240:14278   */\n      eq\n        /* \"#utility.yul\":14237:14321   */\n      iszero\n      tag_345\n      jumpi\n        /* \"#utility.yul\":14293:14311   */\n      tag_346\n      tag_347\n      jump\t// in\n    tag_346:\n        /* \"#utility.yul\":14237:14321   */\n    tag_345:\n        /* \"#utility.yul\":14058:14327   */\n      pop\n        /* \"#utility.yul\":14007:14327   */\n      swap2\n      swap1\n      pop\n      jump\t// out\n        /* \"#utility.yul\":14333:14614   */\n    tag_315:\n        /* \"#utility.yul\":14416:14443   */\n      tag_349\n        /* \"#utility.yul\":14438:14442   */\n      dup3\n        /* \"#utility.yul\":14416:14443   */\n      tag_322\n      jump\t// in\n    tag_349:\n        /* \"#utility.yul\":14408:14414   */\n      dup2\n        /* \"#utility.yul\":14404:14444   */\n      add\n        /* \"#utility.yul\":14546:14552   */\n      dup2\n        /* \"#utility.yul\":14534:14544   */\n      dup2\n        /* \"#utility.yul\":14531:14553   */\n      lt\n        /* \"#utility.yul\":14510:14528   */\n      0xffffffffffffffff\n        /* \"#utility.yul\":14498:14508   */\n      dup3\n        /* \"#utility.yul\":14495:14529   */\n      gt\n        /* \"#utility.yul\":14492:14554   */\n      or\n        /* \"#utility.yul\":14489:14577   */\n      iszero\n      tag_350\n      jumpi\n        /* \"#utility.yul\":14557:14575   */\n      tag_351\n      tag_320\n      jump\t// in\n    tag_351:\n        /* \"#utility.yul\":14489:14577   */\n    tag_350:\n        /* \"#utility.yul\":14597:14607   */\n      dup1\n        /* \"#utility.yul\":14593:14595   */\n      0x40\n        /* \"#utility.yul\":14586:14608   */\n      mstore\n        /* \"#utility.yul\":14376:14614   */\n      pop\n        /* \"#utility.yul\":14333:14614   */\n      pop\n      pop\n      jump\t// out\n        /* \"#utility.yul\":14620:14853   */\n    tag_78:\n        /* \"#utility.yul\":14659:14662   */\n      0x00\n        /* \"#utility.yul\":14682:14706   */\n      tag_353\n        /* \"#utility.yul\":14700:14705   */\n      dup3\n        /* \"#utility.yul\":14682:14706   */\n      tag_335\n      jump\t// in\n    tag_353:\n        /* \"#utility.yul\":14673:14706   */\n      swap2\n      pop\n        /* \"#utility.yul\":14728:14794   */\n      0xffffffffffffffffffffffffffffffffffffffffffffffffffffffffffffffff\n        /* \"#utility.yul\":14721:14726   */\n      dup3\n        /* \"#utility.yul\":14718:14795   */\n      eq\n        /* \"#utility.yul\":14715:14818   */\n      iszero\n      tag_354\n      jumpi\n        /* \"#utility.yul\":14798:14816   */\n      tag_355\n      tag_356\n      jump\t// in\n    tag_355:\n        /* \"#utility.yul\":14715:14818   */\n    tag_354:\n        /* \"#utility.yul\":14845:14846   */\n      0x01\n        /* \"#utility.yul\":14838:14843   */\n      dup3\n        /* \"#utility.yul\":14834:14847   */\n      add\n        /* \"#utility.yul\":14827:14847   */\n      swap1\n      pop\n        /* \"#utility.yul\":14620:14853   */\n      swap2\n      swap1\n      pop\n      jump\t// out\n        /* \"#utility.yul\":14859:15039   */\n    tag_356:\n        /* \"#utility.yul\":14907:14984   */\n      0x4e487b7100000000000000000000000000000000000000000000000000000000\n        /* \"#utility.yul\":14904:14905   */\n      0x00\n        /* \"#utility.yul\":14897:14985   */\n      mstore\n        /* \"#utility.yul\":15004:15008   */\n      0x11\n        /* \"#utility.yul\":15001:15002   */\n      0x04\n        /* \"#utility.yul\":14994:15009   */\n      mstore\n        /* \"#utility.yul\":15028:15032   */\n      0x24\n        /* \"#utility.yul\":15025:15026   */\n      0x00\n        /* \"#utility.yul\":15018:15033   */\n      revert\n        /* \"#utility.yul\":15045:15225   */\n    tag_49:\n        /* \"#utility.yul\":15093:15170   */\n      0x4e487b7100000000000000000000000000000000000000000000000000000000\n        /* \"#utility.yul\":15090:15091   */\n      0x00\n        /* \"#utility.yul\":15083:15171   */\n      mstore\n        /* \"#utility.yul\":15190:15194   */\n      0x21\n        /* \"#utility.yul\":15187:15188   */\n      0x04\n        /* \"#utility.yul\":15180:15195   */\n      mstore\n        /* \"#utility.yul\":15214:15218   */\n      0x24\n        /* \"#utility.yul\":15211:15212   */\n      0x00\n        /* \"#utility.yul\":15204:15219   */\n      revert\n        /* \"#utility.yul\":15231:15411   */\n    tag_347:\n        /* \"#utility.yul\":15279:15356   */\n      0x4e487b7100000000000000000000000000000000000000000000000000000000\n        /* \"#utility.yul\":15276:15277   */\n      0x00\n        /* \"#utility.yul\":15269:15357   */\n      mstore\n        /* \"#utility.yul\":15376:15380   */\n      0x22\n        /* \"#utility.yul\":15373:15374   */\n      0x04\n        /* \"#utility.yul\":15366:15381   */\n      mstore\n        /* \"#utility.yul\":15400:15404   */\n      0x24\n        /* \"#utility.yul\":15397:15398   */\n      0x00\n        /* \"#utility.yul\":15390:15405   */\n      revert\n        /* \"#utility.yul\":15417:15597   */\n    tag_72:\n        /* \"#utility.yul\":15465:15542   */\n      0x4e487b7100000000000000000000000000000000000000000000000000000000\n        /* \"#utility.yul\":15462:15463   */\n      0x00\n        /* \"#utility.yul\":15455:15543   */\n      mstore\n        /* \"#utility.yul\":15562:15566   */\n      0x32\n        /* \"#utility.yul\":15559:15560   */\n      0x04\n        /* \"#utility.yul\":15552:15567   */\n      mstore\n        /* \"#utility.yul\":15586:15590   */\n      0x24\n        /* \"#utility.yul\":15583:15584   */\n      0x00\n        /* \"#utility.yul\":15576:15591   */\n      revert\n        /* \"#utility.yul\":15603:15783   */\n    tag_320:\n        /* \"#utility.yul\":15651:15728   */\n      0x4e487b7100000000000000000000000000000000000000000000000000000000\n        /* \"#utility.yul\":15648:15649   */\n      0x00\n        /* \"#utility.yul\":15641:15729   */\n      mstore\n        /* \"#utility.yul\":15748:15752   */\n      0x41\n        /* \"#utility.yul\":15745:15746   */\n      0x04\n        /* \"#utility.yul\":15738:15753   */\n      mstore\n        /* \"#utility.yul\":15772:15776   */\n      0x24\n        /* \"#utility.yul\":15769:15770   */\n      0x00\n        /* \"#utility.yul\":15762:15777   */\n      revert\n        /* \"#utility.yul\":15789:15906   */\n    tag_191:\n        /* \"#utility.yul\":15898:15899   */\n      0x00\n        /* \"#utility.yul\":15895:15896   */\n      dup1\n        /* \"#utility.yul\":15888:15900   */\n      revert\n        /* \"#utility.yul\":15912:16029   */\n    tag_180:\n        /* \"#utility.yul\":16021:16022   */\n      0x00\n        /* \"#utility.yul\":16018:16019   */\n      dup1\n        /* \"#utility.yul\":16011:16023   */\n      revert\n        /* \"#utility.yul\":16035:16152   */\n    tag_203:\n        /* \"#utility.yul\":16144:16145   */\n      0x00\n        /* \"#utility.yul\":16141:16142   */\n      dup1\n        /* \"#utility.yul\":16134:16146   */\n      revert\n        /* \"#utility.yul\":16158:16275   */\n    tag_196:\n        /* \"#utility.yul\":16267:16268   */\n      0x00\n        /* \"#utility.yul\":16264:16265   */\n      dup1\n        /* \"#utility.yul\":16257:16269   */\n      revert\n        /* \"#utility.yul\":16281:16383   */\n    tag_322:\n        /* \"#utility.yul\":16322:16328   */\n      0x00\n        /* \"#utility.yul\":16373:16375   */\n      0x1f\n        /* \"#utility.yul\":16369:16376   */\n      not\n        /* \"#utility.yul\":16364:16366   */\n      0x1f\n        /* \"#utility.yul\":16357:16362   */\n      dup4\n        /* \"#utility.yul\":16353:16367   */\n      add\n        /* \"#utility.yul\":16349:16377   */\n      and\n        /* \"#utility.yul\":16339:16377   */\n      swap1\n      pop\n        /* \"#utility.yul\":16281:16383   */\n      swap2\n      swap1\n      pop\n      jump\t// out\n        /* \"#utility.yul\":16389:16567   */\n    tag_253:\n        /* \"#utility.yul\":16529:16559   */\n      0x52657669657720746865206170706c69636174696f6e20666972737400000000\n        /* \"#utility.yul\":16525:16526   */\n      0x00\n        /* \"#utility.yul\":16517:16523   */\n      dup3\n        /* \"#utility.yul\":16513:16527   */\n      add\n        /* \"#utility.yul\":16506:16560   */\n      mstore\n        /* \"#utility.yul\":16389:16567   */\n      pop\n      jump\t// out\n        /* \"#utility.yul\":16573:16747   */\n    tag_258:\n        /* \"#utility.yul\":16713:16739   */\n      0x4170706c69636174696f6e20616c72656164792073656e740000000000000000\n        /* \"#utility.yul\":16709:16710   */\n      0x00\n        /* \"#utility.yul\":16701:16707   */\n      dup3\n        /* \"#utility.yul\":16697:16711   */\n      add\n        /* \"#utility.yul\":16690:16740   */\n      mstore\n        /* \"#utility.yul\":16573:16747   */\n      pop\n      jump\t// out\n        /* \"#utility.yul\":16753:16982   */\n    tag_263:\n        /* \"#utility.yul\":16893:16927   */\n      0x596f7572206170706c69636174696f6e2068617320616c726561647920626565\n        /* \"#utility.yul\":16889:16890   */\n      0x00\n        /* \"#utility.yul\":16881:16887   */\n      dup3\n        /* \"#utility.yul\":16877:16891   */\n      add\n        /* \"#utility.yul\":16870:16928   */\n      mstore\n        /* \"#utility.yul\":16962:16974   */\n      0x6e2072656a656374656400000000000000000000000000000000000000000000\n        /* \"#utility.yul\":16957:16959   */\n      0x20\n        /* \"#utility.yul\":16949:16955   */\n      dup3\n        /* \"#utility.yul\":16945:16960   */\n      add\n        /* \"#utility.yul\":16938:16975   */\n      mstore\n        /* \"#utility.yul\":16753:16982   */\n      pop\n      jump\t// out\n        /* \"#utility.yul\":16988:17216   */\n    tag_268:\n        /* \"#utility.yul\":17128:17162   */\n      0x596f7520617265206e6f7420746865206f776e6572206f722070726976617465\n        /* \"#utility.yul\":17124:17125   */\n      0x00\n        /* \"#utility.yul\":17116:17122   */\n      dup3\n        /* \"#utility.yul\":17112:17126   */\n      add\n        /* \"#utility.yul\":17105:17163   */\n      mstore\n        /* \"#utility.yul\":17197:17208   */\n      0x2070726f76696465720000000000000000000000000000000000000000000000\n        /* \"#utility.yul\":17192:17194   */\n      0x20\n        /* \"#utility.yul\":17184:17190   */\n      dup3\n        /* \"#utility.yul\":17180:17195   */\n      add\n        /* \"#utility.yul\":17173:17209   */\n      mstore\n        /* \"#utility.yul\":16988:17216   */\n      pop\n      jump\t// out\n        /* \"#utility.yul\":17222:17386   */\n    tag_273:\n        /* \"#utility.yul\":17362:17378   */\n      0x596f7572206e6f742061646d696e000000000000000000000000000000000000\n        /* \"#utility.yul\":17358:17359   */\n      0x00\n        /* \"#utility.yul\":17350:17356   */\n      dup3\n        /* \"#utility.yul\":17346:17360   */\n      add\n        /* \"#utility.yul\":17339:17379   */\n      mstore\n        /* \"#utility.yul\":17222:17386   */\n      pop\n      jump\t// out\n        /* \"#utility.yul\":17392:17567   */\n    tag_278:\n        /* \"#utility.yul\":17532:17559   */\n      0x596f7572206e6f7420507269766174652070726f766964657200000000000000\n        /* \"#utility.yul\":17528:17529   */\n      0x00\n        /* \"#utility.yul\":17520:17526   */\n      dup3\n        /* \"#utility.yul\":17516:17530   */\n      add\n        /* \"#utility.yul\":17509:17560   */\n      mstore\n        /* \"#utility.yul\":17392:17567   */\n      pop\n      jump\t// out\n        /* \"#utility.yul\":17573:17746   */\n    tag_283:\n        /* \"#utility.yul\":17713:17738   */\n      0x4170706c69636174696f6e20706861736520656e646564000000000000000000\n        /* \"#utility.yul\":17709:17710   */\n      0x00\n        /* \"#utility.yul\":17701:17707   */\n      dup3\n        /* \"#utility.yul\":17697:17711   */\n      add\n        /* \"#utility.yul\":17690:17739   */\n      mstore\n        /* \"#utility.yul\":17573:17746   */\n      pop\n      jump\t// out\n        /* \"#utility.yul\":17752:17994   */\n    tag_288:\n        /* \"#utility.yul\":17892:17926   */\n      0x596f752063616e27742073656e6420616e206170706c69636174696f6e20746f\n        /* \"#utility.yul\":17888:17889   */\n      0x00\n        /* \"#utility.yul\":17880:17886   */\n      dup3\n        /* \"#utility.yul\":17876:17890   */\n      add\n        /* \"#utility.yul\":17869:17927   */\n      mstore\n        /* \"#utility.yul\":17961:17986   */\n      0x20736f6d656f6e6520656c736527732061646472657373000000000000000000\n        /* \"#utility.yul\":17956:17958   */\n      0x20\n        /* \"#utility.yul\":17948:17954   */\n      dup3\n        /* \"#utility.yul\":17944:17959   */\n      add\n        /* \"#utility.yul\":17937:17987   */\n      mstore\n        /* \"#utility.yul\":17752:17994   */\n      pop\n      jump\t// out\n        /* \"#utility.yul\":18000:18122   */\n    tag_186:\n        /* \"#utility.yul\":18073:18097   */\n      tag_376\n        /* \"#utility.yul\":18091:18096   */\n      dup2\n        /* \"#utility.yul\":18073:18097   */\n      tag_221\n      jump\t// in\n    tag_376:\n        /* \"#utility.yul\":18066:18071   */\n      dup2\n        /* \"#utility.yul\":18063:18098   */\n      eq\n        /* \"#utility.yul\":18053:18116   */\n      tag_377\n      jumpi\n        /* \"#utility.yul\":18112:18113   */\n      0x00\n        /* \"#utility.yul\":18109:18110   */\n      dup1\n        /* \"#utility.yul\":18102:18114   */\n      revert\n        /* \"#utility.yul\":18053:18116   */\n    tag_377:\n        /* \"#utility.yul\":18000:18122   */\n      pop\n      jump\t// out\n\n    auxdata: 0xa2646970667358221220f6d94b34c4ad727d8dd87311390e77c6b286b0034fe79308933e32f8fdb345ea64736f6c63430008070033\n}\n",
				"bytecode": {
					"linkReferences": {},
					"object": "608060405234801561001057600080fd5b50611bbe806100206000396000f3fe608060405234801561001057600080fd5b50600436106100935760003560e01c80637f89128f116100665780637f89128f1461010c5780638e4f8c6b1461012a578063a678b65b1461015a578063c10e391114610176578063ed842d851461019457610093565b80631d3eea3514610098578063506a222c146100b4578063686c4cea146100d2578063785963c3146100f0575b600080fd5b6100b260048036038101906100ad919061128b565b6101b0565b005b6100bc610359565b6040516100c99190611580565b60405180910390f35b6100da61053c565b6040516100e79190611580565b60405180910390f35b61010a60048036038101906101059190611301565b61067f565b005b610114610b5b565b6040516101219190611580565b60405180910390f35b610144600480360381019061013f91906112b8565b610c9e565b60405161015191906115a2565b60405180910390f35b610174600480360381019061016f919061128b565b610cce565b005b61017e610f3d565b60405161018b9190611580565b60405180910390f35b6101ae60048036038101906101a9919061128b565b6110fd565b005b600260048111156101c4576101c36118d6565b5b6000803373ffffffffffffffffffffffffffffffffffffffff1673ffffffffffffffffffffffffffffffffffffffff16815260200190815260200160002060000160009054906101000a900460ff166004811115610225576102246118d6565b5b14610265576040517f08c379a000000000000000000000000000000000000000000000000000000000815260040161025c9061165d565b60405180910390fd5b60001515600260003373ffffffffffffffffffffffffffffffffffffffff1673ffffffffffffffffffffffffffffffffffffffff16815260200190815260200160002060020160159054906101000a900460ff161515146102fb576040517f08c379a00000000000000000000000000000000000000000000000000000000081526004016102f2906115bd565b60405180910390fd5b6000600260008373ffffffffffffffffffffffffffffffffffffffff1673ffffffffffffffffffffffffffffffffffffffff16815260200190815260200160002060020160146101000a81548160ff02191690831515021790555050565b60606002600481111561036f5761036e6118d6565b5b6000803373ffffffffffffffffffffffffffffffffffffffff1673ffffffffffffffffffffffffffffffffffffffff16815260200190815260200160002060000160009054906101000a900460ff1660048111156103d0576103cf6118d6565b5b14610410576040517f08c379a00000000000000000000000000000000000000000000000000000000081526004016104079061165d565b60405180910390fd5b606060005b600380549050811015610534576000806003838154811061043957610438611934565b5b9060005260206000200160009054906101000a900473ffffffffffffffffffffffffffffffffffffffff16905060001515600260008373ffffffffffffffffffffffffffffffffffffffff1673ffffffffffffffffffffffffffffffffffffffff16815260200190815260200160002060020160159054906101000a900460ff161515141561051f57808483815181106104d6576104d5611934565b5b602002602001019073ffffffffffffffffffffffffffffffffffffffff16908173ffffffffffffffffffffffffffffffffffffffff1681525050818061051b9061185e565b9250505b5050808061052c9061185e565b915050610415565b508091505090565b606060026004811115610552576105516118d6565b5b6000803373ffffffffffffffffffffffffffffffffffffffff1673ffffffffffffffffffffffffffffffffffffffff16815260200190815260200160002060000160009054906101000a900460ff1660048111156105b3576105b26118d6565b5b146105f3576040517f08c379a00000000000000000000000000000000000000000000000000000000081526004016105ea9061165d565b60405180910390fd5b600380548060200260200160405190810160405280929190818152602001828054801561067557602002820191906000526020600020905b8160009054906101000a900473ffffffffffffffffffffffffffffffffffffffff1673ffffffffffffffffffffffffffffffffffffffff168152602001906001019080831161062b575b5050505050905090565b60008015156001600073ab8483f64d9c6d1ecf9b849ae677dd3315835cb273ffffffffffffffffffffffffffffffffffffffff1673ffffffffffffffffffffffffffffffffffffffff16815260200190815260200160002060000160009054906101000a900460ff16151514801561075e5750600015156001600073ab8483f64d9c6d1ecf9b849ae677dd3315835cb273ffffffffffffffffffffffffffffffffffffffff1673ffffffffffffffffffffffffffffffffffffffff16815260200190815260200160002060000160009054906101000a900460ff161515145b61079d576040517f08c379a00000000000000000000000000000000000000000000000000000000081526004016107949061167d565b60405180910390fd5b8173ffffffffffffffffffffffffffffffffffffffff163373ffffffffffffffffffffffffffffffffffffffff161461080b576040517f08c379a00000000000000000000000000000000000000000000000000000000081526004016108029061169d565b60405180910390fd5b60005b6003805490508110156108ec573373ffffffffffffffffffffffffffffffffffffffff166003828154811061084657610845611934565b5b9060005260206000200160009054906101000a900473ffffffffffffffffffffffffffffffffffffffff1673ffffffffffffffffffffffffffffffffffffffff16141561089257600191505b60001515821515146108d9576040517f08c379a00000000000000000000000000000000000000000000000000000000081526004016108d0906115dd565b60405180910390fd5b80806108e49061185e565b91505061080e565b5060001515600260003373ffffffffffffffffffffffffffffffffffffffff1673ffffffffffffffffffffffffffffffffffffffff16815260200190815260200160002060020160149054906101000a900460ff16151514610983576040517f08c379a000000000000000000000000000000000000000000000000000000000815260040161097a906115fd565b60405180910390fd5b6040518060c001604052808581526020018481526020018373ffffffffffffffffffffffffffffffffffffffff16815260200160011515815260200160001515815260200160011515815250600260003373ffffffffffffffffffffffffffffffffffffffff1673ffffffffffffffffffffffffffffffffffffffff1681526020019081526020016000206000820151816000019080519060200190610a2a929190611163565b506020820151816001019080519060200190610a47929190611163565b5060408201518160020160006101000a81548173ffffffffffffffffffffffffffffffffffffffff021916908373ffffffffffffffffffffffffffffffffffffffff16021790555060608201518160020160146101000a81548160ff02191690831515021790555060808201518160020160156101000a81548160ff02191690831515021790555060a08201518160020160166101000a81548160ff0219169083151502179055509050506003339080600181540180825580915050600190039060005260206000200160009091909190916101000a81548173ffffffffffffffffffffffffffffffffffffffff021916908373ffffffffffffffffffffffffffffffffffffffff16021790555050505050565b606060006004811115610b7157610b706118d6565b5b6000803373ffffffffffffffffffffffffffffffffffffffff1673ffffffffffffffffffffffffffffffffffffffff16815260200190815260200160002060000160009054906101000a900460ff166004811115610bd257610bd16118d6565b5b14610c12576040517f08c379a0000000000000000000000000000000000000000000000000000000008152600401610c099061163d565b60405180910390fd5b6005805480602002602001604051908101604052809291908181526020018280548015610c9457602002820191906000526020600020905b8160009054906101000a900473ffffffffffffffffffffffffffffffffffffffff1673ffffffffffffffffffffffffffffffffffffffff1681526020019060010190808311610c4a575b5050505050905090565b600081604051602001610cb19190611569565b604051602081830303815290604052805190602001209050919050565b60026004811115610ce257610ce16118d6565b5b6000803373ffffffffffffffffffffffffffffffffffffffff1673ffffffffffffffffffffffffffffffffffffffff16815260200190815260200160002060000160009054906101000a900460ff166004811115610d4357610d426118d6565b5b14610d83576040517f08c379a0000000000000000000000000000000000000000000000000000000008152600401610d7a9061165d565b60405180910390fd5b60001515600260003373ffffffffffffffffffffffffffffffffffffffff1673ffffffffffffffffffffffffffffffffffffffff16815260200190815260200160002060020160159054906101000a900460ff16151514610e19576040517f08c379a0000000000000000000000000000000000000000000000000000000008152600401610e10906115bd565b60405180910390fd5b6000600260008373ffffffffffffffffffffffffffffffffffffffff1673ffffffffffffffffffffffffffffffffffffffff16815260200190815260200160002060020160146101000a81548160ff0219169083151502179055506003819080600181540180825580915050600190039060005260206000200160009091909190916101000a81548173ffffffffffffffffffffffffffffffffffffffff021916908373ffffffffffffffffffffffffffffffffffffffff1602179055506004819080600181540180825580915050600190039060005260206000200160009091909190916101000a81548173ffffffffffffffffffffffffffffffffffffffff021916908373ffffffffffffffffffffffffffffffffffffffff16021790555050565b606060006004811115610f5357610f526118d6565b5b6000803373ffffffffffffffffffffffffffffffffffffffff1673ffffffffffffffffffffffffffffffffffffffff16815260200190815260200160002060000160009054906101000a900460ff166004811115610fb457610fb36118d6565b5b1480611032575060026004811115610fcf57610fce6118d6565b5b6000803373ffffffffffffffffffffffffffffffffffffffff1673ffffffffffffffffffffffffffffffffffffffff16815260200190815260200160002060000160009054906101000a900460ff1660048111156110305761102f6118d6565b5b145b611071576040517f08c379a00000000000000000000000000000000000000000000000000000000081526004016110689061161d565b60405180910390fd5b60048054806020026020016040519081016040528092919081815260200182805480156110f357602002820191906000526020600020905b8160009054906101000a900473ffffffffffffffffffffffffffffffffffffffff1673ffffffffffffffffffffffffffffffffffffffff16815260200190600101908083116110a9575b5050505050905090565b6006819080600181540180825580915050600190039060005260206000200160009091909190916101000a81548173ffffffffffffffffffffffffffffffffffffffff021916908373ffffffffffffffffffffffffffffffffffffffff16021790555050565b82805461116f906117fb565b90600052602060002090601f01602090048101928261119157600085556111d8565b82601f106111aa57805160ff19168380011785556111d8565b828001600101855582156111d8579182015b828111156111d75782518255916020019190600101906111bc565b5b5090506111e591906111e9565b5090565b5b808211156112025760008160009055506001016111ea565b5090565b6000611219611214846116e2565b6116bd565b90508281526020810184848401111561123557611234611997565b5b6112408482856117b9565b509392505050565b60008135905061125781611b71565b92915050565b600082601f83011261127257611271611992565b5b8135611282848260208601611206565b91505092915050565b6000602082840312156112a1576112a06119a1565b5b60006112af84828501611248565b91505092915050565b6000602082840312156112ce576112cd6119a1565b5b600082013567ffffffffffffffff8111156112ec576112eb61199c565b5b6112f88482850161125d565b91505092915050565b60008060006060848603121561131a576113196119a1565b5b600084013567ffffffffffffffff8111156113385761133761199c565b5b6113448682870161125d565b935050602084013567ffffffffffffffff8111156113655761136461199c565b5b6113718682870161125d565b925050604061138286828701611248565b9150509250925092565b600061139883836113a4565b60208301905092915050565b6113ad81611773565b82525050565b60006113be82611723565b6113c88185611746565b93506113d383611713565b8060005b838110156114045781516113eb888261138c565b97506113f683611739565b9250506001810190506113d7565b5085935050505092915050565b61141a81611785565b82525050565b600061142b8261172e565b6114358185611768565b93506114458185602086016117c8565b80840191505092915050565b600061145e601c83611757565b9150611469826119b7565b602082019050919050565b6000611481601883611757565b915061148c826119e0565b602082019050919050565b60006114a4602a83611757565b91506114af82611a09565b604082019050919050565b60006114c7602983611757565b91506114d282611a58565b604082019050919050565b60006114ea600e83611757565b91506114f582611aa7565b602082019050919050565b600061150d601983611757565b915061151882611ad0565b602082019050919050565b6000611530601783611757565b915061153b82611af9565b602082019050919050565b6000611553603783611757565b915061155e82611b22565b604082019050919050565b60006115758284611420565b915081905092915050565b6000602082019050818103600083015261159a81846113b3565b905092915050565b60006020820190506115b76000830184611411565b92915050565b600060208201905081810360008301526115d681611451565b9050919050565b600060208201905081810360008301526115f681611474565b9050919050565b6000602082019050818103600083015261161681611497565b9050919050565b60006020820190508181036000830152611636816114ba565b9050919050565b60006020820190508181036000830152611656816114dd565b9050919050565b6000602082019050818103600083015261167681611500565b9050919050565b6000602082019050818103600083015261169681611523565b9050919050565b600060208201905081810360008301526116b681611546565b9050919050565b60006116c76116d8565b90506116d3828261182d565b919050565b6000604051905090565b600067ffffffffffffffff8211156116fd576116fc611963565b5b611706826119a6565b9050602081019050919050565b6000819050602082019050919050565b600081519050919050565b600081519050919050565b6000602082019050919050565b600082825260208201905092915050565b600082825260208201905092915050565b600081905092915050565b600061177e8261178f565b9050919050565b6000819050919050565b600073ffffffffffffffffffffffffffffffffffffffff82169050919050565b6000819050919050565b82818337600083830152505050565b60005b838110156117e65780820151818401526020810190506117cb565b838111156117f5576000848401525b50505050565b6000600282049050600182168061181357607f821691505b6020821081141561182757611826611905565b5b50919050565b611836826119a6565b810181811067ffffffffffffffff8211171561185557611854611963565b5b80604052505050565b6000611869826117af565b91507fffffffffffffffffffffffffffffffffffffffffffffffffffffffffffffffff82141561189c5761189b6118a7565b5b600182019050919050565b7f4e487b7100000000000000000000000000000000000000000000000000000000600052601160045260246000fd5b7f4e487b7100000000000000000000000000000000000000000000000000000000600052602160045260246000fd5b7f4e487b7100000000000000000000000000000000000000000000000000000000600052602260045260246000fd5b7f4e487b7100000000000000000000000000000000000000000000000000000000600052603260045260246000fd5b7f4e487b7100000000000000000000000000000000000000000000000000000000600052604160045260246000fd5b600080fd5b600080fd5b600080fd5b600080fd5b6000601f19601f8301169050919050565b7f52657669657720746865206170706c69636174696f6e20666972737400000000600082015250565b7f4170706c69636174696f6e20616c72656164792073656e740000000000000000600082015250565b7f596f7572206170706c69636174696f6e2068617320616c72656164792062656560008201527f6e2072656a656374656400000000000000000000000000000000000000000000602082015250565b7f596f7520617265206e6f7420746865206f776e6572206f72207072697661746560008201527f2070726f76696465720000000000000000000000000000000000000000000000602082015250565b7f596f7572206e6f742061646d696e000000000000000000000000000000000000600082015250565b7f596f7572206e6f7420507269766174652070726f766964657200000000000000600082015250565b7f4170706c69636174696f6e20706861736520656e646564000000000000000000600082015250565b7f596f752063616e27742073656e6420616e206170706c69636174696f6e20746f60008201527f20736f6d656f6e6520656c736527732061646472657373000000000000000000602082015250565b611b7a81611773565b8114611b8557600080fd5b5056fea2646970667358221220f6d94b34c4ad727d8dd87311390e77c6b286b0034fe79308933e32f8fdb345ea64736f6c63430008070033",
					"opcodes": "PUSH1 0x80 PUSH1 0x40 MSTORE CALLVALUE DUP1 ISZERO PUSH2 0x10 JUMPI PUSH1 0x0 DUP1 REVERT JUMPDEST POP PUSH2 0x1BBE DUP1 PUSH2 0x20 PUSH1 0x0 CODECOPY PUSH1 0x0 RETURN INVALID PUSH1 0x80 PUSH1 0x40 MSTORE CALLVALUE DUP1 ISZERO PUSH2 0x10 JUMPI PUSH1 0x0 DUP1 REVERT JUMPDEST POP PUSH1 0x4 CALLDATASIZE LT PUSH2 0x93 JUMPI PUSH1 0x0 CALLDATALOAD PUSH1 0xE0 SHR DUP1 PUSH4 0x7F89128F GT PUSH2 0x66 JUMPI DUP1 PUSH4 0x7F89128F EQ PUSH2 0x10C JUMPI DUP1 PUSH4 0x8E4F8C6B EQ PUSH2 0x12A JUMPI DUP1 PUSH4 0xA678B65B EQ PUSH2 0x15A JUMPI DUP1 PUSH4 0xC10E3911 EQ PUSH2 0x176 JUMPI DUP1 PUSH4 0xED842D85 EQ PUSH2 0x194 JUMPI PUSH2 0x93 JUMP JUMPDEST DUP1 PUSH4 0x1D3EEA35 EQ PUSH2 0x98 JUMPI DUP1 PUSH4 0x506A222C EQ PUSH2 0xB4 JUMPI DUP1 PUSH4 0x686C4CEA EQ PUSH2 0xD2 JUMPI DUP1 PUSH4 0x785963C3 EQ PUSH2 0xF0 JUMPI JUMPDEST PUSH1 0x0 DUP1 REVERT JUMPDEST PUSH2 0xB2 PUSH1 0x4 DUP1 CALLDATASIZE SUB DUP2 ADD SWAP1 PUSH2 0xAD SWAP2 SWAP1 PUSH2 0x128B JUMP JUMPDEST PUSH2 0x1B0 JUMP JUMPDEST STOP JUMPDEST PUSH2 0xBC PUSH2 0x359 JUMP JUMPDEST PUSH1 0x40 MLOAD PUSH2 0xC9 SWAP2 SWAP1 PUSH2 0x1580 JUMP JUMPDEST PUSH1 0x40 MLOAD DUP1 SWAP2 SUB SWAP1 RETURN JUMPDEST PUSH2 0xDA PUSH2 0x53C JUMP JUMPDEST PUSH1 0x40 MLOAD PUSH2 0xE7 SWAP2 SWAP1 PUSH2 0x1580 JUMP JUMPDEST PUSH1 0x40 MLOAD DUP1 SWAP2 SUB SWAP1 RETURN JUMPDEST PUSH2 0x10A PUSH1 0x4 DUP1 CALLDATASIZE SUB DUP2 ADD SWAP1 PUSH2 0x105 SWAP2 SWAP1 PUSH2 0x1301 JUMP JUMPDEST PUSH2 0x67F JUMP JUMPDEST STOP JUMPDEST PUSH2 0x114 PUSH2 0xB5B JUMP JUMPDEST PUSH1 0x40 MLOAD PUSH2 0x121 SWAP2 SWAP1 PUSH2 0x1580 JUMP JUMPDEST PUSH1 0x40 MLOAD DUP1 SWAP2 SUB SWAP1 RETURN JUMPDEST PUSH2 0x144 PUSH1 0x4 DUP1 CALLDATASIZE SUB DUP2 ADD SWAP1 PUSH2 0x13F SWAP2 SWAP1 PUSH2 0x12B8 JUMP JUMPDEST PUSH2 0xC9E JUMP JUMPDEST PUSH1 0x40 MLOAD PUSH2 0x151 SWAP2 SWAP1 PUSH2 0x15A2 JUMP JUMPDEST PUSH1 0x40 MLOAD DUP1 SWAP2 SUB SWAP1 RETURN JUMPDEST PUSH2 0x174 PUSH1 0x4 DUP1 CALLDATASIZE SUB DUP2 ADD SWAP1 PUSH2 0x16F SWAP2 SWAP1 PUSH2 0x128B JUMP JUMPDEST PUSH2 0xCCE JUMP JUMPDEST STOP JUMPDEST PUSH2 0x17E PUSH2 0xF3D JUMP JUMPDEST PUSH1 0x40 MLOAD PUSH2 0x18B SWAP2 SWAP1 PUSH2 0x1580 JUMP JUMPDEST PUSH1 0x40 MLOAD DUP1 SWAP2 SUB SWAP1 RETURN JUMPDEST PUSH2 0x1AE PUSH1 0x4 DUP1 CALLDATASIZE SUB DUP2 ADD SWAP1 PUSH2 0x1A9 SWAP2 SWAP1 PUSH2 0x128B JUMP JUMPDEST PUSH2 0x10FD JUMP JUMPDEST STOP JUMPDEST PUSH1 0x2 PUSH1 0x4 DUP2 GT ISZERO PUSH2 0x1C4 JUMPI PUSH2 0x1C3 PUSH2 0x18D6 JUMP JUMPDEST JUMPDEST PUSH1 0x0 DUP1 CALLER PUSH20 0xFFFFFFFFFFFFFFFFFFFFFFFFFFFFFFFFFFFFFFFF AND PUSH20 0xFFFFFFFFFFFFFFFFFFFFFFFFFFFFFFFFFFFFFFFF AND DUP2 MSTORE PUSH1 0x20 ADD SWAP1 DUP2 MSTORE PUSH1 0x20 ADD PUSH1 0x0 KECCAK256 PUSH1 0x0 ADD PUSH1 0x0 SWAP1 SLOAD SWAP1 PUSH2 0x100 EXP SWAP1 DIV PUSH1 0xFF AND PUSH1 0x4 DUP2 GT ISZERO PUSH2 0x225 JUMPI PUSH2 0x224 PUSH2 0x18D6 JUMP JUMPDEST JUMPDEST EQ PUSH2 0x265 JUMPI PUSH1 0x40 MLOAD PUSH32 0x8C379A000000000000000000000000000000000000000000000000000000000 DUP2 MSTORE PUSH1 0x4 ADD PUSH2 0x25C SWAP1 PUSH2 0x165D JUMP JUMPDEST PUSH1 0x40 MLOAD DUP1 SWAP2 SUB SWAP1 REVERT JUMPDEST PUSH1 0x0 ISZERO ISZERO PUSH1 0x2 PUSH1 0x0 CALLER PUSH20 0xFFFFFFFFFFFFFFFFFFFFFFFFFFFFFFFFFFFFFFFF AND PUSH20 0xFFFFFFFFFFFFFFFFFFFFFFFFFFFFFFFFFFFFFFFF AND DUP2 MSTORE PUSH1 0x20 ADD SWAP1 DUP2 MSTORE PUSH1 0x20 ADD PUSH1 0x0 KECCAK256 PUSH1 0x2 ADD PUSH1 0x15 SWAP1 SLOAD SWAP1 PUSH2 0x100 EXP SWAP1 DIV PUSH1 0xFF AND ISZERO ISZERO EQ PUSH2 0x2FB JUMPI PUSH1 0x40 MLOAD PUSH32 0x8C379A000000000000000000000000000000000000000000000000000000000 DUP2 MSTORE PUSH1 0x4 ADD PUSH2 0x2F2 SWAP1 PUSH2 0x15BD JUMP JUMPDEST PUSH1 0x40 MLOAD DUP1 SWAP2 SUB SWAP1 REVERT JUMPDEST PUSH1 0x0 PUSH1 0x2 PUSH1 0x0 DUP4 PUSH20 0xFFFFFFFFFFFFFFFFFFFFFFFFFFFFFFFFFFFFFFFF AND PUSH20 0xFFFFFFFFFFFFFFFFFFFFFFFFFFFFFFFFFFFFFFFF AND DUP2 MSTORE PUSH1 0x20 ADD SWAP1 DUP2 MSTORE PUSH1 0x20 ADD PUSH1 0x0 KECCAK256 PUSH1 0x2 ADD PUSH1 0x14 PUSH2 0x100 EXP DUP2 SLOAD DUP2 PUSH1 0xFF MUL NOT AND SWAP1 DUP4 ISZERO ISZERO MUL OR SWAP1 SSTORE POP POP JUMP JUMPDEST PUSH1 0x60 PUSH1 0x2 PUSH1 0x4 DUP2 GT ISZERO PUSH2 0x36F JUMPI PUSH2 0x36E PUSH2 0x18D6 JUMP JUMPDEST JUMPDEST PUSH1 0x0 DUP1 CALLER PUSH20 0xFFFFFFFFFFFFFFFFFFFFFFFFFFFFFFFFFFFFFFFF AND PUSH20 0xFFFFFFFFFFFFFFFFFFFFFFFFFFFFFFFFFFFFFFFF AND DUP2 MSTORE PUSH1 0x20 ADD SWAP1 DUP2 MSTORE PUSH1 0x20 ADD PUSH1 0x0 KECCAK256 PUSH1 0x0 ADD PUSH1 0x0 SWAP1 SLOAD SWAP1 PUSH2 0x100 EXP SWAP1 DIV PUSH1 0xFF AND PUSH1 0x4 DUP2 GT ISZERO PUSH2 0x3D0 JUMPI PUSH2 0x3CF PUSH2 0x18D6 JUMP JUMPDEST JUMPDEST EQ PUSH2 0x410 JUMPI PUSH1 0x40 MLOAD PUSH32 0x8C379A000000000000000000000000000000000000000000000000000000000 DUP2 MSTORE PUSH1 0x4 ADD PUSH2 0x407 SWAP1 PUSH2 0x165D JUMP JUMPDEST PUSH1 0x40 MLOAD DUP1 SWAP2 SUB SWAP1 REVERT JUMPDEST PUSH1 0x60 PUSH1 0x0 JUMPDEST PUSH1 0x3 DUP1 SLOAD SWAP1 POP DUP2 LT ISZERO PUSH2 0x534 JUMPI PUSH1 0x0 DUP1 PUSH1 0x3 DUP4 DUP2 SLOAD DUP2 LT PUSH2 0x439 JUMPI PUSH2 0x438 PUSH2 0x1934 JUMP JUMPDEST JUMPDEST SWAP1 PUSH1 0x0 MSTORE PUSH1 0x20 PUSH1 0x0 KECCAK256 ADD PUSH1 0x0 SWAP1 SLOAD SWAP1 PUSH2 0x100 EXP SWAP1 DIV PUSH20 0xFFFFFFFFFFFFFFFFFFFFFFFFFFFFFFFFFFFFFFFF AND SWAP1 POP PUSH1 0x0 ISZERO ISZERO PUSH1 0x2 PUSH1 0x0 DUP4 PUSH20 0xFFFFFFFFFFFFFFFFFFFFFFFFFFFFFFFFFFFFFFFF AND PUSH20 0xFFFFFFFFFFFFFFFFFFFFFFFFFFFFFFFFFFFFFFFF AND DUP2 MSTORE PUSH1 0x20 ADD SWAP1 DUP2 MSTORE PUSH1 0x20 ADD PUSH1 0x0 KECCAK256 PUSH1 0x2 ADD PUSH1 0x15 SWAP1 SLOAD SWAP1 PUSH2 0x100 EXP SWAP1 DIV PUSH1 0xFF AND ISZERO ISZERO EQ ISZERO PUSH2 0x51F JUMPI DUP1 DUP5 DUP4 DUP2 MLOAD DUP2 LT PUSH2 0x4D6 JUMPI PUSH2 0x4D5 PUSH2 0x1934 JUMP JUMPDEST JUMPDEST PUSH1 0x20 MUL PUSH1 0x20 ADD ADD SWAP1 PUSH20 0xFFFFFFFFFFFFFFFFFFFFFFFFFFFFFFFFFFFFFFFF AND SWAP1 DUP2 PUSH20 0xFFFFFFFFFFFFFFFFFFFFFFFFFFFFFFFFFFFFFFFF AND DUP2 MSTORE POP POP DUP2 DUP1 PUSH2 0x51B SWAP1 PUSH2 0x185E JUMP JUMPDEST SWAP3 POP POP JUMPDEST POP POP DUP1 DUP1 PUSH2 0x52C SWAP1 PUSH2 0x185E JUMP JUMPDEST SWAP2 POP POP PUSH2 0x415 JUMP JUMPDEST POP DUP1 SWAP2 POP POP SWAP1 JUMP JUMPDEST PUSH1 0x60 PUSH1 0x2 PUSH1 0x4 DUP2 GT ISZERO PUSH2 0x552 JUMPI PUSH2 0x551 PUSH2 0x18D6 JUMP JUMPDEST JUMPDEST PUSH1 0x0 DUP1 CALLER PUSH20 0xFFFFFFFFFFFFFFFFFFFFFFFFFFFFFFFFFFFFFFFF AND PUSH20 0xFFFFFFFFFFFFFFFFFFFFFFFFFFFFFFFFFFFFFFFF AND DUP2 MSTORE PUSH1 0x20 ADD SWAP1 DUP2 MSTORE PUSH1 0x20 ADD PUSH1 0x0 KECCAK256 PUSH1 0x0 ADD PUSH1 0x0 SWAP1 SLOAD SWAP1 PUSH2 0x100 EXP SWAP1 DIV PUSH1 0xFF AND PUSH1 0x4 DUP2 GT ISZERO PUSH2 0x5B3 JUMPI PUSH2 0x5B2 PUSH2 0x18D6 JUMP JUMPDEST JUMPDEST EQ PUSH2 0x5F3 JUMPI PUSH1 0x40 MLOAD PUSH32 0x8C379A000000000000000000000000000000000000000000000000000000000 DUP2 MSTORE PUSH1 0x4 ADD PUSH2 0x5EA SWAP1 PUSH2 0x165D JUMP JUMPDEST PUSH1 0x40 MLOAD DUP1 SWAP2 SUB SWAP1 REVERT JUMPDEST PUSH1 0x3 DUP1 SLOAD DUP1 PUSH1 0x20 MUL PUSH1 0x20 ADD PUSH1 0x40 MLOAD SWAP1 DUP2 ADD PUSH1 0x40 MSTORE DUP1 SWAP3 SWAP2 SWAP1 DUP2 DUP2 MSTORE PUSH1 0x20 ADD DUP3 DUP1 SLOAD DUP1 ISZERO PUSH2 0x675 JUMPI PUSH1 0x20 MUL DUP3 ADD SWAP2 SWAP1 PUSH1 0x0 MSTORE PUSH1 0x20 PUSH1 0x0 KECCAK256 SWAP1 JUMPDEST DUP2 PUSH1 0x0 SWAP1 SLOAD SWAP1 PUSH2 0x100 EXP SWAP1 DIV PUSH20 0xFFFFFFFFFFFFFFFFFFFFFFFFFFFFFFFFFFFFFFFF AND PUSH20 0xFFFFFFFFFFFFFFFFFFFFFFFFFFFFFFFFFFFFFFFF AND DUP2 MSTORE PUSH1 0x20 ADD SWAP1 PUSH1 0x1 ADD SWAP1 DUP1 DUP4 GT PUSH2 0x62B JUMPI JUMPDEST POP POP POP POP POP SWAP1 POP SWAP1 JUMP JUMPDEST PUSH1 0x0 DUP1 ISZERO ISZERO PUSH1 0x1 PUSH1 0x0 PUSH20 0xAB8483F64D9C6D1ECF9B849AE677DD3315835CB2 PUSH20 0xFFFFFFFFFFFFFFFFFFFFFFFFFFFFFFFFFFFFFFFF AND PUSH20 0xFFFFFFFFFFFFFFFFFFFFFFFFFFFFFFFFFFFFFFFF AND DUP2 MSTORE PUSH1 0x20 ADD SWAP1 DUP2 MSTORE PUSH1 0x20 ADD PUSH1 0x0 KECCAK256 PUSH1 0x0 ADD PUSH1 0x0 SWAP1 SLOAD SWAP1 PUSH2 0x100 EXP SWAP1 DIV PUSH1 0xFF AND ISZERO ISZERO EQ DUP1 ISZERO PUSH2 0x75E JUMPI POP PUSH1 0x0 ISZERO ISZERO PUSH1 0x1 PUSH1 0x0 PUSH20 0xAB8483F64D9C6D1ECF9B849AE677DD3315835CB2 PUSH20 0xFFFFFFFFFFFFFFFFFFFFFFFFFFFFFFFFFFFFFFFF AND PUSH20 0xFFFFFFFFFFFFFFFFFFFFFFFFFFFFFFFFFFFFFFFF AND DUP2 MSTORE PUSH1 0x20 ADD SWAP1 DUP2 MSTORE PUSH1 0x20 ADD PUSH1 0x0 KECCAK256 PUSH1 0x0 ADD PUSH1 0x0 SWAP1 SLOAD SWAP1 PUSH2 0x100 EXP SWAP1 DIV PUSH1 0xFF AND ISZERO ISZERO EQ JUMPDEST PUSH2 0x79D JUMPI PUSH1 0x40 MLOAD PUSH32 0x8C379A000000000000000000000000000000000000000000000000000000000 DUP2 MSTORE PUSH1 0x4 ADD PUSH2 0x794 SWAP1 PUSH2 0x167D JUMP JUMPDEST PUSH1 0x40 MLOAD DUP1 SWAP2 SUB SWAP1 REVERT JUMPDEST DUP2 PUSH20 0xFFFFFFFFFFFFFFFFFFFFFFFFFFFFFFFFFFFFFFFF AND CALLER PUSH20 0xFFFFFFFFFFFFFFFFFFFFFFFFFFFFFFFFFFFFFFFF AND EQ PUSH2 0x80B JUMPI PUSH1 0x40 MLOAD PUSH32 0x8C379A000000000000000000000000000000000000000000000000000000000 DUP2 MSTORE PUSH1 0x4 ADD PUSH2 0x802 SWAP1 PUSH2 0x169D JUMP JUMPDEST PUSH1 0x40 MLOAD DUP1 SWAP2 SUB SWAP1 REVERT JUMPDEST PUSH1 0x0 JUMPDEST PUSH1 0x3 DUP1 SLOAD SWAP1 POP DUP2 LT ISZERO PUSH2 0x8EC JUMPI CALLER PUSH20 0xFFFFFFFFFFFFFFFFFFFFFFFFFFFFFFFFFFFFFFFF AND PUSH1 0x3 DUP3 DUP2 SLOAD DUP2 LT PUSH2 0x846 JUMPI PUSH2 0x845 PUSH2 0x1934 JUMP JUMPDEST JUMPDEST SWAP1 PUSH1 0x0 MSTORE PUSH1 0x20 PUSH1 0x0 KECCAK256 ADD PUSH1 0x0 SWAP1 SLOAD SWAP1 PUSH2 0x100 EXP SWAP1 DIV PUSH20 0xFFFFFFFFFFFFFFFFFFFFFFFFFFFFFFFFFFFFFFFF AND PUSH20 0xFFFFFFFFFFFFFFFFFFFFFFFFFFFFFFFFFFFFFFFF AND EQ ISZERO PUSH2 0x892 JUMPI PUSH1 0x1 SWAP2 POP JUMPDEST PUSH1 0x0 ISZERO ISZERO DUP3 ISZERO ISZERO EQ PUSH2 0x8D9 JUMPI PUSH1 0x40 MLOAD PUSH32 0x8C379A000000000000000000000000000000000000000000000000000000000 DUP2 MSTORE PUSH1 0x4 ADD PUSH2 0x8D0 SWAP1 PUSH2 0x15DD JUMP JUMPDEST PUSH1 0x40 MLOAD DUP1 SWAP2 SUB SWAP1 REVERT JUMPDEST DUP1 DUP1 PUSH2 0x8E4 SWAP1 PUSH2 0x185E JUMP JUMPDEST SWAP2 POP POP PUSH2 0x80E JUMP JUMPDEST POP PUSH1 0x0 ISZERO ISZERO PUSH1 0x2 PUSH1 0x0 CALLER PUSH20 0xFFFFFFFFFFFFFFFFFFFFFFFFFFFFFFFFFFFFFFFF AND PUSH20 0xFFFFFFFFFFFFFFFFFFFFFFFFFFFFFFFFFFFFFFFF AND DUP2 MSTORE PUSH1 0x20 ADD SWAP1 DUP2 MSTORE PUSH1 0x20 ADD PUSH1 0x0 KECCAK256 PUSH1 0x2 ADD PUSH1 0x14 SWAP1 SLOAD SWAP1 PUSH2 0x100 EXP SWAP1 DIV PUSH1 0xFF AND ISZERO ISZERO EQ PUSH2 0x983 JUMPI PUSH1 0x40 MLOAD PUSH32 0x8C379A000000000000000000000000000000000000000000000000000000000 DUP2 MSTORE PUSH1 0x4 ADD PUSH2 0x97A SWAP1 PUSH2 0x15FD JUMP JUMPDEST PUSH1 0x40 MLOAD DUP1 SWAP2 SUB SWAP1 REVERT JUMPDEST PUSH1 0x40 MLOAD DUP1 PUSH1 0xC0 ADD PUSH1 0x40 MSTORE DUP1 DUP6 DUP2 MSTORE PUSH1 0x20 ADD DUP5 DUP2 MSTORE PUSH1 0x20 ADD DUP4 PUSH20 0xFFFFFFFFFFFFFFFFFFFFFFFFFFFFFFFFFFFFFFFF AND DUP2 MSTORE PUSH1 0x20 ADD PUSH1 0x1 ISZERO ISZERO DUP2 MSTORE PUSH1 0x20 ADD PUSH1 0x0 ISZERO ISZERO DUP2 MSTORE PUSH1 0x20 ADD PUSH1 0x1 ISZERO ISZERO DUP2 MSTORE POP PUSH1 0x2 PUSH1 0x0 CALLER PUSH20 0xFFFFFFFFFFFFFFFFFFFFFFFFFFFFFFFFFFFFFFFF AND PUSH20 0xFFFFFFFFFFFFFFFFFFFFFFFFFFFFFFFFFFFFFFFF AND DUP2 MSTORE PUSH1 0x20 ADD SWAP1 DUP2 MSTORE PUSH1 0x20 ADD PUSH1 0x0 KECCAK256 PUSH1 0x0 DUP3 ADD MLOAD DUP2 PUSH1 0x0 ADD SWAP1 DUP1 MLOAD SWAP1 PUSH1 0x20 ADD SWAP1 PUSH2 0xA2A SWAP3 SWAP2 SWAP1 PUSH2 0x1163 JUMP JUMPDEST POP PUSH1 0x20 DUP3 ADD MLOAD DUP2 PUSH1 0x1 ADD SWAP1 DUP1 MLOAD SWAP1 PUSH1 0x20 ADD SWAP1 PUSH2 0xA47 SWAP3 SWAP2 SWAP1 PUSH2 0x1163 JUMP JUMPDEST POP PUSH1 0x40 DUP3 ADD MLOAD DUP2 PUSH1 0x2 ADD PUSH1 0x0 PUSH2 0x100 EXP DUP2 SLOAD DUP2 PUSH20 0xFFFFFFFFFFFFFFFFFFFFFFFFFFFFFFFFFFFFFFFF MUL NOT AND SWAP1 DUP4 PUSH20 0xFFFFFFFFFFFFFFFFFFFFFFFFFFFFFFFFFFFFFFFF AND MUL OR SWAP1 SSTORE POP PUSH1 0x60 DUP3 ADD MLOAD DUP2 PUSH1 0x2 ADD PUSH1 0x14 PUSH2 0x100 EXP DUP2 SLOAD DUP2 PUSH1 0xFF MUL NOT AND SWAP1 DUP4 ISZERO ISZERO MUL OR SWAP1 SSTORE POP PUSH1 0x80 DUP3 ADD MLOAD DUP2 PUSH1 0x2 ADD PUSH1 0x15 PUSH2 0x100 EXP DUP2 SLOAD DUP2 PUSH1 0xFF MUL NOT AND SWAP1 DUP4 ISZERO ISZERO MUL OR SWAP1 SSTORE POP PUSH1 0xA0 DUP3 ADD MLOAD DUP2 PUSH1 0x2 ADD PUSH1 0x16 PUSH2 0x100 EXP DUP2 SLOAD DUP2 PUSH1 0xFF MUL NOT AND SWAP1 DUP4 ISZERO ISZERO MUL OR SWAP1 SSTORE POP SWAP1 POP POP PUSH1 0x3 CALLER SWAP1 DUP1 PUSH1 0x1 DUP2 SLOAD ADD DUP1 DUP3 SSTORE DUP1 SWAP2 POP POP PUSH1 0x1 SWAP1 SUB SWAP1 PUSH1 0x0 MSTORE PUSH1 0x20 PUSH1 0x0 KECCAK256 ADD PUSH1 0x0 SWAP1 SWAP2 SWAP1 SWAP2 SWAP1 SWAP2 PUSH2 0x100 EXP DUP2 SLOAD DUP2 PUSH20 0xFFFFFFFFFFFFFFFFFFFFFFFFFFFFFFFFFFFFFFFF MUL NOT AND SWAP1 DUP4 PUSH20 0xFFFFFFFFFFFFFFFFFFFFFFFFFFFFFFFFFFFFFFFF AND MUL OR SWAP1 SSTORE POP POP POP POP POP JUMP JUMPDEST PUSH1 0x60 PUSH1 0x0 PUSH1 0x4 DUP2 GT ISZERO PUSH2 0xB71 JUMPI PUSH2 0xB70 PUSH2 0x18D6 JUMP JUMPDEST JUMPDEST PUSH1 0x0 DUP1 CALLER PUSH20 0xFFFFFFFFFFFFFFFFFFFFFFFFFFFFFFFFFFFFFFFF AND PUSH20 0xFFFFFFFFFFFFFFFFFFFFFFFFFFFFFFFFFFFFFFFF AND DUP2 MSTORE PUSH1 0x20 ADD SWAP1 DUP2 MSTORE PUSH1 0x20 ADD PUSH1 0x0 KECCAK256 PUSH1 0x0 ADD PUSH1 0x0 SWAP1 SLOAD SWAP1 PUSH2 0x100 EXP SWAP1 DIV PUSH1 0xFF AND PUSH1 0x4 DUP2 GT ISZERO PUSH2 0xBD2 JUMPI PUSH2 0xBD1 PUSH2 0x18D6 JUMP JUMPDEST JUMPDEST EQ PUSH2 0xC12 JUMPI PUSH1 0x40 MLOAD PUSH32 0x8C379A000000000000000000000000000000000000000000000000000000000 DUP2 MSTORE PUSH1 0x4 ADD PUSH2 0xC09 SWAP1 PUSH2 0x163D JUMP JUMPDEST PUSH1 0x40 MLOAD DUP1 SWAP2 SUB SWAP1 REVERT JUMPDEST PUSH1 0x5 DUP1 SLOAD DUP1 PUSH1 0x20 MUL PUSH1 0x20 ADD PUSH1 0x40 MLOAD SWAP1 DUP2 ADD PUSH1 0x40 MSTORE DUP1 SWAP3 SWAP2 SWAP1 DUP2 DUP2 MSTORE PUSH1 0x20 ADD DUP3 DUP1 SLOAD DUP1 ISZERO PUSH2 0xC94 JUMPI PUSH1 0x20 MUL DUP3 ADD SWAP2 SWAP1 PUSH1 0x0 MSTORE PUSH1 0x20 PUSH1 0x0 KECCAK256 SWAP1 JUMPDEST DUP2 PUSH1 0x0 SWAP1 SLOAD SWAP1 PUSH2 0x100 EXP SWAP1 DIV PUSH20 0xFFFFFFFFFFFFFFFFFFFFFFFFFFFFFFFFFFFFFFFF AND PUSH20 0xFFFFFFFFFFFFFFFFFFFFFFFFFFFFFFFFFFFFFFFF AND DUP2 MSTORE PUSH1 0x20 ADD SWAP1 PUSH1 0x1 ADD SWAP1 DUP1 DUP4 GT PUSH2 0xC4A JUMPI JUMPDEST POP POP POP POP POP SWAP1 POP SWAP1 JUMP JUMPDEST PUSH1 0x0 DUP2 PUSH1 0x40 MLOAD PUSH1 0x20 ADD PUSH2 0xCB1 SWAP2 SWAP1 PUSH2 0x1569 JUMP JUMPDEST PUSH1 0x40 MLOAD PUSH1 0x20 DUP2 DUP4 SUB SUB DUP2 MSTORE SWAP1 PUSH1 0x40 MSTORE DUP1 MLOAD SWAP1 PUSH1 0x20 ADD KECCAK256 SWAP1 POP SWAP2 SWAP1 POP JUMP JUMPDEST PUSH1 0x2 PUSH1 0x4 DUP2 GT ISZERO PUSH2 0xCE2 JUMPI PUSH2 0xCE1 PUSH2 0x18D6 JUMP JUMPDEST JUMPDEST PUSH1 0x0 DUP1 CALLER PUSH20 0xFFFFFFFFFFFFFFFFFFFFFFFFFFFFFFFFFFFFFFFF AND PUSH20 0xFFFFFFFFFFFFFFFFFFFFFFFFFFFFFFFFFFFFFFFF AND DUP2 MSTORE PUSH1 0x20 ADD SWAP1 DUP2 MSTORE PUSH1 0x20 ADD PUSH1 0x0 KECCAK256 PUSH1 0x0 ADD PUSH1 0x0 SWAP1 SLOAD SWAP1 PUSH2 0x100 EXP SWAP1 DIV PUSH1 0xFF AND PUSH1 0x4 DUP2 GT ISZERO PUSH2 0xD43 JUMPI PUSH2 0xD42 PUSH2 0x18D6 JUMP JUMPDEST JUMPDEST EQ PUSH2 0xD83 JUMPI PUSH1 0x40 MLOAD PUSH32 0x8C379A000000000000000000000000000000000000000000000000000000000 DUP2 MSTORE PUSH1 0x4 ADD PUSH2 0xD7A SWAP1 PUSH2 0x165D JUMP JUMPDEST PUSH1 0x40 MLOAD DUP1 SWAP2 SUB SWAP1 REVERT JUMPDEST PUSH1 0x0 ISZERO ISZERO PUSH1 0x2 PUSH1 0x0 CALLER PUSH20 0xFFFFFFFFFFFFFFFFFFFFFFFFFFFFFFFFFFFFFFFF AND PUSH20 0xFFFFFFFFFFFFFFFFFFFFFFFFFFFFFFFFFFFFFFFF AND DUP2 MSTORE PUSH1 0x20 ADD SWAP1 DUP2 MSTORE PUSH1 0x20 ADD PUSH1 0x0 KECCAK256 PUSH1 0x2 ADD PUSH1 0x15 SWAP1 SLOAD SWAP1 PUSH2 0x100 EXP SWAP1 DIV PUSH1 0xFF AND ISZERO ISZERO EQ PUSH2 0xE19 JUMPI PUSH1 0x40 MLOAD PUSH32 0x8C379A000000000000000000000000000000000000000000000000000000000 DUP2 MSTORE PUSH1 0x4 ADD PUSH2 0xE10 SWAP1 PUSH2 0x15BD JUMP JUMPDEST PUSH1 0x40 MLOAD DUP1 SWAP2 SUB SWAP1 REVERT JUMPDEST PUSH1 0x0 PUSH1 0x2 PUSH1 0x0 DUP4 PUSH20 0xFFFFFFFFFFFFFFFFFFFFFFFFFFFFFFFFFFFFFFFF AND PUSH20 0xFFFFFFFFFFFFFFFFFFFFFFFFFFFFFFFFFFFFFFFF AND DUP2 MSTORE PUSH1 0x20 ADD SWAP1 DUP2 MSTORE PUSH1 0x20 ADD PUSH1 0x0 KECCAK256 PUSH1 0x2 ADD PUSH1 0x14 PUSH2 0x100 EXP DUP2 SLOAD DUP2 PUSH1 0xFF MUL NOT AND SWAP1 DUP4 ISZERO ISZERO MUL OR SWAP1 SSTORE POP PUSH1 0x3 DUP2 SWAP1 DUP1 PUSH1 0x1 DUP2 SLOAD ADD DUP1 DUP3 SSTORE DUP1 SWAP2 POP POP PUSH1 0x1 SWAP1 SUB SWAP1 PUSH1 0x0 MSTORE PUSH1 0x20 PUSH1 0x0 KECCAK256 ADD PUSH1 0x0 SWAP1 SWAP2 SWAP1 SWAP2 SWAP1 SWAP2 PUSH2 0x100 EXP DUP2 SLOAD DUP2 PUSH20 0xFFFFFFFFFFFFFFFFFFFFFFFFFFFFFFFFFFFFFFFF MUL NOT AND SWAP1 DUP4 PUSH20 0xFFFFFFFFFFFFFFFFFFFFFFFFFFFFFFFFFFFFFFFF AND MUL OR SWAP1 SSTORE POP PUSH1 0x4 DUP2 SWAP1 DUP1 PUSH1 0x1 DUP2 SLOAD ADD DUP1 DUP3 SSTORE DUP1 SWAP2 POP POP PUSH1 0x1 SWAP1 SUB SWAP1 PUSH1 0x0 MSTORE PUSH1 0x20 PUSH1 0x0 KECCAK256 ADD PUSH1 0x0 SWAP1 SWAP2 SWAP1 SWAP2 SWAP1 SWAP2 PUSH2 0x100 EXP DUP2 SLOAD DUP2 PUSH20 0xFFFFFFFFFFFFFFFFFFFFFFFFFFFFFFFFFFFFFFFF MUL NOT AND SWAP1 DUP4 PUSH20 0xFFFFFFFFFFFFFFFFFFFFFFFFFFFFFFFFFFFFFFFF AND MUL OR SWAP1 SSTORE POP POP JUMP JUMPDEST PUSH1 0x60 PUSH1 0x0 PUSH1 0x4 DUP2 GT ISZERO PUSH2 0xF53 JUMPI PUSH2 0xF52 PUSH2 0x18D6 JUMP JUMPDEST JUMPDEST PUSH1 0x0 DUP1 CALLER PUSH20 0xFFFFFFFFFFFFFFFFFFFFFFFFFFFFFFFFFFFFFFFF AND PUSH20 0xFFFFFFFFFFFFFFFFFFFFFFFFFFFFFFFFFFFFFFFF AND DUP2 MSTORE PUSH1 0x20 ADD SWAP1 DUP2 MSTORE PUSH1 0x20 ADD PUSH1 0x0 KECCAK256 PUSH1 0x0 ADD PUSH1 0x0 SWAP1 SLOAD SWAP1 PUSH2 0x100 EXP SWAP1 DIV PUSH1 0xFF AND PUSH1 0x4 DUP2 GT ISZERO PUSH2 0xFB4 JUMPI PUSH2 0xFB3 PUSH2 0x18D6 JUMP JUMPDEST JUMPDEST EQ DUP1 PUSH2 0x1032 JUMPI POP PUSH1 0x2 PUSH1 0x4 DUP2 GT ISZERO PUSH2 0xFCF JUMPI PUSH2 0xFCE PUSH2 0x18D6 JUMP JUMPDEST JUMPDEST PUSH1 0x0 DUP1 CALLER PUSH20 0xFFFFFFFFFFFFFFFFFFFFFFFFFFFFFFFFFFFFFFFF AND PUSH20 0xFFFFFFFFFFFFFFFFFFFFFFFFFFFFFFFFFFFFFFFF AND DUP2 MSTORE PUSH1 0x20 ADD SWAP1 DUP2 MSTORE PUSH1 0x20 ADD PUSH1 0x0 KECCAK256 PUSH1 0x0 ADD PUSH1 0x0 SWAP1 SLOAD SWAP1 PUSH2 0x100 EXP SWAP1 DIV PUSH1 0xFF AND PUSH1 0x4 DUP2 GT ISZERO PUSH2 0x1030 JUMPI PUSH2 0x102F PUSH2 0x18D6 JUMP JUMPDEST JUMPDEST EQ JUMPDEST PUSH2 0x1071 JUMPI PUSH1 0x40 MLOAD PUSH32 0x8C379A000000000000000000000000000000000000000000000000000000000 DUP2 MSTORE PUSH1 0x4 ADD PUSH2 0x1068 SWAP1 PUSH2 0x161D JUMP JUMPDEST PUSH1 0x40 MLOAD DUP1 SWAP2 SUB SWAP1 REVERT JUMPDEST PUSH1 0x4 DUP1 SLOAD DUP1 PUSH1 0x20 MUL PUSH1 0x20 ADD PUSH1 0x40 MLOAD SWAP1 DUP2 ADD PUSH1 0x40 MSTORE DUP1 SWAP3 SWAP2 SWAP1 DUP2 DUP2 MSTORE PUSH1 0x20 ADD DUP3 DUP1 SLOAD DUP1 ISZERO PUSH2 0x10F3 JUMPI PUSH1 0x20 MUL DUP3 ADD SWAP2 SWAP1 PUSH1 0x0 MSTORE PUSH1 0x20 PUSH1 0x0 KECCAK256 SWAP1 JUMPDEST DUP2 PUSH1 0x0 SWAP1 SLOAD SWAP1 PUSH2 0x100 EXP SWAP1 DIV PUSH20 0xFFFFFFFFFFFFFFFFFFFFFFFFFFFFFFFFFFFFFFFF AND PUSH20 0xFFFFFFFFFFFFFFFFFFFFFFFFFFFFFFFFFFFFFFFF AND DUP2 MSTORE PUSH1 0x20 ADD SWAP1 PUSH1 0x1 ADD SWAP1 DUP1 DUP4 GT PUSH2 0x10A9 JUMPI JUMPDEST POP POP POP POP POP SWAP1 POP SWAP1 JUMP JUMPDEST PUSH1 0x6 DUP2 SWAP1 DUP1 PUSH1 0x1 DUP2 SLOAD ADD DUP1 DUP3 SSTORE DUP1 SWAP2 POP POP PUSH1 0x1 SWAP1 SUB SWAP1 PUSH1 0x0 MSTORE PUSH1 0x20 PUSH1 0x0 KECCAK256 ADD PUSH1 0x0 SWAP1 SWAP2 SWAP1 SWAP2 SWAP1 SWAP2 PUSH2 0x100 EXP DUP2 SLOAD DUP2 PUSH20 0xFFFFFFFFFFFFFFFFFFFFFFFFFFFFFFFFFFFFFFFF MUL NOT AND SWAP1 DUP4 PUSH20 0xFFFFFFFFFFFFFFFFFFFFFFFFFFFFFFFFFFFFFFFF AND MUL OR SWAP1 SSTORE POP POP JUMP JUMPDEST DUP3 DUP1 SLOAD PUSH2 0x116F SWAP1 PUSH2 0x17FB JUMP JUMPDEST SWAP1 PUSH1 0x0 MSTORE PUSH1 0x20 PUSH1 0x0 KECCAK256 SWAP1 PUSH1 0x1F ADD PUSH1 0x20 SWAP1 DIV DUP2 ADD SWAP3 DUP3 PUSH2 0x1191 JUMPI PUSH1 0x0 DUP6 SSTORE PUSH2 0x11D8 JUMP JUMPDEST DUP3 PUSH1 0x1F LT PUSH2 0x11AA JUMPI DUP1 MLOAD PUSH1 0xFF NOT AND DUP4 DUP1 ADD OR DUP6 SSTORE PUSH2 0x11D8 JUMP JUMPDEST DUP3 DUP1 ADD PUSH1 0x1 ADD DUP6 SSTORE DUP3 ISZERO PUSH2 0x11D8 JUMPI SWAP2 DUP3 ADD JUMPDEST DUP3 DUP2 GT ISZERO PUSH2 0x11D7 JUMPI DUP3 MLOAD DUP3 SSTORE SWAP2 PUSH1 0x20 ADD SWAP2 SWAP1 PUSH1 0x1 ADD SWAP1 PUSH2 0x11BC JUMP JUMPDEST JUMPDEST POP SWAP1 POP PUSH2 0x11E5 SWAP2 SWAP1 PUSH2 0x11E9 JUMP JUMPDEST POP SWAP1 JUMP JUMPDEST JUMPDEST DUP1 DUP3 GT ISZERO PUSH2 0x1202 JUMPI PUSH1 0x0 DUP2 PUSH1 0x0 SWAP1 SSTORE POP PUSH1 0x1 ADD PUSH2 0x11EA JUMP JUMPDEST POP SWAP1 JUMP JUMPDEST PUSH1 0x0 PUSH2 0x1219 PUSH2 0x1214 DUP5 PUSH2 0x16E2 JUMP JUMPDEST PUSH2 0x16BD JUMP JUMPDEST SWAP1 POP DUP3 DUP2 MSTORE PUSH1 0x20 DUP2 ADD DUP5 DUP5 DUP5 ADD GT ISZERO PUSH2 0x1235 JUMPI PUSH2 0x1234 PUSH2 0x1997 JUMP JUMPDEST JUMPDEST PUSH2 0x1240 DUP5 DUP3 DUP6 PUSH2 0x17B9 JUMP JUMPDEST POP SWAP4 SWAP3 POP POP POP JUMP JUMPDEST PUSH1 0x0 DUP2 CALLDATALOAD SWAP1 POP PUSH2 0x1257 DUP2 PUSH2 0x1B71 JUMP JUMPDEST SWAP3 SWAP2 POP POP JUMP JUMPDEST PUSH1 0x0 DUP3 PUSH1 0x1F DUP4 ADD SLT PUSH2 0x1272 JUMPI PUSH2 0x1271 PUSH2 0x1992 JUMP JUMPDEST JUMPDEST DUP2 CALLDATALOAD PUSH2 0x1282 DUP5 DUP3 PUSH1 0x20 DUP7 ADD PUSH2 0x1206 JUMP JUMPDEST SWAP2 POP POP SWAP3 SWAP2 POP POP JUMP JUMPDEST PUSH1 0x0 PUSH1 0x20 DUP3 DUP5 SUB SLT ISZERO PUSH2 0x12A1 JUMPI PUSH2 0x12A0 PUSH2 0x19A1 JUMP JUMPDEST JUMPDEST PUSH1 0x0 PUSH2 0x12AF DUP5 DUP3 DUP6 ADD PUSH2 0x1248 JUMP JUMPDEST SWAP2 POP POP SWAP3 SWAP2 POP POP JUMP JUMPDEST PUSH1 0x0 PUSH1 0x20 DUP3 DUP5 SUB SLT ISZERO PUSH2 0x12CE JUMPI PUSH2 0x12CD PUSH2 0x19A1 JUMP JUMPDEST JUMPDEST PUSH1 0x0 DUP3 ADD CALLDATALOAD PUSH8 0xFFFFFFFFFFFFFFFF DUP2 GT ISZERO PUSH2 0x12EC JUMPI PUSH2 0x12EB PUSH2 0x199C JUMP JUMPDEST JUMPDEST PUSH2 0x12F8 DUP5 DUP3 DUP6 ADD PUSH2 0x125D JUMP JUMPDEST SWAP2 POP POP SWAP3 SWAP2 POP POP JUMP JUMPDEST PUSH1 0x0 DUP1 PUSH1 0x0 PUSH1 0x60 DUP5 DUP7 SUB SLT ISZERO PUSH2 0x131A JUMPI PUSH2 0x1319 PUSH2 0x19A1 JUMP JUMPDEST JUMPDEST PUSH1 0x0 DUP5 ADD CALLDATALOAD PUSH8 0xFFFFFFFFFFFFFFFF DUP2 GT ISZERO PUSH2 0x1338 JUMPI PUSH2 0x1337 PUSH2 0x199C JUMP JUMPDEST JUMPDEST PUSH2 0x1344 DUP7 DUP3 DUP8 ADD PUSH2 0x125D JUMP JUMPDEST SWAP4 POP POP PUSH1 0x20 DUP5 ADD CALLDATALOAD PUSH8 0xFFFFFFFFFFFFFFFF DUP2 GT ISZERO PUSH2 0x1365 JUMPI PUSH2 0x1364 PUSH2 0x199C JUMP JUMPDEST JUMPDEST PUSH2 0x1371 DUP7 DUP3 DUP8 ADD PUSH2 0x125D JUMP JUMPDEST SWAP3 POP POP PUSH1 0x40 PUSH2 0x1382 DUP7 DUP3 DUP8 ADD PUSH2 0x1248 JUMP JUMPDEST SWAP2 POP POP SWAP3 POP SWAP3 POP SWAP3 JUMP JUMPDEST PUSH1 0x0 PUSH2 0x1398 DUP4 DUP4 PUSH2 0x13A4 JUMP JUMPDEST PUSH1 0x20 DUP4 ADD SWAP1 POP SWAP3 SWAP2 POP POP JUMP JUMPDEST PUSH2 0x13AD DUP2 PUSH2 0x1773 JUMP JUMPDEST DUP3 MSTORE POP POP JUMP JUMPDEST PUSH1 0x0 PUSH2 0x13BE DUP3 PUSH2 0x1723 JUMP JUMPDEST PUSH2 0x13C8 DUP2 DUP6 PUSH2 0x1746 JUMP JUMPDEST SWAP4 POP PUSH2 0x13D3 DUP4 PUSH2 0x1713 JUMP JUMPDEST DUP1 PUSH1 0x0 JUMPDEST DUP4 DUP2 LT ISZERO PUSH2 0x1404 JUMPI DUP2 MLOAD PUSH2 0x13EB DUP9 DUP3 PUSH2 0x138C JUMP JUMPDEST SWAP8 POP PUSH2 0x13F6 DUP4 PUSH2 0x1739 JUMP JUMPDEST SWAP3 POP POP PUSH1 0x1 DUP2 ADD SWAP1 POP PUSH2 0x13D7 JUMP JUMPDEST POP DUP6 SWAP4 POP POP POP POP SWAP3 SWAP2 POP POP JUMP JUMPDEST PUSH2 0x141A DUP2 PUSH2 0x1785 JUMP JUMPDEST DUP3 MSTORE POP POP JUMP JUMPDEST PUSH1 0x0 PUSH2 0x142B DUP3 PUSH2 0x172E JUMP JUMPDEST PUSH2 0x1435 DUP2 DUP6 PUSH2 0x1768 JUMP JUMPDEST SWAP4 POP PUSH2 0x1445 DUP2 DUP6 PUSH1 0x20 DUP7 ADD PUSH2 0x17C8 JUMP JUMPDEST DUP1 DUP5 ADD SWAP2 POP POP SWAP3 SWAP2 POP POP JUMP JUMPDEST PUSH1 0x0 PUSH2 0x145E PUSH1 0x1C DUP4 PUSH2 0x1757 JUMP JUMPDEST SWAP2 POP PUSH2 0x1469 DUP3 PUSH2 0x19B7 JUMP JUMPDEST PUSH1 0x20 DUP3 ADD SWAP1 POP SWAP2 SWAP1 POP JUMP JUMPDEST PUSH1 0x0 PUSH2 0x1481 PUSH1 0x18 DUP4 PUSH2 0x1757 JUMP JUMPDEST SWAP2 POP PUSH2 0x148C DUP3 PUSH2 0x19E0 JUMP JUMPDEST PUSH1 0x20 DUP3 ADD SWAP1 POP SWAP2 SWAP1 POP JUMP JUMPDEST PUSH1 0x0 PUSH2 0x14A4 PUSH1 0x2A DUP4 PUSH2 0x1757 JUMP JUMPDEST SWAP2 POP PUSH2 0x14AF DUP3 PUSH2 0x1A09 JUMP JUMPDEST PUSH1 0x40 DUP3 ADD SWAP1 POP SWAP2 SWAP1 POP JUMP JUMPDEST PUSH1 0x0 PUSH2 0x14C7 PUSH1 0x29 DUP4 PUSH2 0x1757 JUMP JUMPDEST SWAP2 POP PUSH2 0x14D2 DUP3 PUSH2 0x1A58 JUMP JUMPDEST PUSH1 0x40 DUP3 ADD SWAP1 POP SWAP2 SWAP1 POP JUMP JUMPDEST PUSH1 0x0 PUSH2 0x14EA PUSH1 0xE DUP4 PUSH2 0x1757 JUMP JUMPDEST SWAP2 POP PUSH2 0x14F5 DUP3 PUSH2 0x1AA7 JUMP JUMPDEST PUSH1 0x20 DUP3 ADD SWAP1 POP SWAP2 SWAP1 POP JUMP JUMPDEST PUSH1 0x0 PUSH2 0x150D PUSH1 0x19 DUP4 PUSH2 0x1757 JUMP JUMPDEST SWAP2 POP PUSH2 0x1518 DUP3 PUSH2 0x1AD0 JUMP JUMPDEST PUSH1 0x20 DUP3 ADD SWAP1 POP SWAP2 SWAP1 POP JUMP JUMPDEST PUSH1 0x0 PUSH2 0x1530 PUSH1 0x17 DUP4 PUSH2 0x1757 JUMP JUMPDEST SWAP2 POP PUSH2 0x153B DUP3 PUSH2 0x1AF9 JUMP JUMPDEST PUSH1 0x20 DUP3 ADD SWAP1 POP SWAP2 SWAP1 POP JUMP JUMPDEST PUSH1 0x0 PUSH2 0x1553 PUSH1 0x37 DUP4 PUSH2 0x1757 JUMP JUMPDEST SWAP2 POP PUSH2 0x155E DUP3 PUSH2 0x1B22 JUMP JUMPDEST PUSH1 0x40 DUP3 ADD SWAP1 POP SWAP2 SWAP1 POP JUMP JUMPDEST PUSH1 0x0 PUSH2 0x1575 DUP3 DUP5 PUSH2 0x1420 JUMP JUMPDEST SWAP2 POP DUP2 SWAP1 POP SWAP3 SWAP2 POP POP JUMP JUMPDEST PUSH1 0x0 PUSH1 0x20 DUP3 ADD SWAP1 POP DUP2 DUP2 SUB PUSH1 0x0 DUP4 ADD MSTORE PUSH2 0x159A DUP2 DUP5 PUSH2 0x13B3 JUMP JUMPDEST SWAP1 POP SWAP3 SWAP2 POP POP JUMP JUMPDEST PUSH1 0x0 PUSH1 0x20 DUP3 ADD SWAP1 POP PUSH2 0x15B7 PUSH1 0x0 DUP4 ADD DUP5 PUSH2 0x1411 JUMP JUMPDEST SWAP3 SWAP2 POP POP JUMP JUMPDEST PUSH1 0x0 PUSH1 0x20 DUP3 ADD SWAP1 POP DUP2 DUP2 SUB PUSH1 0x0 DUP4 ADD MSTORE PUSH2 0x15D6 DUP2 PUSH2 0x1451 JUMP JUMPDEST SWAP1 POP SWAP2 SWAP1 POP JUMP JUMPDEST PUSH1 0x0 PUSH1 0x20 DUP3 ADD SWAP1 POP DUP2 DUP2 SUB PUSH1 0x0 DUP4 ADD MSTORE PUSH2 0x15F6 DUP2 PUSH2 0x1474 JUMP JUMPDEST SWAP1 POP SWAP2 SWAP1 POP JUMP JUMPDEST PUSH1 0x0 PUSH1 0x20 DUP3 ADD SWAP1 POP DUP2 DUP2 SUB PUSH1 0x0 DUP4 ADD MSTORE PUSH2 0x1616 DUP2 PUSH2 0x1497 JUMP JUMPDEST SWAP1 POP SWAP2 SWAP1 POP JUMP JUMPDEST PUSH1 0x0 PUSH1 0x20 DUP3 ADD SWAP1 POP DUP2 DUP2 SUB PUSH1 0x0 DUP4 ADD MSTORE PUSH2 0x1636 DUP2 PUSH2 0x14BA JUMP JUMPDEST SWAP1 POP SWAP2 SWAP1 POP JUMP JUMPDEST PUSH1 0x0 PUSH1 0x20 DUP3 ADD SWAP1 POP DUP2 DUP2 SUB PUSH1 0x0 DUP4 ADD MSTORE PUSH2 0x1656 DUP2 PUSH2 0x14DD JUMP JUMPDEST SWAP1 POP SWAP2 SWAP1 POP JUMP JUMPDEST PUSH1 0x0 PUSH1 0x20 DUP3 ADD SWAP1 POP DUP2 DUP2 SUB PUSH1 0x0 DUP4 ADD MSTORE PUSH2 0x1676 DUP2 PUSH2 0x1500 JUMP JUMPDEST SWAP1 POP SWAP2 SWAP1 POP JUMP JUMPDEST PUSH1 0x0 PUSH1 0x20 DUP3 ADD SWAP1 POP DUP2 DUP2 SUB PUSH1 0x0 DUP4 ADD MSTORE PUSH2 0x1696 DUP2 PUSH2 0x1523 JUMP JUMPDEST SWAP1 POP SWAP2 SWAP1 POP JUMP JUMPDEST PUSH1 0x0 PUSH1 0x20 DUP3 ADD SWAP1 POP DUP2 DUP2 SUB PUSH1 0x0 DUP4 ADD MSTORE PUSH2 0x16B6 DUP2 PUSH2 0x1546 JUMP JUMPDEST SWAP1 POP SWAP2 SWAP1 POP JUMP JUMPDEST PUSH1 0x0 PUSH2 0x16C7 PUSH2 0x16D8 JUMP JUMPDEST SWAP1 POP PUSH2 0x16D3 DUP3 DUP3 PUSH2 0x182D JUMP JUMPDEST SWAP2 SWAP1 POP JUMP JUMPDEST PUSH1 0x0 PUSH1 0x40 MLOAD SWAP1 POP SWAP1 JUMP JUMPDEST PUSH1 0x0 PUSH8 0xFFFFFFFFFFFFFFFF DUP3 GT ISZERO PUSH2 0x16FD JUMPI PUSH2 0x16FC PUSH2 0x1963 JUMP JUMPDEST JUMPDEST PUSH2 0x1706 DUP3 PUSH2 0x19A6 JUMP JUMPDEST SWAP1 POP PUSH1 0x20 DUP2 ADD SWAP1 POP SWAP2 SWAP1 POP JUMP JUMPDEST PUSH1 0x0 DUP2 SWAP1 POP PUSH1 0x20 DUP3 ADD SWAP1 POP SWAP2 SWAP1 POP JUMP JUMPDEST PUSH1 0x0 DUP2 MLOAD SWAP1 POP SWAP2 SWAP1 POP JUMP JUMPDEST PUSH1 0x0 DUP2 MLOAD SWAP1 POP SWAP2 SWAP1 POP JUMP JUMPDEST PUSH1 0x0 PUSH1 0x20 DUP3 ADD SWAP1 POP SWAP2 SWAP1 POP JUMP JUMPDEST PUSH1 0x0 DUP3 DUP3 MSTORE PUSH1 0x20 DUP3 ADD SWAP1 POP SWAP3 SWAP2 POP POP JUMP JUMPDEST PUSH1 0x0 DUP3 DUP3 MSTORE PUSH1 0x20 DUP3 ADD SWAP1 POP SWAP3 SWAP2 POP POP JUMP JUMPDEST PUSH1 0x0 DUP2 SWAP1 POP SWAP3 SWAP2 POP POP JUMP JUMPDEST PUSH1 0x0 PUSH2 0x177E DUP3 PUSH2 0x178F JUMP JUMPDEST SWAP1 POP SWAP2 SWAP1 POP JUMP JUMPDEST PUSH1 0x0 DUP2 SWAP1 POP SWAP2 SWAP1 POP JUMP JUMPDEST PUSH1 0x0 PUSH20 0xFFFFFFFFFFFFFFFFFFFFFFFFFFFFFFFFFFFFFFFF DUP3 AND SWAP1 POP SWAP2 SWAP1 POP JUMP JUMPDEST PUSH1 0x0 DUP2 SWAP1 POP SWAP2 SWAP1 POP JUMP JUMPDEST DUP3 DUP2 DUP4 CALLDATACOPY PUSH1 0x0 DUP4 DUP4 ADD MSTORE POP POP POP JUMP JUMPDEST PUSH1 0x0 JUMPDEST DUP4 DUP2 LT ISZERO PUSH2 0x17E6 JUMPI DUP1 DUP3 ADD MLOAD DUP2 DUP5 ADD MSTORE PUSH1 0x20 DUP2 ADD SWAP1 POP PUSH2 0x17CB JUMP JUMPDEST DUP4 DUP2 GT ISZERO PUSH2 0x17F5 JUMPI PUSH1 0x0 DUP5 DUP5 ADD MSTORE JUMPDEST POP POP POP POP JUMP JUMPDEST PUSH1 0x0 PUSH1 0x2 DUP3 DIV SWAP1 POP PUSH1 0x1 DUP3 AND DUP1 PUSH2 0x1813 JUMPI PUSH1 0x7F DUP3 AND SWAP2 POP JUMPDEST PUSH1 0x20 DUP3 LT DUP2 EQ ISZERO PUSH2 0x1827 JUMPI PUSH2 0x1826 PUSH2 0x1905 JUMP JUMPDEST JUMPDEST POP SWAP2 SWAP1 POP JUMP JUMPDEST PUSH2 0x1836 DUP3 PUSH2 0x19A6 JUMP JUMPDEST DUP2 ADD DUP2 DUP2 LT PUSH8 0xFFFFFFFFFFFFFFFF DUP3 GT OR ISZERO PUSH2 0x1855 JUMPI PUSH2 0x1854 PUSH2 0x1963 JUMP JUMPDEST JUMPDEST DUP1 PUSH1 0x40 MSTORE POP POP POP JUMP JUMPDEST PUSH1 0x0 PUSH2 0x1869 DUP3 PUSH2 0x17AF JUMP JUMPDEST SWAP2 POP PUSH32 0xFFFFFFFFFFFFFFFFFFFFFFFFFFFFFFFFFFFFFFFFFFFFFFFFFFFFFFFFFFFFFFFF DUP3 EQ ISZERO PUSH2 0x189C JUMPI PUSH2 0x189B PUSH2 0x18A7 JUMP JUMPDEST JUMPDEST PUSH1 0x1 DUP3 ADD SWAP1 POP SWAP2 SWAP1 POP JUMP JUMPDEST PUSH32 0x4E487B7100000000000000000000000000000000000000000000000000000000 PUSH1 0x0 MSTORE PUSH1 0x11 PUSH1 0x4 MSTORE PUSH1 0x24 PUSH1 0x0 REVERT JUMPDEST PUSH32 0x4E487B7100000000000000000000000000000000000000000000000000000000 PUSH1 0x0 MSTORE PUSH1 0x21 PUSH1 0x4 MSTORE PUSH1 0x24 PUSH1 0x0 REVERT JUMPDEST PUSH32 0x4E487B7100000000000000000000000000000000000000000000000000000000 PUSH1 0x0 MSTORE PUSH1 0x22 PUSH1 0x4 MSTORE PUSH1 0x24 PUSH1 0x0 REVERT JUMPDEST PUSH32 0x4E487B7100000000000000000000000000000000000000000000000000000000 PUSH1 0x0 MSTORE PUSH1 0x32 PUSH1 0x4 MSTORE PUSH1 0x24 PUSH1 0x0 REVERT JUMPDEST PUSH32 0x4E487B7100000000000000000000000000000000000000000000000000000000 PUSH1 0x0 MSTORE PUSH1 0x41 PUSH1 0x4 MSTORE PUSH1 0x24 PUSH1 0x0 REVERT JUMPDEST PUSH1 0x0 DUP1 REVERT JUMPDEST PUSH1 0x0 DUP1 REVERT JUMPDEST PUSH1 0x0 DUP1 REVERT JUMPDEST PUSH1 0x0 DUP1 REVERT JUMPDEST PUSH1 0x0 PUSH1 0x1F NOT PUSH1 0x1F DUP4 ADD AND SWAP1 POP SWAP2 SWAP1 POP JUMP JUMPDEST PUSH32 0x52657669657720746865206170706C69636174696F6E20666972737400000000 PUSH1 0x0 DUP3 ADD MSTORE POP JUMP JUMPDEST PUSH32 0x4170706C69636174696F6E20616C72656164792073656E740000000000000000 PUSH1 0x0 DUP3 ADD MSTORE POP JUMP JUMPDEST PUSH32 0x596F7572206170706C69636174696F6E2068617320616C726561647920626565 PUSH1 0x0 DUP3 ADD MSTORE PUSH32 0x6E2072656A656374656400000000000000000000000000000000000000000000 PUSH1 0x20 DUP3 ADD MSTORE POP JUMP JUMPDEST PUSH32 0x596F7520617265206E6F7420746865206F776E6572206F722070726976617465 PUSH1 0x0 DUP3 ADD MSTORE PUSH32 0x2070726F76696465720000000000000000000000000000000000000000000000 PUSH1 0x20 DUP3 ADD MSTORE POP JUMP JUMPDEST PUSH32 0x596F7572206E6F742061646D696E000000000000000000000000000000000000 PUSH1 0x0 DUP3 ADD MSTORE POP JUMP JUMPDEST PUSH32 0x596F7572206E6F7420507269766174652070726F766964657200000000000000 PUSH1 0x0 DUP3 ADD MSTORE POP JUMP JUMPDEST PUSH32 0x4170706C69636174696F6E20706861736520656E646564000000000000000000 PUSH1 0x0 DUP3 ADD MSTORE POP JUMP JUMPDEST PUSH32 0x596F752063616E27742073656E6420616E206170706C69636174696F6E20746F PUSH1 0x0 DUP3 ADD MSTORE PUSH32 0x20736F6D656F6E6520656C736527732061646472657373000000000000000000 PUSH1 0x20 DUP3 ADD MSTORE POP JUMP JUMPDEST PUSH2 0x1B7A DUP2 PUSH2 0x1773 JUMP JUMPDEST DUP2 EQ PUSH2 0x1B85 JUMPI PUSH1 0x0 DUP1 REVERT JUMPDEST POP JUMP INVALID LOG2 PUSH5 0x6970667358 0x22 SLT KECCAK256 0xF6 0xD9 0x4B CALLVALUE 0xC4 0xAD PUSH19 0x7D8DD87311390E77C6B286B0034FE79308933E ORIGIN 0xF8 REVERT 0xB3 GASLIMIT 0xEA PUSH5 0x736F6C6343 STOP ADDMOD SMOD STOP CALLER "
				},
				"gasEstimates": {
					"creation": {
						"codeDepositCost": "1420400",
						"executionCost": "1479",
						"totalCost": "1421879"
					},
					"external": {
						"acceptApplication(address)": "126692",
						"application(string,string,address)": "infinite",
						"deviationApplication(address)": "29491",
						"getApplicationAmountAdr()": "infinite",
						"getApplicationNotReviewed()": "infinite",
						"get_blackList()": "infinite",
						"get_keccak256(string)": "infinite",
						"get_whiteList()": "infinite",
						"pushApplicationNotReviewed(address)": "49122"
					}
				},
				"methodIdentifiers": {
					"acceptApplication(address)": "a678b65b",
					"application(string,string,address)": "785963c3",
					"deviationApplication(address)": "1d3eea35",
					"getApplicationAmountAdr()": "686c4cea",
					"getApplicationNotReviewed()": "506a222c",
					"get_blackList()": "7f89128f",
					"get_keccak256(string)": "8e4f8c6b",
					"get_whiteList()": "c10e3911",
					"pushApplicationNotReviewed(address)": "ed842d85"
				}
			},
			"storageLayout": {
				"storage": [
					{
						"astId": 501,
						"contract": "Documents/GitHub/contract-token-cryptoMonster/backend/components/PhasePrivate.sol:PhasePrivate",
						"label": "structUsers_",
						"offset": 0,
						"slot": "0",
						"type": "t_mapping(t_address,t_struct(structUser)496_storage)"
					},
					{
						"astId": 511,
						"contract": "Documents/GitHub/contract-token-cryptoMonster/backend/components/PhasePrivate.sol:PhasePrivate",
						"label": "structPhases_",
						"offset": 0,
						"slot": "1",
						"type": "t_mapping(t_address,t_struct(structPhase)506_storage)"
					},
					{
						"astId": 529,
						"contract": "Documents/GitHub/contract-token-cryptoMonster/backend/components/PhasePrivate.sol:PhasePrivate",
						"label": "strucApplications_",
						"offset": 0,
						"slot": "2",
						"type": "t_mapping(t_address,t_struct(structApplication)524_storage)"
					},
					{
						"astId": 532,
						"contract": "Documents/GitHub/contract-token-cryptoMonster/backend/components/PhasePrivate.sol:PhasePrivate",
						"label": "structApplicationsAmountAdr",
						"offset": 0,
						"slot": "3",
						"type": "t_array(t_address)dyn_storage"
					},
					{
						"astId": 535,
						"contract": "Documents/GitHub/contract-token-cryptoMonster/backend/components/PhasePrivate.sol:PhasePrivate",
						"label": "whiteList",
						"offset": 0,
						"slot": "4",
						"type": "t_array(t_address)dyn_storage"
					},
					{
						"astId": 538,
						"contract": "Documents/GitHub/contract-token-cryptoMonster/backend/components/PhasePrivate.sol:PhasePrivate",
						"label": "blackList",
						"offset": 0,
						"slot": "5",
						"type": "t_array(t_address)dyn_storage"
					},
					{
						"astId": 122,
						"contract": "Documents/GitHub/contract-token-cryptoMonster/backend/components/PhasePrivate.sol:PhasePrivate",
						"label": "addressApplicationNotReviewed",
						"offset": 0,
						"slot": "6",
						"type": "t_array(t_address)dyn_storage"
					}
				],
				"types": {
					"t_address": {
						"encoding": "inplace",
						"label": "address",
						"numberOfBytes": "20"
					},
					"t_array(t_address)dyn_storage": {
						"base": "t_address",
						"encoding": "dynamic_array",
						"label": "address[]",
						"numberOfBytes": "32"
					},
					"t_bool": {
						"encoding": "inplace",
						"label": "bool",
						"numberOfBytes": "1"
					},
					"t_bytes32": {
						"encoding": "inplace",
						"label": "bytes32",
						"numberOfBytes": "32"
					},
					"t_enum(Role)480": {
						"encoding": "inplace",
						"label": "enum structures.Role",
						"numberOfBytes": "1"
					},
					"t_mapping(t_address,t_struct(structApplication)524_storage)": {
						"encoding": "mapping",
						"key": "t_address",
						"label": "mapping(address => struct structures.structApplication)",
						"numberOfBytes": "32",
						"value": "t_struct(structApplication)524_storage"
					},
					"t_mapping(t_address,t_struct(structPhase)506_storage)": {
						"encoding": "mapping",
						"key": "t_address",
						"label": "mapping(address => struct structures.structPhase)",
						"numberOfBytes": "32",
						"value": "t_struct(structPhase)506_storage"
					},
					"t_mapping(t_address,t_struct(structUser)496_storage)": {
						"encoding": "mapping",
						"key": "t_address",
						"label": "mapping(address => struct structures.structUser)",
						"numberOfBytes": "32",
						"value": "t_struct(structUser)496_storage"
					},
					"t_string_storage": {
						"encoding": "bytes",
						"label": "string",
						"numberOfBytes": "32"
					},
					"t_struct(structApplication)524_storage": {
						"encoding": "inplace",
						"label": "struct structures.structApplication",
						"members": [
							{
								"astId": 513,
								"contract": "Documents/GitHub/contract-token-cryptoMonster/backend/components/PhasePrivate.sol:PhasePrivate",
								"label": "name",
								"offset": 0,
								"slot": "0",
								"type": "t_string_storage"
							},
							{
								"astId": 515,
								"contract": "Documents/GitHub/contract-token-cryptoMonster/backend/components/PhasePrivate.sol:PhasePrivate",
								"label": "contactForCommunication",
								"offset": 0,
								"slot": "1",
								"type": "t_string_storage"
							},
							{
								"astId": 517,
								"contract": "Documents/GitHub/contract-token-cryptoMonster/backend/components/PhasePrivate.sol:PhasePrivate",
								"label": "userAdr",
								"offset": 0,
								"slot": "2",
								"type": "t_address"
							},
							{
								"astId": 519,
								"contract": "Documents/GitHub/contract-token-cryptoMonster/backend/components/PhasePrivate.sol:PhasePrivate",
								"label": "status",
								"offset": 20,
								"slot": "2",
								"type": "t_bool"
							},
							{
								"astId": 521,
								"contract": "Documents/GitHub/contract-token-cryptoMonster/backend/components/PhasePrivate.sol:PhasePrivate",
								"label": "reviewed",
								"offset": 21,
								"slot": "2",
								"type": "t_bool"
							},
							{
								"astId": 523,
								"contract": "Documents/GitHub/contract-token-cryptoMonster/backend/components/PhasePrivate.sol:PhasePrivate",
								"label": "exist",
								"offset": 22,
								"slot": "2",
								"type": "t_bool"
							}
						],
						"numberOfBytes": "96"
					},
					"t_struct(structPhase)506_storage": {
						"encoding": "inplace",
						"label": "struct structures.structPhase",
						"members": [
							{
								"astId": 503,
								"contract": "Documents/GitHub/contract-token-cryptoMonster/backend/components/PhasePrivate.sol:PhasePrivate",
								"label": "statusPhase",
								"offset": 0,
								"slot": "0",
								"type": "t_bool"
							},
							{
								"astId": 505,
								"contract": "Documents/GitHub/contract-token-cryptoMonster/backend/components/PhasePrivate.sol:PhasePrivate",
								"label": "reviewed",
								"offset": 1,
								"slot": "0",
								"type": "t_bool"
							}
						],
						"numberOfBytes": "32"
					},
					"t_struct(structUser)496_storage": {
						"encoding": "inplace",
						"label": "struct structures.structUser",
						"members": [
							{
								"astId": 483,
								"contract": "Documents/GitHub/contract-token-cryptoMonster/backend/components/PhasePrivate.sol:PhasePrivate",
								"label": "role",
								"offset": 0,
								"slot": "0",
								"type": "t_enum(Role)480"
							},
							{
								"astId": 485,
								"contract": "Documents/GitHub/contract-token-cryptoMonster/backend/components/PhasePrivate.sol:PhasePrivate",
								"label": "login",
								"offset": 0,
								"slot": "1",
								"type": "t_string_storage"
							},
							{
								"astId": 487,
								"contract": "Documents/GitHub/contract-token-cryptoMonster/backend/components/PhasePrivate.sol:PhasePrivate",
								"label": "password",
								"offset": 0,
								"slot": "2",
								"type": "t_bytes32"
							},
							{
								"astId": 489,
								"contract": "Documents/GitHub/contract-token-cryptoMonster/backend/components/PhasePrivate.sol:PhasePrivate",
								"label": "balance_overall",
								"offset": 0,
								"slot": "3",
								"type": "t_uint256"
							},
							{
								"astId": 491,
								"contract": "Documents/GitHub/contract-token-cryptoMonster/backend/components/PhasePrivate.sol:PhasePrivate",
								"label": "balance_seed",
								"offset": 0,
								"slot": "4",
								"type": "t_uint256"
							},
							{
								"astId": 493,
								"contract": "Documents/GitHub/contract-token-cryptoMonster/backend/components/PhasePrivate.sol:PhasePrivate",
								"label": "balance_private",
								"offset": 0,
								"slot": "5",
								"type": "t_uint256"
							},
							{
								"astId": 495,
								"contract": "Documents/GitHub/contract-token-cryptoMonster/backend/components/PhasePrivate.sol:PhasePrivate",
								"label": "balance_public",
								"offset": 0,
								"slot": "6",
								"type": "t_uint256"
							}
						],
						"numberOfBytes": "224"
					},
					"t_uint256": {
						"encoding": "inplace",
						"label": "uint256",
						"numberOfBytes": "32"
					}
				}
			},
			"userdoc": {
				"kind": "user",
				"methods": {},
				"version": 1
			}
		}
	}
}