{
	"Documents/GitHub/contract-token-cryptoMonster/backend/components/PhasePrivate.sol": {
		"PhasePrivate": {
			"abi": [
				{
					"inputs": [
						{
							"internalType": "address",
							"name": "_userAdr",
							"type": "address"
						}
					],
					"name": "acceptApplication",
					"outputs": [],
					"stateMutability": "nonpayable",
					"type": "function"
				},
				{
					"inputs": [
						{
							"internalType": "string",
							"name": "_name",
							"type": "string"
						},
						{
							"internalType": "string",
							"name": "_contactForCommunication",
							"type": "string"
						},
						{
							"internalType": "address",
							"name": "_userAdr",
							"type": "address"
						}
					],
					"name": "application",
					"outputs": [],
					"stateMutability": "nonpayable",
					"type": "function"
				},
				{
					"inputs": [
						{
							"internalType": "string",
							"name": "_hash",
							"type": "string"
						}
					],
					"name": "get_keccak256",
					"outputs": [
						{
							"internalType": "bytes32",
							"name": "",
							"type": "bytes32"
						}
					],
					"stateMutability": "pure",
					"type": "function"
				},
				{
					"inputs": [
						{
							"internalType": "address",
							"name": "_userAdr",
							"type": "address"
						}
					],
					"name": "viewApplication",
					"outputs": [
						{
							"components": [
								{
									"internalType": "string",
									"name": "name",
									"type": "string"
								},
								{
									"internalType": "string",
									"name": "contactForCommunication",
									"type": "string"
								},
								{
									"internalType": "address",
									"name": "userAdr",
									"type": "address"
								},
								{
									"internalType": "bool",
									"name": "status",
									"type": "bool"
								},
								{
									"internalType": "bool",
									"name": "reviewed",
									"type": "bool"
								},
								{
									"internalType": "bool",
									"name": "exist",
									"type": "bool"
								}
							],
							"internalType": "struct structures.structApplication",
							"name": "",
							"type": "tuple"
						}
					],
					"stateMutability": "nonpayable",
					"type": "function"
				},
				{
					"inputs": [],
					"name": "viewApplicationAmountAdr",
					"outputs": [
						{
							"internalType": "address[]",
							"name": "",
							"type": "address[]"
						}
					],
					"stateMutability": "view",
					"type": "function"
				},
				{
					"inputs": [],
					"name": "viewApplicationNotReviewed",
					"outputs": [
						{
							"internalType": "address[]",
							"name": "",
							"type": "address[]"
						}
					],
					"stateMutability": "view",
					"type": "function"
				}
			],
			"devdoc": {
				"kind": "dev",
				"methods": {},
				"version": 1
			},
			"evm": {
				"assembly": "    /* \"Documents/GitHub/contract-token-cryptoMonster/backend/components/PhasePrivate.sol\":157:2883  contract PhasePrivate is modifireFunc {\r... */\n  mstore(0x40, 0x80)\n  callvalue\n  dup1\n  iszero\n  tag_1\n  jumpi\n  0x00\n  dup1\n  revert\ntag_1:\n  pop\n  dataSize(sub_0)\n  dup1\n  dataOffset(sub_0)\n  0x00\n  codecopy\n  0x00\n  return\nstop\n\nsub_0: assembly {\n        /* \"Documents/GitHub/contract-token-cryptoMonster/backend/components/PhasePrivate.sol\":157:2883  contract PhasePrivate is modifireFunc {\r... */\n      mstore(0x40, 0x80)\n      callvalue\n      dup1\n      iszero\n      tag_1\n      jumpi\n      0x00\n      dup1\n      revert\n    tag_1:\n      pop\n      jumpi(tag_2, lt(calldatasize, 0x04))\n      shr(0xe0, calldataload(0x00))\n      dup1\n      0x015952a7\n      eq\n      tag_3\n      jumpi\n      dup1\n      0x4d0d594f\n      eq\n      tag_4\n      jumpi\n      dup1\n      0x76eada91\n      eq\n      tag_5\n      jumpi\n      dup1\n      0x785963c3\n      eq\n      tag_6\n      jumpi\n      dup1\n      0x8e4f8c6b\n      eq\n      tag_7\n      jumpi\n      dup1\n      0xa678b65b\n      eq\n      tag_8\n      jumpi\n    tag_2:\n      0x00\n      dup1\n      revert\n        /* \"Documents/GitHub/contract-token-cryptoMonster/backend/components/PhasePrivate.sol\":1588:2105  function viewApplicationNotReviewed () public onlyPrivateProvider view returns (address[] memory) {\r... */\n    tag_3:\n      tag_9\n      tag_10\n      jump\t// in\n    tag_9:\n      mload(0x40)\n      tag_11\n      swap2\n      swap1\n      tag_12\n      jump\t// in\n    tag_11:\n      mload(0x40)\n      dup1\n      swap2\n      sub\n      swap1\n      return\n        /* \"Documents/GitHub/contract-token-cryptoMonster/backend/components/PhasePrivate.sol\":1135:1443  function viewApplicationAmountAdr () public onlyPrivateProvider view returns (address[] memory) {\r... */\n    tag_4:\n      tag_13\n      tag_14\n      jump\t// in\n    tag_13:\n      mload(0x40)\n      tag_15\n      swap2\n      swap1\n      tag_12\n      jump\t// in\n    tag_15:\n      mload(0x40)\n      dup1\n      swap2\n      sub\n      swap1\n      return\n        /* \"Documents/GitHub/contract-token-cryptoMonster/backend/components/PhasePrivate.sol\":2226:2569  function viewApplication (address _userAdr) public onlyPrivateProvider returns (structApplication memory) {\r... */\n    tag_5:\n      tag_16\n      0x04\n      dup1\n      calldatasize\n      sub\n      dup2\n      add\n      swap1\n      tag_17\n      swap2\n      swap1\n      tag_18\n      jump\t// in\n    tag_17:\n      tag_19\n      jump\t// in\n    tag_16:\n      mload(0x40)\n      tag_20\n      swap2\n      swap1\n      tag_21\n      jump\t// in\n    tag_20:\n      mload(0x40)\n      dup1\n      swap2\n      sub\n      swap1\n      return\n        /* \"Documents/GitHub/contract-token-cryptoMonster/backend/components/PhasePrivate.sol\":293:1021  function application(string memory _name, string memory _contactForCommunication, address _userAdr) public {\r... */\n    tag_6:\n      tag_22\n      0x04\n      dup1\n      calldatasize\n      sub\n      dup2\n      add\n      swap1\n      tag_23\n      swap2\n      swap1\n      tag_24\n      jump\t// in\n    tag_23:\n      tag_25\n      jump\t// in\n    tag_22:\n      stop\n        /* \"Documents/GitHub/contract-token-cryptoMonster/backend/shared/helpers/getFuncs.sol\":144:282  function get_keccak256(string memory _hash) public pure returns(bytes32) {\r... */\n    tag_7:\n      tag_26\n      0x04\n      dup1\n      calldatasize\n      sub\n      dup2\n      add\n      swap1\n      tag_27\n      swap2\n      swap1\n      tag_28\n      jump\t// in\n    tag_27:\n      tag_29\n      jump\t// in\n    tag_26:\n      mload(0x40)\n      tag_30\n      swap2\n      swap1\n      tag_31\n      jump\t// in\n    tag_30:\n      mload(0x40)\n      dup1\n      swap2\n      sub\n      swap1\n      return\n        /* \"Documents/GitHub/contract-token-cryptoMonster/backend/components/PhasePrivate.sol\":2645:2880  function acceptApplication (address _userAdr) public onlyPrivateProvider {\r... */\n    tag_8:\n      tag_32\n      0x04\n      dup1\n      calldatasize\n      sub\n      dup2\n      add\n      swap1\n      tag_33\n      swap2\n      swap1\n      tag_18\n      jump\t// in\n    tag_33:\n      tag_34\n      jump\t// in\n    tag_32:\n      stop\n        /* \"Documents/GitHub/contract-token-cryptoMonster/backend/components/PhasePrivate.sol\":1588:2105  function viewApplicationNotReviewed () public onlyPrivateProvider view returns (address[] memory) {\r... */\n    tag_10:\n        /* \"Documents/GitHub/contract-token-cryptoMonster/backend/components/PhasePrivate.sol\":1668:1684  address[] memory */\n      0x60\n        /* \"Documents/GitHub/contract-token-cryptoMonster/backend/shared/helpers/modifireFunc.sol\":566:585  Role.SYSTEM_PRIVATE */\n      0x02\n        /* \"Documents/GitHub/contract-token-cryptoMonster/backend/shared/helpers/modifireFunc.sol\":533:585  structUsers_[msg.sender].role == Role.SYSTEM_PRIVATE */\n      0x04\n      dup2\n      gt\n      iszero\n      tag_36\n      jumpi\n      tag_37\n      tag_38\n      jump\t// in\n    tag_37:\n    tag_36:\n        /* \"Documents/GitHub/contract-token-cryptoMonster/backend/shared/helpers/modifireFunc.sol\":533:545  structUsers_ */\n      0x00\n        /* \"Documents/GitHub/contract-token-cryptoMonster/backend/shared/helpers/modifireFunc.sol\":533:557  structUsers_[msg.sender] */\n      dup1\n        /* \"Documents/GitHub/contract-token-cryptoMonster/backend/shared/helpers/modifireFunc.sol\":546:556  msg.sender */\n      caller\n        /* \"Documents/GitHub/contract-token-cryptoMonster/backend/shared/helpers/modifireFunc.sol\":533:557  structUsers_[msg.sender] */\n      0xffffffffffffffffffffffffffffffffffffffff\n      and\n      0xffffffffffffffffffffffffffffffffffffffff\n      and\n      dup2\n      mstore\n      0x20\n      add\n      swap1\n      dup2\n      mstore\n      0x20\n      add\n      0x00\n      keccak256\n        /* \"Documents/GitHub/contract-token-cryptoMonster/backend/shared/helpers/modifireFunc.sol\":533:562  structUsers_[msg.sender].role */\n      0x00\n      add\n      0x00\n      swap1\n      sload\n      swap1\n      0x0100\n      exp\n      swap1\n      div\n      0xff\n      and\n        /* \"Documents/GitHub/contract-token-cryptoMonster/backend/shared/helpers/modifireFunc.sol\":533:585  structUsers_[msg.sender].role == Role.SYSTEM_PRIVATE */\n      0x04\n      dup2\n      gt\n      iszero\n      tag_39\n      jumpi\n      tag_40\n      tag_38\n      jump\t// in\n    tag_40:\n    tag_39:\n      eq\n        /* \"Documents/GitHub/contract-token-cryptoMonster/backend/shared/helpers/modifireFunc.sol\":525:615  require(structUsers_[msg.sender].role == Role.SYSTEM_PRIVATE, \"Your not Private provider\") */\n      tag_41\n      jumpi\n      mload(0x40)\n      0x08c379a000000000000000000000000000000000000000000000000000000000\n      dup2\n      mstore\n      0x04\n      add\n      tag_42\n      swap1\n      tag_43\n      jump\t// in\n    tag_42:\n      mload(0x40)\n      dup1\n      swap2\n      sub\n      swap1\n      revert\n    tag_41:\n        /* \"Documents/GitHub/contract-token-cryptoMonster/backend/components/PhasePrivate.sol\":1697:1728  address[] memory _tempAdrAmount */\n      0x60\n        /* \"Documents/GitHub/contract-token-cryptoMonster/backend/components/PhasePrivate.sol\":1745:1751  uint i */\n      0x00\n        /* \"Documents/GitHub/contract-token-cryptoMonster/backend/components/PhasePrivate.sol\":1740:2066  for (uint i = 0; i < structApplicationsAmountAdr.length; i++) {\r... */\n    tag_45:\n        /* \"Documents/GitHub/contract-token-cryptoMonster/backend/components/PhasePrivate.sol\":1761:1788  structApplicationsAmountAdr */\n      0x03\n        /* \"Documents/GitHub/contract-token-cryptoMonster/backend/components/PhasePrivate.sol\":1761:1795  structApplicationsAmountAdr.length */\n      dup1\n      sload\n      swap1\n      pop\n        /* \"Documents/GitHub/contract-token-cryptoMonster/backend/components/PhasePrivate.sol\":1757:1758  i */\n      dup2\n        /* \"Documents/GitHub/contract-token-cryptoMonster/backend/components/PhasePrivate.sol\":1757:1795  i < structApplicationsAmountAdr.length */\n      lt\n        /* \"Documents/GitHub/contract-token-cryptoMonster/backend/components/PhasePrivate.sol\":1740:2066  for (uint i = 0; i < structApplicationsAmountAdr.length; i++) {\r... */\n      iszero\n      tag_46\n      jumpi\n        /* \"Documents/GitHub/contract-token-cryptoMonster/backend/components/PhasePrivate.sol\":1817:1827  uint count */\n      0x00\n        /* \"Documents/GitHub/contract-token-cryptoMonster/backend/components/PhasePrivate.sol\":1846:1862  address _tempAdr */\n      dup1\n        /* \"Documents/GitHub/contract-token-cryptoMonster/backend/components/PhasePrivate.sol\":1865:1892  structApplicationsAmountAdr */\n      0x03\n        /* \"Documents/GitHub/contract-token-cryptoMonster/backend/components/PhasePrivate.sol\":1893:1894  i */\n      dup4\n        /* \"Documents/GitHub/contract-token-cryptoMonster/backend/components/PhasePrivate.sol\":1865:1895  structApplicationsAmountAdr[i] */\n      dup2\n      sload\n      dup2\n      lt\n      tag_48\n      jumpi\n      tag_49\n      tag_50\n      jump\t// in\n    tag_49:\n    tag_48:\n      swap1\n      0x00\n      mstore\n      keccak256(0x00, 0x20)\n      add\n      0x00\n      swap1\n      sload\n      swap1\n      0x0100\n      exp\n      swap1\n      div\n      0xffffffffffffffffffffffffffffffffffffffff\n      and\n        /* \"Documents/GitHub/contract-token-cryptoMonster/backend/components/PhasePrivate.sol\":1846:1895  address _tempAdr = structApplicationsAmountAdr[i] */\n      swap1\n      pop\n        /* \"Documents/GitHub/contract-token-cryptoMonster/backend/components/PhasePrivate.sol\":1955:1960  false */\n      0x00\n        /* \"Documents/GitHub/contract-token-cryptoMonster/backend/components/PhasePrivate.sol\":1914:1960  strucApplications_[_tempAdr].reviewed == false */\n      iszero\n      iszero\n        /* \"Documents/GitHub/contract-token-cryptoMonster/backend/components/PhasePrivate.sol\":1914:1932  strucApplications_ */\n      0x02\n        /* \"Documents/GitHub/contract-token-cryptoMonster/backend/components/PhasePrivate.sol\":1914:1942  strucApplications_[_tempAdr] */\n      0x00\n        /* \"Documents/GitHub/contract-token-cryptoMonster/backend/components/PhasePrivate.sol\":1933:1941  _tempAdr */\n      dup4\n        /* \"Documents/GitHub/contract-token-cryptoMonster/backend/components/PhasePrivate.sol\":1914:1942  strucApplications_[_tempAdr] */\n      0xffffffffffffffffffffffffffffffffffffffff\n      and\n      0xffffffffffffffffffffffffffffffffffffffff\n      and\n      dup2\n      mstore\n      0x20\n      add\n      swap1\n      dup2\n      mstore\n      0x20\n      add\n      0x00\n      keccak256\n        /* \"Documents/GitHub/contract-token-cryptoMonster/backend/components/PhasePrivate.sol\":1914:1951  strucApplications_[_tempAdr].reviewed */\n      0x02\n      add\n      0x15\n      swap1\n      sload\n      swap1\n      0x0100\n      exp\n      swap1\n      div\n      0xff\n      and\n        /* \"Documents/GitHub/contract-token-cryptoMonster/backend/components/PhasePrivate.sol\":1914:1960  strucApplications_[_tempAdr].reviewed == false */\n      iszero\n      iszero\n      eq\n        /* \"Documents/GitHub/contract-token-cryptoMonster/backend/components/PhasePrivate.sol\":1910:2055  if (strucApplications_[_tempAdr].reviewed == false) {\r... */\n      iszero\n      tag_52\n      jumpi\n        /* \"Documents/GitHub/contract-token-cryptoMonster/backend/components/PhasePrivate.sol\":2005:2013  _tempAdr */\n      dup1\n        /* \"Documents/GitHub/contract-token-cryptoMonster/backend/components/PhasePrivate.sol\":1981:1995  _tempAdrAmount */\n      dup5\n        /* \"Documents/GitHub/contract-token-cryptoMonster/backend/components/PhasePrivate.sol\":1996:2001  count */\n      dup4\n        /* \"Documents/GitHub/contract-token-cryptoMonster/backend/components/PhasePrivate.sol\":1981:2002  _tempAdrAmount[count] */\n      dup2\n      mload\n      dup2\n      lt\n      tag_53\n      jumpi\n      tag_54\n      tag_50\n      jump\t// in\n    tag_54:\n    tag_53:\n      0x20\n      mul\n      0x20\n      add\n      add\n        /* \"Documents/GitHub/contract-token-cryptoMonster/backend/components/PhasePrivate.sol\":1981:2013  _tempAdrAmount[count] = _tempAdr */\n      swap1\n      0xffffffffffffffffffffffffffffffffffffffff\n      and\n      swap1\n      dup2\n      0xffffffffffffffffffffffffffffffffffffffff\n      and\n      dup2\n      mstore\n      pop\n      pop\n        /* \"Documents/GitHub/contract-token-cryptoMonster/backend/components/PhasePrivate.sol\":2032:2039  count++ */\n      dup2\n      dup1\n      tag_55\n      swap1\n      tag_56\n      jump\t// in\n    tag_55:\n      swap3\n      pop\n      pop\n        /* \"Documents/GitHub/contract-token-cryptoMonster/backend/components/PhasePrivate.sol\":1910:2055  if (strucApplications_[_tempAdr].reviewed == false) {\r... */\n    tag_52:\n        /* \"Documents/GitHub/contract-token-cryptoMonster/backend/components/PhasePrivate.sol\":1802:2066  {\r... */\n      pop\n      pop\n        /* \"Documents/GitHub/contract-token-cryptoMonster/backend/components/PhasePrivate.sol\":1797:1800  i++ */\n      dup1\n      dup1\n      tag_57\n      swap1\n      tag_56\n      jump\t// in\n    tag_57:\n      swap2\n      pop\n      pop\n        /* \"Documents/GitHub/contract-token-cryptoMonster/backend/components/PhasePrivate.sol\":1740:2066  for (uint i = 0; i < structApplicationsAmountAdr.length; i++) {\r... */\n      jump(tag_45)\n    tag_46:\n      pop\n        /* \"Documents/GitHub/contract-token-cryptoMonster/backend/components/PhasePrivate.sol\":2083:2097  _tempAdrAmount */\n      dup1\n        /* \"Documents/GitHub/contract-token-cryptoMonster/backend/components/PhasePrivate.sol\":2076:2097  return _tempAdrAmount */\n      swap2\n      pop\n      pop\n        /* \"Documents/GitHub/contract-token-cryptoMonster/backend/components/PhasePrivate.sol\":1588:2105  function viewApplicationNotReviewed () public onlyPrivateProvider view returns (address[] memory) {\r... */\n      swap1\n      jump\t// out\n        /* \"Documents/GitHub/contract-token-cryptoMonster/backend/components/PhasePrivate.sol\":1135:1443  function viewApplicationAmountAdr () public onlyPrivateProvider view returns (address[] memory) {\r... */\n    tag_14:\n        /* \"Documents/GitHub/contract-token-cryptoMonster/backend/components/PhasePrivate.sol\":1213:1229  address[] memory */\n      0x60\n        /* \"Documents/GitHub/contract-token-cryptoMonster/backend/shared/helpers/modifireFunc.sol\":566:585  Role.SYSTEM_PRIVATE */\n      0x02\n        /* \"Documents/GitHub/contract-token-cryptoMonster/backend/shared/helpers/modifireFunc.sol\":533:585  structUsers_[msg.sender].role == Role.SYSTEM_PRIVATE */\n      0x04\n      dup2\n      gt\n      iszero\n      tag_59\n      jumpi\n      tag_60\n      tag_38\n      jump\t// in\n    tag_60:\n    tag_59:\n        /* \"Documents/GitHub/contract-token-cryptoMonster/backend/shared/helpers/modifireFunc.sol\":533:545  structUsers_ */\n      0x00\n        /* \"Documents/GitHub/contract-token-cryptoMonster/backend/shared/helpers/modifireFunc.sol\":533:557  structUsers_[msg.sender] */\n      dup1\n        /* \"Documents/GitHub/contract-token-cryptoMonster/backend/shared/helpers/modifireFunc.sol\":546:556  msg.sender */\n      caller\n        /* \"Documents/GitHub/contract-token-cryptoMonster/backend/shared/helpers/modifireFunc.sol\":533:557  structUsers_[msg.sender] */\n      0xffffffffffffffffffffffffffffffffffffffff\n      and\n      0xffffffffffffffffffffffffffffffffffffffff\n      and\n      dup2\n      mstore\n      0x20\n      add\n      swap1\n      dup2\n      mstore\n      0x20\n      add\n      0x00\n      keccak256\n        /* \"Documents/GitHub/contract-token-cryptoMonster/backend/shared/helpers/modifireFunc.sol\":533:562  structUsers_[msg.sender].role */\n      0x00\n      add\n      0x00\n      swap1\n      sload\n      swap1\n      0x0100\n      exp\n      swap1\n      div\n      0xff\n      and\n        /* \"Documents/GitHub/contract-token-cryptoMonster/backend/shared/helpers/modifireFunc.sol\":533:585  structUsers_[msg.sender].role == Role.SYSTEM_PRIVATE */\n      0x04\n      dup2\n      gt\n      iszero\n      tag_61\n      jumpi\n      tag_62\n      tag_38\n      jump\t// in\n    tag_62:\n    tag_61:\n      eq\n        /* \"Documents/GitHub/contract-token-cryptoMonster/backend/shared/helpers/modifireFunc.sol\":525:615  require(structUsers_[msg.sender].role == Role.SYSTEM_PRIVATE, \"Your not Private provider\") */\n      tag_63\n      jumpi\n      mload(0x40)\n      0x08c379a000000000000000000000000000000000000000000000000000000000\n      dup2\n      mstore\n      0x04\n      add\n      tag_64\n      swap1\n      tag_43\n      jump\t// in\n    tag_64:\n      mload(0x40)\n      dup1\n      swap2\n      sub\n      swap1\n      revert\n    tag_63:\n        /* \"Documents/GitHub/contract-token-cryptoMonster/backend/components/PhasePrivate.sol\":1249:1276  structApplicationsAmountAdr */\n      0x03\n        /* \"Documents/GitHub/contract-token-cryptoMonster/backend/components/PhasePrivate.sol\":1242:1276  return structApplicationsAmountAdr */\n      dup1\n      sload\n      dup1\n      0x20\n      mul\n      0x20\n      add\n      mload(0x40)\n      swap1\n      dup2\n      add\n      0x40\n      mstore\n      dup1\n      swap3\n      swap2\n      swap1\n      dup2\n      dup2\n      mstore\n      0x20\n      add\n      dup3\n      dup1\n      sload\n      dup1\n      iszero\n      tag_66\n      jumpi\n      0x20\n      mul\n      dup3\n      add\n      swap2\n      swap1\n      0x00\n      mstore\n      keccak256(0x00, 0x20)\n      swap1\n    tag_67:\n      dup2\n      0x00\n      swap1\n      sload\n      swap1\n      0x0100\n      exp\n      swap1\n      div\n      0xffffffffffffffffffffffffffffffffffffffff\n      and\n      0xffffffffffffffffffffffffffffffffffffffff\n      and\n      dup2\n      mstore\n      0x20\n      add\n      swap1\n      0x01\n      add\n      swap1\n      dup1\n      dup4\n      gt\n      tag_67\n      jumpi\n    tag_66:\n      pop\n      pop\n      pop\n      pop\n      pop\n      swap1\n      pop\n        /* \"Documents/GitHub/contract-token-cryptoMonster/backend/components/PhasePrivate.sol\":1135:1443  function viewApplicationAmountAdr () public onlyPrivateProvider view returns (address[] memory) {\r... */\n      swap1\n      jump\t// out\n        /* \"Documents/GitHub/contract-token-cryptoMonster/backend/components/PhasePrivate.sol\":2226:2569  function viewApplication (address _userAdr) public onlyPrivateProvider returns (structApplication memory) {\r... */\n    tag_19:\n        /* \"Documents/GitHub/contract-token-cryptoMonster/backend/components/PhasePrivate.sol\":2306:2330  structApplication memory */\n      tag_68\n      tag_69\n      jump\t// in\n    tag_68:\n        /* \"Documents/GitHub/contract-token-cryptoMonster/backend/shared/helpers/modifireFunc.sol\":566:585  Role.SYSTEM_PRIVATE */\n      0x02\n        /* \"Documents/GitHub/contract-token-cryptoMonster/backend/shared/helpers/modifireFunc.sol\":533:585  structUsers_[msg.sender].role == Role.SYSTEM_PRIVATE */\n      0x04\n      dup2\n      gt\n      iszero\n      tag_71\n      jumpi\n      tag_72\n      tag_38\n      jump\t// in\n    tag_72:\n    tag_71:\n        /* \"Documents/GitHub/contract-token-cryptoMonster/backend/shared/helpers/modifireFunc.sol\":533:545  structUsers_ */\n      0x00\n        /* \"Documents/GitHub/contract-token-cryptoMonster/backend/shared/helpers/modifireFunc.sol\":533:557  structUsers_[msg.sender] */\n      dup1\n        /* \"Documents/GitHub/contract-token-cryptoMonster/backend/shared/helpers/modifireFunc.sol\":546:556  msg.sender */\n      caller\n        /* \"Documents/GitHub/contract-token-cryptoMonster/backend/shared/helpers/modifireFunc.sol\":533:557  structUsers_[msg.sender] */\n      0xffffffffffffffffffffffffffffffffffffffff\n      and\n      0xffffffffffffffffffffffffffffffffffffffff\n      and\n      dup2\n      mstore\n      0x20\n      add\n      swap1\n      dup2\n      mstore\n      0x20\n      add\n      0x00\n      keccak256\n        /* \"Documents/GitHub/contract-token-cryptoMonster/backend/shared/helpers/modifireFunc.sol\":533:562  structUsers_[msg.sender].role */\n      0x00\n      add\n      0x00\n      swap1\n      sload\n      swap1\n      0x0100\n      exp\n      swap1\n      div\n      0xff\n      and\n        /* \"Documents/GitHub/contract-token-cryptoMonster/backend/shared/helpers/modifireFunc.sol\":533:585  structUsers_[msg.sender].role == Role.SYSTEM_PRIVATE */\n      0x04\n      dup2\n      gt\n      iszero\n      tag_73\n      jumpi\n      tag_74\n      tag_38\n      jump\t// in\n    tag_74:\n    tag_73:\n      eq\n        /* \"Documents/GitHub/contract-token-cryptoMonster/backend/shared/helpers/modifireFunc.sol\":525:615  require(structUsers_[msg.sender].role == Role.SYSTEM_PRIVATE, \"Your not Private provider\") */\n      tag_75\n      jumpi\n      mload(0x40)\n      0x08c379a000000000000000000000000000000000000000000000000000000000\n      dup2\n      mstore\n      0x04\n      add\n      tag_76\n      swap1\n      tag_43\n      jump\t// in\n    tag_76:\n      mload(0x40)\n      dup1\n      swap2\n      sub\n      swap1\n      revert\n    tag_75:\n        /* \"Documents/GitHub/contract-token-cryptoMonster/backend/components/PhasePrivate.sol\":2383:2387  true */\n      0x01\n        /* \"Documents/GitHub/contract-token-cryptoMonster/backend/components/PhasePrivate.sol\":2343:2361  strucApplications_ */\n      0x02\n        /* \"Documents/GitHub/contract-token-cryptoMonster/backend/components/PhasePrivate.sol\":2343:2371  strucApplications_[_userAdr] */\n      0x00\n        /* \"Documents/GitHub/contract-token-cryptoMonster/backend/components/PhasePrivate.sol\":2362:2370  _userAdr */\n      dup5\n        /* \"Documents/GitHub/contract-token-cryptoMonster/backend/components/PhasePrivate.sol\":2343:2371  strucApplications_[_userAdr] */\n      0xffffffffffffffffffffffffffffffffffffffff\n      and\n      0xffffffffffffffffffffffffffffffffffffffff\n      and\n      dup2\n      mstore\n      0x20\n      add\n      swap1\n      dup2\n      mstore\n      0x20\n      add\n      0x00\n      keccak256\n        /* \"Documents/GitHub/contract-token-cryptoMonster/backend/components/PhasePrivate.sol\":2343:2380  strucApplications_[_userAdr].reviewed */\n      0x02\n      add\n      0x15\n        /* \"Documents/GitHub/contract-token-cryptoMonster/backend/components/PhasePrivate.sol\":2343:2387  strucApplications_[_userAdr].reviewed = true */\n      0x0100\n      exp\n      dup2\n      sload\n      dup2\n      0xff\n      mul\n      not\n      and\n      swap1\n      dup4\n      iszero\n      iszero\n      mul\n      or\n      swap1\n      sstore\n      pop\n        /* \"Documents/GitHub/contract-token-cryptoMonster/backend/components/PhasePrivate.sol\":2533:2551  strucApplications_ */\n      0x02\n        /* \"Documents/GitHub/contract-token-cryptoMonster/backend/components/PhasePrivate.sol\":2533:2561  strucApplications_[_userAdr] */\n      0x00\n        /* \"Documents/GitHub/contract-token-cryptoMonster/backend/components/PhasePrivate.sol\":2552:2560  _userAdr */\n      dup4\n        /* \"Documents/GitHub/contract-token-cryptoMonster/backend/components/PhasePrivate.sol\":2533:2561  strucApplications_[_userAdr] */\n      0xffffffffffffffffffffffffffffffffffffffff\n      and\n      0xffffffffffffffffffffffffffffffffffffffff\n      and\n      dup2\n      mstore\n      0x20\n      add\n      swap1\n      dup2\n      mstore\n      0x20\n      add\n      0x00\n      keccak256\n        /* \"Documents/GitHub/contract-token-cryptoMonster/backend/components/PhasePrivate.sol\":2526:2561  return strucApplications_[_userAdr] */\n      mload(0x40)\n      dup1\n      0xc0\n      add\n      0x40\n      mstore\n      swap1\n      dup2\n      0x00\n      dup3\n      add\n      dup1\n      sload\n      tag_78\n      swap1\n      tag_79\n      jump\t// in\n    tag_78:\n      dup1\n      0x1f\n      add\n      0x20\n      dup1\n      swap2\n      div\n      mul\n      0x20\n      add\n      mload(0x40)\n      swap1\n      dup2\n      add\n      0x40\n      mstore\n      dup1\n      swap3\n      swap2\n      swap1\n      dup2\n      dup2\n      mstore\n      0x20\n      add\n      dup3\n      dup1\n      sload\n      tag_80\n      swap1\n      tag_79\n      jump\t// in\n    tag_80:\n      dup1\n      iszero\n      tag_81\n      jumpi\n      dup1\n      0x1f\n      lt\n      tag_82\n      jumpi\n      0x0100\n      dup1\n      dup4\n      sload\n      div\n      mul\n      dup4\n      mstore\n      swap2\n      0x20\n      add\n      swap2\n      jump(tag_81)\n    tag_82:\n      dup3\n      add\n      swap2\n      swap1\n      0x00\n      mstore\n      keccak256(0x00, 0x20)\n      swap1\n    tag_83:\n      dup2\n      sload\n      dup2\n      mstore\n      swap1\n      0x01\n      add\n      swap1\n      0x20\n      add\n      dup1\n      dup4\n      gt\n      tag_83\n      jumpi\n      dup3\n      swap1\n      sub\n      0x1f\n      and\n      dup3\n      add\n      swap2\n    tag_81:\n      pop\n      pop\n      pop\n      pop\n      pop\n      dup2\n      mstore\n      0x20\n      add\n      0x01\n      dup3\n      add\n      dup1\n      sload\n      tag_84\n      swap1\n      tag_79\n      jump\t// in\n    tag_84:\n      dup1\n      0x1f\n      add\n      0x20\n      dup1\n      swap2\n      div\n      mul\n      0x20\n      add\n      mload(0x40)\n      swap1\n      dup2\n      add\n      0x40\n      mstore\n      dup1\n      swap3\n      swap2\n      swap1\n      dup2\n      dup2\n      mstore\n      0x20\n      add\n      dup3\n      dup1\n      sload\n      tag_85\n      swap1\n      tag_79\n      jump\t// in\n    tag_85:\n      dup1\n      iszero\n      tag_86\n      jumpi\n      dup1\n      0x1f\n      lt\n      tag_87\n      jumpi\n      0x0100\n      dup1\n      dup4\n      sload\n      div\n      mul\n      dup4\n      mstore\n      swap2\n      0x20\n      add\n      swap2\n      jump(tag_86)\n    tag_87:\n      dup3\n      add\n      swap2\n      swap1\n      0x00\n      mstore\n      keccak256(0x00, 0x20)\n      swap1\n    tag_88:\n      dup2\n      sload\n      dup2\n      mstore\n      swap1\n      0x01\n      add\n      swap1\n      0x20\n      add\n      dup1\n      dup4\n      gt\n      tag_88\n      jumpi\n      dup3\n      swap1\n      sub\n      0x1f\n      and\n      dup3\n      add\n      swap2\n    tag_86:\n      pop\n      pop\n      pop\n      pop\n      pop\n      dup2\n      mstore\n      0x20\n      add\n      0x02\n      dup3\n      add\n      0x00\n      swap1\n      sload\n      swap1\n      0x0100\n      exp\n      swap1\n      div\n      0xffffffffffffffffffffffffffffffffffffffff\n      and\n      0xffffffffffffffffffffffffffffffffffffffff\n      and\n      0xffffffffffffffffffffffffffffffffffffffff\n      and\n      dup2\n      mstore\n      0x20\n      add\n      0x02\n      dup3\n      add\n      0x14\n      swap1\n      sload\n      swap1\n      0x0100\n      exp\n      swap1\n      div\n      0xff\n      and\n      iszero\n      iszero\n      iszero\n      iszero\n      dup2\n      mstore\n      0x20\n      add\n      0x02\n      dup3\n      add\n      0x15\n      swap1\n      sload\n      swap1\n      0x0100\n      exp\n      swap1\n      div\n      0xff\n      and\n      iszero\n      iszero\n      iszero\n      iszero\n      dup2\n      mstore\n      0x20\n      add\n      0x02\n      dup3\n      add\n      0x16\n      swap1\n      sload\n      swap1\n      0x0100\n      exp\n      swap1\n      div\n      0xff\n      and\n      iszero\n      iszero\n      iszero\n      iszero\n      dup2\n      mstore\n      pop\n      pop\n      swap1\n      pop\n        /* \"Documents/GitHub/contract-token-cryptoMonster/backend/components/PhasePrivate.sol\":2226:2569  function viewApplication (address _userAdr) public onlyPrivateProvider returns (structApplication memory) {\r... */\n      swap2\n      swap1\n      pop\n      jump\t// out\n        /* \"Documents/GitHub/contract-token-cryptoMonster/backend/components/PhasePrivate.sol\":293:1021  function application(string memory _name, string memory _contactForCommunication, address _userAdr) public {\r... */\n    tag_25:\n        /* \"Documents/GitHub/contract-token-cryptoMonster/backend/components/PhasePrivate.sol\":459:463  true */\n      0x01\n        /* \"Documents/GitHub/contract-token-cryptoMonster/backend/components/PhasePrivate.sol\":419:463  strucApplications_[msg.sender].exist == true */\n      iszero\n      iszero\n        /* \"Documents/GitHub/contract-token-cryptoMonster/backend/components/PhasePrivate.sol\":419:437  strucApplications_ */\n      0x02\n        /* \"Documents/GitHub/contract-token-cryptoMonster/backend/components/PhasePrivate.sol\":419:449  strucApplications_[msg.sender] */\n      0x00\n        /* \"Documents/GitHub/contract-token-cryptoMonster/backend/components/PhasePrivate.sol\":438:448  msg.sender */\n      caller\n        /* \"Documents/GitHub/contract-token-cryptoMonster/backend/components/PhasePrivate.sol\":419:449  strucApplications_[msg.sender] */\n      0xffffffffffffffffffffffffffffffffffffffff\n      and\n      0xffffffffffffffffffffffffffffffffffffffff\n      and\n      dup2\n      mstore\n      0x20\n      add\n      swap1\n      dup2\n      mstore\n      0x20\n      add\n      0x00\n      keccak256\n        /* \"Documents/GitHub/contract-token-cryptoMonster/backend/components/PhasePrivate.sol\":419:455  strucApplications_[msg.sender].exist */\n      0x02\n      add\n      0x16\n      swap1\n      sload\n      swap1\n      0x0100\n      exp\n      swap1\n      div\n      0xff\n      and\n        /* \"Documents/GitHub/contract-token-cryptoMonster/backend/components/PhasePrivate.sol\":419:463  strucApplications_[msg.sender].exist == true */\n      iszero\n      iszero\n      eq\n        /* \"Documents/GitHub/contract-token-cryptoMonster/backend/components/PhasePrivate.sol\":411:492  require(strucApplications_[msg.sender].exist == true, \"Application already sent\") */\n      tag_90\n      jumpi\n      mload(0x40)\n      0x08c379a000000000000000000000000000000000000000000000000000000000\n      dup2\n      mstore\n      0x04\n      add\n      tag_91\n      swap1\n      tag_92\n      jump\t// in\n    tag_91:\n      mload(0x40)\n      dup1\n      swap2\n      sub\n      swap1\n      revert\n    tag_90:\n        /* \"Documents/GitHub/contract-token-cryptoMonster/backend/components/PhasePrivate.sol\":652:657  false */\n      0x00\n        /* \"Documents/GitHub/contract-token-cryptoMonster/backend/components/PhasePrivate.sol\":611:657  strucApplications_[msg.sender].status == false */\n      iszero\n      iszero\n        /* \"Documents/GitHub/contract-token-cryptoMonster/backend/components/PhasePrivate.sol\":611:629  strucApplications_ */\n      0x02\n        /* \"Documents/GitHub/contract-token-cryptoMonster/backend/components/PhasePrivate.sol\":611:641  strucApplications_[msg.sender] */\n      0x00\n        /* \"Documents/GitHub/contract-token-cryptoMonster/backend/components/PhasePrivate.sol\":630:640  msg.sender */\n      caller\n        /* \"Documents/GitHub/contract-token-cryptoMonster/backend/components/PhasePrivate.sol\":611:641  strucApplications_[msg.sender] */\n      0xffffffffffffffffffffffffffffffffffffffff\n      and\n      0xffffffffffffffffffffffffffffffffffffffff\n      and\n      dup2\n      mstore\n      0x20\n      add\n      swap1\n      dup2\n      mstore\n      0x20\n      add\n      0x00\n      keccak256\n        /* \"Documents/GitHub/contract-token-cryptoMonster/backend/components/PhasePrivate.sol\":611:648  strucApplications_[msg.sender].status */\n      0x02\n      add\n      0x14\n      swap1\n      sload\n      swap1\n      0x0100\n      exp\n      swap1\n      div\n      0xff\n      and\n        /* \"Documents/GitHub/contract-token-cryptoMonster/backend/components/PhasePrivate.sol\":611:657  strucApplications_[msg.sender].status == false */\n      iszero\n      iszero\n      eq\n        /* \"Documents/GitHub/contract-token-cryptoMonster/backend/components/PhasePrivate.sol\":603:704  require(strucApplications_[msg.sender].status == false, \"Your application has already been rejected\") */\n      tag_93\n      jumpi\n      mload(0x40)\n      0x08c379a000000000000000000000000000000000000000000000000000000000\n      dup2\n      mstore\n      0x04\n      add\n      tag_94\n      swap1\n      tag_95\n      jump\t// in\n    tag_94:\n      mload(0x40)\n      dup1\n      swap2\n      sub\n      swap1\n      revert\n    tag_93:\n        /* \"Documents/GitHub/contract-token-cryptoMonster/backend/components/PhasePrivate.sol\":821:900  structApplication(_name, _contactForCommunication, _userAdr, true, false, true) */\n      mload(0x40)\n      dup1\n      0xc0\n      add\n      0x40\n      mstore\n      dup1\n        /* \"Documents/GitHub/contract-token-cryptoMonster/backend/components/PhasePrivate.sol\":839:844  _name */\n      dup5\n        /* \"Documents/GitHub/contract-token-cryptoMonster/backend/components/PhasePrivate.sol\":821:900  structApplication(_name, _contactForCommunication, _userAdr, true, false, true) */\n      dup2\n      mstore\n      0x20\n      add\n        /* \"Documents/GitHub/contract-token-cryptoMonster/backend/components/PhasePrivate.sol\":846:870  _contactForCommunication */\n      dup4\n        /* \"Documents/GitHub/contract-token-cryptoMonster/backend/components/PhasePrivate.sol\":821:900  structApplication(_name, _contactForCommunication, _userAdr, true, false, true) */\n      dup2\n      mstore\n      0x20\n      add\n        /* \"Documents/GitHub/contract-token-cryptoMonster/backend/components/PhasePrivate.sol\":872:880  _userAdr */\n      dup3\n        /* \"Documents/GitHub/contract-token-cryptoMonster/backend/components/PhasePrivate.sol\":821:900  structApplication(_name, _contactForCommunication, _userAdr, true, false, true) */\n      0xffffffffffffffffffffffffffffffffffffffff\n      and\n      dup2\n      mstore\n      0x20\n      add\n        /* \"Documents/GitHub/contract-token-cryptoMonster/backend/components/PhasePrivate.sol\":882:886  true */\n      0x01\n        /* \"Documents/GitHub/contract-token-cryptoMonster/backend/components/PhasePrivate.sol\":821:900  structApplication(_name, _contactForCommunication, _userAdr, true, false, true) */\n      iszero\n      iszero\n      dup2\n      mstore\n      0x20\n      add\n        /* \"Documents/GitHub/contract-token-cryptoMonster/backend/components/PhasePrivate.sol\":888:893  false */\n      0x00\n        /* \"Documents/GitHub/contract-token-cryptoMonster/backend/components/PhasePrivate.sol\":821:900  structApplication(_name, _contactForCommunication, _userAdr, true, false, true) */\n      iszero\n      iszero\n      dup2\n      mstore\n      0x20\n      add\n        /* \"Documents/GitHub/contract-token-cryptoMonster/backend/components/PhasePrivate.sol\":895:899  true */\n      0x01\n        /* \"Documents/GitHub/contract-token-cryptoMonster/backend/components/PhasePrivate.sol\":821:900  structApplication(_name, _contactForCommunication, _userAdr, true, false, true) */\n      iszero\n      iszero\n      dup2\n      mstore\n      pop\n        /* \"Documents/GitHub/contract-token-cryptoMonster/backend/components/PhasePrivate.sol\":787:805  strucApplications_ */\n      0x02\n        /* \"Documents/GitHub/contract-token-cryptoMonster/backend/components/PhasePrivate.sol\":787:817  strucApplications_[msg.sender] */\n      0x00\n        /* \"Documents/GitHub/contract-token-cryptoMonster/backend/components/PhasePrivate.sol\":806:816  msg.sender */\n      caller\n        /* \"Documents/GitHub/contract-token-cryptoMonster/backend/components/PhasePrivate.sol\":787:817  strucApplications_[msg.sender] */\n      0xffffffffffffffffffffffffffffffffffffffff\n      and\n      0xffffffffffffffffffffffffffffffffffffffff\n      and\n      dup2\n      mstore\n      0x20\n      add\n      swap1\n      dup2\n      mstore\n      0x20\n      add\n      0x00\n      keccak256\n        /* \"Documents/GitHub/contract-token-cryptoMonster/backend/components/PhasePrivate.sol\":787:900  strucApplications_[msg.sender]  = structApplication(_name, _contactForCommunication, _userAdr, true, false, true) */\n      0x00\n      dup3\n      add\n      mload\n      dup2\n      0x00\n      add\n      swap1\n      dup1\n      mload\n      swap1\n      0x20\n      add\n      swap1\n      tag_96\n      swap3\n      swap2\n      swap1\n      tag_97\n      jump\t// in\n    tag_96:\n      pop\n      0x20\n      dup3\n      add\n      mload\n      dup2\n      0x01\n      add\n      swap1\n      dup1\n      mload\n      swap1\n      0x20\n      add\n      swap1\n      tag_98\n      swap3\n      swap2\n      swap1\n      tag_97\n      jump\t// in\n    tag_98:\n      pop\n      0x40\n      dup3\n      add\n      mload\n      dup2\n      0x02\n      add\n      exp(0x0100, 0x00)\n      dup2\n      sload\n      dup2\n      0xffffffffffffffffffffffffffffffffffffffff\n      mul\n      not\n      and\n      swap1\n      dup4\n      0xffffffffffffffffffffffffffffffffffffffff\n      and\n      mul\n      or\n      swap1\n      sstore\n      pop\n      0x60\n      dup3\n      add\n      mload\n      dup2\n      0x02\n      add\n      exp(0x0100, 0x14)\n      dup2\n      sload\n      dup2\n      0xff\n      mul\n      not\n      and\n      swap1\n      dup4\n      iszero\n      iszero\n      mul\n      or\n      swap1\n      sstore\n      pop\n      0x80\n      dup3\n      add\n      mload\n      dup2\n      0x02\n      add\n      exp(0x0100, 0x15)\n      dup2\n      sload\n      dup2\n      0xff\n      mul\n      not\n      and\n      swap1\n      dup4\n      iszero\n      iszero\n      mul\n      or\n      swap1\n      sstore\n      pop\n      0xa0\n      dup3\n      add\n      mload\n      dup2\n      0x02\n      add\n      exp(0x0100, 0x16)\n      dup2\n      sload\n      dup2\n      0xff\n      mul\n      not\n      and\n      swap1\n      dup4\n      iszero\n      iszero\n      mul\n      or\n      swap1\n      sstore\n      pop\n      swap1\n      pop\n      pop\n        /* \"Documents/GitHub/contract-token-cryptoMonster/backend/components/PhasePrivate.sol\":969:996  structApplicationsAmountAdr */\n      0x03\n        /* \"Documents/GitHub/contract-token-cryptoMonster/backend/components/PhasePrivate.sol\":1002:1012  msg.sender */\n      caller\n        /* \"Documents/GitHub/contract-token-cryptoMonster/backend/components/PhasePrivate.sol\":969:1013  structApplicationsAmountAdr.push(msg.sender) */\n      swap1\n      dup1\n      0x01\n      dup2\n      sload\n      add\n      dup1\n      dup3\n      sstore\n      dup1\n      swap2\n      pop\n      pop\n      0x01\n      swap1\n      sub\n      swap1\n      0x00\n      mstore\n      keccak256(0x00, 0x20)\n      add\n      0x00\n      swap1\n      swap2\n      swap1\n      swap2\n      swap1\n      swap2\n      0x0100\n      exp\n      dup2\n      sload\n      dup2\n      0xffffffffffffffffffffffffffffffffffffffff\n      mul\n      not\n      and\n      swap1\n      dup4\n      0xffffffffffffffffffffffffffffffffffffffff\n      and\n      mul\n      or\n      swap1\n      sstore\n      pop\n        /* \"Documents/GitHub/contract-token-cryptoMonster/backend/components/PhasePrivate.sol\":293:1021  function application(string memory _name, string memory _contactForCommunication, address _userAdr) public {\r... */\n      pop\n      pop\n      pop\n      jump\t// out\n        /* \"Documents/GitHub/contract-token-cryptoMonster/backend/shared/helpers/getFuncs.sol\":144:282  function get_keccak256(string memory _hash) public pure returns(bytes32) {\r... */\n    tag_29:\n        /* \"Documents/GitHub/contract-token-cryptoMonster/backend/shared/helpers/getFuncs.sol\":208:215  bytes32 */\n      0x00\n        /* \"Documents/GitHub/contract-token-cryptoMonster/backend/shared/helpers/getFuncs.sol\":266:271  _hash */\n      dup2\n        /* \"Documents/GitHub/contract-token-cryptoMonster/backend/shared/helpers/getFuncs.sol\":249:272  abi.encodePacked(_hash) */\n      add(0x20, mload(0x40))\n      tag_101\n      swap2\n      swap1\n      tag_102\n      jump\t// in\n    tag_101:\n      mload(0x40)\n      0x20\n      dup2\n      dup4\n      sub\n      sub\n      dup2\n      mstore\n      swap1\n      0x40\n      mstore\n        /* \"Documents/GitHub/contract-token-cryptoMonster/backend/shared/helpers/getFuncs.sol\":239:273  keccak256(abi.encodePacked(_hash)) */\n      dup1\n      mload\n      swap1\n      0x20\n      add\n      keccak256\n        /* \"Documents/GitHub/contract-token-cryptoMonster/backend/shared/helpers/getFuncs.sol\":232:274  return(keccak256(abi.encodePacked(_hash))) */\n      swap1\n      pop\n        /* \"Documents/GitHub/contract-token-cryptoMonster/backend/shared/helpers/getFuncs.sol\":144:282  function get_keccak256(string memory _hash) public pure returns(bytes32) {\r... */\n      swap2\n      swap1\n      pop\n      jump\t// out\n        /* \"Documents/GitHub/contract-token-cryptoMonster/backend/components/PhasePrivate.sol\":2645:2880  function acceptApplication (address _userAdr) public onlyPrivateProvider {\r... */\n    tag_34:\n        /* \"Documents/GitHub/contract-token-cryptoMonster/backend/shared/helpers/modifireFunc.sol\":566:585  Role.SYSTEM_PRIVATE */\n      0x02\n        /* \"Documents/GitHub/contract-token-cryptoMonster/backend/shared/helpers/modifireFunc.sol\":533:585  structUsers_[msg.sender].role == Role.SYSTEM_PRIVATE */\n      0x04\n      dup2\n      gt\n      iszero\n      tag_104\n      jumpi\n      tag_105\n      tag_38\n      jump\t// in\n    tag_105:\n    tag_104:\n        /* \"Documents/GitHub/contract-token-cryptoMonster/backend/shared/helpers/modifireFunc.sol\":533:545  structUsers_ */\n      0x00\n        /* \"Documents/GitHub/contract-token-cryptoMonster/backend/shared/helpers/modifireFunc.sol\":533:557  structUsers_[msg.sender] */\n      dup1\n        /* \"Documents/GitHub/contract-token-cryptoMonster/backend/shared/helpers/modifireFunc.sol\":546:556  msg.sender */\n      caller\n        /* \"Documents/GitHub/contract-token-cryptoMonster/backend/shared/helpers/modifireFunc.sol\":533:557  structUsers_[msg.sender] */\n      0xffffffffffffffffffffffffffffffffffffffff\n      and\n      0xffffffffffffffffffffffffffffffffffffffff\n      and\n      dup2\n      mstore\n      0x20\n      add\n      swap1\n      dup2\n      mstore\n      0x20\n      add\n      0x00\n      keccak256\n        /* \"Documents/GitHub/contract-token-cryptoMonster/backend/shared/helpers/modifireFunc.sol\":533:562  structUsers_[msg.sender].role */\n      0x00\n      add\n      0x00\n      swap1\n      sload\n      swap1\n      0x0100\n      exp\n      swap1\n      div\n      0xff\n      and\n        /* \"Documents/GitHub/contract-token-cryptoMonster/backend/shared/helpers/modifireFunc.sol\":533:585  structUsers_[msg.sender].role == Role.SYSTEM_PRIVATE */\n      0x04\n      dup2\n      gt\n      iszero\n      tag_106\n      jumpi\n      tag_107\n      tag_38\n      jump\t// in\n    tag_107:\n    tag_106:\n      eq\n        /* \"Documents/GitHub/contract-token-cryptoMonster/backend/shared/helpers/modifireFunc.sol\":525:615  require(structUsers_[msg.sender].role == Role.SYSTEM_PRIVATE, \"Your not Private provider\") */\n      tag_108\n      jumpi\n      mload(0x40)\n      0x08c379a000000000000000000000000000000000000000000000000000000000\n      dup2\n      mstore\n      0x04\n      add\n      tag_109\n      swap1\n      tag_43\n      jump\t// in\n    tag_109:\n      mload(0x40)\n      dup1\n      swap2\n      sub\n      swap1\n      revert\n    tag_108:\n        /* \"Documents/GitHub/contract-token-cryptoMonster/backend/components/PhasePrivate.sol\":2780:2785  false */\n      0x00\n        /* \"Documents/GitHub/contract-token-cryptoMonster/backend/components/PhasePrivate.sol\":2737:2785  strucApplications_[msg.sender].reviewed == false */\n      iszero\n      iszero\n        /* \"Documents/GitHub/contract-token-cryptoMonster/backend/components/PhasePrivate.sol\":2737:2755  strucApplications_ */\n      0x02\n        /* \"Documents/GitHub/contract-token-cryptoMonster/backend/components/PhasePrivate.sol\":2737:2767  strucApplications_[msg.sender] */\n      0x00\n        /* \"Documents/GitHub/contract-token-cryptoMonster/backend/components/PhasePrivate.sol\":2756:2766  msg.sender */\n      caller\n        /* \"Documents/GitHub/contract-token-cryptoMonster/backend/components/PhasePrivate.sol\":2737:2767  strucApplications_[msg.sender] */\n      0xffffffffffffffffffffffffffffffffffffffff\n      and\n      0xffffffffffffffffffffffffffffffffffffffff\n      and\n      dup2\n      mstore\n      0x20\n      add\n      swap1\n      dup2\n      mstore\n      0x20\n      add\n      0x00\n      keccak256\n        /* \"Documents/GitHub/contract-token-cryptoMonster/backend/components/PhasePrivate.sol\":2737:2776  strucApplications_[msg.sender].reviewed */\n      0x02\n      add\n      0x15\n      swap1\n      sload\n      swap1\n      0x0100\n      exp\n      swap1\n      div\n      0xff\n      and\n        /* \"Documents/GitHub/contract-token-cryptoMonster/backend/components/PhasePrivate.sol\":2737:2785  strucApplications_[msg.sender].reviewed == false */\n      iszero\n      iszero\n      eq\n        /* \"Documents/GitHub/contract-token-cryptoMonster/backend/components/PhasePrivate.sol\":2729:2818  require(strucApplications_[msg.sender].reviewed == false, \"Review the application first\") */\n      tag_111\n      jumpi\n      mload(0x40)\n      0x08c379a000000000000000000000000000000000000000000000000000000000\n      dup2\n      mstore\n      0x04\n      add\n      tag_112\n      swap1\n      tag_113\n      jump\t// in\n    tag_112:\n      mload(0x40)\n      dup1\n      swap2\n      sub\n      swap1\n      revert\n    tag_111:\n        /* \"Documents/GitHub/contract-token-cryptoMonster/backend/components/PhasePrivate.sol\":2867:2872  false */\n      0x00\n        /* \"Documents/GitHub/contract-token-cryptoMonster/backend/components/PhasePrivate.sol\":2829:2847  strucApplications_ */\n      0x02\n        /* \"Documents/GitHub/contract-token-cryptoMonster/backend/components/PhasePrivate.sol\":2829:2857  strucApplications_[_userAdr] */\n      0x00\n        /* \"Documents/GitHub/contract-token-cryptoMonster/backend/components/PhasePrivate.sol\":2848:2856  _userAdr */\n      dup4\n        /* \"Documents/GitHub/contract-token-cryptoMonster/backend/components/PhasePrivate.sol\":2829:2857  strucApplications_[_userAdr] */\n      0xffffffffffffffffffffffffffffffffffffffff\n      and\n      0xffffffffffffffffffffffffffffffffffffffff\n      and\n      dup2\n      mstore\n      0x20\n      add\n      swap1\n      dup2\n      mstore\n      0x20\n      add\n      0x00\n      keccak256\n        /* \"Documents/GitHub/contract-token-cryptoMonster/backend/components/PhasePrivate.sol\":2829:2864  strucApplications_[_userAdr].status */\n      0x02\n      add\n      0x14\n        /* \"Documents/GitHub/contract-token-cryptoMonster/backend/components/PhasePrivate.sol\":2829:2872  strucApplications_[_userAdr].status = false */\n      0x0100\n      exp\n      dup2\n      sload\n      dup2\n      0xff\n      mul\n      not\n      and\n      swap1\n      dup4\n      iszero\n      iszero\n      mul\n      or\n      swap1\n      sstore\n      pop\n        /* \"Documents/GitHub/contract-token-cryptoMonster/backend/components/PhasePrivate.sol\":2645:2880  function acceptApplication (address _userAdr) public onlyPrivateProvider {\r... */\n      pop\n      jump\t// out\n    tag_69:\n      mload(0x40)\n      dup1\n      0xc0\n      add\n      0x40\n      mstore\n      dup1\n      0x60\n      dup2\n      mstore\n      0x20\n      add\n      0x60\n      dup2\n      mstore\n      0x20\n      add\n      and(0xffffffffffffffffffffffffffffffffffffffff, 0x00)\n      dup2\n      mstore\n      0x20\n      add\n      iszero(iszero(0x00))\n      dup2\n      mstore\n      0x20\n      add\n      iszero(iszero(0x00))\n      dup2\n      mstore\n      0x20\n      add\n      iszero(iszero(0x00))\n      dup2\n      mstore\n      pop\n      swap1\n      jump\t// out\n    tag_97:\n      dup3\n      dup1\n      sload\n      tag_114\n      swap1\n      tag_79\n      jump\t// in\n    tag_114:\n      swap1\n      0x00\n      mstore\n      keccak256(0x00, 0x20)\n      swap1\n      0x1f\n      add\n      0x20\n      swap1\n      div\n      dup2\n      add\n      swap3\n      dup3\n      tag_116\n      jumpi\n      0x00\n      dup6\n      sstore\n      jump(tag_115)\n    tag_116:\n      dup3\n      0x1f\n      lt\n      tag_117\n      jumpi\n      dup1\n      mload\n      not(0xff)\n      and\n      dup4\n      dup1\n      add\n      or\n      dup6\n      sstore\n      jump(tag_115)\n    tag_117:\n      dup3\n      dup1\n      add\n      0x01\n      add\n      dup6\n      sstore\n      dup3\n      iszero\n      tag_115\n      jumpi\n      swap2\n      dup3\n      add\n    tag_118:\n      dup3\n      dup2\n      gt\n      iszero\n      tag_119\n      jumpi\n      dup3\n      mload\n      dup3\n      sstore\n      swap2\n      0x20\n      add\n      swap2\n      swap1\n      0x01\n      add\n      swap1\n      jump(tag_118)\n    tag_119:\n    tag_115:\n      pop\n      swap1\n      pop\n      tag_120\n      swap2\n      swap1\n      tag_121\n      jump\t// in\n    tag_120:\n      pop\n      swap1\n      jump\t// out\n    tag_121:\n    tag_122:\n      dup1\n      dup3\n      gt\n      iszero\n      tag_123\n      jumpi\n      0x00\n      dup2\n      0x00\n      swap1\n      sstore\n      pop\n      0x01\n      add\n      jump(tag_122)\n    tag_123:\n      pop\n      swap1\n      jump\t// out\n        /* \"#utility.yul\":7:419   */\n    tag_125:\n        /* \"#utility.yul\":85:90   */\n      0x00\n        /* \"#utility.yul\":110:176   */\n      tag_127\n        /* \"#utility.yul\":126:175   */\n      tag_128\n        /* \"#utility.yul\":168:174   */\n      dup5\n        /* \"#utility.yul\":126:175   */\n      tag_129\n      jump\t// in\n    tag_128:\n        /* \"#utility.yul\":110:176   */\n      tag_130\n      jump\t// in\n    tag_127:\n        /* \"#utility.yul\":101:176   */\n      swap1\n      pop\n        /* \"#utility.yul\":199:205   */\n      dup3\n        /* \"#utility.yul\":192:197   */\n      dup2\n        /* \"#utility.yul\":185:206   */\n      mstore\n        /* \"#utility.yul\":237:241   */\n      0x20\n        /* \"#utility.yul\":230:235   */\n      dup2\n        /* \"#utility.yul\":226:242   */\n      add\n        /* \"#utility.yul\":275:278   */\n      dup5\n        /* \"#utility.yul\":266:272   */\n      dup5\n        /* \"#utility.yul\":261:264   */\n      dup5\n        /* \"#utility.yul\":257:273   */\n      add\n        /* \"#utility.yul\":254:279   */\n      gt\n        /* \"#utility.yul\":251:363   */\n      iszero\n      tag_131\n      jumpi\n        /* \"#utility.yul\":282:361   */\n      tag_132\n      tag_133\n      jump\t// in\n    tag_132:\n        /* \"#utility.yul\":251:363   */\n    tag_131:\n        /* \"#utility.yul\":372:413   */\n      tag_134\n        /* \"#utility.yul\":406:412   */\n      dup5\n        /* \"#utility.yul\":401:404   */\n      dup3\n        /* \"#utility.yul\":396:399   */\n      dup6\n        /* \"#utility.yul\":372:413   */\n      tag_135\n      jump\t// in\n    tag_134:\n        /* \"#utility.yul\":91:419   */\n      pop\n        /* \"#utility.yul\":7:419   */\n      swap4\n      swap3\n      pop\n      pop\n      pop\n      jump\t// out\n        /* \"#utility.yul\":425:564   */\n    tag_136:\n        /* \"#utility.yul\":471:476   */\n      0x00\n        /* \"#utility.yul\":509:515   */\n      dup2\n        /* \"#utility.yul\":496:516   */\n      calldataload\n        /* \"#utility.yul\":487:516   */\n      swap1\n      pop\n        /* \"#utility.yul\":525:558   */\n      tag_138\n        /* \"#utility.yul\":552:557   */\n      dup2\n        /* \"#utility.yul\":525:558   */\n      tag_139\n      jump\t// in\n    tag_138:\n        /* \"#utility.yul\":425:564   */\n      swap3\n      swap2\n      pop\n      pop\n      jump\t// out\n        /* \"#utility.yul\":584:924   */\n    tag_140:\n        /* \"#utility.yul\":640:645   */\n      0x00\n        /* \"#utility.yul\":689:692   */\n      dup3\n        /* \"#utility.yul\":682:686   */\n      0x1f\n        /* \"#utility.yul\":674:680   */\n      dup4\n        /* \"#utility.yul\":670:687   */\n      add\n        /* \"#utility.yul\":666:693   */\n      slt\n        /* \"#utility.yul\":656:778   */\n      tag_142\n      jumpi\n        /* \"#utility.yul\":697:776   */\n      tag_143\n      tag_144\n      jump\t// in\n    tag_143:\n        /* \"#utility.yul\":656:778   */\n    tag_142:\n        /* \"#utility.yul\":814:820   */\n      dup2\n        /* \"#utility.yul\":801:821   */\n      calldataload\n        /* \"#utility.yul\":839:918   */\n      tag_145\n        /* \"#utility.yul\":914:917   */\n      dup5\n        /* \"#utility.yul\":906:912   */\n      dup3\n        /* \"#utility.yul\":899:903   */\n      0x20\n        /* \"#utility.yul\":891:897   */\n      dup7\n        /* \"#utility.yul\":887:904   */\n      add\n        /* \"#utility.yul\":839:918   */\n      tag_125\n      jump\t// in\n    tag_145:\n        /* \"#utility.yul\":830:918   */\n      swap2\n      pop\n        /* \"#utility.yul\":646:924   */\n      pop\n        /* \"#utility.yul\":584:924   */\n      swap3\n      swap2\n      pop\n      pop\n      jump\t// out\n        /* \"#utility.yul\":930:1259   */\n    tag_18:\n        /* \"#utility.yul\":989:995   */\n      0x00\n        /* \"#utility.yul\":1038:1040   */\n      0x20\n        /* \"#utility.yul\":1026:1035   */\n      dup3\n        /* \"#utility.yul\":1017:1024   */\n      dup5\n        /* \"#utility.yul\":1013:1036   */\n      sub\n        /* \"#utility.yul\":1009:1041   */\n      slt\n        /* \"#utility.yul\":1006:1125   */\n      iszero\n      tag_147\n      jumpi\n        /* \"#utility.yul\":1044:1123   */\n      tag_148\n      tag_149\n      jump\t// in\n    tag_148:\n        /* \"#utility.yul\":1006:1125   */\n    tag_147:\n        /* \"#utility.yul\":1164:1165   */\n      0x00\n        /* \"#utility.yul\":1189:1242   */\n      tag_150\n        /* \"#utility.yul\":1234:1241   */\n      dup5\n        /* \"#utility.yul\":1225:1231   */\n      dup3\n        /* \"#utility.yul\":1214:1223   */\n      dup6\n        /* \"#utility.yul\":1210:1232   */\n      add\n        /* \"#utility.yul\":1189:1242   */\n      tag_136\n      jump\t// in\n    tag_150:\n        /* \"#utility.yul\":1179:1242   */\n      swap2\n      pop\n        /* \"#utility.yul\":1135:1252   */\n      pop\n        /* \"#utility.yul\":930:1259   */\n      swap3\n      swap2\n      pop\n      pop\n      jump\t// out\n        /* \"#utility.yul\":1265:1774   */\n    tag_28:\n        /* \"#utility.yul\":1334:1340   */\n      0x00\n        /* \"#utility.yul\":1383:1385   */\n      0x20\n        /* \"#utility.yul\":1371:1380   */\n      dup3\n        /* \"#utility.yul\":1362:1369   */\n      dup5\n        /* \"#utility.yul\":1358:1381   */\n      sub\n        /* \"#utility.yul\":1354:1386   */\n      slt\n        /* \"#utility.yul\":1351:1470   */\n      iszero\n      tag_152\n      jumpi\n        /* \"#utility.yul\":1389:1468   */\n      tag_153\n      tag_149\n      jump\t// in\n    tag_153:\n        /* \"#utility.yul\":1351:1470   */\n    tag_152:\n        /* \"#utility.yul\":1537:1538   */\n      0x00\n        /* \"#utility.yul\":1526:1535   */\n      dup3\n        /* \"#utility.yul\":1522:1539   */\n      add\n        /* \"#utility.yul\":1509:1540   */\n      calldataload\n        /* \"#utility.yul\":1567:1585   */\n      0xffffffffffffffff\n        /* \"#utility.yul\":1559:1565   */\n      dup2\n        /* \"#utility.yul\":1556:1586   */\n      gt\n        /* \"#utility.yul\":1553:1670   */\n      iszero\n      tag_154\n      jumpi\n        /* \"#utility.yul\":1589:1668   */\n      tag_155\n      tag_156\n      jump\t// in\n    tag_155:\n        /* \"#utility.yul\":1553:1670   */\n    tag_154:\n        /* \"#utility.yul\":1694:1757   */\n      tag_157\n        /* \"#utility.yul\":1749:1756   */\n      dup5\n        /* \"#utility.yul\":1740:1746   */\n      dup3\n        /* \"#utility.yul\":1729:1738   */\n      dup6\n        /* \"#utility.yul\":1725:1747   */\n      add\n        /* \"#utility.yul\":1694:1757   */\n      tag_140\n      jump\t// in\n    tag_157:\n        /* \"#utility.yul\":1684:1757   */\n      swap2\n      pop\n        /* \"#utility.yul\":1480:1767   */\n      pop\n        /* \"#utility.yul\":1265:1774   */\n      swap3\n      swap2\n      pop\n      pop\n      jump\t// out\n        /* \"#utility.yul\":1780:2759   */\n    tag_24:\n        /* \"#utility.yul\":1877:1883   */\n      0x00\n        /* \"#utility.yul\":1885:1891   */\n      dup1\n        /* \"#utility.yul\":1893:1899   */\n      0x00\n        /* \"#utility.yul\":1942:1944   */\n      0x60\n        /* \"#utility.yul\":1930:1939   */\n      dup5\n        /* \"#utility.yul\":1921:1928   */\n      dup7\n        /* \"#utility.yul\":1917:1940   */\n      sub\n        /* \"#utility.yul\":1913:1945   */\n      slt\n        /* \"#utility.yul\":1910:2029   */\n      iszero\n      tag_159\n      jumpi\n        /* \"#utility.yul\":1948:2027   */\n      tag_160\n      tag_149\n      jump\t// in\n    tag_160:\n        /* \"#utility.yul\":1910:2029   */\n    tag_159:\n        /* \"#utility.yul\":2096:2097   */\n      0x00\n        /* \"#utility.yul\":2085:2094   */\n      dup5\n        /* \"#utility.yul\":2081:2098   */\n      add\n        /* \"#utility.yul\":2068:2099   */\n      calldataload\n        /* \"#utility.yul\":2126:2144   */\n      0xffffffffffffffff\n        /* \"#utility.yul\":2118:2124   */\n      dup2\n        /* \"#utility.yul\":2115:2145   */\n      gt\n        /* \"#utility.yul\":2112:2229   */\n      iszero\n      tag_161\n      jumpi\n        /* \"#utility.yul\":2148:2227   */\n      tag_162\n      tag_156\n      jump\t// in\n    tag_162:\n        /* \"#utility.yul\":2112:2229   */\n    tag_161:\n        /* \"#utility.yul\":2253:2316   */\n      tag_163\n        /* \"#utility.yul\":2308:2315   */\n      dup7\n        /* \"#utility.yul\":2299:2305   */\n      dup3\n        /* \"#utility.yul\":2288:2297   */\n      dup8\n        /* \"#utility.yul\":2284:2306   */\n      add\n        /* \"#utility.yul\":2253:2316   */\n      tag_140\n      jump\t// in\n    tag_163:\n        /* \"#utility.yul\":2243:2316   */\n      swap4\n      pop\n        /* \"#utility.yul\":2039:2326   */\n      pop\n        /* \"#utility.yul\":2393:2395   */\n      0x20\n        /* \"#utility.yul\":2382:2391   */\n      dup5\n        /* \"#utility.yul\":2378:2396   */\n      add\n        /* \"#utility.yul\":2365:2397   */\n      calldataload\n        /* \"#utility.yul\":2424:2442   */\n      0xffffffffffffffff\n        /* \"#utility.yul\":2416:2422   */\n      dup2\n        /* \"#utility.yul\":2413:2443   */\n      gt\n        /* \"#utility.yul\":2410:2527   */\n      iszero\n      tag_164\n      jumpi\n        /* \"#utility.yul\":2446:2525   */\n      tag_165\n      tag_156\n      jump\t// in\n    tag_165:\n        /* \"#utility.yul\":2410:2527   */\n    tag_164:\n        /* \"#utility.yul\":2551:2614   */\n      tag_166\n        /* \"#utility.yul\":2606:2613   */\n      dup7\n        /* \"#utility.yul\":2597:2603   */\n      dup3\n        /* \"#utility.yul\":2586:2595   */\n      dup8\n        /* \"#utility.yul\":2582:2604   */\n      add\n        /* \"#utility.yul\":2551:2614   */\n      tag_140\n      jump\t// in\n    tag_166:\n        /* \"#utility.yul\":2541:2614   */\n      swap3\n      pop\n        /* \"#utility.yul\":2336:2624   */\n      pop\n        /* \"#utility.yul\":2663:2665   */\n      0x40\n        /* \"#utility.yul\":2689:2742   */\n      tag_167\n        /* \"#utility.yul\":2734:2741   */\n      dup7\n        /* \"#utility.yul\":2725:2731   */\n      dup3\n        /* \"#utility.yul\":2714:2723   */\n      dup8\n        /* \"#utility.yul\":2710:2732   */\n      add\n        /* \"#utility.yul\":2689:2742   */\n      tag_136\n      jump\t// in\n    tag_167:\n        /* \"#utility.yul\":2679:2742   */\n      swap2\n      pop\n        /* \"#utility.yul\":2634:2752   */\n      pop\n        /* \"#utility.yul\":1780:2759   */\n      swap3\n      pop\n      swap3\n      pop\n      swap3\n      jump\t// out\n        /* \"#utility.yul\":2765:2944   */\n    tag_168:\n        /* \"#utility.yul\":2834:2844   */\n      0x00\n        /* \"#utility.yul\":2855:2901   */\n      tag_170\n        /* \"#utility.yul\":2897:2900   */\n      dup4\n        /* \"#utility.yul\":2889:2895   */\n      dup4\n        /* \"#utility.yul\":2855:2901   */\n      tag_171\n      jump\t// in\n    tag_170:\n        /* \"#utility.yul\":2933:2937   */\n      0x20\n        /* \"#utility.yul\":2928:2931   */\n      dup4\n        /* \"#utility.yul\":2924:2938   */\n      add\n        /* \"#utility.yul\":2910:2938   */\n      swap1\n      pop\n        /* \"#utility.yul\":2765:2944   */\n      swap3\n      swap2\n      pop\n      pop\n      jump\t// out\n        /* \"#utility.yul\":2950:3058   */\n    tag_171:\n        /* \"#utility.yul\":3027:3051   */\n      tag_173\n        /* \"#utility.yul\":3045:3050   */\n      dup2\n        /* \"#utility.yul\":3027:3051   */\n      tag_174\n      jump\t// in\n    tag_173:\n        /* \"#utility.yul\":3022:3025   */\n      dup3\n        /* \"#utility.yul\":3015:3052   */\n      mstore\n        /* \"#utility.yul\":2950:3058   */\n      pop\n      pop\n      jump\t// out\n        /* \"#utility.yul\":3094:3826   */\n    tag_175:\n        /* \"#utility.yul\":3213:3216   */\n      0x00\n        /* \"#utility.yul\":3242:3296   */\n      tag_177\n        /* \"#utility.yul\":3290:3295   */\n      dup3\n        /* \"#utility.yul\":3242:3296   */\n      tag_178\n      jump\t// in\n    tag_177:\n        /* \"#utility.yul\":3312:3398   */\n      tag_179\n        /* \"#utility.yul\":3391:3397   */\n      dup2\n        /* \"#utility.yul\":3386:3389   */\n      dup6\n        /* \"#utility.yul\":3312:3398   */\n      tag_180\n      jump\t// in\n    tag_179:\n        /* \"#utility.yul\":3305:3398   */\n      swap4\n      pop\n        /* \"#utility.yul\":3422:3478   */\n      tag_181\n        /* \"#utility.yul\":3472:3477   */\n      dup4\n        /* \"#utility.yul\":3422:3478   */\n      tag_182\n      jump\t// in\n    tag_181:\n        /* \"#utility.yul\":3501:3508   */\n      dup1\n        /* \"#utility.yul\":3532:3533   */\n      0x00\n        /* \"#utility.yul\":3517:3801   */\n    tag_183:\n        /* \"#utility.yul\":3542:3548   */\n      dup4\n        /* \"#utility.yul\":3539:3540   */\n      dup2\n        /* \"#utility.yul\":3536:3549   */\n      lt\n        /* \"#utility.yul\":3517:3801   */\n      iszero\n      tag_185\n      jumpi\n        /* \"#utility.yul\":3618:3624   */\n      dup2\n        /* \"#utility.yul\":3612:3625   */\n      mload\n        /* \"#utility.yul\":3645:3708   */\n      tag_186\n        /* \"#utility.yul\":3704:3707   */\n      dup9\n        /* \"#utility.yul\":3689:3702   */\n      dup3\n        /* \"#utility.yul\":3645:3708   */\n      tag_168\n      jump\t// in\n    tag_186:\n        /* \"#utility.yul\":3638:3708   */\n      swap8\n      pop\n        /* \"#utility.yul\":3731:3791   */\n      tag_187\n        /* \"#utility.yul\":3784:3790   */\n      dup4\n        /* \"#utility.yul\":3731:3791   */\n      tag_188\n      jump\t// in\n    tag_187:\n        /* \"#utility.yul\":3721:3791   */\n      swap3\n      pop\n        /* \"#utility.yul\":3577:3801   */\n      pop\n        /* \"#utility.yul\":3564:3565   */\n      0x01\n        /* \"#utility.yul\":3561:3562   */\n      dup2\n        /* \"#utility.yul\":3557:3566   */\n      add\n        /* \"#utility.yul\":3552:3566   */\n      swap1\n      pop\n        /* \"#utility.yul\":3517:3801   */\n      jump(tag_183)\n    tag_185:\n        /* \"#utility.yul\":3521:3535   */\n      pop\n        /* \"#utility.yul\":3817:3820   */\n      dup6\n        /* \"#utility.yul\":3810:3820   */\n      swap4\n      pop\n        /* \"#utility.yul\":3218:3826   */\n      pop\n      pop\n      pop\n        /* \"#utility.yul\":3094:3826   */\n      swap3\n      swap2\n      pop\n      pop\n      jump\t// out\n        /* \"#utility.yul\":3832:3931   */\n    tag_189:\n        /* \"#utility.yul\":3903:3924   */\n      tag_191\n        /* \"#utility.yul\":3918:3923   */\n      dup2\n        /* \"#utility.yul\":3903:3924   */\n      tag_192\n      jump\t// in\n    tag_191:\n        /* \"#utility.yul\":3898:3901   */\n      dup3\n        /* \"#utility.yul\":3891:3925   */\n      mstore\n        /* \"#utility.yul\":3832:3931   */\n      pop\n      pop\n      jump\t// out\n        /* \"#utility.yul\":3937:4055   */\n    tag_193:\n        /* \"#utility.yul\":4024:4048   */\n      tag_195\n        /* \"#utility.yul\":4042:4047   */\n      dup2\n        /* \"#utility.yul\":4024:4048   */\n      tag_196\n      jump\t// in\n    tag_195:\n        /* \"#utility.yul\":4019:4022   */\n      dup3\n        /* \"#utility.yul\":4012:4049   */\n      mstore\n        /* \"#utility.yul\":3937:4055   */\n      pop\n      pop\n      jump\t// out\n        /* \"#utility.yul\":4061:4405   */\n    tag_197:\n        /* \"#utility.yul\":4139:4142   */\n      0x00\n        /* \"#utility.yul\":4167:4206   */\n      tag_199\n        /* \"#utility.yul\":4200:4205   */\n      dup3\n        /* \"#utility.yul\":4167:4206   */\n      tag_200\n      jump\t// in\n    tag_199:\n        /* \"#utility.yul\":4222:4283   */\n      tag_201\n        /* \"#utility.yul\":4276:4282   */\n      dup2\n        /* \"#utility.yul\":4271:4274   */\n      dup6\n        /* \"#utility.yul\":4222:4283   */\n      tag_202\n      jump\t// in\n    tag_201:\n        /* \"#utility.yul\":4215:4283   */\n      swap4\n      pop\n        /* \"#utility.yul\":4292:4344   */\n      tag_203\n        /* \"#utility.yul\":4337:4343   */\n      dup2\n        /* \"#utility.yul\":4332:4335   */\n      dup6\n        /* \"#utility.yul\":4325:4329   */\n      0x20\n        /* \"#utility.yul\":4318:4323   */\n      dup7\n        /* \"#utility.yul\":4314:4330   */\n      add\n        /* \"#utility.yul\":4292:4344   */\n      tag_204\n      jump\t// in\n    tag_203:\n        /* \"#utility.yul\":4369:4398   */\n      tag_205\n        /* \"#utility.yul\":4391:4397   */\n      dup2\n        /* \"#utility.yul\":4369:4398   */\n      tag_206\n      jump\t// in\n    tag_205:\n        /* \"#utility.yul\":4364:4367   */\n      dup5\n        /* \"#utility.yul\":4360:4399   */\n      add\n        /* \"#utility.yul\":4353:4399   */\n      swap2\n      pop\n        /* \"#utility.yul\":4143:4405   */\n      pop\n        /* \"#utility.yul\":4061:4405   */\n      swap3\n      swap2\n      pop\n      pop\n      jump\t// out\n        /* \"#utility.yul\":4411:4788   */\n    tag_207:\n        /* \"#utility.yul\":4517:4520   */\n      0x00\n        /* \"#utility.yul\":4545:4584   */\n      tag_209\n        /* \"#utility.yul\":4578:4583   */\n      dup3\n        /* \"#utility.yul\":4545:4584   */\n      tag_200\n      jump\t// in\n    tag_209:\n        /* \"#utility.yul\":4600:4689   */\n      tag_210\n        /* \"#utility.yul\":4682:4688   */\n      dup2\n        /* \"#utility.yul\":4677:4680   */\n      dup6\n        /* \"#utility.yul\":4600:4689   */\n      tag_211\n      jump\t// in\n    tag_210:\n        /* \"#utility.yul\":4593:4689   */\n      swap4\n      pop\n        /* \"#utility.yul\":4698:4750   */\n      tag_212\n        /* \"#utility.yul\":4743:4749   */\n      dup2\n        /* \"#utility.yul\":4738:4741   */\n      dup6\n        /* \"#utility.yul\":4731:4735   */\n      0x20\n        /* \"#utility.yul\":4724:4729   */\n      dup7\n        /* \"#utility.yul\":4720:4736   */\n      add\n        /* \"#utility.yul\":4698:4750   */\n      tag_204\n      jump\t// in\n    tag_212:\n        /* \"#utility.yul\":4775:4781   */\n      dup1\n        /* \"#utility.yul\":4770:4773   */\n      dup5\n        /* \"#utility.yul\":4766:4782   */\n      add\n        /* \"#utility.yul\":4759:4782   */\n      swap2\n      pop\n        /* \"#utility.yul\":4521:4788   */\n      pop\n        /* \"#utility.yul\":4411:4788   */\n      swap3\n      swap2\n      pop\n      pop\n      jump\t// out\n        /* \"#utility.yul\":4794:5160   */\n    tag_213:\n        /* \"#utility.yul\":4936:4939   */\n      0x00\n        /* \"#utility.yul\":4957:5024   */\n      tag_215\n        /* \"#utility.yul\":5021:5023   */\n      0x1c\n        /* \"#utility.yul\":5016:5019   */\n      dup4\n        /* \"#utility.yul\":4957:5024   */\n      tag_216\n      jump\t// in\n    tag_215:\n        /* \"#utility.yul\":4950:5024   */\n      swap2\n      pop\n        /* \"#utility.yul\":5033:5126   */\n      tag_217\n        /* \"#utility.yul\":5122:5125   */\n      dup3\n        /* \"#utility.yul\":5033:5126   */\n      tag_218\n      jump\t// in\n    tag_217:\n        /* \"#utility.yul\":5151:5153   */\n      0x20\n        /* \"#utility.yul\":5146:5149   */\n      dup3\n        /* \"#utility.yul\":5142:5154   */\n      add\n        /* \"#utility.yul\":5135:5154   */\n      swap1\n      pop\n        /* \"#utility.yul\":4794:5160   */\n      swap2\n      swap1\n      pop\n      jump\t// out\n        /* \"#utility.yul\":5166:5532   */\n    tag_219:\n        /* \"#utility.yul\":5308:5311   */\n      0x00\n        /* \"#utility.yul\":5329:5396   */\n      tag_221\n        /* \"#utility.yul\":5393:5395   */\n      0x18\n        /* \"#utility.yul\":5388:5391   */\n      dup4\n        /* \"#utility.yul\":5329:5396   */\n      tag_216\n      jump\t// in\n    tag_221:\n        /* \"#utility.yul\":5322:5396   */\n      swap2\n      pop\n        /* \"#utility.yul\":5405:5498   */\n      tag_222\n        /* \"#utility.yul\":5494:5497   */\n      dup3\n        /* \"#utility.yul\":5405:5498   */\n      tag_223\n      jump\t// in\n    tag_222:\n        /* \"#utility.yul\":5523:5525   */\n      0x20\n        /* \"#utility.yul\":5518:5521   */\n      dup3\n        /* \"#utility.yul\":5514:5526   */\n      add\n        /* \"#utility.yul\":5507:5526   */\n      swap1\n      pop\n        /* \"#utility.yul\":5166:5532   */\n      swap2\n      swap1\n      pop\n      jump\t// out\n        /* \"#utility.yul\":5538:5904   */\n    tag_224:\n        /* \"#utility.yul\":5680:5683   */\n      0x00\n        /* \"#utility.yul\":5701:5768   */\n      tag_226\n        /* \"#utility.yul\":5765:5767   */\n      0x2a\n        /* \"#utility.yul\":5760:5763   */\n      dup4\n        /* \"#utility.yul\":5701:5768   */\n      tag_216\n      jump\t// in\n    tag_226:\n        /* \"#utility.yul\":5694:5768   */\n      swap2\n      pop\n        /* \"#utility.yul\":5777:5870   */\n      tag_227\n        /* \"#utility.yul\":5866:5869   */\n      dup3\n        /* \"#utility.yul\":5777:5870   */\n      tag_228\n      jump\t// in\n    tag_227:\n        /* \"#utility.yul\":5895:5897   */\n      0x40\n        /* \"#utility.yul\":5890:5893   */\n      dup3\n        /* \"#utility.yul\":5886:5898   */\n      add\n        /* \"#utility.yul\":5879:5898   */\n      swap1\n      pop\n        /* \"#utility.yul\":5538:5904   */\n      swap2\n      swap1\n      pop\n      jump\t// out\n        /* \"#utility.yul\":5910:6276   */\n    tag_229:\n        /* \"#utility.yul\":6052:6055   */\n      0x00\n        /* \"#utility.yul\":6073:6140   */\n      tag_231\n        /* \"#utility.yul\":6137:6139   */\n      0x19\n        /* \"#utility.yul\":6132:6135   */\n      dup4\n        /* \"#utility.yul\":6073:6140   */\n      tag_216\n      jump\t// in\n    tag_231:\n        /* \"#utility.yul\":6066:6140   */\n      swap2\n      pop\n        /* \"#utility.yul\":6149:6242   */\n      tag_232\n        /* \"#utility.yul\":6238:6241   */\n      dup3\n        /* \"#utility.yul\":6149:6242   */\n      tag_233\n      jump\t// in\n    tag_232:\n        /* \"#utility.yul\":6267:6269   */\n      0x20\n        /* \"#utility.yul\":6262:6265   */\n      dup3\n        /* \"#utility.yul\":6258:6270   */\n      add\n        /* \"#utility.yul\":6251:6270   */\n      swap1\n      pop\n        /* \"#utility.yul\":5910:6276   */\n      swap2\n      swap1\n      pop\n      jump\t// out\n        /* \"#utility.yul\":6364:7766   */\n    tag_234:\n        /* \"#utility.yul\":6501:6504   */\n      0x00\n        /* \"#utility.yul\":6537:6541   */\n      0xc0\n        /* \"#utility.yul\":6532:6535   */\n      dup4\n        /* \"#utility.yul\":6528:6542   */\n      add\n        /* \"#utility.yul\":6624:6628   */\n      0x00\n        /* \"#utility.yul\":6617:6622   */\n      dup4\n        /* \"#utility.yul\":6613:6629   */\n      add\n        /* \"#utility.yul\":6607:6630   */\n      mload\n        /* \"#utility.yul\":6677:6680   */\n      dup5\n        /* \"#utility.yul\":6671:6675   */\n      dup3\n        /* \"#utility.yul\":6667:6681   */\n      sub\n        /* \"#utility.yul\":6660:6664   */\n      0x00\n        /* \"#utility.yul\":6655:6658   */\n      dup7\n        /* \"#utility.yul\":6651:6665   */\n      add\n        /* \"#utility.yul\":6644:6682   */\n      mstore\n        /* \"#utility.yul\":6703:6776   */\n      tag_236\n        /* \"#utility.yul\":6771:6775   */\n      dup3\n        /* \"#utility.yul\":6757:6769   */\n      dup3\n        /* \"#utility.yul\":6703:6776   */\n      tag_197\n      jump\t// in\n    tag_236:\n        /* \"#utility.yul\":6695:6776   */\n      swap2\n      pop\n        /* \"#utility.yul\":6552:6787   */\n      pop\n        /* \"#utility.yul\":6888:6892   */\n      0x20\n        /* \"#utility.yul\":6881:6886   */\n      dup4\n        /* \"#utility.yul\":6877:6893   */\n      add\n        /* \"#utility.yul\":6871:6894   */\n      mload\n        /* \"#utility.yul\":6941:6944   */\n      dup5\n        /* \"#utility.yul\":6935:6939   */\n      dup3\n        /* \"#utility.yul\":6931:6945   */\n      sub\n        /* \"#utility.yul\":6924:6928   */\n      0x20\n        /* \"#utility.yul\":6919:6922   */\n      dup7\n        /* \"#utility.yul\":6915:6929   */\n      add\n        /* \"#utility.yul\":6908:6946   */\n      mstore\n        /* \"#utility.yul\":6967:7040   */\n      tag_237\n        /* \"#utility.yul\":7035:7039   */\n      dup3\n        /* \"#utility.yul\":7021:7033   */\n      dup3\n        /* \"#utility.yul\":6967:7040   */\n      tag_197\n      jump\t// in\n    tag_237:\n        /* \"#utility.yul\":6959:7040   */\n      swap2\n      pop\n        /* \"#utility.yul\":6797:7051   */\n      pop\n        /* \"#utility.yul\":7136:7140   */\n      0x40\n        /* \"#utility.yul\":7129:7134   */\n      dup4\n        /* \"#utility.yul\":7125:7141   */\n      add\n        /* \"#utility.yul\":7119:7142   */\n      mload\n        /* \"#utility.yul\":7155:7218   */\n      tag_238\n        /* \"#utility.yul\":7212:7216   */\n      0x40\n        /* \"#utility.yul\":7207:7210   */\n      dup7\n        /* \"#utility.yul\":7203:7217   */\n      add\n        /* \"#utility.yul\":7189:7201   */\n      dup3\n        /* \"#utility.yul\":7155:7218   */\n      tag_171\n      jump\t// in\n    tag_238:\n        /* \"#utility.yul\":7061:7228   */\n      pop\n        /* \"#utility.yul\":7312:7316   */\n      0x60\n        /* \"#utility.yul\":7305:7310   */\n      dup4\n        /* \"#utility.yul\":7301:7317   */\n      add\n        /* \"#utility.yul\":7295:7318   */\n      mload\n        /* \"#utility.yul\":7331:7388   */\n      tag_239\n        /* \"#utility.yul\":7382:7386   */\n      0x60\n        /* \"#utility.yul\":7377:7380   */\n      dup7\n        /* \"#utility.yul\":7373:7387   */\n      add\n        /* \"#utility.yul\":7359:7371   */\n      dup3\n        /* \"#utility.yul\":7331:7388   */\n      tag_189\n      jump\t// in\n    tag_239:\n        /* \"#utility.yul\":7238:7398   */\n      pop\n        /* \"#utility.yul\":7484:7488   */\n      0x80\n        /* \"#utility.yul\":7477:7482   */\n      dup4\n        /* \"#utility.yul\":7473:7489   */\n      add\n        /* \"#utility.yul\":7467:7490   */\n      mload\n        /* \"#utility.yul\":7503:7560   */\n      tag_240\n        /* \"#utility.yul\":7554:7558   */\n      0x80\n        /* \"#utility.yul\":7549:7552   */\n      dup7\n        /* \"#utility.yul\":7545:7559   */\n      add\n        /* \"#utility.yul\":7531:7543   */\n      dup3\n        /* \"#utility.yul\":7503:7560   */\n      tag_189\n      jump\t// in\n    tag_240:\n        /* \"#utility.yul\":7408:7570   */\n      pop\n        /* \"#utility.yul\":7653:7657   */\n      0xa0\n        /* \"#utility.yul\":7646:7651   */\n      dup4\n        /* \"#utility.yul\":7642:7658   */\n      add\n        /* \"#utility.yul\":7636:7659   */\n      mload\n        /* \"#utility.yul\":7672:7729   */\n      tag_241\n        /* \"#utility.yul\":7723:7727   */\n      0xa0\n        /* \"#utility.yul\":7718:7721   */\n      dup7\n        /* \"#utility.yul\":7714:7728   */\n      add\n        /* \"#utility.yul\":7700:7712   */\n      dup3\n        /* \"#utility.yul\":7672:7729   */\n      tag_189\n      jump\t// in\n    tag_241:\n        /* \"#utility.yul\":7580:7739   */\n      pop\n        /* \"#utility.yul\":7756:7760   */\n      dup1\n        /* \"#utility.yul\":7749:7760   */\n      swap2\n      pop\n        /* \"#utility.yul\":6506:7766   */\n      pop\n        /* \"#utility.yul\":6364:7766   */\n      swap3\n      swap2\n      pop\n      pop\n      jump\t// out\n        /* \"#utility.yul\":7772:8047   */\n    tag_102:\n        /* \"#utility.yul\":7904:7907   */\n      0x00\n        /* \"#utility.yul\":7926:8021   */\n      tag_243\n        /* \"#utility.yul\":8017:8020   */\n      dup3\n        /* \"#utility.yul\":8008:8014   */\n      dup5\n        /* \"#utility.yul\":7926:8021   */\n      tag_207\n      jump\t// in\n    tag_243:\n        /* \"#utility.yul\":7919:8021   */\n      swap2\n      pop\n        /* \"#utility.yul\":8038:8041   */\n      dup2\n        /* \"#utility.yul\":8031:8041   */\n      swap1\n      pop\n        /* \"#utility.yul\":7772:8047   */\n      swap3\n      swap2\n      pop\n      pop\n      jump\t// out\n        /* \"#utility.yul\":8053:8426   */\n    tag_12:\n        /* \"#utility.yul\":8196:8200   */\n      0x00\n        /* \"#utility.yul\":8234:8236   */\n      0x20\n        /* \"#utility.yul\":8223:8232   */\n      dup3\n        /* \"#utility.yul\":8219:8237   */\n      add\n        /* \"#utility.yul\":8211:8237   */\n      swap1\n      pop\n        /* \"#utility.yul\":8283:8292   */\n      dup2\n        /* \"#utility.yul\":8277:8281   */\n      dup2\n        /* \"#utility.yul\":8273:8293   */\n      sub\n        /* \"#utility.yul\":8269:8270   */\n      0x00\n        /* \"#utility.yul\":8258:8267   */\n      dup4\n        /* \"#utility.yul\":8254:8271   */\n      add\n        /* \"#utility.yul\":8247:8294   */\n      mstore\n        /* \"#utility.yul\":8311:8419   */\n      tag_245\n        /* \"#utility.yul\":8414:8418   */\n      dup2\n        /* \"#utility.yul\":8405:8411   */\n      dup5\n        /* \"#utility.yul\":8311:8419   */\n      tag_175\n      jump\t// in\n    tag_245:\n        /* \"#utility.yul\":8303:8419   */\n      swap1\n      pop\n        /* \"#utility.yul\":8053:8426   */\n      swap3\n      swap2\n      pop\n      pop\n      jump\t// out\n        /* \"#utility.yul\":8432:8654   */\n    tag_31:\n        /* \"#utility.yul\":8525:8529   */\n      0x00\n        /* \"#utility.yul\":8563:8565   */\n      0x20\n        /* \"#utility.yul\":8552:8561   */\n      dup3\n        /* \"#utility.yul\":8548:8566   */\n      add\n        /* \"#utility.yul\":8540:8566   */\n      swap1\n      pop\n        /* \"#utility.yul\":8576:8647   */\n      tag_247\n        /* \"#utility.yul\":8644:8645   */\n      0x00\n        /* \"#utility.yul\":8633:8642   */\n      dup4\n        /* \"#utility.yul\":8629:8646   */\n      add\n        /* \"#utility.yul\":8620:8626   */\n      dup5\n        /* \"#utility.yul\":8576:8647   */\n      tag_193\n      jump\t// in\n    tag_247:\n        /* \"#utility.yul\":8432:8654   */\n      swap3\n      swap2\n      pop\n      pop\n      jump\t// out\n        /* \"#utility.yul\":8660:9079   */\n    tag_113:\n        /* \"#utility.yul\":8826:8830   */\n      0x00\n        /* \"#utility.yul\":8864:8866   */\n      0x20\n        /* \"#utility.yul\":8853:8862   */\n      dup3\n        /* \"#utility.yul\":8849:8867   */\n      add\n        /* \"#utility.yul\":8841:8867   */\n      swap1\n      pop\n        /* \"#utility.yul\":8913:8922   */\n      dup2\n        /* \"#utility.yul\":8907:8911   */\n      dup2\n        /* \"#utility.yul\":8903:8923   */\n      sub\n        /* \"#utility.yul\":8899:8900   */\n      0x00\n        /* \"#utility.yul\":8888:8897   */\n      dup4\n        /* \"#utility.yul\":8884:8901   */\n      add\n        /* \"#utility.yul\":8877:8924   */\n      mstore\n        /* \"#utility.yul\":8941:9072   */\n      tag_249\n        /* \"#utility.yul\":9067:9071   */\n      dup2\n        /* \"#utility.yul\":8941:9072   */\n      tag_213\n      jump\t// in\n    tag_249:\n        /* \"#utility.yul\":8933:9072   */\n      swap1\n      pop\n        /* \"#utility.yul\":8660:9079   */\n      swap2\n      swap1\n      pop\n      jump\t// out\n        /* \"#utility.yul\":9085:9504   */\n    tag_92:\n        /* \"#utility.yul\":9251:9255   */\n      0x00\n        /* \"#utility.yul\":9289:9291   */\n      0x20\n        /* \"#utility.yul\":9278:9287   */\n      dup3\n        /* \"#utility.yul\":9274:9292   */\n      add\n        /* \"#utility.yul\":9266:9292   */\n      swap1\n      pop\n        /* \"#utility.yul\":9338:9347   */\n      dup2\n        /* \"#utility.yul\":9332:9336   */\n      dup2\n        /* \"#utility.yul\":9328:9348   */\n      sub\n        /* \"#utility.yul\":9324:9325   */\n      0x00\n        /* \"#utility.yul\":9313:9322   */\n      dup4\n        /* \"#utility.yul\":9309:9326   */\n      add\n        /* \"#utility.yul\":9302:9349   */\n      mstore\n        /* \"#utility.yul\":9366:9497   */\n      tag_251\n        /* \"#utility.yul\":9492:9496   */\n      dup2\n        /* \"#utility.yul\":9366:9497   */\n      tag_219\n      jump\t// in\n    tag_251:\n        /* \"#utility.yul\":9358:9497   */\n      swap1\n      pop\n        /* \"#utility.yul\":9085:9504   */\n      swap2\n      swap1\n      pop\n      jump\t// out\n        /* \"#utility.yul\":9510:9929   */\n    tag_95:\n        /* \"#utility.yul\":9676:9680   */\n      0x00\n        /* \"#utility.yul\":9714:9716   */\n      0x20\n        /* \"#utility.yul\":9703:9712   */\n      dup3\n        /* \"#utility.yul\":9699:9717   */\n      add\n        /* \"#utility.yul\":9691:9717   */\n      swap1\n      pop\n        /* \"#utility.yul\":9763:9772   */\n      dup2\n        /* \"#utility.yul\":9757:9761   */\n      dup2\n        /* \"#utility.yul\":9753:9773   */\n      sub\n        /* \"#utility.yul\":9749:9750   */\n      0x00\n        /* \"#utility.yul\":9738:9747   */\n      dup4\n        /* \"#utility.yul\":9734:9751   */\n      add\n        /* \"#utility.yul\":9727:9774   */\n      mstore\n        /* \"#utility.yul\":9791:9922   */\n      tag_253\n        /* \"#utility.yul\":9917:9921   */\n      dup2\n        /* \"#utility.yul\":9791:9922   */\n      tag_224\n      jump\t// in\n    tag_253:\n        /* \"#utility.yul\":9783:9922   */\n      swap1\n      pop\n        /* \"#utility.yul\":9510:9929   */\n      swap2\n      swap1\n      pop\n      jump\t// out\n        /* \"#utility.yul\":9935:10354   */\n    tag_43:\n        /* \"#utility.yul\":10101:10105   */\n      0x00\n        /* \"#utility.yul\":10139:10141   */\n      0x20\n        /* \"#utility.yul\":10128:10137   */\n      dup3\n        /* \"#utility.yul\":10124:10142   */\n      add\n        /* \"#utility.yul\":10116:10142   */\n      swap1\n      pop\n        /* \"#utility.yul\":10188:10197   */\n      dup2\n        /* \"#utility.yul\":10182:10186   */\n      dup2\n        /* \"#utility.yul\":10178:10198   */\n      sub\n        /* \"#utility.yul\":10174:10175   */\n      0x00\n        /* \"#utility.yul\":10163:10172   */\n      dup4\n        /* \"#utility.yul\":10159:10176   */\n      add\n        /* \"#utility.yul\":10152:10199   */\n      mstore\n        /* \"#utility.yul\":10216:10347   */\n      tag_255\n        /* \"#utility.yul\":10342:10346   */\n      dup2\n        /* \"#utility.yul\":10216:10347   */\n      tag_229\n      jump\t// in\n    tag_255:\n        /* \"#utility.yul\":10208:10347   */\n      swap1\n      pop\n        /* \"#utility.yul\":9935:10354   */\n      swap2\n      swap1\n      pop\n      jump\t// out\n        /* \"#utility.yul\":10360:10769   */\n    tag_21:\n        /* \"#utility.yul\":10521:10525   */\n      0x00\n        /* \"#utility.yul\":10559:10561   */\n      0x20\n        /* \"#utility.yul\":10548:10557   */\n      dup3\n        /* \"#utility.yul\":10544:10562   */\n      add\n        /* \"#utility.yul\":10536:10562   */\n      swap1\n      pop\n        /* \"#utility.yul\":10608:10617   */\n      dup2\n        /* \"#utility.yul\":10602:10606   */\n      dup2\n        /* \"#utility.yul\":10598:10618   */\n      sub\n        /* \"#utility.yul\":10594:10595   */\n      0x00\n        /* \"#utility.yul\":10583:10592   */\n      dup4\n        /* \"#utility.yul\":10579:10596   */\n      add\n        /* \"#utility.yul\":10572:10619   */\n      mstore\n        /* \"#utility.yul\":10636:10762   */\n      tag_257\n        /* \"#utility.yul\":10757:10761   */\n      dup2\n        /* \"#utility.yul\":10748:10754   */\n      dup5\n        /* \"#utility.yul\":10636:10762   */\n      tag_234\n      jump\t// in\n    tag_257:\n        /* \"#utility.yul\":10628:10762   */\n      swap1\n      pop\n        /* \"#utility.yul\":10360:10769   */\n      swap3\n      swap2\n      pop\n      pop\n      jump\t// out\n        /* \"#utility.yul\":10775:10904   */\n    tag_130:\n        /* \"#utility.yul\":10809:10815   */\n      0x00\n        /* \"#utility.yul\":10836:10856   */\n      tag_259\n      tag_260\n      jump\t// in\n    tag_259:\n        /* \"#utility.yul\":10826:10856   */\n      swap1\n      pop\n        /* \"#utility.yul\":10865:10898   */\n      tag_261\n        /* \"#utility.yul\":10893:10897   */\n      dup3\n        /* \"#utility.yul\":10885:10891   */\n      dup3\n        /* \"#utility.yul\":10865:10898   */\n      tag_262\n      jump\t// in\n    tag_261:\n        /* \"#utility.yul\":10775:10904   */\n      swap2\n      swap1\n      pop\n      jump\t// out\n        /* \"#utility.yul\":10910:10985   */\n    tag_260:\n        /* \"#utility.yul\":10943:10949   */\n      0x00\n        /* \"#utility.yul\":10976:10978   */\n      0x40\n        /* \"#utility.yul\":10970:10979   */\n      mload\n        /* \"#utility.yul\":10960:10979   */\n      swap1\n      pop\n        /* \"#utility.yul\":10910:10985   */\n      swap1\n      jump\t// out\n        /* \"#utility.yul\":10991:11299   */\n    tag_129:\n        /* \"#utility.yul\":11053:11057   */\n      0x00\n        /* \"#utility.yul\":11143:11161   */\n      0xffffffffffffffff\n        /* \"#utility.yul\":11135:11141   */\n      dup3\n        /* \"#utility.yul\":11132:11162   */\n      gt\n        /* \"#utility.yul\":11129:11185   */\n      iszero\n      tag_265\n      jumpi\n        /* \"#utility.yul\":11165:11183   */\n      tag_266\n      tag_267\n      jump\t// in\n    tag_266:\n        /* \"#utility.yul\":11129:11185   */\n    tag_265:\n        /* \"#utility.yul\":11203:11232   */\n      tag_268\n        /* \"#utility.yul\":11225:11231   */\n      dup3\n        /* \"#utility.yul\":11203:11232   */\n      tag_206\n      jump\t// in\n    tag_268:\n        /* \"#utility.yul\":11195:11232   */\n      swap1\n      pop\n        /* \"#utility.yul\":11287:11291   */\n      0x20\n        /* \"#utility.yul\":11281:11285   */\n      dup2\n        /* \"#utility.yul\":11277:11292   */\n      add\n        /* \"#utility.yul\":11269:11292   */\n      swap1\n      pop\n        /* \"#utility.yul\":10991:11299   */\n      swap2\n      swap1\n      pop\n      jump\t// out\n        /* \"#utility.yul\":11305:11437   */\n    tag_182:\n        /* \"#utility.yul\":11372:11376   */\n      0x00\n        /* \"#utility.yul\":11395:11398   */\n      dup2\n        /* \"#utility.yul\":11387:11398   */\n      swap1\n      pop\n        /* \"#utility.yul\":11425:11429   */\n      0x20\n        /* \"#utility.yul\":11420:11423   */\n      dup3\n        /* \"#utility.yul\":11416:11430   */\n      add\n        /* \"#utility.yul\":11408:11430   */\n      swap1\n      pop\n        /* \"#utility.yul\":11305:11437   */\n      swap2\n      swap1\n      pop\n      jump\t// out\n        /* \"#utility.yul\":11443:11557   */\n    tag_178:\n        /* \"#utility.yul\":11510:11516   */\n      0x00\n        /* \"#utility.yul\":11544:11549   */\n      dup2\n        /* \"#utility.yul\":11538:11550   */\n      mload\n        /* \"#utility.yul\":11528:11550   */\n      swap1\n      pop\n        /* \"#utility.yul\":11443:11557   */\n      swap2\n      swap1\n      pop\n      jump\t// out\n        /* \"#utility.yul\":11563:11662   */\n    tag_200:\n        /* \"#utility.yul\":11615:11621   */\n      0x00\n        /* \"#utility.yul\":11649:11654   */\n      dup2\n        /* \"#utility.yul\":11643:11655   */\n      mload\n        /* \"#utility.yul\":11633:11655   */\n      swap1\n      pop\n        /* \"#utility.yul\":11563:11662   */\n      swap2\n      swap1\n      pop\n      jump\t// out\n        /* \"#utility.yul\":11668:11781   */\n    tag_188:\n        /* \"#utility.yul\":11738:11742   */\n      0x00\n        /* \"#utility.yul\":11770:11774   */\n      0x20\n        /* \"#utility.yul\":11765:11768   */\n      dup3\n        /* \"#utility.yul\":11761:11775   */\n      add\n        /* \"#utility.yul\":11753:11775   */\n      swap1\n      pop\n        /* \"#utility.yul\":11668:11781   */\n      swap2\n      swap1\n      pop\n      jump\t// out\n        /* \"#utility.yul\":11787:11971   */\n    tag_180:\n        /* \"#utility.yul\":11886:11897   */\n      0x00\n        /* \"#utility.yul\":11920:11926   */\n      dup3\n        /* \"#utility.yul\":11915:11918   */\n      dup3\n        /* \"#utility.yul\":11908:11927   */\n      mstore\n        /* \"#utility.yul\":11960:11964   */\n      0x20\n        /* \"#utility.yul\":11955:11958   */\n      dup3\n        /* \"#utility.yul\":11951:11965   */\n      add\n        /* \"#utility.yul\":11936:11965   */\n      swap1\n      pop\n        /* \"#utility.yul\":11787:11971   */\n      swap3\n      swap2\n      pop\n      pop\n      jump\t// out\n        /* \"#utility.yul\":11977:12136   */\n    tag_202:\n        /* \"#utility.yul\":12051:12062   */\n      0x00\n        /* \"#utility.yul\":12085:12091   */\n      dup3\n        /* \"#utility.yul\":12080:12083   */\n      dup3\n        /* \"#utility.yul\":12073:12092   */\n      mstore\n        /* \"#utility.yul\":12125:12129   */\n      0x20\n        /* \"#utility.yul\":12120:12123   */\n      dup3\n        /* \"#utility.yul\":12116:12130   */\n      add\n        /* \"#utility.yul\":12101:12130   */\n      swap1\n      pop\n        /* \"#utility.yul\":11977:12136   */\n      swap3\n      swap2\n      pop\n      pop\n      jump\t// out\n        /* \"#utility.yul\":12142:12311   */\n    tag_216:\n        /* \"#utility.yul\":12226:12237   */\n      0x00\n        /* \"#utility.yul\":12260:12266   */\n      dup3\n        /* \"#utility.yul\":12255:12258   */\n      dup3\n        /* \"#utility.yul\":12248:12267   */\n      mstore\n        /* \"#utility.yul\":12300:12304   */\n      0x20\n        /* \"#utility.yul\":12295:12298   */\n      dup3\n        /* \"#utility.yul\":12291:12305   */\n      add\n        /* \"#utility.yul\":12276:12305   */\n      swap1\n      pop\n        /* \"#utility.yul\":12142:12311   */\n      swap3\n      swap2\n      pop\n      pop\n      jump\t// out\n        /* \"#utility.yul\":12317:12465   */\n    tag_211:\n        /* \"#utility.yul\":12419:12430   */\n      0x00\n        /* \"#utility.yul\":12456:12459   */\n      dup2\n        /* \"#utility.yul\":12441:12459   */\n      swap1\n      pop\n        /* \"#utility.yul\":12317:12465   */\n      swap3\n      swap2\n      pop\n      pop\n      jump\t// out\n        /* \"#utility.yul\":12471:12567   */\n    tag_174:\n        /* \"#utility.yul\":12508:12515   */\n      0x00\n        /* \"#utility.yul\":12537:12561   */\n      tag_278\n        /* \"#utility.yul\":12555:12560   */\n      dup3\n        /* \"#utility.yul\":12537:12561   */\n      tag_279\n      jump\t// in\n    tag_278:\n        /* \"#utility.yul\":12526:12561   */\n      swap1\n      pop\n        /* \"#utility.yul\":12471:12567   */\n      swap2\n      swap1\n      pop\n      jump\t// out\n        /* \"#utility.yul\":12573:12663   */\n    tag_192:\n        /* \"#utility.yul\":12607:12614   */\n      0x00\n        /* \"#utility.yul\":12650:12655   */\n      dup2\n        /* \"#utility.yul\":12643:12656   */\n      iszero\n        /* \"#utility.yul\":12636:12657   */\n      iszero\n        /* \"#utility.yul\":12625:12657   */\n      swap1\n      pop\n        /* \"#utility.yul\":12573:12663   */\n      swap2\n      swap1\n      pop\n      jump\t// out\n        /* \"#utility.yul\":12669:12746   */\n    tag_196:\n        /* \"#utility.yul\":12706:12713   */\n      0x00\n        /* \"#utility.yul\":12735:12740   */\n      dup2\n        /* \"#utility.yul\":12724:12740   */\n      swap1\n      pop\n        /* \"#utility.yul\":12669:12746   */\n      swap2\n      swap1\n      pop\n      jump\t// out\n        /* \"#utility.yul\":12752:12878   */\n    tag_279:\n        /* \"#utility.yul\":12789:12796   */\n      0x00\n        /* \"#utility.yul\":12829:12871   */\n      0xffffffffffffffffffffffffffffffffffffffff\n        /* \"#utility.yul\":12822:12827   */\n      dup3\n        /* \"#utility.yul\":12818:12872   */\n      and\n        /* \"#utility.yul\":12807:12872   */\n      swap1\n      pop\n        /* \"#utility.yul\":12752:12878   */\n      swap2\n      swap1\n      pop\n      jump\t// out\n        /* \"#utility.yul\":12884:12961   */\n    tag_283:\n        /* \"#utility.yul\":12921:12928   */\n      0x00\n        /* \"#utility.yul\":12950:12955   */\n      dup2\n        /* \"#utility.yul\":12939:12955   */\n      swap1\n      pop\n        /* \"#utility.yul\":12884:12961   */\n      swap2\n      swap1\n      pop\n      jump\t// out\n        /* \"#utility.yul\":12967:13121   */\n    tag_135:\n        /* \"#utility.yul\":13051:13057   */\n      dup3\n        /* \"#utility.yul\":13046:13049   */\n      dup2\n        /* \"#utility.yul\":13041:13044   */\n      dup4\n        /* \"#utility.yul\":13028:13058   */\n      calldatacopy\n        /* \"#utility.yul\":13113:13114   */\n      0x00\n        /* \"#utility.yul\":13104:13110   */\n      dup4\n        /* \"#utility.yul\":13099:13102   */\n      dup4\n        /* \"#utility.yul\":13095:13111   */\n      add\n        /* \"#utility.yul\":13088:13115   */\n      mstore\n        /* \"#utility.yul\":12967:13121   */\n      pop\n      pop\n      pop\n      jump\t// out\n        /* \"#utility.yul\":13127:13434   */\n    tag_204:\n        /* \"#utility.yul\":13195:13196   */\n      0x00\n        /* \"#utility.yul\":13205:13318   */\n    tag_287:\n        /* \"#utility.yul\":13219:13225   */\n      dup4\n        /* \"#utility.yul\":13216:13217   */\n      dup2\n        /* \"#utility.yul\":13213:13226   */\n      lt\n        /* \"#utility.yul\":13205:13318   */\n      iszero\n      tag_289\n      jumpi\n        /* \"#utility.yul\":13304:13305   */\n      dup1\n        /* \"#utility.yul\":13299:13302   */\n      dup3\n        /* \"#utility.yul\":13295:13306   */\n      add\n        /* \"#utility.yul\":13289:13307   */\n      mload\n        /* \"#utility.yul\":13285:13286   */\n      dup2\n        /* \"#utility.yul\":13280:13283   */\n      dup5\n        /* \"#utility.yul\":13276:13287   */\n      add\n        /* \"#utility.yul\":13269:13308   */\n      mstore\n        /* \"#utility.yul\":13241:13243   */\n      0x20\n        /* \"#utility.yul\":13238:13239   */\n      dup2\n        /* \"#utility.yul\":13234:13244   */\n      add\n        /* \"#utility.yul\":13229:13244   */\n      swap1\n      pop\n        /* \"#utility.yul\":13205:13318   */\n      jump(tag_287)\n    tag_289:\n        /* \"#utility.yul\":13336:13342   */\n      dup4\n        /* \"#utility.yul\":13333:13334   */\n      dup2\n        /* \"#utility.yul\":13330:13343   */\n      gt\n        /* \"#utility.yul\":13327:13428   */\n      iszero\n      tag_290\n      jumpi\n        /* \"#utility.yul\":13416:13417   */\n      0x00\n        /* \"#utility.yul\":13407:13413   */\n      dup5\n        /* \"#utility.yul\":13402:13405   */\n      dup5\n        /* \"#utility.yul\":13398:13414   */\n      add\n        /* \"#utility.yul\":13391:13418   */\n      mstore\n        /* \"#utility.yul\":13327:13428   */\n    tag_290:\n        /* \"#utility.yul\":13176:13434   */\n      pop\n        /* \"#utility.yul\":13127:13434   */\n      pop\n      pop\n      pop\n      jump\t// out\n        /* \"#utility.yul\":13440:13760   */\n    tag_79:\n        /* \"#utility.yul\":13484:13490   */\n      0x00\n        /* \"#utility.yul\":13521:13522   */\n      0x02\n        /* \"#utility.yul\":13515:13519   */\n      dup3\n        /* \"#utility.yul\":13511:13523   */\n      div\n        /* \"#utility.yul\":13501:13523   */\n      swap1\n      pop\n        /* \"#utility.yul\":13568:13569   */\n      0x01\n        /* \"#utility.yul\":13562:13566   */\n      dup3\n        /* \"#utility.yul\":13558:13570   */\n      and\n        /* \"#utility.yul\":13589:13607   */\n      dup1\n        /* \"#utility.yul\":13579:13660   */\n      tag_292\n      jumpi\n        /* \"#utility.yul\":13645:13649   */\n      0x7f\n        /* \"#utility.yul\":13637:13643   */\n      dup3\n        /* \"#utility.yul\":13633:13650   */\n      and\n        /* \"#utility.yul\":13623:13650   */\n      swap2\n      pop\n        /* \"#utility.yul\":13579:13660   */\n    tag_292:\n        /* \"#utility.yul\":13707:13709   */\n      0x20\n        /* \"#utility.yul\":13699:13705   */\n      dup3\n        /* \"#utility.yul\":13696:13710   */\n      lt\n        /* \"#utility.yul\":13676:13694   */\n      dup2\n        /* \"#utility.yul\":13673:13711   */\n      eq\n        /* \"#utility.yul\":13670:13754   */\n      iszero\n      tag_293\n      jumpi\n        /* \"#utility.yul\":13726:13744   */\n      tag_294\n      tag_295\n      jump\t// in\n    tag_294:\n        /* \"#utility.yul\":13670:13754   */\n    tag_293:\n        /* \"#utility.yul\":13491:13760   */\n      pop\n        /* \"#utility.yul\":13440:13760   */\n      swap2\n      swap1\n      pop\n      jump\t// out\n        /* \"#utility.yul\":13766:14047   */\n    tag_262:\n        /* \"#utility.yul\":13849:13876   */\n      tag_297\n        /* \"#utility.yul\":13871:13875   */\n      dup3\n        /* \"#utility.yul\":13849:13876   */\n      tag_206\n      jump\t// in\n    tag_297:\n        /* \"#utility.yul\":13841:13847   */\n      dup2\n        /* \"#utility.yul\":13837:13877   */\n      add\n        /* \"#utility.yul\":13979:13985   */\n      dup2\n        /* \"#utility.yul\":13967:13977   */\n      dup2\n        /* \"#utility.yul\":13964:13986   */\n      lt\n        /* \"#utility.yul\":13943:13961   */\n      0xffffffffffffffff\n        /* \"#utility.yul\":13931:13941   */\n      dup3\n        /* \"#utility.yul\":13928:13962   */\n      gt\n        /* \"#utility.yul\":13925:13987   */\n      or\n        /* \"#utility.yul\":13922:14010   */\n      iszero\n      tag_298\n      jumpi\n        /* \"#utility.yul\":13990:14008   */\n      tag_299\n      tag_267\n      jump\t// in\n    tag_299:\n        /* \"#utility.yul\":13922:14010   */\n    tag_298:\n        /* \"#utility.yul\":14030:14040   */\n      dup1\n        /* \"#utility.yul\":14026:14028   */\n      0x40\n        /* \"#utility.yul\":14019:14041   */\n      mstore\n        /* \"#utility.yul\":13809:14047   */\n      pop\n        /* \"#utility.yul\":13766:14047   */\n      pop\n      pop\n      jump\t// out\n        /* \"#utility.yul\":14053:14286   */\n    tag_56:\n        /* \"#utility.yul\":14092:14095   */\n      0x00\n        /* \"#utility.yul\":14115:14139   */\n      tag_301\n        /* \"#utility.yul\":14133:14138   */\n      dup3\n        /* \"#utility.yul\":14115:14139   */\n      tag_283\n      jump\t// in\n    tag_301:\n        /* \"#utility.yul\":14106:14139   */\n      swap2\n      pop\n        /* \"#utility.yul\":14161:14227   */\n      0xffffffffffffffffffffffffffffffffffffffffffffffffffffffffffffffff\n        /* \"#utility.yul\":14154:14159   */\n      dup3\n        /* \"#utility.yul\":14151:14228   */\n      eq\n        /* \"#utility.yul\":14148:14251   */\n      iszero\n      tag_302\n      jumpi\n        /* \"#utility.yul\":14231:14249   */\n      tag_303\n      tag_304\n      jump\t// in\n    tag_303:\n        /* \"#utility.yul\":14148:14251   */\n    tag_302:\n        /* \"#utility.yul\":14278:14279   */\n      0x01\n        /* \"#utility.yul\":14271:14276   */\n      dup3\n        /* \"#utility.yul\":14267:14280   */\n      add\n        /* \"#utility.yul\":14260:14280   */\n      swap1\n      pop\n        /* \"#utility.yul\":14053:14286   */\n      swap2\n      swap1\n      pop\n      jump\t// out\n        /* \"#utility.yul\":14292:14472   */\n    tag_304:\n        /* \"#utility.yul\":14340:14417   */\n      0x4e487b7100000000000000000000000000000000000000000000000000000000\n        /* \"#utility.yul\":14337:14338   */\n      0x00\n        /* \"#utility.yul\":14330:14418   */\n      mstore\n        /* \"#utility.yul\":14437:14441   */\n      0x11\n        /* \"#utility.yul\":14434:14435   */\n      0x04\n        /* \"#utility.yul\":14427:14442   */\n      mstore\n        /* \"#utility.yul\":14461:14465   */\n      0x24\n        /* \"#utility.yul\":14458:14459   */\n      0x00\n        /* \"#utility.yul\":14451:14466   */\n      revert\n        /* \"#utility.yul\":14478:14658   */\n    tag_38:\n        /* \"#utility.yul\":14526:14603   */\n      0x4e487b7100000000000000000000000000000000000000000000000000000000\n        /* \"#utility.yul\":14523:14524   */\n      0x00\n        /* \"#utility.yul\":14516:14604   */\n      mstore\n        /* \"#utility.yul\":14623:14627   */\n      0x21\n        /* \"#utility.yul\":14620:14621   */\n      0x04\n        /* \"#utility.yul\":14613:14628   */\n      mstore\n        /* \"#utility.yul\":14647:14651   */\n      0x24\n        /* \"#utility.yul\":14644:14645   */\n      0x00\n        /* \"#utility.yul\":14637:14652   */\n      revert\n        /* \"#utility.yul\":14664:14844   */\n    tag_295:\n        /* \"#utility.yul\":14712:14789   */\n      0x4e487b7100000000000000000000000000000000000000000000000000000000\n        /* \"#utility.yul\":14709:14710   */\n      0x00\n        /* \"#utility.yul\":14702:14790   */\n      mstore\n        /* \"#utility.yul\":14809:14813   */\n      0x22\n        /* \"#utility.yul\":14806:14807   */\n      0x04\n        /* \"#utility.yul\":14799:14814   */\n      mstore\n        /* \"#utility.yul\":14833:14837   */\n      0x24\n        /* \"#utility.yul\":14830:14831   */\n      0x00\n        /* \"#utility.yul\":14823:14838   */\n      revert\n        /* \"#utility.yul\":14850:15030   */\n    tag_50:\n        /* \"#utility.yul\":14898:14975   */\n      0x4e487b7100000000000000000000000000000000000000000000000000000000\n        /* \"#utility.yul\":14895:14896   */\n      0x00\n        /* \"#utility.yul\":14888:14976   */\n      mstore\n        /* \"#utility.yul\":14995:14999   */\n      0x32\n        /* \"#utility.yul\":14992:14993   */\n      0x04\n        /* \"#utility.yul\":14985:15000   */\n      mstore\n        /* \"#utility.yul\":15019:15023   */\n      0x24\n        /* \"#utility.yul\":15016:15017   */\n      0x00\n        /* \"#utility.yul\":15009:15024   */\n      revert\n        /* \"#utility.yul\":15036:15216   */\n    tag_267:\n        /* \"#utility.yul\":15084:15161   */\n      0x4e487b7100000000000000000000000000000000000000000000000000000000\n        /* \"#utility.yul\":15081:15082   */\n      0x00\n        /* \"#utility.yul\":15074:15162   */\n      mstore\n        /* \"#utility.yul\":15181:15185   */\n      0x41\n        /* \"#utility.yul\":15178:15179   */\n      0x04\n        /* \"#utility.yul\":15171:15186   */\n      mstore\n        /* \"#utility.yul\":15205:15209   */\n      0x24\n        /* \"#utility.yul\":15202:15203   */\n      0x00\n        /* \"#utility.yul\":15195:15210   */\n      revert\n        /* \"#utility.yul\":15222:15339   */\n    tag_144:\n        /* \"#utility.yul\":15331:15332   */\n      0x00\n        /* \"#utility.yul\":15328:15329   */\n      dup1\n        /* \"#utility.yul\":15321:15333   */\n      revert\n        /* \"#utility.yul\":15345:15462   */\n    tag_133:\n        /* \"#utility.yul\":15454:15455   */\n      0x00\n        /* \"#utility.yul\":15451:15452   */\n      dup1\n        /* \"#utility.yul\":15444:15456   */\n      revert\n        /* \"#utility.yul\":15468:15585   */\n    tag_156:\n        /* \"#utility.yul\":15577:15578   */\n      0x00\n        /* \"#utility.yul\":15574:15575   */\n      dup1\n        /* \"#utility.yul\":15567:15579   */\n      revert\n        /* \"#utility.yul\":15591:15708   */\n    tag_149:\n        /* \"#utility.yul\":15700:15701   */\n      0x00\n        /* \"#utility.yul\":15697:15698   */\n      dup1\n        /* \"#utility.yul\":15690:15702   */\n      revert\n        /* \"#utility.yul\":15714:15816   */\n    tag_206:\n        /* \"#utility.yul\":15755:15761   */\n      0x00\n        /* \"#utility.yul\":15806:15808   */\n      0x1f\n        /* \"#utility.yul\":15802:15809   */\n      not\n        /* \"#utility.yul\":15797:15799   */\n      0x1f\n        /* \"#utility.yul\":15790:15795   */\n      dup4\n        /* \"#utility.yul\":15786:15800   */\n      add\n        /* \"#utility.yul\":15782:15810   */\n      and\n        /* \"#utility.yul\":15772:15810   */\n      swap1\n      pop\n        /* \"#utility.yul\":15714:15816   */\n      swap2\n      swap1\n      pop\n      jump\t// out\n        /* \"#utility.yul\":15822:16000   */\n    tag_218:\n        /* \"#utility.yul\":15962:15992   */\n      0x52657669657720746865206170706c69636174696f6e20666972737400000000\n        /* \"#utility.yul\":15958:15959   */\n      0x00\n        /* \"#utility.yul\":15950:15956   */\n      dup3\n        /* \"#utility.yul\":15946:15960   */\n      add\n        /* \"#utility.yul\":15939:15993   */\n      mstore\n        /* \"#utility.yul\":15822:16000   */\n      pop\n      jump\t// out\n        /* \"#utility.yul\":16006:16180   */\n    tag_223:\n        /* \"#utility.yul\":16146:16172   */\n      0x4170706c69636174696f6e20616c72656164792073656e740000000000000000\n        /* \"#utility.yul\":16142:16143   */\n      0x00\n        /* \"#utility.yul\":16134:16140   */\n      dup3\n        /* \"#utility.yul\":16130:16144   */\n      add\n        /* \"#utility.yul\":16123:16173   */\n      mstore\n        /* \"#utility.yul\":16006:16180   */\n      pop\n      jump\t// out\n        /* \"#utility.yul\":16186:16415   */\n    tag_228:\n        /* \"#utility.yul\":16326:16360   */\n      0x596f7572206170706c69636174696f6e2068617320616c726561647920626565\n        /* \"#utility.yul\":16322:16323   */\n      0x00\n        /* \"#utility.yul\":16314:16320   */\n      dup3\n        /* \"#utility.yul\":16310:16324   */\n      add\n        /* \"#utility.yul\":16303:16361   */\n      mstore\n        /* \"#utility.yul\":16395:16407   */\n      0x6e2072656a656374656400000000000000000000000000000000000000000000\n        /* \"#utility.yul\":16390:16392   */\n      0x20\n        /* \"#utility.yul\":16382:16388   */\n      dup3\n        /* \"#utility.yul\":16378:16393   */\n      add\n        /* \"#utility.yul\":16371:16408   */\n      mstore\n        /* \"#utility.yul\":16186:16415   */\n      pop\n      jump\t// out\n        /* \"#utility.yul\":16421:16596   */\n    tag_233:\n        /* \"#utility.yul\":16561:16588   */\n      0x596f7572206e6f7420507269766174652070726f766964657200000000000000\n        /* \"#utility.yul\":16557:16558   */\n      0x00\n        /* \"#utility.yul\":16549:16555   */\n      dup3\n        /* \"#utility.yul\":16545:16559   */\n      add\n        /* \"#utility.yul\":16538:16589   */\n      mstore\n        /* \"#utility.yul\":16421:16596   */\n      pop\n      jump\t// out\n        /* \"#utility.yul\":16602:16724   */\n    tag_139:\n        /* \"#utility.yul\":16675:16699   */\n      tag_320\n        /* \"#utility.yul\":16693:16698   */\n      dup2\n        /* \"#utility.yul\":16675:16699   */\n      tag_174\n      jump\t// in\n    tag_320:\n        /* \"#utility.yul\":16668:16673   */\n      dup2\n        /* \"#utility.yul\":16665:16700   */\n      eq\n        /* \"#utility.yul\":16655:16718   */\n      tag_321\n      jumpi\n        /* \"#utility.yul\":16714:16715   */\n      0x00\n        /* \"#utility.yul\":16711:16712   */\n      dup1\n        /* \"#utility.yul\":16704:16716   */\n      revert\n        /* \"#utility.yul\":16655:16718   */\n    tag_321:\n        /* \"#utility.yul\":16602:16724   */\n      pop\n      jump\t// out\n\n    auxdata: 0xa2646970667358221220d9259fe450a1713a6e7519aee860a035ba5acf53519733fa35a6fc346c33bc8a64736f6c63430008070033\n}\n",
				"bytecode": {
					"linkReferences": {},
					"object": "608060405234801561001057600080fd5b50611639806100206000396000f3fe608060405234801561001057600080fd5b50600436106100625760003560e01c8063015952a7146100675780634d0d594f1461008557806376eada91146100a3578063785963c3146100d35780638e4f8c6b146100ef578063a678b65b1461011f575b600080fd5b61006f61013b565b60405161007c919061112c565b60405180910390f35b61008d61031e565b60405161009a919061112c565b60405180910390f35b6100bd60048036038101906100b89190610deb565b610461565b6040516100ca91906111e9565b60405180910390f35b6100ed60048036038101906100e89190610e61565b610795565b005b61010960048036038101906101049190610e18565b610a98565b604051610116919061114e565b60405180910390f35b61013960048036038101906101349190610deb565b610ac8565b005b60606002600481111561015157610150611441565b5b6000803373ffffffffffffffffffffffffffffffffffffffff1673ffffffffffffffffffffffffffffffffffffffff16815260200190815260200160002060000160009054906101000a900460ff1660048111156101b2576101b1611441565b5b146101f2576040517f08c379a00000000000000000000000000000000000000000000000000000000081526004016101e9906111c9565b60405180910390fd5b606060005b600380549050811015610316576000806003838154811061021b5761021a61149f565b5b9060005260206000200160009054906101000a900473ffffffffffffffffffffffffffffffffffffffff16905060001515600260008373ffffffffffffffffffffffffffffffffffffffff1673ffffffffffffffffffffffffffffffffffffffff16815260200190815260200160002060020160159054906101000a900460ff161515141561030157808483815181106102b8576102b761149f565b5b602002602001019073ffffffffffffffffffffffffffffffffffffffff16908173ffffffffffffffffffffffffffffffffffffffff168152505081806102fd906113c9565b9250505b5050808061030e906113c9565b9150506101f7565b508091505090565b60606002600481111561033457610333611441565b5b6000803373ffffffffffffffffffffffffffffffffffffffff1673ffffffffffffffffffffffffffffffffffffffff16815260200190815260200160002060000160009054906101000a900460ff16600481111561039557610394611441565b5b146103d5576040517f08c379a00000000000000000000000000000000000000000000000000000000081526004016103cc906111c9565b60405180910390fd5b600380548060200260200160405190810160405280929190818152602001828054801561045757602002820191906000526020600020905b8160009054906101000a900473ffffffffffffffffffffffffffffffffffffffff1673ffffffffffffffffffffffffffffffffffffffff168152602001906001019080831161040d575b5050505050905090565b610469610c71565b6002600481111561047d5761047c611441565b5b6000803373ffffffffffffffffffffffffffffffffffffffff1673ffffffffffffffffffffffffffffffffffffffff16815260200190815260200160002060000160009054906101000a900460ff1660048111156104de576104dd611441565b5b1461051e576040517f08c379a0000000000000000000000000000000000000000000000000000000008152600401610515906111c9565b60405180910390fd5b6001600260008473ffffffffffffffffffffffffffffffffffffffff1673ffffffffffffffffffffffffffffffffffffffff16815260200190815260200160002060020160156101000a81548160ff021916908315150217905550600260008373ffffffffffffffffffffffffffffffffffffffff1673ffffffffffffffffffffffffffffffffffffffff1681526020019081526020016000206040518060c00160405290816000820180546105d390611366565b80601f01602080910402602001604051908101604052809291908181526020018280546105ff90611366565b801561064c5780601f106106215761010080835404028352916020019161064c565b820191906000526020600020905b81548152906001019060200180831161062f57829003601f168201915b5050505050815260200160018201805461066590611366565b80601f016020809104026020016040519081016040528092919081815260200182805461069190611366565b80156106de5780601f106106b3576101008083540402835291602001916106de565b820191906000526020600020905b8154815290600101906020018083116106c157829003601f168201915b505050505081526020016002820160009054906101000a900473ffffffffffffffffffffffffffffffffffffffff1673ffffffffffffffffffffffffffffffffffffffff1673ffffffffffffffffffffffffffffffffffffffff1681526020016002820160149054906101000a900460ff161515151581526020016002820160159054906101000a900460ff161515151581526020016002820160169054906101000a900460ff1615151515815250509050919050565b60011515600260003373ffffffffffffffffffffffffffffffffffffffff1673ffffffffffffffffffffffffffffffffffffffff16815260200190815260200160002060020160169054906101000a900460ff1615151461082b576040517f08c379a000000000000000000000000000000000000000000000000000000000815260040161082290611189565b60405180910390fd5b60001515600260003373ffffffffffffffffffffffffffffffffffffffff1673ffffffffffffffffffffffffffffffffffffffff16815260200190815260200160002060020160149054906101000a900460ff161515146108c1576040517f08c379a00000000000000000000000000000000000000000000000000000000081526004016108b8906111a9565b60405180910390fd5b6040518060c001604052808481526020018381526020018273ffffffffffffffffffffffffffffffffffffffff16815260200160011515815260200160001515815260200160011515815250600260003373ffffffffffffffffffffffffffffffffffffffff1673ffffffffffffffffffffffffffffffffffffffff1681526020019081526020016000206000820151816000019080519060200190610968929190610cc3565b506020820151816001019080519060200190610985929190610cc3565b5060408201518160020160006101000a81548173ffffffffffffffffffffffffffffffffffffffff021916908373ffffffffffffffffffffffffffffffffffffffff16021790555060608201518160020160146101000a81548160ff02191690831515021790555060808201518160020160156101000a81548160ff02191690831515021790555060a08201518160020160166101000a81548160ff0219169083151502179055509050506003339080600181540180825580915050600190039060005260206000200160009091909190916101000a81548173ffffffffffffffffffffffffffffffffffffffff021916908373ffffffffffffffffffffffffffffffffffffffff160217905550505050565b600081604051602001610aab9190611115565b604051602081830303815290604052805190602001209050919050565b60026004811115610adc57610adb611441565b5b6000803373ffffffffffffffffffffffffffffffffffffffff1673ffffffffffffffffffffffffffffffffffffffff16815260200190815260200160002060000160009054906101000a900460ff166004811115610b3d57610b3c611441565b5b14610b7d576040517f08c379a0000000000000000000000000000000000000000000000000000000008152600401610b74906111c9565b60405180910390fd5b60001515600260003373ffffffffffffffffffffffffffffffffffffffff1673ffffffffffffffffffffffffffffffffffffffff16815260200190815260200160002060020160159054906101000a900460ff16151514610c13576040517f08c379a0000000000000000000000000000000000000000000000000000000008152600401610c0a90611169565b60405180910390fd5b6000600260008373ffffffffffffffffffffffffffffffffffffffff1673ffffffffffffffffffffffffffffffffffffffff16815260200190815260200160002060020160146101000a81548160ff02191690831515021790555050565b6040518060c001604052806060815260200160608152602001600073ffffffffffffffffffffffffffffffffffffffff1681526020016000151581526020016000151581526020016000151581525090565b828054610ccf90611366565b90600052602060002090601f016020900481019282610cf15760008555610d38565b82601f10610d0a57805160ff1916838001178555610d38565b82800160010185558215610d38579182015b82811115610d37578251825591602001919060010190610d1c565b5b509050610d459190610d49565b5090565b5b80821115610d62576000816000905550600101610d4a565b5090565b6000610d79610d7484611230565b61120b565b905082815260208101848484011115610d9557610d94611502565b5b610da0848285611324565b509392505050565b600081359050610db7816115ec565b92915050565b600082601f830112610dd257610dd16114fd565b5b8135610de2848260208601610d66565b91505092915050565b600060208284031215610e0157610e0061150c565b5b6000610e0f84828501610da8565b91505092915050565b600060208284031215610e2e57610e2d61150c565b5b600082013567ffffffffffffffff811115610e4c57610e4b611507565b5b610e5884828501610dbd565b91505092915050565b600080600060608486031215610e7a57610e7961150c565b5b600084013567ffffffffffffffff811115610e9857610e97611507565b5b610ea486828701610dbd565b935050602084013567ffffffffffffffff811115610ec557610ec4611507565b5b610ed186828701610dbd565b9250506040610ee286828701610da8565b9150509250925092565b6000610ef88383610f04565b60208301905092915050565b610f0d816112d2565b82525050565b6000610f1e82611271565b610f288185611294565b9350610f3383611261565b8060005b83811015610f64578151610f4b8882610eec565b9750610f5683611287565b925050600181019050610f37565b5085935050505092915050565b610f7a816112e4565b82525050565b610f89816112f0565b82525050565b6000610f9a8261127c565b610fa481856112a5565b9350610fb4818560208601611333565b610fbd81611511565b840191505092915050565b6000610fd38261127c565b610fdd81856112c7565b9350610fed818560208601611333565b80840191505092915050565b6000611006601c836112b6565b915061101182611522565b602082019050919050565b60006110296018836112b6565b91506110348261154b565b602082019050919050565b600061104c602a836112b6565b915061105782611574565b604082019050919050565b600061106f6019836112b6565b915061107a826115c3565b602082019050919050565b600060c08301600083015184820360008601526110a28282610f8f565b915050602083015184820360208601526110bc8282610f8f565b91505060408301516110d16040860182610f04565b5060608301516110e46060860182610f71565b5060808301516110f76080860182610f71565b5060a083015161110a60a0860182610f71565b508091505092915050565b60006111218284610fc8565b915081905092915050565b600060208201905081810360008301526111468184610f13565b905092915050565b60006020820190506111636000830184610f80565b92915050565b6000602082019050818103600083015261118281610ff9565b9050919050565b600060208201905081810360008301526111a28161101c565b9050919050565b600060208201905081810360008301526111c28161103f565b9050919050565b600060208201905081810360008301526111e281611062565b9050919050565b600060208201905081810360008301526112038184611085565b905092915050565b6000611215611226565b90506112218282611398565b919050565b6000604051905090565b600067ffffffffffffffff82111561124b5761124a6114ce565b5b61125482611511565b9050602081019050919050565b6000819050602082019050919050565b600081519050919050565b600081519050919050565b6000602082019050919050565b600082825260208201905092915050565b600082825260208201905092915050565b600082825260208201905092915050565b600081905092915050565b60006112dd826112fa565b9050919050565b60008115159050919050565b6000819050919050565b600073ffffffffffffffffffffffffffffffffffffffff82169050919050565b6000819050919050565b82818337600083830152505050565b60005b83811015611351578082015181840152602081019050611336565b83811115611360576000848401525b50505050565b6000600282049050600182168061137e57607f821691505b6020821081141561139257611391611470565b5b50919050565b6113a182611511565b810181811067ffffffffffffffff821117156113c0576113bf6114ce565b5b80604052505050565b60006113d48261131a565b91507fffffffffffffffffffffffffffffffffffffffffffffffffffffffffffffffff82141561140757611406611412565b5b600182019050919050565b7f4e487b7100000000000000000000000000000000000000000000000000000000600052601160045260246000fd5b7f4e487b7100000000000000000000000000000000000000000000000000000000600052602160045260246000fd5b7f4e487b7100000000000000000000000000000000000000000000000000000000600052602260045260246000fd5b7f4e487b7100000000000000000000000000000000000000000000000000000000600052603260045260246000fd5b7f4e487b7100000000000000000000000000000000000000000000000000000000600052604160045260246000fd5b600080fd5b600080fd5b600080fd5b600080fd5b6000601f19601f8301169050919050565b7f52657669657720746865206170706c69636174696f6e20666972737400000000600082015250565b7f4170706c69636174696f6e20616c72656164792073656e740000000000000000600082015250565b7f596f7572206170706c69636174696f6e2068617320616c72656164792062656560008201527f6e2072656a656374656400000000000000000000000000000000000000000000602082015250565b7f596f7572206e6f7420507269766174652070726f766964657200000000000000600082015250565b6115f5816112d2565b811461160057600080fd5b5056fea2646970667358221220d9259fe450a1713a6e7519aee860a035ba5acf53519733fa35a6fc346c33bc8a64736f6c63430008070033",
					"opcodes": "PUSH1 0x80 PUSH1 0x40 MSTORE CALLVALUE DUP1 ISZERO PUSH2 0x10 JUMPI PUSH1 0x0 DUP1 REVERT JUMPDEST POP PUSH2 0x1639 DUP1 PUSH2 0x20 PUSH1 0x0 CODECOPY PUSH1 0x0 RETURN INVALID PUSH1 0x80 PUSH1 0x40 MSTORE CALLVALUE DUP1 ISZERO PUSH2 0x10 JUMPI PUSH1 0x0 DUP1 REVERT JUMPDEST POP PUSH1 0x4 CALLDATASIZE LT PUSH2 0x62 JUMPI PUSH1 0x0 CALLDATALOAD PUSH1 0xE0 SHR DUP1 PUSH4 0x15952A7 EQ PUSH2 0x67 JUMPI DUP1 PUSH4 0x4D0D594F EQ PUSH2 0x85 JUMPI DUP1 PUSH4 0x76EADA91 EQ PUSH2 0xA3 JUMPI DUP1 PUSH4 0x785963C3 EQ PUSH2 0xD3 JUMPI DUP1 PUSH4 0x8E4F8C6B EQ PUSH2 0xEF JUMPI DUP1 PUSH4 0xA678B65B EQ PUSH2 0x11F JUMPI JUMPDEST PUSH1 0x0 DUP1 REVERT JUMPDEST PUSH2 0x6F PUSH2 0x13B JUMP JUMPDEST PUSH1 0x40 MLOAD PUSH2 0x7C SWAP2 SWAP1 PUSH2 0x112C JUMP JUMPDEST PUSH1 0x40 MLOAD DUP1 SWAP2 SUB SWAP1 RETURN JUMPDEST PUSH2 0x8D PUSH2 0x31E JUMP JUMPDEST PUSH1 0x40 MLOAD PUSH2 0x9A SWAP2 SWAP1 PUSH2 0x112C JUMP JUMPDEST PUSH1 0x40 MLOAD DUP1 SWAP2 SUB SWAP1 RETURN JUMPDEST PUSH2 0xBD PUSH1 0x4 DUP1 CALLDATASIZE SUB DUP2 ADD SWAP1 PUSH2 0xB8 SWAP2 SWAP1 PUSH2 0xDEB JUMP JUMPDEST PUSH2 0x461 JUMP JUMPDEST PUSH1 0x40 MLOAD PUSH2 0xCA SWAP2 SWAP1 PUSH2 0x11E9 JUMP JUMPDEST PUSH1 0x40 MLOAD DUP1 SWAP2 SUB SWAP1 RETURN JUMPDEST PUSH2 0xED PUSH1 0x4 DUP1 CALLDATASIZE SUB DUP2 ADD SWAP1 PUSH2 0xE8 SWAP2 SWAP1 PUSH2 0xE61 JUMP JUMPDEST PUSH2 0x795 JUMP JUMPDEST STOP JUMPDEST PUSH2 0x109 PUSH1 0x4 DUP1 CALLDATASIZE SUB DUP2 ADD SWAP1 PUSH2 0x104 SWAP2 SWAP1 PUSH2 0xE18 JUMP JUMPDEST PUSH2 0xA98 JUMP JUMPDEST PUSH1 0x40 MLOAD PUSH2 0x116 SWAP2 SWAP1 PUSH2 0x114E JUMP JUMPDEST PUSH1 0x40 MLOAD DUP1 SWAP2 SUB SWAP1 RETURN JUMPDEST PUSH2 0x139 PUSH1 0x4 DUP1 CALLDATASIZE SUB DUP2 ADD SWAP1 PUSH2 0x134 SWAP2 SWAP1 PUSH2 0xDEB JUMP JUMPDEST PUSH2 0xAC8 JUMP JUMPDEST STOP JUMPDEST PUSH1 0x60 PUSH1 0x2 PUSH1 0x4 DUP2 GT ISZERO PUSH2 0x151 JUMPI PUSH2 0x150 PUSH2 0x1441 JUMP JUMPDEST JUMPDEST PUSH1 0x0 DUP1 CALLER PUSH20 0xFFFFFFFFFFFFFFFFFFFFFFFFFFFFFFFFFFFFFFFF AND PUSH20 0xFFFFFFFFFFFFFFFFFFFFFFFFFFFFFFFFFFFFFFFF AND DUP2 MSTORE PUSH1 0x20 ADD SWAP1 DUP2 MSTORE PUSH1 0x20 ADD PUSH1 0x0 KECCAK256 PUSH1 0x0 ADD PUSH1 0x0 SWAP1 SLOAD SWAP1 PUSH2 0x100 EXP SWAP1 DIV PUSH1 0xFF AND PUSH1 0x4 DUP2 GT ISZERO PUSH2 0x1B2 JUMPI PUSH2 0x1B1 PUSH2 0x1441 JUMP JUMPDEST JUMPDEST EQ PUSH2 0x1F2 JUMPI PUSH1 0x40 MLOAD PUSH32 0x8C379A000000000000000000000000000000000000000000000000000000000 DUP2 MSTORE PUSH1 0x4 ADD PUSH2 0x1E9 SWAP1 PUSH2 0x11C9 JUMP JUMPDEST PUSH1 0x40 MLOAD DUP1 SWAP2 SUB SWAP1 REVERT JUMPDEST PUSH1 0x60 PUSH1 0x0 JUMPDEST PUSH1 0x3 DUP1 SLOAD SWAP1 POP DUP2 LT ISZERO PUSH2 0x316 JUMPI PUSH1 0x0 DUP1 PUSH1 0x3 DUP4 DUP2 SLOAD DUP2 LT PUSH2 0x21B JUMPI PUSH2 0x21A PUSH2 0x149F JUMP JUMPDEST JUMPDEST SWAP1 PUSH1 0x0 MSTORE PUSH1 0x20 PUSH1 0x0 KECCAK256 ADD PUSH1 0x0 SWAP1 SLOAD SWAP1 PUSH2 0x100 EXP SWAP1 DIV PUSH20 0xFFFFFFFFFFFFFFFFFFFFFFFFFFFFFFFFFFFFFFFF AND SWAP1 POP PUSH1 0x0 ISZERO ISZERO PUSH1 0x2 PUSH1 0x0 DUP4 PUSH20 0xFFFFFFFFFFFFFFFFFFFFFFFFFFFFFFFFFFFFFFFF AND PUSH20 0xFFFFFFFFFFFFFFFFFFFFFFFFFFFFFFFFFFFFFFFF AND DUP2 MSTORE PUSH1 0x20 ADD SWAP1 DUP2 MSTORE PUSH1 0x20 ADD PUSH1 0x0 KECCAK256 PUSH1 0x2 ADD PUSH1 0x15 SWAP1 SLOAD SWAP1 PUSH2 0x100 EXP SWAP1 DIV PUSH1 0xFF AND ISZERO ISZERO EQ ISZERO PUSH2 0x301 JUMPI DUP1 DUP5 DUP4 DUP2 MLOAD DUP2 LT PUSH2 0x2B8 JUMPI PUSH2 0x2B7 PUSH2 0x149F JUMP JUMPDEST JUMPDEST PUSH1 0x20 MUL PUSH1 0x20 ADD ADD SWAP1 PUSH20 0xFFFFFFFFFFFFFFFFFFFFFFFFFFFFFFFFFFFFFFFF AND SWAP1 DUP2 PUSH20 0xFFFFFFFFFFFFFFFFFFFFFFFFFFFFFFFFFFFFFFFF AND DUP2 MSTORE POP POP DUP2 DUP1 PUSH2 0x2FD SWAP1 PUSH2 0x13C9 JUMP JUMPDEST SWAP3 POP POP JUMPDEST POP POP DUP1 DUP1 PUSH2 0x30E SWAP1 PUSH2 0x13C9 JUMP JUMPDEST SWAP2 POP POP PUSH2 0x1F7 JUMP JUMPDEST POP DUP1 SWAP2 POP POP SWAP1 JUMP JUMPDEST PUSH1 0x60 PUSH1 0x2 PUSH1 0x4 DUP2 GT ISZERO PUSH2 0x334 JUMPI PUSH2 0x333 PUSH2 0x1441 JUMP JUMPDEST JUMPDEST PUSH1 0x0 DUP1 CALLER PUSH20 0xFFFFFFFFFFFFFFFFFFFFFFFFFFFFFFFFFFFFFFFF AND PUSH20 0xFFFFFFFFFFFFFFFFFFFFFFFFFFFFFFFFFFFFFFFF AND DUP2 MSTORE PUSH1 0x20 ADD SWAP1 DUP2 MSTORE PUSH1 0x20 ADD PUSH1 0x0 KECCAK256 PUSH1 0x0 ADD PUSH1 0x0 SWAP1 SLOAD SWAP1 PUSH2 0x100 EXP SWAP1 DIV PUSH1 0xFF AND PUSH1 0x4 DUP2 GT ISZERO PUSH2 0x395 JUMPI PUSH2 0x394 PUSH2 0x1441 JUMP JUMPDEST JUMPDEST EQ PUSH2 0x3D5 JUMPI PUSH1 0x40 MLOAD PUSH32 0x8C379A000000000000000000000000000000000000000000000000000000000 DUP2 MSTORE PUSH1 0x4 ADD PUSH2 0x3CC SWAP1 PUSH2 0x11C9 JUMP JUMPDEST PUSH1 0x40 MLOAD DUP1 SWAP2 SUB SWAP1 REVERT JUMPDEST PUSH1 0x3 DUP1 SLOAD DUP1 PUSH1 0x20 MUL PUSH1 0x20 ADD PUSH1 0x40 MLOAD SWAP1 DUP2 ADD PUSH1 0x40 MSTORE DUP1 SWAP3 SWAP2 SWAP1 DUP2 DUP2 MSTORE PUSH1 0x20 ADD DUP3 DUP1 SLOAD DUP1 ISZERO PUSH2 0x457 JUMPI PUSH1 0x20 MUL DUP3 ADD SWAP2 SWAP1 PUSH1 0x0 MSTORE PUSH1 0x20 PUSH1 0x0 KECCAK256 SWAP1 JUMPDEST DUP2 PUSH1 0x0 SWAP1 SLOAD SWAP1 PUSH2 0x100 EXP SWAP1 DIV PUSH20 0xFFFFFFFFFFFFFFFFFFFFFFFFFFFFFFFFFFFFFFFF AND PUSH20 0xFFFFFFFFFFFFFFFFFFFFFFFFFFFFFFFFFFFFFFFF AND DUP2 MSTORE PUSH1 0x20 ADD SWAP1 PUSH1 0x1 ADD SWAP1 DUP1 DUP4 GT PUSH2 0x40D JUMPI JUMPDEST POP POP POP POP POP SWAP1 POP SWAP1 JUMP JUMPDEST PUSH2 0x469 PUSH2 0xC71 JUMP JUMPDEST PUSH1 0x2 PUSH1 0x4 DUP2 GT ISZERO PUSH2 0x47D JUMPI PUSH2 0x47C PUSH2 0x1441 JUMP JUMPDEST JUMPDEST PUSH1 0x0 DUP1 CALLER PUSH20 0xFFFFFFFFFFFFFFFFFFFFFFFFFFFFFFFFFFFFFFFF AND PUSH20 0xFFFFFFFFFFFFFFFFFFFFFFFFFFFFFFFFFFFFFFFF AND DUP2 MSTORE PUSH1 0x20 ADD SWAP1 DUP2 MSTORE PUSH1 0x20 ADD PUSH1 0x0 KECCAK256 PUSH1 0x0 ADD PUSH1 0x0 SWAP1 SLOAD SWAP1 PUSH2 0x100 EXP SWAP1 DIV PUSH1 0xFF AND PUSH1 0x4 DUP2 GT ISZERO PUSH2 0x4DE JUMPI PUSH2 0x4DD PUSH2 0x1441 JUMP JUMPDEST JUMPDEST EQ PUSH2 0x51E JUMPI PUSH1 0x40 MLOAD PUSH32 0x8C379A000000000000000000000000000000000000000000000000000000000 DUP2 MSTORE PUSH1 0x4 ADD PUSH2 0x515 SWAP1 PUSH2 0x11C9 JUMP JUMPDEST PUSH1 0x40 MLOAD DUP1 SWAP2 SUB SWAP1 REVERT JUMPDEST PUSH1 0x1 PUSH1 0x2 PUSH1 0x0 DUP5 PUSH20 0xFFFFFFFFFFFFFFFFFFFFFFFFFFFFFFFFFFFFFFFF AND PUSH20 0xFFFFFFFFFFFFFFFFFFFFFFFFFFFFFFFFFFFFFFFF AND DUP2 MSTORE PUSH1 0x20 ADD SWAP1 DUP2 MSTORE PUSH1 0x20 ADD PUSH1 0x0 KECCAK256 PUSH1 0x2 ADD PUSH1 0x15 PUSH2 0x100 EXP DUP2 SLOAD DUP2 PUSH1 0xFF MUL NOT AND SWAP1 DUP4 ISZERO ISZERO MUL OR SWAP1 SSTORE POP PUSH1 0x2 PUSH1 0x0 DUP4 PUSH20 0xFFFFFFFFFFFFFFFFFFFFFFFFFFFFFFFFFFFFFFFF AND PUSH20 0xFFFFFFFFFFFFFFFFFFFFFFFFFFFFFFFFFFFFFFFF AND DUP2 MSTORE PUSH1 0x20 ADD SWAP1 DUP2 MSTORE PUSH1 0x20 ADD PUSH1 0x0 KECCAK256 PUSH1 0x40 MLOAD DUP1 PUSH1 0xC0 ADD PUSH1 0x40 MSTORE SWAP1 DUP2 PUSH1 0x0 DUP3 ADD DUP1 SLOAD PUSH2 0x5D3 SWAP1 PUSH2 0x1366 JUMP JUMPDEST DUP1 PUSH1 0x1F ADD PUSH1 0x20 DUP1 SWAP2 DIV MUL PUSH1 0x20 ADD PUSH1 0x40 MLOAD SWAP1 DUP2 ADD PUSH1 0x40 MSTORE DUP1 SWAP3 SWAP2 SWAP1 DUP2 DUP2 MSTORE PUSH1 0x20 ADD DUP3 DUP1 SLOAD PUSH2 0x5FF SWAP1 PUSH2 0x1366 JUMP JUMPDEST DUP1 ISZERO PUSH2 0x64C JUMPI DUP1 PUSH1 0x1F LT PUSH2 0x621 JUMPI PUSH2 0x100 DUP1 DUP4 SLOAD DIV MUL DUP4 MSTORE SWAP2 PUSH1 0x20 ADD SWAP2 PUSH2 0x64C JUMP JUMPDEST DUP3 ADD SWAP2 SWAP1 PUSH1 0x0 MSTORE PUSH1 0x20 PUSH1 0x0 KECCAK256 SWAP1 JUMPDEST DUP2 SLOAD DUP2 MSTORE SWAP1 PUSH1 0x1 ADD SWAP1 PUSH1 0x20 ADD DUP1 DUP4 GT PUSH2 0x62F JUMPI DUP3 SWAP1 SUB PUSH1 0x1F AND DUP3 ADD SWAP2 JUMPDEST POP POP POP POP POP DUP2 MSTORE PUSH1 0x20 ADD PUSH1 0x1 DUP3 ADD DUP1 SLOAD PUSH2 0x665 SWAP1 PUSH2 0x1366 JUMP JUMPDEST DUP1 PUSH1 0x1F ADD PUSH1 0x20 DUP1 SWAP2 DIV MUL PUSH1 0x20 ADD PUSH1 0x40 MLOAD SWAP1 DUP2 ADD PUSH1 0x40 MSTORE DUP1 SWAP3 SWAP2 SWAP1 DUP2 DUP2 MSTORE PUSH1 0x20 ADD DUP3 DUP1 SLOAD PUSH2 0x691 SWAP1 PUSH2 0x1366 JUMP JUMPDEST DUP1 ISZERO PUSH2 0x6DE JUMPI DUP1 PUSH1 0x1F LT PUSH2 0x6B3 JUMPI PUSH2 0x100 DUP1 DUP4 SLOAD DIV MUL DUP4 MSTORE SWAP2 PUSH1 0x20 ADD SWAP2 PUSH2 0x6DE JUMP JUMPDEST DUP3 ADD SWAP2 SWAP1 PUSH1 0x0 MSTORE PUSH1 0x20 PUSH1 0x0 KECCAK256 SWAP1 JUMPDEST DUP2 SLOAD DUP2 MSTORE SWAP1 PUSH1 0x1 ADD SWAP1 PUSH1 0x20 ADD DUP1 DUP4 GT PUSH2 0x6C1 JUMPI DUP3 SWAP1 SUB PUSH1 0x1F AND DUP3 ADD SWAP2 JUMPDEST POP POP POP POP POP DUP2 MSTORE PUSH1 0x20 ADD PUSH1 0x2 DUP3 ADD PUSH1 0x0 SWAP1 SLOAD SWAP1 PUSH2 0x100 EXP SWAP1 DIV PUSH20 0xFFFFFFFFFFFFFFFFFFFFFFFFFFFFFFFFFFFFFFFF AND PUSH20 0xFFFFFFFFFFFFFFFFFFFFFFFFFFFFFFFFFFFFFFFF AND PUSH20 0xFFFFFFFFFFFFFFFFFFFFFFFFFFFFFFFFFFFFFFFF AND DUP2 MSTORE PUSH1 0x20 ADD PUSH1 0x2 DUP3 ADD PUSH1 0x14 SWAP1 SLOAD SWAP1 PUSH2 0x100 EXP SWAP1 DIV PUSH1 0xFF AND ISZERO ISZERO ISZERO ISZERO DUP2 MSTORE PUSH1 0x20 ADD PUSH1 0x2 DUP3 ADD PUSH1 0x15 SWAP1 SLOAD SWAP1 PUSH2 0x100 EXP SWAP1 DIV PUSH1 0xFF AND ISZERO ISZERO ISZERO ISZERO DUP2 MSTORE PUSH1 0x20 ADD PUSH1 0x2 DUP3 ADD PUSH1 0x16 SWAP1 SLOAD SWAP1 PUSH2 0x100 EXP SWAP1 DIV PUSH1 0xFF AND ISZERO ISZERO ISZERO ISZERO DUP2 MSTORE POP POP SWAP1 POP SWAP2 SWAP1 POP JUMP JUMPDEST PUSH1 0x1 ISZERO ISZERO PUSH1 0x2 PUSH1 0x0 CALLER PUSH20 0xFFFFFFFFFFFFFFFFFFFFFFFFFFFFFFFFFFFFFFFF AND PUSH20 0xFFFFFFFFFFFFFFFFFFFFFFFFFFFFFFFFFFFFFFFF AND DUP2 MSTORE PUSH1 0x20 ADD SWAP1 DUP2 MSTORE PUSH1 0x20 ADD PUSH1 0x0 KECCAK256 PUSH1 0x2 ADD PUSH1 0x16 SWAP1 SLOAD SWAP1 PUSH2 0x100 EXP SWAP1 DIV PUSH1 0xFF AND ISZERO ISZERO EQ PUSH2 0x82B JUMPI PUSH1 0x40 MLOAD PUSH32 0x8C379A000000000000000000000000000000000000000000000000000000000 DUP2 MSTORE PUSH1 0x4 ADD PUSH2 0x822 SWAP1 PUSH2 0x1189 JUMP JUMPDEST PUSH1 0x40 MLOAD DUP1 SWAP2 SUB SWAP1 REVERT JUMPDEST PUSH1 0x0 ISZERO ISZERO PUSH1 0x2 PUSH1 0x0 CALLER PUSH20 0xFFFFFFFFFFFFFFFFFFFFFFFFFFFFFFFFFFFFFFFF AND PUSH20 0xFFFFFFFFFFFFFFFFFFFFFFFFFFFFFFFFFFFFFFFF AND DUP2 MSTORE PUSH1 0x20 ADD SWAP1 DUP2 MSTORE PUSH1 0x20 ADD PUSH1 0x0 KECCAK256 PUSH1 0x2 ADD PUSH1 0x14 SWAP1 SLOAD SWAP1 PUSH2 0x100 EXP SWAP1 DIV PUSH1 0xFF AND ISZERO ISZERO EQ PUSH2 0x8C1 JUMPI PUSH1 0x40 MLOAD PUSH32 0x8C379A000000000000000000000000000000000000000000000000000000000 DUP2 MSTORE PUSH1 0x4 ADD PUSH2 0x8B8 SWAP1 PUSH2 0x11A9 JUMP JUMPDEST PUSH1 0x40 MLOAD DUP1 SWAP2 SUB SWAP1 REVERT JUMPDEST PUSH1 0x40 MLOAD DUP1 PUSH1 0xC0 ADD PUSH1 0x40 MSTORE DUP1 DUP5 DUP2 MSTORE PUSH1 0x20 ADD DUP4 DUP2 MSTORE PUSH1 0x20 ADD DUP3 PUSH20 0xFFFFFFFFFFFFFFFFFFFFFFFFFFFFFFFFFFFFFFFF AND DUP2 MSTORE PUSH1 0x20 ADD PUSH1 0x1 ISZERO ISZERO DUP2 MSTORE PUSH1 0x20 ADD PUSH1 0x0 ISZERO ISZERO DUP2 MSTORE PUSH1 0x20 ADD PUSH1 0x1 ISZERO ISZERO DUP2 MSTORE POP PUSH1 0x2 PUSH1 0x0 CALLER PUSH20 0xFFFFFFFFFFFFFFFFFFFFFFFFFFFFFFFFFFFFFFFF AND PUSH20 0xFFFFFFFFFFFFFFFFFFFFFFFFFFFFFFFFFFFFFFFF AND DUP2 MSTORE PUSH1 0x20 ADD SWAP1 DUP2 MSTORE PUSH1 0x20 ADD PUSH1 0x0 KECCAK256 PUSH1 0x0 DUP3 ADD MLOAD DUP2 PUSH1 0x0 ADD SWAP1 DUP1 MLOAD SWAP1 PUSH1 0x20 ADD SWAP1 PUSH2 0x968 SWAP3 SWAP2 SWAP1 PUSH2 0xCC3 JUMP JUMPDEST POP PUSH1 0x20 DUP3 ADD MLOAD DUP2 PUSH1 0x1 ADD SWAP1 DUP1 MLOAD SWAP1 PUSH1 0x20 ADD SWAP1 PUSH2 0x985 SWAP3 SWAP2 SWAP1 PUSH2 0xCC3 JUMP JUMPDEST POP PUSH1 0x40 DUP3 ADD MLOAD DUP2 PUSH1 0x2 ADD PUSH1 0x0 PUSH2 0x100 EXP DUP2 SLOAD DUP2 PUSH20 0xFFFFFFFFFFFFFFFFFFFFFFFFFFFFFFFFFFFFFFFF MUL NOT AND SWAP1 DUP4 PUSH20 0xFFFFFFFFFFFFFFFFFFFFFFFFFFFFFFFFFFFFFFFF AND MUL OR SWAP1 SSTORE POP PUSH1 0x60 DUP3 ADD MLOAD DUP2 PUSH1 0x2 ADD PUSH1 0x14 PUSH2 0x100 EXP DUP2 SLOAD DUP2 PUSH1 0xFF MUL NOT AND SWAP1 DUP4 ISZERO ISZERO MUL OR SWAP1 SSTORE POP PUSH1 0x80 DUP3 ADD MLOAD DUP2 PUSH1 0x2 ADD PUSH1 0x15 PUSH2 0x100 EXP DUP2 SLOAD DUP2 PUSH1 0xFF MUL NOT AND SWAP1 DUP4 ISZERO ISZERO MUL OR SWAP1 SSTORE POP PUSH1 0xA0 DUP3 ADD MLOAD DUP2 PUSH1 0x2 ADD PUSH1 0x16 PUSH2 0x100 EXP DUP2 SLOAD DUP2 PUSH1 0xFF MUL NOT AND SWAP1 DUP4 ISZERO ISZERO MUL OR SWAP1 SSTORE POP SWAP1 POP POP PUSH1 0x3 CALLER SWAP1 DUP1 PUSH1 0x1 DUP2 SLOAD ADD DUP1 DUP3 SSTORE DUP1 SWAP2 POP POP PUSH1 0x1 SWAP1 SUB SWAP1 PUSH1 0x0 MSTORE PUSH1 0x20 PUSH1 0x0 KECCAK256 ADD PUSH1 0x0 SWAP1 SWAP2 SWAP1 SWAP2 SWAP1 SWAP2 PUSH2 0x100 EXP DUP2 SLOAD DUP2 PUSH20 0xFFFFFFFFFFFFFFFFFFFFFFFFFFFFFFFFFFFFFFFF MUL NOT AND SWAP1 DUP4 PUSH20 0xFFFFFFFFFFFFFFFFFFFFFFFFFFFFFFFFFFFFFFFF AND MUL OR SWAP1 SSTORE POP POP POP POP JUMP JUMPDEST PUSH1 0x0 DUP2 PUSH1 0x40 MLOAD PUSH1 0x20 ADD PUSH2 0xAAB SWAP2 SWAP1 PUSH2 0x1115 JUMP JUMPDEST PUSH1 0x40 MLOAD PUSH1 0x20 DUP2 DUP4 SUB SUB DUP2 MSTORE SWAP1 PUSH1 0x40 MSTORE DUP1 MLOAD SWAP1 PUSH1 0x20 ADD KECCAK256 SWAP1 POP SWAP2 SWAP1 POP JUMP JUMPDEST PUSH1 0x2 PUSH1 0x4 DUP2 GT ISZERO PUSH2 0xADC JUMPI PUSH2 0xADB PUSH2 0x1441 JUMP JUMPDEST JUMPDEST PUSH1 0x0 DUP1 CALLER PUSH20 0xFFFFFFFFFFFFFFFFFFFFFFFFFFFFFFFFFFFFFFFF AND PUSH20 0xFFFFFFFFFFFFFFFFFFFFFFFFFFFFFFFFFFFFFFFF AND DUP2 MSTORE PUSH1 0x20 ADD SWAP1 DUP2 MSTORE PUSH1 0x20 ADD PUSH1 0x0 KECCAK256 PUSH1 0x0 ADD PUSH1 0x0 SWAP1 SLOAD SWAP1 PUSH2 0x100 EXP SWAP1 DIV PUSH1 0xFF AND PUSH1 0x4 DUP2 GT ISZERO PUSH2 0xB3D JUMPI PUSH2 0xB3C PUSH2 0x1441 JUMP JUMPDEST JUMPDEST EQ PUSH2 0xB7D JUMPI PUSH1 0x40 MLOAD PUSH32 0x8C379A000000000000000000000000000000000000000000000000000000000 DUP2 MSTORE PUSH1 0x4 ADD PUSH2 0xB74 SWAP1 PUSH2 0x11C9 JUMP JUMPDEST PUSH1 0x40 MLOAD DUP1 SWAP2 SUB SWAP1 REVERT JUMPDEST PUSH1 0x0 ISZERO ISZERO PUSH1 0x2 PUSH1 0x0 CALLER PUSH20 0xFFFFFFFFFFFFFFFFFFFFFFFFFFFFFFFFFFFFFFFF AND PUSH20 0xFFFFFFFFFFFFFFFFFFFFFFFFFFFFFFFFFFFFFFFF AND DUP2 MSTORE PUSH1 0x20 ADD SWAP1 DUP2 MSTORE PUSH1 0x20 ADD PUSH1 0x0 KECCAK256 PUSH1 0x2 ADD PUSH1 0x15 SWAP1 SLOAD SWAP1 PUSH2 0x100 EXP SWAP1 DIV PUSH1 0xFF AND ISZERO ISZERO EQ PUSH2 0xC13 JUMPI PUSH1 0x40 MLOAD PUSH32 0x8C379A000000000000000000000000000000000000000000000000000000000 DUP2 MSTORE PUSH1 0x4 ADD PUSH2 0xC0A SWAP1 PUSH2 0x1169 JUMP JUMPDEST PUSH1 0x40 MLOAD DUP1 SWAP2 SUB SWAP1 REVERT JUMPDEST PUSH1 0x0 PUSH1 0x2 PUSH1 0x0 DUP4 PUSH20 0xFFFFFFFFFFFFFFFFFFFFFFFFFFFFFFFFFFFFFFFF AND PUSH20 0xFFFFFFFFFFFFFFFFFFFFFFFFFFFFFFFFFFFFFFFF AND DUP2 MSTORE PUSH1 0x20 ADD SWAP1 DUP2 MSTORE PUSH1 0x20 ADD PUSH1 0x0 KECCAK256 PUSH1 0x2 ADD PUSH1 0x14 PUSH2 0x100 EXP DUP2 SLOAD DUP2 PUSH1 0xFF MUL NOT AND SWAP1 DUP4 ISZERO ISZERO MUL OR SWAP1 SSTORE POP POP JUMP JUMPDEST PUSH1 0x40 MLOAD DUP1 PUSH1 0xC0 ADD PUSH1 0x40 MSTORE DUP1 PUSH1 0x60 DUP2 MSTORE PUSH1 0x20 ADD PUSH1 0x60 DUP2 MSTORE PUSH1 0x20 ADD PUSH1 0x0 PUSH20 0xFFFFFFFFFFFFFFFFFFFFFFFFFFFFFFFFFFFFFFFF AND DUP2 MSTORE PUSH1 0x20 ADD PUSH1 0x0 ISZERO ISZERO DUP2 MSTORE PUSH1 0x20 ADD PUSH1 0x0 ISZERO ISZERO DUP2 MSTORE PUSH1 0x20 ADD PUSH1 0x0 ISZERO ISZERO DUP2 MSTORE POP SWAP1 JUMP JUMPDEST DUP3 DUP1 SLOAD PUSH2 0xCCF SWAP1 PUSH2 0x1366 JUMP JUMPDEST SWAP1 PUSH1 0x0 MSTORE PUSH1 0x20 PUSH1 0x0 KECCAK256 SWAP1 PUSH1 0x1F ADD PUSH1 0x20 SWAP1 DIV DUP2 ADD SWAP3 DUP3 PUSH2 0xCF1 JUMPI PUSH1 0x0 DUP6 SSTORE PUSH2 0xD38 JUMP JUMPDEST DUP3 PUSH1 0x1F LT PUSH2 0xD0A JUMPI DUP1 MLOAD PUSH1 0xFF NOT AND DUP4 DUP1 ADD OR DUP6 SSTORE PUSH2 0xD38 JUMP JUMPDEST DUP3 DUP1 ADD PUSH1 0x1 ADD DUP6 SSTORE DUP3 ISZERO PUSH2 0xD38 JUMPI SWAP2 DUP3 ADD JUMPDEST DUP3 DUP2 GT ISZERO PUSH2 0xD37 JUMPI DUP3 MLOAD DUP3 SSTORE SWAP2 PUSH1 0x20 ADD SWAP2 SWAP1 PUSH1 0x1 ADD SWAP1 PUSH2 0xD1C JUMP JUMPDEST JUMPDEST POP SWAP1 POP PUSH2 0xD45 SWAP2 SWAP1 PUSH2 0xD49 JUMP JUMPDEST POP SWAP1 JUMP JUMPDEST JUMPDEST DUP1 DUP3 GT ISZERO PUSH2 0xD62 JUMPI PUSH1 0x0 DUP2 PUSH1 0x0 SWAP1 SSTORE POP PUSH1 0x1 ADD PUSH2 0xD4A JUMP JUMPDEST POP SWAP1 JUMP JUMPDEST PUSH1 0x0 PUSH2 0xD79 PUSH2 0xD74 DUP5 PUSH2 0x1230 JUMP JUMPDEST PUSH2 0x120B JUMP JUMPDEST SWAP1 POP DUP3 DUP2 MSTORE PUSH1 0x20 DUP2 ADD DUP5 DUP5 DUP5 ADD GT ISZERO PUSH2 0xD95 JUMPI PUSH2 0xD94 PUSH2 0x1502 JUMP JUMPDEST JUMPDEST PUSH2 0xDA0 DUP5 DUP3 DUP6 PUSH2 0x1324 JUMP JUMPDEST POP SWAP4 SWAP3 POP POP POP JUMP JUMPDEST PUSH1 0x0 DUP2 CALLDATALOAD SWAP1 POP PUSH2 0xDB7 DUP2 PUSH2 0x15EC JUMP JUMPDEST SWAP3 SWAP2 POP POP JUMP JUMPDEST PUSH1 0x0 DUP3 PUSH1 0x1F DUP4 ADD SLT PUSH2 0xDD2 JUMPI PUSH2 0xDD1 PUSH2 0x14FD JUMP JUMPDEST JUMPDEST DUP2 CALLDATALOAD PUSH2 0xDE2 DUP5 DUP3 PUSH1 0x20 DUP7 ADD PUSH2 0xD66 JUMP JUMPDEST SWAP2 POP POP SWAP3 SWAP2 POP POP JUMP JUMPDEST PUSH1 0x0 PUSH1 0x20 DUP3 DUP5 SUB SLT ISZERO PUSH2 0xE01 JUMPI PUSH2 0xE00 PUSH2 0x150C JUMP JUMPDEST JUMPDEST PUSH1 0x0 PUSH2 0xE0F DUP5 DUP3 DUP6 ADD PUSH2 0xDA8 JUMP JUMPDEST SWAP2 POP POP SWAP3 SWAP2 POP POP JUMP JUMPDEST PUSH1 0x0 PUSH1 0x20 DUP3 DUP5 SUB SLT ISZERO PUSH2 0xE2E JUMPI PUSH2 0xE2D PUSH2 0x150C JUMP JUMPDEST JUMPDEST PUSH1 0x0 DUP3 ADD CALLDATALOAD PUSH8 0xFFFFFFFFFFFFFFFF DUP2 GT ISZERO PUSH2 0xE4C JUMPI PUSH2 0xE4B PUSH2 0x1507 JUMP JUMPDEST JUMPDEST PUSH2 0xE58 DUP5 DUP3 DUP6 ADD PUSH2 0xDBD JUMP JUMPDEST SWAP2 POP POP SWAP3 SWAP2 POP POP JUMP JUMPDEST PUSH1 0x0 DUP1 PUSH1 0x0 PUSH1 0x60 DUP5 DUP7 SUB SLT ISZERO PUSH2 0xE7A JUMPI PUSH2 0xE79 PUSH2 0x150C JUMP JUMPDEST JUMPDEST PUSH1 0x0 DUP5 ADD CALLDATALOAD PUSH8 0xFFFFFFFFFFFFFFFF DUP2 GT ISZERO PUSH2 0xE98 JUMPI PUSH2 0xE97 PUSH2 0x1507 JUMP JUMPDEST JUMPDEST PUSH2 0xEA4 DUP7 DUP3 DUP8 ADD PUSH2 0xDBD JUMP JUMPDEST SWAP4 POP POP PUSH1 0x20 DUP5 ADD CALLDATALOAD PUSH8 0xFFFFFFFFFFFFFFFF DUP2 GT ISZERO PUSH2 0xEC5 JUMPI PUSH2 0xEC4 PUSH2 0x1507 JUMP JUMPDEST JUMPDEST PUSH2 0xED1 DUP7 DUP3 DUP8 ADD PUSH2 0xDBD JUMP JUMPDEST SWAP3 POP POP PUSH1 0x40 PUSH2 0xEE2 DUP7 DUP3 DUP8 ADD PUSH2 0xDA8 JUMP JUMPDEST SWAP2 POP POP SWAP3 POP SWAP3 POP SWAP3 JUMP JUMPDEST PUSH1 0x0 PUSH2 0xEF8 DUP4 DUP4 PUSH2 0xF04 JUMP JUMPDEST PUSH1 0x20 DUP4 ADD SWAP1 POP SWAP3 SWAP2 POP POP JUMP JUMPDEST PUSH2 0xF0D DUP2 PUSH2 0x12D2 JUMP JUMPDEST DUP3 MSTORE POP POP JUMP JUMPDEST PUSH1 0x0 PUSH2 0xF1E DUP3 PUSH2 0x1271 JUMP JUMPDEST PUSH2 0xF28 DUP2 DUP6 PUSH2 0x1294 JUMP JUMPDEST SWAP4 POP PUSH2 0xF33 DUP4 PUSH2 0x1261 JUMP JUMPDEST DUP1 PUSH1 0x0 JUMPDEST DUP4 DUP2 LT ISZERO PUSH2 0xF64 JUMPI DUP2 MLOAD PUSH2 0xF4B DUP9 DUP3 PUSH2 0xEEC JUMP JUMPDEST SWAP8 POP PUSH2 0xF56 DUP4 PUSH2 0x1287 JUMP JUMPDEST SWAP3 POP POP PUSH1 0x1 DUP2 ADD SWAP1 POP PUSH2 0xF37 JUMP JUMPDEST POP DUP6 SWAP4 POP POP POP POP SWAP3 SWAP2 POP POP JUMP JUMPDEST PUSH2 0xF7A DUP2 PUSH2 0x12E4 JUMP JUMPDEST DUP3 MSTORE POP POP JUMP JUMPDEST PUSH2 0xF89 DUP2 PUSH2 0x12F0 JUMP JUMPDEST DUP3 MSTORE POP POP JUMP JUMPDEST PUSH1 0x0 PUSH2 0xF9A DUP3 PUSH2 0x127C JUMP JUMPDEST PUSH2 0xFA4 DUP2 DUP6 PUSH2 0x12A5 JUMP JUMPDEST SWAP4 POP PUSH2 0xFB4 DUP2 DUP6 PUSH1 0x20 DUP7 ADD PUSH2 0x1333 JUMP JUMPDEST PUSH2 0xFBD DUP2 PUSH2 0x1511 JUMP JUMPDEST DUP5 ADD SWAP2 POP POP SWAP3 SWAP2 POP POP JUMP JUMPDEST PUSH1 0x0 PUSH2 0xFD3 DUP3 PUSH2 0x127C JUMP JUMPDEST PUSH2 0xFDD DUP2 DUP6 PUSH2 0x12C7 JUMP JUMPDEST SWAP4 POP PUSH2 0xFED DUP2 DUP6 PUSH1 0x20 DUP7 ADD PUSH2 0x1333 JUMP JUMPDEST DUP1 DUP5 ADD SWAP2 POP POP SWAP3 SWAP2 POP POP JUMP JUMPDEST PUSH1 0x0 PUSH2 0x1006 PUSH1 0x1C DUP4 PUSH2 0x12B6 JUMP JUMPDEST SWAP2 POP PUSH2 0x1011 DUP3 PUSH2 0x1522 JUMP JUMPDEST PUSH1 0x20 DUP3 ADD SWAP1 POP SWAP2 SWAP1 POP JUMP JUMPDEST PUSH1 0x0 PUSH2 0x1029 PUSH1 0x18 DUP4 PUSH2 0x12B6 JUMP JUMPDEST SWAP2 POP PUSH2 0x1034 DUP3 PUSH2 0x154B JUMP JUMPDEST PUSH1 0x20 DUP3 ADD SWAP1 POP SWAP2 SWAP1 POP JUMP JUMPDEST PUSH1 0x0 PUSH2 0x104C PUSH1 0x2A DUP4 PUSH2 0x12B6 JUMP JUMPDEST SWAP2 POP PUSH2 0x1057 DUP3 PUSH2 0x1574 JUMP JUMPDEST PUSH1 0x40 DUP3 ADD SWAP1 POP SWAP2 SWAP1 POP JUMP JUMPDEST PUSH1 0x0 PUSH2 0x106F PUSH1 0x19 DUP4 PUSH2 0x12B6 JUMP JUMPDEST SWAP2 POP PUSH2 0x107A DUP3 PUSH2 0x15C3 JUMP JUMPDEST PUSH1 0x20 DUP3 ADD SWAP1 POP SWAP2 SWAP1 POP JUMP JUMPDEST PUSH1 0x0 PUSH1 0xC0 DUP4 ADD PUSH1 0x0 DUP4 ADD MLOAD DUP5 DUP3 SUB PUSH1 0x0 DUP7 ADD MSTORE PUSH2 0x10A2 DUP3 DUP3 PUSH2 0xF8F JUMP JUMPDEST SWAP2 POP POP PUSH1 0x20 DUP4 ADD MLOAD DUP5 DUP3 SUB PUSH1 0x20 DUP7 ADD MSTORE PUSH2 0x10BC DUP3 DUP3 PUSH2 0xF8F JUMP JUMPDEST SWAP2 POP POP PUSH1 0x40 DUP4 ADD MLOAD PUSH2 0x10D1 PUSH1 0x40 DUP7 ADD DUP3 PUSH2 0xF04 JUMP JUMPDEST POP PUSH1 0x60 DUP4 ADD MLOAD PUSH2 0x10E4 PUSH1 0x60 DUP7 ADD DUP3 PUSH2 0xF71 JUMP JUMPDEST POP PUSH1 0x80 DUP4 ADD MLOAD PUSH2 0x10F7 PUSH1 0x80 DUP7 ADD DUP3 PUSH2 0xF71 JUMP JUMPDEST POP PUSH1 0xA0 DUP4 ADD MLOAD PUSH2 0x110A PUSH1 0xA0 DUP7 ADD DUP3 PUSH2 0xF71 JUMP JUMPDEST POP DUP1 SWAP2 POP POP SWAP3 SWAP2 POP POP JUMP JUMPDEST PUSH1 0x0 PUSH2 0x1121 DUP3 DUP5 PUSH2 0xFC8 JUMP JUMPDEST SWAP2 POP DUP2 SWAP1 POP SWAP3 SWAP2 POP POP JUMP JUMPDEST PUSH1 0x0 PUSH1 0x20 DUP3 ADD SWAP1 POP DUP2 DUP2 SUB PUSH1 0x0 DUP4 ADD MSTORE PUSH2 0x1146 DUP2 DUP5 PUSH2 0xF13 JUMP JUMPDEST SWAP1 POP SWAP3 SWAP2 POP POP JUMP JUMPDEST PUSH1 0x0 PUSH1 0x20 DUP3 ADD SWAP1 POP PUSH2 0x1163 PUSH1 0x0 DUP4 ADD DUP5 PUSH2 0xF80 JUMP JUMPDEST SWAP3 SWAP2 POP POP JUMP JUMPDEST PUSH1 0x0 PUSH1 0x20 DUP3 ADD SWAP1 POP DUP2 DUP2 SUB PUSH1 0x0 DUP4 ADD MSTORE PUSH2 0x1182 DUP2 PUSH2 0xFF9 JUMP JUMPDEST SWAP1 POP SWAP2 SWAP1 POP JUMP JUMPDEST PUSH1 0x0 PUSH1 0x20 DUP3 ADD SWAP1 POP DUP2 DUP2 SUB PUSH1 0x0 DUP4 ADD MSTORE PUSH2 0x11A2 DUP2 PUSH2 0x101C JUMP JUMPDEST SWAP1 POP SWAP2 SWAP1 POP JUMP JUMPDEST PUSH1 0x0 PUSH1 0x20 DUP3 ADD SWAP1 POP DUP2 DUP2 SUB PUSH1 0x0 DUP4 ADD MSTORE PUSH2 0x11C2 DUP2 PUSH2 0x103F JUMP JUMPDEST SWAP1 POP SWAP2 SWAP1 POP JUMP JUMPDEST PUSH1 0x0 PUSH1 0x20 DUP3 ADD SWAP1 POP DUP2 DUP2 SUB PUSH1 0x0 DUP4 ADD MSTORE PUSH2 0x11E2 DUP2 PUSH2 0x1062 JUMP JUMPDEST SWAP1 POP SWAP2 SWAP1 POP JUMP JUMPDEST PUSH1 0x0 PUSH1 0x20 DUP3 ADD SWAP1 POP DUP2 DUP2 SUB PUSH1 0x0 DUP4 ADD MSTORE PUSH2 0x1203 DUP2 DUP5 PUSH2 0x1085 JUMP JUMPDEST SWAP1 POP SWAP3 SWAP2 POP POP JUMP JUMPDEST PUSH1 0x0 PUSH2 0x1215 PUSH2 0x1226 JUMP JUMPDEST SWAP1 POP PUSH2 0x1221 DUP3 DUP3 PUSH2 0x1398 JUMP JUMPDEST SWAP2 SWAP1 POP JUMP JUMPDEST PUSH1 0x0 PUSH1 0x40 MLOAD SWAP1 POP SWAP1 JUMP JUMPDEST PUSH1 0x0 PUSH8 0xFFFFFFFFFFFFFFFF DUP3 GT ISZERO PUSH2 0x124B JUMPI PUSH2 0x124A PUSH2 0x14CE JUMP JUMPDEST JUMPDEST PUSH2 0x1254 DUP3 PUSH2 0x1511 JUMP JUMPDEST SWAP1 POP PUSH1 0x20 DUP2 ADD SWAP1 POP SWAP2 SWAP1 POP JUMP JUMPDEST PUSH1 0x0 DUP2 SWAP1 POP PUSH1 0x20 DUP3 ADD SWAP1 POP SWAP2 SWAP1 POP JUMP JUMPDEST PUSH1 0x0 DUP2 MLOAD SWAP1 POP SWAP2 SWAP1 POP JUMP JUMPDEST PUSH1 0x0 DUP2 MLOAD SWAP1 POP SWAP2 SWAP1 POP JUMP JUMPDEST PUSH1 0x0 PUSH1 0x20 DUP3 ADD SWAP1 POP SWAP2 SWAP1 POP JUMP JUMPDEST PUSH1 0x0 DUP3 DUP3 MSTORE PUSH1 0x20 DUP3 ADD SWAP1 POP SWAP3 SWAP2 POP POP JUMP JUMPDEST PUSH1 0x0 DUP3 DUP3 MSTORE PUSH1 0x20 DUP3 ADD SWAP1 POP SWAP3 SWAP2 POP POP JUMP JUMPDEST PUSH1 0x0 DUP3 DUP3 MSTORE PUSH1 0x20 DUP3 ADD SWAP1 POP SWAP3 SWAP2 POP POP JUMP JUMPDEST PUSH1 0x0 DUP2 SWAP1 POP SWAP3 SWAP2 POP POP JUMP JUMPDEST PUSH1 0x0 PUSH2 0x12DD DUP3 PUSH2 0x12FA JUMP JUMPDEST SWAP1 POP SWAP2 SWAP1 POP JUMP JUMPDEST PUSH1 0x0 DUP2 ISZERO ISZERO SWAP1 POP SWAP2 SWAP1 POP JUMP JUMPDEST PUSH1 0x0 DUP2 SWAP1 POP SWAP2 SWAP1 POP JUMP JUMPDEST PUSH1 0x0 PUSH20 0xFFFFFFFFFFFFFFFFFFFFFFFFFFFFFFFFFFFFFFFF DUP3 AND SWAP1 POP SWAP2 SWAP1 POP JUMP JUMPDEST PUSH1 0x0 DUP2 SWAP1 POP SWAP2 SWAP1 POP JUMP JUMPDEST DUP3 DUP2 DUP4 CALLDATACOPY PUSH1 0x0 DUP4 DUP4 ADD MSTORE POP POP POP JUMP JUMPDEST PUSH1 0x0 JUMPDEST DUP4 DUP2 LT ISZERO PUSH2 0x1351 JUMPI DUP1 DUP3 ADD MLOAD DUP2 DUP5 ADD MSTORE PUSH1 0x20 DUP2 ADD SWAP1 POP PUSH2 0x1336 JUMP JUMPDEST DUP4 DUP2 GT ISZERO PUSH2 0x1360 JUMPI PUSH1 0x0 DUP5 DUP5 ADD MSTORE JUMPDEST POP POP POP POP JUMP JUMPDEST PUSH1 0x0 PUSH1 0x2 DUP3 DIV SWAP1 POP PUSH1 0x1 DUP3 AND DUP1 PUSH2 0x137E JUMPI PUSH1 0x7F DUP3 AND SWAP2 POP JUMPDEST PUSH1 0x20 DUP3 LT DUP2 EQ ISZERO PUSH2 0x1392 JUMPI PUSH2 0x1391 PUSH2 0x1470 JUMP JUMPDEST JUMPDEST POP SWAP2 SWAP1 POP JUMP JUMPDEST PUSH2 0x13A1 DUP3 PUSH2 0x1511 JUMP JUMPDEST DUP2 ADD DUP2 DUP2 LT PUSH8 0xFFFFFFFFFFFFFFFF DUP3 GT OR ISZERO PUSH2 0x13C0 JUMPI PUSH2 0x13BF PUSH2 0x14CE JUMP JUMPDEST JUMPDEST DUP1 PUSH1 0x40 MSTORE POP POP POP JUMP JUMPDEST PUSH1 0x0 PUSH2 0x13D4 DUP3 PUSH2 0x131A JUMP JUMPDEST SWAP2 POP PUSH32 0xFFFFFFFFFFFFFFFFFFFFFFFFFFFFFFFFFFFFFFFFFFFFFFFFFFFFFFFFFFFFFFFF DUP3 EQ ISZERO PUSH2 0x1407 JUMPI PUSH2 0x1406 PUSH2 0x1412 JUMP JUMPDEST JUMPDEST PUSH1 0x1 DUP3 ADD SWAP1 POP SWAP2 SWAP1 POP JUMP JUMPDEST PUSH32 0x4E487B7100000000000000000000000000000000000000000000000000000000 PUSH1 0x0 MSTORE PUSH1 0x11 PUSH1 0x4 MSTORE PUSH1 0x24 PUSH1 0x0 REVERT JUMPDEST PUSH32 0x4E487B7100000000000000000000000000000000000000000000000000000000 PUSH1 0x0 MSTORE PUSH1 0x21 PUSH1 0x4 MSTORE PUSH1 0x24 PUSH1 0x0 REVERT JUMPDEST PUSH32 0x4E487B7100000000000000000000000000000000000000000000000000000000 PUSH1 0x0 MSTORE PUSH1 0x22 PUSH1 0x4 MSTORE PUSH1 0x24 PUSH1 0x0 REVERT JUMPDEST PUSH32 0x4E487B7100000000000000000000000000000000000000000000000000000000 PUSH1 0x0 MSTORE PUSH1 0x32 PUSH1 0x4 MSTORE PUSH1 0x24 PUSH1 0x0 REVERT JUMPDEST PUSH32 0x4E487B7100000000000000000000000000000000000000000000000000000000 PUSH1 0x0 MSTORE PUSH1 0x41 PUSH1 0x4 MSTORE PUSH1 0x24 PUSH1 0x0 REVERT JUMPDEST PUSH1 0x0 DUP1 REVERT JUMPDEST PUSH1 0x0 DUP1 REVERT JUMPDEST PUSH1 0x0 DUP1 REVERT JUMPDEST PUSH1 0x0 DUP1 REVERT JUMPDEST PUSH1 0x0 PUSH1 0x1F NOT PUSH1 0x1F DUP4 ADD AND SWAP1 POP SWAP2 SWAP1 POP JUMP JUMPDEST PUSH32 0x52657669657720746865206170706C69636174696F6E20666972737400000000 PUSH1 0x0 DUP3 ADD MSTORE POP JUMP JUMPDEST PUSH32 0x4170706C69636174696F6E20616C72656164792073656E740000000000000000 PUSH1 0x0 DUP3 ADD MSTORE POP JUMP JUMPDEST PUSH32 0x596F7572206170706C69636174696F6E2068617320616C726561647920626565 PUSH1 0x0 DUP3 ADD MSTORE PUSH32 0x6E2072656A656374656400000000000000000000000000000000000000000000 PUSH1 0x20 DUP3 ADD MSTORE POP JUMP JUMPDEST PUSH32 0x596F7572206E6F7420507269766174652070726F766964657200000000000000 PUSH1 0x0 DUP3 ADD MSTORE POP JUMP JUMPDEST PUSH2 0x15F5 DUP2 PUSH2 0x12D2 JUMP JUMPDEST DUP2 EQ PUSH2 0x1600 JUMPI PUSH1 0x0 DUP1 REVERT JUMPDEST POP JUMP INVALID LOG2 PUSH5 0x6970667358 0x22 SLT KECCAK256 0xD9 0x25 SWAP16 0xE4 POP LOG1 PUSH18 0x3A6E7519AEE860A035BA5ACF53519733FA35 0xA6 0xFC CALLVALUE PUSH13 0x33BC8A64736F6C634300080700 CALLER "
				},
				"gasEstimates": {
					"creation": {
						"codeDepositCost": "1137800",
						"executionCost": "1180",
						"totalCost": "1138980"
					},
					"external": {
						"acceptApplication(address)": "29578",
						"application(string,string,address)": "infinite",
						"get_keccak256(string)": "infinite",
						"viewApplication(address)": "infinite",
						"viewApplicationAmountAdr()": "infinite",
						"viewApplicationNotReviewed()": "infinite"
					}
				},
				"methodIdentifiers": {
					"acceptApplication(address)": "a678b65b",
					"application(string,string,address)": "785963c3",
					"get_keccak256(string)": "8e4f8c6b",
					"viewApplication(address)": "76eada91",
					"viewApplicationAmountAdr()": "4d0d594f",
					"viewApplicationNotReviewed()": "015952a7"
				}
			},
			"storageLayout": {
				"storage": [
					{
						"astId": 371,
						"contract": "Documents/GitHub/contract-token-cryptoMonster/backend/components/PhasePrivate.sol:PhasePrivate",
						"label": "structUsers_",
						"offset": 0,
						"slot": "0",
						"type": "t_mapping(t_address,t_struct(structUser)366_storage)"
					},
					{
						"astId": 381,
						"contract": "Documents/GitHub/contract-token-cryptoMonster/backend/components/PhasePrivate.sol:PhasePrivate",
						"label": "structPhases_",
						"offset": 0,
						"slot": "1",
						"type": "t_mapping(t_address,t_struct(structPhase)376_storage)"
					},
					{
						"astId": 399,
						"contract": "Documents/GitHub/contract-token-cryptoMonster/backend/components/PhasePrivate.sol:PhasePrivate",
						"label": "strucApplications_",
						"offset": 0,
						"slot": "2",
						"type": "t_mapping(t_address,t_struct(structApplication)394_storage)"
					},
					{
						"astId": 402,
						"contract": "Documents/GitHub/contract-token-cryptoMonster/backend/components/PhasePrivate.sol:PhasePrivate",
						"label": "structApplicationsAmountAdr",
						"offset": 0,
						"slot": "3",
						"type": "t_array(t_address)dyn_storage"
					},
					{
						"astId": 405,
						"contract": "Documents/GitHub/contract-token-cryptoMonster/backend/components/PhasePrivate.sol:PhasePrivate",
						"label": "whiteList",
						"offset": 0,
						"slot": "4",
						"type": "t_array(t_address)dyn_storage"
					}
				],
				"types": {
					"t_address": {
						"encoding": "inplace",
						"label": "address",
						"numberOfBytes": "20"
					},
					"t_array(t_address)dyn_storage": {
						"base": "t_address",
						"encoding": "dynamic_array",
						"label": "address[]",
						"numberOfBytes": "32"
					},
					"t_bool": {
						"encoding": "inplace",
						"label": "bool",
						"numberOfBytes": "1"
					},
					"t_bytes32": {
						"encoding": "inplace",
						"label": "bytes32",
						"numberOfBytes": "32"
					},
					"t_enum(Role)350": {
						"encoding": "inplace",
						"label": "enum structures.Role",
						"numberOfBytes": "1"
					},
					"t_mapping(t_address,t_struct(structApplication)394_storage)": {
						"encoding": "mapping",
						"key": "t_address",
						"label": "mapping(address => struct structures.structApplication)",
						"numberOfBytes": "32",
						"value": "t_struct(structApplication)394_storage"
					},
					"t_mapping(t_address,t_struct(structPhase)376_storage)": {
						"encoding": "mapping",
						"key": "t_address",
						"label": "mapping(address => struct structures.structPhase)",
						"numberOfBytes": "32",
						"value": "t_struct(structPhase)376_storage"
					},
					"t_mapping(t_address,t_struct(structUser)366_storage)": {
						"encoding": "mapping",
						"key": "t_address",
						"label": "mapping(address => struct structures.structUser)",
						"numberOfBytes": "32",
						"value": "t_struct(structUser)366_storage"
					},
					"t_string_storage": {
						"encoding": "bytes",
						"label": "string",
						"numberOfBytes": "32"
					},
					"t_struct(structApplication)394_storage": {
						"encoding": "inplace",
						"label": "struct structures.structApplication",
						"members": [
							{
								"astId": 383,
								"contract": "Documents/GitHub/contract-token-cryptoMonster/backend/components/PhasePrivate.sol:PhasePrivate",
								"label": "name",
								"offset": 0,
								"slot": "0",
								"type": "t_string_storage"
							},
							{
								"astId": 385,
								"contract": "Documents/GitHub/contract-token-cryptoMonster/backend/components/PhasePrivate.sol:PhasePrivate",
								"label": "contactForCommunication",
								"offset": 0,
								"slot": "1",
								"type": "t_string_storage"
							},
							{
								"astId": 387,
								"contract": "Documents/GitHub/contract-token-cryptoMonster/backend/components/PhasePrivate.sol:PhasePrivate",
								"label": "userAdr",
								"offset": 0,
								"slot": "2",
								"type": "t_address"
							},
							{
								"astId": 389,
								"contract": "Documents/GitHub/contract-token-cryptoMonster/backend/components/PhasePrivate.sol:PhasePrivate",
								"label": "status",
								"offset": 20,
								"slot": "2",
								"type": "t_bool"
							},
							{
								"astId": 391,
								"contract": "Documents/GitHub/contract-token-cryptoMonster/backend/components/PhasePrivate.sol:PhasePrivate",
								"label": "reviewed",
								"offset": 21,
								"slot": "2",
								"type": "t_bool"
							},
							{
								"astId": 393,
								"contract": "Documents/GitHub/contract-token-cryptoMonster/backend/components/PhasePrivate.sol:PhasePrivate",
								"label": "exist",
								"offset": 22,
								"slot": "2",
								"type": "t_bool"
							}
						],
						"numberOfBytes": "96"
					},
					"t_struct(structPhase)376_storage": {
						"encoding": "inplace",
						"label": "struct structures.structPhase",
						"members": [
							{
								"astId": 373,
								"contract": "Documents/GitHub/contract-token-cryptoMonster/backend/components/PhasePrivate.sol:PhasePrivate",
								"label": "statusPhase",
								"offset": 0,
								"slot": "0",
								"type": "t_bool"
							},
							{
								"astId": 375,
								"contract": "Documents/GitHub/contract-token-cryptoMonster/backend/components/PhasePrivate.sol:PhasePrivate",
								"label": "reviewed",
								"offset": 1,
								"slot": "0",
								"type": "t_bool"
							}
						],
						"numberOfBytes": "32"
					},
					"t_struct(structUser)366_storage": {
						"encoding": "inplace",
						"label": "struct structures.structUser",
						"members": [
							{
								"astId": 353,
								"contract": "Documents/GitHub/contract-token-cryptoMonster/backend/components/PhasePrivate.sol:PhasePrivate",
								"label": "role",
								"offset": 0,
								"slot": "0",
								"type": "t_enum(Role)350"
							},
							{
								"astId": 355,
								"contract": "Documents/GitHub/contract-token-cryptoMonster/backend/components/PhasePrivate.sol:PhasePrivate",
								"label": "login",
								"offset": 0,
								"slot": "1",
								"type": "t_string_storage"
							},
							{
								"astId": 357,
								"contract": "Documents/GitHub/contract-token-cryptoMonster/backend/components/PhasePrivate.sol:PhasePrivate",
								"label": "password",
								"offset": 0,
								"slot": "2",
								"type": "t_bytes32"
							},
							{
								"astId": 359,
								"contract": "Documents/GitHub/contract-token-cryptoMonster/backend/components/PhasePrivate.sol:PhasePrivate",
								"label": "balance_overall",
								"offset": 0,
								"slot": "3",
								"type": "t_uint256"
							},
							{
								"astId": 361,
								"contract": "Documents/GitHub/contract-token-cryptoMonster/backend/components/PhasePrivate.sol:PhasePrivate",
								"label": "balance_seed",
								"offset": 0,
								"slot": "4",
								"type": "t_uint256"
							},
							{
								"astId": 363,
								"contract": "Documents/GitHub/contract-token-cryptoMonster/backend/components/PhasePrivate.sol:PhasePrivate",
								"label": "balance_private",
								"offset": 0,
								"slot": "5",
								"type": "t_uint256"
							},
							{
								"astId": 365,
								"contract": "Documents/GitHub/contract-token-cryptoMonster/backend/components/PhasePrivate.sol:PhasePrivate",
								"label": "balance_public",
								"offset": 0,
								"slot": "6",
								"type": "t_uint256"
							}
						],
						"numberOfBytes": "224"
					},
					"t_uint256": {
						"encoding": "inplace",
						"label": "uint256",
						"numberOfBytes": "32"
					}
				}
			},
			"userdoc": {
				"kind": "user",
				"methods": {},
				"version": 1
			}
		}
	}
}