{
	"GitHub/contract-token-cryptoMonster/backend/components/PhasePrivate.sol": {
		"PhasePrivate": {
			"abi": [
				{
					"inputs": [
						{
							"internalType": "address",
							"name": "_userAdr",
							"type": "address"
						}
					],
					"name": "acceptApplication",
					"outputs": [],
					"stateMutability": "nonpayable",
					"type": "function"
				},
				{
					"inputs": [
						{
							"internalType": "string",
							"name": "_name",
							"type": "string"
						},
						{
							"internalType": "string",
							"name": "_contactForCommunication",
							"type": "string"
						},
						{
							"internalType": "address",
							"name": "_userAdr",
							"type": "address"
						}
					],
					"name": "application",
					"outputs": [],
					"stateMutability": "nonpayable",
					"type": "function"
				},
				{
					"inputs": [
						{
							"internalType": "uint256",
							"name": "_price",
							"type": "uint256"
						}
					],
					"name": "changeTokenAmountPricePrivate",
					"outputs": [],
					"stateMutability": "nonpayable",
					"type": "function"
				},
				{
					"inputs": [
						{
							"internalType": "address",
							"name": "_userAdr",
							"type": "address"
						}
					],
					"name": "deviationApplication",
					"outputs": [],
					"stateMutability": "nonpayable",
					"type": "function"
				},
				{
					"inputs": [],
					"name": "endPrivatePhase",
					"outputs": [],
					"stateMutability": "nonpayable",
					"type": "function"
				},
				{
					"inputs": [],
					"name": "getApplicationAmountAdr",
					"outputs": [
						{
							"internalType": "address[]",
							"name": "",
							"type": "address[]"
						}
					],
					"stateMutability": "view",
					"type": "function"
				},
				{
					"inputs": [
						{
							"internalType": "address",
							"name": "adr",
							"type": "address"
						}
					],
					"name": "getBalanceEth",
					"outputs": [
						{
							"internalType": "uint256",
							"name": "",
							"type": "uint256"
						}
					],
					"stateMutability": "view",
					"type": "function"
				},
				{
					"inputs": [
						{
							"internalType": "address",
							"name": "_userAdr",
							"type": "address"
						}
					],
					"name": "getBalancePrivateToken",
					"outputs": [
						{
							"internalType": "uint256",
							"name": "",
							"type": "uint256"
						}
					],
					"stateMutability": "view",
					"type": "function"
				},
				{
					"inputs": [
						{
							"internalType": "address",
							"name": "_userAdr",
							"type": "address"
						}
					],
					"name": "getBalancePublicToken",
					"outputs": [
						{
							"internalType": "uint256",
							"name": "",
							"type": "uint256"
						}
					],
					"stateMutability": "view",
					"type": "function"
				},
				{
					"inputs": [
						{
							"internalType": "address",
							"name": "_userAdr",
							"type": "address"
						}
					],
					"name": "getBalanceSeedToken",
					"outputs": [
						{
							"internalType": "uint256",
							"name": "",
							"type": "uint256"
						}
					],
					"stateMutability": "view",
					"type": "function"
				},
				{
					"inputs": [],
					"name": "get_blackList",
					"outputs": [
						{
							"internalType": "address[]",
							"name": "",
							"type": "address[]"
						}
					],
					"stateMutability": "view",
					"type": "function"
				},
				{
					"inputs": [
						{
							"internalType": "string",
							"name": "_hash",
							"type": "string"
						}
					],
					"name": "get_keccak256",
					"outputs": [
						{
							"internalType": "bytes32",
							"name": "",
							"type": "bytes32"
						}
					],
					"stateMutability": "pure",
					"type": "function"
				},
				{
					"inputs": [],
					"name": "get_whiteList",
					"outputs": [
						{
							"internalType": "address[]",
							"name": "",
							"type": "address[]"
						}
					],
					"stateMutability": "view",
					"type": "function"
				},
				{
					"inputs": [],
					"name": "startPrivatePhase",
					"outputs": [],
					"stateMutability": "nonpayable",
					"type": "function"
				},
				{
					"inputs": [
						{
							"internalType": "address",
							"name": "",
							"type": "address"
						}
					],
					"name": "strucApplications_",
					"outputs": [
						{
							"internalType": "string",
							"name": "name",
							"type": "string"
						},
						{
							"internalType": "string",
							"name": "contactForCommunication",
							"type": "string"
						},
						{
							"internalType": "address",
							"name": "userAdr",
							"type": "address"
						},
						{
							"internalType": "bool",
							"name": "status",
							"type": "bool"
						},
						{
							"internalType": "bool",
							"name": "exist",
							"type": "bool"
						}
					],
					"stateMutability": "view",
					"type": "function"
				},
				{
					"inputs": [
						{
							"internalType": "address",
							"name": "",
							"type": "address"
						}
					],
					"name": "structUsers_",
					"outputs": [
						{
							"internalType": "enum structures.Role",
							"name": "role",
							"type": "uint8"
						},
						{
							"internalType": "string",
							"name": "login",
							"type": "string"
						},
						{
							"internalType": "bytes32",
							"name": "password",
							"type": "bytes32"
						},
						{
							"internalType": "uint256",
							"name": "balance_overall",
							"type": "uint256"
						},
						{
							"internalType": "uint256",
							"name": "balance_seed",
							"type": "uint256"
						},
						{
							"internalType": "uint256",
							"name": "balance_private",
							"type": "uint256"
						},
						{
							"internalType": "uint256",
							"name": "balance_public",
							"type": "uint256"
						}
					],
					"stateMutability": "view",
					"type": "function"
				},
				{
					"inputs": [],
					"name": "tokenAmount_",
					"outputs": [
						{
							"internalType": "uint256",
							"name": "",
							"type": "uint256"
						}
					],
					"stateMutability": "view",
					"type": "function"
				},
				{
					"inputs": [],
					"name": "tokenPrice_",
					"outputs": [
						{
							"internalType": "uint256",
							"name": "",
							"type": "uint256"
						}
					],
					"stateMutability": "view",
					"type": "function"
				}
			],
			"devdoc": {
				"kind": "dev",
				"methods": {},
				"version": 1
			},
			"evm": {
				"assembly": "    /* \"GitHub/contract-token-cryptoMonster/backend/components/PhasePrivate.sol\":158:4124  contract PhasePrivate is validateFuncs {\r... */\n  mstore(0x40, 0x80)\n    /* \"GitHub/contract-token-cryptoMonster/backend/shared/lib/structures.sol\":1152:1161  750000000 */\n  0x2cb41780\n    /* \"GitHub/contract-token-cryptoMonster/backend/shared/lib/structures.sol\":1123:1161  uint256 public tokenPrice_ = 750000000 */\n  0x02\n  sstore\n    /* \"GitHub/contract-token-cryptoMonster/backend/shared/lib/structures.sol\":1412:1418  100000 */\n  0x0186a0\n    /* \"GitHub/contract-token-cryptoMonster/backend/shared/lib/structures.sol\":1385:1418  uint public tokenAmount_ = 100000 */\n  0x03\n  sstore\n    /* \"GitHub/contract-token-cryptoMonster/backend/components/PhasePrivate.sol\":158:4124  contract PhasePrivate is validateFuncs {\r... */\n  callvalue\n  dup1\n  iszero\n  tag_1\n  jumpi\n  0x00\n  dup1\n  revert\ntag_1:\n  pop\n  dataSize(sub_0)\n  dup1\n  dataOffset(sub_0)\n  0x00\n  codecopy\n  0x00\n  return\nstop\n\nsub_0: assembly {\n        /* \"GitHub/contract-token-cryptoMonster/backend/components/PhasePrivate.sol\":158:4124  contract PhasePrivate is validateFuncs {\r... */\n      mstore(0x40, 0x80)\n      callvalue\n      dup1\n      iszero\n      tag_1\n      jumpi\n      0x00\n      dup1\n      revert\n    tag_1:\n      pop\n      jumpi(tag_2, lt(calldatasize, 0x04))\n      shr(0xe0, calldataload(0x00))\n      dup1\n      0x0691615d\n      eq\n      tag_3\n      jumpi\n      dup1\n      0x0761c8b9\n      eq\n      tag_4\n      jumpi\n      dup1\n      0x1d3eea35\n      eq\n      tag_5\n      jumpi\n      dup1\n      0x23b2265f\n      eq\n      tag_6\n      jumpi\n      dup1\n      0x2599d6d0\n      eq\n      tag_7\n      jumpi\n      dup1\n      0x686c4cea\n      eq\n      tag_8\n      jumpi\n      dup1\n      0x72f0d72b\n      eq\n      tag_9\n      jumpi\n      dup1\n      0x785963c3\n      eq\n      tag_10\n      jumpi\n      dup1\n      0x7f4b8df0\n      eq\n      tag_11\n      jumpi\n      dup1\n      0x7f89128f\n      eq\n      tag_12\n      jumpi\n      dup1\n      0x8aa7cc0b\n      eq\n      tag_13\n      jumpi\n      dup1\n      0x8e4f8c6b\n      eq\n      tag_14\n      jumpi\n      dup1\n      0x948942ad\n      eq\n      tag_15\n      jumpi\n      dup1\n      0x99067ede\n      eq\n      tag_16\n      jumpi\n      dup1\n      0xa678b65b\n      eq\n      tag_17\n      jumpi\n      dup1\n      0xb06cdc12\n      eq\n      tag_18\n      jumpi\n      dup1\n      0xc10e3911\n      eq\n      tag_19\n      jumpi\n      dup1\n      0xfc837259\n      eq\n      tag_20\n      jumpi\n    tag_2:\n      0x00\n      dup1\n      revert\n        /* \"GitHub/contract-token-cryptoMonster/backend/components/PhasePrivate.sol\":3110:3374  function startPrivatePhase () public onlyPrivateProvider {\r... */\n    tag_3:\n      tag_21\n      tag_22\n      jump\t// in\n    tag_21:\n      stop\n        /* \"GitHub/contract-token-cryptoMonster/backend/shared/lib/structures.sol\":1123:1161  uint256 public tokenPrice_ = 750000000 */\n    tag_4:\n      tag_23\n      sload(0x02)\n      dup2\n      jump\n    tag_23:\n      mload(0x40)\n        /* \"#utility.yul\":3594:3619   */\n      swap1\n      dup2\n      mstore\n        /* \"#utility.yul\":3582:3584   */\n      0x20\n        /* \"#utility.yul\":3567:3585   */\n      add\n        /* \"GitHub/contract-token-cryptoMonster/backend/shared/lib/structures.sol\":1123:1161  uint256 public tokenPrice_ = 750000000 */\n    tag_25:\n      mload(0x40)\n      dup1\n      swap2\n      sub\n      swap1\n      return\n        /* \"GitHub/contract-token-cryptoMonster/backend/components/PhasePrivate.sol\":2875:3013  function deviationApplication (address _userAdr) public onlyPrivateProvider {\r... */\n    tag_5:\n      tag_21\n      tag_28\n      calldatasize\n      0x04\n      tag_29\n      jump\t// in\n    tag_28:\n      tag_30\n      jump\t// in\n        /* \"GitHub/contract-token-cryptoMonster/backend/shared/lib/structures.sol\":2802:2866  mapping (address => structApplication) public strucApplications_ */\n    tag_6:\n      tag_31\n      tag_32\n      calldatasize\n      0x04\n      tag_29\n      jump\t// in\n    tag_32:\n      tag_33\n      jump\t// in\n    tag_31:\n      mload(0x40)\n      tag_25\n      swap6\n      swap5\n      swap4\n      swap3\n      swap2\n      swap1\n      tag_35\n      jump\t// in\n        /* \"GitHub/contract-token-cryptoMonster/backend/shared/helpers/helpresFunc.sol\":849:988  function getBalanceSeedToken (address _userAdr) public view returns (uint256) {\r... */\n    tag_7:\n      tag_23\n      tag_37\n      calldatasize\n      0x04\n      tag_29\n      jump\t// in\n    tag_37:\n      sub(shl(0xa0, 0x01), 0x01)\n        /* \"GitHub/contract-token-cryptoMonster/backend/shared/helpers/helpresFunc.sol\":945:967  structUsers_[_userAdr] */\n      and\n        /* \"GitHub/contract-token-cryptoMonster/backend/shared/helpers/helpresFunc.sol\":918:925  uint256 */\n      0x00\n        /* \"GitHub/contract-token-cryptoMonster/backend/shared/helpers/helpresFunc.sol\":945:967  structUsers_[_userAdr] */\n      swap1\n      dup2\n      mstore\n      0x20\n      dup2\n      swap1\n      mstore\n      0x40\n      swap1\n      keccak256\n        /* \"GitHub/contract-token-cryptoMonster/backend/shared/helpers/helpresFunc.sol\":945:980  structUsers_[_userAdr].balance_seed */\n      0x04\n      add\n      sload\n      swap1\n        /* \"GitHub/contract-token-cryptoMonster/backend/shared/helpers/helpresFunc.sol\":849:988  function getBalanceSeedToken (address _userAdr) public view returns (uint256) {\r... */\n      jump\n        /* \"GitHub/contract-token-cryptoMonster/backend/components/PhasePrivate.sol\":1861:2106  function getApplicationAmountAdr () public onlyPrivateProvider view returns (address[] memory) {\r... */\n    tag_8:\n      tag_40\n      tag_41\n      jump\t// in\n    tag_40:\n      mload(0x40)\n      tag_25\n      swap2\n      swap1\n      tag_43\n      jump\t// in\n        /* \"GitHub/contract-token-cryptoMonster/backend/shared/helpers/helpresFunc.sol\":1352:1495  function getBalancePublicToken (address _userAdr) public view returns (uint256) {\r... */\n    tag_9:\n      tag_23\n      tag_45\n      calldatasize\n      0x04\n      tag_29\n      jump\t// in\n    tag_45:\n      sub(shl(0xa0, 0x01), 0x01)\n        /* \"GitHub/contract-token-cryptoMonster/backend/shared/helpers/helpresFunc.sol\":1450:1472  structUsers_[_userAdr] */\n      and\n        /* \"GitHub/contract-token-cryptoMonster/backend/shared/helpers/helpresFunc.sol\":1423:1430  uint256 */\n      0x00\n        /* \"GitHub/contract-token-cryptoMonster/backend/shared/helpers/helpresFunc.sol\":1450:1472  structUsers_[_userAdr] */\n      swap1\n      dup2\n      mstore\n      0x20\n      dup2\n      swap1\n      mstore\n      0x40\n      swap1\n      keccak256\n        /* \"GitHub/contract-token-cryptoMonster/backend/shared/helpers/helpresFunc.sol\":1450:1487  structUsers_[_userAdr].balance_public */\n      0x06\n      add\n      sload\n      swap1\n        /* \"GitHub/contract-token-cryptoMonster/backend/shared/helpers/helpresFunc.sol\":1352:1495  function getBalancePublicToken (address _userAdr) public view returns (uint256) {\r... */\n      jump\n        /* \"GitHub/contract-token-cryptoMonster/backend/components/PhasePrivate.sol\":297:1747  function application(string memory _name, string memory _contactForCommunication, address _userAdr) public onlyUser {\r... */\n    tag_10:\n      tag_21\n      tag_49\n      calldatasize\n      0x04\n      tag_50\n      jump\t// in\n    tag_49:\n      tag_51\n      jump\t// in\n        /* \"GitHub/contract-token-cryptoMonster/backend/components/PhasePrivate.sol\":3469:3901  function endPrivatePhase () public onlyPrivateProvider {\r... */\n    tag_11:\n      tag_21\n      tag_53\n      jump\t// in\n        /* \"GitHub/contract-token-cryptoMonster/backend/shared/helpers/helpresFunc.sol\":632:742  function get_blackList() public onlyOwner view returns (address[] memory) {\r... */\n    tag_12:\n      tag_40\n      tag_55\n      jump\t// in\n        /* \"GitHub/contract-token-cryptoMonster/backend/components/PhasePrivate.sol\":4002:4121  function changeTokenAmountPricePrivate (uint _price) public onlyPrivateProvider {\r... */\n    tag_13:\n      tag_21\n      tag_58\n      calldatasize\n      0x04\n      tag_59\n      jump\t// in\n    tag_58:\n      tag_60\n      jump\t// in\n        /* \"GitHub/contract-token-cryptoMonster/backend/shared/helpers/helpresFunc.sol\":212:350  function get_keccak256(string memory _hash) public pure returns(bytes32) {\r... */\n    tag_14:\n      tag_23\n      tag_62\n      calldatasize\n      0x04\n      tag_63\n      jump\t// in\n    tag_62:\n      tag_64\n      jump\t// in\n        /* \"GitHub/contract-token-cryptoMonster/backend/shared/lib/structures.sol\":1385:1418  uint public tokenAmount_ = 100000 */\n    tag_15:\n      tag_23\n      sload(0x03)\n      dup2\n      jump\n        /* \"GitHub/contract-token-cryptoMonster/backend/shared/helpers/helpresFunc.sol\":1595:1706  function getBalanceEth(address adr) public view returns(uint256) {\r... */\n    tag_16:\n      tag_23\n      tag_71\n      calldatasize\n      0x04\n      tag_29\n      jump\t// in\n    tag_71:\n      sub(shl(0xa0, 0x01), 0x01)\n        /* \"GitHub/contract-token-cryptoMonster/backend/shared/helpers/helpresFunc.sol\":1678:1698  address(adr).balance */\n      and\n      balance\n      swap1\n        /* \"GitHub/contract-token-cryptoMonster/backend/shared/helpers/helpresFunc.sol\":1595:1706  function getBalanceEth(address adr) public view returns(uint256) {\r... */\n      jump\n        /* \"GitHub/contract-token-cryptoMonster/backend/components/PhasePrivate.sol\":2182:2791  function acceptApplication (address _userAdr) public onlyPrivateProvider {\r... */\n    tag_17:\n      tag_21\n      tag_75\n      calldatasize\n      0x04\n      tag_29\n      jump\t// in\n    tag_75:\n      tag_76\n      jump\t// in\n        /* \"GitHub/contract-token-cryptoMonster/backend/shared/helpers/helpresFunc.sol\":1098:1243  function getBalancePrivateToken (address _userAdr) public view returns (uint256) {\r... */\n    tag_18:\n      tag_23\n      tag_78\n      calldatasize\n      0x04\n      tag_29\n      jump\t// in\n    tag_78:\n      sub(shl(0xa0, 0x01), 0x01)\n        /* \"GitHub/contract-token-cryptoMonster/backend/shared/helpers/helpresFunc.sol\":1197:1219  structUsers_[_userAdr] */\n      and\n        /* \"GitHub/contract-token-cryptoMonster/backend/shared/helpers/helpresFunc.sol\":1170:1177  uint256 */\n      0x00\n        /* \"GitHub/contract-token-cryptoMonster/backend/shared/helpers/helpresFunc.sol\":1197:1219  structUsers_[_userAdr] */\n      swap1\n      dup2\n      mstore\n      0x20\n      dup2\n      swap1\n      mstore\n      0x40\n      swap1\n      keccak256\n        /* \"GitHub/contract-token-cryptoMonster/backend/shared/helpers/helpresFunc.sol\":1197:1235  structUsers_[_userAdr].balance_private */\n      0x05\n      add\n      sload\n      swap1\n        /* \"GitHub/contract-token-cryptoMonster/backend/shared/helpers/helpresFunc.sol\":1098:1243  function getBalancePrivateToken (address _userAdr) public view returns (uint256) {\r... */\n      jump\n        /* \"GitHub/contract-token-cryptoMonster/backend/shared/helpers/helpresFunc.sol\":426:554  function get_whiteList() public onlyOwnerAndPrivateProvider view returns (address[] memory) {\r... */\n    tag_19:\n      tag_40\n      tag_82\n      jump\t// in\n        /* \"GitHub/contract-token-cryptoMonster/backend/shared/lib/structures.sol\":836:887  mapping (address => structUser) public structUsers_ */\n    tag_20:\n      tag_84\n      tag_85\n      calldatasize\n      0x04\n      tag_29\n      jump\t// in\n    tag_85:\n      tag_86\n      jump\t// in\n    tag_84:\n      mload(0x40)\n      tag_25\n      swap8\n      swap7\n      swap6\n      swap5\n      swap4\n      swap3\n      swap2\n      swap1\n      tag_88\n      jump\t// in\n        /* \"GitHub/contract-token-cryptoMonster/backend/components/PhasePrivate.sol\":3110:3374  function startPrivatePhase () public onlyPrivateProvider {\r... */\n    tag_22:\n        /* \"GitHub/contract-token-cryptoMonster/backend/shared/helpers/modifireFunc.sol\":567:586  Role.SYSTEM_PRIVATE */\n      0x02\n        /* \"GitHub/contract-token-cryptoMonster/backend/shared/helpers/modifireFunc.sol\":547:557  msg.sender */\n      caller\n        /* \"GitHub/contract-token-cryptoMonster/backend/shared/helpers/modifireFunc.sol\":534:546  structUsers_ */\n      0x00\n        /* \"GitHub/contract-token-cryptoMonster/backend/shared/helpers/modifireFunc.sol\":534:558  structUsers_[msg.sender] */\n      swap1\n      dup2\n      mstore\n      0x20\n      dup2\n      swap1\n      mstore\n      0x40\n      swap1\n      keccak256\n        /* \"GitHub/contract-token-cryptoMonster/backend/shared/helpers/modifireFunc.sol\":534:563  structUsers_[msg.sender].role */\n      sload\n      0xff\n      and\n        /* \"GitHub/contract-token-cryptoMonster/backend/shared/helpers/modifireFunc.sol\":534:586  structUsers_[msg.sender].role == Role.SYSTEM_PRIVATE */\n      0x04\n      dup2\n      gt\n      iszero\n      tag_94\n      jumpi\n      tag_94\n      tag_92\n      jump\t// in\n    tag_94:\n      eq\n        /* \"GitHub/contract-token-cryptoMonster/backend/shared/helpers/modifireFunc.sol\":526:616  require(structUsers_[msg.sender].role == Role.SYSTEM_PRIVATE, \"Your not Private provider\") */\n      tag_95\n      jumpi\n      mload(0x40)\n      shl(0xe5, 0x461bcd)\n      dup2\n      mstore\n      0x04\n      add\n      tag_96\n      swap1\n      tag_97\n      jump\t// in\n    tag_96:\n      mload(0x40)\n      dup1\n      swap2\n      sub\n      swap1\n      revert\n    tag_95:\n        /* \"GitHub/contract-token-cryptoMonster/backend/components/PhasePrivate.sol\":3200:3210  msg.sender */\n      caller\n        /* \"GitHub/contract-token-cryptoMonster/backend/components/PhasePrivate.sol\":3186:3211  structPhases_[msg.sender] */\n      0x00\n      swap1\n      dup2\n      mstore\n        /* \"GitHub/contract-token-cryptoMonster/backend/components/PhasePrivate.sol\":3186:3199  structPhases_ */\n      0x04\n        /* \"GitHub/contract-token-cryptoMonster/backend/components/PhasePrivate.sol\":3186:3211  structPhases_[msg.sender] */\n      0x20\n      mstore\n      0x40\n      swap1\n      keccak256\n        /* \"GitHub/contract-token-cryptoMonster/backend/components/PhasePrivate.sol\":3186:3223  structPhases_[msg.sender].statusPhase */\n      sload\n      0xff\n      and\n        /* \"GitHub/contract-token-cryptoMonster/backend/components/PhasePrivate.sol\":3186:3232  structPhases_[msg.sender].statusPhase == false */\n      iszero\n      dup1\n      iszero\n        /* \"GitHub/contract-token-cryptoMonster/backend/components/PhasePrivate.sol\":3186:3279  structPhases_[msg.sender].statusPhase == false && structPhases_[msg.sender].reviewed == false */\n      tag_99\n      jumpi\n      pop\n        /* \"GitHub/contract-token-cryptoMonster/backend/components/PhasePrivate.sol\":3250:3260  msg.sender */\n      caller\n        /* \"GitHub/contract-token-cryptoMonster/backend/components/PhasePrivate.sol\":3236:3261  structPhases_[msg.sender] */\n      0x00\n      swap1\n      dup2\n      mstore\n        /* \"GitHub/contract-token-cryptoMonster/backend/components/PhasePrivate.sol\":3236:3249  structPhases_ */\n      0x04\n        /* \"GitHub/contract-token-cryptoMonster/backend/components/PhasePrivate.sol\":3236:3261  structPhases_[msg.sender] */\n      0x20\n      mstore\n      0x40\n      swap1\n      keccak256\n        /* \"GitHub/contract-token-cryptoMonster/backend/components/PhasePrivate.sol\":3236:3270  structPhases_[msg.sender].reviewed */\n      sload\n      0x0100\n      swap1\n      div\n      0xff\n      and\n        /* \"GitHub/contract-token-cryptoMonster/backend/components/PhasePrivate.sol\":3236:3279  structPhases_[msg.sender].reviewed == false */\n      iszero\n        /* \"GitHub/contract-token-cryptoMonster/backend/components/PhasePrivate.sol\":3186:3279  structPhases_[msg.sender].statusPhase == false && structPhases_[msg.sender].reviewed == false */\n    tag_99:\n        /* \"GitHub/contract-token-cryptoMonster/backend/components/PhasePrivate.sol\":3178:3304  require(structPhases_[msg.sender].statusPhase == false && structPhases_[msg.sender].reviewed == false, \"Phase already active\") */\n      tag_100\n      jumpi\n      mload(0x40)\n      shl(0xe5, 0x461bcd)\n      dup2\n      mstore\n        /* \"#utility.yul\":5297:5299   */\n      0x20\n        /* \"GitHub/contract-token-cryptoMonster/backend/components/PhasePrivate.sol\":3178:3304  require(structPhases_[msg.sender].statusPhase == false && structPhases_[msg.sender].reviewed == false, \"Phase already active\") */\n      0x04\n      dup3\n      add\n        /* \"#utility.yul\":5279:5300   */\n      mstore\n        /* \"#utility.yul\":5336:5338   */\n      0x14\n        /* \"#utility.yul\":5316:5334   */\n      0x24\n      dup3\n      add\n        /* \"#utility.yul\":5309:5339   */\n      mstore\n      shl(0x60, 0x506861736520616c726561647920616374697665)\n        /* \"#utility.yul\":5355:5373   */\n      0x44\n      dup3\n      add\n        /* \"#utility.yul\":5348:5398   */\n      mstore\n        /* \"#utility.yul\":5415:5433   */\n      0x64\n      add\n        /* \"GitHub/contract-token-cryptoMonster/backend/components/PhasePrivate.sol\":3178:3304  require(structPhases_[msg.sender].statusPhase == false && structPhases_[msg.sender].reviewed == false, \"Phase already active\") */\n      tag_96\n        /* \"#utility.yul\":5095:5439   */\n      jump\n        /* \"GitHub/contract-token-cryptoMonster/backend/components/PhasePrivate.sol\":3178:3304  require(structPhases_[msg.sender].statusPhase == false && structPhases_[msg.sender].reviewed == false, \"Phase already active\") */\n    tag_100:\n        /* \"GitHub/contract-token-cryptoMonster/backend/components/PhasePrivate.sol\":3343:3366  structPhase(true, true) */\n      0x40\n      dup1\n      mload\n      dup1\n      dup3\n      add\n      dup3\n      mstore\n        /* \"GitHub/contract-token-cryptoMonster/backend/components/PhasePrivate.sol\":3355:3359  true */\n      0x01\n        /* \"GitHub/contract-token-cryptoMonster/backend/components/PhasePrivate.sol\":3343:3366  structPhase(true, true) */\n      dup1\n      dup3\n      mstore\n      0x20\n      dup1\n      dup4\n      add\n      swap2\n      dup3\n      mstore\n        /* \"GitHub/contract-token-cryptoMonster/backend/components/PhasePrivate.sol\":3329:3339  msg.sender */\n      caller\n      0x00\n        /* \"GitHub/contract-token-cryptoMonster/backend/components/PhasePrivate.sol\":3315:3340  structPhases_[msg.sender] */\n      swap1\n      dup2\n      mstore\n        /* \"GitHub/contract-token-cryptoMonster/backend/components/PhasePrivate.sol\":3315:3328  structPhases_ */\n      0x04\n        /* \"GitHub/contract-token-cryptoMonster/backend/components/PhasePrivate.sol\":3315:3340  structPhases_[msg.sender] */\n      swap1\n      swap2\n      mstore\n      swap3\n      swap1\n      swap3\n      keccak256\n        /* \"GitHub/contract-token-cryptoMonster/backend/components/PhasePrivate.sol\":3315:3366  structPhases_[msg.sender] = structPhase(true, true) */\n      swap1\n      mload\n      dup2\n      sload\n      swap3\n      mload\n      not(0xffff)\n      swap1\n      swap4\n      and\n      swap1\n      iszero\n      iszero\n      not(0xff00)\n      and\n      or\n      0x0100\n      swap3\n      iszero\n      iszero\n      swap3\n      swap1\n      swap3\n      mul\n      swap2\n      swap1\n      swap2\n      or\n      swap1\n      sstore\n        /* \"GitHub/contract-token-cryptoMonster/backend/components/PhasePrivate.sol\":3110:3374  function startPrivatePhase () public onlyPrivateProvider {\r... */\n      jump\t// out\n        /* \"GitHub/contract-token-cryptoMonster/backend/components/PhasePrivate.sol\":2875:3013  function deviationApplication (address _userAdr) public onlyPrivateProvider {\r... */\n    tag_30:\n        /* \"GitHub/contract-token-cryptoMonster/backend/shared/helpers/modifireFunc.sol\":567:586  Role.SYSTEM_PRIVATE */\n      0x02\n        /* \"GitHub/contract-token-cryptoMonster/backend/shared/helpers/modifireFunc.sol\":547:557  msg.sender */\n      caller\n        /* \"GitHub/contract-token-cryptoMonster/backend/shared/helpers/modifireFunc.sol\":534:546  structUsers_ */\n      0x00\n        /* \"GitHub/contract-token-cryptoMonster/backend/shared/helpers/modifireFunc.sol\":534:558  structUsers_[msg.sender] */\n      swap1\n      dup2\n      mstore\n      0x20\n      dup2\n      swap1\n      mstore\n      0x40\n      swap1\n      keccak256\n        /* \"GitHub/contract-token-cryptoMonster/backend/shared/helpers/modifireFunc.sol\":534:563  structUsers_[msg.sender].role */\n      sload\n      0xff\n      and\n        /* \"GitHub/contract-token-cryptoMonster/backend/shared/helpers/modifireFunc.sol\":534:586  structUsers_[msg.sender].role == Role.SYSTEM_PRIVATE */\n      0x04\n      dup2\n      gt\n      iszero\n      tag_107\n      jumpi\n      tag_107\n      tag_92\n      jump\t// in\n    tag_107:\n      eq\n        /* \"GitHub/contract-token-cryptoMonster/backend/shared/helpers/modifireFunc.sol\":526:616  require(structUsers_[msg.sender].role == Role.SYSTEM_PRIVATE, \"Your not Private provider\") */\n      tag_108\n      jumpi\n      mload(0x40)\n      shl(0xe5, 0x461bcd)\n      dup2\n      mstore\n      0x04\n      add\n      tag_96\n      swap1\n      tag_97\n      jump\t// in\n    tag_108:\n      sub(shl(0xa0, 0x01), 0x01)\n        /* \"GitHub/contract-token-cryptoMonster/backend/components/PhasePrivate.sol\":2962:2990  strucApplications_[_userAdr] */\n      and\n        /* \"GitHub/contract-token-cryptoMonster/backend/components/PhasePrivate.sol\":3000:3005  false */\n      0x00\n        /* \"GitHub/contract-token-cryptoMonster/backend/components/PhasePrivate.sol\":2962:2990  strucApplications_[_userAdr] */\n      swap1\n      dup2\n      mstore\n        /* \"GitHub/contract-token-cryptoMonster/backend/components/PhasePrivate.sol\":2962:2980  strucApplications_ */\n      0x05\n        /* \"GitHub/contract-token-cryptoMonster/backend/components/PhasePrivate.sol\":2962:2990  strucApplications_[_userAdr] */\n      0x20\n      mstore\n      0x40\n      swap1\n      keccak256\n        /* \"GitHub/contract-token-cryptoMonster/backend/components/PhasePrivate.sol\":2962:2997  strucApplications_[_userAdr].status */\n      0x02\n      add\n        /* \"GitHub/contract-token-cryptoMonster/backend/components/PhasePrivate.sol\":2962:3005  strucApplications_[_userAdr].status = false */\n      dup1\n      sload\n      not(shl(0xa0, 0xff))\n      and\n      swap1\n      sstore\n        /* \"GitHub/contract-token-cryptoMonster/backend/components/PhasePrivate.sol\":2875:3013  function deviationApplication (address _userAdr) public onlyPrivateProvider {\r... */\n      jump\t// out\n        /* \"GitHub/contract-token-cryptoMonster/backend/shared/lib/structures.sol\":2802:2866  mapping (address => structApplication) public strucApplications_ */\n    tag_33:\n      mstore(0x20, 0x05)\n      0x00\n      swap1\n      dup2\n      mstore\n      0x40\n      swap1\n      keccak256\n      dup1\n      sload\n      dup2\n      swap1\n      tag_111\n      swap1\n      tag_112\n      jump\t// in\n    tag_111:\n      dup1\n      0x1f\n      add\n      0x20\n      dup1\n      swap2\n      div\n      mul\n      0x20\n      add\n      mload(0x40)\n      swap1\n      dup2\n      add\n      0x40\n      mstore\n      dup1\n      swap3\n      swap2\n      swap1\n      dup2\n      dup2\n      mstore\n      0x20\n      add\n      dup3\n      dup1\n      sload\n      tag_113\n      swap1\n      tag_112\n      jump\t// in\n    tag_113:\n      dup1\n      iszero\n      tag_114\n      jumpi\n      dup1\n      0x1f\n      lt\n      tag_115\n      jumpi\n      0x0100\n      dup1\n      dup4\n      sload\n      div\n      mul\n      dup4\n      mstore\n      swap2\n      0x20\n      add\n      swap2\n      jump(tag_114)\n    tag_115:\n      dup3\n      add\n      swap2\n      swap1\n      0x00\n      mstore\n      keccak256(0x00, 0x20)\n      swap1\n    tag_116:\n      dup2\n      sload\n      dup2\n      mstore\n      swap1\n      0x01\n      add\n      swap1\n      0x20\n      add\n      dup1\n      dup4\n      gt\n      tag_116\n      jumpi\n      dup3\n      swap1\n      sub\n      0x1f\n      and\n      dup3\n      add\n      swap2\n    tag_114:\n      pop\n      pop\n      pop\n      pop\n      pop\n      swap1\n      dup1\n      0x01\n      add\n      dup1\n      sload\n      tag_117\n      swap1\n      tag_112\n      jump\t// in\n    tag_117:\n      dup1\n      0x1f\n      add\n      0x20\n      dup1\n      swap2\n      div\n      mul\n      0x20\n      add\n      mload(0x40)\n      swap1\n      dup2\n      add\n      0x40\n      mstore\n      dup1\n      swap3\n      swap2\n      swap1\n      dup2\n      dup2\n      mstore\n      0x20\n      add\n      dup3\n      dup1\n      sload\n      tag_118\n      swap1\n      tag_112\n      jump\t// in\n    tag_118:\n      dup1\n      iszero\n      tag_119\n      jumpi\n      dup1\n      0x1f\n      lt\n      tag_120\n      jumpi\n      0x0100\n      dup1\n      dup4\n      sload\n      div\n      mul\n      dup4\n      mstore\n      swap2\n      0x20\n      add\n      swap2\n      jump(tag_119)\n    tag_120:\n      dup3\n      add\n      swap2\n      swap1\n      0x00\n      mstore\n      keccak256(0x00, 0x20)\n      swap1\n    tag_121:\n      dup2\n      sload\n      dup2\n      mstore\n      swap1\n      0x01\n      add\n      swap1\n      0x20\n      add\n      dup1\n      dup4\n      gt\n      tag_121\n      jumpi\n      dup3\n      swap1\n      sub\n      0x1f\n      and\n      dup3\n      add\n      swap2\n    tag_119:\n      pop\n      pop\n      pop\n      0x02\n      swap1\n      swap4\n      add\n      sload\n      swap2\n      swap3\n      pop\n      pop\n      sub(shl(0xa0, 0x01), 0x01)\n      dup2\n      and\n      swap1\n      0xff\n      shl(0xa0, 0x01)\n      dup3\n      div\n      dup2\n      and\n      swap2\n      shl(0xa8, 0x01)\n      swap1\n      div\n      and\n      dup6\n      jump\t// out\n        /* \"GitHub/contract-token-cryptoMonster/backend/components/PhasePrivate.sol\":1861:2106  function getApplicationAmountAdr () public onlyPrivateProvider view returns (address[] memory) {\r... */\n    tag_41:\n        /* \"GitHub/contract-token-cryptoMonster/backend/components/PhasePrivate.sol\":1938:1954  address[] memory */\n      0x60\n        /* \"GitHub/contract-token-cryptoMonster/backend/shared/helpers/modifireFunc.sol\":567:586  Role.SYSTEM_PRIVATE */\n      0x02\n        /* \"GitHub/contract-token-cryptoMonster/backend/shared/helpers/modifireFunc.sol\":547:557  msg.sender */\n      caller\n        /* \"GitHub/contract-token-cryptoMonster/backend/shared/helpers/modifireFunc.sol\":534:546  structUsers_ */\n      0x00\n        /* \"GitHub/contract-token-cryptoMonster/backend/shared/helpers/modifireFunc.sol\":534:558  structUsers_[msg.sender] */\n      swap1\n      dup2\n      mstore\n      0x20\n      dup2\n      swap1\n      mstore\n      0x40\n      swap1\n      keccak256\n        /* \"GitHub/contract-token-cryptoMonster/backend/shared/helpers/modifireFunc.sol\":534:563  structUsers_[msg.sender].role */\n      sload\n      0xff\n      and\n        /* \"GitHub/contract-token-cryptoMonster/backend/shared/helpers/modifireFunc.sol\":534:586  structUsers_[msg.sender].role == Role.SYSTEM_PRIVATE */\n      0x04\n      dup2\n      gt\n      iszero\n      tag_127\n      jumpi\n      tag_127\n      tag_92\n      jump\t// in\n    tag_127:\n      eq\n        /* \"GitHub/contract-token-cryptoMonster/backend/shared/helpers/modifireFunc.sol\":526:616  require(structUsers_[msg.sender].role == Role.SYSTEM_PRIVATE, \"Your not Private provider\") */\n      tag_128\n      jumpi\n      mload(0x40)\n      shl(0xe5, 0x461bcd)\n      dup2\n      mstore\n      0x04\n      add\n      tag_96\n      swap1\n      tag_97\n      jump\t// in\n    tag_128:\n        /* \"GitHub/contract-token-cryptoMonster/backend/components/PhasePrivate.sol\":1974:2001  structApplicationsAmountAdr */\n      0x06\n        /* \"GitHub/contract-token-cryptoMonster/backend/components/PhasePrivate.sol\":1967:2001  return structApplicationsAmountAdr */\n      dup1\n      sload\n      dup1\n      0x20\n      mul\n      0x20\n      add\n      mload(0x40)\n      swap1\n      dup2\n      add\n      0x40\n      mstore\n      dup1\n      swap3\n      swap2\n      swap1\n      dup2\n      dup2\n      mstore\n      0x20\n      add\n      dup3\n      dup1\n      sload\n      dup1\n      iszero\n      tag_131\n      jumpi\n      0x20\n      mul\n      dup3\n      add\n      swap2\n      swap1\n      0x00\n      mstore\n      keccak256(0x00, 0x20)\n      swap1\n    tag_132:\n      dup2\n      sload\n      sub(shl(0xa0, 0x01), 0x01)\n      and\n      dup2\n      mstore\n      0x01\n      swap1\n      swap2\n      add\n      swap1\n      0x20\n      add\n      dup1\n      dup4\n      gt\n      tag_132\n      jumpi\n    tag_131:\n      pop\n      pop\n      pop\n      pop\n      pop\n      swap1\n      pop\n        /* \"GitHub/contract-token-cryptoMonster/backend/components/PhasePrivate.sol\":1861:2106  function getApplicationAmountAdr () public onlyPrivateProvider view returns (address[] memory) {\r... */\n      swap1\n      jump\t// out\n        /* \"GitHub/contract-token-cryptoMonster/backend/components/PhasePrivate.sol\":297:1747  function application(string memory _name, string memory _contactForCommunication, address _userAdr) public onlyUser {\r... */\n    tag_51:\n        /* \"GitHub/contract-token-cryptoMonster/backend/shared/helpers/modifireFunc.sol\":1454:1464  msg.sender */\n      caller\n        /* \"GitHub/contract-token-cryptoMonster/backend/shared/helpers/modifireFunc.sol\":1474:1491  Role.SYSTEM_OWNER */\n      0x00\n        /* \"GitHub/contract-token-cryptoMonster/backend/shared/helpers/modifireFunc.sol\":1441:1465  structUsers_[msg.sender] */\n      swap1\n      dup2\n      mstore\n      0x20\n      dup2\n      swap1\n      mstore\n      0x40\n      dup2\n      keccak256\n        /* \"GitHub/contract-token-cryptoMonster/backend/shared/helpers/modifireFunc.sol\":1441:1470  structUsers_[msg.sender].role */\n      sload\n      0xff\n      and\n        /* \"GitHub/contract-token-cryptoMonster/backend/shared/helpers/modifireFunc.sol\":1441:1491  structUsers_[msg.sender].role != Role.SYSTEM_OWNER */\n      0x04\n      dup2\n      gt\n      iszero\n      tag_138\n      jumpi\n      tag_138\n      tag_92\n      jump\t// in\n    tag_138:\n      eq\n      iszero\n        /* \"GitHub/contract-token-cryptoMonster/backend/shared/helpers/modifireFunc.sol\":1441:1559  structUsers_[msg.sender].role != Role.SYSTEM_OWNER ||\r... */\n      dup1\n      tag_139\n      jumpi\n      pop\n        /* \"GitHub/contract-token-cryptoMonster/backend/shared/helpers/modifireFunc.sol\":1541:1559  Role.SYSTEM_PUBLIC */\n      0x01\n        /* \"GitHub/contract-token-cryptoMonster/backend/shared/helpers/modifireFunc.sol\":1521:1531  msg.sender */\n      caller\n        /* \"GitHub/contract-token-cryptoMonster/backend/shared/helpers/modifireFunc.sol\":1508:1520  structUsers_ */\n      0x00\n        /* \"GitHub/contract-token-cryptoMonster/backend/shared/helpers/modifireFunc.sol\":1508:1532  structUsers_[msg.sender] */\n      swap1\n      dup2\n      mstore\n      0x20\n      dup2\n      swap1\n      mstore\n      0x40\n      swap1\n      keccak256\n        /* \"GitHub/contract-token-cryptoMonster/backend/shared/helpers/modifireFunc.sol\":1508:1537  structUsers_[msg.sender].role */\n      sload\n      0xff\n      and\n        /* \"GitHub/contract-token-cryptoMonster/backend/shared/helpers/modifireFunc.sol\":1508:1559  structUsers_[msg.sender].role != Role.SYSTEM_PUBLIC */\n      0x04\n      dup2\n      gt\n      iszero\n      tag_143\n      jumpi\n      tag_143\n      tag_92\n      jump\t// in\n    tag_143:\n      eq\n      iszero\n        /* \"GitHub/contract-token-cryptoMonster/backend/shared/helpers/modifireFunc.sol\":1441:1559  structUsers_[msg.sender].role != Role.SYSTEM_OWNER ||\r... */\n    tag_139:\n        /* \"GitHub/contract-token-cryptoMonster/backend/shared/helpers/modifireFunc.sol\":1441:1628  structUsers_[msg.sender].role != Role.SYSTEM_OWNER ||\r... */\n      dup1\n      tag_144\n      jumpi\n      pop\n        /* \"GitHub/contract-token-cryptoMonster/backend/shared/helpers/modifireFunc.sol\":1609:1628  Role.SYSTEM_PRIVATE */\n      0x02\n        /* \"GitHub/contract-token-cryptoMonster/backend/shared/helpers/modifireFunc.sol\":1589:1599  msg.sender */\n      caller\n        /* \"GitHub/contract-token-cryptoMonster/backend/shared/helpers/modifireFunc.sol\":1576:1588  structUsers_ */\n      0x00\n        /* \"GitHub/contract-token-cryptoMonster/backend/shared/helpers/modifireFunc.sol\":1576:1600  structUsers_[msg.sender] */\n      swap1\n      dup2\n      mstore\n      0x20\n      dup2\n      swap1\n      mstore\n      0x40\n      swap1\n      keccak256\n        /* \"GitHub/contract-token-cryptoMonster/backend/shared/helpers/modifireFunc.sol\":1576:1605  structUsers_[msg.sender].role */\n      sload\n      0xff\n      and\n        /* \"GitHub/contract-token-cryptoMonster/backend/shared/helpers/modifireFunc.sol\":1576:1628  structUsers_[msg.sender].role != Role.SYSTEM_PRIVATE */\n      0x04\n      dup2\n      gt\n      iszero\n      tag_148\n      jumpi\n      tag_148\n      tag_92\n      jump\t// in\n    tag_148:\n      eq\n      iszero\n        /* \"GitHub/contract-token-cryptoMonster/backend/shared/helpers/modifireFunc.sol\":1441:1628  structUsers_[msg.sender].role != Role.SYSTEM_OWNER ||\r... */\n    tag_144:\n        /* \"GitHub/contract-token-cryptoMonster/backend/shared/helpers/modifireFunc.sol\":1441:1691  structUsers_[msg.sender].role != Role.SYSTEM_OWNER ||\r... */\n      dup1\n      tag_149\n      jumpi\n      pop\n        /* \"GitHub/contract-token-cryptoMonster/backend/shared/helpers/modifireFunc.sol\":1678:1691  Role.INVESTOR */\n      0x03\n        /* \"GitHub/contract-token-cryptoMonster/backend/shared/helpers/modifireFunc.sol\":1658:1668  msg.sender */\n      caller\n        /* \"GitHub/contract-token-cryptoMonster/backend/shared/helpers/modifireFunc.sol\":1645:1657  structUsers_ */\n      0x00\n        /* \"GitHub/contract-token-cryptoMonster/backend/shared/helpers/modifireFunc.sol\":1645:1669  structUsers_[msg.sender] */\n      swap1\n      dup2\n      mstore\n      0x20\n      dup2\n      swap1\n      mstore\n      0x40\n      swap1\n      keccak256\n        /* \"GitHub/contract-token-cryptoMonster/backend/shared/helpers/modifireFunc.sol\":1645:1674  structUsers_[msg.sender].role */\n      sload\n      0xff\n      and\n        /* \"GitHub/contract-token-cryptoMonster/backend/shared/helpers/modifireFunc.sol\":1645:1691  structUsers_[msg.sender].role != Role.INVESTOR */\n      0x04\n      dup2\n      gt\n      iszero\n      tag_153\n      jumpi\n      tag_153\n      tag_92\n      jump\t// in\n    tag_153:\n      eq\n      iszero\n        /* \"GitHub/contract-token-cryptoMonster/backend/shared/helpers/modifireFunc.sol\":1441:1691  structUsers_[msg.sender].role != Role.SYSTEM_OWNER ||\r... */\n    tag_149:\n        /* \"GitHub/contract-token-cryptoMonster/backend/shared/helpers/modifireFunc.sol\":1419:1756  require(\r... */\n      tag_154\n      jumpi\n      mload(0x40)\n      shl(0xe5, 0x461bcd)\n      dup2\n      mstore\n        /* \"#utility.yul\":6820:6822   */\n      0x20\n        /* \"GitHub/contract-token-cryptoMonster/backend/shared/helpers/modifireFunc.sol\":1419:1756  require(\r... */\n      0x04\n      dup3\n      add\n        /* \"#utility.yul\":6802:6823   */\n      mstore\n        /* \"#utility.yul\":6859:6861   */\n      0x32\n        /* \"#utility.yul\":6839:6857   */\n      0x24\n      dup3\n      add\n        /* \"#utility.yul\":6832:6862   */\n      mstore\n        /* \"#utility.yul\":6898:6932   */\n      0x4170706c69636174696f6e2063616e206f6e6c79206265207375626d69747465\n        /* \"#utility.yul\":6878:6896   */\n      0x44\n      dup3\n      add\n        /* \"#utility.yul\":6871:6933   */\n      mstore\n      shl(0x70, 0x6420627920726567756c6172207573657273)\n        /* \"#utility.yul\":6949:6967   */\n      0x64\n      dup3\n      add\n        /* \"#utility.yul\":6942:6990   */\n      mstore\n        /* \"#utility.yul\":7007:7026   */\n      0x84\n      add\n        /* \"GitHub/contract-token-cryptoMonster/backend/shared/helpers/modifireFunc.sol\":1419:1756  require(\r... */\n      tag_96\n        /* \"#utility.yul\":6618:7032   */\n      jump\n        /* \"GitHub/contract-token-cryptoMonster/backend/shared/helpers/modifireFunc.sol\":1419:1756  require(\r... */\n    tag_154:\n        /* \"GitHub/contract-token-cryptoMonster/backend/components/PhasePrivate.sol\":480:522  0xAb8483F64d9C6d1EcF9b849Ae677dD3315835cb2 */\n      0xab8483f64d9c6d1ecf9b849ae677dd3315835cb2\n        /* \"GitHub/contract-token-cryptoMonster/backend/components/PhasePrivate.sol\":424:439  bool _tempExist */\n      0x00\n        /* \"GitHub/contract-token-cryptoMonster/backend/components/PhasePrivate.sol\":466:523  structPhases_[0xAb8483F64d9C6d1EcF9b849Ae677dD3315835cb2] */\n      swap1\n      dup2\n      mstore\n        /* \"GitHub/contract-token-cryptoMonster/backend/components/PhasePrivate.sol\":466:479  structPhases_ */\n      0x04\n        /* \"GitHub/contract-token-cryptoMonster/backend/components/PhasePrivate.sol\":466:523  structPhases_[0xAb8483F64d9C6d1EcF9b849Ae677dD3315835cb2] */\n      0x20\n      mstore\n      0x00\n      dup1\n      mload\n      0x20\n      data_210f354537685f9e5e046d4cb2f76e07344954c6dc3e59ff15ac4b676d448167\n      dup4\n      codecopy\n      dup2\n      mload\n      swap2\n      mstore\n        /* \"GitHub/contract-token-cryptoMonster/backend/components/PhasePrivate.sol\":466:535  structPhases_[0xAb8483F64d9C6d1EcF9b849Ae677dD3315835cb2].statusPhase */\n      sload\n      0xff\n      and\n        /* \"GitHub/contract-token-cryptoMonster/backend/components/PhasePrivate.sol\":466:544  structPhases_[0xAb8483F64d9C6d1EcF9b849Ae677dD3315835cb2].statusPhase == false */\n      iszero\n      dup1\n      iszero\n        /* \"GitHub/contract-token-cryptoMonster/backend/components/PhasePrivate.sol\":466:626  structPhases_[0xAb8483F64d9C6d1EcF9b849Ae677dD3315835cb2].statusPhase == false && structPhases_[0xAb8483F64d9C6d1EcF9b849Ae677dD3315835cb2].statusPhase == false */\n      tag_158\n      jumpi\n      pop\n        /* \"GitHub/contract-token-cryptoMonster/backend/components/PhasePrivate.sol\":562:604  0xAb8483F64d9C6d1EcF9b849Ae677dD3315835cb2 */\n      0xab8483f64d9c6d1ecf9b849ae677dd3315835cb2\n        /* \"GitHub/contract-token-cryptoMonster/backend/components/PhasePrivate.sol\":548:605  structPhases_[0xAb8483F64d9C6d1EcF9b849Ae677dD3315835cb2] */\n      0x00\n      mstore\n        /* \"GitHub/contract-token-cryptoMonster/backend/components/PhasePrivate.sol\":548:561  structPhases_ */\n      0x04\n        /* \"GitHub/contract-token-cryptoMonster/backend/components/PhasePrivate.sol\":548:605  structPhases_[0xAb8483F64d9C6d1EcF9b849Ae677dD3315835cb2] */\n      0x20\n      mstore\n      0x00\n      dup1\n      mload\n      0x20\n      data_210f354537685f9e5e046d4cb2f76e07344954c6dc3e59ff15ac4b676d448167\n      dup4\n      codecopy\n      dup2\n      mload\n      swap2\n      mstore\n        /* \"GitHub/contract-token-cryptoMonster/backend/components/PhasePrivate.sol\":548:617  structPhases_[0xAb8483F64d9C6d1EcF9b849Ae677dD3315835cb2].statusPhase */\n      sload\n      0xff\n      and\n        /* \"GitHub/contract-token-cryptoMonster/backend/components/PhasePrivate.sol\":548:626  structPhases_[0xAb8483F64d9C6d1EcF9b849Ae677dD3315835cb2].statusPhase == false */\n      iszero\n        /* \"GitHub/contract-token-cryptoMonster/backend/components/PhasePrivate.sol\":466:626  structPhases_[0xAb8483F64d9C6d1EcF9b849Ae677dD3315835cb2].statusPhase == false && structPhases_[0xAb8483F64d9C6d1EcF9b849Ae677dD3315835cb2].statusPhase == false */\n    tag_158:\n        /* \"GitHub/contract-token-cryptoMonster/backend/components/PhasePrivate.sol\":458:654  require(structPhases_[0xAb8483F64d9C6d1EcF9b849Ae677dD3315835cb2].statusPhase == false && structPhases_[0xAb8483F64d9C6d1EcF9b849Ae677dD3315835cb2].statusPhase == false, \"Application phase ended\") */\n      tag_159\n      jumpi\n      mload(0x40)\n      shl(0xe5, 0x461bcd)\n      dup2\n      mstore\n        /* \"#utility.yul\":8297:8299   */\n      0x20\n        /* \"GitHub/contract-token-cryptoMonster/backend/components/PhasePrivate.sol\":458:654  require(structPhases_[0xAb8483F64d9C6d1EcF9b849Ae677dD3315835cb2].statusPhase == false && structPhases_[0xAb8483F64d9C6d1EcF9b849Ae677dD3315835cb2].statusPhase == false, \"Application phase ended\") */\n      0x04\n      dup3\n      add\n        /* \"#utility.yul\":8279:8300   */\n      mstore\n        /* \"#utility.yul\":8336:8338   */\n      0x17\n        /* \"#utility.yul\":8316:8334   */\n      0x24\n      dup3\n      add\n        /* \"#utility.yul\":8309:8339   */\n      mstore\n      shl(0x4a, 0x105c1c1b1a58d85d1a5bdb881c1a185cd948195b991959)\n        /* \"#utility.yul\":8355:8373   */\n      0x44\n      dup3\n      add\n        /* \"#utility.yul\":8348:8401   */\n      mstore\n        /* \"#utility.yul\":8418:8436   */\n      0x64\n      add\n        /* \"GitHub/contract-token-cryptoMonster/backend/components/PhasePrivate.sol\":458:654  require(structPhases_[0xAb8483F64d9C6d1EcF9b849Ae677dD3315835cb2].statusPhase == false && structPhases_[0xAb8483F64d9C6d1EcF9b849Ae677dD3315835cb2].statusPhase == false, \"Application phase ended\") */\n      tag_96\n        /* \"#utility.yul\":8095:8442   */\n      jump\n        /* \"GitHub/contract-token-cryptoMonster/backend/components/PhasePrivate.sol\":458:654  require(structPhases_[0xAb8483F64d9C6d1EcF9b849Ae677dD3315835cb2].statusPhase == false && structPhases_[0xAb8483F64d9C6d1EcF9b849Ae677dD3315835cb2].statusPhase == false, \"Application phase ended\") */\n    tag_159:\n        /* \"GitHub/contract-token-cryptoMonster/backend/components/PhasePrivate.sol\":778:788  msg.sender */\n      caller\n      sub(shl(0xa0, 0x01), 0x01)\n        /* \"GitHub/contract-token-cryptoMonster/backend/components/PhasePrivate.sol\":778:800  msg.sender == _userAdr */\n      dup4\n      and\n      eq\n        /* \"GitHub/contract-token-cryptoMonster/backend/components/PhasePrivate.sol\":770:860  require(msg.sender == _userAdr, \"You can't send an application to someone else's address\") */\n      tag_162\n      jumpi\n      mload(0x40)\n      shl(0xe5, 0x461bcd)\n      dup2\n      mstore\n        /* \"#utility.yul\":8649:8651   */\n      0x20\n        /* \"GitHub/contract-token-cryptoMonster/backend/components/PhasePrivate.sol\":770:860  require(msg.sender == _userAdr, \"You can't send an application to someone else's address\") */\n      0x04\n      dup3\n      add\n        /* \"#utility.yul\":8631:8652   */\n      mstore\n        /* \"#utility.yul\":8688:8690   */\n      0x37\n        /* \"#utility.yul\":8668:8686   */\n      0x24\n      dup3\n      add\n        /* \"#utility.yul\":8661:8691   */\n      mstore\n        /* \"#utility.yul\":8727:8761   */\n      0x596f752063616e27742073656e6420616e206170706c69636174696f6e20746f\n        /* \"#utility.yul\":8707:8725   */\n      0x44\n      dup3\n      add\n        /* \"#utility.yul\":8700:8762   */\n      mstore\n      shl(0x48, 0x20736f6d656f6e6520656c736527732061646472657373)\n        /* \"#utility.yul\":8778:8796   */\n      0x64\n      dup3\n      add\n        /* \"#utility.yul\":8771:8824   */\n      mstore\n        /* \"#utility.yul\":8841:8860   */\n      0x84\n      add\n        /* \"GitHub/contract-token-cryptoMonster/backend/components/PhasePrivate.sol\":770:860  require(msg.sender == _userAdr, \"You can't send an application to someone else's address\") */\n      tag_96\n        /* \"#utility.yul\":8447:8866   */\n      jump\n        /* \"GitHub/contract-token-cryptoMonster/backend/components/PhasePrivate.sol\":770:860  require(msg.sender == _userAdr, \"You can't send an application to someone else's address\") */\n    tag_162:\n        /* \"GitHub/contract-token-cryptoMonster/backend/components/PhasePrivate.sol\":876:882  uint i */\n      0x00\n        /* \"GitHub/contract-token-cryptoMonster/backend/components/PhasePrivate.sol\":871:1200  for (uint i = 0; i < structApplicationsAmountAdr.length; i++) {\r... */\n    tag_165:\n        /* \"GitHub/contract-token-cryptoMonster/backend/components/PhasePrivate.sol\":892:919  structApplicationsAmountAdr */\n      0x06\n        /* \"GitHub/contract-token-cryptoMonster/backend/components/PhasePrivate.sol\":892:926  structApplicationsAmountAdr.length */\n      sload\n        /* \"GitHub/contract-token-cryptoMonster/backend/components/PhasePrivate.sol\":888:926  i < structApplicationsAmountAdr.length */\n      dup2\n      lt\n        /* \"GitHub/contract-token-cryptoMonster/backend/components/PhasePrivate.sol\":871:1200  for (uint i = 0; i < structApplicationsAmountAdr.length; i++) {\r... */\n      iszero\n      tag_166\n      jumpi\n        /* \"GitHub/contract-token-cryptoMonster/backend/components/PhasePrivate.sol\":986:996  msg.sender */\n      caller\n      sub(shl(0xa0, 0x01), 0x01)\n        /* \"GitHub/contract-token-cryptoMonster/backend/components/PhasePrivate.sol\":952:996  structApplicationsAmountAdr[i] == msg.sender */\n      and\n        /* \"GitHub/contract-token-cryptoMonster/backend/components/PhasePrivate.sol\":952:979  structApplicationsAmountAdr */\n      0x06\n        /* \"GitHub/contract-token-cryptoMonster/backend/components/PhasePrivate.sol\":980:981  i */\n      dup3\n        /* \"GitHub/contract-token-cryptoMonster/backend/components/PhasePrivate.sol\":952:982  structApplicationsAmountAdr[i] */\n      dup2\n      sload\n      dup2\n      lt\n      tag_169\n      jumpi\n      tag_169\n      tag_170\n      jump\t// in\n    tag_169:\n      0x00\n      swap2\n      dup3\n      mstore\n      0x20\n      swap1\n      swap2\n      keccak256\n      add\n      sload\n      sub(shl(0xa0, 0x01), 0x01)\n      and\n        /* \"GitHub/contract-token-cryptoMonster/backend/components/PhasePrivate.sol\":952:996  structApplicationsAmountAdr[i] == msg.sender */\n      eq\n        /* \"GitHub/contract-token-cryptoMonster/backend/components/PhasePrivate.sol\":948:1050  if (structApplicationsAmountAdr[i] == msg.sender) {\r... */\n      iszero\n      tag_172\n      jumpi\n        /* \"GitHub/contract-token-cryptoMonster/backend/components/PhasePrivate.sol\":1030:1034  true */\n      0x01\n        /* \"GitHub/contract-token-cryptoMonster/backend/components/PhasePrivate.sol\":1017:1034  _tempExist = true */\n      swap2\n      pop\n        /* \"GitHub/contract-token-cryptoMonster/backend/components/PhasePrivate.sol\":948:1050  if (structApplicationsAmountAdr[i] == msg.sender) {\r... */\n    tag_172:\n        /* \"GitHub/contract-token-cryptoMonster/backend/components/PhasePrivate.sol\":1072:1091  _tempExist == false */\n      dup2\n      iszero\n        /* \"GitHub/contract-token-cryptoMonster/backend/components/PhasePrivate.sol\":1064:1120  require(_tempExist == false, \"Application already sent\") */\n      tag_173\n      jumpi\n      mload(0x40)\n      shl(0xe5, 0x461bcd)\n      dup2\n      mstore\n        /* \"#utility.yul\":5646:5648   */\n      0x20\n        /* \"GitHub/contract-token-cryptoMonster/backend/components/PhasePrivate.sol\":1064:1120  require(_tempExist == false, \"Application already sent\") */\n      0x04\n      dup3\n      add\n        /* \"#utility.yul\":5628:5649   */\n      mstore\n        /* \"#utility.yul\":5685:5687   */\n      0x18\n        /* \"#utility.yul\":5665:5683   */\n      0x24\n      dup3\n      add\n        /* \"#utility.yul\":5658:5688   */\n      mstore\n      shl(0x42, 0x105c1c1b1a58d85d1a5bdb88185b1c9958591e481cd95b9d)\n        /* \"#utility.yul\":5704:5722   */\n      0x44\n      dup3\n      add\n        /* \"#utility.yul\":5697:5751   */\n      mstore\n        /* \"#utility.yul\":5768:5786   */\n      0x64\n      add\n        /* \"GitHub/contract-token-cryptoMonster/backend/components/PhasePrivate.sol\":1064:1120  require(_tempExist == false, \"Application already sent\") */\n      tag_96\n        /* \"#utility.yul\":5444:5792   */\n      jump\n        /* \"GitHub/contract-token-cryptoMonster/backend/components/PhasePrivate.sol\":1064:1120  require(_tempExist == false, \"Application already sent\") */\n    tag_173:\n        /* \"GitHub/contract-token-cryptoMonster/backend/components/PhasePrivate.sol\":928:931  i++ */\n      dup1\n      tag_176\n      dup2\n      tag_177\n      jump\t// in\n    tag_176:\n      swap2\n      pop\n      pop\n        /* \"GitHub/contract-token-cryptoMonster/backend/components/PhasePrivate.sol\":871:1200  for (uint i = 0; i < structApplicationsAmountAdr.length; i++) {\r... */\n      jump(tag_165)\n    tag_166:\n      pop\n        /* \"GitHub/contract-token-cryptoMonster/backend/components/PhasePrivate.sol\":1237:1247  msg.sender */\n      caller\n        /* \"GitHub/contract-token-cryptoMonster/backend/components/PhasePrivate.sol\":1218:1248  strucApplications_[msg.sender] */\n      0x00\n      swap1\n      dup2\n      mstore\n        /* \"GitHub/contract-token-cryptoMonster/backend/components/PhasePrivate.sol\":1218:1236  strucApplications_ */\n      0x05\n        /* \"GitHub/contract-token-cryptoMonster/backend/components/PhasePrivate.sol\":1218:1248  strucApplications_[msg.sender] */\n      0x20\n      mstore\n      0x40\n      swap1\n      keccak256\n        /* \"GitHub/contract-token-cryptoMonster/backend/components/PhasePrivate.sol\":1218:1255  strucApplications_[msg.sender].status */\n      0x02\n      add\n      sload\n      shl(0xa0, 0x01)\n      swap1\n      div\n      0xff\n      and\n        /* \"GitHub/contract-token-cryptoMonster/backend/components/PhasePrivate.sol\":1218:1264  strucApplications_[msg.sender].status == false */\n      iszero\n        /* \"GitHub/contract-token-cryptoMonster/backend/components/PhasePrivate.sol\":1210:1311  require(strucApplications_[msg.sender].status == false, \"Your application has already been rejected\") */\n      tag_178\n      jumpi\n      mload(0x40)\n      shl(0xe5, 0x461bcd)\n      dup2\n      mstore\n        /* \"#utility.yul\":5999:6001   */\n      0x20\n        /* \"GitHub/contract-token-cryptoMonster/backend/components/PhasePrivate.sol\":1210:1311  require(strucApplications_[msg.sender].status == false, \"Your application has already been rejected\") */\n      0x04\n      dup3\n      add\n        /* \"#utility.yul\":5981:6002   */\n      mstore\n        /* \"#utility.yul\":6038:6040   */\n      0x2a\n        /* \"#utility.yul\":6018:6036   */\n      0x24\n      dup3\n      add\n        /* \"#utility.yul\":6011:6041   */\n      mstore\n        /* \"#utility.yul\":6077:6111   */\n      0x596f7572206170706c69636174696f6e2068617320616c726561647920626565\n        /* \"#utility.yul\":6057:6075   */\n      0x44\n      dup3\n      add\n        /* \"#utility.yul\":6050:6112   */\n      mstore\n      shl(0xb2, 0x1b881c995a9958dd1959)\n        /* \"#utility.yul\":6128:6146   */\n      0x64\n      dup3\n      add\n        /* \"#utility.yul\":6121:6161   */\n      mstore\n        /* \"#utility.yul\":6178:6197   */\n      0x84\n      add\n        /* \"GitHub/contract-token-cryptoMonster/backend/components/PhasePrivate.sol\":1210:1311  require(strucApplications_[msg.sender].status == false, \"Your application has already been rejected\") */\n      tag_96\n        /* \"#utility.yul\":5797:6203   */\n      jump\n        /* \"GitHub/contract-token-cryptoMonster/backend/components/PhasePrivate.sol\":1210:1311  require(strucApplications_[msg.sender].status == false, \"Your application has already been rejected\") */\n    tag_178:\n        /* \"GitHub/contract-token-cryptoMonster/backend/components/PhasePrivate.sol\":1421:1493  structApplication(_name, _contactForCommunication, _userAdr, true, true) */\n      0x40\n      dup1\n      mload\n      0xa0\n      dup2\n      add\n      dup3\n      mstore\n      dup6\n      dup2\n      mstore\n      0x20\n      dup1\n      dup3\n      add\n      dup7\n      swap1\n      mstore\n      sub(shl(0xa0, 0x01), 0x01)\n      dup6\n      and\n      dup3\n      dup5\n      add\n      mstore\n        /* \"GitHub/contract-token-cryptoMonster/backend/components/PhasePrivate.sol\":1482:1486  true */\n      0x01\n        /* \"GitHub/contract-token-cryptoMonster/backend/components/PhasePrivate.sol\":1421:1493  structApplication(_name, _contactForCommunication, _userAdr, true, true) */\n      0x60\n      dup4\n      add\n      dup2\n      swap1\n      mstore\n      0x80\n      dup4\n      add\n      mstore\n        /* \"GitHub/contract-token-cryptoMonster/backend/components/PhasePrivate.sol\":1406:1416  msg.sender */\n      caller\n      0x00\n        /* \"GitHub/contract-token-cryptoMonster/backend/components/PhasePrivate.sol\":1387:1417  strucApplications_[msg.sender] */\n      swap1\n      dup2\n      mstore\n        /* \"GitHub/contract-token-cryptoMonster/backend/components/PhasePrivate.sol\":1387:1405  strucApplications_ */\n      0x05\n        /* \"GitHub/contract-token-cryptoMonster/backend/components/PhasePrivate.sol\":1387:1417  strucApplications_[msg.sender] */\n      dup3\n      mstore\n      swap3\n      swap1\n      swap3\n      keccak256\n        /* \"GitHub/contract-token-cryptoMonster/backend/components/PhasePrivate.sol\":1387:1493  strucApplications_[msg.sender]  = structApplication(_name, _contactForCommunication, _userAdr, true, true) */\n      dup2\n      mload\n      dup1\n      mload\n        /* \"GitHub/contract-token-cryptoMonster/backend/components/PhasePrivate.sol\":1421:1493  structApplication(_name, _contactForCommunication, _userAdr, true, true) */\n      swap3\n      swap4\n        /* \"GitHub/contract-token-cryptoMonster/backend/components/PhasePrivate.sol\":1387:1417  strucApplications_[msg.sender] */\n      swap2\n      swap3\n        /* \"GitHub/contract-token-cryptoMonster/backend/components/PhasePrivate.sol\":1387:1493  strucApplications_[msg.sender]  = structApplication(_name, _contactForCommunication, _userAdr, true, true) */\n      tag_181\n      swap3\n        /* \"GitHub/contract-token-cryptoMonster/backend/components/PhasePrivate.sol\":1387:1417  strucApplications_[msg.sender] */\n      dup5\n      swap3\n        /* \"GitHub/contract-token-cryptoMonster/backend/components/PhasePrivate.sol\":1387:1493  strucApplications_[msg.sender]  = structApplication(_name, _contactForCommunication, _userAdr, true, true) */\n      add\n      swap1\n      tag_182\n      jump\t// in\n    tag_181:\n      pop\n      0x20\n      dup3\n      dup2\n      add\n      mload\n      dup1\n      mload\n      tag_183\n      swap3\n      0x01\n      dup6\n      add\n      swap3\n      add\n      swap1\n      tag_182\n      jump\t// in\n    tag_183:\n      pop\n      0x40\n      dup3\n      add\n      mload\n      0x02\n      swap1\n      swap2\n      add\n      dup1\n      sload\n      0x60\n      dup5\n      add\n      mload\n      0x80\n      swap1\n      swap5\n      add\n      mload\n      iszero\n      iszero\n      shl(0xa8, 0x01)\n      mul\n      not(shl(0xa8, 0xff))\n      swap5\n      iszero\n      iszero\n      shl(0xa0, 0x01)\n      mul\n      not(sub(shl(0xa8, 0x01), 0x01))\n      swap1\n      swap3\n      and\n      sub(shl(0xa0, 0x01), 0x01)\n      swap1\n      swap5\n      and\n      swap4\n      swap1\n      swap4\n      or\n      or\n      swap3\n      swap1\n      swap3\n      and\n      or\n      swap1\n      sstore\n      pop\n      pop\n        /* \"GitHub/contract-token-cryptoMonster/backend/components/PhasePrivate.sol\":1562:1589  structApplicationsAmountAdr */\n      0x06\n        /* \"GitHub/contract-token-cryptoMonster/backend/components/PhasePrivate.sol\":1562:1606  structApplicationsAmountAdr.push(msg.sender) */\n      dup1\n      sload\n        /* \"GitHub/contract-token-cryptoMonster/backend/components/PhasePrivate.sol\":1387:1493  strucApplications_[msg.sender]  = structApplication(_name, _contactForCommunication, _userAdr, true, true) */\n      0x01\n        /* \"GitHub/contract-token-cryptoMonster/backend/components/PhasePrivate.sol\":1562:1606  structApplicationsAmountAdr.push(msg.sender) */\n      dup2\n      add\n      dup3\n      sstore\n        /* \"GitHub/contract-token-cryptoMonster/backend/components/PhasePrivate.sol\":1387:1493  strucApplications_[msg.sender]  = structApplication(_name, _contactForCommunication, _userAdr, true, true) */\n      0x00\n        /* \"GitHub/contract-token-cryptoMonster/backend/components/PhasePrivate.sol\":1562:1606  structApplicationsAmountAdr.push(msg.sender) */\n      swap2\n      swap1\n      swap2\n      mstore\n      0x00\n      dup1\n      mload\n      0x20\n      data_b868bdfa8727775661e4ccf117824a175a33f8703d728c04488fbfffcafda9f9\n      dup4\n      codecopy\n      dup2\n      mload\n      swap2\n      mstore\n      add\n      dup1\n      sload\n      not(sub(shl(0xa0, 0x01), 0x01))\n      and\n        /* \"GitHub/contract-token-cryptoMonster/backend/components/PhasePrivate.sol\":1595:1605  msg.sender */\n      caller\n        /* \"GitHub/contract-token-cryptoMonster/backend/components/PhasePrivate.sol\":1562:1606  structApplicationsAmountAdr.push(msg.sender) */\n      or\n      swap1\n      sstore\n      pop\n      pop\n        /* \"GitHub/contract-token-cryptoMonster/backend/components/PhasePrivate.sol\":297:1747  function application(string memory _name, string memory _contactForCommunication, address _userAdr) public onlyUser {\r... */\n      jump\t// out\n        /* \"GitHub/contract-token-cryptoMonster/backend/components/PhasePrivate.sol\":3469:3901  function endPrivatePhase () public onlyPrivateProvider {\r... */\n    tag_53:\n        /* \"GitHub/contract-token-cryptoMonster/backend/shared/helpers/modifireFunc.sol\":567:586  Role.SYSTEM_PRIVATE */\n      0x02\n        /* \"GitHub/contract-token-cryptoMonster/backend/shared/helpers/modifireFunc.sol\":547:557  msg.sender */\n      caller\n        /* \"GitHub/contract-token-cryptoMonster/backend/shared/helpers/modifireFunc.sol\":534:546  structUsers_ */\n      0x00\n        /* \"GitHub/contract-token-cryptoMonster/backend/shared/helpers/modifireFunc.sol\":534:558  structUsers_[msg.sender] */\n      swap1\n      dup2\n      mstore\n      0x20\n      dup2\n      swap1\n      mstore\n      0x40\n      swap1\n      keccak256\n        /* \"GitHub/contract-token-cryptoMonster/backend/shared/helpers/modifireFunc.sol\":534:563  structUsers_[msg.sender].role */\n      sload\n      0xff\n      and\n        /* \"GitHub/contract-token-cryptoMonster/backend/shared/helpers/modifireFunc.sol\":534:586  structUsers_[msg.sender].role == Role.SYSTEM_PRIVATE */\n      0x04\n      dup2\n      gt\n      iszero\n      tag_189\n      jumpi\n      tag_189\n      tag_92\n      jump\t// in\n    tag_189:\n      eq\n        /* \"GitHub/contract-token-cryptoMonster/backend/shared/helpers/modifireFunc.sol\":526:616  require(structUsers_[msg.sender].role == Role.SYSTEM_PRIVATE, \"Your not Private provider\") */\n      tag_190\n      jumpi\n      mload(0x40)\n      shl(0xe5, 0x461bcd)\n      dup2\n      mstore\n      0x04\n      add\n      tag_96\n      swap1\n      tag_97\n      jump\t// in\n    tag_190:\n        /* \"GitHub/contract-token-cryptoMonster/backend/components/PhasePrivate.sol\":3557:3567  msg.sender */\n      caller\n        /* \"GitHub/contract-token-cryptoMonster/backend/components/PhasePrivate.sol\":3543:3568  structPhases_[msg.sender] */\n      0x00\n      swap1\n      dup2\n      mstore\n        /* \"GitHub/contract-token-cryptoMonster/backend/components/PhasePrivate.sol\":3543:3556  structPhases_ */\n      0x04\n        /* \"GitHub/contract-token-cryptoMonster/backend/components/PhasePrivate.sol\":3543:3568  structPhases_[msg.sender] */\n      0x20\n      mstore\n      0x40\n      swap1\n      keccak256\n        /* \"GitHub/contract-token-cryptoMonster/backend/components/PhasePrivate.sol\":3543:3580  structPhases_[msg.sender].statusPhase */\n      sload\n      0xff\n      and\n        /* \"GitHub/contract-token-cryptoMonster/backend/components/PhasePrivate.sol\":3543:3588  structPhases_[msg.sender].statusPhase == true */\n      iszero\n      iszero\n        /* \"GitHub/contract-token-cryptoMonster/backend/components/PhasePrivate.sol\":3543:3580  structPhases_[msg.sender].statusPhase */\n      0x01\n        /* \"GitHub/contract-token-cryptoMonster/backend/components/PhasePrivate.sol\":3543:3588  structPhases_[msg.sender].statusPhase == true */\n      eq\n        /* \"GitHub/contract-token-cryptoMonster/backend/components/PhasePrivate.sol\":3543:3634  structPhases_[msg.sender].statusPhase == true && structPhases_[msg.sender].reviewed == true */\n      dup1\n      iszero\n      tag_193\n      jumpi\n      pop\n        /* \"GitHub/contract-token-cryptoMonster/backend/components/PhasePrivate.sol\":3606:3616  msg.sender */\n      caller\n        /* \"GitHub/contract-token-cryptoMonster/backend/components/PhasePrivate.sol\":3592:3617  structPhases_[msg.sender] */\n      0x00\n      swap1\n      dup2\n      mstore\n        /* \"GitHub/contract-token-cryptoMonster/backend/components/PhasePrivate.sol\":3592:3605  structPhases_ */\n      0x04\n        /* \"GitHub/contract-token-cryptoMonster/backend/components/PhasePrivate.sol\":3592:3617  structPhases_[msg.sender] */\n      0x20\n      mstore\n      0x40\n      swap1\n      keccak256\n        /* \"GitHub/contract-token-cryptoMonster/backend/components/PhasePrivate.sol\":3592:3626  structPhases_[msg.sender].reviewed */\n      sload\n      0xff\n      0x0100\n      swap1\n      swap2\n      div\n      and\n        /* \"GitHub/contract-token-cryptoMonster/backend/components/PhasePrivate.sol\":3592:3634  structPhases_[msg.sender].reviewed == true */\n      iszero\n      iszero\n        /* \"GitHub/contract-token-cryptoMonster/backend/components/PhasePrivate.sol\":3592:3626  structPhases_[msg.sender].reviewed */\n      0x01\n        /* \"GitHub/contract-token-cryptoMonster/backend/components/PhasePrivate.sol\":3592:3634  structPhases_[msg.sender].reviewed == true */\n      eq\n        /* \"GitHub/contract-token-cryptoMonster/backend/components/PhasePrivate.sol\":3543:3634  structPhases_[msg.sender].statusPhase == true && structPhases_[msg.sender].reviewed == true */\n    tag_193:\n        /* \"GitHub/contract-token-cryptoMonster/backend/components/PhasePrivate.sol\":3535:3671  require(structPhases_[msg.sender].statusPhase == true && structPhases_[msg.sender].reviewed == true, \"Phase has not yet been activated\") */\n      tag_194\n      jumpi\n      mload(0x40)\n      shl(0xe5, 0x461bcd)\n      dup2\n      mstore\n        /* \"#utility.yul\":7239:7241   */\n      0x20\n        /* \"GitHub/contract-token-cryptoMonster/backend/components/PhasePrivate.sol\":3535:3671  require(structPhases_[msg.sender].statusPhase == true && structPhases_[msg.sender].reviewed == true, \"Phase has not yet been activated\") */\n      0x04\n      dup3\n      add\n        /* \"#utility.yul\":7221:7242   */\n      dup2\n      swap1\n      mstore\n        /* \"#utility.yul\":7258:7276   */\n      0x24\n      dup3\n      add\n        /* \"#utility.yul\":7251:7281   */\n      mstore\n        /* \"#utility.yul\":7317:7351   */\n      0x506861736520686173206e6f7420796574206265656e20616374697661746564\n        /* \"#utility.yul\":7297:7315   */\n      0x44\n      dup3\n      add\n        /* \"#utility.yul\":7290:7352   */\n      mstore\n        /* \"#utility.yul\":7369:7387   */\n      0x64\n      add\n        /* \"GitHub/contract-token-cryptoMonster/backend/components/PhasePrivate.sol\":3535:3671  require(structPhases_[msg.sender].statusPhase == true && structPhases_[msg.sender].reviewed == true, \"Phase has not yet been activated\") */\n      tag_96\n        /* \"#utility.yul\":7037:7393   */\n      jump\n        /* \"GitHub/contract-token-cryptoMonster/backend/components/PhasePrivate.sol\":3535:3671  require(structPhases_[msg.sender].statusPhase == true && structPhases_[msg.sender].reviewed == true, \"Phase has not yet been activated\") */\n    tag_194:\n        /* \"GitHub/contract-token-cryptoMonster/backend/components/PhasePrivate.sol\":3710:3734  structPhase(false, true) */\n      0x40\n      dup1\n      mload\n      dup1\n      dup3\n      add\n      dup3\n      mstore\n      0x00\n      dup1\n      dup3\n      mstore\n      0x01\n      0x20\n      dup1\n      dup5\n      add\n      dup3\n      dup2\n      mstore\n        /* \"GitHub/contract-token-cryptoMonster/backend/components/PhasePrivate.sol\":3696:3706  msg.sender */\n      caller\n        /* \"GitHub/contract-token-cryptoMonster/backend/components/PhasePrivate.sol\":3682:3707  structPhases_[msg.sender] */\n      dup5\n      mstore\n        /* \"GitHub/contract-token-cryptoMonster/backend/components/PhasePrivate.sol\":3682:3695  structPhases_ */\n      0x04\n        /* \"GitHub/contract-token-cryptoMonster/backend/components/PhasePrivate.sol\":3682:3707  structPhases_[msg.sender] */\n      dup1\n      dup4\n      mstore\n      dup7\n      dup6\n      keccak256\n        /* \"GitHub/contract-token-cryptoMonster/backend/components/PhasePrivate.sol\":3682:3734  structPhases_[msg.sender] = structPhase(false, true) */\n      swap6\n      mload\n      dup7\n      sload\n      swap3\n      mload\n      iszero\n      iszero\n      0x0100\n      swap1\n      dup2\n      mul\n      not(0xff00)\n      swap3\n      iszero\n      iszero\n      dup4\n      and\n      not(0xffff)\n      swap6\n      dup7\n      and\n      or\n      or\n      swap1\n      swap8\n      sstore\n        /* \"GitHub/contract-token-cryptoMonster/backend/components/PhasePrivate.sol\":3805:3828  structPhase(true, true) */\n      dup8\n      mload\n      dup1\n      dup10\n      add\n      swap1\n      swap9\n      mstore\n      dup5\n      dup9\n      mstore\n      dup8\n      dup5\n      add\n      swap5\n      dup6\n      mstore\n        /* \"GitHub/contract-token-cryptoMonster/backend/components/PhasePrivate.sol\":3759:3801  0x4B20993Bc481177ec7E8f571ceCaE8A9e22C02db */\n      0x4b20993bc481177ec7e8f571cecae8a9e22c02db\n        /* \"GitHub/contract-token-cryptoMonster/backend/components/PhasePrivate.sol\":3745:3802  structPhases_[0x4B20993Bc481177ec7E8f571ceCaE8A9e22C02db] */\n      swap1\n      swap6\n      mstore\n      swap1\n      swap2\n      mstore\n        /* \"GitHub/contract-token-cryptoMonster/backend/components/PhasePrivate.sol\":3745:3828  structPhases_[0x4B20993Bc481177ec7E8f571ceCaE8A9e22C02db] = structPhase(true, true) */\n      swap4\n      mload\n        /* \"GitHub/contract-token-cryptoMonster/backend/components/PhasePrivate.sol\":3745:3802  structPhases_[0x4B20993Bc481177ec7E8f571ceCaE8A9e22C02db] */\n      0xb9fe4b740977877e3fa94e7f3dbf51ffcc3fb0449ed024e5d3849f3210d56220\n        /* \"GitHub/contract-token-cryptoMonster/backend/components/PhasePrivate.sol\":3745:3828  structPhases_[0x4B20993Bc481177ec7E8f571ceCaE8A9e22C02db] = structPhase(true, true) */\n      dup1\n      sload\n      swap3\n      mload\n      iszero\n      iszero\n      swap1\n      swap5\n      mul\n      swap1\n      iszero\n      iszero\n      swap1\n      swap3\n      and\n      swap4\n      and\n      swap3\n      swap1\n      swap3\n      or\n      swap2\n      swap1\n      swap2\n      or\n      swap1\n      sstore\n        /* \"GitHub/contract-token-cryptoMonster/backend/components/PhasePrivate.sol\":3853:3863  1000000000 */\n      0x3b9aca00\n        /* \"GitHub/contract-token-cryptoMonster/backend/components/PhasePrivate.sol\":3839:3850  tokenPrice_ */\n      0x02\n        /* \"GitHub/contract-token-cryptoMonster/backend/components/PhasePrivate.sol\":3839:3863  tokenPrice_ = 1000000000 */\n      sstore\n        /* \"GitHub/contract-token-cryptoMonster/backend/components/PhasePrivate.sol\":3889:3893  5000 */\n      0x1388\n        /* \"GitHub/contract-token-cryptoMonster/backend/components/PhasePrivate.sol\":3874:3886  tokenAmount_ */\n      0x03\n        /* \"GitHub/contract-token-cryptoMonster/backend/components/PhasePrivate.sol\":3874:3893  tokenAmount_ = 5000 */\n      sstore\n        /* \"GitHub/contract-token-cryptoMonster/backend/components/PhasePrivate.sol\":3469:3901  function endPrivatePhase () public onlyPrivateProvider {\r... */\n      jump\t// out\n        /* \"GitHub/contract-token-cryptoMonster/backend/shared/helpers/helpresFunc.sol\":632:742  function get_blackList() public onlyOwner view returns (address[] memory) {\r... */\n    tag_55:\n        /* \"GitHub/contract-token-cryptoMonster/backend/shared/helpers/helpresFunc.sol\":688:704  address[] memory */\n      0x60\n        /* \"GitHub/contract-token-cryptoMonster/backend/shared/helpers/modifireFunc.sol\":320:337  Role.SYSTEM_OWNER */\n      0x00\n        /* \"GitHub/contract-token-cryptoMonster/backend/shared/helpers/modifireFunc.sol\":300:310  msg.sender */\n      caller\n        /* \"GitHub/contract-token-cryptoMonster/backend/shared/helpers/modifireFunc.sol\":287:299  structUsers_ */\n      0x00\n        /* \"GitHub/contract-token-cryptoMonster/backend/shared/helpers/modifireFunc.sol\":287:311  structUsers_[msg.sender] */\n      swap1\n      dup2\n      mstore\n      0x20\n      dup2\n      swap1\n      mstore\n      0x40\n      swap1\n      keccak256\n        /* \"GitHub/contract-token-cryptoMonster/backend/shared/helpers/modifireFunc.sol\":287:316  structUsers_[msg.sender].role */\n      sload\n      0xff\n      and\n        /* \"GitHub/contract-token-cryptoMonster/backend/shared/helpers/modifireFunc.sol\":287:337  structUsers_[msg.sender].role == Role.SYSTEM_OWNER */\n      0x04\n      dup2\n      gt\n      iszero\n      tag_201\n      jumpi\n      tag_201\n      tag_92\n      jump\t// in\n    tag_201:\n      eq\n        /* \"GitHub/contract-token-cryptoMonster/backend/shared/helpers/modifireFunc.sol\":279:356  require(structUsers_[msg.sender].role == Role.SYSTEM_OWNER, \"Your not admin\") */\n      tag_202\n      jumpi\n      mload(0x40)\n      shl(0xe5, 0x461bcd)\n      dup2\n      mstore\n        /* \"#utility.yul\":7600:7602   */\n      0x20\n        /* \"GitHub/contract-token-cryptoMonster/backend/shared/helpers/modifireFunc.sol\":279:356  require(structUsers_[msg.sender].role == Role.SYSTEM_OWNER, \"Your not admin\") */\n      0x04\n      dup3\n      add\n        /* \"#utility.yul\":7582:7603   */\n      mstore\n        /* \"#utility.yul\":7639:7641   */\n      0x0e\n        /* \"#utility.yul\":7619:7637   */\n      0x24\n      dup3\n      add\n        /* \"#utility.yul\":7612:7642   */\n      mstore\n      shl(0x91, 0x2cb7bab9103737ba1030b236b4b7)\n        /* \"#utility.yul\":7658:7676   */\n      0x44\n      dup3\n      add\n        /* \"#utility.yul\":7651:7695   */\n      mstore\n        /* \"#utility.yul\":7712:7730   */\n      0x64\n      add\n        /* \"GitHub/contract-token-cryptoMonster/backend/shared/helpers/modifireFunc.sol\":279:356  require(structUsers_[msg.sender].role == Role.SYSTEM_OWNER, \"Your not admin\") */\n      tag_96\n        /* \"#utility.yul\":7398:7736   */\n      jump\n        /* \"GitHub/contract-token-cryptoMonster/backend/shared/helpers/modifireFunc.sol\":279:356  require(structUsers_[msg.sender].role == Role.SYSTEM_OWNER, \"Your not admin\") */\n    tag_202:\n        /* \"GitHub/contract-token-cryptoMonster/backend/shared/helpers/helpresFunc.sol\":724:733  blackList */\n      0x08\n        /* \"GitHub/contract-token-cryptoMonster/backend/shared/helpers/helpresFunc.sol\":717:734  return(blackList) */\n      dup1\n      sload\n      dup1\n      0x20\n      mul\n      0x20\n      add\n      mload(0x40)\n      swap1\n      dup2\n      add\n      0x40\n      mstore\n      dup1\n      swap3\n      swap2\n      swap1\n      dup2\n      dup2\n      mstore\n      0x20\n      add\n      dup3\n      dup1\n      sload\n      dup1\n      iszero\n      tag_131\n      jumpi\n      0x20\n      mul\n      dup3\n      add\n      swap2\n      swap1\n      0x00\n      mstore\n      keccak256(0x00, 0x20)\n      swap1\n      dup2\n      sload\n      sub(shl(0xa0, 0x01), 0x01)\n      and\n      dup2\n      mstore\n      0x01\n      swap1\n      swap2\n      add\n      swap1\n      0x20\n      add\n      dup1\n      dup4\n      gt\n      tag_132\n      jumpi\n      pop\n      pop\n      pop\n      pop\n      pop\n      swap1\n      pop\n        /* \"GitHub/contract-token-cryptoMonster/backend/shared/helpers/helpresFunc.sol\":632:742  function get_blackList() public onlyOwner view returns (address[] memory) {\r... */\n      swap1\n      jump\t// out\n        /* \"GitHub/contract-token-cryptoMonster/backend/components/PhasePrivate.sol\":4002:4121  function changeTokenAmountPricePrivate (uint _price) public onlyPrivateProvider {\r... */\n    tag_60:\n        /* \"GitHub/contract-token-cryptoMonster/backend/shared/helpers/modifireFunc.sol\":567:586  Role.SYSTEM_PRIVATE */\n      0x02\n        /* \"GitHub/contract-token-cryptoMonster/backend/shared/helpers/modifireFunc.sol\":547:557  msg.sender */\n      caller\n        /* \"GitHub/contract-token-cryptoMonster/backend/shared/helpers/modifireFunc.sol\":534:546  structUsers_ */\n      0x00\n        /* \"GitHub/contract-token-cryptoMonster/backend/shared/helpers/modifireFunc.sol\":534:558  structUsers_[msg.sender] */\n      swap1\n      dup2\n      mstore\n      0x20\n      dup2\n      swap1\n      mstore\n      0x40\n      swap1\n      keccak256\n        /* \"GitHub/contract-token-cryptoMonster/backend/shared/helpers/modifireFunc.sol\":534:563  structUsers_[msg.sender].role */\n      sload\n      0xff\n      and\n        /* \"GitHub/contract-token-cryptoMonster/backend/shared/helpers/modifireFunc.sol\":534:586  structUsers_[msg.sender].role == Role.SYSTEM_PRIVATE */\n      0x04\n      dup2\n      gt\n      iszero\n      tag_212\n      jumpi\n      tag_212\n      tag_92\n      jump\t// in\n    tag_212:\n      eq\n        /* \"GitHub/contract-token-cryptoMonster/backend/shared/helpers/modifireFunc.sol\":526:616  require(structUsers_[msg.sender].role == Role.SYSTEM_PRIVATE, \"Your not Private provider\") */\n      tag_213\n      jumpi\n      mload(0x40)\n      shl(0xe5, 0x461bcd)\n      dup2\n      mstore\n      0x04\n      add\n      tag_96\n      swap1\n      tag_97\n      jump\t// in\n    tag_213:\n        /* \"GitHub/contract-token-cryptoMonster/backend/components/PhasePrivate.sol\":4093:4104  tokenPrice_ */\n      0x02\n        /* \"GitHub/contract-token-cryptoMonster/backend/components/PhasePrivate.sol\":4093:4113  tokenPrice_ = _price */\n      sstore\n        /* \"GitHub/contract-token-cryptoMonster/backend/components/PhasePrivate.sol\":4002:4121  function changeTokenAmountPricePrivate (uint _price) public onlyPrivateProvider {\r... */\n      jump\t// out\n        /* \"GitHub/contract-token-cryptoMonster/backend/shared/helpers/helpresFunc.sol\":212:350  function get_keccak256(string memory _hash) public pure returns(bytes32) {\r... */\n    tag_64:\n        /* \"GitHub/contract-token-cryptoMonster/backend/shared/helpers/helpresFunc.sol\":276:283  bytes32 */\n      0x00\n        /* \"GitHub/contract-token-cryptoMonster/backend/shared/helpers/helpresFunc.sol\":334:339  _hash */\n      dup2\n        /* \"GitHub/contract-token-cryptoMonster/backend/shared/helpers/helpresFunc.sol\":317:340  abi.encodePacked(_hash) */\n      add(0x20, mload(0x40))\n      tag_217\n      swap2\n      swap1\n      tag_218\n      jump\t// in\n    tag_217:\n      mload(0x40)\n      0x20\n      dup2\n      dup4\n      sub\n      sub\n      dup2\n      mstore\n      swap1\n      0x40\n      mstore\n        /* \"GitHub/contract-token-cryptoMonster/backend/shared/helpers/helpresFunc.sol\":307:341  keccak256(abi.encodePacked(_hash)) */\n      dup1\n      mload\n      swap1\n      0x20\n      add\n      keccak256\n        /* \"GitHub/contract-token-cryptoMonster/backend/shared/helpers/helpresFunc.sol\":300:342  return(keccak256(abi.encodePacked(_hash))) */\n      swap1\n      pop\n        /* \"GitHub/contract-token-cryptoMonster/backend/shared/helpers/helpresFunc.sol\":212:350  function get_keccak256(string memory _hash) public pure returns(bytes32) {\r... */\n      swap2\n      swap1\n      pop\n      jump\t// out\n        /* \"GitHub/contract-token-cryptoMonster/backend/components/PhasePrivate.sol\":2182:2791  function acceptApplication (address _userAdr) public onlyPrivateProvider {\r... */\n    tag_76:\n        /* \"GitHub/contract-token-cryptoMonster/backend/shared/helpers/modifireFunc.sol\":567:586  Role.SYSTEM_PRIVATE */\n      0x02\n        /* \"GitHub/contract-token-cryptoMonster/backend/shared/helpers/modifireFunc.sol\":547:557  msg.sender */\n      caller\n        /* \"GitHub/contract-token-cryptoMonster/backend/shared/helpers/modifireFunc.sol\":534:546  structUsers_ */\n      0x00\n        /* \"GitHub/contract-token-cryptoMonster/backend/shared/helpers/modifireFunc.sol\":534:558  structUsers_[msg.sender] */\n      swap1\n      dup2\n      mstore\n      0x20\n      dup2\n      swap1\n      mstore\n      0x40\n      swap1\n      keccak256\n        /* \"GitHub/contract-token-cryptoMonster/backend/shared/helpers/modifireFunc.sol\":534:563  structUsers_[msg.sender].role */\n      sload\n      0xff\n      and\n        /* \"GitHub/contract-token-cryptoMonster/backend/shared/helpers/modifireFunc.sol\":534:586  structUsers_[msg.sender].role == Role.SYSTEM_PRIVATE */\n      0x04\n      dup2\n      gt\n      iszero\n      tag_224\n      jumpi\n      tag_224\n      tag_92\n      jump\t// in\n    tag_224:\n      eq\n        /* \"GitHub/contract-token-cryptoMonster/backend/shared/helpers/modifireFunc.sol\":526:616  require(structUsers_[msg.sender].role == Role.SYSTEM_PRIVATE, \"Your not Private provider\") */\n      tag_225\n      jumpi\n      mload(0x40)\n      shl(0xe5, 0x461bcd)\n      dup2\n      mstore\n      0x04\n      add\n      tag_96\n      swap1\n      tag_97\n      jump\t// in\n    tag_225:\n      sub(shl(0xa0, 0x01), 0x01)\n        /* \"GitHub/contract-token-cryptoMonster/backend/components/PhasePrivate.sol\":2266:2294  strucApplications_[_userAdr] */\n      dup2\n      and\n        /* \"GitHub/contract-token-cryptoMonster/backend/components/PhasePrivate.sol\":2304:2309  false */\n      0x00\n        /* \"GitHub/contract-token-cryptoMonster/backend/components/PhasePrivate.sol\":2266:2294  strucApplications_[_userAdr] */\n      dup2\n      dup2\n      mstore\n        /* \"GitHub/contract-token-cryptoMonster/backend/components/PhasePrivate.sol\":2266:2284  strucApplications_ */\n      0x05\n        /* \"GitHub/contract-token-cryptoMonster/backend/components/PhasePrivate.sol\":2266:2294  strucApplications_[_userAdr] */\n      0x20\n      dup2\n      dup2\n      mstore\n      0x40\n      dup1\n      dup5\n      keccak256\n        /* \"GitHub/contract-token-cryptoMonster/backend/components/PhasePrivate.sol\":2266:2301  strucApplications_[_userAdr].status */\n      0x02\n      dup2\n      add\n        /* \"GitHub/contract-token-cryptoMonster/backend/components/PhasePrivate.sol\":2266:2309  strucApplications_[_userAdr].status = false */\n      dup1\n      sload\n      not(shl(0xa0, 0xff))\n      and\n      swap1\n      sstore\n        /* \"GitHub/contract-token-cryptoMonster/backend/components/PhasePrivate.sol\":2373:2400  structApplicationsAmountAdr */\n      0x06\n        /* \"GitHub/contract-token-cryptoMonster/backend/components/PhasePrivate.sol\":2373:2415  structApplicationsAmountAdr.push(_userAdr) */\n      dup1\n      sload\n      0x01\n      dup2\n      dup2\n      add\n      swap1\n      swap3\n      sstore\n      0x00\n      dup1\n      mload\n      0x20\n      data_b868bdfa8727775661e4ccf117824a175a33f8703d728c04488fbfffcafda9f9\n      dup4\n      codecopy\n      dup2\n      mload\n      swap2\n      mstore\n      add\n      dup1\n      sload\n      not(sub(shl(0xa0, 0x01), 0x01))\n      swap1\n      dup2\n      and\n      dup10\n      or\n      swap1\n      swap2\n      sstore\n        /* \"GitHub/contract-token-cryptoMonster/backend/components/PhasePrivate.sol\":2553:2562  whiteList */\n      0x07\n        /* \"GitHub/contract-token-cryptoMonster/backend/components/PhasePrivate.sol\":2553:2577  whiteList.push(_userAdr) */\n      dup1\n      sload\n      swap3\n      dup4\n      add\n      swap1\n      sstore\n      0xa66cc928b5edb82af9bd49922954155ab7b0942694bea4ce44661d9a8736c688\n      swap1\n      swap2\n      add\n      dup1\n      sload\n      swap1\n      swap2\n      and\n      dup8\n      or\n      swap1\n      sstore\n        /* \"GitHub/contract-token-cryptoMonster/backend/components/PhasePrivate.sol\":2695:2783  structUser(Role.USER, strucApplications_[_userAdr].name, get_keccak256(\"0\"), 0, 0, 0, 0) */\n      dup2\n      mload\n      0xe0\n      dup2\n      add\n      swap1\n      swap3\n      mstore\n        /* \"GitHub/contract-token-cryptoMonster/backend/components/PhasePrivate.sol\":2706:2715  Role.USER */\n      0x04\n        /* \"GitHub/contract-token-cryptoMonster/backend/components/PhasePrivate.sol\":2695:2783  structUser(Role.USER, strucApplications_[_userAdr].name, get_keccak256(\"0\"), 0, 0, 0, 0) */\n      dup3\n      mstore\n        /* \"GitHub/contract-token-cryptoMonster/backend/components/PhasePrivate.sol\":2717:2745  strucApplications_[_userAdr] */\n      swap5\n      swap1\n      swap4\n      mstore\n      swap1\n      dup2\n      mstore\n        /* \"GitHub/contract-token-cryptoMonster/backend/components/PhasePrivate.sol\":2695:2783  structUser(Role.USER, strucApplications_[_userAdr].name, get_keccak256(\"0\"), 0, 0, 0, 0) */\n      dup3\n      sload\n      swap2\n      swap3\n      swap1\n      dup4\n      add\n      swap2\n      tag_232\n      swap1\n      tag_112\n      jump\t// in\n    tag_232:\n      dup1\n      0x1f\n      add\n      0x20\n      dup1\n      swap2\n      div\n      mul\n      0x20\n      add\n      mload(0x40)\n      swap1\n      dup2\n      add\n      0x40\n      mstore\n      dup1\n      swap3\n      swap2\n      swap1\n      dup2\n      dup2\n      mstore\n      0x20\n      add\n      dup3\n      dup1\n      sload\n      tag_233\n      swap1\n      tag_112\n      jump\t// in\n    tag_233:\n      dup1\n      iszero\n      tag_234\n      jumpi\n      dup1\n      0x1f\n      lt\n      tag_235\n      jumpi\n      0x0100\n      dup1\n      dup4\n      sload\n      div\n      mul\n      dup4\n      mstore\n      swap2\n      0x20\n      add\n      swap2\n      jump(tag_234)\n    tag_235:\n      dup3\n      add\n      swap2\n      swap1\n      0x00\n      mstore\n      keccak256(0x00, 0x20)\n      swap1\n    tag_236:\n      dup2\n      sload\n      dup2\n      mstore\n      swap1\n      0x01\n      add\n      swap1\n      0x20\n      add\n      dup1\n      dup4\n      gt\n      tag_236\n      jumpi\n      dup3\n      swap1\n      sub\n      0x1f\n      and\n      dup3\n      add\n      swap2\n    tag_234:\n      pop\n      pop\n      pop\n      pop\n      pop\n      dup2\n      mstore\n      0x20\n      add\n        /* \"GitHub/contract-token-cryptoMonster/backend/components/PhasePrivate.sol\":2752:2770  get_keccak256(\"0\") */\n      tag_237\n      mload(0x40)\n      dup1\n      0x40\n      add\n      0x40\n      mstore\n      dup1\n      0x01\n      dup2\n      mstore\n      0x20\n      add\n      shl(0xfc, 0x03)\n      dup2\n      mstore\n      pop\n        /* \"GitHub/contract-token-cryptoMonster/backend/components/PhasePrivate.sol\":2752:2765  get_keccak256 */\n      tag_64\n        /* \"GitHub/contract-token-cryptoMonster/backend/components/PhasePrivate.sol\":2752:2770  get_keccak256(\"0\") */\n      jump\t// in\n    tag_237:\n        /* \"GitHub/contract-token-cryptoMonster/backend/components/PhasePrivate.sol\":2695:2783  structUser(Role.USER, strucApplications_[_userAdr].name, get_keccak256(\"0\"), 0, 0, 0, 0) */\n      dup2\n      mstore\n        /* \"GitHub/contract-token-cryptoMonster/backend/components/PhasePrivate.sol\":2772:2773  0 */\n      0x00\n        /* \"GitHub/contract-token-cryptoMonster/backend/components/PhasePrivate.sol\":2695:2783  structUser(Role.USER, strucApplications_[_userAdr].name, get_keccak256(\"0\"), 0, 0, 0, 0) */\n      0x20\n      dup1\n      dup4\n      add\n      dup3\n      swap1\n      mstore\n      0x40\n      dup1\n      dup5\n      add\n      dup4\n      swap1\n      mstore\n      0x60\n      dup5\n      add\n      dup4\n      swap1\n      mstore\n      0x80\n      swap1\n      swap4\n      add\n      dup3\n      swap1\n      mstore\n      sub(shl(0xa0, 0x01), 0x01)\n        /* \"GitHub/contract-token-cryptoMonster/backend/components/PhasePrivate.sol\":2670:2692  structUsers_[_userAdr] */\n      dup6\n      and\n      dup3\n      mstore\n      dup2\n      swap1\n      mstore\n      keccak256\n        /* \"GitHub/contract-token-cryptoMonster/backend/components/PhasePrivate.sol\":2670:2783  structUsers_[_userAdr] = structUser(Role.USER, strucApplications_[_userAdr].name, get_keccak256(\"0\"), 0, 0, 0, 0) */\n      dup2\n      mload\n      dup2\n      sload\n        /* \"GitHub/contract-token-cryptoMonster/backend/components/PhasePrivate.sol\":2670:2692  structUsers_[_userAdr] */\n      dup3\n      swap1\n      not(0xff)\n        /* \"GitHub/contract-token-cryptoMonster/backend/components/PhasePrivate.sol\":2670:2783  structUsers_[_userAdr] = structUser(Role.USER, strucApplications_[_userAdr].name, get_keccak256(\"0\"), 0, 0, 0, 0) */\n      and\n      0x01\n      dup4\n      0x04\n      dup2\n      gt\n      iszero\n      tag_239\n      jumpi\n      tag_239\n      tag_92\n      jump\t// in\n    tag_239:\n      mul\n      or\n      swap1\n      sstore\n      pop\n      0x20\n      dup3\n      dup2\n      add\n      mload\n      dup1\n      mload\n      tag_240\n      swap3\n      0x01\n      dup6\n      add\n      swap3\n      add\n      swap1\n      tag_182\n      jump\t// in\n    tag_240:\n      pop\n      0x40\n      dup3\n      add\n      mload\n      0x02\n      dup3\n      add\n      sstore\n      0x60\n      dup3\n      add\n      mload\n      0x03\n      dup3\n      add\n      sstore\n      0x80\n      dup3\n      add\n      mload\n      0x04\n      dup3\n      add\n      sstore\n      0xa0\n      dup3\n      add\n      mload\n      0x05\n      dup3\n      add\n      sstore\n      0xc0\n      swap1\n      swap2\n      add\n      mload\n      0x06\n      swap1\n      swap2\n      add\n      sstore\n      pop\n        /* \"GitHub/contract-token-cryptoMonster/backend/components/PhasePrivate.sol\":2182:2791  function acceptApplication (address _userAdr) public onlyPrivateProvider {\r... */\n      jump\t// out\n        /* \"GitHub/contract-token-cryptoMonster/backend/shared/helpers/helpresFunc.sol\":426:554  function get_whiteList() public onlyOwnerAndPrivateProvider view returns (address[] memory) {\r... */\n    tag_82:\n        /* \"GitHub/contract-token-cryptoMonster/backend/shared/helpers/helpresFunc.sol\":500:516  address[] memory */\n      0x60\n        /* \"GitHub/contract-token-cryptoMonster/backend/shared/helpers/modifireFunc.sol\":1116:1133  Role.SYSTEM_OWNER */\n      0x00\n        /* \"GitHub/contract-token-cryptoMonster/backend/shared/helpers/modifireFunc.sol\":1096:1106  msg.sender */\n      caller\n        /* \"GitHub/contract-token-cryptoMonster/backend/shared/helpers/modifireFunc.sol\":1083:1095  structUsers_ */\n      0x00\n        /* \"GitHub/contract-token-cryptoMonster/backend/shared/helpers/modifireFunc.sol\":1083:1107  structUsers_[msg.sender] */\n      swap1\n      dup2\n      mstore\n      0x20\n      dup2\n      swap1\n      mstore\n      0x40\n      swap1\n      keccak256\n        /* \"GitHub/contract-token-cryptoMonster/backend/shared/helpers/modifireFunc.sol\":1083:1112  structUsers_[msg.sender].role */\n      sload\n      0xff\n      and\n        /* \"GitHub/contract-token-cryptoMonster/backend/shared/helpers/modifireFunc.sol\":1083:1133  structUsers_[msg.sender].role == Role.SYSTEM_OWNER */\n      0x04\n      dup2\n      gt\n      iszero\n      tag_246\n      jumpi\n      tag_246\n      tag_92\n      jump\t// in\n    tag_246:\n      eq\n        /* \"GitHub/contract-token-cryptoMonster/backend/shared/helpers/modifireFunc.sol\":1083:1189  structUsers_[msg.sender].role == Role.SYSTEM_OWNER || structUsers_[msg.sender].role == Role.SYSTEM_PRIVATE */\n      dup1\n      tag_247\n      jumpi\n      pop\n        /* \"GitHub/contract-token-cryptoMonster/backend/shared/helpers/modifireFunc.sol\":1170:1189  Role.SYSTEM_PRIVATE */\n      0x02\n        /* \"GitHub/contract-token-cryptoMonster/backend/shared/helpers/modifireFunc.sol\":1150:1160  msg.sender */\n      caller\n        /* \"GitHub/contract-token-cryptoMonster/backend/shared/helpers/modifireFunc.sol\":1137:1149  structUsers_ */\n      0x00\n        /* \"GitHub/contract-token-cryptoMonster/backend/shared/helpers/modifireFunc.sol\":1137:1161  structUsers_[msg.sender] */\n      swap1\n      dup2\n      mstore\n      0x20\n      dup2\n      swap1\n      mstore\n      0x40\n      swap1\n      keccak256\n        /* \"GitHub/contract-token-cryptoMonster/backend/shared/helpers/modifireFunc.sol\":1137:1166  structUsers_[msg.sender].role */\n      sload\n      0xff\n      and\n        /* \"GitHub/contract-token-cryptoMonster/backend/shared/helpers/modifireFunc.sol\":1137:1189  structUsers_[msg.sender].role == Role.SYSTEM_PRIVATE */\n      0x04\n      dup2\n      gt\n      iszero\n      tag_251\n      jumpi\n      tag_251\n      tag_92\n      jump\t// in\n    tag_251:\n      eq\n        /* \"GitHub/contract-token-cryptoMonster/backend/shared/helpers/modifireFunc.sol\":1083:1189  structUsers_[msg.sender].role == Role.SYSTEM_OWNER || structUsers_[msg.sender].role == Role.SYSTEM_PRIVATE */\n    tag_247:\n        /* \"GitHub/contract-token-cryptoMonster/backend/shared/helpers/modifireFunc.sol\":1075:1235  require(structUsers_[msg.sender].role == Role.SYSTEM_OWNER || structUsers_[msg.sender].role == Role.SYSTEM_PRIVATE, \"You are not the owner or private provider\") */\n      tag_252\n      jumpi\n      mload(0x40)\n      shl(0xe5, 0x461bcd)\n      dup2\n      mstore\n        /* \"#utility.yul\":6410:6412   */\n      0x20\n        /* \"GitHub/contract-token-cryptoMonster/backend/shared/helpers/modifireFunc.sol\":1075:1235  require(structUsers_[msg.sender].role == Role.SYSTEM_OWNER || structUsers_[msg.sender].role == Role.SYSTEM_PRIVATE, \"You are not the owner or private provider\") */\n      0x04\n      dup3\n      add\n        /* \"#utility.yul\":6392:6413   */\n      mstore\n        /* \"#utility.yul\":6449:6451   */\n      0x29\n        /* \"#utility.yul\":6429:6447   */\n      0x24\n      dup3\n      add\n        /* \"#utility.yul\":6422:6452   */\n      mstore\n        /* \"#utility.yul\":6488:6522   */\n      0x596f7520617265206e6f7420746865206f776e6572206f722070726976617465\n        /* \"#utility.yul\":6468:6486   */\n      0x44\n      dup3\n      add\n        /* \"#utility.yul\":6461:6523   */\n      mstore\n      shl(0xb9, 0x10383937bb34b232b9)\n        /* \"#utility.yul\":6539:6557   */\n      0x64\n      dup3\n      add\n        /* \"#utility.yul\":6532:6571   */\n      mstore\n        /* \"#utility.yul\":6588:6607   */\n      0x84\n      add\n        /* \"GitHub/contract-token-cryptoMonster/backend/shared/helpers/modifireFunc.sol\":1075:1235  require(structUsers_[msg.sender].role == Role.SYSTEM_OWNER || structUsers_[msg.sender].role == Role.SYSTEM_PRIVATE, \"You are not the owner or private provider\") */\n      tag_96\n        /* \"#utility.yul\":6208:6613   */\n      jump\n        /* \"GitHub/contract-token-cryptoMonster/backend/shared/helpers/modifireFunc.sol\":1075:1235  require(structUsers_[msg.sender].role == Role.SYSTEM_OWNER || structUsers_[msg.sender].role == Role.SYSTEM_PRIVATE, \"You are not the owner or private provider\") */\n    tag_252:\n        /* \"GitHub/contract-token-cryptoMonster/backend/shared/helpers/helpresFunc.sol\":536:545  whiteList */\n      0x07\n        /* \"GitHub/contract-token-cryptoMonster/backend/shared/helpers/helpresFunc.sol\":529:546  return(whiteList) */\n      dup1\n      sload\n      dup1\n      0x20\n      mul\n      0x20\n      add\n      mload(0x40)\n      swap1\n      dup2\n      add\n      0x40\n      mstore\n      dup1\n      swap3\n      swap2\n      swap1\n      dup2\n      dup2\n      mstore\n      0x20\n      add\n      dup3\n      dup1\n      sload\n      dup1\n      iszero\n      tag_131\n      jumpi\n      0x20\n      mul\n      dup3\n      add\n      swap2\n      swap1\n      0x00\n      mstore\n      keccak256(0x00, 0x20)\n      swap1\n      dup2\n      sload\n      sub(shl(0xa0, 0x01), 0x01)\n      and\n      dup2\n      mstore\n      0x01\n      swap1\n      swap2\n      add\n      swap1\n      0x20\n      add\n      dup1\n      dup4\n      gt\n      tag_132\n      jumpi\n      pop\n      pop\n      pop\n      pop\n      pop\n      swap1\n      pop\n        /* \"GitHub/contract-token-cryptoMonster/backend/shared/helpers/helpresFunc.sol\":426:554  function get_whiteList() public onlyOwnerAndPrivateProvider view returns (address[] memory) {\r... */\n      swap1\n      jump\t// out\n        /* \"GitHub/contract-token-cryptoMonster/backend/shared/lib/structures.sol\":836:887  mapping (address => structUser) public structUsers_ */\n    tag_86:\n      0x00\n      0x20\n      dup2\n      swap1\n      mstore\n      swap1\n      dup2\n      mstore\n      0x40\n      swap1\n      keccak256\n      dup1\n      sload\n      0x01\n      dup3\n      add\n      dup1\n      sload\n      0xff\n      swap1\n      swap3\n      and\n      swap3\n      swap2\n      tag_258\n      swap1\n      tag_112\n      jump\t// in\n    tag_258:\n      dup1\n      0x1f\n      add\n      0x20\n      dup1\n      swap2\n      div\n      mul\n      0x20\n      add\n      mload(0x40)\n      swap1\n      dup2\n      add\n      0x40\n      mstore\n      dup1\n      swap3\n      swap2\n      swap1\n      dup2\n      dup2\n      mstore\n      0x20\n      add\n      dup3\n      dup1\n      sload\n      tag_259\n      swap1\n      tag_112\n      jump\t// in\n    tag_259:\n      dup1\n      iszero\n      tag_260\n      jumpi\n      dup1\n      0x1f\n      lt\n      tag_261\n      jumpi\n      0x0100\n      dup1\n      dup4\n      sload\n      div\n      mul\n      dup4\n      mstore\n      swap2\n      0x20\n      add\n      swap2\n      jump(tag_260)\n    tag_261:\n      dup3\n      add\n      swap2\n      swap1\n      0x00\n      mstore\n      keccak256(0x00, 0x20)\n      swap1\n    tag_262:\n      dup2\n      sload\n      dup2\n      mstore\n      swap1\n      0x01\n      add\n      swap1\n      0x20\n      add\n      dup1\n      dup4\n      gt\n      tag_262\n      jumpi\n      dup3\n      swap1\n      sub\n      0x1f\n      and\n      dup3\n      add\n      swap2\n    tag_260:\n      pop\n      pop\n      pop\n      pop\n      pop\n      swap1\n      dup1\n      0x02\n      add\n      sload\n      swap1\n      dup1\n      0x03\n      add\n      sload\n      swap1\n      dup1\n      0x04\n      add\n      sload\n      swap1\n      dup1\n      0x05\n      add\n      sload\n      swap1\n      dup1\n      0x06\n      add\n      sload\n      swap1\n      pop\n      dup8\n      jump\t// out\n    tag_182:\n      dup3\n      dup1\n      sload\n      tag_263\n      swap1\n      tag_112\n      jump\t// in\n    tag_263:\n      swap1\n      0x00\n      mstore\n      keccak256(0x00, 0x20)\n      swap1\n      0x1f\n      add\n      0x20\n      swap1\n      div\n      dup2\n      add\n      swap3\n      dup3\n      tag_265\n      jumpi\n      0x00\n      dup6\n      sstore\n      jump(tag_268)\n    tag_265:\n      dup3\n      0x1f\n      lt\n      tag_266\n      jumpi\n      dup1\n      mload\n      not(0xff)\n      and\n      dup4\n      dup1\n      add\n      or\n      dup6\n      sstore\n      jump(tag_268)\n    tag_266:\n      dup3\n      dup1\n      add\n      0x01\n      add\n      dup6\n      sstore\n      dup3\n      iszero\n      tag_268\n      jumpi\n      swap2\n      dup3\n      add\n    tag_267:\n      dup3\n      dup2\n      gt\n      iszero\n      tag_268\n      jumpi\n      dup3\n      mload\n      dup3\n      sstore\n      swap2\n      0x20\n      add\n      swap2\n      swap1\n      0x01\n      add\n      swap1\n      jump(tag_267)\n    tag_268:\n      pop\n      tag_269\n      swap3\n      swap2\n      pop\n      tag_270\n      jump\t// in\n    tag_269:\n      pop\n      swap1\n      jump\t// out\n    tag_270:\n    tag_271:\n      dup1\n      dup3\n      gt\n      iszero\n      tag_269\n      jumpi\n      0x00\n      dup2\n      sstore\n      0x01\n      add\n      jump(tag_271)\n        /* \"#utility.yul\":14:187   */\n    tag_274:\n        /* \"#utility.yul\":82:102   */\n      dup1\n      calldataload\n      sub(shl(0xa0, 0x01), 0x01)\n        /* \"#utility.yul\":131:162   */\n      dup2\n      and\n        /* \"#utility.yul\":121:163   */\n      dup2\n      eq\n        /* \"#utility.yul\":111:181   */\n      tag_276\n      jumpi\n        /* \"#utility.yul\":177:178   */\n      0x00\n        /* \"#utility.yul\":174:175   */\n      dup1\n        /* \"#utility.yul\":167:179   */\n      revert\n        /* \"#utility.yul\":111:181   */\n    tag_276:\n        /* \"#utility.yul\":14:187   */\n      swap2\n      swap1\n      pop\n      jump\t// out\n        /* \"#utility.yul\":192:911   */\n    tag_277:\n        /* \"#utility.yul\":235:240   */\n      0x00\n        /* \"#utility.yul\":288:291   */\n      dup3\n        /* \"#utility.yul\":281:285   */\n      0x1f\n        /* \"#utility.yul\":273:279   */\n      dup4\n        /* \"#utility.yul\":269:286   */\n      add\n        /* \"#utility.yul\":265:292   */\n      slt\n        /* \"#utility.yul\":255:310   */\n      tag_279\n      jumpi\n        /* \"#utility.yul\":306:307   */\n      0x00\n        /* \"#utility.yul\":303:304   */\n      dup1\n        /* \"#utility.yul\":296:308   */\n      revert\n        /* \"#utility.yul\":255:310   */\n    tag_279:\n        /* \"#utility.yul\":329:349   */\n      dup2\n      calldataload\n      sub(shl(0x40, 0x01), 0x01)\n        /* \"#utility.yul\":398:408   */\n      dup1\n      dup3\n      gt\n        /* \"#utility.yul\":395:431   */\n      iszero\n      tag_281\n      jumpi\n        /* \"#utility.yul\":411:429   */\n      tag_281\n      tag_282\n      jump\t// in\n    tag_281:\n        /* \"#utility.yul\":486:488   */\n      0x40\n        /* \"#utility.yul\":480:489   */\n      mload\n        /* \"#utility.yul\":454:456   */\n      0x1f\n        /* \"#utility.yul\":540:553   */\n      dup4\n      add\n      not(0x1f)\n        /* \"#utility.yul\":536:558   */\n      swap1\n      dup2\n      and\n        /* \"#utility.yul\":560:562   */\n      0x3f\n        /* \"#utility.yul\":532:563   */\n      add\n        /* \"#utility.yul\":528:568   */\n      and\n        /* \"#utility.yul\":516:569   */\n      dup2\n      add\n      swap1\n        /* \"#utility.yul\":584:602   */\n      dup3\n      dup3\n      gt\n        /* \"#utility.yul\":604:626   */\n      dup2\n      dup4\n      lt\n        /* \"#utility.yul\":581:627   */\n      or\n        /* \"#utility.yul\":578:650   */\n      iszero\n      tag_284\n      jumpi\n        /* \"#utility.yul\":630:648   */\n      tag_284\n      tag_282\n      jump\t// in\n    tag_284:\n        /* \"#utility.yul\":670:680   */\n      dup2\n        /* \"#utility.yul\":666:668   */\n      0x40\n        /* \"#utility.yul\":659:681   */\n      mstore\n        /* \"#utility.yul\":705:707   */\n      dup4\n        /* \"#utility.yul\":697:703   */\n      dup2\n        /* \"#utility.yul\":690:708   */\n      mstore\n        /* \"#utility.yul\":751:754   */\n      dup7\n        /* \"#utility.yul\":744:748   */\n      0x20\n        /* \"#utility.yul\":739:741   */\n      dup6\n        /* \"#utility.yul\":731:737   */\n      dup9\n        /* \"#utility.yul\":727:742   */\n      add\n        /* \"#utility.yul\":723:749   */\n      add\n        /* \"#utility.yul\":720:755   */\n      gt\n        /* \"#utility.yul\":717:772   */\n      iszero\n      tag_285\n      jumpi\n        /* \"#utility.yul\":768:769   */\n      0x00\n        /* \"#utility.yul\":765:766   */\n      dup1\n        /* \"#utility.yul\":758:770   */\n      revert\n        /* \"#utility.yul\":717:772   */\n    tag_285:\n        /* \"#utility.yul\":832:834   */\n      dup4\n        /* \"#utility.yul\":825:829   */\n      0x20\n        /* \"#utility.yul\":817:823   */\n      dup8\n        /* \"#utility.yul\":813:830   */\n      add\n        /* \"#utility.yul\":806:810   */\n      0x20\n        /* \"#utility.yul\":798:804   */\n      dup4\n        /* \"#utility.yul\":794:811   */\n      add\n        /* \"#utility.yul\":781:835   */\n      calldatacopy\n        /* \"#utility.yul\":879:880   */\n      0x00\n        /* \"#utility.yul\":872:876   */\n      0x20\n        /* \"#utility.yul\":867:869   */\n      dup6\n        /* \"#utility.yul\":859:865   */\n      dup4\n        /* \"#utility.yul\":855:870   */\n      add\n        /* \"#utility.yul\":851:877   */\n      add\n        /* \"#utility.yul\":844:881   */\n      mstore\n        /* \"#utility.yul\":899:905   */\n      dup1\n        /* \"#utility.yul\":890:905   */\n      swap5\n      pop\n      pop\n      pop\n      pop\n      pop\n        /* \"#utility.yul\":192:911   */\n      swap3\n      swap2\n      pop\n      pop\n      jump\t// out\n        /* \"#utility.yul\":916:1102   */\n    tag_29:\n        /* \"#utility.yul\":975:981   */\n      0x00\n        /* \"#utility.yul\":1028:1030   */\n      0x20\n        /* \"#utility.yul\":1016:1025   */\n      dup3\n        /* \"#utility.yul\":1007:1014   */\n      dup5\n        /* \"#utility.yul\":1003:1026   */\n      sub\n        /* \"#utility.yul\":999:1031   */\n      slt\n        /* \"#utility.yul\":996:1048   */\n      iszero\n      tag_287\n      jumpi\n        /* \"#utility.yul\":1044:1045   */\n      0x00\n        /* \"#utility.yul\":1041:1042   */\n      dup1\n        /* \"#utility.yul\":1034:1046   */\n      revert\n        /* \"#utility.yul\":996:1048   */\n    tag_287:\n        /* \"#utility.yul\":1067:1096   */\n      tag_288\n        /* \"#utility.yul\":1086:1095   */\n      dup3\n        /* \"#utility.yul\":1067:1096   */\n      tag_274\n      jump\t// in\n    tag_288:\n        /* \"#utility.yul\":1057:1096   */\n      swap4\n        /* \"#utility.yul\":916:1102   */\n      swap3\n      pop\n      pop\n      pop\n      jump\t// out\n        /* \"#utility.yul\":1107:1429   */\n    tag_63:\n        /* \"#utility.yul\":1176:1182   */\n      0x00\n        /* \"#utility.yul\":1229:1231   */\n      0x20\n        /* \"#utility.yul\":1217:1226   */\n      dup3\n        /* \"#utility.yul\":1208:1215   */\n      dup5\n        /* \"#utility.yul\":1204:1227   */\n      sub\n        /* \"#utility.yul\":1200:1232   */\n      slt\n        /* \"#utility.yul\":1197:1249   */\n      iszero\n      tag_290\n      jumpi\n        /* \"#utility.yul\":1245:1246   */\n      0x00\n        /* \"#utility.yul\":1242:1243   */\n      dup1\n        /* \"#utility.yul\":1235:1247   */\n      revert\n        /* \"#utility.yul\":1197:1249   */\n    tag_290:\n        /* \"#utility.yul\":1272:1295   */\n      dup2\n      calldataload\n      sub(shl(0x40, 0x01), 0x01)\n        /* \"#utility.yul\":1307:1337   */\n      dup2\n      gt\n        /* \"#utility.yul\":1304:1354   */\n      iszero\n      tag_291\n      jumpi\n        /* \"#utility.yul\":1350:1351   */\n      0x00\n        /* \"#utility.yul\":1347:1348   */\n      dup1\n        /* \"#utility.yul\":1340:1352   */\n      revert\n        /* \"#utility.yul\":1304:1354   */\n    tag_291:\n        /* \"#utility.yul\":1373:1423   */\n      tag_292\n        /* \"#utility.yul\":1415:1422   */\n      dup5\n        /* \"#utility.yul\":1406:1412   */\n      dup3\n        /* \"#utility.yul\":1395:1404   */\n      dup6\n        /* \"#utility.yul\":1391:1413   */\n      add\n        /* \"#utility.yul\":1373:1423   */\n      tag_277\n      jump\t// in\n    tag_292:\n        /* \"#utility.yul\":1363:1423   */\n      swap5\n        /* \"#utility.yul\":1107:1429   */\n      swap4\n      pop\n      pop\n      pop\n      pop\n      jump\t// out\n        /* \"#utility.yul\":1434:2051   */\n    tag_50:\n        /* \"#utility.yul\":1531:1537   */\n      0x00\n        /* \"#utility.yul\":1539:1545   */\n      dup1\n        /* \"#utility.yul\":1547:1553   */\n      0x00\n        /* \"#utility.yul\":1600:1602   */\n      0x60\n        /* \"#utility.yul\":1588:1597   */\n      dup5\n        /* \"#utility.yul\":1579:1586   */\n      dup7\n        /* \"#utility.yul\":1575:1598   */\n      sub\n        /* \"#utility.yul\":1571:1603   */\n      slt\n        /* \"#utility.yul\":1568:1620   */\n      iszero\n      tag_294\n      jumpi\n        /* \"#utility.yul\":1616:1617   */\n      0x00\n        /* \"#utility.yul\":1613:1614   */\n      dup1\n        /* \"#utility.yul\":1606:1618   */\n      revert\n        /* \"#utility.yul\":1568:1620   */\n    tag_294:\n        /* \"#utility.yul\":1643:1666   */\n      dup4\n      calldataload\n      sub(shl(0x40, 0x01), 0x01)\n        /* \"#utility.yul\":1715:1729   */\n      dup1\n      dup3\n      gt\n        /* \"#utility.yul\":1712:1746   */\n      iszero\n      tag_295\n      jumpi\n        /* \"#utility.yul\":1742:1743   */\n      0x00\n        /* \"#utility.yul\":1739:1740   */\n      dup1\n        /* \"#utility.yul\":1732:1744   */\n      revert\n        /* \"#utility.yul\":1712:1746   */\n    tag_295:\n        /* \"#utility.yul\":1765:1815   */\n      tag_296\n        /* \"#utility.yul\":1807:1814   */\n      dup8\n        /* \"#utility.yul\":1798:1804   */\n      dup4\n        /* \"#utility.yul\":1787:1796   */\n      dup9\n        /* \"#utility.yul\":1783:1805   */\n      add\n        /* \"#utility.yul\":1765:1815   */\n      tag_277\n      jump\t// in\n    tag_296:\n        /* \"#utility.yul\":1755:1815   */\n      swap5\n      pop\n        /* \"#utility.yul\":1868:1870   */\n      0x20\n        /* \"#utility.yul\":1857:1866   */\n      dup7\n        /* \"#utility.yul\":1853:1871   */\n      add\n        /* \"#utility.yul\":1840:1872   */\n      calldataload\n        /* \"#utility.yul\":1824:1872   */\n      swap2\n      pop\n        /* \"#utility.yul\":1897:1899   */\n      dup1\n        /* \"#utility.yul\":1887:1895   */\n      dup3\n        /* \"#utility.yul\":1884:1900   */\n      gt\n        /* \"#utility.yul\":1881:1917   */\n      iszero\n      tag_297\n      jumpi\n        /* \"#utility.yul\":1913:1914   */\n      0x00\n        /* \"#utility.yul\":1910:1911   */\n      dup1\n        /* \"#utility.yul\":1903:1915   */\n      revert\n        /* \"#utility.yul\":1881:1917   */\n    tag_297:\n      pop\n        /* \"#utility.yul\":1936:1988   */\n      tag_298\n        /* \"#utility.yul\":1980:1987   */\n      dup7\n        /* \"#utility.yul\":1969:1977   */\n      dup3\n        /* \"#utility.yul\":1958:1967   */\n      dup8\n        /* \"#utility.yul\":1954:1978   */\n      add\n        /* \"#utility.yul\":1936:1988   */\n      tag_277\n      jump\t// in\n    tag_298:\n        /* \"#utility.yul\":1926:1988   */\n      swap3\n      pop\n      pop\n        /* \"#utility.yul\":2007:2045   */\n      tag_299\n        /* \"#utility.yul\":2041:2043   */\n      0x40\n        /* \"#utility.yul\":2030:2039   */\n      dup6\n        /* \"#utility.yul\":2026:2044   */\n      add\n        /* \"#utility.yul\":2007:2045   */\n      tag_274\n      jump\t// in\n    tag_299:\n        /* \"#utility.yul\":1997:2045   */\n      swap1\n      pop\n        /* \"#utility.yul\":1434:2051   */\n      swap3\n      pop\n      swap3\n      pop\n      swap3\n      jump\t// out\n        /* \"#utility.yul\":2056:2236   */\n    tag_59:\n        /* \"#utility.yul\":2115:2121   */\n      0x00\n        /* \"#utility.yul\":2168:2170   */\n      0x20\n        /* \"#utility.yul\":2156:2165   */\n      dup3\n        /* \"#utility.yul\":2147:2154   */\n      dup5\n        /* \"#utility.yul\":2143:2166   */\n      sub\n        /* \"#utility.yul\":2139:2171   */\n      slt\n        /* \"#utility.yul\":2136:2188   */\n      iszero\n      tag_301\n      jumpi\n        /* \"#utility.yul\":2184:2185   */\n      0x00\n        /* \"#utility.yul\":2181:2182   */\n      dup1\n        /* \"#utility.yul\":2174:2186   */\n      revert\n        /* \"#utility.yul\":2136:2188   */\n    tag_301:\n      pop\n        /* \"#utility.yul\":2207:2230   */\n      calldataload\n      swap2\n        /* \"#utility.yul\":2056:2236   */\n      swap1\n      pop\n      jump\t// out\n        /* \"#utility.yul\":2241:2499   */\n    tag_302:\n        /* \"#utility.yul\":2283:2286   */\n      0x00\n        /* \"#utility.yul\":2321:2326   */\n      dup2\n        /* \"#utility.yul\":2315:2327   */\n      mload\n        /* \"#utility.yul\":2348:2354   */\n      dup1\n        /* \"#utility.yul\":2343:2346   */\n      dup5\n        /* \"#utility.yul\":2336:2355   */\n      mstore\n        /* \"#utility.yul\":2364:2427   */\n      tag_304\n        /* \"#utility.yul\":2420:2426   */\n      dup2\n        /* \"#utility.yul\":2413:2417   */\n      0x20\n        /* \"#utility.yul\":2408:2411   */\n      dup7\n        /* \"#utility.yul\":2404:2418   */\n      add\n        /* \"#utility.yul\":2397:2401   */\n      0x20\n        /* \"#utility.yul\":2390:2395   */\n      dup7\n        /* \"#utility.yul\":2386:2402   */\n      add\n        /* \"#utility.yul\":2364:2427   */\n      tag_305\n      jump\t// in\n    tag_304:\n        /* \"#utility.yul\":2481:2483   */\n      0x1f\n        /* \"#utility.yul\":2460:2475   */\n      add\n      not(0x1f)\n        /* \"#utility.yul\":2456:2485   */\n      and\n        /* \"#utility.yul\":2447:2486   */\n      swap3\n      swap1\n      swap3\n      add\n        /* \"#utility.yul\":2488:2492   */\n      0x20\n        /* \"#utility.yul\":2443:2493   */\n      add\n      swap3\n        /* \"#utility.yul\":2241:2499   */\n      swap2\n      pop\n      pop\n      jump\t// out\n        /* \"#utility.yul\":2504:2780   */\n    tag_218:\n        /* \"#utility.yul\":2635:2638   */\n      0x00\n        /* \"#utility.yul\":2673:2679   */\n      dup3\n        /* \"#utility.yul\":2667:2680   */\n      mload\n        /* \"#utility.yul\":2689:2742   */\n      tag_307\n        /* \"#utility.yul\":2735:2741   */\n      dup2\n        /* \"#utility.yul\":2730:2733   */\n      dup5\n        /* \"#utility.yul\":2723:2727   */\n      0x20\n        /* \"#utility.yul\":2715:2721   */\n      dup8\n        /* \"#utility.yul\":2711:2728   */\n      add\n        /* \"#utility.yul\":2689:2742   */\n      tag_305\n      jump\t// in\n    tag_307:\n        /* \"#utility.yul\":2758:2774   */\n      swap2\n      swap1\n      swap2\n      add\n      swap3\n        /* \"#utility.yul\":2504:2780   */\n      swap2\n      pop\n      pop\n      jump\t// out\n        /* \"#utility.yul\":2785:3443   */\n    tag_43:\n        /* \"#utility.yul\":2956:2958   */\n      0x20\n        /* \"#utility.yul\":3008:3029   */\n      dup1\n      dup3\n      mstore\n        /* \"#utility.yul\":3078:3091   */\n      dup3\n      mload\n        /* \"#utility.yul\":2981:2999   */\n      dup3\n      dup3\n      add\n        /* \"#utility.yul\":3100:3122   */\n      dup2\n      swap1\n      mstore\n        /* \"#utility.yul\":2927:2931   */\n      0x00\n      swap2\n        /* \"#utility.yul\":2956:2958   */\n      swap1\n        /* \"#utility.yul\":3179:3194   */\n      dup5\n      dup3\n      add\n      swap1\n        /* \"#utility.yul\":3153:3155   */\n      0x40\n        /* \"#utility.yul\":3138:3156   */\n      dup6\n      add\n      swap1\n        /* \"#utility.yul\":2927:2931   */\n      dup5\n        /* \"#utility.yul\":3222:3417   */\n    tag_309:\n        /* \"#utility.yul\":3236:3242   */\n      dup2\n        /* \"#utility.yul\":3233:3234   */\n      dup2\n        /* \"#utility.yul\":3230:3243   */\n      lt\n        /* \"#utility.yul\":3222:3417   */\n      iszero\n      tag_311\n      jumpi\n        /* \"#utility.yul\":3301:3314   */\n      dup4\n      mload\n      sub(shl(0xa0, 0x01), 0x01)\n        /* \"#utility.yul\":3297:3336   */\n      and\n        /* \"#utility.yul\":3285:3337   */\n      dup4\n      mstore\n        /* \"#utility.yul\":3392:3407   */\n      swap3\n      dup5\n      add\n      swap3\n        /* \"#utility.yul\":3357:3369   */\n      swap2\n      dup5\n      add\n      swap2\n        /* \"#utility.yul\":3333:3334   */\n      0x01\n        /* \"#utility.yul\":3251:3260   */\n      add\n        /* \"#utility.yul\":3222:3417   */\n      jump(tag_309)\n    tag_311:\n      pop\n        /* \"#utility.yul\":3434:3437   */\n      swap1\n      swap7\n        /* \"#utility.yul\":2785:3443   */\n      swap6\n      pop\n      pop\n      pop\n      pop\n      pop\n      pop\n      jump\t// out\n        /* \"#utility.yul\":3630:4440   */\n    tag_88:\n        /* \"#utility.yul\":3916:3920   */\n      0x00\n        /* \"#utility.yul\":3956:3957   */\n      0x05\n        /* \"#utility.yul\":3948:3954   */\n      dup10\n        /* \"#utility.yul\":3945:3958   */\n      lt\n        /* \"#utility.yul\":3935:4079   */\n      tag_314\n      jumpi\n        /* \"#utility.yul\":4001:4011   */\n      0x4e487b71\n        /* \"#utility.yul\":3996:3999   */\n      0xe0\n        /* \"#utility.yul\":3992:4012   */\n      shl\n        /* \"#utility.yul\":3989:3990   */\n      0x00\n        /* \"#utility.yul\":3982:4013   */\n      mstore\n        /* \"#utility.yul\":4036:4040   */\n      0x21\n        /* \"#utility.yul\":4033:4034   */\n      0x04\n        /* \"#utility.yul\":4026:4041   */\n      mstore\n        /* \"#utility.yul\":4064:4068   */\n      0x24\n        /* \"#utility.yul\":4061:4062   */\n      0x00\n        /* \"#utility.yul\":4054:4069   */\n      revert\n        /* \"#utility.yul\":3935:4079   */\n    tag_314:\n        /* \"#utility.yul\":4106:4112   */\n      dup9\n        /* \"#utility.yul\":4095:4104   */\n      dup3\n        /* \"#utility.yul\":4088:4113   */\n      mstore\n        /* \"#utility.yul\":4149:4152   */\n      0xe0\n        /* \"#utility.yul\":4144:4146   */\n      0x20\n        /* \"#utility.yul\":4133:4142   */\n      dup4\n        /* \"#utility.yul\":4129:4147   */\n      add\n        /* \"#utility.yul\":4122:4153   */\n      mstore\n        /* \"#utility.yul\":4170:4216   */\n      tag_315\n        /* \"#utility.yul\":4211:4214   */\n      0xe0\n        /* \"#utility.yul\":4200:4209   */\n      dup4\n        /* \"#utility.yul\":4196:4215   */\n      add\n        /* \"#utility.yul\":4188:4194   */\n      dup10\n        /* \"#utility.yul\":4170:4216   */\n      tag_302\n      jump\t// in\n    tag_315:\n        /* \"#utility.yul\":4247:4249   */\n      0x40\n        /* \"#utility.yul\":4232:4250   */\n      dup4\n      add\n        /* \"#utility.yul\":4225:4259   */\n      swap8\n      swap1\n      swap8\n      mstore\n      pop\n        /* \"#utility.yul\":4290:4292   */\n      0x60\n        /* \"#utility.yul\":4275:4293   */\n      dup2\n      add\n        /* \"#utility.yul\":4268:4302   */\n      swap5\n      swap1\n      swap5\n      mstore\n        /* \"#utility.yul\":4333:4336   */\n      0x80\n        /* \"#utility.yul\":4318:4337   */\n      dup5\n      add\n        /* \"#utility.yul\":4311:4346   */\n      swap3\n      swap1\n      swap3\n      mstore\n        /* \"#utility.yul\":4377:4380   */\n      0xa0\n        /* \"#utility.yul\":4362:4381   */\n      dup4\n      add\n        /* \"#utility.yul\":4355:4390   */\n      mstore\n        /* \"#utility.yul\":4421:4424   */\n      0xc0\n        /* \"#utility.yul\":4406:4425   */\n      swap1\n      swap2\n      add\n        /* \"#utility.yul\":4399:4434   */\n      mstore\n        /* \"#utility.yul\":4162:4216   */\n      swap3\n        /* \"#utility.yul\":3630:4440   */\n      swap2\n      pop\n      pop\n      jump\t// out\n        /* \"#utility.yul\":4445:5090   */\n    tag_35:\n        /* \"#utility.yul\":4714:4717   */\n      0xa0\n        /* \"#utility.yul\":4703:4712   */\n      dup2\n        /* \"#utility.yul\":4696:4718   */\n      mstore\n        /* \"#utility.yul\":4677:4681   */\n      0x00\n        /* \"#utility.yul\":4741:4787   */\n      tag_317\n        /* \"#utility.yul\":4782:4785   */\n      0xa0\n        /* \"#utility.yul\":4771:4780   */\n      dup4\n        /* \"#utility.yul\":4767:4786   */\n      add\n        /* \"#utility.yul\":4759:4765   */\n      dup9\n        /* \"#utility.yul\":4741:4787   */\n      tag_302\n      jump\t// in\n    tag_317:\n        /* \"#utility.yul\":4835:4844   */\n      dup3\n        /* \"#utility.yul\":4827:4833   */\n      dup2\n        /* \"#utility.yul\":4823:4845   */\n      sub\n        /* \"#utility.yul\":4818:4820   */\n      0x20\n        /* \"#utility.yul\":4807:4816   */\n      dup5\n        /* \"#utility.yul\":4803:4821   */\n      add\n        /* \"#utility.yul\":4796:4846   */\n      mstore\n        /* \"#utility.yul\":4863:4896   */\n      tag_318\n        /* \"#utility.yul\":4889:4895   */\n      dup2\n        /* \"#utility.yul\":4881:4887   */\n      dup9\n        /* \"#utility.yul\":4863:4896   */\n      tag_302\n      jump\t// in\n    tag_318:\n      sub(shl(0xa0, 0x01), 0x01)\n        /* \"#utility.yul\":4932:4964   */\n      swap7\n      swap1\n      swap7\n      and\n        /* \"#utility.yul\":4927:4929   */\n      0x40\n        /* \"#utility.yul\":4912:4930   */\n      dup5\n      add\n        /* \"#utility.yul\":4905:4965   */\n      mstore\n      pop\n      pop\n        /* \"#utility.yul\":5008:5022   */\n      swap2\n      iszero\n        /* \"#utility.yul\":5001:5023   */\n      iszero\n        /* \"#utility.yul\":4996:4998   */\n      0x60\n        /* \"#utility.yul\":4981:4999   */\n      dup4\n      add\n        /* \"#utility.yul\":4974:5024   */\n      mstore\n        /* \"#utility.yul\":5068:5082   */\n      iszero\n        /* \"#utility.yul\":5061:5083   */\n      iszero\n        /* \"#utility.yul\":5055:5058   */\n      0x80\n        /* \"#utility.yul\":5040:5059   */\n      swap1\n      swap2\n      add\n        /* \"#utility.yul\":5033:5084   */\n      mstore\n        /* \"#utility.yul\":4855:4896   */\n      swap3\n        /* \"#utility.yul\":4445:5090   */\n      swap2\n      pop\n      pop\n      jump\t// out\n        /* \"#utility.yul\":7741:8090   */\n    tag_97:\n        /* \"#utility.yul\":7943:7945   */\n      0x20\n        /* \"#utility.yul\":7925:7946   */\n      dup1\n      dup3\n      mstore\n        /* \"#utility.yul\":7982:7984   */\n      0x19\n        /* \"#utility.yul\":7962:7980   */\n      swap1\n      dup3\n      add\n        /* \"#utility.yul\":7955:7985   */\n      mstore\n      shl(0x39, 0x2cb7bab9103737ba10283934bb30ba3290383937bb34b232b9)\n        /* \"#utility.yul\":8016:8018   */\n      0x40\n        /* \"#utility.yul\":8001:8019   */\n      dup3\n      add\n        /* \"#utility.yul\":7994:8049   */\n      mstore\n        /* \"#utility.yul\":8081:8083   */\n      0x60\n        /* \"#utility.yul\":8066:8084   */\n      add\n      swap1\n        /* \"#utility.yul\":7741:8090   */\n      jump\t// out\n        /* \"#utility.yul\":9053:9311   */\n    tag_305:\n        /* \"#utility.yul\":9125:9126   */\n      0x00\n        /* \"#utility.yul\":9135:9248   */\n    tag_331:\n        /* \"#utility.yul\":9149:9155   */\n      dup4\n        /* \"#utility.yul\":9146:9147   */\n      dup2\n        /* \"#utility.yul\":9143:9156   */\n      lt\n        /* \"#utility.yul\":9135:9248   */\n      iszero\n      tag_333\n      jumpi\n        /* \"#utility.yul\":9225:9236   */\n      dup2\n      dup2\n      add\n        /* \"#utility.yul\":9219:9237   */\n      mload\n        /* \"#utility.yul\":9206:9217   */\n      dup4\n      dup3\n      add\n        /* \"#utility.yul\":9199:9238   */\n      mstore\n        /* \"#utility.yul\":9171:9173   */\n      0x20\n        /* \"#utility.yul\":9164:9174   */\n      add\n        /* \"#utility.yul\":9135:9248   */\n      jump(tag_331)\n    tag_333:\n        /* \"#utility.yul\":9266:9272   */\n      dup4\n        /* \"#utility.yul\":9263:9264   */\n      dup2\n        /* \"#utility.yul\":9260:9273   */\n      gt\n        /* \"#utility.yul\":9257:9305   */\n      iszero\n      tag_334\n      jumpi\n        /* \"#utility.yul\":9301:9302   */\n      0x00\n        /* \"#utility.yul\":9292:9298   */\n      dup5\n        /* \"#utility.yul\":9287:9290   */\n      dup5\n        /* \"#utility.yul\":9283:9299   */\n      add\n        /* \"#utility.yul\":9276:9303   */\n      mstore\n        /* \"#utility.yul\":9257:9305   */\n    tag_334:\n      pop\n        /* \"#utility.yul\":9053:9311   */\n      pop\n      pop\n      pop\n      jump\t// out\n        /* \"#utility.yul\":9316:9696   */\n    tag_112:\n        /* \"#utility.yul\":9395:9396   */\n      0x01\n        /* \"#utility.yul\":9391:9403   */\n      dup2\n      dup2\n      shr\n      swap1\n        /* \"#utility.yul\":9438:9450   */\n      dup3\n      and\n      dup1\n        /* \"#utility.yul\":9459:9520   */\n      tag_336\n      jumpi\n        /* \"#utility.yul\":9513:9517   */\n      0x7f\n        /* \"#utility.yul\":9505:9511   */\n      dup3\n        /* \"#utility.yul\":9501:9518   */\n      and\n        /* \"#utility.yul\":9491:9518   */\n      swap2\n      pop\n        /* \"#utility.yul\":9459:9520   */\n    tag_336:\n        /* \"#utility.yul\":9566:9568   */\n      0x20\n        /* \"#utility.yul\":9558:9564   */\n      dup3\n        /* \"#utility.yul\":9555:9569   */\n      lt\n        /* \"#utility.yul\":9535:9553   */\n      dup2\n        /* \"#utility.yul\":9532:9570   */\n      eq\n        /* \"#utility.yul\":9529:9690   */\n      iszero\n      tag_337\n      jumpi\n        /* \"#utility.yul\":9612:9622   */\n      0x4e487b71\n        /* \"#utility.yul\":9607:9610   */\n      0xe0\n        /* \"#utility.yul\":9603:9623   */\n      shl\n        /* \"#utility.yul\":9600:9601   */\n      0x00\n        /* \"#utility.yul\":9593:9624   */\n      mstore\n        /* \"#utility.yul\":9647:9651   */\n      0x22\n        /* \"#utility.yul\":9644:9645   */\n      0x04\n        /* \"#utility.yul\":9637:9652   */\n      mstore\n        /* \"#utility.yul\":9675:9679   */\n      0x24\n        /* \"#utility.yul\":9672:9673   */\n      0x00\n        /* \"#utility.yul\":9665:9680   */\n      revert\n        /* \"#utility.yul\":9529:9690   */\n    tag_337:\n      pop\n        /* \"#utility.yul\":9316:9696   */\n      swap2\n      swap1\n      pop\n      jump\t// out\n        /* \"#utility.yul\":9701:9933   */\n    tag_177:\n        /* \"#utility.yul\":9740:9743   */\n      0x00\n      not(0x00)\n        /* \"#utility.yul\":9761:9778   */\n      dup3\n      eq\n        /* \"#utility.yul\":9758:9898   */\n      iszero\n      tag_339\n      jumpi\n        /* \"#utility.yul\":9820:9830   */\n      0x4e487b71\n        /* \"#utility.yul\":9815:9818   */\n      0xe0\n        /* \"#utility.yul\":9811:9831   */\n      shl\n        /* \"#utility.yul\":9808:9809   */\n      0x00\n        /* \"#utility.yul\":9801:9832   */\n      mstore\n        /* \"#utility.yul\":9855:9859   */\n      0x11\n        /* \"#utility.yul\":9852:9853   */\n      0x04\n        /* \"#utility.yul\":9845:9860   */\n      mstore\n        /* \"#utility.yul\":9883:9887   */\n      0x24\n        /* \"#utility.yul\":9880:9881   */\n      0x00\n        /* \"#utility.yul\":9873:9888   */\n      revert\n        /* \"#utility.yul\":9758:9898   */\n    tag_339:\n      pop\n        /* \"#utility.yul\":9925:9926   */\n      0x01\n        /* \"#utility.yul\":9914:9927   */\n      add\n      swap1\n        /* \"#utility.yul\":9701:9933   */\n      jump\t// out\n        /* \"#utility.yul\":9938:10065   */\n    tag_92:\n        /* \"#utility.yul\":9999:10009   */\n      0x4e487b71\n        /* \"#utility.yul\":9994:9997   */\n      0xe0\n        /* \"#utility.yul\":9990:10010   */\n      shl\n        /* \"#utility.yul\":9987:9988   */\n      0x00\n        /* \"#utility.yul\":9980:10011   */\n      mstore\n        /* \"#utility.yul\":10030:10034   */\n      0x21\n        /* \"#utility.yul\":10027:10028   */\n      0x04\n        /* \"#utility.yul\":10020:10035   */\n      mstore\n        /* \"#utility.yul\":10054:10058   */\n      0x24\n        /* \"#utility.yul\":10051:10052   */\n      0x00\n        /* \"#utility.yul\":10044:10059   */\n      revert\n        /* \"#utility.yul\":10070:10197   */\n    tag_170:\n        /* \"#utility.yul\":10131:10141   */\n      0x4e487b71\n        /* \"#utility.yul\":10126:10129   */\n      0xe0\n        /* \"#utility.yul\":10122:10142   */\n      shl\n        /* \"#utility.yul\":10119:10120   */\n      0x00\n        /* \"#utility.yul\":10112:10143   */\n      mstore\n        /* \"#utility.yul\":10162:10166   */\n      0x32\n        /* \"#utility.yul\":10159:10160   */\n      0x04\n        /* \"#utility.yul\":10152:10167   */\n      mstore\n        /* \"#utility.yul\":10186:10190   */\n      0x24\n        /* \"#utility.yul\":10183:10184   */\n      0x00\n        /* \"#utility.yul\":10176:10191   */\n      revert\n        /* \"#utility.yul\":10202:10329   */\n    tag_282:\n        /* \"#utility.yul\":10263:10273   */\n      0x4e487b71\n        /* \"#utility.yul\":10258:10261   */\n      0xe0\n        /* \"#utility.yul\":10254:10274   */\n      shl\n        /* \"#utility.yul\":10251:10252   */\n      0x00\n        /* \"#utility.yul\":10244:10275   */\n      mstore\n        /* \"#utility.yul\":10294:10298   */\n      0x41\n        /* \"#utility.yul\":10291:10292   */\n      0x04\n        /* \"#utility.yul\":10284:10299   */\n      mstore\n        /* \"#utility.yul\":10318:10322   */\n      0x24\n        /* \"#utility.yul\":10315:10316   */\n      0x00\n        /* \"#utility.yul\":10308:10323   */\n      revert\n    stop\n    data_210f354537685f9e5e046d4cb2f76e07344954c6dc3e59ff15ac4b676d448167 02e472438281ece9fae629c31ebc952b0b512971efb1bacfc7d4441c586cff6c\n    data_b868bdfa8727775661e4ccf117824a175a33f8703d728c04488fbfffcafda9f9 f652222313e28459528d920b65115c16c04f3efc82aaedc97be59f3f377c0d3f\n\n    auxdata: 0xa2646970667358221220e374c732c714a7dc2c2e4c91dedf9812e2a38230bc730732943373c278c0470c64736f6c63430008070033\n}\n",
				"bytecode": {
					"linkReferences": {},
					"object": "6080604052632cb41780600255620186a060035534801561001f57600080fd5b5061162f8061002f6000396000f3fe608060405234801561001057600080fd5b50600436106100e65760003560e01c80630691615d146100eb5780630761c8b9146100f55780631d3eea351461011157806323b2265f146101245780632599d6d014610148578063686c4cea1461017457806372f0d72b14610189578063785963c3146101b55780637f4b8df0146101c85780637f89128f146101d05780638aa7cc0b146101d85780638e4f8c6b146101eb578063948942ad146101fe57806399067ede14610207578063a678b65b14610222578063b06cdc1214610235578063c10e391114610261578063fc83725914610269575b600080fd5b6100f361028f565b005b6100fe60025481565b6040519081526020015b60405180910390f35b6100f361011f366004611282565b6103a0565b610137610132366004611282565b61040a565b604051610108959493929190611462565b6100fe610156366004611282565b6001600160a01b031660009081526020819052604090206004015490565b61017c61055b565b60405161010891906113b4565b6100fe610197366004611282565b6001600160a01b031660009081526020819052604090206006015490565b6100f36101c33660046112e0565b610600565b6100f3610a5c565b61017c610be9565b6100f36101e6366004611353565b610cad565b6100fe6101f93660046112a4565b610cf5565b6100fe60035481565b6100fe610215366004611282565b6001600160a01b03163190565b6100f3610230366004611282565b610d25565b6100fe610243366004611282565b6001600160a01b031660009081526020819052604090206005015490565b61017c610f67565b61027c610277366004611282565b61107a565b6040516101089796959493929190611401565b60023360009081526020819052604090205460ff1660048111156102b5576102b5611577565b146102db5760405162461bcd60e51b81526004016102d2906114b0565b60405180910390fd5b3360009081526004602052604090205460ff16158015610310575033600090815260046020526040902054610100900460ff16155b6103535760405162461bcd60e51b8152602060048201526014602482015273506861736520616c72656164792061637469766560601b60448201526064016102d2565b6040805180820182526001808252602080830191825233600090815260049091529290922090518154925161ffff1990931690151561ff0019161761010092151592909202919091179055565b60023360009081526020819052604090205460ff1660048111156103c6576103c6611577565b146103e35760405162461bcd60e51b81526004016102d2906114b0565b6001600160a01b03166000908152600560205260409020600201805460ff60a01b19169055565b60056020526000908152604090208054819061042590611513565b80601f016020809104026020016040519081016040528092919081815260200182805461045190611513565b801561049e5780601f106104735761010080835404028352916020019161049e565b820191906000526020600020905b81548152906001019060200180831161048157829003601f168201915b5050505050908060010180546104b390611513565b80601f01602080910402602001604051908101604052809291908181526020018280546104df90611513565b801561052c5780601f106105015761010080835404028352916020019161052c565b820191906000526020600020905b81548152906001019060200180831161050f57829003601f168201915b505050600290930154919250506001600160a01b0381169060ff600160a01b8204811691600160a81b90041685565b606060023360009081526020819052604090205460ff16600481111561058357610583611577565b146105a05760405162461bcd60e51b81526004016102d2906114b0565b60068054806020026020016040519081016040528092919081815260200182805480156105f657602002820191906000526020600020905b81546001600160a01b031681526001909101906020018083116105d8575b5050505050905090565b3360009081526020819052604081205460ff16600481111561062457610624611577565b141580610655575060013360009081526020819052604090205460ff16600481111561065257610652611577565b14155b80610684575060023360009081526020819052604090205460ff16600481111561068157610681611577565b14155b806106b3575060033360009081526020819052604090205460ff1660048111156106b0576106b0611577565b14155b61071a5760405162461bcd60e51b815260206004820152603260248201527f4170706c69636174696f6e2063616e206f6e6c79206265207375626d697474656044820152716420627920726567756c617220757365727360701b60648201526084016102d2565b73ab8483f64d9c6d1ecf9b849ae677dd3315835cb2600090815260046020526000805160206115ba8339815191525460ff16158015610786575073ab8483f64d9c6d1ecf9b849ae677dd3315835cb260005260046020526000805160206115ba8339815191525460ff16155b6107cc5760405162461bcd60e51b8152602060048201526017602482015276105c1c1b1a58d85d1a5bdb881c1a185cd948195b991959604a1b60448201526064016102d2565b336001600160a01b038316146108445760405162461bcd60e51b815260206004820152603760248201527f596f752063616e27742073656e6420616e206170706c69636174696f6e20746f60448201527620736f6d656f6e6520656c73652773206164647265737360481b60648201526084016102d2565b60005b6006548110156108e957336001600160a01b03166006828154811061086e5761086e61158d565b6000918252602090912001546001600160a01b0316141561088e57600191505b81156108d75760405162461bcd60e51b8152602060048201526018602482015277105c1c1b1a58d85d1a5bdb88185b1c9958591e481cd95b9d60421b60448201526064016102d2565b806108e18161154e565b915050610847565b5033600090815260056020526040902060020154600160a01b900460ff16156109675760405162461bcd60e51b815260206004820152602a60248201527f596f7572206170706c69636174696f6e2068617320616c7265616479206265656044820152691b881c995a9958dd195960b21b60648201526084016102d2565b6040805160a08101825285815260208082018690526001600160a01b038516828401526001606083018190526080830152336000908152600582529290922081518051929391926109bb9284920190611141565b5060208281015180516109d49260018501920190611141565b5060408201516002909101805460608401516080909401511515600160a81b0260ff60a81b19941515600160a01b026001600160a81b03199092166001600160a01b039094169390931717929092161790555050600680546001810182556000919091526000805160206115da8339815191520180546001600160a01b031916331790555050565b60023360009081526020819052604090205460ff166004811115610a8257610a82611577565b14610a9f5760405162461bcd60e51b81526004016102d2906114b0565b3360009081526004602052604090205460ff1615156001148015610add57503360009081526004602052604090205460ff6101009091041615156001145b610b295760405162461bcd60e51b815260206004820181905260248201527f506861736520686173206e6f7420796574206265656e2061637469766174656460448201526064016102d2565b6040805180820182526000808252600160208084018281523384526004808352868520955186549251151561010090810261ff0019921515831661ffff1995861617179097558751808901909852848852878401948552734b20993bc481177ec7e8f571cecae8a9e22c02db90955290915293517fb9fe4b740977877e3fa94e7f3dbf51ffcc3fb0449ed024e5d3849f3210d56220805492511515909402901515909216931692909217919091179055633b9aca00600255611388600355565b606060003360009081526020819052604090205460ff166004811115610c1157610c11611577565b14610c4f5760405162461bcd60e51b815260206004820152600e60248201526d2cb7bab9103737ba1030b236b4b760911b60448201526064016102d2565b60088054806020026020016040519081016040528092919081815260200182805480156105f6576020028201919060005260206000209081546001600160a01b031681526001909101906020018083116105d8575050505050905090565b60023360009081526020819052604090205460ff166004811115610cd357610cd3611577565b14610cf05760405162461bcd60e51b81526004016102d2906114b0565b600255565b600081604051602001610d089190611398565b604051602081830303815290604052805190602001209050919050565b60023360009081526020819052604090205460ff166004811115610d4b57610d4b611577565b14610d685760405162461bcd60e51b81526004016102d2906114b0565b6001600160a01b038116600081815260056020818152604080842060028101805460ff60a01b191690556006805460018181019092556000805160206115da8339815191520180546001600160a01b031990811689179091556007805492830190557fa66cc928b5edb82af9bd49922954155ab7b0942694bea4ce44661d9a8736c688909101805490911687179055815160e0810190925260048252949093529081528254919290830191610e1c90611513565b80601f0160208091040260200160405190810160405280929190818152602001828054610e4890611513565b8015610e955780601f10610e6a57610100808354040283529160200191610e95565b820191906000526020600020905b815481529060010190602001808311610e7857829003601f168201915b50505050508152602001610ec1604051806040016040528060018152602001600360fc1b815250610cf5565b81526000602080830182905260408084018390526060840183905260809093018290526001600160a01b03851682528190522081518154829060ff19166001836004811115610f1257610f12611577565b02179055506020828101518051610f2f9260018501920190611141565b5060408201516002820155606082015160038201556080820151600482015560a0820151600582015560c09091015160069091015550565b606060003360009081526020819052604090205460ff166004811115610f8f57610f8f611577565b1480610fbe575060023360009081526020819052604090205460ff166004811115610fbc57610fbc611577565b145b61101c5760405162461bcd60e51b815260206004820152602960248201527f596f7520617265206e6f7420746865206f776e6572206f72207072697661746560448201526810383937bb34b232b960b91b60648201526084016102d2565b60078054806020026020016040519081016040528092919081815260200182805480156105f6576020028201919060005260206000209081546001600160a01b031681526001909101906020018083116105d8575050505050905090565b6000602081905290815260409020805460018201805460ff90921692916110a090611513565b80601f01602080910402602001604051908101604052809291908181526020018280546110cc90611513565b80156111195780601f106110ee57610100808354040283529160200191611119565b820191906000526020600020905b8154815290600101906020018083116110fc57829003601f168201915b5050505050908060020154908060030154908060040154908060050154908060060154905087565b82805461114d90611513565b90600052602060002090601f01602090048101928261116f57600085556111b5565b82601f1061118857805160ff19168380011785556111b5565b828001600101855582156111b5579182015b828111156111b557825182559160200191906001019061119a565b506111c19291506111c5565b5090565b5b808211156111c157600081556001016111c6565b80356001600160a01b03811681146111f157600080fd5b919050565b600082601f83011261120757600080fd5b81356001600160401b0380821115611221576112216115a3565b604051601f8301601f19908116603f01168101908282118183101715611249576112496115a3565b8160405283815286602085880101111561126257600080fd5b836020870160208301376000602085830101528094505050505092915050565b60006020828403121561129457600080fd5b61129d826111da565b9392505050565b6000602082840312156112b657600080fd5b81356001600160401b038111156112cc57600080fd5b6112d8848285016111f6565b949350505050565b6000806000606084860312156112f557600080fd5b83356001600160401b038082111561130c57600080fd5b611318878388016111f6565b9450602086013591508082111561132e57600080fd5b5061133b868287016111f6565b92505061134a604085016111da565b90509250925092565b60006020828403121561136557600080fd5b5035919050565b600081518084526113848160208601602086016114e3565b601f01601f19169290920160200192915050565b600082516113aa8184602087016114e3565b9190910192915050565b6020808252825182820181905260009190848201906040850190845b818110156113f55783516001600160a01b0316835292840192918401916001016113d0565b50909695505050505050565b60006005891061142157634e487b7160e01b600052602160045260246000fd5b88825260e0602083015261143860e083018961136c565b6040830197909752506060810194909452608084019290925260a083015260c09091015292915050565b60a08152600061147560a083018861136c565b8281036020840152611487818861136c565b6001600160a01b0396909616604084015250509115156060830152151560809091015292915050565b6020808252601990820152782cb7bab9103737ba10283934bb30ba3290383937bb34b232b960391b604082015260600190565b60005b838110156114fe5781810151838201526020016114e6565b8381111561150d576000848401525b50505050565b600181811c9082168061152757607f821691505b6020821081141561154857634e487b7160e01b600052602260045260246000fd5b50919050565b600060001982141561157057634e487b7160e01b600052601160045260246000fd5b5060010190565b634e487b7160e01b600052602160045260246000fd5b634e487b7160e01b600052603260045260246000fd5b634e487b7160e01b600052604160045260246000fdfe02e472438281ece9fae629c31ebc952b0b512971efb1bacfc7d4441c586cff6cf652222313e28459528d920b65115c16c04f3efc82aaedc97be59f3f377c0d3fa2646970667358221220e374c732c714a7dc2c2e4c91dedf9812e2a38230bc730732943373c278c0470c64736f6c63430008070033",
					"opcodes": "PUSH1 0x80 PUSH1 0x40 MSTORE PUSH4 0x2CB41780 PUSH1 0x2 SSTORE PUSH3 0x186A0 PUSH1 0x3 SSTORE CALLVALUE DUP1 ISZERO PUSH2 0x1F JUMPI PUSH1 0x0 DUP1 REVERT JUMPDEST POP PUSH2 0x162F DUP1 PUSH2 0x2F PUSH1 0x0 CODECOPY PUSH1 0x0 RETURN INVALID PUSH1 0x80 PUSH1 0x40 MSTORE CALLVALUE DUP1 ISZERO PUSH2 0x10 JUMPI PUSH1 0x0 DUP1 REVERT JUMPDEST POP PUSH1 0x4 CALLDATASIZE LT PUSH2 0xE6 JUMPI PUSH1 0x0 CALLDATALOAD PUSH1 0xE0 SHR DUP1 PUSH4 0x691615D EQ PUSH2 0xEB JUMPI DUP1 PUSH4 0x761C8B9 EQ PUSH2 0xF5 JUMPI DUP1 PUSH4 0x1D3EEA35 EQ PUSH2 0x111 JUMPI DUP1 PUSH4 0x23B2265F EQ PUSH2 0x124 JUMPI DUP1 PUSH4 0x2599D6D0 EQ PUSH2 0x148 JUMPI DUP1 PUSH4 0x686C4CEA EQ PUSH2 0x174 JUMPI DUP1 PUSH4 0x72F0D72B EQ PUSH2 0x189 JUMPI DUP1 PUSH4 0x785963C3 EQ PUSH2 0x1B5 JUMPI DUP1 PUSH4 0x7F4B8DF0 EQ PUSH2 0x1C8 JUMPI DUP1 PUSH4 0x7F89128F EQ PUSH2 0x1D0 JUMPI DUP1 PUSH4 0x8AA7CC0B EQ PUSH2 0x1D8 JUMPI DUP1 PUSH4 0x8E4F8C6B EQ PUSH2 0x1EB JUMPI DUP1 PUSH4 0x948942AD EQ PUSH2 0x1FE JUMPI DUP1 PUSH4 0x99067EDE EQ PUSH2 0x207 JUMPI DUP1 PUSH4 0xA678B65B EQ PUSH2 0x222 JUMPI DUP1 PUSH4 0xB06CDC12 EQ PUSH2 0x235 JUMPI DUP1 PUSH4 0xC10E3911 EQ PUSH2 0x261 JUMPI DUP1 PUSH4 0xFC837259 EQ PUSH2 0x269 JUMPI JUMPDEST PUSH1 0x0 DUP1 REVERT JUMPDEST PUSH2 0xF3 PUSH2 0x28F JUMP JUMPDEST STOP JUMPDEST PUSH2 0xFE PUSH1 0x2 SLOAD DUP2 JUMP JUMPDEST PUSH1 0x40 MLOAD SWAP1 DUP2 MSTORE PUSH1 0x20 ADD JUMPDEST PUSH1 0x40 MLOAD DUP1 SWAP2 SUB SWAP1 RETURN JUMPDEST PUSH2 0xF3 PUSH2 0x11F CALLDATASIZE PUSH1 0x4 PUSH2 0x1282 JUMP JUMPDEST PUSH2 0x3A0 JUMP JUMPDEST PUSH2 0x137 PUSH2 0x132 CALLDATASIZE PUSH1 0x4 PUSH2 0x1282 JUMP JUMPDEST PUSH2 0x40A JUMP JUMPDEST PUSH1 0x40 MLOAD PUSH2 0x108 SWAP6 SWAP5 SWAP4 SWAP3 SWAP2 SWAP1 PUSH2 0x1462 JUMP JUMPDEST PUSH2 0xFE PUSH2 0x156 CALLDATASIZE PUSH1 0x4 PUSH2 0x1282 JUMP JUMPDEST PUSH1 0x1 PUSH1 0x1 PUSH1 0xA0 SHL SUB AND PUSH1 0x0 SWAP1 DUP2 MSTORE PUSH1 0x20 DUP2 SWAP1 MSTORE PUSH1 0x40 SWAP1 KECCAK256 PUSH1 0x4 ADD SLOAD SWAP1 JUMP JUMPDEST PUSH2 0x17C PUSH2 0x55B JUMP JUMPDEST PUSH1 0x40 MLOAD PUSH2 0x108 SWAP2 SWAP1 PUSH2 0x13B4 JUMP JUMPDEST PUSH2 0xFE PUSH2 0x197 CALLDATASIZE PUSH1 0x4 PUSH2 0x1282 JUMP JUMPDEST PUSH1 0x1 PUSH1 0x1 PUSH1 0xA0 SHL SUB AND PUSH1 0x0 SWAP1 DUP2 MSTORE PUSH1 0x20 DUP2 SWAP1 MSTORE PUSH1 0x40 SWAP1 KECCAK256 PUSH1 0x6 ADD SLOAD SWAP1 JUMP JUMPDEST PUSH2 0xF3 PUSH2 0x1C3 CALLDATASIZE PUSH1 0x4 PUSH2 0x12E0 JUMP JUMPDEST PUSH2 0x600 JUMP JUMPDEST PUSH2 0xF3 PUSH2 0xA5C JUMP JUMPDEST PUSH2 0x17C PUSH2 0xBE9 JUMP JUMPDEST PUSH2 0xF3 PUSH2 0x1E6 CALLDATASIZE PUSH1 0x4 PUSH2 0x1353 JUMP JUMPDEST PUSH2 0xCAD JUMP JUMPDEST PUSH2 0xFE PUSH2 0x1F9 CALLDATASIZE PUSH1 0x4 PUSH2 0x12A4 JUMP JUMPDEST PUSH2 0xCF5 JUMP JUMPDEST PUSH2 0xFE PUSH1 0x3 SLOAD DUP2 JUMP JUMPDEST PUSH2 0xFE PUSH2 0x215 CALLDATASIZE PUSH1 0x4 PUSH2 0x1282 JUMP JUMPDEST PUSH1 0x1 PUSH1 0x1 PUSH1 0xA0 SHL SUB AND BALANCE SWAP1 JUMP JUMPDEST PUSH2 0xF3 PUSH2 0x230 CALLDATASIZE PUSH1 0x4 PUSH2 0x1282 JUMP JUMPDEST PUSH2 0xD25 JUMP JUMPDEST PUSH2 0xFE PUSH2 0x243 CALLDATASIZE PUSH1 0x4 PUSH2 0x1282 JUMP JUMPDEST PUSH1 0x1 PUSH1 0x1 PUSH1 0xA0 SHL SUB AND PUSH1 0x0 SWAP1 DUP2 MSTORE PUSH1 0x20 DUP2 SWAP1 MSTORE PUSH1 0x40 SWAP1 KECCAK256 PUSH1 0x5 ADD SLOAD SWAP1 JUMP JUMPDEST PUSH2 0x17C PUSH2 0xF67 JUMP JUMPDEST PUSH2 0x27C PUSH2 0x277 CALLDATASIZE PUSH1 0x4 PUSH2 0x1282 JUMP JUMPDEST PUSH2 0x107A JUMP JUMPDEST PUSH1 0x40 MLOAD PUSH2 0x108 SWAP8 SWAP7 SWAP6 SWAP5 SWAP4 SWAP3 SWAP2 SWAP1 PUSH2 0x1401 JUMP JUMPDEST PUSH1 0x2 CALLER PUSH1 0x0 SWAP1 DUP2 MSTORE PUSH1 0x20 DUP2 SWAP1 MSTORE PUSH1 0x40 SWAP1 KECCAK256 SLOAD PUSH1 0xFF AND PUSH1 0x4 DUP2 GT ISZERO PUSH2 0x2B5 JUMPI PUSH2 0x2B5 PUSH2 0x1577 JUMP JUMPDEST EQ PUSH2 0x2DB JUMPI PUSH1 0x40 MLOAD PUSH3 0x461BCD PUSH1 0xE5 SHL DUP2 MSTORE PUSH1 0x4 ADD PUSH2 0x2D2 SWAP1 PUSH2 0x14B0 JUMP JUMPDEST PUSH1 0x40 MLOAD DUP1 SWAP2 SUB SWAP1 REVERT JUMPDEST CALLER PUSH1 0x0 SWAP1 DUP2 MSTORE PUSH1 0x4 PUSH1 0x20 MSTORE PUSH1 0x40 SWAP1 KECCAK256 SLOAD PUSH1 0xFF AND ISZERO DUP1 ISZERO PUSH2 0x310 JUMPI POP CALLER PUSH1 0x0 SWAP1 DUP2 MSTORE PUSH1 0x4 PUSH1 0x20 MSTORE PUSH1 0x40 SWAP1 KECCAK256 SLOAD PUSH2 0x100 SWAP1 DIV PUSH1 0xFF AND ISZERO JUMPDEST PUSH2 0x353 JUMPI PUSH1 0x40 MLOAD PUSH3 0x461BCD PUSH1 0xE5 SHL DUP2 MSTORE PUSH1 0x20 PUSH1 0x4 DUP3 ADD MSTORE PUSH1 0x14 PUSH1 0x24 DUP3 ADD MSTORE PUSH20 0x506861736520616C726561647920616374697665 PUSH1 0x60 SHL PUSH1 0x44 DUP3 ADD MSTORE PUSH1 0x64 ADD PUSH2 0x2D2 JUMP JUMPDEST PUSH1 0x40 DUP1 MLOAD DUP1 DUP3 ADD DUP3 MSTORE PUSH1 0x1 DUP1 DUP3 MSTORE PUSH1 0x20 DUP1 DUP4 ADD SWAP2 DUP3 MSTORE CALLER PUSH1 0x0 SWAP1 DUP2 MSTORE PUSH1 0x4 SWAP1 SWAP2 MSTORE SWAP3 SWAP1 SWAP3 KECCAK256 SWAP1 MLOAD DUP2 SLOAD SWAP3 MLOAD PUSH2 0xFFFF NOT SWAP1 SWAP4 AND SWAP1 ISZERO ISZERO PUSH2 0xFF00 NOT AND OR PUSH2 0x100 SWAP3 ISZERO ISZERO SWAP3 SWAP1 SWAP3 MUL SWAP2 SWAP1 SWAP2 OR SWAP1 SSTORE JUMP JUMPDEST PUSH1 0x2 CALLER PUSH1 0x0 SWAP1 DUP2 MSTORE PUSH1 0x20 DUP2 SWAP1 MSTORE PUSH1 0x40 SWAP1 KECCAK256 SLOAD PUSH1 0xFF AND PUSH1 0x4 DUP2 GT ISZERO PUSH2 0x3C6 JUMPI PUSH2 0x3C6 PUSH2 0x1577 JUMP JUMPDEST EQ PUSH2 0x3E3 JUMPI PUSH1 0x40 MLOAD PUSH3 0x461BCD PUSH1 0xE5 SHL DUP2 MSTORE PUSH1 0x4 ADD PUSH2 0x2D2 SWAP1 PUSH2 0x14B0 JUMP JUMPDEST PUSH1 0x1 PUSH1 0x1 PUSH1 0xA0 SHL SUB AND PUSH1 0x0 SWAP1 DUP2 MSTORE PUSH1 0x5 PUSH1 0x20 MSTORE PUSH1 0x40 SWAP1 KECCAK256 PUSH1 0x2 ADD DUP1 SLOAD PUSH1 0xFF PUSH1 0xA0 SHL NOT AND SWAP1 SSTORE JUMP JUMPDEST PUSH1 0x5 PUSH1 0x20 MSTORE PUSH1 0x0 SWAP1 DUP2 MSTORE PUSH1 0x40 SWAP1 KECCAK256 DUP1 SLOAD DUP2 SWAP1 PUSH2 0x425 SWAP1 PUSH2 0x1513 JUMP JUMPDEST DUP1 PUSH1 0x1F ADD PUSH1 0x20 DUP1 SWAP2 DIV MUL PUSH1 0x20 ADD PUSH1 0x40 MLOAD SWAP1 DUP2 ADD PUSH1 0x40 MSTORE DUP1 SWAP3 SWAP2 SWAP1 DUP2 DUP2 MSTORE PUSH1 0x20 ADD DUP3 DUP1 SLOAD PUSH2 0x451 SWAP1 PUSH2 0x1513 JUMP JUMPDEST DUP1 ISZERO PUSH2 0x49E JUMPI DUP1 PUSH1 0x1F LT PUSH2 0x473 JUMPI PUSH2 0x100 DUP1 DUP4 SLOAD DIV MUL DUP4 MSTORE SWAP2 PUSH1 0x20 ADD SWAP2 PUSH2 0x49E JUMP JUMPDEST DUP3 ADD SWAP2 SWAP1 PUSH1 0x0 MSTORE PUSH1 0x20 PUSH1 0x0 KECCAK256 SWAP1 JUMPDEST DUP2 SLOAD DUP2 MSTORE SWAP1 PUSH1 0x1 ADD SWAP1 PUSH1 0x20 ADD DUP1 DUP4 GT PUSH2 0x481 JUMPI DUP3 SWAP1 SUB PUSH1 0x1F AND DUP3 ADD SWAP2 JUMPDEST POP POP POP POP POP SWAP1 DUP1 PUSH1 0x1 ADD DUP1 SLOAD PUSH2 0x4B3 SWAP1 PUSH2 0x1513 JUMP JUMPDEST DUP1 PUSH1 0x1F ADD PUSH1 0x20 DUP1 SWAP2 DIV MUL PUSH1 0x20 ADD PUSH1 0x40 MLOAD SWAP1 DUP2 ADD PUSH1 0x40 MSTORE DUP1 SWAP3 SWAP2 SWAP1 DUP2 DUP2 MSTORE PUSH1 0x20 ADD DUP3 DUP1 SLOAD PUSH2 0x4DF SWAP1 PUSH2 0x1513 JUMP JUMPDEST DUP1 ISZERO PUSH2 0x52C JUMPI DUP1 PUSH1 0x1F LT PUSH2 0x501 JUMPI PUSH2 0x100 DUP1 DUP4 SLOAD DIV MUL DUP4 MSTORE SWAP2 PUSH1 0x20 ADD SWAP2 PUSH2 0x52C JUMP JUMPDEST DUP3 ADD SWAP2 SWAP1 PUSH1 0x0 MSTORE PUSH1 0x20 PUSH1 0x0 KECCAK256 SWAP1 JUMPDEST DUP2 SLOAD DUP2 MSTORE SWAP1 PUSH1 0x1 ADD SWAP1 PUSH1 0x20 ADD DUP1 DUP4 GT PUSH2 0x50F JUMPI DUP3 SWAP1 SUB PUSH1 0x1F AND DUP3 ADD SWAP2 JUMPDEST POP POP POP PUSH1 0x2 SWAP1 SWAP4 ADD SLOAD SWAP2 SWAP3 POP POP PUSH1 0x1 PUSH1 0x1 PUSH1 0xA0 SHL SUB DUP2 AND SWAP1 PUSH1 0xFF PUSH1 0x1 PUSH1 0xA0 SHL DUP3 DIV DUP2 AND SWAP2 PUSH1 0x1 PUSH1 0xA8 SHL SWAP1 DIV AND DUP6 JUMP JUMPDEST PUSH1 0x60 PUSH1 0x2 CALLER PUSH1 0x0 SWAP1 DUP2 MSTORE PUSH1 0x20 DUP2 SWAP1 MSTORE PUSH1 0x40 SWAP1 KECCAK256 SLOAD PUSH1 0xFF AND PUSH1 0x4 DUP2 GT ISZERO PUSH2 0x583 JUMPI PUSH2 0x583 PUSH2 0x1577 JUMP JUMPDEST EQ PUSH2 0x5A0 JUMPI PUSH1 0x40 MLOAD PUSH3 0x461BCD PUSH1 0xE5 SHL DUP2 MSTORE PUSH1 0x4 ADD PUSH2 0x2D2 SWAP1 PUSH2 0x14B0 JUMP JUMPDEST PUSH1 0x6 DUP1 SLOAD DUP1 PUSH1 0x20 MUL PUSH1 0x20 ADD PUSH1 0x40 MLOAD SWAP1 DUP2 ADD PUSH1 0x40 MSTORE DUP1 SWAP3 SWAP2 SWAP1 DUP2 DUP2 MSTORE PUSH1 0x20 ADD DUP3 DUP1 SLOAD DUP1 ISZERO PUSH2 0x5F6 JUMPI PUSH1 0x20 MUL DUP3 ADD SWAP2 SWAP1 PUSH1 0x0 MSTORE PUSH1 0x20 PUSH1 0x0 KECCAK256 SWAP1 JUMPDEST DUP2 SLOAD PUSH1 0x1 PUSH1 0x1 PUSH1 0xA0 SHL SUB AND DUP2 MSTORE PUSH1 0x1 SWAP1 SWAP2 ADD SWAP1 PUSH1 0x20 ADD DUP1 DUP4 GT PUSH2 0x5D8 JUMPI JUMPDEST POP POP POP POP POP SWAP1 POP SWAP1 JUMP JUMPDEST CALLER PUSH1 0x0 SWAP1 DUP2 MSTORE PUSH1 0x20 DUP2 SWAP1 MSTORE PUSH1 0x40 DUP2 KECCAK256 SLOAD PUSH1 0xFF AND PUSH1 0x4 DUP2 GT ISZERO PUSH2 0x624 JUMPI PUSH2 0x624 PUSH2 0x1577 JUMP JUMPDEST EQ ISZERO DUP1 PUSH2 0x655 JUMPI POP PUSH1 0x1 CALLER PUSH1 0x0 SWAP1 DUP2 MSTORE PUSH1 0x20 DUP2 SWAP1 MSTORE PUSH1 0x40 SWAP1 KECCAK256 SLOAD PUSH1 0xFF AND PUSH1 0x4 DUP2 GT ISZERO PUSH2 0x652 JUMPI PUSH2 0x652 PUSH2 0x1577 JUMP JUMPDEST EQ ISZERO JUMPDEST DUP1 PUSH2 0x684 JUMPI POP PUSH1 0x2 CALLER PUSH1 0x0 SWAP1 DUP2 MSTORE PUSH1 0x20 DUP2 SWAP1 MSTORE PUSH1 0x40 SWAP1 KECCAK256 SLOAD PUSH1 0xFF AND PUSH1 0x4 DUP2 GT ISZERO PUSH2 0x681 JUMPI PUSH2 0x681 PUSH2 0x1577 JUMP JUMPDEST EQ ISZERO JUMPDEST DUP1 PUSH2 0x6B3 JUMPI POP PUSH1 0x3 CALLER PUSH1 0x0 SWAP1 DUP2 MSTORE PUSH1 0x20 DUP2 SWAP1 MSTORE PUSH1 0x40 SWAP1 KECCAK256 SLOAD PUSH1 0xFF AND PUSH1 0x4 DUP2 GT ISZERO PUSH2 0x6B0 JUMPI PUSH2 0x6B0 PUSH2 0x1577 JUMP JUMPDEST EQ ISZERO JUMPDEST PUSH2 0x71A JUMPI PUSH1 0x40 MLOAD PUSH3 0x461BCD PUSH1 0xE5 SHL DUP2 MSTORE PUSH1 0x20 PUSH1 0x4 DUP3 ADD MSTORE PUSH1 0x32 PUSH1 0x24 DUP3 ADD MSTORE PUSH32 0x4170706C69636174696F6E2063616E206F6E6C79206265207375626D69747465 PUSH1 0x44 DUP3 ADD MSTORE PUSH18 0x6420627920726567756C6172207573657273 PUSH1 0x70 SHL PUSH1 0x64 DUP3 ADD MSTORE PUSH1 0x84 ADD PUSH2 0x2D2 JUMP JUMPDEST PUSH20 0xAB8483F64D9C6D1ECF9B849AE677DD3315835CB2 PUSH1 0x0 SWAP1 DUP2 MSTORE PUSH1 0x4 PUSH1 0x20 MSTORE PUSH1 0x0 DUP1 MLOAD PUSH1 0x20 PUSH2 0x15BA DUP4 CODECOPY DUP2 MLOAD SWAP2 MSTORE SLOAD PUSH1 0xFF AND ISZERO DUP1 ISZERO PUSH2 0x786 JUMPI POP PUSH20 0xAB8483F64D9C6D1ECF9B849AE677DD3315835CB2 PUSH1 0x0 MSTORE PUSH1 0x4 PUSH1 0x20 MSTORE PUSH1 0x0 DUP1 MLOAD PUSH1 0x20 PUSH2 0x15BA DUP4 CODECOPY DUP2 MLOAD SWAP2 MSTORE SLOAD PUSH1 0xFF AND ISZERO JUMPDEST PUSH2 0x7CC JUMPI PUSH1 0x40 MLOAD PUSH3 0x461BCD PUSH1 0xE5 SHL DUP2 MSTORE PUSH1 0x20 PUSH1 0x4 DUP3 ADD MSTORE PUSH1 0x17 PUSH1 0x24 DUP3 ADD MSTORE PUSH23 0x105C1C1B1A58D85D1A5BDB881C1A185CD948195B991959 PUSH1 0x4A SHL PUSH1 0x44 DUP3 ADD MSTORE PUSH1 0x64 ADD PUSH2 0x2D2 JUMP JUMPDEST CALLER PUSH1 0x1 PUSH1 0x1 PUSH1 0xA0 SHL SUB DUP4 AND EQ PUSH2 0x844 JUMPI PUSH1 0x40 MLOAD PUSH3 0x461BCD PUSH1 0xE5 SHL DUP2 MSTORE PUSH1 0x20 PUSH1 0x4 DUP3 ADD MSTORE PUSH1 0x37 PUSH1 0x24 DUP3 ADD MSTORE PUSH32 0x596F752063616E27742073656E6420616E206170706C69636174696F6E20746F PUSH1 0x44 DUP3 ADD MSTORE PUSH23 0x20736F6D656F6E6520656C736527732061646472657373 PUSH1 0x48 SHL PUSH1 0x64 DUP3 ADD MSTORE PUSH1 0x84 ADD PUSH2 0x2D2 JUMP JUMPDEST PUSH1 0x0 JUMPDEST PUSH1 0x6 SLOAD DUP2 LT ISZERO PUSH2 0x8E9 JUMPI CALLER PUSH1 0x1 PUSH1 0x1 PUSH1 0xA0 SHL SUB AND PUSH1 0x6 DUP3 DUP2 SLOAD DUP2 LT PUSH2 0x86E JUMPI PUSH2 0x86E PUSH2 0x158D JUMP JUMPDEST PUSH1 0x0 SWAP2 DUP3 MSTORE PUSH1 0x20 SWAP1 SWAP2 KECCAK256 ADD SLOAD PUSH1 0x1 PUSH1 0x1 PUSH1 0xA0 SHL SUB AND EQ ISZERO PUSH2 0x88E JUMPI PUSH1 0x1 SWAP2 POP JUMPDEST DUP2 ISZERO PUSH2 0x8D7 JUMPI PUSH1 0x40 MLOAD PUSH3 0x461BCD PUSH1 0xE5 SHL DUP2 MSTORE PUSH1 0x20 PUSH1 0x4 DUP3 ADD MSTORE PUSH1 0x18 PUSH1 0x24 DUP3 ADD MSTORE PUSH24 0x105C1C1B1A58D85D1A5BDB88185B1C9958591E481CD95B9D PUSH1 0x42 SHL PUSH1 0x44 DUP3 ADD MSTORE PUSH1 0x64 ADD PUSH2 0x2D2 JUMP JUMPDEST DUP1 PUSH2 0x8E1 DUP2 PUSH2 0x154E JUMP JUMPDEST SWAP2 POP POP PUSH2 0x847 JUMP JUMPDEST POP CALLER PUSH1 0x0 SWAP1 DUP2 MSTORE PUSH1 0x5 PUSH1 0x20 MSTORE PUSH1 0x40 SWAP1 KECCAK256 PUSH1 0x2 ADD SLOAD PUSH1 0x1 PUSH1 0xA0 SHL SWAP1 DIV PUSH1 0xFF AND ISZERO PUSH2 0x967 JUMPI PUSH1 0x40 MLOAD PUSH3 0x461BCD PUSH1 0xE5 SHL DUP2 MSTORE PUSH1 0x20 PUSH1 0x4 DUP3 ADD MSTORE PUSH1 0x2A PUSH1 0x24 DUP3 ADD MSTORE PUSH32 0x596F7572206170706C69636174696F6E2068617320616C726561647920626565 PUSH1 0x44 DUP3 ADD MSTORE PUSH10 0x1B881C995A9958DD1959 PUSH1 0xB2 SHL PUSH1 0x64 DUP3 ADD MSTORE PUSH1 0x84 ADD PUSH2 0x2D2 JUMP JUMPDEST PUSH1 0x40 DUP1 MLOAD PUSH1 0xA0 DUP2 ADD DUP3 MSTORE DUP6 DUP2 MSTORE PUSH1 0x20 DUP1 DUP3 ADD DUP7 SWAP1 MSTORE PUSH1 0x1 PUSH1 0x1 PUSH1 0xA0 SHL SUB DUP6 AND DUP3 DUP5 ADD MSTORE PUSH1 0x1 PUSH1 0x60 DUP4 ADD DUP2 SWAP1 MSTORE PUSH1 0x80 DUP4 ADD MSTORE CALLER PUSH1 0x0 SWAP1 DUP2 MSTORE PUSH1 0x5 DUP3 MSTORE SWAP3 SWAP1 SWAP3 KECCAK256 DUP2 MLOAD DUP1 MLOAD SWAP3 SWAP4 SWAP2 SWAP3 PUSH2 0x9BB SWAP3 DUP5 SWAP3 ADD SWAP1 PUSH2 0x1141 JUMP JUMPDEST POP PUSH1 0x20 DUP3 DUP2 ADD MLOAD DUP1 MLOAD PUSH2 0x9D4 SWAP3 PUSH1 0x1 DUP6 ADD SWAP3 ADD SWAP1 PUSH2 0x1141 JUMP JUMPDEST POP PUSH1 0x40 DUP3 ADD MLOAD PUSH1 0x2 SWAP1 SWAP2 ADD DUP1 SLOAD PUSH1 0x60 DUP5 ADD MLOAD PUSH1 0x80 SWAP1 SWAP5 ADD MLOAD ISZERO ISZERO PUSH1 0x1 PUSH1 0xA8 SHL MUL PUSH1 0xFF PUSH1 0xA8 SHL NOT SWAP5 ISZERO ISZERO PUSH1 0x1 PUSH1 0xA0 SHL MUL PUSH1 0x1 PUSH1 0x1 PUSH1 0xA8 SHL SUB NOT SWAP1 SWAP3 AND PUSH1 0x1 PUSH1 0x1 PUSH1 0xA0 SHL SUB SWAP1 SWAP5 AND SWAP4 SWAP1 SWAP4 OR OR SWAP3 SWAP1 SWAP3 AND OR SWAP1 SSTORE POP POP PUSH1 0x6 DUP1 SLOAD PUSH1 0x1 DUP2 ADD DUP3 SSTORE PUSH1 0x0 SWAP2 SWAP1 SWAP2 MSTORE PUSH1 0x0 DUP1 MLOAD PUSH1 0x20 PUSH2 0x15DA DUP4 CODECOPY DUP2 MLOAD SWAP2 MSTORE ADD DUP1 SLOAD PUSH1 0x1 PUSH1 0x1 PUSH1 0xA0 SHL SUB NOT AND CALLER OR SWAP1 SSTORE POP POP JUMP JUMPDEST PUSH1 0x2 CALLER PUSH1 0x0 SWAP1 DUP2 MSTORE PUSH1 0x20 DUP2 SWAP1 MSTORE PUSH1 0x40 SWAP1 KECCAK256 SLOAD PUSH1 0xFF AND PUSH1 0x4 DUP2 GT ISZERO PUSH2 0xA82 JUMPI PUSH2 0xA82 PUSH2 0x1577 JUMP JUMPDEST EQ PUSH2 0xA9F JUMPI PUSH1 0x40 MLOAD PUSH3 0x461BCD PUSH1 0xE5 SHL DUP2 MSTORE PUSH1 0x4 ADD PUSH2 0x2D2 SWAP1 PUSH2 0x14B0 JUMP JUMPDEST CALLER PUSH1 0x0 SWAP1 DUP2 MSTORE PUSH1 0x4 PUSH1 0x20 MSTORE PUSH1 0x40 SWAP1 KECCAK256 SLOAD PUSH1 0xFF AND ISZERO ISZERO PUSH1 0x1 EQ DUP1 ISZERO PUSH2 0xADD JUMPI POP CALLER PUSH1 0x0 SWAP1 DUP2 MSTORE PUSH1 0x4 PUSH1 0x20 MSTORE PUSH1 0x40 SWAP1 KECCAK256 SLOAD PUSH1 0xFF PUSH2 0x100 SWAP1 SWAP2 DIV AND ISZERO ISZERO PUSH1 0x1 EQ JUMPDEST PUSH2 0xB29 JUMPI PUSH1 0x40 MLOAD PUSH3 0x461BCD PUSH1 0xE5 SHL DUP2 MSTORE PUSH1 0x20 PUSH1 0x4 DUP3 ADD DUP2 SWAP1 MSTORE PUSH1 0x24 DUP3 ADD MSTORE PUSH32 0x506861736520686173206E6F7420796574206265656E20616374697661746564 PUSH1 0x44 DUP3 ADD MSTORE PUSH1 0x64 ADD PUSH2 0x2D2 JUMP JUMPDEST PUSH1 0x40 DUP1 MLOAD DUP1 DUP3 ADD DUP3 MSTORE PUSH1 0x0 DUP1 DUP3 MSTORE PUSH1 0x1 PUSH1 0x20 DUP1 DUP5 ADD DUP3 DUP2 MSTORE CALLER DUP5 MSTORE PUSH1 0x4 DUP1 DUP4 MSTORE DUP7 DUP6 KECCAK256 SWAP6 MLOAD DUP7 SLOAD SWAP3 MLOAD ISZERO ISZERO PUSH2 0x100 SWAP1 DUP2 MUL PUSH2 0xFF00 NOT SWAP3 ISZERO ISZERO DUP4 AND PUSH2 0xFFFF NOT SWAP6 DUP7 AND OR OR SWAP1 SWAP8 SSTORE DUP8 MLOAD DUP1 DUP10 ADD SWAP1 SWAP9 MSTORE DUP5 DUP9 MSTORE DUP8 DUP5 ADD SWAP5 DUP6 MSTORE PUSH20 0x4B20993BC481177EC7E8F571CECAE8A9E22C02DB SWAP1 SWAP6 MSTORE SWAP1 SWAP2 MSTORE SWAP4 MLOAD PUSH32 0xB9FE4B740977877E3FA94E7F3DBF51FFCC3FB0449ED024E5D3849F3210D56220 DUP1 SLOAD SWAP3 MLOAD ISZERO ISZERO SWAP1 SWAP5 MUL SWAP1 ISZERO ISZERO SWAP1 SWAP3 AND SWAP4 AND SWAP3 SWAP1 SWAP3 OR SWAP2 SWAP1 SWAP2 OR SWAP1 SSTORE PUSH4 0x3B9ACA00 PUSH1 0x2 SSTORE PUSH2 0x1388 PUSH1 0x3 SSTORE JUMP JUMPDEST PUSH1 0x60 PUSH1 0x0 CALLER PUSH1 0x0 SWAP1 DUP2 MSTORE PUSH1 0x20 DUP2 SWAP1 MSTORE PUSH1 0x40 SWAP1 KECCAK256 SLOAD PUSH1 0xFF AND PUSH1 0x4 DUP2 GT ISZERO PUSH2 0xC11 JUMPI PUSH2 0xC11 PUSH2 0x1577 JUMP JUMPDEST EQ PUSH2 0xC4F JUMPI PUSH1 0x40 MLOAD PUSH3 0x461BCD PUSH1 0xE5 SHL DUP2 MSTORE PUSH1 0x20 PUSH1 0x4 DUP3 ADD MSTORE PUSH1 0xE PUSH1 0x24 DUP3 ADD MSTORE PUSH14 0x2CB7BAB9103737BA1030B236B4B7 PUSH1 0x91 SHL PUSH1 0x44 DUP3 ADD MSTORE PUSH1 0x64 ADD PUSH2 0x2D2 JUMP JUMPDEST PUSH1 0x8 DUP1 SLOAD DUP1 PUSH1 0x20 MUL PUSH1 0x20 ADD PUSH1 0x40 MLOAD SWAP1 DUP2 ADD PUSH1 0x40 MSTORE DUP1 SWAP3 SWAP2 SWAP1 DUP2 DUP2 MSTORE PUSH1 0x20 ADD DUP3 DUP1 SLOAD DUP1 ISZERO PUSH2 0x5F6 JUMPI PUSH1 0x20 MUL DUP3 ADD SWAP2 SWAP1 PUSH1 0x0 MSTORE PUSH1 0x20 PUSH1 0x0 KECCAK256 SWAP1 DUP2 SLOAD PUSH1 0x1 PUSH1 0x1 PUSH1 0xA0 SHL SUB AND DUP2 MSTORE PUSH1 0x1 SWAP1 SWAP2 ADD SWAP1 PUSH1 0x20 ADD DUP1 DUP4 GT PUSH2 0x5D8 JUMPI POP POP POP POP POP SWAP1 POP SWAP1 JUMP JUMPDEST PUSH1 0x2 CALLER PUSH1 0x0 SWAP1 DUP2 MSTORE PUSH1 0x20 DUP2 SWAP1 MSTORE PUSH1 0x40 SWAP1 KECCAK256 SLOAD PUSH1 0xFF AND PUSH1 0x4 DUP2 GT ISZERO PUSH2 0xCD3 JUMPI PUSH2 0xCD3 PUSH2 0x1577 JUMP JUMPDEST EQ PUSH2 0xCF0 JUMPI PUSH1 0x40 MLOAD PUSH3 0x461BCD PUSH1 0xE5 SHL DUP2 MSTORE PUSH1 0x4 ADD PUSH2 0x2D2 SWAP1 PUSH2 0x14B0 JUMP JUMPDEST PUSH1 0x2 SSTORE JUMP JUMPDEST PUSH1 0x0 DUP2 PUSH1 0x40 MLOAD PUSH1 0x20 ADD PUSH2 0xD08 SWAP2 SWAP1 PUSH2 0x1398 JUMP JUMPDEST PUSH1 0x40 MLOAD PUSH1 0x20 DUP2 DUP4 SUB SUB DUP2 MSTORE SWAP1 PUSH1 0x40 MSTORE DUP1 MLOAD SWAP1 PUSH1 0x20 ADD KECCAK256 SWAP1 POP SWAP2 SWAP1 POP JUMP JUMPDEST PUSH1 0x2 CALLER PUSH1 0x0 SWAP1 DUP2 MSTORE PUSH1 0x20 DUP2 SWAP1 MSTORE PUSH1 0x40 SWAP1 KECCAK256 SLOAD PUSH1 0xFF AND PUSH1 0x4 DUP2 GT ISZERO PUSH2 0xD4B JUMPI PUSH2 0xD4B PUSH2 0x1577 JUMP JUMPDEST EQ PUSH2 0xD68 JUMPI PUSH1 0x40 MLOAD PUSH3 0x461BCD PUSH1 0xE5 SHL DUP2 MSTORE PUSH1 0x4 ADD PUSH2 0x2D2 SWAP1 PUSH2 0x14B0 JUMP JUMPDEST PUSH1 0x1 PUSH1 0x1 PUSH1 0xA0 SHL SUB DUP2 AND PUSH1 0x0 DUP2 DUP2 MSTORE PUSH1 0x5 PUSH1 0x20 DUP2 DUP2 MSTORE PUSH1 0x40 DUP1 DUP5 KECCAK256 PUSH1 0x2 DUP2 ADD DUP1 SLOAD PUSH1 0xFF PUSH1 0xA0 SHL NOT AND SWAP1 SSTORE PUSH1 0x6 DUP1 SLOAD PUSH1 0x1 DUP2 DUP2 ADD SWAP1 SWAP3 SSTORE PUSH1 0x0 DUP1 MLOAD PUSH1 0x20 PUSH2 0x15DA DUP4 CODECOPY DUP2 MLOAD SWAP2 MSTORE ADD DUP1 SLOAD PUSH1 0x1 PUSH1 0x1 PUSH1 0xA0 SHL SUB NOT SWAP1 DUP2 AND DUP10 OR SWAP1 SWAP2 SSTORE PUSH1 0x7 DUP1 SLOAD SWAP3 DUP4 ADD SWAP1 SSTORE PUSH32 0xA66CC928B5EDB82AF9BD49922954155AB7B0942694BEA4CE44661D9A8736C688 SWAP1 SWAP2 ADD DUP1 SLOAD SWAP1 SWAP2 AND DUP8 OR SWAP1 SSTORE DUP2 MLOAD PUSH1 0xE0 DUP2 ADD SWAP1 SWAP3 MSTORE PUSH1 0x4 DUP3 MSTORE SWAP5 SWAP1 SWAP4 MSTORE SWAP1 DUP2 MSTORE DUP3 SLOAD SWAP2 SWAP3 SWAP1 DUP4 ADD SWAP2 PUSH2 0xE1C SWAP1 PUSH2 0x1513 JUMP JUMPDEST DUP1 PUSH1 0x1F ADD PUSH1 0x20 DUP1 SWAP2 DIV MUL PUSH1 0x20 ADD PUSH1 0x40 MLOAD SWAP1 DUP2 ADD PUSH1 0x40 MSTORE DUP1 SWAP3 SWAP2 SWAP1 DUP2 DUP2 MSTORE PUSH1 0x20 ADD DUP3 DUP1 SLOAD PUSH2 0xE48 SWAP1 PUSH2 0x1513 JUMP JUMPDEST DUP1 ISZERO PUSH2 0xE95 JUMPI DUP1 PUSH1 0x1F LT PUSH2 0xE6A JUMPI PUSH2 0x100 DUP1 DUP4 SLOAD DIV MUL DUP4 MSTORE SWAP2 PUSH1 0x20 ADD SWAP2 PUSH2 0xE95 JUMP JUMPDEST DUP3 ADD SWAP2 SWAP1 PUSH1 0x0 MSTORE PUSH1 0x20 PUSH1 0x0 KECCAK256 SWAP1 JUMPDEST DUP2 SLOAD DUP2 MSTORE SWAP1 PUSH1 0x1 ADD SWAP1 PUSH1 0x20 ADD DUP1 DUP4 GT PUSH2 0xE78 JUMPI DUP3 SWAP1 SUB PUSH1 0x1F AND DUP3 ADD SWAP2 JUMPDEST POP POP POP POP POP DUP2 MSTORE PUSH1 0x20 ADD PUSH2 0xEC1 PUSH1 0x40 MLOAD DUP1 PUSH1 0x40 ADD PUSH1 0x40 MSTORE DUP1 PUSH1 0x1 DUP2 MSTORE PUSH1 0x20 ADD PUSH1 0x3 PUSH1 0xFC SHL DUP2 MSTORE POP PUSH2 0xCF5 JUMP JUMPDEST DUP2 MSTORE PUSH1 0x0 PUSH1 0x20 DUP1 DUP4 ADD DUP3 SWAP1 MSTORE PUSH1 0x40 DUP1 DUP5 ADD DUP4 SWAP1 MSTORE PUSH1 0x60 DUP5 ADD DUP4 SWAP1 MSTORE PUSH1 0x80 SWAP1 SWAP4 ADD DUP3 SWAP1 MSTORE PUSH1 0x1 PUSH1 0x1 PUSH1 0xA0 SHL SUB DUP6 AND DUP3 MSTORE DUP2 SWAP1 MSTORE KECCAK256 DUP2 MLOAD DUP2 SLOAD DUP3 SWAP1 PUSH1 0xFF NOT AND PUSH1 0x1 DUP4 PUSH1 0x4 DUP2 GT ISZERO PUSH2 0xF12 JUMPI PUSH2 0xF12 PUSH2 0x1577 JUMP JUMPDEST MUL OR SWAP1 SSTORE POP PUSH1 0x20 DUP3 DUP2 ADD MLOAD DUP1 MLOAD PUSH2 0xF2F SWAP3 PUSH1 0x1 DUP6 ADD SWAP3 ADD SWAP1 PUSH2 0x1141 JUMP JUMPDEST POP PUSH1 0x40 DUP3 ADD MLOAD PUSH1 0x2 DUP3 ADD SSTORE PUSH1 0x60 DUP3 ADD MLOAD PUSH1 0x3 DUP3 ADD SSTORE PUSH1 0x80 DUP3 ADD MLOAD PUSH1 0x4 DUP3 ADD SSTORE PUSH1 0xA0 DUP3 ADD MLOAD PUSH1 0x5 DUP3 ADD SSTORE PUSH1 0xC0 SWAP1 SWAP2 ADD MLOAD PUSH1 0x6 SWAP1 SWAP2 ADD SSTORE POP JUMP JUMPDEST PUSH1 0x60 PUSH1 0x0 CALLER PUSH1 0x0 SWAP1 DUP2 MSTORE PUSH1 0x20 DUP2 SWAP1 MSTORE PUSH1 0x40 SWAP1 KECCAK256 SLOAD PUSH1 0xFF AND PUSH1 0x4 DUP2 GT ISZERO PUSH2 0xF8F JUMPI PUSH2 0xF8F PUSH2 0x1577 JUMP JUMPDEST EQ DUP1 PUSH2 0xFBE JUMPI POP PUSH1 0x2 CALLER PUSH1 0x0 SWAP1 DUP2 MSTORE PUSH1 0x20 DUP2 SWAP1 MSTORE PUSH1 0x40 SWAP1 KECCAK256 SLOAD PUSH1 0xFF AND PUSH1 0x4 DUP2 GT ISZERO PUSH2 0xFBC JUMPI PUSH2 0xFBC PUSH2 0x1577 JUMP JUMPDEST EQ JUMPDEST PUSH2 0x101C JUMPI PUSH1 0x40 MLOAD PUSH3 0x461BCD PUSH1 0xE5 SHL DUP2 MSTORE PUSH1 0x20 PUSH1 0x4 DUP3 ADD MSTORE PUSH1 0x29 PUSH1 0x24 DUP3 ADD MSTORE PUSH32 0x596F7520617265206E6F7420746865206F776E6572206F722070726976617465 PUSH1 0x44 DUP3 ADD MSTORE PUSH9 0x10383937BB34B232B9 PUSH1 0xB9 SHL PUSH1 0x64 DUP3 ADD MSTORE PUSH1 0x84 ADD PUSH2 0x2D2 JUMP JUMPDEST PUSH1 0x7 DUP1 SLOAD DUP1 PUSH1 0x20 MUL PUSH1 0x20 ADD PUSH1 0x40 MLOAD SWAP1 DUP2 ADD PUSH1 0x40 MSTORE DUP1 SWAP3 SWAP2 SWAP1 DUP2 DUP2 MSTORE PUSH1 0x20 ADD DUP3 DUP1 SLOAD DUP1 ISZERO PUSH2 0x5F6 JUMPI PUSH1 0x20 MUL DUP3 ADD SWAP2 SWAP1 PUSH1 0x0 MSTORE PUSH1 0x20 PUSH1 0x0 KECCAK256 SWAP1 DUP2 SLOAD PUSH1 0x1 PUSH1 0x1 PUSH1 0xA0 SHL SUB AND DUP2 MSTORE PUSH1 0x1 SWAP1 SWAP2 ADD SWAP1 PUSH1 0x20 ADD DUP1 DUP4 GT PUSH2 0x5D8 JUMPI POP POP POP POP POP SWAP1 POP SWAP1 JUMP JUMPDEST PUSH1 0x0 PUSH1 0x20 DUP2 SWAP1 MSTORE SWAP1 DUP2 MSTORE PUSH1 0x40 SWAP1 KECCAK256 DUP1 SLOAD PUSH1 0x1 DUP3 ADD DUP1 SLOAD PUSH1 0xFF SWAP1 SWAP3 AND SWAP3 SWAP2 PUSH2 0x10A0 SWAP1 PUSH2 0x1513 JUMP JUMPDEST DUP1 PUSH1 0x1F ADD PUSH1 0x20 DUP1 SWAP2 DIV MUL PUSH1 0x20 ADD PUSH1 0x40 MLOAD SWAP1 DUP2 ADD PUSH1 0x40 MSTORE DUP1 SWAP3 SWAP2 SWAP1 DUP2 DUP2 MSTORE PUSH1 0x20 ADD DUP3 DUP1 SLOAD PUSH2 0x10CC SWAP1 PUSH2 0x1513 JUMP JUMPDEST DUP1 ISZERO PUSH2 0x1119 JUMPI DUP1 PUSH1 0x1F LT PUSH2 0x10EE JUMPI PUSH2 0x100 DUP1 DUP4 SLOAD DIV MUL DUP4 MSTORE SWAP2 PUSH1 0x20 ADD SWAP2 PUSH2 0x1119 JUMP JUMPDEST DUP3 ADD SWAP2 SWAP1 PUSH1 0x0 MSTORE PUSH1 0x20 PUSH1 0x0 KECCAK256 SWAP1 JUMPDEST DUP2 SLOAD DUP2 MSTORE SWAP1 PUSH1 0x1 ADD SWAP1 PUSH1 0x20 ADD DUP1 DUP4 GT PUSH2 0x10FC JUMPI DUP3 SWAP1 SUB PUSH1 0x1F AND DUP3 ADD SWAP2 JUMPDEST POP POP POP POP POP SWAP1 DUP1 PUSH1 0x2 ADD SLOAD SWAP1 DUP1 PUSH1 0x3 ADD SLOAD SWAP1 DUP1 PUSH1 0x4 ADD SLOAD SWAP1 DUP1 PUSH1 0x5 ADD SLOAD SWAP1 DUP1 PUSH1 0x6 ADD SLOAD SWAP1 POP DUP8 JUMP JUMPDEST DUP3 DUP1 SLOAD PUSH2 0x114D SWAP1 PUSH2 0x1513 JUMP JUMPDEST SWAP1 PUSH1 0x0 MSTORE PUSH1 0x20 PUSH1 0x0 KECCAK256 SWAP1 PUSH1 0x1F ADD PUSH1 0x20 SWAP1 DIV DUP2 ADD SWAP3 DUP3 PUSH2 0x116F JUMPI PUSH1 0x0 DUP6 SSTORE PUSH2 0x11B5 JUMP JUMPDEST DUP3 PUSH1 0x1F LT PUSH2 0x1188 JUMPI DUP1 MLOAD PUSH1 0xFF NOT AND DUP4 DUP1 ADD OR DUP6 SSTORE PUSH2 0x11B5 JUMP JUMPDEST DUP3 DUP1 ADD PUSH1 0x1 ADD DUP6 SSTORE DUP3 ISZERO PUSH2 0x11B5 JUMPI SWAP2 DUP3 ADD JUMPDEST DUP3 DUP2 GT ISZERO PUSH2 0x11B5 JUMPI DUP3 MLOAD DUP3 SSTORE SWAP2 PUSH1 0x20 ADD SWAP2 SWAP1 PUSH1 0x1 ADD SWAP1 PUSH2 0x119A JUMP JUMPDEST POP PUSH2 0x11C1 SWAP3 SWAP2 POP PUSH2 0x11C5 JUMP JUMPDEST POP SWAP1 JUMP JUMPDEST JUMPDEST DUP1 DUP3 GT ISZERO PUSH2 0x11C1 JUMPI PUSH1 0x0 DUP2 SSTORE PUSH1 0x1 ADD PUSH2 0x11C6 JUMP JUMPDEST DUP1 CALLDATALOAD PUSH1 0x1 PUSH1 0x1 PUSH1 0xA0 SHL SUB DUP2 AND DUP2 EQ PUSH2 0x11F1 JUMPI PUSH1 0x0 DUP1 REVERT JUMPDEST SWAP2 SWAP1 POP JUMP JUMPDEST PUSH1 0x0 DUP3 PUSH1 0x1F DUP4 ADD SLT PUSH2 0x1207 JUMPI PUSH1 0x0 DUP1 REVERT JUMPDEST DUP2 CALLDATALOAD PUSH1 0x1 PUSH1 0x1 PUSH1 0x40 SHL SUB DUP1 DUP3 GT ISZERO PUSH2 0x1221 JUMPI PUSH2 0x1221 PUSH2 0x15A3 JUMP JUMPDEST PUSH1 0x40 MLOAD PUSH1 0x1F DUP4 ADD PUSH1 0x1F NOT SWAP1 DUP2 AND PUSH1 0x3F ADD AND DUP2 ADD SWAP1 DUP3 DUP3 GT DUP2 DUP4 LT OR ISZERO PUSH2 0x1249 JUMPI PUSH2 0x1249 PUSH2 0x15A3 JUMP JUMPDEST DUP2 PUSH1 0x40 MSTORE DUP4 DUP2 MSTORE DUP7 PUSH1 0x20 DUP6 DUP9 ADD ADD GT ISZERO PUSH2 0x1262 JUMPI PUSH1 0x0 DUP1 REVERT JUMPDEST DUP4 PUSH1 0x20 DUP8 ADD PUSH1 0x20 DUP4 ADD CALLDATACOPY PUSH1 0x0 PUSH1 0x20 DUP6 DUP4 ADD ADD MSTORE DUP1 SWAP5 POP POP POP POP POP SWAP3 SWAP2 POP POP JUMP JUMPDEST PUSH1 0x0 PUSH1 0x20 DUP3 DUP5 SUB SLT ISZERO PUSH2 0x1294 JUMPI PUSH1 0x0 DUP1 REVERT JUMPDEST PUSH2 0x129D DUP3 PUSH2 0x11DA JUMP JUMPDEST SWAP4 SWAP3 POP POP POP JUMP JUMPDEST PUSH1 0x0 PUSH1 0x20 DUP3 DUP5 SUB SLT ISZERO PUSH2 0x12B6 JUMPI PUSH1 0x0 DUP1 REVERT JUMPDEST DUP2 CALLDATALOAD PUSH1 0x1 PUSH1 0x1 PUSH1 0x40 SHL SUB DUP2 GT ISZERO PUSH2 0x12CC JUMPI PUSH1 0x0 DUP1 REVERT JUMPDEST PUSH2 0x12D8 DUP5 DUP3 DUP6 ADD PUSH2 0x11F6 JUMP JUMPDEST SWAP5 SWAP4 POP POP POP POP JUMP JUMPDEST PUSH1 0x0 DUP1 PUSH1 0x0 PUSH1 0x60 DUP5 DUP7 SUB SLT ISZERO PUSH2 0x12F5 JUMPI PUSH1 0x0 DUP1 REVERT JUMPDEST DUP4 CALLDATALOAD PUSH1 0x1 PUSH1 0x1 PUSH1 0x40 SHL SUB DUP1 DUP3 GT ISZERO PUSH2 0x130C JUMPI PUSH1 0x0 DUP1 REVERT JUMPDEST PUSH2 0x1318 DUP8 DUP4 DUP9 ADD PUSH2 0x11F6 JUMP JUMPDEST SWAP5 POP PUSH1 0x20 DUP7 ADD CALLDATALOAD SWAP2 POP DUP1 DUP3 GT ISZERO PUSH2 0x132E JUMPI PUSH1 0x0 DUP1 REVERT JUMPDEST POP PUSH2 0x133B DUP7 DUP3 DUP8 ADD PUSH2 0x11F6 JUMP JUMPDEST SWAP3 POP POP PUSH2 0x134A PUSH1 0x40 DUP6 ADD PUSH2 0x11DA JUMP JUMPDEST SWAP1 POP SWAP3 POP SWAP3 POP SWAP3 JUMP JUMPDEST PUSH1 0x0 PUSH1 0x20 DUP3 DUP5 SUB SLT ISZERO PUSH2 0x1365 JUMPI PUSH1 0x0 DUP1 REVERT JUMPDEST POP CALLDATALOAD SWAP2 SWAP1 POP JUMP JUMPDEST PUSH1 0x0 DUP2 MLOAD DUP1 DUP5 MSTORE PUSH2 0x1384 DUP2 PUSH1 0x20 DUP7 ADD PUSH1 0x20 DUP7 ADD PUSH2 0x14E3 JUMP JUMPDEST PUSH1 0x1F ADD PUSH1 0x1F NOT AND SWAP3 SWAP1 SWAP3 ADD PUSH1 0x20 ADD SWAP3 SWAP2 POP POP JUMP JUMPDEST PUSH1 0x0 DUP3 MLOAD PUSH2 0x13AA DUP2 DUP5 PUSH1 0x20 DUP8 ADD PUSH2 0x14E3 JUMP JUMPDEST SWAP2 SWAP1 SWAP2 ADD SWAP3 SWAP2 POP POP JUMP JUMPDEST PUSH1 0x20 DUP1 DUP3 MSTORE DUP3 MLOAD DUP3 DUP3 ADD DUP2 SWAP1 MSTORE PUSH1 0x0 SWAP2 SWAP1 DUP5 DUP3 ADD SWAP1 PUSH1 0x40 DUP6 ADD SWAP1 DUP5 JUMPDEST DUP2 DUP2 LT ISZERO PUSH2 0x13F5 JUMPI DUP4 MLOAD PUSH1 0x1 PUSH1 0x1 PUSH1 0xA0 SHL SUB AND DUP4 MSTORE SWAP3 DUP5 ADD SWAP3 SWAP2 DUP5 ADD SWAP2 PUSH1 0x1 ADD PUSH2 0x13D0 JUMP JUMPDEST POP SWAP1 SWAP7 SWAP6 POP POP POP POP POP POP JUMP JUMPDEST PUSH1 0x0 PUSH1 0x5 DUP10 LT PUSH2 0x1421 JUMPI PUSH4 0x4E487B71 PUSH1 0xE0 SHL PUSH1 0x0 MSTORE PUSH1 0x21 PUSH1 0x4 MSTORE PUSH1 0x24 PUSH1 0x0 REVERT JUMPDEST DUP9 DUP3 MSTORE PUSH1 0xE0 PUSH1 0x20 DUP4 ADD MSTORE PUSH2 0x1438 PUSH1 0xE0 DUP4 ADD DUP10 PUSH2 0x136C JUMP JUMPDEST PUSH1 0x40 DUP4 ADD SWAP8 SWAP1 SWAP8 MSTORE POP PUSH1 0x60 DUP2 ADD SWAP5 SWAP1 SWAP5 MSTORE PUSH1 0x80 DUP5 ADD SWAP3 SWAP1 SWAP3 MSTORE PUSH1 0xA0 DUP4 ADD MSTORE PUSH1 0xC0 SWAP1 SWAP2 ADD MSTORE SWAP3 SWAP2 POP POP JUMP JUMPDEST PUSH1 0xA0 DUP2 MSTORE PUSH1 0x0 PUSH2 0x1475 PUSH1 0xA0 DUP4 ADD DUP9 PUSH2 0x136C JUMP JUMPDEST DUP3 DUP2 SUB PUSH1 0x20 DUP5 ADD MSTORE PUSH2 0x1487 DUP2 DUP9 PUSH2 0x136C JUMP JUMPDEST PUSH1 0x1 PUSH1 0x1 PUSH1 0xA0 SHL SUB SWAP7 SWAP1 SWAP7 AND PUSH1 0x40 DUP5 ADD MSTORE POP POP SWAP2 ISZERO ISZERO PUSH1 0x60 DUP4 ADD MSTORE ISZERO ISZERO PUSH1 0x80 SWAP1 SWAP2 ADD MSTORE SWAP3 SWAP2 POP POP JUMP JUMPDEST PUSH1 0x20 DUP1 DUP3 MSTORE PUSH1 0x19 SWAP1 DUP3 ADD MSTORE PUSH25 0x2CB7BAB9103737BA10283934BB30BA3290383937BB34B232B9 PUSH1 0x39 SHL PUSH1 0x40 DUP3 ADD MSTORE PUSH1 0x60 ADD SWAP1 JUMP JUMPDEST PUSH1 0x0 JUMPDEST DUP4 DUP2 LT ISZERO PUSH2 0x14FE JUMPI DUP2 DUP2 ADD MLOAD DUP4 DUP3 ADD MSTORE PUSH1 0x20 ADD PUSH2 0x14E6 JUMP JUMPDEST DUP4 DUP2 GT ISZERO PUSH2 0x150D JUMPI PUSH1 0x0 DUP5 DUP5 ADD MSTORE JUMPDEST POP POP POP POP JUMP JUMPDEST PUSH1 0x1 DUP2 DUP2 SHR SWAP1 DUP3 AND DUP1 PUSH2 0x1527 JUMPI PUSH1 0x7F DUP3 AND SWAP2 POP JUMPDEST PUSH1 0x20 DUP3 LT DUP2 EQ ISZERO PUSH2 0x1548 JUMPI PUSH4 0x4E487B71 PUSH1 0xE0 SHL PUSH1 0x0 MSTORE PUSH1 0x22 PUSH1 0x4 MSTORE PUSH1 0x24 PUSH1 0x0 REVERT JUMPDEST POP SWAP2 SWAP1 POP JUMP JUMPDEST PUSH1 0x0 PUSH1 0x0 NOT DUP3 EQ ISZERO PUSH2 0x1570 JUMPI PUSH4 0x4E487B71 PUSH1 0xE0 SHL PUSH1 0x0 MSTORE PUSH1 0x11 PUSH1 0x4 MSTORE PUSH1 0x24 PUSH1 0x0 REVERT JUMPDEST POP PUSH1 0x1 ADD SWAP1 JUMP JUMPDEST PUSH4 0x4E487B71 PUSH1 0xE0 SHL PUSH1 0x0 MSTORE PUSH1 0x21 PUSH1 0x4 MSTORE PUSH1 0x24 PUSH1 0x0 REVERT JUMPDEST PUSH4 0x4E487B71 PUSH1 0xE0 SHL PUSH1 0x0 MSTORE PUSH1 0x32 PUSH1 0x4 MSTORE PUSH1 0x24 PUSH1 0x0 REVERT JUMPDEST PUSH4 0x4E487B71 PUSH1 0xE0 SHL PUSH1 0x0 MSTORE PUSH1 0x41 PUSH1 0x4 MSTORE PUSH1 0x24 PUSH1 0x0 REVERT INVALID MUL 0xE4 PUSH19 0x438281ECE9FAE629C31EBC952B0B512971EFB1 0xBA 0xCF 0xC7 0xD4 DIFFICULTY SHR PC PUSH13 0xFF6CF652222313E28459528D92 SIGNEXTEND PUSH6 0x115C16C04F3E 0xFC DUP3 0xAA 0xED 0xC9 PUSH28 0xE59F3F377C0D3FA2646970667358221220E374C732C714A7DC2C2E4C SWAP2 0xDE 0xDF SWAP9 SLT 0xE2 LOG3 DUP3 ADDRESS 0xBC PUSH20 0x732943373C278C0470C64736F6C634300080700 CALLER "
				},
				"gasEstimates": {
					"creation": {
						"codeDepositCost": "1135800",
						"executionCost": "45392",
						"totalCost": "1181192"
					},
					"external": {
						"acceptApplication(address)": "infinite",
						"application(string,string,address)": "infinite",
						"changeTokenAmountPricePrivate(uint256)": "24748",
						"deviationApplication(address)": "26864",
						"endPrivatePhase()": "99948",
						"getApplicationAmountAdr()": "infinite",
						"getBalanceEth(address)": "3221",
						"getBalancePrivateToken(address)": "2843",
						"getBalancePublicToken(address)": "2645",
						"getBalanceSeedToken(address)": "2601",
						"get_blackList()": "infinite",
						"get_keccak256(string)": "infinite",
						"get_whiteList()": "infinite",
						"startPrivatePhase()": "31190",
						"strucApplications_(address)": "infinite",
						"structUsers_(address)": "infinite",
						"tokenAmount_()": "2526",
						"tokenPrice_()": "2284"
					}
				},
				"methodIdentifiers": {
					"acceptApplication(address)": "a678b65b",
					"application(string,string,address)": "785963c3",
					"changeTokenAmountPricePrivate(uint256)": "8aa7cc0b",
					"deviationApplication(address)": "1d3eea35",
					"endPrivatePhase()": "7f4b8df0",
					"getApplicationAmountAdr()": "686c4cea",
					"getBalanceEth(address)": "99067ede",
					"getBalancePrivateToken(address)": "b06cdc12",
					"getBalancePublicToken(address)": "72f0d72b",
					"getBalanceSeedToken(address)": "2599d6d0",
					"get_blackList()": "7f89128f",
					"get_keccak256(string)": "8e4f8c6b",
					"get_whiteList()": "c10e3911",
					"startPrivatePhase()": "0691615d",
					"strucApplications_(address)": "23b2265f",
					"structUsers_(address)": "fc837259",
					"tokenAmount_()": "948942ad",
					"tokenPrice_()": "0761c8b9"
				}
			},
			"storageLayout": {
				"storage": [
					{
						"astId": 557,
						"contract": "GitHub/contract-token-cryptoMonster/backend/components/PhasePrivate.sol:PhasePrivate",
						"label": "structUsers_",
						"offset": 0,
						"slot": "0",
						"type": "t_mapping(t_address,t_struct(structUser)552_storage)"
					},
					{
						"astId": 563,
						"contract": "GitHub/contract-token-cryptoMonster/backend/components/PhasePrivate.sol:PhasePrivate",
						"label": "allowed",
						"offset": 0,
						"slot": "1",
						"type": "t_mapping(t_address,t_mapping(t_address,t_uint256))"
					},
					{
						"astId": 566,
						"contract": "GitHub/contract-token-cryptoMonster/backend/components/PhasePrivate.sol:PhasePrivate",
						"label": "tokenPrice_",
						"offset": 0,
						"slot": "2",
						"type": "t_uint256"
					},
					{
						"astId": 569,
						"contract": "GitHub/contract-token-cryptoMonster/backend/components/PhasePrivate.sol:PhasePrivate",
						"label": "tokenAmount_",
						"offset": 0,
						"slot": "3",
						"type": "t_uint256"
					},
					{
						"astId": 588,
						"contract": "GitHub/contract-token-cryptoMonster/backend/components/PhasePrivate.sol:PhasePrivate",
						"label": "structPhases_",
						"offset": 0,
						"slot": "4",
						"type": "t_mapping(t_address,t_struct(structPhase)583_storage)"
					},
					{
						"astId": 604,
						"contract": "GitHub/contract-token-cryptoMonster/backend/components/PhasePrivate.sol:PhasePrivate",
						"label": "strucApplications_",
						"offset": 0,
						"slot": "5",
						"type": "t_mapping(t_address,t_struct(structApplication)599_storage)"
					},
					{
						"astId": 607,
						"contract": "GitHub/contract-token-cryptoMonster/backend/components/PhasePrivate.sol:PhasePrivate",
						"label": "structApplicationsAmountAdr",
						"offset": 0,
						"slot": "6",
						"type": "t_array(t_address)dyn_storage"
					},
					{
						"astId": 610,
						"contract": "GitHub/contract-token-cryptoMonster/backend/components/PhasePrivate.sol:PhasePrivate",
						"label": "whiteList",
						"offset": 0,
						"slot": "7",
						"type": "t_array(t_address)dyn_storage"
					},
					{
						"astId": 613,
						"contract": "GitHub/contract-token-cryptoMonster/backend/components/PhasePrivate.sol:PhasePrivate",
						"label": "blackList",
						"offset": 0,
						"slot": "8",
						"type": "t_array(t_address)dyn_storage"
					}
				],
				"types": {
					"t_address": {
						"encoding": "inplace",
						"label": "address",
						"numberOfBytes": "20"
					},
					"t_array(t_address)dyn_storage": {
						"base": "t_address",
						"encoding": "dynamic_array",
						"label": "address[]",
						"numberOfBytes": "32"
					},
					"t_bool": {
						"encoding": "inplace",
						"label": "bool",
						"numberOfBytes": "1"
					},
					"t_bytes32": {
						"encoding": "inplace",
						"label": "bytes32",
						"numberOfBytes": "32"
					},
					"t_enum(Role)536": {
						"encoding": "inplace",
						"label": "enum structures.Role",
						"numberOfBytes": "1"
					},
					"t_mapping(t_address,t_mapping(t_address,t_uint256))": {
						"encoding": "mapping",
						"key": "t_address",
						"label": "mapping(address => mapping(address => uint256))",
						"numberOfBytes": "32",
						"value": "t_mapping(t_address,t_uint256)"
					},
					"t_mapping(t_address,t_struct(structApplication)599_storage)": {
						"encoding": "mapping",
						"key": "t_address",
						"label": "mapping(address => struct structures.structApplication)",
						"numberOfBytes": "32",
						"value": "t_struct(structApplication)599_storage"
					},
					"t_mapping(t_address,t_struct(structPhase)583_storage)": {
						"encoding": "mapping",
						"key": "t_address",
						"label": "mapping(address => struct structures.structPhase)",
						"numberOfBytes": "32",
						"value": "t_struct(structPhase)583_storage"
					},
					"t_mapping(t_address,t_struct(structUser)552_storage)": {
						"encoding": "mapping",
						"key": "t_address",
						"label": "mapping(address => struct structures.structUser)",
						"numberOfBytes": "32",
						"value": "t_struct(structUser)552_storage"
					},
					"t_mapping(t_address,t_uint256)": {
						"encoding": "mapping",
						"key": "t_address",
						"label": "mapping(address => uint256)",
						"numberOfBytes": "32",
						"value": "t_uint256"
					},
					"t_string_storage": {
						"encoding": "bytes",
						"label": "string",
						"numberOfBytes": "32"
					},
					"t_struct(structApplication)599_storage": {
						"encoding": "inplace",
						"label": "struct structures.structApplication",
						"members": [
							{
								"astId": 590,
								"contract": "GitHub/contract-token-cryptoMonster/backend/components/PhasePrivate.sol:PhasePrivate",
								"label": "name",
								"offset": 0,
								"slot": "0",
								"type": "t_string_storage"
							},
							{
								"astId": 592,
								"contract": "GitHub/contract-token-cryptoMonster/backend/components/PhasePrivate.sol:PhasePrivate",
								"label": "contactForCommunication",
								"offset": 0,
								"slot": "1",
								"type": "t_string_storage"
							},
							{
								"astId": 594,
								"contract": "GitHub/contract-token-cryptoMonster/backend/components/PhasePrivate.sol:PhasePrivate",
								"label": "userAdr",
								"offset": 0,
								"slot": "2",
								"type": "t_address"
							},
							{
								"astId": 596,
								"contract": "GitHub/contract-token-cryptoMonster/backend/components/PhasePrivate.sol:PhasePrivate",
								"label": "status",
								"offset": 20,
								"slot": "2",
								"type": "t_bool"
							},
							{
								"astId": 598,
								"contract": "GitHub/contract-token-cryptoMonster/backend/components/PhasePrivate.sol:PhasePrivate",
								"label": "exist",
								"offset": 21,
								"slot": "2",
								"type": "t_bool"
							}
						],
						"numberOfBytes": "96"
					},
					"t_struct(structPhase)583_storage": {
						"encoding": "inplace",
						"label": "struct structures.structPhase",
						"members": [
							{
								"astId": 580,
								"contract": "GitHub/contract-token-cryptoMonster/backend/components/PhasePrivate.sol:PhasePrivate",
								"label": "statusPhase",
								"offset": 0,
								"slot": "0",
								"type": "t_bool"
							},
							{
								"astId": 582,
								"contract": "GitHub/contract-token-cryptoMonster/backend/components/PhasePrivate.sol:PhasePrivate",
								"label": "reviewed",
								"offset": 1,
								"slot": "0",
								"type": "t_bool"
							}
						],
						"numberOfBytes": "32"
					},
					"t_struct(structUser)552_storage": {
						"encoding": "inplace",
						"label": "struct structures.structUser",
						"members": [
							{
								"astId": 539,
								"contract": "GitHub/contract-token-cryptoMonster/backend/components/PhasePrivate.sol:PhasePrivate",
								"label": "role",
								"offset": 0,
								"slot": "0",
								"type": "t_enum(Role)536"
							},
							{
								"astId": 541,
								"contract": "GitHub/contract-token-cryptoMonster/backend/components/PhasePrivate.sol:PhasePrivate",
								"label": "login",
								"offset": 0,
								"slot": "1",
								"type": "t_string_storage"
							},
							{
								"astId": 543,
								"contract": "GitHub/contract-token-cryptoMonster/backend/components/PhasePrivate.sol:PhasePrivate",
								"label": "password",
								"offset": 0,
								"slot": "2",
								"type": "t_bytes32"
							},
							{
								"astId": 545,
								"contract": "GitHub/contract-token-cryptoMonster/backend/components/PhasePrivate.sol:PhasePrivate",
								"label": "balance_overall",
								"offset": 0,
								"slot": "3",
								"type": "t_uint256"
							},
							{
								"astId": 547,
								"contract": "GitHub/contract-token-cryptoMonster/backend/components/PhasePrivate.sol:PhasePrivate",
								"label": "balance_seed",
								"offset": 0,
								"slot": "4",
								"type": "t_uint256"
							},
							{
								"astId": 549,
								"contract": "GitHub/contract-token-cryptoMonster/backend/components/PhasePrivate.sol:PhasePrivate",
								"label": "balance_private",
								"offset": 0,
								"slot": "5",
								"type": "t_uint256"
							},
							{
								"astId": 551,
								"contract": "GitHub/contract-token-cryptoMonster/backend/components/PhasePrivate.sol:PhasePrivate",
								"label": "balance_public",
								"offset": 0,
								"slot": "6",
								"type": "t_uint256"
							}
						],
						"numberOfBytes": "224"
					},
					"t_uint256": {
						"encoding": "inplace",
						"label": "uint256",
						"numberOfBytes": "32"
					}
				}
			},
			"userdoc": {
				"kind": "user",
				"methods": {},
				"version": 1
			}
		}
	}
}