{
	"Documents/GitHub/contract-token-cryptoMonster/backend/components/PhasePrivate.sol": {
		"PhasePrivate": {
			"abi": [
				{
					"inputs": [
						{
							"internalType": "address",
							"name": "_userAdr",
							"type": "address"
						}
					],
					"name": "acceptApplication",
					"outputs": [],
					"stateMutability": "nonpayable",
					"type": "function"
				},
				{
					"inputs": [
						{
							"internalType": "string",
							"name": "_name",
							"type": "string"
						},
						{
							"internalType": "string",
							"name": "_contactForCommunication",
							"type": "string"
						},
						{
							"internalType": "address",
							"name": "_userAdr",
							"type": "address"
						}
					],
					"name": "application",
					"outputs": [],
					"stateMutability": "nonpayable",
					"type": "function"
				},
				{
					"inputs": [
						{
							"internalType": "address",
							"name": "_userAdr",
							"type": "address"
						}
					],
					"name": "deviationApplication",
					"outputs": [],
					"stateMutability": "nonpayable",
					"type": "function"
				},
				{
					"inputs": [],
					"name": "getApplicationAmountAdr",
					"outputs": [
						{
							"internalType": "address[]",
							"name": "",
							"type": "address[]"
						}
					],
					"stateMutability": "view",
					"type": "function"
				},
				{
					"inputs": [],
					"name": "get_blackList",
					"outputs": [
						{
							"internalType": "address[]",
							"name": "",
							"type": "address[]"
						}
					],
					"stateMutability": "view",
					"type": "function"
				},
				{
					"inputs": [
						{
							"internalType": "string",
							"name": "_hash",
							"type": "string"
						}
					],
					"name": "get_keccak256",
					"outputs": [
						{
							"internalType": "bytes32",
							"name": "",
							"type": "bytes32"
						}
					],
					"stateMutability": "pure",
					"type": "function"
				},
				{
					"inputs": [],
					"name": "get_whiteList",
					"outputs": [
						{
							"internalType": "address[]",
							"name": "",
							"type": "address[]"
						}
					],
					"stateMutability": "view",
					"type": "function"
				}
			],
			"devdoc": {
				"kind": "dev",
				"methods": {},
				"version": 1
			},
			"evm": {
				"assembly": "    /* \"Documents/GitHub/contract-token-cryptoMonster/backend/components/PhasePrivate.sol\":158:4809  contract PhasePrivate is validateFuncs {\r... */\n  mstore(0x40, 0x80)\n  callvalue\n  dup1\n  iszero\n  tag_1\n  jumpi\n  0x00\n  dup1\n  revert\ntag_1:\n  pop\n  dataSize(sub_0)\n  dup1\n  dataOffset(sub_0)\n  0x00\n  codecopy\n  0x00\n  return\nstop\n\nsub_0: assembly {\n        /* \"Documents/GitHub/contract-token-cryptoMonster/backend/components/PhasePrivate.sol\":158:4809  contract PhasePrivate is validateFuncs {\r... */\n      mstore(0x40, 0x80)\n      callvalue\n      dup1\n      iszero\n      tag_1\n      jumpi\n      0x00\n      dup1\n      revert\n    tag_1:\n      pop\n      jumpi(tag_2, lt(calldatasize, 0x04))\n      shr(0xe0, calldataload(0x00))\n      dup1\n      0x7f89128f\n      gt\n      tag_10\n      jumpi\n      dup1\n      0x7f89128f\n      eq\n      tag_6\n      jumpi\n      dup1\n      0x8e4f8c6b\n      eq\n      tag_7\n      jumpi\n      dup1\n      0xa678b65b\n      eq\n      tag_8\n      jumpi\n      dup1\n      0xc10e3911\n      eq\n      tag_9\n      jumpi\n      jump(tag_2)\n    tag_10:\n      dup1\n      0x1d3eea35\n      eq\n      tag_3\n      jumpi\n      dup1\n      0x686c4cea\n      eq\n      tag_4\n      jumpi\n      dup1\n      0x785963c3\n      eq\n      tag_5\n      jumpi\n    tag_2:\n      0x00\n      dup1\n      revert\n        /* \"Documents/GitHub/contract-token-cryptoMonster/backend/components/PhasePrivate.sol\":4478:4806  function deviationApplication (address _userAdr) public onlyPrivateProvider {\r... */\n    tag_3:\n      tag_11\n      0x04\n      dup1\n      calldatasize\n      sub\n      dup2\n      add\n      swap1\n      tag_12\n      swap2\n      swap1\n      tag_13\n      jump\t// in\n    tag_12:\n      tag_14\n      jump\t// in\n    tag_11:\n      stop\n        /* \"Documents/GitHub/contract-token-cryptoMonster/backend/components/PhasePrivate.sol\":1866:2111  function getApplicationAmountAdr () public onlyPrivateProvider view returns (address[] memory) {\r... */\n    tag_4:\n      tag_15\n      tag_16\n      jump\t// in\n    tag_15:\n      mload(0x40)\n      tag_17\n      swap2\n      swap1\n      tag_18\n      jump\t// in\n    tag_17:\n      mload(0x40)\n      dup1\n      swap2\n      sub\n      swap1\n      return\n        /* \"Documents/GitHub/contract-token-cryptoMonster/backend/components/PhasePrivate.sol\":297:1752  function application(string memory _name, string memory _contactForCommunication, address _userAdr) public {\r... */\n    tag_5:\n      tag_19\n      0x04\n      dup1\n      calldatasize\n      sub\n      dup2\n      add\n      swap1\n      tag_20\n      swap2\n      swap1\n      tag_21\n      jump\t// in\n    tag_20:\n      tag_22\n      jump\t// in\n    tag_19:\n      stop\n        /* \"Documents/GitHub/contract-token-cryptoMonster/backend/shared/helpers/helpresFunc.sol\":689:799  function get_blackList() public onlyOwner view returns (address[] memory) {\r... */\n    tag_6:\n      tag_23\n      tag_24\n      jump\t// in\n    tag_23:\n      mload(0x40)\n      tag_25\n      swap2\n      swap1\n      tag_18\n      jump\t// in\n    tag_25:\n      mload(0x40)\n      dup1\n      swap2\n      sub\n      swap1\n      return\n        /* \"Documents/GitHub/contract-token-cryptoMonster/backend/shared/helpers/helpresFunc.sol\":212:350  function get_keccak256(string memory _hash) public pure returns(bytes32) {\r... */\n    tag_7:\n      tag_26\n      0x04\n      dup1\n      calldatasize\n      sub\n      dup2\n      add\n      swap1\n      tag_27\n      swap2\n      swap1\n      tag_28\n      jump\t// in\n    tag_27:\n      tag_29\n      jump\t// in\n    tag_26:\n      mload(0x40)\n      tag_30\n      swap2\n      swap1\n      tag_31\n      jump\t// in\n    tag_30:\n      mload(0x40)\n      dup1\n      swap2\n      sub\n      swap1\n      return\n        /* \"Documents/GitHub/contract-token-cryptoMonster/backend/components/PhasePrivate.sol\":3595:4394  function acceptApplication (address _userAdr) public onlyPrivateProvider {\r... */\n    tag_8:\n      tag_32\n      0x04\n      dup1\n      calldatasize\n      sub\n      dup2\n      add\n      swap1\n      tag_33\n      swap2\n      swap1\n      tag_13\n      jump\t// in\n    tag_33:\n      tag_34\n      jump\t// in\n    tag_32:\n      stop\n        /* \"Documents/GitHub/contract-token-cryptoMonster/backend/shared/helpers/helpresFunc.sol\":483:611  function get_whiteList() public onlyOwnerAndPrivateProvider view returns (address[] memory) {\r... */\n    tag_9:\n      tag_35\n      tag_36\n      jump\t// in\n    tag_35:\n      mload(0x40)\n      tag_37\n      swap2\n      swap1\n      tag_18\n      jump\t// in\n    tag_37:\n      mload(0x40)\n      dup1\n      swap2\n      sub\n      swap1\n      return\n        /* \"Documents/GitHub/contract-token-cryptoMonster/backend/components/PhasePrivate.sol\":4478:4806  function deviationApplication (address _userAdr) public onlyPrivateProvider {\r... */\n    tag_14:\n        /* \"Documents/GitHub/contract-token-cryptoMonster/backend/shared/helpers/modifireFunc.sol\":567:586  Role.SYSTEM_PRIVATE */\n      0x02\n        /* \"Documents/GitHub/contract-token-cryptoMonster/backend/shared/helpers/modifireFunc.sol\":534:586  structUsers_[msg.sender].role == Role.SYSTEM_PRIVATE */\n      0x04\n      dup2\n      gt\n      iszero\n      tag_39\n      jumpi\n      tag_40\n      tag_41\n      jump\t// in\n    tag_40:\n    tag_39:\n        /* \"Documents/GitHub/contract-token-cryptoMonster/backend/shared/helpers/modifireFunc.sol\":534:546  structUsers_ */\n      0x00\n        /* \"Documents/GitHub/contract-token-cryptoMonster/backend/shared/helpers/modifireFunc.sol\":534:558  structUsers_[msg.sender] */\n      dup1\n        /* \"Documents/GitHub/contract-token-cryptoMonster/backend/shared/helpers/modifireFunc.sol\":547:557  msg.sender */\n      caller\n        /* \"Documents/GitHub/contract-token-cryptoMonster/backend/shared/helpers/modifireFunc.sol\":534:558  structUsers_[msg.sender] */\n      0xffffffffffffffffffffffffffffffffffffffff\n      and\n      0xffffffffffffffffffffffffffffffffffffffff\n      and\n      dup2\n      mstore\n      0x20\n      add\n      swap1\n      dup2\n      mstore\n      0x20\n      add\n      0x00\n      keccak256\n        /* \"Documents/GitHub/contract-token-cryptoMonster/backend/shared/helpers/modifireFunc.sol\":534:563  structUsers_[msg.sender].role */\n      0x00\n      add\n      0x00\n      swap1\n      sload\n      swap1\n      0x0100\n      exp\n      swap1\n      div\n      0xff\n      and\n        /* \"Documents/GitHub/contract-token-cryptoMonster/backend/shared/helpers/modifireFunc.sol\":534:586  structUsers_[msg.sender].role == Role.SYSTEM_PRIVATE */\n      0x04\n      dup2\n      gt\n      iszero\n      tag_42\n      jumpi\n      tag_43\n      tag_41\n      jump\t// in\n    tag_43:\n    tag_42:\n      eq\n        /* \"Documents/GitHub/contract-token-cryptoMonster/backend/shared/helpers/modifireFunc.sol\":526:616  require(structUsers_[msg.sender].role == Role.SYSTEM_PRIVATE, \"Your not Private provider\") */\n      tag_44\n      jumpi\n      mload(0x40)\n      0x08c379a000000000000000000000000000000000000000000000000000000000\n      dup2\n      mstore\n      0x04\n      add\n      tag_45\n      swap1\n      tag_46\n      jump\t// in\n    tag_45:\n      mload(0x40)\n      dup1\n      swap2\n      sub\n      swap1\n      revert\n    tag_44:\n        /* \"Documents/GitHub/contract-token-cryptoMonster/backend/components/PhasePrivate.sol\":4616:4621  false */\n      0x00\n        /* \"Documents/GitHub/contract-token-cryptoMonster/backend/components/PhasePrivate.sol\":4573:4621  strucApplications_[msg.sender].reviewed == false */\n      iszero\n      iszero\n        /* \"Documents/GitHub/contract-token-cryptoMonster/backend/components/PhasePrivate.sol\":4573:4591  strucApplications_ */\n      0x02\n        /* \"Documents/GitHub/contract-token-cryptoMonster/backend/components/PhasePrivate.sol\":4573:4603  strucApplications_[msg.sender] */\n      0x00\n        /* \"Documents/GitHub/contract-token-cryptoMonster/backend/components/PhasePrivate.sol\":4592:4602  msg.sender */\n      caller\n        /* \"Documents/GitHub/contract-token-cryptoMonster/backend/components/PhasePrivate.sol\":4573:4603  strucApplications_[msg.sender] */\n      0xffffffffffffffffffffffffffffffffffffffff\n      and\n      0xffffffffffffffffffffffffffffffffffffffff\n      and\n      dup2\n      mstore\n      0x20\n      add\n      swap1\n      dup2\n      mstore\n      0x20\n      add\n      0x00\n      keccak256\n        /* \"Documents/GitHub/contract-token-cryptoMonster/backend/components/PhasePrivate.sol\":4573:4612  strucApplications_[msg.sender].reviewed */\n      0x02\n      add\n      0x15\n      swap1\n      sload\n      swap1\n      0x0100\n      exp\n      swap1\n      div\n      0xff\n      and\n        /* \"Documents/GitHub/contract-token-cryptoMonster/backend/components/PhasePrivate.sol\":4573:4621  strucApplications_[msg.sender].reviewed == false */\n      iszero\n      iszero\n      eq\n        /* \"Documents/GitHub/contract-token-cryptoMonster/backend/components/PhasePrivate.sol\":4565:4654  require(strucApplications_[msg.sender].reviewed == false, \"Review the application first\") */\n      tag_48\n      jumpi\n      mload(0x40)\n      0x08c379a000000000000000000000000000000000000000000000000000000000\n      dup2\n      mstore\n      0x04\n      add\n      tag_49\n      swap1\n      tag_50\n      jump\t// in\n    tag_49:\n      mload(0x40)\n      dup1\n      swap2\n      sub\n      swap1\n      revert\n    tag_48:\n        /* \"Documents/GitHub/contract-token-cryptoMonster/backend/components/PhasePrivate.sol\":4793:4798  false */\n      0x00\n        /* \"Documents/GitHub/contract-token-cryptoMonster/backend/components/PhasePrivate.sol\":4755:4773  strucApplications_ */\n      0x02\n        /* \"Documents/GitHub/contract-token-cryptoMonster/backend/components/PhasePrivate.sol\":4755:4783  strucApplications_[_userAdr] */\n      0x00\n        /* \"Documents/GitHub/contract-token-cryptoMonster/backend/components/PhasePrivate.sol\":4774:4782  _userAdr */\n      dup4\n        /* \"Documents/GitHub/contract-token-cryptoMonster/backend/components/PhasePrivate.sol\":4755:4783  strucApplications_[_userAdr] */\n      0xffffffffffffffffffffffffffffffffffffffff\n      and\n      0xffffffffffffffffffffffffffffffffffffffff\n      and\n      dup2\n      mstore\n      0x20\n      add\n      swap1\n      dup2\n      mstore\n      0x20\n      add\n      0x00\n      keccak256\n        /* \"Documents/GitHub/contract-token-cryptoMonster/backend/components/PhasePrivate.sol\":4755:4790  strucApplications_[_userAdr].status */\n      0x02\n      add\n      0x14\n        /* \"Documents/GitHub/contract-token-cryptoMonster/backend/components/PhasePrivate.sol\":4755:4798  strucApplications_[_userAdr].status = false */\n      0x0100\n      exp\n      dup2\n      sload\n      dup2\n      0xff\n      mul\n      not\n      and\n      swap1\n      dup4\n      iszero\n      iszero\n      mul\n      or\n      swap1\n      sstore\n      pop\n        /* \"Documents/GitHub/contract-token-cryptoMonster/backend/components/PhasePrivate.sol\":4478:4806  function deviationApplication (address _userAdr) public onlyPrivateProvider {\r... */\n      pop\n      jump\t// out\n        /* \"Documents/GitHub/contract-token-cryptoMonster/backend/components/PhasePrivate.sol\":1866:2111  function getApplicationAmountAdr () public onlyPrivateProvider view returns (address[] memory) {\r... */\n    tag_16:\n        /* \"Documents/GitHub/contract-token-cryptoMonster/backend/components/PhasePrivate.sol\":1943:1959  address[] memory */\n      0x60\n        /* \"Documents/GitHub/contract-token-cryptoMonster/backend/shared/helpers/modifireFunc.sol\":567:586  Role.SYSTEM_PRIVATE */\n      0x02\n        /* \"Documents/GitHub/contract-token-cryptoMonster/backend/shared/helpers/modifireFunc.sol\":534:586  structUsers_[msg.sender].role == Role.SYSTEM_PRIVATE */\n      0x04\n      dup2\n      gt\n      iszero\n      tag_52\n      jumpi\n      tag_53\n      tag_41\n      jump\t// in\n    tag_53:\n    tag_52:\n        /* \"Documents/GitHub/contract-token-cryptoMonster/backend/shared/helpers/modifireFunc.sol\":534:546  structUsers_ */\n      0x00\n        /* \"Documents/GitHub/contract-token-cryptoMonster/backend/shared/helpers/modifireFunc.sol\":534:558  structUsers_[msg.sender] */\n      dup1\n        /* \"Documents/GitHub/contract-token-cryptoMonster/backend/shared/helpers/modifireFunc.sol\":547:557  msg.sender */\n      caller\n        /* \"Documents/GitHub/contract-token-cryptoMonster/backend/shared/helpers/modifireFunc.sol\":534:558  structUsers_[msg.sender] */\n      0xffffffffffffffffffffffffffffffffffffffff\n      and\n      0xffffffffffffffffffffffffffffffffffffffff\n      and\n      dup2\n      mstore\n      0x20\n      add\n      swap1\n      dup2\n      mstore\n      0x20\n      add\n      0x00\n      keccak256\n        /* \"Documents/GitHub/contract-token-cryptoMonster/backend/shared/helpers/modifireFunc.sol\":534:563  structUsers_[msg.sender].role */\n      0x00\n      add\n      0x00\n      swap1\n      sload\n      swap1\n      0x0100\n      exp\n      swap1\n      div\n      0xff\n      and\n        /* \"Documents/GitHub/contract-token-cryptoMonster/backend/shared/helpers/modifireFunc.sol\":534:586  structUsers_[msg.sender].role == Role.SYSTEM_PRIVATE */\n      0x04\n      dup2\n      gt\n      iszero\n      tag_54\n      jumpi\n      tag_55\n      tag_41\n      jump\t// in\n    tag_55:\n    tag_54:\n      eq\n        /* \"Documents/GitHub/contract-token-cryptoMonster/backend/shared/helpers/modifireFunc.sol\":526:616  require(structUsers_[msg.sender].role == Role.SYSTEM_PRIVATE, \"Your not Private provider\") */\n      tag_56\n      jumpi\n      mload(0x40)\n      0x08c379a000000000000000000000000000000000000000000000000000000000\n      dup2\n      mstore\n      0x04\n      add\n      tag_57\n      swap1\n      tag_46\n      jump\t// in\n    tag_57:\n      mload(0x40)\n      dup1\n      swap2\n      sub\n      swap1\n      revert\n    tag_56:\n        /* \"Documents/GitHub/contract-token-cryptoMonster/backend/components/PhasePrivate.sol\":1979:2006  structApplicationsAmountAdr */\n      0x03\n        /* \"Documents/GitHub/contract-token-cryptoMonster/backend/components/PhasePrivate.sol\":1972:2006  return structApplicationsAmountAdr */\n      dup1\n      sload\n      dup1\n      0x20\n      mul\n      0x20\n      add\n      mload(0x40)\n      swap1\n      dup2\n      add\n      0x40\n      mstore\n      dup1\n      swap3\n      swap2\n      swap1\n      dup2\n      dup2\n      mstore\n      0x20\n      add\n      dup3\n      dup1\n      sload\n      dup1\n      iszero\n      tag_59\n      jumpi\n      0x20\n      mul\n      dup3\n      add\n      swap2\n      swap1\n      0x00\n      mstore\n      keccak256(0x00, 0x20)\n      swap1\n    tag_60:\n      dup2\n      0x00\n      swap1\n      sload\n      swap1\n      0x0100\n      exp\n      swap1\n      div\n      0xffffffffffffffffffffffffffffffffffffffff\n      and\n      0xffffffffffffffffffffffffffffffffffffffff\n      and\n      dup2\n      mstore\n      0x20\n      add\n      swap1\n      0x01\n      add\n      swap1\n      dup1\n      dup4\n      gt\n      tag_60\n      jumpi\n    tag_59:\n      pop\n      pop\n      pop\n      pop\n      pop\n      swap1\n      pop\n        /* \"Documents/GitHub/contract-token-cryptoMonster/backend/components/PhasePrivate.sol\":1866:2111  function getApplicationAmountAdr () public onlyPrivateProvider view returns (address[] memory) {\r... */\n      swap1\n      jump\t// out\n        /* \"Documents/GitHub/contract-token-cryptoMonster/backend/components/PhasePrivate.sol\":297:1752  function application(string memory _name, string memory _contactForCommunication, address _userAdr) public {\r... */\n    tag_22:\n        /* \"Documents/GitHub/contract-token-cryptoMonster/backend/components/PhasePrivate.sol\":415:430  bool _tempExist */\n      0x00\n        /* \"Documents/GitHub/contract-token-cryptoMonster/backend/components/PhasePrivate.sol\":530:535  false */\n      dup1\n        /* \"Documents/GitHub/contract-token-cryptoMonster/backend/components/PhasePrivate.sol\":457:535  structPhases_[0xAb8483F64d9C6d1EcF9b849Ae677dD3315835cb2].statusPhase == false */\n      iszero\n      iszero\n        /* \"Documents/GitHub/contract-token-cryptoMonster/backend/components/PhasePrivate.sol\":457:470  structPhases_ */\n      0x01\n        /* \"Documents/GitHub/contract-token-cryptoMonster/backend/components/PhasePrivate.sol\":457:514  structPhases_[0xAb8483F64d9C6d1EcF9b849Ae677dD3315835cb2] */\n      0x00\n        /* \"Documents/GitHub/contract-token-cryptoMonster/backend/components/PhasePrivate.sol\":471:513  0xAb8483F64d9C6d1EcF9b849Ae677dD3315835cb2 */\n      0xab8483f64d9c6d1ecf9b849ae677dd3315835cb2\n        /* \"Documents/GitHub/contract-token-cryptoMonster/backend/components/PhasePrivate.sol\":457:514  structPhases_[0xAb8483F64d9C6d1EcF9b849Ae677dD3315835cb2] */\n      0xffffffffffffffffffffffffffffffffffffffff\n      and\n      0xffffffffffffffffffffffffffffffffffffffff\n      and\n      dup2\n      mstore\n      0x20\n      add\n      swap1\n      dup2\n      mstore\n      0x20\n      add\n      0x00\n      keccak256\n        /* \"Documents/GitHub/contract-token-cryptoMonster/backend/components/PhasePrivate.sol\":457:526  structPhases_[0xAb8483F64d9C6d1EcF9b849Ae677dD3315835cb2].statusPhase */\n      0x00\n      add\n      0x00\n      swap1\n      sload\n      swap1\n      0x0100\n      exp\n      swap1\n      div\n      0xff\n      and\n        /* \"Documents/GitHub/contract-token-cryptoMonster/backend/components/PhasePrivate.sol\":457:535  structPhases_[0xAb8483F64d9C6d1EcF9b849Ae677dD3315835cb2].statusPhase == false */\n      iszero\n      iszero\n      eq\n        /* \"Documents/GitHub/contract-token-cryptoMonster/backend/components/PhasePrivate.sol\":457:617  structPhases_[0xAb8483F64d9C6d1EcF9b849Ae677dD3315835cb2].statusPhase == false && structPhases_[0xAb8483F64d9C6d1EcF9b849Ae677dD3315835cb2].statusPhase == false */\n      dup1\n      iszero\n      tag_62\n      jumpi\n      pop\n        /* \"Documents/GitHub/contract-token-cryptoMonster/backend/components/PhasePrivate.sol\":612:617  false */\n      0x00\n        /* \"Documents/GitHub/contract-token-cryptoMonster/backend/components/PhasePrivate.sol\":539:617  structPhases_[0xAb8483F64d9C6d1EcF9b849Ae677dD3315835cb2].statusPhase == false */\n      iszero\n      iszero\n        /* \"Documents/GitHub/contract-token-cryptoMonster/backend/components/PhasePrivate.sol\":539:552  structPhases_ */\n      0x01\n        /* \"Documents/GitHub/contract-token-cryptoMonster/backend/components/PhasePrivate.sol\":539:596  structPhases_[0xAb8483F64d9C6d1EcF9b849Ae677dD3315835cb2] */\n      0x00\n        /* \"Documents/GitHub/contract-token-cryptoMonster/backend/components/PhasePrivate.sol\":553:595  0xAb8483F64d9C6d1EcF9b849Ae677dD3315835cb2 */\n      0xab8483f64d9c6d1ecf9b849ae677dd3315835cb2\n        /* \"Documents/GitHub/contract-token-cryptoMonster/backend/components/PhasePrivate.sol\":539:596  structPhases_[0xAb8483F64d9C6d1EcF9b849Ae677dD3315835cb2] */\n      0xffffffffffffffffffffffffffffffffffffffff\n      and\n      0xffffffffffffffffffffffffffffffffffffffff\n      and\n      dup2\n      mstore\n      0x20\n      add\n      swap1\n      dup2\n      mstore\n      0x20\n      add\n      0x00\n      keccak256\n        /* \"Documents/GitHub/contract-token-cryptoMonster/backend/components/PhasePrivate.sol\":539:608  structPhases_[0xAb8483F64d9C6d1EcF9b849Ae677dD3315835cb2].statusPhase */\n      0x00\n      add\n      0x00\n      swap1\n      sload\n      swap1\n      0x0100\n      exp\n      swap1\n      div\n      0xff\n      and\n        /* \"Documents/GitHub/contract-token-cryptoMonster/backend/components/PhasePrivate.sol\":539:617  structPhases_[0xAb8483F64d9C6d1EcF9b849Ae677dD3315835cb2].statusPhase == false */\n      iszero\n      iszero\n      eq\n        /* \"Documents/GitHub/contract-token-cryptoMonster/backend/components/PhasePrivate.sol\":457:617  structPhases_[0xAb8483F64d9C6d1EcF9b849Ae677dD3315835cb2].statusPhase == false && structPhases_[0xAb8483F64d9C6d1EcF9b849Ae677dD3315835cb2].statusPhase == false */\n    tag_62:\n        /* \"Documents/GitHub/contract-token-cryptoMonster/backend/components/PhasePrivate.sol\":449:645  require(structPhases_[0xAb8483F64d9C6d1EcF9b849Ae677dD3315835cb2].statusPhase == false && structPhases_[0xAb8483F64d9C6d1EcF9b849Ae677dD3315835cb2].statusPhase == false, \"Application phase ended\") */\n      tag_63\n      jumpi\n      mload(0x40)\n      0x08c379a000000000000000000000000000000000000000000000000000000000\n      dup2\n      mstore\n      0x04\n      add\n      tag_64\n      swap1\n      tag_65\n      jump\t// in\n    tag_64:\n      mload(0x40)\n      dup1\n      swap2\n      sub\n      swap1\n      revert\n    tag_63:\n        /* \"Documents/GitHub/contract-token-cryptoMonster/backend/components/PhasePrivate.sol\":783:791  _userAdr */\n      dup2\n        /* \"Documents/GitHub/contract-token-cryptoMonster/backend/components/PhasePrivate.sol\":769:791  msg.sender == _userAdr */\n      0xffffffffffffffffffffffffffffffffffffffff\n      and\n        /* \"Documents/GitHub/contract-token-cryptoMonster/backend/components/PhasePrivate.sol\":769:779  msg.sender */\n      caller\n        /* \"Documents/GitHub/contract-token-cryptoMonster/backend/components/PhasePrivate.sol\":769:791  msg.sender == _userAdr */\n      0xffffffffffffffffffffffffffffffffffffffff\n      and\n      eq\n        /* \"Documents/GitHub/contract-token-cryptoMonster/backend/components/PhasePrivate.sol\":761:851  require(msg.sender == _userAdr, \"You can't send an application to someone else's address\") */\n      tag_66\n      jumpi\n      mload(0x40)\n      0x08c379a000000000000000000000000000000000000000000000000000000000\n      dup2\n      mstore\n      0x04\n      add\n      tag_67\n      swap1\n      tag_68\n      jump\t// in\n    tag_67:\n      mload(0x40)\n      dup1\n      swap2\n      sub\n      swap1\n      revert\n    tag_66:\n        /* \"Documents/GitHub/contract-token-cryptoMonster/backend/components/PhasePrivate.sol\":867:873  uint i */\n      0x00\n        /* \"Documents/GitHub/contract-token-cryptoMonster/backend/components/PhasePrivate.sol\":862:1191  for (uint i = 0; i < structApplicationsAmountAdr.length; i++) {\r... */\n    tag_69:\n        /* \"Documents/GitHub/contract-token-cryptoMonster/backend/components/PhasePrivate.sol\":883:910  structApplicationsAmountAdr */\n      0x03\n        /* \"Documents/GitHub/contract-token-cryptoMonster/backend/components/PhasePrivate.sol\":883:917  structApplicationsAmountAdr.length */\n      dup1\n      sload\n      swap1\n      pop\n        /* \"Documents/GitHub/contract-token-cryptoMonster/backend/components/PhasePrivate.sol\":879:880  i */\n      dup2\n        /* \"Documents/GitHub/contract-token-cryptoMonster/backend/components/PhasePrivate.sol\":879:917  i < structApplicationsAmountAdr.length */\n      lt\n        /* \"Documents/GitHub/contract-token-cryptoMonster/backend/components/PhasePrivate.sol\":862:1191  for (uint i = 0; i < structApplicationsAmountAdr.length; i++) {\r... */\n      iszero\n      tag_70\n      jumpi\n        /* \"Documents/GitHub/contract-token-cryptoMonster/backend/components/PhasePrivate.sol\":977:987  msg.sender */\n      caller\n        /* \"Documents/GitHub/contract-token-cryptoMonster/backend/components/PhasePrivate.sol\":943:987  structApplicationsAmountAdr[i] == msg.sender */\n      0xffffffffffffffffffffffffffffffffffffffff\n      and\n        /* \"Documents/GitHub/contract-token-cryptoMonster/backend/components/PhasePrivate.sol\":943:970  structApplicationsAmountAdr */\n      0x03\n        /* \"Documents/GitHub/contract-token-cryptoMonster/backend/components/PhasePrivate.sol\":971:972  i */\n      dup3\n        /* \"Documents/GitHub/contract-token-cryptoMonster/backend/components/PhasePrivate.sol\":943:973  structApplicationsAmountAdr[i] */\n      dup2\n      sload\n      dup2\n      lt\n      tag_72\n      jumpi\n      tag_73\n      tag_74\n      jump\t// in\n    tag_73:\n    tag_72:\n      swap1\n      0x00\n      mstore\n      keccak256(0x00, 0x20)\n      add\n      0x00\n      swap1\n      sload\n      swap1\n      0x0100\n      exp\n      swap1\n      div\n      0xffffffffffffffffffffffffffffffffffffffff\n      and\n        /* \"Documents/GitHub/contract-token-cryptoMonster/backend/components/PhasePrivate.sol\":943:987  structApplicationsAmountAdr[i] == msg.sender */\n      0xffffffffffffffffffffffffffffffffffffffff\n      and\n      eq\n        /* \"Documents/GitHub/contract-token-cryptoMonster/backend/components/PhasePrivate.sol\":939:1041  if (structApplicationsAmountAdr[i] == msg.sender) {\r... */\n      iszero\n      tag_76\n      jumpi\n        /* \"Documents/GitHub/contract-token-cryptoMonster/backend/components/PhasePrivate.sol\":1021:1025  true */\n      0x01\n        /* \"Documents/GitHub/contract-token-cryptoMonster/backend/components/PhasePrivate.sol\":1008:1025  _tempExist = true */\n      swap2\n      pop\n        /* \"Documents/GitHub/contract-token-cryptoMonster/backend/components/PhasePrivate.sol\":939:1041  if (structApplicationsAmountAdr[i] == msg.sender) {\r... */\n    tag_76:\n        /* \"Documents/GitHub/contract-token-cryptoMonster/backend/components/PhasePrivate.sol\":1077:1082  false */\n      0x00\n        /* \"Documents/GitHub/contract-token-cryptoMonster/backend/components/PhasePrivate.sol\":1063:1082  _tempExist == false */\n      iszero\n      iszero\n        /* \"Documents/GitHub/contract-token-cryptoMonster/backend/components/PhasePrivate.sol\":1063:1073  _tempExist */\n      dup3\n        /* \"Documents/GitHub/contract-token-cryptoMonster/backend/components/PhasePrivate.sol\":1063:1082  _tempExist == false */\n      iszero\n      iszero\n      eq\n        /* \"Documents/GitHub/contract-token-cryptoMonster/backend/components/PhasePrivate.sol\":1055:1111  require(_tempExist == false, \"Application already sent\") */\n      tag_77\n      jumpi\n      mload(0x40)\n      0x08c379a000000000000000000000000000000000000000000000000000000000\n      dup2\n      mstore\n      0x04\n      add\n      tag_78\n      swap1\n      tag_79\n      jump\t// in\n    tag_78:\n      mload(0x40)\n      dup1\n      swap2\n      sub\n      swap1\n      revert\n    tag_77:\n        /* \"Documents/GitHub/contract-token-cryptoMonster/backend/components/PhasePrivate.sol\":919:922  i++ */\n      dup1\n      dup1\n      tag_80\n      swap1\n      tag_81\n      jump\t// in\n    tag_80:\n      swap2\n      pop\n      pop\n        /* \"Documents/GitHub/contract-token-cryptoMonster/backend/components/PhasePrivate.sol\":862:1191  for (uint i = 0; i < structApplicationsAmountAdr.length; i++) {\r... */\n      jump(tag_69)\n    tag_70:\n      pop\n        /* \"Documents/GitHub/contract-token-cryptoMonster/backend/components/PhasePrivate.sol\":1250:1255  false */\n      0x00\n        /* \"Documents/GitHub/contract-token-cryptoMonster/backend/components/PhasePrivate.sol\":1209:1255  strucApplications_[msg.sender].status == false */\n      iszero\n      iszero\n        /* \"Documents/GitHub/contract-token-cryptoMonster/backend/components/PhasePrivate.sol\":1209:1227  strucApplications_ */\n      0x02\n        /* \"Documents/GitHub/contract-token-cryptoMonster/backend/components/PhasePrivate.sol\":1209:1239  strucApplications_[msg.sender] */\n      0x00\n        /* \"Documents/GitHub/contract-token-cryptoMonster/backend/components/PhasePrivate.sol\":1228:1238  msg.sender */\n      caller\n        /* \"Documents/GitHub/contract-token-cryptoMonster/backend/components/PhasePrivate.sol\":1209:1239  strucApplications_[msg.sender] */\n      0xffffffffffffffffffffffffffffffffffffffff\n      and\n      0xffffffffffffffffffffffffffffffffffffffff\n      and\n      dup2\n      mstore\n      0x20\n      add\n      swap1\n      dup2\n      mstore\n      0x20\n      add\n      0x00\n      keccak256\n        /* \"Documents/GitHub/contract-token-cryptoMonster/backend/components/PhasePrivate.sol\":1209:1246  strucApplications_[msg.sender].status */\n      0x02\n      add\n      0x14\n      swap1\n      sload\n      swap1\n      0x0100\n      exp\n      swap1\n      div\n      0xff\n      and\n        /* \"Documents/GitHub/contract-token-cryptoMonster/backend/components/PhasePrivate.sol\":1209:1255  strucApplications_[msg.sender].status == false */\n      iszero\n      iszero\n      eq\n        /* \"Documents/GitHub/contract-token-cryptoMonster/backend/components/PhasePrivate.sol\":1201:1302  require(strucApplications_[msg.sender].status == false, \"Your application has already been rejected\") */\n      tag_82\n      jumpi\n      mload(0x40)\n      0x08c379a000000000000000000000000000000000000000000000000000000000\n      dup2\n      mstore\n      0x04\n      add\n      tag_83\n      swap1\n      tag_84\n      jump\t// in\n    tag_83:\n      mload(0x40)\n      dup1\n      swap2\n      sub\n      swap1\n      revert\n    tag_82:\n        /* \"Documents/GitHub/contract-token-cryptoMonster/backend/components/PhasePrivate.sol\":1419:1498  structApplication(_name, _contactForCommunication, _userAdr, true, false, true) */\n      mload(0x40)\n      dup1\n      0xc0\n      add\n      0x40\n      mstore\n      dup1\n        /* \"Documents/GitHub/contract-token-cryptoMonster/backend/components/PhasePrivate.sol\":1437:1442  _name */\n      dup6\n        /* \"Documents/GitHub/contract-token-cryptoMonster/backend/components/PhasePrivate.sol\":1419:1498  structApplication(_name, _contactForCommunication, _userAdr, true, false, true) */\n      dup2\n      mstore\n      0x20\n      add\n        /* \"Documents/GitHub/contract-token-cryptoMonster/backend/components/PhasePrivate.sol\":1444:1468  _contactForCommunication */\n      dup5\n        /* \"Documents/GitHub/contract-token-cryptoMonster/backend/components/PhasePrivate.sol\":1419:1498  structApplication(_name, _contactForCommunication, _userAdr, true, false, true) */\n      dup2\n      mstore\n      0x20\n      add\n        /* \"Documents/GitHub/contract-token-cryptoMonster/backend/components/PhasePrivate.sol\":1470:1478  _userAdr */\n      dup4\n        /* \"Documents/GitHub/contract-token-cryptoMonster/backend/components/PhasePrivate.sol\":1419:1498  structApplication(_name, _contactForCommunication, _userAdr, true, false, true) */\n      0xffffffffffffffffffffffffffffffffffffffff\n      and\n      dup2\n      mstore\n      0x20\n      add\n        /* \"Documents/GitHub/contract-token-cryptoMonster/backend/components/PhasePrivate.sol\":1480:1484  true */\n      0x01\n        /* \"Documents/GitHub/contract-token-cryptoMonster/backend/components/PhasePrivate.sol\":1419:1498  structApplication(_name, _contactForCommunication, _userAdr, true, false, true) */\n      iszero\n      iszero\n      dup2\n      mstore\n      0x20\n      add\n        /* \"Documents/GitHub/contract-token-cryptoMonster/backend/components/PhasePrivate.sol\":1486:1491  false */\n      0x00\n        /* \"Documents/GitHub/contract-token-cryptoMonster/backend/components/PhasePrivate.sol\":1419:1498  structApplication(_name, _contactForCommunication, _userAdr, true, false, true) */\n      iszero\n      iszero\n      dup2\n      mstore\n      0x20\n      add\n        /* \"Documents/GitHub/contract-token-cryptoMonster/backend/components/PhasePrivate.sol\":1493:1497  true */\n      0x01\n        /* \"Documents/GitHub/contract-token-cryptoMonster/backend/components/PhasePrivate.sol\":1419:1498  structApplication(_name, _contactForCommunication, _userAdr, true, false, true) */\n      iszero\n      iszero\n      dup2\n      mstore\n      pop\n        /* \"Documents/GitHub/contract-token-cryptoMonster/backend/components/PhasePrivate.sol\":1385:1403  strucApplications_ */\n      0x02\n        /* \"Documents/GitHub/contract-token-cryptoMonster/backend/components/PhasePrivate.sol\":1385:1415  strucApplications_[msg.sender] */\n      0x00\n        /* \"Documents/GitHub/contract-token-cryptoMonster/backend/components/PhasePrivate.sol\":1404:1414  msg.sender */\n      caller\n        /* \"Documents/GitHub/contract-token-cryptoMonster/backend/components/PhasePrivate.sol\":1385:1415  strucApplications_[msg.sender] */\n      0xffffffffffffffffffffffffffffffffffffffff\n      and\n      0xffffffffffffffffffffffffffffffffffffffff\n      and\n      dup2\n      mstore\n      0x20\n      add\n      swap1\n      dup2\n      mstore\n      0x20\n      add\n      0x00\n      keccak256\n        /* \"Documents/GitHub/contract-token-cryptoMonster/backend/components/PhasePrivate.sol\":1385:1498  strucApplications_[msg.sender]  = structApplication(_name, _contactForCommunication, _userAdr, true, false, true) */\n      0x00\n      dup3\n      add\n      mload\n      dup2\n      0x00\n      add\n      swap1\n      dup1\n      mload\n      swap1\n      0x20\n      add\n      swap1\n      tag_85\n      swap3\n      swap2\n      swap1\n      tag_86\n      jump\t// in\n    tag_85:\n      pop\n      0x20\n      dup3\n      add\n      mload\n      dup2\n      0x01\n      add\n      swap1\n      dup1\n      mload\n      swap1\n      0x20\n      add\n      swap1\n      tag_87\n      swap3\n      swap2\n      swap1\n      tag_86\n      jump\t// in\n    tag_87:\n      pop\n      0x40\n      dup3\n      add\n      mload\n      dup2\n      0x02\n      add\n      exp(0x0100, 0x00)\n      dup2\n      sload\n      dup2\n      0xffffffffffffffffffffffffffffffffffffffff\n      mul\n      not\n      and\n      swap1\n      dup4\n      0xffffffffffffffffffffffffffffffffffffffff\n      and\n      mul\n      or\n      swap1\n      sstore\n      pop\n      0x60\n      dup3\n      add\n      mload\n      dup2\n      0x02\n      add\n      exp(0x0100, 0x14)\n      dup2\n      sload\n      dup2\n      0xff\n      mul\n      not\n      and\n      swap1\n      dup4\n      iszero\n      iszero\n      mul\n      or\n      swap1\n      sstore\n      pop\n      0x80\n      dup3\n      add\n      mload\n      dup2\n      0x02\n      add\n      exp(0x0100, 0x15)\n      dup2\n      sload\n      dup2\n      0xff\n      mul\n      not\n      and\n      swap1\n      dup4\n      iszero\n      iszero\n      mul\n      or\n      swap1\n      sstore\n      pop\n      0xa0\n      dup3\n      add\n      mload\n      dup2\n      0x02\n      add\n      exp(0x0100, 0x16)\n      dup2\n      sload\n      dup2\n      0xff\n      mul\n      not\n      and\n      swap1\n      dup4\n      iszero\n      iszero\n      mul\n      or\n      swap1\n      sstore\n      pop\n      swap1\n      pop\n      pop\n        /* \"Documents/GitHub/contract-token-cryptoMonster/backend/components/PhasePrivate.sol\":1567:1594  structApplicationsAmountAdr */\n      0x03\n        /* \"Documents/GitHub/contract-token-cryptoMonster/backend/components/PhasePrivate.sol\":1600:1610  msg.sender */\n      caller\n        /* \"Documents/GitHub/contract-token-cryptoMonster/backend/components/PhasePrivate.sol\":1567:1611  structApplicationsAmountAdr.push(msg.sender) */\n      swap1\n      dup1\n      0x01\n      dup2\n      sload\n      add\n      dup1\n      dup3\n      sstore\n      dup1\n      swap2\n      pop\n      pop\n      0x01\n      swap1\n      sub\n      swap1\n      0x00\n      mstore\n      keccak256(0x00, 0x20)\n      add\n      0x00\n      swap1\n      swap2\n      swap1\n      swap2\n      swap1\n      swap2\n      0x0100\n      exp\n      dup2\n      sload\n      dup2\n      0xffffffffffffffffffffffffffffffffffffffff\n      mul\n      not\n      and\n      swap1\n      dup4\n      0xffffffffffffffffffffffffffffffffffffffff\n      and\n      mul\n      or\n      swap1\n      sstore\n      pop\n        /* \"Documents/GitHub/contract-token-cryptoMonster/backend/components/PhasePrivate.sol\":404:1752  {\r... */\n      pop\n        /* \"Documents/GitHub/contract-token-cryptoMonster/backend/components/PhasePrivate.sol\":297:1752  function application(string memory _name, string memory _contactForCommunication, address _userAdr) public {\r... */\n      pop\n      pop\n      pop\n      jump\t// out\n        /* \"Documents/GitHub/contract-token-cryptoMonster/backend/shared/helpers/helpresFunc.sol\":689:799  function get_blackList() public onlyOwner view returns (address[] memory) {\r... */\n    tag_24:\n        /* \"Documents/GitHub/contract-token-cryptoMonster/backend/shared/helpers/helpresFunc.sol\":745:761  address[] memory */\n      0x60\n        /* \"Documents/GitHub/contract-token-cryptoMonster/backend/shared/helpers/modifireFunc.sol\":320:337  Role.SYSTEM_OWNER */\n      0x00\n        /* \"Documents/GitHub/contract-token-cryptoMonster/backend/shared/helpers/modifireFunc.sol\":287:337  structUsers_[msg.sender].role == Role.SYSTEM_OWNER */\n      0x04\n      dup2\n      gt\n      iszero\n      tag_90\n      jumpi\n      tag_91\n      tag_41\n      jump\t// in\n    tag_91:\n    tag_90:\n        /* \"Documents/GitHub/contract-token-cryptoMonster/backend/shared/helpers/modifireFunc.sol\":287:299  structUsers_ */\n      0x00\n        /* \"Documents/GitHub/contract-token-cryptoMonster/backend/shared/helpers/modifireFunc.sol\":287:311  structUsers_[msg.sender] */\n      dup1\n        /* \"Documents/GitHub/contract-token-cryptoMonster/backend/shared/helpers/modifireFunc.sol\":300:310  msg.sender */\n      caller\n        /* \"Documents/GitHub/contract-token-cryptoMonster/backend/shared/helpers/modifireFunc.sol\":287:311  structUsers_[msg.sender] */\n      0xffffffffffffffffffffffffffffffffffffffff\n      and\n      0xffffffffffffffffffffffffffffffffffffffff\n      and\n      dup2\n      mstore\n      0x20\n      add\n      swap1\n      dup2\n      mstore\n      0x20\n      add\n      0x00\n      keccak256\n        /* \"Documents/GitHub/contract-token-cryptoMonster/backend/shared/helpers/modifireFunc.sol\":287:316  structUsers_[msg.sender].role */\n      0x00\n      add\n      0x00\n      swap1\n      sload\n      swap1\n      0x0100\n      exp\n      swap1\n      div\n      0xff\n      and\n        /* \"Documents/GitHub/contract-token-cryptoMonster/backend/shared/helpers/modifireFunc.sol\":287:337  structUsers_[msg.sender].role == Role.SYSTEM_OWNER */\n      0x04\n      dup2\n      gt\n      iszero\n      tag_92\n      jumpi\n      tag_93\n      tag_41\n      jump\t// in\n    tag_93:\n    tag_92:\n      eq\n        /* \"Documents/GitHub/contract-token-cryptoMonster/backend/shared/helpers/modifireFunc.sol\":279:356  require(structUsers_[msg.sender].role == Role.SYSTEM_OWNER, \"Your not admin\") */\n      tag_94\n      jumpi\n      mload(0x40)\n      0x08c379a000000000000000000000000000000000000000000000000000000000\n      dup2\n      mstore\n      0x04\n      add\n      tag_95\n      swap1\n      tag_96\n      jump\t// in\n    tag_95:\n      mload(0x40)\n      dup1\n      swap2\n      sub\n      swap1\n      revert\n    tag_94:\n        /* \"Documents/GitHub/contract-token-cryptoMonster/backend/shared/helpers/helpresFunc.sol\":781:790  blackList */\n      0x05\n        /* \"Documents/GitHub/contract-token-cryptoMonster/backend/shared/helpers/helpresFunc.sol\":774:791  return(blackList) */\n      dup1\n      sload\n      dup1\n      0x20\n      mul\n      0x20\n      add\n      mload(0x40)\n      swap1\n      dup2\n      add\n      0x40\n      mstore\n      dup1\n      swap3\n      swap2\n      swap1\n      dup2\n      dup2\n      mstore\n      0x20\n      add\n      dup3\n      dup1\n      sload\n      dup1\n      iszero\n      tag_98\n      jumpi\n      0x20\n      mul\n      dup3\n      add\n      swap2\n      swap1\n      0x00\n      mstore\n      keccak256(0x00, 0x20)\n      swap1\n    tag_99:\n      dup2\n      0x00\n      swap1\n      sload\n      swap1\n      0x0100\n      exp\n      swap1\n      div\n      0xffffffffffffffffffffffffffffffffffffffff\n      and\n      0xffffffffffffffffffffffffffffffffffffffff\n      and\n      dup2\n      mstore\n      0x20\n      add\n      swap1\n      0x01\n      add\n      swap1\n      dup1\n      dup4\n      gt\n      tag_99\n      jumpi\n    tag_98:\n      pop\n      pop\n      pop\n      pop\n      pop\n      swap1\n      pop\n        /* \"Documents/GitHub/contract-token-cryptoMonster/backend/shared/helpers/helpresFunc.sol\":689:799  function get_blackList() public onlyOwner view returns (address[] memory) {\r... */\n      swap1\n      jump\t// out\n        /* \"Documents/GitHub/contract-token-cryptoMonster/backend/shared/helpers/helpresFunc.sol\":212:350  function get_keccak256(string memory _hash) public pure returns(bytes32) {\r... */\n    tag_29:\n        /* \"Documents/GitHub/contract-token-cryptoMonster/backend/shared/helpers/helpresFunc.sol\":276:283  bytes32 */\n      0x00\n        /* \"Documents/GitHub/contract-token-cryptoMonster/backend/shared/helpers/helpresFunc.sol\":334:339  _hash */\n      dup2\n        /* \"Documents/GitHub/contract-token-cryptoMonster/backend/shared/helpers/helpresFunc.sol\":317:340  abi.encodePacked(_hash) */\n      add(0x20, mload(0x40))\n      tag_101\n      swap2\n      swap1\n      tag_102\n      jump\t// in\n    tag_101:\n      mload(0x40)\n      0x20\n      dup2\n      dup4\n      sub\n      sub\n      dup2\n      mstore\n      swap1\n      0x40\n      mstore\n        /* \"Documents/GitHub/contract-token-cryptoMonster/backend/shared/helpers/helpresFunc.sol\":307:341  keccak256(abi.encodePacked(_hash)) */\n      dup1\n      mload\n      swap1\n      0x20\n      add\n      keccak256\n        /* \"Documents/GitHub/contract-token-cryptoMonster/backend/shared/helpers/helpresFunc.sol\":300:342  return(keccak256(abi.encodePacked(_hash))) */\n      swap1\n      pop\n        /* \"Documents/GitHub/contract-token-cryptoMonster/backend/shared/helpers/helpresFunc.sol\":212:350  function get_keccak256(string memory _hash) public pure returns(bytes32) {\r... */\n      swap2\n      swap1\n      pop\n      jump\t// out\n        /* \"Documents/GitHub/contract-token-cryptoMonster/backend/components/PhasePrivate.sol\":3595:4394  function acceptApplication (address _userAdr) public onlyPrivateProvider {\r... */\n    tag_34:\n        /* \"Documents/GitHub/contract-token-cryptoMonster/backend/shared/helpers/modifireFunc.sol\":567:586  Role.SYSTEM_PRIVATE */\n      0x02\n        /* \"Documents/GitHub/contract-token-cryptoMonster/backend/shared/helpers/modifireFunc.sol\":534:586  structUsers_[msg.sender].role == Role.SYSTEM_PRIVATE */\n      0x04\n      dup2\n      gt\n      iszero\n      tag_104\n      jumpi\n      tag_105\n      tag_41\n      jump\t// in\n    tag_105:\n    tag_104:\n        /* \"Documents/GitHub/contract-token-cryptoMonster/backend/shared/helpers/modifireFunc.sol\":534:546  structUsers_ */\n      0x00\n        /* \"Documents/GitHub/contract-token-cryptoMonster/backend/shared/helpers/modifireFunc.sol\":534:558  structUsers_[msg.sender] */\n      dup1\n        /* \"Documents/GitHub/contract-token-cryptoMonster/backend/shared/helpers/modifireFunc.sol\":547:557  msg.sender */\n      caller\n        /* \"Documents/GitHub/contract-token-cryptoMonster/backend/shared/helpers/modifireFunc.sol\":534:558  structUsers_[msg.sender] */\n      0xffffffffffffffffffffffffffffffffffffffff\n      and\n      0xffffffffffffffffffffffffffffffffffffffff\n      and\n      dup2\n      mstore\n      0x20\n      add\n      swap1\n      dup2\n      mstore\n      0x20\n      add\n      0x00\n      keccak256\n        /* \"Documents/GitHub/contract-token-cryptoMonster/backend/shared/helpers/modifireFunc.sol\":534:563  structUsers_[msg.sender].role */\n      0x00\n      add\n      0x00\n      swap1\n      sload\n      swap1\n      0x0100\n      exp\n      swap1\n      div\n      0xff\n      and\n        /* \"Documents/GitHub/contract-token-cryptoMonster/backend/shared/helpers/modifireFunc.sol\":534:586  structUsers_[msg.sender].role == Role.SYSTEM_PRIVATE */\n      0x04\n      dup2\n      gt\n      iszero\n      tag_106\n      jumpi\n      tag_107\n      tag_41\n      jump\t// in\n    tag_107:\n    tag_106:\n      eq\n        /* \"Documents/GitHub/contract-token-cryptoMonster/backend/shared/helpers/modifireFunc.sol\":526:616  require(structUsers_[msg.sender].role == Role.SYSTEM_PRIVATE, \"Your not Private provider\") */\n      tag_108\n      jumpi\n      mload(0x40)\n      0x08c379a000000000000000000000000000000000000000000000000000000000\n      dup2\n      mstore\n      0x04\n      add\n      tag_109\n      swap1\n      tag_46\n      jump\t// in\n    tag_109:\n      mload(0x40)\n      dup1\n      swap2\n      sub\n      swap1\n      revert\n    tag_108:\n        /* \"Documents/GitHub/contract-token-cryptoMonster/backend/components/PhasePrivate.sol\":3730:3735  false */\n      0x00\n        /* \"Documents/GitHub/contract-token-cryptoMonster/backend/components/PhasePrivate.sol\":3687:3735  strucApplications_[msg.sender].reviewed == false */\n      iszero\n      iszero\n        /* \"Documents/GitHub/contract-token-cryptoMonster/backend/components/PhasePrivate.sol\":3687:3705  strucApplications_ */\n      0x02\n        /* \"Documents/GitHub/contract-token-cryptoMonster/backend/components/PhasePrivate.sol\":3687:3717  strucApplications_[msg.sender] */\n      0x00\n        /* \"Documents/GitHub/contract-token-cryptoMonster/backend/components/PhasePrivate.sol\":3706:3716  msg.sender */\n      caller\n        /* \"Documents/GitHub/contract-token-cryptoMonster/backend/components/PhasePrivate.sol\":3687:3717  strucApplications_[msg.sender] */\n      0xffffffffffffffffffffffffffffffffffffffff\n      and\n      0xffffffffffffffffffffffffffffffffffffffff\n      and\n      dup2\n      mstore\n      0x20\n      add\n      swap1\n      dup2\n      mstore\n      0x20\n      add\n      0x00\n      keccak256\n        /* \"Documents/GitHub/contract-token-cryptoMonster/backend/components/PhasePrivate.sol\":3687:3726  strucApplications_[msg.sender].reviewed */\n      0x02\n      add\n      0x15\n      swap1\n      sload\n      swap1\n      0x0100\n      exp\n      swap1\n      div\n      0xff\n      and\n        /* \"Documents/GitHub/contract-token-cryptoMonster/backend/components/PhasePrivate.sol\":3687:3735  strucApplications_[msg.sender].reviewed == false */\n      iszero\n      iszero\n      eq\n        /* \"Documents/GitHub/contract-token-cryptoMonster/backend/components/PhasePrivate.sol\":3679:3768  require(strucApplications_[msg.sender].reviewed == false, \"Review the application first\") */\n      tag_111\n      jumpi\n      mload(0x40)\n      0x08c379a000000000000000000000000000000000000000000000000000000000\n      dup2\n      mstore\n      0x04\n      add\n      tag_112\n      swap1\n      tag_50\n      jump\t// in\n    tag_112:\n      mload(0x40)\n      dup1\n      swap2\n      sub\n      swap1\n      revert\n    tag_111:\n        /* \"Documents/GitHub/contract-token-cryptoMonster/backend/components/PhasePrivate.sol\":3907:3912  false */\n      0x00\n        /* \"Documents/GitHub/contract-token-cryptoMonster/backend/components/PhasePrivate.sol\":3869:3887  strucApplications_ */\n      0x02\n        /* \"Documents/GitHub/contract-token-cryptoMonster/backend/components/PhasePrivate.sol\":3869:3897  strucApplications_[_userAdr] */\n      0x00\n        /* \"Documents/GitHub/contract-token-cryptoMonster/backend/components/PhasePrivate.sol\":3888:3896  _userAdr */\n      dup4\n        /* \"Documents/GitHub/contract-token-cryptoMonster/backend/components/PhasePrivate.sol\":3869:3897  strucApplications_[_userAdr] */\n      0xffffffffffffffffffffffffffffffffffffffff\n      and\n      0xffffffffffffffffffffffffffffffffffffffff\n      and\n      dup2\n      mstore\n      0x20\n      add\n      swap1\n      dup2\n      mstore\n      0x20\n      add\n      0x00\n      keccak256\n        /* \"Documents/GitHub/contract-token-cryptoMonster/backend/components/PhasePrivate.sol\":3869:3904  strucApplications_[_userAdr].status */\n      0x02\n      add\n      0x14\n        /* \"Documents/GitHub/contract-token-cryptoMonster/backend/components/PhasePrivate.sol\":3869:3912  strucApplications_[_userAdr].status = false */\n      0x0100\n      exp\n      dup2\n      sload\n      dup2\n      0xff\n      mul\n      not\n      and\n      swap1\n      dup4\n      iszero\n      iszero\n      mul\n      or\n      swap1\n      sstore\n      pop\n        /* \"Documents/GitHub/contract-token-cryptoMonster/backend/components/PhasePrivate.sol\":3976:4003  structApplicationsAmountAdr */\n      0x03\n        /* \"Documents/GitHub/contract-token-cryptoMonster/backend/components/PhasePrivate.sol\":4009:4017  _userAdr */\n      dup2\n        /* \"Documents/GitHub/contract-token-cryptoMonster/backend/components/PhasePrivate.sol\":3976:4018  structApplicationsAmountAdr.push(_userAdr) */\n      swap1\n      dup1\n      0x01\n      dup2\n      sload\n      add\n      dup1\n      dup3\n      sstore\n      dup1\n      swap2\n      pop\n      pop\n      0x01\n      swap1\n      sub\n      swap1\n      0x00\n      mstore\n      keccak256(0x00, 0x20)\n      add\n      0x00\n      swap1\n      swap2\n      swap1\n      swap2\n      swap1\n      swap2\n      0x0100\n      exp\n      dup2\n      sload\n      dup2\n      0xffffffffffffffffffffffffffffffffffffffff\n      mul\n      not\n      and\n      swap1\n      dup4\n      0xffffffffffffffffffffffffffffffffffffffff\n      and\n      mul\n      or\n      swap1\n      sstore\n      pop\n        /* \"Documents/GitHub/contract-token-cryptoMonster/backend/components/PhasePrivate.sol\":4156:4165  whiteList */\n      0x04\n        /* \"Documents/GitHub/contract-token-cryptoMonster/backend/components/PhasePrivate.sol\":4171:4179  _userAdr */\n      dup2\n        /* \"Documents/GitHub/contract-token-cryptoMonster/backend/components/PhasePrivate.sol\":4156:4180  whiteList.push(_userAdr) */\n      swap1\n      dup1\n      0x01\n      dup2\n      sload\n      add\n      dup1\n      dup3\n      sstore\n      dup1\n      swap2\n      pop\n      pop\n      0x01\n      swap1\n      sub\n      swap1\n      0x00\n      mstore\n      keccak256(0x00, 0x20)\n      add\n      0x00\n      swap1\n      swap2\n      swap1\n      swap2\n      swap1\n      swap2\n      0x0100\n      exp\n      dup2\n      sload\n      dup2\n      0xffffffffffffffffffffffffffffffffffffffff\n      mul\n      not\n      and\n      swap1\n      dup4\n      0xffffffffffffffffffffffffffffffffffffffff\n      and\n      mul\n      or\n      swap1\n      sstore\n      pop\n        /* \"Documents/GitHub/contract-token-cryptoMonster/backend/components/PhasePrivate.sol\":4298:4386  structUser(Role.USER, strucApplications_[_userAdr].name, get_keccak256(\"0\"), 0, 0, 0, 0) */\n      mload(0x40)\n      dup1\n      0xe0\n      add\n      0x40\n      mstore\n      dup1\n        /* \"Documents/GitHub/contract-token-cryptoMonster/backend/components/PhasePrivate.sol\":4309:4318  Role.USER */\n      0x04\n        /* \"Documents/GitHub/contract-token-cryptoMonster/backend/components/PhasePrivate.sol\":4298:4386  structUser(Role.USER, strucApplications_[_userAdr].name, get_keccak256(\"0\"), 0, 0, 0, 0) */\n      dup1\n      dup2\n      gt\n      iszero\n      tag_115\n      jumpi\n      tag_116\n      tag_41\n      jump\t// in\n    tag_116:\n    tag_115:\n      dup2\n      mstore\n      0x20\n      add\n        /* \"Documents/GitHub/contract-token-cryptoMonster/backend/components/PhasePrivate.sol\":4320:4338  strucApplications_ */\n      0x02\n        /* \"Documents/GitHub/contract-token-cryptoMonster/backend/components/PhasePrivate.sol\":4320:4348  strucApplications_[_userAdr] */\n      0x00\n        /* \"Documents/GitHub/contract-token-cryptoMonster/backend/components/PhasePrivate.sol\":4339:4347  _userAdr */\n      dup5\n        /* \"Documents/GitHub/contract-token-cryptoMonster/backend/components/PhasePrivate.sol\":4320:4348  strucApplications_[_userAdr] */\n      0xffffffffffffffffffffffffffffffffffffffff\n      and\n      0xffffffffffffffffffffffffffffffffffffffff\n      and\n      dup2\n      mstore\n      0x20\n      add\n      swap1\n      dup2\n      mstore\n      0x20\n      add\n      0x00\n      keccak256\n        /* \"Documents/GitHub/contract-token-cryptoMonster/backend/components/PhasePrivate.sol\":4320:4353  strucApplications_[_userAdr].name */\n      0x00\n      add\n        /* \"Documents/GitHub/contract-token-cryptoMonster/backend/components/PhasePrivate.sol\":4298:4386  structUser(Role.USER, strucApplications_[_userAdr].name, get_keccak256(\"0\"), 0, 0, 0, 0) */\n      dup1\n      sload\n      tag_117\n      swap1\n      tag_118\n      jump\t// in\n    tag_117:\n      dup1\n      0x1f\n      add\n      0x20\n      dup1\n      swap2\n      div\n      mul\n      0x20\n      add\n      mload(0x40)\n      swap1\n      dup2\n      add\n      0x40\n      mstore\n      dup1\n      swap3\n      swap2\n      swap1\n      dup2\n      dup2\n      mstore\n      0x20\n      add\n      dup3\n      dup1\n      sload\n      tag_119\n      swap1\n      tag_118\n      jump\t// in\n    tag_119:\n      dup1\n      iszero\n      tag_120\n      jumpi\n      dup1\n      0x1f\n      lt\n      tag_121\n      jumpi\n      0x0100\n      dup1\n      dup4\n      sload\n      div\n      mul\n      dup4\n      mstore\n      swap2\n      0x20\n      add\n      swap2\n      jump(tag_120)\n    tag_121:\n      dup3\n      add\n      swap2\n      swap1\n      0x00\n      mstore\n      keccak256(0x00, 0x20)\n      swap1\n    tag_122:\n      dup2\n      sload\n      dup2\n      mstore\n      swap1\n      0x01\n      add\n      swap1\n      0x20\n      add\n      dup1\n      dup4\n      gt\n      tag_122\n      jumpi\n      dup3\n      swap1\n      sub\n      0x1f\n      and\n      dup3\n      add\n      swap2\n    tag_120:\n      pop\n      pop\n      pop\n      pop\n      pop\n      dup2\n      mstore\n      0x20\n      add\n        /* \"Documents/GitHub/contract-token-cryptoMonster/backend/components/PhasePrivate.sol\":4355:4373  get_keccak256(\"0\") */\n      tag_123\n      mload(0x40)\n      dup1\n      0x40\n      add\n      0x40\n      mstore\n      dup1\n      0x01\n      dup2\n      mstore\n      0x20\n      add\n      0x3000000000000000000000000000000000000000000000000000000000000000\n      dup2\n      mstore\n      pop\n        /* \"Documents/GitHub/contract-token-cryptoMonster/backend/components/PhasePrivate.sol\":4355:4368  get_keccak256 */\n      tag_29\n        /* \"Documents/GitHub/contract-token-cryptoMonster/backend/components/PhasePrivate.sol\":4355:4373  get_keccak256(\"0\") */\n      jump\t// in\n    tag_123:\n        /* \"Documents/GitHub/contract-token-cryptoMonster/backend/components/PhasePrivate.sol\":4298:4386  structUser(Role.USER, strucApplications_[_userAdr].name, get_keccak256(\"0\"), 0, 0, 0, 0) */\n      dup2\n      mstore\n      0x20\n      add\n        /* \"Documents/GitHub/contract-token-cryptoMonster/backend/components/PhasePrivate.sol\":4375:4376  0 */\n      0x00\n        /* \"Documents/GitHub/contract-token-cryptoMonster/backend/components/PhasePrivate.sol\":4298:4386  structUser(Role.USER, strucApplications_[_userAdr].name, get_keccak256(\"0\"), 0, 0, 0, 0) */\n      dup2\n      mstore\n      0x20\n      add\n        /* \"Documents/GitHub/contract-token-cryptoMonster/backend/components/PhasePrivate.sol\":4378:4379  0 */\n      0x00\n        /* \"Documents/GitHub/contract-token-cryptoMonster/backend/components/PhasePrivate.sol\":4298:4386  structUser(Role.USER, strucApplications_[_userAdr].name, get_keccak256(\"0\"), 0, 0, 0, 0) */\n      dup2\n      mstore\n      0x20\n      add\n        /* \"Documents/GitHub/contract-token-cryptoMonster/backend/components/PhasePrivate.sol\":4381:4382  0 */\n      0x00\n        /* \"Documents/GitHub/contract-token-cryptoMonster/backend/components/PhasePrivate.sol\":4298:4386  structUser(Role.USER, strucApplications_[_userAdr].name, get_keccak256(\"0\"), 0, 0, 0, 0) */\n      dup2\n      mstore\n      0x20\n      add\n        /* \"Documents/GitHub/contract-token-cryptoMonster/backend/components/PhasePrivate.sol\":4384:4385  0 */\n      0x00\n        /* \"Documents/GitHub/contract-token-cryptoMonster/backend/components/PhasePrivate.sol\":4298:4386  structUser(Role.USER, strucApplications_[_userAdr].name, get_keccak256(\"0\"), 0, 0, 0, 0) */\n      dup2\n      mstore\n      pop\n        /* \"Documents/GitHub/contract-token-cryptoMonster/backend/components/PhasePrivate.sol\":4273:4285  structUsers_ */\n      0x00\n        /* \"Documents/GitHub/contract-token-cryptoMonster/backend/components/PhasePrivate.sol\":4273:4295  structUsers_[_userAdr] */\n      dup1\n        /* \"Documents/GitHub/contract-token-cryptoMonster/backend/components/PhasePrivate.sol\":4286:4294  _userAdr */\n      dup4\n        /* \"Documents/GitHub/contract-token-cryptoMonster/backend/components/PhasePrivate.sol\":4273:4295  structUsers_[_userAdr] */\n      0xffffffffffffffffffffffffffffffffffffffff\n      and\n      0xffffffffffffffffffffffffffffffffffffffff\n      and\n      dup2\n      mstore\n      0x20\n      add\n      swap1\n      dup2\n      mstore\n      0x20\n      add\n      0x00\n      keccak256\n        /* \"Documents/GitHub/contract-token-cryptoMonster/backend/components/PhasePrivate.sol\":4273:4386  structUsers_[_userAdr] = structUser(Role.USER, strucApplications_[_userAdr].name, get_keccak256(\"0\"), 0, 0, 0, 0) */\n      0x00\n      dup3\n      add\n      mload\n      dup2\n      0x00\n      add\n      exp(0x0100, 0x00)\n      dup2\n      sload\n      dup2\n      0xff\n      mul\n      not\n      and\n      swap1\n      dup4\n      0x04\n      dup2\n      gt\n      iszero\n      tag_124\n      jumpi\n      tag_125\n      tag_41\n      jump\t// in\n    tag_125:\n    tag_124:\n      mul\n      or\n      swap1\n      sstore\n      pop\n      0x20\n      dup3\n      add\n      mload\n      dup2\n      0x01\n      add\n      swap1\n      dup1\n      mload\n      swap1\n      0x20\n      add\n      swap1\n      tag_126\n      swap3\n      swap2\n      swap1\n      tag_86\n      jump\t// in\n    tag_126:\n      pop\n      0x40\n      dup3\n      add\n      mload\n      dup2\n      0x02\n      add\n      sstore\n      0x60\n      dup3\n      add\n      mload\n      dup2\n      0x03\n      add\n      sstore\n      0x80\n      dup3\n      add\n      mload\n      dup2\n      0x04\n      add\n      sstore\n      0xa0\n      dup3\n      add\n      mload\n      dup2\n      0x05\n      add\n      sstore\n      0xc0\n      dup3\n      add\n      mload\n      dup2\n      0x06\n      add\n      sstore\n      swap1\n      pop\n      pop\n        /* \"Documents/GitHub/contract-token-cryptoMonster/backend/components/PhasePrivate.sol\":3595:4394  function acceptApplication (address _userAdr) public onlyPrivateProvider {\r... */\n      pop\n      jump\t// out\n        /* \"Documents/GitHub/contract-token-cryptoMonster/backend/shared/helpers/helpresFunc.sol\":483:611  function get_whiteList() public onlyOwnerAndPrivateProvider view returns (address[] memory) {\r... */\n    tag_36:\n        /* \"Documents/GitHub/contract-token-cryptoMonster/backend/shared/helpers/helpresFunc.sol\":557:573  address[] memory */\n      0x60\n        /* \"Documents/GitHub/contract-token-cryptoMonster/backend/shared/helpers/modifireFunc.sol\":859:876  Role.SYSTEM_OWNER */\n      0x00\n        /* \"Documents/GitHub/contract-token-cryptoMonster/backend/shared/helpers/modifireFunc.sol\":826:876  structUsers_[msg.sender].role == Role.SYSTEM_OWNER */\n      0x04\n      dup2\n      gt\n      iszero\n      tag_128\n      jumpi\n      tag_129\n      tag_41\n      jump\t// in\n    tag_129:\n    tag_128:\n        /* \"Documents/GitHub/contract-token-cryptoMonster/backend/shared/helpers/modifireFunc.sol\":826:838  structUsers_ */\n      0x00\n        /* \"Documents/GitHub/contract-token-cryptoMonster/backend/shared/helpers/modifireFunc.sol\":826:850  structUsers_[msg.sender] */\n      dup1\n        /* \"Documents/GitHub/contract-token-cryptoMonster/backend/shared/helpers/modifireFunc.sol\":839:849  msg.sender */\n      caller\n        /* \"Documents/GitHub/contract-token-cryptoMonster/backend/shared/helpers/modifireFunc.sol\":826:850  structUsers_[msg.sender] */\n      0xffffffffffffffffffffffffffffffffffffffff\n      and\n      0xffffffffffffffffffffffffffffffffffffffff\n      and\n      dup2\n      mstore\n      0x20\n      add\n      swap1\n      dup2\n      mstore\n      0x20\n      add\n      0x00\n      keccak256\n        /* \"Documents/GitHub/contract-token-cryptoMonster/backend/shared/helpers/modifireFunc.sol\":826:855  structUsers_[msg.sender].role */\n      0x00\n      add\n      0x00\n      swap1\n      sload\n      swap1\n      0x0100\n      exp\n      swap1\n      div\n      0xff\n      and\n        /* \"Documents/GitHub/contract-token-cryptoMonster/backend/shared/helpers/modifireFunc.sol\":826:876  structUsers_[msg.sender].role == Role.SYSTEM_OWNER */\n      0x04\n      dup2\n      gt\n      iszero\n      tag_130\n      jumpi\n      tag_131\n      tag_41\n      jump\t// in\n    tag_131:\n    tag_130:\n      eq\n        /* \"Documents/GitHub/contract-token-cryptoMonster/backend/shared/helpers/modifireFunc.sol\":826:932  structUsers_[msg.sender].role == Role.SYSTEM_OWNER || structUsers_[msg.sender].role == Role.SYSTEM_PRIVATE */\n      dup1\n      tag_132\n      jumpi\n      pop\n        /* \"Documents/GitHub/contract-token-cryptoMonster/backend/shared/helpers/modifireFunc.sol\":913:932  Role.SYSTEM_PRIVATE */\n      0x02\n        /* \"Documents/GitHub/contract-token-cryptoMonster/backend/shared/helpers/modifireFunc.sol\":880:932  structUsers_[msg.sender].role == Role.SYSTEM_PRIVATE */\n      0x04\n      dup2\n      gt\n      iszero\n      tag_133\n      jumpi\n      tag_134\n      tag_41\n      jump\t// in\n    tag_134:\n    tag_133:\n        /* \"Documents/GitHub/contract-token-cryptoMonster/backend/shared/helpers/modifireFunc.sol\":880:892  structUsers_ */\n      0x00\n        /* \"Documents/GitHub/contract-token-cryptoMonster/backend/shared/helpers/modifireFunc.sol\":880:904  structUsers_[msg.sender] */\n      dup1\n        /* \"Documents/GitHub/contract-token-cryptoMonster/backend/shared/helpers/modifireFunc.sol\":893:903  msg.sender */\n      caller\n        /* \"Documents/GitHub/contract-token-cryptoMonster/backend/shared/helpers/modifireFunc.sol\":880:904  structUsers_[msg.sender] */\n      0xffffffffffffffffffffffffffffffffffffffff\n      and\n      0xffffffffffffffffffffffffffffffffffffffff\n      and\n      dup2\n      mstore\n      0x20\n      add\n      swap1\n      dup2\n      mstore\n      0x20\n      add\n      0x00\n      keccak256\n        /* \"Documents/GitHub/contract-token-cryptoMonster/backend/shared/helpers/modifireFunc.sol\":880:909  structUsers_[msg.sender].role */\n      0x00\n      add\n      0x00\n      swap1\n      sload\n      swap1\n      0x0100\n      exp\n      swap1\n      div\n      0xff\n      and\n        /* \"Documents/GitHub/contract-token-cryptoMonster/backend/shared/helpers/modifireFunc.sol\":880:932  structUsers_[msg.sender].role == Role.SYSTEM_PRIVATE */\n      0x04\n      dup2\n      gt\n      iszero\n      tag_135\n      jumpi\n      tag_136\n      tag_41\n      jump\t// in\n    tag_136:\n    tag_135:\n      eq\n        /* \"Documents/GitHub/contract-token-cryptoMonster/backend/shared/helpers/modifireFunc.sol\":826:932  structUsers_[msg.sender].role == Role.SYSTEM_OWNER || structUsers_[msg.sender].role == Role.SYSTEM_PRIVATE */\n    tag_132:\n        /* \"Documents/GitHub/contract-token-cryptoMonster/backend/shared/helpers/modifireFunc.sol\":818:978  require(structUsers_[msg.sender].role == Role.SYSTEM_OWNER || structUsers_[msg.sender].role == Role.SYSTEM_PRIVATE, \"You are not the owner or private provider\") */\n      tag_137\n      jumpi\n      mload(0x40)\n      0x08c379a000000000000000000000000000000000000000000000000000000000\n      dup2\n      mstore\n      0x04\n      add\n      tag_138\n      swap1\n      tag_139\n      jump\t// in\n    tag_138:\n      mload(0x40)\n      dup1\n      swap2\n      sub\n      swap1\n      revert\n    tag_137:\n        /* \"Documents/GitHub/contract-token-cryptoMonster/backend/shared/helpers/helpresFunc.sol\":593:602  whiteList */\n      0x04\n        /* \"Documents/GitHub/contract-token-cryptoMonster/backend/shared/helpers/helpresFunc.sol\":586:603  return(whiteList) */\n      dup1\n      sload\n      dup1\n      0x20\n      mul\n      0x20\n      add\n      mload(0x40)\n      swap1\n      dup2\n      add\n      0x40\n      mstore\n      dup1\n      swap3\n      swap2\n      swap1\n      dup2\n      dup2\n      mstore\n      0x20\n      add\n      dup3\n      dup1\n      sload\n      dup1\n      iszero\n      tag_141\n      jumpi\n      0x20\n      mul\n      dup3\n      add\n      swap2\n      swap1\n      0x00\n      mstore\n      keccak256(0x00, 0x20)\n      swap1\n    tag_142:\n      dup2\n      0x00\n      swap1\n      sload\n      swap1\n      0x0100\n      exp\n      swap1\n      div\n      0xffffffffffffffffffffffffffffffffffffffff\n      and\n      0xffffffffffffffffffffffffffffffffffffffff\n      and\n      dup2\n      mstore\n      0x20\n      add\n      swap1\n      0x01\n      add\n      swap1\n      dup1\n      dup4\n      gt\n      tag_142\n      jumpi\n    tag_141:\n      pop\n      pop\n      pop\n      pop\n      pop\n      swap1\n      pop\n        /* \"Documents/GitHub/contract-token-cryptoMonster/backend/shared/helpers/helpresFunc.sol\":483:611  function get_whiteList() public onlyOwnerAndPrivateProvider view returns (address[] memory) {\r... */\n      swap1\n      jump\t// out\n    tag_86:\n      dup3\n      dup1\n      sload\n      tag_143\n      swap1\n      tag_118\n      jump\t// in\n    tag_143:\n      swap1\n      0x00\n      mstore\n      keccak256(0x00, 0x20)\n      swap1\n      0x1f\n      add\n      0x20\n      swap1\n      div\n      dup2\n      add\n      swap3\n      dup3\n      tag_145\n      jumpi\n      0x00\n      dup6\n      sstore\n      jump(tag_144)\n    tag_145:\n      dup3\n      0x1f\n      lt\n      tag_146\n      jumpi\n      dup1\n      mload\n      not(0xff)\n      and\n      dup4\n      dup1\n      add\n      or\n      dup6\n      sstore\n      jump(tag_144)\n    tag_146:\n      dup3\n      dup1\n      add\n      0x01\n      add\n      dup6\n      sstore\n      dup3\n      iszero\n      tag_144\n      jumpi\n      swap2\n      dup3\n      add\n    tag_147:\n      dup3\n      dup2\n      gt\n      iszero\n      tag_148\n      jumpi\n      dup3\n      mload\n      dup3\n      sstore\n      swap2\n      0x20\n      add\n      swap2\n      swap1\n      0x01\n      add\n      swap1\n      jump(tag_147)\n    tag_148:\n    tag_144:\n      pop\n      swap1\n      pop\n      tag_149\n      swap2\n      swap1\n      tag_150\n      jump\t// in\n    tag_149:\n      pop\n      swap1\n      jump\t// out\n    tag_150:\n    tag_151:\n      dup1\n      dup3\n      gt\n      iszero\n      tag_152\n      jumpi\n      0x00\n      dup2\n      0x00\n      swap1\n      sstore\n      pop\n      0x01\n      add\n      jump(tag_151)\n    tag_152:\n      pop\n      swap1\n      jump\t// out\n        /* \"#utility.yul\":7:419   */\n    tag_154:\n        /* \"#utility.yul\":85:90   */\n      0x00\n        /* \"#utility.yul\":110:176   */\n      tag_156\n        /* \"#utility.yul\":126:175   */\n      tag_157\n        /* \"#utility.yul\":168:174   */\n      dup5\n        /* \"#utility.yul\":126:175   */\n      tag_158\n      jump\t// in\n    tag_157:\n        /* \"#utility.yul\":110:176   */\n      tag_159\n      jump\t// in\n    tag_156:\n        /* \"#utility.yul\":101:176   */\n      swap1\n      pop\n        /* \"#utility.yul\":199:205   */\n      dup3\n        /* \"#utility.yul\":192:197   */\n      dup2\n        /* \"#utility.yul\":185:206   */\n      mstore\n        /* \"#utility.yul\":237:241   */\n      0x20\n        /* \"#utility.yul\":230:235   */\n      dup2\n        /* \"#utility.yul\":226:242   */\n      add\n        /* \"#utility.yul\":275:278   */\n      dup5\n        /* \"#utility.yul\":266:272   */\n      dup5\n        /* \"#utility.yul\":261:264   */\n      dup5\n        /* \"#utility.yul\":257:273   */\n      add\n        /* \"#utility.yul\":254:279   */\n      gt\n        /* \"#utility.yul\":251:363   */\n      iszero\n      tag_160\n      jumpi\n        /* \"#utility.yul\":282:361   */\n      tag_161\n      tag_162\n      jump\t// in\n    tag_161:\n        /* \"#utility.yul\":251:363   */\n    tag_160:\n        /* \"#utility.yul\":372:413   */\n      tag_163\n        /* \"#utility.yul\":406:412   */\n      dup5\n        /* \"#utility.yul\":401:404   */\n      dup3\n        /* \"#utility.yul\":396:399   */\n      dup6\n        /* \"#utility.yul\":372:413   */\n      tag_164\n      jump\t// in\n    tag_163:\n        /* \"#utility.yul\":91:419   */\n      pop\n        /* \"#utility.yul\":7:419   */\n      swap4\n      swap3\n      pop\n      pop\n      pop\n      jump\t// out\n        /* \"#utility.yul\":425:564   */\n    tag_165:\n        /* \"#utility.yul\":471:476   */\n      0x00\n        /* \"#utility.yul\":509:515   */\n      dup2\n        /* \"#utility.yul\":496:516   */\n      calldataload\n        /* \"#utility.yul\":487:516   */\n      swap1\n      pop\n        /* \"#utility.yul\":525:558   */\n      tag_167\n        /* \"#utility.yul\":552:557   */\n      dup2\n        /* \"#utility.yul\":525:558   */\n      tag_168\n      jump\t// in\n    tag_167:\n        /* \"#utility.yul\":425:564   */\n      swap3\n      swap2\n      pop\n      pop\n      jump\t// out\n        /* \"#utility.yul\":584:924   */\n    tag_169:\n        /* \"#utility.yul\":640:645   */\n      0x00\n        /* \"#utility.yul\":689:692   */\n      dup3\n        /* \"#utility.yul\":682:686   */\n      0x1f\n        /* \"#utility.yul\":674:680   */\n      dup4\n        /* \"#utility.yul\":670:687   */\n      add\n        /* \"#utility.yul\":666:693   */\n      slt\n        /* \"#utility.yul\":656:778   */\n      tag_171\n      jumpi\n        /* \"#utility.yul\":697:776   */\n      tag_172\n      tag_173\n      jump\t// in\n    tag_172:\n        /* \"#utility.yul\":656:778   */\n    tag_171:\n        /* \"#utility.yul\":814:820   */\n      dup2\n        /* \"#utility.yul\":801:821   */\n      calldataload\n        /* \"#utility.yul\":839:918   */\n      tag_174\n        /* \"#utility.yul\":914:917   */\n      dup5\n        /* \"#utility.yul\":906:912   */\n      dup3\n        /* \"#utility.yul\":899:903   */\n      0x20\n        /* \"#utility.yul\":891:897   */\n      dup7\n        /* \"#utility.yul\":887:904   */\n      add\n        /* \"#utility.yul\":839:918   */\n      tag_154\n      jump\t// in\n    tag_174:\n        /* \"#utility.yul\":830:918   */\n      swap2\n      pop\n        /* \"#utility.yul\":646:924   */\n      pop\n        /* \"#utility.yul\":584:924   */\n      swap3\n      swap2\n      pop\n      pop\n      jump\t// out\n        /* \"#utility.yul\":930:1259   */\n    tag_13:\n        /* \"#utility.yul\":989:995   */\n      0x00\n        /* \"#utility.yul\":1038:1040   */\n      0x20\n        /* \"#utility.yul\":1026:1035   */\n      dup3\n        /* \"#utility.yul\":1017:1024   */\n      dup5\n        /* \"#utility.yul\":1013:1036   */\n      sub\n        /* \"#utility.yul\":1009:1041   */\n      slt\n        /* \"#utility.yul\":1006:1125   */\n      iszero\n      tag_176\n      jumpi\n        /* \"#utility.yul\":1044:1123   */\n      tag_177\n      tag_178\n      jump\t// in\n    tag_177:\n        /* \"#utility.yul\":1006:1125   */\n    tag_176:\n        /* \"#utility.yul\":1164:1165   */\n      0x00\n        /* \"#utility.yul\":1189:1242   */\n      tag_179\n        /* \"#utility.yul\":1234:1241   */\n      dup5\n        /* \"#utility.yul\":1225:1231   */\n      dup3\n        /* \"#utility.yul\":1214:1223   */\n      dup6\n        /* \"#utility.yul\":1210:1232   */\n      add\n        /* \"#utility.yul\":1189:1242   */\n      tag_165\n      jump\t// in\n    tag_179:\n        /* \"#utility.yul\":1179:1242   */\n      swap2\n      pop\n        /* \"#utility.yul\":1135:1252   */\n      pop\n        /* \"#utility.yul\":930:1259   */\n      swap3\n      swap2\n      pop\n      pop\n      jump\t// out\n        /* \"#utility.yul\":1265:1774   */\n    tag_28:\n        /* \"#utility.yul\":1334:1340   */\n      0x00\n        /* \"#utility.yul\":1383:1385   */\n      0x20\n        /* \"#utility.yul\":1371:1380   */\n      dup3\n        /* \"#utility.yul\":1362:1369   */\n      dup5\n        /* \"#utility.yul\":1358:1381   */\n      sub\n        /* \"#utility.yul\":1354:1386   */\n      slt\n        /* \"#utility.yul\":1351:1470   */\n      iszero\n      tag_181\n      jumpi\n        /* \"#utility.yul\":1389:1468   */\n      tag_182\n      tag_178\n      jump\t// in\n    tag_182:\n        /* \"#utility.yul\":1351:1470   */\n    tag_181:\n        /* \"#utility.yul\":1537:1538   */\n      0x00\n        /* \"#utility.yul\":1526:1535   */\n      dup3\n        /* \"#utility.yul\":1522:1539   */\n      add\n        /* \"#utility.yul\":1509:1540   */\n      calldataload\n        /* \"#utility.yul\":1567:1585   */\n      0xffffffffffffffff\n        /* \"#utility.yul\":1559:1565   */\n      dup2\n        /* \"#utility.yul\":1556:1586   */\n      gt\n        /* \"#utility.yul\":1553:1670   */\n      iszero\n      tag_183\n      jumpi\n        /* \"#utility.yul\":1589:1668   */\n      tag_184\n      tag_185\n      jump\t// in\n    tag_184:\n        /* \"#utility.yul\":1553:1670   */\n    tag_183:\n        /* \"#utility.yul\":1694:1757   */\n      tag_186\n        /* \"#utility.yul\":1749:1756   */\n      dup5\n        /* \"#utility.yul\":1740:1746   */\n      dup3\n        /* \"#utility.yul\":1729:1738   */\n      dup6\n        /* \"#utility.yul\":1725:1747   */\n      add\n        /* \"#utility.yul\":1694:1757   */\n      tag_169\n      jump\t// in\n    tag_186:\n        /* \"#utility.yul\":1684:1757   */\n      swap2\n      pop\n        /* \"#utility.yul\":1480:1767   */\n      pop\n        /* \"#utility.yul\":1265:1774   */\n      swap3\n      swap2\n      pop\n      pop\n      jump\t// out\n        /* \"#utility.yul\":1780:2759   */\n    tag_21:\n        /* \"#utility.yul\":1877:1883   */\n      0x00\n        /* \"#utility.yul\":1885:1891   */\n      dup1\n        /* \"#utility.yul\":1893:1899   */\n      0x00\n        /* \"#utility.yul\":1942:1944   */\n      0x60\n        /* \"#utility.yul\":1930:1939   */\n      dup5\n        /* \"#utility.yul\":1921:1928   */\n      dup7\n        /* \"#utility.yul\":1917:1940   */\n      sub\n        /* \"#utility.yul\":1913:1945   */\n      slt\n        /* \"#utility.yul\":1910:2029   */\n      iszero\n      tag_188\n      jumpi\n        /* \"#utility.yul\":1948:2027   */\n      tag_189\n      tag_178\n      jump\t// in\n    tag_189:\n        /* \"#utility.yul\":1910:2029   */\n    tag_188:\n        /* \"#utility.yul\":2096:2097   */\n      0x00\n        /* \"#utility.yul\":2085:2094   */\n      dup5\n        /* \"#utility.yul\":2081:2098   */\n      add\n        /* \"#utility.yul\":2068:2099   */\n      calldataload\n        /* \"#utility.yul\":2126:2144   */\n      0xffffffffffffffff\n        /* \"#utility.yul\":2118:2124   */\n      dup2\n        /* \"#utility.yul\":2115:2145   */\n      gt\n        /* \"#utility.yul\":2112:2229   */\n      iszero\n      tag_190\n      jumpi\n        /* \"#utility.yul\":2148:2227   */\n      tag_191\n      tag_185\n      jump\t// in\n    tag_191:\n        /* \"#utility.yul\":2112:2229   */\n    tag_190:\n        /* \"#utility.yul\":2253:2316   */\n      tag_192\n        /* \"#utility.yul\":2308:2315   */\n      dup7\n        /* \"#utility.yul\":2299:2305   */\n      dup3\n        /* \"#utility.yul\":2288:2297   */\n      dup8\n        /* \"#utility.yul\":2284:2306   */\n      add\n        /* \"#utility.yul\":2253:2316   */\n      tag_169\n      jump\t// in\n    tag_192:\n        /* \"#utility.yul\":2243:2316   */\n      swap4\n      pop\n        /* \"#utility.yul\":2039:2326   */\n      pop\n        /* \"#utility.yul\":2393:2395   */\n      0x20\n        /* \"#utility.yul\":2382:2391   */\n      dup5\n        /* \"#utility.yul\":2378:2396   */\n      add\n        /* \"#utility.yul\":2365:2397   */\n      calldataload\n        /* \"#utility.yul\":2424:2442   */\n      0xffffffffffffffff\n        /* \"#utility.yul\":2416:2422   */\n      dup2\n        /* \"#utility.yul\":2413:2443   */\n      gt\n        /* \"#utility.yul\":2410:2527   */\n      iszero\n      tag_193\n      jumpi\n        /* \"#utility.yul\":2446:2525   */\n      tag_194\n      tag_185\n      jump\t// in\n    tag_194:\n        /* \"#utility.yul\":2410:2527   */\n    tag_193:\n        /* \"#utility.yul\":2551:2614   */\n      tag_195\n        /* \"#utility.yul\":2606:2613   */\n      dup7\n        /* \"#utility.yul\":2597:2603   */\n      dup3\n        /* \"#utility.yul\":2586:2595   */\n      dup8\n        /* \"#utility.yul\":2582:2604   */\n      add\n        /* \"#utility.yul\":2551:2614   */\n      tag_169\n      jump\t// in\n    tag_195:\n        /* \"#utility.yul\":2541:2614   */\n      swap3\n      pop\n        /* \"#utility.yul\":2336:2624   */\n      pop\n        /* \"#utility.yul\":2663:2665   */\n      0x40\n        /* \"#utility.yul\":2689:2742   */\n      tag_196\n        /* \"#utility.yul\":2734:2741   */\n      dup7\n        /* \"#utility.yul\":2725:2731   */\n      dup3\n        /* \"#utility.yul\":2714:2723   */\n      dup8\n        /* \"#utility.yul\":2710:2732   */\n      add\n        /* \"#utility.yul\":2689:2742   */\n      tag_165\n      jump\t// in\n    tag_196:\n        /* \"#utility.yul\":2679:2742   */\n      swap2\n      pop\n        /* \"#utility.yul\":2634:2752   */\n      pop\n        /* \"#utility.yul\":1780:2759   */\n      swap3\n      pop\n      swap3\n      pop\n      swap3\n      jump\t// out\n        /* \"#utility.yul\":2765:2944   */\n    tag_197:\n        /* \"#utility.yul\":2834:2844   */\n      0x00\n        /* \"#utility.yul\":2855:2901   */\n      tag_199\n        /* \"#utility.yul\":2897:2900   */\n      dup4\n        /* \"#utility.yul\":2889:2895   */\n      dup4\n        /* \"#utility.yul\":2855:2901   */\n      tag_200\n      jump\t// in\n    tag_199:\n        /* \"#utility.yul\":2933:2937   */\n      0x20\n        /* \"#utility.yul\":2928:2931   */\n      dup4\n        /* \"#utility.yul\":2924:2938   */\n      add\n        /* \"#utility.yul\":2910:2938   */\n      swap1\n      pop\n        /* \"#utility.yul\":2765:2944   */\n      swap3\n      swap2\n      pop\n      pop\n      jump\t// out\n        /* \"#utility.yul\":2950:3058   */\n    tag_200:\n        /* \"#utility.yul\":3027:3051   */\n      tag_202\n        /* \"#utility.yul\":3045:3050   */\n      dup2\n        /* \"#utility.yul\":3027:3051   */\n      tag_203\n      jump\t// in\n    tag_202:\n        /* \"#utility.yul\":3022:3025   */\n      dup3\n        /* \"#utility.yul\":3015:3052   */\n      mstore\n        /* \"#utility.yul\":2950:3058   */\n      pop\n      pop\n      jump\t// out\n        /* \"#utility.yul\":3094:3826   */\n    tag_204:\n        /* \"#utility.yul\":3213:3216   */\n      0x00\n        /* \"#utility.yul\":3242:3296   */\n      tag_206\n        /* \"#utility.yul\":3290:3295   */\n      dup3\n        /* \"#utility.yul\":3242:3296   */\n      tag_207\n      jump\t// in\n    tag_206:\n        /* \"#utility.yul\":3312:3398   */\n      tag_208\n        /* \"#utility.yul\":3391:3397   */\n      dup2\n        /* \"#utility.yul\":3386:3389   */\n      dup6\n        /* \"#utility.yul\":3312:3398   */\n      tag_209\n      jump\t// in\n    tag_208:\n        /* \"#utility.yul\":3305:3398   */\n      swap4\n      pop\n        /* \"#utility.yul\":3422:3478   */\n      tag_210\n        /* \"#utility.yul\":3472:3477   */\n      dup4\n        /* \"#utility.yul\":3422:3478   */\n      tag_211\n      jump\t// in\n    tag_210:\n        /* \"#utility.yul\":3501:3508   */\n      dup1\n        /* \"#utility.yul\":3532:3533   */\n      0x00\n        /* \"#utility.yul\":3517:3801   */\n    tag_212:\n        /* \"#utility.yul\":3542:3548   */\n      dup4\n        /* \"#utility.yul\":3539:3540   */\n      dup2\n        /* \"#utility.yul\":3536:3549   */\n      lt\n        /* \"#utility.yul\":3517:3801   */\n      iszero\n      tag_214\n      jumpi\n        /* \"#utility.yul\":3618:3624   */\n      dup2\n        /* \"#utility.yul\":3612:3625   */\n      mload\n        /* \"#utility.yul\":3645:3708   */\n      tag_215\n        /* \"#utility.yul\":3704:3707   */\n      dup9\n        /* \"#utility.yul\":3689:3702   */\n      dup3\n        /* \"#utility.yul\":3645:3708   */\n      tag_197\n      jump\t// in\n    tag_215:\n        /* \"#utility.yul\":3638:3708   */\n      swap8\n      pop\n        /* \"#utility.yul\":3731:3791   */\n      tag_216\n        /* \"#utility.yul\":3784:3790   */\n      dup4\n        /* \"#utility.yul\":3731:3791   */\n      tag_217\n      jump\t// in\n    tag_216:\n        /* \"#utility.yul\":3721:3791   */\n      swap3\n      pop\n        /* \"#utility.yul\":3577:3801   */\n      pop\n        /* \"#utility.yul\":3564:3565   */\n      0x01\n        /* \"#utility.yul\":3561:3562   */\n      dup2\n        /* \"#utility.yul\":3557:3566   */\n      add\n        /* \"#utility.yul\":3552:3566   */\n      swap1\n      pop\n        /* \"#utility.yul\":3517:3801   */\n      jump(tag_212)\n    tag_214:\n        /* \"#utility.yul\":3521:3535   */\n      pop\n        /* \"#utility.yul\":3817:3820   */\n      dup6\n        /* \"#utility.yul\":3810:3820   */\n      swap4\n      pop\n        /* \"#utility.yul\":3218:3826   */\n      pop\n      pop\n      pop\n        /* \"#utility.yul\":3094:3826   */\n      swap3\n      swap2\n      pop\n      pop\n      jump\t// out\n        /* \"#utility.yul\":3832:3950   */\n    tag_218:\n        /* \"#utility.yul\":3919:3943   */\n      tag_220\n        /* \"#utility.yul\":3937:3942   */\n      dup2\n        /* \"#utility.yul\":3919:3943   */\n      tag_221\n      jump\t// in\n    tag_220:\n        /* \"#utility.yul\":3914:3917   */\n      dup3\n        /* \"#utility.yul\":3907:3944   */\n      mstore\n        /* \"#utility.yul\":3832:3950   */\n      pop\n      pop\n      jump\t// out\n        /* \"#utility.yul\":3956:4333   */\n    tag_222:\n        /* \"#utility.yul\":4062:4065   */\n      0x00\n        /* \"#utility.yul\":4090:4129   */\n      tag_224\n        /* \"#utility.yul\":4123:4128   */\n      dup3\n        /* \"#utility.yul\":4090:4129   */\n      tag_225\n      jump\t// in\n    tag_224:\n        /* \"#utility.yul\":4145:4234   */\n      tag_226\n        /* \"#utility.yul\":4227:4233   */\n      dup2\n        /* \"#utility.yul\":4222:4225   */\n      dup6\n        /* \"#utility.yul\":4145:4234   */\n      tag_227\n      jump\t// in\n    tag_226:\n        /* \"#utility.yul\":4138:4234   */\n      swap4\n      pop\n        /* \"#utility.yul\":4243:4295   */\n      tag_228\n        /* \"#utility.yul\":4288:4294   */\n      dup2\n        /* \"#utility.yul\":4283:4286   */\n      dup6\n        /* \"#utility.yul\":4276:4280   */\n      0x20\n        /* \"#utility.yul\":4269:4274   */\n      dup7\n        /* \"#utility.yul\":4265:4281   */\n      add\n        /* \"#utility.yul\":4243:4295   */\n      tag_229\n      jump\t// in\n    tag_228:\n        /* \"#utility.yul\":4320:4326   */\n      dup1\n        /* \"#utility.yul\":4315:4318   */\n      dup5\n        /* \"#utility.yul\":4311:4327   */\n      add\n        /* \"#utility.yul\":4304:4327   */\n      swap2\n      pop\n        /* \"#utility.yul\":4066:4333   */\n      pop\n        /* \"#utility.yul\":3956:4333   */\n      swap3\n      swap2\n      pop\n      pop\n      jump\t// out\n        /* \"#utility.yul\":4339:4705   */\n    tag_230:\n        /* \"#utility.yul\":4481:4484   */\n      0x00\n        /* \"#utility.yul\":4502:4569   */\n      tag_232\n        /* \"#utility.yul\":4566:4568   */\n      0x1c\n        /* \"#utility.yul\":4561:4564   */\n      dup4\n        /* \"#utility.yul\":4502:4569   */\n      tag_233\n      jump\t// in\n    tag_232:\n        /* \"#utility.yul\":4495:4569   */\n      swap2\n      pop\n        /* \"#utility.yul\":4578:4671   */\n      tag_234\n        /* \"#utility.yul\":4667:4670   */\n      dup3\n        /* \"#utility.yul\":4578:4671   */\n      tag_235\n      jump\t// in\n    tag_234:\n        /* \"#utility.yul\":4696:4698   */\n      0x20\n        /* \"#utility.yul\":4691:4694   */\n      dup3\n        /* \"#utility.yul\":4687:4699   */\n      add\n        /* \"#utility.yul\":4680:4699   */\n      swap1\n      pop\n        /* \"#utility.yul\":4339:4705   */\n      swap2\n      swap1\n      pop\n      jump\t// out\n        /* \"#utility.yul\":4711:5077   */\n    tag_236:\n        /* \"#utility.yul\":4853:4856   */\n      0x00\n        /* \"#utility.yul\":4874:4941   */\n      tag_238\n        /* \"#utility.yul\":4938:4940   */\n      0x18\n        /* \"#utility.yul\":4933:4936   */\n      dup4\n        /* \"#utility.yul\":4874:4941   */\n      tag_233\n      jump\t// in\n    tag_238:\n        /* \"#utility.yul\":4867:4941   */\n      swap2\n      pop\n        /* \"#utility.yul\":4950:5043   */\n      tag_239\n        /* \"#utility.yul\":5039:5042   */\n      dup3\n        /* \"#utility.yul\":4950:5043   */\n      tag_240\n      jump\t// in\n    tag_239:\n        /* \"#utility.yul\":5068:5070   */\n      0x20\n        /* \"#utility.yul\":5063:5066   */\n      dup3\n        /* \"#utility.yul\":5059:5071   */\n      add\n        /* \"#utility.yul\":5052:5071   */\n      swap1\n      pop\n        /* \"#utility.yul\":4711:5077   */\n      swap2\n      swap1\n      pop\n      jump\t// out\n        /* \"#utility.yul\":5083:5449   */\n    tag_241:\n        /* \"#utility.yul\":5225:5228   */\n      0x00\n        /* \"#utility.yul\":5246:5313   */\n      tag_243\n        /* \"#utility.yul\":5310:5312   */\n      0x2a\n        /* \"#utility.yul\":5305:5308   */\n      dup4\n        /* \"#utility.yul\":5246:5313   */\n      tag_233\n      jump\t// in\n    tag_243:\n        /* \"#utility.yul\":5239:5313   */\n      swap2\n      pop\n        /* \"#utility.yul\":5322:5415   */\n      tag_244\n        /* \"#utility.yul\":5411:5414   */\n      dup3\n        /* \"#utility.yul\":5322:5415   */\n      tag_245\n      jump\t// in\n    tag_244:\n        /* \"#utility.yul\":5440:5442   */\n      0x40\n        /* \"#utility.yul\":5435:5438   */\n      dup3\n        /* \"#utility.yul\":5431:5443   */\n      add\n        /* \"#utility.yul\":5424:5443   */\n      swap1\n      pop\n        /* \"#utility.yul\":5083:5449   */\n      swap2\n      swap1\n      pop\n      jump\t// out\n        /* \"#utility.yul\":5455:5821   */\n    tag_246:\n        /* \"#utility.yul\":5597:5600   */\n      0x00\n        /* \"#utility.yul\":5618:5685   */\n      tag_248\n        /* \"#utility.yul\":5682:5684   */\n      0x29\n        /* \"#utility.yul\":5677:5680   */\n      dup4\n        /* \"#utility.yul\":5618:5685   */\n      tag_233\n      jump\t// in\n    tag_248:\n        /* \"#utility.yul\":5611:5685   */\n      swap2\n      pop\n        /* \"#utility.yul\":5694:5787   */\n      tag_249\n        /* \"#utility.yul\":5783:5786   */\n      dup3\n        /* \"#utility.yul\":5694:5787   */\n      tag_250\n      jump\t// in\n    tag_249:\n        /* \"#utility.yul\":5812:5814   */\n      0x40\n        /* \"#utility.yul\":5807:5810   */\n      dup3\n        /* \"#utility.yul\":5803:5815   */\n      add\n        /* \"#utility.yul\":5796:5815   */\n      swap1\n      pop\n        /* \"#utility.yul\":5455:5821   */\n      swap2\n      swap1\n      pop\n      jump\t// out\n        /* \"#utility.yul\":5827:6193   */\n    tag_251:\n        /* \"#utility.yul\":5969:5972   */\n      0x00\n        /* \"#utility.yul\":5990:6057   */\n      tag_253\n        /* \"#utility.yul\":6054:6056   */\n      0x0e\n        /* \"#utility.yul\":6049:6052   */\n      dup4\n        /* \"#utility.yul\":5990:6057   */\n      tag_233\n      jump\t// in\n    tag_253:\n        /* \"#utility.yul\":5983:6057   */\n      swap2\n      pop\n        /* \"#utility.yul\":6066:6159   */\n      tag_254\n        /* \"#utility.yul\":6155:6158   */\n      dup3\n        /* \"#utility.yul\":6066:6159   */\n      tag_255\n      jump\t// in\n    tag_254:\n        /* \"#utility.yul\":6184:6186   */\n      0x20\n        /* \"#utility.yul\":6179:6182   */\n      dup3\n        /* \"#utility.yul\":6175:6187   */\n      add\n        /* \"#utility.yul\":6168:6187   */\n      swap1\n      pop\n        /* \"#utility.yul\":5827:6193   */\n      swap2\n      swap1\n      pop\n      jump\t// out\n        /* \"#utility.yul\":6199:6565   */\n    tag_256:\n        /* \"#utility.yul\":6341:6344   */\n      0x00\n        /* \"#utility.yul\":6362:6429   */\n      tag_258\n        /* \"#utility.yul\":6426:6428   */\n      0x19\n        /* \"#utility.yul\":6421:6424   */\n      dup4\n        /* \"#utility.yul\":6362:6429   */\n      tag_233\n      jump\t// in\n    tag_258:\n        /* \"#utility.yul\":6355:6429   */\n      swap2\n      pop\n        /* \"#utility.yul\":6438:6531   */\n      tag_259\n        /* \"#utility.yul\":6527:6530   */\n      dup3\n        /* \"#utility.yul\":6438:6531   */\n      tag_260\n      jump\t// in\n    tag_259:\n        /* \"#utility.yul\":6556:6558   */\n      0x20\n        /* \"#utility.yul\":6551:6554   */\n      dup3\n        /* \"#utility.yul\":6547:6559   */\n      add\n        /* \"#utility.yul\":6540:6559   */\n      swap1\n      pop\n        /* \"#utility.yul\":6199:6565   */\n      swap2\n      swap1\n      pop\n      jump\t// out\n        /* \"#utility.yul\":6571:6937   */\n    tag_261:\n        /* \"#utility.yul\":6713:6716   */\n      0x00\n        /* \"#utility.yul\":6734:6801   */\n      tag_263\n        /* \"#utility.yul\":6798:6800   */\n      0x17\n        /* \"#utility.yul\":6793:6796   */\n      dup4\n        /* \"#utility.yul\":6734:6801   */\n      tag_233\n      jump\t// in\n    tag_263:\n        /* \"#utility.yul\":6727:6801   */\n      swap2\n      pop\n        /* \"#utility.yul\":6810:6903   */\n      tag_264\n        /* \"#utility.yul\":6899:6902   */\n      dup3\n        /* \"#utility.yul\":6810:6903   */\n      tag_265\n      jump\t// in\n    tag_264:\n        /* \"#utility.yul\":6928:6930   */\n      0x20\n        /* \"#utility.yul\":6923:6926   */\n      dup3\n        /* \"#utility.yul\":6919:6931   */\n      add\n        /* \"#utility.yul\":6912:6931   */\n      swap1\n      pop\n        /* \"#utility.yul\":6571:6937   */\n      swap2\n      swap1\n      pop\n      jump\t// out\n        /* \"#utility.yul\":6943:7309   */\n    tag_266:\n        /* \"#utility.yul\":7085:7088   */\n      0x00\n        /* \"#utility.yul\":7106:7173   */\n      tag_268\n        /* \"#utility.yul\":7170:7172   */\n      0x37\n        /* \"#utility.yul\":7165:7168   */\n      dup4\n        /* \"#utility.yul\":7106:7173   */\n      tag_233\n      jump\t// in\n    tag_268:\n        /* \"#utility.yul\":7099:7173   */\n      swap2\n      pop\n        /* \"#utility.yul\":7182:7275   */\n      tag_269\n        /* \"#utility.yul\":7271:7274   */\n      dup3\n        /* \"#utility.yul\":7182:7275   */\n      tag_270\n      jump\t// in\n    tag_269:\n        /* \"#utility.yul\":7300:7302   */\n      0x40\n        /* \"#utility.yul\":7295:7298   */\n      dup3\n        /* \"#utility.yul\":7291:7303   */\n      add\n        /* \"#utility.yul\":7284:7303   */\n      swap1\n      pop\n        /* \"#utility.yul\":6943:7309   */\n      swap2\n      swap1\n      pop\n      jump\t// out\n        /* \"#utility.yul\":7315:7590   */\n    tag_102:\n        /* \"#utility.yul\":7447:7450   */\n      0x00\n        /* \"#utility.yul\":7469:7564   */\n      tag_272\n        /* \"#utility.yul\":7560:7563   */\n      dup3\n        /* \"#utility.yul\":7551:7557   */\n      dup5\n        /* \"#utility.yul\":7469:7564   */\n      tag_222\n      jump\t// in\n    tag_272:\n        /* \"#utility.yul\":7462:7564   */\n      swap2\n      pop\n        /* \"#utility.yul\":7581:7584   */\n      dup2\n        /* \"#utility.yul\":7574:7584   */\n      swap1\n      pop\n        /* \"#utility.yul\":7315:7590   */\n      swap3\n      swap2\n      pop\n      pop\n      jump\t// out\n        /* \"#utility.yul\":7596:7969   */\n    tag_18:\n        /* \"#utility.yul\":7739:7743   */\n      0x00\n        /* \"#utility.yul\":7777:7779   */\n      0x20\n        /* \"#utility.yul\":7766:7775   */\n      dup3\n        /* \"#utility.yul\":7762:7780   */\n      add\n        /* \"#utility.yul\":7754:7780   */\n      swap1\n      pop\n        /* \"#utility.yul\":7826:7835   */\n      dup2\n        /* \"#utility.yul\":7820:7824   */\n      dup2\n        /* \"#utility.yul\":7816:7836   */\n      sub\n        /* \"#utility.yul\":7812:7813   */\n      0x00\n        /* \"#utility.yul\":7801:7810   */\n      dup4\n        /* \"#utility.yul\":7797:7814   */\n      add\n        /* \"#utility.yul\":7790:7837   */\n      mstore\n        /* \"#utility.yul\":7854:7962   */\n      tag_274\n        /* \"#utility.yul\":7957:7961   */\n      dup2\n        /* \"#utility.yul\":7948:7954   */\n      dup5\n        /* \"#utility.yul\":7854:7962   */\n      tag_204\n      jump\t// in\n    tag_274:\n        /* \"#utility.yul\":7846:7962   */\n      swap1\n      pop\n        /* \"#utility.yul\":7596:7969   */\n      swap3\n      swap2\n      pop\n      pop\n      jump\t// out\n        /* \"#utility.yul\":7975:8197   */\n    tag_31:\n        /* \"#utility.yul\":8068:8072   */\n      0x00\n        /* \"#utility.yul\":8106:8108   */\n      0x20\n        /* \"#utility.yul\":8095:8104   */\n      dup3\n        /* \"#utility.yul\":8091:8109   */\n      add\n        /* \"#utility.yul\":8083:8109   */\n      swap1\n      pop\n        /* \"#utility.yul\":8119:8190   */\n      tag_276\n        /* \"#utility.yul\":8187:8188   */\n      0x00\n        /* \"#utility.yul\":8176:8185   */\n      dup4\n        /* \"#utility.yul\":8172:8189   */\n      add\n        /* \"#utility.yul\":8163:8169   */\n      dup5\n        /* \"#utility.yul\":8119:8190   */\n      tag_218\n      jump\t// in\n    tag_276:\n        /* \"#utility.yul\":7975:8197   */\n      swap3\n      swap2\n      pop\n      pop\n      jump\t// out\n        /* \"#utility.yul\":8203:8622   */\n    tag_50:\n        /* \"#utility.yul\":8369:8373   */\n      0x00\n        /* \"#utility.yul\":8407:8409   */\n      0x20\n        /* \"#utility.yul\":8396:8405   */\n      dup3\n        /* \"#utility.yul\":8392:8410   */\n      add\n        /* \"#utility.yul\":8384:8410   */\n      swap1\n      pop\n        /* \"#utility.yul\":8456:8465   */\n      dup2\n        /* \"#utility.yul\":8450:8454   */\n      dup2\n        /* \"#utility.yul\":8446:8466   */\n      sub\n        /* \"#utility.yul\":8442:8443   */\n      0x00\n        /* \"#utility.yul\":8431:8440   */\n      dup4\n        /* \"#utility.yul\":8427:8444   */\n      add\n        /* \"#utility.yul\":8420:8467   */\n      mstore\n        /* \"#utility.yul\":8484:8615   */\n      tag_278\n        /* \"#utility.yul\":8610:8614   */\n      dup2\n        /* \"#utility.yul\":8484:8615   */\n      tag_230\n      jump\t// in\n    tag_278:\n        /* \"#utility.yul\":8476:8615   */\n      swap1\n      pop\n        /* \"#utility.yul\":8203:8622   */\n      swap2\n      swap1\n      pop\n      jump\t// out\n        /* \"#utility.yul\":8628:9047   */\n    tag_79:\n        /* \"#utility.yul\":8794:8798   */\n      0x00\n        /* \"#utility.yul\":8832:8834   */\n      0x20\n        /* \"#utility.yul\":8821:8830   */\n      dup3\n        /* \"#utility.yul\":8817:8835   */\n      add\n        /* \"#utility.yul\":8809:8835   */\n      swap1\n      pop\n        /* \"#utility.yul\":8881:8890   */\n      dup2\n        /* \"#utility.yul\":8875:8879   */\n      dup2\n        /* \"#utility.yul\":8871:8891   */\n      sub\n        /* \"#utility.yul\":8867:8868   */\n      0x00\n        /* \"#utility.yul\":8856:8865   */\n      dup4\n        /* \"#utility.yul\":8852:8869   */\n      add\n        /* \"#utility.yul\":8845:8892   */\n      mstore\n        /* \"#utility.yul\":8909:9040   */\n      tag_280\n        /* \"#utility.yul\":9035:9039   */\n      dup2\n        /* \"#utility.yul\":8909:9040   */\n      tag_236\n      jump\t// in\n    tag_280:\n        /* \"#utility.yul\":8901:9040   */\n      swap1\n      pop\n        /* \"#utility.yul\":8628:9047   */\n      swap2\n      swap1\n      pop\n      jump\t// out\n        /* \"#utility.yul\":9053:9472   */\n    tag_84:\n        /* \"#utility.yul\":9219:9223   */\n      0x00\n        /* \"#utility.yul\":9257:9259   */\n      0x20\n        /* \"#utility.yul\":9246:9255   */\n      dup3\n        /* \"#utility.yul\":9242:9260   */\n      add\n        /* \"#utility.yul\":9234:9260   */\n      swap1\n      pop\n        /* \"#utility.yul\":9306:9315   */\n      dup2\n        /* \"#utility.yul\":9300:9304   */\n      dup2\n        /* \"#utility.yul\":9296:9316   */\n      sub\n        /* \"#utility.yul\":9292:9293   */\n      0x00\n        /* \"#utility.yul\":9281:9290   */\n      dup4\n        /* \"#utility.yul\":9277:9294   */\n      add\n        /* \"#utility.yul\":9270:9317   */\n      mstore\n        /* \"#utility.yul\":9334:9465   */\n      tag_282\n        /* \"#utility.yul\":9460:9464   */\n      dup2\n        /* \"#utility.yul\":9334:9465   */\n      tag_241\n      jump\t// in\n    tag_282:\n        /* \"#utility.yul\":9326:9465   */\n      swap1\n      pop\n        /* \"#utility.yul\":9053:9472   */\n      swap2\n      swap1\n      pop\n      jump\t// out\n        /* \"#utility.yul\":9478:9897   */\n    tag_139:\n        /* \"#utility.yul\":9644:9648   */\n      0x00\n        /* \"#utility.yul\":9682:9684   */\n      0x20\n        /* \"#utility.yul\":9671:9680   */\n      dup3\n        /* \"#utility.yul\":9667:9685   */\n      add\n        /* \"#utility.yul\":9659:9685   */\n      swap1\n      pop\n        /* \"#utility.yul\":9731:9740   */\n      dup2\n        /* \"#utility.yul\":9725:9729   */\n      dup2\n        /* \"#utility.yul\":9721:9741   */\n      sub\n        /* \"#utility.yul\":9717:9718   */\n      0x00\n        /* \"#utility.yul\":9706:9715   */\n      dup4\n        /* \"#utility.yul\":9702:9719   */\n      add\n        /* \"#utility.yul\":9695:9742   */\n      mstore\n        /* \"#utility.yul\":9759:9890   */\n      tag_284\n        /* \"#utility.yul\":9885:9889   */\n      dup2\n        /* \"#utility.yul\":9759:9890   */\n      tag_246\n      jump\t// in\n    tag_284:\n        /* \"#utility.yul\":9751:9890   */\n      swap1\n      pop\n        /* \"#utility.yul\":9478:9897   */\n      swap2\n      swap1\n      pop\n      jump\t// out\n        /* \"#utility.yul\":9903:10322   */\n    tag_96:\n        /* \"#utility.yul\":10069:10073   */\n      0x00\n        /* \"#utility.yul\":10107:10109   */\n      0x20\n        /* \"#utility.yul\":10096:10105   */\n      dup3\n        /* \"#utility.yul\":10092:10110   */\n      add\n        /* \"#utility.yul\":10084:10110   */\n      swap1\n      pop\n        /* \"#utility.yul\":10156:10165   */\n      dup2\n        /* \"#utility.yul\":10150:10154   */\n      dup2\n        /* \"#utility.yul\":10146:10166   */\n      sub\n        /* \"#utility.yul\":10142:10143   */\n      0x00\n        /* \"#utility.yul\":10131:10140   */\n      dup4\n        /* \"#utility.yul\":10127:10144   */\n      add\n        /* \"#utility.yul\":10120:10167   */\n      mstore\n        /* \"#utility.yul\":10184:10315   */\n      tag_286\n        /* \"#utility.yul\":10310:10314   */\n      dup2\n        /* \"#utility.yul\":10184:10315   */\n      tag_251\n      jump\t// in\n    tag_286:\n        /* \"#utility.yul\":10176:10315   */\n      swap1\n      pop\n        /* \"#utility.yul\":9903:10322   */\n      swap2\n      swap1\n      pop\n      jump\t// out\n        /* \"#utility.yul\":10328:10747   */\n    tag_46:\n        /* \"#utility.yul\":10494:10498   */\n      0x00\n        /* \"#utility.yul\":10532:10534   */\n      0x20\n        /* \"#utility.yul\":10521:10530   */\n      dup3\n        /* \"#utility.yul\":10517:10535   */\n      add\n        /* \"#utility.yul\":10509:10535   */\n      swap1\n      pop\n        /* \"#utility.yul\":10581:10590   */\n      dup2\n        /* \"#utility.yul\":10575:10579   */\n      dup2\n        /* \"#utility.yul\":10571:10591   */\n      sub\n        /* \"#utility.yul\":10567:10568   */\n      0x00\n        /* \"#utility.yul\":10556:10565   */\n      dup4\n        /* \"#utility.yul\":10552:10569   */\n      add\n        /* \"#utility.yul\":10545:10592   */\n      mstore\n        /* \"#utility.yul\":10609:10740   */\n      tag_288\n        /* \"#utility.yul\":10735:10739   */\n      dup2\n        /* \"#utility.yul\":10609:10740   */\n      tag_256\n      jump\t// in\n    tag_288:\n        /* \"#utility.yul\":10601:10740   */\n      swap1\n      pop\n        /* \"#utility.yul\":10328:10747   */\n      swap2\n      swap1\n      pop\n      jump\t// out\n        /* \"#utility.yul\":10753:11172   */\n    tag_65:\n        /* \"#utility.yul\":10919:10923   */\n      0x00\n        /* \"#utility.yul\":10957:10959   */\n      0x20\n        /* \"#utility.yul\":10946:10955   */\n      dup3\n        /* \"#utility.yul\":10942:10960   */\n      add\n        /* \"#utility.yul\":10934:10960   */\n      swap1\n      pop\n        /* \"#utility.yul\":11006:11015   */\n      dup2\n        /* \"#utility.yul\":11000:11004   */\n      dup2\n        /* \"#utility.yul\":10996:11016   */\n      sub\n        /* \"#utility.yul\":10992:10993   */\n      0x00\n        /* \"#utility.yul\":10981:10990   */\n      dup4\n        /* \"#utility.yul\":10977:10994   */\n      add\n        /* \"#utility.yul\":10970:11017   */\n      mstore\n        /* \"#utility.yul\":11034:11165   */\n      tag_290\n        /* \"#utility.yul\":11160:11164   */\n      dup2\n        /* \"#utility.yul\":11034:11165   */\n      tag_261\n      jump\t// in\n    tag_290:\n        /* \"#utility.yul\":11026:11165   */\n      swap1\n      pop\n        /* \"#utility.yul\":10753:11172   */\n      swap2\n      swap1\n      pop\n      jump\t// out\n        /* \"#utility.yul\":11178:11597   */\n    tag_68:\n        /* \"#utility.yul\":11344:11348   */\n      0x00\n        /* \"#utility.yul\":11382:11384   */\n      0x20\n        /* \"#utility.yul\":11371:11380   */\n      dup3\n        /* \"#utility.yul\":11367:11385   */\n      add\n        /* \"#utility.yul\":11359:11385   */\n      swap1\n      pop\n        /* \"#utility.yul\":11431:11440   */\n      dup2\n        /* \"#utility.yul\":11425:11429   */\n      dup2\n        /* \"#utility.yul\":11421:11441   */\n      sub\n        /* \"#utility.yul\":11417:11418   */\n      0x00\n        /* \"#utility.yul\":11406:11415   */\n      dup4\n        /* \"#utility.yul\":11402:11419   */\n      add\n        /* \"#utility.yul\":11395:11442   */\n      mstore\n        /* \"#utility.yul\":11459:11590   */\n      tag_292\n        /* \"#utility.yul\":11585:11589   */\n      dup2\n        /* \"#utility.yul\":11459:11590   */\n      tag_266\n      jump\t// in\n    tag_292:\n        /* \"#utility.yul\":11451:11590   */\n      swap1\n      pop\n        /* \"#utility.yul\":11178:11597   */\n      swap2\n      swap1\n      pop\n      jump\t// out\n        /* \"#utility.yul\":11603:11732   */\n    tag_159:\n        /* \"#utility.yul\":11637:11643   */\n      0x00\n        /* \"#utility.yul\":11664:11684   */\n      tag_294\n      tag_295\n      jump\t// in\n    tag_294:\n        /* \"#utility.yul\":11654:11684   */\n      swap1\n      pop\n        /* \"#utility.yul\":11693:11726   */\n      tag_296\n        /* \"#utility.yul\":11721:11725   */\n      dup3\n        /* \"#utility.yul\":11713:11719   */\n      dup3\n        /* \"#utility.yul\":11693:11726   */\n      tag_297\n      jump\t// in\n    tag_296:\n        /* \"#utility.yul\":11603:11732   */\n      swap2\n      swap1\n      pop\n      jump\t// out\n        /* \"#utility.yul\":11738:11813   */\n    tag_295:\n        /* \"#utility.yul\":11771:11777   */\n      0x00\n        /* \"#utility.yul\":11804:11806   */\n      0x40\n        /* \"#utility.yul\":11798:11807   */\n      mload\n        /* \"#utility.yul\":11788:11807   */\n      swap1\n      pop\n        /* \"#utility.yul\":11738:11813   */\n      swap1\n      jump\t// out\n        /* \"#utility.yul\":11819:12127   */\n    tag_158:\n        /* \"#utility.yul\":11881:11885   */\n      0x00\n        /* \"#utility.yul\":11971:11989   */\n      0xffffffffffffffff\n        /* \"#utility.yul\":11963:11969   */\n      dup3\n        /* \"#utility.yul\":11960:11990   */\n      gt\n        /* \"#utility.yul\":11957:12013   */\n      iszero\n      tag_300\n      jumpi\n        /* \"#utility.yul\":11993:12011   */\n      tag_301\n      tag_302\n      jump\t// in\n    tag_301:\n        /* \"#utility.yul\":11957:12013   */\n    tag_300:\n        /* \"#utility.yul\":12031:12060   */\n      tag_303\n        /* \"#utility.yul\":12053:12059   */\n      dup3\n        /* \"#utility.yul\":12031:12060   */\n      tag_304\n      jump\t// in\n    tag_303:\n        /* \"#utility.yul\":12023:12060   */\n      swap1\n      pop\n        /* \"#utility.yul\":12115:12119   */\n      0x20\n        /* \"#utility.yul\":12109:12113   */\n      dup2\n        /* \"#utility.yul\":12105:12120   */\n      add\n        /* \"#utility.yul\":12097:12120   */\n      swap1\n      pop\n        /* \"#utility.yul\":11819:12127   */\n      swap2\n      swap1\n      pop\n      jump\t// out\n        /* \"#utility.yul\":12133:12265   */\n    tag_211:\n        /* \"#utility.yul\":12200:12204   */\n      0x00\n        /* \"#utility.yul\":12223:12226   */\n      dup2\n        /* \"#utility.yul\":12215:12226   */\n      swap1\n      pop\n        /* \"#utility.yul\":12253:12257   */\n      0x20\n        /* \"#utility.yul\":12248:12251   */\n      dup3\n        /* \"#utility.yul\":12244:12258   */\n      add\n        /* \"#utility.yul\":12236:12258   */\n      swap1\n      pop\n        /* \"#utility.yul\":12133:12265   */\n      swap2\n      swap1\n      pop\n      jump\t// out\n        /* \"#utility.yul\":12271:12385   */\n    tag_207:\n        /* \"#utility.yul\":12338:12344   */\n      0x00\n        /* \"#utility.yul\":12372:12377   */\n      dup2\n        /* \"#utility.yul\":12366:12378   */\n      mload\n        /* \"#utility.yul\":12356:12378   */\n      swap1\n      pop\n        /* \"#utility.yul\":12271:12385   */\n      swap2\n      swap1\n      pop\n      jump\t// out\n        /* \"#utility.yul\":12391:12490   */\n    tag_225:\n        /* \"#utility.yul\":12443:12449   */\n      0x00\n        /* \"#utility.yul\":12477:12482   */\n      dup2\n        /* \"#utility.yul\":12471:12483   */\n      mload\n        /* \"#utility.yul\":12461:12483   */\n      swap1\n      pop\n        /* \"#utility.yul\":12391:12490   */\n      swap2\n      swap1\n      pop\n      jump\t// out\n        /* \"#utility.yul\":12496:12609   */\n    tag_217:\n        /* \"#utility.yul\":12566:12570   */\n      0x00\n        /* \"#utility.yul\":12598:12602   */\n      0x20\n        /* \"#utility.yul\":12593:12596   */\n      dup3\n        /* \"#utility.yul\":12589:12603   */\n      add\n        /* \"#utility.yul\":12581:12603   */\n      swap1\n      pop\n        /* \"#utility.yul\":12496:12609   */\n      swap2\n      swap1\n      pop\n      jump\t// out\n        /* \"#utility.yul\":12615:12799   */\n    tag_209:\n        /* \"#utility.yul\":12714:12725   */\n      0x00\n        /* \"#utility.yul\":12748:12754   */\n      dup3\n        /* \"#utility.yul\":12743:12746   */\n      dup3\n        /* \"#utility.yul\":12736:12755   */\n      mstore\n        /* \"#utility.yul\":12788:12792   */\n      0x20\n        /* \"#utility.yul\":12783:12786   */\n      dup3\n        /* \"#utility.yul\":12779:12793   */\n      add\n        /* \"#utility.yul\":12764:12793   */\n      swap1\n      pop\n        /* \"#utility.yul\":12615:12799   */\n      swap3\n      swap2\n      pop\n      pop\n      jump\t// out\n        /* \"#utility.yul\":12805:12974   */\n    tag_233:\n        /* \"#utility.yul\":12889:12900   */\n      0x00\n        /* \"#utility.yul\":12923:12929   */\n      dup3\n        /* \"#utility.yul\":12918:12921   */\n      dup3\n        /* \"#utility.yul\":12911:12930   */\n      mstore\n        /* \"#utility.yul\":12963:12967   */\n      0x20\n        /* \"#utility.yul\":12958:12961   */\n      dup3\n        /* \"#utility.yul\":12954:12968   */\n      add\n        /* \"#utility.yul\":12939:12968   */\n      swap1\n      pop\n        /* \"#utility.yul\":12805:12974   */\n      swap3\n      swap2\n      pop\n      pop\n      jump\t// out\n        /* \"#utility.yul\":12980:13128   */\n    tag_227:\n        /* \"#utility.yul\":13082:13093   */\n      0x00\n        /* \"#utility.yul\":13119:13122   */\n      dup2\n        /* \"#utility.yul\":13104:13122   */\n      swap1\n      pop\n        /* \"#utility.yul\":12980:13128   */\n      swap3\n      swap2\n      pop\n      pop\n      jump\t// out\n        /* \"#utility.yul\":13134:13230   */\n    tag_203:\n        /* \"#utility.yul\":13171:13178   */\n      0x00\n        /* \"#utility.yul\":13200:13224   */\n      tag_313\n        /* \"#utility.yul\":13218:13223   */\n      dup3\n        /* \"#utility.yul\":13200:13224   */\n      tag_314\n      jump\t// in\n    tag_313:\n        /* \"#utility.yul\":13189:13224   */\n      swap1\n      pop\n        /* \"#utility.yul\":13134:13230   */\n      swap2\n      swap1\n      pop\n      jump\t// out\n        /* \"#utility.yul\":13236:13313   */\n    tag_221:\n        /* \"#utility.yul\":13273:13280   */\n      0x00\n        /* \"#utility.yul\":13302:13307   */\n      dup2\n        /* \"#utility.yul\":13291:13307   */\n      swap1\n      pop\n        /* \"#utility.yul\":13236:13313   */\n      swap2\n      swap1\n      pop\n      jump\t// out\n        /* \"#utility.yul\":13319:13445   */\n    tag_314:\n        /* \"#utility.yul\":13356:13363   */\n      0x00\n        /* \"#utility.yul\":13396:13438   */\n      0xffffffffffffffffffffffffffffffffffffffff\n        /* \"#utility.yul\":13389:13394   */\n      dup3\n        /* \"#utility.yul\":13385:13439   */\n      and\n        /* \"#utility.yul\":13374:13439   */\n      swap1\n      pop\n        /* \"#utility.yul\":13319:13445   */\n      swap2\n      swap1\n      pop\n      jump\t// out\n        /* \"#utility.yul\":13451:13528   */\n    tag_317:\n        /* \"#utility.yul\":13488:13495   */\n      0x00\n        /* \"#utility.yul\":13517:13522   */\n      dup2\n        /* \"#utility.yul\":13506:13522   */\n      swap1\n      pop\n        /* \"#utility.yul\":13451:13528   */\n      swap2\n      swap1\n      pop\n      jump\t// out\n        /* \"#utility.yul\":13534:13688   */\n    tag_164:\n        /* \"#utility.yul\":13618:13624   */\n      dup3\n        /* \"#utility.yul\":13613:13616   */\n      dup2\n        /* \"#utility.yul\":13608:13611   */\n      dup4\n        /* \"#utility.yul\":13595:13625   */\n      calldatacopy\n        /* \"#utility.yul\":13680:13681   */\n      0x00\n        /* \"#utility.yul\":13671:13677   */\n      dup4\n        /* \"#utility.yul\":13666:13669   */\n      dup4\n        /* \"#utility.yul\":13662:13678   */\n      add\n        /* \"#utility.yul\":13655:13682   */\n      mstore\n        /* \"#utility.yul\":13534:13688   */\n      pop\n      pop\n      pop\n      jump\t// out\n        /* \"#utility.yul\":13694:14001   */\n    tag_229:\n        /* \"#utility.yul\":13762:13763   */\n      0x00\n        /* \"#utility.yul\":13772:13885   */\n    tag_321:\n        /* \"#utility.yul\":13786:13792   */\n      dup4\n        /* \"#utility.yul\":13783:13784   */\n      dup2\n        /* \"#utility.yul\":13780:13793   */\n      lt\n        /* \"#utility.yul\":13772:13885   */\n      iszero\n      tag_323\n      jumpi\n        /* \"#utility.yul\":13871:13872   */\n      dup1\n        /* \"#utility.yul\":13866:13869   */\n      dup3\n        /* \"#utility.yul\":13862:13873   */\n      add\n        /* \"#utility.yul\":13856:13874   */\n      mload\n        /* \"#utility.yul\":13852:13853   */\n      dup2\n        /* \"#utility.yul\":13847:13850   */\n      dup5\n        /* \"#utility.yul\":13843:13854   */\n      add\n        /* \"#utility.yul\":13836:13875   */\n      mstore\n        /* \"#utility.yul\":13808:13810   */\n      0x20\n        /* \"#utility.yul\":13805:13806   */\n      dup2\n        /* \"#utility.yul\":13801:13811   */\n      add\n        /* \"#utility.yul\":13796:13811   */\n      swap1\n      pop\n        /* \"#utility.yul\":13772:13885   */\n      jump(tag_321)\n    tag_323:\n        /* \"#utility.yul\":13903:13909   */\n      dup4\n        /* \"#utility.yul\":13900:13901   */\n      dup2\n        /* \"#utility.yul\":13897:13910   */\n      gt\n        /* \"#utility.yul\":13894:13995   */\n      iszero\n      tag_324\n      jumpi\n        /* \"#utility.yul\":13983:13984   */\n      0x00\n        /* \"#utility.yul\":13974:13980   */\n      dup5\n        /* \"#utility.yul\":13969:13972   */\n      dup5\n        /* \"#utility.yul\":13965:13981   */\n      add\n        /* \"#utility.yul\":13958:13985   */\n      mstore\n        /* \"#utility.yul\":13894:13995   */\n    tag_324:\n        /* \"#utility.yul\":13743:14001   */\n      pop\n        /* \"#utility.yul\":13694:14001   */\n      pop\n      pop\n      pop\n      jump\t// out\n        /* \"#utility.yul\":14007:14327   */\n    tag_118:\n        /* \"#utility.yul\":14051:14057   */\n      0x00\n        /* \"#utility.yul\":14088:14089   */\n      0x02\n        /* \"#utility.yul\":14082:14086   */\n      dup3\n        /* \"#utility.yul\":14078:14090   */\n      div\n        /* \"#utility.yul\":14068:14090   */\n      swap1\n      pop\n        /* \"#utility.yul\":14135:14136   */\n      0x01\n        /* \"#utility.yul\":14129:14133   */\n      dup3\n        /* \"#utility.yul\":14125:14137   */\n      and\n        /* \"#utility.yul\":14156:14174   */\n      dup1\n        /* \"#utility.yul\":14146:14227   */\n      tag_326\n      jumpi\n        /* \"#utility.yul\":14212:14216   */\n      0x7f\n        /* \"#utility.yul\":14204:14210   */\n      dup3\n        /* \"#utility.yul\":14200:14217   */\n      and\n        /* \"#utility.yul\":14190:14217   */\n      swap2\n      pop\n        /* \"#utility.yul\":14146:14227   */\n    tag_326:\n        /* \"#utility.yul\":14274:14276   */\n      0x20\n        /* \"#utility.yul\":14266:14272   */\n      dup3\n        /* \"#utility.yul\":14263:14277   */\n      lt\n        /* \"#utility.yul\":14243:14261   */\n      dup2\n        /* \"#utility.yul\":14240:14278   */\n      eq\n        /* \"#utility.yul\":14237:14321   */\n      iszero\n      tag_327\n      jumpi\n        /* \"#utility.yul\":14293:14311   */\n      tag_328\n      tag_329\n      jump\t// in\n    tag_328:\n        /* \"#utility.yul\":14237:14321   */\n    tag_327:\n        /* \"#utility.yul\":14058:14327   */\n      pop\n        /* \"#utility.yul\":14007:14327   */\n      swap2\n      swap1\n      pop\n      jump\t// out\n        /* \"#utility.yul\":14333:14614   */\n    tag_297:\n        /* \"#utility.yul\":14416:14443   */\n      tag_331\n        /* \"#utility.yul\":14438:14442   */\n      dup3\n        /* \"#utility.yul\":14416:14443   */\n      tag_304\n      jump\t// in\n    tag_331:\n        /* \"#utility.yul\":14408:14414   */\n      dup2\n        /* \"#utility.yul\":14404:14444   */\n      add\n        /* \"#utility.yul\":14546:14552   */\n      dup2\n        /* \"#utility.yul\":14534:14544   */\n      dup2\n        /* \"#utility.yul\":14531:14553   */\n      lt\n        /* \"#utility.yul\":14510:14528   */\n      0xffffffffffffffff\n        /* \"#utility.yul\":14498:14508   */\n      dup3\n        /* \"#utility.yul\":14495:14529   */\n      gt\n        /* \"#utility.yul\":14492:14554   */\n      or\n        /* \"#utility.yul\":14489:14577   */\n      iszero\n      tag_332\n      jumpi\n        /* \"#utility.yul\":14557:14575   */\n      tag_333\n      tag_302\n      jump\t// in\n    tag_333:\n        /* \"#utility.yul\":14489:14577   */\n    tag_332:\n        /* \"#utility.yul\":14597:14607   */\n      dup1\n        /* \"#utility.yul\":14593:14595   */\n      0x40\n        /* \"#utility.yul\":14586:14608   */\n      mstore\n        /* \"#utility.yul\":14376:14614   */\n      pop\n        /* \"#utility.yul\":14333:14614   */\n      pop\n      pop\n      jump\t// out\n        /* \"#utility.yul\":14620:14853   */\n    tag_81:\n        /* \"#utility.yul\":14659:14662   */\n      0x00\n        /* \"#utility.yul\":14682:14706   */\n      tag_335\n        /* \"#utility.yul\":14700:14705   */\n      dup3\n        /* \"#utility.yul\":14682:14706   */\n      tag_317\n      jump\t// in\n    tag_335:\n        /* \"#utility.yul\":14673:14706   */\n      swap2\n      pop\n        /* \"#utility.yul\":14728:14794   */\n      0xffffffffffffffffffffffffffffffffffffffffffffffffffffffffffffffff\n        /* \"#utility.yul\":14721:14726   */\n      dup3\n        /* \"#utility.yul\":14718:14795   */\n      eq\n        /* \"#utility.yul\":14715:14818   */\n      iszero\n      tag_336\n      jumpi\n        /* \"#utility.yul\":14798:14816   */\n      tag_337\n      tag_338\n      jump\t// in\n    tag_337:\n        /* \"#utility.yul\":14715:14818   */\n    tag_336:\n        /* \"#utility.yul\":14845:14846   */\n      0x01\n        /* \"#utility.yul\":14838:14843   */\n      dup3\n        /* \"#utility.yul\":14834:14847   */\n      add\n        /* \"#utility.yul\":14827:14847   */\n      swap1\n      pop\n        /* \"#utility.yul\":14620:14853   */\n      swap2\n      swap1\n      pop\n      jump\t// out\n        /* \"#utility.yul\":14859:15039   */\n    tag_338:\n        /* \"#utility.yul\":14907:14984   */\n      0x4e487b7100000000000000000000000000000000000000000000000000000000\n        /* \"#utility.yul\":14904:14905   */\n      0x00\n        /* \"#utility.yul\":14897:14985   */\n      mstore\n        /* \"#utility.yul\":15004:15008   */\n      0x11\n        /* \"#utility.yul\":15001:15002   */\n      0x04\n        /* \"#utility.yul\":14994:15009   */\n      mstore\n        /* \"#utility.yul\":15028:15032   */\n      0x24\n        /* \"#utility.yul\":15025:15026   */\n      0x00\n        /* \"#utility.yul\":15018:15033   */\n      revert\n        /* \"#utility.yul\":15045:15225   */\n    tag_41:\n        /* \"#utility.yul\":15093:15170   */\n      0x4e487b7100000000000000000000000000000000000000000000000000000000\n        /* \"#utility.yul\":15090:15091   */\n      0x00\n        /* \"#utility.yul\":15083:15171   */\n      mstore\n        /* \"#utility.yul\":15190:15194   */\n      0x21\n        /* \"#utility.yul\":15187:15188   */\n      0x04\n        /* \"#utility.yul\":15180:15195   */\n      mstore\n        /* \"#utility.yul\":15214:15218   */\n      0x24\n        /* \"#utility.yul\":15211:15212   */\n      0x00\n        /* \"#utility.yul\":15204:15219   */\n      revert\n        /* \"#utility.yul\":15231:15411   */\n    tag_329:\n        /* \"#utility.yul\":15279:15356   */\n      0x4e487b7100000000000000000000000000000000000000000000000000000000\n        /* \"#utility.yul\":15276:15277   */\n      0x00\n        /* \"#utility.yul\":15269:15357   */\n      mstore\n        /* \"#utility.yul\":15376:15380   */\n      0x22\n        /* \"#utility.yul\":15373:15374   */\n      0x04\n        /* \"#utility.yul\":15366:15381   */\n      mstore\n        /* \"#utility.yul\":15400:15404   */\n      0x24\n        /* \"#utility.yul\":15397:15398   */\n      0x00\n        /* \"#utility.yul\":15390:15405   */\n      revert\n        /* \"#utility.yul\":15417:15597   */\n    tag_74:\n        /* \"#utility.yul\":15465:15542   */\n      0x4e487b7100000000000000000000000000000000000000000000000000000000\n        /* \"#utility.yul\":15462:15463   */\n      0x00\n        /* \"#utility.yul\":15455:15543   */\n      mstore\n        /* \"#utility.yul\":15562:15566   */\n      0x32\n        /* \"#utility.yul\":15559:15560   */\n      0x04\n        /* \"#utility.yul\":15552:15567   */\n      mstore\n        /* \"#utility.yul\":15586:15590   */\n      0x24\n        /* \"#utility.yul\":15583:15584   */\n      0x00\n        /* \"#utility.yul\":15576:15591   */\n      revert\n        /* \"#utility.yul\":15603:15783   */\n    tag_302:\n        /* \"#utility.yul\":15651:15728   */\n      0x4e487b7100000000000000000000000000000000000000000000000000000000\n        /* \"#utility.yul\":15648:15649   */\n      0x00\n        /* \"#utility.yul\":15641:15729   */\n      mstore\n        /* \"#utility.yul\":15748:15752   */\n      0x41\n        /* \"#utility.yul\":15745:15746   */\n      0x04\n        /* \"#utility.yul\":15738:15753   */\n      mstore\n        /* \"#utility.yul\":15772:15776   */\n      0x24\n        /* \"#utility.yul\":15769:15770   */\n      0x00\n        /* \"#utility.yul\":15762:15777   */\n      revert\n        /* \"#utility.yul\":15789:15906   */\n    tag_173:\n        /* \"#utility.yul\":15898:15899   */\n      0x00\n        /* \"#utility.yul\":15895:15896   */\n      dup1\n        /* \"#utility.yul\":15888:15900   */\n      revert\n        /* \"#utility.yul\":15912:16029   */\n    tag_162:\n        /* \"#utility.yul\":16021:16022   */\n      0x00\n        /* \"#utility.yul\":16018:16019   */\n      dup1\n        /* \"#utility.yul\":16011:16023   */\n      revert\n        /* \"#utility.yul\":16035:16152   */\n    tag_185:\n        /* \"#utility.yul\":16144:16145   */\n      0x00\n        /* \"#utility.yul\":16141:16142   */\n      dup1\n        /* \"#utility.yul\":16134:16146   */\n      revert\n        /* \"#utility.yul\":16158:16275   */\n    tag_178:\n        /* \"#utility.yul\":16267:16268   */\n      0x00\n        /* \"#utility.yul\":16264:16265   */\n      dup1\n        /* \"#utility.yul\":16257:16269   */\n      revert\n        /* \"#utility.yul\":16281:16383   */\n    tag_304:\n        /* \"#utility.yul\":16322:16328   */\n      0x00\n        /* \"#utility.yul\":16373:16375   */\n      0x1f\n        /* \"#utility.yul\":16369:16376   */\n      not\n        /* \"#utility.yul\":16364:16366   */\n      0x1f\n        /* \"#utility.yul\":16357:16362   */\n      dup4\n        /* \"#utility.yul\":16353:16367   */\n      add\n        /* \"#utility.yul\":16349:16377   */\n      and\n        /* \"#utility.yul\":16339:16377   */\n      swap1\n      pop\n        /* \"#utility.yul\":16281:16383   */\n      swap2\n      swap1\n      pop\n      jump\t// out\n        /* \"#utility.yul\":16389:16567   */\n    tag_235:\n        /* \"#utility.yul\":16529:16559   */\n      0x52657669657720746865206170706c69636174696f6e20666972737400000000\n        /* \"#utility.yul\":16525:16526   */\n      0x00\n        /* \"#utility.yul\":16517:16523   */\n      dup3\n        /* \"#utility.yul\":16513:16527   */\n      add\n        /* \"#utility.yul\":16506:16560   */\n      mstore\n        /* \"#utility.yul\":16389:16567   */\n      pop\n      jump\t// out\n        /* \"#utility.yul\":16573:16747   */\n    tag_240:\n        /* \"#utility.yul\":16713:16739   */\n      0x4170706c69636174696f6e20616c72656164792073656e740000000000000000\n        /* \"#utility.yul\":16709:16710   */\n      0x00\n        /* \"#utility.yul\":16701:16707   */\n      dup3\n        /* \"#utility.yul\":16697:16711   */\n      add\n        /* \"#utility.yul\":16690:16740   */\n      mstore\n        /* \"#utility.yul\":16573:16747   */\n      pop\n      jump\t// out\n        /* \"#utility.yul\":16753:16982   */\n    tag_245:\n        /* \"#utility.yul\":16893:16927   */\n      0x596f7572206170706c69636174696f6e2068617320616c726561647920626565\n        /* \"#utility.yul\":16889:16890   */\n      0x00\n        /* \"#utility.yul\":16881:16887   */\n      dup3\n        /* \"#utility.yul\":16877:16891   */\n      add\n        /* \"#utility.yul\":16870:16928   */\n      mstore\n        /* \"#utility.yul\":16962:16974   */\n      0x6e2072656a656374656400000000000000000000000000000000000000000000\n        /* \"#utility.yul\":16957:16959   */\n      0x20\n        /* \"#utility.yul\":16949:16955   */\n      dup3\n        /* \"#utility.yul\":16945:16960   */\n      add\n        /* \"#utility.yul\":16938:16975   */\n      mstore\n        /* \"#utility.yul\":16753:16982   */\n      pop\n      jump\t// out\n        /* \"#utility.yul\":16988:17216   */\n    tag_250:\n        /* \"#utility.yul\":17128:17162   */\n      0x596f7520617265206e6f7420746865206f776e6572206f722070726976617465\n        /* \"#utility.yul\":17124:17125   */\n      0x00\n        /* \"#utility.yul\":17116:17122   */\n      dup3\n        /* \"#utility.yul\":17112:17126   */\n      add\n        /* \"#utility.yul\":17105:17163   */\n      mstore\n        /* \"#utility.yul\":17197:17208   */\n      0x2070726f76696465720000000000000000000000000000000000000000000000\n        /* \"#utility.yul\":17192:17194   */\n      0x20\n        /* \"#utility.yul\":17184:17190   */\n      dup3\n        /* \"#utility.yul\":17180:17195   */\n      add\n        /* \"#utility.yul\":17173:17209   */\n      mstore\n        /* \"#utility.yul\":16988:17216   */\n      pop\n      jump\t// out\n        /* \"#utility.yul\":17222:17386   */\n    tag_255:\n        /* \"#utility.yul\":17362:17378   */\n      0x596f7572206e6f742061646d696e000000000000000000000000000000000000\n        /* \"#utility.yul\":17358:17359   */\n      0x00\n        /* \"#utility.yul\":17350:17356   */\n      dup3\n        /* \"#utility.yul\":17346:17360   */\n      add\n        /* \"#utility.yul\":17339:17379   */\n      mstore\n        /* \"#utility.yul\":17222:17386   */\n      pop\n      jump\t// out\n        /* \"#utility.yul\":17392:17567   */\n    tag_260:\n        /* \"#utility.yul\":17532:17559   */\n      0x596f7572206e6f7420507269766174652070726f766964657200000000000000\n        /* \"#utility.yul\":17528:17529   */\n      0x00\n        /* \"#utility.yul\":17520:17526   */\n      dup3\n        /* \"#utility.yul\":17516:17530   */\n      add\n        /* \"#utility.yul\":17509:17560   */\n      mstore\n        /* \"#utility.yul\":17392:17567   */\n      pop\n      jump\t// out\n        /* \"#utility.yul\":17573:17746   */\n    tag_265:\n        /* \"#utility.yul\":17713:17738   */\n      0x4170706c69636174696f6e20706861736520656e646564000000000000000000\n        /* \"#utility.yul\":17709:17710   */\n      0x00\n        /* \"#utility.yul\":17701:17707   */\n      dup3\n        /* \"#utility.yul\":17697:17711   */\n      add\n        /* \"#utility.yul\":17690:17739   */\n      mstore\n        /* \"#utility.yul\":17573:17746   */\n      pop\n      jump\t// out\n        /* \"#utility.yul\":17752:17994   */\n    tag_270:\n        /* \"#utility.yul\":17892:17926   */\n      0x596f752063616e27742073656e6420616e206170706c69636174696f6e20746f\n        /* \"#utility.yul\":17888:17889   */\n      0x00\n        /* \"#utility.yul\":17880:17886   */\n      dup3\n        /* \"#utility.yul\":17876:17890   */\n      add\n        /* \"#utility.yul\":17869:17927   */\n      mstore\n        /* \"#utility.yul\":17961:17986   */\n      0x20736f6d656f6e6520656c736527732061646472657373000000000000000000\n        /* \"#utility.yul\":17956:17958   */\n      0x20\n        /* \"#utility.yul\":17948:17954   */\n      dup3\n        /* \"#utility.yul\":17944:17959   */\n      add\n        /* \"#utility.yul\":17937:17987   */\n      mstore\n        /* \"#utility.yul\":17752:17994   */\n      pop\n      jump\t// out\n        /* \"#utility.yul\":18000:18122   */\n    tag_168:\n        /* \"#utility.yul\":18073:18097   */\n      tag_358\n        /* \"#utility.yul\":18091:18096   */\n      dup2\n        /* \"#utility.yul\":18073:18097   */\n      tag_203\n      jump\t// in\n    tag_358:\n        /* \"#utility.yul\":18066:18071   */\n      dup2\n        /* \"#utility.yul\":18063:18098   */\n      eq\n        /* \"#utility.yul\":18053:18116   */\n      tag_359\n      jumpi\n        /* \"#utility.yul\":18112:18113   */\n      0x00\n        /* \"#utility.yul\":18109:18110   */\n      dup1\n        /* \"#utility.yul\":18102:18114   */\n      revert\n        /* \"#utility.yul\":18053:18116   */\n    tag_359:\n        /* \"#utility.yul\":18000:18122   */\n      pop\n      jump\t// out\n\n    auxdata: 0xa2646970667358221220bc039433c905ba44b9d5f857518e98b90507efa29caa92b07429376bc2efae8164736f6c63430008070033\n}\n",
				"bytecode": {
					"linkReferences": {},
					"object": "608060405234801561001057600080fd5b50611b35806100206000396000f3fe608060405234801561001057600080fd5b506004361061007d5760003560e01c80637f89128f1161005b5780637f89128f146100d85780638e4f8c6b146100f6578063a678b65b14610126578063c10e3911146101425761007d565b80631d3eea3514610082578063686c4cea1461009e578063785963c3146100bc575b600080fd5b61009c60048036038101906100979190611202565b610160565b005b6100a6610309565b6040516100b391906114f7565b60405180910390f35b6100d660048036038101906100d19190611278565b61044c565b005b6100e0610928565b6040516100ed91906114f7565b60405180910390f35b610110600480360381019061010b919061122f565b610a6b565b60405161011d9190611519565b60405180910390f35b610140600480360381019061013b9190611202565b610a9b565b005b61014a610f1a565b60405161015791906114f7565b60405180910390f35b600260048111156101745761017361184d565b5b6000803373ffffffffffffffffffffffffffffffffffffffff1673ffffffffffffffffffffffffffffffffffffffff16815260200190815260200160002060000160009054906101000a900460ff1660048111156101d5576101d461184d565b5b14610215576040517f08c379a000000000000000000000000000000000000000000000000000000000815260040161020c906115d4565b60405180910390fd5b60001515600260003373ffffffffffffffffffffffffffffffffffffffff1673ffffffffffffffffffffffffffffffffffffffff16815260200190815260200160002060020160159054906101000a900460ff161515146102ab576040517f08c379a00000000000000000000000000000000000000000000000000000000081526004016102a290611534565b60405180910390fd5b6000600260008373ffffffffffffffffffffffffffffffffffffffff1673ffffffffffffffffffffffffffffffffffffffff16815260200190815260200160002060020160146101000a81548160ff02191690831515021790555050565b60606002600481111561031f5761031e61184d565b5b6000803373ffffffffffffffffffffffffffffffffffffffff1673ffffffffffffffffffffffffffffffffffffffff16815260200190815260200160002060000160009054906101000a900460ff1660048111156103805761037f61184d565b5b146103c0576040517f08c379a00000000000000000000000000000000000000000000000000000000081526004016103b7906115d4565b60405180910390fd5b600380548060200260200160405190810160405280929190818152602001828054801561044257602002820191906000526020600020905b8160009054906101000a900473ffffffffffffffffffffffffffffffffffffffff1673ffffffffffffffffffffffffffffffffffffffff16815260200190600101908083116103f8575b5050505050905090565b60008015156001600073ab8483f64d9c6d1ecf9b849ae677dd3315835cb273ffffffffffffffffffffffffffffffffffffffff1673ffffffffffffffffffffffffffffffffffffffff16815260200190815260200160002060000160009054906101000a900460ff16151514801561052b5750600015156001600073ab8483f64d9c6d1ecf9b849ae677dd3315835cb273ffffffffffffffffffffffffffffffffffffffff1673ffffffffffffffffffffffffffffffffffffffff16815260200190815260200160002060000160009054906101000a900460ff161515145b61056a576040517f08c379a0000000000000000000000000000000000000000000000000000000008152600401610561906115f4565b60405180910390fd5b8173ffffffffffffffffffffffffffffffffffffffff163373ffffffffffffffffffffffffffffffffffffffff16146105d8576040517f08c379a00000000000000000000000000000000000000000000000000000000081526004016105cf90611614565b60405180910390fd5b60005b6003805490508110156106b9573373ffffffffffffffffffffffffffffffffffffffff1660038281548110610613576106126118ab565b5b9060005260206000200160009054906101000a900473ffffffffffffffffffffffffffffffffffffffff1673ffffffffffffffffffffffffffffffffffffffff16141561065f57600191505b60001515821515146106a6576040517f08c379a000000000000000000000000000000000000000000000000000000000815260040161069d90611554565b60405180910390fd5b80806106b1906117d5565b9150506105db565b5060001515600260003373ffffffffffffffffffffffffffffffffffffffff1673ffffffffffffffffffffffffffffffffffffffff16815260200190815260200160002060020160149054906101000a900460ff16151514610750576040517f08c379a000000000000000000000000000000000000000000000000000000000815260040161074790611574565b60405180910390fd5b6040518060c001604052808581526020018481526020018373ffffffffffffffffffffffffffffffffffffffff16815260200160011515815260200160001515815260200160011515815250600260003373ffffffffffffffffffffffffffffffffffffffff1673ffffffffffffffffffffffffffffffffffffffff16815260200190815260200160002060008201518160000190805190602001906107f79291906110da565b5060208201518160010190805190602001906108149291906110da565b5060408201518160020160006101000a81548173ffffffffffffffffffffffffffffffffffffffff021916908373ffffffffffffffffffffffffffffffffffffffff16021790555060608201518160020160146101000a81548160ff02191690831515021790555060808201518160020160156101000a81548160ff02191690831515021790555060a08201518160020160166101000a81548160ff0219169083151502179055509050506003339080600181540180825580915050600190039060005260206000200160009091909190916101000a81548173ffffffffffffffffffffffffffffffffffffffff021916908373ffffffffffffffffffffffffffffffffffffffff16021790555050505050565b60606000600481111561093e5761093d61184d565b5b6000803373ffffffffffffffffffffffffffffffffffffffff1673ffffffffffffffffffffffffffffffffffffffff16815260200190815260200160002060000160009054906101000a900460ff16600481111561099f5761099e61184d565b5b146109df576040517f08c379a00000000000000000000000000000000000000000000000000000000081526004016109d6906115b4565b60405180910390fd5b6005805480602002602001604051908101604052809291908181526020018280548015610a6157602002820191906000526020600020905b8160009054906101000a900473ffffffffffffffffffffffffffffffffffffffff1673ffffffffffffffffffffffffffffffffffffffff1681526020019060010190808311610a17575b5050505050905090565b600081604051602001610a7e91906114e0565b604051602081830303815290604052805190602001209050919050565b60026004811115610aaf57610aae61184d565b5b6000803373ffffffffffffffffffffffffffffffffffffffff1673ffffffffffffffffffffffffffffffffffffffff16815260200190815260200160002060000160009054906101000a900460ff166004811115610b1057610b0f61184d565b5b14610b50576040517f08c379a0000000000000000000000000000000000000000000000000000000008152600401610b47906115d4565b60405180910390fd5b60001515600260003373ffffffffffffffffffffffffffffffffffffffff1673ffffffffffffffffffffffffffffffffffffffff16815260200190815260200160002060020160159054906101000a900460ff16151514610be6576040517f08c379a0000000000000000000000000000000000000000000000000000000008152600401610bdd90611534565b60405180910390fd5b6000600260008373ffffffffffffffffffffffffffffffffffffffff1673ffffffffffffffffffffffffffffffffffffffff16815260200190815260200160002060020160146101000a81548160ff0219169083151502179055506003819080600181540180825580915050600190039060005260206000200160009091909190916101000a81548173ffffffffffffffffffffffffffffffffffffffff021916908373ffffffffffffffffffffffffffffffffffffffff1602179055506004819080600181540180825580915050600190039060005260206000200160009091909190916101000a81548173ffffffffffffffffffffffffffffffffffffffff021916908373ffffffffffffffffffffffffffffffffffffffff1602179055506040518060e00160405280600480811115610d2557610d2461184d565b5b8152602001600260008473ffffffffffffffffffffffffffffffffffffffff1673ffffffffffffffffffffffffffffffffffffffff1681526020019081526020016000206000018054610d7790611772565b80601f0160208091040260200160405190810160405280929190818152602001828054610da390611772565b8015610df05780601f10610dc557610100808354040283529160200191610df0565b820191906000526020600020905b815481529060010190602001808311610dd357829003601f168201915b50505050508152602001610e386040518060400160405280600181526020017f3000000000000000000000000000000000000000000000000000000000000000815250610a6b565b815260200160008152602001600081526020016000815260200160008152506000808373ffffffffffffffffffffffffffffffffffffffff1673ffffffffffffffffffffffffffffffffffffffff16815260200190815260200160002060008201518160000160006101000a81548160ff02191690836004811115610ec057610ebf61184d565b5b02179055506020820151816001019080519060200190610ee19291906110da565b5060408201518160020155606082015181600301556080820151816004015560a0820151816005015560c0820151816006015590505050565b606060006004811115610f3057610f2f61184d565b5b6000803373ffffffffffffffffffffffffffffffffffffffff1673ffffffffffffffffffffffffffffffffffffffff16815260200190815260200160002060000160009054906101000a900460ff166004811115610f9157610f9061184d565b5b148061100f575060026004811115610fac57610fab61184d565b5b6000803373ffffffffffffffffffffffffffffffffffffffff1673ffffffffffffffffffffffffffffffffffffffff16815260200190815260200160002060000160009054906101000a900460ff16600481111561100d5761100c61184d565b5b145b61104e576040517f08c379a000000000000000000000000000000000000000000000000000000000815260040161104590611594565b60405180910390fd5b60048054806020026020016040519081016040528092919081815260200182805480156110d057602002820191906000526020600020905b8160009054906101000a900473ffffffffffffffffffffffffffffffffffffffff1673ffffffffffffffffffffffffffffffffffffffff1681526020019060010190808311611086575b5050505050905090565b8280546110e690611772565b90600052602060002090601f016020900481019282611108576000855561114f565b82601f1061112157805160ff191683800117855561114f565b8280016001018555821561114f579182015b8281111561114e578251825591602001919060010190611133565b5b50905061115c9190611160565b5090565b5b80821115611179576000816000905550600101611161565b5090565b600061119061118b84611659565b611634565b9050828152602081018484840111156111ac576111ab61190e565b5b6111b7848285611730565b509392505050565b6000813590506111ce81611ae8565b92915050565b600082601f8301126111e9576111e8611909565b5b81356111f984826020860161117d565b91505092915050565b60006020828403121561121857611217611918565b5b6000611226848285016111bf565b91505092915050565b60006020828403121561124557611244611918565b5b600082013567ffffffffffffffff81111561126357611262611913565b5b61126f848285016111d4565b91505092915050565b60008060006060848603121561129157611290611918565b5b600084013567ffffffffffffffff8111156112af576112ae611913565b5b6112bb868287016111d4565b935050602084013567ffffffffffffffff8111156112dc576112db611913565b5b6112e8868287016111d4565b92505060406112f9868287016111bf565b9150509250925092565b600061130f838361131b565b60208301905092915050565b611324816116ea565b82525050565b60006113358261169a565b61133f81856116bd565b935061134a8361168a565b8060005b8381101561137b5781516113628882611303565b975061136d836116b0565b92505060018101905061134e565b5085935050505092915050565b611391816116fc565b82525050565b60006113a2826116a5565b6113ac81856116df565b93506113bc81856020860161173f565b80840191505092915050565b60006113d5601c836116ce565b91506113e08261192e565b602082019050919050565b60006113f86018836116ce565b915061140382611957565b602082019050919050565b600061141b602a836116ce565b915061142682611980565b604082019050919050565b600061143e6029836116ce565b9150611449826119cf565b604082019050919050565b6000611461600e836116ce565b915061146c82611a1e565b602082019050919050565b60006114846019836116ce565b915061148f82611a47565b602082019050919050565b60006114a76017836116ce565b91506114b282611a70565b602082019050919050565b60006114ca6037836116ce565b91506114d582611a99565b604082019050919050565b60006114ec8284611397565b915081905092915050565b60006020820190508181036000830152611511818461132a565b905092915050565b600060208201905061152e6000830184611388565b92915050565b6000602082019050818103600083015261154d816113c8565b9050919050565b6000602082019050818103600083015261156d816113eb565b9050919050565b6000602082019050818103600083015261158d8161140e565b9050919050565b600060208201905081810360008301526115ad81611431565b9050919050565b600060208201905081810360008301526115cd81611454565b9050919050565b600060208201905081810360008301526115ed81611477565b9050919050565b6000602082019050818103600083015261160d8161149a565b9050919050565b6000602082019050818103600083015261162d816114bd565b9050919050565b600061163e61164f565b905061164a82826117a4565b919050565b6000604051905090565b600067ffffffffffffffff821115611674576116736118da565b5b61167d8261191d565b9050602081019050919050565b6000819050602082019050919050565b600081519050919050565b600081519050919050565b6000602082019050919050565b600082825260208201905092915050565b600082825260208201905092915050565b600081905092915050565b60006116f582611706565b9050919050565b6000819050919050565b600073ffffffffffffffffffffffffffffffffffffffff82169050919050565b6000819050919050565b82818337600083830152505050565b60005b8381101561175d578082015181840152602081019050611742565b8381111561176c576000848401525b50505050565b6000600282049050600182168061178a57607f821691505b6020821081141561179e5761179d61187c565b5b50919050565b6117ad8261191d565b810181811067ffffffffffffffff821117156117cc576117cb6118da565b5b80604052505050565b60006117e082611726565b91507fffffffffffffffffffffffffffffffffffffffffffffffffffffffffffffffff8214156118135761181261181e565b5b600182019050919050565b7f4e487b7100000000000000000000000000000000000000000000000000000000600052601160045260246000fd5b7f4e487b7100000000000000000000000000000000000000000000000000000000600052602160045260246000fd5b7f4e487b7100000000000000000000000000000000000000000000000000000000600052602260045260246000fd5b7f4e487b7100000000000000000000000000000000000000000000000000000000600052603260045260246000fd5b7f4e487b7100000000000000000000000000000000000000000000000000000000600052604160045260246000fd5b600080fd5b600080fd5b600080fd5b600080fd5b6000601f19601f8301169050919050565b7f52657669657720746865206170706c69636174696f6e20666972737400000000600082015250565b7f4170706c69636174696f6e20616c72656164792073656e740000000000000000600082015250565b7f596f7572206170706c69636174696f6e2068617320616c72656164792062656560008201527f6e2072656a656374656400000000000000000000000000000000000000000000602082015250565b7f596f7520617265206e6f7420746865206f776e6572206f72207072697661746560008201527f2070726f76696465720000000000000000000000000000000000000000000000602082015250565b7f596f7572206e6f742061646d696e000000000000000000000000000000000000600082015250565b7f596f7572206e6f7420507269766174652070726f766964657200000000000000600082015250565b7f4170706c69636174696f6e20706861736520656e646564000000000000000000600082015250565b7f596f752063616e27742073656e6420616e206170706c69636174696f6e20746f60008201527f20736f6d656f6e6520656c736527732061646472657373000000000000000000602082015250565b611af1816116ea565b8114611afc57600080fd5b5056fea2646970667358221220bc039433c905ba44b9d5f857518e98b90507efa29caa92b07429376bc2efae8164736f6c63430008070033",
					"opcodes": "PUSH1 0x80 PUSH1 0x40 MSTORE CALLVALUE DUP1 ISZERO PUSH2 0x10 JUMPI PUSH1 0x0 DUP1 REVERT JUMPDEST POP PUSH2 0x1B35 DUP1 PUSH2 0x20 PUSH1 0x0 CODECOPY PUSH1 0x0 RETURN INVALID PUSH1 0x80 PUSH1 0x40 MSTORE CALLVALUE DUP1 ISZERO PUSH2 0x10 JUMPI PUSH1 0x0 DUP1 REVERT JUMPDEST POP PUSH1 0x4 CALLDATASIZE LT PUSH2 0x7D JUMPI PUSH1 0x0 CALLDATALOAD PUSH1 0xE0 SHR DUP1 PUSH4 0x7F89128F GT PUSH2 0x5B JUMPI DUP1 PUSH4 0x7F89128F EQ PUSH2 0xD8 JUMPI DUP1 PUSH4 0x8E4F8C6B EQ PUSH2 0xF6 JUMPI DUP1 PUSH4 0xA678B65B EQ PUSH2 0x126 JUMPI DUP1 PUSH4 0xC10E3911 EQ PUSH2 0x142 JUMPI PUSH2 0x7D JUMP JUMPDEST DUP1 PUSH4 0x1D3EEA35 EQ PUSH2 0x82 JUMPI DUP1 PUSH4 0x686C4CEA EQ PUSH2 0x9E JUMPI DUP1 PUSH4 0x785963C3 EQ PUSH2 0xBC JUMPI JUMPDEST PUSH1 0x0 DUP1 REVERT JUMPDEST PUSH2 0x9C PUSH1 0x4 DUP1 CALLDATASIZE SUB DUP2 ADD SWAP1 PUSH2 0x97 SWAP2 SWAP1 PUSH2 0x1202 JUMP JUMPDEST PUSH2 0x160 JUMP JUMPDEST STOP JUMPDEST PUSH2 0xA6 PUSH2 0x309 JUMP JUMPDEST PUSH1 0x40 MLOAD PUSH2 0xB3 SWAP2 SWAP1 PUSH2 0x14F7 JUMP JUMPDEST PUSH1 0x40 MLOAD DUP1 SWAP2 SUB SWAP1 RETURN JUMPDEST PUSH2 0xD6 PUSH1 0x4 DUP1 CALLDATASIZE SUB DUP2 ADD SWAP1 PUSH2 0xD1 SWAP2 SWAP1 PUSH2 0x1278 JUMP JUMPDEST PUSH2 0x44C JUMP JUMPDEST STOP JUMPDEST PUSH2 0xE0 PUSH2 0x928 JUMP JUMPDEST PUSH1 0x40 MLOAD PUSH2 0xED SWAP2 SWAP1 PUSH2 0x14F7 JUMP JUMPDEST PUSH1 0x40 MLOAD DUP1 SWAP2 SUB SWAP1 RETURN JUMPDEST PUSH2 0x110 PUSH1 0x4 DUP1 CALLDATASIZE SUB DUP2 ADD SWAP1 PUSH2 0x10B SWAP2 SWAP1 PUSH2 0x122F JUMP JUMPDEST PUSH2 0xA6B JUMP JUMPDEST PUSH1 0x40 MLOAD PUSH2 0x11D SWAP2 SWAP1 PUSH2 0x1519 JUMP JUMPDEST PUSH1 0x40 MLOAD DUP1 SWAP2 SUB SWAP1 RETURN JUMPDEST PUSH2 0x140 PUSH1 0x4 DUP1 CALLDATASIZE SUB DUP2 ADD SWAP1 PUSH2 0x13B SWAP2 SWAP1 PUSH2 0x1202 JUMP JUMPDEST PUSH2 0xA9B JUMP JUMPDEST STOP JUMPDEST PUSH2 0x14A PUSH2 0xF1A JUMP JUMPDEST PUSH1 0x40 MLOAD PUSH2 0x157 SWAP2 SWAP1 PUSH2 0x14F7 JUMP JUMPDEST PUSH1 0x40 MLOAD DUP1 SWAP2 SUB SWAP1 RETURN JUMPDEST PUSH1 0x2 PUSH1 0x4 DUP2 GT ISZERO PUSH2 0x174 JUMPI PUSH2 0x173 PUSH2 0x184D JUMP JUMPDEST JUMPDEST PUSH1 0x0 DUP1 CALLER PUSH20 0xFFFFFFFFFFFFFFFFFFFFFFFFFFFFFFFFFFFFFFFF AND PUSH20 0xFFFFFFFFFFFFFFFFFFFFFFFFFFFFFFFFFFFFFFFF AND DUP2 MSTORE PUSH1 0x20 ADD SWAP1 DUP2 MSTORE PUSH1 0x20 ADD PUSH1 0x0 KECCAK256 PUSH1 0x0 ADD PUSH1 0x0 SWAP1 SLOAD SWAP1 PUSH2 0x100 EXP SWAP1 DIV PUSH1 0xFF AND PUSH1 0x4 DUP2 GT ISZERO PUSH2 0x1D5 JUMPI PUSH2 0x1D4 PUSH2 0x184D JUMP JUMPDEST JUMPDEST EQ PUSH2 0x215 JUMPI PUSH1 0x40 MLOAD PUSH32 0x8C379A000000000000000000000000000000000000000000000000000000000 DUP2 MSTORE PUSH1 0x4 ADD PUSH2 0x20C SWAP1 PUSH2 0x15D4 JUMP JUMPDEST PUSH1 0x40 MLOAD DUP1 SWAP2 SUB SWAP1 REVERT JUMPDEST PUSH1 0x0 ISZERO ISZERO PUSH1 0x2 PUSH1 0x0 CALLER PUSH20 0xFFFFFFFFFFFFFFFFFFFFFFFFFFFFFFFFFFFFFFFF AND PUSH20 0xFFFFFFFFFFFFFFFFFFFFFFFFFFFFFFFFFFFFFFFF AND DUP2 MSTORE PUSH1 0x20 ADD SWAP1 DUP2 MSTORE PUSH1 0x20 ADD PUSH1 0x0 KECCAK256 PUSH1 0x2 ADD PUSH1 0x15 SWAP1 SLOAD SWAP1 PUSH2 0x100 EXP SWAP1 DIV PUSH1 0xFF AND ISZERO ISZERO EQ PUSH2 0x2AB JUMPI PUSH1 0x40 MLOAD PUSH32 0x8C379A000000000000000000000000000000000000000000000000000000000 DUP2 MSTORE PUSH1 0x4 ADD PUSH2 0x2A2 SWAP1 PUSH2 0x1534 JUMP JUMPDEST PUSH1 0x40 MLOAD DUP1 SWAP2 SUB SWAP1 REVERT JUMPDEST PUSH1 0x0 PUSH1 0x2 PUSH1 0x0 DUP4 PUSH20 0xFFFFFFFFFFFFFFFFFFFFFFFFFFFFFFFFFFFFFFFF AND PUSH20 0xFFFFFFFFFFFFFFFFFFFFFFFFFFFFFFFFFFFFFFFF AND DUP2 MSTORE PUSH1 0x20 ADD SWAP1 DUP2 MSTORE PUSH1 0x20 ADD PUSH1 0x0 KECCAK256 PUSH1 0x2 ADD PUSH1 0x14 PUSH2 0x100 EXP DUP2 SLOAD DUP2 PUSH1 0xFF MUL NOT AND SWAP1 DUP4 ISZERO ISZERO MUL OR SWAP1 SSTORE POP POP JUMP JUMPDEST PUSH1 0x60 PUSH1 0x2 PUSH1 0x4 DUP2 GT ISZERO PUSH2 0x31F JUMPI PUSH2 0x31E PUSH2 0x184D JUMP JUMPDEST JUMPDEST PUSH1 0x0 DUP1 CALLER PUSH20 0xFFFFFFFFFFFFFFFFFFFFFFFFFFFFFFFFFFFFFFFF AND PUSH20 0xFFFFFFFFFFFFFFFFFFFFFFFFFFFFFFFFFFFFFFFF AND DUP2 MSTORE PUSH1 0x20 ADD SWAP1 DUP2 MSTORE PUSH1 0x20 ADD PUSH1 0x0 KECCAK256 PUSH1 0x0 ADD PUSH1 0x0 SWAP1 SLOAD SWAP1 PUSH2 0x100 EXP SWAP1 DIV PUSH1 0xFF AND PUSH1 0x4 DUP2 GT ISZERO PUSH2 0x380 JUMPI PUSH2 0x37F PUSH2 0x184D JUMP JUMPDEST JUMPDEST EQ PUSH2 0x3C0 JUMPI PUSH1 0x40 MLOAD PUSH32 0x8C379A000000000000000000000000000000000000000000000000000000000 DUP2 MSTORE PUSH1 0x4 ADD PUSH2 0x3B7 SWAP1 PUSH2 0x15D4 JUMP JUMPDEST PUSH1 0x40 MLOAD DUP1 SWAP2 SUB SWAP1 REVERT JUMPDEST PUSH1 0x3 DUP1 SLOAD DUP1 PUSH1 0x20 MUL PUSH1 0x20 ADD PUSH1 0x40 MLOAD SWAP1 DUP2 ADD PUSH1 0x40 MSTORE DUP1 SWAP3 SWAP2 SWAP1 DUP2 DUP2 MSTORE PUSH1 0x20 ADD DUP3 DUP1 SLOAD DUP1 ISZERO PUSH2 0x442 JUMPI PUSH1 0x20 MUL DUP3 ADD SWAP2 SWAP1 PUSH1 0x0 MSTORE PUSH1 0x20 PUSH1 0x0 KECCAK256 SWAP1 JUMPDEST DUP2 PUSH1 0x0 SWAP1 SLOAD SWAP1 PUSH2 0x100 EXP SWAP1 DIV PUSH20 0xFFFFFFFFFFFFFFFFFFFFFFFFFFFFFFFFFFFFFFFF AND PUSH20 0xFFFFFFFFFFFFFFFFFFFFFFFFFFFFFFFFFFFFFFFF AND DUP2 MSTORE PUSH1 0x20 ADD SWAP1 PUSH1 0x1 ADD SWAP1 DUP1 DUP4 GT PUSH2 0x3F8 JUMPI JUMPDEST POP POP POP POP POP SWAP1 POP SWAP1 JUMP JUMPDEST PUSH1 0x0 DUP1 ISZERO ISZERO PUSH1 0x1 PUSH1 0x0 PUSH20 0xAB8483F64D9C6D1ECF9B849AE677DD3315835CB2 PUSH20 0xFFFFFFFFFFFFFFFFFFFFFFFFFFFFFFFFFFFFFFFF AND PUSH20 0xFFFFFFFFFFFFFFFFFFFFFFFFFFFFFFFFFFFFFFFF AND DUP2 MSTORE PUSH1 0x20 ADD SWAP1 DUP2 MSTORE PUSH1 0x20 ADD PUSH1 0x0 KECCAK256 PUSH1 0x0 ADD PUSH1 0x0 SWAP1 SLOAD SWAP1 PUSH2 0x100 EXP SWAP1 DIV PUSH1 0xFF AND ISZERO ISZERO EQ DUP1 ISZERO PUSH2 0x52B JUMPI POP PUSH1 0x0 ISZERO ISZERO PUSH1 0x1 PUSH1 0x0 PUSH20 0xAB8483F64D9C6D1ECF9B849AE677DD3315835CB2 PUSH20 0xFFFFFFFFFFFFFFFFFFFFFFFFFFFFFFFFFFFFFFFF AND PUSH20 0xFFFFFFFFFFFFFFFFFFFFFFFFFFFFFFFFFFFFFFFF AND DUP2 MSTORE PUSH1 0x20 ADD SWAP1 DUP2 MSTORE PUSH1 0x20 ADD PUSH1 0x0 KECCAK256 PUSH1 0x0 ADD PUSH1 0x0 SWAP1 SLOAD SWAP1 PUSH2 0x100 EXP SWAP1 DIV PUSH1 0xFF AND ISZERO ISZERO EQ JUMPDEST PUSH2 0x56A JUMPI PUSH1 0x40 MLOAD PUSH32 0x8C379A000000000000000000000000000000000000000000000000000000000 DUP2 MSTORE PUSH1 0x4 ADD PUSH2 0x561 SWAP1 PUSH2 0x15F4 JUMP JUMPDEST PUSH1 0x40 MLOAD DUP1 SWAP2 SUB SWAP1 REVERT JUMPDEST DUP2 PUSH20 0xFFFFFFFFFFFFFFFFFFFFFFFFFFFFFFFFFFFFFFFF AND CALLER PUSH20 0xFFFFFFFFFFFFFFFFFFFFFFFFFFFFFFFFFFFFFFFF AND EQ PUSH2 0x5D8 JUMPI PUSH1 0x40 MLOAD PUSH32 0x8C379A000000000000000000000000000000000000000000000000000000000 DUP2 MSTORE PUSH1 0x4 ADD PUSH2 0x5CF SWAP1 PUSH2 0x1614 JUMP JUMPDEST PUSH1 0x40 MLOAD DUP1 SWAP2 SUB SWAP1 REVERT JUMPDEST PUSH1 0x0 JUMPDEST PUSH1 0x3 DUP1 SLOAD SWAP1 POP DUP2 LT ISZERO PUSH2 0x6B9 JUMPI CALLER PUSH20 0xFFFFFFFFFFFFFFFFFFFFFFFFFFFFFFFFFFFFFFFF AND PUSH1 0x3 DUP3 DUP2 SLOAD DUP2 LT PUSH2 0x613 JUMPI PUSH2 0x612 PUSH2 0x18AB JUMP JUMPDEST JUMPDEST SWAP1 PUSH1 0x0 MSTORE PUSH1 0x20 PUSH1 0x0 KECCAK256 ADD PUSH1 0x0 SWAP1 SLOAD SWAP1 PUSH2 0x100 EXP SWAP1 DIV PUSH20 0xFFFFFFFFFFFFFFFFFFFFFFFFFFFFFFFFFFFFFFFF AND PUSH20 0xFFFFFFFFFFFFFFFFFFFFFFFFFFFFFFFFFFFFFFFF AND EQ ISZERO PUSH2 0x65F JUMPI PUSH1 0x1 SWAP2 POP JUMPDEST PUSH1 0x0 ISZERO ISZERO DUP3 ISZERO ISZERO EQ PUSH2 0x6A6 JUMPI PUSH1 0x40 MLOAD PUSH32 0x8C379A000000000000000000000000000000000000000000000000000000000 DUP2 MSTORE PUSH1 0x4 ADD PUSH2 0x69D SWAP1 PUSH2 0x1554 JUMP JUMPDEST PUSH1 0x40 MLOAD DUP1 SWAP2 SUB SWAP1 REVERT JUMPDEST DUP1 DUP1 PUSH2 0x6B1 SWAP1 PUSH2 0x17D5 JUMP JUMPDEST SWAP2 POP POP PUSH2 0x5DB JUMP JUMPDEST POP PUSH1 0x0 ISZERO ISZERO PUSH1 0x2 PUSH1 0x0 CALLER PUSH20 0xFFFFFFFFFFFFFFFFFFFFFFFFFFFFFFFFFFFFFFFF AND PUSH20 0xFFFFFFFFFFFFFFFFFFFFFFFFFFFFFFFFFFFFFFFF AND DUP2 MSTORE PUSH1 0x20 ADD SWAP1 DUP2 MSTORE PUSH1 0x20 ADD PUSH1 0x0 KECCAK256 PUSH1 0x2 ADD PUSH1 0x14 SWAP1 SLOAD SWAP1 PUSH2 0x100 EXP SWAP1 DIV PUSH1 0xFF AND ISZERO ISZERO EQ PUSH2 0x750 JUMPI PUSH1 0x40 MLOAD PUSH32 0x8C379A000000000000000000000000000000000000000000000000000000000 DUP2 MSTORE PUSH1 0x4 ADD PUSH2 0x747 SWAP1 PUSH2 0x1574 JUMP JUMPDEST PUSH1 0x40 MLOAD DUP1 SWAP2 SUB SWAP1 REVERT JUMPDEST PUSH1 0x40 MLOAD DUP1 PUSH1 0xC0 ADD PUSH1 0x40 MSTORE DUP1 DUP6 DUP2 MSTORE PUSH1 0x20 ADD DUP5 DUP2 MSTORE PUSH1 0x20 ADD DUP4 PUSH20 0xFFFFFFFFFFFFFFFFFFFFFFFFFFFFFFFFFFFFFFFF AND DUP2 MSTORE PUSH1 0x20 ADD PUSH1 0x1 ISZERO ISZERO DUP2 MSTORE PUSH1 0x20 ADD PUSH1 0x0 ISZERO ISZERO DUP2 MSTORE PUSH1 0x20 ADD PUSH1 0x1 ISZERO ISZERO DUP2 MSTORE POP PUSH1 0x2 PUSH1 0x0 CALLER PUSH20 0xFFFFFFFFFFFFFFFFFFFFFFFFFFFFFFFFFFFFFFFF AND PUSH20 0xFFFFFFFFFFFFFFFFFFFFFFFFFFFFFFFFFFFFFFFF AND DUP2 MSTORE PUSH1 0x20 ADD SWAP1 DUP2 MSTORE PUSH1 0x20 ADD PUSH1 0x0 KECCAK256 PUSH1 0x0 DUP3 ADD MLOAD DUP2 PUSH1 0x0 ADD SWAP1 DUP1 MLOAD SWAP1 PUSH1 0x20 ADD SWAP1 PUSH2 0x7F7 SWAP3 SWAP2 SWAP1 PUSH2 0x10DA JUMP JUMPDEST POP PUSH1 0x20 DUP3 ADD MLOAD DUP2 PUSH1 0x1 ADD SWAP1 DUP1 MLOAD SWAP1 PUSH1 0x20 ADD SWAP1 PUSH2 0x814 SWAP3 SWAP2 SWAP1 PUSH2 0x10DA JUMP JUMPDEST POP PUSH1 0x40 DUP3 ADD MLOAD DUP2 PUSH1 0x2 ADD PUSH1 0x0 PUSH2 0x100 EXP DUP2 SLOAD DUP2 PUSH20 0xFFFFFFFFFFFFFFFFFFFFFFFFFFFFFFFFFFFFFFFF MUL NOT AND SWAP1 DUP4 PUSH20 0xFFFFFFFFFFFFFFFFFFFFFFFFFFFFFFFFFFFFFFFF AND MUL OR SWAP1 SSTORE POP PUSH1 0x60 DUP3 ADD MLOAD DUP2 PUSH1 0x2 ADD PUSH1 0x14 PUSH2 0x100 EXP DUP2 SLOAD DUP2 PUSH1 0xFF MUL NOT AND SWAP1 DUP4 ISZERO ISZERO MUL OR SWAP1 SSTORE POP PUSH1 0x80 DUP3 ADD MLOAD DUP2 PUSH1 0x2 ADD PUSH1 0x15 PUSH2 0x100 EXP DUP2 SLOAD DUP2 PUSH1 0xFF MUL NOT AND SWAP1 DUP4 ISZERO ISZERO MUL OR SWAP1 SSTORE POP PUSH1 0xA0 DUP3 ADD MLOAD DUP2 PUSH1 0x2 ADD PUSH1 0x16 PUSH2 0x100 EXP DUP2 SLOAD DUP2 PUSH1 0xFF MUL NOT AND SWAP1 DUP4 ISZERO ISZERO MUL OR SWAP1 SSTORE POP SWAP1 POP POP PUSH1 0x3 CALLER SWAP1 DUP1 PUSH1 0x1 DUP2 SLOAD ADD DUP1 DUP3 SSTORE DUP1 SWAP2 POP POP PUSH1 0x1 SWAP1 SUB SWAP1 PUSH1 0x0 MSTORE PUSH1 0x20 PUSH1 0x0 KECCAK256 ADD PUSH1 0x0 SWAP1 SWAP2 SWAP1 SWAP2 SWAP1 SWAP2 PUSH2 0x100 EXP DUP2 SLOAD DUP2 PUSH20 0xFFFFFFFFFFFFFFFFFFFFFFFFFFFFFFFFFFFFFFFF MUL NOT AND SWAP1 DUP4 PUSH20 0xFFFFFFFFFFFFFFFFFFFFFFFFFFFFFFFFFFFFFFFF AND MUL OR SWAP1 SSTORE POP POP POP POP POP JUMP JUMPDEST PUSH1 0x60 PUSH1 0x0 PUSH1 0x4 DUP2 GT ISZERO PUSH2 0x93E JUMPI PUSH2 0x93D PUSH2 0x184D JUMP JUMPDEST JUMPDEST PUSH1 0x0 DUP1 CALLER PUSH20 0xFFFFFFFFFFFFFFFFFFFFFFFFFFFFFFFFFFFFFFFF AND PUSH20 0xFFFFFFFFFFFFFFFFFFFFFFFFFFFFFFFFFFFFFFFF AND DUP2 MSTORE PUSH1 0x20 ADD SWAP1 DUP2 MSTORE PUSH1 0x20 ADD PUSH1 0x0 KECCAK256 PUSH1 0x0 ADD PUSH1 0x0 SWAP1 SLOAD SWAP1 PUSH2 0x100 EXP SWAP1 DIV PUSH1 0xFF AND PUSH1 0x4 DUP2 GT ISZERO PUSH2 0x99F JUMPI PUSH2 0x99E PUSH2 0x184D JUMP JUMPDEST JUMPDEST EQ PUSH2 0x9DF JUMPI PUSH1 0x40 MLOAD PUSH32 0x8C379A000000000000000000000000000000000000000000000000000000000 DUP2 MSTORE PUSH1 0x4 ADD PUSH2 0x9D6 SWAP1 PUSH2 0x15B4 JUMP JUMPDEST PUSH1 0x40 MLOAD DUP1 SWAP2 SUB SWAP1 REVERT JUMPDEST PUSH1 0x5 DUP1 SLOAD DUP1 PUSH1 0x20 MUL PUSH1 0x20 ADD PUSH1 0x40 MLOAD SWAP1 DUP2 ADD PUSH1 0x40 MSTORE DUP1 SWAP3 SWAP2 SWAP1 DUP2 DUP2 MSTORE PUSH1 0x20 ADD DUP3 DUP1 SLOAD DUP1 ISZERO PUSH2 0xA61 JUMPI PUSH1 0x20 MUL DUP3 ADD SWAP2 SWAP1 PUSH1 0x0 MSTORE PUSH1 0x20 PUSH1 0x0 KECCAK256 SWAP1 JUMPDEST DUP2 PUSH1 0x0 SWAP1 SLOAD SWAP1 PUSH2 0x100 EXP SWAP1 DIV PUSH20 0xFFFFFFFFFFFFFFFFFFFFFFFFFFFFFFFFFFFFFFFF AND PUSH20 0xFFFFFFFFFFFFFFFFFFFFFFFFFFFFFFFFFFFFFFFF AND DUP2 MSTORE PUSH1 0x20 ADD SWAP1 PUSH1 0x1 ADD SWAP1 DUP1 DUP4 GT PUSH2 0xA17 JUMPI JUMPDEST POP POP POP POP POP SWAP1 POP SWAP1 JUMP JUMPDEST PUSH1 0x0 DUP2 PUSH1 0x40 MLOAD PUSH1 0x20 ADD PUSH2 0xA7E SWAP2 SWAP1 PUSH2 0x14E0 JUMP JUMPDEST PUSH1 0x40 MLOAD PUSH1 0x20 DUP2 DUP4 SUB SUB DUP2 MSTORE SWAP1 PUSH1 0x40 MSTORE DUP1 MLOAD SWAP1 PUSH1 0x20 ADD KECCAK256 SWAP1 POP SWAP2 SWAP1 POP JUMP JUMPDEST PUSH1 0x2 PUSH1 0x4 DUP2 GT ISZERO PUSH2 0xAAF JUMPI PUSH2 0xAAE PUSH2 0x184D JUMP JUMPDEST JUMPDEST PUSH1 0x0 DUP1 CALLER PUSH20 0xFFFFFFFFFFFFFFFFFFFFFFFFFFFFFFFFFFFFFFFF AND PUSH20 0xFFFFFFFFFFFFFFFFFFFFFFFFFFFFFFFFFFFFFFFF AND DUP2 MSTORE PUSH1 0x20 ADD SWAP1 DUP2 MSTORE PUSH1 0x20 ADD PUSH1 0x0 KECCAK256 PUSH1 0x0 ADD PUSH1 0x0 SWAP1 SLOAD SWAP1 PUSH2 0x100 EXP SWAP1 DIV PUSH1 0xFF AND PUSH1 0x4 DUP2 GT ISZERO PUSH2 0xB10 JUMPI PUSH2 0xB0F PUSH2 0x184D JUMP JUMPDEST JUMPDEST EQ PUSH2 0xB50 JUMPI PUSH1 0x40 MLOAD PUSH32 0x8C379A000000000000000000000000000000000000000000000000000000000 DUP2 MSTORE PUSH1 0x4 ADD PUSH2 0xB47 SWAP1 PUSH2 0x15D4 JUMP JUMPDEST PUSH1 0x40 MLOAD DUP1 SWAP2 SUB SWAP1 REVERT JUMPDEST PUSH1 0x0 ISZERO ISZERO PUSH1 0x2 PUSH1 0x0 CALLER PUSH20 0xFFFFFFFFFFFFFFFFFFFFFFFFFFFFFFFFFFFFFFFF AND PUSH20 0xFFFFFFFFFFFFFFFFFFFFFFFFFFFFFFFFFFFFFFFF AND DUP2 MSTORE PUSH1 0x20 ADD SWAP1 DUP2 MSTORE PUSH1 0x20 ADD PUSH1 0x0 KECCAK256 PUSH1 0x2 ADD PUSH1 0x15 SWAP1 SLOAD SWAP1 PUSH2 0x100 EXP SWAP1 DIV PUSH1 0xFF AND ISZERO ISZERO EQ PUSH2 0xBE6 JUMPI PUSH1 0x40 MLOAD PUSH32 0x8C379A000000000000000000000000000000000000000000000000000000000 DUP2 MSTORE PUSH1 0x4 ADD PUSH2 0xBDD SWAP1 PUSH2 0x1534 JUMP JUMPDEST PUSH1 0x40 MLOAD DUP1 SWAP2 SUB SWAP1 REVERT JUMPDEST PUSH1 0x0 PUSH1 0x2 PUSH1 0x0 DUP4 PUSH20 0xFFFFFFFFFFFFFFFFFFFFFFFFFFFFFFFFFFFFFFFF AND PUSH20 0xFFFFFFFFFFFFFFFFFFFFFFFFFFFFFFFFFFFFFFFF AND DUP2 MSTORE PUSH1 0x20 ADD SWAP1 DUP2 MSTORE PUSH1 0x20 ADD PUSH1 0x0 KECCAK256 PUSH1 0x2 ADD PUSH1 0x14 PUSH2 0x100 EXP DUP2 SLOAD DUP2 PUSH1 0xFF MUL NOT AND SWAP1 DUP4 ISZERO ISZERO MUL OR SWAP1 SSTORE POP PUSH1 0x3 DUP2 SWAP1 DUP1 PUSH1 0x1 DUP2 SLOAD ADD DUP1 DUP3 SSTORE DUP1 SWAP2 POP POP PUSH1 0x1 SWAP1 SUB SWAP1 PUSH1 0x0 MSTORE PUSH1 0x20 PUSH1 0x0 KECCAK256 ADD PUSH1 0x0 SWAP1 SWAP2 SWAP1 SWAP2 SWAP1 SWAP2 PUSH2 0x100 EXP DUP2 SLOAD DUP2 PUSH20 0xFFFFFFFFFFFFFFFFFFFFFFFFFFFFFFFFFFFFFFFF MUL NOT AND SWAP1 DUP4 PUSH20 0xFFFFFFFFFFFFFFFFFFFFFFFFFFFFFFFFFFFFFFFF AND MUL OR SWAP1 SSTORE POP PUSH1 0x4 DUP2 SWAP1 DUP1 PUSH1 0x1 DUP2 SLOAD ADD DUP1 DUP3 SSTORE DUP1 SWAP2 POP POP PUSH1 0x1 SWAP1 SUB SWAP1 PUSH1 0x0 MSTORE PUSH1 0x20 PUSH1 0x0 KECCAK256 ADD PUSH1 0x0 SWAP1 SWAP2 SWAP1 SWAP2 SWAP1 SWAP2 PUSH2 0x100 EXP DUP2 SLOAD DUP2 PUSH20 0xFFFFFFFFFFFFFFFFFFFFFFFFFFFFFFFFFFFFFFFF MUL NOT AND SWAP1 DUP4 PUSH20 0xFFFFFFFFFFFFFFFFFFFFFFFFFFFFFFFFFFFFFFFF AND MUL OR SWAP1 SSTORE POP PUSH1 0x40 MLOAD DUP1 PUSH1 0xE0 ADD PUSH1 0x40 MSTORE DUP1 PUSH1 0x4 DUP1 DUP2 GT ISZERO PUSH2 0xD25 JUMPI PUSH2 0xD24 PUSH2 0x184D JUMP JUMPDEST JUMPDEST DUP2 MSTORE PUSH1 0x20 ADD PUSH1 0x2 PUSH1 0x0 DUP5 PUSH20 0xFFFFFFFFFFFFFFFFFFFFFFFFFFFFFFFFFFFFFFFF AND PUSH20 0xFFFFFFFFFFFFFFFFFFFFFFFFFFFFFFFFFFFFFFFF AND DUP2 MSTORE PUSH1 0x20 ADD SWAP1 DUP2 MSTORE PUSH1 0x20 ADD PUSH1 0x0 KECCAK256 PUSH1 0x0 ADD DUP1 SLOAD PUSH2 0xD77 SWAP1 PUSH2 0x1772 JUMP JUMPDEST DUP1 PUSH1 0x1F ADD PUSH1 0x20 DUP1 SWAP2 DIV MUL PUSH1 0x20 ADD PUSH1 0x40 MLOAD SWAP1 DUP2 ADD PUSH1 0x40 MSTORE DUP1 SWAP3 SWAP2 SWAP1 DUP2 DUP2 MSTORE PUSH1 0x20 ADD DUP3 DUP1 SLOAD PUSH2 0xDA3 SWAP1 PUSH2 0x1772 JUMP JUMPDEST DUP1 ISZERO PUSH2 0xDF0 JUMPI DUP1 PUSH1 0x1F LT PUSH2 0xDC5 JUMPI PUSH2 0x100 DUP1 DUP4 SLOAD DIV MUL DUP4 MSTORE SWAP2 PUSH1 0x20 ADD SWAP2 PUSH2 0xDF0 JUMP JUMPDEST DUP3 ADD SWAP2 SWAP1 PUSH1 0x0 MSTORE PUSH1 0x20 PUSH1 0x0 KECCAK256 SWAP1 JUMPDEST DUP2 SLOAD DUP2 MSTORE SWAP1 PUSH1 0x1 ADD SWAP1 PUSH1 0x20 ADD DUP1 DUP4 GT PUSH2 0xDD3 JUMPI DUP3 SWAP1 SUB PUSH1 0x1F AND DUP3 ADD SWAP2 JUMPDEST POP POP POP POP POP DUP2 MSTORE PUSH1 0x20 ADD PUSH2 0xE38 PUSH1 0x40 MLOAD DUP1 PUSH1 0x40 ADD PUSH1 0x40 MSTORE DUP1 PUSH1 0x1 DUP2 MSTORE PUSH1 0x20 ADD PUSH32 0x3000000000000000000000000000000000000000000000000000000000000000 DUP2 MSTORE POP PUSH2 0xA6B JUMP JUMPDEST DUP2 MSTORE PUSH1 0x20 ADD PUSH1 0x0 DUP2 MSTORE PUSH1 0x20 ADD PUSH1 0x0 DUP2 MSTORE PUSH1 0x20 ADD PUSH1 0x0 DUP2 MSTORE PUSH1 0x20 ADD PUSH1 0x0 DUP2 MSTORE POP PUSH1 0x0 DUP1 DUP4 PUSH20 0xFFFFFFFFFFFFFFFFFFFFFFFFFFFFFFFFFFFFFFFF AND PUSH20 0xFFFFFFFFFFFFFFFFFFFFFFFFFFFFFFFFFFFFFFFF AND DUP2 MSTORE PUSH1 0x20 ADD SWAP1 DUP2 MSTORE PUSH1 0x20 ADD PUSH1 0x0 KECCAK256 PUSH1 0x0 DUP3 ADD MLOAD DUP2 PUSH1 0x0 ADD PUSH1 0x0 PUSH2 0x100 EXP DUP2 SLOAD DUP2 PUSH1 0xFF MUL NOT AND SWAP1 DUP4 PUSH1 0x4 DUP2 GT ISZERO PUSH2 0xEC0 JUMPI PUSH2 0xEBF PUSH2 0x184D JUMP JUMPDEST JUMPDEST MUL OR SWAP1 SSTORE POP PUSH1 0x20 DUP3 ADD MLOAD DUP2 PUSH1 0x1 ADD SWAP1 DUP1 MLOAD SWAP1 PUSH1 0x20 ADD SWAP1 PUSH2 0xEE1 SWAP3 SWAP2 SWAP1 PUSH2 0x10DA JUMP JUMPDEST POP PUSH1 0x40 DUP3 ADD MLOAD DUP2 PUSH1 0x2 ADD SSTORE PUSH1 0x60 DUP3 ADD MLOAD DUP2 PUSH1 0x3 ADD SSTORE PUSH1 0x80 DUP3 ADD MLOAD DUP2 PUSH1 0x4 ADD SSTORE PUSH1 0xA0 DUP3 ADD MLOAD DUP2 PUSH1 0x5 ADD SSTORE PUSH1 0xC0 DUP3 ADD MLOAD DUP2 PUSH1 0x6 ADD SSTORE SWAP1 POP POP POP JUMP JUMPDEST PUSH1 0x60 PUSH1 0x0 PUSH1 0x4 DUP2 GT ISZERO PUSH2 0xF30 JUMPI PUSH2 0xF2F PUSH2 0x184D JUMP JUMPDEST JUMPDEST PUSH1 0x0 DUP1 CALLER PUSH20 0xFFFFFFFFFFFFFFFFFFFFFFFFFFFFFFFFFFFFFFFF AND PUSH20 0xFFFFFFFFFFFFFFFFFFFFFFFFFFFFFFFFFFFFFFFF AND DUP2 MSTORE PUSH1 0x20 ADD SWAP1 DUP2 MSTORE PUSH1 0x20 ADD PUSH1 0x0 KECCAK256 PUSH1 0x0 ADD PUSH1 0x0 SWAP1 SLOAD SWAP1 PUSH2 0x100 EXP SWAP1 DIV PUSH1 0xFF AND PUSH1 0x4 DUP2 GT ISZERO PUSH2 0xF91 JUMPI PUSH2 0xF90 PUSH2 0x184D JUMP JUMPDEST JUMPDEST EQ DUP1 PUSH2 0x100F JUMPI POP PUSH1 0x2 PUSH1 0x4 DUP2 GT ISZERO PUSH2 0xFAC JUMPI PUSH2 0xFAB PUSH2 0x184D JUMP JUMPDEST JUMPDEST PUSH1 0x0 DUP1 CALLER PUSH20 0xFFFFFFFFFFFFFFFFFFFFFFFFFFFFFFFFFFFFFFFF AND PUSH20 0xFFFFFFFFFFFFFFFFFFFFFFFFFFFFFFFFFFFFFFFF AND DUP2 MSTORE PUSH1 0x20 ADD SWAP1 DUP2 MSTORE PUSH1 0x20 ADD PUSH1 0x0 KECCAK256 PUSH1 0x0 ADD PUSH1 0x0 SWAP1 SLOAD SWAP1 PUSH2 0x100 EXP SWAP1 DIV PUSH1 0xFF AND PUSH1 0x4 DUP2 GT ISZERO PUSH2 0x100D JUMPI PUSH2 0x100C PUSH2 0x184D JUMP JUMPDEST JUMPDEST EQ JUMPDEST PUSH2 0x104E JUMPI PUSH1 0x40 MLOAD PUSH32 0x8C379A000000000000000000000000000000000000000000000000000000000 DUP2 MSTORE PUSH1 0x4 ADD PUSH2 0x1045 SWAP1 PUSH2 0x1594 JUMP JUMPDEST PUSH1 0x40 MLOAD DUP1 SWAP2 SUB SWAP1 REVERT JUMPDEST PUSH1 0x4 DUP1 SLOAD DUP1 PUSH1 0x20 MUL PUSH1 0x20 ADD PUSH1 0x40 MLOAD SWAP1 DUP2 ADD PUSH1 0x40 MSTORE DUP1 SWAP3 SWAP2 SWAP1 DUP2 DUP2 MSTORE PUSH1 0x20 ADD DUP3 DUP1 SLOAD DUP1 ISZERO PUSH2 0x10D0 JUMPI PUSH1 0x20 MUL DUP3 ADD SWAP2 SWAP1 PUSH1 0x0 MSTORE PUSH1 0x20 PUSH1 0x0 KECCAK256 SWAP1 JUMPDEST DUP2 PUSH1 0x0 SWAP1 SLOAD SWAP1 PUSH2 0x100 EXP SWAP1 DIV PUSH20 0xFFFFFFFFFFFFFFFFFFFFFFFFFFFFFFFFFFFFFFFF AND PUSH20 0xFFFFFFFFFFFFFFFFFFFFFFFFFFFFFFFFFFFFFFFF AND DUP2 MSTORE PUSH1 0x20 ADD SWAP1 PUSH1 0x1 ADD SWAP1 DUP1 DUP4 GT PUSH2 0x1086 JUMPI JUMPDEST POP POP POP POP POP SWAP1 POP SWAP1 JUMP JUMPDEST DUP3 DUP1 SLOAD PUSH2 0x10E6 SWAP1 PUSH2 0x1772 JUMP JUMPDEST SWAP1 PUSH1 0x0 MSTORE PUSH1 0x20 PUSH1 0x0 KECCAK256 SWAP1 PUSH1 0x1F ADD PUSH1 0x20 SWAP1 DIV DUP2 ADD SWAP3 DUP3 PUSH2 0x1108 JUMPI PUSH1 0x0 DUP6 SSTORE PUSH2 0x114F JUMP JUMPDEST DUP3 PUSH1 0x1F LT PUSH2 0x1121 JUMPI DUP1 MLOAD PUSH1 0xFF NOT AND DUP4 DUP1 ADD OR DUP6 SSTORE PUSH2 0x114F JUMP JUMPDEST DUP3 DUP1 ADD PUSH1 0x1 ADD DUP6 SSTORE DUP3 ISZERO PUSH2 0x114F JUMPI SWAP2 DUP3 ADD JUMPDEST DUP3 DUP2 GT ISZERO PUSH2 0x114E JUMPI DUP3 MLOAD DUP3 SSTORE SWAP2 PUSH1 0x20 ADD SWAP2 SWAP1 PUSH1 0x1 ADD SWAP1 PUSH2 0x1133 JUMP JUMPDEST JUMPDEST POP SWAP1 POP PUSH2 0x115C SWAP2 SWAP1 PUSH2 0x1160 JUMP JUMPDEST POP SWAP1 JUMP JUMPDEST JUMPDEST DUP1 DUP3 GT ISZERO PUSH2 0x1179 JUMPI PUSH1 0x0 DUP2 PUSH1 0x0 SWAP1 SSTORE POP PUSH1 0x1 ADD PUSH2 0x1161 JUMP JUMPDEST POP SWAP1 JUMP JUMPDEST PUSH1 0x0 PUSH2 0x1190 PUSH2 0x118B DUP5 PUSH2 0x1659 JUMP JUMPDEST PUSH2 0x1634 JUMP JUMPDEST SWAP1 POP DUP3 DUP2 MSTORE PUSH1 0x20 DUP2 ADD DUP5 DUP5 DUP5 ADD GT ISZERO PUSH2 0x11AC JUMPI PUSH2 0x11AB PUSH2 0x190E JUMP JUMPDEST JUMPDEST PUSH2 0x11B7 DUP5 DUP3 DUP6 PUSH2 0x1730 JUMP JUMPDEST POP SWAP4 SWAP3 POP POP POP JUMP JUMPDEST PUSH1 0x0 DUP2 CALLDATALOAD SWAP1 POP PUSH2 0x11CE DUP2 PUSH2 0x1AE8 JUMP JUMPDEST SWAP3 SWAP2 POP POP JUMP JUMPDEST PUSH1 0x0 DUP3 PUSH1 0x1F DUP4 ADD SLT PUSH2 0x11E9 JUMPI PUSH2 0x11E8 PUSH2 0x1909 JUMP JUMPDEST JUMPDEST DUP2 CALLDATALOAD PUSH2 0x11F9 DUP5 DUP3 PUSH1 0x20 DUP7 ADD PUSH2 0x117D JUMP JUMPDEST SWAP2 POP POP SWAP3 SWAP2 POP POP JUMP JUMPDEST PUSH1 0x0 PUSH1 0x20 DUP3 DUP5 SUB SLT ISZERO PUSH2 0x1218 JUMPI PUSH2 0x1217 PUSH2 0x1918 JUMP JUMPDEST JUMPDEST PUSH1 0x0 PUSH2 0x1226 DUP5 DUP3 DUP6 ADD PUSH2 0x11BF JUMP JUMPDEST SWAP2 POP POP SWAP3 SWAP2 POP POP JUMP JUMPDEST PUSH1 0x0 PUSH1 0x20 DUP3 DUP5 SUB SLT ISZERO PUSH2 0x1245 JUMPI PUSH2 0x1244 PUSH2 0x1918 JUMP JUMPDEST JUMPDEST PUSH1 0x0 DUP3 ADD CALLDATALOAD PUSH8 0xFFFFFFFFFFFFFFFF DUP2 GT ISZERO PUSH2 0x1263 JUMPI PUSH2 0x1262 PUSH2 0x1913 JUMP JUMPDEST JUMPDEST PUSH2 0x126F DUP5 DUP3 DUP6 ADD PUSH2 0x11D4 JUMP JUMPDEST SWAP2 POP POP SWAP3 SWAP2 POP POP JUMP JUMPDEST PUSH1 0x0 DUP1 PUSH1 0x0 PUSH1 0x60 DUP5 DUP7 SUB SLT ISZERO PUSH2 0x1291 JUMPI PUSH2 0x1290 PUSH2 0x1918 JUMP JUMPDEST JUMPDEST PUSH1 0x0 DUP5 ADD CALLDATALOAD PUSH8 0xFFFFFFFFFFFFFFFF DUP2 GT ISZERO PUSH2 0x12AF JUMPI PUSH2 0x12AE PUSH2 0x1913 JUMP JUMPDEST JUMPDEST PUSH2 0x12BB DUP7 DUP3 DUP8 ADD PUSH2 0x11D4 JUMP JUMPDEST SWAP4 POP POP PUSH1 0x20 DUP5 ADD CALLDATALOAD PUSH8 0xFFFFFFFFFFFFFFFF DUP2 GT ISZERO PUSH2 0x12DC JUMPI PUSH2 0x12DB PUSH2 0x1913 JUMP JUMPDEST JUMPDEST PUSH2 0x12E8 DUP7 DUP3 DUP8 ADD PUSH2 0x11D4 JUMP JUMPDEST SWAP3 POP POP PUSH1 0x40 PUSH2 0x12F9 DUP7 DUP3 DUP8 ADD PUSH2 0x11BF JUMP JUMPDEST SWAP2 POP POP SWAP3 POP SWAP3 POP SWAP3 JUMP JUMPDEST PUSH1 0x0 PUSH2 0x130F DUP4 DUP4 PUSH2 0x131B JUMP JUMPDEST PUSH1 0x20 DUP4 ADD SWAP1 POP SWAP3 SWAP2 POP POP JUMP JUMPDEST PUSH2 0x1324 DUP2 PUSH2 0x16EA JUMP JUMPDEST DUP3 MSTORE POP POP JUMP JUMPDEST PUSH1 0x0 PUSH2 0x1335 DUP3 PUSH2 0x169A JUMP JUMPDEST PUSH2 0x133F DUP2 DUP6 PUSH2 0x16BD JUMP JUMPDEST SWAP4 POP PUSH2 0x134A DUP4 PUSH2 0x168A JUMP JUMPDEST DUP1 PUSH1 0x0 JUMPDEST DUP4 DUP2 LT ISZERO PUSH2 0x137B JUMPI DUP2 MLOAD PUSH2 0x1362 DUP9 DUP3 PUSH2 0x1303 JUMP JUMPDEST SWAP8 POP PUSH2 0x136D DUP4 PUSH2 0x16B0 JUMP JUMPDEST SWAP3 POP POP PUSH1 0x1 DUP2 ADD SWAP1 POP PUSH2 0x134E JUMP JUMPDEST POP DUP6 SWAP4 POP POP POP POP SWAP3 SWAP2 POP POP JUMP JUMPDEST PUSH2 0x1391 DUP2 PUSH2 0x16FC JUMP JUMPDEST DUP3 MSTORE POP POP JUMP JUMPDEST PUSH1 0x0 PUSH2 0x13A2 DUP3 PUSH2 0x16A5 JUMP JUMPDEST PUSH2 0x13AC DUP2 DUP6 PUSH2 0x16DF JUMP JUMPDEST SWAP4 POP PUSH2 0x13BC DUP2 DUP6 PUSH1 0x20 DUP7 ADD PUSH2 0x173F JUMP JUMPDEST DUP1 DUP5 ADD SWAP2 POP POP SWAP3 SWAP2 POP POP JUMP JUMPDEST PUSH1 0x0 PUSH2 0x13D5 PUSH1 0x1C DUP4 PUSH2 0x16CE JUMP JUMPDEST SWAP2 POP PUSH2 0x13E0 DUP3 PUSH2 0x192E JUMP JUMPDEST PUSH1 0x20 DUP3 ADD SWAP1 POP SWAP2 SWAP1 POP JUMP JUMPDEST PUSH1 0x0 PUSH2 0x13F8 PUSH1 0x18 DUP4 PUSH2 0x16CE JUMP JUMPDEST SWAP2 POP PUSH2 0x1403 DUP3 PUSH2 0x1957 JUMP JUMPDEST PUSH1 0x20 DUP3 ADD SWAP1 POP SWAP2 SWAP1 POP JUMP JUMPDEST PUSH1 0x0 PUSH2 0x141B PUSH1 0x2A DUP4 PUSH2 0x16CE JUMP JUMPDEST SWAP2 POP PUSH2 0x1426 DUP3 PUSH2 0x1980 JUMP JUMPDEST PUSH1 0x40 DUP3 ADD SWAP1 POP SWAP2 SWAP1 POP JUMP JUMPDEST PUSH1 0x0 PUSH2 0x143E PUSH1 0x29 DUP4 PUSH2 0x16CE JUMP JUMPDEST SWAP2 POP PUSH2 0x1449 DUP3 PUSH2 0x19CF JUMP JUMPDEST PUSH1 0x40 DUP3 ADD SWAP1 POP SWAP2 SWAP1 POP JUMP JUMPDEST PUSH1 0x0 PUSH2 0x1461 PUSH1 0xE DUP4 PUSH2 0x16CE JUMP JUMPDEST SWAP2 POP PUSH2 0x146C DUP3 PUSH2 0x1A1E JUMP JUMPDEST PUSH1 0x20 DUP3 ADD SWAP1 POP SWAP2 SWAP1 POP JUMP JUMPDEST PUSH1 0x0 PUSH2 0x1484 PUSH1 0x19 DUP4 PUSH2 0x16CE JUMP JUMPDEST SWAP2 POP PUSH2 0x148F DUP3 PUSH2 0x1A47 JUMP JUMPDEST PUSH1 0x20 DUP3 ADD SWAP1 POP SWAP2 SWAP1 POP JUMP JUMPDEST PUSH1 0x0 PUSH2 0x14A7 PUSH1 0x17 DUP4 PUSH2 0x16CE JUMP JUMPDEST SWAP2 POP PUSH2 0x14B2 DUP3 PUSH2 0x1A70 JUMP JUMPDEST PUSH1 0x20 DUP3 ADD SWAP1 POP SWAP2 SWAP1 POP JUMP JUMPDEST PUSH1 0x0 PUSH2 0x14CA PUSH1 0x37 DUP4 PUSH2 0x16CE JUMP JUMPDEST SWAP2 POP PUSH2 0x14D5 DUP3 PUSH2 0x1A99 JUMP JUMPDEST PUSH1 0x40 DUP3 ADD SWAP1 POP SWAP2 SWAP1 POP JUMP JUMPDEST PUSH1 0x0 PUSH2 0x14EC DUP3 DUP5 PUSH2 0x1397 JUMP JUMPDEST SWAP2 POP DUP2 SWAP1 POP SWAP3 SWAP2 POP POP JUMP JUMPDEST PUSH1 0x0 PUSH1 0x20 DUP3 ADD SWAP1 POP DUP2 DUP2 SUB PUSH1 0x0 DUP4 ADD MSTORE PUSH2 0x1511 DUP2 DUP5 PUSH2 0x132A JUMP JUMPDEST SWAP1 POP SWAP3 SWAP2 POP POP JUMP JUMPDEST PUSH1 0x0 PUSH1 0x20 DUP3 ADD SWAP1 POP PUSH2 0x152E PUSH1 0x0 DUP4 ADD DUP5 PUSH2 0x1388 JUMP JUMPDEST SWAP3 SWAP2 POP POP JUMP JUMPDEST PUSH1 0x0 PUSH1 0x20 DUP3 ADD SWAP1 POP DUP2 DUP2 SUB PUSH1 0x0 DUP4 ADD MSTORE PUSH2 0x154D DUP2 PUSH2 0x13C8 JUMP JUMPDEST SWAP1 POP SWAP2 SWAP1 POP JUMP JUMPDEST PUSH1 0x0 PUSH1 0x20 DUP3 ADD SWAP1 POP DUP2 DUP2 SUB PUSH1 0x0 DUP4 ADD MSTORE PUSH2 0x156D DUP2 PUSH2 0x13EB JUMP JUMPDEST SWAP1 POP SWAP2 SWAP1 POP JUMP JUMPDEST PUSH1 0x0 PUSH1 0x20 DUP3 ADD SWAP1 POP DUP2 DUP2 SUB PUSH1 0x0 DUP4 ADD MSTORE PUSH2 0x158D DUP2 PUSH2 0x140E JUMP JUMPDEST SWAP1 POP SWAP2 SWAP1 POP JUMP JUMPDEST PUSH1 0x0 PUSH1 0x20 DUP3 ADD SWAP1 POP DUP2 DUP2 SUB PUSH1 0x0 DUP4 ADD MSTORE PUSH2 0x15AD DUP2 PUSH2 0x1431 JUMP JUMPDEST SWAP1 POP SWAP2 SWAP1 POP JUMP JUMPDEST PUSH1 0x0 PUSH1 0x20 DUP3 ADD SWAP1 POP DUP2 DUP2 SUB PUSH1 0x0 DUP4 ADD MSTORE PUSH2 0x15CD DUP2 PUSH2 0x1454 JUMP JUMPDEST SWAP1 POP SWAP2 SWAP1 POP JUMP JUMPDEST PUSH1 0x0 PUSH1 0x20 DUP3 ADD SWAP1 POP DUP2 DUP2 SUB PUSH1 0x0 DUP4 ADD MSTORE PUSH2 0x15ED DUP2 PUSH2 0x1477 JUMP JUMPDEST SWAP1 POP SWAP2 SWAP1 POP JUMP JUMPDEST PUSH1 0x0 PUSH1 0x20 DUP3 ADD SWAP1 POP DUP2 DUP2 SUB PUSH1 0x0 DUP4 ADD MSTORE PUSH2 0x160D DUP2 PUSH2 0x149A JUMP JUMPDEST SWAP1 POP SWAP2 SWAP1 POP JUMP JUMPDEST PUSH1 0x0 PUSH1 0x20 DUP3 ADD SWAP1 POP DUP2 DUP2 SUB PUSH1 0x0 DUP4 ADD MSTORE PUSH2 0x162D DUP2 PUSH2 0x14BD JUMP JUMPDEST SWAP1 POP SWAP2 SWAP1 POP JUMP JUMPDEST PUSH1 0x0 PUSH2 0x163E PUSH2 0x164F JUMP JUMPDEST SWAP1 POP PUSH2 0x164A DUP3 DUP3 PUSH2 0x17A4 JUMP JUMPDEST SWAP2 SWAP1 POP JUMP JUMPDEST PUSH1 0x0 PUSH1 0x40 MLOAD SWAP1 POP SWAP1 JUMP JUMPDEST PUSH1 0x0 PUSH8 0xFFFFFFFFFFFFFFFF DUP3 GT ISZERO PUSH2 0x1674 JUMPI PUSH2 0x1673 PUSH2 0x18DA JUMP JUMPDEST JUMPDEST PUSH2 0x167D DUP3 PUSH2 0x191D JUMP JUMPDEST SWAP1 POP PUSH1 0x20 DUP2 ADD SWAP1 POP SWAP2 SWAP1 POP JUMP JUMPDEST PUSH1 0x0 DUP2 SWAP1 POP PUSH1 0x20 DUP3 ADD SWAP1 POP SWAP2 SWAP1 POP JUMP JUMPDEST PUSH1 0x0 DUP2 MLOAD SWAP1 POP SWAP2 SWAP1 POP JUMP JUMPDEST PUSH1 0x0 DUP2 MLOAD SWAP1 POP SWAP2 SWAP1 POP JUMP JUMPDEST PUSH1 0x0 PUSH1 0x20 DUP3 ADD SWAP1 POP SWAP2 SWAP1 POP JUMP JUMPDEST PUSH1 0x0 DUP3 DUP3 MSTORE PUSH1 0x20 DUP3 ADD SWAP1 POP SWAP3 SWAP2 POP POP JUMP JUMPDEST PUSH1 0x0 DUP3 DUP3 MSTORE PUSH1 0x20 DUP3 ADD SWAP1 POP SWAP3 SWAP2 POP POP JUMP JUMPDEST PUSH1 0x0 DUP2 SWAP1 POP SWAP3 SWAP2 POP POP JUMP JUMPDEST PUSH1 0x0 PUSH2 0x16F5 DUP3 PUSH2 0x1706 JUMP JUMPDEST SWAP1 POP SWAP2 SWAP1 POP JUMP JUMPDEST PUSH1 0x0 DUP2 SWAP1 POP SWAP2 SWAP1 POP JUMP JUMPDEST PUSH1 0x0 PUSH20 0xFFFFFFFFFFFFFFFFFFFFFFFFFFFFFFFFFFFFFFFF DUP3 AND SWAP1 POP SWAP2 SWAP1 POP JUMP JUMPDEST PUSH1 0x0 DUP2 SWAP1 POP SWAP2 SWAP1 POP JUMP JUMPDEST DUP3 DUP2 DUP4 CALLDATACOPY PUSH1 0x0 DUP4 DUP4 ADD MSTORE POP POP POP JUMP JUMPDEST PUSH1 0x0 JUMPDEST DUP4 DUP2 LT ISZERO PUSH2 0x175D JUMPI DUP1 DUP3 ADD MLOAD DUP2 DUP5 ADD MSTORE PUSH1 0x20 DUP2 ADD SWAP1 POP PUSH2 0x1742 JUMP JUMPDEST DUP4 DUP2 GT ISZERO PUSH2 0x176C JUMPI PUSH1 0x0 DUP5 DUP5 ADD MSTORE JUMPDEST POP POP POP POP JUMP JUMPDEST PUSH1 0x0 PUSH1 0x2 DUP3 DIV SWAP1 POP PUSH1 0x1 DUP3 AND DUP1 PUSH2 0x178A JUMPI PUSH1 0x7F DUP3 AND SWAP2 POP JUMPDEST PUSH1 0x20 DUP3 LT DUP2 EQ ISZERO PUSH2 0x179E JUMPI PUSH2 0x179D PUSH2 0x187C JUMP JUMPDEST JUMPDEST POP SWAP2 SWAP1 POP JUMP JUMPDEST PUSH2 0x17AD DUP3 PUSH2 0x191D JUMP JUMPDEST DUP2 ADD DUP2 DUP2 LT PUSH8 0xFFFFFFFFFFFFFFFF DUP3 GT OR ISZERO PUSH2 0x17CC JUMPI PUSH2 0x17CB PUSH2 0x18DA JUMP JUMPDEST JUMPDEST DUP1 PUSH1 0x40 MSTORE POP POP POP JUMP JUMPDEST PUSH1 0x0 PUSH2 0x17E0 DUP3 PUSH2 0x1726 JUMP JUMPDEST SWAP2 POP PUSH32 0xFFFFFFFFFFFFFFFFFFFFFFFFFFFFFFFFFFFFFFFFFFFFFFFFFFFFFFFFFFFFFFFF DUP3 EQ ISZERO PUSH2 0x1813 JUMPI PUSH2 0x1812 PUSH2 0x181E JUMP JUMPDEST JUMPDEST PUSH1 0x1 DUP3 ADD SWAP1 POP SWAP2 SWAP1 POP JUMP JUMPDEST PUSH32 0x4E487B7100000000000000000000000000000000000000000000000000000000 PUSH1 0x0 MSTORE PUSH1 0x11 PUSH1 0x4 MSTORE PUSH1 0x24 PUSH1 0x0 REVERT JUMPDEST PUSH32 0x4E487B7100000000000000000000000000000000000000000000000000000000 PUSH1 0x0 MSTORE PUSH1 0x21 PUSH1 0x4 MSTORE PUSH1 0x24 PUSH1 0x0 REVERT JUMPDEST PUSH32 0x4E487B7100000000000000000000000000000000000000000000000000000000 PUSH1 0x0 MSTORE PUSH1 0x22 PUSH1 0x4 MSTORE PUSH1 0x24 PUSH1 0x0 REVERT JUMPDEST PUSH32 0x4E487B7100000000000000000000000000000000000000000000000000000000 PUSH1 0x0 MSTORE PUSH1 0x32 PUSH1 0x4 MSTORE PUSH1 0x24 PUSH1 0x0 REVERT JUMPDEST PUSH32 0x4E487B7100000000000000000000000000000000000000000000000000000000 PUSH1 0x0 MSTORE PUSH1 0x41 PUSH1 0x4 MSTORE PUSH1 0x24 PUSH1 0x0 REVERT JUMPDEST PUSH1 0x0 DUP1 REVERT JUMPDEST PUSH1 0x0 DUP1 REVERT JUMPDEST PUSH1 0x0 DUP1 REVERT JUMPDEST PUSH1 0x0 DUP1 REVERT JUMPDEST PUSH1 0x0 PUSH1 0x1F NOT PUSH1 0x1F DUP4 ADD AND SWAP1 POP SWAP2 SWAP1 POP JUMP JUMPDEST PUSH32 0x52657669657720746865206170706C69636174696F6E20666972737400000000 PUSH1 0x0 DUP3 ADD MSTORE POP JUMP JUMPDEST PUSH32 0x4170706C69636174696F6E20616C72656164792073656E740000000000000000 PUSH1 0x0 DUP3 ADD MSTORE POP JUMP JUMPDEST PUSH32 0x596F7572206170706C69636174696F6E2068617320616C726561647920626565 PUSH1 0x0 DUP3 ADD MSTORE PUSH32 0x6E2072656A656374656400000000000000000000000000000000000000000000 PUSH1 0x20 DUP3 ADD MSTORE POP JUMP JUMPDEST PUSH32 0x596F7520617265206E6F7420746865206F776E6572206F722070726976617465 PUSH1 0x0 DUP3 ADD MSTORE PUSH32 0x2070726F76696465720000000000000000000000000000000000000000000000 PUSH1 0x20 DUP3 ADD MSTORE POP JUMP JUMPDEST PUSH32 0x596F7572206E6F742061646D696E000000000000000000000000000000000000 PUSH1 0x0 DUP3 ADD MSTORE POP JUMP JUMPDEST PUSH32 0x596F7572206E6F7420507269766174652070726F766964657200000000000000 PUSH1 0x0 DUP3 ADD MSTORE POP JUMP JUMPDEST PUSH32 0x4170706C69636174696F6E20706861736520656E646564000000000000000000 PUSH1 0x0 DUP3 ADD MSTORE POP JUMP JUMPDEST PUSH32 0x596F752063616E27742073656E6420616E206170706C69636174696F6E20746F PUSH1 0x0 DUP3 ADD MSTORE PUSH32 0x20736F6D656F6E6520656C736527732061646472657373000000000000000000 PUSH1 0x20 DUP3 ADD MSTORE POP JUMP JUMPDEST PUSH2 0x1AF1 DUP2 PUSH2 0x16EA JUMP JUMPDEST DUP2 EQ PUSH2 0x1AFC JUMPI PUSH1 0x0 DUP1 REVERT JUMPDEST POP JUMP INVALID LOG2 PUSH5 0x6970667358 0x22 SLT KECCAK256 0xBC SUB SWAP5 CALLER 0xC9 SDIV 0xBA DIFFICULTY 0xB9 0xD5 0xF8 JUMPI MLOAD DUP15 SWAP9 0xB9 SDIV SMOD 0xEF LOG2 SWAP13 0xAA SWAP3 0xB0 PUSH21 0x29376BC2EFAE8164736F6C63430008070033000000 "
				},
				"gasEstimates": {
					"creation": {
						"codeDepositCost": "1393000",
						"executionCost": "1451",
						"totalCost": "1394451"
					},
					"external": {
						"acceptApplication(address)": "infinite",
						"application(string,string,address)": "infinite",
						"deviationApplication(address)": "29491",
						"getApplicationAmountAdr()": "infinite",
						"get_blackList()": "infinite",
						"get_keccak256(string)": "infinite",
						"get_whiteList()": "infinite"
					}
				},
				"methodIdentifiers": {
					"acceptApplication(address)": "a678b65b",
					"application(string,string,address)": "785963c3",
					"deviationApplication(address)": "1d3eea35",
					"getApplicationAmountAdr()": "686c4cea",
					"get_blackList()": "7f89128f",
					"get_keccak256(string)": "8e4f8c6b",
					"get_whiteList()": "c10e3911"
				}
			},
			"storageLayout": {
				"storage": [
					{
						"astId": 449,
						"contract": "Documents/GitHub/contract-token-cryptoMonster/backend/components/PhasePrivate.sol:PhasePrivate",
						"label": "structUsers_",
						"offset": 0,
						"slot": "0",
						"type": "t_mapping(t_address,t_struct(structUser)444_storage)"
					},
					{
						"astId": 459,
						"contract": "Documents/GitHub/contract-token-cryptoMonster/backend/components/PhasePrivate.sol:PhasePrivate",
						"label": "structPhases_",
						"offset": 0,
						"slot": "1",
						"type": "t_mapping(t_address,t_struct(structPhase)454_storage)"
					},
					{
						"astId": 477,
						"contract": "Documents/GitHub/contract-token-cryptoMonster/backend/components/PhasePrivate.sol:PhasePrivate",
						"label": "strucApplications_",
						"offset": 0,
						"slot": "2",
						"type": "t_mapping(t_address,t_struct(structApplication)472_storage)"
					},
					{
						"astId": 480,
						"contract": "Documents/GitHub/contract-token-cryptoMonster/backend/components/PhasePrivate.sol:PhasePrivate",
						"label": "structApplicationsAmountAdr",
						"offset": 0,
						"slot": "3",
						"type": "t_array(t_address)dyn_storage"
					},
					{
						"astId": 483,
						"contract": "Documents/GitHub/contract-token-cryptoMonster/backend/components/PhasePrivate.sol:PhasePrivate",
						"label": "whiteList",
						"offset": 0,
						"slot": "4",
						"type": "t_array(t_address)dyn_storage"
					},
					{
						"astId": 486,
						"contract": "Documents/GitHub/contract-token-cryptoMonster/backend/components/PhasePrivate.sol:PhasePrivate",
						"label": "blackList",
						"offset": 0,
						"slot": "5",
						"type": "t_array(t_address)dyn_storage"
					}
				],
				"types": {
					"t_address": {
						"encoding": "inplace",
						"label": "address",
						"numberOfBytes": "20"
					},
					"t_array(t_address)dyn_storage": {
						"base": "t_address",
						"encoding": "dynamic_array",
						"label": "address[]",
						"numberOfBytes": "32"
					},
					"t_bool": {
						"encoding": "inplace",
						"label": "bool",
						"numberOfBytes": "1"
					},
					"t_bytes32": {
						"encoding": "inplace",
						"label": "bytes32",
						"numberOfBytes": "32"
					},
					"t_enum(Role)428": {
						"encoding": "inplace",
						"label": "enum structures.Role",
						"numberOfBytes": "1"
					},
					"t_mapping(t_address,t_struct(structApplication)472_storage)": {
						"encoding": "mapping",
						"key": "t_address",
						"label": "mapping(address => struct structures.structApplication)",
						"numberOfBytes": "32",
						"value": "t_struct(structApplication)472_storage"
					},
					"t_mapping(t_address,t_struct(structPhase)454_storage)": {
						"encoding": "mapping",
						"key": "t_address",
						"label": "mapping(address => struct structures.structPhase)",
						"numberOfBytes": "32",
						"value": "t_struct(structPhase)454_storage"
					},
					"t_mapping(t_address,t_struct(structUser)444_storage)": {
						"encoding": "mapping",
						"key": "t_address",
						"label": "mapping(address => struct structures.structUser)",
						"numberOfBytes": "32",
						"value": "t_struct(structUser)444_storage"
					},
					"t_string_storage": {
						"encoding": "bytes",
						"label": "string",
						"numberOfBytes": "32"
					},
					"t_struct(structApplication)472_storage": {
						"encoding": "inplace",
						"label": "struct structures.structApplication",
						"members": [
							{
								"astId": 461,
								"contract": "Documents/GitHub/contract-token-cryptoMonster/backend/components/PhasePrivate.sol:PhasePrivate",
								"label": "name",
								"offset": 0,
								"slot": "0",
								"type": "t_string_storage"
							},
							{
								"astId": 463,
								"contract": "Documents/GitHub/contract-token-cryptoMonster/backend/components/PhasePrivate.sol:PhasePrivate",
								"label": "contactForCommunication",
								"offset": 0,
								"slot": "1",
								"type": "t_string_storage"
							},
							{
								"astId": 465,
								"contract": "Documents/GitHub/contract-token-cryptoMonster/backend/components/PhasePrivate.sol:PhasePrivate",
								"label": "userAdr",
								"offset": 0,
								"slot": "2",
								"type": "t_address"
							},
							{
								"astId": 467,
								"contract": "Documents/GitHub/contract-token-cryptoMonster/backend/components/PhasePrivate.sol:PhasePrivate",
								"label": "status",
								"offset": 20,
								"slot": "2",
								"type": "t_bool"
							},
							{
								"astId": 469,
								"contract": "Documents/GitHub/contract-token-cryptoMonster/backend/components/PhasePrivate.sol:PhasePrivate",
								"label": "reviewed",
								"offset": 21,
								"slot": "2",
								"type": "t_bool"
							},
							{
								"astId": 471,
								"contract": "Documents/GitHub/contract-token-cryptoMonster/backend/components/PhasePrivate.sol:PhasePrivate",
								"label": "exist",
								"offset": 22,
								"slot": "2",
								"type": "t_bool"
							}
						],
						"numberOfBytes": "96"
					},
					"t_struct(structPhase)454_storage": {
						"encoding": "inplace",
						"label": "struct structures.structPhase",
						"members": [
							{
								"astId": 451,
								"contract": "Documents/GitHub/contract-token-cryptoMonster/backend/components/PhasePrivate.sol:PhasePrivate",
								"label": "statusPhase",
								"offset": 0,
								"slot": "0",
								"type": "t_bool"
							},
							{
								"astId": 453,
								"contract": "Documents/GitHub/contract-token-cryptoMonster/backend/components/PhasePrivate.sol:PhasePrivate",
								"label": "reviewed",
								"offset": 1,
								"slot": "0",
								"type": "t_bool"
							}
						],
						"numberOfBytes": "32"
					},
					"t_struct(structUser)444_storage": {
						"encoding": "inplace",
						"label": "struct structures.structUser",
						"members": [
							{
								"astId": 431,
								"contract": "Documents/GitHub/contract-token-cryptoMonster/backend/components/PhasePrivate.sol:PhasePrivate",
								"label": "role",
								"offset": 0,
								"slot": "0",
								"type": "t_enum(Role)428"
							},
							{
								"astId": 433,
								"contract": "Documents/GitHub/contract-token-cryptoMonster/backend/components/PhasePrivate.sol:PhasePrivate",
								"label": "login",
								"offset": 0,
								"slot": "1",
								"type": "t_string_storage"
							},
							{
								"astId": 435,
								"contract": "Documents/GitHub/contract-token-cryptoMonster/backend/components/PhasePrivate.sol:PhasePrivate",
								"label": "password",
								"offset": 0,
								"slot": "2",
								"type": "t_bytes32"
							},
							{
								"astId": 437,
								"contract": "Documents/GitHub/contract-token-cryptoMonster/backend/components/PhasePrivate.sol:PhasePrivate",
								"label": "balance_overall",
								"offset": 0,
								"slot": "3",
								"type": "t_uint256"
							},
							{
								"astId": 439,
								"contract": "Documents/GitHub/contract-token-cryptoMonster/backend/components/PhasePrivate.sol:PhasePrivate",
								"label": "balance_seed",
								"offset": 0,
								"slot": "4",
								"type": "t_uint256"
							},
							{
								"astId": 441,
								"contract": "Documents/GitHub/contract-token-cryptoMonster/backend/components/PhasePrivate.sol:PhasePrivate",
								"label": "balance_private",
								"offset": 0,
								"slot": "5",
								"type": "t_uint256"
							},
							{
								"astId": 443,
								"contract": "Documents/GitHub/contract-token-cryptoMonster/backend/components/PhasePrivate.sol:PhasePrivate",
								"label": "balance_public",
								"offset": 0,
								"slot": "6",
								"type": "t_uint256"
							}
						],
						"numberOfBytes": "224"
					},
					"t_uint256": {
						"encoding": "inplace",
						"label": "uint256",
						"numberOfBytes": "32"
					}
				}
			},
			"userdoc": {
				"kind": "user",
				"methods": {},
				"version": 1
			}
		}
	}
}