{
	"GitHub/contract-token-cryptoMonster/backend/components/PhasePrivate.sol": {
		"PhasePrivate": {
			"abi": [
				{
					"inputs": [
						{
							"internalType": "address",
							"name": "_userAdr",
							"type": "address"
						}
					],
					"name": "acceptApplication",
					"outputs": [],
					"stateMutability": "nonpayable",
					"type": "function"
				},
				{
					"inputs": [
						{
							"internalType": "address",
							"name": "_userAdr",
							"type": "address"
						}
					],
					"name": "addBlackList",
					"outputs": [],
					"stateMutability": "nonpayable",
					"type": "function"
				},
				{
					"inputs": [
						{
							"internalType": "string",
							"name": "_name",
							"type": "string"
						},
						{
							"internalType": "string",
							"name": "_contactForCommunication",
							"type": "string"
						},
						{
							"internalType": "address",
							"name": "_userAdr",
							"type": "address"
						}
					],
					"name": "application",
					"outputs": [],
					"stateMutability": "nonpayable",
					"type": "function"
				},
				{
					"inputs": [
						{
							"internalType": "address",
							"name": "_userAdr",
							"type": "address"
						}
					],
					"name": "deviationApplication",
					"outputs": [],
					"stateMutability": "nonpayable",
					"type": "function"
				},
				{
					"inputs": [],
					"name": "getApplicationAmountAdr",
					"outputs": [
						{
							"internalType": "address[]",
							"name": "",
							"type": "address[]"
						}
					],
					"stateMutability": "view",
					"type": "function"
				},
				{
					"inputs": [],
					"name": "getApplicationNotReviewed",
					"outputs": [
						{
							"internalType": "address[]",
							"name": "",
							"type": "address[]"
						}
					],
					"stateMutability": "view",
					"type": "function"
				},
				{
					"inputs": [
						{
							"internalType": "string",
							"name": "_hash",
							"type": "string"
						}
					],
					"name": "get_keccak256",
					"outputs": [
						{
							"internalType": "bytes32",
							"name": "",
							"type": "bytes32"
						}
					],
					"stateMutability": "pure",
					"type": "function"
				},
				{
					"inputs": [
						{
							"internalType": "address",
							"name": "_userAdr",
							"type": "address"
						}
					],
					"name": "viewApplication",
					"outputs": [
						{
							"components": [
								{
									"internalType": "string",
									"name": "name",
									"type": "string"
								},
								{
									"internalType": "string",
									"name": "contactForCommunication",
									"type": "string"
								},
								{
									"internalType": "address",
									"name": "userAdr",
									"type": "address"
								},
								{
									"internalType": "bool",
									"name": "status",
									"type": "bool"
								},
								{
									"internalType": "bool",
									"name": "reviewed",
									"type": "bool"
								},
								{
									"internalType": "bool",
									"name": "exist",
									"type": "bool"
								}
							],
							"internalType": "struct structures.structApplication",
							"name": "",
							"type": "tuple"
						}
					],
					"stateMutability": "nonpayable",
					"type": "function"
				}
			],
			"devdoc": {
				"kind": "dev",
				"methods": {},
				"version": 1
			},
			"evm": {
				"assembly": "    /* \"GitHub/contract-token-cryptoMonster/backend/components/PhasePrivate.sol\":157:5375  contract PhasePrivate is modifireFunc {\r... */\n  mstore(0x40, 0x80)\n  callvalue\n  dup1\n  iszero\n  tag_1\n  jumpi\n  0x00\n  dup1\n  revert\ntag_1:\n  pop\n  dataSize(sub_0)\n  dup1\n  dataOffset(sub_0)\n  0x00\n  codecopy\n  0x00\n  return\nstop\n\nsub_0: assembly {\n        /* \"GitHub/contract-token-cryptoMonster/backend/components/PhasePrivate.sol\":157:5375  contract PhasePrivate is modifireFunc {\r... */\n      mstore(0x40, 0x80)\n      callvalue\n      dup1\n      iszero\n      tag_1\n      jumpi\n      0x00\n      dup1\n      revert\n    tag_1:\n      pop\n      jumpi(tag_2, lt(calldatasize, 0x04))\n      shr(0xe0, calldataload(0x00))\n      dup1\n      0x76eada91\n      gt\n      tag_11\n      jumpi\n      dup1\n      0x76eada91\n      eq\n      tag_7\n      jumpi\n      dup1\n      0x785963c3\n      eq\n      tag_8\n      jumpi\n      dup1\n      0x8e4f8c6b\n      eq\n      tag_9\n      jumpi\n      dup1\n      0xa678b65b\n      eq\n      tag_10\n      jumpi\n      jump(tag_2)\n    tag_11:\n      dup1\n      0x0ecb93c0\n      eq\n      tag_3\n      jumpi\n      dup1\n      0x1d3eea35\n      eq\n      tag_4\n      jumpi\n      dup1\n      0x506a222c\n      eq\n      tag_5\n      jumpi\n      dup1\n      0x686c4cea\n      eq\n      tag_6\n      jumpi\n    tag_2:\n      0x00\n      dup1\n      revert\n        /* \"GitHub/contract-token-cryptoMonster/backend/components/PhasePrivate.sol\":5190:5372  function addBlackList (address _userAdr) public onlyOwner {\r... */\n    tag_3:\n      tag_12\n      0x04\n      dup1\n      calldatasize\n      sub\n      dup2\n      add\n      swap1\n      tag_13\n      swap2\n      swap1\n      tag_14\n      jump\t// in\n    tag_13:\n      tag_15\n      jump\t// in\n    tag_12:\n      stop\n        /* \"GitHub/contract-token-cryptoMonster/backend/components/PhasePrivate.sol\":4757:5085  function deviationApplication (address _userAdr) public onlyPrivateProvider {\r... */\n    tag_4:\n      tag_16\n      0x04\n      dup1\n      calldatasize\n      sub\n      dup2\n      add\n      swap1\n      tag_17\n      swap2\n      swap1\n      tag_14\n      jump\t// in\n    tag_17:\n      tag_18\n      jump\t// in\n    tag_16:\n      stop\n        /* \"GitHub/contract-token-cryptoMonster/backend/components/PhasePrivate.sol\":2349:3539  function getApplicationNotReviewed () public onlyPrivateProvider view returns (address[] memory) {\r... */\n    tag_5:\n      tag_19\n      tag_20\n      jump\t// in\n    tag_19:\n      mload(0x40)\n      tag_21\n      swap2\n      swap1\n      tag_22\n      jump\t// in\n    tag_21:\n      mload(0x40)\n      dup1\n      swap2\n      sub\n      swap1\n      return\n        /* \"GitHub/contract-token-cryptoMonster/backend/components/PhasePrivate.sol\":1959:2204  function getApplicationAmountAdr () public onlyPrivateProvider view returns (address[] memory) {\r... */\n    tag_6:\n      tag_23\n      tag_24\n      jump\t// in\n    tag_23:\n      mload(0x40)\n      tag_25\n      swap2\n      swap1\n      tag_22\n      jump\t// in\n    tag_25:\n      mload(0x40)\n      dup1\n      swap2\n      sub\n      swap1\n      return\n        /* \"GitHub/contract-token-cryptoMonster/backend/components/PhasePrivate.sol\":3660:4039  function viewApplication (address _userAdr) public onlyPrivateProvider returns (structApplication memory) {\r... */\n    tag_7:\n      tag_26\n      0x04\n      dup1\n      calldatasize\n      sub\n      dup2\n      add\n      swap1\n      tag_27\n      swap2\n      swap1\n      tag_14\n      jump\t// in\n    tag_27:\n      tag_28\n      jump\t// in\n    tag_26:\n      mload(0x40)\n      tag_29\n      swap2\n      swap1\n      tag_30\n      jump\t// in\n    tag_29:\n      mload(0x40)\n      dup1\n      swap2\n      sub\n      swap1\n      return\n        /* \"GitHub/contract-token-cryptoMonster/backend/components/PhasePrivate.sol\":295:1845  function application(string memory _name, string memory _contactForCommunication, address _userAdr) public {\r... */\n    tag_8:\n      tag_31\n      0x04\n      dup1\n      calldatasize\n      sub\n      dup2\n      add\n      swap1\n      tag_32\n      swap2\n      swap1\n      tag_33\n      jump\t// in\n    tag_32:\n      tag_34\n      jump\t// in\n    tag_31:\n      stop\n        /* \"GitHub/contract-token-cryptoMonster/backend/shared/helpers/helpresFunc.sol\":147:285  function get_keccak256(string memory _hash) public pure returns(bytes32) {\r... */\n    tag_9:\n      tag_35\n      0x04\n      dup1\n      calldatasize\n      sub\n      dup2\n      add\n      swap1\n      tag_36\n      swap2\n      swap1\n      tag_37\n      jump\t// in\n    tag_36:\n      tag_38\n      jump\t// in\n    tag_35:\n      mload(0x40)\n      tag_39\n      swap2\n      swap1\n      tag_40\n      jump\t// in\n    tag_39:\n      mload(0x40)\n      dup1\n      swap2\n      sub\n      swap1\n      return\n        /* \"GitHub/contract-token-cryptoMonster/backend/components/PhasePrivate.sol\":4115:4673  function acceptApplication (address _userAdr) public onlyPrivateProvider {\r... */\n    tag_10:\n      tag_41\n      0x04\n      dup1\n      calldatasize\n      sub\n      dup2\n      add\n      swap1\n      tag_42\n      swap2\n      swap1\n      tag_14\n      jump\t// in\n    tag_42:\n      tag_43\n      jump\t// in\n    tag_41:\n      stop\n        /* \"GitHub/contract-token-cryptoMonster/backend/components/PhasePrivate.sol\":5190:5372  function addBlackList (address _userAdr) public onlyOwner {\r... */\n    tag_15:\n        /* \"GitHub/contract-token-cryptoMonster/backend/shared/helpers/modifireFunc.sol\":320:337  Role.SYSTEM_OWNER */\n      0x00\n        /* \"GitHub/contract-token-cryptoMonster/backend/shared/helpers/modifireFunc.sol\":287:337  structUsers_[msg.sender].role == Role.SYSTEM_OWNER */\n      0x04\n      dup2\n      gt\n      iszero\n      tag_45\n      jumpi\n      tag_46\n      tag_47\n      jump\t// in\n    tag_46:\n    tag_45:\n        /* \"GitHub/contract-token-cryptoMonster/backend/shared/helpers/modifireFunc.sol\":287:299  structUsers_ */\n      0x00\n        /* \"GitHub/contract-token-cryptoMonster/backend/shared/helpers/modifireFunc.sol\":287:311  structUsers_[msg.sender] */\n      dup1\n        /* \"GitHub/contract-token-cryptoMonster/backend/shared/helpers/modifireFunc.sol\":300:310  msg.sender */\n      caller\n        /* \"GitHub/contract-token-cryptoMonster/backend/shared/helpers/modifireFunc.sol\":287:311  structUsers_[msg.sender] */\n      0xffffffffffffffffffffffffffffffffffffffff\n      and\n      0xffffffffffffffffffffffffffffffffffffffff\n      and\n      dup2\n      mstore\n      0x20\n      add\n      swap1\n      dup2\n      mstore\n      0x20\n      add\n      0x00\n      keccak256\n        /* \"GitHub/contract-token-cryptoMonster/backend/shared/helpers/modifireFunc.sol\":287:316  structUsers_[msg.sender].role */\n      0x00\n      add\n      0x00\n      swap1\n      sload\n      swap1\n      0x0100\n      exp\n      swap1\n      div\n      0xff\n      and\n        /* \"GitHub/contract-token-cryptoMonster/backend/shared/helpers/modifireFunc.sol\":287:337  structUsers_[msg.sender].role == Role.SYSTEM_OWNER */\n      0x04\n      dup2\n      gt\n      iszero\n      tag_48\n      jumpi\n      tag_49\n      tag_47\n      jump\t// in\n    tag_49:\n    tag_48:\n      eq\n        /* \"GitHub/contract-token-cryptoMonster/backend/shared/helpers/modifireFunc.sol\":279:356  require(structUsers_[msg.sender].role == Role.SYSTEM_OWNER, \"Your not admin\") */\n      tag_50\n      jumpi\n      mload(0x40)\n      0x08c379a000000000000000000000000000000000000000000000000000000000\n      dup2\n      mstore\n      0x04\n      add\n      tag_51\n      swap1\n      tag_52\n      jump\t// in\n    tag_51:\n      mload(0x40)\n      dup1\n      swap2\n      sub\n      swap1\n      revert\n    tag_50:\n        /* \"GitHub/contract-token-cryptoMonster/backend/components/PhasePrivate.sol\":5259:5268  blackList */\n      0x05\n        /* \"GitHub/contract-token-cryptoMonster/backend/components/PhasePrivate.sol\":5274:5282  _userAdr */\n      dup2\n        /* \"GitHub/contract-token-cryptoMonster/backend/components/PhasePrivate.sol\":5259:5283  blackList.push(_userAdr) */\n      swap1\n      dup1\n      0x01\n      dup2\n      sload\n      add\n      dup1\n      dup3\n      sstore\n      dup1\n      swap2\n      pop\n      pop\n      0x01\n      swap1\n      sub\n      swap1\n      0x00\n      mstore\n      keccak256(0x00, 0x20)\n      add\n      0x00\n      swap1\n      swap2\n      swap1\n      swap2\n      swap1\n      swap2\n      0x0100\n      exp\n      dup2\n      sload\n      dup2\n      0xffffffffffffffffffffffffffffffffffffffff\n      mul\n      not\n      and\n      swap1\n      dup4\n      0xffffffffffffffffffffffffffffffffffffffff\n      and\n      mul\n      or\n      swap1\n      sstore\n      pop\n        /* \"GitHub/contract-token-cryptoMonster/backend/components/PhasePrivate.sol\":5190:5372  function addBlackList (address _userAdr) public onlyOwner {\r... */\n      pop\n      jump\t// out\n        /* \"GitHub/contract-token-cryptoMonster/backend/components/PhasePrivate.sol\":4757:5085  function deviationApplication (address _userAdr) public onlyPrivateProvider {\r... */\n    tag_18:\n        /* \"GitHub/contract-token-cryptoMonster/backend/shared/helpers/modifireFunc.sol\":566:585  Role.SYSTEM_PRIVATE */\n      0x02\n        /* \"GitHub/contract-token-cryptoMonster/backend/shared/helpers/modifireFunc.sol\":533:585  structUsers_[msg.sender].role == Role.SYSTEM_PRIVATE */\n      0x04\n      dup2\n      gt\n      iszero\n      tag_56\n      jumpi\n      tag_57\n      tag_47\n      jump\t// in\n    tag_57:\n    tag_56:\n        /* \"GitHub/contract-token-cryptoMonster/backend/shared/helpers/modifireFunc.sol\":533:545  structUsers_ */\n      0x00\n        /* \"GitHub/contract-token-cryptoMonster/backend/shared/helpers/modifireFunc.sol\":533:557  structUsers_[msg.sender] */\n      dup1\n        /* \"GitHub/contract-token-cryptoMonster/backend/shared/helpers/modifireFunc.sol\":546:556  msg.sender */\n      caller\n        /* \"GitHub/contract-token-cryptoMonster/backend/shared/helpers/modifireFunc.sol\":533:557  structUsers_[msg.sender] */\n      0xffffffffffffffffffffffffffffffffffffffff\n      and\n      0xffffffffffffffffffffffffffffffffffffffff\n      and\n      dup2\n      mstore\n      0x20\n      add\n      swap1\n      dup2\n      mstore\n      0x20\n      add\n      0x00\n      keccak256\n        /* \"GitHub/contract-token-cryptoMonster/backend/shared/helpers/modifireFunc.sol\":533:562  structUsers_[msg.sender].role */\n      0x00\n      add\n      0x00\n      swap1\n      sload\n      swap1\n      0x0100\n      exp\n      swap1\n      div\n      0xff\n      and\n        /* \"GitHub/contract-token-cryptoMonster/backend/shared/helpers/modifireFunc.sol\":533:585  structUsers_[msg.sender].role == Role.SYSTEM_PRIVATE */\n      0x04\n      dup2\n      gt\n      iszero\n      tag_58\n      jumpi\n      tag_59\n      tag_47\n      jump\t// in\n    tag_59:\n    tag_58:\n      eq\n        /* \"GitHub/contract-token-cryptoMonster/backend/shared/helpers/modifireFunc.sol\":525:615  require(structUsers_[msg.sender].role == Role.SYSTEM_PRIVATE, \"Your not Private provider\") */\n      tag_60\n      jumpi\n      mload(0x40)\n      0x08c379a000000000000000000000000000000000000000000000000000000000\n      dup2\n      mstore\n      0x04\n      add\n      tag_61\n      swap1\n      tag_62\n      jump\t// in\n    tag_61:\n      mload(0x40)\n      dup1\n      swap2\n      sub\n      swap1\n      revert\n    tag_60:\n        /* \"GitHub/contract-token-cryptoMonster/backend/components/PhasePrivate.sol\":4895:4900  false */\n      0x00\n        /* \"GitHub/contract-token-cryptoMonster/backend/components/PhasePrivate.sol\":4852:4900  strucApplications_[msg.sender].reviewed == false */\n      iszero\n      iszero\n        /* \"GitHub/contract-token-cryptoMonster/backend/components/PhasePrivate.sol\":4852:4870  strucApplications_ */\n      0x02\n        /* \"GitHub/contract-token-cryptoMonster/backend/components/PhasePrivate.sol\":4852:4882  strucApplications_[msg.sender] */\n      0x00\n        /* \"GitHub/contract-token-cryptoMonster/backend/components/PhasePrivate.sol\":4871:4881  msg.sender */\n      caller\n        /* \"GitHub/contract-token-cryptoMonster/backend/components/PhasePrivate.sol\":4852:4882  strucApplications_[msg.sender] */\n      0xffffffffffffffffffffffffffffffffffffffff\n      and\n      0xffffffffffffffffffffffffffffffffffffffff\n      and\n      dup2\n      mstore\n      0x20\n      add\n      swap1\n      dup2\n      mstore\n      0x20\n      add\n      0x00\n      keccak256\n        /* \"GitHub/contract-token-cryptoMonster/backend/components/PhasePrivate.sol\":4852:4891  strucApplications_[msg.sender].reviewed */\n      0x02\n      add\n      0x15\n      swap1\n      sload\n      swap1\n      0x0100\n      exp\n      swap1\n      div\n      0xff\n      and\n        /* \"GitHub/contract-token-cryptoMonster/backend/components/PhasePrivate.sol\":4852:4900  strucApplications_[msg.sender].reviewed == false */\n      iszero\n      iszero\n      eq\n        /* \"GitHub/contract-token-cryptoMonster/backend/components/PhasePrivate.sol\":4844:4933  require(strucApplications_[msg.sender].reviewed == false, \"Review the application first\") */\n      tag_64\n      jumpi\n      mload(0x40)\n      0x08c379a000000000000000000000000000000000000000000000000000000000\n      dup2\n      mstore\n      0x04\n      add\n      tag_65\n      swap1\n      tag_66\n      jump\t// in\n    tag_65:\n      mload(0x40)\n      dup1\n      swap2\n      sub\n      swap1\n      revert\n    tag_64:\n        /* \"GitHub/contract-token-cryptoMonster/backend/components/PhasePrivate.sol\":5072:5077  false */\n      0x00\n        /* \"GitHub/contract-token-cryptoMonster/backend/components/PhasePrivate.sol\":5034:5052  strucApplications_ */\n      0x02\n        /* \"GitHub/contract-token-cryptoMonster/backend/components/PhasePrivate.sol\":5034:5062  strucApplications_[_userAdr] */\n      0x00\n        /* \"GitHub/contract-token-cryptoMonster/backend/components/PhasePrivate.sol\":5053:5061  _userAdr */\n      dup4\n        /* \"GitHub/contract-token-cryptoMonster/backend/components/PhasePrivate.sol\":5034:5062  strucApplications_[_userAdr] */\n      0xffffffffffffffffffffffffffffffffffffffff\n      and\n      0xffffffffffffffffffffffffffffffffffffffff\n      and\n      dup2\n      mstore\n      0x20\n      add\n      swap1\n      dup2\n      mstore\n      0x20\n      add\n      0x00\n      keccak256\n        /* \"GitHub/contract-token-cryptoMonster/backend/components/PhasePrivate.sol\":5034:5069  strucApplications_[_userAdr].status */\n      0x02\n      add\n      0x14\n        /* \"GitHub/contract-token-cryptoMonster/backend/components/PhasePrivate.sol\":5034:5077  strucApplications_[_userAdr].status = false */\n      0x0100\n      exp\n      dup2\n      sload\n      dup2\n      0xff\n      mul\n      not\n      and\n      swap1\n      dup4\n      iszero\n      iszero\n      mul\n      or\n      swap1\n      sstore\n      pop\n        /* \"GitHub/contract-token-cryptoMonster/backend/components/PhasePrivate.sol\":4757:5085  function deviationApplication (address _userAdr) public onlyPrivateProvider {\r... */\n      pop\n      jump\t// out\n        /* \"GitHub/contract-token-cryptoMonster/backend/components/PhasePrivate.sol\":2349:3539  function getApplicationNotReviewed () public onlyPrivateProvider view returns (address[] memory) {\r... */\n    tag_20:\n        /* \"GitHub/contract-token-cryptoMonster/backend/components/PhasePrivate.sol\":2428:2444  address[] memory */\n      0x60\n        /* \"GitHub/contract-token-cryptoMonster/backend/shared/helpers/modifireFunc.sol\":566:585  Role.SYSTEM_PRIVATE */\n      0x02\n        /* \"GitHub/contract-token-cryptoMonster/backend/shared/helpers/modifireFunc.sol\":533:585  structUsers_[msg.sender].role == Role.SYSTEM_PRIVATE */\n      0x04\n      dup2\n      gt\n      iszero\n      tag_68\n      jumpi\n      tag_69\n      tag_47\n      jump\t// in\n    tag_69:\n    tag_68:\n        /* \"GitHub/contract-token-cryptoMonster/backend/shared/helpers/modifireFunc.sol\":533:545  structUsers_ */\n      0x00\n        /* \"GitHub/contract-token-cryptoMonster/backend/shared/helpers/modifireFunc.sol\":533:557  structUsers_[msg.sender] */\n      dup1\n        /* \"GitHub/contract-token-cryptoMonster/backend/shared/helpers/modifireFunc.sol\":546:556  msg.sender */\n      caller\n        /* \"GitHub/contract-token-cryptoMonster/backend/shared/helpers/modifireFunc.sol\":533:557  structUsers_[msg.sender] */\n      0xffffffffffffffffffffffffffffffffffffffff\n      and\n      0xffffffffffffffffffffffffffffffffffffffff\n      and\n      dup2\n      mstore\n      0x20\n      add\n      swap1\n      dup2\n      mstore\n      0x20\n      add\n      0x00\n      keccak256\n        /* \"GitHub/contract-token-cryptoMonster/backend/shared/helpers/modifireFunc.sol\":533:562  structUsers_[msg.sender].role */\n      0x00\n      add\n      0x00\n      swap1\n      sload\n      swap1\n      0x0100\n      exp\n      swap1\n      div\n      0xff\n      and\n        /* \"GitHub/contract-token-cryptoMonster/backend/shared/helpers/modifireFunc.sol\":533:585  structUsers_[msg.sender].role == Role.SYSTEM_PRIVATE */\n      0x04\n      dup2\n      gt\n      iszero\n      tag_70\n      jumpi\n      tag_71\n      tag_47\n      jump\t// in\n    tag_71:\n    tag_70:\n      eq\n        /* \"GitHub/contract-token-cryptoMonster/backend/shared/helpers/modifireFunc.sol\":525:615  require(structUsers_[msg.sender].role == Role.SYSTEM_PRIVATE, \"Your not Private provider\") */\n      tag_72\n      jumpi\n      mload(0x40)\n      0x08c379a000000000000000000000000000000000000000000000000000000000\n      dup2\n      mstore\n      0x04\n      add\n      tag_73\n      swap1\n      tag_62\n      jump\t// in\n    tag_73:\n      mload(0x40)\n      dup1\n      swap2\n      sub\n      swap1\n      revert\n    tag_72:\n        /* \"GitHub/contract-token-cryptoMonster/backend/components/PhasePrivate.sol\":2457:2488  address[] memory _tempAdrAmount */\n      0x60\n        /* \"GitHub/contract-token-cryptoMonster/backend/components/PhasePrivate.sol\":2505:2511  uint i */\n      0x00\n        /* \"GitHub/contract-token-cryptoMonster/backend/components/PhasePrivate.sol\":2500:3376  for (uint i = 0; i < structApplicationsAmountAdr.length; i++) {\r... */\n    tag_75:\n        /* \"GitHub/contract-token-cryptoMonster/backend/components/PhasePrivate.sol\":2521:2548  structApplicationsAmountAdr */\n      0x03\n        /* \"GitHub/contract-token-cryptoMonster/backend/components/PhasePrivate.sol\":2521:2555  structApplicationsAmountAdr.length */\n      dup1\n      sload\n      swap1\n      pop\n        /* \"GitHub/contract-token-cryptoMonster/backend/components/PhasePrivate.sol\":2517:2518  i */\n      dup2\n        /* \"GitHub/contract-token-cryptoMonster/backend/components/PhasePrivate.sol\":2517:2555  i < structApplicationsAmountAdr.length */\n      lt\n        /* \"GitHub/contract-token-cryptoMonster/backend/components/PhasePrivate.sol\":2500:3376  for (uint i = 0; i < structApplicationsAmountAdr.length; i++) {\r... */\n      iszero\n      tag_76\n      jumpi\n        /* \"GitHub/contract-token-cryptoMonster/backend/components/PhasePrivate.sol\":2577:2587  uint count */\n      0x00\n        /* \"GitHub/contract-token-cryptoMonster/backend/components/PhasePrivate.sol\":2702:2718  address _tempAdr */\n      dup1\n        /* \"GitHub/contract-token-cryptoMonster/backend/components/PhasePrivate.sol\":2721:2748  structApplicationsAmountAdr */\n      0x03\n        /* \"GitHub/contract-token-cryptoMonster/backend/components/PhasePrivate.sol\":2749:2750  i */\n      dup4\n        /* \"GitHub/contract-token-cryptoMonster/backend/components/PhasePrivate.sol\":2721:2751  structApplicationsAmountAdr[i] */\n      dup2\n      sload\n      dup2\n      lt\n      tag_78\n      jumpi\n      tag_79\n      tag_80\n      jump\t// in\n    tag_79:\n    tag_78:\n      swap1\n      0x00\n      mstore\n      keccak256(0x00, 0x20)\n      add\n      0x00\n      swap1\n      sload\n      swap1\n      0x0100\n      exp\n      swap1\n      div\n      0xffffffffffffffffffffffffffffffffffffffff\n      and\n        /* \"GitHub/contract-token-cryptoMonster/backend/components/PhasePrivate.sol\":2702:2751  address _tempAdr = structApplicationsAmountAdr[i] */\n      swap1\n      pop\n        /* \"GitHub/contract-token-cryptoMonster/backend/components/PhasePrivate.sol\":2913:2918  false */\n      0x00\n        /* \"GitHub/contract-token-cryptoMonster/backend/components/PhasePrivate.sol\":2872:2918  strucApplications_[_tempAdr].reviewed == false */\n      iszero\n      iszero\n        /* \"GitHub/contract-token-cryptoMonster/backend/components/PhasePrivate.sol\":2872:2890  strucApplications_ */\n      0x02\n        /* \"GitHub/contract-token-cryptoMonster/backend/components/PhasePrivate.sol\":2872:2900  strucApplications_[_tempAdr] */\n      0x00\n        /* \"GitHub/contract-token-cryptoMonster/backend/components/PhasePrivate.sol\":2891:2899  _tempAdr */\n      dup4\n        /* \"GitHub/contract-token-cryptoMonster/backend/components/PhasePrivate.sol\":2872:2900  strucApplications_[_tempAdr] */\n      0xffffffffffffffffffffffffffffffffffffffff\n      and\n      0xffffffffffffffffffffffffffffffffffffffff\n      and\n      dup2\n      mstore\n      0x20\n      add\n      swap1\n      dup2\n      mstore\n      0x20\n      add\n      0x00\n      keccak256\n        /* \"GitHub/contract-token-cryptoMonster/backend/components/PhasePrivate.sol\":2872:2909  strucApplications_[_tempAdr].reviewed */\n      0x02\n      add\n      0x15\n      swap1\n      sload\n      swap1\n      0x0100\n      exp\n      swap1\n      div\n      0xff\n      and\n        /* \"GitHub/contract-token-cryptoMonster/backend/components/PhasePrivate.sol\":2872:2918  strucApplications_[_tempAdr].reviewed == false */\n      iszero\n      iszero\n      eq\n        /* \"GitHub/contract-token-cryptoMonster/backend/components/PhasePrivate.sol\":2868:3365  if (strucApplications_[_tempAdr].reviewed == false) { // !: проверка того, что заявка ещё не была рассмотрена\r... */\n      iszero\n      tag_82\n      jumpi\n        /* \"GitHub/contract-token-cryptoMonster/backend/components/PhasePrivate.sol\":3060:3068  _tempAdr */\n      dup1\n        /* \"GitHub/contract-token-cryptoMonster/backend/components/PhasePrivate.sol\":3036:3050  _tempAdrAmount */\n      dup5\n        /* \"GitHub/contract-token-cryptoMonster/backend/components/PhasePrivate.sol\":3051:3056  count */\n      dup4\n        /* \"GitHub/contract-token-cryptoMonster/backend/components/PhasePrivate.sol\":3036:3057  _tempAdrAmount[count] */\n      dup2\n      mload\n      dup2\n      lt\n      tag_83\n      jumpi\n      tag_84\n      tag_80\n      jump\t// in\n    tag_84:\n    tag_83:\n      0x20\n      mul\n      0x20\n      add\n      add\n        /* \"GitHub/contract-token-cryptoMonster/backend/components/PhasePrivate.sol\":3036:3068  _tempAdrAmount[count] = _tempAdr */\n      swap1\n      0xffffffffffffffffffffffffffffffffffffffff\n      and\n      swap1\n      dup2\n      0xffffffffffffffffffffffffffffffffffffffff\n      and\n      dup2\n      mstore\n      pop\n      pop\n        /* \"GitHub/contract-token-cryptoMonster/backend/components/PhasePrivate.sol\":3218:3225  count++ */\n      dup2\n      dup1\n      tag_85\n      swap1\n      tag_86\n      jump\t// in\n    tag_85:\n      swap3\n      pop\n      pop\n        /* \"GitHub/contract-token-cryptoMonster/backend/components/PhasePrivate.sol\":2868:3365  if (strucApplications_[_tempAdr].reviewed == false) { // !: проверка того, что заявка ещё не была рассмотрена\r... */\n    tag_82:\n        /* \"GitHub/contract-token-cryptoMonster/backend/components/PhasePrivate.sol\":2562:3376  {\r... */\n      pop\n      pop\n        /* \"GitHub/contract-token-cryptoMonster/backend/components/PhasePrivate.sol\":2557:2560  i++ */\n      dup1\n      dup1\n      tag_87\n      swap1\n      tag_86\n      jump\t// in\n    tag_87:\n      swap2\n      pop\n      pop\n        /* \"GitHub/contract-token-cryptoMonster/backend/components/PhasePrivate.sol\":2500:3376  for (uint i = 0; i < structApplicationsAmountAdr.length; i++) {\r... */\n      jump(tag_75)\n    tag_76:\n      pop\n        /* \"GitHub/contract-token-cryptoMonster/backend/components/PhasePrivate.sol\":3393:3407  _tempAdrAmount */\n      dup1\n        /* \"GitHub/contract-token-cryptoMonster/backend/components/PhasePrivate.sol\":3386:3407  return _tempAdrAmount */\n      swap2\n      pop\n      pop\n        /* \"GitHub/contract-token-cryptoMonster/backend/components/PhasePrivate.sol\":2349:3539  function getApplicationNotReviewed () public onlyPrivateProvider view returns (address[] memory) {\r... */\n      swap1\n      jump\t// out\n        /* \"GitHub/contract-token-cryptoMonster/backend/components/PhasePrivate.sol\":1959:2204  function getApplicationAmountAdr () public onlyPrivateProvider view returns (address[] memory) {\r... */\n    tag_24:\n        /* \"GitHub/contract-token-cryptoMonster/backend/components/PhasePrivate.sol\":2036:2052  address[] memory */\n      0x60\n        /* \"GitHub/contract-token-cryptoMonster/backend/shared/helpers/modifireFunc.sol\":566:585  Role.SYSTEM_PRIVATE */\n      0x02\n        /* \"GitHub/contract-token-cryptoMonster/backend/shared/helpers/modifireFunc.sol\":533:585  structUsers_[msg.sender].role == Role.SYSTEM_PRIVATE */\n      0x04\n      dup2\n      gt\n      iszero\n      tag_89\n      jumpi\n      tag_90\n      tag_47\n      jump\t// in\n    tag_90:\n    tag_89:\n        /* \"GitHub/contract-token-cryptoMonster/backend/shared/helpers/modifireFunc.sol\":533:545  structUsers_ */\n      0x00\n        /* \"GitHub/contract-token-cryptoMonster/backend/shared/helpers/modifireFunc.sol\":533:557  structUsers_[msg.sender] */\n      dup1\n        /* \"GitHub/contract-token-cryptoMonster/backend/shared/helpers/modifireFunc.sol\":546:556  msg.sender */\n      caller\n        /* \"GitHub/contract-token-cryptoMonster/backend/shared/helpers/modifireFunc.sol\":533:557  structUsers_[msg.sender] */\n      0xffffffffffffffffffffffffffffffffffffffff\n      and\n      0xffffffffffffffffffffffffffffffffffffffff\n      and\n      dup2\n      mstore\n      0x20\n      add\n      swap1\n      dup2\n      mstore\n      0x20\n      add\n      0x00\n      keccak256\n        /* \"GitHub/contract-token-cryptoMonster/backend/shared/helpers/modifireFunc.sol\":533:562  structUsers_[msg.sender].role */\n      0x00\n      add\n      0x00\n      swap1\n      sload\n      swap1\n      0x0100\n      exp\n      swap1\n      div\n      0xff\n      and\n        /* \"GitHub/contract-token-cryptoMonster/backend/shared/helpers/modifireFunc.sol\":533:585  structUsers_[msg.sender].role == Role.SYSTEM_PRIVATE */\n      0x04\n      dup2\n      gt\n      iszero\n      tag_91\n      jumpi\n      tag_92\n      tag_47\n      jump\t// in\n    tag_92:\n    tag_91:\n      eq\n        /* \"GitHub/contract-token-cryptoMonster/backend/shared/helpers/modifireFunc.sol\":525:615  require(structUsers_[msg.sender].role == Role.SYSTEM_PRIVATE, \"Your not Private provider\") */\n      tag_93\n      jumpi\n      mload(0x40)\n      0x08c379a000000000000000000000000000000000000000000000000000000000\n      dup2\n      mstore\n      0x04\n      add\n      tag_94\n      swap1\n      tag_62\n      jump\t// in\n    tag_94:\n      mload(0x40)\n      dup1\n      swap2\n      sub\n      swap1\n      revert\n    tag_93:\n        /* \"GitHub/contract-token-cryptoMonster/backend/components/PhasePrivate.sol\":2072:2099  structApplicationsAmountAdr */\n      0x03\n        /* \"GitHub/contract-token-cryptoMonster/backend/components/PhasePrivate.sol\":2065:2099  return structApplicationsAmountAdr */\n      dup1\n      sload\n      dup1\n      0x20\n      mul\n      0x20\n      add\n      mload(0x40)\n      swap1\n      dup2\n      add\n      0x40\n      mstore\n      dup1\n      swap3\n      swap2\n      swap1\n      dup2\n      dup2\n      mstore\n      0x20\n      add\n      dup3\n      dup1\n      sload\n      dup1\n      iszero\n      tag_96\n      jumpi\n      0x20\n      mul\n      dup3\n      add\n      swap2\n      swap1\n      0x00\n      mstore\n      keccak256(0x00, 0x20)\n      swap1\n    tag_97:\n      dup2\n      0x00\n      swap1\n      sload\n      swap1\n      0x0100\n      exp\n      swap1\n      div\n      0xffffffffffffffffffffffffffffffffffffffff\n      and\n      0xffffffffffffffffffffffffffffffffffffffff\n      and\n      dup2\n      mstore\n      0x20\n      add\n      swap1\n      0x01\n      add\n      swap1\n      dup1\n      dup4\n      gt\n      tag_97\n      jumpi\n    tag_96:\n      pop\n      pop\n      pop\n      pop\n      pop\n      swap1\n      pop\n        /* \"GitHub/contract-token-cryptoMonster/backend/components/PhasePrivate.sol\":1959:2204  function getApplicationAmountAdr () public onlyPrivateProvider view returns (address[] memory) {\r... */\n      swap1\n      jump\t// out\n        /* \"GitHub/contract-token-cryptoMonster/backend/components/PhasePrivate.sol\":3660:4039  function viewApplication (address _userAdr) public onlyPrivateProvider returns (structApplication memory) {\r... */\n    tag_28:\n        /* \"GitHub/contract-token-cryptoMonster/backend/components/PhasePrivate.sol\":3740:3764  structApplication memory */\n      tag_98\n      tag_99\n      jump\t// in\n    tag_98:\n        /* \"GitHub/contract-token-cryptoMonster/backend/shared/helpers/modifireFunc.sol\":566:585  Role.SYSTEM_PRIVATE */\n      0x02\n        /* \"GitHub/contract-token-cryptoMonster/backend/shared/helpers/modifireFunc.sol\":533:585  structUsers_[msg.sender].role == Role.SYSTEM_PRIVATE */\n      0x04\n      dup2\n      gt\n      iszero\n      tag_101\n      jumpi\n      tag_102\n      tag_47\n      jump\t// in\n    tag_102:\n    tag_101:\n        /* \"GitHub/contract-token-cryptoMonster/backend/shared/helpers/modifireFunc.sol\":533:545  structUsers_ */\n      0x00\n        /* \"GitHub/contract-token-cryptoMonster/backend/shared/helpers/modifireFunc.sol\":533:557  structUsers_[msg.sender] */\n      dup1\n        /* \"GitHub/contract-token-cryptoMonster/backend/shared/helpers/modifireFunc.sol\":546:556  msg.sender */\n      caller\n        /* \"GitHub/contract-token-cryptoMonster/backend/shared/helpers/modifireFunc.sol\":533:557  structUsers_[msg.sender] */\n      0xffffffffffffffffffffffffffffffffffffffff\n      and\n      0xffffffffffffffffffffffffffffffffffffffff\n      and\n      dup2\n      mstore\n      0x20\n      add\n      swap1\n      dup2\n      mstore\n      0x20\n      add\n      0x00\n      keccak256\n        /* \"GitHub/contract-token-cryptoMonster/backend/shared/helpers/modifireFunc.sol\":533:562  structUsers_[msg.sender].role */\n      0x00\n      add\n      0x00\n      swap1\n      sload\n      swap1\n      0x0100\n      exp\n      swap1\n      div\n      0xff\n      and\n        /* \"GitHub/contract-token-cryptoMonster/backend/shared/helpers/modifireFunc.sol\":533:585  structUsers_[msg.sender].role == Role.SYSTEM_PRIVATE */\n      0x04\n      dup2\n      gt\n      iszero\n      tag_103\n      jumpi\n      tag_104\n      tag_47\n      jump\t// in\n    tag_104:\n    tag_103:\n      eq\n        /* \"GitHub/contract-token-cryptoMonster/backend/shared/helpers/modifireFunc.sol\":525:615  require(structUsers_[msg.sender].role == Role.SYSTEM_PRIVATE, \"Your not Private provider\") */\n      tag_105\n      jumpi\n      mload(0x40)\n      0x08c379a000000000000000000000000000000000000000000000000000000000\n      dup2\n      mstore\n      0x04\n      add\n      tag_106\n      swap1\n      tag_62\n      jump\t// in\n    tag_106:\n      mload(0x40)\n      dup1\n      swap2\n      sub\n      swap1\n      revert\n    tag_105:\n        /* \"GitHub/contract-token-cryptoMonster/backend/components/PhasePrivate.sol\":3817:3821  true */\n      0x01\n        /* \"GitHub/contract-token-cryptoMonster/backend/components/PhasePrivate.sol\":3777:3795  strucApplications_ */\n      0x02\n        /* \"GitHub/contract-token-cryptoMonster/backend/components/PhasePrivate.sol\":3777:3805  strucApplications_[_userAdr] */\n      0x00\n        /* \"GitHub/contract-token-cryptoMonster/backend/components/PhasePrivate.sol\":3796:3804  _userAdr */\n      dup5\n        /* \"GitHub/contract-token-cryptoMonster/backend/components/PhasePrivate.sol\":3777:3805  strucApplications_[_userAdr] */\n      0xffffffffffffffffffffffffffffffffffffffff\n      and\n      0xffffffffffffffffffffffffffffffffffffffff\n      and\n      dup2\n      mstore\n      0x20\n      add\n      swap1\n      dup2\n      mstore\n      0x20\n      add\n      0x00\n      keccak256\n        /* \"GitHub/contract-token-cryptoMonster/backend/components/PhasePrivate.sol\":3777:3814  strucApplications_[_userAdr].reviewed */\n      0x02\n      add\n      0x15\n        /* \"GitHub/contract-token-cryptoMonster/backend/components/PhasePrivate.sol\":3777:3821  strucApplications_[_userAdr].reviewed = true */\n      0x0100\n      exp\n      dup2\n      sload\n      dup2\n      0xff\n      mul\n      not\n      and\n      swap1\n      dup4\n      iszero\n      iszero\n      mul\n      or\n      swap1\n      sstore\n      pop\n        /* \"GitHub/contract-token-cryptoMonster/backend/components/PhasePrivate.sol\":3915:3933  strucApplications_ */\n      0x02\n        /* \"GitHub/contract-token-cryptoMonster/backend/components/PhasePrivate.sol\":3915:3943  strucApplications_[_userAdr] */\n      0x00\n        /* \"GitHub/contract-token-cryptoMonster/backend/components/PhasePrivate.sol\":3934:3942  _userAdr */\n      dup4\n        /* \"GitHub/contract-token-cryptoMonster/backend/components/PhasePrivate.sol\":3915:3943  strucApplications_[_userAdr] */\n      0xffffffffffffffffffffffffffffffffffffffff\n      and\n      0xffffffffffffffffffffffffffffffffffffffff\n      and\n      dup2\n      mstore\n      0x20\n      add\n      swap1\n      dup2\n      mstore\n      0x20\n      add\n      0x00\n      keccak256\n        /* \"GitHub/contract-token-cryptoMonster/backend/components/PhasePrivate.sol\":3908:3943  return strucApplications_[_userAdr] */\n      mload(0x40)\n      dup1\n      0xc0\n      add\n      0x40\n      mstore\n      swap1\n      dup2\n      0x00\n      dup3\n      add\n      dup1\n      sload\n      tag_108\n      swap1\n      tag_109\n      jump\t// in\n    tag_108:\n      dup1\n      0x1f\n      add\n      0x20\n      dup1\n      swap2\n      div\n      mul\n      0x20\n      add\n      mload(0x40)\n      swap1\n      dup2\n      add\n      0x40\n      mstore\n      dup1\n      swap3\n      swap2\n      swap1\n      dup2\n      dup2\n      mstore\n      0x20\n      add\n      dup3\n      dup1\n      sload\n      tag_110\n      swap1\n      tag_109\n      jump\t// in\n    tag_110:\n      dup1\n      iszero\n      tag_111\n      jumpi\n      dup1\n      0x1f\n      lt\n      tag_112\n      jumpi\n      0x0100\n      dup1\n      dup4\n      sload\n      div\n      mul\n      dup4\n      mstore\n      swap2\n      0x20\n      add\n      swap2\n      jump(tag_111)\n    tag_112:\n      dup3\n      add\n      swap2\n      swap1\n      0x00\n      mstore\n      keccak256(0x00, 0x20)\n      swap1\n    tag_113:\n      dup2\n      sload\n      dup2\n      mstore\n      swap1\n      0x01\n      add\n      swap1\n      0x20\n      add\n      dup1\n      dup4\n      gt\n      tag_113\n      jumpi\n      dup3\n      swap1\n      sub\n      0x1f\n      and\n      dup3\n      add\n      swap2\n    tag_111:\n      pop\n      pop\n      pop\n      pop\n      pop\n      dup2\n      mstore\n      0x20\n      add\n      0x01\n      dup3\n      add\n      dup1\n      sload\n      tag_114\n      swap1\n      tag_109\n      jump\t// in\n    tag_114:\n      dup1\n      0x1f\n      add\n      0x20\n      dup1\n      swap2\n      div\n      mul\n      0x20\n      add\n      mload(0x40)\n      swap1\n      dup2\n      add\n      0x40\n      mstore\n      dup1\n      swap3\n      swap2\n      swap1\n      dup2\n      dup2\n      mstore\n      0x20\n      add\n      dup3\n      dup1\n      sload\n      tag_115\n      swap1\n      tag_109\n      jump\t// in\n    tag_115:\n      dup1\n      iszero\n      tag_116\n      jumpi\n      dup1\n      0x1f\n      lt\n      tag_117\n      jumpi\n      0x0100\n      dup1\n      dup4\n      sload\n      div\n      mul\n      dup4\n      mstore\n      swap2\n      0x20\n      add\n      swap2\n      jump(tag_116)\n    tag_117:\n      dup3\n      add\n      swap2\n      swap1\n      0x00\n      mstore\n      keccak256(0x00, 0x20)\n      swap1\n    tag_118:\n      dup2\n      sload\n      dup2\n      mstore\n      swap1\n      0x01\n      add\n      swap1\n      0x20\n      add\n      dup1\n      dup4\n      gt\n      tag_118\n      jumpi\n      dup3\n      swap1\n      sub\n      0x1f\n      and\n      dup3\n      add\n      swap2\n    tag_116:\n      pop\n      pop\n      pop\n      pop\n      pop\n      dup2\n      mstore\n      0x20\n      add\n      0x02\n      dup3\n      add\n      0x00\n      swap1\n      sload\n      swap1\n      0x0100\n      exp\n      swap1\n      div\n      0xffffffffffffffffffffffffffffffffffffffff\n      and\n      0xffffffffffffffffffffffffffffffffffffffff\n      and\n      0xffffffffffffffffffffffffffffffffffffffff\n      and\n      dup2\n      mstore\n      0x20\n      add\n      0x02\n      dup3\n      add\n      0x14\n      swap1\n      sload\n      swap1\n      0x0100\n      exp\n      swap1\n      div\n      0xff\n      and\n      iszero\n      iszero\n      iszero\n      iszero\n      dup2\n      mstore\n      0x20\n      add\n      0x02\n      dup3\n      add\n      0x15\n      swap1\n      sload\n      swap1\n      0x0100\n      exp\n      swap1\n      div\n      0xff\n      and\n      iszero\n      iszero\n      iszero\n      iszero\n      dup2\n      mstore\n      0x20\n      add\n      0x02\n      dup3\n      add\n      0x16\n      swap1\n      sload\n      swap1\n      0x0100\n      exp\n      swap1\n      div\n      0xff\n      and\n      iszero\n      iszero\n      iszero\n      iszero\n      dup2\n      mstore\n      pop\n      pop\n      swap1\n      pop\n        /* \"GitHub/contract-token-cryptoMonster/backend/components/PhasePrivate.sol\":3660:4039  function viewApplication (address _userAdr) public onlyPrivateProvider returns (structApplication memory) {\r... */\n      swap2\n      swap1\n      pop\n      jump\t// out\n        /* \"GitHub/contract-token-cryptoMonster/backend/components/PhasePrivate.sol\":295:1845  function application(string memory _name, string memory _contactForCommunication, address _userAdr) public {\r... */\n    tag_34:\n        /* \"GitHub/contract-token-cryptoMonster/backend/components/PhasePrivate.sol\":413:428  bool _tempExist */\n      0x00\n        /* \"GitHub/contract-token-cryptoMonster/backend/components/PhasePrivate.sol\":520:525  false */\n      dup1\n        /* \"GitHub/contract-token-cryptoMonster/backend/components/PhasePrivate.sol\":447:525  structPhases_[0xAb8483F64d9C6d1EcF9b849Ae677dD3315835cb2].statusPhase == false */\n      iszero\n      iszero\n        /* \"GitHub/contract-token-cryptoMonster/backend/components/PhasePrivate.sol\":447:460  structPhases_ */\n      0x01\n        /* \"GitHub/contract-token-cryptoMonster/backend/components/PhasePrivate.sol\":447:504  structPhases_[0xAb8483F64d9C6d1EcF9b849Ae677dD3315835cb2] */\n      0x00\n        /* \"GitHub/contract-token-cryptoMonster/backend/components/PhasePrivate.sol\":461:503  0xAb8483F64d9C6d1EcF9b849Ae677dD3315835cb2 */\n      0xab8483f64d9c6d1ecf9b849ae677dd3315835cb2\n        /* \"GitHub/contract-token-cryptoMonster/backend/components/PhasePrivate.sol\":447:504  structPhases_[0xAb8483F64d9C6d1EcF9b849Ae677dD3315835cb2] */\n      0xffffffffffffffffffffffffffffffffffffffff\n      and\n      0xffffffffffffffffffffffffffffffffffffffff\n      and\n      dup2\n      mstore\n      0x20\n      add\n      swap1\n      dup2\n      mstore\n      0x20\n      add\n      0x00\n      keccak256\n        /* \"GitHub/contract-token-cryptoMonster/backend/components/PhasePrivate.sol\":447:516  structPhases_[0xAb8483F64d9C6d1EcF9b849Ae677dD3315835cb2].statusPhase */\n      0x00\n      add\n      0x00\n      swap1\n      sload\n      swap1\n      0x0100\n      exp\n      swap1\n      div\n      0xff\n      and\n        /* \"GitHub/contract-token-cryptoMonster/backend/components/PhasePrivate.sol\":447:525  structPhases_[0xAb8483F64d9C6d1EcF9b849Ae677dD3315835cb2].statusPhase == false */\n      iszero\n      iszero\n      eq\n        /* \"GitHub/contract-token-cryptoMonster/backend/components/PhasePrivate.sol\":447:607  structPhases_[0xAb8483F64d9C6d1EcF9b849Ae677dD3315835cb2].statusPhase == false && structPhases_[0xAb8483F64d9C6d1EcF9b849Ae677dD3315835cb2].statusPhase == false */\n      dup1\n      iszero\n      tag_120\n      jumpi\n      pop\n        /* \"GitHub/contract-token-cryptoMonster/backend/components/PhasePrivate.sol\":602:607  false */\n      0x00\n        /* \"GitHub/contract-token-cryptoMonster/backend/components/PhasePrivate.sol\":529:607  structPhases_[0xAb8483F64d9C6d1EcF9b849Ae677dD3315835cb2].statusPhase == false */\n      iszero\n      iszero\n        /* \"GitHub/contract-token-cryptoMonster/backend/components/PhasePrivate.sol\":529:542  structPhases_ */\n      0x01\n        /* \"GitHub/contract-token-cryptoMonster/backend/components/PhasePrivate.sol\":529:586  structPhases_[0xAb8483F64d9C6d1EcF9b849Ae677dD3315835cb2] */\n      0x00\n        /* \"GitHub/contract-token-cryptoMonster/backend/components/PhasePrivate.sol\":543:585  0xAb8483F64d9C6d1EcF9b849Ae677dD3315835cb2 */\n      0xab8483f64d9c6d1ecf9b849ae677dd3315835cb2\n        /* \"GitHub/contract-token-cryptoMonster/backend/components/PhasePrivate.sol\":529:586  structPhases_[0xAb8483F64d9C6d1EcF9b849Ae677dD3315835cb2] */\n      0xffffffffffffffffffffffffffffffffffffffff\n      and\n      0xffffffffffffffffffffffffffffffffffffffff\n      and\n      dup2\n      mstore\n      0x20\n      add\n      swap1\n      dup2\n      mstore\n      0x20\n      add\n      0x00\n      keccak256\n        /* \"GitHub/contract-token-cryptoMonster/backend/components/PhasePrivate.sol\":529:598  structPhases_[0xAb8483F64d9C6d1EcF9b849Ae677dD3315835cb2].statusPhase */\n      0x00\n      add\n      0x00\n      swap1\n      sload\n      swap1\n      0x0100\n      exp\n      swap1\n      div\n      0xff\n      and\n        /* \"GitHub/contract-token-cryptoMonster/backend/components/PhasePrivate.sol\":529:607  structPhases_[0xAb8483F64d9C6d1EcF9b849Ae677dD3315835cb2].statusPhase == false */\n      iszero\n      iszero\n      eq\n        /* \"GitHub/contract-token-cryptoMonster/backend/components/PhasePrivate.sol\":447:607  structPhases_[0xAb8483F64d9C6d1EcF9b849Ae677dD3315835cb2].statusPhase == false && structPhases_[0xAb8483F64d9C6d1EcF9b849Ae677dD3315835cb2].statusPhase == false */\n    tag_120:\n        /* \"GitHub/contract-token-cryptoMonster/backend/components/PhasePrivate.sol\":439:635  require(structPhases_[0xAb8483F64d9C6d1EcF9b849Ae677dD3315835cb2].statusPhase == false && structPhases_[0xAb8483F64d9C6d1EcF9b849Ae677dD3315835cb2].statusPhase == false, \"Application phase ended\") */\n      tag_121\n      jumpi\n      mload(0x40)\n      0x08c379a000000000000000000000000000000000000000000000000000000000\n      dup2\n      mstore\n      0x04\n      add\n      tag_122\n      swap1\n      tag_123\n      jump\t// in\n    tag_122:\n      mload(0x40)\n      dup1\n      swap2\n      sub\n      swap1\n      revert\n    tag_121:\n        /* \"GitHub/contract-token-cryptoMonster/backend/components/PhasePrivate.sol\":773:781  _userAdr */\n      dup2\n        /* \"GitHub/contract-token-cryptoMonster/backend/components/PhasePrivate.sol\":759:781  msg.sender == _userAdr */\n      0xffffffffffffffffffffffffffffffffffffffff\n      and\n        /* \"GitHub/contract-token-cryptoMonster/backend/components/PhasePrivate.sol\":759:769  msg.sender */\n      caller\n        /* \"GitHub/contract-token-cryptoMonster/backend/components/PhasePrivate.sol\":759:781  msg.sender == _userAdr */\n      0xffffffffffffffffffffffffffffffffffffffff\n      and\n      eq\n        /* \"GitHub/contract-token-cryptoMonster/backend/components/PhasePrivate.sol\":751:841  require(msg.sender == _userAdr, \"You can't send an application to someone else's address\") */\n      tag_124\n      jumpi\n      mload(0x40)\n      0x08c379a000000000000000000000000000000000000000000000000000000000\n      dup2\n      mstore\n      0x04\n      add\n      tag_125\n      swap1\n      tag_126\n      jump\t// in\n    tag_125:\n      mload(0x40)\n      dup1\n      swap2\n      sub\n      swap1\n      revert\n    tag_124:\n        /* \"GitHub/contract-token-cryptoMonster/backend/components/PhasePrivate.sol\":857:863  uint i */\n      0x00\n        /* \"GitHub/contract-token-cryptoMonster/backend/components/PhasePrivate.sol\":852:1008  for (uint i = 0; i < structApplicationsAmountAdr.length; i++) {\r... */\n    tag_127:\n        /* \"GitHub/contract-token-cryptoMonster/backend/components/PhasePrivate.sol\":873:900  structApplicationsAmountAdr */\n      0x03\n        /* \"GitHub/contract-token-cryptoMonster/backend/components/PhasePrivate.sol\":873:907  structApplicationsAmountAdr.length */\n      dup1\n      sload\n      swap1\n      pop\n        /* \"GitHub/contract-token-cryptoMonster/backend/components/PhasePrivate.sol\":869:870  i */\n      dup2\n        /* \"GitHub/contract-token-cryptoMonster/backend/components/PhasePrivate.sol\":869:907  i < structApplicationsAmountAdr.length */\n      lt\n        /* \"GitHub/contract-token-cryptoMonster/backend/components/PhasePrivate.sol\":852:1008  for (uint i = 0; i < structApplicationsAmountAdr.length; i++) {\r... */\n      iszero\n      tag_128\n      jumpi\n        /* \"GitHub/contract-token-cryptoMonster/backend/components/PhasePrivate.sol\":967:977  msg.sender */\n      caller\n        /* \"GitHub/contract-token-cryptoMonster/backend/components/PhasePrivate.sol\":933:977  structApplicationsAmountAdr[i] == msg.sender */\n      0xffffffffffffffffffffffffffffffffffffffff\n      and\n        /* \"GitHub/contract-token-cryptoMonster/backend/components/PhasePrivate.sol\":933:960  structApplicationsAmountAdr */\n      0x03\n        /* \"GitHub/contract-token-cryptoMonster/backend/components/PhasePrivate.sol\":961:962  i */\n      dup3\n        /* \"GitHub/contract-token-cryptoMonster/backend/components/PhasePrivate.sol\":933:963  structApplicationsAmountAdr[i] */\n      dup2\n      sload\n      dup2\n      lt\n      tag_130\n      jumpi\n      tag_131\n      tag_80\n      jump\t// in\n    tag_131:\n    tag_130:\n      swap1\n      0x00\n      mstore\n      keccak256(0x00, 0x20)\n      add\n      0x00\n      swap1\n      sload\n      swap1\n      0x0100\n      exp\n      swap1\n      pop\n      pop\n        /* \"GitHub/contract-token-cryptoMonster/backend/components/PhasePrivate.sol\":933:977  structApplicationsAmountAdr[i] == msg.sender */\n      pop\n        /* \"GitHub/contract-token-cryptoMonster/backend/components/PhasePrivate.sol\":909:912  i++ */\n      dup1\n      dup1\n      tag_134\n      swap1\n      tag_86\n      jump\t// in\n    tag_134:\n      swap2\n      pop\n      pop\n        /* \"GitHub/contract-token-cryptoMonster/backend/components/PhasePrivate.sol\":852:1008  for (uint i = 0; i < structApplicationsAmountAdr.length; i++) {\r... */\n      jump(tag_127)\n    tag_128:\n      pop\n        /* \"GitHub/contract-token-cryptoMonster/backend/components/PhasePrivate.sol\":1070:1074  true */\n      0x01\n        /* \"GitHub/contract-token-cryptoMonster/backend/components/PhasePrivate.sol\":1030:1074  strucApplications_[msg.sender].exist == true */\n      iszero\n      iszero\n        /* \"GitHub/contract-token-cryptoMonster/backend/components/PhasePrivate.sol\":1030:1048  strucApplications_ */\n      0x02\n        /* \"GitHub/contract-token-cryptoMonster/backend/components/PhasePrivate.sol\":1030:1060  strucApplications_[msg.sender] */\n      0x00\n        /* \"GitHub/contract-token-cryptoMonster/backend/components/PhasePrivate.sol\":1049:1059  msg.sender */\n      caller\n        /* \"GitHub/contract-token-cryptoMonster/backend/components/PhasePrivate.sol\":1030:1060  strucApplications_[msg.sender] */\n      0xffffffffffffffffffffffffffffffffffffffff\n      and\n      0xffffffffffffffffffffffffffffffffffffffff\n      and\n      dup2\n      mstore\n      0x20\n      add\n      swap1\n      dup2\n      mstore\n      0x20\n      add\n      0x00\n      keccak256\n        /* \"GitHub/contract-token-cryptoMonster/backend/components/PhasePrivate.sol\":1030:1066  strucApplications_[msg.sender].exist */\n      0x02\n      add\n      0x16\n      swap1\n      sload\n      swap1\n      0x0100\n      exp\n      swap1\n      div\n      0xff\n      and\n        /* \"GitHub/contract-token-cryptoMonster/backend/components/PhasePrivate.sol\":1030:1074  strucApplications_[msg.sender].exist == true */\n      iszero\n      iszero\n      eq\n        /* \"GitHub/contract-token-cryptoMonster/backend/components/PhasePrivate.sol\":1022:1103  require(strucApplications_[msg.sender].exist == true, \"Application already sent\") */\n      tag_135\n      jumpi\n      mload(0x40)\n      0x08c379a000000000000000000000000000000000000000000000000000000000\n      dup2\n      mstore\n      0x04\n      add\n      tag_136\n      swap1\n      tag_137\n      jump\t// in\n    tag_136:\n      mload(0x40)\n      dup1\n      swap2\n      sub\n      swap1\n      revert\n    tag_135:\n        /* \"GitHub/contract-token-cryptoMonster/backend/components/PhasePrivate.sol\":1267:1272  false */\n      0x00\n        /* \"GitHub/contract-token-cryptoMonster/backend/components/PhasePrivate.sol\":1226:1272  strucApplications_[msg.sender].status == false */\n      iszero\n      iszero\n        /* \"GitHub/contract-token-cryptoMonster/backend/components/PhasePrivate.sol\":1226:1244  strucApplications_ */\n      0x02\n        /* \"GitHub/contract-token-cryptoMonster/backend/components/PhasePrivate.sol\":1226:1256  strucApplications_[msg.sender] */\n      0x00\n        /* \"GitHub/contract-token-cryptoMonster/backend/components/PhasePrivate.sol\":1245:1255  msg.sender */\n      caller\n        /* \"GitHub/contract-token-cryptoMonster/backend/components/PhasePrivate.sol\":1226:1256  strucApplications_[msg.sender] */\n      0xffffffffffffffffffffffffffffffffffffffff\n      and\n      0xffffffffffffffffffffffffffffffffffffffff\n      and\n      dup2\n      mstore\n      0x20\n      add\n      swap1\n      dup2\n      mstore\n      0x20\n      add\n      0x00\n      keccak256\n        /* \"GitHub/contract-token-cryptoMonster/backend/components/PhasePrivate.sol\":1226:1263  strucApplications_[msg.sender].status */\n      0x02\n      add\n      0x14\n      swap1\n      sload\n      swap1\n      0x0100\n      exp\n      swap1\n      div\n      0xff\n      and\n        /* \"GitHub/contract-token-cryptoMonster/backend/components/PhasePrivate.sol\":1226:1272  strucApplications_[msg.sender].status == false */\n      iszero\n      iszero\n      eq\n        /* \"GitHub/contract-token-cryptoMonster/backend/components/PhasePrivate.sol\":1218:1319  require(strucApplications_[msg.sender].status == false, \"Your application has already been rejected\") */\n      tag_138\n      jumpi\n      mload(0x40)\n      0x08c379a000000000000000000000000000000000000000000000000000000000\n      dup2\n      mstore\n      0x04\n      add\n      tag_139\n      swap1\n      tag_140\n      jump\t// in\n    tag_139:\n      mload(0x40)\n      dup1\n      swap2\n      sub\n      swap1\n      revert\n    tag_138:\n        /* \"GitHub/contract-token-cryptoMonster/backend/components/PhasePrivate.sol\":1440:1519  structApplication(_name, _contactForCommunication, _userAdr, true, false, true) */\n      mload(0x40)\n      dup1\n      0xc0\n      add\n      0x40\n      mstore\n      dup1\n        /* \"GitHub/contract-token-cryptoMonster/backend/components/PhasePrivate.sol\":1458:1463  _name */\n      dup6\n        /* \"GitHub/contract-token-cryptoMonster/backend/components/PhasePrivate.sol\":1440:1519  structApplication(_name, _contactForCommunication, _userAdr, true, false, true) */\n      dup2\n      mstore\n      0x20\n      add\n        /* \"GitHub/contract-token-cryptoMonster/backend/components/PhasePrivate.sol\":1465:1489  _contactForCommunication */\n      dup5\n        /* \"GitHub/contract-token-cryptoMonster/backend/components/PhasePrivate.sol\":1440:1519  structApplication(_name, _contactForCommunication, _userAdr, true, false, true) */\n      dup2\n      mstore\n      0x20\n      add\n        /* \"GitHub/contract-token-cryptoMonster/backend/components/PhasePrivate.sol\":1491:1499  _userAdr */\n      dup4\n        /* \"GitHub/contract-token-cryptoMonster/backend/components/PhasePrivate.sol\":1440:1519  structApplication(_name, _contactForCommunication, _userAdr, true, false, true) */\n      0xffffffffffffffffffffffffffffffffffffffff\n      and\n      dup2\n      mstore\n      0x20\n      add\n        /* \"GitHub/contract-token-cryptoMonster/backend/components/PhasePrivate.sol\":1501:1505  true */\n      0x01\n        /* \"GitHub/contract-token-cryptoMonster/backend/components/PhasePrivate.sol\":1440:1519  structApplication(_name, _contactForCommunication, _userAdr, true, false, true) */\n      iszero\n      iszero\n      dup2\n      mstore\n      0x20\n      add\n        /* \"GitHub/contract-token-cryptoMonster/backend/components/PhasePrivate.sol\":1507:1512  false */\n      0x00\n        /* \"GitHub/contract-token-cryptoMonster/backend/components/PhasePrivate.sol\":1440:1519  structApplication(_name, _contactForCommunication, _userAdr, true, false, true) */\n      iszero\n      iszero\n      dup2\n      mstore\n      0x20\n      add\n        /* \"GitHub/contract-token-cryptoMonster/backend/components/PhasePrivate.sol\":1514:1518  true */\n      0x01\n        /* \"GitHub/contract-token-cryptoMonster/backend/components/PhasePrivate.sol\":1440:1519  structApplication(_name, _contactForCommunication, _userAdr, true, false, true) */\n      iszero\n      iszero\n      dup2\n      mstore\n      pop\n        /* \"GitHub/contract-token-cryptoMonster/backend/components/PhasePrivate.sol\":1406:1424  strucApplications_ */\n      0x02\n        /* \"GitHub/contract-token-cryptoMonster/backend/components/PhasePrivate.sol\":1406:1436  strucApplications_[msg.sender] */\n      0x00\n        /* \"GitHub/contract-token-cryptoMonster/backend/components/PhasePrivate.sol\":1425:1435  msg.sender */\n      caller\n        /* \"GitHub/contract-token-cryptoMonster/backend/components/PhasePrivate.sol\":1406:1436  strucApplications_[msg.sender] */\n      0xffffffffffffffffffffffffffffffffffffffff\n      and\n      0xffffffffffffffffffffffffffffffffffffffff\n      and\n      dup2\n      mstore\n      0x20\n      add\n      swap1\n      dup2\n      mstore\n      0x20\n      add\n      0x00\n      keccak256\n        /* \"GitHub/contract-token-cryptoMonster/backend/components/PhasePrivate.sol\":1406:1519  strucApplications_[msg.sender]  = structApplication(_name, _contactForCommunication, _userAdr, true, false, true) */\n      0x00\n      dup3\n      add\n      mload\n      dup2\n      0x00\n      add\n      swap1\n      dup1\n      mload\n      swap1\n      0x20\n      add\n      swap1\n      tag_141\n      swap3\n      swap2\n      swap1\n      tag_142\n      jump\t// in\n    tag_141:\n      pop\n      0x20\n      dup3\n      add\n      mload\n      dup2\n      0x01\n      add\n      swap1\n      dup1\n      mload\n      swap1\n      0x20\n      add\n      swap1\n      tag_143\n      swap3\n      swap2\n      swap1\n      tag_142\n      jump\t// in\n    tag_143:\n      pop\n      0x40\n      dup3\n      add\n      mload\n      dup2\n      0x02\n      add\n      exp(0x0100, 0x00)\n      dup2\n      sload\n      dup2\n      0xffffffffffffffffffffffffffffffffffffffff\n      mul\n      not\n      and\n      swap1\n      dup4\n      0xffffffffffffffffffffffffffffffffffffffff\n      and\n      mul\n      or\n      swap1\n      sstore\n      pop\n      0x60\n      dup3\n      add\n      mload\n      dup2\n      0x02\n      add\n      exp(0x0100, 0x14)\n      dup2\n      sload\n      dup2\n      0xff\n      mul\n      not\n      and\n      swap1\n      dup4\n      iszero\n      iszero\n      mul\n      or\n      swap1\n      sstore\n      pop\n      0x80\n      dup3\n      add\n      mload\n      dup2\n      0x02\n      add\n      exp(0x0100, 0x15)\n      dup2\n      sload\n      dup2\n      0xff\n      mul\n      not\n      and\n      swap1\n      dup4\n      iszero\n      iszero\n      mul\n      or\n      swap1\n      sstore\n      pop\n      0xa0\n      dup3\n      add\n      mload\n      dup2\n      0x02\n      add\n      exp(0x0100, 0x16)\n      dup2\n      sload\n      dup2\n      0xff\n      mul\n      not\n      and\n      swap1\n      dup4\n      iszero\n      iszero\n      mul\n      or\n      swap1\n      sstore\n      pop\n      swap1\n      pop\n      pop\n        /* \"GitHub/contract-token-cryptoMonster/backend/components/PhasePrivate.sol\":1592:1619  structApplicationsAmountAdr */\n      0x03\n        /* \"GitHub/contract-token-cryptoMonster/backend/components/PhasePrivate.sol\":1625:1635  msg.sender */\n      caller\n        /* \"GitHub/contract-token-cryptoMonster/backend/components/PhasePrivate.sol\":1592:1636  structApplicationsAmountAdr.push(msg.sender) */\n      swap1\n      dup1\n      0x01\n      dup2\n      sload\n      add\n      dup1\n      dup3\n      sstore\n      dup1\n      swap2\n      pop\n      pop\n      0x01\n      swap1\n      sub\n      swap1\n      0x00\n      mstore\n      keccak256(0x00, 0x20)\n      add\n      0x00\n      swap1\n      swap2\n      swap1\n      swap2\n      swap1\n      swap2\n      0x0100\n      exp\n      dup2\n      sload\n      dup2\n      0xffffffffffffffffffffffffffffffffffffffff\n      mul\n      not\n      and\n      swap1\n      dup4\n      0xffffffffffffffffffffffffffffffffffffffff\n      and\n      mul\n      or\n      swap1\n      sstore\n      pop\n        /* \"GitHub/contract-token-cryptoMonster/backend/components/PhasePrivate.sol\":402:1845  {\r... */\n      pop\n        /* \"GitHub/contract-token-cryptoMonster/backend/components/PhasePrivate.sol\":295:1845  function application(string memory _name, string memory _contactForCommunication, address _userAdr) public {\r... */\n      pop\n      pop\n      pop\n      jump\t// out\n        /* \"GitHub/contract-token-cryptoMonster/backend/shared/helpers/helpresFunc.sol\":147:285  function get_keccak256(string memory _hash) public pure returns(bytes32) {\r... */\n    tag_38:\n        /* \"GitHub/contract-token-cryptoMonster/backend/shared/helpers/helpresFunc.sol\":211:218  bytes32 */\n      0x00\n        /* \"GitHub/contract-token-cryptoMonster/backend/shared/helpers/helpresFunc.sol\":269:274  _hash */\n      dup2\n        /* \"GitHub/contract-token-cryptoMonster/backend/shared/helpers/helpresFunc.sol\":252:275  abi.encodePacked(_hash) */\n      add(0x20, mload(0x40))\n      tag_146\n      swap2\n      swap1\n      tag_147\n      jump\t// in\n    tag_146:\n      mload(0x40)\n      0x20\n      dup2\n      dup4\n      sub\n      sub\n      dup2\n      mstore\n      swap1\n      0x40\n      mstore\n        /* \"GitHub/contract-token-cryptoMonster/backend/shared/helpers/helpresFunc.sol\":242:276  keccak256(abi.encodePacked(_hash)) */\n      dup1\n      mload\n      swap1\n      0x20\n      add\n      keccak256\n        /* \"GitHub/contract-token-cryptoMonster/backend/shared/helpers/helpresFunc.sol\":235:277  return(keccak256(abi.encodePacked(_hash))) */\n      swap1\n      pop\n        /* \"GitHub/contract-token-cryptoMonster/backend/shared/helpers/helpresFunc.sol\":147:285  function get_keccak256(string memory _hash) public pure returns(bytes32) {\r... */\n      swap2\n      swap1\n      pop\n      jump\t// out\n        /* \"GitHub/contract-token-cryptoMonster/backend/components/PhasePrivate.sol\":4115:4673  function acceptApplication (address _userAdr) public onlyPrivateProvider {\r... */\n    tag_43:\n        /* \"GitHub/contract-token-cryptoMonster/backend/shared/helpers/modifireFunc.sol\":566:585  Role.SYSTEM_PRIVATE */\n      0x02\n        /* \"GitHub/contract-token-cryptoMonster/backend/shared/helpers/modifireFunc.sol\":533:585  structUsers_[msg.sender].role == Role.SYSTEM_PRIVATE */\n      0x04\n      dup2\n      gt\n      iszero\n      tag_149\n      jumpi\n      tag_150\n      tag_47\n      jump\t// in\n    tag_150:\n    tag_149:\n        /* \"GitHub/contract-token-cryptoMonster/backend/shared/helpers/modifireFunc.sol\":533:545  structUsers_ */\n      0x00\n        /* \"GitHub/contract-token-cryptoMonster/backend/shared/helpers/modifireFunc.sol\":533:557  structUsers_[msg.sender] */\n      dup1\n        /* \"GitHub/contract-token-cryptoMonster/backend/shared/helpers/modifireFunc.sol\":546:556  msg.sender */\n      caller\n        /* \"GitHub/contract-token-cryptoMonster/backend/shared/helpers/modifireFunc.sol\":533:557  structUsers_[msg.sender] */\n      0xffffffffffffffffffffffffffffffffffffffff\n      and\n      0xffffffffffffffffffffffffffffffffffffffff\n      and\n      dup2\n      mstore\n      0x20\n      add\n      swap1\n      dup2\n      mstore\n      0x20\n      add\n      0x00\n      keccak256\n        /* \"GitHub/contract-token-cryptoMonster/backend/shared/helpers/modifireFunc.sol\":533:562  structUsers_[msg.sender].role */\n      0x00\n      add\n      0x00\n      swap1\n      sload\n      swap1\n      0x0100\n      exp\n      swap1\n      div\n      0xff\n      and\n        /* \"GitHub/contract-token-cryptoMonster/backend/shared/helpers/modifireFunc.sol\":533:585  structUsers_[msg.sender].role == Role.SYSTEM_PRIVATE */\n      0x04\n      dup2\n      gt\n      iszero\n      tag_151\n      jumpi\n      tag_152\n      tag_47\n      jump\t// in\n    tag_152:\n    tag_151:\n      eq\n        /* \"GitHub/contract-token-cryptoMonster/backend/shared/helpers/modifireFunc.sol\":525:615  require(structUsers_[msg.sender].role == Role.SYSTEM_PRIVATE, \"Your not Private provider\") */\n      tag_153\n      jumpi\n      mload(0x40)\n      0x08c379a000000000000000000000000000000000000000000000000000000000\n      dup2\n      mstore\n      0x04\n      add\n      tag_154\n      swap1\n      tag_62\n      jump\t// in\n    tag_154:\n      mload(0x40)\n      dup1\n      swap2\n      sub\n      swap1\n      revert\n    tag_153:\n        /* \"GitHub/contract-token-cryptoMonster/backend/components/PhasePrivate.sol\":4250:4255  false */\n      0x00\n        /* \"GitHub/contract-token-cryptoMonster/backend/components/PhasePrivate.sol\":4207:4255  strucApplications_[msg.sender].reviewed == false */\n      iszero\n      iszero\n        /* \"GitHub/contract-token-cryptoMonster/backend/components/PhasePrivate.sol\":4207:4225  strucApplications_ */\n      0x02\n        /* \"GitHub/contract-token-cryptoMonster/backend/components/PhasePrivate.sol\":4207:4237  strucApplications_[msg.sender] */\n      0x00\n        /* \"GitHub/contract-token-cryptoMonster/backend/components/PhasePrivate.sol\":4226:4236  msg.sender */\n      caller\n        /* \"GitHub/contract-token-cryptoMonster/backend/components/PhasePrivate.sol\":4207:4237  strucApplications_[msg.sender] */\n      0xffffffffffffffffffffffffffffffffffffffff\n      and\n      0xffffffffffffffffffffffffffffffffffffffff\n      and\n      dup2\n      mstore\n      0x20\n      add\n      swap1\n      dup2\n      mstore\n      0x20\n      add\n      0x00\n      keccak256\n        /* \"GitHub/contract-token-cryptoMonster/backend/components/PhasePrivate.sol\":4207:4246  strucApplications_[msg.sender].reviewed */\n      0x02\n      add\n      0x15\n      swap1\n      sload\n      swap1\n      0x0100\n      exp\n      swap1\n      div\n      0xff\n      and\n        /* \"GitHub/contract-token-cryptoMonster/backend/components/PhasePrivate.sol\":4207:4255  strucApplications_[msg.sender].reviewed == false */\n      iszero\n      iszero\n      eq\n        /* \"GitHub/contract-token-cryptoMonster/backend/components/PhasePrivate.sol\":4199:4288  require(strucApplications_[msg.sender].reviewed == false, \"Review the application first\") */\n      tag_156\n      jumpi\n      mload(0x40)\n      0x08c379a000000000000000000000000000000000000000000000000000000000\n      dup2\n      mstore\n      0x04\n      add\n      tag_157\n      swap1\n      tag_66\n      jump\t// in\n    tag_157:\n      mload(0x40)\n      dup1\n      swap2\n      sub\n      swap1\n      revert\n    tag_156:\n        /* \"GitHub/contract-token-cryptoMonster/backend/components/PhasePrivate.sol\":4427:4432  false */\n      0x00\n        /* \"GitHub/contract-token-cryptoMonster/backend/components/PhasePrivate.sol\":4389:4407  strucApplications_ */\n      0x02\n        /* \"GitHub/contract-token-cryptoMonster/backend/components/PhasePrivate.sol\":4389:4417  strucApplications_[_userAdr] */\n      0x00\n        /* \"GitHub/contract-token-cryptoMonster/backend/components/PhasePrivate.sol\":4408:4416  _userAdr */\n      dup4\n        /* \"GitHub/contract-token-cryptoMonster/backend/components/PhasePrivate.sol\":4389:4417  strucApplications_[_userAdr] */\n      0xffffffffffffffffffffffffffffffffffffffff\n      and\n      0xffffffffffffffffffffffffffffffffffffffff\n      and\n      dup2\n      mstore\n      0x20\n      add\n      swap1\n      dup2\n      mstore\n      0x20\n      add\n      0x00\n      keccak256\n        /* \"GitHub/contract-token-cryptoMonster/backend/components/PhasePrivate.sol\":4389:4424  strucApplications_[_userAdr].status */\n      0x02\n      add\n      0x14\n        /* \"GitHub/contract-token-cryptoMonster/backend/components/PhasePrivate.sol\":4389:4432  strucApplications_[_userAdr].status = false */\n      0x0100\n      exp\n      dup2\n      sload\n      dup2\n      0xff\n      mul\n      not\n      and\n      swap1\n      dup4\n      iszero\n      iszero\n      mul\n      or\n      swap1\n      sstore\n      pop\n        /* \"GitHub/contract-token-cryptoMonster/backend/components/PhasePrivate.sol\":4496:4523  structApplicationsAmountAdr */\n      0x03\n        /* \"GitHub/contract-token-cryptoMonster/backend/components/PhasePrivate.sol\":4529:4537  _userAdr */\n      dup2\n        /* \"GitHub/contract-token-cryptoMonster/backend/components/PhasePrivate.sol\":4496:4538  structApplicationsAmountAdr.push(_userAdr) */\n      swap1\n      dup1\n      0x01\n      dup2\n      sload\n      add\n      dup1\n      dup3\n      sstore\n      dup1\n      swap2\n      pop\n      pop\n      0x01\n      swap1\n      sub\n      swap1\n      0x00\n      mstore\n      keccak256(0x00, 0x20)\n      add\n      0x00\n      swap1\n      swap2\n      swap1\n      swap2\n      swap1\n      swap2\n      0x0100\n      exp\n      dup2\n      sload\n      dup2\n      0xffffffffffffffffffffffffffffffffffffffff\n      mul\n      not\n      and\n      swap1\n      dup4\n      0xffffffffffffffffffffffffffffffffffffffff\n      and\n      mul\n      or\n      swap1\n      sstore\n      pop\n        /* \"GitHub/contract-token-cryptoMonster/backend/components/PhasePrivate.sol\":4115:4673  function acceptApplication (address _userAdr) public onlyPrivateProvider {\r... */\n      pop\n      jump\t// out\n    tag_99:\n      mload(0x40)\n      dup1\n      0xc0\n      add\n      0x40\n      mstore\n      dup1\n      0x60\n      dup2\n      mstore\n      0x20\n      add\n      0x60\n      dup2\n      mstore\n      0x20\n      add\n      and(0xffffffffffffffffffffffffffffffffffffffff, 0x00)\n      dup2\n      mstore\n      0x20\n      add\n      iszero(iszero(0x00))\n      dup2\n      mstore\n      0x20\n      add\n      iszero(iszero(0x00))\n      dup2\n      mstore\n      0x20\n      add\n      iszero(iszero(0x00))\n      dup2\n      mstore\n      pop\n      swap1\n      jump\t// out\n    tag_142:\n      dup3\n      dup1\n      sload\n      tag_159\n      swap1\n      tag_109\n      jump\t// in\n    tag_159:\n      swap1\n      0x00\n      mstore\n      keccak256(0x00, 0x20)\n      swap1\n      0x1f\n      add\n      0x20\n      swap1\n      div\n      dup2\n      add\n      swap3\n      dup3\n      tag_161\n      jumpi\n      0x00\n      dup6\n      sstore\n      jump(tag_160)\n    tag_161:\n      dup3\n      0x1f\n      lt\n      tag_162\n      jumpi\n      dup1\n      mload\n      not(0xff)\n      and\n      dup4\n      dup1\n      add\n      or\n      dup6\n      sstore\n      jump(tag_160)\n    tag_162:\n      dup3\n      dup1\n      add\n      0x01\n      add\n      dup6\n      sstore\n      dup3\n      iszero\n      tag_160\n      jumpi\n      swap2\n      dup3\n      add\n    tag_163:\n      dup3\n      dup2\n      gt\n      iszero\n      tag_164\n      jumpi\n      dup3\n      mload\n      dup3\n      sstore\n      swap2\n      0x20\n      add\n      swap2\n      swap1\n      0x01\n      add\n      swap1\n      jump(tag_163)\n    tag_164:\n    tag_160:\n      pop\n      swap1\n      pop\n      tag_165\n      swap2\n      swap1\n      tag_166\n      jump\t// in\n    tag_165:\n      pop\n      swap1\n      jump\t// out\n    tag_166:\n    tag_167:\n      dup1\n      dup3\n      gt\n      iszero\n      tag_168\n      jumpi\n      0x00\n      dup2\n      0x00\n      swap1\n      sstore\n      pop\n      0x01\n      add\n      jump(tag_167)\n    tag_168:\n      pop\n      swap1\n      jump\t// out\n        /* \"#utility.yul\":7:419   */\n    tag_170:\n        /* \"#utility.yul\":85:90   */\n      0x00\n        /* \"#utility.yul\":110:176   */\n      tag_172\n        /* \"#utility.yul\":126:175   */\n      tag_173\n        /* \"#utility.yul\":168:174   */\n      dup5\n        /* \"#utility.yul\":126:175   */\n      tag_174\n      jump\t// in\n    tag_173:\n        /* \"#utility.yul\":110:176   */\n      tag_175\n      jump\t// in\n    tag_172:\n        /* \"#utility.yul\":101:176   */\n      swap1\n      pop\n        /* \"#utility.yul\":199:205   */\n      dup3\n        /* \"#utility.yul\":192:197   */\n      dup2\n        /* \"#utility.yul\":185:206   */\n      mstore\n        /* \"#utility.yul\":237:241   */\n      0x20\n        /* \"#utility.yul\":230:235   */\n      dup2\n        /* \"#utility.yul\":226:242   */\n      add\n        /* \"#utility.yul\":275:278   */\n      dup5\n        /* \"#utility.yul\":266:272   */\n      dup5\n        /* \"#utility.yul\":261:264   */\n      dup5\n        /* \"#utility.yul\":257:273   */\n      add\n        /* \"#utility.yul\":254:279   */\n      gt\n        /* \"#utility.yul\":251:363   */\n      iszero\n      tag_176\n      jumpi\n        /* \"#utility.yul\":282:361   */\n      tag_177\n      tag_178\n      jump\t// in\n    tag_177:\n        /* \"#utility.yul\":251:363   */\n    tag_176:\n        /* \"#utility.yul\":372:413   */\n      tag_179\n        /* \"#utility.yul\":406:412   */\n      dup5\n        /* \"#utility.yul\":401:404   */\n      dup3\n        /* \"#utility.yul\":396:399   */\n      dup6\n        /* \"#utility.yul\":372:413   */\n      tag_180\n      jump\t// in\n    tag_179:\n        /* \"#utility.yul\":91:419   */\n      pop\n        /* \"#utility.yul\":7:419   */\n      swap4\n      swap3\n      pop\n      pop\n      pop\n      jump\t// out\n        /* \"#utility.yul\":425:564   */\n    tag_181:\n        /* \"#utility.yul\":471:476   */\n      0x00\n        /* \"#utility.yul\":509:515   */\n      dup2\n        /* \"#utility.yul\":496:516   */\n      calldataload\n        /* \"#utility.yul\":487:516   */\n      swap1\n      pop\n        /* \"#utility.yul\":525:558   */\n      tag_183\n        /* \"#utility.yul\":552:557   */\n      dup2\n        /* \"#utility.yul\":525:558   */\n      tag_184\n      jump\t// in\n    tag_183:\n        /* \"#utility.yul\":425:564   */\n      swap3\n      swap2\n      pop\n      pop\n      jump\t// out\n        /* \"#utility.yul\":584:924   */\n    tag_185:\n        /* \"#utility.yul\":640:645   */\n      0x00\n        /* \"#utility.yul\":689:692   */\n      dup3\n        /* \"#utility.yul\":682:686   */\n      0x1f\n        /* \"#utility.yul\":674:680   */\n      dup4\n        /* \"#utility.yul\":670:687   */\n      add\n        /* \"#utility.yul\":666:693   */\n      slt\n        /* \"#utility.yul\":656:778   */\n      tag_187\n      jumpi\n        /* \"#utility.yul\":697:776   */\n      tag_188\n      tag_189\n      jump\t// in\n    tag_188:\n        /* \"#utility.yul\":656:778   */\n    tag_187:\n        /* \"#utility.yul\":814:820   */\n      dup2\n        /* \"#utility.yul\":801:821   */\n      calldataload\n        /* \"#utility.yul\":839:918   */\n      tag_190\n        /* \"#utility.yul\":914:917   */\n      dup5\n        /* \"#utility.yul\":906:912   */\n      dup3\n        /* \"#utility.yul\":899:903   */\n      0x20\n        /* \"#utility.yul\":891:897   */\n      dup7\n        /* \"#utility.yul\":887:904   */\n      add\n        /* \"#utility.yul\":839:918   */\n      tag_170\n      jump\t// in\n    tag_190:\n        /* \"#utility.yul\":830:918   */\n      swap2\n      pop\n        /* \"#utility.yul\":646:924   */\n      pop\n        /* \"#utility.yul\":584:924   */\n      swap3\n      swap2\n      pop\n      pop\n      jump\t// out\n        /* \"#utility.yul\":930:1259   */\n    tag_14:\n        /* \"#utility.yul\":989:995   */\n      0x00\n        /* \"#utility.yul\":1038:1040   */\n      0x20\n        /* \"#utility.yul\":1026:1035   */\n      dup3\n        /* \"#utility.yul\":1017:1024   */\n      dup5\n        /* \"#utility.yul\":1013:1036   */\n      sub\n        /* \"#utility.yul\":1009:1041   */\n      slt\n        /* \"#utility.yul\":1006:1125   */\n      iszero\n      tag_192\n      jumpi\n        /* \"#utility.yul\":1044:1123   */\n      tag_193\n      tag_194\n      jump\t// in\n    tag_193:\n        /* \"#utility.yul\":1006:1125   */\n    tag_192:\n        /* \"#utility.yul\":1164:1165   */\n      0x00\n        /* \"#utility.yul\":1189:1242   */\n      tag_195\n        /* \"#utility.yul\":1234:1241   */\n      dup5\n        /* \"#utility.yul\":1225:1231   */\n      dup3\n        /* \"#utility.yul\":1214:1223   */\n      dup6\n        /* \"#utility.yul\":1210:1232   */\n      add\n        /* \"#utility.yul\":1189:1242   */\n      tag_181\n      jump\t// in\n    tag_195:\n        /* \"#utility.yul\":1179:1242   */\n      swap2\n      pop\n        /* \"#utility.yul\":1135:1252   */\n      pop\n        /* \"#utility.yul\":930:1259   */\n      swap3\n      swap2\n      pop\n      pop\n      jump\t// out\n        /* \"#utility.yul\":1265:1774   */\n    tag_37:\n        /* \"#utility.yul\":1334:1340   */\n      0x00\n        /* \"#utility.yul\":1383:1385   */\n      0x20\n        /* \"#utility.yul\":1371:1380   */\n      dup3\n        /* \"#utility.yul\":1362:1369   */\n      dup5\n        /* \"#utility.yul\":1358:1381   */\n      sub\n        /* \"#utility.yul\":1354:1386   */\n      slt\n        /* \"#utility.yul\":1351:1470   */\n      iszero\n      tag_197\n      jumpi\n        /* \"#utility.yul\":1389:1468   */\n      tag_198\n      tag_194\n      jump\t// in\n    tag_198:\n        /* \"#utility.yul\":1351:1470   */\n    tag_197:\n        /* \"#utility.yul\":1537:1538   */\n      0x00\n        /* \"#utility.yul\":1526:1535   */\n      dup3\n        /* \"#utility.yul\":1522:1539   */\n      add\n        /* \"#utility.yul\":1509:1540   */\n      calldataload\n        /* \"#utility.yul\":1567:1585   */\n      0xffffffffffffffff\n        /* \"#utility.yul\":1559:1565   */\n      dup2\n        /* \"#utility.yul\":1556:1586   */\n      gt\n        /* \"#utility.yul\":1553:1670   */\n      iszero\n      tag_199\n      jumpi\n        /* \"#utility.yul\":1589:1668   */\n      tag_200\n      tag_201\n      jump\t// in\n    tag_200:\n        /* \"#utility.yul\":1553:1670   */\n    tag_199:\n        /* \"#utility.yul\":1694:1757   */\n      tag_202\n        /* \"#utility.yul\":1749:1756   */\n      dup5\n        /* \"#utility.yul\":1740:1746   */\n      dup3\n        /* \"#utility.yul\":1729:1738   */\n      dup6\n        /* \"#utility.yul\":1725:1747   */\n      add\n        /* \"#utility.yul\":1694:1757   */\n      tag_185\n      jump\t// in\n    tag_202:\n        /* \"#utility.yul\":1684:1757   */\n      swap2\n      pop\n        /* \"#utility.yul\":1480:1767   */\n      pop\n        /* \"#utility.yul\":1265:1774   */\n      swap3\n      swap2\n      pop\n      pop\n      jump\t// out\n        /* \"#utility.yul\":1780:2759   */\n    tag_33:\n        /* \"#utility.yul\":1877:1883   */\n      0x00\n        /* \"#utility.yul\":1885:1891   */\n      dup1\n        /* \"#utility.yul\":1893:1899   */\n      0x00\n        /* \"#utility.yul\":1942:1944   */\n      0x60\n        /* \"#utility.yul\":1930:1939   */\n      dup5\n        /* \"#utility.yul\":1921:1928   */\n      dup7\n        /* \"#utility.yul\":1917:1940   */\n      sub\n        /* \"#utility.yul\":1913:1945   */\n      slt\n        /* \"#utility.yul\":1910:2029   */\n      iszero\n      tag_204\n      jumpi\n        /* \"#utility.yul\":1948:2027   */\n      tag_205\n      tag_194\n      jump\t// in\n    tag_205:\n        /* \"#utility.yul\":1910:2029   */\n    tag_204:\n        /* \"#utility.yul\":2096:2097   */\n      0x00\n        /* \"#utility.yul\":2085:2094   */\n      dup5\n        /* \"#utility.yul\":2081:2098   */\n      add\n        /* \"#utility.yul\":2068:2099   */\n      calldataload\n        /* \"#utility.yul\":2126:2144   */\n      0xffffffffffffffff\n        /* \"#utility.yul\":2118:2124   */\n      dup2\n        /* \"#utility.yul\":2115:2145   */\n      gt\n        /* \"#utility.yul\":2112:2229   */\n      iszero\n      tag_206\n      jumpi\n        /* \"#utility.yul\":2148:2227   */\n      tag_207\n      tag_201\n      jump\t// in\n    tag_207:\n        /* \"#utility.yul\":2112:2229   */\n    tag_206:\n        /* \"#utility.yul\":2253:2316   */\n      tag_208\n        /* \"#utility.yul\":2308:2315   */\n      dup7\n        /* \"#utility.yul\":2299:2305   */\n      dup3\n        /* \"#utility.yul\":2288:2297   */\n      dup8\n        /* \"#utility.yul\":2284:2306   */\n      add\n        /* \"#utility.yul\":2253:2316   */\n      tag_185\n      jump\t// in\n    tag_208:\n        /* \"#utility.yul\":2243:2316   */\n      swap4\n      pop\n        /* \"#utility.yul\":2039:2326   */\n      pop\n        /* \"#utility.yul\":2393:2395   */\n      0x20\n        /* \"#utility.yul\":2382:2391   */\n      dup5\n        /* \"#utility.yul\":2378:2396   */\n      add\n        /* \"#utility.yul\":2365:2397   */\n      calldataload\n        /* \"#utility.yul\":2424:2442   */\n      0xffffffffffffffff\n        /* \"#utility.yul\":2416:2422   */\n      dup2\n        /* \"#utility.yul\":2413:2443   */\n      gt\n        /* \"#utility.yul\":2410:2527   */\n      iszero\n      tag_209\n      jumpi\n        /* \"#utility.yul\":2446:2525   */\n      tag_210\n      tag_201\n      jump\t// in\n    tag_210:\n        /* \"#utility.yul\":2410:2527   */\n    tag_209:\n        /* \"#utility.yul\":2551:2614   */\n      tag_211\n        /* \"#utility.yul\":2606:2613   */\n      dup7\n        /* \"#utility.yul\":2597:2603   */\n      dup3\n        /* \"#utility.yul\":2586:2595   */\n      dup8\n        /* \"#utility.yul\":2582:2604   */\n      add\n        /* \"#utility.yul\":2551:2614   */\n      tag_185\n      jump\t// in\n    tag_211:\n        /* \"#utility.yul\":2541:2614   */\n      swap3\n      pop\n        /* \"#utility.yul\":2336:2624   */\n      pop\n        /* \"#utility.yul\":2663:2665   */\n      0x40\n        /* \"#utility.yul\":2689:2742   */\n      tag_212\n        /* \"#utility.yul\":2734:2741   */\n      dup7\n        /* \"#utility.yul\":2725:2731   */\n      dup3\n        /* \"#utility.yul\":2714:2723   */\n      dup8\n        /* \"#utility.yul\":2710:2732   */\n      add\n        /* \"#utility.yul\":2689:2742   */\n      tag_181\n      jump\t// in\n    tag_212:\n        /* \"#utility.yul\":2679:2742   */\n      swap2\n      pop\n        /* \"#utility.yul\":2634:2752   */\n      pop\n        /* \"#utility.yul\":1780:2759   */\n      swap3\n      pop\n      swap3\n      pop\n      swap3\n      jump\t// out\n        /* \"#utility.yul\":2765:2944   */\n    tag_213:\n        /* \"#utility.yul\":2834:2844   */\n      0x00\n        /* \"#utility.yul\":2855:2901   */\n      tag_215\n        /* \"#utility.yul\":2897:2900   */\n      dup4\n        /* \"#utility.yul\":2889:2895   */\n      dup4\n        /* \"#utility.yul\":2855:2901   */\n      tag_216\n      jump\t// in\n    tag_215:\n        /* \"#utility.yul\":2933:2937   */\n      0x20\n        /* \"#utility.yul\":2928:2931   */\n      dup4\n        /* \"#utility.yul\":2924:2938   */\n      add\n        /* \"#utility.yul\":2910:2938   */\n      swap1\n      pop\n        /* \"#utility.yul\":2765:2944   */\n      swap3\n      swap2\n      pop\n      pop\n      jump\t// out\n        /* \"#utility.yul\":2950:3058   */\n    tag_216:\n        /* \"#utility.yul\":3027:3051   */\n      tag_218\n        /* \"#utility.yul\":3045:3050   */\n      dup2\n        /* \"#utility.yul\":3027:3051   */\n      tag_219\n      jump\t// in\n    tag_218:\n        /* \"#utility.yul\":3022:3025   */\n      dup3\n        /* \"#utility.yul\":3015:3052   */\n      mstore\n        /* \"#utility.yul\":2950:3058   */\n      pop\n      pop\n      jump\t// out\n        /* \"#utility.yul\":3094:3826   */\n    tag_220:\n        /* \"#utility.yul\":3213:3216   */\n      0x00\n        /* \"#utility.yul\":3242:3296   */\n      tag_222\n        /* \"#utility.yul\":3290:3295   */\n      dup3\n        /* \"#utility.yul\":3242:3296   */\n      tag_223\n      jump\t// in\n    tag_222:\n        /* \"#utility.yul\":3312:3398   */\n      tag_224\n        /* \"#utility.yul\":3391:3397   */\n      dup2\n        /* \"#utility.yul\":3386:3389   */\n      dup6\n        /* \"#utility.yul\":3312:3398   */\n      tag_225\n      jump\t// in\n    tag_224:\n        /* \"#utility.yul\":3305:3398   */\n      swap4\n      pop\n        /* \"#utility.yul\":3422:3478   */\n      tag_226\n        /* \"#utility.yul\":3472:3477   */\n      dup4\n        /* \"#utility.yul\":3422:3478   */\n      tag_227\n      jump\t// in\n    tag_226:\n        /* \"#utility.yul\":3501:3508   */\n      dup1\n        /* \"#utility.yul\":3532:3533   */\n      0x00\n        /* \"#utility.yul\":3517:3801   */\n    tag_228:\n        /* \"#utility.yul\":3542:3548   */\n      dup4\n        /* \"#utility.yul\":3539:3540   */\n      dup2\n        /* \"#utility.yul\":3536:3549   */\n      lt\n        /* \"#utility.yul\":3517:3801   */\n      iszero\n      tag_230\n      jumpi\n        /* \"#utility.yul\":3618:3624   */\n      dup2\n        /* \"#utility.yul\":3612:3625   */\n      mload\n        /* \"#utility.yul\":3645:3708   */\n      tag_231\n        /* \"#utility.yul\":3704:3707   */\n      dup9\n        /* \"#utility.yul\":3689:3702   */\n      dup3\n        /* \"#utility.yul\":3645:3708   */\n      tag_213\n      jump\t// in\n    tag_231:\n        /* \"#utility.yul\":3638:3708   */\n      swap8\n      pop\n        /* \"#utility.yul\":3731:3791   */\n      tag_232\n        /* \"#utility.yul\":3784:3790   */\n      dup4\n        /* \"#utility.yul\":3731:3791   */\n      tag_233\n      jump\t// in\n    tag_232:\n        /* \"#utility.yul\":3721:3791   */\n      swap3\n      pop\n        /* \"#utility.yul\":3577:3801   */\n      pop\n        /* \"#utility.yul\":3564:3565   */\n      0x01\n        /* \"#utility.yul\":3561:3562   */\n      dup2\n        /* \"#utility.yul\":3557:3566   */\n      add\n        /* \"#utility.yul\":3552:3566   */\n      swap1\n      pop\n        /* \"#utility.yul\":3517:3801   */\n      jump(tag_228)\n    tag_230:\n        /* \"#utility.yul\":3521:3535   */\n      pop\n        /* \"#utility.yul\":3817:3820   */\n      dup6\n        /* \"#utility.yul\":3810:3820   */\n      swap4\n      pop\n        /* \"#utility.yul\":3218:3826   */\n      pop\n      pop\n      pop\n        /* \"#utility.yul\":3094:3826   */\n      swap3\n      swap2\n      pop\n      pop\n      jump\t// out\n        /* \"#utility.yul\":3832:3931   */\n    tag_234:\n        /* \"#utility.yul\":3903:3924   */\n      tag_236\n        /* \"#utility.yul\":3918:3923   */\n      dup2\n        /* \"#utility.yul\":3903:3924   */\n      tag_237\n      jump\t// in\n    tag_236:\n        /* \"#utility.yul\":3898:3901   */\n      dup3\n        /* \"#utility.yul\":3891:3925   */\n      mstore\n        /* \"#utility.yul\":3832:3931   */\n      pop\n      pop\n      jump\t// out\n        /* \"#utility.yul\":3937:4055   */\n    tag_238:\n        /* \"#utility.yul\":4024:4048   */\n      tag_240\n        /* \"#utility.yul\":4042:4047   */\n      dup2\n        /* \"#utility.yul\":4024:4048   */\n      tag_241\n      jump\t// in\n    tag_240:\n        /* \"#utility.yul\":4019:4022   */\n      dup3\n        /* \"#utility.yul\":4012:4049   */\n      mstore\n        /* \"#utility.yul\":3937:4055   */\n      pop\n      pop\n      jump\t// out\n        /* \"#utility.yul\":4061:4405   */\n    tag_242:\n        /* \"#utility.yul\":4139:4142   */\n      0x00\n        /* \"#utility.yul\":4167:4206   */\n      tag_244\n        /* \"#utility.yul\":4200:4205   */\n      dup3\n        /* \"#utility.yul\":4167:4206   */\n      tag_245\n      jump\t// in\n    tag_244:\n        /* \"#utility.yul\":4222:4283   */\n      tag_246\n        /* \"#utility.yul\":4276:4282   */\n      dup2\n        /* \"#utility.yul\":4271:4274   */\n      dup6\n        /* \"#utility.yul\":4222:4283   */\n      tag_247\n      jump\t// in\n    tag_246:\n        /* \"#utility.yul\":4215:4283   */\n      swap4\n      pop\n        /* \"#utility.yul\":4292:4344   */\n      tag_248\n        /* \"#utility.yul\":4337:4343   */\n      dup2\n        /* \"#utility.yul\":4332:4335   */\n      dup6\n        /* \"#utility.yul\":4325:4329   */\n      0x20\n        /* \"#utility.yul\":4318:4323   */\n      dup7\n        /* \"#utility.yul\":4314:4330   */\n      add\n        /* \"#utility.yul\":4292:4344   */\n      tag_249\n      jump\t// in\n    tag_248:\n        /* \"#utility.yul\":4369:4398   */\n      tag_250\n        /* \"#utility.yul\":4391:4397   */\n      dup2\n        /* \"#utility.yul\":4369:4398   */\n      tag_251\n      jump\t// in\n    tag_250:\n        /* \"#utility.yul\":4364:4367   */\n      dup5\n        /* \"#utility.yul\":4360:4399   */\n      add\n        /* \"#utility.yul\":4353:4399   */\n      swap2\n      pop\n        /* \"#utility.yul\":4143:4405   */\n      pop\n        /* \"#utility.yul\":4061:4405   */\n      swap3\n      swap2\n      pop\n      pop\n      jump\t// out\n        /* \"#utility.yul\":4411:4788   */\n    tag_252:\n        /* \"#utility.yul\":4517:4520   */\n      0x00\n        /* \"#utility.yul\":4545:4584   */\n      tag_254\n        /* \"#utility.yul\":4578:4583   */\n      dup3\n        /* \"#utility.yul\":4545:4584   */\n      tag_245\n      jump\t// in\n    tag_254:\n        /* \"#utility.yul\":4600:4689   */\n      tag_255\n        /* \"#utility.yul\":4682:4688   */\n      dup2\n        /* \"#utility.yul\":4677:4680   */\n      dup6\n        /* \"#utility.yul\":4600:4689   */\n      tag_256\n      jump\t// in\n    tag_255:\n        /* \"#utility.yul\":4593:4689   */\n      swap4\n      pop\n        /* \"#utility.yul\":4698:4750   */\n      tag_257\n        /* \"#utility.yul\":4743:4749   */\n      dup2\n        /* \"#utility.yul\":4738:4741   */\n      dup6\n        /* \"#utility.yul\":4731:4735   */\n      0x20\n        /* \"#utility.yul\":4724:4729   */\n      dup7\n        /* \"#utility.yul\":4720:4736   */\n      add\n        /* \"#utility.yul\":4698:4750   */\n      tag_249\n      jump\t// in\n    tag_257:\n        /* \"#utility.yul\":4775:4781   */\n      dup1\n        /* \"#utility.yul\":4770:4773   */\n      dup5\n        /* \"#utility.yul\":4766:4782   */\n      add\n        /* \"#utility.yul\":4759:4782   */\n      swap2\n      pop\n        /* \"#utility.yul\":4521:4788   */\n      pop\n        /* \"#utility.yul\":4411:4788   */\n      swap3\n      swap2\n      pop\n      pop\n      jump\t// out\n        /* \"#utility.yul\":4794:5160   */\n    tag_258:\n        /* \"#utility.yul\":4936:4939   */\n      0x00\n        /* \"#utility.yul\":4957:5024   */\n      tag_260\n        /* \"#utility.yul\":5021:5023   */\n      0x1c\n        /* \"#utility.yul\":5016:5019   */\n      dup4\n        /* \"#utility.yul\":4957:5024   */\n      tag_261\n      jump\t// in\n    tag_260:\n        /* \"#utility.yul\":4950:5024   */\n      swap2\n      pop\n        /* \"#utility.yul\":5033:5126   */\n      tag_262\n        /* \"#utility.yul\":5122:5125   */\n      dup3\n        /* \"#utility.yul\":5033:5126   */\n      tag_263\n      jump\t// in\n    tag_262:\n        /* \"#utility.yul\":5151:5153   */\n      0x20\n        /* \"#utility.yul\":5146:5149   */\n      dup3\n        /* \"#utility.yul\":5142:5154   */\n      add\n        /* \"#utility.yul\":5135:5154   */\n      swap1\n      pop\n        /* \"#utility.yul\":4794:5160   */\n      swap2\n      swap1\n      pop\n      jump\t// out\n        /* \"#utility.yul\":5166:5532   */\n    tag_264:\n        /* \"#utility.yul\":5308:5311   */\n      0x00\n        /* \"#utility.yul\":5329:5396   */\n      tag_266\n        /* \"#utility.yul\":5393:5395   */\n      0x18\n        /* \"#utility.yul\":5388:5391   */\n      dup4\n        /* \"#utility.yul\":5329:5396   */\n      tag_261\n      jump\t// in\n    tag_266:\n        /* \"#utility.yul\":5322:5396   */\n      swap2\n      pop\n        /* \"#utility.yul\":5405:5498   */\n      tag_267\n        /* \"#utility.yul\":5494:5497   */\n      dup3\n        /* \"#utility.yul\":5405:5498   */\n      tag_268\n      jump\t// in\n    tag_267:\n        /* \"#utility.yul\":5523:5525   */\n      0x20\n        /* \"#utility.yul\":5518:5521   */\n      dup3\n        /* \"#utility.yul\":5514:5526   */\n      add\n        /* \"#utility.yul\":5507:5526   */\n      swap1\n      pop\n        /* \"#utility.yul\":5166:5532   */\n      swap2\n      swap1\n      pop\n      jump\t// out\n        /* \"#utility.yul\":5538:5904   */\n    tag_269:\n        /* \"#utility.yul\":5680:5683   */\n      0x00\n        /* \"#utility.yul\":5701:5768   */\n      tag_271\n        /* \"#utility.yul\":5765:5767   */\n      0x2a\n        /* \"#utility.yul\":5760:5763   */\n      dup4\n        /* \"#utility.yul\":5701:5768   */\n      tag_261\n      jump\t// in\n    tag_271:\n        /* \"#utility.yul\":5694:5768   */\n      swap2\n      pop\n        /* \"#utility.yul\":5777:5870   */\n      tag_272\n        /* \"#utility.yul\":5866:5869   */\n      dup3\n        /* \"#utility.yul\":5777:5870   */\n      tag_273\n      jump\t// in\n    tag_272:\n        /* \"#utility.yul\":5895:5897   */\n      0x40\n        /* \"#utility.yul\":5890:5893   */\n      dup3\n        /* \"#utility.yul\":5886:5898   */\n      add\n        /* \"#utility.yul\":5879:5898   */\n      swap1\n      pop\n        /* \"#utility.yul\":5538:5904   */\n      swap2\n      swap1\n      pop\n      jump\t// out\n        /* \"#utility.yul\":5910:6276   */\n    tag_274:\n        /* \"#utility.yul\":6052:6055   */\n      0x00\n        /* \"#utility.yul\":6073:6140   */\n      tag_276\n        /* \"#utility.yul\":6137:6139   */\n      0x0e\n        /* \"#utility.yul\":6132:6135   */\n      dup4\n        /* \"#utility.yul\":6073:6140   */\n      tag_261\n      jump\t// in\n    tag_276:\n        /* \"#utility.yul\":6066:6140   */\n      swap2\n      pop\n        /* \"#utility.yul\":6149:6242   */\n      tag_277\n        /* \"#utility.yul\":6238:6241   */\n      dup3\n        /* \"#utility.yul\":6149:6242   */\n      tag_278\n      jump\t// in\n    tag_277:\n        /* \"#utility.yul\":6267:6269   */\n      0x20\n        /* \"#utility.yul\":6262:6265   */\n      dup3\n        /* \"#utility.yul\":6258:6270   */\n      add\n        /* \"#utility.yul\":6251:6270   */\n      swap1\n      pop\n        /* \"#utility.yul\":5910:6276   */\n      swap2\n      swap1\n      pop\n      jump\t// out\n        /* \"#utility.yul\":6282:6648   */\n    tag_279:\n        /* \"#utility.yul\":6424:6427   */\n      0x00\n        /* \"#utility.yul\":6445:6512   */\n      tag_281\n        /* \"#utility.yul\":6509:6511   */\n      0x19\n        /* \"#utility.yul\":6504:6507   */\n      dup4\n        /* \"#utility.yul\":6445:6512   */\n      tag_261\n      jump\t// in\n    tag_281:\n        /* \"#utility.yul\":6438:6512   */\n      swap2\n      pop\n        /* \"#utility.yul\":6521:6614   */\n      tag_282\n        /* \"#utility.yul\":6610:6613   */\n      dup3\n        /* \"#utility.yul\":6521:6614   */\n      tag_283\n      jump\t// in\n    tag_282:\n        /* \"#utility.yul\":6639:6641   */\n      0x20\n        /* \"#utility.yul\":6634:6637   */\n      dup3\n        /* \"#utility.yul\":6630:6642   */\n      add\n        /* \"#utility.yul\":6623:6642   */\n      swap1\n      pop\n        /* \"#utility.yul\":6282:6648   */\n      swap2\n      swap1\n      pop\n      jump\t// out\n        /* \"#utility.yul\":6654:7020   */\n    tag_284:\n        /* \"#utility.yul\":6796:6799   */\n      0x00\n        /* \"#utility.yul\":6817:6884   */\n      tag_286\n        /* \"#utility.yul\":6881:6883   */\n      0x17\n        /* \"#utility.yul\":6876:6879   */\n      dup4\n        /* \"#utility.yul\":6817:6884   */\n      tag_261\n      jump\t// in\n    tag_286:\n        /* \"#utility.yul\":6810:6884   */\n      swap2\n      pop\n        /* \"#utility.yul\":6893:6986   */\n      tag_287\n        /* \"#utility.yul\":6982:6985   */\n      dup3\n        /* \"#utility.yul\":6893:6986   */\n      tag_288\n      jump\t// in\n    tag_287:\n        /* \"#utility.yul\":7011:7013   */\n      0x20\n        /* \"#utility.yul\":7006:7009   */\n      dup3\n        /* \"#utility.yul\":7002:7014   */\n      add\n        /* \"#utility.yul\":6995:7014   */\n      swap1\n      pop\n        /* \"#utility.yul\":6654:7020   */\n      swap2\n      swap1\n      pop\n      jump\t// out\n        /* \"#utility.yul\":7026:7392   */\n    tag_289:\n        /* \"#utility.yul\":7168:7171   */\n      0x00\n        /* \"#utility.yul\":7189:7256   */\n      tag_291\n        /* \"#utility.yul\":7253:7255   */\n      0x37\n        /* \"#utility.yul\":7248:7251   */\n      dup4\n        /* \"#utility.yul\":7189:7256   */\n      tag_261\n      jump\t// in\n    tag_291:\n        /* \"#utility.yul\":7182:7256   */\n      swap2\n      pop\n        /* \"#utility.yul\":7265:7358   */\n      tag_292\n        /* \"#utility.yul\":7354:7357   */\n      dup3\n        /* \"#utility.yul\":7265:7358   */\n      tag_293\n      jump\t// in\n    tag_292:\n        /* \"#utility.yul\":7383:7385   */\n      0x40\n        /* \"#utility.yul\":7378:7381   */\n      dup3\n        /* \"#utility.yul\":7374:7386   */\n      add\n        /* \"#utility.yul\":7367:7386   */\n      swap1\n      pop\n        /* \"#utility.yul\":7026:7392   */\n      swap2\n      swap1\n      pop\n      jump\t// out\n        /* \"#utility.yul\":7480:8882   */\n    tag_294:\n        /* \"#utility.yul\":7617:7620   */\n      0x00\n        /* \"#utility.yul\":7653:7657   */\n      0xc0\n        /* \"#utility.yul\":7648:7651   */\n      dup4\n        /* \"#utility.yul\":7644:7658   */\n      add\n        /* \"#utility.yul\":7740:7744   */\n      0x00\n        /* \"#utility.yul\":7733:7738   */\n      dup4\n        /* \"#utility.yul\":7729:7745   */\n      add\n        /* \"#utility.yul\":7723:7746   */\n      mload\n        /* \"#utility.yul\":7793:7796   */\n      dup5\n        /* \"#utility.yul\":7787:7791   */\n      dup3\n        /* \"#utility.yul\":7783:7797   */\n      sub\n        /* \"#utility.yul\":7776:7780   */\n      0x00\n        /* \"#utility.yul\":7771:7774   */\n      dup7\n        /* \"#utility.yul\":7767:7781   */\n      add\n        /* \"#utility.yul\":7760:7798   */\n      mstore\n        /* \"#utility.yul\":7819:7892   */\n      tag_296\n        /* \"#utility.yul\":7887:7891   */\n      dup3\n        /* \"#utility.yul\":7873:7885   */\n      dup3\n        /* \"#utility.yul\":7819:7892   */\n      tag_242\n      jump\t// in\n    tag_296:\n        /* \"#utility.yul\":7811:7892   */\n      swap2\n      pop\n        /* \"#utility.yul\":7668:7903   */\n      pop\n        /* \"#utility.yul\":8004:8008   */\n      0x20\n        /* \"#utility.yul\":7997:8002   */\n      dup4\n        /* \"#utility.yul\":7993:8009   */\n      add\n        /* \"#utility.yul\":7987:8010   */\n      mload\n        /* \"#utility.yul\":8057:8060   */\n      dup5\n        /* \"#utility.yul\":8051:8055   */\n      dup3\n        /* \"#utility.yul\":8047:8061   */\n      sub\n        /* \"#utility.yul\":8040:8044   */\n      0x20\n        /* \"#utility.yul\":8035:8038   */\n      dup7\n        /* \"#utility.yul\":8031:8045   */\n      add\n        /* \"#utility.yul\":8024:8062   */\n      mstore\n        /* \"#utility.yul\":8083:8156   */\n      tag_297\n        /* \"#utility.yul\":8151:8155   */\n      dup3\n        /* \"#utility.yul\":8137:8149   */\n      dup3\n        /* \"#utility.yul\":8083:8156   */\n      tag_242\n      jump\t// in\n    tag_297:\n        /* \"#utility.yul\":8075:8156   */\n      swap2\n      pop\n        /* \"#utility.yul\":7913:8167   */\n      pop\n        /* \"#utility.yul\":8252:8256   */\n      0x40\n        /* \"#utility.yul\":8245:8250   */\n      dup4\n        /* \"#utility.yul\":8241:8257   */\n      add\n        /* \"#utility.yul\":8235:8258   */\n      mload\n        /* \"#utility.yul\":8271:8334   */\n      tag_298\n        /* \"#utility.yul\":8328:8332   */\n      0x40\n        /* \"#utility.yul\":8323:8326   */\n      dup7\n        /* \"#utility.yul\":8319:8333   */\n      add\n        /* \"#utility.yul\":8305:8317   */\n      dup3\n        /* \"#utility.yul\":8271:8334   */\n      tag_216\n      jump\t// in\n    tag_298:\n        /* \"#utility.yul\":8177:8344   */\n      pop\n        /* \"#utility.yul\":8428:8432   */\n      0x60\n        /* \"#utility.yul\":8421:8426   */\n      dup4\n        /* \"#utility.yul\":8417:8433   */\n      add\n        /* \"#utility.yul\":8411:8434   */\n      mload\n        /* \"#utility.yul\":8447:8504   */\n      tag_299\n        /* \"#utility.yul\":8498:8502   */\n      0x60\n        /* \"#utility.yul\":8493:8496   */\n      dup7\n        /* \"#utility.yul\":8489:8503   */\n      add\n        /* \"#utility.yul\":8475:8487   */\n      dup3\n        /* \"#utility.yul\":8447:8504   */\n      tag_234\n      jump\t// in\n    tag_299:\n        /* \"#utility.yul\":8354:8514   */\n      pop\n        /* \"#utility.yul\":8600:8604   */\n      0x80\n        /* \"#utility.yul\":8593:8598   */\n      dup4\n        /* \"#utility.yul\":8589:8605   */\n      add\n        /* \"#utility.yul\":8583:8606   */\n      mload\n        /* \"#utility.yul\":8619:8676   */\n      tag_300\n        /* \"#utility.yul\":8670:8674   */\n      0x80\n        /* \"#utility.yul\":8665:8668   */\n      dup7\n        /* \"#utility.yul\":8661:8675   */\n      add\n        /* \"#utility.yul\":8647:8659   */\n      dup3\n        /* \"#utility.yul\":8619:8676   */\n      tag_234\n      jump\t// in\n    tag_300:\n        /* \"#utility.yul\":8524:8686   */\n      pop\n        /* \"#utility.yul\":8769:8773   */\n      0xa0\n        /* \"#utility.yul\":8762:8767   */\n      dup4\n        /* \"#utility.yul\":8758:8774   */\n      add\n        /* \"#utility.yul\":8752:8775   */\n      mload\n        /* \"#utility.yul\":8788:8845   */\n      tag_301\n        /* \"#utility.yul\":8839:8843   */\n      0xa0\n        /* \"#utility.yul\":8834:8837   */\n      dup7\n        /* \"#utility.yul\":8830:8844   */\n      add\n        /* \"#utility.yul\":8816:8828   */\n      dup3\n        /* \"#utility.yul\":8788:8845   */\n      tag_234\n      jump\t// in\n    tag_301:\n        /* \"#utility.yul\":8696:8855   */\n      pop\n        /* \"#utility.yul\":8872:8876   */\n      dup1\n        /* \"#utility.yul\":8865:8876   */\n      swap2\n      pop\n        /* \"#utility.yul\":7622:8882   */\n      pop\n        /* \"#utility.yul\":7480:8882   */\n      swap3\n      swap2\n      pop\n      pop\n      jump\t// out\n        /* \"#utility.yul\":8888:9163   */\n    tag_147:\n        /* \"#utility.yul\":9020:9023   */\n      0x00\n        /* \"#utility.yul\":9042:9137   */\n      tag_303\n        /* \"#utility.yul\":9133:9136   */\n      dup3\n        /* \"#utility.yul\":9124:9130   */\n      dup5\n        /* \"#utility.yul\":9042:9137   */\n      tag_252\n      jump\t// in\n    tag_303:\n        /* \"#utility.yul\":9035:9137   */\n      swap2\n      pop\n        /* \"#utility.yul\":9154:9157   */\n      dup2\n        /* \"#utility.yul\":9147:9157   */\n      swap1\n      pop\n        /* \"#utility.yul\":8888:9163   */\n      swap3\n      swap2\n      pop\n      pop\n      jump\t// out\n        /* \"#utility.yul\":9169:9542   */\n    tag_22:\n        /* \"#utility.yul\":9312:9316   */\n      0x00\n        /* \"#utility.yul\":9350:9352   */\n      0x20\n        /* \"#utility.yul\":9339:9348   */\n      dup3\n        /* \"#utility.yul\":9335:9353   */\n      add\n        /* \"#utility.yul\":9327:9353   */\n      swap1\n      pop\n        /* \"#utility.yul\":9399:9408   */\n      dup2\n        /* \"#utility.yul\":9393:9397   */\n      dup2\n        /* \"#utility.yul\":9389:9409   */\n      sub\n        /* \"#utility.yul\":9385:9386   */\n      0x00\n        /* \"#utility.yul\":9374:9383   */\n      dup4\n        /* \"#utility.yul\":9370:9387   */\n      add\n        /* \"#utility.yul\":9363:9410   */\n      mstore\n        /* \"#utility.yul\":9427:9535   */\n      tag_305\n        /* \"#utility.yul\":9530:9534   */\n      dup2\n        /* \"#utility.yul\":9521:9527   */\n      dup5\n        /* \"#utility.yul\":9427:9535   */\n      tag_220\n      jump\t// in\n    tag_305:\n        /* \"#utility.yul\":9419:9535   */\n      swap1\n      pop\n        /* \"#utility.yul\":9169:9542   */\n      swap3\n      swap2\n      pop\n      pop\n      jump\t// out\n        /* \"#utility.yul\":9548:9770   */\n    tag_40:\n        /* \"#utility.yul\":9641:9645   */\n      0x00\n        /* \"#utility.yul\":9679:9681   */\n      0x20\n        /* \"#utility.yul\":9668:9677   */\n      dup3\n        /* \"#utility.yul\":9664:9682   */\n      add\n        /* \"#utility.yul\":9656:9682   */\n      swap1\n      pop\n        /* \"#utility.yul\":9692:9763   */\n      tag_307\n        /* \"#utility.yul\":9760:9761   */\n      0x00\n        /* \"#utility.yul\":9749:9758   */\n      dup4\n        /* \"#utility.yul\":9745:9762   */\n      add\n        /* \"#utility.yul\":9736:9742   */\n      dup5\n        /* \"#utility.yul\":9692:9763   */\n      tag_238\n      jump\t// in\n    tag_307:\n        /* \"#utility.yul\":9548:9770   */\n      swap3\n      swap2\n      pop\n      pop\n      jump\t// out\n        /* \"#utility.yul\":9776:10195   */\n    tag_66:\n        /* \"#utility.yul\":9942:9946   */\n      0x00\n        /* \"#utility.yul\":9980:9982   */\n      0x20\n        /* \"#utility.yul\":9969:9978   */\n      dup3\n        /* \"#utility.yul\":9965:9983   */\n      add\n        /* \"#utility.yul\":9957:9983   */\n      swap1\n      pop\n        /* \"#utility.yul\":10029:10038   */\n      dup2\n        /* \"#utility.yul\":10023:10027   */\n      dup2\n        /* \"#utility.yul\":10019:10039   */\n      sub\n        /* \"#utility.yul\":10015:10016   */\n      0x00\n        /* \"#utility.yul\":10004:10013   */\n      dup4\n        /* \"#utility.yul\":10000:10017   */\n      add\n        /* \"#utility.yul\":9993:10040   */\n      mstore\n        /* \"#utility.yul\":10057:10188   */\n      tag_309\n        /* \"#utility.yul\":10183:10187   */\n      dup2\n        /* \"#utility.yul\":10057:10188   */\n      tag_258\n      jump\t// in\n    tag_309:\n        /* \"#utility.yul\":10049:10188   */\n      swap1\n      pop\n        /* \"#utility.yul\":9776:10195   */\n      swap2\n      swap1\n      pop\n      jump\t// out\n        /* \"#utility.yul\":10201:10620   */\n    tag_137:\n        /* \"#utility.yul\":10367:10371   */\n      0x00\n        /* \"#utility.yul\":10405:10407   */\n      0x20\n        /* \"#utility.yul\":10394:10403   */\n      dup3\n        /* \"#utility.yul\":10390:10408   */\n      add\n        /* \"#utility.yul\":10382:10408   */\n      swap1\n      pop\n        /* \"#utility.yul\":10454:10463   */\n      dup2\n        /* \"#utility.yul\":10448:10452   */\n      dup2\n        /* \"#utility.yul\":10444:10464   */\n      sub\n        /* \"#utility.yul\":10440:10441   */\n      0x00\n        /* \"#utility.yul\":10429:10438   */\n      dup4\n        /* \"#utility.yul\":10425:10442   */\n      add\n        /* \"#utility.yul\":10418:10465   */\n      mstore\n        /* \"#utility.yul\":10482:10613   */\n      tag_311\n        /* \"#utility.yul\":10608:10612   */\n      dup2\n        /* \"#utility.yul\":10482:10613   */\n      tag_264\n      jump\t// in\n    tag_311:\n        /* \"#utility.yul\":10474:10613   */\n      swap1\n      pop\n        /* \"#utility.yul\":10201:10620   */\n      swap2\n      swap1\n      pop\n      jump\t// out\n        /* \"#utility.yul\":10626:11045   */\n    tag_140:\n        /* \"#utility.yul\":10792:10796   */\n      0x00\n        /* \"#utility.yul\":10830:10832   */\n      0x20\n        /* \"#utility.yul\":10819:10828   */\n      dup3\n        /* \"#utility.yul\":10815:10833   */\n      add\n        /* \"#utility.yul\":10807:10833   */\n      swap1\n      pop\n        /* \"#utility.yul\":10879:10888   */\n      dup2\n        /* \"#utility.yul\":10873:10877   */\n      dup2\n        /* \"#utility.yul\":10869:10889   */\n      sub\n        /* \"#utility.yul\":10865:10866   */\n      0x00\n        /* \"#utility.yul\":10854:10863   */\n      dup4\n        /* \"#utility.yul\":10850:10867   */\n      add\n        /* \"#utility.yul\":10843:10890   */\n      mstore\n        /* \"#utility.yul\":10907:11038   */\n      tag_313\n        /* \"#utility.yul\":11033:11037   */\n      dup2\n        /* \"#utility.yul\":10907:11038   */\n      tag_269\n      jump\t// in\n    tag_313:\n        /* \"#utility.yul\":10899:11038   */\n      swap1\n      pop\n        /* \"#utility.yul\":10626:11045   */\n      swap2\n      swap1\n      pop\n      jump\t// out\n        /* \"#utility.yul\":11051:11470   */\n    tag_52:\n        /* \"#utility.yul\":11217:11221   */\n      0x00\n        /* \"#utility.yul\":11255:11257   */\n      0x20\n        /* \"#utility.yul\":11244:11253   */\n      dup3\n        /* \"#utility.yul\":11240:11258   */\n      add\n        /* \"#utility.yul\":11232:11258   */\n      swap1\n      pop\n        /* \"#utility.yul\":11304:11313   */\n      dup2\n        /* \"#utility.yul\":11298:11302   */\n      dup2\n        /* \"#utility.yul\":11294:11314   */\n      sub\n        /* \"#utility.yul\":11290:11291   */\n      0x00\n        /* \"#utility.yul\":11279:11288   */\n      dup4\n        /* \"#utility.yul\":11275:11292   */\n      add\n        /* \"#utility.yul\":11268:11315   */\n      mstore\n        /* \"#utility.yul\":11332:11463   */\n      tag_315\n        /* \"#utility.yul\":11458:11462   */\n      dup2\n        /* \"#utility.yul\":11332:11463   */\n      tag_274\n      jump\t// in\n    tag_315:\n        /* \"#utility.yul\":11324:11463   */\n      swap1\n      pop\n        /* \"#utility.yul\":11051:11470   */\n      swap2\n      swap1\n      pop\n      jump\t// out\n        /* \"#utility.yul\":11476:11895   */\n    tag_62:\n        /* \"#utility.yul\":11642:11646   */\n      0x00\n        /* \"#utility.yul\":11680:11682   */\n      0x20\n        /* \"#utility.yul\":11669:11678   */\n      dup3\n        /* \"#utility.yul\":11665:11683   */\n      add\n        /* \"#utility.yul\":11657:11683   */\n      swap1\n      pop\n        /* \"#utility.yul\":11729:11738   */\n      dup2\n        /* \"#utility.yul\":11723:11727   */\n      dup2\n        /* \"#utility.yul\":11719:11739   */\n      sub\n        /* \"#utility.yul\":11715:11716   */\n      0x00\n        /* \"#utility.yul\":11704:11713   */\n      dup4\n        /* \"#utility.yul\":11700:11717   */\n      add\n        /* \"#utility.yul\":11693:11740   */\n      mstore\n        /* \"#utility.yul\":11757:11888   */\n      tag_317\n        /* \"#utility.yul\":11883:11887   */\n      dup2\n        /* \"#utility.yul\":11757:11888   */\n      tag_279\n      jump\t// in\n    tag_317:\n        /* \"#utility.yul\":11749:11888   */\n      swap1\n      pop\n        /* \"#utility.yul\":11476:11895   */\n      swap2\n      swap1\n      pop\n      jump\t// out\n        /* \"#utility.yul\":11901:12320   */\n    tag_123:\n        /* \"#utility.yul\":12067:12071   */\n      0x00\n        /* \"#utility.yul\":12105:12107   */\n      0x20\n        /* \"#utility.yul\":12094:12103   */\n      dup3\n        /* \"#utility.yul\":12090:12108   */\n      add\n        /* \"#utility.yul\":12082:12108   */\n      swap1\n      pop\n        /* \"#utility.yul\":12154:12163   */\n      dup2\n        /* \"#utility.yul\":12148:12152   */\n      dup2\n        /* \"#utility.yul\":12144:12164   */\n      sub\n        /* \"#utility.yul\":12140:12141   */\n      0x00\n        /* \"#utility.yul\":12129:12138   */\n      dup4\n        /* \"#utility.yul\":12125:12142   */\n      add\n        /* \"#utility.yul\":12118:12165   */\n      mstore\n        /* \"#utility.yul\":12182:12313   */\n      tag_319\n        /* \"#utility.yul\":12308:12312   */\n      dup2\n        /* \"#utility.yul\":12182:12313   */\n      tag_284\n      jump\t// in\n    tag_319:\n        /* \"#utility.yul\":12174:12313   */\n      swap1\n      pop\n        /* \"#utility.yul\":11901:12320   */\n      swap2\n      swap1\n      pop\n      jump\t// out\n        /* \"#utility.yul\":12326:12745   */\n    tag_126:\n        /* \"#utility.yul\":12492:12496   */\n      0x00\n        /* \"#utility.yul\":12530:12532   */\n      0x20\n        /* \"#utility.yul\":12519:12528   */\n      dup3\n        /* \"#utility.yul\":12515:12533   */\n      add\n        /* \"#utility.yul\":12507:12533   */\n      swap1\n      pop\n        /* \"#utility.yul\":12579:12588   */\n      dup2\n        /* \"#utility.yul\":12573:12577   */\n      dup2\n        /* \"#utility.yul\":12569:12589   */\n      sub\n        /* \"#utility.yul\":12565:12566   */\n      0x00\n        /* \"#utility.yul\":12554:12563   */\n      dup4\n        /* \"#utility.yul\":12550:12567   */\n      add\n        /* \"#utility.yul\":12543:12590   */\n      mstore\n        /* \"#utility.yul\":12607:12738   */\n      tag_321\n        /* \"#utility.yul\":12733:12737   */\n      dup2\n        /* \"#utility.yul\":12607:12738   */\n      tag_289\n      jump\t// in\n    tag_321:\n        /* \"#utility.yul\":12599:12738   */\n      swap1\n      pop\n        /* \"#utility.yul\":12326:12745   */\n      swap2\n      swap1\n      pop\n      jump\t// out\n        /* \"#utility.yul\":12751:13160   */\n    tag_30:\n        /* \"#utility.yul\":12912:12916   */\n      0x00\n        /* \"#utility.yul\":12950:12952   */\n      0x20\n        /* \"#utility.yul\":12939:12948   */\n      dup3\n        /* \"#utility.yul\":12935:12953   */\n      add\n        /* \"#utility.yul\":12927:12953   */\n      swap1\n      pop\n        /* \"#utility.yul\":12999:13008   */\n      dup2\n        /* \"#utility.yul\":12993:12997   */\n      dup2\n        /* \"#utility.yul\":12989:13009   */\n      sub\n        /* \"#utility.yul\":12985:12986   */\n      0x00\n        /* \"#utility.yul\":12974:12983   */\n      dup4\n        /* \"#utility.yul\":12970:12987   */\n      add\n        /* \"#utility.yul\":12963:13010   */\n      mstore\n        /* \"#utility.yul\":13027:13153   */\n      tag_323\n        /* \"#utility.yul\":13148:13152   */\n      dup2\n        /* \"#utility.yul\":13139:13145   */\n      dup5\n        /* \"#utility.yul\":13027:13153   */\n      tag_294\n      jump\t// in\n    tag_323:\n        /* \"#utility.yul\":13019:13153   */\n      swap1\n      pop\n        /* \"#utility.yul\":12751:13160   */\n      swap3\n      swap2\n      pop\n      pop\n      jump\t// out\n        /* \"#utility.yul\":13166:13295   */\n    tag_175:\n        /* \"#utility.yul\":13200:13206   */\n      0x00\n        /* \"#utility.yul\":13227:13247   */\n      tag_325\n      tag_326\n      jump\t// in\n    tag_325:\n        /* \"#utility.yul\":13217:13247   */\n      swap1\n      pop\n        /* \"#utility.yul\":13256:13289   */\n      tag_327\n        /* \"#utility.yul\":13284:13288   */\n      dup3\n        /* \"#utility.yul\":13276:13282   */\n      dup3\n        /* \"#utility.yul\":13256:13289   */\n      tag_328\n      jump\t// in\n    tag_327:\n        /* \"#utility.yul\":13166:13295   */\n      swap2\n      swap1\n      pop\n      jump\t// out\n        /* \"#utility.yul\":13301:13376   */\n    tag_326:\n        /* \"#utility.yul\":13334:13340   */\n      0x00\n        /* \"#utility.yul\":13367:13369   */\n      0x40\n        /* \"#utility.yul\":13361:13370   */\n      mload\n        /* \"#utility.yul\":13351:13370   */\n      swap1\n      pop\n        /* \"#utility.yul\":13301:13376   */\n      swap1\n      jump\t// out\n        /* \"#utility.yul\":13382:13690   */\n    tag_174:\n        /* \"#utility.yul\":13444:13448   */\n      0x00\n        /* \"#utility.yul\":13534:13552   */\n      0xffffffffffffffff\n        /* \"#utility.yul\":13526:13532   */\n      dup3\n        /* \"#utility.yul\":13523:13553   */\n      gt\n        /* \"#utility.yul\":13520:13576   */\n      iszero\n      tag_331\n      jumpi\n        /* \"#utility.yul\":13556:13574   */\n      tag_332\n      tag_333\n      jump\t// in\n    tag_332:\n        /* \"#utility.yul\":13520:13576   */\n    tag_331:\n        /* \"#utility.yul\":13594:13623   */\n      tag_334\n        /* \"#utility.yul\":13616:13622   */\n      dup3\n        /* \"#utility.yul\":13594:13623   */\n      tag_251\n      jump\t// in\n    tag_334:\n        /* \"#utility.yul\":13586:13623   */\n      swap1\n      pop\n        /* \"#utility.yul\":13678:13682   */\n      0x20\n        /* \"#utility.yul\":13672:13676   */\n      dup2\n        /* \"#utility.yul\":13668:13683   */\n      add\n        /* \"#utility.yul\":13660:13683   */\n      swap1\n      pop\n        /* \"#utility.yul\":13382:13690   */\n      swap2\n      swap1\n      pop\n      jump\t// out\n        /* \"#utility.yul\":13696:13828   */\n    tag_227:\n        /* \"#utility.yul\":13763:13767   */\n      0x00\n        /* \"#utility.yul\":13786:13789   */\n      dup2\n        /* \"#utility.yul\":13778:13789   */\n      swap1\n      pop\n        /* \"#utility.yul\":13816:13820   */\n      0x20\n        /* \"#utility.yul\":13811:13814   */\n      dup3\n        /* \"#utility.yul\":13807:13821   */\n      add\n        /* \"#utility.yul\":13799:13821   */\n      swap1\n      pop\n        /* \"#utility.yul\":13696:13828   */\n      swap2\n      swap1\n      pop\n      jump\t// out\n        /* \"#utility.yul\":13834:13948   */\n    tag_223:\n        /* \"#utility.yul\":13901:13907   */\n      0x00\n        /* \"#utility.yul\":13935:13940   */\n      dup2\n        /* \"#utility.yul\":13929:13941   */\n      mload\n        /* \"#utility.yul\":13919:13941   */\n      swap1\n      pop\n        /* \"#utility.yul\":13834:13948   */\n      swap2\n      swap1\n      pop\n      jump\t// out\n        /* \"#utility.yul\":13954:14053   */\n    tag_245:\n        /* \"#utility.yul\":14006:14012   */\n      0x00\n        /* \"#utility.yul\":14040:14045   */\n      dup2\n        /* \"#utility.yul\":14034:14046   */\n      mload\n        /* \"#utility.yul\":14024:14046   */\n      swap1\n      pop\n        /* \"#utility.yul\":13954:14053   */\n      swap2\n      swap1\n      pop\n      jump\t// out\n        /* \"#utility.yul\":14059:14172   */\n    tag_233:\n        /* \"#utility.yul\":14129:14133   */\n      0x00\n        /* \"#utility.yul\":14161:14165   */\n      0x20\n        /* \"#utility.yul\":14156:14159   */\n      dup3\n        /* \"#utility.yul\":14152:14166   */\n      add\n        /* \"#utility.yul\":14144:14166   */\n      swap1\n      pop\n        /* \"#utility.yul\":14059:14172   */\n      swap2\n      swap1\n      pop\n      jump\t// out\n        /* \"#utility.yul\":14178:14362   */\n    tag_225:\n        /* \"#utility.yul\":14277:14288   */\n      0x00\n        /* \"#utility.yul\":14311:14317   */\n      dup3\n        /* \"#utility.yul\":14306:14309   */\n      dup3\n        /* \"#utility.yul\":14299:14318   */\n      mstore\n        /* \"#utility.yul\":14351:14355   */\n      0x20\n        /* \"#utility.yul\":14346:14349   */\n      dup3\n        /* \"#utility.yul\":14342:14356   */\n      add\n        /* \"#utility.yul\":14327:14356   */\n      swap1\n      pop\n        /* \"#utility.yul\":14178:14362   */\n      swap3\n      swap2\n      pop\n      pop\n      jump\t// out\n        /* \"#utility.yul\":14368:14527   */\n    tag_247:\n        /* \"#utility.yul\":14442:14453   */\n      0x00\n        /* \"#utility.yul\":14476:14482   */\n      dup3\n        /* \"#utility.yul\":14471:14474   */\n      dup3\n        /* \"#utility.yul\":14464:14483   */\n      mstore\n        /* \"#utility.yul\":14516:14520   */\n      0x20\n        /* \"#utility.yul\":14511:14514   */\n      dup3\n        /* \"#utility.yul\":14507:14521   */\n      add\n        /* \"#utility.yul\":14492:14521   */\n      swap1\n      pop\n        /* \"#utility.yul\":14368:14527   */\n      swap3\n      swap2\n      pop\n      pop\n      jump\t// out\n        /* \"#utility.yul\":14533:14702   */\n    tag_261:\n        /* \"#utility.yul\":14617:14628   */\n      0x00\n        /* \"#utility.yul\":14651:14657   */\n      dup3\n        /* \"#utility.yul\":14646:14649   */\n      dup3\n        /* \"#utility.yul\":14639:14658   */\n      mstore\n        /* \"#utility.yul\":14691:14695   */\n      0x20\n        /* \"#utility.yul\":14686:14689   */\n      dup3\n        /* \"#utility.yul\":14682:14696   */\n      add\n        /* \"#utility.yul\":14667:14696   */\n      swap1\n      pop\n        /* \"#utility.yul\":14533:14702   */\n      swap3\n      swap2\n      pop\n      pop\n      jump\t// out\n        /* \"#utility.yul\":14708:14856   */\n    tag_256:\n        /* \"#utility.yul\":14810:14821   */\n      0x00\n        /* \"#utility.yul\":14847:14850   */\n      dup2\n        /* \"#utility.yul\":14832:14850   */\n      swap1\n      pop\n        /* \"#utility.yul\":14708:14856   */\n      swap3\n      swap2\n      pop\n      pop\n      jump\t// out\n        /* \"#utility.yul\":14862:14958   */\n    tag_219:\n        /* \"#utility.yul\":14899:14906   */\n      0x00\n        /* \"#utility.yul\":14928:14952   */\n      tag_344\n        /* \"#utility.yul\":14946:14951   */\n      dup3\n        /* \"#utility.yul\":14928:14952   */\n      tag_345\n      jump\t// in\n    tag_344:\n        /* \"#utility.yul\":14917:14952   */\n      swap1\n      pop\n        /* \"#utility.yul\":14862:14958   */\n      swap2\n      swap1\n      pop\n      jump\t// out\n        /* \"#utility.yul\":14964:15054   */\n    tag_237:\n        /* \"#utility.yul\":14998:15005   */\n      0x00\n        /* \"#utility.yul\":15041:15046   */\n      dup2\n        /* \"#utility.yul\":15034:15047   */\n      iszero\n        /* \"#utility.yul\":15027:15048   */\n      iszero\n        /* \"#utility.yul\":15016:15048   */\n      swap1\n      pop\n        /* \"#utility.yul\":14964:15054   */\n      swap2\n      swap1\n      pop\n      jump\t// out\n        /* \"#utility.yul\":15060:15137   */\n    tag_241:\n        /* \"#utility.yul\":15097:15104   */\n      0x00\n        /* \"#utility.yul\":15126:15131   */\n      dup2\n        /* \"#utility.yul\":15115:15131   */\n      swap1\n      pop\n        /* \"#utility.yul\":15060:15137   */\n      swap2\n      swap1\n      pop\n      jump\t// out\n        /* \"#utility.yul\":15143:15269   */\n    tag_345:\n        /* \"#utility.yul\":15180:15187   */\n      0x00\n        /* \"#utility.yul\":15220:15262   */\n      0xffffffffffffffffffffffffffffffffffffffff\n        /* \"#utility.yul\":15213:15218   */\n      dup3\n        /* \"#utility.yul\":15209:15263   */\n      and\n        /* \"#utility.yul\":15198:15263   */\n      swap1\n      pop\n        /* \"#utility.yul\":15143:15269   */\n      swap2\n      swap1\n      pop\n      jump\t// out\n        /* \"#utility.yul\":15275:15352   */\n    tag_349:\n        /* \"#utility.yul\":15312:15319   */\n      0x00\n        /* \"#utility.yul\":15341:15346   */\n      dup2\n        /* \"#utility.yul\":15330:15346   */\n      swap1\n      pop\n        /* \"#utility.yul\":15275:15352   */\n      swap2\n      swap1\n      pop\n      jump\t// out\n        /* \"#utility.yul\":15358:15512   */\n    tag_180:\n        /* \"#utility.yul\":15442:15448   */\n      dup3\n        /* \"#utility.yul\":15437:15440   */\n      dup2\n        /* \"#utility.yul\":15432:15435   */\n      dup4\n        /* \"#utility.yul\":15419:15449   */\n      calldatacopy\n        /* \"#utility.yul\":15504:15505   */\n      0x00\n        /* \"#utility.yul\":15495:15501   */\n      dup4\n        /* \"#utility.yul\":15490:15493   */\n      dup4\n        /* \"#utility.yul\":15486:15502   */\n      add\n        /* \"#utility.yul\":15479:15506   */\n      mstore\n        /* \"#utility.yul\":15358:15512   */\n      pop\n      pop\n      pop\n      jump\t// out\n        /* \"#utility.yul\":15518:15825   */\n    tag_249:\n        /* \"#utility.yul\":15586:15587   */\n      0x00\n        /* \"#utility.yul\":15596:15709   */\n    tag_353:\n        /* \"#utility.yul\":15610:15616   */\n      dup4\n        /* \"#utility.yul\":15607:15608   */\n      dup2\n        /* \"#utility.yul\":15604:15617   */\n      lt\n        /* \"#utility.yul\":15596:15709   */\n      iszero\n      tag_355\n      jumpi\n        /* \"#utility.yul\":15695:15696   */\n      dup1\n        /* \"#utility.yul\":15690:15693   */\n      dup3\n        /* \"#utility.yul\":15686:15697   */\n      add\n        /* \"#utility.yul\":15680:15698   */\n      mload\n        /* \"#utility.yul\":15676:15677   */\n      dup2\n        /* \"#utility.yul\":15671:15674   */\n      dup5\n        /* \"#utility.yul\":15667:15678   */\n      add\n        /* \"#utility.yul\":15660:15699   */\n      mstore\n        /* \"#utility.yul\":15632:15634   */\n      0x20\n        /* \"#utility.yul\":15629:15630   */\n      dup2\n        /* \"#utility.yul\":15625:15635   */\n      add\n        /* \"#utility.yul\":15620:15635   */\n      swap1\n      pop\n        /* \"#utility.yul\":15596:15709   */\n      jump(tag_353)\n    tag_355:\n        /* \"#utility.yul\":15727:15733   */\n      dup4\n        /* \"#utility.yul\":15724:15725   */\n      dup2\n        /* \"#utility.yul\":15721:15734   */\n      gt\n        /* \"#utility.yul\":15718:15819   */\n      iszero\n      tag_356\n      jumpi\n        /* \"#utility.yul\":15807:15808   */\n      0x00\n        /* \"#utility.yul\":15798:15804   */\n      dup5\n        /* \"#utility.yul\":15793:15796   */\n      dup5\n        /* \"#utility.yul\":15789:15805   */\n      add\n        /* \"#utility.yul\":15782:15809   */\n      mstore\n        /* \"#utility.yul\":15718:15819   */\n    tag_356:\n        /* \"#utility.yul\":15567:15825   */\n      pop\n        /* \"#utility.yul\":15518:15825   */\n      pop\n      pop\n      pop\n      jump\t// out\n        /* \"#utility.yul\":15831:16151   */\n    tag_109:\n        /* \"#utility.yul\":15875:15881   */\n      0x00\n        /* \"#utility.yul\":15912:15913   */\n      0x02\n        /* \"#utility.yul\":15906:15910   */\n      dup3\n        /* \"#utility.yul\":15902:15914   */\n      div\n        /* \"#utility.yul\":15892:15914   */\n      swap1\n      pop\n        /* \"#utility.yul\":15959:15960   */\n      0x01\n        /* \"#utility.yul\":15953:15957   */\n      dup3\n        /* \"#utility.yul\":15949:15961   */\n      and\n        /* \"#utility.yul\":15980:15998   */\n      dup1\n        /* \"#utility.yul\":15970:16051   */\n      tag_358\n      jumpi\n        /* \"#utility.yul\":16036:16040   */\n      0x7f\n        /* \"#utility.yul\":16028:16034   */\n      dup3\n        /* \"#utility.yul\":16024:16041   */\n      and\n        /* \"#utility.yul\":16014:16041   */\n      swap2\n      pop\n        /* \"#utility.yul\":15970:16051   */\n    tag_358:\n        /* \"#utility.yul\":16098:16100   */\n      0x20\n        /* \"#utility.yul\":16090:16096   */\n      dup3\n        /* \"#utility.yul\":16087:16101   */\n      lt\n        /* \"#utility.yul\":16067:16085   */\n      dup2\n        /* \"#utility.yul\":16064:16102   */\n      eq\n        /* \"#utility.yul\":16061:16145   */\n      iszero\n      tag_359\n      jumpi\n        /* \"#utility.yul\":16117:16135   */\n      tag_360\n      tag_361\n      jump\t// in\n    tag_360:\n        /* \"#utility.yul\":16061:16145   */\n    tag_359:\n        /* \"#utility.yul\":15882:16151   */\n      pop\n        /* \"#utility.yul\":15831:16151   */\n      swap2\n      swap1\n      pop\n      jump\t// out\n        /* \"#utility.yul\":16157:16438   */\n    tag_328:\n        /* \"#utility.yul\":16240:16267   */\n      tag_363\n        /* \"#utility.yul\":16262:16266   */\n      dup3\n        /* \"#utility.yul\":16240:16267   */\n      tag_251\n      jump\t// in\n    tag_363:\n        /* \"#utility.yul\":16232:16238   */\n      dup2\n        /* \"#utility.yul\":16228:16268   */\n      add\n        /* \"#utility.yul\":16370:16376   */\n      dup2\n        /* \"#utility.yul\":16358:16368   */\n      dup2\n        /* \"#utility.yul\":16355:16377   */\n      lt\n        /* \"#utility.yul\":16334:16352   */\n      0xffffffffffffffff\n        /* \"#utility.yul\":16322:16332   */\n      dup3\n        /* \"#utility.yul\":16319:16353   */\n      gt\n        /* \"#utility.yul\":16316:16378   */\n      or\n        /* \"#utility.yul\":16313:16401   */\n      iszero\n      tag_364\n      jumpi\n        /* \"#utility.yul\":16381:16399   */\n      tag_365\n      tag_333\n      jump\t// in\n    tag_365:\n        /* \"#utility.yul\":16313:16401   */\n    tag_364:\n        /* \"#utility.yul\":16421:16431   */\n      dup1\n        /* \"#utility.yul\":16417:16419   */\n      0x40\n        /* \"#utility.yul\":16410:16432   */\n      mstore\n        /* \"#utility.yul\":16200:16438   */\n      pop\n        /* \"#utility.yul\":16157:16438   */\n      pop\n      pop\n      jump\t// out\n        /* \"#utility.yul\":16444:16677   */\n    tag_86:\n        /* \"#utility.yul\":16483:16486   */\n      0x00\n        /* \"#utility.yul\":16506:16530   */\n      tag_367\n        /* \"#utility.yul\":16524:16529   */\n      dup3\n        /* \"#utility.yul\":16506:16530   */\n      tag_349\n      jump\t// in\n    tag_367:\n        /* \"#utility.yul\":16497:16530   */\n      swap2\n      pop\n        /* \"#utility.yul\":16552:16618   */\n      0xffffffffffffffffffffffffffffffffffffffffffffffffffffffffffffffff\n        /* \"#utility.yul\":16545:16550   */\n      dup3\n        /* \"#utility.yul\":16542:16619   */\n      eq\n        /* \"#utility.yul\":16539:16642   */\n      iszero\n      tag_368\n      jumpi\n        /* \"#utility.yul\":16622:16640   */\n      tag_369\n      tag_370\n      jump\t// in\n    tag_369:\n        /* \"#utility.yul\":16539:16642   */\n    tag_368:\n        /* \"#utility.yul\":16669:16670   */\n      0x01\n        /* \"#utility.yul\":16662:16667   */\n      dup3\n        /* \"#utility.yul\":16658:16671   */\n      add\n        /* \"#utility.yul\":16651:16671   */\n      swap1\n      pop\n        /* \"#utility.yul\":16444:16677   */\n      swap2\n      swap1\n      pop\n      jump\t// out\n        /* \"#utility.yul\":16683:16863   */\n    tag_370:\n        /* \"#utility.yul\":16731:16808   */\n      0x4e487b7100000000000000000000000000000000000000000000000000000000\n        /* \"#utility.yul\":16728:16729   */\n      0x00\n        /* \"#utility.yul\":16721:16809   */\n      mstore\n        /* \"#utility.yul\":16828:16832   */\n      0x11\n        /* \"#utility.yul\":16825:16826   */\n      0x04\n        /* \"#utility.yul\":16818:16833   */\n      mstore\n        /* \"#utility.yul\":16852:16856   */\n      0x24\n        /* \"#utility.yul\":16849:16850   */\n      0x00\n        /* \"#utility.yul\":16842:16857   */\n      revert\n        /* \"#utility.yul\":16869:17049   */\n    tag_47:\n        /* \"#utility.yul\":16917:16994   */\n      0x4e487b7100000000000000000000000000000000000000000000000000000000\n        /* \"#utility.yul\":16914:16915   */\n      0x00\n        /* \"#utility.yul\":16907:16995   */\n      mstore\n        /* \"#utility.yul\":17014:17018   */\n      0x21\n        /* \"#utility.yul\":17011:17012   */\n      0x04\n        /* \"#utility.yul\":17004:17019   */\n      mstore\n        /* \"#utility.yul\":17038:17042   */\n      0x24\n        /* \"#utility.yul\":17035:17036   */\n      0x00\n        /* \"#utility.yul\":17028:17043   */\n      revert\n        /* \"#utility.yul\":17055:17235   */\n    tag_361:\n        /* \"#utility.yul\":17103:17180   */\n      0x4e487b7100000000000000000000000000000000000000000000000000000000\n        /* \"#utility.yul\":17100:17101   */\n      0x00\n        /* \"#utility.yul\":17093:17181   */\n      mstore\n        /* \"#utility.yul\":17200:17204   */\n      0x22\n        /* \"#utility.yul\":17197:17198   */\n      0x04\n        /* \"#utility.yul\":17190:17205   */\n      mstore\n        /* \"#utility.yul\":17224:17228   */\n      0x24\n        /* \"#utility.yul\":17221:17222   */\n      0x00\n        /* \"#utility.yul\":17214:17229   */\n      revert\n        /* \"#utility.yul\":17241:17421   */\n    tag_80:\n        /* \"#utility.yul\":17289:17366   */\n      0x4e487b7100000000000000000000000000000000000000000000000000000000\n        /* \"#utility.yul\":17286:17287   */\n      0x00\n        /* \"#utility.yul\":17279:17367   */\n      mstore\n        /* \"#utility.yul\":17386:17390   */\n      0x32\n        /* \"#utility.yul\":17383:17384   */\n      0x04\n        /* \"#utility.yul\":17376:17391   */\n      mstore\n        /* \"#utility.yul\":17410:17414   */\n      0x24\n        /* \"#utility.yul\":17407:17408   */\n      0x00\n        /* \"#utility.yul\":17400:17415   */\n      revert\n        /* \"#utility.yul\":17427:17607   */\n    tag_333:\n        /* \"#utility.yul\":17475:17552   */\n      0x4e487b7100000000000000000000000000000000000000000000000000000000\n        /* \"#utility.yul\":17472:17473   */\n      0x00\n        /* \"#utility.yul\":17465:17553   */\n      mstore\n        /* \"#utility.yul\":17572:17576   */\n      0x41\n        /* \"#utility.yul\":17569:17570   */\n      0x04\n        /* \"#utility.yul\":17562:17577   */\n      mstore\n        /* \"#utility.yul\":17596:17600   */\n      0x24\n        /* \"#utility.yul\":17593:17594   */\n      0x00\n        /* \"#utility.yul\":17586:17601   */\n      revert\n        /* \"#utility.yul\":17613:17730   */\n    tag_189:\n        /* \"#utility.yul\":17722:17723   */\n      0x00\n        /* \"#utility.yul\":17719:17720   */\n      dup1\n        /* \"#utility.yul\":17712:17724   */\n      revert\n        /* \"#utility.yul\":17736:17853   */\n    tag_178:\n        /* \"#utility.yul\":17845:17846   */\n      0x00\n        /* \"#utility.yul\":17842:17843   */\n      dup1\n        /* \"#utility.yul\":17835:17847   */\n      revert\n        /* \"#utility.yul\":17859:17976   */\n    tag_201:\n        /* \"#utility.yul\":17968:17969   */\n      0x00\n        /* \"#utility.yul\":17965:17966   */\n      dup1\n        /* \"#utility.yul\":17958:17970   */\n      revert\n        /* \"#utility.yul\":17982:18099   */\n    tag_194:\n        /* \"#utility.yul\":18091:18092   */\n      0x00\n        /* \"#utility.yul\":18088:18089   */\n      dup1\n        /* \"#utility.yul\":18081:18093   */\n      revert\n        /* \"#utility.yul\":18105:18207   */\n    tag_251:\n        /* \"#utility.yul\":18146:18152   */\n      0x00\n        /* \"#utility.yul\":18197:18199   */\n      0x1f\n        /* \"#utility.yul\":18193:18200   */\n      not\n        /* \"#utility.yul\":18188:18190   */\n      0x1f\n        /* \"#utility.yul\":18181:18186   */\n      dup4\n        /* \"#utility.yul\":18177:18191   */\n      add\n        /* \"#utility.yul\":18173:18201   */\n      and\n        /* \"#utility.yul\":18163:18201   */\n      swap1\n      pop\n        /* \"#utility.yul\":18105:18207   */\n      swap2\n      swap1\n      pop\n      jump\t// out\n        /* \"#utility.yul\":18213:18391   */\n    tag_263:\n        /* \"#utility.yul\":18353:18383   */\n      0x52657669657720746865206170706c69636174696f6e20666972737400000000\n        /* \"#utility.yul\":18349:18350   */\n      0x00\n        /* \"#utility.yul\":18341:18347   */\n      dup3\n        /* \"#utility.yul\":18337:18351   */\n      add\n        /* \"#utility.yul\":18330:18384   */\n      mstore\n        /* \"#utility.yul\":18213:18391   */\n      pop\n      jump\t// out\n        /* \"#utility.yul\":18397:18571   */\n    tag_268:\n        /* \"#utility.yul\":18537:18563   */\n      0x4170706c69636174696f6e20616c72656164792073656e740000000000000000\n        /* \"#utility.yul\":18533:18534   */\n      0x00\n        /* \"#utility.yul\":18525:18531   */\n      dup3\n        /* \"#utility.yul\":18521:18535   */\n      add\n        /* \"#utility.yul\":18514:18564   */\n      mstore\n        /* \"#utility.yul\":18397:18571   */\n      pop\n      jump\t// out\n        /* \"#utility.yul\":18577:18806   */\n    tag_273:\n        /* \"#utility.yul\":18717:18751   */\n      0x596f7572206170706c69636174696f6e2068617320616c726561647920626565\n        /* \"#utility.yul\":18713:18714   */\n      0x00\n        /* \"#utility.yul\":18705:18711   */\n      dup3\n        /* \"#utility.yul\":18701:18715   */\n      add\n        /* \"#utility.yul\":18694:18752   */\n      mstore\n        /* \"#utility.yul\":18786:18798   */\n      0x6e2072656a656374656400000000000000000000000000000000000000000000\n        /* \"#utility.yul\":18781:18783   */\n      0x20\n        /* \"#utility.yul\":18773:18779   */\n      dup3\n        /* \"#utility.yul\":18769:18784   */\n      add\n        /* \"#utility.yul\":18762:18799   */\n      mstore\n        /* \"#utility.yul\":18577:18806   */\n      pop\n      jump\t// out\n        /* \"#utility.yul\":18812:18976   */\n    tag_278:\n        /* \"#utility.yul\":18952:18968   */\n      0x596f7572206e6f742061646d696e000000000000000000000000000000000000\n        /* \"#utility.yul\":18948:18949   */\n      0x00\n        /* \"#utility.yul\":18940:18946   */\n      dup3\n        /* \"#utility.yul\":18936:18950   */\n      add\n        /* \"#utility.yul\":18929:18969   */\n      mstore\n        /* \"#utility.yul\":18812:18976   */\n      pop\n      jump\t// out\n        /* \"#utility.yul\":18982:19157   */\n    tag_283:\n        /* \"#utility.yul\":19122:19149   */\n      0x596f7572206e6f7420507269766174652070726f766964657200000000000000\n        /* \"#utility.yul\":19118:19119   */\n      0x00\n        /* \"#utility.yul\":19110:19116   */\n      dup3\n        /* \"#utility.yul\":19106:19120   */\n      add\n        /* \"#utility.yul\":19099:19150   */\n      mstore\n        /* \"#utility.yul\":18982:19157   */\n      pop\n      jump\t// out\n        /* \"#utility.yul\":19163:19336   */\n    tag_288:\n        /* \"#utility.yul\":19303:19328   */\n      0x4170706c69636174696f6e20706861736520656e646564000000000000000000\n        /* \"#utility.yul\":19299:19300   */\n      0x00\n        /* \"#utility.yul\":19291:19297   */\n      dup3\n        /* \"#utility.yul\":19287:19301   */\n      add\n        /* \"#utility.yul\":19280:19329   */\n      mstore\n        /* \"#utility.yul\":19163:19336   */\n      pop\n      jump\t// out\n        /* \"#utility.yul\":19342:19584   */\n    tag_293:\n        /* \"#utility.yul\":19482:19516   */\n      0x596f752063616e27742073656e6420616e206170706c69636174696f6e20746f\n        /* \"#utility.yul\":19478:19479   */\n      0x00\n        /* \"#utility.yul\":19470:19476   */\n      dup3\n        /* \"#utility.yul\":19466:19480   */\n      add\n        /* \"#utility.yul\":19459:19517   */\n      mstore\n        /* \"#utility.yul\":19551:19576   */\n      0x20736f6d656f6e6520656c736527732061646472657373000000000000000000\n        /* \"#utility.yul\":19546:19548   */\n      0x20\n        /* \"#utility.yul\":19538:19544   */\n      dup3\n        /* \"#utility.yul\":19534:19549   */\n      add\n        /* \"#utility.yul\":19527:19577   */\n      mstore\n        /* \"#utility.yul\":19342:19584   */\n      pop\n      jump\t// out\n        /* \"#utility.yul\":19590:19712   */\n    tag_184:\n        /* \"#utility.yul\":19663:19687   */\n      tag_389\n        /* \"#utility.yul\":19681:19686   */\n      dup2\n        /* \"#utility.yul\":19663:19687   */\n      tag_219\n      jump\t// in\n    tag_389:\n        /* \"#utility.yul\":19656:19661   */\n      dup2\n        /* \"#utility.yul\":19653:19688   */\n      eq\n        /* \"#utility.yul\":19643:19706   */\n      tag_390\n      jumpi\n        /* \"#utility.yul\":19702:19703   */\n      0x00\n        /* \"#utility.yul\":19699:19700   */\n      dup1\n        /* \"#utility.yul\":19692:19704   */\n      revert\n        /* \"#utility.yul\":19643:19706   */\n    tag_390:\n        /* \"#utility.yul\":19590:19712   */\n      pop\n      jump\t// out\n\n    auxdata: 0xa264697066735822122006e0a93d257fa08380a99b952d3527863fd043aaa563495cb4a11312c4af6aeb64736f6c63430008070033\n}\n",
				"bytecode": {
					"linkReferences": {},
					"object": "608060405234801561001057600080fd5b50611d1b806100206000396000f3fe608060405234801561001057600080fd5b50600436106100885760003560e01c806376eada911161005b57806376eada9114610101578063785963c3146101315780638e4f8c6b1461014d578063a678b65b1461017d57610088565b80630ecb93c01461008d5780631d3eea35146100a9578063506a222c146100c5578063686c4cea146100e3575b600080fd5b6100a760048036038101906100a29190611363565b610199565b005b6100c360048036038101906100be9190611363565b6102b4565b005b6100cd61045d565b6040516100da919061170d565b60405180910390f35b6100eb610640565b6040516100f8919061170d565b60405180910390f35b61011b60048036038101906101169190611363565b610783565b604051610128919061182a565b60405180910390f35b61014b600480360381019061014691906113d9565b610ab7565b005b61016760048036038101906101629190611390565b610fad565b604051610174919061172f565b60405180910390f35b61019760048036038101906101929190611363565b610fdd565b005b600060048111156101ad576101ac611a82565b5b6000803373ffffffffffffffffffffffffffffffffffffffff1673ffffffffffffffffffffffffffffffffffffffff16815260200190815260200160002060000160009054906101000a900460ff16600481111561020e5761020d611a82565b5b1461024e576040517f08c379a0000000000000000000000000000000000000000000000000000000008152600401610245906117aa565b60405180910390fd5b6005819080600181540180825580915050600190039060005260206000200160009091909190916101000a81548173ffffffffffffffffffffffffffffffffffffffff021916908373ffffffffffffffffffffffffffffffffffffffff16021790555050565b600260048111156102c8576102c7611a82565b5b6000803373ffffffffffffffffffffffffffffffffffffffff1673ffffffffffffffffffffffffffffffffffffffff16815260200190815260200160002060000160009054906101000a900460ff16600481111561032957610328611a82565b5b14610369576040517f08c379a0000000000000000000000000000000000000000000000000000000008152600401610360906117ca565b60405180910390fd5b60001515600260003373ffffffffffffffffffffffffffffffffffffffff1673ffffffffffffffffffffffffffffffffffffffff16815260200190815260200160002060020160159054906101000a900460ff161515146103ff576040517f08c379a00000000000000000000000000000000000000000000000000000000081526004016103f69061174a565b60405180910390fd5b6000600260008373ffffffffffffffffffffffffffffffffffffffff1673ffffffffffffffffffffffffffffffffffffffff16815260200190815260200160002060020160146101000a81548160ff02191690831515021790555050565b60606002600481111561047357610472611a82565b5b6000803373ffffffffffffffffffffffffffffffffffffffff1673ffffffffffffffffffffffffffffffffffffffff16815260200190815260200160002060000160009054906101000a900460ff1660048111156104d4576104d3611a82565b5b14610514576040517f08c379a000000000000000000000000000000000000000000000000000000000815260040161050b906117ca565b60405180910390fd5b606060005b600380549050811015610638576000806003838154811061053d5761053c611ae0565b5b9060005260206000200160009054906101000a900473ffffffffffffffffffffffffffffffffffffffff16905060001515600260008373ffffffffffffffffffffffffffffffffffffffff1673ffffffffffffffffffffffffffffffffffffffff16815260200190815260200160002060020160159054906101000a900460ff161515141561062357808483815181106105da576105d9611ae0565b5b602002602001019073ffffffffffffffffffffffffffffffffffffffff16908173ffffffffffffffffffffffffffffffffffffffff1681525050818061061f90611a0a565b9250505b5050808061063090611a0a565b915050610519565b508091505090565b60606002600481111561065657610655611a82565b5b6000803373ffffffffffffffffffffffffffffffffffffffff1673ffffffffffffffffffffffffffffffffffffffff16815260200190815260200160002060000160009054906101000a900460ff1660048111156106b7576106b6611a82565b5b146106f7576040517f08c379a00000000000000000000000000000000000000000000000000000000081526004016106ee906117ca565b60405180910390fd5b600380548060200260200160405190810160405280929190818152602001828054801561077957602002820191906000526020600020905b8160009054906101000a900473ffffffffffffffffffffffffffffffffffffffff1673ffffffffffffffffffffffffffffffffffffffff168152602001906001019080831161072f575b5050505050905090565b61078b6111e9565b6002600481111561079f5761079e611a82565b5b6000803373ffffffffffffffffffffffffffffffffffffffff1673ffffffffffffffffffffffffffffffffffffffff16815260200190815260200160002060000160009054906101000a900460ff166004811115610800576107ff611a82565b5b14610840576040517f08c379a0000000000000000000000000000000000000000000000000000000008152600401610837906117ca565b60405180910390fd5b6001600260008473ffffffffffffffffffffffffffffffffffffffff1673ffffffffffffffffffffffffffffffffffffffff16815260200190815260200160002060020160156101000a81548160ff021916908315150217905550600260008373ffffffffffffffffffffffffffffffffffffffff1673ffffffffffffffffffffffffffffffffffffffff1681526020019081526020016000206040518060c00160405290816000820180546108f5906119a7565b80601f0160208091040260200160405190810160405280929190818152602001828054610921906119a7565b801561096e5780601f106109435761010080835404028352916020019161096e565b820191906000526020600020905b81548152906001019060200180831161095157829003601f168201915b50505050508152602001600182018054610987906119a7565b80601f01602080910402602001604051908101604052809291908181526020018280546109b3906119a7565b8015610a005780601f106109d557610100808354040283529160200191610a00565b820191906000526020600020905b8154815290600101906020018083116109e357829003601f168201915b505050505081526020016002820160009054906101000a900473ffffffffffffffffffffffffffffffffffffffff1673ffffffffffffffffffffffffffffffffffffffff1673ffffffffffffffffffffffffffffffffffffffff1681526020016002820160149054906101000a900460ff161515151581526020016002820160159054906101000a900460ff161515151581526020016002820160169054906101000a900460ff1615151515815250509050919050565b60008015156001600073ab8483f64d9c6d1ecf9b849ae677dd3315835cb273ffffffffffffffffffffffffffffffffffffffff1673ffffffffffffffffffffffffffffffffffffffff16815260200190815260200160002060000160009054906101000a900460ff161515148015610b965750600015156001600073ab8483f64d9c6d1ecf9b849ae677dd3315835cb273ffffffffffffffffffffffffffffffffffffffff1673ffffffffffffffffffffffffffffffffffffffff16815260200190815260200160002060000160009054906101000a900460ff161515145b610bd5576040517f08c379a0000000000000000000000000000000000000000000000000000000008152600401610bcc906117ea565b60405180910390fd5b8173ffffffffffffffffffffffffffffffffffffffff163373ffffffffffffffffffffffffffffffffffffffff1614610c43576040517f08c379a0000000000000000000000000000000000000000000000000000000008152600401610c3a9061180a565b60405180910390fd5b60005b600380549050811015610ca8573373ffffffffffffffffffffffffffffffffffffffff1660038281548110610c7e57610c7d611ae0565b5b9060005260206000200160009054906101000a905050508080610ca090611a0a565b915050610c46565b5060011515600260003373ffffffffffffffffffffffffffffffffffffffff1673ffffffffffffffffffffffffffffffffffffffff16815260200190815260200160002060020160169054906101000a900460ff16151514610d3f576040517f08c379a0000000000000000000000000000000000000000000000000000000008152600401610d369061176a565b60405180910390fd5b60001515600260003373ffffffffffffffffffffffffffffffffffffffff1673ffffffffffffffffffffffffffffffffffffffff16815260200190815260200160002060020160149054906101000a900460ff16151514610dd5576040517f08c379a0000000000000000000000000000000000000000000000000000000008152600401610dcc9061178a565b60405180910390fd5b6040518060c001604052808581526020018481526020018373ffffffffffffffffffffffffffffffffffffffff16815260200160011515815260200160001515815260200160011515815250600260003373ffffffffffffffffffffffffffffffffffffffff1673ffffffffffffffffffffffffffffffffffffffff1681526020019081526020016000206000820151816000019080519060200190610e7c92919061123b565b506020820151816001019080519060200190610e9992919061123b565b5060408201518160020160006101000a81548173ffffffffffffffffffffffffffffffffffffffff021916908373ffffffffffffffffffffffffffffffffffffffff16021790555060608201518160020160146101000a81548160ff02191690831515021790555060808201518160020160156101000a81548160ff02191690831515021790555060a08201518160020160166101000a81548160ff0219169083151502179055509050506003339080600181540180825580915050600190039060005260206000200160009091909190916101000a81548173ffffffffffffffffffffffffffffffffffffffff021916908373ffffffffffffffffffffffffffffffffffffffff16021790555050505050565b600081604051602001610fc091906116f6565b604051602081830303815290604052805190602001209050919050565b60026004811115610ff157610ff0611a82565b5b6000803373ffffffffffffffffffffffffffffffffffffffff1673ffffffffffffffffffffffffffffffffffffffff16815260200190815260200160002060000160009054906101000a900460ff16600481111561105257611051611a82565b5b14611092576040517f08c379a0000000000000000000000000000000000000000000000000000000008152600401611089906117ca565b60405180910390fd5b60001515600260003373ffffffffffffffffffffffffffffffffffffffff1673ffffffffffffffffffffffffffffffffffffffff16815260200190815260200160002060020160159054906101000a900460ff16151514611128576040517f08c379a000000000000000000000000000000000000000000000000000000000815260040161111f9061174a565b60405180910390fd5b6000600260008373ffffffffffffffffffffffffffffffffffffffff1673ffffffffffffffffffffffffffffffffffffffff16815260200190815260200160002060020160146101000a81548160ff0219169083151502179055506003819080600181540180825580915050600190039060005260206000200160009091909190916101000a81548173ffffffffffffffffffffffffffffffffffffffff021916908373ffffffffffffffffffffffffffffffffffffffff16021790555050565b6040518060c001604052806060815260200160608152602001600073ffffffffffffffffffffffffffffffffffffffff1681526020016000151581526020016000151581526020016000151581525090565b828054611247906119a7565b90600052602060002090601f01602090048101928261126957600085556112b0565b82601f1061128257805160ff19168380011785556112b0565b828001600101855582156112b0579182015b828111156112af578251825591602001919060010190611294565b5b5090506112bd91906112c1565b5090565b5b808211156112da5760008160009055506001016112c2565b5090565b60006112f16112ec84611871565b61184c565b90508281526020810184848401111561130d5761130c611b43565b5b611318848285611965565b509392505050565b60008135905061132f81611cce565b92915050565b600082601f83011261134a57611349611b3e565b5b813561135a8482602086016112de565b91505092915050565b60006020828403121561137957611378611b4d565b5b600061138784828501611320565b91505092915050565b6000602082840312156113a6576113a5611b4d565b5b600082013567ffffffffffffffff8111156113c4576113c3611b48565b5b6113d084828501611335565b91505092915050565b6000806000606084860312156113f2576113f1611b4d565b5b600084013567ffffffffffffffff8111156114105761140f611b48565b5b61141c86828701611335565b935050602084013567ffffffffffffffff81111561143d5761143c611b48565b5b61144986828701611335565b925050604061145a86828701611320565b9150509250925092565b6000611470838361147c565b60208301905092915050565b61148581611913565b82525050565b6000611496826118b2565b6114a081856118d5565b93506114ab836118a2565b8060005b838110156114dc5781516114c38882611464565b97506114ce836118c8565b9250506001810190506114af565b5085935050505092915050565b6114f281611925565b82525050565b61150181611931565b82525050565b6000611512826118bd565b61151c81856118e6565b935061152c818560208601611974565b61153581611b52565b840191505092915050565b600061154b826118bd565b6115558185611908565b9350611565818560208601611974565b80840191505092915050565b600061157e601c836118f7565b915061158982611b63565b602082019050919050565b60006115a16018836118f7565b91506115ac82611b8c565b602082019050919050565b60006115c4602a836118f7565b91506115cf82611bb5565b604082019050919050565b60006115e7600e836118f7565b91506115f282611c04565b602082019050919050565b600061160a6019836118f7565b915061161582611c2d565b602082019050919050565b600061162d6017836118f7565b915061163882611c56565b602082019050919050565b60006116506037836118f7565b915061165b82611c7f565b604082019050919050565b600060c08301600083015184820360008601526116838282611507565b9150506020830151848203602086015261169d8282611507565b91505060408301516116b2604086018261147c565b5060608301516116c560608601826114e9565b5060808301516116d860808601826114e9565b5060a08301516116eb60a08601826114e9565b508091505092915050565b60006117028284611540565b915081905092915050565b60006020820190508181036000830152611727818461148b565b905092915050565b600060208201905061174460008301846114f8565b92915050565b6000602082019050818103600083015261176381611571565b9050919050565b6000602082019050818103600083015261178381611594565b9050919050565b600060208201905081810360008301526117a3816115b7565b9050919050565b600060208201905081810360008301526117c3816115da565b9050919050565b600060208201905081810360008301526117e3816115fd565b9050919050565b6000602082019050818103600083015261180381611620565b9050919050565b6000602082019050818103600083015261182381611643565b9050919050565b600060208201905081810360008301526118448184611666565b905092915050565b6000611856611867565b905061186282826119d9565b919050565b6000604051905090565b600067ffffffffffffffff82111561188c5761188b611b0f565b5b61189582611b52565b9050602081019050919050565b6000819050602082019050919050565b600081519050919050565b600081519050919050565b6000602082019050919050565b600082825260208201905092915050565b600082825260208201905092915050565b600082825260208201905092915050565b600081905092915050565b600061191e8261193b565b9050919050565b60008115159050919050565b6000819050919050565b600073ffffffffffffffffffffffffffffffffffffffff82169050919050565b6000819050919050565b82818337600083830152505050565b60005b83811015611992578082015181840152602081019050611977565b838111156119a1576000848401525b50505050565b600060028204905060018216806119bf57607f821691505b602082108114156119d3576119d2611ab1565b5b50919050565b6119e282611b52565b810181811067ffffffffffffffff82111715611a0157611a00611b0f565b5b80604052505050565b6000611a158261195b565b91507fffffffffffffffffffffffffffffffffffffffffffffffffffffffffffffffff821415611a4857611a47611a53565b5b600182019050919050565b7f4e487b7100000000000000000000000000000000000000000000000000000000600052601160045260246000fd5b7f4e487b7100000000000000000000000000000000000000000000000000000000600052602160045260246000fd5b7f4e487b7100000000000000000000000000000000000000000000000000000000600052602260045260246000fd5b7f4e487b7100000000000000000000000000000000000000000000000000000000600052603260045260246000fd5b7f4e487b7100000000000000000000000000000000000000000000000000000000600052604160045260246000fd5b600080fd5b600080fd5b600080fd5b600080fd5b6000601f19601f8301169050919050565b7f52657669657720746865206170706c69636174696f6e20666972737400000000600082015250565b7f4170706c69636174696f6e20616c72656164792073656e740000000000000000600082015250565b7f596f7572206170706c69636174696f6e2068617320616c72656164792062656560008201527f6e2072656a656374656400000000000000000000000000000000000000000000602082015250565b7f596f7572206e6f742061646d696e000000000000000000000000000000000000600082015250565b7f596f7572206e6f7420507269766174652070726f766964657200000000000000600082015250565b7f4170706c69636174696f6e20706861736520656e646564000000000000000000600082015250565b7f596f752063616e27742073656e6420616e206170706c69636174696f6e20746f60008201527f20736f6d656f6e6520656c736527732061646472657373000000000000000000602082015250565b611cd781611913565b8114611ce257600080fd5b5056fea264697066735822122006e0a93d257fa08380a99b952d3527863fd043aaa563495cb4a11312c4af6aeb64736f6c63430008070033",
					"opcodes": "PUSH1 0x80 PUSH1 0x40 MSTORE CALLVALUE DUP1 ISZERO PUSH2 0x10 JUMPI PUSH1 0x0 DUP1 REVERT JUMPDEST POP PUSH2 0x1D1B DUP1 PUSH2 0x20 PUSH1 0x0 CODECOPY PUSH1 0x0 RETURN INVALID PUSH1 0x80 PUSH1 0x40 MSTORE CALLVALUE DUP1 ISZERO PUSH2 0x10 JUMPI PUSH1 0x0 DUP1 REVERT JUMPDEST POP PUSH1 0x4 CALLDATASIZE LT PUSH2 0x88 JUMPI PUSH1 0x0 CALLDATALOAD PUSH1 0xE0 SHR DUP1 PUSH4 0x76EADA91 GT PUSH2 0x5B JUMPI DUP1 PUSH4 0x76EADA91 EQ PUSH2 0x101 JUMPI DUP1 PUSH4 0x785963C3 EQ PUSH2 0x131 JUMPI DUP1 PUSH4 0x8E4F8C6B EQ PUSH2 0x14D JUMPI DUP1 PUSH4 0xA678B65B EQ PUSH2 0x17D JUMPI PUSH2 0x88 JUMP JUMPDEST DUP1 PUSH4 0xECB93C0 EQ PUSH2 0x8D JUMPI DUP1 PUSH4 0x1D3EEA35 EQ PUSH2 0xA9 JUMPI DUP1 PUSH4 0x506A222C EQ PUSH2 0xC5 JUMPI DUP1 PUSH4 0x686C4CEA EQ PUSH2 0xE3 JUMPI JUMPDEST PUSH1 0x0 DUP1 REVERT JUMPDEST PUSH2 0xA7 PUSH1 0x4 DUP1 CALLDATASIZE SUB DUP2 ADD SWAP1 PUSH2 0xA2 SWAP2 SWAP1 PUSH2 0x1363 JUMP JUMPDEST PUSH2 0x199 JUMP JUMPDEST STOP JUMPDEST PUSH2 0xC3 PUSH1 0x4 DUP1 CALLDATASIZE SUB DUP2 ADD SWAP1 PUSH2 0xBE SWAP2 SWAP1 PUSH2 0x1363 JUMP JUMPDEST PUSH2 0x2B4 JUMP JUMPDEST STOP JUMPDEST PUSH2 0xCD PUSH2 0x45D JUMP JUMPDEST PUSH1 0x40 MLOAD PUSH2 0xDA SWAP2 SWAP1 PUSH2 0x170D JUMP JUMPDEST PUSH1 0x40 MLOAD DUP1 SWAP2 SUB SWAP1 RETURN JUMPDEST PUSH2 0xEB PUSH2 0x640 JUMP JUMPDEST PUSH1 0x40 MLOAD PUSH2 0xF8 SWAP2 SWAP1 PUSH2 0x170D JUMP JUMPDEST PUSH1 0x40 MLOAD DUP1 SWAP2 SUB SWAP1 RETURN JUMPDEST PUSH2 0x11B PUSH1 0x4 DUP1 CALLDATASIZE SUB DUP2 ADD SWAP1 PUSH2 0x116 SWAP2 SWAP1 PUSH2 0x1363 JUMP JUMPDEST PUSH2 0x783 JUMP JUMPDEST PUSH1 0x40 MLOAD PUSH2 0x128 SWAP2 SWAP1 PUSH2 0x182A JUMP JUMPDEST PUSH1 0x40 MLOAD DUP1 SWAP2 SUB SWAP1 RETURN JUMPDEST PUSH2 0x14B PUSH1 0x4 DUP1 CALLDATASIZE SUB DUP2 ADD SWAP1 PUSH2 0x146 SWAP2 SWAP1 PUSH2 0x13D9 JUMP JUMPDEST PUSH2 0xAB7 JUMP JUMPDEST STOP JUMPDEST PUSH2 0x167 PUSH1 0x4 DUP1 CALLDATASIZE SUB DUP2 ADD SWAP1 PUSH2 0x162 SWAP2 SWAP1 PUSH2 0x1390 JUMP JUMPDEST PUSH2 0xFAD JUMP JUMPDEST PUSH1 0x40 MLOAD PUSH2 0x174 SWAP2 SWAP1 PUSH2 0x172F JUMP JUMPDEST PUSH1 0x40 MLOAD DUP1 SWAP2 SUB SWAP1 RETURN JUMPDEST PUSH2 0x197 PUSH1 0x4 DUP1 CALLDATASIZE SUB DUP2 ADD SWAP1 PUSH2 0x192 SWAP2 SWAP1 PUSH2 0x1363 JUMP JUMPDEST PUSH2 0xFDD JUMP JUMPDEST STOP JUMPDEST PUSH1 0x0 PUSH1 0x4 DUP2 GT ISZERO PUSH2 0x1AD JUMPI PUSH2 0x1AC PUSH2 0x1A82 JUMP JUMPDEST JUMPDEST PUSH1 0x0 DUP1 CALLER PUSH20 0xFFFFFFFFFFFFFFFFFFFFFFFFFFFFFFFFFFFFFFFF AND PUSH20 0xFFFFFFFFFFFFFFFFFFFFFFFFFFFFFFFFFFFFFFFF AND DUP2 MSTORE PUSH1 0x20 ADD SWAP1 DUP2 MSTORE PUSH1 0x20 ADD PUSH1 0x0 KECCAK256 PUSH1 0x0 ADD PUSH1 0x0 SWAP1 SLOAD SWAP1 PUSH2 0x100 EXP SWAP1 DIV PUSH1 0xFF AND PUSH1 0x4 DUP2 GT ISZERO PUSH2 0x20E JUMPI PUSH2 0x20D PUSH2 0x1A82 JUMP JUMPDEST JUMPDEST EQ PUSH2 0x24E JUMPI PUSH1 0x40 MLOAD PUSH32 0x8C379A000000000000000000000000000000000000000000000000000000000 DUP2 MSTORE PUSH1 0x4 ADD PUSH2 0x245 SWAP1 PUSH2 0x17AA JUMP JUMPDEST PUSH1 0x40 MLOAD DUP1 SWAP2 SUB SWAP1 REVERT JUMPDEST PUSH1 0x5 DUP2 SWAP1 DUP1 PUSH1 0x1 DUP2 SLOAD ADD DUP1 DUP3 SSTORE DUP1 SWAP2 POP POP PUSH1 0x1 SWAP1 SUB SWAP1 PUSH1 0x0 MSTORE PUSH1 0x20 PUSH1 0x0 KECCAK256 ADD PUSH1 0x0 SWAP1 SWAP2 SWAP1 SWAP2 SWAP1 SWAP2 PUSH2 0x100 EXP DUP2 SLOAD DUP2 PUSH20 0xFFFFFFFFFFFFFFFFFFFFFFFFFFFFFFFFFFFFFFFF MUL NOT AND SWAP1 DUP4 PUSH20 0xFFFFFFFFFFFFFFFFFFFFFFFFFFFFFFFFFFFFFFFF AND MUL OR SWAP1 SSTORE POP POP JUMP JUMPDEST PUSH1 0x2 PUSH1 0x4 DUP2 GT ISZERO PUSH2 0x2C8 JUMPI PUSH2 0x2C7 PUSH2 0x1A82 JUMP JUMPDEST JUMPDEST PUSH1 0x0 DUP1 CALLER PUSH20 0xFFFFFFFFFFFFFFFFFFFFFFFFFFFFFFFFFFFFFFFF AND PUSH20 0xFFFFFFFFFFFFFFFFFFFFFFFFFFFFFFFFFFFFFFFF AND DUP2 MSTORE PUSH1 0x20 ADD SWAP1 DUP2 MSTORE PUSH1 0x20 ADD PUSH1 0x0 KECCAK256 PUSH1 0x0 ADD PUSH1 0x0 SWAP1 SLOAD SWAP1 PUSH2 0x100 EXP SWAP1 DIV PUSH1 0xFF AND PUSH1 0x4 DUP2 GT ISZERO PUSH2 0x329 JUMPI PUSH2 0x328 PUSH2 0x1A82 JUMP JUMPDEST JUMPDEST EQ PUSH2 0x369 JUMPI PUSH1 0x40 MLOAD PUSH32 0x8C379A000000000000000000000000000000000000000000000000000000000 DUP2 MSTORE PUSH1 0x4 ADD PUSH2 0x360 SWAP1 PUSH2 0x17CA JUMP JUMPDEST PUSH1 0x40 MLOAD DUP1 SWAP2 SUB SWAP1 REVERT JUMPDEST PUSH1 0x0 ISZERO ISZERO PUSH1 0x2 PUSH1 0x0 CALLER PUSH20 0xFFFFFFFFFFFFFFFFFFFFFFFFFFFFFFFFFFFFFFFF AND PUSH20 0xFFFFFFFFFFFFFFFFFFFFFFFFFFFFFFFFFFFFFFFF AND DUP2 MSTORE PUSH1 0x20 ADD SWAP1 DUP2 MSTORE PUSH1 0x20 ADD PUSH1 0x0 KECCAK256 PUSH1 0x2 ADD PUSH1 0x15 SWAP1 SLOAD SWAP1 PUSH2 0x100 EXP SWAP1 DIV PUSH1 0xFF AND ISZERO ISZERO EQ PUSH2 0x3FF JUMPI PUSH1 0x40 MLOAD PUSH32 0x8C379A000000000000000000000000000000000000000000000000000000000 DUP2 MSTORE PUSH1 0x4 ADD PUSH2 0x3F6 SWAP1 PUSH2 0x174A JUMP JUMPDEST PUSH1 0x40 MLOAD DUP1 SWAP2 SUB SWAP1 REVERT JUMPDEST PUSH1 0x0 PUSH1 0x2 PUSH1 0x0 DUP4 PUSH20 0xFFFFFFFFFFFFFFFFFFFFFFFFFFFFFFFFFFFFFFFF AND PUSH20 0xFFFFFFFFFFFFFFFFFFFFFFFFFFFFFFFFFFFFFFFF AND DUP2 MSTORE PUSH1 0x20 ADD SWAP1 DUP2 MSTORE PUSH1 0x20 ADD PUSH1 0x0 KECCAK256 PUSH1 0x2 ADD PUSH1 0x14 PUSH2 0x100 EXP DUP2 SLOAD DUP2 PUSH1 0xFF MUL NOT AND SWAP1 DUP4 ISZERO ISZERO MUL OR SWAP1 SSTORE POP POP JUMP JUMPDEST PUSH1 0x60 PUSH1 0x2 PUSH1 0x4 DUP2 GT ISZERO PUSH2 0x473 JUMPI PUSH2 0x472 PUSH2 0x1A82 JUMP JUMPDEST JUMPDEST PUSH1 0x0 DUP1 CALLER PUSH20 0xFFFFFFFFFFFFFFFFFFFFFFFFFFFFFFFFFFFFFFFF AND PUSH20 0xFFFFFFFFFFFFFFFFFFFFFFFFFFFFFFFFFFFFFFFF AND DUP2 MSTORE PUSH1 0x20 ADD SWAP1 DUP2 MSTORE PUSH1 0x20 ADD PUSH1 0x0 KECCAK256 PUSH1 0x0 ADD PUSH1 0x0 SWAP1 SLOAD SWAP1 PUSH2 0x100 EXP SWAP1 DIV PUSH1 0xFF AND PUSH1 0x4 DUP2 GT ISZERO PUSH2 0x4D4 JUMPI PUSH2 0x4D3 PUSH2 0x1A82 JUMP JUMPDEST JUMPDEST EQ PUSH2 0x514 JUMPI PUSH1 0x40 MLOAD PUSH32 0x8C379A000000000000000000000000000000000000000000000000000000000 DUP2 MSTORE PUSH1 0x4 ADD PUSH2 0x50B SWAP1 PUSH2 0x17CA JUMP JUMPDEST PUSH1 0x40 MLOAD DUP1 SWAP2 SUB SWAP1 REVERT JUMPDEST PUSH1 0x60 PUSH1 0x0 JUMPDEST PUSH1 0x3 DUP1 SLOAD SWAP1 POP DUP2 LT ISZERO PUSH2 0x638 JUMPI PUSH1 0x0 DUP1 PUSH1 0x3 DUP4 DUP2 SLOAD DUP2 LT PUSH2 0x53D JUMPI PUSH2 0x53C PUSH2 0x1AE0 JUMP JUMPDEST JUMPDEST SWAP1 PUSH1 0x0 MSTORE PUSH1 0x20 PUSH1 0x0 KECCAK256 ADD PUSH1 0x0 SWAP1 SLOAD SWAP1 PUSH2 0x100 EXP SWAP1 DIV PUSH20 0xFFFFFFFFFFFFFFFFFFFFFFFFFFFFFFFFFFFFFFFF AND SWAP1 POP PUSH1 0x0 ISZERO ISZERO PUSH1 0x2 PUSH1 0x0 DUP4 PUSH20 0xFFFFFFFFFFFFFFFFFFFFFFFFFFFFFFFFFFFFFFFF AND PUSH20 0xFFFFFFFFFFFFFFFFFFFFFFFFFFFFFFFFFFFFFFFF AND DUP2 MSTORE PUSH1 0x20 ADD SWAP1 DUP2 MSTORE PUSH1 0x20 ADD PUSH1 0x0 KECCAK256 PUSH1 0x2 ADD PUSH1 0x15 SWAP1 SLOAD SWAP1 PUSH2 0x100 EXP SWAP1 DIV PUSH1 0xFF AND ISZERO ISZERO EQ ISZERO PUSH2 0x623 JUMPI DUP1 DUP5 DUP4 DUP2 MLOAD DUP2 LT PUSH2 0x5DA JUMPI PUSH2 0x5D9 PUSH2 0x1AE0 JUMP JUMPDEST JUMPDEST PUSH1 0x20 MUL PUSH1 0x20 ADD ADD SWAP1 PUSH20 0xFFFFFFFFFFFFFFFFFFFFFFFFFFFFFFFFFFFFFFFF AND SWAP1 DUP2 PUSH20 0xFFFFFFFFFFFFFFFFFFFFFFFFFFFFFFFFFFFFFFFF AND DUP2 MSTORE POP POP DUP2 DUP1 PUSH2 0x61F SWAP1 PUSH2 0x1A0A JUMP JUMPDEST SWAP3 POP POP JUMPDEST POP POP DUP1 DUP1 PUSH2 0x630 SWAP1 PUSH2 0x1A0A JUMP JUMPDEST SWAP2 POP POP PUSH2 0x519 JUMP JUMPDEST POP DUP1 SWAP2 POP POP SWAP1 JUMP JUMPDEST PUSH1 0x60 PUSH1 0x2 PUSH1 0x4 DUP2 GT ISZERO PUSH2 0x656 JUMPI PUSH2 0x655 PUSH2 0x1A82 JUMP JUMPDEST JUMPDEST PUSH1 0x0 DUP1 CALLER PUSH20 0xFFFFFFFFFFFFFFFFFFFFFFFFFFFFFFFFFFFFFFFF AND PUSH20 0xFFFFFFFFFFFFFFFFFFFFFFFFFFFFFFFFFFFFFFFF AND DUP2 MSTORE PUSH1 0x20 ADD SWAP1 DUP2 MSTORE PUSH1 0x20 ADD PUSH1 0x0 KECCAK256 PUSH1 0x0 ADD PUSH1 0x0 SWAP1 SLOAD SWAP1 PUSH2 0x100 EXP SWAP1 DIV PUSH1 0xFF AND PUSH1 0x4 DUP2 GT ISZERO PUSH2 0x6B7 JUMPI PUSH2 0x6B6 PUSH2 0x1A82 JUMP JUMPDEST JUMPDEST EQ PUSH2 0x6F7 JUMPI PUSH1 0x40 MLOAD PUSH32 0x8C379A000000000000000000000000000000000000000000000000000000000 DUP2 MSTORE PUSH1 0x4 ADD PUSH2 0x6EE SWAP1 PUSH2 0x17CA JUMP JUMPDEST PUSH1 0x40 MLOAD DUP1 SWAP2 SUB SWAP1 REVERT JUMPDEST PUSH1 0x3 DUP1 SLOAD DUP1 PUSH1 0x20 MUL PUSH1 0x20 ADD PUSH1 0x40 MLOAD SWAP1 DUP2 ADD PUSH1 0x40 MSTORE DUP1 SWAP3 SWAP2 SWAP1 DUP2 DUP2 MSTORE PUSH1 0x20 ADD DUP3 DUP1 SLOAD DUP1 ISZERO PUSH2 0x779 JUMPI PUSH1 0x20 MUL DUP3 ADD SWAP2 SWAP1 PUSH1 0x0 MSTORE PUSH1 0x20 PUSH1 0x0 KECCAK256 SWAP1 JUMPDEST DUP2 PUSH1 0x0 SWAP1 SLOAD SWAP1 PUSH2 0x100 EXP SWAP1 DIV PUSH20 0xFFFFFFFFFFFFFFFFFFFFFFFFFFFFFFFFFFFFFFFF AND PUSH20 0xFFFFFFFFFFFFFFFFFFFFFFFFFFFFFFFFFFFFFFFF AND DUP2 MSTORE PUSH1 0x20 ADD SWAP1 PUSH1 0x1 ADD SWAP1 DUP1 DUP4 GT PUSH2 0x72F JUMPI JUMPDEST POP POP POP POP POP SWAP1 POP SWAP1 JUMP JUMPDEST PUSH2 0x78B PUSH2 0x11E9 JUMP JUMPDEST PUSH1 0x2 PUSH1 0x4 DUP2 GT ISZERO PUSH2 0x79F JUMPI PUSH2 0x79E PUSH2 0x1A82 JUMP JUMPDEST JUMPDEST PUSH1 0x0 DUP1 CALLER PUSH20 0xFFFFFFFFFFFFFFFFFFFFFFFFFFFFFFFFFFFFFFFF AND PUSH20 0xFFFFFFFFFFFFFFFFFFFFFFFFFFFFFFFFFFFFFFFF AND DUP2 MSTORE PUSH1 0x20 ADD SWAP1 DUP2 MSTORE PUSH1 0x20 ADD PUSH1 0x0 KECCAK256 PUSH1 0x0 ADD PUSH1 0x0 SWAP1 SLOAD SWAP1 PUSH2 0x100 EXP SWAP1 DIV PUSH1 0xFF AND PUSH1 0x4 DUP2 GT ISZERO PUSH2 0x800 JUMPI PUSH2 0x7FF PUSH2 0x1A82 JUMP JUMPDEST JUMPDEST EQ PUSH2 0x840 JUMPI PUSH1 0x40 MLOAD PUSH32 0x8C379A000000000000000000000000000000000000000000000000000000000 DUP2 MSTORE PUSH1 0x4 ADD PUSH2 0x837 SWAP1 PUSH2 0x17CA JUMP JUMPDEST PUSH1 0x40 MLOAD DUP1 SWAP2 SUB SWAP1 REVERT JUMPDEST PUSH1 0x1 PUSH1 0x2 PUSH1 0x0 DUP5 PUSH20 0xFFFFFFFFFFFFFFFFFFFFFFFFFFFFFFFFFFFFFFFF AND PUSH20 0xFFFFFFFFFFFFFFFFFFFFFFFFFFFFFFFFFFFFFFFF AND DUP2 MSTORE PUSH1 0x20 ADD SWAP1 DUP2 MSTORE PUSH1 0x20 ADD PUSH1 0x0 KECCAK256 PUSH1 0x2 ADD PUSH1 0x15 PUSH2 0x100 EXP DUP2 SLOAD DUP2 PUSH1 0xFF MUL NOT AND SWAP1 DUP4 ISZERO ISZERO MUL OR SWAP1 SSTORE POP PUSH1 0x2 PUSH1 0x0 DUP4 PUSH20 0xFFFFFFFFFFFFFFFFFFFFFFFFFFFFFFFFFFFFFFFF AND PUSH20 0xFFFFFFFFFFFFFFFFFFFFFFFFFFFFFFFFFFFFFFFF AND DUP2 MSTORE PUSH1 0x20 ADD SWAP1 DUP2 MSTORE PUSH1 0x20 ADD PUSH1 0x0 KECCAK256 PUSH1 0x40 MLOAD DUP1 PUSH1 0xC0 ADD PUSH1 0x40 MSTORE SWAP1 DUP2 PUSH1 0x0 DUP3 ADD DUP1 SLOAD PUSH2 0x8F5 SWAP1 PUSH2 0x19A7 JUMP JUMPDEST DUP1 PUSH1 0x1F ADD PUSH1 0x20 DUP1 SWAP2 DIV MUL PUSH1 0x20 ADD PUSH1 0x40 MLOAD SWAP1 DUP2 ADD PUSH1 0x40 MSTORE DUP1 SWAP3 SWAP2 SWAP1 DUP2 DUP2 MSTORE PUSH1 0x20 ADD DUP3 DUP1 SLOAD PUSH2 0x921 SWAP1 PUSH2 0x19A7 JUMP JUMPDEST DUP1 ISZERO PUSH2 0x96E JUMPI DUP1 PUSH1 0x1F LT PUSH2 0x943 JUMPI PUSH2 0x100 DUP1 DUP4 SLOAD DIV MUL DUP4 MSTORE SWAP2 PUSH1 0x20 ADD SWAP2 PUSH2 0x96E JUMP JUMPDEST DUP3 ADD SWAP2 SWAP1 PUSH1 0x0 MSTORE PUSH1 0x20 PUSH1 0x0 KECCAK256 SWAP1 JUMPDEST DUP2 SLOAD DUP2 MSTORE SWAP1 PUSH1 0x1 ADD SWAP1 PUSH1 0x20 ADD DUP1 DUP4 GT PUSH2 0x951 JUMPI DUP3 SWAP1 SUB PUSH1 0x1F AND DUP3 ADD SWAP2 JUMPDEST POP POP POP POP POP DUP2 MSTORE PUSH1 0x20 ADD PUSH1 0x1 DUP3 ADD DUP1 SLOAD PUSH2 0x987 SWAP1 PUSH2 0x19A7 JUMP JUMPDEST DUP1 PUSH1 0x1F ADD PUSH1 0x20 DUP1 SWAP2 DIV MUL PUSH1 0x20 ADD PUSH1 0x40 MLOAD SWAP1 DUP2 ADD PUSH1 0x40 MSTORE DUP1 SWAP3 SWAP2 SWAP1 DUP2 DUP2 MSTORE PUSH1 0x20 ADD DUP3 DUP1 SLOAD PUSH2 0x9B3 SWAP1 PUSH2 0x19A7 JUMP JUMPDEST DUP1 ISZERO PUSH2 0xA00 JUMPI DUP1 PUSH1 0x1F LT PUSH2 0x9D5 JUMPI PUSH2 0x100 DUP1 DUP4 SLOAD DIV MUL DUP4 MSTORE SWAP2 PUSH1 0x20 ADD SWAP2 PUSH2 0xA00 JUMP JUMPDEST DUP3 ADD SWAP2 SWAP1 PUSH1 0x0 MSTORE PUSH1 0x20 PUSH1 0x0 KECCAK256 SWAP1 JUMPDEST DUP2 SLOAD DUP2 MSTORE SWAP1 PUSH1 0x1 ADD SWAP1 PUSH1 0x20 ADD DUP1 DUP4 GT PUSH2 0x9E3 JUMPI DUP3 SWAP1 SUB PUSH1 0x1F AND DUP3 ADD SWAP2 JUMPDEST POP POP POP POP POP DUP2 MSTORE PUSH1 0x20 ADD PUSH1 0x2 DUP3 ADD PUSH1 0x0 SWAP1 SLOAD SWAP1 PUSH2 0x100 EXP SWAP1 DIV PUSH20 0xFFFFFFFFFFFFFFFFFFFFFFFFFFFFFFFFFFFFFFFF AND PUSH20 0xFFFFFFFFFFFFFFFFFFFFFFFFFFFFFFFFFFFFFFFF AND PUSH20 0xFFFFFFFFFFFFFFFFFFFFFFFFFFFFFFFFFFFFFFFF AND DUP2 MSTORE PUSH1 0x20 ADD PUSH1 0x2 DUP3 ADD PUSH1 0x14 SWAP1 SLOAD SWAP1 PUSH2 0x100 EXP SWAP1 DIV PUSH1 0xFF AND ISZERO ISZERO ISZERO ISZERO DUP2 MSTORE PUSH1 0x20 ADD PUSH1 0x2 DUP3 ADD PUSH1 0x15 SWAP1 SLOAD SWAP1 PUSH2 0x100 EXP SWAP1 DIV PUSH1 0xFF AND ISZERO ISZERO ISZERO ISZERO DUP2 MSTORE PUSH1 0x20 ADD PUSH1 0x2 DUP3 ADD PUSH1 0x16 SWAP1 SLOAD SWAP1 PUSH2 0x100 EXP SWAP1 DIV PUSH1 0xFF AND ISZERO ISZERO ISZERO ISZERO DUP2 MSTORE POP POP SWAP1 POP SWAP2 SWAP1 POP JUMP JUMPDEST PUSH1 0x0 DUP1 ISZERO ISZERO PUSH1 0x1 PUSH1 0x0 PUSH20 0xAB8483F64D9C6D1ECF9B849AE677DD3315835CB2 PUSH20 0xFFFFFFFFFFFFFFFFFFFFFFFFFFFFFFFFFFFFFFFF AND PUSH20 0xFFFFFFFFFFFFFFFFFFFFFFFFFFFFFFFFFFFFFFFF AND DUP2 MSTORE PUSH1 0x20 ADD SWAP1 DUP2 MSTORE PUSH1 0x20 ADD PUSH1 0x0 KECCAK256 PUSH1 0x0 ADD PUSH1 0x0 SWAP1 SLOAD SWAP1 PUSH2 0x100 EXP SWAP1 DIV PUSH1 0xFF AND ISZERO ISZERO EQ DUP1 ISZERO PUSH2 0xB96 JUMPI POP PUSH1 0x0 ISZERO ISZERO PUSH1 0x1 PUSH1 0x0 PUSH20 0xAB8483F64D9C6D1ECF9B849AE677DD3315835CB2 PUSH20 0xFFFFFFFFFFFFFFFFFFFFFFFFFFFFFFFFFFFFFFFF AND PUSH20 0xFFFFFFFFFFFFFFFFFFFFFFFFFFFFFFFFFFFFFFFF AND DUP2 MSTORE PUSH1 0x20 ADD SWAP1 DUP2 MSTORE PUSH1 0x20 ADD PUSH1 0x0 KECCAK256 PUSH1 0x0 ADD PUSH1 0x0 SWAP1 SLOAD SWAP1 PUSH2 0x100 EXP SWAP1 DIV PUSH1 0xFF AND ISZERO ISZERO EQ JUMPDEST PUSH2 0xBD5 JUMPI PUSH1 0x40 MLOAD PUSH32 0x8C379A000000000000000000000000000000000000000000000000000000000 DUP2 MSTORE PUSH1 0x4 ADD PUSH2 0xBCC SWAP1 PUSH2 0x17EA JUMP JUMPDEST PUSH1 0x40 MLOAD DUP1 SWAP2 SUB SWAP1 REVERT JUMPDEST DUP2 PUSH20 0xFFFFFFFFFFFFFFFFFFFFFFFFFFFFFFFFFFFFFFFF AND CALLER PUSH20 0xFFFFFFFFFFFFFFFFFFFFFFFFFFFFFFFFFFFFFFFF AND EQ PUSH2 0xC43 JUMPI PUSH1 0x40 MLOAD PUSH32 0x8C379A000000000000000000000000000000000000000000000000000000000 DUP2 MSTORE PUSH1 0x4 ADD PUSH2 0xC3A SWAP1 PUSH2 0x180A JUMP JUMPDEST PUSH1 0x40 MLOAD DUP1 SWAP2 SUB SWAP1 REVERT JUMPDEST PUSH1 0x0 JUMPDEST PUSH1 0x3 DUP1 SLOAD SWAP1 POP DUP2 LT ISZERO PUSH2 0xCA8 JUMPI CALLER PUSH20 0xFFFFFFFFFFFFFFFFFFFFFFFFFFFFFFFFFFFFFFFF AND PUSH1 0x3 DUP3 DUP2 SLOAD DUP2 LT PUSH2 0xC7E JUMPI PUSH2 0xC7D PUSH2 0x1AE0 JUMP JUMPDEST JUMPDEST SWAP1 PUSH1 0x0 MSTORE PUSH1 0x20 PUSH1 0x0 KECCAK256 ADD PUSH1 0x0 SWAP1 SLOAD SWAP1 PUSH2 0x100 EXP SWAP1 POP POP POP DUP1 DUP1 PUSH2 0xCA0 SWAP1 PUSH2 0x1A0A JUMP JUMPDEST SWAP2 POP POP PUSH2 0xC46 JUMP JUMPDEST POP PUSH1 0x1 ISZERO ISZERO PUSH1 0x2 PUSH1 0x0 CALLER PUSH20 0xFFFFFFFFFFFFFFFFFFFFFFFFFFFFFFFFFFFFFFFF AND PUSH20 0xFFFFFFFFFFFFFFFFFFFFFFFFFFFFFFFFFFFFFFFF AND DUP2 MSTORE PUSH1 0x20 ADD SWAP1 DUP2 MSTORE PUSH1 0x20 ADD PUSH1 0x0 KECCAK256 PUSH1 0x2 ADD PUSH1 0x16 SWAP1 SLOAD SWAP1 PUSH2 0x100 EXP SWAP1 DIV PUSH1 0xFF AND ISZERO ISZERO EQ PUSH2 0xD3F JUMPI PUSH1 0x40 MLOAD PUSH32 0x8C379A000000000000000000000000000000000000000000000000000000000 DUP2 MSTORE PUSH1 0x4 ADD PUSH2 0xD36 SWAP1 PUSH2 0x176A JUMP JUMPDEST PUSH1 0x40 MLOAD DUP1 SWAP2 SUB SWAP1 REVERT JUMPDEST PUSH1 0x0 ISZERO ISZERO PUSH1 0x2 PUSH1 0x0 CALLER PUSH20 0xFFFFFFFFFFFFFFFFFFFFFFFFFFFFFFFFFFFFFFFF AND PUSH20 0xFFFFFFFFFFFFFFFFFFFFFFFFFFFFFFFFFFFFFFFF AND DUP2 MSTORE PUSH1 0x20 ADD SWAP1 DUP2 MSTORE PUSH1 0x20 ADD PUSH1 0x0 KECCAK256 PUSH1 0x2 ADD PUSH1 0x14 SWAP1 SLOAD SWAP1 PUSH2 0x100 EXP SWAP1 DIV PUSH1 0xFF AND ISZERO ISZERO EQ PUSH2 0xDD5 JUMPI PUSH1 0x40 MLOAD PUSH32 0x8C379A000000000000000000000000000000000000000000000000000000000 DUP2 MSTORE PUSH1 0x4 ADD PUSH2 0xDCC SWAP1 PUSH2 0x178A JUMP JUMPDEST PUSH1 0x40 MLOAD DUP1 SWAP2 SUB SWAP1 REVERT JUMPDEST PUSH1 0x40 MLOAD DUP1 PUSH1 0xC0 ADD PUSH1 0x40 MSTORE DUP1 DUP6 DUP2 MSTORE PUSH1 0x20 ADD DUP5 DUP2 MSTORE PUSH1 0x20 ADD DUP4 PUSH20 0xFFFFFFFFFFFFFFFFFFFFFFFFFFFFFFFFFFFFFFFF AND DUP2 MSTORE PUSH1 0x20 ADD PUSH1 0x1 ISZERO ISZERO DUP2 MSTORE PUSH1 0x20 ADD PUSH1 0x0 ISZERO ISZERO DUP2 MSTORE PUSH1 0x20 ADD PUSH1 0x1 ISZERO ISZERO DUP2 MSTORE POP PUSH1 0x2 PUSH1 0x0 CALLER PUSH20 0xFFFFFFFFFFFFFFFFFFFFFFFFFFFFFFFFFFFFFFFF AND PUSH20 0xFFFFFFFFFFFFFFFFFFFFFFFFFFFFFFFFFFFFFFFF AND DUP2 MSTORE PUSH1 0x20 ADD SWAP1 DUP2 MSTORE PUSH1 0x20 ADD PUSH1 0x0 KECCAK256 PUSH1 0x0 DUP3 ADD MLOAD DUP2 PUSH1 0x0 ADD SWAP1 DUP1 MLOAD SWAP1 PUSH1 0x20 ADD SWAP1 PUSH2 0xE7C SWAP3 SWAP2 SWAP1 PUSH2 0x123B JUMP JUMPDEST POP PUSH1 0x20 DUP3 ADD MLOAD DUP2 PUSH1 0x1 ADD SWAP1 DUP1 MLOAD SWAP1 PUSH1 0x20 ADD SWAP1 PUSH2 0xE99 SWAP3 SWAP2 SWAP1 PUSH2 0x123B JUMP JUMPDEST POP PUSH1 0x40 DUP3 ADD MLOAD DUP2 PUSH1 0x2 ADD PUSH1 0x0 PUSH2 0x100 EXP DUP2 SLOAD DUP2 PUSH20 0xFFFFFFFFFFFFFFFFFFFFFFFFFFFFFFFFFFFFFFFF MUL NOT AND SWAP1 DUP4 PUSH20 0xFFFFFFFFFFFFFFFFFFFFFFFFFFFFFFFFFFFFFFFF AND MUL OR SWAP1 SSTORE POP PUSH1 0x60 DUP3 ADD MLOAD DUP2 PUSH1 0x2 ADD PUSH1 0x14 PUSH2 0x100 EXP DUP2 SLOAD DUP2 PUSH1 0xFF MUL NOT AND SWAP1 DUP4 ISZERO ISZERO MUL OR SWAP1 SSTORE POP PUSH1 0x80 DUP3 ADD MLOAD DUP2 PUSH1 0x2 ADD PUSH1 0x15 PUSH2 0x100 EXP DUP2 SLOAD DUP2 PUSH1 0xFF MUL NOT AND SWAP1 DUP4 ISZERO ISZERO MUL OR SWAP1 SSTORE POP PUSH1 0xA0 DUP3 ADD MLOAD DUP2 PUSH1 0x2 ADD PUSH1 0x16 PUSH2 0x100 EXP DUP2 SLOAD DUP2 PUSH1 0xFF MUL NOT AND SWAP1 DUP4 ISZERO ISZERO MUL OR SWAP1 SSTORE POP SWAP1 POP POP PUSH1 0x3 CALLER SWAP1 DUP1 PUSH1 0x1 DUP2 SLOAD ADD DUP1 DUP3 SSTORE DUP1 SWAP2 POP POP PUSH1 0x1 SWAP1 SUB SWAP1 PUSH1 0x0 MSTORE PUSH1 0x20 PUSH1 0x0 KECCAK256 ADD PUSH1 0x0 SWAP1 SWAP2 SWAP1 SWAP2 SWAP1 SWAP2 PUSH2 0x100 EXP DUP2 SLOAD DUP2 PUSH20 0xFFFFFFFFFFFFFFFFFFFFFFFFFFFFFFFFFFFFFFFF MUL NOT AND SWAP1 DUP4 PUSH20 0xFFFFFFFFFFFFFFFFFFFFFFFFFFFFFFFFFFFFFFFF AND MUL OR SWAP1 SSTORE POP POP POP POP POP JUMP JUMPDEST PUSH1 0x0 DUP2 PUSH1 0x40 MLOAD PUSH1 0x20 ADD PUSH2 0xFC0 SWAP2 SWAP1 PUSH2 0x16F6 JUMP JUMPDEST PUSH1 0x40 MLOAD PUSH1 0x20 DUP2 DUP4 SUB SUB DUP2 MSTORE SWAP1 PUSH1 0x40 MSTORE DUP1 MLOAD SWAP1 PUSH1 0x20 ADD KECCAK256 SWAP1 POP SWAP2 SWAP1 POP JUMP JUMPDEST PUSH1 0x2 PUSH1 0x4 DUP2 GT ISZERO PUSH2 0xFF1 JUMPI PUSH2 0xFF0 PUSH2 0x1A82 JUMP JUMPDEST JUMPDEST PUSH1 0x0 DUP1 CALLER PUSH20 0xFFFFFFFFFFFFFFFFFFFFFFFFFFFFFFFFFFFFFFFF AND PUSH20 0xFFFFFFFFFFFFFFFFFFFFFFFFFFFFFFFFFFFFFFFF AND DUP2 MSTORE PUSH1 0x20 ADD SWAP1 DUP2 MSTORE PUSH1 0x20 ADD PUSH1 0x0 KECCAK256 PUSH1 0x0 ADD PUSH1 0x0 SWAP1 SLOAD SWAP1 PUSH2 0x100 EXP SWAP1 DIV PUSH1 0xFF AND PUSH1 0x4 DUP2 GT ISZERO PUSH2 0x1052 JUMPI PUSH2 0x1051 PUSH2 0x1A82 JUMP JUMPDEST JUMPDEST EQ PUSH2 0x1092 JUMPI PUSH1 0x40 MLOAD PUSH32 0x8C379A000000000000000000000000000000000000000000000000000000000 DUP2 MSTORE PUSH1 0x4 ADD PUSH2 0x1089 SWAP1 PUSH2 0x17CA JUMP JUMPDEST PUSH1 0x40 MLOAD DUP1 SWAP2 SUB SWAP1 REVERT JUMPDEST PUSH1 0x0 ISZERO ISZERO PUSH1 0x2 PUSH1 0x0 CALLER PUSH20 0xFFFFFFFFFFFFFFFFFFFFFFFFFFFFFFFFFFFFFFFF AND PUSH20 0xFFFFFFFFFFFFFFFFFFFFFFFFFFFFFFFFFFFFFFFF AND DUP2 MSTORE PUSH1 0x20 ADD SWAP1 DUP2 MSTORE PUSH1 0x20 ADD PUSH1 0x0 KECCAK256 PUSH1 0x2 ADD PUSH1 0x15 SWAP1 SLOAD SWAP1 PUSH2 0x100 EXP SWAP1 DIV PUSH1 0xFF AND ISZERO ISZERO EQ PUSH2 0x1128 JUMPI PUSH1 0x40 MLOAD PUSH32 0x8C379A000000000000000000000000000000000000000000000000000000000 DUP2 MSTORE PUSH1 0x4 ADD PUSH2 0x111F SWAP1 PUSH2 0x174A JUMP JUMPDEST PUSH1 0x40 MLOAD DUP1 SWAP2 SUB SWAP1 REVERT JUMPDEST PUSH1 0x0 PUSH1 0x2 PUSH1 0x0 DUP4 PUSH20 0xFFFFFFFFFFFFFFFFFFFFFFFFFFFFFFFFFFFFFFFF AND PUSH20 0xFFFFFFFFFFFFFFFFFFFFFFFFFFFFFFFFFFFFFFFF AND DUP2 MSTORE PUSH1 0x20 ADD SWAP1 DUP2 MSTORE PUSH1 0x20 ADD PUSH1 0x0 KECCAK256 PUSH1 0x2 ADD PUSH1 0x14 PUSH2 0x100 EXP DUP2 SLOAD DUP2 PUSH1 0xFF MUL NOT AND SWAP1 DUP4 ISZERO ISZERO MUL OR SWAP1 SSTORE POP PUSH1 0x3 DUP2 SWAP1 DUP1 PUSH1 0x1 DUP2 SLOAD ADD DUP1 DUP3 SSTORE DUP1 SWAP2 POP POP PUSH1 0x1 SWAP1 SUB SWAP1 PUSH1 0x0 MSTORE PUSH1 0x20 PUSH1 0x0 KECCAK256 ADD PUSH1 0x0 SWAP1 SWAP2 SWAP1 SWAP2 SWAP1 SWAP2 PUSH2 0x100 EXP DUP2 SLOAD DUP2 PUSH20 0xFFFFFFFFFFFFFFFFFFFFFFFFFFFFFFFFFFFFFFFF MUL NOT AND SWAP1 DUP4 PUSH20 0xFFFFFFFFFFFFFFFFFFFFFFFFFFFFFFFFFFFFFFFF AND MUL OR SWAP1 SSTORE POP POP JUMP JUMPDEST PUSH1 0x40 MLOAD DUP1 PUSH1 0xC0 ADD PUSH1 0x40 MSTORE DUP1 PUSH1 0x60 DUP2 MSTORE PUSH1 0x20 ADD PUSH1 0x60 DUP2 MSTORE PUSH1 0x20 ADD PUSH1 0x0 PUSH20 0xFFFFFFFFFFFFFFFFFFFFFFFFFFFFFFFFFFFFFFFF AND DUP2 MSTORE PUSH1 0x20 ADD PUSH1 0x0 ISZERO ISZERO DUP2 MSTORE PUSH1 0x20 ADD PUSH1 0x0 ISZERO ISZERO DUP2 MSTORE PUSH1 0x20 ADD PUSH1 0x0 ISZERO ISZERO DUP2 MSTORE POP SWAP1 JUMP JUMPDEST DUP3 DUP1 SLOAD PUSH2 0x1247 SWAP1 PUSH2 0x19A7 JUMP JUMPDEST SWAP1 PUSH1 0x0 MSTORE PUSH1 0x20 PUSH1 0x0 KECCAK256 SWAP1 PUSH1 0x1F ADD PUSH1 0x20 SWAP1 DIV DUP2 ADD SWAP3 DUP3 PUSH2 0x1269 JUMPI PUSH1 0x0 DUP6 SSTORE PUSH2 0x12B0 JUMP JUMPDEST DUP3 PUSH1 0x1F LT PUSH2 0x1282 JUMPI DUP1 MLOAD PUSH1 0xFF NOT AND DUP4 DUP1 ADD OR DUP6 SSTORE PUSH2 0x12B0 JUMP JUMPDEST DUP3 DUP1 ADD PUSH1 0x1 ADD DUP6 SSTORE DUP3 ISZERO PUSH2 0x12B0 JUMPI SWAP2 DUP3 ADD JUMPDEST DUP3 DUP2 GT ISZERO PUSH2 0x12AF JUMPI DUP3 MLOAD DUP3 SSTORE SWAP2 PUSH1 0x20 ADD SWAP2 SWAP1 PUSH1 0x1 ADD SWAP1 PUSH2 0x1294 JUMP JUMPDEST JUMPDEST POP SWAP1 POP PUSH2 0x12BD SWAP2 SWAP1 PUSH2 0x12C1 JUMP JUMPDEST POP SWAP1 JUMP JUMPDEST JUMPDEST DUP1 DUP3 GT ISZERO PUSH2 0x12DA JUMPI PUSH1 0x0 DUP2 PUSH1 0x0 SWAP1 SSTORE POP PUSH1 0x1 ADD PUSH2 0x12C2 JUMP JUMPDEST POP SWAP1 JUMP JUMPDEST PUSH1 0x0 PUSH2 0x12F1 PUSH2 0x12EC DUP5 PUSH2 0x1871 JUMP JUMPDEST PUSH2 0x184C JUMP JUMPDEST SWAP1 POP DUP3 DUP2 MSTORE PUSH1 0x20 DUP2 ADD DUP5 DUP5 DUP5 ADD GT ISZERO PUSH2 0x130D JUMPI PUSH2 0x130C PUSH2 0x1B43 JUMP JUMPDEST JUMPDEST PUSH2 0x1318 DUP5 DUP3 DUP6 PUSH2 0x1965 JUMP JUMPDEST POP SWAP4 SWAP3 POP POP POP JUMP JUMPDEST PUSH1 0x0 DUP2 CALLDATALOAD SWAP1 POP PUSH2 0x132F DUP2 PUSH2 0x1CCE JUMP JUMPDEST SWAP3 SWAP2 POP POP JUMP JUMPDEST PUSH1 0x0 DUP3 PUSH1 0x1F DUP4 ADD SLT PUSH2 0x134A JUMPI PUSH2 0x1349 PUSH2 0x1B3E JUMP JUMPDEST JUMPDEST DUP2 CALLDATALOAD PUSH2 0x135A DUP5 DUP3 PUSH1 0x20 DUP7 ADD PUSH2 0x12DE JUMP JUMPDEST SWAP2 POP POP SWAP3 SWAP2 POP POP JUMP JUMPDEST PUSH1 0x0 PUSH1 0x20 DUP3 DUP5 SUB SLT ISZERO PUSH2 0x1379 JUMPI PUSH2 0x1378 PUSH2 0x1B4D JUMP JUMPDEST JUMPDEST PUSH1 0x0 PUSH2 0x1387 DUP5 DUP3 DUP6 ADD PUSH2 0x1320 JUMP JUMPDEST SWAP2 POP POP SWAP3 SWAP2 POP POP JUMP JUMPDEST PUSH1 0x0 PUSH1 0x20 DUP3 DUP5 SUB SLT ISZERO PUSH2 0x13A6 JUMPI PUSH2 0x13A5 PUSH2 0x1B4D JUMP JUMPDEST JUMPDEST PUSH1 0x0 DUP3 ADD CALLDATALOAD PUSH8 0xFFFFFFFFFFFFFFFF DUP2 GT ISZERO PUSH2 0x13C4 JUMPI PUSH2 0x13C3 PUSH2 0x1B48 JUMP JUMPDEST JUMPDEST PUSH2 0x13D0 DUP5 DUP3 DUP6 ADD PUSH2 0x1335 JUMP JUMPDEST SWAP2 POP POP SWAP3 SWAP2 POP POP JUMP JUMPDEST PUSH1 0x0 DUP1 PUSH1 0x0 PUSH1 0x60 DUP5 DUP7 SUB SLT ISZERO PUSH2 0x13F2 JUMPI PUSH2 0x13F1 PUSH2 0x1B4D JUMP JUMPDEST JUMPDEST PUSH1 0x0 DUP5 ADD CALLDATALOAD PUSH8 0xFFFFFFFFFFFFFFFF DUP2 GT ISZERO PUSH2 0x1410 JUMPI PUSH2 0x140F PUSH2 0x1B48 JUMP JUMPDEST JUMPDEST PUSH2 0x141C DUP7 DUP3 DUP8 ADD PUSH2 0x1335 JUMP JUMPDEST SWAP4 POP POP PUSH1 0x20 DUP5 ADD CALLDATALOAD PUSH8 0xFFFFFFFFFFFFFFFF DUP2 GT ISZERO PUSH2 0x143D JUMPI PUSH2 0x143C PUSH2 0x1B48 JUMP JUMPDEST JUMPDEST PUSH2 0x1449 DUP7 DUP3 DUP8 ADD PUSH2 0x1335 JUMP JUMPDEST SWAP3 POP POP PUSH1 0x40 PUSH2 0x145A DUP7 DUP3 DUP8 ADD PUSH2 0x1320 JUMP JUMPDEST SWAP2 POP POP SWAP3 POP SWAP3 POP SWAP3 JUMP JUMPDEST PUSH1 0x0 PUSH2 0x1470 DUP4 DUP4 PUSH2 0x147C JUMP JUMPDEST PUSH1 0x20 DUP4 ADD SWAP1 POP SWAP3 SWAP2 POP POP JUMP JUMPDEST PUSH2 0x1485 DUP2 PUSH2 0x1913 JUMP JUMPDEST DUP3 MSTORE POP POP JUMP JUMPDEST PUSH1 0x0 PUSH2 0x1496 DUP3 PUSH2 0x18B2 JUMP JUMPDEST PUSH2 0x14A0 DUP2 DUP6 PUSH2 0x18D5 JUMP JUMPDEST SWAP4 POP PUSH2 0x14AB DUP4 PUSH2 0x18A2 JUMP JUMPDEST DUP1 PUSH1 0x0 JUMPDEST DUP4 DUP2 LT ISZERO PUSH2 0x14DC JUMPI DUP2 MLOAD PUSH2 0x14C3 DUP9 DUP3 PUSH2 0x1464 JUMP JUMPDEST SWAP8 POP PUSH2 0x14CE DUP4 PUSH2 0x18C8 JUMP JUMPDEST SWAP3 POP POP PUSH1 0x1 DUP2 ADD SWAP1 POP PUSH2 0x14AF JUMP JUMPDEST POP DUP6 SWAP4 POP POP POP POP SWAP3 SWAP2 POP POP JUMP JUMPDEST PUSH2 0x14F2 DUP2 PUSH2 0x1925 JUMP JUMPDEST DUP3 MSTORE POP POP JUMP JUMPDEST PUSH2 0x1501 DUP2 PUSH2 0x1931 JUMP JUMPDEST DUP3 MSTORE POP POP JUMP JUMPDEST PUSH1 0x0 PUSH2 0x1512 DUP3 PUSH2 0x18BD JUMP JUMPDEST PUSH2 0x151C DUP2 DUP6 PUSH2 0x18E6 JUMP JUMPDEST SWAP4 POP PUSH2 0x152C DUP2 DUP6 PUSH1 0x20 DUP7 ADD PUSH2 0x1974 JUMP JUMPDEST PUSH2 0x1535 DUP2 PUSH2 0x1B52 JUMP JUMPDEST DUP5 ADD SWAP2 POP POP SWAP3 SWAP2 POP POP JUMP JUMPDEST PUSH1 0x0 PUSH2 0x154B DUP3 PUSH2 0x18BD JUMP JUMPDEST PUSH2 0x1555 DUP2 DUP6 PUSH2 0x1908 JUMP JUMPDEST SWAP4 POP PUSH2 0x1565 DUP2 DUP6 PUSH1 0x20 DUP7 ADD PUSH2 0x1974 JUMP JUMPDEST DUP1 DUP5 ADD SWAP2 POP POP SWAP3 SWAP2 POP POP JUMP JUMPDEST PUSH1 0x0 PUSH2 0x157E PUSH1 0x1C DUP4 PUSH2 0x18F7 JUMP JUMPDEST SWAP2 POP PUSH2 0x1589 DUP3 PUSH2 0x1B63 JUMP JUMPDEST PUSH1 0x20 DUP3 ADD SWAP1 POP SWAP2 SWAP1 POP JUMP JUMPDEST PUSH1 0x0 PUSH2 0x15A1 PUSH1 0x18 DUP4 PUSH2 0x18F7 JUMP JUMPDEST SWAP2 POP PUSH2 0x15AC DUP3 PUSH2 0x1B8C JUMP JUMPDEST PUSH1 0x20 DUP3 ADD SWAP1 POP SWAP2 SWAP1 POP JUMP JUMPDEST PUSH1 0x0 PUSH2 0x15C4 PUSH1 0x2A DUP4 PUSH2 0x18F7 JUMP JUMPDEST SWAP2 POP PUSH2 0x15CF DUP3 PUSH2 0x1BB5 JUMP JUMPDEST PUSH1 0x40 DUP3 ADD SWAP1 POP SWAP2 SWAP1 POP JUMP JUMPDEST PUSH1 0x0 PUSH2 0x15E7 PUSH1 0xE DUP4 PUSH2 0x18F7 JUMP JUMPDEST SWAP2 POP PUSH2 0x15F2 DUP3 PUSH2 0x1C04 JUMP JUMPDEST PUSH1 0x20 DUP3 ADD SWAP1 POP SWAP2 SWAP1 POP JUMP JUMPDEST PUSH1 0x0 PUSH2 0x160A PUSH1 0x19 DUP4 PUSH2 0x18F7 JUMP JUMPDEST SWAP2 POP PUSH2 0x1615 DUP3 PUSH2 0x1C2D JUMP JUMPDEST PUSH1 0x20 DUP3 ADD SWAP1 POP SWAP2 SWAP1 POP JUMP JUMPDEST PUSH1 0x0 PUSH2 0x162D PUSH1 0x17 DUP4 PUSH2 0x18F7 JUMP JUMPDEST SWAP2 POP PUSH2 0x1638 DUP3 PUSH2 0x1C56 JUMP JUMPDEST PUSH1 0x20 DUP3 ADD SWAP1 POP SWAP2 SWAP1 POP JUMP JUMPDEST PUSH1 0x0 PUSH2 0x1650 PUSH1 0x37 DUP4 PUSH2 0x18F7 JUMP JUMPDEST SWAP2 POP PUSH2 0x165B DUP3 PUSH2 0x1C7F JUMP JUMPDEST PUSH1 0x40 DUP3 ADD SWAP1 POP SWAP2 SWAP1 POP JUMP JUMPDEST PUSH1 0x0 PUSH1 0xC0 DUP4 ADD PUSH1 0x0 DUP4 ADD MLOAD DUP5 DUP3 SUB PUSH1 0x0 DUP7 ADD MSTORE PUSH2 0x1683 DUP3 DUP3 PUSH2 0x1507 JUMP JUMPDEST SWAP2 POP POP PUSH1 0x20 DUP4 ADD MLOAD DUP5 DUP3 SUB PUSH1 0x20 DUP7 ADD MSTORE PUSH2 0x169D DUP3 DUP3 PUSH2 0x1507 JUMP JUMPDEST SWAP2 POP POP PUSH1 0x40 DUP4 ADD MLOAD PUSH2 0x16B2 PUSH1 0x40 DUP7 ADD DUP3 PUSH2 0x147C JUMP JUMPDEST POP PUSH1 0x60 DUP4 ADD MLOAD PUSH2 0x16C5 PUSH1 0x60 DUP7 ADD DUP3 PUSH2 0x14E9 JUMP JUMPDEST POP PUSH1 0x80 DUP4 ADD MLOAD PUSH2 0x16D8 PUSH1 0x80 DUP7 ADD DUP3 PUSH2 0x14E9 JUMP JUMPDEST POP PUSH1 0xA0 DUP4 ADD MLOAD PUSH2 0x16EB PUSH1 0xA0 DUP7 ADD DUP3 PUSH2 0x14E9 JUMP JUMPDEST POP DUP1 SWAP2 POP POP SWAP3 SWAP2 POP POP JUMP JUMPDEST PUSH1 0x0 PUSH2 0x1702 DUP3 DUP5 PUSH2 0x1540 JUMP JUMPDEST SWAP2 POP DUP2 SWAP1 POP SWAP3 SWAP2 POP POP JUMP JUMPDEST PUSH1 0x0 PUSH1 0x20 DUP3 ADD SWAP1 POP DUP2 DUP2 SUB PUSH1 0x0 DUP4 ADD MSTORE PUSH2 0x1727 DUP2 DUP5 PUSH2 0x148B JUMP JUMPDEST SWAP1 POP SWAP3 SWAP2 POP POP JUMP JUMPDEST PUSH1 0x0 PUSH1 0x20 DUP3 ADD SWAP1 POP PUSH2 0x1744 PUSH1 0x0 DUP4 ADD DUP5 PUSH2 0x14F8 JUMP JUMPDEST SWAP3 SWAP2 POP POP JUMP JUMPDEST PUSH1 0x0 PUSH1 0x20 DUP3 ADD SWAP1 POP DUP2 DUP2 SUB PUSH1 0x0 DUP4 ADD MSTORE PUSH2 0x1763 DUP2 PUSH2 0x1571 JUMP JUMPDEST SWAP1 POP SWAP2 SWAP1 POP JUMP JUMPDEST PUSH1 0x0 PUSH1 0x20 DUP3 ADD SWAP1 POP DUP2 DUP2 SUB PUSH1 0x0 DUP4 ADD MSTORE PUSH2 0x1783 DUP2 PUSH2 0x1594 JUMP JUMPDEST SWAP1 POP SWAP2 SWAP1 POP JUMP JUMPDEST PUSH1 0x0 PUSH1 0x20 DUP3 ADD SWAP1 POP DUP2 DUP2 SUB PUSH1 0x0 DUP4 ADD MSTORE PUSH2 0x17A3 DUP2 PUSH2 0x15B7 JUMP JUMPDEST SWAP1 POP SWAP2 SWAP1 POP JUMP JUMPDEST PUSH1 0x0 PUSH1 0x20 DUP3 ADD SWAP1 POP DUP2 DUP2 SUB PUSH1 0x0 DUP4 ADD MSTORE PUSH2 0x17C3 DUP2 PUSH2 0x15DA JUMP JUMPDEST SWAP1 POP SWAP2 SWAP1 POP JUMP JUMPDEST PUSH1 0x0 PUSH1 0x20 DUP3 ADD SWAP1 POP DUP2 DUP2 SUB PUSH1 0x0 DUP4 ADD MSTORE PUSH2 0x17E3 DUP2 PUSH2 0x15FD JUMP JUMPDEST SWAP1 POP SWAP2 SWAP1 POP JUMP JUMPDEST PUSH1 0x0 PUSH1 0x20 DUP3 ADD SWAP1 POP DUP2 DUP2 SUB PUSH1 0x0 DUP4 ADD MSTORE PUSH2 0x1803 DUP2 PUSH2 0x1620 JUMP JUMPDEST SWAP1 POP SWAP2 SWAP1 POP JUMP JUMPDEST PUSH1 0x0 PUSH1 0x20 DUP3 ADD SWAP1 POP DUP2 DUP2 SUB PUSH1 0x0 DUP4 ADD MSTORE PUSH2 0x1823 DUP2 PUSH2 0x1643 JUMP JUMPDEST SWAP1 POP SWAP2 SWAP1 POP JUMP JUMPDEST PUSH1 0x0 PUSH1 0x20 DUP3 ADD SWAP1 POP DUP2 DUP2 SUB PUSH1 0x0 DUP4 ADD MSTORE PUSH2 0x1844 DUP2 DUP5 PUSH2 0x1666 JUMP JUMPDEST SWAP1 POP SWAP3 SWAP2 POP POP JUMP JUMPDEST PUSH1 0x0 PUSH2 0x1856 PUSH2 0x1867 JUMP JUMPDEST SWAP1 POP PUSH2 0x1862 DUP3 DUP3 PUSH2 0x19D9 JUMP JUMPDEST SWAP2 SWAP1 POP JUMP JUMPDEST PUSH1 0x0 PUSH1 0x40 MLOAD SWAP1 POP SWAP1 JUMP JUMPDEST PUSH1 0x0 PUSH8 0xFFFFFFFFFFFFFFFF DUP3 GT ISZERO PUSH2 0x188C JUMPI PUSH2 0x188B PUSH2 0x1B0F JUMP JUMPDEST JUMPDEST PUSH2 0x1895 DUP3 PUSH2 0x1B52 JUMP JUMPDEST SWAP1 POP PUSH1 0x20 DUP2 ADD SWAP1 POP SWAP2 SWAP1 POP JUMP JUMPDEST PUSH1 0x0 DUP2 SWAP1 POP PUSH1 0x20 DUP3 ADD SWAP1 POP SWAP2 SWAP1 POP JUMP JUMPDEST PUSH1 0x0 DUP2 MLOAD SWAP1 POP SWAP2 SWAP1 POP JUMP JUMPDEST PUSH1 0x0 DUP2 MLOAD SWAP1 POP SWAP2 SWAP1 POP JUMP JUMPDEST PUSH1 0x0 PUSH1 0x20 DUP3 ADD SWAP1 POP SWAP2 SWAP1 POP JUMP JUMPDEST PUSH1 0x0 DUP3 DUP3 MSTORE PUSH1 0x20 DUP3 ADD SWAP1 POP SWAP3 SWAP2 POP POP JUMP JUMPDEST PUSH1 0x0 DUP3 DUP3 MSTORE PUSH1 0x20 DUP3 ADD SWAP1 POP SWAP3 SWAP2 POP POP JUMP JUMPDEST PUSH1 0x0 DUP3 DUP3 MSTORE PUSH1 0x20 DUP3 ADD SWAP1 POP SWAP3 SWAP2 POP POP JUMP JUMPDEST PUSH1 0x0 DUP2 SWAP1 POP SWAP3 SWAP2 POP POP JUMP JUMPDEST PUSH1 0x0 PUSH2 0x191E DUP3 PUSH2 0x193B JUMP JUMPDEST SWAP1 POP SWAP2 SWAP1 POP JUMP JUMPDEST PUSH1 0x0 DUP2 ISZERO ISZERO SWAP1 POP SWAP2 SWAP1 POP JUMP JUMPDEST PUSH1 0x0 DUP2 SWAP1 POP SWAP2 SWAP1 POP JUMP JUMPDEST PUSH1 0x0 PUSH20 0xFFFFFFFFFFFFFFFFFFFFFFFFFFFFFFFFFFFFFFFF DUP3 AND SWAP1 POP SWAP2 SWAP1 POP JUMP JUMPDEST PUSH1 0x0 DUP2 SWAP1 POP SWAP2 SWAP1 POP JUMP JUMPDEST DUP3 DUP2 DUP4 CALLDATACOPY PUSH1 0x0 DUP4 DUP4 ADD MSTORE POP POP POP JUMP JUMPDEST PUSH1 0x0 JUMPDEST DUP4 DUP2 LT ISZERO PUSH2 0x1992 JUMPI DUP1 DUP3 ADD MLOAD DUP2 DUP5 ADD MSTORE PUSH1 0x20 DUP2 ADD SWAP1 POP PUSH2 0x1977 JUMP JUMPDEST DUP4 DUP2 GT ISZERO PUSH2 0x19A1 JUMPI PUSH1 0x0 DUP5 DUP5 ADD MSTORE JUMPDEST POP POP POP POP JUMP JUMPDEST PUSH1 0x0 PUSH1 0x2 DUP3 DIV SWAP1 POP PUSH1 0x1 DUP3 AND DUP1 PUSH2 0x19BF JUMPI PUSH1 0x7F DUP3 AND SWAP2 POP JUMPDEST PUSH1 0x20 DUP3 LT DUP2 EQ ISZERO PUSH2 0x19D3 JUMPI PUSH2 0x19D2 PUSH2 0x1AB1 JUMP JUMPDEST JUMPDEST POP SWAP2 SWAP1 POP JUMP JUMPDEST PUSH2 0x19E2 DUP3 PUSH2 0x1B52 JUMP JUMPDEST DUP2 ADD DUP2 DUP2 LT PUSH8 0xFFFFFFFFFFFFFFFF DUP3 GT OR ISZERO PUSH2 0x1A01 JUMPI PUSH2 0x1A00 PUSH2 0x1B0F JUMP JUMPDEST JUMPDEST DUP1 PUSH1 0x40 MSTORE POP POP POP JUMP JUMPDEST PUSH1 0x0 PUSH2 0x1A15 DUP3 PUSH2 0x195B JUMP JUMPDEST SWAP2 POP PUSH32 0xFFFFFFFFFFFFFFFFFFFFFFFFFFFFFFFFFFFFFFFFFFFFFFFFFFFFFFFFFFFFFFFF DUP3 EQ ISZERO PUSH2 0x1A48 JUMPI PUSH2 0x1A47 PUSH2 0x1A53 JUMP JUMPDEST JUMPDEST PUSH1 0x1 DUP3 ADD SWAP1 POP SWAP2 SWAP1 POP JUMP JUMPDEST PUSH32 0x4E487B7100000000000000000000000000000000000000000000000000000000 PUSH1 0x0 MSTORE PUSH1 0x11 PUSH1 0x4 MSTORE PUSH1 0x24 PUSH1 0x0 REVERT JUMPDEST PUSH32 0x4E487B7100000000000000000000000000000000000000000000000000000000 PUSH1 0x0 MSTORE PUSH1 0x21 PUSH1 0x4 MSTORE PUSH1 0x24 PUSH1 0x0 REVERT JUMPDEST PUSH32 0x4E487B7100000000000000000000000000000000000000000000000000000000 PUSH1 0x0 MSTORE PUSH1 0x22 PUSH1 0x4 MSTORE PUSH1 0x24 PUSH1 0x0 REVERT JUMPDEST PUSH32 0x4E487B7100000000000000000000000000000000000000000000000000000000 PUSH1 0x0 MSTORE PUSH1 0x32 PUSH1 0x4 MSTORE PUSH1 0x24 PUSH1 0x0 REVERT JUMPDEST PUSH32 0x4E487B7100000000000000000000000000000000000000000000000000000000 PUSH1 0x0 MSTORE PUSH1 0x41 PUSH1 0x4 MSTORE PUSH1 0x24 PUSH1 0x0 REVERT JUMPDEST PUSH1 0x0 DUP1 REVERT JUMPDEST PUSH1 0x0 DUP1 REVERT JUMPDEST PUSH1 0x0 DUP1 REVERT JUMPDEST PUSH1 0x0 DUP1 REVERT JUMPDEST PUSH1 0x0 PUSH1 0x1F NOT PUSH1 0x1F DUP4 ADD AND SWAP1 POP SWAP2 SWAP1 POP JUMP JUMPDEST PUSH32 0x52657669657720746865206170706C69636174696F6E20666972737400000000 PUSH1 0x0 DUP3 ADD MSTORE POP JUMP JUMPDEST PUSH32 0x4170706C69636174696F6E20616C72656164792073656E740000000000000000 PUSH1 0x0 DUP3 ADD MSTORE POP JUMP JUMPDEST PUSH32 0x596F7572206170706C69636174696F6E2068617320616C726561647920626565 PUSH1 0x0 DUP3 ADD MSTORE PUSH32 0x6E2072656A656374656400000000000000000000000000000000000000000000 PUSH1 0x20 DUP3 ADD MSTORE POP JUMP JUMPDEST PUSH32 0x596F7572206E6F742061646D696E000000000000000000000000000000000000 PUSH1 0x0 DUP3 ADD MSTORE POP JUMP JUMPDEST PUSH32 0x596F7572206E6F7420507269766174652070726F766964657200000000000000 PUSH1 0x0 DUP3 ADD MSTORE POP JUMP JUMPDEST PUSH32 0x4170706C69636174696F6E20706861736520656E646564000000000000000000 PUSH1 0x0 DUP3 ADD MSTORE POP JUMP JUMPDEST PUSH32 0x596F752063616E27742073656E6420616E206170706C69636174696F6E20746F PUSH1 0x0 DUP3 ADD MSTORE PUSH32 0x20736F6D656F6E6520656C736527732061646472657373000000000000000000 PUSH1 0x20 DUP3 ADD MSTORE POP JUMP JUMPDEST PUSH2 0x1CD7 DUP2 PUSH2 0x1913 JUMP JUMPDEST DUP2 EQ PUSH2 0x1CE2 JUMPI PUSH1 0x0 DUP1 REVERT JUMPDEST POP JUMP INVALID LOG2 PUSH5 0x6970667358 0x22 SLT KECCAK256 MOD 0xE0 0xA9 RETURNDATASIZE 0x25 PUSH32 0xA08380A99B952D3527863FD043AAA563495CB4A11312C4AF6AEB64736F6C6343 STOP ADDMOD SMOD STOP CALLER "
				},
				"gasEstimates": {
					"creation": {
						"codeDepositCost": "1490200",
						"executionCost": "1555",
						"totalCost": "1491755"
					},
					"external": {
						"acceptApplication(address)": "78135",
						"addBlackList(address)": "51341",
						"application(string,string,address)": "infinite",
						"deviationApplication(address)": "29513",
						"getApplicationAmountAdr()": "infinite",
						"getApplicationNotReviewed()": "infinite",
						"get_keccak256(string)": "infinite",
						"viewApplication(address)": "infinite"
					}
				},
				"methodIdentifiers": {
					"acceptApplication(address)": "a678b65b",
					"addBlackList(address)": "0ecb93c0",
					"application(string,string,address)": "785963c3",
					"deviationApplication(address)": "1d3eea35",
					"getApplicationAmountAdr()": "686c4cea",
					"getApplicationNotReviewed()": "506a222c",
					"get_keccak256(string)": "8e4f8c6b",
					"viewApplication(address)": "76eada91"
				}
			},
			"storageLayout": {
				"storage": [
					{
						"astId": 466,
						"contract": "GitHub/contract-token-cryptoMonster/backend/components/PhasePrivate.sol:PhasePrivate",
						"label": "structUsers_",
						"offset": 0,
						"slot": "0",
						"type": "t_mapping(t_address,t_struct(structUser)461_storage)"
					},
					{
						"astId": 476,
						"contract": "GitHub/contract-token-cryptoMonster/backend/components/PhasePrivate.sol:PhasePrivate",
						"label": "structPhases_",
						"offset": 0,
						"slot": "1",
						"type": "t_mapping(t_address,t_struct(structPhase)471_storage)"
					},
					{
						"astId": 494,
						"contract": "GitHub/contract-token-cryptoMonster/backend/components/PhasePrivate.sol:PhasePrivate",
						"label": "strucApplications_",
						"offset": 0,
						"slot": "2",
						"type": "t_mapping(t_address,t_struct(structApplication)489_storage)"
					},
					{
						"astId": 497,
						"contract": "GitHub/contract-token-cryptoMonster/backend/components/PhasePrivate.sol:PhasePrivate",
						"label": "structApplicationsAmountAdr",
						"offset": 0,
						"slot": "3",
						"type": "t_array(t_address)dyn_storage"
					},
					{
						"astId": 500,
						"contract": "GitHub/contract-token-cryptoMonster/backend/components/PhasePrivate.sol:PhasePrivate",
						"label": "whiteList",
						"offset": 0,
						"slot": "4",
						"type": "t_array(t_address)dyn_storage"
					},
					{
						"astId": 503,
						"contract": "GitHub/contract-token-cryptoMonster/backend/components/PhasePrivate.sol:PhasePrivate",
						"label": "blackList",
						"offset": 0,
						"slot": "5",
						"type": "t_array(t_address)dyn_storage"
					}
				],
				"types": {
					"t_address": {
						"encoding": "inplace",
						"label": "address",
						"numberOfBytes": "20"
					},
					"t_array(t_address)dyn_storage": {
						"base": "t_address",
						"encoding": "dynamic_array",
						"label": "address[]",
						"numberOfBytes": "32"
					},
					"t_bool": {
						"encoding": "inplace",
						"label": "bool",
						"numberOfBytes": "1"
					},
					"t_bytes32": {
						"encoding": "inplace",
						"label": "bytes32",
						"numberOfBytes": "32"
					},
					"t_enum(Role)445": {
						"encoding": "inplace",
						"label": "enum structures.Role",
						"numberOfBytes": "1"
					},
					"t_mapping(t_address,t_struct(structApplication)489_storage)": {
						"encoding": "mapping",
						"key": "t_address",
						"label": "mapping(address => struct structures.structApplication)",
						"numberOfBytes": "32",
						"value": "t_struct(structApplication)489_storage"
					},
					"t_mapping(t_address,t_struct(structPhase)471_storage)": {
						"encoding": "mapping",
						"key": "t_address",
						"label": "mapping(address => struct structures.structPhase)",
						"numberOfBytes": "32",
						"value": "t_struct(structPhase)471_storage"
					},
					"t_mapping(t_address,t_struct(structUser)461_storage)": {
						"encoding": "mapping",
						"key": "t_address",
						"label": "mapping(address => struct structures.structUser)",
						"numberOfBytes": "32",
						"value": "t_struct(structUser)461_storage"
					},
					"t_string_storage": {
						"encoding": "bytes",
						"label": "string",
						"numberOfBytes": "32"
					},
					"t_struct(structApplication)489_storage": {
						"encoding": "inplace",
						"label": "struct structures.structApplication",
						"members": [
							{
								"astId": 478,
								"contract": "GitHub/contract-token-cryptoMonster/backend/components/PhasePrivate.sol:PhasePrivate",
								"label": "name",
								"offset": 0,
								"slot": "0",
								"type": "t_string_storage"
							},
							{
								"astId": 480,
								"contract": "GitHub/contract-token-cryptoMonster/backend/components/PhasePrivate.sol:PhasePrivate",
								"label": "contactForCommunication",
								"offset": 0,
								"slot": "1",
								"type": "t_string_storage"
							},
							{
								"astId": 482,
								"contract": "GitHub/contract-token-cryptoMonster/backend/components/PhasePrivate.sol:PhasePrivate",
								"label": "userAdr",
								"offset": 0,
								"slot": "2",
								"type": "t_address"
							},
							{
								"astId": 484,
								"contract": "GitHub/contract-token-cryptoMonster/backend/components/PhasePrivate.sol:PhasePrivate",
								"label": "status",
								"offset": 20,
								"slot": "2",
								"type": "t_bool"
							},
							{
								"astId": 486,
								"contract": "GitHub/contract-token-cryptoMonster/backend/components/PhasePrivate.sol:PhasePrivate",
								"label": "reviewed",
								"offset": 21,
								"slot": "2",
								"type": "t_bool"
							},
							{
								"astId": 488,
								"contract": "GitHub/contract-token-cryptoMonster/backend/components/PhasePrivate.sol:PhasePrivate",
								"label": "exist",
								"offset": 22,
								"slot": "2",
								"type": "t_bool"
							}
						],
						"numberOfBytes": "96"
					},
					"t_struct(structPhase)471_storage": {
						"encoding": "inplace",
						"label": "struct structures.structPhase",
						"members": [
							{
								"astId": 468,
								"contract": "GitHub/contract-token-cryptoMonster/backend/components/PhasePrivate.sol:PhasePrivate",
								"label": "statusPhase",
								"offset": 0,
								"slot": "0",
								"type": "t_bool"
							},
							{
								"astId": 470,
								"contract": "GitHub/contract-token-cryptoMonster/backend/components/PhasePrivate.sol:PhasePrivate",
								"label": "reviewed",
								"offset": 1,
								"slot": "0",
								"type": "t_bool"
							}
						],
						"numberOfBytes": "32"
					},
					"t_struct(structUser)461_storage": {
						"encoding": "inplace",
						"label": "struct structures.structUser",
						"members": [
							{
								"astId": 448,
								"contract": "GitHub/contract-token-cryptoMonster/backend/components/PhasePrivate.sol:PhasePrivate",
								"label": "role",
								"offset": 0,
								"slot": "0",
								"type": "t_enum(Role)445"
							},
							{
								"astId": 450,
								"contract": "GitHub/contract-token-cryptoMonster/backend/components/PhasePrivate.sol:PhasePrivate",
								"label": "login",
								"offset": 0,
								"slot": "1",
								"type": "t_string_storage"
							},
							{
								"astId": 452,
								"contract": "GitHub/contract-token-cryptoMonster/backend/components/PhasePrivate.sol:PhasePrivate",
								"label": "password",
								"offset": 0,
								"slot": "2",
								"type": "t_bytes32"
							},
							{
								"astId": 454,
								"contract": "GitHub/contract-token-cryptoMonster/backend/components/PhasePrivate.sol:PhasePrivate",
								"label": "balance_overall",
								"offset": 0,
								"slot": "3",
								"type": "t_uint256"
							},
							{
								"astId": 456,
								"contract": "GitHub/contract-token-cryptoMonster/backend/components/PhasePrivate.sol:PhasePrivate",
								"label": "balance_seed",
								"offset": 0,
								"slot": "4",
								"type": "t_uint256"
							},
							{
								"astId": 458,
								"contract": "GitHub/contract-token-cryptoMonster/backend/components/PhasePrivate.sol:PhasePrivate",
								"label": "balance_private",
								"offset": 0,
								"slot": "5",
								"type": "t_uint256"
							},
							{
								"astId": 460,
								"contract": "GitHub/contract-token-cryptoMonster/backend/components/PhasePrivate.sol:PhasePrivate",
								"label": "balance_public",
								"offset": 0,
								"slot": "6",
								"type": "t_uint256"
							}
						],
						"numberOfBytes": "224"
					},
					"t_uint256": {
						"encoding": "inplace",
						"label": "uint256",
						"numberOfBytes": "32"
					}
				}
			},
			"userdoc": {
				"kind": "user",
				"methods": {},
				"version": 1
			}
		}
	}
}