{
	"Documents/GitHub/contract-token-cryptoMonster/backend/components/CryptoMonster.sol": {
		"CryptoMonster": {
			"abi": [
				{
					"inputs": [
						{
							"internalType": "uint256",
							"name": "total",
							"type": "uint256"
						}
					],
					"stateMutability": "nonpayable",
					"type": "constructor"
				},
				{
					"anonymous": false,
					"inputs": [
						{
							"indexed": true,
							"internalType": "address",
							"name": "_owner",
							"type": "address"
						},
						{
							"indexed": true,
							"internalType": "address",
							"name": "_spender",
							"type": "address"
						},
						{
							"indexed": false,
							"internalType": "uint256",
							"name": "_value",
							"type": "uint256"
						}
					],
					"name": "Approval",
					"type": "event"
				},
				{
					"anonymous": false,
					"inputs": [
						{
							"indexed": true,
							"internalType": "address",
							"name": "_from",
							"type": "address"
						},
						{
							"indexed": true,
							"internalType": "address",
							"name": "_to",
							"type": "address"
						},
						{
							"indexed": false,
							"internalType": "uint256",
							"name": "_value",
							"type": "uint256"
						}
					],
					"name": "Transfer",
					"type": "event"
				},
				{
					"inputs": [
						{
							"internalType": "address",
							"name": "_owner",
							"type": "address"
						},
						{
							"internalType": "address",
							"name": "_delegate",
							"type": "address"
						}
					],
					"name": "allowance",
					"outputs": [
						{
							"internalType": "uint256",
							"name": "",
							"type": "uint256"
						}
					],
					"stateMutability": "view",
					"type": "function"
				},
				{
					"inputs": [
						{
							"internalType": "string",
							"name": "_name",
							"type": "string"
						},
						{
							"internalType": "string",
							"name": "contactForCommunication",
							"type": "string"
						},
						{
							"internalType": "address",
							"name": "_userAdr",
							"type": "address"
						}
					],
					"name": "application",
					"outputs": [],
					"stateMutability": "nonpayable",
					"type": "function"
				},
				{
					"inputs": [
						{
							"internalType": "address",
							"name": "_delegate",
							"type": "address"
						},
						{
							"internalType": "uint256",
							"name": "_numTokens",
							"type": "uint256"
						}
					],
					"name": "approve",
					"outputs": [
						{
							"internalType": "bool",
							"name": "",
							"type": "bool"
						}
					],
					"stateMutability": "nonpayable",
					"type": "function"
				},
				{
					"inputs": [
						{
							"internalType": "address",
							"name": "_tokenOwner",
							"type": "address"
						}
					],
					"name": "balanceOf",
					"outputs": [
						{
							"internalType": "uint256",
							"name": "",
							"type": "uint256"
						}
					],
					"stateMutability": "view",
					"type": "function"
				},
				{
					"inputs": [
						{
							"internalType": "uint256",
							"name": "_amount",
							"type": "uint256"
						}
					],
					"name": "buy",
					"outputs": [],
					"stateMutability": "payable",
					"type": "function"
				},
				{
					"inputs": [],
					"name": "decimals",
					"outputs": [
						{
							"internalType": "uint8",
							"name": "",
							"type": "uint8"
						}
					],
					"stateMutability": "view",
					"type": "function"
				},
				{
					"inputs": [
						{
							"internalType": "string",
							"name": "_password",
							"type": "string"
						}
					],
					"name": "get_hash",
					"outputs": [
						{
							"internalType": "bytes32",
							"name": "",
							"type": "bytes32"
						}
					],
					"stateMutability": "pure",
					"type": "function"
				},
				{
					"inputs": [],
					"name": "name",
					"outputs": [
						{
							"internalType": "string",
							"name": "",
							"type": "string"
						}
					],
					"stateMutability": "view",
					"type": "function"
				},
				{
					"inputs": [],
					"name": "symbol",
					"outputs": [
						{
							"internalType": "string",
							"name": "",
							"type": "string"
						}
					],
					"stateMutability": "view",
					"type": "function"
				},
				{
					"inputs": [],
					"name": "tokenPrice_",
					"outputs": [
						{
							"internalType": "uint256",
							"name": "",
							"type": "uint256"
						}
					],
					"stateMutability": "view",
					"type": "function"
				},
				{
					"inputs": [],
					"name": "totalSupply",
					"outputs": [
						{
							"internalType": "uint256",
							"name": "",
							"type": "uint256"
						}
					],
					"stateMutability": "view",
					"type": "function"
				},
				{
					"inputs": [
						{
							"internalType": "address",
							"name": "_receiver",
							"type": "address"
						},
						{
							"internalType": "uint256",
							"name": "_numTokens",
							"type": "uint256"
						}
					],
					"name": "transfer",
					"outputs": [
						{
							"internalType": "bool",
							"name": "",
							"type": "bool"
						}
					],
					"stateMutability": "nonpayable",
					"type": "function"
				},
				{
					"inputs": [
						{
							"internalType": "address",
							"name": "_owner",
							"type": "address"
						},
						{
							"internalType": "address",
							"name": "_buyer",
							"type": "address"
						},
						{
							"internalType": "uint256",
							"name": "_numTokens",
							"type": "uint256"
						}
					],
					"name": "transferFrom",
					"outputs": [
						{
							"internalType": "bool",
							"name": "",
							"type": "bool"
						}
					],
					"stateMutability": "nonpayable",
					"type": "function"
				}
			],
			"devdoc": {
				"kind": "dev",
				"methods": {},
				"version": 1
			},
			"evm": {
				"assembly": "    /* \"Documents/GitHub/contract-token-cryptoMonster/backend/components/CryptoMonster.sol\":377:7458  contract CryptoMonster is IERC20, Main, PhaseSeed, PhasePrivate {\r... */\n  mstore(0x40, 0x80)\n    /* \"Documents/GitHub/contract-token-cryptoMonster/backend/components/PhaseSeed.sol\":206:248  0x78731D3Ca6b7E34aC0F824c42a7cC18A495cabaB */\n  0x78731d3ca6b7e34ac0f824c42a7cc18a495cabab\n    /* \"Documents/GitHub/contract-token-cryptoMonster/backend/components/PhaseSeed.sol\":179:248  address investorFirstAdr = 0x78731D3Ca6b7E34aC0F824c42a7cC18A495cabaB */\n  0x01\n  exp(0x0100, 0x00)\n  dup2\n  sload\n  dup2\n  0xffffffffffffffffffffffffffffffffffffffff\n  mul\n  not\n  and\n  swap1\n  dup4\n  0xffffffffffffffffffffffffffffffffffffffff\n  and\n  mul\n  or\n  swap1\n  sstore\n  pop\n    /* \"Documents/GitHub/contract-token-cryptoMonster/backend/components/PhaseSeed.sol\":297:339  0x617F2E2fD72FD9D5503197092aC168c91465E7f2 */\n  0x617f2e2fd72fd9d5503197092ac168c91465e7f2\n    /* \"Documents/GitHub/contract-token-cryptoMonster/backend/components/PhaseSeed.sol\":269:339  address investorSecondAdr = 0x617F2E2fD72FD9D5503197092aC168c91465E7f2 */\n  0x02\n  exp(0x0100, 0x00)\n  dup2\n  sload\n  dup2\n  0xffffffffffffffffffffffffffffffffffffffff\n  mul\n  not\n  and\n  swap1\n  dup4\n  0xffffffffffffffffffffffffffffffffffffffff\n  and\n  mul\n  or\n  swap1\n  sstore\n  pop\n    /* \"Documents/GitHub/contract-token-cryptoMonster/backend/components/PhaseSeed.sol\":383:425  0x17F6AD8Ef982297579C203069C1DbfFE4348c372 */\n  0x17f6ad8ef982297579c203069c1dbffe4348c372\n    /* \"Documents/GitHub/contract-token-cryptoMonster/backend/components/PhaseSeed.sol\":359:425  address bestFriendAdr = 0x17F6AD8Ef982297579C203069C1DbfFE4348c372 */\n  0x03\n  exp(0x0100, 0x00)\n  dup2\n  sload\n  dup2\n  0xffffffffffffffffffffffffffffffffffffffff\n  mul\n  not\n  and\n  swap1\n  dup4\n  0xffffffffffffffffffffffffffffffffffffffff\n  and\n  mul\n  or\n  swap1\n  sstore\n  pop\n    /* \"Documents/GitHub/contract-token-cryptoMonster/backend/components/CryptoMonster.sol\":1357:2946  constructor(uint256 total) {\r... */\n  callvalue\n  dup1\n  iszero\n  tag_1\n  jumpi\n  0x00\n  dup1\n  revert\ntag_1:\n  pop\n  mload(0x40)\n  sub(codesize, bytecodeSize)\n  dup1\n  bytecodeSize\n  dup4\n  codecopy\n  dup2\n  dup2\n  add\n  0x40\n  mstore\n  dup2\n  add\n  swap1\n  tag_2\n  swap2\n  swap1\n  tag_3\n  jump\t// in\ntag_2:\n    /* \"Documents/GitHub/contract-token-cryptoMonster/backend/components/PhaseSeed.sol\":583:643  structUser(Role.INVESTOR , \"Investor1\", get_hash(\"3412\"), 0) */\n  mload(0x40)\n  dup1\n  0x80\n  add\n  0x40\n  mstore\n  dup1\n    /* \"Documents/GitHub/contract-token-cryptoMonster/backend/components/PhaseSeed.sol\":594:607  Role.INVESTOR */\n  0x03\n    /* \"Documents/GitHub/contract-token-cryptoMonster/backend/components/PhaseSeed.sol\":583:643  structUser(Role.INVESTOR , \"Investor1\", get_hash(\"3412\"), 0) */\n  0x04\n  dup2\n  gt\n  iszero\n  tag_7\n  jumpi\n  tag_8\n  tag_9\n  jump\t// in\ntag_8:\ntag_7:\n  dup2\n  mstore\n  0x20\n  add\n  mload(0x40)\n  dup1\n  0x40\n  add\n  0x40\n  mstore\n  dup1\n  0x09\n  dup2\n  mstore\n  0x20\n  add\n  0x496e766573746f72310000000000000000000000000000000000000000000000\n  dup2\n  mstore\n  pop\n  dup2\n  mstore\n  0x20\n  add\n    /* \"Documents/GitHub/contract-token-cryptoMonster/backend/components/PhaseSeed.sol\":623:639  get_hash(\"3412\") */\n  tag_10\n  mload(0x40)\n  dup1\n  0x40\n  add\n  0x40\n  mstore\n  dup1\n  0x04\n  dup2\n  mstore\n  0x20\n  add\n  0x3334313200000000000000000000000000000000000000000000000000000000\n  dup2\n  mstore\n  pop\n    /* \"Documents/GitHub/contract-token-cryptoMonster/backend/components/PhaseSeed.sol\":623:631  get_hash */\n  shl(0x20, tag_11)\n    /* \"Documents/GitHub/contract-token-cryptoMonster/backend/components/PhaseSeed.sol\":623:639  get_hash(\"3412\") */\n  0x20\n  shr\n  jump\t// in\ntag_10:\n    /* \"Documents/GitHub/contract-token-cryptoMonster/backend/components/PhaseSeed.sol\":583:643  structUser(Role.INVESTOR , \"Investor1\", get_hash(\"3412\"), 0) */\n  dup2\n  mstore\n  0x20\n  add\n    /* \"Documents/GitHub/contract-token-cryptoMonster/backend/components/PhaseSeed.sol\":641:642  0 */\n  0x00\n    /* \"Documents/GitHub/contract-token-cryptoMonster/backend/components/PhaseSeed.sol\":583:643  structUser(Role.INVESTOR , \"Investor1\", get_hash(\"3412\"), 0) */\n  dup2\n  mstore\n  pop\n    /* \"Documents/GitHub/contract-token-cryptoMonster/backend/components/PhaseSeed.sol\":551:562  structUser_ */\n  0x00\n    /* \"Documents/GitHub/contract-token-cryptoMonster/backend/components/PhaseSeed.sol\":551:580  structUser_[investorFirstAdr] */\n  dup1\n    /* \"Documents/GitHub/contract-token-cryptoMonster/backend/components/PhaseSeed.sol\":563:579  investorFirstAdr */\n  0x01\n  0x00\n  swap1\n  sload\n  swap1\n  0x0100\n  exp\n  swap1\n  div\n  0xffffffffffffffffffffffffffffffffffffffff\n  and\n    /* \"Documents/GitHub/contract-token-cryptoMonster/backend/components/PhaseSeed.sol\":551:580  structUser_[investorFirstAdr] */\n  0xffffffffffffffffffffffffffffffffffffffff\n  and\n  0xffffffffffffffffffffffffffffffffffffffff\n  and\n  dup2\n  mstore\n  0x20\n  add\n  swap1\n  dup2\n  mstore\n  0x20\n  add\n  0x00\n  keccak256\n    /* \"Documents/GitHub/contract-token-cryptoMonster/backend/components/PhaseSeed.sol\":551:643  structUser_[investorFirstAdr] = structUser(Role.INVESTOR , \"Investor1\", get_hash(\"3412\"), 0) */\n  0x00\n  dup3\n  add\n  mload\n  dup2\n  0x00\n  add\n  exp(0x0100, 0x00)\n  dup2\n  sload\n  dup2\n  0xff\n  mul\n  not\n  and\n  swap1\n  dup4\n  0x04\n  dup2\n  gt\n  iszero\n  tag_12\n  jumpi\n  tag_13\n  tag_9\n  jump\t// in\ntag_13:\ntag_12:\n  mul\n  or\n  swap1\n  sstore\n  pop\n  0x20\n  dup3\n  add\n  mload\n  dup2\n  0x01\n  add\n  swap1\n  dup1\n  mload\n  swap1\n  0x20\n  add\n  swap1\n  tag_14\n  swap3\n  swap2\n  swap1\n  tag_15\n  jump\t// in\ntag_14:\n  pop\n  0x40\n  dup3\n  add\n  mload\n  dup2\n  0x02\n  add\n  sstore\n  0x60\n  dup3\n  add\n  mload\n  dup2\n  0x03\n  add\n  sstore\n  swap1\n  pop\n  pop\n    /* \"Documents/GitHub/contract-token-cryptoMonster/backend/components/PhaseSeed.sol\":700:759  structUser(Role.INVESTOR, \"Investor1\", get_hash(\"1423\"), 0) */\n  mload(0x40)\n  dup1\n  0x80\n  add\n  0x40\n  mstore\n  dup1\n    /* \"Documents/GitHub/contract-token-cryptoMonster/backend/components/PhaseSeed.sol\":711:724  Role.INVESTOR */\n  0x03\n    /* \"Documents/GitHub/contract-token-cryptoMonster/backend/components/PhaseSeed.sol\":700:759  structUser(Role.INVESTOR, \"Investor1\", get_hash(\"1423\"), 0) */\n  0x04\n  dup2\n  gt\n  iszero\n  tag_16\n  jumpi\n  tag_17\n  tag_9\n  jump\t// in\ntag_17:\ntag_16:\n  dup2\n  mstore\n  0x20\n  add\n  mload(0x40)\n  dup1\n  0x40\n  add\n  0x40\n  mstore\n  dup1\n  0x09\n  dup2\n  mstore\n  0x20\n  add\n  0x496e766573746f72310000000000000000000000000000000000000000000000\n  dup2\n  mstore\n  pop\n  dup2\n  mstore\n  0x20\n  add\n    /* \"Documents/GitHub/contract-token-cryptoMonster/backend/components/PhaseSeed.sol\":739:755  get_hash(\"1423\") */\n  tag_18\n  mload(0x40)\n  dup1\n  0x40\n  add\n  0x40\n  mstore\n  dup1\n  0x04\n  dup2\n  mstore\n  0x20\n  add\n  0x3134323300000000000000000000000000000000000000000000000000000000\n  dup2\n  mstore\n  pop\n    /* \"Documents/GitHub/contract-token-cryptoMonster/backend/components/PhaseSeed.sol\":739:747  get_hash */\n  shl(0x20, tag_11)\n    /* \"Documents/GitHub/contract-token-cryptoMonster/backend/components/PhaseSeed.sol\":739:755  get_hash(\"1423\") */\n  0x20\n  shr\n  jump\t// in\ntag_18:\n    /* \"Documents/GitHub/contract-token-cryptoMonster/backend/components/PhaseSeed.sol\":700:759  structUser(Role.INVESTOR, \"Investor1\", get_hash(\"1423\"), 0) */\n  dup2\n  mstore\n  0x20\n  add\n    /* \"Documents/GitHub/contract-token-cryptoMonster/backend/components/PhaseSeed.sol\":757:758  0 */\n  0x00\n    /* \"Documents/GitHub/contract-token-cryptoMonster/backend/components/PhaseSeed.sol\":700:759  structUser(Role.INVESTOR, \"Investor1\", get_hash(\"1423\"), 0) */\n  dup2\n  mstore\n  pop\n    /* \"Documents/GitHub/contract-token-cryptoMonster/backend/components/PhaseSeed.sol\":667:678  structUser_ */\n  0x00\n    /* \"Documents/GitHub/contract-token-cryptoMonster/backend/components/PhaseSeed.sol\":667:697  structUser_[investorSecondAdr] */\n  dup1\n    /* \"Documents/GitHub/contract-token-cryptoMonster/backend/components/PhaseSeed.sol\":679:696  investorSecondAdr */\n  0x02\n  0x00\n  swap1\n  sload\n  swap1\n  0x0100\n  exp\n  swap1\n  div\n  0xffffffffffffffffffffffffffffffffffffffff\n  and\n    /* \"Documents/GitHub/contract-token-cryptoMonster/backend/components/PhaseSeed.sol\":667:697  structUser_[investorSecondAdr] */\n  0xffffffffffffffffffffffffffffffffffffffff\n  and\n  0xffffffffffffffffffffffffffffffffffffffff\n  and\n  dup2\n  mstore\n  0x20\n  add\n  swap1\n  dup2\n  mstore\n  0x20\n  add\n  0x00\n  keccak256\n    /* \"Documents/GitHub/contract-token-cryptoMonster/backend/components/PhaseSeed.sol\":667:759  structUser_[investorSecondAdr] = structUser(Role.INVESTOR, \"Investor1\", get_hash(\"1423\"), 0) */\n  0x00\n  dup3\n  add\n  mload\n  dup2\n  0x00\n  add\n  exp(0x0100, 0x00)\n  dup2\n  sload\n  dup2\n  0xff\n  mul\n  not\n  and\n  swap1\n  dup4\n  0x04\n  dup2\n  gt\n  iszero\n  tag_19\n  jumpi\n  tag_20\n  tag_9\n  jump\t// in\ntag_20:\ntag_19:\n  mul\n  or\n  swap1\n  sstore\n  pop\n  0x20\n  dup3\n  add\n  mload\n  dup2\n  0x01\n  add\n  swap1\n  dup1\n  mload\n  swap1\n  0x20\n  add\n  swap1\n  tag_21\n  swap3\n  swap2\n  swap1\n  tag_15\n  jump\t// in\ntag_21:\n  pop\n  0x40\n  dup3\n  add\n  mload\n  dup2\n  0x02\n  add\n  sstore\n  0x60\n  dup3\n  add\n  mload\n  dup2\n  0x03\n  add\n  sstore\n  swap1\n  pop\n  pop\n    /* \"Documents/GitHub/contract-token-cryptoMonster/backend/components/PhaseSeed.sol\":812:873  structUser(Role.INVESTOR, \"Best friend\", get_hash(\"2314\"), 0) */\n  mload(0x40)\n  dup1\n  0x80\n  add\n  0x40\n  mstore\n  dup1\n    /* \"Documents/GitHub/contract-token-cryptoMonster/backend/components/PhaseSeed.sol\":823:836  Role.INVESTOR */\n  0x03\n    /* \"Documents/GitHub/contract-token-cryptoMonster/backend/components/PhaseSeed.sol\":812:873  structUser(Role.INVESTOR, \"Best friend\", get_hash(\"2314\"), 0) */\n  0x04\n  dup2\n  gt\n  iszero\n  tag_22\n  jumpi\n  tag_23\n  tag_9\n  jump\t// in\ntag_23:\ntag_22:\n  dup2\n  mstore\n  0x20\n  add\n  mload(0x40)\n  dup1\n  0x40\n  add\n  0x40\n  mstore\n  dup1\n  0x0b\n  dup2\n  mstore\n  0x20\n  add\n  0x4265737420667269656e64000000000000000000000000000000000000000000\n  dup2\n  mstore\n  pop\n  dup2\n  mstore\n  0x20\n  add\n    /* \"Documents/GitHub/contract-token-cryptoMonster/backend/components/PhaseSeed.sol\":853:869  get_hash(\"2314\") */\n  tag_24\n  mload(0x40)\n  dup1\n  0x40\n  add\n  0x40\n  mstore\n  dup1\n  0x04\n  dup2\n  mstore\n  0x20\n  add\n  0x3233313400000000000000000000000000000000000000000000000000000000\n  dup2\n  mstore\n  pop\n    /* \"Documents/GitHub/contract-token-cryptoMonster/backend/components/PhaseSeed.sol\":853:861  get_hash */\n  shl(0x20, tag_11)\n    /* \"Documents/GitHub/contract-token-cryptoMonster/backend/components/PhaseSeed.sol\":853:869  get_hash(\"2314\") */\n  0x20\n  shr\n  jump\t// in\ntag_24:\n    /* \"Documents/GitHub/contract-token-cryptoMonster/backend/components/PhaseSeed.sol\":812:873  structUser(Role.INVESTOR, \"Best friend\", get_hash(\"2314\"), 0) */\n  dup2\n  mstore\n  0x20\n  add\n    /* \"Documents/GitHub/contract-token-cryptoMonster/backend/components/PhaseSeed.sol\":871:872  0 */\n  0x00\n    /* \"Documents/GitHub/contract-token-cryptoMonster/backend/components/PhaseSeed.sol\":812:873  structUser(Role.INVESTOR, \"Best friend\", get_hash(\"2314\"), 0) */\n  dup2\n  mstore\n  pop\n    /* \"Documents/GitHub/contract-token-cryptoMonster/backend/components/PhaseSeed.sol\":783:794  structUser_ */\n  0x00\n    /* \"Documents/GitHub/contract-token-cryptoMonster/backend/components/PhaseSeed.sol\":783:809  structUser_[bestFriendAdr] */\n  dup1\n    /* \"Documents/GitHub/contract-token-cryptoMonster/backend/components/PhaseSeed.sol\":795:808  bestFriendAdr */\n  0x03\n  0x00\n  swap1\n  sload\n  swap1\n  0x0100\n  exp\n  swap1\n  div\n  0xffffffffffffffffffffffffffffffffffffffff\n  and\n    /* \"Documents/GitHub/contract-token-cryptoMonster/backend/components/PhaseSeed.sol\":783:809  structUser_[bestFriendAdr] */\n  0xffffffffffffffffffffffffffffffffffffffff\n  and\n  0xffffffffffffffffffffffffffffffffffffffff\n  and\n  dup2\n  mstore\n  0x20\n  add\n  swap1\n  dup2\n  mstore\n  0x20\n  add\n  0x00\n  keccak256\n    /* \"Documents/GitHub/contract-token-cryptoMonster/backend/components/PhaseSeed.sol\":783:873  structUser_[bestFriendAdr] = structUser(Role.INVESTOR, \"Best friend\", get_hash(\"2314\"), 0) */\n  0x00\n  dup3\n  add\n  mload\n  dup2\n  0x00\n  add\n  exp(0x0100, 0x00)\n  dup2\n  sload\n  dup2\n  0xff\n  mul\n  not\n  and\n  swap1\n  dup4\n  0x04\n  dup2\n  gt\n  iszero\n  tag_25\n  jumpi\n  tag_26\n  tag_9\n  jump\t// in\ntag_26:\ntag_25:\n  mul\n  or\n  swap1\n  sstore\n  pop\n  0x20\n  dup3\n  add\n  mload\n  dup2\n  0x01\n  add\n  swap1\n  dup1\n  mload\n  swap1\n  0x20\n  add\n  swap1\n  tag_27\n  swap3\n  swap2\n  swap1\n  tag_15\n  jump\t// in\ntag_27:\n  pop\n  0x40\n  dup3\n  add\n  mload\n  dup2\n  0x02\n  add\n  sstore\n  0x60\n  dup3\n  add\n  mload\n  dup2\n  0x03\n  add\n  sstore\n  swap1\n  pop\n  pop\n    /* \"Documents/GitHub/contract-token-cryptoMonster/backend/components/CryptoMonster.sol\":1410:1415  total */\n  dup1\n    /* \"Documents/GitHub/contract-token-cryptoMonster/backend/components/CryptoMonster.sol\":1395:1407  totalSupply_ */\n  0x05\n    /* \"Documents/GitHub/contract-token-cryptoMonster/backend/components/CryptoMonster.sol\":1395:1415  totalSupply_ = total */\n  dup2\n  swap1\n  sstore\n  pop\n    /* \"Documents/GitHub/contract-token-cryptoMonster/backend/components/CryptoMonster.sol\":1576:1592  address ownerAdr */\n  0x00\n    /* \"Documents/GitHub/contract-token-cryptoMonster/backend/components/CryptoMonster.sol\":1595:1637  0x5B38Da6a701c568545dCfcB03FcB875f56beddC4 */\n  0x5b38da6a701c568545dcfcb03fcb875f56beddc4\n    /* \"Documents/GitHub/contract-token-cryptoMonster/backend/components/CryptoMonster.sol\":1576:1637  address ownerAdr = 0x5B38Da6a701c568545dCfcB03FcB875f56beddC4 */\n  swap1\n  pop\n    /* \"Documents/GitHub/contract-token-cryptoMonster/backend/components/CryptoMonster.sol\":1678:1704  address privateProviderAdr */\n  0x00\n    /* \"Documents/GitHub/contract-token-cryptoMonster/backend/components/CryptoMonster.sol\":1707:1749  0xAb8483F64d9C6d1EcF9b849Ae677dD3315835cb2 */\n  0xab8483f64d9c6d1ecf9b849ae677dd3315835cb2\n    /* \"Documents/GitHub/contract-token-cryptoMonster/backend/components/CryptoMonster.sol\":1678:1749  address privateProviderAdr = 0xAb8483F64d9C6d1EcF9b849Ae677dD3315835cb2 */\n  swap1\n  pop\n    /* \"Documents/GitHub/contract-token-cryptoMonster/backend/components/CryptoMonster.sol\":1790:1815  address publicProviderAdr */\n  0x00\n    /* \"Documents/GitHub/contract-token-cryptoMonster/backend/components/CryptoMonster.sol\":1818:1860  0xAb8483F64d9C6d1EcF9b849Ae677dD3315835cb2 */\n  0xab8483f64d9c6d1ecf9b849ae677dd3315835cb2\n    /* \"Documents/GitHub/contract-token-cryptoMonster/backend/components/CryptoMonster.sol\":1790:1860  address publicProviderAdr = 0xAb8483F64d9C6d1EcF9b849Ae677dD3315835cb2 */\n  swap1\n  pop\n    /* \"Documents/GitHub/contract-token-cryptoMonster/backend/components/CryptoMonster.sol\":1927:1997  structUser(Role.SYSTEM_OWNER ,\"owner\", get_hash(\"3412\"), totalSupply_) */\n  mload(0x40)\n  dup1\n  0x80\n  add\n  0x40\n  mstore\n  dup1\n    /* \"Documents/GitHub/contract-token-cryptoMonster/backend/components/CryptoMonster.sol\":1938:1955  Role.SYSTEM_OWNER */\n  0x00\n    /* \"Documents/GitHub/contract-token-cryptoMonster/backend/components/CryptoMonster.sol\":1927:1997  structUser(Role.SYSTEM_OWNER ,\"owner\", get_hash(\"3412\"), totalSupply_) */\n  0x04\n  dup2\n  gt\n  iszero\n  tag_29\n  jumpi\n  tag_30\n  tag_9\n  jump\t// in\ntag_30:\ntag_29:\n  dup2\n  mstore\n  0x20\n  add\n  mload(0x40)\n  dup1\n  0x40\n  add\n  0x40\n  mstore\n  dup1\n  0x05\n  dup2\n  mstore\n  0x20\n  add\n  0x6f776e6572000000000000000000000000000000000000000000000000000000\n  dup2\n  mstore\n  pop\n  dup2\n  mstore\n  0x20\n  add\n    /* \"Documents/GitHub/contract-token-cryptoMonster/backend/components/CryptoMonster.sol\":1966:1982  get_hash(\"3412\") */\n  tag_31\n  mload(0x40)\n  dup1\n  0x40\n  add\n  0x40\n  mstore\n  dup1\n  0x04\n  dup2\n  mstore\n  0x20\n  add\n  0x3334313200000000000000000000000000000000000000000000000000000000\n  dup2\n  mstore\n  pop\n    /* \"Documents/GitHub/contract-token-cryptoMonster/backend/components/CryptoMonster.sol\":1966:1974  get_hash */\n  shl(0x20, tag_11)\n    /* \"Documents/GitHub/contract-token-cryptoMonster/backend/components/CryptoMonster.sol\":1966:1982  get_hash(\"3412\") */\n  0x20\n  shr\n  jump\t// in\ntag_31:\n    /* \"Documents/GitHub/contract-token-cryptoMonster/backend/components/CryptoMonster.sol\":1927:1997  structUser(Role.SYSTEM_OWNER ,\"owner\", get_hash(\"3412\"), totalSupply_) */\n  dup2\n  mstore\n  0x20\n  add\n    /* \"Documents/GitHub/contract-token-cryptoMonster/backend/components/CryptoMonster.sol\":1984:1996  totalSupply_ */\n  sload(0x05)\n    /* \"Documents/GitHub/contract-token-cryptoMonster/backend/components/CryptoMonster.sol\":1927:1997  structUser(Role.SYSTEM_OWNER ,\"owner\", get_hash(\"3412\"), totalSupply_) */\n  dup2\n  mstore\n  pop\n    /* \"Documents/GitHub/contract-token-cryptoMonster/backend/components/CryptoMonster.sol\":1903:1914  structUser_ */\n  0x00\n    /* \"Documents/GitHub/contract-token-cryptoMonster/backend/components/CryptoMonster.sol\":1903:1924  structUser_[ownerAdr] */\n  dup1\n    /* \"Documents/GitHub/contract-token-cryptoMonster/backend/components/CryptoMonster.sol\":1915:1923  ownerAdr */\n  dup6\n    /* \"Documents/GitHub/contract-token-cryptoMonster/backend/components/CryptoMonster.sol\":1903:1924  structUser_[ownerAdr] */\n  0xffffffffffffffffffffffffffffffffffffffff\n  and\n  0xffffffffffffffffffffffffffffffffffffffff\n  and\n  dup2\n  mstore\n  0x20\n  add\n  swap1\n  dup2\n  mstore\n  0x20\n  add\n  0x00\n  keccak256\n    /* \"Documents/GitHub/contract-token-cryptoMonster/backend/components/CryptoMonster.sol\":1903:1997  structUser_[ownerAdr] = structUser(Role.SYSTEM_OWNER ,\"owner\", get_hash(\"3412\"), totalSupply_) */\n  0x00\n  dup3\n  add\n  mload\n  dup2\n  0x00\n  add\n  exp(0x0100, 0x00)\n  dup2\n  sload\n  dup2\n  0xff\n  mul\n  not\n  and\n  swap1\n  dup4\n  0x04\n  dup2\n  gt\n  iszero\n  tag_32\n  jumpi\n  tag_33\n  tag_9\n  jump\t// in\ntag_33:\ntag_32:\n  mul\n  or\n  swap1\n  sstore\n  pop\n  0x20\n  dup3\n  add\n  mload\n  dup2\n  0x01\n  add\n  swap1\n  dup1\n  mload\n  swap1\n  0x20\n  add\n  swap1\n  tag_34\n  swap3\n  swap2\n  swap1\n  tag_15\n  jump\t// in\ntag_34:\n  pop\n  0x40\n  dup3\n  add\n  mload\n  dup2\n  0x02\n  add\n  sstore\n  0x60\n  dup3\n  add\n  mload\n  dup2\n  0x03\n  add\n  sstore\n  swap1\n  pop\n  pop\n    /* \"Documents/GitHub/contract-token-cryptoMonster/backend/components/CryptoMonster.sol\":2075:2147  structUser(Role.SYSTEM_PRIVATE, \"Private provider\", get_hash(\"1423\"), 0) */\n  mload(0x40)\n  dup1\n  0x80\n  add\n  0x40\n  mstore\n  dup1\n    /* \"Documents/GitHub/contract-token-cryptoMonster/backend/components/CryptoMonster.sol\":2086:2105  Role.SYSTEM_PRIVATE */\n  0x02\n    /* \"Documents/GitHub/contract-token-cryptoMonster/backend/components/CryptoMonster.sol\":2075:2147  structUser(Role.SYSTEM_PRIVATE, \"Private provider\", get_hash(\"1423\"), 0) */\n  0x04\n  dup2\n  gt\n  iszero\n  tag_35\n  jumpi\n  tag_36\n  tag_9\n  jump\t// in\ntag_36:\ntag_35:\n  dup2\n  mstore\n  0x20\n  add\n  mload(0x40)\n  dup1\n  0x40\n  add\n  0x40\n  mstore\n  dup1\n  0x10\n  dup2\n  mstore\n  0x20\n  add\n  0x507269766174652070726f766964657200000000000000000000000000000000\n  dup2\n  mstore\n  pop\n  dup2\n  mstore\n  0x20\n  add\n    /* \"Documents/GitHub/contract-token-cryptoMonster/backend/components/CryptoMonster.sol\":2127:2143  get_hash(\"1423\") */\n  tag_37\n  mload(0x40)\n  dup1\n  0x40\n  add\n  0x40\n  mstore\n  dup1\n  0x04\n  dup2\n  mstore\n  0x20\n  add\n  0x3134323300000000000000000000000000000000000000000000000000000000\n  dup2\n  mstore\n  pop\n    /* \"Documents/GitHub/contract-token-cryptoMonster/backend/components/CryptoMonster.sol\":2127:2135  get_hash */\n  shl(0x20, tag_11)\n    /* \"Documents/GitHub/contract-token-cryptoMonster/backend/components/CryptoMonster.sol\":2127:2143  get_hash(\"1423\") */\n  0x20\n  shr\n  jump\t// in\ntag_37:\n    /* \"Documents/GitHub/contract-token-cryptoMonster/backend/components/CryptoMonster.sol\":2075:2147  structUser(Role.SYSTEM_PRIVATE, \"Private provider\", get_hash(\"1423\"), 0) */\n  dup2\n  mstore\n  0x20\n  add\n    /* \"Documents/GitHub/contract-token-cryptoMonster/backend/components/CryptoMonster.sol\":2145:2146  0 */\n  0x00\n    /* \"Documents/GitHub/contract-token-cryptoMonster/backend/components/CryptoMonster.sol\":2075:2147  structUser(Role.SYSTEM_PRIVATE, \"Private provider\", get_hash(\"1423\"), 0) */\n  dup2\n  mstore\n  pop\n    /* \"Documents/GitHub/contract-token-cryptoMonster/backend/components/CryptoMonster.sol\":2041:2052  structUser_ */\n  0x00\n    /* \"Documents/GitHub/contract-token-cryptoMonster/backend/components/CryptoMonster.sol\":2041:2072  structUser_[privateProviderAdr] */\n  dup1\n    /* \"Documents/GitHub/contract-token-cryptoMonster/backend/components/CryptoMonster.sol\":2053:2071  privateProviderAdr */\n  dup5\n    /* \"Documents/GitHub/contract-token-cryptoMonster/backend/components/CryptoMonster.sol\":2041:2072  structUser_[privateProviderAdr] */\n  0xffffffffffffffffffffffffffffffffffffffff\n  and\n  0xffffffffffffffffffffffffffffffffffffffff\n  and\n  dup2\n  mstore\n  0x20\n  add\n  swap1\n  dup2\n  mstore\n  0x20\n  add\n  0x00\n  keccak256\n    /* \"Documents/GitHub/contract-token-cryptoMonster/backend/components/CryptoMonster.sol\":2041:2147  structUser_[privateProviderAdr] = structUser(Role.SYSTEM_PRIVATE, \"Private provider\", get_hash(\"1423\"), 0) */\n  0x00\n  dup3\n  add\n  mload\n  dup2\n  0x00\n  add\n  exp(0x0100, 0x00)\n  dup2\n  sload\n  dup2\n  0xff\n  mul\n  not\n  and\n  swap1\n  dup4\n  0x04\n  dup2\n  gt\n  iszero\n  tag_38\n  jumpi\n  tag_39\n  tag_9\n  jump\t// in\ntag_39:\ntag_38:\n  mul\n  or\n  swap1\n  sstore\n  pop\n  0x20\n  dup3\n  add\n  mload\n  dup2\n  0x01\n  add\n  swap1\n  dup1\n  mload\n  swap1\n  0x20\n  add\n  swap1\n  tag_40\n  swap3\n  swap2\n  swap1\n  tag_15\n  jump\t// in\ntag_40:\n  pop\n  0x40\n  dup3\n  add\n  mload\n  dup2\n  0x02\n  add\n  sstore\n  0x60\n  dup3\n  add\n  mload\n  dup2\n  0x03\n  add\n  sstore\n  swap1\n  pop\n  pop\n    /* \"Documents/GitHub/contract-token-cryptoMonster/backend/components/CryptoMonster.sol\":2228:2240  totalSupply_ */\n  sload(0x05)\n    /* \"Documents/GitHub/contract-token-cryptoMonster/backend/components/CryptoMonster.sol\":2188:2195  allowed */\n  0x04\n    /* \"Documents/GitHub/contract-token-cryptoMonster/backend/components/CryptoMonster.sol\":2188:2205  allowed[ownerAdr] */\n  0x00\n    /* \"Documents/GitHub/contract-token-cryptoMonster/backend/components/CryptoMonster.sol\":2196:2204  ownerAdr */\n  dup6\n    /* \"Documents/GitHub/contract-token-cryptoMonster/backend/components/CryptoMonster.sol\":2188:2205  allowed[ownerAdr] */\n  0xffffffffffffffffffffffffffffffffffffffff\n  and\n  0xffffffffffffffffffffffffffffffffffffffff\n  and\n  dup2\n  mstore\n  0x20\n  add\n  swap1\n  dup2\n  mstore\n  0x20\n  add\n  0x00\n  keccak256\n    /* \"Documents/GitHub/contract-token-cryptoMonster/backend/components/CryptoMonster.sol\":2188:2225  allowed[ownerAdr][privateProviderAdr] */\n  0x00\n    /* \"Documents/GitHub/contract-token-cryptoMonster/backend/components/CryptoMonster.sol\":2206:2224  privateProviderAdr */\n  dup5\n    /* \"Documents/GitHub/contract-token-cryptoMonster/backend/components/CryptoMonster.sol\":2188:2225  allowed[ownerAdr][privateProviderAdr] */\n  0xffffffffffffffffffffffffffffffffffffffff\n  and\n  0xffffffffffffffffffffffffffffffffffffffff\n  and\n  dup2\n  mstore\n  0x20\n  add\n  swap1\n  dup2\n  mstore\n  0x20\n  add\n  0x00\n  keccak256\n    /* \"Documents/GitHub/contract-token-cryptoMonster/backend/components/CryptoMonster.sol\":2188:2240  allowed[ownerAdr][privateProviderAdr] = totalSupply_ */\n  dup2\n  swap1\n  sstore\n  pop\n    /* \"Documents/GitHub/contract-token-cryptoMonster/backend/components/CryptoMonster.sol\":2397:2467  structUser(Role.SYSTEM_PUBLIC, \"Public provider\", get_hash(\"2314\"), 0) */\n  mload(0x40)\n  dup1\n  0x80\n  add\n  0x40\n  mstore\n  dup1\n    /* \"Documents/GitHub/contract-token-cryptoMonster/backend/components/CryptoMonster.sol\":2408:2426  Role.SYSTEM_PUBLIC */\n  0x01\n    /* \"Documents/GitHub/contract-token-cryptoMonster/backend/components/CryptoMonster.sol\":2397:2467  structUser(Role.SYSTEM_PUBLIC, \"Public provider\", get_hash(\"2314\"), 0) */\n  0x04\n  dup2\n  gt\n  iszero\n  tag_41\n  jumpi\n  tag_42\n  tag_9\n  jump\t// in\ntag_42:\ntag_41:\n  dup2\n  mstore\n  0x20\n  add\n  mload(0x40)\n  dup1\n  0x40\n  add\n  0x40\n  mstore\n  dup1\n  0x0f\n  dup2\n  mstore\n  0x20\n  add\n  0x5075626c69632070726f76696465720000000000000000000000000000000000\n  dup2\n  mstore\n  pop\n  dup2\n  mstore\n  0x20\n  add\n    /* \"Documents/GitHub/contract-token-cryptoMonster/backend/components/CryptoMonster.sol\":2447:2463  get_hash(\"2314\") */\n  tag_43\n  mload(0x40)\n  dup1\n  0x40\n  add\n  0x40\n  mstore\n  dup1\n  0x04\n  dup2\n  mstore\n  0x20\n  add\n  0x3233313400000000000000000000000000000000000000000000000000000000\n  dup2\n  mstore\n  pop\n    /* \"Documents/GitHub/contract-token-cryptoMonster/backend/components/CryptoMonster.sol\":2447:2455  get_hash */\n  shl(0x20, tag_11)\n    /* \"Documents/GitHub/contract-token-cryptoMonster/backend/components/CryptoMonster.sol\":2447:2463  get_hash(\"2314\") */\n  0x20\n  shr\n  jump\t// in\ntag_43:\n    /* \"Documents/GitHub/contract-token-cryptoMonster/backend/components/CryptoMonster.sol\":2397:2467  structUser(Role.SYSTEM_PUBLIC, \"Public provider\", get_hash(\"2314\"), 0) */\n  dup2\n  mstore\n  0x20\n  add\n    /* \"Documents/GitHub/contract-token-cryptoMonster/backend/components/CryptoMonster.sol\":2465:2466  0 */\n  0x00\n    /* \"Documents/GitHub/contract-token-cryptoMonster/backend/components/CryptoMonster.sol\":2397:2467  structUser(Role.SYSTEM_PUBLIC, \"Public provider\", get_hash(\"2314\"), 0) */\n  dup2\n  mstore\n  pop\n    /* \"Documents/GitHub/contract-token-cryptoMonster/backend/components/CryptoMonster.sol\":2364:2375  structUser_ */\n  0x00\n    /* \"Documents/GitHub/contract-token-cryptoMonster/backend/components/CryptoMonster.sol\":2364:2394  structUser_[publicProviderAdr] */\n  dup1\n    /* \"Documents/GitHub/contract-token-cryptoMonster/backend/components/CryptoMonster.sol\":2376:2393  publicProviderAdr */\n  dup4\n    /* \"Documents/GitHub/contract-token-cryptoMonster/backend/components/CryptoMonster.sol\":2364:2394  structUser_[publicProviderAdr] */\n  0xffffffffffffffffffffffffffffffffffffffff\n  and\n  0xffffffffffffffffffffffffffffffffffffffff\n  and\n  dup2\n  mstore\n  0x20\n  add\n  swap1\n  dup2\n  mstore\n  0x20\n  add\n  0x00\n  keccak256\n    /* \"Documents/GitHub/contract-token-cryptoMonster/backend/components/CryptoMonster.sol\":2364:2467  structUser_[publicProviderAdr] = structUser(Role.SYSTEM_PUBLIC, \"Public provider\", get_hash(\"2314\"), 0) */\n  0x00\n  dup3\n  add\n  mload\n  dup2\n  0x00\n  add\n  exp(0x0100, 0x00)\n  dup2\n  sload\n  dup2\n  0xff\n  mul\n  not\n  and\n  swap1\n  dup4\n  0x04\n  dup2\n  gt\n  iszero\n  tag_44\n  jumpi\n  tag_45\n  tag_9\n  jump\t// in\ntag_45:\ntag_44:\n  mul\n  or\n  swap1\n  sstore\n  pop\n  0x20\n  dup3\n  add\n  mload\n  dup2\n  0x01\n  add\n  swap1\n  dup1\n  mload\n  swap1\n  0x20\n  add\n  swap1\n  tag_46\n  swap3\n  swap2\n  swap1\n  tag_15\n  jump\t// in\ntag_46:\n  pop\n  0x40\n  dup3\n  add\n  mload\n  dup2\n  0x02\n  add\n  sstore\n  0x60\n  dup3\n  add\n  mload\n  dup2\n  0x03\n  add\n  sstore\n  swap1\n  pop\n  pop\n    /* \"Documents/GitHub/contract-token-cryptoMonster/backend/components/CryptoMonster.sol\":2549:2561  totalSupply_ */\n  sload(0x05)\n    /* \"Documents/GitHub/contract-token-cryptoMonster/backend/components/CryptoMonster.sol\":2510:2517  allowed */\n  0x04\n    /* \"Documents/GitHub/contract-token-cryptoMonster/backend/components/CryptoMonster.sol\":2510:2527  allowed[ownerAdr] */\n  0x00\n    /* \"Documents/GitHub/contract-token-cryptoMonster/backend/components/CryptoMonster.sol\":2518:2526  ownerAdr */\n  dup6\n    /* \"Documents/GitHub/contract-token-cryptoMonster/backend/components/CryptoMonster.sol\":2510:2527  allowed[ownerAdr] */\n  0xffffffffffffffffffffffffffffffffffffffff\n  and\n  0xffffffffffffffffffffffffffffffffffffffff\n  and\n  dup2\n  mstore\n  0x20\n  add\n  swap1\n  dup2\n  mstore\n  0x20\n  add\n  0x00\n  keccak256\n    /* \"Documents/GitHub/contract-token-cryptoMonster/backend/components/CryptoMonster.sol\":2510:2546  allowed[ownerAdr][publicProviderAdr] */\n  0x00\n    /* \"Documents/GitHub/contract-token-cryptoMonster/backend/components/CryptoMonster.sol\":2528:2545  publicProviderAdr */\n  dup4\n    /* \"Documents/GitHub/contract-token-cryptoMonster/backend/components/CryptoMonster.sol\":2510:2546  allowed[ownerAdr][publicProviderAdr] */\n  0xffffffffffffffffffffffffffffffffffffffff\n  and\n  0xffffffffffffffffffffffffffffffffffffffff\n  and\n  dup2\n  mstore\n  0x20\n  add\n  swap1\n  dup2\n  mstore\n  0x20\n  add\n  0x00\n  keccak256\n    /* \"Documents/GitHub/contract-token-cryptoMonster/backend/components/CryptoMonster.sol\":2510:2561  allowed[ownerAdr][publicProviderAdr] = totalSupply_ */\n  dup2\n  swap1\n  sstore\n  pop\n    /* \"Documents/GitHub/contract-token-cryptoMonster/backend/components/CryptoMonster.sol\":2770:2804  transfer(investorFirstAdr, 600000) */\n  tag_47\n    /* \"Documents/GitHub/contract-token-cryptoMonster/backend/components/CryptoMonster.sol\":2779:2795  investorFirstAdr */\n  0x01\n  0x00\n  swap1\n  sload\n  swap1\n  0x0100\n  exp\n  swap1\n  div\n  0xffffffffffffffffffffffffffffffffffffffff\n  and\n    /* \"Documents/GitHub/contract-token-cryptoMonster/backend/components/CryptoMonster.sol\":2797:2803  600000 */\n  0x0927c0\n    /* \"Documents/GitHub/contract-token-cryptoMonster/backend/components/CryptoMonster.sol\":2770:2778  transfer */\n  shl(0x20, tag_48)\n    /* \"Documents/GitHub/contract-token-cryptoMonster/backend/components/CryptoMonster.sol\":2770:2804  transfer(investorFirstAdr, 600000) */\n  0x20\n  shr\n  jump\t// in\ntag_47:\n  pop\n    /* \"Documents/GitHub/contract-token-cryptoMonster/backend/components/CryptoMonster.sol\":2829:2864  transfer(investorSecondAdr, 800000) */\n  tag_49\n    /* \"Documents/GitHub/contract-token-cryptoMonster/backend/components/CryptoMonster.sol\":2838:2855  investorSecondAdr */\n  0x02\n  0x00\n  swap1\n  sload\n  swap1\n  0x0100\n  exp\n  swap1\n  div\n  0xffffffffffffffffffffffffffffffffffffffff\n  and\n    /* \"Documents/GitHub/contract-token-cryptoMonster/backend/components/CryptoMonster.sol\":2857:2863  800000 */\n  0x0c3500\n    /* \"Documents/GitHub/contract-token-cryptoMonster/backend/components/CryptoMonster.sol\":2829:2837  transfer */\n  shl(0x20, tag_48)\n    /* \"Documents/GitHub/contract-token-cryptoMonster/backend/components/CryptoMonster.sol\":2829:2864  transfer(investorSecondAdr, 800000) */\n  0x20\n  shr\n  jump\t// in\ntag_49:\n  pop\n    /* \"Documents/GitHub/contract-token-cryptoMonster/backend/components/CryptoMonster.sol\":2888:2919  transfer(bestFriendAdr, 400000) */\n  tag_50\n    /* \"Documents/GitHub/contract-token-cryptoMonster/backend/components/CryptoMonster.sol\":2897:2910  bestFriendAdr */\n  0x03\n  0x00\n  swap1\n  sload\n  swap1\n  0x0100\n  exp\n  swap1\n  div\n  0xffffffffffffffffffffffffffffffffffffffff\n  and\n    /* \"Documents/GitHub/contract-token-cryptoMonster/backend/components/CryptoMonster.sol\":2912:2918  400000 */\n  0x061a80\n    /* \"Documents/GitHub/contract-token-cryptoMonster/backend/components/CryptoMonster.sol\":2888:2896  transfer */\n  shl(0x20, tag_48)\n    /* \"Documents/GitHub/contract-token-cryptoMonster/backend/components/CryptoMonster.sol\":2888:2919  transfer(bestFriendAdr, 400000) */\n  0x20\n  shr\n  jump\t// in\ntag_50:\n  pop\n    /* \"Documents/GitHub/contract-token-cryptoMonster/backend/components/CryptoMonster.sol\":1384:2946  {\r... */\n  pop\n  pop\n  pop\n    /* \"Documents/GitHub/contract-token-cryptoMonster/backend/components/CryptoMonster.sol\":1357:2946  constructor(uint256 total) {\r... */\n  pop\n    /* \"Documents/GitHub/contract-token-cryptoMonster/backend/components/CryptoMonster.sol\":377:7458  contract CryptoMonster is IERC20, Main, PhaseSeed, PhasePrivate {\r... */\n  jump(tag_51)\n    /* \"Documents/GitHub/contract-token-cryptoMonster/backend/shared/helpers/getFuncs.sol\":144:285  function get_hash(string memory _password) public pure returns(bytes32) {\r... */\ntag_11:\n    /* \"Documents/GitHub/contract-token-cryptoMonster/backend/shared/helpers/getFuncs.sol\":207:214  bytes32 */\n  0x00\n    /* \"Documents/GitHub/contract-token-cryptoMonster/backend/shared/helpers/getFuncs.sol\":265:274  _password */\n  dup2\n    /* \"Documents/GitHub/contract-token-cryptoMonster/backend/shared/helpers/getFuncs.sol\":248:275  abi.encodePacked(_password) */\n  add(0x20, mload(0x40))\n  tag_53\n  swap2\n  swap1\n  tag_54\n  jump\t// in\ntag_53:\n  mload(0x40)\n  0x20\n  dup2\n  dup4\n  sub\n  sub\n  dup2\n  mstore\n  swap1\n  0x40\n  mstore\n    /* \"Documents/GitHub/contract-token-cryptoMonster/backend/shared/helpers/getFuncs.sol\":238:276  keccak256(abi.encodePacked(_password)) */\n  dup1\n  mload\n  swap1\n  0x20\n  add\n  keccak256\n    /* \"Documents/GitHub/contract-token-cryptoMonster/backend/shared/helpers/getFuncs.sol\":231:277  return(keccak256(abi.encodePacked(_password))) */\n  swap1\n  pop\n    /* \"Documents/GitHub/contract-token-cryptoMonster/backend/shared/helpers/getFuncs.sol\":144:285  function get_hash(string memory _password) public pure returns(bytes32) {\r... */\n  swap2\n  swap1\n  pop\n  jump\t// out\n    /* \"Documents/GitHub/contract-token-cryptoMonster/backend/components/CryptoMonster.sol\":4482:5197  function transfer(address _receiver, uint256 _numTokens) public override returns (bool) {\r... */\ntag_48:\n    /* \"Documents/GitHub/contract-token-cryptoMonster/backend/components/CryptoMonster.sol\":4564:4568  bool */\n  0x00\n    /* \"Documents/GitHub/contract-token-cryptoMonster/backend/components/CryptoMonster.sol\":4603:4614  structUser_ */\n  dup1\n    /* \"Documents/GitHub/contract-token-cryptoMonster/backend/components/CryptoMonster.sol\":4603:4626  structUser_[msg.sender] */\n  0x00\n    /* \"Documents/GitHub/contract-token-cryptoMonster/backend/components/CryptoMonster.sol\":4615:4625  msg.sender */\n  caller\n    /* \"Documents/GitHub/contract-token-cryptoMonster/backend/components/CryptoMonster.sol\":4603:4626  structUser_[msg.sender] */\n  0xffffffffffffffffffffffffffffffffffffffff\n  and\n  0xffffffffffffffffffffffffffffffffffffffff\n  and\n  dup2\n  mstore\n  0x20\n  add\n  swap1\n  dup2\n  mstore\n  0x20\n  add\n  0x00\n  keccak256\n    /* \"Documents/GitHub/contract-token-cryptoMonster/backend/components/CryptoMonster.sol\":4603:4635  structUser_[msg.sender].balances */\n  0x03\n  add\n  sload\n    /* \"Documents/GitHub/contract-token-cryptoMonster/backend/components/CryptoMonster.sol\":4589:4599  _numTokens */\n  dup3\n    /* \"Documents/GitHub/contract-token-cryptoMonster/backend/components/CryptoMonster.sol\":4589:4635  _numTokens <= structUser_[msg.sender].balances */\n  gt\n  iszero\n    /* \"Documents/GitHub/contract-token-cryptoMonster/backend/components/CryptoMonster.sol\":4581:4636  require(_numTokens <= structUser_[msg.sender].balances) */\n  tag_56\n  jumpi\n  0x00\n  dup1\n  revert\ntag_56:\n    /* \"Documents/GitHub/contract-token-cryptoMonster/backend/components/CryptoMonster.sol\":4745:4793  structUser_[msg.sender].balances.sub(_numTokens) */\n  tag_57\n    /* \"Documents/GitHub/contract-token-cryptoMonster/backend/components/CryptoMonster.sol\":4782:4792  _numTokens */\n  dup3\n    /* \"Documents/GitHub/contract-token-cryptoMonster/backend/components/CryptoMonster.sol\":4745:4756  structUser_ */\n  0x00\n    /* \"Documents/GitHub/contract-token-cryptoMonster/backend/components/CryptoMonster.sol\":4745:4768  structUser_[msg.sender] */\n  dup1\n    /* \"Documents/GitHub/contract-token-cryptoMonster/backend/components/CryptoMonster.sol\":4757:4767  msg.sender */\n  caller\n    /* \"Documents/GitHub/contract-token-cryptoMonster/backend/components/CryptoMonster.sol\":4745:4768  structUser_[msg.sender] */\n  0xffffffffffffffffffffffffffffffffffffffff\n  and\n  0xffffffffffffffffffffffffffffffffffffffff\n  and\n  dup2\n  mstore\n  0x20\n  add\n  swap1\n  dup2\n  mstore\n  0x20\n  add\n  0x00\n  keccak256\n    /* \"Documents/GitHub/contract-token-cryptoMonster/backend/components/CryptoMonster.sol\":4745:4777  structUser_[msg.sender].balances */\n  0x03\n  add\n  sload\n    /* \"Documents/GitHub/contract-token-cryptoMonster/backend/components/CryptoMonster.sol\":4745:4781  structUser_[msg.sender].balances.sub */\n  or(tag_0_86, shl(0x20, tag_58))\n  swap1\n    /* \"Documents/GitHub/contract-token-cryptoMonster/backend/components/CryptoMonster.sol\":4745:4793  structUser_[msg.sender].balances.sub(_numTokens) */\n  swap2\n  swap1\n  0x20\n  shr\n  jump\t// in\ntag_57:\n    /* \"Documents/GitHub/contract-token-cryptoMonster/backend/components/CryptoMonster.sol\":4710:4721  structUser_ */\n  0x00\n    /* \"Documents/GitHub/contract-token-cryptoMonster/backend/components/CryptoMonster.sol\":4710:4733  structUser_[msg.sender] */\n  dup1\n    /* \"Documents/GitHub/contract-token-cryptoMonster/backend/components/CryptoMonster.sol\":4722:4732  msg.sender */\n  caller\n    /* \"Documents/GitHub/contract-token-cryptoMonster/backend/components/CryptoMonster.sol\":4710:4733  structUser_[msg.sender] */\n  0xffffffffffffffffffffffffffffffffffffffff\n  and\n  0xffffffffffffffffffffffffffffffffffffffff\n  and\n  dup2\n  mstore\n  0x20\n  add\n  swap1\n  dup2\n  mstore\n  0x20\n  add\n  0x00\n  keccak256\n    /* \"Documents/GitHub/contract-token-cryptoMonster/backend/components/CryptoMonster.sol\":4710:4742  structUser_[msg.sender].balances */\n  0x03\n  add\n    /* \"Documents/GitHub/contract-token-cryptoMonster/backend/components/CryptoMonster.sol\":4710:4793  structUser_[msg.sender].balances = structUser_[msg.sender].balances.sub(_numTokens) */\n  dup2\n  swap1\n  sstore\n  pop\n    /* \"Documents/GitHub/contract-token-cryptoMonster/backend/components/CryptoMonster.sol\":4887:4934  structUser_[_receiver].balances.add(_numTokens) */\n  tag_59\n    /* \"Documents/GitHub/contract-token-cryptoMonster/backend/components/CryptoMonster.sol\":4923:4933  _numTokens */\n  dup3\n    /* \"Documents/GitHub/contract-token-cryptoMonster/backend/components/CryptoMonster.sol\":4887:4898  structUser_ */\n  0x00\n    /* \"Documents/GitHub/contract-token-cryptoMonster/backend/components/CryptoMonster.sol\":4887:4909  structUser_[_receiver] */\n  dup1\n    /* \"Documents/GitHub/contract-token-cryptoMonster/backend/components/CryptoMonster.sol\":4899:4908  _receiver */\n  dup7\n    /* \"Documents/GitHub/contract-token-cryptoMonster/backend/components/CryptoMonster.sol\":4887:4909  structUser_[_receiver] */\n  0xffffffffffffffffffffffffffffffffffffffff\n  and\n  0xffffffffffffffffffffffffffffffffffffffff\n  and\n  dup2\n  mstore\n  0x20\n  add\n  swap1\n  dup2\n  mstore\n  0x20\n  add\n  0x00\n  keccak256\n    /* \"Documents/GitHub/contract-token-cryptoMonster/backend/components/CryptoMonster.sol\":4887:4918  structUser_[_receiver].balances */\n  0x03\n  add\n  sload\n    /* \"Documents/GitHub/contract-token-cryptoMonster/backend/components/CryptoMonster.sol\":4887:4922  structUser_[_receiver].balances.add */\n  or(tag_0_87, shl(0x20, tag_60))\n  swap1\n    /* \"Documents/GitHub/contract-token-cryptoMonster/backend/components/CryptoMonster.sol\":4887:4934  structUser_[_receiver].balances.add(_numTokens) */\n  swap2\n  swap1\n  0x20\n  shr\n  jump\t// in\ntag_59:\n    /* \"Documents/GitHub/contract-token-cryptoMonster/backend/components/CryptoMonster.sol\":4853:4864  structUser_ */\n  0x00\n    /* \"Documents/GitHub/contract-token-cryptoMonster/backend/components/CryptoMonster.sol\":4853:4875  structUser_[_receiver] */\n  dup1\n    /* \"Documents/GitHub/contract-token-cryptoMonster/backend/components/CryptoMonster.sol\":4865:4874  _receiver */\n  dup6\n    /* \"Documents/GitHub/contract-token-cryptoMonster/backend/components/CryptoMonster.sol\":4853:4875  structUser_[_receiver] */\n  0xffffffffffffffffffffffffffffffffffffffff\n  and\n  0xffffffffffffffffffffffffffffffffffffffff\n  and\n  dup2\n  mstore\n  0x20\n  add\n  swap1\n  dup2\n  mstore\n  0x20\n  add\n  0x00\n  keccak256\n    /* \"Documents/GitHub/contract-token-cryptoMonster/backend/components/CryptoMonster.sol\":4853:4884  structUser_[_receiver].balances */\n  0x03\n  add\n    /* \"Documents/GitHub/contract-token-cryptoMonster/backend/components/CryptoMonster.sol\":4853:4934  structUser_[_receiver].balances = structUser_[_receiver].balances.add(_numTokens) */\n  dup2\n  swap1\n  sstore\n  pop\n    /* \"Documents/GitHub/contract-token-cryptoMonster/backend/components/CryptoMonster.sol\":5030:5039  _receiver */\n  dup3\n    /* \"Documents/GitHub/contract-token-cryptoMonster/backend/components/CryptoMonster.sol\":5009:5052  Transfer(msg.sender, _receiver, _numTokens) */\n  0xffffffffffffffffffffffffffffffffffffffff\n  and\n    /* \"Documents/GitHub/contract-token-cryptoMonster/backend/components/CryptoMonster.sol\":5018:5028  msg.sender */\n  caller\n    /* \"Documents/GitHub/contract-token-cryptoMonster/backend/components/CryptoMonster.sol\":5009:5052  Transfer(msg.sender, _receiver, _numTokens) */\n  0xffffffffffffffffffffffffffffffffffffffff\n  and\n  0xddf252ad1be2c89b69c2b068fc378daa952ba7f163c4a11628f55a4df523b3ef\n    /* \"Documents/GitHub/contract-token-cryptoMonster/backend/components/CryptoMonster.sol\":5041:5051  _numTokens */\n  dup5\n    /* \"Documents/GitHub/contract-token-cryptoMonster/backend/components/CryptoMonster.sol\":5009:5052  Transfer(msg.sender, _receiver, _numTokens) */\n  mload(0x40)\n  tag_61\n  swap2\n  swap1\n  tag_62\n  jump\t// in\ntag_61:\n  mload(0x40)\n  dup1\n  swap2\n  sub\n  swap1\n  log3\n    /* \"Documents/GitHub/contract-token-cryptoMonster/backend/components/CryptoMonster.sol\":5185:5189  true */\n  0x01\n    /* \"Documents/GitHub/contract-token-cryptoMonster/backend/components/CryptoMonster.sol\":5178:5189  return true */\n  swap1\n  pop\n    /* \"Documents/GitHub/contract-token-cryptoMonster/backend/components/CryptoMonster.sol\":4482:5197  function transfer(address _receiver, uint256 _numTokens) public override returns (bool) {\r... */\n  swap3\n  swap2\n  pop\n  pop\n  jump\t// out\n    /* \"Documents/GitHub/contract-token-cryptoMonster/backend/shared/lib/SafeMath.sol\":2846:2965  function sub(uint256 a, uint256 b) internal pure returns (uint256) {\r... */\ntag_58:\n    /* \"Documents/GitHub/contract-token-cryptoMonster/backend/shared/lib/SafeMath.sol\":2904:2911  uint256 */\n  0x00\n    /* \"Documents/GitHub/contract-token-cryptoMonster/backend/shared/lib/SafeMath.sol\":2934:2935  a */\n  dup3\n    /* \"Documents/GitHub/contract-token-cryptoMonster/backend/shared/lib/SafeMath.sol\":2929:2930  b */\n  dup3\n    /* \"Documents/GitHub/contract-token-cryptoMonster/backend/shared/lib/SafeMath.sol\":2929:2935  b <= a */\n  gt\n  iszero\n    /* \"Documents/GitHub/contract-token-cryptoMonster/backend/shared/lib/SafeMath.sol\":2922:2936  assert(b <= a) */\n  tag_64\n  jumpi\n  tag_65\n  tag_66\n  jump\t// in\ntag_65:\ntag_64:\n    /* \"Documents/GitHub/contract-token-cryptoMonster/backend/shared/lib/SafeMath.sol\":2956:2957  b */\n  dup2\n    /* \"Documents/GitHub/contract-token-cryptoMonster/backend/shared/lib/SafeMath.sol\":2952:2953  a */\n  dup4\n    /* \"Documents/GitHub/contract-token-cryptoMonster/backend/shared/lib/SafeMath.sol\":2952:2957  a - b */\n  tag_67\n  swap2\n  swap1\n  tag_68\n  jump\t// in\ntag_67:\n    /* \"Documents/GitHub/contract-token-cryptoMonster/backend/shared/lib/SafeMath.sol\":2945:2957  return a - b */\n  swap1\n  pop\n    /* \"Documents/GitHub/contract-token-cryptoMonster/backend/shared/lib/SafeMath.sol\":2846:2965  function sub(uint256 a, uint256 b) internal pure returns (uint256) {\r... */\n  swap3\n  swap2\n  pop\n  pop\n  jump\t// out\n    /* \"Documents/GitHub/contract-token-cryptoMonster/backend/shared/lib/SafeMath.sol\":2422:2563  function add(uint256 a, uint256 b) internal pure returns (uint256) {\r... */\ntag_60:\n    /* \"Documents/GitHub/contract-token-cryptoMonster/backend/shared/lib/SafeMath.sol\":2480:2487  uint256 */\n  0x00\n    /* \"Documents/GitHub/contract-token-cryptoMonster/backend/shared/lib/SafeMath.sol\":2498:2507  uint256 c */\n  dup1\n    /* \"Documents/GitHub/contract-token-cryptoMonster/backend/shared/lib/SafeMath.sol\":2514:2515  b */\n  dup3\n    /* \"Documents/GitHub/contract-token-cryptoMonster/backend/shared/lib/SafeMath.sol\":2510:2511  a */\n  dup5\n    /* \"Documents/GitHub/contract-token-cryptoMonster/backend/shared/lib/SafeMath.sol\":2510:2515  a + b */\n  tag_70\n  swap2\n  swap1\n  tag_71\n  jump\t// in\ntag_70:\n    /* \"Documents/GitHub/contract-token-cryptoMonster/backend/shared/lib/SafeMath.sol\":2498:2515  uint256 c = a + b */\n  swap1\n  pop\n    /* \"Documents/GitHub/contract-token-cryptoMonster/backend/shared/lib/SafeMath.sol\":2536:2537  a */\n  dup4\n    /* \"Documents/GitHub/contract-token-cryptoMonster/backend/shared/lib/SafeMath.sol\":2531:2532  c */\n  dup2\n    /* \"Documents/GitHub/contract-token-cryptoMonster/backend/shared/lib/SafeMath.sol\":2531:2537  c >= a */\n  lt\n  iszero\n    /* \"Documents/GitHub/contract-token-cryptoMonster/backend/shared/lib/SafeMath.sol\":2524:2538  assert(c >= a) */\n  tag_72\n  jumpi\n  tag_73\n  tag_66\n  jump\t// in\ntag_73:\ntag_72:\n    /* \"Documents/GitHub/contract-token-cryptoMonster/backend/shared/lib/SafeMath.sol\":2554:2555  c */\n  dup1\n    /* \"Documents/GitHub/contract-token-cryptoMonster/backend/shared/lib/SafeMath.sol\":2547:2555  return c */\n  swap2\n  pop\n  pop\n    /* \"Documents/GitHub/contract-token-cryptoMonster/backend/shared/lib/SafeMath.sol\":2422:2563  function add(uint256 a, uint256 b) internal pure returns (uint256) {\r... */\n  swap3\n  swap2\n  pop\n  pop\n  jump\t// out\n    /* \"Documents/GitHub/contract-token-cryptoMonster/backend/components/CryptoMonster.sol\":377:7458  contract CryptoMonster is IERC20, Main, PhaseSeed, PhasePrivate {\r... */\ntag_15:\n  dup3\n  dup1\n  sload\n  tag_74\n  swap1\n  tag_75\n  jump\t// in\ntag_74:\n  swap1\n  0x00\n  mstore\n  keccak256(0x00, 0x20)\n  swap1\n  0x1f\n  add\n  0x20\n  swap1\n  div\n  dup2\n  add\n  swap3\n  dup3\n  tag_77\n  jumpi\n  0x00\n  dup6\n  sstore\n  jump(tag_76)\ntag_77:\n  dup3\n  0x1f\n  lt\n  tag_78\n  jumpi\n  dup1\n  mload\n  not(0xff)\n  and\n  dup4\n  dup1\n  add\n  or\n  dup6\n  sstore\n  jump(tag_76)\ntag_78:\n  dup3\n  dup1\n  add\n  0x01\n  add\n  dup6\n  sstore\n  dup3\n  iszero\n  tag_76\n  jumpi\n  swap2\n  dup3\n  add\ntag_79:\n  dup3\n  dup2\n  gt\n  iszero\n  tag_80\n  jumpi\n  dup3\n  mload\n  dup3\n  sstore\n  swap2\n  0x20\n  add\n  swap2\n  swap1\n  0x01\n  add\n  swap1\n  jump(tag_79)\ntag_80:\ntag_76:\n  pop\n  swap1\n  pop\n  tag_81\n  swap2\n  swap1\n  tag_82\n  jump\t// in\ntag_81:\n  pop\n  swap1\n  jump\t// out\ntag_82:\ntag_83:\n  dup1\n  dup3\n  gt\n  iszero\n  tag_84\n  jumpi\n  0x00\n  dup2\n  0x00\n  swap1\n  sstore\n  pop\n  0x01\n  add\n  jump(tag_83)\ntag_84:\n  pop\n  swap1\n  jump\t// out\n    /* \"#utility.yul\":7:150   */\ntag_86:\n    /* \"#utility.yul\":64:69   */\n  0x00\n    /* \"#utility.yul\":95:101   */\n  dup2\n    /* \"#utility.yul\":89:102   */\n  mload\n    /* \"#utility.yul\":80:102   */\n  swap1\n  pop\n    /* \"#utility.yul\":111:144   */\n  tag_88\n    /* \"#utility.yul\":138:143   */\n  dup2\n    /* \"#utility.yul\":111:144   */\n  tag_89\n  jump\t// in\ntag_88:\n    /* \"#utility.yul\":7:150   */\n  swap3\n  swap2\n  pop\n  pop\n  jump\t// out\n    /* \"#utility.yul\":156:507   */\ntag_3:\n    /* \"#utility.yul\":226:232   */\n  0x00\n    /* \"#utility.yul\":275:277   */\n  0x20\n    /* \"#utility.yul\":263:272   */\n  dup3\n    /* \"#utility.yul\":254:261   */\n  dup5\n    /* \"#utility.yul\":250:273   */\n  sub\n    /* \"#utility.yul\":246:278   */\n  slt\n    /* \"#utility.yul\":243:362   */\n  iszero\n  tag_91\n  jumpi\n    /* \"#utility.yul\":281:360   */\n  tag_92\n  tag_93\n  jump\t// in\ntag_92:\n    /* \"#utility.yul\":243:362   */\ntag_91:\n    /* \"#utility.yul\":401:402   */\n  0x00\n    /* \"#utility.yul\":426:490   */\n  tag_94\n    /* \"#utility.yul\":482:489   */\n  dup5\n    /* \"#utility.yul\":473:479   */\n  dup3\n    /* \"#utility.yul\":462:471   */\n  dup6\n    /* \"#utility.yul\":458:480   */\n  add\n    /* \"#utility.yul\":426:490   */\n  tag_86\n  jump\t// in\ntag_94:\n    /* \"#utility.yul\":416:490   */\n  swap2\n  pop\n    /* \"#utility.yul\":372:500   */\n  pop\n    /* \"#utility.yul\":156:507   */\n  swap3\n  swap2\n  pop\n  pop\n  jump\t// out\n    /* \"#utility.yul\":513:890   */\ntag_95:\n    /* \"#utility.yul\":619:622   */\n  0x00\n    /* \"#utility.yul\":647:686   */\n  tag_97\n    /* \"#utility.yul\":680:685   */\n  dup3\n    /* \"#utility.yul\":647:686   */\n  tag_98\n  jump\t// in\ntag_97:\n    /* \"#utility.yul\":702:791   */\n  tag_99\n    /* \"#utility.yul\":784:790   */\n  dup2\n    /* \"#utility.yul\":779:782   */\n  dup6\n    /* \"#utility.yul\":702:791   */\n  tag_100\n  jump\t// in\ntag_99:\n    /* \"#utility.yul\":695:791   */\n  swap4\n  pop\n    /* \"#utility.yul\":800:852   */\n  tag_101\n    /* \"#utility.yul\":845:851   */\n  dup2\n    /* \"#utility.yul\":840:843   */\n  dup6\n    /* \"#utility.yul\":833:837   */\n  0x20\n    /* \"#utility.yul\":826:831   */\n  dup7\n    /* \"#utility.yul\":822:838   */\n  add\n    /* \"#utility.yul\":800:852   */\n  tag_102\n  jump\t// in\ntag_101:\n    /* \"#utility.yul\":877:883   */\n  dup1\n    /* \"#utility.yul\":872:875   */\n  dup5\n    /* \"#utility.yul\":868:884   */\n  add\n    /* \"#utility.yul\":861:884   */\n  swap2\n  pop\n    /* \"#utility.yul\":623:890   */\n  pop\n    /* \"#utility.yul\":513:890   */\n  swap3\n  swap2\n  pop\n  pop\n  jump\t// out\n    /* \"#utility.yul\":896:1014   */\ntag_103:\n    /* \"#utility.yul\":983:1007   */\n  tag_105\n    /* \"#utility.yul\":1001:1006   */\n  dup2\n    /* \"#utility.yul\":983:1007   */\n  tag_106\n  jump\t// in\ntag_105:\n    /* \"#utility.yul\":978:981   */\n  dup3\n    /* \"#utility.yul\":971:1008   */\n  mstore\n    /* \"#utility.yul\":896:1014   */\n  pop\n  pop\n  jump\t// out\n    /* \"#utility.yul\":1020:1295   */\ntag_54:\n    /* \"#utility.yul\":1152:1155   */\n  0x00\n    /* \"#utility.yul\":1174:1269   */\n  tag_108\n    /* \"#utility.yul\":1265:1268   */\n  dup3\n    /* \"#utility.yul\":1256:1262   */\n  dup5\n    /* \"#utility.yul\":1174:1269   */\n  tag_95\n  jump\t// in\ntag_108:\n    /* \"#utility.yul\":1167:1269   */\n  swap2\n  pop\n    /* \"#utility.yul\":1286:1289   */\n  dup2\n    /* \"#utility.yul\":1279:1289   */\n  swap1\n  pop\n    /* \"#utility.yul\":1020:1295   */\n  swap3\n  swap2\n  pop\n  pop\n  jump\t// out\n    /* \"#utility.yul\":1301:1523   */\ntag_62:\n    /* \"#utility.yul\":1394:1398   */\n  0x00\n    /* \"#utility.yul\":1432:1434   */\n  0x20\n    /* \"#utility.yul\":1421:1430   */\n  dup3\n    /* \"#utility.yul\":1417:1435   */\n  add\n    /* \"#utility.yul\":1409:1435   */\n  swap1\n  pop\n    /* \"#utility.yul\":1445:1516   */\n  tag_110\n    /* \"#utility.yul\":1513:1514   */\n  0x00\n    /* \"#utility.yul\":1502:1511   */\n  dup4\n    /* \"#utility.yul\":1498:1515   */\n  add\n    /* \"#utility.yul\":1489:1495   */\n  dup5\n    /* \"#utility.yul\":1445:1516   */\n  tag_103\n  jump\t// in\ntag_110:\n    /* \"#utility.yul\":1301:1523   */\n  swap3\n  swap2\n  pop\n  pop\n  jump\t// out\n    /* \"#utility.yul\":1610:1709   */\ntag_98:\n    /* \"#utility.yul\":1662:1668   */\n  0x00\n    /* \"#utility.yul\":1696:1701   */\n  dup2\n    /* \"#utility.yul\":1690:1702   */\n  mload\n    /* \"#utility.yul\":1680:1702   */\n  swap1\n  pop\n    /* \"#utility.yul\":1610:1709   */\n  swap2\n  swap1\n  pop\n  jump\t// out\n    /* \"#utility.yul\":1715:1863   */\ntag_100:\n    /* \"#utility.yul\":1817:1828   */\n  0x00\n    /* \"#utility.yul\":1854:1857   */\n  dup2\n    /* \"#utility.yul\":1839:1857   */\n  swap1\n  pop\n    /* \"#utility.yul\":1715:1863   */\n  swap3\n  swap2\n  pop\n  pop\n  jump\t// out\n    /* \"#utility.yul\":1869:2174   */\ntag_71:\n    /* \"#utility.yul\":1909:1912   */\n  0x00\n    /* \"#utility.yul\":1928:1948   */\n  tag_116\n    /* \"#utility.yul\":1946:1947   */\n  dup3\n    /* \"#utility.yul\":1928:1948   */\n  tag_106\n  jump\t// in\ntag_116:\n    /* \"#utility.yul\":1923:1948   */\n  swap2\n  pop\n    /* \"#utility.yul\":1962:1982   */\n  tag_117\n    /* \"#utility.yul\":1980:1981   */\n  dup4\n    /* \"#utility.yul\":1962:1982   */\n  tag_106\n  jump\t// in\ntag_117:\n    /* \"#utility.yul\":1957:1982   */\n  swap3\n  pop\n    /* \"#utility.yul\":2116:2117   */\n  dup3\n    /* \"#utility.yul\":2048:2114   */\n  0xffffffffffffffffffffffffffffffffffffffffffffffffffffffffffffffff\n    /* \"#utility.yul\":2044:2118   */\n  sub\n    /* \"#utility.yul\":2041:2042   */\n  dup3\n    /* \"#utility.yul\":2038:2119   */\n  gt\n    /* \"#utility.yul\":2035:2142   */\n  iszero\n  tag_118\n  jumpi\n    /* \"#utility.yul\":2122:2140   */\n  tag_119\n  tag_120\n  jump\t// in\ntag_119:\n    /* \"#utility.yul\":2035:2142   */\ntag_118:\n    /* \"#utility.yul\":2166:2167   */\n  dup3\n    /* \"#utility.yul\":2163:2164   */\n  dup3\n    /* \"#utility.yul\":2159:2168   */\n  add\n    /* \"#utility.yul\":2152:2168   */\n  swap1\n  pop\n    /* \"#utility.yul\":1869:2174   */\n  swap3\n  swap2\n  pop\n  pop\n  jump\t// out\n    /* \"#utility.yul\":2180:2371   */\ntag_68:\n    /* \"#utility.yul\":2220:2224   */\n  0x00\n    /* \"#utility.yul\":2240:2260   */\n  tag_122\n    /* \"#utility.yul\":2258:2259   */\n  dup3\n    /* \"#utility.yul\":2240:2260   */\n  tag_106\n  jump\t// in\ntag_122:\n    /* \"#utility.yul\":2235:2260   */\n  swap2\n  pop\n    /* \"#utility.yul\":2274:2294   */\n  tag_123\n    /* \"#utility.yul\":2292:2293   */\n  dup4\n    /* \"#utility.yul\":2274:2294   */\n  tag_106\n  jump\t// in\ntag_123:\n    /* \"#utility.yul\":2269:2294   */\n  swap3\n  pop\n    /* \"#utility.yul\":2313:2314   */\n  dup3\n    /* \"#utility.yul\":2310:2311   */\n  dup3\n    /* \"#utility.yul\":2307:2315   */\n  lt\n    /* \"#utility.yul\":2304:2338   */\n  iszero\n  tag_124\n  jumpi\n    /* \"#utility.yul\":2318:2336   */\n  tag_125\n  tag_120\n  jump\t// in\ntag_125:\n    /* \"#utility.yul\":2304:2338   */\ntag_124:\n    /* \"#utility.yul\":2363:2364   */\n  dup3\n    /* \"#utility.yul\":2360:2361   */\n  dup3\n    /* \"#utility.yul\":2356:2365   */\n  sub\n    /* \"#utility.yul\":2348:2365   */\n  swap1\n  pop\n    /* \"#utility.yul\":2180:2371   */\n  swap3\n  swap2\n  pop\n  pop\n  jump\t// out\n    /* \"#utility.yul\":2377:2454   */\ntag_106:\n    /* \"#utility.yul\":2414:2421   */\n  0x00\n    /* \"#utility.yul\":2443:2448   */\n  dup2\n    /* \"#utility.yul\":2432:2448   */\n  swap1\n  pop\n    /* \"#utility.yul\":2377:2454   */\n  swap2\n  swap1\n  pop\n  jump\t// out\n    /* \"#utility.yul\":2460:2767   */\ntag_102:\n    /* \"#utility.yul\":2528:2529   */\n  0x00\n    /* \"#utility.yul\":2538:2651   */\ntag_128:\n    /* \"#utility.yul\":2552:2558   */\n  dup4\n    /* \"#utility.yul\":2549:2550   */\n  dup2\n    /* \"#utility.yul\":2546:2559   */\n  lt\n    /* \"#utility.yul\":2538:2651   */\n  iszero\n  tag_130\n  jumpi\n    /* \"#utility.yul\":2637:2638   */\n  dup1\n    /* \"#utility.yul\":2632:2635   */\n  dup3\n    /* \"#utility.yul\":2628:2639   */\n  add\n    /* \"#utility.yul\":2622:2640   */\n  mload\n    /* \"#utility.yul\":2618:2619   */\n  dup2\n    /* \"#utility.yul\":2613:2616   */\n  dup5\n    /* \"#utility.yul\":2609:2620   */\n  add\n    /* \"#utility.yul\":2602:2641   */\n  mstore\n    /* \"#utility.yul\":2574:2576   */\n  0x20\n    /* \"#utility.yul\":2571:2572   */\n  dup2\n    /* \"#utility.yul\":2567:2577   */\n  add\n    /* \"#utility.yul\":2562:2577   */\n  swap1\n  pop\n    /* \"#utility.yul\":2538:2651   */\n  jump(tag_128)\ntag_130:\n    /* \"#utility.yul\":2669:2675   */\n  dup4\n    /* \"#utility.yul\":2666:2667   */\n  dup2\n    /* \"#utility.yul\":2663:2676   */\n  gt\n    /* \"#utility.yul\":2660:2761   */\n  iszero\n  tag_131\n  jumpi\n    /* \"#utility.yul\":2749:2750   */\n  0x00\n    /* \"#utility.yul\":2740:2746   */\n  dup5\n    /* \"#utility.yul\":2735:2738   */\n  dup5\n    /* \"#utility.yul\":2731:2747   */\n  add\n    /* \"#utility.yul\":2724:2751   */\n  mstore\n    /* \"#utility.yul\":2660:2761   */\ntag_131:\n    /* \"#utility.yul\":2509:2767   */\n  pop\n    /* \"#utility.yul\":2460:2767   */\n  pop\n  pop\n  pop\n  jump\t// out\n    /* \"#utility.yul\":2773:3093   */\ntag_75:\n    /* \"#utility.yul\":2817:2823   */\n  0x00\n    /* \"#utility.yul\":2854:2855   */\n  0x02\n    /* \"#utility.yul\":2848:2852   */\n  dup3\n    /* \"#utility.yul\":2844:2856   */\n  div\n    /* \"#utility.yul\":2834:2856   */\n  swap1\n  pop\n    /* \"#utility.yul\":2901:2902   */\n  0x01\n    /* \"#utility.yul\":2895:2899   */\n  dup3\n    /* \"#utility.yul\":2891:2903   */\n  and\n    /* \"#utility.yul\":2922:2940   */\n  dup1\n    /* \"#utility.yul\":2912:2993   */\n  tag_133\n  jumpi\n    /* \"#utility.yul\":2978:2982   */\n  0x7f\n    /* \"#utility.yul\":2970:2976   */\n  dup3\n    /* \"#utility.yul\":2966:2983   */\n  and\n    /* \"#utility.yul\":2956:2983   */\n  swap2\n  pop\n    /* \"#utility.yul\":2912:2993   */\ntag_133:\n    /* \"#utility.yul\":3040:3042   */\n  0x20\n    /* \"#utility.yul\":3032:3038   */\n  dup3\n    /* \"#utility.yul\":3029:3043   */\n  lt\n    /* \"#utility.yul\":3009:3027   */\n  dup2\n    /* \"#utility.yul\":3006:3044   */\n  eq\n    /* \"#utility.yul\":3003:3087   */\n  iszero\n  tag_134\n  jumpi\n    /* \"#utility.yul\":3059:3077   */\n  tag_135\n  tag_136\n  jump\t// in\ntag_135:\n    /* \"#utility.yul\":3003:3087   */\ntag_134:\n    /* \"#utility.yul\":2824:3093   */\n  pop\n    /* \"#utility.yul\":2773:3093   */\n  swap2\n  swap1\n  pop\n  jump\t// out\n    /* \"#utility.yul\":3099:3279   */\ntag_66:\n    /* \"#utility.yul\":3147:3224   */\n  0x4e487b7100000000000000000000000000000000000000000000000000000000\n    /* \"#utility.yul\":3144:3145   */\n  0x00\n    /* \"#utility.yul\":3137:3225   */\n  mstore\n    /* \"#utility.yul\":3244:3248   */\n  0x01\n    /* \"#utility.yul\":3241:3242   */\n  0x04\n    /* \"#utility.yul\":3234:3249   */\n  mstore\n    /* \"#utility.yul\":3268:3272   */\n  0x24\n    /* \"#utility.yul\":3265:3266   */\n  0x00\n    /* \"#utility.yul\":3258:3273   */\n  revert\n    /* \"#utility.yul\":3285:3465   */\ntag_120:\n    /* \"#utility.yul\":3333:3410   */\n  0x4e487b7100000000000000000000000000000000000000000000000000000000\n    /* \"#utility.yul\":3330:3331   */\n  0x00\n    /* \"#utility.yul\":3323:3411   */\n  mstore\n    /* \"#utility.yul\":3430:3434   */\n  0x11\n    /* \"#utility.yul\":3427:3428   */\n  0x04\n    /* \"#utility.yul\":3420:3435   */\n  mstore\n    /* \"#utility.yul\":3454:3458   */\n  0x24\n    /* \"#utility.yul\":3451:3452   */\n  0x00\n    /* \"#utility.yul\":3444:3459   */\n  revert\n    /* \"#utility.yul\":3471:3651   */\ntag_9:\n    /* \"#utility.yul\":3519:3596   */\n  0x4e487b7100000000000000000000000000000000000000000000000000000000\n    /* \"#utility.yul\":3516:3517   */\n  0x00\n    /* \"#utility.yul\":3509:3597   */\n  mstore\n    /* \"#utility.yul\":3616:3620   */\n  0x21\n    /* \"#utility.yul\":3613:3614   */\n  0x04\n    /* \"#utility.yul\":3606:3621   */\n  mstore\n    /* \"#utility.yul\":3640:3644   */\n  0x24\n    /* \"#utility.yul\":3637:3638   */\n  0x00\n    /* \"#utility.yul\":3630:3645   */\n  revert\n    /* \"#utility.yul\":3657:3837   */\ntag_136:\n    /* \"#utility.yul\":3705:3782   */\n  0x4e487b7100000000000000000000000000000000000000000000000000000000\n    /* \"#utility.yul\":3702:3703   */\n  0x00\n    /* \"#utility.yul\":3695:3783   */\n  mstore\n    /* \"#utility.yul\":3802:3806   */\n  0x22\n    /* \"#utility.yul\":3799:3800   */\n  0x04\n    /* \"#utility.yul\":3792:3807   */\n  mstore\n    /* \"#utility.yul\":3826:3830   */\n  0x24\n    /* \"#utility.yul\":3823:3824   */\n  0x00\n    /* \"#utility.yul\":3816:3831   */\n  revert\n    /* \"#utility.yul\":3966:4083   */\ntag_93:\n    /* \"#utility.yul\":4075:4076   */\n  0x00\n    /* \"#utility.yul\":4072:4073   */\n  dup1\n    /* \"#utility.yul\":4065:4077   */\n  revert\n    /* \"#utility.yul\":4089:4211   */\ntag_89:\n    /* \"#utility.yul\":4162:4186   */\n  tag_145\n    /* \"#utility.yul\":4180:4185   */\n  dup2\n    /* \"#utility.yul\":4162:4186   */\n  tag_106\n  jump\t// in\ntag_145:\n    /* \"#utility.yul\":4155:4160   */\n  dup2\n    /* \"#utility.yul\":4152:4187   */\n  eq\n    /* \"#utility.yul\":4142:4205   */\n  tag_146\n  jumpi\n    /* \"#utility.yul\":4201:4202   */\n  0x00\n    /* \"#utility.yul\":4198:4199   */\n  dup1\n    /* \"#utility.yul\":4191:4203   */\n  revert\n    /* \"#utility.yul\":4142:4205   */\ntag_146:\n    /* \"#utility.yul\":4089:4211   */\n  pop\n  jump\t// out\n    /* \"Documents/GitHub/contract-token-cryptoMonster/backend/components/CryptoMonster.sol\":377:7458  contract CryptoMonster is IERC20, Main, PhaseSeed, PhasePrivate {\r... */\ntag_51:\n  dataSize(sub_0)\n  dup1\n  dataOffset(sub_0)\n  0x00\n  codecopy\n  0x00\n  return\nstop\n\nsub_0: assembly {\n        /* \"Documents/GitHub/contract-token-cryptoMonster/backend/components/CryptoMonster.sol\":377:7458  contract CryptoMonster is IERC20, Main, PhaseSeed, PhasePrivate {\r... */\n      mstore(0x40, 0x80)\n      jumpi(tag_1, lt(calldatasize, 0x04))\n      shr(0xe0, calldataload(0x00))\n      dup1\n      0x70a08231\n      gt\n      tag_15\n      jumpi\n      dup1\n      0x95d89b41\n      gt\n      tag_16\n      jumpi\n      dup1\n      0x95d89b41\n      eq\n      tag_11\n      jumpi\n      dup1\n      0xa9059cbb\n      eq\n      tag_12\n      jumpi\n      dup1\n      0xd96a094a\n      eq\n      tag_13\n      jumpi\n      dup1\n      0xdd62ed3e\n      eq\n      tag_14\n      jumpi\n      jump(tag_1)\n    tag_16:\n      dup1\n      0x70a08231\n      eq\n      tag_8\n      jumpi\n      dup1\n      0x785963c3\n      eq\n      tag_9\n      jumpi\n      dup1\n      0x845952a8\n      eq\n      tag_10\n      jumpi\n      jump(tag_1)\n    tag_15:\n      dup1\n      0x06fdde03\n      eq\n      tag_2\n      jumpi\n      dup1\n      0x0761c8b9\n      eq\n      tag_3\n      jumpi\n      dup1\n      0x095ea7b3\n      eq\n      tag_4\n      jumpi\n      dup1\n      0x18160ddd\n      eq\n      tag_5\n      jumpi\n      dup1\n      0x23b872dd\n      eq\n      tag_6\n      jumpi\n      dup1\n      0x313ce567\n      eq\n      tag_7\n      jumpi\n    tag_1:\n      0x00\n      dup1\n      revert\n        /* \"Documents/GitHub/contract-token-cryptoMonster/backend/components/CryptoMonster.sol\":613:658  string public constant name = \"CryptoMonster\" */\n    tag_2:\n      callvalue\n      dup1\n      iszero\n      tag_17\n      jumpi\n      0x00\n      dup1\n      revert\n    tag_17:\n      pop\n      tag_18\n      tag_19\n      jump\t// in\n    tag_18:\n      mload(0x40)\n      tag_20\n      swap2\n      swap1\n      tag_21\n      jump\t// in\n    tag_20:\n      mload(0x40)\n      dup1\n      swap2\n      sub\n      swap1\n      return\n        /* \"Documents/GitHub/contract-token-cryptoMonster/backend/components/CryptoMonster.sol\":1177:1225  uint256 public constant tokenPrice_ = 1000000000 */\n    tag_3:\n      callvalue\n      dup1\n      iszero\n      tag_22\n      jumpi\n      0x00\n      dup1\n      revert\n    tag_22:\n      pop\n      tag_23\n      tag_24\n      jump\t// in\n    tag_23:\n      mload(0x40)\n      tag_25\n      swap2\n      swap1\n      tag_26\n      jump\t// in\n    tag_25:\n      mload(0x40)\n      dup1\n      swap2\n      sub\n      swap1\n      return\n        /* \"Documents/GitHub/contract-token-cryptoMonster/backend/components/CryptoMonster.sol\":6662:7031  function approve(address _delegate, uint256 _numTokens) public override returns (bool) {\r... */\n    tag_4:\n      callvalue\n      dup1\n      iszero\n      tag_27\n      jumpi\n      0x00\n      dup1\n      revert\n    tag_27:\n      pop\n      tag_28\n      0x04\n      dup1\n      calldatasize\n      sub\n      dup2\n      add\n      swap1\n      tag_29\n      swap2\n      swap1\n      tag_30\n      jump\t// in\n    tag_29:\n      tag_31\n      jump\t// in\n    tag_28:\n      mload(0x40)\n      tag_32\n      swap2\n      swap1\n      tag_33\n      jump\t// in\n    tag_32:\n      mload(0x40)\n      dup1\n      swap2\n      sub\n      swap1\n      return\n        /* \"Documents/GitHub/contract-token-cryptoMonster/backend/components/CryptoMonster.sol\":3611:3711  function totalSupply() public override view returns (uint256) {\r... */\n    tag_5:\n      callvalue\n      dup1\n      iszero\n      tag_34\n      jumpi\n      0x00\n      dup1\n      revert\n    tag_34:\n      pop\n      tag_35\n      tag_36\n      jump\t// in\n    tag_35:\n      mload(0x40)\n      tag_37\n      swap2\n      swap1\n      tag_26\n      jump\t// in\n    tag_37:\n      mload(0x40)\n      dup1\n      swap2\n      sub\n      swap1\n      return\n        /* \"Documents/GitHub/contract-token-cryptoMonster/backend/components/CryptoMonster.sol\":5530:6326  function transferFrom(address _owner, address _buyer, uint256 _numTokens) public override returns (bool) {\r... */\n    tag_6:\n      callvalue\n      dup1\n      iszero\n      tag_38\n      jumpi\n      0x00\n      dup1\n      revert\n    tag_38:\n      pop\n      tag_39\n      0x04\n      dup1\n      calldatasize\n      sub\n      dup2\n      add\n      swap1\n      tag_40\n      swap2\n      swap1\n      tag_41\n      jump\t// in\n    tag_40:\n      tag_42\n      jump\t// in\n    tag_39:\n      mload(0x40)\n      tag_43\n      swap2\n      swap1\n      tag_33\n      jump\t// in\n    tag_43:\n      mload(0x40)\n      dup1\n      swap2\n      sub\n      swap1\n      return\n        /* \"Documents/GitHub/contract-token-cryptoMonster/backend/components/CryptoMonster.sol\":777:812  uint8 public constant decimals = 12 */\n    tag_7:\n      callvalue\n      dup1\n      iszero\n      tag_44\n      jumpi\n      0x00\n      dup1\n      revert\n    tag_44:\n      pop\n      tag_45\n      tag_46\n      jump\t// in\n    tag_45:\n      mload(0x40)\n      tag_47\n      swap2\n      swap1\n      tag_48\n      jump\t// in\n    tag_47:\n      mload(0x40)\n      dup1\n      swap2\n      sub\n      swap1\n      return\n        /* \"Documents/GitHub/contract-token-cryptoMonster/backend/components/CryptoMonster.sol\":3921:4059  function balanceOf(address _tokenOwner) public override view returns (uint256) {\r... */\n    tag_8:\n      callvalue\n      dup1\n      iszero\n      tag_49\n      jumpi\n      0x00\n      dup1\n      revert\n    tag_49:\n      pop\n      tag_50\n      0x04\n      dup1\n      calldatasize\n      sub\n      dup2\n      add\n      swap1\n      tag_51\n      swap2\n      swap1\n      tag_52\n      jump\t// in\n    tag_51:\n      tag_53\n      jump\t// in\n    tag_50:\n      mload(0x40)\n      tag_54\n      swap2\n      swap1\n      tag_26\n      jump\t// in\n    tag_54:\n      mload(0x40)\n      dup1\n      swap2\n      sub\n      swap1\n      return\n        /* \"Documents/GitHub/contract-token-cryptoMonster/backend/components/PhasePrivate.sol\":125:242  function application (string memory _name, string memory contactForCommunication, address _userAdr) public {\r... */\n    tag_9:\n      callvalue\n      dup1\n      iszero\n      tag_55\n      jumpi\n      0x00\n      dup1\n      revert\n    tag_55:\n      pop\n      tag_56\n      0x04\n      dup1\n      calldatasize\n      sub\n      dup2\n      add\n      swap1\n      tag_57\n      swap2\n      swap1\n      tag_58\n      jump\t// in\n    tag_57:\n      tag_59\n      jump\t// in\n    tag_56:\n      stop\n        /* \"Documents/GitHub/contract-token-cryptoMonster/backend/shared/helpers/getFuncs.sol\":144:285  function get_hash(string memory _password) public pure returns(bytes32) {\r... */\n    tag_10:\n      callvalue\n      dup1\n      iszero\n      tag_60\n      jumpi\n      0x00\n      dup1\n      revert\n    tag_60:\n      pop\n      tag_61\n      0x04\n      dup1\n      calldatasize\n      sub\n      dup2\n      add\n      swap1\n      tag_62\n      swap2\n      swap1\n      tag_63\n      jump\t// in\n    tag_62:\n      tag_64\n      jump\t// in\n    tag_61:\n      mload(0x40)\n      tag_65\n      swap2\n      swap1\n      tag_66\n      jump\t// in\n    tag_65:\n      mload(0x40)\n      dup1\n      swap2\n      sub\n      swap1\n      return\n        /* \"Documents/GitHub/contract-token-cryptoMonster/backend/components/CryptoMonster.sol\":698:736  string public constant symbol = \"CMON\" */\n    tag_11:\n      callvalue\n      dup1\n      iszero\n      tag_67\n      jumpi\n      0x00\n      dup1\n      revert\n    tag_67:\n      pop\n      tag_68\n      tag_69\n      jump\t// in\n    tag_68:\n      mload(0x40)\n      tag_70\n      swap2\n      swap1\n      tag_21\n      jump\t// in\n    tag_70:\n      mload(0x40)\n      dup1\n      swap2\n      sub\n      swap1\n      return\n        /* \"Documents/GitHub/contract-token-cryptoMonster/backend/components/CryptoMonster.sol\":4482:5197  function transfer(address _receiver, uint256 _numTokens) public override returns (bool) {\r... */\n    tag_12:\n      callvalue\n      dup1\n      iszero\n      tag_71\n      jumpi\n      0x00\n      dup1\n      revert\n    tag_71:\n      pop\n      tag_72\n      0x04\n      dup1\n      calldatasize\n      sub\n      dup2\n      add\n      swap1\n      tag_73\n      swap2\n      swap1\n      tag_30\n      jump\t// in\n    tag_73:\n      tag_74\n      jump\t// in\n    tag_72:\n      mload(0x40)\n      tag_75\n      swap2\n      swap1\n      tag_33\n      jump\t// in\n    tag_75:\n      mload(0x40)\n      dup1\n      swap2\n      sub\n      swap1\n      return\n        /* \"Documents/GitHub/contract-token-cryptoMonster/backend/components/CryptoMonster.sol\":3019:3409  function buy(uint256 _amount) external payable {\r... */\n    tag_13:\n      tag_76\n      0x04\n      dup1\n      calldatasize\n      sub\n      dup2\n      add\n      swap1\n      tag_77\n      swap2\n      swap1\n      tag_78\n      jump\t// in\n    tag_77:\n      tag_79\n      jump\t// in\n    tag_76:\n      stop\n        /* \"Documents/GitHub/contract-token-cryptoMonster/backend/components/CryptoMonster.sol\":7313:7455  function allowance(address _owner, address _delegate) public override view returns (uint) {\r... */\n    tag_14:\n      callvalue\n      dup1\n      iszero\n      tag_80\n      jumpi\n      0x00\n      dup1\n      revert\n    tag_80:\n      pop\n      tag_81\n      0x04\n      dup1\n      calldatasize\n      sub\n      dup2\n      add\n      swap1\n      tag_82\n      swap2\n      swap1\n      tag_83\n      jump\t// in\n    tag_82:\n      tag_84\n      jump\t// in\n    tag_81:\n      mload(0x40)\n      tag_85\n      swap2\n      swap1\n      tag_26\n      jump\t// in\n    tag_85:\n      mload(0x40)\n      dup1\n      swap2\n      sub\n      swap1\n      return\n        /* \"Documents/GitHub/contract-token-cryptoMonster/backend/components/CryptoMonster.sol\":613:658  string public constant name = \"CryptoMonster\" */\n    tag_19:\n      mload(0x40)\n      dup1\n      0x40\n      add\n      0x40\n      mstore\n      dup1\n      0x0d\n      dup2\n      mstore\n      0x20\n      add\n      0x43727970746f4d6f6e7374657200000000000000000000000000000000000000\n      dup2\n      mstore\n      pop\n      dup2\n      jump\t// out\n        /* \"Documents/GitHub/contract-token-cryptoMonster/backend/components/CryptoMonster.sol\":1177:1225  uint256 public constant tokenPrice_ = 1000000000 */\n    tag_24:\n        /* \"Documents/GitHub/contract-token-cryptoMonster/backend/components/CryptoMonster.sol\":1215:1225  1000000000 */\n      0x3b9aca00\n        /* \"Documents/GitHub/contract-token-cryptoMonster/backend/components/CryptoMonster.sol\":1177:1225  uint256 public constant tokenPrice_ = 1000000000 */\n      dup2\n      jump\t// out\n        /* \"Documents/GitHub/contract-token-cryptoMonster/backend/components/CryptoMonster.sol\":6662:7031  function approve(address _delegate, uint256 _numTokens) public override returns (bool) {\r... */\n    tag_31:\n        /* \"Documents/GitHub/contract-token-cryptoMonster/backend/components/CryptoMonster.sol\":6743:6747  bool */\n      0x00\n        /* \"Documents/GitHub/contract-token-cryptoMonster/backend/components/CryptoMonster.sol\":6793:6803  _numTokens */\n      dup2\n        /* \"Documents/GitHub/contract-token-cryptoMonster/backend/components/CryptoMonster.sol\":6760:6767  allowed */\n      0x04\n        /* \"Documents/GitHub/contract-token-cryptoMonster/backend/components/CryptoMonster.sol\":6760:6779  allowed[msg.sender] */\n      0x00\n        /* \"Documents/GitHub/contract-token-cryptoMonster/backend/components/CryptoMonster.sol\":6768:6778  msg.sender */\n      caller\n        /* \"Documents/GitHub/contract-token-cryptoMonster/backend/components/CryptoMonster.sol\":6760:6779  allowed[msg.sender] */\n      0xffffffffffffffffffffffffffffffffffffffff\n      and\n      0xffffffffffffffffffffffffffffffffffffffff\n      and\n      dup2\n      mstore\n      0x20\n      add\n      swap1\n      dup2\n      mstore\n      0x20\n      add\n      0x00\n      keccak256\n        /* \"Documents/GitHub/contract-token-cryptoMonster/backend/components/CryptoMonster.sol\":6760:6790  allowed[msg.sender][_delegate] */\n      0x00\n        /* \"Documents/GitHub/contract-token-cryptoMonster/backend/components/CryptoMonster.sol\":6780:6789  _delegate */\n      dup6\n        /* \"Documents/GitHub/contract-token-cryptoMonster/backend/components/CryptoMonster.sol\":6760:6790  allowed[msg.sender][_delegate] */\n      0xffffffffffffffffffffffffffffffffffffffff\n      and\n      0xffffffffffffffffffffffffffffffffffffffff\n      and\n      dup2\n      mstore\n      0x20\n      add\n      swap1\n      dup2\n      mstore\n      0x20\n      add\n      0x00\n      keccak256\n        /* \"Documents/GitHub/contract-token-cryptoMonster/backend/components/CryptoMonster.sol\":6760:6803  allowed[msg.sender][_delegate] = _numTokens */\n      dup2\n      swap1\n      sstore\n      pop\n        /* \"Documents/GitHub/contract-token-cryptoMonster/backend/components/CryptoMonster.sol\":6979:6988  _delegate */\n      dup3\n        /* \"Documents/GitHub/contract-token-cryptoMonster/backend/components/CryptoMonster.sol\":6958:7001  Approval(msg.sender, _delegate, _numTokens) */\n      0xffffffffffffffffffffffffffffffffffffffff\n      and\n        /* \"Documents/GitHub/contract-token-cryptoMonster/backend/components/CryptoMonster.sol\":6967:6977  msg.sender */\n      caller\n        /* \"Documents/GitHub/contract-token-cryptoMonster/backend/components/CryptoMonster.sol\":6958:7001  Approval(msg.sender, _delegate, _numTokens) */\n      0xffffffffffffffffffffffffffffffffffffffff\n      and\n      0x8c5be1e5ebec7d5bd14f71427d1e84f3dd0314c0f7b2291e5b200ac8c7c3b925\n        /* \"Documents/GitHub/contract-token-cryptoMonster/backend/components/CryptoMonster.sol\":6990:7000  _numTokens */\n      dup5\n        /* \"Documents/GitHub/contract-token-cryptoMonster/backend/components/CryptoMonster.sol\":6958:7001  Approval(msg.sender, _delegate, _numTokens) */\n      mload(0x40)\n      tag_89\n      swap2\n      swap1\n      tag_26\n      jump\t// in\n    tag_89:\n      mload(0x40)\n      dup1\n      swap2\n      sub\n      swap1\n      log3\n        /* \"Documents/GitHub/contract-token-cryptoMonster/backend/components/CryptoMonster.sol\":7019:7023  true */\n      0x01\n        /* \"Documents/GitHub/contract-token-cryptoMonster/backend/components/CryptoMonster.sol\":7012:7023  return true */\n      swap1\n      pop\n        /* \"Documents/GitHub/contract-token-cryptoMonster/backend/components/CryptoMonster.sol\":6662:7031  function approve(address _delegate, uint256 _numTokens) public override returns (bool) {\r... */\n      swap3\n      swap2\n      pop\n      pop\n      jump\t// out\n        /* \"Documents/GitHub/contract-token-cryptoMonster/backend/components/CryptoMonster.sol\":3611:3711  function totalSupply() public override view returns (uint256) {\r... */\n    tag_36:\n        /* \"Documents/GitHub/contract-token-cryptoMonster/backend/components/CryptoMonster.sol\":3664:3671  uint256 */\n      0x00\n        /* \"Documents/GitHub/contract-token-cryptoMonster/backend/components/CryptoMonster.sol\":3691:3703  totalSupply_ */\n      sload(0x05)\n        /* \"Documents/GitHub/contract-token-cryptoMonster/backend/components/CryptoMonster.sol\":3684:3703  return totalSupply_ */\n      swap1\n      pop\n        /* \"Documents/GitHub/contract-token-cryptoMonster/backend/components/CryptoMonster.sol\":3611:3711  function totalSupply() public override view returns (uint256) {\r... */\n      swap1\n      jump\t// out\n        /* \"Documents/GitHub/contract-token-cryptoMonster/backend/components/CryptoMonster.sol\":5530:6326  function transferFrom(address _owner, address _buyer, uint256 _numTokens) public override returns (bool) {\r... */\n    tag_42:\n        /* \"Documents/GitHub/contract-token-cryptoMonster/backend/components/CryptoMonster.sol\":5629:5633  bool */\n      0x00\n        /* \"Documents/GitHub/contract-token-cryptoMonster/backend/components/CryptoMonster.sol\":5668:5679  structUser_ */\n      dup1\n        /* \"Documents/GitHub/contract-token-cryptoMonster/backend/components/CryptoMonster.sol\":5668:5687  structUser_[_owner] */\n      0x00\n        /* \"Documents/GitHub/contract-token-cryptoMonster/backend/components/CryptoMonster.sol\":5680:5686  _owner */\n      dup6\n        /* \"Documents/GitHub/contract-token-cryptoMonster/backend/components/CryptoMonster.sol\":5668:5687  structUser_[_owner] */\n      0xffffffffffffffffffffffffffffffffffffffff\n      and\n      0xffffffffffffffffffffffffffffffffffffffff\n      and\n      dup2\n      mstore\n      0x20\n      add\n      swap1\n      dup2\n      mstore\n      0x20\n      add\n      0x00\n      keccak256\n        /* \"Documents/GitHub/contract-token-cryptoMonster/backend/components/CryptoMonster.sol\":5668:5696  structUser_[_owner].balances */\n      0x03\n      add\n      sload\n        /* \"Documents/GitHub/contract-token-cryptoMonster/backend/components/CryptoMonster.sol\":5654:5664  _numTokens */\n      dup3\n        /* \"Documents/GitHub/contract-token-cryptoMonster/backend/components/CryptoMonster.sol\":5654:5696  _numTokens <= structUser_[_owner].balances */\n      gt\n      iszero\n        /* \"Documents/GitHub/contract-token-cryptoMonster/backend/components/CryptoMonster.sol\":5646:5697  require(_numTokens <= structUser_[_owner].balances) */\n      tag_92\n      jumpi\n      0x00\n      dup1\n      revert\n    tag_92:\n        /* \"Documents/GitHub/contract-token-cryptoMonster/backend/components/CryptoMonster.sol\":5765:5772  allowed */\n      0x04\n        /* \"Documents/GitHub/contract-token-cryptoMonster/backend/components/CryptoMonster.sol\":5765:5780  allowed[_owner] */\n      0x00\n        /* \"Documents/GitHub/contract-token-cryptoMonster/backend/components/CryptoMonster.sol\":5773:5779  _owner */\n      dup6\n        /* \"Documents/GitHub/contract-token-cryptoMonster/backend/components/CryptoMonster.sol\":5765:5780  allowed[_owner] */\n      0xffffffffffffffffffffffffffffffffffffffff\n      and\n      0xffffffffffffffffffffffffffffffffffffffff\n      and\n      dup2\n      mstore\n      0x20\n      add\n      swap1\n      dup2\n      mstore\n      0x20\n      add\n      0x00\n      keccak256\n        /* \"Documents/GitHub/contract-token-cryptoMonster/backend/components/CryptoMonster.sol\":5765:5792  allowed[_owner][msg.sender] */\n      0x00\n        /* \"Documents/GitHub/contract-token-cryptoMonster/backend/components/CryptoMonster.sol\":5781:5791  msg.sender */\n      caller\n        /* \"Documents/GitHub/contract-token-cryptoMonster/backend/components/CryptoMonster.sol\":5765:5792  allowed[_owner][msg.sender] */\n      0xffffffffffffffffffffffffffffffffffffffff\n      and\n      0xffffffffffffffffffffffffffffffffffffffff\n      and\n      dup2\n      mstore\n      0x20\n      add\n      swap1\n      dup2\n      mstore\n      0x20\n      add\n      0x00\n      keccak256\n      sload\n        /* \"Documents/GitHub/contract-token-cryptoMonster/backend/components/CryptoMonster.sol\":5751:5761  _numTokens */\n      dup3\n        /* \"Documents/GitHub/contract-token-cryptoMonster/backend/components/CryptoMonster.sol\":5751:5792  _numTokens <= allowed[_owner][msg.sender] */\n      gt\n      iszero\n        /* \"Documents/GitHub/contract-token-cryptoMonster/backend/components/CryptoMonster.sol\":5743:5793  require(_numTokens <= allowed[_owner][msg.sender]) */\n      tag_93\n      jumpi\n      0x00\n      dup1\n      revert\n    tag_93:\n        /* \"Documents/GitHub/contract-token-cryptoMonster/backend/components/CryptoMonster.sol\":5873:5917  structUser_[_owner].balances.sub(_numTokens) */\n      tag_94\n        /* \"Documents/GitHub/contract-token-cryptoMonster/backend/components/CryptoMonster.sol\":5906:5916  _numTokens */\n      dup3\n        /* \"Documents/GitHub/contract-token-cryptoMonster/backend/components/CryptoMonster.sol\":5873:5884  structUser_ */\n      0x00\n        /* \"Documents/GitHub/contract-token-cryptoMonster/backend/components/CryptoMonster.sol\":5873:5892  structUser_[_owner] */\n      dup1\n        /* \"Documents/GitHub/contract-token-cryptoMonster/backend/components/CryptoMonster.sol\":5885:5891  _owner */\n      dup8\n        /* \"Documents/GitHub/contract-token-cryptoMonster/backend/components/CryptoMonster.sol\":5873:5892  structUser_[_owner] */\n      0xffffffffffffffffffffffffffffffffffffffff\n      and\n      0xffffffffffffffffffffffffffffffffffffffff\n      and\n      dup2\n      mstore\n      0x20\n      add\n      swap1\n      dup2\n      mstore\n      0x20\n      add\n      0x00\n      keccak256\n        /* \"Documents/GitHub/contract-token-cryptoMonster/backend/components/CryptoMonster.sol\":5873:5901  structUser_[_owner].balances */\n      0x03\n      add\n      sload\n        /* \"Documents/GitHub/contract-token-cryptoMonster/backend/components/CryptoMonster.sol\":5873:5905  structUser_[_owner].balances.sub */\n      tag_86\n      swap1\n        /* \"Documents/GitHub/contract-token-cryptoMonster/backend/components/CryptoMonster.sol\":5873:5917  structUser_[_owner].balances.sub(_numTokens) */\n      swap2\n      swap1\n      0xffffffff\n      and\n      jump\t// in\n    tag_94:\n        /* \"Documents/GitHub/contract-token-cryptoMonster/backend/components/CryptoMonster.sol\":5842:5853  structUser_ */\n      0x00\n        /* \"Documents/GitHub/contract-token-cryptoMonster/backend/components/CryptoMonster.sol\":5842:5861  structUser_[_owner] */\n      dup1\n        /* \"Documents/GitHub/contract-token-cryptoMonster/backend/components/CryptoMonster.sol\":5854:5860  _owner */\n      dup7\n        /* \"Documents/GitHub/contract-token-cryptoMonster/backend/components/CryptoMonster.sol\":5842:5861  structUser_[_owner] */\n      0xffffffffffffffffffffffffffffffffffffffff\n      and\n      0xffffffffffffffffffffffffffffffffffffffff\n      and\n      dup2\n      mstore\n      0x20\n      add\n      swap1\n      dup2\n      mstore\n      0x20\n      add\n      0x00\n      keccak256\n        /* \"Documents/GitHub/contract-token-cryptoMonster/backend/components/CryptoMonster.sol\":5842:5870  structUser_[_owner].balances */\n      0x03\n      add\n        /* \"Documents/GitHub/contract-token-cryptoMonster/backend/components/CryptoMonster.sol\":5842:5917  structUser_[_owner].balances = structUser_[_owner].balances.sub(_numTokens) */\n      dup2\n      swap1\n      sstore\n      pop\n        /* \"Documents/GitHub/contract-token-cryptoMonster/backend/components/CryptoMonster.sol\":6007:6050  allowed[_owner][msg.sender].sub(_numTokens) */\n      tag_95\n        /* \"Documents/GitHub/contract-token-cryptoMonster/backend/components/CryptoMonster.sol\":6039:6049  _numTokens */\n      dup3\n        /* \"Documents/GitHub/contract-token-cryptoMonster/backend/components/CryptoMonster.sol\":6007:6014  allowed */\n      0x04\n        /* \"Documents/GitHub/contract-token-cryptoMonster/backend/components/CryptoMonster.sol\":6007:6022  allowed[_owner] */\n      0x00\n        /* \"Documents/GitHub/contract-token-cryptoMonster/backend/components/CryptoMonster.sol\":6015:6021  _owner */\n      dup8\n        /* \"Documents/GitHub/contract-token-cryptoMonster/backend/components/CryptoMonster.sol\":6007:6022  allowed[_owner] */\n      0xffffffffffffffffffffffffffffffffffffffff\n      and\n      0xffffffffffffffffffffffffffffffffffffffff\n      and\n      dup2\n      mstore\n      0x20\n      add\n      swap1\n      dup2\n      mstore\n      0x20\n      add\n      0x00\n      keccak256\n        /* \"Documents/GitHub/contract-token-cryptoMonster/backend/components/CryptoMonster.sol\":6007:6034  allowed[_owner][msg.sender] */\n      0x00\n        /* \"Documents/GitHub/contract-token-cryptoMonster/backend/components/CryptoMonster.sol\":6023:6033  msg.sender */\n      caller\n        /* \"Documents/GitHub/contract-token-cryptoMonster/backend/components/CryptoMonster.sol\":6007:6034  allowed[_owner][msg.sender] */\n      0xffffffffffffffffffffffffffffffffffffffff\n      and\n      0xffffffffffffffffffffffffffffffffffffffff\n      and\n      dup2\n      mstore\n      0x20\n      add\n      swap1\n      dup2\n      mstore\n      0x20\n      add\n      0x00\n      keccak256\n      sload\n        /* \"Documents/GitHub/contract-token-cryptoMonster/backend/components/CryptoMonster.sol\":6007:6038  allowed[_owner][msg.sender].sub */\n      tag_86\n      swap1\n        /* \"Documents/GitHub/contract-token-cryptoMonster/backend/components/CryptoMonster.sol\":6007:6050  allowed[_owner][msg.sender].sub(_numTokens) */\n      swap2\n      swap1\n      0xffffffff\n      and\n      jump\t// in\n    tag_95:\n        /* \"Documents/GitHub/contract-token-cryptoMonster/backend/components/CryptoMonster.sol\":5977:5984  allowed */\n      0x04\n        /* \"Documents/GitHub/contract-token-cryptoMonster/backend/components/CryptoMonster.sol\":5977:5992  allowed[_owner] */\n      0x00\n        /* \"Documents/GitHub/contract-token-cryptoMonster/backend/components/CryptoMonster.sol\":5985:5991  _owner */\n      dup7\n        /* \"Documents/GitHub/contract-token-cryptoMonster/backend/components/CryptoMonster.sol\":5977:5992  allowed[_owner] */\n      0xffffffffffffffffffffffffffffffffffffffff\n      and\n      0xffffffffffffffffffffffffffffffffffffffff\n      and\n      dup2\n      mstore\n      0x20\n      add\n      swap1\n      dup2\n      mstore\n      0x20\n      add\n      0x00\n      keccak256\n        /* \"Documents/GitHub/contract-token-cryptoMonster/backend/components/CryptoMonster.sol\":5977:6004  allowed[_owner][msg.sender] */\n      0x00\n        /* \"Documents/GitHub/contract-token-cryptoMonster/backend/components/CryptoMonster.sol\":5993:6003  msg.sender */\n      caller\n        /* \"Documents/GitHub/contract-token-cryptoMonster/backend/components/CryptoMonster.sol\":5977:6004  allowed[_owner][msg.sender] */\n      0xffffffffffffffffffffffffffffffffffffffff\n      and\n      0xffffffffffffffffffffffffffffffffffffffff\n      and\n      dup2\n      mstore\n      0x20\n      add\n      swap1\n      dup2\n      mstore\n      0x20\n      add\n      0x00\n      keccak256\n        /* \"Documents/GitHub/contract-token-cryptoMonster/backend/components/CryptoMonster.sol\":5977:6050  allowed[_owner][msg.sender] = allowed[_owner][msg.sender].sub(_numTokens) */\n      dup2\n      swap1\n      sstore\n      pop\n        /* \"Documents/GitHub/contract-token-cryptoMonster/backend/components/CryptoMonster.sol\":6143:6187  structUser_[_buyer].balances.add(_numTokens) */\n      tag_96\n        /* \"Documents/GitHub/contract-token-cryptoMonster/backend/components/CryptoMonster.sol\":6176:6186  _numTokens */\n      dup3\n        /* \"Documents/GitHub/contract-token-cryptoMonster/backend/components/CryptoMonster.sol\":6143:6154  structUser_ */\n      0x00\n        /* \"Documents/GitHub/contract-token-cryptoMonster/backend/components/CryptoMonster.sol\":6143:6162  structUser_[_buyer] */\n      dup1\n        /* \"Documents/GitHub/contract-token-cryptoMonster/backend/components/CryptoMonster.sol\":6155:6161  _buyer */\n      dup7\n        /* \"Documents/GitHub/contract-token-cryptoMonster/backend/components/CryptoMonster.sol\":6143:6162  structUser_[_buyer] */\n      0xffffffffffffffffffffffffffffffffffffffff\n      and\n      0xffffffffffffffffffffffffffffffffffffffff\n      and\n      dup2\n      mstore\n      0x20\n      add\n      swap1\n      dup2\n      mstore\n      0x20\n      add\n      0x00\n      keccak256\n        /* \"Documents/GitHub/contract-token-cryptoMonster/backend/components/CryptoMonster.sol\":6143:6171  structUser_[_buyer].balances */\n      0x03\n      add\n      sload\n        /* \"Documents/GitHub/contract-token-cryptoMonster/backend/components/CryptoMonster.sol\":6143:6175  structUser_[_buyer].balances.add */\n      tag_87\n      swap1\n        /* \"Documents/GitHub/contract-token-cryptoMonster/backend/components/CryptoMonster.sol\":6143:6187  structUser_[_buyer].balances.add(_numTokens) */\n      swap2\n      swap1\n      0xffffffff\n      and\n      jump\t// in\n    tag_96:\n        /* \"Documents/GitHub/contract-token-cryptoMonster/backend/components/CryptoMonster.sol\":6112:6123  structUser_ */\n      0x00\n        /* \"Documents/GitHub/contract-token-cryptoMonster/backend/components/CryptoMonster.sol\":6112:6131  structUser_[_buyer] */\n      dup1\n        /* \"Documents/GitHub/contract-token-cryptoMonster/backend/components/CryptoMonster.sol\":6124:6130  _buyer */\n      dup6\n        /* \"Documents/GitHub/contract-token-cryptoMonster/backend/components/CryptoMonster.sol\":6112:6131  structUser_[_buyer] */\n      0xffffffffffffffffffffffffffffffffffffffff\n      and\n      0xffffffffffffffffffffffffffffffffffffffff\n      and\n      dup2\n      mstore\n      0x20\n      add\n      swap1\n      dup2\n      mstore\n      0x20\n      add\n      0x00\n      keccak256\n        /* \"Documents/GitHub/contract-token-cryptoMonster/backend/components/CryptoMonster.sol\":6112:6140  structUser_[_buyer].balances */\n      0x03\n      add\n        /* \"Documents/GitHub/contract-token-cryptoMonster/backend/components/CryptoMonster.sol\":6112:6187  structUser_[_buyer].balances = structUser_[_buyer].balances.add(_numTokens) */\n      dup2\n      swap1\n      sstore\n      pop\n        /* \"Documents/GitHub/contract-token-cryptoMonster/backend/components/CryptoMonster.sol\":6277:6283  _buyer */\n      dup3\n        /* \"Documents/GitHub/contract-token-cryptoMonster/backend/components/CryptoMonster.sol\":6260:6296  Transfer(_owner, _buyer, _numTokens) */\n      0xffffffffffffffffffffffffffffffffffffffff\n      and\n        /* \"Documents/GitHub/contract-token-cryptoMonster/backend/components/CryptoMonster.sol\":6269:6275  _owner */\n      dup5\n        /* \"Documents/GitHub/contract-token-cryptoMonster/backend/components/CryptoMonster.sol\":6260:6296  Transfer(_owner, _buyer, _numTokens) */\n      0xffffffffffffffffffffffffffffffffffffffff\n      and\n      0xddf252ad1be2c89b69c2b068fc378daa952ba7f163c4a11628f55a4df523b3ef\n        /* \"Documents/GitHub/contract-token-cryptoMonster/backend/components/CryptoMonster.sol\":6285:6295  _numTokens */\n      dup5\n        /* \"Documents/GitHub/contract-token-cryptoMonster/backend/components/CryptoMonster.sol\":6260:6296  Transfer(_owner, _buyer, _numTokens) */\n      mload(0x40)\n      tag_97\n      swap2\n      swap1\n      tag_26\n      jump\t// in\n    tag_97:\n      mload(0x40)\n      dup1\n      swap2\n      sub\n      swap1\n      log3\n        /* \"Documents/GitHub/contract-token-cryptoMonster/backend/components/CryptoMonster.sol\":6314:6318  true */\n      0x01\n        /* \"Documents/GitHub/contract-token-cryptoMonster/backend/components/CryptoMonster.sol\":6307:6318  return true */\n      swap1\n      pop\n        /* \"Documents/GitHub/contract-token-cryptoMonster/backend/components/CryptoMonster.sol\":5530:6326  function transferFrom(address _owner, address _buyer, uint256 _numTokens) public override returns (bool) {\r... */\n      swap4\n      swap3\n      pop\n      pop\n      pop\n      jump\t// out\n        /* \"Documents/GitHub/contract-token-cryptoMonster/backend/components/CryptoMonster.sol\":777:812  uint8 public constant decimals = 12 */\n    tag_46:\n        /* \"Documents/GitHub/contract-token-cryptoMonster/backend/components/CryptoMonster.sol\":810:812  12 */\n      0x0c\n        /* \"Documents/GitHub/contract-token-cryptoMonster/backend/components/CryptoMonster.sol\":777:812  uint8 public constant decimals = 12 */\n      dup2\n      jump\t// out\n        /* \"Documents/GitHub/contract-token-cryptoMonster/backend/components/CryptoMonster.sol\":3921:4059  function balanceOf(address _tokenOwner) public override view returns (uint256) {\r... */\n    tag_53:\n        /* \"Documents/GitHub/contract-token-cryptoMonster/backend/components/CryptoMonster.sol\":3991:3998  uint256 */\n      0x00\n        /* \"Documents/GitHub/contract-token-cryptoMonster/backend/components/CryptoMonster.sol\":4018:4029  structUser_ */\n      dup1\n        /* \"Documents/GitHub/contract-token-cryptoMonster/backend/components/CryptoMonster.sol\":4018:4042  structUser_[_tokenOwner] */\n      0x00\n        /* \"Documents/GitHub/contract-token-cryptoMonster/backend/components/CryptoMonster.sol\":4030:4041  _tokenOwner */\n      dup4\n        /* \"Documents/GitHub/contract-token-cryptoMonster/backend/components/CryptoMonster.sol\":4018:4042  structUser_[_tokenOwner] */\n      0xffffffffffffffffffffffffffffffffffffffff\n      and\n      0xffffffffffffffffffffffffffffffffffffffff\n      and\n      dup2\n      mstore\n      0x20\n      add\n      swap1\n      dup2\n      mstore\n      0x20\n      add\n      0x00\n      keccak256\n        /* \"Documents/GitHub/contract-token-cryptoMonster/backend/components/CryptoMonster.sol\":4018:4051  structUser_[_tokenOwner].balances */\n      0x03\n      add\n      sload\n        /* \"Documents/GitHub/contract-token-cryptoMonster/backend/components/CryptoMonster.sol\":4011:4051  return structUser_[_tokenOwner].balances */\n      swap1\n      pop\n        /* \"Documents/GitHub/contract-token-cryptoMonster/backend/components/CryptoMonster.sol\":3921:4059  function balanceOf(address _tokenOwner) public override view returns (uint256) {\r... */\n      swap2\n      swap1\n      pop\n      jump\t// out\n        /* \"Documents/GitHub/contract-token-cryptoMonster/backend/components/PhasePrivate.sol\":125:242  function application (string memory _name, string memory contactForCommunication, address _userAdr) public {\r... */\n    tag_59:\n      pop\n      pop\n      pop\n      jump\t// out\n        /* \"Documents/GitHub/contract-token-cryptoMonster/backend/shared/helpers/getFuncs.sol\":144:285  function get_hash(string memory _password) public pure returns(bytes32) {\r... */\n    tag_64:\n        /* \"Documents/GitHub/contract-token-cryptoMonster/backend/shared/helpers/getFuncs.sol\":207:214  bytes32 */\n      0x00\n        /* \"Documents/GitHub/contract-token-cryptoMonster/backend/shared/helpers/getFuncs.sol\":265:274  _password */\n      dup2\n        /* \"Documents/GitHub/contract-token-cryptoMonster/backend/shared/helpers/getFuncs.sol\":248:275  abi.encodePacked(_password) */\n      add(0x20, mload(0x40))\n      tag_101\n      swap2\n      swap1\n      tag_102\n      jump\t// in\n    tag_101:\n      mload(0x40)\n      0x20\n      dup2\n      dup4\n      sub\n      sub\n      dup2\n      mstore\n      swap1\n      0x40\n      mstore\n        /* \"Documents/GitHub/contract-token-cryptoMonster/backend/shared/helpers/getFuncs.sol\":238:276  keccak256(abi.encodePacked(_password)) */\n      dup1\n      mload\n      swap1\n      0x20\n      add\n      keccak256\n        /* \"Documents/GitHub/contract-token-cryptoMonster/backend/shared/helpers/getFuncs.sol\":231:277  return(keccak256(abi.encodePacked(_password))) */\n      swap1\n      pop\n        /* \"Documents/GitHub/contract-token-cryptoMonster/backend/shared/helpers/getFuncs.sol\":144:285  function get_hash(string memory _password) public pure returns(bytes32) {\r... */\n      swap2\n      swap1\n      pop\n      jump\t// out\n        /* \"Documents/GitHub/contract-token-cryptoMonster/backend/components/CryptoMonster.sol\":698:736  string public constant symbol = \"CMON\" */\n    tag_69:\n      mload(0x40)\n      dup1\n      0x40\n      add\n      0x40\n      mstore\n      dup1\n      0x04\n      dup2\n      mstore\n      0x20\n      add\n      0x434d4f4e00000000000000000000000000000000000000000000000000000000\n      dup2\n      mstore\n      pop\n      dup2\n      jump\t// out\n        /* \"Documents/GitHub/contract-token-cryptoMonster/backend/components/CryptoMonster.sol\":4482:5197  function transfer(address _receiver, uint256 _numTokens) public override returns (bool) {\r... */\n    tag_74:\n        /* \"Documents/GitHub/contract-token-cryptoMonster/backend/components/CryptoMonster.sol\":4564:4568  bool */\n      0x00\n        /* \"Documents/GitHub/contract-token-cryptoMonster/backend/components/CryptoMonster.sol\":4603:4614  structUser_ */\n      dup1\n        /* \"Documents/GitHub/contract-token-cryptoMonster/backend/components/CryptoMonster.sol\":4603:4626  structUser_[msg.sender] */\n      0x00\n        /* \"Documents/GitHub/contract-token-cryptoMonster/backend/components/CryptoMonster.sol\":4615:4625  msg.sender */\n      caller\n        /* \"Documents/GitHub/contract-token-cryptoMonster/backend/components/CryptoMonster.sol\":4603:4626  structUser_[msg.sender] */\n      0xffffffffffffffffffffffffffffffffffffffff\n      and\n      0xffffffffffffffffffffffffffffffffffffffff\n      and\n      dup2\n      mstore\n      0x20\n      add\n      swap1\n      dup2\n      mstore\n      0x20\n      add\n      0x00\n      keccak256\n        /* \"Documents/GitHub/contract-token-cryptoMonster/backend/components/CryptoMonster.sol\":4603:4635  structUser_[msg.sender].balances */\n      0x03\n      add\n      sload\n        /* \"Documents/GitHub/contract-token-cryptoMonster/backend/components/CryptoMonster.sol\":4589:4599  _numTokens */\n      dup3\n        /* \"Documents/GitHub/contract-token-cryptoMonster/backend/components/CryptoMonster.sol\":4589:4635  _numTokens <= structUser_[msg.sender].balances */\n      gt\n      iszero\n        /* \"Documents/GitHub/contract-token-cryptoMonster/backend/components/CryptoMonster.sol\":4581:4636  require(_numTokens <= structUser_[msg.sender].balances) */\n      tag_104\n      jumpi\n      0x00\n      dup1\n      revert\n    tag_104:\n        /* \"Documents/GitHub/contract-token-cryptoMonster/backend/components/CryptoMonster.sol\":4745:4793  structUser_[msg.sender].balances.sub(_numTokens) */\n      tag_105\n        /* \"Documents/GitHub/contract-token-cryptoMonster/backend/components/CryptoMonster.sol\":4782:4792  _numTokens */\n      dup3\n        /* \"Documents/GitHub/contract-token-cryptoMonster/backend/components/CryptoMonster.sol\":4745:4756  structUser_ */\n      0x00\n        /* \"Documents/GitHub/contract-token-cryptoMonster/backend/components/CryptoMonster.sol\":4745:4768  structUser_[msg.sender] */\n      dup1\n        /* \"Documents/GitHub/contract-token-cryptoMonster/backend/components/CryptoMonster.sol\":4757:4767  msg.sender */\n      caller\n        /* \"Documents/GitHub/contract-token-cryptoMonster/backend/components/CryptoMonster.sol\":4745:4768  structUser_[msg.sender] */\n      0xffffffffffffffffffffffffffffffffffffffff\n      and\n      0xffffffffffffffffffffffffffffffffffffffff\n      and\n      dup2\n      mstore\n      0x20\n      add\n      swap1\n      dup2\n      mstore\n      0x20\n      add\n      0x00\n      keccak256\n        /* \"Documents/GitHub/contract-token-cryptoMonster/backend/components/CryptoMonster.sol\":4745:4777  structUser_[msg.sender].balances */\n      0x03\n      add\n      sload\n        /* \"Documents/GitHub/contract-token-cryptoMonster/backend/components/CryptoMonster.sol\":4745:4781  structUser_[msg.sender].balances.sub */\n      tag_86\n      swap1\n        /* \"Documents/GitHub/contract-token-cryptoMonster/backend/components/CryptoMonster.sol\":4745:4793  structUser_[msg.sender].balances.sub(_numTokens) */\n      swap2\n      swap1\n      0xffffffff\n      and\n      jump\t// in\n    tag_105:\n        /* \"Documents/GitHub/contract-token-cryptoMonster/backend/components/CryptoMonster.sol\":4710:4721  structUser_ */\n      0x00\n        /* \"Documents/GitHub/contract-token-cryptoMonster/backend/components/CryptoMonster.sol\":4710:4733  structUser_[msg.sender] */\n      dup1\n        /* \"Documents/GitHub/contract-token-cryptoMonster/backend/components/CryptoMonster.sol\":4722:4732  msg.sender */\n      caller\n        /* \"Documents/GitHub/contract-token-cryptoMonster/backend/components/CryptoMonster.sol\":4710:4733  structUser_[msg.sender] */\n      0xffffffffffffffffffffffffffffffffffffffff\n      and\n      0xffffffffffffffffffffffffffffffffffffffff\n      and\n      dup2\n      mstore\n      0x20\n      add\n      swap1\n      dup2\n      mstore\n      0x20\n      add\n      0x00\n      keccak256\n        /* \"Documents/GitHub/contract-token-cryptoMonster/backend/components/CryptoMonster.sol\":4710:4742  structUser_[msg.sender].balances */\n      0x03\n      add\n        /* \"Documents/GitHub/contract-token-cryptoMonster/backend/components/CryptoMonster.sol\":4710:4793  structUser_[msg.sender].balances = structUser_[msg.sender].balances.sub(_numTokens) */\n      dup2\n      swap1\n      sstore\n      pop\n        /* \"Documents/GitHub/contract-token-cryptoMonster/backend/components/CryptoMonster.sol\":4887:4934  structUser_[_receiver].balances.add(_numTokens) */\n      tag_106\n        /* \"Documents/GitHub/contract-token-cryptoMonster/backend/components/CryptoMonster.sol\":4923:4933  _numTokens */\n      dup3\n        /* \"Documents/GitHub/contract-token-cryptoMonster/backend/components/CryptoMonster.sol\":4887:4898  structUser_ */\n      0x00\n        /* \"Documents/GitHub/contract-token-cryptoMonster/backend/components/CryptoMonster.sol\":4887:4909  structUser_[_receiver] */\n      dup1\n        /* \"Documents/GitHub/contract-token-cryptoMonster/backend/components/CryptoMonster.sol\":4899:4908  _receiver */\n      dup7\n        /* \"Documents/GitHub/contract-token-cryptoMonster/backend/components/CryptoMonster.sol\":4887:4909  structUser_[_receiver] */\n      0xffffffffffffffffffffffffffffffffffffffff\n      and\n      0xffffffffffffffffffffffffffffffffffffffff\n      and\n      dup2\n      mstore\n      0x20\n      add\n      swap1\n      dup2\n      mstore\n      0x20\n      add\n      0x00\n      keccak256\n        /* \"Documents/GitHub/contract-token-cryptoMonster/backend/components/CryptoMonster.sol\":4887:4918  structUser_[_receiver].balances */\n      0x03\n      add\n      sload\n        /* \"Documents/GitHub/contract-token-cryptoMonster/backend/components/CryptoMonster.sol\":4887:4922  structUser_[_receiver].balances.add */\n      tag_87\n      swap1\n        /* \"Documents/GitHub/contract-token-cryptoMonster/backend/components/CryptoMonster.sol\":4887:4934  structUser_[_receiver].balances.add(_numTokens) */\n      swap2\n      swap1\n      0xffffffff\n      and\n      jump\t// in\n    tag_106:\n        /* \"Documents/GitHub/contract-token-cryptoMonster/backend/components/CryptoMonster.sol\":4853:4864  structUser_ */\n      0x00\n        /* \"Documents/GitHub/contract-token-cryptoMonster/backend/components/CryptoMonster.sol\":4853:4875  structUser_[_receiver] */\n      dup1\n        /* \"Documents/GitHub/contract-token-cryptoMonster/backend/components/CryptoMonster.sol\":4865:4874  _receiver */\n      dup6\n        /* \"Documents/GitHub/contract-token-cryptoMonster/backend/components/CryptoMonster.sol\":4853:4875  structUser_[_receiver] */\n      0xffffffffffffffffffffffffffffffffffffffff\n      and\n      0xffffffffffffffffffffffffffffffffffffffff\n      and\n      dup2\n      mstore\n      0x20\n      add\n      swap1\n      dup2\n      mstore\n      0x20\n      add\n      0x00\n      keccak256\n        /* \"Documents/GitHub/contract-token-cryptoMonster/backend/components/CryptoMonster.sol\":4853:4884  structUser_[_receiver].balances */\n      0x03\n      add\n        /* \"Documents/GitHub/contract-token-cryptoMonster/backend/components/CryptoMonster.sol\":4853:4934  structUser_[_receiver].balances = structUser_[_receiver].balances.add(_numTokens) */\n      dup2\n      swap1\n      sstore\n      pop\n        /* \"Documents/GitHub/contract-token-cryptoMonster/backend/components/CryptoMonster.sol\":5030:5039  _receiver */\n      dup3\n        /* \"Documents/GitHub/contract-token-cryptoMonster/backend/components/CryptoMonster.sol\":5009:5052  Transfer(msg.sender, _receiver, _numTokens) */\n      0xffffffffffffffffffffffffffffffffffffffff\n      and\n        /* \"Documents/GitHub/contract-token-cryptoMonster/backend/components/CryptoMonster.sol\":5018:5028  msg.sender */\n      caller\n        /* \"Documents/GitHub/contract-token-cryptoMonster/backend/components/CryptoMonster.sol\":5009:5052  Transfer(msg.sender, _receiver, _numTokens) */\n      0xffffffffffffffffffffffffffffffffffffffff\n      and\n      0xddf252ad1be2c89b69c2b068fc378daa952ba7f163c4a11628f55a4df523b3ef\n        /* \"Documents/GitHub/contract-token-cryptoMonster/backend/components/CryptoMonster.sol\":5041:5051  _numTokens */\n      dup5\n        /* \"Documents/GitHub/contract-token-cryptoMonster/backend/components/CryptoMonster.sol\":5009:5052  Transfer(msg.sender, _receiver, _numTokens) */\n      mload(0x40)\n      tag_107\n      swap2\n      swap1\n      tag_26\n      jump\t// in\n    tag_107:\n      mload(0x40)\n      dup1\n      swap2\n      sub\n      swap1\n      log3\n        /* \"Documents/GitHub/contract-token-cryptoMonster/backend/components/CryptoMonster.sol\":5185:5189  true */\n      0x01\n        /* \"Documents/GitHub/contract-token-cryptoMonster/backend/components/CryptoMonster.sol\":5178:5189  return true */\n      swap1\n      pop\n        /* \"Documents/GitHub/contract-token-cryptoMonster/backend/components/CryptoMonster.sol\":4482:5197  function transfer(address _receiver, uint256 _numTokens) public override returns (bool) {\r... */\n      swap3\n      swap2\n      pop\n      pop\n      jump\t// out\n        /* \"Documents/GitHub/contract-token-cryptoMonster/backend/components/CryptoMonster.sol\":3019:3409  function buy(uint256 _amount) external payable {\r... */\n    tag_79:\n        /* \"Documents/GitHub/contract-token-cryptoMonster/backend/components/CryptoMonster.sol\":1215:1225  1000000000 */\n      0x3b9aca00\n        /* \"Documents/GitHub/contract-token-cryptoMonster/backend/components/CryptoMonster.sol\":3242:3249  _amount */\n      dup2\n        /* \"Documents/GitHub/contract-token-cryptoMonster/backend/components/CryptoMonster.sol\":3242:3263  _amount * tokenPrice_ */\n      tag_109\n      swap2\n      swap1\n      tag_110\n      jump\t// in\n    tag_109:\n        /* \"Documents/GitHub/contract-token-cryptoMonster/backend/components/CryptoMonster.sol\":3229:3238  msg.value */\n      callvalue\n        /* \"Documents/GitHub/contract-token-cryptoMonster/backend/components/CryptoMonster.sol\":3229:3263  msg.value == _amount * tokenPrice_ */\n      eq\n        /* \"Documents/GitHub/contract-token-cryptoMonster/backend/components/CryptoMonster.sol\":3221:3300  require(msg.value == _amount * tokenPrice_, 'Need to send exact amount of wei') */\n      tag_111\n      jumpi\n      mload(0x40)\n      0x08c379a000000000000000000000000000000000000000000000000000000000\n      dup2\n      mstore\n      0x04\n      add\n      tag_112\n      swap1\n      tag_113\n      jump\t// in\n    tag_112:\n      mload(0x40)\n      dup1\n      swap2\n      sub\n      swap1\n      revert\n    tag_111:\n        /* \"Documents/GitHub/contract-token-cryptoMonster/backend/components/CryptoMonster.sol\":3356:3401  structUser_[msg.sender].balances.add(_amount) */\n      tag_114\n        /* \"Documents/GitHub/contract-token-cryptoMonster/backend/components/CryptoMonster.sol\":3393:3400  _amount */\n      dup2\n        /* \"Documents/GitHub/contract-token-cryptoMonster/backend/components/CryptoMonster.sol\":3356:3367  structUser_ */\n      0x00\n        /* \"Documents/GitHub/contract-token-cryptoMonster/backend/components/CryptoMonster.sol\":3356:3379  structUser_[msg.sender] */\n      dup1\n        /* \"Documents/GitHub/contract-token-cryptoMonster/backend/components/CryptoMonster.sol\":3368:3378  msg.sender */\n      caller\n        /* \"Documents/GitHub/contract-token-cryptoMonster/backend/components/CryptoMonster.sol\":3356:3379  structUser_[msg.sender] */\n      0xffffffffffffffffffffffffffffffffffffffff\n      and\n      0xffffffffffffffffffffffffffffffffffffffff\n      and\n      dup2\n      mstore\n      0x20\n      add\n      swap1\n      dup2\n      mstore\n      0x20\n      add\n      0x00\n      keccak256\n        /* \"Documents/GitHub/contract-token-cryptoMonster/backend/components/CryptoMonster.sol\":3356:3388  structUser_[msg.sender].balances */\n      0x03\n      add\n      sload\n        /* \"Documents/GitHub/contract-token-cryptoMonster/backend/components/CryptoMonster.sol\":3356:3392  structUser_[msg.sender].balances.add */\n      tag_87\n      swap1\n        /* \"Documents/GitHub/contract-token-cryptoMonster/backend/components/CryptoMonster.sol\":3356:3401  structUser_[msg.sender].balances.add(_amount) */\n      swap2\n      swap1\n      0xffffffff\n      and\n      jump\t// in\n    tag_114:\n        /* \"Documents/GitHub/contract-token-cryptoMonster/backend/components/CryptoMonster.sol\":3321:3332  structUser_ */\n      0x00\n        /* \"Documents/GitHub/contract-token-cryptoMonster/backend/components/CryptoMonster.sol\":3321:3344  structUser_[msg.sender] */\n      dup1\n        /* \"Documents/GitHub/contract-token-cryptoMonster/backend/components/CryptoMonster.sol\":3333:3343  msg.sender */\n      caller\n        /* \"Documents/GitHub/contract-token-cryptoMonster/backend/components/CryptoMonster.sol\":3321:3344  structUser_[msg.sender] */\n      0xffffffffffffffffffffffffffffffffffffffff\n      and\n      0xffffffffffffffffffffffffffffffffffffffff\n      and\n      dup2\n      mstore\n      0x20\n      add\n      swap1\n      dup2\n      mstore\n      0x20\n      add\n      0x00\n      keccak256\n        /* \"Documents/GitHub/contract-token-cryptoMonster/backend/components/CryptoMonster.sol\":3321:3353  structUser_[msg.sender].balances */\n      0x03\n      add\n        /* \"Documents/GitHub/contract-token-cryptoMonster/backend/components/CryptoMonster.sol\":3321:3401  structUser_[msg.sender].balances = structUser_[msg.sender].balances.add(_amount) */\n      dup2\n      swap1\n      sstore\n      pop\n        /* \"Documents/GitHub/contract-token-cryptoMonster/backend/components/CryptoMonster.sol\":3019:3409  function buy(uint256 _amount) external payable {\r... */\n      pop\n      jump\t// out\n        /* \"Documents/GitHub/contract-token-cryptoMonster/backend/components/CryptoMonster.sol\":7313:7455  function allowance(address _owner, address _delegate) public override view returns (uint) {\r... */\n    tag_84:\n        /* \"Documents/GitHub/contract-token-cryptoMonster/backend/components/CryptoMonster.sol\":7397:7401  uint */\n      0x00\n        /* \"Documents/GitHub/contract-token-cryptoMonster/backend/components/CryptoMonster.sol\":7421:7428  allowed */\n      0x04\n        /* \"Documents/GitHub/contract-token-cryptoMonster/backend/components/CryptoMonster.sol\":7421:7436  allowed[_owner] */\n      0x00\n        /* \"Documents/GitHub/contract-token-cryptoMonster/backend/components/CryptoMonster.sol\":7429:7435  _owner */\n      dup5\n        /* \"Documents/GitHub/contract-token-cryptoMonster/backend/components/CryptoMonster.sol\":7421:7436  allowed[_owner] */\n      0xffffffffffffffffffffffffffffffffffffffff\n      and\n      0xffffffffffffffffffffffffffffffffffffffff\n      and\n      dup2\n      mstore\n      0x20\n      add\n      swap1\n      dup2\n      mstore\n      0x20\n      add\n      0x00\n      keccak256\n        /* \"Documents/GitHub/contract-token-cryptoMonster/backend/components/CryptoMonster.sol\":7421:7447  allowed[_owner][_delegate] */\n      0x00\n        /* \"Documents/GitHub/contract-token-cryptoMonster/backend/components/CryptoMonster.sol\":7437:7446  _delegate */\n      dup4\n        /* \"Documents/GitHub/contract-token-cryptoMonster/backend/components/CryptoMonster.sol\":7421:7447  allowed[_owner][_delegate] */\n      0xffffffffffffffffffffffffffffffffffffffff\n      and\n      0xffffffffffffffffffffffffffffffffffffffff\n      and\n      dup2\n      mstore\n      0x20\n      add\n      swap1\n      dup2\n      mstore\n      0x20\n      add\n      0x00\n      keccak256\n      sload\n        /* \"Documents/GitHub/contract-token-cryptoMonster/backend/components/CryptoMonster.sol\":7414:7447  return allowed[_owner][_delegate] */\n      swap1\n      pop\n        /* \"Documents/GitHub/contract-token-cryptoMonster/backend/components/CryptoMonster.sol\":7313:7455  function allowance(address _owner, address _delegate) public override view returns (uint) {\r... */\n      swap3\n      swap2\n      pop\n      pop\n      jump\t// out\n        /* \"Documents/GitHub/contract-token-cryptoMonster/backend/shared/lib/SafeMath.sol\":2846:2965  function sub(uint256 a, uint256 b) internal pure returns (uint256) {\r... */\n    tag_86:\n        /* \"Documents/GitHub/contract-token-cryptoMonster/backend/shared/lib/SafeMath.sol\":2904:2911  uint256 */\n      0x00\n        /* \"Documents/GitHub/contract-token-cryptoMonster/backend/shared/lib/SafeMath.sol\":2934:2935  a */\n      dup3\n        /* \"Documents/GitHub/contract-token-cryptoMonster/backend/shared/lib/SafeMath.sol\":2929:2930  b */\n      dup3\n        /* \"Documents/GitHub/contract-token-cryptoMonster/backend/shared/lib/SafeMath.sol\":2929:2935  b <= a */\n      gt\n      iszero\n        /* \"Documents/GitHub/contract-token-cryptoMonster/backend/shared/lib/SafeMath.sol\":2922:2936  assert(b <= a) */\n      tag_117\n      jumpi\n      tag_118\n      tag_119\n      jump\t// in\n    tag_118:\n    tag_117:\n        /* \"Documents/GitHub/contract-token-cryptoMonster/backend/shared/lib/SafeMath.sol\":2956:2957  b */\n      dup2\n        /* \"Documents/GitHub/contract-token-cryptoMonster/backend/shared/lib/SafeMath.sol\":2952:2953  a */\n      dup4\n        /* \"Documents/GitHub/contract-token-cryptoMonster/backend/shared/lib/SafeMath.sol\":2952:2957  a - b */\n      tag_120\n      swap2\n      swap1\n      tag_121\n      jump\t// in\n    tag_120:\n        /* \"Documents/GitHub/contract-token-cryptoMonster/backend/shared/lib/SafeMath.sol\":2945:2957  return a - b */\n      swap1\n      pop\n        /* \"Documents/GitHub/contract-token-cryptoMonster/backend/shared/lib/SafeMath.sol\":2846:2965  function sub(uint256 a, uint256 b) internal pure returns (uint256) {\r... */\n      swap3\n      swap2\n      pop\n      pop\n      jump\t// out\n        /* \"Documents/GitHub/contract-token-cryptoMonster/backend/shared/lib/SafeMath.sol\":2422:2563  function add(uint256 a, uint256 b) internal pure returns (uint256) {\r... */\n    tag_87:\n        /* \"Documents/GitHub/contract-token-cryptoMonster/backend/shared/lib/SafeMath.sol\":2480:2487  uint256 */\n      0x00\n        /* \"Documents/GitHub/contract-token-cryptoMonster/backend/shared/lib/SafeMath.sol\":2498:2507  uint256 c */\n      dup1\n        /* \"Documents/GitHub/contract-token-cryptoMonster/backend/shared/lib/SafeMath.sol\":2514:2515  b */\n      dup3\n        /* \"Documents/GitHub/contract-token-cryptoMonster/backend/shared/lib/SafeMath.sol\":2510:2511  a */\n      dup5\n        /* \"Documents/GitHub/contract-token-cryptoMonster/backend/shared/lib/SafeMath.sol\":2510:2515  a + b */\n      tag_123\n      swap2\n      swap1\n      tag_124\n      jump\t// in\n    tag_123:\n        /* \"Documents/GitHub/contract-token-cryptoMonster/backend/shared/lib/SafeMath.sol\":2498:2515  uint256 c = a + b */\n      swap1\n      pop\n        /* \"Documents/GitHub/contract-token-cryptoMonster/backend/shared/lib/SafeMath.sol\":2536:2537  a */\n      dup4\n        /* \"Documents/GitHub/contract-token-cryptoMonster/backend/shared/lib/SafeMath.sol\":2531:2532  c */\n      dup2\n        /* \"Documents/GitHub/contract-token-cryptoMonster/backend/shared/lib/SafeMath.sol\":2531:2537  c >= a */\n      lt\n      iszero\n        /* \"Documents/GitHub/contract-token-cryptoMonster/backend/shared/lib/SafeMath.sol\":2524:2538  assert(c >= a) */\n      tag_125\n      jumpi\n      tag_126\n      tag_119\n      jump\t// in\n    tag_126:\n    tag_125:\n        /* \"Documents/GitHub/contract-token-cryptoMonster/backend/shared/lib/SafeMath.sol\":2554:2555  c */\n      dup1\n        /* \"Documents/GitHub/contract-token-cryptoMonster/backend/shared/lib/SafeMath.sol\":2547:2555  return c */\n      swap2\n      pop\n      pop\n        /* \"Documents/GitHub/contract-token-cryptoMonster/backend/shared/lib/SafeMath.sol\":2422:2563  function add(uint256 a, uint256 b) internal pure returns (uint256) {\r... */\n      swap3\n      swap2\n      pop\n      pop\n      jump\t// out\n        /* \"#utility.yul\":7:419   */\n    tag_128:\n        /* \"#utility.yul\":85:90   */\n      0x00\n        /* \"#utility.yul\":110:176   */\n      tag_130\n        /* \"#utility.yul\":126:175   */\n      tag_131\n        /* \"#utility.yul\":168:174   */\n      dup5\n        /* \"#utility.yul\":126:175   */\n      tag_132\n      jump\t// in\n    tag_131:\n        /* \"#utility.yul\":110:176   */\n      tag_133\n      jump\t// in\n    tag_130:\n        /* \"#utility.yul\":101:176   */\n      swap1\n      pop\n        /* \"#utility.yul\":199:205   */\n      dup3\n        /* \"#utility.yul\":192:197   */\n      dup2\n        /* \"#utility.yul\":185:206   */\n      mstore\n        /* \"#utility.yul\":237:241   */\n      0x20\n        /* \"#utility.yul\":230:235   */\n      dup2\n        /* \"#utility.yul\":226:242   */\n      add\n        /* \"#utility.yul\":275:278   */\n      dup5\n        /* \"#utility.yul\":266:272   */\n      dup5\n        /* \"#utility.yul\":261:264   */\n      dup5\n        /* \"#utility.yul\":257:273   */\n      add\n        /* \"#utility.yul\":254:279   */\n      gt\n        /* \"#utility.yul\":251:363   */\n      iszero\n      tag_134\n      jumpi\n        /* \"#utility.yul\":282:361   */\n      tag_135\n      tag_136\n      jump\t// in\n    tag_135:\n        /* \"#utility.yul\":251:363   */\n    tag_134:\n        /* \"#utility.yul\":372:413   */\n      tag_137\n        /* \"#utility.yul\":406:412   */\n      dup5\n        /* \"#utility.yul\":401:404   */\n      dup3\n        /* \"#utility.yul\":396:399   */\n      dup6\n        /* \"#utility.yul\":372:413   */\n      tag_138\n      jump\t// in\n    tag_137:\n        /* \"#utility.yul\":91:419   */\n      pop\n        /* \"#utility.yul\":7:419   */\n      swap4\n      swap3\n      pop\n      pop\n      pop\n      jump\t// out\n        /* \"#utility.yul\":425:564   */\n    tag_139:\n        /* \"#utility.yul\":471:476   */\n      0x00\n        /* \"#utility.yul\":509:515   */\n      dup2\n        /* \"#utility.yul\":496:516   */\n      calldataload\n        /* \"#utility.yul\":487:516   */\n      swap1\n      pop\n        /* \"#utility.yul\":525:558   */\n      tag_141\n        /* \"#utility.yul\":552:557   */\n      dup2\n        /* \"#utility.yul\":525:558   */\n      tag_142\n      jump\t// in\n    tag_141:\n        /* \"#utility.yul\":425:564   */\n      swap3\n      swap2\n      pop\n      pop\n      jump\t// out\n        /* \"#utility.yul\":584:924   */\n    tag_143:\n        /* \"#utility.yul\":640:645   */\n      0x00\n        /* \"#utility.yul\":689:692   */\n      dup3\n        /* \"#utility.yul\":682:686   */\n      0x1f\n        /* \"#utility.yul\":674:680   */\n      dup4\n        /* \"#utility.yul\":670:687   */\n      add\n        /* \"#utility.yul\":666:693   */\n      slt\n        /* \"#utility.yul\":656:778   */\n      tag_145\n      jumpi\n        /* \"#utility.yul\":697:776   */\n      tag_146\n      tag_147\n      jump\t// in\n    tag_146:\n        /* \"#utility.yul\":656:778   */\n    tag_145:\n        /* \"#utility.yul\":814:820   */\n      dup2\n        /* \"#utility.yul\":801:821   */\n      calldataload\n        /* \"#utility.yul\":839:918   */\n      tag_148\n        /* \"#utility.yul\":914:917   */\n      dup5\n        /* \"#utility.yul\":906:912   */\n      dup3\n        /* \"#utility.yul\":899:903   */\n      0x20\n        /* \"#utility.yul\":891:897   */\n      dup7\n        /* \"#utility.yul\":887:904   */\n      add\n        /* \"#utility.yul\":839:918   */\n      tag_128\n      jump\t// in\n    tag_148:\n        /* \"#utility.yul\":830:918   */\n      swap2\n      pop\n        /* \"#utility.yul\":646:924   */\n      pop\n        /* \"#utility.yul\":584:924   */\n      swap3\n      swap2\n      pop\n      pop\n      jump\t// out\n        /* \"#utility.yul\":930:1069   */\n    tag_149:\n        /* \"#utility.yul\":976:981   */\n      0x00\n        /* \"#utility.yul\":1014:1020   */\n      dup2\n        /* \"#utility.yul\":1001:1021   */\n      calldataload\n        /* \"#utility.yul\":992:1021   */\n      swap1\n      pop\n        /* \"#utility.yul\":1030:1063   */\n      tag_151\n        /* \"#utility.yul\":1057:1062   */\n      dup2\n        /* \"#utility.yul\":1030:1063   */\n      tag_152\n      jump\t// in\n    tag_151:\n        /* \"#utility.yul\":930:1069   */\n      swap3\n      swap2\n      pop\n      pop\n      jump\t// out\n        /* \"#utility.yul\":1075:1404   */\n    tag_52:\n        /* \"#utility.yul\":1134:1140   */\n      0x00\n        /* \"#utility.yul\":1183:1185   */\n      0x20\n        /* \"#utility.yul\":1171:1180   */\n      dup3\n        /* \"#utility.yul\":1162:1169   */\n      dup5\n        /* \"#utility.yul\":1158:1181   */\n      sub\n        /* \"#utility.yul\":1154:1186   */\n      slt\n        /* \"#utility.yul\":1151:1270   */\n      iszero\n      tag_154\n      jumpi\n        /* \"#utility.yul\":1189:1268   */\n      tag_155\n      tag_156\n      jump\t// in\n    tag_155:\n        /* \"#utility.yul\":1151:1270   */\n    tag_154:\n        /* \"#utility.yul\":1309:1310   */\n      0x00\n        /* \"#utility.yul\":1334:1387   */\n      tag_157\n        /* \"#utility.yul\":1379:1386   */\n      dup5\n        /* \"#utility.yul\":1370:1376   */\n      dup3\n        /* \"#utility.yul\":1359:1368   */\n      dup6\n        /* \"#utility.yul\":1355:1377   */\n      add\n        /* \"#utility.yul\":1334:1387   */\n      tag_139\n      jump\t// in\n    tag_157:\n        /* \"#utility.yul\":1324:1387   */\n      swap2\n      pop\n        /* \"#utility.yul\":1280:1397   */\n      pop\n        /* \"#utility.yul\":1075:1404   */\n      swap3\n      swap2\n      pop\n      pop\n      jump\t// out\n        /* \"#utility.yul\":1410:1884   */\n    tag_83:\n        /* \"#utility.yul\":1478:1484   */\n      0x00\n        /* \"#utility.yul\":1486:1492   */\n      dup1\n        /* \"#utility.yul\":1535:1537   */\n      0x40\n        /* \"#utility.yul\":1523:1532   */\n      dup4\n        /* \"#utility.yul\":1514:1521   */\n      dup6\n        /* \"#utility.yul\":1510:1533   */\n      sub\n        /* \"#utility.yul\":1506:1538   */\n      slt\n        /* \"#utility.yul\":1503:1622   */\n      iszero\n      tag_159\n      jumpi\n        /* \"#utility.yul\":1541:1620   */\n      tag_160\n      tag_156\n      jump\t// in\n    tag_160:\n        /* \"#utility.yul\":1503:1622   */\n    tag_159:\n        /* \"#utility.yul\":1661:1662   */\n      0x00\n        /* \"#utility.yul\":1686:1739   */\n      tag_161\n        /* \"#utility.yul\":1731:1738   */\n      dup6\n        /* \"#utility.yul\":1722:1728   */\n      dup3\n        /* \"#utility.yul\":1711:1720   */\n      dup7\n        /* \"#utility.yul\":1707:1729   */\n      add\n        /* \"#utility.yul\":1686:1739   */\n      tag_139\n      jump\t// in\n    tag_161:\n        /* \"#utility.yul\":1676:1739   */\n      swap3\n      pop\n        /* \"#utility.yul\":1632:1749   */\n      pop\n        /* \"#utility.yul\":1788:1790   */\n      0x20\n        /* \"#utility.yul\":1814:1867   */\n      tag_162\n        /* \"#utility.yul\":1859:1866   */\n      dup6\n        /* \"#utility.yul\":1850:1856   */\n      dup3\n        /* \"#utility.yul\":1839:1848   */\n      dup7\n        /* \"#utility.yul\":1835:1857   */\n      add\n        /* \"#utility.yul\":1814:1867   */\n      tag_139\n      jump\t// in\n    tag_162:\n        /* \"#utility.yul\":1804:1867   */\n      swap2\n      pop\n        /* \"#utility.yul\":1759:1877   */\n      pop\n        /* \"#utility.yul\":1410:1884   */\n      swap3\n      pop\n      swap3\n      swap1\n      pop\n      jump\t// out\n        /* \"#utility.yul\":1890:2509   */\n    tag_41:\n        /* \"#utility.yul\":1967:1973   */\n      0x00\n        /* \"#utility.yul\":1975:1981   */\n      dup1\n        /* \"#utility.yul\":1983:1989   */\n      0x00\n        /* \"#utility.yul\":2032:2034   */\n      0x60\n        /* \"#utility.yul\":2020:2029   */\n      dup5\n        /* \"#utility.yul\":2011:2018   */\n      dup7\n        /* \"#utility.yul\":2007:2030   */\n      sub\n        /* \"#utility.yul\":2003:2035   */\n      slt\n        /* \"#utility.yul\":2000:2119   */\n      iszero\n      tag_164\n      jumpi\n        /* \"#utility.yul\":2038:2117   */\n      tag_165\n      tag_156\n      jump\t// in\n    tag_165:\n        /* \"#utility.yul\":2000:2119   */\n    tag_164:\n        /* \"#utility.yul\":2158:2159   */\n      0x00\n        /* \"#utility.yul\":2183:2236   */\n      tag_166\n        /* \"#utility.yul\":2228:2235   */\n      dup7\n        /* \"#utility.yul\":2219:2225   */\n      dup3\n        /* \"#utility.yul\":2208:2217   */\n      dup8\n        /* \"#utility.yul\":2204:2226   */\n      add\n        /* \"#utility.yul\":2183:2236   */\n      tag_139\n      jump\t// in\n    tag_166:\n        /* \"#utility.yul\":2173:2236   */\n      swap4\n      pop\n        /* \"#utility.yul\":2129:2246   */\n      pop\n        /* \"#utility.yul\":2285:2287   */\n      0x20\n        /* \"#utility.yul\":2311:2364   */\n      tag_167\n        /* \"#utility.yul\":2356:2363   */\n      dup7\n        /* \"#utility.yul\":2347:2353   */\n      dup3\n        /* \"#utility.yul\":2336:2345   */\n      dup8\n        /* \"#utility.yul\":2332:2354   */\n      add\n        /* \"#utility.yul\":2311:2364   */\n      tag_139\n      jump\t// in\n    tag_167:\n        /* \"#utility.yul\":2301:2364   */\n      swap3\n      pop\n        /* \"#utility.yul\":2256:2374   */\n      pop\n        /* \"#utility.yul\":2413:2415   */\n      0x40\n        /* \"#utility.yul\":2439:2492   */\n      tag_168\n        /* \"#utility.yul\":2484:2491   */\n      dup7\n        /* \"#utility.yul\":2475:2481   */\n      dup3\n        /* \"#utility.yul\":2464:2473   */\n      dup8\n        /* \"#utility.yul\":2460:2482   */\n      add\n        /* \"#utility.yul\":2439:2492   */\n      tag_149\n      jump\t// in\n    tag_168:\n        /* \"#utility.yul\":2429:2492   */\n      swap2\n      pop\n        /* \"#utility.yul\":2384:2502   */\n      pop\n        /* \"#utility.yul\":1890:2509   */\n      swap3\n      pop\n      swap3\n      pop\n      swap3\n      jump\t// out\n        /* \"#utility.yul\":2515:2989   */\n    tag_30:\n        /* \"#utility.yul\":2583:2589   */\n      0x00\n        /* \"#utility.yul\":2591:2597   */\n      dup1\n        /* \"#utility.yul\":2640:2642   */\n      0x40\n        /* \"#utility.yul\":2628:2637   */\n      dup4\n        /* \"#utility.yul\":2619:2626   */\n      dup6\n        /* \"#utility.yul\":2615:2638   */\n      sub\n        /* \"#utility.yul\":2611:2643   */\n      slt\n        /* \"#utility.yul\":2608:2727   */\n      iszero\n      tag_170\n      jumpi\n        /* \"#utility.yul\":2646:2725   */\n      tag_171\n      tag_156\n      jump\t// in\n    tag_171:\n        /* \"#utility.yul\":2608:2727   */\n    tag_170:\n        /* \"#utility.yul\":2766:2767   */\n      0x00\n        /* \"#utility.yul\":2791:2844   */\n      tag_172\n        /* \"#utility.yul\":2836:2843   */\n      dup6\n        /* \"#utility.yul\":2827:2833   */\n      dup3\n        /* \"#utility.yul\":2816:2825   */\n      dup7\n        /* \"#utility.yul\":2812:2834   */\n      add\n        /* \"#utility.yul\":2791:2844   */\n      tag_139\n      jump\t// in\n    tag_172:\n        /* \"#utility.yul\":2781:2844   */\n      swap3\n      pop\n        /* \"#utility.yul\":2737:2854   */\n      pop\n        /* \"#utility.yul\":2893:2895   */\n      0x20\n        /* \"#utility.yul\":2919:2972   */\n      tag_173\n        /* \"#utility.yul\":2964:2971   */\n      dup6\n        /* \"#utility.yul\":2955:2961   */\n      dup3\n        /* \"#utility.yul\":2944:2953   */\n      dup7\n        /* \"#utility.yul\":2940:2962   */\n      add\n        /* \"#utility.yul\":2919:2972   */\n      tag_149\n      jump\t// in\n    tag_173:\n        /* \"#utility.yul\":2909:2972   */\n      swap2\n      pop\n        /* \"#utility.yul\":2864:2982   */\n      pop\n        /* \"#utility.yul\":2515:2989   */\n      swap3\n      pop\n      swap3\n      swap1\n      pop\n      jump\t// out\n        /* \"#utility.yul\":2995:3504   */\n    tag_63:\n        /* \"#utility.yul\":3064:3070   */\n      0x00\n        /* \"#utility.yul\":3113:3115   */\n      0x20\n        /* \"#utility.yul\":3101:3110   */\n      dup3\n        /* \"#utility.yul\":3092:3099   */\n      dup5\n        /* \"#utility.yul\":3088:3111   */\n      sub\n        /* \"#utility.yul\":3084:3116   */\n      slt\n        /* \"#utility.yul\":3081:3200   */\n      iszero\n      tag_175\n      jumpi\n        /* \"#utility.yul\":3119:3198   */\n      tag_176\n      tag_156\n      jump\t// in\n    tag_176:\n        /* \"#utility.yul\":3081:3200   */\n    tag_175:\n        /* \"#utility.yul\":3267:3268   */\n      0x00\n        /* \"#utility.yul\":3256:3265   */\n      dup3\n        /* \"#utility.yul\":3252:3269   */\n      add\n        /* \"#utility.yul\":3239:3270   */\n      calldataload\n        /* \"#utility.yul\":3297:3315   */\n      0xffffffffffffffff\n        /* \"#utility.yul\":3289:3295   */\n      dup2\n        /* \"#utility.yul\":3286:3316   */\n      gt\n        /* \"#utility.yul\":3283:3400   */\n      iszero\n      tag_177\n      jumpi\n        /* \"#utility.yul\":3319:3398   */\n      tag_178\n      tag_179\n      jump\t// in\n    tag_178:\n        /* \"#utility.yul\":3283:3400   */\n    tag_177:\n        /* \"#utility.yul\":3424:3487   */\n      tag_180\n        /* \"#utility.yul\":3479:3486   */\n      dup5\n        /* \"#utility.yul\":3470:3476   */\n      dup3\n        /* \"#utility.yul\":3459:3468   */\n      dup6\n        /* \"#utility.yul\":3455:3477   */\n      add\n        /* \"#utility.yul\":3424:3487   */\n      tag_143\n      jump\t// in\n    tag_180:\n        /* \"#utility.yul\":3414:3487   */\n      swap2\n      pop\n        /* \"#utility.yul\":3210:3497   */\n      pop\n        /* \"#utility.yul\":2995:3504   */\n      swap3\n      swap2\n      pop\n      pop\n      jump\t// out\n        /* \"#utility.yul\":3510:4489   */\n    tag_58:\n        /* \"#utility.yul\":3607:3613   */\n      0x00\n        /* \"#utility.yul\":3615:3621   */\n      dup1\n        /* \"#utility.yul\":3623:3629   */\n      0x00\n        /* \"#utility.yul\":3672:3674   */\n      0x60\n        /* \"#utility.yul\":3660:3669   */\n      dup5\n        /* \"#utility.yul\":3651:3658   */\n      dup7\n        /* \"#utility.yul\":3647:3670   */\n      sub\n        /* \"#utility.yul\":3643:3675   */\n      slt\n        /* \"#utility.yul\":3640:3759   */\n      iszero\n      tag_182\n      jumpi\n        /* \"#utility.yul\":3678:3757   */\n      tag_183\n      tag_156\n      jump\t// in\n    tag_183:\n        /* \"#utility.yul\":3640:3759   */\n    tag_182:\n        /* \"#utility.yul\":3826:3827   */\n      0x00\n        /* \"#utility.yul\":3815:3824   */\n      dup5\n        /* \"#utility.yul\":3811:3828   */\n      add\n        /* \"#utility.yul\":3798:3829   */\n      calldataload\n        /* \"#utility.yul\":3856:3874   */\n      0xffffffffffffffff\n        /* \"#utility.yul\":3848:3854   */\n      dup2\n        /* \"#utility.yul\":3845:3875   */\n      gt\n        /* \"#utility.yul\":3842:3959   */\n      iszero\n      tag_184\n      jumpi\n        /* \"#utility.yul\":3878:3957   */\n      tag_185\n      tag_179\n      jump\t// in\n    tag_185:\n        /* \"#utility.yul\":3842:3959   */\n    tag_184:\n        /* \"#utility.yul\":3983:4046   */\n      tag_186\n        /* \"#utility.yul\":4038:4045   */\n      dup7\n        /* \"#utility.yul\":4029:4035   */\n      dup3\n        /* \"#utility.yul\":4018:4027   */\n      dup8\n        /* \"#utility.yul\":4014:4036   */\n      add\n        /* \"#utility.yul\":3983:4046   */\n      tag_143\n      jump\t// in\n    tag_186:\n        /* \"#utility.yul\":3973:4046   */\n      swap4\n      pop\n        /* \"#utility.yul\":3769:4056   */\n      pop\n        /* \"#utility.yul\":4123:4125   */\n      0x20\n        /* \"#utility.yul\":4112:4121   */\n      dup5\n        /* \"#utility.yul\":4108:4126   */\n      add\n        /* \"#utility.yul\":4095:4127   */\n      calldataload\n        /* \"#utility.yul\":4154:4172   */\n      0xffffffffffffffff\n        /* \"#utility.yul\":4146:4152   */\n      dup2\n        /* \"#utility.yul\":4143:4173   */\n      gt\n        /* \"#utility.yul\":4140:4257   */\n      iszero\n      tag_187\n      jumpi\n        /* \"#utility.yul\":4176:4255   */\n      tag_188\n      tag_179\n      jump\t// in\n    tag_188:\n        /* \"#utility.yul\":4140:4257   */\n    tag_187:\n        /* \"#utility.yul\":4281:4344   */\n      tag_189\n        /* \"#utility.yul\":4336:4343   */\n      dup7\n        /* \"#utility.yul\":4327:4333   */\n      dup3\n        /* \"#utility.yul\":4316:4325   */\n      dup8\n        /* \"#utility.yul\":4312:4334   */\n      add\n        /* \"#utility.yul\":4281:4344   */\n      tag_143\n      jump\t// in\n    tag_189:\n        /* \"#utility.yul\":4271:4344   */\n      swap3\n      pop\n        /* \"#utility.yul\":4066:4354   */\n      pop\n        /* \"#utility.yul\":4393:4395   */\n      0x40\n        /* \"#utility.yul\":4419:4472   */\n      tag_190\n        /* \"#utility.yul\":4464:4471   */\n      dup7\n        /* \"#utility.yul\":4455:4461   */\n      dup3\n        /* \"#utility.yul\":4444:4453   */\n      dup8\n        /* \"#utility.yul\":4440:4462   */\n      add\n        /* \"#utility.yul\":4419:4472   */\n      tag_139\n      jump\t// in\n    tag_190:\n        /* \"#utility.yul\":4409:4472   */\n      swap2\n      pop\n        /* \"#utility.yul\":4364:4482   */\n      pop\n        /* \"#utility.yul\":3510:4489   */\n      swap3\n      pop\n      swap3\n      pop\n      swap3\n      jump\t// out\n        /* \"#utility.yul\":4495:4824   */\n    tag_78:\n        /* \"#utility.yul\":4554:4560   */\n      0x00\n        /* \"#utility.yul\":4603:4605   */\n      0x20\n        /* \"#utility.yul\":4591:4600   */\n      dup3\n        /* \"#utility.yul\":4582:4589   */\n      dup5\n        /* \"#utility.yul\":4578:4601   */\n      sub\n        /* \"#utility.yul\":4574:4606   */\n      slt\n        /* \"#utility.yul\":4571:4690   */\n      iszero\n      tag_192\n      jumpi\n        /* \"#utility.yul\":4609:4688   */\n      tag_193\n      tag_156\n      jump\t// in\n    tag_193:\n        /* \"#utility.yul\":4571:4690   */\n    tag_192:\n        /* \"#utility.yul\":4729:4730   */\n      0x00\n        /* \"#utility.yul\":4754:4807   */\n      tag_194\n        /* \"#utility.yul\":4799:4806   */\n      dup5\n        /* \"#utility.yul\":4790:4796   */\n      dup3\n        /* \"#utility.yul\":4779:4788   */\n      dup6\n        /* \"#utility.yul\":4775:4797   */\n      add\n        /* \"#utility.yul\":4754:4807   */\n      tag_149\n      jump\t// in\n    tag_194:\n        /* \"#utility.yul\":4744:4807   */\n      swap2\n      pop\n        /* \"#utility.yul\":4700:4817   */\n      pop\n        /* \"#utility.yul\":4495:4824   */\n      swap3\n      swap2\n      pop\n      pop\n      jump\t// out\n        /* \"#utility.yul\":4830:4939   */\n    tag_195:\n        /* \"#utility.yul\":4911:4932   */\n      tag_197\n        /* \"#utility.yul\":4926:4931   */\n      dup2\n        /* \"#utility.yul\":4911:4932   */\n      tag_198\n      jump\t// in\n    tag_197:\n        /* \"#utility.yul\":4906:4909   */\n      dup3\n        /* \"#utility.yul\":4899:4933   */\n      mstore\n        /* \"#utility.yul\":4830:4939   */\n      pop\n      pop\n      jump\t// out\n        /* \"#utility.yul\":4945:5063   */\n    tag_199:\n        /* \"#utility.yul\":5032:5056   */\n      tag_201\n        /* \"#utility.yul\":5050:5055   */\n      dup2\n        /* \"#utility.yul\":5032:5056   */\n      tag_202\n      jump\t// in\n    tag_201:\n        /* \"#utility.yul\":5027:5030   */\n      dup3\n        /* \"#utility.yul\":5020:5057   */\n      mstore\n        /* \"#utility.yul\":4945:5063   */\n      pop\n      pop\n      jump\t// out\n        /* \"#utility.yul\":5069:5433   */\n    tag_203:\n        /* \"#utility.yul\":5157:5160   */\n      0x00\n        /* \"#utility.yul\":5185:5224   */\n      tag_205\n        /* \"#utility.yul\":5218:5223   */\n      dup3\n        /* \"#utility.yul\":5185:5224   */\n      tag_206\n      jump\t// in\n    tag_205:\n        /* \"#utility.yul\":5240:5311   */\n      tag_207\n        /* \"#utility.yul\":5304:5310   */\n      dup2\n        /* \"#utility.yul\":5299:5302   */\n      dup6\n        /* \"#utility.yul\":5240:5311   */\n      tag_208\n      jump\t// in\n    tag_207:\n        /* \"#utility.yul\":5233:5311   */\n      swap4\n      pop\n        /* \"#utility.yul\":5320:5372   */\n      tag_209\n        /* \"#utility.yul\":5365:5371   */\n      dup2\n        /* \"#utility.yul\":5360:5363   */\n      dup6\n        /* \"#utility.yul\":5353:5357   */\n      0x20\n        /* \"#utility.yul\":5346:5351   */\n      dup7\n        /* \"#utility.yul\":5342:5358   */\n      add\n        /* \"#utility.yul\":5320:5372   */\n      tag_210\n      jump\t// in\n    tag_209:\n        /* \"#utility.yul\":5397:5426   */\n      tag_211\n        /* \"#utility.yul\":5419:5425   */\n      dup2\n        /* \"#utility.yul\":5397:5426   */\n      tag_212\n      jump\t// in\n    tag_211:\n        /* \"#utility.yul\":5392:5395   */\n      dup5\n        /* \"#utility.yul\":5388:5427   */\n      add\n        /* \"#utility.yul\":5381:5427   */\n      swap2\n      pop\n        /* \"#utility.yul\":5161:5433   */\n      pop\n        /* \"#utility.yul\":5069:5433   */\n      swap3\n      swap2\n      pop\n      pop\n      jump\t// out\n        /* \"#utility.yul\":5439:5816   */\n    tag_213:\n        /* \"#utility.yul\":5545:5548   */\n      0x00\n        /* \"#utility.yul\":5573:5612   */\n      tag_215\n        /* \"#utility.yul\":5606:5611   */\n      dup3\n        /* \"#utility.yul\":5573:5612   */\n      tag_206\n      jump\t// in\n    tag_215:\n        /* \"#utility.yul\":5628:5717   */\n      tag_216\n        /* \"#utility.yul\":5710:5716   */\n      dup2\n        /* \"#utility.yul\":5705:5708   */\n      dup6\n        /* \"#utility.yul\":5628:5717   */\n      tag_217\n      jump\t// in\n    tag_216:\n        /* \"#utility.yul\":5621:5717   */\n      swap4\n      pop\n        /* \"#utility.yul\":5726:5778   */\n      tag_218\n        /* \"#utility.yul\":5771:5777   */\n      dup2\n        /* \"#utility.yul\":5766:5769   */\n      dup6\n        /* \"#utility.yul\":5759:5763   */\n      0x20\n        /* \"#utility.yul\":5752:5757   */\n      dup7\n        /* \"#utility.yul\":5748:5764   */\n      add\n        /* \"#utility.yul\":5726:5778   */\n      tag_210\n      jump\t// in\n    tag_218:\n        /* \"#utility.yul\":5803:5809   */\n      dup1\n        /* \"#utility.yul\":5798:5801   */\n      dup5\n        /* \"#utility.yul\":5794:5810   */\n      add\n        /* \"#utility.yul\":5787:5810   */\n      swap2\n      pop\n        /* \"#utility.yul\":5549:5816   */\n      pop\n        /* \"#utility.yul\":5439:5816   */\n      swap3\n      swap2\n      pop\n      pop\n      jump\t// out\n        /* \"#utility.yul\":5822:6188   */\n    tag_219:\n        /* \"#utility.yul\":5964:5967   */\n      0x00\n        /* \"#utility.yul\":5985:6052   */\n      tag_221\n        /* \"#utility.yul\":6049:6051   */\n      0x20\n        /* \"#utility.yul\":6044:6047   */\n      dup4\n        /* \"#utility.yul\":5985:6052   */\n      tag_208\n      jump\t// in\n    tag_221:\n        /* \"#utility.yul\":5978:6052   */\n      swap2\n      pop\n        /* \"#utility.yul\":6061:6154   */\n      tag_222\n        /* \"#utility.yul\":6150:6153   */\n      dup3\n        /* \"#utility.yul\":6061:6154   */\n      tag_223\n      jump\t// in\n    tag_222:\n        /* \"#utility.yul\":6179:6181   */\n      0x20\n        /* \"#utility.yul\":6174:6177   */\n      dup3\n        /* \"#utility.yul\":6170:6182   */\n      add\n        /* \"#utility.yul\":6163:6182   */\n      swap1\n      pop\n        /* \"#utility.yul\":5822:6188   */\n      swap2\n      swap1\n      pop\n      jump\t// out\n        /* \"#utility.yul\":6194:6312   */\n    tag_224:\n        /* \"#utility.yul\":6281:6305   */\n      tag_226\n        /* \"#utility.yul\":6299:6304   */\n      dup2\n        /* \"#utility.yul\":6281:6305   */\n      tag_227\n      jump\t// in\n    tag_226:\n        /* \"#utility.yul\":6276:6279   */\n      dup3\n        /* \"#utility.yul\":6269:6306   */\n      mstore\n        /* \"#utility.yul\":6194:6312   */\n      pop\n      pop\n      jump\t// out\n        /* \"#utility.yul\":6318:6430   */\n    tag_228:\n        /* \"#utility.yul\":6401:6423   */\n      tag_230\n        /* \"#utility.yul\":6417:6422   */\n      dup2\n        /* \"#utility.yul\":6401:6423   */\n      tag_231\n      jump\t// in\n    tag_230:\n        /* \"#utility.yul\":6396:6399   */\n      dup3\n        /* \"#utility.yul\":6389:6424   */\n      mstore\n        /* \"#utility.yul\":6318:6430   */\n      pop\n      pop\n      jump\t// out\n        /* \"#utility.yul\":6436:6711   */\n    tag_102:\n        /* \"#utility.yul\":6568:6571   */\n      0x00\n        /* \"#utility.yul\":6590:6685   */\n      tag_233\n        /* \"#utility.yul\":6681:6684   */\n      dup3\n        /* \"#utility.yul\":6672:6678   */\n      dup5\n        /* \"#utility.yul\":6590:6685   */\n      tag_213\n      jump\t// in\n    tag_233:\n        /* \"#utility.yul\":6583:6685   */\n      swap2\n      pop\n        /* \"#utility.yul\":6702:6705   */\n      dup2\n        /* \"#utility.yul\":6695:6705   */\n      swap1\n      pop\n        /* \"#utility.yul\":6436:6711   */\n      swap3\n      swap2\n      pop\n      pop\n      jump\t// out\n        /* \"#utility.yul\":6717:6927   */\n    tag_33:\n        /* \"#utility.yul\":6804:6808   */\n      0x00\n        /* \"#utility.yul\":6842:6844   */\n      0x20\n        /* \"#utility.yul\":6831:6840   */\n      dup3\n        /* \"#utility.yul\":6827:6845   */\n      add\n        /* \"#utility.yul\":6819:6845   */\n      swap1\n      pop\n        /* \"#utility.yul\":6855:6920   */\n      tag_235\n        /* \"#utility.yul\":6917:6918   */\n      0x00\n        /* \"#utility.yul\":6906:6915   */\n      dup4\n        /* \"#utility.yul\":6902:6919   */\n      add\n        /* \"#utility.yul\":6893:6899   */\n      dup5\n        /* \"#utility.yul\":6855:6920   */\n      tag_195\n      jump\t// in\n    tag_235:\n        /* \"#utility.yul\":6717:6927   */\n      swap3\n      swap2\n      pop\n      pop\n      jump\t// out\n        /* \"#utility.yul\":6933:7155   */\n    tag_66:\n        /* \"#utility.yul\":7026:7030   */\n      0x00\n        /* \"#utility.yul\":7064:7066   */\n      0x20\n        /* \"#utility.yul\":7053:7062   */\n      dup3\n        /* \"#utility.yul\":7049:7067   */\n      add\n        /* \"#utility.yul\":7041:7067   */\n      swap1\n      pop\n        /* \"#utility.yul\":7077:7148   */\n      tag_237\n        /* \"#utility.yul\":7145:7146   */\n      0x00\n        /* \"#utility.yul\":7134:7143   */\n      dup4\n        /* \"#utility.yul\":7130:7147   */\n      add\n        /* \"#utility.yul\":7121:7127   */\n      dup5\n        /* \"#utility.yul\":7077:7148   */\n      tag_199\n      jump\t// in\n    tag_237:\n        /* \"#utility.yul\":6933:7155   */\n      swap3\n      swap2\n      pop\n      pop\n      jump\t// out\n        /* \"#utility.yul\":7161:7474   */\n    tag_21:\n        /* \"#utility.yul\":7274:7278   */\n      0x00\n        /* \"#utility.yul\":7312:7314   */\n      0x20\n        /* \"#utility.yul\":7301:7310   */\n      dup3\n        /* \"#utility.yul\":7297:7315   */\n      add\n        /* \"#utility.yul\":7289:7315   */\n      swap1\n      pop\n        /* \"#utility.yul\":7361:7370   */\n      dup2\n        /* \"#utility.yul\":7355:7359   */\n      dup2\n        /* \"#utility.yul\":7351:7371   */\n      sub\n        /* \"#utility.yul\":7347:7348   */\n      0x00\n        /* \"#utility.yul\":7336:7345   */\n      dup4\n        /* \"#utility.yul\":7332:7349   */\n      add\n        /* \"#utility.yul\":7325:7372   */\n      mstore\n        /* \"#utility.yul\":7389:7467   */\n      tag_239\n        /* \"#utility.yul\":7462:7466   */\n      dup2\n        /* \"#utility.yul\":7453:7459   */\n      dup5\n        /* \"#utility.yul\":7389:7467   */\n      tag_203\n      jump\t// in\n    tag_239:\n        /* \"#utility.yul\":7381:7467   */\n      swap1\n      pop\n        /* \"#utility.yul\":7161:7474   */\n      swap3\n      swap2\n      pop\n      pop\n      jump\t// out\n        /* \"#utility.yul\":7480:7899   */\n    tag_113:\n        /* \"#utility.yul\":7646:7650   */\n      0x00\n        /* \"#utility.yul\":7684:7686   */\n      0x20\n        /* \"#utility.yul\":7673:7682   */\n      dup3\n        /* \"#utility.yul\":7669:7687   */\n      add\n        /* \"#utility.yul\":7661:7687   */\n      swap1\n      pop\n        /* \"#utility.yul\":7733:7742   */\n      dup2\n        /* \"#utility.yul\":7727:7731   */\n      dup2\n        /* \"#utility.yul\":7723:7743   */\n      sub\n        /* \"#utility.yul\":7719:7720   */\n      0x00\n        /* \"#utility.yul\":7708:7717   */\n      dup4\n        /* \"#utility.yul\":7704:7721   */\n      add\n        /* \"#utility.yul\":7697:7744   */\n      mstore\n        /* \"#utility.yul\":7761:7892   */\n      tag_241\n        /* \"#utility.yul\":7887:7891   */\n      dup2\n        /* \"#utility.yul\":7761:7892   */\n      tag_219\n      jump\t// in\n    tag_241:\n        /* \"#utility.yul\":7753:7892   */\n      swap1\n      pop\n        /* \"#utility.yul\":7480:7899   */\n      swap2\n      swap1\n      pop\n      jump\t// out\n        /* \"#utility.yul\":7905:8127   */\n    tag_26:\n        /* \"#utility.yul\":7998:8002   */\n      0x00\n        /* \"#utility.yul\":8036:8038   */\n      0x20\n        /* \"#utility.yul\":8025:8034   */\n      dup3\n        /* \"#utility.yul\":8021:8039   */\n      add\n        /* \"#utility.yul\":8013:8039   */\n      swap1\n      pop\n        /* \"#utility.yul\":8049:8120   */\n      tag_243\n        /* \"#utility.yul\":8117:8118   */\n      0x00\n        /* \"#utility.yul\":8106:8115   */\n      dup4\n        /* \"#utility.yul\":8102:8119   */\n      add\n        /* \"#utility.yul\":8093:8099   */\n      dup5\n        /* \"#utility.yul\":8049:8120   */\n      tag_224\n      jump\t// in\n    tag_243:\n        /* \"#utility.yul\":7905:8127   */\n      swap3\n      swap2\n      pop\n      pop\n      jump\t// out\n        /* \"#utility.yul\":8133:8347   */\n    tag_48:\n        /* \"#utility.yul\":8222:8226   */\n      0x00\n        /* \"#utility.yul\":8260:8262   */\n      0x20\n        /* \"#utility.yul\":8249:8258   */\n      dup3\n        /* \"#utility.yul\":8245:8263   */\n      add\n        /* \"#utility.yul\":8237:8263   */\n      swap1\n      pop\n        /* \"#utility.yul\":8273:8340   */\n      tag_245\n        /* \"#utility.yul\":8337:8338   */\n      0x00\n        /* \"#utility.yul\":8326:8335   */\n      dup4\n        /* \"#utility.yul\":8322:8339   */\n      add\n        /* \"#utility.yul\":8313:8319   */\n      dup5\n        /* \"#utility.yul\":8273:8340   */\n      tag_228\n      jump\t// in\n    tag_245:\n        /* \"#utility.yul\":8133:8347   */\n      swap3\n      swap2\n      pop\n      pop\n      jump\t// out\n        /* \"#utility.yul\":8353:8482   */\n    tag_133:\n        /* \"#utility.yul\":8387:8393   */\n      0x00\n        /* \"#utility.yul\":8414:8434   */\n      tag_247\n      tag_248\n      jump\t// in\n    tag_247:\n        /* \"#utility.yul\":8404:8434   */\n      swap1\n      pop\n        /* \"#utility.yul\":8443:8476   */\n      tag_249\n        /* \"#utility.yul\":8471:8475   */\n      dup3\n        /* \"#utility.yul\":8463:8469   */\n      dup3\n        /* \"#utility.yul\":8443:8476   */\n      tag_250\n      jump\t// in\n    tag_249:\n        /* \"#utility.yul\":8353:8482   */\n      swap2\n      swap1\n      pop\n      jump\t// out\n        /* \"#utility.yul\":8488:8563   */\n    tag_248:\n        /* \"#utility.yul\":8521:8527   */\n      0x00\n        /* \"#utility.yul\":8554:8556   */\n      0x40\n        /* \"#utility.yul\":8548:8557   */\n      mload\n        /* \"#utility.yul\":8538:8557   */\n      swap1\n      pop\n        /* \"#utility.yul\":8488:8563   */\n      swap1\n      jump\t// out\n        /* \"#utility.yul\":8569:8877   */\n    tag_132:\n        /* \"#utility.yul\":8631:8635   */\n      0x00\n        /* \"#utility.yul\":8721:8739   */\n      0xffffffffffffffff\n        /* \"#utility.yul\":8713:8719   */\n      dup3\n        /* \"#utility.yul\":8710:8740   */\n      gt\n        /* \"#utility.yul\":8707:8763   */\n      iszero\n      tag_253\n      jumpi\n        /* \"#utility.yul\":8743:8761   */\n      tag_254\n      tag_255\n      jump\t// in\n    tag_254:\n        /* \"#utility.yul\":8707:8763   */\n    tag_253:\n        /* \"#utility.yul\":8781:8810   */\n      tag_256\n        /* \"#utility.yul\":8803:8809   */\n      dup3\n        /* \"#utility.yul\":8781:8810   */\n      tag_212\n      jump\t// in\n    tag_256:\n        /* \"#utility.yul\":8773:8810   */\n      swap1\n      pop\n        /* \"#utility.yul\":8865:8869   */\n      0x20\n        /* \"#utility.yul\":8859:8863   */\n      dup2\n        /* \"#utility.yul\":8855:8870   */\n      add\n        /* \"#utility.yul\":8847:8870   */\n      swap1\n      pop\n        /* \"#utility.yul\":8569:8877   */\n      swap2\n      swap1\n      pop\n      jump\t// out\n        /* \"#utility.yul\":8883:8982   */\n    tag_206:\n        /* \"#utility.yul\":8935:8941   */\n      0x00\n        /* \"#utility.yul\":8969:8974   */\n      dup2\n        /* \"#utility.yul\":8963:8975   */\n      mload\n        /* \"#utility.yul\":8953:8975   */\n      swap1\n      pop\n        /* \"#utility.yul\":8883:8982   */\n      swap2\n      swap1\n      pop\n      jump\t// out\n        /* \"#utility.yul\":8988:9157   */\n    tag_208:\n        /* \"#utility.yul\":9072:9083   */\n      0x00\n        /* \"#utility.yul\":9106:9112   */\n      dup3\n        /* \"#utility.yul\":9101:9104   */\n      dup3\n        /* \"#utility.yul\":9094:9113   */\n      mstore\n        /* \"#utility.yul\":9146:9150   */\n      0x20\n        /* \"#utility.yul\":9141:9144   */\n      dup3\n        /* \"#utility.yul\":9137:9151   */\n      add\n        /* \"#utility.yul\":9122:9151   */\n      swap1\n      pop\n        /* \"#utility.yul\":8988:9157   */\n      swap3\n      swap2\n      pop\n      pop\n      jump\t// out\n        /* \"#utility.yul\":9163:9311   */\n    tag_217:\n        /* \"#utility.yul\":9265:9276   */\n      0x00\n        /* \"#utility.yul\":9302:9305   */\n      dup2\n        /* \"#utility.yul\":9287:9305   */\n      swap1\n      pop\n        /* \"#utility.yul\":9163:9311   */\n      swap3\n      swap2\n      pop\n      pop\n      jump\t// out\n        /* \"#utility.yul\":9317:9622   */\n    tag_124:\n        /* \"#utility.yul\":9357:9360   */\n      0x00\n        /* \"#utility.yul\":9376:9396   */\n      tag_261\n        /* \"#utility.yul\":9394:9395   */\n      dup3\n        /* \"#utility.yul\":9376:9396   */\n      tag_227\n      jump\t// in\n    tag_261:\n        /* \"#utility.yul\":9371:9396   */\n      swap2\n      pop\n        /* \"#utility.yul\":9410:9430   */\n      tag_262\n        /* \"#utility.yul\":9428:9429   */\n      dup4\n        /* \"#utility.yul\":9410:9430   */\n      tag_227\n      jump\t// in\n    tag_262:\n        /* \"#utility.yul\":9405:9430   */\n      swap3\n      pop\n        /* \"#utility.yul\":9564:9565   */\n      dup3\n        /* \"#utility.yul\":9496:9562   */\n      0xffffffffffffffffffffffffffffffffffffffffffffffffffffffffffffffff\n        /* \"#utility.yul\":9492:9566   */\n      sub\n        /* \"#utility.yul\":9489:9490   */\n      dup3\n        /* \"#utility.yul\":9486:9567   */\n      gt\n        /* \"#utility.yul\":9483:9590   */\n      iszero\n      tag_263\n      jumpi\n        /* \"#utility.yul\":9570:9588   */\n      tag_264\n      tag_265\n      jump\t// in\n    tag_264:\n        /* \"#utility.yul\":9483:9590   */\n    tag_263:\n        /* \"#utility.yul\":9614:9615   */\n      dup3\n        /* \"#utility.yul\":9611:9612   */\n      dup3\n        /* \"#utility.yul\":9607:9616   */\n      add\n        /* \"#utility.yul\":9600:9616   */\n      swap1\n      pop\n        /* \"#utility.yul\":9317:9622   */\n      swap3\n      swap2\n      pop\n      pop\n      jump\t// out\n        /* \"#utility.yul\":9628:9976   */\n    tag_110:\n        /* \"#utility.yul\":9668:9675   */\n      0x00\n        /* \"#utility.yul\":9691:9711   */\n      tag_267\n        /* \"#utility.yul\":9709:9710   */\n      dup3\n        /* \"#utility.yul\":9691:9711   */\n      tag_227\n      jump\t// in\n    tag_267:\n        /* \"#utility.yul\":9686:9711   */\n      swap2\n      pop\n        /* \"#utility.yul\":9725:9745   */\n      tag_268\n        /* \"#utility.yul\":9743:9744   */\n      dup4\n        /* \"#utility.yul\":9725:9745   */\n      tag_227\n      jump\t// in\n    tag_268:\n        /* \"#utility.yul\":9720:9745   */\n      swap3\n      pop\n        /* \"#utility.yul\":9913:9914   */\n      dup2\n        /* \"#utility.yul\":9845:9911   */\n      0xffffffffffffffffffffffffffffffffffffffffffffffffffffffffffffffff\n        /* \"#utility.yul\":9841:9915   */\n      div\n        /* \"#utility.yul\":9838:9839   */\n      dup4\n        /* \"#utility.yul\":9835:9916   */\n      gt\n        /* \"#utility.yul\":9830:9831   */\n      dup3\n        /* \"#utility.yul\":9823:9832   */\n      iszero\n        /* \"#utility.yul\":9816:9833   */\n      iszero\n        /* \"#utility.yul\":9812:9917   */\n      and\n        /* \"#utility.yul\":9809:9940   */\n      iszero\n      tag_269\n      jumpi\n        /* \"#utility.yul\":9920:9938   */\n      tag_270\n      tag_265\n      jump\t// in\n    tag_270:\n        /* \"#utility.yul\":9809:9940   */\n    tag_269:\n        /* \"#utility.yul\":9968:9969   */\n      dup3\n        /* \"#utility.yul\":9965:9966   */\n      dup3\n        /* \"#utility.yul\":9961:9970   */\n      mul\n        /* \"#utility.yul\":9950:9970   */\n      swap1\n      pop\n        /* \"#utility.yul\":9628:9976   */\n      swap3\n      swap2\n      pop\n      pop\n      jump\t// out\n        /* \"#utility.yul\":9982:10173   */\n    tag_121:\n        /* \"#utility.yul\":10022:10026   */\n      0x00\n        /* \"#utility.yul\":10042:10062   */\n      tag_272\n        /* \"#utility.yul\":10060:10061   */\n      dup3\n        /* \"#utility.yul\":10042:10062   */\n      tag_227\n      jump\t// in\n    tag_272:\n        /* \"#utility.yul\":10037:10062   */\n      swap2\n      pop\n        /* \"#utility.yul\":10076:10096   */\n      tag_273\n        /* \"#utility.yul\":10094:10095   */\n      dup4\n        /* \"#utility.yul\":10076:10096   */\n      tag_227\n      jump\t// in\n    tag_273:\n        /* \"#utility.yul\":10071:10096   */\n      swap3\n      pop\n        /* \"#utility.yul\":10115:10116   */\n      dup3\n        /* \"#utility.yul\":10112:10113   */\n      dup3\n        /* \"#utility.yul\":10109:10117   */\n      lt\n        /* \"#utility.yul\":10106:10140   */\n      iszero\n      tag_274\n      jumpi\n        /* \"#utility.yul\":10120:10138   */\n      tag_275\n      tag_265\n      jump\t// in\n    tag_275:\n        /* \"#utility.yul\":10106:10140   */\n    tag_274:\n        /* \"#utility.yul\":10165:10166   */\n      dup3\n        /* \"#utility.yul\":10162:10163   */\n      dup3\n        /* \"#utility.yul\":10158:10167   */\n      sub\n        /* \"#utility.yul\":10150:10167   */\n      swap1\n      pop\n        /* \"#utility.yul\":9982:10173   */\n      swap3\n      swap2\n      pop\n      pop\n      jump\t// out\n        /* \"#utility.yul\":10179:10275   */\n    tag_276:\n        /* \"#utility.yul\":10216:10223   */\n      0x00\n        /* \"#utility.yul\":10245:10269   */\n      tag_278\n        /* \"#utility.yul\":10263:10268   */\n      dup3\n        /* \"#utility.yul\":10245:10269   */\n      tag_279\n      jump\t// in\n    tag_278:\n        /* \"#utility.yul\":10234:10269   */\n      swap1\n      pop\n        /* \"#utility.yul\":10179:10275   */\n      swap2\n      swap1\n      pop\n      jump\t// out\n        /* \"#utility.yul\":10281:10371   */\n    tag_198:\n        /* \"#utility.yul\":10315:10322   */\n      0x00\n        /* \"#utility.yul\":10358:10363   */\n      dup2\n        /* \"#utility.yul\":10351:10364   */\n      iszero\n        /* \"#utility.yul\":10344:10365   */\n      iszero\n        /* \"#utility.yul\":10333:10365   */\n      swap1\n      pop\n        /* \"#utility.yul\":10281:10371   */\n      swap2\n      swap1\n      pop\n      jump\t// out\n        /* \"#utility.yul\":10377:10454   */\n    tag_202:\n        /* \"#utility.yul\":10414:10421   */\n      0x00\n        /* \"#utility.yul\":10443:10448   */\n      dup2\n        /* \"#utility.yul\":10432:10448   */\n      swap1\n      pop\n        /* \"#utility.yul\":10377:10454   */\n      swap2\n      swap1\n      pop\n      jump\t// out\n        /* \"#utility.yul\":10460:10586   */\n    tag_279:\n        /* \"#utility.yul\":10497:10504   */\n      0x00\n        /* \"#utility.yul\":10537:10579   */\n      0xffffffffffffffffffffffffffffffffffffffff\n        /* \"#utility.yul\":10530:10535   */\n      dup3\n        /* \"#utility.yul\":10526:10580   */\n      and\n        /* \"#utility.yul\":10515:10580   */\n      swap1\n      pop\n        /* \"#utility.yul\":10460:10586   */\n      swap2\n      swap1\n      pop\n      jump\t// out\n        /* \"#utility.yul\":10592:10669   */\n    tag_227:\n        /* \"#utility.yul\":10629:10636   */\n      0x00\n        /* \"#utility.yul\":10658:10663   */\n      dup2\n        /* \"#utility.yul\":10647:10663   */\n      swap1\n      pop\n        /* \"#utility.yul\":10592:10669   */\n      swap2\n      swap1\n      pop\n      jump\t// out\n        /* \"#utility.yul\":10675:10761   */\n    tag_231:\n        /* \"#utility.yul\":10710:10717   */\n      0x00\n        /* \"#utility.yul\":10750:10754   */\n      0xff\n        /* \"#utility.yul\":10743:10748   */\n      dup3\n        /* \"#utility.yul\":10739:10755   */\n      and\n        /* \"#utility.yul\":10728:10755   */\n      swap1\n      pop\n        /* \"#utility.yul\":10675:10761   */\n      swap2\n      swap1\n      pop\n      jump\t// out\n        /* \"#utility.yul\":10767:10921   */\n    tag_138:\n        /* \"#utility.yul\":10851:10857   */\n      dup3\n        /* \"#utility.yul\":10846:10849   */\n      dup2\n        /* \"#utility.yul\":10841:10844   */\n      dup4\n        /* \"#utility.yul\":10828:10858   */\n      calldatacopy\n        /* \"#utility.yul\":10913:10914   */\n      0x00\n        /* \"#utility.yul\":10904:10910   */\n      dup4\n        /* \"#utility.yul\":10899:10902   */\n      dup4\n        /* \"#utility.yul\":10895:10911   */\n      add\n        /* \"#utility.yul\":10888:10915   */\n      mstore\n        /* \"#utility.yul\":10767:10921   */\n      pop\n      pop\n      pop\n      jump\t// out\n        /* \"#utility.yul\":10927:11234   */\n    tag_210:\n        /* \"#utility.yul\":10995:10996   */\n      0x00\n        /* \"#utility.yul\":11005:11118   */\n    tag_287:\n        /* \"#utility.yul\":11019:11025   */\n      dup4\n        /* \"#utility.yul\":11016:11017   */\n      dup2\n        /* \"#utility.yul\":11013:11026   */\n      lt\n        /* \"#utility.yul\":11005:11118   */\n      iszero\n      tag_289\n      jumpi\n        /* \"#utility.yul\":11104:11105   */\n      dup1\n        /* \"#utility.yul\":11099:11102   */\n      dup3\n        /* \"#utility.yul\":11095:11106   */\n      add\n        /* \"#utility.yul\":11089:11107   */\n      mload\n        /* \"#utility.yul\":11085:11086   */\n      dup2\n        /* \"#utility.yul\":11080:11083   */\n      dup5\n        /* \"#utility.yul\":11076:11087   */\n      add\n        /* \"#utility.yul\":11069:11108   */\n      mstore\n        /* \"#utility.yul\":11041:11043   */\n      0x20\n        /* \"#utility.yul\":11038:11039   */\n      dup2\n        /* \"#utility.yul\":11034:11044   */\n      add\n        /* \"#utility.yul\":11029:11044   */\n      swap1\n      pop\n        /* \"#utility.yul\":11005:11118   */\n      jump(tag_287)\n    tag_289:\n        /* \"#utility.yul\":11136:11142   */\n      dup4\n        /* \"#utility.yul\":11133:11134   */\n      dup2\n        /* \"#utility.yul\":11130:11143   */\n      gt\n        /* \"#utility.yul\":11127:11228   */\n      iszero\n      tag_290\n      jumpi\n        /* \"#utility.yul\":11216:11217   */\n      0x00\n        /* \"#utility.yul\":11207:11213   */\n      dup5\n        /* \"#utility.yul\":11202:11205   */\n      dup5\n        /* \"#utility.yul\":11198:11214   */\n      add\n        /* \"#utility.yul\":11191:11218   */\n      mstore\n        /* \"#utility.yul\":11127:11228   */\n    tag_290:\n        /* \"#utility.yul\":10976:11234   */\n      pop\n        /* \"#utility.yul\":10927:11234   */\n      pop\n      pop\n      pop\n      jump\t// out\n        /* \"#utility.yul\":11240:11521   */\n    tag_250:\n        /* \"#utility.yul\":11323:11350   */\n      tag_292\n        /* \"#utility.yul\":11345:11349   */\n      dup3\n        /* \"#utility.yul\":11323:11350   */\n      tag_212\n      jump\t// in\n    tag_292:\n        /* \"#utility.yul\":11315:11321   */\n      dup2\n        /* \"#utility.yul\":11311:11351   */\n      add\n        /* \"#utility.yul\":11453:11459   */\n      dup2\n        /* \"#utility.yul\":11441:11451   */\n      dup2\n        /* \"#utility.yul\":11438:11460   */\n      lt\n        /* \"#utility.yul\":11417:11435   */\n      0xffffffffffffffff\n        /* \"#utility.yul\":11405:11415   */\n      dup3\n        /* \"#utility.yul\":11402:11436   */\n      gt\n        /* \"#utility.yul\":11399:11461   */\n      or\n        /* \"#utility.yul\":11396:11484   */\n      iszero\n      tag_293\n      jumpi\n        /* \"#utility.yul\":11464:11482   */\n      tag_294\n      tag_255\n      jump\t// in\n    tag_294:\n        /* \"#utility.yul\":11396:11484   */\n    tag_293:\n        /* \"#utility.yul\":11504:11514   */\n      dup1\n        /* \"#utility.yul\":11500:11502   */\n      0x40\n        /* \"#utility.yul\":11493:11515   */\n      mstore\n        /* \"#utility.yul\":11283:11521   */\n      pop\n        /* \"#utility.yul\":11240:11521   */\n      pop\n      pop\n      jump\t// out\n        /* \"#utility.yul\":11527:11707   */\n    tag_119:\n        /* \"#utility.yul\":11575:11652   */\n      0x4e487b7100000000000000000000000000000000000000000000000000000000\n        /* \"#utility.yul\":11572:11573   */\n      0x00\n        /* \"#utility.yul\":11565:11653   */\n      mstore\n        /* \"#utility.yul\":11672:11676   */\n      0x01\n        /* \"#utility.yul\":11669:11670   */\n      0x04\n        /* \"#utility.yul\":11662:11677   */\n      mstore\n        /* \"#utility.yul\":11696:11700   */\n      0x24\n        /* \"#utility.yul\":11693:11694   */\n      0x00\n        /* \"#utility.yul\":11686:11701   */\n      revert\n        /* \"#utility.yul\":11713:11893   */\n    tag_265:\n        /* \"#utility.yul\":11761:11838   */\n      0x4e487b7100000000000000000000000000000000000000000000000000000000\n        /* \"#utility.yul\":11758:11759   */\n      0x00\n        /* \"#utility.yul\":11751:11839   */\n      mstore\n        /* \"#utility.yul\":11858:11862   */\n      0x11\n        /* \"#utility.yul\":11855:11856   */\n      0x04\n        /* \"#utility.yul\":11848:11863   */\n      mstore\n        /* \"#utility.yul\":11882:11886   */\n      0x24\n        /* \"#utility.yul\":11879:11880   */\n      0x00\n        /* \"#utility.yul\":11872:11887   */\n      revert\n        /* \"#utility.yul\":11899:12079   */\n    tag_255:\n        /* \"#utility.yul\":11947:12024   */\n      0x4e487b7100000000000000000000000000000000000000000000000000000000\n        /* \"#utility.yul\":11944:11945   */\n      0x00\n        /* \"#utility.yul\":11937:12025   */\n      mstore\n        /* \"#utility.yul\":12044:12048   */\n      0x41\n        /* \"#utility.yul\":12041:12042   */\n      0x04\n        /* \"#utility.yul\":12034:12049   */\n      mstore\n        /* \"#utility.yul\":12068:12072   */\n      0x24\n        /* \"#utility.yul\":12065:12066   */\n      0x00\n        /* \"#utility.yul\":12058:12073   */\n      revert\n        /* \"#utility.yul\":12085:12202   */\n    tag_147:\n        /* \"#utility.yul\":12194:12195   */\n      0x00\n        /* \"#utility.yul\":12191:12192   */\n      dup1\n        /* \"#utility.yul\":12184:12196   */\n      revert\n        /* \"#utility.yul\":12208:12325   */\n    tag_136:\n        /* \"#utility.yul\":12317:12318   */\n      0x00\n        /* \"#utility.yul\":12314:12315   */\n      dup1\n        /* \"#utility.yul\":12307:12319   */\n      revert\n        /* \"#utility.yul\":12331:12448   */\n    tag_179:\n        /* \"#utility.yul\":12440:12441   */\n      0x00\n        /* \"#utility.yul\":12437:12438   */\n      dup1\n        /* \"#utility.yul\":12430:12442   */\n      revert\n        /* \"#utility.yul\":12454:12571   */\n    tag_156:\n        /* \"#utility.yul\":12563:12564   */\n      0x00\n        /* \"#utility.yul\":12560:12561   */\n      dup1\n        /* \"#utility.yul\":12553:12565   */\n      revert\n        /* \"#utility.yul\":12577:12679   */\n    tag_212:\n        /* \"#utility.yul\":12618:12624   */\n      0x00\n        /* \"#utility.yul\":12669:12671   */\n      0x1f\n        /* \"#utility.yul\":12665:12672   */\n      not\n        /* \"#utility.yul\":12660:12662   */\n      0x1f\n        /* \"#utility.yul\":12653:12658   */\n      dup4\n        /* \"#utility.yul\":12649:12663   */\n      add\n        /* \"#utility.yul\":12645:12673   */\n      and\n        /* \"#utility.yul\":12635:12673   */\n      swap1\n      pop\n        /* \"#utility.yul\":12577:12679   */\n      swap2\n      swap1\n      pop\n      jump\t// out\n        /* \"#utility.yul\":12685:12867   */\n    tag_223:\n        /* \"#utility.yul\":12825:12859   */\n      0x4e65656420746f2073656e6420657861637420616d6f756e74206f6620776569\n        /* \"#utility.yul\":12821:12822   */\n      0x00\n        /* \"#utility.yul\":12813:12819   */\n      dup3\n        /* \"#utility.yul\":12809:12823   */\n      add\n        /* \"#utility.yul\":12802:12860   */\n      mstore\n        /* \"#utility.yul\":12685:12867   */\n      pop\n      jump\t// out\n        /* \"#utility.yul\":12873:12995   */\n    tag_142:\n        /* \"#utility.yul\":12946:12970   */\n      tag_305\n        /* \"#utility.yul\":12964:12969   */\n      dup2\n        /* \"#utility.yul\":12946:12970   */\n      tag_276\n      jump\t// in\n    tag_305:\n        /* \"#utility.yul\":12939:12944   */\n      dup2\n        /* \"#utility.yul\":12936:12971   */\n      eq\n        /* \"#utility.yul\":12926:12989   */\n      tag_306\n      jumpi\n        /* \"#utility.yul\":12985:12986   */\n      0x00\n        /* \"#utility.yul\":12982:12983   */\n      dup1\n        /* \"#utility.yul\":12975:12987   */\n      revert\n        /* \"#utility.yul\":12926:12989   */\n    tag_306:\n        /* \"#utility.yul\":12873:12995   */\n      pop\n      jump\t// out\n        /* \"#utility.yul\":13001:13123   */\n    tag_152:\n        /* \"#utility.yul\":13074:13098   */\n      tag_308\n        /* \"#utility.yul\":13092:13097   */\n      dup2\n        /* \"#utility.yul\":13074:13098   */\n      tag_227\n      jump\t// in\n    tag_308:\n        /* \"#utility.yul\":13067:13072   */\n      dup2\n        /* \"#utility.yul\":13064:13099   */\n      eq\n        /* \"#utility.yul\":13054:13117   */\n      tag_309\n      jumpi\n        /* \"#utility.yul\":13113:13114   */\n      0x00\n        /* \"#utility.yul\":13110:13111   */\n      dup1\n        /* \"#utility.yul\":13103:13115   */\n      revert\n        /* \"#utility.yul\":13054:13117   */\n    tag_309:\n        /* \"#utility.yul\":13001:13123   */\n      pop\n      jump\t// out\n\n    auxdata: 0xa2646970667358221220b2bd6eee25cbfa52be45687b84316de75ce83107c56204b2d8d4afa2d7a392b964736f6c63430008070033\n}\n",
				"bytecode": {
					"linkReferences": {},
					"object": "60806040527378731d3ca6b7e34ac0f824c42a7cc18a495cabab600160006101000a81548173ffffffffffffffffffffffffffffffffffffffff021916908373ffffffffffffffffffffffffffffffffffffffff16021790555073617f2e2fd72fd9d5503197092ac168c91465e7f2600260006101000a81548173ffffffffffffffffffffffffffffffffffffffff021916908373ffffffffffffffffffffffffffffffffffffffff1602179055507317f6ad8ef982297579c203069c1dbffe4348c372600360006101000a81548173ffffffffffffffffffffffffffffffffffffffff021916908373ffffffffffffffffffffffffffffffffffffffff1602179055503480156200011057600080fd5b50604051620025fd380380620025fd833981810160405281019062000136919062000f15565b60405180608001604052806003600481111562000158576200015762001147565b5b81526020016040518060400160405280600981526020017f496e766573746f723100000000000000000000000000000000000000000000008152508152602001620001de6040518060400160405280600481526020017f333431320000000000000000000000000000000000000000000000000000000081525062000bbd60201b60201c565b81526020016000815250600080600160009054906101000a900473ffffffffffffffffffffffffffffffffffffffff1673ffffffffffffffffffffffffffffffffffffffff1673ffffffffffffffffffffffffffffffffffffffff16815260200190815260200160002060008201518160000160006101000a81548160ff0219169083600481111562000276576200027562001147565b5b021790555060208201518160010190805190602001906200029992919062000e4e565b506040820151816002015560608201518160030155905050604051806080016040528060036004811115620002d357620002d262001147565b5b81526020016040518060400160405280600981526020017f496e766573746f723100000000000000000000000000000000000000000000008152508152602001620003596040518060400160405280600481526020017f313432330000000000000000000000000000000000000000000000000000000081525062000bbd60201b60201c565b81526020016000815250600080600260009054906101000a900473ffffffffffffffffffffffffffffffffffffffff1673ffffffffffffffffffffffffffffffffffffffff1673ffffffffffffffffffffffffffffffffffffffff16815260200190815260200160002060008201518160000160006101000a81548160ff02191690836004811115620003f157620003f062001147565b5b021790555060208201518160010190805190602001906200041492919062000e4e565b5060408201518160020155606082015181600301559050506040518060800160405280600360048111156200044e576200044d62001147565b5b81526020016040518060400160405280600b81526020017f4265737420667269656e640000000000000000000000000000000000000000008152508152602001620004d46040518060400160405280600481526020017f323331340000000000000000000000000000000000000000000000000000000081525062000bbd60201b60201c565b81526020016000815250600080600360009054906101000a900473ffffffffffffffffffffffffffffffffffffffff1673ffffffffffffffffffffffffffffffffffffffff1673ffffffffffffffffffffffffffffffffffffffff16815260200190815260200160002060008201518160000160006101000a81548160ff021916908360048111156200056c576200056b62001147565b5b021790555060208201518160010190805190602001906200058f92919062000e4e565b506040820151816002015560608201518160030155905050806005819055506000735b38da6a701c568545dcfcb03fcb875f56beddc49050600073ab8483f64d9c6d1ecf9b849ae677dd3315835cb29050600073ab8483f64d9c6d1ecf9b849ae677dd3315835cb290506040518060800160405280600060048111156200061b576200061a62001147565b5b81526020016040518060400160405280600581526020017f6f776e65720000000000000000000000000000000000000000000000000000008152508152602001620006a16040518060400160405280600481526020017f333431320000000000000000000000000000000000000000000000000000000081525062000bbd60201b60201c565b81526020016005548152506000808573ffffffffffffffffffffffffffffffffffffffff1673ffffffffffffffffffffffffffffffffffffffff16815260200190815260200160002060008201518160000160006101000a81548160ff0219169083600481111562000718576200071762001147565b5b021790555060208201518160010190805190602001906200073b92919062000e4e565b50604082015181600201556060820151816003015590505060405180608001604052806002600481111562000775576200077462001147565b5b81526020016040518060400160405280601081526020017f507269766174652070726f7669646572000000000000000000000000000000008152508152602001620007fb6040518060400160405280600481526020017f313432330000000000000000000000000000000000000000000000000000000081525062000bbd60201b60201c565b815260200160008152506000808473ffffffffffffffffffffffffffffffffffffffff1673ffffffffffffffffffffffffffffffffffffffff16815260200190815260200160002060008201518160000160006101000a81548160ff0219169083600481111562000871576200087062001147565b5b021790555060208201518160010190805190602001906200089492919062000e4e565b506040820151816002015560608201518160030155905050600554600460008573ffffffffffffffffffffffffffffffffffffffff1673ffffffffffffffffffffffffffffffffffffffff16815260200190815260200160002060008473ffffffffffffffffffffffffffffffffffffffff1673ffffffffffffffffffffffffffffffffffffffff1681526020019081526020016000208190555060405180608001604052806001600481111562000951576200095062001147565b5b81526020016040518060400160405280600f81526020017f5075626c69632070726f766964657200000000000000000000000000000000008152508152602001620009d76040518060400160405280600481526020017f323331340000000000000000000000000000000000000000000000000000000081525062000bbd60201b60201c565b815260200160008152506000808373ffffffffffffffffffffffffffffffffffffffff1673ffffffffffffffffffffffffffffffffffffffff16815260200190815260200160002060008201518160000160006101000a81548160ff0219169083600481111562000a4d5762000a4c62001147565b5b0217905550602082015181600101908051906020019062000a7092919062000e4e565b506040820151816002015560608201518160030155905050600554600460008573ffffffffffffffffffffffffffffffffffffffff1673ffffffffffffffffffffffffffffffffffffffff16815260200190815260200160002060008373ffffffffffffffffffffffffffffffffffffffff1673ffffffffffffffffffffffffffffffffffffffff1681526020019081526020016000208190555062000b42600160009054906101000a900473ffffffffffffffffffffffffffffffffffffffff16620927c062000bef60201b60201c565b5062000b7a600260009054906101000a900473ffffffffffffffffffffffffffffffffffffffff16620c350062000bef60201b60201c565b5062000bb2600360009054906101000a900473ffffffffffffffffffffffffffffffffffffffff1662061a8062000bef60201b60201c565b5050505050620011c4565b60008160405160200162000bd2919062000f8f565b604051602081830303815290604052805190602001209050919050565b60008060003373ffffffffffffffffffffffffffffffffffffffff1673ffffffffffffffffffffffffffffffffffffffff1681526020019081526020016000206003015482111562000c4057600080fd5b62000c9b826000803373ffffffffffffffffffffffffffffffffffffffff1673ffffffffffffffffffffffffffffffffffffffff1681526020019081526020016000206003015462000df160201b62000c3b1790919060201c565b6000803373ffffffffffffffffffffffffffffffffffffffff1673ffffffffffffffffffffffffffffffffffffffff1681526020019081526020016000206003018190555062000d3b826000808673ffffffffffffffffffffffffffffffffffffffff1673ffffffffffffffffffffffffffffffffffffffff1681526020019081526020016000206003015462000e1d60201b62000c621790919060201c565b6000808573ffffffffffffffffffffffffffffffffffffffff1673ffffffffffffffffffffffffffffffffffffffff168152602001908152602001600020600301819055508273ffffffffffffffffffffffffffffffffffffffff163373ffffffffffffffffffffffffffffffffffffffff167fddf252ad1be2c89b69c2b068fc378daa952ba7f163c4a11628f55a4df523b3ef8460405162000ddf919062000fa8565b60405180910390a36001905092915050565b60008282111562000e075762000e06620010e9565b5b818362000e15919062001038565b905092915050565b600080828462000e2e919062000fdb565b90508381101562000e445762000e43620010e9565b5b8091505092915050565b82805462000e5c90620010b3565b90600052602060002090601f01602090048101928262000e80576000855562000ecc565b82601f1062000e9b57805160ff191683800117855562000ecc565b8280016001018555821562000ecc579182015b8281111562000ecb57825182559160200191906001019062000eae565b5b50905062000edb919062000edf565b5090565b5b8082111562000efa57600081600090555060010162000ee0565b5090565b60008151905062000f0f81620011aa565b92915050565b60006020828403121562000f2e5762000f2d620011a5565b5b600062000f3e8482850162000efe565b91505092915050565b600062000f548262000fc5565b62000f60818562000fd0565b935062000f728185602086016200107d565b80840191505092915050565b62000f898162001073565b82525050565b600062000f9d828462000f47565b915081905092915050565b600060208201905062000fbf600083018462000f7e565b92915050565b600081519050919050565b600081905092915050565b600062000fe88262001073565b915062000ff58362001073565b9250827fffffffffffffffffffffffffffffffffffffffffffffffffffffffffffffffff038211156200102d576200102c62001118565b5b828201905092915050565b6000620010458262001073565b9150620010528362001073565b92508282101562001068576200106762001118565b5b828203905092915050565b6000819050919050565b60005b838110156200109d57808201518184015260208101905062001080565b83811115620010ad576000848401525b50505050565b60006002820490506001821680620010cc57607f821691505b60208210811415620010e357620010e262001176565b5b50919050565b7f4e487b7100000000000000000000000000000000000000000000000000000000600052600160045260246000fd5b7f4e487b7100000000000000000000000000000000000000000000000000000000600052601160045260246000fd5b7f4e487b7100000000000000000000000000000000000000000000000000000000600052602160045260246000fd5b7f4e487b7100000000000000000000000000000000000000000000000000000000600052602260045260246000fd5b600080fd5b620011b58162001073565b8114620011c157600080fd5b50565b61142980620011d46000396000f3fe6080604052600436106100c25760003560e01c806370a082311161007f57806395d89b411161005957806395d89b4114610290578063a9059cbb146102bb578063d96a094a146102f8578063dd62ed3e14610314576100c2565b806370a08231146101ed578063785963c31461022a578063845952a814610253576100c2565b806306fdde03146100c75780630761c8b9146100f2578063095ea7b31461011d57806318160ddd1461015a57806323b872dd14610185578063313ce567146101c2575b600080fd5b3480156100d357600080fd5b506100dc610351565b6040516100e9919061103f565b60405180910390f35b3480156100fe57600080fd5b5061010761038a565b6040516101149190611081565b60405180910390f35b34801561012957600080fd5b50610144600480360381019061013f9190610de8565b610392565b6040516101519190611009565b60405180910390f35b34801561016657600080fd5b5061016f610484565b60405161017c9190611081565b60405180910390f35b34801561019157600080fd5b506101ac60048036038101906101a79190610d95565b61048e565b6040516101b99190611009565b60405180910390f35b3480156101ce57600080fd5b506101d7610818565b6040516101e4919061109c565b60405180910390f35b3480156101f957600080fd5b50610214600480360381019061020f9190610d28565b61081d565b6040516102219190611081565b60405180910390f35b34801561023657600080fd5b50610251600480360381019061024c9190610e71565b610868565b005b34801561025f57600080fd5b5061027a60048036038101906102759190610e28565b61086d565b6040516102879190611024565b60405180910390f35b34801561029c57600080fd5b506102a561089d565b6040516102b2919061103f565b60405180910390f35b3480156102c757600080fd5b506102e260048036038101906102dd9190610de8565b6108d6565b6040516102ef9190611009565b60405180910390f35b610312600480360381019061030d9190610efc565b610ac7565b005b34801561032057600080fd5b5061033b60048036038101906103369190610d55565b610bb4565b6040516103489190611081565b60405180910390f35b6040518060400160405280600d81526020017f43727970746f4d6f6e737465720000000000000000000000000000000000000081525081565b633b9aca0081565b600081600460003373ffffffffffffffffffffffffffffffffffffffff1673ffffffffffffffffffffffffffffffffffffffff16815260200190815260200160002060008573ffffffffffffffffffffffffffffffffffffffff1673ffffffffffffffffffffffffffffffffffffffff168152602001908152602001600020819055508273ffffffffffffffffffffffffffffffffffffffff163373ffffffffffffffffffffffffffffffffffffffff167f8c5be1e5ebec7d5bd14f71427d1e84f3dd0314c0f7b2291e5b200ac8c7c3b925846040516104729190611081565b60405180910390a36001905092915050565b6000600554905090565b60008060008573ffffffffffffffffffffffffffffffffffffffff1673ffffffffffffffffffffffffffffffffffffffff168152602001908152602001600020600301548211156104de57600080fd5b600460008573ffffffffffffffffffffffffffffffffffffffff1673ffffffffffffffffffffffffffffffffffffffff16815260200190815260200160002060003373ffffffffffffffffffffffffffffffffffffffff1673ffffffffffffffffffffffffffffffffffffffff1681526020019081526020016000205482111561056757600080fd5b6105bb826000808773ffffffffffffffffffffffffffffffffffffffff1673ffffffffffffffffffffffffffffffffffffffff16815260200190815260200160002060030154610c3b90919063ffffffff16565b6000808673ffffffffffffffffffffffffffffffffffffffff1673ffffffffffffffffffffffffffffffffffffffff1681526020019081526020016000206003018190555061068f82600460008773ffffffffffffffffffffffffffffffffffffffff1673ffffffffffffffffffffffffffffffffffffffff16815260200190815260200160002060003373ffffffffffffffffffffffffffffffffffffffff1673ffffffffffffffffffffffffffffffffffffffff16815260200190815260200160002054610c3b90919063ffffffff16565b600460008673ffffffffffffffffffffffffffffffffffffffff1673ffffffffffffffffffffffffffffffffffffffff16815260200190815260200160002060003373ffffffffffffffffffffffffffffffffffffffff1673ffffffffffffffffffffffffffffffffffffffff16815260200190815260200160002081905550610763826000808673ffffffffffffffffffffffffffffffffffffffff1673ffffffffffffffffffffffffffffffffffffffff16815260200190815260200160002060030154610c6290919063ffffffff16565b6000808573ffffffffffffffffffffffffffffffffffffffff1673ffffffffffffffffffffffffffffffffffffffff168152602001908152602001600020600301819055508273ffffffffffffffffffffffffffffffffffffffff168473ffffffffffffffffffffffffffffffffffffffff167fddf252ad1be2c89b69c2b068fc378daa952ba7f163c4a11628f55a4df523b3ef846040516108059190611081565b60405180910390a3600190509392505050565b600c81565b60008060008373ffffffffffffffffffffffffffffffffffffffff1673ffffffffffffffffffffffffffffffffffffffff168152602001908152602001600020600301549050919050565b505050565b6000816040516020016108809190610ff2565b604051602081830303815290604052805190602001209050919050565b6040518060400160405280600481526020017f434d4f4e0000000000000000000000000000000000000000000000000000000081525081565b60008060003373ffffffffffffffffffffffffffffffffffffffff1673ffffffffffffffffffffffffffffffffffffffff1681526020019081526020016000206003015482111561092657600080fd5b61097a826000803373ffffffffffffffffffffffffffffffffffffffff1673ffffffffffffffffffffffffffffffffffffffff16815260200190815260200160002060030154610c3b90919063ffffffff16565b6000803373ffffffffffffffffffffffffffffffffffffffff1673ffffffffffffffffffffffffffffffffffffffff16815260200190815260200160002060030181905550610a13826000808673ffffffffffffffffffffffffffffffffffffffff1673ffffffffffffffffffffffffffffffffffffffff16815260200190815260200160002060030154610c6290919063ffffffff16565b6000808573ffffffffffffffffffffffffffffffffffffffff1673ffffffffffffffffffffffffffffffffffffffff168152602001908152602001600020600301819055508273ffffffffffffffffffffffffffffffffffffffff163373ffffffffffffffffffffffffffffffffffffffff167fddf252ad1be2c89b69c2b068fc378daa952ba7f163c4a11628f55a4df523b3ef84604051610ab59190611081565b60405180910390a36001905092915050565b633b9aca0081610ad7919061118a565b3414610b18576040517f08c379a0000000000000000000000000000000000000000000000000000000008152600401610b0f90611061565b60405180910390fd5b610b6c816000803373ffffffffffffffffffffffffffffffffffffffff1673ffffffffffffffffffffffffffffffffffffffff16815260200190815260200160002060030154610c6290919063ffffffff16565b6000803373ffffffffffffffffffffffffffffffffffffffff1673ffffffffffffffffffffffffffffffffffffffff1681526020019081526020016000206003018190555050565b6000600460008473ffffffffffffffffffffffffffffffffffffffff1673ffffffffffffffffffffffffffffffffffffffff16815260200190815260200160002060008373ffffffffffffffffffffffffffffffffffffffff1673ffffffffffffffffffffffffffffffffffffffff16815260200190815260200160002054905092915050565b600082821115610c4e57610c4d6112ea565b5b8183610c5a91906111e4565b905092915050565b6000808284610c719190611134565b905083811015610c8457610c836112ea565b5b8091505092915050565b6000610ca1610c9c846110dc565b6110b7565b905082815260208101848484011115610cbd57610cbc61137c565b5b610cc8848285611277565b509392505050565b600081359050610cdf816113c5565b92915050565b600082601f830112610cfa57610cf9611377565b5b8135610d0a848260208601610c8e565b91505092915050565b600081359050610d22816113dc565b92915050565b600060208284031215610d3e57610d3d611386565b5b6000610d4c84828501610cd0565b91505092915050565b60008060408385031215610d6c57610d6b611386565b5b6000610d7a85828601610cd0565b9250506020610d8b85828601610cd0565b9150509250929050565b600080600060608486031215610dae57610dad611386565b5b6000610dbc86828701610cd0565b9350506020610dcd86828701610cd0565b9250506040610dde86828701610d13565b9150509250925092565b60008060408385031215610dff57610dfe611386565b5b6000610e0d85828601610cd0565b9250506020610e1e85828601610d13565b9150509250929050565b600060208284031215610e3e57610e3d611386565b5b600082013567ffffffffffffffff811115610e5c57610e5b611381565b5b610e6884828501610ce5565b91505092915050565b600080600060608486031215610e8a57610e89611386565b5b600084013567ffffffffffffffff811115610ea857610ea7611381565b5b610eb486828701610ce5565b935050602084013567ffffffffffffffff811115610ed557610ed4611381565b5b610ee186828701610ce5565b9250506040610ef286828701610cd0565b9150509250925092565b600060208284031215610f1257610f11611386565b5b6000610f2084828501610d13565b91505092915050565b610f328161122a565b82525050565b610f4181611236565b82525050565b6000610f528261110d565b610f5c8185611118565b9350610f6c818560208601611286565b610f758161138b565b840191505092915050565b6000610f8b8261110d565b610f958185611129565b9350610fa5818560208601611286565b80840191505092915050565b6000610fbe602083611118565b9150610fc98261139c565b602082019050919050565b610fdd81611260565b82525050565b610fec8161126a565b82525050565b6000610ffe8284610f80565b915081905092915050565b600060208201905061101e6000830184610f29565b92915050565b60006020820190506110396000830184610f38565b92915050565b600060208201905081810360008301526110598184610f47565b905092915050565b6000602082019050818103600083015261107a81610fb1565b9050919050565b60006020820190506110966000830184610fd4565b92915050565b60006020820190506110b16000830184610fe3565b92915050565b60006110c16110d2565b90506110cd82826112b9565b919050565b6000604051905090565b600067ffffffffffffffff8211156110f7576110f6611348565b5b6111008261138b565b9050602081019050919050565b600081519050919050565b600082825260208201905092915050565b600081905092915050565b600061113f82611260565b915061114a83611260565b9250827fffffffffffffffffffffffffffffffffffffffffffffffffffffffffffffffff0382111561117f5761117e611319565b5b828201905092915050565b600061119582611260565b91506111a083611260565b9250817fffffffffffffffffffffffffffffffffffffffffffffffffffffffffffffffff04831182151516156111d9576111d8611319565b5b828202905092915050565b60006111ef82611260565b91506111fa83611260565b92508282101561120d5761120c611319565b5b828203905092915050565b600061122382611240565b9050919050565b60008115159050919050565b6000819050919050565b600073ffffffffffffffffffffffffffffffffffffffff82169050919050565b6000819050919050565b600060ff82169050919050565b82818337600083830152505050565b60005b838110156112a4578082015181840152602081019050611289565b838111156112b3576000848401525b50505050565b6112c28261138b565b810181811067ffffffffffffffff821117156112e1576112e0611348565b5b80604052505050565b7f4e487b7100000000000000000000000000000000000000000000000000000000600052600160045260246000fd5b7f4e487b7100000000000000000000000000000000000000000000000000000000600052601160045260246000fd5b7f4e487b7100000000000000000000000000000000000000000000000000000000600052604160045260246000fd5b600080fd5b600080fd5b600080fd5b600080fd5b6000601f19601f8301169050919050565b7f4e65656420746f2073656e6420657861637420616d6f756e74206f6620776569600082015250565b6113ce81611218565b81146113d957600080fd5b50565b6113e581611260565b81146113f057600080fd5b5056fea2646970667358221220b2bd6eee25cbfa52be45687b84316de75ce83107c56204b2d8d4afa2d7a392b964736f6c63430008070033",
					"opcodes": "PUSH1 0x80 PUSH1 0x40 MSTORE PUSH20 0x78731D3CA6B7E34AC0F824C42A7CC18A495CABAB PUSH1 0x1 PUSH1 0x0 PUSH2 0x100 EXP DUP2 SLOAD DUP2 PUSH20 0xFFFFFFFFFFFFFFFFFFFFFFFFFFFFFFFFFFFFFFFF MUL NOT AND SWAP1 DUP4 PUSH20 0xFFFFFFFFFFFFFFFFFFFFFFFFFFFFFFFFFFFFFFFF AND MUL OR SWAP1 SSTORE POP PUSH20 0x617F2E2FD72FD9D5503197092AC168C91465E7F2 PUSH1 0x2 PUSH1 0x0 PUSH2 0x100 EXP DUP2 SLOAD DUP2 PUSH20 0xFFFFFFFFFFFFFFFFFFFFFFFFFFFFFFFFFFFFFFFF MUL NOT AND SWAP1 DUP4 PUSH20 0xFFFFFFFFFFFFFFFFFFFFFFFFFFFFFFFFFFFFFFFF AND MUL OR SWAP1 SSTORE POP PUSH20 0x17F6AD8EF982297579C203069C1DBFFE4348C372 PUSH1 0x3 PUSH1 0x0 PUSH2 0x100 EXP DUP2 SLOAD DUP2 PUSH20 0xFFFFFFFFFFFFFFFFFFFFFFFFFFFFFFFFFFFFFFFF MUL NOT AND SWAP1 DUP4 PUSH20 0xFFFFFFFFFFFFFFFFFFFFFFFFFFFFFFFFFFFFFFFF AND MUL OR SWAP1 SSTORE POP CALLVALUE DUP1 ISZERO PUSH3 0x110 JUMPI PUSH1 0x0 DUP1 REVERT JUMPDEST POP PUSH1 0x40 MLOAD PUSH3 0x25FD CODESIZE SUB DUP1 PUSH3 0x25FD DUP4 CODECOPY DUP2 DUP2 ADD PUSH1 0x40 MSTORE DUP2 ADD SWAP1 PUSH3 0x136 SWAP2 SWAP1 PUSH3 0xF15 JUMP JUMPDEST PUSH1 0x40 MLOAD DUP1 PUSH1 0x80 ADD PUSH1 0x40 MSTORE DUP1 PUSH1 0x3 PUSH1 0x4 DUP2 GT ISZERO PUSH3 0x158 JUMPI PUSH3 0x157 PUSH3 0x1147 JUMP JUMPDEST JUMPDEST DUP2 MSTORE PUSH1 0x20 ADD PUSH1 0x40 MLOAD DUP1 PUSH1 0x40 ADD PUSH1 0x40 MSTORE DUP1 PUSH1 0x9 DUP2 MSTORE PUSH1 0x20 ADD PUSH32 0x496E766573746F72310000000000000000000000000000000000000000000000 DUP2 MSTORE POP DUP2 MSTORE PUSH1 0x20 ADD PUSH3 0x1DE PUSH1 0x40 MLOAD DUP1 PUSH1 0x40 ADD PUSH1 0x40 MSTORE DUP1 PUSH1 0x4 DUP2 MSTORE PUSH1 0x20 ADD PUSH32 0x3334313200000000000000000000000000000000000000000000000000000000 DUP2 MSTORE POP PUSH3 0xBBD PUSH1 0x20 SHL PUSH1 0x20 SHR JUMP JUMPDEST DUP2 MSTORE PUSH1 0x20 ADD PUSH1 0x0 DUP2 MSTORE POP PUSH1 0x0 DUP1 PUSH1 0x1 PUSH1 0x0 SWAP1 SLOAD SWAP1 PUSH2 0x100 EXP SWAP1 DIV PUSH20 0xFFFFFFFFFFFFFFFFFFFFFFFFFFFFFFFFFFFFFFFF AND PUSH20 0xFFFFFFFFFFFFFFFFFFFFFFFFFFFFFFFFFFFFFFFF AND PUSH20 0xFFFFFFFFFFFFFFFFFFFFFFFFFFFFFFFFFFFFFFFF AND DUP2 MSTORE PUSH1 0x20 ADD SWAP1 DUP2 MSTORE PUSH1 0x20 ADD PUSH1 0x0 KECCAK256 PUSH1 0x0 DUP3 ADD MLOAD DUP2 PUSH1 0x0 ADD PUSH1 0x0 PUSH2 0x100 EXP DUP2 SLOAD DUP2 PUSH1 0xFF MUL NOT AND SWAP1 DUP4 PUSH1 0x4 DUP2 GT ISZERO PUSH3 0x276 JUMPI PUSH3 0x275 PUSH3 0x1147 JUMP JUMPDEST JUMPDEST MUL OR SWAP1 SSTORE POP PUSH1 0x20 DUP3 ADD MLOAD DUP2 PUSH1 0x1 ADD SWAP1 DUP1 MLOAD SWAP1 PUSH1 0x20 ADD SWAP1 PUSH3 0x299 SWAP3 SWAP2 SWAP1 PUSH3 0xE4E JUMP JUMPDEST POP PUSH1 0x40 DUP3 ADD MLOAD DUP2 PUSH1 0x2 ADD SSTORE PUSH1 0x60 DUP3 ADD MLOAD DUP2 PUSH1 0x3 ADD SSTORE SWAP1 POP POP PUSH1 0x40 MLOAD DUP1 PUSH1 0x80 ADD PUSH1 0x40 MSTORE DUP1 PUSH1 0x3 PUSH1 0x4 DUP2 GT ISZERO PUSH3 0x2D3 JUMPI PUSH3 0x2D2 PUSH3 0x1147 JUMP JUMPDEST JUMPDEST DUP2 MSTORE PUSH1 0x20 ADD PUSH1 0x40 MLOAD DUP1 PUSH1 0x40 ADD PUSH1 0x40 MSTORE DUP1 PUSH1 0x9 DUP2 MSTORE PUSH1 0x20 ADD PUSH32 0x496E766573746F72310000000000000000000000000000000000000000000000 DUP2 MSTORE POP DUP2 MSTORE PUSH1 0x20 ADD PUSH3 0x359 PUSH1 0x40 MLOAD DUP1 PUSH1 0x40 ADD PUSH1 0x40 MSTORE DUP1 PUSH1 0x4 DUP2 MSTORE PUSH1 0x20 ADD PUSH32 0x3134323300000000000000000000000000000000000000000000000000000000 DUP2 MSTORE POP PUSH3 0xBBD PUSH1 0x20 SHL PUSH1 0x20 SHR JUMP JUMPDEST DUP2 MSTORE PUSH1 0x20 ADD PUSH1 0x0 DUP2 MSTORE POP PUSH1 0x0 DUP1 PUSH1 0x2 PUSH1 0x0 SWAP1 SLOAD SWAP1 PUSH2 0x100 EXP SWAP1 DIV PUSH20 0xFFFFFFFFFFFFFFFFFFFFFFFFFFFFFFFFFFFFFFFF AND PUSH20 0xFFFFFFFFFFFFFFFFFFFFFFFFFFFFFFFFFFFFFFFF AND PUSH20 0xFFFFFFFFFFFFFFFFFFFFFFFFFFFFFFFFFFFFFFFF AND DUP2 MSTORE PUSH1 0x20 ADD SWAP1 DUP2 MSTORE PUSH1 0x20 ADD PUSH1 0x0 KECCAK256 PUSH1 0x0 DUP3 ADD MLOAD DUP2 PUSH1 0x0 ADD PUSH1 0x0 PUSH2 0x100 EXP DUP2 SLOAD DUP2 PUSH1 0xFF MUL NOT AND SWAP1 DUP4 PUSH1 0x4 DUP2 GT ISZERO PUSH3 0x3F1 JUMPI PUSH3 0x3F0 PUSH3 0x1147 JUMP JUMPDEST JUMPDEST MUL OR SWAP1 SSTORE POP PUSH1 0x20 DUP3 ADD MLOAD DUP2 PUSH1 0x1 ADD SWAP1 DUP1 MLOAD SWAP1 PUSH1 0x20 ADD SWAP1 PUSH3 0x414 SWAP3 SWAP2 SWAP1 PUSH3 0xE4E JUMP JUMPDEST POP PUSH1 0x40 DUP3 ADD MLOAD DUP2 PUSH1 0x2 ADD SSTORE PUSH1 0x60 DUP3 ADD MLOAD DUP2 PUSH1 0x3 ADD SSTORE SWAP1 POP POP PUSH1 0x40 MLOAD DUP1 PUSH1 0x80 ADD PUSH1 0x40 MSTORE DUP1 PUSH1 0x3 PUSH1 0x4 DUP2 GT ISZERO PUSH3 0x44E JUMPI PUSH3 0x44D PUSH3 0x1147 JUMP JUMPDEST JUMPDEST DUP2 MSTORE PUSH1 0x20 ADD PUSH1 0x40 MLOAD DUP1 PUSH1 0x40 ADD PUSH1 0x40 MSTORE DUP1 PUSH1 0xB DUP2 MSTORE PUSH1 0x20 ADD PUSH32 0x4265737420667269656E64000000000000000000000000000000000000000000 DUP2 MSTORE POP DUP2 MSTORE PUSH1 0x20 ADD PUSH3 0x4D4 PUSH1 0x40 MLOAD DUP1 PUSH1 0x40 ADD PUSH1 0x40 MSTORE DUP1 PUSH1 0x4 DUP2 MSTORE PUSH1 0x20 ADD PUSH32 0x3233313400000000000000000000000000000000000000000000000000000000 DUP2 MSTORE POP PUSH3 0xBBD PUSH1 0x20 SHL PUSH1 0x20 SHR JUMP JUMPDEST DUP2 MSTORE PUSH1 0x20 ADD PUSH1 0x0 DUP2 MSTORE POP PUSH1 0x0 DUP1 PUSH1 0x3 PUSH1 0x0 SWAP1 SLOAD SWAP1 PUSH2 0x100 EXP SWAP1 DIV PUSH20 0xFFFFFFFFFFFFFFFFFFFFFFFFFFFFFFFFFFFFFFFF AND PUSH20 0xFFFFFFFFFFFFFFFFFFFFFFFFFFFFFFFFFFFFFFFF AND PUSH20 0xFFFFFFFFFFFFFFFFFFFFFFFFFFFFFFFFFFFFFFFF AND DUP2 MSTORE PUSH1 0x20 ADD SWAP1 DUP2 MSTORE PUSH1 0x20 ADD PUSH1 0x0 KECCAK256 PUSH1 0x0 DUP3 ADD MLOAD DUP2 PUSH1 0x0 ADD PUSH1 0x0 PUSH2 0x100 EXP DUP2 SLOAD DUP2 PUSH1 0xFF MUL NOT AND SWAP1 DUP4 PUSH1 0x4 DUP2 GT ISZERO PUSH3 0x56C JUMPI PUSH3 0x56B PUSH3 0x1147 JUMP JUMPDEST JUMPDEST MUL OR SWAP1 SSTORE POP PUSH1 0x20 DUP3 ADD MLOAD DUP2 PUSH1 0x1 ADD SWAP1 DUP1 MLOAD SWAP1 PUSH1 0x20 ADD SWAP1 PUSH3 0x58F SWAP3 SWAP2 SWAP1 PUSH3 0xE4E JUMP JUMPDEST POP PUSH1 0x40 DUP3 ADD MLOAD DUP2 PUSH1 0x2 ADD SSTORE PUSH1 0x60 DUP3 ADD MLOAD DUP2 PUSH1 0x3 ADD SSTORE SWAP1 POP POP DUP1 PUSH1 0x5 DUP2 SWAP1 SSTORE POP PUSH1 0x0 PUSH20 0x5B38DA6A701C568545DCFCB03FCB875F56BEDDC4 SWAP1 POP PUSH1 0x0 PUSH20 0xAB8483F64D9C6D1ECF9B849AE677DD3315835CB2 SWAP1 POP PUSH1 0x0 PUSH20 0xAB8483F64D9C6D1ECF9B849AE677DD3315835CB2 SWAP1 POP PUSH1 0x40 MLOAD DUP1 PUSH1 0x80 ADD PUSH1 0x40 MSTORE DUP1 PUSH1 0x0 PUSH1 0x4 DUP2 GT ISZERO PUSH3 0x61B JUMPI PUSH3 0x61A PUSH3 0x1147 JUMP JUMPDEST JUMPDEST DUP2 MSTORE PUSH1 0x20 ADD PUSH1 0x40 MLOAD DUP1 PUSH1 0x40 ADD PUSH1 0x40 MSTORE DUP1 PUSH1 0x5 DUP2 MSTORE PUSH1 0x20 ADD PUSH32 0x6F776E6572000000000000000000000000000000000000000000000000000000 DUP2 MSTORE POP DUP2 MSTORE PUSH1 0x20 ADD PUSH3 0x6A1 PUSH1 0x40 MLOAD DUP1 PUSH1 0x40 ADD PUSH1 0x40 MSTORE DUP1 PUSH1 0x4 DUP2 MSTORE PUSH1 0x20 ADD PUSH32 0x3334313200000000000000000000000000000000000000000000000000000000 DUP2 MSTORE POP PUSH3 0xBBD PUSH1 0x20 SHL PUSH1 0x20 SHR JUMP JUMPDEST DUP2 MSTORE PUSH1 0x20 ADD PUSH1 0x5 SLOAD DUP2 MSTORE POP PUSH1 0x0 DUP1 DUP6 PUSH20 0xFFFFFFFFFFFFFFFFFFFFFFFFFFFFFFFFFFFFFFFF AND PUSH20 0xFFFFFFFFFFFFFFFFFFFFFFFFFFFFFFFFFFFFFFFF AND DUP2 MSTORE PUSH1 0x20 ADD SWAP1 DUP2 MSTORE PUSH1 0x20 ADD PUSH1 0x0 KECCAK256 PUSH1 0x0 DUP3 ADD MLOAD DUP2 PUSH1 0x0 ADD PUSH1 0x0 PUSH2 0x100 EXP DUP2 SLOAD DUP2 PUSH1 0xFF MUL NOT AND SWAP1 DUP4 PUSH1 0x4 DUP2 GT ISZERO PUSH3 0x718 JUMPI PUSH3 0x717 PUSH3 0x1147 JUMP JUMPDEST JUMPDEST MUL OR SWAP1 SSTORE POP PUSH1 0x20 DUP3 ADD MLOAD DUP2 PUSH1 0x1 ADD SWAP1 DUP1 MLOAD SWAP1 PUSH1 0x20 ADD SWAP1 PUSH3 0x73B SWAP3 SWAP2 SWAP1 PUSH3 0xE4E JUMP JUMPDEST POP PUSH1 0x40 DUP3 ADD MLOAD DUP2 PUSH1 0x2 ADD SSTORE PUSH1 0x60 DUP3 ADD MLOAD DUP2 PUSH1 0x3 ADD SSTORE SWAP1 POP POP PUSH1 0x40 MLOAD DUP1 PUSH1 0x80 ADD PUSH1 0x40 MSTORE DUP1 PUSH1 0x2 PUSH1 0x4 DUP2 GT ISZERO PUSH3 0x775 JUMPI PUSH3 0x774 PUSH3 0x1147 JUMP JUMPDEST JUMPDEST DUP2 MSTORE PUSH1 0x20 ADD PUSH1 0x40 MLOAD DUP1 PUSH1 0x40 ADD PUSH1 0x40 MSTORE DUP1 PUSH1 0x10 DUP2 MSTORE PUSH1 0x20 ADD PUSH32 0x507269766174652070726F766964657200000000000000000000000000000000 DUP2 MSTORE POP DUP2 MSTORE PUSH1 0x20 ADD PUSH3 0x7FB PUSH1 0x40 MLOAD DUP1 PUSH1 0x40 ADD PUSH1 0x40 MSTORE DUP1 PUSH1 0x4 DUP2 MSTORE PUSH1 0x20 ADD PUSH32 0x3134323300000000000000000000000000000000000000000000000000000000 DUP2 MSTORE POP PUSH3 0xBBD PUSH1 0x20 SHL PUSH1 0x20 SHR JUMP JUMPDEST DUP2 MSTORE PUSH1 0x20 ADD PUSH1 0x0 DUP2 MSTORE POP PUSH1 0x0 DUP1 DUP5 PUSH20 0xFFFFFFFFFFFFFFFFFFFFFFFFFFFFFFFFFFFFFFFF AND PUSH20 0xFFFFFFFFFFFFFFFFFFFFFFFFFFFFFFFFFFFFFFFF AND DUP2 MSTORE PUSH1 0x20 ADD SWAP1 DUP2 MSTORE PUSH1 0x20 ADD PUSH1 0x0 KECCAK256 PUSH1 0x0 DUP3 ADD MLOAD DUP2 PUSH1 0x0 ADD PUSH1 0x0 PUSH2 0x100 EXP DUP2 SLOAD DUP2 PUSH1 0xFF MUL NOT AND SWAP1 DUP4 PUSH1 0x4 DUP2 GT ISZERO PUSH3 0x871 JUMPI PUSH3 0x870 PUSH3 0x1147 JUMP JUMPDEST JUMPDEST MUL OR SWAP1 SSTORE POP PUSH1 0x20 DUP3 ADD MLOAD DUP2 PUSH1 0x1 ADD SWAP1 DUP1 MLOAD SWAP1 PUSH1 0x20 ADD SWAP1 PUSH3 0x894 SWAP3 SWAP2 SWAP1 PUSH3 0xE4E JUMP JUMPDEST POP PUSH1 0x40 DUP3 ADD MLOAD DUP2 PUSH1 0x2 ADD SSTORE PUSH1 0x60 DUP3 ADD MLOAD DUP2 PUSH1 0x3 ADD SSTORE SWAP1 POP POP PUSH1 0x5 SLOAD PUSH1 0x4 PUSH1 0x0 DUP6 PUSH20 0xFFFFFFFFFFFFFFFFFFFFFFFFFFFFFFFFFFFFFFFF AND PUSH20 0xFFFFFFFFFFFFFFFFFFFFFFFFFFFFFFFFFFFFFFFF AND DUP2 MSTORE PUSH1 0x20 ADD SWAP1 DUP2 MSTORE PUSH1 0x20 ADD PUSH1 0x0 KECCAK256 PUSH1 0x0 DUP5 PUSH20 0xFFFFFFFFFFFFFFFFFFFFFFFFFFFFFFFFFFFFFFFF AND PUSH20 0xFFFFFFFFFFFFFFFFFFFFFFFFFFFFFFFFFFFFFFFF AND DUP2 MSTORE PUSH1 0x20 ADD SWAP1 DUP2 MSTORE PUSH1 0x20 ADD PUSH1 0x0 KECCAK256 DUP2 SWAP1 SSTORE POP PUSH1 0x40 MLOAD DUP1 PUSH1 0x80 ADD PUSH1 0x40 MSTORE DUP1 PUSH1 0x1 PUSH1 0x4 DUP2 GT ISZERO PUSH3 0x951 JUMPI PUSH3 0x950 PUSH3 0x1147 JUMP JUMPDEST JUMPDEST DUP2 MSTORE PUSH1 0x20 ADD PUSH1 0x40 MLOAD DUP1 PUSH1 0x40 ADD PUSH1 0x40 MSTORE DUP1 PUSH1 0xF DUP2 MSTORE PUSH1 0x20 ADD PUSH32 0x5075626C69632070726F76696465720000000000000000000000000000000000 DUP2 MSTORE POP DUP2 MSTORE PUSH1 0x20 ADD PUSH3 0x9D7 PUSH1 0x40 MLOAD DUP1 PUSH1 0x40 ADD PUSH1 0x40 MSTORE DUP1 PUSH1 0x4 DUP2 MSTORE PUSH1 0x20 ADD PUSH32 0x3233313400000000000000000000000000000000000000000000000000000000 DUP2 MSTORE POP PUSH3 0xBBD PUSH1 0x20 SHL PUSH1 0x20 SHR JUMP JUMPDEST DUP2 MSTORE PUSH1 0x20 ADD PUSH1 0x0 DUP2 MSTORE POP PUSH1 0x0 DUP1 DUP4 PUSH20 0xFFFFFFFFFFFFFFFFFFFFFFFFFFFFFFFFFFFFFFFF AND PUSH20 0xFFFFFFFFFFFFFFFFFFFFFFFFFFFFFFFFFFFFFFFF AND DUP2 MSTORE PUSH1 0x20 ADD SWAP1 DUP2 MSTORE PUSH1 0x20 ADD PUSH1 0x0 KECCAK256 PUSH1 0x0 DUP3 ADD MLOAD DUP2 PUSH1 0x0 ADD PUSH1 0x0 PUSH2 0x100 EXP DUP2 SLOAD DUP2 PUSH1 0xFF MUL NOT AND SWAP1 DUP4 PUSH1 0x4 DUP2 GT ISZERO PUSH3 0xA4D JUMPI PUSH3 0xA4C PUSH3 0x1147 JUMP JUMPDEST JUMPDEST MUL OR SWAP1 SSTORE POP PUSH1 0x20 DUP3 ADD MLOAD DUP2 PUSH1 0x1 ADD SWAP1 DUP1 MLOAD SWAP1 PUSH1 0x20 ADD SWAP1 PUSH3 0xA70 SWAP3 SWAP2 SWAP1 PUSH3 0xE4E JUMP JUMPDEST POP PUSH1 0x40 DUP3 ADD MLOAD DUP2 PUSH1 0x2 ADD SSTORE PUSH1 0x60 DUP3 ADD MLOAD DUP2 PUSH1 0x3 ADD SSTORE SWAP1 POP POP PUSH1 0x5 SLOAD PUSH1 0x4 PUSH1 0x0 DUP6 PUSH20 0xFFFFFFFFFFFFFFFFFFFFFFFFFFFFFFFFFFFFFFFF AND PUSH20 0xFFFFFFFFFFFFFFFFFFFFFFFFFFFFFFFFFFFFFFFF AND DUP2 MSTORE PUSH1 0x20 ADD SWAP1 DUP2 MSTORE PUSH1 0x20 ADD PUSH1 0x0 KECCAK256 PUSH1 0x0 DUP4 PUSH20 0xFFFFFFFFFFFFFFFFFFFFFFFFFFFFFFFFFFFFFFFF AND PUSH20 0xFFFFFFFFFFFFFFFFFFFFFFFFFFFFFFFFFFFFFFFF AND DUP2 MSTORE PUSH1 0x20 ADD SWAP1 DUP2 MSTORE PUSH1 0x20 ADD PUSH1 0x0 KECCAK256 DUP2 SWAP1 SSTORE POP PUSH3 0xB42 PUSH1 0x1 PUSH1 0x0 SWAP1 SLOAD SWAP1 PUSH2 0x100 EXP SWAP1 DIV PUSH20 0xFFFFFFFFFFFFFFFFFFFFFFFFFFFFFFFFFFFFFFFF AND PUSH3 0x927C0 PUSH3 0xBEF PUSH1 0x20 SHL PUSH1 0x20 SHR JUMP JUMPDEST POP PUSH3 0xB7A PUSH1 0x2 PUSH1 0x0 SWAP1 SLOAD SWAP1 PUSH2 0x100 EXP SWAP1 DIV PUSH20 0xFFFFFFFFFFFFFFFFFFFFFFFFFFFFFFFFFFFFFFFF AND PUSH3 0xC3500 PUSH3 0xBEF PUSH1 0x20 SHL PUSH1 0x20 SHR JUMP JUMPDEST POP PUSH3 0xBB2 PUSH1 0x3 PUSH1 0x0 SWAP1 SLOAD SWAP1 PUSH2 0x100 EXP SWAP1 DIV PUSH20 0xFFFFFFFFFFFFFFFFFFFFFFFFFFFFFFFFFFFFFFFF AND PUSH3 0x61A80 PUSH3 0xBEF PUSH1 0x20 SHL PUSH1 0x20 SHR JUMP JUMPDEST POP POP POP POP POP PUSH3 0x11C4 JUMP JUMPDEST PUSH1 0x0 DUP2 PUSH1 0x40 MLOAD PUSH1 0x20 ADD PUSH3 0xBD2 SWAP2 SWAP1 PUSH3 0xF8F JUMP JUMPDEST PUSH1 0x40 MLOAD PUSH1 0x20 DUP2 DUP4 SUB SUB DUP2 MSTORE SWAP1 PUSH1 0x40 MSTORE DUP1 MLOAD SWAP1 PUSH1 0x20 ADD KECCAK256 SWAP1 POP SWAP2 SWAP1 POP JUMP JUMPDEST PUSH1 0x0 DUP1 PUSH1 0x0 CALLER PUSH20 0xFFFFFFFFFFFFFFFFFFFFFFFFFFFFFFFFFFFFFFFF AND PUSH20 0xFFFFFFFFFFFFFFFFFFFFFFFFFFFFFFFFFFFFFFFF AND DUP2 MSTORE PUSH1 0x20 ADD SWAP1 DUP2 MSTORE PUSH1 0x20 ADD PUSH1 0x0 KECCAK256 PUSH1 0x3 ADD SLOAD DUP3 GT ISZERO PUSH3 0xC40 JUMPI PUSH1 0x0 DUP1 REVERT JUMPDEST PUSH3 0xC9B DUP3 PUSH1 0x0 DUP1 CALLER PUSH20 0xFFFFFFFFFFFFFFFFFFFFFFFFFFFFFFFFFFFFFFFF AND PUSH20 0xFFFFFFFFFFFFFFFFFFFFFFFFFFFFFFFFFFFFFFFF AND DUP2 MSTORE PUSH1 0x20 ADD SWAP1 DUP2 MSTORE PUSH1 0x20 ADD PUSH1 0x0 KECCAK256 PUSH1 0x3 ADD SLOAD PUSH3 0xDF1 PUSH1 0x20 SHL PUSH3 0xC3B OR SWAP1 SWAP2 SWAP1 PUSH1 0x20 SHR JUMP JUMPDEST PUSH1 0x0 DUP1 CALLER PUSH20 0xFFFFFFFFFFFFFFFFFFFFFFFFFFFFFFFFFFFFFFFF AND PUSH20 0xFFFFFFFFFFFFFFFFFFFFFFFFFFFFFFFFFFFFFFFF AND DUP2 MSTORE PUSH1 0x20 ADD SWAP1 DUP2 MSTORE PUSH1 0x20 ADD PUSH1 0x0 KECCAK256 PUSH1 0x3 ADD DUP2 SWAP1 SSTORE POP PUSH3 0xD3B DUP3 PUSH1 0x0 DUP1 DUP7 PUSH20 0xFFFFFFFFFFFFFFFFFFFFFFFFFFFFFFFFFFFFFFFF AND PUSH20 0xFFFFFFFFFFFFFFFFFFFFFFFFFFFFFFFFFFFFFFFF AND DUP2 MSTORE PUSH1 0x20 ADD SWAP1 DUP2 MSTORE PUSH1 0x20 ADD PUSH1 0x0 KECCAK256 PUSH1 0x3 ADD SLOAD PUSH3 0xE1D PUSH1 0x20 SHL PUSH3 0xC62 OR SWAP1 SWAP2 SWAP1 PUSH1 0x20 SHR JUMP JUMPDEST PUSH1 0x0 DUP1 DUP6 PUSH20 0xFFFFFFFFFFFFFFFFFFFFFFFFFFFFFFFFFFFFFFFF AND PUSH20 0xFFFFFFFFFFFFFFFFFFFFFFFFFFFFFFFFFFFFFFFF AND DUP2 MSTORE PUSH1 0x20 ADD SWAP1 DUP2 MSTORE PUSH1 0x20 ADD PUSH1 0x0 KECCAK256 PUSH1 0x3 ADD DUP2 SWAP1 SSTORE POP DUP3 PUSH20 0xFFFFFFFFFFFFFFFFFFFFFFFFFFFFFFFFFFFFFFFF AND CALLER PUSH20 0xFFFFFFFFFFFFFFFFFFFFFFFFFFFFFFFFFFFFFFFF AND PUSH32 0xDDF252AD1BE2C89B69C2B068FC378DAA952BA7F163C4A11628F55A4DF523B3EF DUP5 PUSH1 0x40 MLOAD PUSH3 0xDDF SWAP2 SWAP1 PUSH3 0xFA8 JUMP JUMPDEST PUSH1 0x40 MLOAD DUP1 SWAP2 SUB SWAP1 LOG3 PUSH1 0x1 SWAP1 POP SWAP3 SWAP2 POP POP JUMP JUMPDEST PUSH1 0x0 DUP3 DUP3 GT ISZERO PUSH3 0xE07 JUMPI PUSH3 0xE06 PUSH3 0x10E9 JUMP JUMPDEST JUMPDEST DUP2 DUP4 PUSH3 0xE15 SWAP2 SWAP1 PUSH3 0x1038 JUMP JUMPDEST SWAP1 POP SWAP3 SWAP2 POP POP JUMP JUMPDEST PUSH1 0x0 DUP1 DUP3 DUP5 PUSH3 0xE2E SWAP2 SWAP1 PUSH3 0xFDB JUMP JUMPDEST SWAP1 POP DUP4 DUP2 LT ISZERO PUSH3 0xE44 JUMPI PUSH3 0xE43 PUSH3 0x10E9 JUMP JUMPDEST JUMPDEST DUP1 SWAP2 POP POP SWAP3 SWAP2 POP POP JUMP JUMPDEST DUP3 DUP1 SLOAD PUSH3 0xE5C SWAP1 PUSH3 0x10B3 JUMP JUMPDEST SWAP1 PUSH1 0x0 MSTORE PUSH1 0x20 PUSH1 0x0 KECCAK256 SWAP1 PUSH1 0x1F ADD PUSH1 0x20 SWAP1 DIV DUP2 ADD SWAP3 DUP3 PUSH3 0xE80 JUMPI PUSH1 0x0 DUP6 SSTORE PUSH3 0xECC JUMP JUMPDEST DUP3 PUSH1 0x1F LT PUSH3 0xE9B JUMPI DUP1 MLOAD PUSH1 0xFF NOT AND DUP4 DUP1 ADD OR DUP6 SSTORE PUSH3 0xECC JUMP JUMPDEST DUP3 DUP1 ADD PUSH1 0x1 ADD DUP6 SSTORE DUP3 ISZERO PUSH3 0xECC JUMPI SWAP2 DUP3 ADD JUMPDEST DUP3 DUP2 GT ISZERO PUSH3 0xECB JUMPI DUP3 MLOAD DUP3 SSTORE SWAP2 PUSH1 0x20 ADD SWAP2 SWAP1 PUSH1 0x1 ADD SWAP1 PUSH3 0xEAE JUMP JUMPDEST JUMPDEST POP SWAP1 POP PUSH3 0xEDB SWAP2 SWAP1 PUSH3 0xEDF JUMP JUMPDEST POP SWAP1 JUMP JUMPDEST JUMPDEST DUP1 DUP3 GT ISZERO PUSH3 0xEFA JUMPI PUSH1 0x0 DUP2 PUSH1 0x0 SWAP1 SSTORE POP PUSH1 0x1 ADD PUSH3 0xEE0 JUMP JUMPDEST POP SWAP1 JUMP JUMPDEST PUSH1 0x0 DUP2 MLOAD SWAP1 POP PUSH3 0xF0F DUP2 PUSH3 0x11AA JUMP JUMPDEST SWAP3 SWAP2 POP POP JUMP JUMPDEST PUSH1 0x0 PUSH1 0x20 DUP3 DUP5 SUB SLT ISZERO PUSH3 0xF2E JUMPI PUSH3 0xF2D PUSH3 0x11A5 JUMP JUMPDEST JUMPDEST PUSH1 0x0 PUSH3 0xF3E DUP5 DUP3 DUP6 ADD PUSH3 0xEFE JUMP JUMPDEST SWAP2 POP POP SWAP3 SWAP2 POP POP JUMP JUMPDEST PUSH1 0x0 PUSH3 0xF54 DUP3 PUSH3 0xFC5 JUMP JUMPDEST PUSH3 0xF60 DUP2 DUP6 PUSH3 0xFD0 JUMP JUMPDEST SWAP4 POP PUSH3 0xF72 DUP2 DUP6 PUSH1 0x20 DUP7 ADD PUSH3 0x107D JUMP JUMPDEST DUP1 DUP5 ADD SWAP2 POP POP SWAP3 SWAP2 POP POP JUMP JUMPDEST PUSH3 0xF89 DUP2 PUSH3 0x1073 JUMP JUMPDEST DUP3 MSTORE POP POP JUMP JUMPDEST PUSH1 0x0 PUSH3 0xF9D DUP3 DUP5 PUSH3 0xF47 JUMP JUMPDEST SWAP2 POP DUP2 SWAP1 POP SWAP3 SWAP2 POP POP JUMP JUMPDEST PUSH1 0x0 PUSH1 0x20 DUP3 ADD SWAP1 POP PUSH3 0xFBF PUSH1 0x0 DUP4 ADD DUP5 PUSH3 0xF7E JUMP JUMPDEST SWAP3 SWAP2 POP POP JUMP JUMPDEST PUSH1 0x0 DUP2 MLOAD SWAP1 POP SWAP2 SWAP1 POP JUMP JUMPDEST PUSH1 0x0 DUP2 SWAP1 POP SWAP3 SWAP2 POP POP JUMP JUMPDEST PUSH1 0x0 PUSH3 0xFE8 DUP3 PUSH3 0x1073 JUMP JUMPDEST SWAP2 POP PUSH3 0xFF5 DUP4 PUSH3 0x1073 JUMP JUMPDEST SWAP3 POP DUP3 PUSH32 0xFFFFFFFFFFFFFFFFFFFFFFFFFFFFFFFFFFFFFFFFFFFFFFFFFFFFFFFFFFFFFFFF SUB DUP3 GT ISZERO PUSH3 0x102D JUMPI PUSH3 0x102C PUSH3 0x1118 JUMP JUMPDEST JUMPDEST DUP3 DUP3 ADD SWAP1 POP SWAP3 SWAP2 POP POP JUMP JUMPDEST PUSH1 0x0 PUSH3 0x1045 DUP3 PUSH3 0x1073 JUMP JUMPDEST SWAP2 POP PUSH3 0x1052 DUP4 PUSH3 0x1073 JUMP JUMPDEST SWAP3 POP DUP3 DUP3 LT ISZERO PUSH3 0x1068 JUMPI PUSH3 0x1067 PUSH3 0x1118 JUMP JUMPDEST JUMPDEST DUP3 DUP3 SUB SWAP1 POP SWAP3 SWAP2 POP POP JUMP JUMPDEST PUSH1 0x0 DUP2 SWAP1 POP SWAP2 SWAP1 POP JUMP JUMPDEST PUSH1 0x0 JUMPDEST DUP4 DUP2 LT ISZERO PUSH3 0x109D JUMPI DUP1 DUP3 ADD MLOAD DUP2 DUP5 ADD MSTORE PUSH1 0x20 DUP2 ADD SWAP1 POP PUSH3 0x1080 JUMP JUMPDEST DUP4 DUP2 GT ISZERO PUSH3 0x10AD JUMPI PUSH1 0x0 DUP5 DUP5 ADD MSTORE JUMPDEST POP POP POP POP JUMP JUMPDEST PUSH1 0x0 PUSH1 0x2 DUP3 DIV SWAP1 POP PUSH1 0x1 DUP3 AND DUP1 PUSH3 0x10CC JUMPI PUSH1 0x7F DUP3 AND SWAP2 POP JUMPDEST PUSH1 0x20 DUP3 LT DUP2 EQ ISZERO PUSH3 0x10E3 JUMPI PUSH3 0x10E2 PUSH3 0x1176 JUMP JUMPDEST JUMPDEST POP SWAP2 SWAP1 POP JUMP JUMPDEST PUSH32 0x4E487B7100000000000000000000000000000000000000000000000000000000 PUSH1 0x0 MSTORE PUSH1 0x1 PUSH1 0x4 MSTORE PUSH1 0x24 PUSH1 0x0 REVERT JUMPDEST PUSH32 0x4E487B7100000000000000000000000000000000000000000000000000000000 PUSH1 0x0 MSTORE PUSH1 0x11 PUSH1 0x4 MSTORE PUSH1 0x24 PUSH1 0x0 REVERT JUMPDEST PUSH32 0x4E487B7100000000000000000000000000000000000000000000000000000000 PUSH1 0x0 MSTORE PUSH1 0x21 PUSH1 0x4 MSTORE PUSH1 0x24 PUSH1 0x0 REVERT JUMPDEST PUSH32 0x4E487B7100000000000000000000000000000000000000000000000000000000 PUSH1 0x0 MSTORE PUSH1 0x22 PUSH1 0x4 MSTORE PUSH1 0x24 PUSH1 0x0 REVERT JUMPDEST PUSH1 0x0 DUP1 REVERT JUMPDEST PUSH3 0x11B5 DUP2 PUSH3 0x1073 JUMP JUMPDEST DUP2 EQ PUSH3 0x11C1 JUMPI PUSH1 0x0 DUP1 REVERT JUMPDEST POP JUMP JUMPDEST PUSH2 0x1429 DUP1 PUSH3 0x11D4 PUSH1 0x0 CODECOPY PUSH1 0x0 RETURN INVALID PUSH1 0x80 PUSH1 0x40 MSTORE PUSH1 0x4 CALLDATASIZE LT PUSH2 0xC2 JUMPI PUSH1 0x0 CALLDATALOAD PUSH1 0xE0 SHR DUP1 PUSH4 0x70A08231 GT PUSH2 0x7F JUMPI DUP1 PUSH4 0x95D89B41 GT PUSH2 0x59 JUMPI DUP1 PUSH4 0x95D89B41 EQ PUSH2 0x290 JUMPI DUP1 PUSH4 0xA9059CBB EQ PUSH2 0x2BB JUMPI DUP1 PUSH4 0xD96A094A EQ PUSH2 0x2F8 JUMPI DUP1 PUSH4 0xDD62ED3E EQ PUSH2 0x314 JUMPI PUSH2 0xC2 JUMP JUMPDEST DUP1 PUSH4 0x70A08231 EQ PUSH2 0x1ED JUMPI DUP1 PUSH4 0x785963C3 EQ PUSH2 0x22A JUMPI DUP1 PUSH4 0x845952A8 EQ PUSH2 0x253 JUMPI PUSH2 0xC2 JUMP JUMPDEST DUP1 PUSH4 0x6FDDE03 EQ PUSH2 0xC7 JUMPI DUP1 PUSH4 0x761C8B9 EQ PUSH2 0xF2 JUMPI DUP1 PUSH4 0x95EA7B3 EQ PUSH2 0x11D JUMPI DUP1 PUSH4 0x18160DDD EQ PUSH2 0x15A JUMPI DUP1 PUSH4 0x23B872DD EQ PUSH2 0x185 JUMPI DUP1 PUSH4 0x313CE567 EQ PUSH2 0x1C2 JUMPI JUMPDEST PUSH1 0x0 DUP1 REVERT JUMPDEST CALLVALUE DUP1 ISZERO PUSH2 0xD3 JUMPI PUSH1 0x0 DUP1 REVERT JUMPDEST POP PUSH2 0xDC PUSH2 0x351 JUMP JUMPDEST PUSH1 0x40 MLOAD PUSH2 0xE9 SWAP2 SWAP1 PUSH2 0x103F JUMP JUMPDEST PUSH1 0x40 MLOAD DUP1 SWAP2 SUB SWAP1 RETURN JUMPDEST CALLVALUE DUP1 ISZERO PUSH2 0xFE JUMPI PUSH1 0x0 DUP1 REVERT JUMPDEST POP PUSH2 0x107 PUSH2 0x38A JUMP JUMPDEST PUSH1 0x40 MLOAD PUSH2 0x114 SWAP2 SWAP1 PUSH2 0x1081 JUMP JUMPDEST PUSH1 0x40 MLOAD DUP1 SWAP2 SUB SWAP1 RETURN JUMPDEST CALLVALUE DUP1 ISZERO PUSH2 0x129 JUMPI PUSH1 0x0 DUP1 REVERT JUMPDEST POP PUSH2 0x144 PUSH1 0x4 DUP1 CALLDATASIZE SUB DUP2 ADD SWAP1 PUSH2 0x13F SWAP2 SWAP1 PUSH2 0xDE8 JUMP JUMPDEST PUSH2 0x392 JUMP JUMPDEST PUSH1 0x40 MLOAD PUSH2 0x151 SWAP2 SWAP1 PUSH2 0x1009 JUMP JUMPDEST PUSH1 0x40 MLOAD DUP1 SWAP2 SUB SWAP1 RETURN JUMPDEST CALLVALUE DUP1 ISZERO PUSH2 0x166 JUMPI PUSH1 0x0 DUP1 REVERT JUMPDEST POP PUSH2 0x16F PUSH2 0x484 JUMP JUMPDEST PUSH1 0x40 MLOAD PUSH2 0x17C SWAP2 SWAP1 PUSH2 0x1081 JUMP JUMPDEST PUSH1 0x40 MLOAD DUP1 SWAP2 SUB SWAP1 RETURN JUMPDEST CALLVALUE DUP1 ISZERO PUSH2 0x191 JUMPI PUSH1 0x0 DUP1 REVERT JUMPDEST POP PUSH2 0x1AC PUSH1 0x4 DUP1 CALLDATASIZE SUB DUP2 ADD SWAP1 PUSH2 0x1A7 SWAP2 SWAP1 PUSH2 0xD95 JUMP JUMPDEST PUSH2 0x48E JUMP JUMPDEST PUSH1 0x40 MLOAD PUSH2 0x1B9 SWAP2 SWAP1 PUSH2 0x1009 JUMP JUMPDEST PUSH1 0x40 MLOAD DUP1 SWAP2 SUB SWAP1 RETURN JUMPDEST CALLVALUE DUP1 ISZERO PUSH2 0x1CE JUMPI PUSH1 0x0 DUP1 REVERT JUMPDEST POP PUSH2 0x1D7 PUSH2 0x818 JUMP JUMPDEST PUSH1 0x40 MLOAD PUSH2 0x1E4 SWAP2 SWAP1 PUSH2 0x109C JUMP JUMPDEST PUSH1 0x40 MLOAD DUP1 SWAP2 SUB SWAP1 RETURN JUMPDEST CALLVALUE DUP1 ISZERO PUSH2 0x1F9 JUMPI PUSH1 0x0 DUP1 REVERT JUMPDEST POP PUSH2 0x214 PUSH1 0x4 DUP1 CALLDATASIZE SUB DUP2 ADD SWAP1 PUSH2 0x20F SWAP2 SWAP1 PUSH2 0xD28 JUMP JUMPDEST PUSH2 0x81D JUMP JUMPDEST PUSH1 0x40 MLOAD PUSH2 0x221 SWAP2 SWAP1 PUSH2 0x1081 JUMP JUMPDEST PUSH1 0x40 MLOAD DUP1 SWAP2 SUB SWAP1 RETURN JUMPDEST CALLVALUE DUP1 ISZERO PUSH2 0x236 JUMPI PUSH1 0x0 DUP1 REVERT JUMPDEST POP PUSH2 0x251 PUSH1 0x4 DUP1 CALLDATASIZE SUB DUP2 ADD SWAP1 PUSH2 0x24C SWAP2 SWAP1 PUSH2 0xE71 JUMP JUMPDEST PUSH2 0x868 JUMP JUMPDEST STOP JUMPDEST CALLVALUE DUP1 ISZERO PUSH2 0x25F JUMPI PUSH1 0x0 DUP1 REVERT JUMPDEST POP PUSH2 0x27A PUSH1 0x4 DUP1 CALLDATASIZE SUB DUP2 ADD SWAP1 PUSH2 0x275 SWAP2 SWAP1 PUSH2 0xE28 JUMP JUMPDEST PUSH2 0x86D JUMP JUMPDEST PUSH1 0x40 MLOAD PUSH2 0x287 SWAP2 SWAP1 PUSH2 0x1024 JUMP JUMPDEST PUSH1 0x40 MLOAD DUP1 SWAP2 SUB SWAP1 RETURN JUMPDEST CALLVALUE DUP1 ISZERO PUSH2 0x29C JUMPI PUSH1 0x0 DUP1 REVERT JUMPDEST POP PUSH2 0x2A5 PUSH2 0x89D JUMP JUMPDEST PUSH1 0x40 MLOAD PUSH2 0x2B2 SWAP2 SWAP1 PUSH2 0x103F JUMP JUMPDEST PUSH1 0x40 MLOAD DUP1 SWAP2 SUB SWAP1 RETURN JUMPDEST CALLVALUE DUP1 ISZERO PUSH2 0x2C7 JUMPI PUSH1 0x0 DUP1 REVERT JUMPDEST POP PUSH2 0x2E2 PUSH1 0x4 DUP1 CALLDATASIZE SUB DUP2 ADD SWAP1 PUSH2 0x2DD SWAP2 SWAP1 PUSH2 0xDE8 JUMP JUMPDEST PUSH2 0x8D6 JUMP JUMPDEST PUSH1 0x40 MLOAD PUSH2 0x2EF SWAP2 SWAP1 PUSH2 0x1009 JUMP JUMPDEST PUSH1 0x40 MLOAD DUP1 SWAP2 SUB SWAP1 RETURN JUMPDEST PUSH2 0x312 PUSH1 0x4 DUP1 CALLDATASIZE SUB DUP2 ADD SWAP1 PUSH2 0x30D SWAP2 SWAP1 PUSH2 0xEFC JUMP JUMPDEST PUSH2 0xAC7 JUMP JUMPDEST STOP JUMPDEST CALLVALUE DUP1 ISZERO PUSH2 0x320 JUMPI PUSH1 0x0 DUP1 REVERT JUMPDEST POP PUSH2 0x33B PUSH1 0x4 DUP1 CALLDATASIZE SUB DUP2 ADD SWAP1 PUSH2 0x336 SWAP2 SWAP1 PUSH2 0xD55 JUMP JUMPDEST PUSH2 0xBB4 JUMP JUMPDEST PUSH1 0x40 MLOAD PUSH2 0x348 SWAP2 SWAP1 PUSH2 0x1081 JUMP JUMPDEST PUSH1 0x40 MLOAD DUP1 SWAP2 SUB SWAP1 RETURN JUMPDEST PUSH1 0x40 MLOAD DUP1 PUSH1 0x40 ADD PUSH1 0x40 MSTORE DUP1 PUSH1 0xD DUP2 MSTORE PUSH1 0x20 ADD PUSH32 0x43727970746F4D6F6E7374657200000000000000000000000000000000000000 DUP2 MSTORE POP DUP2 JUMP JUMPDEST PUSH4 0x3B9ACA00 DUP2 JUMP JUMPDEST PUSH1 0x0 DUP2 PUSH1 0x4 PUSH1 0x0 CALLER PUSH20 0xFFFFFFFFFFFFFFFFFFFFFFFFFFFFFFFFFFFFFFFF AND PUSH20 0xFFFFFFFFFFFFFFFFFFFFFFFFFFFFFFFFFFFFFFFF AND DUP2 MSTORE PUSH1 0x20 ADD SWAP1 DUP2 MSTORE PUSH1 0x20 ADD PUSH1 0x0 KECCAK256 PUSH1 0x0 DUP6 PUSH20 0xFFFFFFFFFFFFFFFFFFFFFFFFFFFFFFFFFFFFFFFF AND PUSH20 0xFFFFFFFFFFFFFFFFFFFFFFFFFFFFFFFFFFFFFFFF AND DUP2 MSTORE PUSH1 0x20 ADD SWAP1 DUP2 MSTORE PUSH1 0x20 ADD PUSH1 0x0 KECCAK256 DUP2 SWAP1 SSTORE POP DUP3 PUSH20 0xFFFFFFFFFFFFFFFFFFFFFFFFFFFFFFFFFFFFFFFF AND CALLER PUSH20 0xFFFFFFFFFFFFFFFFFFFFFFFFFFFFFFFFFFFFFFFF AND PUSH32 0x8C5BE1E5EBEC7D5BD14F71427D1E84F3DD0314C0F7B2291E5B200AC8C7C3B925 DUP5 PUSH1 0x40 MLOAD PUSH2 0x472 SWAP2 SWAP1 PUSH2 0x1081 JUMP JUMPDEST PUSH1 0x40 MLOAD DUP1 SWAP2 SUB SWAP1 LOG3 PUSH1 0x1 SWAP1 POP SWAP3 SWAP2 POP POP JUMP JUMPDEST PUSH1 0x0 PUSH1 0x5 SLOAD SWAP1 POP SWAP1 JUMP JUMPDEST PUSH1 0x0 DUP1 PUSH1 0x0 DUP6 PUSH20 0xFFFFFFFFFFFFFFFFFFFFFFFFFFFFFFFFFFFFFFFF AND PUSH20 0xFFFFFFFFFFFFFFFFFFFFFFFFFFFFFFFFFFFFFFFF AND DUP2 MSTORE PUSH1 0x20 ADD SWAP1 DUP2 MSTORE PUSH1 0x20 ADD PUSH1 0x0 KECCAK256 PUSH1 0x3 ADD SLOAD DUP3 GT ISZERO PUSH2 0x4DE JUMPI PUSH1 0x0 DUP1 REVERT JUMPDEST PUSH1 0x4 PUSH1 0x0 DUP6 PUSH20 0xFFFFFFFFFFFFFFFFFFFFFFFFFFFFFFFFFFFFFFFF AND PUSH20 0xFFFFFFFFFFFFFFFFFFFFFFFFFFFFFFFFFFFFFFFF AND DUP2 MSTORE PUSH1 0x20 ADD SWAP1 DUP2 MSTORE PUSH1 0x20 ADD PUSH1 0x0 KECCAK256 PUSH1 0x0 CALLER PUSH20 0xFFFFFFFFFFFFFFFFFFFFFFFFFFFFFFFFFFFFFFFF AND PUSH20 0xFFFFFFFFFFFFFFFFFFFFFFFFFFFFFFFFFFFFFFFF AND DUP2 MSTORE PUSH1 0x20 ADD SWAP1 DUP2 MSTORE PUSH1 0x20 ADD PUSH1 0x0 KECCAK256 SLOAD DUP3 GT ISZERO PUSH2 0x567 JUMPI PUSH1 0x0 DUP1 REVERT JUMPDEST PUSH2 0x5BB DUP3 PUSH1 0x0 DUP1 DUP8 PUSH20 0xFFFFFFFFFFFFFFFFFFFFFFFFFFFFFFFFFFFFFFFF AND PUSH20 0xFFFFFFFFFFFFFFFFFFFFFFFFFFFFFFFFFFFFFFFF AND DUP2 MSTORE PUSH1 0x20 ADD SWAP1 DUP2 MSTORE PUSH1 0x20 ADD PUSH1 0x0 KECCAK256 PUSH1 0x3 ADD SLOAD PUSH2 0xC3B SWAP1 SWAP2 SWAP1 PUSH4 0xFFFFFFFF AND JUMP JUMPDEST PUSH1 0x0 DUP1 DUP7 PUSH20 0xFFFFFFFFFFFFFFFFFFFFFFFFFFFFFFFFFFFFFFFF AND PUSH20 0xFFFFFFFFFFFFFFFFFFFFFFFFFFFFFFFFFFFFFFFF AND DUP2 MSTORE PUSH1 0x20 ADD SWAP1 DUP2 MSTORE PUSH1 0x20 ADD PUSH1 0x0 KECCAK256 PUSH1 0x3 ADD DUP2 SWAP1 SSTORE POP PUSH2 0x68F DUP3 PUSH1 0x4 PUSH1 0x0 DUP8 PUSH20 0xFFFFFFFFFFFFFFFFFFFFFFFFFFFFFFFFFFFFFFFF AND PUSH20 0xFFFFFFFFFFFFFFFFFFFFFFFFFFFFFFFFFFFFFFFF AND DUP2 MSTORE PUSH1 0x20 ADD SWAP1 DUP2 MSTORE PUSH1 0x20 ADD PUSH1 0x0 KECCAK256 PUSH1 0x0 CALLER PUSH20 0xFFFFFFFFFFFFFFFFFFFFFFFFFFFFFFFFFFFFFFFF AND PUSH20 0xFFFFFFFFFFFFFFFFFFFFFFFFFFFFFFFFFFFFFFFF AND DUP2 MSTORE PUSH1 0x20 ADD SWAP1 DUP2 MSTORE PUSH1 0x20 ADD PUSH1 0x0 KECCAK256 SLOAD PUSH2 0xC3B SWAP1 SWAP2 SWAP1 PUSH4 0xFFFFFFFF AND JUMP JUMPDEST PUSH1 0x4 PUSH1 0x0 DUP7 PUSH20 0xFFFFFFFFFFFFFFFFFFFFFFFFFFFFFFFFFFFFFFFF AND PUSH20 0xFFFFFFFFFFFFFFFFFFFFFFFFFFFFFFFFFFFFFFFF AND DUP2 MSTORE PUSH1 0x20 ADD SWAP1 DUP2 MSTORE PUSH1 0x20 ADD PUSH1 0x0 KECCAK256 PUSH1 0x0 CALLER PUSH20 0xFFFFFFFFFFFFFFFFFFFFFFFFFFFFFFFFFFFFFFFF AND PUSH20 0xFFFFFFFFFFFFFFFFFFFFFFFFFFFFFFFFFFFFFFFF AND DUP2 MSTORE PUSH1 0x20 ADD SWAP1 DUP2 MSTORE PUSH1 0x20 ADD PUSH1 0x0 KECCAK256 DUP2 SWAP1 SSTORE POP PUSH2 0x763 DUP3 PUSH1 0x0 DUP1 DUP7 PUSH20 0xFFFFFFFFFFFFFFFFFFFFFFFFFFFFFFFFFFFFFFFF AND PUSH20 0xFFFFFFFFFFFFFFFFFFFFFFFFFFFFFFFFFFFFFFFF AND DUP2 MSTORE PUSH1 0x20 ADD SWAP1 DUP2 MSTORE PUSH1 0x20 ADD PUSH1 0x0 KECCAK256 PUSH1 0x3 ADD SLOAD PUSH2 0xC62 SWAP1 SWAP2 SWAP1 PUSH4 0xFFFFFFFF AND JUMP JUMPDEST PUSH1 0x0 DUP1 DUP6 PUSH20 0xFFFFFFFFFFFFFFFFFFFFFFFFFFFFFFFFFFFFFFFF AND PUSH20 0xFFFFFFFFFFFFFFFFFFFFFFFFFFFFFFFFFFFFFFFF AND DUP2 MSTORE PUSH1 0x20 ADD SWAP1 DUP2 MSTORE PUSH1 0x20 ADD PUSH1 0x0 KECCAK256 PUSH1 0x3 ADD DUP2 SWAP1 SSTORE POP DUP3 PUSH20 0xFFFFFFFFFFFFFFFFFFFFFFFFFFFFFFFFFFFFFFFF AND DUP5 PUSH20 0xFFFFFFFFFFFFFFFFFFFFFFFFFFFFFFFFFFFFFFFF AND PUSH32 0xDDF252AD1BE2C89B69C2B068FC378DAA952BA7F163C4A11628F55A4DF523B3EF DUP5 PUSH1 0x40 MLOAD PUSH2 0x805 SWAP2 SWAP1 PUSH2 0x1081 JUMP JUMPDEST PUSH1 0x40 MLOAD DUP1 SWAP2 SUB SWAP1 LOG3 PUSH1 0x1 SWAP1 POP SWAP4 SWAP3 POP POP POP JUMP JUMPDEST PUSH1 0xC DUP2 JUMP JUMPDEST PUSH1 0x0 DUP1 PUSH1 0x0 DUP4 PUSH20 0xFFFFFFFFFFFFFFFFFFFFFFFFFFFFFFFFFFFFFFFF AND PUSH20 0xFFFFFFFFFFFFFFFFFFFFFFFFFFFFFFFFFFFFFFFF AND DUP2 MSTORE PUSH1 0x20 ADD SWAP1 DUP2 MSTORE PUSH1 0x20 ADD PUSH1 0x0 KECCAK256 PUSH1 0x3 ADD SLOAD SWAP1 POP SWAP2 SWAP1 POP JUMP JUMPDEST POP POP POP JUMP JUMPDEST PUSH1 0x0 DUP2 PUSH1 0x40 MLOAD PUSH1 0x20 ADD PUSH2 0x880 SWAP2 SWAP1 PUSH2 0xFF2 JUMP JUMPDEST PUSH1 0x40 MLOAD PUSH1 0x20 DUP2 DUP4 SUB SUB DUP2 MSTORE SWAP1 PUSH1 0x40 MSTORE DUP1 MLOAD SWAP1 PUSH1 0x20 ADD KECCAK256 SWAP1 POP SWAP2 SWAP1 POP JUMP JUMPDEST PUSH1 0x40 MLOAD DUP1 PUSH1 0x40 ADD PUSH1 0x40 MSTORE DUP1 PUSH1 0x4 DUP2 MSTORE PUSH1 0x20 ADD PUSH32 0x434D4F4E00000000000000000000000000000000000000000000000000000000 DUP2 MSTORE POP DUP2 JUMP JUMPDEST PUSH1 0x0 DUP1 PUSH1 0x0 CALLER PUSH20 0xFFFFFFFFFFFFFFFFFFFFFFFFFFFFFFFFFFFFFFFF AND PUSH20 0xFFFFFFFFFFFFFFFFFFFFFFFFFFFFFFFFFFFFFFFF AND DUP2 MSTORE PUSH1 0x20 ADD SWAP1 DUP2 MSTORE PUSH1 0x20 ADD PUSH1 0x0 KECCAK256 PUSH1 0x3 ADD SLOAD DUP3 GT ISZERO PUSH2 0x926 JUMPI PUSH1 0x0 DUP1 REVERT JUMPDEST PUSH2 0x97A DUP3 PUSH1 0x0 DUP1 CALLER PUSH20 0xFFFFFFFFFFFFFFFFFFFFFFFFFFFFFFFFFFFFFFFF AND PUSH20 0xFFFFFFFFFFFFFFFFFFFFFFFFFFFFFFFFFFFFFFFF AND DUP2 MSTORE PUSH1 0x20 ADD SWAP1 DUP2 MSTORE PUSH1 0x20 ADD PUSH1 0x0 KECCAK256 PUSH1 0x3 ADD SLOAD PUSH2 0xC3B SWAP1 SWAP2 SWAP1 PUSH4 0xFFFFFFFF AND JUMP JUMPDEST PUSH1 0x0 DUP1 CALLER PUSH20 0xFFFFFFFFFFFFFFFFFFFFFFFFFFFFFFFFFFFFFFFF AND PUSH20 0xFFFFFFFFFFFFFFFFFFFFFFFFFFFFFFFFFFFFFFFF AND DUP2 MSTORE PUSH1 0x20 ADD SWAP1 DUP2 MSTORE PUSH1 0x20 ADD PUSH1 0x0 KECCAK256 PUSH1 0x3 ADD DUP2 SWAP1 SSTORE POP PUSH2 0xA13 DUP3 PUSH1 0x0 DUP1 DUP7 PUSH20 0xFFFFFFFFFFFFFFFFFFFFFFFFFFFFFFFFFFFFFFFF AND PUSH20 0xFFFFFFFFFFFFFFFFFFFFFFFFFFFFFFFFFFFFFFFF AND DUP2 MSTORE PUSH1 0x20 ADD SWAP1 DUP2 MSTORE PUSH1 0x20 ADD PUSH1 0x0 KECCAK256 PUSH1 0x3 ADD SLOAD PUSH2 0xC62 SWAP1 SWAP2 SWAP1 PUSH4 0xFFFFFFFF AND JUMP JUMPDEST PUSH1 0x0 DUP1 DUP6 PUSH20 0xFFFFFFFFFFFFFFFFFFFFFFFFFFFFFFFFFFFFFFFF AND PUSH20 0xFFFFFFFFFFFFFFFFFFFFFFFFFFFFFFFFFFFFFFFF AND DUP2 MSTORE PUSH1 0x20 ADD SWAP1 DUP2 MSTORE PUSH1 0x20 ADD PUSH1 0x0 KECCAK256 PUSH1 0x3 ADD DUP2 SWAP1 SSTORE POP DUP3 PUSH20 0xFFFFFFFFFFFFFFFFFFFFFFFFFFFFFFFFFFFFFFFF AND CALLER PUSH20 0xFFFFFFFFFFFFFFFFFFFFFFFFFFFFFFFFFFFFFFFF AND PUSH32 0xDDF252AD1BE2C89B69C2B068FC378DAA952BA7F163C4A11628F55A4DF523B3EF DUP5 PUSH1 0x40 MLOAD PUSH2 0xAB5 SWAP2 SWAP1 PUSH2 0x1081 JUMP JUMPDEST PUSH1 0x40 MLOAD DUP1 SWAP2 SUB SWAP1 LOG3 PUSH1 0x1 SWAP1 POP SWAP3 SWAP2 POP POP JUMP JUMPDEST PUSH4 0x3B9ACA00 DUP2 PUSH2 0xAD7 SWAP2 SWAP1 PUSH2 0x118A JUMP JUMPDEST CALLVALUE EQ PUSH2 0xB18 JUMPI PUSH1 0x40 MLOAD PUSH32 0x8C379A000000000000000000000000000000000000000000000000000000000 DUP2 MSTORE PUSH1 0x4 ADD PUSH2 0xB0F SWAP1 PUSH2 0x1061 JUMP JUMPDEST PUSH1 0x40 MLOAD DUP1 SWAP2 SUB SWAP1 REVERT JUMPDEST PUSH2 0xB6C DUP2 PUSH1 0x0 DUP1 CALLER PUSH20 0xFFFFFFFFFFFFFFFFFFFFFFFFFFFFFFFFFFFFFFFF AND PUSH20 0xFFFFFFFFFFFFFFFFFFFFFFFFFFFFFFFFFFFFFFFF AND DUP2 MSTORE PUSH1 0x20 ADD SWAP1 DUP2 MSTORE PUSH1 0x20 ADD PUSH1 0x0 KECCAK256 PUSH1 0x3 ADD SLOAD PUSH2 0xC62 SWAP1 SWAP2 SWAP1 PUSH4 0xFFFFFFFF AND JUMP JUMPDEST PUSH1 0x0 DUP1 CALLER PUSH20 0xFFFFFFFFFFFFFFFFFFFFFFFFFFFFFFFFFFFFFFFF AND PUSH20 0xFFFFFFFFFFFFFFFFFFFFFFFFFFFFFFFFFFFFFFFF AND DUP2 MSTORE PUSH1 0x20 ADD SWAP1 DUP2 MSTORE PUSH1 0x20 ADD PUSH1 0x0 KECCAK256 PUSH1 0x3 ADD DUP2 SWAP1 SSTORE POP POP JUMP JUMPDEST PUSH1 0x0 PUSH1 0x4 PUSH1 0x0 DUP5 PUSH20 0xFFFFFFFFFFFFFFFFFFFFFFFFFFFFFFFFFFFFFFFF AND PUSH20 0xFFFFFFFFFFFFFFFFFFFFFFFFFFFFFFFFFFFFFFFF AND DUP2 MSTORE PUSH1 0x20 ADD SWAP1 DUP2 MSTORE PUSH1 0x20 ADD PUSH1 0x0 KECCAK256 PUSH1 0x0 DUP4 PUSH20 0xFFFFFFFFFFFFFFFFFFFFFFFFFFFFFFFFFFFFFFFF AND PUSH20 0xFFFFFFFFFFFFFFFFFFFFFFFFFFFFFFFFFFFFFFFF AND DUP2 MSTORE PUSH1 0x20 ADD SWAP1 DUP2 MSTORE PUSH1 0x20 ADD PUSH1 0x0 KECCAK256 SLOAD SWAP1 POP SWAP3 SWAP2 POP POP JUMP JUMPDEST PUSH1 0x0 DUP3 DUP3 GT ISZERO PUSH2 0xC4E JUMPI PUSH2 0xC4D PUSH2 0x12EA JUMP JUMPDEST JUMPDEST DUP2 DUP4 PUSH2 0xC5A SWAP2 SWAP1 PUSH2 0x11E4 JUMP JUMPDEST SWAP1 POP SWAP3 SWAP2 POP POP JUMP JUMPDEST PUSH1 0x0 DUP1 DUP3 DUP5 PUSH2 0xC71 SWAP2 SWAP1 PUSH2 0x1134 JUMP JUMPDEST SWAP1 POP DUP4 DUP2 LT ISZERO PUSH2 0xC84 JUMPI PUSH2 0xC83 PUSH2 0x12EA JUMP JUMPDEST JUMPDEST DUP1 SWAP2 POP POP SWAP3 SWAP2 POP POP JUMP JUMPDEST PUSH1 0x0 PUSH2 0xCA1 PUSH2 0xC9C DUP5 PUSH2 0x10DC JUMP JUMPDEST PUSH2 0x10B7 JUMP JUMPDEST SWAP1 POP DUP3 DUP2 MSTORE PUSH1 0x20 DUP2 ADD DUP5 DUP5 DUP5 ADD GT ISZERO PUSH2 0xCBD JUMPI PUSH2 0xCBC PUSH2 0x137C JUMP JUMPDEST JUMPDEST PUSH2 0xCC8 DUP5 DUP3 DUP6 PUSH2 0x1277 JUMP JUMPDEST POP SWAP4 SWAP3 POP POP POP JUMP JUMPDEST PUSH1 0x0 DUP2 CALLDATALOAD SWAP1 POP PUSH2 0xCDF DUP2 PUSH2 0x13C5 JUMP JUMPDEST SWAP3 SWAP2 POP POP JUMP JUMPDEST PUSH1 0x0 DUP3 PUSH1 0x1F DUP4 ADD SLT PUSH2 0xCFA JUMPI PUSH2 0xCF9 PUSH2 0x1377 JUMP JUMPDEST JUMPDEST DUP2 CALLDATALOAD PUSH2 0xD0A DUP5 DUP3 PUSH1 0x20 DUP7 ADD PUSH2 0xC8E JUMP JUMPDEST SWAP2 POP POP SWAP3 SWAP2 POP POP JUMP JUMPDEST PUSH1 0x0 DUP2 CALLDATALOAD SWAP1 POP PUSH2 0xD22 DUP2 PUSH2 0x13DC JUMP JUMPDEST SWAP3 SWAP2 POP POP JUMP JUMPDEST PUSH1 0x0 PUSH1 0x20 DUP3 DUP5 SUB SLT ISZERO PUSH2 0xD3E JUMPI PUSH2 0xD3D PUSH2 0x1386 JUMP JUMPDEST JUMPDEST PUSH1 0x0 PUSH2 0xD4C DUP5 DUP3 DUP6 ADD PUSH2 0xCD0 JUMP JUMPDEST SWAP2 POP POP SWAP3 SWAP2 POP POP JUMP JUMPDEST PUSH1 0x0 DUP1 PUSH1 0x40 DUP4 DUP6 SUB SLT ISZERO PUSH2 0xD6C JUMPI PUSH2 0xD6B PUSH2 0x1386 JUMP JUMPDEST JUMPDEST PUSH1 0x0 PUSH2 0xD7A DUP6 DUP3 DUP7 ADD PUSH2 0xCD0 JUMP JUMPDEST SWAP3 POP POP PUSH1 0x20 PUSH2 0xD8B DUP6 DUP3 DUP7 ADD PUSH2 0xCD0 JUMP JUMPDEST SWAP2 POP POP SWAP3 POP SWAP3 SWAP1 POP JUMP JUMPDEST PUSH1 0x0 DUP1 PUSH1 0x0 PUSH1 0x60 DUP5 DUP7 SUB SLT ISZERO PUSH2 0xDAE JUMPI PUSH2 0xDAD PUSH2 0x1386 JUMP JUMPDEST JUMPDEST PUSH1 0x0 PUSH2 0xDBC DUP7 DUP3 DUP8 ADD PUSH2 0xCD0 JUMP JUMPDEST SWAP4 POP POP PUSH1 0x20 PUSH2 0xDCD DUP7 DUP3 DUP8 ADD PUSH2 0xCD0 JUMP JUMPDEST SWAP3 POP POP PUSH1 0x40 PUSH2 0xDDE DUP7 DUP3 DUP8 ADD PUSH2 0xD13 JUMP JUMPDEST SWAP2 POP POP SWAP3 POP SWAP3 POP SWAP3 JUMP JUMPDEST PUSH1 0x0 DUP1 PUSH1 0x40 DUP4 DUP6 SUB SLT ISZERO PUSH2 0xDFF JUMPI PUSH2 0xDFE PUSH2 0x1386 JUMP JUMPDEST JUMPDEST PUSH1 0x0 PUSH2 0xE0D DUP6 DUP3 DUP7 ADD PUSH2 0xCD0 JUMP JUMPDEST SWAP3 POP POP PUSH1 0x20 PUSH2 0xE1E DUP6 DUP3 DUP7 ADD PUSH2 0xD13 JUMP JUMPDEST SWAP2 POP POP SWAP3 POP SWAP3 SWAP1 POP JUMP JUMPDEST PUSH1 0x0 PUSH1 0x20 DUP3 DUP5 SUB SLT ISZERO PUSH2 0xE3E JUMPI PUSH2 0xE3D PUSH2 0x1386 JUMP JUMPDEST JUMPDEST PUSH1 0x0 DUP3 ADD CALLDATALOAD PUSH8 0xFFFFFFFFFFFFFFFF DUP2 GT ISZERO PUSH2 0xE5C JUMPI PUSH2 0xE5B PUSH2 0x1381 JUMP JUMPDEST JUMPDEST PUSH2 0xE68 DUP5 DUP3 DUP6 ADD PUSH2 0xCE5 JUMP JUMPDEST SWAP2 POP POP SWAP3 SWAP2 POP POP JUMP JUMPDEST PUSH1 0x0 DUP1 PUSH1 0x0 PUSH1 0x60 DUP5 DUP7 SUB SLT ISZERO PUSH2 0xE8A JUMPI PUSH2 0xE89 PUSH2 0x1386 JUMP JUMPDEST JUMPDEST PUSH1 0x0 DUP5 ADD CALLDATALOAD PUSH8 0xFFFFFFFFFFFFFFFF DUP2 GT ISZERO PUSH2 0xEA8 JUMPI PUSH2 0xEA7 PUSH2 0x1381 JUMP JUMPDEST JUMPDEST PUSH2 0xEB4 DUP7 DUP3 DUP8 ADD PUSH2 0xCE5 JUMP JUMPDEST SWAP4 POP POP PUSH1 0x20 DUP5 ADD CALLDATALOAD PUSH8 0xFFFFFFFFFFFFFFFF DUP2 GT ISZERO PUSH2 0xED5 JUMPI PUSH2 0xED4 PUSH2 0x1381 JUMP JUMPDEST JUMPDEST PUSH2 0xEE1 DUP7 DUP3 DUP8 ADD PUSH2 0xCE5 JUMP JUMPDEST SWAP3 POP POP PUSH1 0x40 PUSH2 0xEF2 DUP7 DUP3 DUP8 ADD PUSH2 0xCD0 JUMP JUMPDEST SWAP2 POP POP SWAP3 POP SWAP3 POP SWAP3 JUMP JUMPDEST PUSH1 0x0 PUSH1 0x20 DUP3 DUP5 SUB SLT ISZERO PUSH2 0xF12 JUMPI PUSH2 0xF11 PUSH2 0x1386 JUMP JUMPDEST JUMPDEST PUSH1 0x0 PUSH2 0xF20 DUP5 DUP3 DUP6 ADD PUSH2 0xD13 JUMP JUMPDEST SWAP2 POP POP SWAP3 SWAP2 POP POP JUMP JUMPDEST PUSH2 0xF32 DUP2 PUSH2 0x122A JUMP JUMPDEST DUP3 MSTORE POP POP JUMP JUMPDEST PUSH2 0xF41 DUP2 PUSH2 0x1236 JUMP JUMPDEST DUP3 MSTORE POP POP JUMP JUMPDEST PUSH1 0x0 PUSH2 0xF52 DUP3 PUSH2 0x110D JUMP JUMPDEST PUSH2 0xF5C DUP2 DUP6 PUSH2 0x1118 JUMP JUMPDEST SWAP4 POP PUSH2 0xF6C DUP2 DUP6 PUSH1 0x20 DUP7 ADD PUSH2 0x1286 JUMP JUMPDEST PUSH2 0xF75 DUP2 PUSH2 0x138B JUMP JUMPDEST DUP5 ADD SWAP2 POP POP SWAP3 SWAP2 POP POP JUMP JUMPDEST PUSH1 0x0 PUSH2 0xF8B DUP3 PUSH2 0x110D JUMP JUMPDEST PUSH2 0xF95 DUP2 DUP6 PUSH2 0x1129 JUMP JUMPDEST SWAP4 POP PUSH2 0xFA5 DUP2 DUP6 PUSH1 0x20 DUP7 ADD PUSH2 0x1286 JUMP JUMPDEST DUP1 DUP5 ADD SWAP2 POP POP SWAP3 SWAP2 POP POP JUMP JUMPDEST PUSH1 0x0 PUSH2 0xFBE PUSH1 0x20 DUP4 PUSH2 0x1118 JUMP JUMPDEST SWAP2 POP PUSH2 0xFC9 DUP3 PUSH2 0x139C JUMP JUMPDEST PUSH1 0x20 DUP3 ADD SWAP1 POP SWAP2 SWAP1 POP JUMP JUMPDEST PUSH2 0xFDD DUP2 PUSH2 0x1260 JUMP JUMPDEST DUP3 MSTORE POP POP JUMP JUMPDEST PUSH2 0xFEC DUP2 PUSH2 0x126A JUMP JUMPDEST DUP3 MSTORE POP POP JUMP JUMPDEST PUSH1 0x0 PUSH2 0xFFE DUP3 DUP5 PUSH2 0xF80 JUMP JUMPDEST SWAP2 POP DUP2 SWAP1 POP SWAP3 SWAP2 POP POP JUMP JUMPDEST PUSH1 0x0 PUSH1 0x20 DUP3 ADD SWAP1 POP PUSH2 0x101E PUSH1 0x0 DUP4 ADD DUP5 PUSH2 0xF29 JUMP JUMPDEST SWAP3 SWAP2 POP POP JUMP JUMPDEST PUSH1 0x0 PUSH1 0x20 DUP3 ADD SWAP1 POP PUSH2 0x1039 PUSH1 0x0 DUP4 ADD DUP5 PUSH2 0xF38 JUMP JUMPDEST SWAP3 SWAP2 POP POP JUMP JUMPDEST PUSH1 0x0 PUSH1 0x20 DUP3 ADD SWAP1 POP DUP2 DUP2 SUB PUSH1 0x0 DUP4 ADD MSTORE PUSH2 0x1059 DUP2 DUP5 PUSH2 0xF47 JUMP JUMPDEST SWAP1 POP SWAP3 SWAP2 POP POP JUMP JUMPDEST PUSH1 0x0 PUSH1 0x20 DUP3 ADD SWAP1 POP DUP2 DUP2 SUB PUSH1 0x0 DUP4 ADD MSTORE PUSH2 0x107A DUP2 PUSH2 0xFB1 JUMP JUMPDEST SWAP1 POP SWAP2 SWAP1 POP JUMP JUMPDEST PUSH1 0x0 PUSH1 0x20 DUP3 ADD SWAP1 POP PUSH2 0x1096 PUSH1 0x0 DUP4 ADD DUP5 PUSH2 0xFD4 JUMP JUMPDEST SWAP3 SWAP2 POP POP JUMP JUMPDEST PUSH1 0x0 PUSH1 0x20 DUP3 ADD SWAP1 POP PUSH2 0x10B1 PUSH1 0x0 DUP4 ADD DUP5 PUSH2 0xFE3 JUMP JUMPDEST SWAP3 SWAP2 POP POP JUMP JUMPDEST PUSH1 0x0 PUSH2 0x10C1 PUSH2 0x10D2 JUMP JUMPDEST SWAP1 POP PUSH2 0x10CD DUP3 DUP3 PUSH2 0x12B9 JUMP JUMPDEST SWAP2 SWAP1 POP JUMP JUMPDEST PUSH1 0x0 PUSH1 0x40 MLOAD SWAP1 POP SWAP1 JUMP JUMPDEST PUSH1 0x0 PUSH8 0xFFFFFFFFFFFFFFFF DUP3 GT ISZERO PUSH2 0x10F7 JUMPI PUSH2 0x10F6 PUSH2 0x1348 JUMP JUMPDEST JUMPDEST PUSH2 0x1100 DUP3 PUSH2 0x138B JUMP JUMPDEST SWAP1 POP PUSH1 0x20 DUP2 ADD SWAP1 POP SWAP2 SWAP1 POP JUMP JUMPDEST PUSH1 0x0 DUP2 MLOAD SWAP1 POP SWAP2 SWAP1 POP JUMP JUMPDEST PUSH1 0x0 DUP3 DUP3 MSTORE PUSH1 0x20 DUP3 ADD SWAP1 POP SWAP3 SWAP2 POP POP JUMP JUMPDEST PUSH1 0x0 DUP2 SWAP1 POP SWAP3 SWAP2 POP POP JUMP JUMPDEST PUSH1 0x0 PUSH2 0x113F DUP3 PUSH2 0x1260 JUMP JUMPDEST SWAP2 POP PUSH2 0x114A DUP4 PUSH2 0x1260 JUMP JUMPDEST SWAP3 POP DUP3 PUSH32 0xFFFFFFFFFFFFFFFFFFFFFFFFFFFFFFFFFFFFFFFFFFFFFFFFFFFFFFFFFFFFFFFF SUB DUP3 GT ISZERO PUSH2 0x117F JUMPI PUSH2 0x117E PUSH2 0x1319 JUMP JUMPDEST JUMPDEST DUP3 DUP3 ADD SWAP1 POP SWAP3 SWAP2 POP POP JUMP JUMPDEST PUSH1 0x0 PUSH2 0x1195 DUP3 PUSH2 0x1260 JUMP JUMPDEST SWAP2 POP PUSH2 0x11A0 DUP4 PUSH2 0x1260 JUMP JUMPDEST SWAP3 POP DUP2 PUSH32 0xFFFFFFFFFFFFFFFFFFFFFFFFFFFFFFFFFFFFFFFFFFFFFFFFFFFFFFFFFFFFFFFF DIV DUP4 GT DUP3 ISZERO ISZERO AND ISZERO PUSH2 0x11D9 JUMPI PUSH2 0x11D8 PUSH2 0x1319 JUMP JUMPDEST JUMPDEST DUP3 DUP3 MUL SWAP1 POP SWAP3 SWAP2 POP POP JUMP JUMPDEST PUSH1 0x0 PUSH2 0x11EF DUP3 PUSH2 0x1260 JUMP JUMPDEST SWAP2 POP PUSH2 0x11FA DUP4 PUSH2 0x1260 JUMP JUMPDEST SWAP3 POP DUP3 DUP3 LT ISZERO PUSH2 0x120D JUMPI PUSH2 0x120C PUSH2 0x1319 JUMP JUMPDEST JUMPDEST DUP3 DUP3 SUB SWAP1 POP SWAP3 SWAP2 POP POP JUMP JUMPDEST PUSH1 0x0 PUSH2 0x1223 DUP3 PUSH2 0x1240 JUMP JUMPDEST SWAP1 POP SWAP2 SWAP1 POP JUMP JUMPDEST PUSH1 0x0 DUP2 ISZERO ISZERO SWAP1 POP SWAP2 SWAP1 POP JUMP JUMPDEST PUSH1 0x0 DUP2 SWAP1 POP SWAP2 SWAP1 POP JUMP JUMPDEST PUSH1 0x0 PUSH20 0xFFFFFFFFFFFFFFFFFFFFFFFFFFFFFFFFFFFFFFFF DUP3 AND SWAP1 POP SWAP2 SWAP1 POP JUMP JUMPDEST PUSH1 0x0 DUP2 SWAP1 POP SWAP2 SWAP1 POP JUMP JUMPDEST PUSH1 0x0 PUSH1 0xFF DUP3 AND SWAP1 POP SWAP2 SWAP1 POP JUMP JUMPDEST DUP3 DUP2 DUP4 CALLDATACOPY PUSH1 0x0 DUP4 DUP4 ADD MSTORE POP POP POP JUMP JUMPDEST PUSH1 0x0 JUMPDEST DUP4 DUP2 LT ISZERO PUSH2 0x12A4 JUMPI DUP1 DUP3 ADD MLOAD DUP2 DUP5 ADD MSTORE PUSH1 0x20 DUP2 ADD SWAP1 POP PUSH2 0x1289 JUMP JUMPDEST DUP4 DUP2 GT ISZERO PUSH2 0x12B3 JUMPI PUSH1 0x0 DUP5 DUP5 ADD MSTORE JUMPDEST POP POP POP POP JUMP JUMPDEST PUSH2 0x12C2 DUP3 PUSH2 0x138B JUMP JUMPDEST DUP2 ADD DUP2 DUP2 LT PUSH8 0xFFFFFFFFFFFFFFFF DUP3 GT OR ISZERO PUSH2 0x12E1 JUMPI PUSH2 0x12E0 PUSH2 0x1348 JUMP JUMPDEST JUMPDEST DUP1 PUSH1 0x40 MSTORE POP POP POP JUMP JUMPDEST PUSH32 0x4E487B7100000000000000000000000000000000000000000000000000000000 PUSH1 0x0 MSTORE PUSH1 0x1 PUSH1 0x4 MSTORE PUSH1 0x24 PUSH1 0x0 REVERT JUMPDEST PUSH32 0x4E487B7100000000000000000000000000000000000000000000000000000000 PUSH1 0x0 MSTORE PUSH1 0x11 PUSH1 0x4 MSTORE PUSH1 0x24 PUSH1 0x0 REVERT JUMPDEST PUSH32 0x4E487B7100000000000000000000000000000000000000000000000000000000 PUSH1 0x0 MSTORE PUSH1 0x41 PUSH1 0x4 MSTORE PUSH1 0x24 PUSH1 0x0 REVERT JUMPDEST PUSH1 0x0 DUP1 REVERT JUMPDEST PUSH1 0x0 DUP1 REVERT JUMPDEST PUSH1 0x0 DUP1 REVERT JUMPDEST PUSH1 0x0 DUP1 REVERT JUMPDEST PUSH1 0x0 PUSH1 0x1F NOT PUSH1 0x1F DUP4 ADD AND SWAP1 POP SWAP2 SWAP1 POP JUMP JUMPDEST PUSH32 0x4E65656420746F2073656E6420657861637420616D6F756E74206F6620776569 PUSH1 0x0 DUP3 ADD MSTORE POP JUMP JUMPDEST PUSH2 0x13CE DUP2 PUSH2 0x1218 JUMP JUMPDEST DUP2 EQ PUSH2 0x13D9 JUMPI PUSH1 0x0 DUP1 REVERT JUMPDEST POP JUMP JUMPDEST PUSH2 0x13E5 DUP2 PUSH2 0x1260 JUMP JUMPDEST DUP2 EQ PUSH2 0x13F0 JUMPI PUSH1 0x0 DUP1 REVERT JUMPDEST POP JUMP INVALID LOG2 PUSH5 0x6970667358 0x22 SLT KECCAK256 0xB2 0xBD PUSH15 0xEE25CBFA52BE45687B84316DE75CE8 BALANCE SMOD 0xC5 PUSH3 0x4B2D8 0xD4 0xAF LOG2 0xD7 LOG3 SWAP3 0xB9 PUSH5 0x736F6C6343 STOP ADDMOD SMOD STOP CALLER "
				},
				"gasEstimates": {
					"creation": {
						"codeDepositCost": "1032200",
						"executionCost": "infinite",
						"totalCost": "infinite"
					},
					"external": {
						"allowance(address,address)": "infinite",
						"application(string,string,address)": "infinite",
						"approve(address,uint256)": "infinite",
						"balanceOf(address)": "2870",
						"buy(uint256)": "infinite",
						"decimals()": "446",
						"get_hash(string)": "infinite",
						"name()": "infinite",
						"symbol()": "infinite",
						"tokenPrice_()": "352",
						"totalSupply()": "2504",
						"transfer(address,uint256)": "infinite",
						"transferFrom(address,address,uint256)": "infinite"
					}
				},
				"methodIdentifiers": {
					"allowance(address,address)": "dd62ed3e",
					"application(string,string,address)": "785963c3",
					"approve(address,uint256)": "095ea7b3",
					"balanceOf(address)": "70a08231",
					"buy(uint256)": "d96a094a",
					"decimals()": "313ce567",
					"get_hash(string)": "845952a8",
					"name()": "06fdde03",
					"symbol()": "95d89b41",
					"tokenPrice_()": "0761c8b9",
					"totalSupply()": "18160ddd",
					"transfer(address,uint256)": "a9059cbb",
					"transferFrom(address,address,uint256)": "23b872dd"
				}
			},
			"storageLayout": {
				"storage": [
					{
						"astId": 898,
						"contract": "Documents/GitHub/contract-token-cryptoMonster/backend/components/CryptoMonster.sol:CryptoMonster",
						"label": "structUser_",
						"offset": 0,
						"slot": "0",
						"type": "t_mapping(t_address,t_struct(structUser)893_storage)"
					},
					{
						"astId": 397,
						"contract": "Documents/GitHub/contract-token-cryptoMonster/backend/components/CryptoMonster.sol:CryptoMonster",
						"label": "investorFirstAdr",
						"offset": 0,
						"slot": "1",
						"type": "t_address"
					},
					{
						"astId": 400,
						"contract": "Documents/GitHub/contract-token-cryptoMonster/backend/components/CryptoMonster.sol:CryptoMonster",
						"label": "investorSecondAdr",
						"offset": 0,
						"slot": "2",
						"type": "t_address"
					},
					{
						"astId": 403,
						"contract": "Documents/GitHub/contract-token-cryptoMonster/backend/components/CryptoMonster.sol:CryptoMonster",
						"label": "bestFriendAdr",
						"offset": 0,
						"slot": "3",
						"type": "t_address"
					},
					{
						"astId": 32,
						"contract": "Documents/GitHub/contract-token-cryptoMonster/backend/components/CryptoMonster.sol:CryptoMonster",
						"label": "allowed",
						"offset": 0,
						"slot": "4",
						"type": "t_mapping(t_address,t_mapping(t_address,t_uint256))"
					},
					{
						"astId": 34,
						"contract": "Documents/GitHub/contract-token-cryptoMonster/backend/components/CryptoMonster.sol:CryptoMonster",
						"label": "totalSupply_",
						"offset": 0,
						"slot": "5",
						"type": "t_uint256"
					}
				],
				"types": {
					"t_address": {
						"encoding": "inplace",
						"label": "address",
						"numberOfBytes": "20"
					},
					"t_bytes32": {
						"encoding": "inplace",
						"label": "bytes32",
						"numberOfBytes": "32"
					},
					"t_enum(Role)883": {
						"encoding": "inplace",
						"label": "enum structures.Role",
						"numberOfBytes": "1"
					},
					"t_mapping(t_address,t_mapping(t_address,t_uint256))": {
						"encoding": "mapping",
						"key": "t_address",
						"label": "mapping(address => mapping(address => uint256))",
						"numberOfBytes": "32",
						"value": "t_mapping(t_address,t_uint256)"
					},
					"t_mapping(t_address,t_struct(structUser)893_storage)": {
						"encoding": "mapping",
						"key": "t_address",
						"label": "mapping(address => struct structures.structUser)",
						"numberOfBytes": "32",
						"value": "t_struct(structUser)893_storage"
					},
					"t_mapping(t_address,t_uint256)": {
						"encoding": "mapping",
						"key": "t_address",
						"label": "mapping(address => uint256)",
						"numberOfBytes": "32",
						"value": "t_uint256"
					},
					"t_string_storage": {
						"encoding": "bytes",
						"label": "string",
						"numberOfBytes": "32"
					},
					"t_struct(structUser)893_storage": {
						"encoding": "inplace",
						"label": "struct structures.structUser",
						"members": [
							{
								"astId": 886,
								"contract": "Documents/GitHub/contract-token-cryptoMonster/backend/components/CryptoMonster.sol:CryptoMonster",
								"label": "role",
								"offset": 0,
								"slot": "0",
								"type": "t_enum(Role)883"
							},
							{
								"astId": 888,
								"contract": "Documents/GitHub/contract-token-cryptoMonster/backend/components/CryptoMonster.sol:CryptoMonster",
								"label": "login",
								"offset": 0,
								"slot": "1",
								"type": "t_string_storage"
							},
							{
								"astId": 890,
								"contract": "Documents/GitHub/contract-token-cryptoMonster/backend/components/CryptoMonster.sol:CryptoMonster",
								"label": "password",
								"offset": 0,
								"slot": "2",
								"type": "t_bytes32"
							},
							{
								"astId": 892,
								"contract": "Documents/GitHub/contract-token-cryptoMonster/backend/components/CryptoMonster.sol:CryptoMonster",
								"label": "balances",
								"offset": 0,
								"slot": "3",
								"type": "t_uint256"
							}
						],
						"numberOfBytes": "128"
					},
					"t_uint256": {
						"encoding": "inplace",
						"label": "uint256",
						"numberOfBytes": "32"
					}
				}
			},
			"userdoc": {
				"kind": "user",
				"methods": {},
				"version": 1
			}
		}
	}
}