{
	"Documents/GitHub/contract-token-cryptoMonster/backend/components/PhasePrivate.sol": {
		"PhasePrivate": {
			"abi": [
				{
					"inputs": [
						{
							"internalType": "string",
							"name": "_name",
							"type": "string"
						},
						{
							"internalType": "string",
							"name": "contactForCommunication",
							"type": "string"
						},
						{
							"internalType": "address",
							"name": "_userAdr",
							"type": "address"
						}
					],
					"name": "application",
					"outputs": [],
					"stateMutability": "nonpayable",
					"type": "function"
				}
			],
			"devdoc": {
				"kind": "dev",
				"methods": {},
				"version": 1
			},
			"evm": {
				"assembly": "    /* \"Documents/GitHub/contract-token-cryptoMonster/backend/components/PhasePrivate.sol\":96:245  contract PhasePrivate {\r... */\n  mstore(0x40, 0x80)\n  callvalue\n  dup1\n  iszero\n  tag_1\n  jumpi\n  0x00\n  dup1\n  revert\ntag_1:\n  pop\n  dataSize(sub_0)\n  dup1\n  dataOffset(sub_0)\n  0x00\n  codecopy\n  0x00\n  return\nstop\n\nsub_0: assembly {\n        /* \"Documents/GitHub/contract-token-cryptoMonster/backend/components/PhasePrivate.sol\":96:245  contract PhasePrivate {\r... */\n      mstore(0x40, 0x80)\n      callvalue\n      dup1\n      iszero\n      tag_1\n      jumpi\n      0x00\n      dup1\n      revert\n    tag_1:\n      pop\n      jumpi(tag_2, lt(calldatasize, 0x04))\n      shr(0xe0, calldataload(0x00))\n      dup1\n      0x785963c3\n      eq\n      tag_3\n      jumpi\n    tag_2:\n      0x00\n      dup1\n      revert\n        /* \"Documents/GitHub/contract-token-cryptoMonster/backend/components/PhasePrivate.sol\":125:242  function application (string memory _name, string memory contactForCommunication, address _userAdr) public {\r... */\n    tag_3:\n      tag_4\n      0x04\n      dup1\n      calldatasize\n      sub\n      dup2\n      add\n      swap1\n      tag_5\n      swap2\n      swap1\n      tag_6\n      jump\t// in\n    tag_5:\n      tag_7\n      jump\t// in\n    tag_4:\n      stop\n    tag_7:\n      pop\n      pop\n      pop\n      jump\t// out\n        /* \"#utility.yul\":7:419   */\n    tag_10:\n        /* \"#utility.yul\":85:90   */\n      0x00\n        /* \"#utility.yul\":110:176   */\n      tag_12\n        /* \"#utility.yul\":126:175   */\n      tag_13\n        /* \"#utility.yul\":168:174   */\n      dup5\n        /* \"#utility.yul\":126:175   */\n      tag_14\n      jump\t// in\n    tag_13:\n        /* \"#utility.yul\":110:176   */\n      tag_15\n      jump\t// in\n    tag_12:\n        /* \"#utility.yul\":101:176   */\n      swap1\n      pop\n        /* \"#utility.yul\":199:205   */\n      dup3\n        /* \"#utility.yul\":192:197   */\n      dup2\n        /* \"#utility.yul\":185:206   */\n      mstore\n        /* \"#utility.yul\":237:241   */\n      0x20\n        /* \"#utility.yul\":230:235   */\n      dup2\n        /* \"#utility.yul\":226:242   */\n      add\n        /* \"#utility.yul\":275:278   */\n      dup5\n        /* \"#utility.yul\":266:272   */\n      dup5\n        /* \"#utility.yul\":261:264   */\n      dup5\n        /* \"#utility.yul\":257:273   */\n      add\n        /* \"#utility.yul\":254:279   */\n      gt\n        /* \"#utility.yul\":251:363   */\n      iszero\n      tag_16\n      jumpi\n        /* \"#utility.yul\":282:361   */\n      tag_17\n      tag_18\n      jump\t// in\n    tag_17:\n        /* \"#utility.yul\":251:363   */\n    tag_16:\n        /* \"#utility.yul\":372:413   */\n      tag_19\n        /* \"#utility.yul\":406:412   */\n      dup5\n        /* \"#utility.yul\":401:404   */\n      dup3\n        /* \"#utility.yul\":396:399   */\n      dup6\n        /* \"#utility.yul\":372:413   */\n      tag_20\n      jump\t// in\n    tag_19:\n        /* \"#utility.yul\":91:419   */\n      pop\n        /* \"#utility.yul\":7:419   */\n      swap4\n      swap3\n      pop\n      pop\n      pop\n      jump\t// out\n        /* \"#utility.yul\":425:564   */\n    tag_21:\n        /* \"#utility.yul\":471:476   */\n      0x00\n        /* \"#utility.yul\":509:515   */\n      dup2\n        /* \"#utility.yul\":496:516   */\n      calldataload\n        /* \"#utility.yul\":487:516   */\n      swap1\n      pop\n        /* \"#utility.yul\":525:558   */\n      tag_23\n        /* \"#utility.yul\":552:557   */\n      dup2\n        /* \"#utility.yul\":525:558   */\n      tag_24\n      jump\t// in\n    tag_23:\n        /* \"#utility.yul\":425:564   */\n      swap3\n      swap2\n      pop\n      pop\n      jump\t// out\n        /* \"#utility.yul\":584:924   */\n    tag_25:\n        /* \"#utility.yul\":640:645   */\n      0x00\n        /* \"#utility.yul\":689:692   */\n      dup3\n        /* \"#utility.yul\":682:686   */\n      0x1f\n        /* \"#utility.yul\":674:680   */\n      dup4\n        /* \"#utility.yul\":670:687   */\n      add\n        /* \"#utility.yul\":666:693   */\n      slt\n        /* \"#utility.yul\":656:778   */\n      tag_27\n      jumpi\n        /* \"#utility.yul\":697:776   */\n      tag_28\n      tag_29\n      jump\t// in\n    tag_28:\n        /* \"#utility.yul\":656:778   */\n    tag_27:\n        /* \"#utility.yul\":814:820   */\n      dup2\n        /* \"#utility.yul\":801:821   */\n      calldataload\n        /* \"#utility.yul\":839:918   */\n      tag_30\n        /* \"#utility.yul\":914:917   */\n      dup5\n        /* \"#utility.yul\":906:912   */\n      dup3\n        /* \"#utility.yul\":899:903   */\n      0x20\n        /* \"#utility.yul\":891:897   */\n      dup7\n        /* \"#utility.yul\":887:904   */\n      add\n        /* \"#utility.yul\":839:918   */\n      tag_10\n      jump\t// in\n    tag_30:\n        /* \"#utility.yul\":830:918   */\n      swap2\n      pop\n        /* \"#utility.yul\":646:924   */\n      pop\n        /* \"#utility.yul\":584:924   */\n      swap3\n      swap2\n      pop\n      pop\n      jump\t// out\n        /* \"#utility.yul\":930:1909   */\n    tag_6:\n        /* \"#utility.yul\":1027:1033   */\n      0x00\n        /* \"#utility.yul\":1035:1041   */\n      dup1\n        /* \"#utility.yul\":1043:1049   */\n      0x00\n        /* \"#utility.yul\":1092:1094   */\n      0x60\n        /* \"#utility.yul\":1080:1089   */\n      dup5\n        /* \"#utility.yul\":1071:1078   */\n      dup7\n        /* \"#utility.yul\":1067:1090   */\n      sub\n        /* \"#utility.yul\":1063:1095   */\n      slt\n        /* \"#utility.yul\":1060:1179   */\n      iszero\n      tag_32\n      jumpi\n        /* \"#utility.yul\":1098:1177   */\n      tag_33\n      tag_34\n      jump\t// in\n    tag_33:\n        /* \"#utility.yul\":1060:1179   */\n    tag_32:\n        /* \"#utility.yul\":1246:1247   */\n      0x00\n        /* \"#utility.yul\":1235:1244   */\n      dup5\n        /* \"#utility.yul\":1231:1248   */\n      add\n        /* \"#utility.yul\":1218:1249   */\n      calldataload\n        /* \"#utility.yul\":1276:1294   */\n      0xffffffffffffffff\n        /* \"#utility.yul\":1268:1274   */\n      dup2\n        /* \"#utility.yul\":1265:1295   */\n      gt\n        /* \"#utility.yul\":1262:1379   */\n      iszero\n      tag_35\n      jumpi\n        /* \"#utility.yul\":1298:1377   */\n      tag_36\n      tag_37\n      jump\t// in\n    tag_36:\n        /* \"#utility.yul\":1262:1379   */\n    tag_35:\n        /* \"#utility.yul\":1403:1466   */\n      tag_38\n        /* \"#utility.yul\":1458:1465   */\n      dup7\n        /* \"#utility.yul\":1449:1455   */\n      dup3\n        /* \"#utility.yul\":1438:1447   */\n      dup8\n        /* \"#utility.yul\":1434:1456   */\n      add\n        /* \"#utility.yul\":1403:1466   */\n      tag_25\n      jump\t// in\n    tag_38:\n        /* \"#utility.yul\":1393:1466   */\n      swap4\n      pop\n        /* \"#utility.yul\":1189:1476   */\n      pop\n        /* \"#utility.yul\":1543:1545   */\n      0x20\n        /* \"#utility.yul\":1532:1541   */\n      dup5\n        /* \"#utility.yul\":1528:1546   */\n      add\n        /* \"#utility.yul\":1515:1547   */\n      calldataload\n        /* \"#utility.yul\":1574:1592   */\n      0xffffffffffffffff\n        /* \"#utility.yul\":1566:1572   */\n      dup2\n        /* \"#utility.yul\":1563:1593   */\n      gt\n        /* \"#utility.yul\":1560:1677   */\n      iszero\n      tag_39\n      jumpi\n        /* \"#utility.yul\":1596:1675   */\n      tag_40\n      tag_37\n      jump\t// in\n    tag_40:\n        /* \"#utility.yul\":1560:1677   */\n    tag_39:\n        /* \"#utility.yul\":1701:1764   */\n      tag_41\n        /* \"#utility.yul\":1756:1763   */\n      dup7\n        /* \"#utility.yul\":1747:1753   */\n      dup3\n        /* \"#utility.yul\":1736:1745   */\n      dup8\n        /* \"#utility.yul\":1732:1754   */\n      add\n        /* \"#utility.yul\":1701:1764   */\n      tag_25\n      jump\t// in\n    tag_41:\n        /* \"#utility.yul\":1691:1764   */\n      swap3\n      pop\n        /* \"#utility.yul\":1486:1774   */\n      pop\n        /* \"#utility.yul\":1813:1815   */\n      0x40\n        /* \"#utility.yul\":1839:1892   */\n      tag_42\n        /* \"#utility.yul\":1884:1891   */\n      dup7\n        /* \"#utility.yul\":1875:1881   */\n      dup3\n        /* \"#utility.yul\":1864:1873   */\n      dup8\n        /* \"#utility.yul\":1860:1882   */\n      add\n        /* \"#utility.yul\":1839:1892   */\n      tag_21\n      jump\t// in\n    tag_42:\n        /* \"#utility.yul\":1829:1892   */\n      swap2\n      pop\n        /* \"#utility.yul\":1784:1902   */\n      pop\n        /* \"#utility.yul\":930:1909   */\n      swap3\n      pop\n      swap3\n      pop\n      swap3\n      jump\t// out\n        /* \"#utility.yul\":1915:2044   */\n    tag_15:\n        /* \"#utility.yul\":1949:1955   */\n      0x00\n        /* \"#utility.yul\":1976:1996   */\n      tag_44\n      tag_45\n      jump\t// in\n    tag_44:\n        /* \"#utility.yul\":1966:1996   */\n      swap1\n      pop\n        /* \"#utility.yul\":2005:2038   */\n      tag_46\n        /* \"#utility.yul\":2033:2037   */\n      dup3\n        /* \"#utility.yul\":2025:2031   */\n      dup3\n        /* \"#utility.yul\":2005:2038   */\n      tag_47\n      jump\t// in\n    tag_46:\n        /* \"#utility.yul\":1915:2044   */\n      swap2\n      swap1\n      pop\n      jump\t// out\n        /* \"#utility.yul\":2050:2125   */\n    tag_45:\n        /* \"#utility.yul\":2083:2089   */\n      0x00\n        /* \"#utility.yul\":2116:2118   */\n      0x40\n        /* \"#utility.yul\":2110:2119   */\n      mload\n        /* \"#utility.yul\":2100:2119   */\n      swap1\n      pop\n        /* \"#utility.yul\":2050:2125   */\n      swap1\n      jump\t// out\n        /* \"#utility.yul\":2131:2439   */\n    tag_14:\n        /* \"#utility.yul\":2193:2197   */\n      0x00\n        /* \"#utility.yul\":2283:2301   */\n      0xffffffffffffffff\n        /* \"#utility.yul\":2275:2281   */\n      dup3\n        /* \"#utility.yul\":2272:2302   */\n      gt\n        /* \"#utility.yul\":2269:2325   */\n      iszero\n      tag_50\n      jumpi\n        /* \"#utility.yul\":2305:2323   */\n      tag_51\n      tag_52\n      jump\t// in\n    tag_51:\n        /* \"#utility.yul\":2269:2325   */\n    tag_50:\n        /* \"#utility.yul\":2343:2372   */\n      tag_53\n        /* \"#utility.yul\":2365:2371   */\n      dup3\n        /* \"#utility.yul\":2343:2372   */\n      tag_54\n      jump\t// in\n    tag_53:\n        /* \"#utility.yul\":2335:2372   */\n      swap1\n      pop\n        /* \"#utility.yul\":2427:2431   */\n      0x20\n        /* \"#utility.yul\":2421:2425   */\n      dup2\n        /* \"#utility.yul\":2417:2432   */\n      add\n        /* \"#utility.yul\":2409:2432   */\n      swap1\n      pop\n        /* \"#utility.yul\":2131:2439   */\n      swap2\n      swap1\n      pop\n      jump\t// out\n        /* \"#utility.yul\":2445:2541   */\n    tag_55:\n        /* \"#utility.yul\":2482:2489   */\n      0x00\n        /* \"#utility.yul\":2511:2535   */\n      tag_57\n        /* \"#utility.yul\":2529:2534   */\n      dup3\n        /* \"#utility.yul\":2511:2535   */\n      tag_58\n      jump\t// in\n    tag_57:\n        /* \"#utility.yul\":2500:2535   */\n      swap1\n      pop\n        /* \"#utility.yul\":2445:2541   */\n      swap2\n      swap1\n      pop\n      jump\t// out\n        /* \"#utility.yul\":2547:2673   */\n    tag_58:\n        /* \"#utility.yul\":2584:2591   */\n      0x00\n        /* \"#utility.yul\":2624:2666   */\n      0xffffffffffffffffffffffffffffffffffffffff\n        /* \"#utility.yul\":2617:2622   */\n      dup3\n        /* \"#utility.yul\":2613:2667   */\n      and\n        /* \"#utility.yul\":2602:2667   */\n      swap1\n      pop\n        /* \"#utility.yul\":2547:2673   */\n      swap2\n      swap1\n      pop\n      jump\t// out\n        /* \"#utility.yul\":2679:2833   */\n    tag_20:\n        /* \"#utility.yul\":2763:2769   */\n      dup3\n        /* \"#utility.yul\":2758:2761   */\n      dup2\n        /* \"#utility.yul\":2753:2756   */\n      dup4\n        /* \"#utility.yul\":2740:2770   */\n      calldatacopy\n        /* \"#utility.yul\":2825:2826   */\n      0x00\n        /* \"#utility.yul\":2816:2822   */\n      dup4\n        /* \"#utility.yul\":2811:2814   */\n      dup4\n        /* \"#utility.yul\":2807:2823   */\n      add\n        /* \"#utility.yul\":2800:2827   */\n      mstore\n        /* \"#utility.yul\":2679:2833   */\n      pop\n      pop\n      pop\n      jump\t// out\n        /* \"#utility.yul\":2839:3120   */\n    tag_47:\n        /* \"#utility.yul\":2922:2949   */\n      tag_62\n        /* \"#utility.yul\":2944:2948   */\n      dup3\n        /* \"#utility.yul\":2922:2949   */\n      tag_54\n      jump\t// in\n    tag_62:\n        /* \"#utility.yul\":2914:2920   */\n      dup2\n        /* \"#utility.yul\":2910:2950   */\n      add\n        /* \"#utility.yul\":3052:3058   */\n      dup2\n        /* \"#utility.yul\":3040:3050   */\n      dup2\n        /* \"#utility.yul\":3037:3059   */\n      lt\n        /* \"#utility.yul\":3016:3034   */\n      0xffffffffffffffff\n        /* \"#utility.yul\":3004:3014   */\n      dup3\n        /* \"#utility.yul\":3001:3035   */\n      gt\n        /* \"#utility.yul\":2998:3060   */\n      or\n        /* \"#utility.yul\":2995:3083   */\n      iszero\n      tag_63\n      jumpi\n        /* \"#utility.yul\":3063:3081   */\n      tag_64\n      tag_52\n      jump\t// in\n    tag_64:\n        /* \"#utility.yul\":2995:3083   */\n    tag_63:\n        /* \"#utility.yul\":3103:3113   */\n      dup1\n        /* \"#utility.yul\":3099:3101   */\n      0x40\n        /* \"#utility.yul\":3092:3114   */\n      mstore\n        /* \"#utility.yul\":2882:3120   */\n      pop\n        /* \"#utility.yul\":2839:3120   */\n      pop\n      pop\n      jump\t// out\n        /* \"#utility.yul\":3126:3306   */\n    tag_52:\n        /* \"#utility.yul\":3174:3251   */\n      0x4e487b7100000000000000000000000000000000000000000000000000000000\n        /* \"#utility.yul\":3171:3172   */\n      0x00\n        /* \"#utility.yul\":3164:3252   */\n      mstore\n        /* \"#utility.yul\":3271:3275   */\n      0x41\n        /* \"#utility.yul\":3268:3269   */\n      0x04\n        /* \"#utility.yul\":3261:3276   */\n      mstore\n        /* \"#utility.yul\":3295:3299   */\n      0x24\n        /* \"#utility.yul\":3292:3293   */\n      0x00\n        /* \"#utility.yul\":3285:3300   */\n      revert\n        /* \"#utility.yul\":3312:3429   */\n    tag_29:\n        /* \"#utility.yul\":3421:3422   */\n      0x00\n        /* \"#utility.yul\":3418:3419   */\n      dup1\n        /* \"#utility.yul\":3411:3423   */\n      revert\n        /* \"#utility.yul\":3435:3552   */\n    tag_18:\n        /* \"#utility.yul\":3544:3545   */\n      0x00\n        /* \"#utility.yul\":3541:3542   */\n      dup1\n        /* \"#utility.yul\":3534:3546   */\n      revert\n        /* \"#utility.yul\":3558:3675   */\n    tag_37:\n        /* \"#utility.yul\":3667:3668   */\n      0x00\n        /* \"#utility.yul\":3664:3665   */\n      dup1\n        /* \"#utility.yul\":3657:3669   */\n      revert\n        /* \"#utility.yul\":3681:3798   */\n    tag_34:\n        /* \"#utility.yul\":3790:3791   */\n      0x00\n        /* \"#utility.yul\":3787:3788   */\n      dup1\n        /* \"#utility.yul\":3780:3792   */\n      revert\n        /* \"#utility.yul\":3804:3906   */\n    tag_54:\n        /* \"#utility.yul\":3845:3851   */\n      0x00\n        /* \"#utility.yul\":3896:3898   */\n      0x1f\n        /* \"#utility.yul\":3892:3899   */\n      not\n        /* \"#utility.yul\":3887:3889   */\n      0x1f\n        /* \"#utility.yul\":3880:3885   */\n      dup4\n        /* \"#utility.yul\":3876:3890   */\n      add\n        /* \"#utility.yul\":3872:3900   */\n      and\n        /* \"#utility.yul\":3862:3900   */\n      swap1\n      pop\n        /* \"#utility.yul\":3804:3906   */\n      swap2\n      swap1\n      pop\n      jump\t// out\n        /* \"#utility.yul\":3912:4034   */\n    tag_24:\n        /* \"#utility.yul\":3985:4009   */\n      tag_72\n        /* \"#utility.yul\":4003:4008   */\n      dup2\n        /* \"#utility.yul\":3985:4009   */\n      tag_55\n      jump\t// in\n    tag_72:\n        /* \"#utility.yul\":3978:3983   */\n      dup2\n        /* \"#utility.yul\":3975:4010   */\n      eq\n        /* \"#utility.yul\":3965:4028   */\n      tag_73\n      jumpi\n        /* \"#utility.yul\":4024:4025   */\n      0x00\n        /* \"#utility.yul\":4021:4022   */\n      dup1\n        /* \"#utility.yul\":4014:4026   */\n      revert\n        /* \"#utility.yul\":3965:4028   */\n    tag_73:\n        /* \"#utility.yul\":3912:4034   */\n      pop\n      jump\t// out\n\n    auxdata: 0xa2646970667358221220a719754a5a395853d73ac3e80dd3df7f99a18293e832dc490fca2864c50aa58564736f6c63430008070033\n}\n",
				"bytecode": {
					"linkReferences": {},
					"object": "608060405234801561001057600080fd5b506102ca806100206000396000f3fe608060405234801561001057600080fd5b506004361061002b5760003560e01c8063785963c314610030575b600080fd5b61004a600480360381019061004591906100d6565b61004c565b005b505050565b600061006461005f84610186565b610161565b9050828152602081018484840111156100805761007f61025d565b5b61008b8482856101e9565b509392505050565b6000813590506100a28161027d565b92915050565b600082601f8301126100bd576100bc610258565b5b81356100cd848260208601610051565b91505092915050565b6000806000606084860312156100ef576100ee610267565b5b600084013567ffffffffffffffff81111561010d5761010c610262565b5b610119868287016100a8565b935050602084013567ffffffffffffffff81111561013a57610139610262565b5b610146868287016100a8565b925050604061015786828701610093565b9150509250925092565b600061016b61017c565b905061017782826101f8565b919050565b6000604051905090565b600067ffffffffffffffff8211156101a1576101a0610229565b5b6101aa8261026c565b9050602081019050919050565b60006101c2826101c9565b9050919050565b600073ffffffffffffffffffffffffffffffffffffffff82169050919050565b82818337600083830152505050565b6102018261026c565b810181811067ffffffffffffffff821117156102205761021f610229565b5b80604052505050565b7f4e487b7100000000000000000000000000000000000000000000000000000000600052604160045260246000fd5b600080fd5b600080fd5b600080fd5b600080fd5b6000601f19601f8301169050919050565b610286816101b7565b811461029157600080fd5b5056fea2646970667358221220a719754a5a395853d73ac3e80dd3df7f99a18293e832dc490fca2864c50aa58564736f6c63430008070033",
					"opcodes": "PUSH1 0x80 PUSH1 0x40 MSTORE CALLVALUE DUP1 ISZERO PUSH2 0x10 JUMPI PUSH1 0x0 DUP1 REVERT JUMPDEST POP PUSH2 0x2CA DUP1 PUSH2 0x20 PUSH1 0x0 CODECOPY PUSH1 0x0 RETURN INVALID PUSH1 0x80 PUSH1 0x40 MSTORE CALLVALUE DUP1 ISZERO PUSH2 0x10 JUMPI PUSH1 0x0 DUP1 REVERT JUMPDEST POP PUSH1 0x4 CALLDATASIZE LT PUSH2 0x2B JUMPI PUSH1 0x0 CALLDATALOAD PUSH1 0xE0 SHR DUP1 PUSH4 0x785963C3 EQ PUSH2 0x30 JUMPI JUMPDEST PUSH1 0x0 DUP1 REVERT JUMPDEST PUSH2 0x4A PUSH1 0x4 DUP1 CALLDATASIZE SUB DUP2 ADD SWAP1 PUSH2 0x45 SWAP2 SWAP1 PUSH2 0xD6 JUMP JUMPDEST PUSH2 0x4C JUMP JUMPDEST STOP JUMPDEST POP POP POP JUMP JUMPDEST PUSH1 0x0 PUSH2 0x64 PUSH2 0x5F DUP5 PUSH2 0x186 JUMP JUMPDEST PUSH2 0x161 JUMP JUMPDEST SWAP1 POP DUP3 DUP2 MSTORE PUSH1 0x20 DUP2 ADD DUP5 DUP5 DUP5 ADD GT ISZERO PUSH2 0x80 JUMPI PUSH2 0x7F PUSH2 0x25D JUMP JUMPDEST JUMPDEST PUSH2 0x8B DUP5 DUP3 DUP6 PUSH2 0x1E9 JUMP JUMPDEST POP SWAP4 SWAP3 POP POP POP JUMP JUMPDEST PUSH1 0x0 DUP2 CALLDATALOAD SWAP1 POP PUSH2 0xA2 DUP2 PUSH2 0x27D JUMP JUMPDEST SWAP3 SWAP2 POP POP JUMP JUMPDEST PUSH1 0x0 DUP3 PUSH1 0x1F DUP4 ADD SLT PUSH2 0xBD JUMPI PUSH2 0xBC PUSH2 0x258 JUMP JUMPDEST JUMPDEST DUP2 CALLDATALOAD PUSH2 0xCD DUP5 DUP3 PUSH1 0x20 DUP7 ADD PUSH2 0x51 JUMP JUMPDEST SWAP2 POP POP SWAP3 SWAP2 POP POP JUMP JUMPDEST PUSH1 0x0 DUP1 PUSH1 0x0 PUSH1 0x60 DUP5 DUP7 SUB SLT ISZERO PUSH2 0xEF JUMPI PUSH2 0xEE PUSH2 0x267 JUMP JUMPDEST JUMPDEST PUSH1 0x0 DUP5 ADD CALLDATALOAD PUSH8 0xFFFFFFFFFFFFFFFF DUP2 GT ISZERO PUSH2 0x10D JUMPI PUSH2 0x10C PUSH2 0x262 JUMP JUMPDEST JUMPDEST PUSH2 0x119 DUP7 DUP3 DUP8 ADD PUSH2 0xA8 JUMP JUMPDEST SWAP4 POP POP PUSH1 0x20 DUP5 ADD CALLDATALOAD PUSH8 0xFFFFFFFFFFFFFFFF DUP2 GT ISZERO PUSH2 0x13A JUMPI PUSH2 0x139 PUSH2 0x262 JUMP JUMPDEST JUMPDEST PUSH2 0x146 DUP7 DUP3 DUP8 ADD PUSH2 0xA8 JUMP JUMPDEST SWAP3 POP POP PUSH1 0x40 PUSH2 0x157 DUP7 DUP3 DUP8 ADD PUSH2 0x93 JUMP JUMPDEST SWAP2 POP POP SWAP3 POP SWAP3 POP SWAP3 JUMP JUMPDEST PUSH1 0x0 PUSH2 0x16B PUSH2 0x17C JUMP JUMPDEST SWAP1 POP PUSH2 0x177 DUP3 DUP3 PUSH2 0x1F8 JUMP JUMPDEST SWAP2 SWAP1 POP JUMP JUMPDEST PUSH1 0x0 PUSH1 0x40 MLOAD SWAP1 POP SWAP1 JUMP JUMPDEST PUSH1 0x0 PUSH8 0xFFFFFFFFFFFFFFFF DUP3 GT ISZERO PUSH2 0x1A1 JUMPI PUSH2 0x1A0 PUSH2 0x229 JUMP JUMPDEST JUMPDEST PUSH2 0x1AA DUP3 PUSH2 0x26C JUMP JUMPDEST SWAP1 POP PUSH1 0x20 DUP2 ADD SWAP1 POP SWAP2 SWAP1 POP JUMP JUMPDEST PUSH1 0x0 PUSH2 0x1C2 DUP3 PUSH2 0x1C9 JUMP JUMPDEST SWAP1 POP SWAP2 SWAP1 POP JUMP JUMPDEST PUSH1 0x0 PUSH20 0xFFFFFFFFFFFFFFFFFFFFFFFFFFFFFFFFFFFFFFFF DUP3 AND SWAP1 POP SWAP2 SWAP1 POP JUMP JUMPDEST DUP3 DUP2 DUP4 CALLDATACOPY PUSH1 0x0 DUP4 DUP4 ADD MSTORE POP POP POP JUMP JUMPDEST PUSH2 0x201 DUP3 PUSH2 0x26C JUMP JUMPDEST DUP2 ADD DUP2 DUP2 LT PUSH8 0xFFFFFFFFFFFFFFFF DUP3 GT OR ISZERO PUSH2 0x220 JUMPI PUSH2 0x21F PUSH2 0x229 JUMP JUMPDEST JUMPDEST DUP1 PUSH1 0x40 MSTORE POP POP POP JUMP JUMPDEST PUSH32 0x4E487B7100000000000000000000000000000000000000000000000000000000 PUSH1 0x0 MSTORE PUSH1 0x41 PUSH1 0x4 MSTORE PUSH1 0x24 PUSH1 0x0 REVERT JUMPDEST PUSH1 0x0 DUP1 REVERT JUMPDEST PUSH1 0x0 DUP1 REVERT JUMPDEST PUSH1 0x0 DUP1 REVERT JUMPDEST PUSH1 0x0 DUP1 REVERT JUMPDEST PUSH1 0x0 PUSH1 0x1F NOT PUSH1 0x1F DUP4 ADD AND SWAP1 POP SWAP2 SWAP1 POP JUMP JUMPDEST PUSH2 0x286 DUP2 PUSH2 0x1B7 JUMP JUMPDEST DUP2 EQ PUSH2 0x291 JUMPI PUSH1 0x0 DUP1 REVERT JUMPDEST POP JUMP INVALID LOG2 PUSH5 0x6970667358 0x22 SLT KECCAK256 0xA7 NOT PUSH22 0x4A5A395853D73AC3E80DD3DF7F99A18293E832DC490F 0xCA 0x28 PUSH5 0xC50AA58564 PUSH20 0x6F6C634300080700330000000000000000000000 "
				},
				"gasEstimates": {
					"creation": {
						"codeDepositCost": "142800",
						"executionCost": "190",
						"totalCost": "142990"
					},
					"external": {
						"application(string,string,address)": "infinite"
					}
				},
				"methodIdentifiers": {
					"application(string,string,address)": "785963c3"
				}
			},
			"storageLayout": {
				"storage": [],
				"types": null
			},
			"userdoc": {
				"kind": "user",
				"methods": {},
				"version": 1
			}
		}
	}
}